{"abi":[{"type":"function","name":"_msgSender","inputs":[],"outputs":[{"name":"sender","type":"address","internalType":"address"}],"stateMutability":"view"},{"type":"function","name":"_msgValue","inputs":[],"outputs":[{"name":"value","type":"uint256","internalType":"uint256"}],"stateMutability":"view"},{"type":"function","name":"_world","inputs":[],"outputs":[{"name":"","type":"address","internalType":"address"}],"stateMutability":"view"},{"type":"function","name":"approve","inputs":[{"name":"to","type":"address","internalType":"address"},{"name":"tokenId","type":"uint256","internalType":"uint256"}],"outputs":[],"stateMutability":"nonpayable"},{"type":"function","name":"balanceOf","inputs":[{"name":"owner","type":"address","internalType":"address"}],"outputs":[{"name":"","type":"uint256","internalType":"uint256"}],"stateMutability":"view"},{"type":"function","name":"burn","inputs":[{"name":"tokenId","type":"uint256","internalType":"uint256"}],"outputs":[],"stateMutability":"nonpayable"},{"type":"function","name":"getApproved","inputs":[{"name":"tokenId","type":"uint256","internalType":"uint256"}],"outputs":[{"name":"","type":"address","internalType":"address"}],"stateMutability":"view"},{"type":"function","name":"isApprovedForAll","inputs":[{"name":"owner","type":"address","internalType":"address"},{"name":"operator","type":"address","internalType":"address"}],"outputs":[{"name":"","type":"bool","internalType":"bool"}],"stateMutability":"view"},{"type":"function","name":"mint","inputs":[{"name":"to","type":"address","internalType":"address"},{"name":"tokenId","type":"uint256","internalType":"uint256"}],"outputs":[],"stateMutability":"nonpayable"},{"type":"function","name":"name","inputs":[],"outputs":[{"name":"","type":"string","internalType":"string"}],"stateMutability":"view"},{"type":"function","name":"ownerOf","inputs":[{"name":"tokenId","type":"uint256","internalType":"uint256"}],"outputs":[{"name":"","type":"address","internalType":"address"}],"stateMutability":"view"},{"type":"function","name":"safeMint","inputs":[{"name":"to","type":"address","internalType":"address"},{"name":"tokenId","type":"uint256","internalType":"uint256"},{"name":"data","type":"bytes","internalType":"bytes"}],"outputs":[],"stateMutability":"nonpayable"},{"type":"function","name":"safeMint","inputs":[{"name":"to","type":"address","internalType":"address"},{"name":"tokenId","type":"uint256","internalType":"uint256"}],"outputs":[],"stateMutability":"nonpayable"},{"type":"function","name":"safeTransferFrom","inputs":[{"name":"from","type":"address","internalType":"address"},{"name":"to","type":"address","internalType":"address"},{"name":"tokenId","type":"uint256","internalType":"uint256"}],"outputs":[],"stateMutability":"nonpayable"},{"type":"function","name":"safeTransferFrom","inputs":[{"name":"from","type":"address","internalType":"address"},{"name":"to","type":"address","internalType":"address"},{"name":"tokenId","type":"uint256","internalType":"uint256"},{"name":"data","type":"bytes","internalType":"bytes"}],"outputs":[],"stateMutability":"nonpayable"},{"type":"function","name":"setApprovalForAll","inputs":[{"name":"operator","type":"address","internalType":"address"},{"name":"approved","type":"bool","internalType":"bool"}],"outputs":[],"stateMutability":"nonpayable"},{"type":"function","name":"supportsInterface","inputs":[{"name":"interfaceId","type":"bytes4","internalType":"bytes4"}],"outputs":[{"name":"","type":"bool","internalType":"bool"}],"stateMutability":"pure"},{"type":"function","name":"symbol","inputs":[],"outputs":[{"name":"","type":"string","internalType":"string"}],"stateMutability":"view"},{"type":"function","name":"tokenURI","inputs":[{"name":"tokenId","type":"uint256","internalType":"uint256"}],"outputs":[{"name":"","type":"string","internalType":"string"}],"stateMutability":"view"},{"type":"function","name":"transferFrom","inputs":[{"name":"from","type":"address","internalType":"address"},{"name":"to","type":"address","internalType":"address"},{"name":"tokenId","type":"uint256","internalType":"uint256"}],"outputs":[],"stateMutability":"nonpayable"},{"type":"event","name":"Approval","inputs":[{"name":"owner","type":"address","indexed":true,"internalType":"address"},{"name":"approved","type":"address","indexed":true,"internalType":"address"},{"name":"tokenId","type":"uint256","indexed":true,"internalType":"uint256"}],"anonymous":false},{"type":"event","name":"ApprovalForAll","inputs":[{"name":"owner","type":"address","indexed":true,"internalType":"address"},{"name":"operator","type":"address","indexed":true,"internalType":"address"},{"name":"approved","type":"bool","indexed":false,"internalType":"bool"}],"anonymous":false},{"type":"event","name":"Store_SpliceStaticData","inputs":[{"name":"tableId","type":"bytes32","indexed":true,"internalType":"ResourceId"},{"name":"keyTuple","type":"bytes32[]","indexed":false,"internalType":"bytes32[]"},{"name":"start","type":"uint48","indexed":false,"internalType":"uint48"},{"name":"data","type":"bytes","indexed":false,"internalType":"bytes"}],"anonymous":false},{"type":"event","name":"Transfer","inputs":[{"name":"from","type":"address","indexed":true,"internalType":"address"},{"name":"to","type":"address","indexed":true,"internalType":"address"},{"name":"tokenId","type":"uint256","indexed":true,"internalType":"uint256"}],"anonymous":false},{"type":"error","name":"ERC721IncorrectOwner","inputs":[{"name":"sender","type":"address","internalType":"address"},{"name":"tokenId","type":"uint256","internalType":"uint256"},{"name":"owner","type":"address","internalType":"address"}]},{"type":"error","name":"ERC721InsufficientApproval","inputs":[{"name":"operator","type":"address","internalType":"address"},{"name":"tokenId","type":"uint256","internalType":"uint256"}]},{"type":"error","name":"ERC721InvalidApprover","inputs":[{"name":"approver","type":"address","internalType":"address"}]},{"type":"error","name":"ERC721InvalidOperator","inputs":[{"name":"operator","type":"address","internalType":"address"}]},{"type":"error","name":"ERC721InvalidOwner","inputs":[{"name":"owner","type":"address","internalType":"address"}]},{"type":"error","name":"ERC721InvalidReceiver","inputs":[{"name":"receiver","type":"address","internalType":"address"}]},{"type":"error","name":"ERC721InvalidSender","inputs":[{"name":"sender","type":"address","internalType":"address"}]},{"type":"error","name":"ERC721NonexistentToken","inputs":[{"name":"tokenId","type":"uint256","internalType":"uint256"}]},{"type":"error","name":"PuppetMaster_NoPuppet","inputs":[{"name":"systemAddress","type":"address","internalType":"address"},{"name":"systemId","type":"bytes32","internalType":"ResourceId"}]},{"type":"error","name":"Slice_OutOfBounds","inputs":[{"name":"data","type":"bytes","internalType":"bytes"},{"name":"start","type":"uint256","internalType":"uint256"},{"name":"end","type":"uint256","internalType":"uint256"}]},{"type":"error","name":"World_AccessDenied","inputs":[{"name":"resource","type":"string","internalType":"string"},{"name":"caller","type":"address","internalType":"address"}]}],"bytecode":{"object":"0x6080806040523461001657612596908161001b8239f35b5f80fdfe60806040526004361015610011575f80fd5b5f3560e01c806301ffc9a71461015457806306fdde031461014f578063081812fc1461014a578063095ea7b314610145578063119df25f1461014057806323b872dd1461013b57806340c10f191461013657806342842e0e1461013157806342966c681461012c57806345ec9354146101275780636352211e1461012257806370a082311461011d5780638832e6e31461011857806395d89b4114610113578063a14481941461010e578063a22cb46514610109578063b88d4fde14610104578063c87b56dd146100ff578063e1af802c146100fa5763e985e9c5146100f5575f80fd5b610b3e565b610b24565b610a3b565b6109e6565b6108f0565b6108af565b610876565b61081f565b6106c7565b6106a9565b61068a565b61055a565b610528565b6104fb565b6104e4565b610495565b61033b565b6102b7565b610229565b61016f565b6001600160e01b031981160361016b57565b5f80fd5b3461016b57602036600319011261016b57602060043561018e81610159565b63ffffffff60e01b1663b5dee12760e01b81149081156101b4575b506040519015158152f35b6301ffc9a760e01b1490505f6101a9565b5f91031261016b57565b5f5b8381106101e05750505f910152565b81810151838201526020016101d1565b90602091610209815180928185528580860191016101cf565b601f01601f1916010190565b9060206102269281815201906101f0565b90565b3461016b575f36600319011261016b576102a061028c61027e6001600160901b031961025430611441565b60101b1660101c600160801b600160f01b0316674d6574616461746160401b613a3160f11b011790565b610286610d32565b90611549565b6040519182916020835260208301906101f0565b0390f35b6001600160a01b03909116815260200190565b3461016b57602036600319011261016b5760206102fd6004356102d981610d8e565b506102f86001600160901b03196102ef30611441565b60101b16611469565b6116b1565b6040516001600160a01b039091168152f35b600435906001600160a01b038216820361016b57565b602435906001600160a01b038216820361016b57565b3461016b57604036600319011261016b5761035461030f565b60243590610360610dbb565b9161036a81610d8e565b6001600160a01b03938085168015159081610488575b508061045d575b61043c57506103a361039761197b565b6001600160a01b031690565b936103ac610d32565b94803b1561016b575f928385936103de604051998a96879586946366c93bdb60e01b8652808d16911660048601610e3d565b03925af19283156104375761041c9361041e575b5061041761041261040230611441565b60101b6001600160901b03191690565b611469565b611943565b005b8061042b6104319261074d565b806101c5565b5f6103f2565b610e86565b60405163a9fbf51f60e01b815290819061045990600483016102a4565b0390fd5b5061048361047f828461047a61047561040230611441565b6113d6565b611401565b1590565b610387565b905085831614155f610380565b3461016b575f36600319011261016b5760206102fd610dbb565b606090600319011261016b576001600160a01b0390600435828116810361016b5791602435908116810361016b579060443590565b3461016b5761041c6104f5366104af565b91610b8d565b3461016b57604036600319011261016b5761041c61051761030f565b61051f610e91565b60243590610fc3565b3461016b5761041c610539366104af565b906040519261054784610765565b5f8452610555838383610b8d565b6112fd565b3461016b57602036600319011261016b57600435610576610e91565b61058a61058561040230611441565b6110bd565b6105ac826102f86001600160901b03196105a330611441565b60101b16611494565b6001600160a01b0381168015929091908315610663575b50506105e2836105dd6105d861040230611441565b611494565b611899565b6105ed61039761197b565b906105f6610d32565b823b1561016b5761062292855f8094604051968795869485936366c93bdb60e01b855260048501610dd2565b03925af1801561043757610650575b5061063857005b60249060405190637e27328960e01b82526004820152fd5b8061042b61065d9261074d565b5f610631565b61068391610670866116d5565b5f1961067c828461110b565b01916117c8565b5f806105c3565b3461016b575f36600319011261016b576020604051601f193601358152f35b3461016b57602036600319011261016b5760206102fd600435610d8e565b3461016b57602036600319011261016b576106e061030f565b6001600160a01b0381161561072157602090610719906107146001600160901b031961070b30611441565b60101b166110bd565b61110b565b604051908152f35b6040516322718ad960e21b81525f6004820152602490fd5b634e487b7160e01b5f52604160045260245ffd5b6001600160401b03811161076057604052565b610739565b602081019081106001600160401b0382111761076057604052565b604081019081106001600160401b0382111761076057604052565b601f909101601f19168101906001600160401b0382119082101761076057604052565b6001600160401b03811161076057601f01601f191660200190565b81601f8201121561016b578035906107f0826107be565b926107fe604051948561079b565b8284526020838301011161016b57815f926020809301838601378301015290565b3461016b57606036600319011261016b5761083861030f565b604435906024356001600160401b03831161016b5761085e61041c9336906004016107d9565b91610867610e91565b6108718282610fc3565b611215565b3461016b575f36600319011261016b576102a061028c6108a16001600160901b031961025430611441565b6108a9610d32565b906115d3565b3461016b57604036600319011261016b5761041c6108cb61030f565b6024356108d6610e91565b604051916108e383610765565b5f83526108718282610fc3565b3461016b57604036600319011261016b5761090961030f565b602435801515810361016b5761091d610dbb565b906001600160a01b03838116919082156109cb5761094e82610975968661094961047561040230611441565b611cdc565b61098361095c61039761197b565b9260405196879160208301919091602081019215159052565b03601f19810187528661079b565b813b1561016b575f80946109ae6040519788968795869463c9a34acd60e01b86521660048501611134565b03925af18015610437576109be57005b8061042b61041c9261074d565b604051630b61174360e31b81528061045987600483016102a4565b3461016b57608036600319011261016b576109ff61030f565b610a07610325565b6064359190604435906001600160401b03841161016b57610a2f61041c9436906004016107d9565b92610555838383610b8d565b3461016b57602036600319011261016b57600435610a5881610d8e565b506001600160901b0319610abb610a83610a758361025430611441565b610a7d610d32565b90611642565b91610a8d30611441565b601090811b91909116901c600160801b600160f01b031667546f6b656e55524960401b613a3160f11b011790565b91610ac4610d48565b92835115610b1f5783610adf918360206102a0970152611549565b805190919015610b0f5750905b805115610b095790610afd91610cef565b60405191829182610215565b50610afd565b610b199150611399565b90610aec565b6110e3565b3461016b575f36600319011261016b5760206102fd611da1565b3461016b57604036600319011261016b576020610b83610b5c61030f565b610b64610325565b9061047a6001600160901b0319610b7a30611441565b60101b166113d6565b6040519015158152f35b6001600160a01b03908282168015610cd757610c0a610baa610dbb565b94610bfa610bbd61058561040230611441565b610bd6896102f86001600160901b03196105a330611441565b9789888216610cc6575b50508688169788610c9f575b5082600161067c828461110b565b866104176105d861040230611441565b610c1561039761197b565b90610c1e610d32565b823b1561016b57610c4b92875f8094604051968795869485936366c93bdb60e01b85528d60048601610e07565b03925af1801561043757610c8c575b501691828203610c6957505050565b60649350604051926364283d7b60e01b8452600484015260248301526044820152fd5b8061042b610c999261074d565b5f610c5a565b610cc090610cac8b6116d5565b5f19610cb8828561110b565b0190836117c8565b5f610bec565b610cd0918a611709565b5f89610be0565b604051633250574960e11b81525f6004820152602490fd5b6020610d30919392936040519481610d1087935180928680870191016101cf565b8201610d24825180938680850191016101cf565b0103808552018361079b565b565b604051610d3e81610765565b5f8152905f368137565b60405190610d5582610780565b6001825260203681840137565b60405190606082016001600160401b038111838210176107605760405260028252604082602036910137565b610da7816102f86001600160901b03196105a330611441565b906001600160a01b03821615610638575090565b36603319013560601c908115610dcd57565b339150565b610226939260a0925f80516020612556833981519152835260208301525f6040830152606082015281608082015201906101f0565b909260a09261022695945f80516020612556833981519152845260208401526040830152606082015281608082015201906101f0565b909260a09261022695947f8c5be1e5ebec7d5bd14f71427d1e84f3dd0314c0f7b2291e5b200ac8c7c3b925845260208401526040830152606082015281608082015201906101f0565b6040513d5f823e3d90fd5b610e9a30611441565b610ea2610dbb565b90610eab610d48565b805115610b1f57600160801b600160f01b038216616e7360f01b176020820152610ed490611a5b565b60601c6001600160a01b03831603610eea575050565b608081901b6001600160801b03191690610f8a90602490601081901b6001600160901b03191680610fb45750610f1e611f1f565b935b80610fa65750610f2e611f1f565b60405194859261ffff60f01b166020840152601d60f91b90816022850152610f608151809260206023880191016101cf565b8301906023820152610f7b82518093602087850191016101cf565b0103600481018452018261079b565b61045960405192839263d787b73760e01b845260048401611a24565b610faf90612114565b610f2e565b610fbd90612114565b93610f20565b6001600160a01b039182821691908215610cd757611031610fe961058561040230611441565b92611021611006846102f86001600160901b03196105a330611441565b9687169485151597886110b0575082600161067c828461110b565b826104176105d861040230611441565b61103c61039761197b565b611044610d32565b93813b1561016b575f809461106f604051978896879586946366c93bdb60e01b865260048601610e07565b03925af180156104375761109d575b5061108557565b6040516339e3563760e11b81525f6004820152602490fd5b8061042b6110aa9261074d565b5f61107e565b610cc090610cac876116d5565b60101c600160801b600160f01b03166742616c616e63657360401b613a3160f11b011790565b634e487b7160e01b5f52603260045260245ffd5b8051821015610b1f5760209160051b010190565b611113610d48565b90815115610b1f576001600160a01b03909216602082015261022691611b1c565b61022693926080927f17307eab39ab6107e8899845ad3d59bd9653f200f220920489ca2b5937696c3183526020830152604082015281606082015201906101f0565b9081602091031261016b575161022681610159565b610226939260809260018060a01b031682525f6020830152604082015281606082015201906101f0565b6001600160a01b039182168152911660208201526040810191909152608060608201819052610226929101906101f0565b3d15611210573d906111f7826107be565b91611205604051938461079b565b82523d5f602084013e565b606090565b91823b61122157505050565b602061124d9161122f610dbb565b936040519384928392630a85bd0160e11b978885526004850161118b565b03815f6001600160a01b0388165af15f91816112cc575b5061129d57826112726111e6565b805191908261129657604051633250574960e11b81528061045984600483016102a4565b9050602001fd5b6001600160e01b031916036112af5750565b604051633250574960e11b815290819061045990600483016102a4565b6112ef91925060203d6020116112f6575b6112e7818361079b565b810190611176565b905f611264565b503d6112dd565b91929092833b61130e575b50505050565b602090611319610dbb565b9361133a6040519485938493630a85bd0160e11b98898652600486016111b5565b03815f6001600160a01b0388165af15f9181611378575b5061135f57826112726111e6565b6001600160e01b031916036112af57505f808080611308565b61139291925060203d6020116112f6576112e7818361079b565b905f611351565b9060405160a0810160405260808101925f8452925b5f190192600a9060308282060185530492836113ae57809350608091030191601f1901918252565b60101c600160801b600160f01b03166f4f70657261746f72417070726f76616c613a3160f11b011790565b611409610d62565b805190926001600160a01b039115610b1f5781166020840152825160011015610b1f5761143b93166040830152611b9c565b60f81c90565b611449610d48565b805115610b1f576001600160a01b03909116602082015261022690611c18565b60101c600160801b600160f01b03166f546f6b656e417070726f76616c000000613a3160f11b011790565b60101c600160801b600160f01b0316654f776e65727360501b613a3160f11b011790565b60208183031261016b578051906001600160401b03821161016b570181601f8201121561016b5780516114ea816107be565b926114f8604051948561079b565b8184526020828401011161016b5761022691602080850191016101cf565b9081518082526020808093019301915f5b828110611535575050505090565b835185529381019392810192600101611527565b906001600160a01b0361155a611da1565b1630810361156c575061022691611dd6565b905f9161159c93604051809581948293631e78897760e01b84526004840152606060248401526064830190611516565b85604483015203915afa908115610437575f916115b7575090565b61022691503d805f833e6115cb818361079b565b8101906114b8565b906001600160a01b036115e4611da1565b163081036115f6575061022691611e5b565b905f9161162693604051809581948293631e78897760e01b84526004840152606060248401526064830190611516565b6001604483015203915afa908115610437575f916115b7575090565b906001600160a01b03611653611da1565b16308103611665575061022691611ebd565b905f9161169593604051809581948293631e78897760e01b84526004840152606060248401526064830190611516565b6002604483015203915afa908115610437575f916115b7575090565b6116b9610d48565b90815115610b1f576116cf926020830152611c88565b60601c90565b610d30906105dd6001600160901b03196102ef30611441565b6001600160a01b039091168152602081019190915260400190565b6001600160a01b03908282168015159081611765575b501561172b5750505050565b1661174957604051637e27328960e01b815260048101839052602490fd5b61045960405192839263177e802f60e01b8452600484016116ee565b8284168114915081156117a6575b8115611781575b505f61171f565b905061179f610397866102f86001600160901b03196102ef30611441565b145f61177a565b90506117c2848361047a6001600160901b0319610b7a30611441565b90611773565b6117d0610d48565b805190926001600160a01b039115610b1f5781166020840152604051936020850152602084526117ff84610780565b611807611da1565b1630810361181b575090610d30929161220a565b803b1561016b575f92836118569361186e604051978896879586946301c85d5760e51b8652600486015260a0602486015260a4850190611516565b908460448501526003198483030160648501526101f0565b630100080160dd1b608483015203925af180156104375761188c5750565b8061042b610d309261074d565b906118a2610d48565b90815115610b1f576020820152604051915f6020840152601483526118c683610780565b6001600160a01b036118d6611da1565b163081036118ea575090610d30929161220a565b803b1561016b575f928361185693611925604051978896879586946301c85d5760e51b8652600486015260a0602486015260a4850190611516565b630500400560da1b608483015203925af180156104375761188c5750565b61194b610d48565b91825115610b1f5760208301526040519260018060601b03199060601b166020840152601483526118c683610780565b61198430611441565b604051613a3160f11b6020808301918252651c1d5c1c195d60d21b60228401526d507570706574526567697374727960901b60308401528252906119c781610780565b5190519060208110611a13575b506001600160a01b03906119e99083906116b1565b169081156119f5575090565b604051639434f7e160e01b81529081906104599030600484016116ee565b5f199060200360031b1b165f6119d4565b90611a3c6020919493946040845260408401906101f0565b6001600160a01b03909416910152565b9081602091031261016b575190565b6001600160a01b03611a6b611da1565b16308103611a7d575061022690611f41565b604051638c364d5960e01b81526f4e616d6573706163654f776e65720000661d189ddbdc9b1960ca1b0160048201526080602482015291602091839182908190611acb906084830190611516565b5f6044830152630500400560da1b606483015203915afa908115610437575f91611af3575090565b610226915060203d602011611b15575b611b0d818361079b565b810190611a4c565b503d611b03565b906001600160a01b03611b2d611da1565b16308103611b435750611b3f91612172565b5490565b90602091611b7493604051809581948293638c364d5960e01b84526004840152608060248401526084830190611516565b5f6044830152630100080160dd1b606483015203915afa908115610437575f91611af3575090565b906001600160a01b03611bad611da1565b16308103611bbf5750611b3f91612172565b90602091611bf093604051809581948293638c364d5960e01b84526004840152608060248401526084830190611516565b5f6044830152630101000160d81b606483015203915afa908115610437575f91611af3575090565b6001600160a01b03611c28611da1565b16308103611c3a575061022690611fc3565b604051638c364d5960e01b81526f53797374656d52656769737472790000661d189ddbdc9b1960ca1b0160048201526080602482015291602091839182908190611b74906084830190611516565b906001600160a01b03611c99611da1565b16308103611cab5750611b3f91612172565b90602091611acb93604051809581948293638c364d5960e01b84526004840152608060248401526084830190611516565b90611ce5610d62565b805190936001600160a01b0392909115610b1f5782166020850152835160011015610b1f578116604084015260405193151560f81b602085015260018452611d2c84610780565b611d34611da1565b16308103611d48575090610d30929161220a565b803b1561016b575f928361185693611d83604051978896879586946301c85d5760e51b8652600486015260a0602486015260a4850190611516565b630101000160d81b608483015203925af180156104375761188c5750565b7f629a4c26e296b22a8e0856e9f6ecb2d1008d7e00081111962cd175fa7488e175546001600160a01b03168061022657503390565b9064ffffffffff61022692611e32611e3e6040515f805160206125368339815191526020820182611e0889888461207a565b0392611e1c601f199485810183528261079b565b519020189560405193849160208301968761207a565b0390810183528261079b565b5190205f80516020612576833981519152185460381c16906120ac565b9064ffffffffff61022692611e32611ea06040517f3a4102da22e32d82fc925482184f16c09fd4281692720b87d124aef6da48a0f16020820182611e0889888461207a565b5190205f80516020612576833981519152185460601c16906120ac565b9064ffffffffff61022692611e32611f026040517f394102da22e32d82fc925482184f16c09fd4281692720b87d124aef6da48a0f16020820182611e0889888461207a565b5190205f80516020612576833981519152185460881c16906120ac565b60405190611f2c82610780565b60068252651e3937b7ba1f60d11b6020830152565b60405160208160208101936f4e616d6573706163654f776e65720000661d189ddbdc9b1960ca1b0185526040820160208251919201935f5b828110611fac57505050611f96925003601f19810183528261079b565b5190205f80516020612516833981519152185490565b855184529481019486945092810192600101611f79565b60405160208160208101936f53797374656d52656769737472790000661d189ddbdc9b1960ca1b0185526040820160208251919201935f5b82811061201857505050611f96925003601f19810183528261079b565b855184529481019486945092810192600101611ffb565b6953746f7265486f6f6b7360301b66746273746f726560c81b01815281516020918201928201915f5b828110612066575050505090565b835185529381019392810192600101612058565b90815281516020918201928201915f5b828110612098575050505090565b83518552938101939281019260010161208a565b60408051601f19603f85830101811690925283815292602080850193925b818310156120fc575050806120e0575b50505090565b5f199060031b1c908183511691199054161790525f80806120da565b816001858394959796548752019401940191906120ca565b5f5b60108110612145575b6040516001600160801b031990921660208301526010825261214082610780565b815290565b6001600160801b03198216600382901b1b6001600160f81b0319161561216d57600101612116565b61211f565b9061219961218b9160405192839160208301958661207a565b03601f19810183528261079b565b5190205f805160206125168339815191521890565b90916121c561022693606084526060840190611516565b915f602082015260408184039101526101f0565b916121f69061022694928452608060208501526080840190611516565b915f604082015260608184039101526101f0565b919291906001600160f01b03198216611bdd60f21b146123a65761222e8183612172565b612237836123cc565b905f5b82518110156122df5761226e61226161225383866110f7565b516001600160581b03191690565b6001600160581b03191690565b9060049182808260581c161461228a575b50600191500161223a565b60601c803b1561016b57855f9188838c966122b96040519889968795869463964f667d60e01b865285016121d9565b03925af1918215610437576001921561227f578061042b6122d99261074d565b5f61227f565b5094919061231083604097865f805160206124f683398151915260405180612308868a836121ae565b0390a2612456565b5f5b815181101561239d5761232b61226161225383856110f7565b6008808260581c1614612342575b50600101612312565b60601c90813b1561016b57875163a8ba872160e01b8152915f9083908183816123708b8b8e600485016121d9565b03925af19182156104375760019261238a575b5090612339565b8061042b6123979261074d565b5f612383565b50505050509050565b925f805160206124f68339815191529192936123c7604051928392836121ae565b0390a2565b6123d4610d48565b90815115610b1f578161243f91602061022694015264ffffffffff604051915f805160206125368339815191526020840184612410848361202f565b0394612424601f199687810183528261079b565b5190201892611e3e6040519182611e3260208201958661202f565b602060018060801b03825116910160801b176124a3565b81519060208093019190925b8082101561248b57508061247557505050565b5f199060031b1c90818354169119905116179055565b6001839482939451815501930191601f190190612462565b8060801c906015809160018060801b031604604051926020906020850160208460051b8701016040528386525f5b8481106124e15750505050505090565b8251825291850191908301906001016124d156fe8c0b5119d4cec7b284c6b1b39252a03d1e2f2d7451a5895562524c113bb952be86425bff6b57326c7859e89024fe4f238ca327a1ae4a230180dd2f0e88aaa7d93b4102da22e32d82fc925482184f16c09fd4281692720b87d124aef6da48a0f1ddf252ad1be2c89b69c2b068fc378daa952ba7f163c4a11628f55a4df523b3ef14e2fcc58e58e68ec7edc30c8d50dccc3ce2714a623ec81f46b6a63922d76569","linkReferences":{}},"methodIdentifiers":{"_msgSender()":"119df25f","_msgValue()":"45ec9354","_world()":"e1af802c","approve(address,uint256)":"095ea7b3","balanceOf(address)":"70a08231","burn(uint256)":"42966c68","getApproved(uint256)":"081812fc","isApprovedForAll(address,address)":"e985e9c5","mint(address,uint256)":"40c10f19","name()":"06fdde03","ownerOf(uint256)":"6352211e","safeMint(address,uint256)":"a1448194","safeMint(address,uint256,bytes)":"8832e6e3","safeTransferFrom(address,address,uint256)":"42842e0e","safeTransferFrom(address,address,uint256,bytes)":"b88d4fde","setApprovalForAll(address,bool)":"a22cb465","supportsInterface(bytes4)":"01ffc9a7","symbol()":"95d89b41","tokenURI(uint256)":"c87b56dd","transferFrom(address,address,uint256)":"23b872dd"},"id":76}