{"abi":[{"type":"function","name":"_msgSender","inputs":[],"outputs":[{"name":"sender","type":"address","internalType":"address"}],"stateMutability":"view"},{"type":"function","name":"_msgValue","inputs":[],"outputs":[{"name":"value","type":"uint256","internalType":"uint256"}],"stateMutability":"view"},{"type":"function","name":"_world","inputs":[],"outputs":[{"name":"","type":"address","internalType":"address"}],"stateMutability":"view"},{"type":"function","name":"calculateStatBonuses","inputs":[{"name":"characterId","type":"bytes32","internalType":"bytes32"}],"outputs":[{"name":"statPoints","type":"int256","internalType":"int256"},{"name":"hpGain","type":"int256","internalType":"int256"}],"stateMutability":"view"},{"type":"function","name":"getBaseStats","inputs":[{"name":"characterId","type":"bytes32","internalType":"bytes32"}],"outputs":[{"name":"","type":"tuple","internalType":"struct StatsData","components":[{"name":"strength","type":"int256","internalType":"int256"},{"name":"agility","type":"int256","internalType":"int256"},{"name":"class","type":"uint8","internalType":"enum Classes"},{"name":"intelligence","type":"int256","internalType":"int256"},{"name":"maxHp","type":"int256","internalType":"int256"},{"name":"currentHp","type":"int256","internalType":"int256"},{"name":"experience","type":"uint256","internalType":"uint256"},{"name":"level","type":"uint256","internalType":"uint256"},{"name":"powerSource","type":"uint8","internalType":"enum PowerSource"},{"name":"race","type":"uint8","internalType":"enum Race"},{"name":"startingArmor","type":"uint8","internalType":"enum ArmorType"},{"name":"advancedClass","type":"uint8","internalType":"enum AdvancedClass"},{"name":"hasSelectedAdvancedClass","type":"bool","internalType":"bool"}]}],"stateMutability":"view"},{"type":"function","name":"getClass","inputs":[{"name":"characterId","type":"bytes32","internalType":"bytes32"}],"outputs":[{"name":"","type":"uint8","internalType":"enum Classes"}],"stateMutability":"view"},{"type":"function","name":"getCurrentAvailableLevel","inputs":[{"name":"experience","type":"uint256","internalType":"uint256"}],"outputs":[{"name":"","type":"uint256","internalType":"uint256"}],"stateMutability":"view"},{"type":"function","name":"getExperience","inputs":[{"name":"characterId","type":"bytes32","internalType":"bytes32"}],"outputs":[{"name":"","type":"uint256","internalType":"uint256"}],"stateMutability":"view"},{"type":"function","name":"getLevel","inputs":[{"name":"characterId","type":"bytes32","internalType":"bytes32"}],"outputs":[{"name":"","type":"uint256","internalType":"uint256"}],"stateMutability":"view"},{"type":"function","name":"getStats","inputs":[{"name":"characterId","type":"bytes32","internalType":"bytes32"}],"outputs":[{"name":"","type":"tuple","internalType":"struct StatsData","components":[{"name":"strength","type":"int256","internalType":"int256"},{"name":"agility","type":"int256","internalType":"int256"},{"name":"class","type":"uint8","internalType":"enum Classes"},{"name":"intelligence","type":"int256","internalType":"int256"},{"name":"maxHp","type":"int256","internalType":"int256"},{"name":"currentHp","type":"int256","internalType":"int256"},{"name":"experience","type":"uint256","internalType":"uint256"},{"name":"level","type":"uint256","internalType":"uint256"},{"name":"powerSource","type":"uint8","internalType":"enum PowerSource"},{"name":"race","type":"uint8","internalType":"enum Race"},{"name":"startingArmor","type":"uint8","internalType":"enum ArmorType"},{"name":"advancedClass","type":"uint8","internalType":"enum AdvancedClass"},{"name":"hasSelectedAdvancedClass","type":"bool","internalType":"bool"}]}],"stateMutability":"view"},{"type":"function","name":"levelCharacter","inputs":[{"name":"characterId","type":"bytes32","internalType":"bytes32"},{"name":"desiredStats","type":"tuple","internalType":"struct StatsData","components":[{"name":"strength","type":"int256","internalType":"int256"},{"name":"agility","type":"int256","internalType":"int256"},{"name":"class","type":"uint8","internalType":"enum Classes"},{"name":"intelligence","type":"int256","internalType":"int256"},{"name":"maxHp","type":"int256","internalType":"int256"},{"name":"currentHp","type":"int256","internalType":"int256"},{"name":"experience","type":"uint256","internalType":"uint256"},{"name":"level","type":"uint256","internalType":"uint256"},{"name":"powerSource","type":"uint8","internalType":"enum PowerSource"},{"name":"race","type":"uint8","internalType":"enum Race"},{"name":"startingArmor","type":"uint8","internalType":"enum ArmorType"},{"name":"advancedClass","type":"uint8","internalType":"enum AdvancedClass"},{"name":"hasSelectedAdvancedClass","type":"bool","internalType":"bool"}]}],"outputs":[],"stateMutability":"nonpayable"},{"type":"function","name":"rollStats","inputs":[{"name":"userRandomNumber","type":"bytes32","internalType":"bytes32"},{"name":"characterId","type":"bytes32","internalType":"bytes32"},{"name":"class","type":"uint8","internalType":"enum Classes"}],"outputs":[],"stateMutability":"payable"},{"type":"function","name":"setStats","inputs":[{"name":"entityId","type":"bytes32","internalType":"bytes32"},{"name":"stats","type":"tuple","internalType":"struct AdjustedCombatStats","components":[{"name":"strength","type":"int256","internalType":"int256"},{"name":"agility","type":"int256","internalType":"int256"},{"name":"intelligence","type":"int256","internalType":"int256"},{"name":"armor","type":"int256","internalType":"int256"},{"name":"maxHp","type":"int256","internalType":"int256"},{"name":"currentHp","type":"int256","internalType":"int256"}]}],"outputs":[],"stateMutability":"nonpayable"},{"type":"function","name":"supportsInterface","inputs":[{"name":"interfaceId","type":"bytes4","internalType":"bytes4"}],"outputs":[{"name":"","type":"bool","internalType":"bool"}],"stateMutability":"pure"},{"type":"function","name":"updateStats","inputs":[{"name":"characterId","type":"bytes32","internalType":"bytes32"},{"name":"newStats","type":"tuple","internalType":"struct StatsData","components":[{"name":"strength","type":"int256","internalType":"int256"},{"name":"agility","type":"int256","internalType":"int256"},{"name":"class","type":"uint8","internalType":"enum Classes"},{"name":"intelligence","type":"int256","internalType":"int256"},{"name":"maxHp","type":"int256","internalType":"int256"},{"name":"currentHp","type":"int256","internalType":"int256"},{"name":"experience","type":"uint256","internalType":"uint256"},{"name":"level","type":"uint256","internalType":"uint256"},{"name":"powerSource","type":"uint8","internalType":"enum PowerSource"},{"name":"race","type":"uint8","internalType":"enum Race"},{"name":"startingArmor","type":"uint8","internalType":"enum ArmorType"},{"name":"advancedClass","type":"uint8","internalType":"enum AdvancedClass"},{"name":"hasSelectedAdvancedClass","type":"bool","internalType":"bool"}]}],"outputs":[],"stateMutability":"nonpayable"},{"type":"function","name":"validateStatRequirements","inputs":[{"name":"characterId","type":"bytes32","internalType":"bytes32"},{"name":"requiredStats","type":"tuple","internalType":"struct StatsData","components":[{"name":"strength","type":"int256","internalType":"int256"},{"name":"agility","type":"int256","internalType":"int256"},{"name":"class","type":"uint8","internalType":"enum Classes"},{"name":"intelligence","type":"int256","internalType":"int256"},{"name":"maxHp","type":"int256","internalType":"int256"},{"name":"currentHp","type":"int256","internalType":"int256"},{"name":"experience","type":"uint256","internalType":"uint256"},{"name":"level","type":"uint256","internalType":"uint256"},{"name":"powerSource","type":"uint8","internalType":"enum PowerSource"},{"name":"race","type":"uint8","internalType":"enum Race"},{"name":"startingArmor","type":"uint8","internalType":"enum ArmorType"},{"name":"advancedClass","type":"uint8","internalType":"enum AdvancedClass"},{"name":"hasSelectedAdvancedClass","type":"bool","internalType":"bool"}]}],"outputs":[{"name":"","type":"bool","internalType":"bool"}],"stateMutability":"view"},{"type":"event","name":"Store_SetRecord","inputs":[{"name":"tableId","type":"bytes32","indexed":true,"internalType":"ResourceId"},{"name":"keyTuple","type":"bytes32[]","indexed":false,"internalType":"bytes32[]"},{"name":"staticData","type":"bytes","indexed":false,"internalType":"bytes"},{"name":"encodedLengths","type":"bytes32","indexed":false,"internalType":"EncodedLengths"},{"name":"dynamicData","type":"bytes","indexed":false,"internalType":"bytes"}],"anonymous":false},{"type":"event","name":"Store_SpliceDynamicData","inputs":[{"name":"tableId","type":"bytes32","indexed":true,"internalType":"ResourceId"},{"name":"keyTuple","type":"bytes32[]","indexed":false,"internalType":"bytes32[]"},{"name":"dynamicFieldIndex","type":"uint8","indexed":false,"internalType":"uint8"},{"name":"start","type":"uint48","indexed":false,"internalType":"uint48"},{"name":"deleteCount","type":"uint40","indexed":false,"internalType":"uint40"},{"name":"encodedLengths","type":"bytes32","indexed":false,"internalType":"EncodedLengths"},{"name":"data","type":"bytes","indexed":false,"internalType":"bytes"}],"anonymous":false},{"type":"event","name":"Store_SpliceStaticData","inputs":[{"name":"tableId","type":"bytes32","indexed":true,"internalType":"ResourceId"},{"name":"keyTuple","type":"bytes32[]","indexed":false,"internalType":"bytes32[]"},{"name":"start","type":"uint48","indexed":false,"internalType":"uint48"},{"name":"data","type":"bytes","indexed":false,"internalType":"bytes"}],"anonymous":false},{"type":"error","name":"CannotLevelInCombat","inputs":[]},{"type":"error","name":"CharacterLocked","inputs":[]},{"type":"error","name":"EncodedLengths_InvalidLength","inputs":[{"name":"length","type":"uint256","internalType":"uint256"}]},{"type":"error","name":"GamePaused","inputs":[]},{"type":"error","name":"InvalidCharacter","inputs":[]},{"type":"error","name":"InvalidCombatEntity","inputs":[]},{"type":"error","name":"InvalidStatChange","inputs":[]},{"type":"error","name":"NotAuthorizedCaller","inputs":[]},{"type":"error","name":"Slice_OutOfBounds","inputs":[{"name":"data","type":"bytes","internalType":"bytes"},{"name":"start","type":"uint256","internalType":"uint256"},{"name":"end","type":"uint256","internalType":"uint256"}]},{"type":"error","name":"Store_IndexOutOfBounds","inputs":[{"name":"length","type":"uint256","internalType":"uint256"},{"name":"accessedIndex","type":"uint256","internalType":"uint256"}]},{"type":"error","name":"Store_InvalidResourceType","inputs":[{"name":"expected","type":"bytes2","internalType":"bytes2"},{"name":"resourceId","type":"bytes32","internalType":"ResourceId"},{"name":"resourceIdString","type":"string","internalType":"string"}]},{"type":"error","name":"Store_InvalidSplice","inputs":[{"name":"startWithinField","type":"uint40","internalType":"uint40"},{"name":"deleteCount","type":"uint40","internalType":"uint40"},{"name":"fieldLength","type":"uint40","internalType":"uint40"}]},{"type":"error","name":"Unauthorized","inputs":[]},{"type":"error","name":"World_AccessDenied","inputs":[{"name":"resource","type":"string","internalType":"string"},{"name":"caller","type":"address","internalType":"address"}]},{"type":"error","name":"World_FunctionSelectorNotFound","inputs":[{"name":"functionSelector","type":"bytes4","internalType":"bytes4"}]},{"type":"error","name":"World_ResourceNotFound","inputs":[{"name":"resourceId","type":"bytes32","internalType":"ResourceId"},{"name":"resourceIdString","type":"string","internalType":"string"}]}],"bytecode":{"object":"0x60808060405234610016576148ef908161001b8239f35b5f80fdfe60806040526004361015610011575f80fd5b5f3560e01c806301ffc9a71461011457806309a4fa6e1461010f5780630bb700dc1461010a578063119df25f146101055780631ecb393f1461010057806323801570146100fb57806345ec9354146100f65780634a863741146100f1578063679ee16d146100ec5780637163c6ba146100e7578063b13fc750146100e2578063debf323d146100dd578063e1af802c146100d8578063ebee03bb146100d3578063ed7353d6146100ce5763f59cb863146100c9575f80fd5b610a52565b6109fd565b6109c3565b6109a9565b61097f565b61088d565b61086e565b610726565b6106ad565b610561565b61050d565b610439565b61040d565b6103cc565b61024a565b3461016a57602036600319011261016a5760043563ffffffff60e01b811680910361016a5760209063b5dee12760e01b8114908115610159575b506040519015158152f35b6301ffc9a760e01b1490505f61014e565b5f80fd5b634e487b7160e01b5f52604160045260245ffd5b60c081019081106001600160401b0382111761019d57604052565b61016e565b6001600160401b03811161019d57604052565b604081019081106001600160401b0382111761019d57604052565b61012081019081106001600160401b0382111761019d57604052565b606081019081106001600160401b0382111761019d57604052565b601f909101601f19168101906001600160401b0382119082101761019d57604052565b604051906101a082016001600160401b0381118382101761019d57604052565b3461016a5760e036600319011261016a5760c036602319011261016a576102ab60405161027681610182565b602435815260443560208201526064356040820152608435606082015260a435608082015260c43560a0820152600435610ac8565b005b634e487b7160e01b5f52602160045260245ffd5b600311156102cb57565b6102ad565b906102da826102c1565b52565b600411156102cb57565b906102da826102dd565b600a11156102cb57565b90600a8210156102cb5752565b906103b991805182526020810151602083015261032d604082015160408401906102d0565b606081015160608301526080810151608083015260a081015160a083015260c081015160c083015260e081015160e083015261037261010080830151908401906102e7565b61038561012080830151908401906102e7565b61039861014080830151908401906102e7565b6103ab61016080830151908401906102fb565b610180908101511515910152565b565b6101a0810192916103b99190610308565b3461016a57602036600319011261016a576103e5610c38565b506101a06103f460043561134d565b6104016040518092610308565bf35b5f91031261016a57565b3461016a575f36600319011261016a576020610427611707565b6040516001600160a01b039091168152f35b3461016a57602036600319011261016a57610452610ca8565b5f5b606481106104f057604051630b728a8960e41b81526020818061047d8660048035908401610d19565b038173__$adf94ce26827ee9b3226667380e63e262b$__5af480156104eb576104b8915f916104bc575b506040519081529081906020820190565b0390f35b6104de915060203d6020116104e4575b6104d68183610207565b810190610d0a565b826104a7565b503d6104cc565b610abd565b806104fc60019261171e565b6105068285610cf6565b5201610454565b3461016a57602036600319011261016a57610526611333565b80511561055c5761053f60209160043583820152611fd8565b60f81c61054b816102c1565b60405190610558816102c1565b8152f35b610cd5565b3461016a575f36600319011261016a576020604051601f193601358152f35b6003111561016a57565b606435906103b982610580565b6004111561016a57565b61012435906103b982610597565b61014435906103b982610597565b61016435906103b982610597565b600a111561016a57565b61018435906103b9826105cb565b8015150361016a57565b6101a435906103b9826105e3565b906101c060031983011261016a576101a060043592602319011261016a5761062161022a565b6024358152604435602082015261063661058a565b6040820152608435606082015260a435608082015260c43560a082015260e43560c08201526101043560e082015261066c6105a1565b61010082015261067a6105af565b6101208201526106886105bd565b6101408201526106966105d5565b6101608201526106a46105ed565b61018082015290565b3461016a5760206106c76106c0366105fb565b919061134d565b908151815113159182610715575b82610701575b826106ed575b50506040519015158152f35b60e091925081015191015111155f806106e1565b9150606082015160608201511315916106db565b8381015182850151131592506106d5565b606036600319011261016a5760443560243561074182610580565b61074a81611747565b6001600160a01b038061075b611707565b1691160361085d5761076c8161179a565b511561084b5761077a6118aa565b610783816118f2565b6108395761078f611333565b80511561055c576107f5826107e16102ab95846108289660206108349701526107b7826102c1565b60405160f89290921b6001600160f81b0319166020830152600182526107dc826101b5565b611dc6565b604051918291602083019190602083019252565b0390610809601f1992838101835282610207565b604051632caa982960e21b602082015293849160043560248401610ddd565b03908101835282610207565b611915565b60405163130fd36b60e11b8152600490fd5b6040516318954fab60e11b8152600490fd5b6040516282b42960e81b8152600490fd5b3461016a57602036600319011261016a576101a06103f4600435610edf565b3461016a5760208060031936011261016a576108b660e06108af60043561134d565b0151610f2d565b6040516322fa929b60e01b81526004810182905273__$adf94ce26827ee9b3226667380e63e262b$__91908381602481865af49182156104eb5784915f9361095e575b50604051633b39a0f760e21b81526004810191909152919282908180602481015b03915af49283156104eb575f9361093f575b5050604080519182526020820192909252f35b610956929350803d106104e4576104d68183610207565b905f8061092c565b61091a935061097990833d85116104e4576104d68183610207565b926108f9565b3461016a57602036600319011261016a57602060e061099f60043561134d565b0151604051908152f35b3461016a575f36600319011261016a5760206104276126b8565b3461016a57602036600319011261016a576109dc611333565b80511561055c576109f56020916004358382015261208b565b604051908152f35b3461016a57610a0b366105fb565b610a1482611747565b6001600160a01b0380610a25611707565b1691160361085d57610a368261179a565b511561084b57610a45826118f2565b610839576102ab91611663565b3461016a57610a60366105fb565b610a6982611747565b6001600160a01b0380610a7a611707565b1691160361085d57610a8b8261179a565b511561084b576102ab91610fe0565b51906103b9826105e3565b9081602091031261016a5751610aba816105e3565b90565b6040513d5f823e3d90fd5b610ad8610ad3611707565b6112cf565b610ae18161134d565b90610afc610af0610af06126b8565b6001600160a01b031690565b604051633e86fb3160e21b815260048101839052602094918590829060249082905afa9081156104eb575f91610c1b575b5015610b69576060816103b995610b6493518652808201519086015260408101518286015260808101516080860152015182611580565b611663565b610b77610af0610af06126b8565b604051635d6740a560e11b815260048101849052908590829060249082905afa9081156104eb575f91610bee575b5015610bdc576060816103b995610b6493518652808201519086015260408101518286015260808101516080860152015182611493565b6040516306bc8d7b60e21b8152600490fd5b610c0e9150853d8711610c14575b610c068183610207565b810190610aa5565b5f610ba5565b503d610bfc565b610c329150853d8711610c1457610c068183610207565b5f610b2d565b604051906101a082016001600160401b0381118382101761019d576040525f610180838281528260208201528260408201528260608201528260808201528260a08201528260c08201528260e0820152826101008201528261012082015282610140820152826101608201520152565b60405190610ca082016001600160401b0381118382101761019d5760405260648252610c80366020840137565b634e487b7160e01b5f52603260045260245ffd5b80511561055c5760200190565b805182101561055c5760209160051b010190565b9081602091031261016a575190565b90604082019082526020606081936040838201528551809452019301915f5b828110610d46575050505090565b835185529381019392810192600101610d38565b5f5b838110610d6b5750505f910152565b8181015183820152602001610d5c565b90606051918281525f5b838110610da45750825f602080949584010152601f8019910116010190565b806020916080015182828501015201610d85565b90602091610dd181518092818552858086019101610d5a565b601f01601f1916010190565b606090610aba93928152600160208201528160408201520190610db8565b51906103b982610580565b51906103b982610597565b51906103b9826105cb565b90816101a091031261016a57610e3061022a565b908051825260208101516020830152610e4b60408201610dfb565b6040830152606081015160608301526080810151608083015260a081015160a083015260c081015160c083015260e081015160e0830152610100610e90818301610e06565b90830152610120610ea2818301610e06565b90830152610140610eb4818301610e06565b90830152610160610ec6818301610e11565b90830152610ed8610180809201610a9a565b9082015290565b610ee7610c38565b50610ef1816119b9565b805190919015610f0f575080602080610aba93518301019101610e1c565b610aba915061134d565b634e487b7160e01b5f52601160045260245ffd5b9060018201809211610f3b57565b610f19565b91908201809211610f3b57565b610f7161034092959493610f6683610360810198610308565b6101a0830190610308565b0152565b9190915f8382019384129112908015821691151617610f3b57565b908160c091031261016a5760a060405191610faa83610182565b8051835260208101516020840152604081015160408401526060810151606084015260808101516080840152015160a082015290565b610fe86118aa565b610ff6610af0610af06126b8565b916040918251916385fcd3bd60e01b835260209283816004978180611022888c83019190602083019252565b03915afa9081156104eb575f916112b2575b506112a257611042826119b9565b61104a610c38565b508051156112935780848061106493518301019101610e1c565b61106d836119d6565b60a082015260e08101938451606481146112895761108a90610f2d565b73__$adf94ce26827ee9b3226667380e63e262b$__8483858b6110bf868d51958694859463f49be66d60e01b86528501610f4d565b0381855af49081156104eb575f9161126c575b501561125c578751633b39a0f760e21b8152808a018381529093929183918591908290819060200103915af49283156104eb576111619561115b946060925f9161123f575b5061112760808801918251610f75565b905280518652838101518487015201516060850152865261114d875193849283016103bb565b03601f198101835282610207565b826119f3565b61116f610af0610af06126b8565b835163a543a0c560e01b815285810183815260c09691959287918791908290819060200103915afa9485156104eb576111e59587956111b8925f92611220575b50519085611aa3565b5f6111c7610af0610af06126b8565b925180968195829463ad54c98b60e01b845283019190602083019252565b03925af180156104eb576111f7575050565b8161121692903d10611219575b61120e8183610207565b810190610f90565b50565b503d611204565b611238919250873d89116112195761120e8183610207565b905f6111af565b6112569150853d87116104e4576104d68183610207565b5f611117565b8751631038b8e960e31b81528990fd5b6112839150843d8611610c1457610c068183610207565b5f6110d2565b5050505050505050565b5061129d8261134d565b611064565b505050516328a7f80960e11b8152fd5b6112c99150843d8611610c1457610c068183610207565b5f611034565b6112d7611333565b80516001600160a01b03909216911561055c57808260206112f9930152612125565b61121657611305611333565b80511561055c5761131a9160208201526121c1565b60f81c6103b957604051637046c88d60e01b8152600490fd5b60405190611340826101b5565b6001825260203681840137565b611355610c38565b5061135e611333565b80511561055c57611373916020820152611bbb565b505061137d610c38565b906020810151906114896040820151916113a361139e606083015160f81c90565b61173b565b9060618101519060818101519060a18101519060c1810151906114678a61145d60e1840151936101206113e36113de61010184015160f81c90565b61295e565b936114576113f96113de61010286015160f81c90565b9361144d61140f6113de61010384015160f81c90565b9161144361143961010561143061142b61010486015160f81c90565b61296a565b93015160f81c90565b1515610180870152565b6101608501611da8565b6101408301611db4565b01611db4565b6101008c01611db4565b60e08a015260c089015260a08801526080870152606086015260408501611dbd565b6020830152815290565b9061149c611333565b9182511561055c576020830152604051906020820152602081526114bf816101b5565b6001600160a01b036114cf6126b8565b16913083036114e2576103b99250612979565b90823b1561016a576040516301c85d5760e51b8152674d6f62537461747360401b631d18955160e21b01600482015260a06024820152925f92849283918591839161154e91906115369060a4850190611b88565b90846044850152600319848303016064850152610db8565b64210201200160d01b608483015203925af180156104eb5761156d5750565b8061157a6103b9926101a2565b80610403565b90611589611333565b9182511561055c576020830152604051906020820152602081526115ac816101b5565b6001600160a01b036115bc6126b8565b16913083036115cf576103b99250612b12565b90823b1561016a576040516301c85d5760e51b81526f43686172616374657245717569706d65631d18955160e21b01600482015260a06024820152925f92849283918591839161164191906116289060a4850190611b88565b6004604485015283810360031901606485015290610db8565b67050028290101010160bd1b608483015203925af180156104eb5761156d5750565b6116ee6103b9926116e181519160208101516040820151611683816102c1565b6060830151608084015160a085015160c08601519160e087015193610100880151956116ae876102dd565b610120890151976116be896102dd565b6116e86101806101408c01519b6116d48d6102dd565b6101608101519d8e6102f1565b0151151590565b9b611e9e565b906116f7611333565b9061170182610ce9565b52611f36565b36603319013560601c90811561171957565b339150565b611726611333565b80511561055c57610aba91602082015261224e565b60ff16610aba816102c1565b61174f611333565b80511561055c576117649160208201526122b4565b60601c90565b6040519061177782610182565b606060a0835f81525f60208201525f60408201525f838201528260808201520152565b6117a261176a565b506117ab611333565b80511561055c576117c0916020820152611c85565b6117c861176a565b926020810151906040810151906074605482015191015160f81c15156060870152604086015260601c6020850152835264ffffffffff808360381c16906118176118128385613d41565b613d96565b9360601c1681019182821180156118a0575b61186b579081602082819401019283910111610f3b578203918211610f3b5761185e9160018060801b03169060801b17613d96565b60a0830152608082015290565b6040516323230fa360e01b81526060600482015292839291611891906064850190610db8565b91602484015260448301520390fd5b5080518311611829565b60405160208101906001600160401b0382118183101761019d576118d7916040525f81525f368137612341565b60f81c6118e057565b60405163379a7ed960e01b8152600490fd5b6118fa611333565b80511561055c5761190f9160208201526123a7565b60f81c90565b80516020820180516001600160e01b0319949392859182811691600481106119a3575b50509050611944611333565b80511561055c578561195b92166020820152611d10565b5050906040602083015192015182156119885781516001600160e01b0316179052919250610aba9161250a565b604051637eef2a7160e11b81525f3587166004820152602490fd5b8391925060040360031b1b161684905f80611938565b6119c1611333565b80511561055c57610aba91602082015261263c565b6119de611333565b80511561055c57610aba916020820152612434565b906119fc611333565b9182511561055c5760208301526001600160a01b03611a196126b8565b1691308303611a2c576103b9925061325a565b90823b1561016a576040516377b7543160e11b81525f805160206148cf833981519152600482015260806024820152925f928492839185918391611a929190611a79906084850190611b88565b6001604485015283810360031901606485015290610db8565b03925af180156104eb5761156d5750565b6103b9926080611ab28361134d565b9380518552602081015160208601526040810151606086015201805160808501525160a084015260e0830152611663565b6001600160401b03811161019d57601f01601f191660200190565b81601f8201121561016a578051611b1481611ae3565b92611b226040519485610207565b8184526020828401011161016a57610aba9160208085019101610d5a565b909160608284031261016a5781516001600160401b03929083811161016a5784611b6b918301611afe565b93602082015193604083015190811161016a57610aba9201611afe565b9081518082526020808093019301915f5b828110611ba7575050505090565b835185529381019392810192600101611b99565b6001600160a01b03611bcb6126b8565b16308103611be45750611bdd906127c6565b9192909190565b60405163419b58fd60e01b815264537461747360581b631d18955160e21b0160048201526060602482015292915f91849182908190611c27906064830190611b88565b6fe60d002020012020202020010101010160781b604483015203915afa9081156104eb575f80935f93611c5b575b50929190565b91935050611c7b91503d805f833e611c738183610207565b810190611b40565b929092915f611c55565b6001600160a01b03611c956126b8565b16308103611ca75750611bdd90612823565b60405163419b58fd60e01b81525f805160206148cf83398151915260048201526060602482015292915f91849182908190611ce6906064830190611b88565b665504022014200160c01b604483015203915afa9081156104eb575f80935f93611c5b5750929190565b6001600160a01b03611d206126b8565b16308103611d325750611bdd906128d4565b60405163419b58fd60e01b81526f46756e6374696f6e53656c6563746f72661d189ddbdc9b1960ca1b0160048201526060602482015292915f91849182908190611d80906064830190611b88565b64090080080160d21b604483015203915afa9081156104eb575f80935f93611c5b5750929190565b600a8210156102cb5752565b6102da826102dd565b6102da826102c1565b906001600160a01b03611dd76126b8565b1691308303611dea576103b99250612cd6565b90823b1561016a576040516301c85d5760e51b815264537461747360581b631d18955160e21b01600482015260a06024820152925f928492839185918391611e549190611e3b9060a4850190611b88565b6002604485015283810360031901606485015290610db8565b6fe60d002020012020202020010101010160781b608483015203925af180156104eb5761156d5750565b611e87816102dd565b60f81b9052565b600a8110156102cb5760f81b9052565b9b9a999897969594939291906040519c60208e015260408d0152611ec1816102c1565b60f81b60608c015260618b015260818a015260a189015260c188015260e1870152611eeb816102dd565b60f81b6101018601526101028501611f0291611e7e565b6101038401611f1091611e7e565b6101048301611f1e91611e8e565b151560f81b61010582015260e68152610aba816101d0565b6001600160a01b03611f466126b8565b16308103611f595750906103b991612e55565b90813b1561016a5760405163298314fb60e01b815264537461747360581b631d18955160e21b01600482015260a06024820152925f9284929091839185918391611a929190611fc390611fb09060a4860190611b88565b6003199283868303016044870152610db8565b90846064850152838203016084840152610d7b565b6001600160a01b03611fe86126b8565b16308103611ffa5750610aba90613071565b604051638c364d5960e01b815264537461747360581b631d18955160e21b016004820152608060248201529160209183918290819061203d906084830190611b88565b600260448301526fe60d002020012020202020010101010160781b606483015203915afa9081156104eb575f91612072575090565b610aba915060203d6020116104e4576104d68183610207565b6001600160a01b0361209b6126b8565b163081036120ad5750610aba9061308b565b604051638c364d5960e01b815264537461747360581b631d18955160e21b01600482015260806024820152916020918391829081906120f0906084830190611b88565b600660448301526fe60d002020012020202020010101010160781b606483015203915afa9081156104eb575f91612072575090565b6001600160a01b036121356126b8565b1630810361214b5750612147906139e1565b5490565b604051638c364d5960e01b81526f53797374656d52656769737472790000661d189ddbdc9b1960ca1b0160048201526080602482015291602091839182908190612199906084830190611b88565b5f6044830152630100080160dd1b606483015203915afa9081156104eb575f91612072575090565b6001600160a01b036121d16126b8565b163081036121e3575061214790613a62565b604051638c364d5960e01b81526420b236b4b760591b631d18955160e21b0160048201526080602482015291602091839182908190612226906084830190611b88565b5f6044830152630101000160d81b606483015203915afa9081156104eb575f91612072575090565b6001600160a01b0361225e6126b8565b16308103612270575061214790613ac3565b604051638c364d5960e01b8152654c6576656c7360501b631d18955160e21b0160048201526080602482015291602091839182908190612199906084830190611b88565b6001600160a01b036122c46126b8565b163081036122d65750610aba906130df565b604051638c364d5960e01b81525f805160206148cf83398151915260048201526080602482015291602091839182908190612315906084830190611b88565b60016044830152665504022014200160c01b606483015203915afa9081156104eb575f91612072575090565b6001600160a01b036123516126b8565b16308103612363575061214790613b25565b604051638c364d5960e01b81526514185d5cd95960521b631d18955160e21b0160048201526080602482015291602091839182908190612226906084830190611b88565b6001600160a01b036123b76126b8565b163081036123c95750610aba90613168565b604051638c364d5960e01b81525f805160206148cf83398151915260048201526080602482015291602091839182908190612408906084830190611b88565b60036044830152665504022014200160c01b606483015203915afa9081156104eb575f91612072575090565b6001600160a01b036124446126b8565b163081036124565750610aba906131b8565b604051638c364d5960e01b815264537461747360581b631d18955160e21b0160048201526080602482015291602091839182908190612499906084830190611b88565b600560448301526fe60d002020012020202020010101010160781b606483015203915afa9081156104eb575f91612072575090565b9060208282031261016a5781516001600160401b03811161016a57610aba9201611afe565b604090610aba939281528160208201520190610db8565b906001600160a01b0361251b6126b8565b1680301461257857905f91612547938360405180968195829463075cf5e160e31b8452600484016124f3565b03925af19081156104eb575f9161255c575090565b610aba91503d805f833e6125708183610207565b8101906124ce565b50612581611707565b9161258a611333565b80511561055c57808260206125a093015261271f565b5050906034602083015160601c92015160f81c82156126115715612602575b60101b6001600160901b0319166125e8576125d992613f6e565b905b156125e35790565b61320c565b906125f6916125fc93613f49565b90151591565b906125db565b61260c8482613e9a565b6125bf565b5061261b81613ddd565b604051637df8867360e11b815291829161263891600484016124f3565b0390fd5b6001600160a01b0361264c6126b8565b1630810361265e5750610aba90613214565b604051631e78897760e01b81525f805160206148cf833981519152600482015260606024820152915f9183918290819061269c906064830190611b88565b6001604483015203915afa9081156104eb575f9161255c575090565b7f629a4c26e296b22a8e0856e9f6ecb2d1008d7e00081111962cd175fa7488e175546001600160a01b031680610aba57503390565b906126f782611ae3565b6127046040519182610207565b8281528092612715601f1991611ae3565b0190602036910137565b5f90606090604051906020908261273a602082019283613543565b039261274e601f1994858101835282610207565b5190205f8051602061486f833981519152189160405192816054850116604052601584526020840192601591925b818310156127ae57505080612792575b50505092565b5f199060031b1c908183511691199054161790525f808061278c565b8160018583949597965487520194019401919061277c565b5f906127d3606091613bfd565b60405190602090601f19908161012585011660405260e68452602084019260e691925b8183101561280b575050806127925750505092565b816001858394959796548752019401940191906127f6565b90612854604051602081019061283d8161114d87856135ca565b5190205f8051602061486f83398151915218613f8e565b9061285e836141a3565b5461287166ffffffffffffff82166126ed565b935f93602086015b60ff861660028110156128ca576128ab8264ffffffffff8761289b8b89613730565b946028026038011c168093613792565b8101809111610f3b579460ff809116908114610f3b5760010194612879565b5050949291935050565b5f9060609060405190602090826128ef602082019283613609565b0392612903601f1994858101835282610207565b5190205f8051602061486f833981519152189160405192816063850116604052602484526020840192602491925b81831015612946575050806127925750505092565b81600185839495979654875201940194019190612931565b60ff16610aba816102dd565b60ff16600a8110156102cb5790565b919061298483613c12565b9161298d6142c9565b905f5b8251811015612a34576129c46129b76129a98386610cf6565b516001600160581b03191690565b6001600160581b03191690565b9060049182808260581c16146129e0575b506001915001612990565b60601c803b1561016a57855f918983612a0e966040519788958694859363964f667d60e01b85528401613879565b03925af19182156104eb57600192156129d5578061157a612a2e926101a2565b5f6129d5565b5060408051919490939291612a7e918491674d6f62537461747360401b631d18955160e21b01905f8051602061484f8339815191529080612a76868d8361381d565b0390a26144d3565b5f5b8151811015612b0a57612a996129b76129a98385610cf6565b6008808260581c1614612ab0575b50600101612a80565b60601c90813b1561016a57845163a8ba872160e01b8152915f908390818381612add8a8e60048401613879565b03925af19182156104eb57600192612af7575b5090612aa7565b8061157a612b04926101a2565b5f612af0565b505050509050565b9190915f805b60048210612cab5765ffffffffffff915016612b3382613c76565b612b3b61435e565b905f5b8251811015612bc857612b576129b76129a98386610cf6565b9060049182808260581c1614612b73575b506001915001612b3e565b60601c803b1561016a57855f9188838c96612ba26040519889968795869463964f667d60e01b865285016138bf565b03925af19182156104eb5760019215612b68578061157a612bc2926101a2565b5f612b68565b50949190612c158383604098875f8051602061484f83398151915260405180612c0d87876f43686172616374657245717569706d65631d18955160e21b019684613848565b0390a261450a565b5f5b8151811015612ca257612c306129b76129a98385610cf6565b6008808260581c1614612c47575b50600101612c17565b60601c90813b1561016a57875163a8ba872160e01b8152915f908390818381612c758b8b8e600485016138bf565b03925af19182156104eb57600192612c8f575b5090612c3e565b8061157a612c9c926101a2565b5f612c88565b50505050509050565b60ff67050028290101010160bd1b83601b0360031b1c168101809111610f3b57600190910190612b18565b91909165ffffffffffff612ce86137dc565b16612cf282613bfd565b612cfa6143f4565b905f5b8251811015612d8757612d166129b76129a98386610cf6565b9060049182808260581c1614612d32575b506001915001612cfd565b60601c803b1561016a57855f9188838c96612d616040519889968795869463964f667d60e01b8652850161390f565b03925af19182156104eb5760019215612d27578061157a612d81926101a2565b5f612d27565b50604080519096939291612dc8918591859164537461747360581b631d18955160e21b01905f8051602061484f8339815191529080612c0d87878e84613848565b5f5b8151811015612ca257612de36129b76129a98385610cf6565b6008808260581c1614612dfa575b50600101612dca565b60601c90813b1561016a57875163a8ba872160e01b8152915f908390818381612e288b8b8e6004850161390f565b03925af19182156104eb57600192612e42575b5090612df1565b8061157a612e4f926101a2565b5f612e3b565b60408051655461626c657360501b66746273746f726560c81b016020820190815264537461747360581b631d18955160e21b018284018190528383529295929491612e9f816101ec565b5190205f8051602061486f833981519152185491612ebb6143f4565b905f5b8251811015612f4957612ed76129b76129a98386610cf6565b6001808260581c1614612eee575b50600101612ebe565b60601c90813b1561016a5788516315c19b2760e21b8152915f908390818381612f1c8c8c8f60048501613982565b03925af19182156104eb57600192612f36575b5090612ee5565b8061157a612f43926101a2565b5f612f2f565b50947f8dbb3a9672eebfd3773e72dd9c102393436816d832c7ba9e1e1ac8fcadcac7a9875180612f7a868983613946565b0390a2612f95612f8985613bfd565b83516020850191614550565b60ff808460e01c1680613032575b50505f5b8151811015612ca257612fc06129b76129a98385610cf6565b6002808260581c1614612fd7575b50600101612fa7565b60601c90813b1561016a578751635b28cdaf60e01b8152915f9083908183816130058b8b8e60048501613982565b03925af19182156104eb5760019261301f575b5090612fce565b8061157a61302c926101a2565b5f613018565b5f61303c876141b8565b555f60805b8284831610613051575050612fa3565b6001816130688693613063868d61376d565b61451b565b92011690613041565b61307d610aba91613b87565b6130856137dc565b90613cdf565b61309490613b87565b5f80915b600683106130aa57610aba9250613d10565b9060ff6fe60d002020012020202020010101010160781b84601b0360031b1c168101809111610f3b5760019092019190613098565b6130e890613be8565b5f905f5b6001811061313f575081816020821015613129575b505080548260031b1b91602003908160141161311c57505090565b600101549060031b1c1790565b90809350601f925060051c019116905f80613101565b9160ff665504022014200160c01b84601b0360031b1c168101809111610f3b57916001016130ec565b61317190613be8565b5f9190825b6003808510156131ab57665504022014200160c01b601b86900390911b1c60ff168101908110610f3b57600190930192613176565b5090610aba929350613cdf565b6131c190613b87565b5f80915b600583106131d757610aba9250613d10565b9060ff6fe60d002020012020202020010101010160781b84601b0360031b1c168101809111610f3b57600190920191906131c5565b602081519101fd5b610aba9064ffffffffff61324f5f805160206148af83398151915260405160208101906132458161114d888561358b565b51902018926141a3565b5460601c1690613ffa565b9190916132668161413d565b5464ffffffffff926060848360601c169161328c61328484806134eb565b885190610f40565b83811415969087806134cc575b6134a0576132a790866146f2565b966132b0614219565b925f5b8451811015613341576132cc6129b76129a98388610cf6565b6010808260581c16146132e3575b506001016132b3565b861c90813b1561016a575f898d938a838e61331460405198899687958694630abd6b4560e31b865260048601614058565b03925af19182156104eb5760019261332e575b50906132da565b8061157a61333b926101a2565b5f613327565b509298939790949691965f985f995b60ff8b1660018110156133775760ff918b8b6001936028026038011c16019b011699613350565b509692975093985093989196506040947ffe158a7adba34e256807c8a149028d3162918713c3838afc643ce9f96716ebfd85896133dc8d8b60405194859465ffffffffffff694368617261637465727360301b631d18955160e21b01991690866140b3565b0390a2613490575b6133f6886133f1886136c5565b614486565b5f5b8151811015613485576134116129b76129a98385610cf6565b6020808260581c1614613428575b506001016133f8565b831c90813b1561016a575f878b9387838c6134588c5198899687958694636358453360e01b865260048601614058565b03925af19182156104eb57600192613472575b509061341f565b8061157a61347f926101a2565b5f61346b565b505050505050509050565b8461349a8761413d565b556133e4565b604051632994042d60e21b81525f600482015264ffffffffff8616602482018190526044820152606490fd5b50846134e46134da82614045565b64ffffffffff1690565b1415613299565b91908203918211610f3b57565b6953746f7265486f6f6b7360301b66746273746f726560c81b01815281516020918201928201915f5b82811061352f575050505090565b835185529381019392810192600101613521565b6653797374656d7360481b661d189ddbdc9b1960ca1b01815281516020918201928201915f5b828110613577575050505090565b835185529381019392810192600101613569565b5f805160206148cf833981519152815281516020918201928201915f5b8281106135b6575050505090565b8351855293810193928101926001016135a8565b5f805160206148cf833981519152815281516020918201928201915f5b8281106135f5575050505090565b8351855293810193928101926001016135e7565b6f46756e6374696f6e53656c6563746f72661d189ddbdc9b1960ca1b01815281516020918201928201915f5b828110613643575050505090565b835185529381019392810192600101613635565b64537461747360581b631d18955160e21b01815281516020918201928201915f5b828110613686575050505090565b835185529381019392810192600101613678565b5f8051602061488f833981519152906040516136be8161114d6020820194856134f8565b5190201890565b604080515f805160206148cf833981519152602080830191825284519383019594919391810191905f5b82811061371c57505050506136be815f805160206148af833981519152949503601f198101835282610207565b8351885296810196928101926001016136ef565b905f8051602061488f833981519152916040516137558161114d60208201948561358b565b51902060f89190911b6001600160f81b031916181890565b905f8051602061488f833981519152916040516137558161114d602082019485613657565b9291925b6020908183106137b65780548552930192601f1990910190600101613796565b919050929192806137c657505050565b5f199060031b1c90818351169119905416179052565b5f805b600281106137eb575090565b9060ff6fe60d002020012020202020010101010160781b83601b0360031b1c168101809111610f3b57906001016137df565b9091613834610aba93606084526060840190611b88565b915f60208201526040818403910152610db8565b65ffffffffffff613865610aba9593606084526060840190611b88565b931660208201526040818403910152610db8565b674d6f62537461747360401b631d18955160e21b018152608060208201819052610aba9391926138ab91840190611b88565b915f60408201526060818403910152610db8565b65ffffffffffff6138fb610aba95936f43686172616374657245717569706d65631d18955160e21b018452608060208501526080840190611b88565b931660408201526060818403910152610db8565b64537461747360581b631d18955160e21b018152608060208201819052610aba949265ffffffffffff916138fb9190840190611b88565b90610aba9261396061396e92608085526080850190611b88565b908382036020850152610db8565b905f60408201526060818303910152610d7b565b64537461747360581b631d18955160e21b01815260c0602082018190529094939260a0926139dc926139c992916139bb91890190611b88565b908782036040890152610db8565b5f60608701528581036080870152610d7b565b930152565b60405160208160208101936f53797374656d52656769737472790000661d189ddbdc9b1960ca1b0185526040820160208251919201935f5b828110613a4b57505050613a36925003601f198101835282610207565b5190205f8051602061486f8339815191521890565b855184529481019486945092810192600101613a19565b60405160208160208101936420b236b4b760591b631d18955160e21b0185526040820160208251919201935f5b828110613aac57505050613a36925003601f198101835282610207565b855184529481019486945092810192600101613a8f565b6040516020816020810193654c6576656c7360501b631d18955160e21b0185526040820160208251919201935f5b828110613b0e57505050613a36925003601f198101835282610207565b855184529481019486945092810192600101613af1565b60405160208160208101936514185d5cd95960521b631d18955160e21b0185526040820160208251919201935f5b828110613b7057505050613a36925003601f198101835282610207565b855184529481019486945092810192600101613b53565b604051602081602081019364537461747360581b631d18955160e21b0185526040820160208251919201935f5b828110613bd157505050613a36925003601f198101835282610207565b855184529481019486945092810192600101613bb4565b604051613a368161114d60208201948561358b565b604051613a368161114d602082019485613657565b6040516020816020810193674d6f62537461747360401b631d18955160e21b0185526040820160208251919201935f5b828110613c5f57505050613a36925003601f198101835282610207565b855184529481019486945092810192600101613c42565b60405160208160208101936f43686172616374657245717569706d65631d18955160e21b0185526040820160208251919201935f5b828110613cc857505050613a36925003601f198101835282610207565b855184529481019486945092810192600101613cab565b6020821015613d02575b80548260031b1b91602003908160011161311c57505090565b601f82169160051c01613ce9565b6020821015613d33575b80548260031b1b91602003908160201161311c57505090565b601f82169160051c01613d1a565b9081518111613d60576001600160801b031660209190910160801b1790565b6040516323230fa360e01b81526060600482015292508291613d86906064840190610db8565b905f602484015260448301520390fd5b906103b96001600160801b038316613dad816126ed565b93602085019060801c614603565b60405190613dc8826101b5565b60068252651e3937b7ba1f60d11b6020830152565b608081901b6001600160801b03191690610aba90602490601081901b6001600160901b03191680613e8b5750613e11613dbb565b935b80613e7d5750613e21613dbb565b60405194859261ffff60f01b166020840152601d60f91b90816022850152613e53815180926020602388019101610d5a565b8301906023820152613e6e8251809360208785019101610d5a565b01036004810184520182610207565b613e869061464c565b613e21565b613e949061464c565b93613e13565b613eb782600160801b600160f01b038316616e7360f01b17614778565b8015613f0a575b15613ec7575050565b90613ed4613ef692613ddd565b9060405192839263d787b73760e01b8452604060048501526044840190610db8565b6001600160a01b0390911660248301520390fd5b50613f158282614778565b613ebe565b3d15613f44573d90613f2b82611ae3565b91613f396040519384610207565b82523d5f602084013e565b606090565b90613f575f939284936146aa565b9082602083519301915af1613f6a613f1a565b9091565b90613f7c5f939284936146aa565b90602082519201905af4613f6a613f1a565b60405190602090601f1990816094850116604052605584526020840192605591925b81831015613fe257505080613fc6575b50505090565b5f199060031b1c908183511691199054161790525f8080613fc0565b81600185839495979654875201940194019190613fb0565b60408051601f19603f85830101811690925283815292602080850193925b8183101561402d57505080613fc65750505090565b81600185839495979654875201940194019190614018565b9064ffffffffff809216918211610f3b57565b5f805160206148cf833981519152815260e060208201819052610aba959394919264ffffffffff9161408d9190850190611b88565b94600160408501525f606085015216608083015260a082015260c0818403910152610db8565b919390610aba959365ffffffffffff6140da64ffffffffff9360c0875260c0870190611b88565b9660016020870152166040850152166060830152608082015260a0818403910152610db8565b6040516141158161114d6020820194856134f8565b5190207f14e2fcc58e58e68ec7edc30c8d50dccc3ce2714a623ec81f46b6a63922d765691890565b6040516020816020810193694368617261637465727360301b631d18955160e21b0185526040820160208251919201935f5b82811061418c57505050614115925003601f198101835282610207565b85518452948101948694509281019260010161416f565b6040516141158161114d60208201948561358b565b604051602081602081019364537461747360581b631d18955160e21b0185526040820160208251919201935f5b82811061420257505050614115925003601f198101835282610207565b8551845294810194869450928101926001016141e5565b614221611333565b80511561055c575f805160206148cf83398151915260208281019190915290614279906142719061426b61425d6142578361369a565b92614100565b5460381c64ffffffffff1690565b90613ffa565b805190613d41565b8060801c916015809260018060801b03160490604051936020850160208460051b8701016040528386525f5b8481106142b55750505050505090565b8251825291850191908301906001016142a5565b6142d1611333565b80511561055c57674d6f62537461747360401b631d18955160e21b016020828101919091529061430e906142719061426b61425d6142578361369a565b8060801c916015809260018060801b03160490604051936020850160208460051b8701016040528386525f5b84811061434a5750505050505090565b82518252918501919083019060010161433a565b614366611333565b80511561055c576143a46142716020926f43686172616374657245717569706d65631d18955160e21b01602082015261426b61425d6142578361369a565b8060801c916015809260018060801b03160490604051936020850160208460051b8701016040528386525f5b8481106143e05750505050505090565b8251825291850191908301906001016143d0565b6143fc611333565b80511561055c5764537461747360581b631d18955160e21b0160208281019190915290614436906142719061426b61425d6142578361369a565b8060801c916015809260018060801b03160490604051936020850160208460051b8701016040528386525f5b8481106144725750505050505090565b825182529185019190830190600101614462565b81519060208093019190925b808210156144bb5750806144a557505050565b5f199060031b1c90818354169119905116179055565b6001839482939451815501930191601f190190614492565b81519060208093019190925b808210156144f25750806144a557505050565b6001839482939451815501930191601f1901906144df565b82516103b993602001929091614573565b9190915f905b6020908183106145415784518155930192601f1990910190600101614521565b9293919050806144a557505050565b9291926020908183106145415784518155930192601f1990910190600101614521565b9093929193806145a2575b509290926020908183106145415784518155930192601f1990910190600101614521565b60208110156145f3575b801561457e5791939082602003908360031b5f198460031b1c19811c908751901c908019835416911617815581831115612b0a57600101940191601f19910101925f61457e565b90601f908260051c0191166145ac565b9291905b602090818310614626578451815293810193601f199092019101614607565b92939190508015614647575f199060031b1c90818351169119905116179052565b505050565b5f5b6010811061467d575b6040516001600160801b0319909216602083015260108252614678826101b5565b815290565b6001600160801b03198216600382901b1b6001600160f81b031916156146a55760010161464e565b614657565b6054610aba9160405193816146c9869351809260208087019101610d5a565b82019060018060601b03199060601b1660208201525f6034820152036034810184520182610207565b64ffffffffff80831161475f5766ffffffffffffff821690606083901c1683818110614755570301915b64ffffffffff60601b60609190911b1664ffffffffff60601b1992909216600169ffffffffff000000000160381b031991909116171790565b900390039161471c565b604051637149a3c160e01b815260048101849052602490fd5b60405190614785826101ec565b600282526020926020830191604036843783511561055c5782528251906001916001101561055c576001600160a01b031660408085019190915280516f5265736f757263654163636573730000661d189ddbdc9b1960ca1b0160208201908152945194959094918501939291905f5b82811061483b575050505050918161481b61190f93610aba9503601f198101835282610207565b5190205f8051602061486f83398151915218546001600160f81b03191690565b84518652948101949381019383016147f456fe8c0b5119d4cec7b284c6b1b39252a03d1e2f2d7451a5895562524c113bb952be86425bff6b57326c7859e89024fe4f238ca327a1ae4a230180dd2f0e88aaa7d93b4102da22e32d82fc925482184f16c09fd4281692720b87d124aef6da48a0f13a4102da22e32d82fc925482184f16c09fd4281692720b87d124aef6da48a0f17462554400000000000000000000000043686172616374657273000000000000","linkReferences":{"src/libraries/StatCalculator.sol":{"StatCalculator":[{"start":1180,"length":20},{"start":2279,"length":20},{"start":4263,"length":20}]}}},"methodIdentifiers":{"_msgSender()":"119df25f","_msgValue()":"45ec9354","_world()":"e1af802c","calculateStatBonuses(bytes32)":"b13fc750","getBaseStats(bytes32)":"7163c6ba","getClass(bytes32)":"23801570","getCurrentAvailableLevel(uint256)":"1ecb393f","getExperience(bytes32)":"ebee03bb","getLevel(bytes32)":"debf323d","getStats(bytes32)":"0bb700dc","levelCharacter(bytes32,(int256,int256,uint8,int256,int256,int256,uint256,uint256,uint8,uint8,uint8,uint8,bool))":"f59cb863","rollStats(bytes32,bytes32,uint8)":"679ee16d","setStats(bytes32,(int256,int256,int256,int256,int256,int256))":"09a4fa6e","supportsInterface(bytes4)":"01ffc9a7","updateStats(bytes32,(int256,int256,uint8,int256,int256,int256,uint256,uint256,uint8,uint8,uint8,uint8,bool))":"ed7353d6","validateStatRequirements(bytes32,(int256,int256,uint8,int256,int256,int256,uint256,uint256,uint8,uint8,uint8,uint8,bool))":"4a863741"},"id":529}