{"abi":[{"type":"function","name":"_msgSender","inputs":[],"outputs":[{"name":"sender","type":"address","internalType":"address"}],"stateMutability":"view"},{"type":"function","name":"_msgValue","inputs":[],"outputs":[{"name":"value","type":"uint256","internalType":"uint256"}],"stateMutability":"view"},{"type":"function","name":"_world","inputs":[],"outputs":[{"name":"","type":"address","internalType":"address"}],"stateMutability":"view"},{"type":"function","name":"calculateStatBonuses","inputs":[{"name":"characterId","type":"bytes32","internalType":"bytes32"}],"outputs":[{"name":"statPoints","type":"int256","internalType":"int256"},{"name":"hpGain","type":"int256","internalType":"int256"}],"stateMutability":"view"},{"type":"function","name":"getBaseStats","inputs":[{"name":"characterId","type":"bytes32","internalType":"bytes32"}],"outputs":[{"name":"","type":"tuple","internalType":"struct StatsData","components":[{"name":"strength","type":"int256","internalType":"int256"},{"name":"agility","type":"int256","internalType":"int256"},{"name":"class","type":"uint8","internalType":"enum Classes"},{"name":"intelligence","type":"int256","internalType":"int256"},{"name":"maxHp","type":"int256","internalType":"int256"},{"name":"currentHp","type":"int256","internalType":"int256"},{"name":"experience","type":"uint256","internalType":"uint256"},{"name":"level","type":"uint256","internalType":"uint256"},{"name":"powerSource","type":"uint8","internalType":"enum PowerSource"},{"name":"race","type":"uint8","internalType":"enum Race"},{"name":"startingArmor","type":"uint8","internalType":"enum ArmorType"},{"name":"advancedClass","type":"uint8","internalType":"enum AdvancedClass"},{"name":"hasSelectedAdvancedClass","type":"bool","internalType":"bool"}]}],"stateMutability":"view"},{"type":"function","name":"getClass","inputs":[{"name":"characterId","type":"bytes32","internalType":"bytes32"}],"outputs":[{"name":"","type":"uint8","internalType":"enum Classes"}],"stateMutability":"view"},{"type":"function","name":"getCurrentAvailableLevel","inputs":[{"name":"experience","type":"uint256","internalType":"uint256"}],"outputs":[{"name":"","type":"uint256","internalType":"uint256"}],"stateMutability":"view"},{"type":"function","name":"getExperience","inputs":[{"name":"characterId","type":"bytes32","internalType":"bytes32"}],"outputs":[{"name":"","type":"uint256","internalType":"uint256"}],"stateMutability":"view"},{"type":"function","name":"getLevel","inputs":[{"name":"characterId","type":"bytes32","internalType":"bytes32"}],"outputs":[{"name":"","type":"uint256","internalType":"uint256"}],"stateMutability":"view"},{"type":"function","name":"getStats","inputs":[{"name":"characterId","type":"bytes32","internalType":"bytes32"}],"outputs":[{"name":"","type":"tuple","internalType":"struct StatsData","components":[{"name":"strength","type":"int256","internalType":"int256"},{"name":"agility","type":"int256","internalType":"int256"},{"name":"class","type":"uint8","internalType":"enum Classes"},{"name":"intelligence","type":"int256","internalType":"int256"},{"name":"maxHp","type":"int256","internalType":"int256"},{"name":"currentHp","type":"int256","internalType":"int256"},{"name":"experience","type":"uint256","internalType":"uint256"},{"name":"level","type":"uint256","internalType":"uint256"},{"name":"powerSource","type":"uint8","internalType":"enum PowerSource"},{"name":"race","type":"uint8","internalType":"enum Race"},{"name":"startingArmor","type":"uint8","internalType":"enum ArmorType"},{"name":"advancedClass","type":"uint8","internalType":"enum AdvancedClass"},{"name":"hasSelectedAdvancedClass","type":"bool","internalType":"bool"}]}],"stateMutability":"view"},{"type":"function","name":"levelCharacter","inputs":[{"name":"characterId","type":"bytes32","internalType":"bytes32"},{"name":"desiredStats","type":"tuple","internalType":"struct StatsData","components":[{"name":"strength","type":"int256","internalType":"int256"},{"name":"agility","type":"int256","internalType":"int256"},{"name":"class","type":"uint8","internalType":"enum Classes"},{"name":"intelligence","type":"int256","internalType":"int256"},{"name":"maxHp","type":"int256","internalType":"int256"},{"name":"currentHp","type":"int256","internalType":"int256"},{"name":"experience","type":"uint256","internalType":"uint256"},{"name":"level","type":"uint256","internalType":"uint256"},{"name":"powerSource","type":"uint8","internalType":"enum PowerSource"},{"name":"race","type":"uint8","internalType":"enum Race"},{"name":"startingArmor","type":"uint8","internalType":"enum ArmorType"},{"name":"advancedClass","type":"uint8","internalType":"enum AdvancedClass"},{"name":"hasSelectedAdvancedClass","type":"bool","internalType":"bool"}]}],"outputs":[],"stateMutability":"nonpayable"},{"type":"function","name":"rollStats","inputs":[{"name":"userRandomNumber","type":"bytes32","internalType":"bytes32"},{"name":"characterId","type":"bytes32","internalType":"bytes32"},{"name":"class","type":"uint8","internalType":"enum Classes"}],"outputs":[],"stateMutability":"payable"},{"type":"function","name":"setStats","inputs":[{"name":"entityId","type":"bytes32","internalType":"bytes32"},{"name":"stats","type":"tuple","internalType":"struct AdjustedCombatStats","components":[{"name":"strength","type":"int256","internalType":"int256"},{"name":"agility","type":"int256","internalType":"int256"},{"name":"intelligence","type":"int256","internalType":"int256"},{"name":"armor","type":"int256","internalType":"int256"},{"name":"maxHp","type":"int256","internalType":"int256"},{"name":"currentHp","type":"int256","internalType":"int256"}]}],"outputs":[],"stateMutability":"nonpayable"},{"type":"function","name":"supportsInterface","inputs":[{"name":"interfaceId","type":"bytes4","internalType":"bytes4"}],"outputs":[{"name":"","type":"bool","internalType":"bool"}],"stateMutability":"pure"},{"type":"function","name":"updateStats","inputs":[{"name":"characterId","type":"bytes32","internalType":"bytes32"},{"name":"newStats","type":"tuple","internalType":"struct StatsData","components":[{"name":"strength","type":"int256","internalType":"int256"},{"name":"agility","type":"int256","internalType":"int256"},{"name":"class","type":"uint8","internalType":"enum Classes"},{"name":"intelligence","type":"int256","internalType":"int256"},{"name":"maxHp","type":"int256","internalType":"int256"},{"name":"currentHp","type":"int256","internalType":"int256"},{"name":"experience","type":"uint256","internalType":"uint256"},{"name":"level","type":"uint256","internalType":"uint256"},{"name":"powerSource","type":"uint8","internalType":"enum PowerSource"},{"name":"race","type":"uint8","internalType":"enum Race"},{"name":"startingArmor","type":"uint8","internalType":"enum ArmorType"},{"name":"advancedClass","type":"uint8","internalType":"enum AdvancedClass"},{"name":"hasSelectedAdvancedClass","type":"bool","internalType":"bool"}]}],"outputs":[],"stateMutability":"nonpayable"},{"type":"function","name":"validateStatRequirements","inputs":[{"name":"characterId","type":"bytes32","internalType":"bytes32"},{"name":"requiredStats","type":"tuple","internalType":"struct StatsData","components":[{"name":"strength","type":"int256","internalType":"int256"},{"name":"agility","type":"int256","internalType":"int256"},{"name":"class","type":"uint8","internalType":"enum Classes"},{"name":"intelligence","type":"int256","internalType":"int256"},{"name":"maxHp","type":"int256","internalType":"int256"},{"name":"currentHp","type":"int256","internalType":"int256"},{"name":"experience","type":"uint256","internalType":"uint256"},{"name":"level","type":"uint256","internalType":"uint256"},{"name":"powerSource","type":"uint8","internalType":"enum PowerSource"},{"name":"race","type":"uint8","internalType":"enum Race"},{"name":"startingArmor","type":"uint8","internalType":"enum ArmorType"},{"name":"advancedClass","type":"uint8","internalType":"enum AdvancedClass"},{"name":"hasSelectedAdvancedClass","type":"bool","internalType":"bool"}]}],"outputs":[{"name":"","type":"bool","internalType":"bool"}],"stateMutability":"view"},{"type":"event","name":"Store_SetRecord","inputs":[{"name":"tableId","type":"bytes32","indexed":true,"internalType":"ResourceId"},{"name":"keyTuple","type":"bytes32[]","indexed":false,"internalType":"bytes32[]"},{"name":"staticData","type":"bytes","indexed":false,"internalType":"bytes"},{"name":"encodedLengths","type":"bytes32","indexed":false,"internalType":"EncodedLengths"},{"name":"dynamicData","type":"bytes","indexed":false,"internalType":"bytes"}],"anonymous":false},{"type":"event","name":"Store_SpliceDynamicData","inputs":[{"name":"tableId","type":"bytes32","indexed":true,"internalType":"ResourceId"},{"name":"keyTuple","type":"bytes32[]","indexed":false,"internalType":"bytes32[]"},{"name":"dynamicFieldIndex","type":"uint8","indexed":false,"internalType":"uint8"},{"name":"start","type":"uint48","indexed":false,"internalType":"uint48"},{"name":"deleteCount","type":"uint40","indexed":false,"internalType":"uint40"},{"name":"encodedLengths","type":"bytes32","indexed":false,"internalType":"EncodedLengths"},{"name":"data","type":"bytes","indexed":false,"internalType":"bytes"}],"anonymous":false},{"type":"event","name":"Store_SpliceStaticData","inputs":[{"name":"tableId","type":"bytes32","indexed":true,"internalType":"ResourceId"},{"name":"keyTuple","type":"bytes32[]","indexed":false,"internalType":"bytes32[]"},{"name":"start","type":"uint48","indexed":false,"internalType":"uint48"},{"name":"data","type":"bytes","indexed":false,"internalType":"bytes"}],"anonymous":false},{"type":"error","name":"EncodedLengths_InvalidLength","inputs":[{"name":"length","type":"uint256","internalType":"uint256"}]},{"type":"error","name":"GamePaused","inputs":[]},{"type":"error","name":"Slice_OutOfBounds","inputs":[{"name":"data","type":"bytes","internalType":"bytes"},{"name":"start","type":"uint256","internalType":"uint256"},{"name":"end","type":"uint256","internalType":"uint256"}]},{"type":"error","name":"Store_IndexOutOfBounds","inputs":[{"name":"length","type":"uint256","internalType":"uint256"},{"name":"accessedIndex","type":"uint256","internalType":"uint256"}]},{"type":"error","name":"Store_InvalidResourceType","inputs":[{"name":"expected","type":"bytes2","internalType":"bytes2"},{"name":"resourceId","type":"bytes32","internalType":"ResourceId"},{"name":"resourceIdString","type":"string","internalType":"string"}]},{"type":"error","name":"Store_InvalidSplice","inputs":[{"name":"startWithinField","type":"uint40","internalType":"uint40"},{"name":"deleteCount","type":"uint40","internalType":"uint40"},{"name":"fieldLength","type":"uint40","internalType":"uint40"}]},{"type":"error","name":"World_AccessDenied","inputs":[{"name":"resource","type":"string","internalType":"string"},{"name":"caller","type":"address","internalType":"address"}]},{"type":"error","name":"World_FunctionSelectorNotFound","inputs":[{"name":"functionSelector","type":"bytes4","internalType":"bytes4"}]},{"type":"error","name":"World_ResourceNotFound","inputs":[{"name":"resourceId","type":"bytes32","internalType":"ResourceId"},{"name":"resourceIdString","type":"string","internalType":"string"}]}],"bytecode":{"object":"0x6080806040523461001657614a39908161001b8239f35b5f80fdfe60806040526004361015610011575f80fd5b5f3560e01c806301ffc9a71461011457806309a4fa6e1461010f5780630bb700dc1461010a578063119df25f146101055780631ecb393f1461010057806323801570146100fb57806345ec9354146100f65780634a863741146100f1578063679ee16d146100ec5780637163c6ba146100e7578063b13fc750146100e2578063debf323d146100dd578063e1af802c146100d8578063ebee03bb146100d3578063ed7353d6146100ce5763f59cb863146100c9575f80fd5b610b0a565b610a28565b6109ee565b6109d4565b6109aa565b61089b565b61087c565b610726565b6106ad565b610561565b61050d565b610439565b61040d565b6103cc565b61024a565b3461016a57602036600319011261016a5760043563ffffffff60e01b811680910361016a5760209063b5dee12760e01b8114908115610159575b506040519015158152f35b6301ffc9a760e01b1490505f61014e565b5f80fd5b634e487b7160e01b5f52604160045260245ffd5b60c081019081106001600160401b0382111761019d57604052565b61016e565b6001600160401b03811161019d57604052565b606081019081106001600160401b0382111761019d57604052565b604081019081106001600160401b0382111761019d57604052565b61012081019081106001600160401b0382111761019d57604052565b601f909101601f19168101906001600160401b0382119082101761019d57604052565b604051906101a082016001600160401b0381118382101761019d57604052565b3461016a5760e036600319011261016a5760c036602319011261016a576102ab60405161027681610182565b602435815260443560208201526064356040820152608435606082015260a435608082015260c43560a0820152600435610b67565b005b634e487b7160e01b5f52602160045260245ffd5b600311156102cb57565b6102ad565b906102da826102c1565b52565b600411156102cb57565b906102da826102dd565b600a11156102cb57565b90600a8210156102cb5752565b906103b991805182526020810151602083015261032d604082015160408401906102d0565b606081015160608301526080810151608083015260a081015160a083015260c081015160c083015260e081015160e083015261037261010080830151908401906102e7565b61038561012080830151908401906102e7565b61039861014080830151908401906102e7565b6103ab61016080830151908401906102fb565b610180908101511515910152565b565b6101a0810192916103b99190610308565b3461016a57602036600319011261016a576103e5610d0a565b506101a06103f460043561160e565b6104016040518092610308565bf35b5f91031261016a57565b3461016a575f36600319011261016a5760206104276119c8565b6040516001600160a01b039091168152f35b3461016a57602036600319011261016a57610452610d7a565b5f5b606481106104f057604051630b728a8960e41b81526020818061047d8660048035908401610deb565b038173__$adf94ce26827ee9b3226667380e63e262b$__5af480156104eb576104b8915f916104bc575b506040519081529081906020820190565b0390f35b6104de915060203d6020116104e4575b6104d68183610207565b810190610ddc565b826104a7565b503d6104cc565b610b5c565b806104fc6001926119df565b6105068285610dc8565b5201610454565b3461016a57602036600319011261016a576105266115f4565b80511561055c5761053f60209160043583820152612367565b60f81c61054b816102c1565b60405190610558816102c1565b8152f35b610da7565b3461016a575f36600319011261016a576020604051601f193601358152f35b6003111561016a57565b606435906103b982610580565b6004111561016a57565b61012435906103b982610597565b61014435906103b982610597565b61016435906103b982610597565b600a111561016a57565b61018435906103b9826105cb565b8015150361016a57565b6101a435906103b9826105e3565b906101c060031983011261016a576101a060043592602319011261016a5761062161022a565b6024358152604435602082015261063661058a565b6040820152608435606082015260a435608082015260c43560a082015260e43560c08201526101043560e082015261066c6105a1565b61010082015261067a6105af565b6101208201526106886105bd565b6101408201526106966105d5565b6101608201526106a46105ed565b61018082015290565b3461016a5760206106c76106c0366105fb565b919061160e565b908151815113159182610715575b82610701575b826106ed575b50506040519015158152f35b60e091925081015191015111155f806106e1565b9150606082015160608201511315916106db565b8381015182850151131592506106d5565b606036600319011261016a5760243560443561074181610580565b61076761074d83611a08565b6001600160a01b038061075e6119c8565b16911614610e2c565b61077b61077383611a5b565b511515610e78565b610783611b6b565b61078c82611bb3565b610822578161079e826102ab94611bd6565b6108016107f06107fc604051806107bd86602083019190602083019252565b03906107d1601f1992838101835282610207565b604051632caa982960e21b602082015293849160043560248401610f47565b03908101835282610207565b611cd1565b5061080b826102c1565b610813610f80565b9061081c610fc8565b91611d75565b60405162461bcd60e51b815260206004820152602c60248201527f535441542053595354454d3a2063686172616374657220616c7265616479206960448201526b1b8819d85b59481ddbdc9b1960a21b6064820152608490fd5b3461016a57602036600319011261016a576101a06103f46004356110cd565b3461016a5760208060031936011261016a576004356108c560e06108be8361160e565b015161111b565b6040516322fa929b60e01b81526004810182905273__$adf94ce26827ee9b3226667380e63e262b$__92908481602481875af49283156104eb5785915f94610987575b50604051633b39a0f760e21b81526004810191909152929391929182908180602481015b03915af49384156104eb575f94610962575b50506109519061094c61113b565b611df5565b604080519182526020820192909252f35b610951929450908161097f92903d106104e4576104d68183610207565b92905f61093e565b61092c9394506109a390833d85116104e4576104d68183610207565b9392610908565b3461016a57602036600319011261016a57602060e06109ca60043561160e565b0151604051908152f35b3461016a575f36600319011261016a576020610427612988565b3461016a57602036600319011261016a57610a076115f4565b80511561055c57610a206020916004358382015261241a565b604051908152f35b3461016a57610a36366105fb565b90610a4361074d82611a08565b610a4f61077382611a5b565b610a5881611bb3565b610ab457610a696102ab9282611924565b604051610a75816101b5565b602781527f5374617453797374656d3a205570646174656420737461747320666f7220636860208201526630b930b1ba32b960c91b6040820152611df5565b60405162461bcd60e51b815260206004820152602860248201527f535441542053595354454d3a2063616e6e6f742075706461746520737461747360448201526720696e2067616d6560c01b6064820152608490fd5b3461016a576102ab610b1b366105fb565b90610b2861074d82611a08565b610b3461077382611a5b565b61131c565b51906103b9826105e3565b9081602091031261016a5751610b59816105e3565b90565b6040513d5f823e3d90fd5b610b708161160e565b90610b8b610b7f610b7f612988565b6001600160a01b031690565b604051633e86fb3160e21b815260048101839052602094918590829060249082905afa9081156104eb575f91610ced575b5015610bf8576060816103b995610bf393518652808201519086015260408101518286015260808101516080860152015182611841565b611924565b610c06610b7f610b7f612988565b604051635d6740a560e11b815260048101849052908590829060249082905afa9081156104eb575f91610cc0575b5015610c6b576060816103b995610bf393518652808201519086015260408101518286015260808101516080860152015182611754565b60405162461bcd60e51b815260206004820152602360248201527f535441542053595354454d3a20756e7265636f676e697a656420656e74697479604482015262081a5960ea1b6064820152608490fd5b0390fd5b610ce09150853d8711610ce6575b610cd88183610207565b810190610b44565b5f610c34565b503d610cce565b610d049150853d8711610ce657610cd88183610207565b5f610bbc565b604051906101a082016001600160401b0381118382101761019d576040525f610180838281528260208201528260408201528260608201528260808201528260a08201528260c08201528260e0820152826101008201528261012082015282610140820152826101608201520152565b60405190610ca082016001600160401b0381118382101761019d5760405260648252610c80366020840137565b634e487b7160e01b5f52603260045260245ffd5b80511561055c5760200190565b805182101561055c5760209160051b010190565b9081602091031261016a575190565b90604082019082526020606081936040838201528551809452019301915f5b828110610e18575050505090565b835185529381019392810192600101610e0a565b15610e3357565b60405162461bcd60e51b815260206004820152601d60248201527f535441542053595354454d3a20494e56414c4944204f50455241544f520000006044820152606490fd5b15610e7f57565b60405162461bcd60e51b815260206004820152601e60248201527f535441542053595354454d3a20494e56414c49442043484152414354455200006044820152606490fd5b5f5b838110610ed55750505f910152565b8181015183820152602001610ec6565b90606051918281525f5b838110610f0e5750825f602080949584010152601f8019910116010190565b806020916080015182828501015201610eef565b90602091610f3b81518092818552858086019101610ec4565b601f01601f1916010190565b606090610b5993928152600160208201528160408201520190610f22565b6001600160401b03811161019d57601f01601f191660200190565b60405190610f8d826101b5565b60268252653930b1ba32b960d11b6040837f5374617453797374656d3a20526f6c6c656420737461747320666f722063686160208201520152565b60405190610fd5826101d0565b6005825264636c61737360d81b6020830152565b51906103b982610580565b51906103b982610597565b51906103b9826105cb565b90816101a091031261016a5761101e61022a565b90805182526020810151602083015261103960408201610fe9565b6040830152606081015160608301526080810151608083015260a081015160a083015260c081015160c083015260e081015160e083015261010061107e818301610ff4565b90830152610120611090818301610ff4565b908301526101406110a2818301610ff4565b908301526101606110b4818301610fff565b908301526110c6610180809201610b39565b9082015290565b6110d5610d0a565b506110df81611dd8565b8051909190156110fd575080602080610b599351830101910161100a565b610b59915061160e565b634e487b7160e01b5f52601160045260245ffd5b906001820180921161112957565b611107565b9190820180921161112957565b60405190611148826101b5565b602c82526b37b91031b430b930b1ba32b960a11b6040837f5374617453797374656d3a2043616c63756c6174656420626f6e75736573206660208201520152565b1561119057565b60405162461bcd60e51b815260206004820152602360248201527f535441542053595354454d3a2063616e6e6f74206c6576656c20696e20636f6d60448201526218985d60ea1b6064820152608490fd5b611205610340929594936111fa83610360810198610308565b6101a0830190610308565b0152565b1561121057565b606460405162461bcd60e51b815260206004820152602060248201527f535441542053595354454d3a20494e56414c49442053544154204348414e47456044820152fd5b9190915f838201938412911290801582169115161761112957565b908160c091031261016a5760a06040519161128983610182565b8051835260208101516020840152604081015160408401526060810151606084015260808101516080840152015160a082015290565b604051906112cc826101d0565b601d82527f5374617453797374656d3a204c6576656c6564206368617261637465720000006020830152565b60405190611305826101d0565b60088252671d1bc81b195d995b60c21b6020830152565b611324611b6b565b611332610b7f610b7f612988565b604092835180926385fcd3bd60e01b82526020938491818061135c89600483019190602083019252565b03915afa80156104eb57611378915f916115d7575b5015611189565b61138183611dd8565b611389610d0a565b508051156115c8578083806113a39351830101910161100a565b6113ac84611e38565b60a082015260e08101928351606481146115bf576113c99061111b565b865163f49be66d60e01b815273__$adf94ce26827ee9b3226667380e63e262b$__9291908281806113ff858a8a600485016111e1565b0381875af480156104eb5761141b915f916115a2575b50611209565b8751633b39a0f760e21b815260048101829052928290849060249082905af49283156104eb5761149d95611497946060925f91611585575b5061146360808801918251611254565b9052805186528381015184870152015160608501528552611489875193849283016103bb565b03601f198101835282610207565b83611e55565b6114ab610b7f610b7f612988565b835163a543a0c560e01b81526004810184905260c0918290829060249082905afa80156104eb576114e7915f91611568575b5083519085611f05565b806114f6610b7f610b7f612988565b945163ad54c98b60e01b81526004810185905294859060249082905f905af19384156104eb576103b99461153a575b505051906115316112bf565b9061081c6112f8565b8161155992903d10611561575b6115518183610207565b81019061126f565b505f80611525565b503d611547565b61157f9150833d8511611561576115518183610207565b5f6114dd565b61159c9150853d87116104e4576104d68183610207565b5f611453565b6115b99150843d8611610ce657610cd88183610207565b5f611415565b50505050505050565b506115d28361160e565b6113a3565b6115ee9150843d8611610ce657610cd88183610207565b5f611371565b60405190611601826101d0565b6001825260203681840137565b611616610d0a565b5061161f6115f4565b80511561055c57611634916020820152612002565b505061163e610d0a565b9060208101519061174a60408201519161166461165f606083015160f81c90565b6119fc565b9060618101519060818101519060a18101519060c1810151906117288a61171e60e1840151936101206116a461169f61010184015160f81c90565b612c2e565b936117186116ba61169f61010286015160f81c90565b9361170e6116d061169f61010384015160f81c90565b916117046116fa6101056116f16116ec61010486015160f81c90565b612c3a565b93015160f81c90565b1515610180870152565b61016085016121ef565b61014083016121fb565b016121fb565b6101008c016121fb565b60e08a015260c089015260a08801526080870152606086015260408501612204565b6020830152815290565b9061175d6115f4565b9182511561055c57602083015260405190602082015260208152611780816101d0565b6001600160a01b03611790612988565b16913083036117a3576103b99250612c49565b90823b1561016a576040516301c85d5760e51b8152674d6f62537461747360401b631d18955160e21b01600482015260a06024820152925f92849283918591839161180f91906117f79060a4850190611fcf565b90846044850152600319848303016064850152610f22565b64210201200160d01b608483015203925af180156104eb5761182e5750565b8061183b6103b9926101a2565b80610403565b9061184a6115f4565b9182511561055c5760208301526040519060208201526020815261186d816101d0565b6001600160a01b0361187d612988565b1691308303611890576103b99250612de2565b90823b1561016a576040516301c85d5760e51b81526f43686172616374657245717569706d65631d18955160e21b01600482015260a06024820152925f92849283918591839161190291906118e99060a4850190611fcf565b6004604485015283810360031901606485015290610f22565b67050028290101010160bd1b608483015203925af180156104eb5761182e5750565b6119af6103b9926119a281519160208101516040820151611944816102c1565b6060830151608084015160a085015160c08601519160e0870151936101008801519561196f876102dd565b6101208901519761197f896102dd565b6119a96101806101408c01519b6119958d6102dd565b6101608101519d8e6102f1565b0151151590565b9b61222d565b906119b86115f4565b906119c282610dbb565b526122c5565b36603319013560601c9081156119da57565b339150565b6119e76115f4565b80511561055c57610b599160208201526124b4565b60ff16610b59816102c1565b611a106115f4565b80511561055c57611a25916020820152612546565b60601c90565b60405190611a3882610182565b606060a0835f81525f60208201525f60408201525f838201528260808201520152565b611a63611a2b565b50611a6c6115f4565b80511561055c57611a819160208201526120cc565b611a89611a2b565b926020810151906040810151906074605482015191015160f81c15156060870152604086015260601c6020850152835264ffffffffff808360381c1690611ad8611ad38385613f87565b613fdc565b9360601c168101918282118015611b61575b611b2c57908160208281940101928391011161112957820391821161112957611b1f9160018060801b03169060801b17613fdc565b60a0830152608082015290565b6040516323230fa360e01b81526060600482015292839291611b52906064850190610f22565b91602484015260448301520390fd5b5080518311611aea565b60405160208101906001600160401b0382118183101761019d57611b98916040525f81525f3681376125d3565b60f81c611ba157565b60405163379a7ed960e01b8152600490fd5b611bbb6115f4565b80511561055c57611bd0916020820152612661565b60f81c90565b90611bdf6115f4565b9182511561055c576020830152611bf5816102c1565b60405160f89190911b6001600160f81b031916602082015260018152611c1a816101d0565b6001600160a01b03611c2a612988565b1691308303611c3d576103b99250612fa6565b90823b1561016a576040516301c85d5760e51b815264537461747360581b631d18955160e21b01600482015260a06024820152925f928492839185918391611ca79190611c8e9060a4850190611fcf565b6002604485015283810360031901606485015290610f22565b6fe60d002020012020202020010101010160781b608483015203925af180156104eb5761182e5750565b80516020820180516001600160e01b031994939285918281169160048110611d5f575b50509050611d006115f4565b80511561055c5785611d1792166020820152612157565b505090604060208301519201518215611d445781516001600160e01b0316179052919250610b59916127c4565b604051637eef2a7160e11b81525f3587166004820152602490fd5b8391925060040360031b1b161684905f80611cf4565b6103b993611dbf611dd393611da89560405196879563a0c4b22560e01b60208801526080602488015260a4870190610f22565b916044860152602319858303016064860152610f22565b90608483015203601f198101835282610207565b6128f2565b611de06115f4565b80511561055c57610b5991602082015261290c565b611dd3611e24916103b9936040519384926309710a9d60e41b6020850152604060248501526064840190610f22565b90604483015203601f198101835282610207565b611e406115f4565b80511561055c57610b599160208201526126ee565b90611e5e6115f4565b9182511561055c5760208301526001600160a01b03611e7b612988565b1691308303611e8e576103b9925061352a565b90823b1561016a576040516377b7543160e11b81525f80516020614a19833981519152600482015260806024820152925f928492839185918391611ef49190611edb906084850190611fcf565b6001604485015283810360031901606485015290610f22565b03925af180156104eb5761182e5750565b6103b9926080611f148361160e565b9380518552602081015160208601526040810151606086015201805160808501525160a084015260e0830152611924565b81601f8201121561016a578051611f5b81610f65565b92611f696040519485610207565b8184526020828401011161016a57610b599160208085019101610ec4565b909160608284031261016a5781516001600160401b03929083811161016a5784611fb2918301611f45565b93602082015193604083015190811161016a57610b599201611f45565b9081518082526020808093019301915f5b828110611fee575050505090565b835185529381019392810192600101611fe0565b6001600160a01b03612012612988565b1630810361202b575061202490612a96565b9192909190565b60405163419b58fd60e01b815264537461747360581b631d18955160e21b0160048201526060602482015292915f9184918290819061206e906064830190611fcf565b6fe60d002020012020202020010101010160781b604483015203915afa9081156104eb575f80935f936120a2575b50929190565b919350506120c291503d805f833e6120ba8183610207565b810190611f87565b929092915f61209c565b6001600160a01b036120dc612988565b163081036120ee575061202490612af3565b60405163419b58fd60e01b81525f80516020614a1983398151915260048201526060602482015292915f9184918290819061212d906064830190611fcf565b665504022014200160c01b604483015203915afa9081156104eb575f80935f936120a25750929190565b6001600160a01b03612167612988565b16308103612179575061202490612ba4565b60405163419b58fd60e01b81526f46756e6374696f6e53656c6563746f72661d189ddbdc9b1960ca1b0160048201526060602482015292915f918491829081906121c7906064830190611fcf565b64090080080160d21b604483015203915afa9081156104eb575f80935f936120a25750929190565b600a8210156102cb5752565b6102da826102dd565b6102da826102c1565b612216816102dd565b60f81b9052565b600a8110156102cb5760f81b9052565b9b9a999897969594939291906040519c60208e015260408d0152612250816102c1565b60f81b60608c015260618b015260818a015260a189015260c188015260e187015261227a816102dd565b60f81b61010186015261010285016122919161220d565b610103840161229f9161220d565b61010483016122ad9161221d565b151560f81b61010582015260e68152610b59816101eb565b6001600160a01b036122d5612988565b163081036122e85750906103b991613125565b90813b1561016a5760405163298314fb60e01b815264537461747360581b631d18955160e21b01600482015260a06024820152925f9284929091839185918391611ef491906123529061233f9060a4860190611fcf565b6003199283868303016044870152610f22565b90846064850152838203016084840152610ee5565b6001600160a01b03612377612988565b163081036123895750610b5990613341565b604051638c364d5960e01b815264537461747360581b631d18955160e21b01600482015260806024820152916020918391829081906123cc906084830190611fcf565b600260448301526fe60d002020012020202020010101010160781b606483015203915afa9081156104eb575f91612401575090565b610b59915060203d6020116104e4576104d68183610207565b6001600160a01b0361242a612988565b1630810361243c5750610b599061335b565b604051638c364d5960e01b815264537461747360581b631d18955160e21b016004820152608060248201529160209183918290819061247f906084830190611fcf565b600660448301526fe60d002020012020202020010101010160781b606483015203915afa9081156104eb575f91612401575090565b6001600160a01b036124c4612988565b163081036124da57506124d690613cf4565b5490565b604051638c364d5960e01b8152654c6576656c7360501b631d18955160e21b016004820152608060248201529160209183918290819061251e906084830190611fcf565b5f6044830152630100080160dd1b606483015203915afa9081156104eb575f91612401575090565b6001600160a01b03612556612988565b163081036125685750610b59906133af565b604051638c364d5960e01b81525f80516020614a19833981519152600482015260806024820152916020918391829081906125a7906084830190611fcf565b60016044830152665504022014200160c01b606483015203915afa9081156104eb575f91612401575090565b6001600160a01b036125e3612988565b163081036125f557506124d690613d6b565b604051638c364d5960e01b81526514185d5cd95960521b631d18955160e21b0160048201526080602482015291602091839182908190612639906084830190611fcf565b5f6044830152630101000160d81b606483015203915afa9081156104eb575f91612401575090565b6001600160a01b03612671612988565b163081036126835750610b5990613438565b604051638c364d5960e01b81525f80516020614a19833981519152600482015260806024820152916020918391829081906126c2906084830190611fcf565b60036044830152665504022014200160c01b606483015203915afa9081156104eb575f91612401575090565b6001600160a01b036126fe612988565b163081036127105750610b5990613488565b604051638c364d5960e01b815264537461747360581b631d18955160e21b0160048201526080602482015291602091839182908190612753906084830190611fcf565b600560448301526fe60d002020012020202020010101010160781b606483015203915afa9081156104eb575f91612401575090565b9060208282031261016a5781516001600160401b03811161016a57610b599201611f45565b604090610b59939281528160208201520190610f22565b906001600160a01b036127d5612988565b1680301461283257905f91612801938360405180968195829463075cf5e160e31b8452600484016127ad565b03925af19081156104eb575f91612816575090565b610b5991503d805f833e61282a8183610207565b810190612788565b5061283b6119c8565b916128446115f4565b80511561055c578082602061285a9301526129ef565b5050906034602083015160601c92015160f81c82156128cb57156128bc575b60101b6001600160901b0319166128a257612893926141b4565b905b1561289d5790565b6134dc565b906128b0916128b69361418f565b90151591565b90612895565b6128c684826140e0565b612879565b506128d581614023565b604051637df8867360e11b8152918291610cbc91600484016127ad565b5f80916020815191016a636f6e736f6c652e6c6f675afa50565b6001600160a01b0361291c612988565b1630810361292e5750610b59906134e4565b604051631e78897760e01b81525f80516020614a19833981519152600482015260606024820152915f9183918290819061296c906064830190611fcf565b6001604483015203915afa9081156104eb575f91612816575090565b7f629a4c26e296b22a8e0856e9f6ecb2d1008d7e00081111962cd175fa7488e175546001600160a01b031680610b5957503390565b906129c782610f65565b6129d46040519182610207565b82815280926129e5601f1991610f65565b0190602036910137565b5f906060906040519060209082612a0a602082019283613852565b0392612a1e601f1994858101835282610207565b5190205f805160206149b9833981519152189160405192816054850116604052601584526020840192601591925b81831015612a7e57505080612a62575b50505092565b5f199060031b1c908183511691199054161790525f8080612a5c565b81600185839495979654875201940194019190612a4c565b5f90612aa3606091613e43565b60405190602090601f19908161012585011660405260e68452602084019260e691925b81831015612adb57505080612a625750505092565b81600185839495979654875201940194019190612ac6565b90612b246040516020810190612b0d8161148987856138d9565b5190205f805160206149b9833981519152186141d4565b90612b2e83614398565b54612b4166ffffffffffffff82166129bd565b935f93602086015b60ff86166002811015612b9a57612b7b8264ffffffffff87612b6b8b896139f8565b946028026038011c168093613aa5565b8101809111611129579460ff8091169081146111295760010194612b49565b5050949291935050565b5f906060906040519060209082612bbf602082019283613918565b0392612bd3601f1994858101835282610207565b5190205f805160206149b9833981519152189160405192816063850116604052602484526020840192602491925b81831015612c1657505080612a625750505092565b81600185839495979654875201940194019190612c01565b60ff16610b59816102dd565b60ff16600a8110156102cb5790565b9190612c5483613e58565b91612c5d614472565b905f5b8251811015612d0457612c94612c87612c798386610dc8565b516001600160581b03191690565b6001600160581b03191690565b9060049182808260581c1614612cb0575b506001915001612c60565b60601c803b1561016a57855f918983612cde966040519788958694859363964f667d60e01b85528401613b8c565b03925af19182156104eb5760019215612ca5578061183b612cfe926101a2565b5f612ca5565b5060408051919490939291612d4e918491674d6f62537461747360401b631d18955160e21b01905f805160206149998339815191529080612d46868d83613b30565b0390a261462f565b5f5b8151811015612dda57612d69612c87612c798385610dc8565b6008808260581c1614612d80575b50600101612d50565b60601c90813b1561016a57845163a8ba872160e01b8152915f908390818381612dad8a8e60048401613b8c565b03925af19182156104eb57600192612dc7575b5090612d77565b8061183b612dd4926101a2565b5f612dc0565b505050509050565b9190915f805b60048210612f7b5765ffffffffffff915016612e0382613ebc565b612e0b614507565b905f5b8251811015612e9857612e27612c87612c798386610dc8565b9060049182808260581c1614612e43575b506001915001612e0e565b60601c803b1561016a57855f9188838c96612e726040519889968795869463964f667d60e01b86528501613bd2565b03925af19182156104eb5760019215612e38578061183b612e92926101a2565b5f612e38565b50949190612ee58383604098875f8051602061499983398151915260405180612edd87876f43686172616374657245717569706d65631d18955160e21b019684613b5b565b0390a261463e565b5f5b8151811015612f7257612f00612c87612c798385610dc8565b6008808260581c1614612f17575b50600101612ee7565b60601c90813b1561016a57875163a8ba872160e01b8152915f908390818381612f458b8b8e60048501613bd2565b03925af19182156104eb57600192612f5f575b5090612f0e565b8061183b612f6c926101a2565b5f612f58565b50505050509050565b60ff67050028290101010160bd1b83601b0360031b1c16810180911161112957600190910190612de8565b91909165ffffffffffff612fb8613aef565b16612fc282613e43565b612fca61459d565b905f5b825181101561305757612fe6612c87612c798386610dc8565b9060049182808260581c1614613002575b506001915001612fcd565b60601c803b1561016a57855f9188838c966130316040519889968795869463964f667d60e01b86528501613c22565b03925af19182156104eb5760019215612ff7578061183b613051926101a2565b5f612ff7565b50604080519096939291613098918591859164537461747360581b631d18955160e21b01905f805160206149998339815191529080612edd87878e84613b5b565b5f5b8151811015612f72576130b3612c87612c798385610dc8565b6008808260581c16146130ca575b5060010161309a565b60601c90813b1561016a57875163a8ba872160e01b8152915f9083908183816130f88b8b8e60048501613c22565b03925af19182156104eb57600192613112575b50906130c1565b8061183b61311f926101a2565b5f61310b565b60408051655461626c657360501b66746273746f726560c81b016020820190815264537461747360581b631d18955160e21b01828401819052838352929592949161316f816101b5565b5190205f805160206149b983398151915218549161318b61459d565b905f5b8251811015613219576131a7612c87612c798386610dc8565b6001808260581c16146131be575b5060010161318e565b60601c90813b1561016a5788516315c19b2760e21b8152915f9083908183816131ec8c8c8f60048501613c95565b03925af19182156104eb57600192613206575b50906131b5565b8061183b613213926101a2565b5f6131ff565b50947f8dbb3a9672eebfd3773e72dd9c102393436816d832c7ba9e1e1ac8fcadcac7a987518061324a868983613c59565b0390a261326561325985613e43565b8351602085019161469a565b60ff808460e01c1680613302575b50505f5b8151811015612f7257613290612c87612c798385610dc8565b6002808260581c16146132a7575b50600101613277565b60601c90813b1561016a578751635b28cdaf60e01b8152915f9083908183816132d58b8b8e60048501613c95565b03925af19182156104eb576001926132ef575b509061329e565b8061183b6132fc926101a2565b5f6132e8565b5f61330c876143ad565b555f60805b8284831610613321575050613273565b6001816133388693613333868d613a35565b61464f565b92011690613311565b61334d610b5991613dcd565b613355613aef565b90613f25565b61336490613dcd565b5f80915b6006831061337a57610b599250613f56565b9060ff6fe60d002020012020202020010101010160781b84601b0360031b1c1681018091116111295760019092019190613368565b6133b890613e2e565b5f905f5b6001811061340f5750818160208210156133f9575b505080548260031b1b9160200390816014116133ec57505090565b600101549060031b1c1790565b90809350601f925060051c019116905f806133d1565b9160ff665504022014200160c01b84601b0360031b1c16810180911161112957916001016133bc565b61344190613e2e565b5f9190825b60038085101561347b57665504022014200160c01b601b86900390911b1c60ff16810190811061112957600190930192613446565b5090610b59929350613f25565b61349190613dcd565b5f80915b600583106134a757610b599250613f56565b9060ff6fe60d002020012020202020010101010160781b84601b0360031b1c1681018091116111295760019092019190613495565b602081519101fd5b610b599064ffffffffff61351f5f805160206149f98339815191526040516020810190613515816114898885613813565b5190201892614398565b5460601c1690614240565b91909161353681614383565b5464ffffffffff926060848360601c169161355c61355484806137bb565b88519061112e565b838114159690878061379c575b61377057613577908661483c565b966135806143c2565b925f5b84518110156136115761359c612c87612c798388610dc8565b6010808260581c16146135b3575b50600101613583565b861c90813b1561016a575f898d938a838e6135e460405198899687958694630abd6b4560e31b86526004860161429e565b03925af19182156104eb576001926135fe575b50906135aa565b8061183b61360b926101a2565b5f6135f7565b509298939790949691965f985f995b60ff8b1660018110156136475760ff918b8b6001936028026038011c16019b011699613620565b509692975093985093989196506040947ffe158a7adba34e256807c8a149028d3162918713c3838afc643ce9f96716ebfd85896136ac8d8b60405194859465ffffffffffff694368617261637465727360301b631d18955160e21b01991690866142f9565b0390a2613760575b6136c6886136c1886139d4565b61462f565b5f5b8151811015613755576136e1612c87612c798385610dc8565b6020808260581c16146136f8575b506001016136c8565b831c90813b1561016a575f878b9387838c6137288c5198899687958694636358453360e01b86526004860161429e565b03925af19182156104eb57600192613742575b50906136ef565b8061183b61374f926101a2565b5f61373b565b505050505050509050565b8461376a87614383565b556136b4565b604051632994042d60e21b81525f600482015264ffffffffff8616602482018190526044820152606490fd5b50846137b46137aa8261428b565b64ffffffffff1690565b1415613569565b9190820391821161112957565b6953746f7265486f6f6b7360301b66746273746f726560c81b01815281516020918201928201915f5b8281106137ff575050505090565b8351855293810193928101926001016137f1565b5f80516020614a19833981519152815281516020918201928201915f5b82811061383e575050505090565b835185529381019392810192600101613830565b6653797374656d7360481b661d189ddbdc9b1960ca1b01815281516020918201928201915f5b828110613886575050505090565b835185529381019392810192600101613878565b5f80516020614a19833981519152815281516020918201928201915f5b8281106138c5575050505090565b8351855293810193928101926001016138b7565b5f80516020614a19833981519152815281516020918201928201915f5b828110613904575050505090565b8351855293810193928101926001016138f6565b6f46756e6374696f6e53656c6563746f72661d189ddbdc9b1960ca1b01815281516020918201928201915f5b828110613952575050505090565b835185529381019392810192600101613944565b64537461747360581b631d18955160e21b01815281516020918201928201915f5b828110613995575050505090565b835185529381019392810192600101613987565b5f805160206149d9833981519152906040516139cd816114896020820194856137c8565b5190201890565b5f805160206149f9833981519152906040516139cd81611489602082019485613813565b905f805160206149d983398151915291604051613a1d81611489602082019485613813565b51902060f89190911b6001600160f81b031916181890565b6040805164537461747360581b631d18955160e21b0160208083019182528451938301969594919391810191905f5b828110613a915750505050613a1d815f805160206149d9833981519152959603601f198101835282610207565b835189529781019792810192600101613a64565b9291925b602090818310613ac95780548552930192601f1990910190600101613aa9565b91905092919280613ad957505050565b5f199060031b1c90818351169119905416179052565b5f805b60028110613afe575090565b9060ff6fe60d002020012020202020010101010160781b83601b0360031b1c1681018091116111295790600101613af2565b9091613b47610b5993606084526060840190611fcf565b915f60208201526040818403910152610f22565b65ffffffffffff613b78610b599593606084526060840190611fcf565b931660208201526040818403910152610f22565b674d6f62537461747360401b631d18955160e21b018152608060208201819052610b59939192613bbe91840190611fcf565b915f60408201526060818403910152610f22565b65ffffffffffff613c0e610b5995936f43686172616374657245717569706d65631d18955160e21b018452608060208501526080840190611fcf565b931660408201526060818403910152610f22565b64537461747360581b631d18955160e21b018152608060208201819052610b59949265ffffffffffff91613c0e9190840190611fcf565b90610b5992613c73613c8192608085526080850190611fcf565b908382036020850152610f22565b905f60408201526060818303910152610ee5565b64537461747360581b631d18955160e21b01815260c0602082018190529094939260a092613cef92613cdc9291613cce91890190611fcf565b908782036040890152610f22565b5f60608701528581036080870152610ee5565b930152565b6040516020816020810193654c6576656c7360501b631d18955160e21b0185526040820160208251919201935f5b828110613d5457505050613d3f925003601f198101835282610207565b5190205f805160206149b98339815191521890565b855184529481019486945092810192600101613d22565b60405160208160208101936514185d5cd95960521b631d18955160e21b0185526040820160208251919201935f5b828110613db657505050613d3f925003601f198101835282610207565b855184529481019486945092810192600101613d99565b604051602081602081019364537461747360581b631d18955160e21b0185526040820160208251919201935f5b828110613e1757505050613d3f925003601f198101835282610207565b855184529481019486945092810192600101613dfa565b604051613d3f8161148960208201948561389a565b604051613d3f81611489602082019485613966565b6040516020816020810193674d6f62537461747360401b631d18955160e21b0185526040820160208251919201935f5b828110613ea557505050613d3f925003601f198101835282610207565b855184529481019486945092810192600101613e88565b60405160208160208101936f43686172616374657245717569706d65631d18955160e21b0185526040820160208251919201935f5b828110613f0e57505050613d3f925003601f198101835282610207565b855184529481019486945092810192600101613ef1565b6020821015613f48575b80548260031b1b9160200390816001116133ec57505090565b601f82169160051c01613f2f565b6020821015613f79575b80548260031b1b9160200390816020116133ec57505090565b601f82169160051c01613f60565b9081518111613fa6576001600160801b031660209190910160801b1790565b6040516323230fa360e01b81526060600482015292508291613fcc906064840190610f22565b905f602484015260448301520390fd5b906103b96001600160801b038316613ff3816129bd565b93602085019060801c61474d565b6040519061400e826101d0565b60068252651e3937b7ba1f60d11b6020830152565b608081901b6001600160801b03191690610b5990602490601081901b6001600160901b031916806140d15750614057614001565b935b806140c35750614067614001565b60405194859261ffff60f01b166020840152601d60f91b90816022850152614099815180926020602388019101610ec4565b83019060238201526140b48251809360208785019101610ec4565b01036004810184520182610207565b6140cc90614796565b614067565b6140da90614796565b93614059565b6140fd82600160801b600160f01b038316616e7360f01b176148c2565b8015614150575b1561410d575050565b9061411a61413c92614023565b9060405192839263d787b73760e01b8452604060048501526044840190610f22565b6001600160a01b0390911660248301520390fd5b5061415b82826148c2565b614104565b3d1561418a573d9061417182610f65565b9161417f6040519384610207565b82523d5f602084013e565b606090565b9061419d5f939284936147f4565b9082602083519301915af16141b0614160565b9091565b906141c25f939284936147f4565b90602082519201905af46141b0614160565b60405190602090601f1990816094850116604052605584526020840192605591925b818310156142285750508061420c575b50505090565b5f199060031b1c908183511691199054161790525f8080614206565b816001858394959796548752019401940191906141f6565b60408051601f19603f85830101811690925283815292602080850193925b818310156142735750508061420c5750505090565b8160018583949597965487520194019401919061425e565b9064ffffffffff80921691821161112957565b5f80516020614a19833981519152815260e060208201819052610b59959394919264ffffffffff916142d39190850190611fcf565b94600160408501525f606085015216608083015260a082015260c0818403910152610f22565b919390610b59959365ffffffffffff61432064ffffffffff9360c0875260c0870190611fcf565b9660016020870152166040850152166060830152608082015260a0818403910152610f22565b60405161435b816114896020820194856137c8565b5190207f14e2fcc58e58e68ec7edc30c8d50dccc3ce2714a623ec81f46b6a63922d765691890565b60405161435b81611489602082019485613813565b60405161435b8161148960208201948561389a565b60405161435b81611489602082019485613966565b6143ca6115f4565b80511561055c575f80516020614a19833981519152602082810191909152906144229061441a90614414614406614400836139a9565b92614346565b5460381c64ffffffffff1690565b90614240565b805190613f87565b8060801c916015809260018060801b03160490604051936020850160208460051b8701016040528386525f5b84811061445e5750505050505090565b82518252918501919083019060010161444e565b61447a6115f4565b80511561055c57674d6f62537461747360401b631d18955160e21b01602082810191909152906144b79061441a90614414614406614400836139a9565b8060801c916015809260018060801b03160490604051936020850160208460051b8701016040528386525f5b8481106144f35750505050505090565b8251825291850191908301906001016144e3565b61450f6115f4565b80511561055c5761454d61441a6020926f43686172616374657245717569706d65631d18955160e21b016020820152614414614406614400836139a9565b8060801c916015809260018060801b03160490604051936020850160208460051b8701016040528386525f5b8481106145895750505050505090565b825182529185019190830190600101614579565b6145a56115f4565b80511561055c5764537461747360581b631d18955160e21b01602082810191909152906145df9061441a90614414614406614400836139a9565b8060801c916015809260018060801b03160490604051936020850160208460051b8701016040528386525f5b84811061461b5750505050505090565b82518252918501919083019060010161460b565b81516103b9926020019161469a565b82516103b9936020019290916146bd565b9190915f905b6020908183106146755784518155930192601f1990910190600101614655565b92939190508061468457505050565b5f199060031b1c90818354169119905116179055565b9291926020908183106146755784518155930192601f1990910190600101614655565b9093929193806146ec575b509290926020908183106146755784518155930192601f1990910190600101614655565b602081101561473d575b80156146c85791939082602003908360031b5f198460031b1c19811c908751901c908019835416911617815581831115612dda57600101940191601f19910101925f6146c8565b90601f908260051c0191166146f6565b9291905b602090818310614770578451815293810193601f199092019101614751565b92939190508015614791575f199060031b1c90818351169119905116179052565b505050565b5f5b601081106147c7575b6040516001600160801b03199092166020830152601082526147c2826101d0565b815290565b6001600160801b03198216600382901b1b6001600160f81b031916156147ef57600101614798565b6147a1565b6054610b59916040519381614813869351809260208087019101610ec4565b82019060018060601b03199060601b1660208201525f6034820152036034810184520182610207565b64ffffffffff8083116148a95766ffffffffffffff821690606083901c168381811061489f570301915b64ffffffffff60601b60609190911b1664ffffffffff60601b1992909216600169ffffffffff000000000160381b031991909116171790565b9003900391614866565b604051637149a3c160e01b815260048101849052602490fd5b604051906148cf826101b5565b600282526020926020830191604036843783511561055c5782528251906001916001101561055c576001600160a01b031660408085019190915280516f5265736f757263654163636573730000661d189ddbdc9b1960ca1b0160208201908152945194959094918501939291905f5b8281106149855750505050509181614965611bd093610b599503601f198101835282610207565b5190205f805160206149b983398151915218546001600160f81b03191690565b845186529481019493810193830161493e56fe8c0b5119d4cec7b284c6b1b39252a03d1e2f2d7451a5895562524c113bb952be86425bff6b57326c7859e89024fe4f238ca327a1ae4a230180dd2f0e88aaa7d93b4102da22e32d82fc925482184f16c09fd4281692720b87d124aef6da48a0f13a4102da22e32d82fc925482184f16c09fd4281692720b87d124aef6da48a0f17462554400000000000000000000000043686172616374657273000000000000","linkReferences":{"src/libraries/StatCalculator.sol":{"StatCalculator":[{"start":1180,"length":20},{"start":2294,"length":20},{"start":5106,"length":20}]}}},"methodIdentifiers":{"_msgSender()":"119df25f","_msgValue()":"45ec9354","_world()":"e1af802c","calculateStatBonuses(bytes32)":"b13fc750","getBaseStats(bytes32)":"7163c6ba","getClass(bytes32)":"23801570","getCurrentAvailableLevel(uint256)":"1ecb393f","getExperience(bytes32)":"ebee03bb","getLevel(bytes32)":"debf323d","getStats(bytes32)":"0bb700dc","levelCharacter(bytes32,(int256,int256,uint8,int256,int256,int256,uint256,uint256,uint8,uint8,uint8,uint8,bool))":"f59cb863","rollStats(bytes32,bytes32,uint8)":"679ee16d","setStats(bytes32,(int256,int256,int256,int256,int256,int256))":"09a4fa6e","supportsInterface(bytes4)":"01ffc9a7","updateStats(bytes32,(int256,int256,uint8,int256,int256,int256,uint256,uint256,uint8,uint8,uint8,uint8,bool))":"ed7353d6","validateStatRequirements(bytes32,(int256,int256,uint8,int256,int256,int256,uint256,uint256,uint8,uint8,uint8,uint8,bool))":"4a863741"},"id":383}