{"abi":[{"type":"function","name":"_msgSender","inputs":[],"outputs":[{"name":"sender","type":"address","internalType":"address"}],"stateMutability":"view"},{"type":"function","name":"_msgValue","inputs":[],"outputs":[{"name":"value","type":"uint256","internalType":"uint256"}],"stateMutability":"pure"},{"type":"function","name":"_world","inputs":[],"outputs":[{"name":"","type":"address","internalType":"address"}],"stateMutability":"view"},{"type":"function","name":"applyEquipmentBonuses","inputs":[{"name":"entityId","type":"bytes32","internalType":"bytes32"}],"outputs":[{"name":"modifiedStats","type":"tuple","internalType":"struct AdjustedCombatStats","components":[{"name":"adjustedStrength","type":"uint256","internalType":"uint256"},{"name":"adjustedAgility","type":"uint256","internalType":"uint256"},{"name":"adjustedIntelligence","type":"uint256","internalType":"uint256"},{"name":"adjustedArmor","type":"uint256","internalType":"uint256"},{"name":"adjustedMaxHp","type":"uint256","internalType":"uint256"},{"name":"currentHp","type":"int256","internalType":"int256"},{"name":"level","type":"uint256","internalType":"uint256"}]}],"stateMutability":"view"},{"type":"function","name":"checkItemAction","inputs":[{"name":"itemId","type":"uint256","internalType":"uint256"},{"name":"effectId","type":"bytes32","internalType":"bytes32"}],"outputs":[{"name":"hasAction","type":"bool","internalType":"bool"}],"stateMutability":"view"},{"type":"function","name":"checkRequirements","inputs":[{"name":"characterId","type":"bytes32","internalType":"bytes32"},{"name":"itemId","type":"uint256","internalType":"uint256"}],"outputs":[{"name":"canUse","type":"bool","internalType":"bool"}],"stateMutability":"view"},{"type":"function","name":"equipItems","inputs":[{"name":"characterId","type":"bytes32","internalType":"bytes32"},{"name":"itemIds","type":"uint256[]","internalType":"uint256[]"}],"outputs":[],"stateMutability":"nonpayable"},{"type":"function","name":"getArmorStats","inputs":[{"name":"itemId","type":"uint256","internalType":"uint256"}],"outputs":[{"name":"_ArmorStats","type":"tuple","internalType":"struct ArmorStatsData","components":[{"name":"agiModifier","type":"int256","internalType":"int256"},{"name":"armorModifier","type":"int256","internalType":"int256"},{"name":"hpModifier","type":"int256","internalType":"int256"},{"name":"intModifier","type":"int256","internalType":"int256"},{"name":"minLevel","type":"uint256","internalType":"uint256"},{"name":"strModifier","type":"int256","internalType":"int256"}]}],"stateMutability":"view"},{"type":"function","name":"getItemEffects","inputs":[{"name":"itemId","type":"uint256","internalType":"uint256"}],"outputs":[{"name":"effects","type":"bytes32[]","internalType":"bytes32[]"}],"stateMutability":"view"},{"type":"function","name":"getSpellStats","inputs":[{"name":"itemId","type":"uint256","internalType":"uint256"}],"outputs":[{"name":"_spellStats","type":"tuple","internalType":"struct SpellStatsData","components":[{"name":"minDamage","type":"int256","internalType":"int256"},{"name":"maxDamage","type":"int256","internalType":"int256"},{"name":"effects","type":"bytes32[]","internalType":"bytes32[]"}]}],"stateMutability":"view"},{"type":"function","name":"getWeaponStats","inputs":[{"name":"itemId","type":"uint256","internalType":"uint256"}],"outputs":[{"name":"_weaponStats","type":"tuple","internalType":"struct WeaponStatsData","components":[{"name":"agiModifier","type":"int256","internalType":"int256"},{"name":"intModifier","type":"int256","internalType":"int256"},{"name":"hpModifier","type":"int256","internalType":"int256"},{"name":"maxDamage","type":"int256","internalType":"int256"},{"name":"minDamage","type":"int256","internalType":"int256"},{"name":"minLevel","type":"uint256","internalType":"uint256"},{"name":"strModifier","type":"int256","internalType":"int256"},{"name":"effects","type":"bytes32[]","internalType":"bytes32[]"}]}],"stateMutability":"view"},{"type":"function","name":"isEquipped","inputs":[{"name":"characterId","type":"bytes32","internalType":"bytes32"},{"name":"itemId","type":"uint256","internalType":"uint256"}],"outputs":[{"name":"_isEquipped","type":"bool","internalType":"bool"}],"stateMutability":"view"},{"type":"function","name":"supportsInterface","inputs":[{"name":"interfaceId","type":"bytes4","internalType":"bytes4"}],"outputs":[{"name":"","type":"bool","internalType":"bool"}],"stateMutability":"pure"},{"type":"function","name":"unequipItem","inputs":[{"name":"characterId","type":"bytes32","internalType":"bytes32"},{"name":"itemId","type":"uint256","internalType":"uint256"}],"outputs":[{"name":"success","type":"bool","internalType":"bool"}],"stateMutability":"nonpayable"},{"type":"event","name":"Store_SpliceDynamicData","inputs":[{"name":"tableId","type":"bytes32","indexed":true,"internalType":"ResourceId"},{"name":"keyTuple","type":"bytes32[]","indexed":false,"internalType":"bytes32[]"},{"name":"dynamicFieldIndex","type":"uint8","indexed":false,"internalType":"uint8"},{"name":"start","type":"uint48","indexed":false,"internalType":"uint48"},{"name":"deleteCount","type":"uint40","indexed":false,"internalType":"uint40"},{"name":"encodedLengths","type":"bytes32","indexed":false,"internalType":"EncodedLengths"},{"name":"data","type":"bytes","indexed":false,"internalType":"bytes"}],"anonymous":false},{"type":"event","name":"Store_SpliceStaticData","inputs":[{"name":"tableId","type":"bytes32","indexed":true,"internalType":"ResourceId"},{"name":"keyTuple","type":"bytes32[]","indexed":false,"internalType":"bytes32[]"},{"name":"start","type":"uint48","indexed":false,"internalType":"uint48"},{"name":"data","type":"bytes","indexed":false,"internalType":"bytes"}],"anonymous":false},{"type":"error","name":"EncodedLengths_InvalidLength","inputs":[{"name":"length","type":"uint256","internalType":"uint256"}]},{"type":"error","name":"Slice_OutOfBounds","inputs":[{"name":"data","type":"bytes","internalType":"bytes"},{"name":"start","type":"uint256","internalType":"uint256"},{"name":"end","type":"uint256","internalType":"uint256"}]},{"type":"error","name":"Store_IndexOutOfBounds","inputs":[{"name":"length","type":"uint256","internalType":"uint256"},{"name":"accessedIndex","type":"uint256","internalType":"uint256"}]},{"type":"error","name":"Store_InvalidResourceType","inputs":[{"name":"expected","type":"bytes2","internalType":"bytes2"},{"name":"resourceId","type":"bytes32","internalType":"ResourceId"},{"name":"resourceIdString","type":"string","internalType":"string"}]},{"type":"error","name":"Store_InvalidSplice","inputs":[{"name":"startWithinField","type":"uint40","internalType":"uint40"},{"name":"deleteCount","type":"uint40","internalType":"uint40"},{"name":"fieldLength","type":"uint40","internalType":"uint40"}]}],"bytecode":{"object":"0x608060405234801561001057600080fd5b5061508f806100206000396000f3fe608060405234801561001057600080fd5b50600436106100ea5760003560e01c80639056fa281161008c578063cc77a2de11610066578063cc77a2de14610298578063e1af802c146102ad578063eac59d4c146102b5578063edcfef82146102c857600080fd5b80639056fa28146102095780639a8bb9a214610272578063b2aca84b1461028557600080fd5b806340a5ed2a116100c857806340a5ed2a1461015757806345ec9354146101b657806363ff2287146101c95780636479f09f146101e957600080fd5b806301ffc9a7146100ef578063119df25f1461011757806338a5aae614610137575b600080fd5b6101026100fd3660046146c0565b6102db565b60405190151581526020015b60405180910390f35b61011f610374565b6040516001600160a01b03909116815260200161010e565b61014a610145366004614702565b610383565b60405161010e9190614757565b61016a610165366004614702565b610408565b60405161010e9190600060c082019050825182526020830151602083015260408301516040830152606083015160608301526080830151608083015260a083015160a083015292915050565b604051601f19360135815260200161010e565b6101dc6101d7366004614702565b6104bd565b60405161010e919061476a565b6101fc6101f7366004614702565b61057c565b60405161010e91906147cf565b61021c610217366004614702565b610617565b60405161010e9190600060e082019050825182526020830151602083015260408301516040830152606083015160608301526080830151608083015260a083015160a083015260c083015160c083015292915050565b6101026102803660046147fe565b6108f7565b6101026102933660046147fe565b610a31565b6102ab6102a63660046148b5565b610d71565b005b61011f6110c1565b6101026102c33660046147fe565b6110cb565b6101026102d63660046147fe565b61122e565b60007fffffffff0000000000000000000000000000000000000000000000000000000082167fb5dee12700000000000000000000000000000000000000000000000000000000148061036e57507fffffffff0000000000000000000000000000000000000000000000000000000082167f01ffc9a700000000000000000000000000000000000000000000000000000000145b92915050565b600061037e6113ab565b905090565b60606000610390836113dd565b905060008160048111156103a6576103a6614957565b036103bb576103b483611491565b9150610402565b60028160048111156103cf576103cf614957565b036103dd576103b48361151d565b60038160048111156103f1576103f1614957565b03610402576103ff83611592565b91505b50919050565b6104416040518060c001604052806000815260200160008152602001600081526020016000815260200160008152602001600081525090565b600061044c836113dd565b9050600181600481111561046257610462614957565b146104b45760405162461bcd60e51b815260206004820152601360248201527f4954454d533a204e6f742061202041726d6f720000000000000000000000000060448201526064015b60405180910390fd5b6103ff83611607565b61050560405180610100016040528060008152602001600081526020016000815260200160008152602001600081526020016000815260200160008152602001606081525090565b6000610510836113dd565b9050600081600481111561052657610526614957565b146105735760405162461bcd60e51b815260206004820152601460248201527f4954454d533a204e6f7420612020776561706f6e00000000000000000000000060448201526064016104ab565b6103ff836116ed565b6105a060405180606001604052806000815260200160008152602001606081525090565b60006105ab836113dd565b905060028160048111156105c1576105c1614957565b1461060e5760405162461bcd60e51b815260206004820152601360248201527f4954454d533a204e6f742061202041726d6f720000000000000000000000000060448201526064016104ab565b6103ff836117d8565b6106576040518060e00160405280600081526020016000815260200160008152602001600081526020016000815260200160008152602001600081525090565b60006106628361189f565b90506106a46040518060e00160405280600081526020016000815260200160008152602001600081526020016000815260200160008152602001600081525090565b6106ac6110c1565b6001600160a01b031663fa1becc4856040518263ffffffff1660e01b81526004016106d991815260200190565b602060405180830381865afa1580156106f6573d6000803e3d6000fd5b505050506040513d601f19601f8201168201806040525081019061071a919061496d565b1561081f57600061072a85611947565b8051845191925060009161073e91906149a5565b121561074b576000610759565b8051835161075991906149a5565b825260208082015190840151600091610771916149a5565b121561077e576000610792565b8060200151836020015161079291906149a5565b6020830152604081015160608401516000916107ad916149a5565b12156107ba5760006107ce565b806040015183606001516107ce91906149a5565b6040830152606081015160808401516000916107e9916149a5565b12156107f657600161080a565b8060600151836080015161080a91906149a5565b60808301525060a080830151908201526108f0565b6020808301519082015281518152606082015160408201526108b56108426110c1565b6001600160a01b03166353d64640866040518263ffffffff1660e01b815260040161086f91815260200190565b602060405180830381865afa15801561088c573d6000803e3d6000fd5b505050506040513d601f19601f820116820180604052508101906108b091906149cd565b611a36565b8060200190518101906108c89190614a5f565b6020015160608201526080808301519082015260a0808301519082015260e082015160c08201525b9392505050565b60008061090383611aab565b905060006109108561189f565b9050600061091d85611b6a565b8351909150600481111561093357610933614957565b60ff166000036109a457600061094886611c31565b60e084015160208501518451929091101592506001911115610968575060005b835160408401511115610979575060005b83606001518360200151111561098d575060005b8180156109975750805b156109a157600195505b50505b825160048111156109b7576109b7614957565b60ff16600103610a285760006109cc86611cc6565b60e0840151602085015184519290911015925060019111156109ec575060005b8351604084015111156109fd575060005b836060015183602001511115610a11575060005b818015610a1b5750805b15610a2557600195505b50505b50505092915050565b6000826000610a3f82611d5b565b90508060600151610a925760405162461bcd60e51b815260206004820152601960248201527f436861726163746572206e6f7420696e207468652047616d650000000000000060448201526064016104ab565b6000610a9c6110c1565b6001600160a01b031663777c2caf876040518263ffffffff1660e01b8152600401610ac991815260200190565b602060405180830381865afa158015610ae6573d6000803e3d6000fd5b505050506040513d601f19601f82011682018060405250810190610b0a9190614b27565b9050610b14610374565b6001600160a01b0316816001600160a01b031614610b745760405162461bcd60e51b815260206004820152601a60248201527f4954454d533a204e6f7420436861726163746572204f776e657200000000000060448201526064016104ab565b6000610b7e6110c1565b6001600160a01b031663cdaccbae876040518263ffffffff1660e01b8152600401610bab91815260200190565b602060405180830381865afa158015610bc8573d6000803e3d6000fd5b505050506040513d601f19601f82011682018060405250810190610bec9190614b50565b6004811115610bfd57610bfd614957565b905060ff8116610c68576000610c1b87610c168a611e20565b611e93565b9050868160018351610c2d9190614b71565b81518110610c3d57610c3d614b84565b602002602001015103610c6257610c548882611f62565b610c5d88611fdd565b600195505b50610d5e565b60001960ff821601610cc5576000610c8387610c168a612054565b9050868160018351610c959190614b71565b81518110610ca557610ca5614b84565b602002602001015103610c6257610cbc88826120c6565b610c5d88612137565b7ffffffffffffffffffffffffffffffffffffffffffffffffffffffffffffffffe60ff82160115610d5e5760405162461bcd60e51b815260206004820152602160248201527f45515549504d454e543a20554e5245434f474e495a4544204954454d2054595060448201527f450000000000000000000000000000000000000000000000000000000000000060648201526084016104ab565b610d67876121aa565b5050505092915050565b816000610d7d82611d5b565b90508060600151610dd05760405162461bcd60e51b815260206004820152601960248201527f436861726163746572206e6f7420696e207468652047616d650000000000000060448201526064016104ab565b6000610dda6110c1565b6001600160a01b031663777c2caf866040518263ffffffff1660e01b8152600401610e0791815260200190565b602060405180830381865afa158015610e24573d6000803e3d6000fd5b505050506040513d601f19601f82011682018060405250810190610e489190614b27565b9050610e52610374565b6001600160a01b0316816001600160a01b031614610eb25760405162461bcd60e51b815260206004820152601a60248201527f4954454d533a204e6f7420436861726163746572204f776e657200000000000060448201526064016104ab565b6000805b85518110156110af57858181518110610ed157610ed1614b84565b60200260200101519150610ee36110c1565b6001600160a01b031663b363411883610efa610374565b6040517fffffffff0000000000000000000000000000000000000000000000000000000060e085901b16815260048101929092526001600160a01b03166024820152604401602060405180830381865afa158015610f5c573d6000803e3d6000fd5b505050506040513d601f19601f82011682018060405250810190610f80919061496d565b610fcc5760405162461bcd60e51b815260206004820152601560248201527f4954454d533a204e6f74204974656d204f776e6572000000000000000000000060448201526064016104ab565b6000610fd783611aab565b9050600381600001516004811115610ff157610ff1614957565b60ff16106110415760405162461bcd60e51b815260206004820152601d60248201527f4954454d533a204e6f7420616e2065717569707061626c65204974656d00000060448201526064016104ab565b61104b88846108f7565b6110975760405162461bcd60e51b815260206004820152601b60248201527f4954454d533a20526571756972656d656e7473206e6f74206d6574000000000060448201526064016104ab565b6110a6888483600001516123a9565b50600101610eb6565b506110b9866121aa565b505050505050565b600061037e612514565b6000806110d7846113dd565b905060008160048111156110ed576110ed614957565b0361114d5760006110fd85611491565b905060005b81518110156111465781818151811061111d5761111d614b84565b602002602001015185036111345760019350611146565b8061113e81614b9a565b915050611102565b5050611227565b600281600481111561116157611161614957565b036111ba5760006111718561151d565b905060005b81518110156111465781818151811061119157611191614b84565b602002602001015185036111a85760019350611146565b806111b281614b9a565b915050611176565b60038160048111156111ce576111ce614957565b036112275760006111de85611592565b905060005b8151811015610a28578181815181106111fe576111fe614b84565b602002602001015185036112155760019350610a28565b8061121f81614b9a565b9150506111e3565b5092915050565b60008061123a83611aab565b8051909150600481111561125057611250614957565b60ff166000036112ae57600061126585611e20565b905060005b8151811015611146578482828151811061128657611286614b84565b60200260200101510361129c5760019350611146565b806112a681614b9a565b91505061126a565b805160048111156112c1576112c1614957565b60ff1660010361131f5760006112d685612054565b905060005b815181101561114657848282815181106112f7576112f7614b84565b60200260200101510361130d5760019350611146565b8061131781614b9a565b9150506112db565b8051600481111561133257611332614957565b60ff16600203156112275760405162461bcd60e51b815260206004820152602160248201527f45515549504d454e543a20554e5245434f474e495a4544204954454d2054595060448201527f450000000000000000000000000000000000000000000000000000000000000060648201526084016104ab565b7fffffffffffffffffffffffffffffffffffffffffffffffffffffffffffffffcc36013560601c806113da5750335b90565b604080516001808252818301909252600091829190602080830190803683370190505090508260001b8160008151811061141957611419614b84565b602090810291909101015260006114717f746255440000000000000000000000004974656d73000000000000000000000083837e2102010120000000000000000000000000000000000000000000000000000061251e565b905060f881901c600481111561148957611489614957565b949350505050565b60408051600180825281830190925260609160009190602080830190803683370190505090508260001b816000815181106114ce576114ce614b84565b602090810291909101015260006115067f74625544000000000000000000000000576561706f6e5374617473000000000083836125db565b905061148961151882600084516126a2565b612730565b60408051600180825281830190925260609160009190602080830190803683370190505090508260001b8160008151811061155a5761155a614b84565b602090810291909101015260006115067f746255440000000000000000000000005370656c6c537461747300000000000083836125db565b60408051600180825281830190925260609160009190602080830190803683370190505090508260001b816000815181106115cf576115cf614b84565b602090810291909101015260006115067f74625544000000000000000000000000436f6e73756d61626c6553746174730083836125db565b6116406040518060c001604052806000815260200160008152602001600081526020016000815260200160008152602001600081525090565b604080516001808252818301909252600091602080830190803683370190505090508260001b8160008151811061167957611679614b84565b6020908102919091010152600080806116d27f7462554400000000000000000000000041726d6f725374617473000000000000857ec0060020202020202000000000000000000000000000000000000000000000612741565b9250925092506116e3838383612811565b9695505050505050565b61173560405180610100016040528060008152602001600081526020016000815260200160008152602001600081526020016000815260200160008152602001606081525090565b604080516001808252818301909252600091602080830190803683370190505090508260001b8160008151811061176e5761176e614b84565b6020908102919091010152600080806117c77f74625544000000000000000000000000576561706f6e53746174730000000000857ee0070120202020202020000000000000000000000000000000000000000000612741565b9250925092506116e3838383612875565b6117fc60405180606001604052806000815260200160008152602001606081525090565b604080516001808252818301909252600091602080830190803683370190505090508260001b8160008151811061183557611835614b84565b60209081029190910101526000808061188e7f746255440000000000000000000000005370656c6c5374617473000000000000857e40020120200000000000000000000000000000000000000000000000000000612741565b9250925092506116e38383836128fc565b6118a761466a565b6040805160018082528183019092526000916020808301908036833701905050905082816000815181106118dd576118dd614b84565b6020908102919091010152600080806119367f7462554400000000000000000000000053746174730000000000000000000000857ee1080020200120202020200000000000000000000000000000000000000000612741565b9250925092506116e3838383612946565b6119966040518061012001604052806000815260200160008152602001600081526020016000815260200160008152602001606081526020016060815260200160608152602001606081525090565b6040805160018082528183019092526000916020808301908036833701905050905082816000815181106119cc576119cc614b84565b602090810291909101015260008080611a257f7462554400000000000000000000000043686172616374657245717569706d65857ea0050420202020200000000000000000000000000000000000000000000000612741565b9250925092506116e38383836129be565b60408051600180825281830190925260609160009190602080830190803683370190505090508260001b81600081518110611a7357611a73614b84565b602090810291909101015260006114897f746255440000000000000000000000004d6f627300000000000000000000000083836125db565b60408051606080820183526000808352602083015291810191909152604080516001808252818301909252600091602080830190803683370190505090508260001b81600081518110611b0057611b00614b84565b602090810291909101015260008080611b597f746255440000000000000000000000004974656d730000000000000000000000857e21020101200000000000000000000000000000000000000000000000000000612741565b9250925092506116e3838383612a52565b611b8e60405180606001604052806000815260200160008152602001600081525090565b604080516001808252818301909252600091602080830190803683370190505090508260001b81600081518110611bc757611bc7614b84565b602090810291909101015260008080611c207f74625544000000000000000000000000537461745265737472696374696f6e73857e60030020202000000000000000000000000000000000000000000000000000612741565b9250925092506116e3838383612ab1565b604080516001808252818301909252600091829190602080830190803683370190505090508260001b81600081518110611c6d57611c6d614b84565b602090810291909101015260006114897f74625544000000000000000000000000576561706f6e537461747300000000008360057ee007012020202020202000000000000000000000000000000000000000000061251e565b604080516001808252818301909252600091829190602080830190803683370190505090508260001b81600081518110611d0257611d02614b84565b602090810291909101015260006114897f7462554400000000000000000000000041726d6f7253746174730000000000008360047ec006002020202020200000000000000000000000000000000000000000000061251e565b60408051608081018252600080825260208201819052818301819052606082018190528251600180825281850190945291929091908160200160208202803683370190505090508281600081518110611db657611db6614b84565b602090810291909101015260008080611e0f7f7462554400000000000000000000000043686172616374657273000000000000857e55040020142001000000000000000000000000000000000000000000000000612741565b9250925092506116e3838383612af1565b60408051600180825281830190925260609160009190602080830190803683370190505090508281600081518110611e5a57611e5a614b84565b602090810291909101015260006115067f7462554400000000000000000000000043686172616374657245717569706d658360016125db565b60606001825111156104025760005b8251811015611f5c5783838281518110611ebe57611ebe614b84565b602002602001015103611f4a5760008360018551611edc9190614b71565b81518110611eec57611eec614b84565b6020026020010151905080848381518110611f0957611f09614b84565b602002602001018181525050848460018651611f259190614b71565b81518110611f3557611f35614b84565b60200260200101818152505083925050611f5c565b80611f5481614b9a565b915050611ea2565b5061036e565b604080516001808252818301909252600091602080830190803683370190505090508281600081518110611f9857611f98614b84565b6020908102919091010152611fd87f7462554400000000000000000000000043686172616374657245717569706d65826001611fd386612b41565b612b51565b505050565b60408051600180825281830190925260009160208083019080368337019050509050818160008151811061201357612013614b84565b6020026020010181815250506120507f7462554400000000000000000000000043686172616374657245717569706d6560001b8260016020612c03565b5050565b6040805160018082528183019092526060916000919060208083019080368337019050509050828160008151811061208e5761208e614b84565b602090810291909101015260006115067f7462554400000000000000000000000043686172616374657245717569706d6583836125db565b6040805160018082528183019092526000916020808301908036833701905050905082816000815181106120fc576120fc614b84565b6020908102919091010152611fd87f7462554400000000000000000000000043686172616374657245717569706d65826000611fd386612b41565b60408051600180825281830190925260009160208083019080368337019050509050818160008151811061216d5761216d614b84565b6020026020010181815250506120507f7462554400000000000000000000000043686172616374657245717569706d6560001b8260006020612c03565b60006121b582612054565b905060006121c283611e20565b905060008060008060006122056040518060c001604052806000815260200160008152602001600081526020016000815260200160008152602001600081525090565b61224d60405180610100016040528060008152602001600081526020016000815260200160008152602001600081526020016000815260200160008152602001606081525090565b8851156122e55760005b89518110156122e3576122828a828151811061227557612275614b84565b6020026020010151610408565b925082602001518861229491906149a5565b97508260a00151876122a691906149a5565b83519097506122b590876149a5565b95508260600151856122c791906149a5565b94508260400151846122d991906149a5565b9350600101612257565b505b87511561236b5760005b88518110156123695761231a89828151811061230d5761230d614b84565b60200260200101516104bd565b91508160c001518761232c91906149a5565b825190975061233b90876149a5565b955081602001518561234d91906149a5565b945081604001518461235f91906149a5565b93506001016122ef565b505b6123758a87612c76565b61237f8a86612d2a565b6123898a85612da9565b6123938a84612e28565b61239d8a88612ea7565b50505050505050505050565b6123b3838361122e565b156124005760405162461bcd60e51b815260206004820152601b60248201527f45515549504d454e543a20414c5245414459204551554950504544000000000060448201526064016104ab565b80600481111561241257612412614957565b60ff1660000361247e57600261242784612f26565b106124745760405162461bcd60e51b815260206004820181905260248201527f4954454d533a20546f6f206d616e7920776561706f6e7320657175697070656460448201526064016104ab565b61247e8383612fa4565b80600481111561249057612490614957565b60ff166001036124fc5760016124a584613037565b106124f25760405162461bcd60e51b815260206004820152601e60248201527f4954454d533a20546f6f206d7563682061726d6f72206571756970706564000060448201526064016104ab565b6124fc83836130a8565b80600481111561250e5761250e614957565b50505050565b600061037e613127565b600080612529613127565b9050306001600160a01b0382160361254f5761254786868686613166565b915050611489565b6040517f8c364d590000000000000000000000000000000000000000000000000000000081526001600160a01b03821690638c364d599061259a908990899089908990600401614bb4565b602060405180830381865afa1580156125b7573d6000803e3d6000fd5b505050506040513d601f19601f8201168201806040525081019061254791906149cd565b606060006125e7613127565b9050306001600160a01b0382160361260c5761260485858561319c565b9150506108f0565b6040517f1e7889770000000000000000000000000000000000000000000000000000000081526001600160a01b03821690631e7889779061265590889088908890600401614be3565b600060405180830381865afa158015612672573d6000803e3d6000fd5b505050506040513d6000823e601f3d908101601f191682016040526126049190810190614c97565b509392505050565b6000818311806126b25750835182115b156126ef578383836040517f23230fa30000000000000000000000000000000000000000000000000000000081526004016104ab93929190614cf8565b602084016126fd8482614d1d565b9050600061270b8585614b71565b6fffffffffffffffffffffffffffffffff1660809290921b9190911795945050505050565b606060006108f083602060006131d6565b6060600060606000612751613127565b9050306001600160a01b0382160361277a5761276e878787613251565b93509350935050612808565b6040517f419b58fd0000000000000000000000000000000000000000000000000000000081526001600160a01b0382169063419b58fd906127c3908a908a908a90600401614d30565b600060405180830381865afa1580156127e0573d6000803e3d6000fd5b505050506040513d6000823e601f3d908101601f1916820160405261276e9190810190614d59565b93509350939050565b61284a6040518060c001604052806000815260200160008152602001600081526020016000815260200160008152602001600081525090565b61285384613359565b60a0870152608086015260608501526040840152602083015281529392505050565b6128bd60405180610100016040528060008152602001600081526020016000815260200160008152602001600081526020016000815260200160008152602001606081525090565b6128c68461339d565b60c088015260a0870152608086015260608501526040840152602083015281526128f083836133eb565b60e08201529392505050565b61292060405180606001604052806000815260200160008152602001606081525090565b61292984613409565b6020830152815261293a83836133eb565b60408201529392505050565b61294e61466a565b6129578461341f565b60e0890181905260c0890182905260a08901839052608089018490526060890185905288602081016040820188600281111561299557612995614957565b60028111156129a6576129a6614957565b90529790975250505093909252509195945050505050565b612a0d6040518061012001604052806000815260200160008152602001600081526020016000815260200160008152602001606081526020016060815260200160608152602001606081525090565b612a168461348d565b60808601526060850152604084015260208301528152612a3683836134c9565b61010085015260e084015260c083015260a08201529392505050565b60408051606080820183526000808352602083015291810191909152612a7784613557565b6020830181905282826004811115612a9157612a91614957565b6004811115612aa257612aa2614957565b815250505061293a8383613582565b612ad560405180606001604052806000815260200160008152602001600081525090565b612ade846135a5565b6040840152602083015281529392505050565b604080516080810182526000808252602082018190529181018290526060810191909152612b1e846135cd565b1515606085015260408401526001600160a01b0316602083015281529392505050565b6060816103ff8160206000613607565b6000612b5b613127565b9050306001600160a01b03821603612b7e57612b798585858561365b565b612bfc565b6040517fef6ea8620000000000000000000000000000000000000000000000000000000081526001600160a01b0382169063ef6ea86290612bc9908890889088908890600401614dc6565b600060405180830381600087803b158015612be357600080fd5b505af1158015612bf7573d6000803e3d6000fd5b505050505b5050505050565b6000612c0d613127565b9050306001600160a01b03821603612c2b57612b7985858585613696565b6040517fd9c03a040000000000000000000000000000000000000000000000000000000081526001600160a01b0382169063d9c03a0490612bc9908890889088908890600401614bb4565b604080516001808252818301909252600091602080830190803683370190505090508281600081518110612cac57612cac614b84565b602002602001018181525050611fd87f7462554400000000000000000000000043686172616374657245717569706d6560001b82600085604051602001612cf591815260200190565b60408051601f198184030181529190527ea00504202020202000000000000000000000000000000000000000000000006136ef565b604080516001808252818301909252600091602080830190803683370190505090508281600081518110612d6057612d60614b84565b602002602001018181525050611fd87f7462554400000000000000000000000043686172616374657245717569706d6560001b82600185604051602001612cf591815260200190565b604080516001808252818301909252600091602080830190803683370190505090508281600081518110612ddf57612ddf614b84565b602002602001018181525050611fd87f7462554400000000000000000000000043686172616374657245717569706d6560001b82600285604051602001612cf591815260200190565b604080516001808252818301909252600091602080830190803683370190505090508281600081518110612e5e57612e5e614b84565b602002602001018181525050611fd87f7462554400000000000000000000000043686172616374657245717569706d6560001b82600385604051602001612cf591815260200190565b604080516001808252818301909252600091602080830190803683370190505090508281600081518110612edd57612edd614b84565b602002602001018181525050611fd87f7462554400000000000000000000000043686172616374657245717569706d6560001b82600485604051602001612cf591815260200190565b604080516001808252818301909252600091829190602080830190803683370190505090508281600081518110612f5f57612f5f614b84565b60209081029190910101526000612f987f7462554400000000000000000000000043686172616374657245717569706d65836001613798565b60209004949350505050565b604080516001808252818301909252600091602080830190803683370190505090508281600081518110612fda57612fda614b84565b602002602001018181525050611fd87f7462554400000000000000000000000043686172616374657245717569706d6560001b8260018560405160200161302391815260200190565b60405160208183030381529060405261384a565b60408051600180825281830190925260009182919060208083019080368337019050509050828160008151811061307057613070614b84565b60209081029190910101526000612f987f7462554400000000000000000000000043686172616374657245717569706d658383613798565b6040805160018082528183019092526000916020808301908036833701905050905082816000815181106130de576130de614b84565b602002602001018181525050611fd87f7462554400000000000000000000000043686172616374657245717569706d6560001b8260008560405160200161302391815260200190565b7f629a4c26e296b22a8e0856e9f6ecb2d1008d7e00081111962cd175fa7488e175546000906001600160a01b031680613161573391505090565b919050565b600061319361317586866138bd565b60ff858116601b0360080285901c1661318e8587613913565b613944565b95945050505050565b60606114896131ac858585613995565b60006131d1856131bc8989613a15565b9060ff166028026038011c64ffffffffff1690565b613a28565b606060006131e48560801c90565b90506fffffffffffffffffffffffffffffffff8516600085828161320a5761320a614e05565b04905060405193506020840160208202810160405281855260005b82811015613245578451871c825293870193602090910190600101613225565b50505050509392505050565b606060006060600061326285613a4b565b905061326f878783613a6e565b9350600061327c86613aa7565b9050801561334e5761328e8888613a15565b935066ffffffffffffff841667ffffffffffffffff8111156132b2576132b2614820565b6040519080825280601f01601f1916602001820160405280156132dc576020820181803683370190505b5092506020830160005b828160ff16101561334b5760006132fe8b8b84613995565b9050600061331b888460ff166028026038011c64ffffffffff1690565b905061332a8260008387613ae4565b6133348185614d1d565b93505050808061334390614e1b565b9150506132e6565b50505b505093509350939050565b600080600080600080613370876000016020015190565b6040880151606089015160808a015160a08b015160c0909b0151939b929a91995097509550909350915050565b60008060008060008060006133b6886000016020015190565b604089015160608a015160808b015160a08c015160c08d015160e0909d0151949d939c929b5090995097509550909350915050565b60606000603884901c64ffffffffff166131936115188584846126a2565b602081015160408201516000905b919391925050565b600080600080600080600080613439896000016020015190565b60408a015160608b0151919950975060f81c600281111561345c5761345c614957565b60618a015160818b015160a18c015160c18d015160e1909d01519b9d9a9c939b929a91995097509195509350915050565b60008060008060006134a3866000016020015190565b60408701516060880151608089015160a090990151929991989097509550909350915050565b60608080806000603887901c64ffffffffff166134ea6115188884846126a2565b955090508064ffffffffff606089901c160161350a6115188884846126a2565b945090508064ffffffffff608889901c160161352a6115188884846126a2565b935090508064ffffffffff60b089901c160161354a6115188884846126a2565b9250505092959194509250565b6020810151600090819060f81c600481111561357557613575614957565b6021840151909250613417565b60606000603884901c64ffffffffff166131936135a08584846126a2565b613bb0565b60008060006135b8846000016020015190565b60408501516060909501519095909350915050565b6000806000806135e1856000016020015190565b6040860151605487015191955060601c9350607486015190925060f81c90509193509193565b825160609060006136188583614e3a565b9050604051925060208301601f19603f83860101166040528184526000602088015b84821015613245578051871b8352918701916001919091019060200161363a565b60006136678585613a15565b90506000613684828560ff166028026038011c64ffffffffff1690565b90506110b98686866000858888613c30565b60006136a28585613a15565b905060006136bf828560ff166028026038011c64ffffffffff1690565b90506110b98686866136d88764ffffffffff8716614b71565b604080516000815260208101909152889088613c30565b60006136f9613127565b9050306001600160a01b0382160361371d57613718868686868661406a565b6110b9565b6040517f390baae00000000000000000000000000000000000000000000000000000000081526001600160a01b0382169063390baae09061376a9089908990899089908990600401614e51565b600060405180830381600087803b15801561378457600080fd5b505af115801561239d573d6000803e3d6000fd5b6000806137a3613127565b9050306001600160a01b038216036137c05761260485858561407f565b6040517fdbbf0e210000000000000000000000000000000000000000000000000000000081526001600160a01b0382169063dbbf0e219061380990889088908890600401614be3565b602060405180830381865afa158015613826573d6000803e3d6000fd5b505050506040513d601f19601f8201168201806040525081019061260491906149cd565b6000613854613127565b9050306001600160a01b0382160361387257612b798585858561408f565b6040517f150f32620000000000000000000000000000000000000000000000000000000081526001600160a01b0382169063150f326290612bc9908890889088908890600401614dc6565b600082826040516020016138d2929190614e98565b60408051601f1981840301815291905280516020909101207f86425bff6b57326c7859e89024fe4f238ca327a1ae4a230180dd2f0e88aaa7d9189392505050565b600080805b8360ff1681101561269a5761393a60ff601b83900360080287901c1683614d1d565b9150600101613918565b60006020821061396a5760208204840193506020828161396657613966614e05565b0691505b508254600882021b60208290038084111561269a576001850154600882021c82179150509392505050565b600083836040516020016139aa929190614e98565b604051602081830303815290604052805190602001208260f81b7effffffffffffffffffffffffffffffffffffffffffffffffffffffffffffff19167f3b4102da22e32d82fc925482184f16c09fd4281692720b87d124aef6da48a0f1181860001c90509392505050565b60006108f0613a2484846140ca565b5490565b60405160208101601f19603f848401011660405282825261269a85858584613ae4565b60006008613a5b60026020614b71565b613a659190614e3a565b9190911c919050565b606081600003613a8d57506040805160208101909152600081526108f0565b6000613a9985856138bd565b905061319381600085613a28565b60006008600180613aba60026020614b71565b613ac49190614b71565b613ace9190614b71565b613ad89190614e3a565b8260ff911c1692915050565b8215613b6b5760208310613b0e57602083048401935060208381613b0a57613b0a614e05565b0692505b8215613b6b576020839003600081841015613b315750600019600884021c613b3b565b50600019600882021c5b8554600886021b818451168219821617845250818411613b5c57505061250e565b50600194909401939182900391015b5b60208210613b8d5783548152600190930192601f1990910190602001613b6c565b811561250e576000600019600884021c8251865482191691161782525050505050565b60606000613bbe8360801c90565b90506fffffffffffffffffffffffffffffffff83168067ffffffffffffffff811115613bec57613bec614820565b6040519080825280601f01601f191660200182016040528015613c16576020820181803683370190505b50925060208301613c28838284614120565b505050919050565b7f7462000000000000000000000000000000000000000000000000000000000000877fffff0000000000000000000000000000000000000000000000000000000000001614613cf0577f74620000000000000000000000000000000000000000000000000000000000008788604051602001613cae91815260200190565b60408051601f19818403018152908290527f31b466830000000000000000000000000000000000000000000000000000000082526104ab939291600401614ed4565b6000613d0b828760ff166028026038011c64ffffffffff1690565b9050600083518564ffffffffff1683613d249190614b71565b613d2e9190614d1d565b9050808214158015613d50575081613d468688614f15565b64ffffffffff1614155b15613da0576040517fa65010b400000000000000000000000000000000000000000000000000000000815264ffffffffff80881660048301528087166024830152831660448201526064016104ab565b818664ffffffffff161115613df1576040517f7e8578d30000000000000000000000000000000000000000000000000000000081526004810183905264ffffffffff871660248201526044016104ab565b6000613dfe84898461416b565b90506000613e0b8b614239565b905060005b8151811015613ed6576000828281518110613e2d57613e2d614b84565b60200260200101519050613e596010826affffffffffffffffffffff19166142c290919063ffffffff16565b15613ecd57606081901c6001600160a01b03166355eb5a288e8e8e8e8e8d8f6040518863ffffffff1660e01b8152600401613e9a9796959493929190614f33565b600060405180830381600087803b158015613eb457600080fd5b505af1158015613ec8573d6000803e3d6000fd5b505050505b50600101613e10565b5064ffffffffff881660005b8a60ff168160ff161015613f1557613f09878260ff166028026038011c64ffffffffff1690565b90910190600101613ee2565b508b7ffe158a7adba34e256807c8a149028d3162918713c3838afc643ce9f96716ebfd8c8c848c888d604051613f5096959493929190614f91565b60405180910390a250828414613f71576000613f6c8c8c6140ca565b839055505b6000613f7e8c8c8c613995565b9050613f92818a64ffffffffff16896142e0565b5060005b815181101561405c576000828281518110613fb357613fb3614b84565b60200260200101519050613fdf6020826affffffffffffffffffffff19166142c290919063ffffffff16565b1561405357606081901c6001600160a01b031663635845338e8e8e8e8e8a8f6040518863ffffffff1660e01b81526004016140209796959493929190614f33565b600060405180830381600087803b15801561403a57600080fd5b505af115801561404e573d6000803e3d6000fd5b505050505b50600101613f96565b505050505050505050505050565b612bfc85856140798487613913565b856142f6565b6000611489826131bc8686613a15565b600061409b8585613a15565b905060006140b8828560ff166028026038011c64ffffffffff1690565b90506110b98686868460008888613c30565b600082826040516020016140df929190614e98565b60408051601f1981840301815291905280516020909101207f14e2fcc58e58e68ec7edc30c8d50dccc3ce2714a623ec81f46b6a63922d76569189392505050565b5b60208110614140578251825260209283019290910190601f1901614121565b8060000361414d57505050565b6000600019600883021c905080835116811985511617835250505050565b600064ffffffffff8211156141af576040517f7149a3c1000000000000000000000000000000000000000000000000000000008152600481018390526024016104ab565b8366ffffffffffffff811660ff851660280260380182901c64ffffffffff168085106141e157808503820191506141e9565b848103820391505b5064ffffffffff6038602860ff8816020181811b197fffffffffffffffffffffffffffffffffffffffffffffffffff000000000000009490941690921792909216918416901b1790509392505050565b6040805160018082528183019092526060916000919060208083019080368337019050509050828160008151811061427357614273614b84565b602090810291909101015260006142ab7f746273746f726500000000000000000053746f7265486f6f6b73000000000000838361319c565b90506114896142bd82600084516126a2565b61459a565b60008160ff16826142d38560581c90565b1660ff1614905092915050565b611fd8838383516142f18560200190565b6145ab565b7f6f74000000000000000000000000000000000000000000000000000000000000847fffff000000000000000000000000000000000000000000000000000000000000160361438057837f8c0b5119d4cec7b284c6b1b39252a03d1e2f2d7451a5895562524c113bb952be84848460405161437393929190614fed565b60405180910390a261250e565b600061438c85856138bd565b9050600061439986614239565b905060005b815181101561446e5760008282815181106143bb576143bb614b84565b602002602001015190506143e76004826affffffffffffffffffffff19166142c290919063ffffffff16565b15614465576040517f964f667d000000000000000000000000000000000000000000000000000000008152606082901c9063964f667d90614432908b908b908b908b90600401615020565b600060405180830381600087803b15801561444c57600080fd5b505af1158015614460573d6000803e3d6000fd5b505050505b5060010161439e565b50857f8c0b5119d4cec7b284c6b1b39252a03d1e2f2d7451a5895562524c113bb952be8686866040516144a393929190614fed565b60405180910390a26144be828565ffffffffffff16856142e0565b60005b81518110156145915760008282815181106144de576144de614b84565b6020026020010151905061450a6008826affffffffffffffffffffff19166142c290919063ffffffff16565b15614588576040517fa8ba8721000000000000000000000000000000000000000000000000000000008152606082901c9063a8ba872190614555908b908b908b908b90600401615020565b600060405180830381600087803b15801561456f57600080fd5b505af1158015614583573d6000803e3d6000fd5b505050505b506001016144c1565b50505050505050565b606060006108f083601560006131d6565b821561462557602083106145d5576020830484019350602083816145d1576145d1614e05565b0692505b82156146255760208390036000600019600885021c1990506008850281811c91508351811c905081198754168282161787555081841161461657505061250e565b50600194909401939182900391015b5b602082106146475780518455600190930192601f1990910190602001614626565b811561250e576000600019600884021c8554835182191691161785555050505050565b60405180610100016040528060008152602001600081526020016000600281111561469757614697614957565b815260200160008152602001600081526020016000815260200160008152602001600081525090565b6000602082840312156146d257600080fd5b81357fffffffff00000000000000000000000000000000000000000000000000000000811681146108f057600080fd5b60006020828403121561471457600080fd5b5035919050565b60008151808452602080850194506020840160005b8381101561474c57815187529582019590820190600101614730565b509495945050505050565b6020815260006108f0602083018461471b565b6020815281516020820152602082015160408201526040820151606082015260608201516080820152608082015160a082015260a082015160c082015260c082015160e0820152600060e083015161010080818501525061148961012084018261471b565b60208152815160208201526020820151604082015260006040830151606080840152611489608084018261471b565b6000806040838503121561481157600080fd5b50508035926020909101359150565b634e487b7160e01b600052604160045260246000fd5b604051610120810167ffffffffffffffff8111828210171561485a5761485a614820565b60405290565b604051601f8201601f1916810167ffffffffffffffff8111828210171561488957614889614820565b604052919050565b600067ffffffffffffffff8211156148ab576148ab614820565b5060051b60200190565b600080604083850312156148c857600080fd5b8235915060208084013567ffffffffffffffff8111156148e757600080fd5b8401601f810186136148f857600080fd5b803561490b61490682614891565b614860565b81815260059190911b8201830190838101908883111561492a57600080fd5b928401925b828410156149485783358252928401929084019061492f565b80955050505050509250929050565b634e487b7160e01b600052602160045260246000fd5b60006020828403121561497f57600080fd5b815180151581146108f057600080fd5b634e487b7160e01b600052601160045260246000fd5b80820182811260008312801582168215821617156149c5576149c561498f565b505092915050565b6000602082840312156149df57600080fd5b5051919050565b80516003811061316157600080fd5b600082601f830112614a0657600080fd5b81516020614a1661490683614891565b8083825260208201915060208460051b870101935086841115614a3857600080fd5b602086015b84811015614a545780518352918301918301614a3d565b509695505050505050565b600060208284031215614a7157600080fd5b815167ffffffffffffffff80821115614a8957600080fd5b908301906101208286031215614a9e57600080fd5b614aa6614836565b8251815260208301516020820152614ac0604084016149e6565b6040820152606083015160608201526080830151608082015260a083015160a082015260c083015182811115614af557600080fd5b614b01878286016149f5565b60c08301525060e083810151908201526101009283015192810192909252509392505050565b600060208284031215614b3957600080fd5b81516001600160a01b03811681146108f057600080fd5b600060208284031215614b6257600080fd5b8151600581106108f057600080fd5b8181038181111561036e5761036e61498f565b634e487b7160e01b600052603260045260246000fd5b60006000198203614bad57614bad61498f565b5060010190565b848152608060208201526000614bcd608083018661471b565b60ff949094166040830152506060015292915050565b838152606060208201526000614bfc606083018561471b565b905060ff83166040830152949350505050565b60005b83811015614c2a578181015183820152602001614c12565b50506000910152565b600082601f830112614c4457600080fd5b815167ffffffffffffffff811115614c5e57614c5e614820565b614c716020601f19601f84011601614860565b818152846020838601011115614c8657600080fd5b611489826020830160208701614c0f565b600060208284031215614ca957600080fd5b815167ffffffffffffffff811115614cc057600080fd5b61148984828501614c33565b60008151808452614ce4816020860160208601614c0f565b601f01601f19169290920160200192915050565b606081526000614d0b6060830186614ccc565b60208301949094525060400152919050565b8082018082111561036e5761036e61498f565b838152606060208201526000614d49606083018561471b565b9050826040830152949350505050565b600080600060608486031215614d6e57600080fd5b835167ffffffffffffffff80821115614d8657600080fd5b614d9287838801614c33565b9450602086015193506040860151915080821115614daf57600080fd5b50614dbc86828701614c33565b9150509250925092565b848152608060208201526000614ddf608083018661471b565b60ff851660408401528281036060840152614dfa8185614ccc565b979650505050505050565b634e487b7160e01b600052601260045260246000fd5b600060ff821660ff8103614e3157614e3161498f565b60010192915050565b808202811582820484141761036e5761036e61498f565b85815260a060208201526000614e6a60a083018761471b565b60ff861660408401528281036060840152614e858186614ccc565b9150508260808301529695505050505050565b8281526000602080830184516020860160005b82811015614ec757815184529284019290840190600101614eab565b5091979650505050505050565b7fffff000000000000000000000000000000000000000000000000000000000000841681528260208201526060604082015260006131936060830184614ccc565b64ffffffffff8181168382160190808211156112275761122761498f565b87815260e060208201526000614f4c60e083018961471b565b60ff8816604084015264ffffffffff87811660608501528616608084015260a0830185905282810360c0840152614f838185614ccc565b9a9950505050505050505050565b60c081526000614fa460c083018961471b565b60ff8816602084015265ffffffffffff8716604084015264ffffffffff8616606084015284608084015282810360a0840152614fe08185614ccc565b9998505050505050505050565b606081526000615000606083018661471b565b65ffffffffffff8516602084015282810360408401526116e38185614ccc565b848152608060208201526000615039608083018661471b565b65ffffffffffff851660408401528281036060840152614dfa8185614ccc56fea26469706673582212208b203ce45caf841ecfd63c5394588ef727de02f16f7d46ad869b5cb7c870221564736f6c63430008180033","linkReferences":{}},"methodIdentifiers":{"_msgSender()":"119df25f","_msgValue()":"45ec9354","_world()":"e1af802c","applyEquipmentBonuses(bytes32)":"9056fa28","checkItemAction(uint256,bytes32)":"eac59d4c","checkRequirements(bytes32,uint256)":"9a8bb9a2","equipItems(bytes32,uint256[])":"cc77a2de","getArmorStats(uint256)":"40a5ed2a","getItemEffects(uint256)":"38a5aae6","getSpellStats(uint256)":"6479f09f","getWeaponStats(uint256)":"63ff2287","isEquipped(bytes32,uint256)":"edcfef82","supportsInterface(bytes4)":"01ffc9a7","unequipItem(bytes32,uint256)":"b2aca84b"},"id":253}