{"abi":[{"type":"function","name":"_msgSender","inputs":[],"outputs":[{"name":"sender","type":"address","internalType":"address"}],"stateMutability":"view"},{"type":"function","name":"_msgValue","inputs":[],"outputs":[{"name":"value","type":"uint256","internalType":"uint256"}],"stateMutability":"pure"},{"type":"function","name":"_world","inputs":[],"outputs":[{"name":"","type":"address","internalType":"address"}],"stateMutability":"view"},{"type":"function","name":"calculateEquipmentBonuses","inputs":[{"name":"entityId","type":"bytes32","internalType":"bytes32"}],"outputs":[{"name":"","type":"tuple","internalType":"struct AdjustedCombatStats","components":[{"name":"strength","type":"int256","internalType":"int256"},{"name":"agility","type":"int256","internalType":"int256"},{"name":"intelligence","type":"int256","internalType":"int256"},{"name":"armor","type":"int256","internalType":"int256"},{"name":"maxHp","type":"int256","internalType":"int256"},{"name":"currentHp","type":"int256","internalType":"int256"}]}],"stateMutability":"view"},{"type":"function","name":"checkItemEffect","inputs":[{"name":"itemId","type":"uint256","internalType":"uint256"},{"name":"effectId","type":"bytes32","internalType":"bytes32"}],"outputs":[{"name":"hasAction","type":"bool","internalType":"bool"}],"stateMutability":"view"},{"type":"function","name":"checkRequirements","inputs":[{"name":"characterId","type":"bytes32","internalType":"bytes32"},{"name":"itemId","type":"uint256","internalType":"uint256"}],"outputs":[{"name":"canUse","type":"bool","internalType":"bool"}],"stateMutability":"view"},{"type":"function","name":"equipItems","inputs":[{"name":"characterId","type":"bytes32","internalType":"bytes32"},{"name":"itemIds","type":"uint256[]","internalType":"uint256[]"}],"outputs":[],"stateMutability":"nonpayable"},{"type":"function","name":"getCombatStats","inputs":[{"name":"entityId","type":"bytes32","internalType":"bytes32"}],"outputs":[{"name":"modifiedStats","type":"tuple","internalType":"struct AdjustedCombatStats","components":[{"name":"strength","type":"int256","internalType":"int256"},{"name":"agility","type":"int256","internalType":"int256"},{"name":"intelligence","type":"int256","internalType":"int256"},{"name":"armor","type":"int256","internalType":"int256"},{"name":"maxHp","type":"int256","internalType":"int256"},{"name":"currentHp","type":"int256","internalType":"int256"}]}],"stateMutability":"view"},{"type":"function","name":"getItemEffects","inputs":[{"name":"itemId","type":"uint256","internalType":"uint256"}],"outputs":[{"name":"effects","type":"bytes32[]","internalType":"bytes32[]"}],"stateMutability":"view"},{"type":"function","name":"isEquipped","inputs":[{"name":"characterId","type":"bytes32","internalType":"bytes32"},{"name":"itemId","type":"uint256","internalType":"uint256"}],"outputs":[{"name":"_isEquipped","type":"bool","internalType":"bool"}],"stateMutability":"view"},{"type":"function","name":"supportsInterface","inputs":[{"name":"interfaceId","type":"bytes4","internalType":"bytes4"}],"outputs":[{"name":"","type":"bool","internalType":"bool"}],"stateMutability":"pure"},{"type":"function","name":"unequipItem","inputs":[{"name":"characterId","type":"bytes32","internalType":"bytes32"},{"name":"itemId","type":"uint256","internalType":"uint256"}],"outputs":[{"name":"success","type":"bool","internalType":"bool"}],"stateMutability":"nonpayable"},{"type":"event","name":"Store_SetRecord","inputs":[{"name":"tableId","type":"bytes32","indexed":true,"internalType":"ResourceId"},{"name":"keyTuple","type":"bytes32[]","indexed":false,"internalType":"bytes32[]"},{"name":"staticData","type":"bytes","indexed":false,"internalType":"bytes"},{"name":"encodedLengths","type":"bytes32","indexed":false,"internalType":"EncodedLengths"},{"name":"dynamicData","type":"bytes","indexed":false,"internalType":"bytes"}],"anonymous":false},{"type":"event","name":"Store_SpliceDynamicData","inputs":[{"name":"tableId","type":"bytes32","indexed":true,"internalType":"ResourceId"},{"name":"keyTuple","type":"bytes32[]","indexed":false,"internalType":"bytes32[]"},{"name":"dynamicFieldIndex","type":"uint8","indexed":false,"internalType":"uint8"},{"name":"start","type":"uint48","indexed":false,"internalType":"uint48"},{"name":"deleteCount","type":"uint40","indexed":false,"internalType":"uint40"},{"name":"encodedLengths","type":"bytes32","indexed":false,"internalType":"EncodedLengths"},{"name":"data","type":"bytes","indexed":false,"internalType":"bytes"}],"anonymous":false},{"type":"error","name":"EncodedLengths_InvalidLength","inputs":[{"name":"length","type":"uint256","internalType":"uint256"}]},{"type":"error","name":"Slice_OutOfBounds","inputs":[{"name":"data","type":"bytes","internalType":"bytes"},{"name":"start","type":"uint256","internalType":"uint256"},{"name":"end","type":"uint256","internalType":"uint256"}]},{"type":"error","name":"Store_IndexOutOfBounds","inputs":[{"name":"length","type":"uint256","internalType":"uint256"},{"name":"accessedIndex","type":"uint256","internalType":"uint256"}]},{"type":"error","name":"Store_InvalidResourceType","inputs":[{"name":"expected","type":"bytes2","internalType":"bytes2"},{"name":"resourceId","type":"bytes32","internalType":"ResourceId"},{"name":"resourceIdString","type":"string","internalType":"string"}]},{"type":"error","name":"Store_InvalidSplice","inputs":[{"name":"startWithinField","type":"uint40","internalType":"uint40"},{"name":"deleteCount","type":"uint40","internalType":"uint40"},{"name":"fieldLength","type":"uint40","internalType":"uint40"}]}],"bytecode":{"object":"0x608060405234801561001057600080fd5b5061598280620000216000396000f3fe608060405234801561001057600080fd5b50600436106100d45760003560e01c80639a8bb9a211610081578063d99508f21161005b578063d99508f2146101c2578063e1af802c146101d5578063edcfef82146101dd57600080fd5b80639a8bb9a214610187578063b2aca84b1461019a578063cc77a2de146101ad57600080fd5b806338a5aae6116100b257806338a5aae61461013457806345ec9354146101545780638bcc358e1461016757600080fd5b806301ffc9a7146100d95780630254f24b14610101578063119df25f14610114575b600080fd5b6100ec6100e7366004614e56565b6101f0565b60405190151581526020015b60405180910390f35b6100ec61010f366004614e98565b610289565b61011c6103ef565b6040516001600160a01b0390911681526020016100f8565b610147610142366004614eba565b6103fe565b6040516100f89190614f0f565b604051601f1936013581526020016100f8565b61017a610175366004614eba565b610483565b6040516100f89190614f22565b6100ec610195366004614e98565b6106bc565b6100ec6101a8366004614e98565b610903565b6101c06101bb36600461501d565b610e87565b005b61017a6101d0366004614eba565b6112a2565b61011c6113fd565b6100ec6101eb366004614e98565b611407565b60007fffffffff0000000000000000000000000000000000000000000000000000000082167fb5dee12700000000000000000000000000000000000000000000000000000000148061028357507fffffffff0000000000000000000000000000000000000000000000000000000082167f01ffc9a700000000000000000000000000000000000000000000000000000000145b92915050565b600080610295846115cd565b905060008160048111156102ab576102ab6150bf565b0361030b5760006102bb85611681565b905060005b8151811015610304578181815181106102db576102db6150d5565b602002602001015185036102f25760019350610304565b806102fc81615101565b9150506102c0565b50506103e8565b600281600481111561031f5761031f6150bf565b0361037857600061032f8561170d565b905060005b81518110156103045781818151811061034f5761034f6150d5565b602002602001015185036103665760019350610304565b8061037081615101565b915050610334565b600381600481111561038c5761038c6150bf565b036103e857600061039c85611782565b905060005b81518110156103e5578181815181106103bc576103bc6150d5565b602002602001015185036103d357600193506103e5565b806103dd81615101565b9150506103a1565b50505b5092915050565b60006103f96117f7565b905090565b6060600061040b836115cd565b90506000816004811115610421576104216150bf565b036104365761042f83611681565b915061047d565b600281600481111561044a5761044a6150bf565b036104585761042f8361170d565b600381600481111561046c5761046c6150bf565b0361047d5761047a83611782565b91505b50919050565b6104bc6040518060c001604052806000815260200160008152602001600081526020016000815260200160008152602001600081525090565b6104c46113fd565b6001600160a01b031663fa1becc4836040518263ffffffff1660e01b81526004016104f191815260200190565b602060405180830381865afa15801561050e573d6000803e3d6000fd5b505050506040513d601f19601f82011682018060405250810190610532919061511b565b1561057957600061054283611829565b8051835260208082015190840152606081015160408401529050610565836118db565b606083015260809081015190820152919050565b6105816113fd565b6001600160a01b031663bace814a836040518263ffffffff1660e01b81526004016105ae91815260200190565b602060405180830381865afa1580156105cb573d6000803e3d6000fd5b505050506040513d601f19601f820116820180604052508101906105ef919061511b565b1561066a576105fc6113fd565b6001600160a01b0316638e7c4d16836040518263ffffffff1660e01b815260040161062991815260200190565b60c060405180830381865afa158015610646573d6000803e3d6000fd5b505050506040513d601f19601f82011682018060405250810190610283919061513d565b60405162461bcd60e51b815260206004820152600f60248201527f756e7265636f676e697a6564206964000000000000000000000000000000000060448201526064015b60405180910390fd5b919050565b6000806106c88361196d565b905060006106d585611a3c565b8060200190518101906106e89190615197565b905060006106f585611aaf565b905060008351600481111561070c5761070c6150bf565b0361077857600061071c86611b76565b60e08401516020850151845192909110159250600191131561073c575060005b83516040840151131561074d575060005b836060015183602001511315610761575060005b81801561076b5750805b1561077557600195505b50505b60018351600481111561078d5761078d6150bf565b036107f957600061079d86611c0b565b60e0840151602085015184519290911015925060019113156107bd575060005b8351604084015113156107ce575060005b8360600151836020015113156107e2575060005b8180156107ec5750805b156107f657600195505b50505b60028351600481111561080e5761080e6150bf565b0361087a57600061081e86611ca0565b60e08401516020850151845192909110159250600191131561083e575060005b83516040840151131561084f575060005b836060015183602001511315610863575060005b81801561086d5750805b1561087757600195505b50505b60038351600481111561088f5761088f6150bf565b036103e557600061089f86611d35565b60e0840151602085015184519290911015925060019113156108bf575060005b8351604084015113156108d0575060005b8360600151836020015113156108e4575060005b8180156108ee5750805b156108f857600195505b505050505092915050565b600082600061091182611dca565b905080606001516109645760405162461bcd60e51b815260206004820152601960248201527f436861726163746572206e6f7420696e207468652047616d650000000000000060448201526064016106ae565b600061096e6113fd565b6001600160a01b031663777c2caf876040518263ffffffff1660e01b815260040161099b91815260200190565b602060405180830381865afa1580156109b8573d6000803e3d6000fd5b505050506040513d601f19601f820116820180604052508101906109dc9190615215565b90506109e66103ef565b6001600160a01b0316816001600160a01b031614610a465760405162461bcd60e51b815260206004820152601e60248201527f45515549504d454e543a204e6f7420436861726163746572204f776e6572000060448201526064016106ae565b610a508686611407565b610a9c5760405162461bcd60e51b815260206004820152601760248201527f45515549504d454e543a204e4f5420455155495050454400000000000000000060448201526064016106ae565b610aa46113fd565b6001600160a01b03166385fcd3bd876040518263ffffffff1660e01b8152600401610ad191815260200190565b602060405180830381865afa158015610aee573d6000803e3d6000fd5b505050506040513d601f19601f82011682018060405250810190610b12919061511b565b15610b5f5760405162461bcd60e51b815260206004820152601f60248201527f43616e6e6f7420756e2d6571756970206974656d7320696e20636f6d6261740060448201526064016106ae565b6000610b696113fd565b6001600160a01b031663cdaccbae876040518263ffffffff1660e01b8152600401610b9691815260200190565b602060405180830381865afa158015610bb3573d6000803e3d6000fd5b505050506040513d601f19601f82011682018060405250810190610bd7919061523e565b90506000816004811115610bed57610bed6150bf565b03610c53576000610c0687610c018a611eb1565b611f24565b9050868160018351610c18919061525f565b81518110610c2857610c286150d5565b602002602001015103610c4d57610c3f8882611ff3565b610c488861206e565b600195505b50610e04565b6001816004811115610c6757610c676150bf565b03610cbd576000610c7b87610c018a6120e5565b9050868160018351610c8d919061525f565b81518110610c9d57610c9d6150d5565b602002602001015103610c4d57610cb48882612157565b610c48886121c8565b6002816004811115610cd157610cd16150bf565b03610d2c576000610cea87610ce58a61223b565b6122ae565b9050868160018351610cfc919061525f565b81518110610d0c57610d0c6150d5565b602002602001015103610c4d57610d238882612392565b610c4888612403565b6003816004811115610d4057610d406150bf565b03610d96576000610d5487610ce58a612476565b9050868160018351610d66919061525f565b81518110610d7657610d766150d5565b602002602001015103610c4d57610d8d88826124e9565b610c488861255a565b60405162461bcd60e51b815260206004820152602160248201527f45515549504d454e543a20554e5245434f474e495a4544204954454d2054595060448201527f450000000000000000000000000000000000000000000000000000000000000060648201526084016106ae565b610e0d876125cd565b50610e166113fd565b6001600160a01b0316638e9fa2ef88610e2e8a6112a2565b6040518363ffffffff1660e01b8152600401610e4b929190615272565b600060405180830381600087803b158015610e6557600080fd5b505af1158015610e79573d6000803e3d6000fd5b505050505050505092915050565b816000610e9382611dca565b90508060600151610ee65760405162461bcd60e51b815260206004820152601960248201527f436861726163746572206e6f7420696e207468652047616d650000000000000060448201526064016106ae565b6000610ef06113fd565b6001600160a01b031663777c2caf866040518263ffffffff1660e01b8152600401610f1d91815260200190565b602060405180830381865afa158015610f3a573d6000803e3d6000fd5b505050506040513d601f19601f82011682018060405250810190610f5e9190615215565b9050610f686103ef565b6001600160a01b0316816001600160a01b031614610fc85760405162461bcd60e51b815260206004820152601e60248201527f45515549504d454e543a204e6f7420436861726163746572204f776e6572000060448201526064016106ae565b610fd06113fd565b6001600160a01b03166385fcd3bd866040518263ffffffff1660e01b8152600401610ffd91815260200190565b602060405180830381865afa15801561101a573d6000803e3d6000fd5b505050506040513d601f19601f8201168201806040525081019061103e919061511b565b1561108b5760405162461bcd60e51b815260206004820152601c60248201527f43616e6e6f74206571756970206974656d7320696e20636f6d6261740000000060448201526064016106ae565b6000805b8551811015611220578581815181106110aa576110aa6150d5565b602002602001015191506110bc6113fd565b6001600160a01b031663b3634118836110d36103ef565b6040517fffffffff0000000000000000000000000000000000000000000000000000000060e085901b16815260048101929092526001600160a01b03166024820152604401602060405180830381865afa158015611135573d6000803e3d6000fd5b505050506040513d601f19601f82011682018060405250810190611159919061511b565b6111a55760405162461bcd60e51b815260206004820152601960248201527f45515549504d454e543a204e6f74204974656d204f776e65720000000000000060448201526064016106ae565b60006111b08361196d565b90506111bc88846106bc565b6112085760405162461bcd60e51b815260206004820152601f60248201527f45515549504d454e543a20526571756972656d656e7473206e6f74206d65740060448201526064016106ae565b61121788848360000151612939565b5060010161108f565b5061122a866125cd565b506112336113fd565b6001600160a01b0316638e9fa2ef8761124b896112a2565b6040518363ffffffff1660e01b8152600401611268929190615272565b600060405180830381600087803b15801561128257600080fd5b505af1158015611296573d6000803e3d6000fd5b50505050505050505050565b6112db6040518060c001604052806000815260200160008152602001600081526020016000815260200160008152602001600081525090565b60006112e683610483565b90506112f06113fd565b6001600160a01b031663fa1becc4846040518263ffffffff1660e01b815260040161131d91815260200190565b602060405180830381865afa15801561133a573d6000803e3d6000fd5b505050506040513d601f19601f8201168201806040525081019061135e919061511b565b1561028357600061136e84611a3c565b8060200190518101906113819190615197565b9050600061138e85612b28565b8051835191925061139e916152bb565b8352602080820151908301516113b491906152bb565b6020840152604081015160608301516113cd91906152bb565b6040840152606081015160808301516113e691906152bb565b608080850191909152015160608301525092915050565b60006103f9612c17565b6000806114138361196d565b905060008151600481111561142a5761142a6150bf565b0361148357600061143a85611eb1565b905060005b8151811015610304578482828151811061145b5761145b6150d5565b6020026020010151036114715760019350610304565b8061147b81615101565b91505061143f565b600181516004811115611498576114986150bf565b036114f15760006114a8856120e5565b905060005b815181101561030457848282815181106114c9576114c96150d5565b6020026020010151036114df5760019350610304565b806114e981615101565b9150506114ad565b600281516004811115611506576115066150bf565b0361155f5760006115168561223b565b905060005b81518110156103045784828281518110611537576115376150d5565b60200260200101510361154d5760019350610304565b8061155781615101565b91505061151b565b600381516004811115611574576115746150bf565b03610d9657600061158485612476565b905060005b815181101561030457848282815181106115a5576115a56150d5565b6020026020010151036115bb5760019350610304565b806115c581615101565b915050611589565b604080516001808252818301909252600091829190602080830190803683370190505090508260001b81600081518110611609576116096150d5565b602090810291909101015260006116617f746255440000000000000000000000004974656d73000000000000000000000083837e41030101202000000000000000000000000000000000000000000000000000612c21565b905060f881901c6004811115611679576116796150bf565b949350505050565b60408051600180825281830190925260609160009190602080830190803683370190505090508260001b816000815181106116be576116be6150d5565b602090810291909101015260006116f67f74625544000000000000000000000000576561706f6e537461747300000000008383612cde565b90506116796117088260008451612da4565b612e32565b60408051600180825281830190925260609160009190602080830190803683370190505090508260001b8160008151811061174a5761174a6150d5565b602090810291909101015260006116f67f746255440000000000000000000000005370656c6c53746174730000000000008383612cde565b60408051600180825281830190925260609160009190602080830190803683370190505090508260001b816000815181106117bf576117bf6150d5565b602090810291909101015260006116f67f74625544000000000000000000000000436f6e73756d61626c655374617473008383612cde565b7fffffffffffffffffffffffffffffffffffffffffffffffffffffffffffffffcc36013560601c806118265750335b90565b611831614e00565b604080516001808252818301909252600091602080830190803683370190505090508281600081518110611867576118676150d5565b6020908102919091010152600080806118c07f7462554400000000000000000000000053746174730000000000000000000000857ee1080020200120202020200000000000000000000000000000000000000000612e43565b9250925092506118d1838383612f13565b9695505050505050565b604080516001808252818301909252600091829190602080830190803683370190505090508281600081518110611914576119146150d5565b602090810291909101015260006116797f7462554400000000000000000000000043686172616374657245717569706d658360047ea0050420202020200000000000000000000000000000000000000000000000612c21565b611999604080516080810190915280600081526020016000815260200160008152602001606081525090565b604080516001808252818301909252600091602080830190803683370190505090508260001b816000815181106119d2576119d26150d5565b602090810291909101015260008080611a2b7f746255440000000000000000000000004974656d730000000000000000000000857e41030101202000000000000000000000000000000000000000000000000000612e43565b9250925092506118d1838383612f8b565b60408051600180825281830190925260609160009190602080830190803683370190505090508281600081518110611a7657611a766150d5565b602090810291909101015260006116797f7462554400000000000000000000000043686172616374657273000000000000836001612cde565b611ad360405180606001604052806000815260200160008152602001600081525090565b604080516001808252818301909252600091602080830190803683370190505090508260001b81600081518110611b0c57611b0c6150d5565b602090810291909101015260008080611b657f74625544000000000000000000000000537461745265737472696374696f6e73857e60030020202000000000000000000000000000000000000000000000000000612e43565b9250925092506118d183838361300e565b604080516001808252818301909252600091829190602080830190803683370190505090508260001b81600081518110611bb257611bb26150d5565b602090810291909101015260006116797f74625544000000000000000000000000576561706f6e537461747300000000008360057ee0070120202020202020000000000000000000000000000000000000000000612c21565b604080516001808252818301909252600091829190602080830190803683370190505090508260001b81600081518110611c4757611c476150d5565b602090810291909101015260006116797f7462554400000000000000000000000041726d6f7253746174730000000000008360047ec0060020202020202000000000000000000000000000000000000000000000612c21565b604080516001808252818301909252600091829190602080830190803683370190505090508260001b81600081518110611cdc57611cdc6150d5565b602090810291909101015260006116797f746255440000000000000000000000005370656c6c53746174730000000000008360027e60030120202000000000000000000000000000000000000000000000000000612c21565b604080516001808252818301909252600091829190602080830190803683370190505090508260001b81600081518110611d7157611d716150d5565b602090810291909101015260006116797f74625544000000000000000000000000436f6e73756d61626c655374617473008360027e60030120202000000000000000000000000000000000000000000000000000612c21565b611e116040518060c001604052806000815260200160006001600160a01b031681526020016000801916815260200160001515815260200160608152602001606081525090565b604080516001808252818301909252600091602080830190803683370190505090508281600081518110611e4757611e476150d5565b602090810291909101015260008080611ea07f7462554400000000000000000000000043686172616374657273000000000000857e55040220142001000000000000000000000000000000000000000000000000612e43565b9250925092506118d183838361304e565b60408051600180825281830190925260609160009190602080830190803683370190505090508281600081518110611eeb57611eeb6150d5565b602090810291909101015260006116f67f7462554400000000000000000000000043686172616374657245717569706d65836001612cde565b606060018251111561047d5760005b8251811015611fed5783838281518110611f4f57611f4f6150d5565b602002602001015103611fdb5760008360018551611f6d919061525f565b81518110611f7d57611f7d6150d5565b6020026020010151905080848381518110611f9a57611f9a6150d5565b602002602001018181525050848460018651611fb6919061525f565b81518110611fc657611fc66150d5565b60200260200101818152505083925050611fed565b80611fe581615101565b915050611f33565b50610283565b604080516001808252818301909252600091602080830190803683370190505090508281600081518110612029576120296150d5565b60209081029190910101526120697f7462554400000000000000000000000043686172616374657245717569706d65826001612064866130d5565b6130e5565b505050565b6040805160018082528183019092526000916020808301908036833701905050905081816000815181106120a4576120a46150d5565b6020026020010181815250506120e17f7462554400000000000000000000000043686172616374657245717569706d6560001b8260016020613197565b5050565b6040805160018082528183019092526060916000919060208083019080368337019050509050828160008151811061211f5761211f6150d5565b602090810291909101015260006116f67f7462554400000000000000000000000043686172616374657245717569706d658383612cde565b60408051600180825281830190925260009160208083019080368337019050509050828160008151811061218d5761218d6150d5565b60209081029190910101526120697f7462554400000000000000000000000043686172616374657245717569706d65826000612064866130d5565b6040805160018082528183019092526000916020808301908036833701905050905081816000815181106121fe576121fe6150d5565b6020026020010181815250506120e17f7462554400000000000000000000000043686172616374657245717569706d6560001b8260006020613197565b60408051600180825281830190925260609160009190602080830190803683370190505090508281600081518110612275576122756150d5565b602090810291909101015260006116f67f7462554400000000000000000000000043686172616374657245717569706d65836002612cde565b60608160005b815181101561238a57848282815181106122d0576122d06150d5565b60200260200101510361238257805b825181101561237c5782516122f58260016152e3565b101561234257826123078260016152e3565b81518110612317576123176150d5565b6020026020010151838281518110612331576123316150d5565b602002602001018181525050612374565b825161234f8260016152e3565b106123745785838281518110612367576123676150d5565b6020026020010181815250505b6001016122df565b5061238a565b6001016122b4565b509392505050565b6040805160018082528183019092526000916020808301908036833701905050905082816000815181106123c8576123c86150d5565b60209081029190910101526120697f7462554400000000000000000000000043686172616374657245717569706d65826002612064866130d5565b604080516001808252818301909252600091602080830190803683370190505090508181600081518110612439576124396150d5565b6020026020010181815250506120e17f7462554400000000000000000000000043686172616374657245717569706d6560001b8260026020613197565b604080516001808252818301909252606091600091906020808301908036833701905050905082816000815181106124b0576124b06150d5565b602090810291909101015260006116f67f7462554400000000000000000000000043686172616374657245717569706d65836003612cde565b60408051600180825281830190925260009160208083019080368337019050509050828160008151811061251f5761251f6150d5565b60209081029190910101526120697f7462554400000000000000000000000043686172616374657245717569706d65826003612064866130d5565b604080516001808252818301909252600091602080830190803683370190505090508181600081518110612590576125906150d5565b6020026020010181815250506120e17f7462554400000000000000000000000043686172616374657245717569706d6560001b8260036020613197565b61261c6040518061012001604052806000815260200160008152602001600081526020016000815260200160008152602001606081526020016060815260200160608152602001606081525090565b600061262783612b28565b90506126626040518060c001604052806000815260200160008152602001600081526020016000815260200160008152602001600081525090565b6126aa60405180610100016040528060008152602001600081526020016000815260200160008152602001600081526020016000815260200160008152602001606081525090565b60a083015151156127dc5760005b8360a00151518110156127da576126cd6113fd565b6001600160a01b031663e75aa93b8560a0015183815181106126f1576126f16150d5565b60200260200101516040518263ffffffff1660e01b815260040161271791815260200190565b60c060405180830381865afa158015612734573d6000803e3d6000fd5b505050506040513d601f19601f82011682018060405250810190612758919061513d565b925082602001518560800181815161277091906152bb565b90525060a0830151855186906127879083906152bb565b905250825160208601805161279d9083906152bb565b90525060608301516040860180516127b69083906152bb565b90525060408301516060860180516127cf9083906152bb565b9052506001016126b8565b505b60c083015151156128fb5760005b8360c00151518110156128f9576127ff6113fd565b6001600160a01b031663810c1dc18560c001518381518110612823576128236150d5565b60200260200101516040518263ffffffff1660e01b815260040161284991815260200190565b600060405180830381865afa158015612866573d6000803e3d6000fd5b505050506040513d6000823e601f3d908101601f1916820160405261288e9190810190615360565b91508160c00151856000018181516128a691906152bb565b90525081516020860180516128bc9083906152bb565b90525060208201516040860180516128d59083906152bb565b90525060408201516060860180516128ee9083906152bb565b9052506001016127ea565b505b8351835260208085015190840152604080850151908401526060808501519084015260808085015190840152612931858461320a565b505050919050565b6129438383611407565b156129905760405162461bcd60e51b815260206004820152601b60248201527f45515549504d454e543a20414c5245414459204551554950504544000000000060448201526064016106ae565b60008061299c85613321565b1180156129ba575060018260048111156129b8576129b86150bf565b145b15612a075760405162461bcd60e51b815260206004820152601560248201527f416c72656164792077656172696e672061726d6f72000000000000000000000060448201526064016106ae565b612a108461339e565b612a1a90826152e3565b9050612a2584613410565b612a2f90826152e3565b9050612a3a84613482565b612a4490826152e3565b905060048110612a965760405162461bcd60e51b815260206004820152601760248201527f746f6f206d616e79206974656d7320657175697070656400000000000000000060448201526064016106ae565b6000826004811115612aaa57612aaa6150bf565b03612ab957612ab984846134f4565b6001826004811115612acd57612acd6150bf565b03612adc57612adc8484613587565b6002826004811115612af057612af06150bf565b03612aff57612aff8484613606565b6003826004811115612b1357612b136150bf565b03612b2257612b228484613685565b50505050565b612b776040518061012001604052806000815260200160008152602001600081526020016000815260200160008152602001606081526020016060815260200160608152602001606081525090565b604080516001808252818301909252600091602080830190803683370190505090508281600081518110612bad57612bad6150d5565b602090810291909101015260008080612c067f7462554400000000000000000000000043686172616374657245717569706d65857ea0050420202020200000000000000000000000000000000000000000000000612e43565b9250925092506118d1838383613704565b60006103f9613798565b600080612c2c613798565b9050306001600160a01b03821603612c5257612c4a868686866137d2565b915050611679565b6040517f8c364d590000000000000000000000000000000000000000000000000000000081526001600160a01b03821690638c364d5990612c9d908990899089908990600401615414565b602060405180830381865afa158015612cba573d6000803e3d6000fd5b505050506040513d601f19601f82011682018060405250810190612c4a9190615443565b60606000612cea613798565b9050306001600160a01b03821603612d0f57612d07858585613808565b915050612d9d565b6040517f1e7889770000000000000000000000000000000000000000000000000000000081526001600160a01b03821690631e78897790612d589088908890889060040161545c565b600060405180830381865afa158015612d75573d6000803e3d6000fd5b505050506040513d6000823e601f3d908101601f19168201604052612d079190810190615510565b9392505050565b600081831180612db45750835182115b15612df1578383836040517f23230fa30000000000000000000000000000000000000000000000000000000081526004016106ae93929190615571565b60208401612dff84826152e3565b90506000612e0d858561525f565b6fffffffffffffffffffffffffffffffff1660809290921b9190911795945050505050565b60606000612d9d8360206000613842565b6060600060606000612e53613798565b9050306001600160a01b03821603612e7c57612e708787876138bd565b93509350935050612f0a565b6040517f419b58fd0000000000000000000000000000000000000000000000000000000081526001600160a01b0382169063419b58fd90612ec5908a908a908a90600401615596565b600060405180830381865afa158015612ee2573d6000803e3d6000fd5b505050506040513d6000823e601f3d908101601f19168201604052612e7091908101906155bf565b93509350939050565b612f1b614e00565b612f24846139c5565b60e0890181905260c0890182905260a089018390526080890184905260608901859052886020810160408201886002811115612f6257612f626150bf565b6002811115612f7357612f736150bf565b90529790975250505093909252509195945050505050565b612fb7604080516080810190915280600081526020016000815260200160008152602001606081525090565b612fc084613a33565b604084018190526020840182905283836004811115612fe157612fe16150bf565b6004811115612ff257612ff26150bf565b8152505050506130028383613a72565b60608201529392505050565b61303260405180606001604052806000815260200160008152602001600081525090565b61303b84613a95565b6040840152602083015281529392505050565b6130956040518060c001604052806000815260200160006001600160a01b031681526020016000801916815260200160001515815260200160608152602001606081525090565b61309e84613abc565b1515606085015260408401526001600160a01b0316602083015281526130c48383613af6565b60a083015260808201529392505050565b60608161047a8160206000613b40565b60006130ef613798565b9050306001600160a01b038216036131125761310d85858585613b94565b613190565b6040517fef6ea8620000000000000000000000000000000000000000000000000000000081526001600160a01b0382169063ef6ea8629061315d90889088908890889060040161562c565b600060405180830381600087803b15801561317757600080fd5b505af115801561318b573d6000803e3d6000fd5b505050505b5050505050565b60006131a1613798565b9050306001600160a01b038216036131bf5761310d85858585613bcf565b6040517fd9c03a040000000000000000000000000000000000000000000000000000000081526001600160a01b0382169063d9c03a049061315d908890889088908890600401615414565b600061326582600001518360200151846040015185606001518660800151604080516020810196909652858101949094526060850192909252608084015260a0808401919091528151808403909101815260c0909201905290565b905060006132868360a001518460c001518560e00151866101000151613c28565b905060006132a78460a001518560c001518660e00151876101000151613c68565b604080516001808252818301909252919250600091906020808301908036833701905050905085816000815181106132e1576132e16150d5565b60209081029190910101526133197f7462554400000000000000000000000043686172616374657245717569706d6582868686613cba565b505050505050565b60408051600180825281830190925260009182919060208083019080368337019050509050828160008151811061335a5761335a6150d5565b602090810291909101015260006133927f7462554400000000000000000000000043686172616374657245717569706d658383613d35565b60209004949350505050565b6040805160018082528183019092526000918291906020808301908036833701905050905082816000815181106133d7576133d76150d5565b602090810291909101015260006133927f7462554400000000000000000000000043686172616374657245717569706d65836001613d35565b604080516001808252818301909252600091829190602080830190803683370190505090508281600081518110613449576134496150d5565b602090810291909101015260006133927f7462554400000000000000000000000043686172616374657245717569706d65836002613d35565b6040805160018082528183019092526000918291906020808301908036833701905050905082816000815181106134bb576134bb6150d5565b602090810291909101015260006133927f7462554400000000000000000000000043686172616374657245717569706d65836003613d35565b60408051600180825281830190925260009160208083019080368337019050509050828160008151811061352a5761352a6150d5565b6020026020010181815250506120697f7462554400000000000000000000000043686172616374657245717569706d6560001b8260018560405160200161357391815260200190565b604051602081830303815290604052613de7565b6040805160018082528183019092526000916020808301908036833701905050905082816000815181106135bd576135bd6150d5565b6020026020010181815250506120697f7462554400000000000000000000000043686172616374657245717569706d6560001b8260008560405160200161357391815260200190565b60408051600180825281830190925260009160208083019080368337019050509050828160008151811061363c5761363c6150d5565b6020026020010181815250506120697f7462554400000000000000000000000043686172616374657245717569706d6560001b8260028560405160200161357391815260200190565b6040805160018082528183019092526000916020808301908036833701905050905082816000815181106136bb576136bb6150d5565b6020026020010181815250506120697f7462554400000000000000000000000043686172616374657245717569706d6560001b8260038560405160200161357391815260200190565b6137536040518061012001604052806000815260200160008152602001600081526020016000815260200160008152602001606081526020016060815260200160608152602001606081525090565b61375c84613e5a565b6080860152606085015260408401526020830152815261377c8383613e96565b61010085015260e084015260c083015260a08201529392505050565b7f629a4c26e296b22a8e0856e9f6ecb2d1008d7e00081111962cd175fa7488e175546000906001600160a01b0316806106b7573391505090565b60006137ff6137e18686613f24565b60ff858116601b0360080285901c166137fa8587613f7a565b613fab565b95945050505050565b6060611679613818858585613ffc565b600061383d85613828898961407c565b9060ff166028026038011c64ffffffffff1690565b61408f565b606060006138508560801c90565b90506fffffffffffffffffffffffffffffffff851660008582816138765761387661566b565b04905060405193506020840160208202810160405281855260005b828110156138b1578451871c825293870193602090910190600101613891565b50505050509392505050565b60606000606060006138ce856140b2565b90506138db8787836140d5565b935060006138e88661410e565b905080156139ba576138fa888861407c565b935066ffffffffffffff841667ffffffffffffffff81111561391e5761391e614f65565b6040519080825280601f01601f191660200182016040528015613948576020820181803683370190505b5092506020830160005b828160ff1610156139b757600061396a8b8b84613ffc565b90506000613987888460ff166028026038011c64ffffffffff1690565b9050613996826000838761414b565b6139a081856152e3565b9350505080806139af90615681565b915050613952565b50505b505093509350939050565b6000806000806000806000806139df896000016020015190565b60408a015160608b0151919950975060f81c6002811115613a0257613a026150bf565b60618a015160818b015160a18c015160c18d015160e1909d01519b9d9a9c939b929a91995097509195509350915050565b6000806000613a46846000016020015190565b60f81c6004811115613a5a57613a5a6150bf565b6021850151604186015191945092505b929491935050565b60606000603884901c64ffffffffff166137ff613a90858484612da4565b614217565b6000806000613aa8846000016020015190565b604085015160608601519194509250613a6a565b600080600080613ad0856000016020015190565b6040860151605487015191955060601c9350607486015190925060f81c90509193509193565b6060806000603885901c64ffffffffff16613b15613a90868484612da4565b935090508064ffffffffff606087901c1601613b35613a90868484612da4565b925050509250929050565b82516060906000613b5185836156a0565b9050604051925060208301601f19603f83860101166040528184526000602088015b848210156138b1578051871b83529187019160019190910190602001613b73565b6000613ba0858561407c565b90506000613bbd828560ff166028026038011c64ffffffffff1690565b9050613319868686600085888861428f565b6000613bdb858561407c565b90506000613bf8828560ff166028026038011c64ffffffffff1690565b9050613319868686613c118764ffffffffff871661525f565b60408051600081526020810190915288908861428f565b60006137ff855160200285516020028551602002855160200260b081901b608883901b606085901b603887901b8787018601850117171717949350505050565b6060613c73856130d5565b613c7c856130d5565b613c85856130d5565b613c8e856130d5565b604051602001613ca194939291906156b7565b6040516020818303038152906040529050949350505050565b6000613cc4613798565b9050306001600160a01b03821603613ce857613ce386868686866146c9565b613319565b6040517f298314fb0000000000000000000000000000000000000000000000000000000081526001600160a01b0382169063298314fb90611268908990899089908990899060040161570e565b600080613d40613798565b9050306001600160a01b03821603613d5d57612d078585856146df565b6040517fdbbf0e210000000000000000000000000000000000000000000000000000000081526001600160a01b0382169063dbbf0e2190613da69088908890889060040161545c565b602060405180830381865afa158015613dc3573d6000803e3d6000fd5b505050506040513d601f19601f82011682018060405250810190612d079190615443565b6000613df1613798565b9050306001600160a01b03821603613e0f5761310d858585856146ef565b6040517f150f32620000000000000000000000000000000000000000000000000000000081526001600160a01b0382169063150f32629061315d90889088908890889060040161562c565b6000806000806000613e70866000016020015190565b60408701516060880151608089015160a090990151929991989097509550909350915050565b60608080806000603887901c64ffffffffff16613eb7611708888484612da4565b955090508064ffffffffff606089901c1601613ed7611708888484612da4565b945090508064ffffffffff608889901c1601613ef7611708888484612da4565b935090508064ffffffffff60b089901c1601613f17611708888484612da4565b9250505092959194509250565b60008282604051602001613f3992919061575f565b60408051601f1981840301815291905280516020909101207f86425bff6b57326c7859e89024fe4f238ca327a1ae4a230180dd2f0e88aaa7d9189392505050565b600080805b8360ff1681101561238a57613fa160ff601b83900360080287901c16836152e3565b9150600101613f7f565b600060208210613fd157602082048401935060208281613fcd57613fcd61566b565b0691505b508254600882021b60208290038084111561238a576001850154600882021c82179150509392505050565b6000838360405160200161401192919061575f565b604051602081830303815290604052805190602001208260f81b7effffffffffffffffffffffffffffffffffffffffffffffffffffffffffffff19167f3b4102da22e32d82fc925482184f16c09fd4281692720b87d124aef6da48a0f1181860001c90509392505050565b6000612d9d61408b848461472a565b5490565b60405160208101601f19603f848401011660405282825261238a8585858461414b565b600060086140c26002602061525f565b6140cc91906156a0565b9190911c919050565b6060816000036140f45750604080516020810190915260008152612d9d565b60006141008585613f24565b90506137ff8160008561408f565b600060086001806141216002602061525f565b61412b919061525f565b614135919061525f565b61413f91906156a0565b8260ff911c1692915050565b82156141d25760208310614175576020830484019350602083816141715761417161566b565b0692505b82156141d25760208390036000818410156141985750600019600884021c6141a2565b50600019600882021c5b8554600886021b8184511682198216178452508184116141c3575050612b22565b50600194909401939182900391015b5b602082106141f45783548152600190930192601f19909101906020016141d3565b8115612b22576000600019600884021c8251865482191691161782525050505050565b606060006142258360801c90565b90506fffffffffffffffffffffffffffffffff83168067ffffffffffffffff81111561425357614253614f65565b6040519080825280601f01601f19166020018201604052801561427d576020820181803683370190505b50925060208301612931838284614780565b7f7462000000000000000000000000000000000000000000000000000000000000877fffff000000000000000000000000000000000000000000000000000000000000161461434f577f7462000000000000000000000000000000000000000000000000000000000000878860405160200161430d91815260200190565b60408051601f19818403018152908290527f31b466830000000000000000000000000000000000000000000000000000000082526106ae93929160040161579b565b600061436a828760ff166028026038011c64ffffffffff1690565b9050600083518564ffffffffff1683614383919061525f565b61438d91906152e3565b90508082141580156143af5750816143a586886157dc565b64ffffffffff1614155b156143ff576040517fa65010b400000000000000000000000000000000000000000000000000000000815264ffffffffff80881660048301528087166024830152831660448201526064016106ae565b818664ffffffffff161115614450576040517f7e8578d30000000000000000000000000000000000000000000000000000000081526004810183905264ffffffffff871660248201526044016106ae565b600061445d8489846147cb565b9050600061446a8b614899565b905060005b815181101561453557600082828151811061448c5761448c6150d5565b602002602001015190506144b86010826affffffffffffffffffffff191661492290919063ffffffff16565b1561452c57606081901c6001600160a01b03166355eb5a288e8e8e8e8e8d8f6040518863ffffffff1660e01b81526004016144f997969594939291906157fa565b600060405180830381600087803b15801561451357600080fd5b505af1158015614527573d6000803e3d6000fd5b505050505b5060010161446f565b5064ffffffffff881660005b8a60ff168160ff16101561457457614568878260ff166028026038011c64ffffffffff1690565b90910190600101614541565b508b7ffe158a7adba34e256807c8a149028d3162918713c3838afc643ce9f96716ebfd8c8c848c888d6040516145af96959493929190615858565b60405180910390a2508284146145d05760006145cb8c8c61472a565b839055505b60006145dd8c8c8c613ffc565b90506145f1818a64ffffffffff1689614940565b5060005b81518110156146bb576000828281518110614612576146126150d5565b6020026020010151905061463e6020826affffffffffffffffffffff191661492290919063ffffffff16565b156146b257606081901c6001600160a01b031663635845338e8e8e8e8e8a8f6040518863ffffffff1660e01b815260040161467f97969594939291906157fa565b600060405180830381600087803b15801561469957600080fd5b505af11580156146ad573d6000803e3d6000fd5b505050505b506001016145f5565b505050505050505050505050565b61319085858585856146da8b614956565b6149db565b600061167982613828868661407c565b60006146fb858561407c565b90506000614718828560ff166028026038011c64ffffffffff1690565b9050613319868686846000888861428f565b6000828260405160200161473f92919061575f565b60408051601f1981840301815291905280516020909101207f14e2fcc58e58e68ec7edc30c8d50dccc3ce2714a623ec81f46b6a63922d76569189392505050565b5b602081106147a0578251825260209283019290910190601f1901614781565b806000036147ad57505050565b6000600019600883021c905080835116811985511617835250505050565b600064ffffffffff82111561480f576040517f7149a3c1000000000000000000000000000000000000000000000000000000008152600481018390526024016106ae565b8366ffffffffffffff811660ff851660280260380182901c64ffffffffff168085106148415780850382019150614849565b848103820391505b5064ffffffffff6038602860ff8816020181811b197fffffffffffffffffffffffffffffffffffffffffffffffffff000000000000009490941690921792909216918416901b1790509392505050565b604080516001808252818301909252606091600091906020808301908036833701905050905082816000815181106148d3576148d36150d5565b6020908102919091010152600061490b7f746273746f726500000000000000000053746f7265486f6f6b730000000000008383613808565b905061167961491d8260008451612da4565b614d14565b60008160ff16826149338560581c90565b1660ff1614905092915050565b612069838383516149518560200190565b614d25565b60007f8b9d8c8b908d9affffffffffffffffffab9e9d939a8d0000000000000000000082016149a557507e60030220202000000000000000000000000000000000000000000000000000919050565b6102836149d27f746273746f72650000000000000000005461626c65730000000000000000000084614de4565b60206000613fab565b7f6f74000000000000000000000000000000000000000000000000000000000000867fffff0000000000000000000000000000000000000000000000000000000000001603614a6757857f8dbb3a9672eebfd3773e72dd9c102393436816d832c7ba9e1e1ac8fcadcac7a986868686604051614a5a94939291906158b4565b60405180910390a2613319565b6000614a7287614899565b905060005b8151811015614b4b576000828281518110614a9457614a946150d5565b60200260200101519050614ac06001826affffffffffffffffffffff191661492290919063ffffffff16565b15614b42576040517f57066c9c000000000000000000000000000000000000000000000000000000008152606082901c906357066c9c90614b0f908c908c908c908c908c908c906004016158f3565b600060405180830381600087803b158015614b2957600080fd5b505af1158015614b3d573d6000803e3d6000fd5b505050505b50600101614a77565b50867f8dbb3a9672eebfd3773e72dd9c102393436816d832c7ba9e1e1ac8fcadcac7a987878787604051614b8294939291906158b4565b60405180910390a26000614b968888613f24565b90506000602087019050614bae826000895184614d25565b6000614bb98561410e565b1115614c3d576000614bcb8a8a61472a565b878155905060208601915060008060005b614be58861410e565b8160ff161015614c3857614bfa8d8d83613ffc565b9250614c158a8260ff166028026038011c64ffffffffff1690565b9150614c248360008488614d25565b614c2e82866152e3565b9450600101614bdc565b505050505b60005b8351811015611296576000848281518110614c5d57614c5d6150d5565b60200260200101519050614c896002826affffffffffffffffffffff191661492290919063ffffffff16565b15614d0b576040517f5b28cdaf000000000000000000000000000000000000000000000000000000008152606082901c90635b28cdaf90614cd8908e908e908e908e908e908e906004016158f3565b600060405180830381600087803b158015614cf257600080fd5b505af1158015614d06573d6000803e3d6000fd5b505050505b50600101614c40565b60606000612d9d8360156000613842565b8215614d9f5760208310614d4f57602083048401935060208381614d4b57614d4b61566b565b0692505b8215614d9f5760208390036000600019600885021c1990506008850281811c91508351811c9050811987541682821617875550818411614d90575050612b22565b50600194909401939182900391015b5b60208210614dc15780518455600190930192601f1990910190602001614da0565b8115612b22576000600019600884021c8554835182191691161785555050505050565b6040805160208101849052908101829052600090606001613f39565b604051806101000160405280600081526020016000815260200160006002811115614e2d57614e2d6150bf565b815260200160008152602001600081526020016000815260200160008152602001600081525090565b600060208284031215614e6857600080fd5b81357fffffffff0000000000000000000000000000000000000000000000000000000081168114612d9d57600080fd5b60008060408385031215614eab57600080fd5b50508035926020909101359150565b600060208284031215614ecc57600080fd5b5035919050565b60008151808452602080850194506020840160005b83811015614f0457815187529582019590820190600101614ee8565b509495945050505050565b602081526000612d9d6020830184614ed3565b60c081016102838284805182526020810151602083015260408101516040830152606081015160608301526080810151608083015260a081015160a08301525050565b634e487b7160e01b600052604160045260246000fd5b60405160c0810167ffffffffffffffff81118282101715614f9e57614f9e614f65565b60405290565b604051610100810167ffffffffffffffff81118282101715614f9e57614f9e614f65565b604051601f8201601f1916810167ffffffffffffffff81118282101715614ff157614ff1614f65565b604052919050565b600067ffffffffffffffff82111561501357615013614f65565b5060051b60200190565b6000806040838503121561503057600080fd5b8235915060208084013567ffffffffffffffff81111561504f57600080fd5b8401601f8101861361506057600080fd5b803561507361506e82614ff9565b614fc8565b81815260059190911b8201830190838101908883111561509257600080fd5b928401925b828410156150b057833582529284019290840190615097565b80955050505050509250929050565b634e487b7160e01b600052602160045260246000fd5b634e487b7160e01b600052603260045260246000fd5b634e487b7160e01b600052601160045260246000fd5b60006000198203615114576151146150eb565b5060010190565b60006020828403121561512d57600080fd5b81518015158114612d9d57600080fd5b600060c0828403121561514f57600080fd5b615157614f7b565b825181526020830151602082015260408301516040820152606083015160608201526080830151608082015260a083015160a08201528091505092915050565b600061010082840312156151aa57600080fd5b6151b2614fa4565b82518152602083015160208201526040830151600381106151d257600080fd5b80604083015250606083015160608201526080830151608082015260a083015160a082015260c083015160c082015260e083015160e08201528091505092915050565b60006020828403121561522757600080fd5b81516001600160a01b0381168114612d9d57600080fd5b60006020828403121561525057600080fd5b815160058110612d9d57600080fd5b81810381811115610283576102836150eb565b82815260e08101612d9d6020830184805182526020810151602083015260408101516040830152606081015160608301526080810151608083015260a081015160a08301525050565b80820182811260008312801582168215821617156152db576152db6150eb565b505092915050565b80820180821115610283576102836150eb565b600082601f83011261530757600080fd5b8151602061531761506e83614ff9565b8083825260208201915060208460051b87010193508684111561533957600080fd5b602086015b84811015615355578051835291830191830161533e565b509695505050505050565b60006020828403121561537257600080fd5b815167ffffffffffffffff8082111561538a57600080fd5b90830190610100828603121561539f57600080fd5b6153a7614fa4565b825181526020830151602082015260408301516040820152606083015160608201526080830151608082015260a083015160a082015260c083015160c082015260e0830151828111156153f957600080fd5b615405878286016152f6565b60e08301525095945050505050565b84815260806020820152600061542d6080830186614ed3565b60ff949094166040830152506060015292915050565b60006020828403121561545557600080fd5b5051919050565b8381526060602082015260006154756060830185614ed3565b905060ff83166040830152949350505050565b60005b838110156154a357818101518382015260200161548b565b50506000910152565b600082601f8301126154bd57600080fd5b815167ffffffffffffffff8111156154d7576154d7614f65565b6154ea6020601f19601f84011601614fc8565b8181528460208386010111156154ff57600080fd5b611679826020830160208701615488565b60006020828403121561552257600080fd5b815167ffffffffffffffff81111561553957600080fd5b611679848285016154ac565b6000815180845261555d816020860160208601615488565b601f01601f19169290920160200192915050565b6060815260006155846060830186615545565b60208301949094525060400152919050565b8381526060602082015260006155af6060830185614ed3565b9050826040830152949350505050565b6000806000606084860312156155d457600080fd5b835167ffffffffffffffff808211156155ec57600080fd5b6155f8878388016154ac565b945060208601519350604086015191508082111561561557600080fd5b50615622868287016154ac565b9150509250925092565b8481526080602082015260006156456080830186614ed3565b60ff8516604084015282810360608401526156608185615545565b979650505050505050565b634e487b7160e01b600052601260045260246000fd5b600060ff821660ff8103615697576156976150eb565b60010192915050565b8082028115828204841417610283576102836150eb565b600085516156c9818460208a01615488565b8551908301906156dd818360208a01615488565b85519101906156f0818360208901615488565b8451910190615703818360208801615488565b019695505050505050565b85815260a06020820152600061572760a0830187614ed3565b82810360408401526157398187615545565b905084606084015282810360808401526157538185615545565b98975050505050505050565b8281526000602080830184516020860160005b8281101561578e57815184529284019290840190600101615772565b5091979650505050505050565b7fffff000000000000000000000000000000000000000000000000000000000000841681528260208201526060604082015260006137ff6060830184615545565b64ffffffffff8181168382160190808211156103e8576103e86150eb565b87815260e06020820152600061581360e0830189614ed3565b60ff8816604084015264ffffffffff87811660608501528616608084015260a0830185905282810360c084015261584a8185615545565b9a9950505050505050505050565b60c08152600061586b60c0830189614ed3565b60ff8816602084015265ffffffffffff8716604084015264ffffffffff8616606084015284608084015282810360a08401526158a78185615545565b9998505050505050505050565b6080815260006158c76080830187614ed3565b82810360208401526158d98187615545565b905084604084015282810360608401526156608185615545565b86815260c06020820152600061590c60c0830188614ed3565b828103604084015261591e8188615545565b905085606084015282810360808401526159388186615545565b9150508260a083015297965050505050505056fea2646970667358221220364400d43596e6dd0bfa4016b1fd0bf468ed74498df379a076c70c7b0d727a6564736f6c63430008180033","linkReferences":{}},"methodIdentifiers":{"_msgSender()":"119df25f","_msgValue()":"45ec9354","_world()":"e1af802c","calculateEquipmentBonuses(bytes32)":"d99508f2","checkItemEffect(uint256,bytes32)":"0254f24b","checkRequirements(bytes32,uint256)":"9a8bb9a2","equipItems(bytes32,uint256[])":"cc77a2de","getCombatStats(bytes32)":"8bcc358e","getItemEffects(uint256)":"38a5aae6","isEquipped(bytes32,uint256)":"edcfef82","supportsInterface(bytes4)":"01ffc9a7","unequipItem(bytes32,uint256)":"b2aca84b"},"id":229}