{"abi":[{"type":"function","name":"_msgSender","inputs":[],"outputs":[{"name":"sender","type":"address","internalType":"address"}],"stateMutability":"view"},{"type":"function","name":"_msgValue","inputs":[],"outputs":[{"name":"value","type":"uint256","internalType":"uint256"}],"stateMutability":"view"},{"type":"function","name":"_world","inputs":[],"outputs":[{"name":"","type":"address","internalType":"address"}],"stateMutability":"view"},{"type":"function","name":"calculateEquipmentBonuses","inputs":[{"name":"entityId","type":"bytes32","internalType":"bytes32"}],"outputs":[{"name":"","type":"tuple","internalType":"struct AdjustedCombatStats","components":[{"name":"strength","type":"int256","internalType":"int256"},{"name":"agility","type":"int256","internalType":"int256"},{"name":"intelligence","type":"int256","internalType":"int256"},{"name":"armor","type":"int256","internalType":"int256"},{"name":"maxHp","type":"int256","internalType":"int256"},{"name":"currentHp","type":"int256","internalType":"int256"}]}],"stateMutability":"view"},{"type":"function","name":"checkItemEffect","inputs":[{"name":"itemId","type":"uint256","internalType":"uint256"},{"name":"effectId","type":"bytes32","internalType":"bytes32"}],"outputs":[{"name":"hasAction","type":"bool","internalType":"bool"}],"stateMutability":"view"},{"type":"function","name":"checkRequirements","inputs":[{"name":"characterId","type":"bytes32","internalType":"bytes32"},{"name":"itemId","type":"uint256","internalType":"uint256"}],"outputs":[{"name":"canUse","type":"bool","internalType":"bool"}],"stateMutability":"view"},{"type":"function","name":"equipItems","inputs":[{"name":"characterId","type":"bytes32","internalType":"bytes32"},{"name":"itemIds","type":"uint256[]","internalType":"uint256[]"}],"outputs":[],"stateMutability":"nonpayable"},{"type":"function","name":"getCombatStats","inputs":[{"name":"entityId","type":"bytes32","internalType":"bytes32"}],"outputs":[{"name":"modifiedStats","type":"tuple","internalType":"struct AdjustedCombatStats","components":[{"name":"strength","type":"int256","internalType":"int256"},{"name":"agility","type":"int256","internalType":"int256"},{"name":"intelligence","type":"int256","internalType":"int256"},{"name":"armor","type":"int256","internalType":"int256"},{"name":"maxHp","type":"int256","internalType":"int256"},{"name":"currentHp","type":"int256","internalType":"int256"}]}],"stateMutability":"view"},{"type":"function","name":"getItemEffects","inputs":[{"name":"itemId","type":"uint256","internalType":"uint256"}],"outputs":[{"name":"effects","type":"bytes32[]","internalType":"bytes32[]"}],"stateMutability":"view"},{"type":"function","name":"isEquipped","inputs":[{"name":"characterId","type":"bytes32","internalType":"bytes32"},{"name":"itemId","type":"uint256","internalType":"uint256"}],"outputs":[{"name":"_isEquipped","type":"bool","internalType":"bool"}],"stateMutability":"view"},{"type":"function","name":"supportsInterface","inputs":[{"name":"interfaceId","type":"bytes4","internalType":"bytes4"}],"outputs":[{"name":"","type":"bool","internalType":"bool"}],"stateMutability":"pure"},{"type":"function","name":"unequipItem","inputs":[{"name":"characterId","type":"bytes32","internalType":"bytes32"},{"name":"itemId","type":"uint256","internalType":"uint256"}],"outputs":[{"name":"success","type":"bool","internalType":"bool"}],"stateMutability":"nonpayable"},{"type":"event","name":"Store_SpliceDynamicData","inputs":[{"name":"tableId","type":"bytes32","indexed":true,"internalType":"ResourceId"},{"name":"keyTuple","type":"bytes32[]","indexed":false,"internalType":"bytes32[]"},{"name":"dynamicFieldIndex","type":"uint8","indexed":false,"internalType":"uint8"},{"name":"start","type":"uint48","indexed":false,"internalType":"uint48"},{"name":"deleteCount","type":"uint40","indexed":false,"internalType":"uint40"},{"name":"encodedLengths","type":"bytes32","indexed":false,"internalType":"EncodedLengths"},{"name":"data","type":"bytes","indexed":false,"internalType":"bytes"}],"anonymous":false},{"type":"error","name":"EncodedLengths_InvalidLength","inputs":[{"name":"length","type":"uint256","internalType":"uint256"}]},{"type":"error","name":"GamePaused","inputs":[]},{"type":"error","name":"Slice_OutOfBounds","inputs":[{"name":"data","type":"bytes","internalType":"bytes"},{"name":"start","type":"uint256","internalType":"uint256"},{"name":"end","type":"uint256","internalType":"uint256"}]},{"type":"error","name":"Store_IndexOutOfBounds","inputs":[{"name":"length","type":"uint256","internalType":"uint256"},{"name":"accessedIndex","type":"uint256","internalType":"uint256"}]},{"type":"error","name":"Store_InvalidResourceType","inputs":[{"name":"expected","type":"bytes2","internalType":"bytes2"},{"name":"resourceId","type":"bytes32","internalType":"ResourceId"},{"name":"resourceIdString","type":"string","internalType":"string"}]},{"type":"error","name":"Store_InvalidSplice","inputs":[{"name":"startWithinField","type":"uint40","internalType":"uint40"},{"name":"deleteCount","type":"uint40","internalType":"uint40"},{"name":"fieldLength","type":"uint40","internalType":"uint40"}]}],"bytecode":{"object":"0x6080806040523461001657614d12908161001b8239f35b5f80fdfe60806040526004361015610011575f80fd5b5f3560e01c806301ffc9a7146100d45780630254f24b146100cf578063119df25f146100ca57806338a5aae6146100c557806345ec9354146100c05780638bcc358e146100bb5780639a8bb9a2146100b6578063b2aca84b146100b1578063cc77a2de146100ac578063d99508f2146100a7578063e1af802c146100a25763edcfef821461009d575f80fd5b610bde565b610bc4565b610ba6565b610b18565b610583565b61038a565b61035d565b610307565b610293565b610234565b61012e565b3461012a57602036600319011261012a5760043563ffffffff60e01b811680910361012a5760209063b5dee12760e01b8114908115610119575b506040519015158152f35b6301ffc9a760e01b1490505f61010e565b5f80fd5b3461012a57604036600319011261012a575f60243560043561014f81611990565b61015881610c1d565b806101bd5750610167906119eb565b5f5b81518110156101b15761017c8183610c3b565b5183146101915761018c90610c68565b610169565b505050506101ad60015b60405190151581529081906020820190565b0390f35b5050506101ad9061019b565b806101c9600392610c1d565b146101da575b50506101ad9061019b565b6101e3906119ba565b5f5b815181101561021e576101f88183610c3b565b51831461020d5761020890610c68565b6101e5565b505050506101ad60015b905f6101cf565b5050506101ad90610217565b5f91031261012a57565b3461012a575f36600319011261012a57602061024e611a0f565b6040516001600160a01b039091168152f35b9081518082526020808093019301915f5b82811061027f575050505090565b835185529381019392810192600101610271565b3461012a57602036600319011261012a5760043560606102b282611990565b916006831015610302576101ad92806102e457506102d091506119eb565b604051918291602083526020830190610260565b6003146102f2575b506102d0565b6102fc91506119ba565b5f6102ec565b610c09565b3461012a575f36600319011261012a576020604051601f193601358152f35b60a0809180518452602081015160208501526040810151604085015260608101516060850152608081015160808501520151910152565b3461012a57602036600319011261012a5760c061037b600435610d2a565b6103886040518092610326565bf35b3461012a57604036600319011261012a575f6024356103a881611bbd565b6103b3600435611c43565b916103c983519360208080968301019101610ef3565b906103d381611c8e565b9280516103df81610c1d565b6103e881610c1d565b15610517575b600181516103fb81610c1d565b61040481610c1d565b146104ab575b6003905161041781610c1d565b61042081610c1d565b14610433575b6040518515158152602090f35b61044160e083015191611d18565b111592600192805182840151126104a3575b604081015183511261049b575b90606091015191015112610494575b8161048c575b50610484575b5f808080610426565b50600161047b565b90505f610475565b505f61046f565b5f9350610460565b5f9350610453565b60e08301516104b983611cfb565b1115600185518786015112610510575b6040860151855112610509575b86860151606086015112610502575b816104fa575b501561040a576001955061040a565b90505f6104eb565b505f6104e5565b505f6104d6565b505f6104c9565b60e083015161052583611cde565b111560018551878601511261057c575b6040860151855112610575575b8686015160608601511261056e575b81610566575b50156103ee57600195506103ee565b90505f610557565b505f610551565b505f610542565b505f610535565b3461012a5760408060031936011261012a576004908135906024356105b560606105ac85611d65565b01511515610fb6565b5f906105bf611e04565b6105d96105cd6105cd612fc8565b6001600160a01b031690565b835163777c2caf60e01b815286810186815260209492859183919082908190850103915afa80156108595761063f915f91610a14575b5061063061061b611a0f565b6001600160a01b038381169082161492611e3a565b15158115610a0c575b5061101d565b61065161064c8387611803565b611069565b61065f6105cd6105cd612fc8565b83855180926385fcd3bd60e01b825281806106818b8d83019190602083019252565b03915afa80156108595761069d915f916109ef575b50156110af565b6106ab6105cd6105cd612fc8565b9083855180936366d665d760e11b825281806106ce888d83019190602083019252565b03915afa80156108595784925f916109c2575b506106eb81610c1d565b806108c35750506107215f926107056105cd6105cd612fc8565b908651948580948193630115e1e760e71b83528b8d840161117f565b03925af1918215610859575f92610896575b505091825b610749575b81518315158152602090f35b6107576105cd6105cd612fc8565b936107666105cd6105cd612fc8565b91835195869363a543a0c560e01b855260c0948591818061078e878983019190602083019252565b03915afa968715610859575f97610877575b50803b1561012a578451638e9fa2ef60e01b8152965f9188918290849082906107cc90888a8401611190565b03925af19182156108595761081196849361085e575b506107f16105cd6105cd612fc8565b905f865180998195829463ad54c98b60e01b845283019190602083019252565b03925af1938415610859576101ad9461082b575b5061073d565b8161084a92903d10610852575b6108428183610abe565b810190610cda565b505f80610825565b503d610838565b610ccf565b8061086b61087192610a55565b8061022a565b5f6107e2565b61088f919750843d8611610852576108428183610abe565b955f6107a0565b6108b59250803d106108bc575b6108ad8183610abe565b810190610cb8565b5f80610733565b503d6108a3565b9091506108cf81610c1d565b60018103610941575050816109095f926108ed6105cd6105cd612fc8565b908651948580948193631cb16e8360e11b83528b8d840161117f565b03925af1918215610859575f92610924575b50509182610738565b61093a9250803d106108bc576108ad8183610abe565b5f8061091b565b60039195935061095081610c1d565b036109a75761096761096183611e92565b82611ed1565b9061097b6109758351611155565b83610c3b565b5114610989575b5082610738565b81610995929450611f67565b61099e82611fdb565b6001915f610982565b825162461bcd60e51b8152806109be818801611113565b0390fd5b6109e29150833d85116109e8575b6109da8183610abe565b8101906110fb565b5f6106e1565b503d6109d0565b610a069150853d87116108bc576108ad8183610abe565b5f610696565b90505f610639565b610a349150853d8711610a3a575b610a2c8183610abe565b810190610ffe565b5f61060f565b503d610a22565b634e487b7160e01b5f52604160045260245ffd5b6001600160401b038111610a6857604052565b610a41565b60c081019081106001600160401b03821117610a6857604052565b604081019081106001600160401b03821117610a6857604052565b602081019081106001600160401b03821117610a6857604052565b601f909101601f19168101906001600160401b03821190821017610a6857604052565b604051906101a082016001600160401b03811183821017610a6857604052565b6001600160401b038111610a685760051b60200190565b3461012a57604036600319011261012a576024356001600160401b03811161012a573660238201121561012a57806004013590610b5482610b01565b90610b626040519283610abe565b8282526020926024602084019160051b8301019136831161012a57602401905b828210610b9757610b95846004356111a8565b005b81358152908401908401610b82565b3461012a57602036600319011261012a5760c061037b60043561173e565b3461012a575f36600319011261012a57602061024e612fc8565b3461012a57604036600319011261012a576020610bff602435600435611803565b6040519015158152f35b634e487b7160e01b5f52602160045260245ffd5b6006111561030257565b634e487b7160e01b5f52603260045260245ffd5b8051821015610c4f5760209160051b010190565b610c27565b634e487b7160e01b5f52601160045260245ffd5b5f198114610c765760010190565b610c54565b60405190610c8882610a6d565b5f60a0838281528260208201528260408201528260608201528260808201520152565b5190811515820361012a57565b9081602091031261012a57610ccc90610cab565b90565b6040513d5f823e3d90fd5b908160c091031261012a5760a060405191610cf483610a6d565b8051835260208101516020840152604081015160408401526060810151606084015260808101516080840152015160a082015290565b90610d33610c7b565b91610d426105cd6105cd612fc8565b604051633e86fb3160e21b815260048101839052602092918390829060249082905afa908115610859575f91610eaf575b5015610db35790610da582610d89608094611a26565b9283518752808401519087015260608301516040870152611b6c565b606085015201516080830152565b919250610dc46105cd6105cd612fc8565b604051635d6740a560e11b815260048101849052908290829060249082905afa918215610859575f92610e92575b505015610e5b5760c0610e2d91610e0d6105cd6105cd612fc8565b604051808095819463473e268b60e11b8352600483019190602083019252565b03915afa908115610859575f91610e42575090565b610ccc915060c03d60c011610852576108428183610abe565b60405162461bcd60e51b815260206004820152600f60248201526e1d5b9c9958dbd9db9a5e9959081a59608a1b6044820152606490fd5b610ea89250803d106108bc576108ad8183610abe565b5f80610df2565b610ec69150833d85116108bc576108ad8183610abe565b5f610d73565b5190600382101561012a57565b5190600482101561012a57565b5190600a82101561012a57565b90816101a091031261012a57610f07610ae1565b908051825260208101516020830152610f2260408201610ecc565b6040830152606081015160608301526080810151608083015260a081015160a083015260c081015160c083015260e081015160e0830152610100610f67818301610ed9565b90830152610120610f79818301610ed9565b90830152610140610f8b818301610ed9565b90830152610160610f9d818301610ee6565b90830152610faf610180809201610cab565b9082015290565b15610fbd57565b60405162461bcd60e51b8152602060048201526019602482015278436861726163746572206e6f7420696e207468652047616d6560381b6044820152606490fd5b9081602091031261012a57516001600160a01b038116810361012a5790565b1561102457565b60405162461bcd60e51b815260206004820152601e60248201527f45515549504d454e543a204e6f7420436861726163746572204f776e657200006044820152606490fd5b1561107057565b60405162461bcd60e51b81526020600482015260176024820152761154555254135153950e881393d5081154555254141151604a1b6044820152606490fd5b156110b657565b60405162461bcd60e51b815260206004820152601f60248201527f43616e6e6f7420756e2d6571756970206974656d7320696e20636f6d626174006044820152606490fd5b9081602091031261012a5751600681101561012a5790565b60809060208152602160208201527f45515549504d454e543a20554e5245434f474e495a4544204954454d205459506040820152604560f81b60608201520190565b5f19810191908211610c7657565b601f19810191908211610c7657565b91908203918211610c7657565b908152602081019190915260400190565b90815260e0810192916111a69160200190610326565b565b91906111b860606105ac85611d65565b6111c0611e04565b6111ce6105cd6105cd612fc8565b9060409384519163777c2caf60e01b8352602090818460049681806111fa888b83019190602083019252565b03915afa938415610859575f946115d2575b50611232611218611a0f565b6001600160a01b0386811690821614906106309087611e3a565b6112406105cd6105cd612fc8565b82885180926385fcd3bd60e01b82528180611262898c83019190602083019252565b03915afa80156108595761127e915f916115b5575b50156115f1565b5f5b815181101561148d576112938183610c3b565b516112da84878b848b6112aa6105cd6105cd612fc8565b925163166c682360e31b81529081019182526001600160a01b039093166020820152919384928391829160400190565b03915afa8015610859576112f5915f91611470575b5061163c565b6112fe81611990565b61130781610c1d565b8061137457509061131c6105cd6105cd612fc8565b803b1561012a57611346925f9187838b8e5197889586948593635aa0cc2f60e01b8552840161117f565b03925af191821561085957600192611361575b505b01611280565b8061086b61136e92610a55565b5f611359565b61137d81610c1d565b600181036113eb5750906113956105cd6105cd612fc8565b803b1561012a576113bf925f9187838b8e519788958694859363273957c560e21b8552840161117f565b03925af1918215610859576001926113d8575b5061135b565b8061086b6113e592610a55565b5f6113d2565b806113f7600392610c1d565b0361142757906114228261141c6114176114136001968a611803565b1590565b611684565b86612085565b61135b565b885162461bcd60e51b81526020818901818152818101919091527f45515549504d454e543a20556e737570706f72746564206974656d2074797065604082015281906060010390fd5b6114879150863d88116108bc576108ad8183610abe565b5f6112ef565b50505092939190506114a36105cd6105cd612fc8565b926114b26105cd6105cd612fc8565b835163a543a0c560e01b815283810183815260c09691959287918791908290819060200103915afa948515610859575f95611596575b50803b1561012a578151638e9fa2ef60e01b8152945f91869182908490829061151490898b8401611190565b03925af192831561085957611558948694611583575b505f61153a6105cd6105cd612fc8565b925180968195829463ad54c98b60e01b845283019190602083019252565b03925af180156108595761156a575050565b8161158092903d10610852576108428183610abe565b50565b8061086b61159092610a55565b5f61152a565b6115ae919550863d8811610852576108428183610abe565b935f6114e8565b6115cc9150843d86116108bc576108ad8183610abe565b5f611277565b6115ea919450823d8411610a3a57610a2c8183610abe565b925f61120c565b156115f857565b60405162461bcd60e51b815260206004820152601c60248201527b10d85b9b9bdd08195c5d5a5c081a5d195b5cc81a5b8818dbdb58985d60221b6044820152606490fd5b1561164357565b60405162461bcd60e51b815260206004820152601960248201527822a8aaa4a826a2a72a1d102737ba1024ba32b69027bbb732b960391b6044820152606490fd5b1561168b57565b60405162461bcd60e51b815260206004820152601b60248201527a1154555254135153950e8810531491505116481154555254141151602a1b6044820152606490fd5b604051906101a082016001600160401b03811183821017610a68576040525f610180838281528260208201528260408201528260608201528260808201528260a08201528260c08201528260e0820152826101008201528261012082015282610140820152826101608201520152565b611746610c7b565b5061175081610d2a565b9061175f6105cd6105cd612fc8565b604051633e86fb3160e21b81526004810183905290602090829060249082905afa908115610859575f916117e4575b50611797575090565b610ccc91506117a581611c43565b6117ad6116ce565b508051156117d7576117cb816020806117d194518301019101610ef3565b91612175565b9061221d565b506117d16117cb82611a26565b6117fd915060203d6020116108bc576108ad8183610abe565b5f61178e565b905f9161180f82611bbd565b805161181a81610c1d565b61182381610c1d565b61186a5750611831906122ac565b5f5b815181101561186457826118478284610c3b565b511461185b5761185690610c68565b611833565b50505050600190565b50505090565b909160019282959495519261187e84610c1d565b61188784610c1d565b849384036118ec575061189b919250612288565b5f835b6118a9575b50505050565b81518110156118e757826118bd8284610c3b565b51146118d757906118cf849392610c68565b90919261189e565b505050909150905f8080806118a3565b6118a3565b6003919350516118fb81610c1d565b61190481610c1d565b0361194e579061191390611e92565b5f835b6119205750505050565b81518110156118e757826119348284610c3b565b51146118d75790611946849392610c68565b909192611916565b60405162461bcd60e51b8152806109be60048201611113565b6040519061197482610a88565b6001825260203681840137565b60ff1660068110156103025790565b611998611967565b90815115610c4f57816119b2916020610ccc9401526122df565b60f81c611981565b6119c2611967565b805115610c4f576119de81610ccc9360206119e69401526127b9565b805190612aac565b6134cf565b6119f3611967565b805115610c4f576119de81610ccc9360206119e694015261285c565b36603319013560601c908115611a2157565b339150565b611a2e6116ce565b50611a37611967565b805115610c4f57611a4c916020820152612bc2565b5050611a566116ce565b90602081015190611b62604082015191611a7c611a77606083015160f81c90565b6138df565b9060618101519060818101519060a18101519060c181015190611b408a611b3660e184015193610120611abc611ab761010184015160f81c90565b6138ee565b93611b30611ad2611ab761010286015160f81c90565b93611b26611ae8611ab761010384015160f81c90565b91611b1c611b12610105611b09611b0461010486015160f81c90565b6138fa565b93015160f81c90565b1515610180870152565b6101608501612ed0565b6101408301612ee6565b01612ee6565b6101008c01612ee6565b60e08a015260c089015260a08801526080870152606086015260408501612ef2565b6020830152815290565b611b74611967565b805115610c4f57610ccc916020820152612397565b60405190608082016001600160401b03811183821017610a6857604052606080835f81525f60208201525f60408201520152565b611bc5611b89565b50611bce611967565b805115610c4f57611be3916020820152612c8c565b9190611bed611b89565b92611bfe602084015160f81c611981565b92604160218201519101516040860152602085015260068310156103025764ffffffffff611c3692611c3b94865260381c1690612aac565b6146cd565b606082015290565b611c4b611967565b805115610c4f57610ccc9160208201526128c6565b60405190606082016001600160401b03811183821017610a68576040525f6040838281528260208201520152565b611c96611c60565b50611c9f611967565b805115610c4f57611cb4916020820152612d1a565b5050611cbe611c60565b906020810151906060604082015191015160408401526020830152815290565b611ce6611967565b805115610c4f57610ccc916020820152612425565b611d03611967565b805115610c4f57610ccc9160208201526124bf565b611d20611967565b805115610c4f57610ccc916020820152612558565b60405190611d4282610a6d565b606060a0835f81525f60208201525f60408201525f838201528260808201520152565b611d6d611d35565b50611d76611967565b805115610c4f57611d9281611df7936020611c36940152612db0565b611da0949294939193611d35565b946020810151906040810151906074605482015191015160f81c15156060890152604088015260601c6020870152855264ffffffffff808560381c1690611dea611c368385612aac565b9560601c16810191612b01565b60a0830152608082015290565b611e1f604051611e1381610aa3565b5f81525f3681376125f0565b60f81c611e2857565b60405163379a7ed960e01b8152600490fd5b60405190606082016001600160401b03811183821017610a68576040526002825260208201604036823782516001600160a01b03929015610c4f5782169052815160011015610c4f57610ccc9216604082015261267e565b611e9a611967565b805115610c4f576119de81610ccc9360206119e694015261294b565b9060018201809211610c7657565b91908201809211610c7657565b5f5b8251811015611f625781611ee78285610c3b565b5114611ef557600101611ed3565b9190915b8151811015611f5c5780611f0e600192611eb6565b83511115611f3b57611f28611f2282611eb6565b84610c3b565b51611f338285610c3b565b525b01611ef9565b611f4481611eb6565b835111611f355783611f568285610c3b565b52611f35565b50905090565b505090565b9190611f71611967565b805115610c4f576020938482015281518060051b90808204861481151715610c7657906040519386850191601f19603f82880101166040528552865f9101905b838110611fc757505050506111a6929350612f3e565b815183529187019190870190600101611fb1565b611fe3611967565b90815115610c4f5760208201526001600160a01b03612000612fc8565b1630810361201257506111a690613ba0565b803b1561012a576040516336700e8160e21b81525f80516020614cd2833981519152600482015260806024820152915f918391829084908290612059906084830190610260565b600360448301526020606483015203925af18015610859576120785750565b8061086b6111a692610a55565b9061208e611967565b91825115610c4f576020830152604051906020820152602081526120b181610a88565b6001600160a01b036120c1612fc8565b16913083036120d4576111a69250613e55565b90823b1561012a576120ff925f9283604051809681958294630a87993160e11b845260048401612efe565b03925af18015610859576121105750565b6111a690610a55565b6040519061014082016001600160401b03811183821017610a6857604052815f81525f60208201525f60408201526101206060915f838201525f60808201528260a08201528260c08201528260e0820152826101008201520152565b61217d612119565b50612186611967565b90815115610c4f57816121a09160206121e4940152612e44565b906121ac939293612119565b9360208101519060408101519060608101519060a06080820151910151608089015260608801526040870152602086015284526140ac565b61012086015261010085015260e084015260c083015260a082015290565b9190915f8382019384129112908015821691151617610c7657565b919060809061227b8261222e610c7b565b9561223c8151855190612202565b87526122516020820151602086015190612202565b60208801526122696060820151604086015190612202565b60408801520151606083015190612202565b8285015201516060830152565b612290611967565b805115610c4f576119de81610ccc9360206119e69401526129c7565b6122b4611967565b805115610c4f576119de81610ccc9360206119e6940152612a27565b9081602091031261012a575190565b6001600160a01b036122ef612fc8565b163081036123015750610ccc90612ffd565b604051638c364d5960e01b8152644974656d7360581b631d18955160e21b0160048201526080602482015291602091839182908190612344906084830190610260565b5f60448301526502081808090160cd1b606483015203915afa908115610859575f9161236e575090565b610ccc915060203d602011612390575b6123888183610abe565b8101906122d0565b503d61237e565b6001600160a01b036123a7612fc8565b163081036123b95750610ccc90613074565b604051638c364d5960e01b81525f80516020614cd2833981519152600482015260806024820152916020918391829081906123f8906084830190610260565b6004604483015267050028290101010160bd1b606483015203915afa908115610859575f9161236e575090565b6001600160a01b03612435612fc8565b163081036124475750610ccc906130fe565b604051638c364d5960e01b81526a576561706f6e537461747360281b631d18955160e21b0160048201526080602482015291602091839182908190612490906084830190610260565b60056044830152690700380901010101010160ad1b606483015203915afa908115610859575f9161236e575090565b6001600160a01b036124cf612fc8565b163081036124e15750610ccc90613166565b604051638c364d5960e01b81526941726d6f72537461747360301b631d18955160e21b0160048201526080602482015291602091839182908190612529906084830190610260565b6004604483015269c107002020202020200160a81b606483015203915afa908115610859575f9161236e575090565b6001600160a01b03612568612fc8565b1630810361257a5750610ccc906131ce565b604051638c364d5960e01b81526f436f6e73756d61626c65537461747300631d18955160e21b01600482015260806024820152916020918391829081906125c5906084830190610260565b600260448301526503001809010160cd1b606483015203915afa908115610859575f9161236e575090565b6001600160a01b03612600612fc8565b163081036126125750610ccc90613232565b604051638c364d5960e01b81526514185d5cd95960521b631d18955160e21b0160048201526080602482015291602091839182908190612656906084830190610260565b5f6044830152630101000160d81b606483015203915afa908115610859575f9161236e575090565b6001600160a01b0361268e612fc8565b163081036126a05750610ccc90613294565b604051638c364d5960e01b81526f5573657244656c65676174696f6e436f661d189ddbdc9b1960ca1b01600482015260806024820152916020918391829081906126ee906084830190610260565b5f6044830152630100080160dd1b606483015203915afa908115610859575f9161236e575090565b6001600160401b038111610a6857601f01601f191660200190565b5f5b8381106127425750505f910152565b8181015183820152602001612733565b81601f8201121561012a57805161276881612716565b926127766040519485610abe565b8184526020828401011161012a57610ccc9160208085019101612731565b9060208282031261012a5781516001600160401b03811161012a57610ccc9201612752565b6001600160a01b036127c9612fc8565b163081036127db5750610ccc90613300565b604051631e78897760e01b81526f436f6e73756d61626c65537461747300631d18955160e21b01600482015260606024820152915f91839182908190612825906064830190610260565b85604483015203915afa908115610859575f91612840575090565b610ccc91503d805f833e6128548183610abe565b810190612794565b6001600160a01b0361286c612fc8565b1630810361287e5750610ccc90613383565b604051631e78897760e01b81526a576561706f6e537461747360281b631d18955160e21b01600482015260606024820152915f91839182908190612825906064830190610260565b6001600160a01b036128d6612fc8565b163081036128e85750610ccc906133dd565b604051631e78897760e01b8152694368617261637465727360301b631d18955160e21b01600482015260606024820152915f9183918290819061292f906064830190610260565b6001604483015203915afa908115610859575f91612840575090565b6001600160a01b0361295b612fc8565b1630810361296d5750610ccc90613431565b604051631e78897760e01b81525f80516020614cd2833981519152600482015260606024820152915f918391829081906129ab906064830190610260565b6003604483015203915afa908115610859575f91612840575090565b6001600160a01b036129d7612fc8565b163081036129e95750610ccc90613458565b604051631e78897760e01b81525f80516020614cd2833981519152600482015260606024820152915f91839182908190612825906064830190610260565b6001600160a01b03612a37612fc8565b16308103612a495750610ccc9061349e565b604051631e78897760e01b81525f80516020614cd2833981519152600482015260606024820152915f9183918290819061292f906064830190610260565b90602091612aa081518092818552858086019101612731565b601f01601f1916010190565b9081518111612acb576001600160801b031660209190910160801b1790565b6040516323230fa360e01b81526060600482015292508291612af1906064840190612a87565b905f602484015260448301520390fd5b8282118015612b70575b612b3b57908160208281959401019384910111610c76578103908111610c765760018060801b03169060801b1790565b6040516323230fa360e01b81526060600482015292839291612b61906064850190612a87565b91602484015260448301520390fd5b5080518311612b0b565b909160608284031261012a5781516001600160401b03929083811161012a5784612ba5918301612752565b93602082015193604083015190811161012a57610ccc9201612752565b6001600160a01b03612bd2612fc8565b16308103612beb5750612be490613556565b9192909190565b60405163419b58fd60e01b815264537461747360581b631d18955160e21b0160048201526060602482015292915f91849182908190612c2e906064830190610260565b6fe60d002020012020202020010101010160781b604483015203915afa908115610859575f80935f93612c62575b50929190565b91935050612c8291503d805f833e612c7a8183610abe565b810190612b7a565b929092915f612c5c565b6001600160a01b03612c9c612fc8565b16308103612cae5750612be490613636565b60405163419b58fd60e01b8152644974656d7360581b631d18955160e21b0160048201526060602482015292915f91849182908190612cf1906064830190610260565b6502081808090160cd1b604483015203915afa908115610859575f80935f93612c625750929190565b6001600160a01b03612d2a612fc8565b16308103612d3c5750612be4906136e7565b60405163419b58fd60e01b81526f537461745265737472696374696f6e73631d18955160e21b0160048201526060602482015292915f91849182908190612d87906064830190610260565b6503001801010160cd1b604483015203915afa908115610859575f80935f93612c625750929190565b6001600160a01b03612dc0612fc8565b16308103612dd25750612be4906137b1565b60405163419b58fd60e01b8152694368617261637465727360301b631d18955160e21b0160048201526060602482015292915f91849182908190612e1a906064830190610260565b665504022014200160c01b604483015203915afa908115610859575f80935f93612c625750929190565b6001600160a01b03612e54612fc8565b16308103612e665750612be490613848565b60405163419b58fd60e01b81525f80516020614cd283398151915260048201526060602482015292915f91849182908190612ea5906064830190610260565b67050028290101010160bd1b604483015203915afa908115610859575f80935f93612c625750929190565b600a8210156103025752565b6004111561030257565b612eef82612edc565b52565b60038210156103025752565b5f80516020614cd28339815191528152608060208201819052610ccc939192612f2991840190610260565b91600360408201526060818403910152612a87565b906001600160a01b03612f4f612fc8565b1691308303612f62576111a69250613909565b90823b1561012a576040516377b7543160e11b81525f80516020614cd2833981519152600482015260806024820152925f9284928391859183916120ff9190612faf906084850190610260565b6003604485015283810360031901606485015290612a87565b7f629a4c26e296b22a8e0856e9f6ecb2d1008d7e00081111962cd175fa7488e175546001600160a01b031680610ccc57503390565b6040516020816020810193644974656d7360581b631d18955160e21b0185526040820160208251919201935f5b82811061305d57505050613047925003601f198101835282610abe565b5190205f80516020614c52833981519152185490565b85518452948101948694509281019260010161302a565b61307d906143d2565b5f905f5b600481106130d45750818160208210156130be575b505080548260031b1b9160200390816020116130b157505090565b600101549060031b1c1790565b90809350601f925060051c019116905f80613096565b9160ff67050028290101010160bd1b84601b0360031b1c168101809111610c765791600101613081565b613107906143fc565b5f905f5b6005811061313a5750818160208210156130be57505080548260031b1b9160200390816020116130b157505090565b9160ff690700380901010101010160ad1b84601b0360031b1c168101809111610c76579160010161310b565b61316f90614411565b5f905f5b600481106131a25750818160208210156130be57505080548260031b1b9160200390816020116130b157505090565b9160ff69c107002020202020200160a81b84601b0360031b1c168101809111610c765791600101613173565b6131d790614477565b5f905f5b6002811061320a5750818160208210156130be57505080548260031b1b9160200390816020116130b157505090565b9160ff6503001809010160cd1b84601b0360031b1c168101809111610c7657916001016131db565b60405160208160208101936514185d5cd95960521b631d18955160e21b0185526040820160208251919201935f5b82811061327d57505050613047925003601f198101835282610abe565b855184529481019486945092810192600101613260565b60405160208160208101936f5573657244656c65676174696f6e436f661d189ddbdc9b1960ca1b0185526040820160208251919201935f5b8281106132e957505050613047925003601f198101835282610abe565b8551845294810194869450928101926001016132cc565b610ccc9064ffffffffff604051915f80516020614c72833981519152602084018461332b84836141aa565b039461333f601f1996878101835282610abe565b5190201892613366604051918261335a6020820195866141aa565b03908101835282610abe565b5190205f80516020614cb2833981519152185460381c1690614665565b610ccc9064ffffffffff604051915f80516020614c7283398151915260208401846133ae84836141f5565b03946133c2601f1996878101835282610abe565b5190201892613366604051918261335a6020820195866141f5565b610ccc9064ffffffffff6134265f80516020614c92833981519152604051602081019061341c8161340e888561423e565b03601f198101835282610abe565b519020189261494c565b5460601c1690614665565b610ccc9064ffffffffff61344d613447836144b7565b92614961565b5460b01c1690614665565b610ccc9064ffffffffff6134935f80516020614c7283398151915260405160208101906134898161340e8885614286565b5190201892614961565b5460381c1690614665565b610ccc9064ffffffffff6134265f80516020614c9283398151915260405160208101906134898161340e8885614286565b6040805160206020600160801b0384168201810190925260016001607b1b03600584901c1680825290939260801c8285015f5b838110613510575050505050565b825182529184019190840190600101613502565b9061352e82612716565b61353b6040519182610abe565b828152809261354c601f1991612716565b0190602036910137565b6040805164537461747360581b631d18955160e21b01602080830191825284515f956060959294939284019190850190875b818110613622575050509180939203926135aa601f1994858101835282610abe565b5190205f80516020614c528339815191521890604051928061012585011660405260e68452818401929160e6915b8183101561360a575050806135ee575b50505092565b5f199060031b1c908183511691199054161790525f80806135e8565b816001858394959796548752019401940191906135d8565b825184529286019291860191600101613588565b9061366760405160208101906136508161340e8785614308565b5190205f80516020614c5283398151915218614562565b9061367183614976565b5461368466ffffffffffffff8216613524565b935f93602086015b60ff861660018110156136dd576136be8264ffffffffff876136ae8b896144db565b946028026038011c168093614683565b8101809111610c76579460ff809116908114610c76576001019461368c565b5050949291935050565b604080516f537461745265737472696374696f6e73631d18955160e21b01602080830191825284515f956060959294939284019190850190875b81811061379d57505050918093920392613743601f1994858101835282610abe565b5190205f80516020614c5283398151915218906040519280609f8501166040526060845281840192916060915b81831015613785575050806135ee5750505092565b81600185839495979654875201940194019190613770565b825184529286019291860191600101613721565b906137e260405160208101906137cb8161340e878561434b565b5190205f80516020614c52833981519152186145cb565b906137ec8361494c565b546137ff66ffffffffffffff8216613524565b935f93602086015b60ff861660028110156136dd576138298264ffffffffff876136ae8b89614518565b8101809111610c76579460ff809116908114610c765760010194613807565b9061387960405160208101906138628161340e8785614393565b5190205f80516020614c5283398151915218614618565b9061388383614961565b5461389666ffffffffffffff8216613524565b935f93602086015b60ff861660058110156136dd576138c08264ffffffffff876136ae8b8961453d565b8101809111610c76579460ff809116908114610c76576001019461389e565b60ff1660038110156103025790565b60ff16610ccc81612edc565b60ff16600a8110156103025790565b91909161391581614961565b5464ffffffffff92838260b01c16906139396139318380611172565b875190611ec4565b8281141595908680613b81575b613b555761395490856149d4565b9561395d614a5b565b925f5b8451811015613a0a576139946139876139798388610c3b565b516001600160581b03191690565b6001600160581b03191690565b6010808260581c16146139ab575b50600101613960565b60601c90813b1561012a575f888c9389838d6139dd60405198899687958694630abd6b4560e31b86526004860161471b565b03925af1918215610859576001926139f7575b50906139a2565b8061086b613a0492610a55565b5f6139f0565b5091959093969792975f975f985b60ff8a166003811015613a3f5760ff918a8a6001936028026038011c16019a011698613a18565b5095929750939892975094506040935f80516020614c3283398151915260405180613a918c8a898d65ffffffffffff6f43686172616374657245717569706d65631d18955160e21b019916908661488e565b0390a2613b45575b613aab87613aa6876144b7565b614b33565b5f5b8151811015613b3b57613ac66139876139798385610c3b565b6020808260581c1614613add575b50600101613aad565b60601c90813b1561012a575f868a9386838b613b0e8b5198899687958694636358453360e01b86526004860161471b565b03925af191821561085957600192613b28575b5090613ad4565b8061086b613b3592610a55565b5f613b21565b5050505050509050565b83613b4f86614961565b55613a99565b604051632994042d60e21b81525f600482015264ffffffffff8516602482018190526044820152606490fd5b5083613b99613b8f826146f2565b64ffffffffff1690565b1415613946565b90613baa82614922565b549164ffffffffff92838160b01c1692601f198401848111610c76578516604091825196613bd788610aa3565b5f88525f368137613bf2613bea88611163565b895190611ec4565b87811415978880613e40575b613e1157808511613deb5750613c1490866149d4565b96613c1d614a5b565b925f5b8451811015613cae57613c396139876139798388610c3b565b6010808260581c1614613c50575b50600101613c20565b60601c90813b1561012a575f898d9389838e613c818e5198899687958694630abd6b4560e31b8652600486016147e3565b03925af191821561085957600192613c9b575b5090613c47565b8061086b613ca892610a55565b5f613c94565b50929893979094969196885f995b60ff8b166003811015613ce35760ff918b8b6001936028026038011c16019b011699613cbc565b509297509499939850949196505f80516020614c32833981519152855180613d308c8a65ffffffffffff6f43686172616374657245717569706d65631d18955160e21b0197168d856148db565b0390a2613ddb575b613d4b8783613d46886144b7565b614b80565b5f5b8151811015613b3b57613d666139876139798385610c3b565b6020808260581c1614613d7d575b50600101613d4d565b60601c90813b1561012a575f868a9386838b613dae8b5198899687958694636358453360e01b8652600486016147e3565b03925af191821561085957600192613dc8575b5090613d74565b8061086b613dd592610a55565b5f613dc1565b83613de586614961565b55613d38565b8551637e8578d360e01b8152600481019190915264ffffffffff85166024820152604490fd5b8551632994042d60e21b815264ffffffffff868116600483015260206024830152919091166044820152606490fd5b5080613e4e613b8f87614705565b1415613bfe565b919091613e6181614922565b5464ffffffffff92838260b01c1690613e7b865183611ec4565b8281141595908680614097575b61406b57613e9690856149d4565b95613e9f614a5b565b925f5b8451811015613f3157613ebb6139876139798388610c3b565b6010808260581c1614613ed2575b50600101613ea2565b60601c90813b1561012a575f888c9389838d613f0460405198899687958694630abd6b4560e31b86526004860161477f565b03925af191821561085957600192613f1e575b5090613ec9565b8061086b613f2b92610a55565b5f613f17565b509195909396979297875f985b60ff8a166003811015613f655760ff918a8a6001936028026038011c16019a011698613f3e565b5095929750939892975094506040935f80516020614c3283398151915260405180613fb58c8a65ffffffffffff6f43686172616374657245717569706d65631d18955160e21b0197168d85614848565b0390a261405b575b613fcb8783613d468861448c565b5f5b8151811015613b3b57613fe66139876139798385610c3b565b6020808260581c1614613ffd575b50600101613fcd565b60601c90813b1561012a575f868a9386838b61402e8b5198899687958694636358453360e01b86526004860161477f565b03925af191821561085957600192614048575b5090613ff4565b8061086b61405592610a55565b5f614041565b8361406586614922565b55613fbd565b604051632994042d60e21b815264ffffffffff8516600482018190525f60248301526044820152606490fd5b50836140a5613b8f826146f2565b1415613e88565b91909164ffffffffff90818160381c1692610ccc6119e66140d06119e68789612aac565b966140e76119e6878760601c168901809984612b01565b966141146119e66141046119e68a8a60881c168501809587612b01565b988860b01c168301809385612b01565b9560d81c810191612b01565b6953746f7265486f6f6b7360301b66746273746f726560c81b01815281516020918201928201915f5b828110614157575050505090565b835185529381019392810192600101614149565b5f80516020614cd2833981519152815281516020918201928201915f5b828110614196575050505090565b835185529381019392810192600101614188565b6f436f6e73756d61626c65537461747300631d18955160e21b01815281516020918201928201915f5b8281106141e1575050505090565b8351855293810193928101926001016141d3565b6a576561706f6e537461747360281b631d18955160e21b01815281516020918201928201915f5b82811061422a575050505090565b83518552938101939281019260010161421c565b694368617261637465727360301b631d18955160e21b01815281516020918201928201915f5b828110614272575050505090565b835185529381019392810192600101614264565b5f80516020614cd2833981519152815281516020918201928201915f5b8281106142b1575050505090565b8351855293810193928101926001016142a3565b644974656d7360581b631d18955160e21b01815281516020918201928201915f5b8281106142f4575050505090565b8351855293810193928101926001016142e6565b644974656d7360581b631d18955160e21b01815281516020918201928201915f5b828110614337575050505090565b835185529381019392810192600101614329565b694368617261637465727360301b631d18955160e21b01815281516020918201928201915f5b82811061437f575050505090565b835185529381019392810192600101614371565b5f80516020614cd2833981519152815281516020918201928201915f5b8281106143be575050505090565b8351855293810193928101926001016143b0565b6040516143e78161340e602082019485614286565b5190205f80516020614c528339815191521890565b6040516143e78161340e6020820194856141f5565b60405160208160208101936941726d6f72537461747360301b631d18955160e21b0185526040820160208251919201935f5b828110614460575050506143e7925003601f198101835282610abe565b855184529481019486945092810192600101614443565b6040516143e78161340e6020820194856141aa565b5f80516020614cf2833981519152906040516144b08161340e60208201948561416b565b5190201890565b5f80516020614cf2833981519152906040516144b08161340e602082019485614286565b905f80516020614c72833981519152916040516145008161340e6020820194856142c5565b51902060f89190911b6001600160f81b031916181890565b905f80516020614c72833981519152916040516145008161340e60208201948561423e565b905f80516020614c72833981519152916040516145008161340e602082019485614286565b604051906020601f19806080850116604052604184526020840192916041915b818310156145b3575050806145975750505090565b5f199060031b1c908183511691199054161790525f8080611864565b81600185839495979654875201940194019190614582565b604051906020601f19806094850116604052605584526020840192916055915b81831015614600575050806145975750505090565b816001858394959796548752019401940191906145eb565b604051906020601f198060df85011660405260a0845260208401929160a0915b8183101561464d575050806145975750505090565b81600185839495979654875201940194019190614638565b610ccc9060405192601f19603f828601011660405280845260208401915b9291925b6020908183106146a75780548552930192601f1990910190600101614687565b919050929192806146b757505050565b5f199060031b1c90818351169119905416179052565b906111a66001600160801b0383166146e481613524565b93602085019060801c61498b565b9064ffffffffff809216918211610c7657565b90602064ffffffffff80931601918211610c7657565b909264ffffffffff614759610ccc9694956f43686172616374657245717569706d65631d18955160e21b01855260e0602086015260e0850190610260565b94600360408501525f606085015216608083015260a082015260c0818403910152612a87565b909264ffffffffff6147bd610ccc9694956f43686172616374657245717569706d65631d18955160e21b01855260e0602086015260e0850190610260565b94600360408501521660608301525f608083015260a082015260c0818403910152612a87565b909264ffffffffff614821610ccc9694956f43686172616374657245717569706d65631d18955160e21b01855260e0602086015260e0850190610260565b94600360408501521660608301526020608083015260a082015260c0818403910152612a87565b909265ffffffffffff614868610ccc96949560c0855260c0850190610260565b94600360208501521660408301525f6060830152608082015260a0818403910152612a87565b919390610ccc959365ffffffffffff6148b564ffffffffff9360c0875260c0870190610260565b9660036020870152166040850152166060830152608082015260a0818403910152612a87565b909265ffffffffffff6148fb610ccc96949560c0855260c0850190610260565b946003602085015216604083015260206060830152608082015260a0818403910152612a87565b6040516149378161340e60208201948561416b565b5190205f80516020614cb28339815191521890565b6040516149378161340e60208201948561423e565b6040516149378161340e602082019485614286565b6040516149378161340e6020820194856142c5565b9291905b6020908183106149ae578451815293810193601f19909201910161498f565b929391905080156149cf575f199060031b1c90818351169119905116179052565b505050565b64ffffffffff808311614a425766ffffffffffffff82169060b083901c1683818110614a38570301915b64ffffffffff60b01b60b09190911b1664ffffffffff60b01b199290921666ffffffffffffff64ffffffffff60b01b011991909116171790565b90039003916149fe565b604051637149a3c160e01b815260048101849052602490fd5b614a63611967565b805115610c4f57614ae56119de6020926f43686172616374657245717569706d65631d18955160e21b018482015264ffffffffff604051915f80516020614c7283398151915286840184614ab78483614120565b0394614acb601f1996878101835282610abe565b5190201892613366604051918261335a8a82019586614120565b8060801c916015809260018060801b0316049060405193818501828460051b8701016040528386525f5b848110614b1f5750505050505090565b825182529185019190830190600101614b0f565b81519060208093019190925b80821015614b68575080614b5257505050565b5f199060031b1c90818354169119905116179055565b6001839482939451815501930191601f190190614b3f565b8251926111a6926020909101919080614bc8575b509290925b602090818310614bb95784518155930192601f1990910190600101614b99565b929391905080614b5257505050565b6020811015614c21575b8015614b945791939082602003908360031b5f198460031b1c19811c908751901c908019835416911617815581831115614c1957600101940191601f19910101925f614b94565b505050509050565b90601f908260051c019116614bd256fefe158a7adba34e256807c8a149028d3162918713c3838afc643ce9f96716ebfd86425bff6b57326c7859e89024fe4f238ca327a1ae4a230180dd2f0e88aaa7d93b4102da22e32d82fc925482184f16c09fd4281692720b87d124aef6da48a0f13a4102da22e32d82fc925482184f16c09fd4281692720b87d124aef6da48a0f114e2fcc58e58e68ec7edc30c8d50dccc3ce2714a623ec81f46b6a63922d765697462554400000000000000000000000043686172616374657245717569706d65384102da22e32d82fc925482184f16c09fd4281692720b87d124aef6da48a0f1","linkReferences":{}},"methodIdentifiers":{"_msgSender()":"119df25f","_msgValue()":"45ec9354","_world()":"e1af802c","calculateEquipmentBonuses(bytes32)":"d99508f2","checkItemEffect(uint256,bytes32)":"0254f24b","checkRequirements(bytes32,uint256)":"9a8bb9a2","equipItems(bytes32,uint256[])":"cc77a2de","getCombatStats(bytes32)":"8bcc358e","getItemEffects(uint256)":"38a5aae6","isEquipped(bytes32,uint256)":"edcfef82","supportsInterface(bytes4)":"01ffc9a7","unequipItem(bytes32,uint256)":"b2aca84b"},"id":353}