{"abi":[{"type":"function","name":"_msgSender","inputs":[],"outputs":[{"name":"sender","type":"address","internalType":"address"}],"stateMutability":"view"},{"type":"function","name":"_msgValue","inputs":[],"outputs":[{"name":"value","type":"uint256","internalType":"uint256"}],"stateMutability":"pure"},{"type":"function","name":"_world","inputs":[],"outputs":[{"name":"","type":"address","internalType":"address"}],"stateMutability":"view"},{"type":"function","name":"applyEquipmentBonuses","inputs":[{"name":"entityId","type":"bytes32","internalType":"bytes32"}],"outputs":[{"name":"modifiedStats","type":"tuple","internalType":"struct AdjustedCombatStats","components":[{"name":"adjustedStrength","type":"int256","internalType":"int256"},{"name":"adjustedAgility","type":"int256","internalType":"int256"},{"name":"adjustedIntelligence","type":"int256","internalType":"int256"},{"name":"adjustedArmor","type":"int256","internalType":"int256"},{"name":"adjustedMaxHp","type":"int256","internalType":"int256"},{"name":"currentHp","type":"int256","internalType":"int256"},{"name":"level","type":"uint256","internalType":"uint256"}]}],"stateMutability":"view"},{"type":"function","name":"checkItemEffect","inputs":[{"name":"itemId","type":"uint256","internalType":"uint256"},{"name":"effectId","type":"bytes32","internalType":"bytes32"}],"outputs":[{"name":"hasAction","type":"bool","internalType":"bool"}],"stateMutability":"view"},{"type":"function","name":"checkRequirements","inputs":[{"name":"characterId","type":"bytes32","internalType":"bytes32"},{"name":"itemId","type":"uint256","internalType":"uint256"}],"outputs":[{"name":"canUse","type":"bool","internalType":"bool"}],"stateMutability":"view"},{"type":"function","name":"equipItems","inputs":[{"name":"characterId","type":"bytes32","internalType":"bytes32"},{"name":"itemIds","type":"uint256[]","internalType":"uint256[]"}],"outputs":[],"stateMutability":"nonpayable"},{"type":"function","name":"getArmorStats","inputs":[{"name":"itemId","type":"uint256","internalType":"uint256"}],"outputs":[{"name":"_ArmorStats","type":"tuple","internalType":"struct ArmorStatsData","components":[{"name":"agiModifier","type":"int256","internalType":"int256"},{"name":"armorModifier","type":"int256","internalType":"int256"},{"name":"hpModifier","type":"int256","internalType":"int256"},{"name":"intModifier","type":"int256","internalType":"int256"},{"name":"minLevel","type":"uint256","internalType":"uint256"},{"name":"strModifier","type":"int256","internalType":"int256"}]}],"stateMutability":"view"},{"type":"function","name":"getItemEffects","inputs":[{"name":"itemId","type":"uint256","internalType":"uint256"}],"outputs":[{"name":"effects","type":"bytes32[]","internalType":"bytes32[]"}],"stateMutability":"view"},{"type":"function","name":"getSpellStats","inputs":[{"name":"itemId","type":"uint256","internalType":"uint256"}],"outputs":[{"name":"_spellStats","type":"tuple","internalType":"struct SpellStatsData","components":[{"name":"minDamage","type":"int256","internalType":"int256"},{"name":"maxDamage","type":"int256","internalType":"int256"},{"name":"minLevel","type":"uint256","internalType":"uint256"},{"name":"effects","type":"bytes32[]","internalType":"bytes32[]"}]}],"stateMutability":"view"},{"type":"function","name":"getWeaponStats","inputs":[{"name":"itemId","type":"uint256","internalType":"uint256"}],"outputs":[{"name":"_weaponStats","type":"tuple","internalType":"struct WeaponStatsData","components":[{"name":"agiModifier","type":"int256","internalType":"int256"},{"name":"intModifier","type":"int256","internalType":"int256"},{"name":"hpModifier","type":"int256","internalType":"int256"},{"name":"maxDamage","type":"int256","internalType":"int256"},{"name":"minDamage","type":"int256","internalType":"int256"},{"name":"minLevel","type":"uint256","internalType":"uint256"},{"name":"strModifier","type":"int256","internalType":"int256"},{"name":"effects","type":"bytes32[]","internalType":"bytes32[]"}]}],"stateMutability":"view"},{"type":"function","name":"isEquipped","inputs":[{"name":"characterId","type":"bytes32","internalType":"bytes32"},{"name":"itemId","type":"uint256","internalType":"uint256"}],"outputs":[{"name":"_isEquipped","type":"bool","internalType":"bool"}],"stateMutability":"view"},{"type":"function","name":"supportsInterface","inputs":[{"name":"interfaceId","type":"bytes4","internalType":"bytes4"}],"outputs":[{"name":"","type":"bool","internalType":"bool"}],"stateMutability":"pure"},{"type":"function","name":"unequipItem","inputs":[{"name":"characterId","type":"bytes32","internalType":"bytes32"},{"name":"itemId","type":"uint256","internalType":"uint256"}],"outputs":[{"name":"success","type":"bool","internalType":"bool"}],"stateMutability":"nonpayable"},{"type":"event","name":"Store_SpliceDynamicData","inputs":[{"name":"tableId","type":"bytes32","indexed":true,"internalType":"ResourceId"},{"name":"keyTuple","type":"bytes32[]","indexed":false,"internalType":"bytes32[]"},{"name":"dynamicFieldIndex","type":"uint8","indexed":false,"internalType":"uint8"},{"name":"start","type":"uint48","indexed":false,"internalType":"uint48"},{"name":"deleteCount","type":"uint40","indexed":false,"internalType":"uint40"},{"name":"encodedLengths","type":"bytes32","indexed":false,"internalType":"EncodedLengths"},{"name":"data","type":"bytes","indexed":false,"internalType":"bytes"}],"anonymous":false},{"type":"event","name":"Store_SpliceStaticData","inputs":[{"name":"tableId","type":"bytes32","indexed":true,"internalType":"ResourceId"},{"name":"keyTuple","type":"bytes32[]","indexed":false,"internalType":"bytes32[]"},{"name":"start","type":"uint48","indexed":false,"internalType":"uint48"},{"name":"data","type":"bytes","indexed":false,"internalType":"bytes"}],"anonymous":false},{"type":"error","name":"EncodedLengths_InvalidLength","inputs":[{"name":"length","type":"uint256","internalType":"uint256"}]},{"type":"error","name":"Slice_OutOfBounds","inputs":[{"name":"data","type":"bytes","internalType":"bytes"},{"name":"start","type":"uint256","internalType":"uint256"},{"name":"end","type":"uint256","internalType":"uint256"}]},{"type":"error","name":"Store_IndexOutOfBounds","inputs":[{"name":"length","type":"uint256","internalType":"uint256"},{"name":"accessedIndex","type":"uint256","internalType":"uint256"}]},{"type":"error","name":"Store_InvalidResourceType","inputs":[{"name":"expected","type":"bytes2","internalType":"bytes2"},{"name":"resourceId","type":"bytes32","internalType":"ResourceId"},{"name":"resourceIdString","type":"string","internalType":"string"}]},{"type":"error","name":"Store_InvalidSplice","inputs":[{"name":"startWithinField","type":"uint40","internalType":"uint40"},{"name":"deleteCount","type":"uint40","internalType":"uint40"},{"name":"fieldLength","type":"uint40","internalType":"uint40"}]}],"bytecode":{"object":"0x608060405234801561001057600080fd5b5061599280620000216000396000f3fe608060405234801561001057600080fd5b50600436106100ea5760003560e01c80636479f09f1161008c578063b2aca84b11610066578063b2aca84b14610298578063cc77a2de146102ab578063e1af802c146102c0578063edcfef82146102c857600080fd5b80636479f09f146101fc5780639056fa281461021c5780639a8bb9a21461028557600080fd5b806338a5aae6116100c857806338a5aae61461014a57806340a5ed2a1461016a57806345ec9354146101c957806363ff2287146101dc57600080fd5b806301ffc9a7146100ef5780630254f24b14610117578063119df25f1461012a575b600080fd5b6101026100fd366004614fb9565b6102db565b60405190151581526020015b60405180910390f35b610102610125366004614ffb565b610374565b6101326104da565b6040516001600160a01b03909116815260200161010e565b61015d61015836600461501d565b6104e9565b60405161010e9190615072565b61017d61017836600461501d565b61056e565b60405161010e9190600060c082019050825182526020830151602083015260408301516040830152606083015160608301526080830151608083015260a083015160a083015292915050565b604051601f19360135815260200161010e565b6101ef6101ea36600461501d565b610623565b60405161010e9190615085565b61020f61020a36600461501d565b6106e2565b60405161010e91906150ea565b61022f61022a36600461501d565b610784565b60405161010e9190600060e082019050825182526020830151602083015260408301516040830152606083015160608301526080830151608083015260a083015160a083015260c083015160c083015292915050565b610102610293366004614ffb565b610a64565b6101026102a6366004614ffb565b610ca5565b6102be6102b93660046151b8565b6110b5565b005b61013261142b565b6101026102d6366004614ffb565b611435565b60007fffffffff0000000000000000000000000000000000000000000000000000000082167fb5dee12700000000000000000000000000000000000000000000000000000000148061036e57507fffffffff0000000000000000000000000000000000000000000000000000000082167f01ffc9a700000000000000000000000000000000000000000000000000000000145b92915050565b600080610380846115b2565b905060008160048111156103965761039661525a565b036103f65760006103a685611666565b905060005b81518110156103ef578181815181106103c6576103c6615270565b602002602001015185036103dd57600193506103ef565b806103e78161529c565b9150506103ab565b50506104d3565b600281600481111561040a5761040a61525a565b0361046357600061041a856116f2565b905060005b81518110156103ef5781818151811061043a5761043a615270565b6020026020010151850361045157600193506103ef565b8061045b8161529c565b91505061041f565b60038160048111156104775761047761525a565b036104d357600061048785611767565b905060005b81518110156104d0578181815181106104a7576104a7615270565b602002602001015185036104be57600193506104d0565b806104c88161529c565b91505061048c565b50505b5092915050565b60006104e46117dc565b905090565b606060006104f6836115b2565b9050600081600481111561050c5761050c61525a565b036105215761051a83611666565b9150610568565b60028160048111156105355761053561525a565b036105435761051a836116f2565b60038160048111156105575761055761525a565b036105685761056583611767565b91505b50919050565b6105a76040518060c001604052806000815260200160008152602001600081526020016000815260200160008152602001600081525090565b60006105b2836115b2565b905060018160048111156105c8576105c861525a565b1461061a5760405162461bcd60e51b815260206004820152601360248201527f4954454d533a204e6f742061202041726d6f720000000000000000000000000060448201526064015b60405180910390fd5b6105658361180e565b61066b60405180610100016040528060008152602001600081526020016000815260200160008152602001600081526020016000815260200160008152602001606081525090565b6000610676836115b2565b9050600081600481111561068c5761068c61525a565b146106d95760405162461bcd60e51b815260206004820152601460248201527f4954454d533a204e6f7420612020776561706f6e0000000000000000000000006044820152606401610611565b610565836118f4565b61070d6040518060800160405280600081526020016000815260200160008152602001606081525090565b6000610718836115b2565b9050600281600481111561072e5761072e61525a565b1461077b5760405162461bcd60e51b815260206004820152601360248201527f4954454d533a204e6f742061202041726d6f72000000000000000000000000006044820152606401610611565b610565836119df565b6107c46040518060e00160405280600081526020016000815260200160008152602001600081526020016000815260200160008152602001600081525090565b60006107cf83611aad565b90506108116040518060e00160405280600081526020016000815260200160008152602001600081526020016000815260200160008152602001600081525090565b61081961142b565b6001600160a01b031663fa1becc4856040518263ffffffff1660e01b815260040161084691815260200190565b602060405180830381865afa158015610863573d6000803e3d6000fd5b505050506040513d601f19601f8201168201806040525081019061088791906152b6565b1561098c57600061089785611b55565b805184519192506000916108ab91906152d8565b12156108b85760006108c6565b805183516108c691906152d8565b8252602080820151908401516000916108de916152d8565b12156108eb5760006108ff565b806020015183602001516108ff91906152d8565b60208301526040810151606084015160009161091a916152d8565b121561092757600061093b565b8060400151836060015161093b91906152d8565b604083015260608101516080840151600091610956916152d8565b1215610963576001610977565b8060600151836080015161097791906152d8565b60808301525060a08083015190820152610a5d565b602080830151908201528151815260608201516040820152610a226109af61142b565b6001600160a01b03166353d64640866040518263ffffffff1660e01b81526004016109dc91815260200190565b602060405180830381865afa1580156109f9573d6000803e3d6000fd5b505050506040513d601f19601f82011682018060405250810190610a1d9190615300565b611c3d565b806020019051810190610a359190615392565b6020015160608201526080808301519082015260a0808301519082015260e082015160c08201525b9392505050565b600080610a7083611cb2565b90506000610a7d85611aad565b90506000610a8a85611d71565b83519091506004811115610aa057610aa061525a565b60ff16600003610b11576000610ab586611e38565b60e084015160208501518451929091101592506001911115610ad5575060005b835160408401511115610ae6575060005b836060015183602001511115610afa575060005b818015610b045750805b15610b0e57600195505b50505b82516004811115610b2457610b2461525a565b60ff16600103610b95576000610b3986611ecd565b60e084015160208501518451929091101592506001911115610b59575060005b835160408401511115610b6a575060005b836060015183602001511115610b7e575060005b818015610b885750805b15610b9257600195505b50505b82516004811115610ba857610ba861525a565b60ff16600203610c19576000610bbd86611f62565b60e084015160208501518451929091101592506001911115610bdd575060005b835160408401511115610bee575060005b836060015183602001511115610c02575060005b818015610c0c5750805b15610c1657600195505b50505b82516004811115610c2c57610c2c61525a565b60ff166003036104d0576000610c4186611ff7565b60e084015160208501518451929091101592506001911115610c61575060005b835160408401511115610c72575060005b836060015183602001511115610c86575060005b818015610c905750805b15610c9a57600195505b505050505092915050565b6000826000610cb38261208c565b90508060600151610d065760405162461bcd60e51b815260206004820152601960248201527f436861726163746572206e6f7420696e207468652047616d65000000000000006044820152606401610611565b6000610d1061142b565b6001600160a01b031663777c2caf876040518263ffffffff1660e01b8152600401610d3d91815260200190565b602060405180830381865afa158015610d5a573d6000803e3d6000fd5b505050506040513d601f19601f82011682018060405250810190610d7e919061545a565b9050610d886104da565b6001600160a01b0316816001600160a01b031614610de85760405162461bcd60e51b815260206004820152601a60248201527f4954454d533a204e6f7420436861726163746572204f776e65720000000000006044820152606401610611565b6000610df261142b565b6001600160a01b031663cdaccbae876040518263ffffffff1660e01b8152600401610e1f91815260200190565b602060405180830381865afa158015610e3c573d6000803e3d6000fd5b505050506040513d601f19601f82011682018060405250810190610e609190615483565b6004811115610e7157610e7161525a565b905060ff8116610edc576000610e8f87610e8a8a612151565b6121bd565b9050868160018351610ea191906154a4565b81518110610eb157610eb1615270565b602002602001015103610ed657610ec8888261228c565b610ed188612300565b600195505b506110a2565b60001960ff821601610f39576000610ef787610e8a8a612370565b9050868160018351610f0991906154a4565b81518110610f1957610f19615270565b602002602001015103610ed657610f3088826123db565b610ed188612445565b7ffffffffffffffffffffffffffffffffffffffffffffffffffffffffffffffffe60ff821601610fb9576000610f7787610f728a6124b1565b61251d565b9050868160018351610f8991906154a4565b81518110610f9957610f99615270565b602002602001015103610ed657610fb08882612601565b610ed18861266b565b7ffffffffffffffffffffffffffffffffffffffffffffffffffffffffffffffffd60ff821601611034576000610ff287610f728a6126d7565b905086816001835161100491906154a4565b8151811061101457611014615270565b602002602001015103610ed65761102b8882612743565b610ed1886127ad565b60405162461bcd60e51b815260206004820152602160248201527f45515549504d454e543a20554e5245434f474e495a4544204954454d2054595060448201527f45000000000000000000000000000000000000000000000000000000000000006064820152608401610611565b6110ab87612819565b5050505092915050565b8160006110c18261208c565b905080606001516111145760405162461bcd60e51b815260206004820152601960248201527f436861726163746572206e6f7420696e207468652047616d65000000000000006044820152606401610611565b600061111e61142b565b6001600160a01b031663777c2caf866040518263ffffffff1660e01b815260040161114b91815260200190565b602060405180830381865afa158015611168573d6000803e3d6000fd5b505050506040513d601f19601f8201168201806040525081019061118c919061545a565b90506111966104da565b6001600160a01b0316816001600160a01b0316146111f65760405162461bcd60e51b815260206004820152601e60248201527f45515549504d454e543a204e6f7420436861726163746572204f776e657200006044820152606401610611565b6000805b85518110156114195785818151811061121557611215615270565b6020026020010151915061122761142b565b6001600160a01b031663b36341188361123e6104da565b6040517fffffffff0000000000000000000000000000000000000000000000000000000060e085901b16815260048101929092526001600160a01b03166024820152604401602060405180830381865afa1580156112a0573d6000803e3d6000fd5b505050506040513d601f19601f820116820180604052508101906112c491906152b6565b6113105760405162461bcd60e51b815260206004820152601960248201527f45515549504d454e543a204e6f74204974656d204f776e6572000000000000006044820152606401610611565b600061131b83611cb2565b90506004816000015160048111156113355761133561525a565b60ff16106113ab5760405162461bcd60e51b815260206004820152602160248201527f45515549504d454e543a204e6f7420616e2065717569707061626c652049746560448201527f6d000000000000000000000000000000000000000000000000000000000000006064820152608401610611565b6113b58884610a64565b6114015760405162461bcd60e51b815260206004820152601f60248201527f45515549504d454e543a20526571756972656d656e7473206e6f74206d6574006044820152606401610611565b61141088848360000151612a18565b506001016111fa565b5061142386612819565b505050505050565b60006104e4612c8c565b60008061144183611cb2565b805190915060048111156114575761145761525a565b60ff166000036114b557600061146c85612151565b905060005b81518110156103ef578482828151811061148d5761148d615270565b6020026020010151036114a357600193506103ef565b806114ad8161529c565b915050611471565b805160048111156114c8576114c861525a565b60ff166001036115265760006114dd85612370565b905060005b81518110156103ef57848282815181106114fe576114fe615270565b60200260200101510361151457600193506103ef565b8061151e8161529c565b9150506114e2565b805160048111156115395761153961525a565b60ff16600203156104d35760405162461bcd60e51b815260206004820152602160248201527f45515549504d454e543a20554e5245434f474e495a4544204954454d2054595060448201527f45000000000000000000000000000000000000000000000000000000000000006064820152608401610611565b604080516001808252818301909252600091829190602080830190803683370190505090508260001b816000815181106115ee576115ee615270565b602090810291909101015260006116467f746255440000000000000000000000004974656d73000000000000000000000083837e21020101200000000000000000000000000000000000000000000000000000612c96565b905060f881901c600481111561165e5761165e61525a565b949350505050565b60408051600180825281830190925260609160009190602080830190803683370190505090508260001b816000815181106116a3576116a3615270565b602090810291909101015260006116db7f74625544000000000000000000000000576561706f6e537461747300000000008383612d53565b905061165e6116ed8260008451612e12565b612ea0565b60408051600180825281830190925260609160009190602080830190803683370190505090508260001b8160008151811061172f5761172f615270565b602090810291909101015260006116db7f746255440000000000000000000000005370656c6c53746174730000000000008383612d53565b60408051600180825281830190925260609160009190602080830190803683370190505090508260001b816000815181106117a4576117a4615270565b602090810291909101015260006116db7f74625544000000000000000000000000436f6e73756d61626c655374617473008383612d53565b7fffffffffffffffffffffffffffffffffffffffffffffffffffffffffffffffcc36013560601c8061180b5750335b90565b6118476040518060c001604052806000815260200160008152602001600081526020016000815260200160008152602001600081525090565b604080516001808252818301909252600091602080830190803683370190505090508260001b8160008151811061188057611880615270565b6020908102919091010152600080806118d97f7462554400000000000000000000000041726d6f725374617473000000000000857ec0060020202020202000000000000000000000000000000000000000000000612eb1565b9250925092506118ea838383612f81565b9695505050505050565b61193c60405180610100016040528060008152602001600081526020016000815260200160008152602001600081526020016000815260200160008152602001606081525090565b604080516001808252818301909252600091602080830190803683370190505090508260001b8160008151811061197557611975615270565b6020908102919091010152600080806119ce7f74625544000000000000000000000000576561706f6e53746174730000000000857ee0070120202020202020000000000000000000000000000000000000000000612eb1565b9250925092506118ea838383612fe5565b611a0a6040518060800160405280600081526020016000815260200160008152602001606081525090565b604080516001808252818301909252600091602080830190803683370190505090508260001b81600081518110611a4357611a43615270565b602090810291909101015260008080611a9c7f746255440000000000000000000000005370656c6c5374617473000000000000857e60030120202000000000000000000000000000000000000000000000000000612eb1565b9250925092506118ea83838361306c565b611ab5614f63565b604080516001808252818301909252600091602080830190803683370190505090508281600081518110611aeb57611aeb615270565b602090810291909101015260008080611b447f7462554400000000000000000000000053746174730000000000000000000000857ee1080020200120202020200000000000000000000000000000000000000000612eb1565b9250925092506118ea8383836130c2565b611ba46040518061012001604052806000815260200160008152602001600081526020016000815260200160008152602001606081526020016060815260200160608152602001606081525090565b604080516001808252818301909252600091602080830190803683370190505090508281600081518110611bda57611bda615270565b602090810291909101015260008080611c2c6f43686172616374657245717569706d65631d18955160e21b01857ea0050420202020200000000000000000000000000000000000000000000000612eb1565b9250925092506118ea83838361313a565b60408051600180825281830190925260609160009190602080830190803683370190505090508260001b81600081518110611c7a57611c7a615270565b6020908102919091010152600061165e7f746255440000000000000000000000004d6f62730000000000000000000000008383612d53565b60408051606080820183526000808352602083015291810191909152604080516001808252818301909252600091602080830190803683370190505090508260001b81600081518110611d0757611d07615270565b602090810291909101015260008080611d607f746255440000000000000000000000004974656d730000000000000000000000857e21020101200000000000000000000000000000000000000000000000000000612eb1565b9250925092506118ea8383836131ce565b611d9560405180606001604052806000815260200160008152602001600081525090565b604080516001808252818301909252600091602080830190803683370190505090508260001b81600081518110611dce57611dce615270565b602090810291909101015260008080611e277f74625544000000000000000000000000537461745265737472696374696f6e73857e60030020202000000000000000000000000000000000000000000000000000612eb1565b9250925092506118ea838383613239565b604080516001808252818301909252600091829190602080830190803683370190505090508260001b81600081518110611e7457611e74615270565b6020908102919091010152600061165e7f74625544000000000000000000000000576561706f6e537461747300000000008360057ee0070120202020202020000000000000000000000000000000000000000000612c96565b604080516001808252818301909252600091829190602080830190803683370190505090508260001b81600081518110611f0957611f09615270565b6020908102919091010152600061165e7f7462554400000000000000000000000041726d6f7253746174730000000000008360047ec0060020202020202000000000000000000000000000000000000000000000612c96565b604080516001808252818301909252600091829190602080830190803683370190505090508260001b81600081518110611f9e57611f9e615270565b6020908102919091010152600061165e7f746255440000000000000000000000005370656c6c53746174730000000000008360027e60030120202000000000000000000000000000000000000000000000000000612c96565b604080516001808252818301909252600091829190602080830190803683370190505090508260001b8160008151811061203357612033615270565b6020908102919091010152600061165e7f74625544000000000000000000000000436f6e73756d61626c655374617473008360027e60030120202000000000000000000000000000000000000000000000000000612c96565b604080516080810182526000808252602082018190528183018190526060820181905282516001808252818501909452919290919081602001602082028036833701905050905082816000815181106120e7576120e7615270565b6020908102919091010152600080806121407f7462554400000000000000000000000043686172616374657273000000000000857e55040020142001000000000000000000000000000000000000000000000000612eb1565b9250925092506118ea838383613279565b6040805160018082528183019092526060916000919060208083019080368337019050509050828160008151811061218b5761218b615270565b602090810291909101015260006116db6f43686172616374657245717569706d65631d18955160e21b01836001612d53565b60606001825111156105685760005b825181101561228657838382815181106121e8576121e8615270565b602002602001015103612274576000836001855161220691906154a4565b8151811061221657612216615270565b602002602001015190508084838151811061223357612233615270565b60200260200101818152505084846001865161224f91906154a4565b8151811061225f5761225f615270565b60200260200101818152505083925050612286565b8061227e8161529c565b9150506121cc565b5061036e565b6040805160018082528183019092526000916020808301908036833701905050905082816000815181106122c2576122c2615270565b60209081029190910101526122fb6f43686172616374657245717569706d65631d18955160e21b018260016122f6866132c9565b6132d9565b505050565b60408051600180825281830190925260009160208083019080368337019050509050818160008151811061233657612336615270565b60200260200101818152505061236c6f43686172616374657245717569706d65631d18955160e21b0160001b826001602061338b565b5050565b604080516001808252818301909252606091600091906020808301908036833701905050905082816000815181106123aa576123aa615270565b602090810291909101015260006116db6f43686172616374657245717569706d65631d18955160e21b018383612d53565b60408051600180825281830190925260009160208083019080368337019050509050828160008151811061241157612411615270565b60209081029190910101526122fb6f43686172616374657245717569706d65631d18955160e21b018260006122f6866132c9565b60408051600180825281830190925260009160208083019080368337019050509050818160008151811061247b5761247b615270565b60200260200101818152505061236c6f43686172616374657245717569706d65631d18955160e21b0160001b826000602061338b565b604080516001808252818301909252606091600091906020808301908036833701905050905082816000815181106124eb576124eb615270565b602090810291909101015260006116db6f43686172616374657245717569706d65631d18955160e21b01836002612d53565b60608160005b81518110156125f9578482828151811061253f5761253f615270565b6020026020010151036125f157805b82518110156125eb5782516125648260016154b7565b10156125b157826125768260016154b7565b8151811061258657612586615270565b60200260200101518382815181106125a0576125a0615270565b6020026020010181815250506125e3565b82516125be8260016154b7565b106125e357858382815181106125d6576125d6615270565b6020026020010181815250505b60010161254e565b506125f9565b600101612523565b509392505050565b60408051600180825281830190925260009160208083019080368337019050509050828160008151811061263757612637615270565b60209081029190910101526122fb6f43686172616374657245717569706d65631d18955160e21b018260026122f6866132c9565b6040805160018082528183019092526000916020808301908036833701905050905081816000815181106126a1576126a1615270565b60200260200101818152505061236c6f43686172616374657245717569706d65631d18955160e21b0160001b826002602061338b565b6040805160018082528183019092526060916000919060208083019080368337019050509050828160008151811061271157612711615270565b602090810291909101015260006116db6f43686172616374657245717569706d65631d18955160e21b01836003612d53565b60408051600180825281830190925260009160208083019080368337019050509050828160008151811061277957612779615270565b60209081029190910101526122fb6f43686172616374657245717569706d65631d18955160e21b018260036122f6866132c9565b6040805160018082528183019092526000916020808301908036833701905050905081816000815181106127e3576127e3615270565b60200260200101818152505061236c6f43686172616374657245717569706d65631d18955160e21b0160001b826003602061338b565b600061282482612370565b9050600061283183612151565b905060008060008060006128746040518060c001604052806000815260200160008152602001600081526020016000815260200160008152602001600081525090565b6128bc60405180610100016040528060008152602001600081526020016000815260200160008152602001600081526020016000815260200160008152602001606081525090565b8851156129545760005b8951811015612952576128f18a82815181106128e4576128e4615270565b602002602001015161056e565b925082602001518861290391906152d8565b97508260a001518761291591906152d8565b835190975061292490876152d8565b955082606001518561293691906152d8565b945082604001518461294891906152d8565b93506001016128c6565b505b8751156129da5760005b88518110156129d85761298989828151811061297c5761297c615270565b6020026020010151610623565b91508160c001518761299b91906152d8565b82519097506129aa90876152d8565b95508160200151856129bc91906152d8565b94508160400151846129ce91906152d8565b935060010161295e565b505b6129e48a876133fe565b6129ee8a866134ab565b6129f88a85613523565b612a028a8461359b565b612a0c8a88613613565b50505050505050505050565b612a228383611435565b15612a6f5760405162461bcd60e51b815260206004820152601b60248201527f45515549504d454e543a20414c524541445920455155495050454400000000006044820152606401610611565b806004811115612a8157612a8161525a565b60ff16600003612aed576002612a968461368b565b10612ae35760405162461bcd60e51b815260206004820181905260248201527f4954454d533a20546f6f206d616e7920776561706f6e732065717569707065646044820152606401610611565b612aed8383613702565b806004811115612aff57612aff61525a565b60ff16600103612b6b576001612b148461378e565b10612b615760405162461bcd60e51b815260206004820152601e60248201527f4954454d533a20546f6f206d7563682061726d6f7220657175697070656400006044820152606401610611565b612b6b83836137f8565b806004811115612b7d57612b7d61525a565b60ff16600203612be9576003612b9284613870565b10612bdf5760405162461bcd60e51b815260206004820152601f60248201527f4954454d533a20546f6f206d616e79207370656c6c73206571756970706564006044820152606401610611565b612be983836138db565b806004811115612bfb57612bfb61525a565b60ff166004036122fb576003612c1084613953565b10612c825760405162461bcd60e51b8152602060048201526024808201527f4954454d533a20546f6f206d616e7920636f6e73756d61626c6573206571756960448201527f70706564000000000000000000000000000000000000000000000000000000006064820152608401610611565b6122fb83836139be565b60006104e4613a36565b600080612ca1613a36565b9050306001600160a01b03821603612cc757612cbf86868686613a75565b91505061165e565b6040517f8c364d590000000000000000000000000000000000000000000000000000000081526001600160a01b03821690638c364d5990612d129089908990899089906004016154ca565b602060405180830381865afa158015612d2f573d6000803e3d6000fd5b505050506040513d601f19601f82011682018060405250810190612cbf9190615300565b60606000612d5f613a36565b9050306001600160a01b03821603612d8457612d7c858585613aab565b915050610a5d565b6040517f1e7889770000000000000000000000000000000000000000000000000000000081526001600160a01b03821690631e78897790612dcd908890889088906004016154f9565b600060405180830381865afa158015612dea573d6000803e3d6000fd5b505050506040513d6000823e601f3d908101601f19168201604052612d7c91908101906155ad565b600081831180612e225750835182115b15612e5f578383836040517f23230fa30000000000000000000000000000000000000000000000000000000081526004016106119392919061560e565b60208401612e6d84826154b7565b90506000612e7b85856154a4565b6fffffffffffffffffffffffffffffffff1660809290921b9190911795945050505050565b60606000610a5d8360206000613ae5565b6060600060606000612ec1613a36565b9050306001600160a01b03821603612eea57612ede878787613b60565b93509350935050612f78565b6040517f419b58fd0000000000000000000000000000000000000000000000000000000081526001600160a01b0382169063419b58fd90612f33908a908a908a90600401615633565b600060405180830381865afa158015612f50573d6000803e3d6000fd5b505050506040513d6000823e601f3d908101601f19168201604052612ede919081019061565c565b93509350939050565b612fba6040518060c001604052806000815260200160008152602001600081526020016000815260200160008152602001600081525090565b612fc384613c68565b60a0870152608086015260608501526040840152602083015281529392505050565b61302d60405180610100016040528060008152602001600081526020016000815260200160008152602001600081526020016000815260200160008152602001606081525090565b61303684613cac565b60c088015260a0870152608086015260608501526040840152602083015281526130608383613cfa565b60e08201529392505050565b6130976040518060800160405280600081526020016000815260200160008152602001606081525090565b6130a084613d18565b6040840152602083015281526130b68383613cfa565b60608201529392505050565b6130ca614f63565b6130d384613d40565b60e0890181905260c0890182905260a0890183905260808901849052606089018590528860208101604082018860028111156131115761311161525a565b60028111156131225761312261525a565b90529790975250505093909252509195945050505050565b6131896040518061012001604052806000815260200160008152602001600081526020016000815260200160008152602001606081526020016060815260200160608152602001606081525090565b61319284613dae565b608086015260608501526040840152602083015281526131b28383613dea565b61010085015260e084015260c083015260a08201529392505050565b604080516060808201835260008083526020830152918101919091526131f384613e78565b602083018190528282600481111561320d5761320d61525a565b600481111561321e5761321e61525a565b815250505061322d8383613ea4565b60408201529392505050565b61325d60405180606001604052806000815260200160008152602001600081525090565b61326684613d18565b6040840152602083015281529392505050565b6040805160808101825260008082526020820181905291810182905260608101919091526132a684613ec7565b1515606085015260408401526001600160a01b0316602083015281529392505050565b6060816105658160206000613f01565b60006132e3613a36565b9050306001600160a01b038216036133065761330185858585613f55565b613384565b6040517fef6ea8620000000000000000000000000000000000000000000000000000000081526001600160a01b0382169063ef6ea862906133519088908890889088906004016156c9565b600060405180830381600087803b15801561336b57600080fd5b505af115801561337f573d6000803e3d6000fd5b505050505b5050505050565b6000613395613a36565b9050306001600160a01b038216036133b35761330185858585613f90565b6040517fd9c03a040000000000000000000000000000000000000000000000000000000081526001600160a01b0382169063d9c03a04906133519088908890889088906004016154ca565b60408051600180825281830190925260009160208083019080368337019050509050828160008151811061343457613434615270565b6020026020010181815250506122fb6f43686172616374657245717569706d65631d18955160e21b0160001b8260008560405160200161347691815260200190565b60408051601f198184030181529190527ea0050420202020200000000000000000000000000000000000000000000000613fe9565b6040805160018082528183019092526000916020808301908036833701905050905082816000815181106134e1576134e1615270565b6020026020010181815250506122fb6f43686172616374657245717569706d65631d18955160e21b0160001b8260018560405160200161347691815260200190565b60408051600180825281830190925260009160208083019080368337019050509050828160008151811061355957613559615270565b6020026020010181815250506122fb6f43686172616374657245717569706d65631d18955160e21b0160001b8260028560405160200161347691815260200190565b6040805160018082528183019092526000916020808301908036833701905050905082816000815181106135d1576135d1615270565b6020026020010181815250506122fb6f43686172616374657245717569706d65631d18955160e21b0160001b8260038560405160200161347691815260200190565b60408051600180825281830190925260009160208083019080368337019050509050828160008151811061364957613649615270565b6020026020010181815250506122fb6f43686172616374657245717569706d65631d18955160e21b0160001b8260048560405160200161347691815260200190565b6040805160018082528183019092526000918291906020808301908036833701905050905082816000815181106136c4576136c4615270565b602090810291909101015260006136f66f43686172616374657245717569706d65631d18955160e21b01836001614092565b60209004949350505050565b60408051600180825281830190925260009160208083019080368337019050509050828160008151811061373857613738615270565b6020026020010181815250506122fb6f43686172616374657245717569706d65631d18955160e21b0160001b8260018560405160200161377a91815260200190565b604051602081830303815290604052614144565b6040805160018082528183019092526000918291906020808301908036833701905050905082816000815181106137c7576137c7615270565b602090810291909101015260006136f66f43686172616374657245717569706d65631d18955160e21b018383614092565b60408051600180825281830190925260009160208083019080368337019050509050828160008151811061382e5761382e615270565b6020026020010181815250506122fb6f43686172616374657245717569706d65631d18955160e21b0160001b8260008560405160200161377a91815260200190565b6040805160018082528183019092526000918291906020808301908036833701905050905082816000815181106138a9576138a9615270565b602090810291909101015260006136f66f43686172616374657245717569706d65631d18955160e21b01836002614092565b60408051600180825281830190925260009160208083019080368337019050509050828160008151811061391157613911615270565b6020026020010181815250506122fb6f43686172616374657245717569706d65631d18955160e21b0160001b8260028560405160200161377a91815260200190565b60408051600180825281830190925260009182919060208083019080368337019050509050828160008151811061398c5761398c615270565b602090810291909101015260006136f66f43686172616374657245717569706d65631d18955160e21b01836003614092565b6040805160018082528183019092526000916020808301908036833701905050905082816000815181106139f4576139f4615270565b6020026020010181815250506122fb6f43686172616374657245717569706d65631d18955160e21b0160001b8260038560405160200161377a91815260200190565b7f629a4c26e296b22a8e0856e9f6ecb2d1008d7e00081111962cd175fa7488e175546000906001600160a01b031680613a70573391505090565b919050565b6000613aa2613a8486866141b7565b60ff858116601b0360080285901c16613a9d858761420d565b61423e565b95945050505050565b606061165e613abb85858561428f565b6000613ae085613acb898961430f565b9060ff166028026038011c64ffffffffff1690565b614322565b60606000613af38560801c90565b90506fffffffffffffffffffffffffffffffff85166000858281613b1957613b19615708565b04905060405193506020840160208202810160405281855260005b82811015613b54578451871c825293870193602090910190600101613b34565b50505050509392505050565b6060600060606000613b7185614345565b9050613b7e878783614368565b93506000613b8b866143a1565b90508015613c5d57613b9d888861430f565b935066ffffffffffffff841667ffffffffffffffff811115613bc157613bc1615123565b6040519080825280601f01601f191660200182016040528015613beb576020820181803683370190505b5092506020830160005b828160ff161015613c5a576000613c0d8b8b8461428f565b90506000613c2a888460ff166028026038011c64ffffffffff1690565b9050613c3982600083876143de565b613c4381856154b7565b935050508080613c529061571e565b915050613bf5565b50505b505093509350939050565b600080600080600080613c7f876000016020015190565b6040880151606089015160808a015160a08b015160c0909b0151939b929a91995097509550909350915050565b6000806000806000806000613cc5886000016020015190565b604089015160608a015160808b015160a08c015160c08d015160e0909d0151949d939c929b5090995097509550909350915050565b60606000603884901c64ffffffffff16613aa26116ed858484612e12565b6000806000613d2b846000016020015190565b60408501516060909501519095909350915050565b600080600080600080600080613d5a896000016020015190565b60408a015160608b0151919950975060f81c6002811115613d7d57613d7d61525a565b60618a015160818b015160a18c015160c18d015160e1909d01519b9d9a9c939b929a91995097509195509350915050565b6000806000806000613dc4866000016020015190565b60408701516060880151608089015160a090990151929991989097509550909350915050565b60608080806000603887901c64ffffffffff16613e0b6116ed888484612e12565b955090508064ffffffffff606089901c1601613e2b6116ed888484612e12565b945090508064ffffffffff608889901c1601613e4b6116ed888484612e12565b935090508064ffffffffff60b089901c1601613e6b6116ed888484612e12565b9250505092959194509250565b6020810151600090819060f81c6004811115613e9657613e9661525a565b602193909301519293915050565b60606000603884901c64ffffffffff16613aa2613ec2858484612e12565b6144a9565b600080600080613edb856000016020015190565b6040860151605487015191955060601c9350607486015190925060f81c90509193509193565b82516060906000613f12858361573d565b9050604051925060208301601f19603f83860101166040528184526000602088015b84821015613b54578051871b83529187019160019190910190602001613f34565b6000613f61858561430f565b90506000613f7e828560ff166028026038011c64ffffffffff1690565b90506114238686866000858888614529565b6000613f9c858561430f565b90506000613fb9828560ff166028026038011c64ffffffffff1690565b9050611423868686613fd28764ffffffffff87166154a4565b604080516000815260208101909152889088614529565b6000613ff3613a36565b9050306001600160a01b03821603614017576140128686868686614963565b611423565b6040517f390baae00000000000000000000000000000000000000000000000000000000081526001600160a01b0382169063390baae0906140649089908990899089908990600401615754565b600060405180830381600087803b15801561407e57600080fd5b505af1158015612a0c573d6000803e3d6000fd5b60008061409d613a36565b9050306001600160a01b038216036140ba57612d7c858585614978565b6040517fdbbf0e210000000000000000000000000000000000000000000000000000000081526001600160a01b0382169063dbbf0e2190614103908890889088906004016154f9565b602060405180830381865afa158015614120573d6000803e3d6000fd5b505050506040513d601f19601f82011682018060405250810190612d7c9190615300565b600061414e613a36565b9050306001600160a01b0382160361416c5761330185858585614988565b6040517f150f32620000000000000000000000000000000000000000000000000000000081526001600160a01b0382169063150f3262906133519088908890889088906004016156c9565b600082826040516020016141cc92919061579b565b60408051601f1981840301815291905280516020909101207f86425bff6b57326c7859e89024fe4f238ca327a1ae4a230180dd2f0e88aaa7d9189392505050565b600080805b8360ff168110156125f95761423460ff601b83900360080287901c16836154b7565b9150600101614212565b6000602082106142645760208204840193506020828161426057614260615708565b0691505b508254600882021b6020829003808411156125f9576001850154600882021c82179150509392505050565b600083836040516020016142a492919061579b565b604051602081830303815290604052805190602001208260f81b7effffffffffffffffffffffffffffffffffffffffffffffffffffffffffffff19167f3b4102da22e32d82fc925482184f16c09fd4281692720b87d124aef6da48a0f1181860001c90509392505050565b6000610a5d61431e84846149c3565b5490565b60405160208101601f19603f84840101166040528282526125f9858585846143de565b60006008614355600260206154a4565b61435f919061573d565b9190911c919050565b6060816000036143875750604080516020810190915260008152610a5d565b600061439385856141b7565b9050613aa281600085614322565b600060086001806143b4600260206154a4565b6143be91906154a4565b6143c891906154a4565b6143d2919061573d565b8260ff911c1692915050565b821561446557602083106144085760208304840193506020838161440457614404615708565b0692505b821561446557602083900360008184101561442b5750600019600884021c614435565b50600019600882021c5b8554600886021b8184511682198216178452508184116144565750506144a3565b50600194909401939182900391015b5b602082106144875783548152600190930192601f1990910190602001614466565b81156144a35780518454600019600885021c9182169119161781525b50505050565b606060006144b78360801c90565b90506fffffffffffffffffffffffffffffffff83168067ffffffffffffffff8111156144e5576144e5615123565b6040519080825280601f01601f19166020018201604052801561450f576020820181803683370190505b50925060208301614521838284614a19565b505050919050565b7f7462000000000000000000000000000000000000000000000000000000000000877fffff00000000000000000000000000000000000000000000000000000000000016146145e9577f746200000000000000000000000000000000000000000000000000000000000087886040516020016145a791815260200190565b60408051601f19818403018152908290527f31b466830000000000000000000000000000000000000000000000000000000082526106119392916004016157d7565b6000614604828760ff166028026038011c64ffffffffff1690565b9050600083518564ffffffffff168361461d91906154a4565b61462791906154b7565b905080821415801561464957508161463f8688615818565b64ffffffffff1614155b15614699576040517fa65010b400000000000000000000000000000000000000000000000000000000815264ffffffffff8088166004830152808716602483015283166044820152606401610611565b818664ffffffffff1611156146ea576040517f7e8578d30000000000000000000000000000000000000000000000000000000081526004810183905264ffffffffff87166024820152604401610611565b60006146f7848984614a64565b905060006147048b614b32565b905060005b81518110156147cf57600082828151811061472657614726615270565b602002602001015190506147526010826affffffffffffffffffffff1916614bbb90919063ffffffff16565b156147c657606081901c6001600160a01b03166355eb5a288e8e8e8e8e8d8f6040518863ffffffff1660e01b81526004016147939796959493929190615836565b600060405180830381600087803b1580156147ad57600080fd5b505af11580156147c1573d6000803e3d6000fd5b505050505b50600101614709565b5064ffffffffff881660005b8a60ff168160ff16101561480e57614802878260ff166028026038011c64ffffffffff1690565b909101906001016147db565b508b7ffe158a7adba34e256807c8a149028d3162918713c3838afc643ce9f96716ebfd8c8c848c888d60405161484996959493929190615894565b60405180910390a25082841461486a5760006148658c8c6149c3565b839055505b60006148778c8c8c61428f565b905061488b818a64ffffffffff1689614bd9565b5060005b81518110156149555760008282815181106148ac576148ac615270565b602002602001015190506148d86020826affffffffffffffffffffff1916614bbb90919063ffffffff16565b1561494c57606081901c6001600160a01b031663635845338e8e8e8e8e8a8f6040518863ffffffff1660e01b81526004016149199796959493929190615836565b600060405180830381600087803b15801561493357600080fd5b505af1158015614947573d6000803e3d6000fd5b505050505b5060010161488f565b505050505050505050505050565b6133848585614972848761420d565b85614bef565b600061165e82613acb868661430f565b6000614994858561430f565b905060006149b1828560ff166028026038011c64ffffffffff1690565b90506114238686868460008888614529565b600082826040516020016149d892919061579b565b60408051601f1981840301815291905280516020909101207f14e2fcc58e58e68ec7edc30c8d50dccc3ce2714a623ec81f46b6a63922d76569189392505050565b5b60208110614a39578251825260209283019290910190601f1901614a1a565b80600003614a4657505050565b6000600019600883021c905080835116811985511617835250505050565b600064ffffffffff821115614aa8576040517f7149a3c100000000000000000000000000000000000000000000000000000000815260048101839052602401610611565b8366ffffffffffffff811660ff851660280260380182901c64ffffffffff16808510614ada5780850382019150614ae2565b848103820391505b5064ffffffffff6038602860ff8816020181811b197fffffffffffffffffffffffffffffffffffffffffffffffffff000000000000009490941690921792909216918416901b1790509392505050565b60408051600180825281830190925260609160009190602080830190803683370190505090508281600081518110614b6c57614b6c615270565b60209081029190910101526000614ba47f746273746f726500000000000000000053746f7265486f6f6b730000000000008383613aab565b905061165e614bb68260008451612e12565b614e93565b60008160ff1682614bcc8560581c90565b1660ff1614905092915050565b6122fb83838351614bea8560200190565b614ea4565b7f6f74000000000000000000000000000000000000000000000000000000000000847fffff0000000000000000000000000000000000000000000000000000000000001603614c7957837f8c0b5119d4cec7b284c6b1b39252a03d1e2f2d7451a5895562524c113bb952be848484604051614c6c939291906158f0565b60405180910390a26144a3565b6000614c8585856141b7565b90506000614c9286614b32565b905060005b8151811015614d67576000828281518110614cb457614cb4615270565b60200260200101519050614ce06004826affffffffffffffffffffff1916614bbb90919063ffffffff16565b15614d5e576040517f964f667d000000000000000000000000000000000000000000000000000000008152606082901c9063964f667d90614d2b908b908b908b908b90600401615923565b600060405180830381600087803b158015614d4557600080fd5b505af1158015614d59573d6000803e3d6000fd5b505050505b50600101614c97565b50857f8c0b5119d4cec7b284c6b1b39252a03d1e2f2d7451a5895562524c113bb952be868686604051614d9c939291906158f0565b60405180910390a2614db7828565ffffffffffff1685614bd9565b60005b8151811015614e8a576000828281518110614dd757614dd7615270565b60200260200101519050614e036008826affffffffffffffffffffff1916614bbb90919063ffffffff16565b15614e81576040517fa8ba8721000000000000000000000000000000000000000000000000000000008152606082901c9063a8ba872190614e4e908b908b908b908b90600401615923565b600060405180830381600087803b158015614e6857600080fd5b505af1158015614e7c573d6000803e3d6000fd5b505050505b50600101614dba565b50505050505050565b60606000610a5d8360156000613ae5565b8215614f1e5760208310614ece57602083048401935060208381614eca57614eca615708565b0692505b8215614f1e5760208390036000600019600885021c1990506008850281811c91508351811c9050811987541682821617875550818411614f0f5750506144a3565b50600194909401939182900391015b5b60208210614f405780518455600190930192601f1990910190602001614f1f565b81156144a3576000600019600884021c8554835182191691161785555050505050565b604051806101000160405280600081526020016000815260200160006002811115614f9057614f9061525a565b815260200160008152602001600081526020016000815260200160008152602001600081525090565b600060208284031215614fcb57600080fd5b81357fffffffff0000000000000000000000000000000000000000000000000000000081168114610a5d57600080fd5b6000806040838503121561500e57600080fd5b50508035926020909101359150565b60006020828403121561502f57600080fd5b5035919050565b60008151808452602080850194506020840160005b838110156150675781518752958201959082019060010161504b565b509495945050505050565b602081526000610a5d6020830184615036565b6020815281516020820152602082015160408201526040820151606082015260608201516080820152608082015160a082015260a082015160c082015260c082015160e0820152600060e083015161010080818501525061165e610120840182615036565b602081528151602082015260208201516040820152604082015160608201526000606083015160808084015261165e60a0840182615036565b634e487b7160e01b600052604160045260246000fd5b604051610120810167ffffffffffffffff8111828210171561515d5761515d615123565b60405290565b604051601f8201601f1916810167ffffffffffffffff8111828210171561518c5761518c615123565b604052919050565b600067ffffffffffffffff8211156151ae576151ae615123565b5060051b60200190565b600080604083850312156151cb57600080fd5b8235915060208084013567ffffffffffffffff8111156151ea57600080fd5b8401601f810186136151fb57600080fd5b803561520e61520982615194565b615163565b81815260059190911b8201830190838101908883111561522d57600080fd5b928401925b8284101561524b57833582529284019290840190615232565b80955050505050509250929050565b634e487b7160e01b600052602160045260246000fd5b634e487b7160e01b600052603260045260246000fd5b634e487b7160e01b600052601160045260246000fd5b600060001982036152af576152af615286565b5060010190565b6000602082840312156152c857600080fd5b81518015158114610a5d57600080fd5b80820182811260008312801582168215821617156152f8576152f8615286565b505092915050565b60006020828403121561531257600080fd5b5051919050565b805160038110613a7057600080fd5b600082601f83011261533957600080fd5b8151602061534961520983615194565b8083825260208201915060208460051b87010193508684111561536b57600080fd5b602086015b848110156153875780518352918301918301615370565b509695505050505050565b6000602082840312156153a457600080fd5b815167ffffffffffffffff808211156153bc57600080fd5b9083019061012082860312156153d157600080fd5b6153d9615139565b82518152602083015160208201526153f360408401615319565b6040820152606083015160608201526080830151608082015260a083015160a082015260c08301518281111561542857600080fd5b61543487828601615328565b60c08301525060e083810151908201526101009283015192810192909252509392505050565b60006020828403121561546c57600080fd5b81516001600160a01b0381168114610a5d57600080fd5b60006020828403121561549557600080fd5b815160058110610a5d57600080fd5b8181038181111561036e5761036e615286565b8082018082111561036e5761036e615286565b8481526080602082015260006154e36080830186615036565b60ff949094166040830152506060015292915050565b8381526060602082015260006155126060830185615036565b905060ff83166040830152949350505050565b60005b83811015615540578181015183820152602001615528565b50506000910152565b600082601f83011261555a57600080fd5b815167ffffffffffffffff81111561557457615574615123565b6155876020601f19601f84011601615163565b81815284602083860101111561559c57600080fd5b61165e826020830160208701615525565b6000602082840312156155bf57600080fd5b815167ffffffffffffffff8111156155d657600080fd5b61165e84828501615549565b600081518084526155fa816020860160208601615525565b601f01601f19169290920160200192915050565b60608152600061562160608301866155e2565b60208301949094525060400152919050565b83815260606020820152600061564c6060830185615036565b9050826040830152949350505050565b60008060006060848603121561567157600080fd5b835167ffffffffffffffff8082111561568957600080fd5b61569587838801615549565b94506020860151935060408601519150808211156156b257600080fd5b506156bf86828701615549565b9150509250925092565b8481526080602082015260006156e26080830186615036565b60ff8516604084015282810360608401526156fd81856155e2565b979650505050505050565b634e487b7160e01b600052601260045260246000fd5b600060ff821660ff810361573457615734615286565b60010192915050565b808202811582820484141761036e5761036e615286565b85815260a06020820152600061576d60a0830187615036565b60ff86166040840152828103606084015261578881866155e2565b9150508260808301529695505050505050565b8281526000602080830184516020860160005b828110156157ca578151845292840192908401906001016157ae565b5091979650505050505050565b7fffff00000000000000000000000000000000000000000000000000000000000084168152826020820152606060408201526000613aa260608301846155e2565b64ffffffffff8181168382160190808211156104d3576104d3615286565b87815260e06020820152600061584f60e0830189615036565b60ff8816604084015264ffffffffff87811660608501528616608084015260a0830185905282810360c084015261588681856155e2565b9a9950505050505050505050565b60c0815260006158a760c0830189615036565b60ff8816602084015265ffffffffffff8716604084015264ffffffffff8616606084015284608084015282810360a08401526158e381856155e2565b9998505050505050505050565b6060815260006159036060830186615036565b65ffffffffffff8516602084015282810360408401526118ea81856155e2565b84815260806020820152600061593c6080830186615036565b65ffffffffffff8516604084015282810360608401526156fd81856155e256fea26469706673582212209589b26147dcd276d4f7a9e46441b5234b05df2c77a8013212002a9e096faf5564736f6c63430008180033","linkReferences":{}},"methodIdentifiers":{"_msgSender()":"119df25f","_msgValue()":"45ec9354","_world()":"e1af802c","applyEquipmentBonuses(bytes32)":"9056fa28","checkItemEffect(uint256,bytes32)":"0254f24b","checkRequirements(bytes32,uint256)":"9a8bb9a2","equipItems(bytes32,uint256[])":"cc77a2de","getArmorStats(uint256)":"40a5ed2a","getItemEffects(uint256)":"38a5aae6","getSpellStats(uint256)":"6479f09f","getWeaponStats(uint256)":"63ff2287","isEquipped(bytes32,uint256)":"edcfef82","supportsInterface(bytes4)":"01ffc9a7","unequipItem(bytes32,uint256)":"b2aca84b"},"id":255}