{"abi":[{"type":"function","name":"_msgSender","inputs":[],"outputs":[{"name":"sender","type":"address","internalType":"address"}],"stateMutability":"view"},{"type":"function","name":"_msgValue","inputs":[],"outputs":[{"name":"value","type":"uint256","internalType":"uint256"}],"stateMutability":"pure"},{"type":"function","name":"_world","inputs":[],"outputs":[{"name":"","type":"address","internalType":"address"}],"stateMutability":"view"},{"type":"function","name":"calculateEquipmentBonuses","inputs":[{"name":"entityId","type":"bytes32","internalType":"bytes32"}],"outputs":[{"name":"","type":"tuple","internalType":"struct AdjustedCombatStats","components":[{"name":"strength","type":"int256","internalType":"int256"},{"name":"agility","type":"int256","internalType":"int256"},{"name":"intelligence","type":"int256","internalType":"int256"},{"name":"armor","type":"int256","internalType":"int256"},{"name":"maxHp","type":"int256","internalType":"int256"},{"name":"currentHp","type":"int256","internalType":"int256"}]}],"stateMutability":"nonpayable"},{"type":"function","name":"checkItemEffect","inputs":[{"name":"itemId","type":"uint256","internalType":"uint256"},{"name":"effectId","type":"bytes32","internalType":"bytes32"}],"outputs":[{"name":"hasAction","type":"bool","internalType":"bool"}],"stateMutability":"view"},{"type":"function","name":"checkRequirements","inputs":[{"name":"characterId","type":"bytes32","internalType":"bytes32"},{"name":"itemId","type":"uint256","internalType":"uint256"}],"outputs":[{"name":"canUse","type":"bool","internalType":"bool"}],"stateMutability":"view"},{"type":"function","name":"equipItems","inputs":[{"name":"characterId","type":"bytes32","internalType":"bytes32"},{"name":"itemIds","type":"uint256[]","internalType":"uint256[]"}],"outputs":[],"stateMutability":"nonpayable"},{"type":"function","name":"getArmorStats","inputs":[{"name":"itemId","type":"uint256","internalType":"uint256"}],"outputs":[{"name":"_ArmorStats","type":"tuple","internalType":"struct ArmorStatsData","components":[{"name":"agiModifier","type":"int256","internalType":"int256"},{"name":"armorModifier","type":"int256","internalType":"int256"},{"name":"hpModifier","type":"int256","internalType":"int256"},{"name":"intModifier","type":"int256","internalType":"int256"},{"name":"minLevel","type":"uint256","internalType":"uint256"},{"name":"strModifier","type":"int256","internalType":"int256"}]}],"stateMutability":"view"},{"type":"function","name":"getCombatStats","inputs":[{"name":"entityId","type":"bytes32","internalType":"bytes32"}],"outputs":[{"name":"modifiedStats","type":"tuple","internalType":"struct AdjustedCombatStats","components":[{"name":"strength","type":"int256","internalType":"int256"},{"name":"agility","type":"int256","internalType":"int256"},{"name":"intelligence","type":"int256","internalType":"int256"},{"name":"armor","type":"int256","internalType":"int256"},{"name":"maxHp","type":"int256","internalType":"int256"},{"name":"currentHp","type":"int256","internalType":"int256"}]}],"stateMutability":"nonpayable"},{"type":"function","name":"getConsumableStats","inputs":[{"name":"itemId","type":"uint256","internalType":"uint256"}],"outputs":[{"name":"_consumableStats","type":"tuple","internalType":"struct ConsumableStatsData","components":[{"name":"minDamage","type":"int256","internalType":"int256"},{"name":"maxDamage","type":"int256","internalType":"int256"},{"name":"minLevel","type":"uint256","internalType":"uint256"},{"name":"effects","type":"bytes32[]","internalType":"bytes32[]"}]}],"stateMutability":"view"},{"type":"function","name":"getItemEffects","inputs":[{"name":"itemId","type":"uint256","internalType":"uint256"}],"outputs":[{"name":"effects","type":"bytes32[]","internalType":"bytes32[]"}],"stateMutability":"view"},{"type":"function","name":"getSpellStats","inputs":[{"name":"itemId","type":"uint256","internalType":"uint256"}],"outputs":[{"name":"_spellStats","type":"tuple","internalType":"struct SpellStatsData","components":[{"name":"minDamage","type":"int256","internalType":"int256"},{"name":"maxDamage","type":"int256","internalType":"int256"},{"name":"minLevel","type":"uint256","internalType":"uint256"},{"name":"effects","type":"bytes32[]","internalType":"bytes32[]"}]}],"stateMutability":"view"},{"type":"function","name":"getWeaponStats","inputs":[{"name":"itemId","type":"uint256","internalType":"uint256"}],"outputs":[{"name":"_weaponStats","type":"tuple","internalType":"struct WeaponStatsData","components":[{"name":"agiModifier","type":"int256","internalType":"int256"},{"name":"intModifier","type":"int256","internalType":"int256"},{"name":"hpModifier","type":"int256","internalType":"int256"},{"name":"maxDamage","type":"int256","internalType":"int256"},{"name":"minDamage","type":"int256","internalType":"int256"},{"name":"minLevel","type":"uint256","internalType":"uint256"},{"name":"strModifier","type":"int256","internalType":"int256"},{"name":"effects","type":"bytes32[]","internalType":"bytes32[]"}]}],"stateMutability":"view"},{"type":"function","name":"isEquipped","inputs":[{"name":"characterId","type":"bytes32","internalType":"bytes32"},{"name":"itemId","type":"uint256","internalType":"uint256"}],"outputs":[{"name":"_isEquipped","type":"bool","internalType":"bool"}],"stateMutability":"view"},{"type":"function","name":"supportsInterface","inputs":[{"name":"interfaceId","type":"bytes4","internalType":"bytes4"}],"outputs":[{"name":"","type":"bool","internalType":"bool"}],"stateMutability":"pure"},{"type":"function","name":"unequipItem","inputs":[{"name":"characterId","type":"bytes32","internalType":"bytes32"},{"name":"itemId","type":"uint256","internalType":"uint256"}],"outputs":[{"name":"success","type":"bool","internalType":"bool"}],"stateMutability":"nonpayable"},{"type":"event","name":"Store_SetRecord","inputs":[{"name":"tableId","type":"bytes32","indexed":true,"internalType":"ResourceId"},{"name":"keyTuple","type":"bytes32[]","indexed":false,"internalType":"bytes32[]"},{"name":"staticData","type":"bytes","indexed":false,"internalType":"bytes"},{"name":"encodedLengths","type":"bytes32","indexed":false,"internalType":"EncodedLengths"},{"name":"dynamicData","type":"bytes","indexed":false,"internalType":"bytes"}],"anonymous":false},{"type":"event","name":"Store_SpliceDynamicData","inputs":[{"name":"tableId","type":"bytes32","indexed":true,"internalType":"ResourceId"},{"name":"keyTuple","type":"bytes32[]","indexed":false,"internalType":"bytes32[]"},{"name":"dynamicFieldIndex","type":"uint8","indexed":false,"internalType":"uint8"},{"name":"start","type":"uint48","indexed":false,"internalType":"uint48"},{"name":"deleteCount","type":"uint40","indexed":false,"internalType":"uint40"},{"name":"encodedLengths","type":"bytes32","indexed":false,"internalType":"EncodedLengths"},{"name":"data","type":"bytes","indexed":false,"internalType":"bytes"}],"anonymous":false},{"type":"error","name":"EncodedLengths_InvalidLength","inputs":[{"name":"length","type":"uint256","internalType":"uint256"}]},{"type":"error","name":"Slice_OutOfBounds","inputs":[{"name":"data","type":"bytes","internalType":"bytes"},{"name":"start","type":"uint256","internalType":"uint256"},{"name":"end","type":"uint256","internalType":"uint256"}]},{"type":"error","name":"Store_IndexOutOfBounds","inputs":[{"name":"length","type":"uint256","internalType":"uint256"},{"name":"accessedIndex","type":"uint256","internalType":"uint256"}]},{"type":"error","name":"Store_InvalidResourceType","inputs":[{"name":"expected","type":"bytes2","internalType":"bytes2"},{"name":"resourceId","type":"bytes32","internalType":"ResourceId"},{"name":"resourceIdString","type":"string","internalType":"string"}]},{"type":"error","name":"Store_InvalidSplice","inputs":[{"name":"startWithinField","type":"uint40","internalType":"uint40"},{"name":"deleteCount","type":"uint40","internalType":"uint40"},{"name":"fieldLength","type":"uint40","internalType":"uint40"}]}],"bytecode":{"object":"0x608060405234801561001057600080fd5b50615eee80620000216000396000f3fe608060405234801561001057600080fd5b50600436106101005760003560e01c80636479f09f11610097578063cc77a2de11610066578063cc77a2de1461028b578063d99508f2146102a0578063e1af802c146102b3578063edcfef82146102bb57600080fd5b80636479f09f146102325780638bcc358e146102455780639a8bb9a214610265578063b2aca84b1461027857600080fd5b80633a0208e7116100d35780633a0208e71461018057806340a5ed2a146101a057806345ec9354146101ff57806363ff22871461021257600080fd5b806301ffc9a7146101055780630254f24b1461012d578063119df25f1461014057806338a5aae614610160575b600080fd5b610118610113366004615417565b6102ce565b60405190151581526020015b60405180910390f35b61011861013b366004615459565b610367565b6101486104cd565b6040516001600160a01b039091168152602001610124565b61017361016e36600461547b565b6104dc565b60405161012491906154d0565b61019361018e36600461547b565b610561565b6040516101249190615516565b6101b36101ae36600461547b565b610608565b6040516101249190600060c082019050825182526020830151602083015260408301516040830152606083015160608301526080830151608083015260a083015160a083015292915050565b604051601f193601358152602001610124565b61022561022036600461547b565b6106b8565b6040516101249190615529565b61019361024036600461547b565b610777565b61025861025336600461547b565b6107ab565b604051610124919061558e565b610118610273366004615459565b6109f2565b610118610286366004615459565b610c39565b61029e610299366004615642565b61114d565b005b6102586102ae36600461547b565b6114a5565b6101486115f3565b6101186102c9366004615459565b6115fd565b60007fffffffff0000000000000000000000000000000000000000000000000000000082167fb5dee12700000000000000000000000000000000000000000000000000000000148061036157507fffffffff0000000000000000000000000000000000000000000000000000000082167f01ffc9a700000000000000000000000000000000000000000000000000000000145b92915050565b600080610373846117c3565b90506000816004811115610389576103896156f4565b036103e957600061039985611877565b905060005b81518110156103e2578181815181106103b9576103b961570a565b602002602001015185036103d057600193506103e2565b806103da81615736565b91505061039e565b50506104c6565b60028160048111156103fd576103fd6156f4565b0361045657600061040d85611903565b905060005b81518110156103e25781818151811061042d5761042d61570a565b6020026020010151850361044457600193506103e2565b8061044e81615736565b915050610412565b600381600481111561046a5761046a6156f4565b036104c657600061047a85611978565b905060005b81518110156104c35781818151811061049a5761049a61570a565b602002602001015185036104b157600193506104c3565b806104bb81615736565b91505061047f565b50505b5092915050565b60006104d76119ed565b905090565b606060006104e9836117c3565b905060008160048111156104ff576104ff6156f4565b036105145761050d83611877565b915061055b565b6002816004811115610528576105286156f4565b036105365761050d83611903565b600381600481111561054a5761054a6156f4565b0361055b5761055883611978565b91505b50919050565b61058c6040518060800160405280600081526020016000815260200160008152602001606081525090565b6000610597836117c3565b905060038160048111156105ad576105ad6156f4565b146105ff5760405162461bcd60e51b815260206004820152601560248201527f4954454d533a204e6f7420436f6e73756d61626c65000000000000000000000060448201526064015b60405180910390fd5b61055883611a1f565b6106416040518060c001604052806000815260200160008152602001600081526020016000815260200160008152602001600081525090565b600061064c836117c3565b90506001816004811115610662576106626156f4565b146106af5760405162461bcd60e51b815260206004820152601360248201527f4954454d533a204e6f742061202041726d6f720000000000000000000000000060448201526064016105f6565b61055883611af7565b61070060405180610100016040528060008152602001600081526020016000815260200160008152602001600081526020016000815260200160008152602001606081525090565b600061070b836117c3565b90506000816004811115610721576107216156f4565b1461076e5760405162461bcd60e51b815260206004820152601460248201527f4954454d533a204e6f7420612020776561706f6e00000000000000000000000060448201526064016105f6565b61055883611bd3565b6107a26040518060800160405280600081526020016000815260200160008152602001606081525090565b61036182611cbe565b6107e46040518060c001604052806000815260200160008152602001600081526020016000815260200160008152602001600081525090565b6107ec6115f3565b6001600160a01b031663fa1becc4836040518263ffffffff1660e01b815260040161081991815260200190565b602060405180830381865afa158015610836573d6000803e3d6000fd5b505050506040513d601f19601f8201168201806040525081019061085a9190615750565b156108b457600061086a83611d7b565b80602001905181019061087d9190615772565b80518352602080820151908401526060810151604084015290506108a083611dee565b606083015260809081015190820152919050565b6108bc6115f3565b6001600160a01b031663bace814a836040518263ffffffff1660e01b81526004016108e991815260200190565b602060405180830381865afa158015610906573d6000803e3d6000fd5b505050506040513d601f19601f8201168201806040525081019061092a9190615750565b156109a5576109376115f3565b6001600160a01b0316638e7c4d16836040518263ffffffff1660e01b815260040161096491815260200190565b60c060405180830381865afa158015610981573d6000803e3d6000fd5b505050506040513d601f19601f8201168201806040525081019061036191906157f0565b60405162461bcd60e51b815260206004820152600f60248201527f756e7265636f676e697a6564206964000000000000000000000000000000000060448201526064016105f6565b919050565b6000806109fe83611e80565b90506000610a0b85611d7b565b806020019051810190610a1e9190615772565b90506000610a2b85611f3f565b9050600083516004811115610a4257610a426156f4565b03610aae576000610a5286612006565b60e084015160208501518451929091101592506001911315610a72575060005b835160408401511315610a83575060005b836060015183602001511315610a97575060005b818015610aa15750805b15610aab57600195505b50505b600183516004811115610ac357610ac36156f4565b03610b2f576000610ad38661209b565b60e084015160208501518451929091101592506001911315610af3575060005b835160408401511315610b04575060005b836060015183602001511315610b18575060005b818015610b225750805b15610b2c57600195505b50505b600283516004811115610b4457610b446156f4565b03610bb0576000610b5486612130565b60e084015160208501518451929091101592506001911315610b74575060005b835160408401511315610b85575060005b836060015183602001511315610b99575060005b818015610ba35750805b15610bad57600195505b50505b600383516004811115610bc557610bc56156f4565b036104c3576000610bd5866121c5565b60e084015160208501518451929091101592506001911315610bf5575060005b835160408401511315610c06575060005b836060015183602001511315610c1a575060005b818015610c245750805b15610c2e57600195505b505050505092915050565b6000826000610c478261225a565b90508060600151610c9a5760405162461bcd60e51b815260206004820152601960248201527f436861726163746572206e6f7420696e207468652047616d650000000000000060448201526064016105f6565b6000610ca46115f3565b6001600160a01b031663777c2caf876040518263ffffffff1660e01b8152600401610cd191815260200190565b602060405180830381865afa158015610cee573d6000803e3d6000fd5b505050506040513d601f19601f82011682018060405250810190610d12919061586a565b9050610d1c6104cd565b6001600160a01b0316816001600160a01b031614610d7c5760405162461bcd60e51b815260206004820152601e60248201527f45515549504d454e543a204e6f7420436861726163746572204f776e6572000060448201526064016105f6565b610d8686866115fd565b610dd25760405162461bcd60e51b815260206004820152601760248201527f45515549504d454e543a204e4f5420455155495050454400000000000000000060448201526064016105f6565b6000610ddc6115f3565b6001600160a01b031663cdaccbae876040518263ffffffff1660e01b8152600401610e0991815260200190565b602060405180830381865afa158015610e26573d6000803e3d6000fd5b505050506040513d601f19601f82011682018060405250810190610e4a9190615893565b9050610e9f6040518060400160405280600481526020017f7479706500000000000000000000000000000000000000000000000000000000815250826004811115610e9757610e976156f4565b60ff16612341565b6000816004811115610eb357610eb36156f4565b03610f19576000610ecc87610ec78a6123b8565b61242b565b9050868160018351610ede91906158b4565b81518110610eee57610eee61570a565b602002602001015103610f1357610f0588826124fa565b610f0e88612575565b600195505b506110ca565b6001816004811115610f2d57610f2d6156f4565b03610f83576000610f4187610ec78a6125e8565b9050868160018351610f5391906158b4565b81518110610f6357610f6361570a565b602002602001015103610f1357610f7a888261265a565b610f0e886126cb565b6002816004811115610f9757610f976156f4565b03610ff2576000610fb087610fab8a61273e565b6127b1565b9050868160018351610fc291906158b4565b81518110610fd257610fd261570a565b602002602001015103610f1357610fe98882612895565b610f0e88612906565b6003816004811115611006576110066156f4565b0361105c57600061101a87610fab8a612979565b905086816001835161102c91906158b4565b8151811061103c5761103c61570a565b602002602001015103610f135761105388826129ec565b610f0e88612a5d565b60405162461bcd60e51b815260206004820152602160248201527f45515549504d454e543a20554e5245434f474e495a4544204954454d2054595060448201527f450000000000000000000000000000000000000000000000000000000000000060648201526084016105f6565b6110d387612ad0565b506110dc6115f3565b6001600160a01b0316638e9fa2ef886110f48a6114a5565b6040518363ffffffff1660e01b81526004016111119291906158c7565b600060405180830381600087803b15801561112b57600080fd5b505af115801561113f573d6000803e3d6000fd5b505050505050505092915050565b8160006111598261225a565b905080606001516111ac5760405162461bcd60e51b815260206004820152601960248201527f436861726163746572206e6f7420696e207468652047616d650000000000000060448201526064016105f6565b60006111b66115f3565b6001600160a01b031663777c2caf866040518263ffffffff1660e01b81526004016111e391815260200190565b602060405180830381865afa158015611200573d6000803e3d6000fd5b505050506040513d601f19601f82011682018060405250810190611224919061586a565b905061122e6104cd565b6001600160a01b0316816001600160a01b03161461128e5760405162461bcd60e51b815260206004820152601e60248201527f45515549504d454e543a204e6f7420436861726163746572204f776e6572000060448201526064016105f6565b6000805b8551811015611423578581815181106112ad576112ad61570a565b602002602001015191506112bf6115f3565b6001600160a01b031663b3634118836112d66104cd565b6040517fffffffff0000000000000000000000000000000000000000000000000000000060e085901b16815260048101929092526001600160a01b03166024820152604401602060405180830381865afa158015611338573d6000803e3d6000fd5b505050506040513d601f19601f8201168201806040525081019061135c9190615750565b6113a85760405162461bcd60e51b815260206004820152601960248201527f45515549504d454e543a204e6f74204974656d204f776e65720000000000000060448201526064016105f6565b60006113b383611e80565b90506113bf88846109f2565b61140b5760405162461bcd60e51b815260206004820152601f60248201527f45515549504d454e543a20526571756972656d656e7473206e6f74206d65740060448201526064016105f6565b61141a88848360000151612d5e565b50600101611292565b5061142d86612ad0565b506114366115f3565b6001600160a01b0316638e9fa2ef8761144e896114a5565b6040518363ffffffff1660e01b815260040161146b9291906158c7565b600060405180830381600087803b15801561148557600080fd5b505af1158015611499573d6000803e3d6000fd5b50505050505050505050565b6114de6040518060c001604052806000815260200160008152602001600081526020016000815260200160008152602001600081525090565b60006114e9836107ab565b90506114f36115f3565b6001600160a01b031663fa1becc4846040518263ffffffff1660e01b815260040161152091815260200190565b602060405180830381865afa15801561153d573d6000803e3d6000fd5b505050506040513d601f19601f820116820180604052508101906115619190615750565b1561036157600061157184612f37565b80518351919250908390611586908390615910565b905250602080820151908301805161159f908390615910565b90525060408082015190830180516115b8908390615910565b90525060608101516080830180516115d1908390615910565b905250608081015160608301526115e784613026565b60a08301525092915050565b60006104d76130b8565b60008061160983611e80565b9050600081516004811115611620576116206156f4565b03611679576000611630856123b8565b905060005b81518110156103e257848282815181106116515761165161570a565b60200260200101510361166757600193506103e2565b8061167181615736565b915050611635565b60018151600481111561168e5761168e6156f4565b036116e757600061169e856125e8565b905060005b81518110156103e257848282815181106116bf576116bf61570a565b6020026020010151036116d557600193506103e2565b806116df81615736565b9150506116a3565b6002815160048111156116fc576116fc6156f4565b0361175557600061170c8561273e565b905060005b81518110156103e2578482828151811061172d5761172d61570a565b60200260200101510361174357600193506103e2565b8061174d81615736565b915050611711565b60038151600481111561176a5761176a6156f4565b0361105c57600061177a85612979565b905060005b81518110156103e2578482828151811061179b5761179b61570a565b6020026020010151036117b157600193506103e2565b806117bb81615736565b91505061177f565b604080516001808252818301909252600091829190602080830190803683370190505090508260001b816000815181106117ff576117ff61570a565b602090810291909101015260006118577f746255440000000000000000000000004974656d73000000000000000000000083837e210201012000000000000000000000000000000000000000000000000000006130c2565b905060f881901c600481111561186f5761186f6156f4565b949350505050565b60408051600180825281830190925260609160009190602080830190803683370190505090508260001b816000815181106118b4576118b461570a565b602090810291909101015260006118ec7f74625544000000000000000000000000576561706f6e53746174730000000000838361317f565b905061186f6118fe8260008451613245565b6132d3565b60408051600180825281830190925260609160009190602080830190803683370190505090508260001b816000815181106119405761194061570a565b602090810291909101015260006118ec7f746255440000000000000000000000005370656c6c5374617473000000000000838361317f565b60408051600180825281830190925260609160009190602080830190803683370190505090508260001b816000815181106119b5576119b561570a565b602090810291909101015260006118ec7f74625544000000000000000000000000436f6e73756d61626c65537461747300838361317f565b7fffffffffffffffffffffffffffffffffffffffffffffffffffffffffffffffcc36013560601c80611a1c5750335b90565b611a4a6040518060800160405280600081526020016000815260200160008152602001606081525090565b604080516001808252818301909252600091602080830190803683370190505090508260001b81600081518110611a8357611a8361570a565b602090810291909101015260008080611adc7f74625544000000000000000000000000436f6e73756d61626c65537461747300857e600301202020000000000000000000000000000000000000000000000000006132e4565b925092509250611aed8383836133b4565b9695505050505050565b611b306040518060c001604052806000815260200160008152602001600081526020016000815260200160008152602001600081525090565b604080516001808252818301909252600091602080830190803683370190505090508260001b81600081518110611b6957611b6961570a565b602090810291909101015260008080611bc27f7462554400000000000000000000000041726d6f725374617473000000000000857ec00600202020202020000000000000000000000000000000000000000000006132e4565b925092509250611aed83838361340a565b611c1b60405180610100016040528060008152602001600081526020016000815260200160008152602001600081526020016000815260200160008152602001606081525090565b604080516001808252818301909252600091602080830190803683370190505090508260001b81600081518110611c5457611c5461570a565b602090810291909101015260008080611cad7f74625544000000000000000000000000576561706f6e53746174730000000000857ee00701202020202020200000000000000000000000000000000000000000006132e4565b925092509250611aed83838361346e565b611ce96040518060800160405280600081526020016000815260200160008152602001606081525090565b604080516001808252818301909252600091602080830190803683370190505090508260001b81600081518110611d2257611d2261570a565b602090810291909101015260008080611adc7f746255440000000000000000000000005370656c6c5374617473000000000000857e600301202020000000000000000000000000000000000000000000000000006132e4565b60408051600180825281830190925260609160009190602080830190803683370190505090508281600081518110611db557611db561570a565b6020908102919091010152600061186f7f746255440000000000000000000000004368617261637465727300000000000083600161317f565b604080516001808252818301909252600091829190602080830190803683370190505090508281600081518110611e2757611e2761570a565b6020908102919091010152600061186f7f7462554400000000000000000000000043686172616374657245717569706d658360047ea00504202020202000000000000000000000000000000000000000000000006130c2565b60408051606080820183526000808352602083015291810191909152604080516001808252818301909252600091602080830190803683370190505090508260001b81600081518110611ed557611ed561570a565b602090810291909101015260008080611f2e7f746255440000000000000000000000004974656d730000000000000000000000857e210201012000000000000000000000000000000000000000000000000000006132e4565b925092509250611aed8383836134f5565b611f6360405180606001604052806000815260200160008152602001600081525090565b604080516001808252818301909252600091602080830190803683370190505090508260001b81600081518110611f9c57611f9c61570a565b602090810291909101015260008080611ff57f74625544000000000000000000000000537461745265737472696374696f6e73857e600300202020000000000000000000000000000000000000000000000000006132e4565b925092509250611aed838383613560565b604080516001808252818301909252600091829190602080830190803683370190505090508260001b816000815181106120425761204261570a565b6020908102919091010152600061186f7f74625544000000000000000000000000576561706f6e537461747300000000008360057ee00701202020202020200000000000000000000000000000000000000000006130c2565b604080516001808252818301909252600091829190602080830190803683370190505090508260001b816000815181106120d7576120d761570a565b6020908102919091010152600061186f7f7462554400000000000000000000000041726d6f7253746174730000000000008360047ec00600202020202020000000000000000000000000000000000000000000006130c2565b604080516001808252818301909252600091829190602080830190803683370190505090508260001b8160008151811061216c5761216c61570a565b6020908102919091010152600061186f7f746255440000000000000000000000005370656c6c53746174730000000000008360027e600301202020000000000000000000000000000000000000000000000000006130c2565b604080516001808252818301909252600091829190602080830190803683370190505090508260001b816000815181106122015761220161570a565b6020908102919091010152600061186f7f74625544000000000000000000000000436f6e73756d61626c655374617473008360027e600301202020000000000000000000000000000000000000000000000000006130c2565b6122a16040518060c001604052806000815260200160006001600160a01b031681526020016000801916815260200160001515815260200160608152602001606081525090565b6040805160018082528183019092526000916020808301908036833701905050905082816000815181106122d7576122d761570a565b6020908102919091010152600080806123307f7462554400000000000000000000000043686172616374657273000000000000857e550402201420010000000000000000000000000000000000000000000000006132e4565b925092509250611aed8383836135a0565b6123b48282604051602401612357929190615988565b60408051601f198184030181529190526020810180517bffffffffffffffffffffffffffffffffffffffffffffffffffffffff167f9710a9d000000000000000000000000000000000000000000000000000000000179052613627565b5050565b604080516001808252818301909252606091600091906020808301908036833701905050905082816000815181106123f2576123f261570a565b602090810291909101015260006118ec7f7462554400000000000000000000000043686172616374657245717569706d6583600161317f565b606060018251111561055b5760005b82518110156124f457838382815181106124565761245661570a565b6020026020010151036124e2576000836001855161247491906158b4565b815181106124845761248461570a565b60200260200101519050808483815181106124a1576124a161570a565b6020026020010181815250508484600186516124bd91906158b4565b815181106124cd576124cd61570a565b602002602001018181525050839250506124f4565b806124ec81615736565b91505061243a565b50610361565b6040805160018082528183019092526000916020808301908036833701905050905082816000815181106125305761253061570a565b60209081029190910101526125707f7462554400000000000000000000000043686172616374657245717569706d6582600161256b86613648565b613658565b505050565b6040805160018082528183019092526000916020808301908036833701905050905081816000815181106125ab576125ab61570a565b6020026020010181815250506123b47f7462554400000000000000000000000043686172616374657245717569706d6560001b826001602061370a565b604080516001808252818301909252606091600091906020808301908036833701905050905082816000815181106126225761262261570a565b602090810291909101015260006118ec7f7462554400000000000000000000000043686172616374657245717569706d65838361317f565b6040805160018082528183019092526000916020808301908036833701905050905082816000815181106126905761269061570a565b60209081029190910101526125707f7462554400000000000000000000000043686172616374657245717569706d6582600061256b86613648565b6040805160018082528183019092526000916020808301908036833701905050905081816000815181106127015761270161570a565b6020026020010181815250506123b47f7462554400000000000000000000000043686172616374657245717569706d6560001b826000602061370a565b604080516001808252818301909252606091600091906020808301908036833701905050905082816000815181106127785761277861570a565b602090810291909101015260006118ec7f7462554400000000000000000000000043686172616374657245717569706d6583600261317f565b60608160005b815181101561288d57848282815181106127d3576127d361570a565b60200260200101510361288557805b825181101561287f5782516127f88260016159aa565b1015612845578261280a8260016159aa565b8151811061281a5761281a61570a565b60200260200101518382815181106128345761283461570a565b602002602001018181525050612877565b82516128528260016159aa565b10612877578583828151811061286a5761286a61570a565b6020026020010181815250505b6001016127e2565b5061288d565b6001016127b7565b509392505050565b6040805160018082528183019092526000916020808301908036833701905050905082816000815181106128cb576128cb61570a565b60209081029190910101526125707f7462554400000000000000000000000043686172616374657245717569706d6582600261256b86613648565b60408051600180825281830190925260009160208083019080368337019050509050818160008151811061293c5761293c61570a565b6020026020010181815250506123b47f7462554400000000000000000000000043686172616374657245717569706d6560001b826002602061370a565b604080516001808252818301909252606091600091906020808301908036833701905050905082816000815181106129b3576129b361570a565b602090810291909101015260006118ec7f7462554400000000000000000000000043686172616374657245717569706d6583600361317f565b604080516001808252818301909252600091602080830190803683370190505090508281600081518110612a2257612a2261570a565b60209081029190910101526125707f7462554400000000000000000000000043686172616374657245717569706d6582600361256b86613648565b604080516001808252818301909252600091602080830190803683370190505090508181600081518110612a9357612a9361570a565b6020026020010181815250506123b47f7462554400000000000000000000000043686172616374657245717569706d6560001b826003602061370a565b612b1f6040518061012001604052806000815260200160008152602001600081526020016000815260200160008152602001606081526020016060815260200160608152602001606081525090565b6000612b2a83612f37565b9050612b656040518060c001604052806000815260200160008152602001600081526020016000815260200160008152602001600081525090565b612bad60405180610100016040528060008152602001600081526020016000815260200160008152602001600081526020016000815260200160008152602001606081525090565b60a08301515115612c725760005b8360a0015151811015612c7057612bee8460a001518281518110612be157612be161570a565b6020026020010151610608565b9250826020015185608001818151612c069190615910565b90525060a083015185518690612c1d908390615910565b9052508251602086018051612c33908390615910565b9052506060830151604086018051612c4c908390615910565b9052506040830151606086018051612c65908390615910565b905250600101612bbb565b505b60c08301515115612d205760005b8360c0015151811015612d1e57612cb38460c001518281518110612ca657612ca661570a565b60200260200101516106b8565b91508160c0015185600001818151612ccb9190615910565b9052508151602086018051612ce1908390615910565b9052506020820151604086018051612cfa908390615910565b9052506040820151606086018051612d13908390615910565b905250600101612c80565b505b8351835260208085015190840152604080850151908401526060808501519084015260808085015190840152612d56858461377d565b505050919050565b612d6883836115fd565b15612db55760405162461bcd60e51b815260206004820152601b60248201527f45515549504d454e543a20414c5245414459204551554950504544000000000060448201526064016105f6565b6000612dc084613894565b612dca90826159aa565b9050612dd584613912565b612ddf90826159aa565b9050612dea84613983565b612df490826159aa565b9050612dff846139f5565b612e0990826159aa565b905060048110612e5b5760405162461bcd60e51b815260206004820152601760248201527f746f6f206d616e79206974656d7320657175697070656400000000000000000060448201526064016105f6565b816004811115612e6d57612e6d6156f4565b60ff16600003612e8157612e818484613a67565b816004811115612e9357612e936156f4565b60ff16600103612ee557612edb6040518060400160405280600f81526020017f657175697070696e672061726d6f720000000000000000000000000000000000815250613afa565b612ee58484613b6e565b816004811115612ef757612ef76156f4565b60ff16600203612f0b57612f0b8484613bed565b816004811115612f1d57612f1d6156f4565b60ff16600403612f3157612f318484613c6c565b50505050565b612f866040518061012001604052806000815260200160008152602001600081526020016000815260200160008152602001606081526020016060815260200160608152602001606081525090565b604080516001808252818301909252600091602080830190803683370190505090508281600081518110612fbc57612fbc61570a565b6020908102919091010152600080806130157f7462554400000000000000000000000043686172616374657245717569706d65857ea00504202020202000000000000000000000000000000000000000000000006132e4565b925092509250611aed838383613ceb565b60408051600180825281830190925260009182919060208083019080368337019050509050828160008151811061305f5761305f61570a565b6020908102919091010152600061186f7f74625544000000000000000000000000537461747300000000000000000000008360057ee10800202001202020202000000000000000000000000000000000000000006130c2565b60006104d7613d7f565b6000806130cd613d7f565b9050306001600160a01b038216036130f3576130eb86868686613db9565b91505061186f565b6040517f8c364d590000000000000000000000000000000000000000000000000000000081526001600160a01b03821690638c364d599061313e9089908990899089906004016159bd565b602060405180830381865afa15801561315b573d6000803e3d6000fd5b505050506040513d601f19601f820116820180604052508101906130eb91906159ec565b6060600061318b613d7f565b9050306001600160a01b038216036131b0576131a8858585613def565b91505061323e565b6040517f1e7889770000000000000000000000000000000000000000000000000000000081526001600160a01b03821690631e788977906131f990889088908890600401615a05565b600060405180830381865afa158015613216573d6000803e3d6000fd5b505050506040513d6000823e601f3d908101601f191682016040526131a89190810190615a95565b9392505050565b6000818311806132555750835182115b15613292578383836040517f23230fa30000000000000000000000000000000000000000000000000000000081526004016105f693929190615aca565b602084016132a084826159aa565b905060006132ae85856158b4565b6fffffffffffffffffffffffffffffffff1660809290921b9190911795945050505050565b6060600061323e8360206000613e29565b60606000606060006132f4613d7f565b9050306001600160a01b0382160361331d57613311878787613ea4565b935093509350506133ab565b6040517f419b58fd0000000000000000000000000000000000000000000000000000000081526001600160a01b0382169063419b58fd90613366908a908a908a90600401615aef565b600060405180830381865afa158015613383573d6000803e3d6000fd5b505050506040513d6000823e601f3d908101601f191682016040526133119190810190615b18565b93509350939050565b6133df6040518060800160405280600081526020016000815260200160008152602001606081525090565b6133e884613fac565b6040840152602083015281526133fe8383613fd4565b60608201529392505050565b6134436040518060c001604052806000815260200160008152602001600081526020016000815260200160008152602001600081525090565b61344c84613ff2565b60a0870152608086015260608501526040840152602083015281529392505050565b6134b660405180610100016040528060008152602001600081526020016000815260200160008152602001600081526020016000815260200160008152602001606081525090565b6134bf84614036565b60c088015260a0870152608086015260608501526040840152602083015281526134e98383613fd4565b60e08201529392505050565b6040805160608082018352600080835260208301529181019190915261351a84614084565b6020830181905282826004811115613534576135346156f4565b6004811115613545576135456156f4565b815250505061355483836140b0565b60408201529392505050565b61358460405180606001604052806000815260200160008152602001600081525090565b61358d84613fac565b6040840152602083015281529392505050565b6135e76040518060c001604052806000815260200160006001600160a01b031681526020016000801916815260200160001515815260200160608152602001606081525090565b6135f0846140d3565b1515606085015260408401526001600160a01b031660208301528152613616838361410d565b60a083015260808201529392505050565b80516a636f6e736f6c652e6c6f67602083016000808483855afa5050505050565b6060816105588160206000614157565b6000613662613d7f565b9050306001600160a01b0382160361368557613680858585856141ab565b613703565b6040517fef6ea8620000000000000000000000000000000000000000000000000000000081526001600160a01b0382169063ef6ea862906136d0908890889088908890600401615b85565b600060405180830381600087803b1580156136ea57600080fd5b505af11580156136fe573d6000803e3d6000fd5b505050505b5050505050565b6000613714613d7f565b9050306001600160a01b0382160361373257613680858585856141e6565b6040517fd9c03a040000000000000000000000000000000000000000000000000000000081526001600160a01b0382169063d9c03a04906136d09088908890889088906004016159bd565b60006137d882600001518360200151846040015185606001518660800151604080516020810196909652858101949094526060850192909252608084015260a0808401919091528151808403909101815260c0909201905290565b905060006137f98360a001518460c001518560e0015186610100015161423f565b9050600061381a8460a001518560c001518660e0015187610100015161427f565b604080516001808252818301909252919250600091906020808301908036833701905050905085816000815181106138545761385461570a565b602090810291909101015261388c7f7462554400000000000000000000000043686172616374657245717569706d65828686866142d1565b505050505050565b6040805160018082528183019092526000918291906020808301908036833701905050905082816000815181106138cd576138cd61570a565b602090810291909101015260006139067f7462554400000000000000000000000043686172616374657245717569706d6583600161434c565b60209004949350505050565b60408051600180825281830190925260009182919060208083019080368337019050509050828160008151811061394b5761394b61570a565b602090810291909101015260006139067f7462554400000000000000000000000043686172616374657245717569706d65838361434c565b6040805160018082528183019092526000918291906020808301908036833701905050905082816000815181106139bc576139bc61570a565b602090810291909101015260006139067f7462554400000000000000000000000043686172616374657245717569706d6583600261434c565b604080516001808252818301909252600091829190602080830190803683370190505090508281600081518110613a2e57613a2e61570a565b602090810291909101015260006139067f7462554400000000000000000000000043686172616374657245717569706d6583600361434c565b604080516001808252818301909252600091602080830190803683370190505090508281600081518110613a9d57613a9d61570a565b6020026020010181815250506125707f7462554400000000000000000000000043686172616374657245717569706d6560001b82600185604051602001613ae691815260200190565b6040516020818303038152906040526143fe565b613b6b81604051602401613b0e9190615bda565b60408051601f198184030181529190526020810180517bffffffffffffffffffffffffffffffffffffffffffffffffffffffff167f41304fac00000000000000000000000000000000000000000000000000000000179052613627565b50565b604080516001808252818301909252600091602080830190803683370190505090508281600081518110613ba457613ba461570a565b6020026020010181815250506125707f7462554400000000000000000000000043686172616374657245717569706d6560001b82600085604051602001613ae691815260200190565b604080516001808252818301909252600091602080830190803683370190505090508281600081518110613c2357613c2361570a565b6020026020010181815250506125707f7462554400000000000000000000000043686172616374657245717569706d6560001b82600285604051602001613ae691815260200190565b604080516001808252818301909252600091602080830190803683370190505090508281600081518110613ca257613ca261570a565b6020026020010181815250506125707f7462554400000000000000000000000043686172616374657245717569706d6560001b82600385604051602001613ae691815260200190565b613d3a6040518061012001604052806000815260200160008152602001600081526020016000815260200160008152602001606081526020016060815260200160608152602001606081525090565b613d4384614471565b60808601526060850152604084015260208301528152613d6383836144ad565b61010085015260e084015260c083015260a08201529392505050565b7f629a4c26e296b22a8e0856e9f6ecb2d1008d7e00081111962cd175fa7488e175546000906001600160a01b0316806109ed573391505090565b6000613de6613dc8868661453b565b60ff858116601b0360080285901c16613de18587614591565b6145c2565b95945050505050565b606061186f613dff858585614613565b6000613e2485613e0f8989614693565b9060ff166028026038011c64ffffffffff1690565b6146a6565b60606000613e378560801c90565b90506fffffffffffffffffffffffffffffffff85166000858281613e5d57613e5d615bc4565b04905060405193506020840160208202810160405281855260005b82811015613e98578451871c825293870193602090910190600101613e78565b50505050509392505050565b6060600060606000613eb5856146c9565b9050613ec28787836146ec565b93506000613ecf86614725565b90508015613fa157613ee18888614693565b935066ffffffffffffff841667ffffffffffffffff811115613f0557613f056155d1565b6040519080825280601f01601f191660200182016040528015613f2f576020820181803683370190505b5092506020830160005b828160ff161015613f9e576000613f518b8b84614613565b90506000613f6e888460ff166028026038011c64ffffffffff1690565b9050613f7d8260008387614762565b613f8781856159aa565b935050508080613f9690615bed565b915050613f39565b50505b505093509350939050565b6000806000613fbf846000016020015190565b60408501516060909501519095909350915050565b60606000603884901c64ffffffffff16613de66118fe858484613245565b600080600080600080614009876000016020015190565b6040880151606089015160808a015160a08b015160c0909b0151939b929a91995097509550909350915050565b600080600080600080600061404f886000016020015190565b604089015160608a015160808b015160a08c015160c08d015160e0909d0151949d939c929b5090995097509550909350915050565b6020810151600090819060f81c60048111156140a2576140a26156f4565b602193909301519293915050565b60606000603884901c64ffffffffff16613de66140ce858484613245565b61482e565b6000806000806140e7856000016020015190565b6040860151605487015191955060601c9350607486015190925060f81c90509193509193565b6060806000603885901c64ffffffffff1661412c6140ce868484613245565b935090508064ffffffffff606087901c160161414c6140ce868484613245565b925050509250929050565b825160609060006141688583615c0c565b9050604051925060208301601f19603f83860101166040528184526000602088015b84821015613e98578051871b8352918701916001919091019060200161418a565b60006141b78585614693565b905060006141d4828560ff166028026038011c64ffffffffff1690565b905061388c86868660008588886148a6565b60006141f28585614693565b9050600061420f828560ff166028026038011c64ffffffffff1690565b905061388c8686866142288764ffffffffff87166158b4565b6040805160008152602081019091528890886148a6565b6000613de6855160200285516020028551602002855160200260b081901b608883901b606085901b603887901b8787018601850117171717949350505050565b606061428a85613648565b61429385613648565b61429c85613648565b6142a585613648565b6040516020016142b89493929190615c23565b6040516020818303038152906040529050949350505050565b60006142db613d7f565b9050306001600160a01b038216036142ff576142fa8686868686614ce0565b61388c565b6040517f298314fb0000000000000000000000000000000000000000000000000000000081526001600160a01b0382169063298314fb9061146b9089908990899089908990600401615c7a565b600080614357613d7f565b9050306001600160a01b03821603614374576131a8858585614cf6565b6040517fdbbf0e210000000000000000000000000000000000000000000000000000000081526001600160a01b0382169063dbbf0e21906143bd90889088908890600401615a05565b602060405180830381865afa1580156143da573d6000803e3d6000fd5b505050506040513d601f19601f820116820180604052508101906131a891906159ec565b6000614408613d7f565b9050306001600160a01b038216036144265761368085858585614d06565b6040517f150f32620000000000000000000000000000000000000000000000000000000081526001600160a01b0382169063150f3262906136d0908890889088908890600401615b85565b6000806000806000614487866000016020015190565b60408701516060880151608089015160a090990151929991989097509550909350915050565b60608080806000603887901c64ffffffffff166144ce6118fe888484613245565b955090508064ffffffffff606089901c16016144ee6118fe888484613245565b945090508064ffffffffff608889901c160161450e6118fe888484613245565b935090508064ffffffffff60b089901c160161452e6118fe888484613245565b9250505092959194509250565b60008282604051602001614550929190615ccb565b60408051601f1981840301815291905280516020909101207f86425bff6b57326c7859e89024fe4f238ca327a1ae4a230180dd2f0e88aaa7d9189392505050565b600080805b8360ff1681101561288d576145b860ff601b83900360080287901c16836159aa565b9150600101614596565b6000602082106145e8576020820484019350602082816145e4576145e4615bc4565b0691505b508254600882021b60208290038084111561288d576001850154600882021c82179150509392505050565b60008383604051602001614628929190615ccb565b604051602081830303815290604052805190602001208260f81b7effffffffffffffffffffffffffffffffffffffffffffffffffffffffffffff19167f3b4102da22e32d82fc925482184f16c09fd4281692720b87d124aef6da48a0f1181860001c90509392505050565b600061323e6146a28484614d41565b5490565b60405160208101601f19603f848401011660405282825261288d85858584614762565b600060086146d9600260206158b4565b6146e39190615c0c565b9190911c919050565b60608160000361470b575060408051602081019091526000815261323e565b6000614717858561453b565b9050613de6816000856146a6565b60006008600180614738600260206158b4565b61474291906158b4565b61474c91906158b4565b6147569190615c0c565b8260ff911c1692915050565b82156147e9576020831061478c5760208304840193506020838161478857614788615bc4565b0692505b82156147e95760208390036000818410156147af5750600019600884021c6147b9565b50600019600882021c5b8554600886021b8184511682198216178452508184116147da575050612f31565b50600194909401939182900391015b5b6020821061480b5783548152600190930192601f19909101906020016147ea565b8115612f31576000600019600884021c8251865482191691161782525050505050565b6060600061483c8360801c90565b90506fffffffffffffffffffffffffffffffff83168067ffffffffffffffff81111561486a5761486a6155d1565b6040519080825280601f01601f191660200182016040528015614894576020820181803683370190505b50925060208301612d56838284614d97565b7f7462000000000000000000000000000000000000000000000000000000000000877fffff0000000000000000000000000000000000000000000000000000000000001614614966577f7462000000000000000000000000000000000000000000000000000000000000878860405160200161492491815260200190565b60408051601f19818403018152908290527f31b466830000000000000000000000000000000000000000000000000000000082526105f6939291600401615d07565b6000614981828760ff166028026038011c64ffffffffff1690565b9050600083518564ffffffffff168361499a91906158b4565b6149a491906159aa565b90508082141580156149c65750816149bc8688615d48565b64ffffffffff1614155b15614a16576040517fa65010b400000000000000000000000000000000000000000000000000000000815264ffffffffff80881660048301528087166024830152831660448201526064016105f6565b818664ffffffffff161115614a67576040517f7e8578d30000000000000000000000000000000000000000000000000000000081526004810183905264ffffffffff871660248201526044016105f6565b6000614a74848984614de2565b90506000614a818b614eb0565b905060005b8151811015614b4c576000828281518110614aa357614aa361570a565b60200260200101519050614acf6010826affffffffffffffffffffff1916614f3990919063ffffffff16565b15614b4357606081901c6001600160a01b03166355eb5a288e8e8e8e8e8d8f6040518863ffffffff1660e01b8152600401614b109796959493929190615d66565b600060405180830381600087803b158015614b2a57600080fd5b505af1158015614b3e573d6000803e3d6000fd5b505050505b50600101614a86565b5064ffffffffff881660005b8a60ff168160ff161015614b8b57614b7f878260ff166028026038011c64ffffffffff1690565b90910190600101614b58565b508b7ffe158a7adba34e256807c8a149028d3162918713c3838afc643ce9f96716ebfd8c8c848c888d604051614bc696959493929190615dc4565b60405180910390a250828414614be7576000614be28c8c614d41565b839055505b6000614bf48c8c8c614613565b9050614c08818a64ffffffffff1689614f57565b5060005b8151811015614cd2576000828281518110614c2957614c2961570a565b60200260200101519050614c556020826affffffffffffffffffffff1916614f3990919063ffffffff16565b15614cc957606081901c6001600160a01b031663635845338e8e8e8e8e8a8f6040518863ffffffff1660e01b8152600401614c969796959493929190615d66565b600060405180830381600087803b158015614cb057600080fd5b505af1158015614cc4573d6000803e3d6000fd5b505050505b50600101614c0c565b505050505050505050505050565b6137038585858585614cf18b614f6d565b614ff2565b600061186f82613e0f8686614693565b6000614d128585614693565b90506000614d2f828560ff166028026038011c64ffffffffff1690565b905061388c86868684600088886148a6565b60008282604051602001614d56929190615ccb565b60408051601f1981840301815291905280516020909101207f14e2fcc58e58e68ec7edc30c8d50dccc3ce2714a623ec81f46b6a63922d76569189392505050565b5b60208110614db7578251825260209283019290910190601f1901614d98565b80600003614dc457505050565b6000600019600883021c905080835116811985511617835250505050565b600064ffffffffff821115614e26576040517f7149a3c1000000000000000000000000000000000000000000000000000000008152600481018390526024016105f6565b8366ffffffffffffff811660ff851660280260380182901c64ffffffffff16808510614e585780850382019150614e60565b848103820391505b5064ffffffffff6038602860ff8816020181811b197fffffffffffffffffffffffffffffffffffffffffffffffffff000000000000009490941690921792909216918416901b1790509392505050565b60408051600180825281830190925260609160009190602080830190803683370190505090508281600081518110614eea57614eea61570a565b60209081029190910101526000614f227f746273746f726500000000000000000053746f7265486f6f6b730000000000008383613def565b905061186f614f348260008451613245565b61532b565b60008160ff1682614f4a8560581c90565b1660ff1614905092915050565b61257083838351614f688560200190565b61533c565b60007f8b9d8c8b908d9affffffffffffffffffab9e9d939a8d000000000000000000008201614fbc57507e60030220202000000000000000000000000000000000000000000000000000919050565b610361614fe97f746273746f72650000000000000000005461626c657300000000000000000000846153fb565b602060006145c2565b7f6f74000000000000000000000000000000000000000000000000000000000000867fffff000000000000000000000000000000000000000000000000000000000000160361507e57857f8dbb3a9672eebfd3773e72dd9c102393436816d832c7ba9e1e1ac8fcadcac7a9868686866040516150719493929190615e20565b60405180910390a261388c565b600061508987614eb0565b905060005b81518110156151625760008282815181106150ab576150ab61570a565b602002602001015190506150d76001826affffffffffffffffffffff1916614f3990919063ffffffff16565b15615159576040517f57066c9c000000000000000000000000000000000000000000000000000000008152606082901c906357066c9c90615126908c908c908c908c908c908c90600401615e5f565b600060405180830381600087803b15801561514057600080fd5b505af1158015615154573d6000803e3d6000fd5b505050505b5060010161508e565b50867f8dbb3a9672eebfd3773e72dd9c102393436816d832c7ba9e1e1ac8fcadcac7a9878787876040516151999493929190615e20565b60405180910390a260006151ad888861453b565b905060006020870190506151c582600089518461533c565b60006151d085614725565b11156152545760006151e28a8a614d41565b878155905060208601915060008060005b6151fc88614725565b8160ff16101561524f576152118d8d83614613565b925061522c8a8260ff166028026038011c64ffffffffff1690565b915061523b836000848861533c565b61524582866159aa565b94506001016151f3565b505050505b60005b83518110156114995760008482815181106152745761527461570a565b602002602001015190506152a06002826affffffffffffffffffffff1916614f3990919063ffffffff16565b15615322576040517f5b28cdaf000000000000000000000000000000000000000000000000000000008152606082901c90635b28cdaf906152ef908e908e908e908e908e908e90600401615e5f565b600060405180830381600087803b15801561530957600080fd5b505af115801561531d573d6000803e3d6000fd5b505050505b50600101615257565b6060600061323e8360156000613e29565b82156153b657602083106153665760208304840193506020838161536257615362615bc4565b0692505b82156153b65760208390036000600019600885021c1990506008850281811c91508351811c90508119875416828216178755508184116153a7575050612f31565b50600194909401939182900391015b5b602082106153d85780518455600190930192601f19909101906020016153b7565b8115612f31576000600019600884021c8554835182191691161785555050505050565b6040805160208101849052908101829052600090606001614550565b60006020828403121561542957600080fd5b81357fffffffff000000000000000000000000000000000000000000000000000000008116811461323e57600080fd5b6000806040838503121561546c57600080fd5b50508035926020909101359150565b60006020828403121561548d57600080fd5b5035919050565b60008151808452602080850194506020840160005b838110156154c5578151875295820195908201906001016154a9565b509495945050505050565b60208152600061323e6020830184615494565b805182526020810151602083015260408101516040830152600060608201516080606085015261186f6080850182615494565b60208152600061323e60208301846154e3565b6020815281516020820152602082015160408201526040820151606082015260608201516080820152608082015160a082015260a082015160c082015260c082015160e0820152600060e083015161010080818501525061186f610120840182615494565b60c081016103618284805182526020810151602083015260408101516040830152606081015160608301526080810151608083015260a081015160a08301525050565b634e487b7160e01b600052604160045260246000fd5b604051610100810167ffffffffffffffff8111828210171561560b5761560b6155d1565b60405290565b604051601f8201601f1916810167ffffffffffffffff8111828210171561563a5761563a6155d1565b604052919050565b6000806040838503121561565557600080fd5b8235915060208084013567ffffffffffffffff8082111561567557600080fd5b818601915086601f83011261568957600080fd5b81358181111561569b5761569b6155d1565b8060051b91506156ac848301615611565b81815291830184019184810190898411156156c657600080fd5b938501935b838510156156e4578435825293850193908501906156cb565b8096505050505050509250929050565b634e487b7160e01b600052602160045260246000fd5b634e487b7160e01b600052603260045260246000fd5b634e487b7160e01b600052601160045260246000fd5b6000600019820361574957615749615720565b5060010190565b60006020828403121561576257600080fd5b8151801515811461323e57600080fd5b6000610100828403121561578557600080fd5b61578d6155e7565b82518152602083015160208201526040830151600381106157ad57600080fd5b80604083015250606083015160608201526080830151608082015260a083015160a082015260c083015160c082015260e083015160e08201528091505092915050565b600060c0828403121561580257600080fd5b60405160c0810181811067ffffffffffffffff82111715615825576158256155d1565b8060405250825181526020830151602082015260408301516040820152606083015160608201526080830151608082015260a083015160a08201528091505092915050565b60006020828403121561587c57600080fd5b81516001600160a01b038116811461323e57600080fd5b6000602082840312156158a557600080fd5b81516005811061323e57600080fd5b8181038181111561036157610361615720565b82815260e0810161323e6020830184805182526020810151602083015260408101516040830152606081015160608301526080810151608083015260a081015160a08301525050565b808201828112600083128015821682158216171561593057615930615720565b505092915050565b60005b8381101561595357818101518382015260200161593b565b50506000910152565b60008151808452615974816020860160208601615938565b601f01601f19169290920160200192915050565b60408152600061599b604083018561595c565b90508260208301529392505050565b8082018082111561036157610361615720565b8481526080602082015260006159d66080830186615494565b60ff949094166040830152506060015292915050565b6000602082840312156159fe57600080fd5b5051919050565b838152606060208201526000615a1e6060830185615494565b905060ff83166040830152949350505050565b600082601f830112615a4257600080fd5b815167ffffffffffffffff811115615a5c57615a5c6155d1565b615a6f6020601f19601f84011601615611565b818152846020838601011115615a8457600080fd5b61186f826020830160208701615938565b600060208284031215615aa757600080fd5b815167ffffffffffffffff811115615abe57600080fd5b61186f84828501615a31565b606081526000615add606083018661595c565b60208301949094525060400152919050565b838152606060208201526000615b086060830185615494565b9050826040830152949350505050565b600080600060608486031215615b2d57600080fd5b835167ffffffffffffffff80821115615b4557600080fd5b615b5187838801615a31565b9450602086015193506040860151915080821115615b6e57600080fd5b50615b7b86828701615a31565b9150509250925092565b848152608060208201526000615b9e6080830186615494565b60ff851660408401528281036060840152615bb9818561595c565b979650505050505050565b634e487b7160e01b600052601260045260246000fd5b60208152600061323e602083018461595c565b600060ff821660ff8103615c0357615c03615720565b60010192915050565b808202811582820484141761036157610361615720565b60008551615c35818460208a01615938565b855190830190615c49818360208a01615938565b8551910190615c5c818360208901615938565b8451910190615c6f818360208801615938565b019695505050505050565b85815260a060208201526000615c9360a0830187615494565b8281036040840152615ca5818761595c565b90508460608401528281036080840152615cbf818561595c565b98975050505050505050565b8281526000602080830184516020860160005b82811015615cfa57815184529284019290840190600101615cde565b5091979650505050505050565b7fffff00000000000000000000000000000000000000000000000000000000000084168152826020820152606060408201526000613de6606083018461595c565b64ffffffffff8181168382160190808211156104c6576104c6615720565b87815260e060208201526000615d7f60e0830189615494565b60ff8816604084015264ffffffffff87811660608501528616608084015260a0830185905282810360c0840152615db6818561595c565b9a9950505050505050505050565b60c081526000615dd760c0830189615494565b60ff8816602084015265ffffffffffff8716604084015264ffffffffff8616606084015284608084015282810360a0840152615e13818561595c565b9998505050505050505050565b608081526000615e336080830187615494565b8281036020840152615e45818761595c565b90508460408401528281036060840152615bb9818561595c565b86815260c060208201526000615e7860c0830188615494565b8281036040840152615e8a818861595c565b90508560608401528281036080840152615ea4818661595c565b9150508260a083015297965050505050505056fea26469706673582212209e609ecb004caac0d2b29bf6c109610451361f6618716cd0a9f96644601385c064736f6c63430008180033","linkReferences":{}},"methodIdentifiers":{"_msgSender()":"119df25f","_msgValue()":"45ec9354","_world()":"e1af802c","calculateEquipmentBonuses(bytes32)":"d99508f2","checkItemEffect(uint256,bytes32)":"0254f24b","checkRequirements(bytes32,uint256)":"9a8bb9a2","equipItems(bytes32,uint256[])":"cc77a2de","getArmorStats(uint256)":"40a5ed2a","getCombatStats(bytes32)":"8bcc358e","getConsumableStats(uint256)":"3a0208e7","getItemEffects(uint256)":"38a5aae6","getSpellStats(uint256)":"6479f09f","getWeaponStats(uint256)":"63ff2287","isEquipped(bytes32,uint256)":"edcfef82","supportsInterface(bytes4)":"01ffc9a7","unequipItem(bytes32,uint256)":"b2aca84b"},"id":236}