{"abi":[{"type":"function","name":"_msgSender","inputs":[],"outputs":[{"name":"sender","type":"address","internalType":"address"}],"stateMutability":"view"},{"type":"function","name":"_msgValue","inputs":[],"outputs":[{"name":"value","type":"uint256","internalType":"uint256"}],"stateMutability":"pure"},{"type":"function","name":"_world","inputs":[],"outputs":[{"name":"","type":"address","internalType":"address"}],"stateMutability":"view"},{"type":"function","name":"applyEquipmentBonuses","inputs":[{"name":"entityId","type":"bytes32","internalType":"bytes32"}],"outputs":[{"name":"modifiedStats","type":"tuple","internalType":"struct AdjustedCombatStats","components":[{"name":"adjustedStrength","type":"int256","internalType":"int256"},{"name":"adjustedAgility","type":"int256","internalType":"int256"},{"name":"adjustedIntelligence","type":"int256","internalType":"int256"},{"name":"adjustedArmor","type":"int256","internalType":"int256"},{"name":"adjustedMaxHp","type":"int256","internalType":"int256"},{"name":"currentHp","type":"int256","internalType":"int256"},{"name":"level","type":"uint256","internalType":"uint256"}]}],"stateMutability":"view"},{"type":"function","name":"checkItemEffect","inputs":[{"name":"itemId","type":"uint256","internalType":"uint256"},{"name":"effectId","type":"bytes32","internalType":"bytes32"}],"outputs":[{"name":"hasAction","type":"bool","internalType":"bool"}],"stateMutability":"view"},{"type":"function","name":"checkRequirements","inputs":[{"name":"characterId","type":"bytes32","internalType":"bytes32"},{"name":"itemId","type":"uint256","internalType":"uint256"}],"outputs":[{"name":"canUse","type":"bool","internalType":"bool"}],"stateMutability":"view"},{"type":"function","name":"equipItems","inputs":[{"name":"characterId","type":"bytes32","internalType":"bytes32"},{"name":"itemIds","type":"uint256[]","internalType":"uint256[]"}],"outputs":[],"stateMutability":"nonpayable"},{"type":"function","name":"getArmorStats","inputs":[{"name":"itemId","type":"uint256","internalType":"uint256"}],"outputs":[{"name":"_ArmorStats","type":"tuple","internalType":"struct ArmorStatsData","components":[{"name":"agiModifier","type":"int256","internalType":"int256"},{"name":"armorModifier","type":"int256","internalType":"int256"},{"name":"hpModifier","type":"int256","internalType":"int256"},{"name":"intModifier","type":"int256","internalType":"int256"},{"name":"minLevel","type":"uint256","internalType":"uint256"},{"name":"strModifier","type":"int256","internalType":"int256"}]}],"stateMutability":"view"},{"type":"function","name":"getConsumableStats","inputs":[{"name":"itemId","type":"uint256","internalType":"uint256"}],"outputs":[{"name":"_consumableStats","type":"tuple","internalType":"struct ConsumableStatsData","components":[{"name":"minDamage","type":"int256","internalType":"int256"},{"name":"maxDamage","type":"int256","internalType":"int256"},{"name":"minLevel","type":"uint256","internalType":"uint256"},{"name":"effects","type":"bytes32[]","internalType":"bytes32[]"}]}],"stateMutability":"view"},{"type":"function","name":"getItemEffects","inputs":[{"name":"itemId","type":"uint256","internalType":"uint256"}],"outputs":[{"name":"effects","type":"bytes32[]","internalType":"bytes32[]"}],"stateMutability":"view"},{"type":"function","name":"getSpellStats","inputs":[{"name":"itemId","type":"uint256","internalType":"uint256"}],"outputs":[{"name":"_spellStats","type":"tuple","internalType":"struct SpellStatsData","components":[{"name":"minDamage","type":"int256","internalType":"int256"},{"name":"maxDamage","type":"int256","internalType":"int256"},{"name":"minLevel","type":"uint256","internalType":"uint256"},{"name":"effects","type":"bytes32[]","internalType":"bytes32[]"}]}],"stateMutability":"view"},{"type":"function","name":"getWeaponStats","inputs":[{"name":"itemId","type":"uint256","internalType":"uint256"}],"outputs":[{"name":"_weaponStats","type":"tuple","internalType":"struct WeaponStatsData","components":[{"name":"agiModifier","type":"int256","internalType":"int256"},{"name":"intModifier","type":"int256","internalType":"int256"},{"name":"hpModifier","type":"int256","internalType":"int256"},{"name":"maxDamage","type":"int256","internalType":"int256"},{"name":"minDamage","type":"int256","internalType":"int256"},{"name":"minLevel","type":"uint256","internalType":"uint256"},{"name":"strModifier","type":"int256","internalType":"int256"},{"name":"effects","type":"bytes32[]","internalType":"bytes32[]"}]}],"stateMutability":"view"},{"type":"function","name":"isEquipped","inputs":[{"name":"characterId","type":"bytes32","internalType":"bytes32"},{"name":"itemId","type":"uint256","internalType":"uint256"}],"outputs":[{"name":"_isEquipped","type":"bool","internalType":"bool"}],"stateMutability":"view"},{"type":"function","name":"supportsInterface","inputs":[{"name":"interfaceId","type":"bytes4","internalType":"bytes4"}],"outputs":[{"name":"","type":"bool","internalType":"bool"}],"stateMutability":"pure"},{"type":"function","name":"unequipItem","inputs":[{"name":"characterId","type":"bytes32","internalType":"bytes32"},{"name":"itemId","type":"uint256","internalType":"uint256"}],"outputs":[{"name":"success","type":"bool","internalType":"bool"}],"stateMutability":"nonpayable"},{"type":"event","name":"Store_SpliceDynamicData","inputs":[{"name":"tableId","type":"bytes32","indexed":true,"internalType":"ResourceId"},{"name":"keyTuple","type":"bytes32[]","indexed":false,"internalType":"bytes32[]"},{"name":"dynamicFieldIndex","type":"uint8","indexed":false,"internalType":"uint8"},{"name":"start","type":"uint48","indexed":false,"internalType":"uint48"},{"name":"deleteCount","type":"uint40","indexed":false,"internalType":"uint40"},{"name":"encodedLengths","type":"bytes32","indexed":false,"internalType":"EncodedLengths"},{"name":"data","type":"bytes","indexed":false,"internalType":"bytes"}],"anonymous":false},{"type":"event","name":"Store_SpliceStaticData","inputs":[{"name":"tableId","type":"bytes32","indexed":true,"internalType":"ResourceId"},{"name":"keyTuple","type":"bytes32[]","indexed":false,"internalType":"bytes32[]"},{"name":"start","type":"uint48","indexed":false,"internalType":"uint48"},{"name":"data","type":"bytes","indexed":false,"internalType":"bytes"}],"anonymous":false},{"type":"error","name":"EncodedLengths_InvalidLength","inputs":[{"name":"length","type":"uint256","internalType":"uint256"}]},{"type":"error","name":"Slice_OutOfBounds","inputs":[{"name":"data","type":"bytes","internalType":"bytes"},{"name":"start","type":"uint256","internalType":"uint256"},{"name":"end","type":"uint256","internalType":"uint256"}]},{"type":"error","name":"Store_IndexOutOfBounds","inputs":[{"name":"length","type":"uint256","internalType":"uint256"},{"name":"accessedIndex","type":"uint256","internalType":"uint256"}]},{"type":"error","name":"Store_InvalidResourceType","inputs":[{"name":"expected","type":"bytes2","internalType":"bytes2"},{"name":"resourceId","type":"bytes32","internalType":"ResourceId"},{"name":"resourceIdString","type":"string","internalType":"string"}]},{"type":"error","name":"Store_InvalidSplice","inputs":[{"name":"startWithinField","type":"uint40","internalType":"uint40"},{"name":"deleteCount","type":"uint40","internalType":"uint40"},{"name":"fieldLength","type":"uint40","internalType":"uint40"}]}],"bytecode":{"object":"0x608060405234801561001057600080fd5b50615b0480620000216000396000f3fe608060405234801561001057600080fd5b50600436106100f55760003560e01c806363ff228711610097578063b2aca84b11610066578063b2aca84b146102b6578063cc77a2de146102c9578063e1af802c146102de578063edcfef82146102e657600080fd5b806363ff2287146102075780636479f09f146102275780639056fa281461023a5780639a8bb9a2146102a357600080fd5b806338a5aae6116100d357806338a5aae6146101555780633a0208e71461017557806340a5ed2a1461019557806345ec9354146101f457600080fd5b806301ffc9a7146100fa5780630254f24b14610122578063119df25f14610135575b600080fd5b61010d61010836600461511e565b6102f9565b60405190151581526020015b60405180910390f35b61010d610130366004615160565b610392565b61013d6104f8565b6040516001600160a01b039091168152602001610119565b610168610163366004615182565b610507565b60405161011991906151d7565b610188610183366004615182565b61058c565b604051610119919061521d565b6101a86101a3366004615182565b610633565b6040516101199190600060c082019050825182526020830151602083015260408301516040830152606083015160608301526080830151608083015260a083015160a083015292915050565b604051601f193601358152602001610119565b61021a610215366004615182565b6106e3565b6040516101199190615230565b610188610235366004615182565b6107a2565b61024d610248366004615182565b6107d6565b6040516101199190600060e082019050825182526020830151602083015260408301516040830152606083015160608301526080830151608083015260a083015160a083015260c083015160c083015292915050565b61010d6102b1366004615160565b610ab6565b61010d6102c4366004615160565b610cf7565b6102dc6102d736600461532a565b611107565b005b61013d61147d565b61010d6102f4366004615160565b611487565b60007fffffffff0000000000000000000000000000000000000000000000000000000082167fb5dee12700000000000000000000000000000000000000000000000000000000148061038c57507fffffffff0000000000000000000000000000000000000000000000000000000082167f01ffc9a700000000000000000000000000000000000000000000000000000000145b92915050565b60008061039e8461165a565b905060008160048111156103b4576103b46153cc565b036104145760006103c48561170e565b905060005b815181101561040d578181815181106103e4576103e46153e2565b602002602001015185036103fb576001935061040d565b806104058161540e565b9150506103c9565b50506104f1565b6002816004811115610428576104286153cc565b036104815760006104388561179a565b905060005b815181101561040d57818181518110610458576104586153e2565b6020026020010151850361046f576001935061040d565b806104798161540e565b91505061043d565b6003816004811115610495576104956153cc565b036104f15760006104a58561180f565b905060005b81518110156104ee578181815181106104c5576104c56153e2565b602002602001015185036104dc57600193506104ee565b806104e68161540e565b9150506104aa565b50505b5092915050565b6000610502611884565b905090565b606060006105148361165a565b9050600081600481111561052a5761052a6153cc565b0361053f576105388361170e565b9150610586565b6002816004811115610553576105536153cc565b03610561576105388361179a565b6003816004811115610575576105756153cc565b03610586576105838361180f565b91505b50919050565b6105b76040518060800160405280600081526020016000815260200160008152602001606081525090565b60006105c28361165a565b905060038160048111156105d8576105d86153cc565b1461062a5760405162461bcd60e51b815260206004820152601560248201527f4954454d533a204e6f7420436f6e73756d61626c65000000000000000000000060448201526064015b60405180910390fd5b610583836118b6565b61066c6040518060c001604052806000815260200160008152602001600081526020016000815260200160008152602001600081525090565b60006106778361165a565b9050600181600481111561068d5761068d6153cc565b146106da5760405162461bcd60e51b815260206004820152601360248201527f4954454d533a204e6f742061202041726d6f72000000000000000000000000006044820152606401610621565b6105838361198e565b61072b60405180610100016040528060008152602001600081526020016000815260200160008152602001600081526020016000815260200160008152602001606081525090565b60006107368361165a565b9050600081600481111561074c5761074c6153cc565b146107995760405162461bcd60e51b815260206004820152601460248201527f4954454d533a204e6f7420612020776561706f6e0000000000000000000000006044820152606401610621565b61058383611a6a565b6107cd6040518060800160405280600081526020016000815260200160008152602001606081525090565b61038c82611b55565b6108166040518060e00160405280600081526020016000815260200160008152602001600081526020016000815260200160008152602001600081525090565b600061082183611c12565b90506108636040518060e00160405280600081526020016000815260200160008152602001600081526020016000815260200160008152602001600081525090565b61086b61147d565b6001600160a01b031663fa1becc4856040518263ffffffff1660e01b815260040161089891815260200190565b602060405180830381865afa1580156108b5573d6000803e3d6000fd5b505050506040513d601f19601f820116820180604052508101906108d99190615428565b156109de5760006108e985611cba565b805184519192506000916108fd919061544a565b121561090a576000610918565b80518351610918919061544a565b8252602080820151908401516000916109309161544a565b121561093d576000610951565b80602001518360200151610951919061544a565b60208301526040810151606084015160009161096c9161544a565b121561097957600061098d565b8060400151836060015161098d919061544a565b6040830152606081015160808401516000916109a89161544a565b12156109b55760016109c9565b806060015183608001516109c9919061544a565b60808301525060a08083015190820152610aaf565b602080830151908201528151815260608201516040820152610a74610a0161147d565b6001600160a01b03166353d64640866040518263ffffffff1660e01b8152600401610a2e91815260200190565b602060405180830381865afa158015610a4b573d6000803e3d6000fd5b505050506040513d601f19601f82011682018060405250810190610a6f9190615472565b611da2565b806020019051810190610a879190615504565b6020015160608201526080808301519082015260a0808301519082015260e082015160c08201525b9392505050565b600080610ac283611e17565b90506000610acf85611c12565b90506000610adc85611ed6565b83519091506004811115610af257610af26153cc565b60ff16600003610b63576000610b0786611f9d565b60e084015160208501518451929091101592506001911115610b27575060005b835160408401511115610b38575060005b836060015183602001511115610b4c575060005b818015610b565750805b15610b6057600195505b50505b82516004811115610b7657610b766153cc565b60ff16600103610be7576000610b8b86612032565b60e084015160208501518451929091101592506001911115610bab575060005b835160408401511115610bbc575060005b836060015183602001511115610bd0575060005b818015610bda5750805b15610be457600195505b50505b82516004811115610bfa57610bfa6153cc565b60ff16600203610c6b576000610c0f866120c7565b60e084015160208501518451929091101592506001911115610c2f575060005b835160408401511115610c40575060005b836060015183602001511115610c54575060005b818015610c5e5750805b15610c6857600195505b50505b82516004811115610c7e57610c7e6153cc565b60ff166003036104ee576000610c938661215c565b60e084015160208501518451929091101592506001911115610cb3575060005b835160408401511115610cc4575060005b836060015183602001511115610cd8575060005b818015610ce25750805b15610cec57600195505b505050505092915050565b6000826000610d05826121f1565b90508060600151610d585760405162461bcd60e51b815260206004820152601960248201527f436861726163746572206e6f7420696e207468652047616d65000000000000006044820152606401610621565b6000610d6261147d565b6001600160a01b031663777c2caf876040518263ffffffff1660e01b8152600401610d8f91815260200190565b602060405180830381865afa158015610dac573d6000803e3d6000fd5b505050506040513d601f19601f82011682018060405250810190610dd091906155cc565b9050610dda6104f8565b6001600160a01b0316816001600160a01b031614610e3a5760405162461bcd60e51b815260206004820152601a60248201527f4954454d533a204e6f7420436861726163746572204f776e65720000000000006044820152606401610621565b6000610e4461147d565b6001600160a01b031663cdaccbae876040518263ffffffff1660e01b8152600401610e7191815260200190565b602060405180830381865afa158015610e8e573d6000803e3d6000fd5b505050506040513d601f19601f82011682018060405250810190610eb291906155f5565b6004811115610ec357610ec36153cc565b905060ff8116610f2e576000610ee187610edc8a6122b6565b612322565b9050868160018351610ef39190615616565b81518110610f0357610f036153e2565b602002602001015103610f2857610f1a88826123f1565b610f2388612465565b600195505b506110f4565b60001960ff821601610f8b576000610f4987610edc8a6124d5565b9050868160018351610f5b9190615616565b81518110610f6b57610f6b6153e2565b602002602001015103610f2857610f828882612540565b610f23886125aa565b7ffffffffffffffffffffffffffffffffffffffffffffffffffffffffffffffffe60ff82160161100b576000610fc987610fc48a612616565b612682565b9050868160018351610fdb9190615616565b81518110610feb57610feb6153e2565b602002602001015103610f28576110028882612766565b610f23886127d0565b7ffffffffffffffffffffffffffffffffffffffffffffffffffffffffffffffffd60ff82160161108657600061104487610fc48a61283c565b90508681600183516110569190615616565b81518110611066576110666153e2565b602002602001015103610f285761107d88826128a8565b610f2388612912565b60405162461bcd60e51b815260206004820152602160248201527f45515549504d454e543a20554e5245434f474e495a4544204954454d2054595060448201527f45000000000000000000000000000000000000000000000000000000000000006064820152608401610621565b6110fd8761297e565b5050505092915050565b816000611113826121f1565b905080606001516111665760405162461bcd60e51b815260206004820152601960248201527f436861726163746572206e6f7420696e207468652047616d65000000000000006044820152606401610621565b600061117061147d565b6001600160a01b031663777c2caf866040518263ffffffff1660e01b815260040161119d91815260200190565b602060405180830381865afa1580156111ba573d6000803e3d6000fd5b505050506040513d601f19601f820116820180604052508101906111de91906155cc565b90506111e86104f8565b6001600160a01b0316816001600160a01b0316146112485760405162461bcd60e51b815260206004820152601e60248201527f45515549504d454e543a204e6f7420436861726163746572204f776e657200006044820152606401610621565b6000805b855181101561146b57858181518110611267576112676153e2565b6020026020010151915061127961147d565b6001600160a01b031663b3634118836112906104f8565b6040517fffffffff0000000000000000000000000000000000000000000000000000000060e085901b16815260048101929092526001600160a01b03166024820152604401602060405180830381865afa1580156112f2573d6000803e3d6000fd5b505050506040513d601f19601f820116820180604052508101906113169190615428565b6113625760405162461bcd60e51b815260206004820152601960248201527f45515549504d454e543a204e6f74204974656d204f776e6572000000000000006044820152606401610621565b600061136d83611e17565b9050600481600001516004811115611387576113876153cc565b60ff16106113fd5760405162461bcd60e51b815260206004820152602160248201527f45515549504d454e543a204e6f7420616e2065717569707061626c652049746560448201527f6d000000000000000000000000000000000000000000000000000000000000006064820152608401610621565b6114078884610ab6565b6114535760405162461bcd60e51b815260206004820152601f60248201527f45515549504d454e543a20526571756972656d656e7473206e6f74206d6574006044820152606401610621565b61146288848360000151612b7d565b5060010161124c565b506114758661297e565b505050505050565b6000610502612df1565b60008061149383611e17565b805190915060048111156114a9576114a96153cc565b60ff166000036115075760006114be856122b6565b905060005b815181101561040d57848282815181106114df576114df6153e2565b6020026020010151036114f5576001935061040d565b806114ff8161540e565b9150506114c3565b8051600481111561151a5761151a6153cc565b60ff1660010361157857600061152f856124d5565b905060005b815181101561040d5784828281518110611550576115506153e2565b602002602001015103611566576001935061040d565b806115708161540e565b915050611534565b8051600481111561158b5761158b6153cc565b60ff166002036115e95760006115a085612616565b905060005b815181101561040d57848282815181106115c1576115c16153e2565b6020026020010151036115d7576001935061040d565b806115e18161540e565b9150506115a5565b805160048111156115fc576115fc6153cc565b60ff166003036110865760006116118561283c565b905060005b815181101561040d5784828281518110611632576116326153e2565b602002602001015103611648576001935061040d565b806116528161540e565b915050611616565b604080516001808252818301909252600091829190602080830190803683370190505090508260001b81600081518110611696576116966153e2565b602090810291909101015260006116ee7f746255440000000000000000000000004974656d73000000000000000000000083837e21020101200000000000000000000000000000000000000000000000000000612dfb565b905060f881901c6004811115611706576117066153cc565b949350505050565b60408051600180825281830190925260609160009190602080830190803683370190505090508260001b8160008151811061174b5761174b6153e2565b602090810291909101015260006117837f74625544000000000000000000000000576561706f6e537461747300000000008383612eb8565b90506117066117958260008451612f77565b613005565b60408051600180825281830190925260609160009190602080830190803683370190505090508260001b816000815181106117d7576117d76153e2565b602090810291909101015260006117837f746255440000000000000000000000005370656c6c53746174730000000000008383612eb8565b60408051600180825281830190925260609160009190602080830190803683370190505090508260001b8160008151811061184c5761184c6153e2565b602090810291909101015260006117837f74625544000000000000000000000000436f6e73756d61626c655374617473008383612eb8565b7fffffffffffffffffffffffffffffffffffffffffffffffffffffffffffffffcc36013560601c806118b35750335b90565b6118e16040518060800160405280600081526020016000815260200160008152602001606081525090565b604080516001808252818301909252600091602080830190803683370190505090508260001b8160008151811061191a5761191a6153e2565b6020908102919091010152600080806119737f74625544000000000000000000000000436f6e73756d61626c65537461747300857e60030120202000000000000000000000000000000000000000000000000000613016565b9250925092506119848383836130e6565b9695505050505050565b6119c76040518060c001604052806000815260200160008152602001600081526020016000815260200160008152602001600081525090565b604080516001808252818301909252600091602080830190803683370190505090508260001b81600081518110611a0057611a006153e2565b602090810291909101015260008080611a597f7462554400000000000000000000000041726d6f725374617473000000000000857ec0060020202020202000000000000000000000000000000000000000000000613016565b92509250925061198483838361313c565b611ab260405180610100016040528060008152602001600081526020016000815260200160008152602001600081526020016000815260200160008152602001606081525090565b604080516001808252818301909252600091602080830190803683370190505090508260001b81600081518110611aeb57611aeb6153e2565b602090810291909101015260008080611b447f74625544000000000000000000000000576561706f6e53746174730000000000857ee0070120202020202020000000000000000000000000000000000000000000613016565b9250925092506119848383836131a0565b611b806040518060800160405280600081526020016000815260200160008152602001606081525090565b604080516001808252818301909252600091602080830190803683370190505090508260001b81600081518110611bb957611bb96153e2565b6020908102919091010152600080806119737f746255440000000000000000000000005370656c6c5374617473000000000000857e60030120202000000000000000000000000000000000000000000000000000613016565b611c1a6150c8565b604080516001808252818301909252600091602080830190803683370190505090508281600081518110611c5057611c506153e2565b602090810291909101015260008080611ca97f7462554400000000000000000000000053746174730000000000000000000000857ee1080020200120202020200000000000000000000000000000000000000000613016565b925092509250611984838383613227565b611d096040518061012001604052806000815260200160008152602001600081526020016000815260200160008152602001606081526020016060815260200160608152602001606081525090565b604080516001808252818301909252600091602080830190803683370190505090508281600081518110611d3f57611d3f6153e2565b602090810291909101015260008080611d916f43686172616374657245717569706d65631d18955160e21b01857ea0050420202020200000000000000000000000000000000000000000000000613016565b92509250925061198483838361329f565b60408051600180825281830190925260609160009190602080830190803683370190505090508260001b81600081518110611ddf57611ddf6153e2565b602090810291909101015260006117067f746255440000000000000000000000004d6f62730000000000000000000000008383612eb8565b60408051606080820183526000808352602083015291810191909152604080516001808252818301909252600091602080830190803683370190505090508260001b81600081518110611e6c57611e6c6153e2565b602090810291909101015260008080611ec57f746255440000000000000000000000004974656d730000000000000000000000857e21020101200000000000000000000000000000000000000000000000000000613016565b925092509250611984838383613333565b611efa60405180606001604052806000815260200160008152602001600081525090565b604080516001808252818301909252600091602080830190803683370190505090508260001b81600081518110611f3357611f336153e2565b602090810291909101015260008080611f8c7f74625544000000000000000000000000537461745265737472696374696f6e73857e60030020202000000000000000000000000000000000000000000000000000613016565b92509250925061198483838361339e565b604080516001808252818301909252600091829190602080830190803683370190505090508260001b81600081518110611fd957611fd96153e2565b602090810291909101015260006117067f74625544000000000000000000000000576561706f6e537461747300000000008360057ee0070120202020202020000000000000000000000000000000000000000000612dfb565b604080516001808252818301909252600091829190602080830190803683370190505090508260001b8160008151811061206e5761206e6153e2565b602090810291909101015260006117067f7462554400000000000000000000000041726d6f7253746174730000000000008360047ec0060020202020202000000000000000000000000000000000000000000000612dfb565b604080516001808252818301909252600091829190602080830190803683370190505090508260001b81600081518110612103576121036153e2565b602090810291909101015260006117067f746255440000000000000000000000005370656c6c53746174730000000000008360027e60030120202000000000000000000000000000000000000000000000000000612dfb565b604080516001808252818301909252600091829190602080830190803683370190505090508260001b81600081518110612198576121986153e2565b602090810291909101015260006117067f74625544000000000000000000000000436f6e73756d61626c655374617473008360027e60030120202000000000000000000000000000000000000000000000000000612dfb565b6040805160808101825260008082526020820181905281830181905260608201819052825160018082528185019094529192909190816020016020820280368337019050509050828160008151811061224c5761224c6153e2565b6020908102919091010152600080806122a57f7462554400000000000000000000000043686172616374657273000000000000857e55040020142001000000000000000000000000000000000000000000000000613016565b9250925092506119848383836133de565b604080516001808252818301909252606091600091906020808301908036833701905050905082816000815181106122f0576122f06153e2565b602090810291909101015260006117836f43686172616374657245717569706d65631d18955160e21b01836001612eb8565b60606001825111156105865760005b82518110156123eb578383828151811061234d5761234d6153e2565b6020026020010151036123d9576000836001855161236b9190615616565b8151811061237b5761237b6153e2565b6020026020010151905080848381518110612398576123986153e2565b6020026020010181815250508484600186516123b49190615616565b815181106123c4576123c46153e2565b602002602001018181525050839250506123eb565b806123e38161540e565b915050612331565b5061038c565b604080516001808252818301909252600091602080830190803683370190505090508281600081518110612427576124276153e2565b60209081029190910101526124606f43686172616374657245717569706d65631d18955160e21b0182600161245b8661342e565b61343e565b505050565b60408051600180825281830190925260009160208083019080368337019050509050818160008151811061249b5761249b6153e2565b6020026020010181815250506124d16f43686172616374657245717569706d65631d18955160e21b0160001b82600160206134f0565b5050565b6040805160018082528183019092526060916000919060208083019080368337019050509050828160008151811061250f5761250f6153e2565b602090810291909101015260006117836f43686172616374657245717569706d65631d18955160e21b018383612eb8565b604080516001808252818301909252600091602080830190803683370190505090508281600081518110612576576125766153e2565b60209081029190910101526124606f43686172616374657245717569706d65631d18955160e21b0182600061245b8661342e565b6040805160018082528183019092526000916020808301908036833701905050905081816000815181106125e0576125e06153e2565b6020026020010181815250506124d16f43686172616374657245717569706d65631d18955160e21b0160001b82600060206134f0565b60408051600180825281830190925260609160009190602080830190803683370190505090508281600081518110612650576126506153e2565b602090810291909101015260006117836f43686172616374657245717569706d65631d18955160e21b01836002612eb8565b60608160005b815181101561275e57848282815181106126a4576126a46153e2565b60200260200101510361275657805b82518110156127505782516126c9826001615629565b101561271657826126db826001615629565b815181106126eb576126eb6153e2565b6020026020010151838281518110612705576127056153e2565b602002602001018181525050612748565b8251612723826001615629565b10612748578583828151811061273b5761273b6153e2565b6020026020010181815250505b6001016126b3565b5061275e565b600101612688565b509392505050565b60408051600180825281830190925260009160208083019080368337019050509050828160008151811061279c5761279c6153e2565b60209081029190910101526124606f43686172616374657245717569706d65631d18955160e21b0182600261245b8661342e565b604080516001808252818301909252600091602080830190803683370190505090508181600081518110612806576128066153e2565b6020026020010181815250506124d16f43686172616374657245717569706d65631d18955160e21b0160001b82600260206134f0565b60408051600180825281830190925260609160009190602080830190803683370190505090508281600081518110612876576128766153e2565b602090810291909101015260006117836f43686172616374657245717569706d65631d18955160e21b01836003612eb8565b6040805160018082528183019092526000916020808301908036833701905050905082816000815181106128de576128de6153e2565b60209081029190910101526124606f43686172616374657245717569706d65631d18955160e21b0182600361245b8661342e565b604080516001808252818301909252600091602080830190803683370190505090508181600081518110612948576129486153e2565b6020026020010181815250506124d16f43686172616374657245717569706d65631d18955160e21b0160001b82600360206134f0565b6000612989826124d5565b90506000612996836122b6565b905060008060008060006129d96040518060c001604052806000815260200160008152602001600081526020016000815260200160008152602001600081525090565b612a2160405180610100016040528060008152602001600081526020016000815260200160008152602001600081526020016000815260200160008152602001606081525090565b885115612ab95760005b8951811015612ab757612a568a8281518110612a4957612a496153e2565b6020026020010151610633565b9250826020015188612a68919061544a565b97508260a0015187612a7a919061544a565b8351909750612a89908761544a565b9550826060015185612a9b919061544a565b9450826040015184612aad919061544a565b9350600101612a2b565b505b875115612b3f5760005b8851811015612b3d57612aee898281518110612ae157612ae16153e2565b60200260200101516106e3565b91508160c0015187612b00919061544a565b8251909750612b0f908761544a565b9550816020015185612b21919061544a565b9450816040015184612b33919061544a565b9350600101612ac3565b505b612b498a87613563565b612b538a86613610565b612b5d8a85613688565b612b678a84613700565b612b718a88613778565b50505050505050505050565b612b878383611487565b15612bd45760405162461bcd60e51b815260206004820152601b60248201527f45515549504d454e543a20414c524541445920455155495050454400000000006044820152606401610621565b806004811115612be657612be66153cc565b60ff16600003612c52576002612bfb846137f0565b10612c485760405162461bcd60e51b815260206004820181905260248201527f4954454d533a20546f6f206d616e7920776561706f6e732065717569707065646044820152606401610621565b612c528383613867565b806004811115612c6457612c646153cc565b60ff16600103612cd0576001612c79846138f3565b10612cc65760405162461bcd60e51b815260206004820152601e60248201527f4954454d533a20546f6f206d7563682061726d6f7220657175697070656400006044820152606401610621565b612cd0838361395d565b806004811115612ce257612ce26153cc565b60ff16600203612d4e576003612cf7846139d5565b10612d445760405162461bcd60e51b815260206004820152601f60248201527f4954454d533a20546f6f206d616e79207370656c6c73206571756970706564006044820152606401610621565b612d4e8383613a40565b806004811115612d6057612d606153cc565b60ff16600403612460576003612d7584613ab8565b10612de75760405162461bcd60e51b8152602060048201526024808201527f4954454d533a20546f6f206d616e7920636f6e73756d61626c6573206571756960448201527f70706564000000000000000000000000000000000000000000000000000000006064820152608401610621565b6124608383613b23565b6000610502613b9b565b600080612e06613b9b565b9050306001600160a01b03821603612e2c57612e2486868686613bda565b915050611706565b6040517f8c364d590000000000000000000000000000000000000000000000000000000081526001600160a01b03821690638c364d5990612e7790899089908990899060040161563c565b602060405180830381865afa158015612e94573d6000803e3d6000fd5b505050506040513d601f19601f82011682018060405250810190612e249190615472565b60606000612ec4613b9b565b9050306001600160a01b03821603612ee957612ee1858585613c10565b915050610aaf565b6040517f1e7889770000000000000000000000000000000000000000000000000000000081526001600160a01b03821690631e78897790612f329088908890889060040161566b565b600060405180830381865afa158015612f4f573d6000803e3d6000fd5b505050506040513d6000823e601f3d908101601f19168201604052612ee1919081019061571f565b600081831180612f875750835182115b15612fc4578383836040517f23230fa300000000000000000000000000000000000000000000000000000000815260040161062193929190615780565b60208401612fd28482615629565b90506000612fe08585615616565b6fffffffffffffffffffffffffffffffff1660809290921b9190911795945050505050565b60606000610aaf8360206000613c4a565b6060600060606000613026613b9b565b9050306001600160a01b0382160361304f57613043878787613cc5565b935093509350506130dd565b6040517f419b58fd0000000000000000000000000000000000000000000000000000000081526001600160a01b0382169063419b58fd90613098908a908a908a906004016157a5565b600060405180830381865afa1580156130b5573d6000803e3d6000fd5b505050506040513d6000823e601f3d908101601f1916820160405261304391908101906157ce565b93509350939050565b6131116040518060800160405280600081526020016000815260200160008152602001606081525090565b61311a84613dcd565b6040840152602083015281526131308383613df5565b60608201529392505050565b6131756040518060c001604052806000815260200160008152602001600081526020016000815260200160008152602001600081525090565b61317e84613e13565b60a0870152608086015260608501526040840152602083015281529392505050565b6131e860405180610100016040528060008152602001600081526020016000815260200160008152602001600081526020016000815260200160008152602001606081525090565b6131f184613e57565b60c088015260a08701526080860152606085015260408401526020830152815261321b8383613df5565b60e08201529392505050565b61322f6150c8565b61323884613ea5565b60e0890181905260c0890182905260a089018390526080890184905260608901859052886020810160408201886002811115613276576132766153cc565b6002811115613287576132876153cc565b90529790975250505093909252509195945050505050565b6132ee6040518061012001604052806000815260200160008152602001600081526020016000815260200160008152602001606081526020016060815260200160608152602001606081525090565b6132f784613f13565b608086015260608501526040840152602083015281526133178383613f4f565b61010085015260e084015260c083015260a08201529392505050565b6040805160608082018352600080835260208301529181019190915261335884613fdd565b6020830181905282826004811115613372576133726153cc565b6004811115613383576133836153cc565b81525050506133928383614009565b60408201529392505050565b6133c260405180606001604052806000815260200160008152602001600081525090565b6133cb84613dcd565b6040840152602083015281529392505050565b60408051608081018252600080825260208201819052918101829052606081019190915261340b8461402c565b1515606085015260408401526001600160a01b0316602083015281529392505050565b6060816105838160206000614066565b6000613448613b9b565b9050306001600160a01b0382160361346b57613466858585856140ba565b6134e9565b6040517fef6ea8620000000000000000000000000000000000000000000000000000000081526001600160a01b0382169063ef6ea862906134b690889088908890889060040161583b565b600060405180830381600087803b1580156134d057600080fd5b505af11580156134e4573d6000803e3d6000fd5b505050505b5050505050565b60006134fa613b9b565b9050306001600160a01b0382160361351857613466858585856140f5565b6040517fd9c03a040000000000000000000000000000000000000000000000000000000081526001600160a01b0382169063d9c03a04906134b690889088908890889060040161563c565b604080516001808252818301909252600091602080830190803683370190505090508281600081518110613599576135996153e2565b6020026020010181815250506124606f43686172616374657245717569706d65631d18955160e21b0160001b826000856040516020016135db91815260200190565b60408051601f198184030181529190527ea005042020202020000000000000000000000000000000000000000000000061414e565b604080516001808252818301909252600091602080830190803683370190505090508281600081518110613646576136466153e2565b6020026020010181815250506124606f43686172616374657245717569706d65631d18955160e21b0160001b826001856040516020016135db91815260200190565b6040805160018082528183019092526000916020808301908036833701905050905082816000815181106136be576136be6153e2565b6020026020010181815250506124606f43686172616374657245717569706d65631d18955160e21b0160001b826002856040516020016135db91815260200190565b604080516001808252818301909252600091602080830190803683370190505090508281600081518110613736576137366153e2565b6020026020010181815250506124606f43686172616374657245717569706d65631d18955160e21b0160001b826003856040516020016135db91815260200190565b6040805160018082528183019092526000916020808301908036833701905050905082816000815181106137ae576137ae6153e2565b6020026020010181815250506124606f43686172616374657245717569706d65631d18955160e21b0160001b826004856040516020016135db91815260200190565b604080516001808252818301909252600091829190602080830190803683370190505090508281600081518110613829576138296153e2565b6020908102919091010152600061385b6f43686172616374657245717569706d65631d18955160e21b018360016141f7565b60209004949350505050565b60408051600180825281830190925260009160208083019080368337019050509050828160008151811061389d5761389d6153e2565b6020026020010181815250506124606f43686172616374657245717569706d65631d18955160e21b0160001b826001856040516020016138df91815260200190565b6040516020818303038152906040526142a9565b60408051600180825281830190925260009182919060208083019080368337019050509050828160008151811061392c5761392c6153e2565b6020908102919091010152600061385b6f43686172616374657245717569706d65631d18955160e21b0183836141f7565b604080516001808252818301909252600091602080830190803683370190505090508281600081518110613993576139936153e2565b6020026020010181815250506124606f43686172616374657245717569706d65631d18955160e21b0160001b826000856040516020016138df91815260200190565b604080516001808252818301909252600091829190602080830190803683370190505090508281600081518110613a0e57613a0e6153e2565b6020908102919091010152600061385b6f43686172616374657245717569706d65631d18955160e21b018360026141f7565b604080516001808252818301909252600091602080830190803683370190505090508281600081518110613a7657613a766153e2565b6020026020010181815250506124606f43686172616374657245717569706d65631d18955160e21b0160001b826002856040516020016138df91815260200190565b604080516001808252818301909252600091829190602080830190803683370190505090508281600081518110613af157613af16153e2565b6020908102919091010152600061385b6f43686172616374657245717569706d65631d18955160e21b018360036141f7565b604080516001808252818301909252600091602080830190803683370190505090508281600081518110613b5957613b596153e2565b6020026020010181815250506124606f43686172616374657245717569706d65631d18955160e21b0160001b826003856040516020016138df91815260200190565b7f629a4c26e296b22a8e0856e9f6ecb2d1008d7e00081111962cd175fa7488e175546000906001600160a01b031680613bd5573391505090565b919050565b6000613c07613be9868661431c565b60ff858116601b0360080285901c16613c028587614372565b6143a3565b95945050505050565b6060611706613c208585856143f4565b6000613c4585613c308989614474565b9060ff166028026038011c64ffffffffff1690565b614487565b60606000613c588560801c90565b90506fffffffffffffffffffffffffffffffff85166000858281613c7e57613c7e61587a565b04905060405193506020840160208202810160405281855260005b82811015613cb9578451871c825293870193602090910190600101613c99565b50505050509392505050565b6060600060606000613cd6856144aa565b9050613ce38787836144cd565b93506000613cf086614506565b90508015613dc257613d028888614474565b935066ffffffffffffff841667ffffffffffffffff811115613d2657613d26615295565b6040519080825280601f01601f191660200182016040528015613d50576020820181803683370190505b5092506020830160005b828160ff161015613dbf576000613d728b8b846143f4565b90506000613d8f888460ff166028026038011c64ffffffffff1690565b9050613d9e8260008387614543565b613da88185615629565b935050508080613db790615890565b915050613d5a565b50505b505093509350939050565b6000806000613de0846000016020015190565b60408501516060909501519095909350915050565b60606000603884901c64ffffffffff16613c07611795858484612f77565b600080600080600080613e2a876000016020015190565b6040880151606089015160808a015160a08b015160c0909b0151939b929a91995097509550909350915050565b6000806000806000806000613e70886000016020015190565b604089015160608a015160808b015160a08c015160c08d015160e0909d0151949d939c929b5090995097509550909350915050565b600080600080600080600080613ebf896000016020015190565b60408a015160608b0151919950975060f81c6002811115613ee257613ee26153cc565b60618a015160818b015160a18c015160c18d015160e1909d01519b9d9a9c939b929a91995097509195509350915050565b6000806000806000613f29866000016020015190565b60408701516060880151608089015160a090990151929991989097509550909350915050565b60608080806000603887901c64ffffffffff16613f70611795888484612f77565b955090508064ffffffffff606089901c1601613f90611795888484612f77565b945090508064ffffffffff608889901c1601613fb0611795888484612f77565b935090508064ffffffffff60b089901c1601613fd0611795888484612f77565b9250505092959194509250565b6020810151600090819060f81c6004811115613ffb57613ffb6153cc565b602193909301519293915050565b60606000603884901c64ffffffffff16613c07614027858484612f77565b61460e565b600080600080614040856000016020015190565b6040860151605487015191955060601c9350607486015190925060f81c90509193509193565b8251606090600061407785836158af565b9050604051925060208301601f19603f83860101166040528184526000602088015b84821015613cb9578051871b83529187019160019190910190602001614099565b60006140c68585614474565b905060006140e3828560ff166028026038011c64ffffffffff1690565b9050611475868686600085888861468e565b60006141018585614474565b9050600061411e828560ff166028026038011c64ffffffffff1690565b90506114758686866141378764ffffffffff8716615616565b60408051600081526020810190915288908861468e565b6000614158613b9b565b9050306001600160a01b0382160361417c576141778686868686614ac8565b611475565b6040517f390baae00000000000000000000000000000000000000000000000000000000081526001600160a01b0382169063390baae0906141c990899089908990899089906004016158c6565b600060405180830381600087803b1580156141e357600080fd5b505af1158015612b71573d6000803e3d6000fd5b600080614202613b9b565b9050306001600160a01b0382160361421f57612ee1858585614add565b6040517fdbbf0e210000000000000000000000000000000000000000000000000000000081526001600160a01b0382169063dbbf0e21906142689088908890889060040161566b565b602060405180830381865afa158015614285573d6000803e3d6000fd5b505050506040513d601f19601f82011682018060405250810190612ee19190615472565b60006142b3613b9b565b9050306001600160a01b038216036142d15761346685858585614aed565b6040517f150f32620000000000000000000000000000000000000000000000000000000081526001600160a01b0382169063150f3262906134b690889088908890889060040161583b565b6000828260405160200161433192919061590d565b60408051601f1981840301815291905280516020909101207f86425bff6b57326c7859e89024fe4f238ca327a1ae4a230180dd2f0e88aaa7d9189392505050565b600080805b8360ff1681101561275e5761439960ff601b83900360080287901c1683615629565b9150600101614377565b6000602082106143c9576020820484019350602082816143c5576143c561587a565b0691505b508254600882021b60208290038084111561275e576001850154600882021c82179150509392505050565b6000838360405160200161440992919061590d565b604051602081830303815290604052805190602001208260f81b7effffffffffffffffffffffffffffffffffffffffffffffffffffffffffffff19167f3b4102da22e32d82fc925482184f16c09fd4281692720b87d124aef6da48a0f1181860001c90509392505050565b6000610aaf6144838484614b28565b5490565b60405160208101601f19603f848401011660405282825261275e85858584614543565b600060086144ba60026020615616565b6144c491906158af565b9190911c919050565b6060816000036144ec5750604080516020810190915260008152610aaf565b60006144f8858561431c565b9050613c0781600085614487565b6000600860018061451960026020615616565b6145239190615616565b61452d9190615616565b61453791906158af565b8260ff911c1692915050565b82156145ca576020831061456d576020830484019350602083816145695761456961587a565b0692505b82156145ca5760208390036000818410156145905750600019600884021c61459a565b50600019600882021c5b8554600886021b8184511682198216178452508184116145bb575050614608565b50600194909401939182900391015b5b602082106145ec5783548152600190930192601f19909101906020016145cb565b81156146085780518454600019600885021c9182169119161781525b50505050565b6060600061461c8360801c90565b90506fffffffffffffffffffffffffffffffff83168067ffffffffffffffff81111561464a5761464a615295565b6040519080825280601f01601f191660200182016040528015614674576020820181803683370190505b50925060208301614686838284614b7e565b505050919050565b7f7462000000000000000000000000000000000000000000000000000000000000877fffff000000000000000000000000000000000000000000000000000000000000161461474e577f7462000000000000000000000000000000000000000000000000000000000000878860405160200161470c91815260200190565b60408051601f19818403018152908290527f31b46683000000000000000000000000000000000000000000000000000000008252610621939291600401615949565b6000614769828760ff166028026038011c64ffffffffff1690565b9050600083518564ffffffffff16836147829190615616565b61478c9190615629565b90508082141580156147ae5750816147a4868861598a565b64ffffffffff1614155b156147fe576040517fa65010b400000000000000000000000000000000000000000000000000000000815264ffffffffff8088166004830152808716602483015283166044820152606401610621565b818664ffffffffff16111561484f576040517f7e8578d30000000000000000000000000000000000000000000000000000000081526004810183905264ffffffffff87166024820152604401610621565b600061485c848984614bc9565b905060006148698b614c97565b905060005b815181101561493457600082828151811061488b5761488b6153e2565b602002602001015190506148b76010826affffffffffffffffffffff1916614d2090919063ffffffff16565b1561492b57606081901c6001600160a01b03166355eb5a288e8e8e8e8e8d8f6040518863ffffffff1660e01b81526004016148f897969594939291906159a8565b600060405180830381600087803b15801561491257600080fd5b505af1158015614926573d6000803e3d6000fd5b505050505b5060010161486e565b5064ffffffffff881660005b8a60ff168160ff16101561497357614967878260ff166028026038011c64ffffffffff1690565b90910190600101614940565b508b7ffe158a7adba34e256807c8a149028d3162918713c3838afc643ce9f96716ebfd8c8c848c888d6040516149ae96959493929190615a06565b60405180910390a2508284146149cf5760006149ca8c8c614b28565b839055505b60006149dc8c8c8c6143f4565b90506149f0818a64ffffffffff1689614d3e565b5060005b8151811015614aba576000828281518110614a1157614a116153e2565b60200260200101519050614a3d6020826affffffffffffffffffffff1916614d2090919063ffffffff16565b15614ab157606081901c6001600160a01b031663635845338e8e8e8e8e8a8f6040518863ffffffff1660e01b8152600401614a7e97969594939291906159a8565b600060405180830381600087803b158015614a9857600080fd5b505af1158015614aac573d6000803e3d6000fd5b505050505b506001016149f4565b505050505050505050505050565b6134e98585614ad78487614372565b85614d54565b600061170682613c308686614474565b6000614af98585614474565b90506000614b16828560ff166028026038011c64ffffffffff1690565b9050611475868686846000888861468e565b60008282604051602001614b3d92919061590d565b60408051601f1981840301815291905280516020909101207f14e2fcc58e58e68ec7edc30c8d50dccc3ce2714a623ec81f46b6a63922d76569189392505050565b5b60208110614b9e578251825260209283019290910190601f1901614b7f565b80600003614bab57505050565b6000600019600883021c905080835116811985511617835250505050565b600064ffffffffff821115614c0d576040517f7149a3c100000000000000000000000000000000000000000000000000000000815260048101839052602401610621565b8366ffffffffffffff811660ff851660280260380182901c64ffffffffff16808510614c3f5780850382019150614c47565b848103820391505b5064ffffffffff6038602860ff8816020181811b197fffffffffffffffffffffffffffffffffffffffffffffffffff000000000000009490941690921792909216918416901b1790509392505050565b60408051600180825281830190925260609160009190602080830190803683370190505090508281600081518110614cd157614cd16153e2565b60209081029190910101526000614d097f746273746f726500000000000000000053746f7265486f6f6b730000000000008383613c10565b9050611706614d1b8260008451612f77565b614ff8565b60008160ff1682614d318560581c90565b1660ff1614905092915050565b61246083838351614d4f8560200190565b615009565b7f6f74000000000000000000000000000000000000000000000000000000000000847fffff0000000000000000000000000000000000000000000000000000000000001603614dde57837f8c0b5119d4cec7b284c6b1b39252a03d1e2f2d7451a5895562524c113bb952be848484604051614dd193929190615a62565b60405180910390a2614608565b6000614dea858561431c565b90506000614df786614c97565b905060005b8151811015614ecc576000828281518110614e1957614e196153e2565b60200260200101519050614e456004826affffffffffffffffffffff1916614d2090919063ffffffff16565b15614ec3576040517f964f667d000000000000000000000000000000000000000000000000000000008152606082901c9063964f667d90614e90908b908b908b908b90600401615a95565b600060405180830381600087803b158015614eaa57600080fd5b505af1158015614ebe573d6000803e3d6000fd5b505050505b50600101614dfc565b50857f8c0b5119d4cec7b284c6b1b39252a03d1e2f2d7451a5895562524c113bb952be868686604051614f0193929190615a62565b60405180910390a2614f1c828565ffffffffffff1685614d3e565b60005b8151811015614fef576000828281518110614f3c57614f3c6153e2565b60200260200101519050614f686008826affffffffffffffffffffff1916614d2090919063ffffffff16565b15614fe6576040517fa8ba8721000000000000000000000000000000000000000000000000000000008152606082901c9063a8ba872190614fb3908b908b908b908b90600401615a95565b600060405180830381600087803b158015614fcd57600080fd5b505af1158015614fe1573d6000803e3d6000fd5b505050505b50600101614f1f565b50505050505050565b60606000610aaf8360156000613c4a565b821561508357602083106150335760208304840193506020838161502f5761502f61587a565b0692505b82156150835760208390036000600019600885021c1990506008850281811c91508351811c9050811987541682821617875550818411615074575050614608565b50600194909401939182900391015b5b602082106150a55780518455600190930192601f1990910190602001615084565b8115614608576000600019600884021c8554835182191691161785555050505050565b6040518061010001604052806000815260200160008152602001600060028111156150f5576150f56153cc565b815260200160008152602001600081526020016000815260200160008152602001600081525090565b60006020828403121561513057600080fd5b81357fffffffff0000000000000000000000000000000000000000000000000000000081168114610aaf57600080fd5b6000806040838503121561517357600080fd5b50508035926020909101359150565b60006020828403121561519457600080fd5b5035919050565b60008151808452602080850194506020840160005b838110156151cc578151875295820195908201906001016151b0565b509495945050505050565b602081526000610aaf602083018461519b565b8051825260208101516020830152604081015160408301526000606082015160806060850152611706608085018261519b565b602081526000610aaf60208301846151ea565b6020815281516020820152602082015160408201526040820151606082015260608201516080820152608082015160a082015260a082015160c082015260c082015160e0820152600060e083015161010080818501525061170661012084018261519b565b634e487b7160e01b600052604160045260246000fd5b604051610120810167ffffffffffffffff811182821017156152cf576152cf615295565b60405290565b604051601f8201601f1916810167ffffffffffffffff811182821017156152fe576152fe615295565b604052919050565b600067ffffffffffffffff82111561532057615320615295565b5060051b60200190565b6000806040838503121561533d57600080fd5b8235915060208084013567ffffffffffffffff81111561535c57600080fd5b8401601f8101861361536d57600080fd5b803561538061537b82615306565b6152d5565b81815260059190911b8201830190838101908883111561539f57600080fd5b928401925b828410156153bd578335825292840192908401906153a4565b80955050505050509250929050565b634e487b7160e01b600052602160045260246000fd5b634e487b7160e01b600052603260045260246000fd5b634e487b7160e01b600052601160045260246000fd5b60006000198203615421576154216153f8565b5060010190565b60006020828403121561543a57600080fd5b81518015158114610aaf57600080fd5b808201828112600083128015821682158216171561546a5761546a6153f8565b505092915050565b60006020828403121561548457600080fd5b5051919050565b805160038110613bd557600080fd5b600082601f8301126154ab57600080fd5b815160206154bb61537b83615306565b8083825260208201915060208460051b8701019350868411156154dd57600080fd5b602086015b848110156154f957805183529183019183016154e2565b509695505050505050565b60006020828403121561551657600080fd5b815167ffffffffffffffff8082111561552e57600080fd5b90830190610120828603121561554357600080fd5b61554b6152ab565b82518152602083015160208201526155656040840161548b565b6040820152606083015160608201526080830151608082015260a083015160a082015260c08301518281111561559a57600080fd5b6155a68782860161549a565b60c08301525060e083810151908201526101009283015192810192909252509392505050565b6000602082840312156155de57600080fd5b81516001600160a01b0381168114610aaf57600080fd5b60006020828403121561560757600080fd5b815160058110610aaf57600080fd5b8181038181111561038c5761038c6153f8565b8082018082111561038c5761038c6153f8565b848152608060208201526000615655608083018661519b565b60ff949094166040830152506060015292915050565b838152606060208201526000615684606083018561519b565b905060ff83166040830152949350505050565b60005b838110156156b257818101518382015260200161569a565b50506000910152565b600082601f8301126156cc57600080fd5b815167ffffffffffffffff8111156156e6576156e6615295565b6156f96020601f19601f840116016152d5565b81815284602083860101111561570e57600080fd5b611706826020830160208701615697565b60006020828403121561573157600080fd5b815167ffffffffffffffff81111561574857600080fd5b611706848285016156bb565b6000815180845261576c816020860160208601615697565b601f01601f19169290920160200192915050565b6060815260006157936060830186615754565b60208301949094525060400152919050565b8381526060602082015260006157be606083018561519b565b9050826040830152949350505050565b6000806000606084860312156157e357600080fd5b835167ffffffffffffffff808211156157fb57600080fd5b615807878388016156bb565b945060208601519350604086015191508082111561582457600080fd5b50615831868287016156bb565b9150509250925092565b848152608060208201526000615854608083018661519b565b60ff85166040840152828103606084015261586f8185615754565b979650505050505050565b634e487b7160e01b600052601260045260246000fd5b600060ff821660ff81036158a6576158a66153f8565b60010192915050565b808202811582820484141761038c5761038c6153f8565b85815260a0602082015260006158df60a083018761519b565b60ff8616604084015282810360608401526158fa8186615754565b9150508260808301529695505050505050565b8281526000602080830184516020860160005b8281101561593c57815184529284019290840190600101615920565b5091979650505050505050565b7fffff00000000000000000000000000000000000000000000000000000000000084168152826020820152606060408201526000613c076060830184615754565b64ffffffffff8181168382160190808211156104f1576104f16153f8565b87815260e0602082015260006159c160e083018961519b565b60ff8816604084015264ffffffffff87811660608501528616608084015260a0830185905282810360c08401526159f88185615754565b9a9950505050505050505050565b60c081526000615a1960c083018961519b565b60ff8816602084015265ffffffffffff8716604084015264ffffffffff8616606084015284608084015282810360a0840152615a558185615754565b9998505050505050505050565b606081526000615a75606083018661519b565b65ffffffffffff8516602084015282810360408401526119848185615754565b848152608060208201526000615aae608083018661519b565b65ffffffffffff85166040840152828103606084015261586f818561575456fea2646970667358221220480186457e1d2ad2de7a7853493e9eef04f7e9191fd9df834e45b58276c08bcd64736f6c63430008180033","linkReferences":{}},"methodIdentifiers":{"_msgSender()":"119df25f","_msgValue()":"45ec9354","_world()":"e1af802c","applyEquipmentBonuses(bytes32)":"9056fa28","checkItemEffect(uint256,bytes32)":"0254f24b","checkRequirements(bytes32,uint256)":"9a8bb9a2","equipItems(bytes32,uint256[])":"cc77a2de","getArmorStats(uint256)":"40a5ed2a","getConsumableStats(uint256)":"3a0208e7","getItemEffects(uint256)":"38a5aae6","getSpellStats(uint256)":"6479f09f","getWeaponStats(uint256)":"63ff2287","isEquipped(bytes32,uint256)":"edcfef82","supportsInterface(bytes4)":"01ffc9a7","unequipItem(bytes32,uint256)":"b2aca84b"},"id":257}