{"abi":[{"type":"function","name":"_msgSender","inputs":[],"outputs":[{"name":"sender","type":"address","internalType":"address"}],"stateMutability":"view"},{"type":"function","name":"_msgValue","inputs":[],"outputs":[{"name":"value","type":"uint256","internalType":"uint256"}],"stateMutability":"pure"},{"type":"function","name":"_world","inputs":[],"outputs":[{"name":"","type":"address","internalType":"address"}],"stateMutability":"view"},{"type":"function","name":"applyEquipmentBonuses","inputs":[{"name":"entityId","type":"bytes32","internalType":"bytes32"}],"outputs":[{"name":"modifiedStats","type":"tuple","internalType":"struct AdjustedCombatStats","components":[{"name":"adjustedStrength","type":"int256","internalType":"int256"},{"name":"adjustedAgility","type":"int256","internalType":"int256"},{"name":"adjustedIntelligence","type":"int256","internalType":"int256"},{"name":"adjustedArmor","type":"int256","internalType":"int256"},{"name":"adjustedMaxHp","type":"int256","internalType":"int256"},{"name":"currentHp","type":"int256","internalType":"int256"},{"name":"level","type":"uint256","internalType":"uint256"}]}],"stateMutability":"view"},{"type":"function","name":"checkItemEffect","inputs":[{"name":"itemId","type":"uint256","internalType":"uint256"},{"name":"effectId","type":"bytes32","internalType":"bytes32"}],"outputs":[{"name":"hasAction","type":"bool","internalType":"bool"}],"stateMutability":"view"},{"type":"function","name":"checkRequirements","inputs":[{"name":"characterId","type":"bytes32","internalType":"bytes32"},{"name":"itemId","type":"uint256","internalType":"uint256"}],"outputs":[{"name":"canUse","type":"bool","internalType":"bool"}],"stateMutability":"view"},{"type":"function","name":"equipItems","inputs":[{"name":"characterId","type":"bytes32","internalType":"bytes32"},{"name":"itemIds","type":"uint256[]","internalType":"uint256[]"}],"outputs":[],"stateMutability":"nonpayable"},{"type":"function","name":"getArmorStats","inputs":[{"name":"itemId","type":"uint256","internalType":"uint256"}],"outputs":[{"name":"_ArmorStats","type":"tuple","internalType":"struct ArmorStatsData","components":[{"name":"agiModifier","type":"int256","internalType":"int256"},{"name":"armorModifier","type":"int256","internalType":"int256"},{"name":"hpModifier","type":"int256","internalType":"int256"},{"name":"intModifier","type":"int256","internalType":"int256"},{"name":"minLevel","type":"uint256","internalType":"uint256"},{"name":"strModifier","type":"int256","internalType":"int256"}]}],"stateMutability":"view"},{"type":"function","name":"getItemEffects","inputs":[{"name":"itemId","type":"uint256","internalType":"uint256"}],"outputs":[{"name":"effects","type":"bytes32[]","internalType":"bytes32[]"}],"stateMutability":"view"},{"type":"function","name":"getSpellStats","inputs":[{"name":"itemId","type":"uint256","internalType":"uint256"}],"outputs":[{"name":"_spellStats","type":"tuple","internalType":"struct SpellStatsData","components":[{"name":"minDamage","type":"int256","internalType":"int256"},{"name":"maxDamage","type":"int256","internalType":"int256"},{"name":"minLevel","type":"uint256","internalType":"uint256"},{"name":"effects","type":"bytes32[]","internalType":"bytes32[]"}]}],"stateMutability":"view"},{"type":"function","name":"getWeaponStats","inputs":[{"name":"itemId","type":"uint256","internalType":"uint256"}],"outputs":[{"name":"_weaponStats","type":"tuple","internalType":"struct WeaponStatsData","components":[{"name":"agiModifier","type":"int256","internalType":"int256"},{"name":"intModifier","type":"int256","internalType":"int256"},{"name":"hpModifier","type":"int256","internalType":"int256"},{"name":"maxDamage","type":"int256","internalType":"int256"},{"name":"minDamage","type":"int256","internalType":"int256"},{"name":"minLevel","type":"uint256","internalType":"uint256"},{"name":"strModifier","type":"int256","internalType":"int256"},{"name":"effects","type":"bytes32[]","internalType":"bytes32[]"}]}],"stateMutability":"view"},{"type":"function","name":"isEquipped","inputs":[{"name":"characterId","type":"bytes32","internalType":"bytes32"},{"name":"itemId","type":"uint256","internalType":"uint256"}],"outputs":[{"name":"_isEquipped","type":"bool","internalType":"bool"}],"stateMutability":"view"},{"type":"function","name":"supportsInterface","inputs":[{"name":"interfaceId","type":"bytes4","internalType":"bytes4"}],"outputs":[{"name":"","type":"bool","internalType":"bool"}],"stateMutability":"pure"},{"type":"function","name":"unequipItem","inputs":[{"name":"characterId","type":"bytes32","internalType":"bytes32"},{"name":"itemId","type":"uint256","internalType":"uint256"}],"outputs":[{"name":"success","type":"bool","internalType":"bool"}],"stateMutability":"nonpayable"},{"type":"event","name":"Store_SpliceDynamicData","inputs":[{"name":"tableId","type":"bytes32","indexed":true,"internalType":"ResourceId"},{"name":"keyTuple","type":"bytes32[]","indexed":false,"internalType":"bytes32[]"},{"name":"dynamicFieldIndex","type":"uint8","indexed":false,"internalType":"uint8"},{"name":"start","type":"uint48","indexed":false,"internalType":"uint48"},{"name":"deleteCount","type":"uint40","indexed":false,"internalType":"uint40"},{"name":"encodedLengths","type":"bytes32","indexed":false,"internalType":"EncodedLengths"},{"name":"data","type":"bytes","indexed":false,"internalType":"bytes"}],"anonymous":false},{"type":"event","name":"Store_SpliceStaticData","inputs":[{"name":"tableId","type":"bytes32","indexed":true,"internalType":"ResourceId"},{"name":"keyTuple","type":"bytes32[]","indexed":false,"internalType":"bytes32[]"},{"name":"start","type":"uint48","indexed":false,"internalType":"uint48"},{"name":"data","type":"bytes","indexed":false,"internalType":"bytes"}],"anonymous":false},{"type":"error","name":"EncodedLengths_InvalidLength","inputs":[{"name":"length","type":"uint256","internalType":"uint256"}]},{"type":"error","name":"Slice_OutOfBounds","inputs":[{"name":"data","type":"bytes","internalType":"bytes"},{"name":"start","type":"uint256","internalType":"uint256"},{"name":"end","type":"uint256","internalType":"uint256"}]},{"type":"error","name":"Store_IndexOutOfBounds","inputs":[{"name":"length","type":"uint256","internalType":"uint256"},{"name":"accessedIndex","type":"uint256","internalType":"uint256"}]},{"type":"error","name":"Store_InvalidResourceType","inputs":[{"name":"expected","type":"bytes2","internalType":"bytes2"},{"name":"resourceId","type":"bytes32","internalType":"ResourceId"},{"name":"resourceIdString","type":"string","internalType":"string"}]},{"type":"error","name":"Store_InvalidSplice","inputs":[{"name":"startWithinField","type":"uint40","internalType":"uint40"},{"name":"deleteCount","type":"uint40","internalType":"uint40"},{"name":"fieldLength","type":"uint40","internalType":"uint40"}]}],"bytecode":{"object":"0x608060405234801561001057600080fd5b506159e880620000216000396000f3fe608060405234801561001057600080fd5b50600436106100ea5760003560e01c80636479f09f1161008c578063b2aca84b11610066578063b2aca84b14610298578063cc77a2de146102ab578063e1af802c146102c0578063edcfef82146102c857600080fd5b80636479f09f146101fc5780639056fa281461021c5780639a8bb9a21461028557600080fd5b806338a5aae6116100c857806338a5aae61461014a57806340a5ed2a1461016a57806345ec9354146101c957806363ff2287146101dc57600080fd5b806301ffc9a7146100ef5780630254f24b14610117578063119df25f1461012a575b600080fd5b6101026100fd36600461500f565b6102db565b60405190151581526020015b60405180910390f35b610102610125366004615051565b610374565b6101326104da565b6040516001600160a01b03909116815260200161010e565b61015d610158366004615073565b6104e9565b60405161010e91906150c8565b61017d610178366004615073565b61056e565b60405161010e9190600060c082019050825182526020830151602083015260408301516040830152606083015160608301526080830151608083015260a083015160a083015292915050565b604051601f19360135815260200161010e565b6101ef6101ea366004615073565b610623565b60405161010e91906150db565b61020f61020a366004615073565b6106e2565b60405161010e9190615140565b61022f61022a366004615073565b610784565b60405161010e9190600060e082019050825182526020830151602083015260408301516040830152606083015160608301526080830151608083015260a083015160a083015260c083015160c083015292915050565b610102610293366004615051565b610a64565b6101026102a6366004615051565b610ca5565b6102be6102b936600461520e565b6110b5565b005b61013261142b565b6101026102d6366004615051565b611435565b60007fffffffff0000000000000000000000000000000000000000000000000000000082167fb5dee12700000000000000000000000000000000000000000000000000000000148061036e57507fffffffff0000000000000000000000000000000000000000000000000000000082167f01ffc9a700000000000000000000000000000000000000000000000000000000145b92915050565b60008061038084611608565b90506000816004811115610396576103966152b0565b036103f65760006103a6856116bc565b905060005b81518110156103ef578181815181106103c6576103c66152c6565b602002602001015185036103dd57600193506103ef565b806103e7816152f2565b9150506103ab565b50506104d3565b600281600481111561040a5761040a6152b0565b0361046357600061041a85611748565b905060005b81518110156103ef5781818151811061043a5761043a6152c6565b6020026020010151850361045157600193506103ef565b8061045b816152f2565b91505061041f565b6003816004811115610477576104776152b0565b036104d3576000610487856117bd565b905060005b81518110156104d0578181815181106104a7576104a76152c6565b602002602001015185036104be57600193506104d0565b806104c8816152f2565b91505061048c565b50505b5092915050565b60006104e4611832565b905090565b606060006104f683611608565b9050600081600481111561050c5761050c6152b0565b036105215761051a836116bc565b9150610568565b6002816004811115610535576105356152b0565b036105435761051a83611748565b6003816004811115610557576105576152b0565b0361056857610565836117bd565b91505b50919050565b6105a76040518060c001604052806000815260200160008152602001600081526020016000815260200160008152602001600081525090565b60006105b283611608565b905060018160048111156105c8576105c86152b0565b1461061a5760405162461bcd60e51b815260206004820152601360248201527f4954454d533a204e6f742061202041726d6f720000000000000000000000000060448201526064015b60405180910390fd5b61056583611864565b61066b60405180610100016040528060008152602001600081526020016000815260200160008152602001600081526020016000815260200160008152602001606081525090565b600061067683611608565b9050600081600481111561068c5761068c6152b0565b146106d95760405162461bcd60e51b815260206004820152601460248201527f4954454d533a204e6f7420612020776561706f6e0000000000000000000000006044820152606401610611565b6105658361194a565b61070d6040518060800160405280600081526020016000815260200160008152602001606081525090565b600061071883611608565b9050600281600481111561072e5761072e6152b0565b1461077b5760405162461bcd60e51b815260206004820152601360248201527f4954454d533a204e6f742061202041726d6f72000000000000000000000000006044820152606401610611565b61056583611a35565b6107c46040518060e00160405280600081526020016000815260200160008152602001600081526020016000815260200160008152602001600081525090565b60006107cf83611b03565b90506108116040518060e00160405280600081526020016000815260200160008152602001600081526020016000815260200160008152602001600081525090565b61081961142b565b6001600160a01b031663fa1becc4856040518263ffffffff1660e01b815260040161084691815260200190565b602060405180830381865afa158015610863573d6000803e3d6000fd5b505050506040513d601f19601f82011682018060405250810190610887919061530c565b1561098c57600061089785611bab565b805184519192506000916108ab919061532e565b12156108b85760006108c6565b805183516108c6919061532e565b8252602080820151908401516000916108de9161532e565b12156108eb5760006108ff565b806020015183602001516108ff919061532e565b60208301526040810151606084015160009161091a9161532e565b121561092757600061093b565b8060400151836060015161093b919061532e565b6040830152606081015160808401516000916109569161532e565b1215610963576001610977565b80606001518360800151610977919061532e565b60808301525060a08083015190820152610a5d565b602080830151908201528151815260608201516040820152610a226109af61142b565b6001600160a01b03166353d64640866040518263ffffffff1660e01b81526004016109dc91815260200190565b602060405180830381865afa1580156109f9573d6000803e3d6000fd5b505050506040513d601f19601f82011682018060405250810190610a1d9190615356565b611c93565b806020019051810190610a3591906153e8565b6020015160608201526080808301519082015260a0808301519082015260e082015160c08201525b9392505050565b600080610a7083611d08565b90506000610a7d85611b03565b90506000610a8a85611dc7565b83519091506004811115610aa057610aa06152b0565b60ff16600003610b11576000610ab586611e8e565b60e084015160208501518451929091101592506001911115610ad5575060005b835160408401511115610ae6575060005b836060015183602001511115610afa575060005b818015610b045750805b15610b0e57600195505b50505b82516004811115610b2457610b246152b0565b60ff16600103610b95576000610b3986611f23565b60e084015160208501518451929091101592506001911115610b59575060005b835160408401511115610b6a575060005b836060015183602001511115610b7e575060005b818015610b885750805b15610b9257600195505b50505b82516004811115610ba857610ba86152b0565b60ff16600203610c19576000610bbd86611fb8565b60e084015160208501518451929091101592506001911115610bdd575060005b835160408401511115610bee575060005b836060015183602001511115610c02575060005b818015610c0c5750805b15610c1657600195505b50505b82516004811115610c2c57610c2c6152b0565b60ff166003036104d0576000610c418661204d565b60e084015160208501518451929091101592506001911115610c61575060005b835160408401511115610c72575060005b836060015183602001511115610c86575060005b818015610c905750805b15610c9a57600195505b505050505092915050565b6000826000610cb3826120e2565b90508060600151610d065760405162461bcd60e51b815260206004820152601960248201527f436861726163746572206e6f7420696e207468652047616d65000000000000006044820152606401610611565b6000610d1061142b565b6001600160a01b031663777c2caf876040518263ffffffff1660e01b8152600401610d3d91815260200190565b602060405180830381865afa158015610d5a573d6000803e3d6000fd5b505050506040513d601f19601f82011682018060405250810190610d7e91906154b0565b9050610d886104da565b6001600160a01b0316816001600160a01b031614610de85760405162461bcd60e51b815260206004820152601a60248201527f4954454d533a204e6f7420436861726163746572204f776e65720000000000006044820152606401610611565b6000610df261142b565b6001600160a01b031663cdaccbae876040518263ffffffff1660e01b8152600401610e1f91815260200190565b602060405180830381865afa158015610e3c573d6000803e3d6000fd5b505050506040513d601f19601f82011682018060405250810190610e6091906154d9565b6004811115610e7157610e716152b0565b905060ff8116610edc576000610e8f87610e8a8a6121a7565b612213565b9050868160018351610ea191906154fa565b81518110610eb157610eb16152c6565b602002602001015103610ed657610ec888826122e2565b610ed188612356565b600195505b506110a2565b60001960ff821601610f39576000610ef787610e8a8a6123c6565b9050868160018351610f0991906154fa565b81518110610f1957610f196152c6565b602002602001015103610ed657610f308882612431565b610ed18861249b565b7ffffffffffffffffffffffffffffffffffffffffffffffffffffffffffffffffe60ff821601610fb9576000610f7787610f728a612507565b612573565b9050868160018351610f8991906154fa565b81518110610f9957610f996152c6565b602002602001015103610ed657610fb08882612657565b610ed1886126c1565b7ffffffffffffffffffffffffffffffffffffffffffffffffffffffffffffffffd60ff821601611034576000610ff287610f728a61272d565b905086816001835161100491906154fa565b81518110611014576110146152c6565b602002602001015103610ed65761102b8882612799565b610ed188612803565b60405162461bcd60e51b815260206004820152602160248201527f45515549504d454e543a20554e5245434f474e495a4544204954454d2054595060448201527f45000000000000000000000000000000000000000000000000000000000000006064820152608401610611565b6110ab8761286f565b5050505092915050565b8160006110c1826120e2565b905080606001516111145760405162461bcd60e51b815260206004820152601960248201527f436861726163746572206e6f7420696e207468652047616d65000000000000006044820152606401610611565b600061111e61142b565b6001600160a01b031663777c2caf866040518263ffffffff1660e01b815260040161114b91815260200190565b602060405180830381865afa158015611168573d6000803e3d6000fd5b505050506040513d601f19601f8201168201806040525081019061118c91906154b0565b90506111966104da565b6001600160a01b0316816001600160a01b0316146111f65760405162461bcd60e51b815260206004820152601e60248201527f45515549504d454e543a204e6f7420436861726163746572204f776e657200006044820152606401610611565b6000805b855181101561141957858181518110611215576112156152c6565b6020026020010151915061122761142b565b6001600160a01b031663b36341188361123e6104da565b6040517fffffffff0000000000000000000000000000000000000000000000000000000060e085901b16815260048101929092526001600160a01b03166024820152604401602060405180830381865afa1580156112a0573d6000803e3d6000fd5b505050506040513d601f19601f820116820180604052508101906112c4919061530c565b6113105760405162461bcd60e51b815260206004820152601960248201527f45515549504d454e543a204e6f74204974656d204f776e6572000000000000006044820152606401610611565b600061131b83611d08565b9050600481600001516004811115611335576113356152b0565b60ff16106113ab5760405162461bcd60e51b815260206004820152602160248201527f45515549504d454e543a204e6f7420616e2065717569707061626c652049746560448201527f6d000000000000000000000000000000000000000000000000000000000000006064820152608401610611565b6113b58884610a64565b6114015760405162461bcd60e51b815260206004820152601f60248201527f45515549504d454e543a20526571756972656d656e7473206e6f74206d6574006044820152606401610611565b61141088848360000151612a6e565b506001016111fa565b506114238661286f565b505050505050565b60006104e4612ce2565b60008061144183611d08565b80519091506004811115611457576114576152b0565b60ff166000036114b557600061146c856121a7565b905060005b81518110156103ef578482828151811061148d5761148d6152c6565b6020026020010151036114a357600193506103ef565b806114ad816152f2565b915050611471565b805160048111156114c8576114c86152b0565b60ff166001036115265760006114dd856123c6565b905060005b81518110156103ef57848282815181106114fe576114fe6152c6565b60200260200101510361151457600193506103ef565b8061151e816152f2565b9150506114e2565b80516004811115611539576115396152b0565b60ff1660020361159757600061154e85612507565b905060005b81518110156103ef578482828151811061156f5761156f6152c6565b60200260200101510361158557600193506103ef565b8061158f816152f2565b915050611553565b805160048111156115aa576115aa6152b0565b60ff166003036110345760006115bf8561272d565b905060005b81518110156103ef57848282815181106115e0576115e06152c6565b6020026020010151036115f657600193506103ef565b80611600816152f2565b9150506115c4565b604080516001808252818301909252600091829190602080830190803683370190505090508260001b81600081518110611644576116446152c6565b6020908102919091010152600061169c7f746255440000000000000000000000004974656d73000000000000000000000083837e21020101200000000000000000000000000000000000000000000000000000612cec565b905060f881901c60048111156116b4576116b46152b0565b949350505050565b60408051600180825281830190925260609160009190602080830190803683370190505090508260001b816000815181106116f9576116f96152c6565b602090810291909101015260006117317f74625544000000000000000000000000576561706f6e537461747300000000008383612da9565b90506116b46117438260008451612e68565b612ef6565b60408051600180825281830190925260609160009190602080830190803683370190505090508260001b81600081518110611785576117856152c6565b602090810291909101015260006117317f746255440000000000000000000000005370656c6c53746174730000000000008383612da9565b60408051600180825281830190925260609160009190602080830190803683370190505090508260001b816000815181106117fa576117fa6152c6565b602090810291909101015260006117317f74625544000000000000000000000000436f6e73756d61626c655374617473008383612da9565b7fffffffffffffffffffffffffffffffffffffffffffffffffffffffffffffffcc36013560601c806118615750335b90565b61189d6040518060c001604052806000815260200160008152602001600081526020016000815260200160008152602001600081525090565b604080516001808252818301909252600091602080830190803683370190505090508260001b816000815181106118d6576118d66152c6565b60209081029190910101526000808061192f7f7462554400000000000000000000000041726d6f725374617473000000000000857ec0060020202020202000000000000000000000000000000000000000000000612f07565b925092509250611940838383612fd7565b9695505050505050565b61199260405180610100016040528060008152602001600081526020016000815260200160008152602001600081526020016000815260200160008152602001606081525090565b604080516001808252818301909252600091602080830190803683370190505090508260001b816000815181106119cb576119cb6152c6565b602090810291909101015260008080611a247f74625544000000000000000000000000576561706f6e53746174730000000000857ee0070120202020202020000000000000000000000000000000000000000000612f07565b92509250925061194083838361303b565b611a606040518060800160405280600081526020016000815260200160008152602001606081525090565b604080516001808252818301909252600091602080830190803683370190505090508260001b81600081518110611a9957611a996152c6565b602090810291909101015260008080611af27f746255440000000000000000000000005370656c6c5374617473000000000000857e60030120202000000000000000000000000000000000000000000000000000612f07565b9250925092506119408383836130c2565b611b0b614fb9565b604080516001808252818301909252600091602080830190803683370190505090508281600081518110611b4157611b416152c6565b602090810291909101015260008080611b9a7f7462554400000000000000000000000053746174730000000000000000000000857ee1080020200120202020200000000000000000000000000000000000000000612f07565b925092509250611940838383613118565b611bfa6040518061012001604052806000815260200160008152602001600081526020016000815260200160008152602001606081526020016060815260200160608152602001606081525090565b604080516001808252818301909252600091602080830190803683370190505090508281600081518110611c3057611c306152c6565b602090810291909101015260008080611c826f43686172616374657245717569706d65631d18955160e21b01857ea0050420202020200000000000000000000000000000000000000000000000612f07565b925092509250611940838383613190565b60408051600180825281830190925260609160009190602080830190803683370190505090508260001b81600081518110611cd057611cd06152c6565b602090810291909101015260006116b47f746255440000000000000000000000004d6f62730000000000000000000000008383612da9565b60408051606080820183526000808352602083015291810191909152604080516001808252818301909252600091602080830190803683370190505090508260001b81600081518110611d5d57611d5d6152c6565b602090810291909101015260008080611db67f746255440000000000000000000000004974656d730000000000000000000000857e21020101200000000000000000000000000000000000000000000000000000612f07565b925092509250611940838383613224565b611deb60405180606001604052806000815260200160008152602001600081525090565b604080516001808252818301909252600091602080830190803683370190505090508260001b81600081518110611e2457611e246152c6565b602090810291909101015260008080611e7d7f74625544000000000000000000000000537461745265737472696374696f6e73857e60030020202000000000000000000000000000000000000000000000000000612f07565b92509250925061194083838361328f565b604080516001808252818301909252600091829190602080830190803683370190505090508260001b81600081518110611eca57611eca6152c6565b602090810291909101015260006116b47f74625544000000000000000000000000576561706f6e537461747300000000008360057ee0070120202020202020000000000000000000000000000000000000000000612cec565b604080516001808252818301909252600091829190602080830190803683370190505090508260001b81600081518110611f5f57611f5f6152c6565b602090810291909101015260006116b47f7462554400000000000000000000000041726d6f7253746174730000000000008360047ec0060020202020202000000000000000000000000000000000000000000000612cec565b604080516001808252818301909252600091829190602080830190803683370190505090508260001b81600081518110611ff457611ff46152c6565b602090810291909101015260006116b47f746255440000000000000000000000005370656c6c53746174730000000000008360027e60030120202000000000000000000000000000000000000000000000000000612cec565b604080516001808252818301909252600091829190602080830190803683370190505090508260001b81600081518110612089576120896152c6565b602090810291909101015260006116b47f74625544000000000000000000000000436f6e73756d61626c655374617473008360027e60030120202000000000000000000000000000000000000000000000000000612cec565b6040805160808101825260008082526020820181905281830181905260608201819052825160018082528185019094529192909190816020016020820280368337019050509050828160008151811061213d5761213d6152c6565b6020908102919091010152600080806121967f7462554400000000000000000000000043686172616374657273000000000000857e55040020142001000000000000000000000000000000000000000000000000612f07565b9250925092506119408383836132cf565b604080516001808252818301909252606091600091906020808301908036833701905050905082816000815181106121e1576121e16152c6565b602090810291909101015260006117316f43686172616374657245717569706d65631d18955160e21b01836001612da9565b60606001825111156105685760005b82518110156122dc578383828151811061223e5761223e6152c6565b6020026020010151036122ca576000836001855161225c91906154fa565b8151811061226c5761226c6152c6565b6020026020010151905080848381518110612289576122896152c6565b6020026020010181815250508484600186516122a591906154fa565b815181106122b5576122b56152c6565b602002602001018181525050839250506122dc565b806122d4816152f2565b915050612222565b5061036e565b604080516001808252818301909252600091602080830190803683370190505090508281600081518110612318576123186152c6565b60209081029190910101526123516f43686172616374657245717569706d65631d18955160e21b0182600161234c8661331f565b61332f565b505050565b60408051600180825281830190925260009160208083019080368337019050509050818160008151811061238c5761238c6152c6565b6020026020010181815250506123c26f43686172616374657245717569706d65631d18955160e21b0160001b82600160206133e1565b5050565b60408051600180825281830190925260609160009190602080830190803683370190505090508281600081518110612400576124006152c6565b602090810291909101015260006117316f43686172616374657245717569706d65631d18955160e21b018383612da9565b604080516001808252818301909252600091602080830190803683370190505090508281600081518110612467576124676152c6565b60209081029190910101526123516f43686172616374657245717569706d65631d18955160e21b0182600061234c8661331f565b6040805160018082528183019092526000916020808301908036833701905050905081816000815181106124d1576124d16152c6565b6020026020010181815250506123c26f43686172616374657245717569706d65631d18955160e21b0160001b82600060206133e1565b60408051600180825281830190925260609160009190602080830190803683370190505090508281600081518110612541576125416152c6565b602090810291909101015260006117316f43686172616374657245717569706d65631d18955160e21b01836002612da9565b60608160005b815181101561264f5784828281518110612595576125956152c6565b60200260200101510361264757805b82518110156126415782516125ba82600161550d565b101561260757826125cc82600161550d565b815181106125dc576125dc6152c6565b60200260200101518382815181106125f6576125f66152c6565b602002602001018181525050612639565b825161261482600161550d565b10612639578583828151811061262c5761262c6152c6565b6020026020010181815250505b6001016125a4565b5061264f565b600101612579565b509392505050565b60408051600180825281830190925260009160208083019080368337019050509050828160008151811061268d5761268d6152c6565b60209081029190910101526123516f43686172616374657245717569706d65631d18955160e21b0182600261234c8661331f565b6040805160018082528183019092526000916020808301908036833701905050905081816000815181106126f7576126f76152c6565b6020026020010181815250506123c26f43686172616374657245717569706d65631d18955160e21b0160001b82600260206133e1565b60408051600180825281830190925260609160009190602080830190803683370190505090508281600081518110612767576127676152c6565b602090810291909101015260006117316f43686172616374657245717569706d65631d18955160e21b01836003612da9565b6040805160018082528183019092526000916020808301908036833701905050905082816000815181106127cf576127cf6152c6565b60209081029190910101526123516f43686172616374657245717569706d65631d18955160e21b0182600361234c8661331f565b604080516001808252818301909252600091602080830190803683370190505090508181600081518110612839576128396152c6565b6020026020010181815250506123c26f43686172616374657245717569706d65631d18955160e21b0160001b82600360206133e1565b600061287a826123c6565b90506000612887836121a7565b905060008060008060006128ca6040518060c001604052806000815260200160008152602001600081526020016000815260200160008152602001600081525090565b61291260405180610100016040528060008152602001600081526020016000815260200160008152602001600081526020016000815260200160008152602001606081525090565b8851156129aa5760005b89518110156129a8576129478a828151811061293a5761293a6152c6565b602002602001015161056e565b9250826020015188612959919061532e565b97508260a001518761296b919061532e565b835190975061297a908761532e565b955082606001518561298c919061532e565b945082604001518461299e919061532e565b935060010161291c565b505b875115612a305760005b8851811015612a2e576129df8982815181106129d2576129d26152c6565b6020026020010151610623565b91508160c00151876129f1919061532e565b8251909750612a00908761532e565b9550816020015185612a12919061532e565b9450816040015184612a24919061532e565b93506001016129b4565b505b612a3a8a87613454565b612a448a86613501565b612a4e8a85613579565b612a588a846135f1565b612a628a88613669565b50505050505050505050565b612a788383611435565b15612ac55760405162461bcd60e51b815260206004820152601b60248201527f45515549504d454e543a20414c524541445920455155495050454400000000006044820152606401610611565b806004811115612ad757612ad76152b0565b60ff16600003612b43576002612aec846136e1565b10612b395760405162461bcd60e51b815260206004820181905260248201527f4954454d533a20546f6f206d616e7920776561706f6e732065717569707065646044820152606401610611565b612b438383613758565b806004811115612b5557612b556152b0565b60ff16600103612bc1576001612b6a846137e4565b10612bb75760405162461bcd60e51b815260206004820152601e60248201527f4954454d533a20546f6f206d7563682061726d6f7220657175697070656400006044820152606401610611565b612bc1838361384e565b806004811115612bd357612bd36152b0565b60ff16600203612c3f576003612be8846138c6565b10612c355760405162461bcd60e51b815260206004820152601f60248201527f4954454d533a20546f6f206d616e79207370656c6c73206571756970706564006044820152606401610611565b612c3f8383613931565b806004811115612c5157612c516152b0565b60ff16600403612351576003612c66846139a9565b10612cd85760405162461bcd60e51b8152602060048201526024808201527f4954454d533a20546f6f206d616e7920636f6e73756d61626c6573206571756960448201527f70706564000000000000000000000000000000000000000000000000000000006064820152608401610611565b6123518383613a14565b60006104e4613a8c565b600080612cf7613a8c565b9050306001600160a01b03821603612d1d57612d1586868686613acb565b9150506116b4565b6040517f8c364d590000000000000000000000000000000000000000000000000000000081526001600160a01b03821690638c364d5990612d68908990899089908990600401615520565b602060405180830381865afa158015612d85573d6000803e3d6000fd5b505050506040513d601f19601f82011682018060405250810190612d159190615356565b60606000612db5613a8c565b9050306001600160a01b03821603612dda57612dd2858585613b01565b915050610a5d565b6040517f1e7889770000000000000000000000000000000000000000000000000000000081526001600160a01b03821690631e78897790612e239088908890889060040161554f565b600060405180830381865afa158015612e40573d6000803e3d6000fd5b505050506040513d6000823e601f3d908101601f19168201604052612dd29190810190615603565b600081831180612e785750835182115b15612eb5578383836040517f23230fa300000000000000000000000000000000000000000000000000000000815260040161061193929190615664565b60208401612ec3848261550d565b90506000612ed185856154fa565b6fffffffffffffffffffffffffffffffff1660809290921b9190911795945050505050565b60606000610a5d8360206000613b3b565b6060600060606000612f17613a8c565b9050306001600160a01b03821603612f4057612f34878787613bb6565b93509350935050612fce565b6040517f419b58fd0000000000000000000000000000000000000000000000000000000081526001600160a01b0382169063419b58fd90612f89908a908a908a90600401615689565b600060405180830381865afa158015612fa6573d6000803e3d6000fd5b505050506040513d6000823e601f3d908101601f19168201604052612f3491908101906156b2565b93509350939050565b6130106040518060c001604052806000815260200160008152602001600081526020016000815260200160008152602001600081525090565b61301984613cbe565b60a0870152608086015260608501526040840152602083015281529392505050565b61308360405180610100016040528060008152602001600081526020016000815260200160008152602001600081526020016000815260200160008152602001606081525090565b61308c84613d02565b60c088015260a0870152608086015260608501526040840152602083015281526130b68383613d50565b60e08201529392505050565b6130ed6040518060800160405280600081526020016000815260200160008152602001606081525090565b6130f684613d6e565b60408401526020830152815261310c8383613d50565b60608201529392505050565b613120614fb9565b61312984613d96565b60e0890181905260c0890182905260a089018390526080890184905260608901859052886020810160408201886002811115613167576131676152b0565b6002811115613178576131786152b0565b90529790975250505093909252509195945050505050565b6131df6040518061012001604052806000815260200160008152602001600081526020016000815260200160008152602001606081526020016060815260200160608152602001606081525090565b6131e884613e04565b608086015260608501526040840152602083015281526132088383613e40565b61010085015260e084015260c083015260a08201529392505050565b6040805160608082018352600080835260208301529181019190915261324984613ece565b6020830181905282826004811115613263576132636152b0565b6004811115613274576132746152b0565b81525050506132838383613efa565b60408201529392505050565b6132b360405180606001604052806000815260200160008152602001600081525090565b6132bc84613d6e565b6040840152602083015281529392505050565b6040805160808101825260008082526020820181905291810182905260608101919091526132fc84613f1d565b1515606085015260408401526001600160a01b0316602083015281529392505050565b6060816105658160206000613f57565b6000613339613a8c565b9050306001600160a01b0382160361335c5761335785858585613fab565b6133da565b6040517fef6ea8620000000000000000000000000000000000000000000000000000000081526001600160a01b0382169063ef6ea862906133a790889088908890889060040161571f565b600060405180830381600087803b1580156133c157600080fd5b505af11580156133d5573d6000803e3d6000fd5b505050505b5050505050565b60006133eb613a8c565b9050306001600160a01b038216036134095761335785858585613fe6565b6040517fd9c03a040000000000000000000000000000000000000000000000000000000081526001600160a01b0382169063d9c03a04906133a7908890889088908890600401615520565b60408051600180825281830190925260009160208083019080368337019050509050828160008151811061348a5761348a6152c6565b6020026020010181815250506123516f43686172616374657245717569706d65631d18955160e21b0160001b826000856040516020016134cc91815260200190565b60408051601f198184030181529190527ea005042020202020000000000000000000000000000000000000000000000061403f565b604080516001808252818301909252600091602080830190803683370190505090508281600081518110613537576135376152c6565b6020026020010181815250506123516f43686172616374657245717569706d65631d18955160e21b0160001b826001856040516020016134cc91815260200190565b6040805160018082528183019092526000916020808301908036833701905050905082816000815181106135af576135af6152c6565b6020026020010181815250506123516f43686172616374657245717569706d65631d18955160e21b0160001b826002856040516020016134cc91815260200190565b604080516001808252818301909252600091602080830190803683370190505090508281600081518110613627576136276152c6565b6020026020010181815250506123516f43686172616374657245717569706d65631d18955160e21b0160001b826003856040516020016134cc91815260200190565b60408051600180825281830190925260009160208083019080368337019050509050828160008151811061369f5761369f6152c6565b6020026020010181815250506123516f43686172616374657245717569706d65631d18955160e21b0160001b826004856040516020016134cc91815260200190565b60408051600180825281830190925260009182919060208083019080368337019050509050828160008151811061371a5761371a6152c6565b6020908102919091010152600061374c6f43686172616374657245717569706d65631d18955160e21b018360016140e8565b60209004949350505050565b60408051600180825281830190925260009160208083019080368337019050509050828160008151811061378e5761378e6152c6565b6020026020010181815250506123516f43686172616374657245717569706d65631d18955160e21b0160001b826001856040516020016137d091815260200190565b60405160208183030381529060405261419a565b60408051600180825281830190925260009182919060208083019080368337019050509050828160008151811061381d5761381d6152c6565b6020908102919091010152600061374c6f43686172616374657245717569706d65631d18955160e21b0183836140e8565b604080516001808252818301909252600091602080830190803683370190505090508281600081518110613884576138846152c6565b6020026020010181815250506123516f43686172616374657245717569706d65631d18955160e21b0160001b826000856040516020016137d091815260200190565b6040805160018082528183019092526000918291906020808301908036833701905050905082816000815181106138ff576138ff6152c6565b6020908102919091010152600061374c6f43686172616374657245717569706d65631d18955160e21b018360026140e8565b604080516001808252818301909252600091602080830190803683370190505090508281600081518110613967576139676152c6565b6020026020010181815250506123516f43686172616374657245717569706d65631d18955160e21b0160001b826002856040516020016137d091815260200190565b6040805160018082528183019092526000918291906020808301908036833701905050905082816000815181106139e2576139e26152c6565b6020908102919091010152600061374c6f43686172616374657245717569706d65631d18955160e21b018360036140e8565b604080516001808252818301909252600091602080830190803683370190505090508281600081518110613a4a57613a4a6152c6565b6020026020010181815250506123516f43686172616374657245717569706d65631d18955160e21b0160001b826003856040516020016137d091815260200190565b7f629a4c26e296b22a8e0856e9f6ecb2d1008d7e00081111962cd175fa7488e175546000906001600160a01b031680613ac6573391505090565b919050565b6000613af8613ada868661420d565b60ff858116601b0360080285901c16613af38587614263565b614294565b95945050505050565b60606116b4613b118585856142e5565b6000613b3685613b218989614365565b9060ff166028026038011c64ffffffffff1690565b614378565b60606000613b498560801c90565b90506fffffffffffffffffffffffffffffffff85166000858281613b6f57613b6f61575e565b04905060405193506020840160208202810160405281855260005b82811015613baa578451871c825293870193602090910190600101613b8a565b50505050509392505050565b6060600060606000613bc78561439b565b9050613bd48787836143be565b93506000613be1866143f7565b90508015613cb357613bf38888614365565b935066ffffffffffffff841667ffffffffffffffff811115613c1757613c17615179565b6040519080825280601f01601f191660200182016040528015613c41576020820181803683370190505b5092506020830160005b828160ff161015613cb0576000613c638b8b846142e5565b90506000613c80888460ff166028026038011c64ffffffffff1690565b9050613c8f8260008387614434565b613c99818561550d565b935050508080613ca890615774565b915050613c4b565b50505b505093509350939050565b600080600080600080613cd5876000016020015190565b6040880151606089015160808a015160a08b015160c0909b0151939b929a91995097509550909350915050565b6000806000806000806000613d1b886000016020015190565b604089015160608a015160808b015160a08c015160c08d015160e0909d0151949d939c929b5090995097509550909350915050565b60606000603884901c64ffffffffff16613af8611743858484612e68565b6000806000613d81846000016020015190565b60408501516060909501519095909350915050565b600080600080600080600080613db0896000016020015190565b60408a015160608b0151919950975060f81c6002811115613dd357613dd36152b0565b60618a015160818b015160a18c015160c18d015160e1909d01519b9d9a9c939b929a91995097509195509350915050565b6000806000806000613e1a866000016020015190565b60408701516060880151608089015160a090990151929991989097509550909350915050565b60608080806000603887901c64ffffffffff16613e61611743888484612e68565b955090508064ffffffffff606089901c1601613e81611743888484612e68565b945090508064ffffffffff608889901c1601613ea1611743888484612e68565b935090508064ffffffffff60b089901c1601613ec1611743888484612e68565b9250505092959194509250565b6020810151600090819060f81c6004811115613eec57613eec6152b0565b602193909301519293915050565b60606000603884901c64ffffffffff16613af8613f18858484612e68565b6144ff565b600080600080613f31856000016020015190565b6040860151605487015191955060601c9350607486015190925060f81c90509193509193565b82516060906000613f688583615793565b9050604051925060208301601f19603f83860101166040528184526000602088015b84821015613baa578051871b83529187019160019190910190602001613f8a565b6000613fb78585614365565b90506000613fd4828560ff166028026038011c64ffffffffff1690565b9050611423868686600085888861457f565b6000613ff28585614365565b9050600061400f828560ff166028026038011c64ffffffffff1690565b90506114238686866140288764ffffffffff87166154fa565b60408051600081526020810190915288908861457f565b6000614049613a8c565b9050306001600160a01b0382160361406d5761406886868686866149b9565b611423565b6040517f390baae00000000000000000000000000000000000000000000000000000000081526001600160a01b0382169063390baae0906140ba90899089908990899089906004016157aa565b600060405180830381600087803b1580156140d457600080fd5b505af1158015612a62573d6000803e3d6000fd5b6000806140f3613a8c565b9050306001600160a01b0382160361411057612dd28585856149ce565b6040517fdbbf0e210000000000000000000000000000000000000000000000000000000081526001600160a01b0382169063dbbf0e21906141599088908890889060040161554f565b602060405180830381865afa158015614176573d6000803e3d6000fd5b505050506040513d601f19601f82011682018060405250810190612dd29190615356565b60006141a4613a8c565b9050306001600160a01b038216036141c257613357858585856149de565b6040517f150f32620000000000000000000000000000000000000000000000000000000081526001600160a01b0382169063150f3262906133a790889088908890889060040161571f565b600082826040516020016142229291906157f1565b60408051601f1981840301815291905280516020909101207f86425bff6b57326c7859e89024fe4f238ca327a1ae4a230180dd2f0e88aaa7d9189392505050565b600080805b8360ff1681101561264f5761428a60ff601b83900360080287901c168361550d565b9150600101614268565b6000602082106142ba576020820484019350602082816142b6576142b661575e565b0691505b508254600882021b60208290038084111561264f576001850154600882021c82179150509392505050565b600083836040516020016142fa9291906157f1565b604051602081830303815290604052805190602001208260f81b7effffffffffffffffffffffffffffffffffffffffffffffffffffffffffffff19167f3b4102da22e32d82fc925482184f16c09fd4281692720b87d124aef6da48a0f1181860001c90509392505050565b6000610a5d6143748484614a19565b5490565b60405160208101601f19603f848401011660405282825261264f85858584614434565b600060086143ab600260206154fa565b6143b59190615793565b9190911c919050565b6060816000036143dd5750604080516020810190915260008152610a5d565b60006143e9858561420d565b9050613af881600085614378565b6000600860018061440a600260206154fa565b61441491906154fa565b61441e91906154fa565b6144289190615793565b8260ff911c1692915050565b82156144bb576020831061445e5760208304840193506020838161445a5761445a61575e565b0692505b82156144bb5760208390036000818410156144815750600019600884021c61448b565b50600019600882021c5b8554600886021b8184511682198216178452508184116144ac5750506144f9565b50600194909401939182900391015b5b602082106144dd5783548152600190930192601f19909101906020016144bc565b81156144f95780518454600019600885021c9182169119161781525b50505050565b6060600061450d8360801c90565b90506fffffffffffffffffffffffffffffffff83168067ffffffffffffffff81111561453b5761453b615179565b6040519080825280601f01601f191660200182016040528015614565576020820181803683370190505b50925060208301614577838284614a6f565b505050919050565b7f7462000000000000000000000000000000000000000000000000000000000000877fffff000000000000000000000000000000000000000000000000000000000000161461463f577f746200000000000000000000000000000000000000000000000000000000000087886040516020016145fd91815260200190565b60408051601f19818403018152908290527f31b4668300000000000000000000000000000000000000000000000000000000825261061193929160040161582d565b600061465a828760ff166028026038011c64ffffffffff1690565b9050600083518564ffffffffff168361467391906154fa565b61467d919061550d565b905080821415801561469f575081614695868861586e565b64ffffffffff1614155b156146ef576040517fa65010b400000000000000000000000000000000000000000000000000000000815264ffffffffff8088166004830152808716602483015283166044820152606401610611565b818664ffffffffff161115614740576040517f7e8578d30000000000000000000000000000000000000000000000000000000081526004810183905264ffffffffff87166024820152604401610611565b600061474d848984614aba565b9050600061475a8b614b88565b905060005b815181101561482557600082828151811061477c5761477c6152c6565b602002602001015190506147a86010826affffffffffffffffffffff1916614c1190919063ffffffff16565b1561481c57606081901c6001600160a01b03166355eb5a288e8e8e8e8e8d8f6040518863ffffffff1660e01b81526004016147e9979695949392919061588c565b600060405180830381600087803b15801561480357600080fd5b505af1158015614817573d6000803e3d6000fd5b505050505b5060010161475f565b5064ffffffffff881660005b8a60ff168160ff16101561486457614858878260ff166028026038011c64ffffffffff1690565b90910190600101614831565b508b7ffe158a7adba34e256807c8a149028d3162918713c3838afc643ce9f96716ebfd8c8c848c888d60405161489f969594939291906158ea565b60405180910390a2508284146148c05760006148bb8c8c614a19565b839055505b60006148cd8c8c8c6142e5565b90506148e1818a64ffffffffff1689614c2f565b5060005b81518110156149ab576000828281518110614902576149026152c6565b6020026020010151905061492e6020826affffffffffffffffffffff1916614c1190919063ffffffff16565b156149a257606081901c6001600160a01b031663635845338e8e8e8e8e8a8f6040518863ffffffff1660e01b815260040161496f979695949392919061588c565b600060405180830381600087803b15801561498957600080fd5b505af115801561499d573d6000803e3d6000fd5b505050505b506001016148e5565b505050505050505050505050565b6133da85856149c88487614263565b85614c45565b60006116b482613b218686614365565b60006149ea8585614365565b90506000614a07828560ff166028026038011c64ffffffffff1690565b9050611423868686846000888861457f565b60008282604051602001614a2e9291906157f1565b60408051601f1981840301815291905280516020909101207f14e2fcc58e58e68ec7edc30c8d50dccc3ce2714a623ec81f46b6a63922d76569189392505050565b5b60208110614a8f578251825260209283019290910190601f1901614a70565b80600003614a9c57505050565b6000600019600883021c905080835116811985511617835250505050565b600064ffffffffff821115614afe576040517f7149a3c100000000000000000000000000000000000000000000000000000000815260048101839052602401610611565b8366ffffffffffffff811660ff851660280260380182901c64ffffffffff16808510614b305780850382019150614b38565b848103820391505b5064ffffffffff6038602860ff8816020181811b197fffffffffffffffffffffffffffffffffffffffffffffffffff000000000000009490941690921792909216918416901b1790509392505050565b60408051600180825281830190925260609160009190602080830190803683370190505090508281600081518110614bc257614bc26152c6565b60209081029190910101526000614bfa7f746273746f726500000000000000000053746f7265486f6f6b730000000000008383613b01565b90506116b4614c0c8260008451612e68565b614ee9565b60008160ff1682614c228560581c90565b1660ff1614905092915050565b61235183838351614c408560200190565b614efa565b7f6f74000000000000000000000000000000000000000000000000000000000000847fffff0000000000000000000000000000000000000000000000000000000000001603614ccf57837f8c0b5119d4cec7b284c6b1b39252a03d1e2f2d7451a5895562524c113bb952be848484604051614cc293929190615946565b60405180910390a26144f9565b6000614cdb858561420d565b90506000614ce886614b88565b905060005b8151811015614dbd576000828281518110614d0a57614d0a6152c6565b60200260200101519050614d366004826affffffffffffffffffffff1916614c1190919063ffffffff16565b15614db4576040517f964f667d000000000000000000000000000000000000000000000000000000008152606082901c9063964f667d90614d81908b908b908b908b90600401615979565b600060405180830381600087803b158015614d9b57600080fd5b505af1158015614daf573d6000803e3d6000fd5b505050505b50600101614ced565b50857f8c0b5119d4cec7b284c6b1b39252a03d1e2f2d7451a5895562524c113bb952be868686604051614df293929190615946565b60405180910390a2614e0d828565ffffffffffff1685614c2f565b60005b8151811015614ee0576000828281518110614e2d57614e2d6152c6565b60200260200101519050614e596008826affffffffffffffffffffff1916614c1190919063ffffffff16565b15614ed7576040517fa8ba8721000000000000000000000000000000000000000000000000000000008152606082901c9063a8ba872190614ea4908b908b908b908b90600401615979565b600060405180830381600087803b158015614ebe57600080fd5b505af1158015614ed2573d6000803e3d6000fd5b505050505b50600101614e10565b50505050505050565b60606000610a5d8360156000613b3b565b8215614f745760208310614f2457602083048401935060208381614f2057614f2061575e565b0692505b8215614f745760208390036000600019600885021c1990506008850281811c91508351811c9050811987541682821617875550818411614f655750506144f9565b50600194909401939182900391015b5b60208210614f965780518455600190930192601f1990910190602001614f75565b81156144f9576000600019600884021c8554835182191691161785555050505050565b604051806101000160405280600081526020016000815260200160006002811115614fe657614fe66152b0565b815260200160008152602001600081526020016000815260200160008152602001600081525090565b60006020828403121561502157600080fd5b81357fffffffff0000000000000000000000000000000000000000000000000000000081168114610a5d57600080fd5b6000806040838503121561506457600080fd5b50508035926020909101359150565b60006020828403121561508557600080fd5b5035919050565b60008151808452602080850194506020840160005b838110156150bd578151875295820195908201906001016150a1565b509495945050505050565b602081526000610a5d602083018461508c565b6020815281516020820152602082015160408201526040820151606082015260608201516080820152608082015160a082015260a082015160c082015260c082015160e0820152600060e08301516101008081850152506116b461012084018261508c565b60208152815160208201526020820151604082015260408201516060820152600060608301516080808401526116b460a084018261508c565b634e487b7160e01b600052604160045260246000fd5b604051610120810167ffffffffffffffff811182821017156151b3576151b3615179565b60405290565b604051601f8201601f1916810167ffffffffffffffff811182821017156151e2576151e2615179565b604052919050565b600067ffffffffffffffff82111561520457615204615179565b5060051b60200190565b6000806040838503121561522157600080fd5b8235915060208084013567ffffffffffffffff81111561524057600080fd5b8401601f8101861361525157600080fd5b803561526461525f826151ea565b6151b9565b81815260059190911b8201830190838101908883111561528357600080fd5b928401925b828410156152a157833582529284019290840190615288565b80955050505050509250929050565b634e487b7160e01b600052602160045260246000fd5b634e487b7160e01b600052603260045260246000fd5b634e487b7160e01b600052601160045260246000fd5b60006000198203615305576153056152dc565b5060010190565b60006020828403121561531e57600080fd5b81518015158114610a5d57600080fd5b808201828112600083128015821682158216171561534e5761534e6152dc565b505092915050565b60006020828403121561536857600080fd5b5051919050565b805160038110613ac657600080fd5b600082601f83011261538f57600080fd5b8151602061539f61525f836151ea565b8083825260208201915060208460051b8701019350868411156153c157600080fd5b602086015b848110156153dd57805183529183019183016153c6565b509695505050505050565b6000602082840312156153fa57600080fd5b815167ffffffffffffffff8082111561541257600080fd5b90830190610120828603121561542757600080fd5b61542f61518f565b82518152602083015160208201526154496040840161536f565b6040820152606083015160608201526080830151608082015260a083015160a082015260c08301518281111561547e57600080fd5b61548a8782860161537e565b60c08301525060e083810151908201526101009283015192810192909252509392505050565b6000602082840312156154c257600080fd5b81516001600160a01b0381168114610a5d57600080fd5b6000602082840312156154eb57600080fd5b815160058110610a5d57600080fd5b8181038181111561036e5761036e6152dc565b8082018082111561036e5761036e6152dc565b848152608060208201526000615539608083018661508c565b60ff949094166040830152506060015292915050565b838152606060208201526000615568606083018561508c565b905060ff83166040830152949350505050565b60005b8381101561559657818101518382015260200161557e565b50506000910152565b600082601f8301126155b057600080fd5b815167ffffffffffffffff8111156155ca576155ca615179565b6155dd6020601f19601f840116016151b9565b8181528460208386010111156155f257600080fd5b6116b482602083016020870161557b565b60006020828403121561561557600080fd5b815167ffffffffffffffff81111561562c57600080fd5b6116b48482850161559f565b6000815180845261565081602086016020860161557b565b601f01601f19169290920160200192915050565b6060815260006156776060830186615638565b60208301949094525060400152919050565b8381526060602082015260006156a2606083018561508c565b9050826040830152949350505050565b6000806000606084860312156156c757600080fd5b835167ffffffffffffffff808211156156df57600080fd5b6156eb8783880161559f565b945060208601519350604086015191508082111561570857600080fd5b506157158682870161559f565b9150509250925092565b848152608060208201526000615738608083018661508c565b60ff8516604084015282810360608401526157538185615638565b979650505050505050565b634e487b7160e01b600052601260045260246000fd5b600060ff821660ff810361578a5761578a6152dc565b60010192915050565b808202811582820484141761036e5761036e6152dc565b85815260a0602082015260006157c360a083018761508c565b60ff8616604084015282810360608401526157de8186615638565b9150508260808301529695505050505050565b8281526000602080830184516020860160005b8281101561582057815184529284019290840190600101615804565b5091979650505050505050565b7fffff00000000000000000000000000000000000000000000000000000000000084168152826020820152606060408201526000613af86060830184615638565b64ffffffffff8181168382160190808211156104d3576104d36152dc565b87815260e0602082015260006158a560e083018961508c565b60ff8816604084015264ffffffffff87811660608501528616608084015260a0830185905282810360c08401526158dc8185615638565b9a9950505050505050505050565b60c0815260006158fd60c083018961508c565b60ff8816602084015265ffffffffffff8716604084015264ffffffffff8616606084015284608084015282810360a08401526159398185615638565b9998505050505050505050565b606081526000615959606083018661508c565b65ffffffffffff8516602084015282810360408401526119408185615638565b848152608060208201526000615992608083018661508c565b65ffffffffffff851660408401528281036060840152615753818561563856fea2646970667358221220c635538f6f647bc9ed705390a00e49d32471f959b0d3bba9bf0125007da1cfcc64736f6c63430008180033","linkReferences":{}},"methodIdentifiers":{"_msgSender()":"119df25f","_msgValue()":"45ec9354","_world()":"e1af802c","applyEquipmentBonuses(bytes32)":"9056fa28","checkItemEffect(uint256,bytes32)":"0254f24b","checkRequirements(bytes32,uint256)":"9a8bb9a2","equipItems(bytes32,uint256[])":"cc77a2de","getArmorStats(uint256)":"40a5ed2a","getItemEffects(uint256)":"38a5aae6","getSpellStats(uint256)":"6479f09f","getWeaponStats(uint256)":"63ff2287","isEquipped(bytes32,uint256)":"edcfef82","supportsInterface(bytes4)":"01ffc9a7","unequipItem(bytes32,uint256)":"b2aca84b"},"id":146}