{"abi":[{"type":"function","name":"_msgSender","inputs":[],"outputs":[{"name":"sender","type":"address","internalType":"address"}],"stateMutability":"view"},{"type":"function","name":"_msgValue","inputs":[],"outputs":[{"name":"value","type":"uint256","internalType":"uint256"}],"stateMutability":"pure"},{"type":"function","name":"_world","inputs":[],"outputs":[{"name":"","type":"address","internalType":"address"}],"stateMutability":"view"},{"type":"function","name":"applyEquipmentBonuses","inputs":[{"name":"entityId","type":"bytes32","internalType":"bytes32"}],"outputs":[{"name":"modifiedStats","type":"tuple","internalType":"struct AdjustedCombatStats","components":[{"name":"adjustedStrength","type":"uint256","internalType":"uint256"},{"name":"adjustedAgility","type":"uint256","internalType":"uint256"},{"name":"adjustedIntelligence","type":"uint256","internalType":"uint256"},{"name":"adjustedArmor","type":"uint256","internalType":"uint256"},{"name":"adjustedMaxHp","type":"uint256","internalType":"uint256"},{"name":"currentHp","type":"int256","internalType":"int256"},{"name":"level","type":"uint256","internalType":"uint256"}]}],"stateMutability":"view"},{"type":"function","name":"checkRequirements","inputs":[{"name":"characterId","type":"bytes32","internalType":"bytes32"},{"name":"itemId","type":"uint256","internalType":"uint256"}],"outputs":[{"name":"canUse","type":"bool","internalType":"bool"}],"stateMutability":"view"},{"type":"function","name":"equipItems","inputs":[{"name":"characterId","type":"bytes32","internalType":"bytes32"},{"name":"itemIds","type":"uint256[]","internalType":"uint256[]"}],"outputs":[],"stateMutability":"nonpayable"},{"type":"function","name":"getArmorStats","inputs":[{"name":"itemId","type":"uint256","internalType":"uint256"}],"outputs":[{"name":"_ArmorStats","type":"tuple","internalType":"struct ArmorStats","components":[{"name":"agiModifier","type":"int256","internalType":"int256"},{"name":"armorModifier","type":"uint256","internalType":"uint256"},{"name":"classRestrictions","type":"uint8[]","internalType":"uint8[]"},{"name":"hitPointModifier","type":"int256","internalType":"int256"},{"name":"intModifier","type":"int256","internalType":"int256"},{"name":"minLevel","type":"uint256","internalType":"uint256"},{"name":"strModifier","type":"int256","internalType":"int256"}]}],"stateMutability":"view"},{"type":"function","name":"getWeaponStats","inputs":[{"name":"itemId","type":"uint256","internalType":"uint256"}],"outputs":[{"name":"_weaponStats","type":"tuple","internalType":"struct WeaponStats","components":[{"name":"agiModifier","type":"int256","internalType":"int256"},{"name":"classRestrictions","type":"uint8[]","internalType":"uint8[]"},{"name":"hitPointModifier","type":"int256","internalType":"int256"},{"name":"intModifier","type":"int256","internalType":"int256"},{"name":"maxDamage","type":"uint256","internalType":"uint256"},{"name":"minDamage","type":"uint256","internalType":"uint256"},{"name":"minLevel","type":"uint256","internalType":"uint256"},{"name":"strModifier","type":"int256","internalType":"int256"}]}],"stateMutability":"view"},{"type":"function","name":"isEquipped","inputs":[{"name":"characterId","type":"bytes32","internalType":"bytes32"},{"name":"itemId","type":"uint256","internalType":"uint256"}],"outputs":[{"name":"_isEquipped","type":"bool","internalType":"bool"}],"stateMutability":"view"},{"type":"function","name":"supportsInterface","inputs":[{"name":"interfaceId","type":"bytes4","internalType":"bytes4"}],"outputs":[{"name":"","type":"bool","internalType":"bool"}],"stateMutability":"pure"},{"type":"function","name":"unequipItem","inputs":[{"name":"characterId","type":"bytes32","internalType":"bytes32"},{"name":"itemId","type":"uint256","internalType":"uint256"}],"outputs":[{"name":"success","type":"bool","internalType":"bool"}],"stateMutability":"nonpayable"},{"type":"event","name":"Store_SpliceDynamicData","inputs":[{"name":"tableId","type":"bytes32","indexed":true,"internalType":"ResourceId"},{"name":"keyTuple","type":"bytes32[]","indexed":false,"internalType":"bytes32[]"},{"name":"dynamicFieldIndex","type":"uint8","indexed":false,"internalType":"uint8"},{"name":"start","type":"uint48","indexed":false,"internalType":"uint48"},{"name":"deleteCount","type":"uint40","indexed":false,"internalType":"uint40"},{"name":"encodedLengths","type":"bytes32","indexed":false,"internalType":"EncodedLengths"},{"name":"data","type":"bytes","indexed":false,"internalType":"bytes"}],"anonymous":false},{"type":"event","name":"Store_SpliceStaticData","inputs":[{"name":"tableId","type":"bytes32","indexed":true,"internalType":"ResourceId"},{"name":"keyTuple","type":"bytes32[]","indexed":false,"internalType":"bytes32[]"},{"name":"start","type":"uint48","indexed":false,"internalType":"uint48"},{"name":"data","type":"bytes","indexed":false,"internalType":"bytes"}],"anonymous":false},{"type":"error","name":"EncodedLengths_InvalidLength","inputs":[{"name":"length","type":"uint256","internalType":"uint256"}]},{"type":"error","name":"Slice_OutOfBounds","inputs":[{"name":"data","type":"bytes","internalType":"bytes"},{"name":"start","type":"uint256","internalType":"uint256"},{"name":"end","type":"uint256","internalType":"uint256"}]},{"type":"error","name":"Store_IndexOutOfBounds","inputs":[{"name":"length","type":"uint256","internalType":"uint256"},{"name":"accessedIndex","type":"uint256","internalType":"uint256"}]},{"type":"error","name":"Store_InvalidResourceType","inputs":[{"name":"expected","type":"bytes2","internalType":"bytes2"},{"name":"resourceId","type":"bytes32","internalType":"ResourceId"},{"name":"resourceIdString","type":"string","internalType":"string"}]},{"type":"error","name":"Store_InvalidSplice","inputs":[{"name":"startWithinField","type":"uint40","internalType":"uint40"},{"name":"deleteCount","type":"uint40","internalType":"uint40"},{"name":"fieldLength","type":"uint40","internalType":"uint40"}]}],"bytecode":{"object":"0x608060405234801561001057600080fd5b5061469a806100206000396000f3fe608060405234801561001057600080fd5b50600436106100c95760003560e01c80639056fa2811610081578063cc77a2de1161005b578063cc77a2de146101f8578063e1af802c1461020d578063edcfef821461021557600080fd5b80639056fa28146101695780639a8bb9a2146101d2578063b2aca84b146101e557600080fd5b806340a5ed2a116100b257806340a5ed2a1461011657806345ec93541461013657806363ff22871461014957600080fd5b806301ffc9a7146100ce578063119df25f146100f6575b600080fd5b6100e16100dc366004613a32565b610228565b60405190151581526020015b60405180910390f35b6100fe6102c1565b6040516001600160a01b0390911681526020016100ed565b610129610124366004613a74565b6102d0565b6040516100ed9190613acc565b604051601f1936013581526020016100ed565b61015c610157366004613a74565b6103a3565b6040516100ed9190613b31565b61017c610177366004613a74565b610472565b6040516100ed9190600060e082019050825182526020830151602083015260408301516040830152606083015160608301526080830151608083015260a083015160a083015260c083015160c083015292915050565b6100e16101e0366004613ba2565b610751565b6100e16101f3366004613ba2565b61093d565b61020b610206366004613ca0565b610c7d565b005b6100fe610fcd565b6100e1610223366004613ba2565b610fd7565b60007fffffffff0000000000000000000000000000000000000000000000000000000082167fb5dee1270000000000000000000000000000000000000000000000000000000014806102bb57507fffffffff0000000000000000000000000000000000000000000000000000000082167f01ffc9a700000000000000000000000000000000000000000000000000000000145b92915050565b60006102cb611162565b905090565b6103106040518060e00160405280600081526020016000815260200160608152602001600081526020016000815260200160008152602001600081525090565b600061031b83611194565b905060018151600581111561033257610332613d42565b146103845760405162461bcd60e51b815260206004820152601360248201527f4954454d533a204e6f742061202041726d6f720000000000000000000000000060448201526064015b60405180910390fd5b806040015180602001905181019061039c9190613dd2565b9392505050565b6103eb60405180610100016040528060008152602001606081526020016000815260200160008152602001600081526020016000815260200160008152602001600081525090565b60006103f683611194565b905060008151600581111561040d5761040d613d42565b1461045a5760405162461bcd60e51b815260206004820152601460248201527f4954454d533a204e6f7420612020776561706f6e000000000000000000000000604482015260640161037b565b806040015180602001905181019061039c9190613e7e565b6104b26040518060e00160405280600081526020016000815260200160008152602001600081526020016000815260200160008152602001600081525090565b60006104bd8361125d565b90506104ff6040518060e00160405280600081526020016000815260200160008152602001600081526020016000815260200160008152602001600081525090565b610507610fcd565b6001600160a01b031663fa1becc4856040518263ffffffff1660e01b815260040161053491815260200190565b602060405180830381865afa158015610551573d6000803e3d6000fd5b505050506040513d601f19601f820116820180604052508101906105759190613f35565b1561067a57600061058585611305565b805184519192506000916105999190613f6d565b12156105a65760006105b4565b805183516105b49190613f6d565b8252602080820151908401516000916105cc91613f6d565b12156105d95760006105ed565b806020015183602001516105ed9190613f6d565b60208301526040810151606084015160009161060891613f6d565b1215610615576000610629565b806040015183606001516106299190613f6d565b60408301526060810151608084015160009161064491613f6d565b1215610651576001610665565b806060015183608001516106659190613f6d565b60808301525060a0808301519082015261039c565b60208083015190820152815181526060820151604082015261071061069d610fcd565b6001600160a01b03166353d64640866040518263ffffffff1660e01b81526004016106ca91815260200190565b602060405180830381865afa1580156106e7573d6000803e3d6000fd5b505050506040513d601f19601f8201168201806040525081019061070b9190613f8d565b6113ed565b8060200190518101906107239190614014565b6040015160608201526080808301519082015260a0808301519082015260e082015160c08201529392505050565b60008061075d83611194565b9050600061076a8561125d565b825160019450909150600581111561078457610784613d42565b60ff1660000361085357600082604001518060200190518101906107a89190613e7e565b60c081015160e0840151602083015151929350101590600090156108365760005b83602001515181101561083057836020015181815181106107ec576107ec614101565b602002602001015160ff168560400151600281111561080d5761080d613d42565b60ff160361081e5760019150610830565b8061082881614117565b9150506107c9565b5061083a565b5060015b811580610845575080155b1561084f57600095505b5050505b8151600581111561086657610866613d42565b60ff16600103610935576000826040015180602001905181019061088a9190613dd2565b60a081015160e0840151604083015151929350101590600090156109185760005b83604001515181101561091257836040015181815181106108ce576108ce614101565b602002602001015160ff16856040015160028111156108ef576108ef613d42565b60ff16036109005760019150610912565b8061090a81614117565b9150506108ab565b5061091c565b5060015b811580610927575080155b1561093157600095505b5050505b505092915050565b600082600061094b8261146a565b9050806060015161099e5760405162461bcd60e51b815260206004820152601960248201527f436861726163746572206e6f7420696e207468652047616d6500000000000000604482015260640161037b565b60006109a8610fcd565b6001600160a01b031663777c2caf876040518263ffffffff1660e01b81526004016109d591815260200190565b602060405180830381865afa1580156109f2573d6000803e3d6000fd5b505050506040513d601f19601f82011682018060405250810190610a169190614131565b9050610a206102c1565b6001600160a01b0316816001600160a01b031614610a805760405162461bcd60e51b815260206004820152601a60248201527f4954454d533a204e6f7420436861726163746572204f776e6572000000000000604482015260640161037b565b6000610a8a610fcd565b6001600160a01b031663cdaccbae876040518263ffffffff1660e01b8152600401610ab791815260200190565b602060405180830381865afa158015610ad4573d6000803e3d6000fd5b505050506040513d601f19601f82011682018060405250810190610af8919061415a565b6005811115610b0957610b09613d42565b905060ff8116610b74576000610b2787610b228a61152f565b6115b9565b9050868160018351610b39919061417b565b81518110610b4957610b49614101565b602002602001015103610b6e57610b60888261168e565b610b6988611709565b600195505b50610c6a565b60001960ff821601610bd1576000610b8f87610b228a611780565b9050868160018351610ba1919061417b565b81518110610bb157610bb1614101565b602002602001015103610b6e57610bc888826117f2565b610b6988611863565b7ffffffffffffffffffffffffffffffffffffffffffffffffffffffffffffffffe60ff82160115610c6a5760405162461bcd60e51b815260206004820152602160248201527f45515549504d454e543a20554e5245434f474e495a4544204954454d2054595060448201527f4500000000000000000000000000000000000000000000000000000000000000606482015260840161037b565b610c73876118d6565b5050505092915050565b816000610c898261146a565b90508060600151610cdc5760405162461bcd60e51b815260206004820152601960248201527f436861726163746572206e6f7420696e207468652047616d6500000000000000604482015260640161037b565b6000610ce6610fcd565b6001600160a01b031663777c2caf866040518263ffffffff1660e01b8152600401610d1391815260200190565b602060405180830381865afa158015610d30573d6000803e3d6000fd5b505050506040513d601f19601f82011682018060405250810190610d549190614131565b9050610d5e6102c1565b6001600160a01b0316816001600160a01b031614610dbe5760405162461bcd60e51b815260206004820152601a60248201527f4954454d533a204e6f7420436861726163746572204f776e6572000000000000604482015260640161037b565b6000805b8551811015610fbb57858181518110610ddd57610ddd614101565b60200260200101519150610def610fcd565b6001600160a01b031663b363411883610e066102c1565b6040517fffffffff0000000000000000000000000000000000000000000000000000000060e085901b16815260048101929092526001600160a01b03166024820152604401602060405180830381865afa158015610e68573d6000803e3d6000fd5b505050506040513d601f19601f82011682018060405250810190610e8c9190613f35565b610ed85760405162461bcd60e51b815260206004820152601560248201527f4954454d533a204e6f74204974656d204f776e65720000000000000000000000604482015260640161037b565b6000610ee383611194565b9050600381600001516005811115610efd57610efd613d42565b60ff1610610f4d5760405162461bcd60e51b815260206004820152601d60248201527f4954454d533a204e6f7420616e2065717569707061626c65204974656d000000604482015260640161037b565b610f578884610751565b610fa35760405162461bcd60e51b815260206004820152601b60248201527f4954454d533a20526571756972656d656e7473206e6f74206d65740000000000604482015260640161037b565b610fb288848360000151611adc565b50600101610dc2565b50610fc5866118d6565b505050505050565b60006102cb611c47565b600080610fe383611194565b80519091506005811115610ff957610ff9613d42565b60ff1660000361105e57600061100e8561152f565b905060005b8151811015611057578482828151811061102f5761102f614101565b6020026020010151036110455760019350611057565b8061104f81614117565b915050611013565b505061115b565b8051600581111561107157611071613d42565b60ff166001036110cf57600061108685611780565b905060005b815181101561105757848282815181106110a7576110a7614101565b6020026020010151036110bd5760019350611057565b806110c781614117565b91505061108b565b805160058111156110e2576110e2613d42565b60ff166002031561115b5760405162461bcd60e51b815260206004820152602160248201527f45515549504d454e543a20554e5245434f474e495a4544204954454d2054595060448201527f4500000000000000000000000000000000000000000000000000000000000000606482015260840161037b565b5092915050565b7fffffffffffffffffffffffffffffffffffffffffffffffffffffffffffffffcc36013560601c806111915750335b90565b60408051606080820183526000808352602083015291810191909152604080516001808252818301909252600091602080830190803683370190505090508260001b816000815181106111e9576111e9614101565b6020908102919091010152600080806112427f746255440000000000000000000000004974656d730000000000000000000000857e21020101200000000000000000000000000000000000000000000000000000611c51565b925092509250611253838383611d21565b9695505050505050565b6112656139dc565b60408051600180825281830190925260009160208083019080368337019050509050828160008151811061129b5761129b614101565b6020908102919091010152600080806112f47f7462554400000000000000000000000053746174730000000000000000000000857ee1080020200120202020200000000000000000000000000000000000000000611c51565b925092509250611253838383611d8c565b61134d60405180610100016040528060008152602001600081526020016000815260200160008152602001600081526020016060815260200160608152602001606081525090565b60408051600180825281830190925260009160208083019080368337019050509050828160008151811061138357611383614101565b6020908102919091010152600080806113dc7f7462554400000000000000000000000043686172616374657245717569706d65857ea0050320202020200000000000000000000000000000000000000000000000611c51565b925092509250611253838383611e04565b60408051600180825281830190925260609160009190602080830190803683370190505090508260001b8160008151811061142a5761142a614101565b602090810291909101015260006114627f746255440000000000000000000000004d6f62730000000000000000000000008383611e8b565b949350505050565b604080516080810182526000808252602082018190528183018190526060820181905282516001808252818501909452919290919081602001602082028036833701905050905082816000815181106114c5576114c5614101565b60209081029190910101526000808061151e7f7462554400000000000000000000000043686172616374657273000000000000857e55040020142001000000000000000000000000000000000000000000000000611c51565b925092509250611253838383611f52565b6040805160018082528183019092526060916000919060208083019080368337019050509050828160008151811061156957611569614101565b602090810291909101015260006115a27f7462554400000000000000000000000043686172616374657245717569706d65836001611e8b565b90506114626115b48260008451611fa2565b612030565b60606001825111156116885760005b825181101561168257838382815181106115e4576115e4614101565b6020026020010151036116705760008360018551611602919061417b565b8151811061161257611612614101565b602002602001015190508084838151811061162f5761162f614101565b60200260200101818152505084846001865161164b919061417b565b8151811061165b5761165b614101565b60200260200101818152505083925050611682565b8061167a81614117565b9150506115c8565b506102bb565b50919050565b6040805160018082528183019092526000916020808301908036833701905050905082816000815181106116c4576116c4614101565b60209081029190910101526117047f7462554400000000000000000000000043686172616374657245717569706d658260016116ff86612041565b612051565b505050565b60408051600180825281830190925260009160208083019080368337019050509050818160008151811061173f5761173f614101565b60200260200101818152505061177c7f7462554400000000000000000000000043686172616374657245717569706d6560001b8260016020612103565b5050565b604080516001808252818301909252606091600091906020808301908036833701905050905082816000815181106117ba576117ba614101565b602090810291909101015260006115a27f7462554400000000000000000000000043686172616374657245717569706d658383611e8b565b60408051600180825281830190925260009160208083019080368337019050509050828160008151811061182857611828614101565b60209081029190910101526117047f7462554400000000000000000000000043686172616374657245717569706d658260006116ff86612041565b60408051600180825281830190925260009160208083019080368337019050509050818160008151811061189957611899614101565b60200260200101818152505061177c7f7462554400000000000000000000000043686172616374657245717569706d6560001b8260006020612103565b60006118e182611780565b905060006118ee8361152f565b905060008060008060006119386040518060e00160405280600081526020016000815260200160608152602001600081526020016000815260200160008152602001600081525090565b61198060405180610100016040528060008152602001606081526020016000815260200160008152602001600081526020016000815260200160008152602001600081525090565b885115611a185760005b8951811015611a16576119b58a82815181106119a8576119a8614101565b60200260200101516102d0565b92508260200151886119c7919061418e565b97508260c00151876119d99190613f6d565b83519097506119e89087613f6d565b95508260800151856119fa9190613f6d565b9450826060015184611a0c9190613f6d565b935060010161198a565b505b875115611a9e5760005b8851811015611a9c57611a4d898281518110611a4057611a40614101565b60200260200101516103a3565b91508160e0015187611a5f9190613f6d565b8251909750611a6e9087613f6d565b9550816060015185611a809190613f6d565b9450816040015184611a929190613f6d565b9350600101611a22565b505b611aa88a87612176565b611ab28a8661222a565b611abc8a856122a9565b611ac68a84612328565b611ad08a886123a7565b50505050505050505050565b611ae68383610fd7565b15611b335760405162461bcd60e51b815260206004820152601b60248201527f45515549504d454e543a20414c52454144592045515549505045440000000000604482015260640161037b565b806005811115611b4557611b45613d42565b60ff16600003611bb1576002611b5a84612426565b10611ba75760405162461bcd60e51b815260206004820181905260248201527f4954454d533a20546f6f206d616e7920776561706f6e73206571756970706564604482015260640161037b565b611bb183836124a4565b806005811115611bc357611bc3613d42565b60ff16600103611c2f576001611bd884612537565b10611c255760405162461bcd60e51b815260206004820152601e60248201527f4954454d533a20546f6f206d7563682061726d6f722065717569707065640000604482015260640161037b565b611c2f83836125a8565b806005811115611c4157611c41613d42565b50505050565b60006102cb612627565b6060600060606000611c61612627565b9050306001600160a01b03821603611c8a57611c7e878787612666565b93509350935050611d18565b6040517f419b58fd0000000000000000000000000000000000000000000000000000000081526001600160a01b0382169063419b58fd90611cd3908a908a908a906004016141d2565b600060405180830381865afa158015611cf0573d6000803e3d6000fd5b505050506040513d6000823e601f3d908101601f19168201604052611c7e9190810190614283565b93509350939050565b60408051606080820183526000808352602083015291810191909152611d468461276e565b6020830181905282826005811115611d6057611d60613d42565b6005811115611d7157611d71613d42565b8152505050611d80838361279a565b60408201529392505050565b611d946139dc565b611d9d846127c6565b60e0890181905260c0890182905260a089018390526080890184905260608901859052886020810160408201886002811115611ddb57611ddb613d42565b6002811115611dec57611dec613d42565b90529790975250505093909252509195945050505050565b611e4c60405180610100016040528060008152602001600081526020016000815260200160008152602001600081526020016060815260200160608152602001606081525090565b611e5584612834565b60808601526060850152604084015260208301528152611e758383612870565b60e084015260c083015260a08201529392505050565b60606000611e97612627565b9050306001600160a01b03821603611ebc57611eb48585856128db565b91505061039c565b6040517f1e7889770000000000000000000000000000000000000000000000000000000081526001600160a01b03821690631e78897790611f05908890889088906004016142f0565b600060405180830381865afa158015611f22573d6000803e3d6000fd5b505050506040513d6000823e601f3d908101601f19168201604052611eb4919081019061431c565b509392505050565b604080516080810182526000808252602082018190529181018290526060810191909152611f7f84612915565b1515606085015260408401526001600160a01b0316602083015281529392505050565b600081831180611fb25750835182115b15611fef578383836040517f23230fa300000000000000000000000000000000000000000000000000000000815260040161037b9392919061437d565b60208401611ffd848261418e565b9050600061200b858561417b565b6fffffffffffffffffffffffffffffffff1660809290921b9190911795945050505050565b6060600061039c836020600061294f565b60608161039c81602060006129ca565b600061205b612627565b9050306001600160a01b0382160361207e5761207985858585612a1e565b6120fc565b6040517fef6ea8620000000000000000000000000000000000000000000000000000000081526001600160a01b0382169063ef6ea862906120c99088908890889088906004016143a2565b600060405180830381600087803b1580156120e357600080fd5b505af11580156120f7573d6000803e3d6000fd5b505050505b5050505050565b600061210d612627565b9050306001600160a01b0382160361212b5761207985858585612a59565b6040517fd9c03a040000000000000000000000000000000000000000000000000000000081526001600160a01b0382169063d9c03a04906120c99088908890889088906004016143e1565b6040805160018082528183019092526000916020808301908036833701905050905082816000815181106121ac576121ac614101565b6020026020010181815250506117047f7462554400000000000000000000000043686172616374657245717569706d6560001b826000856040516020016121f591815260200190565b60408051601f198184030181529190527ea0050320202020200000000000000000000000000000000000000000000000612ab2565b60408051600180825281830190925260009160208083019080368337019050509050828160008151811061226057612260614101565b6020026020010181815250506117047f7462554400000000000000000000000043686172616374657245717569706d6560001b826001856040516020016121f591815260200190565b6040805160018082528183019092526000916020808301908036833701905050905082816000815181106122df576122df614101565b6020026020010181815250506117047f7462554400000000000000000000000043686172616374657245717569706d6560001b826002856040516020016121f591815260200190565b60408051600180825281830190925260009160208083019080368337019050509050828160008151811061235e5761235e614101565b6020026020010181815250506117047f7462554400000000000000000000000043686172616374657245717569706d6560001b826003856040516020016121f591815260200190565b6040805160018082528183019092526000916020808301908036833701905050905082816000815181106123dd576123dd614101565b6020026020010181815250506117047f7462554400000000000000000000000043686172616374657245717569706d6560001b826004856040516020016121f591815260200190565b60408051600180825281830190925260009182919060208083019080368337019050509050828160008151811061245f5761245f614101565b602090810291909101015260006124987f7462554400000000000000000000000043686172616374657245717569706d65836001612b5b565b60209004949350505050565b6040805160018082528183019092526000916020808301908036833701905050905082816000815181106124da576124da614101565b6020026020010181815250506117047f7462554400000000000000000000000043686172616374657245717569706d6560001b8260018560405160200161252391815260200190565b604051602081830303815290604052612c0d565b60408051600180825281830190925260009182919060208083019080368337019050509050828160008151811061257057612570614101565b602090810291909101015260006124987f7462554400000000000000000000000043686172616374657245717569706d658383612b5b565b6040805160018082528183019092526000916020808301908036833701905050905082816000815181106125de576125de614101565b6020026020010181815250506117047f7462554400000000000000000000000043686172616374657245717569706d6560001b8260008560405160200161252391815260200190565b7f629a4c26e296b22a8e0856e9f6ecb2d1008d7e00081111962cd175fa7488e175546000906001600160a01b031680612661573391505090565b919050565b606060006060600061267785612c80565b9050612684878783612ca3565b9350600061269186612cdc565b90508015612763576126a38888612d19565b935066ffffffffffffff841667ffffffffffffffff8111156126c7576126c7613bc4565b6040519080825280601f01601f1916602001820160405280156126f1576020820181803683370190505b5092506020830160005b828160ff1610156127605760006127138b8b84612d2c565b90506000612730888460ff166028026038011c64ffffffffff1690565b905061273f8260008387612dac565b612749818561418e565b93505050808061275890614426565b9150506126fb565b50505b505093509350939050565b6020810151600090819060f81c600581111561278c5761278c613d42565b602193909301519293915050565b60606000603884901c64ffffffffff166127bd6127b8858484611fa2565b612e78565b95945050505050565b6000806000806000806000806127e0896000016020015190565b60408a015160608b0151919950975060f81c600281111561280357612803613d42565b60618a015160818b015160a18c015160c18d015160e1909d01519b9d9a9c939b929a91995097509195509350915050565b600080600080600061284a866000016020015190565b60408701516060880151608089015160a090990151929991989097509550909350915050565b606080806000603886901c64ffffffffff166128906115b4878484611fa2565b945090508064ffffffffff606088901c16016128b06115b4878484611fa2565b935090508064ffffffffff608888901c16016128d06115b4878484611fa2565b925050509250925092565b60606114626128eb858585612d2c565b6000612910856128fb8989612d19565b9060ff166028026038011c64ffffffffff1690565b612ef8565b600080600080612929856000016020015190565b6040860151605487015191955060601c9350607486015190925060f81c90509193509193565b6060600061295d8560801c90565b90506fffffffffffffffffffffffffffffffff8516600085828161298357612983614410565b04905060405193506020840160208202810160405281855260005b828110156129be578451871c82529387019360209091019060010161299e565b50505050509392505050565b825160609060006129db8583614445565b9050604051925060208301601f19603f83860101166040528184526000602088015b848210156129be578051871b835291870191600191909101906020016129fd565b6000612a2a8585612d19565b90506000612a47828560ff166028026038011c64ffffffffff1690565b9050610fc58686866000858888612f1b565b6000612a658585612d19565b90506000612a82828560ff166028026038011c64ffffffffff1690565b9050610fc5868686612a9b8764ffffffffff871661417b565b604080516000815260208101909152889088612f1b565b6000612abc612627565b9050306001600160a01b03821603612ae057612adb8686868686613355565b610fc5565b6040517f390baae00000000000000000000000000000000000000000000000000000000081526001600160a01b0382169063390baae090612b2d908990899089908990899060040161445c565b600060405180830381600087803b158015612b4757600080fd5b505af1158015611ad0573d6000803e3d6000fd5b600080612b66612627565b9050306001600160a01b03821603612b8357611eb485858561336a565b6040517fdbbf0e210000000000000000000000000000000000000000000000000000000081526001600160a01b0382169063dbbf0e2190612bcc908890889088906004016142f0565b602060405180830381865afa158015612be9573d6000803e3d6000fd5b505050506040513d601f19601f82011682018060405250810190611eb49190613f8d565b6000612c17612627565b9050306001600160a01b03821603612c35576120798585858561337a565b6040517f150f32620000000000000000000000000000000000000000000000000000000081526001600160a01b0382169063150f3262906120c99088908890889088906004016143a2565b60006008612c906002602061417b565b612c9a9190614445565b9190911c919050565b606081600003612cc2575060408051602081019091526000815261039c565b6000612cce85856133b5565b90506127bd81600085612ef8565b60006008600180612cef6002602061417b565b612cf9919061417b565b612d03919061417b565b612d0d9190614445565b8260ff911c1692915050565b600061039c612d28848461340b565b5490565b60008383604051602001612d419291906144a3565b604051602081830303815290604052805190602001208260f81b7effffffffffffffffffffffffffffffffffffffffffffffffffffffffffffff19167f3b4102da22e32d82fc925482184f16c09fd4281692720b87d124aef6da48a0f1181860001c90509392505050565b8215612e335760208310612dd657602083048401935060208381612dd257612dd2614410565b0692505b8215612e33576020839003600081841015612df95750600019600884021c612e03565b50600019600882021c5b8554600886021b818451168219821617845250818411612e24575050611c41565b50600194909401939182900391015b5b60208210612e555783548152600190930192601f1990910190602001612e34565b8115611c41576000600019600884021c8251865482191691161782525050505050565b60606000612e868360801c90565b90506fffffffffffffffffffffffffffffffff83168067ffffffffffffffff811115612eb457612eb4613bc4565b6040519080825280601f01601f191660200182016040528015612ede576020820181803683370190505b50925060208301612ef0838284613461565b505050919050565b60405160208101601f19603f8484010116604052828252611f4a85858584612dac565b7f7462000000000000000000000000000000000000000000000000000000000000877fffff0000000000000000000000000000000000000000000000000000000000001614612fdb577f74620000000000000000000000000000000000000000000000000000000000008788604051602001612f9991815260200190565b60408051601f19818403018152908290527f31b4668300000000000000000000000000000000000000000000000000000000825261037b9392916004016144df565b6000612ff6828760ff166028026038011c64ffffffffff1690565b9050600083518564ffffffffff168361300f919061417b565b613019919061418e565b905080821415801561303b5750816130318688614520565b64ffffffffff1614155b1561308b576040517fa65010b400000000000000000000000000000000000000000000000000000000815264ffffffffff808816600483015280871660248301528316604482015260640161037b565b818664ffffffffff1611156130dc576040517f7e8578d30000000000000000000000000000000000000000000000000000000081526004810183905264ffffffffff8716602482015260440161037b565b60006130e98489846134ac565b905060006130f68b61357a565b905060005b81518110156131c157600082828151811061311857613118614101565b602002602001015190506131446010826affffffffffffffffffffff191661360390919063ffffffff16565b156131b857606081901c6001600160a01b03166355eb5a288e8e8e8e8e8d8f6040518863ffffffff1660e01b8152600401613185979695949392919061453e565b600060405180830381600087803b15801561319f57600080fd5b505af11580156131b3573d6000803e3d6000fd5b505050505b506001016130fb565b5064ffffffffff881660005b8a60ff168160ff161015613200576131f4878260ff166028026038011c64ffffffffff1690565b909101906001016131cd565b508b7ffe158a7adba34e256807c8a149028d3162918713c3838afc643ce9f96716ebfd8c8c848c888d60405161323b9695949392919061459c565b60405180910390a25082841461325c5760006132578c8c61340b565b839055505b60006132698c8c8c612d2c565b905061327d818a64ffffffffff1689613621565b5060005b815181101561334757600082828151811061329e5761329e614101565b602002602001015190506132ca6020826affffffffffffffffffffff191661360390919063ffffffff16565b1561333e57606081901c6001600160a01b031663635845338e8e8e8e8e8a8f6040518863ffffffff1660e01b815260040161330b979695949392919061453e565b600060405180830381600087803b15801561332557600080fd5b505af1158015613339573d6000803e3d6000fd5b505050505b50600101613281565b505050505050505050505050565b6120fc85856133648487613637565b85613668565b6000611462826128fb8686612d19565b60006133868585612d19565b905060006133a3828560ff166028026038011c64ffffffffff1690565b9050610fc58686868460008888612f1b565b600082826040516020016133ca9291906144a3565b60408051601f1981840301815291905280516020909101207f86425bff6b57326c7859e89024fe4f238ca327a1ae4a230180dd2f0e88aaa7d9189392505050565b600082826040516020016134209291906144a3565b60408051601f1981840301815291905280516020909101207f14e2fcc58e58e68ec7edc30c8d50dccc3ce2714a623ec81f46b6a63922d76569189392505050565b5b60208110613481578251825260209283019290910190601f1901613462565b8060000361348e57505050565b6000600019600883021c905080835116811985511617835250505050565b600064ffffffffff8211156134f0576040517f7149a3c10000000000000000000000000000000000000000000000000000000081526004810183905260240161037b565b8366ffffffffffffff811660ff851660280260380182901c64ffffffffff16808510613522578085038201915061352a565b848103820391505b5064ffffffffff6038602860ff8816020181811b197fffffffffffffffffffffffffffffffffffffffffffffffffff000000000000009490941690921792909216918416901b1790509392505050565b604080516001808252818301909252606091600091906020808301908036833701905050905082816000815181106135b4576135b4614101565b602090810291909101015260006135ec7f746273746f726500000000000000000053746f7265486f6f6b7300000000000083836128db565b90506114626135fe8260008451611fa2565b61390c565b60008160ff16826136148560581c90565b1660ff1614905092915050565b611704838383516136328560200190565b61391d565b600080805b8360ff16811015611f4a5761365e60ff601b83900360080287901c168361418e565b915060010161363c565b7f6f74000000000000000000000000000000000000000000000000000000000000847fffff00000000000000000000000000000000000000000000000000000000000016036136f257837f8c0b5119d4cec7b284c6b1b39252a03d1e2f2d7451a5895562524c113bb952be8484846040516136e5939291906145f8565b60405180910390a2611c41565b60006136fe85856133b5565b9050600061370b8661357a565b905060005b81518110156137e057600082828151811061372d5761372d614101565b602002602001015190506137596004826affffffffffffffffffffff191661360390919063ffffffff16565b156137d7576040517f964f667d000000000000000000000000000000000000000000000000000000008152606082901c9063964f667d906137a4908b908b908b908b9060040161462b565b600060405180830381600087803b1580156137be57600080fd5b505af11580156137d2573d6000803e3d6000fd5b505050505b50600101613710565b50857f8c0b5119d4cec7b284c6b1b39252a03d1e2f2d7451a5895562524c113bb952be868686604051613815939291906145f8565b60405180910390a2613830828565ffffffffffff1685613621565b60005b815181101561390357600082828151811061385057613850614101565b6020026020010151905061387c6008826affffffffffffffffffffff191661360390919063ffffffff16565b156138fa576040517fa8ba8721000000000000000000000000000000000000000000000000000000008152606082901c9063a8ba8721906138c7908b908b908b908b9060040161462b565b600060405180830381600087803b1580156138e157600080fd5b505af11580156138f5573d6000803e3d6000fd5b505050505b50600101613833565b50505050505050565b6060600061039c836015600061294f565b821561399757602083106139475760208304840193506020838161394357613943614410565b0692505b82156139975760208390036000600019600885021c1990506008850281811c91508351811c9050811987541682821617875550818411613988575050611c41565b50600194909401939182900391015b5b602082106139b95780518455600190930192601f1990910190602001613998565b8115611c41576000600019600884021c8554835182191691161785555050505050565b604051806101000160405280600081526020016000815260200160006002811115613a0957613a09613d42565b815260200160008152602001600081526020016000815260200160008152602001600081525090565b600060208284031215613a4457600080fd5b81357fffffffff000000000000000000000000000000000000000000000000000000008116811461039c57600080fd5b600060208284031215613a8657600080fd5b5035919050565b60008151808452602080850194506020840160005b83811015613ac157815160ff1687529582019590820190600101613aa2565b509495945050505050565b6020815281516020820152602082015160408201526000604083015160e06060840152613afd610100840182613a8d565b905060608401516080840152608084015160a084015260a084015160c084015260c084015160e08401528091505092915050565b602081528151602082015260006020830151610100806040850152613b5a610120850183613a8d565b91506040850151606085015260608501516080850152608085015160a085015260a085015160c085015260c085015160e085015260e085015181850152508091505092915050565b60008060408385031215613bb557600080fd5b50508035926020909101359150565b634e487b7160e01b600052604160045260246000fd5b60405160e0810167ffffffffffffffff81118282101715613bfd57613bfd613bc4565b60405290565b604051610100810167ffffffffffffffff81118282101715613bfd57613bfd613bc4565b604051610140810167ffffffffffffffff81118282101715613bfd57613bfd613bc4565b604051601f8201601f1916810167ffffffffffffffff81118282101715613c7457613c74613bc4565b604052919050565b600067ffffffffffffffff821115613c9657613c96613bc4565b5060051b60200190565b60008060408385031215613cb357600080fd5b8235915060208084013567ffffffffffffffff811115613cd257600080fd5b8401601f81018613613ce357600080fd5b8035613cf6613cf182613c7c565b613c4b565b81815260059190911b82018301908381019088831115613d1557600080fd5b928401925b82841015613d3357833582529284019290840190613d1a565b80955050505050509250929050565b634e487b7160e01b600052602160045260246000fd5b600082601f830112613d6957600080fd5b81516020613d79613cf183613c7c565b8083825260208201915060208460051b870101935086841115613d9b57600080fd5b602086015b84811015613dc757805160ff81168114613dba5760008081fd5b8352918301918301613da0565b509695505050505050565b600060208284031215613de457600080fd5b815167ffffffffffffffff80821115613dfc57600080fd5b9083019060e08286031215613e1057600080fd5b613e18613bda565b8251815260208301516020820152604083015182811115613e3857600080fd5b613e4487828601613d58565b604083015250606083015160608201526080830151608082015260a083015160a082015260c083015160c082015280935050505092915050565b600060208284031215613e9057600080fd5b815167ffffffffffffffff80821115613ea857600080fd5b908301906101008286031215613ebd57600080fd5b613ec5613c03565b82518152602083015182811115613edb57600080fd5b613ee787828601613d58565b60208301525060408301516040820152606083015160608201526080830151608082015260a083015160a082015260c083015160c082015260e083015160e082015280935050505092915050565b600060208284031215613f4757600080fd5b8151801515811461039c57600080fd5b634e487b7160e01b600052601160045260246000fd5b808201828112600083128015821682158216171561093557610935613f57565b600060208284031215613f9f57600080fd5b5051919050565b600082601f830112613fb757600080fd5b81516020613fc7613cf183613c7c565b8083825260208201915060208460051b870101935086841115613fe957600080fd5b602086015b84811015613dc75780518352918301918301613fee565b80516003811061266157600080fd5b60006020828403121561402657600080fd5b815167ffffffffffffffff8082111561403e57600080fd5b90830190610140828603121561405357600080fd5b61405b613c27565b82518281111561406a57600080fd5b61407687828601613fa6565b825250602083015160208201526040830151604082015261409960608401614005565b60608201526080830151608082015260a083015160a082015260c083015160c082015260e0830151828111156140ce57600080fd5b6140da87828601613fa6565b60e08301525061010083810151908201526101209283015192810192909252509392505050565b634e487b7160e01b600052603260045260246000fd5b6000600019820361412a5761412a613f57565b5060010190565b60006020828403121561414357600080fd5b81516001600160a01b038116811461039c57600080fd5b60006020828403121561416c57600080fd5b81516006811061039c57600080fd5b818103818111156102bb576102bb613f57565b808201808211156102bb576102bb613f57565b60008151808452602080850194506020840160005b83811015613ac1578151875295820195908201906001016141b6565b8381526060602082015260006141eb60608301856141a1565b9050826040830152949350505050565b60005b838110156142165781810151838201526020016141fe565b50506000910152565b600082601f83011261423057600080fd5b815167ffffffffffffffff81111561424a5761424a613bc4565b61425d6020601f19601f84011601613c4b565b81815284602083860101111561427257600080fd5b6114628260208301602087016141fb565b60008060006060848603121561429857600080fd5b835167ffffffffffffffff808211156142b057600080fd5b6142bc8783880161421f565b94506020860151935060408601519150808211156142d957600080fd5b506142e68682870161421f565b9150509250925092565b83815260606020820152600061430960608301856141a1565b905060ff83166040830152949350505050565b60006020828403121561432e57600080fd5b815167ffffffffffffffff81111561434557600080fd5b6114628482850161421f565b600081518084526143698160208601602086016141fb565b601f01601f19169290920160200192915050565b6060815260006143906060830186614351565b60208301949094525060400152919050565b8481526080602082015260006143bb60808301866141a1565b60ff8516604084015282810360608401526143d68185614351565b979650505050505050565b8481526080602082015260006143fa60808301866141a1565b60ff949094166040830152506060015292915050565b634e487b7160e01b600052601260045260246000fd5b600060ff821660ff810361443c5761443c613f57565b60010192915050565b80820281158282048414176102bb576102bb613f57565b85815260a06020820152600061447560a08301876141a1565b60ff8616604084015282810360608401526144908186614351565b9150508260808301529695505050505050565b8281526000602080830184516020860160005b828110156144d2578151845292840192908401906001016144b6565b5091979650505050505050565b7fffff000000000000000000000000000000000000000000000000000000000000841681528260208201526060604082015260006127bd6060830184614351565b64ffffffffff81811683821601908082111561115b5761115b613f57565b87815260e06020820152600061455760e08301896141a1565b60ff8816604084015264ffffffffff87811660608501528616608084015260a0830185905282810360c084015261458e8185614351565b9a9950505050505050505050565b60c0815260006145af60c08301896141a1565b60ff8816602084015265ffffffffffff8716604084015264ffffffffff8616606084015284608084015282810360a08401526145eb8185614351565b9998505050505050505050565b60608152600061460b60608301866141a1565b65ffffffffffff8516602084015282810360408401526112538185614351565b84815260806020820152600061464460808301866141a1565b65ffffffffffff8516604084015282810360608401526143d6818561435156fea2646970667358221220d5815b4faa305d9782bd1cdef055459ee14ea234cd536f9de2a23fc555d2110a64736f6c63430008180033","linkReferences":{}},"methodIdentifiers":{"_msgSender()":"119df25f","_msgValue()":"45ec9354","_world()":"e1af802c","applyEquipmentBonuses(bytes32)":"9056fa28","checkRequirements(bytes32,uint256)":"9a8bb9a2","equipItems(bytes32,uint256[])":"cc77a2de","getArmorStats(uint256)":"40a5ed2a","getWeaponStats(uint256)":"63ff2287","isEquipped(bytes32,uint256)":"edcfef82","supportsInterface(bytes4)":"01ffc9a7","unequipItem(bytes32,uint256)":"b2aca84b"},"id":224}