{"abi":[{"type":"function","name":"_msgSender","inputs":[],"outputs":[{"name":"sender","type":"address","internalType":"address"}],"stateMutability":"view"},{"type":"function","name":"_msgValue","inputs":[],"outputs":[{"name":"value","type":"uint256","internalType":"uint256"}],"stateMutability":"pure"},{"type":"function","name":"_world","inputs":[],"outputs":[{"name":"","type":"address","internalType":"address"}],"stateMutability":"view"},{"type":"function","name":"applyEquipmentBonuses","inputs":[{"name":"entityId","type":"bytes32","internalType":"bytes32"}],"outputs":[{"name":"modifiedStats","type":"tuple","internalType":"struct AdjustedCombatStats","components":[{"name":"adjustedStrength","type":"uint256","internalType":"uint256"},{"name":"adjustedAgility","type":"uint256","internalType":"uint256"},{"name":"adjustedIntelligence","type":"uint256","internalType":"uint256"},{"name":"adjustedArmor","type":"uint256","internalType":"uint256"},{"name":"adjustedMaxHp","type":"uint256","internalType":"uint256"},{"name":"currentHp","type":"int256","internalType":"int256"},{"name":"level","type":"uint256","internalType":"uint256"}]}],"stateMutability":"view"},{"type":"function","name":"checkRequirements","inputs":[{"name":"characterId","type":"bytes32","internalType":"bytes32"},{"name":"itemId","type":"uint256","internalType":"uint256"}],"outputs":[{"name":"canUse","type":"bool","internalType":"bool"}],"stateMutability":"view"},{"type":"function","name":"equipItems","inputs":[{"name":"characterId","type":"bytes32","internalType":"bytes32"},{"name":"itemIds","type":"uint256[]","internalType":"uint256[]"}],"outputs":[],"stateMutability":"nonpayable"},{"type":"function","name":"getArmorStats","inputs":[{"name":"itemId","type":"uint256","internalType":"uint256"}],"outputs":[{"name":"_ArmorStats","type":"tuple","internalType":"struct ArmorStats","components":[{"name":"agiModifier","type":"int256","internalType":"int256"},{"name":"armorModifier","type":"uint256","internalType":"uint256"},{"name":"hitPointModifier","type":"int256","internalType":"int256"},{"name":"intModifier","type":"int256","internalType":"int256"},{"name":"minLevel","type":"uint256","internalType":"uint256"},{"name":"statRestrictions","type":"tuple","internalType":"struct StatRestrictions","components":[{"name":"minAgility","type":"uint256","internalType":"uint256"},{"name":"minIntelligence","type":"uint256","internalType":"uint256"},{"name":"minStrength","type":"uint256","internalType":"uint256"}]},{"name":"strModifier","type":"int256","internalType":"int256"}]}],"stateMutability":"view"},{"type":"function","name":"getWeaponStats","inputs":[{"name":"itemId","type":"uint256","internalType":"uint256"}],"outputs":[{"name":"_weaponStats","type":"tuple","internalType":"struct WeaponStats","components":[{"name":"agiModifier","type":"int256","internalType":"int256"},{"name":"hitPointModifier","type":"int256","internalType":"int256"},{"name":"intModifier","type":"int256","internalType":"int256"},{"name":"maxDamage","type":"uint256","internalType":"uint256"},{"name":"minDamage","type":"uint256","internalType":"uint256"},{"name":"minLevel","type":"uint256","internalType":"uint256"},{"name":"statRestrictions","type":"tuple","internalType":"struct StatRestrictions","components":[{"name":"minAgility","type":"uint256","internalType":"uint256"},{"name":"minIntelligence","type":"uint256","internalType":"uint256"},{"name":"minStrength","type":"uint256","internalType":"uint256"}]},{"name":"strModifier","type":"int256","internalType":"int256"}]}],"stateMutability":"view"},{"type":"function","name":"isEquipped","inputs":[{"name":"characterId","type":"bytes32","internalType":"bytes32"},{"name":"itemId","type":"uint256","internalType":"uint256"}],"outputs":[{"name":"_isEquipped","type":"bool","internalType":"bool"}],"stateMutability":"view"},{"type":"function","name":"supportsInterface","inputs":[{"name":"interfaceId","type":"bytes4","internalType":"bytes4"}],"outputs":[{"name":"","type":"bool","internalType":"bool"}],"stateMutability":"pure"},{"type":"function","name":"unequipItem","inputs":[{"name":"characterId","type":"bytes32","internalType":"bytes32"},{"name":"itemId","type":"uint256","internalType":"uint256"}],"outputs":[{"name":"success","type":"bool","internalType":"bool"}],"stateMutability":"nonpayable"},{"type":"event","name":"Store_SpliceDynamicData","inputs":[{"name":"tableId","type":"bytes32","indexed":true,"internalType":"ResourceId"},{"name":"keyTuple","type":"bytes32[]","indexed":false,"internalType":"bytes32[]"},{"name":"dynamicFieldIndex","type":"uint8","indexed":false,"internalType":"uint8"},{"name":"start","type":"uint48","indexed":false,"internalType":"uint48"},{"name":"deleteCount","type":"uint40","indexed":false,"internalType":"uint40"},{"name":"encodedLengths","type":"bytes32","indexed":false,"internalType":"EncodedLengths"},{"name":"data","type":"bytes","indexed":false,"internalType":"bytes"}],"anonymous":false},{"type":"event","name":"Store_SpliceStaticData","inputs":[{"name":"tableId","type":"bytes32","indexed":true,"internalType":"ResourceId"},{"name":"keyTuple","type":"bytes32[]","indexed":false,"internalType":"bytes32[]"},{"name":"start","type":"uint48","indexed":false,"internalType":"uint48"},{"name":"data","type":"bytes","indexed":false,"internalType":"bytes"}],"anonymous":false},{"type":"error","name":"EncodedLengths_InvalidLength","inputs":[{"name":"length","type":"uint256","internalType":"uint256"}]},{"type":"error","name":"Slice_OutOfBounds","inputs":[{"name":"data","type":"bytes","internalType":"bytes"},{"name":"start","type":"uint256","internalType":"uint256"},{"name":"end","type":"uint256","internalType":"uint256"}]},{"type":"error","name":"Store_IndexOutOfBounds","inputs":[{"name":"length","type":"uint256","internalType":"uint256"},{"name":"accessedIndex","type":"uint256","internalType":"uint256"}]},{"type":"error","name":"Store_InvalidResourceType","inputs":[{"name":"expected","type":"bytes2","internalType":"bytes2"},{"name":"resourceId","type":"bytes32","internalType":"ResourceId"},{"name":"resourceIdString","type":"string","internalType":"string"}]},{"type":"error","name":"Store_InvalidSplice","inputs":[{"name":"startWithinField","type":"uint40","internalType":"uint40"},{"name":"deleteCount","type":"uint40","internalType":"uint40"},{"name":"fieldLength","type":"uint40","internalType":"uint40"}]}],"bytecode":{"object":"0x608060405234801561001057600080fd5b50614525806100206000396000f3fe608060405234801561001057600080fd5b50600436106100c95760003560e01c80639056fa2811610081578063cc77a2de1161005b578063cc77a2de146101f8578063e1af802c1461020d578063edcfef821461021557600080fd5b80639056fa28146101695780639a8bb9a2146101d2578063b2aca84b146101e557600080fd5b806340a5ed2a116100b257806340a5ed2a1461011657806345ec93541461013657806363ff22871461014957600080fd5b806301ffc9a7146100ce578063119df25f146100f6575b600080fd5b6100e16100dc36600461397d565b610228565b60405190151581526020015b60405180910390f35b6100fe6102c1565b6040516001600160a01b0390911681526020016100ed565b6101296101243660046139bf565b6102d0565b6040516100ed91906139d8565b604051601f1936013581526020016100ed565b61015c6101573660046139bf565b61036b565b6040516100ed9190613a45565b61017c6101773660046139bf565b6103fa565b6040516100ed9190600060e082019050825182526020830151602083015260408301516040830152606083015160608301526080830151608083015260a083015160a083015260c083015160c083015292915050565b6100e16101e0366004613abc565b6106d9565b6100e16101f3366004613abc565b610847565b61020b610206366004613b73565b610b87565b005b6100fe610ed7565b6100e1610223366004613abc565b610ee1565b60007fffffffff0000000000000000000000000000000000000000000000000000000082167fb5dee1270000000000000000000000000000000000000000000000000000000014806102bb57507fffffffff0000000000000000000000000000000000000000000000000000000082167f01ffc9a700000000000000000000000000000000000000000000000000000000145b92915050565b60006102cb61106c565b905090565b6102d861386e565b60006102e38361109e565b90506001815160058111156102fa576102fa613c15565b1461034c5760405162461bcd60e51b815260206004820152601360248201527f4954454d533a204e6f742061202041726d6f720000000000000000000000000060448201526064015b60405180910390fd5b80604001518060200190518101906103649190613c87565b9392505050565b6103736138cd565b600061037e8361109e565b905060008151600581111561039557610395613c15565b146103e25760405162461bcd60e51b815260206004820152601460248201527f4954454d533a204e6f7420612020776561706f6e0000000000000000000000006044820152606401610343565b80604001518060200190518101906103649190613d13565b61043a6040518060e00160405280600081526020016000815260200160008152602001600081526020016000815260200160008152602001600081525090565b600061044583611167565b90506104876040518060e00160405280600081526020016000815260200160008152602001600081526020016000815260200160008152602001600081525090565b61048f610ed7565b6001600160a01b031663fa1becc4856040518263ffffffff1660e01b81526004016104bc91815260200190565b602060405180830381865afa1580156104d9573d6000803e3d6000fd5b505050506040513d601f19601f820116820180604052508101906104fd9190613daa565b1561060257600061050d8561120f565b805184519192506000916105219190613de2565b121561052e57600061053c565b8051835161053c9190613de2565b82526020808201519084015160009161055491613de2565b1215610561576000610575565b806020015183602001516105759190613de2565b60208301526040810151606084015160009161059091613de2565b121561059d5760006105b1565b806040015183606001516105b19190613de2565b6040830152606081015160808401516000916105cc91613de2565b12156105d95760016105ed565b806060015183608001516105ed9190613de2565b60808301525060a08083015190820152610364565b602080830151908201528151815260608201516040820152610698610625610ed7565b6001600160a01b03166353d64640866040518263ffffffff1660e01b815260040161065291815260200190565b602060405180830381865afa15801561066f573d6000803e3d6000fd5b505050506040513d601f19601f820116820180604052508101906106939190613e02565b6112f7565b8060200190518101906106ab9190613e94565b6040015160608201526080808301519082015260a0808301519082015260e082015160c08201529392505050565b6000806106e58361109e565b905060006106f285611167565b8251909150600581111561070857610708613c15565b60ff1660000361079a576000826040015180602001905181019061072c9190613d13565b60a081015160e0840151602085015160c084015151939450911115916001911015610755575060005b835160c084015160400151111561076a575060005b83606001518360c00151602001511115610782575060005b81801561078c5750805b1561079657600195505b5050505b815160058111156107ad576107ad613c15565b60ff1660010361083f57600082604001518060200190518101906107d19190613c87565b608081015160e0840151602085015160a0840151519394509111159160019110156107fa575060005b835160a084015160400151111561080f575060005b83606001518360a00151602001511115610827575060005b8180156108315750805b1561083b57600195505b5050505b505092915050565b600082600061085582611374565b905080606001516108a85760405162461bcd60e51b815260206004820152601960248201527f436861726163746572206e6f7420696e207468652047616d65000000000000006044820152606401610343565b60006108b2610ed7565b6001600160a01b031663777c2caf876040518263ffffffff1660e01b81526004016108df91815260200190565b602060405180830381865afa1580156108fc573d6000803e3d6000fd5b505050506040513d601f19601f820116820180604052508101906109209190613f81565b905061092a6102c1565b6001600160a01b0316816001600160a01b03161461098a5760405162461bcd60e51b815260206004820152601a60248201527f4954454d533a204e6f7420436861726163746572204f776e65720000000000006044820152606401610343565b6000610994610ed7565b6001600160a01b031663cdaccbae876040518263ffffffff1660e01b81526004016109c191815260200190565b602060405180830381865afa1580156109de573d6000803e3d6000fd5b505050506040513d601f19601f82011682018060405250810190610a029190613faa565b6005811115610a1357610a13613c15565b905060ff8116610a7e576000610a3187610a2c8a611439565b6114c3565b9050868160018351610a439190613fcb565b81518110610a5357610a53613fde565b602002602001015103610a7857610a6a8882611598565b610a7388611613565b600195505b50610b74565b60001960ff821601610adb576000610a9987610a2c8a61168a565b9050868160018351610aab9190613fcb565b81518110610abb57610abb613fde565b602002602001015103610a7857610ad288826116fc565b610a738861176d565b7ffffffffffffffffffffffffffffffffffffffffffffffffffffffffffffffffe60ff82160115610b745760405162461bcd60e51b815260206004820152602160248201527f45515549504d454e543a20554e5245434f474e495a4544204954454d2054595060448201527f45000000000000000000000000000000000000000000000000000000000000006064820152608401610343565b610b7d876117e0565b5050505092915050565b816000610b9382611374565b90508060600151610be65760405162461bcd60e51b815260206004820152601960248201527f436861726163746572206e6f7420696e207468652047616d65000000000000006044820152606401610343565b6000610bf0610ed7565b6001600160a01b031663777c2caf866040518263ffffffff1660e01b8152600401610c1d91815260200190565b602060405180830381865afa158015610c3a573d6000803e3d6000fd5b505050506040513d601f19601f82011682018060405250810190610c5e9190613f81565b9050610c686102c1565b6001600160a01b0316816001600160a01b031614610cc85760405162461bcd60e51b815260206004820152601a60248201527f4954454d533a204e6f7420436861726163746572204f776e65720000000000006044820152606401610343565b6000805b8551811015610ec557858181518110610ce757610ce7613fde565b60200260200101519150610cf9610ed7565b6001600160a01b031663b363411883610d106102c1565b6040517fffffffff0000000000000000000000000000000000000000000000000000000060e085901b16815260048101929092526001600160a01b03166024820152604401602060405180830381865afa158015610d72573d6000803e3d6000fd5b505050506040513d601f19601f82011682018060405250810190610d969190613daa565b610de25760405162461bcd60e51b815260206004820152601560248201527f4954454d533a204e6f74204974656d204f776e657200000000000000000000006044820152606401610343565b6000610ded8361109e565b9050600381600001516005811115610e0757610e07613c15565b60ff1610610e575760405162461bcd60e51b815260206004820152601d60248201527f4954454d533a204e6f7420616e2065717569707061626c65204974656d0000006044820152606401610343565b610e6188846106d9565b610ead5760405162461bcd60e51b815260206004820152601b60248201527f4954454d533a20526571756972656d656e7473206e6f74206d657400000000006044820152606401610343565b610ebc8884836000015161196e565b50600101610ccc565b50610ecf866117e0565b505050505050565b60006102cb611ad9565b600080610eed8361109e565b80519091506005811115610f0357610f03613c15565b60ff16600003610f68576000610f1885611439565b905060005b8151811015610f615784828281518110610f3957610f39613fde565b602002602001015103610f4f5760019350610f61565b80610f5981613ff4565b915050610f1d565b5050611065565b80516005811115610f7b57610f7b613c15565b60ff16600103610fd9576000610f908561168a565b905060005b8151811015610f615784828281518110610fb157610fb1613fde565b602002602001015103610fc75760019350610f61565b80610fd181613ff4565b915050610f95565b80516005811115610fec57610fec613c15565b60ff16600203156110655760405162461bcd60e51b815260206004820152602160248201527f45515549504d454e543a20554e5245434f474e495a4544204954454d2054595060448201527f45000000000000000000000000000000000000000000000000000000000000006064820152608401610343565b5092915050565b7fffffffffffffffffffffffffffffffffffffffffffffffffffffffffffffffcc36013560601c8061109b5750335b90565b60408051606080820183526000808352602083015291810191909152604080516001808252818301909252600091602080830190803683370190505090508260001b816000815181106110f3576110f3613fde565b60209081029190910101526000808061114c7f746255440000000000000000000000004974656d730000000000000000000000857e21020101200000000000000000000000000000000000000000000000000000611ae3565b92509250925061115d838383611bb3565b9695505050505050565b61116f613927565b6040805160018082528183019092526000916020808301908036833701905050905082816000815181106111a5576111a5613fde565b6020908102919091010152600080806111fe7f7462554400000000000000000000000053746174730000000000000000000000857ee1080020200120202020200000000000000000000000000000000000000000611ae3565b92509250925061115d838383611c1e565b61125760405180610100016040528060008152602001600081526020016000815260200160008152602001600081526020016060815260200160608152602001606081525090565b60408051600180825281830190925260009160208083019080368337019050509050828160008151811061128d5761128d613fde565b6020908102919091010152600080806112e67f7462554400000000000000000000000043686172616374657245717569706d65857ea0050320202020200000000000000000000000000000000000000000000000611ae3565b92509250925061115d838383611c96565b60408051600180825281830190925260609160009190602080830190803683370190505090508260001b8160008151811061133457611334613fde565b6020908102919091010152600061136c7f746255440000000000000000000000004d6f62730000000000000000000000008383611d1d565b949350505050565b604080516080810182526000808252602082018190528183018190526060820181905282516001808252818501909452919290919081602001602082028036833701905050905082816000815181106113cf576113cf613fde565b6020908102919091010152600080806114287f7462554400000000000000000000000043686172616374657273000000000000857e55040020142001000000000000000000000000000000000000000000000000611ae3565b92509250925061115d838383611de4565b6040805160018082528183019092526060916000919060208083019080368337019050509050828160008151811061147357611473613fde565b602090810291909101015260006114ac7f7462554400000000000000000000000043686172616374657245717569706d65836001611d1d565b905061136c6114be8260008451611e34565b611ec2565b60606001825111156115925760005b825181101561158c57838382815181106114ee576114ee613fde565b60200260200101510361157a576000836001855161150c9190613fcb565b8151811061151c5761151c613fde565b602002602001015190508084838151811061153957611539613fde565b6020026020010181815250508484600186516115559190613fcb565b8151811061156557611565613fde565b6020026020010181815250508392505061158c565b8061158481613ff4565b9150506114d2565b506102bb565b50919050565b6040805160018082528183019092526000916020808301908036833701905050905082816000815181106115ce576115ce613fde565b602090810291909101015261160e7f7462554400000000000000000000000043686172616374657245717569706d6582600161160986611ed3565b611ee3565b505050565b60408051600180825281830190925260009160208083019080368337019050509050818160008151811061164957611649613fde565b6020026020010181815250506116867f7462554400000000000000000000000043686172616374657245717569706d6560001b8260016020611f95565b5050565b604080516001808252818301909252606091600091906020808301908036833701905050905082816000815181106116c4576116c4613fde565b602090810291909101015260006114ac7f7462554400000000000000000000000043686172616374657245717569706d658383611d1d565b60408051600180825281830190925260009160208083019080368337019050509050828160008151811061173257611732613fde565b602090810291909101015261160e7f7462554400000000000000000000000043686172616374657245717569706d6582600061160986611ed3565b6040805160018082528183019092526000916020808301908036833701905050905081816000815181106117a3576117a3613fde565b6020026020010181815250506116867f7462554400000000000000000000000043686172616374657245717569706d6560001b8260006020611f95565b60006117eb8261168a565b905060006117f883611439565b9050600080600080600061180a61386e565b6118126138cd565b8851156118aa5760005b89518110156118a8576118478a828151811061183a5761183a613fde565b60200260200101516102d0565b9250826020015188611859919061400e565b97508260c001518761186b9190613de2565b835190975061187a9087613de2565b955082606001518561188c9190613de2565b945082604001518461189e9190613de2565b935060010161181c565b505b8751156119305760005b885181101561192e576118df8982815181106118d2576118d2613fde565b602002602001015161036b565b91508160e00151876118f19190613de2565b82519097506119009087613de2565b95508160400151856119129190613de2565b94508160200151846119249190613de2565b93506001016118b4565b505b61193a8a87612008565b6119448a866120bc565b61194e8a8561213b565b6119588a846121ba565b6119628a88612239565b50505050505050505050565b6119788383610ee1565b156119c55760405162461bcd60e51b815260206004820152601b60248201527f45515549504d454e543a20414c524541445920455155495050454400000000006044820152606401610343565b8060058111156119d7576119d7613c15565b60ff16600003611a435760026119ec846122b8565b10611a395760405162461bcd60e51b815260206004820181905260248201527f4954454d533a20546f6f206d616e7920776561706f6e732065717569707065646044820152606401610343565b611a438383612336565b806005811115611a5557611a55613c15565b60ff16600103611ac1576001611a6a846123c9565b10611ab75760405162461bcd60e51b815260206004820152601e60248201527f4954454d533a20546f6f206d7563682061726d6f7220657175697070656400006044820152606401610343565b611ac1838361243a565b806005811115611ad357611ad3613c15565b50505050565b60006102cb6124b9565b6060600060606000611af36124b9565b9050306001600160a01b03821603611b1c57611b108787876124f8565b93509350935050611baa565b6040517f419b58fd0000000000000000000000000000000000000000000000000000000081526001600160a01b0382169063419b58fd90611b65908a908a908a9060040161405d565b600060405180830381865afa158015611b82573d6000803e3d6000fd5b505050506040513d6000823e601f3d908101601f19168201604052611b10919081019061410e565b93509350939050565b60408051606080820183526000808352602083015291810191909152611bd884612600565b6020830181905282826005811115611bf257611bf2613c15565b6005811115611c0357611c03613c15565b8152505050611c12838361262c565b60408201529392505050565b611c26613927565b611c2f84612658565b60e0890181905260c0890182905260a089018390526080890184905260608901859052886020810160408201886002811115611c6d57611c6d613c15565b6002811115611c7e57611c7e613c15565b90529790975250505093909252509195945050505050565b611cde60405180610100016040528060008152602001600081526020016000815260200160008152602001600081526020016060815260200160608152602001606081525090565b611ce7846126c6565b60808601526060850152604084015260208301528152611d078383612702565b60e084015260c083015260a08201529392505050565b60606000611d296124b9565b9050306001600160a01b03821603611d4e57611d4685858561276d565b915050610364565b6040517f1e7889770000000000000000000000000000000000000000000000000000000081526001600160a01b03821690631e78897790611d979088908890889060040161417b565b600060405180830381865afa158015611db4573d6000803e3d6000fd5b505050506040513d6000823e601f3d908101601f19168201604052611d4691908101906141a7565b509392505050565b604080516080810182526000808252602082018190529181018290526060810191909152611e11846127a7565b1515606085015260408401526001600160a01b0316602083015281529392505050565b600081831180611e445750835182115b15611e81578383836040517f23230fa300000000000000000000000000000000000000000000000000000000815260040161034393929190614208565b60208401611e8f848261400e565b90506000611e9d8585613fcb565b6fffffffffffffffffffffffffffffffff1660809290921b9190911795945050505050565b6060600061036483602060006127e1565b606081610364816020600061285c565b6000611eed6124b9565b9050306001600160a01b03821603611f1057611f0b858585856128b0565b611f8e565b6040517fef6ea8620000000000000000000000000000000000000000000000000000000081526001600160a01b0382169063ef6ea86290611f5b90889088908890889060040161422d565b600060405180830381600087803b158015611f7557600080fd5b505af1158015611f89573d6000803e3d6000fd5b505050505b5050505050565b6000611f9f6124b9565b9050306001600160a01b03821603611fbd57611f0b858585856128eb565b6040517fd9c03a040000000000000000000000000000000000000000000000000000000081526001600160a01b0382169063d9c03a0490611f5b90889088908890889060040161426c565b60408051600180825281830190925260009160208083019080368337019050509050828160008151811061203e5761203e613fde565b60200260200101818152505061160e7f7462554400000000000000000000000043686172616374657245717569706d6560001b8260008560405160200161208791815260200190565b60408051601f198184030181529190527ea0050320202020200000000000000000000000000000000000000000000000612944565b6040805160018082528183019092526000916020808301908036833701905050905082816000815181106120f2576120f2613fde565b60200260200101818152505061160e7f7462554400000000000000000000000043686172616374657245717569706d6560001b8260018560405160200161208791815260200190565b60408051600180825281830190925260009160208083019080368337019050509050828160008151811061217157612171613fde565b60200260200101818152505061160e7f7462554400000000000000000000000043686172616374657245717569706d6560001b8260028560405160200161208791815260200190565b6040805160018082528183019092526000916020808301908036833701905050905082816000815181106121f0576121f0613fde565b60200260200101818152505061160e7f7462554400000000000000000000000043686172616374657245717569706d6560001b8260038560405160200161208791815260200190565b60408051600180825281830190925260009160208083019080368337019050509050828160008151811061226f5761226f613fde565b60200260200101818152505061160e7f7462554400000000000000000000000043686172616374657245717569706d6560001b8260048560405160200161208791815260200190565b6040805160018082528183019092526000918291906020808301908036833701905050905082816000815181106122f1576122f1613fde565b6020908102919091010152600061232a7f7462554400000000000000000000000043686172616374657245717569706d658360016129ed565b60209004949350505050565b60408051600180825281830190925260009160208083019080368337019050509050828160008151811061236c5761236c613fde565b60200260200101818152505061160e7f7462554400000000000000000000000043686172616374657245717569706d6560001b826001856040516020016123b591815260200190565b604051602081830303815290604052612a9f565b60408051600180825281830190925260009182919060208083019080368337019050509050828160008151811061240257612402613fde565b6020908102919091010152600061232a7f7462554400000000000000000000000043686172616374657245717569706d6583836129ed565b60408051600180825281830190925260009160208083019080368337019050509050828160008151811061247057612470613fde565b60200260200101818152505061160e7f7462554400000000000000000000000043686172616374657245717569706d6560001b826000856040516020016123b591815260200190565b7f629a4c26e296b22a8e0856e9f6ecb2d1008d7e00081111962cd175fa7488e175546000906001600160a01b0316806124f3573391505090565b919050565b606060006060600061250985612b12565b9050612516878783612b35565b9350600061252386612b6e565b905080156125f5576125358888612bab565b935066ffffffffffffff841667ffffffffffffffff81111561255957612559613ade565b6040519080825280601f01601f191660200182016040528015612583576020820181803683370190505b5092506020830160005b828160ff1610156125f25760006125a58b8b84612bbe565b905060006125c2888460ff166028026038011c64ffffffffff1690565b90506125d18260008387612c3e565b6125db818561400e565b9350505080806125ea906142b1565b91505061258d565b50505b505093509350939050565b6020810151600090819060f81c600581111561261e5761261e613c15565b602193909301519293915050565b60606000603884901c64ffffffffff1661264f61264a858484611e34565b612d0a565b95945050505050565b600080600080600080600080612672896000016020015190565b60408a015160608b0151919950975060f81c600281111561269557612695613c15565b60618a015160818b015160a18c015160c18d015160e1909d01519b9d9a9c939b929a91995097509195509350915050565b60008060008060006126dc866000016020015190565b60408701516060880151608089015160a090990151929991989097509550909350915050565b606080806000603886901c64ffffffffff166127226114be878484611e34565b945090508064ffffffffff606088901c16016127426114be878484611e34565b935090508064ffffffffff608888901c16016127626114be878484611e34565b925050509250925092565b606061136c61277d858585612bbe565b60006127a28561278d8989612bab565b9060ff166028026038011c64ffffffffff1690565b612d8a565b6000806000806127bb856000016020015190565b6040860151605487015191955060601c9350607486015190925060f81c90509193509193565b606060006127ef8560801c90565b90506fffffffffffffffffffffffffffffffff851660008582816128155761281561429b565b04905060405193506020840160208202810160405281855260005b82811015612850578451871c825293870193602090910190600101612830565b50505050509392505050565b8251606090600061286d85836142d0565b9050604051925060208301601f19603f83860101166040528184526000602088015b84821015612850578051871b8352918701916001919091019060200161288f565b60006128bc8585612bab565b905060006128d9828560ff166028026038011c64ffffffffff1690565b9050610ecf8686866000858888612dad565b60006128f78585612bab565b90506000612914828560ff166028026038011c64ffffffffff1690565b9050610ecf86868661292d8764ffffffffff8716613fcb565b604080516000815260208101909152889088612dad565b600061294e6124b9565b9050306001600160a01b038216036129725761296d86868686866131e7565b610ecf565b6040517f390baae00000000000000000000000000000000000000000000000000000000081526001600160a01b0382169063390baae0906129bf90899089908990899089906004016142e7565b600060405180830381600087803b1580156129d957600080fd5b505af1158015611962573d6000803e3d6000fd5b6000806129f86124b9565b9050306001600160a01b03821603612a1557611d468585856131fc565b6040517fdbbf0e210000000000000000000000000000000000000000000000000000000081526001600160a01b0382169063dbbf0e2190612a5e9088908890889060040161417b565b602060405180830381865afa158015612a7b573d6000803e3d6000fd5b505050506040513d601f19601f82011682018060405250810190611d469190613e02565b6000612aa96124b9565b9050306001600160a01b03821603612ac757611f0b8585858561320c565b6040517f150f32620000000000000000000000000000000000000000000000000000000081526001600160a01b0382169063150f326290611f5b90889088908890889060040161422d565b60006008612b2260026020613fcb565b612b2c91906142d0565b9190911c919050565b606081600003612b545750604080516020810190915260008152610364565b6000612b608585613247565b905061264f81600085612d8a565b60006008600180612b8160026020613fcb565b612b8b9190613fcb565b612b959190613fcb565b612b9f91906142d0565b8260ff911c1692915050565b6000610364612bba848461329d565b5490565b60008383604051602001612bd392919061432e565b604051602081830303815290604052805190602001208260f81b7effffffffffffffffffffffffffffffffffffffffffffffffffffffffffffff19167f3b4102da22e32d82fc925482184f16c09fd4281692720b87d124aef6da48a0f1181860001c90509392505050565b8215612cc55760208310612c6857602083048401935060208381612c6457612c6461429b565b0692505b8215612cc5576020839003600081841015612c8b5750600019600884021c612c95565b50600019600882021c5b8554600886021b818451168219821617845250818411612cb6575050611ad3565b50600194909401939182900391015b5b60208210612ce75783548152600190930192601f1990910190602001612cc6565b8115611ad3576000600019600884021c8251865482191691161782525050505050565b60606000612d188360801c90565b90506fffffffffffffffffffffffffffffffff83168067ffffffffffffffff811115612d4657612d46613ade565b6040519080825280601f01601f191660200182016040528015612d70576020820181803683370190505b50925060208301612d828382846132f3565b505050919050565b60405160208101601f19603f8484010116604052828252611ddc85858584612c3e565b7f7462000000000000000000000000000000000000000000000000000000000000877fffff0000000000000000000000000000000000000000000000000000000000001614612e6d577f74620000000000000000000000000000000000000000000000000000000000008788604051602001612e2b91815260200190565b60408051601f19818403018152908290527f31b4668300000000000000000000000000000000000000000000000000000000825261034393929160040161436a565b6000612e88828760ff166028026038011c64ffffffffff1690565b9050600083518564ffffffffff1683612ea19190613fcb565b612eab919061400e565b9050808214158015612ecd575081612ec386886143ab565b64ffffffffff1614155b15612f1d576040517fa65010b400000000000000000000000000000000000000000000000000000000815264ffffffffff8088166004830152808716602483015283166044820152606401610343565b818664ffffffffff161115612f6e576040517f7e8578d30000000000000000000000000000000000000000000000000000000081526004810183905264ffffffffff87166024820152604401610343565b6000612f7b84898461333e565b90506000612f888b61340c565b905060005b8151811015613053576000828281518110612faa57612faa613fde565b60200260200101519050612fd66010826affffffffffffffffffffff191661349590919063ffffffff16565b1561304a57606081901c6001600160a01b03166355eb5a288e8e8e8e8e8d8f6040518863ffffffff1660e01b815260040161301797969594939291906143c9565b600060405180830381600087803b15801561303157600080fd5b505af1158015613045573d6000803e3d6000fd5b505050505b50600101612f8d565b5064ffffffffff881660005b8a60ff168160ff16101561309257613086878260ff166028026038011c64ffffffffff1690565b9091019060010161305f565b508b7ffe158a7adba34e256807c8a149028d3162918713c3838afc643ce9f96716ebfd8c8c848c888d6040516130cd96959493929190614427565b60405180910390a2508284146130ee5760006130e98c8c61329d565b839055505b60006130fb8c8c8c612bbe565b905061310f818a64ffffffffff16896134b3565b5060005b81518110156131d957600082828151811061313057613130613fde565b6020026020010151905061315c6020826affffffffffffffffffffff191661349590919063ffffffff16565b156131d057606081901c6001600160a01b031663635845338e8e8e8e8e8a8f6040518863ffffffff1660e01b815260040161319d97969594939291906143c9565b600060405180830381600087803b1580156131b757600080fd5b505af11580156131cb573d6000803e3d6000fd5b505050505b50600101613113565b505050505050505050505050565b611f8e85856131f684876134c9565b856134fa565b600061136c8261278d8686612bab565b60006132188585612bab565b90506000613235828560ff166028026038011c64ffffffffff1690565b9050610ecf8686868460008888612dad565b6000828260405160200161325c92919061432e565b60408051601f1981840301815291905280516020909101207f86425bff6b57326c7859e89024fe4f238ca327a1ae4a230180dd2f0e88aaa7d9189392505050565b600082826040516020016132b292919061432e565b60408051601f1981840301815291905280516020909101207f14e2fcc58e58e68ec7edc30c8d50dccc3ce2714a623ec81f46b6a63922d76569189392505050565b5b60208110613313578251825260209283019290910190601f19016132f4565b8060000361332057505050565b6000600019600883021c905080835116811985511617835250505050565b600064ffffffffff821115613382576040517f7149a3c100000000000000000000000000000000000000000000000000000000815260048101839052602401610343565b8366ffffffffffffff811660ff851660280260380182901c64ffffffffff168085106133b457808503820191506133bc565b848103820391505b5064ffffffffff6038602860ff8816020181811b197fffffffffffffffffffffffffffffffffffffffffffffffffff000000000000009490941690921792909216918416901b1790509392505050565b6040805160018082528183019092526060916000919060208083019080368337019050509050828160008151811061344657613446613fde565b6020908102919091010152600061347e7f746273746f726500000000000000000053746f7265486f6f6b73000000000000838361276d565b905061136c6134908260008451611e34565b61379e565b60008160ff16826134a68560581c90565b1660ff1614905092915050565b61160e838383516134c48560200190565b6137af565b600080805b8360ff16811015611ddc576134f060ff601b83900360080287901c168361400e565b91506001016134ce565b7f6f74000000000000000000000000000000000000000000000000000000000000847fffff000000000000000000000000000000000000000000000000000000000000160361358457837f8c0b5119d4cec7b284c6b1b39252a03d1e2f2d7451a5895562524c113bb952be84848460405161357793929190614483565b60405180910390a2611ad3565b60006135908585613247565b9050600061359d8661340c565b905060005b81518110156136725760008282815181106135bf576135bf613fde565b602002602001015190506135eb6004826affffffffffffffffffffff191661349590919063ffffffff16565b15613669576040517f964f667d000000000000000000000000000000000000000000000000000000008152606082901c9063964f667d90613636908b908b908b908b906004016144b6565b600060405180830381600087803b15801561365057600080fd5b505af1158015613664573d6000803e3d6000fd5b505050505b506001016135a2565b50857f8c0b5119d4cec7b284c6b1b39252a03d1e2f2d7451a5895562524c113bb952be8686866040516136a793929190614483565b60405180910390a26136c2828565ffffffffffff16856134b3565b60005b81518110156137955760008282815181106136e2576136e2613fde565b6020026020010151905061370e6008826affffffffffffffffffffff191661349590919063ffffffff16565b1561378c576040517fa8ba8721000000000000000000000000000000000000000000000000000000008152606082901c9063a8ba872190613759908b908b908b908b906004016144b6565b600060405180830381600087803b15801561377357600080fd5b505af1158015613787573d6000803e3d6000fd5b505050505b506001016136c5565b50505050505050565b6060600061036483601560006127e1565b821561382957602083106137d9576020830484019350602083816137d5576137d561429b565b0692505b82156138295760208390036000600019600885021c1990506008850281811c91508351811c905081198754168282161787555081841161381a575050611ad3565b50600194909401939182900391015b5b6020821061384b5780518455600190930192601f199091019060200161382a565b8115611ad3576000600019600884021c8554835182191691161785555050505050565b6040518060e0016040528060008152602001600081526020016000815260200160008152602001600081526020016138c060405180606001604052806000815260200160008152602001600081525090565b8152602001600081525090565b6040518061010001604052806000815260200160008152602001600081526020016000815260200160008152602001600081526020016138c060405180606001604052806000815260200160008152602001600081525090565b60405180610100016040528060008152602001600081526020016000600281111561395457613954613c15565b815260200160008152602001600081526020016000815260200160008152602001600081525090565b60006020828403121561398f57600080fd5b81357fffffffff000000000000000000000000000000000000000000000000000000008116811461036457600080fd5b6000602082840312156139d157600080fd5b5035919050565b600061012082019050825182526020830151602083015260408301516040830152606083015160608301526080830151608083015260a0830151613a3360a08401828051825260208082015190830152604090810151910152565b5060c083015161010083015292915050565b600061014082019050825182526020830151602083015260408301516040830152606083015160608301526080830151608083015260a083015160a083015260c0830151613aaa60c08401828051825260208082015190830152604090810151910152565b5060e083015161012083015292915050565b60008060408385031215613acf57600080fd5b50508035926020909101359150565b634e487b7160e01b600052604160045260246000fd5b604051610140810167ffffffffffffffff81118282101715613b1857613b18613ade565b60405290565b604051601f8201601f1916810167ffffffffffffffff81118282101715613b4757613b47613ade565b604052919050565b600067ffffffffffffffff821115613b6957613b69613ade565b5060051b60200190565b60008060408385031215613b8657600080fd5b8235915060208084013567ffffffffffffffff811115613ba557600080fd5b8401601f81018613613bb657600080fd5b8035613bc9613bc482613b4f565b613b1e565b81815260059190911b82018301908381019088831115613be857600080fd5b928401925b82841015613c0657833582529284019290840190613bed565b80955050505050509250929050565b634e487b7160e01b600052602160045260246000fd5b600060608284031215613c3d57600080fd5b6040516060810181811067ffffffffffffffff82111715613c6057613c60613ade565b80604052508091508251815260208301516020820152604083015160408201525092915050565b60006101208284031215613c9a57600080fd5b60405160e0810181811067ffffffffffffffff82111715613cbd57613cbd613ade565b80604052508251815260208301516020820152604083015160408201526060830151606082015260808301516080820152613cfb8460a08501613c2b565b60a0820152610100929092015160c083015250919050565b60006101408284031215613d2657600080fd5b604051610100810181811067ffffffffffffffff82111715613d4a57613d4a613ade565b8060405250825181526020830151602082015260408301516040820152606083015160608201526080830151608082015260a083015160a0820152613d928460c08501613c2b565b60c0820152610120929092015160e083015250919050565b600060208284031215613dbc57600080fd5b8151801515811461036457600080fd5b634e487b7160e01b600052601160045260246000fd5b808201828112600083128015821682158216171561083f5761083f613dcc565b600060208284031215613e1457600080fd5b5051919050565b600082601f830112613e2c57600080fd5b81516020613e3c613bc483613b4f565b8083825260208201915060208460051b870101935086841115613e5e57600080fd5b602086015b84811015613e7a5780518352918301918301613e63565b509695505050505050565b8051600381106124f357600080fd5b600060208284031215613ea657600080fd5b815167ffffffffffffffff80821115613ebe57600080fd5b908301906101408286031215613ed357600080fd5b613edb613af4565b825182811115613eea57600080fd5b613ef687828601613e1b565b8252506020830151602082015260408301516040820152613f1960608401613e85565b60608201526080830151608082015260a083015160a082015260c083015160c082015260e083015182811115613f4e57600080fd5b613f5a87828601613e1b565b60e08301525061010083810151908201526101209283015192810192909252509392505050565b600060208284031215613f9357600080fd5b81516001600160a01b038116811461036457600080fd5b600060208284031215613fbc57600080fd5b81516006811061036457600080fd5b818103818111156102bb576102bb613dcc565b634e487b7160e01b600052603260045260246000fd5b6000600019820361400757614007613dcc565b5060010190565b808201808211156102bb576102bb613dcc565b60008151808452602080850194506020840160005b8381101561405257815187529582019590820190600101614036565b509495945050505050565b8381526060602082015260006140766060830185614021565b9050826040830152949350505050565b60005b838110156140a1578181015183820152602001614089565b50506000910152565b600082601f8301126140bb57600080fd5b815167ffffffffffffffff8111156140d5576140d5613ade565b6140e86020601f19601f84011601613b1e565b8181528460208386010111156140fd57600080fd5b61136c826020830160208701614086565b60008060006060848603121561412357600080fd5b835167ffffffffffffffff8082111561413b57600080fd5b614147878388016140aa565b945060208601519350604086015191508082111561416457600080fd5b50614171868287016140aa565b9150509250925092565b8381526060602082015260006141946060830185614021565b905060ff83166040830152949350505050565b6000602082840312156141b957600080fd5b815167ffffffffffffffff8111156141d057600080fd5b61136c848285016140aa565b600081518084526141f4816020860160208601614086565b601f01601f19169290920160200192915050565b60608152600061421b60608301866141dc565b60208301949094525060400152919050565b8481526080602082015260006142466080830186614021565b60ff85166040840152828103606084015261426181856141dc565b979650505050505050565b8481526080602082015260006142856080830186614021565b60ff949094166040830152506060015292915050565b634e487b7160e01b600052601260045260246000fd5b600060ff821660ff81036142c7576142c7613dcc565b60010192915050565b80820281158282048414176102bb576102bb613dcc565b85815260a06020820152600061430060a0830187614021565b60ff86166040840152828103606084015261431b81866141dc565b9150508260808301529695505050505050565b8281526000602080830184516020860160005b8281101561435d57815184529284019290840190600101614341565b5091979650505050505050565b7fffff0000000000000000000000000000000000000000000000000000000000008416815282602082015260606040820152600061264f60608301846141dc565b64ffffffffff81811683821601908082111561106557611065613dcc565b87815260e0602082015260006143e260e0830189614021565b60ff8816604084015264ffffffffff87811660608501528616608084015260a0830185905282810360c084015261441981856141dc565b9a9950505050505050505050565b60c08152600061443a60c0830189614021565b60ff8816602084015265ffffffffffff8716604084015264ffffffffff8616606084015284608084015282810360a084015261447681856141dc565b9998505050505050505050565b6060815260006144966060830186614021565b65ffffffffffff85166020840152828103604084015261115d81856141dc565b8481526080602082015260006144cf6080830186614021565b65ffffffffffff85166040840152828103606084015261426181856141dc56fea2646970667358221220e29bd519176d9a4a4903efb262522560a87312874523698ece082e1a6aed7ed164736f6c63430008180033","linkReferences":{}},"methodIdentifiers":{"_msgSender()":"119df25f","_msgValue()":"45ec9354","_world()":"e1af802c","applyEquipmentBonuses(bytes32)":"9056fa28","checkRequirements(bytes32,uint256)":"9a8bb9a2","equipItems(bytes32,uint256[])":"cc77a2de","getArmorStats(uint256)":"40a5ed2a","getWeaponStats(uint256)":"63ff2287","isEquipped(bytes32,uint256)":"edcfef82","supportsInterface(bytes4)":"01ffc9a7","unequipItem(bytes32,uint256)":"b2aca84b"},"id":245}