{"abi":[{"type":"function","name":"_msgSender","inputs":[],"outputs":[{"name":"sender","type":"address","internalType":"address"}],"stateMutability":"view"},{"type":"function","name":"_msgValue","inputs":[],"outputs":[{"name":"value","type":"uint256","internalType":"uint256"}],"stateMutability":"pure"},{"type":"function","name":"_world","inputs":[],"outputs":[{"name":"","type":"address","internalType":"address"}],"stateMutability":"view"},{"type":"function","name":"calculateEquipmentBonuses","inputs":[{"name":"entityId","type":"bytes32","internalType":"bytes32"}],"outputs":[{"name":"","type":"tuple","internalType":"struct AdjustedCombatStats","components":[{"name":"strength","type":"int256","internalType":"int256"},{"name":"agility","type":"int256","internalType":"int256"},{"name":"intelligence","type":"int256","internalType":"int256"},{"name":"armor","type":"int256","internalType":"int256"},{"name":"maxHp","type":"int256","internalType":"int256"},{"name":"currentHp","type":"int256","internalType":"int256"}]}],"stateMutability":"view"},{"type":"function","name":"checkItemEffect","inputs":[{"name":"itemId","type":"uint256","internalType":"uint256"},{"name":"effectId","type":"bytes32","internalType":"bytes32"}],"outputs":[{"name":"hasAction","type":"bool","internalType":"bool"}],"stateMutability":"view"},{"type":"function","name":"checkRequirements","inputs":[{"name":"characterId","type":"bytes32","internalType":"bytes32"},{"name":"itemId","type":"uint256","internalType":"uint256"}],"outputs":[{"name":"canUse","type":"bool","internalType":"bool"}],"stateMutability":"view"},{"type":"function","name":"equipItems","inputs":[{"name":"characterId","type":"bytes32","internalType":"bytes32"},{"name":"itemIds","type":"uint256[]","internalType":"uint256[]"}],"outputs":[],"stateMutability":"nonpayable"},{"type":"function","name":"getArmorStats","inputs":[{"name":"itemId","type":"uint256","internalType":"uint256"}],"outputs":[{"name":"_ArmorStats","type":"tuple","internalType":"struct ArmorStatsData","components":[{"name":"agiModifier","type":"int256","internalType":"int256"},{"name":"armorModifier","type":"int256","internalType":"int256"},{"name":"hpModifier","type":"int256","internalType":"int256"},{"name":"intModifier","type":"int256","internalType":"int256"},{"name":"minLevel","type":"uint256","internalType":"uint256"},{"name":"strModifier","type":"int256","internalType":"int256"}]}],"stateMutability":"view"},{"type":"function","name":"getCombatStats","inputs":[{"name":"entityId","type":"bytes32","internalType":"bytes32"}],"outputs":[{"name":"modifiedStats","type":"tuple","internalType":"struct AdjustedCombatStats","components":[{"name":"strength","type":"int256","internalType":"int256"},{"name":"agility","type":"int256","internalType":"int256"},{"name":"intelligence","type":"int256","internalType":"int256"},{"name":"armor","type":"int256","internalType":"int256"},{"name":"maxHp","type":"int256","internalType":"int256"},{"name":"currentHp","type":"int256","internalType":"int256"}]}],"stateMutability":"view"},{"type":"function","name":"getConsumableStats","inputs":[{"name":"itemId","type":"uint256","internalType":"uint256"}],"outputs":[{"name":"_consumableStats","type":"tuple","internalType":"struct ConsumableStatsData","components":[{"name":"minDamage","type":"int256","internalType":"int256"},{"name":"maxDamage","type":"int256","internalType":"int256"},{"name":"minLevel","type":"uint256","internalType":"uint256"},{"name":"effects","type":"bytes32[]","internalType":"bytes32[]"}]}],"stateMutability":"view"},{"type":"function","name":"getItemEffects","inputs":[{"name":"itemId","type":"uint256","internalType":"uint256"}],"outputs":[{"name":"effects","type":"bytes32[]","internalType":"bytes32[]"}],"stateMutability":"view"},{"type":"function","name":"getSpellStats","inputs":[{"name":"itemId","type":"uint256","internalType":"uint256"}],"outputs":[{"name":"_spellStats","type":"tuple","internalType":"struct SpellStatsData","components":[{"name":"minDamage","type":"int256","internalType":"int256"},{"name":"maxDamage","type":"int256","internalType":"int256"},{"name":"minLevel","type":"uint256","internalType":"uint256"},{"name":"effects","type":"bytes32[]","internalType":"bytes32[]"}]}],"stateMutability":"view"},{"type":"function","name":"getWeaponStats","inputs":[{"name":"itemId","type":"uint256","internalType":"uint256"}],"outputs":[{"name":"_weaponStats","type":"tuple","internalType":"struct WeaponStatsData","components":[{"name":"agiModifier","type":"int256","internalType":"int256"},{"name":"intModifier","type":"int256","internalType":"int256"},{"name":"hpModifier","type":"int256","internalType":"int256"},{"name":"maxDamage","type":"int256","internalType":"int256"},{"name":"minDamage","type":"int256","internalType":"int256"},{"name":"minLevel","type":"uint256","internalType":"uint256"},{"name":"strModifier","type":"int256","internalType":"int256"},{"name":"effects","type":"bytes32[]","internalType":"bytes32[]"}]}],"stateMutability":"view"},{"type":"function","name":"isEquipped","inputs":[{"name":"characterId","type":"bytes32","internalType":"bytes32"},{"name":"itemId","type":"uint256","internalType":"uint256"}],"outputs":[{"name":"_isEquipped","type":"bool","internalType":"bool"}],"stateMutability":"view"},{"type":"function","name":"supportsInterface","inputs":[{"name":"interfaceId","type":"bytes4","internalType":"bytes4"}],"outputs":[{"name":"","type":"bool","internalType":"bool"}],"stateMutability":"pure"},{"type":"function","name":"unequipItem","inputs":[{"name":"characterId","type":"bytes32","internalType":"bytes32"},{"name":"itemId","type":"uint256","internalType":"uint256"}],"outputs":[{"name":"success","type":"bool","internalType":"bool"}],"stateMutability":"nonpayable"},{"type":"event","name":"Store_SetRecord","inputs":[{"name":"tableId","type":"bytes32","indexed":true,"internalType":"ResourceId"},{"name":"keyTuple","type":"bytes32[]","indexed":false,"internalType":"bytes32[]"},{"name":"staticData","type":"bytes","indexed":false,"internalType":"bytes"},{"name":"encodedLengths","type":"bytes32","indexed":false,"internalType":"EncodedLengths"},{"name":"dynamicData","type":"bytes","indexed":false,"internalType":"bytes"}],"anonymous":false},{"type":"event","name":"Store_SpliceDynamicData","inputs":[{"name":"tableId","type":"bytes32","indexed":true,"internalType":"ResourceId"},{"name":"keyTuple","type":"bytes32[]","indexed":false,"internalType":"bytes32[]"},{"name":"dynamicFieldIndex","type":"uint8","indexed":false,"internalType":"uint8"},{"name":"start","type":"uint48","indexed":false,"internalType":"uint48"},{"name":"deleteCount","type":"uint40","indexed":false,"internalType":"uint40"},{"name":"encodedLengths","type":"bytes32","indexed":false,"internalType":"EncodedLengths"},{"name":"data","type":"bytes","indexed":false,"internalType":"bytes"}],"anonymous":false},{"type":"error","name":"EncodedLengths_InvalidLength","inputs":[{"name":"length","type":"uint256","internalType":"uint256"}]},{"type":"error","name":"Slice_OutOfBounds","inputs":[{"name":"data","type":"bytes","internalType":"bytes"},{"name":"start","type":"uint256","internalType":"uint256"},{"name":"end","type":"uint256","internalType":"uint256"}]},{"type":"error","name":"Store_IndexOutOfBounds","inputs":[{"name":"length","type":"uint256","internalType":"uint256"},{"name":"accessedIndex","type":"uint256","internalType":"uint256"}]},{"type":"error","name":"Store_InvalidResourceType","inputs":[{"name":"expected","type":"bytes2","internalType":"bytes2"},{"name":"resourceId","type":"bytes32","internalType":"ResourceId"},{"name":"resourceIdString","type":"string","internalType":"string"}]},{"type":"error","name":"Store_InvalidSplice","inputs":[{"name":"startWithinField","type":"uint40","internalType":"uint40"},{"name":"deleteCount","type":"uint40","internalType":"uint40"},{"name":"fieldLength","type":"uint40","internalType":"uint40"}]}],"bytecode":{"object":"0x608060405234801561001057600080fd5b50615f6c80620000216000396000f3fe608060405234801561001057600080fd5b50600436106101005760003560e01c80636479f09f11610097578063cc77a2de11610066578063cc77a2de1461028b578063d99508f2146102a0578063e1af802c146102b3578063edcfef82146102bb57600080fd5b80636479f09f146102325780638bcc358e146102455780639a8bb9a214610265578063b2aca84b1461027857600080fd5b80633a0208e7116100d35780633a0208e71461018057806340a5ed2a146101a057806345ec9354146101ff57806363ff22871461021257600080fd5b806301ffc9a7146101055780630254f24b1461012d578063119df25f1461014057806338a5aae614610160575b600080fd5b6101186101133660046154ca565b6102ce565b60405190151581526020015b60405180910390f35b61011861013b36600461550c565b610367565b6101486104cd565b6040516001600160a01b039091168152602001610124565b61017361016e36600461552e565b6104dc565b6040516101249190615583565b61019361018e36600461552e565b610561565b60405161012491906155c9565b6101b36101ae36600461552e565b610608565b6040516101249190600060c082019050825182526020830151602083015260408301516040830152606083015160608301526080830151608083015260a083015160a083015292915050565b604051601f193601358152602001610124565b61022561022036600461552e565b6106b8565b60405161012491906155dc565b61019361024036600461552e565b610777565b61025861025336600461552e565b6107ab565b6040516101249190615641565b61011861027336600461550c565b6109df565b61011861028636600461550c565b610c26565b61029e6102993660046156f5565b6111aa565b005b6102586102ae36600461552e565b6115c5565b610148611720565b6101186102c936600461550c565b61172a565b60007fffffffff0000000000000000000000000000000000000000000000000000000082167fb5dee12700000000000000000000000000000000000000000000000000000000148061036157507fffffffff0000000000000000000000000000000000000000000000000000000082167f01ffc9a700000000000000000000000000000000000000000000000000000000145b92915050565b600080610373846118f0565b90506000816004811115610389576103896157a7565b036103e9576000610399856119a4565b905060005b81518110156103e2578181815181106103b9576103b96157bd565b602002602001015185036103d057600193506103e2565b806103da816157e9565b91505061039e565b50506104c6565b60028160048111156103fd576103fd6157a7565b0361045657600061040d85611a30565b905060005b81518110156103e25781818151811061042d5761042d6157bd565b6020026020010151850361044457600193506103e2565b8061044e816157e9565b915050610412565b600381600481111561046a5761046a6157a7565b036104c657600061047a85611aa5565b905060005b81518110156104c35781818151811061049a5761049a6157bd565b602002602001015185036104b157600193506104c3565b806104bb816157e9565b91505061047f565b50505b5092915050565b60006104d7611b1a565b905090565b606060006104e9836118f0565b905060008160048111156104ff576104ff6157a7565b036105145761050d836119a4565b915061055b565b6002816004811115610528576105286157a7565b036105365761050d83611a30565b600381600481111561054a5761054a6157a7565b0361055b5761055883611aa5565b91505b50919050565b61058c6040518060800160405280600081526020016000815260200160008152602001606081525090565b6000610597836118f0565b905060038160048111156105ad576105ad6157a7565b146105ff5760405162461bcd60e51b815260206004820152601560248201527f4954454d533a204e6f7420436f6e73756d61626c65000000000000000000000060448201526064015b60405180910390fd5b61055883611b4c565b6106416040518060c001604052806000815260200160008152602001600081526020016000815260200160008152602001600081525090565b600061064c836118f0565b90506001816004811115610662576106626157a7565b146106af5760405162461bcd60e51b815260206004820152601360248201527f4954454d533a204e6f742061202041726d6f720000000000000000000000000060448201526064016105f6565b61055883611c24565b61070060405180610100016040528060008152602001600081526020016000815260200160008152602001600081526020016000815260200160008152602001606081525090565b600061070b836118f0565b90506000816004811115610721576107216157a7565b1461076e5760405162461bcd60e51b815260206004820152601460248201527f4954454d533a204e6f7420612020776561706f6e00000000000000000000000060448201526064016105f6565b61055883611d00565b6107a26040518060800160405280600081526020016000815260200160008152602001606081525090565b61036182611deb565b6107e46040518060c001604052806000815260200160008152602001600081526020016000815260200160008152602001600081525090565b6107ec611720565b6001600160a01b031663fa1becc4836040518263ffffffff1660e01b815260040161081991815260200190565b602060405180830381865afa158015610836573d6000803e3d6000fd5b505050506040513d601f19601f8201168201806040525081019061085a9190615803565b156108a157600061086a83611ea8565b805183526020808201519084015260608101516040840152905061088d83611f50565b606083015260809081015190820152919050565b6108a9611720565b6001600160a01b031663bace814a836040518263ffffffff1660e01b81526004016108d691815260200190565b602060405180830381865afa1580156108f3573d6000803e3d6000fd5b505050506040513d601f19601f820116820180604052508101906109179190615803565b1561099257610924611720565b6001600160a01b0316638e7c4d16836040518263ffffffff1660e01b815260040161095191815260200190565b60c060405180830381865afa15801561096e573d6000803e3d6000fd5b505050506040513d601f19601f820116820180604052508101906103619190615825565b60405162461bcd60e51b815260206004820152600f60248201527f756e7265636f676e697a6564206964000000000000000000000000000000000060448201526064016105f6565b919050565b6000806109eb83611fe2565b905060006109f8856120a1565b806020019051810190610a0b919061589f565b90506000610a1885612114565b9050600083516004811115610a2f57610a2f6157a7565b03610a9b576000610a3f866121db565b60e084015160208501518451929091101592506001911315610a5f575060005b835160408401511315610a70575060005b836060015183602001511315610a84575060005b818015610a8e5750805b15610a9857600195505b50505b600183516004811115610ab057610ab06157a7565b03610b1c576000610ac086612270565b60e084015160208501518451929091101592506001911315610ae0575060005b835160408401511315610af1575060005b836060015183602001511315610b05575060005b818015610b0f5750805b15610b1957600195505b50505b600283516004811115610b3157610b316157a7565b03610b9d576000610b4186612305565b60e084015160208501518451929091101592506001911315610b61575060005b835160408401511315610b72575060005b836060015183602001511315610b86575060005b818015610b905750805b15610b9a57600195505b50505b600383516004811115610bb257610bb26157a7565b036104c3576000610bc28661239a565b60e084015160208501518451929091101592506001911315610be2575060005b835160408401511315610bf3575060005b836060015183602001511315610c07575060005b818015610c115750805b15610c1b57600195505b505050505092915050565b6000826000610c348261242f565b90508060600151610c875760405162461bcd60e51b815260206004820152601960248201527f436861726163746572206e6f7420696e207468652047616d650000000000000060448201526064016105f6565b6000610c91611720565b6001600160a01b031663777c2caf876040518263ffffffff1660e01b8152600401610cbe91815260200190565b602060405180830381865afa158015610cdb573d6000803e3d6000fd5b505050506040513d601f19601f82011682018060405250810190610cff919061591d565b9050610d096104cd565b6001600160a01b0316816001600160a01b031614610d695760405162461bcd60e51b815260206004820152601e60248201527f45515549504d454e543a204e6f7420436861726163746572204f776e6572000060448201526064016105f6565b610d73868661172a565b610dbf5760405162461bcd60e51b815260206004820152601760248201527f45515549504d454e543a204e4f5420455155495050454400000000000000000060448201526064016105f6565b610dc7611720565b6001600160a01b03166385fcd3bd876040518263ffffffff1660e01b8152600401610df491815260200190565b602060405180830381865afa158015610e11573d6000803e3d6000fd5b505050506040513d601f19601f82011682018060405250810190610e359190615803565b15610e825760405162461bcd60e51b815260206004820152601f60248201527f43616e6e6f7420756e2d6571756970206974656d7320696e20636f6d6261740060448201526064016105f6565b6000610e8c611720565b6001600160a01b031663cdaccbae876040518263ffffffff1660e01b8152600401610eb991815260200190565b602060405180830381865afa158015610ed6573d6000803e3d6000fd5b505050506040513d601f19601f82011682018060405250810190610efa9190615946565b90506000816004811115610f1057610f106157a7565b03610f76576000610f2987610f248a612516565b612589565b9050868160018351610f3b9190615967565b81518110610f4b57610f4b6157bd565b602002602001015103610f7057610f628882612658565b610f6b886126d3565b600195505b50611127565b6001816004811115610f8a57610f8a6157a7565b03610fe0576000610f9e87610f248a61274a565b9050868160018351610fb09190615967565b81518110610fc057610fc06157bd565b602002602001015103610f7057610fd788826127bc565b610f6b8861282d565b6002816004811115610ff457610ff46157a7565b0361104f57600061100d876110088a6128a0565b612913565b905086816001835161101f9190615967565b8151811061102f5761102f6157bd565b602002602001015103610f705761104688826129f7565b610f6b88612a68565b6003816004811115611063576110636157a7565b036110b9576000611077876110088a612adb565b90508681600183516110899190615967565b81518110611099576110996157bd565b602002602001015103610f70576110b08882612b4e565b610f6b88612bbf565b60405162461bcd60e51b815260206004820152602160248201527f45515549504d454e543a20554e5245434f474e495a4544204954454d2054595060448201527f450000000000000000000000000000000000000000000000000000000000000060648201526084016105f6565b61113087612c32565b50611139611720565b6001600160a01b0316638e9fa2ef886111518a6115c5565b6040518363ffffffff1660e01b815260040161116e92919061597a565b600060405180830381600087803b15801561118857600080fd5b505af115801561119c573d6000803e3d6000fd5b505050505050505092915050565b8160006111b68261242f565b905080606001516112095760405162461bcd60e51b815260206004820152601960248201527f436861726163746572206e6f7420696e207468652047616d650000000000000060448201526064016105f6565b6000611213611720565b6001600160a01b031663777c2caf866040518263ffffffff1660e01b815260040161124091815260200190565b602060405180830381865afa15801561125d573d6000803e3d6000fd5b505050506040513d601f19601f82011682018060405250810190611281919061591d565b905061128b6104cd565b6001600160a01b0316816001600160a01b0316146112eb5760405162461bcd60e51b815260206004820152601e60248201527f45515549504d454e543a204e6f7420436861726163746572204f776e6572000060448201526064016105f6565b6112f3611720565b6001600160a01b03166385fcd3bd866040518263ffffffff1660e01b815260040161132091815260200190565b602060405180830381865afa15801561133d573d6000803e3d6000fd5b505050506040513d601f19601f820116820180604052508101906113619190615803565b156113ae5760405162461bcd60e51b815260206004820152601c60248201527f43616e6e6f74206571756970206974656d7320696e20636f6d6261740000000060448201526064016105f6565b6000805b8551811015611543578581815181106113cd576113cd6157bd565b602002602001015191506113df611720565b6001600160a01b031663b3634118836113f66104cd565b6040517fffffffff0000000000000000000000000000000000000000000000000000000060e085901b16815260048101929092526001600160a01b03166024820152604401602060405180830381865afa158015611458573d6000803e3d6000fd5b505050506040513d601f19601f8201168201806040525081019061147c9190615803565b6114c85760405162461bcd60e51b815260206004820152601960248201527f45515549504d454e543a204e6f74204974656d204f776e65720000000000000060448201526064016105f6565b60006114d383611fe2565b90506114df88846109df565b61152b5760405162461bcd60e51b815260206004820152601f60248201527f45515549504d454e543a20526571756972656d656e7473206e6f74206d65740060448201526064016105f6565b61153a88848360000151612ec0565b506001016113b2565b5061154d86612c32565b50611556611720565b6001600160a01b0316638e9fa2ef8761156e896115c5565b6040518363ffffffff1660e01b815260040161158b92919061597a565b600060405180830381600087803b1580156115a557600080fd5b505af11580156115b9573d6000803e3d6000fd5b50505050505050505050565b6115fe6040518060c001604052806000815260200160008152602001600081526020016000815260200160008152602001600081525090565b6000611609836107ab565b9050611613611720565b6001600160a01b031663fa1becc4846040518263ffffffff1660e01b815260040161164091815260200190565b602060405180830381865afa15801561165d573d6000803e3d6000fd5b505050506040513d601f19601f820116820180604052508101906116819190615803565b15610361576000611691846120a1565b8060200190518101906116a4919061589f565b905060006116b185613046565b805183519192506116c1916159c3565b8352602080820151908301516116d791906159c3565b6020840152604081015160608301516116f091906159c3565b60408401526060810151608083015161170991906159c3565b608080850191909152015160608301525092915050565b60006104d7613135565b60008061173683611fe2565b905060008151600481111561174d5761174d6157a7565b036117a657600061175d85612516565b905060005b81518110156103e2578482828151811061177e5761177e6157bd565b60200260200101510361179457600193506103e2565b8061179e816157e9565b915050611762565b6001815160048111156117bb576117bb6157a7565b036118145760006117cb8561274a565b905060005b81518110156103e257848282815181106117ec576117ec6157bd565b60200260200101510361180257600193506103e2565b8061180c816157e9565b9150506117d0565b600281516004811115611829576118296157a7565b03611882576000611839856128a0565b905060005b81518110156103e2578482828151811061185a5761185a6157bd565b60200260200101510361187057600193506103e2565b8061187a816157e9565b91505061183e565b600381516004811115611897576118976157a7565b036110b95760006118a785612adb565b905060005b81518110156103e257848282815181106118c8576118c86157bd565b6020026020010151036118de57600193506103e2565b806118e8816157e9565b9150506118ac565b604080516001808252818301909252600091829190602080830190803683370190505090508260001b8160008151811061192c5761192c6157bd565b602090810291909101015260006119847f746255440000000000000000000000004974656d73000000000000000000000083837e2102010120000000000000000000000000000000000000000000000000000061313f565b905060f881901c600481111561199c5761199c6157a7565b949350505050565b60408051600180825281830190925260609160009190602080830190803683370190505090508260001b816000815181106119e1576119e16157bd565b60209081029190910101526000611a197f74625544000000000000000000000000576561706f6e5374617473000000000083836131fc565b905061199c611a2b82600084516132c2565b613350565b60408051600180825281830190925260609160009190602080830190803683370190505090508260001b81600081518110611a6d57611a6d6157bd565b60209081029190910101526000611a197f746255440000000000000000000000005370656c6c537461747300000000000083836131fc565b60408051600180825281830190925260609160009190602080830190803683370190505090508260001b81600081518110611ae257611ae26157bd565b60209081029190910101526000611a197f74625544000000000000000000000000436f6e73756d61626c6553746174730083836131fc565b7fffffffffffffffffffffffffffffffffffffffffffffffffffffffffffffffcc36013560601c80611b495750335b90565b611b776040518060800160405280600081526020016000815260200160008152602001606081525090565b604080516001808252818301909252600091602080830190803683370190505090508260001b81600081518110611bb057611bb06157bd565b602090810291909101015260008080611c097f74625544000000000000000000000000436f6e73756d61626c65537461747300857e60030120202000000000000000000000000000000000000000000000000000613361565b925092509250611c1a838383613431565b9695505050505050565b611c5d6040518060c001604052806000815260200160008152602001600081526020016000815260200160008152602001600081525090565b604080516001808252818301909252600091602080830190803683370190505090508260001b81600081518110611c9657611c966157bd565b602090810291909101015260008080611cef7f7462554400000000000000000000000041726d6f725374617473000000000000857ec0060020202020202000000000000000000000000000000000000000000000613361565b925092509250611c1a838383613487565b611d4860405180610100016040528060008152602001600081526020016000815260200160008152602001600081526020016000815260200160008152602001606081525090565b604080516001808252818301909252600091602080830190803683370190505090508260001b81600081518110611d8157611d816157bd565b602090810291909101015260008080611dda7f74625544000000000000000000000000576561706f6e53746174730000000000857ee0070120202020202020000000000000000000000000000000000000000000613361565b925092509250611c1a8383836134eb565b611e166040518060800160405280600081526020016000815260200160008152602001606081525090565b604080516001808252818301909252600091602080830190803683370190505090508260001b81600081518110611e4f57611e4f6157bd565b602090810291909101015260008080611c097f746255440000000000000000000000005370656c6c5374617473000000000000857e60030120202000000000000000000000000000000000000000000000000000613361565b611eb0615474565b604080516001808252818301909252600091602080830190803683370190505090508281600081518110611ee657611ee66157bd565b602090810291909101015260008080611f3f7f7462554400000000000000000000000053746174730000000000000000000000857ee1080020200120202020200000000000000000000000000000000000000000613361565b925092509250611c1a838383613572565b604080516001808252818301909252600091829190602080830190803683370190505090508281600081518110611f8957611f896157bd565b6020908102919091010152600061199c7f7462554400000000000000000000000043686172616374657245717569706d658360047ea005042020202020000000000000000000000000000000000000000000000061313f565b60408051606080820183526000808352602083015291810191909152604080516001808252818301909252600091602080830190803683370190505090508260001b81600081518110612037576120376157bd565b6020908102919091010152600080806120907f746255440000000000000000000000004974656d730000000000000000000000857e21020101200000000000000000000000000000000000000000000000000000613361565b925092509250611c1a8383836135ea565b604080516001808252818301909252606091600091906020808301908036833701905050905082816000815181106120db576120db6157bd565b6020908102919091010152600061199c7f74625544000000000000000000000000436861726163746572730000000000008360016131fc565b61213860405180606001604052806000815260200160008152602001600081525090565b604080516001808252818301909252600091602080830190803683370190505090508260001b81600081518110612171576121716157bd565b6020908102919091010152600080806121ca7f74625544000000000000000000000000537461745265737472696374696f6e73857e60030020202000000000000000000000000000000000000000000000000000613361565b925092509250611c1a838383613655565b604080516001808252818301909252600091829190602080830190803683370190505090508260001b81600081518110612217576122176157bd565b6020908102919091010152600061199c7f74625544000000000000000000000000576561706f6e537461747300000000008360057ee007012020202020202000000000000000000000000000000000000000000061313f565b604080516001808252818301909252600091829190602080830190803683370190505090508260001b816000815181106122ac576122ac6157bd565b6020908102919091010152600061199c7f7462554400000000000000000000000041726d6f7253746174730000000000008360047ec006002020202020200000000000000000000000000000000000000000000061313f565b604080516001808252818301909252600091829190602080830190803683370190505090508260001b81600081518110612341576123416157bd565b6020908102919091010152600061199c7f746255440000000000000000000000005370656c6c53746174730000000000008360027e6003012020200000000000000000000000000000000000000000000000000061313f565b604080516001808252818301909252600091829190602080830190803683370190505090508260001b816000815181106123d6576123d66157bd565b6020908102919091010152600061199c7f74625544000000000000000000000000436f6e73756d61626c655374617473008360027e6003012020200000000000000000000000000000000000000000000000000061313f565b6124766040518060c001604052806000815260200160006001600160a01b031681526020016000801916815260200160001515815260200160608152602001606081525090565b6040805160018082528183019092526000916020808301908036833701905050905082816000815181106124ac576124ac6157bd565b6020908102919091010152600080806125057f7462554400000000000000000000000043686172616374657273000000000000857e55040220142001000000000000000000000000000000000000000000000000613361565b925092509250611c1a838383613695565b60408051600180825281830190925260609160009190602080830190803683370190505090508281600081518110612550576125506157bd565b60209081029190910101526000611a197f7462554400000000000000000000000043686172616374657245717569706d658360016131fc565b606060018251111561055b5760005b825181101561265257838382815181106125b4576125b46157bd565b60200260200101510361264057600083600185516125d29190615967565b815181106125e2576125e26157bd565b60200260200101519050808483815181106125ff576125ff6157bd565b60200260200101818152505084846001865161261b9190615967565b8151811061262b5761262b6157bd565b60200260200101818152505083925050612652565b8061264a816157e9565b915050612598565b50610361565b60408051600180825281830190925260009160208083019080368337019050509050828160008151811061268e5761268e6157bd565b60209081029190910101526126ce7f7462554400000000000000000000000043686172616374657245717569706d658260016126c98661371c565b61372c565b505050565b604080516001808252818301909252600091602080830190803683370190505090508181600081518110612709576127096157bd565b6020026020010181815250506127467f7462554400000000000000000000000043686172616374657245717569706d6560001b82600160206137de565b5050565b60408051600180825281830190925260609160009190602080830190803683370190505090508281600081518110612784576127846157bd565b60209081029190910101526000611a197f7462554400000000000000000000000043686172616374657245717569706d6583836131fc565b6040805160018082528183019092526000916020808301908036833701905050905082816000815181106127f2576127f26157bd565b60209081029190910101526126ce7f7462554400000000000000000000000043686172616374657245717569706d658260006126c98661371c565b604080516001808252818301909252600091602080830190803683370190505090508181600081518110612863576128636157bd565b6020026020010181815250506127467f7462554400000000000000000000000043686172616374657245717569706d6560001b82600060206137de565b604080516001808252818301909252606091600091906020808301908036833701905050905082816000815181106128da576128da6157bd565b60209081029190910101526000611a197f7462554400000000000000000000000043686172616374657245717569706d658360026131fc565b60608160005b81518110156129ef5784828281518110612935576129356157bd565b6020026020010151036129e757805b82518110156129e157825161295a8260016159eb565b10156129a7578261296c8260016159eb565b8151811061297c5761297c6157bd565b6020026020010151838281518110612996576129966157bd565b6020026020010181815250506129d9565b82516129b48260016159eb565b106129d957858382815181106129cc576129cc6157bd565b6020026020010181815250505b600101612944565b506129ef565b600101612919565b509392505050565b604080516001808252818301909252600091602080830190803683370190505090508281600081518110612a2d57612a2d6157bd565b60209081029190910101526126ce7f7462554400000000000000000000000043686172616374657245717569706d658260026126c98661371c565b604080516001808252818301909252600091602080830190803683370190505090508181600081518110612a9e57612a9e6157bd565b6020026020010181815250506127467f7462554400000000000000000000000043686172616374657245717569706d6560001b82600260206137de565b60408051600180825281830190925260609160009190602080830190803683370190505090508281600081518110612b1557612b156157bd565b60209081029190910101526000611a197f7462554400000000000000000000000043686172616374657245717569706d658360036131fc565b604080516001808252818301909252600091602080830190803683370190505090508281600081518110612b8457612b846157bd565b60209081029190910101526126ce7f7462554400000000000000000000000043686172616374657245717569706d658260036126c98661371c565b604080516001808252818301909252600091602080830190803683370190505090508181600081518110612bf557612bf56157bd565b6020026020010181815250506127467f7462554400000000000000000000000043686172616374657245717569706d6560001b82600360206137de565b612c816040518061012001604052806000815260200160008152602001600081526020016000815260200160008152602001606081526020016060815260200160608152602001606081525090565b6000612c8c83613046565b9050612cc76040518060c001604052806000815260200160008152602001600081526020016000815260200160008152602001600081525090565b612d0f60405180610100016040528060008152602001600081526020016000815260200160008152602001600081526020016000815260200160008152602001606081525090565b60a08301515115612dd45760005b8360a0015151811015612dd257612d508460a001518281518110612d4357612d436157bd565b6020026020010151610608565b9250826020015185608001818151612d6891906159c3565b90525060a083015185518690612d7f9083906159c3565b9052508251602086018051612d959083906159c3565b9052506060830151604086018051612dae9083906159c3565b9052506040830151606086018051612dc79083906159c3565b905250600101612d1d565b505b60c08301515115612e825760005b8360c0015151811015612e8057612e158460c001518281518110612e0857612e086157bd565b60200260200101516106b8565b91508160c0015185600001818151612e2d91906159c3565b9052508151602086018051612e439083906159c3565b9052506020820151604086018051612e5c9083906159c3565b9052506040820151606086018051612e759083906159c3565b905250600101612de2565b505b8351835260208085015190840152604080850151908401526060808501519084015260808085015190840152612eb88584613851565b505050919050565b612eca838361172a565b15612f175760405162461bcd60e51b815260206004820152601b60248201527f45515549504d454e543a20414c5245414459204551554950504544000000000060448201526064016105f6565b6000612f2284613968565b612f2c90826159eb565b9050612f37846139e6565b612f4190826159eb565b9050612f4c84613a58565b612f5690826159eb565b905060048110612fa85760405162461bcd60e51b815260206004820152601760248201527f746f6f206d616e79206974656d7320657175697070656400000000000000000060448201526064016105f6565b816004811115612fba57612fba6157a7565b60ff16600003612fce57612fce8484613aca565b816004811115612fe057612fe06157a7565b60ff16600103612ff457612ff48484613b5d565b816004811115613006576130066157a7565b60ff1660020361301a5761301a8484613bdc565b81600481111561302c5761302c6157a7565b60ff16600403613040576130408484613c5b565b50505050565b6130956040518061012001604052806000815260200160008152602001600081526020016000815260200160008152602001606081526020016060815260200160608152602001606081525090565b6040805160018082528183019092526000916020808301908036833701905050905082816000815181106130cb576130cb6157bd565b6020908102919091010152600080806131247f7462554400000000000000000000000043686172616374657245717569706d65857ea0050420202020200000000000000000000000000000000000000000000000613361565b925092509250611c1a838383613cda565b60006104d7613d6e565b60008061314a613d6e565b9050306001600160a01b038216036131705761316886868686613da8565b91505061199c565b6040517f8c364d590000000000000000000000000000000000000000000000000000000081526001600160a01b03821690638c364d59906131bb9089908990899089906004016159fe565b602060405180830381865afa1580156131d8573d6000803e3d6000fd5b505050506040513d601f19601f820116820180604052508101906131689190615a2d565b60606000613208613d6e565b9050306001600160a01b0382160361322d57613225858585613dde565b9150506132bb565b6040517f1e7889770000000000000000000000000000000000000000000000000000000081526001600160a01b03821690631e7889779061327690889088908890600401615a46565b600060405180830381865afa158015613293573d6000803e3d6000fd5b505050506040513d6000823e601f3d908101601f191682016040526132259190810190615afa565b9392505050565b6000818311806132d25750835182115b1561330f578383836040517f23230fa30000000000000000000000000000000000000000000000000000000081526004016105f693929190615b5b565b6020840161331d84826159eb565b9050600061332b8585615967565b6fffffffffffffffffffffffffffffffff1660809290921b9190911795945050505050565b606060006132bb8360206000613e18565b6060600060606000613371613d6e565b9050306001600160a01b0382160361339a5761338e878787613e93565b93509350935050613428565b6040517f419b58fd0000000000000000000000000000000000000000000000000000000081526001600160a01b0382169063419b58fd906133e3908a908a908a90600401615b80565b600060405180830381865afa158015613400573d6000803e3d6000fd5b505050506040513d6000823e601f3d908101601f1916820160405261338e9190810190615ba9565b93509350939050565b61345c6040518060800160405280600081526020016000815260200160008152602001606081525090565b61346584613f9b565b60408401526020830152815261347b8383613fc3565b60608201529392505050565b6134c06040518060c001604052806000815260200160008152602001600081526020016000815260200160008152602001600081525090565b6134c984613fe1565b60a0870152608086015260608501526040840152602083015281529392505050565b61353360405180610100016040528060008152602001600081526020016000815260200160008152602001600081526020016000815260200160008152602001606081525090565b61353c84614025565b60c088015260a0870152608086015260608501526040840152602083015281526135668383613fc3565b60e08201529392505050565b61357a615474565b61358384614073565b60e0890181905260c0890182905260a0890183905260808901849052606089018590528860208101604082018860028111156135c1576135c16157a7565b60028111156135d2576135d26157a7565b90529790975250505093909252509195945050505050565b6040805160608082018352600080835260208301529181019190915261360f846140e1565b6020830181905282826004811115613629576136296157a7565b600481111561363a5761363a6157a7565b8152505050613649838361410d565b60408201529392505050565b61367960405180606001604052806000815260200160008152602001600081525090565b61368284613f9b565b6040840152602083015281529392505050565b6136dc6040518060c001604052806000815260200160006001600160a01b031681526020016000801916815260200160001515815260200160608152602001606081525090565b6136e584614130565b1515606085015260408401526001600160a01b03166020830152815261370b838361416a565b60a083015260808201529392505050565b60608161055881602060006141b4565b6000613736613d6e565b9050306001600160a01b038216036137595761375485858585614208565b6137d7565b6040517fef6ea8620000000000000000000000000000000000000000000000000000000081526001600160a01b0382169063ef6ea862906137a4908890889088908890600401615c16565b600060405180830381600087803b1580156137be57600080fd5b505af11580156137d2573d6000803e3d6000fd5b505050505b5050505050565b60006137e8613d6e565b9050306001600160a01b038216036138065761375485858585614243565b6040517fd9c03a040000000000000000000000000000000000000000000000000000000081526001600160a01b0382169063d9c03a04906137a49088908890889088906004016159fe565b60006138ac82600001518360200151846040015185606001518660800151604080516020810196909652858101949094526060850192909252608084015260a0808401919091528151808403909101815260c0909201905290565b905060006138cd8360a001518460c001518560e0015186610100015161429c565b905060006138ee8460a001518560c001518660e001518761010001516142dc565b60408051600180825281830190925291925060009190602080830190803683370190505090508581600081518110613928576139286157bd565b60209081029190910101526139607f7462554400000000000000000000000043686172616374657245717569706d658286868661432e565b505050505050565b6040805160018082528183019092526000918291906020808301908036833701905050905082816000815181106139a1576139a16157bd565b602090810291909101015260006139da7f7462554400000000000000000000000043686172616374657245717569706d658360016143a9565b60209004949350505050565b604080516001808252818301909252600091829190602080830190803683370190505090508281600081518110613a1f57613a1f6157bd565b602090810291909101015260006139da7f7462554400000000000000000000000043686172616374657245717569706d658360026143a9565b604080516001808252818301909252600091829190602080830190803683370190505090508281600081518110613a9157613a916157bd565b602090810291909101015260006139da7f7462554400000000000000000000000043686172616374657245717569706d658360036143a9565b604080516001808252818301909252600091602080830190803683370190505090508281600081518110613b0057613b006157bd565b6020026020010181815250506126ce7f7462554400000000000000000000000043686172616374657245717569706d6560001b82600185604051602001613b4991815260200190565b60405160208183030381529060405261445b565b604080516001808252818301909252600091602080830190803683370190505090508281600081518110613b9357613b936157bd565b6020026020010181815250506126ce7f7462554400000000000000000000000043686172616374657245717569706d6560001b82600085604051602001613b4991815260200190565b604080516001808252818301909252600091602080830190803683370190505090508281600081518110613c1257613c126157bd565b6020026020010181815250506126ce7f7462554400000000000000000000000043686172616374657245717569706d6560001b82600285604051602001613b4991815260200190565b604080516001808252818301909252600091602080830190803683370190505090508281600081518110613c9157613c916157bd565b6020026020010181815250506126ce7f7462554400000000000000000000000043686172616374657245717569706d6560001b82600385604051602001613b4991815260200190565b613d296040518061012001604052806000815260200160008152602001600081526020016000815260200160008152602001606081526020016060815260200160608152602001606081525090565b613d32846144ce565b60808601526060850152604084015260208301528152613d52838361450a565b61010085015260e084015260c083015260a08201529392505050565b7f629a4c26e296b22a8e0856e9f6ecb2d1008d7e00081111962cd175fa7488e175546000906001600160a01b0316806109da573391505090565b6000613dd5613db78686614598565b60ff858116601b0360080285901c16613dd085876145ee565b61461f565b95945050505050565b606061199c613dee858585614670565b6000613e1385613dfe89896146f0565b9060ff166028026038011c64ffffffffff1690565b614703565b60606000613e268560801c90565b90506fffffffffffffffffffffffffffffffff85166000858281613e4c57613e4c615c55565b04905060405193506020840160208202810160405281855260005b82811015613e87578451871c825293870193602090910190600101613e67565b50505050509392505050565b6060600060606000613ea485614726565b9050613eb1878783614749565b93506000613ebe86614782565b90508015613f9057613ed088886146f0565b935066ffffffffffffff841667ffffffffffffffff811115613ef457613ef4615684565b6040519080825280601f01601f191660200182016040528015613f1e576020820181803683370190505b5092506020830160005b828160ff161015613f8d576000613f408b8b84614670565b90506000613f5d888460ff166028026038011c64ffffffffff1690565b9050613f6c82600083876147bf565b613f7681856159eb565b935050508080613f8590615c6b565b915050613f28565b50505b505093509350939050565b6000806000613fae846000016020015190565b60408501516060909501519095909350915050565b60606000603884901c64ffffffffff16613dd5611a2b8584846132c2565b600080600080600080613ff8876000016020015190565b6040880151606089015160808a015160a08b015160c0909b0151939b929a91995097509550909350915050565b600080600080600080600061403e886000016020015190565b604089015160608a015160808b015160a08c015160c08d015160e0909d0151949d939c929b5090995097509550909350915050565b60008060008060008060008061408d896000016020015190565b60408a015160608b0151919950975060f81c60028111156140b0576140b06157a7565b60618a015160818b015160a18c015160c18d015160e1909d01519b9d9a9c939b929a91995097509195509350915050565b6020810151600090819060f81c60048111156140ff576140ff6157a7565b602193909301519293915050565b60606000603884901c64ffffffffff16613dd561412b8584846132c2565b61488b565b600080600080614144856000016020015190565b6040860151605487015191955060601c9350607486015190925060f81c90509193509193565b6060806000603885901c64ffffffffff1661418961412b8684846132c2565b935090508064ffffffffff606087901c16016141a961412b8684846132c2565b925050509250929050565b825160609060006141c58583615c8a565b9050604051925060208301601f19603f83860101166040528184526000602088015b84821015613e87578051871b835291870191600191909101906020016141e7565b600061421485856146f0565b90506000614231828560ff166028026038011c64ffffffffff1690565b90506139608686866000858888614903565b600061424f85856146f0565b9050600061426c828560ff166028026038011c64ffffffffff1690565b90506139608686866142858764ffffffffff8716615967565b604080516000815260208101909152889088614903565b6000613dd5855160200285516020028551602002855160200260b081901b608883901b606085901b603887901b8787018601850117171717949350505050565b60606142e78561371c565b6142f08561371c565b6142f98561371c565b6143028561371c565b6040516020016143159493929190615ca1565b6040516020818303038152906040529050949350505050565b6000614338613d6e565b9050306001600160a01b0382160361435c576143578686868686614d3d565b613960565b6040517f298314fb0000000000000000000000000000000000000000000000000000000081526001600160a01b0382169063298314fb9061158b9089908990899089908990600401615cf8565b6000806143b4613d6e565b9050306001600160a01b038216036143d157613225858585614d53565b6040517fdbbf0e210000000000000000000000000000000000000000000000000000000081526001600160a01b0382169063dbbf0e219061441a90889088908890600401615a46565b602060405180830381865afa158015614437573d6000803e3d6000fd5b505050506040513d601f19601f820116820180604052508101906132259190615a2d565b6000614465613d6e565b9050306001600160a01b038216036144835761375485858585614d63565b6040517f150f32620000000000000000000000000000000000000000000000000000000081526001600160a01b0382169063150f3262906137a4908890889088908890600401615c16565b60008060008060006144e4866000016020015190565b60408701516060880151608089015160a090990151929991989097509550909350915050565b60608080806000603887901c64ffffffffff1661452b611a2b8884846132c2565b955090508064ffffffffff606089901c160161454b611a2b8884846132c2565b945090508064ffffffffff608889901c160161456b611a2b8884846132c2565b935090508064ffffffffff60b089901c160161458b611a2b8884846132c2565b9250505092959194509250565b600082826040516020016145ad929190615d49565b60408051601f1981840301815291905280516020909101207f86425bff6b57326c7859e89024fe4f238ca327a1ae4a230180dd2f0e88aaa7d9189392505050565b600080805b8360ff168110156129ef5761461560ff601b83900360080287901c16836159eb565b91506001016145f3565b6000602082106146455760208204840193506020828161464157614641615c55565b0691505b508254600882021b6020829003808411156129ef576001850154600882021c82179150509392505050565b60008383604051602001614685929190615d49565b604051602081830303815290604052805190602001208260f81b7effffffffffffffffffffffffffffffffffffffffffffffffffffffffffffff19167f3b4102da22e32d82fc925482184f16c09fd4281692720b87d124aef6da48a0f1181860001c90509392505050565b60006132bb6146ff8484614d9e565b5490565b60405160208101601f19603f84840101166040528282526129ef858585846147bf565b6000600861473660026020615967565b6147409190615c8a565b9190911c919050565b60608160000361476857506040805160208101909152600081526132bb565b60006147748585614598565b9050613dd581600085614703565b6000600860018061479560026020615967565b61479f9190615967565b6147a99190615967565b6147b39190615c8a565b8260ff911c1692915050565b821561484657602083106147e9576020830484019350602083816147e5576147e5615c55565b0692505b821561484657602083900360008184101561480c5750600019600884021c614816565b50600019600882021c5b8554600886021b818451168219821617845250818411614837575050613040565b50600194909401939182900391015b5b602082106148685783548152600190930192601f1990910190602001614847565b8115613040576000600019600884021c8251865482191691161782525050505050565b606060006148998360801c90565b90506fffffffffffffffffffffffffffffffff83168067ffffffffffffffff8111156148c7576148c7615684565b6040519080825280601f01601f1916602001820160405280156148f1576020820181803683370190505b50925060208301612eb8838284614df4565b7f7462000000000000000000000000000000000000000000000000000000000000877fffff00000000000000000000000000000000000000000000000000000000000016146149c3577f7462000000000000000000000000000000000000000000000000000000000000878860405160200161498191815260200190565b60408051601f19818403018152908290527f31b466830000000000000000000000000000000000000000000000000000000082526105f6939291600401615d85565b60006149de828760ff166028026038011c64ffffffffff1690565b9050600083518564ffffffffff16836149f79190615967565b614a0191906159eb565b9050808214158015614a23575081614a198688615dc6565b64ffffffffff1614155b15614a73576040517fa65010b400000000000000000000000000000000000000000000000000000000815264ffffffffff80881660048301528087166024830152831660448201526064016105f6565b818664ffffffffff161115614ac4576040517f7e8578d30000000000000000000000000000000000000000000000000000000081526004810183905264ffffffffff871660248201526044016105f6565b6000614ad1848984614e3f565b90506000614ade8b614f0d565b905060005b8151811015614ba9576000828281518110614b0057614b006157bd565b60200260200101519050614b2c6010826affffffffffffffffffffff1916614f9690919063ffffffff16565b15614ba057606081901c6001600160a01b03166355eb5a288e8e8e8e8e8d8f6040518863ffffffff1660e01b8152600401614b6d9796959493929190615de4565b600060405180830381600087803b158015614b8757600080fd5b505af1158015614b9b573d6000803e3d6000fd5b505050505b50600101614ae3565b5064ffffffffff881660005b8a60ff168160ff161015614be857614bdc878260ff166028026038011c64ffffffffff1690565b90910190600101614bb5565b508b7ffe158a7adba34e256807c8a149028d3162918713c3838afc643ce9f96716ebfd8c8c848c888d604051614c2396959493929190615e42565b60405180910390a250828414614c44576000614c3f8c8c614d9e565b839055505b6000614c518c8c8c614670565b9050614c65818a64ffffffffff1689614fb4565b5060005b8151811015614d2f576000828281518110614c8657614c866157bd565b60200260200101519050614cb26020826affffffffffffffffffffff1916614f9690919063ffffffff16565b15614d2657606081901c6001600160a01b031663635845338e8e8e8e8e8a8f6040518863ffffffff1660e01b8152600401614cf39796959493929190615de4565b600060405180830381600087803b158015614d0d57600080fd5b505af1158015614d21573d6000803e3d6000fd5b505050505b50600101614c69565b505050505050505050505050565b6137d78585858585614d4e8b614fca565b61504f565b600061199c82613dfe86866146f0565b6000614d6f85856146f0565b90506000614d8c828560ff166028026038011c64ffffffffff1690565b90506139608686868460008888614903565b60008282604051602001614db3929190615d49565b60408051601f1981840301815291905280516020909101207f14e2fcc58e58e68ec7edc30c8d50dccc3ce2714a623ec81f46b6a63922d76569189392505050565b5b60208110614e14578251825260209283019290910190601f1901614df5565b80600003614e2157505050565b6000600019600883021c905080835116811985511617835250505050565b600064ffffffffff821115614e83576040517f7149a3c1000000000000000000000000000000000000000000000000000000008152600481018390526024016105f6565b8366ffffffffffffff811660ff851660280260380182901c64ffffffffff16808510614eb55780850382019150614ebd565b848103820391505b5064ffffffffff6038602860ff8816020181811b197fffffffffffffffffffffffffffffffffffffffffffffffffff000000000000009490941690921792909216918416901b1790509392505050565b60408051600180825281830190925260609160009190602080830190803683370190505090508281600081518110614f4757614f476157bd565b60209081029190910101526000614f7f7f746273746f726500000000000000000053746f7265486f6f6b730000000000008383613dde565b905061199c614f9182600084516132c2565b615388565b60008160ff1682614fa78560581c90565b1660ff1614905092915050565b6126ce83838351614fc58560200190565b615399565b60007f8b9d8c8b908d9affffffffffffffffffab9e9d939a8d00000000000000000000820161501957507e60030220202000000000000000000000000000000000000000000000000000919050565b6103616150467f746273746f72650000000000000000005461626c65730000000000000000000084615458565b6020600061461f565b7f6f74000000000000000000000000000000000000000000000000000000000000867fffff00000000000000000000000000000000000000000000000000000000000016036150db57857f8dbb3a9672eebfd3773e72dd9c102393436816d832c7ba9e1e1ac8fcadcac7a9868686866040516150ce9493929190615e9e565b60405180910390a2613960565b60006150e687614f0d565b905060005b81518110156151bf576000828281518110615108576151086157bd565b602002602001015190506151346001826affffffffffffffffffffff1916614f9690919063ffffffff16565b156151b6576040517f57066c9c000000000000000000000000000000000000000000000000000000008152606082901c906357066c9c90615183908c908c908c908c908c908c90600401615edd565b600060405180830381600087803b15801561519d57600080fd5b505af11580156151b1573d6000803e3d6000fd5b505050505b506001016150eb565b50867f8dbb3a9672eebfd3773e72dd9c102393436816d832c7ba9e1e1ac8fcadcac7a9878787876040516151f69493929190615e9e565b60405180910390a2600061520a8888614598565b90506000602087019050615222826000895184615399565b600061522d85614782565b11156152b157600061523f8a8a614d9e565b878155905060208601915060008060005b61525988614782565b8160ff1610156152ac5761526e8d8d83614670565b92506152898a8260ff166028026038011c64ffffffffff1690565b91506152988360008488615399565b6152a282866159eb565b9450600101615250565b505050505b60005b83518110156115b95760008482815181106152d1576152d16157bd565b602002602001015190506152fd6002826affffffffffffffffffffff1916614f9690919063ffffffff16565b1561537f576040517f5b28cdaf000000000000000000000000000000000000000000000000000000008152606082901c90635b28cdaf9061534c908e908e908e908e908e908e90600401615edd565b600060405180830381600087803b15801561536657600080fd5b505af115801561537a573d6000803e3d6000fd5b505050505b506001016152b4565b606060006132bb8360156000613e18565b821561541357602083106153c3576020830484019350602083816153bf576153bf615c55565b0692505b82156154135760208390036000600019600885021c1990506008850281811c91508351811c9050811987541682821617875550818411615404575050613040565b50600194909401939182900391015b5b602082106154355780518455600190930192601f1990910190602001615414565b8115613040576000600019600884021c8554835182191691161785555050505050565b60408051602081018490529081018290526000906060016145ad565b6040518061010001604052806000815260200160008152602001600060028111156154a1576154a16157a7565b815260200160008152602001600081526020016000815260200160008152602001600081525090565b6000602082840312156154dc57600080fd5b81357fffffffff00000000000000000000000000000000000000000000000000000000811681146132bb57600080fd5b6000806040838503121561551f57600080fd5b50508035926020909101359150565b60006020828403121561554057600080fd5b5035919050565b60008151808452602080850194506020840160005b838110156155785781518752958201959082019060010161555c565b509495945050505050565b6020815260006132bb6020830184615547565b805182526020810151602083015260408101516040830152600060608201516080606085015261199c6080850182615547565b6020815260006132bb6020830184615596565b6020815281516020820152602082015160408201526040820151606082015260608201516080820152608082015160a082015260a082015160c082015260c082015160e0820152600060e083015161010080818501525061199c610120840182615547565b60c081016103618284805182526020810151602083015260408101516040830152606081015160608301526080810151608083015260a081015160a08301525050565b634e487b7160e01b600052604160045260246000fd5b604051610100810167ffffffffffffffff811182821017156156be576156be615684565b60405290565b604051601f8201601f1916810167ffffffffffffffff811182821017156156ed576156ed615684565b604052919050565b6000806040838503121561570857600080fd5b8235915060208084013567ffffffffffffffff8082111561572857600080fd5b818601915086601f83011261573c57600080fd5b81358181111561574e5761574e615684565b8060051b915061575f8483016156c4565b818152918301840191848101908984111561577957600080fd5b938501935b838510156157975784358252938501939085019061577e565b8096505050505050509250929050565b634e487b7160e01b600052602160045260246000fd5b634e487b7160e01b600052603260045260246000fd5b634e487b7160e01b600052601160045260246000fd5b600060001982036157fc576157fc6157d3565b5060010190565b60006020828403121561581557600080fd5b815180151581146132bb57600080fd5b600060c0828403121561583757600080fd5b60405160c0810181811067ffffffffffffffff8211171561585a5761585a615684565b8060405250825181526020830151602082015260408301516040820152606083015160608201526080830151608082015260a083015160a08201528091505092915050565b600061010082840312156158b257600080fd5b6158ba61569a565b82518152602083015160208201526040830151600381106158da57600080fd5b80604083015250606083015160608201526080830151608082015260a083015160a082015260c083015160c082015260e083015160e08201528091505092915050565b60006020828403121561592f57600080fd5b81516001600160a01b03811681146132bb57600080fd5b60006020828403121561595857600080fd5b8151600581106132bb57600080fd5b81810381811115610361576103616157d3565b82815260e081016132bb6020830184805182526020810151602083015260408101516040830152606081015160608301526080810151608083015260a081015160a08301525050565b80820182811260008312801582168215821617156159e3576159e36157d3565b505092915050565b80820180821115610361576103616157d3565b848152608060208201526000615a176080830186615547565b60ff949094166040830152506060015292915050565b600060208284031215615a3f57600080fd5b5051919050565b838152606060208201526000615a5f6060830185615547565b905060ff83166040830152949350505050565b60005b83811015615a8d578181015183820152602001615a75565b50506000910152565b600082601f830112615aa757600080fd5b815167ffffffffffffffff811115615ac157615ac1615684565b615ad46020601f19601f840116016156c4565b818152846020838601011115615ae957600080fd5b61199c826020830160208701615a72565b600060208284031215615b0c57600080fd5b815167ffffffffffffffff811115615b2357600080fd5b61199c84828501615a96565b60008151808452615b47816020860160208601615a72565b601f01601f19169290920160200192915050565b606081526000615b6e6060830186615b2f565b60208301949094525060400152919050565b838152606060208201526000615b996060830185615547565b9050826040830152949350505050565b600080600060608486031215615bbe57600080fd5b835167ffffffffffffffff80821115615bd657600080fd5b615be287838801615a96565b9450602086015193506040860151915080821115615bff57600080fd5b50615c0c86828701615a96565b9150509250925092565b848152608060208201526000615c2f6080830186615547565b60ff851660408401528281036060840152615c4a8185615b2f565b979650505050505050565b634e487b7160e01b600052601260045260246000fd5b600060ff821660ff8103615c8157615c816157d3565b60010192915050565b8082028115828204841417610361576103616157d3565b60008551615cb3818460208a01615a72565b855190830190615cc7818360208a01615a72565b8551910190615cda818360208901615a72565b8451910190615ced818360208801615a72565b019695505050505050565b85815260a060208201526000615d1160a0830187615547565b8281036040840152615d238187615b2f565b90508460608401528281036080840152615d3d8185615b2f565b98975050505050505050565b8281526000602080830184516020860160005b82811015615d7857815184529284019290840190600101615d5c565b5091979650505050505050565b7fffff00000000000000000000000000000000000000000000000000000000000084168152826020820152606060408201526000613dd56060830184615b2f565b64ffffffffff8181168382160190808211156104c6576104c66157d3565b87815260e060208201526000615dfd60e0830189615547565b60ff8816604084015264ffffffffff87811660608501528616608084015260a0830185905282810360c0840152615e348185615b2f565b9a9950505050505050505050565b60c081526000615e5560c0830189615547565b60ff8816602084015265ffffffffffff8716604084015264ffffffffff8616606084015284608084015282810360a0840152615e918185615b2f565b9998505050505050505050565b608081526000615eb16080830187615547565b8281036020840152615ec38187615b2f565b90508460408401528281036060840152615c4a8185615b2f565b86815260c060208201526000615ef660c0830188615547565b8281036040840152615f088188615b2f565b90508560608401528281036080840152615f228186615b2f565b9150508260a083015297965050505050505056fea2646970667358221220763f11ccd7471d80c1d1cd6c585be5328db6cd7af5dc1c21e60513aafa42070764736f6c63430008180033","linkReferences":{}},"methodIdentifiers":{"_msgSender()":"119df25f","_msgValue()":"45ec9354","_world()":"e1af802c","calculateEquipmentBonuses(bytes32)":"d99508f2","checkItemEffect(uint256,bytes32)":"0254f24b","checkRequirements(bytes32,uint256)":"9a8bb9a2","equipItems(bytes32,uint256[])":"cc77a2de","getArmorStats(uint256)":"40a5ed2a","getCombatStats(bytes32)":"8bcc358e","getConsumableStats(uint256)":"3a0208e7","getItemEffects(uint256)":"38a5aae6","getSpellStats(uint256)":"6479f09f","getWeaponStats(uint256)":"63ff2287","isEquipped(bytes32,uint256)":"edcfef82","supportsInterface(bytes4)":"01ffc9a7","unequipItem(bytes32,uint256)":"b2aca84b"},"id":150}