{"abi":[{"type":"function","name":"applyStatusEffectModifiers","inputs":[{"name":"baseStats","type":"tuple","internalType":"struct AdjustedCombatStats","components":[{"name":"strength","type":"int256","internalType":"int256"},{"name":"agility","type":"int256","internalType":"int256"},{"name":"intelligence","type":"int256","internalType":"int256"},{"name":"armor","type":"int256","internalType":"int256"},{"name":"maxHp","type":"int256","internalType":"int256"},{"name":"currentHp","type":"int256","internalType":"int256"}]},{"name":"effectStats","type":"tuple","internalType":"struct StatusEffectStatsData","components":[{"name":"agiModifier","type":"int256","internalType":"int256"},{"name":"armorModifier","type":"int256","internalType":"int256"},{"name":"damagePerTick","type":"int256","internalType":"int256"},{"name":"hpModifier","type":"int256","internalType":"int256"},{"name":"intModifier","type":"int256","internalType":"int256"},{"name":"resistanceStat","type":"ResistanceStat","internalType":"enum ResistanceStat"},{"name":"strModifier","type":"int256","internalType":"int256"}]}],"outputs":[{"name":"adjustedStats","type":"tuple","internalType":"struct AdjustedCombatStats","components":[{"name":"strength","type":"int256","internalType":"int256"},{"name":"agility","type":"int256","internalType":"int256"},{"name":"intelligence","type":"int256","internalType":"int256"},{"name":"armor","type":"int256","internalType":"int256"},{"name":"maxHp","type":"int256","internalType":"int256"},{"name":"currentHp","type":"int256","internalType":"int256"}]}],"stateMutability":"pure"},{"type":"function","name":"calculateDamageOverTime","inputs":[{"name":"effectStats","type":"tuple","internalType":"struct StatusEffectStatsData","components":[{"name":"agiModifier","type":"int256","internalType":"int256"},{"name":"armorModifier","type":"int256","internalType":"int256"},{"name":"damagePerTick","type":"int256","internalType":"int256"},{"name":"hpModifier","type":"int256","internalType":"int256"},{"name":"intModifier","type":"int256","internalType":"int256"},{"name":"resistanceStat","type":"ResistanceStat","internalType":"enum ResistanceStat"},{"name":"strModifier","type":"int256","internalType":"int256"}]},{"name":"stacks","type":"uint256","internalType":"uint256"}],"outputs":[{"name":"totalDamage","type":"int256","internalType":"int256"}],"stateMutability":"pure"},{"type":"function","name":"calculateEffectDuration","inputs":[{"name":"validityData","type":"tuple","internalType":"struct StatusEffectValidityData","components":[{"name":"cooldown","type":"uint256","internalType":"uint256"},{"name":"maxStacks","type":"uint256","internalType":"uint256"},{"name":"validTime","type":"uint256","internalType":"uint256"},{"name":"validTurns","type":"uint256","internalType":"uint256"}]},{"name":"currentTime","type":"uint256","internalType":"uint256"},{"name":"appliedTime","type":"uint256","internalType":"uint256"}],"outputs":[{"name":"duration","type":"uint256","internalType":"uint256"}],"stateMutability":"pure"},{"type":"function","name":"calculateEffectPriority","inputs":[{"name":"effectStats","type":"tuple","internalType":"struct StatusEffectStatsData","components":[{"name":"agiModifier","type":"int256","internalType":"int256"},{"name":"armorModifier","type":"int256","internalType":"int256"},{"name":"damagePerTick","type":"int256","internalType":"int256"},{"name":"hpModifier","type":"int256","internalType":"int256"},{"name":"intModifier","type":"int256","internalType":"int256"},{"name":"resistanceStat","type":"ResistanceStat","internalType":"enum ResistanceStat"},{"name":"strModifier","type":"int256","internalType":"int256"}]}],"outputs":[{"name":"priority","type":"uint256","internalType":"uint256"}],"stateMutability":"pure"},{"type":"function","name":"calculateEffectStacks","inputs":[{"name":"effectId","type":"bytes32","internalType":"bytes32"},{"name":"appliedEffects","type":"bytes32[]","internalType":"bytes32[]"}],"outputs":[{"name":"stackCount","type":"uint256","internalType":"uint256"}],"stateMutability":"pure"},{"type":"function","name":"createAppliedEffectId","inputs":[{"name":"effectId","type":"bytes32","internalType":"bytes32"},{"name":"timestamp","type":"uint256","internalType":"uint256"},{"name":"turnApplied","type":"uint256","internalType":"uint256"}],"outputs":[{"name":"appliedEffectId","type":"bytes32","internalType":"bytes32"}],"stateMutability":"pure"},{"type":"function","name":"getAppliedEffectInfo","inputs":[{"name":"appliedEffectId","type":"bytes32","internalType":"bytes32"}],"outputs":[{"name":"effectStatId","type":"bytes32","internalType":"bytes32"},{"name":"timestampApplied","type":"uint256","internalType":"uint256"},{"name":"effectExpiredTime","type":"uint256","internalType":"uint256"},{"name":"turnApplied","type":"uint256","internalType":"uint256"}],"stateMutability":"pure"},{"type":"function","name":"getEffectExpired","inputs":[{"name":"appliedEffectId","type":"bytes32","internalType":"bytes32"}],"outputs":[{"name":"expiredTime","type":"uint256","internalType":"uint256"}],"stateMutability":"pure"},{"type":"function","name":"getEffectStatId","inputs":[{"name":"appliedEffectId","type":"bytes32","internalType":"bytes32"}],"outputs":[{"name":"effectId","type":"bytes32","internalType":"bytes32"}],"stateMutability":"pure"},{"type":"function","name":"getEffectTimestamp","inputs":[{"name":"appliedEffectId","type":"bytes32","internalType":"bytes32"}],"outputs":[{"name":"timestamp","type":"uint256","internalType":"uint256"}],"stateMutability":"pure"},{"type":"function","name":"getEffectTurnApplied","inputs":[{"name":"appliedEffectId","type":"bytes32","internalType":"bytes32"}],"outputs":[{"name":"turnApplied","type":"uint256","internalType":"uint256"}],"stateMutability":"pure"},{"type":"function","name":"isEffectExpiredByTime","inputs":[{"name":"appliedTime","type":"uint256","internalType":"uint256"},{"name":"currentTime","type":"uint256","internalType":"uint256"},{"name":"validityData","type":"tuple","internalType":"struct StatusEffectValidityData","components":[{"name":"cooldown","type":"uint256","internalType":"uint256"},{"name":"maxStacks","type":"uint256","internalType":"uint256"},{"name":"validTime","type":"uint256","internalType":"uint256"},{"name":"validTurns","type":"uint256","internalType":"uint256"}]}],"outputs":[{"name":"isExpired","type":"bool","internalType":"bool"}],"stateMutability":"pure"},{"type":"function","name":"isEffectExpiredByTurns","inputs":[{"name":"appliedTurn","type":"uint256","internalType":"uint256"},{"name":"currentTurn","type":"uint256","internalType":"uint256"},{"name":"validityData","type":"tuple","internalType":"struct StatusEffectValidityData","components":[{"name":"cooldown","type":"uint256","internalType":"uint256"},{"name":"maxStacks","type":"uint256","internalType":"uint256"},{"name":"validTime","type":"uint256","internalType":"uint256"},{"name":"validTurns","type":"uint256","internalType":"uint256"}]}],"outputs":[{"name":"isExpired","type":"bool","internalType":"bool"}],"stateMutability":"pure"},{"type":"function","name":"isNotExpired","inputs":[{"name":"appliedEffectId","type":"bytes32","internalType":"bytes32"}],"outputs":[{"name":"","type":"bool","internalType":"bool"}],"stateMutability":"pure"},{"type":"function","name":"markEffectAsExpired","inputs":[{"name":"appliedEffectId","type":"bytes32","internalType":"bytes32"},{"name":"currentTime","type":"uint256","internalType":"uint256"}],"outputs":[{"name":"expiredEffectId","type":"bytes32","internalType":"bytes32"}],"stateMutability":"pure"},{"type":"function","name":"processEffectInteractions","inputs":[{"name":"existingEffects","type":"bytes32[]","internalType":"bytes32[]"},{"name":"newEffectId","type":"bytes32","internalType":"bytes32"},{"name":"maxStacks","type":"uint256","internalType":"uint256"}],"outputs":[{"name":"canApply","type":"bool","internalType":"bool"},{"name":"conflicts","type":"uint256[]","internalType":"uint256[]"}],"stateMutability":"pure"},{"type":"function","name":"removeStatusEffectModifiers","inputs":[{"name":"baseStats","type":"tuple","internalType":"struct AdjustedCombatStats","components":[{"name":"strength","type":"int256","internalType":"int256"},{"name":"agility","type":"int256","internalType":"int256"},{"name":"intelligence","type":"int256","internalType":"int256"},{"name":"armor","type":"int256","internalType":"int256"},{"name":"maxHp","type":"int256","internalType":"int256"},{"name":"currentHp","type":"int256","internalType":"int256"}]},{"name":"effectStats","type":"tuple","internalType":"struct StatusEffectStatsData","components":[{"name":"agiModifier","type":"int256","internalType":"int256"},{"name":"armorModifier","type":"int256","internalType":"int256"},{"name":"damagePerTick","type":"int256","internalType":"int256"},{"name":"hpModifier","type":"int256","internalType":"int256"},{"name":"intModifier","type":"int256","internalType":"int256"},{"name":"resistanceStat","type":"ResistanceStat","internalType":"enum ResistanceStat"},{"name":"strModifier","type":"int256","internalType":"int256"}]}],"outputs":[{"name":"adjustedStats","type":"tuple","internalType":"struct AdjustedCombatStats","components":[{"name":"strength","type":"int256","internalType":"int256"},{"name":"agility","type":"int256","internalType":"int256"},{"name":"intelligence","type":"int256","internalType":"int256"},{"name":"armor","type":"int256","internalType":"int256"},{"name":"maxHp","type":"int256","internalType":"int256"},{"name":"currentHp","type":"int256","internalType":"int256"}]}],"stateMutability":"pure"},{"type":"function","name":"validateEffectApplication","inputs":[{"name":"validityData","type":"tuple","internalType":"struct StatusEffectValidityData","components":[{"name":"cooldown","type":"uint256","internalType":"uint256"},{"name":"maxStacks","type":"uint256","internalType":"uint256"},{"name":"validTime","type":"uint256","internalType":"uint256"},{"name":"validTurns","type":"uint256","internalType":"uint256"}]},{"name":"effectStats","type":"tuple","internalType":"struct StatusEffectStatsData","components":[{"name":"agiModifier","type":"int256","internalType":"int256"},{"name":"armorModifier","type":"int256","internalType":"int256"},{"name":"damagePerTick","type":"int256","internalType":"int256"},{"name":"hpModifier","type":"int256","internalType":"int256"},{"name":"intModifier","type":"int256","internalType":"int256"},{"name":"resistanceStat","type":"ResistanceStat","internalType":"enum ResistanceStat"},{"name":"strModifier","type":"int256","internalType":"int256"}]},{"name":"isInCombat","type":"bool","internalType":"bool"}],"outputs":[{"name":"isValid","type":"bool","internalType":"bool"}],"stateMutability":"pure"}],"bytecode":{"object":"0x6080806040523461001a57610ab2908161001f823930815050f35b5f80fdfe6080604081815260049182361015610015575f80fd5b5f3560e01c90816327937ad8146106615750806328060e39146105af57806333e07951146105935780633d177b1d1461056e5780633e8fdfc214610500578063450e7dde146104865780634e6fb4201461044e57806352b9eb461461042b5780635fc5d36c146103f457806366066e7a146103c35780638a227e30146103a1578063bc88cc7f14610369578063c1591bb814610346578063c169e5a914610322578063c80980991461025d578063e83afe621461019a578063e87020c5146101265763fe37ee2a146100e5575f80fd5b80600319360112610122576024356001600160401b0381116101225760209261011461011b9236908301610736565b9035610a40565b9051908152f35b5f80fd5b5060c03660031901126101225760209061013f366108b6565b810180519060a435608435831561018f5781811061018657610162929350610a18565b9051908181106101775750505f905b51908152f35b61018091610a18565b90610171565b50505090610171565b505050505f90610171565b6102596020836101a936610809565b6101b49391936109bc565b5080516101c5838601918251610a25565b905260808101516101da848601918251610a25565b90526101eb60c08201518551610a25565b8452606081015161020160808601918251610a25565b9052015161021460608401918251610a25565b9052519182918291909160a08060c083019480518452602081015160208501526040810151604085015260608101516060850152608081015160808501520151910152565b0390f35b5061018036600319011261012257610274366108b6565b9160e036608319011261012257815161028c816106b6565b608435815260a435602082015260c43591828483015260e435606083015261010435608083015261012435908110156101225760a082015260c06101443591015261016435908115918215810361012257838501516020959015610306575050816102fd575b50905b519015158152f35b9050155f6102f2565b6060015190925015905061031a57906102f5565b505f906102f5565b5060203660031901126101225780519135901c6001600160401b0316158152602090f35b5090602036600319011261012257905190356001600160c01b0319168152602090f35b60208280610376366108ee565b90920180519092919061038e57505090515f81529050f35b61039791610a18565b90511115906102f5565b5090602036600319011261012257905190356001600160401b03168152602090f35b506020366003190112610122576103dc60809235610a89565b92939091815194855260208501528301526060820152f35b5060e03660031901126101225760209061011b610410366107af565b608061042260c0830151835190610a25565b91015190610a25565b5060203660031901126101225780519135901c6001600160401b03168152602090f35b602082606061045c366108ee565b90920180519092919061047457505090515f81529050f35b61047d91610a18565b905110906102f5565b61025960208361049536610809565b6104a09391936109bc565b5080516104b18386019182516109ec565b905260808101516104c68486019182516109ec565b90526104d760c082015185516109ec565b845260608101516104ed608086019182516109ec565b90520151610214606084019182516109ec565b5061010036600319011261012257610517366107af565b81015160e4358181029291905f8212600160ff1b82141661055b578184051490151715610548576020925051908152f35b601183634e487b7160e01b5f525260245ffd5b601185634e487b7160e01b5f525260245ffd5b50906020366003190112610122579051903560801c6001600160401b03168152602090f35b50806003193601126101225761011b602092602435903561095b565b50906060366003190112610122576001600160401b03908035828111610122576105dc9036908301610736565b6105eb60443591602435610a40565b1090835160209160208201948286109086111761064e57509392918284525f855283519484869586019286526020860152518091526060840192915f5b82811061063757505050500390f35b835185528695509381019392810192600101610628565b604190634e487b7160e01b5f525260245ffd5b828460603660031901126101225760209261011b9160018060c01b031980913516858301528060243560c01b1660288301525f603083015260443560c01b1660388201528381526106b18161071b565b610939565b60e081019081106001600160401b038211176106d157604052565b634e487b7160e01b5f52604160045260245ffd5b60c081019081106001600160401b038211176106d157604052565b608081019081106001600160401b038211176106d157604052565b604081019081106001600160401b038211176106d157604052565b9080601f83011215610122576001600160401b0391602091908035908482116106d1578160051b9160405195601f19603f850116870190878210908211176106d157604052855260208086019282010192831161012257602001905b8282106107a0575050505090565b81358152908301908301610792565b60e090600319011261012257604051906107c8826106b6565b816004358152602435602082015260443560408201526064356060820152608435608082015260a43560048110156101225760a082015260c060c435910152565b9060031982016101a081126101225760c0136101225760e060405161082d816106e5565b6004358152602435602082015260443560408201526064356060820152608435608082015260a43560a08201529260c319011261012257604051610870816106b6565b60c435815260e43560208201526101043560408201526101243560608201526101443560808201526101643560048110156101225760a08201526101843560c082015290565b608090600319011261012257604051906108cf82610700565b6004358252602435602083015260443560408301526064356060830152565b60c0600319820112610122576004359160806024359260431901126101225760405161091981610700565b60443581526064356020820152608435604082015260a435606082015290565b60208151910151906020811061094d575090565b5f199060200360031b1b1690565b9061096582610a89565b92939291906109b5576109b2945060018060c01b031992838092816040519716602088015260c01b16602886015260c01b16603084015260c01b166038820152602081526106b18161071b565b90565b5050505090565b604051906109c9826106e5565b5f60a0838281528260208201528260408201528260608201528260808201520152565b81810392915f138015828513169184121617610a0457565b634e487b7160e01b5f52601160045260245ffd5b91908203918211610a0457565b9190915f8382019384129112908015821691151617610a0457565b5f9291835b8151811015610a8457600581901b8201602001516001600160c01b0319168314610a72575b600101610a45565b935f198114610a045760010193610a6a565b505050565b6001600160c01b03198116916001600160401b03608083901c811692604081901c82169291169056","linkReferences":{}},"methodIdentifiers":{"applyStatusEffectModifiers(AdjustedCombatStats,StatusEffectStatsData)":"e83afe62","calculateDamageOverTime(StatusEffectStatsData,uint256)":"3e8fdfc2","calculateEffectDuration(StatusEffectValidityData,uint256,uint256)":"e87020c5","calculateEffectPriority(StatusEffectStatsData)":"5fc5d36c","calculateEffectStacks(bytes32,bytes32[])":"fe37ee2a","createAppliedEffectId(bytes32,uint256,uint256)":"27937ad8","getAppliedEffectInfo(bytes32)":"66066e7a","getEffectExpired(bytes32)":"52b9eb46","getEffectStatId(bytes32)":"c1591bb8","getEffectTimestamp(bytes32)":"3d177b1d","getEffectTurnApplied(bytes32)":"8a227e30","isEffectExpiredByTime(uint256,uint256,StatusEffectValidityData)":"bc88cc7f","isEffectExpiredByTurns(uint256,uint256,StatusEffectValidityData)":"4e6fb420","isNotExpired(bytes32)":"c169e5a9","markEffectAsExpired(bytes32,uint256)":"33e07951","processEffectInteractions(bytes32[],bytes32,uint256)":"28060e39","removeStatusEffectModifiers(AdjustedCombatStats,StatusEffectStatsData)":"450e7dde","validateEffectApplication(StatusEffectValidityData,StatusEffectStatsData,bool)":"c8098099"},"id":350}