{"abi":[{"type":"function","name":"get16Chunks","inputs":[{"name":"number","type":"uint256","internalType":"uint256"}],"outputs":[{"name":"","type":"uint16[]","internalType":"uint16[]"}],"stateMutability":"pure"},{"type":"function","name":"get4Chunks","inputs":[{"name":"number","type":"uint256","internalType":"uint256"}],"outputs":[{"name":"","type":"uint64[]","internalType":"uint64[]"}],"stateMutability":"pure"},{"type":"function","name":"get8Chunks","inputs":[{"name":"number","type":"uint256","internalType":"uint256"}],"outputs":[{"name":"","type":"uint32[]","internalType":"uint32[]"}],"stateMutability":"pure"}],"bytecode":{"object":"0x6080806040523461001a576102e2908161001f823930815050f35b5f80fdfe608060409080825260049081361015610016575f80fd5b5f3560e01c9081634dddf837146101fe57508063bc3a86cf146101285763e9b4590514610041575f80fd5b60208060031936011261012457825190823561022083016001600160401b038111848210176101115785526010808452929493828601936102003686375f5b8181106100cb575050505082519384938285019183865251809252840192915f5b8281106100b057505050500390f35b835161ffff16855286955093810193928101926001016100a1565b8083989697981b8181048314821517156100fe579061ffff856001931c166100f382896102ba565b520196959496610080565b601184634e487b7160e01b5f525260245ffd5b604185634e487b7160e01b5f525260245ffd5b5f80fd5b5060208060031936011261012457825190823561012083016001600160401b038111848210176101115785949395526008808652828601936101003686375f5b8281106101b5575050505082519384938285019183865251809252840192915f5b82811061019857505050500390f35b835163ffffffff1685528695509381019392810192600101610189565b806005989697981b8181048614821517156101eb579063ffffffff856001931c166101e082896102ba565b520196959496610168565b601183634e487b7160e01b5f525260245ffd5b83915060209081600319360112610124576001600160401b03938035929060a08301868111848210176102a75785528083528183019360803686375f5b82811061027d57505050908351938285019183865251809252840192915f5b8281106102675785850386f35b835187168552938101939281019260010161025a565b8060061b8181048814821517156100fe579088836001931c166102a082886102ba565b520161023b565b604182634e487b7160e01b5f525260245ffd5b80518210156102ce5760209160051b010190565b634e487b7160e01b5f52603260045260245ffd","linkReferences":{}},"methodIdentifiers":{"get16Chunks(uint256)":"e9b45905","get4Chunks(uint256)":"4dddf837","get8Chunks(uint256)":"bc3a86cf"},"id":488}