{"abi":[{"type":"function","name":"_msgSender","inputs":[],"outputs":[{"name":"sender","type":"address","internalType":"address"}],"stateMutability":"view"},{"type":"function","name":"_msgValue","inputs":[],"outputs":[{"name":"value","type":"uint256","internalType":"uint256"}],"stateMutability":"view"},{"type":"function","name":"_world","inputs":[],"outputs":[{"name":"","type":"address","internalType":"address"}],"stateMutability":"view"},{"type":"function","name":"getRng","inputs":[{"name":"userRandomNumber","type":"bytes32","internalType":"bytes32"},{"name":"requestType","type":"uint8","internalType":"enum RngRequestType"},{"name":"data","type":"bytes","internalType":"bytes"}],"outputs":[{"name":"sequenceNumber","type":"uint64","internalType":"uint64"}],"stateMutability":"payable"},{"type":"function","name":"onERC1155BatchReceived","inputs":[{"name":"","type":"address","internalType":"address"},{"name":"","type":"address","internalType":"address"},{"name":"","type":"uint256[]","internalType":"uint256[]"},{"name":"","type":"uint256[]","internalType":"uint256[]"},{"name":"","type":"bytes","internalType":"bytes"}],"outputs":[{"name":"","type":"bytes4","internalType":"bytes4"}],"stateMutability":"nonpayable"},{"type":"function","name":"onERC1155Received","inputs":[{"name":"","type":"address","internalType":"address"},{"name":"","type":"address","internalType":"address"},{"name":"","type":"uint256","internalType":"uint256"},{"name":"","type":"uint256","internalType":"uint256"},{"name":"","type":"bytes","internalType":"bytes"}],"outputs":[{"name":"","type":"bytes4","internalType":"bytes4"}],"stateMutability":"nonpayable"},{"type":"function","name":"supportsInterface","inputs":[{"name":"interfaceId","type":"bytes4","internalType":"bytes4"}],"outputs":[{"name":"","type":"bool","internalType":"bool"}],"stateMutability":"pure"},{"type":"event","name":"RNGFulfilled","inputs":[{"name":"randomNumber","type":"bytes32","indexed":false,"internalType":"bytes32"}],"anonymous":false},{"type":"event","name":"Store_SetRecord","inputs":[{"name":"tableId","type":"bytes32","indexed":true,"internalType":"ResourceId"},{"name":"keyTuple","type":"bytes32[]","indexed":false,"internalType":"bytes32[]"},{"name":"staticData","type":"bytes","indexed":false,"internalType":"bytes"},{"name":"encodedLengths","type":"bytes32","indexed":false,"internalType":"EncodedLengths"},{"name":"dynamicData","type":"bytes","indexed":false,"internalType":"bytes"}],"anonymous":false},{"type":"event","name":"Store_SpliceStaticData","inputs":[{"name":"tableId","type":"bytes32","indexed":true,"internalType":"ResourceId"},{"name":"keyTuple","type":"bytes32[]","indexed":false,"internalType":"bytes32[]"},{"name":"start","type":"uint48","indexed":false,"internalType":"uint48"},{"name":"data","type":"bytes","indexed":false,"internalType":"bytes"}],"anonymous":false},{"type":"error","name":"InvalidMoves","inputs":[]},{"type":"error","name":"Slice_OutOfBounds","inputs":[{"name":"data","type":"bytes","internalType":"bytes"},{"name":"start","type":"uint256","internalType":"uint256"},{"name":"end","type":"uint256","internalType":"uint256"}]},{"type":"error","name":"UnrecognizedCombatType","inputs":[]},{"type":"error","name":"UnrecognizedRequestType","inputs":[]},{"type":"error","name":"World_AccessDenied","inputs":[{"name":"resource","type":"string","internalType":"string"},{"name":"caller","type":"address","internalType":"address"}]},{"type":"error","name":"World_FunctionSelectorNotFound","inputs":[{"name":"functionSelector","type":"bytes4","internalType":"bytes4"}]},{"type":"error","name":"World_ResourceNotFound","inputs":[{"name":"resourceId","type":"bytes32","internalType":"ResourceId"},{"name":"resourceIdString","type":"string","internalType":"string"}]}],"bytecode":{"object":"0x608080604052346100165761353d908161001b8239f35b5f80fdfe60806040526004361015610011575f80fd5b5f3560e01c806301ffc9a714610084578063119df25f1461007f57806345ec93541461007a578063b2aa60a414610075578063bc197c8114610070578063e1af802c1461006b5763f23a6e6114610066575f80fd5b61054e565b610534565b6104ac565b61027c565b610112565b6100e6565b346100d85760203660031901126100d85760043563ffffffff60e01b81168091036100d85763b5dee12760e01b81149081156100c7575b50151560805260206080f35b6301ffc9a760e01b149050816100bb565b5f80fd5b5f9103126100d857565b346100d8575f3660031901126100d85760206101006105fb565b6040516001600160a01b039091168152f35b346100d8575f3660031901126100d8576020604051601f193601358152f35b600311156100d857565b634e487b7160e01b5f52604160045260245ffd5b6001600160401b03811161016257604052565b61013b565b606081019081106001600160401b0382111761016257604052565b604081019081106001600160401b0382111761016257604052565b61012081019081106001600160401b0382111761016257604052565b601f909101601f19168101906001600160401b0382119082101761016257604052565b6040519060a082016001600160401b0381118382101761016257604052565b604051906101a082016001600160401b0381118382101761016257604052565b6001600160401b03811161016257601f01601f191660200190565b81601f820112156100d85780359061024d8261021b565b9261025b60405194856101b9565b828452602083830101116100d857815f926020809301838601378301015290565b60603660031901126100d85760043560243561029781610131565b604435916001600160401b038084116100d8576103a06103a6926103306102c56103c0973690600401610236565b956102ce6105a3565b948760208701526102df82876105ef565b6102f66102ea610638565b6001600160401b031690565b976103186103026101dc565b6001600160401b038b16815293602085016105ef565b5f6040840152846060840152608083015287166107e8565b46617a69036103c4576103876103956103476105fb565b6040805142602082019081526001600160401b038b169282019290925260608101959095526001600160a01b0390911660808501529291829060a0820190565b03601f1981018352826101b9565b519020915b8461088b565b826109a2565b6040516001600160401b0390911681529081906020820190565b0390f35b6103876104006103d26105fb565b604080514460208201908152918101959095526001600160a01b039091166060850152929182906080820190565b5190209161039a565b600435906001600160a01b03821682036100d857565b602435906001600160a01b03821682036100d857565b6001600160401b0381116101625760051b60200190565b9080601f830112156100d857602090823561046681610435565b9361047460405195866101b9565b81855260208086019260051b8201019283116100d857602001905b82821061049d575050505090565b8135815290830190830161048f565b346100d85760a03660031901126100d8576104c5610409565b506104ce61041f565b506001600160401b036044358181116100d8576104ef90369060040161044c565b506064358181116100d85761050890369060040161044c565b506084359081116100d857610521903690600401610236565b5060405163bc197c8160e01b8152602090f35b346100d8575f3660031901126100d8576020610100610e59565b346100d85760a03660031901126100d857610567610409565b5061057061041f565b506084356001600160401b0381116100d857610590903690600401610236565b5060405163f23a6e6160e01b8152602090f35b60408051919082016001600160401b038111838210176101625760405260606020835f81520152565b634e487b7160e01b5f52602160045260245ffd5b600311156105ea57565b6105cc565b6105f8826105e0565b52565b36603319013560601c90811561060d57565b339150565b634e487b7160e01b5f52601160045260245ffd5b9190820180921161063357565b610612565b61064061077e565b80511561077957306020820152805160011015610779578060016040610667930152610e8e565b9060018201809211610633578161067c61077e565b90815115610779573060208301528151600110156107795760016040830152604051906020820152602081526106b181610182565b6001600160a01b036106c1610e59565b16913083036106d6576106d49250611c6a565b565b90823b156100d8576040516301c85d5760e51b815267436f756e7465727360401b631d18955160e21b01600482015260a06024820152925f928492839185918391610742919061072a9060a4850190610baa565b90846044850152600319848303016064850152610c1a565b630100080160dd1b608483015203925af1801561077457610761575b50565b8061076e6106d49261014f565b806100dc565b610c3f565b6107b3565b6040519061078b82610167565b600282526040366020840137565b604051906107a682610182565b6001825260203681840137565b634e487b7160e01b5f52603260045260245ffd5b8051156107795760200190565b80518210156107795760209160051b010190565b81519060208301516107f9816105e0565b6040848101516060860151915160c09590951b6001600160c01b03191660208601529091610826816105e0565b60f81b602885015260298401526049808401919091528252608082016001600160401b03811183821017610162576106d49360809160405201519161086c835193610b7e565b92610875610799565b9261087f846107c7565b528060381b1791610c4a565b6020825192610899846105e0565b604051936108a6816105e0565b60f81b82850152600184526108ba84610182565b01516108cc81518060381b1791610b7e565b916108d5610799565b90815115610779576001600160401b031660208201526001600160a01b036108fb610e59565b1630810361090e5750926106d49361110a565b909192813b156100d8575f61097d93610991829661096a94604051998a988997889663298314fb60e01b88526f52616e646f6d4e756d62657273000000631d18955160e21b01600489015260a0602489015260a4880190610baa565b6003199283888303016044890152610c1a565b926064860152848303016084850152610c1a565b03925af18015610774576107615750565b6109ab816115f9565b6109c7836109b88461162d565b936001600160401b0316611655565b6109d0816105e0565b60018103610a5a57505f8051602061349d8339815191529181610a2b9251602081115f14610a3f575080602080610a0c93518301019101610e3f565b15610a3057610a1b9082611ad7565b6040519081529081906020820190565b0390a1565b610a3a908261191f565b610a1b565b81602080610a5493610a3a9501019101610e23565b8261191f565b610a63816105e0565b60028103610b0f575080602080610a7f93518301019101610d6f565b90815115610afd57610a90816117c2565b610a99816105e0565b60018103610abf575091610a3a610a2b925f8051602061349d8339815191529483611806565b610acb819492946105e0565b610aeb57610a3a610a2b925f8051602061349d83398151915294836117df565b604051632749f77560e11b8152600490fd5b6040516329e2471160e11b8152600490fd5b610b18816105e0565b610b4b575f8051602061349d83398151915291610a3a610b4483602080610a2b96518301019101610d6f565b9083611796565b604051634d0743d760e01b8152600490fd5b5f5b838110610b6e5750505f910152565b8181015183820152602001610b5f565b610ba7602060405183610b9a8295518092858086019101610b5d565b81010380845201826101b9565b90565b9081518082526020808093019301915f5b828110610bc9575050505090565b835185529381019392810192600101610bbb565b90606051918281525f5b838110610c065750825f602080949584010152601f8019910116010190565b806020916080015182828501015201610be7565b90602091610c3381518092818552858086019101610b5d565b601f01601f1916010190565b6040513d5f823e3d90fd5b909291906001600160a01b03610c5e610e59565b16308103610c715750926106d49361137c565b909192813b156100d85760405163298314fb60e01b815266526e674c6f677360481b631bdd155160e21b01600482015260a06024820152945f948694859387938593610991939092919061097d9061096a9060a4880190610baa565b6001600160a01b03610cdd610e59565b16308103610cf05750906106d4916113e7565b90813b156100d85760405163298314fb60e01b815264537461747360581b631d18955160e21b01600482015260a06024820152925f92849290918391859183916109919190610d5a90610d479060a4860190610baa565b6003199283868303016044870152610c1a565b90846064850152838203016084840152610bdd565b91906040906040848203126100d857835160208086015191959091906001600160401b0382116100d857019082601f830112156100d857815192610db284610435565b94610dc060405196876101b9565b84865282860191836060809702860101948186116100d8578401925b858410610ded575050505050505090565b86848303126100d8578487918451610e0481610167565b8651815282870151838201528587015186820152815201930192610ddc565b908160209103126100d8575190565b519081151582036100d857565b91908260409103126100d857610ba7602083519301610e32565b7f629a4c26e296b22a8e0856e9f6ecb2d1008d7e00081111962cd175fa7488e175546001600160a01b031680610ba757503390565b6001600160a01b03610e9e610e59565b16308103610eb45750610eb0906125bd565b5490565b604051638c364d5960e01b815267436f756e7465727360401b631d18955160e21b0160048201526080602482015291602091839182908190610efa906084830190610baa565b5f6044830152630100080160dd1b606483015203915afa908115610774575f91610f22575090565b610ba7915060203d602011610f44575b610f3c81836101b9565b810190610e23565b503d610f32565b6001600160a01b03610f5b610e59565b16308103610f6d5750610eb090612636565b604051638c364d5960e01b81525f805160206134fd83398151915260048201526080602482015291602091839182908190610fac906084830190610baa565b5f6044830152630101010160d81b606483015203915afa908115610774575f91610f22575090565b6001600160a01b03610fe4610e59565b16308103610ff65750610eb09061269f565b604051638c364d5960e01b81526f436f6d626174456e636f756e74657200631d18955160e21b0160048201526080602482015291602091839182908190611041906084830190610baa565b5f60448301526aa30802012020012020200160a01b606483015203915afa908115610774575f91610f22575090565b6001600160a01b03611080610e59565b163081036110925750610ba790611bba565b604051638c364d5960e01b815264537461747360581b631d18955160e21b01600482015260806024820152916020918391829081906110d5906084830190610baa565b600260448301526fe60d002020012020202020010101010160781b606483015203915afa908115610774575f91610f22575090565b60408051655461626c657360501b66746273746f726560c81b01602082019081525f805160206134fd8339815191528284018190528383529697929594929161115281610167565b5190205f8051602061347d83398151915218549061116e612807565b905f5b825181101561121c576111a561119861118a83866107d4565b516001600160581b03191690565b6001600160581b03191690565b6001808260581c16146111bc575b50600101611171565b60601c90813b156100d8575f888c9388838b6111ef8f8c9051998a97889687956315c19b2760e21b875260048701611ee1565b03925af191821561077457600192611209575b50906111b3565b8061076e6112169261014f565b5f611202565b50965f805160206134bd83398151915287518061123c8c8a898b85611eb3565b0390a261125761124b85612708565b8451602086019161297d565b60ff808360e01c1680611303575b50505f5b81518110156112f85761128261119861118a83856107d4565b6002808260581c1614611299575b50600101611269565b60601c90813b156100d8575f878b9387838a6112cb8a8f51998a9788968795635b28cdaf60e01b875260048701611ee1565b03925af1918215610774576001926112e5575b5090611290565b8061076e6112f29261014f565b5f6112de565b505050505050509050565b9690989295949385611317869a949a6129d3565b555f96602085015b8b8916908a821015611369576113608d928261135b60019464ffffffffff8f8f908f9061134b91612a12565b956028026038011c16809461297d565b610626565b9901169761131f565b5050939950939495509550955f80611265565b60408051655461626c657360501b66746273746f726560c81b01602082015266526e674c6f677360481b631bdd155160e21b0181830181905291815290945f805160206134bd833981519152946113e2926113d690610167565b60405194859485611eb3565b0390a2565b60408051655461626c657360501b66746273746f726560c81b016020820190815264537461747360581b631d18955160e21b01828401819052838352929592949161143181610167565b5190205f8051602061347d83398151915218549161144d6128d2565b905f5b82518110156114db5761146961119861118a83866107d4565b6001808260581c1614611480575b50600101611450565b60601c90813b156100d85788516315c19b2760e21b8152915f9083908183816114ae8c8c8f60048501611f45565b03925af1918215610774576001926114c8575b5090611477565b8061076e6114d59261014f565b5f6114c1565b50945f805160206134bd8339815191528751806114f9868983611e77565b0390a26115146115088561271d565b8351602085019161297d565b60ff808460e01c16806115ba575b50505f5b81518110156115b15761153f61119861118a83856107d4565b6002808260581c1614611556575b50600101611526565b60601c90813b156100d8578751635b28cdaf60e01b8152915f9083908183816115848b8b8e60048501611f45565b03925af19182156107745760019261159e575b509061154d565b8061076e6115ab9261014f565b5f611597565b50505050509050565b5f6115c4876129fd565b555f60805b82848316106115d9575050611522565b6001816115f086936115eb868d612a4f565b6129c6565b920116906115c9565b611601610799565b805115610779576001600160401b03909116602082015261162190610f4b565b60f81c610ba7816105e0565b611635610799565b805115610779576001600160401b039091166020820152610ba790612006565b9061165e610799565b918251156107795760208301526040519060208201526020815261168181610182565b6001600160a01b03611691610e59565b16913083036116a4576106d49250611de8565b90823b156100d8576040516301c85d5760e51b815266526e674c6f677360481b631bdd155160e21b01600482015260a06024820152925f92849283918591839161171091906116f79060a4850190610baa565b6002604485015283810360031901606485015290610c1a565b660248200840090160c51b608483015203925af18015610774576107615750565b9160609260608101928152602091602082015260206080604092606060408201528751809652019501935f915b84831061176e5750505050505090565b855180518852808501518886015281015187820152958101959483019460019092019161175e565b6117bd9061038761075e94604051948593632d026b9760e01b602086015260248501611731565b61209d565b6117ca610799565b80511561077957611621916020820152610fd4565b6117bd9061038761075e94604051948593637db9189760e11b602086015260248501611731565b6117bd9061038761075e946040519485936357d928fd60e11b602086015260248501611731565b51906106d482610131565b519060048210156100d857565b5190600a8210156100d857565b90816101a09103126100d8576118666101fb565b9080518252602081015160208301526118816040820161182d565b6040830152606081015160608301526080810151608083015260a081015160a083015260c081015160c083015260e081015160e08301526101006118c6818301611838565b908301526101206118d8818301611838565b908301526101406118ea818301611838565b908301526101606118fc818301611845565b9083015261190e610180809201610e32565b9082015290565b906105f8826105e0565b611927610799565b805115610779578083602061193d930152611070565b60f81c611949816105e0565b60405191634777161b60e11b83526004830152611965816105e0565b60248201526101a091828260448173__$adf94ce26827ee9b3226667380e63e262b$__5af4918215610774576106d4935f936119a3575b505061214d565b6119c3929350803d106119cb575b6119bb81836101b9565b810190611852565b905f8061199c565b503d6119b1565b600411156105ea57565b906105f8826119d2565b600a11156105ea57565b90600a8210156105ea5752565b6101a06106d49294936101c083019583528051602084015260208101516040840152611a3160408201516060850190611915565b60608101516080840152608081015160a084015260a081015160c084015260c081015160e084015260e08101516101009081850152810151611a7961012091828601906119dc565b810151611a8c61014091828601906119dc565b810151611a9f61016091828601906119dc565b81015190611ab361018092838601906119f0565b01511515910152565b9190915f838201938412911290801582169115161761063357565b611ae082612261565b918260405192631b3e948360e31b84528380611b046101a0978894600484016119fd565b038173__$adf94ce26827ee9b3226667380e63e262b$__5af4928315610774576106d4945f94611b8f575b5050611b4b610120611b55920151611b46816119d2565b6123a7565b9390928651611abc565b8552611b6660208601918251611abc565b9052611b7760608501918251611abc565b9052611b8860808401918251611abc565b905261214d565b611b55929450611bb2611b4b928261012093903d106119cb576119bb81836101b9565b949250611b2f565b604051611bcf81610387602082019485612466565b5190205f8051602061347d833981519152185f905f5b60028110611c38575081816020821015611c22575b505080548260031b1b916020039081600111611c1557505090565b600101549060031b1c1790565b90809350601f925060051c019116905f80611bfa565b9160ff6fe60d002020012020202020010101010160781b84601b0360031b1c1681018091116106335791600101611be5565b9190611c7583612732565b91611c7e612926565b905f5b8251811015611d0a57611c9a61119861118a83866107d4565b9060049182808260581c1614611cb6575b506001915001611c81565b60601c803b156100d857855f918983611ce4966040519788958694859363964f667d60e01b855284016127c1565b03925af19182156107745760019215611cab578061076e611d049261014f565b5f611cab565b5060408051919490939291611d5491849167436f756e7465727360401b631d18955160e21b01905f8051602061345d8339815191529080611d4c868d83612796565b0390a2612e72565b5f5b8151811015611de057611d6f61119861118a83856107d4565b6008808260581c1614611d86575b50600101611d56565b60601c90813b156100d857845163a8ba872160e01b8152915f908390818381611db38a8e600484016127c1565b03925af191821561077457600192611dcd575b5090611d7d565b8061076e611dda9261014f565b5f611dc6565b505050509050565b5f805b60028110611e4e57505f8051602061345d833981519152916113e2611e259265ffffffffffff604051948594606086526060860190610baa565b91166020840152828103604084015266526e674c6f677360481b631bdd155160e21b0195610c1a565b9060ff660248200840090160c51b83601b0360031b1c1681018091116106335790600101611deb565b90610ba792611e91611e9f92608085526080850190610baa565b908382036020850152610c1a565b905f60408201526060818303910152610bdd565b90610ba79492611e91611ece92608085526080850190610baa565b9260408201526060818403910152610c1a565b959493611f2d611f4093611f1f60a096946f52616e646f6d4e756d62657273000000631d18955160e21b018b5260c060208c015260c08b0190610baa565b9089820360408b0152610c1a565b9160608801528682036080880152610c1a565b930152565b64537461747360581b631d18955160e21b01815260c0602082018190529094939260a092611f4092611f8c9291611f7e91890190610baa565b908782036040890152610c1a565b5f60608701528581036080870152610bdd565b81601f820112156100d8578051611fb58161021b565b92611fc360405194856101b9565b818452602082840101116100d857610ba79160208085019101610b5d565b906020828203126100d85781516001600160401b0381116100d857610ba79201611f9f565b6001600160a01b03612016610e59565b163081036120285750610ba790612a74565b604051631e78897760e01b81525f805160206134fd833981519152600482015260606024820152915f91839182908190612066906064830190610baa565b85604483015203915afa908115610774575f91612081575090565b610ba791503d805f833e61209581836101b9565b810190611fe1565b80516020820180516001600160e01b03199493928591828116916004811061212b575b505090506120cc610799565b80511561077957856120e392166020820152612cfb565b5050906040602083015192015182156121105781516001600160e01b0316179052919250610ba791612ae5565b604051637eef2a7160e11b81525f3587166004820152602490fd5b8391925060040360031b1b161684905f806120c0565b60ff16610ba7816105e0565b6121d86106d4926121cb8151916020810151604082015161216d816105e0565b6060830151608084015160a085015160c08601519160e08701519361010088015195612198876119d2565b610120890151976121a8896119d2565b6121d26101806101408c01519b6121be8d6119d2565b6101608101519d8e6119e6565b0151151590565b9b612c1b565b906121e1610799565b906121eb826107c7565b52610ccd565b604051906101a082016001600160401b03811183821017610162576040525f610180838281528260208201528260408201528260608201528260808201528260a08201528260c08201528260e0820152826101008201528261012082015282610140820152826101608201520152565b6122696121f1565b50612272610799565b80511561077957612287916020820152612dc5565b50506122916121f1565b9060208101519061239d6040820151916122b76122b2606083015160f81c90565b612141565b9060618101519060818101519060a18101519060c18101519061237b8a61237160e1840151936101206122f76122f261010184015160f81c90565b6130f9565b9361236b61230d6122f261010286015160f81c90565b936123616123236122f261010384015160f81c90565b9161235761234d61010561234461233f61010486015160f81c90565b613105565b93015160f81c90565b1515610180870152565b6101608501612e5d565b6101408301612e69565b01612e69565b6101008c01612e69565b60e08a015260c089015260a088015260808701526060860152604085016105ef565b6020830152815290565b5f905f905f905f906123b8816119d2565b600381036123d25750505050506002905f19905f90600190565b6123db816119d2565b600281036123f55750505050505f19906002906001908390565b806124076001929793949596976119d2565b036106d457600194508493508392505f9150565b6953746f7265486f6f6b7360301b66746273746f726560c81b01815281516020918201928201915f5b828110612452575050505090565b835185529381019392810192600101612444565b64537461747360581b631d18955160e21b01815281516020918201928201915f5b828110612495575050505090565b835185529381019392810192600101612487565b5f805160206134fd833981519152815281516020918201928201915f5b8281106124d4575050505090565b8351855293810193928101926001016124c6565b6653797374656d7360481b661d189ddbdc9b1960ca1b01815281516020918201928201915f5b82811061251c575050505090565b83518552938101939281019260010161250e565b5f805160206134fd833981519152815281516020918201928201915f5b82811061255b575050505090565b83518552938101939281019260010161254d565b6f46756e6374696f6e53656c6563746f72661d189ddbdc9b1960ca1b01815281516020918201928201915f5b8281106125a9575050505090565b83518552938101939281019260010161259b565b604051602081602081019367436f756e7465727360401b631d18955160e21b0185526040820160208251919201935f5b82811061261f5750505061260a925003601f1981018352826101b9565b5190205f8051602061347d8339815191521890565b8551845294810194869450928101926001016125ed565b60405160208160208101936f52616e646f6d4e756d62657273000000631d18955160e21b0185526040820160208251919201935f5b8281106126885750505061260a925003601f1981018352826101b9565b85518452948101948694509281019260010161266b565b60405160208160208101936f436f6d626174456e636f756e74657200631d18955160e21b0185526040820160208251919201935f5b8281106126f15750505061260a925003601f1981018352826101b9565b8551845294810194869450928101926001016126d4565b60405161260a81610387602082019485612530565b60405161260a81610387602082019485612466565b604051602081602081019367436f756e7465727360401b631d18955160e21b0185526040820160208251919201935f5b82811061277f5750505061260a925003601f1981018352826101b9565b855184529481019486945092810192600101612762565b90916127ad610ba793606084526060840190610baa565b915f60208201526040818403910152610c1a565b67436f756e7465727360401b631d18955160e21b018152608060208201819052610ba79391926127f391840190610baa565b915f60408201526060818403910152610c1a565b61280f610799565b805115610779576128bb610ba7916f52616e646f6d4e756d62657273000000631d18955160e21b01602082015264ffffffffff604051915f805160206134dd8339815191526020840184612863848361241b565b0394612877601f19968781018352826101b9565b519020189261289e604051918261289260208201958661241b565b039081018352826101b9565b5190205f8051602061351d833981519152185460381c1690612efb565b602060018060801b03825116910160801b17612ea9565b6128da610799565b805115610779576128bb610ba79164537461747360581b631d18955160e21b01602082015264ffffffffff604051915f805160206134dd8339815191526020840184612863848361241b565b61292e610799565b805115610779576128bb610ba79167436f756e7465727360401b631d18955160e21b01602082015264ffffffffff604051915f805160206134dd8339815191526020840184612863848361241b565b9291925b6020908183106129a15784518155930192601f1990910190600101612981565b9293919050806129b057505050565b5f199060031b1c90818354169119905116179055565b9091905f906020906129a1565b6040516129e881610387602082019485612530565b5190205f8051602061351d8339815191521890565b6040516129e881610387602082019485612466565b905f805160206134dd83398151915291604051612a3781610387602082019485612530565b51902060f89190911b6001600160f81b031916181890565b905f805160206134dd83398151915291604051612a3781610387602082019485612466565b610ba79064ffffffffff604051915f805160206134dd8339815191526020840184612a9f84836124a9565b0394612ab3601f19968781018352826101b9565b519020189261289e60405191826128926020820195866124a9565b604090610ba7939281528160208201520190610c1a565b906001600160a01b03612af6610e59565b16803014612b3757905f91612b22938360405180968195829463075cf5e160e31b845260048401612ace565b03925af1908115610774575f91612081575090565b50612b406105fb565b91612b49610799565b8051156107795780826020612b5f930152612f6b565b5050906034602083015160601c92015160f81c8215612bd05715612bc1575b60101b6001600160901b031916612ba757612b98926132c7565b905b15612ba25790565b612f63565b90612bb591612bbb936132a2565b90151591565b90612b9a565b612bcb84826131f3565b612b7e565b50612bda81613136565b604051637df8867360e11b8152918291612bf79160048401612ace565b0390fd5b612c04816119d2565b60f81b9052565b600a8110156105ea5760f81b9052565b9b9a999897969594939291906040519c60208e015260408d0152612c3e816105e0565b60f81b60608c015260618b015260818a015260a189015260c188015260e1870152612c68816119d2565b60f81b6101018601526101028501612c7f91612bfb565b6101038401612c8d91612bfb565b6101048301612c9b91612c0b565b151560f81b61010582015260e68152610ba78161019d565b90916060828403126100d85781516001600160401b0392908381116100d85784612cde918301611f9f565b9360208201519360408301519081116100d857610ba79201611f9f565b6001600160a01b03612d0b610e59565b16308103612d245750612d1d90613012565b9192909190565b60405163419b58fd60e01b81526f46756e6374696f6e53656c6563746f72661d189ddbdc9b1960ca1b0160048201526060602482015292915f91849182908190612d72906064830190610baa565b64090080080160d21b604483015203915afa908115610774575f80935f93612d9b575b50929190565b91935050612dbb91503d805f833e612db381836101b9565b810190612cb3565b929092915f612d95565b6001600160a01b03612dd5610e59565b16308103612de75750612d1d9061309c565b60405163419b58fd60e01b815264537461747360581b631d18955160e21b0160048201526060602482015292915f91849182908190612e2a906064830190610baa565b6fe60d002020012020202020010101010160781b604483015203915afa908115610774575f80935f93612d9b5750929190565b600a8210156105ea5752565b6105f8826119d2565b81519060208093019190925b80821015612e915750806129b057505050565b6001839482939451815501930191601f190190612e7e565b8060801c906015809160018060801b031604604051926020906020850160208460051b8701016040528386525f5b848110612ee75750505050505090565b825182529185019190830190600101612ed7565b60408051601f19603f85830101811690925283815292602080850193925b81831015612f4b57505080612f2f575b50505090565b5f199060031b1c908183511691199054161790525f8080612f29565b81600185839495979654875201940194019190612f19565b602081519101fd5b5f906060906040519060209082612f866020820192836124e8565b0392612f9a601f19948581018352826101b9565b5190205f8051602061347d833981519152189160405192816054850116604052601584526020840192601591925b81831015612ffa57505080612fde575b50505092565b5f199060031b1c908183511691199054161790525f8080612fd8565b81600185839495979654875201940194019190612fc8565b5f90606090604051906020908261302d60208201928361256f565b0392613041601f19948581018352826101b9565b5190205f8051602061347d833981519152189160405192816063850116604052602484526020840192602491925b8183101561308457505080612fde5750505092565b8160018583949597965487520194019401919061306f565b5f906130a960609161271d565b60405190602090601f19908161012585011660405260e68452602084019260e691925b818310156130e157505080612fde5750505092565b816001858394959796548752019401940191906130cc565b60ff16610ba7816119d2565b60ff16600a8110156105ea5790565b6040519061312182610182565b60068252651e3937b7ba1f60d11b6020830152565b608081901b6001600160801b03191690610ba790602490601081901b6001600160901b031916806131e4575061316a613114565b935b806131d6575061317a613114565b60405194859261ffff60f01b166020840152601d60f91b908160228501526131ac815180926020602388019101610b5d565b83019060238201526131c78251809360208785019101610b5d565b010360048101845201826101b9565b6131df906132e7565b61317a565b6131ed906132e7565b9361316c565b61321082600160801b600160f01b038316616e7360f01b1761338d565b8015613263575b15613220575050565b9061322d61324f92613136565b9060405192839263d787b73760e01b8452604060048501526044840190610c1a565b6001600160a01b0390911660248301520390fd5b5061326e828261338d565b613217565b3d1561329d573d906132848261021b565b9161329260405193846101b9565b82523d5f602084013e565b606090565b906132b05f93928493613345565b9082602083519301915af16132c3613273565b9091565b906132d55f93928493613345565b90602082519201905af46132c3613273565b5f5b60108110613318575b6040516001600160801b031990921660208301526010825261331382610182565b815290565b6001600160801b03198216600382901b1b6001600160f81b03191615613340576001016132e9565b6132f2565b6054610ba7916040519381613364869351809260208087019101610b5d565b82019060018060601b03199060601b1660208201525f60348201520360348101845201826101b9565b61339561077e565b90815115610779576020926020830191825282519060019160011015610779576001600160a01b031660408085019190915280516f5265736f757263654163636573730000661d189ddbdc9b1960ca1b0160208201908152945194959094918501939291905f5b828110613449575050505050918161342361344393610ba79503601f1981018352826101b9565b5190205f8051602061347d83398151915218546001600160f81b03191690565b60f81c90565b84518652948101949381019383016133fc56fe8c0b5119d4cec7b284c6b1b39252a03d1e2f2d7451a5895562524c113bb952be86425bff6b57326c7859e89024fe4f238ca327a1ae4a230180dd2f0e88aaa7d90573eb8f985ff408d9ca6b6c68ad27569ab0f45f90c03ef0bd86aaea7d8f360e8dbb3a9672eebfd3773e72dd9c102393436816d832c7ba9e1e1ac8fcadcac7a93b4102da22e32d82fc925482184f16c09fd4281692720b87d124aef6da48a0f17462554400000000000000000000000052616e646f6d4e756d6265727300000014e2fcc58e58e68ec7edc30c8d50dccc3ce2714a623ec81f46b6a63922d76569","linkReferences":{"src/libraries/StatCalculator.sol":{"StatCalculator":[{"start":6544,"length":20},{"start":6947,"length":20}]}}},"methodIdentifiers":{"_msgSender()":"119df25f","_msgValue()":"45ec9354","_world()":"e1af802c","getRng(bytes32,uint8,bytes)":"b2aa60a4","onERC1155BatchReceived(address,address,uint256[],uint256[],bytes)":"bc197c81","onERC1155Received(address,address,uint256,uint256,bytes)":"f23a6e61","supportsInterface(bytes4)":"01ffc9a7"},"id":521}