{"abi":[{"type":"function","name":"_msgSender","inputs":[],"outputs":[{"name":"sender","type":"address","internalType":"address"}],"stateMutability":"view"},{"type":"function","name":"_msgValue","inputs":[],"outputs":[{"name":"value","type":"uint256","internalType":"uint256"}],"stateMutability":"view"},{"type":"function","name":"_world","inputs":[],"outputs":[{"name":"","type":"address","internalType":"address"}],"stateMutability":"view"},{"type":"function","name":"getRng","inputs":[{"name":"userRandomNumber","type":"bytes32","internalType":"bytes32"},{"name":"requestType","type":"uint8","internalType":"enum RngRequestType"},{"name":"data","type":"bytes","internalType":"bytes"}],"outputs":[{"name":"sequenceNumber","type":"uint64","internalType":"uint64"}],"stateMutability":"payable"},{"type":"function","name":"onERC1155BatchReceived","inputs":[{"name":"","type":"address","internalType":"address"},{"name":"","type":"address","internalType":"address"},{"name":"","type":"uint256[]","internalType":"uint256[]"},{"name":"","type":"uint256[]","internalType":"uint256[]"},{"name":"","type":"bytes","internalType":"bytes"}],"outputs":[{"name":"","type":"bytes4","internalType":"bytes4"}],"stateMutability":"nonpayable"},{"type":"function","name":"onERC1155Received","inputs":[{"name":"","type":"address","internalType":"address"},{"name":"","type":"address","internalType":"address"},{"name":"","type":"uint256","internalType":"uint256"},{"name":"","type":"uint256","internalType":"uint256"},{"name":"","type":"bytes","internalType":"bytes"}],"outputs":[{"name":"","type":"bytes4","internalType":"bytes4"}],"stateMutability":"nonpayable"},{"type":"function","name":"supportsInterface","inputs":[{"name":"interfaceId","type":"bytes4","internalType":"bytes4"}],"outputs":[{"name":"","type":"bool","internalType":"bool"}],"stateMutability":"pure"},{"type":"event","name":"RNGFulfilled","inputs":[{"name":"randomNumber","type":"bytes32","indexed":false,"internalType":"bytes32"}],"anonymous":false},{"type":"event","name":"Store_SetRecord","inputs":[{"name":"tableId","type":"bytes32","indexed":true,"internalType":"ResourceId"},{"name":"keyTuple","type":"bytes32[]","indexed":false,"internalType":"bytes32[]"},{"name":"staticData","type":"bytes","indexed":false,"internalType":"bytes"},{"name":"encodedLengths","type":"bytes32","indexed":false,"internalType":"EncodedLengths"},{"name":"dynamicData","type":"bytes","indexed":false,"internalType":"bytes"}],"anonymous":false},{"type":"event","name":"Store_SpliceStaticData","inputs":[{"name":"tableId","type":"bytes32","indexed":true,"internalType":"ResourceId"},{"name":"keyTuple","type":"bytes32[]","indexed":false,"internalType":"bytes32[]"},{"name":"start","type":"uint48","indexed":false,"internalType":"uint48"},{"name":"data","type":"bytes","indexed":false,"internalType":"bytes"}],"anonymous":false},{"type":"error","name":"Slice_OutOfBounds","inputs":[{"name":"data","type":"bytes","internalType":"bytes"},{"name":"start","type":"uint256","internalType":"uint256"},{"name":"end","type":"uint256","internalType":"uint256"}]},{"type":"error","name":"World_AccessDenied","inputs":[{"name":"resource","type":"string","internalType":"string"},{"name":"caller","type":"address","internalType":"address"}]},{"type":"error","name":"World_FunctionSelectorNotFound","inputs":[{"name":"functionSelector","type":"bytes4","internalType":"bytes4"}]},{"type":"error","name":"World_ResourceNotFound","inputs":[{"name":"resourceId","type":"bytes32","internalType":"ResourceId"},{"name":"resourceIdString","type":"string","internalType":"string"}]}],"bytecode":{"object":"0x6080806040523461001657613632908161001b8239f35b5f80fdfe60806040526004361015610011575f80fd5b5f3560e01c806301ffc9a714610084578063119df25f1461007f57806345ec93541461007a578063b2aa60a414610075578063bc197c8114610070578063e1af802c1461006b5763f23a6e6114610066575f80fd5b61054e565b610534565b6104ac565b61027c565b610112565b6100e6565b346100d85760203660031901126100d85760043563ffffffff60e01b81168091036100d85763b5dee12760e01b81149081156100c7575b50151560805260206080f35b6301ffc9a760e01b149050816100bb565b5f80fd5b5f9103126100d857565b346100d8575f3660031901126100d85760206101006105fb565b6040516001600160a01b039091168152f35b346100d8575f3660031901126100d8576020604051601f193601358152f35b600311156100d857565b634e487b7160e01b5f52604160045260245ffd5b6001600160401b03811161016257604052565b61013b565b606081019081106001600160401b0382111761016257604052565b604081019081106001600160401b0382111761016257604052565b61012081019081106001600160401b0382111761016257604052565b601f909101601f19168101906001600160401b0382119082101761016257604052565b6040519060a082016001600160401b0381118382101761016257604052565b604051906101a082016001600160401b0381118382101761016257604052565b6001600160401b03811161016257601f01601f191660200190565b81601f820112156100d85780359061024d8261021b565b9261025b60405194856101b9565b828452602083830101116100d857815f926020809301838601378301015290565b60603660031901126100d85760043560243561029781610131565b604435916001600160401b038084116100d8576103a06103a6926103306102c56103c0973690600401610236565b956102ce6105a3565b948760208701526102df82876105ef565b6102f66102ea610638565b6001600160401b031690565b976103186103026101dc565b6001600160401b038b16815293602085016105ef565b5f6040840152846060840152608083015287166107e8565b46617a69036103c4576103876103956103476105fb565b6040805142602082019081526001600160401b038b169282019290925260608101959095526001600160a01b0390911660808501529291829060a0820190565b03601f1981018352826101b9565b519020915b8461088b565b826109a2565b6040516001600160401b0390911681529081906020820190565b0390f35b6103876104006103d26105fb565b604080514460208201908152918101959095526001600160a01b039091166060850152929182906080820190565b5190209161039a565b600435906001600160a01b03821682036100d857565b602435906001600160a01b03821682036100d857565b6001600160401b0381116101625760051b60200190565b9080601f830112156100d857602090823561046681610435565b9361047460405195866101b9565b81855260208086019260051b8201019283116100d857602001905b82821061049d575050505090565b8135815290830190830161048f565b346100d85760a03660031901126100d8576104c5610409565b506104ce61041f565b506001600160401b036044358181116100d8576104ef90369060040161044c565b506064358181116100d85761050890369060040161044c565b506084359081116100d857610521903690600401610236565b5060405163bc197c8160e01b8152602090f35b346100d8575f3660031901126100d8576020610100610ef7565b346100d85760a03660031901126100d857610567610409565b5061057061041f565b506084356001600160401b0381116100d857610590903690600401610236565b5060405163f23a6e6160e01b8152602090f35b60408051919082016001600160401b038111838210176101625760405260606020835f81520152565b634e487b7160e01b5f52602160045260245ffd5b600311156105ea57565b6105cc565b6105f8826105e0565b52565b36603319013560601c90811561060d57565b339150565b634e487b7160e01b5f52601160045260245ffd5b9190820180921161063357565b610612565b61064061077e565b80511561077957306020820152805160011015610779578060016040610667930152610f2c565b9060018201809211610633578161067c61077e565b90815115610779573060208301528151600110156107795760016040830152604051906020820152602081526106b181610182565b6001600160a01b036106c1610ef7565b16913083036106d6576106d49250611d08565b565b90823b156100d8576040516301c85d5760e51b815267436f756e7465727360401b631d18955160e21b01600482015260a06024820152925f928492839185918391610742919061072a9060a4850190610c07565b90846044850152600319848303016064850152610c77565b630100080160dd1b608483015203925af1801561077457610761575b50565b8061076e6106d49261014f565b806100dc565b610c9c565b6107b3565b6040519061078b82610167565b600282526040366020840137565b604051906107a682610182565b6001825260203681840137565b634e487b7160e01b5f52603260045260245ffd5b8051156107795760200190565b80518210156107795760209160051b010190565b81519060208301516107f9816105e0565b6040848101516060860151915160c09590951b6001600160c01b03191660208601529091610826816105e0565b60f81b602885015260298401526049808401919091528252608082016001600160401b03811183821017610162576106d49360809160405201519161086c835193610bdb565b92610875610799565b9261087f846107c7565b528060381b1791610ca7565b6020825192610899846105e0565b604051936108a6816105e0565b60f81b82850152600184526108ba84610182565b01516108cc81518060381b1791610bdb565b916108d5610799565b90815115610779576001600160401b031660208201526001600160a01b036108fb610ef7565b1630810361090e5750926106d4936111a8565b909192813b156100d8575f61097d93610991829661096a94604051998a988997889663298314fb60e01b88526f52616e646f6d4e756d62657273000000631d18955160e21b01600489015260a0602489015260a4880190610c07565b6003199283888303016044890152610c77565b926064860152848303016084850152610c77565b03925af18015610774576107615750565b6109ab81611697565b6109c7836109b8846116cb565b936001600160401b03166116f3565b6109d0816105e0565b60018103610a5a57505f805160206135928339815191529181610a2b9251602081115f14610a3f575080602080610a0c93518301019101610edd565b15610a3057610a1b9082611b75565b6040519081529081906020820190565b0390a1565b610a3a90826119bd565b610a1b565b81602080610a5493610a3a9501019101610ec1565b826119bd565b610a63816105e0565b60028103610b39575080602080610a7f93518301019101610dcc565b90610a8c82511515610e80565b610a9581611860565b610a9e816105e0565b60018103610ac4575091610a3a610a2b925f8051602061359283398151915294836118a4565b610ad0819492946105e0565b610af057610a3a610a2b925f80516020613592833981519152948361187d565b60405162461bcd60e51b815260206004820152601d60248201527f524e473a20556e7265636f676e697a656420436f6d62617420547970650000006044820152606490fd5b0390fd5b610b42816105e0565b610b75575f8051602061359283398151915291610a3a610b6e83602080610a2b96518301019101610dcc565b9083611834565b60405162461bcd60e51b815260206004820152601e60248201527f524e473a20556e7265636f676e697a65642072657175657374207479706500006044820152606490fd5b5f5b838110610bcb5750505f910152565b8181015183820152602001610bbc565b610c04602060405183610bf78295518092858086019101610bba565b81010380845201826101b9565b90565b9081518082526020808093019301915f5b828110610c26575050505090565b835185529381019392810192600101610c18565b90606051918281525f5b838110610c635750825f602080949584010152601f8019910116010190565b806020916080015182828501015201610c44565b90602091610c9081518092818552858086019101610bba565b601f01601f1916010190565b6040513d5f823e3d90fd5b909291906001600160a01b03610cbb610ef7565b16308103610cce5750926106d49361141a565b909192813b156100d85760405163298314fb60e01b815266526e674c6f677360481b631bdd155160e21b01600482015260a06024820152945f948694859387938593610991939092919061097d9061096a9060a4880190610c07565b6001600160a01b03610d3a610ef7565b16308103610d4d5750906106d491611485565b90813b156100d85760405163298314fb60e01b815264537461747360581b631d18955160e21b01600482015260a06024820152925f92849290918391859183916109919190610db790610da49060a4860190610c07565b6003199283868303016044870152610c77565b90846064850152838203016084840152610c3a565b91906040906040848203126100d857835160208086015191959091906001600160401b0382116100d857019082601f830112156100d857815192610e0f84610435565b94610e1d60405196876101b9565b84865282860191836060809702860101948186116100d8578401925b858410610e4a575050505050505090565b86848303126100d8578487918451610e6181610167565b8651815282870151838201528587015186820152815201930192610e39565b15610e8757565b60405162461bcd60e51b8152602060048201526012602482015271524e473a20496e76616c6964206d6f76657360701b6044820152606490fd5b908160209103126100d8575190565b519081151582036100d857565b91908260409103126100d857610c04602083519301610ed0565b7f629a4c26e296b22a8e0856e9f6ecb2d1008d7e00081111962cd175fa7488e175546001600160a01b031680610c0457503390565b6001600160a01b03610f3c610ef7565b16308103610f525750610f4e9061269e565b5490565b604051638c364d5960e01b815267436f756e7465727360401b631d18955160e21b0160048201526080602482015291602091839182908190610f98906084830190610c07565b5f6044830152630100080160dd1b606483015203915afa908115610774575f91610fc0575090565b610c04915060203d602011610fe2575b610fda81836101b9565b810190610ec1565b503d610fd0565b6001600160a01b03610ff9610ef7565b1630810361100b5750610f4e90612717565b604051638c364d5960e01b81525f805160206135f28339815191526004820152608060248201529160209183918290819061104a906084830190610c07565b5f6044830152630101010160d81b606483015203915afa908115610774575f91610fc0575090565b6001600160a01b03611082610ef7565b163081036110945750610f4e90612780565b604051638c364d5960e01b81526f436f6d626174456e636f756e74657200631d18955160e21b01600482015260806024820152916020918391829081906110df906084830190610c07565b5f60448301526aa30802012020012020200160a01b606483015203915afa908115610774575f91610fc0575090565b6001600160a01b0361111e610ef7565b163081036111305750610c0490611c58565b604051638c364d5960e01b815264537461747360581b631d18955160e21b0160048201526080602482015291602091839182908190611173906084830190610c07565b600260448301526fe60d002020012020202020010101010160781b606483015203915afa908115610774575f91610fc0575090565b60408051655461626c657360501b66746273746f726560c81b01602082019081525f805160206135f2833981519152828401819052838352969792959492916111f081610167565b5190205f8051602061357283398151915218549061120c6128e8565b905f5b82518110156112ba5761124361123661122883866107d4565b516001600160581b03191690565b6001600160581b03191690565b6001808260581c161461125a575b5060010161120f565b60601c90813b156100d8575f888c9388838b61128d8f8c9051998a97889687956315c19b2760e21b875260048701611f7f565b03925af1918215610774576001926112a7575b5090611251565b8061076e6112b49261014f565b5f6112a0565b50965f805160206135b28339815191528751806112da8c8a898b85611f51565b0390a26112f56112e9856127e9565b84516020860191612aa9565b60ff808360e01c16806113a1575b50505f5b81518110156113965761132061123661122883856107d4565b6002808260581c1614611337575b50600101611307565b60601c90813b156100d8575f878b9387838a6113698a8f51998a9788968795635b28cdaf60e01b875260048701611f7f565b03925af191821561077457600192611383575b509061132e565b8061076e6113909261014f565b5f61137c565b505050505050509050565b96909892959493856113b5869a949a612acc565b555f96602085015b8b8916908a821015611407576113fe8d92826113f960019464ffffffffff8f8f908f906113e991612b0b565b956028026038011c168094612aa9565b610626565b990116976113bd565b5050939950939495509550955f80611303565b60408051655461626c657360501b66746273746f726560c81b01602082015266526e674c6f677360481b631bdd155160e21b0181830181905291815290945f805160206135b2833981519152946114809261147490610167565b60405194859485611f51565b0390a2565b60408051655461626c657360501b66746273746f726560c81b016020820190815264537461747360581b631d18955160e21b0182840181905283835292959294916114cf81610167565b5190205f805160206135728339815191521854916114eb6129b3565b905f5b82518110156115795761150761123661122883866107d4565b6001808260581c161461151e575b506001016114ee565b60601c90813b156100d85788516315c19b2760e21b8152915f90839081838161154c8c8c8f60048501611fe3565b03925af191821561077457600192611566575b5090611515565b8061076e6115739261014f565b5f61155f565b50945f805160206135b2833981519152875180611597868983611f15565b0390a26115b26115a6856127fe565b83516020850191612aa9565b60ff808460e01c1680611658575b50505f5b815181101561164f576115dd61123661122883856107d4565b6002808260581c16146115f4575b506001016115c4565b60601c90813b156100d8578751635b28cdaf60e01b8152915f9083908183816116228b8b8e60048501611fe3565b03925af19182156107745760019261163c575b50906115eb565b8061076e6116499261014f565b5f611635565b50505050509050565b5f61166287612af6565b555f60805b82848316106116775750506115c0565b60018161168e8693611689868d612b48565b612a5e565b92011690611667565b61169f610799565b805115610779576001600160401b0390911660208201526116bf90610fe9565b60f81c610c04816105e0565b6116d3610799565b805115610779576001600160401b039091166020820152610c04906120a4565b906116fc610799565b918251156107795760208301526040519060208201526020815261171f81610182565b6001600160a01b0361172f610ef7565b1691308303611742576106d49250611e86565b90823b156100d8576040516301c85d5760e51b815266526e674c6f677360481b631bdd155160e21b01600482015260a06024820152925f9284928391859183916117ae91906117959060a4850190610c07565b6002604485015283810360031901606485015290610c77565b660248200840090160c51b608483015203925af18015610774576107615750565b9160609260608101928152602091602082015260206080604092606060408201528751809652019501935f915b84831061180c5750505050505090565b85518051885280850151888601528101518782015295810195948301946001909201916117fc565b61185b9061038761075e94604051948593632d026b9760e01b6020860152602485016117cf565b61213b565b611868610799565b805115610779576116bf916020820152611072565b61185b9061038761075e94604051948593637db9189760e11b6020860152602485016117cf565b61185b9061038761075e946040519485936357d928fd60e11b6020860152602485016117cf565b51906106d482610131565b519060048210156100d857565b5190600a8210156100d857565b90816101a09103126100d8576119046101fb565b90805182526020810151602083015261191f604082016118cb565b6040830152606081015160608301526080810151608083015260a081015160a083015260c081015160c083015260e081015160e08301526101006119648183016118d6565b908301526101206119768183016118d6565b908301526101406119888183016118d6565b9083015261016061199a8183016118e3565b908301526119ac610180809201610ed0565b9082015290565b906105f8826105e0565b6119c5610799565b80511561077957808360206119db93015261110e565b60f81c6119e7816105e0565b60405191634777161b60e11b83526004830152611a03816105e0565b60248201526101a091828260448173__$adf94ce26827ee9b3226667380e63e262b$__5af4918215610774576106d4935f93611a41575b50506121eb565b611a61929350803d10611a69575b611a5981836101b9565b8101906118f0565b905f80611a3a565b503d611a4f565b600411156105ea57565b906105f882611a70565b600a11156105ea57565b90600a8210156105ea5752565b6101a06106d49294936101c083019583528051602084015260208101516040840152611acf604082015160608501906119b3565b60608101516080840152608081015160a084015260a081015160c084015260c081015160e084015260e08101516101009081850152810151611b176101209182860190611a7a565b810151611b2a6101409182860190611a7a565b810151611b3d6101609182860190611a7a565b81015190611b516101809283860190611a8e565b01511515910152565b9190915f838201938412911290801582169115161761063357565b611b7e826122ff565b918260405192631b3e948360e31b84528380611ba26101a097889460048401611a9b565b038173__$adf94ce26827ee9b3226667380e63e262b$__5af4928315610774576106d4945f94611c2d575b5050611be9610120611bf3920151611be481611a70565b612445565b9390928651611b5a565b8552611c0460208601918251611b5a565b9052611c1560608501918251611b5a565b9052611c2660808401918251611b5a565b90526121eb565b611bf3929450611c50611be9928261012093903d10611a6957611a5981836101b9565b949250611bcd565b604051611c6d81610387602082019485612504565b5190205f80516020613572833981519152185f905f5b60028110611cd6575081816020821015611cc0575b505080548260031b1b916020039081600111611cb357505090565b600101549060031b1c1790565b90809350601f925060051c019116905f80611c98565b9160ff6fe60d002020012020202020010101010160781b84601b0360031b1c1681018091116106335791600101611c83565b9190611d1383612813565b91611d1c612a07565b905f5b8251811015611da857611d3861123661122883866107d4565b9060049182808260581c1614611d54575b506001915001611d1f565b60601c803b156100d857855f918983611d82966040519788958694859363964f667d60e01b855284016128a2565b03925af19182156107745760019215611d49578061076e611da29261014f565b5f611d49565b5060408051919490939291611df291849167436f756e7465727360401b631d18955160e21b01905f805160206135528339815191529080611dea868d83612877565b0390a2612f67565b5f5b8151811015611e7e57611e0d61123661122883856107d4565b6008808260581c1614611e24575b50600101611df4565b60601c90813b156100d857845163a8ba872160e01b8152915f908390818381611e518a8e600484016128a2565b03925af191821561077457600192611e6b575b5090611e1b565b8061076e611e789261014f565b5f611e64565b505050509050565b5f805b60028110611eec57505f8051602061355283398151915291611480611ec39265ffffffffffff604051948594606086526060860190610c07565b91166020840152828103604084015266526e674c6f677360481b631bdd155160e21b0195610c77565b9060ff660248200840090160c51b83601b0360031b1c1681018091116106335790600101611e89565b90610c0492611f2f611f3d92608085526080850190610c07565b908382036020850152610c77565b905f60408201526060818303910152610c3a565b90610c049492611f2f611f6c92608085526080850190610c07565b9260408201526060818403910152610c77565b959493611fcb611fde93611fbd60a096946f52616e646f6d4e756d62657273000000631d18955160e21b018b5260c060208c015260c08b0190610c07565b9089820360408b0152610c77565b9160608801528682036080880152610c77565b930152565b64537461747360581b631d18955160e21b01815260c0602082018190529094939260a092611fde9261202a929161201c91890190610c07565b908782036040890152610c77565b5f60608701528581036080870152610c3a565b81601f820112156100d85780516120538161021b565b9261206160405194856101b9565b818452602082840101116100d857610c049160208085019101610bba565b906020828203126100d85781516001600160401b0381116100d857610c04920161203d565b6001600160a01b036120b4610ef7565b163081036120c65750610c0490612b6d565b604051631e78897760e01b81525f805160206135f2833981519152600482015260606024820152915f91839182908190612104906064830190610c07565b85604483015203915afa908115610774575f9161211f575090565b610c0491503d805f833e61213381836101b9565b81019061207f565b80516020820180516001600160e01b0319949392859182811691600481106121c9575b5050905061216a610799565b805115610779578561218192166020820152612df0565b5050906040602083015192015182156121ae5781516001600160e01b0316179052919250610c0491612bde565b604051637eef2a7160e11b81525f3587166004820152602490fd5b8391925060040360031b1b161684905f8061215e565b60ff16610c04816105e0565b6122766106d4926122698151916020810151604082015161220b816105e0565b6060830151608084015160a085015160c08601519160e0870151936101008801519561223687611a70565b6101208901519761224689611a70565b6122706101806101408c01519b61225c8d611a70565b6101608101519d8e611a84565b0151151590565b9b612d10565b9061227f610799565b90612289826107c7565b52610d2a565b604051906101a082016001600160401b03811183821017610162576040525f610180838281528260208201528260408201528260608201528260808201528260a08201528260c08201528260e0820152826101008201528261012082015282610140820152826101608201520152565b61230761228f565b50612310610799565b80511561077957612325916020820152612eba565b505061232f61228f565b9060208101519061243b604082015191612355612350606083015160f81c90565b6121df565b9060618101519060818101519060a18101519060c1810151906124198a61240f60e18401519361012061239561239061010184015160f81c90565b6131ee565b936124096123ab61239061010286015160f81c90565b936123ff6123c161239061010384015160f81c90565b916123f56123eb6101056123e26123dd61010486015160f81c90565b6131fa565b93015160f81c90565b1515610180870152565b6101608501612f52565b6101408301612f5e565b01612f5e565b6101008c01612f5e565b60e08a015260c089015260a088015260808701526060860152604085016105ef565b6020830152815290565b5f905f905f905f9061245681611a70565b600381036124705750505050506002905f19905f90600190565b61247981611a70565b600281036124935750505050505f19906002906001908390565b806124a5600192979394959697611a70565b036106d457600194508493508392505f9150565b6953746f7265486f6f6b7360301b66746273746f726560c81b01815281516020918201928201915f5b8281106124f0575050505090565b8351855293810193928101926001016124e2565b64537461747360581b631d18955160e21b01815281516020918201928201915f5b828110612533575050505090565b835185529381019392810192600101612525565b5f805160206135f2833981519152815281516020918201928201915f5b828110612572575050505090565b835185529381019392810192600101612564565b6653797374656d7360481b661d189ddbdc9b1960ca1b01815281516020918201928201915f5b8281106125ba575050505090565b8351855293810193928101926001016125ac565b5f805160206135f2833981519152815281516020918201928201915f5b8281106125f9575050505090565b8351855293810193928101926001016125eb565b64537461747360581b631d18955160e21b01815281516020918201928201915f5b82811061263c575050505090565b83518552938101939281019260010161262e565b6f46756e6374696f6e53656c6563746f72661d189ddbdc9b1960ca1b01815281516020918201928201915f5b82811061268a575050505090565b83518552938101939281019260010161267c565b604051602081602081019367436f756e7465727360401b631d18955160e21b0185526040820160208251919201935f5b828110612700575050506126eb925003601f1981018352826101b9565b5190205f805160206135728339815191521890565b8551845294810194869450928101926001016126ce565b60405160208160208101936f52616e646f6d4e756d62657273000000631d18955160e21b0185526040820160208251919201935f5b828110612769575050506126eb925003601f1981018352826101b9565b85518452948101948694509281019260010161274c565b60405160208160208101936f436f6d626174456e636f756e74657200631d18955160e21b0185526040820160208251919201935f5b8281106127d2575050506126eb925003601f1981018352826101b9565b8551845294810194869450928101926001016127b5565b6040516126eb816103876020820194856125ce565b6040516126eb8161038760208201948561260d565b604051602081602081019367436f756e7465727360401b631d18955160e21b0185526040820160208251919201935f5b828110612860575050506126eb925003601f1981018352826101b9565b855184529481019486945092810192600101612843565b909161288e610c0493606084526060840190610c07565b915f60208201526040818403910152610c77565b67436f756e7465727360401b631d18955160e21b018152608060208201819052610c049391926128d491840190610c07565b915f60408201526060818403910152610c77565b6128f0610799565b8051156107795761299c610c04916f52616e646f6d4e756d62657273000000631d18955160e21b01602082015264ffffffffff604051915f805160206135d2833981519152602084018461294484836124b9565b0394612958601f19968781018352826101b9565b519020189261297f60405191826129736020820195866124b9565b039081018352826101b9565b5190205f80516020613612833981519152185460381c1690612ff0565b602060018060801b03825116910160801b17612f9e565b6129bb610799565b8051156107795761299c610c049164537461747360581b631d18955160e21b01602082015264ffffffffff604051915f805160206135d2833981519152602084018461294484836124b9565b612a0f610799565b8051156107795761299c610c049167436f756e7465727360401b631d18955160e21b01602082015264ffffffffff604051915f805160206135d2833981519152602084018461294484836124b9565b9190915f905b602090818310612a845784518155930192601f1990910190600101612a64565b929391905080612a9357505050565b5f199060031b1c90818354169119905116179055565b929192602090818310612a845784518155930192601f1990910190600101612a64565b604051612ae1816103876020820194856125ce565b5190205f805160206136128339815191521890565b604051612ae18161038760208201948561260d565b905f805160206135d283398151915291604051612b30816103876020820194856125ce565b51902060f89190911b6001600160f81b031916181890565b905f805160206135d283398151915291604051612b308161038760208201948561260d565b610c049064ffffffffff604051915f805160206135d28339815191526020840184612b988483612547565b0394612bac601f19968781018352826101b9565b519020189261297f6040519182612973602082019586612547565b604090610c04939281528160208201520190610c77565b906001600160a01b03612bef610ef7565b16803014612c3057905f91612c1b938360405180968195829463075cf5e160e31b845260048401612bc7565b03925af1908115610774575f9161211f575090565b50612c396105fb565b91612c42610799565b8051156107795780826020612c58930152613060565b5050906034602083015160601c92015160f81c8215612cc95715612cba575b60101b6001600160901b031916612ca057612c91926133bc565b905b15612c9b5790565b613058565b90612cae91612cb493613397565b90151591565b90612c93565b612cc484826132e8565b612c77565b50612cd38161322b565b604051637df8867360e11b8152918291610b359160048401612bc7565b612cf981611a70565b60f81b9052565b600a8110156105ea5760f81b9052565b9b9a999897969594939291906040519c60208e015260408d0152612d33816105e0565b60f81b60608c015260618b015260818a015260a189015260c188015260e1870152612d5d81611a70565b60f81b6101018601526101028501612d7491612cf0565b6101038401612d8291612cf0565b6101048301612d9091612d00565b151560f81b61010582015260e68152610c048161019d565b90916060828403126100d85781516001600160401b0392908381116100d85784612dd391830161203d565b9360208201519360408301519081116100d857610c04920161203d565b6001600160a01b03612e00610ef7565b16308103612e195750612e1290613107565b9192909190565b60405163419b58fd60e01b81526f46756e6374696f6e53656c6563746f72661d189ddbdc9b1960ca1b0160048201526060602482015292915f91849182908190612e67906064830190610c07565b64090080080160d21b604483015203915afa908115610774575f80935f93612e90575b50929190565b91935050612eb091503d805f833e612ea881836101b9565b810190612da8565b929092915f612e8a565b6001600160a01b03612eca610ef7565b16308103612edc5750612e1290613191565b60405163419b58fd60e01b815264537461747360581b631d18955160e21b0160048201526060602482015292915f91849182908190612f1f906064830190610c07565b6fe60d002020012020202020010101010160781b604483015203915afa908115610774575f80935f93612e905750929190565b600a8210156105ea5752565b6105f882611a70565b81519060208093019190925b80821015612f86575080612a9357505050565b6001839482939451815501930191601f190190612f73565b8060801c906015809160018060801b031604604051926020906020850160208460051b8701016040528386525f5b848110612fdc5750505050505090565b825182529185019190830190600101612fcc565b60408051601f19603f85830101811690925283815292602080850193925b8183101561304057505080613024575b50505090565b5f199060031b1c908183511691199054161790525f808061301e565b8160018583949597965487520194019401919061300e565b602081519101fd5b5f90606090604051906020908261307b602082019283612586565b039261308f601f19948581018352826101b9565b5190205f80516020613572833981519152189160405192816054850116604052601584526020840192601591925b818310156130ef575050806130d3575b50505092565b5f199060031b1c908183511691199054161790525f80806130cd565b816001858394959796548752019401940191906130bd565b5f906060906040519060209082613122602082019283612650565b0392613136601f19948581018352826101b9565b5190205f80516020613572833981519152189160405192816063850116604052602484526020840192602491925b81831015613179575050806130d35750505092565b81600185839495979654875201940194019190613164565b5f9061319e6060916127fe565b60405190602090601f19908161012585011660405260e68452602084019260e691925b818310156131d6575050806130d35750505092565b816001858394959796548752019401940191906131c1565b60ff16610c0481611a70565b60ff16600a8110156105ea5790565b6040519061321682610182565b60068252651e3937b7ba1f60d11b6020830152565b608081901b6001600160801b03191690610c0490602490601081901b6001600160901b031916806132d9575061325f613209565b935b806132cb575061326f613209565b60405194859261ffff60f01b166020840152601d60f91b908160228501526132a1815180926020602388019101610bba565b83019060238201526132bc8251809360208785019101610bba565b010360048101845201826101b9565b6132d4906133dc565b61326f565b6132e2906133dc565b93613261565b61330582600160801b600160f01b038316616e7360f01b17613482565b8015613358575b15613315575050565b906133226133449261322b565b9060405192839263d787b73760e01b8452604060048501526044840190610c77565b6001600160a01b0390911660248301520390fd5b506133638282613482565b61330c565b3d15613392573d906133798261021b565b9161338760405193846101b9565b82523d5f602084013e565b606090565b906133a55f9392849361343a565b9082602083519301915af16133b8613368565b9091565b906133ca5f9392849361343a565b90602082519201905af46133b8613368565b5f5b6010811061340d575b6040516001600160801b031990921660208301526010825261340882610182565b815290565b6001600160801b03198216600382901b1b6001600160f81b03191615613435576001016133de565b6133e7565b6054610c04916040519381613459869351809260208087019101610bba565b82019060018060601b03199060601b1660208201525f60348201520360348101845201826101b9565b61348a61077e565b90815115610779576020926020830191825282519060019160011015610779576001600160a01b031660408085019190915280516f5265736f757263654163636573730000661d189ddbdc9b1960ca1b0160208201908152945194959094918501939291905f5b82811061353e575050505050918161351861353893610c049503601f1981018352826101b9565b5190205f8051602061357283398151915218546001600160f81b03191690565b60f81c90565b84518652948101949381019383016134f156fe8c0b5119d4cec7b284c6b1b39252a03d1e2f2d7451a5895562524c113bb952be86425bff6b57326c7859e89024fe4f238ca327a1ae4a230180dd2f0e88aaa7d90573eb8f985ff408d9ca6b6c68ad27569ab0f45f90c03ef0bd86aaea7d8f360e8dbb3a9672eebfd3773e72dd9c102393436816d832c7ba9e1e1ac8fcadcac7a93b4102da22e32d82fc925482184f16c09fd4281692720b87d124aef6da48a0f17462554400000000000000000000000052616e646f6d4e756d6265727300000014e2fcc58e58e68ec7edc30c8d50dccc3ce2714a623ec81f46b6a63922d76569","linkReferences":{"src/libraries/StatCalculator.sol":{"StatCalculator":[{"start":6702,"length":20},{"start":7105,"length":20}]}}},"methodIdentifiers":{"_msgSender()":"119df25f","_msgValue()":"45ec9354","_world()":"e1af802c","getRng(bytes32,uint8,bytes)":"b2aa60a4","onERC1155BatchReceived(address,address,uint256[],uint256[],bytes)":"bc197c81","onERC1155Received(address,address,uint256,uint256,bytes)":"f23a6e61","supportsInterface(bytes4)":"01ffc9a7"},"id":376}