{"abi":[{"type":"function","name":"_msgSender","inputs":[],"outputs":[{"name":"sender","type":"address","internalType":"address"}],"stateMutability":"view"},{"type":"function","name":"_msgValue","inputs":[],"outputs":[{"name":"value","type":"uint256","internalType":"uint256"}],"stateMutability":"view"},{"type":"function","name":"_world","inputs":[],"outputs":[{"name":"","type":"address","internalType":"address"}],"stateMutability":"view"},{"type":"function","name":"executePvPCombat","inputs":[{"name":"prevRandao","type":"uint256","internalType":"uint256"},{"name":"encounterId","type":"bytes32","internalType":"bytes32"},{"name":"effects","type":"tuple[]","internalType":"struct Action[]","components":[{"name":"attackerEntityId","type":"bytes32","internalType":"bytes32"},{"name":"defenderEntityId","type":"bytes32","internalType":"bytes32"},{"name":"itemId","type":"uint256","internalType":"uint256"}]}],"outputs":[],"stateMutability":"nonpayable"},{"type":"function","name":"fleePvp","inputs":[{"name":"entityId","type":"bytes32","internalType":"bytes32"}],"outputs":[],"stateMutability":"nonpayable"},{"type":"function","name":"isValidPvP","inputs":[{"name":"attackers","type":"bytes32[]","internalType":"bytes32[]"},{"name":"defenders","type":"bytes32[]","internalType":"bytes32[]"},{"name":"x","type":"uint16","internalType":"uint16"},{"name":"y","type":"uint16","internalType":"uint16"}],"outputs":[{"name":"_isValidPvP","type":"bool","internalType":"bool"}],"stateMutability":"view"},{"type":"function","name":"supportsInterface","inputs":[{"name":"interfaceId","type":"bytes4","internalType":"bytes4"}],"outputs":[{"name":"","type":"bool","internalType":"bool"}],"stateMutability":"pure"},{"type":"event","name":"Store_SetRecord","inputs":[{"name":"tableId","type":"bytes32","indexed":true,"internalType":"ResourceId"},{"name":"keyTuple","type":"bytes32[]","indexed":false,"internalType":"bytes32[]"},{"name":"staticData","type":"bytes","indexed":false,"internalType":"bytes"},{"name":"encodedLengths","type":"bytes32","indexed":false,"internalType":"EncodedLengths"},{"name":"dynamicData","type":"bytes","indexed":false,"internalType":"bytes"}],"anonymous":false},{"type":"event","name":"Store_SpliceDynamicData","inputs":[{"name":"tableId","type":"bytes32","indexed":true,"internalType":"ResourceId"},{"name":"keyTuple","type":"bytes32[]","indexed":false,"internalType":"bytes32[]"},{"name":"dynamicFieldIndex","type":"uint8","indexed":false,"internalType":"uint8"},{"name":"start","type":"uint48","indexed":false,"internalType":"uint48"},{"name":"deleteCount","type":"uint40","indexed":false,"internalType":"uint40"},{"name":"encodedLengths","type":"bytes32","indexed":false,"internalType":"EncodedLengths"},{"name":"data","type":"bytes","indexed":false,"internalType":"bytes"}],"anonymous":false},{"type":"event","name":"Store_SpliceStaticData","inputs":[{"name":"tableId","type":"bytes32","indexed":true,"internalType":"ResourceId"},{"name":"keyTuple","type":"bytes32[]","indexed":false,"internalType":"bytes32[]"},{"name":"start","type":"uint48","indexed":false,"internalType":"uint48"},{"name":"data","type":"bytes","indexed":false,"internalType":"bytes"}],"anonymous":false},{"type":"error","name":"CanOnlyFleeFirstTurn","inputs":[]},{"type":"error","name":"EncodedLengths_InvalidLength","inputs":[{"name":"length","type":"uint256","internalType":"uint256"}]},{"type":"error","name":"GamePaused","inputs":[]},{"type":"error","name":"InvalidFlee","inputs":[]},{"type":"error","name":"NoWeaponsEquipped","inputs":[]},{"type":"error","name":"NotInEncounter","inputs":[]},{"type":"error","name":"Slice_OutOfBounds","inputs":[{"name":"data","type":"bytes","internalType":"bytes"},{"name":"start","type":"uint256","internalType":"uint256"},{"name":"end","type":"uint256","internalType":"uint256"}]},{"type":"error","name":"Store_IndexOutOfBounds","inputs":[{"name":"length","type":"uint256","internalType":"uint256"},{"name":"accessedIndex","type":"uint256","internalType":"uint256"}]},{"type":"error","name":"Store_InvalidResourceType","inputs":[{"name":"expected","type":"bytes2","internalType":"bytes2"},{"name":"resourceId","type":"bytes32","internalType":"ResourceId"},{"name":"resourceIdString","type":"string","internalType":"string"}]},{"type":"error","name":"Store_InvalidSplice","inputs":[{"name":"startWithinField","type":"uint40","internalType":"uint40"},{"name":"deleteCount","type":"uint40","internalType":"uint40"},{"name":"fieldLength","type":"uint40","internalType":"uint40"}]},{"type":"error","name":"Unauthorized","inputs":[]},{"type":"error","name":"UnrecognizedEncounterType","inputs":[]}],"bytecode":{"object":"0x6080806040523461001657614d09908161001b8239f35b5f80fdfe60806040526004361015610011575f80fd5b5f3560e01c806301ffc9a714610084578063119df25f1461007f5780631c99320d1461007a57806345ec935414610075578063bb800c5814610070578063e1af802c1461006b5763ee9f5a1c14610066575f80fd5b610d23565b610d09565b610737565b610718565b610274565b6100e6565b346100d85760203660031901126100d85760043563ffffffff60e01b81168091036100d85763b5dee12760e01b81149081156100c7575b50151560805260206080f35b6301ffc9a760e01b149050816100bb565b5f80fd5b5f9103126100d857565b346100d8575f3660031901126100d85760206101006116b3565b6040516001600160a01b039091168152f35b634e487b7160e01b5f52604160045260245ffd5b606081019081106001600160401b0382111761014157604052565b610112565b6001600160401b03811161014157604052565b604081019081106001600160401b0382111761014157604052565b60e081019081106001600160401b0382111761014157604052565b601f909101601f19168101906001600160401b0382119082101761014157604052565b6040519060c082016001600160401b0381118382101761014157604052565b604051906101c082016001600160401b0381118382101761014157604052565b6001600160401b0381116101415760051b60200190565b9080601f830112156100d8576020908235610222816101f1565b93610230604051958661018f565b81855260208086019260051b8201019283116100d857602001905b828210610259575050505090565b8135815290830190830161024b565b61ffff8116036100d857565b346100d85760803660031901126100d85760046001600160401b0381358181116100d8576102a59036908401610208565b906024359081116100d8576102bd9036908401610208565b604435906102ca82610268565b606435926102d784610268565b6001935f6102f56102e96102e9612a48565b6001600160a01b031690565b6103036102e96102e9612a48565b9061ffff809716925b88865182101561070957506103218187610e23565b5160408051638b4ce3e560e01b8152808d0192835290918290829081906020010381875afa918215610648575f915f936106e8575b50610361848a610e23565b519051633e86fb3160e21b81528d8101918252602091829082908190830103818a5afa918215610648575f926106cb575b5050156106aa5789168581148015906106bd575b6106aa57896005809210928361069e575b50505061068d576103d16103cb8288610e23565b5161170f565b6103da42610e9f565b106103ed576103e890610ec0565b61030c565b5050509091929394505f94855b6104cb575b50505082610419575b6040518315158152602090f35b0390f35b90915f5b82518110156104735761045561043c6104368386610e23565b5161172c565b61044f6104498487610e23565b5161174f565b90610ece565b156104625760010161041d565b604051638fa2ffa160e01b81528590fd5b509190505f5b81518110156104bd5761049f6104926104368385610e23565b61044f6104498486610e23565b156104ac57600101610479565b604051638fa2ffa160e01b81528490fd5b505061041591505f80610408565b5f949394926104de6102e96102e9612a48565b6104ec6102e96102e9612a48565b945b88875182101561067e57506105038188610e23565b5160408051638b4ce3e560e01b8152808d0192835290918290829081906020010381875afa918215610648575f915f9361064d575b50610543848b610e23565b519051633e86fb3160e21b81528d8101918252602091829082908190830103818d5afa918215610648575f9261061b575b5050156105fa57851686811480159061060d575b6105fa5785600580921092836105ee575b5050506105dd576105ad6103cb8289610e23565b6105b642610e9f565b106105c9576105c490610ec0565b6104ee565b5050505050509091505f91825b5f806103ff565b5050505050509091505f91826105d6565b161090505f8581610599565b50505050505050509091505f91826105d6565b508585168683161415610588565b61063a9250803d10610641575b610632818361018f565b810190610e77565b5f80610574565b503d610628565b610e5f565b9080935061067092503d8411610677575b610668818361018f565b810190610e37565b915f610538565b503d61065e565b955050505050509190916105d6565b5050509091929394505f94856103fa565b161090505f89816103b7565b50505050509091929394505f94856103fa565b508987168a831614156103a6565b6106e19250803d1061064157610632818361018f565b5f80610392565b9080935061070292503d841161067757610668818361018f565b915f610356565b925050509490919293946103fa565b346100d8575f3660031901126100d8576020604051601f193601358152f35b346100d8576020806003193601126100d85760049081359061075761176c565b6107656102e96102e9612a48565b906107a5816107726116b3565b6040805163087bdec760e31b81528881018881526001600160a01b03909316602084015290959093849283918291890190565b03915afa908115610648575f91610cec575b5015610cdd576107c683611797565b908115610ccd57610807936107da8361180f565b9382826107eb6102e96102e9612a48565b8351630b7f6b7b60e21b8152988992839182918a838f01610edb565b03915afa958615610648575f96610cae575b508515610c1f576002608086015103610c10575b610836826118e1565b9085519761084389610eec565b61084c89610eec565b60019889036109855750916108c79596916108c0949361086b83611958565b925f92158061097b575b610957575b506108aa9192506108a261088c610f37565b946108956101b2565b9642885287019015159052565b840160019052565b5f6060840152608083015260a082015282611b37565b4290611bcf565b8161012082015f825b610922575b50506101005f9201905b6108e6575b005b805180518310156108e4578261090761090186958694610e23565b51611c90565b61091b610915828551610e23565b51611d2b565b01916108df565b81519081518110156109515761093c610901828694610e23565b61094a610915828551610e23565b01826108d0565b506108d5565b6108aa92506109749061096e601486048096610eb3565b90611975565b829161087a565b5060148411610875565b929091865161099381610eec565b61099c81610eec565b610c01575f935f986109ad84611958565b921580610bf8575b610a64575b505050916108aa6109e19697926109d66108c096954290611a62565b6108a261088c610f37565b8161012082015f825b610a2f575b50506101005f9201905b6109ff57005b805180518310156108e45782610a1a61090186958694610e23565b610a28610915828551610e23565b01916109f9565b8151908151811015610a5e57610a49610901828694610e23565b610a57610915828551610e23565b01826109ea565b506109ef565b90919450610a7f610a798660021c8097610eb3565b84611975565b80610b5d57506101008701905f8a5b610ab7575b505050916108aa6109e19697926109d66108c096955b9395965081949998506109ba565b82518051821015610b57579087610b0c949392610ae283610adc6102e96102e9612a48565b92610e23565b5190610af08651518b610f0a565b915f8a51809981958294632e77811760e11b84528a8401610edb565b03925af1908115610648578c948592610b2a575b5001909192610a8e565b610b49908a3d8c11610b50575b610b41818361018f565b810190610f28565b505f610b20565b503d610b37565b50610a93565b610b7a575b50916108aa6109e19697926109d66108c09695610aa9565b8897506101208701905f895b610b92575b5050610b62565b82518051821015610bf2579087610bb7949392610ae283610adc6102e96102e9612a48565b03925af1908115610648578c948592610bd5575b5001909192610b86565b610beb908a3d8c11610b5057610b41818361018f565b505f610bcb565b50610b8b565b508183116109b5565b50505163012621d960e71b8152fd5b5163fb2fd46b60e01b81528690fd5b610c4e8383610c326102e96102e9612a48565b878b865195869485938493639941825160e01b85528401610edb565b03915afa908115610648575f91610c91575b5015610c825760016080860151031561082d575163fb2fd46b60e01b81528690fd5b516339fed10d60e01b81528690fd5b610ca89150843d861161064157610632818361018f565b5f610c60565b610cc6919650833d851161064157610632818361018f565b945f610819565b8251635ce83b2d60e01b81528590fd5b81516282b42960e81b81528490fd5b610d039150823d841161064157610632818361018f565b5f6107b7565b346100d8575f3660031901126100d8576020610100612a48565b346100d8576060806003193601126100d8576044356001600160401b0381116100d857366023820112156100d857806004013590610d60826101f1565b91604090610d71604051948561018f565b80845260209160246060602087019302850101933685116100d857602401915b848310610da7576108e48660243560043561149b565b86833603126100d8578387918351610dbe81610126565b8535815282860135838201528486013585820152815201920191610d91565b634e487b7160e01b5f52603260045260245ffd5b805115610dfe5760200190565b610ddd565b805160011015610dfe5760400190565b805160021015610dfe5760600190565b8051821015610dfe5760209160051b010190565b91908260409103126100d85760208251610e5081610268565b920151610e5c81610268565b90565b6040513d5f823e3d90fd5b519081151582036100d857565b908160209103126100d857610e5c90610e6a565b634e487b7160e01b5f52601160045260245ffd5b601d19810191908211610eae57565b610e8b565b91908203918211610eae57565b5f198114610eae5760010190565b91908201809211610eae57565b908152602081019190915260400190565b60031115610ef657565b634e487b7160e01b5f52602160045260245ffd5b8115610f14570490565b634e487b7160e01b5f52601260045260245ffd5b908160209103126100d8575190565b604051602081016001600160401b03811182821017610141576040525f8152905f368137565b604051906101c082016001600160401b0381118382101761014157604052815f81525f60208201525f60408201526101a06060915f838201525f60808201525f60a08201525f60c08201525f60e08201525f610100820152826101208201528261014082015282610160820152826101808201520152565b9080601f830112156100d857815190602091610ff0816101f1565b93610ffe604051958661018f565b81855260208086019260051b8201019283116100d857602001905b828210611027575050505090565b81518152908301908301611019565b9080601f830112156100d857815190602091611051816101f1565b9361105f604051958661018f565b81855260208086019260051b8201019283116100d857602001905b828210611088575050505090565b8151815290830190830161107a565b9080601f830112156100d8578151906020916110b2816101f1565b936110c0604051958661018f565b81855260208086019260051b8201019283116100d857602001905b8282106110e9575050505090565b8380916110f584610e6a565b8152019101906110db565b6020818303126100d85780516001600160401b03918282116100d857016101c0818403126100d8576111306101d1565b92815184526020820151602085015260408201516040850152606082015160608501526080820151608085015261116960a08301610e6a565b60a085015261117a60c08301610e6a565b60c085015260e082015160e08501526101008083015190850152610120808301518481116100d857826111ae918501610fd5565b90850152610140808301518481116100d857826111cc918501611036565b90850152610160808301518481116100d857826111ea918501611097565b90850152610180808301518481116100d85782611208918501611097565b908501526101a092838301519081116100d8576112259201611097565b9082015290565b9081518082526020808093019301915f5b82811061124b575050505090565b83518552938101939281019260010161123d565b9081518082526020808093019301915f5b82811061127e575050505090565b835185529381019392810192600101611270565b9081518082526020808093019301915f5b8281106112b1575050505090565b83511515855293810193928101926001016112a3565b9291906113c4602091604086528051604087015282810151606087015260408101516080870152606081015160a0870152608081015160c087015261131560a082015160e088019015159052565b60c081015161132b610100918289019015159052565b60e08201519061012091828901528201519061014091828901528201516113b1886101c061139e61138661136c61016096848887015261020086019061122c565b96880151603f19858903810161018096870152979061125f565b94870151946101a0958d878982850301910152611292565b9186015190858c840301908c0152611292565b92015190878303016101e0880152611292565b930152565b91908260409103126100d857610e5c60206113e384610e6a565b9301610e6a565b906003821015610ef65752565b90610e5c916020815261140e6020820183516113ea565b60208201516040820152604082015160608201526114356060830151608083019015159052565b608082015160a082015260a082015160c082015260c082015160e082015260e0820151611469610100918284019015159052565b820151906101409161148861012091848385015261016084019061125f565b93015191601f198285030191015261125f565b929190925f916114aa8561180f565b936114b3610f5d565b505f60808601945b83518210156115905750611544815f6114d761151a9487610e23565b518051895160408051602081018c8152818301949094526060810192909252919061150f81608081015b03601f19810183528261018f565b519020958692611e20565b836115296102e96102e9612a48565b9251809781958294631618ab3d60e11b8452600484016112c7565b03925af191821561064857600192611567915f9161156e575b508289518c611f1f565b01906114bb565b61158a91503d805f833e611582818361018f565b810190611100565b5f61155d565b95935050949290504260a08301526115a88151610ec0565b90526115b48183612007565b6115c26102e96102e9612a48565b604080516304e1beaf60e21b81529291839081806115e386600483016113f7565b03915afa918215610648575f905f9361167f575b50611603575b50505050565b61160c906120a3565b61161a6102e96102e9612a48565b803b156100d8576040516343c00bf760e01b81526004810193909352602483019390935215156044820152905f908290606490829084905af1801561064857611666575b8080806115fd565b8061167361167992610146565b806100dc565b5f61165e565b90506116a491925060403d6040116116ac575b61169c818361018f565b8101906113c9565b91905f6115f7565b503d611692565b36603319013560601c9081156116c557565b339150565b604051906116d782610159565b6001825260203681840137565b60405190608082016001600160401b0381118382101761014157604052600382526060366020840137565b6117176116ca565b805115610dfe57610e5c9160208201526122ed565b6117346116ca565b805115610dfe5761174991602082015261257a565b60051c90565b6117576116ca565b805115610dfe57611749916020820152612614565b61177c611777610f37565b612392565b60f81c61178557565b60405163379a7ed960e01b8152600490fd5b61179f6116ca565b805115610dfe57610e5c916020820152612420565b6040519061014082016001600160401b03811183821017610141576040526060610120835f81525f60208201525f60408201525f838201525f60808201525f60a08201525f60c08201525f60e0820152826101008201520152565b6118176117b4565b506118206116ca565b805115610dfe57611835916020820152612774565b6118409291926117b4565b92602083015160f81c926003841015610ef6576118d2938160216118cd930151906118bd604182015191611878606182015160f81c90565b906062810151906082810151906118a58d60e061189e60c260a286015195015160f81c90565b1515910152565b60c08d015260a08c015260808b0152151560608a0152565b6040880152602087015285612835565b612f30565b61012083015261010082015290565b6118e96116ca565b805115610dfe576119058161191293602061190d940152612fd2565b805190613061565b614227565b5f5b815181101561195257675db83b18b4d1bdc360c01b6001600160c01b031961193c8385610e23565b51161461194b57600101611914565b5050600190565b50505f90565b6119606116ca565b805115610dfe57610e5c9160208201526124af565b9061197e6116ca565b91825115610dfe576020830152604051906020820152602081526119a181610159565b6001600160a01b036119b1612a48565b16913083036119c6576119c492506130b6565b565b90823b156100d8576040516301c85d5760e51b81526f416476656e74757265457363726f7700631d18955160e21b01600482015260a06024820152925f928492839185918391611a379190611a1f9060a485019061125f565b90846044850152600319848303016064850152612841565b630100080160dd1b608483015203925af1801561064857611a555750565b806116736119c492610146565b90611a6b6116ca565b91825115610dfe57602083015260405190602082015260208152611a8e81610159565b6001600160a01b03611a9e612a48565b1691308303611ab1576119c49250613250565b90823b156100d8576040516301c85d5760e51b81525f80516020614c69833981519152600482015260a06024820152925f928492839185918391611b179190611afe9060a485019061125f565b6002604485015283810360031901606485015290612841565b6502081809000960cd1b608483015203925af1801561064857611a555750565b8151602083015115156040840151151560608501519060808601519260405194602086015260f81b604085015260f81b6041840152604283015260628201526062815260a0810181811060018060401b03821117610141576119c49360a091604052015190611bb6611bb0835180603d1b9060051b1790565b92612866565b92611bbf6116ca565b90611bc982610df1565b52612898565b90611bd86116ca565b91825115610dfe57602083015260405190602082015260208152611bfb81610159565b6001600160a01b03611c0b612a48565b1691308303611c1e576119c492506133e4565b90823b156100d8576040516301c85d5760e51b81525f80516020614ce9833981519152600482015260a06024820152925f928492839185918391611c6b9190611afe9060a485019061125f565b6aa30802012020012020200160a01b608483015203925af1801561064857611a555750565b611c986116ca565b90815115610dfe5760208201526040515f602082015260208152611cbb81610159565b6001600160a01b03611ccb612a48565b1691308303611cde576119c4925061445d565b90823b156100d8576040516301c85d5760e51b81525f80516020614c69833981519152600482015260a06024820152925f928492839185918391611b179190611a1f9060a485019061125f565b611d336116ca565b90815115610dfe576020820152611d48613a2a565b6001600160a01b03611d58612a48565b1691308303611d6b576119c49250613b91565b90823b156100d8576040516377b7543160e11b81525f80516020614c69833981519152600482015260806024820152925f928492839185918391611db89190611a1f90608485019061125f565b03925af1801561064857611a555750565b906020828203126100d85781516001600160401b0381116100d857610e5c9201611036565b90611df8826101f1565b611e05604051918261018f565b8281528092611e16601f19916101f1565b0190602036910137565b611e28610f5d565b50611e376102e96102e9612a48565b604082810180519151635875e22f60e11b81526004810192909252915f90829060249082905afa908115610648575f91611efd575b50611e778151611dee565b611e818251611dee565b91611e8c8151611dee565b93611e978251611dee565b9051956020815191015190611eaa6101d1565b978852602088015260408701525f60608701525f60808701525f60a08701525f60c08701524360e0870152426101008701526101208601526101408501526101608401526101808301526101a082015290565b611f1991503d805f833e611f11818361018f565b810190611dc9565b5f611e6c565b916119c4939192611f6d83516020850151604086015160608701516080880151611f4c60a08a0151151590565b91611f5a60c08b0151151590565b9360e08b0151956101008c015197612a7d565b91611fda61012085015194610140810151906101608101516101a061018083015192015192611fd4848484848d93929193519051935191519251938460d81b948460b01b948460881b948360651b9480603d1b9460051b9060051b01010101171717171790565b98612ae0565b94611fe36116e4565b92611fed84610df1565b52611ff783610e03565b5261200182610e13565b52612942565b8151916003831015610ef6576120566119c493602083015160408401516120316060860151151590565b60808601519060a08701519260c08801519461205060e08a0151151590565b96612b8a565b61208a61012061010084015193015161208481855190518060651b9180603d1b9160051b9060051b01171790565b93612be0565b926120936116ca565b9061209d82610df1565b526129c5565b905f5b61012083015180518210156121bd57816120bf91610e23565b51906120cf6102e96102e9612a48565b60408051633e86fb3160e21b81526004808201869052602095939192918690849060249082905afa928315610648575f9361219e575b508261212d575b50506001935061211e575b50016120a6565b61212790612c24565b5f612117565b6121639250859184916121446102e96102e9612a48565b915163292d870f60e11b81529081019283529384928391829160200190565b03915afa908115610648576001945f92612181575b50505f8061210c565b6121979250803d1061064157610632818361018f565b5f80612178565b6121b6919350863d881161064157610632818361018f565b915f612105565b50505f5b61010083015180518210156122e757816121da91610e23565b51906121ea6102e96102e9612a48565b60408051633e86fb3160e21b81526004808201869052909260209291908390859060249082905afa938415610648575f946122c8575b508361224f575b5050509061010092600192612240575b500190506121c1565b61224990612c24565b5f612237565b8294935094809291612288966122696102e96102e9612a48565b915163292d870f60e11b81529081019283529687928391829160200190565b03915afa801561064857610100946001945f926122ab575b505091928194612227565b6122c19250803d1061064157610632818361018f565b5f806122a0565b6122e0919450833d851161064157610632818361018f565b925f612220565b50509050565b6001600160a01b036122fd612a48565b1630810361230f5750610e5c90612d41565b604051638c364d5960e01b81525f80516020614c698339815191526004820152608060248201529160209183918290819061234e90608483019061125f565b600260448301526502081809000960cd1b606483015203915afa908115610648575f91612379575090565b610e5c915060203d602011610b5057610b41818361018f565b6001600160a01b036123a2612a48565b163081036123b45750610e5c90612d96565b604051638c364d5960e01b81526514185d5cd95960521b631d18955160e21b01600482015260806024820152916020918391829081906123f890608483019061125f565b5f6044830152630101000160d81b606483015203915afa908115610648575f91612379575090565b6001600160a01b03612430612a48565b16308103612446575061244290613f22565b5490565b604051638c364d5960e01b81525f80516020614c698339815191526004820152608060248201529160209183918290819061248590608483019061125f565b5f60448301526502081809000960cd1b606483015203915afa908115610648575f91612379575090565b6001600160a01b036124bf612a48565b163081036124d15750610e5c90612e0e565b604051638c364d5960e01b81526f416476656e74757265457363726f7700631d18955160e21b016004820152608060248201529160209183918290819061251c90608483019061125f565b5f6044830152630100080160dd1b606483015203915afa908115610648575f91612379575090565b919060406113c45f926f456e636f756e746572456e7469747900631d18955160e21b01865260606020870152606086019061125f565b6001600160a01b0361258a612a48565b163081036125ad575061259f610e5c91614729565b5460601c64ffffffffff1690565b60405163dbbf0e2160e01b81526f43686172616374657245717569706d65631d18955160e21b01600482015260606024820152916020918391829081906125f890606483019061125f565b6001604483015203915afa908115610648575f91612379575090565b6001600160a01b03612624612a48565b163081036126475750612639610e5c91614729565b5460881c64ffffffffff1690565b60405163dbbf0e2160e01b81526f43686172616374657245717569706d65631d18955160e21b016004820152606060248201529160209183918290819061269290606483019061125f565b6002604483015203915afa908115610648575f91612379575090565b6001600160401b03811161014157601f01601f191660200190565b5f5b8381106126da5750505f910152565b81810151838201526020016126cb565b81601f820112156100d8578051612700816126ae565b9261270e604051948561018f565b818452602082840101116100d857610e5c91602080850191016126c9565b90916060828403126100d85781516001600160401b0392908381116100d857846127579183016126ea565b9360208201519360408301519081116100d857610e5c92016126ea565b6001600160a01b03612784612a48565b1630810361279d575061279690612e77565b9192909190565b60405163419b58fd60e01b81525f80516020614ce983398151915260048201526060602482015292915f918491829081906127dc90606483019061125f565b6aa30802012020012020200160a01b604483015203915afa908115610648575f80935f9361280b575b50929190565b9193505061282b91503d805f833e612823818361018f565b81019061272c565b929092915f612805565b6003821015610ef65752565b9060209161285a815180928185528580860191016126c9565b601f01601f1916010190565b61286f90613a82565b610e5c60206040518361288b82955180928580860191016126c9565b810103808452018261018f565b909291906001600160a01b036128ac612a48565b163081036128bf5750926119c493613707565b909192813b156100d8575f61292e93611db8829661291b94604051998a988997889663298314fb60e01b88526f436f6d6261744f7574636f6d65000000631bdd155160e21b01600489015260a0602489015260a488019061125f565b6003199283888303016044890152612841565b926064860152848303016084850152612841565b909291906001600160a01b03612956612a48565b163081036129695750926119c493613778565b909192813b156100d8575f61292e93611db8829661291b94604051998a988997889663298314fb60e01b88526f416374696f6e4f7574636f6d65000000631bdd155160e21b01600489015260a0602489015260a488019061125f565b909291906001600160a01b036129d9612a48565b163081036129ec5750926119c4936137d8565b909192813b156100d8575f61292e93611db8829661291b94604051998a988997889663298314fb60e01b88526f436f6d626174456e636f756e74657200631d18955160e21b01600489015260a0602489015260a488019061125f565b7f629a4c26e296b22a8e0856e9f6ecb2d1008d7e00081111962cd175fa7488e175546001600160a01b031680610e5c57503390565b97969594939291906040519860208a015260408901526060880152608087015260a0860152151560f81b60c0850152151560f81b60c184015260c283015260e282015260e28152610120810181811060018060401b038211176101415760405290565b93612b15612b0f612b09612b03612afd610e5c9899979697613a82565b96613adc565b94613b36565b96613b36565b91613b36565b90604051958693602095612b318151809289808a0191016126c9565b8501612b45825180938980850191016126c9565b01612b58825180938880850191016126c9565b01612b6b825180938780850191016126c9565b01612b7e825180938680850191016126c9565b0103808452018261018f565b96959493929190604051976003811015610ef65760f81b602089015260218801526041870152151560f81b60618601526062850152608284015260a2830152151560f81b60c282015260a38152610e5c81610174565b6020612bf7612bf1610e5c93613adc565b93613adc565b926040519381612c1086935180928680870191016126c9565b8201612b7e825180938680850191016126c9565b6001600160a01b036024602082612c39612a48565b1660405192838092633e86fb3160e21b82528760048301525afa908115610648575f91612d22575b50612c6a575050565b612c726116ca565b91825115610dfe576020830152604051905f602083015260018252612c9682610159565b612c9e612a48565b1691308303612cb1576119c4925061359a565b90823b156100d8576040516301c85d5760e51b81526614dc185ddb9959604a1b631d18955160e21b01600482015260a06024820152925f928492839185918391612d049190611a1f9060a485019061125f565b630101000160d81b608483015203925af1801561064857611a555750565b612d3b915060203d60201161064157610632818361018f565b5f612c61565b612d4a90613f22565b612d52614096565b90806020831015612d85575b5080548260031b1b916020039081602011612d7857505090565b600101549060031b1c1790565b601f83169260051c0190505f612d5e565b60405160208160208101936514185d5cd95960521b631d18955160e21b0185526040820160208251919201935f5b828110612df757505050612de1925003601f19810183528261018f565b5190205f80516020614c49833981519152185490565b855184529481019486945092810192600101612dc4565b60405160208160208101936f416476656e74757265457363726f7700631d18955160e21b0185526040820160208251919201935f5b828110612e6057505050612de1925003601f19810183528261018f565b855184529481019486945092810192600101612e43565b612e88612e8382613f4c565b6147e6565b91612e92826147bc565b549266ffffffffffffff841692612ec1612eab856126ae565b94612eb9604051968761018f565b8086526126ae565b602085019490601f190136863793915f925b60ff8416906002821015612f26579081612f0b612f109364ffffffffff8b612efb8a8a6140f8565b956028026038011c16809461415a565b610ece565b9260ff809116908114610eae5760010192612ed3565b5050949392915050565b919064ffffffffff808460381c1690612f4c61190d8385613061565b9460601c168101918282118015612fc8575b612f93579081602082819401019283910111610eae578203918211610eae57610e5c9160018060801b03169060801b17614227565b6040516323230fa360e01b81526060600482015292839291612fb9906064850190612841565b91602484015260448301520390fd5b5080518311612f5e565b6001600160a01b03612fe2612a48565b16308103612ff45750610e5c906141a4565b613015915f916040518080958194631e78897760e01b835260048301612544565b03915afa908115610648575f9161302a575090565b90503d805f833e61303b818361018f565b81016020828203126100d85781516001600160401b0381116100d857610e5c92016126ea565b9081518111613080576001600160801b031660209190910160801b1790565b6040516323230fa360e01b815260606004820152925082916130a6906064840190612841565b905f602484015260448301520390fd5b91906130c183613f61565b916130ca614905565b905f5b8251811015613171576131016130f46130e68386610e23565b516001600160581b03191690565b6001600160581b03191690565b9060049182808260581c161461311d575b5060019150016130cd565b60601c803b156100d857855f91898361314b966040519788958694859363964f667d60e01b8552840161432a565b03925af19182156106485760019215613112578061167361316b92610146565b5f613112565b509291906131bc826040946040515f80516020614c298339815191526f416476656e74757265457363726f7700631d18955160e21b0191806131b4868d836142ce565b0390a2614a69565b5f5b8151811015613248576131d76130f46130e68385610e23565b6008808260581c16146131ee575b506001016131be565b60601c90813b156100d857845163a8ba872160e01b8152915f90839081838161321b8a8e6004840161432a565b03925af191821561064857600192613235575b50906131e5565b8061167361324292610146565b5f61322e565b505050509050565b91909165ffffffffffff613262614096565b1661326c8261402d565b613274614872565b905f5b8251811015613301576132906130f46130e68386610e23565b9060049182808260581c16146132ac575b506001915001613277565b60601c803b156100d857855f9188838c966132db6040519889968795869463964f667d60e01b86528501614421565b03925af191821561064857600192156132a157806116736132fb92610146565b5f6132a1565b5094919061334e8383604098875f80516020614c298339815191526040518061334687876f456e636f756e746572456e7469747900631d18955160e21b0196846142f9565b0390a2614ad7565b5f5b81518110156133db576133696130f46130e68385610e23565b6008808260581c1614613380575b50600101613350565b60601c90813b156100d857875163a8ba872160e01b8152915f9083908183816133ae8b8b8e60048501614421565b03925af1918215610648576001926133c8575b5090613377565b806116736133d592610146565b5f6133c1565b50505050509050565b9190915f805b6002821061356c5765ffffffffffff91501661340582613f4c565b61340d614964565b905f5b825181101561349a576134296130f46130e68386610e23565b9060049182808260581c1614613445575b506001915001613410565b60601c803b156100d857855f9188838c966134746040519889968795869463964f667d60e01b86528501614375565b03925af1918215610648576001921561343a578061167361349492610146565b5f61343a565b509491906134df8383604098875f80516020614c298339815191526040518061334687876f436f6d626174456e636f756e74657200631d18955160e21b0196846142f9565b5f5b81518110156133db576134fa6130f46130e68385610e23565b6008808260581c1614613511575b506001016134e1565b60601c90813b156100d857875163a8ba872160e01b8152915f90839081838161353f8b8b8e60048501614375565b03925af191821561064857600192613559575b5090613508565b8061167361356692610146565b5f613552565b60ff6aa30802012020012020200160a01b83601b0360031b1c168101809111610eae576001909101906133ea565b91906135a583613fca565b916135ae6149c3565b905f5b825181101561363a576135ca6130f46130e68386610e23565b9060049182808260581c16146135e6575b5060019150016135b1565b60601c803b156100d857855f918983613614966040519788958694859363964f667d60e01b855284016143c5565b03925af191821561064857600192156135db578061167361363492610146565b5f6135db565b506040805191949093929161367b9184916614dc185ddb9959604a1b631d18955160e21b01905f80516020614c2983398151915290806131b4868d836142ce565b5f5b8151811015613248576136966130f46130e68385610e23565b6008808260581c16146136ad575b5060010161367d565b60601c90813b156100d857845163a8ba872160e01b8152915f9083908183816136da8a8e600484016143c5565b03925af1918215610648576001926136f4575b50906136a4565b8061167361370192610146565b5f6136ed565b60408051655461626c657360501b66746273746f726560c81b0160208201526f436f6d6261744f7574636f6d65000000631bdd155160e21b0181830181905291815290945f80516020614c89833981519152946137739261376790610126565b604051948594856145d4565b0390a2565b60408051655461626c657360501b66746273746f726560c81b0160208201526f416374696f6e4f7574636f6d65000000631bdd155160e21b0181830181905291815290945f80516020614c89833981519152946137739261376790610126565b60408051655461626c657360501b66746273746f726560c81b01602082019081525f80516020614ce98339815191528284018190528383529697929594929161382081610126565b5190205f80516020614c4983398151915218549061383c614964565b905f5b82518110156138cf576138586130f46130e68386610e23565b6001808260581c161461386f575b5060010161383f565b60601c90813b156100d8575f888c9388838b6138a28f8c9051998a97889687956315c19b2760e21b875260048701614610565b03925af1918215610648576001926138bc575b5090613866565b806116736138c992610146565b5f6138b5565b50965f80516020614c898339815191528751806138ef8c8a898b856145d4565b0390a261390a6138fe85613f4c565b84516020860191614ae8565b60ff808360e01c16806139b6575b50505f5b81518110156139ab576139356130f46130e68385610e23565b6002808260581c161461394c575b5060010161391c565b60601c90813b156100d8575f878b9387838a61397e8a8f51998a9788968795635b28cdaf60e01b875260048701614610565b03925af191821561064857600192613998575b5090613943565b806116736139a592610146565b5f613991565b505050505050509050565b96909892959493856139ca869a949a6147d1565b555f96602085015b8b8916908a821015613a1757613a0e8d9282612f0b60019464ffffffffff8f8f908f906139fe91614135565b956028026038011c168094614ae8565b990116976139d2565b5050939950939495509550955f80613918565b606051908160051b60209083810460201484151715610eae5760408051808301603f01601f1916909152908152926020840160805f5b838110613a6e575050505050565b815183529184019190840190600101613a60565b9081518060051b60209180820460201481151715610eae5790604051946020860191601f19603f8289010116604052865260205f9101905b838110613ac8575050505050565b815183529184019190840190600101613aba565b9081518060051b60209180820460201481151715610eae5790604051946020860191601f19603f8289010116604052865260205f9101905b838110613b22575050505050565b815183529184019190840190600101613b14565b9081519160019083800460011484151715610eae5760408051808601603f01601f191690915284815293906020908186019082015f5b848110613b7b57505050505050565b815160f81b835291850191908301908501613b6c565b919091613b9d816147a7565b5464ffffffffff8160381c16613bbe613bb68280610eb3565b865190610ece565b8181141594908580613db0575b613d8457613bd99084614bab565b90613be2614872565b915f5b8351811015613c7457613bfe6130f46130e68387610e23565b6010808260581c1614613c15575b50600101613be5565b60601c90813b156100d8575f878b9388838c613c4760405198899687958694630abd6b4560e31b865260048601614682565b03925af191821561064857600192613c61575b5090613c0c565b80611673613c6e92610146565b5f613c5a565b506040805192979195509392915f80516020614c69833981519152907ffe158a7adba34e256807c8a149028d3162918713c3838afc643ce9f96716ebfd9080613cc08c8a898d856146e5565b0390a2613d74575b613cda87613cd5876140cd565b614a1c565b5f5b8151811015613d6a57613cf56130f46130e68385610e23565b6020808260581c1614613d0c575b50600101613cdc565b60601c90813b156100d8575f868a9386838b613d3d8b5198899687958694636358453360e01b865260048601614682565b03925af191821561064857600192613d57575b5090613d03565b80611673613d6492610146565b5f613d50565b5050505050509050565b83613d7e866147a7565b55613cc8565b604051632994042d60e21b81525f600482015264ffffffffff8416602482018190526044820152606490fd5b5082613dc8613dbe8261466f565b64ffffffffff1690565b1415613bcb565b6953746f7265486f6f6b7360301b66746273746f726560c81b01815281516020918201928201915f5b828110613e06575050505090565b835185529381019392810192600101613df8565b6953746f7265486f6f6b7360301b66746273746f726560c81b01815281516020918201928201915f5b828110613e51575050505090565b835185529381019392810192600101613e43565b5f80516020614c69833981519152815281516020918201928201915f5b828110613e90575050505090565b835185529381019392810192600101613e82565b5f80516020614ce9833981519152815281516020918201928201915f5b828110613ecf575050505090565b835185529381019392810192600101613ec1565b5f80516020614ce9833981519152815281516020918201928201915f5b828110613f0e575050505090565b835185529381019392810192600101613f00565b604051613f3781611501602082019485613e65565b5190205f80516020614c498339815191521890565b604051613f3781611501602082019485613ee3565b60405160208160208101936f416476656e74757265457363726f7700631d18955160e21b0185526040820160208251919201935f5b828110613fb357505050613f37925003601f19810183528261018f565b855184529481019486945092810192600101613f96565b60405160208160208101936614dc185ddb9959604a1b631d18955160e21b0185526040820160208251919201935f5b82811061401657505050613f37925003601f19810183528261018f565b855184529481019486945092810192600101613ff9565b60405160208160208101936f456e636f756e746572456e7469747900631d18955160e21b0185526040820160208251919201935f5b82811061407f57505050613f37925003601f19810183528261018f565b855184529481019486945092810192600101614062565b5f805b600281106140a5575090565b9060ff6502081809000960cd1b83601b0360031b1c168101809111610eae5790600101614099565b5f80516020614ca9833981519152906040516140f181611501602082019485613e65565b5190201890565b905f80516020614ca98339815191529160405161411d81611501602082019485613ea4565b51902060f89190911b6001600160f81b031916181890565b905f80516020614ca98339815191529160405161411d81611501602082019485613ee3565b9291925b60209081831061417e5780548552930192601f199091019060010161415e565b9190509291928061418e57505050565b5f199060031b1c90818351169119905416179052565b610e5c9064ffffffffff604051915f80516020614ca983398151915260208401846141cf8483613e65565b03946141e3601f199687810183528261018f565b519020189261420a60405191826141fe602082019586613e65565b0390810183528261018f565b5190205f80516020614cc9833981519152185460381c1690614850565b6040805160206020600160801b0384168201810190925260016001607b1b03600584901c1680825290939260801c8285015f5b838110614268575050505050565b82518252918401919084019060010161425a565b908160801c916015809160018060801b031604604051936020906020860160208460051b8801016040528387525f5b8481106142ba57505050505050565b8251825291850191908301906001016142ab565b90916142e5610e5c9360608452606084019061125f565b915f60208201526040818403910152612841565b65ffffffffffff614316610e5c959360608452606084019061125f565b931660208201526040818403910152612841565b6f416476656e74757265457363726f7700631d18955160e21b018152608060208201819052610e5c9391926143619184019061125f565b915f60408201526060818403910152612841565b65ffffffffffff6143b1610e5c95936f436f6d626174456e636f756e74657200631d18955160e21b01845260806020850152608084019061125f565b931660408201526060818403910152612841565b6614dc185ddb9959604a1b631d18955160e21b018152608060208201819052610e5c9391926143619184019061125f565b5f80516020614c698339815191528152608060208201819052610e5c9391926143619184019061125f565b65ffffffffffff6143b1610e5c95936f456e636f756e746572456e7469747900631d18955160e21b01845260806020850152608084019061125f565b91906144688361402d565b91614471614872565b905f5b82518110156144fd5761448d6130f46130e68386610e23565b9060049182808260581c16146144a9575b506001915001614474565b60601c803b156100d857855f9189836144d7966040519788958694859363964f667d60e01b855284016143f6565b03925af1918215610648576001921561449e57806116736144f792610146565b5f61449e565b50929190614548826040946040515f80516020614c298339815191526f456e636f756e746572456e7469747900631d18955160e21b019180614540868d836142ce565b0390a2614aa0565b5f5b8151811015613248576145636130f46130e68385610e23565b6008808260581c161461457a575b5060010161454a565b60601c90813b156100d857845163a8ba872160e01b8152915f9083908183816145a78a8e600484016143f6565b03925af1918215610648576001926145c1575b5090614571565b806116736145ce92610146565b5f6145ba565b90610e5c94926145ef6145fd9260808552608085019061125f565b908382036020850152612841565b9260408201526060818403910152612841565b95949361465c6113c49361464e60a096946f436f6d626174456e636f756e74657200631d18955160e21b018b5260c060208c015260c08b019061125f565b9089820360408b0152612841565b9160608801528682036080880152612841565b9064ffffffffff809216918211610eae57565b909264ffffffffff6146c0610e5c9694956f456e636f756e746572456e7469747900631d18955160e21b01855260e0602086015260e085019061125f565b945f60408501525f606085015216608083015260a082015260c0818403910152612841565b909264ffffffffff614704610e5c96949560c0855260c085019061125f565b945f60208501525f6040850152166060830152608082015260a0818403910152612841565b60405160208160208101936f43686172616374657245717569706d65631d18955160e21b0185526040820160208251919201935f5b8281106147905750505061477b925003601f19810183528261018f565b5190205f80516020614cc98339815191521890565b85518452948101948694509281019260010161475e565b60405161477b81611501602082019485613e65565b60405161477b81611501602082019485613ea4565b60405161477b81611501602082019485613ee3565b604051906020601f198060e285011660405260a3845260208401929160a3915b818310156148385750508061481c575b50505090565b5f199060031b1c908183511691199054161790525f8080614816565b81600185839495979654875201940194019190614806565b610e5c9060405192601f19603f8286010116604052808452602084019161415a565b61487a6116ca565b805115610dfe57614900611905610e5c926f456e636f756e746572456e7469747900631d18955160e21b01602082015264ffffffffff604051915f80516020614ca983398151915260208401846148d18483613dcf565b03946148e5601f199687810183528261018f565b519020189261420a60405191826141fe602082019586613e1a565b61427c565b61490d6116ca565b805115610dfe57614900611905610e5c926f416476656e74757265457363726f7700631d18955160e21b01602082015264ffffffffff604051915f80516020614ca983398151915260208401846148d18483613dcf565b61496c6116ca565b805115610dfe57614900611905610e5c926f436f6d626174456e636f756e74657200631d18955160e21b01602082015264ffffffffff604051915f80516020614ca983398151915260208401846148d18483613dcf565b6149cb6116ca565b805115610dfe57614900611905610e5c926614dc185ddb9959604a1b631d18955160e21b01602082015264ffffffffff604051915f80516020614ca983398151915260208401846148d18483613dcf565b81519060208093019190925b80821015614a51575080614a3b57505050565b5f199060031b1c90818354169119905116179055565b6001839482939451815501930191601f190190614a28565b81519060208093019190925b80821015614a88575080614a3b57505050565b6001839482939451815501930191601f190190614a75565b81519060208093019190925b80821015614abf575080614a3b57505050565b6001839482939451815501930191601f190190614aac565b82516119c493602001929091614b1b565b9291925b602090818310614b0c5784518155930192601f1990910190600101614aec565b929391905080614a3b57505050565b909392919380614b4a575b50929092602090818310614b0c5784518155930192601f1990910190600101614aec565b6020811015614b9b575b8015614b265791939082602003908360031b5f198460031b1c19811c908751901c90801983541691161781558183111561324857600101940191601f19910101925f614b26565b90601f908260051c019116614b54565b64ffffffffff808311614c0f5766ffffffffffffff821690603883901c1683818110614c05570301915b64ffffffffff60381b60389190911b1664ffffffffff60381b19929092166001600160601b031991909116171790565b9003900391614bd5565b604051637149a3c160e01b815260048101849052602490fdfe8c0b5119d4cec7b284c6b1b39252a03d1e2f2d7451a5895562524c113bb952be86425bff6b57326c7859e89024fe4f238ca327a1ae4a230180dd2f0e88aaa7d974625544000000000000000000000000456e636f756e746572456e74697479008dbb3a9672eebfd3773e72dd9c102393436816d832c7ba9e1e1ac8fcadcac7a93b4102da22e32d82fc925482184f16c09fd4281692720b87d124aef6da48a0f114e2fcc58e58e68ec7edc30c8d50dccc3ce2714a623ec81f46b6a63922d7656974625544000000000000000000000000436f6d626174456e636f756e74657200","linkReferences":{}},"methodIdentifiers":{"_msgSender()":"119df25f","_msgValue()":"45ec9354","_world()":"e1af802c","executePvPCombat(uint256,bytes32,(bytes32,bytes32,uint256)[])":"ee9f5a1c","fleePvp(bytes32)":"bb800c58","isValidPvP(bytes32[],bytes32[],uint16,uint16)":"1c99320d","supportsInterface(bytes4)":"01ffc9a7"},"id":382}