{
    "abi": [
        {
            "type": "function",
            "name": "_msgSender",
            "inputs": [],
            "outputs": [
                {
                    "name": "sender",
                    "type": "address",
                    "internalType": "address"
                }
            ],
            "stateMutability": "view"
        },
        {
            "type": "function",
            "name": "_msgValue",
            "inputs": [],
            "outputs": [
                {
                    "name": "value",
                    "type": "uint256",
                    "internalType": "uint256"
                }
            ],
            "stateMutability": "pure"
        },
        {
            "type": "function",
            "name": "_world",
            "inputs": [],
            "outputs": [
                {
                    "name": "",
                    "type": "address",
                    "internalType": "address"
                }
            ],
            "stateMutability": "view"
        },
        {
            "type": "function",
            "name": "executePvPCombat",
            "inputs": [
                {
                    "name": "prevRandao",
                    "type": "uint256",
                    "internalType": "uint256"
                },
                {
                    "name": "encounterId",
                    "type": "bytes32",
                    "internalType": "bytes32"
                },
                {
                    "name": "effects",
                    "type": "tuple[]",
                    "internalType": "struct Action[]",
                    "components": [
                        {
                            "name": "attackerEntityId",
                            "type": "bytes32",
                            "internalType": "bytes32"
                        },
                        {
                            "name": "defenderEntityId",
                            "type": "bytes32",
                            "internalType": "bytes32"
                        },
                        {
                            "name": "itemId",
                            "type": "uint256",
                            "internalType": "uint256"
                        }
                    ]
                }
            ],
            "outputs": [],
            "stateMutability": "nonpayable"
        },
        {
            "type": "function",
            "name": "fleePvp",
            "inputs": [
                {
                    "name": "entityId",
                    "type": "bytes32",
                    "internalType": "bytes32"
                }
            ],
            "outputs": [],
            "stateMutability": "nonpayable"
        },
        {
            "type": "function",
            "name": "isValidPvP",
            "inputs": [
                {
                    "name": "attackers",
                    "type": "bytes32[]",
                    "internalType": "bytes32[]"
                },
                {
                    "name": "defenders",
                    "type": "bytes32[]",
                    "internalType": "bytes32[]"
                },
                {
                    "name": "x",
                    "type": "uint16",
                    "internalType": "uint16"
                },
                {
                    "name": "y",
                    "type": "uint16",
                    "internalType": "uint16"
                }
            ],
            "outputs": [
                {
                    "name": "_isValidPvP",
                    "type": "bool",
                    "internalType": "bool"
                }
            ],
            "stateMutability": "view"
        },
        {
            "type": "function",
            "name": "supportsInterface",
            "inputs": [
                {
                    "name": "interfaceId",
                    "type": "bytes4",
                    "internalType": "bytes4"
                }
            ],
            "outputs": [
                {
                    "name": "",
                    "type": "bool",
                    "internalType": "bool"
                }
            ],
            "stateMutability": "pure"
        },
        {
            "type": "event",
            "name": "Store_SetRecord",
            "inputs": [
                {
                    "name": "tableId",
                    "type": "bytes32",
                    "indexed": true,
                    "internalType": "ResourceId"
                },
                {
                    "name": "keyTuple",
                    "type": "bytes32[]",
                    "indexed": false,
                    "internalType": "bytes32[]"
                },
                {
                    "name": "staticData",
                    "type": "bytes",
                    "indexed": false,
                    "internalType": "bytes"
                },
                {
                    "name": "encodedLengths",
                    "type": "bytes32",
                    "indexed": false,
                    "internalType": "EncodedLengths"
                },
                {
                    "name": "dynamicData",
                    "type": "bytes",
                    "indexed": false,
                    "internalType": "bytes"
                }
            ],
            "anonymous": false
        },
        {
            "type": "event",
            "name": "Store_SpliceDynamicData",
            "inputs": [
                {
                    "name": "tableId",
                    "type": "bytes32",
                    "indexed": true,
                    "internalType": "ResourceId"
                },
                {
                    "name": "keyTuple",
                    "type": "bytes32[]",
                    "indexed": false,
                    "internalType": "bytes32[]"
                },
                {
                    "name": "dynamicFieldIndex",
                    "type": "uint8",
                    "indexed": false,
                    "internalType": "uint8"
                },
                {
                    "name": "start",
                    "type": "uint48",
                    "indexed": false,
                    "internalType": "uint48"
                },
                {
                    "name": "deleteCount",
                    "type": "uint40",
                    "indexed": false,
                    "internalType": "uint40"
                },
                {
                    "name": "encodedLengths",
                    "type": "bytes32",
                    "indexed": false,
                    "internalType": "EncodedLengths"
                },
                {
                    "name": "data",
                    "type": "bytes",
                    "indexed": false,
                    "internalType": "bytes"
                }
            ],
            "anonymous": false
        },
        {
            "type": "event",
            "name": "Store_SpliceStaticData",
            "inputs": [
                {
                    "name": "tableId",
                    "type": "bytes32",
                    "indexed": true,
                    "internalType": "ResourceId"
                },
                {
                    "name": "keyTuple",
                    "type": "bytes32[]",
                    "indexed": false,
                    "internalType": "bytes32[]"
                },
                {
                    "name": "start",
                    "type": "uint48",
                    "indexed": false,
                    "internalType": "uint48"
                },
                {
                    "name": "data",
                    "type": "bytes",
                    "indexed": false,
                    "internalType": "bytes"
                }
            ],
            "anonymous": false
        },
        {
            "type": "error",
            "name": "EncodedLengths_InvalidLength",
            "inputs": [
                {
                    "name": "length",
                    "type": "uint256",
                    "internalType": "uint256"
                }
            ]
        },
        {
            "type": "error",
            "name": "Slice_OutOfBounds",
            "inputs": [
                {
                    "name": "data",
                    "type": "bytes",
                    "internalType": "bytes"
                },
                {
                    "name": "start",
                    "type": "uint256",
                    "internalType": "uint256"
                },
                {
                    "name": "end",
                    "type": "uint256",
                    "internalType": "uint256"
                }
            ]
        },
        {
            "type": "error",
            "name": "Store_IndexOutOfBounds",
            "inputs": [
                {
                    "name": "length",
                    "type": "uint256",
                    "internalType": "uint256"
                },
                {
                    "name": "accessedIndex",
                    "type": "uint256",
                    "internalType": "uint256"
                }
            ]
        },
        {
            "type": "error",
            "name": "Store_InvalidResourceType",
            "inputs": [
                {
                    "name": "expected",
                    "type": "bytes2",
                    "internalType": "bytes2"
                },
                {
                    "name": "resourceId",
                    "type": "bytes32",
                    "internalType": "ResourceId"
                },
                {
                    "name": "resourceIdString",
                    "type": "string",
                    "internalType": "string"
                }
            ]
        },
        {
            "type": "error",
            "name": "Store_InvalidSplice",
            "inputs": [
                {
                    "name": "startWithinField",
                    "type": "uint40",
                    "internalType": "uint40"
                },
                {
                    "name": "deleteCount",
                    "type": "uint40",
                    "internalType": "uint40"
                },
                {
                    "name": "fieldLength",
                    "type": "uint40",
                    "internalType": "uint40"
                }
            ]
        },
        {
            "type": "error",
            "name": "World_AccessDenied",
            "inputs": [
                {
                    "name": "resource",
                    "type": "string",
                    "internalType": "string"
                },
                {
                    "name": "caller",
                    "type": "address",
                    "internalType": "address"
                }
            ]
        }
    ],
    "bytecode": {
        "object": "0x608060405234801561001057600080fd5b50614f6f806100206000396000f3fe608060405234801561001057600080fd5b506004361061007d5760003560e01c806345ec93541161005b57806345ec9354146100dd578063bb800c58146100f0578063e1af802c14610105578063ee9f5a1c1461010d57600080fd5b806301ffc9a714610082578063119df25f146100aa5780631c99320d146100ca575b600080fd5b610095610090366004613f0c565b610120565b60405190151581526020015b60405180910390f35b6100b26101b9565b6040516001600160a01b0390911681526020016100a1565b6100956100d8366004614088565b6101c8565b604051601f1936013581526020016100a1565b6101036100fe366004614111565b61058b565b005b6100b2610d73565b61010361011b36600461412a565b610d7d565b60007fffffffff0000000000000000000000000000000000000000000000000000000082167fb5dee1270000000000000000000000000000000000000000000000000000000014806101b357507fffffffff0000000000000000000000000000000000000000000000000000000082167f01ffc9a700000000000000000000000000000000000000000000000000000000145b92915050565b60006101c3611071565b905090565b6001600080805b87518110156103a8576101e0610d73565b6001600160a01b0316638b4ce3e5898381518110610200576102006141fd565b60200260200101516040518263ffffffff1660e01b815260040161022691815260200190565b6040805180830381865afa158015610242573d6000803e3d6000fd5b505050506040513d601f19601f820116820180604052508101906102669190614213565b9093509150610273610d73565b6001600160a01b031663fa1becc4898381518110610293576102936141fd565b60200260200101516040518263ffffffff1660e01b81526004016102b991815260200190565b602060405180830381865afa1580156102d6573d6000803e3d6000fd5b505050506040513d601f19601f820116820180604052508101906102fa919061425d565b61030757600093506103a8565b8561ffff168361ffff1614158061032657508461ffff168261ffff1614155b1561033457600093506103a8565b60058361ffff1610158061034d575060058261ffff1610155b61035a57600093506103a8565b610365601e4261428e565b61038789838151811061037a5761037a6141fd565b60200260200101516110a3565b111561039657600093506103a8565b806103a0816142a1565b9150506101cf565b5082156105805760005b865181101561057e576103c3610d73565b6001600160a01b0316638b4ce3e58883815181106103e3576103e36141fd565b60200260200101516040518263ffffffff1660e01b815260040161040991815260200190565b6040805180830381865afa158015610425573d6000803e3d6000fd5b505050506040513d601f19601f820116820180604052508101906104499190614213565b9093509150610456610d73565b6001600160a01b031663fa1becc4888381518110610476576104766141fd565b60200260200101516040518263ffffffff1660e01b815260040161049c91815260200190565b602060405180830381865afa1580156104b9573d6000803e3d6000fd5b505050506040513d601f19601f820116820180604052508101906104dd919061425d565b6104ea576000935061057e565b8561ffff168361ffff1614158061050957508461ffff168261ffff1614155b15610517576000935061057e565b60058361ffff16101580610530575060058261ffff1610155b61053d576000935061057e565b610548601e4261428e565b61055d88838151811061037a5761037a6141fd565b111561056c576000935061057e565b80610576816142a1565b9150506103b2565b505b50505b949350505050565b610593610d73565b6001600160a01b03166343def638826105aa6101b9565b6040517fffffffff0000000000000000000000000000000000000000000000000000000060e085901b16815260048101929092526001600160a01b03166024820152604401602060405180830381865afa15801561060c573d6000803e3d6000fd5b505050506040513d601f19601f82011682018060405250810190610630919061425d565b6106815760405162461bcd60e51b815260206004820152601f60248201527f43616e6e6f7420666c656520616e6f746865722773206368617261637465720060448201526064015b60405180910390fd5b600061068c82611135565b9050806107015760405162461bcd60e51b815260206004820152602160248201527f7573652072656d6f7665456e7469747946726f6d4d617020746f206c6f676f7560448201527f74000000000000000000000000000000000000000000000000000000000000006064820152608401610678565b600061070c826111c6565b90506000610718610d73565b6040517f2dfdadec00000000000000000000000000000000000000000000000000000000815260048101859052602481018690526001600160a01b039190911690632dfdadec906044016020604051808303816000875af1158015610781573d6000803e3d6000fd5b505050506040513d601f19601f820116820180604052508101906107a5919061425d565b905080156108065781608001516002146108015760405162461bcd60e51b815260206004820181905260248201527f63616e206f6e6c7920666c6565206f6e20796f7572206669727374207475726e6044820152606401610678565b61093b565b61080e610d73565b6040517f9941825100000000000000000000000000000000000000000000000000000000815260048101859052602481018690526001600160a01b0391909116906399418251906044016020604051808303816000875af1158015610877573d6000803e3d6000fd5b505050506040513d601f19601f8201168201806040525081019061089b919061425d565b6108e75760405162461bcd60e51b815260206004820152600f60248201527f696e76616c696420666c6565696e6700000000000000000000000000000000006044820152606401610678565b816080015160011461093b5760405162461bcd60e51b815260206004820181905260248201527f63616e206f6e6c7920666c6565206f6e20796f7572206669727374207475726e6044820152606401610678565b600182516002811115610950576109506142bb565b0361099d5760405162461bcd60e51b815260206004820152601460248201527f63616e6e6f7420666c65652066726f6d207076650000000000000000000000006044820152606401610678565b6000825160028111156109b2576109b26142bb565b03610d255760008060006109c5876112cb565b90506004811115610bc7576109db6004826142e7565b92506109f0876109eb858461428e565b61135c565b83610adb5760005b85610100015151811015610ad557610a0e610d73565b6001600160a01b0316635cef022e8761010001518381518110610a3357610a336141fd565b60200260200101518861010001515187610a4d91906142e7565b6040517fffffffff0000000000000000000000000000000000000000000000000000000060e085901b168152600481019290925260248201526044016020604051808303816000875af1158015610aa8573d6000803e3d6000fd5b505050506040513d601f19601f82011682018060405250810190610acc9190614309565b506001016109f8565b50610bc7565b8315610bc7576001915060005b85610120015151811015610bc557610afe610d73565b6001600160a01b0316635cef022e8761012001518381518110610b2357610b236141fd565b60200260200101518861012001515187610b3d91906142e7565b6040517fffffffff0000000000000000000000000000000000000000000000000000000060e085901b168152600481019290925260248201526044016020604051808303816000875af1158015610b98573d6000803e3d6000fd5b505050506040513d601f19601f82011682018060405250810190610bbc9190614309565b50600101610ae8565b505b610bd18742611415565b60006040518060c00160405280428152602001841515815260200160011515815260200160008152602001858152602001600067ffffffffffffffff811115610c1c57610c1c613f4e565b604051908082528060200260200182016040528015610c45578160200160208202803683370190505b5090529050610c5487826114c9565b610c5e8742611588565b606060005b87610120015151811015610ccc57610c9c8861012001518281518110610c8b57610c8b6141fd565b60200260200101516000801b61163c565b610cc48861012001518281518110610cb657610cb66141fd565b6020026020010151836116bb565b600101610c63565b5060005b87610100015151811015610d1a57610cf88861010001518281518110610c8b57610c8b6141fd565b610d128861010001518281518110610cb657610cb66141fd565b600101610cd0565b505050505050610d6d565b60405162461bcd60e51b815260206004820152601b60248201527f556e7265636f676e697a656420656e636f756e746572207479706500000000006044820152606401610678565b50505050565b60006101c3611731565b610d8e30610d896101b9565b61173b565b600080610d9a846111c6565b9050610e18604051806101c001604052806000815260200160008019168152602001600080191681526020016000815260200160008152602001600015158152602001600015158152602001600081526020016000815260200160608152602001606081526020016060815260200160608152602001606081525090565b60005b8451811015610f2d576000858281518110610e3857610e386141fd565b602002602001015190508781600001518560800151604051602001610e70939291909283526020830191909152604082015260600190565b6040516020818303038152906040528051906020012060001c9450610e9481611751565b9250610e9e610d73565b6001600160a01b0316632c31567a84876040518363ffffffff1660e01b8152600401610ecb929190614391565b6000604051808303816000875af1158015610eea573d6000803e3d6000fd5b505050506040513d6000823e601f3d908101601f19168201604052610f12919081019061459f565b9250610f2487856080015184866119e3565b50600101610e1b565b504260a083015260808201805190610f44826142a1565b905250610f518583611b87565b600080610f5c610d73565b6001600160a01b0316631386fabc856040518263ffffffff1660e01b8152600401610f879190614735565b6040805180830381865afa158015610fa3573d6000803e3d6000fd5b505050506040513d601f19601f82011682018060405250810190610fc791906147e0565b91509150811561106757610fda84611c5b565b610fe2610d73565b6040517f43c00bf7000000000000000000000000000000000000000000000000000000008152600481018990526024810187905282151560448201526001600160a01b0391909116906343c00bf790606401600060405180830381600087803b15801561104e57600080fd5b505af1158015611062573d6000803e3d6000fd5b505050505b5050505050505050565b7fffffffffffffffffffffffffffffffffffffffffffffffffffffffffffffffcc36013560601c806110a05750335b90565b6040805160018082528183019092526000918291906020808301908036833701905050905082816000815181106110dc576110dc6141fd565b602090810291909101015260006105837f74625544000000000000000000000000456e636f756e746572456e74697479008360027e41030120012000000000000000000000000000000000000000000000000000611ed7565b60408051600180825281830190925260009182919060208083019080368337019050509050828160008151811061116e5761116e6141fd565b602090810291909101015260006105837f74625544000000000000000000000000456e636f756e746572456e746974790083837e41030120012000000000000000000000000000000000000000000000000000611ed7565b6112216040805161014081019091528060008152602001600081526020016000815260200160001515815260200160008152602001600081526020016000815260200160001515815260200160608152602001606081525090565b604080516001808252818301909252600091602080830190803683370190505090508281600081518110611257576112576141fd565b6020908102919091010152600080806112b07f74625544000000000000000000000000436f6d626174456e636f756e74657200857ea3080201202001202020010000000000000000000000000000000000000000611f94565b9250925092506112c1838383612064565b9695505050505050565b604080516001808252818301909252600091829190602080830190803683370190505090508281600081518110611304576113046141fd565b602090810291909101015260006105837f74625544000000000000000000000000416476656e74757265457363726f770083837e20010020000000000000000000000000000000000000000000000000000000611ed7565b604080516001808252818301909252600091602080830190803683370190505090508281600081518110611392576113926141fd565b6020026020010181815250506114107f74625544000000000000000000000000416476656e74757265457363726f770060001b826000856040516020016113db91815260200190565b60408051601f198184030181529190527e20010020000000000000000000000000000000000000000000000000000000612147565b505050565b60408051600180825281830190925260009160208083019080368337019050509050828160008151811061144b5761144b6141fd565b6020026020010181815250506114107f74625544000000000000000000000000456e636f756e746572456e746974790060001b8260028560405160200161149491815260200190565b60408051601f198184030181529190527e41030120012000000000000000000000000000000000000000000000000000612147565b60006114ec826000015183602001518460400151856060015186608001516121fc565b905060006114fd8360a00151612250565b9050600061150e8460a00151612263565b60408051600180825281830190925291925060009190602080830190803683370190505090508581600081518110611548576115486141fd565b60209081029190910101526115807f6f745544000000000000000000000000436f6d6261744f7574636f6d6500000082868686612294565b505050505050565b6040805160018082528183019092526000916020808301908036833701905050905082816000815181106115be576115be6141fd565b6020026020010181815250506114107f74625544000000000000000000000000436f6d626174456e636f756e7465720060001b8260028560405160200161160791815260200190565b60408051601f198184030181529190527ea3080201202001202020010000000000000000000000000000000000000000612147565b604080516001808252818301909252600091602080830190803683370190505090508281600081518110611672576116726141fd565b6020026020010181815250506114107f74625544000000000000000000000000456e636f756e746572456e746974790060001b8260008560405160200161149491815260200190565b6040805160018082528183019092526000916020808301908036833701905050905082816000815181106116f1576116f16141fd565b60209081029190910101526114107f74625544000000000000000000000000456e636f756e746572456e746974790082600061172c8661230a565b612321565b60006101c36123d3565b61174d61174783612412565b826124af565b5050565b6117cd604051806101c001604052806000815260200160008019168152602001600080191681526020016000815260200160008152602001600015158152602001600015158152602001600081526020016000815260200160608152602001606081526020016060815260200160608152602001606081525090565b60006117d7610d73565b6001600160a01b031663b0ebc45e84604001516040518263ffffffff1660e01b815260040161180891815260200190565b600060405180830381865afa158015611825573d6000803e3d6000fd5b505050506040513d6000823e601f3d908101601f1916820160405261184d9190810190614813565b90506000815167ffffffffffffffff81111561186b5761186b613f4e565b604051908082528060200260200182016040528015611894578160200160208202803683370190505b5090506000825167ffffffffffffffff8111156118b3576118b3613f4e565b6040519080825280602002602001820160405280156118dc578160200160208202803683370190505b5090506000835167ffffffffffffffff8111156118fb576118fb613f4e565b604051908082528060200260200182016040528015611924578160200160208202803683370190505b5090506000845167ffffffffffffffff81111561194357611943613f4e565b60405190808252806020026020018201604052801561196c578160200160208202803683370190505b50604080516101c081018252898201518152895160208083019190915290990151908901526000606089018190526080890181905260a0890181905260c08901524360e089015242610100890152610120880152506101408601939093526101608501919091526101808401526101a08301525090565b6000611a7a826000015183602001518460400151856060015186608001518760a001518860c001518960e001518a610100015160408051602081019a909a52898101989098526060890196909652608088019490945260a0870192909252151560f890811b60c0870152901515901b60c185015260c284015260e28084019190915281518084039091018152610102909201905290565b90506000611aa4836101200151846101400151856101600151866101800151876101a001516124fb565b90506000611ace846101200151856101400151866101600151876101800151886101a00151612549565b6040805160038082526080820190925291925060009190602082016060803683370190505090508781600081518110611b0957611b096141fd565b6020026020010181815250508660001b81600181518110611b2c57611b2c6141fd565b6020026020010181815250508560001b81600281518110611b4f57611b4f6141fd565b60209081029190910101526110677f6f745544000000000000000000000000416374696f6e4f7574636f6d6500000082868686612294565b6000611bb9826000015183602001518460400151856060015186608001518760a001518860c001518960e0015161258c565b90506000611bd18361010001518461012001516125ca565b90506000611be98461010001518561012001516125ee565b60408051600180825281830190925291925060009190602080830190803683370190505090508581600081518110611c2357611c236141fd565b60209081029190910101526115807f74625544000000000000000000000000436f6d626174456e636f756e7465720082868686612294565b6000805b82610120015151811015611d99578261012001518181518110611c8457611c846141fd565b60200260200101519150611c96610d73565b6001600160a01b031663fa1becc4836040518263ffffffff1660e01b8152600401611cc391815260200190565b602060405180830381865afa158015611ce0573d6000803e3d6000fd5b505050506040513d601f19601f82011682018060405250810190611d04919061425d565b8015611d815750611d13610d73565b6001600160a01b031663525b0e1e836040518263ffffffff1660e01b8152600401611d4091815260200190565b602060405180830381865afa158015611d5d573d6000803e3d6000fd5b505050506040513d601f19601f82011682018060405250810190611d81919061425d565b15611d9157611d9182600061262a565b600101611c5f565b5060005b82610100015151811015611410578261010001518181518110611dc257611dc26141fd565b60200260200101519150611dd4610d73565b6001600160a01b031663fa1becc4836040518263ffffffff1660e01b8152600401611e0191815260200190565b602060405180830381865afa158015611e1e573d6000803e3d6000fd5b505050506040513d601f19601f82011682018060405250810190611e42919061425d565b8015611ebf5750611e51610d73565b6001600160a01b031663525b0e1e836040518263ffffffff1660e01b8152600401611e7e91815260200190565b602060405180830381865afa158015611e9b573d6000803e3d6000fd5b505050506040513d601f19601f82011682018060405250810190611ebf919061425d565b15611ecf57611ecf82600061262a565b600101611d9d565b600080611ee26123d3565b9050306001600160a01b03821603611f0857611f00868686866126af565b915050610583565b6040517f8c364d590000000000000000000000000000000000000000000000000000000081526001600160a01b03821690638c364d5990611f53908990899089908990600401614848565b602060405180830381865afa158015611f70573d6000803e3d6000fd5b505050506040513d601f19601f82011682018060405250810190611f009190614309565b6060600060606000611fa46123d3565b9050306001600160a01b03821603611fcd57611fc18787876126e5565b9350935093505061205b565b6040517f419b58fd0000000000000000000000000000000000000000000000000000000081526001600160a01b0382169063419b58fd90612016908a908a908a90600401614877565b600060405180830381865afa158015612033573d6000803e3d6000fd5b505050506040513d6000823e601f3d908101601f19168201604052611fc19190810190614928565b93509350939050565b6120bf6040805161014081019091528060008152602001600081526020016000815260200160001515815260200160008152602001600081526020016000815260200160001515815260200160608152602001606081525090565b6120c8846127ed565b80151560e08a015260c0890182905260a089018390526080890184905284151560608a015260408901869052602089018790528888600281111561210e5761210e6142bb565b600281111561211f5761211f6142bb565b81525050505050505050506121348383612871565b6101208301526101008201529392505050565b60006121516123d3565b9050306001600160a01b038216036121755761217086868686866128c0565b611580565b6040517f390baae00000000000000000000000000000000000000000000000000000000081526001600160a01b0382169063390baae0906121c290899089908990899089906004016149c1565b600060405180830381600087803b1580156121dc57600080fd5b505af11580156121f0573d6000803e3d6000fd5b50505050505050505050565b604080516020810187905285151560f890811b9282019290925284151590911b604182015260428101839052606281018290526060906082015b604051602081830303815290604052905095945050505050565b60006101b38251602002603881901b1790565b606061226e8261230a565b60405160200161227e9190614a08565b6040516020818303038152906040529050919050565b600061229e6123d3565b9050306001600160a01b038216036122bd5761217086868686866128d5565b6040517f298314fb0000000000000000000000000000000000000000000000000000000081526001600160a01b0382169063298314fb906121c29089908990899089908990600401614a24565b60608161231a81602060006128eb565b9392505050565b600061232b6123d3565b9050306001600160a01b0382160361234e576123498585858561294b565b6123cc565b6040517fef6ea8620000000000000000000000000000000000000000000000000000000081526001600160a01b0382169063ef6ea86290612399908890889088908890600401614a75565b600060405180830381600087803b1580156123b357600080fd5b505af11580156123c7573d6000803e3d6000fd5b505050505b5050505050565b7f629a4c26e296b22a8e0856e9f6ecb2d1008d7e00081111962cd175fa7488e175546000906001600160a01b03168061240d573391505090565b919050565b60408051600180825281830190925260009182919060208083019080368337019050509050826001600160a01b031660001b81600081518110612457576124576141fd565b602090810291909101015260006105837f7462776f726c6400000000000000000053797374656d5265676973747279000083837e20010020000000000000000000000000000000000000000000000000000000611ed7565b6124b98282612986565b61174d576124c6826129e4565b816040517fd787b737000000000000000000000000000000000000000000000000000000008152600401610678929190614ab4565b60006112c18651602002865160200286516001028651600102865160010260d881901b60b083901b608885901b606087901b603889901b898901880187018601171717171795945050505050565b60606125548661230a565b61255d8661230a565b61256686612b21565b61256f86612b21565b61257886612b21565b604051602001612236959493929190614adf565b606088888888888888886040516020016125ad989796959493929190614b4a565b604051602081830303815290604052905098975050505050505050565b600061231a83516020028351602002606081901b603883901b838301171792915050565b60606125f98361230a565b6126028361230a565b604051602001612613929190614bae565b604051602081830303815290604052905092915050565b612632610d73565b6001600160a01b031663fa1becc4836040518263ffffffff1660e01b815260040161265f91815260200190565b602060405180830381865afa15801561267c573d6000803e3d6000fd5b505050506040513d601f19601f820116820180604052508101906126a0919061425d565b1561174d5761174d8282612b31565b60006126dc6126be8686612bea565b60ff858116601b0360080285901c166126d78587612c40565b612c79565b95945050505050565b60606000606060006126f685612cca565b9050612703878783612ced565b9350600061271086612d26565b905080156127e2576127228888612d63565b935066ffffffffffffff841667ffffffffffffffff81111561274657612746613f4e565b6040519080825280601f01601f191660200182016040528015612770576020820181803683370190505b5092506020830160005b828160ff1610156127df5760006127928b8b84612d76565b905060006127af888460ff166028026038011c64ffffffffff1690565b90506127be8260008387612df6565b6127c88185614bdd565b9350505080806127d790614bf0565b91505061277a565b50505b505093509350939050565b600080600080600080600080612807896000016020015190565b60f81c600281111561281b5761281b6142bb565b60218a015160418b015160618c0151929a50909850965061283d905b60f81c90565b60628a015160828b015160a28c015160c28d01519398509196509450925061286490612837565b9050919395975091939597565b6060806000603885901c64ffffffffff16612895612890868484612ec2565b612f50565b935090508064ffffffffff606087901c16016128b5612890868484612ec2565b925050509250929050565b6123cc85856128cf8487612c40565b85612f61565b6123cc85858585856128e68b613205565b61328a565b825160609060006128fc8583614c0f565b9050604051925060208301601f19603f83860101166040528184526000602088015b8482101561293f578051871b8352918701916001919091019060200161291e565b50505050509392505050565b60006129578585612d63565b90506000612974828560ff166028026038011c64ffffffffff1690565b905061158086868660008588886135c3565b60006129d47f6e730000000000000000000000000000000000000000000000000000000000007dffffffffffffffffffffffffffff00000000000000000000000000000000851617836139ef565b8061231a575061231a83836139ef565b606081601081901b60006129f783613ab8565b9050827fffffffffffffffffffffffffffff000000000000000000000000000000000000831615612a5257612a4d7fffffffffffffffffffffffffffff0000000000000000000000000000000000008416613acf565b612a89565b6040518060400160405280600681526020017f3c726f6f743e00000000000000000000000000000000000000000000000000008152505b7fffffffffffffffffffffffffffffffff00000000000000000000000000000000831615612abf57612aba83613acf565b612af6565b6040518060400160405280600681526020017f3c726f6f743e00000000000000000000000000000000000000000000000000008152505b604051602001612b0893929190614c26565b6040516020818303038152906040529350505050919050565b60608161231a81600160f86128eb565b604080516001808252818301909252600091602080830190803683370190505090508281600081518110612b6757612b676141fd565b6020026020010181815250506114107f74625544000000000000000000000000537061776e656400000000000000000060001b82600085604051602001612bb591151560f81b815260010190565b60408051601f198184030181529190527e01010001000000000000000000000000000000000000000000000000000000612147565b60008282604051602001612bff929190614cb4565b60408051601f1981840301815291905280516020909101207f86425bff6b57326c7859e89024fe4f238ca327a1ae4a230180dd2f0e88aaa7d9189392505050565b600080805b8360ff16811015612c7157612c6760ff601b83900360080287901c1683614bdd565b9150600101612c45565b509392505050565b600060208210612c9f57602082048401935060208281612c9b57612c9b6142d1565b0691505b508254600882021b602082900380841115612c71576001850154600882021c82179150509392505050565b60006008612cda6002602061428e565b612ce49190614c0f565b9190911c919050565b606081600003612d0c575060408051602081019091526000815261231a565b6000612d188585612bea565b90506126dc81600085613b73565b60006008600180612d396002602061428e565b612d43919061428e565b612d4d919061428e565b612d579190614c0f565b8260ff911c1692915050565b600061231a612d728484613b96565b5490565b60008383604051602001612d8b929190614cb4565b604051602081830303815290604052805190602001208260f81b7effffffffffffffffffffffffffffffffffffffffffffffffffffffffffffff19167f3b4102da22e32d82fc925482184f16c09fd4281692720b87d124aef6da48a0f1181860001c90509392505050565b8215612e7d5760208310612e2057602083048401935060208381612e1c57612e1c6142d1565b0692505b8215612e7d576020839003600081841015612e435750600019600884021c612e4d565b50600019600882021c5b8554600886021b818451168219821617845250818411612e6e575050610d6d565b50600194909401939182900391015b5b60208210612e9f5783548152600190930192601f1990910190602001612e7e565b8115610d6d576000600019600884021c8251865482191691161782525050505050565b600081831180612ed25750835182115b15612f0f578383836040517f23230fa300000000000000000000000000000000000000000000000000000000815260040161067893929190614cf0565b60208401612f1d8482614bdd565b90506000612f2b858561428e565b6fffffffffffffffffffffffffffffffff1660809290921b9190911795945050505050565b6060600061231a8360206000613bec565b7f6f74000000000000000000000000000000000000000000000000000000000000847fffff0000000000000000000000000000000000000000000000000000000000001603612feb57837f8c0b5119d4cec7b284c6b1b39252a03d1e2f2d7451a5895562524c113bb952be848484604051612fde93929190614d15565b60405180910390a2610d6d565b6000612ff78585612bea565b9050600061300486613c5b565b905060005b81518110156130d9576000828281518110613026576130266141fd565b602002602001015190506130526004826affffffffffffffffffffff1916613ce490919063ffffffff16565b156130d0576040517f964f667d000000000000000000000000000000000000000000000000000000008152606082901c9063964f667d9061309d908b908b908b908b90600401614d48565b600060405180830381600087803b1580156130b757600080fd5b505af11580156130cb573d6000803e3d6000fd5b505050505b50600101613009565b50857f8c0b5119d4cec7b284c6b1b39252a03d1e2f2d7451a5895562524c113bb952be86868660405161310e93929190614d15565b60405180910390a2613129828565ffffffffffff1685613d02565b60005b81518110156131fc576000828281518110613149576131496141fd565b602002602001015190506131756008826affffffffffffffffffffff1916613ce490919063ffffffff16565b156131f3576040517fa8ba8721000000000000000000000000000000000000000000000000000000008152606082901c9063a8ba8721906131c0908b908b908b908b90600401614d48565b600060405180830381600087803b1580156131da57600080fd5b505af11580156131ee573d6000803e3d6000fd5b505050505b5060010161312c565b50505050505050565b60007f8b9d8c8b908d9affffffffffffffffffab9e9d939a8d00000000000000000000820161325457507e60030220202000000000000000000000000000000000000000000000000000919050565b6101b36132817f746273746f72650000000000000000005461626c65730000000000000000000084613d18565b60206000612c79565b7f6f74000000000000000000000000000000000000000000000000000000000000867fffff000000000000000000000000000000000000000000000000000000000000160361331657857f8dbb3a9672eebfd3773e72dd9c102393436816d832c7ba9e1e1ac8fcadcac7a9868686866040516133099493929190614d81565b60405180910390a2611580565b600061332187613c5b565b905060005b81518110156133fa576000828281518110613343576133436141fd565b6020026020010151905061336f6001826affffffffffffffffffffff1916613ce490919063ffffffff16565b156133f1576040517f57066c9c000000000000000000000000000000000000000000000000000000008152606082901c906357066c9c906133be908c908c908c908c908c908c90600401614dc0565b600060405180830381600087803b1580156133d857600080fd5b505af11580156133ec573d6000803e3d6000fd5b505050505b50600101613326565b50867f8dbb3a9672eebfd3773e72dd9c102393436816d832c7ba9e1e1ac8fcadcac7a9878787876040516134319493929190614d81565b60405180910390a260006134458888612bea565b9050600060208701905061345d826000895184613d34565b600061346885612d26565b11156134ec57600061347a8a8a613b96565b878155905060208601915060008060005b61349488612d26565b8160ff1610156134e7576134a98d8d83612d76565b92506134c48a8260ff166028026038011c64ffffffffff1690565b91506134d38360008488613d34565b6134dd8286614bdd565b945060010161348b565b505050505b60005b83518110156121f057600084828151811061350c5761350c6141fd565b602002602001015190506135386002826affffffffffffffffffffff1916613ce490919063ffffffff16565b156135ba576040517f5b28cdaf000000000000000000000000000000000000000000000000000000008152606082901c90635b28cdaf90613587908e908e908e908e908e908e90600401614dc0565b600060405180830381600087803b1580156135a157600080fd5b505af11580156135b5573d6000803e3d6000fd5b505050505b506001016134ef565b7f7462000000000000000000000000000000000000000000000000000000000000877fffff0000000000000000000000000000000000000000000000000000000000001614613683577f7462000000000000000000000000000000000000000000000000000000000000878860405160200161364191815260200190565b60408051601f19818403018152908290527f31b46683000000000000000000000000000000000000000000000000000000008252610678939291600401614e19565b600061369e828760ff166028026038011c64ffffffffff1690565b9050600083518564ffffffffff16836136b7919061428e565b6136c19190614bdd565b90508082141580156136e35750816136d98688614e5a565b64ffffffffff1614155b15613733576040517fa65010b400000000000000000000000000000000000000000000000000000000815264ffffffffff8088166004830152808716602483015283166044820152606401610678565b818664ffffffffff161115613784576040517f7e8578d30000000000000000000000000000000000000000000000000000000081526004810183905264ffffffffff87166024820152604401610678565b6000613791848984613df3565b9050600061379e8b613c5b565b905060005b81518110156138695760008282815181106137c0576137c06141fd565b602002602001015190506137ec6010826affffffffffffffffffffff1916613ce490919063ffffffff16565b1561386057606081901c6001600160a01b03166355eb5a288e8e8e8e8e8d8f6040518863ffffffff1660e01b815260040161382d9796959493929190614e7f565b600060405180830381600087803b15801561384757600080fd5b505af115801561385b573d6000803e3d6000fd5b505050505b506001016137a3565b5064ffffffffff881660005b8a60ff168160ff1610156138a85761389c878260ff166028026038011c64ffffffffff1690565b90910190600101613875565b508b7ffe158a7adba34e256807c8a149028d3162918713c3838afc643ce9f96716ebfd8c8c848c888d6040516138e396959493929190614edd565b60405180910390a2508284146139045760006138ff8c8c613b96565b839055505b60006139118c8c8c612d76565b9050613925818a64ffffffffff1689613d02565b5060005b8151811015611062576000828281518110613946576139466141fd565b602002602001015190506139726020826affffffffffffffffffffff1916613ce490919063ffffffff16565b156139e657606081901c6001600160a01b031663635845338e8e8e8e8e8a8f6040518863ffffffff1660e01b81526004016139b39796959493929190614e7f565b600060405180830381600087803b1580156139cd57600080fd5b505af11580156139e1573d6000803e3d6000fd5b505050505b50600101613929565b604080516002808252606082018352600092839291906020830190803683370190505090508381600081518110613a2857613a286141fd565b602002602001018181525050826001600160a01b031660001b81600181518110613a5457613a546141fd565b60209081029190910101526000613aac7f7462776f726c640000000000000000005265736f75726365416363657373000083837e01010001000000000000000000000000000000000000000000000000000000611ed7565b90506126dc8160f81c90565b6000613ac660706010614bdd565b9190911b919050565b606060005b6010811015613b34577fffffffffffffffffffffffffffffffff000000000000000000000000000000008316600882021b7fff000000000000000000000000000000000000000000000000000000000000001615613b3457600101613ad4565b604080517fffffffffffffffffffffffffffffffff00000000000000000000000000000000851660208201528151603090910190915281815280610583565b60405160208101601f19603f8484010116604052828252612c7185858584612df6565b60008282604051602001613bab929190614cb4565b60408051601f1981840301815291905280516020909101207f14e2fcc58e58e68ec7edc30c8d50dccc3ce2714a623ec81f46b6a63922d76569189392505050565b60606000613bfa8560801c90565b90506fffffffffffffffffffffffffffffffff85166000858281613c2057613c206142d1565b04905060405193506020840160208202810160405281855260005b8281101561293f578451871c825293870193602090910190600101613c3b565b60408051600180825281830190925260609160009190602080830190803683370190505090508281600081518110613c9557613c956141fd565b60209081029190910101526000613ccd7f746273746f726500000000000000000053746f7265486f6f6b730000000000008383613ec1565b9050610583613cdf8260008451612ec2565b613efb565b60008160ff1682613cf58560581c90565b1660ff1614905092915050565b61141083838351613d138560200190565b613d34565b6040805160208101849052908101829052600090606001612bff565b8215613dae5760208310613d5e57602083048401935060208381613d5a57613d5a6142d1565b0692505b8215613dae5760208390036000600019600885021c1990506008850281811c91508351811c9050811987541682821617875550818411613d9f575050610d6d565b50600194909401939182900391015b5b60208210613dd05780518455600190930192601f1990910190602001613daf565b8115610d6d576000600019600884021c8554835182191691161785555050505050565b600064ffffffffff821115613e37576040517f7149a3c100000000000000000000000000000000000000000000000000000000815260048101839052602401610678565b8366ffffffffffffff811660ff851660280260380182901c64ffffffffff16808510613e695780850382019150613e71565b848103820391505b5064ffffffffff6038602860ff8816020181811b197fffffffffffffffffffffffffffffffffffffffffffffffffff000000000000009490941690921792909216918416901b1790509392505050565b6060610583613ed1858585612d76565b6000613ef685613ee18989612d63565b9060ff166028026038011c64ffffffffff1690565b613b73565b6060600061231a8360156000613bec565b600060208284031215613f1e57600080fd5b81357fffffffff000000000000000000000000000000000000000000000000000000008116811461231a57600080fd5b634e487b7160e01b600052604160045260246000fd5b6040516060810167ffffffffffffffff81118282101715613f8757613f87613f4e565b60405290565b6040516101c0810167ffffffffffffffff81118282101715613f8757613f87613f4e565b604051601f8201601f1916810167ffffffffffffffff81118282101715613fda57613fda613f4e565b604052919050565b600067ffffffffffffffff821115613ffc57613ffc613f4e565b5060051b60200190565b600082601f83011261401757600080fd5b8135602061402c61402783613fe2565b613fb1565b8083825260208201915060208460051b87010193508684111561404e57600080fd5b602086015b8481101561406a5780358352918301918301614053565b509695505050505050565b61ffff8116811461408557600080fd5b50565b6000806000806080858703121561409e57600080fd5b843567ffffffffffffffff808211156140b657600080fd5b6140c288838901614006565b955060208701359150808211156140d857600080fd5b506140e587828801614006565b93505060408501356140f681614075565b9150606085013561410681614075565b939692955090935050565b60006020828403121561412357600080fd5b5035919050565b6000806000606080858703121561414057600080fd5b84359350602080860135935060408087013567ffffffffffffffff81111561416757600080fd5b8701601f8101891361417857600080fd5b803561418661402782613fe2565b81815260609091028201840190848101908b8311156141a457600080fd5b928501925b828410156141ec5786848d0312156141c15760008081fd5b6141c9613f64565b8435815286850135878201528585013586820152825292860192908501906141a9565b809750505050505050509250925092565b634e487b7160e01b600052603260045260246000fd5b6000806040838503121561422657600080fd5b825161423181614075565b602084015190925061424281614075565b809150509250929050565b8051801515811461240d57600080fd5b60006020828403121561426f57600080fd5b61231a8261424d565b634e487b7160e01b600052601160045260246000fd5b818103818111156101b3576101b3614278565b600060001982036142b4576142b4614278565b5060010190565b634e487b7160e01b600052602160045260246000fd5b634e487b7160e01b600052601260045260246000fd5b60008261430457634e487b7160e01b600052601260045260246000fd5b500490565b60006020828403121561431b57600080fd5b5051919050565b60008151808452602080850194506020840160005b8381101561435357815187529582019590820190600101614337565b509495945050505050565b60008151808452602080850194506020840160005b83811015614353578151151587529582019590820190600101614373565b60408152825160408201526020830151606082015260408301516080820152606083015160a0820152608083015160c0820152600060a08401516143d960e084018215159052565b5060c08401516101006143ef8185018315159052565b60e08601519150610120828186015281870151925061014091508282860152808701519250506101c0610160818187015261442e610200870185614322565b93508288015192507fffffffffffffffffffffffffffffffffffffffffffffffffffffffffffffffc061018081888703018189015261446d8686614322565b9550828a015194506101a0925081888703018389015261448d868661435e565b9550808a01519450508087860301838801526144a9858561435e565b945081890151935080878603016101e08801525050506144c9828261435e565b925050508260208301529392505050565b600082601f8301126144eb57600080fd5b815160206144fb61402783613fe2565b8083825260208201915060208460051b87010193508684111561451d57600080fd5b602086015b8481101561406a5780518352918301918301614522565b600082601f83011261454a57600080fd5b8151602061455a61402783613fe2565b8083825260208201915060208460051b87010193508684111561457c57600080fd5b602086015b8481101561406a576145928161424d565b8352918301918301614581565b6000602082840312156145b157600080fd5b815167ffffffffffffffff808211156145c957600080fd5b908301906101c082860312156145de57600080fd5b6145e6613f8d565b825181526020830151602082015260408301516040820152606083015160608201526080830151608082015261461e60a0840161424d565b60a082015261462f60c0840161424d565b60c082015260e083015160e0820152610100808401518183015250610120808401518381111561465e57600080fd5b61466a888287016144da565b828401525050610140808401518381111561468457600080fd5b614690888287016144da565b82840152505061016080840151838111156146aa57600080fd5b6146b688828701614539565b82840152505061018080840151838111156146d057600080fd5b6146dc88828701614539565b8284015250506101a080840151838111156146f657600080fd5b61470288828701614539565b918301919091525095945050505050565b6003811061473157634e487b7160e01b600052602160045260246000fd5b9052565b60208152614747602082018351614713565b602082015160408201526040820151606082015260006060830151614770608084018215159052565b50608083015160a083015260a083015160c083015260c083015160e083015260e08301516101006147a48185018315159052565b8085015191505061014061012081818601526147c4610160860184614322565b90860151858203601f1901838701529092506112c18382614322565b600080604083850312156147f357600080fd5b6147fc8361424d565b915061480a6020840161424d565b90509250929050565b60006020828403121561482557600080fd5b815167ffffffffffffffff81111561483c57600080fd5b610583848285016144da565b8481526080602082015260006148616080830186614322565b60ff949094166040830152506060015292915050565b8381526060602082015260006148906060830185614322565b9050826040830152949350505050565b60005b838110156148bb5781810151838201526020016148a3565b50506000910152565b600082601f8301126148d557600080fd5b815167ffffffffffffffff8111156148ef576148ef613f4e565b6149026020601f19601f84011601613fb1565b81815284602083860101111561491757600080fd5b6105838260208301602087016148a0565b60008060006060848603121561493d57600080fd5b835167ffffffffffffffff8082111561495557600080fd5b614961878388016148c4565b945060208601519350604086015191508082111561497e57600080fd5b5061498b868287016148c4565b9150509250925092565b600081518084526149ad8160208601602086016148a0565b601f01601f19169290920160200192915050565b85815260a0602082015260006149da60a0830187614322565b60ff8616604084015282810360608401526149f58186614995565b9150508260808301529695505050505050565b60008251614a1a8184602087016148a0565b9190910192915050565b85815260a060208201526000614a3d60a0830187614322565b8281036040840152614a4f8187614995565b90508460608401528281036080840152614a698185614995565b98975050505050505050565b848152608060208201526000614a8e6080830186614322565b60ff851660408401528281036060840152614aa98185614995565b979650505050505050565b604081526000614ac76040830185614995565b90506001600160a01b03831660208301529392505050565b60008651614af1818460208b016148a0565b865190830190614b05818360208b016148a0565b8651910190614b18818360208a016148a0565b8551910190614b2b8183602089016148a0565b8451910190614b3e8183602088016148a0565b01979650505050505050565b600060038a10614b6a57634e487b7160e01b600052602160045260246000fd5b5060f898891b815260018101979097526021870195909552921515861b6041860152604285019190915260628401526082830152151590911b60a282015260a30190565b60008351614bc08184602088016148a0565b835190830190614bd48183602088016148a0565b01949350505050565b808201808211156101b3576101b3614278565b600060ff821660ff8103614c0657614c06614278565b60010192915050565b80820281158282048414176101b3576101b3614278565b7fffff0000000000000000000000000000000000000000000000000000000000008416815260007f3a000000000000000000000000000000000000000000000000000000000000008060028401528451614c878160038601602089016148a0565b808401905081600382015284519150614ca78260048301602088016148a0565b0160040195945050505050565b8281526000602080830184516020860160005b82811015614ce357815184529284019290840190600101614cc7565b5091979650505050505050565b606081526000614d036060830186614995565b60208301949094525060400152919050565b606081526000614d286060830186614322565b65ffffffffffff8516602084015282810360408401526112c18185614995565b848152608060208201526000614d616080830186614322565b65ffffffffffff851660408401528281036060840152614aa98185614995565b608081526000614d946080830187614322565b8281036020840152614da68187614995565b90508460408401528281036060840152614aa98185614995565b86815260c060208201526000614dd960c0830188614322565b8281036040840152614deb8188614995565b90508560608401528281036080840152614e058186614995565b9150508260a0830152979650505050505050565b7fffff000000000000000000000000000000000000000000000000000000000000841681528260208201526060604082015260006126dc6060830184614995565b64ffffffffff818116838216019080821115614e7857614e78614278565b5092915050565b87815260e060208201526000614e9860e0830189614322565b60ff8816604084015264ffffffffff87811660608501528616608084015260a0830185905282810360c0840152614ecf8185614995565b9a9950505050505050505050565b60c081526000614ef060c0830189614322565b60ff8816602084015265ffffffffffff8716604084015264ffffffffff8616606084015284608084015282810360a0840152614f2c8185614995565b999850505050505050505056fea26469706673582212209a8607cb38bd2f7f34794a7dbdfd949f0418022129a478ae19ff7a875d94fbe764736f6c63430008180033",
        "linkReferences": {}
    },
    "methodIdentifiers": {
        "_msgSender()": "119df25f",
        "_msgValue()": "45ec9354",
        "_world()": "e1af802c",
        "executePvPCombat(uint256,bytes32,(bytes32,bytes32,uint256)[])": "ee9f5a1c",
        "fleePvp(bytes32)": "bb800c58",
        "isValidPvP(bytes32[],bytes32[],uint16,uint16)": "1c99320d",
        "supportsInterface(bytes4)": "01ffc9a7"
    },
    "id": 269
}