{"abi":[{"type":"function","name":"_msgSender","inputs":[],"outputs":[{"name":"sender","type":"address","internalType":"address"}],"stateMutability":"view"},{"type":"function","name":"_msgValue","inputs":[],"outputs":[{"name":"value","type":"uint256","internalType":"uint256"}],"stateMutability":"view"},{"type":"function","name":"_world","inputs":[],"outputs":[{"name":"","type":"address","internalType":"address"}],"stateMutability":"view"},{"type":"function","name":"calculateExpMultiplier","inputs":[{"name":"characterId","type":"bytes32","internalType":"bytes32"}],"outputs":[{"name":"_expMultiplier","type":"uint256","internalType":"uint256"}],"stateMutability":"view"},{"type":"function","name":"distributePveRewards","inputs":[{"name":"encounterId","type":"bytes32","internalType":"bytes32"},{"name":"randomNumber","type":"uint256","internalType":"uint256"}],"outputs":[{"name":"_expAmount","type":"uint256","internalType":"uint256"},{"name":"_goldAmount","type":"uint256","internalType":"uint256"},{"name":"_itemIdsDropped","type":"uint256[]","internalType":"uint256[]"}],"stateMutability":"nonpayable"},{"type":"function","name":"supportsInterface","inputs":[{"name":"interfaceId","type":"bytes4","internalType":"bytes4"}],"outputs":[{"name":"","type":"bool","internalType":"bool"}],"stateMutability":"pure"},{"type":"event","name":"Store_SetRecord","inputs":[{"name":"tableId","type":"bytes32","indexed":true,"internalType":"ResourceId"},{"name":"keyTuple","type":"bytes32[]","indexed":false,"internalType":"bytes32[]"},{"name":"staticData","type":"bytes","indexed":false,"internalType":"bytes"},{"name":"encodedLengths","type":"bytes32","indexed":false,"internalType":"EncodedLengths"},{"name":"dynamicData","type":"bytes","indexed":false,"internalType":"bytes"}],"anonymous":false},{"type":"event","name":"Store_SpliceStaticData","inputs":[{"name":"tableId","type":"bytes32","indexed":true,"internalType":"ResourceId"},{"name":"keyTuple","type":"bytes32[]","indexed":false,"internalType":"bytes32[]"},{"name":"start","type":"uint48","indexed":false,"internalType":"uint48"},{"name":"data","type":"bytes","indexed":false,"internalType":"bytes"}],"anonymous":false},{"type":"error","name":"InvalidRewardState","inputs":[]},{"type":"error","name":"NotAuthorizedCaller","inputs":[]},{"type":"error","name":"Slice_OutOfBounds","inputs":[{"name":"data","type":"bytes","internalType":"bytes"},{"name":"start","type":"uint256","internalType":"uint256"},{"name":"end","type":"uint256","internalType":"uint256"}]}],"bytecode":{"object":"0x60808060405234610016576135de908161001b8239f35b5f80fdfe60806040526004361015610011575f80fd5b5f3560e01c806301ffc9a714610074578063119df25f1461006f5780633da0f9621461006a57806345ec9354146100655780639f48799c146100605763e1af802c1461005b575f80fd5b610616565b61018d565b610128565b610102565b6100d6565b346100c85760203660031901126100c85760043563ffffffff60e01b81168091036100c85763b5dee12760e01b81149081156100b7575b50151560805260206080f35b6301ffc9a760e01b149050816100ab565b5f80fd5b5f9103126100c857565b346100c8575f3660031901126100c85760206100f061093e565b6040516001600160a01b039091168152f35b346100c85760203660031901126100c85760206101206004356106c8565b604051908152f35b346100c8575f3660031901126100c8576020604051601f193601358152f35b608060209160608101938152829483820152606060408201528551809452019301915f5b828110610179575050505090565b83518552938101939281019260010161016b565b346100c85760403660031901126100c8575f8060606101b26101ad61093e565b610986565b6101bd600435610a48565b926101c6610804565b916040850151158015610609575b6105f7576101e0610851565b946101005f916101f360e0820151151590565b156105e05761012081015160e0870152015160c08501525b5f955b60c0850151908151881015610273575061023361022d886001936108e2565b51610b15565b9661024660e089015160a08801516106bb565b60a08701525f60a08901511361025e575b019561020e565b6080860161026c81516108f6565b9052610257565b8592915086905f5b60e0850151805182101561037c576102968261029f926108e2565b51808752610c5b565b80604087015260a08601518082115f1461036957505060015b6102c28651610c78565b9081610361575b506102d7575b60010161027b565b91926102f0610305916102ea8751610c9b565b906106bb565b936102ea60e084015187519060243590610cb8565b916103108551610d13565b61032b60c08601516103258151602435610911565b906108e2565b5161033c61033882610c78565b1590565b610347575b506102cf565b600191965061035a908651602435610f6b565b9590610341565b9050886102c9565b60059161037591610904565b11156102b8565b5050509390610389611191565b915f5b60c085015180518210156105bf5760206103a9836103e9936108e2565b5180828901526103c96103bd6103bd611d0b565b6001600160a01b031690565b6040518080958194633e86fb3160e21b8352600483019190602083019252565b03915afa90811561058b575f91610590575b50610409575b60010161038c565b906104176020860151610b15565b915f60a08401511361043c575b6104356001929360208801516111e7565b9050610401565b87610511575b60c083015161047c61046e61045b60808a015188610689565b61046860208b01516106c8565b90610662565b670de0b6b3a7640000900490565b868210801590610509575b80156104fd575b1561049b575b5050610424565b9081600194886104ae84610435966106bb565b116104d9576104d092506104c68260c08901516106bb565b60c08801526106bb565b935b9392610494565b90506104e86104f79289610904565b906104c68260c08901516106bb565b936104d2565b5060808801511561048e565b508515610487565b61051f6103bd6103bd611d0b565b602087015161053260808901518b610689565b823b156100c857604051630a143bd360e01b815260048101929092526024820152905f908290604490829084905af1801561058b57610572575b50610442565b8061057f61058592610783565b806100cc565b8861056c565b610933565b6105b2915060203d6020116105b8575b6105aa81836107d2565b81019061091b565b886103fb565b503d6105a0565b87836105dc896105d060043561128b565b60405193849384610147565b0390f35b61012081015160c0870152015160e085015261020b565b60405163ce2521ff60e01b8152600490fd5b50606085015115156101d4565b346100c8575f3660031901126100c85760206100f0611d0b565b634e487b7160e01b5f52601160045260245ffd5b906305f5e1009182810292818404149015171561065d57565b610630565b8181029291811591840414171561065d57565b634e487b7160e01b5f52601260045260245ffd5b8115610693570490565b610675565b90670de0b6b3a7640000820180921161065d57565b90600f820180921161065d57565b9190820180921161065d57565b6106d061096c565b80511561076a576106e59160208201526113a7565b5f600382111561074d57508060018160011c6001810180911161065d5791905b83831061072c5750505061072461071e61072992610644565b60011c90565b610698565b90565b919250908280156106935780830490810180911161065d57811c9190610705565b90610762575b61072461071e61072992610644565b506001610753565b6108c1565b634e487b7160e01b5f52604160045260245ffd5b6001600160401b03811161079657604052565b61076f565b61012081019081106001600160401b0382111761079657604052565b604081019081106001600160401b0382111761079657604052565b601f909101601f19168101906001600160401b0382119082101761079657604052565b604051906108028261079b565b565b6040519061010082016001600160401b0381118382101761079657604052606060e0835f81525f60208201525f60408201525f838201525f60808201525f60a08201528260c08201520152565b604051906101a082016001600160401b03811183821017610796576040525f610180838281528260208201528260408201528260608201528260808201528260a08201528260c08201528260e0820152826101008201528261012082015282610140820152826101608201520152565b634e487b7160e01b5f52603260045260245ffd5b80511561076a5760200190565b805182101561076a5760209160051b010190565b5f19811461065d5760010190565b9190820391821161065d57565b8115610693570690565b908160209103126100c8575180151581036100c85790565b6040513d5f823e3d90fd5b36603319013560601c90811561095057565b339150565b6001600160401b0381116107965760051b60200190565b60405190610979826107b7565b6001825260203681840137565b61098e61096c565b80516001600160a01b03909216911561076a57808260206109b0930152611455565b6109ea576109bc61096c565b80511561076a576109d19160208201526114c5565b60f81c61080257604051637046c88d60e01b8152600490fd5b50565b6040519061014082016001600160401b03811183821017610796576040526060610120835f81525f60208201525f60408201525f838201525f60808201525f60a08201525f60c08201525f60e0820152826101008201520152565b610a506109ed565b50610a5961096c565b9081511561076a5781610a73916020610b06940152611961565b90610b01610a829493946109ed565b94602081015160f81c90610a95826111c4565b602181015190610af1604182015191606181015160f81c90606281015190608281015190610ad98d60e0610ad260c260a286015195015160f81c90565b1515910152565b60c08d015260a08c015260808b0152151560608a0152565b6040880152602087015285611ac6565b6122be565b61012083015261010082015290565b610b1d610851565b50610b2661096c565b80511561076a57610b3b916020820152611a2e565b5050610b45610851565b90602081015190610c51604082015191610b6b610b66606083015160f81c90565b612365565b9060618101519060818101519060a18101519060c181015190610c2f8a610c2560e184015193610120610bab610ba661010184015160f81c90565b612371565b93610c1f610bc1610ba661010286015160f81c90565b93610c15610bd7610ba661010384015160f81c90565b91610c0b610c01610105610bf8610bf361010486015160f81c90565b61237d565b93015160f81c90565b1515610180870152565b6101608501611ad2565b6101408301611ade565b01611ade565b6101008c01611ade565b60e08a015260c089015260a08801526080870152606086015260408501611ac6565b6020830152815290565b610c6361096c565b80511561076a57610729916020820152611552565b610c8061096c565b80511561076a57610c959160208201526115ec565b60f81c90565b610ca361096c565b80511561076a57610729916020820152611678565b610cdf91928115610d0a575b610cd6674563918244f4000091611ae7565b610cfb57610662565b908115610693570666b1a2bc2ec50000810180911161065d5790565b506768155a43676e0000610662565b60019150610cc4565b610d1b61096c565b9081511561076a5760208201526040515f602082015260208152610d3e816107b7565b6001600160a01b03610d4e611d0b565b1691308303610d6157610802925061238c565b90823b156100c8576040516301c85d5760e51b81525f8051602061357e833981519152600482015260a06024820152925f928492839185918391610dc69190610dae9060a4850190611374565b90846044850152600319848303016064850152611b41565b6502081809000960cd1b608483015203925af1801561058b57610de65750565b8061057f61080292610783565b908160209103126100c8575190565b519060038210156100c857565b9080601f830112156100c857815190602091610e2a81610955565b93610e3860405195866107d2565b81855260208086019260051b8201019283116100c857602001905b828210610e61575050505090565b81518152908301908301610e53565b6020818303126100c85780516001600160401b03918282116100c8570190610120828403126100c857610ea16107f5565b928251845260208301516020850152610ebc60408401610e02565b6040850152606083015160608501526080830151608085015260a083015160a085015260c08301519182116100c857610ef6918301610e0f565b60c083015260e081015160e0830152610100809101519082015290565b604051602081016001600160401b03811182821017610796576040525f8152905f368137565b90610f4382610955565b610f5060405191826107d2565b8281528092610f61601f1991610955565b0190602036910137565b91929092610f7d6103bd6103bd611d0b565b6040805163014f591960e61b81526004808201889052966020939091908490829060249082905afa90811561058b57610fd4610fc660c093610fda935f91611164575b50611b66565b868082518301019101610e70565b92611ae7565b910195610fe8875151610f39565b955f955f5b895180518210156110965781611002916108e2565b518561100d82611b83565b90611088575b6064808211611080575b508751898101878152602081018590526110529161104881604084015b03601f1981018352826107d2565b5190206064900690565b10611061575b50600101610fed565b88611079916110736001949b8d6108e2565b526108f6565b9790611058565b90505f61101d565b611091906106ad565b611013565b50509750979295935050508215611157576110b083610f39565b945f5b8481106110c35750505050505090565b6110d16103bd6103bd611d0b565b906110dc81866108e2565b5191803b156100c85787516366ce565160e11b8152858101858152602081019490945260016040850152925f91849182908490829060600103925af191821561058b57600192611144575b5061113281866108e2565b5161113d828a6108e2565b52016110b3565b8061057f61115192610783565b5f611127565b5050505050610729610f13565b6111849150883d8a1161118a575b61117c81836107d2565b810190610df3565b5f610fc0565b503d611172565b61119961096c565b80511561076a578060646020610729930152611712565b634e487b7160e01b5f52602160045260245ffd5b600311156111ce57565b6111b0565b600411156111ce57565b600a11156111ce57565b6112726108029261126581519160208101516040820151611207816111c4565b6060830151608084015160a085015160c08601519160e08701519361010088015195611232876111d3565b61012089015197611242896111d3565b61126c6101806101408c01519b6112588d6111d3565b6101608101519d8e6111dd565b0151151590565b9b611bc0565b9061127b61096c565b90611285826108d5565b52611c58565b61129361096c565b9081511561076a576020820152604051600160f81b6020820152600181526112ba816107b7565b6001600160a01b036112ca611d0b565b16913083036112dd576108029250612526565b90823b156100c8576040516301c85d5760e51b81526f436f6d626174456e636f756e74657200631d18955160e21b01600482015260a06024820152925f92849283918591839161134f91906113369060a4850190611374565b6003604485015283810360031901606485015290611b41565b6aa30802012020012020200160a01b608483015203925af1801561058b57610de65750565b9081518082526020808093019301915f5b828110611393575050505090565b835185529381019392810192600101611385565b6001600160a01b036113b7611d0b565b163081036113c9575061072990611d40565b604051638c364d5960e01b81526f416476656e74757265457363726f7700631d18955160e21b0160048201526080602482015291602091839182908190611414906084830190611374565b5f6044830152630100080160dd1b606483015203915afa90811561058b575f9161143c575090565b610729915060203d60201161118a5761117c81836107d2565b6001600160a01b03611465611d0b565b16308103611477575061072990611dbf565b604051638c364d5960e01b81526f53797374656d52656769737472790000661d189ddbdc9b1960ca1b0160048201526080602482015291602091839182908190611414906084830190611374565b6001600160a01b036114d5611d0b565b163081036114e7575061072990611e2b565b604051638c364d5960e01b81526420b236b4b760591b631d18955160e21b016004820152608060248201529160209183918290819061152a906084830190611374565b5f6044830152630101000160d81b606483015203915afa90811561058b575f9161143c575090565b6001600160a01b03611562611d0b565b16308103611574575061072990611e8c565b604051638c364d5960e01b815264537461747360581b631d18955160e21b01600482015260806024820152916020918391829081906115b7906084830190611374565b600760448301526fe60d002020012020202020010101010160781b606483015203915afa90811561058b575f9161143c575090565b6001600160a01b036115fc611d0b565b1630810361160e575061072990611f1e565b604051638c364d5960e01b81525f8051602061357e8339815191526004820152608060248201529160209183918290819061164d906084830190611374565b600160448301526502081809000960cd1b606483015203915afa90811561058b575f9161143c575090565b6001600160a01b03611688611d0b565b1630810361169a575061072990611fb7565b604051638c364d5960e01b815264537461747360581b631d18955160e21b01600482015260806024820152916020918391829081906116dd906084830190611374565b600660448301526fe60d002020012020202020010101010160781b606483015203915afa90811561058b575f9161143c575090565b6001600160a01b03611722611d0b565b16308103611734575061072990612025565b604051638c364d5960e01b8152654c6576656c7360501b631d18955160e21b0160048201526080602482015291602091839182908190611414906084830190611374565b6001600160a01b03611788611d0b565b1630810361179a575061072990612087565b604051638c364d5960e01b8152674d6f62537461747360401b631d18955160e21b01600482015260806024820152916020918391829081906117e0906084830190611374565b6001604483015264210201200160d01b606483015203915afa90811561058b575f9161143c575090565b6001600160a01b0361181a611d0b565b1630810361182c575061072990612108565b604051638c364d5960e01b8152644974656d7360581b631d18955160e21b016004820152608060248201529160209183918290819061186f906084830190611374565b60016044830152660308200809010160c51b606483015203915afa90811561058b575f9161143c575090565b6001600160401b03811161079657601f01601f191660200190565b5f5b8381106118c75750505f910152565b81810151838201526020016118b8565b81601f820112156100c85780516118ed8161189b565b926118fb60405194856107d2565b818452602082840101116100c85761072991602080850191016118b6565b90916060828403126100c85781516001600160401b0392908381116100c857846119449183016118d7565b9360208201519360408301519081116100c85761072992016118d7565b6001600160a01b03611971611d0b565b1630810361198a57506119839061218b565b9192909190565b60405163419b58fd60e01b81526f436f6d626174456e636f756e74657200631d18955160e21b0160048201526060602482015292915f918491829081906119d5906064830190611374565b6aa30802012020012020200160a01b604483015203915afa90811561058b575f80935f93611a04575b50929190565b91935050611a2491503d805f833e611a1c81836107d2565b810190611919565b929092915f6119fe565b6001600160a01b03611a3e611d0b565b16308103611a50575061198390612244565b60405163419b58fd60e01b815264537461747360581b631d18955160e21b0160048201526060602482015292915f91849182908190611a93906064830190611374565b6fe60d002020012020202020010101010160781b604483015203915afa90811561058b575f80935f93611a045750929190565b611acf826111c4565b52565b600a8210156111ce5752565b611acf826111d3565b611aef61096c565b80511561076a57610c95916020820152611778565b90606051918281525f5b838110611b2d5750825f602080949584010152601f8019910116010190565b806020916080015182828501015201611b0e565b90602091611b5a815180928185528580860191016118b6565b601f01601f1916010190565b611b6e61096c565b80511561076a57610729916020820152612716565b611b8b61096c565b80511561076a5761072991602082015261180a565b611ba9816111d3565b60f81b9052565b600a8110156111ce5760f81b9052565b9b9a999897969594939291906040519c60208e015260408d0152611be3816111c4565b60f81b60608c015260618b015260818a015260a189015260c188015260e1870152611c0d816111d3565b60f81b6101018601526101028501611c2491611ba0565b6101038401611c3291611ba0565b6101048301611c4091611bb0565b151560f81b61010582015260e681526107298161079b565b6001600160a01b03611c68611d0b565b16308103611c7b575090610802916127b0565b90813b156100c85760405163298314fb60e01b815264537461747360581b631d18955160e21b01600482015260a06024820152925f9284929091839185918391611cfa9190611ce590611cd29060a4860190611374565b6003199283868303016044870152611b41565b90846064850152838203016084840152611b04565b03925af1801561058b57610de65750565b7f629a4c26e296b22a8e0856e9f6ecb2d1008d7e00081111962cd175fa7488e175546001600160a01b03168061072957503390565b60405160208160208101936f416476656e74757265457363726f7700631d18955160e21b0185526040820160208251919201935f5b828110611da857505050611d92925003601f1981018352826107d2565b5190205f8051602061355e833981519152185490565b855184529481019486945092810192600101611d75565b60405160208160208101936f53797374656d52656769737472790000661d189ddbdc9b1960ca1b0185526040820160208251919201935f5b828110611e1457505050611d92925003601f1981018352826107d2565b855184529481019486945092810192600101611df7565b60405160208160208101936420b236b4b760591b631d18955160e21b0185526040820160208251919201935f5b828110611e7557505050611d92925003601f1981018352826107d2565b855184529481019486945092810192600101611e58565b611e9590612bcd565b5f905f5b60078110611eec575081816020821015611ed6575b505080548260031b1b916020039081602011611ec957505090565b600101549060031b1c1790565b90809350601f925060051c019116905f80611eae565b9160ff6fe60d002020012020202020010101010160781b84601b0360031b1c16810180911161065d5791600101611e99565b604051611f338161103a602082019485612a35565b5190205f8051602061355e833981519152185f905f5b60018110611f8f575081816020821015611f79575b505080548260031b1b916020039081600111611ec957505090565b90809350601f925060051c019116905f80611f5e565b9160ff6502081809000960cd1b84601b0360031b1c16810180911161065d5791600101611f49565b611fc090612bcd565b5f905f5b60068110611ff3575081816020821015611ed657505080548260031b1b916020039081602011611ec957505090565b9160ff6fe60d002020012020202020010101010160781b84601b0360031b1c16810180911161065d5791600101611fc4565b6040516020816020810193654c6576656c7360501b631d18955160e21b0185526040820160208251919201935f5b82811061207057505050611d92925003601f1981018352826107d2565b855184529481019486945092810192600101612053565b60405161209c8161103a602082019485612a74565b5190205f8051602061355e833981519152185f905f5b600181106120e1575081816020821015611f7957505080548260031b1b916020039081600111611ec957505090565b9160ff64210201200160d01b84601b0360031b1c16810180911161065d57916001016120b2565b60405161211d8161103a602082019485612aba565b5190205f8051602061355e833981519152185f905f5b60018110612162575081816020821015611ed657505080548260031b1b916020039081602011611ec957505090565b9160ff660308200809010160c51b84601b0360031b1c16810180911161065d5791600101612133565b61219c61219782612c43565b613034565b916121a6826130eb565b549266ffffffffffffff8416926121d56121bf8561189b565b946121cd60405196876107d2565b80865261189b565b602085019490601f190136863793915f925b60ff841690600282101561223a57908161221f6122249364ffffffffff8b61220f8a8a612d2a565b956028026038011c168094612d8c565b6106bb565b9260ff80911690811461065d57600101926121e7565b5050949392915050565b5f90612251606091612cac565b60405190602090601f19908161012585011660405260e68452602084019260e691925b818310156122a65750508061228a575b50505092565b5f199060031b1c908183511691199054161790525f8080612284565b81600185839495979654875201940194019190612274565b919064ffffffffff808460381c16906122df6122da8385612dd6565b613176565b9460601c16810191828211801561235b575b61232657908160208281940101928391011161065d57820391821161065d576107299160018060801b03169060801b17613176565b6040516323230fa360e01b8152606060048201529283929161234c906064850190611b41565b91602484015260448301520390fd5b50805183116122f1565b60ff16610729816111c4565b60ff16610729816111d3565b60ff16600a8110156111ce5790565b919061239783612cc1565b916123a06131cb565b905f5b8251811015612447576123d76123ca6123bc83866108e2565b516001600160581b03191690565b6001600160581b03191690565b9060049182808260581c16146123f3575b5060019150016123a3565b60601c803b156100c857855f918983612421966040519788958694859363964f667d60e01b85528401612e87565b03925af191821561058b57600192156123e8578061057f61244192610783565b5f6123e8565b50929190612492826040946040515f8051602061353e8339815191526f456e636f756e746572456e7469747900631d18955160e21b01918061248a868d83612e2b565b0390a26133f7565b5f5b815181101561251e576124ad6123ca6123bc83856108e2565b6008808260581c16146124c4575b50600101612494565b60601c90813b156100c857845163a8ba872160e01b8152915f9083908183816124f18a8e60048401612e87565b03925af191821561058b5760019261250b575b50906124bb565b8061057f61251892610783565b5f612504565b505050509050565b5f9291835b600380861015612564576aa30802012020012020200160a01b601b87900390911b1c60ff16810190811061065d5760019094019361252b565b5065ffffffffffff9194501661257982612c43565b6125816132ab565b905f5b825181101561260e5761259d6123ca6123bc83866108e2565b9060049182808260581c16146125b9575b506001915001612584565b60601c803b156100c857855f9188838c966125e86040519889968795869463964f667d60e01b86528501612ec6565b03925af191821561058b57600192156125ae578061057f61260892610783565b5f6125ae565b5094919061265b8383604098875f8051602061353e8339815191526040518061265387876f436f6d626174456e636f756e74657200631d18955160e21b019684612e56565b0390a2613444565b5f5b81518110156126e8576126766123ca6123bc83856108e2565b6008808260581c161461268d575b5060010161265d565b60601c90813b156100c857875163a8ba872160e01b8152915f9083908183816126bb8b8b8e60048501612ec6565b03925af191821561058b576001926126d5575b5090612684565b8061057f6126e292610783565b5f6126ce565b50505050509050565b906020828203126100c85781516001600160401b0381116100c85761072992016118d7565b6001600160a01b03612726611d0b565b16308103612738575061072990612f16565b604051631e78897760e01b8152634d6f627360601b631d18955160e21b01600482015260606024820152915f91839182908190612779906064830190611374565b85604483015203915afa90811561058b575f91612794575090565b61072991503d805f833e6127a881836107d2565b8101906126f1565b60408051655461626c657360501b66746273746f726560c81b016020820190815264537461747360581b631d18955160e21b018284018190528383529295929491606091908281016001600160401b038111828210176107965788525190205f8051602061355e833981519152185492612828613355565b905f5b82518110156128b7576128446123ca6123bc83866108e2565b6001808260581c161461285b575b5060010161282b565b841c90813b156100c8575f8761288a9388838c8f51978895869485936315c19b2760e21b855260048501612fd5565b03925af191821561058b576001926128a4575b5090612852565b8061057f6128b192610783565b5f61289d565b50957f8dbb3a9672eebfd3773e72dd9c102393436816d832c7ba9e1e1ac8fcadcac7a98851806128e8878a83612f99565b0390a26129036128f786612cac565b8451602086019161348a565b60ff808560e01c16806129a9575b50505f5b815181101561299f5761292e6123ca6123bc83856108e2565b6002808260581c1614612945575b50600101612915565b831c90813b156100c8578851635b28cdaf60e01b8152915f9083908183816129728c8c8f60048501612fd5565b03925af191821561058b5760019261298c575b509061293c565b8061057f61299992610783565b5f612985565b5050505050509050565b5f6129b388613115565b555f60805b8883858416106129ca57505050612911565b816129e186936129dc86600195612d67565b613455565b920116906129b8565b6953746f7265486f6f6b7360301b66746273746f726560c81b01815281516020918201928201915f5b828110612a21575050505090565b835185529381019392810192600101612a13565b5f8051602061357e833981519152815281516020918201928201915f5b828110612a60575050505090565b835185529381019392810192600101612a52565b674d6f62537461747360401b631d18955160e21b01815281516020918201928201915f5b828110612aa6575050505090565b835185529381019392810192600101612a98565b644974656d7360581b631d18955160e21b01815281516020918201928201915f5b828110612ae9575050505090565b835185529381019392810192600101612adb565b6f436f6d626174456e636f756e74657200631d18955160e21b01815281516020918201928201915f5b828110612b34575050505090565b835185529381019392810192600101612b26565b634d6f627360601b631d18955160e21b01815281516020918201928201915f5b828110612b76575050505090565b835185529381019392810192600101612b68565b64537461747360581b631d18955160e21b01815281516020918201928201915f5b828110612bb9575050505090565b835185529381019392810192600101612bab565b604051602081602081019364537461747360581b631d18955160e21b0185526040820160208251919201935f5b828110612c2c57505050612c17925003601f1981018352826107d2565b5190205f8051602061355e8339815191521890565b855184529481019486945092810192600101612bfa565b60405160208160208101936f436f6d626174456e636f756e74657200631d18955160e21b0185526040820160208251919201935f5b828110612c9557505050612c17925003601f1981018352826107d2565b855184529481019486945092810192600101612c78565b604051612c178161103a602082019485612b8a565b60405160208160208101936f456e636f756e746572456e7469747900631d18955160e21b0185526040820160208251919201935f5b828110612d1357505050612c17925003601f1981018352826107d2565b855184529481019486945092810192600101612cf6565b905f8051602061359e83398151915291604051612d4f8161103a602082019485612afd565b51902060f89190911b6001600160f81b031916181890565b905f8051602061359e83398151915291604051612d4f8161103a602082019485612b8a565b9291925b602090818310612db05780548552930192601f1990910190600101612d90565b91905092919280612dc057505050565b5f199060031b1c90818351169119905416179052565b9081518111612df5576001600160801b031660209190910160801b1790565b6040516323230fa360e01b81526060600482015292508291612e1b906064840190611b41565b905f602484015260448301520390fd5b9091612e4261072993606084526060840190611374565b915f60208201526040818403910152611b41565b65ffffffffffff612e736107299593606084526060840190611374565b931660208201526040818403910152611b41565b5f8051602061357e8339815191528152608060208201819052610729939192612eb291840190611374565b915f60408201526060818403910152611b41565b65ffffffffffff612f0261072995936f436f6d626174456e636f756e74657200631d18955160e21b018452608060208501526080840190611374565b931660408201526060818403910152611b41565b6107299064ffffffffff604051915f8051602061359e8339815191526020840184612f418483612b48565b0394612f55601f19968781018352826107d2565b5190201892612f7c6040519182612f70602082019586612b48565b039081018352826107d2565b5190205f805160206135be833981519152185460381c16906130a0565b9061072992612fb3612fc192608085526080850190611374565b908382036020850152611b41565b905f60408201526060818303910152611b04565b64537461747360581b631d18955160e21b01815260c0602082018190529094939260a09261302f9261301c929161300e91890190611374565b908782036040890152611b41565b5f60608701528581036080870152611b04565b930152565b60405190602090601f19908160e285011660405260a38452602084019260a391925b818310156130885750508061306c575b50505090565b5f199060031b1c908183511691199054161790525f8080613066565b81600185839495979654875201940194019190613056565b60408051601f19603f85830101811690925283815292602080850193925b818310156130d35750508061306c5750505090565b816001858394959796548752019401940191906130be565b6040516131008161103a602082019485612afd565b5190205f805160206135be8339815191521890565b604051602081602081019364537461747360581b631d18955160e21b0185526040820160208251919201935f5b82811061315f57505050613100925003601f1981018352826107d2565b855184529481019486945092810192600101613142565b6040805160206020600160801b0384168201810190925260016001607b1b03600584901c1680825290939260801c8285015f5b8381106131b7575050505050565b8251825291840191908401906001016131a9565b6131d361096c565b80511561076a5761325d6132556020926f456e636f756e746572456e7469747900631d18955160e21b018482015264ffffffffff604051915f8051602061359e8339815191528684018461322784836129ea565b039461323b601f19968781018352826107d2565b5190201892612f7c6040519182612f708a820195866129ea565b805190612dd6565b8060801c916015809260018060801b0316049060405193818501828460051b8701016040528386525f5b8481106132975750505050505090565b825182529185019190830190600101613287565b6132b361096c565b80511561076a576133076132556020926f436f6d626174456e636f756e74657200631d18955160e21b018482015264ffffffffff604051915f8051602061359e8339815191528684018461322784836129ea565b8060801c916015809260018060801b0316049060405193818501828460051b8701016040528386525f5b8481106133415750505050505090565b825182529185019190830190600101613331565b61335d61096c565b80511561076a576133a961325560209264537461747360581b631d18955160e21b018482015264ffffffffff604051915f8051602061359e8339815191528684018461322784836129ea565b8060801c916015809260018060801b0316049060405193818501828460051b8701016040528386525f5b8481106133e35750505050505090565b8251825291850191908301906001016133d3565b81519060208093019190925b8082101561342c57508061341657505050565b5f199060031b1c90818354169119905116179055565b6001839482939451815501930191601f190190613403565b8251610802936020019290916134ad565b9190915f905b60209081831061347b5784518155930192601f199091019060010161345b565b92939190508061341657505050565b92919260209081831061347b5784518155930192601f199091019060010161345b565b9093929193806134dc575b5092909260209081831061347b5784518155930192601f199091019060010161345b565b602081101561352d575b80156134b85791939082602003908360031b5f198460031b1c19811c908751901c90801983541691161781558183111561251e57600101940191601f19910101925f6134b8565b90601f908260051c0191166134e656fe8c0b5119d4cec7b284c6b1b39252a03d1e2f2d7451a5895562524c113bb952be86425bff6b57326c7859e89024fe4f238ca327a1ae4a230180dd2f0e88aaa7d974625544000000000000000000000000456e636f756e746572456e74697479003b4102da22e32d82fc925482184f16c09fd4281692720b87d124aef6da48a0f114e2fcc58e58e68ec7edc30c8d50dccc3ce2714a623ec81f46b6a63922d76569","linkReferences":{}},"methodIdentifiers":{"_msgSender()":"119df25f","_msgValue()":"45ec9354","_world()":"e1af802c","calculateExpMultiplier(bytes32)":"3da0f962","distributePveRewards(bytes32,uint256)":"9f48799c","supportsInterface(bytes4)":"01ffc9a7"},"id":383}