{"abi":[{"type":"function","name":"_msgSender","inputs":[],"outputs":[{"name":"sender","type":"address","internalType":"address"}],"stateMutability":"view"},{"type":"function","name":"_msgValue","inputs":[],"outputs":[{"name":"value","type":"uint256","internalType":"uint256"}],"stateMutability":"view"},{"type":"function","name":"_world","inputs":[],"outputs":[{"name":"","type":"address","internalType":"address"}],"stateMutability":"view"},{"type":"function","name":"calculateExpMultiplier","inputs":[{"name":"characterId","type":"bytes32","internalType":"bytes32"}],"outputs":[{"name":"_expMultiplier","type":"uint256","internalType":"uint256"}],"stateMutability":"view"},{"type":"function","name":"distributePveRewards","inputs":[{"name":"encounterId","type":"bytes32","internalType":"bytes32"},{"name":"randomNumber","type":"uint256","internalType":"uint256"}],"outputs":[{"name":"_expAmount","type":"uint256","internalType":"uint256"},{"name":"_goldAmount","type":"uint256","internalType":"uint256"},{"name":"_itemIdsDropped","type":"uint256[]","internalType":"uint256[]"}],"stateMutability":"nonpayable"},{"type":"function","name":"supportsInterface","inputs":[{"name":"interfaceId","type":"bytes4","internalType":"bytes4"}],"outputs":[{"name":"","type":"bool","internalType":"bool"}],"stateMutability":"pure"},{"type":"event","name":"Store_SetRecord","inputs":[{"name":"tableId","type":"bytes32","indexed":true,"internalType":"ResourceId"},{"name":"keyTuple","type":"bytes32[]","indexed":false,"internalType":"bytes32[]"},{"name":"staticData","type":"bytes","indexed":false,"internalType":"bytes"},{"name":"encodedLengths","type":"bytes32","indexed":false,"internalType":"EncodedLengths"},{"name":"dynamicData","type":"bytes","indexed":false,"internalType":"bytes"}],"anonymous":false},{"type":"event","name":"Store_SpliceStaticData","inputs":[{"name":"tableId","type":"bytes32","indexed":true,"internalType":"ResourceId"},{"name":"keyTuple","type":"bytes32[]","indexed":false,"internalType":"bytes32[]"},{"name":"start","type":"uint48","indexed":false,"internalType":"uint48"},{"name":"data","type":"bytes","indexed":false,"internalType":"bytes"}],"anonymous":false},{"type":"error","name":"InvalidRewardState","inputs":[]},{"type":"error","name":"NotAuthorizedCaller","inputs":[]},{"type":"error","name":"Slice_OutOfBounds","inputs":[{"name":"data","type":"bytes","internalType":"bytes"},{"name":"start","type":"uint256","internalType":"uint256"},{"name":"end","type":"uint256","internalType":"uint256"}]}],"bytecode":{"object":"0x60808060405234610016576135c7908161001b8239f35b5f80fdfe60806040526004361015610011575f80fd5b5f3560e01c806301ffc9a714610074578063119df25f1461006f5780633da0f9621461006a57806345ec9354146100655780639f48799c146100605763e1af802c1461005b575f80fd5b610673565b61018d565b610128565b610102565b6100d6565b346100c85760203660031901126100c85760043563ffffffff60e01b81168091036100c85763b5dee12760e01b81149081156100b7575b50151560805260206080f35b6301ffc9a760e01b149050816100ab565b5f80fd5b5f9103126100c857565b346100c8575f3660031901126100c85760206100f061099b565b6040516001600160a01b039091168152f35b346100c85760203660031901126100c8576020610120600435610725565b604051908152f35b346100c8575f3660031901126100c8576020604051601f193601358152f35b608060209160608101938152829483820152606060408201528551809452019301915f5b828110610179575050505090565b83518552938101939281019260010161016b565b346100c85760403660031901126100c8575f8060606101b26101ad61099b565b6109e3565b6101bd600435610aa5565b926101c6610861565b916040850151158015610666575b610654576101e06108ae565b946101005f916101f360e0820151151590565b1561063d5761012081015160e0870152015160c08501525b5f955b60c0850151908151881015610273575061023361022d8860019361093f565b51610b72565b9661024660e089015160a0880151610718565b60a08701525f60a08901511361025e575b019561020e565b6080860161026c8151610953565b9052610257565b8592915086905f5b60e0850151805182101561037c576102968261029f9261093f565b51808752610cb8565b80604087015260a08601518082115f1461036957505060015b6102c28651610cd5565b9081610361575b506102d7575b60010161027b565b91926102f0610305916102ea8751610cf8565b90610718565b936102ea60e084015187519060243590610d15565b916103108551610d70565b61032b60c0860151610325815160243561096e565b9061093f565b5161033c61033882610cd5565b1590565b610347575b506102cf565b600191965061035a908651602435610fc8565b9590610341565b9050886102c9565b60059161037591610961565b11156102b8565b5050509190935f5b60c0830151805182101561061c5760206103a1836103e19361093f565b5180828701526103c16103b56103b5611d68565b6001600160a01b031690565b6040518080958194633e86fb3160e21b8352600483019190602083019252565b03915afa9081156105e8575f916105ed575b50610401575b600101610384565b9061040f6020840151610b72565b915f60a084015113610434575b61042d600192936020860151611244565b90506103f9565b8461056e575b6080840161047061046261044f83518b6106e6565b61045c6020890151610725565b906106bf565b670de0b6b3a7640000900490565b9061047e6020870151610cf8565b6104866111ee565b1190811591610565575b811561055b575b50156104a4575b5061041c565b6104ba6104b46020870151610cf8565b82610718565b6104c26111ee565b106104f1576104e761042d9160019460c087016104e0838251610718565b9052610718565b935b93925061049e565b610502906102ea6020870151610cf8565b61050a6111ee565b1061051c575b61042d600192936104e9565b61042d6105536001936105436105306111ee565b61053d60208a0151610cf8565b90610961565b9060c087016104e0838251610718565b925050610510565b9050511589610497565b89159150610490565b61057c6103b56103b5611d68565b602085015161058f6080870151886106e6565b823b156100c857604051630a143bd360e01b815260048101929092526024820152905f908290604490829084905af180156105e8576105cf575b5061043a565b806105dc6105e2926107e0565b806100cc565b876105c9565b610990565b61060f915060203d602011610615575b610607818361082f565b810190610978565b876103f3565b503d6105fd565b84836106398861062d6004356112e8565b60405193849384610147565b0390f35b61012081015160c0870152015160e085015261020b565b60405163ce2521ff60e01b8152600490fd5b50606085015115156101d4565b346100c8575f3660031901126100c85760206100f0611d68565b634e487b7160e01b5f52601160045260245ffd5b906305f5e100918281029281840414901517156106ba57565b61068d565b818102929181159184041417156106ba57565b634e487b7160e01b5f52601260045260245ffd5b81156106f0570490565b6106d2565b90670de0b6b3a764000082018092116106ba57565b90600f82018092116106ba57565b919082018092116106ba57565b61072d6109c9565b8051156107c757610742916020820152611404565b5f60038211156107aa57508060018160011c600181018091116106ba5791905b8383106107895750505061078161077b610786926106a1565b60011c90565b6106f5565b90565b919250908280156106f0578083049081018091116106ba57811c9190610762565b906107bf575b61078161077b610786926106a1565b5060016107b0565b61091e565b634e487b7160e01b5f52604160045260245ffd5b6001600160401b0381116107f357604052565b6107cc565b61012081019081106001600160401b038211176107f357604052565b604081019081106001600160401b038211176107f357604052565b601f909101601f19168101906001600160401b038211908210176107f357604052565b6040519061085f826107f8565b565b6040519061010082016001600160401b038111838210176107f357604052606060e0835f81525f60208201525f60408201525f838201525f60808201525f60a08201528260c08201520152565b604051906101a082016001600160401b038111838210176107f3576040525f610180838281528260208201528260408201528260608201528260808201528260a08201528260c08201528260e0820152826101008201528261012082015282610140820152826101608201520152565b634e487b7160e01b5f52603260045260245ffd5b8051156107c75760200190565b80518210156107c75760209160051b010190565b5f1981146106ba5760010190565b919082039182116106ba57565b81156106f0570690565b908160209103126100c8575180151581036100c85790565b6040513d5f823e3d90fd5b36603319013560601c9081156109ad57565b339150565b6001600160401b0381116107f35760051b60200190565b604051906109d682610814565b6001825260203681840137565b6109eb6109c9565b80516001600160a01b0390921691156107c75780826020610a0d9301526114b2565b610a4757610a196109c9565b8051156107c757610a2e916020820152611522565b60f81c61085f57604051637046c88d60e01b8152600490fd5b50565b6040519061014082016001600160401b038111838210176107f3576040526060610120835f81525f60208201525f60408201525f838201525f60808201525f60a08201525f60c08201525f60e0820152826101008201520152565b610aad610a4a565b50610ab66109c9565b908151156107c75781610ad0916020610b639401526119be565b90610b5e610adf949394610a4a565b94602081015160f81c90610af282611221565b602181015190610b4e604182015191606181015160f81c90606281015190608281015190610b368d60e0610b2f60c260a286015195015160f81c90565b1515910152565b60c08d015260a08c015260808b0152151560608a0152565b6040880152602087015285611b23565b61231b565b61012083015261010082015290565b610b7a6108ae565b50610b836109c9565b8051156107c757610b98916020820152611a8b565b5050610ba26108ae565b90602081015190610cae604082015191610bc8610bc3606083015160f81c90565b6123c2565b9060618101519060818101519060a18101519060c181015190610c8c8a610c8260e184015193610120610c08610c0361010184015160f81c90565b6123ce565b93610c7c610c1e610c0361010286015160f81c90565b93610c72610c34610c0361010384015160f81c90565b91610c68610c5e610105610c55610c5061010486015160f81c90565b6123da565b93015160f81c90565b1515610180870152565b6101608501611b2f565b6101408301611b3b565b01611b3b565b6101008c01611b3b565b60e08a015260c089015260a08801526080870152606086015260408501611b23565b6020830152815290565b610cc06109c9565b8051156107c7576107869160208201526115af565b610cdd6109c9565b8051156107c757610cf2916020820152611649565b60f81c90565b610d006109c9565b8051156107c7576107869160208201526116d5565b610d3c91928115610d67575b610d33674563918244f4000091611b44565b610d58576106bf565b9081156106f0570666b1a2bc2ec5000081018091116106ba5790565b506768155a43676e00006106bf565b60019150610d21565b610d786109c9565b908151156107c75760208201526040515f602082015260208152610d9b81610814565b6001600160a01b03610dab611d68565b1691308303610dbe5761085f92506123e9565b90823b156100c8576040516301c85d5760e51b81525f80516020613567833981519152600482015260a06024820152925f928492839185918391610e239190610e0b9060a48501906113d1565b90846044850152600319848303016064850152611b9e565b6502081809000960cd1b608483015203925af180156105e857610e435750565b806105dc61085f926107e0565b908160209103126100c8575190565b519060038210156100c857565b9080601f830112156100c857815190602091610e87816109b2565b93610e95604051958661082f565b81855260208086019260051b8201019283116100c857602001905b828210610ebe575050505090565b81518152908301908301610eb0565b6020818303126100c85780516001600160401b03918282116100c8570190610120828403126100c857610efe610852565b928251845260208301516020850152610f1960408401610e5f565b6040850152606083015160608501526080830151608085015260a083015160a085015260c08301519182116100c857610f53918301610e6c565b60c083015260e081015160e0830152610100809101519082015290565b604051602081016001600160401b038111828210176107f3576040525f8152905f368137565b90610fa0826109b2565b610fad604051918261082f565b8281528092610fbe601f19916109b2565b0190602036910137565b91929092610fda6103b56103b5611d68565b6040805163014f591960e61b81526004808201889052966020939091908490829060249082905afa9081156105e85761103161102360c093611037935f916111c1575b50611bc3565b868082518301019101610ecd565b92611b44565b910195611045875151610f96565b955f955f5b895180518210156110f3578161105f9161093f565b518561106a82611be0565b906110e5575b60648082116110dd575b508751898101878152602081018590526110af916110a581604084015b03601f19810183528261082f565b5190206064900690565b106110be575b5060010161104a565b886110d6916110d06001949b8d61093f565b52610953565b97906110b5565b90505f61107a565b6110ee9061070a565b611070565b505097509792959350505082156111b45761110d83610f96565b945f5b8481106111205750505050505090565b61112e6103b56103b5611d68565b90611139818661093f565b5191803b156100c85787516366ce565160e11b8152858101858152602081019490945260016040850152925f91849182908490829060600103925af19182156105e8576001926111a1575b5061118f818661093f565b5161119a828a61093f565b5201611110565b806105dc6111ae926107e0565b5f611184565b5050505050610786610f70565b6111e19150883d8a116111e7575b6111d9818361082f565b810190610e50565b5f61101d565b503d6111cf565b6111f66109c9565b8051156107c757806064602061078693015261176f565b634e487b7160e01b5f52602160045260245ffd5b6003111561122b57565b61120d565b6004111561122b57565b600a111561122b57565b6112cf61085f926112c28151916020810151604082015161126481611221565b6060830151608084015160a085015160c08601519160e0870151936101008801519561128f87611230565b6101208901519761129f89611230565b6112c96101806101408c01519b6112b58d611230565b6101608101519d8e61123a565b0151151590565b9b611c1d565b906112d86109c9565b906112e282610932565b52611cb5565b6112f06109c9565b908151156107c7576020820152604051600160f81b60208201526001815261131781610814565b6001600160a01b03611327611d68565b169130830361133a5761085f9250612583565b90823b156100c8576040516301c85d5760e51b81526f436f6d626174456e636f756e74657200631d18955160e21b01600482015260a06024820152925f9284928391859183916113ac91906113939060a48501906113d1565b6003604485015283810360031901606485015290611b9e565b6aa30802012020012020200160a01b608483015203925af180156105e857610e435750565b9081518082526020808093019301915f5b8281106113f0575050505090565b8351855293810193928101926001016113e2565b6001600160a01b03611414611d68565b16308103611426575061078690611d9d565b604051638c364d5960e01b81526f416476656e74757265457363726f7700631d18955160e21b01600482015260806024820152916020918391829081906114719060848301906113d1565b5f6044830152630100080160dd1b606483015203915afa9081156105e8575f91611499575090565b610786915060203d6020116111e7576111d9818361082f565b6001600160a01b036114c2611d68565b163081036114d4575061078690611e1c565b604051638c364d5960e01b81526f53797374656d52656769737472790000661d189ddbdc9b1960ca1b01600482015260806024820152916020918391829081906114719060848301906113d1565b6001600160a01b03611532611d68565b16308103611544575061078690611e88565b604051638c364d5960e01b81526420b236b4b760591b631d18955160e21b01600482015260806024820152916020918391829081906115879060848301906113d1565b5f6044830152630101000160d81b606483015203915afa9081156105e8575f91611499575090565b6001600160a01b036115bf611d68565b163081036115d1575061078690611ee9565b604051638c364d5960e01b815264537461747360581b631d18955160e21b01600482015260806024820152916020918391829081906116149060848301906113d1565b600760448301526fe60d002020012020202020010101010160781b606483015203915afa9081156105e8575f91611499575090565b6001600160a01b03611659611d68565b1630810361166b575061078690611f7b565b604051638c364d5960e01b81525f80516020613567833981519152600482015260806024820152916020918391829081906116aa9060848301906113d1565b600160448301526502081809000960cd1b606483015203915afa9081156105e8575f91611499575090565b6001600160a01b036116e5611d68565b163081036116f7575061078690612014565b604051638c364d5960e01b815264537461747360581b631d18955160e21b016004820152608060248201529160209183918290819061173a9060848301906113d1565b600660448301526fe60d002020012020202020010101010160781b606483015203915afa9081156105e8575f91611499575090565b6001600160a01b0361177f611d68565b16308103611791575061078690612082565b604051638c364d5960e01b8152654c6576656c7360501b631d18955160e21b01600482015260806024820152916020918391829081906114719060848301906113d1565b6001600160a01b036117e5611d68565b163081036117f75750610786906120e4565b604051638c364d5960e01b8152674d6f62537461747360401b631d18955160e21b016004820152608060248201529160209183918290819061183d9060848301906113d1565b6001604483015264210201200160d01b606483015203915afa9081156105e8575f91611499575090565b6001600160a01b03611877611d68565b16308103611889575061078690612165565b604051638c364d5960e01b8152644974656d7360581b631d18955160e21b01600482015260806024820152916020918391829081906118cc9060848301906113d1565b60016044830152660308200809010160c51b606483015203915afa9081156105e8575f91611499575090565b6001600160401b0381116107f357601f01601f191660200190565b5f5b8381106119245750505f910152565b8181015183820152602001611915565b81601f820112156100c857805161194a816118f8565b92611958604051948561082f565b818452602082840101116100c8576107869160208085019101611913565b90916060828403126100c85781516001600160401b0392908381116100c857846119a1918301611934565b9360208201519360408301519081116100c8576107869201611934565b6001600160a01b036119ce611d68565b163081036119e757506119e0906121e8565b9192909190565b60405163419b58fd60e01b81526f436f6d626174456e636f756e74657200631d18955160e21b0160048201526060602482015292915f91849182908190611a329060648301906113d1565b6aa30802012020012020200160a01b604483015203915afa9081156105e8575f80935f93611a61575b50929190565b91935050611a8191503d805f833e611a79818361082f565b810190611976565b929092915f611a5b565b6001600160a01b03611a9b611d68565b16308103611aad57506119e0906122a1565b60405163419b58fd60e01b815264537461747360581b631d18955160e21b0160048201526060602482015292915f91849182908190611af09060648301906113d1565b6fe60d002020012020202020010101010160781b604483015203915afa9081156105e8575f80935f93611a615750929190565b611b2c82611221565b52565b600a82101561122b5752565b611b2c82611230565b611b4c6109c9565b8051156107c757610cf29160208201526117d5565b90606051918281525f5b838110611b8a5750825f602080949584010152601f8019910116010190565b806020916080015182828501015201611b6b565b90602091611bb781518092818552858086019101611913565b601f01601f1916010190565b611bcb6109c9565b8051156107c757610786916020820152612773565b611be86109c9565b8051156107c757610786916020820152611867565b611c0681611230565b60f81b9052565b600a81101561122b5760f81b9052565b9b9a999897969594939291906040519c60208e015260408d0152611c4081611221565b60f81b60608c015260618b015260818a015260a189015260c188015260e1870152611c6a81611230565b60f81b6101018601526101028501611c8191611bfd565b6101038401611c8f91611bfd565b6101048301611c9d91611c0d565b151560f81b61010582015260e68152610786816107f8565b6001600160a01b03611cc5611d68565b16308103611cd857509061085f9161280d565b90813b156100c85760405163298314fb60e01b815264537461747360581b631d18955160e21b01600482015260a06024820152925f9284929091839185918391611d579190611d4290611d2f9060a48601906113d1565b6003199283868303016044870152611b9e565b90846064850152838203016084840152611b61565b03925af180156105e857610e435750565b7f629a4c26e296b22a8e0856e9f6ecb2d1008d7e00081111962cd175fa7488e175546001600160a01b03168061078657503390565b60405160208160208101936f416476656e74757265457363726f7700631d18955160e21b0185526040820160208251919201935f5b828110611e0557505050611def925003601f19810183528261082f565b5190205f80516020613547833981519152185490565b855184529481019486945092810192600101611dd2565b60405160208160208101936f53797374656d52656769737472790000661d189ddbdc9b1960ca1b0185526040820160208251919201935f5b828110611e7157505050611def925003601f19810183528261082f565b855184529481019486945092810192600101611e54565b60405160208160208101936420b236b4b760591b631d18955160e21b0185526040820160208251919201935f5b828110611ed257505050611def925003601f19810183528261082f565b855184529481019486945092810192600101611eb5565b611ef290612c2a565b5f905f5b60078110611f49575081816020821015611f33575b505080548260031b1b916020039081602011611f2657505090565b600101549060031b1c1790565b90809350601f925060051c019116905f80611f0b565b9160ff6fe60d002020012020202020010101010160781b84601b0360031b1c1681018091116106ba5791600101611ef6565b604051611f9081611097602082019485612a92565b5190205f80516020613547833981519152185f905f5b60018110611fec575081816020821015611fd6575b505080548260031b1b916020039081600111611f2657505090565b90809350601f925060051c019116905f80611fbb565b9160ff6502081809000960cd1b84601b0360031b1c1681018091116106ba5791600101611fa6565b61201d90612c2a565b5f905f5b60068110612050575081816020821015611f3357505080548260031b1b916020039081602011611f2657505090565b9160ff6fe60d002020012020202020010101010160781b84601b0360031b1c1681018091116106ba5791600101612021565b6040516020816020810193654c6576656c7360501b631d18955160e21b0185526040820160208251919201935f5b8281106120cd57505050611def925003601f19810183528261082f565b8551845294810194869450928101926001016120b0565b6040516120f981611097602082019485612ad1565b5190205f80516020613547833981519152185f905f5b6001811061213e575081816020821015611fd657505080548260031b1b916020039081600111611f2657505090565b9160ff64210201200160d01b84601b0360031b1c1681018091116106ba579160010161210f565b60405161217a81611097602082019485612b17565b5190205f80516020613547833981519152185f905f5b600181106121bf575081816020821015611f3357505080548260031b1b916020039081602011611f2657505090565b9160ff660308200809010160c51b84601b0360031b1c1681018091116106ba5791600101612190565b6121f96121f482612ca0565b613091565b9161220382613148565b549266ffffffffffffff84169261223261221c856118f8565b9461222a604051968761082f565b8086526118f8565b602085019490601f190136863793915f925b60ff841690600282101561229757908161227c6122819364ffffffffff8b61226c8a8a612d87565b956028026038011c168094612de9565b610718565b9260ff8091169081146106ba5760010192612244565b5050949392915050565b5f906122ae606091612d09565b60405190602090601f19908161012585011660405260e68452602084019260e691925b81831015612303575050806122e7575b50505092565b5f199060031b1c908183511691199054161790525f80806122e1565b816001858394959796548752019401940191906122d1565b919064ffffffffff808460381c169061233c6123378385612e33565b613187565b9460601c1681019182821180156123b8575b6123835790816020828194010192839101116106ba5782039182116106ba576107869160018060801b03169060801b17613187565b6040516323230fa360e01b815260606004820152928392916123a9906064850190611b9e565b91602484015260448301520390fd5b508051831161234e565b60ff1661078681611221565b60ff1661078681611230565b60ff16600a81101561122b5790565b91906123f483612d1e565b916123fd6131dc565b905f5b82518110156124a457612434612427612419838661093f565b516001600160581b03191690565b6001600160581b03191690565b9060049182808260581c1614612450575b506001915001612400565b60601c803b156100c857855f91898361247e966040519788958694859363964f667d60e01b85528401612ee4565b03925af19182156105e8576001921561244557806105dc61249e926107e0565b5f612445565b509291906124ef826040946040515f805160206135278339815191526f456e636f756e746572456e7469747900631d18955160e21b0191806124e7868d83612e88565b0390a2613408565b5f5b815181101561257b5761250a612427612419838561093f565b6008808260581c1614612521575b506001016124f1565b60601c90813b156100c857845163a8ba872160e01b8152915f90839081838161254e8a8e60048401612ee4565b03925af19182156105e857600192612568575b5090612518565b806105dc612575926107e0565b5f612561565b505050509050565b5f9291835b6003808610156125c1576aa30802012020012020200160a01b601b87900390911b1c60ff1681019081106106ba57600190940193612588565b5065ffffffffffff919450166125d682612ca0565b6125de6132bc565b905f5b825181101561266b576125fa612427612419838661093f565b9060049182808260581c1614612616575b5060019150016125e1565b60601c803b156100c857855f9188838c966126456040519889968795869463964f667d60e01b86528501612f23565b03925af19182156105e8576001921561260b57806105dc612665926107e0565b5f61260b565b509491906126b88383604098875f80516020613527833981519152604051806126b087876f436f6d626174456e636f756e74657200631d18955160e21b019684612eb3565b0390a2613417565b5f5b8151811015612745576126d3612427612419838561093f565b6008808260581c16146126ea575b506001016126ba565b60601c90813b156100c857875163a8ba872160e01b8152915f9083908183816127188b8b8e60048501612f23565b03925af19182156105e857600192612732575b50906126e1565b806105dc61273f926107e0565b5f61272b565b50505050509050565b906020828203126100c85781516001600160401b0381116100c8576107869201611934565b6001600160a01b03612783611d68565b16308103612795575061078690612f73565b604051631e78897760e01b8152634d6f627360601b631d18955160e21b01600482015260606024820152915f918391829081906127d69060648301906113d1565b85604483015203915afa9081156105e8575f916127f1575090565b61078691503d805f833e612805818361082f565b81019061274e565b60408051655461626c657360501b66746273746f726560c81b016020820190815264537461747360581b631d18955160e21b018284018190528383529295929491606091908281016001600160401b038111828210176107f35788525190205f80516020613547833981519152185492612885613366565b905f5b8251811015612914576128a1612427612419838661093f565b6001808260581c16146128b8575b50600101612888565b841c90813b156100c8575f876128e79388838c8f51978895869485936315c19b2760e21b855260048501613032565b03925af19182156105e857600192612901575b50906128af565b806105dc61290e926107e0565b5f6128fa565b50957f8dbb3a9672eebfd3773e72dd9c102393436816d832c7ba9e1e1ac8fcadcac7a9885180612945878a83612ff6565b0390a261296061295486612d09565b84516020860191613473565b60ff808560e01c1680612a06575b50505f5b81518110156129fc5761298b612427612419838561093f565b6002808260581c16146129a2575b50600101612972565b831c90813b156100c8578851635b28cdaf60e01b8152915f9083908183816129cf8c8c8f60048501613032565b03925af19182156105e8576001926129e9575b5090612999565b806105dc6129f6926107e0565b5f6129e2565b5050505050509050565b5f612a1088613172565b555f60805b888385841610612a275750505061296e565b81612a3e8693612a3986600195612dc4565b613428565b92011690612a15565b6953746f7265486f6f6b7360301b66746273746f726560c81b01815281516020918201928201915f5b828110612a7e575050505090565b835185529381019392810192600101612a70565b5f80516020613567833981519152815281516020918201928201915f5b828110612abd575050505090565b835185529381019392810192600101612aaf565b674d6f62537461747360401b631d18955160e21b01815281516020918201928201915f5b828110612b03575050505090565b835185529381019392810192600101612af5565b644974656d7360581b631d18955160e21b01815281516020918201928201915f5b828110612b46575050505090565b835185529381019392810192600101612b38565b6f436f6d626174456e636f756e74657200631d18955160e21b01815281516020918201928201915f5b828110612b91575050505090565b835185529381019392810192600101612b83565b634d6f627360601b631d18955160e21b01815281516020918201928201915f5b828110612bd3575050505090565b835185529381019392810192600101612bc5565b64537461747360581b631d18955160e21b01815281516020918201928201915f5b828110612c16575050505090565b835185529381019392810192600101612c08565b604051602081602081019364537461747360581b631d18955160e21b0185526040820160208251919201935f5b828110612c8957505050612c74925003601f19810183528261082f565b5190205f805160206135478339815191521890565b855184529481019486945092810192600101612c57565b60405160208160208101936f436f6d626174456e636f756e74657200631d18955160e21b0185526040820160208251919201935f5b828110612cf257505050612c74925003601f19810183528261082f565b855184529481019486945092810192600101612cd5565b604051612c7481611097602082019485612be7565b60405160208160208101936f456e636f756e746572456e7469747900631d18955160e21b0185526040820160208251919201935f5b828110612d7057505050612c74925003601f19810183528261082f565b855184529481019486945092810192600101612d53565b905f8051602061358783398151915291604051612dac81611097602082019485612b5a565b51902060f89190911b6001600160f81b031916181890565b905f8051602061358783398151915291604051612dac81611097602082019485612be7565b9291925b602090818310612e0d5780548552930192601f1990910190600101612ded565b91905092919280612e1d57505050565b5f199060031b1c90818351169119905416179052565b9081518111612e52576001600160801b031660209190910160801b1790565b6040516323230fa360e01b81526060600482015292508291612e78906064840190611b9e565b905f602484015260448301520390fd5b9091612e9f610786936060845260608401906113d1565b915f60208201526040818403910152611b9e565b65ffffffffffff612ed061078695936060845260608401906113d1565b931660208201526040818403910152611b9e565b5f805160206135678339815191528152608060208201819052610786939192612f0f918401906113d1565b915f60408201526060818403910152611b9e565b65ffffffffffff612f5f61078695936f436f6d626174456e636f756e74657200631d18955160e21b0184526080602085015260808401906113d1565b931660408201526060818403910152611b9e565b6107869064ffffffffff604051915f805160206135878339815191526020840184612f9e8483612ba5565b0394612fb2601f199687810183528261082f565b5190201892612fd96040519182612fcd602082019586612ba5565b0390810183528261082f565b5190205f805160206135a7833981519152185460381c16906130fd565b906107869261301061301e926080855260808501906113d1565b908382036020850152611b9e565b905f60408201526060818303910152611b61565b64537461747360581b631d18955160e21b01815260c0602082018190529094939260a09261308c92613079929161306b918901906113d1565b908782036040890152611b9e565b5f60608701528581036080870152611b61565b930152565b60405190602090601f19908160e285011660405260a38452602084019260a391925b818310156130e5575050806130c9575b50505090565b5f199060031b1c908183511691199054161790525f80806130c3565b816001858394959796548752019401940191906130b3565b60408051601f19603f85830101811690925283815292602080850193925b81831015613130575050806130c95750505090565b8160018583949597965487520194019401919061311b565b60405161315d81611097602082019485612b5a565b5190205f805160206135a78339815191521890565b60405161315d81611097602082019485612be7565b6040805160206020600160801b0384168201810190925260016001607b1b03600584901c1680825290939260801c8285015f5b8381106131c8575050505050565b8251825291840191908401906001016131ba565b6131e46109c9565b8051156107c75761326e6132666020926f456e636f756e746572456e7469747900631d18955160e21b018482015264ffffffffff604051915f80516020613587833981519152868401846132388483612a47565b039461324c601f199687810183528261082f565b5190201892612fd96040519182612fcd8a82019586612a47565b805190612e33565b8060801c916015809260018060801b0316049060405193818501828460051b8701016040528386525f5b8481106132a85750505050505090565b825182529185019190830190600101613298565b6132c46109c9565b8051156107c7576133186132666020926f436f6d626174456e636f756e74657200631d18955160e21b018482015264ffffffffff604051915f80516020613587833981519152868401846132388483612a47565b8060801c916015809260018060801b0316049060405193818501828460051b8701016040528386525f5b8481106133525750505050505090565b825182529185019190830190600101613342565b61336e6109c9565b8051156107c7576133ba61326660209264537461747360581b631d18955160e21b018482015264ffffffffff604051915f80516020613587833981519152868401846132388483612a47565b8060801c916015809260018060801b0316049060405193818501828460051b8701016040528386525f5b8481106133f45750505050505090565b8251825291850191908301906001016133e4565b815161085f9260200191613473565b825161085f93602001929091613496565b9190915f905b60209081831061344e5784518155930192601f199091019060010161342e565b92939190508061345d57505050565b5f199060031b1c90818354169119905116179055565b92919260209081831061344e5784518155930192601f199091019060010161342e565b9093929193806134c5575b5092909260209081831061344e5784518155930192601f199091019060010161342e565b6020811015613516575b80156134a15791939082602003908360031b5f198460031b1c19811c908751901c90801983541691161781558183111561257b57600101940191601f19910101925f6134a1565b90601f908260051c0191166134cf56fe8c0b5119d4cec7b284c6b1b39252a03d1e2f2d7451a5895562524c113bb952be86425bff6b57326c7859e89024fe4f238ca327a1ae4a230180dd2f0e88aaa7d974625544000000000000000000000000456e636f756e746572456e74697479003b4102da22e32d82fc925482184f16c09fd4281692720b87d124aef6da48a0f114e2fcc58e58e68ec7edc30c8d50dccc3ce2714a623ec81f46b6a63922d76569","linkReferences":{}},"methodIdentifiers":{"_msgSender()":"119df25f","_msgValue()":"45ec9354","_world()":"e1af802c","calculateExpMultiplier(bytes32)":"3da0f962","distributePveRewards(bytes32,uint256)":"9f48799c","supportsInterface(bytes4)":"01ffc9a7"},"id":375}