{"abi":[{"type":"function","name":"_msgSender","inputs":[],"outputs":[{"name":"sender","type":"address","internalType":"address"}],"stateMutability":"view"},{"type":"function","name":"_msgValue","inputs":[],"outputs":[{"name":"value","type":"uint256","internalType":"uint256"}],"stateMutability":"view"},{"type":"function","name":"_world","inputs":[],"outputs":[{"name":"","type":"address","internalType":"address"}],"stateMutability":"view"},{"type":"function","name":"getArmorStats","inputs":[{"name":"itemId","type":"uint256","internalType":"uint256"}],"outputs":[{"name":"_ArmorStats","type":"tuple","internalType":"struct ArmorStatsData","components":[{"name":"agiModifier","type":"int256","internalType":"int256"},{"name":"armorModifier","type":"int256","internalType":"int256"},{"name":"hpModifier","type":"int256","internalType":"int256"},{"name":"intModifier","type":"int256","internalType":"int256"},{"name":"minLevel","type":"uint256","internalType":"uint256"},{"name":"strModifier","type":"int256","internalType":"int256"},{"name":"armorType","type":"uint8","internalType":"enum ArmorType"}]}],"stateMutability":"view"},{"type":"function","name":"getConsumableStats","inputs":[{"name":"itemId","type":"uint256","internalType":"uint256"}],"outputs":[{"name":"_consumableStats","type":"tuple","internalType":"struct ConsumableStatsData","components":[{"name":"minDamage","type":"int256","internalType":"int256"},{"name":"maxDamage","type":"int256","internalType":"int256"},{"name":"minLevel","type":"uint256","internalType":"uint256"},{"name":"effects","type":"bytes32[]","internalType":"bytes32[]"}]}],"stateMutability":"view"},{"type":"function","name":"getItemBalance","inputs":[{"name":"entityId","type":"bytes32","internalType":"bytes32"},{"name":"itemId","type":"uint256","internalType":"uint256"}],"outputs":[{"name":"_balance","type":"uint256","internalType":"uint256"}],"stateMutability":"view"},{"type":"function","name":"getItemType","inputs":[{"name":"itemId","type":"uint256","internalType":"uint256"}],"outputs":[{"name":"","type":"uint8","internalType":"enum ItemType"}],"stateMutability":"view"},{"type":"function","name":"getStarterConsumables","inputs":[],"outputs":[{"name":"itemIds","type":"uint256[]","internalType":"uint256[]"},{"name":"amounts","type":"uint256[]","internalType":"uint256[]"}],"stateMutability":"view"},{"type":"function","name":"getStarterItems","inputs":[{"name":"class","type":"uint8","internalType":"enum Classes"}],"outputs":[{"name":"data","type":"tuple","internalType":"struct StarterItemsData","components":[{"name":"itemIds","type":"uint256[]","internalType":"uint256[]"},{"name":"amounts","type":"uint256[]","internalType":"uint256[]"}]}],"stateMutability":"view"},{"type":"function","name":"getTotalSupply","inputs":[{"name":"tokenId","type":"uint256","internalType":"uint256"}],"outputs":[{"name":"_supply","type":"uint256","internalType":"uint256"}],"stateMutability":"view"},{"type":"function","name":"getWeaponStats","inputs":[{"name":"itemId","type":"uint256","internalType":"uint256"}],"outputs":[{"name":"_weaponStats","type":"tuple","internalType":"struct WeaponStatsData","components":[{"name":"agiModifier","type":"int256","internalType":"int256"},{"name":"intModifier","type":"int256","internalType":"int256"},{"name":"hpModifier","type":"int256","internalType":"int256"},{"name":"maxDamage","type":"int256","internalType":"int256"},{"name":"minDamage","type":"int256","internalType":"int256"},{"name":"minLevel","type":"uint256","internalType":"uint256"},{"name":"strModifier","type":"int256","internalType":"int256"},{"name":"effects","type":"bytes32[]","internalType":"bytes32[]"}]}],"stateMutability":"view"},{"type":"function","name":"isItemOwner","inputs":[{"name":"itemId","type":"uint256","internalType":"uint256"},{"name":"account","type":"address","internalType":"address"}],"outputs":[{"name":"","type":"bool","internalType":"bool"}],"stateMutability":"view"},{"type":"function","name":"isStarterItem","inputs":[{"name":"itemId","type":"uint256","internalType":"uint256"}],"outputs":[{"name":"","type":"bool","internalType":"bool"}],"stateMutability":"view"},{"type":"function","name":"setStarterConsumables","inputs":[{"name":"itemIds","type":"uint256[]","internalType":"uint256[]"},{"name":"amounts","type":"uint256[]","internalType":"uint256[]"}],"outputs":[],"stateMutability":"nonpayable"},{"type":"function","name":"setStarterItemPool","inputs":[{"name":"itemId","type":"uint256","internalType":"uint256"},{"name":"isStarter","type":"bool","internalType":"bool"}],"outputs":[],"stateMutability":"nonpayable"},{"type":"function","name":"setStarterItems","inputs":[{"name":"class","type":"uint8","internalType":"enum Classes"},{"name":"itemIds","type":"uint256[]","internalType":"uint256[]"},{"name":"amounts","type":"uint256[]","internalType":"uint256[]"}],"outputs":[],"stateMutability":"nonpayable"},{"type":"function","name":"supportsInterface","inputs":[{"name":"interfaceId","type":"bytes4","internalType":"bytes4"}],"outputs":[{"name":"","type":"bool","internalType":"bool"}],"stateMutability":"pure"},{"type":"event","name":"Store_SetRecord","inputs":[{"name":"tableId","type":"bytes32","indexed":true,"internalType":"ResourceId"},{"name":"keyTuple","type":"bytes32[]","indexed":false,"internalType":"bytes32[]"},{"name":"staticData","type":"bytes","indexed":false,"internalType":"bytes"},{"name":"encodedLengths","type":"bytes32","indexed":false,"internalType":"EncodedLengths"},{"name":"dynamicData","type":"bytes","indexed":false,"internalType":"bytes"}],"anonymous":false},{"type":"event","name":"Store_SpliceStaticData","inputs":[{"name":"tableId","type":"bytes32","indexed":true,"internalType":"ResourceId"},{"name":"keyTuple","type":"bytes32[]","indexed":false,"internalType":"bytes32[]"},{"name":"start","type":"uint48","indexed":false,"internalType":"uint48"},{"name":"data","type":"bytes","indexed":false,"internalType":"bytes"}],"anonymous":false},{"type":"error","name":"ArrayMismatch","inputs":[]},{"type":"error","name":"NotArmor","inputs":[]},{"type":"error","name":"NotConsumable","inputs":[]},{"type":"error","name":"NotWeapon","inputs":[]},{"type":"error","name":"Slice_OutOfBounds","inputs":[{"name":"data","type":"bytes","internalType":"bytes"},{"name":"start","type":"uint256","internalType":"uint256"},{"name":"end","type":"uint256","internalType":"uint256"}]},{"type":"error","name":"World_AccessDenied","inputs":[{"name":"resource","type":"string","internalType":"string"},{"name":"caller","type":"address","internalType":"address"}]}],"bytecode":{"object":"0x60808060405234610016576138f7908161001b8239f35b5f80fdfe60806040526004361015610011575f80fd5b5f3560e01c806301ffc9a714610124578063119df25f1461011f5780632cc861d61461011a5780633a0208e71461011557806340a5ed2a146101105780634514e97e1461010b57806345ec93541461010657806363ff228714610101578063651eec8a146100fc57806392ab723e146100f7578063958b6918146100f2578063b25518c3146100ed578063c19a4ef5146100e8578063c34021ac146100e3578063e1af802c146100de578063f5d4659f146100d95763f8b82a8f146100d4575f80fd5b610dc2565b610d48565b610d1d565b610be8565b610b12565b610a81565b610a15565b6109a8565b6108f2565b610702565b610683565b610559565b61047a565b61034e565b61022e565b610188565b3461017a57602036600319011261017a5760043563ffffffff60e01b811680910361017a5760209063b5dee12760e01b8114908115610169575b506040519015158152f35b6301ffc9a760e01b1490505f61015e565b5f80fd5b5f91031261017a57565b3461017a575f36600319011261017a5760206101a2610f2d565b6040516001600160a01b039091168152f35b60043590600382101561017a57565b9081518082526020808093019301915f5b8281106101e2575050505090565b8351855293810193928101926001016101d4565b9061022b91602081526020610216835160408385015260608401906101c3565b920151906040601f19828503019101526101c3565b90565b3461017a57602036600319011261017a576102476101b4565b61024f610e01565b50610258610e01565b50610261610f44565b9060038110156102e0578151156102db576102d79160ff6102879216602082015261121d565b91506102c46102b2610297610e01565b9364ffffffffff808560381c16906102b76102b28385611ccd565b612af7565b9560601c16810191611d22565b60208301528152604051918291826101f6565b0390f35b610f74565b610414565b9081518082526020808093019301915f5b828110610304575050505090565b8351855293810193928101926001016102f6565b60a0606061022b9360208452805160208501526020810151604085015260408101518285015201519160808082015201906102e5565b3461017a57602036600319011261017a5760043561036a610e2a565b5061037481610fab565b60068110156102e0576003036104025761038c610e2a565b50610395610f44565b8051156102db576103f16103ec6103ba836102d795602064ffffffffff9601526112d4565b9194906103c5610e2a565b956020810151906060604082015191015160408901526020880152865260381c1690611ccd565b612b4c565b606082015260405191829182610318565b604051632739a31160e21b8152600490fd5b634e487b7160e01b5f52602160045260245ffd5b91909160c060e0820193805183526020810151602084015260408101516040840152606081015160608401526080810151608084015260a081015160a084015201519060048210156102e05760c00152565b3461017a57602036600319011261017a57600435610496610e5e565b506104a081610fab565b60068110156102e057600103610547576104b8610e5e565b506104c1610f44565b8051156102db576104d691602082015261136a565b50506104e0610e5e565b602082015160408301516060840151608085015160a086015160e060c088015197015160f81c9660048810156102e0576105206102d79860c0890161193d565b60a08701526080860152606085015260408401526020830152815260405191829182610428565b604051631ea9cd6160e31b8152600490fd5b3461017a5760031960403682011261017a5760243580151580910361017a57610589610583610f2d565b30610fd5565b610591610f44565b8051156102db5760043560208201526040519160f81b6020830152600182526105b982610818565b6001600160a01b036105c9611d9b565b163081036105de57506105dc92506123e1565b005b809291923b1561017a576040516301c85d5760e51b81526f537461727465724974656d506f6f6c00631d18955160e21b01600482015260a06024820152935f93859384928692849261064e92916106399060a48601906109e2565b91856044860152848303016064850152611986565b630101000160d81b608483015203925af1801561067e5761066b57005b806106786105dc92610800565b8061017e565b610f13565b3461017a575f36600319011261017a576020604051601f193601358152f35b61012060e061022b936020845280516020850152602081015160408501526040810151606085015260608101516080850152608081015160a085015260a081015160c085015260c0810151828501520151916101008082015201906102e5565b3461017a57602036600319011261017a5760043561071e610ea4565b5061072881610fab565b60068110156102e0576107da5761073d610ea4565b50610746610f44565b8051156102db576107c96103ec61076b836102d795602064ffffffffff960152611401565b919490610776610ea4565b9560208101519060408101519060608101519060808101519060a08101519060e060c082015191015160c08d015260a08c015260808b015260608a015260408901526020880152865260381c1690611ccd565b60e0820152604051918291826106a2565b604051633539c88f60e01b8152600490fd5b634e487b7160e01b5f52604160045260245ffd5b6001600160401b03811161081357604052565b6107ec565b604081019081106001600160401b0382111761081357604052565b606081019081106001600160401b0382111761081357604052565b602081019081106001600160401b0382111761081357604052565b601f909101601f19168101906001600160401b0382119082101761081357604052565b81601f8201121561017a578035916020916001600160401b038411610813578360051b90604051946108c085840187610869565b8552838086019282010192831161017a578301905b8282106108e3575050505090565b813581529083019083016108d5565b3461017a57606036600319011261017a5761090b6101b4565b6001600160401b0360243581811161017a5761092b90369060040161088c565b9060443590811161017a5761094490369060040161088c565b61094f610583610f2d565b8151815103610996578061096661096c92846119d3565b926119ed565b90610975610f44565b60038410156102e0578051156102db5760ff6105dc94166020820152611a3d565b60405163b7c1140d60e01b8152600490fd5b3461017a57602036600319011261017a576109c1610f44565b8051156102db576109da60209160043583820152611528565b604051908152f35b9081518082526020808093019301915f5b828110610a01575050505090565b8351855293810193928101926001016109f3565b3461017a575f36600319011261017a57610a73610a466102b2610a3e610a39610f5e565b611bba565b805190611ccd565b6102d7610a5f6102b2610a3e610a5a610f5e565b611c51565b6040519384936040855260408501906109e2565b9083820360208501526109e2565b3461017a57604036600319011261017a576001600160401b0360043581811161017a57610ab290369060040161088c565b9060243590811161017a57610acb90369060040161088c565b90610ad7610583610f2d565b805182510361099657610af1826109666105dc94846119d3565b90610afa610f5e565b611afb565b9190602083019260068210156102e05752565b3461017a57602036600319011261017a57610b2b61111d565b50610b34610f44565b8051156102db57610b4c906004356020820152611499565b9190610b5661111d565b90610b67602084015160f81c610f9c565b926021810151906061604182015191015160608501526040840152602083015260068310156102e0576102d79364ffffffffff610bae92610bdc95855260381c1690611ccd565b610bd26001600160801b038216610bc481611dd0565b92602084019060801c6137ed565b6080820152610ef1565b60405191829182610aff565b3461017a57604036600319011261017a57610c13610c07610c07611d9b565b6001600160a01b031690565b6040516313c42aaf60e21b815260048035908201526020918290829060249082905afa90811561067e57610c9b9183915f91610cf0575b50610c67610c07610c61610c5c610f5e565b61189b565b60601c90565b604051627eeac760e11b81526001600160a01b03909216600483015260248035908301529092839190829081906044820190565b03915afa90811561067e576102d7925f92610cc3575b50506040519081529081906020820190565b610ce29250803d10610ce9575b610cda8183610869565b810190610f1e565b5f80610cb1565b503d610cd0565b610d109150823d8411610d16575b610d088183610869565b810190610efe565b5f610c4a565b503d610cfe565b3461017a575f36600319011261017a5760206101a2611d9b565b6001600160a01b0381160361017a57565b3461017a57604036600319011261017a57602435610d6581610d37565b60405190610d7282610833565b60028252602082019060403683378251156102db576001600160a01b031690528051600110156102db57610db06102d79160043560408201526115d9565b60405190151581529081906020820190565b3461017a57602036600319011261017a57610ddb610f44565b8051156102db57610df46020916004358382015261166a565b60f81c6040519015158152f35b60408051919082016001600160401b038111838210176108135760405260606020838281520152565b60405190608082016001600160401b0381118382101761081357604052606080835f81525f60208201525f60408201520152565b6040519060e082016001600160401b03811183821017610813576040525f60c0838281528260208201528260408201528260608201528260808201528260a08201520152565b6040519061010082016001600160401b0381118382101761081357604052606060e0835f81525f60208201525f60408201525f838201525f60808201525f60a08201525f60c08201520152565b5160068110156102e05790565b9081602091031261017a575161022b81610d37565b6040513d5f823e3d90fd5b9081602091031261017a575190565b36603319013560601c908115610f3f57565b339150565b60405190610f5182610818565b6001825260203681840137565b604051610f6a8161084e565b5f8152905f368137565b634e487b7160e01b5f52603260045260245ffd5b80518210156102db5760209160051b010190565b60ff1660068110156102e05790565b610fb3610f44565b908151156102db5781610fcd91602061022b940152611703565b60f81c610f9c565b610fdd610f44565b80516001600160a01b03929190156102db5782610fff92166020820152611793565b90611008610f44565b8051156102db57600160801b600160f01b038316616e7360f01b17602082015261103190611803565b60601c90831603611040575050565b608081901b6001600160801b031916906110e090602490601081901b6001600160901b0319168061110e57506110746123bf565b935b8061110057506110846123bf565b60405194859261ffff60f01b166020840152601d60f91b908160228501526110b6815180926020602388019101611172565b83019060238201526110d18251809360208785019101611172565b01036004810184520182610869565b6110fc60405192839263d787b73760e01b8452600484016119ab565b0390fd5b6111099061318d565b611084565b6111179061318d565b93611076565b6040519060a082016001600160401b038111838210176108135760405260606080835f81525f60208201525f60408201525f838201520152565b6001600160401b03811161081357601f01601f191660200190565b5f5b8381106111835750505f910152565b8181015183820152602001611174565b81601f8201121561017a5780516111a981611157565b926111b76040519485610869565b8184526020828401011161017a5761022b9160208085019101611172565b909160608284031261017a5781516001600160401b03929083811161017a5784611200918301611193565b93602082015193604083015190811161017a5761022b9201611193565b6001600160a01b0361122d611d9b565b16308103611246575061123f90611e02565b9192909190565b60405163419b58fd60e01b81525f8051602061387783398151915260048201526060602482015292915f918491829081906112859060648301906109e2565b600160e11b604483015203915afa90811561067e575f80935f936112aa575b50929190565b919350506112ca91503d805f833e6112c28183610869565b8101906111d5565b929092915f6112a4565b6001600160a01b036112e4611d9b565b163081036112f6575061123f90611eb8565b60405163419b58fd60e01b81526f436f6e73756d61626c65537461747300631d18955160e21b0160048201526060602482015292915f918491829081906113419060648301906109e2565b6503001809010160cd1b604483015203915afa90811561067e575f80935f936112aa5750929190565b6001600160a01b0361137a611d9b565b1630810361138c575061123f90611f4f565b60405163419b58fd60e01b81526941726d6f72537461747360301b631d18955160e21b0160048201526060602482015292915f918491829081906113d49060648301906109e2565b69c107002020202020200160a81b604483015203915afa90811561067e575f80935f936112aa5750929190565b6001600160a01b03611411611d9b565b16308103611423575061123f90611ff7565b60405163419b58fd60e01b81526a576561706f6e537461747360281b631d18955160e21b0160048201526060602482015292915f9184918290819061146c9060648301906109e2565b690700380901010101010160ad1b604483015203915afa90811561067e575f80935f936112aa5750929190565b6001600160a01b036114a9611d9b565b163081036114bb575061123f9061208e565b60405163419b58fd60e01b8152644974656d7360581b631d18955160e21b0160048201526060602482015292915f918491829081906114fe9060648301906109e2565b660308200809010160c51b604483015203915afa90811561067e575f80935f936112aa5750929190565b6001600160a01b03611538611d9b565b1630810361154a575061022b90612125565b604051638c364d5960e01b81526a546f74616c537570706c7960281b6674624974656d7360c81b01600482015260806024820152916020918391829081906115969060848301906109e2565b6001604483015264020010010160d51b606483015203915afa90811561067e575f916115c0575090565b61022b915060203d602011610ce957610cda8183610869565b6001600160a01b036115e9611d9b565b163081036115fb575061022b906121ac565b604051638c364d5960e01b8152654f776e65727360501b6674624974656d7360c81b01600482015260806024820152916020918391829081906116429060848301906109e2565b5f6044830152630100080160dd1b606483015203915afa90811561067e575f916115c0575090565b6001600160a01b0361167a611d9b565b16308103611690575061168c9061307b565b5490565b604051638c364d5960e01b81526f537461727465724974656d506f6f6c00631d18955160e21b01600482015260806024820152916020918391829081906116db9060848301906109e2565b5f6044830152630101000160d81b606483015203915afa90811561067e575f916115c0575090565b6001600160a01b03611713611d9b565b16308103611725575061022b90612227565b604051638c364d5960e01b8152644974656d7360581b631d18955160e21b01600482015260806024820152916020918391829081906117689060848301906109e2565b5f6044830152660308200809010160c51b606483015203915afa90811561067e575f916115c0575090565b6001600160a01b036117a3611d9b565b163081036117b5575061022b9061223c565b604051638c364d5960e01b81526f53797374656d52656769737472790000661d189ddbdc9b1960ca1b01600482015260806024820152916020918391829081906116429060848301906109e2565b6001600160a01b03611813611d9b565b16308103611825575061022b906122a8565b604051638c364d5960e01b81526f4e616d6573706163654f776e65720000661d189ddbdc9b1960ca1b01600482015260806024820152916020918391829081906118739060848301906109e2565b5f6044830152630500400560da1b606483015203915afa90811561067e575f916115c0575090565b6001600160a01b036118ab611d9b565b163081036118bd575061022b90612314565b604051638c364d5960e01b81526f556c74696d617465446f6d696e696f6e631d18955160e21b01600482015260806024820152916020918391829081906119089060848301906109e2565b600360448301526f45434000450505050505050805080805607a1b606483015203915afa90811561067e575f916115c0575090565b60048210156102e05752565b90606051918281525f5b8381106119725750825f602080949584010152601f8019910116010190565b806020916080015182828501015201611953565b9060209161199f81518092818552858086019101611172565b601f01601f1916010190565b906119c3602091949394604084526040840190611986565b6001600160a01b03909416910152565b5190518060651b9180603d1b9160051b9060051b01171790565b6020611a046119fe61022b9361258e565b9361258e565b926040519381611a1d8693518092868087019101611172565b8201611a3182518093868085019101611172565b01038084520182610869565b91906001600160a01b03611a4f611d9b565b1692308403611a6457611a6293506125e8565b565b919092803b1561017a5760405163298314fb60e01b81525f80516020613877833981519152600482015260a06024820152935f938593849286928492611add9291611ab39060a48601906109e2565b611ac96003199182878203016044880152611949565b926064860152848303016084850152611986565b03925af1801561067e57611aee5750565b80610678611a6292610800565b91906001600160a01b03611b0d611d9b565b1692308403611b2057611a629350612835565b919092803b1561017a5760405163298314fb60e01b81525f80516020613837833981519152600482015260a06024820152935f938593849286928492611add9291611ab39060a48601906109e2565b634e487b7160e01b5f52601160045260245ffd5b91908201809211611b9057565b611b6f565b9060208282031261017a5781516001600160401b03811161017a5761022b9201611193565b6001600160a01b03611bca611d9b565b16308103611bdc575061022b90612a62565b604051631e78897760e01b81525f80516020613837833981519152600482015260606024820152915f91839182908190611c1a9060648301906109e2565b85604483015203915afa90811561067e575f91611c35575090565b61022b91503d805f833e611c498183610869565b810190611b95565b6001600160a01b03611c61611d9b565b16308103611c73575061022b90612aa8565b604051631e78897760e01b81525f80516020613837833981519152600482015260606024820152915f91839182908190611cb19060648301906109e2565b6001604483015203915afa90811561067e575f91611c35575090565b9081518111611cec576001600160801b031660209190910160801b1790565b6040516323230fa360e01b81526060600482015292508291611d12906064840190611986565b905f602484015260448301520390fd5b8282118015611d91575b611d5c57908160208281959401019384910111611b90578103908111611b905760018060801b03169060801b1790565b6040516323230fa360e01b81526060600482015292839291611d82906064850190611986565b91602484015260448301520390fd5b5080518311611d2c565b7f629a4c26e296b22a8e0856e9f6ecb2d1008d7e00081111962cd175fa7488e175546001600160a01b03168061022b57503390565b90611dda82611157565b611de76040519182610869565b8281528092611df8601f1991611157565b0190602036910137565b90611e0b612ba1565b906040516020810190611e3081611e228785612bfe565b03601f198101835282610869565b5190205f805160206138d78339815191521854611e5566ffffffffffffff8216611dd0565b935f93602086015b60ff86166002811015611eae57611e8f8264ffffffffff87611e7f8b89612f3b565b946028026038011c168093613031565b8101809111611b90579460ff809116908114611b905760010194611e5d565b5050949291935050565b90611ee96040516020810190611ed281611e228785612d9e565b5190205f8051602061385783398151915218613333565b90611ef383613489565b54611f0666ffffffffffffff8216611dd0565b935f93602086015b60ff86166001811015611eae57611f308264ffffffffff87611e7f8b89612f78565b8101809111611b90579460ff809116908114611b905760010194611f0e565b5f906060906040519060209082611f6a602082019283612de9565b0392611f7e601f1994858101835282610869565b5190205f805160206138578339815191521891604051928161010085011660405260c18452602084019260c191925b81831015611fdf57505080611fc3575b50505092565b5f199060031b1c908183511691199054161790525f8080611fbd565b81600185839495979654875201940194019190611fad565b90612028604051602081019061201181611e228785612e31565b5190205f805160206138578339815191521861339f565b90612032836134b3565b5461204566ffffffffffffff8216611dd0565b935f93602086015b60ff86166001811015611eae5761206f8264ffffffffff87611e7f8b89612f9d565b8101809111611b90579460ff809116908114611b90576001019461204d565b906120bf60405160208101906120a881611e228785612e7a565b5190205f80516020613857833981519152186133ef565b906120c9836134c8565b546120dc66ffffffffffffff8216611dd0565b935f93602086015b60ff86166001811015611eae576121068264ffffffffff87611e7f8b89612fc2565b8101809111611b90579460ff809116908114611b9057600101946120e4565b61212e906130f9565b5f905f5b6001811061218557508181602082101561216f575b505080548260031b1b91602003908160201161216257505090565b600101549060031b1c1790565b90809350601f925060051c019116905f80612147565b9160ff64020010010160d51b84601b0360031b1c168101809111611b905791600101612132565b6040516020816020810193654f776e65727360501b6674624974656d7360c81b0185526040820160208251919201935f5b828110612210575050506121fa925003601f198101835282610869565b5190205f80516020613857833981519152185490565b8551845294810194869450928101926001016121dd565b6040516121fa81611e22602082019485612c3d565b60405160208160208101936f53797374656d52656769737472790000661d189ddbdc9b1960ca1b0185526040820160208251919201935f5b828110612291575050506121fa925003601f198101835282610869565b855184529481019486945092810192600101612274565b60405160208160208101936f4e616d6573706163654f776e65720000661d189ddbdc9b1960ca1b0185526040820160208251919201935f5b8281106122fd575050506121fa925003601f198101835282610869565b8551845294810194869450928101926001016122e0565b60405161232981611e22602082019485612c80565b5190205f91905f8051602061385783398151915218825b60038085101561237e576f45434000450505050505050805080805607a1b601b86900390911b1c60ff168101908110611b9057600190930192612340565b50919250818160208210156123a9575b505080548260031b1b91602003908160141161216257505090565b90809350601f925060051c019116905f8061238e565b604051906123cc82610818565b60068252651e3937b7ba1f60d11b6020830152565b91906123ec8361307b565b916123f561351c565b905f5b825181101561249c5761242c61241f6124118386610f88565b516001600160581b03191690565b6001600160581b03191690565b9060049182808260581c1614612448575b5060019150016123f8565b60601c803b1561017a57855f918983612476966040519788958694859363964f667d60e01b85528401613216565b03925af191821561067e576001921561243d578061067861249692610800565b5f61243d565b509291906124fa826040946040517f8c0b5119d4cec7b284c6b1b39252a03d1e2f2d7451a5895562524c113bb952be6f537461727465724974656d506f6f6c00631d18955160e21b0191806124f2868d836131eb565b0390a2613770565b5f5b81518110156125865761251561241f6124118385610f88565b6008808260581c161461252c575b506001016124fc565b60601c90813b1561017a57845163a8ba872160e01b8152915f9083908183816125598a8e60048401613216565b03925af191821561067e57600192612573575b5090612523565b8061067861258092610800565b5f61256c565b505050509050565b80518060051b60209180820460201481151715611b905790604051936020850191601f19603f8288010116604052855260205f9101905b8381106125d457505050505090565b8151835291840191908401906001016125c5565b60408051655461626c657360501b66746273746f726560c81b01602082019081525f805160206138778339815191528284018190528383529593949161262d81610833565b5190205f8051602061385783398151915218549561264961361d565b905f5b82518110156126da5761266561241f6124118386610f88565b6001808260581c161461267c575b5060010161264c565b60601c90813b1561017a575f878b9387838c6126ad8c51988996879586946315c19b2760e21b86526004860161329a565b03925af191821561067e576001926126c7575b5090612673565b806106786126d492610800565b5f6126c0565b50955f805160206138978339815191528451806126f988878b84613261565b0390a261270585613163565b906127156060926060519061377f565b60ff808960e01c16806127bf575b50505f5b81518110156127b45761274061241f6124118385610f88565b6002808260581c1614612757575b50600101612727565b831c90813b1561017a575f878b9387838c6127878c5198899687958694635b28cdaf60e01b86526004860161329a565b03925af191821561067e576001926127a1575b509061274e565b806106786127ae92610800565b5f61279a565b505050505050509050565b9590979196989294846127d18b6134f2565b555f95602083015b8a88169089821015612822576128198c92828f60019464ffffffffff8d8f6128049061281495612fe7565b956028026038011c1680946137ca565b611b83565b980116966127d9565b5050939997929850945094505f80612723565b60408051655461626c657360501b66746273746f726560c81b01602082019081525f805160206138378339815191528284018190528383529593949161287a81610833565b5190205f805160206138578339815191521854956128966136c6565b905f5b8251811015612927576128b261241f6124118386610f88565b6001808260581c16146128c9575b50600101612899565b60601c90813b1561017a575f878b9387838c6128fa8c51988996879586946315c19b2760e21b8652600486016132f5565b03925af191821561067e57600192612914575b50906128c0565b8061067861292192610800565b5f61290d565b50955f8051602061389783398151915284518061294688878b84613261565b0390a261295285613178565b906129626060926060519061377f565b60ff808960e01c1680612a01575b50505f5b81518110156127b45761298d61241f6124118385610f88565b6002808260581c16146129a4575b50600101612974565b831c90813b1561017a575f878b9387838c6129d48c5198899687958694635b28cdaf60e01b8652600486016132f5565b03925af191821561067e576001926129ee575b509061299b565b806106786129fb92610800565b5f6129e7565b959097919698929484612a138b613507565b555f95602083015b8a88169089821015612a4f57612a468c92828f60019464ffffffffff8d8f612804906128149561300c565b98011696612a1b565b5050939997929850945094505f80612970565b61022b9064ffffffffff612a9d5f805160206138b78339815191526040516020810190612a9381611e228885612ccb565b51902018926134dd565b5460381c169061343e565b61022b9064ffffffffff612aec7f3a4102da22e32d82fc925482184f16c09fd4281692720b87d124aef6da48a0f16040516020810190612a9381611e228885612ccb565b5460601c169061343e565b6040805160206020600160801b0384168201810190925260016001607b1b03600584901c1680825290939260801c8285015f5b838110612b38575050505050565b825182529184019190840190600101612b2a565b6040805160206020600160801b0384168201810190925260016001607b1b03600584901c1680825290939260801c8285015f5b838110612b8d575050505050565b825182529184019190840190600101612b7f565b604051612bad8161084e565b5f815290565b6953746f7265486f6f6b7360301b66746273746f726560c81b01815281516020918201928201915f5b828110612bea575050505090565b835185529381019392810192600101612bdc565b5f80516020613877833981519152815281516020918201928201915f5b828110612c29575050505090565b835185529381019392810192600101612c1b565b644974656d7360581b631d18955160e21b01815281516020918201928201915f5b828110612c6c575050505090565b835185529381019392810192600101612c5e565b6f556c74696d617465446f6d696e696f6e631d18955160e21b01815281516020918201928201915f5b828110612cb7575050505090565b835185529381019392810192600101612ca9565b5f80516020613837833981519152815281516020918201928201915f5b828110612cf6575050505090565b835185529381019392810192600101612ce8565b6f436f6e73756d61626c65537461747300631d18955160e21b01815281516020918201928201915f5b828110612d41575050505090565b835185529381019392810192600101612d33565b6a576561706f6e537461747360281b631d18955160e21b01815281516020918201928201915f5b828110612d8a575050505090565b835185529381019392810192600101612d7c565b6f436f6e73756d61626c65537461747300631d18955160e21b01815281516020918201928201915f5b828110612dd5575050505090565b835185529381019392810192600101612dc7565b6941726d6f72537461747360301b631d18955160e21b01815281516020918201928201915f5b828110612e1d575050505090565b835185529381019392810192600101612e0f565b6a576561706f6e537461747360281b631d18955160e21b01815281516020918201928201915f5b828110612e66575050505090565b835185529381019392810192600101612e58565b644974656d7360581b631d18955160e21b01815281516020918201928201915f5b828110612ea9575050505090565b835185529381019392810192600101612e9b565b5f80516020613877833981519152815281516020918201928201915f5b828110612ee8575050505090565b835185529381019392810192600101612eda565b5f80516020613837833981519152815281516020918201928201915f5b828110612f27575050505090565b835185529381019392810192600101612f19565b905f805160206138b783398151915291604051612f6081611e22602082019485612bfe565b51902060f89190911b6001600160f81b031916181890565b905f805160206138b783398151915291604051612f6081611e22602082019485612d0a565b905f805160206138b783398151915291604051612f6081611e22602082019485612d55565b905f805160206138b783398151915291604051612f6081611e22602082019485612c3d565b905f805160206138b783398151915291604051612f6081611e22602082019485612ebd565b905f805160206138b783398151915291604051612f6081611e22602082019485612efc565b9291925b6020908183106130555780548552930192601f1990910190600101613035565b9190509291928061306557505050565b5f199060031b1c90818351169119905416179052565b60405160208160208101936f537461727465724974656d506f6f6c00631d18955160e21b0185526040820160208251919201935f5b8281106130e2575050506130cd925003601f198101835282610869565b5190205f805160206138578339815191521890565b8551845294810194869450928101926001016130b0565b60405160208160208101936a546f74616c537570706c7960281b6674624974656d7360c81b0185526040820160208251919201935f5b82811061314c575050506130cd925003601f198101835282610869565b85518452948101948694509281019260010161312f565b6040516130cd81611e22602082019485612ebd565b6040516130cd81611e22602082019485612efc565b5f5b601081106131be575b6040516001600160801b03199092166020830152601082526131b982610818565b815290565b6001600160801b03198216600382901b1b6001600160f81b031916156131e65760010161318f565b613198565b909161320261022b936060845260608401906109e2565b915f60208201526040818403910152611986565b6f537461727465724974656d506f6f6c00631d18955160e21b01815260806020820181905261022b93919261324d918401906109e2565b915f60408201526060818403910152611986565b61328761327a61022b95936080845260808401906109e2565b8281036020840152611949565b9260408201526060818403910152611986565b5f80516020613877833981519152815260c0602082018190529095949360a0936132f09390926132dd916132d0918a01906109e2565b88810360408a0152611949565b9160608801528682036080880152611986565b930152565b9493929160a0926132dd6132d06132f0946f53746172746572436f6e73756d61626c631d18955160e21b018a5260c060208b015260c08a01906109e2565b60405190602090601f199081609f850116604052606084526020840192606091925b818310156133875750508061336b575b50505090565b5f199060031b1c908183511691199054161790525f8080613365565b81600185839495979654875201940194019190613355565b60405190602090601f19908161011f85011660405260e08452602084019260e091925b818310156133d75750508061336b5750505090565b816001858394959796548752019401940191906133c2565b60405190602090601f19908160a0850116604052606184526020840192606191925b818310156134265750508061336b5750505090565b81600185839495979654875201940194019190613411565b60408051601f19603f85830101811690925283815292602080850193925b818310156134715750508061336b5750505090565b8160018583949597965487520194019401919061345c565b60405161349e81611e22602082019485612d0a565b5190205f805160206138d78339815191521890565b60405161349e81611e22602082019485612d55565b60405161349e81611e22602082019485612c3d565b60405161349e81611e22602082019485612ccb565b60405161349e81611e22602082019485612ebd565b60405161349e81611e22602082019485612efc565b613524610f44565b8051156102db576135cf610a3e6020926f537461727465724974656d506f6f6c00631d18955160e21b018482015264ffffffffff604051915f805160206138b7833981519152868401846135788483612bb3565b039461358c601f1996878101835282610869565b51902018926135b260405191826135a68a82019586612bb3565b03908101835282610869565b5190205f805160206138d7833981519152185460381c169061343e565b8060801c916015809260018060801b0316049060405193818501828460051b8701016040528386525f5b8481106136095750505050505090565b8251825291850191908301906001016135f9565b613625610f44565b8051156102db57613678610a3e6020926b537461727465724974656d7360201b631d18955160e21b018482015264ffffffffff604051915f805160206138b7833981519152868401846135788483612bb3565b8060801c916015809260018060801b0316049060405193818501828460051b8701016040528386525f5b8481106136b25750505050505090565b8251825291850191908301906001016136a2565b6136ce610f44565b8051156102db57613722610a3e6020926f53746172746572436f6e73756d61626c631d18955160e21b018482015264ffffffffff604051915f805160206138b7833981519152868401846135788483612bb3565b8060801c916015809260018060801b0316049060405193818501828460051b8701016040528386525f5b84811061375c5750505050505090565b82518252918501919083019060010161374c565b8151611a6292602001916137ca565b91906080925b6020908183106137a55784518155930192601f1990910190600101613785565b9293919050806137b457505050565b5f199060031b1c90818354169119905116179055565b9291926020908183106137a55784518155930192601f1990910190600101613785565b9291905b602090818310613810578451815293810193601f1990920191016137f1565b92939190508015613831575f199060031b1c90818351169119905116179052565b50505056fe7462554400000000000000000000000053746172746572436f6e73756d61626c86425bff6b57326c7859e89024fe4f238ca327a1ae4a230180dd2f0e88aaa7d974625544000000000000000000000000537461727465724974656d73000000008dbb3a9672eebfd3773e72dd9c102393436816d832c7ba9e1e1ac8fcadcac7a93b4102da22e32d82fc925482184f16c09fd4281692720b87d124aef6da48a0f114e2fcc58e58e68ec7edc30c8d50dccc3ce2714a623ec81f46b6a63922d76569","linkReferences":{}},"methodIdentifiers":{"_msgSender()":"119df25f","_msgValue()":"45ec9354","_world()":"e1af802c","getArmorStats(uint256)":"40a5ed2a","getConsumableStats(uint256)":"3a0208e7","getItemBalance(bytes32,uint256)":"c34021ac","getItemType(uint256)":"c19a4ef5","getStarterConsumables()":"958b6918","getStarterItems(uint8)":"2cc861d6","getTotalSupply(uint256)":"92ab723e","getWeaponStats(uint256)":"63ff2287","isItemOwner(uint256,address)":"f5d4659f","isStarterItem(uint256)":"f8b82a8f","setStarterConsumables(uint256[],uint256[])":"b25518c3","setStarterItemPool(uint256,bool)":"4514e97e","setStarterItems(uint8,uint256[],uint256[])":"651eec8a","supportsInterface(bytes4)":"01ffc9a7"},"id":509}