{"abi":[{"type":"function","name":"_msgSender","inputs":[],"outputs":[{"name":"sender","type":"address","internalType":"address"}],"stateMutability":"view"},{"type":"function","name":"_msgValue","inputs":[],"outputs":[{"name":"value","type":"uint256","internalType":"uint256"}],"stateMutability":"view"},{"type":"function","name":"_world","inputs":[],"outputs":[{"name":"","type":"address","internalType":"address"}],"stateMutability":"view"},{"type":"function","name":"calculateWeaponBonuses","inputs":[{"name":"characterId","type":"bytes32","internalType":"bytes32"}],"outputs":[{"name":"bonuses","type":"tuple","internalType":"struct CharacterEquipmentData","components":[{"name":"strBonus","type":"int256","internalType":"int256"},{"name":"agiBonus","type":"int256","internalType":"int256"},{"name":"intBonus","type":"int256","internalType":"int256"},{"name":"hpBonus","type":"int256","internalType":"int256"},{"name":"armor","type":"int256","internalType":"int256"},{"name":"equippedArmor","type":"uint256[]","internalType":"uint256[]"},{"name":"equippedWeapons","type":"uint256[]","internalType":"uint256[]"},{"name":"equippedSpells","type":"uint256[]","internalType":"uint256[]"},{"name":"equippedConsumables","type":"uint256[]","internalType":"uint256[]"},{"name":"equippedAccessories","type":"uint256[]","internalType":"uint256[]"}]}],"stateMutability":"view"},{"type":"function","name":"canEquipMoreWeapons","inputs":[{"name":"characterId","type":"bytes32","internalType":"bytes32"}],"outputs":[{"name":"canEquip","type":"bool","internalType":"bool"}],"stateMutability":"view"},{"type":"function","name":"checkWeaponEffect","inputs":[{"name":"weaponId","type":"uint256","internalType":"uint256"},{"name":"effectId","type":"bytes32","internalType":"bytes32"}],"outputs":[{"name":"hasEffect","type":"bool","internalType":"bool"}],"stateMutability":"view"},{"type":"function","name":"checkWeaponRequirements","inputs":[{"name":"characterId","type":"bytes32","internalType":"bytes32"},{"name":"weaponId","type":"uint256","internalType":"uint256"}],"outputs":[{"name":"canUse","type":"bool","internalType":"bool"}],"stateMutability":"view"},{"type":"function","name":"equipWeapon","inputs":[{"name":"characterId","type":"bytes32","internalType":"bytes32"},{"name":"weaponId","type":"uint256","internalType":"uint256"}],"outputs":[],"stateMutability":"nonpayable"},{"type":"function","name":"getEquippedWeapons","inputs":[{"name":"characterId","type":"bytes32","internalType":"bytes32"}],"outputs":[{"name":"weapons","type":"uint256[]","internalType":"uint256[]"}],"stateMutability":"view"},{"type":"function","name":"getWeaponEffects","inputs":[{"name":"weaponId","type":"uint256","internalType":"uint256"}],"outputs":[{"name":"effects","type":"bytes32[]","internalType":"bytes32[]"}],"stateMutability":"view"},{"type":"function","name":"getWeaponStatsData","inputs":[{"name":"weaponId","type":"uint256","internalType":"uint256"}],"outputs":[{"name":"weaponStats","type":"tuple","internalType":"struct WeaponStatsData","components":[{"name":"agiModifier","type":"int256","internalType":"int256"},{"name":"intModifier","type":"int256","internalType":"int256"},{"name":"hpModifier","type":"int256","internalType":"int256"},{"name":"maxDamage","type":"int256","internalType":"int256"},{"name":"minDamage","type":"int256","internalType":"int256"},{"name":"minLevel","type":"uint256","internalType":"uint256"},{"name":"strModifier","type":"int256","internalType":"int256"},{"name":"effects","type":"bytes32[]","internalType":"bytes32[]"}]}],"stateMutability":"view"},{"type":"function","name":"isWeaponEquipped","inputs":[{"name":"characterId","type":"bytes32","internalType":"bytes32"},{"name":"weaponId","type":"uint256","internalType":"uint256"}],"outputs":[{"name":"equipped","type":"bool","internalType":"bool"}],"stateMutability":"view"},{"type":"function","name":"supportsInterface","inputs":[{"name":"interfaceId","type":"bytes4","internalType":"bytes4"}],"outputs":[{"name":"","type":"bool","internalType":"bool"}],"stateMutability":"pure"},{"type":"function","name":"unequipWeapon","inputs":[{"name":"characterId","type":"bytes32","internalType":"bytes32"},{"name":"weaponId","type":"uint256","internalType":"uint256"}],"outputs":[{"name":"success","type":"bool","internalType":"bool"}],"stateMutability":"nonpayable"},{"type":"event","name":"Store_SetRecord","inputs":[{"name":"tableId","type":"bytes32","indexed":true,"internalType":"ResourceId"},{"name":"keyTuple","type":"bytes32[]","indexed":false,"internalType":"bytes32[]"},{"name":"staticData","type":"bytes","indexed":false,"internalType":"bytes"},{"name":"encodedLengths","type":"bytes32","indexed":false,"internalType":"EncodedLengths"},{"name":"dynamicData","type":"bytes","indexed":false,"internalType":"bytes"}],"anonymous":false},{"type":"event","name":"Store_SpliceDynamicData","inputs":[{"name":"tableId","type":"bytes32","indexed":true,"internalType":"ResourceId"},{"name":"keyTuple","type":"bytes32[]","indexed":false,"internalType":"bytes32[]"},{"name":"dynamicFieldIndex","type":"uint8","indexed":false,"internalType":"uint8"},{"name":"start","type":"uint48","indexed":false,"internalType":"uint48"},{"name":"deleteCount","type":"uint40","indexed":false,"internalType":"uint40"},{"name":"encodedLengths","type":"bytes32","indexed":false,"internalType":"EncodedLengths"},{"name":"data","type":"bytes","indexed":false,"internalType":"bytes"}],"anonymous":false},{"type":"error","name":"EncodedLengths_InvalidLength","inputs":[{"name":"length","type":"uint256","internalType":"uint256"}]},{"type":"error","name":"Slice_OutOfBounds","inputs":[{"name":"data","type":"bytes","internalType":"bytes"},{"name":"start","type":"uint256","internalType":"uint256"},{"name":"end","type":"uint256","internalType":"uint256"}]},{"type":"error","name":"Store_IndexOutOfBounds","inputs":[{"name":"length","type":"uint256","internalType":"uint256"},{"name":"accessedIndex","type":"uint256","internalType":"uint256"}]},{"type":"error","name":"Store_InvalidResourceType","inputs":[{"name":"expected","type":"bytes2","internalType":"bytes2"},{"name":"resourceId","type":"bytes32","internalType":"ResourceId"},{"name":"resourceIdString","type":"string","internalType":"string"}]},{"type":"error","name":"Store_InvalidSplice","inputs":[{"name":"startWithinField","type":"uint40","internalType":"uint40"},{"name":"deleteCount","type":"uint40","internalType":"uint40"},{"name":"fieldLength","type":"uint40","internalType":"uint40"}]}],"bytecode":{"object":"0x6080806040523461001657613ff1908161001b8239f35b5f80fdfe60806040526004361015610011575f80fd5b5f3560e01c8062fd6235146100f357806301ffc9a7146100ee578063119df25f146100e95780633342725f146100e457806345ec9354146100df5780637bc61c07146100da57806388da4b27146100d5578063c5cabc0f146100d0578063cc678398146100cb578063dbcff8e3146100c6578063e1af802c146100c1578063eafbe7ab146100bc578063efd9e64e146100b75763f1d9def4146100b2575f80fd5b6108ff565b610827565b610809565b6107dd565b610759565b6105ec565b6105cb565b610577565b61045b565b61043c565b610411565b6103d5565b610375565b34610371576040366003190112610371576024356004356101216060610118836111bd565b0151151561091e565b6001600160a01b03610131612345565b169060405180926385fcd3bd60e01b825282600483015281602460209586935afa80156102f55761016a915f91610354575b5015610a35565b610184610178610178612345565b6001600160a01b031690565b60405163777c2caf60e01b81526004810183905291908390839060249082905afa9182156102f5576101fc9284915f91610327575b506101c8610178610178612345565b60405163166c682360e31b8152600481018890526001600160a01b0390921660248301529093849190829081906044820190565b03915afa9182156102f5575f946102256102bb946102829360c09789926102fa575b5050610aa0565b61024061023182611270565b61023a81610ae5565b15610aef565b61025261024d8285610e46565b610b32565b61026b6102666102628386610cc4565b1590565b610b7d565b61027c61027784610f7a565b610bc4565b8261129a565b61028b81611330565b610299610178610178612345565b9060405194858094819363ad54c98b60e01b8352600483019190602083019252565b03925af180156102f5576102cb57005b6102ec9060c03d60c0116102ee575b6102e481836109e3565b810190610c3a565b005b503d6102da565b610a2a565b6103199250803d10610320575b61031181836109e3565b810190610a13565b5f8061021e565b503d610307565b6103479150823d841161034d575b61033f81836109e3565b810190610a81565b5f6101b9565b503d610335565b61036b9150843d86116103205761031181836109e3565b5f610163565b5f80fd5b346103715760203660031901126103715760043563ffffffff60e01b81168091036103715760209063b5dee12760e01b81149081156103ba575b506040519015158152f35b6301ffc9a760e01b1490505f6103af565b5f91031261037157565b34610371575f3660031901126103715736603319013560601c801561040a575b6040516001600160a01b039091168152602090f35b50336103f5565b34610371576040366003190112610371576020610432602435600435610cc4565b6040519015158152f35b34610371575f366003190112610371576020604051601f193601358152f35b346103715760208060031936011261037157600435610478610d02565b5061048281611270565b9060068210156105305761049961049e9215610aef565b61141a565b9060405191818392835260e06101208401928051838601528281015160408601526040810151606086015260608101516080860152608081015160a086015260a081015160c086015260c0810151828601520151916101008085015282518091528161014085019301915f5b82811061051957505050500390f35b83518552869550938101939281019260010161050a565b634e487b7160e01b5f52602160045260245ffd5b9081518082526020808093019301915f5b828110610563575050505090565b835185529381019392810192600101610555565b346103715760203660031901126103715760043561059481611270565b6006811015610530576105c7916105ae6105b39215610aef565b6114b4565b604051918291602083526020830190610544565b0390f35b34610371576040366003190112610371576020610432602435600435610e46565b34610371576040366003190112610371576004356024356106116060610118846111bd565b602460206001600160a01b03610625612345565b16604051928380926385fcd3bd60e01b82528760048301525afa80156102f557610656915f91610740575015610a35565b5f9061066a6106658285610cc4565b610ee7565b61067c610676846113e9565b82611639565b9061069061068a8351610f3e565b83610cb0565b5114610724575b50806106ab575b6040519015158152602090f35b60c06106eb836106bb5f95611330565b6106c9610178610178612345565b9060405195868094819363ad54c98b60e01b8352600483019190602083019252565b03925af19182156102f5576105c792610705575b5061069e565b61071d9060c03d60c0116102ee576102e481836109e3565b505f6106ff565b61072f9150826116d4565b610738816119e3565b60015f610697565b61036b915060203d6020116103205761031181836109e3565b34610371576040366003190112610371575f60243560043561077a81611270565b906006821015610530576105ae6107919215610aef565b5f5b81518110156107d1576107a68183610cb0565b5183146107b557600101610793565b505050506105c760015b60405190151581529081906020820190565b5050506105c7906107bf565b34610371575f3660031901126103715760206107f7612345565b6040516001600160a01b039091168152f35b34610371576020366003190112610371576020610432600435610f7a565b34610371576020366003190112610371576105c761084660043561106c565b6040519182916020835280516020840152602081015160408401526040810151606084015260608101516080840152608081015160a084015260a081015161089c610140918260c0870152610160860190610544565b906108b960c084015192601f1993848883030160e0890152610544565b6108ee6108d760e08601519261010093868a830301858b0152610544565b9185015191610120928589830301848a0152610544565b930151918584030190850152610544565b34610371576020366003190112610371576105c76105b36004356113e9565b1561092557565b60405162461bcd60e51b8152602060048201526019602482015278436861726163746572206e6f7420696e207468652047616d6560381b6044820152606490fd5b634e487b7160e01b5f52604160045260245ffd5b60c081019081106001600160401b0382111761099557604052565b610966565b6001600160401b03811161099557604052565b604081019081106001600160401b0382111761099557604052565b602081019081106001600160401b0382111761099557604052565b601f909101601f19168101906001600160401b0382119082101761099557604052565b5190811515820361037157565b9081602091031261037157610a2790610a06565b90565b6040513d5f823e3d90fd5b15610a3c57565b60405162461bcd60e51b815260206004820152601e60248201527f43616e6e6f7420657175697020776561706f6e7320696e20636f6d62617400006044820152606490fd5b9081602091031261037157516001600160a01b03811681036103715790565b15610aa757565b60405162461bcd60e51b81526020600482015260166024820152752ba2a0a827a71d102737ba1024ba32b69027bbb732b960511b6044820152606490fd5b6006111561053057565b15610af657565b60405162461bcd60e51b81526020600482015260146024820152732ba2a0a827a71d102737ba1030903bb2b0b837b760611b6044820152606490fd5b15610b3957565b60405162461bcd60e51b815260206004820152601c60248201527b15d1505413d38e8814995c5d5a5c995b595b9d1cc81b9bdd081b595d60221b6044820152606490fd5b15610b8457565b60405162461bcd60e51b815260206004820152601860248201527715d1505413d38e88105b1c9958591e48195c5d5a5c1c195960421b6044820152606490fd5b15610bcb57565b60405162461bcd60e51b815260206004820152602160248201527f574541504f4e3a20546f6f206d616e7920776561706f6e7320657175697070656044820152601960fa1b6064820152608490fd5b604051906101a082016001600160401b0381118382101761099557604052565b908160c09103126103715760a060405191610c548361097a565b8051835260208101516020840152604081015160408401526060810151606084015260808101516080840152015160a082015290565b634e487b7160e01b5f52603260045260245ffd5b805115610cab5760200190565b610c8a565b8051821015610cab5760209160051b010190565b90610ccf5f926113e9565b5f5b8151811015610cfc5782610ce58284610cb0565b5114610cf357600101610cd1565b50505050600190565b50505090565b6040519061010082016001600160401b0381118382101761099557604052606060e0835f81525f60208201525f60408201525f838201525f60808201525f60a08201525f60c08201520152565b5160068110156105305790565b5190600382101561037157565b5190600482101561037157565b5190600a82101561037157565b90816101a091031261037157610d97610c1a565b908051825260208101516020830152610db260408201610d5c565b6040830152606081015160608301526080810151608083015260a081015160a083015260c081015160c083015260e081015160e0830152610100610df7818301610d69565b90830152610120610e09818301610d69565b90830152610140610e1b818301610d69565b90830152610160610e2d818301610d76565b90830152610e3f610180809201610a06565b9082015290565b610e66610e7591610e61610231610e5c86611512565b610d4f565b61159e565b60208082518301019101610d83565b90610e88610e82826115e9565b9161141a565b60a060e08401519101511115916001918051602083015112610edf575b6040810151825112610ed7575b6020606091015191015112610ed0575b81610ecb575090565b905090565b505f610ec2565b5f9250610eb2565b5f9250610ea5565b15610eee57565b60405162461bcd60e51b815260206004820152601460248201527315d1505413d38e88139bdd08195c5d5a5c1c195960621b6044820152606490fd5b634e487b7160e01b5f52601160045260245ffd5b5f19810191908211610f4c57565b610f2a565b601f19810191908211610f4c57565b91908203918211610f4c57565b91908201809211610f4c57565b610f826111a3565b805115610cab5780826020610f9893015261237a565b60051c90610fa46111a3565b805115610cab5780826020610fba9301526123e1565b60051c8201809211610f4c57610fce6111a3565b805115610cab57610fe391602082015261246f565b60051c8101809111610f4c5760041190565b6040519061014082016001600160401b0381118382101761099557604052815f81525f60208201525f60408201526101206060915f838201525f60808201528260a08201528260c08201528260e0820152826101008201520152565b9190915f8382019384129112908015821691151617610f4c57565b90611075610ff5565b91611084610178610178612345565b604091604051633e86fb3160e21b8152602081819481806110ad87600483019190602083019252565b03915afa9081156102f5575f91611154575b501561114f576110ce906113e9565b6110d6610d02565b505f5b81518110156111495780846110f96110f360019486610cb0565b5161141a565b61110860c08201518a51611051565b8952805161111a878b01918251611051565b90528581015161112e838b01918251611051565b9052015161114160608901918251611051565b9052016110d9565b50505050565b505050565b61116d915060203d6020116103205761031181836109e3565b5f6110bf565b604051906111808261097a565b606060a0835f81525f60208201525f60408201525f838201528260808201520152565b604051906111b0826109ad565b6001825260203681840137565b6111c5611173565b506111ce6111a3565b805115610cab576111ea81611254936020611242940152611b53565b6111f8949294939193611173565b946020810151906040810151906074605482015191015160f81c15156060890152604088015260601c6020870152855264ffffffffff808560381c1690611247611242838561221d565b61346a565b9560601c16810191612272565b60a0830152608082015290565b60ff1660068110156105305790565b6112786111a3565b90815115610cab5781611292916020610a27940152611e71565b60f81c611261565b906112a36111a3565b91825115610cab576020830152604051906020820152602081526112c6816109ad565b6001600160a01b036112d6612345565b16913083036112eb576112e992506128c7565b565b90823b1561037157611316925f9283604051809681958294630a87993160e11b845260048401611f4f565b03925af180156102f5576113275750565b6112e99061099a565b611338610ff5565b506113416111a3565b805115610cab57816060611360836112e99560206113a9960152611c19565b92919061136b610ff5565b958694602084015192604085015193868601519460a060808801519701519560208a019760408b019760808b8d019c01528a528652865289526136e9565b6101208b01526101008a015260e089015260c088015260a08701526113cd8561106c565b9182518752602083015190526040820151905201519052611f8f565b6113f16111a3565b805115610cab5761140d81610a27936020611415940152612108565b80519061221d565b612d39565b611422610d02565b5061142b6111a3565b90815115610cab5761141561144e836114ac93602064ffffffffff960152611ca5565b919490611459610d02565b9560208101519060408101519060608101519060808101519060a08101519060e060c082015191015160c08d015260a08c015260808b015260608a015260408901526020880152865260381c169061221d565b60e082015290565b6114bc6111a3565b805115610cab5761140d81610a27936020611415940152612197565b6040519060a082016001600160401b038111838210176109955760405260606080835f81525f60208201525f60408201525f838201520152565b61151a6114d8565b506115236111a3565b805115610cab57611538916020820152611d3d565b91906115426114d8565b92611553602084015160f81c611261565b926021810151906061604182015191015160608701526040860152602085015260068310156105305764ffffffffff6112429261159694865260381c169061221d565b608082015290565b6115a66111a3565b805115610cab57610a279160208201526121da565b60405190606082016001600160401b03811183821017610995576040525f6040838281528260208201520152565b6115f16115bb565b506115fa6111a3565b805115610cab5761160f916020820152611dcc565b50506116196115bb565b906020810151906060604082015191015160408401526020830152815290565b91909160609260019160018251115f146116ce575f835b61165a5750505050565b82518110156116c9578161166e8285610cb0565b511461167c57830183611650565b9193945091508251905f1991828101908111610f4c5761169f6116a79186610cb0565b519185610cb0565b528251908101908111610f4c576116be9083610cb0565b52905f808080611149565b611149565b50925050565b906116dd6111a3565b90815115610cab576116f69060209360208401526122eb565b926001600160a01b03611707612345565b163081036119b4575061171982613b23565b549064ffffffffff90606090828460601c16926117416117398580610f60565b895190610f6d565b84811415908180611995575b6119695761175b9087613be5565b92611764613c6b565b935f5b85518110156118165761179b61178e6117808389610cb0565b516001600160581b03191690565b6001600160581b03191690565b6010808260581c16146117b2575b50600101611767565b871c90813b15610371575f8a8e938b838f6117e360405198899687958694630abd6b4560e31b8652600486016134e2565b03925af19182156102f5576001926117fd575b50906117a9565b8061180a6118109261099a565b806103cb565b5f6117f6565b50919590939994989792975f995f9a5b60ff8c16600181101561184d5760ff918c8c6001936028026038011c16019c01169a611826565b5091959a50939850859a929750959094955f80516020613f31833981519152868a6118a560409a8c60405194859465ffffffffffff6f43686172616374657245717569706d65631d18955160e21b019916908661360f565b0390a2611959575b6118bf896118ba89613300565b613d6c565b5f5b815181101561194d576118da61178e6117808385610cb0565b84808260581c16146118f0575b506001016118c1565b831c90813b15610371575f888c9388838d6119208d5198899687958694636358453360e01b8652600486016134e2565b03925af19182156102f55760019261193a575b50906118e7565b8061180a6119479261099a565b5f611933565b50505050505050509050565b8561196388613b23565b556118ad565b604051632994042d60e21b81525f600482015264ffffffffff8716602482018190526044820152606490fd5b50856119ad6119a3826134b9565b64ffffffffff1690565b141561174d565b8093509390933b1561037157611316925f92836040518096819582946377b7543160e11b845260048401611f4f565b6119eb6111a3565b90815115610cab5760208201526001600160a01b03611a08612345565b16308103611a1a57506112e990612d8e565b803b15610371576040516336700e8160e21b81525f80516020613fd1833981519152600482015260806024820152915f918391829084908290611a61906084830190610544565b600160448301526020606483015203925af180156102f557611a805750565b8061180a6112e99261099a565b6001600160401b03811161099557601f01601f191660200190565b5f5b838110611ab95750505f910152565b8181015183820152602001611aaa565b81601f82011215610371578051611adf81611a8d565b92611aed60405194856109e3565b8184526020828401011161037157610a279160208085019101611aa8565b90916060828403126103715781516001600160401b0392908381116103715784611b36918301611ac9565b93602082015193604083015190811161037157610a279201611ac9565b6001600160a01b03611b63612345565b16308103611b7c5750611b759061252f565b9192909190565b60405163419b58fd60e01b8152694368617261637465727360301b631d18955160e21b0160048201526060602482015292915f91849182908190611bc4906064830190610544565b665504022014200160c01b604483015203915afa9081156102f5575f80935f93611bef575b50929190565b91935050611c0f91503d805f833e611c0781836109e3565b810190611b0b565b929092915f611be9565b6001600160a01b03611c29612345565b16308103611c3b5750611b75906125ee565b60405163419b58fd60e01b81525f80516020613fd183398151915260048201526060602482015292915f91849182908190611c7a906064830190610544565b67050028290101010160bd1b604483015203915afa9081156102f5575f80935f93611bef5750929190565b6001600160a01b03611cb5612345565b16308103611cc75750611b75906126c7565b60405163419b58fd60e01b81526a576561706f6e537461747360281b631d18955160e21b0160048201526060602482015292915f91849182908190611d10906064830190610544565b690700380901010101010160ad1b604483015203915afa9081156102f5575f80935f93611bef5750929190565b6001600160a01b03611d4d612345565b16308103611d5f5750611b759061275e565b60405163419b58fd60e01b8152644974656d7360581b631d18955160e21b0160048201526060602482015292915f91849182908190611da2906064830190610544565b660308200809010160c51b604483015203915afa9081156102f5575f80935f93611bef5750929190565b6001600160a01b03611ddc612345565b16308103611dee5750611b75906127f5565b60405163419b58fd60e01b81526f537461745265737472696374696f6e73631d18955160e21b0160048201526060602482015292915f91849182908190611e39906064830190610544565b6503001801010160cd1b604483015203915afa9081156102f5575f80935f93611bef5750929190565b90816020910312610371575190565b6001600160a01b03611e81612345565b16308103611e935750610a279061289c565b604051638c364d5960e01b8152644974656d7360581b631d18955160e21b0160048201526080602482015291602091839182908190611ed6906084830190610544565b5f6044830152660308200809010160c51b606483015203915afa9081156102f5575f91611f01575090565b610a27915060203d602011611f23575b611f1b81836109e3565b810190611e62565b503d611f11565b90602091611f4381518092818552858086019101611aa8565b601f01601f1916010190565b5f80516020613fd18339815191528152608060208201819052610a27939192611f7a91840190610544565b91600160408201526060818403910152611f2a565b6112e99180516020820151604083015160608401519060808501519260405194602086015260408501526060840152608083015260a082015260a08152611fd58161097a565b61204560a08301519260c08101519060e08101516101206101008301519201519261203f848484848b5190519151925193518060dd1b948060b51b9480608d1b948060651b9480603d1b9460051b9360051b9260051b9160051b9060051b01010101171717171790565b96612b32565b9261204e6111a3565b9061205882610c9e565b52612bd6565b919060406120956001926f43686172616374657245717569706d65631d18955160e21b018652606060208701526060860190610544565b930152565b6a576561706f6e537461747360281b631d18955160e21b0181526060602082018190529092915f9160409161209591860190610544565b694368617261637465727360301b631d18955160e21b01815260606020820181905290929160019160409161209591860190610544565b6001600160a01b03612118612345565b1630810361212a5750610a2790612c91565b61214b915f916040518080958194631e78897760e01b83526004830161205e565b03915afa9081156102f5575f91612160575090565b90503d805f833e61217181836109e3565b81016020828203126103715781516001600160401b03811161037157610a279201611ac9565b6001600160a01b036121a7612345565b163081036121b95750610a2790612cb8565b61214b915f916040518080958194631e78897760e01b83526004830161209a565b6001600160a01b036121ea612345565b163081036121fc5750610a2790612cfe565b61214b915f916040518080958194631e78897760e01b8352600483016120d1565b908151811161223c576001600160801b031660209190910160801b1790565b6040516323230fa360e01b81526060600482015292508291612262906064840190611f2a565b905f602484015260448301520390fd5b82821180156122e1575b6122ac57908160208281959401019384910111610f4c578103908111610f4c5760018060801b03169060801b1790565b6040516323230fa360e01b815260606004820152928392916122d2906064850190611f2a565b91602484015260448301520390fd5b508051831161227c565b80518060051b60209180820460201481151715610f4c5790604051936020850191601f19603f8288010116604052855260205f9101905b83811061233157505050505090565b815183529184019190840190600101612322565b7f629a4c26e296b22a8e0856e9f6ecb2d1008d7e00081111962cd175fa7488e175546001600160a01b031680610a2757503390565b6001600160a01b0361238a612345565b163081036123aa57506123a264ffffffffff91613b23565b5460601c1690565b6123cc91602091604051808095819463dbbf0e2160e01b83526004830161205e565b03915afa9081156102f5575f91611f01575090565b6001600160a01b036123f1612345565b163081036124145750612406610a2791613b23565b5460881c64ffffffffff1690565b60405163dbbf0e2160e01b81525f80516020613fd183398151915260048201526060602482015291602091839182908190612453906064830190610544565b6002604483015203915afa9081156102f5575f91611f01575090565b6001600160a01b0361247f612345565b163081036124a25750612494610a2791613b23565b5460b01c64ffffffffff1690565b60405163dbbf0e2160e01b81525f80516020613fd1833981519152600482015260606024820152916020918391829081906124e1906064830190610544565b6003604483015203915afa9081156102f5575f91611f01575090565b9061250782611a8d565b61251460405191826109e3565b8281528092612525601f1991611a8d565b0190602036910137565b9061256e60405160208101906125578161254987856131e1565b03601f1981018352826109e3565b5190205f80516020613f51833981519152186139ce565b9061257883613b4d565b5461258b66ffffffffffffff82166124fd565b935f93602086015b60ff861660028110156125e4576125c58264ffffffffff876125b58b8961332b565b946028026038011c168093613420565b8101809111610f4c579460ff809116908114610f4c5760010194612593565b5050949291935050565b906125f88261348f565b60405190602090601f19908160df85011660405260a08452602084019260a091925b818310156126af57505080612693575b5050509061263783613b62565b5461264a66ffffffffffffff82166124fd565b935f93602086015b60ff861660058110156125e4576126748264ffffffffff876125b58b89613368565b8101809111610f4c579460ff809116908114610f4c5760010194612652565b5f199060031b1c908183511691199054161790525f808061262a565b8160018583949597965487520194019401919061261a565b906126f860405160208101906126e1816125498785613229565b5190205f80516020613f5183398151915218613a39565b9061270283613b77565b5461271566ffffffffffffff82166124fd565b935f93602086015b60ff861660018110156125e45761273f8264ffffffffff876125b58b8961338d565b8101809111610f4c579460ff809116908114610f4c576001019461271d565b9061278f6040516020810190612778816125498785613272565b5190205f80516020613f5183398151915218613a89565b9061279983613b8c565b546127ac66ffffffffffffff82166124fd565b935f93602086015b60ff861660018110156125e4576127d68264ffffffffff876125b58b896133b2565b8101809111610f4c579460ff809116908114610f4c57600101946127b4565b5f9060609060405190602090826128106020820192836132b5565b0392612824601f19948581018352826109e3565b5190205f80516020613f5183398151915218916040519281609f850116604052606084526020840192606091925b8183101561288457505080612868575b50505092565b5f199060031b1c908183511691199054161790525f8080612862565b81600185839495979654875201940194019190612852565b6040516128b1816125496020820194856130ce565b5190205f80516020613f51833981519152185490565b9190916128d381613b23565b5464ffffffffff926060848360601c16916128ef875184610f6d565b8381141596908780612b1d575b612af15761290a9086613be5565b96612913613c6b565b925f5b84518110156129a45761292f61178e6117808388610cb0565b6010808260581c1614612946575b50600101612916565b861c90813b15610371575f898d938a838e61297760405198899687958694630abd6b4560e31b865260048601613546565b03925af19182156102f557600192612991575b509061293d565b8061180a61299e9261099a565b5f61298a565b5092989397909496919680985f995b60ff8b1660018110156129da5760ff918b8b6001936028026038011c16019b0116996129b3565b509692975093985093989196506040945f80516020613f3183398151915260405180612a2c8d8b8d65ffffffffffff6f43686172616374657245717569706d65631d18955160e21b019816908561365c565b0390a2612ae1575b612a478884612a4289613300565b613db9565b5f5b8151811015612ad657612a6261178e6117808385610cb0565b6020808260581c1614612a79575b50600101612a49565b831c90813b15610371575f878b9387838c612aa98c5198899687958694636358453360e01b865260048601613546565b03925af19182156102f557600192612ac3575b5090612a70565b8061180a612ad09261099a565b5f612abc565b505050505050509050565b84612aeb87613b23565b55612a34565b604051632994042d60e21b815264ffffffffff8616600482018190525f60248301526044820152606490fd5b5084612b2b6119a3826134b9565b14156128fc565b93612b61612b5b612b4f612b55612b4f610a2798999796976122eb565b966122eb565b946122eb565b916122eb565b90604051958693602095612b7d8151809289808a019101611aa8565b8501612b9182518093898085019101611aa8565b01612ba482518093888085019101611aa8565b01612bb782518093878085019101611aa8565b01612bca82518093868085019101611aa8565b010380845201826109e3565b909291906001600160a01b03612bea612345565b16308103612bfd5750926112e99361375d565b909192813b15610371575f612c6c93612c808296612c5994604051998a988997889663298314fb60e01b88526f43686172616374657245717569706d65631d18955160e21b01600489015260a0602489015260a4880190610544565b6003199283888303016044890152611f2a565b926064860152848303016084850152611f2a565b03925af180156102f557611a805750565b610a279064ffffffffff612cad612ca7836133d7565b92613b62565b5460601c1690613ad8565b610a279064ffffffffff612cf35f80516020613f718339815191526040516020810190612ce9816125498885613111565b5190201892613b77565b5460381c1690613ad8565b610a279064ffffffffff612cad5f80516020613f918339815191526040516020810190612d2f81612549888561315a565b5190201892613b4d565b6040805160206020600160801b0384168201810190925260016001607b1b03600584901c1680825290939260801c8285015f5b838110612d7a575050505050565b825182529184019190840190600101612d6c565b90612d9882613b23565b549164ffffffffff92606092848260601c1693601f198501858111610f4c57861690604092835197612dc9896109c8565b5f89525f368137612de4612ddc89610f51565b8a5190610f6d565b8881141598898061302f575b61300057808611612fda5750612e069087613be5565b97612e0f613c6b565b925f5b8451811015612e9f57612e2b61178e6117808388610cb0565b6010808260581c1614612e42575b50600101612e12565b861c90813b15610371575f8a8e938a838f612e728f5198899687958694630abd6b4560e31b8652600486016135aa565b03925af19182156102f557600192612e8c575b5090612e39565b8061180a612e999261099a565b5f612e85565b509398919792999495909580995f9a5b60ff8c166001811015612ed65760ff918c8c6001936028026038011c16019c01169a612eaf565b50929793985094995094999297505f80516020613f31833981519152865180612f258d8b8d65ffffffffffff6f43686172616374657245717569706d65631d18955160e21b01981690856136a2565b0390a2612fca575b612f3b8884612a42896133d7565b5f5b8151811015612ad657612f5661178e6117808385610cb0565b6020808260581c1614612f6d575b50600101612f3d565b831c90813b15610371575f878b9387838c612f9d8c5198899687958694636358453360e01b8652600486016135aa565b03925af19182156102f557600192612fb7575b5090612f64565b8061180a612fc49261099a565b5f612fb0565b84612fd487613b62565b55612f2d565b8651637e8578d360e01b8152600481019190915264ffffffffff86166024820152604490fd5b8651632994042d60e21b815264ffffffffff878116600483015260206024830152919091166044820152606490fd5b508061303d6119a3886134cc565b1415612df0565b6953746f7265486f6f6b7360301b66746273746f726560c81b01815281516020918201928201915f5b82811061307b575050505090565b83518552938101939281019260010161306d565b5f80516020613fd1833981519152815281516020918201928201915f5b8281106130ba575050505090565b8351855293810193928101926001016130ac565b644974656d7360581b631d18955160e21b01815281516020918201928201915f5b8281106130fd575050505090565b8351855293810193928101926001016130ef565b6a576561706f6e537461747360281b631d18955160e21b01815281516020918201928201915f5b828110613146575050505090565b835185529381019392810192600101613138565b694368617261637465727360301b631d18955160e21b01815281516020918201928201915f5b82811061318e575050505090565b835185529381019392810192600101613180565b5f80516020613fd1833981519152815281516020918201928201915f5b8281106131cd575050505090565b8351855293810193928101926001016131bf565b694368617261637465727360301b631d18955160e21b01815281516020918201928201915f5b828110613215575050505090565b835185529381019392810192600101613207565b6a576561706f6e537461747360281b631d18955160e21b01815281516020918201928201915f5b82811061325e575050505090565b835185529381019392810192600101613250565b644974656d7360581b631d18955160e21b01815281516020918201928201915f5b8281106132a1575050505090565b835185529381019392810192600101613293565b6f537461745265737472696374696f6e73631d18955160e21b01815281516020918201928201915f5b8281106132ec575050505090565b8351855293810193928101926001016132de565b5f80516020613f91833981519152906040516133248161254960208201948561308f565b5190201890565b905f80516020613f71833981519152916040516133508161254960208201948561315a565b51902060f89190911b6001600160f81b031916181890565b905f80516020613f7183398151915291604051613350816125496020820194856131a2565b905f80516020613f718339815191529160405161335081612549602082019485613111565b905f80516020613f7183398151915291604051613350816125496020820194856130ce565b5f80516020613f9183398151915290604051613324816125496020820194856131a2565b905f80516020613f71833981519152916040516133508161254960208201948561308f565b9291925b6020908183106134445780548552930192601f1990910190600101613424565b9190509291928061345457505050565b5f199060031b1c90818351169119905416179052565b906112e96001600160801b038316613481816124fd565b93602085019060801c613ba1565b6040516134a48161254960208201948561308f565b5190205f80516020613f518339815191521890565b9064ffffffffff809216918211610f4c57565b90602064ffffffffff80931601918211610f4c57565b909264ffffffffff613520610a279694956f43686172616374657245717569706d65631d18955160e21b01855260e0602086015260e0850190610544565b94600160408501525f606085015216608083015260a082015260c0818403910152611f2a565b909264ffffffffff613584610a279694956f43686172616374657245717569706d65631d18955160e21b01855260e0602086015260e0850190610544565b94600160408501521660608301525f608083015260a082015260c0818403910152611f2a565b909264ffffffffff6135e8610a279694956f43686172616374657245717569706d65631d18955160e21b01855260e0602086015260e0850190610544565b94600160408501521660608301526020608083015260a082015260c0818403910152611f2a565b919390610a27959365ffffffffffff61363664ffffffffff9360c0875260c0870190610544565b9660016020870152166040850152166060830152608082015260a0818403910152611f2a565b909265ffffffffffff61367c610a2796949560c0855260c0850190610544565b94600160208501521660408301525f6060830152608082015260a0818403910152611f2a565b909265ffffffffffff6136c2610a2796949560c0855260c0850190610544565b946001602085015216604083015260206060830152608082015260a0818403910152611f2a565b91909164ffffffffff90818160381c1692610a2761141561370d611415878961221d565b96613724611415878760601c168901809984612272565b966137516114156137416114158a8a60881c168501809587612272565b988860b01c168301809385612272565b9560d81c810191612272565b60408051655461626c657360501b66746273746f726560c81b01602082019081525f80516020613fd183398151915282840181905283835296979295949291606091908281016001600160401b038111828210176109955788525190205f80516020613f518339815191521854916137d3613c6b565b905f5b8251811015613865576137ef61178e6117808386610cb0565b6001808260581c1614613806575b506001016137d6565b841c90813b15610371575f898d9389838c8f8c6138389151998a97889687956315c19b2760e21b875260048701613e06565b03925af19182156102f557600192613852575b50906137fd565b8061180a61385f9261099a565b5f61384b565b50977f8dbb3a9672eebfd3773e72dd9c102393436816d832c7ba9e1e1ac8fcadcac7a98851806138988d8b8a8c85613dca565b0390a26138b36138a78661348f565b85516020870191613e65565b60ff808460e01c1680613954575b50505f5b815181101561194d576138de61178e6117808385610cb0565b6002808260581c16146138f5575b506001016138c5565b831c90813b15610371575f888c9388838b6139278f8c9051998a9788968795635b28cdaf60e01b875260048701613e06565b03925af19182156102f557600192613941575b50906138ec565b8061180a61394e9261099a565b5f61393a565b979198929695949099938661396887613b23565b555f97602086015b8c8a16908b8210156139b9576139b08e92826139ab6001948f8f8f64ffffffffff9261399b916133fb565b956028026038011c168094613e65565b610f6d565b9a011698613970565b50509399929850939950939495505f806138c1565b60405190602090601f1990816094850116604052605584526020840192605591925b81831015613a2157505080613a055750505090565b5f199060031b1c908183511691199054161790525f8080610cfc565b816001858394959796548752019401940191906139f0565b60405190602090601f19908161011f85011660405260e08452602084019260e091925b81831015613a7157505080613a055750505090565b81600185839495979654875201940194019190613a5c565b60405190602090601f19908160a0850116604052606184526020840192606191925b81831015613ac057505080613a055750505090565b81600185839495979654875201940194019190613aab565b60408051601f19603f85830101811690925283815292602080850193925b81831015613b0b57505080613a055750505090565b81600185839495979654875201940194019190613af6565b604051613b388161254960208201948561308f565b5190205f80516020613fb18339815191521890565b604051613b388161254960208201948561315a565b604051613b38816125496020820194856131a2565b604051613b3881612549602082019485613111565b604051613b38816125496020820194856130ce565b9291905b602090818310613bc4578451815293810193601f199092019101613ba5565b9293919050801561114f575f199060031b1c90818351169119905116179052565b64ffffffffff808311613c525766ffffffffffffff821690606083901c1683818110613c48570301915b64ffffffffff60601b60609190911b1664ffffffffff60601b1992909216600169ffffffffff000000000160381b031991909116171790565b9003900391613c0f565b604051637149a3c160e01b815260048101849052602490fd5b613c736111a3565b805115610cab57613d1e61140d6020926f43686172616374657245717569706d65631d18955160e21b018482015264ffffffffff604051915f80516020613f7183398151915286840184613cc78483613044565b0394613cdb601f19968781018352826109e3565b5190201892613d016040519182613cf58a82019586613044565b039081018352826109e3565b5190205f80516020613fb1833981519152185460381c1690613ad8565b8060801c916015809260018060801b0316049060405193818501828460051b8701016040528386525f5b848110613d585750505050505090565b825182529185019190830190600101613d48565b81519060208093019190925b80821015613da1575080613d8b57505050565b5f199060031b1c90818354169119905116179055565b6001839482939451815501930191601f190190613d78565b82516112e993602001929091613e98565b90610a279492613de5613df392608085526080850190610544565b908382036020850152611f2a565b9260408201526060818403910152611f2a565b959493613e5261209593613e4460a096946f43686172616374657245717569706d65631d18955160e21b018b5260c060208c015260c08b0190610544565b9089820360408b0152611f2a565b9160608801528682036080880152611f2a565b9291925b602090818310613e895784518155930192601f1990910190600101613e69565b929391905080613d8b57505050565b909392919380613ec7575b50929092602090818310613e895784518155930192601f1990910190600101613e69565b6020811015613f20575b8015613ea35791939082602003908360031b5f198460031b1c19811c908751901c908019835416911617815581831115613f1857600101940191601f19910101925f613ea3565b505050509050565b90601f908260051c019116613ed156fefe158a7adba34e256807c8a149028d3162918713c3838afc643ce9f96716ebfd86425bff6b57326c7859e89024fe4f238ca327a1ae4a230180dd2f0e88aaa7d93b4102da22e32d82fc925482184f16c09fd4281692720b87d124aef6da48a0f13a4102da22e32d82fc925482184f16c09fd4281692720b87d124aef6da48a0f114e2fcc58e58e68ec7edc30c8d50dccc3ce2714a623ec81f46b6a63922d765697462554400000000000000000000000043686172616374657245717569706d65","linkReferences":{}},"methodIdentifiers":{"_msgSender()":"119df25f","_msgValue()":"45ec9354","_world()":"e1af802c","calculateWeaponBonuses(bytes32)":"efd9e64e","canEquipMoreWeapons(bytes32)":"eafbe7ab","checkWeaponEffect(uint256,bytes32)":"dbcff8e3","checkWeaponRequirements(bytes32,uint256)":"c5cabc0f","equipWeapon(bytes32,uint256)":"00fd6235","getEquippedWeapons(bytes32)":"f1d9def4","getWeaponEffects(uint256)":"88da4b27","getWeaponStatsData(uint256)":"7bc61c07","isWeaponEquipped(bytes32,uint256)":"3342725f","supportsInterface(bytes4)":"01ffc9a7","unequipWeapon(bytes32,uint256)":"cc678398"},"id":388}