{"abi":[{"type":"function","name":"_msgSender","inputs":[],"outputs":[{"name":"sender","type":"address","internalType":"address"}],"stateMutability":"view"},{"type":"function","name":"_msgValue","inputs":[],"outputs":[{"name":"value","type":"uint256","internalType":"uint256"}],"stateMutability":"view"},{"type":"function","name":"_world","inputs":[],"outputs":[{"name":"","type":"address","internalType":"address"}],"stateMutability":"view"},{"type":"function","name":"endEncounter","inputs":[{"name":"encounterId","type":"bytes32","internalType":"bytes32"},{"name":"randomNumber","type":"uint256","internalType":"uint256"},{"name":"attackersWin","type":"bool","internalType":"bool"}],"outputs":[],"stateMutability":"nonpayable"},{"type":"function","name":"supportsInterface","inputs":[{"name":"interfaceId","type":"bytes4","internalType":"bytes4"}],"outputs":[{"name":"","type":"bool","internalType":"bool"}],"stateMutability":"pure"},{"type":"event","name":"Store_SetRecord","inputs":[{"name":"tableId","type":"bytes32","indexed":true,"internalType":"ResourceId"},{"name":"keyTuple","type":"bytes32[]","indexed":false,"internalType":"bytes32[]"},{"name":"staticData","type":"bytes","indexed":false,"internalType":"bytes"},{"name":"encodedLengths","type":"bytes32","indexed":false,"internalType":"EncodedLengths"},{"name":"dynamicData","type":"bytes","indexed":false,"internalType":"bytes"}],"anonymous":false},{"type":"event","name":"Store_SpliceDynamicData","inputs":[{"name":"tableId","type":"bytes32","indexed":true,"internalType":"ResourceId"},{"name":"keyTuple","type":"bytes32[]","indexed":false,"internalType":"bytes32[]"},{"name":"dynamicFieldIndex","type":"uint8","indexed":false,"internalType":"uint8"},{"name":"start","type":"uint48","indexed":false,"internalType":"uint48"},{"name":"deleteCount","type":"uint40","indexed":false,"internalType":"uint40"},{"name":"encodedLengths","type":"bytes32","indexed":false,"internalType":"EncodedLengths"},{"name":"data","type":"bytes","indexed":false,"internalType":"bytes"}],"anonymous":false},{"type":"event","name":"Store_SpliceStaticData","inputs":[{"name":"tableId","type":"bytes32","indexed":true,"internalType":"ResourceId"},{"name":"keyTuple","type":"bytes32[]","indexed":false,"internalType":"bytes32[]"},{"name":"start","type":"uint48","indexed":false,"internalType":"uint48"},{"name":"data","type":"bytes","indexed":false,"internalType":"bytes"}],"anonymous":false},{"type":"error","name":"EncodedLengths_InvalidLength","inputs":[{"name":"length","type":"uint256","internalType":"uint256"}]},{"type":"error","name":"EncounterAlreadyOver","inputs":[]},{"type":"error","name":"InvalidEncounter","inputs":[]},{"type":"error","name":"InvalidEncounterType","inputs":[]},{"type":"error","name":"Slice_OutOfBounds","inputs":[{"name":"data","type":"bytes","internalType":"bytes"},{"name":"start","type":"uint256","internalType":"uint256"},{"name":"end","type":"uint256","internalType":"uint256"}]},{"type":"error","name":"Store_IndexOutOfBounds","inputs":[{"name":"length","type":"uint256","internalType":"uint256"},{"name":"accessedIndex","type":"uint256","internalType":"uint256"}]},{"type":"error","name":"Store_InvalidResourceType","inputs":[{"name":"expected","type":"bytes2","internalType":"bytes2"},{"name":"resourceId","type":"bytes32","internalType":"ResourceId"},{"name":"resourceIdString","type":"string","internalType":"string"}]},{"type":"error","name":"Store_InvalidSplice","inputs":[{"name":"startWithinField","type":"uint40","internalType":"uint40"},{"name":"deleteCount","type":"uint40","internalType":"uint40"},{"name":"fieldLength","type":"uint40","internalType":"uint40"}]}],"bytecode":{"object":"0x6080806040523461001657613510908161001b8239f35b5f80fdfe60806040526004361015610011575f80fd5b5f3560e01c806301ffc9a714610064578063119df25f1461005f57806345ec93541461005a578063e1af802c146100555763e903546c14610050575f80fd5b61014d565b610121565b610102565b6100c6565b346100b85760203660031901126100b85760043563ffffffff60e01b81168091036100b85763b5dee12760e01b81149081156100a7575b50151560805260206080f35b6301ffc9a760e01b1490508161009b565b5f80fd5b5f9103126100b857565b346100b8575f3660031901126100b85736603319013560601c80156100fb575b6040516001600160a01b039091168152602090f35b50336100e6565b346100b8575f3660031901126100b8576020604051601f193601358152f35b346100b8575f3660031901126100b857602061013b610774565b6040516001600160a01b039091168152f35b346100b85760603660031901126100b85760043560443580151581036100b85761017682610355565b156101db57610184826103a1565b61018d81610202565b801580156101c8575b156101ab57506101a9916024359061052a565b005b600291506101b881610202565b146101bf57005b6101a9906103cb565b506101d281610202565b60018114610196565b6101e482610375565b156101f0576002610184565b60405163d8deb7b560e01b8152600490fd5b6003111561020c57565b634e487b7160e01b5f52602160045260245ffd5b634e487b7160e01b5f52604160045260245ffd5b6001600160401b03811161024757604052565b610220565b604081019081106001600160401b0382111761024757604052565b60a081019081106001600160401b0382111761024757604052565b601f909101601f19168101906001600160401b0382119082101761024757604052565b6040519060c082016001600160401b0381118382101761024757604052565b6001600160401b0381116102475760051b60200190565b604051906102e88261024c565b6001825260203681840137565b604051602081016001600160401b03811182821017610247576040525f8152905f368137565b634e487b7160e01b5f52603260045260245ffd5b80511561033c5760200190565b61031b565b805182101561033c5760209160051b010190565b61035d6102db565b80511561033c576103729160208201526107eb565b90565b61037d6102db565b80511561033c576103729160208201526108a5565b60ff16600381101561020c5790565b6103a96102db565b9081511561033c57816103c3916020610372940152610932565b60f81c610392565b6103d3610ae3565b506103dc6102db565b80511561033c57808260206103f293015261130e565b5050906103fd610ae3565b9060208301519260408101519360806060830151920151906060850195828752836040870152602086015284521590811591610451575b506101f05761044f9242905261044a8251610b17565b610bfd565b565b9050155f610434565b6040519060c082016001600160401b0381118382101761024757604052606060a0835f81525f60208201525f60408201525f838201525f60808201520152565b90916060828403126100b8578151926020808401519360408101519060018060401b0382116100b857019180601f840112156100b85782516104db816102c4565b936104e96040519586610282565b818552838086019260051b8201019283116100b8578301905b828210610510575050505090565b81518152908301908301610502565b6040513d5f823e3d90fd5b91909161053681610d5b565b9161054082610e27565b6107625761054e4283610e44565b42604084015261055c61045a565b506001835161056a81610202565b61057381610202565b036106b2575f6105c4819561059861058c61058c610774565b6001600160a01b031690565b6040516349572ff160e01b81526004810187905260248101929092529096879283919082906044820190565b03925af19182156106ad5761044f94610618935f905f925f91610685575b5091905b6105fe6105f16102a5565b4281529515156020870152565b5f60408601526060850152608084015260a0830152610f1e565b6001815161062581610202565b61062e81610202565b148161064861012083940151831590819461066957610fa3565b610100810151919261065b575b50610fa3565b60e00151151591505f610655565b905061067f61067b60e0850151151590565b1590565b90610fa3565b9150506106a491503d805f833e61069c8183610282565b81019061049a565b9190915f6105e2565b61051f565b82516106bd81610202565b6106c681610202565b610750575f61070a81956106de61058c61058c610774565b6040516312f316c160e11b81526004810187905260248101929092529096879283919082906044820190565b03925af19182156106ad5761044f94610618935f905f925f91610730575b5091906105e6565b91505061074791503d805f833e61069c8183610282565b9190915f610728565b604051634f331f7160e01b8152600490fd5b6040516308f8364b60e01b8152600490fd5b7f629a4c26e296b22a8e0856e9f6ecb2d1008d7e00081111962cd175fa7488e175546001600160a01b03168061037257503390565b908160209103126100b8575190565b9081518082526020808093019301915f5b8281106107d7575050505090565b8351855293810193928101926001016107c9565b6001600160a01b036107fb610774565b1630810361080d575061037290611077565b604051638c364d5960e01b81525f805160206134f08339815191526004820152608060248201529160209183918290819061084c9060848301906107b8565b600160448301526aa30802012020012020200160a01b606483015203915afa9081156106ad575f9161087c575090565b610372915060203d60201161089e575b6108968183610282565b8101906107a9565b503d61088c565b6001600160a01b036108b5610774565b163081036108c7575061037290611109565b604051638c364d5960e01b81525f805160206133f0833981519152600482015260806024820152916020918391829081906109069060848301906107b8565b60026044830152660400200101010160c51b606483015203915afa9081156106ad575f9161087c575090565b6001600160a01b03610942610774565b163081036109585750610954906118fa565b5490565b604051638c364d5960e01b81525f805160206134f0833981519152600482015260806024820152916020918391829081906109979060848301906107b8565b5f60448301526aa30802012020012020200160a01b606483015203915afa9081156106ad575f9161087c575090565b6001600160a01b036109d6610774565b163081036109e857506103729061119a565b604051638c364d5960e01b81525f805160206134f083398151915260048201526080602482015291602091839182908190610a279060848301906107b8565b600260448301526aa30802012020012020200160a01b606483015203915afa9081156106ad575f9161087c575090565b6001600160a01b03610a67610774565b16308103610a795750610372906111e2565b604051638c364d5960e01b81525f8051602061347083398151915260048201526080602482015291602091839182908190610ab89060848301906107b8565b600160448301526502081809000960cd1b606483015203915afa9081156106ad575f9161087c575090565b60405190608082016001600160401b03811183821017610247576040525f6060838281528260208201528260408201520152565b610b1f6102db565b9081511561033c5760208201526040515f602082015260208152610b428161024c565b6001600160a01b03610b52610774565b1691308303610b655761044f92506125a8565b90823b156100b8576040516301c85d5760e51b81525f80516020613470833981519152600482015260a06024820152925f928492839185918391610bca9190610bb29060a48501906107b8565b90846044850152600319848303016064850152611497565b6502081809000960cd1b608483015203925af180156106ad57610bea5750565b80610bf761044f92610234565b806100bc565b815191602081015190606060408201519101519160405194602086015260408501526060840152608083015260808252610c3682610267565b610c3e6102db565b9081511561033c5760208201526001600160a01b03610c5b610774565b16308103610c6e57509061044f91611f57565b90813b156100b8575f91610cc783610cda93610cef6040519788968795869463298314fb60e01b86526f576f726c64456e636f756e7465720000631d18955160e21b01600487015260a0602487015260a48601906107b8565b6003199283868303016044870152611497565b9084606485015283820301608484015261145a565b03925af180156106ad57610bea5750565b6040519061014082016001600160401b03811183821017610247576040526060610120835f81525f60208201525f60408201525f838201525f60808201525f60a08201525f60c08201525f60e0820152826101008201520152565b610d63610d00565b50610d6c6102db565b9081511561033c5781610d86916020610e189401526113cb565b90610e13610d95949394610d00565b94610da6602082015160f81c610392565b90602181015190610e03604182015191606181015160f81c90606281015190608281015190610deb8d60e0610de460c260a286015195015160f81c90565b1515910152565b60c08d015260a08c015260808b0152151560608a0152565b6040880152602087015285611566565b612231565b61012083015261010082015290565b610e2f6102db565b80511561033c576103729160208201526109c6565b90610e4d6102db565b9182511561033c57602083015260405190602082015260208152610e708161024c565b6001600160a01b03610e80610774565b1691308303610e935761044f9250611c25565b90823b156100b8576040516301c85d5760e51b81525f805160206134f0833981519152600482015260a06024820152925f928492839185918391610ef99190610ee09060a48501906107b8565b6002604485015283810360031901606485015290611497565b6aa30802012020012020200160a01b608483015203925af180156106ad57610bea5750565b9061044f9160a0825192602081015115156040820151151560608301519060808401519260405197602089015260f81b604088015260f81b60418701526042860152606285015260628452610f7284610267565b015191610f80835193611572565b92610f896102db565b92610f938461032f565b5280603d1b9060051b17916114bc565b919091610fae6102f5565b905f5b815181101561107057610fc48183610341565b5190610fcf82610b17565b610fd984836115a4565b610fe282611632565b610ff1575b6001915001610fb1565b73__$07a7b0f8aaa7d5daedc2c8659683784989$__803b156100b857604051632826077160e21b8152600481018490528715156024820152905f90829060449082905af480156106ad5760019361105892879261105d575b5061105381611655565b61170d565b610fe7565b80610bf761106a92610234565b5f611049565b5050509050565b611080906118fa565b5f905f5b600181106110d75750818160208210156110c1575b505080548260031b1b9160200390816020116110b457505090565b600101549060031b1c1790565b90809350601f925060051c019116905f80611099565b9160ff6aa30802012020012020200160a01b84601b0360031b1c1681018091116111045791600101611084565b611a5f565b60405161112c8161111e6020820194856117f2565b03601f198101835282610282565b5190205f80516020613450833981519152185f905f5b600281106111715750818160208210156110c157505080548260031b1b9160200390816020116110b457505090565b9160ff660400200101010160c51b84601b0360031b1c1681018091116111045791600101611142565b6111a3906118fa565b6111ab611a80565b908060208310156111d1575b5080548260031b1b9160200390816020116110b457505090565b601f83169260051c0190505f6111b7565b6040516111f78161111e602082019485611831565b5190205f8051602061345083398151915218611211611abc565b90806020831015611237575b5080548260031b1b9160200390816001116110b457505090565b601f83169260051c0190505f61121d565b6001600160401b03811161024757601f01601f191660200190565b5f5b8381106112745750505f910152565b8181015183820152602001611265565b81601f820112156100b857805161129a81611248565b926112a86040519485610282565b818452602082840101116100b8576103729160208085019101611263565b90916060828403126100b85781516001600160401b0392908381116100b857846112f1918301611284565b9360208201519360408301519081116100b8576103729201611284565b6001600160a01b0361131e610774565b16308103611337575061133090611af3565b9192909190565b60405163419b58fd60e01b81525f805160206133f083398151915260048201526060602482015292915f918491829081906113769060648301906107b8565b660400200101010160c51b604483015203915afa9081156106ad575f80935f936113a1575b50929190565b919350506113c191503d805f833e6113b98183610282565b8101906112c6565b929092915f61139b565b6001600160a01b036113db610774565b163081036113ed575061133090611b6c565b60405163419b58fd60e01b81525f805160206134f083398151915260048201526060602482015292915f9184918290819061142c9060648301906107b8565b6aa30802012020012020200160a01b604483015203915afa9081156106ad575f80935f936113a15750929190565b90606051918281525f5b8381106114835750825f602080949584010152601f8019910116010190565b806020916080015182828501015201611464565b906020916114b081518092818552858086019101611263565b601f01601f1916010190565b909291906001600160a01b036114d0610774565b163081036114e357509261044f9361217a565b909192813b156100b8575f61155293610cef829661153f94604051998a988997889663298314fb60e01b88526f436f6d6261744f7574636f6d65000000631bdd155160e21b01600489015260a0602489015260a48801906107b8565b6003199283888303016044890152611497565b926064860152848303016084850152611497565b600382101561020c5752565b61157b906122d8565b6103726020604051836115978295518092858086019101611263565b8101038084520182610282565b6115ac6102db565b9182511561033c576115c29160208401526122d8565b6001600160a01b036115d2610774565b16913083036115e55761044f925061281b565b90823b156100b8576040516377b7543160e11b81525f80516020613470833981519152600482015260806024820152925f928492839185918391610cef9190610bb29060848501906107b8565b61163a6102db565b80511561033c5761164f916020820152610a57565b60f81c90565b61165d6102db565b9081511561033c576020820152604051600160f81b6020820152600181526116848161024c565b6001600160a01b03611694610774565b16913083036116a75761044f9250611dd4565b90823b156100b8576040516301c85d5760e51b81525f80516020613470833981519152600482015260a06024820152925f928492839185918391610bca91906116f49060a48501906107b8565b6001604485015283810360031901606485015290611497565b6117156102db565b9182511561033c5761172b9160208401526122d8565b6001600160a01b0361173b610774565b169130830361174e5761044f9250612a3c565b90823b156100b8576040516377b7543160e11b81526f576f726c645374617475734566666563631d18955160e21b01600482015260806024820152925f928492839185918391610cef9190610bb29060848501906107b8565b6953746f7265486f6f6b7360301b66746273746f726560c81b01815281516020918201928201915f5b8281106117de575050505090565b8351855293810193928101926001016117d0565b5f805160206133f0833981519152815281516020918201928201915f5b82811061181d575050505090565b83518552938101939281019260010161180f565b5f80516020613470833981519152815281516020918201928201915f5b82811061185c575050505090565b83518552938101939281019260010161184e565b5f805160206134f0833981519152815281516020918201928201915f5b82811061189b575050505090565b83518552938101939281019260010161188d565b6f576f726c645374617475734566666563631d18955160e21b01815281516020918201928201915f5b8281106118e6575050505090565b8351855293810193928101926001016118d8565b60405161190f8161111e602082019485611870565b5190205f805160206134508339815191521890565b60405160208160208101936f576f726c64456e636f756e7465720000631d18955160e21b0185526040820160208251919201935f5b8281106119765750505061190f925003601f198101835282610282565b855184529481019486945092810192600101611959565b60405160208160208101936f436f6d626174456e636f756e74657200631d18955160e21b0185526040820160208251919201935f5b8281106119df5750505061190f925003601f198101835282610282565b8551845294810194869450928101926001016119c2565b60405160208160208101936f456e636f756e746572456e7469747900631d18955160e21b0185526040820160208251919201935f5b828110611a485750505061190f925003601f198101835282610282565b855184529481019486945092810192600101611a2b565b634e487b7160e01b5f52601160045260245ffd5b9190820180921161110457565b5f805b60028110611a8f575090565b9060ff6aa30802012020012020200160a01b83601b0360031b1c1681018091116111045790600101611a83565b5f805b60018110611acb575090565b9060ff6502081809000960cd1b83601b0360031b1c1681018091116111045790600101611abf565b5f90611b00606091611924565b60405190602090601f19908160bf850116604052608084526020840192608091925b81831015611b5457505080611b38575b50505092565b5f199060031b1c908183511691199054161790525f8080611b32565b81600185839495979654875201940194019190611b22565b611b7d611b788261198d565b612c26565b91611b8782612cdd565b549266ffffffffffffff841692611bb6611ba085611248565b94611bae6040519687610282565b808652611248565b602085019490601f190136863793915f925b60ff8416906002821015611c1b579081611c00611c059364ffffffffff8b611bf08a8a61233f565b956028026038011c168094612437565b611a73565b9260ff8091169081146111045760010192611bc8565b5050949392915050565b91909165ffffffffffff611c37611a80565b16611c418261198d565b611c49612ef9565b905f5b8251811015611cf157611c80611c73611c658386610341565b516001600160581b03191690565b6001600160581b03191690565b9060049182808260581c1614611c9c575b506001915001611c4c565b60601c803b156100b857855f9188838c96611ccb6040519889968795869463964f667d60e01b865285016124dd565b03925af19182156106ad5760019215611c915780610bf7611ceb92610234565b5f611c91565b50949190611d3e8383604098875f8051602061343083398151915260405180611d3687876f436f6d626174456e636f756e74657200631d18955160e21b0196846124ac565b0390a2613144565b5f5b8151811015611dcb57611d59611c73611c658385610341565b6008808260581c1614611d70575b50600101611d40565b60601c90813b156100b857875163a8ba872160e01b8152915f908390818381611d9e8b8b8e600485016124dd565b03925af19182156106ad57600192611db8575b5090611d67565b80610bf7611dc592610234565b5f611db1565b50505050509050565b91909165ffffffffffff611de6611abc565b16611df0826119f6565b611df861304d565b905f5b8251811015611e8557611e14611c73611c658386610341565b9060049182808260581c1614611e30575b506001915001611dfb565b60601c803b156100b857855f9188838c96611e5f6040519889968795869463964f667d60e01b8652850161256c565b03925af19182156106ad5760019215611e255780610bf7611e7f92610234565b5f611e25565b50949190611eca8383604098875f8051602061343083398151915260405180611d3687876f456e636f756e746572456e7469747900631d18955160e21b0196846124ac565b5f5b8151811015611dcb57611ee5611c73611c658385610341565b6008808260581c1614611efc575b50600101611ecc565b60601c90813b156100b857875163a8ba872160e01b8152915f908390818381611f2a8b8b8e6004850161256c565b03925af19182156106ad57600192611f44575b5090611ef3565b80610bf7611f5192610234565b5f611f3d565b60408051655461626c657360501b66746273746f726560c81b01602082019081525f805160206133f08339815191528284018190528383529295929491606091908281016001600160401b038111828210176102475788525190205f80516020613450833981519152185492611fcb612fa3565b905f5b825181101561205a57611fe7611c73611c658386610341565b6001808260581c1614611ffe575b50600101611fce565b841c90813b156100b8575f8761202d9388838c8f51978895869485936315c19b2760e21b855260048501612763565b03925af19182156106ad57600192612047575b5090611ff5565b80610bf761205492610234565b5f612040565b50955f80516020613490833981519152885180612078878a83612727565b0390a261209361208786611924565b84516020860191613155565b60ff808560e01c1680612139575b50505f5b815181101561212f576120be611c73611c658385610341565b6002808260581c16146120d5575b506001016120a5565b831c90813b156100b8578851635b28cdaf60e01b8152915f9083908183816121028c8c8f60048501612763565b03925af19182156106ad5760019261211c575b50906120cc565b80610bf761212992610234565b5f612115565b5050505050509050565b5f61214388612d31565b555f60805b88838584161061215a575050506120a1565b81612171869361216c866001956123cb565b613188565b92011690612148565b60408051655461626c657360501b66746273746f726560c81b0160208201526f436f6d6261744f7574636f6d65000000631bdd155160e21b01818301819052918152909493606082019392906001600160401b03851183861017610247575f805160206134908339815191529561221661220361222b94886040526080895260e08701906107b8565b605f199687878303016080880152611497565b9160a0850152848483030160c0850152611497565b030190a2565b919064ffffffffff808460381c169061225261224d83856127c6565b613225565b9460601c1681019182821180156122ce575b612299579081602082819401019283910111611104578203918211611104576103729160018060801b03169060801b17613225565b6040516323230fa360e01b815260606004820152928392916122bf906064850190611497565b91602484015260448301520390fd5b5080518311612264565b80518060051b602091808204602014811517156111045790604051936020850191601f19603f8288010116604052855260205f9101905b83811061231e57505050505090565b81518352918401919084019060010161230f565b9190820391821161110457565b905f805160206134b0833981519152916040516123648161111e602082019485611870565b51902060f89190911b6001600160f81b031916181890565b5f805160206134b0833981519152906040516123a08161111e602082019485611831565b5190201890565b5f805160206134b0833981519152906040516123a08161111e6020820194856118af565b604080515f805160206133f083398151915260208083019182528451938301969594919391810191905f5b8281106124235750505050612364815f805160206134b0833981519152959603601f198101835282610282565b8351895297810197928101926001016123f6565b9291925b60209081831061245b5780548552930192601f199091019060010161243b565b9190509291928061246b57505050565b5f199060031b1c90818351169119905416179052565b9091612498610372936060845260608401906107b8565b915f60208201526040818403910152611497565b65ffffffffffff6124c961037295936060845260608401906107b8565b931660208201526040818403910152611497565b65ffffffffffff61251961037295936f436f6d626174456e636f756e74657200631d18955160e21b0184526080602085015260808401906107b8565b931660408201526060818403910152611497565b5f805160206134708339815191528152608060208201819052610372939192612558918401906107b8565b915f60408201526060818403910152611497565b65ffffffffffff61251961037295936f456e636f756e746572456e7469747900631d18955160e21b0184526080602085015260808401906107b8565b91906125b3836119f6565b916125bc61304d565b905f5b8251811015612648576125d8611c73611c658386610341565b9060049182808260581c16146125f4575b5060019150016125bf565b60601c803b156100b857855f918983612622966040519788958694859363964f667d60e01b8552840161252d565b03925af19182156106ad57600192156125e95780610bf761264292610234565b5f6125e9565b50929190612693826040946040515f805160206134308339815191526f456e636f756e746572456e7469747900631d18955160e21b01918061268b868d83612481565b0390a26130f7565b5f5b815181101561271f576126ae611c73611c658385610341565b6008808260581c16146126c5575b50600101612695565b60601c90813b156100b857845163a8ba872160e01b8152915f9083908183816126f28a8e6004840161252d565b03925af19182156106ad5760019261270c575b50906126bc565b80610bf761271992610234565b5f612705565b505050509050565b906103729261274161274f926080855260808501906107b8565b908382036020850152611497565b905f6040820152606081830391015261145a565b9392916127ae6127c1916127a060a0946f576f726c64456e636f756e7465720000631d18955160e21b01895260c060208a015260c08901906107b8565b908782036040890152611497565b5f6060870152858103608087015261145a565b930152565b90815181116127e5576001600160801b031660209190910160801b1790565b6040516323230fa360e01b8152606060048201529250829161280b906064840190611497565b905f602484015260448301520390fd5b91909161282781612d07565b5464ffffffffff8160381c166128486128408280612332565b865190611a73565b8181141594908580612a1d575b6129f1576128639084613372565b9061286c612d46565b915f5b83518110156128fe57612888611c73611c658387610341565b6010808260581c161461289f575b5060010161286f565b60601c90813b156100b8575f878b9388838c6128d160405198899687958694630abd6b4560e31b86526004860161328d565b03925af19182156106ad576001926128eb575b5090612896565b80610bf76128f892610234565b5f6128e4565b506040805192979195509392915f80516020613470833981519152905f8051602061341083398151915290806129378c8a898d8561332e565b0390a26129e1575b6129518761294c8761237c565b6130f7565b5f5b815181101561212f5761296c611c73611c658385610341565b6020808260581c1614612983575b50600101612953565b60601c90813b156100b8575f868a9386838b6129b48b5198899687958694636358453360e01b86526004860161328d565b03925af19182156106ad576001926129ce575b509061297a565b80610bf76129db92610234565b5f6129c7565b836129eb86612d07565b5561293f565b604051632994042d60e21b81525f600482015264ffffffffff8416602482018190526044820152606490fd5b5082612a35612a2b8261327a565b64ffffffffff1690565b1415612855565b919091612a4881612d1c565b5464ffffffffff8160381c16612a616128408280612332565b8181141594908580612c11575b6129f157612a7c9084613372565b90612a85612e4f565b915f5b8351811015612b1757612aa1611c73611c658387610341565b6010808260581c1614612ab8575b50600101612a88565b60601c90813b156100b8575f878b9388838c612aea60405198899687958694630abd6b4560e31b8652600486016132f0565b03925af19182156106ad57600192612b04575b5090612aaf565b80610bf7612b1192610234565b5f612afd565b506040805192979195509392916f576f726c645374617475734566666563631d18955160e21b01905f805160206134108339815191529080612b5c8c8a898d8561332e565b0390a2612c01575b612b718761294c876123a7565b5f5b815181101561212f57612b8c611c73611c658385610341565b6020808260581c1614612ba3575b50600101612b73565b60601c90813b156100b8575f868a9386838b612bd48b5198899687958694636358453360e01b8652600486016132f0565b03925af19182156106ad57600192612bee575b5090612b9a565b80610bf7612bfb92610234565b5f612be7565b83612c0b86612d1c565b55612b64565b5082612c1f612a2b8261327a565b1415612a6e565b60405190602090601f19908160e285011660405260a38452602084019260a391925b81831015612c7a57505080612c5e575b50505090565b5f199060031b1c908183511691199054161790525f8080612c58565b81600185839495979654875201940194019190612c48565b60408051601f19603f85830101811690925283815292602080850193925b81831015612cc557505080612c5e5750505090565b81600185839495979654875201940194019190612cb0565b604051612cf28161111e602082019485611870565b5190205f805160206134d08339815191521890565b604051612cf28161111e602082019485611831565b604051612cf28161111e6020820194856118af565b604051612cf28161111e6020820194856117f2565b612d4e6102db565b80511561033c57612e01612df96020926f456e636f756e746572456e7469747900631d18955160e21b018482015264ffffffffff604051915f805160206134b083398151915286840184612da284836117a7565b0394612db6601f1996878101835282610282565b5190201892612ddc6040519182612dd08a820195866117a7565b03908101835282610282565b5190205f805160206134d0833981519152185460381c1690612c92565b8051906127c6565b8060801c916015809260018060801b0316049060405193818501828460051b8701016040528386525f5b848110612e3b5750505050505090565b825182529185019190830190600101612e2b565b612e576102db565b80511561033c57612eab612df96020926f576f726c645374617475734566666563631d18955160e21b018482015264ffffffffff604051915f805160206134b083398151915286840184612da284836117a7565b8060801c916015809260018060801b0316049060405193818501828460051b8701016040528386525f5b848110612ee55750505050505090565b825182529185019190830190600101612ed5565b612f016102db565b80511561033c57612f55612df96020926f436f6d626174456e636f756e74657200631d18955160e21b018482015264ffffffffff604051915f805160206134b083398151915286840184612da284836117a7565b8060801c916015809260018060801b0316049060405193818501828460051b8701016040528386525f5b848110612f8f5750505050505090565b825182529185019190830190600101612f7f565b612fab6102db565b80511561033c57612fff612df96020926f576f726c64456e636f756e7465720000631d18955160e21b018482015264ffffffffff604051915f805160206134b083398151915286840184612da284836117a7565b8060801c916015809260018060801b0316049060405193818501828460051b8701016040528386525f5b8481106130395750505050505090565b825182529185019190830190600101613029565b6130556102db565b80511561033c576130a9612df96020926f456e636f756e746572456e7469747900631d18955160e21b018482015264ffffffffff604051915f805160206134b083398151915286840184612da284836117a7565b8060801c916015809260018060801b0316049060405193818501828460051b8701016040528386525f5b8481106130e35750505050505090565b8251825291850191908301906001016130d3565b81519060208093019190925b8082101561312c57508061311657505050565b5f199060031b1c90818354169119905116179055565b6001839482939451815501930191601f190190613103565b825161044f93602001929091613195565b9291925b6020908183106131795784518155930192601f1990910190600101613159565b92939190508061311657505050565b9091905f90602090613179565b9093929193806131c4575b509290926020908183106131795784518155930192601f1990910190600101613159565b6020811015613215575b80156131a05791939082602003908360031b5f198460031b1c19811c908751901c90801983541691161781558183111561271f57600101940191601f19910101925f6131a0565b90601f908260051c0191166131ce565b6040805160206020600160801b0384168201810190925260016001607b1b03600584901c1680825290939260801c8285015f5b838110613266575050505050565b825182529184019190840190600101613258565b9064ffffffffff80921691821161110457565b909264ffffffffff6132cb6103729694956f456e636f756e746572456e7469747900631d18955160e21b01855260e0602086015260e08501906107b8565b945f60408501525f606085015216608083015260a082015260c0818403910152611497565b909264ffffffffff6132cb6103729694956f576f726c645374617475734566666563631d18955160e21b01855260e0602086015260e08501906107b8565b909264ffffffffff61334d61037296949560c0855260c08501906107b8565b945f60208501525f6040850152166060830152608082015260a0818403910152611497565b64ffffffffff8083116133d65766ffffffffffffff821690603883901c16838181106133cc570301915b64ffffffffff60381b60389190911b1664ffffffffff60381b19929092166001600160601b031991909116171790565b900390039161339c565b604051637149a3c160e01b815260048101849052602490fdfe74625544000000000000000000000000576f726c64456e636f756e7465720000fe158a7adba34e256807c8a149028d3162918713c3838afc643ce9f96716ebfd8c0b5119d4cec7b284c6b1b39252a03d1e2f2d7451a5895562524c113bb952be86425bff6b57326c7859e89024fe4f238ca327a1ae4a230180dd2f0e88aaa7d974625544000000000000000000000000456e636f756e746572456e74697479008dbb3a9672eebfd3773e72dd9c102393436816d832c7ba9e1e1ac8fcadcac7a93b4102da22e32d82fc925482184f16c09fd4281692720b87d124aef6da48a0f114e2fcc58e58e68ec7edc30c8d50dccc3ce2714a623ec81f46b6a63922d7656974625544000000000000000000000000436f6d626174456e636f756e74657200","linkReferences":{"src/libraries/BoardCleanupLib.sol":{"BoardCleanupLib":[{"start":4110,"length":20}]}}},"methodIdentifiers":{"_msgSender()":"119df25f","_msgValue()":"45ec9354","_world()":"e1af802c","endEncounter(bytes32,uint256,bool)":"e903546c","supportsInterface(bytes4)":"01ffc9a7"},"id":364}