{"abi":[{"type":"function","name":"_msgSender","inputs":[],"outputs":[{"name":"sender","type":"address","internalType":"address"}],"stateMutability":"view"},{"type":"function","name":"_msgValue","inputs":[],"outputs":[{"name":"value","type":"uint256","internalType":"uint256"}],"stateMutability":"view"},{"type":"function","name":"_world","inputs":[],"outputs":[{"name":"","type":"address","internalType":"address"}],"stateMutability":"view"},{"type":"function","name":"endEncounter","inputs":[{"name":"encounterId","type":"bytes32","internalType":"bytes32"},{"name":"randomNumber","type":"uint256","internalType":"uint256"},{"name":"attackersWin","type":"bool","internalType":"bool"}],"outputs":[],"stateMutability":"nonpayable"},{"type":"function","name":"supportsInterface","inputs":[{"name":"interfaceId","type":"bytes4","internalType":"bytes4"}],"outputs":[{"name":"","type":"bool","internalType":"bool"}],"stateMutability":"pure"},{"type":"event","name":"Store_SetRecord","inputs":[{"name":"tableId","type":"bytes32","indexed":true,"internalType":"ResourceId"},{"name":"keyTuple","type":"bytes32[]","indexed":false,"internalType":"bytes32[]"},{"name":"staticData","type":"bytes","indexed":false,"internalType":"bytes"},{"name":"encodedLengths","type":"bytes32","indexed":false,"internalType":"EncodedLengths"},{"name":"dynamicData","type":"bytes","indexed":false,"internalType":"bytes"}],"anonymous":false},{"type":"event","name":"Store_SpliceDynamicData","inputs":[{"name":"tableId","type":"bytes32","indexed":true,"internalType":"ResourceId"},{"name":"keyTuple","type":"bytes32[]","indexed":false,"internalType":"bytes32[]"},{"name":"dynamicFieldIndex","type":"uint8","indexed":false,"internalType":"uint8"},{"name":"start","type":"uint48","indexed":false,"internalType":"uint48"},{"name":"deleteCount","type":"uint40","indexed":false,"internalType":"uint40"},{"name":"encodedLengths","type":"bytes32","indexed":false,"internalType":"EncodedLengths"},{"name":"data","type":"bytes","indexed":false,"internalType":"bytes"}],"anonymous":false},{"type":"event","name":"Store_SpliceStaticData","inputs":[{"name":"tableId","type":"bytes32","indexed":true,"internalType":"ResourceId"},{"name":"keyTuple","type":"bytes32[]","indexed":false,"internalType":"bytes32[]"},{"name":"start","type":"uint48","indexed":false,"internalType":"uint48"},{"name":"data","type":"bytes","indexed":false,"internalType":"bytes"}],"anonymous":false},{"type":"error","name":"EncodedLengths_InvalidLength","inputs":[{"name":"length","type":"uint256","internalType":"uint256"}]},{"type":"error","name":"EncounterAlreadyOver","inputs":[]},{"type":"error","name":"InvalidEncounter","inputs":[]},{"type":"error","name":"InvalidEncounterType","inputs":[]},{"type":"error","name":"Slice_OutOfBounds","inputs":[{"name":"data","type":"bytes","internalType":"bytes"},{"name":"start","type":"uint256","internalType":"uint256"},{"name":"end","type":"uint256","internalType":"uint256"}]},{"type":"error","name":"Store_IndexOutOfBounds","inputs":[{"name":"length","type":"uint256","internalType":"uint256"},{"name":"accessedIndex","type":"uint256","internalType":"uint256"}]},{"type":"error","name":"Store_InvalidResourceType","inputs":[{"name":"expected","type":"bytes2","internalType":"bytes2"},{"name":"resourceId","type":"bytes32","internalType":"ResourceId"},{"name":"resourceIdString","type":"string","internalType":"string"}]},{"type":"error","name":"Store_InvalidSplice","inputs":[{"name":"startWithinField","type":"uint40","internalType":"uint40"},{"name":"deleteCount","type":"uint40","internalType":"uint40"},{"name":"fieldLength","type":"uint40","internalType":"uint40"}]}],"bytecode":{"object":"0x60808060405234610016576131e3908161001b8239f35b5f80fdfe60806040526004361015610011575f80fd5b5f3560e01c806301ffc9a714610064578063119df25f1461005f57806345ec93541461005a578063e1af802c146100555763e903546c14610050575f80fd5b61014d565b610121565b610102565b6100c6565b346100b85760203660031901126100b85760043563ffffffff60e01b81168091036100b85763b5dee12760e01b81149081156100a7575b50151560805260206080f35b6301ffc9a760e01b1490508161009b565b5f80fd5b5f9103126100b857565b346100b8575f3660031901126100b85736603319013560601c80156100fb575b6040516001600160a01b039091168152602090f35b50336100e6565b346100b8575f3660031901126100b8576020604051601f193601358152f35b346100b8575f3660031901126100b857602061013b6106e2565b6040516001600160a01b039091168152f35b346100b85760603660031901126100b85760043560443580151581036100b85761018761017b61017b6106e2565b6001600160a01b031690565b60405163511600c360e01b81526004810184905290602090829060249082905afa90811561023d575f9161020e575b506101c0816102ea565b801580156101fb575b156101de57506101dc91602435906104a9565b005b600291506101eb816102ea565b146101f257005b6101dc90610308565b50610205816102ea565b600181146101c9565b610230915060203d602011610236575b61022881836102a4565b8101906102c7565b5f6101b6565b503d61021e565b6102df565b634e487b7160e01b5f52604160045260245ffd5b6001600160401b03811161026957604052565b610242565b604081019081106001600160401b0382111761026957604052565b60a081019081106001600160401b0382111761026957604052565b601f909101601f19168101906001600160401b0382119082101761026957604052565b908160209103126100b8575160038110156100b85790565b6040513d5f823e3d90fd5b600311156102f457565b634e487b7160e01b5f52602160045260245ffd5b61031061071a565b5061031961074e565b8051156103a9578082602061032f930152610e22565b50509061033a61071a565b90602083015192604081015193608060608301519201519060608501958287528360408701526020860152845215908115916103a0575b5061038e5761038c9242905261038782516107c3565b6108a9565b565b60405163d8deb7b560e01b8152600490fd5b9050155f610371565b61078e565b6040519060c082016001600160401b0381118382101761026957604052565b6040519060c082016001600160401b0381118382101761026957604052606060a0835f81525f60208201525f60408201525f838201525f60808201520152565b6001600160401b0381116102695760051b60200190565b90916060828403126100b8578151926020808401519360408101519060018060401b0382116100b857019180601f840112156100b85782516104658161040d565b9361047360405195866102a4565b818552838086019260051b8201019283116100b8578301905b82821061049a575050505090565b8151815290830190830161048c565b9190916104b581610a07565b916104bf82610ad9565b6106d0576104cd4283610af6565b4260408401526104db6103cd565b50600183516104e9816102ea565b6104f2816102ea565b03610620575f610537819561050b61017b61017b6106e2565b6040516349572ff160e01b81526004810187905260248101929092529096879283919082906044820190565b03925af191821561023d5761038c9461058b935f905f925f916105f8575b5091905b6105716105646103ae565b4281529515156020870152565b5f60408601526060850152608084015260a0830152610bd0565b60018151610598816102ea565b6105a1816102ea565b14816105bb6101208394015183159081946105dc57610c55565b61010081015191926105ce575b50610c55565b60e00151151591505f6105c8565b90506105f26105ee60e0850151151590565b1590565b90610c55565b91505061061791503d805f833e61060f81836102a4565b810190610424565b9190915f610555565b825161062b816102ea565b610634816102ea565b6106be575f610678819561064c61017b61017b6106e2565b6040516312f316c160e11b81526004810187905260248101929092529096879283919082906044820190565b03925af191821561023d5761038c9461058b935f905f925f9161069e575b509190610559565b9150506106b591503d805f833e61060f81836102a4565b9190915f610696565b604051634f331f7160e01b8152600490fd5b6040516308f8364b60e01b8152600490fd5b7f629a4c26e296b22a8e0856e9f6ecb2d1008d7e00081111962cd175fa7488e175546001600160a01b03168061071757503390565b90565b60405190608082016001600160401b03811183821017610269576040525f6060838281528260208201528260408201520152565b6040519061075b8261026e565b6001825260203681840137565b604051602081016001600160401b03811182821017610269576040525f8152905f368137565b634e487b7160e01b5f52603260045260245ffd5b8051156103a95760200190565b80518210156103a95760209160051b010190565b6107cb61074e565b908151156103a95760208201526040515f6020820152602081526107ee8161026e565b6001600160a01b036107fe6106e2565b16913083036108115761038c92506121ce565b90823b156100b8576040516301c85d5760e51b81525f80516020613143833981519152600482015260a06024820152925f928492839185918391610876919061085e9060a4850190610def565b90846044850152600319848303016064850152610fb7565b6502081809000960cd1b608483015203925af1801561023d576108965750565b806108a361038c92610256565b806100bc565b8151916020810151906060604082015191015191604051946020860152604085015260608401526080830152608082526108e282610289565b6108ea61074e565b908151156103a95760208201526001600160a01b036109076106e2565b1630810361091a57509061038c91611907565b90813b156100b8575f91610973836109869361099b6040519788968795869463298314fb60e01b86526f576f726c64456e636f756e7465720000631d18955160e21b01600487015260a0602487015260a4860190610def565b6003199283868303016044870152610fb7565b90846064850152838203016084840152610f7a565b03925af1801561023d576108965750565b6040519061014082016001600160401b03811183821017610269576040526060610120835f81525f60208201525f60408201525f838201525f60808201525f60a08201525f60c08201525f60e0820152826101008201520152565b610a0f6109ac565b50610a1861074e565b8051156103a957610a2d916020820152610eeb565b610a389291926109ac565b92602083015160f81c9260038410156102f457610aca93816021610ac593015190610ab5604182015191610a70606182015160f81c90565b90606281015190608281015190610a9d8d60e0610a9660c260a286015195015160f81c90565b1515910152565b60c08d015260a08c015260808b0152151560608a0152565b6040880152602087015285611086565b611bed565b61012083015261010082015290565b610ae161074e565b8051156103a9576107179160208201526110a1565b90610aff61074e565b918251156103a957602083015260405190602082015260208152610b228161026e565b6001600160a01b03610b326106e2565b1691308303610b455761038c9250611574565b90823b156100b8576040516301c85d5760e51b81525f805160206131c3833981519152600482015260a06024820152925f928492839185918391610bab9190610b929060a4850190610def565b6002604485015283810360031901606485015290610fb7565b6aa30802012020012020200160a01b608483015203925af1801561023d576108965750565b9061038c9160a0825192602081015115156040820151151560608301519060808401519260405197602089015260f81b604088015260f81b60418701526042860152606285015260628452610c2484610289565b015191610c328351936111e7565b92610c3b61074e565b92610c45846107a2565b5280603d1b9060051b1791610fdc565b919091610c60610768565b905f5b8151811015610d2257610c7681836107af565b5190610c81826107c3565b610c8b8483611219565b610c94826112a7565b610ca3575b6001915001610c63565b73__$07a7b0f8aaa7d5daedc2c8659683784989$__803b156100b857604051632826077160e21b8152600481018490528715156024820152905f90829060449082905af4801561023d57600193610d0a928792610d0f575b50610d05816112ca565b611382565b610c99565b806108a3610d1c92610256565b5f610cfb565b5050509050565b6001600160401b03811161026957601f01601f191660200190565b5f5b838110610d555750505f910152565b8181015183820152602001610d46565b81601f820112156100b8578051610d7b81610d29565b92610d8960405194856102a4565b818452602082840101116100b8576107179160208085019101610d44565b90916060828403126100b85781516001600160401b0392908381116100b85784610dd2918301610d65565b9360208201519360408301519081116100b8576107179201610d65565b9081518082526020808093019301915f5b828110610e0e575050505090565b835185529381019392810192600101610e00565b6001600160a01b03610e326106e2565b16308103610e4b5750610e4490611442565b9192909190565b60405163419b58fd60e01b81526f576f726c64456e636f756e7465720000631d18955160e21b0160048201526060602482015292915f91849182908190610e96906064830190610def565b660400200101010160c51b604483015203915afa90811561023d575f80935f93610ec1575b50929190565b91935050610ee191503d805f833e610ed981836102a4565b810190610da7565b929092915f610ebb565b6001600160a01b03610efb6106e2565b16308103610f0d5750610e44906114bb565b60405163419b58fd60e01b81525f805160206131c383398151915260048201526060602482015292915f91849182908190610f4c906064830190610def565b6aa30802012020012020200160a01b604483015203915afa90811561023d575f80935f93610ec15750929190565b90606051918281525f5b838110610fa35750825f602080949584010152601f8019910116010190565b806020916080015182828501015201610f84565b90602091610fd081518092818552858086019101610d44565b601f01601f1916010190565b909291906001600160a01b03610ff06106e2565b1630810361100357509261038c93611b36565b909192813b156100b8575f6110729361099b829661105f94604051998a988997889663298314fb60e01b88526f436f6d6261744f7574636f6d65000000631bdd155160e21b01600489015260a0602489015260a4880190610def565b6003199283888303016044890152610fb7565b926064860152848303016084850152610fb7565b60038210156102f45752565b908160209103126100b8575190565b6001600160a01b036110b16106e2565b163081036110c3575061071790611c94565b604051638c364d5960e01b81525f805160206131c383398151915260048201526080602482015291602091839182908190611102906084830190610def565b600260448301526aa30802012020012020200160a01b606483015203915afa90811561023d575f91611132575090565b610717915060203d602011611154575b61114c81836102a4565b810190611092565b503d611142565b6001600160a01b0361116b6106e2565b1630810361117d575061071790611d4d565b604051638c364d5960e01b81525f80516020613143833981519152600482015260806024820152916020918391829081906111bc906084830190610def565b600160448301526502081809000960cd1b606483015203915afa90811561023d575f91611132575090565b6111f090611de6565b61071760206040518361120c8295518092858086019101610d44565b81010380845201826102a4565b61122161074e565b918251156103a957611237916020840152611de6565b6001600160a01b036112476106e2565b169130830361125a5761038c925061253d565b90823b156100b8576040516377b7543160e11b81525f80516020613143833981519152600482015260806024820152925f92849283918591839161099b919061085e906084850190610def565b6112af61074e565b8051156103a9576112c491602082015261115b565b60f81c90565b6112d261074e565b908151156103a9576020820152604051600160f81b6020820152600181526112f98161026e565b6001600160a01b036113096106e2565b169130830361131c5761038c9250611756565b90823b156100b8576040516301c85d5760e51b81525f80516020613143833981519152600482015260a06024820152925f92849283918591839161087691906113699060a4850190610def565b6001604485015283810360031901606485015290610fb7565b61138a61074e565b918251156103a9576113a0916020840152611de6565b6001600160a01b036113b06106e2565b16913083036113c35761038c925061275e565b90823b156100b8576040516377b7543160e11b81526f576f726c645374617475734566666563631d18955160e21b01600482015260806024820152925f92849283918591839161099b919061085e906084850190610def565b634e487b7160e01b5f52601160045260245ffd5b9190820180921161143d57565b61141c565b5f9061144f606091612441565b60405190602090601f19908160bf850116604052608084526020840192608091925b818310156114a357505080611487575b50505092565b5f199060031b1c908183511691199054161790525f8080611481565b81600185839495979654875201940194019190611471565b6114cc6114c78261246b565b612948565b916114d6826129ff565b549266ffffffffffffff8416926115056114ef85610d29565b946114fd60405196876102a4565b808652610d29565b602085019490601f190136863793915f925b60ff841690600282101561156a57908161154f6115549364ffffffffff8b61153f8a8a611fac565b956028026038011c16809461205d565b611430565b9260ff80911690811461143d5760010192611517565b5050949392915050565b9190915f805b600282106117285765ffffffffffff9150166115958261246b565b61159d612c6f565b905f5b8251811015611645576115d46115c76115b983866107af565b516001600160581b03191690565b6001600160581b03191690565b9060049182808260581c16146115f0575b5060019150016115a0565b60601c803b156100b857855f9188838c9661161f6040519889968795869463964f667d60e01b86528501612103565b03925af191821561023d57600192156115e557806108a361163f92610256565b5f6115e5565b509491906116928383604098875f805160206131038339815191526040518061168a87876f436f6d626174456e636f756e74657200631d18955160e21b0196846120d2565b0390a2612e1f565b5f5b815181101561171f576116ad6115c76115b983856107af565b6008808260581c16146116c4575b50600101611694565b60601c90813b156100b857875163a8ba872160e01b8152915f9083908183816116f28b8b8e60048501612103565b03925af191821561023d5760019261170c575b50906116bb565b806108a361171992610256565b5f611705565b50505050509050565b60ff6aa30802012020012020200160a01b83601b0360031b1c16810180911161143d5760019091019061157a565b9190915f805b600182106118de5765ffffffffffff915016611777826124d4565b61177f612abc565b905f5b825181101561180c5761179b6115c76115b983866107af565b9060049182808260581c16146117b7575b506001915001611782565b60601c803b156100b857855f9188838c966117e66040519889968795869463964f667d60e01b86528501612192565b03925af191821561023d57600192156117ac57806108a361180692610256565b5f6117ac565b509491906118518383604098875f805160206131038339815191526040518061168a87876f456e636f756e746572456e7469747900631d18955160e21b0196846120d2565b5f5b815181101561171f5761186c6115c76115b983856107af565b6008808260581c1614611883575b50600101611853565b60601c90813b156100b857875163a8ba872160e01b8152915f9083908183816118b18b8b8e60048501612192565b03925af191821561023d576001926118cb575b509061187a565b806108a36118d892610256565b5f6118c4565b60ff6502081809000960cd1b83601b0360031b1c16810180911161143d5760019091019061175c565b60408051655461626c657360501b66746273746f726560c81b01602082019081526f576f726c64456e636f756e7465720000631d18955160e21b018284018190528383529295929491606091908281016001600160401b038111828210176102695788525190205f80516020613123833981519152185492611987612d19565b905f5b8251811015611a16576119a36115c76115b983866107af565b6001808260581c16146119ba575b5060010161198a565b841c90813b156100b8575f876119e99388838c8f51978895869485936315c19b2760e21b855260048501612389565b03925af191821561023d57600192611a03575b50906119b1565b806108a3611a1092610256565b5f6119fc565b50955f80516020613163833981519152885180611a34878a8361234d565b0390a2611a4f611a4386612441565b84516020860191612e65565b60ff808560e01c1680611af5575b50505f5b8151811015611aeb57611a7a6115c76115b983856107af565b6002808260581c1614611a91575b50600101611a61565b831c90813b156100b8578851635b28cdaf60e01b8152915f908390818381611abe8c8c8f60048501612389565b03925af191821561023d57600192611ad8575b5090611a88565b806108a3611ae592610256565b5f611ad1565b5050505050509050565b5f611aff88612a53565b555f60805b888385841610611b1657505050611a5d565b81611b2d8693611b2886600195612038565b612e30565b92011690611b04565b60408051655461626c657360501b66746273746f726560c81b0160208201526f436f6d6261744f7574636f6d65000000631bdd155160e21b01818301819052918152909493606082019392906001600160401b03851183861017610269575f8051602061316383398151915295611bd2611bbf611be794886040526080895260e0870190610def565b605f199687878303016080880152610fb7565b9160a0850152848483030160c0850152610fb7565b030190a2565b919064ffffffffff808460381c1690611c0e611c0983856123ec565b612f18565b9460601c168101918282118015611c8a575b611c5557908160208281940101928391011161143d57820391821161143d576107179160018060801b03169060801b17612f18565b6040516323230fa360e01b81526060600482015292839291611c7b906064850190610fb7565b91602484015260448301520390fd5b5080518311611c20565b604051611cb781611ca9602082019485611e98565b03601f1981018352826102a4565b5190205f80516020613123833981519152185f905f5b60028110611d20575081816020821015611d0a575b505080548260031b1b916020039081602011611cfd57505090565b600101549060031b1c1790565b90809350601f925060051c019116905f80611ce2565b9160ff6aa30802012020012020200160a01b84601b0360031b1c16810180911161143d5791600101611ccd565b604051611d6281611ca9602082019485611ed7565b5190205f80516020613123833981519152185f905f5b60018110611dbe575081816020821015611da8575b505080548260031b1b916020039081600111611cfd57505090565b90809350601f925060051c019116905f80611d8d565b9160ff6502081809000960cd1b84601b0360031b1c16810180911161143d5791600101611d78565b80518060051b6020918082046020148115171561143d5790604051936020850191601f19603f8288010116604052855260205f9101905b838110611e2c57505050505090565b815183529184019190840190600101611e1d565b9190820391821161143d57565b6953746f7265486f6f6b7360301b66746273746f726560c81b01815281516020918201928201915f5b828110611e84575050505090565b835185529381019392810192600101611e76565b5f805160206131c3833981519152815281516020918201928201915f5b828110611ec3575050505090565b835185529381019392810192600101611eb5565b5f80516020613143833981519152815281516020918201928201915f5b828110611f02575050505090565b835185529381019392810192600101611ef4565b6f576f726c645374617475734566666563631d18955160e21b01815281516020918201928201915f5b828110611f4d575050505090565b835185529381019392810192600101611f3f565b6f576f726c64456e636f756e7465720000631d18955160e21b01815281516020918201928201915f5b828110611f98575050505090565b835185529381019392810192600101611f8a565b905f8051602061318383398151915291604051611fd181611ca9602082019485611e98565b51902060f89190911b6001600160f81b031916181890565b5f805160206131838339815191529060405161200d81611ca9602082019485611ed7565b5190201890565b5f805160206131838339815191529060405161200d81611ca9602082019485611f16565b905f8051602061318383398151915291604051611fd181611ca9602082019485611f61565b9291925b6020908183106120815780548552930192601f1990910190600101612061565b9190509291928061209157505050565b5f199060031b1c90818351169119905416179052565b90916120be61071793606084526060840190610def565b915f60208201526040818403910152610fb7565b65ffffffffffff6120ef6107179593606084526060840190610def565b931660208201526040818403910152610fb7565b65ffffffffffff61213f61071795936f436f6d626174456e636f756e74657200631d18955160e21b018452608060208501526080840190610def565b931660408201526060818403910152610fb7565b5f80516020613143833981519152815260806020820181905261071793919261217e91840190610def565b915f60408201526060818403910152610fb7565b65ffffffffffff61213f61071795936f456e636f756e746572456e7469747900631d18955160e21b018452608060208501526080840190610def565b91906121d9836124d4565b916121e2612abc565b905f5b825181101561226e576121fe6115c76115b983866107af565b9060049182808260581c161461221a575b5060019150016121e5565b60601c803b156100b857855f918983612248966040519788958694859363964f667d60e01b85528401612153565b03925af191821561023d576001921561220f57806108a361226892610256565b5f61220f565b509291906122b9826040946040515f805160206131038339815191526f456e636f756e746572456e7469747900631d18955160e21b0191806122b1868d836120a7565b0390a2612dd2565b5f5b8151811015612345576122d46115c76115b983856107af565b6008808260581c16146122eb575b506001016122bb565b60601c90813b156100b857845163a8ba872160e01b8152915f9083908183816123188a8e60048401612153565b03925af191821561023d57600192612332575b50906122e2565b806108a361233f92610256565b5f61232b565b505050509050565b906107179261236761237592608085526080850190610def565b908382036020850152610fb7565b905f60408201526060818303910152610f7a565b9392916123d46123e7916123c660a0946f576f726c64456e636f756e7465720000631d18955160e21b01895260c060208a015260c0890190610def565b908782036040890152610fb7565b5f60608701528581036080870152610f7a565b930152565b908151811161240b576001600160801b031660209190910160801b1790565b6040516323230fa360e01b81526060600482015292508291612431906064840190610fb7565b905f602484015260448301520390fd5b60405161245681611ca9602082019485611f61565b5190205f805160206131238339815191521890565b60405160208160208101936f436f6d626174456e636f756e74657200631d18955160e21b0185526040820160208251919201935f5b8281106124bd57505050612456925003601f1981018352826102a4565b8551845294810194869450928101926001016124a0565b60405160208160208101936f456e636f756e746572456e7469747900631d18955160e21b0185526040820160208251919201935f5b82811061252657505050612456925003601f1981018352826102a4565b855184529481019486945092810192600101612509565b91909161254981612a29565b5464ffffffffff8160381c1661256a6125628280611e40565b865190611430565b818114159490858061273f575b612713576125859084613065565b9061258e612abc565b915f5b8351811015612620576125aa6115c76115b983876107af565b6010808260581c16146125c1575b50600101612591565b60601c90813b156100b8575f878b9388838c6125f360405198899687958694630abd6b4560e31b865260048601612f80565b03925af191821561023d5760019261260d575b50906125b8565b806108a361261a92610256565b5f612606565b506040805192979195509392915f80516020613143833981519152905f805160206130e383398151915290806126598c8a898d85613021565b0390a2612703575b6126738761266e87611fe9565b612dc3565b5f5b8151811015611aeb5761268e6115c76115b983856107af565b6020808260581c16146126a5575b50600101612675565b60601c90813b156100b8575f868a9386838b6126d68b5198899687958694636358453360e01b865260048601612f80565b03925af191821561023d576001926126f0575b509061269c565b806108a36126fd92610256565b5f6126e9565b8361270d86612a29565b55612661565b604051632994042d60e21b81525f600482015264ffffffffff8416602482018190526044820152606490fd5b508261275761274d82612f6d565b64ffffffffff1690565b1415612577565b91909161276a81612a3e565b5464ffffffffff8160381c166127836125628280611e40565b8181141594908580612933575b6127135761279e9084613065565b906127a7612bc5565b915f5b8351811015612839576127c36115c76115b983876107af565b6010808260581c16146127da575b506001016127aa565b60601c90813b156100b8575f878b9388838c61280c60405198899687958694630abd6b4560e31b865260048601612fe3565b03925af191821561023d57600192612826575b50906127d1565b806108a361283392610256565b5f61281f565b506040805192979195509392916f576f726c645374617475734566666563631d18955160e21b01905f805160206130e3833981519152908061287e8c8a898d85613021565b0390a2612923575b6128938761266e87612014565b5f5b8151811015611aeb576128ae6115c76115b983856107af565b6020808260581c16146128c5575b50600101612895565b60601c90813b156100b8575f868a9386838b6128f68b5198899687958694636358453360e01b865260048601612fe3565b03925af191821561023d57600192612910575b50906128bc565b806108a361291d92610256565b5f612909565b8361292d86612a3e565b55612886565b508261294161274d82612f6d565b1415612790565b60405190602090601f19908160e285011660405260a38452602084019260a391925b8183101561299c57505080612980575b50505090565b5f199060031b1c908183511691199054161790525f808061297a565b8160018583949597965487520194019401919061296a565b60408051601f19603f85830101811690925283815292602080850193925b818310156129e7575050806129805750505090565b816001858394959796548752019401940191906129d2565b604051612a1481611ca9602082019485611e98565b5190205f805160206131a38339815191521890565b604051612a1481611ca9602082019485611ed7565b604051612a1481611ca9602082019485611f16565b60405160208160208101936f576f726c64456e636f756e7465720000631d18955160e21b0185526040820160208251919201935f5b828110612aa557505050612a14925003601f1981018352826102a4565b855184529481019486945092810192600101612a88565b612ac461074e565b8051156103a957612b77612b6f6020926f456e636f756e746572456e7469747900631d18955160e21b018482015264ffffffffff604051915f8051602061318383398151915286840184612b188483611e4d565b0394612b2c601f19968781018352826102a4565b5190201892612b526040519182612b468a82019586611e4d565b039081018352826102a4565b5190205f805160206131a3833981519152185460381c16906129b4565b8051906123ec565b8060801c916015809260018060801b0316049060405193818501828460051b8701016040528386525f5b848110612bb15750505050505090565b825182529185019190830190600101612ba1565b612bcd61074e565b8051156103a957612c21612b6f6020926f576f726c645374617475734566666563631d18955160e21b018482015264ffffffffff604051915f8051602061318383398151915286840184612b188483611e4d565b8060801c916015809260018060801b0316049060405193818501828460051b8701016040528386525f5b848110612c5b5750505050505090565b825182529185019190830190600101612c4b565b612c7761074e565b8051156103a957612ccb612b6f6020926f436f6d626174456e636f756e74657200631d18955160e21b018482015264ffffffffff604051915f8051602061318383398151915286840184612b188483611e4d565b8060801c916015809260018060801b0316049060405193818501828460051b8701016040528386525f5b848110612d055750505050505090565b825182529185019190830190600101612cf5565b612d2161074e565b8051156103a957612d75612b6f6020926f576f726c64456e636f756e7465720000631d18955160e21b018482015264ffffffffff604051915f8051602061318383398151915286840184612b188483611e4d565b8060801c916015809260018060801b0316049060405193818501828460051b8701016040528386525f5b848110612daf5750505050505090565b825182529185019190830190600101612d9f565b815161038c9260200191612e65565b81519060208093019190925b80821015612e07575080612df157505050565b5f199060031b1c90818354169119905116179055565b6001839482939451815501930191601f190190612dde565b825161038c93602001929091612e88565b9190915f905b602090818310612e565784518155930192601f1990910190600101612e36565b929391905080612df157505050565b929192602090818310612e565784518155930192601f1990910190600101612e36565b909392919380612eb7575b50929092602090818310612e565784518155930192601f1990910190600101612e36565b6020811015612f08575b8015612e935791939082602003908360031b5f198460031b1c19811c908751901c90801983541691161781558183111561234557600101940191601f19910101925f612e93565b90601f908260051c019116612ec1565b6040805160206020600160801b0384168201810190925260016001607b1b03600584901c1680825290939260801c8285015f5b838110612f59575050505050565b825182529184019190840190600101612f4b565b9064ffffffffff80921691821161143d57565b909264ffffffffff612fbe6107179694956f456e636f756e746572456e7469747900631d18955160e21b01855260e0602086015260e0850190610def565b945f60408501525f606085015216608083015260a082015260c0818403910152610fb7565b909264ffffffffff612fbe6107179694956f576f726c645374617475734566666563631d18955160e21b01855260e0602086015260e0850190610def565b909264ffffffffff61304061071796949560c0855260c0850190610def565b945f60208501525f6040850152166060830152608082015260a0818403910152610fb7565b64ffffffffff8083116130c95766ffffffffffffff821690603883901c16838181106130bf570301915b64ffffffffff60381b60389190911b1664ffffffffff60381b19929092166001600160601b031991909116171790565b900390039161308f565b604051637149a3c160e01b815260048101849052602490fdfefe158a7adba34e256807c8a149028d3162918713c3838afc643ce9f96716ebfd8c0b5119d4cec7b284c6b1b39252a03d1e2f2d7451a5895562524c113bb952be86425bff6b57326c7859e89024fe4f238ca327a1ae4a230180dd2f0e88aaa7d974625544000000000000000000000000456e636f756e746572456e74697479008dbb3a9672eebfd3773e72dd9c102393436816d832c7ba9e1e1ac8fcadcac7a93b4102da22e32d82fc925482184f16c09fd4281692720b87d124aef6da48a0f114e2fcc58e58e68ec7edc30c8d50dccc3ce2714a623ec81f46b6a63922d7656974625544000000000000000000000000436f6d626174456e636f756e74657200","linkReferences":{"src/libraries/BoardCleanupLib.sol":{"BoardCleanupLib":[{"start":3264,"length":20}]}}},"methodIdentifiers":{"_msgSender()":"119df25f","_msgValue()":"45ec9354","_world()":"e1af802c","endEncounter(bytes32,uint256,bool)":"e903546c","supportsInterface(bytes4)":"01ffc9a7"},"id":361}