{"abi":[{"type":"function","name":"roundInt","inputs":[{"name":"value","type":"int256","internalType":"int256"},{"name":"baseUnit","type":"int256","internalType":"int256"}],"outputs":[{"name":"","type":"int256","internalType":"int256"}],"stateMutability":"pure"},{"type":"function","name":"roundUint","inputs":[{"name":"value","type":"uint256","internalType":"uint256"},{"name":"baseUnit","type":"uint256","internalType":"uint256"}],"outputs":[{"name":"","type":"uint256","internalType":"uint256"}],"stateMutability":"pure"},{"type":"error","name":"IntOverflow","inputs":[]}],"bytecode":{"object":"0x6080806040523461001a57610196908161001f823930815050f35b5f80fdfe60806040526004361015610011575f80fd5b5f3560e01c806376d285b614610057576379967f881461002f575f80fd5b604036600319011261005357602061004b60243560043561013f565b604051908152f35b5f80fd5b604036600319011261005357602061004b6024356004356100b8565b811561007d570490565b634e487b7160e01b5f52601260045260245ffd5b818102929181159184041417156100a457565b634e487b7160e01b5f52601160045260245ffd5b90801561007d57600181901c818306106100f6578082018092116100a4575f1982019182116100a4576100ee816100f393610073565b610091565b90565b6100ee816100f393610073565b811561007d57600160ff1b81145f198314166100a4570590565b81810292915f8212600160ff1b8214166100a45781840514901517156100a457565b90801561007d57600281058183071261018957808201915f82841291129080158216911516176100a4575f1982019182136001166100a457610184816100f393610103565b61011d565b610184816100f39361010356","linkReferences":{}},"methodIdentifiers":{"roundInt(int256,int256)":"79967f88","roundUint(uint256,uint256)":"76d285b6"},"id":353}