{"abi":[{"type":"function","name":"combineRandomValues","inputs":[{"name":"userRandomness","type":"bytes32","internalType":"bytes32"},{"name":"providerRandomness","type":"bytes32","internalType":"bytes32"},{"name":"blockHash","type":"bytes32","internalType":"bytes32"}],"outputs":[{"name":"combinedRandomness","type":"bytes32","internalType":"bytes32"}],"stateMutability":"pure"},{"type":"function","name":"constructUserCommitment","inputs":[{"name":"userRandomness","type":"bytes32","internalType":"bytes32"}],"outputs":[{"name":"userCommitment","type":"bytes32","internalType":"bytes32"}],"stateMutability":"pure"},{"type":"function","name":"getAccruedPythFees","inputs":[],"outputs":[{"name":"accruedPythFeesInWei","type":"uint128","internalType":"uint128"}],"stateMutability":"view"},{"type":"function","name":"getDefaultProvider","inputs":[],"outputs":[{"name":"provider","type":"address","internalType":"address"}],"stateMutability":"view"},{"type":"function","name":"getFee","inputs":[{"name":"","type":"address","internalType":"address"}],"outputs":[{"name":"","type":"uint128","internalType":"uint128"}],"stateMutability":"view"},{"type":"function","name":"getProviderInfo","inputs":[{"name":"provider","type":"address","internalType":"address"}],"outputs":[{"name":"info","type":"tuple","internalType":"struct EntropyStructs.ProviderInfo","components":[{"name":"feeInWei","type":"uint128","internalType":"uint128"},{"name":"accruedFeesInWei","type":"uint128","internalType":"uint128"},{"name":"originalCommitment","type":"bytes32","internalType":"bytes32"},{"name":"originalCommitmentSequenceNumber","type":"uint64","internalType":"uint64"},{"name":"commitmentMetadata","type":"bytes","internalType":"bytes"},{"name":"uri","type":"bytes","internalType":"bytes"},{"name":"endSequenceNumber","type":"uint64","internalType":"uint64"},{"name":"sequenceNumber","type":"uint64","internalType":"uint64"},{"name":"currentCommitment","type":"bytes32","internalType":"bytes32"},{"name":"currentCommitmentSequenceNumber","type":"uint64","internalType":"uint64"}]}],"stateMutability":"view"},{"type":"function","name":"getRequest","inputs":[{"name":"provider","type":"address","internalType":"address"},{"name":"sequenceNumber","type":"uint64","internalType":"uint64"}],"outputs":[{"name":"req","type":"tuple","internalType":"struct EntropyStructs.Request","components":[{"name":"provider","type":"address","internalType":"address"},{"name":"sequenceNumber","type":"uint64","internalType":"uint64"},{"name":"numHashes","type":"uint32","internalType":"uint32"},{"name":"commitment","type":"bytes32","internalType":"bytes32"},{"name":"blockNumber","type":"uint64","internalType":"uint64"},{"name":"requester","type":"address","internalType":"address"},{"name":"useBlockhash","type":"bool","internalType":"bool"},{"name":"isRequestWithCallback","type":"bool","internalType":"bool"}]}],"stateMutability":"view"},{"type":"function","name":"register","inputs":[{"name":"feeInWei","type":"uint128","internalType":"uint128"},{"name":"commitment","type":"bytes32","internalType":"bytes32"},{"name":"commitmentMetadata","type":"bytes","internalType":"bytes"},{"name":"chainLength","type":"uint64","internalType":"uint64"},{"name":"uri","type":"bytes","internalType":"bytes"}],"outputs":[],"stateMutability":"nonpayable"},{"type":"function","name":"request","inputs":[{"name":"","type":"address","internalType":"address"},{"name":"","type":"bytes32","internalType":"bytes32"},{"name":"","type":"bool","internalType":"bool"}],"outputs":[{"name":"assignedSequenceNumber","type":"uint64","internalType":"uint64"}],"stateMutability":"payable"},{"type":"function","name":"requestWithCallback","inputs":[{"name":"","type":"address","internalType":"address"},{"name":"","type":"bytes32","internalType":"bytes32"}],"outputs":[{"name":"assignedSequenceNumber","type":"uint64","internalType":"uint64"}],"stateMutability":"payable"},{"type":"function","name":"reveal","inputs":[{"name":"","type":"address","internalType":"address"},{"name":"","type":"uint64","internalType":"uint64"},{"name":"","type":"bytes32","internalType":"bytes32"},{"name":"","type":"bytes32","internalType":"bytes32"}],"outputs":[{"name":"randomNumber","type":"bytes32","internalType":"bytes32"}],"stateMutability":"pure"},{"type":"function","name":"revealWithCallback","inputs":[{"name":"","type":"address","internalType":"address"},{"name":"","type":"uint64","internalType":"uint64"},{"name":"","type":"bytes32","internalType":"bytes32"},{"name":"","type":"bytes32","internalType":"bytes32"}],"outputs":[],"stateMutability":"nonpayable"},{"type":"function","name":"setProviderFee","inputs":[{"name":"newFeeInWei","type":"uint128","internalType":"uint128"}],"outputs":[],"stateMutability":"nonpayable"},{"type":"function","name":"setProviderUri","inputs":[{"name":"newUri","type":"bytes","internalType":"bytes"}],"outputs":[],"stateMutability":"nonpayable"},{"type":"function","name":"withdraw","inputs":[{"name":"amount","type":"uint128","internalType":"uint128"}],"outputs":[],"stateMutability":"nonpayable"},{"type":"event","name":"ProviderFeeUpdated","inputs":[{"name":"provider","type":"address","indexed":false,"internalType":"address"},{"name":"oldFee","type":"uint128","indexed":false,"internalType":"uint128"},{"name":"newFee","type":"uint128","indexed":false,"internalType":"uint128"}],"anonymous":false},{"type":"event","name":"ProviderUriUpdated","inputs":[{"name":"provider","type":"address","indexed":false,"internalType":"address"},{"name":"oldUri","type":"bytes","indexed":false,"internalType":"bytes"},{"name":"newUri","type":"bytes","indexed":false,"internalType":"bytes"}],"anonymous":false},{"type":"event","name":"Registered","inputs":[{"name":"provider","type":"tuple","indexed":false,"internalType":"struct EntropyStructs.ProviderInfo","components":[{"name":"feeInWei","type":"uint128","internalType":"uint128"},{"name":"accruedFeesInWei","type":"uint128","internalType":"uint128"},{"name":"originalCommitment","type":"bytes32","internalType":"bytes32"},{"name":"originalCommitmentSequenceNumber","type":"uint64","internalType":"uint64"},{"name":"commitmentMetadata","type":"bytes","internalType":"bytes"},{"name":"uri","type":"bytes","internalType":"bytes"},{"name":"endSequenceNumber","type":"uint64","internalType":"uint64"},{"name":"sequenceNumber","type":"uint64","internalType":"uint64"},{"name":"currentCommitment","type":"bytes32","internalType":"bytes32"},{"name":"currentCommitmentSequenceNumber","type":"uint64","internalType":"uint64"}]}],"anonymous":false},{"type":"event","name":"Requested","inputs":[{"name":"request","type":"tuple","indexed":false,"internalType":"struct EntropyStructs.Request","components":[{"name":"provider","type":"address","internalType":"address"},{"name":"sequenceNumber","type":"uint64","internalType":"uint64"},{"name":"numHashes","type":"uint32","internalType":"uint32"},{"name":"commitment","type":"bytes32","internalType":"bytes32"},{"name":"blockNumber","type":"uint64","internalType":"uint64"},{"name":"requester","type":"address","internalType":"address"},{"name":"useBlockhash","type":"bool","internalType":"bool"},{"name":"isRequestWithCallback","type":"bool","internalType":"bool"}]}],"anonymous":false},{"type":"event","name":"RequestedWithCallback","inputs":[{"name":"provider","type":"address","indexed":true,"internalType":"address"},{"name":"requestor","type":"address","indexed":true,"internalType":"address"},{"name":"sequenceNumber","type":"uint64","indexed":true,"internalType":"uint64"},{"name":"userRandomNumber","type":"bytes32","indexed":false,"internalType":"bytes32"},{"name":"request","type":"tuple","indexed":false,"internalType":"struct EntropyStructs.Request","components":[{"name":"provider","type":"address","internalType":"address"},{"name":"sequenceNumber","type":"uint64","internalType":"uint64"},{"name":"numHashes","type":"uint32","internalType":"uint32"},{"name":"commitment","type":"bytes32","internalType":"bytes32"},{"name":"blockNumber","type":"uint64","internalType":"uint64"},{"name":"requester","type":"address","internalType":"address"},{"name":"useBlockhash","type":"bool","internalType":"bool"},{"name":"isRequestWithCallback","type":"bool","internalType":"bool"}]}],"anonymous":false},{"type":"event","name":"Revealed","inputs":[{"name":"request","type":"tuple","indexed":false,"internalType":"struct EntropyStructs.Request","components":[{"name":"provider","type":"address","internalType":"address"},{"name":"sequenceNumber","type":"uint64","internalType":"uint64"},{"name":"numHashes","type":"uint32","internalType":"uint32"},{"name":"commitment","type":"bytes32","internalType":"bytes32"},{"name":"blockNumber","type":"uint64","internalType":"uint64"},{"name":"requester","type":"address","internalType":"address"},{"name":"useBlockhash","type":"bool","internalType":"bool"},{"name":"isRequestWithCallback","type":"bool","internalType":"bool"}]},{"name":"userRevelation","type":"bytes32","indexed":false,"internalType":"bytes32"},{"name":"providerRevelation","type":"bytes32","indexed":false,"internalType":"bytes32"},{"name":"blockHash","type":"bytes32","indexed":false,"internalType":"bytes32"},{"name":"randomNumber","type":"bytes32","indexed":false,"internalType":"bytes32"}],"anonymous":false},{"type":"event","name":"RevealedWithCallback","inputs":[{"name":"request","type":"tuple","indexed":false,"internalType":"struct EntropyStructs.Request","components":[{"name":"provider","type":"address","internalType":"address"},{"name":"sequenceNumber","type":"uint64","internalType":"uint64"},{"name":"numHashes","type":"uint32","internalType":"uint32"},{"name":"commitment","type":"bytes32","internalType":"bytes32"},{"name":"blockNumber","type":"uint64","internalType":"uint64"},{"name":"requester","type":"address","internalType":"address"},{"name":"useBlockhash","type":"bool","internalType":"bool"},{"name":"isRequestWithCallback","type":"bool","internalType":"bool"}]},{"name":"userRandomNumber","type":"bytes32","indexed":false,"internalType":"bytes32"},{"name":"providerRevelation","type":"bytes32","indexed":false,"internalType":"bytes32"},{"name":"randomNumber","type":"bytes32","indexed":false,"internalType":"bytes32"}],"anonymous":false}],"bytecode":{"object":"0x6080806040523461002a575f80546001600160801b031916620186a01790556106eb908161002f8239f35b5f80fdfe60808060405260049081361015610014575f80fd5b5f915f3560e01c91826302387a7b1461016f57826314e82e8c146105e25750816319cb825f146104cc57816338b049c6146104695781633d30bc0e146104535781636151ab1f146103865781637583902f1461023e57816382ee990c146102225781639371df51146101a257816393cbf21714610174578163ace63a7e1461016f578163b469f1c91461013257508063b88c914814610101578063c715aa2e146100e45763c970835c146100c6575f80fd5b346100e157806003193601126100e157602090604051908152f35b80fd5b50346100e15760203660031901126100e157602090604051908152f35b50346100e15760203660031901126100e15760209061011e61062c565b50546040516001600160801b039091168152f35b90503461016b57602036600319011261016b578035906001600160401b0382116101675761016291369101610642565b505080f35b8280fd5b5080fd5b610611565b8260603660031901126100e15761018961062c565b50604435801515036100e15760206040516212d6878152f35b82346100e157506101b23661066f565b50505050604051602081016020815260156040830152741c985b991bdb481b9d5b58995c8e881c995d99585b605a1b606083015260608252608082019180831060018060401b0384111761020f5760209350826040525190208152f35b604184634e487b7160e01b5f525260245ffd5b82346100e157806003193601126100e157602090604051908152f35b82346100e15760203660031901126100e15761025861062c565b50604051916101408301906001600160401b03821184831017610373575060405280825280602083015280604083015280606083015260606080830152606060a08301528060c08301528060e08301528061010083015261012082015260405180916020825260018060801b0380825116602084015260208201511660408301526040810151606083015260018060401b036060820151166080830152610329610313608083015161014060a08601526101608501906106ad565b60a0830151848203601f190160c08601526106ad565b9060018060401b0360c08201511660e084015260018060401b0360e08201511661010084015261010081015161012084015261012060018060401b03910151166101408301520390f35b604190634e487b7160e01b5f525260245ffd5b82346100e15760403660031901126100e1576103a061062c565b506001600160401b036024358181160361044f5760405161010093848201908282108483111761037357506040528281526020810191838352604082019084825260608301858152608084019086825263ffffffff60a08601948886528460e060c08901988b8a5201988a8a526040519a8b52511660208a0152511660408801525160608701525116608085015260018060a01b0390511660a084015251151560c083015251151560e0820152f35b5f80fd5b82346100e1576104623661066f565b5050505080f35b90503461016b5760a036600319011261016b576104846105fb565b506001600160401b03906044358281116104c8576104a59036908301610642565b50506064358281160361044f576084359182116101675761016291369101610642565b8380fd5b82604036600319011261044f576104e161062c565b506001544301908143116105cf57604080516020808201948552815292908301906001600160401b0382119084831082176105bc578260405284519020333b1561044f57630a54be3f60e31b835260846212d687958660448201526001606482015201525f8260648183335af180156105b15761058c575b5050600154925f1984146105795760208360018601600155604051908152f35b634e487b7160e01b825260119052602490fd5b90915061059e576040525f8380610559565b604183634e487b7160e01b5f525260245ffd5b6040513d5f823e3d90fd5b604186634e487b7160e01b5f525260245ffd5b601183634e487b7160e01b5f525260245ffd5b3461044f57606036600319011261044f57805f60209252f35b600435906001600160801b038216820361044f57565b3461044f57602036600319011261044f5761062a6105fb565b005b600435906001600160a01b038216820361044f57565b9181601f8401121561044f578235916001600160401b03831161044f576020838186019501011161044f57565b608090600319011261044f576004356001600160a01b038116810361044f57906024356001600160401b038116810361044f57906044359060643590565b91908251928382525f5b8481106106d7575050825f602080949584010152601f8019910116010190565b6020818301810151848301820152016106b756","linkReferences":{}},"methodIdentifiers":{"combineRandomValues(bytes32,bytes32,bytes32)":"14e82e8c","constructUserCommitment(bytes32)":"c715aa2e","getAccruedPythFees()":"c970835c","getDefaultProvider()":"82ee990c","getFee(address)":"b88c9148","getProviderInfo(address)":"7583902f","getRequest(address,uint64)":"6151ab1f","register(uint128,bytes32,bytes,uint64,bytes)":"38b049c6","request(address,bytes32,bool)":"93cbf217","requestWithCallback(address,bytes32)":"19cb825f","reveal(address,uint64,bytes32,bytes32)":"9371df51","revealWithCallback(address,uint64,bytes32,bytes32)":"3d30bc0e","setProviderFee(uint128)":"ace63a7e","setProviderUri(bytes)":"b469f1c9","withdraw(uint128)":"02387a7b"},"id":409}