{"abi":[{"type":"function","name":"_msgSender","inputs":[],"outputs":[{"name":"sender","type":"address","internalType":"address"}],"stateMutability":"view"},{"type":"function","name":"_msgValue","inputs":[],"outputs":[{"name":"value","type":"uint256","internalType":"uint256"}],"stateMutability":"view"},{"type":"function","name":"_world","inputs":[],"outputs":[{"name":"","type":"address","internalType":"address"}],"stateMutability":"view"},{"type":"function","name":"install","inputs":[{"name":"encodedArgs","type":"bytes","internalType":"bytes"}],"outputs":[],"stateMutability":"nonpayable"},{"type":"function","name":"installRoot","inputs":[{"name":"","type":"bytes","internalType":"bytes"}],"outputs":[],"stateMutability":"pure"},{"type":"function","name":"registrationLibrary","inputs":[],"outputs":[{"name":"","type":"address","internalType":"address"}],"stateMutability":"view"},{"type":"function","name":"supportsInterface","inputs":[{"name":"interfaceId","type":"bytes4","internalType":"bytes4"}],"outputs":[{"name":"","type":"bool","internalType":"bool"}],"stateMutability":"pure"},{"type":"event","name":"Store_SetRecord","inputs":[{"name":"tableId","type":"bytes32","indexed":true,"internalType":"ResourceId"},{"name":"keyTuple","type":"bytes32[]","indexed":false,"internalType":"bytes32[]"},{"name":"staticData","type":"bytes","indexed":false,"internalType":"bytes"},{"name":"encodedLengths","type":"bytes32","indexed":false,"internalType":"EncodedLengths"},{"name":"dynamicData","type":"bytes","indexed":false,"internalType":"bytes"}],"anonymous":false},{"type":"event","name":"Store_SpliceDynamicData","inputs":[{"name":"tableId","type":"bytes32","indexed":true,"internalType":"ResourceId"},{"name":"keyTuple","type":"bytes32[]","indexed":false,"internalType":"bytes32[]"},{"name":"dynamicFieldIndex","type":"uint8","indexed":false,"internalType":"uint8"},{"name":"start","type":"uint48","indexed":false,"internalType":"uint48"},{"name":"deleteCount","type":"uint40","indexed":false,"internalType":"uint40"},{"name":"encodedLengths","type":"bytes32","indexed":false,"internalType":"EncodedLengths"},{"name":"data","type":"bytes","indexed":false,"internalType":"bytes"}],"anonymous":false},{"type":"event","name":"Store_SpliceStaticData","inputs":[{"name":"tableId","type":"bytes32","indexed":true,"internalType":"ResourceId"},{"name":"keyTuple","type":"bytes32[]","indexed":false,"internalType":"bytes32[]"},{"name":"start","type":"uint48","indexed":false,"internalType":"uint48"},{"name":"data","type":"bytes","indexed":false,"internalType":"bytes"}],"anonymous":false},{"type":"error","name":"ERC1155Module_InvalidNamespace","inputs":[{"name":"namespace","type":"bytes14","internalType":"bytes14"}]},{"type":"error","name":"EncodedLengths_InvalidLength","inputs":[{"name":"length","type":"uint256","internalType":"uint256"}]},{"type":"error","name":"FieldLayout_Empty","inputs":[]},{"type":"error","name":"FieldLayout_InvalidStaticDataLength","inputs":[{"name":"staticDataLength","type":"uint256","internalType":"uint256"},{"name":"computedStaticDataLength","type":"uint256","internalType":"uint256"}]},{"type":"error","name":"FieldLayout_StaticLengthDoesNotFitInAWord","inputs":[{"name":"index","type":"uint256","internalType":"uint256"}]},{"type":"error","name":"FieldLayout_StaticLengthIsNotZero","inputs":[{"name":"index","type":"uint256","internalType":"uint256"}]},{"type":"error","name":"FieldLayout_StaticLengthIsZero","inputs":[{"name":"index","type":"uint256","internalType":"uint256"}]},{"type":"error","name":"FieldLayout_TooManyDynamicFields","inputs":[{"name":"numFields","type":"uint256","internalType":"uint256"},{"name":"maxFields","type":"uint256","internalType":"uint256"}]},{"type":"error","name":"FieldLayout_TooManyFields","inputs":[{"name":"numFields","type":"uint256","internalType":"uint256"},{"name":"maxFields","type":"uint256","internalType":"uint256"}]},{"type":"error","name":"Module_AlreadyInstalled","inputs":[]},{"type":"error","name":"Module_MissingDependency","inputs":[{"name":"dependency","type":"address","internalType":"address"}]},{"type":"error","name":"Module_NonRootInstallNotSupported","inputs":[]},{"type":"error","name":"Module_RootInstallNotSupported","inputs":[]},{"type":"error","name":"Schema_InvalidLength","inputs":[{"name":"length","type":"uint256","internalType":"uint256"}]},{"type":"error","name":"Schema_StaticTypeAfterDynamicType","inputs":[]},{"type":"error","name":"Slice_OutOfBounds","inputs":[{"name":"data","type":"bytes","internalType":"bytes"},{"name":"start","type":"uint256","internalType":"uint256"},{"name":"end","type":"uint256","internalType":"uint256"}]},{"type":"error","name":"Store_IndexOutOfBounds","inputs":[{"name":"length","type":"uint256","internalType":"uint256"},{"name":"accessedIndex","type":"uint256","internalType":"uint256"}]},{"type":"error","name":"Store_InvalidFieldNamesLength","inputs":[{"name":"expected","type":"uint256","internalType":"uint256"},{"name":"received","type":"uint256","internalType":"uint256"}]},{"type":"error","name":"Store_InvalidKeyNamesLength","inputs":[{"name":"expected","type":"uint256","internalType":"uint256"},{"name":"received","type":"uint256","internalType":"uint256"}]},{"type":"error","name":"Store_InvalidResourceType","inputs":[{"name":"expected","type":"bytes2","internalType":"bytes2"},{"name":"resourceId","type":"bytes32","internalType":"ResourceId"},{"name":"resourceIdString","type":"string","internalType":"string"}]},{"type":"error","name":"Store_InvalidSplice","inputs":[{"name":"startWithinField","type":"uint40","internalType":"uint40"},{"name":"deleteCount","type":"uint40","internalType":"uint40"},{"name":"fieldLength","type":"uint40","internalType":"uint40"}]},{"type":"error","name":"Store_InvalidStaticDataLength","inputs":[{"name":"expected","type":"uint256","internalType":"uint256"},{"name":"received","type":"uint256","internalType":"uint256"}]},{"type":"error","name":"Store_InvalidValueSchemaDynamicLength","inputs":[{"name":"expected","type":"uint256","internalType":"uint256"},{"name":"received","type":"uint256","internalType":"uint256"}]},{"type":"error","name":"Store_InvalidValueSchemaLength","inputs":[{"name":"expected","type":"uint256","internalType":"uint256"},{"name":"received","type":"uint256","internalType":"uint256"}]},{"type":"error","name":"Store_InvalidValueSchemaStaticLength","inputs":[{"name":"expected","type":"uint256","internalType":"uint256"},{"name":"received","type":"uint256","internalType":"uint256"}]},{"type":"error","name":"Store_TableAlreadyExists","inputs":[{"name":"tableId","type":"bytes32","internalType":"ResourceId"},{"name":"tableIdString","type":"string","internalType":"string"}]}],"bytecode":{"object":"0x60c0806040523461008c57306080526152b88181016001600160401b03811183821017610078578291620025e5833903905ff0801561006d576001600160a01b031660a052604051612554908162000091823960805181610247015260a051818181610306015261053a0152f35b6040513d5f823e3d90fd5b634e487b7160e01b5f52604160045260245ffd5b5f80fdfe60806040526004361015610011575f80fd5b5f3560e01c806301ffc9a714610084578063119df25f1461007f57806313861fb51461007a57806345ec9354146100755780637c5b033514610070578063e1af802c1461006b5763fc01f37014610066575f80fd5b610525565b61050b565b6104ea565b6104cb565b610230565b6100fd565b346100ef5760203660031901126100ef5760043563ffffffff60e01b81168091036100ef5762dfba3960e71b81149081156100de575b81156100cd575b50151560805260206080f35b6301ffc9a760e01b149050816100c1565b63b5dee12760e01b811491506100ba565b5f80fd5b5f9103126100ef57565b346100ef575f3660031901126100ef5760206101176106f8565b6040516001600160a01b039091168152f35b634e487b7160e01b5f52604160045260245ffd5b6001600160401b03811161015057604052565b610129565b604081019081106001600160401b0382111761015057604052565b606081019081106001600160401b0382111761015057604052565b601f909101601f19168101906001600160401b0382119082101761015057604052565b6001600160401b03811161015057601f01601f191660200190565b60206003198201126100ef576004356001600160401b0381116100ef57816023820112156100ef57806004013590610200826101ae565b9261020e604051948561018b565b828452602483830101116100ef57815f92602460209301838601378301015290565b346100ef5761027a610241366101c9565b61026b817f000000000000000000000000000000000000000000000000000000000000000061070f565b602080825183010191016105c1565b6001600160901b031982166c195c98cc4c4d4d5c1d5c1c195d609a1b146104a5576102b26102a6610f5d565b6001600160a01b031690565b604051632392336160e11b602082019081526001600160a01b03831660248301526001600160901b0319851660448301529193915f9182919061030281606481015b03601f19810183528261018b565b51907f00000000000000000000000000000000000000000000000000000000000000005af461032f610613565b90156104a0575060101c600160801b600160f01b031690610367906a4d6574616461746155524960281b613a3160f11b0183176107c5565b61038a6f4552433131353553797374656d00000061737960f01b01821783610993565b6001600160a01b039092169190616e7360f01b176103a66106f8565b833b156100ef5760405163ef5d6bbb60e01b8152600481018390526001600160a01b039190911660248201525f8160448183885af180156104885761048d575b506103fe6103fa6103f561066f565b610acf565b1590565b610417575b610415925061041061066f565b610bb2565b005b61041f6106c3565b92803b156100ef5760405163b29e408960e01b815260048101949094525f908490602490829084905af1928315610488576104159361046f575b5061046a61046561066f565b610af2565b610403565b8061047c6104829261013d565b806100f3565b5f610459565b610642565b8061047c61049a9261013d565b5f6103e6565b61077d565b6040516316b4f6b560e01b81526001600160901b031983166004820152602490fd5b0390fd5b346100ef575f3660031901126100ef576020604051601f193601358152f35b346100ef576104f8366101c9565b506040516302d988bf60e61b8152600490fd5b346100ef575f3660031901126100ef576020610117610f5d565b346100ef575f3660031901126100ef576040517f00000000000000000000000000000000000000000000000000000000000000006001600160a01b03168152602090f35b5f5b83811061057a5750505f910152565b818101518382015260200161056b565b90929192610597816101ae565b916105a5604051938461018b565b8294828452828201116100ef5760206105bf930190610569565b565b91906040838203126100ef5782516001600160901b0319811681036100ef57602084015190936001600160401b0382116100ef57019080601f830112156100ef5781516106109260200161058a565b90565b3d1561063d573d90610624826101ae565b91610632604051938461018b565b82523d5f602084013e565b606090565b6040513d5f823e3d90fd5b602081519101519060208110610661575090565b5f199060200360031b1b1690565b604051613a3160f11b6020808301919091526c195c98cc4c4d4d5c1d5c1c195d609a1b60228301526e45524331313535526567697374727960881b60308301528152610610906106be81610155565b61064d565b604051616e7360f01b60208201526c195c98cc4c4d4d5c1d5c1c195d609a1b602282015260108152610610906106be81610155565b36603319013560601c90811561070a57565b339150565b9060208151910120906040519061072582610170565b6002825260208201906040368337825115610778576001600160a01b031690528051600110156107785761075d916040820152610cd0565b60f81c61076657565b604051630280240d60e31b8152600490fd5b610a97565b602081519101fd5b604051602081016001600160401b03811182821017610150576040525f8152905f368137565b604051906107b882610155565b6001825260203681840137565b6107cd610785565b906001600160a01b036107de610f5d565b163081036107f25750906105bf9291610f92565b803b156100ef575f928361082d93610845604051978896879586946377b7543160e11b86526004860152608060248601526084850190610c8e565b908460448501526003198483030160648501526108d9565b03925af18015610488576108565750565b8061047c6105bf9261013d565b60405161737960f01b602080830191909152651c1d5c1c195d60d21b602283015266466163746f727960c81b60308301528152610610906106be81610155565b6020818303126100ef578051906001600160401b0382116100ef57019080601f830112156100ef5781516106109260200161058a565b906020916108f281518092818552858086019101610569565b601f01601f1916010190565b6040906106109392815281602082015201906108d9565b908160209103126100ef57516001600160a01b03811681036100ef5790565b60405161737960f01b602080830191909152651c1d5c1c195d60d21b6022830152692232b632b3b0ba34b7b760b11b60308301528152610610906106be81610155565b61061093926060928252602082015281604082015201906108d9565b9091906001600160a01b03166109f55f6109ab610863565b60405163b9eb8bfb60e01b602082015260248101879052906109da82604481015b03601f19810184528361018b565b60405163075cf5e160e31b81529384928392600484016108fe565b038183865af190811561048857610a21916102a6915f91610a75575b5060208082518301019101610915565b92610a2a610934565b91610a33610785565b90803b156100ef5760405163bfdfaff760e01b8152935f938593849286928492610845929091600160801b600160f01b0316616e7360f01b1760048501610977565b610a9191503d805f833e610a89818361018b565b8101906108a3565b5f610a11565b634e487b7160e01b5f52603260045260245ffd5b8051600110156107785760400190565b80518210156107785760209160051b010190565b610ad76107ab565b80511561077857610aec916020820152610d91565b60f81c90565b610afa610dff565b604051610b0681610155565b600b81526a1b985b595cdc1858d9525960aa1b602082015281511561077857602082015280511561077857610b39610e33565b90604051610b4681610155565b600c81526b746f6b656e4164647265737360a01b6020820152825115610778576020830152815115610778576105bf92604051610b8281610155565b600a81526975726953746f7261676560b01b6020820152610ba284610aab565b52610bac83610aab565b50610ec3565b610bba6107ab565b918251156107785760208301526040519260018060601b03199060601b16602084015260148352610bea83610155565b6001600160a01b03610bfa610f5d565b16308103610c0e5750906105bf9291611d05565b803b156100ef575f928361082d93610c49604051978896879586946301c85d5760e51b8652600486015260a0602486015260a4850190610c8e565b640a0080050560d21b608483015203925af18015610488576108565750565b634e487b7160e01b5f52601160045260245ffd5b91908201809211610c8957565b610c68565b9081518082526020808093019301915f5b828110610cad575050505090565b835185529381019392810192600101610c9f565b908160209103126100ef575190565b6001600160a01b03610ce0610f5d565b16308103610cf2575061061090611235565b604051638c364d5960e01b81526f496e7374616c6c65644d6f64756c6573661d189ddbdc9b1960ca1b0160048201526080602482015291602091839182908190610d40906084830190610c8e565b5f6044830152630101000160d81b606483015203915afa908115610488575f91610d68575090565b610610915060203d602011610d8a575b610d82818361018b565b810190610cc1565b503d610d78565b6001600160a01b03610da1610f5d565b16308103610db35750610610906112b7565b604051638c364d5960e01b81526a5265736f7572636549647360281b66746273746f726560c81b0160048201526080602482015291602091839182908190610d40906084830190610c8e565b604051610e0b81610155565b60018152805f5b602080821015610e2d57906060602092828501015201610e12565b50505090565b60409060405191610e4383610170565b60028352825f5b828110610e5657505050565b806060602080938501015201610e4a565b90808251908181526020809101926020808460051b8301019501935f915b848310610e955750505050505090565b9091929394958480610eb3600193601f198682030187528a516108d9565b9801930193019194939290610e85565b6001600160a01b03610ed3610f5d565b16308103610ee75750906105bf9291611354565b803b156100ef575f9283610f4b9361084560405197889687958694630ba51f4960e01b86526004860152640a0080050560d21b6024860152632001005f60d81b604486015264280200616160d01b606486015260c0608486015260c4850190610e67565b8381036003190160a485015290610e67565b7f629a4c26e296b22a8e0856e9f6ecb2d1008d7e00081111962cd175fa7488e175546001600160a01b03168061061057503390565b90929192610fa08183611ef6565b5493603885901c64ffffffffff16916145cf60f11b6001600160f01b03198516016111ff57610fda610fd28480611532565b835190610c7c565b83811415959086806111e0575b6111b457610ff59088611f0f565b610ffe8661209a565b915f5b83518110156110ac5761103561102861101a8387610abb565b516001600160581b03191690565b6001600160581b03191690565b6010808260581c161461104c575b50600101611001565b60601c90813b156100ef575f888c9388838d61107f8d604051998a9788968795630abd6b4560e31b875260048701611552565b03925af191821561048857600192611099575b5090611043565b8061047c6110a69261013d565b5f611092565b5096959391909750604095847ffe158a7adba34e256807c8a149028d3162918713c3838afc643ce9f96716ebfd848b6110ec6040519283928c8b8561159c565b0390a26111a3575b6111078261110285876120de565b612148565b5f5b81518110156111985761112261102861101a8385610abb565b6020808260581c1614611139575b50600101611109565b60601c90813b156100ef575f878b9387838a61116b8a8f51998a9788968795636358453360e01b875260048701611552565b03925af191821561048857600192611185575b5090611130565b8061047c6111929261013d565b5f61117e565b505050505050509050565b876111ae8486611ef6565b556110f4565b604051632994042d60e21b81525f600482015264ffffffffff8616602482018190526044820152606490fd5b50846111f86111ee8261153f565b64ffffffffff1690565b1415610fe7565b8360405190611219826109cc836020830160209181520190565b6104c76040519283926331b4668360e01b845260048401611321565b60405160208160208101936f496e7374616c6c65644d6f64756c6573661d189ddbdc9b1960ca1b0185526040820160208251919201935f5b8281106112a05750505061128a925003601f19810183528261018b565b5190205f80516020612514833981519152185490565b85518452948101948694509281019260010161126d565b60405160208160208101936a5265736f7572636549647360281b66746273746f726560c81b0185526040820160208251919201935f5b82811061130a5750505061128a925003601f19810183528261018b565b8551845294810194869450928101926001016112ed565b6060906106109392613a3160f11b8252602082015281604082015201906108d9565b906020610610928181520190610e67565b9190613a3160f11b6001600160f01b03198416818114159081611522575b506111ff5761137f611751565b611387611839565b61138f6118c6565b81516001906001810361150157508351600290600281036114e157505f5b818110611482575050506001600160f01b038416906113cd9082176119c6565b90811561146b575b506114355761141e6113fb61142a6105bf95946114309460405193849160208301611343565b039061140f601f199283810186528561018b565b60405194859160208301611343565b0390810184528361018b565b836119ea565b611a9f565b826040519061144f826109cc836020830160209181520190565b6104c760405192839263dfaaf9cf60e01b8452600484016108fe565b61147c9150611bdd60f21b176119c6565b5f6113d5565b640a0080050560d21b601b82900360031b1c60ff166114a86114a383611941565b611998565b81036114b6575082016113ad565b6114c26114a383611941565b6040516309531f6d60e21b815260048101929092526024820152604490fd5b604051621f7b1360ea1b8152600260048201526024810191909152604490fd5b6040516301ee597360e31b8152600160048201526024810191909152604490fd5b611bdd60f21b141590505f611372565b91908203918211610c8957565b9064ffffffffff809216918211610c8957565b9161157764ffffffffff9161061097959693855260e0602086015260e0850190610c8e565b945f60408501525f606085015216608083015260a082015260c08184039101526108d9565b909264ffffffffff6115bb61061096949560c0855260c0850190610c8e565b945f60208501525f6040850152166060830152608082015260a08184039101526108d9565b6953746f7265486f6f6b7360301b66746273746f726560c81b01815281516020918201928201915f5b828110611617575050505090565b835185529381019392810192600101611609565b655461626c657360501b66746273746f726560c81b01815281516020918201928201915f5b82811061165e575050505090565b835185529381019392810192600101611650565b90815281516020918201928201915f5b828110611690575050505090565b835185529381019392810192600101611682565b60405160208160208101936a5265736f7572636549647360281b66746273746f726560c81b0185526040820160208251919201935f5b82811061170c575050506116f7925003601f19810183528261018b565b5190205f805160206125148339815191521890565b8551845294810194869450928101926001016116da565b6040516116f7816102f460208201948561162b565b906116f76102f491604051928391602083019586611672565b5f805b600281106117d05750602881036117af575060025b601c81106117745750565b640a0080050560d21b601b82900360031b1c60ff1661179557600101611769565b604051631d8d44db60e01b81526004810191909152602490fd5b6040516375d4b26f60e11b8152602860048201526024810191909152604490fd5b90640a0080050560d21b601b83900360031b1c60ff169081611805576040516353b2dd0560e01b815260048101849052602490fd5b602082116118205760019161181991610c7c565b9101611754565b604051637237f23760e01b815260048101849052602490fd5b5f805b6001908183101561187c576118536114a384611977565b801561186a5761186291610c7c565b91019061183c565b6040516307a25a1160e51b8152600490fd5b905060209150036118ad576001805b818110611896575050565b6118a26114a382611977565b61186a57810161188b565b60405163d498615960e01b815260206004820152602490fd5b5f805b6002821061191a576028915003611901576002805b8181106118e9575050565b6118f56114a382611941565b61186a576001016118de565b60405163d498615960e01b815260286004820152602490fd5b6119266114a383611941565b90811561186a5760019161193991610c7c565b9101906118c9565b64280200616160d01b601b9190910360031b1c60ff1660c68110156119635790565b634e487b7160e01b5f52602160045260245ffd5b632001005f60d81b601b9190910360031b1c60ff1660c68110156119635790565b60c681101561196357606160ff821610156119b657601f1660010190565b6061036119c257601490565b5f90565b6119ce6107ab565b805115610778576119e39160208201526116a4565b5460f81c90565b91604051640a0080050560d21b6020820152632001005f60d81b604082015264280200616160d01b606082015260608152608081019281841060018060401b038511176101505783604052611a73602083835195611a51878251968560a086019101610569565b868201611a67825180938660a085019101610569565b0103808752018561018b565b611a7b6107ab565b92835115610778576105bf9560208501528160601b918160381b9101171791612202565b90611aa86107ab565b918251156107785760208301526040805192600160f81b602085015260019160018552611ad485610155565b611add826116a4565b94611ae6611f8c565b5f855b611bd8575b50611b37828697986040515f805160206124f48339815191526a5265736f7572636549647360281b66746273746f726560c81b019180611b2f868c83611c71565b0390a2612148565b5f945b611b47575b505050505050565b8051851015611bd35784611b6261102861101a899885610abb565b6008808260581c1614611b79575b50850194611b3a565b60601c9550853b156100ef575f8451809763a8ba872160e01b8252818381611ba5898c60048401611c9c565b03925af19081156104885787968792611bc0575b5090611b70565b8061047c611bcd9261013d565b5f611bb9565b611b3f565b8151811015611c6c5780611bf361102861101a899486610abb565b60049081808260581c1614611c0d575b5050810190611ae9565b90925060601c803b156100ef57845f918883611c3d968a519788958694859363964f667d60e01b85528401611c9c565b03925af19081156104885787928392611c59575b819250611c03565b8061047c611c669261013d565b5f611c51565b611aee565b9091611c8861061093606084526060840190610c8e565b915f602082015260408184039101526108d9565b6a5265736f7572636549647360281b66746273746f726560c81b018152608060208201819052610610939192611cd491840190610c8e565b915f604082015260608184039101526108d9565b91611cd49061061094928452608060208501526080840190610c8e565b919291906001600160f01b03198216611bdd60f21b14611e7e57611d298183611738565b611d328361209a565b905f5b8251811015611dbf57611d4e61102861101a8386610abb565b9060049182808260581c1614611d6a575b506001915001611d35565b60601c803b156100ef57855f9188838c96611d996040519889968795869463964f667d60e01b86528501611ce8565b03925af19182156104885760019215611d5f578061047c611db99261013d565b5f611d5f565b50949190611de883604097865f805160206124f483398151915260405180611b2f868a83611c71565b5f5b8151811015611e7557611e0361102861101a8385610abb565b6008808260581c1614611e1a575b50600101611dea565b60601c90813b156100ef57875163a8ba872160e01b8152915f908390818381611e488b8b8e60048501611ce8565b03925af191821561048857600192611e62575b5090611e11565b8061047c611e6f9261013d565b5f611e5b565b50505050509050565b925f805160206124f4833981519152919293611e9f60405192839283611c71565b0390a2565b604051611eb9816102f46020820194856115e0565b5190207f14e2fcc58e58e68ec7edc30c8d50dccc3ce2714a623ec81f46b6a63922d765691890565b604051611eb9816102f460208201948561162b565b90611eb96102f491604051928391602083019586611672565b64ffffffffff808311611f735766ffffffffffffff821690603883901c1683818110611f69570301915b64ffffffffff60381b60389190911b1664ffffffffff60381b19929092166001600160601b031991909116171790565b9003900391611f39565b604051637149a3c160e01b815260048101849052602490fd5b611f946107ab565b80511561077857610610906a5265736f7572636549647360281b66746273746f726560c81b01602082015260405161202c64ffffffffff6120095f805160206125348339815191526020850185611feb88836115e0565b0395611fff601f199788810183528261018b565b5190201894611ea4565b5460381c16916040519260208401948592603f83870101166040528185526124a9565b60018060801b039051169060801b1761240e565b6120486107ab565b8051156107785761061090655461626c657360501b66746273746f726560c81b01602082015260405161202c64ffffffffff6120095f805160206125348339815191526020850185611feb88836115e0565b6120a26107ab565b8051156107785761061091602082015260405161202c64ffffffffff6120095f805160206125348339815191526020850185611feb88836115e0565b6102f46121045f8051602061253483398151915293604051928391602083019586611672565b5190201890565b905f8051602061253483398151915291604051612130816102f460208201948561162b565b51902060f89190911b6001600160f81b031916181890565b81516105bf9260200191612460565b90610610949261217261218092608085526080850190610c8e565b9083820360208501526108d9565b92604082015260608184039101526108d9565b655461626c657360501b66746273746f726560c81b01815260c0602082018190529095946121f0949390926121dd926121cf9190890190610c8e565b9087820360408901526108d9565b91606086015284820360808601526108d9565b9160a06503001811010160cd1b910152565b919093929361220f612040565b5f5b815181101561229e5761222a61102861101a8385610abb565b6001808260581c1614612241575b50600101612211565b60601c90813b156100ef576040516315c19b2760e21b8152915f9083908183816122718e8c8c8f60048601612193565b03925af19182156104885760019261228b575b5090612238565b8061047c6122989261013d565b5f612284565b5060408051929690959194919392655461626c657360501b66746273746f726560c81b01907f8dbb3a9672eebfd3773e72dd9c102393436816d832c7ba9e1e1ac8fcadcac7a990806122f385888d8985612157565b0390a261230e61230283611723565b885160208a0191612460565b8261231883611ee1565b555f93602082015b60ff9081871690600282101561236a576001918161235c6123619364ffffffffff8b61234c8e8d61210b565b956028026038011c168094612460565b610c7c565b96011694612320565b505050959293509590935f5b81518110156124045761238f61102861101a8385610abb565b6002808260581c16146123a6575b50600101612376565b60601c90813b156100ef575f868a9386838b6123d78b5198899687958694635b28cdaf60e01b865260048601612193565b03925af1918215610488576001926123f1575b509061239d565b8061047c6123fe9261013d565b5f6123ea565b5050505050509050565b8060801c906015809160018060801b031604604051926020906020850160208460051b8701016040528386525f5b84811061244c5750505050505090565b82518252918501919083019060010161243c565b9291925b6020908183106124845784518155930192601f1990910190600101612464565b92939190508061249357505050565b5f199060031b1c90818354169119905116179055565b9291925b6020908183106124cd5780548552930192601f19909101906001016124ad565b919050929192806124dd57505050565b5f199060031b1c9081835116911990541617905256fe8c0b5119d4cec7b284c6b1b39252a03d1e2f2d7451a5895562524c113bb952be86425bff6b57326c7859e89024fe4f238ca327a1ae4a230180dd2f0e88aaa7d93b4102da22e32d82fc925482184f16c09fd4281692720b87d124aef6da48a0f1608080604052346100165761529d908161001b8239f35b5f80fdfe60806040526004361015610011575f80fd5b5f3560e01c63472466c214610024575f80fd5b346101e65760403660031901126101e6576004356001600160a01b038116908190036101e6576024356001600160901b0319811681036101e65760101c600160801b600160f01b0316813b156101e65763b29e408960e01b6080908152616e7360f01b82176084525f9060248183865af180156101e1576101ef575b6100c26f4f70657261746f72417070726f76616c613a3160f11b018217610293565b6100dd654f776e65727360501b613a3160f11b01821761033d565b6100fd6a4d6574616461746155524960281b613a3160f11b0182176103c6565b61011c6955524953746f7261676560301b613a3160f11b018217610488565b61013c6a546f74616c537570706c7960281b613a3160f11b01821761051a565b604051612fb58082016001600160401b038111838210176101ea5782916122a8833903905ff080156101e157823b156101e657604051633350b6a960e01b81526f4552433131353553797374656d00000061737960f01b019290921760048301526001600160a01b0316602482015260016044820152905f908290606490829084905af180156101e1576101cc57005b806101d96101df92610212565b8061027e565b005b610288565b5f80fd5b6101fe565b6101f96080604052565b6100a0565b634e487b7160e01b5f52604160045260245ffd5b6001600160401b0381116101ea57604052565b604081019081106001600160401b038211176101ea57604052565b602081019081106001600160401b038211176101ea57604052565b601f909101601f19168101906001600160401b038211908210176101ea57604052565b5f9103126101e657565b6040513d5f823e3d90fd5b61029b610645565b6102a36106f5565b815115610338576020820152805115610338576040516102c281610225565b600881526737b832b930ba37b960c11b60208201528151600110156103385760408201526102ef816106d1565b506102f8610689565b9060405161030581610225565b6008815267185c1c1c9bdd995960c21b602082015282511561033857602083015281511561033857610336926107b8565b565b6106bd565b610345610645565b61034d6106f5565b815115610338576020820152805115610338576103686108c5565b815160011015610338576040820152610380816106d1565b50610389610689565b9060405161039681610225565b600781526662616c616e636560c81b6020820152825115610338576020830152815115610338576103369261083e565b6040516103d281610240565b5f81526103dd6108e8565b916001600160a01b036103ee610948565b1630810361040257509061033692916109db565b803b156101e6575f92836104589361046a60405197889687958694630ba51f4960e01b86526004860152600160e01b60248601528560448601526101c560d81b606486015260c0608486015260c485019061075c565b8381036003190160a48501529061075c565b03925af180156101e15761047b5750565b806101d961033692610212565b610490610922565b6104986108e8565b916001600160a01b036104a9610948565b163081036104bd5750906103369291610b80565b803b156101e6575f92836104589361046a60405197889687958694630ba51f4960e01b86526004860152600160e01b6024860152632001001f60d81b60448601526101c560d81b606486015260c0608486015260c485019061075c565b610522610922565b61052a610645565b9160405161053781610225565b600d81526c63757272656e74537570706c7960981b60208201528351156103385760208401528251156103385760405161057081610225565b600b81526a746f74616c537570706c7960a81b6020820152610591846106d1565b5261059b836106d1565b506001600160a01b036105ac610948565b163081036105c05750906103369291610c5f565b803b156101e6575f92836104589361046a60405197889687958694630ba51f4960e01b8652600486015264020010010160d51b6024860152632001001f60d81b6044860152644002001f1f60d01b606486015260c0608486015260c485019061075c565b9190820180921161063157565b634e487b7160e01b5f52601160045260245ffd5b60408051919060608084016001600160401b038111858210176101ea5760405260028452835f5b8381106106795750505050565b808360208093850101520161066c565b60405161069581610225565b60018152805f5b6020808210156106b75790606060209282850101520161069c565b50505090565b634e487b7160e01b5f52603260045260245ffd5b8051600110156103385760400190565b80518210156103385760209160051b010190565b6040519061070282610225565b600582526437bbb732b960d91b6020830152565b5f5b8381106107275750505f910152565b8181015183820152602001610718565b9060209161075081518092818552858086019101610716565b601f01601f1916010190565b90808251908181526020809101926020808460051b8301019501935f915b84831061078a5750505050505090565b90919293949584806107a8600193601f198682030187528a51610737565b980193019301919493929061077a565b6001600160a01b036107c8610948565b163081036107dc5750906103369291610db2565b803b156101e6575f92836104589361046a60405197889687958694630ba51f4960e01b86526004860152630101000160d81b602486015264280200616160d01b60448601526208080360dd1b606486015260c0608486015260c485019061075c565b6001600160a01b0361084e610948565b163081036108625750906103369291610edd565b803b156101e6575f92836104589361046a60405197889687958694630ba51f4960e01b86526004860152630100080160dd1b602486015264340200611f60d01b6044860152632001001f60d81b606486015260c0608486015260c485019061075c565b604051906108d282610225565b60078252661d1bdad95b925960ca1b6020830152565b6108f0610689565b906040516108fd81610225565b600381526275726960e81b602082015282511561033857602083015281511561033857565b61092a610689565b906109336108c5565b82511561033857602083015281511561033857565b7f629a4c26e296b22a8e0856e9f6ecb2d1008d7e00081111962cd175fa7488e175546001600160a01b03168061097d57503390565b90565b60609061097d9392613a3160f11b825260208201528160408201520190610737565b919060206040840193600181520152565b60409061097d939281528160208201520190610737565b90602061097d92818152019061075c565b9190613a3160f11b6001600160f01b03198416818114159081610b70575b50610b3a57610a06610fe7565b610a0e611438565b815180610b1a5750825160018103610afe57506001600160f01b03841690610a37908217611687565b908115610ae7575b50610a9f57610a88610a65610a946103369594610a9a94604051938491602083016109ca565b0390610a79601f199283810186528561025b565b604051948591602083016109ca565b0390810184528361025b565b83611720565b611959565b8260405190610ac782610ab9836020830160209181520190565b03601f19810184528361025b565b610ae360405192839263dfaaf9cf60e01b8452600484016109b3565b0390fd5b610af89150611bdd60f21b17611687565b5f610a3f565b604051621f7b1360ea1b8152908190610ae390600483016109a2565b6040516301ee597360e31b81525f60048201526024810191909152604490fd5b8360405190610b5482610ab9836020830160209181520190565b610ae36040519283926331b4668360e01b845260048401610980565b611bdd60f21b141590505f6109f9565b9190613a3160f11b6001600160f01b03198416818114159081610c4f575b50610b3a57610bab610fe7565b610bb36112b5565b610bbb611438565b815160018103610c325750825160018103610afe57506001600160f01b03841690610be7908217611687565b908115610c1b575b50610a9f57610a88610a65610c156103369594610a9a94604051938491602083016109ca565b836117c7565b610c2c9150611bdd60f21b17611687565b5f610bef565b6040516301ee597360e31b8152908190610ae390600483016109a2565b611bdd60f21b141590505f610b9e565b9190613a3160f11b6001600160f01b03198416818114159081610da2575b50610b3a57610c8a611029565b610c926112b5565b610c9a61148b565b815160019060018103610c325750835160029060028103610d8257505f5b818110610d23575050506001600160f01b03841690610cd8908217611687565b908115610d0c575b50610a9f57610a88610a65610d066103369594610a9a94604051938491602083016109ca565b83611827565b610d1d9150611bdd60f21b17611687565b5f610ce0565b64020010010160d51b601b82900360031b1c60ff16610d49610d4483611598565b61163f565b8103610d5757508201610cb8565b610d63610d4483611598565b6040516309531f6d60e21b815260048101929092526024820152604490fd5b604051621f7b1360ea1b8152600260048201526024810191909152604490fd5b611bdd60f21b141590505f610c7d565b9190613a3160f11b6001600160f01b03198416818114159081610ecd575b50610b3a57610ddd611116565b610de5611342565b610ded61151d565b815160028103610eac5750825160019060018103610afe57505f5b818110610e725750506001600160f01b03841690610e27908217611687565b908115610e5b575b50610a9f57610a88610a65610e556103369594610a9a94604051938491602083016109ca565b8361188e565b610e6c9150611bdd60f21b17611687565b5f610e2f565b630101000160d81b601b82900360031b1c60ff16610e92610d44836115ba565b8103610ea057508101610e08565b610d63610d44836115ba565b6040516301ee597360e31b8152600260048201526024810191909152604490fd5b611bdd60f21b141590505f610dd0565b9190613a3160f11b6001600160f01b03198416818114159081610fd7575b50610b3a57610f086111fe565b610f106113bd565b610f186112b5565b815160028103610eac5750825160019060018103610afe57505f5b818110610f9d5750506001600160f01b03841690610f52908217611687565b908115610f86575b50610a9f57610a88610a65610f806103369594610a9a94604051938491602083016109ca565b836118f3565b610f979150611bdd60f21b17611687565b5f610f5a565b630100080160dd1b601b82900360031b1c60ff16610fbd610d44836115da565b8103610fcb57508101610f33565b610d63610d44836115da565b611bdd60f21b141590505f610efb565b5f5b601c8110610ff45750565b600160e01b601b82900360031b1c60ff1661101157600101610fe9565b60249060405190631d8d44db60e01b82526004820152fd5b5f805b600281106110ad57506040906040810361108a575060025b601c8110611050575050565b64020010010160d51b601b82900360031b1c60ff1661107157600101611044565b9051631d8d44db60e01b81526004810191909152602490fd5b604080516375d4b26f60e11b815260048101919091526024810191909152604490fd5b9064020010010160d51b601b83900360031b1c60ff1690816110e2576040516353b2dd0560e01b815260048101849052602490fd5b602082116110fd576001916110f691610624565b910161102c565b604051637237f23760e01b815260048101849052602490fd5b5f805b6001908183101561118a57630101000160d81b601b84900360031b1c60ff169081611157576040516353b2dd0560e01b815260048101859052602490fd5b60208211611171579061116991610624565b910190611119565b604051637237f23760e01b815260048101859052602490fd5b915050600190600181036111e1575060015b601c81106111a8575050565b630101000160d81b601b82900360031b1c60ff166111c757810161119c565b604051631d8d44db60e01b81526004810191909152602490fd5b6040516375d4b26f60e11b8152908190610ae390600483016109a2565b5f805b6001908183101561125957630100080160dd1b601b84900360031b1c60ff16908161123f576040516353b2dd0560e01b815260048101859052602490fd5b60208211611171579061125191610624565b910190611201565b9150506020810361129457506001805b601c8110611275575050565b630100080160dd1b601b82900360031b1c60ff166111c7578101611269565b6040516375d4b26f60e11b8152602060048201526024810191909152604490fd5b5f805b600190818310156112f8576112cf610d44846115da565b80156112e6576112de91610624565b9101906112b8565b6040516307a25a1160e51b8152600490fd5b90506020915003611329576001805b818110611312575050565b61131e610d44826115da565b6112e6578101611307565b60405163d498615960e01b815260206004820152602490fd5b5f805b6002821061139657602891500361137d576002805b818110611365575050565b611371610d44826115fb565b6112e65760010161135a565b60405163d498615960e01b815260286004820152602490fd5b6113a2610d44836115fb565b9081156112e6576001916113b591610624565b910190611345565b5f805b600282106114115760349150036113f8576002805b8181106113e0575050565b6113ec610d448261161d565b6112e6576001016113d5565b60405163d498615960e01b815260346004820152602490fd5b61141d610d448361161d565b9081156112e65760019161143091610624565b9101906113c0565b5f5b60019081811015611487576101c560d81b601b82900360031b1c60ff1660c6811015611473576114699061163f565b6112e6570161143a565b634e487b7160e01b5f52602160045260245ffd5b5050565b5f805b600281106114f6575060408091036114db5760029060025b8281106114b257505050565b6114be610d4482611598565b6114ca576001016114a6565b81516307a25a1160e51b8152600490fd5b6040805163d498615960e01b81526004810191909152602490fd5b90611503610d4483611598565b9081156112e65760019161151691610624565b910161148e565b5f805b6001908183101561154e57611537610d44846115ba565b80156112e65761154691610624565b910190611520565b915050600180910361157f5760015b818110611568575050565b611574610d44826115ba565b6112e657810161155d565b60405163d498615960e01b815260016004820152602490fd5b644002001f1f60d01b601b9190910360031b1c60ff1660c68110156114735790565b6208080360dd1b601b9190910360031b1c60ff1660c68110156114735790565b632001001f60d81b601b9190910360031b1c60ff1660c68110156114735790565b64280200616160d01b601b9190910360031b1c60ff1660c68110156114735790565b64340200611f60d01b601b9190910360031b1c60ff1660c68110156114735790565b60c681101561147357606160ff8216101561165d57601f1660010190565b60610361166957601490565b5f90565b6040519061167a82610225565b6001825260203681840137565b61168f61166d565b805115610338576020808201928352604080516a5265736f7572636549647360281b66746273746f726560c81b0181840190815293519394909390928492830191905f5b828110611709575050506116f0925003601f19810183528261025b565b5190205f8051602061525d833981519152185460f81c90565b8551845294810194869450928101926001016116d3565b91604051600160e01b60208201525f60408201526101c560d81b606082015260608152608081019281841060018060401b038511176101ea578360405261179b602083835195611779878251968560a086019101610716565b86820161178f825180938660a085019101610716565b0103808752018561025b565b6117a361166d565b92835115610338576103369560208501528160601b918160381b9101171791611c37565b91604051600160e01b6020820152632001001f60d81b60408201526101c560d81b606082015260608152608081019281841060018060401b038511176101ea578360405261179b602083835195611779878251968560a086019101610716565b9160405164020010010160d51b6020820152632001001f60d81b6040820152644002001f1f60d01b606082015260608152608081019281841060018060401b038511176101ea578360405261179b602083835195611779878251968560a086019101610716565b91604051630101000160d81b602082015264280200616160d01b60408201526208080360dd1b606082015260608152608081019281841060018060401b038511176101ea578360405261179b602083835195611779878251968560a086019101610716565b91604051630100080160dd1b602082015264340200611f60d01b6040820152632001001f60d81b606082015260608152608081019281841060018060401b038511176101ea578360405261179b602083835195611779878251968560a086019101610716565b9061196261166d565b918251156103385760208301526040805192600160f81b60208501526001916001855261198e85610225565b61199782611ed5565b946119a0611f77565b5f855b611ac0575b50611a04828697986040517f8c0b5119d4cec7b284c6b1b39252a03d1e2f2d7451a5895562524c113bb952be6a5265736f7572636549647360281b66746273746f726560c81b0191806119fc868c8361215d565b0390a2612226565b5f945b611a14575b505050505050565b8051851015611abb5784611a4a611a3d611a2f8998856106e1565b516001600160581b03191690565b6001600160581b03191690565b6008808260581c1614611a61575b50850194611a07565b60601c9550853b156101e6575f8451809763a8ba872160e01b8252818381611a8d898c60048401612188565b03925af19081156101e15787968792611aa8575b5090611a58565b806101d9611ab592610212565b5f611aa1565b611a0c565b8151811015611b545780611adb611a3d611a2f8994866106e1565b60049081808260581c1614611af5575b50508101906119a3565b90925060601c803b156101e657845f918883611b25968a519788958694859363964f667d60e01b85528401612188565b03925af19081156101e15787928392611b41575b819250611aeb565b806101d9611b4e92610212565b5f611b39565b6119a8565b9081518082526020808093019301915f5b828110611b78575050505090565b835185529381019392810192600101611b6a565b9061097d9492611ba7611bb592608085526080850190611b59565b908382036020850152610737565b9260408201526060818403910152610737565b655461626c657360501b66746273746f726560c81b01815260c060208201819052909594611c2594939092611c1292611c049190890190611b59565b908782036040890152610737565b9160608601528482036080860152610737565b9160a06503001811010160cd1b910152565b9190939293611c4461202b565b5f5b8151811015611cd357611c5f611a3d611a2f83856106e1565b6001808260581c1614611c76575b50600101611c46565b60601c90813b156101e6576040516315c19b2760e21b8152915f908390818381611ca68e8c8c8f60048601611bc8565b03925af19182156101e157600192611cc0575b5090611c6d565b806101d9611ccd92610212565b5f611cb9565b5060408051929690959194919392655461626c657360501b66746273746f726560c81b01907f8dbb3a9672eebfd3773e72dd9c102393436816d832c7ba9e1e1ac8fcadcac7a99080611d2885888d8985611b8c565b0390a2611d43611d3783611f54565b885160208a0191612085565b82611d4d8361210b565b555f93602082015b60ff90818716906002821015611d9f5760019181611d91611d969364ffffffffff8b611d818e8d612120565b956028026038011c168094612085565b610624565b96011694611d55565b505050959293509590935f5b8151811015611e3957611dc4611a3d611a2f83856106e1565b6002808260581c1614611ddb575b50600101611dab565b60601c90813b156101e6575f868a9386838b611e0c8b5198899687958694635b28cdaf60e01b865260048601611bc8565b03925af19182156101e157600192611e26575b5090611dd2565b806101d9611e3392610212565b5f611e1f565b5050505050509050565b6953746f7265486f6f6b7360301b66746273746f726560c81b01815281516020918201928201915f5b828110611e7a575050505090565b835185529381019392810192600101611e6c565b655461626c657360501b66746273746f726560c81b01815281516020918201928201915f5b828110611ec1575050505090565b835185529381019392810192600101611eb3565b60405160208160208101936a5265736f7572636549647360281b66746273746f726560c81b0185526040820160208251919201935f5b828110611f3d57505050611f28925003601f19810183528261025b565b5190205f8051602061525d8339815191521890565b855184529481019486945092810192600101611f0b565b604051611f2881611f69602082019485611e8e565b03601f19810183528261025b565b611f7f61166d565b8051156103385761097d906a5265736f7572636549647360281b66746273746f726560c81b01602082015260405161201764ffffffffff611ff45f8051602061527d8339815191526020850185611fd68883611e43565b0395611fea601f199788810183528261025b565b51902018946120ce565b5460381c16916040519260208401948592603f838701011660405281855261225d565b60018060801b039051169060801b176121d4565b61203361166d565b8051156103385761097d90655461626c657360501b66746273746f726560c81b01602082015260405161201764ffffffffff611ff45f8051602061527d8339815191526020850185611fd68883611e43565b9291925b6020908183106120a95784518155930192601f1990910190600101612089565b9293919050806120b857505050565b5f199060031b1c90818354169119905116179055565b6040516120e381611f69602082019485611e43565b5190207f14e2fcc58e58e68ec7edc30c8d50dccc3ce2714a623ec81f46b6a63922d765691890565b6040516120e381611f69602082019485611e8e565b905f8051602061527d8339815191529160405161214581611f69602082019485611e8e565b51902060f89190911b6001600160f81b031916181890565b909161217461097d93606084526060840190611b59565b915f60208201526040818403910152610737565b6a5265736f7572636549647360281b66746273746f726560c81b01815260806020820181905261097d9391926121c091840190611b59565b915f60408201526060818403910152610737565b8060801c906015809160018060801b031604604051926020906020850160208460051b8701016040528386525f5b8481106122125750505050505090565b825182529185019190830190600101612202565b81519060208093019190925b808210156122455750806120b857505050565b6001839482939451815501930191601f190190612232565b9291925b6020908183106122815780548552930192601f1990910190600101612261565b9190509291928061229157505050565b5f199060031b1c9081835116911990541617905256fe6080806040523461001657612f9a908161001b8239f35b5f80fdfe60806040526004361015610011575f80fd5b5f3560e01c8062fdd58e1461012357806301ffc9a71461011e5780630e89341c14610119578063119df25f146101145780632eb2c2d61461010f57806345ec93541461010a5780634e1273f4146101055780635cfa929714610100578063731133e9146100fb578063a22cb465146100f6578063b390c0ab146100f1578063bc197c81146100ec578063e1af802c146100e7578063e985e9c5146100e2578063f23a6e61146100dd578063f242432a146100d85763fe99049a146100d3575f80fd5b610e1b565b610dc8565b610d72565b610d1e565b610d04565b610cdd565b610a68565b610947565b610908565b6107d2565b610665565b610521565b6104a0565b61038f565b61027b565b6101cb565b61016c565b600435906001600160a01b038216820361013e57565b5f80fd5b602435906001600160a01b038216820361013e57565b35906001600160a01b038216820361013e57565b3461013e57604036600319011261013e5760206101b161018a610128565b602435906101ac6001600160901b03196101a330611ab8565b60101b16610fcb565b61105b565b604051908152f35b6001600160e01b031981160361013e57565b3461013e57602036600319011261013e5760206004356101ea816101b9565b63ffffffff60e01b1663b5dee12760e01b8114908115610210575b506040519015158152f35b6301ffc9a760e01b1490505f610205565b5f5b8381106102325750505f910152565b8181015183820152602001610223565b9060209161025b81518092818552858086019101610221565b601f01601f1916010190565b906020610278928181520190610242565b90565b3461013e57602036600319011261013e576001600160901b03196103216102e76102d9836102a830611ab8565b601090811b91909116901c600160801b600160f01b03166a4d6574616461746155524960281b613a3160f11b011790565b6102e1610fef565b90611e75565b916102f130611ab8565b601090811b91909116901c600160801b600160f01b03166955524953746f7261676560301b613a3160f11b011790565b9061032a611015565b9182511561036d5761036392610347916004356020830152611e75565b8051156103675761035791610e82565b60405191829182610267565b0390f35b50610357565b610ec5565b5f91031261013e57565b6001600160a01b03909116815260200190565b3461013e575f36600319011261013e5760206103a9611091565b6040516001600160a01b039091168152f35b9181601f8401121561013e578235916001600160401b03831161013e576020808501948460051b01011161013e57565b9181601f8401121561013e578235916001600160401b03831161013e576020838186019501011161013e57565b9060a060031983011261013e576001600160a01b0391600435838116810361013e5792602435908116810361013e57916001600160401b0360443581811161013e5783610467916004016103bb565b9390939260643583811161013e5782610482916004016103bb565b9390939260843591821161013e5761049c916004016103eb565b9091565b3461013e576104ae36610418565b93969095909392916001600160a01b038216801561050957505f5b8881106104d257005b806105036104e36001938c8b610ed9565b356104ef838689610ed9565b356104fb368a8e61073a565b91878b6110a8565b016104c9565b60249060405190632bfa23e760e11b82526004820152fd5b3461013e575f36600319011261013e576020604051601f193601358152f35b634e487b7160e01b5f52604160045260245ffd5b6001600160401b03811161056757604052565b610540565b604081019081106001600160401b0382111761056757604052565b601f909101601f19168101906001600160401b0382119082101761056757604052565b6001600160401b0381116105675760051b60200190565b9080601f8301121561013e5760209082356105db816105aa565b936105e96040519586610587565b81855260208086019260051b82010192831161013e57602001905b828210610612575050505090565b81358152908301908301610604565b9081518082526020808093019301915f5b828110610640575050505090565b835185529381019392810192600101610632565b906020610278928181520190610621565b3461013e57604036600319011261013e576004356001600160401b0380821161013e573660238301121561013e5781600401356106a1816105aa565b926106af6040519485610587565b8184526020916024602086019160051b8301019136831161013e57602401905b828210610708578560243586811161013e57610363916106f66106fc9236906004016105c1565b90610f1b565b60405191829182610654565b83809161071484610158565b8152019101906106cf565b6001600160401b03811161056757601f01601f191660200190565b9291926107468261071f565b916107546040519384610587565b82948184528183011161013e578281602093845f960137010152565b9080601f8301121561013e578160206102789335910161073a565b90608060031983011261013e576004356001600160a01b038116810361013e57916024359160443591606435906001600160401b03821161013e5761027891600401610770565b3461013e576107e03661078b565b906107e9611285565b6001600160a01b0384169182156108ef5761080e61080783866113b7565b9087611565565b50843b61081757005b610847926020925f610827611091565b966040519687958694859363f23a6e6160e01b9b8c8652600486016111e8565b03925af15f91816108be575b506108905782610861611256565b805191908261088957604051632bfa23e760e11b815280610885846004830161037c565b0390fd5b9050602001fd5b6001600160e01b031916036108a157005b604051632bfa23e760e11b8152908190610885906004830161037c565b6108e191925060203d6020116108e8575b6108d98183610587565b8101906111d3565b905f610853565b503d6108cf565b604051632bfa23e760e11b815260048101849052602490fd5b3461013e576109163661078b565b509190610921611285565b6001600160a01b038216801561050957506109459261093f916113b7565b91611565565b005b3461013e57604036600319011261013e57610960610128565b602435801515810361013e57610974611091565b906001600160a01b0383811691908215610a4e576109ba826109ed96866109b56109b06109a030611ab8565b60101b6001600160901b03191690565b611a4d565b61233a565b6109fb6109d46109c8612283565b6001600160a01b031690565b9260405196879160208301919091602081019215159052565b03601f198101875286610587565b813b1561013e575f8094610a266040519788968795869463c9a34acd60e01b865216600485016119e2565b03925af18015610a4957610a3657005b80610a4361094592610554565b80610372565b61124b565b60405162ced3e160e81b815280610885876004830161037c565b3461013e5760408060031936011261013e5760049081359060243590610a8c611091565b610a9683856113b7565b9581518751808203610cc257506001600160a01b0384169384158080610cba575b610c9d578015915f5b848110610bbb5750505050600103610b7357610b14610af3610aec610ae66109c8612283565b94610efa565b5198610efa565b5197610b068651998a9260208401610ee9565b03601f198101895288610587565b813b1561013e575f8391610b3c829651998a96879586946366c93bdb60e01b865285016114c5565b03925af1908115610a495761094593610b5a92610b60575b50611a38565b90612002565b80610a43610b6d92610554565b5f610b54565b610b93610b816109c8612283565b92610b068651998a9260208401611400565b813b1561013e575f8391610b3c829651998a96879586946366c93bdb60e01b86528501611425565b8b610bd182610bca818b610f07565b5192610f07565b51908415610c15579060019291610be6611285565b86610bf18383612002565b505b610c00575b505001610ac0565b610c0d915f039085612135565b505f80610bf8565b610c3281610c2d610c286109a030611ab8565b611ae0565b611fe4565b15610c8157610c5081856101ac610c4b6109a030611ab8565b610fcb565b828110610c635750906001929186610bf3565b8b516303dee4c560e01b815294859450610885939190858b016113dc565b8a51639307fe3960e01b81528089019182529081906020010390fd5b8651639307fe3960e01b8152600a81860190815281906020010390fd5b506001610ab7565b8551635b05999160e01b815291829161088591838601610ee9565b3461013e57610ceb36610418565b5050505050505050602060405163f23a6e6160e01b8152f35b3461013e575f36600319011261013e5760206103a96123ff565b3461013e57604036600319011261013e576020610d68610d3c610128565b610d44610142565b90610d636001600160901b0319610d5a30611ab8565b60101b16611a4d565b611a78565b6040519015158152f35b3461013e5760a036600319011261013e57610d8b610128565b50610d94610142565b506084356001600160401b03811161013e57610db49036906004016103eb565b505060405163f23a6e6160e01b8152602090f35b3461013e5760a036600319011261013e57610de1610128565b610de9610142565b60843591906001600160401b03831161013e57610e0d610945933690600401610770565b9160643591604435916110a8565b3461013e57608036600319011261013e57610e34610128565b610e3c610142565b6001600160a01b0381169182156108ef576109459250610e606064356044356113b7565b929091611745565b61027891906101ac6001600160901b03196101a330611ab8565b6020610ec3919392936040519481610ea38793518092868087019101610221565b8201610eb782518093868085019101610221565b01038085520183610587565b565b634e487b7160e01b5f52603260045260245ffd5b919081101561036d5760051b0190565b908152602081019190915260400190565b80511561036d5760200190565b805182101561036d5760209160051b010190565b91909180518351808203610faf575050805190610f37826105aa565b91610f456040519384610587565b808352610f54601f19916105aa565b013660208401375f5b8151811015610fa85780610f97610f86610f7960019486610f07565b516001600160a01b031690565b610f908389610f07565b5190610e68565b610fa18286610f07565b5201610f5d565b5090925050565b610885604051928392635b05999160e01b845260048401610ee9565b60101c600160801b600160f01b0316654f776e65727360501b613a3160f11b011790565b604051602081016001600160401b03811182821017610567576040525f8152905f368137565b604051906110228261056c565b6001825260203681840137565b60405190606082016001600160401b038111838210176105675760405260028252604082602036910137565b61106361102f565b9182511561036d576001600160a01b0316602083015281516001101561036d57610278926040830152611b18565b36603319013560601c9081156110a357565b339150565b93926001600160a01b0382811693919084156111bb578616156111a4576110ce916113b7565b9190946110dd83878484611745565b506110e6611091565b9360018751145f146111105750611109611102610ec397610efa565b5193610efa565b519361265e565b90929195869594953b611127575b50505050505050565b5f60209461114d6040519788968795869463bc197c8160e01b9c8d875260048701612610565b03925af15f9181611183575b506111675782610861611256565b6001600160e01b031916036108a157505f80808080808061111e565b61119d91925060203d6020116108e8576108d98183610587565b905f611159565b604051626a0d4560e21b81525f6004820152602490fd5b604051632bfa23e760e11b81525f6004820152602490fd5b9081602091031261013e5751610278816101b9565b909260a0926102789594600180861b031683525f6020840152604083015260608201528160808201520190610242565b919261027895949160a094600180871b038092168552166020840152604083015260608201528160808201520190610242565b6040513d5f823e3d90fd5b3d15611280573d906112678261071f565b916112756040519384610587565b82523d5f602084013e565b606090565b61128e30611ab8565b611296611091565b9061129f611015565b80511561036d57600160801b600160f01b038216616e7360f01b1760208201526112c890611bc1565b60601c6001600160a01b038316036112de575050565b608081901b6001600160801b0319169061137e90602490601081901b6001600160901b031916806113a857506113126126f7565b935b8061139a57506113226126f7565b60405194859261ffff60f01b166020840152601d60f91b90816022850152611354815180926020602388019101610221565b830190602382015261136f8251809360208785019101610221565b01036004810184520182610587565b61088560405192839263d787b73760e01b845260048401611eff565b6113a390612862565b611322565b6113b190612862565b93611314565b9160405192600184526020840152604083019160018352606084015260808301604052565b90949392606092608083019660018060a01b03168352602083015260408201520152565b909161141761027893604084526040840190610621565b916020818403910152610621565b610278939260a0925f80516020612efa8339815191528352602083015260408201525f60608201528160808201520190610242565b610278939260a0925f80516020612efa833981519152835260208301525f604083015260608201528160808201520190610242565b909260a09261027895945f80516020612efa83398151915284526020840152604083015260608201528160808201520190610242565b610278939260a0925f80516020612f1a8339815191528352602083015260408201525f60608201528160808201520190610242565b610278939260a0925f80516020612f1a833981519152835260208301525f604083015260608201528160808201520190610242565b909260a09261027895945f80516020612f1a83398151915284526020840152604083015260608201528160808201520190610242565b918151918151808403611727575061157b611091565b6001600160a01b03808216949185151580611720575b6116e2575b5085169485156116c9575f5b82811061168c575050600103611640576115ee6115cc6111026115c66109c8612283565b93610efa565b51926115e060405194859260208401610ee9565b03601f198101845283610587565b803b1561013e57611619935f8094604051968795869485936366c93bdb60e01b8552600485016114fa565b03925af18015610a495761162d575b505f90565b80610a4361163a92610554565b5f611628565b61166161164e6109c8612283565b916115e060405194859260208401611400565b803b1561013e57611619935f8094604051968795869485936366c93bdb60e01b85526004850161145a565b806116c261169c60019387610f07565b516116a78389610f07565b51906116b1611285565b6116bb8282612002565b5085612135565b50016115a2565b604051639307fe3960e01b8152600a6004820152602490fd5b6116f26116ee82611f27565b1590565b156115965760405163711bec9160e11b81526001600160a01b039190911660048201525f6024820152604490fd5b505f611591565b604051635b05999160e01b8152908190610885908660048401610ee9565b929180519083518083036119c4575061175c611091565b6001600160a01b038082169587821694919290919087861415806119bb575b61197f575b5084158080611975575b6116c9578015905f5b83811061188157505050600103611833576117e76117c56117be6117b86109c8612283565b95610efa565b5192610efa565b51916117d960405193849260208401610ee9565b03601f198101835282610587565b823b1561013e575f946118148692604051988997889687956366c93bdb60e01b875216916004860161152f565b03925af18015610a4957611826575090565b80610a4361027892610554565b6118546118416109c8612283565b936117d960405193849260208401611400565b823b1561013e575f946118148692604051988997889687956366c93bdb60e01b875216916004860161148f565b61188b8188610f07565b51906118978187610f07565b518c84156118fa576001936118aa611285565b6118b48382612002565b505b868d84838d83166118e8575b5050506118d3575b50505001611793565b6118df925f0391612135565b505f8c816118ca565b6118f192612135565b508d84836118c2565b50909161191081610c2d610c286109a030611ab8565b1561195b57611929818e6101ac610c4b6109a030611ab8565b82811061193c5750908c600193926118b6565b8d61088583856040519485946303dee4c560e01b8652600486016113dc565b604051639307fe3960e01b81526004810191909152602490fd5b508387161561178a565b61198c6116ee828b611f8e565b156117805760405163711bec9160e11b81526001600160a01b0391821660048201529089166024820152604490fd5b5085151561177b565b604051635b05999160e01b8152908190610885908560048401610ee9565b61027893926080927f17307eab39ab6107e8899845ad3d59bd9653f200f220920489ca2b5937696c318352602083015260408201528160608201520190610242565b634e487b7160e01b5f52601160045260245ffd5b600160ff1b8114611a48575f0390565b611a24565b60101c600160801b600160f01b03166f4f70657261746f72417070726f76616c613a3160f11b011790565b611a8061102f565b805190926001600160a01b03911561036d578116602084015282516001101561036d57611ab293166040830152611c59565b60f81c90565b611ac0611015565b80511561036d576001600160a01b03909116602082015261027890611cd5565b60101c600160801b600160f01b03166a546f74616c537570706c7960281b613a3160f11b011790565b9081602091031261013e575190565b906001600160a01b03611b296123ff565b16308103611b3f5750611b3b91612796565b5490565b90602091611b7093604051809581948293638c364d5960e01b84526004840152608060248401526084830190610621565b5f6044830152630100080160dd1b606483015203915afa908115610a49575f91611b98575090565b610278915060203d602011611bba575b611bb28183610587565b810190611b09565b503d611ba8565b6001600160a01b03611bd16123ff565b16308103611be3575061027890612434565b604051638c364d5960e01b81526f4e616d6573706163654f776e65720000661d189ddbdc9b1960ca1b0160048201526080602482015291602091839182908190611c31906084830190610621565b5f6044830152630500400560da1b606483015203915afa908115610a49575f91611b98575090565b906001600160a01b03611c6a6123ff565b16308103611c7c5750611b3b91612796565b90602091611cad93604051809581948293638c364d5960e01b84526004840152608060248401526084830190610621565b5f6044830152630101000160d81b606483015203915afa908115610a49575f91611b98575090565b6001600160a01b03611ce56123ff565b16308103611cf75750610278906124b6565b604051638c364d5960e01b81526f53797374656d52656769737472790000661d189ddbdc9b1960ca1b0160048201526080602482015291602091839182908190611b70906084830190610621565b906001600160a01b03611d566123ff565b16308103611d68575061027891612522565b90602091611d9993604051809581948293638c364d5960e01b84526004840152608060248401526084830190610621565b6001604483015264020010010160d51b606483015203915afa908115610a49575f91611b98575090565b906001600160a01b03611dd46123ff565b16308103611de65750611b3b91612796565b90602091611c3193604051809581948293638c364d5960e01b84526004840152608060248401526084830190610621565b60208183031261013e578051906001600160401b03821161013e570181601f8201121561013e578051611e498161071f565b92611e576040519485610587565b8184526020828401011161013e576102789160208085019101610221565b906001600160a01b03611e866123ff565b16308103611e98575061027891612578565b905f91611ec893604051809581948293631e78897760e01b84526004840152606060248401526064830190610621565b85604483015203915afa908115610a49575f91611ee3575090565b61027891503d805f833e611ef78183610587565b810190611e17565b90611f17602091949394604084526040840190610242565b6001600160a01b03909416910152565b6001600160a01b031680158015919082611f4057505090565b91611f49575090565b9050611f606001600160901b0319610d5a30611ab8565b611f6861102f565b9081511561036d575f602083015281516001101561036d57611ab2926040830152611c59565b6001600160a01b03828116801515939184611fab575b5050505090565b8316149250908215611fc3575b50505f808080611fa4565b611fdd9250610d636001600160901b0319610d5a30611ab8565b5f80611fb8565b611fec611015565b9081511561036d57610278926020830152611d45565b6001600160901b0319929161202782610c2d8661201e30611ab8565b60101b16611ae0565b905f8112156121225761203990611a38565b8103908111611a485761205190935b61201e30611ab8565b9061205a611015565b9081511561036d576020820152604051918460208401526020835261207e8361056c565b6001600160a01b0361208e6123ff565b163081036120a2575090610ec392916128c0565b803b1561013e575f92836120dd936120f6604051978896879586946301c85d5760e51b8652600486015260a0602486015260a4850190610621565b6001604485015283810360031901606485015290610242565b64020010010160d51b608483015203925af18015610a49576121155750565b80610a43610ec392610554565b8101809111611a48576120519093612048565b9092915f8112156122595761216361215d85846101ac6001600160901b03196101a330611ab8565b91611a38565b8103908111611a4857925b6121836001600160901b03196101a330611ab8565b61218b61102f565b80516001600160a01b0394919391901561036d578416602084015282516001101561036d57604083015260405192856020850152602084526121cc8461056c565b6121d46123ff565b163081036121e8575090610ec392916129a0565b803b1561013e575f92836122239361223b604051978896879586946301c85d5760e51b8652600486015260a0602486015260a4850190610621565b90846044850152600319848303016064850152610242565b630100080160dd1b608483015203925af18015610a49576121155750565b61227384836101ac6001600160901b03196101a330611ab8565b908101809111611a48579261216e565b61228c30611ab8565b604051613a3160f11b6020808301918252651c1d5c1c195d60d21b60228401526d507570706574526567697374727960901b60308401528252906122cf8161056c565b5190519060208110612329575b506122e5611015565b80511561036d576122fb91836020830152611dc3565b60601c908115612309575090565b604051639434f7e160e01b81523060048201526024810191909152604490fd5b5f199060200360031b1b165f6122dc565b9061234361102f565b805190936001600160a01b039290911561036d578216602085015283516001101561036d578116604084015260405193151560f81b60208501526001845261238a8461056c565b6123926123ff565b163081036123a6575090610ec392916129a0565b803b1561013e575f9283612223936123e1604051978896879586946301c85d5760e51b8652600486015260a0602486015260a4850190610621565b630101000160d81b608483015203925af18015610a49576121155750565b7f629a4c26e296b22a8e0856e9f6ecb2d1008d7e00081111962cd175fa7488e175546001600160a01b03168061027857503390565b60405160208160208101936f4e616d6573706163654f776e65720000661d189ddbdc9b1960ca1b0185526040820160208251919201935f5b82811061249f57505050612489925003601f198101835282610587565b5190205f80516020612f5a833981519152185490565b85518452948101948694509281019260010161246c565b60405160208160208101936f53797374656d52656769737472790000661d189ddbdc9b1960ca1b0185526040820160208251919201935f5b82811061250b57505050612489925003601f198101835282610587565b8551845294810194869450928101926001016124ee565b9061252c91612796565b6125346127c4565b90806020831015612567575b5080548260031b1b91602003908160201161255a57505090565b600101549060031b1c1790565b601f83169260051c0190505f612540565b9064ffffffffff610278926125d46125e06040515f80516020612f7a83398151915260208201826125aa898884612764565b03926125be601f1994858101835282610587565b5190201895604051938491602083019687612764565b03908101835282610587565b5190207f14e2fcc58e58e68ec7edc30c8d50dccc3ce2714a623ec81f46b6a63922d76569185460381c16906127fa565b93906102789593612642916126509460018060a01b03809216885216602087015260a0604087015260a0860190610621565b908482036060860152610621565b916080818403910152610242565b939290949194853b612673575b505050505050565b612696602093604051958694859463f23a6e6160e01b998a875260048701611218565b03815f6001600160a01b0388165af15f91816126d6575b506126bb5782610861611256565b6001600160e01b031916036108a157505f808080808061266b565b6126f091925060203d6020116108e8576108d98183610587565b905f6126ad565b604051906127048261056c565b60068252651e3937b7ba1f60d11b6020830152565b6953746f7265486f6f6b7360301b66746273746f726560c81b01815281516020918201928201915f5b828110612750575050505090565b835185529381019392810192600101612742565b90815281516020918201928201915f5b828110612782575050505090565b835185529381019392810192600101612774565b906127af6117d991604051928391602083019586612764565b5190205f80516020612f5a8339815191521890565b5f805b600181106127d3575090565b9060ff64020010010160d51b83601b0360031b1c168101809111611a4857906001016127c7565b60408051601f19603f85830101811690925283815292602080850193925b8183101561284a5750508061282e575b50505090565b5f199060031b1c908183511691199054161790525f8080612828565b81600185839495979654875201940194019190612818565b5f5b60108110612893575b6040516001600160801b031990921660208301526010825261288e8261056c565b815290565b6001600160801b03198216600382901b1b6001600160f81b031916156128bb57600101612864565b61286d565b610ec3929165ffffffffffff6128d46127c4565b1691612b62565b90916128f261027893606084526060840190610621565b915f60208201526040818403910152610242565b65ffffffffffff6129236102789593606084526060840190610621565b931660208201526040818403910152610242565b916129549061027894928452608060208501526080840190610621565b915f60408201526060818403910152610242565b9061298c610278959365ffffffffffff928452608060208501526080840190610621565b931660408201526060818403910152610242565b919291906001600160f01b03198216611bdd60f21b14612b3c576129c48183612796565b6129cd83612d17565b905f5b8251811015612a7557612a046129f76129e98386610f07565b516001600160581b03191690565b6001600160581b03191690565b9060049182808260581c1614612a20575b5060019150016129d0565b60601c803b1561013e57855f9188838c96612a4f6040519889968795869463964f667d60e01b86528501612937565b03925af1918215610a495760019215612a155780610a43612a6f92610554565b5f612a15565b50949190612aa683604097865f80516020612f3a83398151915260405180612a9e868a836128db565b0390a2612da1565b5f5b8151811015612b3357612ac16129f76129e98385610f07565b6008808260581c1614612ad8575b50600101612aa8565b60601c90813b1561013e57875163a8ba872160e01b8152915f908390818381612b068b8b8e60048501612937565b03925af1918215610a4957600192612b20575b5090612acf565b80610a43612b2d92610554565b5f612b19565b50505050509050565b925f80516020612f3a833981519152919293612b5d604051928392836128db565b0390a2565b9193926001600160f01b03198316611bdd60f21b14612cf557612b858284612796565b93612b8f84612d17565b905f5b8251811015612c1d57612bab6129f76129e98386610f07565b9060049182808260581c1614612bc7575b506001915001612b92565b60601c803b1561013e57865f9189838d96612bf78b604051998a978896879563964f667d60e01b87528601612968565b03925af1918215610a495760019215612bbc5780610a43612c1792610554565b5f612bbc565b509491959290612c5b87604094875f80516020612f3a83398151915260405180612c49868c8b84612906565b0390a265ffffffffffff871690612dee565b5f5b8151811015612ceb57612c766129f76129e98385610f07565b6008808260581c1614612c8d575b50600101612c5d565b60601c90813b1561013e575f868a9386838b612cbe8b519889968795869463a8ba872160e01b865260048601612968565b03925af1918215610a4957600192612cd8575b5090612c84565b80610a43612ce592610554565b5f612cd1565b5050505050509050565b90612b5d5f80516020612f3a8339815191529394959260405193849384612906565b612d1f611015565b9081511561036d5781612d8a91602061027894015264ffffffffff604051915f80516020612f7a8339815191526020840184612d5b8483612719565b0394612d6f601f1996878101835282610587565b51902018926125e060405191826125d4602082019586612719565b602060018060801b03825116910160801b17612dff565b81519060208093019190925b80821015612dd6575080612dc057505050565b5f199060031b1c90818354169119905116179055565b6001839482939451815501930191601f190190612dad565b8251610ec393602001929091612e51565b8060801c906015809160018060801b031604604051926020906020850160208460051b8701016040528386525f5b848110612e3d5750505050505090565b825182529185019190830190600101612e2d565b909392919380612e90575b509290925b602090818310612e815784518155930192601f1990910190600101612e61565b929391905080612dc057505050565b6020811015612ee9575b8015612e5c5791939082602003908360031b5f198460031b1c19811c908751901c908019835416911617815581831115612ee157600101940191601f19910101925f612e5c565b505050509050565b90601f908260051c019116612e9a56fe4a39dc06d4c0dbc64b70af90fd698a233a518aa5d07e595d983b8c0526c8f7fbc3d58168c5ae7397731d063d5bbf3d657854427343f4c083240f7aacaa2d0f628c0b5119d4cec7b284c6b1b39252a03d1e2f2d7451a5895562524c113bb952be86425bff6b57326c7859e89024fe4f238ca327a1ae4a230180dd2f0e88aaa7d93b4102da22e32d82fc925482184f16c09fd4281692720b87d124aef6da48a0f186425bff6b57326c7859e89024fe4f238ca327a1ae4a230180dd2f0e88aaa7d93b4102da22e32d82fc925482184f16c09fd4281692720b87d124aef6da48a0f1","linkReferences":{}},"methodIdentifiers":{"_msgSender()":"119df25f","_msgValue()":"45ec9354","_world()":"e1af802c","install(bytes)":"13861fb5","installRoot(bytes)":"7c5b0335","registrationLibrary()":"fc01f370","supportsInterface(bytes4)":"01ffc9a7"},"id":1}