{"abi":[{"type":"function","name":"getDynamicField","inputs":[{"name":"tableId","type":"bytes32","internalType":"ResourceId"},{"name":"keyTuple","type":"bytes32[]","internalType":"bytes32[]"},{"name":"dynamicFieldIndex","type":"uint8","internalType":"uint8"}],"outputs":[{"name":"data","type":"bytes","internalType":"bytes"}],"stateMutability":"view"},{"type":"function","name":"getDynamicFieldLength","inputs":[{"name":"tableId","type":"bytes32","internalType":"ResourceId"},{"name":"keyTuple","type":"bytes32[]","internalType":"bytes32[]"},{"name":"dynamicFieldIndex","type":"uint8","internalType":"uint8"}],"outputs":[{"name":"","type":"uint256","internalType":"uint256"}],"stateMutability":"view"},{"type":"function","name":"getDynamicFieldSlice","inputs":[{"name":"tableId","type":"bytes32","internalType":"ResourceId"},{"name":"keyTuple","type":"bytes32[]","internalType":"bytes32[]"},{"name":"dynamicFieldIndex","type":"uint8","internalType":"uint8"},{"name":"start","type":"uint256","internalType":"uint256"},{"name":"end","type":"uint256","internalType":"uint256"}],"outputs":[{"name":"","type":"bytes","internalType":"bytes"}],"stateMutability":"view"},{"type":"function","name":"getField","inputs":[{"name":"tableId","type":"bytes32","internalType":"ResourceId"},{"name":"keyTuple","type":"bytes32[]","internalType":"bytes32[]"},{"name":"fieldIndex","type":"uint8","internalType":"uint8"},{"name":"fieldLayout","type":"bytes32","internalType":"FieldLayout"}],"outputs":[{"name":"data","type":"bytes","internalType":"bytes"}],"stateMutability":"view"},{"type":"function","name":"getField","inputs":[{"name":"tableId","type":"bytes32","internalType":"ResourceId"},{"name":"keyTuple","type":"bytes32[]","internalType":"bytes32[]"},{"name":"fieldIndex","type":"uint8","internalType":"uint8"}],"outputs":[{"name":"data","type":"bytes","internalType":"bytes"}],"stateMutability":"view"},{"type":"function","name":"getFieldLayout","inputs":[{"name":"tableId","type":"bytes32","internalType":"ResourceId"}],"outputs":[{"name":"fieldLayout","type":"bytes32","internalType":"FieldLayout"}],"stateMutability":"view"},{"type":"function","name":"getFieldLength","inputs":[{"name":"tableId","type":"bytes32","internalType":"ResourceId"},{"name":"keyTuple","type":"bytes32[]","internalType":"bytes32[]"},{"name":"fieldIndex","type":"uint8","internalType":"uint8"},{"name":"fieldLayout","type":"bytes32","internalType":"FieldLayout"}],"outputs":[{"name":"","type":"uint256","internalType":"uint256"}],"stateMutability":"view"},{"type":"function","name":"getFieldLength","inputs":[{"name":"tableId","type":"bytes32","internalType":"ResourceId"},{"name":"keyTuple","type":"bytes32[]","internalType":"bytes32[]"},{"name":"fieldIndex","type":"uint8","internalType":"uint8"}],"outputs":[{"name":"","type":"uint256","internalType":"uint256"}],"stateMutability":"view"},{"type":"function","name":"getKeySchema","inputs":[{"name":"tableId","type":"bytes32","internalType":"ResourceId"}],"outputs":[{"name":"keySchema","type":"bytes32","internalType":"Schema"}],"stateMutability":"view"},{"type":"function","name":"getRecord","inputs":[{"name":"tableId","type":"bytes32","internalType":"ResourceId"},{"name":"keyTuple","type":"bytes32[]","internalType":"bytes32[]"},{"name":"fieldLayout","type":"bytes32","internalType":"FieldLayout"}],"outputs":[{"name":"staticData","type":"bytes","internalType":"bytes"},{"name":"encodedLengths","type":"bytes32","internalType":"EncodedLengths"},{"name":"dynamicData","type":"bytes","internalType":"bytes"}],"stateMutability":"view"},{"type":"function","name":"getRecord","inputs":[{"name":"tableId","type":"bytes32","internalType":"ResourceId"},{"name":"keyTuple","type":"bytes32[]","internalType":"bytes32[]"}],"outputs":[{"name":"staticData","type":"bytes","internalType":"bytes"},{"name":"encodedLengths","type":"bytes32","internalType":"EncodedLengths"},{"name":"dynamicData","type":"bytes","internalType":"bytes"}],"stateMutability":"view"},{"type":"function","name":"getStaticField","inputs":[{"name":"tableId","type":"bytes32","internalType":"ResourceId"},{"name":"keyTuple","type":"bytes32[]","internalType":"bytes32[]"},{"name":"fieldIndex","type":"uint8","internalType":"uint8"},{"name":"fieldLayout","type":"bytes32","internalType":"FieldLayout"}],"outputs":[{"name":"data","type":"bytes32","internalType":"bytes32"}],"stateMutability":"view"},{"type":"function","name":"getValueSchema","inputs":[{"name":"tableId","type":"bytes32","internalType":"ResourceId"}],"outputs":[{"name":"valueSchema","type":"bytes32","internalType":"Schema"}],"stateMutability":"view"},{"type":"error","name":"Store_IndexOutOfBounds","inputs":[{"name":"length","type":"uint256","internalType":"uint256"},{"name":"accessedIndex","type":"uint256","internalType":"uint256"}]},{"type":"error","name":"Store_InvalidBounds","inputs":[{"name":"start","type":"uint256","internalType":"uint256"},{"name":"end","type":"uint256","internalType":"uint256"}]},{"type":"error","name":"Store_TableNotFound","inputs":[{"name":"tableId","type":"bytes32","internalType":"ResourceId"},{"name":"tableIdString","type":"string","internalType":"string"}]}],"bytecode":{"object":"0x6080806040523461001657610e80908161001b8239f35b5f80fdfe604060808152600480361015610013575f80fd5b5f3560e01c806305242d2f1461061d5780631e788977146105f45780633a77c2c2146105d5578063419b58fd146105855780634dc77d971461048a5780638c364d59146103fc5780639f1fcf0a146103b2578063a53417ed1461038d578063cc49db7e1461032e578063d03edb8c146102e4578063d4285dc2146101b9578063dbbf0e211461017d5763e228a4a3146100aa575f80fd5b34610179576020918260031936011261017957813581516100ca81610779565b6100ea60019160018152863681830137836100e482610dfd565b52610d32565b5f905f925b6002841061014e57506101029250610baa565b92831561011157505051908152f35b61014a85848051918581840152825261012982610779565b80519485946341e713ad60e01b8652850152602484015260448301906106ce565b0390fd5b61016f81929360ff6503001811010160cd1b87601b0360031b1c16906109c1565b93019291906100ef565b5f80fd5b8234610179576020906101b261019c6101953661083c565b9291610e1e565b5460ff64ffffffffff92166028026038011c1690565b9051908152f35b503461017957602091826003193601126101795781358151926101db84610779565b6101f560019460018152863681830137836100e482610dfd565b5f80915b868084106102b9575061020c9250610baa565b93835161021881610779565b6001815286810190873683378461022e82610dfd565b5285516a5265736f7572636549647360281b66746273746f726560c81b01898201908152915191939092918391828901915f5b8c8282106102a35750505050610280925003601f1981018352826107a8565b5190205f80516020610e60833981519152185460f81c1561011157505051908152f35b8651855295860195879550909301928201610261565b90916102db906503001811010160cd1b601b86900360031b1c60ff16906109c1565b920191906101f9565b82346101795761032a906103176103086102fd3661070c565b9293919036916107cb565b61031183610935565b926108a4565b90519182916020835260208301906106ce565b0390f35b50903461017957806003193601126101795760243582356001600160401b0382116101795761037061036961032a9561037f94369101610649565b36916107cb565b61037982610935565b916109ce565b90939192519384938461074d565b8234610179576020906101b26103a23661083c565b906103ac83610935565b92610aaf565b509034610179576080366003190112610179576024356001600160401b038111610179576020926103e96101b29236908301610821565b6103f1610679565b906064359235610aaf565b82346101795760209061042761042161041436610689565b95939290949136916107cb565b90610dac565b6104318284610dc5565b918186841015610478575b5060ff80939483548660031b1b95880394859316601b0360031b1c1611610467575b50509051908152f35b600101549060031b1c17838061045e565b601f84169360051c01915060ff61043c565b5090346101795760a03660031901126101795781356024356001600160401b038111610179576104bd9036908501610821565b6104c5610679565b906064359260843595868511610569576104e38461019c8585610e1e565b80861080158091610560575b6105105761032a886103178b8a806105088c8c8c610b27565b920391610b87565b8892918789925f146105385760449450915b51637e8578d360e01b8152928301526024820152fd5b505f19840193841161054d5760449391610522565b601183634e487b7160e01b5f525260245ffd5b508189116104ef565b6044908786885192635462a3c160e11b84528301526024820152fd5b50903461017957606036600319011261017957602435916001600160401b038311610179576105ce61037f916105c161032a9536908301610649565b92906044359336916107cb565b90356109ce565b509034610179576020366003190112610179576101b260209235610935565b82346101795761032a9061031761061761060d3661070c565b93919036916107cb565b906108f9565b82346101795761032a9061031761064361063636610689565b94919392909336916107cb565b906108a4565b9181601f84011215610179578235916001600160401b038311610179576020808501948460051b01011161017957565b6044359060ff8216820361017957565b9060806003198301126101795760043591602435906001600160401b038211610179576106b891600401610649565b909160443560ff81168103610179579060643590565b91908251928382525f5b8481106106f8575050825f602080949584010152601f8019910116010190565b6020818301810151848301820152016106d8565b9060606003198301126101795760043591602435906001600160401b0382116101795761073b91600401610649565b909160443560ff811681036101795790565b61076361077694926060835260608301906106ce565b92602082015260408184039101526106ce565b90565b604081019081106001600160401b0382111761079457604052565b634e487b7160e01b5f52604160045260245ffd5b601f909101601f19168101906001600160401b0382119082101761079457604052565b9092916001600160401b038411610794578360051b60209260206040516107f4828501826107a8565b809781520191810192831161017957905b8282106108125750505050565b81358152908301908301610805565b9080601f8301121561017957816020610776933591016107cb565b9060606003198301126101795760043591602435906001600160401b0382116101795761086b91600401610821565b9060443560ff811681036101795790565b9060ff8091169116039060ff821161089057565b634e487b7160e01b5f52601160045260245ffd5b9060ff8460e81c169160ff8416928084105f146108e55750936108d66108cf60ff9361077697610dac565b9482610dc5565b92601b0360031b1c1691610b87565b909361077695506108f792935061087c565b915b916109169061019c61077693610910838288610b27565b95610e1e565b9160405192601f19603f82860101166040528084526020840191610c3f565b655461626c657360501b66746273746f726560c81b0190808214610996576040805160208101938452808201929092528152606081016001600160401b03811182821017610794576040525190205f80516020610e60833981519152185490565b506503001811010160cd1b919050565b6001600160401b03811161079457601f01601f191660200190565b9190820180921161089057565b925f92606092906109e460f082901c8388610be8565b9560ff809260e01c1692836109fa575b50505050565b8092965081610a0d929498959650610e1e565b549166ffffffffffffff831693610a3c610a26866109a6565b95610a3460405197886107a8565b8087526109a6565b602086019590601f19013687375f955b888716908a821015610a9b57899181610a84610a899364ffffffffff8b610a748e8d8d610b27565b956028026038011c168094610c3f565b6109c1565b96168881146108905760010195610a4c565b50509594509650505092505f8080806109f4565b9092919260ff8360e81c1660ff8516948186105f14610ada575050505060ff91601b0360031b1c1690565b610776955061019c93945090610aef9161087c565b92610e1e565b90815281516020918201928201915f5b828110610b13575050505090565b835185529381019392810192600101610b05565b610b61610b6f7f3b4102da22e32d82fc925482184f16c09fd4281692720b87d124aef6da48a0f19493604051928391602083019586610af5565b03601f1981018352826107a8565b51902060f89190911b6001600160f81b031916181890565b610776919260405193601f19603f83870101166040528185526020850192610c89565b6020821015610bda575b80548260031b1b916020039081602011610bcd57505090565b600101549060031b1c1790565b601f82169160051c01610bb4565b8215610c195761077691610bfb91610dac565b60405192601f19603f82860101166040528084526020840191610c3f565b50506040519050602081016001600160401b03811182821017610794576040525f815290565b9291925b602090818310610c635780548552930192601f1990910190600101610c43565b91905092919280610c7357505050565b5f199060031b1c90818351169119905416179052565b909392919380610cb8575b50929092602090818310610c635780548552930192601f1990910190600101610c43565b6020811015610d22575b8015610c945791939082602003908183105f14610d16575f198360031b1c5b8154818851169119908660031b1b1617865281831115610d0e57600101940191601f19910101925f610c94565b505050509050565b5f198260031b1c610ce1565b90601f908260051c019116610cc2565b6040516020816020810193655461626c657360501b66746273746f726560c81b0185526040820160208251919201935f5b828110610d9557505050610d80925003601f1981018352826107a8565b5190205f80516020610e608339815191521890565b855184529481019486945092810192600101610d63565b90610d80610b6191604051928391602083019586610af5565b5f9190825b60ff808416851015610df557600191610ded918487601b0360031b1c16906109c1565b930192610dca565b509250505090565b805115610e0a5760200190565b634e487b7160e01b5f52603260045260245ffd5b90610e37610b6191604051928391602083019586610af5565b5190207f14e2fcc58e58e68ec7edc30c8d50dccc3ce2714a623ec81f46b6a63922d76569189056fe86425bff6b57326c7859e89024fe4f238ca327a1ae4a230180dd2f0e88aaa7d9","linkReferences":{}},"methodIdentifiers":{"getDynamicField(bytes32,bytes32[],uint8)":"1e788977","getDynamicFieldLength(bytes32,bytes32[],uint8)":"dbbf0e21","getDynamicFieldSlice(bytes32,bytes32[],uint8,uint256,uint256)":"4dc77d97","getField(bytes32,bytes32[],uint8)":"d03edb8c","getField(bytes32,bytes32[],uint8,bytes32)":"05242d2f","getFieldLayout(bytes32)":"3a77c2c2","getFieldLength(bytes32,bytes32[],uint8)":"a53417ed","getFieldLength(bytes32,bytes32[],uint8,bytes32)":"9f1fcf0a","getKeySchema(bytes32)":"d4285dc2","getRecord(bytes32,bytes32[])":"cc49db7e","getRecord(bytes32,bytes32[],bytes32)":"419b58fd","getStaticField(bytes32,bytes32[],uint8,bytes32)":"8c364d59","getValueSchema(bytes32)":"e228a4a3"},"id":47}