{"abi":[{"type":"function","name":"_msgSender","inputs":[],"outputs":[{"name":"sender","type":"address","internalType":"address"}],"stateMutability":"view"},{"type":"function","name":"_msgValue","inputs":[],"outputs":[{"name":"value","type":"uint256","internalType":"uint256"}],"stateMutability":"pure"},{"type":"function","name":"_world","inputs":[],"outputs":[{"name":"","type":"address","internalType":"address"}],"stateMutability":"view"},{"type":"function","name":"auctionHouseAddress","inputs":[],"outputs":[{"name":"","type":"address","internalType":"address"}],"stateMutability":"view"},{"type":"function","name":"cancelOrder","inputs":[{"name":"_orderHash","type":"bytes32","internalType":"bytes32"}],"outputs":[{"name":"","type":"bool","internalType":"bool"}],"stateMutability":"nonpayable"},{"type":"function","name":"createOrder","inputs":[{"name":"order","type":"tuple","internalType":"struct Order","components":[{"name":"offer","type":"tuple","internalType":"struct Offer","components":[{"name":"tokenType","type":"uint8","internalType":"enum TokenType"},{"name":"token","type":"address","internalType":"address"},{"name":"identifier","type":"uint256","internalType":"uint256"},{"name":"amount","type":"uint256","internalType":"uint256"}]},{"name":"consideration","type":"tuple","internalType":"struct Consideration","components":[{"name":"tokenType","type":"uint8","internalType":"enum TokenType"},{"name":"token","type":"address","internalType":"address"},{"name":"identifier","type":"uint256","internalType":"uint256"},{"name":"amount","type":"uint256","internalType":"uint256"},{"name":"recipient","type":"address","internalType":"address"}]},{"name":"signature","type":"bytes","internalType":"bytes"},{"name":"offerer","type":"address","internalType":"address"}]}],"outputs":[{"name":"_orderHash","type":"bytes32","internalType":"bytes32"}],"stateMutability":"nonpayable"},{"type":"function","name":"fulfillOrder","inputs":[{"name":"orderHash","type":"bytes32","internalType":"bytes32"}],"outputs":[{"name":"fulfilled","type":"bool","internalType":"bool"}],"stateMutability":"nonpayable"},{"type":"function","name":"getConsideration","inputs":[{"name":"orderHash","type":"bytes32","internalType":"bytes32"}],"outputs":[{"name":"consideration","type":"tuple","internalType":"struct ConsiderationsData","components":[{"name":"tokenType","type":"uint8","internalType":"enum TokenType"},{"name":"token","type":"address","internalType":"address"},{"name":"identifier","type":"uint256","internalType":"uint256"},{"name":"amount","type":"uint256","internalType":"uint256"},{"name":"recipient","type":"address","internalType":"address"}]}],"stateMutability":"view"},{"type":"function","name":"getCounter","inputs":[{"name":"offerer","type":"address","internalType":"address"}],"outputs":[{"name":"","type":"uint256","internalType":"uint256"}],"stateMutability":"view"},{"type":"function","name":"getOffer","inputs":[{"name":"orderHash","type":"bytes32","internalType":"bytes32"}],"outputs":[{"name":"offer","type":"tuple","internalType":"struct OffersData","components":[{"name":"tokenType","type":"uint8","internalType":"enum TokenType"},{"name":"token","type":"address","internalType":"address"},{"name":"identifier","type":"uint256","internalType":"uint256"},{"name":"amount","type":"uint256","internalType":"uint256"}]}],"stateMutability":"view"},{"type":"function","name":"getOrderHash","inputs":[{"name":"order","type":"tuple","internalType":"struct Order","components":[{"name":"offer","type":"tuple","internalType":"struct Offer","components":[{"name":"tokenType","type":"uint8","internalType":"enum TokenType"},{"name":"token","type":"address","internalType":"address"},{"name":"identifier","type":"uint256","internalType":"uint256"},{"name":"amount","type":"uint256","internalType":"uint256"}]},{"name":"consideration","type":"tuple","internalType":"struct Consideration","components":[{"name":"tokenType","type":"uint8","internalType":"enum TokenType"},{"name":"token","type":"address","internalType":"address"},{"name":"identifier","type":"uint256","internalType":"uint256"},{"name":"amount","type":"uint256","internalType":"uint256"},{"name":"recipient","type":"address","internalType":"address"}]},{"name":"signature","type":"bytes","internalType":"bytes"},{"name":"offerer","type":"address","internalType":"address"}]}],"outputs":[{"name":"orderHash","type":"bytes32","internalType":"bytes32"}],"stateMutability":"view"},{"type":"function","name":"getOrderStatus","inputs":[{"name":"orderHash","type":"bytes32","internalType":"bytes32"}],"outputs":[{"name":"orderStatus","type":"uint8","internalType":"enum OrderStatus"}],"stateMutability":"view"},{"type":"function","name":"incrementCounter","inputs":[{"name":"offerer","type":"address","internalType":"address"}],"outputs":[{"name":"","type":"uint256","internalType":"uint256"}],"stateMutability":"nonpayable"},{"type":"function","name":"onERC1155BatchReceived","inputs":[{"name":"","type":"address","internalType":"address"},{"name":"","type":"address","internalType":"address"},{"name":"","type":"uint256[]","internalType":"uint256[]"},{"name":"","type":"uint256[]","internalType":"uint256[]"},{"name":"","type":"bytes","internalType":"bytes"}],"outputs":[{"name":"","type":"bytes4","internalType":"bytes4"}],"stateMutability":"nonpayable"},{"type":"function","name":"onERC1155Received","inputs":[{"name":"","type":"address","internalType":"address"},{"name":"","type":"address","internalType":"address"},{"name":"","type":"uint256","internalType":"uint256"},{"name":"","type":"uint256","internalType":"uint256"},{"name":"","type":"bytes","internalType":"bytes"}],"outputs":[{"name":"","type":"bytes4","internalType":"bytes4"}],"stateMutability":"nonpayable"},{"type":"function","name":"supportsInterface","inputs":[{"name":"interfaceId","type":"bytes4","internalType":"bytes4"}],"outputs":[{"name":"","type":"bool","internalType":"bool"}],"stateMutability":"pure"},{"type":"event","name":"Store_SetRecord","inputs":[{"name":"tableId","type":"bytes32","indexed":true,"internalType":"ResourceId"},{"name":"keyTuple","type":"bytes32[]","indexed":false,"internalType":"bytes32[]"},{"name":"staticData","type":"bytes","indexed":false,"internalType":"bytes"},{"name":"encodedLengths","type":"bytes32","indexed":false,"internalType":"EncodedLengths"},{"name":"dynamicData","type":"bytes","indexed":false,"internalType":"bytes"}],"anonymous":false},{"type":"event","name":"Store_SpliceStaticData","inputs":[{"name":"tableId","type":"bytes32","indexed":true,"internalType":"ResourceId"},{"name":"keyTuple","type":"bytes32[]","indexed":false,"internalType":"bytes32[]"},{"name":"start","type":"uint48","indexed":false,"internalType":"uint48"},{"name":"data","type":"bytes","indexed":false,"internalType":"bytes"}],"anonymous":false},{"type":"error","name":"Slice_OutOfBounds","inputs":[{"name":"data","type":"bytes","internalType":"bytes"},{"name":"start","type":"uint256","internalType":"uint256"},{"name":"end","type":"uint256","internalType":"uint256"}]}],"bytecode":{"object":"0x608060405260001960005534801561001657600080fd5b50613481806100266000396000f3fe608060405234801561001057600080fd5b50600436106101005760003560e01c8063bc74f4a511610097578063e5910ae711610066578063e5910ae714610265578063f07ec37314610278578063f23a6e611461028b578063f8b48037146102c357600080fd5b8063bc74f4a514610224578063d597b8c81461022a578063dd5c51a71461024a578063e1af802c1461025d57600080fd5b806346423aa7116100d357806346423aa7146101755780637489ec231461019557806378885da7146101a8578063bc197c81146101bb57600080fd5b806301ffc9a714610105578063119df25f1461012d57806326e5dc5d1461014d57806345ec935414610160575b600080fd5b610118610113366004612987565b6102e3565b60405190151581526020015b60405180910390f35b6101356102f4565b6040516001600160a01b039091168152602001610124565b61011861015b3660046129c9565b610303565b36601f1901355b604051908152602001610124565b6101886101833660046129c9565b61043d565b60405161012491906129f8565b6101186101a33660046129c9565b610448565b6101676101b6366004612ba9565b6104a1565b6101f36101c9366004612d10565b7fbc197c810000000000000000000000000000000000000000000000000000000095945050505050565b6040517fffffffff000000000000000000000000000000000000000000000000000000009091168152602001610124565b30610135565b61023d6102383660046129c9565b610817565b6040516101249190612e04565b610167610258366004612ba9565b610844565b610135610887565b610167610273366004612e12565b610891565b610167610286366004612e12565b6108de565b6101f3610299366004612e2d565b7ff23a6e610000000000000000000000000000000000000000000000000000000095945050505050565b6102d66102d13660046129c9565b6108f3565b6040516101249190612ed8565b60006102ee82610927565b92915050565b60006102fe6109bf565b905090565b60008061030f836109f1565b9050600061031c84610abf565b9050600161032985610b8a565b600281111561033a5761033a6129e2565b1461038c5760405162461bcd60e51b815260206004820152601360248201527f4f72646572206973206e6f74206163746976650000000000000000000000000060448201526064015b60405180910390fd5b80606001516103a485600061039f6102f4565b610c3c565b10156103f25760405162461bcd60e51b815260206004820152601460248201527f496e73756666696369656e742062616c616e63650000000000000000000000006044820152606401610383565b61040a84600083608001516104056102f4565b610db6565b61041e8460016104186102f4565b30610db6565b6104338461042a6102f4565b600060026111ed565b5060019392505050565b60006102ee82610b8a565b600080610454836108f3565b905080608001516001600160a01b031661046c6102f4565b6001600160a01b03161461047f57600080fd5b61048a83600061127b565b61049b836001836080015130610db6565b50919050565b60006104ab6102f4565b6001600160a01b031682606001516001600160a01b0316146105355760405162461bcd60e51b815260206004820152602560248201527f596f752063616e6e6f74206f6666657220736f6d656f6e6520656c736527732060448201527f6974656d730000000000000000000000000000000000000000000000000000006064820152608401610383565b60006040518060800160405280846000015160000151600381111561055c5761055c6129e2565b81526020018460000151602001516001600160a01b031681526020018460000151604001518152602001846000015160600151815250905060006040518060a0016040528085602001516000015160038111156105bb576105bb6129e2565b81526020018560200151602001516001600160a01b03168152602001856020015160400151815260200185602001516060015181526020018560200151608001516001600160a01b031681525090506001600381111561061d5761061d6129e2565b8451516003811115610631576106316129e2565b148061065057506003845151600381111561064e5761064e6129e2565b145b61069c5760405162461bcd60e51b815260206004820152601260248201527f546f6b656e206e6f7420616363657074656400000000000000000000000000006044820152606401610383565b600160208501515160038111156106b5576106b56129e2565b14806106d75750600360208501515160038111156106d5576106d56129e2565b145b6107235760405162461bcd60e51b815260206004820152601260248201527f546f6b656e206e6f7420616363657074656400000000000000000000000000006044820152606401610383565b602084015151600381111561073a5761073a6129e2565b845151600381111561074e5761074e6129e2565b0361079b5760405162461bcd60e51b815260206004820152601a60248201527f43616e6e6f74207472616465207468652073616d6520747970650000000000006044820152606401610383565b60006107ac85606001516000611369565b6107b7906001612efc565b90506107cd856020015160800151600083611432565b6107d685610844565b93506107e2848461151a565b6107ec84836115b7565b6107fd846001308860600151610db6565b61080f848660600151600060016111ed565b505050919050565b6040805160808101825260008082526020820181905291810182905260608101919091526102ee826109f1565b600061085382606001516108de565b825160208085015160405161086a94939201612f0f565b604051602081830303815290604052805190602001209050919050565b60006102fe611651565b6000816001600160a01b03166108a56102f4565b6001600160a01b0316146108b857600080fd5b60006108c5836000611369565b6108d0906001612efc565b90506102ee83600083611432565b6000806108ec836000611369565b9392505050565b6040805160a0810182526000808252602082018190529181018290526060810182905260808101919091526102ee82610abf565b60007fffffffff0000000000000000000000000000000000000000000000000000000082167fb5dee1270000000000000000000000000000000000000000000000000000000014806102ee57507fffffffff0000000000000000000000000000000000000000000000000000000082167f01ffc9a7000000000000000000000000000000000000000000000000000000001492915050565b7fffffffffffffffffffffffffffffffffffffffffffffffffffffffffffffffcc36013560601c806109ee5750335b90565b604080516080810182526000808252602082018190529181018290526060810191909152604080516001808252818301909252600091602080830190803683370190505090508281600081518110610a4b57610a4b612f31565b602090810291909101015260008080610aa47f746255440000000000000000000000004f666665727300000000000000000000857e5504000114202000000000000000000000000000000000000000000000000061165b565b925092509250610ab583838361172b565b9695505050505050565b6040805160a081018252600080825260208201819052918101829052606081018290526080810191909152604080516001808252818301909252600091602080830190803683370190505090508281600081518110610b2057610b20612f31565b602090810291909101015260008080610b797f74625544000000000000000000000000436f6e73696465726174696f6e730000857e6905000114202014000000000000000000000000000000000000000000000061165b565b925092509250610ab58383836117a7565b604080516001808252818301909252600091829190602080830190803683370190505090508281600081518110610bc357610bc3612f31565b60209081029190910101526000610c1c7f746255440000000000000000000000004f7264657273000000000000000000008360027e35030014200100000000000000000000000000000000000000000000000000611833565b905060f881901c6002811115610c3457610c346129e2565b949350505050565b600080610c4885610abf565b90506000610c55866109f1565b9050600085610c65578251610c68565b81515b9050600086610c7b578360200151610c81565b82602001515b9050600087610c94578460400151610c9a565b83604001515b90506001836003811115610cb057610cb06129e2565b03610d45576040517f70a082310000000000000000000000000000000000000000000000000000000081526001600160a01b0388811660048301528316906370a08231906024015b602060405180830381865afa158015610d15573d6000803e3d6000fd5b505050506040513d601f19601f82011682018060405250810190610d399190612f47565b955050505050506108ec565b6003836003811115610d5957610d596129e2565b03610daa576040517efdd58e0000000000000000000000000000000000000000000000000000000081526001600160a01b0388811660048301526024820183905283169062fdd58e90604401610cf8565b50505050509392505050565b6000610dc185610abf565b90506000610dce866109f1565b9050600085610de1578260600151610de7565b81606001515b9050600086610df7578351610dfa565b82515b9050600087610e0d578460400151610e13565b83604001515b90506001600160a01b0386163014600089610e32578660200151610e38565b85602001515b90506001846003811115610e4e57610e4e6129e2565b0361101857818015610ee957506000546040517fdd62ed3e000000000000000000000000000000000000000000000000000000008152306004820181905260248201526001600160a01b0383169063dd62ed3e90604401602060405180830381865afa158015610ec2573d6000803e3d6000fd5b505050506040513d601f19601f82011682018060405250810190610ee69190612f47565b14155b15610f7e576000546040517f095ea7b300000000000000000000000000000000000000000000000000000000815230600482015260248101919091526001600160a01b0382169063095ea7b3906044016020604051808303816000875af1158015610f58573d6000803e3d6000fd5b505050506040513d601f19601f82011682018060405250810190610f7c9190612f60565b505b6040517f23b872dd0000000000000000000000000000000000000000000000000000000081526001600160a01b0389811660048301528a81166024830152604482018790528216906323b872dd906064016020604051808303816000875af1158015610fee573d6000803e3d6000fd5b505050506040513d601f19601f820116820180604052508101906110129190612f60565b506111e0565b600384600381111561102c5761102c6129e2565b036111e0578180156110c857506040517fe985e9c5000000000000000000000000000000000000000000000000000000008152306004820181905260248201526001600160a01b0382169063e985e9c590604401602060405180830381865afa15801561109d573d6000803e3d6000fd5b505050506040513d601f19601f820116820180604052508101906110c19190612f60565b1515600114155b15611147576040517fa22cb465000000000000000000000000000000000000000000000000000000008152306004820152600160248201526001600160a01b0382169063a22cb46590604401600060405180830381600087803b15801561112e57600080fd5b505af1158015611142573d6000803e3d6000fd5b505050505b6040517ff242432a0000000000000000000000000000000000000000000000000000000081526001600160a01b0389811660048301528a81166024830152604482018590526064820187905260a06084830152600060a483015282169063f242432a9060c401600060405180830381600087803b1580156111c757600080fd5b505af11580156111db573d6000803e3d6000fd5b505050505b5050505050505050505050565b60006111fa8484846118f0565b60408051600180825281830190925291925060009160609183919060208083019080368337019050509050878160008151811061123957611239612f31565b60209081029190910101526112717f746255440000000000000000000000004f7264657273000000000000000000008286868661191f565b5050505050505050565b6040805160018082528183019092526000916020808301908036833701905050905082816000815181106112b1576112b1612f31565b60209081029190910101526113647f746255440000000000000000000000004f72646572730000000000000000000082600285818111156112f4576112f46129e2565b60405160200161132f919060f89190911b7fff0000000000000000000000000000000000000000000000000000000000000016815260010190565b60408051601f198184030181529190527e350300142001000000000000000000000000000000000000000000000000006119d4565b505050565b60408051600280825260608201835260009283929190602083019080368337019050509050836001600160a01b031660001b816000815181106113ae576113ae612f31565b6020026020010181815250508260001b816001815181106113d1576113d1612f31565b602090810291909101015260006114297f74625544000000000000000000000000436f756e74657273000000000000000083837e20010020000000000000000000000000000000000000000000000000000000611833565b95945050505050565b604080516002808252606082018352600092602083019080368337019050509050836001600160a01b031660001b8160008151811061147357611473612f31565b6020026020010181815250508260001b8160018151811061149657611496612f31565b6020026020010181815250506115147f74625544000000000000000000000000436f756e74657273000000000000000060001b826000856040516020016114df91815260200190565b60408051601f198184030181529190527e200100200000000000000000000000000000000000000000000000000000006119d4565b50505050565b60006115388260000151836020015184604001518560600151611a4a565b60408051600180825281830190925291925060009160609183919060208083019080368337019050509050858160008151811061157757611577612f31565b60209081029190910101526115af7f746255440000000000000000000000004f6666657273000000000000000000008286868661191f565b505050505050565b60006115da82600001518360200151846040015185606001518660800151611a7c565b60408051600180825281830190925291925060009160609183919060208083019080368337019050509050858160008151811061161957611619612f31565b60209081029190910101526115af7f74625544000000000000000000000000436f6e73696465726174696f6e7300008286868661191f565b60006102fe611ab1565b606060006060600061166b611ab1565b9050306001600160a01b0382160361169457611688878787611af0565b93509350935050611722565b6040517f419b58fd0000000000000000000000000000000000000000000000000000000081526001600160a01b0382169063419b58fd906116dd908a908a908a90600401612fbe565b600060405180830381865afa1580156116fa573d6000803e3d6000fd5b505050506040513d6000823e601f3d908101601f191682016040526116889190810190613050565b93509350939050565b60408051608081018252600080825260208201819052918101829052606081019190915261175884611bf8565b60608501819052604085018290526001600160a01b038316602086015284846003811115611788576117886129e2565b6003811115611799576117996129e2565b815250505050509392505050565b6040805160a0810182526000808252602082018190529181018290526060810182905260808101919091526117db84611c43565b6001600160a01b03808216608088015260608701839052604087018490528416602087015285856003811115611813576118136129e2565b6003811115611824576118246129e2565b81525050505050509392505050565b60008061183e611ab1565b9050306001600160a01b038216036118645761185c86868686611c9a565b915050610c34565b6040517f8c364d590000000000000000000000000000000000000000000000000000000081526001600160a01b03821690638c364d59906118af9089908990899089906004016130bd565b602060405180830381865afa1580156118cc573d6000803e3d6000fd5b505050506040513d601f19601f8201168201806040525081019061185c9190612f47565b6060838383604051602001611907939291906130ec565b60405160208183030381529060405290509392505050565b6000611929611ab1565b9050306001600160a01b0382160361194d576119488686868686611cc7565b6115af565b6040517f298314fb0000000000000000000000000000000000000000000000000000000081526001600160a01b0382169063298314fb9061199a908990899089908990899060040161315a565b600060405180830381600087803b1580156119b457600080fd5b505af11580156119c8573d6000803e3d6000fd5b50505050505050505050565b60006119de611ab1565b9050306001600160a01b038216036119fd576119488686868686611ce4565b6040517f390baae00000000000000000000000000000000000000000000000000000000081526001600160a01b0382169063390baae09061199a90899089908990899089906004016131ab565b606084848484604051602001611a639493929190613209565b6040516020818303038152906040529050949350505050565b60608585858585604051602001611a97959493929190613242565b604051602081830303815290604052905095945050505050565b7f629a4c26e296b22a8e0856e9f6ecb2d1008d7e00081111962cd175fa7488e175546000906001600160a01b031680611aeb573391505090565b919050565b6060600060606000611b0185611cf9565b9050611b0e878783611d1c565b93506000611b1b86611d55565b90508015611bed57611b2d8888611d92565b935066ffffffffffffff841667ffffffffffffffff811115611b5157611b51612a12565b6040519080825280601f01601f191660200182016040528015611b7b576020820181803683370190505b5092506020830160005b828160ff161015611bea576000611b9d8b8b84611da5565b90506000611bba888460ff166028026038011c64ffffffffff1690565b9050611bc98260008387611e25565b611bd38185612efc565b935050508080611be290613287565b915050611b85565b50505b505093509350939050565b600080600080611c0c856000016020015190565b60f81c6003811115611c2057611c206129e2565b60218601516035870151605590970151919760609190911c969550909350915050565b6000806000806000611c59866000016020015190565b60f81c6003811115611c6d57611c6d6129e2565b6021870151603588015160558901516075909901519299606092831c9991985090965091901c9350915050565b6000611429611ca98686611ef1565b60ff858116601b0360080285901c16611cc28587611f47565b611f80565b611cdd8585858585611cd88b611fd1565b612056565b5050505050565b611cdd8585611cf38487611f47565b8561238f565b60006008611d09600260206132a6565b611d1391906132b9565b9190911c919050565b606081600003611d3b57506040805160208101909152600081526108ec565b6000611d478585611ef1565b905061142981600085612633565b60006008600180611d68600260206132a6565b611d7291906132a6565b611d7c91906132a6565b611d8691906132b9565b8260ff911c1692915050565b60006108ec611da18484612656565b5490565b60008383604051602001611dba9291906132d0565b604051602081830303815290604052805190602001208260f81b7effffffffffffffffffffffffffffffffffffffffffffffffffffffffffffff19167f3b4102da22e32d82fc925482184f16c09fd4281692720b87d124aef6da48a0f1181860001c90509392505050565b8215611eac5760208310611e4f57602083048401935060208381611e4b57611e4b61330c565b0692505b8215611eac576020839003600081841015611e725750600019600884021c611e7c565b50600019600882021c5b8554600886021b818451168219821617845250818411611e9d575050611514565b50600194909401939182900391015b5b60208210611ece5783548152600190930192601f1990910190602001611ead565b8115611514576000600019600884021c8251865482191691161782525050505050565b60008282604051602001611f069291906132d0565b60408051601f1981840301815291905280516020909101207f86425bff6b57326c7859e89024fe4f238ca327a1ae4a230180dd2f0e88aaa7d9189392505050565b600080805b8360ff16811015611f7857611f6e60ff601b83900360080287901c1683612efc565b9150600101611f4c565b509392505050565b600060208210611fa657602082048401935060208281611fa257611fa261330c565b0691505b508254600882021b602082900380841115611f78576001850154600882021c82179150509392505050565b60007f8b9d8c8b908d9affffffffffffffffffab9e9d939a8d00000000000000000000820161202057507e60030220202000000000000000000000000000000000000000000000000000919050565b6102ee61204d7f746273746f72650000000000000000005461626c657300000000000000000000846126ac565b60206000611f80565b7f6f74000000000000000000000000000000000000000000000000000000000000867fffff00000000000000000000000000000000000000000000000000000000000016036120e257857f8dbb3a9672eebfd3773e72dd9c102393436816d832c7ba9e1e1ac8fcadcac7a9868686866040516120d59493929190613322565b60405180910390a26115af565b60006120ed876126c8565b905060005b81518110156121c657600082828151811061210f5761210f612f31565b6020026020010151905061213b6001826affffffffffffffffffffff191661275190919063ffffffff16565b156121bd576040517f57066c9c000000000000000000000000000000000000000000000000000000008152606082901c906357066c9c9061218a908c908c908c908c908c908c90600401613361565b600060405180830381600087803b1580156121a457600080fd5b505af11580156121b8573d6000803e3d6000fd5b505050505b506001016120f2565b50867f8dbb3a9672eebfd3773e72dd9c102393436816d832c7ba9e1e1ac8fcadcac7a9878787876040516121fd9493929190613322565b60405180910390a260006122118888611ef1565b9050600060208701905061222982600089518461276f565b600061223485611d55565b11156122b85760006122468a8a612656565b878155905060208601915060008060005b61226088611d55565b8160ff1610156122b3576122758d8d83611da5565b92506122908a8260ff166028026038011c64ffffffffff1690565b915061229f836000848861276f565b6122a98286612efc565b9450600101612257565b505050505b60005b83518110156119c85760008482815181106122d8576122d8612f31565b602002602001015190506123046002826affffffffffffffffffffff191661275190919063ffffffff16565b15612386576040517f5b28cdaf000000000000000000000000000000000000000000000000000000008152606082901c90635b28cdaf90612353908e908e908e908e908e908e90600401613361565b600060405180830381600087803b15801561236d57600080fd5b505af1158015612381573d6000803e3d6000fd5b505050505b506001016122bb565b7f6f74000000000000000000000000000000000000000000000000000000000000847fffff000000000000000000000000000000000000000000000000000000000000160361241957837f8c0b5119d4cec7b284c6b1b39252a03d1e2f2d7451a5895562524c113bb952be84848460405161240c939291906133ba565b60405180910390a2611514565b60006124258585611ef1565b90506000612432866126c8565b905060005b815181101561250757600082828151811061245457612454612f31565b602002602001015190506124806004826affffffffffffffffffffff191661275190919063ffffffff16565b156124fe576040517f964f667d000000000000000000000000000000000000000000000000000000008152606082901c9063964f667d906124cb908b908b908b908b906004016133ed565b600060405180830381600087803b1580156124e557600080fd5b505af11580156124f9573d6000803e3d6000fd5b505050505b50600101612437565b50857f8c0b5119d4cec7b284c6b1b39252a03d1e2f2d7451a5895562524c113bb952be86868660405161253c939291906133ba565b60405180910390a2612557828565ffffffffffff168561282e565b60005b815181101561262a57600082828151811061257757612577612f31565b602002602001015190506125a36008826affffffffffffffffffffff191661275190919063ffffffff16565b15612621576040517fa8ba8721000000000000000000000000000000000000000000000000000000008152606082901c9063a8ba8721906125ee908b908b908b908b906004016133ed565b600060405180830381600087803b15801561260857600080fd5b505af115801561261c573d6000803e3d6000fd5b505050505b5060010161255a565b50505050505050565b60405160208101601f19603f8484010116604052828252611f7885858584611e25565b6000828260405160200161266b9291906132d0565b60408051601f1981840301815291905280516020909101207f14e2fcc58e58e68ec7edc30c8d50dccc3ce2714a623ec81f46b6a63922d76569189392505050565b6040805160208101849052908101829052600090606001611f06565b6040805160018082528183019092526060916000919060208083019080368337019050509050828160008151811061270257612702612f31565b6020908102919091010152600061273a7f746273746f726500000000000000000053746f7265486f6f6b730000000000008383612844565b9050610c3461274c826000845161287e565b61290c565b60008160ff16826127628560581c90565b1660ff1614905092915050565b82156127e95760208310612799576020830484019350602083816127955761279561330c565b0692505b82156127e95760208390036000600019600885021c1990506008850281811c91508351811c90508119875416828216178755508184116127da575050611514565b50600194909401939182900391015b5b6020821061280b5780518455600190930192601f19909101906020016127ea565b8115611514576000600019600884021c8554835182191691161785555050505050565b6113648383835161283f8560200190565b61276f565b6060610c34612854858585611da5565b6000612879856128648989611d92565b9060ff166028026038011c64ffffffffff1690565b612633565b60008183118061288e5750835182115b156128cb578383836040517f23230fa300000000000000000000000000000000000000000000000000000000815260040161038393929190613426565b602084016128d98482612efc565b905060006128e785856132a6565b6fffffffffffffffffffffffffffffffff1660809290921b9190911795945050505050565b606060006108ec8360156000606060006129268560801c90565b90506fffffffffffffffffffffffffffffffff8516600085828161294c5761294c61330c565b04905060405193506020840160208202810160405281855260005b82811015610daa578451871c825293870193602090910190600101612967565b60006020828403121561299957600080fd5b81357fffffffff00000000000000000000000000000000000000000000000000000000811681146108ec57600080fd5b6000602082840312156129db57600080fd5b5035919050565b634e487b7160e01b600052602160045260246000fd5b6020810160038310612a0c57612a0c6129e2565b91905290565b634e487b7160e01b600052604160045260246000fd5b6040516080810167ffffffffffffffff81118282101715612a4b57612a4b612a12565b60405290565b604051601f8201601f1916810167ffffffffffffffff81118282101715612a7a57612a7a612a12565b604052919050565b803560048110611aeb57600080fd5b80356001600160a01b0381168114611aeb57600080fd5b600060a08284031215612aba57600080fd5b60405160a0810181811067ffffffffffffffff82111715612add57612add612a12565b604052905080612aec83612a82565b8152612afa60208401612a91565b60208201526040830135604082015260608301356060820152612b1f60808401612a91565b60808201525092915050565b600067ffffffffffffffff821115612b4557612b45612a12565b50601f01601f191660200190565b600082601f830112612b6457600080fd5b8135612b77612b7282612b2b565b612a51565b818152846020838601011115612b8c57600080fd5b816020850160208301376000918101602001919091529392505050565b600060208284031215612bbb57600080fd5b813567ffffffffffffffff80821115612bd357600080fd5b90830190818503610160811215612be957600080fd5b612bf1612a28565b6080821215612bff57600080fd5b612c07612a28565b9150612c1284612a82565b8252612c2060208501612a91565b60208301526040840135604083015260608401356060830152818152612c498760808601612aa8565b6020820152610120840135915082821115612c6357600080fd5b612c6f87838601612b53565b6040820152612c816101408501612a91565b60608201529695505050505050565b600082601f830112612ca157600080fd5b8135602067ffffffffffffffff821115612cbd57612cbd612a12565b8160051b612ccc828201612a51565b9283528481018201928281019087851115612ce657600080fd5b83870192505b84831015612d0557823582529183019190830190612cec565b979650505050505050565b600080600080600060a08688031215612d2857600080fd5b612d3186612a91565b9450612d3f60208701612a91565b9350604086013567ffffffffffffffff80821115612d5c57600080fd5b612d6889838a01612c90565b94506060880135915080821115612d7e57600080fd5b612d8a89838a01612c90565b93506080880135915080821115612da057600080fd5b50612dad88828901612b53565b9150509295509295909350565b60048110612dca57612dca6129e2565b9052565b612dd9828251612dba565b6001600160a01b03602082015116602083015260408101516040830152606081015160608301525050565b608081016102ee8284612dce565b600060208284031215612e2457600080fd5b6108ec82612a91565b600080600080600060a08688031215612e4557600080fd5b612e4e86612a91565b9450612e5c60208701612a91565b93506040860135925060608601359150608086013567ffffffffffffffff811115612e8657600080fd5b612dad88828901612b53565b612e9d828251612dba565b60208101516001600160a01b038082166020850152604083015160408501526060830151606085015280608084015116608085015250505050565b60a081016102ee8284612e92565b634e487b7160e01b600052601160045260246000fd5b808201808211156102ee576102ee612ee6565b8381526101408101612f246020830185612dce565b610c3460a0830184612e92565b634e487b7160e01b600052603260045260246000fd5b600060208284031215612f5957600080fd5b5051919050565b600060208284031215612f7257600080fd5b815180151581146108ec57600080fd5b60008151808452602080850194506020840160005b83811015612fb357815187529582019590820190600101612f97565b509495945050505050565b838152606060208201526000612fd76060830185612f82565b9050826040830152949350505050565b60005b83811015613002578181015183820152602001612fea565b50506000910152565b600082601f83011261301c57600080fd5b815161302a612b7282612b2b565b81815284602083860101111561303f57600080fd5b610c34826020830160208701612fe7565b60008060006060848603121561306557600080fd5b835167ffffffffffffffff8082111561307d57600080fd5b6130898783880161300b565b94506020860151935060408601519150808211156130a657600080fd5b506130b38682870161300b565b9150509250925092565b8481526080602082015260006130d66080830186612f82565b60ff949094166040830152506060015292915050565b6bffffffffffffffffffffffff198460601b168152826014820152600060038310613119576131196129e2565b5060f89190911b603482015260350192915050565b60008151808452613146816020860160208601612fe7565b601f01601f19169290920160200192915050565b85815260a06020820152600061317360a0830187612f82565b8281036040840152613185818761312e565b9050846060840152828103608084015261319f818561312e565b98975050505050505050565b85815260a0602082015260006131c460a0830187612f82565b60ff8616604084015282810360608401526131df818661312e565b9150508260808301529695505050505050565b60048110613202576132026129e2565b60f81b9052565b61321381866131f2565b60609390931b6bffffffffffffffffffffffff1916600184015260158301919091526035820152605501919050565b61324c81876131f2565b6bffffffffffffffffffffffff19606095861b811660018301526015820194909452603581019290925290921b166055820152606901919050565b600060ff821660ff810361329d5761329d612ee6565b60010192915050565b818103818111156102ee576102ee612ee6565b80820281158282048414176102ee576102ee612ee6565b8281526000602080830184516020860160005b828110156132ff578151845292840192908401906001016132e3565b5091979650505050505050565b634e487b7160e01b600052601260045260246000fd5b6080815260006133356080830187612f82565b8281036020840152613347818761312e565b90508460408401528281036060840152612d05818561312e565b86815260c06020820152600061337a60c0830188612f82565b828103604084015261338c818861312e565b905085606084015282810360808401526133a6818661312e565b9150508260a0830152979650505050505050565b6060815260006133cd6060830186612f82565b65ffffffffffff851660208401528281036040840152610ab5818561312e565b8481526080602082015260006134066080830186612f82565b65ffffffffffff851660408401528281036060840152612d05818561312e565b606081526000613439606083018661312e565b6020830194909452506040015291905056fea26469706673582212205c20e649b2fa6e37d60d1a4d7071286e41043e66f223d9972cb1a23666eb86b564736f6c63430008180033","linkReferences":{}},"methodIdentifiers":{"_msgSender()":"119df25f","_msgValue()":"45ec9354","_world()":"e1af802c","auctionHouseAddress()":"bc74f4a5","cancelOrder(bytes32)":"7489ec23","createOrder(((uint8,address,uint256,uint256),(uint8,address,uint256,uint256,address),bytes,address))":"78885da7","fulfillOrder(bytes32)":"26e5dc5d","getConsideration(bytes32)":"f8b48037","getCounter(address)":"f07ec373","getOffer(bytes32)":"d597b8c8","getOrderHash(((uint8,address,uint256,uint256),(uint8,address,uint256,uint256,address),bytes,address))":"dd5c51a7","getOrderStatus(bytes32)":"46423aa7","incrementCounter(address)":"e5910ae7","onERC1155BatchReceived(address,address,uint256[],uint256[],bytes)":"bc197c81","onERC1155Received(address,address,uint256,uint256,bytes)":"f23a6e61","supportsInterface(bytes4)":"01ffc9a7"},"id":216}