{"abi":[{"type":"function","name":"_msgSender","inputs":[],"outputs":[{"name":"sender","type":"address","internalType":"address"}],"stateMutability":"view"},{"type":"function","name":"_msgValue","inputs":[],"outputs":[{"name":"value","type":"uint256","internalType":"uint256"}],"stateMutability":"view"},{"type":"function","name":"_world","inputs":[],"outputs":[{"name":"","type":"address","internalType":"address"}],"stateMutability":"view"},{"type":"function","name":"enterGame","inputs":[{"name":"characterId","type":"bytes32","internalType":"bytes32"},{"name":"starterWeaponId","type":"uint256","internalType":"uint256"},{"name":"starterArmorId","type":"uint256","internalType":"uint256"}],"outputs":[],"stateMutability":"nonpayable"},{"type":"function","name":"getCharacterIdFromOwnerAddress","inputs":[{"name":"ownerAddress","type":"address","internalType":"address"}],"outputs":[{"name":"","type":"bytes32","internalType":"bytes32"}],"stateMutability":"view"},{"type":"function","name":"getOwner","inputs":[{"name":"characterId","type":"bytes32","internalType":"bytes32"}],"outputs":[{"name":"","type":"address","internalType":"address"}],"stateMutability":"view"},{"type":"function","name":"getOwnerAddress","inputs":[{"name":"characterId","type":"bytes32","internalType":"bytes32"}],"outputs":[{"name":"","type":"address","internalType":"address"}],"stateMutability":"pure"},{"type":"function","name":"isValidCharacterId","inputs":[{"name":"characterId","type":"bytes32","internalType":"bytes32"}],"outputs":[{"name":"","type":"bool","internalType":"bool"}],"stateMutability":"view"},{"type":"function","name":"isValidOwner","inputs":[{"name":"characterId","type":"bytes32","internalType":"bytes32"},{"name":"owner","type":"address","internalType":"address"}],"outputs":[{"name":"","type":"bool","internalType":"bool"}],"stateMutability":"view"},{"type":"function","name":"mintCharacter","inputs":[{"name":"account","type":"address","internalType":"address"},{"name":"name","type":"bytes32","internalType":"bytes32"},{"name":"tokenUri","type":"string","internalType":"string"}],"outputs":[{"name":"characterId","type":"bytes32","internalType":"bytes32"}],"stateMutability":"nonpayable"},{"type":"function","name":"supportsInterface","inputs":[{"name":"interfaceId","type":"bytes4","internalType":"bytes4"}],"outputs":[{"name":"","type":"bool","internalType":"bool"}],"stateMutability":"pure"},{"type":"event","name":"Store_SetRecord","inputs":[{"name":"tableId","type":"bytes32","indexed":true,"internalType":"ResourceId"},{"name":"keyTuple","type":"bytes32[]","indexed":false,"internalType":"bytes32[]"},{"name":"staticData","type":"bytes","indexed":false,"internalType":"bytes"},{"name":"encodedLengths","type":"bytes32","indexed":false,"internalType":"EncodedLengths"},{"name":"dynamicData","type":"bytes","indexed":false,"internalType":"bytes"}],"anonymous":false},{"type":"event","name":"Store_SpliceDynamicData","inputs":[{"name":"tableId","type":"bytes32","indexed":true,"internalType":"ResourceId"},{"name":"keyTuple","type":"bytes32[]","indexed":false,"internalType":"bytes32[]"},{"name":"dynamicFieldIndex","type":"uint8","indexed":false,"internalType":"uint8"},{"name":"start","type":"uint48","indexed":false,"internalType":"uint48"},{"name":"deleteCount","type":"uint40","indexed":false,"internalType":"uint40"},{"name":"encodedLengths","type":"bytes32","indexed":false,"internalType":"EncodedLengths"},{"name":"data","type":"bytes","indexed":false,"internalType":"bytes"}],"anonymous":false},{"type":"event","name":"Store_SpliceStaticData","inputs":[{"name":"tableId","type":"bytes32","indexed":true,"internalType":"ResourceId"},{"name":"keyTuple","type":"bytes32[]","indexed":false,"internalType":"bytes32[]"},{"name":"start","type":"uint48","indexed":false,"internalType":"uint48"},{"name":"data","type":"bytes","indexed":false,"internalType":"bytes"}],"anonymous":false},{"type":"error","name":"CharacterLocked","inputs":[]},{"type":"error","name":"EncodedLengths_InvalidLength","inputs":[{"name":"length","type":"uint256","internalType":"uint256"}]},{"type":"error","name":"GamePaused","inputs":[]},{"type":"error","name":"InsufficientStat","inputs":[]},{"type":"error","name":"InvalidAccount","inputs":[]},{"type":"error","name":"InvalidArmorType","inputs":[]},{"type":"error","name":"InvalidItemType","inputs":[]},{"type":"error","name":"InvalidStarterItem","inputs":[]},{"type":"error","name":"InvalidTokenUri","inputs":[]},{"type":"error","name":"NameTaken","inputs":[]},{"type":"error","name":"Slice_OutOfBounds","inputs":[{"name":"data","type":"bytes","internalType":"bytes"},{"name":"start","type":"uint256","internalType":"uint256"},{"name":"end","type":"uint256","internalType":"uint256"}]},{"type":"error","name":"Store_IndexOutOfBounds","inputs":[{"name":"length","type":"uint256","internalType":"uint256"},{"name":"accessedIndex","type":"uint256","internalType":"uint256"}]},{"type":"error","name":"Store_InvalidResourceType","inputs":[{"name":"expected","type":"bytes2","internalType":"bytes2"},{"name":"resourceId","type":"bytes32","internalType":"ResourceId"},{"name":"resourceIdString","type":"string","internalType":"string"}]},{"type":"error","name":"Store_InvalidSplice","inputs":[{"name":"startWithinField","type":"uint40","internalType":"uint40"},{"name":"deleteCount","type":"uint40","internalType":"uint40"},{"name":"fieldLength","type":"uint40","internalType":"uint40"}]},{"type":"error","name":"Unauthorized","inputs":[]}],"bytecode":{"object":"0x6080806040523461001757615f6c90816200001c8239f35b5f80fdfe60806040526004361015610011575f80fd5b5f3560e01c8062d43ec6146100c357806301ffc9a7146100be57806306a3432f146100b9578063119df25f146100b4578063143f3021146100af57806345ec9354146100aa578063623daa05146100a55780639b63ec05146100a0578063deb931a21461009b578063e1af802c146100965763e3dc55d814610091575f80fd5b61031f565b610305565b6102e7565b6102b2565b610271565b610252565b6101db565b6101af565b610153565b6100e7565b346100e35760203660031901126100e357602060405160043560601c8152f35b5f80fd5b346100e35760203660031901126100e35760043563ffffffff60e01b81168091036100e35760209063b5dee12760e01b811490811561012c575b506040519015158152f35b6301ffc9a760e01b1490505f610121565b600435906001600160a01b03821682036100e357565b346100e35760203660031901126100e35761016c61013d565b610174610b60565b908151156101a0576001600160a01b03166020828101919091529061019890611a00565b604051908152f35b610a3a565b5f9103126100e357565b346100e3575f3660031901126100e35760206101c9610bab565b6040516001600160a01b039091168152f35b346100e35760603660031901126100e3576101f461013d565b6044356001600160401b038082116100e357366023830112156100e35781600401359081116100e35736602482840101116100e35761024e92602461023e9301906024359061088d565b6040519081529081906020820190565b0390f35b346100e3575f3660031901126100e3576020604051601f193601358152f35b346100e35760203660031901126100e3576020600435606081901c906001600160a01b03906102a8906001600160601b03166112b6565b1614604051908152f35b346100e35760403660031901126100e3576001600160a01b03602435818116908190036100e3576020916102a86004356112d9565b346100e35760203660031901126100e35760206101c96004356112d9565b346100e3575f3660031901126100e35760206101c9612311565b346100e35760603660031901126100e35760443560048035602435610342610bc2565b61034b826112d9565b610362610356610bab565b6001600160a01b031690565b6001600160a01b03918216036106da57606083901c9061038a6001600160601b0385166112b6565b16036106c95761039982611336565b9260608401946103a98651151590565b6106b9576103b6846114b6565b926103c76103c3826115fc565b1590565b6106a8576103d76103c3836115fc565b6106a8576103e481611619565b6103ed816109cc565b610697576103fa82611619565b610403816109cc565b60018091036106865761041582611673565b938551946040958682015113610677576020870191825182511361065a576060880191602083519101511361065a5761044d86611673565b8851888201511361066857835181511361066857602083519101511361065a57610476866116cf565b90610480826109db565b811561064c5750610495816101408a016109e5565b61049e816109db565b600181036105d557506104b181516109f1565b90526104bd8151610a0d565b90526104c98551610a29565b85525b600160e0860152608085015160a08601526104e785876116f8565b60208701516001600160a01b031661050f61050961050483610e22565b6106fe565b82610e72565b610519838261179c565b610523848261179c565b61052b611886565b6105336118a9565b905f845b610597575b50505050509161056a61059597610564610577969461055e610585978a6118bf565b88611939565b60019052565b5192839160208301610aa7565b03601f1981018352826107e8565b8060a08401526080830152611077565b005b81518110156105d0579084826105c66105b38397969585610a5b565b516105be8387610a5b565b519087611837565b0190919293610537565b61053c565b90506105e0816109db565b6002810361060657506105f381516109f1565b90526105ff8551610a0d565b85526104cc565b806106126003926109db565b1461061e575b506104cc565b61062886516109f1565b8652608086016106388151610a0d565b90526106448151610a29565b90525f610618565b875163071b98e760e41b8152fd5b865163b8bad4c160e01b8152fd5b50865163b8bad4c160e01b8152fd5b50845163b8bad4c160e01b8152fd5b604051631e4cbc7f60e21b81528490fd5b604051631e4cbc7f60e21b81528390fd5b6040516302b9390f60e51b81528390fd5b5060405163130fd36b60e11b8152fd5b604051630da30f6560e31b81528390fd5b6040516282b42960e81b81528490fd5b634e487b7160e01b5f52601160045260245ffd5b9068056bc75e2d63100000820180921161071457565b6106ea565b906001820180921161071457565b9190820180921161071457565b634e487b7160e01b5f52604160045260245ffd5b6001600160401b03811161075b57604052565b610734565b602081019081106001600160401b0382111761075b57604052565b604081019081106001600160401b0382111761075b57604052565b606081019081106001600160401b0382111761075b57604052565b608081019081106001600160401b0382111761075b57604052565b61012081019081106001600160401b0382111761075b57604052565b601f909101601f19168101906001600160401b0382119082101761075b57604052565b6040519060c082016001600160401b0381118382101761075b57604052565b6001600160401b03811161075b57601f01601f191660200190565b9291926108518261082a565b9161085f60405193846107e8565b8294818452818301116100e3578281602093845f960137010152565b6040519061088882610760565b5f8252565b93929193610899610bc2565b6001600160a01b038116156109a65781156109a6578215610994576108bd82610bed565b610982576109809261097b916108da6108d530610c10565b610719565b906108e58230610c4a565b6108ef8183610d4f565b6109046108fe6108d583610e4a565b82610f1b565b606081901b6001600160601b031916821797889361092d91610927913691610845565b83610fc9565b61097661093861080b565b8381526001600160a01b03831660208201528660408201525f606082015261095e61087b565b608082015261096b61087b565b60a082015284611077565b611105565b6111f0565b565b604051639e4b268560e01b8152600490fd5b6040516308848e7f60e31b8152600490fd5b604051630da30f6560e31b8152600490fd5b634e487b7160e01b5f52602160045260245ffd5b600611156109d657565b6109b8565b600411156109d657565b6109ee826109db565b52565b9060028201915f60028412911290801582169115161761071457565b9060018201915f60018412911290801582169115161761071457565b905f19820191821360011661071457565b634e487b7160e01b5f52603260045260245ffd5b8051156101a05760200190565b80518210156101a05760209160051b010190565b600311156109d657565b9060038210156109d65752565b906109ee826109db565b600a11156109d657565b90600a8210156109d65752565b610980909291926101a08101938051825260208101516020830152610ad460408201516040840190610a79565b606081015160608301526080810151608083015260a081015160a083015260c081015160c083015260e081015160e0830152610b196101008083015190840190610a86565b610b2c6101208083015190840190610a86565b610b3f6101408083015190840190610a86565b610b526101608083015190840190610a9a565b610180908101511515910152565b60405190610b6d8261077b565b6001825260203681840137565b604051610b8681610760565b5f8152905f368137565b60405190610b9d82610796565b600282526040366020840137565b36603319013560601c908115610bbd57565b339150565b610bd2610bcd610b7a565b611ab4565b60f81c610bdb57565b60405163379a7ed960e01b8152600490fd5b610bf5610b60565b8051156101a057610c0a916020820152611b42565b60f81c90565b610c18610b90565b908151156101a0576001600160a01b031660208201528051600110156101a057805f6040610c47930152611bac565b90565b90610c53610b90565b805190926001600160a01b0391156101a057811660208401528251600110156101a0575f604084015260405191602083015260208252610c928261077b565b610c9a612311565b1691308303610cad576109809250612d58565b90823b156100e3576040516301c85d5760e51b815267436f756e7465727360401b631d18955160e21b01600482015260a06024820152925f928492839185918391610d199190610d019060a48501906119c2565b90846044850152600319848303016064850152612098565b630100080160dd1b608483015203925af18015610d4a57610d375750565b80610d4461098092610748565b806101a5565b6119f5565b90610d58610b60565b918251156101a05760208301526040519060018060601b03199060601b16602082015260148152610d888161077b565b6001600160a01b03610d98612311565b1691308303610dab576109809250612ef1565b90823b156100e3576040516301c85d5760e51b815275746243686172616374657273000000004f776e65727360501b600482015260a06024820152925f928492839185918391610e049190610d019060a48501906119c2565b630500400560da1b608483015203925af18015610d4a57610d375750565b610e2a610b60565b8051156101a0576001600160a01b039091166020820152610c4790611c3c565b610e52610b60565b8051156101a0576001600160a01b039091166020820152610c4790611ca6565b90610e7b610b60565b805190926001600160a01b0391156101a0578116602084015260405191602083015260208252610eaa8261077b565b610eb2612311565b1691308303610ec55761098092506148f6565b90823b156100e3576040516301c85d5760e51b81526742616c616e63657360401b651d1891dbdb1960d21b01600482015260a06024820152925f928492839185918391610d199190610d019060a48501906119c2565b90610f24610b60565b805190926001600160a01b0391156101a0578116602084015260405191602083015260208252610f538261077b565b610f5b612311565b1691308303610f6e576109809250614a6e565b90823b156100e3576040516301c85d5760e51b8152777462436861726163746572730000000042616c616e63657360401b600482015260a06024820152925f928492839185918391610d199190610d019060a48501906119c2565b90610fd2610b60565b918251156101a05760208301526001600160a01b03610fef612311565b16913083036110025761098092506131d0565b90823b156100e3576040516377b7543160e11b81527774624368617261637465727300000000546f6b656e55524960401b600482015260806024820152925f92849283918591839161105d9190610d019060848501906119c2565b03925af18015610d4a5761106e5750565b61098090610748565b9061098091815160208301516040840151606085015115159160405193602085015260018060601b03199060601b166040840152605483015260f81b6074820152605581526110c5816107b1565b60a06080840151930151926110de8151948051926121b5565b936110e7610b60565b936110f185610a4e565b528160601b918160381b91011717916121f3565b909160405192602084015260408301526040825261112282610796565b61112a610b60565b805190916001600160a01b0391156101a0578116602083015261114b612311565b1630810361115e5750906109809161340b565b90813b156100e3575f916111b7836111ca936111df6040519788968795869463298314fb60e01b86526f4368617261637465724f776e65720000631d18955160e21b01600487015260a0602487015260a48601906119c2565b6003199283868303016044870152612098565b9084606485015283820301608484015261205b565b03925af18015610d4a57610d375750565b6111f8610b60565b908151156101a0576020820152604051600160f81b60208201526001815261121f8161077b565b6001600160a01b0361122f612311565b1691308303611242576109809250613060565b90823b156100e3576040516301c85d5760e51b8152694e616d6545786973747360301b631d18955160e21b01600482015260a06024820152925f9284928391859183916112989190610d019060a48501906119c2565b630101000160d81b608483015203925af18015610d4a57610d375750565b6112be610b60565b8051156101a0576112d3916020820152611d7e565b60601c90565b6112e1610b60565b8051156101a0576112d3916020820152611e17565b6040519060c082016001600160401b0381118382101761075b57604052606060a0835f81525f60208201525f60408201525f838201528260808201520152565b61133e6112f6565b50611347610b60565b8051156101a05761135c9160208201526123d0565b6113646112f6565b926020810151906040810151906074605482015191015160f81c15156060870152604086015260601c6020850152835264ffffffffff808360381c16906113b36113ae83856127f0565b6151f0565b9360601c16810191828211801561143c575b611407579081602082819401019283910111610714578203918211610714576113fa9160018060801b03169060801b176151f0565b60a0830152608082015290565b6040516323230fa360e01b8152606060048201529283929161142d906064850190612098565b91602484015260448301520390fd5b50805183116113c5565b604051906101a082016001600160401b0381118382101761075b576040525f610180838281528260208201528260408201528260608201528260808201528260a08201528260c08201528260e0820152826101008201528261012082015282610140820152826101608201520152565b6114be611446565b506114c7610b60565b8051156101a0576114dc91602082015261248d565b50506114e6611446565b906020810151906115f260408201519161150c611507606083015160f81c90565b613c78565b9060618101519060818101519060a18101519060c1810151906115d08a6115c660e18401519361012061154c61154761010184015160f81c90565b6116c3565b936115c061156261154761010286015160f81c90565b936115b661157861154761010384015160f81c90565b916115ac6115a261010561159961159461010486015160f81c90565b613c87565b93015160f81c90565b1515610180870152565b61016085016125bb565b61014083016109e5565b016109e5565b6101008c016109e5565b60e08a015260c089015260a088015260808701526060860152604085016125c7565b6020830152815290565b611604610b60565b8051156101a057610c0a916020820152611ea4565b611621610b60565b8051156101a057611636916020820152611f11565b60f81c60068110156109d65790565b60405190606082016001600160401b0381118382101761075b576040525f6040838281528260208201520152565b61167b611645565b50611684610b60565b8051156101a057611699916020820152612525565b50506116a3611645565b906020810151906060604082015191015160408401526020830152815290565b60ff16610c47816109db565b6116d7610b60565b8051156101a0576116ec916020820152611fa1565b60f81c610c47816109db565b611783610980926117768151916020810151604082015161171881610a6f565b6060830151608084015160a085015160c08601519160e08701519361010088015195611743876109db565b61012089015197611753896109db565b61177d6101806101408c01519b6117698d6109db565b6101608101519d8e610a90565b0151151590565b9b6125f3565b9061178c610b60565b9061179682610a4e565b52612297565b6117a4610b90565b80516001600160a01b0390921691156101a0578160208201528051600110156101a057808360406117d6930152611d15565b9060018201809211610714576117ea610b90565b908151156101a05760208201528051600110156101a057611832611824926109809460408401526040519384916020830160209181520190565b03601f1981018452836107e8565b6120bd565b919091611842610b90565b80516001600160a01b0390921691156101a0578160208201528051600110156101a05780846040611874930152611d15565b918201809211610714576117ea610b90565b610c476118a461189c611897610b7a565b6126b8565b8051906127f0565b613d18565b610c476118a461189c6118ba610b7a565b61275b565b906118c8610b60565b918251156101a0576020830152604051906020820152602081526118eb8161077b565b6001600160a01b036118fb612311565b169130830361190e576109809250613d6d565b90823b156100e35761105d925f9283604051809681958294630a87993160e11b845260048401612136565b90611942610b60565b918251156101a0576020830152604051906020820152602081526119658161077b565b6001600160a01b03611975612311565b1691308303611988576109809250613fbd565b90823b156100e35761105d925f9283604051809681958294630a87993160e11b845260048401612176565b908160209103126100e3575190565b9081518082526020808093019301915f5b8281106119e1575050505090565b8351855293810193928101926001016119d3565b6040513d5f823e3d90fd5b6001600160a01b03611a10612311565b16308103611a225750610c4790612845565b604051638c364d5960e01b81525f80516020615f0c83398151915260048201526080602482015291602091839182908190611a619060848301906119c2565b6001604483015264020010010160d51b606483015203915afa908115610d4a575f91611a8b575090565b610c47915060203d602011611aad575b611aa581836107e8565b8101906119b3565b503d611a9b565b6001600160a01b03611ac4612311565b16308103611ad65750610c47906128ea565b604051638c364d5960e01b81526514185d5cd95960521b631d18955160e21b0160048201526080602482015291602091839182908190611b1a9060848301906119c2565b5f6044830152630101000160d81b606483015203915afa908115610d4a575f91611a8b575090565b6001600160a01b03611b52612311565b16308103611b645750610c4790612962565b604051638c364d5960e01b8152694e616d6545786973747360301b631d18955160e21b0160048201526080602482015291602091839182908190611b1a9060848301906119c2565b6001600160a01b03611bbc612311565b16308103611bce5750610c47906129c8565b604051638c364d5960e01b815267436f756e7465727360401b631d18955160e21b0160048201526080602482015291602091839182908190611c149060848301906119c2565b5f6044830152630100080160dd1b606483015203915afa908115610d4a575f91611a8b575090565b6001600160a01b03611c4c612311565b16308103611c5e5750610c4790612a2c565b604051638c364d5960e01b81526742616c616e63657360401b651d1891dbdb1960d21b0160048201526080602482015291602091839182908190611c149060848301906119c2565b6001600160a01b03611cb6612311565b16308103611cc85750610c4790612a92565b604051638c364d5960e01b8152777462436861726163746572730000000042616c616e63657360401b60048201526080602482015291602091839182908190611c149060848301906119c2565b6001600160a01b03611d25612311565b16308103611d375750610c4790612af2565b604051638c364d5960e01b8152654f776e65727360501b6674624974656d7360c81b0160048201526080602482015291602091839182908190611c149060848301906119c2565b6001600160a01b03611d8e612311565b16308103611da45750611da090614607565b5490565b604051638c364d5960e01b815275746243686172616374657273000000004f776e65727360501b60048201526080602482015291602091839182908190611def9060848301906119c2565b5f6044830152630500400560da1b606483015203915afa908115610d4a575f91611a8b575090565b6001600160a01b03611e27612311565b16308103611e395750610c4790612b57565b604051638c364d5960e01b81525f80516020615f4c83398151915260048201526080602482015291602091839182908190611e789060848301906119c2565b60016044830152665504022014200160c01b606483015203915afa908115610d4a575f91611a8b575090565b6001600160a01b03611eb4612311565b16308103611ec65750610c4790612bf1565b604051638c364d5960e01b81526f537461727465724974656d506f6f6c00631d18955160e21b0160048201526080602482015291602091839182908190611b1a9060848301906119c2565b6001600160a01b03611f21612311565b16308103611f335750610c4790612c5a565b604051638c364d5960e01b8152644974656d7360581b631d18955160e21b0160048201526080602482015291602091839182908190611f769060848301906119c2565b5f6044830152660308200809010160c51b606483015203915afa908115610d4a575f91611a8b575090565b6001600160a01b03611fb1612311565b16308103611fc35750610c4790612cbb565b604051638c364d5960e01b81526941726d6f72537461747360301b631d18955160e21b016004820152608060248201529160209183918290819061200b9060848301906119c2565b6006604483015269c107002020202020200160a81b606483015203915afa908115610d4a575f91611a8b575090565b5f5b83811061204b5750505f910152565b818101518382015260200161203c565b90606051918281525f5b8381106120845750825f602080949584010152601f8019910116010190565b806020916080015182828501015201612065565b906020916120b18151809281855285808601910161203a565b601f01601f1916010190565b906001600160a01b036120ce612311565b16913083036120e1576109809250614bd4565b90823b156100e3576040516301c85d5760e51b8152654f776e65727360501b6674624974656d7360c81b01600482015260a06024820152925f928492839185918391610d199190610d019060a48501906119c2565b5f80516020615f2c8339815191528152608060208201819052610c47939192612161918401906119c2565b91600160408201526060818403910152612098565b5f80516020615f2c8339815191528152608060208201819052610c479391926121a1918401906119c2565b915f60408201526060818403910152612098565b6020610c479160405193816121d3869351809286808701910161203a565b82016121e78251809386808501910161203a565b010380845201826107e8565b909291906001600160a01b03612207612311565b1630810361221a57509261098093613619565b909192813b156100e35760405163298314fb60e01b81525f80516020615f4c833981519152600482015260a06024820152945f9486948593879385936111df9390929190612283906122709060a48801906119c2565b6003199283888303016044890152612098565b926064860152848303016084850152612098565b6001600160a01b036122a7612311565b163081036122ba57509061098091613870565b90813b156100e35760405163298314fb60e01b815264537461747360581b631d18955160e21b01600482015260a06024820152925f92849290918391859183916111df91906111ca906111b79060a48601906119c2565b7f629a4c26e296b22a8e0856e9f6ecb2d1008d7e00081111962cd175fa7488e175546001600160a01b031680610c4757503390565b81601f820112156100e357805161235c8161082a565b9261236a60405194856107e8565b818452602082840101116100e357610c47916020808501910161203a565b90916060828403126100e35781516001600160401b0392908381116100e357846123b3918301612346565b9360208201519360408301519081116100e357610c479201612346565b6001600160a01b036123e0612311565b163081036123f957506123f290613a9a565b9192909190565b60405163419b58fd60e01b81525f80516020615f4c83398151915260048201526060602482015292915f918491829081906124389060648301906119c2565b665504022014200160c01b604483015203915afa908115610d4a575f80935f93612463575b50929190565b9193505061248391503d805f833e61247b81836107e8565b810190612388565b929092915f61245d565b6001600160a01b0361249d612311565b163081036124af57506123f290613b74565b60405163419b58fd60e01b815264537461747360581b631d18955160e21b0160048201526060602482015292915f918491829081906124f29060648301906119c2565b6fe60d002020012020202020010101010160781b604483015203915afa908115610d4a575f80935f936124635750929190565b6001600160a01b03612535612311565b1630810361254757506123f290613bee565b60405163419b58fd60e01b81526f537461745265737472696374696f6e73631d18955160e21b0160048201526060602482015292915f918491829081906125929060648301906119c2565b6503001801010160cd1b604483015203915afa908115610d4a575f80935f936124635750929190565b600a8210156109d65752565b60038210156109d65752565b6125dc816109db565b60f81b9052565b600a8110156109d65760f81b9052565b9060209c9a969b9892979199949395996040519d8e015260408d015260038710156109d6576126869a6126799960a18e612658966126639961266e9c60f81b606084015260618301526081820152015260c18d015260e18c01526101018b01906125d3565b6101028901906125d3565b6101038701906125d3565b6101048501906125e3565b151560f81b610105830152565b60e68152610c47816107cc565b906020828203126100e35781516001600160401b0381116100e357610c479201612346565b6001600160a01b036126c8612311565b163081036126da5750610c4790613c96565b604051631e78897760e01b81526f53746172746572436f6e73756d61626c631d18955160e21b01600482015260606024820152915f918391829081906127249060648301906119c2565b85604483015203915afa908115610d4a575f9161273f575090565b610c4791503d805f833e61275381836107e8565b810190612693565b6001600160a01b0361276b612311565b1630810361277d5750610c4790613cdc565b604051631e78897760e01b81526f53746172746572436f6e73756d61626c631d18955160e21b01600482015260606024820152915f918391829081906127c79060648301906119c2565b6001604483015203915afa908115610d4a575f9161273f575090565b9190820391821161071457565b908151811161280f576001600160801b031660209190910160801b1790565b6040516323230fa360e01b81526060600482015292508291612835906064840190612098565b905f602484015260448301520390fd5b60405161285a81610577602082019485614201565b5190205f80516020615e4c833981519152185f905f5b600181106128c35750818160208210156128ad575b505080548260031b1b9160200390816020116128a057505090565b600101549060031b1c1790565b90809350601f925060051c019116905f80612885565b9160ff64020010010160d51b84601b0360031b1c1681018091116107145791600101612870565b60405160208160208101936514185d5cd95960521b631d18955160e21b0185526040820160208251919201935f5b82811061294b57505050612935925003601f1981018352826107e8565b5190205f80516020615e4c833981519152185490565b855184529481019486945092810192600101612918565b6040516020816020810193694e616d6545786973747360301b631d18955160e21b0185526040820160208251919201935f5b8281106129b157505050612935925003601f1981018352826107e8565b855184529481019486945092810192600101612994565b604051602081602081019367436f756e7465727360401b631d18955160e21b0185526040820160208251919201935f5b828110612a1557505050612935925003601f1981018352826107e8565b8551845294810194869450928101926001016129f8565b60405160208160208101936742616c616e63657360401b651d1891dbdb1960d21b0185526040820160208251919201935f5b828110612a7b57505050612935925003601f1981018352826107e8565b855184529481019486945092810192600101612a5e565b60405160208160208101935f80516020615e6c83398151915260401b85526040820160208251919201935f5b828110612adb57505050612935925003601f1981018352826107e8565b855184529481019486945092810192600101612abe565b6040516020816020810193654f776e65727360501b6674624974656d7360c81b0185526040820160208251919201935f5b828110612b4057505050612935925003601f1981018352826107e8565b855184529481019486945092810192600101612b23565b604051612b6c81610577602082019485614240565b5190205f80516020615e4c833981519152185f905f5b60018110612bc8575081816020821015612bb2575b505080548260031b1b9160200390816014116128a057505090565b90809350601f925060051c019116905f80612b97565b9160ff665504022014200160c01b84601b0360031b1c1681018091116107145791600101612b82565b60405160208160208101936f537461727465724974656d506f6f6c00631d18955160e21b0185526040820160208251919201935f5b828110612c4357505050612935925003601f1981018352826107e8565b855184529481019486945092810192600101612c26565b6040516020816020810193644974656d7360581b631d18955160e21b0185526040820160208251919201935f5b828110612ca457505050612935925003601f1981018352826107e8565b855184529481019486945092810192600101612c87565b604051612cd08161057760208201948561427f565b5190205f80516020615e4c833981519152185f905f5b60068110612d2c575081816020821015612d16575b505080548260031b1b9160200390816001116128a057505090565b90809350601f925060051c019116905f80612cfb565b9160ff69c107002020202020200160a81b84601b0360031b1c1681018091116107145791600101612ce6565b9190612d63836144e9565b91612d6c6153cd565b905f5b8251811015612e1357612da3612d96612d888386610a5b565b516001600160581b03191690565b6001600160581b03191690565b9060049182808260581c1614612dbf575b506001915001612d6f565b60601c803b156100e357855f918983612ded966040519788958694859363964f667d60e01b855284016147c6565b03925af1918215610d4a5760019215612db45780610d44612e0d92610748565b5f612db4565b5060408051919490939291612e5d91849167436f756e7465727360401b631d18955160e21b01905f80516020615e2c8339815191529080612e55868d8361479b565b0390a2615a5f565b5f5b8151811015612ee957612e78612d96612d888385610a5b565b6008808260581c1614612e8f575b50600101612e5f565b60601c90813b156100e357845163a8ba872160e01b8152915f908390818381612ebc8a8e600484016147c6565b03925af1918215610d4a57600192612ed6575b5090612e86565b80610d44612ee392610748565b5f612ecf565b505050509050565b9190612efc83614607565b91612f056157b8565b905f5b8251811015612f9157612f21612d96612d888386610a5b565b9060049182808260581c1614612f3d575b506001915001612f08565b60601c803b156100e357855f918983612f6b966040519788958694859363964f667d60e01b8552840161482c565b03925af1918215610d4a5760019215612f325780610d44612f8b92610748565b5f612f32565b50929190612fd4826040946040515f80516020615e2c83398151915275746243686172616374657273000000004f776e65727360501b9180612e55868d8361479b565b5f5b8151811015612ee957612fef612d96612d888385610a5b565b6008808260581c1614613006575b50600101612fd6565b60601c90813b156100e357845163a8ba872160e01b8152915f9083908183816130338a8e6004840161482c565b03925af1918215610d4a5760019261304d575b5090612ffd565b80610d4461305a92610748565b5f613046565b919061306b83614562565b91613074615472565b905f5b825181101561310057613090612d96612d888386610a5b565b9060049182808260581c16146130ac575b506001915001613077565b60601c803b156100e357855f9189836130da966040519788958694859363964f667d60e01b855284016147f8565b03925af1918215610d4a57600192156130a15780610d446130fa92610748565b5f6130a1565b5060408051919490939291613144918491694e616d6545786973747360301b631d18955160e21b01905f80516020615e2c8339815191529080612e55868d8361479b565b5f5b8151811015612ee95761315f612d96612d888385610a5b565b6008808260581c1614613176575b50600101613146565b60601c90813b156100e357845163a8ba872160e01b8152915f9083908183816131a38a8e600484016147f8565b03925af1918215610d4a576001926131bd575b509061316d565b80610d446131ca92610748565b5f6131b6565b9190916131dc81615b9c565b5464ffffffffff8160381c166131fd6131f582806127e3565b865190610727565b81811415949085806133ec575b6133bc576132189084615bf0565b90613221615519565b915f5b83518110156132b35761323d612d96612d888387610a5b565b6010808260581c1614613254575b50600101613224565b60601c90813b156100e3575f878b9388838c61328660405198899687958694630abd6b4560e31b865260048601614d74565b03925af1918215610d4a576001926132a0575b509061324b565b80610d446132ad92610748565b5f613299565b5093509491906040926040515f80516020615e0c8339815191527774624368617261637465727300000000546f6b656e55524960401b91806132f88c8a898d85614ea0565b0390a26133ac575b6133128761330d876150d1565b615a50565b5f5b81518110156133a25761332d612d96612d888385610a5b565b6020808260581c1614613344575b50600101613314565b60601c90813b156100e3575f868a9386838b6133758b5198899687958694636358453360e01b865260048601614d74565b03925af1918215610d4a5760019261338f575b509061333b565b80610d4461339c92610748565b5f613388565b5050505050509050565b836133b686615b9c565b55613300565b604051632994042d60e21b81525f600482015264ffffffffff8416602482018190526044820152606490fd5b0390fd5b50826134046133fa82614d43565b64ffffffffff1690565b141561320a565b60408051655461626c657360501b66746273746f726560c81b01602082019081525f80516020615f0c833981519152828401819052838352929592949161345181610796565b5190205f80516020615e4c83398151915218549161346d6155c5565b905f5b82518110156134fb57613489612d96612d888386610a5b565b6001808260581c16146134a0575b50600101613470565b60601c90813b156100e35788516315c19b2760e21b8152915f9083908183816134ce8c8c8f60048501614fd9565b03925af1918215610d4a576001926134e8575b5090613497565b80610d446134f592610748565b5f6134e1565b50945f80516020615e8c833981519152875180613519868983614f6f565b0390a2613534613528856145c8565b83516020850191615d0f565b60ff808460e01c16806135da575b50505f5b81518110156135d15761355f612d96612d888385610a5b565b6002808260581c1614613576575b50600101613546565b60601c90813b156100e3578751635b28cdaf60e01b8152915f9083908183816135a48b8b8e60048501614fd9565b03925af1918215610d4a576001926135be575b509061356d565b80610d446135cb92610748565b5f6135b7565b50505050509050565b5f6135e487615bb1565b555f60805b82848316106135f9575050613542565b600181613610869361360b868d615181565b615cda565b920116906135e9565b60408051655461626c657360501b66746273746f726560c81b01602082019081525f80516020615f4c8339815191528284018190528383529697929594929161366181610796565b5190205f80516020615e4c83398151915218549061367d61566f565b905f5b825181101561371057613699612d96612d888386610a5b565b6001808260581c16146136b0575b50600101613680565b60601c90813b156100e3575f888c9388838b6136e38f8c9051998a97889687956315c19b2760e21b87526004870161503c565b03925af1918215610d4a576001926136fd575b50906136a7565b80610d4461370a92610748565b5f6136f6565b50965f80516020615e8c8339815191528751806137308c8a898b85614fab565b0390a261374b61373f856145dd565b84516020860191615d0f565b60ff808360e01c16806137f7575b50505f5b81518110156137ec57613776612d96612d888385610a5b565b6002808260581c161461378d575b5060010161375d565b60601c90813b156100e3575f878b9387838a6137bf8a8f51998a9788968795635b28cdaf60e01b87526004870161503c565b03925af1918215610d4a576001926137d9575b5090613784565b80610d446137e692610748565b5f6137d2565b505050505050509050565b969098929594938561380b869a949a615bc6565b555f96602085015b8b8916908a82101561385d576138548d928261384f60019464ffffffffff8f8f908f9061383f916151a6565b956028026038011c168094615d0f565b610727565b99011697613813565b5050939950939495509550955f80613759565b60408051655461626c657360501b66746273746f726560c81b016020820190815264537461747360581b631d18955160e21b0182840181905283835292959294916138ba81610796565b5190205f80516020615e4c8339815191521854916138d6615716565b905f5b8251811015613964576138f2612d96612d888386610a5b565b6001808260581c1614613909575b506001016138d9565b60601c90813b156100e35788516315c19b2760e21b8152915f9083908183816139378c8c8f60048501615098565b03925af1918215610d4a57600192613951575b5090613900565b80610d4461395e92610748565b5f61394a565b50945f80516020615e8c833981519152875180613982868983614f6f565b0390a2613991613528856145f2565b60ff808460e01c1680613a2e575b50505f5b81518110156135d1576139bc612d96612d888385610a5b565b6002808260581c16146139d3575b506001016139a3565b60601c90813b156100e3578751635b28cdaf60e01b8152915f908390818381613a018b8b8e60048501615098565b03925af1918215610d4a57600192613a1b575b50906139ca565b80610d44613a2892610748565b5f613a14565b5f613a3887615bdb565b555f60805b8284831610613a4d57505061399f565b600181613a5f869361360b868d6151cb565b92011690613a3d565b90613a728261082a565b613a7f60405191826107e8565b8281528092613a90601f199161082a565b0190602036910137565b613aab613aa6826145dd565b615215565b90613ab581615af4565b5491613ac966ffffffffffffff8416613a68565b926020925f928486015b60ff8516906002821015613b695790869164ffffffffff86613af589886150fc565b936028026038011c16918190835b85811015613b5057613b1e955080613b34575b505050610727565b9360ff8091169081146107145760010193613ad3565b5f199060031b1c908183511691199054161790525f8080613b16565b815483528a9590920191600190910190601f1901613b03565b505095925050929150565b5f90613b816060916145f2565b60405190602090601f19908161012585011660405260e68452602084019260e691925b81831015613bd657505080613bba575b50505092565b5f199060031b1c908183511691199054161790525f8080613bb4565b81600185839495979654875201940194019190613ba4565b5f906060906040519060209082613c09602082019283614390565b0392613c1d601f19948581018352826107e8565b5190205f80516020615e4c83398151915218916040519281609f850116604052606084526020840192606091925b81831015613c6057505080613bba5750505092565b81600185839495979654875201940194019190613c4b565b60ff1660038110156109d65790565b60ff16600a8110156109d65790565b610c479064ffffffffff613cd15f80516020615eac8339815191526040516020810190613cc78161057788856142c7565b5190201892615b1e565b5460381c1690615281565b610c479064ffffffffff613d0d5f80516020615ecc8339815191526040516020810190613cc78161057788856142c7565b5460601c1690615281565b6040805160206020600160801b0384168201810190925260016001607b1b03600584901c1680825290939260801c8285015f5b838110613d59575050505050565b825182529184019190840190600101613d4b565b919091613d7981615b87565b5464ffffffffff926060848360601c1691613d95875184610727565b8381141596908780613fa8575b613f8c57613db09086615c6d565b96613db96152cc565b925f5b8451811015613e4a57613dd5612d96612d888388610a5b565b6010808260581c1614613dec575b50600101613dbc565b861c90813b156100e3575f898d938a838e613e1d60405198899687958694630abd6b4560e31b865260048601614dd9565b03925af1918215610d4a57600192613e37575b5090613de3565b80610d44613e4492610748565b5f613e30565b5092989397909496919680985f995b60ff8b166001811015613e805760ff918b8b6001936028026038011c16019b011699613e59565b509692975093985093989196506040945f80516020615e0c83398151915260405180613ed28d8b8d65ffffffffffff6f43686172616374657245717569706d65631d18955160e21b0198169085614ee4565b0390a2613f7c575b613eed8884613ee889615139565b615ae3565b5f5b81518110156137ec57613f08612d96612d888385610a5b565b6020808260581c1614613f1f575b50600101613eef565b831c90813b156100e3575f878b9387838c613f4f8c5198899687958694636358453360e01b865260048601614dd9565b03925af1918215610d4a57600192613f69575b5090613f16565b80610d44613f7692610748565b5f613f62565b84613f8687615b87565b55613eda565b604051632994042d60e21b8152806133e8878060048401614d56565b5084613fb66133fa82614d43565b1415613da2565b919091613fc981615b87565b5464ffffffffff8160381c16613fe0855182610727565b81811415949085806141a1575b61418557613ffb9084615bf0565b906140046152cc565b915f5b835181101561409657614020612d96612d888387610a5b565b6010808260581c1614614037575b50600101614007565b60601c90813b156100e3575f878b9388838c61406960405198899687958694630abd6b4560e31b865260048601614e3d565b03925af1918215610d4a57600192614083575b509061402e565b80610d4461409092610748565b5f61407c565b506040805192979195509392915f80516020615f2c833981519152905f80516020615e0c83398151915290806140cf8c8a898d85614f2a565b0390a2614175575b6140e58783613ee88861515d565b5f5b81518110156133a257614100612d96612d888385610a5b565b6020808260581c1614614117575b506001016140e7565b60601c90813b156100e3575f868a9386838b6141488b5198899687958694636358453360e01b865260048601614e3d565b03925af1918215610d4a57600192614162575b509061410e565b80610d4461416f92610748565b5f61415b565b8361417f86615b87565b556140d7565b604051632994042d60e21b8152806133e8858060048401614d56565b50826141af6133fa82614d43565b1415613fed565b6953746f7265486f6f6b7360301b66746273746f726560c81b01815281516020918201928201915f5b8281106141ed575050505090565b8351855293810193928101926001016141df565b5f80516020615f0c833981519152815281516020918201928201915f5b82811061422c575050505090565b83518552938101939281019260010161421e565b5f80516020615f4c833981519152815281516020918201928201915f5b82811061426b575050505090565b83518552938101939281019260010161425d565b6941726d6f72537461747360301b631d18955160e21b01815281516020918201928201915f5b8281106142b3575050505090565b8351855293810193928101926001016142a5565b6f53746172746572436f6e73756d61626c631d18955160e21b01815281516020918201928201915f5b8281106142fe575050505090565b8351855293810193928101926001016142f0565b5f80516020615f4c833981519152815281516020918201928201915f5b82811061433d575050505090565b83518552938101939281019260010161432f565b5f80516020615f2c833981519152815281516020918201928201915f5b82811061437c575050505090565b83518552938101939281019260010161436e565b6f537461745265737472696374696f6e73631d18955160e21b01815281516020918201928201915f5b8281106143c7575050505090565b8351855293810193928101926001016143b9565b5f80516020615f0c833981519152815281516020918201928201915f5b828110614406575050505090565b8351855293810193928101926001016143f8565b5f80516020615f4c833981519152815281516020918201928201915f5b828110614445575050505090565b835185529381019392810192600101614437565b64537461747360581b631d18955160e21b01815281516020918201928201915f5b828110614488575050505090565b83518552938101939281019260010161447a565b7774624368617261637465727300000000546f6b656e55524960401b815281516020918201928201915f5b8281106144d5575050505090565b8351855293810193928101926001016144c7565b604051602081602081019367436f756e7465727360401b631d18955160e21b0185526040820160208251919201935f5b82811061454b57505050614536925003601f1981018352826107e8565b5190205f80516020615e4c8339815191521890565b855184529481019486945092810192600101614519565b6040516020816020810193694e616d6545786973747360301b631d18955160e21b0185526040820160208251919201935f5b8281106145b157505050614536925003601f1981018352826107e8565b855184529481019486945092810192600101614594565b604051614536816105776020820194856143db565b6040516145368161057760208201948561441a565b60405161453681610577602082019485614459565b604051602081602081019375746243686172616374657273000000004f776e65727360501b85526040820160208251919201935f5b82811061465957505050614536925003601f1981018352826107e8565b85518452948101948694509281019260010161463c565b60405160208160208101936742616c616e63657360401b651d1891dbdb1960d21b0185526040820160208251919201935f5b8281106146bf57505050614536925003601f1981018352826107e8565b8551845294810194869450928101926001016146a2565b60405160208160208101935f80516020615e6c83398151915260401b85526040820160208251919201935f5b82811061471f57505050614536925003601f1981018352826107e8565b855184529481019486945092810192600101614702565b6040516020816020810193654f776e65727360501b6674624974656d7360c81b0185526040820160208251919201935f5b82811061478457505050614536925003601f1981018352826107e8565b855184529481019486945092810192600101614767565b90916147b2610c47936060845260608401906119c2565b915f60208201526040818403910152612098565b67436f756e7465727360401b631d18955160e21b018152608060208201819052610c479391926121a1918401906119c2565b694e616d6545786973747360301b631d18955160e21b018152608060208201819052610c479391926121a1918401906119c2565b90916121a1610c479375746243686172616374657273000000004f776e65727360501b84526080602085015260808401906119c2565b6742616c616e63657360401b651d1891dbdb1960d21b018152608060208201819052610c479391926121a1918401906119c2565b90916121a1610c47935f80516020615e6c83398151915260401b84526080602085015260808401906119c2565b654f776e65727360501b6674624974656d7360c81b018152608060208201819052610c479391926121a1918401906119c2565b919061490183614670565b9161490a615862565b905f5b825181101561499657614926612d96612d888386610a5b565b9060049182808260581c1614614942575b50600191500161490d565b60601c803b156100e357855f918983614970966040519788958694859363964f667d60e01b85528401614862565b03925af1918215610d4a57600192156149375780610d4461499092610748565b5f614937565b50604080519194909392916149e29184916742616c616e63657360401b651d1891dbdb1960d21b01905f80516020615e2c83398151915290806149da868d8361479b565b0390a2615aac565b5f5b8151811015612ee9576149fd612d96612d888385610a5b565b6008808260581c1614614a14575b506001016149e4565b60601c90813b156100e357845163a8ba872160e01b8152915f908390818381614a418a8e60048401614862565b03925af1918215610d4a57600192614a5b575b5090614a0b565b80610d44614a6892610748565b5f614a54565b9190614a79836146d6565b91614a82615909565b905f5b8251811015614b0e57614a9e612d96612d888386610a5b565b9060049182808260581c1614614aba575b506001915001614a85565b60601c803b156100e357855f918983614ae8966040519788958694859363964f667d60e01b85528401614896565b03925af1918215610d4a5760019215614aaf5780610d44614b0892610748565b5f614aaf565b50929190614b48826040946040515f80516020615e2c8339815191525f80516020615e6c83398151915260401b91806149da868d8361479b565b5f5b8151811015612ee957614b63612d96612d888385610a5b565b6008808260581c1614614b7a575b50600101614b4a565b60601c90813b156100e357845163a8ba872160e01b8152915f908390818381614ba78a8e60048401614896565b03925af1918215610d4a57600192614bc1575b5090614b71565b80610d44614bce92610748565b5f614bba565b9190614bdf83614736565b91614be86159aa565b905f5b8251811015614c7457614c04612d96612d888386610a5b565b9060049182808260581c1614614c20575b506001915001614beb565b60601c803b156100e357855f918983614c4e966040519788958694859363964f667d60e01b855284016148c3565b03925af1918215610d4a5760019215614c155780610d44614c6e92610748565b5f614c15565b5060408051919490939291614cb7918491654f776e65727360501b6674624974656d7360c81b01905f80516020615e2c83398151915290806149da868d8361479b565b5f5b8151811015612ee957614cd2612d96612d888385610a5b565b6008808260581c1614614ce9575b50600101614cb9565b60601c90813b156100e357845163a8ba872160e01b8152915f908390818381614d168a8e600484016148c3565b03925af1918215610d4a57600192614d30575b5090614ce0565b80610d44614d3d92610748565b5f614d29565b9064ffffffffff80921691821161071457565b64ffffffffff91821681525f60208201529116604082015260600190565b909264ffffffffff614db4610c479694957774624368617261637465727300000000546f6b656e55524960401b855260e0602086015260e08501906119c2565b945f60408501525f606085015216608083015260a082015260c0818403910152612098565b909264ffffffffff614e17610c479694956f43686172616374657245717569706d65631d18955160e21b01855260e0602086015260e08501906119c2565b94600160408501521660608301525f608083015260a082015260c0818403910152612098565b909264ffffffffff614e7b610c479694956f43686172616374657245717569706d65631d18955160e21b01855260e0602086015260e08501906119c2565b945f60408501521660608301525f608083015260a082015260c0818403910152612098565b909264ffffffffff614ebf610c4796949560c0855260c08501906119c2565b945f60208501525f6040850152166060830152608082015260a0818403910152612098565b909265ffffffffffff614f04610c4796949560c0855260c08501906119c2565b94600160208501521660408301525f6060830152608082015260a0818403910152612098565b909265ffffffffffff614f4a610c4796949560c0855260c08501906119c2565b945f60208501521660408301525f6060830152608082015260a0818403910152612098565b90610c4792614f89614f97926080855260808501906119c2565b908382036020850152612098565b905f6040820152606081830391015261205b565b90610c479492614f89614fc6926080855260808501906119c2565b9260408201526060818403910152612098565b9392916150246150379161501660a0946f4368617261637465724f776e65720000631d18955160e21b01895260c060208a015260c08901906119c2565b908782036040890152612098565b5f6060870152858103608087015261205b565b930152565b9594936150856150379361507760a09694694368617261637465727360301b631d18955160e21b018b5260c060208c015260c08b01906119c2565b9089820360408b0152612098565b9160608801528682036080880152612098565b64537461747360581b631d18955160e21b01815260c0602082018190529094939260a092615037926150249291615016918901906119c2565b5f80516020615eac833981519152906040516150f58161057760208201948561449c565b5190201890565b905f80516020615eac8339815191529160405161512181610577602082019485614312565b51902060f89190911b6001600160f81b031916181890565b5f80516020615ecc833981519152906040516150f581610577602082019485614351565b5f80516020615eac833981519152906040516150f581610577602082019485614351565b905f80516020615eac83398151915291604051615121816105776020820194856143db565b905f80516020615eac833981519152916040516151218161057760208201948561441a565b905f80516020615eac8339815191529160405161512181610577602082019485614459565b906109806001600160801b03831661520781613a68565b93602085019060801c615dc2565b60405190602090601f1990816094850116604052605584526020840192605591925b818310156152695750508061524d575b50505090565b5f199060031b1c908183511691199054161790525f8080615247565b81600185839495979654875201940194019190615237565b60408051601f19603f85830101811690925283815292602080850193925b818310156152b45750508061524d5750505090565b8160018583949597965487520194019401919061529f565b6152d4610b60565b8051156101a05761537f61189c6020926f43686172616374657245717569706d65631d18955160e21b018482015264ffffffffff604051915f80516020615eac8339815191528684018461532884836141b6565b039461533c601f19968781018352826107e8565b519020189261536260405191826153568a820195866141b6565b039081018352826107e8565b5190205f80516020615eec833981519152185460381c1690615281565b8060801c916015809260018060801b0316049060405193818501828460051b8701016040528386525f5b8481106153b95750505050505090565b8251825291850191908301906001016153a9565b6153d5610b60565b8051156101a05761542461189c60209267436f756e7465727360401b631d18955160e21b018482015264ffffffffff604051915f80516020615eac8339815191528684018461532884836141b6565b8060801c916015809260018060801b0316049060405193818501828460051b8701016040528386525f5b84811061545e5750505050505090565b82518252918501919083019060010161544e565b61547a610b60565b8051156101a0576154cb61189c602092694e616d6545786973747360301b631d18955160e21b018482015264ffffffffff604051915f80516020615eac8339815191528684018461532884836141b6565b8060801c916015809260018060801b0316049060405193818501828460051b8701016040528386525f5b8481106155055750505050505090565b8251825291850191908301906001016154f5565b615521610b60565b8051156101a05761557761189c6020927774624368617261637465727300000000546f6b656e55524960401b8482015264ffffffffff604051915f80516020615eac8339815191528684018461532884836141b6565b8060801c916015809260018060801b0316049060405193818501828460051b8701016040528386525f5b8481106155b15750505050505090565b8251825291850191908301906001016155a1565b6155cd610b60565b8051156101a05761562161189c6020926f4368617261637465724f776e65720000631d18955160e21b018482015264ffffffffff604051915f80516020615eac8339815191528684018461532884836141b6565b8060801c916015809260018060801b0316049060405193818501828460051b8701016040528386525f5b84811061565b5750505050505090565b82518252918501919083019060010161564b565b615677610b60565b8051156101a0576156c861189c602092694368617261637465727360301b631d18955160e21b018482015264ffffffffff604051915f80516020615eac8339815191528684018461532884836141b6565b8060801c916015809260018060801b0316049060405193818501828460051b8701016040528386525f5b8481106157025750505050505090565b8251825291850191908301906001016156f2565b61571e610b60565b8051156101a05761576a61189c60209264537461747360581b631d18955160e21b018482015264ffffffffff604051915f80516020615eac8339815191528684018461532884836141b6565b8060801c916015809260018060801b0316049060405193818501828460051b8701016040528386525f5b8481106157a45750505050505090565b825182529185019190830190600101615794565b6157c0610b60565b8051156101a05761581461189c60209275746243686172616374657273000000004f776e65727360501b8482015264ffffffffff604051915f80516020615eac8339815191528684018461532884836141b6565b8060801c916015809260018060801b0316049060405193818501828460051b8701016040528386525f5b84811061584e5750505050505090565b82518252918501919083019060010161583e565b61586a610b60565b8051156101a0576158bb61189c6020926742616c616e63657360401b651d1891dbdb1960d21b018482015264ffffffffff604051915f80516020615eac8339815191528684018461532884836141b6565b8060801c916015809260018060801b0316049060405193818501828460051b8701016040528386525f5b8481106158f55750505050505090565b8251825291850191908301906001016158e5565b615911610b60565b8051156101a05761595c61189c6020925f80516020615e6c83398151915260401b8482015264ffffffffff604051915f80516020615eac8339815191528684018461532884836141b6565b8060801c916015809260018060801b0316049060405193818501828460051b8701016040528386525f5b8481106159965750505050505090565b825182529185019190830190600101615986565b6159b2610b60565b8051156101a057615a0261189c602092654f776e65727360501b6674624974656d7360c81b018482015264ffffffffff604051915f80516020615eac8339815191528684018461532884836141b6565b8060801c916015809260018060801b0316049060405193818501828460051b8701016040528386525f5b848110615a3c5750505050505090565b825182529185019190830190600101615a2c565b81516109809260200191615d0f565b81519060208093019190925b80821015615a94575080615a7e57505050565b5f199060031b1c90818354169119905116179055565b6001839482939451815501930191601f190190615a6b565b81519060208093019190925b80821015615acb575080615a7e57505050565b6001839482939451815501930191601f190190615ab8565b825161098093602001929091615d32565b604051615b0981610577602082019485614312565b5190205f80516020615eec8339815191521890565b60405160208160208101936f53746172746572436f6e73756d61626c631d18955160e21b0185526040820160208251919201935f5b828110615b7057505050615b09925003601f1981018352826107e8565b855184529481019486945092810192600101615b53565b604051615b0981610577602082019485614351565b604051615b098161057760208201948561449c565b604051615b09816105776020820194856143db565b604051615b098161057760208201948561441a565b604051615b0981610577602082019485614459565b64ffffffffff808311615c545766ffffffffffffff821690603883901c1683818110615c4a570301915b64ffffffffff60381b60389190911b1664ffffffffff60381b19929092166001600160601b031991909116171790565b9003900391615c1a565b604051637149a3c160e01b815260048101849052602490fd5b64ffffffffff808311615c545766ffffffffffffff821690606083901c1683818110615cd0570301915b64ffffffffff60601b60609190911b1664ffffffffff60601b1992909216600169ffffffffff000000000160381b031991909116171790565b9003900391615c97565b9190915f905b602090818310615d005784518155930192601f1990910190600101615ce0565b929391905080615a7e57505050565b929192602090818310615d005784518155930192601f1990910190600101615ce0565b909392919380615d61575b50929092602090818310615d005784518155930192601f1990910190600101615ce0565b6020811015615db2575b8015615d3d5791939082602003908360031b5f198460031b1c19811c908751901c908019835416911617815581831115612ee957600101940191601f19910101925f615d3d565b90601f908260051c019116615d6b565b9291905b602090818310615de5578451815293810193601f199092019101615dc6565b92939190508015615e06575f199060031b1c90818351169119905116179052565b50505056fefe158a7adba34e256807c8a149028d3162918713c3838afc643ce9f96716ebfd8c0b5119d4cec7b284c6b1b39252a03d1e2f2d7451a5895562524c113bb952be86425bff6b57326c7859e89024fe4f238ca327a1ae4a230180dd2f0e88aaa7d900000000000000007462436861726163746572730000000042616c616e6365738dbb3a9672eebfd3773e72dd9c102393436816d832c7ba9e1e1ac8fcadcac7a93b4102da22e32d82fc925482184f16c09fd4281692720b87d124aef6da48a0f13a4102da22e32d82fc925482184f16c09fd4281692720b87d124aef6da48a0f114e2fcc58e58e68ec7edc30c8d50dccc3ce2714a623ec81f46b6a63922d76569746255440000000000000000000000004368617261637465724f776e657200007462554400000000000000000000000043686172616374657245717569706d657462554400000000000000000000000043686172616374657273000000000000","linkReferences":{}},"methodIdentifiers":{"_msgSender()":"119df25f","_msgValue()":"45ec9354","_world()":"e1af802c","enterGame(bytes32,uint256,uint256)":"e3dc55d8","getCharacterIdFromOwnerAddress(address)":"06a3432f","getOwner(bytes32)":"deb931a2","getOwnerAddress(bytes32)":"00d43ec6","isValidCharacterId(bytes32)":"623daa05","isValidOwner(bytes32,address)":"9b63ec05","mintCharacter(address,bytes32,string)":"143f3021","supportsInterface(bytes4)":"01ffc9a7"},"id":376}