{"abi":[{"type":"function","name":"_msgSender","inputs":[],"outputs":[{"name":"sender","type":"address","internalType":"address"}],"stateMutability":"view"},{"type":"function","name":"_msgValue","inputs":[],"outputs":[{"name":"value","type":"uint256","internalType":"uint256"}],"stateMutability":"view"},{"type":"function","name":"_world","inputs":[],"outputs":[{"name":"","type":"address","internalType":"address"}],"stateMutability":"view"},{"type":"function","name":"getCharacterIdFromOwnerAddress","inputs":[{"name":"ownerAddress","type":"address","internalType":"address"}],"outputs":[{"name":"","type":"bytes32","internalType":"bytes32"}],"stateMutability":"view"},{"type":"function","name":"getOwner","inputs":[{"name":"characterId","type":"bytes32","internalType":"bytes32"}],"outputs":[{"name":"","type":"address","internalType":"address"}],"stateMutability":"view"},{"type":"function","name":"getOwnerAddress","inputs":[{"name":"characterId","type":"bytes32","internalType":"bytes32"}],"outputs":[{"name":"","type":"address","internalType":"address"}],"stateMutability":"pure"},{"type":"function","name":"isValidCharacterId","inputs":[{"name":"characterId","type":"bytes32","internalType":"bytes32"}],"outputs":[{"name":"","type":"bool","internalType":"bool"}],"stateMutability":"view"},{"type":"function","name":"isValidOwner","inputs":[{"name":"characterId","type":"bytes32","internalType":"bytes32"},{"name":"owner","type":"address","internalType":"address"}],"outputs":[{"name":"","type":"bool","internalType":"bool"}],"stateMutability":"view"},{"type":"function","name":"mintCharacter","inputs":[{"name":"account","type":"address","internalType":"address"},{"name":"name","type":"bytes32","internalType":"bytes32"},{"name":"tokenUri","type":"string","internalType":"string"}],"outputs":[{"name":"characterId","type":"bytes32","internalType":"bytes32"}],"stateMutability":"nonpayable"},{"type":"function","name":"supportsInterface","inputs":[{"name":"interfaceId","type":"bytes4","internalType":"bytes4"}],"outputs":[{"name":"","type":"bool","internalType":"bool"}],"stateMutability":"pure"},{"type":"event","name":"Store_SetRecord","inputs":[{"name":"tableId","type":"bytes32","indexed":true,"internalType":"ResourceId"},{"name":"keyTuple","type":"bytes32[]","indexed":false,"internalType":"bytes32[]"},{"name":"staticData","type":"bytes","indexed":false,"internalType":"bytes"},{"name":"encodedLengths","type":"bytes32","indexed":false,"internalType":"EncodedLengths"},{"name":"dynamicData","type":"bytes","indexed":false,"internalType":"bytes"}],"anonymous":false},{"type":"event","name":"Store_SpliceDynamicData","inputs":[{"name":"tableId","type":"bytes32","indexed":true,"internalType":"ResourceId"},{"name":"keyTuple","type":"bytes32[]","indexed":false,"internalType":"bytes32[]"},{"name":"dynamicFieldIndex","type":"uint8","indexed":false,"internalType":"uint8"},{"name":"start","type":"uint48","indexed":false,"internalType":"uint48"},{"name":"deleteCount","type":"uint40","indexed":false,"internalType":"uint40"},{"name":"encodedLengths","type":"bytes32","indexed":false,"internalType":"EncodedLengths"},{"name":"data","type":"bytes","indexed":false,"internalType":"bytes"}],"anonymous":false},{"type":"event","name":"Store_SpliceStaticData","inputs":[{"name":"tableId","type":"bytes32","indexed":true,"internalType":"ResourceId"},{"name":"keyTuple","type":"bytes32[]","indexed":false,"internalType":"bytes32[]"},{"name":"start","type":"uint48","indexed":false,"internalType":"uint48"},{"name":"data","type":"bytes","indexed":false,"internalType":"bytes"}],"anonymous":false},{"type":"error","name":"EncodedLengths_InvalidLength","inputs":[{"name":"length","type":"uint256","internalType":"uint256"}]},{"type":"error","name":"GamePaused","inputs":[]},{"type":"error","name":"InvalidAccount","inputs":[]},{"type":"error","name":"InvalidTokenUri","inputs":[]},{"type":"error","name":"NameTaken","inputs":[]},{"type":"error","name":"Slice_OutOfBounds","inputs":[{"name":"data","type":"bytes","internalType":"bytes"},{"name":"start","type":"uint256","internalType":"uint256"},{"name":"end","type":"uint256","internalType":"uint256"}]},{"type":"error","name":"Store_IndexOutOfBounds","inputs":[{"name":"length","type":"uint256","internalType":"uint256"},{"name":"accessedIndex","type":"uint256","internalType":"uint256"}]},{"type":"error","name":"Store_InvalidResourceType","inputs":[{"name":"expected","type":"bytes2","internalType":"bytes2"},{"name":"resourceId","type":"bytes32","internalType":"ResourceId"},{"name":"resourceIdString","type":"string","internalType":"string"}]},{"type":"error","name":"Store_InvalidSplice","inputs":[{"name":"startWithinField","type":"uint40","internalType":"uint40"},{"name":"deleteCount","type":"uint40","internalType":"uint40"},{"name":"fieldLength","type":"uint40","internalType":"uint40"}]}],"bytecode":{"object":"0x6080806040523461001657612f35908161001b8239f35b5f80fdfe60806040526004361015610011575f80fd5b5f3560e01c8062d43ec6146100b357806301ffc9a7146100ae57806306a3432f146100a9578063119df25f146100a4578063143f30211461009f57806345ec93541461009a578063623daa05146100955780639b63ec0514610090578063deb931a21461008b5763e1af802c14610086575f80fd5b61032b565b6102fb565b6102bc565b610271565b610252565b6101db565b61019f565b610143565b6100d7565b346100d35760203660031901126100d35760043560601c60805260206080f35b5f80fd5b346100d35760203660031901126100d35760043563ffffffff60e01b81168091036100d35760209063b5dee12760e01b811490811561011c575b506040519015158152f35b6301ffc9a760e01b1490505f610111565b600435906001600160a01b03821682036100d357565b346100d35760203660031901126100d35761015c61012d565b6101646105d5565b90815115610190576001600160a01b03166020828101919091529061018890610cc3565b604051908152f35b61060a565b5f9103126100d357565b346100d3575f3660031901126100d35736603319013560601c80156101d4575b6040516001600160a01b039091168152602090f35b50336101bf565b346100d35760603660031901126100d3576101f461012d565b6044356001600160401b038082116100d357366023830112156100d35781600401359081116100d35736602482840101116100d35761024e92602461023e930190602435906104aa565b6040519081529081906020820190565b0390f35b346100d3575f3660031901126100d3576020604051601f193601358152f35b346100d35760203660031901126100d35760043561028d6105d5565b805115610190576102b060209260018060601b0381168484015260601c91610d83565b60601c14604051908152f35b346100d35760403660031901126100d3576001600160a01b03602435818116908190036100d3576020916102f1600435610c53565b1614604051908152f35b346100d35760203660031901126100d3576020610319600435610c53565b6040516001600160a01b039091168152f35b346100d3575f3660031901126100d3576020610319611217565b634e487b7160e01b5f52601160045260245ffd5b906001820180921161036757565b610345565b9190820180921161036757565b634e487b7160e01b5f52604160045260245ffd5b6001600160401b0381116103a057604052565b610379565b602081019081106001600160401b038211176103a057604052565b604081019081106001600160401b038211176103a057604052565b606081019081106001600160401b038211176103a057604052565b608081019081106001600160401b038211176103a057604052565b601f909101601f19168101906001600160401b038211908210176103a057604052565b6040519060c082016001600160401b038111838210176103a057604052565b9192916001600160401b0382116103a0576040519161047c601f8201601f191660200184610411565b8294818452818301116100d3578281602093845f960137010152565b604051906104a5826103a5565b5f8252565b939291936104b661063f565b6001600160a01b038116156105c35781156105c35782156105b1576104da82610675565b61059f5761059d92610598916104f76104f230610698565b610359565b9061050282306106d2565b61050c81836107d7565b61052161051b6104f2836108aa565b826108d2565b606081901b6001600160601b031916821797889361054a91610544913691610453565b83610980565b610593610555610434565b8381526001600160a01b03831660208201528660408201525f606082015261057b610498565b6080820152610588610498565b60a082015284610a25565b610ab3565b610b8d565b565b604051639e4b268560e01b8152600490fd5b6040516308848e7f60e31b8152600490fd5b604051630da30f6560e31b8152600490fd5b604051906105e2826103c0565b6001825260203681840137565b604051906105fc826103db565b600282526040366020840137565b634e487b7160e01b5f52603260045260245ffd5b8051156101905760200190565b80518210156101905760209160051b010190565b61065a60405161064e816103a5565b5f81525f368137610e18565b60f81c61066357565b60405163379a7ed960e01b8152600490fd5b61067d6105d5565b80511561019057610692916020820152610ea6565b60f81c90565b6106a06105ef565b90815115610190576001600160a01b0316602082015280516001101561019057805f60406106cf930152610f10565b90565b906106db6105ef565b805190926001600160a01b0391156101905781166020840152825160011015610190575f60408401526040519160208301526020825261071a826103c0565b610722611217565b16913083036107355761059d925061153b565b90823b156100d3576040516301c85d5760e51b815267436f756e7465727360401b631d18955160e21b01600482015260a06024820152925f9284928391859183916107a191906107899060a4850190610c85565b90846044850152600319848303016064850152611107565b630100080160dd1b608483015203925af180156107d2576107bf5750565b806107cc61059d9261038d565b80610195565b610cb8565b906107e06105d5565b918251156101905760208301526040519060018060601b03199060601b16602082015260148152610810816103c0565b6001600160a01b03610820611217565b16913083036108335761059d92506116d4565b90823b156100d3576040516301c85d5760e51b815275746243686172616374657273000000004f776e65727360501b600482015260a06024820152925f92849283918591839161088c91906107899060a4850190610c85565b630500400560da1b608483015203925af180156107d2576107bf5750565b6108b26105d5565b805115610190576001600160a01b0390911660208201526106cf90610fa0565b906108db6105d5565b805190926001600160a01b03911561019057811660208401526040519160208301526020825261090a826103c0565b610912611217565b16913083036109255761059d925061183a565b90823b156100d3576040516301c85d5760e51b8152777462436861726163746572730000000042616c616e63657360401b600482015260a06024820152925f9284928391859183916107a191906107899060a4850190610c85565b906109896105d5565b918251156101905760208301526001600160a01b036109a6611217565b16913083036109b95761059d9250611b10565b90823b156100d3576040516377b7543160e11b81527774624368617261637465727300000000546f6b656e55524960401b600482015260806024820152925f928492839185918391610a149190610789906084850190610c85565b03925af180156107d2576107bf5750565b9061059d91815160208301516040840151606085015115159160405193602085015260018060601b03199060601b166040840152605483015260f81b607482015260558152610a73816103f6565b60a0608084015193015192610a8c81519480519261112c565b93610a956105d5565b93610a9f8561061e565b528160601b918160381b910117179161116a565b9091604051926020840152604083015260408252610ad0826103db565b610ad86105d5565b805190916001600160a01b0391156101905781166020830152610af9611217565b16308103610b0c57509061059d91611d4f565b90813b156100d3575f91610b6583610b7893610a146040519788968795869463298314fb60e01b86526f4368617261637465724f776e65720000631d18955160e21b01600487015260a0602487015260a4860190610c85565b6003199283868303016044870152611107565b908460648501528382030160848401526110ca565b610b956105d5565b90815115610190576020820152604051600160f81b602082015260018152610bbc816103c0565b6001600160a01b03610bcc611217565b1691308303610bdf5761059d92506119a0565b90823b156100d3576040516301c85d5760e51b8152694e616d6545786973747360301b631d18955160e21b01600482015260a06024820152925f928492839185918391610c3591906107899060a4850190610c85565b630101000160d81b608483015203925af180156107d2576107bf5750565b610c5b6105d5565b80511561019057610c70916020820152611013565b60601c90565b908160209103126100d3575190565b9081518082526020808093019301915f5b828110610ca4575050505090565b835185529381019392810192600101610c96565b6040513d5f823e3d90fd5b6001600160a01b03610cd3611217565b16308103610ce557506106cf9061124c565b604051638c364d5960e01b81526f4368617261637465724f776e65720000631d18955160e21b0160048201526080602482015291602091839182908190610d30906084830190610c85565b6001604483015264020010010160d51b606483015203915afa9081156107d2575f91610d5a575090565b6106cf915060203d602011610d7c575b610d748183610411565b810190610c76565b503d610d6a565b6001600160a01b03610d93611217565b16308103610da557506106cf906112ff565b604051638c364d5960e01b815275746243686172616374657273000000004f776e65727360501b60048201526080602482015291602091839182908190610df0906084830190610c85565b5f6044830152630500400560da1b606483015203915afa9081156107d2575f91610d5a575090565b6001600160a01b03610e28611217565b16308103610e3a57506106cf90611375565b604051638c364d5960e01b81526514185d5cd95960521b631d18955160e21b0160048201526080602482015291602091839182908190610e7e906084830190610c85565b5f6044830152630101000160d81b606483015203915afa9081156107d2575f91610d5a575090565b6001600160a01b03610eb6611217565b16308103610ec857506106cf906113d7565b604051638c364d5960e01b8152694e616d6545786973747360301b631d18955160e21b0160048201526080602482015291602091839182908190610e7e906084830190610c85565b6001600160a01b03610f20611217565b16308103610f3257506106cf9061143d565b604051638c364d5960e01b815267436f756e7465727360401b631d18955160e21b0160048201526080602482015291602091839182908190610f78906084830190610c85565b5f6044830152630100080160dd1b606483015203915afa9081156107d2575f91610d5a575090565b6001600160a01b03610fb0611217565b16308103610fc65750610fc290612455565b5490565b604051638c364d5960e01b8152777462436861726163746572730000000042616c616e63657360401b60048201526080602482015291602091839182908190610f78906084830190610c85565b6001600160a01b03611023611217565b1630810361103557506106cf906114a1565b604051638c364d5960e01b8152694368617261637465727360301b631d18955160e21b016004820152608060248201529160209183918290819061107d906084830190610c85565b60016044830152665504022014200160c01b606483015203915afa9081156107d2575f91610d5a575090565b5f5b8381106110ba5750505f910152565b81810151838201526020016110ab565b90606051918281525f5b8381106110f35750825f602080949584010152601f8019910116010190565b8060209160800151828285010152016110d4565b90602091611120815180928185528580860191016110a9565b601f01601f1916010190565b60206106cf91604051938161114a86935180928680870191016110a9565b820161115e825180938680850191016110a9565b01038084520182610411565b909291906001600160a01b0361117e611217565b1630810361119157509261059d93611f69565b909192813b156100d35760405163298314fb60e01b8152694368617261637465727360301b631d18955160e21b01600482015260a06024820152945f948694859387938593610a149390929190611203906111f09060a4880190610c85565b6003199283888303016044890152611107565b926064860152848303016084850152611107565b7f629a4c26e296b22a8e0856e9f6ecb2d1008d7e00081111962cd175fa7488e175546001600160a01b0316806106cf57503390565b60405161126f81611261602082019485612214565b03601f198101835282610411565b5190205f80516020612e55833981519152185f905f5b600181106112d85750818160208210156112c2575b505080548260031b1b9160200390816020116112b557505090565b600101549060031b1c1790565b90809350601f925060051c019116905f8061129a565b9160ff64020010010160d51b84601b0360031b1c1681018091116103675791600101611285565b60405160208160208101935f80516020612e7583398151915260501b85526040820160208251919201935f5b82811061135e57505050611348925003601f198101835282610411565b5190205f80516020612e55833981519152185490565b85518452948101948694509281019260010161132b565b60405160208160208101936514185d5cd95960521b631d18955160e21b0185526040820160208251919201935f5b8281106113c057505050611348925003601f198101835282610411565b8551845294810194869450928101926001016113a3565b6040516020816020810193694e616d6545786973747360301b631d18955160e21b0185526040820160208251919201935f5b82811061142657505050611348925003601f198101835282610411565b855184529481019486945092810192600101611409565b604051602081602081019367436f756e7465727360401b631d18955160e21b0185526040820160208251919201935f5b82811061148a57505050611348925003601f198101835282610411565b85518452948101948694509281019260010161146d565b6040516114b68161126160208201948561225f565b5190205f80516020612e55833981519152185f905f5b600181106115125750818160208210156114fc575b505080548260031b1b9160200390816014116112b557505090565b90809350601f925060051c019116905f806114e1565b9160ff665504022014200160c01b84601b0360031b1c16810180911161036757916001016114cc565b9190611546836122a7565b9161154f6127fb565b905f5b82518110156115f65761158661157961156b838661062b565b516001600160581b03191690565b6001600160581b03191690565b9060049182808260581c16146115a2575b506001915001611552565b60601c803b156100d357855f9189836115d0966040519788958694859363964f667d60e01b85528401612540565b03925af19182156107d2576001921561159757806107cc6115f09261038d565b5f611597565b506040805191949093929161164091849167436f756e7465727360401b631d18955160e21b01905f80516020612e358339815191529080611638868d83612515565b0390a2612b16565b5f5b81518110156116cc5761165b61157961156b838561062b565b6008808260581c1614611672575b50600101611642565b60601c90813b156100d357845163a8ba872160e01b8152915f90839081838161169f8a8e60048401612540565b03925af19182156107d2576001926116b9575b5090611669565b806107cc6116c69261038d565b5f6116b2565b505050509050565b91906116df836124b5565b916116e8612a2b565b905f5b82518110156117745761170461157961156b838661062b565b9060049182808260581c1614611720575b5060019150016116eb565b60601c803b156100d357855f91898361174e966040519788958694859363964f667d60e01b855284016125ba565b03925af19182156107d2576001921561171557806107cc61176e9261038d565b5f611715565b509291906117ae826040946040515f80516020612e358339815191525f80516020612e7583398151915260501b9180611638868d83612515565b5f5b81518110156116cc576117c961157961156b838561062b565b6008808260581c16146117e0575b506001016117b0565b60601c90813b156100d357845163a8ba872160e01b8152915f90839081838161180d8a8e600484016125ba565b03925af19182156107d257600192611827575b50906117d7565b806107cc6118349261038d565b5f611820565b919061184583612455565b9161184e612a7a565b905f5b82518110156118da5761186a61157961156b838661062b565b9060049182808260581c1614611886575b506001915001611851565b60601c803b156100d357855f9189836118b4966040519788958694859363964f667d60e01b855284016125e7565b03925af19182156107d2576001921561187b57806107cc6118d49261038d565b5f61187b565b50929190611914826040946040515f80516020612e358339815191525f80516020612e9583398151915260401b9180611638868d83612515565b5f5b81518110156116cc5761192f61157961156b838561062b565b6008808260581c1614611946575b50600101611916565b60601c90813b156100d357845163a8ba872160e01b8152915f9083908183816119738a8e600484016125e7565b03925af19182156107d25760019261198d575b509061193d565b806107cc61199a9261038d565b5f611986565b91906119ab83612320565b916119b46128da565b905f5b8251811015611a40576119d061157961156b838661062b565b9060049182808260581c16146119ec575b5060019150016119b7565b60601c803b156100d357855f918983611a1a966040519788958694859363964f667d60e01b85528401612586565b03925af19182156107d257600192156119e157806107cc611a3a9261038d565b5f6119e1565b5060408051919490939291611a84918491694e616d6545786973747360301b631d18955160e21b01905f80516020612e358339815191529080611638868d83612515565b5f5b81518110156116cc57611a9f61157961156b838561062b565b6008808260581c1614611ab6575b50600101611a86565b60601c90813b156100d357845163a8ba872160e01b8152915f908390818381611ae38a8e60048401612586565b03925af19182156107d257600192611afd575b5090611aad565b806107cc611b0a9261038d565b5f611af6565b919091611b1c81612b4d565b5464ffffffffff8160381c16611b3d611b358280612614565b86519061036c565b8181141594908580611d30575b611d0457611b589084612bec565b90611b6161292f565b915f5b8351811015611bf357611b7d61157961156b838761062b565b6010808260581c1614611b94575b50600101611b64565b60601c90813b156100d3575f878b9388838c611bc660405198899687958694630abd6b4560e31b865260048601612634565b03925af19182156107d257600192611be0575b5090611b8b565b806107cc611bed9261038d565b5f611bd9565b5093509491906040926040517ffe158a7adba34e256807c8a149028d3162918713c3838afc643ce9f96716ebfd5f80516020612ef583398151915260401b9180611c408c8a898d8561268e565b0390a2611cf4575b611c5a87611c5587612c69565b612ac9565b5f5b8151811015611cea57611c7561157961156b838561062b565b6020808260581c1614611c8c575b50600101611c5c565b60601c90813b156100d3575f868a9386838b611cbd8b5198899687958694636358453360e01b865260048601612634565b03925af19182156107d257600192611cd7575b5090611c83565b806107cc611ce49261038d565b5f611cd0565b5050505050509050565b83611cfe86612b4d565b55611c48565b604051632994042d60e21b81525f600482015264ffffffffff8416602482018190526044820152606490fd5b5082611d48611d3e82612621565b64ffffffffff1690565b1415611b4a565b60408051655461626c657360501b66746273746f726560c81b01602082019081526f4368617261637465724f776e65720000631d18955160e21b018284018190528383529295929491611da1816103db565b5190205f80516020612e55833981519152185491611dbd61297e565b905f5b8251811015611e4b57611dd961157961156b838661062b565b6001808260581c1614611df0575b50600101611dc0565b60601c90813b156100d35788516315c19b2760e21b8152915f908390818381611e1e8c8c8f6004850161273c565b03925af19182156107d257600192611e38575b5090611de7565b806107cc611e459261038d565b5f611e31565b50945f80516020612eb5833981519152875180611e698689836126d2565b0390a2611e84611e7885612386565b83516020850191612d75565b60ff808460e01c1680611f2a575b50505f5b8151811015611f2157611eaf61157961156b838561062b565b6002808260581c1614611ec6575b50600101611e96565b60601c90813b156100d3578751635b28cdaf60e01b8152915f908390818381611ef48b8b8e6004850161273c565b03925af19182156107d257600192611f0e575b5090611ebd565b806107cc611f1b9261038d565b5f611f07565b50505050509050565b5f611f3487612bc2565b555f60805b8284831610611f49575050611e92565b600181611f608693611f5b868d612cde565b612d40565b92011690611f39565b60408051655461626c657360501b66746273746f726560c81b0160208201908152694368617261637465727360301b631d18955160e21b0182840181905283835296979295949291611fba816103db565b5190205f80516020612e55833981519152185490611fd66129d6565b905f5b825181101561206957611ff261157961156b838661062b565b6001808260581c1614612009575b50600101611fd9565b60601c90813b156100d3575f888c9388838b61203c8f8c9051998a97889687956315c19b2760e21b87526004870161279f565b03925af19182156107d257600192612056575b5090612000565b806107cc6120639261038d565b5f61204f565b50965f80516020612eb58339815191528751806120898c8a898b8561270e565b0390a26120a4612098856123ef565b84516020860191612d75565b60ff808360e01c1680612150575b50505f5b8151811015612145576120cf61157961156b838561062b565b6002808260581c16146120e6575b506001016120b6565b60601c90813b156100d3575f878b9387838a6121188a8f51998a9788968795635b28cdaf60e01b87526004870161279f565b03925af19182156107d257600192612132575b50906120dd565b806107cc61213f9261038d565b5f61212b565b505050505050509050565b9690989295949385612164869a949a612bd7565b555f96602085015b8b8916908a8210156121b6576121ad8d92826121a860019464ffffffffff8f8f908f9061219891612d1b565b956028026038011c168094612d75565b61036c565b9901169761216c565b5050939950939495509550955f806120b2565b6953746f7265486f6f6b7360301b66746273746f726560c81b01815281516020918201928201915f5b828110612200575050505090565b8351855293810193928101926001016121f2565b6f4368617261637465724f776e65720000631d18955160e21b01815281516020918201928201915f5b82811061224b575050505090565b83518552938101939281019260010161223d565b694368617261637465727360301b631d18955160e21b01815281516020918201928201915f5b828110612293575050505090565b835185529381019392810192600101612285565b604051602081602081019367436f756e7465727360401b631d18955160e21b0185526040820160208251919201935f5b828110612309575050506122f4925003601f198101835282610411565b5190205f80516020612e558339815191521890565b8551845294810194869450928101926001016122d7565b6040516020816020810193694e616d6545786973747360301b631d18955160e21b0185526040820160208251919201935f5b82811061236f575050506122f4925003601f198101835282610411565b855184529481019486945092810192600101612352565b60405160208160208101936f4368617261637465724f776e65720000631d18955160e21b0185526040820160208251919201935f5b8281106123d8575050506122f4925003601f198101835282610411565b8551845294810194869450928101926001016123bb565b6040516020816020810193694368617261637465727360301b631d18955160e21b0185526040820160208251919201935f5b82811061243e575050506122f4925003601f198101835282610411565b855184529481019486945092810192600101612421565b60405160208160208101935f80516020612e9583398151915260401b85526040820160208251919201935f5b82811061249e575050506122f4925003601f198101835282610411565b855184529481019486945092810192600101612481565b60405160208160208101935f80516020612e7583398151915260501b85526040820160208251919201935f5b8281106124fe575050506122f4925003601f198101835282610411565b8551845294810194869450928101926001016124e1565b909161252c6106cf93606084526060840190610c85565b915f60208201526040818403910152611107565b67436f756e7465727360401b631d18955160e21b0181526080602082018190526106cf93919261257291840190610c85565b915f60408201526060818403910152611107565b694e616d6545786973747360301b631d18955160e21b0181526080602082018190526106cf93919261257291840190610c85565b90916125726106cf935f80516020612e7583398151915260501b8452608060208501526080840190610c85565b90916125726106cf935f80516020612e9583398151915260401b8452608060208501526080840190610c85565b9190820391821161036757565b9064ffffffffff80921691821161036757565b909264ffffffffff6126696106cf9694955f80516020612ef583398151915260401b855260e0602086015260e0850190610c85565b945f60408501525f606085015216608083015260a082015260c0818403910152611107565b909264ffffffffff6126ad6106cf96949560c0855260c0850190610c85565b945f60208501525f6040850152166060830152608082015260a0818403910152611107565b906106cf926126ec6126fa92608085526080850190610c85565b908382036020850152611107565b905f604082015260608183039101526110ca565b906106cf94926126ec61272992608085526080850190610c85565b9260408201526060818403910152611107565b93929161278761279a9161277960a0946f4368617261637465724f776e65720000631d18955160e21b01895260c060208a015260c0890190610c85565b908782036040890152611107565b5f606087015285810360808701526110ca565b930152565b9594936127e861279a936127da60a09694694368617261637465727360301b631d18955160e21b018b5260c060208c015260c08b0190610c85565b9089820360408b0152611107565b9160608801528682036080880152611107565b6128036105d5565b805115610190576106cf9067436f756e7465727360401b631d18955160e21b0160208201526040516128c66128a85f80516020612ed5833981519152602084018461284e87836121c9565b0394612862601f1996878101835282610411565b51902018936040516128888161287c6020820194856121c9565b03868101835282610411565b5190205f80516020612f15833981519152185460381c64ffffffffff1690565b916040519260208401948592603f8387010116604052818552612dea565b60018060801b039051169060801b17612d98565b6128e26105d5565b805115610190576106cf90694e616d6545786973747360301b631d18955160e21b0160208201526040516128c66128a85f80516020612ed5833981519152602084018461284e87836121c9565b6129376105d5565b805115610190576106cf905f80516020612ef583398151915260401b60208201526040516128c66128a85f80516020612ed5833981519152602084018461284e87836121c9565b6129866105d5565b805115610190576106cf906f4368617261637465724f776e65720000631d18955160e21b0160208201526040516128c66128a85f80516020612ed5833981519152602084018461284e87836121c9565b6129de6105d5565b805115610190576106cf90694368617261637465727360301b631d18955160e21b0160208201526040516128c66128a85f80516020612ed5833981519152602084018461284e87836121c9565b612a336105d5565b805115610190576106cf905f80516020612e7583398151915260501b60208201526040516128c66128a85f80516020612ed5833981519152602084018461284e87836121c9565b612a826105d5565b805115610190576106cf905f80516020612e9583398151915260401b60208201526040516128c66128a85f80516020612ed5833981519152602084018461284e87836121c9565b81519060208093019190925b80821015612afe575080612ae857505050565b5f199060031b1c90818354169119905116179055565b6001839482939451815501930191601f190190612ad5565b81519060208093019190925b80821015612b35575080612ae857505050565b6001839482939451815501930191601f190190612b22565b60405160208160208101935f80516020612ef583398151915260401b85526040820160208251919201935f5b828110612bab57505050612b96925003601f198101835282610411565b5190205f80516020612f158339815191521890565b855184529481019486945092810192600101612b79565b604051612b9681611261602082019485612214565b604051612b968161126160208201948561225f565b64ffffffffff808311612c505766ffffffffffffff821690603883901c1683818110612c46570301915b64ffffffffff60381b60389190911b1664ffffffffff60381b19929092166001600160601b031991909116171790565b9003900391612c16565b604051637149a3c160e01b815260048101849052602490fd5b9060405160209060208101915f80516020612ef583398151915260401b83526040820160208651919601915f5b828110612cca5750505050612cc3815f80516020612ed5833981519152949503601f198101835282610411565b5190201890565b835188529681019692810192600101612c96565b905f80516020612ed583398151915291604051612d0381611261602082019485612214565b51902060f89190911b6001600160f81b031916181890565b905f80516020612ed583398151915291604051612d038161126160208201948561225f565b9190915f905b602090818310612d665784518155930192601f1990910190600101612d46565b929391905080612ae857505050565b929192602090818310612d665784518155930192601f1990910190600101612d46565b8060801c906015809160018060801b031604604051926020906020850160208460051b8701016040528386525f5b848110612dd65750505050505090565b825182529185019190830190600101612dc6565b9291925b602090818310612e0e5780548552930192601f1990910190600101612dee565b91905092919280612e1e57505050565b5f199060031b1c9081835116911990541617905256fe8c0b5119d4cec7b284c6b1b39252a03d1e2f2d7451a5895562524c113bb952be86425bff6b57326c7859e89024fe4f238ca327a1ae4a230180dd2f0e88aaa7d900000000000000000000746243686172616374657273000000004f776e65727300000000000000007462436861726163746572730000000042616c616e6365738dbb3a9672eebfd3773e72dd9c102393436816d832c7ba9e1e1ac8fcadcac7a93b4102da22e32d82fc925482184f16c09fd4281692720b87d124aef6da48a0f1000000000000000074624368617261637465727300000000546f6b656e55524914e2fcc58e58e68ec7edc30c8d50dccc3ce2714a623ec81f46b6a63922d76569","linkReferences":{}},"methodIdentifiers":{"_msgSender()":"119df25f","_msgValue()":"45ec9354","_world()":"e1af802c","getCharacterIdFromOwnerAddress(address)":"06a3432f","getOwner(bytes32)":"deb931a2","getOwnerAddress(bytes32)":"00d43ec6","isValidCharacterId(bytes32)":"623daa05","isValidOwner(bytes32,address)":"9b63ec05","mintCharacter(address,bytes32,string)":"143f3021","supportsInterface(bytes4)":"01ffc9a7"},"id":390}