{"abi":[{"type":"function","name":"_msgSender","inputs":[],"outputs":[{"name":"sender","type":"address","internalType":"address"}],"stateMutability":"view"},{"type":"function","name":"_msgValue","inputs":[],"outputs":[{"name":"value","type":"uint256","internalType":"uint256"}],"stateMutability":"view"},{"type":"function","name":"_world","inputs":[],"outputs":[{"name":"","type":"address","internalType":"address"}],"stateMutability":"view"},{"type":"function","name":"adminCreateShop","inputs":[{"name":"x","type":"uint16","internalType":"uint16"},{"name":"y","type":"uint16","internalType":"uint16"},{"name":"shopData","type":"tuple","internalType":"struct ShopsData","components":[{"name":"gold","type":"uint256","internalType":"uint256"},{"name":"maxGold","type":"uint256","internalType":"uint256"},{"name":"priceMarkup","type":"uint256","internalType":"uint256"},{"name":"priceMarkdown","type":"uint256","internalType":"uint256"},{"name":"restockTimestamp","type":"uint256","internalType":"uint256"},{"name":"sellableItems","type":"uint256[]","internalType":"uint256[]"},{"name":"buyableItems","type":"uint256[]","internalType":"uint256[]"},{"name":"restock","type":"uint256[]","internalType":"uint256[]"},{"name":"stock","type":"uint256[]","internalType":"uint256[]"}]},{"name":"shopMetadataUri","type":"string","internalType":"string"}],"outputs":[{"name":"entityId","type":"bytes32","internalType":"bytes32"}],"stateMutability":"nonpayable"},{"type":"function","name":"adminSpawnMob","inputs":[{"name":"mobId","type":"uint256","internalType":"uint256"},{"name":"x","type":"uint16","internalType":"uint16"},{"name":"y","type":"uint16","internalType":"uint16"}],"outputs":[{"name":"entityId","type":"bytes32","internalType":"bytes32"}],"stateMutability":"nonpayable"},{"type":"function","name":"adminUpdateShop","inputs":[{"name":"shopEntityId","type":"bytes32","internalType":"bytes32"},{"name":"shopData","type":"tuple","internalType":"struct ShopsData","components":[{"name":"gold","type":"uint256","internalType":"uint256"},{"name":"maxGold","type":"uint256","internalType":"uint256"},{"name":"priceMarkup","type":"uint256","internalType":"uint256"},{"name":"priceMarkdown","type":"uint256","internalType":"uint256"},{"name":"restockTimestamp","type":"uint256","internalType":"uint256"},{"name":"sellableItems","type":"uint256[]","internalType":"uint256[]"},{"name":"buyableItems","type":"uint256[]","internalType":"uint256[]"},{"name":"restock","type":"uint256[]","internalType":"uint256[]"},{"name":"stock","type":"uint256[]","internalType":"uint256[]"}]}],"outputs":[],"stateMutability":"nonpayable"},{"type":"function","name":"supportsInterface","inputs":[{"name":"interfaceId","type":"bytes4","internalType":"bytes4"}],"outputs":[{"name":"","type":"bool","internalType":"bool"}],"stateMutability":"pure"},{"type":"event","name":"Store_SetRecord","inputs":[{"name":"tableId","type":"bytes32","indexed":true,"internalType":"ResourceId"},{"name":"keyTuple","type":"bytes32[]","indexed":false,"internalType":"bytes32[]"},{"name":"staticData","type":"bytes","indexed":false,"internalType":"bytes"},{"name":"encodedLengths","type":"bytes32","indexed":false,"internalType":"EncodedLengths"},{"name":"dynamicData","type":"bytes","indexed":false,"internalType":"bytes"}],"anonymous":false},{"type":"error","name":"InvalidShopEntity","inputs":[]},{"type":"error","name":"NotAdmin","inputs":[]},{"type":"error","name":"Slice_OutOfBounds","inputs":[{"name":"data","type":"bytes","internalType":"bytes"},{"name":"start","type":"uint256","internalType":"uint256"},{"name":"end","type":"uint256","internalType":"uint256"}]}],"bytecode":{"object":"0x6080806040523461001657611373908161001b8239f35b5f80fdfe60806040526004361015610011575f80fd5b5f3560e01c806301ffc9a7146100845780630ced7b041461007f578063119df25f1461007a578063327485ea1461007557806345ec9354146100705780637f8db25f1461006b5763e1af802c14610066575f80fd5b610581565b6104ca565b6104ab565b6103d6565b6101f9565b61010f565b346100d85760203660031901126100d85760043563ffffffff60e01b81168091036100d85763b5dee12760e01b81149081156100c7575b50151560805260206080f35b6301ffc9a760e01b149050816100bb565b5f80fd5b6024359061ffff821682036100d857565b6044359061ffff821682036100d857565b6004359061ffff821682036100d857565b346100d85760603660031901126100d8576101286100dc565b6101306100ed565b9061014161013c6108db565b6108ad565b156101dd5761017f916020916001600160a01b0361015d610bd2565b16905f6040518096819582946302b7884960e31b8452600435600485016105aa565b03925af180156101d8576101a5915f916101a9575b506040519081529081906020820190565b0390f35b6101cb915060203d6020116101d1575b6101c3818361026c565b81019061059b565b5f610194565b503d6101b9565b6105c5565b604051637bfa4b9f60e01b8152600490fd5b5f9103126100d857565b346100d8575f3660031901126100d85760206102136108db565b6040516001600160a01b039091168152f35b634e487b7160e01b5f52604160045260245ffd5b6001600160401b03811161024c57604052565b610225565b60c081019081106001600160401b0382111761024c57604052565b601f909101601f19168101906001600160401b0382119082101761024c57604052565b6040519061012082016001600160401b0381118382101761024c57604052565b81601f820112156100d8578035916020916001600160401b03841161024c578360051b90604051946102e38584018761026c565b855283808601928201019283116100d8578301905b828210610306575050505090565b813581529083019083016102f8565b9190610120838203126100d85761032a61028f565b8335815260208085013590820152604080850135908201526060808501359082015260808085013590820152926001600160401b039160a08201358381116100d857816103789184016102af565b60a086015260c08201358381116100d857816103959184016102af565b60c086015260e08201358381116100d857816103b29184016102af565b60e086015261010092838301359081116100d8576103d092016102af565b90830152565b346100d85760403660031901126100d8576004356024356001600160401b0381116100d857610409903690600401610315565b61041461013c6108db565b156101dd576001600160a01b03610429610bd2565b604051630124e45760e71b8152600481018590529160209183916024918391165afa9081156101d8575f9161047c575b501561046a57610468916108f2565b005b6040516346db041560e01b8152600490fd5b61049e915060203d6020116104a4575b610496818361026c565b8101906105d0565b5f610459565b503d61048c565b346100d8575f3660031901126100d8576020604051601f193601358152f35b346100d85760803660031901126100d8576104e36100fe565b6104eb6100dc565b6001600160401b03916044358381116100d85761050c903690600401610315565b606435928484116100d857366023850112156100d857836004013594851161024c5760405192610546601f8701601f19166020018561026c565b85845236602487870101116100d8575f6020876101a5986024610571990183890137860101526105e8565b6040519081529081906020820190565b346100d8575f3660031901126100d8576020610213610bd2565b908160209103126100d8575190565b90815261ffff91821660208201529116604082015260600190565b6040513d5f823e3d90fd5b908160209103126100d8575180151581036100d85790565b906105f461013c6108db565b156101dd5761065c9061061761060b61060b610bd2565b6001600160a01b031690565b94604051906020968261063f816106318a8c809801610739565b03601f19810183528261026c565b5f604051809781958294638cc68cc760e01b84526004840161081d565b03925af180156101d8576106a19386935f926106e7575b505f61068361060b61060b610bd2565b92604051968795869485936302b7884960e31b8552600485016105aa565b03925af19283156101d8575f936106c2575b50506106bf90826108f2565b90565b6106bf92935090816106df92903d106101d1576101c3818361026c565b91905f6106b3565b6106ff919250843d86116101d1576101c3818361026c565b905f610673565b9081518082526020808093019301915f5b828110610725575050505090565b835185529381019392810192600101610717565b906106bf916020815281516020820152602082015160408201526040820151606082015260608201516080820152608082015160a082015260a08201519061078f610120928360c0840152610140830190610706565b916107ac60c085015193601f1994858583030160e0860152610706565b6107c760e08601519161010092868683030184870152610706565b9401519282850301910152610706565b5f5b8381106107e85750505f910152565b81810151838201526020016107d9565b90602091610811815180928185528580860191016107d7565b601f01601f1916010190565b909161083b6106bf93600284526060602085015260608401906107f8565b9160408184039101526107f8565b60408051919082016001600160401b0381118382101761024c576040526001825260203681840137565b634e487b7160e01b5f52603260045260245ffd5b8051156108945760200190565b610873565b80518210156108945760209160051b010190565b6108b5610849565b805115610894576001600160a01b0390911660208201526108d5906109dd565b60f81c90565b36603319013560601c9081156108ed57565b339150565b906109a89181516020830151604084015160608501519060808601519260405194602086015260408501526060840152608083015260a082015260a0815261093981610251565b60a08301519260c08101519061010060e0820151910151610964865191845193805195825199610a83565b9561096d610849565b9561097787610887565b528060b51b9380608d1b938060651b9380603d1b9360051b9260051b9160051b9060051b0101011717171791610b06565b565b9081518082526020808093019301915f5b8281106109c9575050505090565b8351855293810193928101926001016109bb565b6001600160a01b036109ed610bd2565b163081036109ff57506106bf90610c07565b604051638c364d5960e01b81526420b236b4b760591b631d18955160e21b0160048201526080602482015291602091839182908190610a429060848301906109aa565b5f6044830152630101000160d81b606483015203915afa9081156101d8575f91610a6a575090565b6106bf915060203d6020116101d1576101c3818361026c565b91610aa5610a99610a9f610a996106bf96610c7e565b94610c7e565b92610c7e565b604051948592602094610ac0815180928880890191016107d7565b8401610ad4825180938880850191016107d7565b01610ae7825180938780850191016107d7565b01610afa825180938680850191016107d7565b0103808452018261026c565b909291906001600160a01b03610b1a610bd2565b16308103610b2d5750926109a893610cdd565b909192813b156100d85760405163298314fb60e01b81526453686f707360581b631d18955160e21b01600482015260a06024820152945f948694859387938593610bae9390929190610b9a90610b879060a48801906109aa565b60031992838883030160448901526107f8565b9260648601528483030160848501526107f8565b03925af180156101d857610bbf5750565b80610bcc6109a892610239565b806101ef565b7f629a4c26e296b22a8e0856e9f6ecb2d1008d7e00081111962cd175fa7488e175546001600160a01b0316806106bf57503390565b60405160208160208101936420b236b4b760591b631d18955160e21b0185526040820160208251919201935f5b828110610c6757505050610c51925003601f19810183528261026c565b5190205f80516020611313833981519152185490565b855184529481019486945092810192600101610c34565b80518060051b60209180820460201481151715610cd85790604051936020850191601f19603f8288010116604052855260205f9101905b838110610cc457505050505090565b815183529184019190840190600101610cb5565b611031565b60408051655461626c657360501b66746273746f726560c81b01602082019081526453686f707360581b631d18955160e21b0182840181905283835296979295949291606091908281016001600160401b0381118282101761024c5788525190205f80516020611313833981519152185491610d576110ea565b905f5b8251811015610e0457610d8e610d81610d738386610899565b516001600160581b03191690565b6001600160581b03191690565b6001808260581c1614610da5575b50600101610d5a565b841c90813b156100d8575f898d9389838c8f8c610dd79151998a97889687956315c19b2760e21b87526004870161108e565b03925af19182156101d857600192610df1575b5090610d9c565b80610bcc610dfe92610239565b5f610dea565b50977f8dbb3a9672eebfd3773e72dd9c102393436816d832c7ba9e1e1ac8fcadcac7a9885180610e378d8b8a8c85611052565b0390a2610e52610e4686611007565b855160208701916111c6565b60ff808460e01c1680610eff575b50505f5b8151811015610ef357610e7d610d81610d738385610899565b6002808260581c1614610e94575b50600101610e64565b831c90813b156100d8575f888c9388838b610ec68f8c9051998a9788968795635b28cdaf60e01b87526004870161108e565b03925af19182156101d857600192610ee0575b5090610e8b565b80610bcc610eed92610239565b5f610ed9565b50505050505050509050565b9791989296959490999386610f138761120f565b555f97602086015b8c8a16908b821015610f6457610f5b8e9282610f566001948f8f8f64ffffffffff92610f4691611239565b956028026038011c1680946111c6565b611045565b9a011698610f1b565b50509399929850939950939495505f80610e60565b6953746f7265486f6f6b7360301b66746273746f726560c81b01815281516020918201928201915f5b828110610fb0575050505090565b835185529381019392810192600101610fa2565b6453686f707360581b631d18955160e21b01815281516020918201928201915f5b828110610ff3575050505090565b835185529381019392810192600101610fe5565b60405161101c81610631602082019485610fc4565b5190205f805160206113138339815191521890565b634e487b7160e01b5f52601160045260245ffd5b91908201809211610cd857565b906106bf949261106d61107b926080855260808501906109aa565b9083820360208501526107f8565b92604082015260608184039101526107f8565b9594936110d26110e5936110c460a096946453686f707360581b631d18955160e21b018b5260c060208c015260c08b01906109aa565b9089820360408b01526107f8565b91606088015286820360808801526107f8565b930152565b6110f2610849565b805115610894576106bf906453686f707360581b631d18955160e21b0160208201526040516111b26111945f80516020611333833981519152602084018461113a8783610f79565b039461114e601f199687810183528261026c565b519020189360405161117481611168602082019485610f79565b0386810183528261026c565b5190205f80516020611353833981519152185460381c64ffffffffff1690565b916040519260208401948592603f83870101166040528185526112c8565b60018060801b039051169060801b17611276565b9291925b6020908183106111ea5784518155930192601f19909101906001016111ca565b9293919050806111f957505050565b5f199060031b1c90818354169119905116179055565b60405161122481610631602082019485610fc4565b5190205f805160206113538339815191521890565b905f805160206113338339815191529160405161125e81610631602082019485610fc4565b51902060f89190911b6001600160f81b031916181890565b8060801c906015809160018060801b031604604051926020906020850160208460051b8701016040528386525f5b8481106112b45750505050505090565b8251825291850191908301906001016112a4565b9291925b6020908183106112ec5780548552930192601f19909101906001016112cc565b919050929192806112fc57505050565b5f199060031b1c9081835116911990541617905256fe86425bff6b57326c7859e89024fe4f238ca327a1ae4a230180dd2f0e88aaa7d93b4102da22e32d82fc925482184f16c09fd4281692720b87d124aef6da48a0f114e2fcc58e58e68ec7edc30c8d50dccc3ce2714a623ec81f46b6a63922d76569","linkReferences":{}},"methodIdentifiers":{"_msgSender()":"119df25f","_msgValue()":"45ec9354","_world()":"e1af802c","adminCreateShop(uint16,uint16,(uint256,uint256,uint256,uint256,uint256,uint256[],uint256[],uint256[],uint256[]),string)":"7f8db25f","adminSpawnMob(uint256,uint16,uint16)":"0ced7b04","adminUpdateShop(bytes32,(uint256,uint256,uint256,uint256,uint256,uint256[],uint256[],uint256[],uint256[]))":"327485ea","supportsInterface(bytes4)":"01ffc9a7"},"id":358}