{"abi":[{"type":"function","name":"_msgSender","inputs":[],"outputs":[{"name":"sender","type":"address","internalType":"address"}],"stateMutability":"view"},{"type":"function","name":"_msgValue","inputs":[],"outputs":[{"name":"value","type":"uint256","internalType":"uint256"}],"stateMutability":"view"},{"type":"function","name":"_world","inputs":[],"outputs":[{"name":"","type":"address","internalType":"address"}],"stateMutability":"view"},{"type":"function","name":"getCharacterOwner","inputs":[{"name":"characterId","type":"bytes32","internalType":"bytes32"}],"outputs":[{"name":"","type":"address","internalType":"address"}],"stateMutability":"view"},{"type":"function","name":"supportsInterface","inputs":[{"name":"interfaceId","type":"bytes4","internalType":"bytes4"}],"outputs":[{"name":"","type":"bool","internalType":"bool"}],"stateMutability":"pure"},{"type":"function","name":"validateEquipment","inputs":[{"name":"characterId","type":"bytes32","internalType":"bytes32"},{"name":"itemId","type":"uint256","internalType":"uint256"}],"outputs":[{"name":"","type":"bool","internalType":"bool"}],"stateMutability":"view"},{"type":"error","name":"Slice_OutOfBounds","inputs":[{"name":"data","type":"bytes","internalType":"bytes"},{"name":"start","type":"uint256","internalType":"uint256"},{"name":"end","type":"uint256","internalType":"uint256"}]}],"bytecode":{"object":"0x6080806040523461001657611469908161001b8239f35b5f80fdfe60806040526004361015610011575f80fd5b5f3560e01c806301ffc9a714610074578063119df25f1461006f57806343b0d4341461006a57806345ec9354146100655780639f685a16146100605763e1af802c1461005b575f80fd5b61018d565b610162565b610143565b610108565b6100cc565b346100c85760203660031901126100c85760043563ffffffff60e01b81168091036100c85763b5dee12760e01b81149081156100b7575b50151560805260206080f35b6301ffc9a760e01b149050816100ab565b5f80fd5b346100c8575f3660031901126100c85736603319013560601c8015610101575b6040516001600160a01b039091168152602090f35b50336100ec565b346100c85760203660031901126100c85760206101386101266102b0565b600435610132826102da565b526107e5565b60601c604051908152f35b346100c8575f3660031901126100c8576020604051601f193601358152f35b346100c85760403660031901126100c85760206101836024356004356101dc565b6040519015158152f35b346100c8575f3660031901126100c85760206101a7610cbc565b6040516001600160a01b039091168152f35b634e487b7160e01b5f52602160045260245ffd5b600611156101d757565b6101b9565b6101e59061036b565b61020c6102086101f4846104de565b60408101519060208151910151918561052d565b1590565b61026e5761021982610559565b610222816101cd565b80610246575060a060e0610238610243946106a7565b920151910151111590565b90565b806102526001926101cd565b1461025e575050600190565b608060e0610238610243946105ca565b50505f90565b634e487b7160e01b5f52604160045260245ffd5b601f909101601f19168101906001600160401b038211908210176102ab57604052565b610274565b60408051919082016001600160401b038111838210176102ab576040526001825260203681840137565b8051156102e75760200190565b634e487b7160e01b5f52603260045260245ffd5b604051906101a082016001600160401b038111838210176102ab576040525f610180838281528260208201528260408201528260608201528260808201528260a08201528260c08201528260e0820152826101008201528261012082015282610140820152826101608201520152565b610390906103776102fb565b506103806102b0565b9061038a826102da565b526109ff565b505061039a6102fb565b906020810151906104a66040820151916103c06103bb606083015160f81c90565b6110fb565b9060618101519060818101519060a18101519060c1810151906104848a61047a60e1840151936101206104006103fb61010184015160f81c90565b61110a565b936104746104166103fb61010286015160f81c90565b9361046a61042c6103fb61010384015160f81c90565b9161046061045661010561044d61044861010486015160f81c90565b611116565b93015160f81c90565b1515610180870152565b6101608501610c8e565b6101408301610ca4565b01610ca4565b6101008c01610ca4565b60e08a015260c089015260a08801526080870152606086015260408501610cb0565b6020830152815290565b60405190606082016001600160401b038111838210176102ab576040525f6040838281528260208201520152565b610503906104ea6104b0565b506104f36102b0565b906104fd826102da565b52610ac9565b505061050d6104b0565b906020810151906060604082015191015160408401526020830152815290565b91908251126105525760208201511261026e57606001511261054e57600190565b5f90565b5050505f90565b610575906105656102b0565b9061056f826102da565b526108a9565b60f81c60068110156101d75790565b6040519060e082016001600160401b038111838210176102ab576040525f60c0838281528260208201528260408201528260608201528260808201528260a08201520152565b6105ef906105d6610584565b506105df6102b0565b906105e9826102da565b52610b5f565b50506105f9610584565b9060208101519060408101519060608101519060808101519060a08101519060e060c082015191015160f81c61062e81610c9a565b61063781610c9a565b60c088015260a08701526080860152606085015260408401526020830152815290565b6040519061010082016001600160401b038111838210176102ab57604052606060e0835f81525f60208201525f60408201525f838201525f60808201525f60a08201525f60c08201520152565b6106d264ffffffffff916106b961065a565b506106c26102b0565b906106cc826102da565b52610bf6565b9192906106dd61065a565b9360208101519060408101519060608101519060808101519060a08101519060e060c082015191015160c08b015260a08a01526080890152606088015260408701526020860152845260381c16908051821161074c57906020610744920160801b176113f3565b60e082015290565b6084826040519283916323230fa360e01b83526060600484015261077f8251809381606487015260208787019101610954565b5f60248401526044830152601f01601f19168101030190fd5b908160209103126100c8575190565b9081518082526020808093019301915f5b8281106107c6575050505090565b8351855293810193928101926001016107b8565b6040513d5f823e3d90fd5b6001600160a01b036107f5610cbc565b16308103610807575061024390610cf1565b604051638c364d5960e01b8152694368617261637465727360301b631d18955160e21b016004820152608060248201529160209183918290819061084f9060848301906107a7565b60016044830152665504022014200160c01b606483015203915afa9081156108a4575f9161087b575090565b610243915060203d60201161089d575b6108958183610288565b810190610798565b503d61088b565b6107da565b6001600160a01b036108b9610cbc565b163081036108cb575061024390610d7f565b604051638c364d5960e01b8152644974656d7360581b631d18955160e21b016004820152608060248201529160209183918290819061090e9060848301906107a7565b5f6044830152660308200809010160c51b606483015203915afa9081156108a4575f9161087b575090565b6001600160401b0381116102ab57601f01601f191660200190565b5f5b8381106109655750505f910152565b8181015183820152602001610956565b81601f820112156100c857805161098b81610939565b926109996040519485610288565b818452602082840101116100c8576102439160208085019101610954565b90916060828403126100c85781516001600160401b0392908381116100c857846109e2918301610975565b9360208201519360408301519081116100c8576102439201610975565b6001600160a01b03610a0f610cbc565b16308103610a285750610a2190610e5a565b9192909190565b60405163419b58fd60e01b815264537461747360581b631d18955160e21b0160048201526060602482015292915f91849182908190610a6b9060648301906107a7565b6fe60d002020012020202020010101010160781b604483015203915afa9081156108a4575f80935f93610a9f575b50929190565b91935050610abf91503d805f833e610ab78183610288565b8101906109b7565b929092915f610a99565b6001600160a01b03610ad9610cbc565b16308103610aeb5750610a2190610f02565b60405163419b58fd60e01b81526f537461745265737472696374696f6e73631d18955160e21b0160048201526060602482015292915f91849182908190610b369060648301906107a7565b6503001801010160cd1b604483015203915afa9081156108a4575f80935f93610a9f5750929190565b6001600160a01b03610b6f610cbc565b16308103610b815750610a2190610f8c565b60405163419b58fd60e01b81526941726d6f72537461747360301b631d18955160e21b0160048201526060602482015292915f91849182908190610bc99060648301906107a7565b69c107002020202020200160a81b604483015203915afa9081156108a4575f80935f93610a9f5750929190565b6001600160a01b03610c06610cbc565b16308103610c185750610a2190611017565b60405163419b58fd60e01b81526a576561706f6e537461747360281b631d18955160e21b0160048201526060602482015292915f91849182908190610c619060648301906107a7565b690700380901010101010160ad1b604483015203915afa9081156108a4575f80935f93610a9f5750929190565b600a8210156101d75752565b600411156101d757565b610cad82610c9a565b52565b60038210156101d75752565b7f629a4c26e296b22a8e0856e9f6ecb2d1008d7e00081111962cd175fa7488e175546001600160a01b03168061024357503390565b610cfa90611244565b5f905f5b60018110610d51575081816020821015610d3b575b505080548260031b1b916020039081601411610d2e57505090565b600101549060031b1c1790565b90809350601f925060051c019116905f80610d13565b9160ff665504022014200160c01b84601b0360031b1c168101809111610d7a5791600101610cfe565b610e28565b6040516020816020810193644974656d7360581b631d18955160e21b0185526040820160208251919201935f5b828110610ddf57505050610dc9925003601f198101835282610288565b5190205f80516020611449833981519152185490565b855184529481019486945092810192600101610dac565b90610e0082610939565b610e0d6040519182610288565b8281528092610e1e601f1991610939565b0190602036910137565b634e487b7160e01b5f52601160045260245ffd5b60ff1660ff8114610d7a5760010190565b91908201809211610d7a57565b5f906060906040519060209082610e7560208201928361116e565b0392610e89601f1994858101835282610288565b5190205f805160206114498339815191521890604051928061012585011660405260e6845260208401929160e6915b81831015610eea57505080610ece575b50505092565b5f199060031b1c908183511691199054161790525f8080610ec8565b81600185839495979654875201940194019190610eb8565b5f906060906040519060209082610f1d6020820192836111b1565b0392610f31601f1994858101835282610288565b5190205f8051602061144983398151915218906040519280609f850116604052606084526020840192916060915b81831015610f7457505080610ece5750505092565b81600185839495979654875201940194019190610f5f565b5f906060906040519060209082610fa76020820192836111fc565b0392610fbb601f1994858101835282610288565b5190205f805160206114498339815191521890604051928061010085011660405260c1845260208401929160c1915b81831015610fff57505080610ece5750505092565b81600185839495979654875201940194019190610fea565b611020816112bf565b604051611042601f19928361011f84011660405260e083526020830190611383565b906040516110656020820192826110598786611125565b03908101835282610288565b5190207f14e2fcc58e58e68ec7edc30c8d50dccc3ce2714a623ec81f46b6a63922d76569185461109d66ffffffffffffff8216610df6565b925f92602085015b60ff85169060018210156110f1576110eb91816110e06110e59364ffffffffff896110d08c8b6112e2565b956028026038011c1680946113d0565b610e4d565b94610e3c565b936110a5565b5050949193925050565b60ff1660038110156101d75790565b60ff1661024381610c9a565b60ff16600a8110156101d75790565b6a576561706f6e537461747360281b631d18955160e21b01815281516020918201928201915f5b82811061115a575050505090565b83518552938101939281019260010161114c565b64537461747360581b631d18955160e21b01815281516020918201928201915f5b82811061119d575050505090565b83518552938101939281019260010161118f565b6f537461745265737472696374696f6e73631d18955160e21b01815281516020918201928201915f5b8281106111e8575050505090565b8351855293810193928101926001016111da565b6941726d6f72537461747360301b631d18955160e21b01815281516020918201928201915f5b828110611230575050505090565b835185529381019392810192600101611222565b6040516020816020810193694368617261637465727360301b631d18955160e21b0185526040820160208251919201935f5b8281106112a857505050611293925003601f198101835282610288565b5190205f805160206114498339815191521890565b855184529481019486945092810192600101611276565b604051611293816112d4602082019485611125565b03601f198101835282610288565b604080516a576561706f6e537461747360281b631d18955160e21b0160208083019182528451938301969594919391810191905f5b82811061136f5750505050611357817f3b4102da22e32d82fc925482184f16c09fd4281692720b87d124aef6da48a0f1959603601f198101835282610288565b51902060f89190911b6001600160f81b031916181890565b835189529781019792810192600101611317565b91909160e0905b6020908183106113aa5780548552930192601f199091019060010161138a565b919050929192806113ba57505050565b5f199060031b1c90818351169119905416179052565b9291926020908183106113aa5780548552930192601f199091019060010161138a565b6040805160206020600160801b0384168201810190925260016001607b1b03600584901c16808252909260801c8284015f5b83811061143457505050505090565b82518252918401919084019060010161142556fe86425bff6b57326c7859e89024fe4f238ca327a1ae4a230180dd2f0e88aaa7d9","linkReferences":{}},"methodIdentifiers":{"_msgSender()":"119df25f","_msgValue()":"45ec9354","_world()":"e1af802c","getCharacterOwner(bytes32)":"43b0d434","supportsInterface(bytes4)":"01ffc9a7","validateEquipment(bytes32,uint256)":"9f685a16"},"id":536}