{"abi":[{"type":"function","name":"applyStatusEffectModifiers","inputs":[{"name":"baseStats","type":"tuple","internalType":"struct AdjustedCombatStats","components":[{"name":"strength","type":"int256","internalType":"int256"},{"name":"agility","type":"int256","internalType":"int256"},{"name":"intelligence","type":"int256","internalType":"int256"},{"name":"armor","type":"int256","internalType":"int256"},{"name":"maxHp","type":"int256","internalType":"int256"},{"name":"currentHp","type":"int256","internalType":"int256"}]},{"name":"strModifier","type":"int256","internalType":"int256"},{"name":"agiModifier","type":"int256","internalType":"int256"},{"name":"intModifier","type":"int256","internalType":"int256"},{"name":"hpModifier","type":"int256","internalType":"int256"},{"name":"armorModifier","type":"int256","internalType":"int256"}],"outputs":[{"name":"adjustedStats","type":"tuple","internalType":"struct AdjustedCombatStats","components":[{"name":"strength","type":"int256","internalType":"int256"},{"name":"agility","type":"int256","internalType":"int256"},{"name":"intelligence","type":"int256","internalType":"int256"},{"name":"armor","type":"int256","internalType":"int256"},{"name":"maxHp","type":"int256","internalType":"int256"},{"name":"currentHp","type":"int256","internalType":"int256"}]}],"stateMutability":"pure"},{"type":"function","name":"calculateBaseCombatStats","inputs":[{"name":"baseStats","type":"tuple","internalType":"struct StatsData","components":[{"name":"strength","type":"int256","internalType":"int256"},{"name":"agility","type":"int256","internalType":"int256"},{"name":"class","type":"Classes","internalType":"enum Classes"},{"name":"intelligence","type":"int256","internalType":"int256"},{"name":"maxHp","type":"int256","internalType":"int256"},{"name":"currentHp","type":"int256","internalType":"int256"},{"name":"experience","type":"uint256","internalType":"uint256"},{"name":"level","type":"uint256","internalType":"uint256"},{"name":"powerSource","type":"PowerSource","internalType":"enum PowerSource"},{"name":"race","type":"Race","internalType":"enum Race"},{"name":"startingArmor","type":"ArmorType","internalType":"enum ArmorType"},{"name":"advancedClass","type":"AdvancedClass","internalType":"enum AdvancedClass"},{"name":"hasSelectedAdvancedClass","type":"bool","internalType":"bool"}]},{"name":"armor","type":"int256","internalType":"int256"}],"outputs":[{"name":"combatStats","type":"tuple","internalType":"struct AdjustedCombatStats","components":[{"name":"strength","type":"int256","internalType":"int256"},{"name":"agility","type":"int256","internalType":"int256"},{"name":"intelligence","type":"int256","internalType":"int256"},{"name":"armor","type":"int256","internalType":"int256"},{"name":"maxHp","type":"int256","internalType":"int256"},{"name":"currentHp","type":"int256","internalType":"int256"}]}],"stateMutability":"pure"},{"type":"function","name":"calculateEquipmentBonuses","inputs":[{"name":"baseStats","type":"tuple","internalType":"struct StatsData","components":[{"name":"strength","type":"int256","internalType":"int256"},{"name":"agility","type":"int256","internalType":"int256"},{"name":"class","type":"Classes","internalType":"enum Classes"},{"name":"intelligence","type":"int256","internalType":"int256"},{"name":"maxHp","type":"int256","internalType":"int256"},{"name":"currentHp","type":"int256","internalType":"int256"},{"name":"experience","type":"uint256","internalType":"uint256"},{"name":"level","type":"uint256","internalType":"uint256"},{"name":"powerSource","type":"PowerSource","internalType":"enum PowerSource"},{"name":"race","type":"Race","internalType":"enum Race"},{"name":"startingArmor","type":"ArmorType","internalType":"enum ArmorType"},{"name":"advancedClass","type":"AdvancedClass","internalType":"enum AdvancedClass"},{"name":"hasSelectedAdvancedClass","type":"bool","internalType":"bool"}]},{"name":"equipmentStats","type":"tuple","internalType":"struct CharacterEquipmentData","components":[{"name":"strBonus","type":"int256","internalType":"int256"},{"name":"agiBonus","type":"int256","internalType":"int256"},{"name":"intBonus","type":"int256","internalType":"int256"},{"name":"hpBonus","type":"int256","internalType":"int256"},{"name":"armor","type":"int256","internalType":"int256"},{"name":"equippedArmor","type":"uint256[]","internalType":"uint256[]"},{"name":"equippedWeapons","type":"uint256[]","internalType":"uint256[]"},{"name":"equippedSpells","type":"uint256[]","internalType":"uint256[]"},{"name":"equippedConsumables","type":"uint256[]","internalType":"uint256[]"},{"name":"equippedAccessories","type":"uint256[]","internalType":"uint256[]"}]}],"outputs":[{"name":"combatStats","type":"tuple","internalType":"struct AdjustedCombatStats","components":[{"name":"strength","type":"int256","internalType":"int256"},{"name":"agility","type":"int256","internalType":"int256"},{"name":"intelligence","type":"int256","internalType":"int256"},{"name":"armor","type":"int256","internalType":"int256"},{"name":"maxHp","type":"int256","internalType":"int256"},{"name":"currentHp","type":"int256","internalType":"int256"}]}],"stateMutability":"pure"},{"type":"function","name":"calculateHpBonus","inputs":[{"name":"characterClass","type":"Classes","internalType":"enum Classes"},{"name":"currentLevel","type":"uint256","internalType":"uint256"}],"outputs":[{"name":"hpBonus","type":"int256","internalType":"int256"}],"stateMutability":"pure"},{"type":"function","name":"calculateHpForLevel","inputs":[{"name":"level","type":"uint256","internalType":"uint256"}],"outputs":[{"name":"hpGain","type":"int256","internalType":"int256"}],"stateMutability":"pure"},{"type":"function","name":"calculateLevelFromExperience","inputs":[{"name":"experience","type":"uint256","internalType":"uint256"},{"name":"levelsTable","type":"uint256[]","internalType":"uint256[]"}],"outputs":[{"name":"currentLevel","type":"uint256","internalType":"uint256"}],"stateMutability":"pure"},{"type":"function","name":"calculateLevelScaling","inputs":[{"name":"baseValue","type":"int256","internalType":"int256"},{"name":"level","type":"uint256","internalType":"uint256"},{"name":"scalingFactor","type":"int256","internalType":"int256"}],"outputs":[{"name":"scaledValue","type":"int256","internalType":"int256"}],"stateMutability":"pure"},{"type":"function","name":"calculateStatCap","inputs":[{"name":"level","type":"uint256","internalType":"uint256"},{"name":"baseCap","type":"int256","internalType":"int256"},{"name":"capPerLevel","type":"int256","internalType":"int256"}],"outputs":[{"name":"statCap","type":"int256","internalType":"int256"}],"stateMutability":"pure"},{"type":"function","name":"calculateStatPointsForLevel","inputs":[{"name":"level","type":"uint256","internalType":"uint256"}],"outputs":[{"name":"statPoints","type":"int256","internalType":"int256"}],"stateMutability":"pure"},{"type":"function","name":"calculateTotalHpFromLeveling","inputs":[{"name":"level","type":"uint256","internalType":"uint256"}],"outputs":[{"name":"totalHp","type":"int256","internalType":"int256"}],"stateMutability":"pure"},{"type":"function","name":"calculateTotalStatPoints","inputs":[{"name":"level","type":"uint256","internalType":"uint256"}],"outputs":[{"name":"totalPoints","type":"int256","internalType":"int256"}],"stateMutability":"pure"},{"type":"function","name":"checkArmorStatRequirements","inputs":[{"name":"itemStats","type":"tuple","internalType":"struct ArmorStatsData","components":[{"name":"agiModifier","type":"int256","internalType":"int256"},{"name":"armorModifier","type":"int256","internalType":"int256"},{"name":"hpModifier","type":"int256","internalType":"int256"},{"name":"intModifier","type":"int256","internalType":"int256"},{"name":"minLevel","type":"uint256","internalType":"uint256"},{"name":"strModifier","type":"int256","internalType":"int256"},{"name":"armorType","type":"ArmorType","internalType":"enum ArmorType"}]},{"name":"characterStats","type":"tuple","internalType":"struct StatsData","components":[{"name":"strength","type":"int256","internalType":"int256"},{"name":"agility","type":"int256","internalType":"int256"},{"name":"class","type":"Classes","internalType":"enum Classes"},{"name":"intelligence","type":"int256","internalType":"int256"},{"name":"maxHp","type":"int256","internalType":"int256"},{"name":"currentHp","type":"int256","internalType":"int256"},{"name":"experience","type":"uint256","internalType":"uint256"},{"name":"level","type":"uint256","internalType":"uint256"},{"name":"powerSource","type":"PowerSource","internalType":"enum PowerSource"},{"name":"race","type":"Race","internalType":"enum Race"},{"name":"startingArmor","type":"ArmorType","internalType":"enum ArmorType"},{"name":"advancedClass","type":"AdvancedClass","internalType":"enum AdvancedClass"},{"name":"hasSelectedAdvancedClass","type":"bool","internalType":"bool"}]}],"outputs":[{"name":"meetsRequirements","type":"bool","internalType":"bool"}],"stateMutability":"pure"},{"type":"function","name":"checkStatRequirements","inputs":[{"name":"itemStats","type":"tuple","internalType":"struct WeaponStatsData","components":[{"name":"agiModifier","type":"int256","internalType":"int256"},{"name":"intModifier","type":"int256","internalType":"int256"},{"name":"hpModifier","type":"int256","internalType":"int256"},{"name":"maxDamage","type":"int256","internalType":"int256"},{"name":"minDamage","type":"int256","internalType":"int256"},{"name":"minLevel","type":"uint256","internalType":"uint256"},{"name":"strModifier","type":"int256","internalType":"int256"},{"name":"effects","type":"bytes32[]","internalType":"bytes32[]"}]},{"name":"characterStats","type":"tuple","internalType":"struct StatsData","components":[{"name":"strength","type":"int256","internalType":"int256"},{"name":"agility","type":"int256","internalType":"int256"},{"name":"class","type":"Classes","internalType":"enum Classes"},{"name":"intelligence","type":"int256","internalType":"int256"},{"name":"maxHp","type":"int256","internalType":"int256"},{"name":"currentHp","type":"int256","internalType":"int256"},{"name":"experience","type":"uint256","internalType":"uint256"},{"name":"level","type":"uint256","internalType":"uint256"},{"name":"powerSource","type":"PowerSource","internalType":"enum PowerSource"},{"name":"race","type":"Race","internalType":"enum Race"},{"name":"startingArmor","type":"ArmorType","internalType":"enum ArmorType"},{"name":"advancedClass","type":"AdvancedClass","internalType":"enum AdvancedClass"},{"name":"hasSelectedAdvancedClass","type":"bool","internalType":"bool"}]}],"outputs":[{"name":"meetsRequirements","type":"bool","internalType":"bool"}],"stateMutability":"pure"},{"type":"function","name":"generateBalancedBaseStats","inputs":[{"name":"randomNumber","type":"uint256","internalType":"uint256"},{"name":"existingStats","type":"tuple","internalType":"struct StatsData","components":[{"name":"strength","type":"int256","internalType":"int256"},{"name":"agility","type":"int256","internalType":"int256"},{"name":"class","type":"Classes","internalType":"enum Classes"},{"name":"intelligence","type":"int256","internalType":"int256"},{"name":"maxHp","type":"int256","internalType":"int256"},{"name":"currentHp","type":"int256","internalType":"int256"},{"name":"experience","type":"uint256","internalType":"uint256"},{"name":"level","type":"uint256","internalType":"uint256"},{"name":"powerSource","type":"PowerSource","internalType":"enum PowerSource"},{"name":"race","type":"Race","internalType":"enum Race"},{"name":"startingArmor","type":"ArmorType","internalType":"enum ArmorType"},{"name":"advancedClass","type":"AdvancedClass","internalType":"enum AdvancedClass"},{"name":"hasSelectedAdvancedClass","type":"bool","internalType":"bool"}]}],"outputs":[{"name":"stats","type":"tuple","internalType":"struct StatsData","components":[{"name":"strength","type":"int256","internalType":"int256"},{"name":"agility","type":"int256","internalType":"int256"},{"name":"class","type":"Classes","internalType":"enum Classes"},{"name":"intelligence","type":"int256","internalType":"int256"},{"name":"maxHp","type":"int256","internalType":"int256"},{"name":"currentHp","type":"int256","internalType":"int256"},{"name":"experience","type":"uint256","internalType":"uint256"},{"name":"level","type":"uint256","internalType":"uint256"},{"name":"powerSource","type":"PowerSource","internalType":"enum PowerSource"},{"name":"race","type":"Race","internalType":"enum Race"},{"name":"startingArmor","type":"ArmorType","internalType":"enum ArmorType"},{"name":"advancedClass","type":"AdvancedClass","internalType":"enum AdvancedClass"},{"name":"hasSelectedAdvancedClass","type":"bool","internalType":"bool"}]}],"stateMutability":"pure"},{"type":"function","name":"generateRandomStats","inputs":[{"name":"randomNumber","type":"uint256","internalType":"uint256"},{"name":"characterClass","type":"Classes","internalType":"enum Classes"}],"outputs":[{"name":"stats","type":"tuple","internalType":"struct StatsData","components":[{"name":"strength","type":"int256","internalType":"int256"},{"name":"agility","type":"int256","internalType":"int256"},{"name":"class","type":"Classes","internalType":"enum Classes"},{"name":"intelligence","type":"int256","internalType":"int256"},{"name":"maxHp","type":"int256","internalType":"int256"},{"name":"currentHp","type":"int256","internalType":"int256"},{"name":"experience","type":"uint256","internalType":"uint256"},{"name":"level","type":"uint256","internalType":"uint256"},{"name":"powerSource","type":"PowerSource","internalType":"enum PowerSource"},{"name":"race","type":"Race","internalType":"enum Race"},{"name":"startingArmor","type":"ArmorType","internalType":"enum ArmorType"},{"name":"advancedClass","type":"AdvancedClass","internalType":"enum AdvancedClass"},{"name":"hasSelectedAdvancedClass","type":"bool","internalType":"bool"}]}],"stateMutability":"pure"},{"type":"function","name":"validateStatChanges","inputs":[{"name":"currentStats","type":"tuple","internalType":"struct StatsData","components":[{"name":"strength","type":"int256","internalType":"int256"},{"name":"agility","type":"int256","internalType":"int256"},{"name":"class","type":"Classes","internalType":"enum Classes"},{"name":"intelligence","type":"int256","internalType":"int256"},{"name":"maxHp","type":"int256","internalType":"int256"},{"name":"currentHp","type":"int256","internalType":"int256"},{"name":"experience","type":"uint256","internalType":"uint256"},{"name":"level","type":"uint256","internalType":"uint256"},{"name":"powerSource","type":"PowerSource","internalType":"enum PowerSource"},{"name":"race","type":"Race","internalType":"enum Race"},{"name":"startingArmor","type":"ArmorType","internalType":"enum ArmorType"},{"name":"advancedClass","type":"AdvancedClass","internalType":"enum AdvancedClass"},{"name":"hasSelectedAdvancedClass","type":"bool","internalType":"bool"}]},{"name":"desiredStats","type":"tuple","internalType":"struct StatsData","components":[{"name":"strength","type":"int256","internalType":"int256"},{"name":"agility","type":"int256","internalType":"int256"},{"name":"class","type":"Classes","internalType":"enum Classes"},{"name":"intelligence","type":"int256","internalType":"int256"},{"name":"maxHp","type":"int256","internalType":"int256"},{"name":"currentHp","type":"int256","internalType":"int256"},{"name":"experience","type":"uint256","internalType":"uint256"},{"name":"level","type":"uint256","internalType":"uint256"},{"name":"powerSource","type":"PowerSource","internalType":"enum PowerSource"},{"name":"race","type":"Race","internalType":"enum Race"},{"name":"startingArmor","type":"ArmorType","internalType":"enum ArmorType"},{"name":"advancedClass","type":"AdvancedClass","internalType":"enum AdvancedClass"},{"name":"hasSelectedAdvancedClass","type":"bool","internalType":"bool"}]},{"name":"newLevel","type":"uint256","internalType":"uint256"}],"outputs":[{"name":"isValid","type":"bool","internalType":"bool"}],"stateMutability":"pure"},{"type":"error","name":"NegativeStat","inputs":[]}],"bytecode":{"object":"0x6080806040523461001a576115da908161001f823930815050f35b5f80fdfe608060409080825260049081361015610016575f80fd5b60e05f35811c91826322fa929b14610f9f575081632402e25714610f3d5781632c6e6c4c14610d9b5781632d11d1f014610d725781633c391f9214610c205781633ec2e97414610bf057816359a0698b14610b2557816382c713b114610a8c5781638eee2c36146108735781639acca118146106f5578163b728a890146105ec578163cb8c212114610523578163d9f4a418146102c1578163ece683dc14610278578163f49be66d1461011c575063f8a1a772146100d2575f80fd5b81600319360112610118573560038110156101185760209160ff60039216158061010b575b610102575b51908152f35b600691506100fc565b50600360243506156100f7565b5f80fd5b8383610360366003190112610118576101343661102b565b6101a0366101a319011261011857825161014d81610fec565b6101a4359283825260208201936101c43585526101e4356003811015610118578684015260608301966102043588526102243560808501526102443560a08501526102643560c085015261028435908401526102a43582811015610118576101008401526102c43582811015610118576101208401526102e435828110156101185761014084015261030435600a8110156101185761016084015261032435908115158203610118575f916101808501521261026a575f84511261026a575f86511261026a57509361025d61024a61026293606061023f61023360209a51845190611576565b97518a84015190611576565b945191015190611576565b916102576103443561158e565b9461139d565b61139d565b149051908152f35b8451633957c6dd60e11b8152fd5b828460203660031901126101185760209135600a811161029a57505160028152f35b603281116102ab57506001906100fc565b6001166102bb5760015b906100fc565b5f6102b5565b82846101c0366003190112610118576102d9366110ed565b906102e2611401565b8151634dddf83760e01b815284358582015290925f8260248173__$227e4555c1f608352b26068e438454dd8b$__5af4918215610519575f926104f5575b50610100808201519061033282611265565b61033b82611265565b850152610120808201519061034f82611265565b61035882611265565b850152610140808201519061036c82611265565b61037582611265565b8501526101608082015190600a8210156104e257850152610180908101511515908401526001600160401b039060076103ba836103b1846114e5565b5116820b6115c2565b16600381018091116104cf57916103b16103d8926007948752611506565b16600381018091116104bc576104539350602083019081526104056103fd845161152a565b825190611576565b60608401818152906003811215610468575060036104238251611559565b9152835182518091135f14610457575061043f91508351611576565b82525b601260808301525191829182611283565b0390f35b9061046191611576565b9052610442565b600a8113610479575b505050610442565b610484600a91611547565b9152835182518091125f146104ab57506104a09150835161139d565b82525b838080610471565b906104b59161139d565b90526104a3565b601184634e487b7160e01b5f525260245ffd5b601186634e487b7160e01b5f525260245ffd5b602187634e487b7160e01b5f525260245ffd5b6105129192503d805f833e61050a8183611008565b810190611460565b9085610320565b83513d5f823e3d90fd5b82846020366003190112610118578135600a811192835f146105e357610549600a6113b8565b93610559575b6020848451908152f35b603282119384156105b7576105789061057260286113ce565b9061139d565b931561054f5760311982019182116105a4575060209261057261059d9260011c6113ce565b918361054f565b601190634e487b7160e01b5f525260245ffd5b60091983018381116105d05790610572610578926113ce565b601183634e487b7160e01b5f525260245ffd5b610549826113b8565b82848060031936011261011857602491803583356001600160401b0381116101185761061b9036908401611205565b915f928051606310156106e257610c80810151831061064557505050506020915060649051908152f35b5f9493945b60648110610660575b50505050602092506100fc565b8361066b8284611516565b511115806106b2575b6106805760010161064a565b939450509050600182018092116106a05750602092509083808080610653565b60118491634e487b7160e01b5f52525ffd5b50600181018082116106d0576106c9859184611516565b5111610674565b87601185634e487b7160e01b5f52525ffd5b603282634e487b7160e01b5f525260245ffd5b90508236600319016102808112610118578213610118578051918083016001600160401b0381118482101761086057825283358352602435602084015260443582840152606083016064358152608435608085015260a084019460a435865260c435818110156101185760c08601526101a03660e31901126101185783519561077d87610fec565b60e4359081885261010435928360208a015261012435600381101561011857878a015261014435958660608b01526101643560808b01526101843560a08b01526101a43560c08b01526101c435908a01526101e43581811015610118576101008a01526102043581811015610118576101208a015261022435908110156101185761014089015261024435600a811015610118576101608901526102643580151581036101185761018060209901525113159485610854575b505083610848575b5050519015158152f35b5113159150838061083e565b51131593508580610836565b604185634e487b7160e01b5f525260245ffd5b8284806003193601126101185760243590600382101561011857610895611401565b918151634dddf83760e01b81528435858201525f8160248173__$227e4555c1f608352b26068e438454dd8b$__5af4908115610519575f91610a72575b508383018290526001600160401b039060076108f1836103b1846114e5565b1660038101809111610a5f57916103b161090f926007948852611506565b169060038201809211610a4c5761045394506020840191825261093d610935855161152a565b835190611576565b60608501818152919060038112156109fd575061095a8251611559565b6003835285519084518092135f146109ed5761097891508651611576565b85525b806109a15750505061098d825161136d565b8252601460808301525b5191829182611283565b600181036109c35750506109b5815161136d565b905260126080830152610997565b6002919250146109d4575b50610997565b6109de815161136d565b905260106080830152836109ce565b6109f691611576565b835261097b565b600a8113610a0c575b5061097b565b610a1590611547565b600a835285519084518092125f14610a3c57610a339150865161139d565b85525b86610a06565b610a459161139d565b8352610a36565b601185634e487b7160e01b5f525260245ffd5b601187634e487b7160e01b5f525260245ffd5b610a8691503d805f833e61050a8183611008565b856108d2565b82846020366003190112610118578135600a811192835f14610b1c57610ab2600a6113b8565b93610ac1576020848451908152f35b60328211938415610b0357610ade9061057260285b60011c6113ce565b931561054f5760311982019182116105a45750602092610572600561059d93046113ce565b60091983018381116105d05790610572610ade92610ad6565b610ab2826113b8565b5050366003190161016081126101185760c0136101185781610453925191610b4c83610fbd565b358252602082016024358152610bdb8284016044358152610bcb60608601916064358352610bbc60808801916084358352610bac60a08a019760a4358952610ba0610b9561133d565b9b60c435905161139d565b8b5260e435905161139d565b60208a015261010435905161139d565b8688015261012435905161139d565b608086015261014435905161139d565b60608401525160a083015251918291826111b0565b8284606036600319011261011857610c19602092610c126044356024356113df565b903561139d565b9051908152f35b60031984846101c036840112610118576001600160401b0390803590828211610118576101008095833603011261011857835194850185811084821117610d5f5784528181013585526020958686019360248401358552604484013586880152606484013560608801526084840135608088015260a484013560a088015260c087019360c4810135855260e48101359182116101185701913660238401121561011857820135610ccf816111ee565b92610cdc87519485611008565b81845260248985019260051b820101913683116101185760248a9201905b838210610d505750505050850152610d11366110ed565b908151905113159384610d40575b5083610d2f575050519015158152f35b60600151905113159150838061083e565b8582015190511315935085610d1f565b81358152908201908201610cfa565b604182634e487b7160e01b5f525260245ffd5b8284606036600319011261011857610c19610d9360209360443590356113df565b60243561139d565b600319915083906101c03684011261011857610db63661102b565b6101a4356001600160401b03808211610118576101408096833603011261011857845195860186811082821117610f2a578552818701358652602086019260248301358452858701926044810135845260608801936064820135855260808901966084830135885260a483013585811161011857610e39908c3691860101611205565b60a08b015260c483013585811161011857610e59908c3691860101611205565b60c08b015260e483013585811161011857610e79908c3691860101611205565b908a015261010482013584811161011857610e99908b3691850101611205565b6101008a015261012482013593841161011857610ef5610f1596610eca610f07946104539d60809836920101611205565b6101208c0152610ee6610edb61133d565b9b865190519061139d565b8b52602085015190519061139d565b60208a0152606083015190519061139d565b86880152015190519061139d565b608084015251606083015251918291826111b0565b604188634e487b7160e01b5f525260245ffd5b836101c03660031901126101185761045390610f583661102b565b9060a0610f6361133d565b9280518452602081015160208501526060810151838501526101a435606085015260808101516080850152015160a083015251918291826111b0565b8390602036600319011261011857610fb96020923561158e565b8152f35b60c081019081106001600160401b03821117610fd857604052565b634e487b7160e01b5f52604160045260245ffd5b6101a081019081106001600160401b03821117610fd857604052565b601f909101601f19168101906001600160401b03821190821017610fd857604052565b6101a0906003190112610118576040519061104582610fec565b816004358152602435602082015260443560038110156101185760408201526064356060820152608435608082015260a43560a082015260c43560c082015260e43560e082015261010435600481101561011857610100820152610124356004811015610118576101208201526101443560048110156101185761014082015261016435600a8110156101185761016082015261018435908115158203610118576101800152565b6101a0906023190112610118576040519061110782610fec565b81602435815260443560208201526064356003811015610118576040820152608435606082015260a435608082015260c43560a082015260e43560c08201526101043560e082015261012435600481101561011857610100820152610144356004811015610118576101208201526101643560048110156101185761014082015261018435600a811015610118576101608201526101a435908115158203610118576101800152565b91909160a08060c083019480518452602081015160208501526040810151604085015260608101516060850152608081015160808501520151910152565b6001600160401b038111610fd85760051b60200190565b9080601f8301121561011857602090823561121f816111ee565b9361122d6040519586611008565b81855260208086019260051b82010192831161011857602001905b828210611256575050505090565b81358152908301908301611248565b6004111561126f57565b634e487b7160e01b5f52602160045260245ffd5b9190916101a081019280518252602081015160208301526040810151600381101561126f576040830152606081015160608301526080810151608083015260a081015160a083015260c081015160c083015260e081015160e083015261010080820151906112f082611265565b830152610120808201519061130482611265565b830152610140808201519061131882611265565b8301526101608082015190600a82101561126f57830152610180809101511515910152565b6040519061134a82610fbd565b5f60a0838281528260208201528260408201528260608201528260808201520152565b9060028201915f60028412911290801582169115161761138957565b634e487b7160e01b5f52601160045260245ffd5b9190915f838201938412911290801582169115161761138957565b908160011b918083056002149015171561138957565b908115600183800514171561138957565b81810292915f8212600160ff1b82141661138957818405149015171561138957565b6040519061140e82610fec565b5f610180838281528260208201528260408201528260608201528260808201528260a08201528260c08201528260e0820152826101008201528261012082015282610140820152826101608201520152565b9060209081838203126101185782516001600160401b039384821161011857019281601f85011215610118578351611497816111ee565b946114a56040519687611008565b818652848087019260051b820101938411610118578401905b8382106114cd57505050505090565b815183811681036101185781529084019084016114be565b8051156114f25760200190565b634e487b7160e01b5f52603260045260245ffd5b8051600110156114f25760400190565b80518210156114f25760209160051b010190565b905f82601303921260138312811690601384139015161761138957565b90600919820191821360011661138957565b905f82600303921260038312811690600384139015161761138957565b81810392915f13801582851316918412161761138957565b600a811161159c5750600290565b603281116115b5576001166115b15760015b90565b5f90565b600590066115b157600190565b5f8112156115ae57600160ff1b8114611389575f039056","linkReferences":{"src/libraries/LibChunks.sol":{"LibChunks":[{"start":796,"length":20},{"start":2254,"length":20}]}}},"methodIdentifiers":{"applyStatusEffectModifiers(AdjustedCombatStats,int256,int256,int256,int256,int256)":"59a0698b","calculateBaseCombatStats(StatsData,int256)":"2402e257","calculateEquipmentBonuses(StatsData,CharacterEquipmentData)":"2c6e6c4c","calculateHpBonus(Classes,uint256)":"f8a1a772","calculateHpForLevel(uint256)":"ece683dc","calculateLevelFromExperience(uint256,uint256[])":"b728a890","calculateLevelScaling(int256,uint256,int256)":"3ec2e974","calculateStatCap(uint256,int256,int256)":"2d11d1f0","calculateStatPointsForLevel(uint256)":"22fa929b","calculateTotalHpFromLeveling(uint256)":"cb8c2121","calculateTotalStatPoints(uint256)":"82c713b1","checkArmorStatRequirements(ArmorStatsData,StatsData)":"9acca118","checkStatRequirements(WeaponStatsData,StatsData)":"3c391f92","generateBalancedBaseStats(uint256,StatsData)":"d9f4a418","generateRandomStats(uint256,Classes)":"8eee2c36","validateStatChanges(StatsData,StatsData,uint256)":"f49be66d"},"id":353}