{"abi":[{"type":"function","name":"applyStatusEffectModifiers","inputs":[{"name":"baseStats","type":"tuple","internalType":"struct AdjustedCombatStats","components":[{"name":"strength","type":"int256","internalType":"int256"},{"name":"agility","type":"int256","internalType":"int256"},{"name":"intelligence","type":"int256","internalType":"int256"},{"name":"armor","type":"int256","internalType":"int256"},{"name":"maxHp","type":"int256","internalType":"int256"},{"name":"currentHp","type":"int256","internalType":"int256"}]},{"name":"strModifier","type":"int256","internalType":"int256"},{"name":"agiModifier","type":"int256","internalType":"int256"},{"name":"intModifier","type":"int256","internalType":"int256"},{"name":"hpModifier","type":"int256","internalType":"int256"},{"name":"armorModifier","type":"int256","internalType":"int256"}],"outputs":[{"name":"adjustedStats","type":"tuple","internalType":"struct AdjustedCombatStats","components":[{"name":"strength","type":"int256","internalType":"int256"},{"name":"agility","type":"int256","internalType":"int256"},{"name":"intelligence","type":"int256","internalType":"int256"},{"name":"armor","type":"int256","internalType":"int256"},{"name":"maxHp","type":"int256","internalType":"int256"},{"name":"currentHp","type":"int256","internalType":"int256"}]}],"stateMutability":"pure"},{"type":"function","name":"calculateBaseCombatStats","inputs":[{"name":"baseStats","type":"tuple","internalType":"struct StatsData","components":[{"name":"strength","type":"int256","internalType":"int256"},{"name":"agility","type":"int256","internalType":"int256"},{"name":"class","type":"Classes","internalType":"enum Classes"},{"name":"intelligence","type":"int256","internalType":"int256"},{"name":"maxHp","type":"int256","internalType":"int256"},{"name":"currentHp","type":"int256","internalType":"int256"},{"name":"experience","type":"uint256","internalType":"uint256"},{"name":"level","type":"uint256","internalType":"uint256"},{"name":"powerSource","type":"PowerSource","internalType":"enum PowerSource"},{"name":"race","type":"Race","internalType":"enum Race"},{"name":"startingArmor","type":"ArmorType","internalType":"enum ArmorType"},{"name":"advancedClass","type":"AdvancedClass","internalType":"enum AdvancedClass"},{"name":"hasSelectedAdvancedClass","type":"bool","internalType":"bool"}]},{"name":"armor","type":"int256","internalType":"int256"}],"outputs":[{"name":"combatStats","type":"tuple","internalType":"struct AdjustedCombatStats","components":[{"name":"strength","type":"int256","internalType":"int256"},{"name":"agility","type":"int256","internalType":"int256"},{"name":"intelligence","type":"int256","internalType":"int256"},{"name":"armor","type":"int256","internalType":"int256"},{"name":"maxHp","type":"int256","internalType":"int256"},{"name":"currentHp","type":"int256","internalType":"int256"}]}],"stateMutability":"pure"},{"type":"function","name":"calculateEquipmentBonuses","inputs":[{"name":"baseStats","type":"tuple","internalType":"struct StatsData","components":[{"name":"strength","type":"int256","internalType":"int256"},{"name":"agility","type":"int256","internalType":"int256"},{"name":"class","type":"Classes","internalType":"enum Classes"},{"name":"intelligence","type":"int256","internalType":"int256"},{"name":"maxHp","type":"int256","internalType":"int256"},{"name":"currentHp","type":"int256","internalType":"int256"},{"name":"experience","type":"uint256","internalType":"uint256"},{"name":"level","type":"uint256","internalType":"uint256"},{"name":"powerSource","type":"PowerSource","internalType":"enum PowerSource"},{"name":"race","type":"Race","internalType":"enum Race"},{"name":"startingArmor","type":"ArmorType","internalType":"enum ArmorType"},{"name":"advancedClass","type":"AdvancedClass","internalType":"enum AdvancedClass"},{"name":"hasSelectedAdvancedClass","type":"bool","internalType":"bool"}]},{"name":"equipmentStats","type":"tuple","internalType":"struct CharacterEquipmentData","components":[{"name":"strBonus","type":"int256","internalType":"int256"},{"name":"agiBonus","type":"int256","internalType":"int256"},{"name":"intBonus","type":"int256","internalType":"int256"},{"name":"hpBonus","type":"int256","internalType":"int256"},{"name":"armor","type":"int256","internalType":"int256"},{"name":"equippedArmor","type":"uint256[]","internalType":"uint256[]"},{"name":"equippedWeapons","type":"uint256[]","internalType":"uint256[]"},{"name":"equippedSpells","type":"uint256[]","internalType":"uint256[]"},{"name":"equippedConsumables","type":"uint256[]","internalType":"uint256[]"},{"name":"equippedAccessories","type":"uint256[]","internalType":"uint256[]"}]}],"outputs":[{"name":"combatStats","type":"tuple","internalType":"struct AdjustedCombatStats","components":[{"name":"strength","type":"int256","internalType":"int256"},{"name":"agility","type":"int256","internalType":"int256"},{"name":"intelligence","type":"int256","internalType":"int256"},{"name":"armor","type":"int256","internalType":"int256"},{"name":"maxHp","type":"int256","internalType":"int256"},{"name":"currentHp","type":"int256","internalType":"int256"}]}],"stateMutability":"pure"},{"type":"function","name":"calculateHpForLevel","inputs":[{"name":"level","type":"uint256","internalType":"uint256"}],"outputs":[{"name":"hpGain","type":"int256","internalType":"int256"}],"stateMutability":"pure"},{"type":"function","name":"calculateLevelFromExperience","inputs":[{"name":"experience","type":"uint256","internalType":"uint256"},{"name":"levelsTable","type":"uint256[]","internalType":"uint256[]"}],"outputs":[{"name":"currentLevel","type":"uint256","internalType":"uint256"}],"stateMutability":"pure"},{"type":"function","name":"calculateStatPointsForLevel","inputs":[{"name":"level","type":"uint256","internalType":"uint256"}],"outputs":[{"name":"statPoints","type":"int256","internalType":"int256"}],"stateMutability":"pure"},{"type":"function","name":"calculateTotalHpFromLeveling","inputs":[{"name":"level","type":"uint256","internalType":"uint256"}],"outputs":[{"name":"totalHp","type":"int256","internalType":"int256"}],"stateMutability":"pure"},{"type":"function","name":"calculateTotalStatPoints","inputs":[{"name":"level","type":"uint256","internalType":"uint256"}],"outputs":[{"name":"totalPoints","type":"int256","internalType":"int256"}],"stateMutability":"pure"},{"type":"function","name":"generateBalancedBaseStats","inputs":[{"name":"randomNumber","type":"uint256","internalType":"uint256"},{"name":"existingStats","type":"tuple","internalType":"struct StatsData","components":[{"name":"strength","type":"int256","internalType":"int256"},{"name":"agility","type":"int256","internalType":"int256"},{"name":"class","type":"Classes","internalType":"enum Classes"},{"name":"intelligence","type":"int256","internalType":"int256"},{"name":"maxHp","type":"int256","internalType":"int256"},{"name":"currentHp","type":"int256","internalType":"int256"},{"name":"experience","type":"uint256","internalType":"uint256"},{"name":"level","type":"uint256","internalType":"uint256"},{"name":"powerSource","type":"PowerSource","internalType":"enum PowerSource"},{"name":"race","type":"Race","internalType":"enum Race"},{"name":"startingArmor","type":"ArmorType","internalType":"enum ArmorType"},{"name":"advancedClass","type":"AdvancedClass","internalType":"enum AdvancedClass"},{"name":"hasSelectedAdvancedClass","type":"bool","internalType":"bool"}]}],"outputs":[{"name":"stats","type":"tuple","internalType":"struct StatsData","components":[{"name":"strength","type":"int256","internalType":"int256"},{"name":"agility","type":"int256","internalType":"int256"},{"name":"class","type":"Classes","internalType":"enum Classes"},{"name":"intelligence","type":"int256","internalType":"int256"},{"name":"maxHp","type":"int256","internalType":"int256"},{"name":"currentHp","type":"int256","internalType":"int256"},{"name":"experience","type":"uint256","internalType":"uint256"},{"name":"level","type":"uint256","internalType":"uint256"},{"name":"powerSource","type":"PowerSource","internalType":"enum PowerSource"},{"name":"race","type":"Race","internalType":"enum Race"},{"name":"startingArmor","type":"ArmorType","internalType":"enum ArmorType"},{"name":"advancedClass","type":"AdvancedClass","internalType":"enum AdvancedClass"},{"name":"hasSelectedAdvancedClass","type":"bool","internalType":"bool"}]}],"stateMutability":"pure"},{"type":"function","name":"generateRandomStats","inputs":[{"name":"randomNumber","type":"uint256","internalType":"uint256"},{"name":"characterClass","type":"Classes","internalType":"enum Classes"}],"outputs":[{"name":"stats","type":"tuple","internalType":"struct StatsData","components":[{"name":"strength","type":"int256","internalType":"int256"},{"name":"agility","type":"int256","internalType":"int256"},{"name":"class","type":"Classes","internalType":"enum Classes"},{"name":"intelligence","type":"int256","internalType":"int256"},{"name":"maxHp","type":"int256","internalType":"int256"},{"name":"currentHp","type":"int256","internalType":"int256"},{"name":"experience","type":"uint256","internalType":"uint256"},{"name":"level","type":"uint256","internalType":"uint256"},{"name":"powerSource","type":"PowerSource","internalType":"enum PowerSource"},{"name":"race","type":"Race","internalType":"enum Race"},{"name":"startingArmor","type":"ArmorType","internalType":"enum ArmorType"},{"name":"advancedClass","type":"AdvancedClass","internalType":"enum AdvancedClass"},{"name":"hasSelectedAdvancedClass","type":"bool","internalType":"bool"}]}],"stateMutability":"pure"},{"type":"function","name":"validateStatChanges","inputs":[{"name":"currentStats","type":"tuple","internalType":"struct StatsData","components":[{"name":"strength","type":"int256","internalType":"int256"},{"name":"agility","type":"int256","internalType":"int256"},{"name":"class","type":"Classes","internalType":"enum Classes"},{"name":"intelligence","type":"int256","internalType":"int256"},{"name":"maxHp","type":"int256","internalType":"int256"},{"name":"currentHp","type":"int256","internalType":"int256"},{"name":"experience","type":"uint256","internalType":"uint256"},{"name":"level","type":"uint256","internalType":"uint256"},{"name":"powerSource","type":"PowerSource","internalType":"enum PowerSource"},{"name":"race","type":"Race","internalType":"enum Race"},{"name":"startingArmor","type":"ArmorType","internalType":"enum ArmorType"},{"name":"advancedClass","type":"AdvancedClass","internalType":"enum AdvancedClass"},{"name":"hasSelectedAdvancedClass","type":"bool","internalType":"bool"}]},{"name":"desiredStats","type":"tuple","internalType":"struct StatsData","components":[{"name":"strength","type":"int256","internalType":"int256"},{"name":"agility","type":"int256","internalType":"int256"},{"name":"class","type":"Classes","internalType":"enum Classes"},{"name":"intelligence","type":"int256","internalType":"int256"},{"name":"maxHp","type":"int256","internalType":"int256"},{"name":"currentHp","type":"int256","internalType":"int256"},{"name":"experience","type":"uint256","internalType":"uint256"},{"name":"level","type":"uint256","internalType":"uint256"},{"name":"powerSource","type":"PowerSource","internalType":"enum PowerSource"},{"name":"race","type":"Race","internalType":"enum Race"},{"name":"startingArmor","type":"ArmorType","internalType":"enum ArmorType"},{"name":"advancedClass","type":"AdvancedClass","internalType":"enum AdvancedClass"},{"name":"hasSelectedAdvancedClass","type":"bool","internalType":"bool"}]},{"name":"newLevel","type":"uint256","internalType":"uint256"}],"outputs":[{"name":"isValid","type":"bool","internalType":"bool"}],"stateMutability":"pure"},{"type":"error","name":"NegativeStat","inputs":[]}],"bytecode":{"object":"0x6080806040523461001a57611258908161001f823930815050f35b5f80fdfe6080604081815260049182361015610015575f80fd5b5f3560e01c90816322fa929b14610d02575080632402e25714610ca05780632c6e6c4c14610aff57806359a0698b14610a3457806382c713b11461099c5780638eee2c361461077a578063b728a89014610672578063cb8c2121146105bd578063d9f4a418146102b4578063ece683dc146102695763f49be66d14610098575f80fd5b610360366003190112610265576100ae36610d8e565b916101a0366101a3190112610265578151926100c984610d4f565b6101a4359182855260208501906101c43582526101e4356003811015610265578587015260608601926102043584526102243560808801526102443560a08801526102643560c08801526102843560e08801526102a43596828810156102655761010097888201526102c43583811015610265576101208201526102e435838110156102655761014082015261030435600a81101561026557610160820152610324358015158103610265576101808201525f610344359612610255575f845112610255575f855112610255576101b66101a96101c392518451906111f4565b94516020840151906111f4565b94516060830151906111f4565b9660056101cf8761120c565b96149182610235575b50506101fd575b50936101f06101f59260209661103d565b61103d565b149051908152f35b600184929401915f6001841291129080158216911516176102225750916101f06101df565b601190634e487b7160e01b5f525260245ffd5b60039250015161024481610f05565b61024d81610f05565b145f806101d8565b8651633957c6dd60e11b81528390fd5b5f80fd5b5060203660031901126102655760209135600a811161028d57506002905b51908152f35b6032811161029e5750600190610287565b6001166102ae5760015b90610287565b5f6102a8565b506101c0366003190112610265576101a0366023190112610265578051906102db82610d4f565b6024358252604435602083015260643560038110156102655781830152608435606083015260a435608083015260c43560a083015260e43560c08301526101043560e0830152610124358381101561026557610100928381019182526101443585811015610265576101208083019182526101643587811015610265576101408085019182526101843591600a83101561026557610160938487019384526101a4359586151587036102655761018080980196875261039861107f565b8a51634dddf83760e01b81528d358e820152909b90995f8b60248173__$227e4555c1f608352b26068e438454dd8b$__5af49a8b156105b3575f9b61058f575b5051906103e482610f05565b6103ed82610f05565b8c015251906103fb82610f05565b61040482610f05565b8a0152519061041282610f05565b61041b82610f05565b8801525190600a82101561057c57860152511515908401526001600160401b039060076104548361044b84611163565b5116820b611240565b1660038101809111610569579161044b610472926007948752611184565b1660038101809111610556576104ed93506020830190815261049f61049784516111a8565b8251906111f4565b60608401818152906003811215610502575060036104bd82516111d7565b9152835182518091135f146104f157506104d9915083516111f4565b82525b601260808301525191829182610f23565b0390f35b906104fb916111f4565b90526104dc565b600a8113610513575b5050506104dc565b61051e600a916111c5565b9152835182518091125f14610545575061053a9150835161103d565b82525b5f808061050b565b9061054f9161103d565b905261053d565b601184634e487b7160e01b5f525260245ffd5b601186634e487b7160e01b5f525260245ffd5b602188634e487b7160e01b5f525260245ffd5b6105ac919b503d805f833e6105a48183610d6b565b8101906110de565b995f6103d8565b8c513d5f823e3d90fd5b506020366003190112610265578135600a811192835f14610669576105e2600a611058565b936105f2575b6020848451908152f35b6032821193841561063d576106119061060b602861106e565b9061103d565b93156105e8576031198201918211610222575060209261060b6106369260011c61106e565b915f6105e8565b6009198301838111610656579061060b6106119261106e565b601183634e487b7160e01b5f525260245ffd5b6105e282611058565b508060031936011261026557602491803583356001600160401b038111610265576106a09036908401610ea5565b915f9280516063101561076757610c8081015183106106ca57505050506020915060649051908152f35b5f9493945b606481106106e5575b5050505060209250610287565b836106f08284611194565b51111580610737575b610705576001016106cf565b93945050905060018201809211610725575060209250905f8080806106d8565b60118491634e487b7160e01b5f52525ffd5b50600181018082116107555761074e859184611194565b51116106f9565b87601185634e487b7160e01b5f52525ffd5b603282634e487b7160e01b5f525260245ffd5b5080600319360112610265576024359060038210156102655761079b61107f565b918151634dddf83760e01b81528435858201525f8160248173__$227e4555c1f608352b26068e438454dd8b$__5af4908115610992575f91610978575b508383018290526001600160401b039060076107f78361044b84611163565b1660038101809111610965579161044b610815926007948852611184565b169060038201809211610952576104ed94506020840191825261084361083b85516111a8565b8351906111f4565b6060850181815291906003811215610903575061086082516111d7565b6003835285519084518092135f146108f35761087e915086516111f4565b85525b806108a757505050610893825161100d565b8252601460808301525b5191829182610f23565b600181036108c95750506108bb815161100d565b90526012608083015261089d565b6002919250146108da575b5061089d565b6108e4815161100d565b9052601060808301525f6108d4565b6108fc916111f4565b8352610881565b600a8113610912575b50610881565b61091b906111c5565b600a835285519084518092125f14610942576109399150865161103d565b85525b5f61090c565b61094b9161103d565b835261093c565b601185634e487b7160e01b5f525260245ffd5b601187634e487b7160e01b5f525260245ffd5b61098c91503d805f833e6105a48183610d6b565b5f6107d8565b83513d5f823e3d90fd5b506020366003190112610265578135600a811192835f14610a2b576109c1600a611058565b936109d0576020848451908152f35b60328211938415610a12576109ed9061060b60285b60011c61106e565b93156105e8576031198201918211610222575060209261060b6005610636930461106e565b6009198301838111610656579061060b6109ed926109e5565b6109c182611058565b5090366003190161016081126102655760c01361026557816104ed925191610a5b83610d20565b358252602082016024358152610aea8284016044358152610ada60608601916064358352610acb60808801916084358352610abb60a08a019760a4358952610aaf610aa4610fdd565b9b60c435905161103d565b8b5260e435905161103d565b60208a015261010435905161103d565b8688015261012435905161103d565b608086015261014435905161103d565b60608401525160a08301525191829182610e50565b50600319906101c03683011261026557610b1836610d8e565b6001600160401b036101a435818111610265576101408095823603011261026557835194850185811083821117610c8d578452808601358552602085019160248201358352848601936044830135855260608701926064810135845260808801956084820135875260a482013584811161026557610b9b908b3691850101610ea5565b60a08a015260c482013584811161026557610bbb908b3691850101610ea5565b60c08a015260e482013584811161026557610bdb908b3691850101610ea5565b60e08a015261010482013584811161026557610bfc908b3691850101610ea5565b6101008a015261012482013593841161026557610c58610c7896610c2d610c6a946104ed9d60809836920101610ea5565b6101208c0152610c49610c3e610fdd565b9b865190519061103d565b8b52602085015190519061103d565b60208a0152606083015190519061103d565b86880152015190519061103d565b60808401525160608301525191829182610e50565b604187634e487b7160e01b5f525260245ffd5b506101c0366003190112610265576104ed90610cbb36610d8e565b9060a0610cc6610fdd565b9280518452602081015160208501526060810151838501526101a435606085015260808101516080850152015160a08301525191829182610e50565b8390602036600319011261026557610d1c6020923561120c565b8152f35b60c081019081106001600160401b03821117610d3b57604052565b634e487b7160e01b5f52604160045260245ffd5b6101a081019081106001600160401b03821117610d3b57604052565b601f909101601f19168101906001600160401b03821190821017610d3b57604052565b6101a09060031901126102655760405190610da882610d4f565b816004358152602435602082015260443560038110156102655760408201526064356060820152608435608082015260a43560a082015260c43560c082015260e43560e082015261010435600481101561026557610100820152610124356004811015610265576101208201526101443560048110156102655761014082015261016435600a8110156102655761016082015261018435908115158203610265576101800152565b91909160a08060c083019480518452602081015160208501526040810151604085015260608101516060850152608081015160808501520151910152565b6001600160401b038111610d3b5760051b60200190565b9080601f83011215610265576020908235610ebf81610e8e565b93610ecd6040519586610d6b565b81855260208086019260051b82010192831161026557602001905b828210610ef6575050505090565b81358152908301908301610ee8565b60041115610f0f57565b634e487b7160e01b5f52602160045260245ffd5b9190916101a0810192805182526020810151602083015260408101516003811015610f0f576040830152606081015160608301526080810151608083015260a081015160a083015260c081015160c083015260e081015160e08301526101008082015190610f9082610f05565b8301526101208082015190610fa482610f05565b8301526101408082015190610fb882610f05565b8301526101608082015190600a821015610f0f57830152610180809101511515910152565b60405190610fea82610d20565b5f60a0838281528260208201528260408201528260608201528260808201520152565b9060028201915f60028412911290801582169115161761102957565b634e487b7160e01b5f52601160045260245ffd5b9190915f838201938412911290801582169115161761102957565b908160011b918083056002149015171561102957565b908115600183800514171561102957565b6040519061108c82610d4f565b5f610180838281528260208201528260408201528260608201528260808201528260a08201528260c08201528260e0820152826101008201528261012082015282610140820152826101608201520152565b9060209081838203126102655782516001600160401b039384821161026557019281601f8501121561026557835161111581610e8e565b946111236040519687610d6b565b818652848087019260051b820101938411610265578401905b83821061114b57505050505090565b8151838116810361026557815290840190840161113c565b8051156111705760200190565b634e487b7160e01b5f52603260045260245ffd5b8051600110156111705760400190565b80518210156111705760209160051b010190565b905f82601303921260138312811690601384139015161761102957565b90600919820191821360011661102957565b905f82600303921260038312811690600384139015161761102957565b81810392915f13801582851316918412161761102957565b600a811161121a5750600290565b603281116112335760011661122f5760015b90565b5f90565b6005900661122f57600190565b5f81121561122c57600160ff1b8114611029575f039056","linkReferences":{"src/libraries/LibChunks.sol":{"LibChunks":[{"start":980,"length":20},{"start":2004,"length":20}]}}},"methodIdentifiers":{"applyStatusEffectModifiers(AdjustedCombatStats,int256,int256,int256,int256,int256)":"59a0698b","calculateBaseCombatStats(StatsData,int256)":"2402e257","calculateEquipmentBonuses(StatsData,CharacterEquipmentData)":"2c6e6c4c","calculateHpForLevel(uint256)":"ece683dc","calculateLevelFromExperience(uint256,uint256[])":"b728a890","calculateStatPointsForLevel(uint256)":"22fa929b","calculateTotalHpFromLeveling(uint256)":"cb8c2121","calculateTotalStatPoints(uint256)":"82c713b1","generateBalancedBaseStats(uint256,StatsData)":"d9f4a418","generateRandomStats(uint256,Classes)":"8eee2c36","validateStatChanges(StatsData,StatsData,uint256)":"f49be66d"},"id":355}