{"abi":[{"type":"function","name":"UD__getCurrentAvailableLevel","inputs":[{"name":"experience","type":"uint256","internalType":"uint256"}],"outputs":[{"name":"currentAvailableLevel","type":"uint256","internalType":"uint256"}],"stateMutability":"view"},{"type":"function","name":"UD__levelCharacter","inputs":[{"name":"characterId","type":"bytes32","internalType":"bytes32"},{"name":"desiredStats","type":"tuple","internalType":"struct StatsData","components":[{"name":"strength","type":"int256","internalType":"int256"},{"name":"agility","type":"int256","internalType":"int256"},{"name":"class","type":"uint8","internalType":"enum Classes"},{"name":"intelligence","type":"int256","internalType":"int256"},{"name":"maxHp","type":"int256","internalType":"int256"},{"name":"currentHp","type":"int256","internalType":"int256"},{"name":"experience","type":"uint256","internalType":"uint256"},{"name":"level","type":"uint256","internalType":"uint256"},{"name":"powerSource","type":"uint8","internalType":"enum PowerSource"},{"name":"race","type":"uint8","internalType":"enum Race"},{"name":"startingArmor","type":"uint8","internalType":"enum ArmorType"},{"name":"advancedClass","type":"uint8","internalType":"enum AdvancedClass"},{"name":"hasSelectedAdvancedClass","type":"bool","internalType":"bool"}]}],"outputs":[],"stateMutability":"nonpayable"},{"type":"function","name":"_msgSender","inputs":[],"outputs":[{"name":"sender","type":"address","internalType":"address"}],"stateMutability":"view"},{"type":"function","name":"_msgValue","inputs":[],"outputs":[{"name":"value","type":"uint256","internalType":"uint256"}],"stateMutability":"view"},{"type":"function","name":"_world","inputs":[],"outputs":[{"name":"","type":"address","internalType":"address"}],"stateMutability":"view"},{"type":"function","name":"calculateLevelBonuses","inputs":[{"name":"characterId","type":"bytes32","internalType":"bytes32"}],"outputs":[{"name":"statPoints","type":"int256","internalType":"int256"},{"name":"hpGain","type":"int256","internalType":"int256"}],"stateMutability":"view"},{"type":"function","name":"supportsInterface","inputs":[{"name":"interfaceId","type":"bytes4","internalType":"bytes4"}],"outputs":[{"name":"","type":"bool","internalType":"bool"}],"stateMutability":"pure"},{"type":"function","name":"validateLevelRequirements","inputs":[{"name":"characterId","type":"bytes32","internalType":"bytes32"},{"name":"desiredStats","type":"tuple","internalType":"struct StatsData","components":[{"name":"strength","type":"int256","internalType":"int256"},{"name":"agility","type":"int256","internalType":"int256"},{"name":"class","type":"uint8","internalType":"enum Classes"},{"name":"intelligence","type":"int256","internalType":"int256"},{"name":"maxHp","type":"int256","internalType":"int256"},{"name":"currentHp","type":"int256","internalType":"int256"},{"name":"experience","type":"uint256","internalType":"uint256"},{"name":"level","type":"uint256","internalType":"uint256"},{"name":"powerSource","type":"uint8","internalType":"enum PowerSource"},{"name":"race","type":"uint8","internalType":"enum Race"},{"name":"startingArmor","type":"uint8","internalType":"enum ArmorType"},{"name":"advancedClass","type":"uint8","internalType":"enum AdvancedClass"},{"name":"hasSelectedAdvancedClass","type":"bool","internalType":"bool"}]}],"outputs":[{"name":"isValid","type":"bool","internalType":"bool"}],"stateMutability":"view"},{"type":"event","name":"CharacterLeveledUp","inputs":[{"name":"characterId","type":"bytes32","indexed":true,"internalType":"bytes32"},{"name":"newLevel","type":"uint256","indexed":false,"internalType":"uint256"},{"name":"experience","type":"uint256","indexed":false,"internalType":"uint256"}],"anonymous":false},{"type":"event","name":"LevelBonusApplied","inputs":[{"name":"characterId","type":"bytes32","indexed":true,"internalType":"bytes32"},{"name":"statType","type":"uint256","indexed":false,"internalType":"uint256"},{"name":"bonus","type":"int256","indexed":false,"internalType":"int256"}],"anonymous":false},{"type":"event","name":"Store_SetRecord","inputs":[{"name":"tableId","type":"bytes32","indexed":true,"internalType":"ResourceId"},{"name":"keyTuple","type":"bytes32[]","indexed":false,"internalType":"bytes32[]"},{"name":"staticData","type":"bytes","indexed":false,"internalType":"bytes"},{"name":"encodedLengths","type":"bytes32","indexed":false,"internalType":"EncodedLengths"},{"name":"dynamicData","type":"bytes","indexed":false,"internalType":"bytes"}],"anonymous":false},{"type":"event","name":"Store_SpliceDynamicData","inputs":[{"name":"tableId","type":"bytes32","indexed":true,"internalType":"ResourceId"},{"name":"keyTuple","type":"bytes32[]","indexed":false,"internalType":"bytes32[]"},{"name":"dynamicFieldIndex","type":"uint8","indexed":false,"internalType":"uint8"},{"name":"start","type":"uint48","indexed":false,"internalType":"uint48"},{"name":"deleteCount","type":"uint40","indexed":false,"internalType":"uint40"},{"name":"encodedLengths","type":"bytes32","indexed":false,"internalType":"EncodedLengths"},{"name":"data","type":"bytes","indexed":false,"internalType":"bytes"}],"anonymous":false},{"type":"error","name":"EncodedLengths_InvalidLength","inputs":[{"name":"length","type":"uint256","internalType":"uint256"}]},{"type":"error","name":"GamePaused","inputs":[]},{"type":"error","name":"LevelSystem_CharacterInCombat","inputs":[]},{"type":"error","name":"LevelSystem_CharacterNotFound","inputs":[]},{"type":"error","name":"LevelSystem_InsufficientExperience","inputs":[]},{"type":"error","name":"LevelSystem_InvalidLevel","inputs":[]},{"type":"error","name":"LevelSystem_InvalidStatChanges","inputs":[]},{"type":"error","name":"LevelSystem_MaxLevelReached","inputs":[]},{"type":"error","name":"Slice_OutOfBounds","inputs":[{"name":"data","type":"bytes","internalType":"bytes"},{"name":"start","type":"uint256","internalType":"uint256"},{"name":"end","type":"uint256","internalType":"uint256"}]},{"type":"error","name":"Store_IndexOutOfBounds","inputs":[{"name":"length","type":"uint256","internalType":"uint256"},{"name":"accessedIndex","type":"uint256","internalType":"uint256"}]},{"type":"error","name":"Store_InvalidResourceType","inputs":[{"name":"expected","type":"bytes2","internalType":"bytes2"},{"name":"resourceId","type":"bytes32","internalType":"ResourceId"},{"name":"resourceIdString","type":"string","internalType":"string"}]},{"type":"error","name":"Store_InvalidSplice","inputs":[{"name":"startWithinField","type":"uint40","internalType":"uint40"},{"name":"deleteCount","type":"uint40","internalType":"uint40"},{"name":"fieldLength","type":"uint40","internalType":"uint40"}]},{"type":"error","name":"World_AccessDenied","inputs":[{"name":"resource","type":"string","internalType":"string"},{"name":"caller","type":"address","internalType":"address"}]}],"bytecode":{"object":"0x60808060405234610016576146f0908161001b8239f35b5f80fdfe60806040526004361015610011575f80fd5b5f3560e01c806301ffc9a714610094578063119df25f1461008f5780632349384c1461008a5780632b5e3a6c1461008557806345ec935414610080578063d453e6231461007b578063e1af802c146100765763feb35bfb14610071575f80fd5b6104e3565b6104c9565b6104a3565b610484565b61036c565b610349565b6100f6565b346100e85760203660031901126100e85760043563ffffffff60e01b81168091036100e85763b5dee12760e01b81149081156100d7575b50151560805260206080f35b6301ffc9a760e01b149050816100cb565b5f80fd5b5f9103126100e857565b346100e8575f3660031901126100e8576020610110610b8b565b6040516001600160a01b039091168152f35b634e487b7160e01b5f52604160045260245ffd5b6001600160401b03811161014957604052565b610122565b604081019081106001600160401b0382111761014957604052565b610ca081019081106001600160401b0382111761014957604052565b606081019081106001600160401b0382111761014957604052565b608081019081106001600160401b0382111761014957604052565b61012081019081106001600160401b0382111761014957604052565b601f909101601f19168101906001600160401b0382119082101761014957604052565b604051906101a082016001600160401b0381118382101761014957604052565b600311156100e857565b606435906102318261021a565b565b600411156100e857565b610124359061023182610233565b610144359061023182610233565b610164359061023182610233565b600a11156100e857565b610184359061023182610267565b801515036100e857565b6101a435906102318261027f565b906101c06003198301126100e8576101a06004359260231901126100e8576102bd6101fa565b602435815260443560208201526102d2610224565b6040820152608435606082015260a435608082015260c43560a082015260e43560c08201526101043560e082015261030861023d565b61010082015261031661024b565b610120820152610324610259565b610140820152610332610271565b610160820152610340610289565b61018082015290565b346100e857602061036261035c36610297565b90610993565b6040519015158152f35b346100e8576020806003193601126100e8576103a660e061039f610391600435610be3565b848082518301019101610731565b0151610808565b6040516322fa929b60e01b81526004810182905273__$adf94ce26827ee9b3226667380e63e262b$__91908381602481865af491821561045e5784915f93610463575b50604051633b39a0f760e21b81526004810191909152919282908180602481015b03915af492831561045e575f9361042f575b5050604080519182526020820192909252f35b61044f929350803d10610457575b61044781836101d7565b810190610a3e565b905f8061041c565b503d61043d565b610988565b61040a935061047e90833d85116104575761044781836101d7565b926103e9565b346100e8575f3660031901126100e8576020604051601f193601358152f35b346100e85760203660031901126100e85760206104c1600435610ae2565b604051908152f35b346100e8575f3660031901126100e8576020610110611889565b346100e8576104f136610297565b906104fa610c1d565b610514610508610508611889565b6001600160a01b031690565b916040805192633e86fb3160e21b84526020938481600497818061053f878c83019190602083019252565b03915afa90811561045e575f916106e8575b50156106d857610565610508610508611889565b84835180926385fcd3bd60e01b82528180610587878c83019190602083019252565b03915afa90811561045e575f916106bb575b506106ab576105b86105aa82610be3565b858082518301019101610731565b916105c282610c48565b60a084015260e0830160648151101561069b576105e260c0850151610ae2565b8151101561068b576105f49051610808565b815163f49be66d60e01b81529095908181806106148a8a8a848f01610960565b038173__$adf94ce26827ee9b3226667380e63e262b$__5af491821561045e575f9261065e575b50501561064f575061064d9450610d2b565b005b516353b1d71360e01b81528590fd5b61067d9250803d10610684575b61067581836101d7565b810190610839565b5f8061063b565b503d61066b565b815163546af26960e11b81528790fd5b8151635d59fa8360e01b81528790fd5b815163e22ec58560e01b81528590fd5b6106d29150853d87116106845761067581836101d7565b5f610599565b815163e78e2e7f60e01b81528590fd5b6106ff9150853d87116106845761067581836101d7565b5f610551565b51906102318261021a565b519061023182610233565b519061023182610267565b51906102318261027f565b90816101a09103126100e8576107456101fa565b90805182526020810151602083015261076060408201610705565b6040830152606081015160608301526080810151608083015260a081015160a083015260c081015160c083015260e081015160e08301526101006107a5818301610710565b908301526101206107b7818301610710565b908301526101406107c9818301610710565b908301526101606107db81830161071b565b908301526107ed610180809201610726565b9082015290565b634e487b7160e01b5f52601160045260245ffd5b906001820180921161081657565b6107f4565b90620f424091820180921161081657565b9190820180921161081657565b908160209103126100e8575161084e8161027f565b90565b634e487b7160e01b5f52602160045260245ffd5b6003111561086f57565b610851565b90600382101561086f5752565b6004111561086f57565b9061089582610881565b52565b600a111561086f57565b90600a82101561086f5752565b906102319180518252602081015160208301526108d460408201516040840190610874565b606081015160608301526080810151608083015260a081015160a083015260c081015160c083015260e081015160e0830152610919610100808301519084019061088b565b61092c610120808301519084019061088b565b61093f610140808301519084019061088b565b61095261016080830151908401906108a2565b610180908101511515910152565b61098461034092959493610979836103608101986108af565b6101a08301906108af565b0152565b6040513d5f823e3d90fd5b61099f6109ae91610be3565b60208082518301019101610731565b906109bc60c0830151610ae2565b9060e083015180921115610a37576109d5602092610808565b926109f4604051948593849363f49be66d60e01b855260048501610960565b038173__$adf94ce26827ee9b3226667380e63e262b$__5af490811561045e575f91610a1e575090565b61084e915060203d6020116106845761067581836101d7565b5050505f90565b908160209103126100e8575190565b60405190610a5a8261014e565b6001825260203681840137565b634e487b7160e01b5f52603260045260245ffd5b805115610a885760200190565b610a67565b8051821015610a885760209160051b010190565b90604082019082526020606081936040838201528551809452019301915f5b828110610ace575050505090565b835185529381019392810192600101610ac0565b60405190610aef82610169565b6064808352610c803660208501375f5b818110610b6e575050604051630b728a8960e41b81529160209183918291610b2b919060048401610aa1565b038173__$adf94ce26827ee9b3226667380e63e262b$__5af490811561045e575f91610b55575090565b61084e915060203d6020116104575761044781836101d7565b80610b7a600192610c00565b610b848287610a8d565b5201610aff565b36603319013560601c908115610b9d57565b339150565b604051602081016001600160401b03811182821017610149576040525f8152905f368137565b60405190610bd582610185565b600282526040366020840137565b610beb610a4d565b805115610a885761084e9160208201526110c1565b610c08610a4d565b805115610a885761084e9160208201526111d4565b610c2d610c28610ba2565b611262565b60f81c610c3657565b60405163379a7ed960e01b8152600490fd5b610c50610a4d565b805115610a885761084e9160208201526112f0565b9060018201915f60018412911290801582169115161761081657565b9060028201915f60028412911290801582169115161761081657565b9190915f838201938412911290801582169115161761081657565b6101a08101929161023191906108af565b908160c09103126100e8576040519060c08201906001600160401b038211838310176101495760a0916040528051835260208101516020840152604081015160408401526060810151606084015260808101516080840152015160a082015290565b60408051633b39a0f760e21b815260048101869052919493909291602091828260248173__$adf94ce26827ee9b3226667380e63e262b$__5af491821561045e576060859289610dd695610dd0945f91610fda575b505f8113610f83575b50508051845285810151868501520151936060830194855260e083019488865260058914610f16575b50610dc287519384928301610cb8565b03601f1981018352826101d7565b866118be565b610de4610508610508611889565b835163a543a0c560e01b81526004810187905260c0918290829060249082905afa801561045e57610e20915f91610ef9575b5083519088611978565b610e2e610508610508611889565b845163ad54c98b60e01b81526004810188905292908290849060249082905f905af1801561045e577f34a1fd0f3661ab96bb1ff47fa1b6e06d88f95fe9a833ac10f7cc716bf211d83696610eb094610e9592610ecc575b5060038114610eb5575b88611ca7565b51920151925191825260208201929092529081906040820190565b0390a2565b610ebe89611b0f565b610ec789611c12565b610e8f565b610eeb90853d8711610ef2575b610ee381836101d7565b810190610cc9565b505f610e85565b503d610ed9565b610f109150833d8511610ef257610ee381836101d7565b5f610e16565b610100840160018151610f2881610881565b610f3181610881565b03610f4f57505060808301610f468151610c81565b90525b5f610db2565b60029051610f5c81610881565b610f6581610881565b14610f71575b50610f49565b610f7b8151610c65565b90525f610f6b565b610fd07fd0c2f07accafa5e943870ec34a98cf0e887341a981fb4b4ad6187c2d9b6d1e919160808801610fb7828251610c9d565b90528b5191829182919060206040840193600381520152565b0390a2895f610d89565b610ff19150883d8a116104575761044781836101d7565b5f610d80565b5f5b8381106110085750505f910152565b8181015183820152602001610ff9565b81601f820112156100e85780516001600160401b038111610149576040519261104b601f8301601f1916602001856101d7565b818452602082840101116100e85761084e9160208085019101610ff7565b906020828203126100e85781516001600160401b0381116100e85761084e9201611018565b9081518082526020808093019301915f5b8281106110ad575050505090565b83518552938101939281019260010161109f565b6001600160a01b036110d1611889565b163081036110e3575061084e90611d70565b604051631e78897760e01b81525f805160206146d0833981519152600482015260606024820152915f9183918290819061112190606483019061108e565b6001604483015203915afa90811561045e575f9161113d575090565b61084e91503d805f833e61115181836101d7565b810190611069565b6001600160a01b03611169611889565b1630810361117b575061084e90611e2c565b604051631e78897760e01b81525f805160206146b0833981519152600482015260606024820152915f918391829081906111b990606483019061108e565b85604483015203915afa90811561045e575f9161113d575090565b6001600160a01b036111e4611889565b163081036111f6575061084e90611e53565b604051638c364d5960e01b8152654c6576656c7360501b631d18955160e21b016004820152608060248201529160209183918290819061123a90608483019061108e565b5f6044830152630100080160dd1b606483015203915afa90811561045e575f91610b55575090565b6001600160a01b03611272611889565b16308103611284575061084e90611ecb565b604051638c364d5960e01b81526514185d5cd95960521b631d18955160e21b01600482015260806024820152916020918391829081906112c890608483019061108e565b5f6044830152630101000160d81b606483015203915afa90811561045e575f91610b55575090565b6001600160a01b03611300611889565b16308103611312575061084e90611f2d565b604051638c364d5960e01b815264537461747360581b631d18955160e21b016004820152608060248201529160209183918290819061135590608483019061108e565b600560448301526fe60d002020012020202020010101010160781b606483015203915afa90811561045e575f91610b55575090565b6001600160a01b0361139a611889565b163081036113ac575061084e90611fbf565b604051638c364d5960e01b81526f53797374656d52656769737472790000661d189ddbdc9b1960ca1b016004820152608060248201529160209183918290819061123a90608483019061108e565b6001600160a01b0361140a611889565b1630810361141c575061084e9061202b565b604051638c364d5960e01b81526f556c74696d617465446f6d696e696f6e631d18955160e21b016004820152608060248201529160209183918290819061146790608483019061108e565b600460448301526f45434000450505050505050805080805607a1b606483015203915afa90811561045e575f91610b55575090565b6001600160a01b036114ac611889565b163081036114be575061084e906120b0565b604051638c364d5960e01b81525f805160206146d0833981519152600482015260806024820152916020918391829081906114fd90608483019061108e565b60016044830152665504022014200160c01b606483015203915afa90811561045e575f91610b55575090565b6001600160a01b03611539611889565b1630810361154f575061154b90612cae565b5490565b604051638c364d5960e01b81525f805160206146d08339815191526004820152608060248201529160209183918290819061158e90608483019061108e565b5f6044830152665504022014200160c01b606483015203915afa90811561045e575f91610b55575090565b6001600160a01b036115c9611889565b163081036115db575061084e90612115565b604051638c364d5960e01b81526f556c74696d617465446f6d696e696f6e631d18955160e21b016004820152608060248201529160209183918290819061162690608483019061108e565b600b60448301526f45434000450505050505050805080805607a1b606483015203915afa90811561045e575f91610b55575090565b6001600160a01b0361166b611889565b1630810361167d575061154b90612d14565b604051638c364d5960e01b8152695a6f6e65436f6e66696760301b631d18955160e21b01600482015260806024820152916020918391829081906116c590608483019061108e565b5f604483015264020010010160d51b606483015203915afa90811561045e575f91610b55575090565b6001600160a01b036116fe611889565b16308103611710575061084e90612183565b604051638c364d5960e01b81526f4368617261637465725a6f6e65436f6d631d18955160e21b016004820152608060248201529160209183918290819061175b90608483019061108e565b5f60448301526502081800090160cd1b606483015203915afa90811561045e575f91610b55575090565b6001600160a01b03611795611889565b163081036117a7575061084e906121ec565b604051638c364d5960e01b8152695a6f6e65436f6e66696760301b631d18955160e21b01600482015260806024820152916020918391829081906117ef90608483019061108e565b6001604483015264020010010160d51b606483015203915afa90811561045e575f91610b55575090565b6001600160a01b03611829611889565b1630810361183b575061084e9061224f565b604051638c364d5960e01b81526f5265736f757263654163636573730000661d189ddbdc9b1960ca1b01600482015260806024820152916020918391829081906112c890608483019061108e565b7f629a4c26e296b22a8e0856e9f6ecb2d1008d7e00081111962cd175fa7488e175546001600160a01b03168061084e57503390565b906118c7610a4d565b91825115610a885760208301526001600160a01b036118e4611889565b16913083036118f7576102319250612da4565b90823b156100e8576040516377b7543160e11b81525f805160206146d0833981519152600482015260806024820152925f92849283918591839161195d919061194490608485019061108e565b60016044850152838103600319016064850152906122f8565b03925af1801561045e5761196f575b50565b61023190610136565b929192611983610b8b565b9361198c610a4d565b805115610a88576119a29030602082015261138a565b6119bf86600160801b600160f01b038316616e7360f01b17614391565b8015611aad575b15611a0e575061023193945060806119dd8361240c565b9380518552602081015160208601526040810151606086015201805160808501525160a084015260e0830152612552565b8590608081901b6001600160801b03191690611a6d90601081901b6001600160901b03191680611a9e5750611a416136bc565b925b80611a8d5750610dc2611a546136bc565b6040519485936001600160f01b031916602085016136de565b611a8960405192839263d787b73760e01b84526004840161303d565b0390fd5b611a99610dc2916143c9565b611a54565b611aa7906143c9565b92611a43565b50611ab88682614391565b6119c6565b908160209103126100e857516001600160a01b03811681036100e85790565b90620f42409182810292818404149015171561081657565b6001600160a01b039091168152602081019190915260400190565b611b1f611b1a610ba2565b6113fa565b60601c908115611c0e57611b32816125f6565b6040516331a9108f60e11b815260016004820152909190602081602481875afa5f9181611bdd575b50611bc0575b50611b6d611b7291612619565b61081b565b823b156100e857611b9c925f92836040518096819582946340c10f1960e01b845260048401611af4565b03925af1801561045e57611bad5750565b80611bba61023192610136565b806100ec565b6001600160a01b03838116911614611bd8575f611b60565b505050565b611c0091925060203d602011611c07575b611bf881836101d7565b810190611abd565b905f611b5a565b503d611bee565b5050565b611c22611c1d610ba2565b6115b9565b8015908115611c9c575b5061196c57611c3c611b1a610ba2565b60601c908115611c0e57611c58611c52826125f6565b91612619565b6302faf08090810180911161081657823b156100e857611c91925f92836040518096819582946340c10f1960e01b845260048401611af4565b03925af1611bad5750565b90504210155f611c2c565b611caf610a4d565b90600192826001611cc08695610a7b565b525f935b611cd0575b5050505050565b8051841015611d6b578484611ce6829684610a8d565b51611cf081612636565b8015611d64578510611d5e57611d068187612653565b611d5e57600a611d1e611d1883612686565b51610808565b611d288884612703565b611d32428461277d565b611d3e8142858b6127f7565b1115611d4e575b505b0193611cc4565b611d5890866128e6565b5f611d45565b50611d47565b5050611d47565b611cc9565b604080515f805160206146d08339815191526020808301918252845193830195949293818401915f5b828110611e185750505050905f8051602061467083398151915264ffffffffff928461084e96970394611dd4601f19968781018352826101d7565b5190201892611dfb6040519182611def602082019586612986565b039081018352826101d7565b5190205f80516020614690833981519152185460601c1690612b67565b835189529781019792810192600101611d99565b61084e9064ffffffffff611e48611e4283612abd565b9261335e565b5460381c1690612b67565b6040516020816020810193654c6576656c7360501b631d18955160e21b0185526040820160208251919201935f5b828110611eb457505050611e9e925003601f1981018352826101d7565b5190205f80516020614610833981519152185490565b855184529481019486945092810192600101611e81565b60405160208160208101936514185d5cd95960521b631d18955160e21b0185526040820160208251919201935f5b828110611f1657505050611e9e925003601f1981018352826101d7565b855184529481019486945092810192600101611ef9565b611f3690612bcf565b5f905f5b60058110611f8d575081816020821015611f77575b505080548260031b1b916020039081602011611f6a57505090565b600101549060031b1c1790565b90809350601f925060051c019116905f80611f4f565b9160ff6fe60d002020012020202020010101010160781b84601b0360031b1c1681018091116108165791600101611f3a565b60405160208160208101936f53797374656d52656769737472790000661d189ddbdc9b1960ca1b0185526040820160208251919201935f5b82811061201457505050611e9e925003601f1981018352826101d7565b855184529481019486945092810192600101611ff7565b61203490612c45565b5f905f5b6004811061207e575081816020821015612068575b505080548260031b1b916020039081601411611f6a57505090565b90809350601f925060051c019116905f8061204d565b9160ff6f45434000450505050505050805080805607a1b84601b0360031b1c1681018091116108165791600101612038565b6120b990612cae565b5f905f5b600181106120ec57508181602082101561206857505080548260031b1b916020039081601411611f6a57505090565b9160ff665504022014200160c01b84601b0360031b1c16810180911161081657916001016120bd565b61211e90612c45565b5f905f5b600b8110612151575081816020821015611f7757505080548260031b1b916020039081602011611f6a57505090565b9160ff6f45434000450505050505050805080805607a1b84601b0360031b1c1681018091116108165791600101612122565b60405160208160208101936f4368617261637465725a6f6e65436f6d631d18955160e21b0185526040820160208251919201935f5b8281106121d557505050611e9e925003601f1981018352826101d7565b8551845294810194869450928101926001016121b8565b6121f590612d14565b5f905f5b60018110612228575081816020821015611f7757505080548260031b1b916020039081602011611f6a57505090565b9160ff64020010010160d51b84601b0360031b1c16810180911161081657916001016121f9565b60405160208160208101936f5265736f757263654163636573730000661d189ddbdc9b1960ca1b0185526040820160208251919201935f5b8281106122a457505050611e9e925003601f1981018352826101d7565b855184529481019486945092810192600101612287565b90606051918281525f5b8381106122e45750825f602080949584010152601f8019910116010190565b8060209160800151828285010152016122c5565b9060209161231181518092818552858086019101610ff7565b601f01601f1916010190565b5f805160206146b0833981519152815260806020820181905261084e9391926123489184019061108e565b915f604082015260608184039101526122f8565b5f805160206146b0833981519152815260806020820181905261084e9391926123879184019061108e565b916001604082015260608184039101526122f8565b604051906101a082016001600160401b03811183821017610149576040525f610180838281528260208201528260408201528260608201528260808201528260a08201528260c08201528260e0820152826101008201528261012082015282610140820152826101608201520152565b61241461239c565b5061241d610a4d565b805115610a88576124329160208201526130ad565b505061243c61239c565b9060208101519061254860408201519161246261245d606083015160f81c90565b6137a6565b9060618101519060818101519060a18101519060c1810151906125268a61251c60e1840151936101206124a261249d61010184015160f81c90565b6137b5565b936125166124b861249d61010286015160f81c90565b9361250c6124ce61249d61010384015160f81c90565b916125026124f86101056124ef6124ea61010486015160f81c90565b6137c1565b93015160f81c90565b1515610180870152565b6101608501613177565b6101408301613183565b01613183565b6101008c01613183565b60e08a015260c089015260a0880152608087015260608601526040850161318c565b6020830152815290565b6125dd610231926125d08151916020810151604082015161257281610865565b6060830151608084015160a085015160c08601519160e0870151936101008801519561259d87610881565b610120890151976125ad89610881565b6125d76101806101408c01519b6125c38d610881565b6101608101519d8e610898565b0151151590565b9b6131b8565b906125e6610a4d565b906125f082610a7b565b52613258565b6125fe610a4d565b805115610a885761261391602082015261149c565b60601c90565b612621610a4d565b805115610a885761084e916020820152611529565b61263e610a4d565b805115610a885761084e91602082015261165b565b61265b610bc8565b90815115610a88576020820152805160011015610a88576126809160408201526116ee565b60f81c90565b61268e610a4d565b805115610a88576126a96126b1916020936020820152611159565b8051906132df565b908160801c600180607b1b038360051c16906040519360208086019181600160801b03168601016040528285525f5b8381106126ef57505050505090565b8251825291840191908401906001016126e0565b9061270c610a4d565b91825115610a885760208301526040519060208201526020815261272f8161014e565b6001600160a01b0361273f611889565b1691308303612752576102319250613c34565b90823b156100e85761195d925f9283604051809681958294630a87993160e11b84526004840161231d565b90612786610a4d565b91825115610a88576020830152604051906020820152602081526127a98161014e565b6001600160a01b036127b9611889565b16913083036127cc576102319250613e3c565b90823b156100e85761195d925f9283604051809681958294630a87993160e11b84526004840161235c565b919260405193600160f81b6020860152602185015260418401526041835261281e836101a0565b612826610bc8565b91825115610a88576020830152815160011015610a885760408201526001600160a01b03612852611889565b16308103612865575090610231916137d0565b90813b156100e8575f916128be836128d193611b9c6040519788968795869463298314fb60e01b86526f4368617261637465725a6f6e65436f6d631d18955160e21b01600487015260a0602487015260a486019061108e565b60031992838683030160448701526122f8565b908460648501528382030160848401526122bb565b6128f1611b1a610ba2565b60601c918215611bd85761290d612907836125f6565b92612619565b612915610a4d565b805115610a885761293181611b72946020612936940152611785565b611adc565b61082c565b6953746f7265486f6f6b7360301b66746273746f726560c81b01815281516020918201928201915f5b828110612972575050505090565b835185529381019392810192600101612964565b5f805160206146d0833981519152815281516020918201928201915f5b8281106129b1575050505090565b8351855293810193928101926001016129a3565b5f805160206146b0833981519152815281516020918201928201915f5b8281106129f0575050505090565b8351855293810193928101926001016129e2565b6f4368617261637465725a6f6e65436f6d631d18955160e21b01815281516020918201928201915f5b828110612a3b575050505090565b835185529381019392810192600101612a2d565b64537461747360581b631d18955160e21b01815281516020918201928201915f5b828110612a7e575050505090565b835185529381019392810192600101612a70565b5f8051602061467083398151915290604051612ab681610dc2602082019485612986565b5190201890565b5f8051602061465083398151915290604051612ab681610dc26020820194856129c5565b5f8051602061467083398151915290604051612ab681610dc26020820194856129c5565b905f8051602061465083398151915291604051612b2a81610dc2602082019485612a04565b51902060f89190911b6001600160f81b031916181890565b905f8051602061465083398151915291604051612b2a81610dc2602082019485612a4f565b60408051601f19603f85830101811690925283815292602080850193925b81831015612bb757505080612b9b575b50505090565b5f199060031b1c908183511691199054161790525f8080612b95565b81600185839495979654875201940194019190612b85565b604051602081602081019364537461747360581b631d18955160e21b0185526040820160208251919201935f5b828110612c2e57505050612c19925003601f1981018352826101d7565b5190205f805160206146108339815191521890565b855184529481019486945092810192600101612bfc565b60405160208160208101936f556c74696d617465446f6d696e696f6e631d18955160e21b0185526040820160208251919201935f5b828110612c9757505050612c19925003601f1981018352826101d7565b855184529481019486945092810192600101612c7a565b6040516020816020810193694368617261637465727360301b631d18955160e21b0185526040820160208251919201935f5b828110612cfd57505050612c19925003601f1981018352826101d7565b855184529481019486945092810192600101612ce0565b6040516020816020810193695a6f6e65436f6e66696760301b631d18955160e21b0185526040820160208251919201935f5b828110612d6357505050612c19925003601f1981018352826101d7565b855184529481019486945092810192600101612d46565b604051612c1981610dc2602082019485612a4f565b604051612c1981610dc2602082019485612a04565b919091612db081613334565b5464ffffffffff926060848360601c1691612dd6612dce84806132d2565b88519061082c565b838114159690878061301e575b612ff257612df19086614087565b96612dfa614171565b925f5b8451811015612ea657612e31612e24612e168388610a8d565b516001600160581b03191690565b6001600160581b03191690565b6010808260581c1614612e48575b50600101612dfd565b861c90813b156100e8575f898d938a838e612e7960405198899687958694630abd6b4560e31b8652600486016134c2565b03925af191821561045e57600192612e93575b5090612e3f565b80611bba612ea092610136565b5f612e8c565b509298939790949691965f985f995b60ff8b166001811015612edc5760ff918b8b6001936028026038011c16019b011699612eb5565b509692975093985093989196506040945f805160206145f08339815191528589612f2e8d8b60405194859465ffffffffffff694368617261637465727360301b631d18955160e21b01991690866135e4565b0390a2612fe2575b612f4888612f4388612a92565b614333565b5f5b8151811015612fd757612f63612e24612e168385610a8d565b6020808260581c1614612f7a575b50600101612f4a565b831c90813b156100e8575f878b9387838c612faa8c5198899687958694636358453360e01b8652600486016134c2565b03925af191821561045e57600192612fc4575b5090612f71565b80611bba612fd192610136565b5f612fbd565b505050505050509050565b84612fec87613334565b55612f36565b604051632994042d60e21b81525f600482015264ffffffffff8616602482018190526044820152606490fd5b508461303661302c82613491565b64ffffffffff1690565b1415612de3565b906130556020919493946040845260408401906122f8565b6001600160a01b03909416910152565b90916060828403126100e85781516001600160401b0392908381116100e85784613090918301611018565b9360208201519360408301519081116100e85761084e9201611018565b6001600160a01b036130bd611889565b163081036130d657506130cf9061372c565b9192909190565b60405163419b58fd60e01b815264537461747360581b631d18955160e21b0160048201526060602482015292915f9184918290819061311990606483019061108e565b6fe60d002020012020202020010101010160781b604483015203915afa90811561045e575f80935f9361314d575b50929190565b9193505061316d91503d805f833e61316581836101d7565b810190613065565b929092915f613147565b600a82101561086f5752565b61089582610881565b600382101561086f5752565b6131a181610881565b60f81b9052565b600a81101561086f5760f81b9052565b9060209c9a969b9892979199949395996040519d8e015260408d0152600387101561086f5761324b9a61323e9960a18e61321d96613228996132339c60f81b606084015260618301526081820152015260c18d015260e18c01526101018b0190613198565b610102890190613198565b610103870190613198565b6101048501906131a8565b151560f81b610105830152565b60e6815261084e816101bb565b6001600160a01b03613268611889565b1630810361327b575090610231916139ea565b90813b156100e85760405163298314fb60e01b815264537461747360581b631d18955160e21b01600482015260a06024820152925f9284929091839185918391611b9c91906128d1906128be9060a486019061108e565b9190820391821161081657565b90815181116132fe576001600160801b031660209190910160801b1790565b6040516323230fa360e01b815260606004820152925082916133249060648401906122f8565b905f602484015260448301520390fd5b60405161334981610dc2602082019485612986565b5190205f805160206146908339815191521890565b60405160208160208101936f5a6f6e65436f6d706c6574696f6e7300631d18955160e21b0185526040820160208251919201935f5b8281106133b057505050613349925003601f1981018352826101d7565b855184529481019486945092810192600101613393565b60405160208160208101936f4368617261637465725a6f6e65436f6d631d18955160e21b0185526040820160208251919201935f5b82811061341957505050613349925003601f1981018352826101d7565b8551845294810194869450928101926001016133fc565b604051602081602081019364537461747360581b631d18955160e21b0185526040820160208251919201935f5b82811061347a57505050613349925003601f1981018352826101d7565b85518452948101948694509281019260010161345d565b9064ffffffffff80921691821161081657565b64ffffffffff91821681525f60208201529116604082015260600190565b5f805160206146d0833981519152815260e06020820181905261084e959394919264ffffffffff916134f7919085019061108e565b94600160408501525f606085015216608083015260a082015260c08184039101526122f8565b909264ffffffffff61355b61084e9694956f5a6f6e65436f6d706c6574696f6e7300631d18955160e21b01855260e0602086015260e085019061108e565b945f60408501521660608301525f608083015260a082015260c08184039101526122f8565b909264ffffffffff6135be61084e9694956f5a6f6e65436f6d706c6574696f6e7300631d18955160e21b01855260e0602086015260e085019061108e565b94600160408501521660608301525f608083015260a082015260c08184039101526122f8565b91939061084e959365ffffffffffff61360b64ffffffffff9360c0875260c087019061108e565b9660016020870152166040850152166060830152608082015260a08184039101526122f8565b909265ffffffffffff61365161084e96949560c0855260c085019061108e565b945f60208501521660408301525f6060830152608082015260a08184039101526122f8565b909265ffffffffffff61369661084e96949560c0855260c085019061108e565b94600160208501521660408301525f6060830152608082015260a08184039101526122f8565b604051906136c98261014e565b60068252651e3937b7ba1f60d11b6020830152565b90916004939261ffff60f01b168252601d60f91b9182600282015261370d825180936020600385019101610ff7565b019060038201526137278251809360208685019101610ff7565b010190565b5f90613739606091612d7a565b60405190602090601f19908161012585011660405260e68452602084019260e691925b8183101561378e57505080613772575b50505092565b5f199060031b1c908183511691199054161790525f808061376c565b8160018583949597965487520194019401919061375c565b60ff16600381101561086f5790565b60ff1661084e81610881565b60ff16600a81101561086f5790565b60408051655461626c657360501b66746273746f726560c81b01602082019081526f4368617261637465725a6f6e65436f6d631d18955160e21b01828401819052838352929592949161382281610185565b5190205f8051602061461083398151915218549161383e61427d565b905f5b82518110156138cc5761385a612e24612e168386610a8d565b6001808260581c1614613871575b50600101613841565b60601c90813b156100e85788516315c19b2760e21b8152915f90839081838161389f8c8c8f60048501614463565b03925af191821561045e576001926138b9575b5090613868565b80611bba6138c692610136565b5f6138b2565b50945f805160206146308339815191528751806138ea868983614427565b0390a26139056138f985612d8f565b83516020850191614534565b60ff808460e01c16806139ab575b50505f5b81518110156139a257613930612e24612e168385610a8d565b6002808260581c1614613947575b50600101613917565b60601c90813b156100e8578751635b28cdaf60e01b8152915f9083908183816139758b8b8e60048501614463565b03925af191821561045e5760019261398f575b509061393e565b80611bba61399c92610136565b5f613988565b50505050509050565b5f6139b5876133c7565b555f60805b82848316106139ca575050613913565b6001816139e186936139dc868d612b05565b6144ff565b920116906139ba565b60408051655461626c657360501b66746273746f726560c81b016020820190815264537461747360581b631d18955160e21b018284018190528383529295929491613a3481610185565b5190205f80516020614610833981519152185491613a506142dc565b905f5b8251811015613ade57613a6c612e24612e168386610a8d565b6001808260581c1614613a83575b50600101613a53565b60601c90813b156100e85788516315c19b2760e21b8152915f908390818381613ab18c8c8f600485016144c6565b03925af191821561045e57600192613acb575b5090613a7a565b80611bba613ad892610136565b5f613ac4565b50945f80516020614630833981519152875180613afc868983614427565b0390a2613b0b6138f985612d7a565b60ff808460e01c1680613ba8575b50505f5b81518110156139a257613b36612e24612e168385610a8d565b6002808260581c1614613b4d575b50600101613b1d565b60601c90813b156100e8578751635b28cdaf60e01b8152915f908390818381613b7b8b8b8e600485016144c6565b03925af191821561045e57600192613b95575b5090613b44565b80611bba613ba292610136565b5f613b8e565b5f613bb287613430565b555f60805b8284831610613bc7575050613b19565b600181613bd986936139dc868d612b42565b92011690613bb7565b908160801c916015809160018060801b031604604051936020906020860160208460051b8801016040528387525f5b848110613c2057505050505050565b825182529185019190830190600101613c11565b919091613c408161335e565b5464ffffffffff8160381c16613c5785518261082c565b8181141594908580613e27575b613e0b57613c72908461410d565b90613c7b61421e565b915f5b8351811015613d0d57613c97612e24612e168387610a8d565b6010808260581c1614613cae575b50600101613c7e565b60601c90813b156100e8575f878b9388838c613ce060405198899687958694630abd6b4560e31b86526004860161351d565b03925af191821561045e57600192613cfa575b5090613ca5565b80611bba613d0792610136565b5f613cf3565b506040805192979195509392915f805160206146b0833981519152905f805160206145f08339815191529080613d468c8a898d85613631565b0390a2613dfb575b613d618783613d5c88612abd565b614380565b5f5b8151811015613df157613d7c612e24612e168385610a8d565b6020808260581c1614613d93575b50600101613d63565b60601c90813b156100e8575f868a9386838b613dc48b5198899687958694636358453360e01b86526004860161351d565b03925af191821561045e57600192613dde575b5090613d8a565b80611bba613deb92610136565b5f613dd7565b5050505050509050565b83613e058661335e565b55613d4e565b604051632994042d60e21b815280611a898580600484016134a4565b5082613e3561302c82613491565b1415613c64565b919091613e488161335e565b5464ffffffffff926060848360601c1691613e6487518461082c565b8381141596908780614072575b61405657613e7f9086614087565b96613e8861421e565b925f5b8451811015613f1957613ea4612e24612e168388610a8d565b6010808260581c1614613ebb575b50600101613e8b565b861c90813b156100e8575f898d938a838e613eec60405198899687958694630abd6b4560e31b865260048601613580565b03925af191821561045e57600192613f06575b5090613eb2565b80611bba613f1392610136565b5f613eff565b5092989397909496919680985f995b60ff8b166001811015613f4f5760ff918b8b6001936028026038011c16019b011699613f28565b509692975093985093989196506040945f805160206145f083398151915260405180613fa18d8b8d65ffffffffffff6f5a6f6e65436f6d706c6574696f6e7300631d18955160e21b0198169085613676565b0390a2614046575b613fb78884613d5c89612ae1565b5f5b8151811015612fd757613fd2612e24612e168385610a8d565b6020808260581c1614613fe9575b50600101613fb9565b831c90813b156100e8575f878b9387838c6140198c5198899687958694636358453360e01b865260048601613580565b03925af191821561045e57600192614033575b5090613fe0565b80611bba61404092610136565b5f61402c565b846140508761335e565b55613fa9565b604051632994042d60e21b815280611a898780600484016134a4565b508461408061302c82613491565b1415613e71565b64ffffffffff8083116140f45766ffffffffffffff821690606083901c16838181106140ea570301915b64ffffffffff60601b60609190911b1664ffffffffff60601b1992909216600169ffffffffff000000000160381b031991909116171790565b90039003916140b1565b604051637149a3c160e01b815260048101849052602490fd5b64ffffffffff8083116140f45766ffffffffffffff821690603883901c1683818110614167570301915b64ffffffffff60381b60389190911b1664ffffffffff60381b19929092166001600160601b031991909116171790565b9003900391614137565b614179610a4d565b805115610a88576142196126a961084e92694368617261637465727360301b631d18955160e21b01602082015264ffffffffff604051915f8051602061465083398151915260208401846141cd848361293b565b03946141e1601f19968781018352826101d7565b51902018926141fc6040519182611def60208201958661293b565b5190205f80516020614690833981519152185460381c1690612b67565b613be2565b614226610a4d565b805115610a88576142196126a961084e926f5a6f6e65436f6d706c6574696f6e7300631d18955160e21b01602082015264ffffffffff604051915f8051602061465083398151915260208401846141cd848361293b565b614285610a4d565b805115610a88576142196126a961084e926f4368617261637465725a6f6e65436f6d631d18955160e21b01602082015264ffffffffff604051915f8051602061465083398151915260208401846141cd848361293b565b6142e4610a4d565b805115610a88576142196126a961084e9264537461747360581b631d18955160e21b01602082015264ffffffffff604051915f8051602061465083398151915260208401846141cd848361293b565b81519060208093019190925b8082101561436857508061435257505050565b5f199060031b1c90818354169119905116179055565b6001839482939451815501930191601f19019061433f565b825161023193602001929091614557565b614399610bc8565b90815115610a88576020820152805160011015610a88576001600160a01b03909116604082015261268090611819565b5f5b601081106143fa575b6040516001600160801b03199092166020830152601082526143f58261014e565b815290565b6001600160801b03198216600382901b1b6001600160f81b03191615614422576001016143cb565b6143d4565b9061084e9261444161444f9260808552608085019061108e565b9083820360208501526122f8565b905f604082015260608183039101526122bb565b9392916144ae6144c1916144a060a0946f4368617261637465725a6f6e65436f6d631d18955160e21b01895260c060208a015260c089019061108e565b9087820360408901526122f8565b5f606087015285810360808701526122bb565b930152565b64537461747360581b631d18955160e21b01815260c0602082018190529094939260a0926144c1926144ae92916144a09189019061108e565b9190915f905b6020908183106145255784518155930192601f1990910190600101614505565b92939190508061435257505050565b9291926020908183106145255784518155930192601f1990910190600101614505565b909392919380614586575b509290926020908183106145255784518155930192601f1990910190600101614505565b60208110156145df575b80156145625791939082602003908360031b5f198460031b1c19811c908751901c9080198354169116178155818311156145d757600101940191601f19910101925f614562565b505050509050565b90601f908260051c01911661459056fefe158a7adba34e256807c8a149028d3162918713c3838afc643ce9f96716ebfd86425bff6b57326c7859e89024fe4f238ca327a1ae4a230180dd2f0e88aaa7d98dbb3a9672eebfd3773e72dd9c102393436816d832c7ba9e1e1ac8fcadcac7a93b4102da22e32d82fc925482184f16c09fd4281692720b87d124aef6da48a0f13a4102da22e32d82fc925482184f16c09fd4281692720b87d124aef6da48a0f114e2fcc58e58e68ec7edc30c8d50dccc3ce2714a623ec81f46b6a63922d76569746255440000000000000000000000005a6f6e65436f6d706c6574696f6e73007462554400000000000000000000000043686172616374657273000000000000","linkReferences":{"src/libraries/StatCalculator.sol":{"StatCalculator":[{"start":983,"length":20},{"start":1587,"length":20},{"start":2579,"length":20},{"start":2890,"length":20},{"start":3435,"length":20}]}}},"methodIdentifiers":{"UD__getCurrentAvailableLevel(uint256)":"d453e623","UD__levelCharacter(bytes32,(int256,int256,uint8,int256,int256,int256,uint256,uint256,uint8,uint8,uint8,uint8,bool))":"feb35bfb","_msgSender()":"119df25f","_msgValue()":"45ec9354","_world()":"e1af802c","calculateLevelBonuses(bytes32)":"2b5e3a6c","supportsInterface(bytes4)":"01ffc9a7","validateLevelRequirements(bytes32,(int256,int256,uint8,int256,int256,int256,uint256,uint256,uint8,uint8,uint8,uint8,bool))":"2349384c"},"id":528}