{"abi":[{"type":"function","name":"UD__getCurrentAvailableLevel","inputs":[{"name":"experience","type":"uint256","internalType":"uint256"}],"outputs":[{"name":"currentAvailableLevel","type":"uint256","internalType":"uint256"}],"stateMutability":"view"},{"type":"function","name":"UD__levelCharacter","inputs":[{"name":"characterId","type":"bytes32","internalType":"bytes32"},{"name":"desiredStats","type":"tuple","internalType":"struct StatsData","components":[{"name":"strength","type":"int256","internalType":"int256"},{"name":"agility","type":"int256","internalType":"int256"},{"name":"class","type":"uint8","internalType":"enum Classes"},{"name":"intelligence","type":"int256","internalType":"int256"},{"name":"maxHp","type":"int256","internalType":"int256"},{"name":"currentHp","type":"int256","internalType":"int256"},{"name":"experience","type":"uint256","internalType":"uint256"},{"name":"level","type":"uint256","internalType":"uint256"},{"name":"powerSource","type":"uint8","internalType":"enum PowerSource"},{"name":"race","type":"uint8","internalType":"enum Race"},{"name":"startingArmor","type":"uint8","internalType":"enum ArmorType"},{"name":"advancedClass","type":"uint8","internalType":"enum AdvancedClass"},{"name":"hasSelectedAdvancedClass","type":"bool","internalType":"bool"}]}],"outputs":[],"stateMutability":"nonpayable"},{"type":"function","name":"_msgSender","inputs":[],"outputs":[{"name":"sender","type":"address","internalType":"address"}],"stateMutability":"view"},{"type":"function","name":"_msgValue","inputs":[],"outputs":[{"name":"value","type":"uint256","internalType":"uint256"}],"stateMutability":"view"},{"type":"function","name":"_world","inputs":[],"outputs":[{"name":"","type":"address","internalType":"address"}],"stateMutability":"view"},{"type":"function","name":"calculateLevelBonuses","inputs":[{"name":"characterId","type":"bytes32","internalType":"bytes32"}],"outputs":[{"name":"statPoints","type":"int256","internalType":"int256"},{"name":"hpGain","type":"int256","internalType":"int256"}],"stateMutability":"view"},{"type":"function","name":"supportsInterface","inputs":[{"name":"interfaceId","type":"bytes4","internalType":"bytes4"}],"outputs":[{"name":"","type":"bool","internalType":"bool"}],"stateMutability":"pure"},{"type":"function","name":"validateLevelRequirements","inputs":[{"name":"characterId","type":"bytes32","internalType":"bytes32"},{"name":"desiredStats","type":"tuple","internalType":"struct StatsData","components":[{"name":"strength","type":"int256","internalType":"int256"},{"name":"agility","type":"int256","internalType":"int256"},{"name":"class","type":"uint8","internalType":"enum Classes"},{"name":"intelligence","type":"int256","internalType":"int256"},{"name":"maxHp","type":"int256","internalType":"int256"},{"name":"currentHp","type":"int256","internalType":"int256"},{"name":"experience","type":"uint256","internalType":"uint256"},{"name":"level","type":"uint256","internalType":"uint256"},{"name":"powerSource","type":"uint8","internalType":"enum PowerSource"},{"name":"race","type":"uint8","internalType":"enum Race"},{"name":"startingArmor","type":"uint8","internalType":"enum ArmorType"},{"name":"advancedClass","type":"uint8","internalType":"enum AdvancedClass"},{"name":"hasSelectedAdvancedClass","type":"bool","internalType":"bool"}]}],"outputs":[{"name":"isValid","type":"bool","internalType":"bool"}],"stateMutability":"view"},{"type":"event","name":"CharacterLeveledUp","inputs":[{"name":"characterId","type":"bytes32","indexed":true,"internalType":"bytes32"},{"name":"newLevel","type":"uint256","indexed":false,"internalType":"uint256"},{"name":"experience","type":"uint256","indexed":false,"internalType":"uint256"}],"anonymous":false},{"type":"event","name":"LevelBonusApplied","inputs":[{"name":"characterId","type":"bytes32","indexed":true,"internalType":"bytes32"},{"name":"statType","type":"uint256","indexed":false,"internalType":"uint256"},{"name":"bonus","type":"int256","indexed":false,"internalType":"int256"}],"anonymous":false},{"type":"event","name":"Store_SetRecord","inputs":[{"name":"tableId","type":"bytes32","indexed":true,"internalType":"ResourceId"},{"name":"keyTuple","type":"bytes32[]","indexed":false,"internalType":"bytes32[]"},{"name":"staticData","type":"bytes","indexed":false,"internalType":"bytes"},{"name":"encodedLengths","type":"bytes32","indexed":false,"internalType":"EncodedLengths"},{"name":"dynamicData","type":"bytes","indexed":false,"internalType":"bytes"}],"anonymous":false},{"type":"event","name":"Store_SpliceDynamicData","inputs":[{"name":"tableId","type":"bytes32","indexed":true,"internalType":"ResourceId"},{"name":"keyTuple","type":"bytes32[]","indexed":false,"internalType":"bytes32[]"},{"name":"dynamicFieldIndex","type":"uint8","indexed":false,"internalType":"uint8"},{"name":"start","type":"uint48","indexed":false,"internalType":"uint48"},{"name":"deleteCount","type":"uint40","indexed":false,"internalType":"uint40"},{"name":"encodedLengths","type":"bytes32","indexed":false,"internalType":"EncodedLengths"},{"name":"data","type":"bytes","indexed":false,"internalType":"bytes"}],"anonymous":false},{"type":"error","name":"EncodedLengths_InvalidLength","inputs":[{"name":"length","type":"uint256","internalType":"uint256"}]},{"type":"error","name":"GamePaused","inputs":[]},{"type":"error","name":"LevelSystem_CharacterInCombat","inputs":[]},{"type":"error","name":"LevelSystem_CharacterNotFound","inputs":[]},{"type":"error","name":"LevelSystem_InsufficientExperience","inputs":[]},{"type":"error","name":"LevelSystem_InvalidLevel","inputs":[]},{"type":"error","name":"LevelSystem_InvalidStatChanges","inputs":[]},{"type":"error","name":"LevelSystem_MaxLevelReached","inputs":[]},{"type":"error","name":"Slice_OutOfBounds","inputs":[{"name":"data","type":"bytes","internalType":"bytes"},{"name":"start","type":"uint256","internalType":"uint256"},{"name":"end","type":"uint256","internalType":"uint256"}]},{"type":"error","name":"Store_IndexOutOfBounds","inputs":[{"name":"length","type":"uint256","internalType":"uint256"},{"name":"accessedIndex","type":"uint256","internalType":"uint256"}]},{"type":"error","name":"Store_InvalidResourceType","inputs":[{"name":"expected","type":"bytes2","internalType":"bytes2"},{"name":"resourceId","type":"bytes32","internalType":"ResourceId"},{"name":"resourceIdString","type":"string","internalType":"string"}]},{"type":"error","name":"Store_InvalidSplice","inputs":[{"name":"startWithinField","type":"uint40","internalType":"uint40"},{"name":"deleteCount","type":"uint40","internalType":"uint40"},{"name":"fieldLength","type":"uint40","internalType":"uint40"}]},{"type":"error","name":"World_AccessDenied","inputs":[{"name":"resource","type":"string","internalType":"string"},{"name":"caller","type":"address","internalType":"address"}]}],"bytecode":{"object":"0x60808060405234610016576143f3908161001b8239f35b5f80fdfe60806040526004361015610011575f80fd5b5f3560e01c806301ffc9a714610094578063119df25f1461008f5780632349384c1461008a5780632b5e3a6c1461008557806345ec935414610080578063d453e6231461007b578063e1af802c146100765763feb35bfb14610071575f80fd5b6104e3565b6104c9565b6104a3565b610484565b61036c565b610349565b6100f6565b346100e85760203660031901126100e85760043563ffffffff60e01b81168091036100e85763b5dee12760e01b81149081156100d7575b50151560805260206080f35b6301ffc9a760e01b149050816100cb565b5f80fd5b5f9103126100e857565b346100e8575f3660031901126100e8576020610110610b8b565b6040516001600160a01b039091168152f35b634e487b7160e01b5f52604160045260245ffd5b6001600160401b03811161014957604052565b610122565b604081019081106001600160401b0382111761014957604052565b610ca081019081106001600160401b0382111761014957604052565b606081019081106001600160401b0382111761014957604052565b608081019081106001600160401b0382111761014957604052565b61012081019081106001600160401b0382111761014957604052565b601f909101601f19168101906001600160401b0382119082101761014957604052565b604051906101a082016001600160401b0381118382101761014957604052565b600311156100e857565b606435906102318261021a565b565b600411156100e857565b610124359061023182610233565b610144359061023182610233565b610164359061023182610233565b600a11156100e857565b610184359061023182610267565b801515036100e857565b6101a435906102318261027f565b906101c06003198301126100e8576101a06004359260231901126100e8576102bd6101fa565b602435815260443560208201526102d2610224565b6040820152608435606082015260a435608082015260c43560a082015260e43560c08201526101043560e082015261030861023d565b61010082015261031661024b565b610120820152610324610259565b610140820152610332610271565b610160820152610340610289565b61018082015290565b346100e857602061036261035c36610297565b90610993565b6040519015158152f35b346100e8576020806003193601126100e8576103a660e061039f610391600435610be3565b848082518301019101610731565b0151610808565b6040516322fa929b60e01b81526004810182905273__$adf94ce26827ee9b3226667380e63e262b$__91908381602481865af491821561045e5784915f93610463575b50604051633b39a0f760e21b81526004810191909152919282908180602481015b03915af492831561045e575f9361042f575b5050604080519182526020820192909252f35b61044f929350803d10610457575b61044781836101d7565b810190610a3e565b905f8061041c565b503d61043d565b610988565b61040a935061047e90833d85116104575761044781836101d7565b926103e9565b346100e8575f3660031901126100e8576020604051601f193601358152f35b346100e85760203660031901126100e85760206104c1600435610ae2565b604051908152f35b346100e8575f3660031901126100e85760206101106117de565b346100e8576104f136610297565b906104fa610c1d565b6105146105086105086117de565b6001600160a01b031690565b916040805192633e86fb3160e21b84526020938481600497818061053f878c83019190602083019252565b03915afa90811561045e575f916106e8575b50156106d8576105656105086105086117de565b84835180926385fcd3bd60e01b82528180610587878c83019190602083019252565b03915afa90811561045e575f916106bb575b506106ab576105b86105aa82610be3565b858082518301019101610731565b916105c282610c48565b60a084015260e0830160648151101561069b576105e260c0850151610ae2565b8151101561068b576105f49051610808565b815163f49be66d60e01b81529095908181806106148a8a8a848f01610960565b038173__$adf94ce26827ee9b3226667380e63e262b$__5af491821561045e575f9261065e575b50501561064f575061064d9450610d2b565b005b516353b1d71360e01b81528590fd5b61067d9250803d10610684575b61067581836101d7565b810190610839565b5f8061063b565b503d61066b565b815163546af26960e11b81528790fd5b8151635d59fa8360e01b81528790fd5b815163e22ec58560e01b81528590fd5b6106d29150853d87116106845761067581836101d7565b5f610599565b815163e78e2e7f60e01b81528590fd5b6106ff9150853d87116106845761067581836101d7565b5f610551565b51906102318261021a565b519061023182610233565b519061023182610267565b51906102318261027f565b90816101a09103126100e8576107456101fa565b90805182526020810151602083015261076060408201610705565b6040830152606081015160608301526080810151608083015260a081015160a083015260c081015160c083015260e081015160e08301526101006107a5818301610710565b908301526101206107b7818301610710565b908301526101406107c9818301610710565b908301526101606107db81830161071b565b908301526107ed610180809201610726565b9082015290565b634e487b7160e01b5f52601160045260245ffd5b906001820180921161081657565b6107f4565b90620f424091820180921161081657565b9190820180921161081657565b908160209103126100e8575161084e8161027f565b90565b634e487b7160e01b5f52602160045260245ffd5b6003111561086f57565b610851565b90600382101561086f5752565b6004111561086f57565b9061089582610881565b52565b600a111561086f57565b90600a82101561086f5752565b906102319180518252602081015160208301526108d460408201516040840190610874565b606081015160608301526080810151608083015260a081015160a083015260c081015160c083015260e081015160e0830152610919610100808301519084019061088b565b61092c610120808301519084019061088b565b61093f610140808301519084019061088b565b61095261016080830151908401906108a2565b610180908101511515910152565b61098461034092959493610979836103608101986108af565b6101a08301906108af565b0152565b6040513d5f823e3d90fd5b61099f6109ae91610be3565b60208082518301019101610731565b906109bc60c0830151610ae2565b9060e083015180921115610a37576109d5602092610808565b926109f4604051948593849363f49be66d60e01b855260048501610960565b038173__$adf94ce26827ee9b3226667380e63e262b$__5af490811561045e575f91610a1e575090565b61084e915060203d6020116106845761067581836101d7565b5050505f90565b908160209103126100e8575190565b60405190610a5a8261014e565b6001825260203681840137565b634e487b7160e01b5f52603260045260245ffd5b805115610a885760200190565b610a67565b8051821015610a885760209160051b010190565b90604082019082526020606081936040838201528551809452019301915f5b828110610ace575050505090565b835185529381019392810192600101610ac0565b60405190610aef82610169565b6064808352610c803660208501375f5b818110610b6e575050604051630b728a8960e41b81529160209183918291610b2b919060048401610aa1565b038173__$adf94ce26827ee9b3226667380e63e262b$__5af490811561045e575f91610b55575090565b61084e915060203d6020116104575761044781836101d7565b80610b7a600192610c00565b610b848287610a8d565b5201610aff565b36603319013560601c908115610b9d57565b339150565b604051602081016001600160401b03811182821017610149576040525f8152905f368137565b60405190610bd582610185565b600282526040366020840137565b610beb610a4d565b805115610a885761084e9160208201526110b8565b610c08610a4d565b805115610a885761084e9160208201526111cb565b610c2d610c28610ba2565b611259565b60f81c610c3657565b60405163379a7ed960e01b8152600490fd5b610c50610a4d565b805115610a885761084e9160208201526112e7565b9060018201915f60018412911290801582169115161761081657565b9060028201915f60028412911290801582169115161761081657565b9190915f838201938412911290801582169115161761081657565b6101a08101929161023191906108af565b908160c09103126100e8576040519060c08201906001600160401b038211838310176101495760a0916040528051835260208101516020840152604081015160408401526060810151606084015260808101516080840152015160a082015290565b60408051633b39a0f760e21b815260048101869052919493909291602091828260248173__$adf94ce26827ee9b3226667380e63e262b$__5af491821561045e576060859289610dd695610dd0945f91610fd1575b505f8113610f7a575b50508051845285810151868501520151936060830194855260e083019488865260058914610f0d575b50610dc287519384928301610cb8565b03601f1981018352826101d7565b86611813565b610de46105086105086117de565b835163a543a0c560e01b81526004810187905260c0918290829060249082905afa801561045e57610e20915f91610ef0575b50835190886118cc565b610e2e6105086105086117de565b845163ad54c98b60e01b81526004810188905292908290849060249082905f905af1801561045e577f34a1fd0f3661ab96bb1ff47fa1b6e06d88f95fe9a833ac10f7cc716bf211d83696610eb094610e9592610ec3575b5060038114610eb5575b88611b57565b51920151925191825260208201929092529081906040820190565b0390a2565b610ebe89611a48565b610e8f565b610ee290853d8711610ee9575b610eda81836101d7565b810190610cc9565b505f610e85565b503d610ed0565b610f079150833d8511610ee957610eda81836101d7565b5f610e16565b610100840160018151610f1f81610881565b610f2881610881565b03610f4657505060808301610f3d8151610c81565b90525b5f610db2565b60029051610f5381610881565b610f5c81610881565b14610f68575b50610f40565b610f728151610c65565b90525f610f62565b610fc77fd0c2f07accafa5e943870ec34a98cf0e887341a981fb4b4ad6187c2d9b6d1e919160808801610fae828251610c9d565b90528b5191829182919060206040840193600381520152565b0390a2895f610d89565b610fe89150883d8a116104575761044781836101d7565b5f610d80565b5f5b838110610fff5750505f910152565b8181015183820152602001610ff0565b81601f820112156100e85780516001600160401b0381116101495760405192611042601f8301601f1916602001856101d7565b818452602082840101116100e85761084e9160208085019101610fee565b906020828203126100e85781516001600160401b0381116100e85761084e920161100f565b9081518082526020808093019301915f5b8281106110a4575050505090565b835185529381019392810192600101611096565b6001600160a01b036110c86117de565b163081036110da575061084e90611c20565b604051631e78897760e01b81525f805160206143d3833981519152600482015260606024820152915f91839182908190611118906064830190611085565b6001604483015203915afa90811561045e575f91611134575090565b61084e91503d805f833e61114881836101d7565b810190611060565b6001600160a01b036111606117de565b16308103611172575061084e90611ca3565b604051631e78897760e01b81525f805160206143b3833981519152600482015260606024820152915f918391829081906111b0906064830190611085565b85604483015203915afa90811561045e575f91611134575090565b6001600160a01b036111db6117de565b163081036111ed575061084e90611cca565b604051638c364d5960e01b8152654c6576656c7360501b631d18955160e21b0160048201526080602482015291602091839182908190611231906084830190611085565b5f6044830152630100080160dd1b606483015203915afa90811561045e575f91610b55575090565b6001600160a01b036112696117de565b1630810361127b575061084e90611d42565b604051638c364d5960e01b81526514185d5cd95960521b631d18955160e21b01600482015260806024820152916020918391829081906112bf906084830190611085565b5f6044830152630101000160d81b606483015203915afa90811561045e575f91610b55575090565b6001600160a01b036112f76117de565b16308103611309575061084e90611da4565b604051638c364d5960e01b815264537461747360581b631d18955160e21b016004820152608060248201529160209183918290819061134c906084830190611085565b600560448301526fe60d002020012020202020010101010160781b606483015203915afa90811561045e575f91610b55575090565b6001600160a01b036113916117de565b163081036113a3575061084e90611e36565b604051638c364d5960e01b81526f53797374656d52656769737472790000661d189ddbdc9b1960ca1b0160048201526080602482015291602091839182908190611231906084830190611085565b6001600160a01b036114016117de565b16308103611413575061084e90611ea2565b604051638c364d5960e01b81526f556c74696d617465446f6d696e696f6e631d18955160e21b016004820152608060248201529160209183918290819061145e906084830190611085565b600460448301526f45434000450505050505050805080805607a1b606483015203915afa90811561045e575f91610b55575090565b6001600160a01b036114a36117de565b163081036114b5575061084e90611f27565b604051638c364d5960e01b81525f805160206143d3833981519152600482015260806024820152916020918391829081906114f4906084830190611085565b60016044830152665504022014200160c01b606483015203915afa90811561045e575f91610b55575090565b6001600160a01b036115306117de565b16308103611546575061154290612af6565b5490565b604051638c364d5960e01b81525f805160206143d383398151915260048201526080602482015291602091839182908190611585906084830190611085565b5f6044830152665504022014200160c01b606483015203915afa90811561045e575f91610b55575090565b6001600160a01b036115c06117de565b163081036115d2575061154290612b0b565b604051638c364d5960e01b8152695a6f6e65436f6e66696760301b631d18955160e21b016004820152608060248201529160209183918290819061161a906084830190611085565b5f604483015264020010010160d51b606483015203915afa90811561045e575f91610b55575090565b6001600160a01b036116536117de565b16308103611665575061084e90611f8c565b604051638c364d5960e01b81526f4368617261637465725a6f6e65436f6d631d18955160e21b01600482015260806024820152916020918391829081906116b0906084830190611085565b5f60448301526502081800090160cd1b606483015203915afa90811561045e575f91610b55575090565b6001600160a01b036116ea6117de565b163081036116fc575061084e90611ff5565b604051638c364d5960e01b8152695a6f6e65436f6e66696760301b631d18955160e21b0160048201526080602482015291602091839182908190611744906084830190611085565b6001604483015264020010010160d51b606483015203915afa90811561045e575f91610b55575090565b6001600160a01b0361177e6117de565b16308103611790575061084e90612058565b604051638c364d5960e01b81526f5265736f757263654163636573730000661d189ddbdc9b1960ca1b01600482015260806024820152916020918391829081906112bf906084830190611085565b7f629a4c26e296b22a8e0856e9f6ecb2d1008d7e00081111962cd175fa7488e175546001600160a01b03168061084e57503390565b9061181c610a4d565b91825115610a885760208301526001600160a01b036118396117de565b169130830361184c576102319250612b9b565b90823b156100e8576040516377b7543160e11b81525f805160206143d3833981519152600482015260806024820152925f9284928391859183916118b29190611899906084850190611085565b6001604485015283810360031901606485015290612101565b03925af1801561045e576118c35750565b61023190610136565b9291926118d7610b8b565b936118e0610a4d565b805115610a88576118f690306020820152611381565b61191386600160801b600160f01b038316616e7360f01b17614094565b8015611a01575b156119625750610231939450608061193183612215565b9380518552602081015160208601526040810151606086015201805160808501525160a084015260e083015261235b565b8590608081901b6001600160801b031916906119c190601081901b6001600160901b031916806119f257506119956133bf565b925b806119e15750610dc26119a86133bf565b6040519485936001600160f01b031916602085016133e1565b6119dd60405192839263d787b73760e01b845260048401612e34565b0390fd5b6119ed610dc2916140cc565b6119a8565b6119fb906140cc565b92611997565b50611a0c8682614094565b61191a565b908160209103126100e857516001600160a01b03811681036100e85790565b90620f42409182810292818404149015171561081657565b611a58611a53610ba2565b6113f1565b60601c908115611b5357611a6b816123ff565b6040516331a9108f60e11b815260016004820152909190602081602481875afa5f9181611b22575b50611b05575b50611aa6611aab91612422565b61081b565b823b156100e8576040516340c10f1960e01b81526001600160a01b0390921660048301526024820152905f908290818381604481015b03925af1801561045e57611af25750565b80611aff61023192610136565b806100ec565b6001600160a01b03838116911614611b1d575f611a99565b505050565b611b4591925060203d602011611b4c575b611b3d81836101d7565b810190611a11565b905f611a93565b503d611b33565b5050565b611b5f610a4d565b90600192826001611b708695610a7b565b525f935b611b80575b5050505050565b8051841015611c1b578484611b96829684610a8d565b51611ba08161243f565b8015611c14578510611c0e57611bb6818761245c565b611c0e57600a611bce611bc88361248f565b51610808565b611bd8888461250c565b611be24284612586565b611bee8142858b612600565b1115611bfe575b505b0193611b74565b611c0890866126ef565b5f611bf5565b50611bf7565b5050611bf7565b611b79565b61084e9064ffffffffff604051915f805160206143738339815191526020840184611c4b84836127ce565b0394611c5f601f19968781018352826101d7565b5190201892611c866040519182611c7a6020820195866127ce565b039081018352826101d7565b5190205f80516020614393833981519152185460601c16906129af565b61084e9064ffffffffff611cbf611cb983612905565b92613155565b5460381c16906129af565b6040516020816020810193654c6576656c7360501b631d18955160e21b0185526040820160208251919201935f5b828110611d2b57505050611d15925003601f1981018352826101d7565b5190205f80516020614313833981519152185490565b855184529481019486945092810192600101611cf8565b60405160208160208101936514185d5cd95960521b631d18955160e21b0185526040820160208251919201935f5b828110611d8d57505050611d15925003601f1981018352826101d7565b855184529481019486945092810192600101611d70565b611dad90612a17565b5f905f5b60058110611e04575081816020821015611dee575b505080548260031b1b916020039081602011611de157505090565b600101549060031b1c1790565b90809350601f925060051c019116905f80611dc6565b9160ff6fe60d002020012020202020010101010160781b84601b0360031b1c1681018091116108165791600101611db1565b60405160208160208101936f53797374656d52656769737472790000661d189ddbdc9b1960ca1b0185526040820160208251919201935f5b828110611e8b57505050611d15925003601f1981018352826101d7565b855184529481019486945092810192600101611e6e565b611eab90612a8d565b5f905f5b60048110611ef5575081816020821015611edf575b505080548260031b1b916020039081601411611de157505090565b90809350601f925060051c019116905f80611ec4565b9160ff6f45434000450505050505050805080805607a1b84601b0360031b1c1681018091116108165791600101611eaf565b611f3090612af6565b5f905f5b60018110611f63575081816020821015611edf57505080548260031b1b916020039081601411611de157505090565b9160ff665504022014200160c01b84601b0360031b1c1681018091116108165791600101611f34565b60405160208160208101936f4368617261637465725a6f6e65436f6d631d18955160e21b0185526040820160208251919201935f5b828110611fde57505050611d15925003601f1981018352826101d7565b855184529481019486945092810192600101611fc1565b611ffe90612b0b565b5f905f5b60018110612031575081816020821015611dee57505080548260031b1b916020039081602011611de157505090565b9160ff64020010010160d51b84601b0360031b1c1681018091116108165791600101612002565b60405160208160208101936f5265736f757263654163636573730000661d189ddbdc9b1960ca1b0185526040820160208251919201935f5b8281106120ad57505050611d15925003601f1981018352826101d7565b855184529481019486945092810192600101612090565b90606051918281525f5b8381106120ed5750825f602080949584010152601f8019910116010190565b8060209160800151828285010152016120ce565b9060209161211a81518092818552858086019101610fee565b601f01601f1916010190565b5f805160206143b3833981519152815260806020820181905261084e93919261215191840190611085565b915f60408201526060818403910152612101565b5f805160206143b3833981519152815260806020820181905261084e93919261219091840190611085565b91600160408201526060818403910152612101565b604051906101a082016001600160401b03811183821017610149576040525f610180838281528260208201528260408201528260608201528260808201528260a08201528260c08201528260e0820152826101008201528261012082015282610140820152826101608201520152565b61221d6121a5565b50612226610a4d565b805115610a885761223b916020820152612ea4565b50506122456121a5565b9060208101519061235160408201519161226b612266606083015160f81c90565b6134a9565b9060618101519060818101519060a18101519060c18101519061232f8a61232560e1840151936101206122ab6122a661010184015160f81c90565b6134b8565b9361231f6122c16122a661010286015160f81c90565b936123156122d76122a661010384015160f81c90565b9161230b6123016101056122f86122f361010486015160f81c90565b6134c4565b93015160f81c90565b1515610180870152565b6101608501612f6e565b6101408301612f7a565b01612f7a565b6101008c01612f7a565b60e08a015260c089015260a08801526080870152606086015260408501612f83565b6020830152815290565b6123e6610231926123d98151916020810151604082015161237b81610865565b6060830151608084015160a085015160c08601519160e087015193610100880151956123a687610881565b610120890151976123b689610881565b6123e06101806101408c01519b6123cc8d610881565b6101608101519d8e610898565b0151151590565b9b612faf565b906123ef610a4d565b906123f982610a7b565b5261304f565b612407610a4d565b805115610a885761241c916020820152611493565b60601c90565b61242a610a4d565b805115610a885761084e916020820152611520565b612447610a4d565b805115610a885761084e9160208201526115b0565b612464610bc8565b90815115610a88576020820152805160011015610a8857612489916040820152611643565b60f81c90565b612497610a4d565b805115610a88576124b26124ba916020936020820152611150565b8051906130d6565b908160801c600180607b1b038360051c16906040519360208086019181600160801b03168601016040528285525f5b8381106124f857505050505090565b8251825291840191908401906001016124e9565b90612515610a4d565b91825115610a88576020830152604051906020820152602081526125388161014e565b6001600160a01b036125486117de565b169130830361255b576102319250613937565b90823b156100e8576118b2925f9283604051809681958294630a87993160e11b845260048401612126565b9061258f610a4d565b91825115610a88576020830152604051906020820152602081526125b28161014e565b6001600160a01b036125c26117de565b16913083036125d5576102319250613b3f565b90823b156100e8576118b2925f9283604051809681958294630a87993160e11b845260048401612165565b919260405193600160f81b60208601526021850152604184015260418352612627836101a0565b61262f610bc8565b91825115610a88576020830152815160011015610a885760408201526001600160a01b0361265b6117de565b1630810361266e575090610231916134d3565b90813b156100e8575f916126c7836126da93611ae16040519788968795869463298314fb60e01b86526f4368617261637465725a6f6e65436f6d631d18955160e21b01600487015260a0602487015260a4860190611085565b6003199283868303016044870152612101565b908460648501528382030160848401526120c4565b6126fa611a53610ba2565b60601c918215611b1d57612716612710836123ff565b92612422565b61271e610a4d565b805115610a885761273a81611aab94602061273f9401526116da565b611a30565b61082c565b6953746f7265486f6f6b7360301b66746273746f726560c81b01815281516020918201928201915f5b82811061277b575050505090565b83518552938101939281019260010161276d565b5f805160206143d3833981519152815281516020918201928201915f5b8281106127ba575050505090565b8351855293810193928101926001016127ac565b5f805160206143d3833981519152815281516020918201928201915f5b8281106127f9575050505090565b8351855293810193928101926001016127eb565b5f805160206143b3833981519152815281516020918201928201915f5b828110612838575050505090565b83518552938101939281019260010161282a565b6f4368617261637465725a6f6e65436f6d631d18955160e21b01815281516020918201928201915f5b828110612883575050505090565b835185529381019392810192600101612875565b64537461747360581b631d18955160e21b01815281516020918201928201915f5b8281106128c6575050505090565b8351855293810193928101926001016128b8565b5f80516020614373833981519152906040516128fe81610dc260208201948561278f565b5190201890565b5f80516020614353833981519152906040516128fe81610dc260208201948561280d565b5f80516020614373833981519152906040516128fe81610dc260208201948561280d565b905f805160206143538339815191529160405161297281610dc260208201948561284c565b51902060f89190911b6001600160f81b031916181890565b905f805160206143538339815191529160405161297281610dc2602082019485612897565b60408051601f19603f85830101811690925283815292602080850193925b818310156129ff575050806129e3575b50505090565b5f199060031b1c908183511691199054161790525f80806129dd565b816001858394959796548752019401940191906129cd565b604051602081602081019364537461747360581b631d18955160e21b0185526040820160208251919201935f5b828110612a7657505050612a61925003601f1981018352826101d7565b5190205f805160206143138339815191521890565b855184529481019486945092810192600101612a44565b60405160208160208101936f556c74696d617465446f6d696e696f6e631d18955160e21b0185526040820160208251919201935f5b828110612adf57505050612a61925003601f1981018352826101d7565b855184529481019486945092810192600101612ac2565b604051612a6181610dc26020820194856127ce565b6040516020816020810193695a6f6e65436f6e66696760301b631d18955160e21b0185526040820160208251919201935f5b828110612b5a57505050612a61925003601f1981018352826101d7565b855184529481019486945092810192600101612b3d565b604051612a6181610dc2602082019485612897565b604051612a6181610dc260208201948561284c565b919091612ba78161312b565b5464ffffffffff926060848360601c1691612bcd612bc584806130c9565b88519061082c565b8381141596908780612e15575b612de957612be89086613d8a565b96612bf1613e74565b925f5b8451811015612c9d57612c28612c1b612c0d8388610a8d565b516001600160581b03191690565b6001600160581b03191690565b6010808260581c1614612c3f575b50600101612bf4565b861c90813b156100e8575f898d938a838e612c7060405198899687958694630abd6b4560e31b8652600486016131c5565b03925af191821561045e57600192612c8a575b5090612c36565b80611aff612c9792610136565b5f612c83565b509298939790949691965f985f995b60ff8b166001811015612cd35760ff918b8b6001936028026038011c16019b011699612cac565b509692975093985093989196506040945f805160206142f38339815191528589612d258d8b60405194859465ffffffffffff694368617261637465727360301b631d18955160e21b01991690866132e7565b0390a2612dd9575b612d3f88612d3a886128da565b614036565b5f5b8151811015612dce57612d5a612c1b612c0d8385610a8d565b6020808260581c1614612d71575b50600101612d41565b831c90813b156100e8575f878b9387838c612da18c5198899687958694636358453360e01b8652600486016131c5565b03925af191821561045e57600192612dbb575b5090612d68565b80611aff612dc892610136565b5f612db4565b505050505050509050565b84612de38761312b565b55612d2d565b604051632994042d60e21b81525f600482015264ffffffffff8616602482018190526044820152606490fd5b5084612e2d612e2382613194565b64ffffffffff1690565b1415612bda565b90612e4c602091949394604084526040840190612101565b6001600160a01b03909416910152565b90916060828403126100e85781516001600160401b0392908381116100e85784612e8791830161100f565b9360208201519360408301519081116100e85761084e920161100f565b6001600160a01b03612eb46117de565b16308103612ecd5750612ec69061342f565b9192909190565b60405163419b58fd60e01b815264537461747360581b631d18955160e21b0160048201526060602482015292915f91849182908190612f10906064830190611085565b6fe60d002020012020202020010101010160781b604483015203915afa90811561045e575f80935f93612f44575b50929190565b91935050612f6491503d805f833e612f5c81836101d7565b810190612e5c565b929092915f612f3e565b600a82101561086f5752565b61089582610881565b600382101561086f5752565b612f9881610881565b60f81b9052565b600a81101561086f5760f81b9052565b9060209c9a969b9892979199949395996040519d8e015260408d0152600387101561086f576130429a6130359960a18e6130149661301f9961302a9c60f81b606084015260618301526081820152015260c18d015260e18c01526101018b0190612f8f565b610102890190612f8f565b610103870190612f8f565b610104850190612f9f565b151560f81b610105830152565b60e6815261084e816101bb565b6001600160a01b0361305f6117de565b16308103613072575090610231916136ed565b90813b156100e85760405163298314fb60e01b815264537461747360581b631d18955160e21b01600482015260a06024820152925f9284929091839185918391611ae191906126da906126c79060a4860190611085565b9190820391821161081657565b90815181116130f5576001600160801b031660209190910160801b1790565b6040516323230fa360e01b8152606060048201529250829161311b906064840190612101565b905f602484015260448301520390fd5b60405161314081610dc260208201948561278f565b5190205f805160206143938339815191521890565b60405161314081610dc260208201948561280d565b60405161314081610dc260208201948561284c565b60405161314081610dc2602082019485612897565b9064ffffffffff80921691821161081657565b64ffffffffff91821681525f60208201529116604082015260600190565b5f805160206143d3833981519152815260e06020820181905261084e959394919264ffffffffff916131fa9190850190611085565b94600160408501525f606085015216608083015260a082015260c0818403910152612101565b909264ffffffffff61325e61084e9694956f5a6f6e65436f6d706c6574696f6e7300631d18955160e21b01855260e0602086015260e0850190611085565b945f60408501521660608301525f608083015260a082015260c0818403910152612101565b909264ffffffffff6132c161084e9694956f5a6f6e65436f6d706c6574696f6e7300631d18955160e21b01855260e0602086015260e0850190611085565b94600160408501521660608301525f608083015260a082015260c0818403910152612101565b91939061084e959365ffffffffffff61330e64ffffffffff9360c0875260c0870190611085565b9660016020870152166040850152166060830152608082015260a0818403910152612101565b909265ffffffffffff61335461084e96949560c0855260c0850190611085565b945f60208501521660408301525f6060830152608082015260a0818403910152612101565b909265ffffffffffff61339961084e96949560c0855260c0850190611085565b94600160208501521660408301525f6060830152608082015260a0818403910152612101565b604051906133cc8261014e565b60068252651e3937b7ba1f60d11b6020830152565b90916004939261ffff60f01b168252601d60f91b91826002820152613410825180936020600385019101610fee565b0190600382015261342a8251809360208685019101610fee565b010190565b5f9061343c606091612b71565b60405190602090601f19908161012585011660405260e68452602084019260e691925b8183101561349157505080613475575b50505092565b5f199060031b1c908183511691199054161790525f808061346f565b8160018583949597965487520194019401919061345f565b60ff16600381101561086f5790565b60ff1661084e81610881565b60ff16600a81101561086f5790565b60408051655461626c657360501b66746273746f726560c81b01602082019081526f4368617261637465725a6f6e65436f6d631d18955160e21b01828401819052838352929592949161352581610185565b5190205f80516020614313833981519152185491613541613f80565b905f5b82518110156135cf5761355d612c1b612c0d8386610a8d565b6001808260581c1614613574575b50600101613544565b60601c90813b156100e85788516315c19b2760e21b8152915f9083908183816135a28c8c8f60048501614166565b03925af191821561045e576001926135bc575b509061356b565b80611aff6135c992610136565b5f6135b5565b50945f805160206143338339815191528751806135ed86898361412a565b0390a26136086135fc85612b86565b83516020850191614237565b60ff808460e01c16806136ae575b50505f5b81518110156136a557613633612c1b612c0d8385610a8d565b6002808260581c161461364a575b5060010161361a565b60601c90813b156100e8578751635b28cdaf60e01b8152915f9083908183816136788b8b8e60048501614166565b03925af191821561045e57600192613692575b5090613641565b80611aff61369f92610136565b5f61368b565b50505050509050565b5f6136b88761316a565b555f60805b82848316106136cd575050613616565b6001816136e486936136df868d61294d565b614202565b920116906136bd565b60408051655461626c657360501b66746273746f726560c81b016020820190815264537461747360581b631d18955160e21b01828401819052838352929592949161373781610185565b5190205f80516020614313833981519152185491613753613fdf565b905f5b82518110156137e15761376f612c1b612c0d8386610a8d565b6001808260581c1614613786575b50600101613756565b60601c90813b156100e85788516315c19b2760e21b8152915f9083908183816137b48c8c8f600485016141c9565b03925af191821561045e576001926137ce575b509061377d565b80611aff6137db92610136565b5f6137c7565b50945f805160206143338339815191528751806137ff86898361412a565b0390a261380e6135fc85612b71565b60ff808460e01c16806138ab575b50505f5b81518110156136a557613839612c1b612c0d8385610a8d565b6002808260581c1614613850575b50600101613820565b60601c90813b156100e8578751635b28cdaf60e01b8152915f90839081838161387e8b8b8e600485016141c9565b03925af191821561045e57600192613898575b5090613847565b80611aff6138a592610136565b5f613891565b5f6138b58761317f565b555f60805b82848316106138ca57505061381c565b6001816138dc86936136df868d61298a565b920116906138ba565b908160801c916015809160018060801b031604604051936020906020860160208460051b8801016040528387525f5b84811061392357505050505050565b825182529185019190830190600101613914565b91909161394381613155565b5464ffffffffff8160381c1661395a85518261082c565b8181141594908580613b2a575b613b0e576139759084613e10565b9061397e613f21565b915f5b8351811015613a105761399a612c1b612c0d8387610a8d565b6010808260581c16146139b1575b50600101613981565b60601c90813b156100e8575f878b9388838c6139e360405198899687958694630abd6b4560e31b865260048601613220565b03925af191821561045e576001926139fd575b50906139a8565b80611aff613a0a92610136565b5f6139f6565b506040805192979195509392915f805160206143b3833981519152905f805160206142f38339815191529080613a498c8a898d85613334565b0390a2613afe575b613a648783613a5f88612905565b614083565b5f5b8151811015613af457613a7f612c1b612c0d8385610a8d565b6020808260581c1614613a96575b50600101613a66565b60601c90813b156100e8575f868a9386838b613ac78b5198899687958694636358453360e01b865260048601613220565b03925af191821561045e57600192613ae1575b5090613a8d565b80611aff613aee92610136565b5f613ada565b5050505050509050565b83613b0886613155565b55613a51565b604051632994042d60e21b8152806119dd8580600484016131a7565b5082613b38612e2382613194565b1415613967565b919091613b4b81613155565b5464ffffffffff926060848360601c1691613b6787518461082c565b8381141596908780613d75575b613d5957613b829086613d8a565b96613b8b613f21565b925f5b8451811015613c1c57613ba7612c1b612c0d8388610a8d565b6010808260581c1614613bbe575b50600101613b8e565b861c90813b156100e8575f898d938a838e613bef60405198899687958694630abd6b4560e31b865260048601613283565b03925af191821561045e57600192613c09575b5090613bb5565b80611aff613c1692610136565b5f613c02565b5092989397909496919680985f995b60ff8b166001811015613c525760ff918b8b6001936028026038011c16019b011699613c2b565b509692975093985093989196506040945f805160206142f383398151915260405180613ca48d8b8d65ffffffffffff6f5a6f6e65436f6d706c6574696f6e7300631d18955160e21b0198169085613379565b0390a2613d49575b613cba8884613a5f89612929565b5f5b8151811015612dce57613cd5612c1b612c0d8385610a8d565b6020808260581c1614613cec575b50600101613cbc565b831c90813b156100e8575f878b9387838c613d1c8c5198899687958694636358453360e01b865260048601613283565b03925af191821561045e57600192613d36575b5090613ce3565b80611aff613d4392610136565b5f613d2f565b84613d5387613155565b55613cac565b604051632994042d60e21b8152806119dd8780600484016131a7565b5084613d83612e2382613194565b1415613b74565b64ffffffffff808311613df75766ffffffffffffff821690606083901c1683818110613ded570301915b64ffffffffff60601b60609190911b1664ffffffffff60601b1992909216600169ffffffffff000000000160381b031991909116171790565b9003900391613db4565b604051637149a3c160e01b815260048101849052602490fd5b64ffffffffff808311613df75766ffffffffffffff821690603883901c1683818110613e6a570301915b64ffffffffff60381b60389190911b1664ffffffffff60381b19929092166001600160601b031991909116171790565b9003900391613e3a565b613e7c610a4d565b805115610a8857613f1c6124b261084e92694368617261637465727360301b631d18955160e21b01602082015264ffffffffff604051915f805160206143538339815191526020840184613ed08483612744565b0394613ee4601f19968781018352826101d7565b5190201892613eff6040519182611c7a602082019586612744565b5190205f80516020614393833981519152185460381c16906129af565b6138e5565b613f29610a4d565b805115610a8857613f1c6124b261084e926f5a6f6e65436f6d706c6574696f6e7300631d18955160e21b01602082015264ffffffffff604051915f805160206143538339815191526020840184613ed08483612744565b613f88610a4d565b805115610a8857613f1c6124b261084e926f4368617261637465725a6f6e65436f6d631d18955160e21b01602082015264ffffffffff604051915f805160206143538339815191526020840184613ed08483612744565b613fe7610a4d565b805115610a8857613f1c6124b261084e9264537461747360581b631d18955160e21b01602082015264ffffffffff604051915f805160206143538339815191526020840184613ed08483612744565b81519060208093019190925b8082101561406b57508061405557505050565b5f199060031b1c90818354169119905116179055565b6001839482939451815501930191601f190190614042565b82516102319360200192909161425a565b61409c610bc8565b90815115610a88576020820152805160011015610a88576001600160a01b0390911660408201526124899061176e565b5f5b601081106140fd575b6040516001600160801b03199092166020830152601082526140f88261014e565b815290565b6001600160801b03198216600382901b1b6001600160f81b03191615614125576001016140ce565b6140d7565b9061084e9261414461415292608085526080850190611085565b908382036020850152612101565b905f604082015260608183039101526120c4565b9392916141b16141c4916141a360a0946f4368617261637465725a6f6e65436f6d631d18955160e21b01895260c060208a015260c0890190611085565b908782036040890152612101565b5f606087015285810360808701526120c4565b930152565b64537461747360581b631d18955160e21b01815260c0602082018190529094939260a0926141c4926141b192916141a391890190611085565b9190915f905b6020908183106142285784518155930192601f1990910190600101614208565b92939190508061405557505050565b9291926020908183106142285784518155930192601f1990910190600101614208565b909392919380614289575b509290926020908183106142285784518155930192601f1990910190600101614208565b60208110156142e2575b80156142655791939082602003908360031b5f198460031b1c19811c908751901c9080198354169116178155818311156142da57600101940191601f19910101925f614265565b505050509050565b90601f908260051c01911661429356fefe158a7adba34e256807c8a149028d3162918713c3838afc643ce9f96716ebfd86425bff6b57326c7859e89024fe4f238ca327a1ae4a230180dd2f0e88aaa7d98dbb3a9672eebfd3773e72dd9c102393436816d832c7ba9e1e1ac8fcadcac7a93b4102da22e32d82fc925482184f16c09fd4281692720b87d124aef6da48a0f13a4102da22e32d82fc925482184f16c09fd4281692720b87d124aef6da48a0f114e2fcc58e58e68ec7edc30c8d50dccc3ce2714a623ec81f46b6a63922d76569746255440000000000000000000000005a6f6e65436f6d706c6574696f6e73007462554400000000000000000000000043686172616374657273000000000000","linkReferences":{"src/libraries/StatCalculator.sol":{"StatCalculator":[{"start":983,"length":20},{"start":1587,"length":20},{"start":2579,"length":20},{"start":2890,"length":20},{"start":3435,"length":20}]}}},"methodIdentifiers":{"UD__getCurrentAvailableLevel(uint256)":"d453e623","UD__levelCharacter(bytes32,(int256,int256,uint8,int256,int256,int256,uint256,uint256,uint8,uint8,uint8,uint8,bool))":"feb35bfb","_msgSender()":"119df25f","_msgValue()":"45ec9354","_world()":"e1af802c","calculateLevelBonuses(bytes32)":"2b5e3a6c","supportsInterface(bytes4)":"01ffc9a7","validateLevelRequirements(bytes32,(int256,int256,uint8,int256,int256,int256,uint256,uint256,uint8,uint8,uint8,uint8,bool))":"2349384c"},"id":392}