{"abi":[{"type":"function","name":"_msgSender","inputs":[],"outputs":[{"name":"sender","type":"address","internalType":"address"}],"stateMutability":"view"},{"type":"function","name":"_msgValue","inputs":[],"outputs":[{"name":"value","type":"uint256","internalType":"uint256"}],"stateMutability":"pure"},{"type":"function","name":"_world","inputs":[],"outputs":[{"name":"","type":"address","internalType":"address"}],"stateMutability":"view"},{"type":"function","name":"cancelOrder","inputs":[{"name":"_orderHash","type":"bytes32","internalType":"bytes32"}],"outputs":[{"name":"","type":"bool","internalType":"bool"}],"stateMutability":"nonpayable"},{"type":"function","name":"createOrder","inputs":[{"name":"order","type":"tuple","internalType":"struct Order","components":[{"name":"offer","type":"tuple","internalType":"struct Offer","components":[{"name":"tokenType","type":"uint8","internalType":"enum TokenType"},{"name":"token","type":"address","internalType":"address"},{"name":"identifier","type":"uint256","internalType":"uint256"},{"name":"amount","type":"uint256","internalType":"uint256"}]},{"name":"consideration","type":"tuple","internalType":"struct Consideration","components":[{"name":"tokenType","type":"uint8","internalType":"enum TokenType"},{"name":"token","type":"address","internalType":"address"},{"name":"identifier","type":"uint256","internalType":"uint256"},{"name":"amount","type":"uint256","internalType":"uint256"},{"name":"recipient","type":"address","internalType":"address"}]},{"name":"signature","type":"bytes","internalType":"bytes"},{"name":"offerer","type":"address","internalType":"address"}]}],"outputs":[{"name":"_orderHash","type":"bytes32","internalType":"bytes32"}],"stateMutability":"nonpayable"},{"type":"function","name":"fulfillOrder","inputs":[{"name":"orderHash","type":"bytes32","internalType":"bytes32"}],"outputs":[{"name":"fulfilled","type":"bool","internalType":"bool"}],"stateMutability":"nonpayable"},{"type":"function","name":"getConsideration","inputs":[{"name":"orderHash","type":"bytes32","internalType":"bytes32"}],"outputs":[{"name":"consideration","type":"tuple","internalType":"struct ConsiderationsData","components":[{"name":"tokenType","type":"uint8","internalType":"enum TokenType"},{"name":"token","type":"address","internalType":"address"},{"name":"identifier","type":"uint256","internalType":"uint256"},{"name":"amount","type":"uint256","internalType":"uint256"},{"name":"recipient","type":"address","internalType":"address"}]}],"stateMutability":"view"},{"type":"function","name":"getCounter","inputs":[{"name":"offerer","type":"address","internalType":"address"}],"outputs":[{"name":"","type":"uint256","internalType":"uint256"}],"stateMutability":"view"},{"type":"function","name":"getOffer","inputs":[{"name":"orderHash","type":"bytes32","internalType":"bytes32"}],"outputs":[{"name":"offer","type":"tuple","internalType":"struct OffersData","components":[{"name":"tokenType","type":"uint8","internalType":"enum TokenType"},{"name":"token","type":"address","internalType":"address"},{"name":"identifier","type":"uint256","internalType":"uint256"},{"name":"amount","type":"uint256","internalType":"uint256"}]}],"stateMutability":"view"},{"type":"function","name":"getOrderHash","inputs":[{"name":"order","type":"tuple","internalType":"struct Order","components":[{"name":"offer","type":"tuple","internalType":"struct Offer","components":[{"name":"tokenType","type":"uint8","internalType":"enum TokenType"},{"name":"token","type":"address","internalType":"address"},{"name":"identifier","type":"uint256","internalType":"uint256"},{"name":"amount","type":"uint256","internalType":"uint256"}]},{"name":"consideration","type":"tuple","internalType":"struct Consideration","components":[{"name":"tokenType","type":"uint8","internalType":"enum TokenType"},{"name":"token","type":"address","internalType":"address"},{"name":"identifier","type":"uint256","internalType":"uint256"},{"name":"amount","type":"uint256","internalType":"uint256"},{"name":"recipient","type":"address","internalType":"address"}]},{"name":"signature","type":"bytes","internalType":"bytes"},{"name":"offerer","type":"address","internalType":"address"}]}],"outputs":[{"name":"orderHash","type":"bytes32","internalType":"bytes32"}],"stateMutability":"view"},{"type":"function","name":"getOrderStatus","inputs":[{"name":"orderHash","type":"bytes32","internalType":"bytes32"}],"outputs":[{"name":"orderStatus","type":"uint8","internalType":"enum OrderStatus"}],"stateMutability":"view"},{"type":"function","name":"incrementCounter","inputs":[{"name":"offerer","type":"address","internalType":"address"}],"outputs":[{"name":"","type":"uint256","internalType":"uint256"}],"stateMutability":"nonpayable"},{"type":"function","name":"marketplaceAddress","inputs":[],"outputs":[{"name":"","type":"address","internalType":"address"}],"stateMutability":"view"},{"type":"function","name":"supportsInterface","inputs":[{"name":"interfaceId","type":"bytes4","internalType":"bytes4"}],"outputs":[{"name":"","type":"bool","internalType":"bool"}],"stateMutability":"pure"},{"type":"event","name":"Store_SetRecord","inputs":[{"name":"tableId","type":"bytes32","indexed":true,"internalType":"ResourceId"},{"name":"keyTuple","type":"bytes32[]","indexed":false,"internalType":"bytes32[]"},{"name":"staticData","type":"bytes","indexed":false,"internalType":"bytes"},{"name":"encodedLengths","type":"bytes32","indexed":false,"internalType":"EncodedLengths"},{"name":"dynamicData","type":"bytes","indexed":false,"internalType":"bytes"}],"anonymous":false},{"type":"event","name":"Store_SpliceStaticData","inputs":[{"name":"tableId","type":"bytes32","indexed":true,"internalType":"ResourceId"},{"name":"keyTuple","type":"bytes32[]","indexed":false,"internalType":"bytes32[]"},{"name":"start","type":"uint48","indexed":false,"internalType":"uint48"},{"name":"data","type":"bytes","indexed":false,"internalType":"bytes"}],"anonymous":false},{"type":"error","name":"ReentrancyGuardReentrantCall","inputs":[]},{"type":"error","name":"Slice_OutOfBounds","inputs":[{"name":"data","type":"bytes","internalType":"bytes"},{"name":"start","type":"uint256","internalType":"uint256"},{"name":"end","type":"uint256","internalType":"uint256"}]}],"bytecode":{"object":"0x608060405234801561001057600080fd5b5060016000556135c3806100256000396000f3fe608060405234801561001057600080fd5b50600436106100ea5760003560e01c8063d597b8c81161008c578063e1af802c11610066578063e1af802c146101de578063e5910ae7146101e6578063f07ec373146101f9578063f8b480371461020c57600080fd5b8063d597b8c8146101a5578063daa17f49146101c5578063dd5c51a7146101cb57600080fd5b806345ec9354116100c857806345ec93541461014a57806346423aa71461015f5780637489ec231461017f57806378885da71461019257600080fd5b806301ffc9a7146100ef578063119df25f1461011757806326e5dc5d14610137575b600080fd5b6101026100fd366004612c4d565b61022c565b60405190151581526020015b60405180910390f35b61011f6102c5565b6040516001600160a01b03909116815260200161010e565b610102610145366004612c8f565b6102d4565b36601f1901355b60405190815260200161010e565b61017261016d366004612c8f565b610517565b60405161010e9190612cbe565b61010261018d366004612c8f565b610522565b6101516101a0366004612e6f565b6105f4565b6101b86101b3366004612c8f565b610a14565b60405161010e9190612fa0565b3061011f565b6101516101d9366004612e6f565b610a41565b61011f610a84565b6101516101f4366004612fae565b610a8e565b610151610207366004612fae565b610adb565b61021f61021a366004612c8f565b610af0565b60405161010e919061300f565b60007fffffffff0000000000000000000000000000000000000000000000000000000082167fb5dee1270000000000000000000000000000000000000000000000000000000014806102bf57507fffffffff0000000000000000000000000000000000000000000000000000000082167f01ffc9a700000000000000000000000000000000000000000000000000000000145b92915050565b60006102cf610b24565b905090565b60006102de610b56565b60006102e983610b99565b905060006102f684610c67565b9050600161030385610d32565b600281111561031457610314612ca8565b146103665760405162461bcd60e51b815260206004820152601360248201527f4f72646572206973206e6f74206163746976650000000000000000000000000060448201526064015b60405180910390fd5b806060015161037e8560006103796102c5565b610de4565b10156103cc5760405162461bcd60e51b815260206004820152601460248201527f496e73756666696369656e742062616c616e6365000000000000000000000000604482015260640161035d565b6103e484600083608001516103df6102c5565b610f5e565b6103fa8460016103f26102c5565b6103df611240565b61040f846104066102c5565b60006002611273565b6040805160a081019091526000908060018551600381111561043357610433612ca8565b14610445576104406102c5565b61044b565b83608001515b6001600160a01b0316815260200160018551600381111561046e5761046e612ca8565b1461047d578460400151610483565b83604001515b815260200160018551600381111561049d5761049d612ca8565b146104ac5783606001516104b2565b84606001515b81526020016001855160038111156104cc576104cc612ca8565b146104db5783608001516104e3565b6104e36102c5565b6001600160a01b031681526020014281525090506105018582611301565b600193505050506105126001600055565b919050565b60006102bf82610d32565b600061052c610b56565b600161053783610517565b600281111561054857610548612ca8565b146105955760405162461bcd60e51b815260206004820152601360248201527f4f72646572206973206e6f742061637469766500000000000000000000000000604482015260640161035d565b60006105a083610af0565b905080608001516001600160a01b03166105b86102c5565b6001600160a01b0316146105cb57600080fd5b6105d68360006113a3565b6105e983600183608001516103df611240565b506105126001600055565b60006105fe610b56565b6106066102c5565b6001600160a01b031682606001516001600160a01b0316146106905760405162461bcd60e51b815260206004820152602560248201527f596f752063616e6e6f74206f6666657220736f6d656f6e6520656c736527732060448201527f6974656d73000000000000000000000000000000000000000000000000000000606482015260840161035d565b6106986102c5565b6001600160a01b03168260200151608001516001600160a01b0316146107265760405162461bcd60e51b815260206004820152602c60248201527f596f752063616e6e6f7420707572636861736520616e206974656d20666f722060448201527f736f6d656f6e6520656c73650000000000000000000000000000000000000000606482015260840161035d565b60006040518060800160405280846000015160000151600381111561074d5761074d612ca8565b81526020018460000151602001516001600160a01b031681526020018460000151604001518152602001846000015160600151815250905060006040518060a0016040528085602001516000015160038111156107ac576107ac612ca8565b81526020018560200151602001516001600160a01b03168152602001856020015160400151815260200185602001516060015181526020018560200151608001516001600160a01b031681525090506001600381111561080e5761080e612ca8565b845151600381111561082257610822612ca8565b148061084157506003845151600381111561083f5761083f612ca8565b145b61088d5760405162461bcd60e51b815260206004820152601260248201527f546f6b656e206e6f742061636365707465640000000000000000000000000000604482015260640161035d565b600160208501515160038111156108a6576108a6612ca8565b14806108c85750600360208501515160038111156108c6576108c6612ca8565b145b6109145760405162461bcd60e51b815260206004820152601260248201527f546f6b656e206e6f742061636365707465640000000000000000000000000000604482015260640161035d565b602084015151600381111561092b5761092b612ca8565b845151600381111561093f5761093f612ca8565b0361098c5760405162461bcd60e51b815260206004820152601260248201527f43616e6e6f742063726f73732074726164650000000000000000000000000000604482015260640161035d565b600061099d85606001516000611491565b6109a8906001613033565b90506109be85602001516080015160008361155a565b6109c785610a41565b93506109d3848461163c565b6109dd84836116d1565b6109f58460016109eb611240565b8860600151610f5e565b610a0784866060015160006001611273565b5050506105126001600055565b6040805160808101825260008082526020820181905291810182905260608101919091526102bf82610b99565b6000610a508260600151610adb565b8251602080850151604051610a6794939201613046565b604051602081830303815290604052805190602001209050919050565b60006102cf61176b565b6000816001600160a01b0316610aa26102c5565b6001600160a01b031614610ab557600080fd5b6000610ac2836000611491565b610acd906001613033565b90506102bf8360008361155a565b600080610ae9836000611491565b9392505050565b6040805160a0810182526000808252602082018190529181018290526060810182905260808101919091526102bf82610c67565b7fffffffffffffffffffffffffffffffffffffffffffffffffffffffffffffffcc36013560601c80610b535750335b90565b600260005403610b92576040517f3ee5aeb500000000000000000000000000000000000000000000000000000000815260040160405180910390fd5b6002600055565b604080516080810182526000808252602082018190529181018290526060810191909152604080516001808252818301909252600091602080830190803683370190505090508281600081518110610bf357610bf3613068565b602090810291909101015260008080610c4c7f746255440000000000000000000000004f666665727300000000000000000000857e55040001142020000000000000000000000000000000000000000000000000611775565b925092509250610c5d838383611845565b9695505050505050565b6040805160a081018252600080825260208201819052918101829052606081018290526080810191909152604080516001808252818301909252600091602080830190803683370190505090508281600081518110610cc857610cc8613068565b602090810291909101015260008080610d217f74625544000000000000000000000000436f6e73696465726174696f6e730000857e69050001142020140000000000000000000000000000000000000000000000611775565b925092509250610c5d8383836118c1565b604080516001808252818301909252600091829190602080830190803683370190505090508281600081518110610d6b57610d6b613068565b60209081029190910101526000610dc47f746255440000000000000000000000004f7264657273000000000000000000008360027e3503001420010000000000000000000000000000000000000000000000000061194d565b905060f881901c6002811115610ddc57610ddc612ca8565b949350505050565b600080610df085610c67565b90506000610dfd86610b99565b9050600085610e0d578251610e10565b81515b9050600086610e23578360200151610e29565b82602001515b9050600087610e3c578460400151610e42565b83604001515b90506001836003811115610e5857610e58612ca8565b03610eed576040517f70a082310000000000000000000000000000000000000000000000000000000081526001600160a01b0388811660048301528316906370a08231906024015b602060405180830381865afa158015610ebd573d6000803e3d6000fd5b505050506040513d601f19601f82011682018060405250810190610ee1919061307e565b95505050505050610ae9565b6003836003811115610f0157610f01612ca8565b03610f52576040517efdd58e0000000000000000000000000000000000000000000000000000000081526001600160a01b0388811660048301526024820183905283169062fdd58e90604401610ea0565b50505050509392505050565b6000610f6985610c67565b90506000610f7686610b99565b9050600085610f89578260600151610f8f565b81606001515b9050600086610f9f578351610fa2565b82515b9050600087610fb5578460400151610fbb565b83604001515b90506001600160a01b0386163014600089610fda578660200151610fe0565b85602001515b90506001846003811115610ff657610ff6612ca8565b03611135578115611093576040517fa9059cbb0000000000000000000000000000000000000000000000000000000081526001600160a01b038a811660048301526024820187905282169063a9059cbb906044016020604051808303816000875af1158015611069573d6000803e3d6000fd5b505050506040513d601f19601f8201168201806040525081019061108d9190613097565b50611129565b6040517f23b872dd0000000000000000000000000000000000000000000000000000000081526001600160a01b0389811660048301528a81166024830152604482018790528216906323b872dd906064016020604051808303816000875af1158015611103573d6000803e3d6000fd5b505050506040513d601f19601f820116820180604052508101906111279190613097565b505b5050505050505061123a565b600384600381111561114957611149612ca8565b036111f2576040517ff242432a0000000000000000000000000000000000000000000000000000000081526001600160a01b0389811660048301528a81166024830152604482018590526064820187905260a06084830152600060a483015282169063f242432a9060c401600060405180830381600087803b1580156111ce57600080fd5b505af11580156111e2573d6000803e3d6000fd5b505050505050505050505061123a565b60405162461bcd60e51b815260206004820152601b60248201527f546f6b656e2074797065206973206e6f7420737570706f727465640000000000604482015260640161035d565b50505050565b60006102cf61126e7f5544000000000000000000000000000000000000000000000000000000000000611a0a565b611a57565b6000611280848484611af3565b6040805160018082528183019092529192506000916060918391906020808301908036833701905050905087816000815181106112bf576112bf613068565b60209081029190910101526112f77f746255440000000000000000000000004f72646572730000000000000000000082868686611b22565b5050505050505050565b600061132482600001518360200151846040015185606001518660800151611bd7565b60408051600180825281830190925291925060009160609183919060208083019080368337019050509050858160008151811061136357611363613068565b602090810291909101015261139b7f6f7455440000000000000000000000004d61726b6574706c61636553616c650082868686611b22565b505050505050565b6040805160018082528183019092526000916020808301908036833701905050905082816000815181106113d9576113d9613068565b602090810291909101015261148c7f746255440000000000000000000000004f726465727300000000000000000000826002858181111561141c5761141c612ca8565b604051602001611457919060f89190911b7fff0000000000000000000000000000000000000000000000000000000000000016815260010190565b60408051601f198184030181529190527e35030014200100000000000000000000000000000000000000000000000000611c32565b505050565b60408051600280825260608201835260009283929190602083019080368337019050509050836001600160a01b031660001b816000815181106114d6576114d6613068565b6020026020010181815250508260001b816001815181106114f9576114f9613068565b602090810291909101015260006115517f74625544000000000000000000000000436f756e74657273000000000000000083837e2001002000000000000000000000000000000000000000000000000000000061194d565b95945050505050565b604080516002808252606082018352600092602083019080368337019050509050836001600160a01b031660001b8160008151811061159b5761159b613068565b6020026020010181815250508260001b816001815181106115be576115be613068565b60200260200101818152505061123a7f74625544000000000000000000000000436f756e74657273000000000000000060001b8260008560405160200161160791815260200190565b60408051601f198184030181529190527e20010020000000000000000000000000000000000000000000000000000000611c32565b600061165a8260000151836020015184604001518560600151611ca8565b60408051600180825281830190925291925060009160609183919060208083019080368337019050509050858160008151811061169957611699613068565b602090810291909101015261139b7f746255440000000000000000000000004f66666572730000000000000000000082868686611b22565b60006116f482600001518360200151846040015185606001518660800151611cda565b60408051600180825281830190925291925060009160609183919060208083019080368337019050509050858160008151811061173357611733613068565b602090810291909101015261139b7f74625544000000000000000000000000436f6e73696465726174696f6e73000082868686611b22565b60006102cf611cf5565b6060600060606000611785611cf5565b9050306001600160a01b038216036117ae576117a2878787611d2f565b9350935093505061183c565b6040517f419b58fd0000000000000000000000000000000000000000000000000000000081526001600160a01b0382169063419b58fd906117f7908a908a908a906004016130f5565b600060405180830381865afa158015611814573d6000803e3d6000fd5b505050506040513d6000823e601f3d908101601f191682016040526117a29190810190613187565b93509350939050565b60408051608081018252600080825260208201819052918101829052606081019190915261187284611e37565b60608501819052604085018290526001600160a01b0383166020860152848460038111156118a2576118a2612ca8565b60038111156118b3576118b3612ca8565b815250505050509392505050565b6040805160a0810182526000808252602082018190529181018290526060810182905260808101919091526118f584611e82565b6001600160a01b0380821660808801526060870183905260408701849052841660208701528585600381111561192d5761192d612ca8565b600381111561193e5761193e612ca8565b81525050505050509392505050565b600080611958611cf5565b9050306001600160a01b0382160361197e5761197686868686611ed9565b915050610ddc565b6040517f8c364d590000000000000000000000000000000000000000000000000000000081526001600160a01b03821690638c364d59906119c99089908990899089906004016131f4565b602060405180830381865afa1580156119e6573d6000803e3d6000fd5b505050506040513d601f19601f82011682018060405250810190611976919061307e565b60006102bf7f7379000000000000000000000000000000000000000000000000000000000000837f4c6f6f744d616e61676572537973746500000000000000000000000000000000611f06565b604080516001808252818301909252600091829190602080830190803683370190505090508281600081518110611a9057611a90613068565b60209081029190910101526000611ae87f7462776f726c6400000000000000000053797374656d7300000000000000000083837e1502001401000000000000000000000000000000000000000000000000000061194d565b60601c949350505050565b6060838383604051602001611b0a93929190613223565b60405160208183030381529060405290509392505050565b6000611b2c611cf5565b9050306001600160a01b03821603611b5057611b4b8686868686611f8d565b61139b565b6040517f298314fb0000000000000000000000000000000000000000000000000000000081526001600160a01b0382169063298314fb90611b9d9089908990899089908990600401613291565b600060405180830381600087803b158015611bb757600080fd5b505af1158015611bcb573d6000803e3d6000fd5b50505050505050505050565b604051606086811b6bffffffffffffffffffffffff199081166020840152603483018790526054830186905284821b166074830152608882018390529060a8015b604051602081830303815290604052905095945050505050565b6000611c3c611cf5565b9050306001600160a01b03821603611c5b57611b4b8686868686611faa565b6040517f390baae00000000000000000000000000000000000000000000000000000000081526001600160a01b0382169063390baae090611b9d90899089908990899089906004016132e2565b606084848484604051602001611cc19493929190613340565b6040516020818303038152906040529050949350505050565b60608585858585604051602001611c18959493929190613379565b7f629a4c26e296b22a8e0856e9f6ecb2d1008d7e00081111962cd175fa7488e175546000906001600160a01b031680610512573391505090565b6060600060606000611d4085611fbf565b9050611d4d878783611fe2565b93506000611d5a8661201b565b90508015611e2c57611d6c8888612058565b935066ffffffffffffff841667ffffffffffffffff811115611d9057611d90612cd8565b6040519080825280601f01601f191660200182016040528015611dba576020820181803683370190505b5092506020830160005b828160ff161015611e29576000611ddc8b8b8461206b565b90506000611df9888460ff166028026038011c64ffffffffff1690565b9050611e0882600083876120eb565b611e128185613033565b935050508080611e21906133be565b915050611dc4565b50505b505093509350939050565b600080600080611e4b856000016020015190565b60f81c6003811115611e5f57611e5f612ca8565b60218601516035870151605590970151919760609190911c969550909350915050565b6000806000806000611e98866000016020015190565b60f81c6003811115611eac57611eac612ca8565b6021870151603588015160558901516075909901519299606092831c9991985090965091901c9350915050565b6000611551611ee886866121b7565b60ff858116601b0360080285901c16611f01858761220d565b612246565b6000611f1460706010613033565b7fffff00000000000000000000000000000000000000000000000000000000000085167dffffffffffffffffffffffffffff00000000000000000000000000000000601086901c16177fffffffffffffffffffffffffffffffff00000000000000000000000000000000841690911c1790509392505050565b611fa38585858585611f9e8b612297565b61231c565b5050505050565b611fa38585611fb9848761220d565b85612655565b60006008611fcf600260206133dd565b611fd991906133f0565b9190911c919050565b6060816000036120015750604080516020810190915260008152610ae9565b600061200d85856121b7565b9050611551816000856128f9565b6000600860018061202e600260206133dd565b61203891906133dd565b61204291906133dd565b61204c91906133f0565b8260ff911c1692915050565b6000610ae9612067848461291c565b5490565b60008383604051602001612080929190613407565b604051602081830303815290604052805190602001208260f81b7effffffffffffffffffffffffffffffffffffffffffffffffffffffffffffff19167f3b4102da22e32d82fc925482184f16c09fd4281692720b87d124aef6da48a0f1181860001c90509392505050565b821561217257602083106121155760208304840193506020838161211157612111613443565b0692505b82156121725760208390036000818410156121385750600019600884021c612142565b50600019600882021c5b8554600886021b81845116821982161784525081841161216357505061123a565b50600194909401939182900391015b5b602082106121945783548152600190930192601f1990910190602001612173565b811561123a576000600019600884021c8251865482191691161782525050505050565b600082826040516020016121cc929190613407565b60408051601f1981840301815291905280516020909101207f86425bff6b57326c7859e89024fe4f238ca327a1ae4a230180dd2f0e88aaa7d9189392505050565b600080805b8360ff1681101561223e5761223460ff601b83900360080287901c1683613033565b9150600101612212565b509392505050565b60006020821061226c5760208204840193506020828161226857612268613443565b0691505b508254600882021b60208290038084111561223e576001850154600882021c82179150509392505050565b60007f8b9d8c8b908d9affffffffffffffffffab9e9d939a8d0000000000000000000082016122e657507e60030220202000000000000000000000000000000000000000000000000000919050565b6102bf6123137f746273746f72650000000000000000005461626c65730000000000000000000084612972565b60206000612246565b7f6f74000000000000000000000000000000000000000000000000000000000000867fffff00000000000000000000000000000000000000000000000000000000000016036123a857857f8dbb3a9672eebfd3773e72dd9c102393436816d832c7ba9e1e1ac8fcadcac7a98686868660405161239b9493929190613459565b60405180910390a261139b565b60006123b38761298e565b905060005b815181101561248c5760008282815181106123d5576123d5613068565b602002602001015190506124016001826affffffffffffffffffffff1916612a1790919063ffffffff16565b15612483576040517f57066c9c000000000000000000000000000000000000000000000000000000008152606082901c906357066c9c90612450908c908c908c908c908c908c906004016134a3565b600060405180830381600087803b15801561246a57600080fd5b505af115801561247e573d6000803e3d6000fd5b505050505b506001016123b8565b50867f8dbb3a9672eebfd3773e72dd9c102393436816d832c7ba9e1e1ac8fcadcac7a9878787876040516124c39493929190613459565b60405180910390a260006124d788886121b7565b905060006020870190506124ef826000895184612a35565b60006124fa8561201b565b111561257e57600061250c8a8a61291c565b878155905060208601915060008060005b6125268861201b565b8160ff1610156125795761253b8d8d8361206b565b92506125568a8260ff166028026038011c64ffffffffff1690565b91506125658360008488612a35565b61256f8286613033565b945060010161251d565b505050505b60005b8351811015611bcb57600084828151811061259e5761259e613068565b602002602001015190506125ca6002826affffffffffffffffffffff1916612a1790919063ffffffff16565b1561264c576040517f5b28cdaf000000000000000000000000000000000000000000000000000000008152606082901c90635b28cdaf90612619908e908e908e908e908e908e906004016134a3565b600060405180830381600087803b15801561263357600080fd5b505af1158015612647573d6000803e3d6000fd5b505050505b50600101612581565b7f6f74000000000000000000000000000000000000000000000000000000000000847fffff00000000000000000000000000000000000000000000000000000000000016036126df57837f8c0b5119d4cec7b284c6b1b39252a03d1e2f2d7451a5895562524c113bb952be8484846040516126d2939291906134fc565b60405180910390a261123a565b60006126eb85856121b7565b905060006126f88661298e565b905060005b81518110156127cd57600082828151811061271a5761271a613068565b602002602001015190506127466004826affffffffffffffffffffff1916612a1790919063ffffffff16565b156127c4576040517f964f667d000000000000000000000000000000000000000000000000000000008152606082901c9063964f667d90612791908b908b908b908b9060040161352f565b600060405180830381600087803b1580156127ab57600080fd5b505af11580156127bf573d6000803e3d6000fd5b505050505b506001016126fd565b50857f8c0b5119d4cec7b284c6b1b39252a03d1e2f2d7451a5895562524c113bb952be868686604051612802939291906134fc565b60405180910390a261281d828565ffffffffffff1685612af4565b60005b81518110156128f057600082828151811061283d5761283d613068565b602002602001015190506128696008826affffffffffffffffffffff1916612a1790919063ffffffff16565b156128e7576040517fa8ba8721000000000000000000000000000000000000000000000000000000008152606082901c9063a8ba8721906128b4908b908b908b908b9060040161352f565b600060405180830381600087803b1580156128ce57600080fd5b505af11580156128e2573d6000803e3d6000fd5b505050505b50600101612820565b50505050505050565b60405160208101601f19603f848401011660405282825261223e858585846120eb565b60008282604051602001612931929190613407565b60408051601f1981840301815291905280516020909101207f14e2fcc58e58e68ec7edc30c8d50dccc3ce2714a623ec81f46b6a63922d76569189392505050565b60408051602081018490529081018290526000906060016121cc565b604080516001808252818301909252606091600091906020808301908036833701905050905082816000815181106129c8576129c8613068565b60209081029190910101526000612a007f746273746f726500000000000000000053746f7265486f6f6b730000000000008383612b0a565b9050610ddc612a128260008451612b44565b612bd2565b60008160ff1682612a288560581c90565b1660ff1614905092915050565b8215612aaf5760208310612a5f57602083048401935060208381612a5b57612a5b613443565b0692505b8215612aaf5760208390036000600019600885021c1990506008850281811c91508351811c9050811987541682821617875550818411612aa057505061123a565b50600194909401939182900391015b5b60208210612ad15780518455600190930192601f1990910190602001612ab0565b811561123a576000600019600884021c8554835182191691161785555050505050565b61148c83838351612b058560200190565b612a35565b6060610ddc612b1a85858561206b565b6000612b3f85612b2a8989612058565b9060ff166028026038011c64ffffffffff1690565b6128f9565b600081831180612b545750835182115b15612b91578383836040517f23230fa300000000000000000000000000000000000000000000000000000000815260040161035d93929190613568565b60208401612b9f8482613033565b90506000612bad85856133dd565b6fffffffffffffffffffffffffffffffff1660809290921b9190911795945050505050565b60606000610ae9836015600060606000612bec8560801c90565b90506fffffffffffffffffffffffffffffffff85166000858281612c1257612c12613443565b04905060405193506020840160208202810160405281855260005b82811015610f52578451871c825293870193602090910190600101612c2d565b600060208284031215612c5f57600080fd5b81357fffffffff0000000000000000000000000000000000000000000000000000000081168114610ae957600080fd5b600060208284031215612ca157600080fd5b5035919050565b634e487b7160e01b600052602160045260246000fd5b6020810160038310612cd257612cd2612ca8565b91905290565b634e487b7160e01b600052604160045260246000fd5b6040516080810167ffffffffffffffff81118282101715612d1157612d11612cd8565b60405290565b604051601f8201601f1916810167ffffffffffffffff81118282101715612d4057612d40612cd8565b604052919050565b80356004811061051257600080fd5b80356001600160a01b038116811461051257600080fd5b600060a08284031215612d8057600080fd5b60405160a0810181811067ffffffffffffffff82111715612da357612da3612cd8565b604052905080612db283612d48565b8152612dc060208401612d57565b60208201526040830135604082015260608301356060820152612de560808401612d57565b60808201525092915050565b600067ffffffffffffffff821115612e0b57612e0b612cd8565b50601f01601f191660200190565b600082601f830112612e2a57600080fd5b8135612e3d612e3882612df1565b612d17565b818152846020838601011115612e5257600080fd5b816020850160208301376000918101602001919091529392505050565b600060208284031215612e8157600080fd5b813567ffffffffffffffff80821115612e9957600080fd5b90830190818503610160811215612eaf57600080fd5b612eb7612cee565b6080821215612ec557600080fd5b612ecd612cee565b9150612ed884612d48565b8252612ee660208501612d57565b60208301526040840135604083015260608401356060830152818152612f0f8760808601612d6e565b6020820152610120840135915082821115612f2957600080fd5b612f3587838601612e19565b6040820152612f476101408501612d57565b60608201529695505050505050565b60048110612f6657612f66612ca8565b9052565b612f75828251612f56565b6001600160a01b03602082015116602083015260408101516040830152606081015160608301525050565b608081016102bf8284612f6a565b600060208284031215612fc057600080fd5b610ae982612d57565b612fd4828251612f56565b60208101516001600160a01b038082166020850152604083015160408501526060830151606085015280608084015116608085015250505050565b60a081016102bf8284612fc9565b634e487b7160e01b600052601160045260246000fd5b808201808211156102bf576102bf61301d565b838152610140810161305b6020830185612f6a565b610ddc60a0830184612fc9565b634e487b7160e01b600052603260045260246000fd5b60006020828403121561309057600080fd5b5051919050565b6000602082840312156130a957600080fd5b81518015158114610ae957600080fd5b60008151808452602080850194506020840160005b838110156130ea578151875295820195908201906001016130ce565b509495945050505050565b83815260606020820152600061310e60608301856130b9565b9050826040830152949350505050565b60005b83811015613139578181015183820152602001613121565b50506000910152565b600082601f83011261315357600080fd5b8151613161612e3882612df1565b81815284602083860101111561317657600080fd5b610ddc82602083016020870161311e565b60008060006060848603121561319c57600080fd5b835167ffffffffffffffff808211156131b457600080fd5b6131c087838801613142565b94506020860151935060408601519150808211156131dd57600080fd5b506131ea86828701613142565b9150509250925092565b84815260806020820152600061320d60808301866130b9565b60ff949094166040830152506060015292915050565b6bffffffffffffffffffffffff198460601b16815282601482015260006003831061325057613250612ca8565b5060f89190911b603482015260350192915050565b6000815180845261327d81602086016020860161311e565b601f01601f19169290920160200192915050565b85815260a0602082015260006132aa60a08301876130b9565b82810360408401526132bc8187613265565b905084606084015282810360808401526132d68185613265565b98975050505050505050565b85815260a0602082015260006132fb60a08301876130b9565b60ff8616604084015282810360608401526133168186613265565b9150508260808301529695505050505050565b6004811061333957613339612ca8565b60f81b9052565b61334a8186613329565b60609390931b6bffffffffffffffffffffffff1916600184015260158301919091526035820152605501919050565b6133838187613329565b6bffffffffffffffffffffffff19606095861b811660018301526015820194909452603581019290925290921b166055820152606901919050565b600060ff821660ff81036133d4576133d461301d565b60010192915050565b818103818111156102bf576102bf61301d565b80820281158282048414176102bf576102bf61301d565b8281526000602080830184516020860160005b828110156134365781518452928401929084019060010161341a565b5091979650505050505050565b634e487b7160e01b600052601260045260246000fd5b60808152600061346c60808301876130b9565b828103602084015261347e8187613265565b905084604084015282810360608401526134988185613265565b979650505050505050565b86815260c0602082015260006134bc60c08301886130b9565b82810360408401526134ce8188613265565b905085606084015282810360808401526134e88186613265565b9150508260a0830152979650505050505050565b60608152600061350f60608301866130b9565b65ffffffffffff851660208401528281036040840152610c5d8185613265565b84815260806020820152600061354860808301866130b9565b65ffffffffffff8516604084015282810360608401526134988185613265565b60608152600061357b6060830186613265565b6020830194909452506040015291905056fea26469706673582212206fd9ec56fb9507f16394c3b2bb337f16a13795c7a567c931e1e1bf830010dcf964736f6c63430008180033","linkReferences":{}},"methodIdentifiers":{"_msgSender()":"119df25f","_msgValue()":"45ec9354","_world()":"e1af802c","cancelOrder(bytes32)":"7489ec23","createOrder(((uint8,address,uint256,uint256),(uint8,address,uint256,uint256,address),bytes,address))":"78885da7","fulfillOrder(bytes32)":"26e5dc5d","getConsideration(bytes32)":"f8b48037","getCounter(address)":"f07ec373","getOffer(bytes32)":"d597b8c8","getOrderHash(((uint8,address,uint256,uint256),(uint8,address,uint256,uint256,address),bytes,address))":"dd5c51a7","getOrderStatus(bytes32)":"46423aa7","incrementCounter(address)":"e5910ae7","marketplaceAddress()":"daa17f49","supportsInterface(bytes4)":"01ffc9a7"},"id":221}