{"abi":[{"type":"function","name":"_msgSender","inputs":[],"outputs":[{"name":"sender","type":"address","internalType":"address"}],"stateMutability":"view"},{"type":"function","name":"_msgValue","inputs":[],"outputs":[{"name":"value","type":"uint256","internalType":"uint256"}],"stateMutability":"view"},{"type":"function","name":"_world","inputs":[],"outputs":[{"name":"","type":"address","internalType":"address"}],"stateMutability":"view"},{"type":"function","name":"calculateFee","inputs":[{"name":"goldAmount","type":"uint256","internalType":"uint256"}],"outputs":[{"name":"feeAmount","type":"uint256","internalType":"uint256"},{"name":"sellerAmount","type":"uint256","internalType":"uint256"}],"stateMutability":"view"},{"type":"function","name":"cancelOrder","inputs":[{"name":"_orderHash","type":"bytes32","internalType":"bytes32"}],"outputs":[{"name":"","type":"bool","internalType":"bool"}],"stateMutability":"nonpayable"},{"type":"function","name":"createOrder","inputs":[{"name":"order","type":"tuple","internalType":"struct Order","components":[{"name":"offer","type":"tuple","internalType":"struct Offer","components":[{"name":"tokenType","type":"uint8","internalType":"enum TokenType"},{"name":"token","type":"address","internalType":"address"},{"name":"identifier","type":"uint256","internalType":"uint256"},{"name":"amount","type":"uint256","internalType":"uint256"}]},{"name":"consideration","type":"tuple","internalType":"struct Consideration","components":[{"name":"tokenType","type":"uint8","internalType":"enum TokenType"},{"name":"token","type":"address","internalType":"address"},{"name":"identifier","type":"uint256","internalType":"uint256"},{"name":"amount","type":"uint256","internalType":"uint256"},{"name":"recipient","type":"address","internalType":"address"}]},{"name":"signature","type":"bytes","internalType":"bytes"},{"name":"offerer","type":"address","internalType":"address"}]}],"outputs":[{"name":"_orderHash","type":"bytes32","internalType":"bytes32"}],"stateMutability":"nonpayable"},{"type":"function","name":"fulfillOrder","inputs":[{"name":"orderHash","type":"bytes32","internalType":"bytes32"}],"outputs":[{"name":"fulfilled","type":"bool","internalType":"bool"}],"stateMutability":"nonpayable"},{"type":"function","name":"getConsideration","inputs":[{"name":"orderHash","type":"bytes32","internalType":"bytes32"}],"outputs":[{"name":"consideration","type":"tuple","internalType":"struct ConsiderationsData","components":[{"name":"tokenType","type":"uint8","internalType":"enum TokenType"},{"name":"token","type":"address","internalType":"address"},{"name":"identifier","type":"uint256","internalType":"uint256"},{"name":"amount","type":"uint256","internalType":"uint256"},{"name":"recipient","type":"address","internalType":"address"}]}],"stateMutability":"view"},{"type":"function","name":"getCounter","inputs":[{"name":"offerer","type":"address","internalType":"address"}],"outputs":[{"name":"","type":"uint256","internalType":"uint256"}],"stateMutability":"view"},{"type":"function","name":"getOffer","inputs":[{"name":"orderHash","type":"bytes32","internalType":"bytes32"}],"outputs":[{"name":"offer","type":"tuple","internalType":"struct OffersData","components":[{"name":"tokenType","type":"uint8","internalType":"enum TokenType"},{"name":"token","type":"address","internalType":"address"},{"name":"identifier","type":"uint256","internalType":"uint256"},{"name":"amount","type":"uint256","internalType":"uint256"}]}],"stateMutability":"view"},{"type":"function","name":"getOrderHash","inputs":[{"name":"order","type":"tuple","internalType":"struct Order","components":[{"name":"offer","type":"tuple","internalType":"struct Offer","components":[{"name":"tokenType","type":"uint8","internalType":"enum TokenType"},{"name":"token","type":"address","internalType":"address"},{"name":"identifier","type":"uint256","internalType":"uint256"},{"name":"amount","type":"uint256","internalType":"uint256"}]},{"name":"consideration","type":"tuple","internalType":"struct Consideration","components":[{"name":"tokenType","type":"uint8","internalType":"enum TokenType"},{"name":"token","type":"address","internalType":"address"},{"name":"identifier","type":"uint256","internalType":"uint256"},{"name":"amount","type":"uint256","internalType":"uint256"},{"name":"recipient","type":"address","internalType":"address"}]},{"name":"signature","type":"bytes","internalType":"bytes"},{"name":"offerer","type":"address","internalType":"address"}]}],"outputs":[{"name":"orderHash","type":"bytes32","internalType":"bytes32"}],"stateMutability":"view"},{"type":"function","name":"getOrderStatus","inputs":[{"name":"orderHash","type":"bytes32","internalType":"bytes32"}],"outputs":[{"name":"orderStatus","type":"uint8","internalType":"enum OrderStatus"}],"stateMutability":"view"},{"type":"function","name":"incrementCounter","inputs":[{"name":"offerer","type":"address","internalType":"address"}],"outputs":[{"name":"","type":"uint256","internalType":"uint256"}],"stateMutability":"nonpayable"},{"type":"function","name":"marketplaceAddress","inputs":[],"outputs":[{"name":"","type":"address","internalType":"address"}],"stateMutability":"view"},{"type":"function","name":"supportsInterface","inputs":[{"name":"interfaceId","type":"bytes4","internalType":"bytes4"}],"outputs":[{"name":"","type":"bool","internalType":"bool"}],"stateMutability":"pure"},{"type":"event","name":"Store_SetRecord","inputs":[{"name":"tableId","type":"bytes32","indexed":true,"internalType":"ResourceId"},{"name":"keyTuple","type":"bytes32[]","indexed":false,"internalType":"bytes32[]"},{"name":"staticData","type":"bytes","indexed":false,"internalType":"bytes"},{"name":"encodedLengths","type":"bytes32","indexed":false,"internalType":"EncodedLengths"},{"name":"dynamicData","type":"bytes","indexed":false,"internalType":"bytes"}],"anonymous":false},{"type":"event","name":"Store_SpliceStaticData","inputs":[{"name":"tableId","type":"bytes32","indexed":true,"internalType":"ResourceId"},{"name":"keyTuple","type":"bytes32[]","indexed":false,"internalType":"bytes32[]"},{"name":"start","type":"uint48","indexed":false,"internalType":"uint48"},{"name":"data","type":"bytes","indexed":false,"internalType":"bytes"}],"anonymous":false},{"type":"error","name":"GamePaused","inputs":[]},{"type":"error","name":"ReentrancyGuardReentrantCall","inputs":[]},{"type":"error","name":"Slice_OutOfBounds","inputs":[{"name":"data","type":"bytes","internalType":"bytes"},{"name":"start","type":"uint256","internalType":"uint256"},{"name":"end","type":"uint256","internalType":"uint256"}]}],"bytecode":{"object":"0x6080806040523461001a5760015f55614383908161001f8239f35b5f80fdfe60806040526004361015610011575f80fd5b5f3560e01c806301ffc9a714610104578063119df25f146100ff57806326e5dc5d146100fa57806345ec9354146100f557806346423aa7146100f05780637489ec23146100eb57806378885da7146100e657806399a5d747146100e1578063d597b8c8146100dc578063daa17f49146100d7578063dd5c51a7146100d2578063e1af802c146100cd578063e5910ae7146100c8578063f07ec373146100c35763f8b48037146100be575f80fd5b610d61565b610d03565b610cb0565b610c96565b610c7b565b610c61565b610c31565b610b9d565b610926565b6104d7565b6104ae565b61046c565b6101b2565b610174565b3461015a57602036600319011261015a5760043563ffffffff60e01b811680910361015a5760209063b5dee12760e01b8114908115610149575b506040519015158152f35b6301ffc9a760e01b1490505f61013e565b5f80fd5b5f91031261015a57565b6001600160a01b031690565b3461015a575f36600319011261015a57602061018e611072565b6040516001600160a01b039091168152f35b602090600319011261015a5760043590565b3461015a5761039c6101c3366101a0565b6101cb611089565b6101d36110aa565b6101dc81611165565b906103916101e9826111d5565b926101f383611250565b936101fd8561049f565b61020a6001809614610d8f565b610212611072565b61021c8186611296565b9161022e606082019384511115610dd1565b86845161023a81610be7565b61024381610be7565b0361045257606084015192610256612025565b9083906102666080850151610168565b915b6102786102736110d5565b611cf4565b936102a161029961028f61028a6110d5565b611d96565b60601c968a610e35565b612710900490565b916102ac838a610e48565b918d8b516102b981610be7565b6102c281610be7565b036103f757506102fd9592916102df916102da612025565b6113a8565b801515806103ee575b6103db575b505060408401519051918561142b565b61030782876114b2565b86845161031381610be7565b61031c81610be7565b036103d45761032e6080820151610168565b965b80855161033c81610be7565b61034581610be7565b036103c9576040820151945b5161035b81610be7565b61036481610be7565b036103b55750915b61037e61037761074c565b9687610e55565b6020860152604085015260608401610e55565b42608083015261153b565b6103a560015f55565b60405160018152602090f35b0390f35b6103c3915060800151610168565b9161036c565b604085015194610351565b8196610330565b6103e7916102da612025565b5f806102ed565b508115156102e8565b9350610433959161040891856113a8565b81151580610449575b610438575b505050610421612025565b9060408701519060608801519261142b565b6102fd565b610441926113a8565b5f8080610416565b50801515610411565b82519282906104646080840151610168565b908491610268565b3461015a575f36600319011261015a576020604051601f193601358152f35b634e487b7160e01b5f52602160045260245ffd5b600311156104a957565b61048b565b3461015a576104c46104bf366101a0565b611250565b60405160038210156104a9576020918152f35b3461015a576104e5366101a0565b6104ed611089565b6104f56110aa565b6104fe81611250565b60038110156104a95760016105139114610d8f565b61051b611048565b50610525816111d5565b906080610530611072565b920180516001600160a01b03939084169084160361015a576105506110fb565b80511561067157826020820152604051935f602086015260018552610574856106d8565b61057c61237f565b163081036105c05750906105966105aa9461059c93612eeb565b51610168565b6105a4612025565b91611666565b60015f55604051806103b181905f602083019252565b93843b1561015a576040516301c85d5760e51b81525f805160206142c3833981519152600482015260a06024820152945f928692839185918391610626919061060d9060a4850190611a40565b6002604485015283810360031901606485015290612258565b6535030014200160c81b608483015203925af190811561066c576105aa9361059c92610653575b50610596565b80610660610666926106c5565b8061015e565b5f61064d565b61128b565b611130565b634e487b7160e01b5f52604160045260245ffd5b60a081019081106001600160401b038211176106a557604052565b610676565b608081019081106001600160401b038211176106a557604052565b6001600160401b0381116106a557604052565b604081019081106001600160401b038211176106a557604052565b606081019081106001600160401b038211176106a557604052565b60c081019081106001600160401b038211176106a557604052565b601f909101601f19168101906001600160401b038211908210176106a557604052565b604051906107598261068a565b565b60405190610759826106aa565b3590600482101561015a57565b600435906001600160a01b038216820361015a57565b35906001600160a01b038216820361015a57565b91908260a091031261015a576040516107b78161068a565b60806107f58183956107c881610768565b85526107d66020820161078b565b602086015260408101356040860152606081013560608601520161078b565b910152565b6001600160401b0381116106a557601f01601f191660200190565b81601f8201121561015a5780359061082c826107fa565b9261083a6040519485610729565b8284526020838301011161015a57815f926020809301838601378301015290565b60031960208282011261015a57600435916001600160401b039182841161015a578382030192610160841261015a57608060405194610899866106aa565b1261015a576040516108aa816106aa565b6108b682600401610768565b81526108c46024830161078b565b6020820152604482013560408201526064820135606082015284526108ec826084830161079f565b602085015261012481013592831161015a5761091361014492600461091e95840101610815565b60408501520161078b565b606082015290565b3461015a576103b16109373661085b565b61093f611089565b6109476110aa565b610b42610b3c60608301610b2061095e8251610168565b61098261097161096c611072565b610168565b916001600160a01b03168214610e64565b6020860180516080015190916109aa916109a4906001600160a01b0316610168565b14610ebe565b610b1a610b136109ba8851610e14565b9780516109ca6020820151610168565b906109f460606040830151920151926109eb6109e461075b565b9d8e610f1f565b60208d01610e55565b60408b015260608a0152610ae2610a0b8551610e14565b94610a688151610a1e6020820151610168565b906040810151610a55610a3960806060850151940151610168565b93610a4c610a4561074c565b9c8d610f1f565b60208c01610e55565b60408a0152606089015260808801610e55565b6001610a748451610e14565b610a7d81610be7565b148015610b7c575b610a8e90610f2b565b6001610a9a8251610e14565b610aa381610be7565b148015610b5b575b610ab490610f2b565b610ac8610ac18451610e14565b9151610e14565b90610ad282610be7565b610adb81610be7565b1415610f6c565b610b0e610aff610afa610af58951610168565b611707565b610fad565b610b098851610168565b61173e565b610fdf565b968761182b565b85611912565b610596610b2b612025565b610b358351610168565b9086611666565b82611505565b610b4b60015f55565b6040519081529081906020820190565b50610ab46003610b6b8351610e14565b610b7481610be7565b149050610aab565b50610a8e6003610b8c8551610e14565b610b9581610be7565b149050610a85565b3461015a57602036600319011261015a57600435612710610bc8610bc26102736110d5565b83610e35565b04808203918211610be25760409182519182526020820152f35b610e21565b600411156104a957565b9060048210156104a95752565b60608091610c0d848251610bf1565b6020818101516001600160a01b031690850152604080820151908501520151910152565b3461015a576080610c52610c44366101a0565b610c4c610fbb565b50611165565b610c5f6040518092610bfe565bf35b3461015a575f36600319011261015a576020604051308152f35b3461015a576020610c8e610b0e3661085b565b604051908152f35b3461015a575f36600319011261015a57602061018e61237f565b3461015a57602036600319011261015a57610cc9610775565b610cd1611072565b6001600160a01b0382811691160361015a57610cec81611707565b60018101809111610be257610c8e8160209361173e565b3461015a57602036600319011261015a576020610c8e610af5610775565b608090610d2f838251610bf1565b8160208201519160018060a01b0380931660208601526040810151604086015260608101516060860152015116910152565b3461015a5760a0610d82610d74366101a0565b610d7c611048565b506111d5565b610c5f6040518092610d21565b15610d9657565b60405162461bcd60e51b81526020600482015260136024820152724f72646572206973206e6f742061637469766560681b6044820152606490fd5b15610dd857565b60405162461bcd60e51b8152602060048201526014602482015273496e73756666696369656e742062616c616e636560601b6044820152606490fd5b5160048110156104a95790565b634e487b7160e01b5f52601160045260245ffd5b81810292918115918404141715610be257565b91908203918211610be257565b6001600160a01b039091169052565b15610e6b57565b60405162461bcd60e51b815260206004820152602560248201527f596f752063616e6e6f74206f6666657220736f6d656f6e6520656c73652773206044820152646974656d7360d81b6064820152608490fd5b15610ec557565b60405162461bcd60e51b815260206004820152602c60248201527f596f752063616e6e6f7420707572636861736520616e206974656d20666f722060448201526b736f6d656f6e6520656c736560a01b6064820152608490fd5b60048210156104a95752565b15610f3257565b60405162461bcd60e51b8152602060048201526012602482015271151bdad95b881b9bdd081858d8d95c1d195960721b6044820152606490fd5b15610f7357565b60405162461bcd60e51b815260206004820152601260248201527143616e6e6f742063726f737320747261646560701b6044820152606490fd5b9060018201809211610be257565b60405190610fc8826106aa565b5f6060838281528260208201528260408201520152565b6060810151610ff6906001600160a01b0316611707565b906110236020825192015161101960405193602085019586526040850190610bfe565b60c0830190610d21565b610140815261016081016001600160401b038111828210176106a55760405251902090565b604051906110558261068a565b5f6080838281528260208201528260408201528260608201520152565b36603319013560601c90811561108457565b339150565b60025f54146110985760025f55565b604051633ee5aeb560e01b8152600490fd5b6110ba6110b56110d5565b611bc1565b60f81c6110c357565b60405163379a7ed960e01b8152600490fd5b604051602081016001600160401b038111828210176106a5576040525f8152905f368137565b60405190611108826106d8565b6001825260203681840137565b60405190611122826106f3565b600282526040366020840137565b634e487b7160e01b5f52603260045260245ffd5b8051156106715760200190565b80518210156106715760209160051b010190565b61116d610fbb565b506111766110fb565b8051156106715761118b916020820152611a73565b50506111d2611198610fbb565b916111a9602082015160f81c612489565b90602181015190605560358201519101516060860152604085015260601c602084015282610f1f565b90565b6111dd611048565b506111e66110fb565b805115610671576111fb916020820152611b35565b50506111d2611208611048565b91611219602082015160f81c612489565b906021810151906035810151906075605582015191015160601c60808701526060860152604085015260601c602084015282610f1f565b6112586110fb565b8051156106715761126d916020820152611c68565b60f81c60038110156104a95790565b9081602091031261015a575190565b6040513d5f823e3d90fd5b905f916112ab6112a5826111d5565b91611165565b508051926112b884610be7565b60209360406112c986850151610168565b930151906112d681610be7565b6001810361134e5750506040516370a0823160e01b81526001600160a01b03909316600484015250829082908180602481015b03916001600160a01b03165afa91821561066c575f9261132857505090565b6111d29250803d10611347575b61133f8183610729565b81019061127c565b503d611335565b806113626003929896989795939497610be7565b1461136f57505050909150565b604051627eeac760e11b81526001600160a01b039096166004870152602486019190915291939092509082908290818060448101611309565b9190916113b481612062565b8281106113ea57828103908111610be2576113ce9161208a565b6113d782612062565b908101809111610be2576107599161208a565b60405162461bcd60e51b8152602060048201526019602482015278496e73756666696369656e7420676f6c642062616c616e636560381b6044820152606490fd5b92919092611439828261212a565b83811061147157838103908111610be2578261145492612160565b61145e818461212a565b918201809211610be25761075992612160565b60405162461bcd60e51b8152602060048201526019602482015278496e73756666696369656e74206974656d2062616c616e636560381b6044820152606490fd5b60405160609290921b6001600160601b03191660208301525f6034830152600160f91b605483015260358252906114e8816106f3565b6114f06110fb565b8051156106715761075992602082015261227d565b60405160609290921b6001600160601b03191660208301525f6034830152600160f81b605483015260358252906114e8816106f3565b81519160208101519260408201519160806060820151910151926040519560018060601b0319809460601b1660208801526034870152605486015260601b1660748401526088830152608882526115918261070e565b6115996110fb565b906115a382611144565b526001600160a01b036115b461237f565b163081036115c757509061075991612863565b90813b1561015a575f9161162083611633936116486040519788968795869463298314fb60e01b86526f4d61726b6574706c61636553616c6500631bdd155160e21b01600487015260a0602487015260a4860190611a40565b6003199283868303016044870152612258565b9084606485015283820301608484015261221b565b03925af1801561066c576116595750565b80610660610759926106c5565b61167390610c4c816111d5565b90606082015191604081519161168883610be7565b01519061169481610be7565b600181036116a7575050610759926113a8565b806116b6600392949394610be7565b036116c4576107599361142b565b60405162461bcd60e51b815260206004820152601b60248201527a151bdad95b881d1e5c19481a5cc81b9bdd081cdd5c1c1bdc9d1959602a1b6044820152606490fd5b61170f611115565b90815115610671576001600160a01b0316602082015280516001101561067157805f60406111d2930152611e38565b90611747611115565b805190926001600160a01b0391156106715781166020840152825160011015610671575f604084015260405191602083015260208252611786826106d8565b61178e61237f565b16913083036117a157610759925061309c565b90823b1561015a576040516301c85d5760e51b815267436f756e7465727360401b631d18955160e21b01600482015260a06024820152925f92849283918591839161180d91906117f59060a4850190611a40565b90846044850152600319848303016064850152612258565b630100080160dd1b608483015203925af1801561066c576116595750565b81519160048310156104a957602081015190606060408201519101519161185960405195602087019061236f565b60601b6001600160601b031916602185015260358401526055808401919091528252611884826106aa565b61188c6110fb565b9061189682611144565b526001600160a01b036118a761237f565b163081036118ba575090610759916128d5565b90813b1561015a5760405163298314fb60e01b8152654f666665727360501b631d18955160e21b01600482015260a06024820152925f92849290918391859183916116489190611633906116209060a4860190611a40565b81519060048210156104a95782602061075994015190604081015190608060608201519101519161194a60405196602088019061236f565b60018060601b0319809460601b1660218701526035860152605585015260601b1660758301526069825261197d8261068a565b6119856110fb565b9061198f82611144565b526122f3565b5f5b8381106119a65750505f910152565b8181015183820152602001611997565b81601f8201121561015a5780516119cc816107fa565b926119da6040519485610729565b8184526020828401011161015a576111d29160208085019101611995565b909160608284031261015a5781516001600160401b03929083811161015a5784611a239183016119b6565b93602082015193604083015190811161015a576111d292016119b6565b9081518082526020808093019301915f5b828110611a5f575050505090565b835185529381019392810192600101611a51565b6001600160a01b03611a8361237f565b16308103611a9c5750611a95906123b4565b9192909190565b60405163419b58fd60e01b8152654f666665727360501b631d18955160e21b0160048201526060602482015292915f91849182908190611ae0906064830190611a40565b6602a8200008a10160c51b604483015203915afa90811561066c575f80935f93611b0b575b50929190565b91935050611b2b91503d805f833e611b238183610729565b8101906119f8565b929092915f611b05565b6001600160a01b03611b4561237f565b16308103611b575750611a959061242d565b60405163419b58fd60e01b81525f8051602061426383398151915260048201526060602482015292915f91849182908190611b96906064830190611a40565b671a4140004508080560ba1b604483015203915afa90811561066c575f80935f93611b0b5750929190565b6001600160a01b03611bd161237f565b16308103611be357506111d290612498565b604051638c364d5960e01b81526514185d5cd95960521b631d18955160e21b0160048201526080602482015291602091839182908190611c27906084830190611a40565b5f6044830152630101000160d81b606483015203915afa90811561066c575f91611c4f575090565b6111d2915060203d6020116113475761133f8183610729565b6001600160a01b03611c7861237f565b16308103611c8a57506111d290612510565b604051638c364d5960e01b81525f805160206142c383398151915260048201526080602482015291602091839182908190611cc9906084830190611a40565b600260448301526535030014200160c81b606483015203915afa90811561066c575f91611c4f575090565b6001600160a01b03611d0461237f565b16308103611d1657506111d2906125c4565b604051638c364d5960e01b81526f556c74696d617465446f6d696e696f6e631d18955160e21b0160048201526080602482015291602091839182908190611d61906084830190611a40565b600a60448301526f45434000450505050505050805080805607a1b606483015203915afa90811561066c575f91611c4f575090565b6001600160a01b03611da661237f565b16308103611db857506111d290612649565b604051638c364d5960e01b81526f556c74696d617465446f6d696e696f6e631d18955160e21b0160048201526080602482015291602091839182908190611e03906084830190611a40565b600960448301526f45434000450505050505050805080805607a1b606483015203915afa90811561066c575f91611c4f575090565b6001600160a01b03611e4861237f565b16308103611e5a57506111d2906126ce565b604051638c364d5960e01b815267436f756e7465727360401b631d18955160e21b0160048201526080602482015291602091839182908190611ea0906084830190611a40565b5f6044830152630100080160dd1b606483015203915afa90811561066c575f91611c4f575090565b6001600160a01b03611ed861237f565b16308103611eea57506111d290612732565b604051638c364d5960e01b81526653797374656d7360481b661d189ddbdc9b1960ca1b0160048201526080602482015291602091839182908190611f32906084830190611a40565b5f604483015264150200140160d01b606483015203915afa90811561066c575f91611c4f575090565b6001600160a01b03611f6b61237f565b16308103611f7d57506111d290612798565b604051638c364d5960e01b81525f8051602061430383398151915260048201526080602482015291602091839182908190611ea0906084830190611a40565b6001600160a01b03611fcc61237f565b16308103611fde57506111d2906127fe565b604051638c364d5960e01b8152654f776e65727360501b6674624974656d7360c81b0160048201526080602482015291602091839182908190611ea0906084830190611a40565b61202d6110fb565b805115610671576f4c6f6f744d616e616765725379737465631cde555160e21b01602082015261205c90611ec8565b60601c90565b61206a6110fb565b805115610671576001600160a01b0390911660208201526111d290611f5b565b906120936110fb565b805190926001600160a01b0391156106715781166020840152604051916020830152602082526120c2826106d8565b6120ca61237f565b16913083036120dd5761075992506138b0565b90823b1561015a576040516301c85d5760e51b81525f80516020614303833981519152600482015260a06024820152925f92849283918591839161180d91906117f59060a4850190611a40565b612132611115565b90815115610671576001600160a01b03166020820152805160011015610671576111d2916040820152611fbc565b91909161216b611115565b805190936001600160a01b03929091156106715782166020850152835160011015610671576040840152604051916020830152602082526121ab826106d8565b6121b361237f565b16913083036121c6576107599250613a1f565b90823b1561015a576040516301c85d5760e51b8152654f776e65727360501b6674624974656d7360c81b01600482015260a06024820152925f92849283918591839161180d91906117f59060a4850190611a40565b90606051918281525f5b8381106122445750825f602080949584010152601f8019910116010190565b806020916080015182828501015201612225565b9060209161227181518092818552858086019101611995565b601f01601f1916010190565b6001600160a01b0361228d61237f565b163081036122a057509061075991612b03565b90813b1561015a5760405163298314fb60e01b81525f805160206142c3833981519152600482015260a06024820152925f92849290918391859183916116489190611633906116209060a4860190611a40565b6001600160a01b0361230361237f565b1630810361231657509061075991612cf7565b90813b1561015a575f9161162083611633936116486040519788968795869463298314fb60e01b86526f436f6e73696465726174696f6e730000631d18955160e21b01600487015260a0602487015260a4860190611a40565b60048110156104a95760f81b9052565b7f629a4c26e296b22a8e0856e9f6ecb2d1008d7e00081111962cd175fa7488e175546001600160a01b0316806111d257503390565b5f906123c16060916134ed565b60405190602090601f1990816094850116604052605584526020840192605591925b81831015612415575050806123f9575b50505092565b5f199060031b1c908183511691199054161790525f80806123f3565b816001858394959796548752019401940191906123e3565b5f9061243a606091613502565b60405190602090601f19908160a8850116604052606984526020840192606991925b81831015612471575050806123f95750505092565b8160018583949597965487520194019401919061245c565b60ff1660048110156104a95790565b60405160208160208101936514185d5cd95960521b631d18955160e21b0185526040820160208251919201935f5b8281106124f9575050506124e3925003601f198101835282610729565b5190205f805160206142a3833981519152185490565b8551845294810194869450928101926001016124c6565b60405161253381612525602082019485613259565b03601f198101835282610729565b5190205f805160206142a3833981519152185f905f5b6002811061259c575081816020821015612586575b505080548260031b1b91602003908160011161257957505090565b600101549060031b1c1790565b90809350601f925060051c019116905f8061255e565b9160ff6535030014200160c81b84601b0360031b1c168101809111610be25791600101612549565b6125cd9061346f565b5f905f5b600a8110612617575081816020821015612601575b505080548260031b1b91602003908160201161257957505090565b90809350601f925060051c019116905f806125e6565b9160ff6f45434000450505050505050805080805607a1b84601b0360031b1c168101809111610be257916001016125d1565b6126529061346f565b5f905f5b6009811061269c575081816020821015612686575b505080548260031b1b91602003908160141161257957505090565b90809350601f925060051c019116905f8061266b565b9160ff6f45434000450505050505050805080805607a1b84601b0360031b1c168101809111610be25791600101612656565b604051602081602081019367436f756e7465727360401b631d18955160e21b0185526040820160208251919201935f5b82811061271b575050506124e3925003601f198101835282610729565b8551845294810194869450928101926001016126fe565b60405160208160208101936653797374656d7360481b661d189ddbdc9b1960ca1b0185526040820160208251919201935f5b828110612781575050506124e3925003601f198101835282610729565b855184529481019486945092810192600101612764565b60405160208160208101936742616c616e63657360401b651d1891dbdb1960d21b0185526040820160208251919201935f5b8281106127e7575050506124e3925003601f198101835282610729565b8551845294810194869450928101926001016127ca565b6040516020816020810193654f776e65727360501b6674624974656d7360c81b0185526040820160208251919201935f5b82811061284c575050506124e3925003601f198101835282610729565b85518452948101948694509281019260010161282f565b60408051655461626c657360501b66746273746f726560c81b0160208201526f4d61726b6574706c61636553616c6500631bdd155160e21b0181830181905291815290925f805160206142e38339815191529290916128c1906106f3565b6128d06040519283928361365b565b0390a2565b60408051655461626c657360501b66746273746f726560c81b0160208201908152654f666665727360501b631d18955160e21b018284018190528383529295929491612920816106f3565b5190205f805160206142a383398151915218549161293c613c97565b905f5b82518110156129e5576129736129666129588386611151565b516001600160581b03191690565b6001600160581b03191690565b6001808260581c161461298a575b5060010161293f565b60601c90813b1561015a5788516315c19b2760e21b8152915f9083908183816129b88c8c8f60048501613697565b03925af191821561066c576001926129d2575b5090612981565b806106606129df926106c5565b5f6129cb565b50945f805160206142e3833981519152875180612a0386898361365b565b0390a2612a1e612a12856134ed565b83516020850191614106565b60ff808460e01c1680612ac4575b50505f5b8151811015612abb57612a496129666129588385611151565b6002808260581c1614612a60575b50600101612a30565b60601c90813b1561015a578751635b28cdaf60e01b8152915f908390818381612a8e8b8b8e60048501613697565b03925af191821561066c57600192612aa8575b5090612a57565b80610660612ab5926106c5565b5f612aa1565b50505050509050565b5f612ace87613bf6565b555f60805b8284831610612ae3575050612a2c565b600181612afa8693612af5868d61335a565b6140bb565b92011690612ad3565b60408051655461626c657360501b66746273746f726560c81b01602082019081525f805160206142c38339815191528284018190528383529295929491612b49816106f3565b5190205f805160206142a3833981519152185491612b65613d9b565b905f5b8251811015612bf357612b816129666129588386611151565b6001808260581c1614612b98575b50600101612b68565b60601c90813b1561015a5788516315c19b2760e21b8152915f908390818381612bc68c8c8f600485016136f7565b03925af191821561066c57600192612be0575b5090612b8f565b80610660612bed926106c5565b5f612bd9565b50945f805160206142e3833981519152875180612c1186898361365b565b0390a2612c20612a1285613517565b60ff808460e01c1680612cbd575b50505f5b8151811015612abb57612c4b6129666129588385611151565b6002808260581c1614612c62575b50600101612c32565b60601c90813b1561015a578751635b28cdaf60e01b8152915f908390818381612c908b8b8e600485016136f7565b03925af191821561066c57600192612caa575b5090612c59565b80610660612cb7926106c5565b5f612ca3565b5f612cc787613c6d565b555f60805b8284831610612cdc575050612c2e565b600181612cee8693612af5868d613397565b92011690612ccc565b60408051655461626c657360501b66746273746f726560c81b01602082019081525f805160206142638339815191528284018190528383529295929491612d3d816106f3565b5190205f805160206142a3833981519152185491612d59613e38565b905f5b8251811015612de757612d756129666129588386611151565b6001808260581c1614612d8c575b50600101612d5c565b60601c90813b1561015a5788516315c19b2760e21b8152915f908390818381612dba8c8c8f6004850161372c565b03925af191821561066c57600192612dd4575b5090612d83565b80610660612de1926106c5565b5f612dcd565b50945f805160206142e3833981519152875180612e0586898361365b565b0390a2612e14612a1285613502565b60ff808460e01c1680612eb1575b50505f5b8151811015612abb57612e3f6129666129588385611151565b6002808260581c1614612e56575b50600101612e26565b60601c90813b1561015a578751635b28cdaf60e01b8152915f908390818381612e848b8b8e6004850161372c565b03925af191821561066c57600192612e9e575b5090612e4d565b80610660612eab926106c5565b5f612e97565b5f612ebb87613c82565b555f60805b8284831610612ed0575050612e22565b600181612ee28693612af5868d613403565b92011690612ec0565b9190915f805b600282106130735765ffffffffffff915016612f0c82613517565b612f14613d9b565b905f5b8251811015612fa157612f306129666129588386611151565b9060049182808260581c1614612f4c575b506001915001612f17565b60601c803b1561015a57855f9188838c96612f7b6040519889968795869463964f667d60e01b865285016137c5565b03925af191821561066c5760019215612f415780610660612f9b926106c5565b5f612f41565b50604080519096939291612fe691859185915f805160206142c3833981519152905f805160206142838339815191529080612fde87878e84613794565b0390a26141ff565b5f5b8151811015612abb576130016129666129588385611151565b6008808260581c1614613018575b50600101612fe8565b60601c90813b1561015a57875163a8ba872160e01b8152915f9083908183816130468b8b8e600485016137c5565b03925af191821561066c57600192613060575b509061300f565b8061066061306d926106c5565b5f613059565b60ff6535030014200160c81b83601b0360031b1c168101809111610be257600190910190612ef1565b91906130a78361352c565b916130b0613ed5565b905f5b825181101561313c576130cc6129666129588386611151565b9060049182808260581c16146130e8575b5060019150016130b3565b60601c803b1561015a57855f918983613116966040519788958694859363964f667d60e01b8552840161380c565b03925af191821561066c57600192156130dd5780610660613136926106c5565b5f6130dd565b506040805191949093929161318691849167436f756e7465727360401b631d18955160e21b01905f80516020614283833981519152908061317e868d83613769565b0390a26141b9565b5f5b8151811015613212576131a16129666129588385611151565b6008808260581c16146131b8575b50600101613188565b60601c90813b1561015a57845163a8ba872160e01b8152915f9083908183816131e58a8e6004840161380c565b03925af191821561066c576001926131ff575b50906131af565b8061066061320c926106c5565b5f6131f8565b505050509050565b5f80516020614363833981519152815281516020918201928201915f5b828110613245575050505090565b835185529381019392810192600101613237565b5f805160206142c3833981519152815281516020918201928201915f5b828110613284575050505090565b835185529381019392810192600101613276565b654f666665727360501b631d18955160e21b01815281516020918201928201915f5b8281106132c8575050505090565b8351855293810193928101926001016132ba565b5f80516020614263833981519152815281516020918201928201915f5b828110613307575050505090565b8351855293810193928101926001016132f9565b5f805160206142c3833981519152815281516020918201928201915f5b828110613346575050505090565b835185529381019392810192600101613338565b905f805160206143238339815191529160405161337f81612525602082019485613298565b51902060f89190911b6001600160f81b031916181890565b604080515f805160206142c383398151915260208083019182528451938301969594919391810191905f5b8281106133ef575050505061337f815f80516020614323833981519152959603601f198101835282610729565b8351895297810197928101926001016133c2565b604080515f8051602061426383398151915260208083019182528451938301969594919391810191905f5b82811061345b575050505061337f815f80516020614323833981519152959603601f198101835282610729565b83518952978101979281019260010161342e565b60405160208160208101936f556c74696d617465446f6d696e696f6e631d18955160e21b0185526040820160208251919201935f5b8281106134d6575050506134c1925003601f198101835282610729565b5190205f805160206142a38339815191521890565b8551845294810194869450928101926001016134a4565b6040516134c181612525602082019485613298565b6040516134c1816125256020820194856132dc565b6040516134c18161252560208201948561331b565b604051602081602081019367436f756e7465727360401b631d18955160e21b0185526040820160208251919201935f5b828110613579575050506134c1925003601f198101835282610729565b85518452948101948694509281019260010161355c565b60405160208160208101936742616c616e63657360401b651d1891dbdb1960d21b0185526040820160208251919201935f5b8281106135df575050506134c1925003601f198101835282610729565b8551845294810194869450928101926001016135c2565b6040516020816020810193654f776e65727360501b6674624974656d7360c81b0185526040820160208251919201935f5b828110613644575050506134c1925003601f198101835282610729565b855184529481019486945092810192600101613627565b906111d29261367561368392608085526080850190611a40565b908382036020850152612258565b905f6040820152606081830391015261221b565b654f666665727360501b631d18955160e21b01815260c0602082018190529094939260a0926136f2926136df92916136d191890190611a40565b908782036040890152612258565b5f6060870152858103608087015261221b565b930152565b5f805160206142c3833981519152815260c0602082018190529094939260a0926136f2926136df92916136d191890190611a40565b9392916136df6136f2916136d160a0946f436f6e73696465726174696f6e730000631d18955160e21b01895260c060208a015260c0890190611a40565b90916137806111d293606084526060840190611a40565b915f60208201526040818403910152612258565b65ffffffffffff6137b16111d29593606084526060840190611a40565b931660208201526040818403910152612258565b5f805160206142c383398151915281526080602082018190526111d2949265ffffffffffff916137f89190840190611a40565b931660408201526060818403910152612258565b67436f756e7465727360401b631d18955160e21b0181526080602082018190526111d293919261383e91840190611a40565b915f60408201526060818403910152612258565b5f8051602061430383398151915281526080602082018190526111d293919261383e91840190611a40565b654f776e65727360501b6674624974656d7360c81b0181526080602082018190526111d293919261383e91840190611a40565b91906138bb83613590565b916138c4613f79565b905f5b8251811015613950576138e06129666129588386611151565b9060049182808260581c16146138fc575b5060019150016138c7565b60601c803b1561015a57855f91898361392a966040519788958694859363964f667d60e01b85528401613852565b03925af191821561066c57600192156138f1578061066061394a926106c5565b5f6138f1565b50604080519194909392916139939184915f80516020614303833981519152905f80516020614283833981519152908061398b868d83613769565b0390a26141c8565b5f5b8151811015613212576139ae6129666129588385611151565b6008808260581c16146139c5575b50600101613995565b60601c90813b1561015a57845163a8ba872160e01b8152915f9083908183816139f28a8e60048401613852565b03925af191821561066c57600192613a0c575b50906139bc565b80610660613a19926106c5565b5f613a05565b9190613a2a836135f6565b91613a33614016565b905f5b8251811015613abf57613a4f6129666129588386611151565b9060049182808260581c1614613a6b575b506001915001613a36565b60601c803b1561015a57855f918983613a99966040519788958694859363964f667d60e01b8552840161387d565b03925af191821561066c5760019215613a605780610660613ab9926106c5565b5f613a60565b5060408051919490939291613b02918491654f776e65727360501b6674624974656d7360c81b01905f80516020614283833981519152908061398b868d83613769565b5f5b815181101561321257613b1d6129666129588385611151565b6008808260581c1614613b34575b50600101613b04565b60601c90813b1561015a57845163a8ba872160e01b8152915f908390818381613b618a8e6004840161387d565b03925af191821561066c57600192613b7b575b5090613b2b565b80610660613b88926106c5565b5f613b74565b60408051601f19603f85830101811690925283815292602080850193925b81831015613bde57505080613bc2575b50505090565b5f199060031b1c908183511691199054161790525f8080613bbc565b81600185839495979654875201940194019190613bac565b6040516020816020810193654f666665727360501b631d18955160e21b0185526040820160208251919201935f5b828110613c5657505050613c41925003601f198101835282610729565b5190205f805160206143438339815191521890565b855184529481019486945092810192600101613c24565b604051613c418161252560208201948561331b565b604051613c41816125256020820194856132dc565b613c9f6110fb565b9081511561067157654f666665727360501b631d18955160e21b016020838101918252604080515f8051602061436383398151915281840190815286519282019693949193929091905f5b818110613d875750505082915f80516020614323833981519152613d6b92613d71956111d298990394613d25601f1996878101835282610729565b5190201892613d4b6040519182613d3f898201958661321a565b03908101835282610729565b5190205f80516020614343833981519152185460381c64ffffffffff1690565b90613b8e565b80516001600160801b0316910160801b17614210565b825189529786019791860191600101613cea565b613da36110fb565b90815115610671575f805160206142c38339815191526020838101918252604080515f8051602061436383398151915281840190815286519282019693949193929091905f5b818110613e245750505082915f80516020614323833981519152613d6b92613d71956111d298990394613d25601f1996878101835282610729565b825189529786019791860191600101613de9565b613e406110fb565b90815115610671575f805160206142638339815191526020838101918252604080515f8051602061436383398151915281840190815286519282019693949193929091905f5b818110613ec15750505082915f80516020614323833981519152613d6b92613d71956111d298990394613d25601f1996878101835282610729565b825189529786019791860191600101613e86565b613edd6110fb565b908151156106715767436f756e7465727360401b631d18955160e21b016020838101918252604080515f8051602061436383398151915281840190815286519282019693949193929091905f5b818110613f655750505082915f80516020614323833981519152613d6b92613d71956111d298990394613d25601f1996878101835282610729565b825189529786019791860191600101613f2a565b613f816110fb565b90815115610671575f805160206143038339815191526020838101918252604080515f8051602061436383398151915281840190815286519282019693949193929091905f5b8181106140025750505082915f80516020614323833981519152613d6b92613d71956111d298990394613d25601f1996878101835282610729565b825189529786019791860191600101613fc7565b61401e6110fb565b9081511561067157654f776e65727360501b6674624974656d7360c81b016020838101918252604080515f8051602061436383398151915281840190815286519282019693949193929091905f5b8181106140a75750505082915f80516020614323833981519152613d6b92613d71956111d298990394613d25601f1996878101835282610729565b82518952978601979186019160010161406c565b9190915f905b6020908183106140e15784518155930192601f19909101906001016140c1565b9293919050806140f057505050565b5f199060031b1c90818354169119905116179055565b9291926020908183106140e15784518155930192601f19909101906001016140c1565b909392919380614158575b509290926020908183106140e15784518155930192601f19909101906001016140c1565b60208110156141a9575b80156141345791939082602003908360031b5f198460031b1c19811c908751901c90801983541691161781558183111561321257600101940191601f19910101925f614134565b90601f908260051c019116614162565b81516107599260200191614106565b81519060208093019190925b808210156141e75750806140f057505050565b6001839482939451815501930191601f1901906141d4565b825161075993602001929091614129565b8060801c906015809160018060801b031604604051926020906020850160208460051b8701016040528386525f5b84811061424e5750505050505090565b82518252918501919083019060010161423e56fe74625544000000000000000000000000436f6e73696465726174696f6e7300008c0b5119d4cec7b284c6b1b39252a03d1e2f2d7451a5895562524c113bb952be86425bff6b57326c7859e89024fe4f238ca327a1ae4a230180dd2f0e88aaa7d9746255440000000000000000000000004f7264657273000000000000000000008dbb3a9672eebfd3773e72dd9c102393436816d832c7ba9e1e1ac8fcadcac7a97462476f6c640000000000000000000042616c616e63657300000000000000003b4102da22e32d82fc925482184f16c09fd4281692720b87d124aef6da48a0f114e2fcc58e58e68ec7edc30c8d50dccc3ce2714a623ec81f46b6a63922d76569746273746f726500000000000000000053746f7265486f6f6b73000000000000","linkReferences":{}},"methodIdentifiers":{"_msgSender()":"119df25f","_msgValue()":"45ec9354","_world()":"e1af802c","calculateFee(uint256)":"99a5d747","cancelOrder(bytes32)":"7489ec23","createOrder(((uint8,address,uint256,uint256),(uint8,address,uint256,uint256,address),bytes,address))":"78885da7","fulfillOrder(bytes32)":"26e5dc5d","getConsideration(bytes32)":"f8b48037","getCounter(address)":"f07ec373","getOffer(bytes32)":"d597b8c8","getOrderHash(((uint8,address,uint256,uint256),(uint8,address,uint256,uint256,address),bytes,address))":"dd5c51a7","getOrderStatus(bytes32)":"46423aa7","incrementCounter(address)":"e5910ae7","marketplaceAddress()":"daa17f49","supportsInterface(bytes4)":"01ffc9a7"},"id":363}