{"abi":[{"type":"function","name":"_msgSender","inputs":[],"outputs":[{"name":"sender","type":"address","internalType":"address"}],"stateMutability":"view"},{"type":"function","name":"_msgValue","inputs":[],"outputs":[{"name":"value","type":"uint256","internalType":"uint256"}],"stateMutability":"view"},{"type":"function","name":"_world","inputs":[],"outputs":[{"name":"","type":"address","internalType":"address"}],"stateMutability":"view"},{"type":"function","name":"calculateFee","inputs":[{"name":"goldAmount","type":"uint256","internalType":"uint256"}],"outputs":[{"name":"feeAmount","type":"uint256","internalType":"uint256"},{"name":"sellerAmount","type":"uint256","internalType":"uint256"}],"stateMutability":"view"},{"type":"function","name":"cancelOrder","inputs":[{"name":"_orderHash","type":"bytes32","internalType":"bytes32"}],"outputs":[{"name":"","type":"bool","internalType":"bool"}],"stateMutability":"nonpayable"},{"type":"function","name":"createOrder","inputs":[{"name":"order","type":"tuple","internalType":"struct Order","components":[{"name":"offer","type":"tuple","internalType":"struct Offer","components":[{"name":"tokenType","type":"uint8","internalType":"enum TokenType"},{"name":"token","type":"address","internalType":"address"},{"name":"identifier","type":"uint256","internalType":"uint256"},{"name":"amount","type":"uint256","internalType":"uint256"}]},{"name":"consideration","type":"tuple","internalType":"struct Consideration","components":[{"name":"tokenType","type":"uint8","internalType":"enum TokenType"},{"name":"token","type":"address","internalType":"address"},{"name":"identifier","type":"uint256","internalType":"uint256"},{"name":"amount","type":"uint256","internalType":"uint256"},{"name":"recipient","type":"address","internalType":"address"}]},{"name":"signature","type":"bytes","internalType":"bytes"},{"name":"offerer","type":"address","internalType":"address"}]}],"outputs":[{"name":"_orderHash","type":"bytes32","internalType":"bytes32"}],"stateMutability":"nonpayable"},{"type":"function","name":"fulfillOrder","inputs":[{"name":"orderHash","type":"bytes32","internalType":"bytes32"}],"outputs":[{"name":"fulfilled","type":"bool","internalType":"bool"}],"stateMutability":"nonpayable"},{"type":"function","name":"getConsideration","inputs":[{"name":"orderHash","type":"bytes32","internalType":"bytes32"}],"outputs":[{"name":"consideration","type":"tuple","internalType":"struct ConsiderationsData","components":[{"name":"tokenType","type":"uint8","internalType":"enum TokenType"},{"name":"token","type":"address","internalType":"address"},{"name":"identifier","type":"uint256","internalType":"uint256"},{"name":"amount","type":"uint256","internalType":"uint256"},{"name":"recipient","type":"address","internalType":"address"}]}],"stateMutability":"view"},{"type":"function","name":"getCounter","inputs":[{"name":"offerer","type":"address","internalType":"address"}],"outputs":[{"name":"","type":"uint256","internalType":"uint256"}],"stateMutability":"view"},{"type":"function","name":"getOffer","inputs":[{"name":"orderHash","type":"bytes32","internalType":"bytes32"}],"outputs":[{"name":"offer","type":"tuple","internalType":"struct OffersData","components":[{"name":"tokenType","type":"uint8","internalType":"enum TokenType"},{"name":"token","type":"address","internalType":"address"},{"name":"identifier","type":"uint256","internalType":"uint256"},{"name":"amount","type":"uint256","internalType":"uint256"}]}],"stateMutability":"view"},{"type":"function","name":"getOrderHash","inputs":[{"name":"order","type":"tuple","internalType":"struct Order","components":[{"name":"offer","type":"tuple","internalType":"struct Offer","components":[{"name":"tokenType","type":"uint8","internalType":"enum TokenType"},{"name":"token","type":"address","internalType":"address"},{"name":"identifier","type":"uint256","internalType":"uint256"},{"name":"amount","type":"uint256","internalType":"uint256"}]},{"name":"consideration","type":"tuple","internalType":"struct Consideration","components":[{"name":"tokenType","type":"uint8","internalType":"enum TokenType"},{"name":"token","type":"address","internalType":"address"},{"name":"identifier","type":"uint256","internalType":"uint256"},{"name":"amount","type":"uint256","internalType":"uint256"},{"name":"recipient","type":"address","internalType":"address"}]},{"name":"signature","type":"bytes","internalType":"bytes"},{"name":"offerer","type":"address","internalType":"address"}]}],"outputs":[{"name":"orderHash","type":"bytes32","internalType":"bytes32"}],"stateMutability":"view"},{"type":"function","name":"getOrderStatus","inputs":[{"name":"orderHash","type":"bytes32","internalType":"bytes32"}],"outputs":[{"name":"orderStatus","type":"uint8","internalType":"enum OrderStatus"}],"stateMutability":"view"},{"type":"function","name":"incrementCounter","inputs":[{"name":"offerer","type":"address","internalType":"address"}],"outputs":[{"name":"","type":"uint256","internalType":"uint256"}],"stateMutability":"nonpayable"},{"type":"function","name":"marketplaceAddress","inputs":[],"outputs":[{"name":"","type":"address","internalType":"address"}],"stateMutability":"view"},{"type":"function","name":"supportsInterface","inputs":[{"name":"interfaceId","type":"bytes4","internalType":"bytes4"}],"outputs":[{"name":"","type":"bool","internalType":"bool"}],"stateMutability":"pure"},{"type":"event","name":"Store_SetRecord","inputs":[{"name":"tableId","type":"bytes32","indexed":true,"internalType":"ResourceId"},{"name":"keyTuple","type":"bytes32[]","indexed":false,"internalType":"bytes32[]"},{"name":"staticData","type":"bytes","indexed":false,"internalType":"bytes"},{"name":"encodedLengths","type":"bytes32","indexed":false,"internalType":"EncodedLengths"},{"name":"dynamicData","type":"bytes","indexed":false,"internalType":"bytes"}],"anonymous":false},{"type":"event","name":"Store_SpliceStaticData","inputs":[{"name":"tableId","type":"bytes32","indexed":true,"internalType":"ResourceId"},{"name":"keyTuple","type":"bytes32[]","indexed":false,"internalType":"bytes32[]"},{"name":"start","type":"uint48","indexed":false,"internalType":"uint48"},{"name":"data","type":"bytes","indexed":false,"internalType":"bytes"}],"anonymous":false},{"type":"error","name":"GamePaused","inputs":[]},{"type":"error","name":"ReentrancyGuardReentrantCall","inputs":[]},{"type":"error","name":"Slice_OutOfBounds","inputs":[{"name":"data","type":"bytes","internalType":"bytes"},{"name":"start","type":"uint256","internalType":"uint256"},{"name":"end","type":"uint256","internalType":"uint256"}]}],"bytecode":{"object":"0x6080806040523461001a5760015f5561410d908161001f8239f35b5f80fdfe60806040526004361015610011575f80fd5b5f3560e01c806301ffc9a714610104578063119df25f146100ff57806326e5dc5d146100fa57806345ec9354146100f557806346423aa7146100f05780637489ec23146100eb57806378885da7146100e657806399a5d747146100e1578063d597b8c8146100dc578063daa17f49146100d7578063dd5c51a7146100d2578063e1af802c146100cd578063e5910ae7146100c8578063f07ec373146100c35763f8b48037146100be575f80fd5b610d71565b610d13565b610cc0565b610ca6565b610c8b565b610c71565b610c41565b610bad565b61092b565b6104d7565b6104ae565b61046c565b6101b2565b610174565b3461015a57602036600319011261015a5760043563ffffffff60e01b811680910361015a5760209063b5dee12760e01b8114908115610149575b506040519015158152f35b6301ffc9a760e01b1490505f61013e565b5f80fd5b5f91031261015a57565b6001600160a01b031690565b3461015a575f36600319011261015a57602061018e611082565b6040516001600160a01b039091168152f35b602090600319011261015a5760043590565b3461015a5761039c6101c3366101a0565b6101cb611099565b6101d36110ba565b6101dc81611175565b906103916101e9826111e5565b926101f383611260565b936101fd8561049f565b61020a6001809614610d9f565b610212611082565b61021c81866112a6565b9161022e606082019384511115610de1565b86845161023a81610bf7565b61024381610bf7565b036104525760608401519261025661204f565b9083906102666080850151610168565b915b6102786102736110e5565b611d15565b936102a161029961028f61028a6110e5565b611db7565b60601c968a610e45565b612710900490565b916102ac838a610e58565b918d8b516102b981610bf7565b6102c281610bf7565b036103f757506102fd9592916102df916102da61204f565b6113b8565b801515806103ee575b6103db575b505060408401519051918561143b565b61030782876114c2565b86845161031381610bf7565b61031c81610bf7565b036103d45761032e6080820151610168565b965b80855161033c81610bf7565b61034581610bf7565b036103c9576040820151945b5161035b81610bf7565b61036481610bf7565b036103b55750915b61037e610377610751565b9687610e65565b6020860152604085015260608401610e65565b42608083015261154b565b6103a560015f55565b60405160018152602090f35b0390f35b6103c3915060800151610168565b9161036c565b604085015194610351565b8196610330565b6103e7916102da61204f565b5f806102ed565b508115156102e8565b9350610433959161040891856113b8565b81151580610449575b610438575b50505061042161204f565b9060408701519060608801519261143b565b6102fd565b610441926113b8565b5f8080610416565b50801515610411565b82519282906104646080840151610168565b908491610268565b3461015a575f36600319011261015a576020604051601f193601358152f35b634e487b7160e01b5f52602160045260245ffd5b600311156104a957565b61048b565b3461015a576104c46104bf366101a0565b611260565b60405160038210156104a9576020918152f35b3461015a576104e5366101a0565b6104ed611099565b6104f56110ba565b6104fe81611260565b60038110156104a95760016105139114610d9f565b61051b611058565b50610525816111e5565b906080610530611082565b920180516001600160a01b03939084169084160361015a5761055061110b565b80511561067657826020820152604051935f602086015260018552610574856106dd565b61057c6123b7565b163081036105c05750906105966105aa9461059c93612f34565b51610168565b6105a461204f565b91611676565b60015f55604051806103b181905f602083019252565b93843b1561015a576040516301c85d5760e51b8152654f726465727360501b631d18955160e21b01600482015260a06024820152945f92869283918591839161062b91906106129060a4850190611a50565b600260448501528381036003190160648501529061228b565b6535030014200160c81b608483015203925af1908115610671576105aa9361059c92610658575b50610596565b8061066561066b926106ca565b8061015e565b5f610652565b61129b565b611140565b634e487b7160e01b5f52604160045260245ffd5b60a081019081106001600160401b038211176106aa57604052565b61067b565b608081019081106001600160401b038211176106aa57604052565b6001600160401b0381116106aa57604052565b604081019081106001600160401b038211176106aa57604052565b606081019081106001600160401b038211176106aa57604052565b60c081019081106001600160401b038211176106aa57604052565b601f909101601f19168101906001600160401b038211908210176106aa57604052565b6040519061075e8261068f565b565b6040519061075e826106af565b3590600482101561015a57565b600435906001600160a01b038216820361015a57565b35906001600160a01b038216820361015a57565b91908260a091031261015a576040516107bc8161068f565b60806107fa8183956107cd8161076d565b85526107db60208201610790565b6020860152604081013560408601526060810135606086015201610790565b910152565b6001600160401b0381116106aa57601f01601f191660200190565b81601f8201121561015a57803590610831826107ff565b9261083f604051948561072e565b8284526020838301011161015a57815f926020809301838601378301015290565b60031960208282011261015a57600435916001600160401b039182841161015a578382030192610160841261015a5760806040519461089e866106af565b1261015a576040516108af816106af565b6108bb8260040161076d565b81526108c960248301610790565b6020820152604482013560408201526064820135606082015284526108f182608483016107a4565b602085015261012481013592831161015a576109186101449260046109239584010161081a565b604085015201610790565b606082015290565b3461015a576103b161093c36610860565b610944611099565b61094c6110ba565b610b52610b4c60608301610b306109638251610168565b610987610976610971611082565b610168565b916001600160a01b03168214610e74565b6020860180516080015190916109af916109a9906001600160a01b0316610168565b14610ece565b610b2a610b236109bf8851610e24565b9780516109cf6020820151610168565b906109f960606040830151920151926109f06109e9610760565b9d8e610f2f565b60208d01610e65565b60408b015260608a0152610b1e610a108551610e24565b94610a6d8151610a236020820151610168565b906040810151610a5a610a3e60806060850151940151610168565b93610a51610a4a610751565b9c8d610f2f565b60208c01610e65565b60408a0152606089015260808801610e65565b6001610a798451610e24565b610a8281610bf7565b148015610b8c575b610a9390610f3b565b6001610a9f8251610e24565b610aa881610bf7565b148015610b6b575b610ab990610f3b565b610aea610ac68451610e24565b610ad08351610e24565b90610ada82610bf7565b610ae381610bf7565b1415610f7c565b610b196080610b09610b04610aff8c51610168565b611717565b610fbd565b925101516001600160a01b031690565b61174e565b610fef565b968761183b565b85611922565b610596610b3b61204f565b610b458351610168565b9086611676565b82611515565b610b5b60015f55565b6040519081529081906020820190565b50610ab96003610b7b8351610e24565b610b8481610bf7565b149050610ab0565b50610a936003610b9c8551610e24565b610ba581610bf7565b149050610a8a565b3461015a57602036600319011261015a57600435612710610bd8610bd26102736110e5565b83610e45565b04808203918211610bf25760409182519182526020820152f35b610e31565b600411156104a957565b9060048210156104a95752565b60608091610c1d848251610c01565b6020818101516001600160a01b031690850152604080820151908501520151910152565b3461015a576080610c62610c54366101a0565b610c5c610fcb565b50611175565b610c6f6040518092610c0e565bf35b3461015a575f36600319011261015a576020604051308152f35b3461015a576020610c9e610b1e36610860565b604051908152f35b3461015a575f36600319011261015a57602061018e6123b7565b3461015a57602036600319011261015a57610cd961077a565b610ce1611082565b6001600160a01b0382811691160361015a57610cfc81611717565b60018101809111610bf257610c9e8160209361174e565b3461015a57602036600319011261015a576020610c9e610aff61077a565b608090610d3f838251610c01565b8160208201519160018060a01b0380931660208601526040810151604086015260608101516060860152015116910152565b3461015a5760a0610d92610d84366101a0565b610d8c611058565b506111e5565b610c6f6040518092610d31565b15610da657565b60405162461bcd60e51b81526020600482015260136024820152724f72646572206973206e6f742061637469766560681b6044820152606490fd5b15610de857565b60405162461bcd60e51b8152602060048201526014602482015273496e73756666696369656e742062616c616e636560601b6044820152606490fd5b5160048110156104a95790565b634e487b7160e01b5f52601160045260245ffd5b81810292918115918404141715610bf257565b91908203918211610bf257565b6001600160a01b039091169052565b15610e7b57565b60405162461bcd60e51b815260206004820152602560248201527f596f752063616e6e6f74206f6666657220736f6d656f6e6520656c73652773206044820152646974656d7360d81b6064820152608490fd5b15610ed557565b60405162461bcd60e51b815260206004820152602c60248201527f596f752063616e6e6f7420707572636861736520616e206974656d20666f722060448201526b736f6d656f6e6520656c736560a01b6064820152608490fd5b60048210156104a95752565b15610f4257565b60405162461bcd60e51b8152602060048201526012602482015271151bdad95b881b9bdd081858d8d95c1d195960721b6044820152606490fd5b15610f8357565b60405162461bcd60e51b815260206004820152601260248201527143616e6e6f742063726f737320747261646560701b6044820152606490fd5b9060018201809211610bf257565b60405190610fd8826106af565b5f6060838281528260208201528260408201520152565b6060810151611006906001600160a01b0316611717565b906110336020825192015161102960405193602085019586526040850190610c0e565b60c0830190610d31565b610140815261016081016001600160401b038111828210176106aa5760405251902090565b604051906110658261068f565b5f6080838281528260208201528260408201528260608201520152565b36603319013560601c90811561109457565b339150565b60025f54146110a85760025f55565b604051633ee5aeb560e01b8152600490fd5b6110ca6110c56110e5565b611bdd565b60f81c6110d357565b60405163379a7ed960e01b8152600490fd5b604051602081016001600160401b038111828210176106aa576040525f8152905f368137565b60405190611118826106dd565b6001825260203681840137565b60405190611132826106f8565b600282526040366020840137565b634e487b7160e01b5f52603260045260245ffd5b8051156106765760200190565b80518210156106765760209160051b010190565b61117d610fcb565b5061118661110b565b8051156106765761119b916020820152611a83565b50506111e26111a8610fcb565b916111b9602082015160f81c6124c1565b90602181015190605560358201519101516060860152604085015260601c602084015282610f2f565b90565b6111ed611058565b506111f661110b565b8051156106765761120b916020820152611b45565b50506111e2611218611058565b91611229602082015160f81c6124c1565b906021810151906035810151906075605582015191015160601c60808701526060860152604085015260601c602084015282610f2f565b61126861110b565b8051156106765761127d916020820152611c84565b60f81c60038110156104a95790565b9081602091031261015a575190565b6040513d5f823e3d90fd5b905f916112bb6112b5826111e5565b91611175565b508051926112c884610bf7565b60209360406112d986850151610168565b930151906112e681610bf7565b6001810361135e5750506040516370a0823160e01b81526001600160a01b03909316600484015250829082908180602481015b03916001600160a01b03165afa918215610671575f9261133857505090565b6111e29250803d10611357575b61134f818361072e565b81019061128c565b503d611345565b806113726003929896989795939497610bf7565b1461137f57505050909150565b604051627eeac760e11b81526001600160a01b039096166004870152602486019190915291939092509082908290818060448101611319565b9190916113c48161208c565b8281106113fa57828103908111610bf2576113de916120b4565b6113e78261208c565b908101809111610bf25761075e916120b4565b60405162461bcd60e51b8152602060048201526019602482015278496e73756666696369656e7420676f6c642062616c616e636560381b6044820152606490fd5b92919092611449828261215d565b83811061148157838103908111610bf2578261146492612193565b61146e818461215d565b918201809211610bf25761075e92612193565b60405162461bcd60e51b8152602060048201526019602482015278496e73756666696369656e74206974656d2062616c616e636560381b6044820152606490fd5b60405160609290921b6001600160601b03191660208301525f6034830152600160f91b605483015260358252906114f8816106f8565b61150061110b565b8051156106765761075e9260208201526122b0565b60405160609290921b6001600160601b03191660208301525f6034830152600160f81b605483015260358252906114f8816106f8565b81519160208101519260408201519160806060820151910151926040519560018060601b0319809460601b1660208801526034870152605486015260601b1660748401526088830152608882526115a182610713565b6115a961110b565b906115b382611154565b526001600160a01b036115c46123b7565b163081036115d757509061075e9161289b565b90813b1561015a575f9161163083611643936116586040519788968795869463298314fb60e01b86526f4d61726b6574706c61636553616c6500631bdd155160e21b01600487015260a0602487015260a4860190611a50565b600319928386830301604487015261228b565b9084606485015283820301608484015261224e565b03925af18015610671576116695750565b8061066561075e926106ca565b61168390610c5c816111e5565b90606082015191604081519161169883610bf7565b0151906116a481610bf7565b600181036116b757505061075e926113b8565b806116c6600392949394610bf7565b036116d45761075e9361143b565b60405162461bcd60e51b815260206004820152601b60248201527a151bdad95b881d1e5c19481a5cc81b9bdd081cdd5c1c1bdc9d1959602a1b6044820152606490fd5b61171f611125565b90815115610676576001600160a01b0316602082015280516001101561067657805f60406111e2930152611e59565b90611757611125565b805190926001600160a01b0391156106765781166020840152825160011015610676575f604084015260405191602083015260208252611796826106dd565b61179e6123b7565b16913083036117b15761075e92506130ea565b90823b1561015a576040516301c85d5760e51b815267436f756e7465727360401b631d18955160e21b01600482015260a06024820152925f92849283918591839161181d91906118059060a4850190611a50565b9084604485015260031984830301606485015261228b565b630100080160dd1b608483015203925af18015610671576116695750565b81519160048310156104a95760208101519060606040820151910151916118696040519560208701906123a7565b60601b6001600160601b031916602185015260358401526055808401919091528252611894826106af565b61189c61110b565b906118a682611154565b526001600160a01b036118b76123b7565b163081036118ca57509061075e9161290d565b90813b1561015a5760405163298314fb60e01b8152654f666665727360501b631d18955160e21b01600482015260a06024820152925f92849290918391859183916116589190611643906116309060a4860190611a50565b81519060048210156104a95782602061075e94015190604081015190608060608201519101519161195a6040519660208801906123a7565b60018060601b0319809460601b1660218701526035860152605585015260601b1660758301526069825261198d8261068f565b61199561110b565b9061199f82611154565b5261232b565b5f5b8381106119b65750505f910152565b81810151838201526020016119a7565b81601f8201121561015a5780516119dc816107ff565b926119ea604051948561072e565b8184526020828401011161015a576111e291602080850191016119a5565b909160608284031261015a5781516001600160401b03929083811161015a5784611a339183016119c6565b93602082015193604083015190811161015a576111e292016119c6565b9081518082526020808093019301915f5b828110611a6f575050505090565b835185529381019392810192600101611a61565b6001600160a01b03611a936123b7565b16308103611aac5750611aa5906123ec565b9192909190565b60405163419b58fd60e01b8152654f666665727360501b631d18955160e21b0160048201526060602482015292915f91849182908190611af0906064830190611a50565b6602a8200008a10160c51b604483015203915afa908115610671575f80935f93611b1b575b50929190565b91935050611b3b91503d805f833e611b33818361072e565b810190611a08565b929092915f611b15565b6001600160a01b03611b556123b7565b16308103611b675750611aa590612465565b60405163419b58fd60e01b81526f436f6e73696465726174696f6e730000631d18955160e21b0160048201526060602482015292915f91849182908190611bb2906064830190611a50565b671a4140004508080560ba1b604483015203915afa908115610671575f80935f93611b1b5750929190565b6001600160a01b03611bed6123b7565b16308103611bff57506111e2906124d0565b604051638c364d5960e01b81526514185d5cd95960521b631d18955160e21b0160048201526080602482015291602091839182908190611c43906084830190611a50565b5f6044830152630101000160d81b606483015203915afa908115610671575f91611c6b575090565b6111e2915060203d6020116113575761134f818361072e565b6001600160a01b03611c946123b7565b16308103611ca657506111e290612548565b604051638c364d5960e01b8152654f726465727360501b631d18955160e21b0160048201526080602482015291602091839182908190611cea906084830190611a50565b600260448301526535030014200160c81b606483015203915afa908115610671575f91611c6b575090565b6001600160a01b03611d256123b7565b16308103611d3757506111e2906125fc565b604051638c364d5960e01b81526f556c74696d617465446f6d696e696f6e631d18955160e21b0160048201526080602482015291602091839182908190611d82906084830190611a50565b600a60448301526f45434000450505050505050805080805607a1b606483015203915afa908115610671575f91611c6b575090565b6001600160a01b03611dc76123b7565b16308103611dd957506111e290612681565b604051638c364d5960e01b81526f556c74696d617465446f6d696e696f6e631d18955160e21b0160048201526080602482015291602091839182908190611e24906084830190611a50565b600960448301526f45434000450505050505050805080805607a1b606483015203915afa908115610671575f91611c6b575090565b6001600160a01b03611e696123b7565b16308103611e7b57506111e290612706565b604051638c364d5960e01b815267436f756e7465727360401b631d18955160e21b0160048201526080602482015291602091839182908190611ec1906084830190611a50565b5f6044830152630100080160dd1b606483015203915afa908115610671575f91611c6b575090565b6001600160a01b03611ef96123b7565b16308103611f0b57506111e29061276a565b604051638c364d5960e01b81526653797374656d7360481b661d189ddbdc9b1960ca1b0160048201526080602482015291602091839182908190611f53906084830190611a50565b5f604483015264150200140160d01b606483015203915afa908115610671575f91611c6b575090565b6001600160a01b03611f8c6123b7565b16308103611f9e57506111e2906127d0565b604051638c364d5960e01b81526742616c616e63657360401b651d1891dbdb1960d21b0160048201526080602482015291602091839182908190611ec1906084830190611a50565b6001600160a01b03611ff66123b7565b1630810361200857506111e290612836565b604051638c364d5960e01b8152654f776e65727360501b6674624974656d7360c81b0160048201526080602482015291602091839182908190611ec1906084830190611a50565b61205761110b565b805115610676576f4c6f6f744d616e616765725379737465631cde555160e21b01602082015261208690611ee9565b60601c90565b61209461110b565b805115610676576001600160a01b0390911660208201526111e290611f7c565b906120bd61110b565b805190926001600160a01b0391156106765781166020840152604051916020830152602082526120ec826106dd565b6120f46123b7565b16913083036121075761075e92506138a5565b90823b1561015a576040516301c85d5760e51b81526742616c616e63657360401b651d1891dbdb1960d21b01600482015260a06024820152925f92849283918591839161181d91906118059060a4850190611a50565b612165611125565b90815115610676576001600160a01b03166020820152805160011015610676576111e2916040820152611fe6565b91909161219e611125565b805190936001600160a01b03929091156106765782166020850152835160011015610676576040840152604051916020830152602082526121de826106dd565b6121e66123b7565b16913083036121f95761075e9250613a1d565b90823b1561015a576040516301c85d5760e51b8152654f776e65727360501b6674624974656d7360c81b01600482015260a06024820152925f92849283918591839161181d91906118059060a4850190611a50565b90606051918281525f5b8381106122775750825f602080949584010152601f8019910116010190565b806020916080015182828501015201612258565b906020916122a4815180928185528580860191016119a5565b601f01601f1916010190565b6001600160a01b036122c06123b7565b163081036122d357509061075e91612b3b565b90813b1561015a5760405163298314fb60e01b8152654f726465727360501b631d18955160e21b01600482015260a06024820152925f92849290918391859183916116589190611643906116309060a4860190611a50565b6001600160a01b0361233b6123b7565b1630810361234e57509061075e91612d34565b90813b1561015a575f9161163083611643936116586040519788968795869463298314fb60e01b86526f436f6e73696465726174696f6e730000631d18955160e21b01600487015260a0602487015260a4860190611a50565b60048110156104a95760f81b9052565b7f629a4c26e296b22a8e0856e9f6ecb2d1008d7e00081111962cd175fa7488e175546001600160a01b0316806111e257503390565b5f906123f96060916134cf565b60405190602090601f1990816094850116604052605584526020840192605591925b8183101561244d57505080612431575b50505092565b5f199060031b1c908183511691199054161790525f808061242b565b8160018583949597965487520194019401919061241b565b5f906124726060916134e4565b60405190602090601f19908160a8850116604052606984526020840192606991925b818310156124a9575050806124315750505092565b81600185839495979654875201940194019190612494565b60ff1660048110156104a95790565b60405160208160208101936514185d5cd95960521b631d18955160e21b0185526040820160208251919201935f5b8281106125315750505061251b925003601f19810183528261072e565b5190205f8051602061408d833981519152185490565b8551845294810194869450928101926001016124fe565b60405161256b8161255d6020820194856132b3565b03601f19810183528261072e565b5190205f8051602061408d833981519152185f905f5b600281106125d45750818160208210156125be575b505080548260031b1b9160200390816001116125b157505090565b600101549060031b1c1790565b90809350601f925060051c019116905f80612596565b9160ff6535030014200160c81b84601b0360031b1c168101809111610bf25791600101612581565b61260590613451565b5f905f5b600a811061264f575081816020821015612639575b505080548260031b1b9160200390816020116125b157505090565b90809350601f925060051c019116905f8061261e565b9160ff6f45434000450505050505050805080805607a1b84601b0360031b1c168101809111610bf25791600101612609565b61268a90613451565b5f905f5b600981106126d45750818160208210156126be575b505080548260031b1b9160200390816014116125b157505090565b90809350601f925060051c019116905f806126a3565b9160ff6f45434000450505050505050805080805607a1b84601b0360031b1c168101809111610bf2579160010161268e565b604051602081602081019367436f756e7465727360401b631d18955160e21b0185526040820160208251919201935f5b8281106127535750505061251b925003601f19810183528261072e565b855184529481019486945092810192600101612736565b60405160208160208101936653797374656d7360481b661d189ddbdc9b1960ca1b0185526040820160208251919201935f5b8281106127b95750505061251b925003601f19810183528261072e565b85518452948101948694509281019260010161279c565b60405160208160208101936742616c616e63657360401b651d1891dbdb1960d21b0185526040820160208251919201935f5b82811061281f5750505061251b925003601f19810183528261072e565b855184529481019486945092810192600101612802565b6040516020816020810193654f776e65727360501b6674624974656d7360c81b0185526040820160208251919201935f5b8281106128845750505061251b925003601f19810183528261072e565b855184529481019486945092810192600101612867565b60408051655461626c657360501b66746273746f726560c81b0160208201526f4d61726b6574706c61636553616c6500631bdd155160e21b0181830181905291815290925f805160206140ad8339815191529290916128f9906106f8565b6129086040519283928361363d565b0390a2565b60408051655461626c657360501b66746273746f726560c81b0160208201908152654f666665727360501b631d18955160e21b018284018190528383529295929491612958816106f8565b5190205f8051602061408d833981519152185491612974613c48565b905f5b8251811015612a1d576129ab61299e6129908386611161565b516001600160581b03191690565b6001600160581b03191690565b6001808260581c16146129c2575b50600101612977565b60601c90813b1561015a5788516315c19b2760e21b8152915f9083908183816129f08c8c8f60048501613679565b03925af191821561067157600192612a0a575b50906129b9565b80610665612a17926106ca565b5f612a03565b50945f805160206140ad833981519152875180612a3b86898361363d565b0390a2612a56612a4a856134cf565b83516020850191613f10565b60ff808460e01c1680612afc575b50505f5b8151811015612af357612a8161299e6129908385611161565b6002808260581c1614612a98575b50600101612a68565b60601c90813b1561015a578751635b28cdaf60e01b8152915f908390818381612ac68b8b8e60048501613679565b03925af191821561067157600192612ae0575b5090612a8f565b80610665612aed926106ca565b5f612ad9565b50505050509050565b5f612b0687613bf4565b555f60805b8284831610612b1b575050612a64565b600181612b328693612b2d868d6133ca565b613ec5565b92011690612b0b565b60408051655461626c657360501b66746273746f726560c81b0160208201908152654f726465727360501b631d18955160e21b018284018190528383529295929491612b86816106f8565b5190205f8051602061408d833981519152185491612ba2613d0c565b905f5b8251811015612c3057612bbe61299e6129908386611161565b6001808260581c1614612bd5575b50600101612ba5565b60601c90813b1561015a5788516315c19b2760e21b8152915f908390818381612c038c8c8f600485016136d9565b03925af191821561067157600192612c1d575b5090612bcc565b80610665612c2a926106ca565b5f612c16565b50945f805160206140ad833981519152875180612c4e86898361363d565b0390a2612c5d612a4a856134f9565b60ff808460e01c1680612cfa575b50505f5b8151811015612af357612c8861299e6129908385611161565b6002808260581c1614612c9f575b50600101612c6f565b60601c90813b1561015a578751635b28cdaf60e01b8152915f908390818381612ccd8b8b8e600485016136d9565b03925af191821561067157600192612ce7575b5090612c96565b80610665612cf4926106ca565b5f612ce0565b5f612d0487613c1e565b555f60805b8284831610612d19575050612c6b565b600181612d2b8693612b2d868d613407565b92011690612d09565b60408051655461626c657360501b66746273746f726560c81b01602082019081526f436f6e73696465726174696f6e730000631d18955160e21b018284018190528383529295929491612d86816106f8565b5190205f8051602061408d833981519152185491612da2613d61565b905f5b8251811015612e3057612dbe61299e6129908386611161565b6001808260581c1614612dd5575b50600101612da5565b60601c90813b1561015a5788516315c19b2760e21b8152915f908390818381612e038c8c8f60048501613713565b03925af191821561067157600192612e1d575b5090612dcc565b80610665612e2a926106ca565b5f612e16565b50945f805160206140ad833981519152875180612e4e86898361363d565b0390a2612e5d612a4a856134e4565b60ff808460e01c1680612efa575b50505f5b8151811015612af357612e8861299e6129908385611161565b6002808260581c1614612e9f575b50600101612e6f565b60601c90813b1561015a578751635b28cdaf60e01b8152915f908390818381612ecd8b8b8e60048501613713565b03925af191821561067157600192612ee7575b5090612e96565b80610665612ef4926106ca565b5f612ee0565b5f612f0487613c33565b555f60805b8284831610612f19575050612e6b565b600181612f2b8693612b2d868d61342c565b92011690612f09565b9190915f805b600282106130c15765ffffffffffff915016612f55826134f9565b612f5d613d0c565b905f5b8251811015612fea57612f7961299e6129908386611161565b9060049182808260581c1614612f95575b506001915001612f60565b60601c803b1561015a57855f9188838c96612fc46040519889968795869463964f667d60e01b865285016137ac565b03925af19182156106715760019215612f8a5780610665612fe4926106ca565b5f612f8a565b506040805190969392916130349185918591654f726465727360501b631d18955160e21b01905f8051602061406d833981519152908061302c87878e8461377b565b0390a2614009565b5f5b8151811015612af35761304f61299e6129908385611161565b6008808260581c1614613066575b50600101613036565b60601c90813b1561015a57875163a8ba872160e01b8152915f9083908183816130948b8b8e600485016137ac565b03925af1918215610671576001926130ae575b509061305d565b806106656130bb926106ca565b5f6130a7565b60ff6535030014200160c81b83601b0360031b1c168101809111610bf257600190910190612f3a565b91906130f58361350e565b916130fe613dbd565b905f5b825181101561318a5761311a61299e6129908386611161565b9060049182808260581c1614613136575b506001915001613101565b60601c803b1561015a57855f918983613164966040519788958694859363964f667d60e01b855284016137f8565b03925af1918215610671576001921561312b5780610665613184926106ca565b5f61312b565b50604080519194909392916131d491849167436f756e7465727360401b631d18955160e21b01905f8051602061406d83398151915290806131cc868d83613750565b0390a2613fc3565b5f5b8151811015613260576131ef61299e6129908385611161565b6008808260581c1614613206575b506001016131d6565b60601c90813b1561015a57845163a8ba872160e01b8152915f9083908183816132338a8e600484016137f8565b03925af19182156106715760019261324d575b50906131fd565b8061066561325a926106ca565b5f613246565b505050509050565b6953746f7265486f6f6b7360301b66746273746f726560c81b01815281516020918201928201915f5b82811061329f575050505090565b835185529381019392810192600101613291565b654f726465727360501b631d18955160e21b01815281516020918201928201915f5b8281106132e3575050505090565b8351855293810193928101926001016132d5565b654f666665727360501b631d18955160e21b01815281516020918201928201915f5b828110613327575050505090565b835185529381019392810192600101613319565b654f726465727360501b631d18955160e21b01815281516020918201928201915f5b82811061336b575050505090565b83518552938101939281019260010161335d565b6f436f6e73696465726174696f6e730000631d18955160e21b01815281516020918201928201915f5b8281106133b6575050505090565b8351855293810193928101926001016133a8565b905f805160206140cd833981519152916040516133ef8161255d6020820194856132f7565b51902060f89190911b6001600160f81b031916181890565b905f805160206140cd833981519152916040516133ef8161255d60208201948561333b565b905f805160206140cd833981519152916040516133ef8161255d60208201948561337f565b60405160208160208101936f556c74696d617465446f6d696e696f6e631d18955160e21b0185526040820160208251919201935f5b8281106134b8575050506134a3925003601f19810183528261072e565b5190205f8051602061408d8339815191521890565b855184529481019486945092810192600101613486565b6040516134a38161255d6020820194856132f7565b6040516134a38161255d60208201948561337f565b6040516134a38161255d60208201948561333b565b604051602081602081019367436f756e7465727360401b631d18955160e21b0185526040820160208251919201935f5b82811061355b575050506134a3925003601f19810183528261072e565b85518452948101948694509281019260010161353e565b60405160208160208101936742616c616e63657360401b651d1891dbdb1960d21b0185526040820160208251919201935f5b8281106135c1575050506134a3925003601f19810183528261072e565b8551845294810194869450928101926001016135a4565b6040516020816020810193654f776e65727360501b6674624974656d7360c81b0185526040820160208251919201935f5b828110613626575050506134a3925003601f19810183528261072e565b855184529481019486945092810192600101613609565b906111e29261365761366592608085526080850190611a50565b90838203602085015261228b565b905f6040820152606081830391015261224e565b654f666665727360501b631d18955160e21b01815260c0602082018190529094939260a0926136d4926136c192916136b391890190611a50565b90878203604089015261228b565b5f6060870152858103608087015261224e565b930152565b654f726465727360501b631d18955160e21b01815260c0602082018190529094939260a0926136d4926136c192916136b391890190611a50565b9392916136c16136d4916136b360a0946f436f6e73696465726174696f6e730000631d18955160e21b01895260c060208a015260c0890190611a50565b90916137676111e293606084526060840190611a50565b915f6020820152604081840391015261228b565b65ffffffffffff6137986111e29593606084526060840190611a50565b93166020820152604081840391015261228b565b654f726465727360501b631d18955160e21b0181526080602082018190526111e2949265ffffffffffff916137e49190840190611a50565b93166040820152606081840391015261228b565b67436f756e7465727360401b631d18955160e21b0181526080602082018190526111e293919261382a91840190611a50565b915f6040820152606081840391015261228b565b6742616c616e63657360401b651d1891dbdb1960d21b0181526080602082018190526111e293919261382a91840190611a50565b654f776e65727360501b6674624974656d7360c81b0181526080602082018190526111e293919261382a91840190611a50565b91906138b083613572565b916138b9613e14565b905f5b8251811015613945576138d561299e6129908386611161565b9060049182808260581c16146138f1575b5060019150016138bc565b60601c803b1561015a57855f91898361391f966040519788958694859363964f667d60e01b8552840161383e565b03925af191821561067157600192156138e6578061066561393f926106ca565b5f6138e6565b50604080519194909392916139919184916742616c616e63657360401b651d1891dbdb1960d21b01905f8051602061406d8339815191529080613989868d83613750565b0390a2613fd2565b5f5b8151811015613260576139ac61299e6129908385611161565b6008808260581c16146139c3575b50600101613993565b60601c90813b1561015a57845163a8ba872160e01b8152915f9083908183816139f08a8e6004840161383e565b03925af191821561067157600192613a0a575b50906139ba565b80610665613a17926106ca565b5f613a03565b9190613a28836135d8565b91613a31613e6d565b905f5b8251811015613abd57613a4d61299e6129908386611161565b9060049182808260581c1614613a69575b506001915001613a34565b60601c803b1561015a57855f918983613a97966040519788958694859363964f667d60e01b85528401613872565b03925af19182156106715760019215613a5e5780610665613ab7926106ca565b5f613a5e565b5060408051919490939291613b00918491654f776e65727360501b6674624974656d7360c81b01905f8051602061406d8339815191529080613989868d83613750565b5f5b815181101561326057613b1b61299e6129908385611161565b6008808260581c1614613b32575b50600101613b02565b60601c90813b1561015a57845163a8ba872160e01b8152915f908390818381613b5f8a8e60048401613872565b03925af191821561067157600192613b79575b5090613b29565b80610665613b86926106ca565b5f613b72565b60408051601f19603f85830101811690925283815292602080850193925b81831015613bdc57505080613bc0575b50505090565b5f199060031b1c908183511691199054161790525f8080613bba565b81600185839495979654875201940194019190613baa565b604051613c098161255d6020820194856132f7565b5190205f805160206140ed8339815191521890565b604051613c098161255d60208201948561333b565b604051613c098161255d60208201948561337f565b613c5061110b565b80511561067657613cf56111e291654f666665727360501b631d18955160e21b01602082015264ffffffffff604051915f805160206140cd8339815191526020840184613c9d8483613268565b0394613cb1601f199687810183528261072e565b5190201892613cd86040519182613ccc602082019586613268565b0390810183528261072e565b5190205f805160206140ed833981519152185460381c1690613b8c565b602060018060801b03825116910160801b1761401a565b613d1461110b565b80511561067657613cf56111e291654f726465727360501b631d18955160e21b01602082015264ffffffffff604051915f805160206140cd8339815191526020840184613c9d8483613268565b613d6961110b565b80511561067657613cf56111e2916f436f6e73696465726174696f6e730000631d18955160e21b01602082015264ffffffffff604051915f805160206140cd8339815191526020840184613c9d8483613268565b613dc561110b565b80511561067657613cf56111e29167436f756e7465727360401b631d18955160e21b01602082015264ffffffffff604051915f805160206140cd8339815191526020840184613c9d8483613268565b613e1c61110b565b80511561067657613cf56111e2916742616c616e63657360401b651d1891dbdb1960d21b01602082015264ffffffffff604051915f805160206140cd8339815191526020840184613c9d8483613268565b613e7561110b565b80511561067657613cf56111e291654f776e65727360501b6674624974656d7360c81b01602082015264ffffffffff604051915f805160206140cd8339815191526020840184613c9d8483613268565b9190915f905b602090818310613eeb5784518155930192601f1990910190600101613ecb565b929391905080613efa57505050565b5f199060031b1c90818354169119905116179055565b929192602090818310613eeb5784518155930192601f1990910190600101613ecb565b909392919380613f62575b50929092602090818310613eeb5784518155930192601f1990910190600101613ecb565b6020811015613fb3575b8015613f3e5791939082602003908360031b5f198460031b1c19811c908751901c90801983541691161781558183111561326057600101940191601f19910101925f613f3e565b90601f908260051c019116613f6c565b815161075e9260200191613f10565b81519060208093019190925b80821015613ff1575080613efa57505050565b6001839482939451815501930191601f190190613fde565b825161075e93602001929091613f33565b8060801c906015809160018060801b031604604051926020906020850160208460051b8701016040528386525f5b8481106140585750505050505090565b82518252918501919083019060010161404856fe8c0b5119d4cec7b284c6b1b39252a03d1e2f2d7451a5895562524c113bb952be86425bff6b57326c7859e89024fe4f238ca327a1ae4a230180dd2f0e88aaa7d98dbb3a9672eebfd3773e72dd9c102393436816d832c7ba9e1e1ac8fcadcac7a93b4102da22e32d82fc925482184f16c09fd4281692720b87d124aef6da48a0f114e2fcc58e58e68ec7edc30c8d50dccc3ce2714a623ec81f46b6a63922d76569","linkReferences":{}},"methodIdentifiers":{"_msgSender()":"119df25f","_msgValue()":"45ec9354","_world()":"e1af802c","calculateFee(uint256)":"99a5d747","cancelOrder(bytes32)":"7489ec23","createOrder(((uint8,address,uint256,uint256),(uint8,address,uint256,uint256,address),bytes,address))":"78885da7","fulfillOrder(bytes32)":"26e5dc5d","getConsideration(bytes32)":"f8b48037","getCounter(address)":"f07ec373","getOffer(bytes32)":"d597b8c8","getOrderHash(((uint8,address,uint256,uint256),(uint8,address,uint256,uint256,address),bytes,address))":"dd5c51a7","getOrderStatus(bytes32)":"46423aa7","incrementCounter(address)":"e5910ae7","marketplaceAddress()":"daa17f49","supportsInterface(bytes4)":"01ffc9a7"},"id":355}