{"abi":[{"type":"function","name":"_msgSender","inputs":[],"outputs":[{"name":"sender","type":"address","internalType":"address"}],"stateMutability":"view"},{"type":"function","name":"_msgValue","inputs":[],"outputs":[{"name":"value","type":"uint256","internalType":"uint256"}],"stateMutability":"pure"},{"type":"function","name":"_world","inputs":[],"outputs":[{"name":"","type":"address","internalType":"address"}],"stateMutability":"view"},{"type":"function","name":"cancelOrder","inputs":[{"name":"_orderHash","type":"bytes32","internalType":"bytes32"}],"outputs":[{"name":"","type":"bool","internalType":"bool"}],"stateMutability":"nonpayable"},{"type":"function","name":"createOrder","inputs":[{"name":"order","type":"tuple","internalType":"struct Order","components":[{"name":"offer","type":"tuple","internalType":"struct Offer","components":[{"name":"tokenType","type":"uint8","internalType":"enum TokenType"},{"name":"token","type":"address","internalType":"address"},{"name":"identifier","type":"uint256","internalType":"uint256"},{"name":"amount","type":"uint256","internalType":"uint256"}]},{"name":"consideration","type":"tuple","internalType":"struct Consideration","components":[{"name":"tokenType","type":"uint8","internalType":"enum TokenType"},{"name":"token","type":"address","internalType":"address"},{"name":"identifier","type":"uint256","internalType":"uint256"},{"name":"amount","type":"uint256","internalType":"uint256"},{"name":"recipient","type":"address","internalType":"address"}]},{"name":"signature","type":"bytes","internalType":"bytes"},{"name":"offerer","type":"address","internalType":"address"}]}],"outputs":[{"name":"_orderHash","type":"bytes32","internalType":"bytes32"}],"stateMutability":"nonpayable"},{"type":"function","name":"fulfillOrder","inputs":[{"name":"orderHash","type":"bytes32","internalType":"bytes32"}],"outputs":[{"name":"fulfilled","type":"bool","internalType":"bool"}],"stateMutability":"nonpayable"},{"type":"function","name":"getConsideration","inputs":[{"name":"orderHash","type":"bytes32","internalType":"bytes32"}],"outputs":[{"name":"consideration","type":"tuple","internalType":"struct ConsiderationsData","components":[{"name":"tokenType","type":"uint8","internalType":"enum TokenType"},{"name":"token","type":"address","internalType":"address"},{"name":"identifier","type":"uint256","internalType":"uint256"},{"name":"amount","type":"uint256","internalType":"uint256"},{"name":"recipient","type":"address","internalType":"address"}]}],"stateMutability":"view"},{"type":"function","name":"getCounter","inputs":[{"name":"offerer","type":"address","internalType":"address"}],"outputs":[{"name":"","type":"uint256","internalType":"uint256"}],"stateMutability":"view"},{"type":"function","name":"getOffer","inputs":[{"name":"orderHash","type":"bytes32","internalType":"bytes32"}],"outputs":[{"name":"offer","type":"tuple","internalType":"struct OffersData","components":[{"name":"tokenType","type":"uint8","internalType":"enum TokenType"},{"name":"token","type":"address","internalType":"address"},{"name":"identifier","type":"uint256","internalType":"uint256"},{"name":"amount","type":"uint256","internalType":"uint256"}]}],"stateMutability":"view"},{"type":"function","name":"getOrderHash","inputs":[{"name":"order","type":"tuple","internalType":"struct Order","components":[{"name":"offer","type":"tuple","internalType":"struct Offer","components":[{"name":"tokenType","type":"uint8","internalType":"enum TokenType"},{"name":"token","type":"address","internalType":"address"},{"name":"identifier","type":"uint256","internalType":"uint256"},{"name":"amount","type":"uint256","internalType":"uint256"}]},{"name":"consideration","type":"tuple","internalType":"struct Consideration","components":[{"name":"tokenType","type":"uint8","internalType":"enum TokenType"},{"name":"token","type":"address","internalType":"address"},{"name":"identifier","type":"uint256","internalType":"uint256"},{"name":"amount","type":"uint256","internalType":"uint256"},{"name":"recipient","type":"address","internalType":"address"}]},{"name":"signature","type":"bytes","internalType":"bytes"},{"name":"offerer","type":"address","internalType":"address"}]}],"outputs":[{"name":"orderHash","type":"bytes32","internalType":"bytes32"}],"stateMutability":"view"},{"type":"function","name":"getOrderStatus","inputs":[{"name":"orderHash","type":"bytes32","internalType":"bytes32"}],"outputs":[{"name":"orderStatus","type":"uint8","internalType":"enum OrderStatus"}],"stateMutability":"view"},{"type":"function","name":"incrementCounter","inputs":[{"name":"offerer","type":"address","internalType":"address"}],"outputs":[{"name":"","type":"uint256","internalType":"uint256"}],"stateMutability":"nonpayable"},{"type":"function","name":"marketplaceAddress","inputs":[],"outputs":[{"name":"","type":"address","internalType":"address"}],"stateMutability":"view"},{"type":"function","name":"onERC1155BatchReceived","inputs":[{"name":"","type":"address","internalType":"address"},{"name":"","type":"address","internalType":"address"},{"name":"","type":"uint256[]","internalType":"uint256[]"},{"name":"","type":"uint256[]","internalType":"uint256[]"},{"name":"","type":"bytes","internalType":"bytes"}],"outputs":[{"name":"","type":"bytes4","internalType":"bytes4"}],"stateMutability":"nonpayable"},{"type":"function","name":"onERC1155Received","inputs":[{"name":"","type":"address","internalType":"address"},{"name":"","type":"address","internalType":"address"},{"name":"","type":"uint256","internalType":"uint256"},{"name":"","type":"uint256","internalType":"uint256"},{"name":"","type":"bytes","internalType":"bytes"}],"outputs":[{"name":"","type":"bytes4","internalType":"bytes4"}],"stateMutability":"nonpayable"},{"type":"function","name":"supportsInterface","inputs":[{"name":"interfaceId","type":"bytes4","internalType":"bytes4"}],"outputs":[{"name":"","type":"bool","internalType":"bool"}],"stateMutability":"pure"},{"type":"event","name":"Store_SetRecord","inputs":[{"name":"tableId","type":"bytes32","indexed":true,"internalType":"ResourceId"},{"name":"keyTuple","type":"bytes32[]","indexed":false,"internalType":"bytes32[]"},{"name":"staticData","type":"bytes","indexed":false,"internalType":"bytes"},{"name":"encodedLengths","type":"bytes32","indexed":false,"internalType":"EncodedLengths"},{"name":"dynamicData","type":"bytes","indexed":false,"internalType":"bytes"}],"anonymous":false},{"type":"event","name":"Store_SpliceStaticData","inputs":[{"name":"tableId","type":"bytes32","indexed":true,"internalType":"ResourceId"},{"name":"keyTuple","type":"bytes32[]","indexed":false,"internalType":"bytes32[]"},{"name":"start","type":"uint48","indexed":false,"internalType":"uint48"},{"name":"data","type":"bytes","indexed":false,"internalType":"bytes"}],"anonymous":false},{"type":"error","name":"ReentrancyGuardReentrantCall","inputs":[]},{"type":"error","name":"Slice_OutOfBounds","inputs":[{"name":"data","type":"bytes","internalType":"bytes"},{"name":"start","type":"uint256","internalType":"uint256"},{"name":"end","type":"uint256","internalType":"uint256"}]}],"bytecode":{"object":"0x608060405234801561001057600080fd5b506001600055613492806100256000396000f3fe608060405234801561001057600080fd5b50600436106101005760003560e01c8063d597b8c811610097578063e5910ae711610066578063e5910ae714610265578063f07ec37314610278578063f23a6e611461028b578063f8b48037146102c357600080fd5b8063d597b8c814610224578063daa17f4914610244578063dd5c51a71461024a578063e1af802c1461025d57600080fd5b806346423aa7116100d357806346423aa7146101755780637489ec231461019557806378885da7146101a8578063bc197c81146101bb57600080fd5b806301ffc9a714610105578063119df25f1461012d57806326e5dc5d1461014d57806345ec935414610160575b600080fd5b610118610113366004612998565b6102e3565b60405190151581526020015b60405180910390f35b6101356102f4565b6040516001600160a01b039091168152602001610124565b61011861015b3660046129da565b610303565b36601f1901355b604051908152602001610124565b6101886101833660046129da565b610451565b6040516101249190612a09565b6101186101a33660046129da565b61045c565b6101676101b6366004612bba565b61052c565b6101f36101c9366004612d21565b7fbc197c810000000000000000000000000000000000000000000000000000000095945050505050565b6040517fffffffff000000000000000000000000000000000000000000000000000000009091168152602001610124565b6102376102323660046129da565b610945565b6040516101249190612e15565b30610135565b610167610258366004612bba565b610972565b6101356109b5565b610167610273366004612e23565b6109bf565b610167610286366004612e23565b610a0c565b6101f3610299366004612e3e565b7ff23a6e610000000000000000000000000000000000000000000000000000000095945050505050565b6102d66102d13660046129da565b610a21565b6040516101249190612ee9565b60006102ee82610a55565b92915050565b60006102fe610aed565b905090565b600061030d610b1f565b600061031883610b62565b9050600061032584610c30565b9050600161033285610cfb565b6002811115610343576103436129f3565b146103955760405162461bcd60e51b815260206004820152601360248201527f4f72646572206973206e6f74206163746976650000000000000000000000000060448201526064015b60405180910390fd5b80606001516103ad8560006103a86102f4565b610dad565b10156103fb5760405162461bcd60e51b815260206004820152601460248201527f496e73756666696369656e742062616c616e6365000000000000000000000000604482015260640161038c565b610413846000836080015161040e6102f4565b610f27565b6104278460016104216102f4565b30610f27565b61043c846104336102f4565b60006002611209565b60019250505061044c6001600055565b919050565b60006102ee82610cfb565b6000610466610b1f565b600161047183610451565b6002811115610482576104826129f3565b146104cf5760405162461bcd60e51b815260206004820152601360248201527f4f72646572206973206e6f742061637469766500000000000000000000000000604482015260640161038c565b60006104da83610a21565b905080608001516001600160a01b03166104f26102f4565b6001600160a01b03161461050557600080fd5b610510836000611297565b610521836001836080015130610f27565b5061044c6001600055565b6000610536610b1f565b61053e6102f4565b6001600160a01b031682606001516001600160a01b0316146105c85760405162461bcd60e51b815260206004820152602560248201527f596f752063616e6e6f74206f6666657220736f6d656f6e6520656c736527732060448201527f6974656d73000000000000000000000000000000000000000000000000000000606482015260840161038c565b6105d06102f4565b6001600160a01b03168260200151608001516001600160a01b03161461065e5760405162461bcd60e51b815260206004820152602c60248201527f596f752063616e6e6f7420707572636861736520616e206974656d20666f722060448201527f736f6d656f6e6520656c73650000000000000000000000000000000000000000606482015260840161038c565b600060405180608001604052808460000151600001516003811115610685576106856129f3565b81526020018460000151602001516001600160a01b031681526020018460000151604001518152602001846000015160600151815250905060006040518060a0016040528085602001516000015160038111156106e4576106e46129f3565b81526020018560200151602001516001600160a01b03168152602001856020015160400151815260200185602001516060015181526020018560200151608001516001600160a01b0316815250905060016003811115610746576107466129f3565b845151600381111561075a5761075a6129f3565b1480610779575060038451516003811115610777576107776129f3565b145b6107c55760405162461bcd60e51b815260206004820152601260248201527f546f6b656e206e6f742061636365707465640000000000000000000000000000604482015260640161038c565b600160208501515160038111156107de576107de6129f3565b14806108005750600360208501515160038111156107fe576107fe6129f3565b145b61084c5760405162461bcd60e51b815260206004820152601260248201527f546f6b656e206e6f742061636365707465640000000000000000000000000000604482015260640161038c565b6020840151516003811115610863576108636129f3565b8451516003811115610877576108776129f3565b036108c45760405162461bcd60e51b815260206004820152601260248201527f43616e6e6f742063726f73732074726164650000000000000000000000000000604482015260640161038c565b60006108d585606001516000611385565b6108e0906001612f0d565b90506108f685602001516080015160008361144e565b6108ff85610972565b935061090b8484611530565b61091584836115cd565b610926846001308860600151610f27565b61093884866060015160006001611209565b50505061044c6001600055565b6040805160808101825260008082526020820181905291810182905260608101919091526102ee82610b62565b60006109818260600151610a0c565b825160208085015160405161099894939201612f20565b604051602081830303815290604052805190602001209050919050565b60006102fe611667565b6000816001600160a01b03166109d36102f4565b6001600160a01b0316146109e657600080fd5b60006109f3836000611385565b6109fe906001612f0d565b90506102ee8360008361144e565b600080610a1a836000611385565b9392505050565b6040805160a0810182526000808252602082018190529181018290526060810182905260808101919091526102ee82610c30565b60007fffffffff0000000000000000000000000000000000000000000000000000000082167fb5dee1270000000000000000000000000000000000000000000000000000000014806102ee57507fffffffff0000000000000000000000000000000000000000000000000000000082167f01ffc9a7000000000000000000000000000000000000000000000000000000001492915050565b7fffffffffffffffffffffffffffffffffffffffffffffffffffffffffffffffcc36013560601c80610b1c5750335b90565b600260005403610b5b576040517f3ee5aeb500000000000000000000000000000000000000000000000000000000815260040160405180910390fd5b6002600055565b604080516080810182526000808252602082018190529181018290526060810191909152604080516001808252818301909252600091602080830190803683370190505090508281600081518110610bbc57610bbc612f42565b602090810291909101015260008080610c157f746255440000000000000000000000004f666665727300000000000000000000857e55040001142020000000000000000000000000000000000000000000000000611671565b925092509250610c26838383611741565b9695505050505050565b6040805160a081018252600080825260208201819052918101829052606081018290526080810191909152604080516001808252818301909252600091602080830190803683370190505090508281600081518110610c9157610c91612f42565b602090810291909101015260008080610cea7f74625544000000000000000000000000436f6e73696465726174696f6e730000857e69050001142020140000000000000000000000000000000000000000000000611671565b925092509250610c268383836117bd565b604080516001808252818301909252600091829190602080830190803683370190505090508281600081518110610d3457610d34612f42565b60209081029190910101526000610d8d7f746255440000000000000000000000004f7264657273000000000000000000008360027e35030014200100000000000000000000000000000000000000000000000000611849565b905060f881901c6002811115610da557610da56129f3565b949350505050565b600080610db985610c30565b90506000610dc686610b62565b9050600085610dd6578251610dd9565b81515b9050600086610dec578360200151610df2565b82602001515b9050600087610e05578460400151610e0b565b83604001515b90506001836003811115610e2157610e216129f3565b03610eb6576040517f70a082310000000000000000000000000000000000000000000000000000000081526001600160a01b0388811660048301528316906370a08231906024015b602060405180830381865afa158015610e86573d6000803e3d6000fd5b505050506040513d601f19601f82011682018060405250810190610eaa9190612f58565b95505050505050610a1a565b6003836003811115610eca57610eca6129f3565b03610f1b576040517efdd58e0000000000000000000000000000000000000000000000000000000081526001600160a01b0388811660048301526024820183905283169062fdd58e90604401610e69565b50505050509392505050565b6000610f3285610c30565b90506000610f3f86610b62565b9050600085610f52578260600151610f58565b81606001515b9050600086610f68578351610f6b565b82515b9050600087610f7e578460400151610f84565b83604001515b90506001600160a01b0386163014600089610fa3578660200151610fa9565b85602001515b90506001846003811115610fbf57610fbf6129f3565b036110fe57811561105c576040517fa9059cbb0000000000000000000000000000000000000000000000000000000081526001600160a01b038a811660048301526024820187905282169063a9059cbb906044016020604051808303816000875af1158015611032573d6000803e3d6000fd5b505050506040513d601f19601f820116820180604052508101906110569190612f71565b506110f2565b6040517f23b872dd0000000000000000000000000000000000000000000000000000000081526001600160a01b0389811660048301528a81166024830152604482018790528216906323b872dd906064016020604051808303816000875af11580156110cc573d6000803e3d6000fd5b505050506040513d601f19601f820116820180604052508101906110f09190612f71565b505b50505050505050611203565b6003846003811115611112576111126129f3565b036111bb576040517ff242432a0000000000000000000000000000000000000000000000000000000081526001600160a01b0389811660048301528a81166024830152604482018590526064820187905260a06084830152600060a483015282169063f242432a9060c401600060405180830381600087803b15801561119757600080fd5b505af11580156111ab573d6000803e3d6000fd5b5050505050505050505050611203565b60405162461bcd60e51b815260206004820152601b60248201527f546f6b656e2074797065206973206e6f7420737570706f727465640000000000604482015260640161038c565b50505050565b6000611216848484611906565b60408051600180825281830190925291925060009160609183919060208083019080368337019050509050878160008151811061125557611255612f42565b602090810291909101015261128d7f746255440000000000000000000000004f72646572730000000000000000000082868686611935565b5050505050505050565b6040805160018082528183019092526000916020808301908036833701905050905082816000815181106112cd576112cd612f42565b60209081029190910101526113807f746255440000000000000000000000004f7264657273000000000000000000008260028581811115611310576113106129f3565b60405160200161134b919060f89190911b7fff0000000000000000000000000000000000000000000000000000000000000016815260010190565b60408051601f198184030181529190527e350300142001000000000000000000000000000000000000000000000000006119ea565b505050565b60408051600280825260608201835260009283929190602083019080368337019050509050836001600160a01b031660001b816000815181106113ca576113ca612f42565b6020026020010181815250508260001b816001815181106113ed576113ed612f42565b602090810291909101015260006114457f74625544000000000000000000000000436f756e74657273000000000000000083837e20010020000000000000000000000000000000000000000000000000000000611849565b95945050505050565b604080516002808252606082018352600092602083019080368337019050509050836001600160a01b031660001b8160008151811061148f5761148f612f42565b6020026020010181815250508260001b816001815181106114b2576114b2612f42565b6020026020010181815250506112037f74625544000000000000000000000000436f756e74657273000000000000000060001b826000856040516020016114fb91815260200190565b60408051601f198184030181529190527e200100200000000000000000000000000000000000000000000000000000006119ea565b600061154e8260000151836020015184604001518560600151611a60565b60408051600180825281830190925291925060009160609183919060208083019080368337019050509050858160008151811061158d5761158d612f42565b60209081029190910101526115c57f746255440000000000000000000000004f66666572730000000000000000000082868686611935565b505050505050565b60006115f082600001518360200151846040015185606001518660800151611a92565b60408051600180825281830190925291925060009160609183919060208083019080368337019050509050858160008151811061162f5761162f612f42565b60209081029190910101526115c57f74625544000000000000000000000000436f6e73696465726174696f6e73000082868686611935565b60006102fe611ac7565b6060600060606000611681611ac7565b9050306001600160a01b038216036116aa5761169e878787611b01565b93509350935050611738565b6040517f419b58fd0000000000000000000000000000000000000000000000000000000081526001600160a01b0382169063419b58fd906116f3908a908a908a90600401612fcf565b600060405180830381865afa158015611710573d6000803e3d6000fd5b505050506040513d6000823e601f3d908101601f1916820160405261169e9190810190613061565b93509350939050565b60408051608081018252600080825260208201819052918101829052606081019190915261176e84611c09565b60608501819052604085018290526001600160a01b03831660208601528484600381111561179e5761179e6129f3565b60038111156117af576117af6129f3565b815250505050509392505050565b6040805160a0810182526000808252602082018190529181018290526060810182905260808101919091526117f184611c54565b6001600160a01b03808216608088015260608701839052604087018490528416602087015285856003811115611829576118296129f3565b600381111561183a5761183a6129f3565b81525050505050509392505050565b600080611854611ac7565b9050306001600160a01b0382160361187a5761187286868686611cab565b915050610da5565b6040517f8c364d590000000000000000000000000000000000000000000000000000000081526001600160a01b03821690638c364d59906118c59089908990899089906004016130ce565b602060405180830381865afa1580156118e2573d6000803e3d6000fd5b505050506040513d601f19601f820116820180604052508101906118729190612f58565b606083838360405160200161191d939291906130fd565b60405160208183030381529060405290509392505050565b600061193f611ac7565b9050306001600160a01b038216036119635761195e8686868686611cd8565b6115c5565b6040517f298314fb0000000000000000000000000000000000000000000000000000000081526001600160a01b0382169063298314fb906119b0908990899089908990899060040161316b565b600060405180830381600087803b1580156119ca57600080fd5b505af11580156119de573d6000803e3d6000fd5b50505050505050505050565b60006119f4611ac7565b9050306001600160a01b03821603611a135761195e8686868686611cf5565b6040517f390baae00000000000000000000000000000000000000000000000000000000081526001600160a01b0382169063390baae0906119b090899089908990899089906004016131bc565b606084848484604051602001611a79949392919061321a565b6040516020818303038152906040529050949350505050565b60608585858585604051602001611aad959493929190613253565b604051602081830303815290604052905095945050505050565b7f629a4c26e296b22a8e0856e9f6ecb2d1008d7e00081111962cd175fa7488e175546000906001600160a01b03168061044c573391505090565b6060600060606000611b1285611d0a565b9050611b1f878783611d2d565b93506000611b2c86611d66565b90508015611bfe57611b3e8888611da3565b935066ffffffffffffff841667ffffffffffffffff811115611b6257611b62612a23565b6040519080825280601f01601f191660200182016040528015611b8c576020820181803683370190505b5092506020830160005b828160ff161015611bfb576000611bae8b8b84611db6565b90506000611bcb888460ff166028026038011c64ffffffffff1690565b9050611bda8260008387611e36565b611be48185612f0d565b935050508080611bf390613298565b915050611b96565b50505b505093509350939050565b600080600080611c1d856000016020015190565b60f81c6003811115611c3157611c316129f3565b60218601516035870151605590970151919760609190911c969550909350915050565b6000806000806000611c6a866000016020015190565b60f81c6003811115611c7e57611c7e6129f3565b6021870151603588015160558901516075909901519299606092831c9991985090965091901c9350915050565b6000611445611cba8686611f02565b60ff858116601b0360080285901c16611cd38587611f58565b611f91565b611cee8585858585611ce98b611fe2565b612067565b5050505050565b611cee8585611d048487611f58565b856123a0565b60006008611d1a600260206132b7565b611d2491906132ca565b9190911c919050565b606081600003611d4c5750604080516020810190915260008152610a1a565b6000611d588585611f02565b905061144581600085612644565b60006008600180611d79600260206132b7565b611d8391906132b7565b611d8d91906132b7565b611d9791906132ca565b8260ff911c1692915050565b6000610a1a611db28484612667565b5490565b60008383604051602001611dcb9291906132e1565b604051602081830303815290604052805190602001208260f81b7effffffffffffffffffffffffffffffffffffffffffffffffffffffffffffff19167f3b4102da22e32d82fc925482184f16c09fd4281692720b87d124aef6da48a0f1181860001c90509392505050565b8215611ebd5760208310611e6057602083048401935060208381611e5c57611e5c61331d565b0692505b8215611ebd576020839003600081841015611e835750600019600884021c611e8d565b50600019600882021c5b8554600886021b818451168219821617845250818411611eae575050611203565b50600194909401939182900391015b5b60208210611edf5783548152600190930192601f1990910190602001611ebe565b8115611203576000600019600884021c8251865482191691161782525050505050565b60008282604051602001611f179291906132e1565b60408051601f1981840301815291905280516020909101207f86425bff6b57326c7859e89024fe4f238ca327a1ae4a230180dd2f0e88aaa7d9189392505050565b600080805b8360ff16811015611f8957611f7f60ff601b83900360080287901c1683612f0d565b9150600101611f5d565b509392505050565b600060208210611fb757602082048401935060208281611fb357611fb361331d565b0691505b508254600882021b602082900380841115611f89576001850154600882021c82179150509392505050565b60007f8b9d8c8b908d9affffffffffffffffffab9e9d939a8d00000000000000000000820161203157507e60030220202000000000000000000000000000000000000000000000000000919050565b6102ee61205e7f746273746f72650000000000000000005461626c657300000000000000000000846126bd565b60206000611f91565b7f6f74000000000000000000000000000000000000000000000000000000000000867fffff00000000000000000000000000000000000000000000000000000000000016036120f357857f8dbb3a9672eebfd3773e72dd9c102393436816d832c7ba9e1e1ac8fcadcac7a9868686866040516120e69493929190613333565b60405180910390a26115c5565b60006120fe876126d9565b905060005b81518110156121d757600082828151811061212057612120612f42565b6020026020010151905061214c6001826affffffffffffffffffffff191661276290919063ffffffff16565b156121ce576040517f57066c9c000000000000000000000000000000000000000000000000000000008152606082901c906357066c9c9061219b908c908c908c908c908c908c90600401613372565b600060405180830381600087803b1580156121b557600080fd5b505af11580156121c9573d6000803e3d6000fd5b505050505b50600101612103565b50867f8dbb3a9672eebfd3773e72dd9c102393436816d832c7ba9e1e1ac8fcadcac7a98787878760405161220e9493929190613333565b60405180910390a260006122228888611f02565b9050600060208701905061223a826000895184612780565b600061224585611d66565b11156122c95760006122578a8a612667565b878155905060208601915060008060005b61227188611d66565b8160ff1610156122c4576122868d8d83611db6565b92506122a18a8260ff166028026038011c64ffffffffff1690565b91506122b08360008488612780565b6122ba8286612f0d565b9450600101612268565b505050505b60005b83518110156119de5760008482815181106122e9576122e9612f42565b602002602001015190506123156002826affffffffffffffffffffff191661276290919063ffffffff16565b15612397576040517f5b28cdaf000000000000000000000000000000000000000000000000000000008152606082901c90635b28cdaf90612364908e908e908e908e908e908e90600401613372565b600060405180830381600087803b15801561237e57600080fd5b505af1158015612392573d6000803e3d6000fd5b505050505b506001016122cc565b7f6f74000000000000000000000000000000000000000000000000000000000000847fffff000000000000000000000000000000000000000000000000000000000000160361242a57837f8c0b5119d4cec7b284c6b1b39252a03d1e2f2d7451a5895562524c113bb952be84848460405161241d939291906133cb565b60405180910390a2611203565b60006124368585611f02565b90506000612443866126d9565b905060005b815181101561251857600082828151811061246557612465612f42565b602002602001015190506124916004826affffffffffffffffffffff191661276290919063ffffffff16565b1561250f576040517f964f667d000000000000000000000000000000000000000000000000000000008152606082901c9063964f667d906124dc908b908b908b908b906004016133fe565b600060405180830381600087803b1580156124f657600080fd5b505af115801561250a573d6000803e3d6000fd5b505050505b50600101612448565b50857f8c0b5119d4cec7b284c6b1b39252a03d1e2f2d7451a5895562524c113bb952be86868660405161254d939291906133cb565b60405180910390a2612568828565ffffffffffff168561283f565b60005b815181101561263b57600082828151811061258857612588612f42565b602002602001015190506125b46008826affffffffffffffffffffff191661276290919063ffffffff16565b15612632576040517fa8ba8721000000000000000000000000000000000000000000000000000000008152606082901c9063a8ba8721906125ff908b908b908b908b906004016133fe565b600060405180830381600087803b15801561261957600080fd5b505af115801561262d573d6000803e3d6000fd5b505050505b5060010161256b565b50505050505050565b60405160208101601f19603f8484010116604052828252611f8985858584611e36565b6000828260405160200161267c9291906132e1565b60408051601f1981840301815291905280516020909101207f14e2fcc58e58e68ec7edc30c8d50dccc3ce2714a623ec81f46b6a63922d76569189392505050565b6040805160208101849052908101829052600090606001611f17565b6040805160018082528183019092526060916000919060208083019080368337019050509050828160008151811061271357612713612f42565b6020908102919091010152600061274b7f746273746f726500000000000000000053746f7265486f6f6b730000000000008383612855565b9050610da561275d826000845161288f565b61291d565b60008160ff16826127738560581c90565b1660ff1614905092915050565b82156127fa57602083106127aa576020830484019350602083816127a6576127a661331d565b0692505b82156127fa5760208390036000600019600885021c1990506008850281811c91508351811c90508119875416828216178755508184116127eb575050611203565b50600194909401939182900391015b5b6020821061281c5780518455600190930192601f19909101906020016127fb565b8115611203576000600019600884021c8554835182191691161785555050505050565b611380838383516128508560200190565b612780565b6060610da5612865858585611db6565b600061288a856128758989611da3565b9060ff166028026038011c64ffffffffff1690565b612644565b60008183118061289f5750835182115b156128dc578383836040517f23230fa300000000000000000000000000000000000000000000000000000000815260040161038c93929190613437565b602084016128ea8482612f0d565b905060006128f885856132b7565b6fffffffffffffffffffffffffffffffff1660809290921b9190911795945050505050565b60606000610a1a8360156000606060006129378560801c90565b90506fffffffffffffffffffffffffffffffff8516600085828161295d5761295d61331d565b04905060405193506020840160208202810160405281855260005b82811015610f1b578451871c825293870193602090910190600101612978565b6000602082840312156129aa57600080fd5b81357fffffffff0000000000000000000000000000000000000000000000000000000081168114610a1a57600080fd5b6000602082840312156129ec57600080fd5b5035919050565b634e487b7160e01b600052602160045260246000fd5b6020810160038310612a1d57612a1d6129f3565b91905290565b634e487b7160e01b600052604160045260246000fd5b6040516080810167ffffffffffffffff81118282101715612a5c57612a5c612a23565b60405290565b604051601f8201601f1916810167ffffffffffffffff81118282101715612a8b57612a8b612a23565b604052919050565b80356004811061044c57600080fd5b80356001600160a01b038116811461044c57600080fd5b600060a08284031215612acb57600080fd5b60405160a0810181811067ffffffffffffffff82111715612aee57612aee612a23565b604052905080612afd83612a93565b8152612b0b60208401612aa2565b60208201526040830135604082015260608301356060820152612b3060808401612aa2565b60808201525092915050565b600067ffffffffffffffff821115612b5657612b56612a23565b50601f01601f191660200190565b600082601f830112612b7557600080fd5b8135612b88612b8382612b3c565b612a62565b818152846020838601011115612b9d57600080fd5b816020850160208301376000918101602001919091529392505050565b600060208284031215612bcc57600080fd5b813567ffffffffffffffff80821115612be457600080fd5b90830190818503610160811215612bfa57600080fd5b612c02612a39565b6080821215612c1057600080fd5b612c18612a39565b9150612c2384612a93565b8252612c3160208501612aa2565b60208301526040840135604083015260608401356060830152818152612c5a8760808601612ab9565b6020820152610120840135915082821115612c7457600080fd5b612c8087838601612b64565b6040820152612c926101408501612aa2565b60608201529695505050505050565b600082601f830112612cb257600080fd5b8135602067ffffffffffffffff821115612cce57612cce612a23565b8160051b612cdd828201612a62565b9283528481018201928281019087851115612cf757600080fd5b83870192505b84831015612d1657823582529183019190830190612cfd565b979650505050505050565b600080600080600060a08688031215612d3957600080fd5b612d4286612aa2565b9450612d5060208701612aa2565b9350604086013567ffffffffffffffff80821115612d6d57600080fd5b612d7989838a01612ca1565b94506060880135915080821115612d8f57600080fd5b612d9b89838a01612ca1565b93506080880135915080821115612db157600080fd5b50612dbe88828901612b64565b9150509295509295909350565b60048110612ddb57612ddb6129f3565b9052565b612dea828251612dcb565b6001600160a01b03602082015116602083015260408101516040830152606081015160608301525050565b608081016102ee8284612ddf565b600060208284031215612e3557600080fd5b610a1a82612aa2565b600080600080600060a08688031215612e5657600080fd5b612e5f86612aa2565b9450612e6d60208701612aa2565b93506040860135925060608601359150608086013567ffffffffffffffff811115612e9757600080fd5b612dbe88828901612b64565b612eae828251612dcb565b60208101516001600160a01b038082166020850152604083015160408501526060830151606085015280608084015116608085015250505050565b60a081016102ee8284612ea3565b634e487b7160e01b600052601160045260246000fd5b808201808211156102ee576102ee612ef7565b8381526101408101612f356020830185612ddf565b610da560a0830184612ea3565b634e487b7160e01b600052603260045260246000fd5b600060208284031215612f6a57600080fd5b5051919050565b600060208284031215612f8357600080fd5b81518015158114610a1a57600080fd5b60008151808452602080850194506020840160005b83811015612fc457815187529582019590820190600101612fa8565b509495945050505050565b838152606060208201526000612fe86060830185612f93565b9050826040830152949350505050565b60005b83811015613013578181015183820152602001612ffb565b50506000910152565b600082601f83011261302d57600080fd5b815161303b612b8382612b3c565b81815284602083860101111561305057600080fd5b610da5826020830160208701612ff8565b60008060006060848603121561307657600080fd5b835167ffffffffffffffff8082111561308e57600080fd5b61309a8783880161301c565b94506020860151935060408601519150808211156130b757600080fd5b506130c48682870161301c565b9150509250925092565b8481526080602082015260006130e76080830186612f93565b60ff949094166040830152506060015292915050565b6bffffffffffffffffffffffff198460601b16815282601482015260006003831061312a5761312a6129f3565b5060f89190911b603482015260350192915050565b60008151808452613157816020860160208601612ff8565b601f01601f19169290920160200192915050565b85815260a06020820152600061318460a0830187612f93565b8281036040840152613196818761313f565b905084606084015282810360808401526131b0818561313f565b98975050505050505050565b85815260a0602082015260006131d560a0830187612f93565b60ff8616604084015282810360608401526131f0818661313f565b9150508260808301529695505050505050565b60048110613213576132136129f3565b60f81b9052565b6132248186613203565b60609390931b6bffffffffffffffffffffffff1916600184015260158301919091526035820152605501919050565b61325d8187613203565b6bffffffffffffffffffffffff19606095861b811660018301526015820194909452603581019290925290921b166055820152606901919050565b600060ff821660ff81036132ae576132ae612ef7565b60010192915050565b818103818111156102ee576102ee612ef7565b80820281158282048414176102ee576102ee612ef7565b8281526000602080830184516020860160005b82811015613310578151845292840192908401906001016132f4565b5091979650505050505050565b634e487b7160e01b600052601260045260246000fd5b6080815260006133466080830187612f93565b8281036020840152613358818761313f565b90508460408401528281036060840152612d16818561313f565b86815260c06020820152600061338b60c0830188612f93565b828103604084015261339d818861313f565b905085606084015282810360808401526133b7818661313f565b9150508260a0830152979650505050505050565b6060815260006133de6060830186612f93565b65ffffffffffff851660208401528281036040840152610c26818561313f565b8481526080602082015260006134176080830186612f93565b65ffffffffffff851660408401528281036060840152612d16818561313f565b60608152600061344a606083018661313f565b6020830194909452506040015291905056fea2646970667358221220ae48b30a16b6c9e3e83d6fa53951116b80a7a041bae8ce8aeccd1088cbbdecf064736f6c63430008180033","linkReferences":{}},"methodIdentifiers":{"_msgSender()":"119df25f","_msgValue()":"45ec9354","_world()":"e1af802c","cancelOrder(bytes32)":"7489ec23","createOrder(((uint8,address,uint256,uint256),(uint8,address,uint256,uint256,address),bytes,address))":"78885da7","fulfillOrder(bytes32)":"26e5dc5d","getConsideration(bytes32)":"f8b48037","getCounter(address)":"f07ec373","getOffer(bytes32)":"d597b8c8","getOrderHash(((uint8,address,uint256,uint256),(uint8,address,uint256,uint256,address),bytes,address))":"dd5c51a7","getOrderStatus(bytes32)":"46423aa7","incrementCounter(address)":"e5910ae7","marketplaceAddress()":"daa17f49","onERC1155BatchReceived(address,address,uint256[],uint256[],bytes)":"bc197c81","onERC1155Received(address,address,uint256,uint256,bytes)":"f23a6e61","supportsInterface(bytes4)":"01ffc9a7"},"id":281}