{"abi":[{"type":"function","name":"_msgSender","inputs":[],"outputs":[{"name":"sender","type":"address","internalType":"address"}],"stateMutability":"view"},{"type":"function","name":"_msgValue","inputs":[],"outputs":[{"name":"value","type":"uint256","internalType":"uint256"}],"stateMutability":"pure"},{"type":"function","name":"_world","inputs":[],"outputs":[{"name":"","type":"address","internalType":"address"}],"stateMutability":"view"},{"type":"function","name":"cancelOrder","inputs":[{"name":"_orderHash","type":"bytes32","internalType":"bytes32"}],"outputs":[{"name":"","type":"bool","internalType":"bool"}],"stateMutability":"nonpayable"},{"type":"function","name":"createOrder","inputs":[{"name":"order","type":"tuple","internalType":"struct Order","components":[{"name":"offer","type":"tuple","internalType":"struct Offer","components":[{"name":"tokenType","type":"uint8","internalType":"enum TokenType"},{"name":"token","type":"address","internalType":"address"},{"name":"identifier","type":"uint256","internalType":"uint256"},{"name":"amount","type":"uint256","internalType":"uint256"}]},{"name":"consideration","type":"tuple","internalType":"struct Consideration","components":[{"name":"tokenType","type":"uint8","internalType":"enum TokenType"},{"name":"token","type":"address","internalType":"address"},{"name":"identifier","type":"uint256","internalType":"uint256"},{"name":"amount","type":"uint256","internalType":"uint256"},{"name":"recipient","type":"address","internalType":"address"}]},{"name":"signature","type":"bytes","internalType":"bytes"},{"name":"offerer","type":"address","internalType":"address"}]}],"outputs":[{"name":"_orderHash","type":"bytes32","internalType":"bytes32"}],"stateMutability":"nonpayable"},{"type":"function","name":"fulfillOrder","inputs":[{"name":"orderHash","type":"bytes32","internalType":"bytes32"}],"outputs":[{"name":"fulfilled","type":"bool","internalType":"bool"}],"stateMutability":"nonpayable"},{"type":"function","name":"getConsideration","inputs":[{"name":"orderHash","type":"bytes32","internalType":"bytes32"}],"outputs":[{"name":"consideration","type":"tuple","internalType":"struct ConsiderationsData","components":[{"name":"tokenType","type":"uint8","internalType":"enum TokenType"},{"name":"token","type":"address","internalType":"address"},{"name":"identifier","type":"uint256","internalType":"uint256"},{"name":"amount","type":"uint256","internalType":"uint256"},{"name":"recipient","type":"address","internalType":"address"}]}],"stateMutability":"view"},{"type":"function","name":"getCounter","inputs":[{"name":"offerer","type":"address","internalType":"address"}],"outputs":[{"name":"","type":"uint256","internalType":"uint256"}],"stateMutability":"view"},{"type":"function","name":"getOffer","inputs":[{"name":"orderHash","type":"bytes32","internalType":"bytes32"}],"outputs":[{"name":"offer","type":"tuple","internalType":"struct OffersData","components":[{"name":"tokenType","type":"uint8","internalType":"enum TokenType"},{"name":"token","type":"address","internalType":"address"},{"name":"identifier","type":"uint256","internalType":"uint256"},{"name":"amount","type":"uint256","internalType":"uint256"}]}],"stateMutability":"view"},{"type":"function","name":"getOrderHash","inputs":[{"name":"order","type":"tuple","internalType":"struct Order","components":[{"name":"offer","type":"tuple","internalType":"struct Offer","components":[{"name":"tokenType","type":"uint8","internalType":"enum TokenType"},{"name":"token","type":"address","internalType":"address"},{"name":"identifier","type":"uint256","internalType":"uint256"},{"name":"amount","type":"uint256","internalType":"uint256"}]},{"name":"consideration","type":"tuple","internalType":"struct Consideration","components":[{"name":"tokenType","type":"uint8","internalType":"enum TokenType"},{"name":"token","type":"address","internalType":"address"},{"name":"identifier","type":"uint256","internalType":"uint256"},{"name":"amount","type":"uint256","internalType":"uint256"},{"name":"recipient","type":"address","internalType":"address"}]},{"name":"signature","type":"bytes","internalType":"bytes"},{"name":"offerer","type":"address","internalType":"address"}]}],"outputs":[{"name":"orderHash","type":"bytes32","internalType":"bytes32"}],"stateMutability":"view"},{"type":"function","name":"getOrderStatus","inputs":[{"name":"orderHash","type":"bytes32","internalType":"bytes32"}],"outputs":[{"name":"orderStatus","type":"uint8","internalType":"enum OrderStatus"}],"stateMutability":"view"},{"type":"function","name":"incrementCounter","inputs":[{"name":"offerer","type":"address","internalType":"address"}],"outputs":[{"name":"","type":"uint256","internalType":"uint256"}],"stateMutability":"nonpayable"},{"type":"function","name":"marketplaceAddress","inputs":[],"outputs":[{"name":"","type":"address","internalType":"address"}],"stateMutability":"view"},{"type":"function","name":"supportsInterface","inputs":[{"name":"interfaceId","type":"bytes4","internalType":"bytes4"}],"outputs":[{"name":"","type":"bool","internalType":"bool"}],"stateMutability":"pure"},{"type":"event","name":"Store_SetRecord","inputs":[{"name":"tableId","type":"bytes32","indexed":true,"internalType":"ResourceId"},{"name":"keyTuple","type":"bytes32[]","indexed":false,"internalType":"bytes32[]"},{"name":"staticData","type":"bytes","indexed":false,"internalType":"bytes"},{"name":"encodedLengths","type":"bytes32","indexed":false,"internalType":"EncodedLengths"},{"name":"dynamicData","type":"bytes","indexed":false,"internalType":"bytes"}],"anonymous":false},{"type":"event","name":"Store_SpliceStaticData","inputs":[{"name":"tableId","type":"bytes32","indexed":true,"internalType":"ResourceId"},{"name":"keyTuple","type":"bytes32[]","indexed":false,"internalType":"bytes32[]"},{"name":"start","type":"uint48","indexed":false,"internalType":"uint48"},{"name":"data","type":"bytes","indexed":false,"internalType":"bytes"}],"anonymous":false},{"type":"error","name":"ReentrancyGuardReentrantCall","inputs":[]},{"type":"error","name":"Slice_OutOfBounds","inputs":[{"name":"data","type":"bytes","internalType":"bytes"},{"name":"start","type":"uint256","internalType":"uint256"},{"name":"end","type":"uint256","internalType":"uint256"}]}],"bytecode":{"object":"0x608060405234801561001057600080fd5b5060016000556133f5806100256000396000f3fe608060405234801561001057600080fd5b50600436106100ea5760003560e01c8063d597b8c81161008c578063e1af802c11610066578063e1af802c146101de578063e5910ae7146101e6578063f07ec373146101f9578063f8b480371461020c57600080fd5b8063d597b8c8146101a5578063daa17f49146101c5578063dd5c51a7146101cb57600080fd5b806345ec9354116100c857806345ec93541461014a57806346423aa71461015f5780637489ec231461017f57806378885da71461019257600080fd5b806301ffc9a7146100ef578063119df25f1461011757806326e5dc5d14610137575b600080fd5b6101026100fd366004612a7f565b61022c565b60405190151581526020015b60405180910390f35b61011f6102c5565b6040516001600160a01b03909116815260200161010e565b610102610145366004612ac1565b6102d4565b36601f1901355b60405190815260200161010e565b61017261016d366004612ac1565b610424565b60405161010e9190612af0565b61010261018d366004612ac1565b61042f565b6101516101a0366004612ca1565b610501565b6101b86101b3366004612ac1565b610921565b60405161010e9190612dd2565b3061011f565b6101516101d9366004612ca1565b61094e565b61011f610991565b6101516101f4366004612de0565b61099b565b610151610207366004612de0565b6109e8565b61021f61021a366004612ac1565b6109fd565b60405161010e9190612e41565b60007fffffffff0000000000000000000000000000000000000000000000000000000082167fb5dee1270000000000000000000000000000000000000000000000000000000014806102bf57507fffffffff0000000000000000000000000000000000000000000000000000000082167f01ffc9a700000000000000000000000000000000000000000000000000000000145b92915050565b60006102cf610a31565b905090565b60006102de610a63565b60006102e983610aa6565b905060006102f684610b74565b9050600161030385610c3f565b600281111561031457610314612ada565b146103665760405162461bcd60e51b815260206004820152601360248201527f4f72646572206973206e6f74206163746976650000000000000000000000000060448201526064015b60405180910390fd5b806060015161037e8560006103796102c5565b610cf1565b10156103cc5760405162461bcd60e51b815260206004820152601460248201527f496e73756666696369656e742062616c616e6365000000000000000000000000604482015260640161035d565b6103e484600083608001516103df6102c5565b610e6b565b6103fa8460016103f26102c5565b6103df61114d565b61040f846104066102c5565b60006002611180565b60019250505061041f6001600055565b919050565b60006102bf82610c3f565b6000610439610a63565b600161044483610424565b600281111561045557610455612ada565b146104a25760405162461bcd60e51b815260206004820152601360248201527f4f72646572206973206e6f742061637469766500000000000000000000000000604482015260640161035d565b60006104ad836109fd565b905080608001516001600160a01b03166104c56102c5565b6001600160a01b0316146104d857600080fd5b6104e383600061120e565b6104f683600183608001516103df61114d565b5061041f6001600055565b600061050b610a63565b6105136102c5565b6001600160a01b031682606001516001600160a01b03161461059d5760405162461bcd60e51b815260206004820152602560248201527f596f752063616e6e6f74206f6666657220736f6d656f6e6520656c736527732060448201527f6974656d73000000000000000000000000000000000000000000000000000000606482015260840161035d565b6105a56102c5565b6001600160a01b03168260200151608001516001600160a01b0316146106335760405162461bcd60e51b815260206004820152602c60248201527f596f752063616e6e6f7420707572636861736520616e206974656d20666f722060448201527f736f6d656f6e6520656c73650000000000000000000000000000000000000000606482015260840161035d565b60006040518060800160405280846000015160000151600381111561065a5761065a612ada565b81526020018460000151602001516001600160a01b031681526020018460000151604001518152602001846000015160600151815250905060006040518060a0016040528085602001516000015160038111156106b9576106b9612ada565b81526020018560200151602001516001600160a01b03168152602001856020015160400151815260200185602001516060015181526020018560200151608001516001600160a01b031681525090506001600381111561071b5761071b612ada565b845151600381111561072f5761072f612ada565b148061074e57506003845151600381111561074c5761074c612ada565b145b61079a5760405162461bcd60e51b815260206004820152601260248201527f546f6b656e206e6f742061636365707465640000000000000000000000000000604482015260640161035d565b600160208501515160038111156107b3576107b3612ada565b14806107d55750600360208501515160038111156107d3576107d3612ada565b145b6108215760405162461bcd60e51b815260206004820152601260248201527f546f6b656e206e6f742061636365707465640000000000000000000000000000604482015260640161035d565b602084015151600381111561083857610838612ada565b845151600381111561084c5761084c612ada565b036108995760405162461bcd60e51b815260206004820152601260248201527f43616e6e6f742063726f73732074726164650000000000000000000000000000604482015260640161035d565b60006108aa856060015160006112fc565b6108b5906001612e65565b90506108cb8560200151608001516000836113c5565b6108d48561094e565b93506108e084846114a7565b6108ea8483611544565b6109028460016108f861114d565b8860600151610e6b565b61091484866060015160006001611180565b50505061041f6001600055565b6040805160808101825260008082526020820181905291810182905260608101919091526102bf82610aa6565b600061095d82606001516109e8565b825160208085015160405161097494939201612e78565b604051602081830303815290604052805190602001209050919050565b60006102cf6115de565b6000816001600160a01b03166109af6102c5565b6001600160a01b0316146109c257600080fd5b60006109cf8360006112fc565b6109da906001612e65565b90506102bf836000836113c5565b6000806109f68360006112fc565b9392505050565b6040805160a0810182526000808252602082018190529181018290526060810182905260808101919091526102bf82610b74565b7fffffffffffffffffffffffffffffffffffffffffffffffffffffffffffffffcc36013560601c80610a605750335b90565b600260005403610a9f576040517f3ee5aeb500000000000000000000000000000000000000000000000000000000815260040160405180910390fd5b6002600055565b604080516080810182526000808252602082018190529181018290526060810191909152604080516001808252818301909252600091602080830190803683370190505090508281600081518110610b0057610b00612e9a565b602090810291909101015260008080610b597f746255440000000000000000000000004f666665727300000000000000000000857e550400011420200000000000000000000000000000000000000000000000006115e8565b925092509250610b6a8383836116b8565b9695505050505050565b6040805160a081018252600080825260208201819052918101829052606081018290526080810191909152604080516001808252818301909252600091602080830190803683370190505090508281600081518110610bd557610bd5612e9a565b602090810291909101015260008080610c2e7f74625544000000000000000000000000436f6e73696465726174696f6e730000857e690500011420201400000000000000000000000000000000000000000000006115e8565b925092509250610b6a838383611734565b604080516001808252818301909252600091829190602080830190803683370190505090508281600081518110610c7857610c78612e9a565b60209081029190910101526000610cd17f746255440000000000000000000000004f7264657273000000000000000000008360027e350300142001000000000000000000000000000000000000000000000000006117c0565b905060f881901c6002811115610ce957610ce9612ada565b949350505050565b600080610cfd85610b74565b90506000610d0a86610aa6565b9050600085610d1a578251610d1d565b81515b9050600086610d30578360200151610d36565b82602001515b9050600087610d49578460400151610d4f565b83604001515b90506001836003811115610d6557610d65612ada565b03610dfa576040517f70a082310000000000000000000000000000000000000000000000000000000081526001600160a01b0388811660048301528316906370a08231906024015b602060405180830381865afa158015610dca573d6000803e3d6000fd5b505050506040513d601f19601f82011682018060405250810190610dee9190612eb0565b955050505050506109f6565b6003836003811115610e0e57610e0e612ada565b03610e5f576040517efdd58e0000000000000000000000000000000000000000000000000000000081526001600160a01b0388811660048301526024820183905283169062fdd58e90604401610dad565b50505050509392505050565b6000610e7685610b74565b90506000610e8386610aa6565b9050600085610e96578260600151610e9c565b81606001515b9050600086610eac578351610eaf565b82515b9050600087610ec2578460400151610ec8565b83604001515b90506001600160a01b0386163014600089610ee7578660200151610eed565b85602001515b90506001846003811115610f0357610f03612ada565b03611042578115610fa0576040517fa9059cbb0000000000000000000000000000000000000000000000000000000081526001600160a01b038a811660048301526024820187905282169063a9059cbb906044016020604051808303816000875af1158015610f76573d6000803e3d6000fd5b505050506040513d601f19601f82011682018060405250810190610f9a9190612ec9565b50611036565b6040517f23b872dd0000000000000000000000000000000000000000000000000000000081526001600160a01b0389811660048301528a81166024830152604482018790528216906323b872dd906064016020604051808303816000875af1158015611010573d6000803e3d6000fd5b505050506040513d601f19601f820116820180604052508101906110349190612ec9565b505b50505050505050611147565b600384600381111561105657611056612ada565b036110ff576040517ff242432a0000000000000000000000000000000000000000000000000000000081526001600160a01b0389811660048301528a81166024830152604482018590526064820187905260a06084830152600060a483015282169063f242432a9060c401600060405180830381600087803b1580156110db57600080fd5b505af11580156110ef573d6000803e3d6000fd5b5050505050505050505050611147565b60405162461bcd60e51b815260206004820152601b60248201527f546f6b656e2074797065206973206e6f7420737570706f727465640000000000604482015260640161035d565b50505050565b60006102cf61117b7f554400000000000000000000000000000000000000000000000000000000000061187d565b6118ca565b600061118d848484611966565b6040805160018082528183019092529192506000916060918391906020808301908036833701905050905087816000815181106111cc576111cc612e9a565b60209081029190910101526112047f746255440000000000000000000000004f72646572730000000000000000000082868686611995565b5050505050505050565b60408051600180825281830190925260009160208083019080368337019050509050828160008151811061124457611244612e9a565b60209081029190910101526112f77f746255440000000000000000000000004f726465727300000000000000000000826002858181111561128757611287612ada565b6040516020016112c2919060f89190911b7fff0000000000000000000000000000000000000000000000000000000000000016815260010190565b60408051601f198184030181529190527e35030014200100000000000000000000000000000000000000000000000000611a4a565b505050565b60408051600280825260608201835260009283929190602083019080368337019050509050836001600160a01b031660001b8160008151811061134157611341612e9a565b6020026020010181815250508260001b8160018151811061136457611364612e9a565b602090810291909101015260006113bc7f74625544000000000000000000000000436f756e74657273000000000000000083837e200100200000000000000000000000000000000000000000000000000000006117c0565b95945050505050565b604080516002808252606082018352600092602083019080368337019050509050836001600160a01b031660001b8160008151811061140657611406612e9a565b6020026020010181815250508260001b8160018151811061142957611429612e9a565b6020026020010181815250506111477f74625544000000000000000000000000436f756e74657273000000000000000060001b8260008560405160200161147291815260200190565b60408051601f198184030181529190527e20010020000000000000000000000000000000000000000000000000000000611a4a565b60006114c58260000151836020015184604001518560600151611ac0565b60408051600180825281830190925291925060009160609183919060208083019080368337019050509050858160008151811061150457611504612e9a565b602090810291909101015261153c7f746255440000000000000000000000004f66666572730000000000000000000082868686611995565b505050505050565b600061156782600001518360200151846040015185606001518660800151611af2565b6040805160018082528183019092529192506000916060918391906020808301908036833701905050905085816000815181106115a6576115a6612e9a565b602090810291909101015261153c7f74625544000000000000000000000000436f6e73696465726174696f6e73000082868686611995565b60006102cf611b27565b60606000606060006115f8611b27565b9050306001600160a01b0382160361162157611615878787611b61565b935093509350506116af565b6040517f419b58fd0000000000000000000000000000000000000000000000000000000081526001600160a01b0382169063419b58fd9061166a908a908a908a90600401612f27565b600060405180830381865afa158015611687573d6000803e3d6000fd5b505050506040513d6000823e601f3d908101601f191682016040526116159190810190612fb9565b93509350939050565b6040805160808101825260008082526020820181905291810182905260608101919091526116e584611c69565b60608501819052604085018290526001600160a01b03831660208601528484600381111561171557611715612ada565b600381111561172657611726612ada565b815250505050509392505050565b6040805160a08101825260008082526020820181905291810182905260608101829052608081019190915261176884611cb4565b6001600160a01b038082166080880152606087018390526040870184905284166020870152858560038111156117a0576117a0612ada565b60038111156117b1576117b1612ada565b81525050505050509392505050565b6000806117cb611b27565b9050306001600160a01b038216036117f1576117e986868686611d0b565b915050610ce9565b6040517f8c364d590000000000000000000000000000000000000000000000000000000081526001600160a01b03821690638c364d599061183c908990899089908990600401613026565b602060405180830381865afa158015611859573d6000803e3d6000fd5b505050506040513d601f19601f820116820180604052508101906117e99190612eb0565b60006102bf7f7379000000000000000000000000000000000000000000000000000000000000837f4c6f6f744d616e61676572537973746500000000000000000000000000000000611d38565b60408051600180825281830190925260009182919060208083019080368337019050509050828160008151811061190357611903612e9a565b6020908102919091010152600061195b7f7462776f726c6400000000000000000053797374656d7300000000000000000083837e150200140100000000000000000000000000000000000000000000000000006117c0565b60601c949350505050565b606083838360405160200161197d93929190613055565b60405160208183030381529060405290509392505050565b600061199f611b27565b9050306001600160a01b038216036119c3576119be8686868686611dbf565b61153c565b6040517f298314fb0000000000000000000000000000000000000000000000000000000081526001600160a01b0382169063298314fb90611a1090899089908990899089906004016130c3565b600060405180830381600087803b158015611a2a57600080fd5b505af1158015611a3e573d6000803e3d6000fd5b50505050505050505050565b6000611a54611b27565b9050306001600160a01b03821603611a73576119be8686868686611ddc565b6040517f390baae00000000000000000000000000000000000000000000000000000000081526001600160a01b0382169063390baae090611a109089908990899089908990600401613114565b606084848484604051602001611ad99493929190613172565b6040516020818303038152906040529050949350505050565b60608585858585604051602001611b0d9594939291906131ab565b604051602081830303815290604052905095945050505050565b7f629a4c26e296b22a8e0856e9f6ecb2d1008d7e00081111962cd175fa7488e175546000906001600160a01b03168061041f573391505090565b6060600060606000611b7285611df1565b9050611b7f878783611e14565b93506000611b8c86611e4d565b90508015611c5e57611b9e8888611e8a565b935066ffffffffffffff841667ffffffffffffffff811115611bc257611bc2612b0a565b6040519080825280601f01601f191660200182016040528015611bec576020820181803683370190505b5092506020830160005b828160ff161015611c5b576000611c0e8b8b84611e9d565b90506000611c2b888460ff166028026038011c64ffffffffff1690565b9050611c3a8260008387611f1d565b611c448185612e65565b935050508080611c53906131f0565b915050611bf6565b50505b505093509350939050565b600080600080611c7d856000016020015190565b60f81c6003811115611c9157611c91612ada565b60218601516035870151605590970151919760609190911c969550909350915050565b6000806000806000611cca866000016020015190565b60f81c6003811115611cde57611cde612ada565b6021870151603588015160558901516075909901519299606092831c9991985090965091901c9350915050565b60006113bc611d1a8686611fe9565b60ff858116601b0360080285901c16611d33858761203f565b612078565b6000611d4660706010612e65565b7fffff00000000000000000000000000000000000000000000000000000000000085167dffffffffffffffffffffffffffff00000000000000000000000000000000601086901c16177fffffffffffffffffffffffffffffffff00000000000000000000000000000000841690911c1790509392505050565b611dd58585858585611dd08b6120c9565b61214e565b5050505050565b611dd58585611deb848761203f565b85612487565b60006008611e016002602061320f565b611e0b9190613222565b9190911c919050565b606081600003611e3357506040805160208101909152600081526109f6565b6000611e3f8585611fe9565b90506113bc8160008561272b565b60006008600180611e606002602061320f565b611e6a919061320f565b611e74919061320f565b611e7e9190613222565b8260ff911c1692915050565b60006109f6611e99848461274e565b5490565b60008383604051602001611eb2929190613239565b604051602081830303815290604052805190602001208260f81b7effffffffffffffffffffffffffffffffffffffffffffffffffffffffffffff19167f3b4102da22e32d82fc925482184f16c09fd4281692720b87d124aef6da48a0f1181860001c90509392505050565b8215611fa45760208310611f4757602083048401935060208381611f4357611f43613275565b0692505b8215611fa4576020839003600081841015611f6a5750600019600884021c611f74565b50600019600882021c5b8554600886021b818451168219821617845250818411611f95575050611147565b50600194909401939182900391015b5b60208210611fc65783548152600190930192601f1990910190602001611fa5565b8115611147576000600019600884021c8251865482191691161782525050505050565b60008282604051602001611ffe929190613239565b60408051601f1981840301815291905280516020909101207f86425bff6b57326c7859e89024fe4f238ca327a1ae4a230180dd2f0e88aaa7d9189392505050565b600080805b8360ff168110156120705761206660ff601b83900360080287901c1683612e65565b9150600101612044565b509392505050565b60006020821061209e5760208204840193506020828161209a5761209a613275565b0691505b508254600882021b602082900380841115612070576001850154600882021c82179150509392505050565b60007f8b9d8c8b908d9affffffffffffffffffab9e9d939a8d00000000000000000000820161211857507e60030220202000000000000000000000000000000000000000000000000000919050565b6102bf6121457f746273746f72650000000000000000005461626c657300000000000000000000846127a4565b60206000612078565b7f6f74000000000000000000000000000000000000000000000000000000000000867fffff00000000000000000000000000000000000000000000000000000000000016036121da57857f8dbb3a9672eebfd3773e72dd9c102393436816d832c7ba9e1e1ac8fcadcac7a9868686866040516121cd949392919061328b565b60405180910390a261153c565b60006121e5876127c0565b905060005b81518110156122be57600082828151811061220757612207612e9a565b602002602001015190506122336001826affffffffffffffffffffff191661284990919063ffffffff16565b156122b5576040517f57066c9c000000000000000000000000000000000000000000000000000000008152606082901c906357066c9c90612282908c908c908c908c908c908c906004016132d5565b600060405180830381600087803b15801561229c57600080fd5b505af11580156122b0573d6000803e3d6000fd5b505050505b506001016121ea565b50867f8dbb3a9672eebfd3773e72dd9c102393436816d832c7ba9e1e1ac8fcadcac7a9878787876040516122f5949392919061328b565b60405180910390a260006123098888611fe9565b90506000602087019050612321826000895184612867565b600061232c85611e4d565b11156123b057600061233e8a8a61274e565b878155905060208601915060008060005b61235888611e4d565b8160ff1610156123ab5761236d8d8d83611e9d565b92506123888a8260ff166028026038011c64ffffffffff1690565b91506123978360008488612867565b6123a18286612e65565b945060010161234f565b505050505b60005b8351811015611a3e5760008482815181106123d0576123d0612e9a565b602002602001015190506123fc6002826affffffffffffffffffffff191661284990919063ffffffff16565b1561247e576040517f5b28cdaf000000000000000000000000000000000000000000000000000000008152606082901c90635b28cdaf9061244b908e908e908e908e908e908e906004016132d5565b600060405180830381600087803b15801561246557600080fd5b505af1158015612479573d6000803e3d6000fd5b505050505b506001016123b3565b7f6f74000000000000000000000000000000000000000000000000000000000000847fffff000000000000000000000000000000000000000000000000000000000000160361251157837f8c0b5119d4cec7b284c6b1b39252a03d1e2f2d7451a5895562524c113bb952be8484846040516125049392919061332e565b60405180910390a2611147565b600061251d8585611fe9565b9050600061252a866127c0565b905060005b81518110156125ff57600082828151811061254c5761254c612e9a565b602002602001015190506125786004826affffffffffffffffffffff191661284990919063ffffffff16565b156125f6576040517f964f667d000000000000000000000000000000000000000000000000000000008152606082901c9063964f667d906125c3908b908b908b908b90600401613361565b600060405180830381600087803b1580156125dd57600080fd5b505af11580156125f1573d6000803e3d6000fd5b505050505b5060010161252f565b50857f8c0b5119d4cec7b284c6b1b39252a03d1e2f2d7451a5895562524c113bb952be8686866040516126349392919061332e565b60405180910390a261264f828565ffffffffffff1685612926565b60005b815181101561272257600082828151811061266f5761266f612e9a565b6020026020010151905061269b6008826affffffffffffffffffffff191661284990919063ffffffff16565b15612719576040517fa8ba8721000000000000000000000000000000000000000000000000000000008152606082901c9063a8ba8721906126e6908b908b908b908b90600401613361565b600060405180830381600087803b15801561270057600080fd5b505af1158015612714573d6000803e3d6000fd5b505050505b50600101612652565b50505050505050565b60405160208101601f19603f848401011660405282825261207085858584611f1d565b60008282604051602001612763929190613239565b60408051601f1981840301815291905280516020909101207f14e2fcc58e58e68ec7edc30c8d50dccc3ce2714a623ec81f46b6a63922d76569189392505050565b6040805160208101849052908101829052600090606001611ffe565b604080516001808252818301909252606091600091906020808301908036833701905050905082816000815181106127fa576127fa612e9a565b602090810291909101015260006128327f746273746f726500000000000000000053746f7265486f6f6b73000000000000838361293c565b9050610ce96128448260008451612976565b612a04565b60008160ff168261285a8560581c90565b1660ff1614905092915050565b82156128e157602083106128915760208304840193506020838161288d5761288d613275565b0692505b82156128e15760208390036000600019600885021c1990506008850281811c91508351811c90508119875416828216178755508184116128d2575050611147565b50600194909401939182900391015b5b602082106129035780518455600190930192601f19909101906020016128e2565b8115611147576000600019600884021c8554835182191691161785555050505050565b6112f7838383516129378560200190565b612867565b6060610ce961294c858585611e9d565b60006129718561295c8989611e8a565b9060ff166028026038011c64ffffffffff1690565b61272b565b6000818311806129865750835182115b156129c3578383836040517f23230fa300000000000000000000000000000000000000000000000000000000815260040161035d9392919061339a565b602084016129d18482612e65565b905060006129df858561320f565b6fffffffffffffffffffffffffffffffff1660809290921b9190911795945050505050565b606060006109f6836015600060606000612a1e8560801c90565b90506fffffffffffffffffffffffffffffffff85166000858281612a4457612a44613275565b04905060405193506020840160208202810160405281855260005b82811015610e5f578451871c825293870193602090910190600101612a5f565b600060208284031215612a9157600080fd5b81357fffffffff00000000000000000000000000000000000000000000000000000000811681146109f657600080fd5b600060208284031215612ad357600080fd5b5035919050565b634e487b7160e01b600052602160045260246000fd5b6020810160038310612b0457612b04612ada565b91905290565b634e487b7160e01b600052604160045260246000fd5b6040516080810167ffffffffffffffff81118282101715612b4357612b43612b0a565b60405290565b604051601f8201601f1916810167ffffffffffffffff81118282101715612b7257612b72612b0a565b604052919050565b80356004811061041f57600080fd5b80356001600160a01b038116811461041f57600080fd5b600060a08284031215612bb257600080fd5b60405160a0810181811067ffffffffffffffff82111715612bd557612bd5612b0a565b604052905080612be483612b7a565b8152612bf260208401612b89565b60208201526040830135604082015260608301356060820152612c1760808401612b89565b60808201525092915050565b600067ffffffffffffffff821115612c3d57612c3d612b0a565b50601f01601f191660200190565b600082601f830112612c5c57600080fd5b8135612c6f612c6a82612c23565b612b49565b818152846020838601011115612c8457600080fd5b816020850160208301376000918101602001919091529392505050565b600060208284031215612cb357600080fd5b813567ffffffffffffffff80821115612ccb57600080fd5b90830190818503610160811215612ce157600080fd5b612ce9612b20565b6080821215612cf757600080fd5b612cff612b20565b9150612d0a84612b7a565b8252612d1860208501612b89565b60208301526040840135604083015260608401356060830152818152612d418760808601612ba0565b6020820152610120840135915082821115612d5b57600080fd5b612d6787838601612c4b565b6040820152612d796101408501612b89565b60608201529695505050505050565b60048110612d9857612d98612ada565b9052565b612da7828251612d88565b6001600160a01b03602082015116602083015260408101516040830152606081015160608301525050565b608081016102bf8284612d9c565b600060208284031215612df257600080fd5b6109f682612b89565b612e06828251612d88565b60208101516001600160a01b038082166020850152604083015160408501526060830151606085015280608084015116608085015250505050565b60a081016102bf8284612dfb565b634e487b7160e01b600052601160045260246000fd5b808201808211156102bf576102bf612e4f565b8381526101408101612e8d6020830185612d9c565b610ce960a0830184612dfb565b634e487b7160e01b600052603260045260246000fd5b600060208284031215612ec257600080fd5b5051919050565b600060208284031215612edb57600080fd5b815180151581146109f657600080fd5b60008151808452602080850194506020840160005b83811015612f1c57815187529582019590820190600101612f00565b509495945050505050565b838152606060208201526000612f406060830185612eeb565b9050826040830152949350505050565b60005b83811015612f6b578181015183820152602001612f53565b50506000910152565b600082601f830112612f8557600080fd5b8151612f93612c6a82612c23565b818152846020838601011115612fa857600080fd5b610ce9826020830160208701612f50565b600080600060608486031215612fce57600080fd5b835167ffffffffffffffff80821115612fe657600080fd5b612ff287838801612f74565b945060208601519350604086015191508082111561300f57600080fd5b5061301c86828701612f74565b9150509250925092565b84815260806020820152600061303f6080830186612eeb565b60ff949094166040830152506060015292915050565b6bffffffffffffffffffffffff198460601b16815282601482015260006003831061308257613082612ada565b5060f89190911b603482015260350192915050565b600081518084526130af816020860160208601612f50565b601f01601f19169290920160200192915050565b85815260a0602082015260006130dc60a0830187612eeb565b82810360408401526130ee8187613097565b905084606084015282810360808401526131088185613097565b98975050505050505050565b85815260a06020820152600061312d60a0830187612eeb565b60ff8616604084015282810360608401526131488186613097565b9150508260808301529695505050505050565b6004811061316b5761316b612ada565b60f81b9052565b61317c818661315b565b60609390931b6bffffffffffffffffffffffff1916600184015260158301919091526035820152605501919050565b6131b5818761315b565b6bffffffffffffffffffffffff19606095861b811660018301526015820194909452603581019290925290921b166055820152606901919050565b600060ff821660ff810361320657613206612e4f565b60010192915050565b818103818111156102bf576102bf612e4f565b80820281158282048414176102bf576102bf612e4f565b8281526000602080830184516020860160005b828110156132685781518452928401929084019060010161324c565b5091979650505050505050565b634e487b7160e01b600052601260045260246000fd5b60808152600061329e6080830187612eeb565b82810360208401526132b08187613097565b905084604084015282810360608401526132ca8185613097565b979650505050505050565b86815260c0602082015260006132ee60c0830188612eeb565b82810360408401526133008188613097565b9050856060840152828103608084015261331a8186613097565b9150508260a0830152979650505050505050565b6060815260006133416060830186612eeb565b65ffffffffffff851660208401528281036040840152610b6a8185613097565b84815260806020820152600061337a6080830186612eeb565b65ffffffffffff8516604084015282810360608401526132ca8185613097565b6060815260006133ad6060830186613097565b6020830194909452506040015291905056fea26469706673582212202e7d09db59c1213980848477eb9335b545b11754cd6bc83b35a8cf9ac8a17e9364736f6c63430008180033","linkReferences":{}},"methodIdentifiers":{"_msgSender()":"119df25f","_msgValue()":"45ec9354","_world()":"e1af802c","cancelOrder(bytes32)":"7489ec23","createOrder(((uint8,address,uint256,uint256),(uint8,address,uint256,uint256,address),bytes,address))":"78885da7","fulfillOrder(bytes32)":"26e5dc5d","getConsideration(bytes32)":"f8b48037","getCounter(address)":"f07ec373","getOffer(bytes32)":"d597b8c8","getOrderHash(((uint8,address,uint256,uint256),(uint8,address,uint256,uint256,address),bytes,address))":"dd5c51a7","getOrderStatus(bytes32)":"46423aa7","incrementCounter(address)":"e5910ae7","marketplaceAddress()":"daa17f49","supportsInterface(bytes4)":"01ffc9a7"},"id":228}