{"abi":[{"type":"function","name":"trimBytes32Array","inputs":[{"name":"arrayToTrim","type":"bytes32[]","internalType":"bytes32[]"}],"outputs":[{"name":"trimmedArray","type":"bytes32[]","internalType":"bytes32[]"}],"stateMutability":"pure"},{"type":"function","name":"trimUint256Array","inputs":[{"name":"arrayToTrim","type":"uint256[]","internalType":"uint256[]"}],"outputs":[{"name":"trimmedArray","type":"uint256[]","internalType":"uint256[]"}],"stateMutability":"pure"}],"bytecode":{"object":"0x6080806040523461001a576103db908161001f823930815050f35b5f80fdfe60806040526004361015610011575f80fd5b5f3560e01c80630f90c65e146101c5576338643de21461002f575f80fd5b6020806003193601126101c1576004356001600160401b0381116101c157366023820112156101c157806004013561006e6100698261037a565b610341565b9160248484848152019260051b820101913683116101c1576024859201905b8382106101b2575f60608685835b82518110156100d0576100ae8184610391565b516100bc575b60010161009b565b936100c86001916103b9565b9490506100b4565b50928061011c575b505090604051918183928301818452825180915281604085019301915f5b82811061010557505050500390f35b8351855286955093810193928101926001016100f6565b90915061012b6100698261037a565b81815290601f1961013b8261037a565b0136858401375f82815b85518110156101a7576101588187610391565b51610181575b8383146101735761016e906103b9565b610145565b5050505090505b82806100d8565b916101a1906101908488610391565b5161019b8285610391565b526103b9565b9161015e565b50505050905061017a565b8135815290820190820161008d565b5f80fd5b6020806003193601126101c1576004356001600160401b0381116101c157366023820112156101c15780600401356101ff6100698261037a565b9160248484848152019260051b820101913683116101c1576024859201905b838210610332575f60608685835b82518110156102615761023f8184610391565b5161024d575b60010161022c565b936102596001916103b9565b949050610245565b5092806102ad575b505090604051918183928301818452825180915281604085019301915f5b82811061029657505050500390f35b835185528695509381019392810192600101610287565b9091506102bc6100698261037a565b81815290601f196102cc8261037a565b0136858401375f82815b8551811015610327576102e98187610391565b51610312575b838314610304576102ff906103b9565b6102d6565b5050505090505b8280610269565b91610321906101908488610391565b916102ef565b50505050905061030b565b8135815290820190820161021e565b6040519190601f01601f191682016001600160401b0381118382101761036657604052565b634e487b7160e01b5f52604160045260245ffd5b6001600160401b0381116103665760051b60200190565b80518210156103a55760209160051b010190565b634e487b7160e01b5f52603260045260245ffd5b5f1981146103c75760010190565b634e487b7160e01b5f52601160045260245ffd","linkReferences":{}},"methodIdentifiers":{"trimBytes32Array(bytes32[])":"38643de2","trimUint256Array(uint256[])":"0f90c65e"},"id":482}