{"abi":[{"type":"function","name":"_msgSender","inputs":[],"outputs":[{"name":"sender","type":"address","internalType":"address"}],"stateMutability":"view"},{"type":"function","name":"_msgValue","inputs":[],"outputs":[{"name":"value","type":"uint256","internalType":"uint256"}],"stateMutability":"view"},{"type":"function","name":"_world","inputs":[],"outputs":[{"name":"","type":"address","internalType":"address"}],"stateMutability":"view"},{"type":"function","name":"consumeItem","inputs":[{"name":"characterId","type":"bytes32","internalType":"bytes32"},{"name":"itemId","type":"uint256","internalType":"uint256"}],"outputs":[],"stateMutability":"nonpayable"},{"type":"function","name":"depositToEscrow","inputs":[{"name":"characterId","type":"bytes32","internalType":"bytes32"},{"name":"amount","type":"uint256","internalType":"uint256"}],"outputs":[{"name":"_balance","type":"uint256","internalType":"uint256"}],"stateMutability":"nonpayable"},{"type":"function","name":"dropGoldToEscrow","inputs":[{"name":"characterId","type":"bytes32","internalType":"bytes32"},{"name":"amount","type":"uint256","internalType":"uint256"}],"outputs":[],"stateMutability":"nonpayable"},{"type":"function","name":"dropGoldToPlayer","inputs":[{"name":"characterId","type":"bytes32","internalType":"bytes32"},{"name":"amount","type":"uint256","internalType":"uint256"}],"outputs":[],"stateMutability":"nonpayable"},{"type":"function","name":"dropItem","inputs":[{"name":"characterId","type":"bytes32","internalType":"bytes32"},{"name":"itemId","type":"uint256","internalType":"uint256"},{"name":"amount","type":"uint256","internalType":"uint256"}],"outputs":[],"stateMutability":"nonpayable"},{"type":"function","name":"dropItems","inputs":[{"name":"characterIds","type":"bytes32[]","internalType":"bytes32[]"},{"name":"itemIds","type":"uint256[]","internalType":"uint256[]"},{"name":"amounts","type":"uint256[]","internalType":"uint256[]"}],"outputs":[],"stateMutability":"nonpayable"},{"type":"function","name":"getEscrowBalance","inputs":[{"name":"characterId","type":"bytes32","internalType":"bytes32"}],"outputs":[{"name":"_balance","type":"uint256","internalType":"uint256"}],"stateMutability":"view"},{"type":"function","name":"increaseEscrowBalance","inputs":[{"name":"characterId","type":"bytes32","internalType":"bytes32"},{"name":"amount","type":"uint256","internalType":"uint256"}],"outputs":[{"name":"newBalance","type":"uint256","internalType":"uint256"}],"stateMutability":"nonpayable"},{"type":"function","name":"issueAdvancedClassItems","inputs":[{"name":"characterId","type":"bytes32","internalType":"bytes32"},{"name":"advancedClass","type":"uint8","internalType":"enum AdvancedClass"}],"outputs":[],"stateMutability":"nonpayable"},{"type":"function","name":"issueStarterItems","inputs":[{"name":"characterId","type":"bytes32","internalType":"bytes32"}],"outputs":[],"stateMutability":"nonpayable"},{"type":"function","name":"onERC1155BatchReceived","inputs":[{"name":"","type":"address","internalType":"address"},{"name":"","type":"address","internalType":"address"},{"name":"","type":"uint256[]","internalType":"uint256[]"},{"name":"","type":"uint256[]","internalType":"uint256[]"},{"name":"","type":"bytes","internalType":"bytes"}],"outputs":[{"name":"","type":"bytes4","internalType":"bytes4"}],"stateMutability":"nonpayable"},{"type":"function","name":"onERC1155Received","inputs":[{"name":"","type":"address","internalType":"address"},{"name":"","type":"address","internalType":"address"},{"name":"","type":"uint256","internalType":"uint256"},{"name":"","type":"uint256","internalType":"uint256"},{"name":"","type":"bytes","internalType":"bytes"}],"outputs":[{"name":"","type":"bytes4","internalType":"bytes4"}],"stateMutability":"nonpayable"},{"type":"function","name":"setGoldApproval","inputs":[{"name":"spender","type":"address","internalType":"address"},{"name":"value","type":"uint256","internalType":"uint256"}],"outputs":[],"stateMutability":"nonpayable"},{"type":"function","name":"setItemsApproval","inputs":[{"name":"spender","type":"address","internalType":"address"},{"name":"approval","type":"bool","internalType":"bool"}],"outputs":[],"stateMutability":"nonpayable"},{"type":"function","name":"supportsInterface","inputs":[{"name":"interfaceId","type":"bytes4","internalType":"bytes4"}],"outputs":[{"name":"","type":"bool","internalType":"bool"}],"stateMutability":"pure"},{"type":"function","name":"transferGold","inputs":[{"name":"player","type":"address","internalType":"address"},{"name":"amount","type":"uint256","internalType":"uint256"}],"outputs":[],"stateMutability":"nonpayable"},{"type":"function","name":"withdrawFromEscrow","inputs":[{"name":"characterId","type":"bytes32","internalType":"bytes32"},{"name":"amount","type":"uint256","internalType":"uint256"}],"outputs":[{"name":"_balance","type":"uint256","internalType":"uint256"}],"stateMutability":"nonpayable"},{"type":"event","name":"Store_SpliceStaticData","inputs":[{"name":"tableId","type":"bytes32","indexed":true,"internalType":"ResourceId"},{"name":"keyTuple","type":"bytes32[]","indexed":false,"internalType":"bytes32[]"},{"name":"start","type":"uint48","indexed":false,"internalType":"uint48"},{"name":"data","type":"bytes","indexed":false,"internalType":"bytes"}],"anonymous":false},{"type":"error","name":"GamePaused","inputs":[]},{"type":"error","name":"InsufficientBalance","inputs":[]},{"type":"error","name":"NotAtSpawn","inputs":[]},{"type":"error","name":"NotAuthorizedCaller","inputs":[]},{"type":"error","name":"Slice_OutOfBounds","inputs":[{"name":"data","type":"bytes","internalType":"bytes"},{"name":"start","type":"uint256","internalType":"uint256"},{"name":"end","type":"uint256","internalType":"uint256"}]},{"type":"error","name":"World_AccessDenied","inputs":[{"name":"resource","type":"string","internalType":"string"},{"name":"caller","type":"address","internalType":"address"}]}],"bytecode":{"object":"0x60808060405234610016576140b6908161001b8239f35b5f80fdfe60806040526004361015610011575f80fd5b5f3560e01c806301ffc9a7146101545780630722a7031461014f578063119df25f1461014a5780631c39c7d5146101455780633722e0d11461014057806345ec93541461013b5780635b90c590146101365780635e3549811461013157806371a9f1621461012c578063821aac5514610127578063832e305c146101225780639147852b1461011d57806398cab34914610118578063bc197c8114610113578063daf22fbd1461010e578063e1af802c14610109578063e709de6814610104578063ea38fe63146100ff578063f23a6e61146100fa5763f33a0a68146100f5575f80fd5b610d06565b610cad565b610bfc565b610bd6565b610bbc565b610a89565b6109fd565b61081c565b610777565b61074b565b610722565b610673565b6105ed565b61043a565b61041b565b610360565b61022e565b6101f1565b6101ae565b346101aa5760203660031901126101aa5760043563ffffffff60e01b81168091036101aa5760209063b5dee12760e01b8114908115610199575b506040519015158152f35b6301ffc9a760e01b1490505f61018e565b5f80fd5b346101aa5760403660031901126101aa576101cf6101ca61114a565b6110dc565b6101dd60243560043561112d565b60206040515f8152f35b5f9103126101aa57565b346101aa575f3660031901126101aa57602061020b61114a565b6040516001600160a01b039091168152f35b6001600160a01b038116036101aa57565b346101aa5760403660031901126101aa5761026260043561024e8161021d565b6102596101ca61114a565b60243590611161565b005b634e487b7160e01b5f52604160045260245ffd5b6001600160401b03811161028b57604052565b610264565b604081019081106001600160401b0382111761028b57604052565b602081019081106001600160401b0382111761028b57604052565b601f909101601f19168101906001600160401b0382119082101761028b57604052565b6001600160401b03811161028b5760051b60200190565b9080601f830112156101aa57602090823561031a816102e9565b9361032860405195866102c6565b81855260208086019260051b8201019283116101aa57602001905b828210610351575050505090565b81358152908301908301610343565b346101aa5760603660031901126101aa576001600160401b036004358181116101aa57366023820112156101aa57806004013561039c816102e9565b916103aa60405193846102c6565b8183526020916024602085019160051b830101913683116101aa57602401905b82821061040c5785856024358281116101aa576103eb903690600401610300565b6044359283116101aa57610406610262933690600401610300565b91610d75565b813581529083019083016103ca565b346101aa575f3660031901126101aa576020604051601f193601358152f35b346101aa576040806003193601126101aa5760043560243561045a6111be565b61046d610468610468612261565b610dc9565b9161047661114a565b845163087bdec760e31b8152602094859082908180610499878960048401610ded565b03915afa90811561057e575f916105d0575b50156105c157506104c0610468610468612261565b8385518092637a451cb960e11b825281806104de8760048301610e11565b03915afa90811561057e575f91610594575b5015610583575b610505610468610468612261565b845163777c2caf60e01b815260048101839052908490829060249082905afa93841561057e57610548946105439285925f92610551575b50506112da565b61112d565b515f8152602090f35b6105709250803d10610577575b61056881836102c6565b810190610e27565b5f8061053c565b503d61055e565b610e06565b8351633794351760e01b8152600490fd5b6105b49150843d86116105ba575b6105ac81836102c6565b810190610dd5565b5f6104f0565b503d6105a2565b6105cb90306111e9565b6104f7565b6105e79150853d87116105ba576105ac81836102c6565b5f6104ab565b346101aa5760403660031901126101aa576106096101ca61114a565b602460206001600160a01b0361061d612261565b16604051928380926313c42aaf60e21b825260043560048301525afa801561057e57610262915f91610654575b5060243590611161565b61066d915060203d6020116105775761056881836102c6565b5f61064a565b346101aa5760403660031901126101aa575f60206106fa6004356106968161021d565b6106a76106a161114a565b306111e9565b6106c56104686106bd6106b8611349565b611ba0565b60601c610dc9565b60405163095ea7b360e01b81526001600160a01b03909216600483015260248035908301529093849283919082906044820190565b03925af1801561057e5761070a57005b6102629060203d6020116105ba576105ac81836102c6565b346101aa5760403660031901126101aa57602435600a8110156101aa5761026290600435610e3c565b346101aa5760603660031901126101aa57610262604435602435600435610f2d565b801515036101aa57565b346101aa5760403660031901126101aa576004356107948161021d565b602435906107a18261076d565b6107ac6106a161114a565b6107c26104686106bd6107bd611349565b611c6b565b91823b156101aa5760405163a22cb46560e01b81526001600160a01b0392909216600483015215156024820152905f908290604490829084905af1801561057e5761080957005b8061081661026292610278565b806101e7565b346101aa576040806003193601126101aa5760043560243561083c6111be565b61084a610468610468612261565b9161085361114a565b845163087bdec760e31b8152602094909190859083908180610879868960048401610ded565b03915afa801561057e5785925f9161097f575b501561096c5750506108a2610468610468612261565b8385518092637a451cb960e11b825281806108c08760048301610e11565b03915afa90811561057e575f9161094f575b50156105835782610915915b6108e8848261173a565b6108f6610468610468612261565b8651808095819463777c2caf60e01b8352600483019190602083019252565b03915afa90811561057e57610548935f92610932575b5050611161565b6109489250803d106105775761056881836102c6565b5f8061092b565b6109669150843d86116105ba576105ac81836102c6565b5f6108d2565b9161097a61091593306111e9565b6108de565b6109969150833d85116105ba576105ac81836102c6565b5f61088c565b6001600160401b03811161028b57601f01601f191660200190565b81601f820112156101aa578035906109ce8261099c565b926109dc60405194856102c6565b828452602083830101116101aa57815f926020809301838601378301015290565b346101aa5760a03660031901126101aa57610a1960043561021d565b610a2460243561021d565b6001600160401b036044358181116101aa57610a44903690600401610300565b506064358181116101aa57610a5d903690600401610300565b506084359081116101aa57610a769036906004016109b7565b5060405163bc197c8160e01b8152602090f35b346101aa576020806003193601126101aa57610ae0600435610aac6101ca61114a565b5f610abb610468610468612261565b610ac48361175e565b90604051808096819463b8bfeca160e01b8352600483016110c4565b03915afa90811561057e57610b28925f92610b95575b50602090610b08610468610468612261565b604051808096819463777c2caf60e01b8352600483019190602083019252565b03915afa91821561057e575f92610b74575b505f5b815190815181101561026257610b6e610b5882600194610d5c565b51610b668388870151610d5c565b519086611491565b01610b3d565b610b8e91925060203d6020116105775761056881836102c6565b905f610b3a565b6020919250610bb5903d805f833e610bad81836102c6565b810190611045565b9190610af6565b346101aa575f3660031901126101aa57602061020b612261565b346101aa5760203660031901126101aa576020610bf460043561178a565b604051908152f35b346101aa5760403660031901126101aa576001600160a01b03610c2781610c21612261565b16610dc9565b6040516313c42aaf60e21b815260048035908201529190602090839060249082905afa90811561057e57610262925f92610c8c575b50610c6561114a565b9080831690821603610c7c575b50602435906117a7565b610c8690306111e9565b5f610c72565b610ca691925060203d6020116105775761056881836102c6565b905f610c5c565b346101aa5760a03660031901126101aa57610cc960043561021d565b610cd460243561021d565b6084356001600160401b0381116101aa57610cf39036906004016109b7565b5060405163f23a6e6160e01b8152602090f35b346101aa5760403660031901126101aa57600435610d256101ca61114a565b610d2e8161178a565b6024358101809111610d435761026291611802565b610f0c565b634e487b7160e01b5f52603260045260245ffd5b8051821015610d705760209160051b010190565b610d48565b92919092610d846101ca61114a565b5f5b8451811015610dc25780610dbc610d9f60019385610d5c565b51610daa8389610d5c565b51610db58488610d5c565b5191610f2d565b01610d86565b5050509050565b6001600160a01b031690565b908160209103126101aa5751610dea8161076d565b90565b9081526001600160a01b03909116602082015260400190565b6040513d5f823e3d90fd5b9081525f60208201819052604082015260600190565b908160209103126101aa5751610dea8161021d565b9190610e5290610e4d6101ca61114a565b6113a5565b80515115610f07576020610e8e93610e6e610468610468612261565b604051808097819463777c2caf60e01b8352600483019190602083019252565b03915afa92831561057e575f93610ee6575b509060208201905f5b83518051821015610ede5790610ed8610ec482600194610d5c565b51610ed0838751610d5c565b519088611491565b01610ea9565b505092505050565b610f0091935060203d6020116105775761056881836102c6565b915f610ea0565b509050565b634e487b7160e01b5f52601160045260245ffd5b91908201809211610d4357565b610f386101ca61114a565b60206001600160a01b03610f4a612261565b169160246040518094819363777c2caf60e01b835260048301525afa90811561057e575f91610fc5575b50610f7f82826114e3565b838101809111610d435782610f9392611519565b610f9b61135f565b805115610d7057610fc392610fb882846020610fbd950152611fe7565b610f20565b906116eb565b565b610fde915060203d6020116105775761056881836102c6565b5f610f74565b9080601f830112156101aa57815190602091610fff816102e9565b9361100d60405195866102c6565b81855260208086019260051b8201019283116101aa57602001905b828210611036575050505090565b81518152908301908301611028565b906020828203126101aa5781516001600160401b03928382116101aa5701906040828203126101aa576040519261107b84610290565b82518181116101aa5782611090918501610fe4565b845260208301519081116101aa576110a89201610fe4565b602082015290565b634e487b7160e01b5f52602160045260245ffd5b9190602083019260038210156110d75752565b6110b0565b6110e5816118aa565b61112a576110f161135f565b805115610d70576001600160a01b03909116602082015261111190611d0d565b60f81c610fc357604051637046c88d60e01b8152600490fd5b50565b906111378261178a565b908101809111610d4357610fc391611802565b36603319013560601c90811561115c57565b339150565b61116a816118d2565b828101809111610d435761117d916118fa565b61118d611188611349565b611d9a565b908101809111610d4357610fc3906111a3611349565b604051916020830152602082526111b982610290565b6121f0565b6111ce6111c9611349565b611ef6565b60f81c6111d757565b60405163379a7ed960e01b8152600490fd5b6111f2906118aa565b61120f82600160801b600160f01b038316616e7360f01b17612fdd565b80156112ca575b1561121f575050565b608081901b6001600160801b0319169061128a90601081901b6001600160901b031916806112bb5750611250612296565b925b806112aa575061127c611263612296565b6040519485936001600160f01b031916602085016122b8565b03601f1981018352826102c6565b6112a660405192839263d787b73760e01b8452600484016119e9565b0390fd5b6112b661127c9161301b565b611263565b6112c49061301b565b92611252565b506112d58282612fdd565b611216565b6112e3816118d2565b82811061131e57828103908111610d43576112fd916118fa565b611308611188611349565b908103908111610d4357610fc3906111a3611349565b604051631e9acf1760e31b8152600490fd5b6040519061133d82610290565b60606020838281520152565b604051611355816102ab565b5f8152905f368137565b6040519061136c82610290565b6001825260203681840137565b60405190606082016001600160401b0381118382101761028b5760405260028252604082602036910137565b6113ad611330565b506113b661135f565b600a8210156110d757805115610d705760ff6113d792166020820152611ace565b91506113e1611330565b9164ffffffffff808360381c16906114016113fc838561323e565b613a1d565b9360601c168101918282118015611487575b611452579081602082819401019283910111610d43578203918211610d43576114489160018060801b03169060801b17613a1d565b6020830152815290565b6040516323230fa360e01b815260606004820152928392916114789060648501906119c4565b91602484015260448301520390fd5b5080518311611413565b91909161149e83826114e3565b828101809111610d4357836114b292611519565b6114ba61135f565b805115610d7057808360206114d0930152611f5c565b908101809111610d4357610fc391611617565b6114eb611379565b90815115610d70576001600160a01b03166020820152805160011015610d7057610dea916040820152611e23565b919091611524611379565b805190936001600160a01b0392909115610d705782166020850152835160011015610d705760408401526040519160208301526020825261156482610290565b61156c612261565b169130830361157f57610fc392506136ce565b90823b156101aa576040516301c85d5760e51b8152654f776e65727360501b6674624974656d7360c81b01600482015260a06024820152925f9284928391859183916115ec91906115d49060a4850190611a9b565b908460448501526003198483030160648501526119c4565b630100080160dd1b608483015203925af1801561057e5761160a5750565b80610816610fc392610278565b9061162061135f565b91825115610d705760208301526040519060208201526020815261164381610290565b6001600160a01b03611653612261565b169130830361166657610fc392506129d5565b90823b156101aa576040516301c85d5760e51b81525f80516020614036833981519152600482015260a06024820152925f9284928391859183916116cc91906116b39060a4850190611a9b565b60016044850152838103600319016064850152906119c4565b64020010010160d51b608483015203925af1801561057e5761160a5750565b906116f461135f565b91825115610d705760208301526040519060208201526020815261171781610290565b6001600160a01b03611727612261565b169130830361166657610fc39250612b7c565b906117448261178a565b9080821061131e578103908111610d4357610fc391611802565b61176661135f565b805115610d705761177b916020820152612009565b60f81c60038110156110d75790565b61179261135f565b805115610d7057610dea9160208201526120a3565b6117b182826114e3565b906001821061131e575f1991808301908111610d4357836117d192611519565b6117d961135f565b805115610d7057808360206117ef930152611f5c565b908101908111610d4357610fc391611617565b9061180b61135f565b91825115610d705760208301526040519060208201526020815261182e81610290565b6001600160a01b0361183e612261565b169130830361185157610fc39250612cf7565b90823b156101aa576040516301c85d5760e51b81526f416476656e74757265457363726f7700631d18955160e21b01600482015260a06024820152925f9284928391859183916115ec91906115d49060a4850190611a9b565b6118b261135f565b805115610d70576001600160a01b039091166020820152610dea90612110565b6118da61135f565b805115610d70576001600160a01b039091166020820152610dea90611e8c565b9061190361135f565b805190926001600160a01b039115610d7057811660208401526040519160208301526020825261193282610290565b61193a612261565b169130830361194d57610fc39250613845565b90823b156101aa576040516301c85d5760e51b81526742616c616e63657360401b651d1891dbdb1960d21b01600482015260a06024820152925f9284928391859183916115ec91906115d49060a4850190611a9b565b5f5b8381106119b45750505f910152565b81810151838201526020016119a5565b906020916119dd815180928185528580860191016119a3565b601f01601f1916010190565b90611a016020919493946040845260408401906119c4565b6001600160a01b03909416910152565b81601f820112156101aa578051611a278161099c565b92611a3560405194856102c6565b818452602082840101116101aa57610dea91602080850191016119a3565b90916060828403126101aa5781516001600160401b0392908381116101aa5784611a7e918301611a11565b9360208201519360408301519081116101aa57610dea9201611a11565b9081518082526020808093019301915f5b828110611aba575050505090565b835185529381019392810192600101611aac565b6001600160a01b03611ade612261565b16308103611af75750611af090612317565b9192909190565b60405163419b58fd60e01b81526f416476616e636564436c617373497465631d18955160e21b0160048201526060602482015292915f91849182908190611b42906064830190611a9b565b600160e11b604483015203915afa90811561057e575f80935f93611b67575b50929190565b91935050611b8791503d805f833e611b7f81836102c6565b810190611a53565b929092915f611b61565b908160209103126101aa575190565b6001600160a01b03611bb0612261565b16308103611bc25750610dea906123e5565b604051638c364d5960e01b81526f556c74696d617465446f6d696e696f6e631d18955160e21b0160048201526080602482015291602091839182908190611c0d906084830190611a9b565b600160448301526f45434000450505050505050805080805607a1b606483015203915afa90811561057e575f91611c42575090565b610dea915060203d602011611c64575b611c5c81836102c6565b810190611b91565b503d611c52565b6001600160a01b03611c7b612261565b16308103611c8d5750610dea90612477565b604051638c364d5960e01b81526f556c74696d617465446f6d696e696f6e631d18955160e21b0160048201526080602482015291602091839182908190611cd8906084830190611a9b565b600360448301526f45434000450505050505050805080805607a1b606483015203915afa90811561057e575f91611c42575090565b6001600160a01b03611d1d612261565b16308103611d2f5750610dea906124ed565b604051638c364d5960e01b81526420b236b4b760591b631d18955160e21b0160048201526080602482015291602091839182908190611d72906084830190611a9b565b5f6044830152630101000160d81b606483015203915afa90811561057e575f91611c42575090565b6001600160a01b03611daa612261565b16308103611dbc5750610dea90612564565b604051638c364d5960e01b81525f8051602061409683398151915260048201526080602482015291602091839182908190611dfb906084830190611a9b565b5f6044830152630100080160dd1b606483015203915afa90811561057e575f91611c42575090565b6001600160a01b03611e33612261565b16308103611e455750610dea906125cd565b604051638c364d5960e01b8152654f776e65727360501b6674624974656d7360c81b0160048201526080602482015291602091839182908190611dfb906084830190611a9b565b6001600160a01b03611e9c612261565b16308103611eae5750610dea90612632565b604051638c364d5960e01b81526742616c616e63657360401b651d1891dbdb1960d21b0160048201526080602482015291602091839182908190611dfb906084830190611a9b565b6001600160a01b03611f06612261565b16308103611f185750610dea90612698565b604051638c364d5960e01b81526514185d5cd95960521b631d18955160e21b0160048201526080602482015291602091839182908190611d72906084830190611a9b565b6001600160a01b03611f6c612261565b16308103611f7e5750610dea906126fa565b604051638c364d5960e01b81525f8051602061403683398151915260048201526080602482015291602091839182908190611fbd906084830190611a9b565b6001604483015264020010010160d51b606483015203915afa90811561057e575f91611c42575090565b6001600160a01b03611ff7612261565b16308103611f7e5750610dea906127a9565b6001600160a01b03612019612261565b1630810361202b5750610dea906127f1565b604051638c364d5960e01b815264537461747360581b631d18955160e21b016004820152608060248201529160209183918290819061206e906084830190611a9b565b600260448301526fe60d002020012020202020010101010160781b606483015203915afa90811561057e575f91611c42575090565b6001600160a01b036120b3612261565b163081036120c55750610dea90612894565b604051638c364d5960e01b81526f416476656e74757265457363726f7700631d18955160e21b0160048201526080602482015291602091839182908190611dfb906084830190611a9b565b6001600160a01b03612120612261565b163081036121325750610dea906128fd565b604051638c364d5960e01b81526f53797374656d52656769737472790000661d189ddbdc9b1960ca1b0160048201526080602482015291602091839182908190611dfb906084830190611a9b565b6001600160a01b03612190612261565b163081036121a25750610dea90612969565b604051638c364d5960e01b81526f5265736f757263654163636573730000661d189ddbdc9b1960ca1b0160048201526080602482015291602091839182908190611d72906084830190611a9b565b906001600160a01b03612201612261565b169130830361221457610fc39250612e76565b90823b156101aa576040516301c85d5760e51b81525f80516020614096833981519152600482015260a06024820152925f9284928391859183916115ec91906115d49060a4850190611a9b565b7f629a4c26e296b22a8e0856e9f6ecb2d1008d7e00081111962cd175fa7488e175546001600160a01b031680610dea57503390565b604051906122a382610290565b60068252651e3937b7ba1f60d11b6020830152565b90916004939261ffff60f01b168252601d60f91b918260028201526122e78251809360206003850191016119a3565b0190600382015261230182518093602086850191016119a3565b010190565b60ff1660ff8114610d435760010190565b61231f613079565b60405191602083018361233283836130d6565b0393612346601f19958681018352826102c6565b5190205f8051602061407683398151915218549066ffffffffffffff82166123866123708261099c565b9161237e60405193846102c6565b80835261099c565b60208201950136863793925f935b60ff85169060028210156123db576123d59181610fb86123cf9364ffffffffff896123bf8c8b613164565b956028026038011c1680946131f4565b94612306565b93612394565b5050949193925050565b6123ee90613293565b5f905f5b6001811061244557508181602082101561242f575b505080548260031b1b91602003908160141161242257505090565b600101549060031b1c1790565b90809350601f925060051c019116905f80612407565b9160ff6f45434000450505050505050805080805607a1b84601b0360031b1c168101809111610d4357916001016123f2565b61248090613293565b5f9190825b6003808510156124c3576f45434000450505050505050805080805607a1b601b86900390911b1c60ff168101908110610d4357600190930192612485565b509192508181602082101561242f57505080548260031b1b91602003908160141161242257505090565b60405160208160208101936420b236b4b760591b631d18955160e21b0185526040820160208251919201935f5b82811061254d57505050612537925003601f1981018352826102c6565b5190205f80516020614016833981519152185490565b85518452948101948694509281019260010161251a565b60405160208160208101936a546f74616c537570706c7960281b651d1891dbdb1960d21b0185526040820160208251919201935f5b8281106125b657505050612537925003601f1981018352826102c6565b855184529481019486945092810192600101612599565b6040516020816020810193654f776e65727360501b6674624974656d7360c81b0185526040820160208251919201935f5b82811061261b57505050612537925003601f1981018352826102c6565b8551845294810194869450928101926001016125fe565b60405160208160208101936742616c616e63657360401b651d1891dbdb1960d21b0185526040820160208251919201935f5b82811061268157505050612537925003601f1981018352826102c6565b855184529481019486945092810192600101612664565b60405160208160208101936514185d5cd95960521b631d18955160e21b0185526040820160208251919201935f5b8281106126e357505050612537925003601f1981018352826102c6565b8551845294810194869450928101926001016126c6565b604080515f805160206140368339815191526020808301918252845190949193918501918391908201905f5b8782821061279257505050612744925003601f1981018352826102c6565b5190205f80516020614016833981519152189061275f613518565b918082841015612781575b5080548360031b1b92820380921161242257505090565b601f84169360051c0190505f61276a565b855184529485019486945090920191600101612726565b6127b29061337a565b6127ba613518565b908060208310156127e0575b5080548260031b1b91602003908160201161242257505090565b601f83169260051c0190505f6127c6565b6040516128068161127c602082019485613121565b5190205f80516020614016833981519152185f905f5b6002811061286257508181602082101561284c575b505080548260031b1b91602003908160011161242257505090565b90809350601f925060051c019116905f80612831565b9160ff6fe60d002020012020202020010101010160781b84601b0360031b1c168101809111610d43579160010161281c565b60405160208160208101936f416476656e74757265457363726f7700631d18955160e21b0185526040820160208251919201935f5b8281106128e657505050612537925003601f1981018352826102c6565b8551845294810194869450928101926001016128c9565b60405160208160208101936f53797374656d52656769737472790000661d189ddbdc9b1960ca1b0185526040820160208251919201935f5b82811061295257505050612537925003601f1981018352826102c6565b855184529481019486945092810192600101612935565b60405160208160208101936f5265736f757263654163636573730000661d189ddbdc9b1960ca1b0185526040820160208251919201935f5b8281106129be57505050612537925003601f1981018352826102c6565b8551845294810194869450928101926001016129a1565b91909165ffffffffffff6129e7613518565b166129f18261337a565b6129f9613b7b565b905f5b8251811015612aa157612a30612a23612a158386610d5c565b516001600160581b03191690565b6001600160581b03191690565b9060049182808260581c1614612a4c575b5060019150016129fc565b60601c803b156101aa57855f9188838c96612a7b6040519889968795869463964f667d60e01b865285016135f5565b03925af191821561057e5760019215612a415780610816612a9b92610278565b5f612a41565b50604080519096939291612ae691859185915f80516020614036833981519152905f80516020613ff68339815191529080612ade87878e84613579565b0390a2613f4c565b5f5b8151811015612b7357612b01612a23612a158385610d5c565b6008808260581c1614612b18575b50600101612ae8565b60601c90813b156101aa57875163a8ba872160e01b8152915f908390818381612b468b8b8e600485016135f5565b03925af191821561057e57600192612b60575b5090612b0f565b80610816612b6d92610278565b5f612b59565b50505050509050565b91909165ffffffffffff612b8e613518565b16612b988261337a565b612ba0613cd0565b905f5b8251811015612c2d57612bbc612a23612a158386610d5c565b9060049182808260581c1614612bd8575b506001915001612ba3565b60601c803b156101aa57855f9188838c96612c076040519889968795869463964f667d60e01b865285016135f5565b03925af191821561057e5760019215612bcd5780610816612c2792610278565b5f612bcd565b50604080519096939291612c6a91859185915f80516020614036833981519152905f80516020613ff68339815191529080612ade87878e84613579565b5f5b8151811015612b7357612c85612a23612a158385610d5c565b6008808260581c1614612c9c575b50600101612c6c565b60601c90813b156101aa57875163a8ba872160e01b8152915f908390818381612cca8b8b8e600485016135f5565b03925af191821561057e57600192612ce4575b5090612c93565b80610816612cf192610278565b5f612cdd565b9190612d0283613311565b91612d0b613a72565b905f5b8251811015612d9757612d27612a23612a158386610d5c565b9060049182808260581c1614612d43575b506001915001612d0e565b60601c803b156101aa57855f918983612d71966040519788958694859363964f667d60e01b855284016135aa565b03925af191821561057e5760019215612d385780610816612d9192610278565b5f612d38565b50929190612de2826040946040515f80516020613ff68339815191526f416476656e74757265457363726f7700631d18955160e21b019180612dda868d8361354e565b0390a2613ec8565b5f5b8151811015612e6e57612dfd612a23612a158385610d5c565b6008808260581c1614612e14575b50600101612de4565b60601c90813b156101aa57845163a8ba872160e01b8152915f908390818381612e418a8e600484016135aa565b03925af191821561057e57600192612e5b575b5090612e0b565b80610816612e6892610278565b5f612e54565b505050509050565b9190612e81836133e4565b91612e8a613c26565b905f5b8251811015612f1657612ea6612a23612a158386610d5c565b9060049182808260581c1614612ec2575b506001915001612e8d565b60601c803b156101aa57855f918983612ef0966040519788958694859363964f667d60e01b8552840161363c565b03925af191821561057e5760019215612eb75780610816612f1092610278565b5f612eb7565b5060408051919490939291612f519184915f80516020614096833981519152905f80516020613ff68339815191529080612dda868d8361354e565b5f5b8151811015612e6e57612f6c612a23612a158385610d5c565b6008808260581c1614612f83575b50600101612f53565b60601c90813b156101aa57845163a8ba872160e01b8152915f908390818381612fb08a8e6004840161363c565b03925af191821561057e57600192612fca575b5090612f7a565b80610816612fd792610278565b5f612fc3565b612fe5611379565b90815115610d70576020820152805160011015610d70576001600160a01b03909116604082015261301590612180565b60f81c90565b5f5b6010811061304c575b6040516001600160801b031990921660208301526010825261304782610290565b815290565b6001600160801b03198216600382901b1b6001600160f81b031916156130745760010161301d565b613026565b604051613085816102ab565b5f815290565b6953746f7265486f6f6b7360301b66746273746f726560c81b01815281516020918201928201915f5b8281106130c2575050505090565b8351855293810193928101926001016130b4565b6f416476616e636564436c617373497465631d18955160e21b01815281516020918201928201915f5b82811061310d575050505090565b8351855293810193928101926001016130ff565b64537461747360581b631d18955160e21b01815281516020918201928201915f5b828110613150575050505090565b835185529381019392810192600101613142565b604080516f416476616e636564436c617373497465631d18955160e21b0160208083019182528451938301969594919391810191905f5b8281106131e057505050506131c8815f80516020614056833981519152959603601f1981018352826102c6565b51902060f89190911b6001600160f81b031916181890565b83518952978101979281019260010161319b565b9291925b6020908183106132185780548552930192601f19909101906001016131f8565b9190509291928061322857505050565b5f199060031b1c90818351169119905416179052565b908151811161325d576001600160801b031660209190910160801b1790565b6040516323230fa360e01b815260606004820152925082916132839060648401906119c4565b905f602484015260448301520390fd5b60405160208160208101936f556c74696d617465446f6d696e696f6e631d18955160e21b0185526040820160208251919201935f5b8281106132fa575050506132e5925003601f1981018352826102c6565b5190205f805160206140168339815191521890565b8551845294810194869450928101926001016132c8565b60405160208160208101936f416476656e74757265457363726f7700631d18955160e21b0185526040820160208251919201935f5b828110613363575050506132e5925003601f1981018352826102c6565b855184529481019486945092810192600101613346565b60405160208160208101936a546f74616c537570706c7960281b6674624974656d7360c81b0185526040820160208251919201935f5b8281106133cd575050506132e5925003601f1981018352826102c6565b8551845294810194869450928101926001016133b0565b60405160208160208101936a546f74616c537570706c7960281b651d1891dbdb1960d21b0185526040820160208251919201935f5b828110613436575050506132e5925003601f1981018352826102c6565b855184529481019486945092810192600101613419565b6040516020816020810193654f776e65727360501b6674624974656d7360c81b0185526040820160208251919201935f5b82811061349b575050506132e5925003601f1981018352826102c6565b85518452948101948694509281019260010161347e565b60405160208160208101936742616c616e63657360401b651d1891dbdb1960d21b0185526040820160208251919201935f5b828110613501575050506132e5925003601f1981018352826102c6565b8551845294810194869450928101926001016134e4565b5f805b60018110613527575090565b9060ff64020010010160d51b83601b0360031b1c168101809111610d43579060010161351b565b9091613565610dea93606084526060840190611a9b565b915f602082015260408184039101526119c4565b65ffffffffffff613596610dea9593606084526060840190611a9b565b9316602082015260408184039101526119c4565b6f416476656e74757265457363726f7700631d18955160e21b018152608060208201819052610dea9391926135e191840190611a9b565b915f604082015260608184039101526119c4565b5f805160206140368339815191528152608060208201819052610dea949265ffffffffffff916136289190840190611a9b565b9316604082015260608184039101526119c4565b5f805160206140968339815191528152608060208201819052610dea9391926135e191840190611a9b565b654f776e65727360501b6674624974656d7360c81b018152608060208201819052610dea9391926135e191840190611a9b565b6742616c616e63657360401b651d1891dbdb1960d21b018152608060208201819052610dea9391926135e191840190611a9b565b91906136d98361344d565b916136e2613d7b565b905f5b825181101561376e576136fe612a23612a158386610d5c565b9060049182808260581c161461371a575b5060019150016136e5565b60601c803b156101aa57855f918983613748966040519788958694859363964f667d60e01b85528401613667565b03925af191821561057e576001921561370f578061081661376892610278565b5f61370f565b50604080519194909392916137b9918491654f776e65727360501b6674624974656d7360c81b01905f80516020613ff683398151915290806137b1868d8361354e565b0390a2613f15565b5f5b8151811015612e6e576137d4612a23612a158385610d5c565b6008808260581c16146137eb575b506001016137bb565b60601c90813b156101aa57845163a8ba872160e01b8152915f9083908183816138188a8e60048401613667565b03925af191821561057e57600192613832575b50906137e2565b8061081661383f92610278565b5f61382b565b9190613850836134b2565b91613859613e21565b905f5b82518110156138e557613875612a23612a158386610d5c565b9060049182808260581c1614613891575b50600191500161385c565b60601c803b156101aa57855f9189836138bf966040519788958694859363964f667d60e01b8552840161369a565b03925af191821561057e576001921561388657806108166138df92610278565b5f613886565b50604080519194909392916139299184916742616c616e63657360401b651d1891dbdb1960d21b01905f80516020613ff683398151915290806137b1868d8361354e565b5f5b8151811015612e6e57613944612a23612a158385610d5c565b6008808260581c161461395b575b5060010161392b565b60601c90813b156101aa57845163a8ba872160e01b8152915f9083908183816139888a8e6004840161369a565b03925af191821561057e576001926139a2575b5090613952565b806108166139af92610278565b5f61399b565b60408051601f19603f85830101811690925283815292602080850193925b81831015613a05575050806139e9575b50505090565b5f199060031b1c908183511691199054161790525f80806139e3565b816001858394959796548752019401940191906139d3565b6040805160206020600160801b0384168201810190925260016001607b1b03600584901c1680825290939260801c8285015f5b838110613a5e575050505050565b825182529184019190840190600101613a50565b613a7a61135f565b805115610d7057613b2d613b256020926f416476656e74757265457363726f7700631d18955160e21b018482015264ffffffffff604051915f8051602061405683398151915286840184613ace848361308b565b0394613ae2601f19968781018352826102c6565b5190201892613b086040519182613afc8a8201958661308b565b039081018352826102c6565b5190205f80516020614076833981519152185460381c16906139b5565b80519061323e565b8060801c916015809260018060801b0316049060405193818501828460051b8701016040528386525f5b848110613b675750505050505090565b825182529185019190830190600101613b57565b613b8361135f565b805115610d7057613bd8613b256020926a546f74616c537570706c7960281b6674624974656d7360c81b018482015264ffffffffff604051915f8051602061405683398151915286840184613ace848361308b565b8060801c916015809260018060801b0316049060405193818501828460051b8701016040528386525f5b848110613c125750505050505090565b825182529185019190830190600101613c02565b613c2e61135f565b805115610d7057613c82613b256020926a546f74616c537570706c7960281b651d1891dbdb1960d21b018482015264ffffffffff604051915f8051602061405683398151915286840184613ace848361308b565b8060801c916015809260018060801b0316049060405193818501828460051b8701016040528386525f5b848110613cbc5750505050505090565b825182529185019190830190600101613cac565b613cd861135f565b805115610d7057613d2d613b256020926a546f74616c537570706c7960281b6674624974656d7360c81b018482015264ffffffffff604051915f8051602061405683398151915286840184613ace848361308b565b8060801c916015809260018060801b0316049060405193818501828460051b8701016040528386525f5b848110613d675750505050505090565b825182529185019190830190600101613d57565b613d8361135f565b805115610d7057613dd3613b25602092654f776e65727360501b6674624974656d7360c81b018482015264ffffffffff604051915f8051602061405683398151915286840184613ace848361308b565b8060801c916015809260018060801b0316049060405193818501828460051b8701016040528386525f5b848110613e0d5750505050505090565b825182529185019190830190600101613dfd565b613e2961135f565b805115610d7057613e7a613b256020926742616c616e63657360401b651d1891dbdb1960d21b018482015264ffffffffff604051915f8051602061405683398151915286840184613ace848361308b565b8060801c916015809260018060801b0316049060405193818501828460051b8701016040528386525f5b848110613eb45750505050505090565b825182529185019190830190600101613ea4565b81519060208093019190925b80821015613efd575080613ee757505050565b5f199060031b1c90818354169119905116179055565b6001839482939451815501930191601f190190613ed4565b81519060208093019190925b80821015613f34575080613ee757505050565b6001839482939451815501930191601f190190613f21565b825192610fc3926020909101919080613f94575b509290925b602090818310613f855784518155930192601f1990910190600101613f65565b929391905080613ee757505050565b6020811015613fe5575b8015613f605791939082602003908360031b5f198460031b1c19811c908751901c908019835416911617815581831115612e6e57600101940191601f19910101925f613f60565b90601f908260051c019116613f9e56fe8c0b5119d4cec7b284c6b1b39252a03d1e2f2d7451a5895562524c113bb952be86425bff6b57326c7859e89024fe4f238ca327a1ae4a230180dd2f0e88aaa7d974624974656d73000000000000000000546f74616c537570706c7900000000003b4102da22e32d82fc925482184f16c09fd4281692720b87d124aef6da48a0f114e2fcc58e58e68ec7edc30c8d50dccc3ce2714a623ec81f46b6a63922d765697462476f6c6400000000000000000000546f74616c537570706c790000000000","linkReferences":{}},"methodIdentifiers":{"_msgSender()":"119df25f","_msgValue()":"45ec9354","_world()":"e1af802c","consumeItem(bytes32,uint256)":"ea38fe63","depositToEscrow(bytes32,uint256)":"5b90c590","dropGoldToEscrow(bytes32,uint256)":"f33a0a68","dropGoldToPlayer(bytes32,uint256)":"5e354981","dropItem(bytes32,uint256,uint256)":"832e305c","dropItems(bytes32[],uint256[],uint256[])":"3722e0d1","getEscrowBalance(bytes32)":"e709de68","increaseEscrowBalance(bytes32,uint256)":"0722a703","issueAdvancedClassItems(bytes32,uint8)":"821aac55","issueStarterItems(bytes32)":"daf22fbd","onERC1155BatchReceived(address,address,uint256[],uint256[],bytes)":"bc197c81","onERC1155Received(address,address,uint256,uint256,bytes)":"f23a6e61","setGoldApproval(address,uint256)":"71a9f162","setItemsApproval(address,bool)":"9147852b","supportsInterface(bytes4)":"01ffc9a7","transferGold(address,uint256)":"1c39c7d5","withdrawFromEscrow(bytes32,uint256)":"98cab349"},"id":348}