{"abi":[{"type":"function","name":"_msgSender","inputs":[],"outputs":[{"name":"sender","type":"address","internalType":"address"}],"stateMutability":"view"},{"type":"function","name":"_msgValue","inputs":[],"outputs":[{"name":"value","type":"uint256","internalType":"uint256"}],"stateMutability":"pure"},{"type":"function","name":"_world","inputs":[],"outputs":[{"name":"","type":"address","internalType":"address"}],"stateMutability":"view"},{"type":"function","name":"calculateExpMultiplier","inputs":[{"name":"characterId","type":"bytes32","internalType":"bytes32"}],"outputs":[{"name":"_expMultiplier","type":"uint256","internalType":"uint256"}],"stateMutability":"view"},{"type":"function","name":"consumeItem","inputs":[{"name":"characterId","type":"bytes32","internalType":"bytes32"},{"name":"itemId","type":"uint256","internalType":"uint256"}],"outputs":[],"stateMutability":"nonpayable"},{"type":"function","name":"depositToEscrow","inputs":[{"name":"characterId","type":"bytes32","internalType":"bytes32"},{"name":"amount","type":"uint256","internalType":"uint256"}],"outputs":[{"name":"_balance","type":"uint256","internalType":"uint256"}],"stateMutability":"nonpayable"},{"type":"function","name":"distributePveRewards","inputs":[{"name":"encounterId","type":"bytes32","internalType":"bytes32"},{"name":"randomNumber","type":"uint256","internalType":"uint256"}],"outputs":[{"name":"_expAmount","type":"uint256","internalType":"uint256"},{"name":"_goldAmount","type":"uint256","internalType":"uint256"},{"name":"_itemIdsDropped","type":"uint256[]","internalType":"uint256[]"}],"stateMutability":"nonpayable"},{"type":"function","name":"distributePvpRewards","inputs":[{"name":"encounterId","type":"bytes32","internalType":"bytes32"},{"name":"randomNumber","type":"uint256","internalType":"uint256"}],"outputs":[{"name":"_expAmount","type":"uint256","internalType":"uint256"},{"name":"_goldAmount","type":"uint256","internalType":"uint256"},{"name":"_itemIdsDropped","type":"uint256[]","internalType":"uint256[]"}],"stateMutability":"nonpayable"},{"type":"function","name":"dropGoldToEscrow","inputs":[{"name":"characterId","type":"bytes32","internalType":"bytes32"},{"name":"amount","type":"uint256","internalType":"uint256"}],"outputs":[],"stateMutability":"nonpayable"},{"type":"function","name":"dropGoldToPlayer","inputs":[{"name":"characterId","type":"bytes32","internalType":"bytes32"},{"name":"amount","type":"uint256","internalType":"uint256"}],"outputs":[],"stateMutability":"nonpayable"},{"type":"function","name":"dropItem","inputs":[{"name":"characterId","type":"bytes32","internalType":"bytes32"},{"name":"itemId","type":"uint256","internalType":"uint256"},{"name":"amount","type":"uint256","internalType":"uint256"}],"outputs":[],"stateMutability":"nonpayable"},{"type":"function","name":"dropItems","inputs":[{"name":"characterIds","type":"bytes32[]","internalType":"bytes32[]"},{"name":"itemIds","type":"uint256[]","internalType":"uint256[]"},{"name":"amounts","type":"uint256[]","internalType":"uint256[]"}],"outputs":[],"stateMutability":"nonpayable"},{"type":"function","name":"getEscrowBalance","inputs":[{"name":"characterId","type":"bytes32","internalType":"bytes32"}],"outputs":[{"name":"_balance","type":"uint256","internalType":"uint256"}],"stateMutability":"view"},{"type":"function","name":"increaseEscrowBalance","inputs":[{"name":"characterId","type":"bytes32","internalType":"bytes32"},{"name":"amount","type":"uint256","internalType":"uint256"}],"outputs":[{"name":"newBalance","type":"uint256","internalType":"uint256"}],"stateMutability":"nonpayable"},{"type":"function","name":"issueStarterItems","inputs":[{"name":"characterId","type":"bytes32","internalType":"bytes32"}],"outputs":[],"stateMutability":"nonpayable"},{"type":"function","name":"onERC1155BatchReceived","inputs":[{"name":"","type":"address","internalType":"address"},{"name":"","type":"address","internalType":"address"},{"name":"","type":"uint256[]","internalType":"uint256[]"},{"name":"","type":"uint256[]","internalType":"uint256[]"},{"name":"","type":"bytes","internalType":"bytes"}],"outputs":[{"name":"","type":"bytes4","internalType":"bytes4"}],"stateMutability":"nonpayable"},{"type":"function","name":"onERC1155Received","inputs":[{"name":"","type":"address","internalType":"address"},{"name":"","type":"address","internalType":"address"},{"name":"","type":"uint256","internalType":"uint256"},{"name":"","type":"uint256","internalType":"uint256"},{"name":"","type":"bytes","internalType":"bytes"}],"outputs":[{"name":"","type":"bytes4","internalType":"bytes4"}],"stateMutability":"nonpayable"},{"type":"function","name":"setGoldApproval","inputs":[{"name":"spender","type":"address","internalType":"address"},{"name":"value","type":"uint256","internalType":"uint256"}],"outputs":[],"stateMutability":"nonpayable"},{"type":"function","name":"setItemsApproval","inputs":[{"name":"spender","type":"address","internalType":"address"},{"name":"approval","type":"bool","internalType":"bool"}],"outputs":[],"stateMutability":"nonpayable"},{"type":"function","name":"supportsInterface","inputs":[{"name":"interfaceId","type":"bytes4","internalType":"bytes4"}],"outputs":[{"name":"","type":"bool","internalType":"bool"}],"stateMutability":"pure"},{"type":"function","name":"transferGold","inputs":[{"name":"player","type":"address","internalType":"address"},{"name":"amount","type":"uint256","internalType":"uint256"}],"outputs":[],"stateMutability":"nonpayable"},{"type":"function","name":"withdrawFromEscrow","inputs":[{"name":"characterId","type":"bytes32","internalType":"bytes32"},{"name":"amount","type":"uint256","internalType":"uint256"}],"outputs":[{"name":"_balance","type":"uint256","internalType":"uint256"}],"stateMutability":"nonpayable"},{"type":"event","name":"Store_SetRecord","inputs":[{"name":"tableId","type":"bytes32","indexed":true,"internalType":"ResourceId"},{"name":"keyTuple","type":"bytes32[]","indexed":false,"internalType":"bytes32[]"},{"name":"staticData","type":"bytes","indexed":false,"internalType":"bytes"},{"name":"encodedLengths","type":"bytes32","indexed":false,"internalType":"EncodedLengths"},{"name":"dynamicData","type":"bytes","indexed":false,"internalType":"bytes"}],"anonymous":false},{"type":"event","name":"Store_SpliceStaticData","inputs":[{"name":"tableId","type":"bytes32","indexed":true,"internalType":"ResourceId"},{"name":"keyTuple","type":"bytes32[]","indexed":false,"internalType":"bytes32[]"},{"name":"start","type":"uint48","indexed":false,"internalType":"uint48"},{"name":"data","type":"bytes","indexed":false,"internalType":"bytes"}],"anonymous":false},{"type":"error","name":"Slice_OutOfBounds","inputs":[{"name":"data","type":"bytes","internalType":"bytes"},{"name":"start","type":"uint256","internalType":"uint256"},{"name":"end","type":"uint256","internalType":"uint256"}]},{"type":"error","name":"World_AccessDenied","inputs":[{"name":"resource","type":"string","internalType":"string"},{"name":"caller","type":"address","internalType":"address"}]}],"bytecode":{"object":"0x608060405234801561001057600080fd5b5061500e806100206000396000f3fe608060405234801561001057600080fd5b50600436106101825760003560e01c80639147852b116100d8578063daf22fbd1161008c578063ea38fe6311610066578063ea38fe631461035c578063f23a6e611461036f578063f33a0a68146103a757600080fd5b8063daf22fbd1461032e578063e1af802c14610341578063e709de681461034957600080fd5b80639f48799c116100bd5780639f48799c146102a8578063b060475d146102ca578063bc197c81146102dd57600080fd5b80639147852b1461028257806398cab3491461029557600080fd5b80633da0f9621161013a5780635e354981116101145780635e3549811461024957806371a9f1621461025c578063832e305c1461026f57600080fd5b80633da0f9621461021857806345ec93541461022b5780635b90c5901461023657600080fd5b8063119df25f1161016b578063119df25f146101d05780631c39c7d5146101f05780633722e0d11461020557600080fd5b806301ffc9a7146101875780630722a703146101af575b600080fd5b61019a610195366004614279565b6103ba565b60405190151581526020015b60405180910390f35b6101c26101bd3660046142a3565b6103cb565b6040519081526020016101a6565b6101d86103e8565b6040516001600160a01b0390911681526020016101a6565b6102036101fe3660046142dd565b6103f7565b005b61020361021336600461440d565b61049f565b6101c26102263660046144ea565b61050f565b36601f1901356101c2565b6101c26102443660046142a3565b61055a565b6102036102573660046142a3565b6107f8565b61020361026a3660046142dd565b6108f5565b61020361027d366004614503565b610959565b61020361029036600461453d565b610a85565b6101c26102a33660046142a3565b610aea565b6102bb6102b63660046142a3565b610d83565b6040516101a693929190614576565b6102bb6102d83660046142a3565b6111b9565b6103156102eb366004614646565b7fbc197c810000000000000000000000000000000000000000000000000000000095945050505050565b6040516001600160e01b031990911681526020016101a6565b61020361033c3660046144ea565b6114f4565b6101d8611774565b6101c26103573660046144ea565b61177e565b61020361036a3660046142a3565b611789565b61031561037d3660046146f4565b7ff23a6e610000000000000000000000000000000000000000000000000000000095945050505050565b6102036103b53660046142a3565b6118d5565b60006103c582611952565b92915050565b60006103de306103d96103e8565b6119ba565b6103c583836119d0565b60006103f26119f5565b905090565b610403306103d96103e8565b61040b611a27565b6040517fa9059cbb0000000000000000000000000000000000000000000000000000000081526001600160a01b03848116600483015260248201849052919091169063a9059cbb906044015b6020604051808303816000875af1158015610476573d6000803e3d6000fd5b505050506040513d601f19601f8201168201806040525081019061049a919061475d565b505050565b60005b8251811015610509576105018482815181106104c0576104c061477a565b60200260200101518483815181106104da576104da61477a565b60200260200101518484815181106104f4576104f461477a565b6020026020010151610959565b6001016104a2565b50505050565b60008061051b8361177e565b9050670de0b6b3a7640000600261053183611a31565b61053f906305f5e1006147a6565b61054991906147d3565b61055391906147e7565b9392505050565b6000610564611774565b6001600160a01b03166343def6388461057b6103e8565b6040516001600160e01b031960e085901b16815260048101929092526001600160a01b03166024820152604401602060405180830381865afa1580156105c5573d6000803e3d6000fd5b505050506040513d601f19601f820116820180604052508101906105e9919061475d565b156106de576105f6611774565b6040517ff48a39720000000000000000000000000000000000000000000000000000000081526004810185905260006024820181905260448201526001600160a01b03919091169063f48a397290606401602060405180830381865afa158015610664573d6000803e3d6000fd5b505050506040513d601f19601f82011682018060405250810190610688919061475d565b6106d95760405162461bcd60e51b815260206004820152601960248201527f63616e206f6e6c79206465706f73697420617420737061776e0000000000000060448201526064015b60405180910390fd5b6106ea565b6106ea306103d96103e8565b6106f2611a27565b6001600160a01b03166323b872dd610708611774565b6001600160a01b031663777c2caf866040518263ffffffff1660e01b815260040161073591815260200190565b602060405180830381865afa158015610752573d6000803e3d6000fd5b505050506040513d601f19601f8201168201806040525081019061077691906147fa565b6040516001600160e01b031960e084901b1681526001600160a01b039091166004820152306024820152604481018590526064016020604051808303816000875af11580156107c9573d6000803e3d6000fd5b505050506040513d601f19601f820116820180604052508101906107ed919061475d565b506103c583836119d0565b610804306103d96103e8565b61080c611a27565b6001600160a01b03166340c10f19610822611774565b6001600160a01b0316634f10aabc856040518263ffffffff1660e01b815260040161084f91815260200190565b602060405180830381865afa15801561086c573d6000803e3d6000fd5b505050506040513d601f19601f8201168201806040525081019061089091906147fa565b6040516001600160e01b031960e084901b1681526001600160a01b039091166004820152602481018490526044015b600060405180830381600087803b1580156108d957600080fd5b505af11580156108ed573d6000803e3d6000fd5b505050505050565b610901306103d96103e8565b610909611a27565b6040517f095ea7b30000000000000000000000000000000000000000000000000000000081526001600160a01b03848116600483015260248201849052919091169063095ea7b390604401610457565b610965306103d96103e8565b600061096f611774565b6001600160a01b031663777c2caf856040518263ffffffff1660e01b815260040161099c91815260200190565b602060405180830381865afa1580156109b9573d6000803e3d6000fd5b505050506040513d601f19601f820116820180604052508101906109dd91906147fa565b90506109e7611aa1565b6040517ff242432a0000000000000000000000000000000000000000000000000000000081523060048201526001600160a01b038381166024830152604482018690526064820185905260a06084830152600060a4830152919091169063f242432a9060c401600060405180830381600087803b158015610a6757600080fd5b505af1158015610a7b573d6000803e3d6000fd5b5050505050505050565b610a91306103d96103e8565b610a99611aa1565b6040517fa22cb4650000000000000000000000000000000000000000000000000000000081526001600160a01b0384811660048301528315156024830152919091169063a22cb465906044016108bf565b6000610af4611774565b6001600160a01b03166343def63884610b0b6103e8565b6040516001600160e01b031960e085901b16815260048101929092526001600160a01b03166024820152604401602060405180830381865afa158015610b55573d6000803e3d6000fd5b505050506040513d601f19601f82011682018060405250810190610b79919061475d565b15610c6957610b86611774565b6040517ff48a39720000000000000000000000000000000000000000000000000000000081526004810185905260006024820181905260448201526001600160a01b03919091169063f48a397290606401602060405180830381865afa158015610bf4573d6000803e3d6000fd5b505050506040513d601f19601f82011682018060405250810190610c18919061475d565b610c645760405162461bcd60e51b815260206004820152601a60248201527f63616e206f6e6c7920776974686472617720617420737061776e00000000000060448201526064016106d0565b610c75565b610c75306103d96103e8565b610c7f8383611b09565b610c87611a27565b6001600160a01b031663a9059cbb610c9d611774565b6001600160a01b031663777c2caf866040518263ffffffff1660e01b8152600401610cca91815260200190565b602060405180830381865afa158015610ce7573d6000803e3d6000fd5b505050506040513d601f19601f82011682018060405250810190610d0b91906147fa565b6040516001600160e01b031960e084901b1681526001600160a01b039091166004820152602481018590526044016020604051808303816000875af1158015610d58573d6000803e3d6000fd5b505050506040513d601f19601f82011682018060405250810190610d7c919061475d565b5092915050565b6000806060610d94306103d96103e8565b6000610d9f86611b72565b9050610def60405180610100016040528060008019168152602001600080191681526020016000815260200160008152602001600081526020016000815260200160608152602001606081525090565b604082015115801590610e0457506060820151155b610e505760405162461bcd60e51b815260206004820152601160248201527f496e76616c696420456e636f756e74657200000000000000000000000000000060448201526064016106d0565b610e58614223565b8260e0015115610e7d5761012083015160e083015261010083015160c0830152610e94565b61012083015160c083015261010083015160e08301525b60005b8260c0015151811015610f0e57610eca8360c001518281518110610ebd57610ebd61477a565b6020026020010151611c77565b91508160e001518360a001818151610ee291906147e7565b90525060a082015160001215610f065760808301805190610f0282614817565b9052505b600101610e97565b5060005b8260e0015151811015611035578260e001518181518110610f3557610f3561477a565b6020908102919091010151808452610f4c90611d1f565b6040840181905260a084015160009111610f7d57600584604001518560a00151610f769190614831565b1115610f80565b60015b9050610f8f8460000151611db9565b8015610f985750805b1561102c578351610fa890611e57565b610fb290896147e7565b9750610fc28360e001518a611ee9565b610fcc90886147e7565b8451909750610fdc906000611f18565b60c0840151805160009190610ff1908c614844565b815181106110015761100161477a565b6020026020010151905061101481611db9565b61102a576110278a866000015183611fcc565b96505b505b50600101610f12565b5060005b8260c00151518110156111a3578260c00151818151811061105c5761105c61477a565b6020026020010151836020018181525050611075611774565b6001600160a01b031663fa1becc484602001516040518263ffffffff1660e01b81526004016110a691815260200190565b602060405180830381865afa1580156110c3573d6000803e3d6000fd5b505050506040513d601f19601f820116820180604052508101906110e7919061475d565b1561119b576110f98360200151611c77565b915060008260a00151131561118d5785156111265761112683602001518460800151886103b591906147d3565b60008711801561113a575060008360800151115b1561118d57670de0b6b3a7640000611155846020015161050f565b6080850151611164908a6147d3565b61116e91906147a6565b61117891906147d3565b8260c00181815161118991906147e7565b9052505b61119b8360200151836122f2565b600101611039565b506111af88600161239b565b5050509250925092565b60008060606111ca306103d96103e8565b60006111d586611b72565b905061122560405180610100016040528060008019168152602001600080191681526020016000815260200160008152602001600081526020016000815260200160608152602001606081525090565b60408201511580159061123a57506060820151155b6112865760405162461bcd60e51b815260206004820152601160248201527f496e76616c696420456e636f756e74657200000000000000000000000000000060448201526064016106d0565b6000806000805b856101000151518110156112dd576112c286610100015182815181106112b5576112b561477a565b6020026020010151611db9565b156112d557816112d181614817565b9250505b60010161128d565b508461010001515181036112f057600192505b821561140e5760005b8561010001515181101561138a57600061133087610100015183815181106113235761132361477a565b6020026020010151612454565b9050600061133f6002836147d3565b905061134b818b6147e7565b995061138088610100015184815181106113675761136761477a565b6020026020010151828461137b9190614831565b6124e5565b50506001016112f9565b5060005b856101200151518110156114085760006113b887610120015183815181106113235761132361477a565b90506000876101200151518a6113ce91906147d3565b90506113fe88610120015184815181106113ea576113ea61477a565b6020026020010151828461137b91906147e7565b505060010161138e565b506114e8565b60005b8561012001515181101561147c57600061143b87610120015183815181106113235761132361477a565b9050600061144a6002836147d3565b9050611456818b6147e7565b995061147288610120015184815181106113675761136761477a565b5050600101611411565b5060005b856101000151518110156114e65760006114aa87610100015183815181106113235761132361477a565b90506000876101000151518a6114c091906147d3565b90506114dc88610100015184815181106113ea576113ea61477a565b5050600101611480565b505b50505050509250925092565b6115256115207f5544000000000000000000000000000000000000000000000000000000000000612599565b6125e6565b6001600160a01b03166115366103e8565b6001600160a01b03161461158c5760405162461bcd60e51b815260206004820152601560248201527f4954454d533a20496e76616c69642053797374656d000000000000000000000060448201526064016106d0565b6000611596611774565b6001600160a01b031663b8bfeca16115ad84612682565b6040518263ffffffff1660e01b81526004016115c9919061486e565b600060405180830381865afa1580156115e6573d6000803e3d6000fd5b505050506040513d6000823e601f3d908101601f1916820160405261160e91908101906148f5565b9050600061161a611774565b6001600160a01b031663777c2caf846040518263ffffffff1660e01b815260040161164791815260200190565b602060405180830381865afa158015611664573d6000803e3d6000fd5b505050506040513d601f19601f8201168201806040525081019061168891906147fa565b905060005b8251518110156105095761169f611aa1565b6001600160a01b031663f242432a3084866000015185815181106116c5576116c561477a565b6020026020010151876020015186815181106116e3576116e361477a565b60209081029190910101516040516001600160e01b031960e087901b1681526001600160a01b0394851660048201529390921660248401526044830152606482015260a06084820152600060a482015260c401600060405180830381600087803b15801561175057600080fd5b505af1158015611764573d6000803e3d6000fd5b50506001909201915061168d9050565b60006103f261272c565b60006103c582612454565b6000611793611774565b6001600160a01b0316634f10aabc846040518263ffffffff1660e01b81526004016117c091815260200190565b602060405180830381865afa1580156117dd573d6000803e3d6000fd5b505050506040513d601f19601f8201168201806040525081019061180191906147fa565b9050806001600160a01b03166118156103e8565b6001600160a01b03161461182f5761182f306103d96103e8565b611837611aa1565b6040517ff242432a0000000000000000000000000000000000000000000000000000000081526001600160a01b038381166004830152306024830152604482018590526001606483015260a06084830152600060a4830152919091169063f242432a9060c4015b600060405180830381600087803b1580156118b857600080fd5b505af11580156118cc573d6000803e3d6000fd5b50505050505050565b6118e1306103d96103e8565b60006118ec83612454565b90506118fc8361137b84846147e7565b611904611a27565b6040517f40c10f19000000000000000000000000000000000000000000000000000000008152306004820152602481018490526001600160a01b0391909116906340c10f199060440161189e565b60006001600160e01b031982167fb5dee1270000000000000000000000000000000000000000000000000000000014806103c557506001600160e01b031982167f01ffc9a7000000000000000000000000000000000000000000000000000000001492915050565b6119cc6119c683612736565b826127d3565b5050565b60006119db8361177e565b905060006119e983836147e7565b905061050984826124e5565b7fffffffffffffffffffffffffffffffffffffffffffffffffffffffffffffffcc36013560601c80611a245750335b90565b60006103f261281f565b60006003821115611a925750806000611a4b6002836147d3565b611a569060016147e7565b90505b81811015611a8c57905080600281611a7181866147d3565b611a7b91906147e7565b611a8591906147d3565b9050611a59565b50919050565b8115611a9c575060015b919050565b604080516000808252602082019092526000611aff7f74625544000000000000000000000000556c74696d617465446f6d696e696f6e8360037e99080001141414141414200000000000000000000000000000000000000000612879565b60601c9392505050565b6000611b148361177e565b905081811015611b665760405162461bcd60e51b815260206004820152601960248201527f6e6f7420656e6f75676820676f6c6420696e20657363726f770000000000000060448201526064016106d0565b60006119e98383614831565b611bcd6040805161014081019091528060008152602001600081526020016000815260200160001515815260200160008152602001600081526020016000815260200160001515815260200160608152602001606081525090565b604080516001808252818301909252600091602080830190803683370190505090508281600081518110611c0357611c0361477a565b602090810291909101015260008080611c5c7f74625544000000000000000000000000436f6d626174456e636f756e74657200857ea3080201202001202020010000000000000000000000000000000000000000612936565b925092509250611c6d838383612a06565b9695505050505050565b611c7f614223565b604080516001808252818301909252600091602080830190803683370190505090508281600081518110611cb557611cb561477a565b602090810291909101015260008080611d0e7f7462554400000000000000000000000053746174730000000000000000000000857ee1080020200120202020200000000000000000000000000000000000000000612936565b925092509250611c6d838383612ae9565b604080516001808252818301909252600091829190602080830190803683370190505090508281600081518110611d5857611d5861477a565b60209081029190910101526000611db17f74625544000000000000000000000000537461747300000000000000000000008360077ee1080020200120202020200000000000000000000000000000000000000000612879565b949350505050565b604080516001808252818301909252600091829190602080830190803683370190505090508281600081518110611df257611df261477a565b60209081029190910101526000611e4b7f74625544000000000000000000000000456e636f756e746572456e74697479008360017e41030120012000000000000000000000000000000000000000000000000000612879565b9050611db18160f81c90565b604080516001808252818301909252600091829190602080830190803683370190505090508281600081518110611e9057611e9061477a565b60209081029190910101526000611db17f74625544000000000000000000000000537461747300000000000000000000008360067ee1080020200120202020200000000000000000000000000000000000000000612879565b6000611efd83674563918244f400006147a6565b611f079083614844565b6105539066b1a2bc2ec500006147e7565b604080516001808252818301909252600091602080830190803683370190505090508281600081518110611f4e57611f4e61477a565b60200260200101818152505061049a7f74625544000000000000000000000000456e636f756e746572456e746974790060001b82600085604051602001611f9791815260200190565b60408051601f198184030181529190527e41030120012000000000000000000000000000000000000000000000000000612b61565b60606000611fd8611774565b6001600160a01b03166353d64640856040518263ffffffff1660e01b815260040161200591815260200190565b602060405180830381865afa158015612022573d6000803e3d6000fd5b505050506040513d601f19601f82011682018060405250810190612046919061499c565b9050600061205382612c16565b80602001905181019061206691906149c4565b905060008160c001515167ffffffffffffffff81111561208857612088614309565b6040519080825280602002602001820160405280156120b1578160200160208202803683370190505b50905060008060005b8460c0015151811015612208578460c0015181815181106120dd576120dd61477a565b6020026020010151915060006120f283612c8b565b9050806121036305f5e1008d614844565b10156121ff576121486040518060400160405280600c81526020017f4954454d2044524f50504544000000000000000000000000000000000000000081525084612d20565b612150611774565b6040517fcd9caca2000000000000000000000000000000000000000000000000000000008152600481018b905260248101859052600160448201526001600160a01b03919091169063cd9caca290606401600060405180830381600087803b1580156121bb57600080fd5b505af11580156121cf573d6000803e3d6000fd5b50505050828583815181106121e6576121e661477a565b6020908102919091010152836121fb81614817565b9450505b506001016120ba565b5060008267ffffffffffffffff81111561222457612224614309565b60405190808252806020026020018201604052801561224d578160200160208202803683370190505b50905082156122e5576000805b85518110156122e2578581815181106122755761227561477a565b60200260200101516000146122c9578581815181106122965761229661477a565b60200260200101518383815181106122b0576122b061477a565b6020908102919091010152816122c581614817565b9250505b8185146122e257806122da81614817565b91505061225a565b50505b9998505050505050505050565b6000612324826000015183602001518460400151856060015186608001518760a001518860c001518960e00151612d93565b6040805160018082528183019092529192506000916060918391906020808301908036833701905050905085816000815181106123635761236361477a565b60209081029190910101526108ed7f746255440000000000000000000000005374617473000000000000000000000082868686612dd1565b6040805160018082528183019092526000916020808301908036833701905050905082816000815181106123d1576123d161477a565b60200260200101818152505061049a7f74625544000000000000000000000000436f6d626174456e636f756e7465720060001b8260038560405160200161241f91151560f81b815260010190565b60408051601f198184030181529190527ea3080201202001202020010000000000000000000000000000000000000000612b61565b60408051600180825281830190925260009182919060208083019080368337019050509050828160008151811061248d5761248d61477a565b60209081029190910101526000611db17f74625544000000000000000000000000416476656e74757265457363726f770083837e20010020000000000000000000000000000000000000000000000000000000612879565b60408051600180825281830190925260009160208083019080368337019050509050828160008151811061251b5761251b61477a565b60200260200101818152505061049a7f74625544000000000000000000000000416476656e74757265457363726f770060001b8260008560405160200161256491815260200190565b60408051601f198184030181529190527e20010020000000000000000000000000000000000000000000000000000000612b61565b60006103c57f7379000000000000000000000000000000000000000000000000000000000000837f43686172616374657253797374656d0000000000000000000000000000000000612e47565b60408051600180825281830190925260009182919060208083019080368337019050509050828160008151811061261f5761261f61477a565b602090810291909101015260006126777f7462776f726c6400000000000000000053797374656d7300000000000000000083837e15020014010000000000000000000000000000000000000000000000000000612879565b60601c949350505050565b6040805160018082528183019092526000918291906020808301908036833701905050905082816000815181106126bb576126bb61477a565b602090810291909101015260006127147f74625544000000000000000000000000537461747300000000000000000000008360027ee1080020200120202020200000000000000000000000000000000000000000612879565b905060f881901c6002811115611db157611db1614858565b60006103f2612ebf565b60408051600180825281830190925260009182919060208083019080368337019050509050826001600160a01b031660001b8160008151811061277b5761277b61477a565b60209081029190910101526000611db17f7462776f726c6400000000000000000053797374656d5265676973747279000083837e20010020000000000000000000000000000000000000000000000000000000612879565b6127dd8282612ef9565b6119cc576127ea82612f57565b816040517fd787b7370000000000000000000000000000000000000000000000000000000081526004016106d0929190614adc565b604080516000808252602082019092526000611aff7f74625544000000000000000000000000556c74696d617465446f6d696e696f6e8360017e990800011414141414142000000000000000000000000000000000000000005b600080612884612ebf565b9050306001600160a01b038216036128aa576128a286868686613085565b915050611db1565b6040517f8c364d590000000000000000000000000000000000000000000000000000000081526001600160a01b03821690638c364d59906128f5908990899089908990600401614b43565b602060405180830381865afa158015612912573d6000803e3d6000fd5b505050506040513d601f19601f820116820180604052508101906128a2919061499c565b6060600060606000612946612ebf565b9050306001600160a01b0382160361296f576129638787876130bb565b935093509350506129fd565b6040517f419b58fd0000000000000000000000000000000000000000000000000000000081526001600160a01b0382169063419b58fd906129b8908a908a908a90600401614b72565b600060405180830381865afa1580156129d5573d6000803e3d6000fd5b505050506040513d6000823e601f3d908101601f191682016040526129639190810190614be0565b93509350939050565b612a616040805161014081019091528060008152602001600081526020016000815260200160001515815260200160008152602001600081526020016000815260200160001515815260200160608152602001606081525090565b612a6a846131c3565b80151560e08a015260c0890182905260a089018390526080890184905284151560608a0152604089018690526020890187905288886002811115612ab057612ab0614858565b6002811115612ac157612ac1614858565b8152505050505050505050612ad68383613247565b6101208301526101008201529392505050565b612af1614223565b612afa84613296565b60e0890181905260c0890182905260a089018390526080890184905260608901859052886020810160408201886002811115612b3857612b38614858565b6002811115612b4957612b49614858565b90529790975250505093909252509195945050505050565b6000612b6b612ebf565b9050306001600160a01b03821603612b8f57612b8a8686868686613304565b6108ed565b6040517f390baae00000000000000000000000000000000000000000000000000000000081526001600160a01b0382169063390baae090612bdc9089908990899089908990600401614c43565b600060405180830381600087803b158015612bf657600080fd5b505af1158015612c0a573d6000803e3d6000fd5b50505050505050505050565b60408051600180825281830190925260609160009190602080830190803683370190505090508260001b81600081518110612c5357612c5361477a565b60209081029190910101526000611db17f746255440000000000000000000000004d6f62730000000000000000000000008383613320565b604080516001808252818301909252600091829190602080830190803683370190505090508260001b81600081518110612cc757612cc761477a565b60209081029190910101526000611db17f746255440000000000000000000000004974656d7300000000000000000000008360017e41030101202000000000000000000000000000000000000000000000000000612879565b6119cc8282604051602401612d36929190614c8a565b60408051601f198184030181529190526020810180517bffffffffffffffffffffffffffffffffffffffffffffffffffffffff167f9710a9d0000000000000000000000000000000000000000000000000000000001790526133e7565b60608888888888888888604051602001612db4989796959493929190614cac565b604051602081830303815290604052905098975050505050505050565b6000612ddb612ebf565b9050306001600160a01b03821603612dfa57612b8a8686868686613408565b6040517f298314fb0000000000000000000000000000000000000000000000000000000081526001600160a01b0382169063298314fb90612bdc9089908990899089908990600401614d09565b6000612e55607060106147e7565b7fffff00000000000000000000000000000000000000000000000000000000000085167dffffffffffffffffffffffffffff00000000000000000000000000000000601086901c16176fffffffffffffffffffffffffffffffff19841690911c1790509392505050565b7f629a4c26e296b22a8e0856e9f6ecb2d1008d7e00081111962cd175fa7488e175546000906001600160a01b031680611a9c573391505090565b6000612f477f6e730000000000000000000000000000000000000000000000000000000000007dffffffffffffffffffffffffffff000000000000000000000000000000008516178361341e565b806105535750610553838361341e565b606081601081901b6000612f6a836134e7565b9050827fffffffffffffffffffffffffffff000000000000000000000000000000000000831615612fc557612fc07fffffffffffffffffffffffffffff00000000000000000000000000000000000084166134fe565b612ffc565b6040518060400160405280600681526020017f3c726f6f743e00000000000000000000000000000000000000000000000000008152505b6fffffffffffffffffffffffffffffffff198316156130235761301e836134fe565b61305a565b6040518060400160405280600681526020017f3c726f6f743e00000000000000000000000000000000000000000000000000008152505b60405160200161306c93929190614d5a565b6040516020818303038152906040529350505050919050565b60006130b26130948686613584565b60ff858116601b0360080285901c166130ad85876135da565b61360b565b95945050505050565b60606000606060006130cc8561365c565b90506130d987878361367f565b935060006130e6866136b8565b905080156131b8576130f888886136f5565b935066ffffffffffffff841667ffffffffffffffff81111561311c5761311c614309565b6040519080825280601f01601f191660200182016040528015613146576020820181803683370190505b5092506020830160005b828160ff1610156131b55760006131688b8b84613708565b90506000613185888460ff166028026038011c64ffffffffff1690565b90506131948260008387613788565b61319e81856147e7565b9350505080806131ad90614de8565b915050613150565b50505b505093509350939050565b6000806000806000806000806131dd896000016020015190565b60f81c60028111156131f1576131f1614858565b60218a015160418b015160618c0151929a509098509650613213905b60f81c90565b60628a015160828b015160a28c015160c28d01519398509196509450925061323a9061320d565b9050919395975091939597565b6060806000603885901c64ffffffffff1661326b613266868484613854565b6138e2565b935090508064ffffffffff606087901c160161328b613266868484613854565b925050509250929050565b6000806000806000806000806132b0896000016020015190565b60408a015160608b0151919950975060f81c60028111156132d3576132d3614858565b60618a015160818b015160a18c015160c18d015160e1909d01519b9d9a9c939b929a91995097509195509350915050565b613319858561331384876135da565b856138f3565b5050505050565b6060600061332c612ebf565b9050306001600160a01b0382160361335157613349858585613b8e565b915050610553565b6040517f1e7889770000000000000000000000000000000000000000000000000000000081526001600160a01b03821690631e7889779061339a90889088908890600401614e07565b600060405180830381865afa1580156133b7573d6000803e3d6000fd5b505050506040513d6000823e601f3d908101601f191682016040526133499190810190614e33565b509392505050565b80516a636f6e736f6c652e6c6f67602083016000808483855afa5050505050565b61331985858585856134198b613bc8565b613c4d565b6040805160028082526060820183526000928392919060208301908036833701905050905083816000815181106134575761345761477a565b602002602001018181525050826001600160a01b031660001b816001815181106134835761348361477a565b602090810291909101015260006134db7f7462776f726c640000000000000000005265736f75726365416363657373000083837e01010001000000000000000000000000000000000000000000000000000000612879565b90506130b28160f81c90565b60006134f5607060106147e7565b9190911b919050565b606060005b6010811015613554576fffffffffffffffffffffffffffffffff198316600882021b7fff00000000000000000000000000000000000000000000000000000000000000161561355457600101613503565b604080516fffffffffffffffffffffffffffffffff19851660208201528151603090910190915281815280611db1565b60008282604051602001613599929190614e68565b60408051601f1981840301815291905280516020909101207f86425bff6b57326c7859e89024fe4f238ca327a1ae4a230180dd2f0e88aaa7d9189392505050565b600080805b8360ff168110156133df5761360160ff601b83900360080287901c16836147e7565b91506001016135df565b6000602082106136315760208204840193506020828161362d5761362d6147bd565b0691505b508254600882021b6020829003808411156133df576001850154600882021c82179150509392505050565b6000600861366c60026020614831565b61367691906147a6565b9190911c919050565b60608160000361369e5750604080516020810190915260008152610553565b60006136aa8585613584565b90506130b281600085613f86565b600060086001806136cb60026020614831565b6136d59190614831565b6136df9190614831565b6136e991906147a6565b8260ff911c1692915050565b60006105536137048484613fa9565b5490565b6000838360405160200161371d929190614e68565b604051602081830303815290604052805190602001208260f81b7effffffffffffffffffffffffffffffffffffffffffffffffffffffffffffff19167f3b4102da22e32d82fc925482184f16c09fd4281692720b87d124aef6da48a0f1181860001c90509392505050565b821561380f57602083106137b2576020830484019350602083816137ae576137ae6147bd565b0692505b821561380f5760208390036000818410156137d55750600019600884021c6137df565b50600019600882021c5b8554600886021b818451168219821617845250818411613800575050610509565b50600194909401939182900391015b5b602082106138315783548152600190930192601f1990910190602001613810565b8115610509576000600019600884021c8251865482191691161782525050505050565b6000818311806138645750835182115b156138a1578383836040517f23230fa30000000000000000000000000000000000000000000000000000000081526004016106d093929190614ea4565b602084016138af84826147e7565b905060006138bd8585614831565b6fffffffffffffffffffffffffffffffff1660809290921b9190911795945050505050565b606060006105538360206000613fff565b7f6f74000000000000000000000000000000000000000000000000000000000000847fffff000000000000000000000000000000000000000000000000000000000000160361397d57837f8c0b5119d4cec7b284c6b1b39252a03d1e2f2d7451a5895562524c113bb952be84848460405161397093929190614ec9565b60405180910390a2610509565b60006139898585613584565b905060006139968661407a565b905060005b8151811015613a6b5760008282815181106139b8576139b861477a565b602002602001015190506139e46004826affffffffffffffffffffff191661410390919063ffffffff16565b15613a62576040517f964f667d000000000000000000000000000000000000000000000000000000008152606082901c9063964f667d90613a2f908b908b908b908b90600401614efc565b600060405180830381600087803b158015613a4957600080fd5b505af1158015613a5d573d6000803e3d6000fd5b505050505b5060010161399b565b50857f8c0b5119d4cec7b284c6b1b39252a03d1e2f2d7451a5895562524c113bb952be868686604051613aa093929190614ec9565b60405180910390a2613abb828565ffffffffffff1685614121565b60005b81518110156118cc576000828281518110613adb57613adb61477a565b60200260200101519050613b076008826affffffffffffffffffffff191661410390919063ffffffff16565b15613b85576040517fa8ba8721000000000000000000000000000000000000000000000000000000008152606082901c9063a8ba872190613b52908b908b908b908b90600401614efc565b600060405180830381600087803b158015613b6c57600080fd5b505af1158015613b80573d6000803e3d6000fd5b505050505b50600101613abe565b6060611db1613b9e858585613708565b6000613bc385613bae89896136f5565b9060ff166028026038011c64ffffffffff1690565b613f86565b60007f8b9d8c8b908d9affffffffffffffffffab9e9d939a8d000000000000000000008201613c1757507e60030220202000000000000000000000000000000000000000000000000000919050565b6103c5613c447f746273746f72650000000000000000005461626c65730000000000000000000084614137565b6020600061360b565b7f6f74000000000000000000000000000000000000000000000000000000000000867fffff0000000000000000000000000000000000000000000000000000000000001603613cd957857f8dbb3a9672eebfd3773e72dd9c102393436816d832c7ba9e1e1ac8fcadcac7a986868686604051613ccc9493929190614f40565b60405180910390a26108ed565b6000613ce48761407a565b905060005b8151811015613dbd576000828281518110613d0657613d0661477a565b60200260200101519050613d326001826affffffffffffffffffffff191661410390919063ffffffff16565b15613db4576040517f57066c9c000000000000000000000000000000000000000000000000000000008152606082901c906357066c9c90613d81908c908c908c908c908c908c90600401614f7f565b600060405180830381600087803b158015613d9b57600080fd5b505af1158015613daf573d6000803e3d6000fd5b505050505b50600101613ce9565b50867f8dbb3a9672eebfd3773e72dd9c102393436816d832c7ba9e1e1ac8fcadcac7a987878787604051613df49493929190614f40565b60405180910390a26000613e088888613584565b90506000602087019050613e20826000895184614153565b6000613e2b856136b8565b1115613eaf576000613e3d8a8a613fa9565b878155905060208601915060008060005b613e57886136b8565b8160ff161015613eaa57613e6c8d8d83613708565b9250613e878a8260ff166028026038011c64ffffffffff1690565b9150613e968360008488614153565b613ea082866147e7565b9450600101613e4e565b505050505b60005b8351811015612c0a576000848281518110613ecf57613ecf61477a565b60200260200101519050613efb6002826affffffffffffffffffffff191661410390919063ffffffff16565b15613f7d576040517f5b28cdaf000000000000000000000000000000000000000000000000000000008152606082901c90635b28cdaf90613f4a908e908e908e908e908e908e90600401614f7f565b600060405180830381600087803b158015613f6457600080fd5b505af1158015613f78573d6000803e3d6000fd5b505050505b50600101613eb2565b60405160208101601f19603f84840101166040528282526133df85858584613788565b60008282604051602001613fbe929190614e68565b60408051601f1981840301815291905280516020909101207f14e2fcc58e58e68ec7edc30c8d50dccc3ce2714a623ec81f46b6a63922d76569189392505050565b6060600061400d8560801c90565b90506fffffffffffffffffffffffffffffffff85166000858281614033576140336147bd565b04905060405193506020840160208202810160405281855260005b8281101561406e578451871c82529387019360209091019060010161404e565b50505050509392505050565b604080516001808252818301909252606091600091906020808301908036833701905050905082816000815181106140b4576140b461477a565b602090810291909101015260006140ec7f746273746f726500000000000000000053746f7265486f6f6b730000000000008383613b8e565b9050611db16140fe8260008451613854565b614212565b60008160ff16826141148560581c90565b1660ff1614905092915050565b61049a838383516141328560200190565b614153565b6040805160208101849052908101829052600090606001613599565b82156141cd576020831061417d57602083048401935060208381614179576141796147bd565b0692505b82156141cd5760208390036000600019600885021c1990506008850281811c91508351811c90508119875416828216178755508184116141be575050610509565b50600194909401939182900391015b5b602082106141ef5780518455600190930192601f19909101906020016141ce565b8115610509576000600019600884021c8554835182191691161785555050505050565b606060006105538360156000613fff565b60405180610100016040528060008152602001600081526020016000600281111561425057614250614858565b815260200160008152602001600081526020016000815260200160008152602001600081525090565b60006020828403121561428b57600080fd5b81356001600160e01b03198116811461055357600080fd5b600080604083850312156142b657600080fd5b50508035926020909101359150565b6001600160a01b03811681146142da57600080fd5b50565b600080604083850312156142f057600080fd5b82356142fb816142c5565b946020939093013593505050565b634e487b7160e01b600052604160045260246000fd5b604051610120810167ffffffffffffffff8111828210171561434357614343614309565b60405290565b604051601f8201601f1916810167ffffffffffffffff8111828210171561437257614372614309565b604052919050565b600067ffffffffffffffff82111561439457614394614309565b5060051b60200190565b600082601f8301126143af57600080fd5b813560206143c46143bf8361437a565b614349565b8083825260208201915060208460051b8701019350868411156143e657600080fd5b602086015b8481101561440257803583529183019183016143eb565b509695505050505050565b60008060006060848603121561442257600080fd5b833567ffffffffffffffff8082111561443a57600080fd5b818601915086601f83011261444e57600080fd5b8135602061445e6143bf8361437a565b82815260059290921b8401810191818101908a84111561447d57600080fd5b948201945b8386101561449b57853582529482019490820190614482565b975050870135925050808211156144b157600080fd5b6144bd8783880161439e565b935060408601359150808211156144d357600080fd5b506144e08682870161439e565b9150509250925092565b6000602082840312156144fc57600080fd5b5035919050565b60008060006060848603121561451857600080fd5b505081359360208301359350604090920135919050565b80151581146142da57600080fd5b6000806040838503121561455057600080fd5b823561455b816142c5565b9150602083013561456b8161452f565b809150509250929050565b60006060820185835260208560208501526060604085015281855180845260808601915060208701935060005b818110156145bf578451835293830193918301916001016145a3565b509098975050505050505050565b600067ffffffffffffffff8211156145e7576145e7614309565b50601f01601f191660200190565b600082601f83011261460657600080fd5b81356146146143bf826145cd565b81815284602083860101111561462957600080fd5b816020850160208301376000918101602001919091529392505050565b600080600080600060a0868803121561465e57600080fd5b8535614669816142c5565b94506020860135614679816142c5565b9350604086013567ffffffffffffffff8082111561469657600080fd5b6146a289838a0161439e565b945060608801359150808211156146b857600080fd5b6146c489838a0161439e565b935060808801359150808211156146da57600080fd5b506146e7888289016145f5565b9150509295509295909350565b600080600080600060a0868803121561470c57600080fd5b8535614717816142c5565b94506020860135614727816142c5565b93506040860135925060608601359150608086013567ffffffffffffffff81111561475157600080fd5b6146e7888289016145f5565b60006020828403121561476f57600080fd5b81516105538161452f565b634e487b7160e01b600052603260045260246000fd5b634e487b7160e01b600052601160045260246000fd5b80820281158282048414176103c5576103c5614790565b634e487b7160e01b600052601260045260246000fd5b6000826147e2576147e26147bd565b500490565b808201808211156103c5576103c5614790565b60006020828403121561480c57600080fd5b8151610553816142c5565b6000600019820361482a5761482a614790565b5060010190565b818103818111156103c5576103c5614790565b600082614853576148536147bd565b500690565b634e487b7160e01b600052602160045260246000fd5b602081016003831061489057634e487b7160e01b600052602160045260246000fd5b91905290565b600082601f8301126148a757600080fd5b815160206148b76143bf8361437a565b8083825260208201915060208460051b8701019350868411156148d957600080fd5b602086015b8481101561440257805183529183019183016148de565b60006020828403121561490757600080fd5b815167ffffffffffffffff8082111561491f57600080fd5b908301906040828603121561493357600080fd5b60405160408101818110838211171561494e5761494e614309565b60405282518281111561496057600080fd5b61496c87828601614896565b82525060208301518281111561498157600080fd5b61498d87828601614896565b60208301525095945050505050565b6000602082840312156149ae57600080fd5b5051919050565b805160038110611a9c57600080fd5b6000602082840312156149d657600080fd5b815167ffffffffffffffff808211156149ee57600080fd5b908301906101208286031215614a0357600080fd5b614a0b61431f565b8251815260208301516020820152614a25604084016149b5565b6040820152606083015160608201526080830151608082015260a083015160a082015260c083015182811115614a5a57600080fd5b614a6687828601614896565b60c08301525060e083810151908201526101009283015192810192909252509392505050565b60005b83811015614aa7578181015183820152602001614a8f565b50506000910152565b60008151808452614ac8816020860160208601614a8c565b601f01601f19169290920160200192915050565b604081526000614aef6040830185614ab0565b90506001600160a01b03831660208301529392505050565b60008151808452602080850194506020840160005b83811015614b3857815187529582019590820190600101614b1c565b509495945050505050565b848152608060208201526000614b5c6080830186614b07565b60ff949094166040830152506060015292915050565b838152606060208201526000614b8b6060830185614b07565b9050826040830152949350505050565b600082601f830112614bac57600080fd5b8151614bba6143bf826145cd565b818152846020838601011115614bcf57600080fd5b611db1826020830160208701614a8c565b600080600060608486031215614bf557600080fd5b835167ffffffffffffffff80821115614c0d57600080fd5b614c1987838801614b9b565b9450602086015193506040860151915080821115614c3657600080fd5b506144e086828701614b9b565b85815260a060208201526000614c5c60a0830187614b07565b60ff861660408401528281036060840152614c778186614ab0565b9150508260808301529695505050505050565b604081526000614c9d6040830185614ab0565b90508260208301529392505050565b888152876020820152600060038810614cd557634e487b7160e01b600052602160045260246000fd5b5060f89690961b604087015260418601949094526061850192909252608184015260a183015260c182015260e10192915050565b85815260a060208201526000614d2260a0830187614b07565b8281036040840152614d348187614ab0565b90508460608401528281036080840152614d4e8185614ab0565b98975050505050505050565b7fffff0000000000000000000000000000000000000000000000000000000000008416815260007f3a000000000000000000000000000000000000000000000000000000000000008060028401528451614dbb816003860160208901614a8c565b808401905081600382015284519150614ddb826004830160208801614a8c565b0160040195945050505050565b600060ff821660ff8103614dfe57614dfe614790565b60010192915050565b838152606060208201526000614e206060830185614b07565b905060ff83166040830152949350505050565b600060208284031215614e4557600080fd5b815167ffffffffffffffff811115614e5c57600080fd5b611db184828501614b9b565b8281526000602080830184516020860160005b82811015614e9757815184529284019290840190600101614e7b565b5091979650505050505050565b606081526000614eb76060830186614ab0565b60208301949094525060400152919050565b606081526000614edc6060830186614b07565b65ffffffffffff851660208401528281036040840152611c6d8185614ab0565b848152608060208201526000614f156080830186614b07565b65ffffffffffff851660408401528281036060840152614f358185614ab0565b979650505050505050565b608081526000614f536080830187614b07565b8281036020840152614f658187614ab0565b90508460408401528281036060840152614f358185614ab0565b86815260c060208201526000614f9860c0830188614b07565b8281036040840152614faa8188614ab0565b90508560608401528281036080840152614fc48186614ab0565b9150508260a083015297965050505050505056fea26469706673582212206723c507dc6ea9f8de0ea35ee7fb067053d249bc6f48c1dda5bf8ad8568b3fab64736f6c63430008180033","linkReferences":{}},"methodIdentifiers":{"_msgSender()":"119df25f","_msgValue()":"45ec9354","_world()":"e1af802c","calculateExpMultiplier(bytes32)":"3da0f962","consumeItem(bytes32,uint256)":"ea38fe63","depositToEscrow(bytes32,uint256)":"5b90c590","distributePveRewards(bytes32,uint256)":"9f48799c","distributePvpRewards(bytes32,uint256)":"b060475d","dropGoldToEscrow(bytes32,uint256)":"f33a0a68","dropGoldToPlayer(bytes32,uint256)":"5e354981","dropItem(bytes32,uint256,uint256)":"832e305c","dropItems(bytes32[],uint256[],uint256[])":"3722e0d1","getEscrowBalance(bytes32)":"e709de68","increaseEscrowBalance(bytes32,uint256)":"0722a703","issueStarterItems(bytes32)":"daf22fbd","onERC1155BatchReceived(address,address,uint256[],uint256[],bytes)":"bc197c81","onERC1155Received(address,address,uint256,uint256,bytes)":"f23a6e61","setGoldApproval(address,uint256)":"71a9f162","setItemsApproval(address,bool)":"9147852b","supportsInterface(bytes4)":"01ffc9a7","transferGold(address,uint256)":"1c39c7d5","withdrawFromEscrow(bytes32,uint256)":"98cab349"},"id":279}