{"abi":[{"type":"function","name":"_msgSender","inputs":[],"outputs":[{"name":"sender","type":"address","internalType":"address"}],"stateMutability":"view"},{"type":"function","name":"_msgValue","inputs":[],"outputs":[{"name":"value","type":"uint256","internalType":"uint256"}],"stateMutability":"pure"},{"type":"function","name":"_world","inputs":[],"outputs":[{"name":"","type":"address","internalType":"address"}],"stateMutability":"view"},{"type":"function","name":"calculateExpMultiplier","inputs":[{"name":"characterId","type":"bytes32","internalType":"bytes32"}],"outputs":[{"name":"_expMultiplier","type":"uint256","internalType":"uint256"}],"stateMutability":"view"},{"type":"function","name":"depositToEscrow","inputs":[{"name":"characterId","type":"bytes32","internalType":"bytes32"},{"name":"amount","type":"uint256","internalType":"uint256"}],"outputs":[{"name":"_balance","type":"uint256","internalType":"uint256"}],"stateMutability":"nonpayable"},{"type":"function","name":"distributePveRewards","inputs":[{"name":"encounterId","type":"bytes32","internalType":"bytes32"},{"name":"randomNumber","type":"uint256","internalType":"uint256"}],"outputs":[{"name":"_expAmount","type":"uint256","internalType":"uint256"},{"name":"_goldAmount","type":"uint256","internalType":"uint256"},{"name":"_itemIdsDropped","type":"uint256[]","internalType":"uint256[]"}],"stateMutability":"nonpayable"},{"type":"function","name":"distributePvpRewards","inputs":[{"name":"encounterId","type":"bytes32","internalType":"bytes32"},{"name":"randomNumber","type":"uint256","internalType":"uint256"}],"outputs":[{"name":"_expAmount","type":"uint256","internalType":"uint256"},{"name":"_goldAmount","type":"uint256","internalType":"uint256"},{"name":"_itemIdsDropped","type":"uint256[]","internalType":"uint256[]"}],"stateMutability":"nonpayable"},{"type":"function","name":"dropGoldToEscrow","inputs":[{"name":"characterId","type":"bytes32","internalType":"bytes32"},{"name":"amount","type":"uint256","internalType":"uint256"}],"outputs":[],"stateMutability":"nonpayable"},{"type":"function","name":"dropGoldToPlayer","inputs":[{"name":"characterId","type":"bytes32","internalType":"bytes32"},{"name":"amount","type":"uint256","internalType":"uint256"}],"outputs":[],"stateMutability":"nonpayable"},{"type":"function","name":"dropItem","inputs":[{"name":"characterId","type":"bytes32","internalType":"bytes32"},{"name":"itemId","type":"uint256","internalType":"uint256"},{"name":"amount","type":"uint256","internalType":"uint256"}],"outputs":[],"stateMutability":"nonpayable"},{"type":"function","name":"dropItems","inputs":[{"name":"characterIds","type":"bytes32[]","internalType":"bytes32[]"},{"name":"itemIds","type":"uint256[]","internalType":"uint256[]"},{"name":"amounts","type":"uint256[]","internalType":"uint256[]"}],"outputs":[],"stateMutability":"nonpayable"},{"type":"function","name":"getEscrowBalance","inputs":[{"name":"characterId","type":"bytes32","internalType":"bytes32"}],"outputs":[{"name":"_balance","type":"uint256","internalType":"uint256"}],"stateMutability":"view"},{"type":"function","name":"issueStarterItems","inputs":[{"name":"characterId","type":"bytes32","internalType":"bytes32"}],"outputs":[],"stateMutability":"nonpayable"},{"type":"function","name":"supportsInterface","inputs":[{"name":"interfaceId","type":"bytes4","internalType":"bytes4"}],"outputs":[{"name":"","type":"bool","internalType":"bool"}],"stateMutability":"pure"},{"type":"function","name":"withdrawFromEscrow","inputs":[{"name":"characterId","type":"bytes32","internalType":"bytes32"},{"name":"amount","type":"uint256","internalType":"uint256"}],"outputs":[{"name":"_balance","type":"uint256","internalType":"uint256"}],"stateMutability":"nonpayable"},{"type":"event","name":"Store_SetRecord","inputs":[{"name":"tableId","type":"bytes32","indexed":true,"internalType":"ResourceId"},{"name":"keyTuple","type":"bytes32[]","indexed":false,"internalType":"bytes32[]"},{"name":"staticData","type":"bytes","indexed":false,"internalType":"bytes"},{"name":"encodedLengths","type":"bytes32","indexed":false,"internalType":"EncodedLengths"},{"name":"dynamicData","type":"bytes","indexed":false,"internalType":"bytes"}],"anonymous":false},{"type":"event","name":"Store_SpliceStaticData","inputs":[{"name":"tableId","type":"bytes32","indexed":true,"internalType":"ResourceId"},{"name":"keyTuple","type":"bytes32[]","indexed":false,"internalType":"bytes32[]"},{"name":"start","type":"uint48","indexed":false,"internalType":"uint48"},{"name":"data","type":"bytes","indexed":false,"internalType":"bytes"}],"anonymous":false},{"type":"error","name":"Slice_OutOfBounds","inputs":[{"name":"data","type":"bytes","internalType":"bytes"},{"name":"start","type":"uint256","internalType":"uint256"},{"name":"end","type":"uint256","internalType":"uint256"}]},{"type":"error","name":"World_AccessDenied","inputs":[{"name":"resource","type":"string","internalType":"string"},{"name":"caller","type":"address","internalType":"address"}]}],"bytecode":{"object":"0x608060405234801561001057600080fd5b50614b29806100206000396000f3fe608060405234801561001057600080fd5b50600436106100f55760003560e01c8063832e305c11610097578063daf22fbd11610066578063daf22fbd14610204578063e1af802c14610217578063e709de681461021f578063f33a0a681461023257600080fd5b8063832e305c146101a957806398cab349146101bc5780639f48799c146101cf578063b060475d146101f157600080fd5b80633da0f962116100d35780633da0f9621461015757806345ec9354146101785780635b90c590146101835780635e3549811461019657600080fd5b806301ffc9a7146100fa578063119df25f146101225780633722e0d114610142575b600080fd5b61010d610108366004613f67565b610245565b60405190151581526020015b60405180910390f35b61012a6102de565b6040516001600160a01b039091168152602001610119565b6101556101503660046140ad565b6102ed565b005b61016a61016536600461418a565b61035d565b604051908152602001610119565b36601f19013561016a565b61016a6101913660046141a3565b6103a8565b6101556101a43660046141a3565b61067b565b6101556101b73660046141c5565b6107a1565b61016a6101ca3660046141a3565b6108d2565b6101e26101dd3660046141a3565b610b9b565b604051610119939291906141f1565b6101e26101ff3660046141a3565b610fd1565b61015561021236600461418a565b61130c565b61012a611589565b61016a61022d36600461418a565b611593565b6101556102403660046141a3565b61159e565b60007fffffffff0000000000000000000000000000000000000000000000000000000082167fb5dee1270000000000000000000000000000000000000000000000000000000014806102d857507fffffffff0000000000000000000000000000000000000000000000000000000082167f01ffc9a700000000000000000000000000000000000000000000000000000000145b92915050565b60006102e8611652565b905090565b60005b82518110156103575761034f84828151811061030e5761030e614248565b602002602001015184838151811061032857610328614248565b602002602001015184848151811061034257610342614248565b60200260200101516107a1565b6001016102f0565b50505050565b60008061036983611593565b9050670de0b6b3a7640000600261037f83611684565b61038d906305f5e100614274565b61039791906142a1565b6103a191906142b5565b9392505050565b60006103b2611589565b6001600160a01b03166343def638846103c96102de565b6040517fffffffff0000000000000000000000000000000000000000000000000000000060e085901b16815260048101929092526001600160a01b03166024820152604401602060405180830381865afa15801561042b573d6000803e3d6000fd5b505050506040513d601f19601f8201168201806040525081019061044f91906142c8565b156105445761045c611589565b6040517ff48a39720000000000000000000000000000000000000000000000000000000081526004810185905260006024820181905260448201526001600160a01b03919091169063f48a397290606401602060405180830381865afa1580156104ca573d6000803e3d6000fd5b505050506040513d601f19601f820116820180604052508101906104ee91906142c8565b61053f5760405162461bcd60e51b815260206004820152601960248201527f63616e206f6e6c79206465706f73697420617420737061776e0000000000000060448201526064015b60405180910390fd5b610555565b610555306105506102de565b6116f4565b61055d61170a565b6001600160a01b03166323b872dd610573611589565b6001600160a01b031663777c2caf866040518263ffffffff1660e01b81526004016105a091815260200190565b602060405180830381865afa1580156105bd573d6000803e3d6000fd5b505050506040513d601f19601f820116820180604052508101906105e191906142ea565b6040517fffffffff0000000000000000000000000000000000000000000000000000000060e084901b1681526001600160a01b039091166004820152306024820152604481018590526064016020604051808303816000875af115801561064c573d6000803e3d6000fd5b505050506040513d601f19601f8201168201806040525081019061067091906142c8565b506102d88383611714565b61069961068c61155160f21b611739565b6106946102de565b611786565b6106a161170a565b6001600160a01b03166340c10f196106b7611589565b6001600160a01b0316634f10aabc856040518263ffffffff1660e01b81526004016106e491815260200190565b602060405180830381865afa158015610701573d6000803e3d6000fd5b505050506040513d601f19601f8201168201806040525081019061072591906142ea565b6040517fffffffff0000000000000000000000000000000000000000000000000000000060e084901b1681526001600160a01b03909116600482015260248101849052604401600060405180830381600087803b15801561078557600080fd5b505af1158015610799573d6000803e3d6000fd5b505050505050565b6107b261068c61155160f21b611739565b60006107bc611589565b6001600160a01b031663777c2caf856040518263ffffffff1660e01b81526004016107e991815260200190565b602060405180830381865afa158015610806573d6000803e3d6000fd5b505050506040513d601f19601f8201168201806040525081019061082a91906142ea565b90506108346117d2565b6040517ff242432a0000000000000000000000000000000000000000000000000000000081523060048201526001600160a01b038381166024830152604482018690526064820185905260a06084830152600060a4830152919091169063f242432a9060c401600060405180830381600087803b1580156108b457600080fd5b505af11580156108c8573d6000803e3d6000fd5b5050505050505050565b60006108dc611589565b6001600160a01b03166343def638846108f36102de565b6040517fffffffff0000000000000000000000000000000000000000000000000000000060e085901b16815260048101929092526001600160a01b03166024820152604401602060405180830381865afa158015610955573d6000803e3d6000fd5b505050506040513d601f19601f8201168201806040525081019061097991906142c8565b15610a6957610986611589565b6040517ff48a39720000000000000000000000000000000000000000000000000000000081526004810185905260006024820181905260448201526001600160a01b03919091169063f48a397290606401602060405180830381865afa1580156109f4573d6000803e3d6000fd5b505050506040513d601f19601f82011682018060405250810190610a1891906142c8565b610a645760405162461bcd60e51b815260206004820152601a60248201527f63616e206f6e6c7920776974686472617720617420737061776e0000000000006044820152606401610536565b610a75565b610a75306105506102de565b610a7f838361183a565b610a8761170a565b6001600160a01b031663a9059cbb610a9d611589565b6001600160a01b031663777c2caf866040518263ffffffff1660e01b8152600401610aca91815260200190565b602060405180830381865afa158015610ae7573d6000803e3d6000fd5b505050506040513d601f19601f82011682018060405250810190610b0b91906142ea565b6040517fffffffff0000000000000000000000000000000000000000000000000000000060e084901b1681526001600160a01b039091166004820152602481018590526044016020604051808303816000875af1158015610b70573d6000803e3d6000fd5b505050506040513d601f19601f82011682018060405250810190610b9491906142c8565b5092915050565b6000806060610bac306105506102de565b6000610bb7866118a3565b9050610c0760405180610100016040528060008019168152602001600080191681526020016000815260200160008152602001600081526020016000815260200160608152602001606081525090565b604082015115801590610c1c57506060820151155b610c685760405162461bcd60e51b815260206004820152601160248201527f496e76616c696420456e636f756e7465720000000000000000000000000000006044820152606401610536565b610c70613f11565b8260e0015115610c955761012083015160e083015261010083015160c0830152610cac565b61012083015160c083015261010083015160e08301525b60005b8260c0015151811015610d2657610ce28360c001518281518110610cd557610cd5614248565b60200260200101516119a8565b91508160e001518360a001818151610cfa91906142b5565b90525060a082015160001215610d1e5760808301805190610d1a82614313565b9052505b600101610caf565b5060005b8260e0015151811015610e4d578260e001518181518110610d4d57610d4d614248565b6020908102919091010151808452610d6490611a50565b6040840181905260a084015160009111610d9557600584604001518560a00151610d8e919061432d565b1115610d98565b60015b9050610da78460000151611aea565b8015610db05750805b15610e44578351610dc090611b88565b610dca90896142b5565b9750610dda8360e001518a611c1a565b610de490886142b5565b8451909750610df4906000611c49565b60c0840151805160009190610e09908c614340565b81518110610e1957610e19614248565b60200260200101519050610e2c81611aea565b610e4257610e3f8a866000015183611d02565b96505b505b50600101610d2a565b5060005b8260c0015151811015610fbb578260c001518181518110610e7457610e74614248565b6020026020010151836020018181525050610e8d611589565b6001600160a01b031663fa1becc484602001516040518263ffffffff1660e01b8152600401610ebe91815260200190565b602060405180830381865afa158015610edb573d6000803e3d6000fd5b505050506040513d601f19601f82011682018060405250810190610eff91906142c8565b15610fb357610f1183602001516119a8565b915060008260a001511315610fa5578515610f3e57610f3e836020015184608001518861024091906142a1565b600087118015610f52575060008360800151115b15610fa557670de0b6b3a7640000610f6d846020015161035d565b6080850151610f7c908a6142a1565b610f869190614274565b610f9091906142a1565b8260c001818151610fa191906142b5565b9052505b610fb3836020015183612028565b600101610e51565b50610fc78860016120d1565b5050509250925092565b6000806060610fe2306105506102de565b6000610fed866118a3565b905061103d60405180610100016040528060008019168152602001600080191681526020016000815260200160008152602001600081526020016000815260200160608152602001606081525090565b60408201511580159061105257506060820151155b61109e5760405162461bcd60e51b815260206004820152601160248201527f496e76616c696420456e636f756e7465720000000000000000000000000000006044820152606401610536565b6000806000805b856101000151518110156110f5576110da86610100015182815181106110cd576110cd614248565b6020026020010151611aea565b156110ed57816110e981614313565b9250505b6001016110a5565b5084610100015151810361110857600192505b82156112265760005b856101000151518110156111a2576000611148876101000151838151811061113b5761113b614248565b602002602001015161218a565b905060006111576002836142a1565b9050611163818b6142b5565b9950611198886101000151848151811061117f5761117f614248565b60200260200101518284611193919061432d565b61221b565b5050600101611111565b5060005b856101200151518110156112205760006111d0876101200151838151811061113b5761113b614248565b90506000876101200151518a6111e691906142a1565b9050611216886101200151848151811061120257611202614248565b6020026020010151828461119391906142b5565b50506001016111a6565b50611300565b60005b85610120015151811015611294576000611253876101200151838151811061113b5761113b614248565b905060006112626002836142a1565b905061126e818b6142b5565b995061128a886101200151848151811061117f5761117f614248565b5050600101611229565b5060005b856101000151518110156112fe5760006112c2876101000151838151811061113b5761113b614248565b90506000876101000151518a6112d891906142a1565b90506112f4886101000151848151811061120257611202614248565b5050600101611298565b505b50505050509250925092565b61132261131d61155160f21b6122cf565b61231c565b6001600160a01b03166113336102de565b6001600160a01b0316146113895760405162461bcd60e51b815260206004820152601560248201527f4954454d533a20496e76616c69642053797374656d00000000000000000000006044820152606401610536565b6000611393611589565b6001600160a01b031663b8bfeca16113aa846123b8565b6040518263ffffffff1660e01b81526004016113c6919061436a565b600060405180830381865afa1580156113e3573d6000803e3d6000fd5b505050506040513d6000823e601f3d908101601f1916820160405261140b91908101906143f1565b90506000611417611589565b6001600160a01b031663777c2caf846040518263ffffffff1660e01b815260040161144491815260200190565b602060405180830381865afa158015611461573d6000803e3d6000fd5b505050506040513d601f19601f8201168201806040525081019061148591906142ea565b905060005b8251518110156103575761149c6117d2565b6001600160a01b031663f242432a3084866000015185815181106114c2576114c2614248565b6020026020010151876020015186815181106114e0576114e0614248565b60209081029190910101516040517fffffffff0000000000000000000000000000000000000000000000000000000060e087901b1681526001600160a01b0394851660048201529390921660248401526044830152606482015260a06084820152600060a482015260c401600060405180830381600087803b15801561156557600080fd5b505af1158015611579573d6000803e3d6000fd5b50506001909201915061148a9050565b60006102e8612462565b60006102d88261218a565b6115af61068c61155160f21b611739565b60006115ba8361218a565b90506115ca8361119384846142b5565b6115d261170a565b6040517f40c10f19000000000000000000000000000000000000000000000000000000008152306004820152602481018490526001600160a01b0391909116906340c10f1990604401600060405180830381600087803b15801561163557600080fd5b505af1158015611649573d6000803e3d6000fd5b50505050505050565b7fffffffffffffffffffffffffffffffffffffffffffffffffffffffffffffffcc36013560601c806116815750335b90565b600060038211156116e5575080600061169e6002836142a1565b6116a99060016142b5565b90505b818110156116df579050806002816116c481866142a1565b6116ce91906142b5565b6116d891906142a1565b90506116ac565b50919050565b81156116ef575060015b919050565b6117066117008361246c565b82611786565b5050565b60006102e8612509565b600061171f83611593565b9050600061172d83836142b5565b9050610357848261221b565b60006102d87f7379000000000000000000000000000000000000000000000000000000000000837f4c6f6f744d616e61676572537973746500000000000000000000000000000000612567565b61179082826125df565b6117065761179d8261263d565b816040517fd787b7370000000000000000000000000000000000000000000000000000000081526004016105369291906144e8565b6040805160008082526020820190925260006118307f74625544000000000000000000000000556c74696d617465446f6d696e696f6e8360057e8d08000114141414141414000000000000000000000000000000000000000061276b565b60601c9392505050565b600061184583611593565b9050818110156118975760405162461bcd60e51b815260206004820152601960248201527f6e6f7420656e6f75676820676f6c6420696e20657363726f77000000000000006044820152606401610536565b600061172d838361432d565b6118fe6040805161014081019091528060008152602001600081526020016000815260200160001515815260200160008152602001600081526020016000815260200160001515815260200160608152602001606081525090565b60408051600180825281830190925260009160208083019080368337019050509050828160008151811061193457611934614248565b60209081029190910101526000808061198d7f74625544000000000000000000000000436f6d626174456e636f756e74657200857ea3080201202001202020010000000000000000000000000000000000000000612828565b92509250925061199e8383836128f8565b9695505050505050565b6119b0613f11565b6040805160018082528183019092526000916020808301908036833701905050905082816000815181106119e6576119e6614248565b602090810291909101015260008080611a3f7f7462554400000000000000000000000053746174730000000000000000000000857ee1080020200120202020200000000000000000000000000000000000000000612828565b92509250925061199e8383836129db565b604080516001808252818301909252600091829190602080830190803683370190505090508281600081518110611a8957611a89614248565b60209081029190910101526000611ae27f74625544000000000000000000000000537461747300000000000000000000008360077ee108002020012020202020000000000000000000000000000000000000000061276b565b949350505050565b604080516001808252818301909252600091829190602080830190803683370190505090508281600081518110611b2357611b23614248565b60209081029190910101526000611b7c7f74625544000000000000000000000000456e636f756e746572456e74697479008360017e2102012001000000000000000000000000000000000000000000000000000061276b565b9050611ae28160f81c90565b604080516001808252818301909252600091829190602080830190803683370190505090508281600081518110611bc157611bc1614248565b60209081029190910101526000611ae27f74625544000000000000000000000000537461747300000000000000000000008360067ee108002020012020202020000000000000000000000000000000000000000061276b565b6000611c2e83674563918244f40000614274565b611c389083614340565b6103a19066b1a2bc2ec500006142b5565b604080516001808252818301909252600091602080830190803683370190505090508281600081518110611c7f57611c7f614248565b602002602001018181525050611cfd7f74625544000000000000000000000000456e636f756e746572456e746974790060001b82600085604051602001611cc891815260200190565b60408051601f198184030181529190527e21020120010000000000000000000000000000000000000000000000000000612a53565b505050565b60606000611d0e611589565b6001600160a01b03166353d64640856040518263ffffffff1660e01b8152600401611d3b91815260200190565b602060405180830381865afa158015611d58573d6000803e3d6000fd5b505050506040513d601f19601f82011682018060405250810190611d7c9190614513565b90506000611d8982612b08565b806020019051810190611d9c919061453b565b905060008160c001515167ffffffffffffffff811115611dbe57611dbe613fa9565b604051908082528060200260200182016040528015611de7578160200160208202803683370190505b50905060008060005b8460c0015151811015611f3e578460c001518181518110611e1357611e13614248565b602002602001015191506000611e2883612b7d565b905080611e396305f5e1008d614340565b1015611f3557611e7e6040518060400160405280600c81526020017f4954454d2044524f50504544000000000000000000000000000000000000000081525084612c12565b611e86611589565b6040517fcd9caca2000000000000000000000000000000000000000000000000000000008152600481018b905260248101859052600160448201526001600160a01b03919091169063cd9caca290606401600060405180830381600087803b158015611ef157600080fd5b505af1158015611f05573d6000803e3d6000fd5b5050505082858381518110611f1c57611f1c614248565b602090810291909101015283611f3181614313565b9450505b50600101611df0565b5060008267ffffffffffffffff811115611f5a57611f5a613fa9565b604051908082528060200260200182016040528015611f83578160200160208202803683370190505b509050821561201b576000805b855181101561201857858181518110611fab57611fab614248565b6020026020010151600014611fff57858181518110611fcc57611fcc614248565b6020026020010151838381518110611fe657611fe6614248565b602090810291909101015281611ffb81614313565b9250505b818514612018578061201081614313565b915050611f90565b50505b9998505050505050505050565b600061205a826000015183602001518460400151856060015186608001518760a001518860c001518960e00151612c85565b60408051600180825281830190925291925060009160609183919060208083019080368337019050509050858160008151811061209957612099614248565b60209081029190910101526107997f746255440000000000000000000000005374617473000000000000000000000082868686612cc3565b60408051600180825281830190925260009160208083019080368337019050509050828160008151811061210757612107614248565b602002602001018181525050611cfd7f74625544000000000000000000000000436f6d626174456e636f756e7465720060001b8260038560405160200161215591151560f81b815260010190565b60408051601f198184030181529190527ea3080201202001202020010000000000000000000000000000000000000000612a53565b6040805160018082528183019092526000918291906020808301908036833701905050905082816000815181106121c3576121c3614248565b60209081029190910101526000611ae27f74625544000000000000000000000000416476656e74757265457363726f770083837e2001002000000000000000000000000000000000000000000000000000000061276b565b60408051600180825281830190925260009160208083019080368337019050509050828160008151811061225157612251614248565b602002602001018181525050611cfd7f74625544000000000000000000000000416476656e74757265457363726f770060001b8260008560405160200161229a91815260200190565b60408051601f198184030181529190527e20010020000000000000000000000000000000000000000000000000000000612a53565b60006102d87f7379000000000000000000000000000000000000000000000000000000000000837f43686172616374657253797374656d0000000000000000000000000000000000612567565b60408051600180825281830190925260009182919060208083019080368337019050509050828160008151811061235557612355614248565b602090810291909101015260006123ad7f7462776f726c6400000000000000000053797374656d7300000000000000000083837e1502001401000000000000000000000000000000000000000000000000000061276b565b60601c949350505050565b6040805160018082528183019092526000918291906020808301908036833701905050905082816000815181106123f1576123f1614248565b6020908102919091010152600061244a7f74625544000000000000000000000000537461747300000000000000000000008360027ee108002020012020202020000000000000000000000000000000000000000061276b565b905060f881901c6002811115611ae257611ae2614354565b60006102e8612d39565b60408051600180825281830190925260009182919060208083019080368337019050509050826001600160a01b031660001b816000815181106124b1576124b1614248565b60209081029190910101526000611ae27f7462776f726c6400000000000000000053797374656d5265676973747279000083837e2001002000000000000000000000000000000000000000000000000000000061276b565b6040805160008082526020820190925260006118307f74625544000000000000000000000000556c74696d617465446f6d696e696f6e8360017e8d08000114141414141414000000000000000000000000000000000000000061276b565b6000612575607060106142b5565b7fffff00000000000000000000000000000000000000000000000000000000000085167dffffffffffffffffffffffffffff00000000000000000000000000000000601086901c16176fffffffffffffffffffffffffffffffff19841690911c1790509392505050565b600061262d7f6e730000000000000000000000000000000000000000000000000000000000007dffffffffffffffffffffffffffff0000000000000000000000000000000085161783612d73565b806103a157506103a18383612d73565b606081601081901b600061265083612e45565b9050827fffffffffffffffffffffffffffff0000000000000000000000000000000000008316156126ab576126a67fffffffffffffffffffffffffffff0000000000000000000000000000000000008416612e5c565b6126e2565b6040518060400160405280600681526020017f3c726f6f743e00000000000000000000000000000000000000000000000000008152505b6fffffffffffffffffffffffffffffffff198316156127095761270483612e5c565b612740565b6040518060400160405280600681526020017f3c726f6f743e00000000000000000000000000000000000000000000000000008152505b60405160200161275293929190614603565b6040516020818303038152906040529350505050919050565b600080612776612d39565b9050306001600160a01b0382160361279c5761279486868686612ee2565b915050611ae2565b6040517f8c364d590000000000000000000000000000000000000000000000000000000081526001600160a01b03821690638c364d59906127e79089908990899089906004016146cd565b602060405180830381865afa158015612804573d6000803e3d6000fd5b505050506040513d601f19601f820116820180604052508101906127949190614513565b6060600060606000612838612d39565b9050306001600160a01b0382160361286157612855878787612f0f565b935093509350506128ef565b6040517f419b58fd0000000000000000000000000000000000000000000000000000000081526001600160a01b0382169063419b58fd906128aa908a908a908a906004016146fc565b600060405180830381865afa1580156128c7573d6000803e3d6000fd5b505050506040513d6000823e601f3d908101601f191682016040526128559190810190614789565b93509350939050565b6129536040805161014081019091528060008152602001600081526020016000815260200160001515815260200160008152602001600081526020016000815260200160001515815260200160608152602001606081525090565b61295c84613017565b80151560e08a015260c0890182905260a089018390526080890184905284151560608a01526040890186905260208901879052888860028111156129a2576129a2614354565b60028111156129b3576129b3614354565b81525050505050505050506129c8838361309b565b6101208301526101008201529392505050565b6129e3613f11565b6129ec846130ea565b60e0890181905260c0890182905260a089018390526080890184905260608901859052886020810160408201886002811115612a2a57612a2a614354565b6002811115612a3b57612a3b614354565b90529790975250505093909252509195945050505050565b6000612a5d612d39565b9050306001600160a01b03821603612a8157612a7c8686868686613158565b610799565b6040517f390baae00000000000000000000000000000000000000000000000000000000081526001600160a01b0382169063390baae090612ace90899089908990899089906004016147ec565b600060405180830381600087803b158015612ae857600080fd5b505af1158015612afc573d6000803e3d6000fd5b50505050505050505050565b60408051600180825281830190925260609160009190602080830190803683370190505090508260001b81600081518110612b4557612b45614248565b60209081029190910101526000611ae27f746255440000000000000000000000004d6f62730000000000000000000000008383613174565b604080516001808252818301909252600091829190602080830190803683370190505090508260001b81600081518110612bb957612bb9614248565b60209081029190910101526000611ae27f746255440000000000000000000000004974656d7300000000000000000000008360017e2102010120000000000000000000000000000000000000000000000000000061276b565b6117068282604051602401612c28929190614833565b60408051601f198184030181529190526020810180517bffffffffffffffffffffffffffffffffffffffffffffffffffffffff167f9710a9d00000000000000000000000000000000000000000000000000000000017905261323b565b60608888888888888888604051602001612ca6989796959493929190614855565b604051602081830303815290604052905098975050505050505050565b6000612ccd612d39565b9050306001600160a01b03821603612cec57612a7c868686868661325c565b6040517f298314fb0000000000000000000000000000000000000000000000000000000081526001600160a01b0382169063298314fb90612ace90899089908990899089906004016148b2565b7f629a4c26e296b22a8e0856e9f6ecb2d1008d7e00081111962cd175fa7488e175546000906001600160a01b0316806116ef573391505090565b604080516002808252606082018352600092839291906020830190803683370190505090508381600081518110612dac57612dac614248565b602002602001018181525050826001600160a01b031660001b81600181518110612dd857612dd8614248565b60209081029190910101526000612e307f7462776f726c640000000000000000005265736f75726365416363657373000083837e0101000100000000000000000000000000000000000000000000000000000061276b565b9050612e3c8160f81c90565b95945050505050565b6000612e53607060106142b5565b9190911b919050565b606060005b6010811015612eb2576fffffffffffffffffffffffffffffffff198316600882021b7fff000000000000000000000000000000000000000000000000000000000000001615612eb257600101612e61565b604080516fffffffffffffffffffffffffffffffff19851660208201528151603090910190915281815280611ae2565b6000612e3c612ef18686613272565b60ff858116601b0360080285901c16612f0a85876132c8565b6132f9565b6060600060606000612f208561334a565b9050612f2d87878361336d565b93506000612f3a866133a6565b9050801561300c57612f4c88886133e3565b935066ffffffffffffff841667ffffffffffffffff811115612f7057612f70613fa9565b6040519080825280601f01601f191660200182016040528015612f9a576020820181803683370190505b5092506020830160005b828160ff161015613009576000612fbc8b8b846133f6565b90506000612fd9888460ff166028026038011c64ffffffffff1690565b9050612fe88260008387613476565b612ff281856142b5565b93505050808061300190614903565b915050612fa4565b50505b505093509350939050565b600080600080600080600080613031896000016020015190565b60f81c600281111561304557613045614354565b60218a015160418b015160618c0151929a509098509650613067905b60f81c90565b60628a015160828b015160a28c015160c28d01519398509196509450925061308e90613061565b9050919395975091939597565b6060806000603885901c64ffffffffff166130bf6130ba868484613542565b6135d0565b935090508064ffffffffff606087901c16016130df6130ba868484613542565b925050509250929050565b600080600080600080600080613104896000016020015190565b60408a015160608b0151919950975060f81c600281111561312757613127614354565b60618a015160818b015160a18c015160c18d015160e1909d01519b9d9a9c939b929a91995097509195509350915050565b61316d858561316784876132c8565b856135e1565b5050505050565b60606000613180612d39565b9050306001600160a01b038216036131a55761319d85858561387c565b9150506103a1565b6040517f1e7889770000000000000000000000000000000000000000000000000000000081526001600160a01b03821690631e788977906131ee90889088908890600401614922565b600060405180830381865afa15801561320b573d6000803e3d6000fd5b505050506040513d6000823e601f3d908101601f1916820160405261319d919081019061494e565b509392505050565b80516a636f6e736f6c652e6c6f67602083016000808483855afa5050505050565b61316d858585858561326d8b6138b6565b61393b565b60008282604051602001613287929190614983565b60408051601f1981840301815291905280516020909101207f86425bff6b57326c7859e89024fe4f238ca327a1ae4a230180dd2f0e88aaa7d9189392505050565b600080805b8360ff16811015613233576132ef60ff601b83900360080287901c16836142b5565b91506001016132cd565b60006020821061331f5760208204840193506020828161331b5761331b61428b565b0691505b508254600882021b602082900380841115613233576001850154600882021c82179150509392505050565b6000600861335a6002602061432d565b6133649190614274565b9190911c919050565b60608160000361338c57506040805160208101909152600081526103a1565b60006133988585613272565b9050612e3c81600085613c74565b600060086001806133b96002602061432d565b6133c3919061432d565b6133cd919061432d565b6133d79190614274565b8260ff911c1692915050565b60006103a16133f28484613c97565b5490565b6000838360405160200161340b929190614983565b604051602081830303815290604052805190602001208260f81b7effffffffffffffffffffffffffffffffffffffffffffffffffffffffffffff19167f3b4102da22e32d82fc925482184f16c09fd4281692720b87d124aef6da48a0f1181860001c90509392505050565b82156134fd57602083106134a05760208304840193506020838161349c5761349c61428b565b0692505b82156134fd5760208390036000818410156134c35750600019600884021c6134cd565b50600019600882021c5b8554600886021b8184511682198216178452508184116134ee575050610357565b50600194909401939182900391015b5b6020821061351f5783548152600190930192601f19909101906020016134fe565b8115610357576000600019600884021c8251865482191691161782525050505050565b6000818311806135525750835182115b1561358f578383836040517f23230fa3000000000000000000000000000000000000000000000000000000008152600401610536939291906149bf565b6020840161359d84826142b5565b905060006135ab858561432d565b6fffffffffffffffffffffffffffffffff1660809290921b9190911795945050505050565b606060006103a18360206000613ced565b7f6f74000000000000000000000000000000000000000000000000000000000000847fffff000000000000000000000000000000000000000000000000000000000000160361366b57837f8c0b5119d4cec7b284c6b1b39252a03d1e2f2d7451a5895562524c113bb952be84848460405161365e939291906149e4565b60405180910390a2610357565b60006136778585613272565b9050600061368486613d68565b905060005b81518110156137595760008282815181106136a6576136a6614248565b602002602001015190506136d26004826affffffffffffffffffffff1916613df190919063ffffffff16565b15613750576040517f964f667d000000000000000000000000000000000000000000000000000000008152606082901c9063964f667d9061371d908b908b908b908b90600401614a17565b600060405180830381600087803b15801561373757600080fd5b505af115801561374b573d6000803e3d6000fd5b505050505b50600101613689565b50857f8c0b5119d4cec7b284c6b1b39252a03d1e2f2d7451a5895562524c113bb952be86868660405161378e939291906149e4565b60405180910390a26137a9828565ffffffffffff1685613e0f565b60005b81518110156116495760008282815181106137c9576137c9614248565b602002602001015190506137f56008826affffffffffffffffffffff1916613df190919063ffffffff16565b15613873576040517fa8ba8721000000000000000000000000000000000000000000000000000000008152606082901c9063a8ba872190613840908b908b908b908b90600401614a17565b600060405180830381600087803b15801561385a57600080fd5b505af115801561386e573d6000803e3d6000fd5b505050505b506001016137ac565b6060611ae261388c8585856133f6565b60006138b18561389c89896133e3565b9060ff166028026038011c64ffffffffff1690565b613c74565b60007f8b9d8c8b908d9affffffffffffffffffab9e9d939a8d00000000000000000000820161390557507e60030220202000000000000000000000000000000000000000000000000000919050565b6102d86139327f746273746f72650000000000000000005461626c65730000000000000000000084613e25565b602060006132f9565b7f6f74000000000000000000000000000000000000000000000000000000000000867fffff00000000000000000000000000000000000000000000000000000000000016036139c757857f8dbb3a9672eebfd3773e72dd9c102393436816d832c7ba9e1e1ac8fcadcac7a9868686866040516139ba9493929190614a5b565b60405180910390a2610799565b60006139d287613d68565b905060005b8151811015613aab5760008282815181106139f4576139f4614248565b60200260200101519050613a206001826affffffffffffffffffffff1916613df190919063ffffffff16565b15613aa2576040517f57066c9c000000000000000000000000000000000000000000000000000000008152606082901c906357066c9c90613a6f908c908c908c908c908c908c90600401614a9a565b600060405180830381600087803b158015613a8957600080fd5b505af1158015613a9d573d6000803e3d6000fd5b505050505b506001016139d7565b50867f8dbb3a9672eebfd3773e72dd9c102393436816d832c7ba9e1e1ac8fcadcac7a987878787604051613ae29493929190614a5b565b60405180910390a26000613af68888613272565b90506000602087019050613b0e826000895184613e41565b6000613b19856133a6565b1115613b9d576000613b2b8a8a613c97565b878155905060208601915060008060005b613b45886133a6565b8160ff161015613b9857613b5a8d8d836133f6565b9250613b758a8260ff166028026038011c64ffffffffff1690565b9150613b848360008488613e41565b613b8e82866142b5565b9450600101613b3c565b505050505b60005b8351811015612afc576000848281518110613bbd57613bbd614248565b60200260200101519050613be96002826affffffffffffffffffffff1916613df190919063ffffffff16565b15613c6b576040517f5b28cdaf000000000000000000000000000000000000000000000000000000008152606082901c90635b28cdaf90613c38908e908e908e908e908e908e90600401614a9a565b600060405180830381600087803b158015613c5257600080fd5b505af1158015613c66573d6000803e3d6000fd5b505050505b50600101613ba0565b60405160208101601f19603f848401011660405282825261323385858584613476565b60008282604051602001613cac929190614983565b60408051601f1981840301815291905280516020909101207f14e2fcc58e58e68ec7edc30c8d50dccc3ce2714a623ec81f46b6a63922d76569189392505050565b60606000613cfb8560801c90565b90506fffffffffffffffffffffffffffffffff85166000858281613d2157613d2161428b565b04905060405193506020840160208202810160405281855260005b82811015613d5c578451871c825293870193602090910190600101613d3c565b50505050509392505050565b60408051600180825281830190925260609160009190602080830190803683370190505090508281600081518110613da257613da2614248565b60209081029190910101526000613dda7f746273746f726500000000000000000053746f7265486f6f6b73000000000000838361387c565b9050611ae2613dec8260008451613542565b613f00565b60008160ff1682613e028560581c90565b1660ff1614905092915050565b611cfd83838351613e208560200190565b613e41565b6040805160208101849052908101829052600090606001613287565b8215613ebb5760208310613e6b57602083048401935060208381613e6757613e6761428b565b0692505b8215613ebb5760208390036000600019600885021c1990506008850281811c91508351811c9050811987541682821617875550818411613eac575050610357565b50600194909401939182900391015b5b60208210613edd5780518455600190930192601f1990910190602001613ebc565b8115610357576000600019600884021c8554835182191691161785555050505050565b606060006103a18360156000613ced565b604051806101000160405280600081526020016000815260200160006002811115613f3e57613f3e614354565b815260200160008152602001600081526020016000815260200160008152602001600081525090565b600060208284031215613f7957600080fd5b81357fffffffff00000000000000000000000000000000000000000000000000000000811681146103a157600080fd5b634e487b7160e01b600052604160045260246000fd5b604051610120810167ffffffffffffffff81118282101715613fe357613fe3613fa9565b60405290565b604051601f8201601f1916810167ffffffffffffffff8111828210171561401257614012613fa9565b604052919050565b600067ffffffffffffffff82111561403457614034613fa9565b5060051b60200190565b600082601f83011261404f57600080fd5b8135602061406461405f8361401a565b613fe9565b8083825260208201915060208460051b87010193508684111561408657600080fd5b602086015b848110156140a2578035835291830191830161408b565b509695505050505050565b6000806000606084860312156140c257600080fd5b833567ffffffffffffffff808211156140da57600080fd5b818601915086601f8301126140ee57600080fd5b813560206140fe61405f8361401a565b82815260059290921b8401810191818101908a84111561411d57600080fd5b948201945b8386101561413b57853582529482019490820190614122565b9750508701359250508082111561415157600080fd5b61415d8783880161403e565b9350604086013591508082111561417357600080fd5b506141808682870161403e565b9150509250925092565b60006020828403121561419c57600080fd5b5035919050565b600080604083850312156141b657600080fd5b50508035926020909101359150565b6000806000606084860312156141da57600080fd5b505081359360208301359350604090920135919050565b60006060820185835260208560208501526060604085015281855180845260808601915060208701935060005b8181101561423a5784518352938301939183019160010161421e565b509098975050505050505050565b634e487b7160e01b600052603260045260246000fd5b634e487b7160e01b600052601160045260246000fd5b80820281158282048414176102d8576102d861425e565b634e487b7160e01b600052601260045260246000fd5b6000826142b0576142b061428b565b500490565b808201808211156102d8576102d861425e565b6000602082840312156142da57600080fd5b815180151581146103a157600080fd5b6000602082840312156142fc57600080fd5b81516001600160a01b03811681146103a157600080fd5b600060001982036143265761432661425e565b5060010190565b818103818111156102d8576102d861425e565b60008261434f5761434f61428b565b500690565b634e487b7160e01b600052602160045260246000fd5b602081016003831061438c57634e487b7160e01b600052602160045260246000fd5b91905290565b600082601f8301126143a357600080fd5b815160206143b361405f8361401a565b8083825260208201915060208460051b8701019350868411156143d557600080fd5b602086015b848110156140a257805183529183019183016143da565b60006020828403121561440357600080fd5b815167ffffffffffffffff8082111561441b57600080fd5b908301906040828603121561442f57600080fd5b60405160408101818110838211171561444a5761444a613fa9565b60405282518281111561445c57600080fd5b61446887828601614392565b82525060208301518281111561447d57600080fd5b61448987828601614392565b60208301525095945050505050565b60005b838110156144b357818101518382015260200161449b565b50506000910152565b600081518084526144d4816020860160208601614498565b601f01601f19169290920160200192915050565b6040815260006144fb60408301856144bc565b90506001600160a01b03831660208301529392505050565b60006020828403121561452557600080fd5b5051919050565b8051600381106116ef57600080fd5b60006020828403121561454d57600080fd5b815167ffffffffffffffff8082111561456557600080fd5b90830190610120828603121561457a57600080fd5b614582613fbf565b825181526020830151602082015261459c6040840161452c565b6040820152606083015160608201526080830151608082015260a083015160a082015260c0830151828111156145d157600080fd5b6145dd87828601614392565b60c08301525060e083810151908201526101009283015192810192909252509392505050565b7fffff0000000000000000000000000000000000000000000000000000000000008416815260007f3a000000000000000000000000000000000000000000000000000000000000008060028401528451614664816003860160208901614498565b808401905081600382015284519150614684826004830160208801614498565b0160040195945050505050565b60008151808452602080850194506020840160005b838110156146c2578151875295820195908201906001016146a6565b509495945050505050565b8481526080602082015260006146e66080830186614691565b60ff949094166040830152506060015292915050565b8381526060602082015260006147156060830185614691565b9050826040830152949350505050565b600082601f83011261473657600080fd5b815167ffffffffffffffff81111561475057614750613fa9565b6147636020601f19601f84011601613fe9565b81815284602083860101111561477857600080fd5b611ae2826020830160208701614498565b60008060006060848603121561479e57600080fd5b835167ffffffffffffffff808211156147b657600080fd5b6147c287838801614725565b94506020860151935060408601519150808211156147df57600080fd5b5061418086828701614725565b85815260a06020820152600061480560a0830187614691565b60ff86166040840152828103606084015261482081866144bc565b9150508260808301529695505050505050565b60408152600061484660408301856144bc565b90508260208301529392505050565b88815287602082015260006003881061487e57634e487b7160e01b600052602160045260246000fd5b5060f89690961b604087015260418601949094526061850192909252608184015260a183015260c182015260e10192915050565b85815260a0602082015260006148cb60a0830187614691565b82810360408401526148dd81876144bc565b905084606084015282810360808401526148f781856144bc565b98975050505050505050565b600060ff821660ff81036149195761491961425e565b60010192915050565b83815260606020820152600061493b6060830185614691565b905060ff83166040830152949350505050565b60006020828403121561496057600080fd5b815167ffffffffffffffff81111561497757600080fd5b611ae284828501614725565b8281526000602080830184516020860160005b828110156149b257815184529284019290840190600101614996565b5091979650505050505050565b6060815260006149d260608301866144bc565b60208301949094525060400152919050565b6060815260006149f76060830186614691565b65ffffffffffff85166020840152828103604084015261199e81856144bc565b848152608060208201526000614a306080830186614691565b65ffffffffffff851660408401528281036060840152614a5081856144bc565b979650505050505050565b608081526000614a6e6080830187614691565b8281036020840152614a8081876144bc565b90508460408401528281036060840152614a5081856144bc565b86815260c060208201526000614ab360c0830188614691565b8281036040840152614ac581886144bc565b90508560608401528281036080840152614adf81866144bc565b9150508260a083015297965050505050505056fea26469706673582212207c215c6c50dad1802eb0f38f8aed36121d18cc5472147552efcca4d4c50fd10e64736f6c63430008180033","linkReferences":{}},"methodIdentifiers":{"_msgSender()":"119df25f","_msgValue()":"45ec9354","_world()":"e1af802c","calculateExpMultiplier(bytes32)":"3da0f962","depositToEscrow(bytes32,uint256)":"5b90c590","distributePveRewards(bytes32,uint256)":"9f48799c","distributePvpRewards(bytes32,uint256)":"b060475d","dropGoldToEscrow(bytes32,uint256)":"f33a0a68","dropGoldToPlayer(bytes32,uint256)":"5e354981","dropItem(bytes32,uint256,uint256)":"832e305c","dropItems(bytes32[],uint256[],uint256[])":"3722e0d1","getEscrowBalance(bytes32)":"e709de68","issueStarterItems(bytes32)":"daf22fbd","supportsInterface(bytes4)":"01ffc9a7","withdrawFromEscrow(bytes32,uint256)":"98cab349"},"id":278}