{"abi":[{"type":"function","name":"_msgSender","inputs":[],"outputs":[{"name":"sender","type":"address","internalType":"address"}],"stateMutability":"view"},{"type":"function","name":"_msgValue","inputs":[],"outputs":[{"name":"value","type":"uint256","internalType":"uint256"}],"stateMutability":"pure"},{"type":"function","name":"_world","inputs":[],"outputs":[{"name":"","type":"address","internalType":"address"}],"stateMutability":"view"},{"type":"function","name":"calculateExpMultiplier","inputs":[{"name":"characterId","type":"bytes32","internalType":"bytes32"}],"outputs":[{"name":"_expMultiplier","type":"uint256","internalType":"uint256"}],"stateMutability":"view"},{"type":"function","name":"depositToEscrow","inputs":[{"name":"characterId","type":"bytes32","internalType":"bytes32"},{"name":"amount","type":"uint256","internalType":"uint256"}],"outputs":[{"name":"_balance","type":"uint256","internalType":"uint256"}],"stateMutability":"nonpayable"},{"type":"function","name":"distributePveRewards","inputs":[{"name":"encounterId","type":"bytes32","internalType":"bytes32"},{"name":"randomNumber","type":"uint256","internalType":"uint256"}],"outputs":[{"name":"_expAmount","type":"uint256","internalType":"uint256"},{"name":"_goldAmount","type":"uint256","internalType":"uint256"},{"name":"_itemIdsDropped","type":"uint256[]","internalType":"uint256[]"}],"stateMutability":"nonpayable"},{"type":"function","name":"distributePvpRewards","inputs":[{"name":"encounterId","type":"bytes32","internalType":"bytes32"},{"name":"randomNumber","type":"uint256","internalType":"uint256"}],"outputs":[{"name":"_expAmount","type":"uint256","internalType":"uint256"},{"name":"_goldAmount","type":"uint256","internalType":"uint256"},{"name":"_itemIdsDropped","type":"uint256[]","internalType":"uint256[]"}],"stateMutability":"nonpayable"},{"type":"function","name":"dropGold","inputs":[{"name":"characterId","type":"bytes32","internalType":"bytes32"},{"name":"amount","type":"uint256","internalType":"uint256"}],"outputs":[],"stateMutability":"nonpayable"},{"type":"function","name":"dropItem","inputs":[{"name":"characterId","type":"bytes32","internalType":"bytes32"},{"name":"itemId","type":"uint256","internalType":"uint256"},{"name":"amount","type":"uint256","internalType":"uint256"}],"outputs":[],"stateMutability":"nonpayable"},{"type":"function","name":"dropItems","inputs":[{"name":"characterIds","type":"bytes32[]","internalType":"bytes32[]"},{"name":"itemIds","type":"uint256[]","internalType":"uint256[]"},{"name":"amounts","type":"uint256[]","internalType":"uint256[]"}],"outputs":[],"stateMutability":"nonpayable"},{"type":"function","name":"getEscrowBalance","inputs":[{"name":"characterId","type":"bytes32","internalType":"bytes32"}],"outputs":[{"name":"_balance","type":"uint256","internalType":"uint256"}],"stateMutability":"view"},{"type":"function","name":"issueStarterItems","inputs":[{"name":"characterId","type":"bytes32","internalType":"bytes32"}],"outputs":[],"stateMutability":"nonpayable"},{"type":"function","name":"supportsInterface","inputs":[{"name":"interfaceId","type":"bytes4","internalType":"bytes4"}],"outputs":[{"name":"","type":"bool","internalType":"bool"}],"stateMutability":"pure"},{"type":"function","name":"withdrawFromEscrow","inputs":[{"name":"characterId","type":"bytes32","internalType":"bytes32"},{"name":"amount","type":"uint256","internalType":"uint256"}],"outputs":[{"name":"_balance","type":"uint256","internalType":"uint256"}],"stateMutability":"nonpayable"},{"type":"event","name":"Store_SetRecord","inputs":[{"name":"tableId","type":"bytes32","indexed":true,"internalType":"ResourceId"},{"name":"keyTuple","type":"bytes32[]","indexed":false,"internalType":"bytes32[]"},{"name":"staticData","type":"bytes","indexed":false,"internalType":"bytes"},{"name":"encodedLengths","type":"bytes32","indexed":false,"internalType":"EncodedLengths"},{"name":"dynamicData","type":"bytes","indexed":false,"internalType":"bytes"}],"anonymous":false},{"type":"event","name":"Store_SpliceStaticData","inputs":[{"name":"tableId","type":"bytes32","indexed":true,"internalType":"ResourceId"},{"name":"keyTuple","type":"bytes32[]","indexed":false,"internalType":"bytes32[]"},{"name":"start","type":"uint48","indexed":false,"internalType":"uint48"},{"name":"data","type":"bytes","indexed":false,"internalType":"bytes"}],"anonymous":false},{"type":"error","name":"Slice_OutOfBounds","inputs":[{"name":"data","type":"bytes","internalType":"bytes"},{"name":"start","type":"uint256","internalType":"uint256"},{"name":"end","type":"uint256","internalType":"uint256"}]},{"type":"error","name":"World_AccessDenied","inputs":[{"name":"resource","type":"string","internalType":"string"},{"name":"caller","type":"address","internalType":"address"}]}],"bytecode":{"object":"0x608060405234801561001057600080fd5b50614785806100206000396000f3fe608060405234801561001057600080fd5b50600436106100ea5760003560e01c806398cab3491161008c578063c538d2e111610066578063c538d2e1146101e6578063daf22fbd146101f9578063e1af802c1461020c578063e709de681461021457600080fd5b806398cab3491461019e5780639f48799c146101b1578063b060475d146101d357600080fd5b80633da0f962116100c85780633da0f9621461014c57806345ec93541461016d5780635b90c59014610178578063832e305c1461018b57600080fd5b806301ffc9a7146100ef578063119df25f146101175780633722e0d114610137575b600080fd5b6101026100fd366004613bc3565b610227565b60405190151581526020015b60405180910390f35b61011f6102c0565b6040516001600160a01b03909116815260200161010e565b61014a610145366004613d09565b6102cf565b005b61015f61015a366004613de6565b61033f565b60405190815260200161010e565b36601f19013561015f565b61015f610186366004613dff565b61038a565b61014a610199366004613e21565b61065d565b61015f6101ac366004613dff565b6107a8565b6101c46101bf366004613dff565b610a71565b60405161010e93929190613e4d565b6101c46101e1366004613dff565b610eac565b61014a6101f4366004613dff565b610ec4565b61014a610207366004613de6565b610ff8565b61011f611290565b61015f610222366004613de6565b61129a565b60007fffffffff0000000000000000000000000000000000000000000000000000000082167fb5dee1270000000000000000000000000000000000000000000000000000000014806102ba57507fffffffff0000000000000000000000000000000000000000000000000000000082167f01ffc9a700000000000000000000000000000000000000000000000000000000145b92915050565b60006102ca6112a5565b905090565b60005b8251811015610339576103318482815181106102f0576102f0613ea4565b602002602001015184838151811061030a5761030a613ea4565b602002602001015184848151811061032457610324613ea4565b602002602001015161065d565b6001016102d2565b50505050565b60008061034b8361129a565b9050670de0b6b3a76400006002610361836112d7565b61036f906305f5e100613ed0565b6103799190613efd565b6103839190613f11565b9392505050565b6000610394611290565b6001600160a01b03166343def638846103ab6102c0565b6040517fffffffff0000000000000000000000000000000000000000000000000000000060e085901b16815260048101929092526001600160a01b03166024820152604401602060405180830381865afa15801561040d573d6000803e3d6000fd5b505050506040513d601f19601f820116820180604052508101906104319190613f24565b156105265761043e611290565b6040517ff48a39720000000000000000000000000000000000000000000000000000000081526004810185905260006024820181905260448201526001600160a01b03919091169063f48a397290606401602060405180830381865afa1580156104ac573d6000803e3d6000fd5b505050506040513d601f19601f820116820180604052508101906104d09190613f24565b6105215760405162461bcd60e51b815260206004820152601960248201527f63616e206f6e6c79206465706f73697420617420737061776e0000000000000060448201526064015b60405180910390fd5b610537565b610537306105326102c0565b611347565b61053f61135d565b6001600160a01b03166323b872dd610555611290565b6001600160a01b031663777c2caf866040518263ffffffff1660e01b815260040161058291815260200190565b602060405180830381865afa15801561059f573d6000803e3d6000fd5b505050506040513d601f19601f820116820180604052508101906105c39190613f46565b6040517fffffffff0000000000000000000000000000000000000000000000000000000060e084901b1681526001600160a01b039091166004820152306024820152604481018590526064016020604051808303816000875af115801561062e573d6000803e3d6000fd5b505050506040513d601f19601f820116820180604052508101906106529190613f24565b506102ba8383611367565b6106966106897f554400000000000000000000000000000000000000000000000000000000000061138c565b6106916102c0565b6113d9565b60006106a0611290565b6001600160a01b031663777c2caf856040518263ffffffff1660e01b81526004016106cd91815260200190565b602060405180830381865afa1580156106ea573d6000803e3d6000fd5b505050506040513d601f19601f8201168201806040525081019061070e9190613f46565b9050610718611425565b6040517ffe99049a0000000000000000000000000000000000000000000000000000000081523060048201526001600160a01b0383811660248301526044820186905260648201859052919091169063fe99049a90608401600060405180830381600087803b15801561078a57600080fd5b505af115801561079e573d6000803e3d6000fd5b5050505050505050565b60006107b2611290565b6001600160a01b03166343def638846107c96102c0565b6040517fffffffff0000000000000000000000000000000000000000000000000000000060e085901b16815260048101929092526001600160a01b03166024820152604401602060405180830381865afa15801561082b573d6000803e3d6000fd5b505050506040513d601f19601f8201168201806040525081019061084f9190613f24565b1561093f5761085c611290565b6040517ff48a39720000000000000000000000000000000000000000000000000000000081526004810185905260006024820181905260448201526001600160a01b03919091169063f48a397290606401602060405180830381865afa1580156108ca573d6000803e3d6000fd5b505050506040513d601f19601f820116820180604052508101906108ee9190613f24565b61093a5760405162461bcd60e51b815260206004820152601a60248201527f63616e206f6e6c7920776974686472617720617420737061776e0000000000006044820152606401610518565b61094b565b61094b306105326102c0565b610955838361148d565b61095d61135d565b6001600160a01b031663a9059cbb610973611290565b6001600160a01b031663777c2caf866040518263ffffffff1660e01b81526004016109a091815260200190565b602060405180830381865afa1580156109bd573d6000803e3d6000fd5b505050506040513d601f19601f820116820180604052508101906109e19190613f46565b6040517fffffffff0000000000000000000000000000000000000000000000000000000060e084901b1681526001600160a01b039091166004820152602481018590526044016020604051808303816000875af1158015610a46573d6000803e3d6000fd5b505050506040513d601f19601f82011682018060405250810190610a6a9190613f24565b5092915050565b6000806060610a82306105326102c0565b6000610a8d866114f6565b9050610add60405180610100016040528060008019168152602001600080191681526020016000815260200160008152602001600081526020016000815260200160608152602001606081525090565b604082015115801590610af257506060820151155b610b3e5760405162461bcd60e51b815260206004820152601160248201527f496e76616c696420456e636f756e7465720000000000000000000000000000006044820152606401610518565b610b46613b6d565b8260e0015115610b6b5761012083015160e083015261010083015160c0830152610b82565b61012083015160c083015261010083015160e08301525b60005b8260c0015151811015610bfc57610bb88360c001518281518110610bab57610bab613ea4565b60200260200101516115fb565b91508160e001518360a001818151610bd09190613f11565b90525060a082015160001215610bf45760808301805190610bf082613f6f565b9052505b600101610b85565b5060005b8260e0015151811015610d23578260e001518181518110610c2357610c23613ea4565b6020908102919091010151808452610c3a906116a3565b6040840181905260a084015160009111610c6b57600584604001518560a00151610c649190613f89565b1115610c6e565b60015b9050610c7d846000015161173d565b8015610c865750805b15610d1a578351610c96906117db565b610ca09089613f11565b9750610cb08360e001518a61186d565b610cba9088613f11565b8451909750610cca90600061189c565b60c0840151805160009190610cdf908c613f9c565b81518110610cef57610cef613ea4565b60200260200101519050610d028161173d565b610d1857610d158a866000015183611955565b96505b505b50600101610c00565b5060005b8260c0015151811015610e96578260c001518181518110610d4a57610d4a613ea4565b6020026020010151836020018181525050610d63611290565b6001600160a01b031663fa1becc484602001516040518263ffffffff1660e01b8152600401610d9491815260200190565b602060405180830381865afa158015610db1573d6000803e3d6000fd5b505050506040513d601f19601f82011682018060405250810190610dd59190613f24565b15610e8e57610de783602001516115fb565b915060008260a001511315610e80578515610e1957610e198360200151846080015188610e149190613efd565b611367565b600087118015610e2d575060008360800151115b15610e8057670de0b6b3a7640000610e48846020015161033f565b6080850151610e57908a613efd565b610e619190613ed0565b610e6b9190613efd565b8260c001818151610e7c9190613f11565b9052505b610e8e836020015183611c7b565b600101610d27565b50610ea2886001611d24565b5050509250925092565b6000806060610ebd306105326102c0565b9250925092565b610ef06106897f554400000000000000000000000000000000000000000000000000000000000061138c565b610ef861135d565b6001600160a01b03166340c10f19610f0e611290565b6001600160a01b031663777c2caf856040518263ffffffff1660e01b8152600401610f3b91815260200190565b602060405180830381865afa158015610f58573d6000803e3d6000fd5b505050506040513d601f19601f82011682018060405250810190610f7c9190613f46565b6040517fffffffff0000000000000000000000000000000000000000000000000000000060e084901b1681526001600160a01b03909116600482015260248101849052604401600060405180830381600087803b158015610fdc57600080fd5b505af1158015610ff0573d6000803e3d6000fd5b505050505050565b6110296110247f5544000000000000000000000000000000000000000000000000000000000000611ddd565b611e2a565b6001600160a01b031661103a6102c0565b6001600160a01b0316146110905760405162461bcd60e51b815260206004820152601560248201527f4954454d533a20496e76616c69642053797374656d00000000000000000000006044820152606401610518565b600061109a611290565b6001600160a01b031663b8bfeca16110b184611ec6565b6040518263ffffffff1660e01b81526004016110cd9190613fc6565b600060405180830381865afa1580156110ea573d6000803e3d6000fd5b505050506040513d6000823e601f3d908101601f19168201604052611112919081019061404d565b9050600061111e611290565b6001600160a01b031663777c2caf846040518263ffffffff1660e01b815260040161114b91815260200190565b602060405180830381865afa158015611168573d6000803e3d6000fd5b505050506040513d601f19601f8201168201806040525081019061118c9190613f46565b905060005b825151811015610339576111a3611425565b6001600160a01b031663f242432a3084866000015185815181106111c9576111c9613ea4565b6020026020010151876020015186815181106111e7576111e7613ea4565b60209081029190910101516040517fffffffff0000000000000000000000000000000000000000000000000000000060e087901b1681526001600160a01b0394851660048201529390921660248401526044830152606482015260a06084820152600060a482015260c401600060405180830381600087803b15801561126c57600080fd5b505af1158015611280573d6000803e3d6000fd5b5050600190920191506111919050565b60006102ca611f70565b60006102ba82611f7a565b7fffffffffffffffffffffffffffffffffffffffffffffffffffffffffffffffcc36013560601c806112d45750335b90565b6000600382111561133857508060006112f1600283613efd565b6112fc906001613f11565b90505b81811015611332579050806002816113178186613efd565b6113219190613f11565b61132b9190613efd565b90506112ff565b50919050565b8115611342575060015b919050565b6113596113538361200b565b826113d9565b5050565b60006102ca6120a8565b60006113728361129a565b905060006113808383613f11565b90506103398482612106565b60006102ba7f7379000000000000000000000000000000000000000000000000000000000000837f4c6f6f744d616e616765725379737465000000000000000000000000000000006121ba565b6113e38282612232565b611359576113f082612290565b816040517fd787b737000000000000000000000000000000000000000000000000000000008152600401610518929190614144565b6040805160008082526020820190925260006114837f74625544000000000000000000000000556c74696d617465446f6d696e696f6e8360057e790700011414141414140000000000000000000000000000000000000000006123be565b60601c9392505050565b60006114988361129a565b9050818110156114ea5760405162461bcd60e51b815260206004820152601960248201527f6e6f7420656e6f75676820676f6c6420696e20657363726f77000000000000006044820152606401610518565b60006113808383613f89565b6115516040805161014081019091528060008152602001600081526020016000815260200160001515815260200160008152602001600081526020016000815260200160001515815260200160608152602001606081525090565b60408051600180825281830190925260009160208083019080368337019050509050828160008151811061158757611587613ea4565b6020908102919091010152600080806115e07f74625544000000000000000000000000436f6d626174456e636f756e74657200857ea308020120200120202001000000000000000000000000000000000000000061247b565b9250925092506115f183838361254b565b9695505050505050565b611603613b6d565b60408051600180825281830190925260009160208083019080368337019050509050828160008151811061163957611639613ea4565b6020908102919091010152600080806116927f7462554400000000000000000000000053746174730000000000000000000000857ee108002020012020202020000000000000000000000000000000000000000061247b565b9250925092506115f183838361262e565b6040805160018082528183019092526000918291906020808301908036833701905050905082816000815181106116dc576116dc613ea4565b602090810291909101015260006117357f74625544000000000000000000000000537461747300000000000000000000008360077ee10800202001202020202000000000000000000000000000000000000000006123be565b949350505050565b60408051600180825281830190925260009182919060208083019080368337019050509050828160008151811061177657611776613ea4565b602090810291909101015260006117cf7f74625544000000000000000000000000456e636f756e746572456e74697479008360017e210201200100000000000000000000000000000000000000000000000000006123be565b90506117358160f81c90565b60408051600180825281830190925260009182919060208083019080368337019050509050828160008151811061181457611814613ea4565b602090810291909101015260006117357f74625544000000000000000000000000537461747300000000000000000000008360067ee10800202001202020202000000000000000000000000000000000000000006123be565b600061188183674563918244f40000613ed0565b61188b9083613f9c565b6103839066b1a2bc2ec50000613f11565b6040805160018082528183019092526000916020808301908036833701905050905082816000815181106118d2576118d2613ea4565b6020026020010181815250506119507f74625544000000000000000000000000456e636f756e746572456e746974790060001b8260008560405160200161191b91815260200190565b60408051601f198184030181529190527e210201200100000000000000000000000000000000000000000000000000006126a6565b505050565b60606000611961611290565b6001600160a01b03166353d64640856040518263ffffffff1660e01b815260040161198e91815260200190565b602060405180830381865afa1580156119ab573d6000803e3d6000fd5b505050506040513d601f19601f820116820180604052508101906119cf919061416f565b905060006119dc8261275b565b8060200190518101906119ef9190614197565b905060008160c001515167ffffffffffffffff811115611a1157611a11613c05565b604051908082528060200260200182016040528015611a3a578160200160208202803683370190505b50905060008060005b8460c0015151811015611b91578460c001518181518110611a6657611a66613ea4565b602002602001015191506000611a7b836127d0565b905080611a8c6305f5e1008d613f9c565b1015611b8857611ad16040518060400160405280600c81526020017f4954454d2044524f50504544000000000000000000000000000000000000000081525084612865565b611ad9611290565b6040517fcd9caca2000000000000000000000000000000000000000000000000000000008152600481018b905260248101859052600160448201526001600160a01b03919091169063cd9caca290606401600060405180830381600087803b158015611b4457600080fd5b505af1158015611b58573d6000803e3d6000fd5b5050505082858381518110611b6f57611b6f613ea4565b602090810291909101015283611b8481613f6f565b9450505b50600101611a43565b5060008267ffffffffffffffff811115611bad57611bad613c05565b604051908082528060200260200182016040528015611bd6578160200160208202803683370190505b5090508215611c6e576000805b8551811015611c6b57858181518110611bfe57611bfe613ea4565b6020026020010151600014611c5257858181518110611c1f57611c1f613ea4565b6020026020010151838381518110611c3957611c39613ea4565b602090810291909101015281611c4e81613f6f565b9250505b818514611c6b5780611c6381613f6f565b915050611be3565b50505b9998505050505050505050565b6000611cad826000015183602001518460400151856060015186608001518760a001518860c001518960e001516128d8565b604080516001808252818301909252919250600091606091839190602080830190803683370190505090508581600081518110611cec57611cec613ea4565b6020908102919091010152610ff07f746255440000000000000000000000005374617473000000000000000000000082868686612916565b604080516001808252818301909252600091602080830190803683370190505090508281600081518110611d5a57611d5a613ea4565b6020026020010181815250506119507f74625544000000000000000000000000436f6d626174456e636f756e7465720060001b82600385604051602001611da891151560f81b815260010190565b60408051601f198184030181529190527ea30802012020012020200100000000000000000000000000000000000000006126a6565b60006102ba7f7379000000000000000000000000000000000000000000000000000000000000837f43686172616374657253797374656d00000000000000000000000000000000006121ba565b604080516001808252818301909252600091829190602080830190803683370190505090508281600081518110611e6357611e63613ea4565b60209081029190910101526000611ebb7f7462776f726c6400000000000000000053797374656d7300000000000000000083837e150200140100000000000000000000000000000000000000000000000000006123be565b60601c949350505050565b604080516001808252818301909252600091829190602080830190803683370190505090508281600081518110611eff57611eff613ea4565b60209081029190910101526000611f587f74625544000000000000000000000000537461747300000000000000000000008360027ee10800202001202020202000000000000000000000000000000000000000006123be565b905060f881901c600281111561173557611735613fb0565b60006102ca61298c565b604080516001808252818301909252600091829190602080830190803683370190505090508281600081518110611fb357611fb3613ea4565b602090810291909101015260006117357f74625544000000000000000000000000416476656e74757265457363726f770083837e200100200000000000000000000000000000000000000000000000000000006123be565b60408051600180825281830190925260009182919060208083019080368337019050509050826001600160a01b031660001b8160008151811061205057612050613ea4565b602090810291909101015260006117357f7462776f726c6400000000000000000053797374656d5265676973747279000083837e200100200000000000000000000000000000000000000000000000000000006123be565b6040805160008082526020820190925260006114837f74625544000000000000000000000000556c74696d617465446f6d696e696f6e8360017e790700011414141414140000000000000000000000000000000000000000006123be565b60408051600180825281830190925260009160208083019080368337019050509050828160008151811061213c5761213c613ea4565b6020026020010181815250506119507f74625544000000000000000000000000416476656e74757265457363726f770060001b8260008560405160200161218591815260200190565b60408051601f198184030181529190527e200100200000000000000000000000000000000000000000000000000000006126a6565b60006121c860706010613f11565b7fffff00000000000000000000000000000000000000000000000000000000000085167dffffffffffffffffffffffffffff00000000000000000000000000000000601086901c16176fffffffffffffffffffffffffffffffff19841690911c1790509392505050565b60006122807f6e730000000000000000000000000000000000000000000000000000000000007dffffffffffffffffffffffffffff00000000000000000000000000000000851617836129c6565b80610383575061038383836129c6565b606081601081901b60006122a383612a98565b9050827fffffffffffffffffffffffffffff0000000000000000000000000000000000008316156122fe576122f97fffffffffffffffffffffffffffff0000000000000000000000000000000000008416612aaf565b612335565b6040518060400160405280600681526020017f3c726f6f743e00000000000000000000000000000000000000000000000000008152505b6fffffffffffffffffffffffffffffffff1983161561235c5761235783612aaf565b612393565b6040518060400160405280600681526020017f3c726f6f743e00000000000000000000000000000000000000000000000000008152505b6040516020016123a59392919061425f565b6040516020818303038152906040529350505050919050565b6000806123c961298c565b9050306001600160a01b038216036123ef576123e786868686612b35565b915050611735565b6040517f8c364d590000000000000000000000000000000000000000000000000000000081526001600160a01b03821690638c364d599061243a908990899089908990600401614329565b602060405180830381865afa158015612457573d6000803e3d6000fd5b505050506040513d601f19601f820116820180604052508101906123e7919061416f565b606060006060600061248b61298c565b9050306001600160a01b038216036124b4576124a8878787612b62565b93509350935050612542565b6040517f419b58fd0000000000000000000000000000000000000000000000000000000081526001600160a01b0382169063419b58fd906124fd908a908a908a90600401614358565b600060405180830381865afa15801561251a573d6000803e3d6000fd5b505050506040513d6000823e601f3d908101601f191682016040526124a891908101906143e5565b93509350939050565b6125a66040805161014081019091528060008152602001600081526020016000815260200160001515815260200160008152602001600081526020016000815260200160001515815260200160608152602001606081525090565b6125af84612c6a565b80151560e08a015260c0890182905260a089018390526080890184905284151560608a01526040890186905260208901879052888860028111156125f5576125f5613fb0565b600281111561260657612606613fb0565b815250505050505050505061261b8383612cee565b6101208301526101008201529392505050565b612636613b6d565b61263f84612d3d565b60e0890181905260c0890182905260a08901839052608089018490526060890185905288602081016040820188600281111561267d5761267d613fb0565b600281111561268e5761268e613fb0565b90529790975250505093909252509195945050505050565b60006126b061298c565b9050306001600160a01b038216036126d4576126cf8686868686612dab565b610ff0565b6040517f390baae00000000000000000000000000000000000000000000000000000000081526001600160a01b0382169063390baae0906127219089908990899089908990600401614448565b600060405180830381600087803b15801561273b57600080fd5b505af115801561274f573d6000803e3d6000fd5b50505050505050505050565b60408051600180825281830190925260609160009190602080830190803683370190505090508260001b8160008151811061279857612798613ea4565b602090810291909101015260006117357f746255440000000000000000000000004d6f62730000000000000000000000008383612dc7565b604080516001808252818301909252600091829190602080830190803683370190505090508260001b8160008151811061280c5761280c613ea4565b602090810291909101015260006117357f746255440000000000000000000000004974656d7300000000000000000000008360017e210201012000000000000000000000000000000000000000000000000000006123be565b611359828260405160240161287b92919061448f565b60408051601f198184030181529190526020810180517bffffffffffffffffffffffffffffffffffffffffffffffffffffffff167f9710a9d000000000000000000000000000000000000000000000000000000000179052612e8e565b606088888888888888886040516020016128f99897969594939291906144b1565b604051602081830303815290604052905098975050505050505050565b600061292061298c565b9050306001600160a01b0382160361293f576126cf8686868686612eaf565b6040517f298314fb0000000000000000000000000000000000000000000000000000000081526001600160a01b0382169063298314fb90612721908990899089908990899060040161450e565b7f629a4c26e296b22a8e0856e9f6ecb2d1008d7e00081111962cd175fa7488e175546000906001600160a01b031680611342573391505090565b6040805160028082526060820183526000928392919060208301908036833701905050905083816000815181106129ff576129ff613ea4565b602002602001018181525050826001600160a01b031660001b81600181518110612a2b57612a2b613ea4565b60209081029190910101526000612a837f7462776f726c640000000000000000005265736f75726365416363657373000083837e010100010000000000000000000000000000000000000000000000000000006123be565b9050612a8f8160f81c90565b95945050505050565b6000612aa660706010613f11565b9190911b919050565b606060005b6010811015612b05576fffffffffffffffffffffffffffffffff198316600882021b7fff000000000000000000000000000000000000000000000000000000000000001615612b0557600101612ab4565b604080516fffffffffffffffffffffffffffffffff19851660208201528151603090910190915281815280611735565b6000612a8f612b448686612ec5565b60ff858116601b0360080285901c16612b5d8587612f1b565b612f4c565b6060600060606000612b7385612f9d565b9050612b80878783612fc0565b93506000612b8d86612ff9565b90508015612c5f57612b9f8888613036565b935066ffffffffffffff841667ffffffffffffffff811115612bc357612bc3613c05565b6040519080825280601f01601f191660200182016040528015612bed576020820181803683370190505b5092506020830160005b828160ff161015612c5c576000612c0f8b8b84613049565b90506000612c2c888460ff166028026038011c64ffffffffff1690565b9050612c3b82600083876130c9565b612c458185613f11565b935050508080612c549061455f565b915050612bf7565b50505b505093509350939050565b600080600080600080600080612c84896000016020015190565b60f81c6002811115612c9857612c98613fb0565b60218a015160418b015160618c0151929a509098509650612cba905b60f81c90565b60628a015160828b015160a28c015160c28d015193985091965094509250612ce190612cb4565b9050919395975091939597565b6060806000603885901c64ffffffffff16612d12612d0d868484613195565b613223565b935090508064ffffffffff606087901c1601612d32612d0d868484613195565b925050509250929050565b600080600080600080600080612d57896000016020015190565b60408a015160608b0151919950975060f81c6002811115612d7a57612d7a613fb0565b60618a015160818b015160a18c015160c18d015160e1909d01519b9d9a9c939b929a91995097509195509350915050565b612dc08585612dba8487612f1b565b85613234565b5050505050565b60606000612dd361298c565b9050306001600160a01b03821603612df857612df08585856134d8565b915050610383565b6040517f1e7889770000000000000000000000000000000000000000000000000000000081526001600160a01b03821690631e78897790612e419088908890889060040161457e565b600060405180830381865afa158015612e5e573d6000803e3d6000fd5b505050506040513d6000823e601f3d908101601f19168201604052612df091908101906145aa565b509392505050565b80516a636f6e736f6c652e6c6f67602083016000808483855afa5050505050565b612dc08585858585612ec08b613512565b613597565b60008282604051602001612eda9291906145df565b60408051601f1981840301815291905280516020909101207f86425bff6b57326c7859e89024fe4f238ca327a1ae4a230180dd2f0e88aaa7d9189392505050565b600080805b8360ff16811015612e8657612f4260ff601b83900360080287901c1683613f11565b9150600101612f20565b600060208210612f7257602082048401935060208281612f6e57612f6e613ee7565b0691505b508254600882021b602082900380841115612e86576001850154600882021c82179150509392505050565b60006008612fad60026020613f89565b612fb79190613ed0565b9190911c919050565b606081600003612fdf5750604080516020810190915260008152610383565b6000612feb8585612ec5565b9050612a8f816000856138d0565b6000600860018061300c60026020613f89565b6130169190613f89565b6130209190613f89565b61302a9190613ed0565b8260ff911c1692915050565b600061038361304584846138f3565b5490565b6000838360405160200161305e9291906145df565b604051602081830303815290604052805190602001208260f81b7effffffffffffffffffffffffffffffffffffffffffffffffffffffffffffff19167f3b4102da22e32d82fc925482184f16c09fd4281692720b87d124aef6da48a0f1181860001c90509392505050565b821561315057602083106130f3576020830484019350602083816130ef576130ef613ee7565b0692505b82156131505760208390036000818410156131165750600019600884021c613120565b50600019600882021c5b8554600886021b818451168219821617845250818411613141575050610339565b50600194909401939182900391015b5b602082106131725783548152600190930192601f1990910190602001613151565b8115610339576000600019600884021c8251865482191691161782525050505050565b6000818311806131a55750835182115b156131e2578383836040517f23230fa30000000000000000000000000000000000000000000000000000000081526004016105189392919061461b565b602084016131f08482613f11565b905060006131fe8585613f89565b6fffffffffffffffffffffffffffffffff1660809290921b9190911795945050505050565b606060006103838360206000613949565b7f6f74000000000000000000000000000000000000000000000000000000000000847fffff00000000000000000000000000000000000000000000000000000000000016036132be57837f8c0b5119d4cec7b284c6b1b39252a03d1e2f2d7451a5895562524c113bb952be8484846040516132b193929190614640565b60405180910390a2610339565b60006132ca8585612ec5565b905060006132d7866139c4565b905060005b81518110156133ac5760008282815181106132f9576132f9613ea4565b602002602001015190506133256004826affffffffffffffffffffff1916613a4d90919063ffffffff16565b156133a3576040517f964f667d000000000000000000000000000000000000000000000000000000008152606082901c9063964f667d90613370908b908b908b908b90600401614673565b600060405180830381600087803b15801561338a57600080fd5b505af115801561339e573d6000803e3d6000fd5b505050505b506001016132dc565b50857f8c0b5119d4cec7b284c6b1b39252a03d1e2f2d7451a5895562524c113bb952be8686866040516133e193929190614640565b60405180910390a26133fc828565ffffffffffff1685613a6b565b60005b81518110156134cf57600082828151811061341c5761341c613ea4565b602002602001015190506134486008826affffffffffffffffffffff1916613a4d90919063ffffffff16565b156134c6576040517fa8ba8721000000000000000000000000000000000000000000000000000000008152606082901c9063a8ba872190613493908b908b908b908b90600401614673565b600060405180830381600087803b1580156134ad57600080fd5b505af11580156134c1573d6000803e3d6000fd5b505050505b506001016133ff565b50505050505050565b60606117356134e8858585613049565b600061350d856134f88989613036565b9060ff166028026038011c64ffffffffff1690565b6138d0565b60007f8b9d8c8b908d9affffffffffffffffffab9e9d939a8d00000000000000000000820161356157507e60030220202000000000000000000000000000000000000000000000000000919050565b6102ba61358e7f746273746f72650000000000000000005461626c65730000000000000000000084613a81565b60206000612f4c565b7f6f74000000000000000000000000000000000000000000000000000000000000867fffff000000000000000000000000000000000000000000000000000000000000160361362357857f8dbb3a9672eebfd3773e72dd9c102393436816d832c7ba9e1e1ac8fcadcac7a98686868660405161361694939291906146b7565b60405180910390a2610ff0565b600061362e876139c4565b905060005b815181101561370757600082828151811061365057613650613ea4565b6020026020010151905061367c6001826affffffffffffffffffffff1916613a4d90919063ffffffff16565b156136fe576040517f57066c9c000000000000000000000000000000000000000000000000000000008152606082901c906357066c9c906136cb908c908c908c908c908c908c906004016146f6565b600060405180830381600087803b1580156136e557600080fd5b505af11580156136f9573d6000803e3d6000fd5b505050505b50600101613633565b50867f8dbb3a9672eebfd3773e72dd9c102393436816d832c7ba9e1e1ac8fcadcac7a98787878760405161373e94939291906146b7565b60405180910390a260006137528888612ec5565b9050600060208701905061376a826000895184613a9d565b600061377585612ff9565b11156137f95760006137878a8a6138f3565b878155905060208601915060008060005b6137a188612ff9565b8160ff1610156137f4576137b68d8d83613049565b92506137d18a8260ff166028026038011c64ffffffffff1690565b91506137e08360008488613a9d565b6137ea8286613f11565b9450600101613798565b505050505b60005b835181101561274f57600084828151811061381957613819613ea4565b602002602001015190506138456002826affffffffffffffffffffff1916613a4d90919063ffffffff16565b156138c7576040517f5b28cdaf000000000000000000000000000000000000000000000000000000008152606082901c90635b28cdaf90613894908e908e908e908e908e908e906004016146f6565b600060405180830381600087803b1580156138ae57600080fd5b505af11580156138c2573d6000803e3d6000fd5b505050505b506001016137fc565b60405160208101601f19603f8484010116604052828252612e86858585846130c9565b600082826040516020016139089291906145df565b60408051601f1981840301815291905280516020909101207f14e2fcc58e58e68ec7edc30c8d50dccc3ce2714a623ec81f46b6a63922d76569189392505050565b606060006139578560801c90565b90506fffffffffffffffffffffffffffffffff8516600085828161397d5761397d613ee7565b04905060405193506020840160208202810160405281855260005b828110156139b8578451871c825293870193602090910190600101613998565b50505050509392505050565b604080516001808252818301909252606091600091906020808301908036833701905050905082816000815181106139fe576139fe613ea4565b60209081029190910101526000613a367f746273746f726500000000000000000053746f7265486f6f6b7300000000000083836134d8565b9050611735613a488260008451613195565b613b5c565b60008160ff1682613a5e8560581c90565b1660ff1614905092915050565b61195083838351613a7c8560200190565b613a9d565b6040805160208101849052908101829052600090606001612eda565b8215613b175760208310613ac757602083048401935060208381613ac357613ac3613ee7565b0692505b8215613b175760208390036000600019600885021c1990506008850281811c91508351811c9050811987541682821617875550818411613b08575050610339565b50600194909401939182900391015b5b60208210613b395780518455600190930192601f1990910190602001613b18565b8115610339576000600019600884021c8554835182191691161785555050505050565b606060006103838360156000613949565b604051806101000160405280600081526020016000815260200160006002811115613b9a57613b9a613fb0565b815260200160008152602001600081526020016000815260200160008152602001600081525090565b600060208284031215613bd557600080fd5b81357fffffffff000000000000000000000000000000000000000000000000000000008116811461038357600080fd5b634e487b7160e01b600052604160045260246000fd5b604051610120810167ffffffffffffffff81118282101715613c3f57613c3f613c05565b60405290565b604051601f8201601f1916810167ffffffffffffffff81118282101715613c6e57613c6e613c05565b604052919050565b600067ffffffffffffffff821115613c9057613c90613c05565b5060051b60200190565b600082601f830112613cab57600080fd5b81356020613cc0613cbb83613c76565b613c45565b8083825260208201915060208460051b870101935086841115613ce257600080fd5b602086015b84811015613cfe5780358352918301918301613ce7565b509695505050505050565b600080600060608486031215613d1e57600080fd5b833567ffffffffffffffff80821115613d3657600080fd5b818601915086601f830112613d4a57600080fd5b81356020613d5a613cbb83613c76565b82815260059290921b8401810191818101908a841115613d7957600080fd5b948201945b83861015613d9757853582529482019490820190613d7e565b97505087013592505080821115613dad57600080fd5b613db987838801613c9a565b93506040860135915080821115613dcf57600080fd5b50613ddc86828701613c9a565b9150509250925092565b600060208284031215613df857600080fd5b5035919050565b60008060408385031215613e1257600080fd5b50508035926020909101359150565b600080600060608486031215613e3657600080fd5b505081359360208301359350604090920135919050565b60006060820185835260208560208501526060604085015281855180845260808601915060208701935060005b81811015613e9657845183529383019391830191600101613e7a565b509098975050505050505050565b634e487b7160e01b600052603260045260246000fd5b634e487b7160e01b600052601160045260246000fd5b80820281158282048414176102ba576102ba613eba565b634e487b7160e01b600052601260045260246000fd5b600082613f0c57613f0c613ee7565b500490565b808201808211156102ba576102ba613eba565b600060208284031215613f3657600080fd5b8151801515811461038357600080fd5b600060208284031215613f5857600080fd5b81516001600160a01b038116811461038357600080fd5b60006000198203613f8257613f82613eba565b5060010190565b818103818111156102ba576102ba613eba565b600082613fab57613fab613ee7565b500690565b634e487b7160e01b600052602160045260246000fd5b6020810160038310613fe857634e487b7160e01b600052602160045260246000fd5b91905290565b600082601f830112613fff57600080fd5b8151602061400f613cbb83613c76565b8083825260208201915060208460051b87010193508684111561403157600080fd5b602086015b84811015613cfe5780518352918301918301614036565b60006020828403121561405f57600080fd5b815167ffffffffffffffff8082111561407757600080fd5b908301906040828603121561408b57600080fd5b6040516040810181811083821117156140a6576140a6613c05565b6040528251828111156140b857600080fd5b6140c487828601613fee565b8252506020830151828111156140d957600080fd5b6140e587828601613fee565b60208301525095945050505050565b60005b8381101561410f5781810151838201526020016140f7565b50506000910152565b600081518084526141308160208601602086016140f4565b601f01601f19169290920160200192915050565b6040815260006141576040830185614118565b90506001600160a01b03831660208301529392505050565b60006020828403121561418157600080fd5b5051919050565b80516003811061134257600080fd5b6000602082840312156141a957600080fd5b815167ffffffffffffffff808211156141c157600080fd5b9083019061012082860312156141d657600080fd5b6141de613c1b565b82518152602083015160208201526141f860408401614188565b6040820152606083015160608201526080830151608082015260a083015160a082015260c08301518281111561422d57600080fd5b61423987828601613fee565b60c08301525060e083810151908201526101009283015192810192909252509392505050565b7fffff0000000000000000000000000000000000000000000000000000000000008416815260007f3a0000000000000000000000000000000000000000000000000000000000000080600284015284516142c08160038601602089016140f4565b8084019050816003820152845191506142e08260048301602088016140f4565b0160040195945050505050565b60008151808452602080850194506020840160005b8381101561431e57815187529582019590820190600101614302565b509495945050505050565b84815260806020820152600061434260808301866142ed565b60ff949094166040830152506060015292915050565b83815260606020820152600061437160608301856142ed565b9050826040830152949350505050565b600082601f83011261439257600080fd5b815167ffffffffffffffff8111156143ac576143ac613c05565b6143bf6020601f19601f84011601613c45565b8181528460208386010111156143d457600080fd5b6117358260208301602087016140f4565b6000806000606084860312156143fa57600080fd5b835167ffffffffffffffff8082111561441257600080fd5b61441e87838801614381565b945060208601519350604086015191508082111561443b57600080fd5b50613ddc86828701614381565b85815260a06020820152600061446160a08301876142ed565b60ff86166040840152828103606084015261447c8186614118565b9150508260808301529695505050505050565b6040815260006144a26040830185614118565b90508260208301529392505050565b8881528760208201526000600388106144da57634e487b7160e01b600052602160045260246000fd5b5060f89690961b604087015260418601949094526061850192909252608184015260a183015260c182015260e10192915050565b85815260a06020820152600061452760a08301876142ed565b82810360408401526145398187614118565b905084606084015282810360808401526145538185614118565b98975050505050505050565b600060ff821660ff810361457557614575613eba565b60010192915050565b83815260606020820152600061459760608301856142ed565b905060ff83166040830152949350505050565b6000602082840312156145bc57600080fd5b815167ffffffffffffffff8111156145d357600080fd5b61173584828501614381565b8281526000602080830184516020860160005b8281101561460e578151845292840192908401906001016145f2565b5091979650505050505050565b60608152600061462e6060830186614118565b60208301949094525060400152919050565b60608152600061465360608301866142ed565b65ffffffffffff8516602084015282810360408401526115f18185614118565b84815260806020820152600061468c60808301866142ed565b65ffffffffffff8516604084015282810360608401526146ac8185614118565b979650505050505050565b6080815260006146ca60808301876142ed565b82810360208401526146dc8187614118565b905084604084015282810360608401526146ac8185614118565b86815260c06020820152600061470f60c08301886142ed565b82810360408401526147218188614118565b9050856060840152828103608084015261473b8186614118565b9150508260a083015297965050505050505056fea2646970667358221220cb0b9d0d6f72d97c4cb03aa0306820cf8199fa1272e7fc6b0f8dad560f16644964736f6c63430008180033","linkReferences":{}},"methodIdentifiers":{"_msgSender()":"119df25f","_msgValue()":"45ec9354","_world()":"e1af802c","calculateExpMultiplier(bytes32)":"3da0f962","depositToEscrow(bytes32,uint256)":"5b90c590","distributePveRewards(bytes32,uint256)":"9f48799c","distributePvpRewards(bytes32,uint256)":"b060475d","dropGold(bytes32,uint256)":"c538d2e1","dropItem(bytes32,uint256,uint256)":"832e305c","dropItems(bytes32[],uint256[],uint256[])":"3722e0d1","getEscrowBalance(bytes32)":"e709de68","issueStarterItems(bytes32)":"daf22fbd","supportsInterface(bytes4)":"01ffc9a7","withdrawFromEscrow(bytes32,uint256)":"98cab349"},"id":261}