{"abi":[{"type":"function","name":"_msgSender","inputs":[],"outputs":[{"name":"sender","type":"address","internalType":"address"}],"stateMutability":"view"},{"type":"function","name":"_msgValue","inputs":[],"outputs":[{"name":"value","type":"uint256","internalType":"uint256"}],"stateMutability":"pure"},{"type":"function","name":"_world","inputs":[],"outputs":[{"name":"","type":"address","internalType":"address"}],"stateMutability":"view"},{"type":"function","name":"calculateExpMultiplier","inputs":[{"name":"characterId","type":"bytes32","internalType":"bytes32"}],"outputs":[{"name":"_expMultiplier","type":"uint256","internalType":"uint256"}],"stateMutability":"view"},{"type":"function","name":"consumeItem","inputs":[{"name":"characterId","type":"bytes32","internalType":"bytes32"},{"name":"itemId","type":"uint256","internalType":"uint256"}],"outputs":[],"stateMutability":"nonpayable"},{"type":"function","name":"depositToEscrow","inputs":[{"name":"characterId","type":"bytes32","internalType":"bytes32"},{"name":"amount","type":"uint256","internalType":"uint256"}],"outputs":[{"name":"_balance","type":"uint256","internalType":"uint256"}],"stateMutability":"nonpayable"},{"type":"function","name":"distributePveRewards","inputs":[{"name":"encounterId","type":"bytes32","internalType":"bytes32"},{"name":"randomNumber","type":"uint256","internalType":"uint256"}],"outputs":[{"name":"_expAmount","type":"uint256","internalType":"uint256"},{"name":"_goldAmount","type":"uint256","internalType":"uint256"},{"name":"_itemIdsDropped","type":"uint256[]","internalType":"uint256[]"}],"stateMutability":"nonpayable"},{"type":"function","name":"distributePvpRewards","inputs":[{"name":"encounterId","type":"bytes32","internalType":"bytes32"},{"name":"randomNumber","type":"uint256","internalType":"uint256"}],"outputs":[{"name":"_expAmount","type":"uint256","internalType":"uint256"},{"name":"_goldAmount","type":"uint256","internalType":"uint256"},{"name":"_itemIdsDropped","type":"uint256[]","internalType":"uint256[]"}],"stateMutability":"nonpayable"},{"type":"function","name":"dropGoldToEscrow","inputs":[{"name":"characterId","type":"bytes32","internalType":"bytes32"},{"name":"amount","type":"uint256","internalType":"uint256"}],"outputs":[],"stateMutability":"nonpayable"},{"type":"function","name":"dropGoldToPlayer","inputs":[{"name":"characterId","type":"bytes32","internalType":"bytes32"},{"name":"amount","type":"uint256","internalType":"uint256"}],"outputs":[],"stateMutability":"nonpayable"},{"type":"function","name":"dropItem","inputs":[{"name":"characterId","type":"bytes32","internalType":"bytes32"},{"name":"itemId","type":"uint256","internalType":"uint256"},{"name":"amount","type":"uint256","internalType":"uint256"}],"outputs":[],"stateMutability":"nonpayable"},{"type":"function","name":"dropItems","inputs":[{"name":"characterIds","type":"bytes32[]","internalType":"bytes32[]"},{"name":"itemIds","type":"uint256[]","internalType":"uint256[]"},{"name":"amounts","type":"uint256[]","internalType":"uint256[]"}],"outputs":[],"stateMutability":"nonpayable"},{"type":"function","name":"getEscrowBalance","inputs":[{"name":"characterId","type":"bytes32","internalType":"bytes32"}],"outputs":[{"name":"_balance","type":"uint256","internalType":"uint256"}],"stateMutability":"view"},{"type":"function","name":"issueStarterItems","inputs":[{"name":"characterId","type":"bytes32","internalType":"bytes32"}],"outputs":[],"stateMutability":"nonpayable"},{"type":"function","name":"onERC1155BatchReceived","inputs":[{"name":"","type":"address","internalType":"address"},{"name":"","type":"address","internalType":"address"},{"name":"","type":"uint256[]","internalType":"uint256[]"},{"name":"","type":"uint256[]","internalType":"uint256[]"},{"name":"","type":"bytes","internalType":"bytes"}],"outputs":[{"name":"","type":"bytes4","internalType":"bytes4"}],"stateMutability":"nonpayable"},{"type":"function","name":"onERC1155Received","inputs":[{"name":"","type":"address","internalType":"address"},{"name":"","type":"address","internalType":"address"},{"name":"","type":"uint256","internalType":"uint256"},{"name":"","type":"uint256","internalType":"uint256"},{"name":"","type":"bytes","internalType":"bytes"}],"outputs":[{"name":"","type":"bytes4","internalType":"bytes4"}],"stateMutability":"nonpayable"},{"type":"function","name":"setGoldApproval","inputs":[{"name":"spender","type":"address","internalType":"address"},{"name":"value","type":"uint256","internalType":"uint256"}],"outputs":[],"stateMutability":"nonpayable"},{"type":"function","name":"setItemsApproval","inputs":[{"name":"spender","type":"address","internalType":"address"},{"name":"approval","type":"bool","internalType":"bool"}],"outputs":[],"stateMutability":"nonpayable"},{"type":"function","name":"supportsInterface","inputs":[{"name":"interfaceId","type":"bytes4","internalType":"bytes4"}],"outputs":[{"name":"","type":"bool","internalType":"bool"}],"stateMutability":"pure"},{"type":"function","name":"transferGold","inputs":[{"name":"player","type":"address","internalType":"address"},{"name":"amount","type":"uint256","internalType":"uint256"}],"outputs":[],"stateMutability":"nonpayable"},{"type":"function","name":"withdrawFromEscrow","inputs":[{"name":"characterId","type":"bytes32","internalType":"bytes32"},{"name":"amount","type":"uint256","internalType":"uint256"}],"outputs":[{"name":"_balance","type":"uint256","internalType":"uint256"}],"stateMutability":"nonpayable"},{"type":"event","name":"Store_SetRecord","inputs":[{"name":"tableId","type":"bytes32","indexed":true,"internalType":"ResourceId"},{"name":"keyTuple","type":"bytes32[]","indexed":false,"internalType":"bytes32[]"},{"name":"staticData","type":"bytes","indexed":false,"internalType":"bytes"},{"name":"encodedLengths","type":"bytes32","indexed":false,"internalType":"EncodedLengths"},{"name":"dynamicData","type":"bytes","indexed":false,"internalType":"bytes"}],"anonymous":false},{"type":"event","name":"Store_SpliceStaticData","inputs":[{"name":"tableId","type":"bytes32","indexed":true,"internalType":"ResourceId"},{"name":"keyTuple","type":"bytes32[]","indexed":false,"internalType":"bytes32[]"},{"name":"start","type":"uint48","indexed":false,"internalType":"uint48"},{"name":"data","type":"bytes","indexed":false,"internalType":"bytes"}],"anonymous":false},{"type":"error","name":"Slice_OutOfBounds","inputs":[{"name":"data","type":"bytes","internalType":"bytes"},{"name":"start","type":"uint256","internalType":"uint256"},{"name":"end","type":"uint256","internalType":"uint256"}]},{"type":"error","name":"World_AccessDenied","inputs":[{"name":"resource","type":"string","internalType":"string"},{"name":"caller","type":"address","internalType":"address"}]}],"bytecode":{"object":"0x608060405234801561001057600080fd5b50614fca806100206000396000f3fe608060405234801561001057600080fd5b50600436106101775760003560e01c80639147852b116100d8578063daf22fbd1161008c578063ea38fe6311610066578063ea38fe631461033e578063f23a6e6114610351578063f33a0a681461038957600080fd5b8063daf22fbd14610310578063e1af802c14610323578063e709de681461032b57600080fd5b80639f48799c116100bd5780639f48799c1461028a578063b060475d146102ac578063bc197c81146102bf57600080fd5b80639147852b1461026457806398cab3491461027757600080fd5b806345ec93541161012f5780635e354981116101145780635e3549811461022b57806371a9f1621461023e578063832e305c1461025157600080fd5b806345ec93541461020d5780635b90c5901461021857600080fd5b80631c39c7d5116101605780631c39c7d5146101c45780633722e0d1146101d95780633da0f962146101ec57600080fd5b806301ffc9a71461017c578063119df25f146101a4575b600080fd5b61018f61018a366004614235565b61039c565b60405190151581526020015b60405180910390f35b6101ac6103ad565b6040516001600160a01b03909116815260200161019b565b6101d76101d2366004614277565b6103bc565b005b6101d76101e73660046143a7565b610469565b6101ff6101fa366004614484565b6104d9565b60405190815260200161019b565b36601f1901356101ff565b6101ff61022636600461449d565b610524565b6101d761023936600461449d565b6107c2565b6101d761024c366004614277565b6108bf565b6101d761025f3660046144bf565b610923565b6101d76102723660046144f9565b610a41565b6101ff61028536600461449d565b610aa6565b61029d61029836600461449d565b610d3f565b60405161019b93929190614532565b61029d6102ba36600461449d565b611175565b6102f76102cd366004614602565b7fbc197c810000000000000000000000000000000000000000000000000000000095945050505050565b6040516001600160e01b0319909116815260200161019b565b6101d761031e366004614484565b6114b0565b6101ac611730565b6101ff610339366004614484565b61173a565b6101d761034c36600461449d565b611745565b6102f761035f3660046146b0565b7ff23a6e610000000000000000000000000000000000000000000000000000000095945050505050565b6101d761039736600461449d565b611891565b60006103a78261190e565b92915050565b60006103b7611976565b905090565b6103cd306103c86103ad565b6119a8565b6103d56119be565b6040517fa9059cbb0000000000000000000000000000000000000000000000000000000081526001600160a01b03848116600483015260248201849052919091169063a9059cbb906044015b6020604051808303816000875af1158015610440573d6000803e3d6000fd5b505050506040513d601f19601f820116820180604052508101906104649190614719565b505050565b60005b82518110156104d3576104cb84828151811061048a5761048a614736565b60200260200101518483815181106104a4576104a4614736565b60200260200101518484815181106104be576104be614736565b6020026020010151610923565b60010161046c565b50505050565b6000806104e58361173a565b9050670de0b6b3a764000060026104fb836119c8565b610509906305f5e100614762565b610513919061478f565b61051d91906147a3565b9392505050565b600061052e611730565b6001600160a01b03166343def638846105456103ad565b6040516001600160e01b031960e085901b16815260048101929092526001600160a01b03166024820152604401602060405180830381865afa15801561058f573d6000803e3d6000fd5b505050506040513d601f19601f820116820180604052508101906105b39190614719565b156106a8576105c0611730565b6040517ff48a39720000000000000000000000000000000000000000000000000000000081526004810185905260006024820181905260448201526001600160a01b03919091169063f48a397290606401602060405180830381865afa15801561062e573d6000803e3d6000fd5b505050506040513d601f19601f820116820180604052508101906106529190614719565b6106a35760405162461bcd60e51b815260206004820152601960248201527f63616e206f6e6c79206465706f73697420617420737061776e0000000000000060448201526064015b60405180910390fd5b6106b4565b6106b4306103c86103ad565b6106bc6119be565b6001600160a01b03166323b872dd6106d2611730565b6001600160a01b031663777c2caf866040518263ffffffff1660e01b81526004016106ff91815260200190565b602060405180830381865afa15801561071c573d6000803e3d6000fd5b505050506040513d601f19601f8201168201806040525081019061074091906147b6565b6040516001600160e01b031960e084901b1681526001600160a01b039091166004820152306024820152604481018590526064016020604051808303816000875af1158015610793573d6000803e3d6000fd5b505050506040513d601f19601f820116820180604052508101906107b79190614719565b506103a78383611a38565b6107ce306103c86103ad565b6107d66119be565b6001600160a01b03166340c10f196107ec611730565b6001600160a01b0316634f10aabc856040518263ffffffff1660e01b815260040161081991815260200190565b602060405180830381865afa158015610836573d6000803e3d6000fd5b505050506040513d601f19601f8201168201806040525081019061085a91906147b6565b6040516001600160e01b031960e084901b1681526001600160a01b039091166004820152602481018490526044015b600060405180830381600087803b1580156108a357600080fd5b505af11580156108b7573d6000803e3d6000fd5b505050505050565b6108cb306103c86103ad565b6108d36119be565b6040517f095ea7b30000000000000000000000000000000000000000000000000000000081526001600160a01b03848116600483015260248201849052919091169063095ea7b390604401610421565b61092f306103c86103ad565b6000610939611730565b6001600160a01b031663777c2caf856040518263ffffffff1660e01b815260040161096691815260200190565b602060405180830381865afa158015610983573d6000803e3d6000fd5b505050506040513d601f19601f820116820180604052508101906109a791906147b6565b90506109b1611a5d565b6040517ffe99049a0000000000000000000000000000000000000000000000000000000081523060048201526001600160a01b0383811660248301526044820186905260648201859052919091169063fe99049a90608401600060405180830381600087803b158015610a2357600080fd5b505af1158015610a37573d6000803e3d6000fd5b5050505050505050565b610a4d306103c86103ad565b610a55611a5d565b6040517fa22cb4650000000000000000000000000000000000000000000000000000000081526001600160a01b0384811660048301528315156024830152919091169063a22cb46590604401610889565b6000610ab0611730565b6001600160a01b03166343def63884610ac76103ad565b6040516001600160e01b031960e085901b16815260048101929092526001600160a01b03166024820152604401602060405180830381865afa158015610b11573d6000803e3d6000fd5b505050506040513d601f19601f82011682018060405250810190610b359190614719565b15610c2557610b42611730565b6040517ff48a39720000000000000000000000000000000000000000000000000000000081526004810185905260006024820181905260448201526001600160a01b03919091169063f48a397290606401602060405180830381865afa158015610bb0573d6000803e3d6000fd5b505050506040513d601f19601f82011682018060405250810190610bd49190614719565b610c205760405162461bcd60e51b815260206004820152601a60248201527f63616e206f6e6c7920776974686472617720617420737061776e000000000000604482015260640161069a565b610c31565b610c31306103c86103ad565b610c3b8383611ac5565b610c436119be565b6001600160a01b031663a9059cbb610c59611730565b6001600160a01b031663777c2caf866040518263ffffffff1660e01b8152600401610c8691815260200190565b602060405180830381865afa158015610ca3573d6000803e3d6000fd5b505050506040513d601f19601f82011682018060405250810190610cc791906147b6565b6040516001600160e01b031960e084901b1681526001600160a01b039091166004820152602481018590526044016020604051808303816000875af1158015610d14573d6000803e3d6000fd5b505050506040513d601f19601f82011682018060405250810190610d389190614719565b5092915050565b6000806060610d50306103c86103ad565b6000610d5b86611b2e565b9050610dab60405180610100016040528060008019168152602001600080191681526020016000815260200160008152602001600081526020016000815260200160608152602001606081525090565b604082015115801590610dc057506060820151155b610e0c5760405162461bcd60e51b815260206004820152601160248201527f496e76616c696420456e636f756e746572000000000000000000000000000000604482015260640161069a565b610e146141df565b8260e0015115610e395761012083015160e083015261010083015160c0830152610e50565b61012083015160c083015261010083015160e08301525b60005b8260c0015151811015610eca57610e868360c001518281518110610e7957610e79614736565b6020026020010151611c33565b91508160e001518360a001818151610e9e91906147a3565b90525060a082015160001215610ec25760808301805190610ebe826147d3565b9052505b600101610e53565b5060005b8260e0015151811015610ff1578260e001518181518110610ef157610ef1614736565b6020908102919091010151808452610f0890611cdb565b6040840181905260a084015160009111610f3957600584604001518560a00151610f3291906147ed565b1115610f3c565b60015b9050610f4b8460000151611d75565b8015610f545750805b15610fe8578351610f6490611e13565b610f6e90896147a3565b9750610f7e8360e001518a611ea5565b610f8890886147a3565b8451909750610f98906000611ed4565b60c0840151805160009190610fad908c614800565b81518110610fbd57610fbd614736565b60200260200101519050610fd081611d75565b610fe657610fe38a866000015183611f88565b96505b505b50600101610ece565b5060005b8260c001515181101561115f578260c00151818151811061101857611018614736565b6020026020010151836020018181525050611031611730565b6001600160a01b031663fa1becc484602001516040518263ffffffff1660e01b815260040161106291815260200190565b602060405180830381865afa15801561107f573d6000803e3d6000fd5b505050506040513d601f19601f820116820180604052508101906110a39190614719565b15611157576110b58360200151611c33565b915060008260a0015113156111495785156110e2576110e28360200151846080015188610397919061478f565b6000871180156110f6575060008360800151115b1561114957670de0b6b3a764000061111184602001516104d9565b6080850151611120908a61478f565b61112a9190614762565b611134919061478f565b8260c00181815161114591906147a3565b9052505b6111578360200151836122ae565b600101610ff5565b5061116b886001612357565b5050509250925092565b6000806060611186306103c86103ad565b600061119186611b2e565b90506111e160405180610100016040528060008019168152602001600080191681526020016000815260200160008152602001600081526020016000815260200160608152602001606081525090565b6040820151158015906111f657506060820151155b6112425760405162461bcd60e51b815260206004820152601160248201527f496e76616c696420456e636f756e746572000000000000000000000000000000604482015260640161069a565b6000806000805b856101000151518110156112995761127e866101000151828151811061127157611271614736565b6020026020010151611d75565b15611291578161128d816147d3565b9250505b600101611249565b508461010001515181036112ac57600192505b82156113ca5760005b856101000151518110156113465760006112ec87610100015183815181106112df576112df614736565b6020026020010151612410565b905060006112fb60028361478f565b9050611307818b6147a3565b995061133c886101000151848151811061132357611323614736565b6020026020010151828461133791906147ed565b6124a1565b50506001016112b5565b5060005b856101200151518110156113c457600061137487610120015183815181106112df576112df614736565b90506000876101200151518a61138a919061478f565b90506113ba88610120015184815181106113a6576113a6614736565b6020026020010151828461133791906147a3565b505060010161134a565b506114a4565b60005b856101200151518110156114385760006113f787610120015183815181106112df576112df614736565b9050600061140660028361478f565b9050611412818b6147a3565b995061142e886101200151848151811061132357611323614736565b50506001016113cd565b5060005b856101000151518110156114a257600061146687610100015183815181106112df576112df614736565b90506000876101000151518a61147c919061478f565b905061149888610100015184815181106113a6576113a6614736565b505060010161143c565b505b50505050509250925092565b6114e16114dc7f5544000000000000000000000000000000000000000000000000000000000000612555565b6125a2565b6001600160a01b03166114f26103ad565b6001600160a01b0316146115485760405162461bcd60e51b815260206004820152601560248201527f4954454d533a20496e76616c69642053797374656d0000000000000000000000604482015260640161069a565b6000611552611730565b6001600160a01b031663b8bfeca16115698461263e565b6040518263ffffffff1660e01b8152600401611585919061482a565b600060405180830381865afa1580156115a2573d6000803e3d6000fd5b505050506040513d6000823e601f3d908101601f191682016040526115ca91908101906148b1565b905060006115d6611730565b6001600160a01b031663777c2caf846040518263ffffffff1660e01b815260040161160391815260200190565b602060405180830381865afa158015611620573d6000803e3d6000fd5b505050506040513d601f19601f8201168201806040525081019061164491906147b6565b905060005b8251518110156104d35761165b611a5d565b6001600160a01b031663f242432a30848660000151858151811061168157611681614736565b60200260200101518760200151868151811061169f5761169f614736565b60209081029190910101516040516001600160e01b031960e087901b1681526001600160a01b0394851660048201529390921660248401526044830152606482015260a06084820152600060a482015260c401600060405180830381600087803b15801561170c57600080fd5b505af1158015611720573d6000803e3d6000fd5b5050600190920191506116499050565b60006103b76126e8565b60006103a782612410565b600061174f611730565b6001600160a01b0316634f10aabc846040518263ffffffff1660e01b815260040161177c91815260200190565b602060405180830381865afa158015611799573d6000803e3d6000fd5b505050506040513d601f19601f820116820180604052508101906117bd91906147b6565b9050806001600160a01b03166117d16103ad565b6001600160a01b0316146117eb576117eb306103c86103ad565b6117f3611a5d565b6040517ff242432a0000000000000000000000000000000000000000000000000000000081526001600160a01b038381166004830152306024830152604482018590526001606483015260a06084830152600060a4830152919091169063f242432a9060c4015b600060405180830381600087803b15801561187457600080fd5b505af1158015611888573d6000803e3d6000fd5b50505050505050565b61189d306103c86103ad565b60006118a883612410565b90506118b88361133784846147a3565b6118c06119be565b6040517f40c10f19000000000000000000000000000000000000000000000000000000008152306004820152602481018490526001600160a01b0391909116906340c10f199060440161185a565b60006001600160e01b031982167fb5dee1270000000000000000000000000000000000000000000000000000000014806103a757506001600160e01b031982167f01ffc9a7000000000000000000000000000000000000000000000000000000001492915050565b7fffffffffffffffffffffffffffffffffffffffffffffffffffffffffffffffcc36013560601c806119a55750335b90565b6119ba6119b4836126f2565b8261278f565b5050565b60006103b76127db565b60006003821115611a2957508060006119e260028361478f565b6119ed9060016147a3565b90505b81811015611a2357905080600281611a08818661478f565b611a1291906147a3565b611a1c919061478f565b90506119f0565b50919050565b8115611a33575060015b919050565b6000611a438361173a565b90506000611a5183836147a3565b90506104d384826124a1565b604080516000808252602082019092526000611abb7f74625544000000000000000000000000556c74696d617465446f6d696e696f6e8360057ea1090001141414141414141400000000000000000000000000000000000000612835565b60601c9392505050565b6000611ad08361173a565b905081811015611b225760405162461bcd60e51b815260206004820152601960248201527f6e6f7420656e6f75676820676f6c6420696e20657363726f7700000000000000604482015260640161069a565b6000611a5183836147ed565b611b896040805161014081019091528060008152602001600081526020016000815260200160001515815260200160008152602001600081526020016000815260200160001515815260200160608152602001606081525090565b604080516001808252818301909252600091602080830190803683370190505090508281600081518110611bbf57611bbf614736565b602090810291909101015260008080611c187f74625544000000000000000000000000436f6d626174456e636f756e74657200857ea30802012020012020200100000000000000000000000000000000000000006128f2565b925092509250611c298383836129c2565b9695505050505050565b611c3b6141df565b604080516001808252818301909252600091602080830190803683370190505090508281600081518110611c7157611c71614736565b602090810291909101015260008080611cca7f7462554400000000000000000000000053746174730000000000000000000000857ee10800202001202020202000000000000000000000000000000000000000006128f2565b925092509250611c29838383612aa5565b604080516001808252818301909252600091829190602080830190803683370190505090508281600081518110611d1457611d14614736565b60209081029190910101526000611d6d7f74625544000000000000000000000000537461747300000000000000000000008360077ee1080020200120202020200000000000000000000000000000000000000000612835565b949350505050565b604080516001808252818301909252600091829190602080830190803683370190505090508281600081518110611dae57611dae614736565b60209081029190910101526000611e077f74625544000000000000000000000000456e636f756e746572456e74697479008360017e21020120010000000000000000000000000000000000000000000000000000612835565b9050611d6d8160f81c90565b604080516001808252818301909252600091829190602080830190803683370190505090508281600081518110611e4c57611e4c614736565b60209081029190910101526000611d6d7f74625544000000000000000000000000537461747300000000000000000000008360067ee1080020200120202020200000000000000000000000000000000000000000612835565b6000611eb983674563918244f40000614762565b611ec39083614800565b61051d9066b1a2bc2ec500006147a3565b604080516001808252818301909252600091602080830190803683370190505090508281600081518110611f0a57611f0a614736565b6020026020010181815250506104647f74625544000000000000000000000000456e636f756e746572456e746974790060001b82600085604051602001611f5391815260200190565b60408051601f198184030181529190527e21020120010000000000000000000000000000000000000000000000000000612b1d565b60606000611f94611730565b6001600160a01b03166353d64640856040518263ffffffff1660e01b8152600401611fc191815260200190565b602060405180830381865afa158015611fde573d6000803e3d6000fd5b505050506040513d601f19601f820116820180604052508101906120029190614958565b9050600061200f82612bd2565b8060200190518101906120229190614980565b905060008160c001515167ffffffffffffffff811115612044576120446142a3565b60405190808252806020026020018201604052801561206d578160200160208202803683370190505b50905060008060005b8460c00151518110156121c4578460c00151818151811061209957612099614736565b6020026020010151915060006120ae83612c47565b9050806120bf6305f5e1008d614800565b10156121bb576121046040518060400160405280600c81526020017f4954454d2044524f50504544000000000000000000000000000000000000000081525084612cdc565b61210c611730565b6040517fcd9caca2000000000000000000000000000000000000000000000000000000008152600481018b905260248101859052600160448201526001600160a01b03919091169063cd9caca290606401600060405180830381600087803b15801561217757600080fd5b505af115801561218b573d6000803e3d6000fd5b50505050828583815181106121a2576121a2614736565b6020908102919091010152836121b7816147d3565b9450505b50600101612076565b5060008267ffffffffffffffff8111156121e0576121e06142a3565b604051908082528060200260200182016040528015612209578160200160208202803683370190505b50905082156122a1576000805b855181101561229e5785818151811061223157612231614736565b60200260200101516000146122855785818151811061225257612252614736565b602002602001015183838151811061226c5761226c614736565b602090810291909101015281612281816147d3565b9250505b81851461229e5780612296816147d3565b915050612216565b50505b9998505050505050505050565b60006122e0826000015183602001518460400151856060015186608001518760a001518860c001518960e00151612d4f565b60408051600180825281830190925291925060009160609183919060208083019080368337019050509050858160008151811061231f5761231f614736565b60209081029190910101526108b77f746255440000000000000000000000005374617473000000000000000000000082868686612d8d565b60408051600180825281830190925260009160208083019080368337019050509050828160008151811061238d5761238d614736565b6020026020010181815250506104647f74625544000000000000000000000000436f6d626174456e636f756e7465720060001b826003856040516020016123db91151560f81b815260010190565b60408051601f198184030181529190527ea3080201202001202020010000000000000000000000000000000000000000612b1d565b60408051600180825281830190925260009182919060208083019080368337019050509050828160008151811061244957612449614736565b60209081029190910101526000611d6d7f74625544000000000000000000000000416476656e74757265457363726f770083837e20010020000000000000000000000000000000000000000000000000000000612835565b6040805160018082528183019092526000916020808301908036833701905050905082816000815181106124d7576124d7614736565b6020026020010181815250506104647f74625544000000000000000000000000416476656e74757265457363726f770060001b8260008560405160200161252091815260200190565b60408051601f198184030181529190527e20010020000000000000000000000000000000000000000000000000000000612b1d565b60006103a77f7379000000000000000000000000000000000000000000000000000000000000837f43686172616374657253797374656d0000000000000000000000000000000000612e03565b6040805160018082528183019092526000918291906020808301908036833701905050905082816000815181106125db576125db614736565b602090810291909101015260006126337f7462776f726c6400000000000000000053797374656d7300000000000000000083837e15020014010000000000000000000000000000000000000000000000000000612835565b60601c949350505050565b60408051600180825281830190925260009182919060208083019080368337019050509050828160008151811061267757612677614736565b602090810291909101015260006126d07f74625544000000000000000000000000537461747300000000000000000000008360027ee1080020200120202020200000000000000000000000000000000000000000612835565b905060f881901c6002811115611d6d57611d6d614814565b60006103b7612e7b565b60408051600180825281830190925260009182919060208083019080368337019050509050826001600160a01b031660001b8160008151811061273757612737614736565b60209081029190910101526000611d6d7f7462776f726c6400000000000000000053797374656d5265676973747279000083837e20010020000000000000000000000000000000000000000000000000000000612835565b6127998282612eb5565b6119ba576127a682612f13565b816040517fd787b73700000000000000000000000000000000000000000000000000000000815260040161069a929190614a98565b604080516000808252602082019092526000611abb7f74625544000000000000000000000000556c74696d617465446f6d696e696f6e8360017ea10900011414141414141414000000000000000000000000000000000000005b600080612840612e7b565b9050306001600160a01b038216036128665761285e86868686613041565b915050611d6d565b6040517f8c364d590000000000000000000000000000000000000000000000000000000081526001600160a01b03821690638c364d59906128b1908990899089908990600401614aff565b602060405180830381865afa1580156128ce573d6000803e3d6000fd5b505050506040513d601f19601f8201168201806040525081019061285e9190614958565b6060600060606000612902612e7b565b9050306001600160a01b0382160361292b5761291f878787613077565b935093509350506129b9565b6040517f419b58fd0000000000000000000000000000000000000000000000000000000081526001600160a01b0382169063419b58fd90612974908a908a908a90600401614b2e565b600060405180830381865afa158015612991573d6000803e3d6000fd5b505050506040513d6000823e601f3d908101601f1916820160405261291f9190810190614b9c565b93509350939050565b612a1d6040805161014081019091528060008152602001600081526020016000815260200160001515815260200160008152602001600081526020016000815260200160001515815260200160608152602001606081525090565b612a268461317f565b80151560e08a015260c0890182905260a089018390526080890184905284151560608a0152604089018690526020890187905288886002811115612a6c57612a6c614814565b6002811115612a7d57612a7d614814565b8152505050505050505050612a928383613203565b6101208301526101008201529392505050565b612aad6141df565b612ab684613252565b60e0890181905260c0890182905260a089018390526080890184905260608901859052886020810160408201886002811115612af457612af4614814565b6002811115612b0557612b05614814565b90529790975250505093909252509195945050505050565b6000612b27612e7b565b9050306001600160a01b03821603612b4b57612b4686868686866132c0565b6108b7565b6040517f390baae00000000000000000000000000000000000000000000000000000000081526001600160a01b0382169063390baae090612b989089908990899089908990600401614bff565b600060405180830381600087803b158015612bb257600080fd5b505af1158015612bc6573d6000803e3d6000fd5b50505050505050505050565b60408051600180825281830190925260609160009190602080830190803683370190505090508260001b81600081518110612c0f57612c0f614736565b60209081029190910101526000611d6d7f746255440000000000000000000000004d6f627300000000000000000000000083836132dc565b604080516001808252818301909252600091829190602080830190803683370190505090508260001b81600081518110612c8357612c83614736565b60209081029190910101526000611d6d7f746255440000000000000000000000004974656d7300000000000000000000008360017e41030101202000000000000000000000000000000000000000000000000000612835565b6119ba8282604051602401612cf2929190614c46565b60408051601f198184030181529190526020810180517bffffffffffffffffffffffffffffffffffffffffffffffffffffffff167f9710a9d0000000000000000000000000000000000000000000000000000000001790526133a3565b60608888888888888888604051602001612d70989796959493929190614c68565b604051602081830303815290604052905098975050505050505050565b6000612d97612e7b565b9050306001600160a01b03821603612db657612b4686868686866133c4565b6040517f298314fb0000000000000000000000000000000000000000000000000000000081526001600160a01b0382169063298314fb90612b989089908990899089908990600401614cc5565b6000612e11607060106147a3565b7fffff00000000000000000000000000000000000000000000000000000000000085167dffffffffffffffffffffffffffff00000000000000000000000000000000601086901c16176fffffffffffffffffffffffffffffffff19841690911c1790509392505050565b7f629a4c26e296b22a8e0856e9f6ecb2d1008d7e00081111962cd175fa7488e175546000906001600160a01b031680611a33573391505090565b6000612f037f6e730000000000000000000000000000000000000000000000000000000000007dffffffffffffffffffffffffffff00000000000000000000000000000000851617836133da565b8061051d575061051d83836133da565b606081601081901b6000612f26836134a3565b9050827fffffffffffffffffffffffffffff000000000000000000000000000000000000831615612f8157612f7c7fffffffffffffffffffffffffffff00000000000000000000000000000000000084166134ba565b612fb8565b6040518060400160405280600681526020017f3c726f6f743e00000000000000000000000000000000000000000000000000008152505b6fffffffffffffffffffffffffffffffff19831615612fdf57612fda836134ba565b613016565b6040518060400160405280600681526020017f3c726f6f743e00000000000000000000000000000000000000000000000000008152505b60405160200161302893929190614d16565b6040516020818303038152906040529350505050919050565b600061306e6130508686613540565b60ff858116601b0360080285901c166130698587613596565b6135c7565b95945050505050565b606060006060600061308885613618565b905061309587878361363b565b935060006130a286613674565b90508015613174576130b488886136b1565b935066ffffffffffffff841667ffffffffffffffff8111156130d8576130d86142a3565b6040519080825280601f01601f191660200182016040528015613102576020820181803683370190505b5092506020830160005b828160ff1610156131715760006131248b8b846136c4565b90506000613141888460ff166028026038011c64ffffffffff1690565b90506131508260008387613744565b61315a81856147a3565b93505050808061316990614da4565b91505061310c565b50505b505093509350939050565b600080600080600080600080613199896000016020015190565b60f81c60028111156131ad576131ad614814565b60218a015160418b015160618c0151929a5090985096506131cf905b60f81c90565b60628a015160828b015160a28c015160c28d0151939850919650945092506131f6906131c9565b9050919395975091939597565b6060806000603885901c64ffffffffff16613227613222868484613810565b61389e565b935090508064ffffffffff606087901c1601613247613222868484613810565b925050509250929050565b60008060008060008060008061326c896000016020015190565b60408a015160608b0151919950975060f81c600281111561328f5761328f614814565b60618a015160818b015160a18c015160c18d015160e1909d01519b9d9a9c939b929a91995097509195509350915050565b6132d585856132cf8487613596565b856138af565b5050505050565b606060006132e8612e7b565b9050306001600160a01b0382160361330d57613305858585613b4a565b91505061051d565b6040517f1e7889770000000000000000000000000000000000000000000000000000000081526001600160a01b03821690631e7889779061335690889088908890600401614dc3565b600060405180830381865afa158015613373573d6000803e3d6000fd5b505050506040513d6000823e601f3d908101601f191682016040526133059190810190614def565b509392505050565b80516a636f6e736f6c652e6c6f67602083016000808483855afa5050505050565b6132d585858585856133d58b613b84565b613c09565b60408051600280825260608201835260009283929190602083019080368337019050509050838160008151811061341357613413614736565b602002602001018181525050826001600160a01b031660001b8160018151811061343f5761343f614736565b602090810291909101015260006134977f7462776f726c640000000000000000005265736f75726365416363657373000083837e01010001000000000000000000000000000000000000000000000000000000612835565b905061306e8160f81c90565b60006134b1607060106147a3565b9190911b919050565b606060005b6010811015613510576fffffffffffffffffffffffffffffffff198316600882021b7fff000000000000000000000000000000000000000000000000000000000000001615613510576001016134bf565b604080516fffffffffffffffffffffffffffffffff19851660208201528151603090910190915281815280611d6d565b60008282604051602001613555929190614e24565b60408051601f1981840301815291905280516020909101207f86425bff6b57326c7859e89024fe4f238ca327a1ae4a230180dd2f0e88aaa7d9189392505050565b600080805b8360ff1681101561339b576135bd60ff601b83900360080287901c16836147a3565b915060010161359b565b6000602082106135ed576020820484019350602082816135e9576135e9614779565b0691505b508254600882021b60208290038084111561339b576001850154600882021c82179150509392505050565b60006008613628600260206147ed565b6136329190614762565b9190911c919050565b60608160000361365a575060408051602081019091526000815261051d565b60006136668585613540565b905061306e81600085613f42565b60006008600180613687600260206147ed565b61369191906147ed565b61369b91906147ed565b6136a59190614762565b8260ff911c1692915050565b600061051d6136c08484613f65565b5490565b600083836040516020016136d9929190614e24565b604051602081830303815290604052805190602001208260f81b7effffffffffffffffffffffffffffffffffffffffffffffffffffffffffffff19167f3b4102da22e32d82fc925482184f16c09fd4281692720b87d124aef6da48a0f1181860001c90509392505050565b82156137cb576020831061376e5760208304840193506020838161376a5761376a614779565b0692505b82156137cb5760208390036000818410156137915750600019600884021c61379b565b50600019600882021c5b8554600886021b8184511682198216178452508184116137bc5750506104d3565b50600194909401939182900391015b5b602082106137ed5783548152600190930192601f19909101906020016137cc565b81156104d3576000600019600884021c8251865482191691161782525050505050565b6000818311806138205750835182115b1561385d578383836040517f23230fa300000000000000000000000000000000000000000000000000000000815260040161069a93929190614e60565b6020840161386b84826147a3565b9050600061387985856147ed565b6fffffffffffffffffffffffffffffffff1660809290921b9190911795945050505050565b6060600061051d8360206000613fbb565b7f6f74000000000000000000000000000000000000000000000000000000000000847fffff000000000000000000000000000000000000000000000000000000000000160361393957837f8c0b5119d4cec7b284c6b1b39252a03d1e2f2d7451a5895562524c113bb952be84848460405161392c93929190614e85565b60405180910390a26104d3565b60006139458585613540565b9050600061395286614036565b905060005b8151811015613a2757600082828151811061397457613974614736565b602002602001015190506139a06004826affffffffffffffffffffff19166140bf90919063ffffffff16565b15613a1e576040517f964f667d000000000000000000000000000000000000000000000000000000008152606082901c9063964f667d906139eb908b908b908b908b90600401614eb8565b600060405180830381600087803b158015613a0557600080fd5b505af1158015613a19573d6000803e3d6000fd5b505050505b50600101613957565b50857f8c0b5119d4cec7b284c6b1b39252a03d1e2f2d7451a5895562524c113bb952be868686604051613a5c93929190614e85565b60405180910390a2613a77828565ffffffffffff16856140dd565b60005b8151811015611888576000828281518110613a9757613a97614736565b60200260200101519050613ac36008826affffffffffffffffffffff19166140bf90919063ffffffff16565b15613b41576040517fa8ba8721000000000000000000000000000000000000000000000000000000008152606082901c9063a8ba872190613b0e908b908b908b908b90600401614eb8565b600060405180830381600087803b158015613b2857600080fd5b505af1158015613b3c573d6000803e3d6000fd5b505050505b50600101613a7a565b6060611d6d613b5a8585856136c4565b6000613b7f85613b6a89896136b1565b9060ff166028026038011c64ffffffffff1690565b613f42565b60007f8b9d8c8b908d9affffffffffffffffffab9e9d939a8d000000000000000000008201613bd357507e60030220202000000000000000000000000000000000000000000000000000919050565b6103a7613c007f746273746f72650000000000000000005461626c657300000000000000000000846140f3565b602060006135c7565b7f6f74000000000000000000000000000000000000000000000000000000000000867fffff0000000000000000000000000000000000000000000000000000000000001603613c9557857f8dbb3a9672eebfd3773e72dd9c102393436816d832c7ba9e1e1ac8fcadcac7a986868686604051613c889493929190614efc565b60405180910390a26108b7565b6000613ca087614036565b905060005b8151811015613d79576000828281518110613cc257613cc2614736565b60200260200101519050613cee6001826affffffffffffffffffffff19166140bf90919063ffffffff16565b15613d70576040517f57066c9c000000000000000000000000000000000000000000000000000000008152606082901c906357066c9c90613d3d908c908c908c908c908c908c90600401614f3b565b600060405180830381600087803b158015613d5757600080fd5b505af1158015613d6b573d6000803e3d6000fd5b505050505b50600101613ca5565b50867f8dbb3a9672eebfd3773e72dd9c102393436816d832c7ba9e1e1ac8fcadcac7a987878787604051613db09493929190614efc565b60405180910390a26000613dc48888613540565b90506000602087019050613ddc82600089518461410f565b6000613de785613674565b1115613e6b576000613df98a8a613f65565b878155905060208601915060008060005b613e1388613674565b8160ff161015613e6657613e288d8d836136c4565b9250613e438a8260ff166028026038011c64ffffffffff1690565b9150613e52836000848861410f565b613e5c82866147a3565b9450600101613e0a565b505050505b60005b8351811015612bc6576000848281518110613e8b57613e8b614736565b60200260200101519050613eb76002826affffffffffffffffffffff19166140bf90919063ffffffff16565b15613f39576040517f5b28cdaf000000000000000000000000000000000000000000000000000000008152606082901c90635b28cdaf90613f06908e908e908e908e908e908e90600401614f3b565b600060405180830381600087803b158015613f2057600080fd5b505af1158015613f34573d6000803e3d6000fd5b505050505b50600101613e6e565b60405160208101601f19603f848401011660405282825261339b85858584613744565b60008282604051602001613f7a929190614e24565b60408051601f1981840301815291905280516020909101207f14e2fcc58e58e68ec7edc30c8d50dccc3ce2714a623ec81f46b6a63922d76569189392505050565b60606000613fc98560801c90565b90506fffffffffffffffffffffffffffffffff85166000858281613fef57613fef614779565b04905060405193506020840160208202810160405281855260005b8281101561402a578451871c82529387019360209091019060010161400a565b50505050509392505050565b6040805160018082528183019092526060916000919060208083019080368337019050509050828160008151811061407057614070614736565b602090810291909101015260006140a87f746273746f726500000000000000000053746f7265486f6f6b730000000000008383613b4a565b9050611d6d6140ba8260008451613810565b6141ce565b60008160ff16826140d08560581c90565b1660ff1614905092915050565b610464838383516140ee8560200190565b61410f565b6040805160208101849052908101829052600090606001613555565b821561418957602083106141395760208304840193506020838161413557614135614779565b0692505b82156141895760208390036000600019600885021c1990506008850281811c91508351811c905081198754168282161787555081841161417a5750506104d3565b50600194909401939182900391015b5b602082106141ab5780518455600190930192601f199091019060200161418a565b81156104d3576000600019600884021c8554835182191691161785555050505050565b6060600061051d8360156000613fbb565b60405180610100016040528060008152602001600081526020016000600281111561420c5761420c614814565b815260200160008152602001600081526020016000815260200160008152602001600081525090565b60006020828403121561424757600080fd5b81356001600160e01b03198116811461051d57600080fd5b6001600160a01b038116811461427457600080fd5b50565b6000806040838503121561428a57600080fd5b82356142958161425f565b946020939093013593505050565b634e487b7160e01b600052604160045260246000fd5b604051610120810167ffffffffffffffff811182821017156142dd576142dd6142a3565b60405290565b604051601f8201601f1916810167ffffffffffffffff8111828210171561430c5761430c6142a3565b604052919050565b600067ffffffffffffffff82111561432e5761432e6142a3565b5060051b60200190565b600082601f83011261434957600080fd5b8135602061435e61435983614314565b6142e3565b8083825260208201915060208460051b87010193508684111561438057600080fd5b602086015b8481101561439c5780358352918301918301614385565b509695505050505050565b6000806000606084860312156143bc57600080fd5b833567ffffffffffffffff808211156143d457600080fd5b818601915086601f8301126143e857600080fd5b813560206143f861435983614314565b82815260059290921b8401810191818101908a84111561441757600080fd5b948201945b838610156144355785358252948201949082019061441c565b9750508701359250508082111561444b57600080fd5b61445787838801614338565b9350604086013591508082111561446d57600080fd5b5061447a86828701614338565b9150509250925092565b60006020828403121561449657600080fd5b5035919050565b600080604083850312156144b057600080fd5b50508035926020909101359150565b6000806000606084860312156144d457600080fd5b505081359360208301359350604090920135919050565b801515811461427457600080fd5b6000806040838503121561450c57600080fd5b82356145178161425f565b91506020830135614527816144eb565b809150509250929050565b60006060820185835260208560208501526060604085015281855180845260808601915060208701935060005b8181101561457b5784518352938301939183019160010161455f565b509098975050505050505050565b600067ffffffffffffffff8211156145a3576145a36142a3565b50601f01601f191660200190565b600082601f8301126145c257600080fd5b81356145d061435982614589565b8181528460208386010111156145e557600080fd5b816020850160208301376000918101602001919091529392505050565b600080600080600060a0868803121561461a57600080fd5b85356146258161425f565b945060208601356146358161425f565b9350604086013567ffffffffffffffff8082111561465257600080fd5b61465e89838a01614338565b9450606088013591508082111561467457600080fd5b61468089838a01614338565b9350608088013591508082111561469657600080fd5b506146a3888289016145b1565b9150509295509295909350565b600080600080600060a086880312156146c857600080fd5b85356146d38161425f565b945060208601356146e38161425f565b93506040860135925060608601359150608086013567ffffffffffffffff81111561470d57600080fd5b6146a3888289016145b1565b60006020828403121561472b57600080fd5b815161051d816144eb565b634e487b7160e01b600052603260045260246000fd5b634e487b7160e01b600052601160045260246000fd5b80820281158282048414176103a7576103a761474c565b634e487b7160e01b600052601260045260246000fd5b60008261479e5761479e614779565b500490565b808201808211156103a7576103a761474c565b6000602082840312156147c857600080fd5b815161051d8161425f565b600060001982036147e6576147e661474c565b5060010190565b818103818111156103a7576103a761474c565b60008261480f5761480f614779565b500690565b634e487b7160e01b600052602160045260246000fd5b602081016003831061484c57634e487b7160e01b600052602160045260246000fd5b91905290565b600082601f83011261486357600080fd5b8151602061487361435983614314565b8083825260208201915060208460051b87010193508684111561489557600080fd5b602086015b8481101561439c578051835291830191830161489a565b6000602082840312156148c357600080fd5b815167ffffffffffffffff808211156148db57600080fd5b90830190604082860312156148ef57600080fd5b60405160408101818110838211171561490a5761490a6142a3565b60405282518281111561491c57600080fd5b61492887828601614852565b82525060208301518281111561493d57600080fd5b61494987828601614852565b60208301525095945050505050565b60006020828403121561496a57600080fd5b5051919050565b805160038110611a3357600080fd5b60006020828403121561499257600080fd5b815167ffffffffffffffff808211156149aa57600080fd5b9083019061012082860312156149bf57600080fd5b6149c76142b9565b82518152602083015160208201526149e160408401614971565b6040820152606083015160608201526080830151608082015260a083015160a082015260c083015182811115614a1657600080fd5b614a2287828601614852565b60c08301525060e083810151908201526101009283015192810192909252509392505050565b60005b83811015614a63578181015183820152602001614a4b565b50506000910152565b60008151808452614a84816020860160208601614a48565b601f01601f19169290920160200192915050565b604081526000614aab6040830185614a6c565b90506001600160a01b03831660208301529392505050565b60008151808452602080850194506020840160005b83811015614af457815187529582019590820190600101614ad8565b509495945050505050565b848152608060208201526000614b186080830186614ac3565b60ff949094166040830152506060015292915050565b838152606060208201526000614b476060830185614ac3565b9050826040830152949350505050565b600082601f830112614b6857600080fd5b8151614b7661435982614589565b818152846020838601011115614b8b57600080fd5b611d6d826020830160208701614a48565b600080600060608486031215614bb157600080fd5b835167ffffffffffffffff80821115614bc957600080fd5b614bd587838801614b57565b9450602086015193506040860151915080821115614bf257600080fd5b5061447a86828701614b57565b85815260a060208201526000614c1860a0830187614ac3565b60ff861660408401528281036060840152614c338186614a6c565b9150508260808301529695505050505050565b604081526000614c596040830185614a6c565b90508260208301529392505050565b888152876020820152600060038810614c9157634e487b7160e01b600052602160045260246000fd5b5060f89690961b604087015260418601949094526061850192909252608184015260a183015260c182015260e10192915050565b85815260a060208201526000614cde60a0830187614ac3565b8281036040840152614cf08187614a6c565b90508460608401528281036080840152614d0a8185614a6c565b98975050505050505050565b7fffff0000000000000000000000000000000000000000000000000000000000008416815260007f3a000000000000000000000000000000000000000000000000000000000000008060028401528451614d77816003860160208901614a48565b808401905081600382015284519150614d97826004830160208801614a48565b0160040195945050505050565b600060ff821660ff8103614dba57614dba61474c565b60010192915050565b838152606060208201526000614ddc6060830185614ac3565b905060ff83166040830152949350505050565b600060208284031215614e0157600080fd5b815167ffffffffffffffff811115614e1857600080fd5b611d6d84828501614b57565b8281526000602080830184516020860160005b82811015614e5357815184529284019290840190600101614e37565b5091979650505050505050565b606081526000614e736060830186614a6c565b60208301949094525060400152919050565b606081526000614e986060830186614ac3565b65ffffffffffff851660208401528281036040840152611c298185614a6c565b848152608060208201526000614ed16080830186614ac3565b65ffffffffffff851660408401528281036060840152614ef18185614a6c565b979650505050505050565b608081526000614f0f6080830187614ac3565b8281036020840152614f218187614a6c565b90508460408401528281036060840152614ef18185614a6c565b86815260c060208201526000614f5460c0830188614ac3565b8281036040840152614f668188614a6c565b90508560608401528281036080840152614f808186614a6c565b9150508260a083015297965050505050505056fea26469706673582212206d10411261022f7a9271c5aea89f6dc245afa1c6328d91f8bc7c300821b5f6d864736f6c63430008180033","linkReferences":{}},"methodIdentifiers":{"_msgSender()":"119df25f","_msgValue()":"45ec9354","_world()":"e1af802c","calculateExpMultiplier(bytes32)":"3da0f962","consumeItem(bytes32,uint256)":"ea38fe63","depositToEscrow(bytes32,uint256)":"5b90c590","distributePveRewards(bytes32,uint256)":"9f48799c","distributePvpRewards(bytes32,uint256)":"b060475d","dropGoldToEscrow(bytes32,uint256)":"f33a0a68","dropGoldToPlayer(bytes32,uint256)":"5e354981","dropItem(bytes32,uint256,uint256)":"832e305c","dropItems(bytes32[],uint256[],uint256[])":"3722e0d1","getEscrowBalance(bytes32)":"e709de68","issueStarterItems(bytes32)":"daf22fbd","onERC1155BatchReceived(address,address,uint256[],uint256[],bytes)":"bc197c81","onERC1155Received(address,address,uint256,uint256,bytes)":"f23a6e61","setGoldApproval(address,uint256)":"71a9f162","setItemsApproval(address,bool)":"9147852b","supportsInterface(bytes4)":"01ffc9a7","transferGold(address,uint256)":"1c39c7d5","withdrawFromEscrow(bytes32,uint256)":"98cab349"},"id":262}