{
    "abi": [
        {
            "type": "function",
            "name": "_msgSender",
            "inputs": [],
            "outputs": [
                {
                    "name": "sender",
                    "type": "address",
                    "internalType": "address"
                }
            ],
            "stateMutability": "view"
        },
        {
            "type": "function",
            "name": "_msgValue",
            "inputs": [],
            "outputs": [
                {
                    "name": "value",
                    "type": "uint256",
                    "internalType": "uint256"
                }
            ],
            "stateMutability": "pure"
        },
        {
            "type": "function",
            "name": "_world",
            "inputs": [],
            "outputs": [
                {
                    "name": "",
                    "type": "address",
                    "internalType": "address"
                }
            ],
            "stateMutability": "view"
        },
        {
            "type": "function",
            "name": "calculateExpMultiplier",
            "inputs": [
                {
                    "name": "characterId",
                    "type": "bytes32",
                    "internalType": "bytes32"
                }
            ],
            "outputs": [
                {
                    "name": "_expMultiplier",
                    "type": "uint256",
                    "internalType": "uint256"
                }
            ],
            "stateMutability": "view"
        },
        {
            "type": "function",
            "name": "consumeItem",
            "inputs": [
                {
                    "name": "characterId",
                    "type": "bytes32",
                    "internalType": "bytes32"
                },
                {
                    "name": "itemId",
                    "type": "uint256",
                    "internalType": "uint256"
                }
            ],
            "outputs": [],
            "stateMutability": "nonpayable"
        },
        {
            "type": "function",
            "name": "depositToEscrow",
            "inputs": [
                {
                    "name": "characterId",
                    "type": "bytes32",
                    "internalType": "bytes32"
                },
                {
                    "name": "amount",
                    "type": "uint256",
                    "internalType": "uint256"
                }
            ],
            "outputs": [
                {
                    "name": "_balance",
                    "type": "uint256",
                    "internalType": "uint256"
                }
            ],
            "stateMutability": "nonpayable"
        },
        {
            "type": "function",
            "name": "distributePveRewards",
            "inputs": [
                {
                    "name": "encounterId",
                    "type": "bytes32",
                    "internalType": "bytes32"
                },
                {
                    "name": "randomNumber",
                    "type": "uint256",
                    "internalType": "uint256"
                }
            ],
            "outputs": [
                {
                    "name": "_expAmount",
                    "type": "uint256",
                    "internalType": "uint256"
                },
                {
                    "name": "_goldAmount",
                    "type": "uint256",
                    "internalType": "uint256"
                },
                {
                    "name": "_itemIdsDropped",
                    "type": "uint256[]",
                    "internalType": "uint256[]"
                }
            ],
            "stateMutability": "nonpayable"
        },
        {
            "type": "function",
            "name": "distributePvpRewards",
            "inputs": [
                {
                    "name": "encounterId",
                    "type": "bytes32",
                    "internalType": "bytes32"
                },
                {
                    "name": "randomNumber",
                    "type": "uint256",
                    "internalType": "uint256"
                }
            ],
            "outputs": [
                {
                    "name": "_expAmount",
                    "type": "uint256",
                    "internalType": "uint256"
                },
                {
                    "name": "_goldAmount",
                    "type": "uint256",
                    "internalType": "uint256"
                },
                {
                    "name": "_itemIdsDropped",
                    "type": "uint256[]",
                    "internalType": "uint256[]"
                }
            ],
            "stateMutability": "nonpayable"
        },
        {
            "type": "function",
            "name": "dropGoldToEscrow",
            "inputs": [
                {
                    "name": "characterId",
                    "type": "bytes32",
                    "internalType": "bytes32"
                },
                {
                    "name": "amount",
                    "type": "uint256",
                    "internalType": "uint256"
                }
            ],
            "outputs": [],
            "stateMutability": "nonpayable"
        },
        {
            "type": "function",
            "name": "dropGoldToPlayer",
            "inputs": [
                {
                    "name": "characterId",
                    "type": "bytes32",
                    "internalType": "bytes32"
                },
                {
                    "name": "amount",
                    "type": "uint256",
                    "internalType": "uint256"
                }
            ],
            "outputs": [],
            "stateMutability": "nonpayable"
        },
        {
            "type": "function",
            "name": "dropItem",
            "inputs": [
                {
                    "name": "characterId",
                    "type": "bytes32",
                    "internalType": "bytes32"
                },
                {
                    "name": "itemId",
                    "type": "uint256",
                    "internalType": "uint256"
                },
                {
                    "name": "amount",
                    "type": "uint256",
                    "internalType": "uint256"
                }
            ],
            "outputs": [],
            "stateMutability": "nonpayable"
        },
        {
            "type": "function",
            "name": "dropItems",
            "inputs": [
                {
                    "name": "characterIds",
                    "type": "bytes32[]",
                    "internalType": "bytes32[]"
                },
                {
                    "name": "itemIds",
                    "type": "uint256[]",
                    "internalType": "uint256[]"
                },
                {
                    "name": "amounts",
                    "type": "uint256[]",
                    "internalType": "uint256[]"
                }
            ],
            "outputs": [],
            "stateMutability": "nonpayable"
        },
        {
            "type": "function",
            "name": "getEscrowBalance",
            "inputs": [
                {
                    "name": "characterId",
                    "type": "bytes32",
                    "internalType": "bytes32"
                }
            ],
            "outputs": [
                {
                    "name": "_balance",
                    "type": "uint256",
                    "internalType": "uint256"
                }
            ],
            "stateMutability": "view"
        },
        {
            "type": "function",
            "name": "issueStarterItems",
            "inputs": [
                {
                    "name": "characterId",
                    "type": "bytes32",
                    "internalType": "bytes32"
                }
            ],
            "outputs": [],
            "stateMutability": "nonpayable"
        },
        {
            "type": "function",
            "name": "onERC1155BatchReceived",
            "inputs": [
                {
                    "name": "",
                    "type": "address",
                    "internalType": "address"
                },
                {
                    "name": "",
                    "type": "address",
                    "internalType": "address"
                },
                {
                    "name": "",
                    "type": "uint256[]",
                    "internalType": "uint256[]"
                },
                {
                    "name": "",
                    "type": "uint256[]",
                    "internalType": "uint256[]"
                },
                {
                    "name": "",
                    "type": "bytes",
                    "internalType": "bytes"
                }
            ],
            "outputs": [
                {
                    "name": "",
                    "type": "bytes4",
                    "internalType": "bytes4"
                }
            ],
            "stateMutability": "nonpayable"
        },
        {
            "type": "function",
            "name": "onERC1155Received",
            "inputs": [
                {
                    "name": "",
                    "type": "address",
                    "internalType": "address"
                },
                {
                    "name": "",
                    "type": "address",
                    "internalType": "address"
                },
                {
                    "name": "",
                    "type": "uint256",
                    "internalType": "uint256"
                },
                {
                    "name": "",
                    "type": "uint256",
                    "internalType": "uint256"
                },
                {
                    "name": "",
                    "type": "bytes",
                    "internalType": "bytes"
                }
            ],
            "outputs": [
                {
                    "name": "",
                    "type": "bytes4",
                    "internalType": "bytes4"
                }
            ],
            "stateMutability": "nonpayable"
        },
        {
            "type": "function",
            "name": "setGoldApproval",
            "inputs": [
                {
                    "name": "spender",
                    "type": "address",
                    "internalType": "address"
                },
                {
                    "name": "value",
                    "type": "uint256",
                    "internalType": "uint256"
                }
            ],
            "outputs": [],
            "stateMutability": "nonpayable"
        },
        {
            "type": "function",
            "name": "setItemsApproval",
            "inputs": [
                {
                    "name": "spender",
                    "type": "address",
                    "internalType": "address"
                },
                {
                    "name": "approval",
                    "type": "bool",
                    "internalType": "bool"
                }
            ],
            "outputs": [],
            "stateMutability": "nonpayable"
        },
        {
            "type": "function",
            "name": "supportsInterface",
            "inputs": [
                {
                    "name": "interfaceId",
                    "type": "bytes4",
                    "internalType": "bytes4"
                }
            ],
            "outputs": [
                {
                    "name": "",
                    "type": "bool",
                    "internalType": "bool"
                }
            ],
            "stateMutability": "pure"
        },
        {
            "type": "function",
            "name": "transferGold",
            "inputs": [
                {
                    "name": "player",
                    "type": "address",
                    "internalType": "address"
                },
                {
                    "name": "amount",
                    "type": "uint256",
                    "internalType": "uint256"
                }
            ],
            "outputs": [],
            "stateMutability": "nonpayable"
        },
        {
            "type": "function",
            "name": "withdrawFromEscrow",
            "inputs": [
                {
                    "name": "characterId",
                    "type": "bytes32",
                    "internalType": "bytes32"
                },
                {
                    "name": "amount",
                    "type": "uint256",
                    "internalType": "uint256"
                }
            ],
            "outputs": [
                {
                    "name": "_balance",
                    "type": "uint256",
                    "internalType": "uint256"
                }
            ],
            "stateMutability": "nonpayable"
        },
        {
            "type": "event",
            "name": "Store_SetRecord",
            "inputs": [
                {
                    "name": "tableId",
                    "type": "bytes32",
                    "indexed": true,
                    "internalType": "ResourceId"
                },
                {
                    "name": "keyTuple",
                    "type": "bytes32[]",
                    "indexed": false,
                    "internalType": "bytes32[]"
                },
                {
                    "name": "staticData",
                    "type": "bytes",
                    "indexed": false,
                    "internalType": "bytes"
                },
                {
                    "name": "encodedLengths",
                    "type": "bytes32",
                    "indexed": false,
                    "internalType": "EncodedLengths"
                },
                {
                    "name": "dynamicData",
                    "type": "bytes",
                    "indexed": false,
                    "internalType": "bytes"
                }
            ],
            "anonymous": false
        },
        {
            "type": "event",
            "name": "Store_SpliceStaticData",
            "inputs": [
                {
                    "name": "tableId",
                    "type": "bytes32",
                    "indexed": true,
                    "internalType": "ResourceId"
                },
                {
                    "name": "keyTuple",
                    "type": "bytes32[]",
                    "indexed": false,
                    "internalType": "bytes32[]"
                },
                {
                    "name": "start",
                    "type": "uint48",
                    "indexed": false,
                    "internalType": "uint48"
                },
                {
                    "name": "data",
                    "type": "bytes",
                    "indexed": false,
                    "internalType": "bytes"
                }
            ],
            "anonymous": false
        },
        {
            "type": "error",
            "name": "Slice_OutOfBounds",
            "inputs": [
                {
                    "name": "data",
                    "type": "bytes",
                    "internalType": "bytes"
                },
                {
                    "name": "start",
                    "type": "uint256",
                    "internalType": "uint256"
                },
                {
                    "name": "end",
                    "type": "uint256",
                    "internalType": "uint256"
                }
            ]
        },
        {
            "type": "error",
            "name": "World_AccessDenied",
            "inputs": [
                {
                    "name": "resource",
                    "type": "string",
                    "internalType": "string"
                },
                {
                    "name": "caller",
                    "type": "address",
                    "internalType": "address"
                }
            ]
        }
    ],
    "bytecode": {
        "object": "0x608060405234801561001057600080fd5b50614fd8806100206000396000f3fe608060405234801561001057600080fd5b50600436106101775760003560e01c80639147852b116100d8578063daf22fbd1161008c578063ea38fe6311610066578063ea38fe631461033e578063f23a6e6114610351578063f33a0a681461038957600080fd5b8063daf22fbd14610310578063e1af802c14610323578063e709de681461032b57600080fd5b80639f48799c116100bd5780639f48799c1461028a578063b060475d146102ac578063bc197c81146102bf57600080fd5b80639147852b1461026457806398cab3491461027757600080fd5b806345ec93541161012f5780635e354981116101145780635e3549811461022b57806371a9f1621461023e578063832e305c1461025157600080fd5b806345ec93541461020d5780635b90c5901461021857600080fd5b80631c39c7d5116101605780631c39c7d5146101c45780633722e0d1146101d95780633da0f962146101ec57600080fd5b806301ffc9a71461017c578063119df25f146101a4575b600080fd5b61018f61018a366004614243565b61039c565b60405190151581526020015b60405180910390f35b6101ac6103ad565b6040516001600160a01b03909116815260200161019b565b6101d76101d2366004614285565b6103bc565b005b6101d76101e73660046143b5565b610469565b6101ff6101fa366004614492565b6104d9565b60405190815260200161019b565b36601f1901356101ff565b6101ff6102263660046144ab565b610524565b6101d76102393660046144ab565b6107c2565b6101d761024c366004614285565b6108bf565b6101d761025f3660046144cd565b610923565b6101d7610272366004614507565b610a4f565b6101ff6102853660046144ab565b610ab4565b61029d6102983660046144ab565b610d4d565b60405161019b93929190614540565b61029d6102ba3660046144ab565b611183565b6102f76102cd366004614610565b7fbc197c810000000000000000000000000000000000000000000000000000000095945050505050565b6040516001600160e01b0319909116815260200161019b565b6101d761031e366004614492565b6114be565b6101ac61173e565b6101ff610339366004614492565b611748565b6101d761034c3660046144ab565b611753565b6102f761035f3660046146be565b7ff23a6e610000000000000000000000000000000000000000000000000000000095945050505050565b6101d76103973660046144ab565b61189f565b60006103a78261191c565b92915050565b60006103b7611984565b905090565b6103cd306103c86103ad565b6119b6565b6103d56119cc565b6040517fa9059cbb0000000000000000000000000000000000000000000000000000000081526001600160a01b03848116600483015260248201849052919091169063a9059cbb906044015b6020604051808303816000875af1158015610440573d6000803e3d6000fd5b505050506040513d601f19601f820116820180604052508101906104649190614727565b505050565b60005b82518110156104d3576104cb84828151811061048a5761048a614744565b60200260200101518483815181106104a4576104a4614744565b60200260200101518484815181106104be576104be614744565b6020026020010151610923565b60010161046c565b50505050565b6000806104e583611748565b9050670de0b6b3a764000060026104fb836119d6565b610509906305f5e100614770565b610513919061479d565b61051d91906147b1565b9392505050565b600061052e61173e565b6001600160a01b03166343def638846105456103ad565b6040516001600160e01b031960e085901b16815260048101929092526001600160a01b03166024820152604401602060405180830381865afa15801561058f573d6000803e3d6000fd5b505050506040513d601f19601f820116820180604052508101906105b39190614727565b156106a8576105c061173e565b6040517ff48a39720000000000000000000000000000000000000000000000000000000081526004810185905260006024820181905260448201526001600160a01b03919091169063f48a397290606401602060405180830381865afa15801561062e573d6000803e3d6000fd5b505050506040513d601f19601f820116820180604052508101906106529190614727565b6106a35760405162461bcd60e51b815260206004820152601960248201527f63616e206f6e6c79206465706f73697420617420737061776e0000000000000060448201526064015b60405180910390fd5b6106b4565b6106b4306103c86103ad565b6106bc6119cc565b6001600160a01b03166323b872dd6106d261173e565b6001600160a01b031663777c2caf866040518263ffffffff1660e01b81526004016106ff91815260200190565b602060405180830381865afa15801561071c573d6000803e3d6000fd5b505050506040513d601f19601f8201168201806040525081019061074091906147c4565b6040516001600160e01b031960e084901b1681526001600160a01b039091166004820152306024820152604481018590526064016020604051808303816000875af1158015610793573d6000803e3d6000fd5b505050506040513d601f19601f820116820180604052508101906107b79190614727565b506103a78383611a46565b6107ce306103c86103ad565b6107d66119cc565b6001600160a01b03166340c10f196107ec61173e565b6001600160a01b0316634f10aabc856040518263ffffffff1660e01b815260040161081991815260200190565b602060405180830381865afa158015610836573d6000803e3d6000fd5b505050506040513d601f19601f8201168201806040525081019061085a91906147c4565b6040516001600160e01b031960e084901b1681526001600160a01b039091166004820152602481018490526044015b600060405180830381600087803b1580156108a357600080fd5b505af11580156108b7573d6000803e3d6000fd5b505050505050565b6108cb306103c86103ad565b6108d36119cc565b6040517f095ea7b30000000000000000000000000000000000000000000000000000000081526001600160a01b03848116600483015260248201849052919091169063095ea7b390604401610421565b61092f306103c86103ad565b600061093961173e565b6001600160a01b031663777c2caf856040518263ffffffff1660e01b815260040161096691815260200190565b602060405180830381865afa158015610983573d6000803e3d6000fd5b505050506040513d601f19601f820116820180604052508101906109a791906147c4565b90506109b1611a6b565b6040517ff242432a0000000000000000000000000000000000000000000000000000000081523060048201526001600160a01b038381166024830152604482018690526064820185905260a06084830152600060a4830152919091169063f242432a9060c401600060405180830381600087803b158015610a3157600080fd5b505af1158015610a45573d6000803e3d6000fd5b5050505050505050565b610a5b306103c86103ad565b610a63611a6b565b6040517fa22cb4650000000000000000000000000000000000000000000000000000000081526001600160a01b0384811660048301528315156024830152919091169063a22cb46590604401610889565b6000610abe61173e565b6001600160a01b03166343def63884610ad56103ad565b6040516001600160e01b031960e085901b16815260048101929092526001600160a01b03166024820152604401602060405180830381865afa158015610b1f573d6000803e3d6000fd5b505050506040513d601f19601f82011682018060405250810190610b439190614727565b15610c3357610b5061173e565b6040517ff48a39720000000000000000000000000000000000000000000000000000000081526004810185905260006024820181905260448201526001600160a01b03919091169063f48a397290606401602060405180830381865afa158015610bbe573d6000803e3d6000fd5b505050506040513d601f19601f82011682018060405250810190610be29190614727565b610c2e5760405162461bcd60e51b815260206004820152601a60248201527f63616e206f6e6c7920776974686472617720617420737061776e000000000000604482015260640161069a565b610c3f565b610c3f306103c86103ad565b610c498383611ad3565b610c516119cc565b6001600160a01b031663a9059cbb610c6761173e565b6001600160a01b031663777c2caf866040518263ffffffff1660e01b8152600401610c9491815260200190565b602060405180830381865afa158015610cb1573d6000803e3d6000fd5b505050506040513d601f19601f82011682018060405250810190610cd591906147c4565b6040516001600160e01b031960e084901b1681526001600160a01b039091166004820152602481018590526044016020604051808303816000875af1158015610d22573d6000803e3d6000fd5b505050506040513d601f19601f82011682018060405250810190610d469190614727565b5092915050565b6000806060610d5e306103c86103ad565b6000610d6986611b3c565b9050610db960405180610100016040528060008019168152602001600080191681526020016000815260200160008152602001600081526020016000815260200160608152602001606081525090565b604082015115801590610dce57506060820151155b610e1a5760405162461bcd60e51b815260206004820152601160248201527f496e76616c696420456e636f756e746572000000000000000000000000000000604482015260640161069a565b610e226141ed565b8260e0015115610e475761012083015160e083015261010083015160c0830152610e5e565b61012083015160c083015261010083015160e08301525b60005b8260c0015151811015610ed857610e948360c001518281518110610e8757610e87614744565b6020026020010151611c41565b91508160e001518360a001818151610eac91906147b1565b90525060a082015160001215610ed05760808301805190610ecc826147e1565b9052505b600101610e61565b5060005b8260e0015151811015610fff578260e001518181518110610eff57610eff614744565b6020908102919091010151808452610f1690611ce9565b6040840181905260a084015160009111610f4757600584604001518560a00151610f4091906147fb565b1115610f4a565b60015b9050610f598460000151611d83565b8015610f625750805b15610ff6578351610f7290611e21565b610f7c90896147b1565b9750610f8c8360e001518a611eb3565b610f9690886147b1565b8451909750610fa6906000611ee2565b60c0840151805160009190610fbb908c61480e565b81518110610fcb57610fcb614744565b60200260200101519050610fde81611d83565b610ff457610ff18a866000015183611f96565b96505b505b50600101610edc565b5060005b8260c001515181101561116d578260c00151818151811061102657611026614744565b602002602001015183602001818152505061103f61173e565b6001600160a01b031663fa1becc484602001516040518263ffffffff1660e01b815260040161107091815260200190565b602060405180830381865afa15801561108d573d6000803e3d6000fd5b505050506040513d601f19601f820116820180604052508101906110b19190614727565b15611165576110c38360200151611c41565b915060008260a0015113156111575785156110f0576110f08360200151846080015188610397919061479d565b600087118015611104575060008360800151115b1561115757670de0b6b3a764000061111f84602001516104d9565b608085015161112e908a61479d565b6111389190614770565b611142919061479d565b8260c00181815161115391906147b1565b9052505b6111658360200151836122bc565b600101611003565b50611179886001612365565b5050509250925092565b6000806060611194306103c86103ad565b600061119f86611b3c565b90506111ef60405180610100016040528060008019168152602001600080191681526020016000815260200160008152602001600081526020016000815260200160608152602001606081525090565b60408201511580159061120457506060820151155b6112505760405162461bcd60e51b815260206004820152601160248201527f496e76616c696420456e636f756e746572000000000000000000000000000000604482015260640161069a565b6000806000805b856101000151518110156112a75761128c866101000151828151811061127f5761127f614744565b6020026020010151611d83565b1561129f578161129b816147e1565b9250505b600101611257565b508461010001515181036112ba57600192505b82156113d85760005b856101000151518110156113545760006112fa87610100015183815181106112ed576112ed614744565b602002602001015161241e565b9050600061130960028361479d565b9050611315818b6147b1565b995061134a886101000151848151811061133157611331614744565b6020026020010151828461134591906147fb565b6124af565b50506001016112c3565b5060005b856101200151518110156113d257600061138287610120015183815181106112ed576112ed614744565b90506000876101200151518a611398919061479d565b90506113c888610120015184815181106113b4576113b4614744565b6020026020010151828461134591906147b1565b5050600101611358565b506114b2565b60005b8561012001515181101561144657600061140587610120015183815181106112ed576112ed614744565b9050600061141460028361479d565b9050611420818b6147b1565b995061143c886101200151848151811061133157611331614744565b50506001016113db565b5060005b856101000151518110156114b057600061147487610100015183815181106112ed576112ed614744565b90506000876101000151518a61148a919061479d565b90506114a688610100015184815181106113b4576113b4614744565b505060010161144a565b505b50505050509250925092565b6114ef6114ea7f5544000000000000000000000000000000000000000000000000000000000000612563565b6125b0565b6001600160a01b03166115006103ad565b6001600160a01b0316146115565760405162461bcd60e51b815260206004820152601560248201527f4954454d533a20496e76616c69642053797374656d0000000000000000000000604482015260640161069a565b600061156061173e565b6001600160a01b031663b8bfeca16115778461264c565b6040518263ffffffff1660e01b81526004016115939190614838565b600060405180830381865afa1580156115b0573d6000803e3d6000fd5b505050506040513d6000823e601f3d908101601f191682016040526115d891908101906148bf565b905060006115e461173e565b6001600160a01b031663777c2caf846040518263ffffffff1660e01b815260040161161191815260200190565b602060405180830381865afa15801561162e573d6000803e3d6000fd5b505050506040513d601f19601f8201168201806040525081019061165291906147c4565b905060005b8251518110156104d357611669611a6b565b6001600160a01b031663f242432a30848660000151858151811061168f5761168f614744565b6020026020010151876020015186815181106116ad576116ad614744565b60209081029190910101516040516001600160e01b031960e087901b1681526001600160a01b0394851660048201529390921660248401526044830152606482015260a06084820152600060a482015260c401600060405180830381600087803b15801561171a57600080fd5b505af115801561172e573d6000803e3d6000fd5b5050600190920191506116579050565b60006103b76126f6565b60006103a78261241e565b600061175d61173e565b6001600160a01b0316634f10aabc846040518263ffffffff1660e01b815260040161178a91815260200190565b602060405180830381865afa1580156117a7573d6000803e3d6000fd5b505050506040513d601f19601f820116820180604052508101906117cb91906147c4565b9050806001600160a01b03166117df6103ad565b6001600160a01b0316146117f9576117f9306103c86103ad565b611801611a6b565b6040517ff242432a0000000000000000000000000000000000000000000000000000000081526001600160a01b038381166004830152306024830152604482018590526001606483015260a06084830152600060a4830152919091169063f242432a9060c4015b600060405180830381600087803b15801561188257600080fd5b505af1158015611896573d6000803e3d6000fd5b50505050505050565b6118ab306103c86103ad565b60006118b68361241e565b90506118c68361134584846147b1565b6118ce6119cc565b6040517f40c10f19000000000000000000000000000000000000000000000000000000008152306004820152602481018490526001600160a01b0391909116906340c10f1990604401611868565b60006001600160e01b031982167fb5dee1270000000000000000000000000000000000000000000000000000000014806103a757506001600160e01b031982167f01ffc9a7000000000000000000000000000000000000000000000000000000001492915050565b7fffffffffffffffffffffffffffffffffffffffffffffffffffffffffffffffcc36013560601c806119b35750335b90565b6119c86119c283612700565b8261279d565b5050565b60006103b76127e9565b60006003821115611a3757508060006119f060028361479d565b6119fb9060016147b1565b90505b81811015611a3157905080600281611a16818661479d565b611a2091906147b1565b611a2a919061479d565b90506119fe565b50919050565b8115611a41575060015b919050565b6000611a5183611748565b90506000611a5f83836147b1565b90506104d384826124af565b604080516000808252602082019092526000611ac97f74625544000000000000000000000000556c74696d617465446f6d696e696f6e8360057ea1090001141414141414141400000000000000000000000000000000000000612843565b60601c9392505050565b6000611ade83611748565b905081811015611b305760405162461bcd60e51b815260206004820152601960248201527f6e6f7420656e6f75676820676f6c6420696e20657363726f7700000000000000604482015260640161069a565b6000611a5f83836147fb565b611b976040805161014081019091528060008152602001600081526020016000815260200160001515815260200160008152602001600081526020016000815260200160001515815260200160608152602001606081525090565b604080516001808252818301909252600091602080830190803683370190505090508281600081518110611bcd57611bcd614744565b602090810291909101015260008080611c267f74625544000000000000000000000000436f6d626174456e636f756e74657200857ea3080201202001202020010000000000000000000000000000000000000000612900565b925092509250611c378383836129d0565b9695505050505050565b611c496141ed565b604080516001808252818301909252600091602080830190803683370190505090508281600081518110611c7f57611c7f614744565b602090810291909101015260008080611cd87f7462554400000000000000000000000053746174730000000000000000000000857ee1080020200120202020200000000000000000000000000000000000000000612900565b925092509250611c37838383612ab3565b604080516001808252818301909252600091829190602080830190803683370190505090508281600081518110611d2257611d22614744565b60209081029190910101526000611d7b7f74625544000000000000000000000000537461747300000000000000000000008360077ee1080020200120202020200000000000000000000000000000000000000000612843565b949350505050565b604080516001808252818301909252600091829190602080830190803683370190505090508281600081518110611dbc57611dbc614744565b60209081029190910101526000611e157f74625544000000000000000000000000456e636f756e746572456e74697479008360017e21020120010000000000000000000000000000000000000000000000000000612843565b9050611d7b8160f81c90565b604080516001808252818301909252600091829190602080830190803683370190505090508281600081518110611e5a57611e5a614744565b60209081029190910101526000611d7b7f74625544000000000000000000000000537461747300000000000000000000008360067ee1080020200120202020200000000000000000000000000000000000000000612843565b6000611ec783674563918244f40000614770565b611ed1908361480e565b61051d9066b1a2bc2ec500006147b1565b604080516001808252818301909252600091602080830190803683370190505090508281600081518110611f1857611f18614744565b6020026020010181815250506104647f74625544000000000000000000000000456e636f756e746572456e746974790060001b82600085604051602001611f6191815260200190565b60408051601f198184030181529190527e21020120010000000000000000000000000000000000000000000000000000612b2b565b60606000611fa261173e565b6001600160a01b03166353d64640856040518263ffffffff1660e01b8152600401611fcf91815260200190565b602060405180830381865afa158015611fec573d6000803e3d6000fd5b505050506040513d601f19601f820116820180604052508101906120109190614966565b9050600061201d82612be0565b806020019051810190612030919061498e565b905060008160c001515167ffffffffffffffff811115612052576120526142b1565b60405190808252806020026020018201604052801561207b578160200160208202803683370190505b50905060008060005b8460c00151518110156121d2578460c0015181815181106120a7576120a7614744565b6020026020010151915060006120bc83612c55565b9050806120cd6305f5e1008d61480e565b10156121c9576121126040518060400160405280600c81526020017f4954454d2044524f50504544000000000000000000000000000000000000000081525084612cea565b61211a61173e565b6040517fcd9caca2000000000000000000000000000000000000000000000000000000008152600481018b905260248101859052600160448201526001600160a01b03919091169063cd9caca290606401600060405180830381600087803b15801561218557600080fd5b505af1158015612199573d6000803e3d6000fd5b50505050828583815181106121b0576121b0614744565b6020908102919091010152836121c5816147e1565b9450505b50600101612084565b5060008267ffffffffffffffff8111156121ee576121ee6142b1565b604051908082528060200260200182016040528015612217578160200160208202803683370190505b50905082156122af576000805b85518110156122ac5785818151811061223f5761223f614744565b60200260200101516000146122935785818151811061226057612260614744565b602002602001015183838151811061227a5761227a614744565b60209081029190910101528161228f816147e1565b9250505b8185146122ac57806122a4816147e1565b915050612224565b50505b9998505050505050505050565b60006122ee826000015183602001518460400151856060015186608001518760a001518860c001518960e00151612d5d565b60408051600180825281830190925291925060009160609183919060208083019080368337019050509050858160008151811061232d5761232d614744565b60209081029190910101526108b77f746255440000000000000000000000005374617473000000000000000000000082868686612d9b565b60408051600180825281830190925260009160208083019080368337019050509050828160008151811061239b5761239b614744565b6020026020010181815250506104647f74625544000000000000000000000000436f6d626174456e636f756e7465720060001b826003856040516020016123e991151560f81b815260010190565b60408051601f198184030181529190527ea3080201202001202020010000000000000000000000000000000000000000612b2b565b60408051600180825281830190925260009182919060208083019080368337019050509050828160008151811061245757612457614744565b60209081029190910101526000611d7b7f74625544000000000000000000000000416476656e74757265457363726f770083837e20010020000000000000000000000000000000000000000000000000000000612843565b6040805160018082528183019092526000916020808301908036833701905050905082816000815181106124e5576124e5614744565b6020026020010181815250506104647f74625544000000000000000000000000416476656e74757265457363726f770060001b8260008560405160200161252e91815260200190565b60408051601f198184030181529190527e20010020000000000000000000000000000000000000000000000000000000612b2b565b60006103a77f7379000000000000000000000000000000000000000000000000000000000000837f43686172616374657253797374656d0000000000000000000000000000000000612e11565b6040805160018082528183019092526000918291906020808301908036833701905050905082816000815181106125e9576125e9614744565b602090810291909101015260006126417f7462776f726c6400000000000000000053797374656d7300000000000000000083837e15020014010000000000000000000000000000000000000000000000000000612843565b60601c949350505050565b60408051600180825281830190925260009182919060208083019080368337019050509050828160008151811061268557612685614744565b602090810291909101015260006126de7f74625544000000000000000000000000537461747300000000000000000000008360027ee1080020200120202020200000000000000000000000000000000000000000612843565b905060f881901c6002811115611d7b57611d7b614822565b60006103b7612e89565b60408051600180825281830190925260009182919060208083019080368337019050509050826001600160a01b031660001b8160008151811061274557612745614744565b60209081029190910101526000611d7b7f7462776f726c6400000000000000000053797374656d5265676973747279000083837e20010020000000000000000000000000000000000000000000000000000000612843565b6127a78282612ec3565b6119c8576127b482612f21565b816040517fd787b73700000000000000000000000000000000000000000000000000000000815260040161069a929190614aa6565b604080516000808252602082019092526000611ac97f74625544000000000000000000000000556c74696d617465446f6d696e696f6e8360017ea10900011414141414141414000000000000000000000000000000000000005b60008061284e612e89565b9050306001600160a01b038216036128745761286c8686868661304f565b915050611d7b565b6040517f8c364d590000000000000000000000000000000000000000000000000000000081526001600160a01b03821690638c364d59906128bf908990899089908990600401614b0d565b602060405180830381865afa1580156128dc573d6000803e3d6000fd5b505050506040513d601f19601f8201168201806040525081019061286c9190614966565b6060600060606000612910612e89565b9050306001600160a01b038216036129395761292d878787613085565b935093509350506129c7565b6040517f419b58fd0000000000000000000000000000000000000000000000000000000081526001600160a01b0382169063419b58fd90612982908a908a908a90600401614b3c565b600060405180830381865afa15801561299f573d6000803e3d6000fd5b505050506040513d6000823e601f3d908101601f1916820160405261292d9190810190614baa565b93509350939050565b612a2b6040805161014081019091528060008152602001600081526020016000815260200160001515815260200160008152602001600081526020016000815260200160001515815260200160608152602001606081525090565b612a348461318d565b80151560e08a015260c0890182905260a089018390526080890184905284151560608a0152604089018690526020890187905288886002811115612a7a57612a7a614822565b6002811115612a8b57612a8b614822565b8152505050505050505050612aa08383613211565b6101208301526101008201529392505050565b612abb6141ed565b612ac484613260565b60e0890181905260c0890182905260a089018390526080890184905260608901859052886020810160408201886002811115612b0257612b02614822565b6002811115612b1357612b13614822565b90529790975250505093909252509195945050505050565b6000612b35612e89565b9050306001600160a01b03821603612b5957612b5486868686866132ce565b6108b7565b6040517f390baae00000000000000000000000000000000000000000000000000000000081526001600160a01b0382169063390baae090612ba69089908990899089908990600401614c0d565b600060405180830381600087803b158015612bc057600080fd5b505af1158015612bd4573d6000803e3d6000fd5b50505050505050505050565b60408051600180825281830190925260609160009190602080830190803683370190505090508260001b81600081518110612c1d57612c1d614744565b60209081029190910101526000611d7b7f746255440000000000000000000000004d6f627300000000000000000000000083836132ea565b604080516001808252818301909252600091829190602080830190803683370190505090508260001b81600081518110612c9157612c91614744565b60209081029190910101526000611d7b7f746255440000000000000000000000004974656d7300000000000000000000008360017e41030101202000000000000000000000000000000000000000000000000000612843565b6119c88282604051602401612d00929190614c54565b60408051601f198184030181529190526020810180517bffffffffffffffffffffffffffffffffffffffffffffffffffffffff167f9710a9d0000000000000000000000000000000000000000000000000000000001790526133b1565b60608888888888888888604051602001612d7e989796959493929190614c76565b604051602081830303815290604052905098975050505050505050565b6000612da5612e89565b9050306001600160a01b03821603612dc457612b5486868686866133d2565b6040517f298314fb0000000000000000000000000000000000000000000000000000000081526001600160a01b0382169063298314fb90612ba69089908990899089908990600401614cd3565b6000612e1f607060106147b1565b7fffff00000000000000000000000000000000000000000000000000000000000085167dffffffffffffffffffffffffffff00000000000000000000000000000000601086901c16176fffffffffffffffffffffffffffffffff19841690911c1790509392505050565b7f629a4c26e296b22a8e0856e9f6ecb2d1008d7e00081111962cd175fa7488e175546000906001600160a01b031680611a41573391505090565b6000612f117f6e730000000000000000000000000000000000000000000000000000000000007dffffffffffffffffffffffffffff00000000000000000000000000000000851617836133e8565b8061051d575061051d83836133e8565b606081601081901b6000612f34836134b1565b9050827fffffffffffffffffffffffffffff000000000000000000000000000000000000831615612f8f57612f8a7fffffffffffffffffffffffffffff00000000000000000000000000000000000084166134c8565b612fc6565b6040518060400160405280600681526020017f3c726f6f743e00000000000000000000000000000000000000000000000000008152505b6fffffffffffffffffffffffffffffffff19831615612fed57612fe8836134c8565b613024565b6040518060400160405280600681526020017f3c726f6f743e00000000000000000000000000000000000000000000000000008152505b60405160200161303693929190614d24565b6040516020818303038152906040529350505050919050565b600061307c61305e868661354e565b60ff858116601b0360080285901c1661307785876135a4565b6135d5565b95945050505050565b606060006060600061309685613626565b90506130a3878783613649565b935060006130b086613682565b90508015613182576130c288886136bf565b935066ffffffffffffff841667ffffffffffffffff8111156130e6576130e66142b1565b6040519080825280601f01601f191660200182016040528015613110576020820181803683370190505b5092506020830160005b828160ff16101561317f5760006131328b8b846136d2565b9050600061314f888460ff166028026038011c64ffffffffff1690565b905061315e8260008387613752565b61316881856147b1565b93505050808061317790614db2565b91505061311a565b50505b505093509350939050565b6000806000806000806000806131a7896000016020015190565b60f81c60028111156131bb576131bb614822565b60218a015160418b015160618c0151929a5090985096506131dd905b60f81c90565b60628a015160828b015160a28c015160c28d015193985091965094509250613204906131d7565b9050919395975091939597565b6060806000603885901c64ffffffffff1661323561323086848461381e565b6138ac565b935090508064ffffffffff606087901c160161325561323086848461381e565b925050509250929050565b60008060008060008060008061327a896000016020015190565b60408a015160608b0151919950975060f81c600281111561329d5761329d614822565b60618a015160818b015160a18c015160c18d015160e1909d01519b9d9a9c939b929a91995097509195509350915050565b6132e385856132dd84876135a4565b856138bd565b5050505050565b606060006132f6612e89565b9050306001600160a01b0382160361331b57613313858585613b58565b91505061051d565b6040517f1e7889770000000000000000000000000000000000000000000000000000000081526001600160a01b03821690631e7889779061336490889088908890600401614dd1565b600060405180830381865afa158015613381573d6000803e3d6000fd5b505050506040513d6000823e601f3d908101601f191682016040526133139190810190614dfd565b509392505050565b80516a636f6e736f6c652e6c6f67602083016000808483855afa5050505050565b6132e385858585856133e38b613b92565b613c17565b60408051600280825260608201835260009283929190602083019080368337019050509050838160008151811061342157613421614744565b602002602001018181525050826001600160a01b031660001b8160018151811061344d5761344d614744565b602090810291909101015260006134a57f7462776f726c640000000000000000005265736f75726365416363657373000083837e01010001000000000000000000000000000000000000000000000000000000612843565b905061307c8160f81c90565b60006134bf607060106147b1565b9190911b919050565b606060005b601081101561351e576fffffffffffffffffffffffffffffffff198316600882021b7fff00000000000000000000000000000000000000000000000000000000000000161561351e576001016134cd565b604080516fffffffffffffffffffffffffffffffff19851660208201528151603090910190915281815280611d7b565b60008282604051602001613563929190614e32565b60408051601f1981840301815291905280516020909101207f86425bff6b57326c7859e89024fe4f238ca327a1ae4a230180dd2f0e88aaa7d9189392505050565b600080805b8360ff168110156133a9576135cb60ff601b83900360080287901c16836147b1565b91506001016135a9565b6000602082106135fb576020820484019350602082816135f7576135f7614787565b0691505b508254600882021b6020829003808411156133a9576001850154600882021c82179150509392505050565b60006008613636600260206147fb565b6136409190614770565b9190911c919050565b606081600003613668575060408051602081019091526000815261051d565b6000613674858561354e565b905061307c81600085613f50565b60006008600180613695600260206147fb565b61369f91906147fb565b6136a991906147fb565b6136b39190614770565b8260ff911c1692915050565b600061051d6136ce8484613f73565b5490565b600083836040516020016136e7929190614e32565b604051602081830303815290604052805190602001208260f81b7effffffffffffffffffffffffffffffffffffffffffffffffffffffffffffff19167f3b4102da22e32d82fc925482184f16c09fd4281692720b87d124aef6da48a0f1181860001c90509392505050565b82156137d9576020831061377c5760208304840193506020838161377857613778614787565b0692505b82156137d957602083900360008184101561379f5750600019600884021c6137a9565b50600019600882021c5b8554600886021b8184511682198216178452508184116137ca5750506104d3565b50600194909401939182900391015b5b602082106137fb5783548152600190930192601f19909101906020016137da565b81156104d3576000600019600884021c8251865482191691161782525050505050565b60008183118061382e5750835182115b1561386b578383836040517f23230fa300000000000000000000000000000000000000000000000000000000815260040161069a93929190614e6e565b6020840161387984826147b1565b9050600061388785856147fb565b6fffffffffffffffffffffffffffffffff1660809290921b9190911795945050505050565b6060600061051d8360206000613fc9565b7f6f74000000000000000000000000000000000000000000000000000000000000847fffff000000000000000000000000000000000000000000000000000000000000160361394757837f8c0b5119d4cec7b284c6b1b39252a03d1e2f2d7451a5895562524c113bb952be84848460405161393a93929190614e93565b60405180910390a26104d3565b6000613953858561354e565b9050600061396086614044565b905060005b8151811015613a3557600082828151811061398257613982614744565b602002602001015190506139ae6004826affffffffffffffffffffff19166140cd90919063ffffffff16565b15613a2c576040517f964f667d000000000000000000000000000000000000000000000000000000008152606082901c9063964f667d906139f9908b908b908b908b90600401614ec6565b600060405180830381600087803b158015613a1357600080fd5b505af1158015613a27573d6000803e3d6000fd5b505050505b50600101613965565b50857f8c0b5119d4cec7b284c6b1b39252a03d1e2f2d7451a5895562524c113bb952be868686604051613a6a93929190614e93565b60405180910390a2613a85828565ffffffffffff16856140eb565b60005b8151811015611896576000828281518110613aa557613aa5614744565b60200260200101519050613ad16008826affffffffffffffffffffff19166140cd90919063ffffffff16565b15613b4f576040517fa8ba8721000000000000000000000000000000000000000000000000000000008152606082901c9063a8ba872190613b1c908b908b908b908b90600401614ec6565b600060405180830381600087803b158015613b3657600080fd5b505af1158015613b4a573d6000803e3d6000fd5b505050505b50600101613a88565b6060611d7b613b688585856136d2565b6000613b8d85613b7889896136bf565b9060ff166028026038011c64ffffffffff1690565b613f50565b60007f8b9d8c8b908d9affffffffffffffffffab9e9d939a8d000000000000000000008201613be157507e60030220202000000000000000000000000000000000000000000000000000919050565b6103a7613c0e7f746273746f72650000000000000000005461626c65730000000000000000000084614101565b602060006135d5565b7f6f74000000000000000000000000000000000000000000000000000000000000867fffff0000000000000000000000000000000000000000000000000000000000001603613ca357857f8dbb3a9672eebfd3773e72dd9c102393436816d832c7ba9e1e1ac8fcadcac7a986868686604051613c969493929190614f0a565b60405180910390a26108b7565b6000613cae87614044565b905060005b8151811015613d87576000828281518110613cd057613cd0614744565b60200260200101519050613cfc6001826affffffffffffffffffffff19166140cd90919063ffffffff16565b15613d7e576040517f57066c9c000000000000000000000000000000000000000000000000000000008152606082901c906357066c9c90613d4b908c908c908c908c908c908c90600401614f49565b600060405180830381600087803b158015613d6557600080fd5b505af1158015613d79573d6000803e3d6000fd5b505050505b50600101613cb3565b50867f8dbb3a9672eebfd3773e72dd9c102393436816d832c7ba9e1e1ac8fcadcac7a987878787604051613dbe9493929190614f0a565b60405180910390a26000613dd2888861354e565b90506000602087019050613dea82600089518461411d565b6000613df585613682565b1115613e79576000613e078a8a613f73565b878155905060208601915060008060005b613e2188613682565b8160ff161015613e7457613e368d8d836136d2565b9250613e518a8260ff166028026038011c64ffffffffff1690565b9150613e60836000848861411d565b613e6a82866147b1565b9450600101613e18565b505050505b60005b8351811015612bd4576000848281518110613e9957613e99614744565b60200260200101519050613ec56002826affffffffffffffffffffff19166140cd90919063ffffffff16565b15613f47576040517f5b28cdaf000000000000000000000000000000000000000000000000000000008152606082901c90635b28cdaf90613f14908e908e908e908e908e908e90600401614f49565b600060405180830381600087803b158015613f2e57600080fd5b505af1158015613f42573d6000803e3d6000fd5b505050505b50600101613e7c565b60405160208101601f19603f84840101166040528282526133a985858584613752565b60008282604051602001613f88929190614e32565b60408051601f1981840301815291905280516020909101207f14e2fcc58e58e68ec7edc30c8d50dccc3ce2714a623ec81f46b6a63922d76569189392505050565b60606000613fd78560801c90565b90506fffffffffffffffffffffffffffffffff85166000858281613ffd57613ffd614787565b04905060405193506020840160208202810160405281855260005b82811015614038578451871c825293870193602090910190600101614018565b50505050509392505050565b6040805160018082528183019092526060916000919060208083019080368337019050509050828160008151811061407e5761407e614744565b602090810291909101015260006140b67f746273746f726500000000000000000053746f7265486f6f6b730000000000008383613b58565b9050611d7b6140c8826000845161381e565b6141dc565b60008160ff16826140de8560581c90565b1660ff1614905092915050565b610464838383516140fc8560200190565b61411d565b6040805160208101849052908101829052600090606001613563565b821561419757602083106141475760208304840193506020838161414357614143614787565b0692505b82156141975760208390036000600019600885021c1990506008850281811c91508351811c90508119875416828216178755508184116141885750506104d3565b50600194909401939182900391015b5b602082106141b95780518455600190930192601f1990910190602001614198565b81156104d3576000600019600884021c8554835182191691161785555050505050565b6060600061051d8360156000613fc9565b60405180610100016040528060008152602001600081526020016000600281111561421a5761421a614822565b815260200160008152602001600081526020016000815260200160008152602001600081525090565b60006020828403121561425557600080fd5b81356001600160e01b03198116811461051d57600080fd5b6001600160a01b038116811461428257600080fd5b50565b6000806040838503121561429857600080fd5b82356142a38161426d565b946020939093013593505050565b634e487b7160e01b600052604160045260246000fd5b604051610120810167ffffffffffffffff811182821017156142eb576142eb6142b1565b60405290565b604051601f8201601f1916810167ffffffffffffffff8111828210171561431a5761431a6142b1565b604052919050565b600067ffffffffffffffff82111561433c5761433c6142b1565b5060051b60200190565b600082601f83011261435757600080fd5b8135602061436c61436783614322565b6142f1565b8083825260208201915060208460051b87010193508684111561438e57600080fd5b602086015b848110156143aa5780358352918301918301614393565b509695505050505050565b6000806000606084860312156143ca57600080fd5b833567ffffffffffffffff808211156143e257600080fd5b818601915086601f8301126143f657600080fd5b8135602061440661436783614322565b82815260059290921b8401810191818101908a84111561442557600080fd5b948201945b838610156144435785358252948201949082019061442a565b9750508701359250508082111561445957600080fd5b61446587838801614346565b9350604086013591508082111561447b57600080fd5b5061448886828701614346565b9150509250925092565b6000602082840312156144a457600080fd5b5035919050565b600080604083850312156144be57600080fd5b50508035926020909101359150565b6000806000606084860312156144e257600080fd5b505081359360208301359350604090920135919050565b801515811461428257600080fd5b6000806040838503121561451a57600080fd5b82356145258161426d565b91506020830135614535816144f9565b809150509250929050565b60006060820185835260208560208501526060604085015281855180845260808601915060208701935060005b818110156145895784518352938301939183019160010161456d565b509098975050505050505050565b600067ffffffffffffffff8211156145b1576145b16142b1565b50601f01601f191660200190565b600082601f8301126145d057600080fd5b81356145de61436782614597565b8181528460208386010111156145f357600080fd5b816020850160208301376000918101602001919091529392505050565b600080600080600060a0868803121561462857600080fd5b85356146338161426d565b945060208601356146438161426d565b9350604086013567ffffffffffffffff8082111561466057600080fd5b61466c89838a01614346565b9450606088013591508082111561468257600080fd5b61468e89838a01614346565b935060808801359150808211156146a457600080fd5b506146b1888289016145bf565b9150509295509295909350565b600080600080600060a086880312156146d657600080fd5b85356146e18161426d565b945060208601356146f18161426d565b93506040860135925060608601359150608086013567ffffffffffffffff81111561471b57600080fd5b6146b1888289016145bf565b60006020828403121561473957600080fd5b815161051d816144f9565b634e487b7160e01b600052603260045260246000fd5b634e487b7160e01b600052601160045260246000fd5b80820281158282048414176103a7576103a761475a565b634e487b7160e01b600052601260045260246000fd5b6000826147ac576147ac614787565b500490565b808201808211156103a7576103a761475a565b6000602082840312156147d657600080fd5b815161051d8161426d565b600060001982036147f4576147f461475a565b5060010190565b818103818111156103a7576103a761475a565b60008261481d5761481d614787565b500690565b634e487b7160e01b600052602160045260246000fd5b602081016003831061485a57634e487b7160e01b600052602160045260246000fd5b91905290565b600082601f83011261487157600080fd5b8151602061488161436783614322565b8083825260208201915060208460051b8701019350868411156148a357600080fd5b602086015b848110156143aa57805183529183019183016148a8565b6000602082840312156148d157600080fd5b815167ffffffffffffffff808211156148e957600080fd5b90830190604082860312156148fd57600080fd5b604051604081018181108382111715614918576149186142b1565b60405282518281111561492a57600080fd5b61493687828601614860565b82525060208301518281111561494b57600080fd5b61495787828601614860565b60208301525095945050505050565b60006020828403121561497857600080fd5b5051919050565b805160038110611a4157600080fd5b6000602082840312156149a057600080fd5b815167ffffffffffffffff808211156149b857600080fd5b9083019061012082860312156149cd57600080fd5b6149d56142c7565b82518152602083015160208201526149ef6040840161497f565b6040820152606083015160608201526080830151608082015260a083015160a082015260c083015182811115614a2457600080fd5b614a3087828601614860565b60c08301525060e083810151908201526101009283015192810192909252509392505050565b60005b83811015614a71578181015183820152602001614a59565b50506000910152565b60008151808452614a92816020860160208601614a56565b601f01601f19169290920160200192915050565b604081526000614ab96040830185614a7a565b90506001600160a01b03831660208301529392505050565b60008151808452602080850194506020840160005b83811015614b0257815187529582019590820190600101614ae6565b509495945050505050565b848152608060208201526000614b266080830186614ad1565b60ff949094166040830152506060015292915050565b838152606060208201526000614b556060830185614ad1565b9050826040830152949350505050565b600082601f830112614b7657600080fd5b8151614b8461436782614597565b818152846020838601011115614b9957600080fd5b611d7b826020830160208701614a56565b600080600060608486031215614bbf57600080fd5b835167ffffffffffffffff80821115614bd757600080fd5b614be387838801614b65565b9450602086015193506040860151915080821115614c0057600080fd5b5061448886828701614b65565b85815260a060208201526000614c2660a0830187614ad1565b60ff861660408401528281036060840152614c418186614a7a565b9150508260808301529695505050505050565b604081526000614c676040830185614a7a565b90508260208301529392505050565b888152876020820152600060038810614c9f57634e487b7160e01b600052602160045260246000fd5b5060f89690961b604087015260418601949094526061850192909252608184015260a183015260c182015260e10192915050565b85815260a060208201526000614cec60a0830187614ad1565b8281036040840152614cfe8187614a7a565b90508460608401528281036080840152614d188185614a7a565b98975050505050505050565b7fffff0000000000000000000000000000000000000000000000000000000000008416815260007f3a000000000000000000000000000000000000000000000000000000000000008060028401528451614d85816003860160208901614a56565b808401905081600382015284519150614da5826004830160208801614a56565b0160040195945050505050565b600060ff821660ff8103614dc857614dc861475a565b60010192915050565b838152606060208201526000614dea6060830185614ad1565b905060ff83166040830152949350505050565b600060208284031215614e0f57600080fd5b815167ffffffffffffffff811115614e2657600080fd5b611d7b84828501614b65565b8281526000602080830184516020860160005b82811015614e6157815184529284019290840190600101614e45565b5091979650505050505050565b606081526000614e816060830186614a7a565b60208301949094525060400152919050565b606081526000614ea66060830186614ad1565b65ffffffffffff851660208401528281036040840152611c378185614a7a565b848152608060208201526000614edf6080830186614ad1565b65ffffffffffff851660408401528281036060840152614eff8185614a7a565b979650505050505050565b608081526000614f1d6080830187614ad1565b8281036020840152614f2f8187614a7a565b90508460408401528281036060840152614eff8185614a7a565b86815260c060208201526000614f6260c0830188614ad1565b8281036040840152614f748188614a7a565b90508560608401528281036080840152614f8e8186614a7a565b9150508260a083015297965050505050505056fea264697066735822122021e97126734f8545e04bfaf278b7ab14fd50a1d2fac8b294a2540bfd4dc95c4e64736f6c63430008180033",
        "linkReferences": {}
    },
    "methodIdentifiers": {
        "_msgSender()": "119df25f",
        "_msgValue()": "45ec9354",
        "_world()": "e1af802c",
        "calculateExpMultiplier(bytes32)": "3da0f962",
        "consumeItem(bytes32,uint256)": "ea38fe63",
        "depositToEscrow(bytes32,uint256)": "5b90c590",
        "distributePveRewards(bytes32,uint256)": "9f48799c",
        "distributePvpRewards(bytes32,uint256)": "b060475d",
        "dropGoldToEscrow(bytes32,uint256)": "f33a0a68",
        "dropGoldToPlayer(bytes32,uint256)": "5e354981",
        "dropItem(bytes32,uint256,uint256)": "832e305c",
        "dropItems(bytes32[],uint256[],uint256[])": "3722e0d1",
        "getEscrowBalance(bytes32)": "e709de68",
        "issueStarterItems(bytes32)": "daf22fbd",
        "onERC1155BatchReceived(address,address,uint256[],uint256[],bytes)": "bc197c81",
        "onERC1155Received(address,address,uint256,uint256,bytes)": "f23a6e61",
        "setGoldApproval(address,uint256)": "71a9f162",
        "setItemsApproval(address,bool)": "9147852b",
        "supportsInterface(bytes4)": "01ffc9a7",
        "transferGold(address,uint256)": "1c39c7d5",
        "withdrawFromEscrow(bytes32,uint256)": "98cab349"
    },
    "id": 279
}