{"abi":[{"type":"function","name":"_msgSender","inputs":[],"outputs":[{"name":"sender","type":"address","internalType":"address"}],"stateMutability":"view"},{"type":"function","name":"_msgValue","inputs":[],"outputs":[{"name":"value","type":"uint256","internalType":"uint256"}],"stateMutability":"view"},{"type":"function","name":"_world","inputs":[],"outputs":[{"name":"","type":"address","internalType":"address"}],"stateMutability":"view"},{"type":"function","name":"consumeItem","inputs":[{"name":"characterId","type":"bytes32","internalType":"bytes32"},{"name":"itemId","type":"uint256","internalType":"uint256"}],"outputs":[],"stateMutability":"nonpayable"},{"type":"function","name":"depositToEscrow","inputs":[{"name":"characterId","type":"bytes32","internalType":"bytes32"},{"name":"amount","type":"uint256","internalType":"uint256"}],"outputs":[{"name":"_balance","type":"uint256","internalType":"uint256"}],"stateMutability":"nonpayable"},{"type":"function","name":"dropGoldToEscrow","inputs":[{"name":"characterId","type":"bytes32","internalType":"bytes32"},{"name":"amount","type":"uint256","internalType":"uint256"}],"outputs":[],"stateMutability":"nonpayable"},{"type":"function","name":"dropGoldToPlayer","inputs":[{"name":"characterId","type":"bytes32","internalType":"bytes32"},{"name":"amount","type":"uint256","internalType":"uint256"}],"outputs":[],"stateMutability":"nonpayable"},{"type":"function","name":"dropItem","inputs":[{"name":"characterId","type":"bytes32","internalType":"bytes32"},{"name":"itemId","type":"uint256","internalType":"uint256"},{"name":"amount","type":"uint256","internalType":"uint256"}],"outputs":[],"stateMutability":"nonpayable"},{"type":"function","name":"dropItems","inputs":[{"name":"characterIds","type":"bytes32[]","internalType":"bytes32[]"},{"name":"itemIds","type":"uint256[]","internalType":"uint256[]"},{"name":"amounts","type":"uint256[]","internalType":"uint256[]"}],"outputs":[],"stateMutability":"nonpayable"},{"type":"function","name":"getEscrowBalance","inputs":[{"name":"characterId","type":"bytes32","internalType":"bytes32"}],"outputs":[{"name":"_balance","type":"uint256","internalType":"uint256"}],"stateMutability":"view"},{"type":"function","name":"increaseEscrowBalance","inputs":[{"name":"characterId","type":"bytes32","internalType":"bytes32"},{"name":"amount","type":"uint256","internalType":"uint256"}],"outputs":[{"name":"newBalance","type":"uint256","internalType":"uint256"}],"stateMutability":"nonpayable"},{"type":"function","name":"issueAdvancedClassItems","inputs":[{"name":"characterId","type":"bytes32","internalType":"bytes32"},{"name":"advancedClass","type":"uint8","internalType":"enum AdvancedClass"}],"outputs":[],"stateMutability":"nonpayable"},{"type":"function","name":"issueStarterItems","inputs":[{"name":"characterId","type":"bytes32","internalType":"bytes32"}],"outputs":[],"stateMutability":"nonpayable"},{"type":"function","name":"onERC1155BatchReceived","inputs":[{"name":"","type":"address","internalType":"address"},{"name":"","type":"address","internalType":"address"},{"name":"","type":"uint256[]","internalType":"uint256[]"},{"name":"","type":"uint256[]","internalType":"uint256[]"},{"name":"","type":"bytes","internalType":"bytes"}],"outputs":[{"name":"","type":"bytes4","internalType":"bytes4"}],"stateMutability":"nonpayable"},{"type":"function","name":"onERC1155Received","inputs":[{"name":"","type":"address","internalType":"address"},{"name":"","type":"address","internalType":"address"},{"name":"","type":"uint256","internalType":"uint256"},{"name":"","type":"uint256","internalType":"uint256"},{"name":"","type":"bytes","internalType":"bytes"}],"outputs":[{"name":"","type":"bytes4","internalType":"bytes4"}],"stateMutability":"nonpayable"},{"type":"function","name":"setGoldApproval","inputs":[{"name":"spender","type":"address","internalType":"address"},{"name":"value","type":"uint256","internalType":"uint256"}],"outputs":[],"stateMutability":"nonpayable"},{"type":"function","name":"setItemsApproval","inputs":[{"name":"spender","type":"address","internalType":"address"},{"name":"approval","type":"bool","internalType":"bool"}],"outputs":[],"stateMutability":"nonpayable"},{"type":"function","name":"supportsInterface","inputs":[{"name":"interfaceId","type":"bytes4","internalType":"bytes4"}],"outputs":[{"name":"","type":"bool","internalType":"bool"}],"stateMutability":"pure"},{"type":"function","name":"transferGold","inputs":[{"name":"player","type":"address","internalType":"address"},{"name":"amount","type":"uint256","internalType":"uint256"}],"outputs":[],"stateMutability":"nonpayable"},{"type":"function","name":"withdrawFromEscrow","inputs":[{"name":"characterId","type":"bytes32","internalType":"bytes32"},{"name":"amount","type":"uint256","internalType":"uint256"}],"outputs":[{"name":"_balance","type":"uint256","internalType":"uint256"}],"stateMutability":"nonpayable"},{"type":"event","name":"Store_SpliceStaticData","inputs":[{"name":"tableId","type":"bytes32","indexed":true,"internalType":"ResourceId"},{"name":"keyTuple","type":"bytes32[]","indexed":false,"internalType":"bytes32[]"},{"name":"start","type":"uint48","indexed":false,"internalType":"uint48"},{"name":"data","type":"bytes","indexed":false,"internalType":"bytes"}],"anonymous":false},{"type":"error","name":"GamePaused","inputs":[]},{"type":"error","name":"InsufficientBalance","inputs":[]},{"type":"error","name":"NotAtSpawn","inputs":[]},{"type":"error","name":"Slice_OutOfBounds","inputs":[{"name":"data","type":"bytes","internalType":"bytes"},{"name":"start","type":"uint256","internalType":"uint256"},{"name":"end","type":"uint256","internalType":"uint256"}]},{"type":"error","name":"World_AccessDenied","inputs":[{"name":"resource","type":"string","internalType":"string"},{"name":"caller","type":"address","internalType":"address"}]}],"bytecode":{"object":"0x6080806040523461001657613f90908161001b8239f35b5f80fdfe60806040526004361015610011575f80fd5b5f3560e01c806301ffc9a7146101545780630722a7031461014f578063119df25f1461014a5780631c39c7d5146101455780633722e0d11461014057806345ec93541461013b5780635b90c590146101365780635e3549811461013157806371a9f1621461012c578063821aac5514610127578063832e305c146101225780639147852b1461011d57806398cab34914610118578063bc197c8114610113578063daf22fbd1461010e578063e1af802c14610109578063e709de6814610104578063ea38fe63146100ff578063f23a6e61146100fa5763f33a0a68146100f5575f80fd5b610cd5565b610c7c565b610bcb565b610ba5565b610b8b565b610a63565b6109d7565b6107f6565b610751565b610725565b6106fc565b61064d565b6105d2565b61041f565b610400565b610345565b61021e565b6101e1565b6101ae565b346101aa5760203660031901126101aa5760043563ffffffff60e01b81168091036101aa5760209063b5dee12760e01b8114908115610199575b506040519015158152f35b6301ffc9a760e01b1490505f61018e565b5f80fd5b346101aa5760403660031901126101aa576101cd60243560043561106c565b60206040515f8152f35b5f9103126101aa57565b346101aa575f3660031901126101aa5760206101fb611089565b6040516001600160a01b039091168152f35b6001600160a01b038116036101aa57565b346101aa5760403660031901126101aa5761024760043561023e8161020d565b602435906110a0565b005b634e487b7160e01b5f52604160045260245ffd5b6001600160401b03811161027057604052565b610249565b604081019081106001600160401b0382111761027057604052565b602081019081106001600160401b0382111761027057604052565b601f909101601f19168101906001600160401b0382119082101761027057604052565b6001600160401b0381116102705760051b60200190565b9080601f830112156101aa5760209082356102ff816102ce565b9361030d60405195866102ab565b81855260208086019260051b8201019283116101aa57602001905b828210610336575050505090565b81358152908301908301610328565b346101aa5760603660031901126101aa576001600160401b036004358181116101aa57366023820112156101aa578060040135610381816102ce565b9161038f60405193846102ab565b8183526020916024602085019160051b830101913683116101aa57602401905b8282106103f15785856024358281116101aa576103d09036906004016102e5565b6044359283116101aa576103eb6102479336906004016102e5565b91610d21565b813581529083019083016103af565b346101aa575f3660031901126101aa576020604051601f193601358152f35b346101aa576040806003193601126101aa5760043560243561043f6110fd565b61045261044d61044d612132565b610d6a565b9161045b611089565b845163087bdec760e31b815260209485908290818061047e878960048401610d8e565b03915afa908115610563575f916105b5575b50156105a657506104a561044d61044d612132565b8385518092637a451cb960e11b825281806104c38760048301610db2565b03915afa908115610563575f91610579575b5015610568575b6104ea61044d61044d612132565b845163777c2caf60e01b815260048101839052908490829060249082905afa9384156105635761052d946105289285925f92610536575b5050611238565b61106c565b515f8152602090f35b6105559250803d1061055c575b61054d81836102ab565b810190610dc8565b5f80610521565b503d610543565b610da7565b8351633794351760e01b8152600490fd5b6105999150843d861161059f575b61059181836102ab565b810190610d76565b5f6104d5565b503d610587565b6105b09030611128565b6104dc565b6105cc9150853d871161059f5761059181836102ab565b5f610490565b346101aa5760403660031901126101aa57602460206001600160a01b036105f7612132565b16604051928380926313c42aaf60e21b825260043560048301525afa801561056357610247915f9161062e575b50602435906110a0565b610647915060203d60201161055c5761054d81836102ab565b5f610624565b346101aa5760403660031901126101aa575f60206106d46004356106708161020d565b61068161067b611089565b30611128565b61069f61044d6106976106926112a7565b611ad6565b60601c610d6a565b60405163095ea7b360e01b81526001600160a01b03909216600483015260248035908301529093849283919082906044820190565b03925af18015610563576106e457005b6102479060203d60201161059f5761059181836102ab565b346101aa5760403660031901126101aa57602435600a8110156101aa5761024790600435610ddd565b346101aa5760603660031901126101aa57610247604435602435600435610ec8565b801515036101aa57565b346101aa5760403660031901126101aa5760043561076e8161020d565b6024359061077b82610747565b61078661067b611089565b61079c61044d6106976107976112a7565b611ba1565b91823b156101aa5760405163a22cb46560e01b81526001600160a01b0392909216600483015215156024820152905f908290604490829084905af18015610563576107e357005b806107f06102479261025d565b806101d7565b346101aa576040806003193601126101aa576004356024356108166110fd565b61082461044d61044d612132565b9161082d611089565b845163087bdec760e31b8152602094909190859083908180610853868960048401610d8e565b03915afa80156105635785925f91610959575b501561094657505061087c61044d61044d612132565b8385518092637a451cb960e11b8252818061089a8760048301610db2565b03915afa908115610563575f91610929575b501561056857826108ef915b6108c28482611698565b6108d061044d61044d612132565b8651808095819463777c2caf60e01b8352600483019190602083019252565b03915afa9081156105635761052d935f9261090c575b50506110a0565b6109229250803d1061055c5761054d81836102ab565b5f80610905565b6109409150843d861161059f5761059181836102ab565b5f6108ac565b916109546108ef9330611128565b6108b8565b6109709150833d851161059f5761059181836102ab565b5f610866565b6001600160401b03811161027057601f01601f191660200190565b81601f820112156101aa578035906109a882610976565b926109b660405194856102ab565b828452602083830101116101aa57815f926020809301838601378301015290565b346101aa5760a03660031901126101aa576109f360043561020d565b6109fe60243561020d565b6001600160401b036044358181116101aa57610a1e9036906004016102e5565b506064358181116101aa57610a379036906004016102e5565b506084359081116101aa57610a50903690600401610991565b5060405163bc197c8160e01b8152602090f35b346101aa576020806003193601126101aa57610aaf6004355f610a8a61044d61044d612132565b610a93836116bc565b90604051808096819463b8bfeca160e01b835260048301611054565b03915afa90811561056357610af7925f92610b64575b50602090610ad761044d61044d612132565b604051808096819463777c2caf60e01b8352600483019190602083019252565b03915afa918215610563575f92610b43575b505f5b815190815181101561024757610b3d610b2782600194610d08565b51610b358388870151610d08565b5190866113ef565b01610b0c565b610b5d91925060203d60201161055c5761054d81836102ab565b905f610b09565b6020919250610b84903d805f833e610b7c81836102ab565b810190610fd5565b9190610ac5565b346101aa575f3660031901126101aa5760206101fb612132565b346101aa5760203660031901126101aa576020610bc36004356116e8565b604051908152f35b346101aa5760403660031901126101aa576001600160a01b03610bf681610bf0612132565b16610d6a565b6040516313c42aaf60e21b815260048035908201529190602090839060249082905afa90811561056357610247925f92610c5b575b50610c34611089565b9080831690821603610c4b575b5060243590611705565b610c559030611128565b5f610c41565b610c7591925060203d60201161055c5761054d81836102ab565b905f610c2b565b346101aa5760a03660031901126101aa57610c9860043561020d565b610ca360243561020d565b6084356001600160401b0381116101aa57610cc2903690600401610991565b5060405163f23a6e6160e01b8152602090f35b346101aa5760403660031901126101aa5761024760243560043561106c565b634e487b7160e01b5f52603260045260245ffd5b8051821015610d1c5760209160051b010190565b610cf4565b929190925f5b8451811015610d635780610d5d610d4060019385610d08565b51610d4b8389610d08565b51610d568488610d08565b5191610ec8565b01610d27565b5050509050565b6001600160a01b031690565b908160209103126101aa5751610d8b81610747565b90565b9081526001600160a01b03909116602082015260400190565b6040513d5f823e3d90fd5b9081525f60208201819052604082015260600190565b908160209103126101aa5751610d8b8161020d565b9190610de890611303565b80515115610e9d576020610e2493610e0461044d61044d612132565b604051808097819463777c2caf60e01b8352600483019190602083019252565b03915afa928315610563575f93610e7c575b509060208201905f5b83518051821015610e745790610e6e610e5a82600194610d08565b51610e66838751610d08565b5190886113ef565b01610e3f565b505092505050565b610e9691935060203d60201161055c5761054d81836102ab565b915f610e36565b509050565b634e487b7160e01b5f52601160045260245ffd5b91908201809211610ec357565b610ea2565b60206001600160a01b03610eda612132565b169160246040518094819363777c2caf60e01b835260048301525afa908115610563575f91610f55575b50610f0f8282611441565b838101809111610ec35782610f2392611477565b610f2b6112bd565b805115610d1c57610f5392610f4882846020610f4d950152611f28565b610eb6565b90611649565b565b610f6e915060203d60201161055c5761054d81836102ab565b5f610f04565b9080601f830112156101aa57815190602091610f8f816102ce565b93610f9d60405195866102ab565b81855260208086019260051b8201019283116101aa57602001905b828210610fc6575050505090565b81518152908301908301610fb8565b906020828203126101aa5781516001600160401b03928382116101aa5701906040828203126101aa576040519261100b84610275565b82518181116101aa5782611020918501610f74565b845260208301519081116101aa576110389201610f74565b602082015290565b634e487b7160e01b5f52602160045260245ffd5b9190602083019260038210156110675752565b611040565b90611076826116e8565b908101809111610ec357610f5391611760565b36603319013560601c90811561109b57565b339150565b6110a981611808565b828101809111610ec3576110bc91611830565b6110cc6110c76112a7565b611c43565b908101809111610ec357610f53906110e26112a7565b604051916020830152602082526110f882610275565b6120c1565b61110d6111086112a7565b611d9f565b60f81c61111657565b60405163379a7ed960e01b8152600490fd5b6111306112bd565b805115610d1c576001600160a01b03909116602082015261115090611e2d565b61116d82600160801b600160f01b038316616e7360f01b17612e4d565b8015611228575b1561117d575050565b608081901b6001600160801b031916906111e890601081901b6001600160901b0319168061121957506111ae612167565b925b8061120857506111da6111c1612167565b6040519485936001600160f01b03191660208501612189565b03601f1981018352826102ab565b61120460405192839263d787b73760e01b84526004840161191f565b0390fd5b6112146111da91612e8b565b6111c1565b61122290612e8b565b926111b0565b506112338282612e4d565b611174565b61124181611808565b82811061127c57828103908111610ec35761125b91611830565b6112666110c76112a7565b908103908111610ec357610f53906110e26112a7565b604051631e9acf1760e31b8152600490fd5b6040519061129b82610275565b60606020838281520152565b6040516112b381610290565b5f8152905f368137565b604051906112ca82610275565b6001825260203681840137565b60405190606082016001600160401b038111838210176102705760405260028252604082602036910137565b61130b61128e565b506113146112bd565b600a82101561106757805115610d1c5760ff61133592166020820152611a04565b915061133f61128e565b9164ffffffffff808360381c169061135f61135a83856130ae565b6138f7565b9360601c1681019182821180156113e5575b6113b0579081602082819401019283910111610ec3578203918211610ec3576113a69160018060801b03169060801b176138f7565b6020830152815290565b6040516323230fa360e01b815260606004820152928392916113d69060648501906118fa565b91602484015260448301520390fd5b5080518311611371565b9190916113fc8382611441565b828101809111610ec3578361141092611477565b6114186112bd565b805115610d1c578083602061142e930152611e9d565b908101809111610ec357610f5391611575565b6114496112d7565b90815115610d1c576001600160a01b03166020820152805160011015610d1c57610d8b916040820152611ccc565b9190916114826112d7565b805190936001600160a01b0392909115610d1c5782166020850152835160011015610d1c576040840152604051916020830152602082526114c282610275565b6114ca612132565b16913083036114dd57610f5392506135a8565b90823b156101aa576040516301c85d5760e51b8152654f776e65727360501b6674624974656d7360c81b01600482015260a06024820152925f92849283918591839161154a91906115329060a48501906119d1565b908460448501526003198483030160648501526118fa565b630100080160dd1b608483015203925af18015610563576115685750565b806107f0610f539261025d565b9061157e6112bd565b91825115610d1c576020830152604051906020820152602081526115a181610275565b6001600160a01b036115b1612132565b16913083036115c457610f539250612845565b90823b156101aa576040516301c85d5760e51b81525f80516020613f10833981519152600482015260a06024820152925f92849283918591839161162a91906116119060a48501906119d1565b60016044850152838103600319016064850152906118fa565b64020010010160d51b608483015203925af18015610563576115685750565b906116526112bd565b91825115610d1c5760208301526040519060208201526020815261167581610275565b6001600160a01b03611685612132565b16913083036115c457610f5392506129ec565b906116a2826116e8565b9080821061127c578103908111610ec357610f5391611760565b6116c46112bd565b805115610d1c576116d9916020820152611f4a565b60f81c60038110156110675790565b6116f06112bd565b805115610d1c57610d8b916020820152611fe4565b61170f8282611441565b906001821061127c575f1991808301908111610ec3578361172f92611477565b6117376112bd565b805115610d1c578083602061174d930152611e9d565b908101908111610ec357610f5391611575565b906117696112bd565b91825115610d1c5760208301526040519060208201526020815261178c81610275565b6001600160a01b0361179c612132565b16913083036117af57610f539250612b67565b90823b156101aa576040516301c85d5760e51b81526f416476656e74757265457363726f7700631d18955160e21b01600482015260a06024820152925f92849283918591839161154a91906115329060a48501906119d1565b6118106112bd565b805115610d1c576001600160a01b039091166020820152610d8b90611d35565b906118396112bd565b805190926001600160a01b039115610d1c57811660208401526040519160208301526020825261186882610275565b611870612132565b169130830361188357610f53925061371f565b90823b156101aa576040516301c85d5760e51b81526742616c616e63657360401b651d1891dbdb1960d21b01600482015260a06024820152925f92849283918591839161154a91906115329060a48501906119d1565b5f5b8381106118ea5750505f910152565b81810151838201526020016118db565b90602091611913815180928185528580860191016118d9565b601f01601f1916010190565b906119376020919493946040845260408401906118fa565b6001600160a01b03909416910152565b81601f820112156101aa57805161195d81610976565b9261196b60405194856102ab565b818452602082840101116101aa57610d8b91602080850191016118d9565b90916060828403126101aa5781516001600160401b0392908381116101aa57846119b4918301611947565b9360208201519360408301519081116101aa57610d8b9201611947565b9081518082526020808093019301915f5b8281106119f0575050505090565b8351855293810193928101926001016119e2565b6001600160a01b03611a14612132565b16308103611a2d5750611a26906121e8565b9192909190565b60405163419b58fd60e01b81526f416476616e636564436c617373497465631d18955160e21b0160048201526060602482015292915f91849182908190611a789060648301906119d1565b600160e11b604483015203915afa908115610563575f80935f93611a9d575b50929190565b91935050611abd91503d805f833e611ab581836102ab565b810190611989565b929092915f611a97565b908160209103126101aa575190565b6001600160a01b03611ae6612132565b16308103611af85750610d8b906122b6565b604051638c364d5960e01b81526f556c74696d617465446f6d696e696f6e631d18955160e21b0160048201526080602482015291602091839182908190611b439060848301906119d1565b600160448301526f45434000450505050505050805080805607a1b606483015203915afa908115610563575f91611b78575090565b610d8b915060203d602011611b9a575b611b9281836102ab565b810190611ac7565b503d611b88565b6001600160a01b03611bb1612132565b16308103611bc35750610d8b90612348565b604051638c364d5960e01b81526f556c74696d617465446f6d696e696f6e631d18955160e21b0160048201526080602482015291602091839182908190611c0e9060848301906119d1565b600360448301526f45434000450505050505050805080805607a1b606483015203915afa908115610563575f91611b78575090565b6001600160a01b03611c53612132565b16308103611c655750610d8b906123be565b604051638c364d5960e01b81525f80516020613f7083398151915260048201526080602482015291602091839182908190611ca49060848301906119d1565b5f6044830152630100080160dd1b606483015203915afa908115610563575f91611b78575090565b6001600160a01b03611cdc612132565b16308103611cee5750610d8b9061243d565b604051638c364d5960e01b8152654f776e65727360501b6674624974656d7360c81b0160048201526080602482015291602091839182908190611ca49060848301906119d1565b6001600160a01b03611d45612132565b16308103611d575750610d8b906124a2565b604051638c364d5960e01b81526742616c616e63657360401b651d1891dbdb1960d21b0160048201526080602482015291602091839182908190611ca49060848301906119d1565b6001600160a01b03611daf612132565b16308103611dc15750610d8b90612508565b604051638c364d5960e01b81526514185d5cd95960521b631d18955160e21b0160048201526080602482015291602091839182908190611e059060848301906119d1565b5f6044830152630101000160d81b606483015203915afa908115610563575f91611b78575090565b6001600160a01b03611e3d612132565b16308103611e4f5750610d8b9061256a565b604051638c364d5960e01b81526f53797374656d52656769737472790000661d189ddbdc9b1960ca1b0160048201526080602482015291602091839182908190611ca49060848301906119d1565b6001600160a01b03611ead612132565b16308103611ebf5750610d8b906125d6565b604051638c364d5960e01b81525f80516020613f1083398151915260048201526080602482015291602091839182908190611efe9060848301906119d1565b6001604483015264020010010160d51b606483015203915afa908115610563575f91611b78575090565b6001600160a01b03611f38612132565b16308103611ebf5750610d8b90612685565b6001600160a01b03611f5a612132565b16308103611f6c5750610d8b906126cd565b604051638c364d5960e01b815264537461747360581b631d18955160e21b0160048201526080602482015291602091839182908190611faf9060848301906119d1565b600260448301526fe60d002020012020202020010101010160781b606483015203915afa908115610563575f91611b78575090565b6001600160a01b03611ff4612132565b163081036120065750610d8b90612770565b604051638c364d5960e01b81526f416476656e74757265457363726f7700631d18955160e21b0160048201526080602482015291602091839182908190611ca49060848301906119d1565b6001600160a01b03612061612132565b163081036120735750610d8b906127d9565b604051638c364d5960e01b81526f5265736f757263654163636573730000661d189ddbdc9b1960ca1b0160048201526080602482015291602091839182908190611e059060848301906119d1565b906001600160a01b036120d2612132565b16913083036120e557610f539250612ce6565b90823b156101aa576040516301c85d5760e51b81525f80516020613f70833981519152600482015260a06024820152925f92849283918591839161154a91906115329060a48501906119d1565b7f629a4c26e296b22a8e0856e9f6ecb2d1008d7e00081111962cd175fa7488e175546001600160a01b031680610d8b57503390565b6040519061217482610275565b60068252651e3937b7ba1f60d11b6020830152565b90916004939261ffff60f01b168252601d60f91b918260028201526121b88251809360206003850191016118d9565b019060038201526121d282518093602086850191016118d9565b010190565b60ff1660ff8114610ec35760010190565b6121f0612ee9565b6040519160208301836122038383612f46565b0393612217601f19958681018352826102ab565b5190205f80516020613f5083398151915218549066ffffffffffffff821661225761224182610976565b9161224f60405193846102ab565b808352610976565b60208201950136863793925f935b60ff85169060028210156122ac576122a69181610f486122a09364ffffffffff896122908c8b612fd4565b956028026038011c168094613064565b946121d7565b93612265565b5050949193925050565b6122bf90613103565b5f905f5b60018110612316575081816020821015612300575b505080548260031b1b9160200390816014116122f357505090565b600101549060031b1c1790565b90809350601f925060051c019116905f806122d8565b9160ff6f45434000450505050505050805080805607a1b84601b0360031b1c168101809111610ec357916001016122c3565b61235190613103565b5f9190825b600380851015612394576f45434000450505050505050805080805607a1b601b86900390911b1c60ff168101908110610ec357600190930192612356565b509192508181602082101561230057505080548260031b1b9160200390816014116122f357505090565b60405160208160208101936a546f74616c537570706c7960281b651d1891dbdb1960d21b0185526040820160208251919201935f5b82811061242657505050612410925003601f1981018352826102ab565b5190205f80516020613ef0833981519152185490565b8551845294810194869450928101926001016123f3565b6040516020816020810193654f776e65727360501b6674624974656d7360c81b0185526040820160208251919201935f5b82811061248b57505050612410925003601f1981018352826102ab565b85518452948101948694509281019260010161246e565b60405160208160208101936742616c616e63657360401b651d1891dbdb1960d21b0185526040820160208251919201935f5b8281106124f157505050612410925003601f1981018352826102ab565b8551845294810194869450928101926001016124d4565b60405160208160208101936514185d5cd95960521b631d18955160e21b0185526040820160208251919201935f5b82811061255357505050612410925003601f1981018352826102ab565b855184529481019486945092810192600101612536565b60405160208160208101936f53797374656d52656769737472790000661d189ddbdc9b1960ca1b0185526040820160208251919201935f5b8281106125bf57505050612410925003601f1981018352826102ab565b8551845294810194869450928101926001016125a2565b604080515f80516020613f108339815191526020808301918252845190949193918501918391908201905f5b8782821061266e57505050612620925003601f1981018352826102ab565b5190205f80516020613ef0833981519152189061263b6133f2565b91808284101561265d575b5080548360031b1b9282038092116122f357505090565b601f84169360051c0190505f612646565b855184529485019486945090920191600101612602565b61268e906131ea565b6126966133f2565b908060208310156126bc575b5080548260031b1b9160200390816020116122f357505090565b601f83169260051c0190505f6126a2565b6040516126e2816111da602082019485612f91565b5190205f80516020613ef0833981519152185f905f5b6002811061273e575081816020821015612728575b505080548260031b1b9160200390816001116122f357505090565b90809350601f925060051c019116905f8061270d565b9160ff6fe60d002020012020202020010101010160781b84601b0360031b1c168101809111610ec357916001016126f8565b60405160208160208101936f416476656e74757265457363726f7700631d18955160e21b0185526040820160208251919201935f5b8281106127c257505050612410925003601f1981018352826102ab565b8551845294810194869450928101926001016127a5565b60405160208160208101936f5265736f757263654163636573730000661d189ddbdc9b1960ca1b0185526040820160208251919201935f5b82811061282e57505050612410925003601f1981018352826102ab565b855184529481019486945092810192600101612811565b91909165ffffffffffff6128576133f2565b16612861826131ea565b612869613a55565b905f5b8251811015612911576128a06128936128858386610d08565b516001600160581b03191690565b6001600160581b03191690565b9060049182808260581c16146128bc575b50600191500161286c565b60601c803b156101aa57855f9188838c966128eb6040519889968795869463964f667d60e01b865285016134cf565b03925af191821561056357600192156128b157806107f061290b9261025d565b5f6128b1565b5060408051909693929161295691859185915f80516020613f10833981519152905f80516020613ed0833981519152908061294e87878e84613453565b0390a2613e26565b5f5b81518110156129e3576129716128936128858385610d08565b6008808260581c1614612988575b50600101612958565b60601c90813b156101aa57875163a8ba872160e01b8152915f9083908183816129b68b8b8e600485016134cf565b03925af1918215610563576001926129d0575b509061297f565b806107f06129dd9261025d565b5f6129c9565b50505050509050565b91909165ffffffffffff6129fe6133f2565b16612a08826132bd565b612a10613baa565b905f5b8251811015612a9d57612a2c6128936128858386610d08565b9060049182808260581c1614612a48575b506001915001612a13565b60601c803b156101aa57855f9188838c96612a776040519889968795869463964f667d60e01b865285016134cf565b03925af19182156105635760019215612a3d57806107f0612a979261025d565b5f612a3d565b50604080519096939291612ada91859185915f80516020613f10833981519152905f80516020613ed0833981519152908061294e87878e84613453565b5f5b81518110156129e357612af56128936128858385610d08565b6008808260581c1614612b0c575b50600101612adc565b60601c90813b156101aa57875163a8ba872160e01b8152915f908390818381612b3a8b8b8e600485016134cf565b03925af191821561056357600192612b54575b5090612b03565b806107f0612b619261025d565b5f612b4d565b9190612b7283613181565b91612b7b61394c565b905f5b8251811015612c0757612b976128936128858386610d08565b9060049182808260581c1614612bb3575b506001915001612b7e565b60601c803b156101aa57855f918983612be1966040519788958694859363964f667d60e01b85528401613484565b03925af19182156105635760019215612ba857806107f0612c019261025d565b5f612ba8565b50929190612c52826040946040515f80516020613ed08339815191526f416476656e74757265457363726f7700631d18955160e21b019180612c4a868d83613428565b0390a2613da2565b5f5b8151811015612cde57612c6d6128936128858385610d08565b6008808260581c1614612c84575b50600101612c54565b60601c90813b156101aa57845163a8ba872160e01b8152915f908390818381612cb18a8e60048401613484565b03925af191821561056357600192612ccb575b5090612c7b565b806107f0612cd89261025d565b5f612cc4565b505050509050565b9190612cf183613254565b91612cfa613b00565b905f5b8251811015612d8657612d166128936128858386610d08565b9060049182808260581c1614612d32575b506001915001612cfd565b60601c803b156101aa57855f918983612d60966040519788958694859363964f667d60e01b85528401613516565b03925af19182156105635760019215612d2757806107f0612d809261025d565b5f612d27565b5060408051919490939291612dc19184915f80516020613f70833981519152905f80516020613ed08339815191529080612c4a868d83613428565b5f5b8151811015612cde57612ddc6128936128858385610d08565b6008808260581c1614612df3575b50600101612dc3565b60601c90813b156101aa57845163a8ba872160e01b8152915f908390818381612e208a8e60048401613516565b03925af191821561056357600192612e3a575b5090612dea565b806107f0612e479261025d565b5f612e33565b612e556112d7565b90815115610d1c576020820152805160011015610d1c576001600160a01b039091166040820152612e8590612051565b60f81c90565b5f5b60108110612ebc575b6040516001600160801b0319909216602083015260108252612eb782610275565b815290565b6001600160801b03198216600382901b1b6001600160f81b03191615612ee457600101612e8d565b612e96565b604051612ef581610290565b5f815290565b6953746f7265486f6f6b7360301b66746273746f726560c81b01815281516020918201928201915f5b828110612f32575050505090565b835185529381019392810192600101612f24565b6f416476616e636564436c617373497465631d18955160e21b01815281516020918201928201915f5b828110612f7d575050505090565b835185529381019392810192600101612f6f565b64537461747360581b631d18955160e21b01815281516020918201928201915f5b828110612fc0575050505090565b835185529381019392810192600101612fb2565b604080516f416476616e636564436c617373497465631d18955160e21b0160208083019182528451938301969594919391810191905f5b8281106130505750505050613038815f80516020613f30833981519152959603601f1981018352826102ab565b51902060f89190911b6001600160f81b031916181890565b83518952978101979281019260010161300b565b9291925b6020908183106130885780548552930192601f1990910190600101613068565b9190509291928061309857505050565b5f199060031b1c90818351169119905416179052565b90815181116130cd576001600160801b031660209190910160801b1790565b6040516323230fa360e01b815260606004820152925082916130f39060648401906118fa565b905f602484015260448301520390fd5b60405160208160208101936f556c74696d617465446f6d696e696f6e631d18955160e21b0185526040820160208251919201935f5b82811061316a57505050613155925003601f1981018352826102ab565b5190205f80516020613ef08339815191521890565b855184529481019486945092810192600101613138565b60405160208160208101936f416476656e74757265457363726f7700631d18955160e21b0185526040820160208251919201935f5b8281106131d357505050613155925003601f1981018352826102ab565b8551845294810194869450928101926001016131b6565b60405160208160208101936a546f74616c537570706c7960281b6674624974656d7360c81b0185526040820160208251919201935f5b82811061323d57505050613155925003601f1981018352826102ab565b855184529481019486945092810192600101613220565b60405160208160208101936a546f74616c537570706c7960281b651d1891dbdb1960d21b0185526040820160208251919201935f5b8281106132a657505050613155925003601f1981018352826102ab565b855184529481019486945092810192600101613289565b60405160208160208101936a546f74616c537570706c7960281b6674624974656d7360c81b0185526040820160208251919201935f5b82811061331057505050613155925003601f1981018352826102ab565b8551845294810194869450928101926001016132f3565b6040516020816020810193654f776e65727360501b6674624974656d7360c81b0185526040820160208251919201935f5b82811061337557505050613155925003601f1981018352826102ab565b855184529481019486945092810192600101613358565b60405160208160208101936742616c616e63657360401b651d1891dbdb1960d21b0185526040820160208251919201935f5b8281106133db57505050613155925003601f1981018352826102ab565b8551845294810194869450928101926001016133be565b5f805b60018110613401575090565b9060ff64020010010160d51b83601b0360031b1c168101809111610ec357906001016133f5565b909161343f610d8b936060845260608401906119d1565b915f602082015260408184039101526118fa565b65ffffffffffff613470610d8b95936060845260608401906119d1565b9316602082015260408184039101526118fa565b6f416476656e74757265457363726f7700631d18955160e21b018152608060208201819052610d8b9391926134bb918401906119d1565b915f604082015260608184039101526118fa565b5f80516020613f108339815191528152608060208201819052610d8b949265ffffffffffff9161350291908401906119d1565b9316604082015260608184039101526118fa565b5f80516020613f708339815191528152608060208201819052610d8b9391926134bb918401906119d1565b654f776e65727360501b6674624974656d7360c81b018152608060208201819052610d8b9391926134bb918401906119d1565b6742616c616e63657360401b651d1891dbdb1960d21b018152608060208201819052610d8b9391926134bb918401906119d1565b91906135b383613327565b916135bc613c55565b905f5b8251811015613648576135d86128936128858386610d08565b9060049182808260581c16146135f4575b5060019150016135bf565b60601c803b156101aa57855f918983613622966040519788958694859363964f667d60e01b85528401613541565b03925af191821561056357600192156135e957806107f06136429261025d565b5f6135e9565b5060408051919490939291613693918491654f776e65727360501b6674624974656d7360c81b01905f80516020613ed0833981519152908061368b868d83613428565b0390a2613def565b5f5b8151811015612cde576136ae6128936128858385610d08565b6008808260581c16146136c5575b50600101613695565b60601c90813b156101aa57845163a8ba872160e01b8152915f9083908183816136f28a8e60048401613541565b03925af19182156105635760019261370c575b50906136bc565b806107f06137199261025d565b5f613705565b919061372a8361338c565b91613733613cfb565b905f5b82518110156137bf5761374f6128936128858386610d08565b9060049182808260581c161461376b575b506001915001613736565b60601c803b156101aa57855f918983613799966040519788958694859363964f667d60e01b85528401613574565b03925af1918215610563576001921561376057806107f06137b99261025d565b5f613760565b50604080519194909392916138039184916742616c616e63657360401b651d1891dbdb1960d21b01905f80516020613ed0833981519152908061368b868d83613428565b5f5b8151811015612cde5761381e6128936128858385610d08565b6008808260581c1614613835575b50600101613805565b60601c90813b156101aa57845163a8ba872160e01b8152915f9083908183816138628a8e60048401613574565b03925af19182156105635760019261387c575b509061382c565b806107f06138899261025d565b5f613875565b60408051601f19603f85830101811690925283815292602080850193925b818310156138df575050806138c3575b50505090565b5f199060031b1c908183511691199054161790525f80806138bd565b816001858394959796548752019401940191906138ad565b6040805160206020600160801b0384168201810190925260016001607b1b03600584901c1680825290939260801c8285015f5b838110613938575050505050565b82518252918401919084019060010161392a565b6139546112bd565b805115610d1c57613a076139ff6020926f416476656e74757265457363726f7700631d18955160e21b018482015264ffffffffff604051915f80516020613f30833981519152868401846139a88483612efb565b03946139bc601f19968781018352826102ab565b51902018926139e260405191826139d68a82019586612efb565b039081018352826102ab565b5190205f80516020613f50833981519152185460381c169061388f565b8051906130ae565b8060801c916015809260018060801b0316049060405193818501828460051b8701016040528386525f5b848110613a415750505050505090565b825182529185019190830190600101613a31565b613a5d6112bd565b805115610d1c57613ab26139ff6020926a546f74616c537570706c7960281b6674624974656d7360c81b018482015264ffffffffff604051915f80516020613f30833981519152868401846139a88483612efb565b8060801c916015809260018060801b0316049060405193818501828460051b8701016040528386525f5b848110613aec5750505050505090565b825182529185019190830190600101613adc565b613b086112bd565b805115610d1c57613b5c6139ff6020926a546f74616c537570706c7960281b651d1891dbdb1960d21b018482015264ffffffffff604051915f80516020613f30833981519152868401846139a88483612efb565b8060801c916015809260018060801b0316049060405193818501828460051b8701016040528386525f5b848110613b965750505050505090565b825182529185019190830190600101613b86565b613bb26112bd565b805115610d1c57613c076139ff6020926a546f74616c537570706c7960281b6674624974656d7360c81b018482015264ffffffffff604051915f80516020613f30833981519152868401846139a88483612efb565b8060801c916015809260018060801b0316049060405193818501828460051b8701016040528386525f5b848110613c415750505050505090565b825182529185019190830190600101613c31565b613c5d6112bd565b805115610d1c57613cad6139ff602092654f776e65727360501b6674624974656d7360c81b018482015264ffffffffff604051915f80516020613f30833981519152868401846139a88483612efb565b8060801c916015809260018060801b0316049060405193818501828460051b8701016040528386525f5b848110613ce75750505050505090565b825182529185019190830190600101613cd7565b613d036112bd565b805115610d1c57613d546139ff6020926742616c616e63657360401b651d1891dbdb1960d21b018482015264ffffffffff604051915f80516020613f30833981519152868401846139a88483612efb565b8060801c916015809260018060801b0316049060405193818501828460051b8701016040528386525f5b848110613d8e5750505050505090565b825182529185019190830190600101613d7e565b81519060208093019190925b80821015613dd7575080613dc157505050565b5f199060031b1c90818354169119905116179055565b6001839482939451815501930191601f190190613dae565b81519060208093019190925b80821015613e0e575080613dc157505050565b6001839482939451815501930191601f190190613dfb565b825192610f53926020909101919080613e6e575b509290925b602090818310613e5f5784518155930192601f1990910190600101613e3f565b929391905080613dc157505050565b6020811015613ebf575b8015613e3a5791939082602003908360031b5f198460031b1c19811c908751901c908019835416911617815581831115612cde57600101940191601f19910101925f613e3a565b90601f908260051c019116613e7856fe8c0b5119d4cec7b284c6b1b39252a03d1e2f2d7451a5895562524c113bb952be86425bff6b57326c7859e89024fe4f238ca327a1ae4a230180dd2f0e88aaa7d974624974656d73000000000000000000546f74616c537570706c7900000000003b4102da22e32d82fc925482184f16c09fd4281692720b87d124aef6da48a0f114e2fcc58e58e68ec7edc30c8d50dccc3ce2714a623ec81f46b6a63922d765697462476f6c6400000000000000000000546f74616c537570706c790000000000","linkReferences":{}},"methodIdentifiers":{"_msgSender()":"119df25f","_msgValue()":"45ec9354","_world()":"e1af802c","consumeItem(bytes32,uint256)":"ea38fe63","depositToEscrow(bytes32,uint256)":"5b90c590","dropGoldToEscrow(bytes32,uint256)":"f33a0a68","dropGoldToPlayer(bytes32,uint256)":"5e354981","dropItem(bytes32,uint256,uint256)":"832e305c","dropItems(bytes32[],uint256[],uint256[])":"3722e0d1","getEscrowBalance(bytes32)":"e709de68","increaseEscrowBalance(bytes32,uint256)":"0722a703","issueAdvancedClassItems(bytes32,uint8)":"821aac55","issueStarterItems(bytes32)":"daf22fbd","onERC1155BatchReceived(address,address,uint256[],uint256[],bytes)":"bc197c81","onERC1155Received(address,address,uint256,uint256,bytes)":"f23a6e61","setGoldApproval(address,uint256)":"71a9f162","setItemsApproval(address,bool)":"9147852b","supportsInterface(bytes4)":"01ffc9a7","transferGold(address,uint256)":"1c39c7d5","withdrawFromEscrow(bytes32,uint256)":"98cab349"},"id":352}