{"abi":[{"type":"function","name":"_msgSender","inputs":[],"outputs":[{"name":"sender","type":"address","internalType":"address"}],"stateMutability":"view"},{"type":"function","name":"_msgValue","inputs":[],"outputs":[{"name":"value","type":"uint256","internalType":"uint256"}],"stateMutability":"view"},{"type":"function","name":"_world","inputs":[],"outputs":[{"name":"","type":"address","internalType":"address"}],"stateMutability":"view"},{"type":"function","name":"consumeItem","inputs":[{"name":"characterId","type":"bytes32","internalType":"bytes32"},{"name":"itemId","type":"uint256","internalType":"uint256"}],"outputs":[],"stateMutability":"nonpayable"},{"type":"function","name":"depositToEscrow","inputs":[{"name":"characterId","type":"bytes32","internalType":"bytes32"},{"name":"amount","type":"uint256","internalType":"uint256"}],"outputs":[{"name":"_balance","type":"uint256","internalType":"uint256"}],"stateMutability":"nonpayable"},{"type":"function","name":"dropGoldToEscrow","inputs":[{"name":"characterId","type":"bytes32","internalType":"bytes32"},{"name":"amount","type":"uint256","internalType":"uint256"}],"outputs":[],"stateMutability":"nonpayable"},{"type":"function","name":"dropGoldToPlayer","inputs":[{"name":"characterId","type":"bytes32","internalType":"bytes32"},{"name":"amount","type":"uint256","internalType":"uint256"}],"outputs":[],"stateMutability":"nonpayable"},{"type":"function","name":"dropItem","inputs":[{"name":"characterId","type":"bytes32","internalType":"bytes32"},{"name":"itemId","type":"uint256","internalType":"uint256"},{"name":"amount","type":"uint256","internalType":"uint256"}],"outputs":[],"stateMutability":"nonpayable"},{"type":"function","name":"dropItems","inputs":[{"name":"characterIds","type":"bytes32[]","internalType":"bytes32[]"},{"name":"itemIds","type":"uint256[]","internalType":"uint256[]"},{"name":"amounts","type":"uint256[]","internalType":"uint256[]"}],"outputs":[],"stateMutability":"nonpayable"},{"type":"function","name":"getEscrowBalance","inputs":[{"name":"characterId","type":"bytes32","internalType":"bytes32"}],"outputs":[{"name":"_balance","type":"uint256","internalType":"uint256"}],"stateMutability":"view"},{"type":"function","name":"increaseEscrowBalance","inputs":[{"name":"characterId","type":"bytes32","internalType":"bytes32"},{"name":"amount","type":"uint256","internalType":"uint256"}],"outputs":[{"name":"newBalance","type":"uint256","internalType":"uint256"}],"stateMutability":"nonpayable"},{"type":"function","name":"issueAdvancedClassItems","inputs":[{"name":"characterId","type":"bytes32","internalType":"bytes32"},{"name":"advancedClass","type":"uint8","internalType":"enum AdvancedClass"}],"outputs":[],"stateMutability":"nonpayable"},{"type":"function","name":"onERC1155BatchReceived","inputs":[{"name":"","type":"address","internalType":"address"},{"name":"","type":"address","internalType":"address"},{"name":"","type":"uint256[]","internalType":"uint256[]"},{"name":"","type":"uint256[]","internalType":"uint256[]"},{"name":"","type":"bytes","internalType":"bytes"}],"outputs":[{"name":"","type":"bytes4","internalType":"bytes4"}],"stateMutability":"nonpayable"},{"type":"function","name":"onERC1155Received","inputs":[{"name":"","type":"address","internalType":"address"},{"name":"","type":"address","internalType":"address"},{"name":"","type":"uint256","internalType":"uint256"},{"name":"","type":"uint256","internalType":"uint256"},{"name":"","type":"bytes","internalType":"bytes"}],"outputs":[{"name":"","type":"bytes4","internalType":"bytes4"}],"stateMutability":"nonpayable"},{"type":"function","name":"setGoldApproval","inputs":[{"name":"spender","type":"address","internalType":"address"},{"name":"value","type":"uint256","internalType":"uint256"}],"outputs":[],"stateMutability":"nonpayable"},{"type":"function","name":"setItemsApproval","inputs":[{"name":"spender","type":"address","internalType":"address"},{"name":"approval","type":"bool","internalType":"bool"}],"outputs":[],"stateMutability":"nonpayable"},{"type":"function","name":"supportsInterface","inputs":[{"name":"interfaceId","type":"bytes4","internalType":"bytes4"}],"outputs":[{"name":"","type":"bool","internalType":"bool"}],"stateMutability":"pure"},{"type":"function","name":"transferGold","inputs":[{"name":"player","type":"address","internalType":"address"},{"name":"amount","type":"uint256","internalType":"uint256"}],"outputs":[],"stateMutability":"nonpayable"},{"type":"function","name":"withdrawFromEscrow","inputs":[{"name":"characterId","type":"bytes32","internalType":"bytes32"},{"name":"amount","type":"uint256","internalType":"uint256"}],"outputs":[{"name":"_balance","type":"uint256","internalType":"uint256"}],"stateMutability":"nonpayable"},{"type":"event","name":"Store_SpliceDynamicData","inputs":[{"name":"tableId","type":"bytes32","indexed":true,"internalType":"ResourceId"},{"name":"keyTuple","type":"bytes32[]","indexed":false,"internalType":"bytes32[]"},{"name":"dynamicFieldIndex","type":"uint8","indexed":false,"internalType":"uint8"},{"name":"start","type":"uint48","indexed":false,"internalType":"uint48"},{"name":"deleteCount","type":"uint40","indexed":false,"internalType":"uint40"},{"name":"encodedLengths","type":"bytes32","indexed":false,"internalType":"EncodedLengths"},{"name":"data","type":"bytes","indexed":false,"internalType":"bytes"}],"anonymous":false},{"type":"event","name":"Store_SpliceStaticData","inputs":[{"name":"tableId","type":"bytes32","indexed":true,"internalType":"ResourceId"},{"name":"keyTuple","type":"bytes32[]","indexed":false,"internalType":"bytes32[]"},{"name":"start","type":"uint48","indexed":false,"internalType":"uint48"},{"name":"data","type":"bytes","indexed":false,"internalType":"bytes"}],"anonymous":false},{"type":"error","name":"EncodedLengths_InvalidLength","inputs":[{"name":"length","type":"uint256","internalType":"uint256"}]},{"type":"error","name":"GamePaused","inputs":[]},{"type":"error","name":"InsufficientBalance","inputs":[]},{"type":"error","name":"NotAtSpawn","inputs":[]},{"type":"error","name":"NotAuthorizedCaller","inputs":[]},{"type":"error","name":"Slice_OutOfBounds","inputs":[{"name":"data","type":"bytes","internalType":"bytes"},{"name":"start","type":"uint256","internalType":"uint256"},{"name":"end","type":"uint256","internalType":"uint256"}]},{"type":"error","name":"Store_IndexOutOfBounds","inputs":[{"name":"length","type":"uint256","internalType":"uint256"},{"name":"accessedIndex","type":"uint256","internalType":"uint256"}]},{"type":"error","name":"Store_InvalidResourceType","inputs":[{"name":"expected","type":"bytes2","internalType":"bytes2"},{"name":"resourceId","type":"bytes32","internalType":"ResourceId"},{"name":"resourceIdString","type":"string","internalType":"string"}]},{"type":"error","name":"Store_InvalidSplice","inputs":[{"name":"startWithinField","type":"uint40","internalType":"uint40"},{"name":"deleteCount","type":"uint40","internalType":"uint40"},{"name":"fieldLength","type":"uint40","internalType":"uint40"}]},{"type":"error","name":"World_AccessDenied","inputs":[{"name":"resource","type":"string","internalType":"string"},{"name":"caller","type":"address","internalType":"address"}]}],"bytecode":{"object":"0x6080806040523461001657614fd2908161001b8239f35b5f80fdfe60806040526004361015610011575f80fd5b5f3560e01c806301ffc9a7146101445780630722a7031461013f578063119df25f1461013a5780631c39c7d5146101355780633722e0d11461013057806345ec93541461012b5780635b90c590146101265780635e3549811461012157806371a9f1621461011c578063821aac5514610117578063832e305c146101125780639147852b1461010d57806398cab34914610108578063bc197c8114610103578063e1af802c146100fe578063e709de68146100f9578063ea38fe63146100f4578063f23a6e61146100ef5763f33a0a68146100ea575f80fd5b610c80565b610c27565b610ab9565b610a93565b610a79565b6109ed565b61080c565b610767565b61073b565b610712565b610663565b6105dd565b61042a565b61040b565b610350565b61021e565b6101e1565b61019e565b3461019a57602036600319011261019a5760043563ffffffff60e01b811680910361019a5760209063b5dee12760e01b8114908115610189575b506040519015158152f35b6301ffc9a760e01b1490505f61017e565b5f80fd5b3461019a57604036600319011261019a576101bf6101ba6110df565b611071565b6101cd6024356004356110c2565b60206040515f8152f35b5f91031261019a57565b3461019a575f36600319011261019a5760206101fb6110df565b6040516001600160a01b039091168152f35b6001600160a01b0381160361019a57565b3461019a57604036600319011261019a5761025260043561023e8161020d565b6102496101ba6110df565b602435906110f6565b005b634e487b7160e01b5f52604160045260245ffd5b6001600160401b03811161027b57604052565b610254565b604081019081106001600160401b0382111761027b57604052565b602081019081106001600160401b0382111761027b57604052565b601f909101601f19168101906001600160401b0382119082101761027b57604052565b6001600160401b03811161027b5760051b60200190565b9080601f8301121561019a57602090823561030a816102d9565b9361031860405195866102b6565b81855260208086019260051b82010192831161019a57602001905b828210610341575050505090565b81358152908301908301610333565b3461019a57606036600319011261019a576001600160401b0360043581811161019a573660238201121561019a57806004013561038c816102d9565b9161039a60405193846102b6565b8183526020916024602085019160051b8301019136831161019a57602401905b8282106103fc57858560243582811161019a576103db9036906004016102f0565b60443592831161019a576103f66102529336906004016102f0565b91610cef565b813581529083019083016103ba565b3461019a575f36600319011261019a576020604051601f193601358152f35b3461019a5760408060031936011261019a5760043560243561044a611153565b61045d6104586104586125da565b610d43565b916104666110df565b845163087bdec760e31b8152602094859082908180610489878960048401610d67565b03915afa90811561056e575f916105c0575b50156105b157506104b06104586104586125da565b8385518092637a451cb960e11b825281806104ce8760048301610d8b565b03915afa90811561056e575f91610584575b5015610573575b6104f56104586104586125da565b845163777c2caf60e01b815260048101839052908490829060249082905afa93841561056e57610538946105339285925f92610541575b505061126f565b6110c2565b515f8152602090f35b6105609250803d10610567575b61055881836102b6565b810190610da1565b5f8061052c565b503d61054e565b610d80565b8351633794351760e01b8152600490fd5b6105a49150843d86116105aa575b61059c81836102b6565b810190610d4f565b5f6104e0565b503d610592565b6105bb903061117e565b6104e7565b6105d79150853d87116105aa5761059c81836102b6565b5f61049b565b3461019a57604036600319011261019a576105f96101ba6110df565b602460206001600160a01b0361060d6125da565b16604051928380926313c42aaf60e21b825260043560048301525afa801561056e57610252915f91610644575b50602435906110f6565b61065d915060203d6020116105675761055881836102b6565b5f61063a565b3461019a57604036600319011261019a575f60206106ea6004356106868161020d565b6106976106916110df565b3061117e565b6106b56104586106ad6106a86112ee565b611d8c565b60601c610d43565b60405163095ea7b360e01b81526001600160a01b03909216600483015260248035908301529093849283919082906044820190565b03925af1801561056e576106fa57005b6102529060203d6020116105aa5761059c81836102b6565b3461019a57604036600319011261019a57602435600a81101561019a5761025290600435610db6565b3461019a57606036600319011261019a57610252604435602435600435610ed8565b8015150361019a57565b3461019a57604036600319011261019a576004356107848161020d565b602435906107918261075d565b61079c6106916110df565b6107b26104586106ad6107ad6112ee565b611e57565b91823b1561019a5760405163a22cb46560e01b81526001600160a01b0392909216600483015215156024820152905f908290604490829084905af1801561056e576107f957005b8061080661025292610268565b806101d7565b3461019a5760408060031936011261019a5760043560243561082c611153565b61083a6104586104586125da565b916108436110df565b845163087bdec760e31b8152602094909190859083908180610869868960048401610d67565b03915afa801561056e5785925f9161096f575b501561095c5750506108926104586104586125da565b8385518092637a451cb960e11b825281806108b08760048301610d8b565b03915afa90811561056e575f9161093f575b50156105735782610905915b6108d88482611815565b6108e66104586104586125da565b8651808095819463777c2caf60e01b8352600483019190602083019252565b03915afa90811561056e57610538935f92610922575b50506110f6565b6109389250803d106105675761055881836102b6565b5f8061091b565b6109569150843d86116105aa5761059c81836102b6565b5f6108c2565b9161096a610905933061117e565b6108ce565b6109869150833d85116105aa5761059c81836102b6565b5f61087c565b6001600160401b03811161027b57601f01601f191660200190565b81601f8201121561019a578035906109be8261098c565b926109cc60405194856102b6565b8284526020838301011161019a57815f926020809301838601378301015290565b3461019a5760a036600319011261019a57610a0960043561020d565b610a1460243561020d565b6001600160401b0360443581811161019a57610a349036906004016102f0565b5060643581811161019a57610a4d9036906004016102f0565b5060843590811161019a57610a669036906004016109a7565b5060405163bc197c8160e01b8152602090f35b3461019a575f36600319011261019a5760206101fb6125da565b3461019a57602036600319011261019a576020610ab1600435611839565b604051908152f35b3461019a57604036600319011261019a57602435600435610adc610458806125da565b6040516313c42aaf60e21b81526004810183905290602090829060249082905afa90811561056e57610b3e9184915f91610c08575b50610b1a6110df565b6001600160a01b0382811690821603610bf8575b50610b398282611856565b6114a1565b1580610bdd575b610b4b57005b610b54816118b1565b905f5b82518110156102525783610b6b8285610cd6565b5114610b7957600101610b57565b9190915b610b878251611047565b811015610bb55780610ba3610b9d600193610e9a565b84610cd6565b51610bae8285610cd6565b5201610b7d565b50610bd89061025293610bd1610bcb8351611047565b83610cd6565b52826118dd565b611951565b506003610be983611715565b610bf281610ec9565b14610b45565b610c02903061117e565b5f610b2e565b610c21915060203d6020116105675761055881836102b6565b5f610b11565b3461019a5760a036600319011261019a57610c4360043561020d565b610c4e60243561020d565b6084356001600160401b03811161019a57610c6d9036906004016109a7565b5060405163f23a6e6160e01b8152602090f35b3461019a57604036600319011261019a57600435610c9f6101ba6110df565b610ca881611839565b6024358101809111610cbd57610252916119ee565b610e86565b634e487b7160e01b5f52603260045260245ffd5b8051821015610cea5760209160051b010190565b610cc2565b92919092610cfe6101ba6110df565b5f5b8451811015610d3c5780610d36610d1960019385610cd6565b51610d248389610cd6565b51610d2f8488610cd6565b5191610ed8565b01610d00565b5050509050565b6001600160a01b031690565b9081602091031261019a5751610d648161075d565b90565b9081526001600160a01b03909116602082015260400190565b6040513d5f823e3d90fd5b9081525f60208201819052604082015260600190565b9081602091031261019a5751610d648161020d565b9190610dcc90610dc76101ba6110df565b61134a565b80515115610e81576020610e0893610de86104586104586125da565b604051808097819463777c2caf60e01b8352600483019190602083019252565b03915afa92831561056e575f93610e60575b509060208201905f5b83518051821015610e585790610e52610e3e82600194610cd6565b51610e4a838751610cd6565b519088611419565b01610e23565b505092505050565b610e7a91935060203d6020116105675761055881836102b6565b915f610e1a565b509050565b634e487b7160e01b5f52601160045260245ffd5b9060018201809211610cbd57565b91908201809211610cbd57565b634e487b7160e01b5f52602160045260245ffd5b60061115610ed357565b610eb5565b91610ee46101ba6110df565b610ef26104586104586125da565b60405163777c2caf60e01b81526004810185905260209290918390839060249082905afa90811561056e57610f4a610f5392610f59945f9161102a575b5086610f4484610f3f83856114a1565b610ea8565b916114d7565b610f3f856115d5565b836116c6565b620138805a11610f6857505050565b6003610f7383611715565b610f7c81610ec9565b14610f8657505050565b6004610fa3610f9485611741565b610f9d86611764565b90610ea8565b109081610fbf575b50610fb4575050565b610fbd91611781565b565b9050610fcf6104586104586125da565b604051633939f1cd60e11b81526004810185905260248101849052908290829060449082905afa91821561056e575f9261100d575b5050155f610fab565b6110239250803d106105aa5761059c81836102b6565b5f80611004565b6110419150863d88116105675761055881836102b6565b5f610f2f565b5f19810191908211610cbd57565b601f19810191908211610cbd57565b91908203918211610cbd57565b61107a81611a96565b6110bf57611086611304565b805115610cea576001600160a01b0390911660208201526110a690611ef9565b60f81c610fbd57604051637046c88d60e01b8152600490fd5b50565b906110cc82611839565b908101809111610cbd57610fbd916119ee565b36603319013560601c9081156110f157565b339150565b6110ff81611abe565b828101809111610cbd5761111291611ae6565b61112261111d6112ee565b611f86565b908101809111610cbd57610fbd906111386112ee565b6040519160208301526020825261114e82610280565b6123f8565b61116361115e6112ee565b612108565b60f81c61116c57565b60405163379a7ed960e01b8152600490fd5b61118790611a96565b6111a482600160801b600160f01b038316616e7360f01b17613d1d565b801561125f575b156111b4575050565b608081901b6001600160801b0319169061121f90601081901b6001600160901b0319168061125057506111e56127f6565b925b8061123f57506112116111f86127f6565b6040519485936001600160f01b03191660208501612818565b03601f1981018352826102b6565b61123b60405192839263d787b73760e01b845260048401611bd5565b0390fd5b61124b61121191613d5b565b6111f8565b61125990613d5b565b926111e7565b5061126a8282613d1d565b6111ab565b61127881611abe565b8281106112b357828103908111610cbd5761129291611ae6565b61129d61111d6112ee565b908103908111610cbd57610fbd906111386112ee565b604051631e9acf1760e31b8152600490fd5b60408051919082016001600160401b0381118382101761027b5760405260606020838281520152565b6040516112fa8161029b565b5f8152905f368137565b6040519061131182610280565b6001825260203681840137565b60405190606082016001600160401b0381118382101761027b5760405260028252604082602036910137565b6113526112c5565b5061135b611304565b600a821015610ed357805115610cea5761137e9060ff6020931683820152611cba565b9290915061138a6112c5565b9264ffffffffff808460381c16906113a2828461269e565b604080516020600160801b03831681018701909152600582901c60016001607b1b031680825290969160801c868801875f5b848110611404575050505050916113fb93916113f69360601c168101916126f3565b61375e565b90830152815290565b835183529281019291019088906001016113d4565b919091611426838261146b565b828101809111610cbd578361143a926114d7565b611442611304565b805115610cea578083602061145893015261216e565b908101809111610cbd57610fbd916115f2565b61147361131e565b90815115610cea576001600160a01b03166020820152805160011015610cea57610d6491604082015261200f565b6114a961131e565b90815115610cea576001600160a01b03166020820152805160011015610cea57610d649160408201526120e2565b9190916114e261131e565b805190936001600160a01b0392909115610cea5782166020850152835160011015610cea5760408401526040519160208301526020825261152282610280565b61152a6125da565b169130830361153d57610fbd925061445a565b90823b1561019a576040516301c85d5760e51b8152654f776e65727360501b6674624974656d7360c81b01600482015260a06024820152925f9284928391859183916115aa91906115929060a4850190611c87565b90846044850152600319848303016064850152611bb0565b630100080160dd1b608483015203925af1801561056e576115c85750565b80610806610fbd92610268565b6115dd611304565b805115610cea57610d649160208201526121f9565b906115fb611304565b91825115610cea5760208301526040519060208201526020815261161e81610280565b6001600160a01b0361162e6125da565b169130830361164157610fbd9250612ebf565b90823b1561019a576040516301c85d5760e51b81525f80516020614f12833981519152600482015260a06024820152925f9284928391859183916116a7919061168e9060a4850190611c87565b6001604485015283810360031901606485015290611bb0565b64020010010160d51b608483015203925af1801561056e576115c85750565b906116cf611304565b91825115610cea576020830152604051906020820152602081526116f281610280565b6001600160a01b036117026125da565b169130830361164157610fbd9250613066565b61171d611304565b805115610cea5761173291602082015261221b565b60f81c6006811015610ed35790565b611749611304565b805115610cea5761175e9160208201526124a5565b60051c90565b61176c611304565b805115610cea5761175e916020820152612533565b9061178a611304565b91825115610cea576020830152604051906020820152602081526117ad81610280565b6001600160a01b036117bd6125da565b16913083036117d057610fbd92506134c7565b90823b1561019a576117fb925f9283604051809681958294630a87993160e11b84526004840161259a565b03925af1801561056e5761180c5750565b610fbd90610268565b9061181f82611839565b908082106112b3578103908111610cbd57610fbd916119ee565b611841611304565b805115610cea57610d649160208201526122ab565b611860828261146b565b90600182106112b3575f1991808301908111610cbd5783611880926114d7565b611888611304565b805115610cea578083602061189e93015261216e565b908101908111610cbd57610fbd916115f2565b6118b9611304565b805115610cea576118d581610d649360206113f694015261260f565b80519061269e565b91906118e7611304565b805115610cea576020938482015281518060051b90808204861481151715610cbd57906040519386850191601f19603f82880101166040528552865f9101905b83811061193d5750505050610fbd92935061276c565b815183529187019190870190600101611927565b611959611304565b90815115610cea5760208201526001600160a01b036119766125da565b163081036119885750610fbd90613a6d565b803b1561019a576040516336700e8160e21b81525f80516020614f92833981519152600482015260806024820152915f9183918290849082906119cf906084830190611c87565b600360448301526020606483015203925af1801561056e576115c85750565b906119f7611304565b91825115610cea57602083015260405190602082015260208152611a1a81610280565b6001600160a01b03611a2a6125da565b1691308303611a3d57610fbd92506131e1565b90823b1561019a576040516301c85d5760e51b81526f416476656e74757265457363726f7700631d18955160e21b01600482015260a06024820152925f9284928391859183916115aa91906115929060a4850190611c87565b611a9e611304565b805115610cea576001600160a01b039091166020820152610d6490612318565b611ac6611304565b805115610cea576001600160a01b039091166020820152610d6490612078565b90611aef611304565b805190926001600160a01b039115610cea578116602084015260405191602083015260208252611b1e82610280565b611b266125da565b1691308303611b3957610fbd92506145d1565b90823b1561019a576040516301c85d5760e51b81526742616c616e63657360401b651d1891dbdb1960d21b01600482015260a06024820152925f9284928391859183916115aa91906115929060a4850190611c87565b5f5b838110611ba05750505f910152565b8181015183820152602001611b91565b90602091611bc981518092818552858086019101611b8f565b601f01601f1916010190565b90611bed602091949394604084526040840190611bb0565b6001600160a01b03909416910152565b81601f8201121561019a578051611c138161098c565b92611c2160405194856102b6565b8184526020828401011161019a57610d649160208085019101611b8f565b909160608284031261019a5781516001600160401b03929083811161019a5784611c6a918301611bfd565b93602082015193604083015190811161019a57610d649201611bfd565b9081518082526020808093019301915f5b828110611ca6575050505090565b835185529381019392810192600101611c98565b6001600160a01b03611cca6125da565b16308103611ce35750611cdc90612866565b9192909190565b60405163419b58fd60e01b81526f416476616e636564436c617373497465631d18955160e21b0160048201526060602482015292915f91849182908190611d2e906064830190611c87565b600160e11b604483015203915afa90811561056e575f80935f93611d53575b50929190565b91935050611d7391503d805f833e611d6b81836102b6565b810190611c3f565b929092915f611d4d565b9081602091031261019a575190565b6001600160a01b03611d9c6125da565b16308103611dae5750610d6490612911565b604051638c364d5960e01b81526f556c74696d617465446f6d696e696f6e631d18955160e21b0160048201526080602482015291602091839182908190611df9906084830190611c87565b600160448301526f45434000450505050505050805080805607a1b606483015203915afa90811561056e575f91611e2e575090565b610d64915060203d602011611e50575b611e4881836102b6565b810190611d7d565b503d611e3e565b6001600160a01b03611e676125da565b16308103611e795750610d64906129a3565b604051638c364d5960e01b81526f556c74696d617465446f6d696e696f6e631d18955160e21b0160048201526080602482015291602091839182908190611ec4906084830190611c87565b600360448301526f45434000450505050505050805080805607a1b606483015203915afa90811561056e575f91611e2e575090565b6001600160a01b03611f096125da565b16308103611f1b5750610d6490612a19565b604051638c364d5960e01b81526420b236b4b760591b631d18955160e21b0160048201526080602482015291602091839182908190611f5e906084830190611c87565b5f6044830152630101000160d81b606483015203915afa90811561056e575f91611e2e575090565b6001600160a01b03611f966125da565b16308103611fa85750610d6490612a90565b604051638c364d5960e01b81525f80516020614f7283398151915260048201526080602482015291602091839182908190611fe7906084830190611c87565b5f6044830152630100080160dd1b606483015203915afa90811561056e575f91611e2e575090565b6001600160a01b0361201f6125da565b163081036120315750610d6490612af9565b604051638c364d5960e01b8152654f776e65727360501b6674624974656d7360c81b0160048201526080602482015291602091839182908190611fe7906084830190611c87565b6001600160a01b036120886125da565b1630810361209a5750610d6490612b5e565b604051638c364d5960e01b81526742616c616e63657360401b651d1891dbdb1960d21b0160048201526080602482015291602091839182908190611fe7906084830190611c87565b6001600160a01b036120f26125da565b1630810361203157506121049061416f565b5490565b6001600160a01b036121186125da565b1630810361212a5750610d6490612bc4565b604051638c364d5960e01b81526514185d5cd95960521b631d18955160e21b0160048201526080602482015291602091839182908190611f5e906084830190611c87565b6001600160a01b0361217e6125da565b163081036121905750610d6490612c26565b604051638c364d5960e01b81525f80516020614f12833981519152600482015260806024820152916020918391829081906121cf906084830190611c87565b6001604483015264020010010160d51b606483015203915afa90811561056e575f91611e2e575090565b6001600160a01b036122096125da565b163081036121905750610d6490612cd5565b6001600160a01b0361222b6125da565b1630810361223d5750610d6490612d1d565b604051638c364d5960e01b8152644974656d7360581b631d18955160e21b0160048201526080602482015291602091839182908190612280906084830190611c87565b5f6044830152660308200809010160c51b606483015203915afa90811561056e575f91611e2e575090565b6001600160a01b036122bb6125da565b163081036122cd5750610d6490612d7e565b604051638c364d5960e01b81526f416476656e74757265457363726f7700631d18955160e21b0160048201526080602482015291602091839182908190611fe7906084830190611c87565b6001600160a01b036123286125da565b1630810361233a5750610d6490612de7565b604051638c364d5960e01b81526f53797374656d52656769737472790000661d189ddbdc9b1960ca1b0160048201526080602482015291602091839182908190611fe7906084830190611c87565b6001600160a01b036123986125da565b163081036123aa5750610d6490612e53565b604051638c364d5960e01b81526f5265736f757263654163636573730000661d189ddbdc9b1960ca1b0160048201526080602482015291602091839182908190611f5e906084830190611c87565b906001600160a01b036124096125da565b169130830361241c57610fbd9250613360565b90823b1561019a576040516301c85d5760e51b81525f80516020614f72833981519152600482015260a06024820152925f9284928391859183916115aa91906115929060a4850190611c87565b919060406124a06003926f43686172616374657245717569706d65631d18955160e21b018652606060208701526060860190611c87565b930152565b6001600160a01b036124b56125da565b163081036124d857506124ca610d64916149d9565b5460601c64ffffffffff1690565b60405163dbbf0e2160e01b81525f80516020614f9283398151915260048201526060602482015291602091839182908190612517906064830190611c87565b6001604483015203915afa90811561056e575f91611e2e575090565b6001600160a01b036125436125da565b16308103612563575061255b64ffffffffff916149d9565b5460b01c1690565b61258591602091604051808095819463dbbf0e2160e01b835260048301612469565b03915afa90811561056e575f91611e2e575090565b5f80516020614f928339815191528152608060208201819052610d649391926125c591840190611c87565b91600360408201526060818403910152611bb0565b7f629a4c26e296b22a8e0856e9f6ecb2d1008d7e00081111962cd175fa7488e175546001600160a01b031680610d6457503390565b6001600160a01b0361261f6125da565b163081036126315750610d6490613737565b612652915f916040518080958194631e78897760e01b835260048301612469565b03915afa90811561056e575f91612667575090565b90503d805f833e61267881836102b6565b810160208282031261019a5781516001600160401b03811161019a57610d649201611bfd565b90815181116126bd576001600160801b031660209190910160801b1790565b6040516323230fa360e01b815260606004820152925082916126e3906064840190611bb0565b905f602484015260448301520390fd5b8282118015612762575b61272d57908160208281959401019384910111610cbd578103908111610cbd5760018060801b03169060801b1790565b6040516323230fa360e01b81526060600482015292839291612753906064850190611bb0565b91602484015260448301520390fd5b50805183116126fd565b906001600160a01b0361277d6125da565b169130830361279057610fbd9250613805565b90823b1561019a576040516377b7543160e11b81525f80516020614f92833981519152600482015260806024820152925f9284928391859183916117fb91906127dd906084850190611c87565b6003604485015283810360031901606485015290611bb0565b6040519061280382610280565b60068252651e3937b7ba1f60d11b6020830152565b90916004939261ffff60f01b168252601d60f91b91826002820152612847825180936020600385019101611b8f565b019060038201526128618251809360208685019101611b8f565b010190565b61286e613db9565b9161287882614a03565b549266ffffffffffffff8416926128a76128918561098c565b9461289f60405196876102b6565b80865261098c565b602085019490601f190136863793915f925b60ff8416906002821015612907579081610f3f6128f19364ffffffffff8b6128e18a8a613f0a565b956028026038011c168094613f6b565b9260ff809116908114610cbd57600101926128b9565b5050949392915050565b61291a90613fb5565b5f905f5b6001811061297157508181602082101561295b575b505080548260031b1b91602003908160141161294e57505090565b600101549060031b1c1790565b90809350601f925060051c019116905f80612933565b9160ff6f45434000450505050505050805080805607a1b84601b0360031b1c168101809111610cbd579160010161291e565b6129ac90613fb5565b5f9190825b6003808510156129ef576f45434000450505050505050805080805607a1b601b86900390911b1c60ff168101908110610cbd576001909301926129b1565b509192508181602082101561295b57505080548260031b1b91602003908160141161294e57505090565b60405160208160208101936420b236b4b760591b631d18955160e21b0185526040820160208251919201935f5b828110612a7957505050612a63925003601f1981018352826102b6565b5190205f80516020614ef2833981519152185490565b855184529481019486945092810192600101612a46565b60405160208160208101936a546f74616c537570706c7960281b651d1891dbdb1960d21b0185526040820160208251919201935f5b828110612ae257505050612a63925003601f1981018352826102b6565b855184529481019486945092810192600101612ac5565b6040516020816020810193654f776e65727360501b6674624974656d7360c81b0185526040820160208251919201935f5b828110612b4757505050612a63925003601f1981018352826102b6565b855184529481019486945092810192600101612b2a565b60405160208160208101936742616c616e63657360401b651d1891dbdb1960d21b0185526040820160208251919201935f5b828110612bad57505050612a63925003601f1981018352826102b6565b855184529481019486945092810192600101612b90565b60405160208160208101936514185d5cd95960521b631d18955160e21b0185526040820160208251919201935f5b828110612c0f57505050612a63925003601f1981018352826102b6565b855184529481019486945092810192600101612bf2565b604080515f80516020614f128339815191526020808301918252845190949193918501918391908201905f5b87828210612cbe57505050612c70925003601f1981018352826102b6565b5190205f80516020614ef28339815191521890612c8b6142a4565b918082841015612cad575b5080548360031b1b92820380921161294e57505090565b601f84169360051c0190505f612c96565b855184529485019486945090920191600101612c52565b612cde906141d4565b612ce66142a4565b90806020831015612d0c575b5080548260031b1b91602003908160201161294e57505090565b601f83169260051c0190505f612cf2565b6040516020816020810193644974656d7360581b631d18955160e21b0185526040820160208251919201935f5b828110612d6757505050612a63925003601f1981018352826102b6565b855184529481019486945092810192600101612d4a565b60405160208160208101936f416476656e74757265457363726f7700631d18955160e21b0185526040820160208251919201935f5b828110612dd057505050612a63925003601f1981018352826102b6565b855184529481019486945092810192600101612db3565b60405160208160208101936f53797374656d52656769737472790000661d189ddbdc9b1960ca1b0185526040820160208251919201935f5b828110612e3c57505050612a63925003601f1981018352826102b6565b855184529481019486945092810192600101612e1f565b60405160208160208101936f5265736f757263654163636573730000661d189ddbdc9b1960ca1b0185526040820160208251919201935f5b828110612ea857505050612a63925003601f1981018352826102b6565b855184529481019486945092810192600101612e8b565b91909165ffffffffffff612ed16142a4565b16612edb8261409c565b612ee3614b48565b905f5b8251811015612f8b57612f1a612f0d612eff8386610cd6565b516001600160581b03191690565b6001600160581b03191690565b9060049182808260581c1614612f36575b506001915001612ee6565b60601c803b1561019a57855f9188838c96612f656040519889968795869463964f667d60e01b86528501614381565b03925af191821561056e5760019215612f2b5780610806612f8592610268565b5f612f2b565b50604080519096939291612fd091859185915f80516020614f12833981519152905f80516020614ed28339815191529080612fc887878e84614305565b0390a2614d79565b5f5b815181101561305d57612feb612f0d612eff8385610cd6565b6008808260581c1614613002575b50600101612fd2565b60601c90813b1561019a57875163a8ba872160e01b8152915f9083908183816130308b8b8e60048501614381565b03925af191821561056e5760019261304a575b5090612ff9565b8061080661305792610268565b5f613043565b50505050509050565b91909165ffffffffffff6130786142a4565b16613082826141d4565b61308a614b48565b905f5b8251811015613117576130a6612f0d612eff8386610cd6565b9060049182808260581c16146130c2575b50600191500161308d565b60601c803b1561019a57855f9188838c966130f16040519889968795869463964f667d60e01b86528501614381565b03925af191821561056e57600192156130b7578061080661311192610268565b5f6130b7565b5060408051909693929161315491859185915f80516020614f12833981519152905f80516020614ed28339815191529080612fc887878e84614305565b5f5b815181101561305d5761316f612f0d612eff8385610cd6565b6008808260581c1614613186575b50600101613156565b60601c90813b1561019a57875163a8ba872160e01b8152915f9083908183816131b48b8b8e60048501614381565b03925af191821561056e576001926131ce575b509061317d565b806108066131db92610268565b5f6131c7565b91906131ec83614033565b916131f5614ae9565b905f5b825181101561328157613211612f0d612eff8386610cd6565b9060049182808260581c161461322d575b5060019150016131f8565b60601c803b1561019a57855f91898361325b966040519788958694859363964f667d60e01b85528401614336565b03925af191821561056e5760019215613222578061080661327b92610268565b5f613222565b509291906132cc826040946040515f80516020614ed28339815191526f416476656e74757265457363726f7700631d18955160e21b0191806132c4868d836142da565b0390a2614d0b565b5f5b8151811015613358576132e7612f0d612eff8385610cd6565b6008808260581c16146132fe575b506001016132ce565b60601c90813b1561019a57845163a8ba872160e01b8152915f90839081838161332b8a8e60048401614336565b03925af191821561056e57600192613345575b50906132f5565b8061080661335292610268565b5f61333e565b505050509050565b919061336b83614106565b91613374614ba8565b905f5b825181101561340057613390612f0d612eff8386610cd6565b9060049182808260581c16146133ac575b506001915001613377565b60601c803b1561019a57855f9189836133da966040519788958694859363964f667d60e01b855284016143c8565b03925af191821561056e57600192156133a157806108066133fa92610268565b5f6133a1565b506040805191949093929161343b9184915f80516020614f72833981519152905f80516020614ed283398151915290806132c4868d836142da565b5f5b815181101561335857613456612f0d612eff8385610cd6565b6008808260581c161461346d575b5060010161343d565b60601c90813b1561019a57845163a8ba872160e01b8152915f90839081838161349a8a8e600484016143c8565b03925af191821561056e576001926134b4575b5090613464565b806108066134c192610268565b5f6134ad565b9190916134d3816149d9565b5464ffffffffff92838260b01c16906134ed865183610ea8565b8281141595908680613718575b6136ec576135089085614d8a565b95613511614a2d565b925f5b84518110156135a35761352d612f0d612eff8388610cd6565b6010808260581c1614613544575b50600101613514565b60601c90813b1561019a575f888c9389838d61357660405198899687958694630abd6b4560e31b86526004860161476a565b03925af191821561056e57600192613590575b509061353b565b8061080661359d92610268565b5f613589565b509195909396979297875f985b60ff8a1660038110156135d75760ff918a8a6001936028026038011c16019a0116986135b0565b5095929750939892975094506040935f80516020614eb2833981519152604051806136278c8a65ffffffffffff6f43686172616374657245717569706d65631d18955160e21b0197168d85614897565b0390a26136dc575b613642878361363d88613edf565b614d79565b5f5b81518110156136d25761365d612f0d612eff8385610cd6565b6020808260581c1614613674575b50600101613644565b60601c90813b1561019a575f868a9386838b6136a58b5198899687958694636358453360e01b86526004860161476a565b03925af191821561056e576001926136bf575b509061366b565b806108066136cc92610268565b5f6136b8565b5050505050509050565b836136e6866149d9565b5561362f565b604051632994042d60e21b815264ffffffffff8516600482018190525f60248301526044820152606490fd5b508361373061372682614741565b64ffffffffff1690565b14156134fa565b610d649064ffffffffff61375361374d83613f47565b92614a18565b5460b01c1690614971565b6040805160206020600160801b0384168201810190925260016001607b1b03600584901c1680825290939260801c8285015f5b83811061379f575050505050565b825182529184019190840190600101613791565b908160801c916015809160018060801b031604604051936020906020860160208460051b8801016040528387525f5b8481106137f157505050505050565b8251825291850191908301906001016137e2565b91909161381181614a18565b5464ffffffffff92838260b01c169061383561382d8380611064565b875190610ea8565b8281141595908680613a58575b613a2c576138509085614d8a565b95613859614a2d565b925f5b84518110156138eb57613875612f0d612eff8388610cd6565b6010808260581c161461388c575b5060010161385c565b60601c90813b1561019a575f888c9389838d6138be60405198899687958694630abd6b4560e31b8652600486016147ce565b03925af191821561056e576001926138d8575b5090613883565b806108066138e592610268565b5f6138d1565b5091959093969792975f975f985b60ff8a1660038110156139205760ff918a8a6001936028026038011c16019a0116986138f9565b5095929750939892975094506040935f80516020614eb2833981519152604051806139728c8a898d65ffffffffffff6f43686172616374657245717569706d65631d18955160e21b01991690866148dd565b0390a2613a1c575b61398c8761398787613f47565b614cbe565b5f5b81518110156136d2576139a7612f0d612eff8385610cd6565b6020808260581c16146139be575b5060010161398e565b60601c90813b1561019a575f868a9386838b6139ef8b5198899687958694636358453360e01b8652600486016147ce565b03925af191821561056e57600192613a09575b50906139b5565b80610806613a1692610268565b5f613a02565b83613a2686614a18565b5561397a565b604051632994042d60e21b81525f600482015264ffffffffff8516602482018190526044820152606490fd5b5083613a6661372682614741565b1415613842565b90613a77826149d9565b549164ffffffffff92838160b01c1692601f198401848111610cbd578516604091825196613aa48861029b565b5f88525f368137613abf613ab788611055565b895190610ea8565b87811415978880613d08575b613cd957808511613cb35750613ae19086614d8a565b96613aea614a2d565b925f5b8451811015613b7b57613b06612f0d612eff8388610cd6565b6010808260581c1614613b1d575b50600101613aed565b60601c90813b1561019a575f898d9389838e613b4e8e5198899687958694630abd6b4560e31b865260048601614832565b03925af191821561056e57600192613b68575b5090613b14565b80610806613b7592610268565b5f613b61565b50929893979094969196885f995b60ff8b166003811015613bb05760ff918b8b6001936028026038011c16019b011699613b89565b509297509499939850949196505f80516020614eb2833981519152855180613bfd8c8a65ffffffffffff6f43686172616374657245717569706d65631d18955160e21b0197168d8561492a565b0390a2613ca3575b613c13878361363d88613f47565b5f5b81518110156136d257613c2e612f0d612eff8385610cd6565b6020808260581c1614613c45575b50600101613c15565b60601c90813b1561019a575f868a9386838b613c768b5198899687958694636358453360e01b865260048601614832565b03925af191821561056e57600192613c90575b5090613c3c565b80610806613c9d92610268565b5f613c89565b83613cad86614a18565b55613c05565b8551637e8578d360e01b8152600481019190915264ffffffffff85166024820152604490fd5b8551632994042d60e21b815264ffffffffff868116600483015260206024830152919091166044820152606490fd5b5080613d1661372687614754565b1415613acb565b613d2561131e565b90815115610cea576020820152805160011015610cea576001600160a01b039091166040820152613d5590612388565b60f81c90565b5f5b60108110613d8c575b6040516001600160801b0319909216602083015260108252613d8782610280565b815290565b6001600160801b03198216600382901b1b6001600160f81b03191615613db457600101613d5d565b613d66565b604051613dc58161029b565b5f815290565b6953746f7265486f6f6b7360301b66746273746f726560c81b01815281516020918201928201915f5b828110613e02575050505090565b835185529381019392810192600101613df4565b5f80516020614f92833981519152815281516020918201928201915f5b828110613e41575050505090565b835185529381019392810192600101613e33565b6f416476616e636564436c617373497465631d18955160e21b01815281516020918201928201915f5b828110613e8c575050505090565b835185529381019392810192600101613e7e565b5f80516020614f92833981519152815281516020918201928201915f5b828110613ecb575050505090565b835185529381019392810192600101613ebd565b5f80516020614fb283398151915290604051613f0381611211602082019485613e16565b5190201890565b905f80516020614f3283398151915291604051613f2f81611211602082019485613e55565b51902060f89190911b6001600160f81b031916181890565b5f80516020614fb283398151915290604051613f0381611211602082019485613ea0565b9291925b602090818310613f8f5780548552930192601f1990910190600101613f6f565b91905092919280613f9f57505050565b5f199060031b1c90818351169119905416179052565b60405160208160208101936f556c74696d617465446f6d696e696f6e631d18955160e21b0185526040820160208251919201935f5b82811061401c57505050614007925003601f1981018352826102b6565b5190205f80516020614ef28339815191521890565b855184529481019486945092810192600101613fea565b60405160208160208101936f416476656e74757265457363726f7700631d18955160e21b0185526040820160208251919201935f5b82811061408557505050614007925003601f1981018352826102b6565b855184529481019486945092810192600101614068565b60405160208160208101936a546f74616c537570706c7960281b6674624974656d7360c81b0185526040820160208251919201935f5b8281106140ef57505050614007925003601f1981018352826102b6565b8551845294810194869450928101926001016140d2565b60405160208160208101936a546f74616c537570706c7960281b651d1891dbdb1960d21b0185526040820160208251919201935f5b82811061415857505050614007925003601f1981018352826102b6565b85518452948101948694509281019260010161413b565b6040516020816020810193654f776e65727360501b6674624974656d7360c81b0185526040820160208251919201935f5b8281106141bd57505050614007925003601f1981018352826102b6565b8551845294810194869450928101926001016141a0565b60405160208160208101936a546f74616c537570706c7960281b6674624974656d7360c81b0185526040820160208251919201935f5b82811061422757505050614007925003601f1981018352826102b6565b85518452948101948694509281019260010161420a565b60405160208160208101936742616c616e63657360401b651d1891dbdb1960d21b0185526040820160208251919201935f5b82811061428d57505050614007925003601f1981018352826102b6565b855184529481019486945092810192600101614270565b5f805b600181106142b3575090565b9060ff64020010010160d51b83601b0360031b1c168101809111610cbd57906001016142a7565b90916142f1610d6493606084526060840190611c87565b915f60208201526040818403910152611bb0565b65ffffffffffff614322610d649593606084526060840190611c87565b931660208201526040818403910152611bb0565b6f416476656e74757265457363726f7700631d18955160e21b018152608060208201819052610d6493919261436d91840190611c87565b915f60408201526060818403910152611bb0565b5f80516020614f128339815191528152608060208201819052610d64949265ffffffffffff916143b49190840190611c87565b931660408201526060818403910152611bb0565b5f80516020614f728339815191528152608060208201819052610d6493919261436d91840190611c87565b654f776e65727360501b6674624974656d7360c81b018152608060208201819052610d6493919261436d91840190611c87565b6742616c616e63657360401b651d1891dbdb1960d21b018152608060208201819052610d6493919261436d91840190611c87565b91906144658361416f565b9161446e614c07565b905f5b82518110156144fa5761448a612f0d612eff8386610cd6565b9060049182808260581c16146144a6575b506001915001614471565b60601c803b1561019a57855f9189836144d4966040519788958694859363964f667d60e01b855284016143f3565b03925af191821561056e576001921561449b57806108066144f492610268565b5f61449b565b5060408051919490939291614545918491654f776e65727360501b6674624974656d7360c81b01905f80516020614ed2833981519152908061453d868d836142da565b0390a2614d42565b5f5b815181101561335857614560612f0d612eff8385610cd6565b6008808260581c1614614577575b50600101614547565b60601c90813b1561019a57845163a8ba872160e01b8152915f9083908183816145a48a8e600484016143f3565b03925af191821561056e576001926145be575b509061456e565b806108066145cb92610268565b5f6145b7565b91906145dc8361423e565b916145e5614c62565b905f5b825181101561467157614601612f0d612eff8386610cd6565b9060049182808260581c161461461d575b5060019150016145e8565b60601c803b1561019a57855f91898361464b966040519788958694859363964f667d60e01b85528401614426565b03925af191821561056e5760019215614612578061080661466b92610268565b5f614612565b50604080519194909392916146b59184916742616c616e63657360401b651d1891dbdb1960d21b01905f80516020614ed2833981519152908061453d868d836142da565b5f5b8151811015613358576146d0612f0d612eff8385610cd6565b6008808260581c16146146e7575b506001016146b7565b60601c90813b1561019a57845163a8ba872160e01b8152915f9083908183816147148a8e60048401614426565b03925af191821561056e5760019261472e575b50906146de565b8061080661473b92610268565b5f614727565b9064ffffffffff809216918211610cbd57565b90602064ffffffffff80931601918211610cbd57565b909264ffffffffff6147a8610d649694956f43686172616374657245717569706d65631d18955160e21b01855260e0602086015260e0850190611c87565b94600360408501521660608301525f608083015260a082015260c0818403910152611bb0565b909264ffffffffff61480c610d649694956f43686172616374657245717569706d65631d18955160e21b01855260e0602086015260e0850190611c87565b94600360408501525f606085015216608083015260a082015260c0818403910152611bb0565b909264ffffffffff614870610d649694956f43686172616374657245717569706d65631d18955160e21b01855260e0602086015260e0850190611c87565b94600360408501521660608301526020608083015260a082015260c0818403910152611bb0565b909265ffffffffffff6148b7610d6496949560c0855260c0850190611c87565b94600360208501521660408301525f6060830152608082015260a0818403910152611bb0565b919390610d64959365ffffffffffff61490464ffffffffff9360c0875260c0870190611c87565b9660036020870152166040850152166060830152608082015260a0818403910152611bb0565b909265ffffffffffff61494a610d6496949560c0855260c0850190611c87565b946003602085015216604083015260206060830152608082015260a0818403910152611bb0565b60408051601f19603f85830101811690925283815292602080850193925b818310156149c1575050806149a5575b50505090565b5f199060031b1c908183511691199054161790525f808061499f565b8160018583949597965487520194019401919061498f565b6040516149ee81611211602082019485613e16565b5190205f80516020614f528339815191521890565b6040516149ee81611211602082019485613e55565b6040516149ee81611211602082019485613ea0565b614a35611304565b805115610cea57614ae46118d5610d64926f43686172616374657245717569706d65631d18955160e21b01602082015264ffffffffff604051915f80516020614f328339815191526020840184614a8c8483613dcb565b0394614aa0601f19968781018352826102b6565b5190201892614ac76040519182614abb602082019586613dcb565b039081018352826102b6565b5190205f80516020614f52833981519152185460381c1690614971565b6137b3565b614af1611304565b805115610cea57614ae46118d5610d64926f416476656e74757265457363726f7700631d18955160e21b01602082015264ffffffffff604051915f80516020614f328339815191526020840184614a8c8483613dcb565b614b50611304565b805115610cea57614ae46118d5610d64926a546f74616c537570706c7960281b6674624974656d7360c81b01602082015264ffffffffff604051915f80516020614f328339815191526020840184614a8c8483613dcb565b614bb0611304565b805115610cea57614ae46118d5610d64926a546f74616c537570706c7960281b651d1891dbdb1960d21b01602082015264ffffffffff604051915f80516020614f328339815191526020840184614a8c8483613dcb565b614c0f611304565b805115610cea57614ae46118d5610d6492654f776e65727360501b6674624974656d7360c81b01602082015264ffffffffff604051915f80516020614f328339815191526020840184614a8c8483613dcb565b614c6a611304565b805115610cea57614ae46118d5610d64926742616c616e63657360401b651d1891dbdb1960d21b01602082015264ffffffffff604051915f80516020614f328339815191526020840184614a8c8483613dcb565b81519060208093019190925b80821015614cf3575080614cdd57505050565b5f199060031b1c90818354169119905116179055565b6001839482939451815501930191601f190190614cca565b81519060208093019190925b80821015614d2a575080614cdd57505050565b6001839482939451815501930191601f190190614d17565b81519060208093019190925b80821015614d61575080614cdd57505050565b6001839482939451815501930191601f190190614d4e565b8251610fbd93602001929091614e11565b64ffffffffff808311614df85766ffffffffffffff82169060b083901c1683818110614dee570301915b64ffffffffff60b01b60b09190911b1664ffffffffff60b01b199290921666ffffffffffffff64ffffffffff60b01b011991909116171790565b9003900391614db4565b604051637149a3c160e01b815260048101849052602490fd5b909392919380614e50575b509290925b602090818310614e415784518155930192601f1990910190600101614e21565b929391905080614cdd57505050565b6020811015614ea1575b8015614e1c5791939082602003908360031b5f198460031b1c19811c908751901c90801983541691161781558183111561335857600101940191601f19910101925f614e1c565b90601f908260051c019116614e5a56fefe158a7adba34e256807c8a149028d3162918713c3838afc643ce9f96716ebfd8c0b5119d4cec7b284c6b1b39252a03d1e2f2d7451a5895562524c113bb952be86425bff6b57326c7859e89024fe4f238ca327a1ae4a230180dd2f0e88aaa7d974624974656d73000000000000000000546f74616c537570706c7900000000003b4102da22e32d82fc925482184f16c09fd4281692720b87d124aef6da48a0f114e2fcc58e58e68ec7edc30c8d50dccc3ce2714a623ec81f46b6a63922d765697462476f6c6400000000000000000000546f74616c537570706c7900000000007462554400000000000000000000000043686172616374657245717569706d65384102da22e32d82fc925482184f16c09fd4281692720b87d124aef6da48a0f1","linkReferences":{}},"methodIdentifiers":{"_msgSender()":"119df25f","_msgValue()":"45ec9354","_world()":"e1af802c","consumeItem(bytes32,uint256)":"ea38fe63","depositToEscrow(bytes32,uint256)":"5b90c590","dropGoldToEscrow(bytes32,uint256)":"f33a0a68","dropGoldToPlayer(bytes32,uint256)":"5e354981","dropItem(bytes32,uint256,uint256)":"832e305c","dropItems(bytes32[],uint256[],uint256[])":"3722e0d1","getEscrowBalance(bytes32)":"e709de68","increaseEscrowBalance(bytes32,uint256)":"0722a703","issueAdvancedClassItems(bytes32,uint8)":"821aac55","onERC1155BatchReceived(address,address,uint256[],uint256[],bytes)":"bc197c81","onERC1155Received(address,address,uint256,uint256,bytes)":"f23a6e61","setGoldApproval(address,uint256)":"71a9f162","setItemsApproval(address,bool)":"9147852b","supportsInterface(bytes4)":"01ffc9a7","transferGold(address,uint256)":"1c39c7d5","withdrawFromEscrow(bytes32,uint256)":"98cab349"},"id":374}