{"abi":[{"type":"function","name":"_msgSender","inputs":[],"outputs":[{"name":"sender","type":"address","internalType":"address"}],"stateMutability":"view"},{"type":"function","name":"_msgValue","inputs":[],"outputs":[{"name":"value","type":"uint256","internalType":"uint256"}],"stateMutability":"pure"},{"type":"function","name":"_world","inputs":[],"outputs":[{"name":"","type":"address","internalType":"address"}],"stateMutability":"view"},{"type":"function","name":"calculateExpMultiplier","inputs":[{"name":"characterId","type":"bytes32","internalType":"bytes32"}],"outputs":[{"name":"_expMultiplier","type":"uint256","internalType":"uint256"}],"stateMutability":"view"},{"type":"function","name":"consumeItem","inputs":[{"name":"characterId","type":"bytes32","internalType":"bytes32"},{"name":"itemId","type":"uint256","internalType":"uint256"}],"outputs":[],"stateMutability":"nonpayable"},{"type":"function","name":"depositToEscrow","inputs":[{"name":"characterId","type":"bytes32","internalType":"bytes32"},{"name":"amount","type":"uint256","internalType":"uint256"}],"outputs":[{"name":"_balance","type":"uint256","internalType":"uint256"}],"stateMutability":"nonpayable"},{"type":"function","name":"distributePveRewards","inputs":[{"name":"encounterId","type":"bytes32","internalType":"bytes32"},{"name":"randomNumber","type":"uint256","internalType":"uint256"}],"outputs":[{"name":"_expAmount","type":"uint256","internalType":"uint256"},{"name":"_goldAmount","type":"uint256","internalType":"uint256"},{"name":"_itemIdsDropped","type":"uint256[]","internalType":"uint256[]"}],"stateMutability":"nonpayable"},{"type":"function","name":"distributePvpRewards","inputs":[{"name":"encounterId","type":"bytes32","internalType":"bytes32"},{"name":"randomNumber","type":"uint256","internalType":"uint256"}],"outputs":[{"name":"_expAmount","type":"uint256","internalType":"uint256"},{"name":"_goldAmount","type":"uint256","internalType":"uint256"},{"name":"_itemIdsDropped","type":"uint256[]","internalType":"uint256[]"}],"stateMutability":"nonpayable"},{"type":"function","name":"dropGoldToEscrow","inputs":[{"name":"characterId","type":"bytes32","internalType":"bytes32"},{"name":"amount","type":"uint256","internalType":"uint256"}],"outputs":[],"stateMutability":"nonpayable"},{"type":"function","name":"dropGoldToPlayer","inputs":[{"name":"characterId","type":"bytes32","internalType":"bytes32"},{"name":"amount","type":"uint256","internalType":"uint256"}],"outputs":[],"stateMutability":"nonpayable"},{"type":"function","name":"dropItem","inputs":[{"name":"characterId","type":"bytes32","internalType":"bytes32"},{"name":"itemId","type":"uint256","internalType":"uint256"},{"name":"amount","type":"uint256","internalType":"uint256"}],"outputs":[],"stateMutability":"nonpayable"},{"type":"function","name":"dropItems","inputs":[{"name":"characterIds","type":"bytes32[]","internalType":"bytes32[]"},{"name":"itemIds","type":"uint256[]","internalType":"uint256[]"},{"name":"amounts","type":"uint256[]","internalType":"uint256[]"}],"outputs":[],"stateMutability":"nonpayable"},{"type":"function","name":"getEscrowBalance","inputs":[{"name":"characterId","type":"bytes32","internalType":"bytes32"}],"outputs":[{"name":"_balance","type":"uint256","internalType":"uint256"}],"stateMutability":"view"},{"type":"function","name":"increaseEscrowBalance","inputs":[{"name":"characterId","type":"bytes32","internalType":"bytes32"},{"name":"amount","type":"uint256","internalType":"uint256"}],"outputs":[{"name":"newBalance","type":"uint256","internalType":"uint256"}],"stateMutability":"nonpayable"},{"type":"function","name":"issueStarterItems","inputs":[{"name":"characterId","type":"bytes32","internalType":"bytes32"}],"outputs":[],"stateMutability":"nonpayable"},{"type":"function","name":"onERC1155BatchReceived","inputs":[{"name":"","type":"address","internalType":"address"},{"name":"","type":"address","internalType":"address"},{"name":"","type":"uint256[]","internalType":"uint256[]"},{"name":"","type":"uint256[]","internalType":"uint256[]"},{"name":"","type":"bytes","internalType":"bytes"}],"outputs":[{"name":"","type":"bytes4","internalType":"bytes4"}],"stateMutability":"nonpayable"},{"type":"function","name":"onERC1155Received","inputs":[{"name":"","type":"address","internalType":"address"},{"name":"","type":"address","internalType":"address"},{"name":"","type":"uint256","internalType":"uint256"},{"name":"","type":"uint256","internalType":"uint256"},{"name":"","type":"bytes","internalType":"bytes"}],"outputs":[{"name":"","type":"bytes4","internalType":"bytes4"}],"stateMutability":"nonpayable"},{"type":"function","name":"setGoldApproval","inputs":[{"name":"spender","type":"address","internalType":"address"},{"name":"value","type":"uint256","internalType":"uint256"}],"outputs":[],"stateMutability":"nonpayable"},{"type":"function","name":"setItemsApproval","inputs":[{"name":"spender","type":"address","internalType":"address"},{"name":"approval","type":"bool","internalType":"bool"}],"outputs":[],"stateMutability":"nonpayable"},{"type":"function","name":"supportsInterface","inputs":[{"name":"interfaceId","type":"bytes4","internalType":"bytes4"}],"outputs":[{"name":"","type":"bool","internalType":"bool"}],"stateMutability":"pure"},{"type":"function","name":"transferGold","inputs":[{"name":"player","type":"address","internalType":"address"},{"name":"amount","type":"uint256","internalType":"uint256"}],"outputs":[],"stateMutability":"nonpayable"},{"type":"function","name":"withdrawFromEscrow","inputs":[{"name":"characterId","type":"bytes32","internalType":"bytes32"},{"name":"amount","type":"uint256","internalType":"uint256"}],"outputs":[{"name":"_balance","type":"uint256","internalType":"uint256"}],"stateMutability":"nonpayable"},{"type":"event","name":"Store_SetRecord","inputs":[{"name":"tableId","type":"bytes32","indexed":true,"internalType":"ResourceId"},{"name":"keyTuple","type":"bytes32[]","indexed":false,"internalType":"bytes32[]"},{"name":"staticData","type":"bytes","indexed":false,"internalType":"bytes"},{"name":"encodedLengths","type":"bytes32","indexed":false,"internalType":"EncodedLengths"},{"name":"dynamicData","type":"bytes","indexed":false,"internalType":"bytes"}],"anonymous":false},{"type":"event","name":"Store_SpliceStaticData","inputs":[{"name":"tableId","type":"bytes32","indexed":true,"internalType":"ResourceId"},{"name":"keyTuple","type":"bytes32[]","indexed":false,"internalType":"bytes32[]"},{"name":"start","type":"uint48","indexed":false,"internalType":"uint48"},{"name":"data","type":"bytes","indexed":false,"internalType":"bytes"}],"anonymous":false},{"type":"error","name":"Slice_OutOfBounds","inputs":[{"name":"data","type":"bytes","internalType":"bytes"},{"name":"start","type":"uint256","internalType":"uint256"},{"name":"end","type":"uint256","internalType":"uint256"}]},{"type":"error","name":"World_AccessDenied","inputs":[{"name":"resource","type":"string","internalType":"string"},{"name":"caller","type":"address","internalType":"address"}]}],"bytecode":{"object":"0x608060405234801561001057600080fd5b50615117806100206000396000f3fe608060405234801561001057600080fd5b50600436106101825760003560e01c80639147852b116100d8578063daf22fbd1161008c578063ea38fe6311610066578063ea38fe631461035c578063f23a6e611461036f578063f33a0a68146103a757600080fd5b8063daf22fbd1461032e578063e1af802c14610341578063e709de681461034957600080fd5b80639f48799c116100bd5780639f48799c146102a8578063b060475d146102ca578063bc197c81146102dd57600080fd5b80639147852b1461028257806398cab3491461029557600080fd5b80633da0f9621161013a5780635e354981116101145780635e3549811461024957806371a9f1621461025c578063832e305c1461026f57600080fd5b80633da0f9621461021857806345ec93541461022b5780635b90c5901461023657600080fd5b8063119df25f1161016b578063119df25f146101d05780631c39c7d5146101f05780633722e0d11461020557600080fd5b806301ffc9a7146101875780630722a703146101af575b600080fd5b61019a610195366004614382565b6103ba565b60405190151581526020015b60405180910390f35b6101c26101bd3660046143ac565b6103cb565b6040519081526020016101a6565b6101d86103e8565b6040516001600160a01b0390911681526020016101a6565b6102036101fe3660046143e6565b6103f7565b005b610203610213366004614516565b61049f565b6101c26102263660046145f3565b61050f565b36601f1901356101c2565b6101c26102443660046143ac565b61055a565b6102036102573660046143ac565b6107f8565b61020361026a3660046143e6565b6108f5565b61020361027d36600461460c565b610959565b610203610290366004614646565b610a85565b6101c26102a33660046143ac565b610aea565b6102bb6102b63660046143ac565b610d83565b6040516101a69392919061467f565b6102bb6102d83660046143ac565b611282565b6103156102eb36600461474f565b7fbc197c810000000000000000000000000000000000000000000000000000000095945050505050565b6040516001600160e01b031990911681526020016101a6565b61020361033c3660046145f3565b6115bd565b6101d861183d565b6101c26103573660046145f3565b611847565b61020361036a3660046143ac565b611852565b61031561037d3660046147fd565b7ff23a6e610000000000000000000000000000000000000000000000000000000095945050505050565b6102036103b53660046143ac565b61199e565b60006103c582611a1b565b92915050565b60006103de306103d96103e8565b611a83565b6103c58383611a99565b60006103f2611abe565b905090565b610403306103d96103e8565b61040b611af0565b6040517fa9059cbb0000000000000000000000000000000000000000000000000000000081526001600160a01b03848116600483015260248201849052919091169063a9059cbb906044015b6020604051808303816000875af1158015610476573d6000803e3d6000fd5b505050506040513d601f19601f8201168201806040525081019061049a9190614866565b505050565b60005b8251811015610509576105018482815181106104c0576104c0614883565b60200260200101518483815181106104da576104da614883565b60200260200101518484815181106104f4576104f4614883565b6020026020010151610959565b6001016104a2565b50505050565b60008061051b83611847565b9050670de0b6b3a7640000600261053183611afa565b61053f906305f5e1006148af565b61054991906148dc565b61055391906148f0565b9392505050565b600061056461183d565b6001600160a01b03166343def6388461057b6103e8565b6040516001600160e01b031960e085901b16815260048101929092526001600160a01b03166024820152604401602060405180830381865afa1580156105c5573d6000803e3d6000fd5b505050506040513d601f19601f820116820180604052508101906105e99190614866565b156106de576105f661183d565b6040517ff48a39720000000000000000000000000000000000000000000000000000000081526004810185905260006024820181905260448201526001600160a01b03919091169063f48a397290606401602060405180830381865afa158015610664573d6000803e3d6000fd5b505050506040513d601f19601f820116820180604052508101906106889190614866565b6106d95760405162461bcd60e51b815260206004820152601960248201527f63616e206f6e6c79206465706f73697420617420737061776e0000000000000060448201526064015b60405180910390fd5b6106ea565b6106ea306103d96103e8565b6106f2611af0565b6001600160a01b03166323b872dd61070861183d565b6001600160a01b031663777c2caf866040518263ffffffff1660e01b815260040161073591815260200190565b602060405180830381865afa158015610752573d6000803e3d6000fd5b505050506040513d601f19601f820116820180604052508101906107769190614903565b6040516001600160e01b031960e084901b1681526001600160a01b039091166004820152306024820152604481018590526064016020604051808303816000875af11580156107c9573d6000803e3d6000fd5b505050506040513d601f19601f820116820180604052508101906107ed9190614866565b506103c58383611a99565b610804306103d96103e8565b61080c611af0565b6001600160a01b03166340c10f1961082261183d565b6001600160a01b0316634f10aabc856040518263ffffffff1660e01b815260040161084f91815260200190565b602060405180830381865afa15801561086c573d6000803e3d6000fd5b505050506040513d601f19601f820116820180604052508101906108909190614903565b6040516001600160e01b031960e084901b1681526001600160a01b039091166004820152602481018490526044015b600060405180830381600087803b1580156108d957600080fd5b505af11580156108ed573d6000803e3d6000fd5b505050505050565b610901306103d96103e8565b610909611af0565b6040517f095ea7b30000000000000000000000000000000000000000000000000000000081526001600160a01b03848116600483015260248201849052919091169063095ea7b390604401610457565b610965306103d96103e8565b600061096f61183d565b6001600160a01b031663777c2caf856040518263ffffffff1660e01b815260040161099c91815260200190565b602060405180830381865afa1580156109b9573d6000803e3d6000fd5b505050506040513d601f19601f820116820180604052508101906109dd9190614903565b90506109e7611b6a565b6040517ff242432a0000000000000000000000000000000000000000000000000000000081523060048201526001600160a01b038381166024830152604482018690526064820185905260a06084830152600060a4830152919091169063f242432a9060c401600060405180830381600087803b158015610a6757600080fd5b505af1158015610a7b573d6000803e3d6000fd5b5050505050505050565b610a91306103d96103e8565b610a99611b6a565b6040517fa22cb4650000000000000000000000000000000000000000000000000000000081526001600160a01b0384811660048301528315156024830152919091169063a22cb465906044016108bf565b6000610af461183d565b6001600160a01b03166343def63884610b0b6103e8565b6040516001600160e01b031960e085901b16815260048101929092526001600160a01b03166024820152604401602060405180830381865afa158015610b55573d6000803e3d6000fd5b505050506040513d601f19601f82011682018060405250810190610b799190614866565b15610c6957610b8661183d565b6040517ff48a39720000000000000000000000000000000000000000000000000000000081526004810185905260006024820181905260448201526001600160a01b03919091169063f48a397290606401602060405180830381865afa158015610bf4573d6000803e3d6000fd5b505050506040513d601f19601f82011682018060405250810190610c189190614866565b610c645760405162461bcd60e51b815260206004820152601a60248201527f63616e206f6e6c7920776974686472617720617420737061776e00000000000060448201526064016106d0565b610c75565b610c75306103d96103e8565b610c7f8383611bd2565b610c87611af0565b6001600160a01b031663a9059cbb610c9d61183d565b6001600160a01b031663777c2caf866040518263ffffffff1660e01b8152600401610cca91815260200190565b602060405180830381865afa158015610ce7573d6000803e3d6000fd5b505050506040513d601f19601f82011682018060405250810190610d0b9190614903565b6040516001600160e01b031960e084901b1681526001600160a01b039091166004820152602481018590526044016020604051808303816000875af1158015610d58573d6000803e3d6000fd5b505050506040513d601f19601f82011682018060405250810190610d7c9190614866565b5092915050565b6000806060610d94306103d96103e8565b6000610d9f86611c3b565b9050610def60405180610100016040528060008019168152602001600080191681526020016000815260200160008152602001600081526020016000815260200160608152602001606081525090565b604082015115801590610e0457506060820151155b610e505760405162461bcd60e51b815260206004820152601160248201527f496e76616c696420456e636f756e74657200000000000000000000000000000060448201526064016106d0565b610e5861432c565b60008360e0015115610e7f5761012084015160e084015261010084015160c0840152610e96565b61012084015160c084015261010084015160e08401525b60005b8360c0015151811015610f1057610ecc8460c001518281518110610ebf57610ebf614883565b6020026020010151611d40565b92508260e001518460a001818151610ee491906148f0565b90525060a083015160001215610f085760808401805190610f0482614920565b9052505b600101610e99565b5060005b8360e0015151811015611037578360e001518181518110610f3757610f37614883565b6020908102919091010151808552610f4e90611de8565b6040850181905260a085015160009111610f7f57600585604001518660a00151610f78919061493a565b1115610f82565b60015b9050610f918560000151611e82565b8015610f9a5750805b1561102e578451610faa90611f20565b610fb490846148f0565b9250610fc48460e001518b611fb2565b610fce90896148f0565b8551909850610fde906000611fe1565b60c0850151805160009190610ff3908d61494d565b8151811061100357611003614883565b6020026020010151905061101681611e82565b61102c576110298b876000015183612095565b97505b505b50600101610f14565b5060005b8360c001515181101561126b578360c00151818151811061105e5761105e614883565b602002602001015184602001818152505061107761183d565b6001600160a01b031663fa1becc485602001516040518263ffffffff1660e01b81526004016110a891815260200190565b602060405180830381865afa1580156110c5573d6000803e3d6000fd5b505050506040513d601f19601f820116820180604052508101906110e99190614866565b15611263576110fb8460200151611d40565b925060008360a0015113156112555786156111285761112884602001518560800151896103b591906148dc565b6000670de0b6b3a7640000611140866020015161050f565b608087015161114f90866148dc565b61115991906148af565b61116391906148dc565b905061116f600a6123c7565b61117c8660200151611f20565b101580611187575082155b8061119457506080850151155b611253576111a2600a6123c7565b6111af8660200151611f20565b6111b990836148f0565b116111e457808460c0018181516111d091906148f0565b9052506111dd818a6148f0565b9850611253565b6111ee600a6123c7565b6111fb8660200151611f20565b61120590836148f0565b111561125357600061121a8660200151611f20565b611224600a6123c7565b61122e919061493a565b9050808560c00181815161124291906148f0565b90525061124f818b6148f0565b9950505b505b611263846020015184612443565b60010161103b565b506112778960016124ec565b505050509250925092565b6000806060611293306103d96103e8565b600061129e86611c3b565b90506112ee60405180610100016040528060008019168152602001600080191681526020016000815260200160008152602001600081526020016000815260200160608152602001606081525090565b60408201511580159061130357506060820151155b61134f5760405162461bcd60e51b815260206004820152601160248201527f496e76616c696420456e636f756e74657200000000000000000000000000000060448201526064016106d0565b6000806000805b856101000151518110156113a65761138b866101000151828151811061137e5761137e614883565b6020026020010151611e82565b1561139e578161139a81614920565b9250505b600101611356565b508461010001515181036113b957600192505b82156114d75760005b856101000151518110156114535760006113f987610100015183815181106113ec576113ec614883565b60200260200101516125a5565b905060006114086002836148dc565b9050611414818b6148f0565b9950611449886101000151848151811061143057611430614883565b60200260200101518284611444919061493a565b61261e565b50506001016113c2565b5060005b856101200151518110156114d157600061148187610120015183815181106113ec576113ec614883565b90506000876101200151518a61149791906148dc565b90506114c788610120015184815181106114b3576114b3614883565b6020026020010151828461144491906148f0565b5050600101611457565b506115b1565b60005b8561012001515181101561154557600061150487610120015183815181106113ec576113ec614883565b905060006115136002836148dc565b905061151f818b6148f0565b995061153b886101200151848151811061143057611430614883565b50506001016114da565b5060005b856101000151518110156115af57600061157387610100015183815181106113ec576113ec614883565b90506000876101000151518a61158991906148dc565b90506115a588610100015184815181106114b3576114b3614883565b5050600101611549565b505b50505050509250925092565b6115ee6115e97f55440000000000000000000000000000000000000000000000000000000000006126ba565b612707565b6001600160a01b03166115ff6103e8565b6001600160a01b0316146116555760405162461bcd60e51b815260206004820152601560248201527f4954454d533a20496e76616c69642053797374656d000000000000000000000060448201526064016106d0565b600061165f61183d565b6001600160a01b031663b8bfeca1611676846127a3565b6040518263ffffffff1660e01b81526004016116929190614977565b600060405180830381865afa1580156116af573d6000803e3d6000fd5b505050506040513d6000823e601f3d908101601f191682016040526116d791908101906149fe565b905060006116e361183d565b6001600160a01b031663777c2caf846040518263ffffffff1660e01b815260040161171091815260200190565b602060405180830381865afa15801561172d573d6000803e3d6000fd5b505050506040513d601f19601f820116820180604052508101906117519190614903565b905060005b82515181101561050957611768611b6a565b6001600160a01b031663f242432a30848660000151858151811061178e5761178e614883565b6020026020010151876020015186815181106117ac576117ac614883565b60209081029190910101516040516001600160e01b031960e087901b1681526001600160a01b0394851660048201529390921660248401526044830152606482015260a06084820152600060a482015260c401600060405180830381600087803b15801561181957600080fd5b505af115801561182d573d6000803e3d6000fd5b5050600190920191506117569050565b60006103f261284d565b60006103c5826125a5565b600061185c61183d565b6001600160a01b0316634f10aabc846040518263ffffffff1660e01b815260040161188991815260200190565b602060405180830381865afa1580156118a6573d6000803e3d6000fd5b505050506040513d601f19601f820116820180604052508101906118ca9190614903565b9050806001600160a01b03166118de6103e8565b6001600160a01b0316146118f8576118f8306103d96103e8565b611900611b6a565b6040517ff242432a0000000000000000000000000000000000000000000000000000000081526001600160a01b038381166004830152306024830152604482018590526001606483015260a06084830152600060a4830152919091169063f242432a9060c4015b600060405180830381600087803b15801561198157600080fd5b505af1158015611995573d6000803e3d6000fd5b50505050505050565b6119aa306103d96103e8565b60006119b5836125a5565b90506119c58361144484846148f0565b6119cd611af0565b6040517f40c10f19000000000000000000000000000000000000000000000000000000008152306004820152602481018490526001600160a01b0391909116906340c10f1990604401611967565b60006001600160e01b031982167fb5dee1270000000000000000000000000000000000000000000000000000000014806103c557506001600160e01b031982167f01ffc9a7000000000000000000000000000000000000000000000000000000001492915050565b611a95611a8f83612857565b826128dc565b5050565b6000611aa483611847565b90506000611ab283836148f0565b9050610509848261261e565b7fffffffffffffffffffffffffffffffffffffffffffffffffffffffffffffffcc36013560601c80611aed5750335b90565b60006103f2612928565b60006003821115611b5b5750806000611b146002836148dc565b611b1f9060016148f0565b90505b81811015611b5557905080600281611b3a81866148dc565b611b4491906148f0565b611b4e91906148dc565b9050611b22565b50919050565b8115611b65575060015b919050565b604080516000808252602082019092526000611bc87f74625544000000000000000000000000556c74696d617465446f6d696e696f6e8360037e99080001141414141414200000000000000000000000000000000000000000612982565b60601c9392505050565b6000611bdd83611847565b905081811015611c2f5760405162461bcd60e51b815260206004820152601960248201527f6e6f7420656e6f75676820676f6c6420696e20657363726f770000000000000060448201526064016106d0565b6000611ab2838361493a565b611c966040805161014081019091528060008152602001600081526020016000815260200160001515815260200160008152602001600081526020016000815260200160001515815260200160608152602001606081525090565b604080516001808252818301909252600091602080830190803683370190505090508281600081518110611ccc57611ccc614883565b602090810291909101015260008080611d257f74625544000000000000000000000000436f6d626174456e636f756e74657200857ea3080201202001202020010000000000000000000000000000000000000000612a3f565b925092509250611d36838383612b0f565b9695505050505050565b611d4861432c565b604080516001808252818301909252600091602080830190803683370190505090508281600081518110611d7e57611d7e614883565b602090810291909101015260008080611dd77f7462554400000000000000000000000053746174730000000000000000000000857ee1080020200120202020200000000000000000000000000000000000000000612a3f565b925092509250611d36838383612bf2565b604080516001808252818301909252600091829190602080830190803683370190505090508281600081518110611e2157611e21614883565b60209081029190910101526000611e7a7f74625544000000000000000000000000537461747300000000000000000000008360077ee1080020200120202020200000000000000000000000000000000000000000612982565b949350505050565b604080516001808252818301909252600091829190602080830190803683370190505090508281600081518110611ebb57611ebb614883565b60209081029190910101526000611f147f74625544000000000000000000000000456e636f756e746572456e74697479008360017e41030120012000000000000000000000000000000000000000000000000000612982565b9050611e7a8160f81c90565b604080516001808252818301909252600091829190602080830190803683370190505090508281600081518110611f5957611f59614883565b60209081029190910101526000611e7a7f74625544000000000000000000000000537461747300000000000000000000008360067ee1080020200120202020200000000000000000000000000000000000000000612982565b6000611fc683674563918244f400006148af565b611fd0908361494d565b6105539066b1a2bc2ec500006148f0565b60408051600180825281830190925260009160208083019080368337019050509050828160008151811061201757612017614883565b60200260200101818152505061049a7f74625544000000000000000000000000456e636f756e746572456e746974790060001b8260008560405160200161206091815260200190565b60408051601f198184030181529190527e41030120012000000000000000000000000000000000000000000000000000612c6a565b606060006120a161183d565b6001600160a01b03166353d64640856040518263ffffffff1660e01b81526004016120ce91815260200190565b602060405180830381865afa1580156120eb573d6000803e3d6000fd5b505050506040513d601f19601f8201168201806040525081019061210f9190614aa5565b9050600061211c82612d1f565b80602001905181019061212f9190614acd565b905060008160c001515167ffffffffffffffff81111561215157612151614412565b60405190808252806020026020018201604052801561217a578160200160208202803683370190505b50905060008060005b8460c00151518110156122dd578460c0015181815181106121a6576121a6614883565b6020026020010151915060006121bb83612d94565b90506121ca81620f42406148af565b6121d86305f5e1008d61494d565b10156122d45761221d6040518060400160405280600c81526020017f4954454d2044524f50504544000000000000000000000000000000000000000081525084612e29565b61222561183d565b6040517fcd9caca2000000000000000000000000000000000000000000000000000000008152600481018b905260248101859052600160448201526001600160a01b03919091169063cd9caca290606401600060405180830381600087803b15801561229057600080fd5b505af11580156122a4573d6000803e3d6000fd5b50505050828583815181106122bb576122bb614883565b6020908102919091010152836122d081614920565b9450505b50600101612183565b5060008267ffffffffffffffff8111156122f9576122f9614412565b604051908082528060200260200182016040528015612322578160200160208202803683370190505b50905082156123ba576000805b85518110156123b75785818151811061234a5761234a614883565b602002602001015160001461239e5785818151811061236b5761236b614883565b602002602001015183838151811061238557612385614883565b60209081029190910101528161239a81614920565b9250505b8185146123b757806123af81614920565b91505061232f565b50505b9998505050505050505050565b604080516001808252818301909252600091829190602080830190803683370190505090508260001b8160008151811061240357612403614883565b60209081029190910101526000611e7a7f746255440000000000000000000000004c6576656c73000000000000000000008383630100080160dd1b612982565b6000612475826000015183602001518460400151856060015186608001518760a001518860c001518960e00151612e9c565b6040805160018082528183019092529192506000916060918391906020808301908036833701905050905085816000815181106124b4576124b4614883565b60209081029190910101526108ed7f746255440000000000000000000000005374617473000000000000000000000082868686612eda565b60408051600180825281830190925260009160208083019080368337019050509050828160008151811061252257612522614883565b60200260200101818152505061049a7f74625544000000000000000000000000436f6d626174456e636f756e7465720060001b8260038560405160200161257091151560f81b815260010190565b60408051601f198184030181529190527ea3080201202001202020010000000000000000000000000000000000000000612c6a565b6040805160018082528183019092526000918291906020808301908036833701905050905082816000815181106125de576125de614883565b60209081029190910101526000611e7a7f74625544000000000000000000000000416476656e74757265457363726f77008383630100080160dd1b612982565b60408051600180825281830190925260009160208083019080368337019050509050828160008151811061265457612654614883565b60200260200101818152505061049a7f74625544000000000000000000000000416476656e74757265457363726f770060001b8260008560405160200161269d91815260200190565b60408051601f19818403018152919052630100080160dd1b612c6a565b60006103c57f7379000000000000000000000000000000000000000000000000000000000000837f43686172616374657253797374656d0000000000000000000000000000000000612f50565b60408051600180825281830190925260009182919060208083019080368337019050509050828160008151811061274057612740614883565b602090810291909101015260006127987f7462776f726c6400000000000000000053797374656d7300000000000000000083837e15020014010000000000000000000000000000000000000000000000000000612982565b60601c949350505050565b6040805160018082528183019092526000918291906020808301908036833701905050905082816000815181106127dc576127dc614883565b602090810291909101015260006128357f74625544000000000000000000000000537461747300000000000000000000008360027ee1080020200120202020200000000000000000000000000000000000000000612982565b905060f881901c6002811115611e7a57611e7a614961565b60006103f2612fc8565b60408051600180825281830190925260009182919060208083019080368337019050509050826001600160a01b031660001b8160008151811061289c5761289c614883565b60209081029190910101526000611e7a7f7462776f726c6400000000000000000053797374656d526567697374727900008383630100080160dd1b612982565b6128e68282613002565b611a95576128f382613060565b816040517fd787b7370000000000000000000000000000000000000000000000000000000081526004016106d0929190614be5565b604080516000808252602082019092526000611bc87f74625544000000000000000000000000556c74696d617465446f6d696e696f6e8360017e990800011414141414142000000000000000000000000000000000000000005b60008061298d612fc8565b9050306001600160a01b038216036129b3576129ab8686868661318e565b915050611e7a565b6040517f8c364d590000000000000000000000000000000000000000000000000000000081526001600160a01b03821690638c364d59906129fe908990899089908990600401614c4c565b602060405180830381865afa158015612a1b573d6000803e3d6000fd5b505050506040513d601f19601f820116820180604052508101906129ab9190614aa5565b6060600060606000612a4f612fc8565b9050306001600160a01b03821603612a7857612a6c8787876131c4565b93509350935050612b06565b6040517f419b58fd0000000000000000000000000000000000000000000000000000000081526001600160a01b0382169063419b58fd90612ac1908a908a908a90600401614c7b565b600060405180830381865afa158015612ade573d6000803e3d6000fd5b505050506040513d6000823e601f3d908101601f19168201604052612a6c9190810190614ce9565b93509350939050565b612b6a6040805161014081019091528060008152602001600081526020016000815260200160001515815260200160008152602001600081526020016000815260200160001515815260200160608152602001606081525090565b612b73846132cc565b80151560e08a015260c0890182905260a089018390526080890184905284151560608a0152604089018690526020890187905288886002811115612bb957612bb9614961565b6002811115612bca57612bca614961565b8152505050505050505050612bdf8383613350565b6101208301526101008201529392505050565b612bfa61432c565b612c038461339f565b60e0890181905260c0890182905260a089018390526080890184905260608901859052886020810160408201886002811115612c4157612c41614961565b6002811115612c5257612c52614961565b90529790975250505093909252509195945050505050565b6000612c74612fc8565b9050306001600160a01b03821603612c9857612c93868686868661340d565b6108ed565b6040517f390baae00000000000000000000000000000000000000000000000000000000081526001600160a01b0382169063390baae090612ce59089908990899089908990600401614d4c565b600060405180830381600087803b158015612cff57600080fd5b505af1158015612d13573d6000803e3d6000fd5b50505050505050505050565b60408051600180825281830190925260609160009190602080830190803683370190505090508260001b81600081518110612d5c57612d5c614883565b60209081029190910101526000611e7a7f746255440000000000000000000000004d6f62730000000000000000000000008383613429565b604080516001808252818301909252600091829190602080830190803683370190505090508260001b81600081518110612dd057612dd0614883565b60209081029190910101526000611e7a7f746255440000000000000000000000004974656d7300000000000000000000008360017e41030101202000000000000000000000000000000000000000000000000000612982565b611a958282604051602401612e3f929190614d93565b60408051601f198184030181529190526020810180517bffffffffffffffffffffffffffffffffffffffffffffffffffffffff167f9710a9d0000000000000000000000000000000000000000000000000000000001790526134f0565b60608888888888888888604051602001612ebd989796959493929190614db5565b604051602081830303815290604052905098975050505050505050565b6000612ee4612fc8565b9050306001600160a01b03821603612f0357612c938686868686613511565b6040517f298314fb0000000000000000000000000000000000000000000000000000000081526001600160a01b0382169063298314fb90612ce59089908990899089908990600401614e12565b6000612f5e607060106148f0565b7fffff00000000000000000000000000000000000000000000000000000000000085167dffffffffffffffffffffffffffff00000000000000000000000000000000601086901c16176fffffffffffffffffffffffffffffffff19841690911c1790509392505050565b7f629a4c26e296b22a8e0856e9f6ecb2d1008d7e00081111962cd175fa7488e175546000906001600160a01b031680611b65573391505090565b60006130507f6e730000000000000000000000000000000000000000000000000000000000007dffffffffffffffffffffffffffff0000000000000000000000000000000085161783613527565b8061055357506105538383613527565b606081601081901b6000613073836135f0565b9050827fffffffffffffffffffffffffffff0000000000000000000000000000000000008316156130ce576130c97fffffffffffffffffffffffffffff0000000000000000000000000000000000008416613607565b613105565b6040518060400160405280600681526020017f3c726f6f743e00000000000000000000000000000000000000000000000000008152505b6fffffffffffffffffffffffffffffffff1983161561312c5761312783613607565b613163565b6040518060400160405280600681526020017f3c726f6f743e00000000000000000000000000000000000000000000000000008152505b60405160200161317593929190614e63565b6040516020818303038152906040529350505050919050565b60006131bb61319d868661368d565b60ff858116601b0360080285901c166131b685876136e3565b613714565b95945050505050565b60606000606060006131d585613765565b90506131e2878783613788565b935060006131ef866137c1565b905080156132c15761320188886137fe565b935066ffffffffffffff841667ffffffffffffffff81111561322557613225614412565b6040519080825280601f01601f19166020018201604052801561324f576020820181803683370190505b5092506020830160005b828160ff1610156132be5760006132718b8b84613811565b9050600061328e888460ff166028026038011c64ffffffffff1690565b905061329d8260008387613891565b6132a781856148f0565b9350505080806132b690614ef1565b915050613259565b50505b505093509350939050565b6000806000806000806000806132e6896000016020015190565b60f81c60028111156132fa576132fa614961565b60218a015160418b015160618c0151929a50909850965061331c905b60f81c90565b60628a015160828b015160a28c015160c28d01519398509196509450925061334390613316565b9050919395975091939597565b6060806000603885901c64ffffffffff1661337461336f86848461395d565b6139eb565b935090508064ffffffffff606087901c160161339461336f86848461395d565b925050509250929050565b6000806000806000806000806133b9896000016020015190565b60408a015160608b0151919950975060f81c60028111156133dc576133dc614961565b60618a015160818b015160a18c015160c18d015160e1909d01519b9d9a9c939b929a91995097509195509350915050565b613422858561341c84876136e3565b856139fc565b5050505050565b60606000613435612fc8565b9050306001600160a01b0382160361345a57613452858585613c97565b915050610553565b6040517f1e7889770000000000000000000000000000000000000000000000000000000081526001600160a01b03821690631e788977906134a390889088908890600401614f10565b600060405180830381865afa1580156134c0573d6000803e3d6000fd5b505050506040513d6000823e601f3d908101601f191682016040526134529190810190614f3c565b509392505050565b80516a636f6e736f6c652e6c6f67602083016000808483855afa5050505050565b61342285858585856135228b613cd1565b613d56565b60408051600280825260608201835260009283929190602083019080368337019050509050838160008151811061356057613560614883565b602002602001018181525050826001600160a01b031660001b8160018151811061358c5761358c614883565b602090810291909101015260006135e47f7462776f726c640000000000000000005265736f75726365416363657373000083837e01010001000000000000000000000000000000000000000000000000000000612982565b90506131bb8160f81c90565b60006135fe607060106148f0565b9190911b919050565b606060005b601081101561365d576fffffffffffffffffffffffffffffffff198316600882021b7fff00000000000000000000000000000000000000000000000000000000000000161561365d5760010161360c565b604080516fffffffffffffffffffffffffffffffff19851660208201528151603090910190915281815280611e7a565b600082826040516020016136a2929190614f71565b60408051601f1981840301815291905280516020909101207f86425bff6b57326c7859e89024fe4f238ca327a1ae4a230180dd2f0e88aaa7d9189392505050565b600080805b8360ff168110156134e85761370a60ff601b83900360080287901c16836148f0565b91506001016136e8565b60006020821061373a57602082048401935060208281613736576137366148c6565b0691505b508254600882021b6020829003808411156134e8576001850154600882021c82179150509392505050565b600060086137756002602061493a565b61377f91906148af565b9190911c919050565b6060816000036137a75750604080516020810190915260008152610553565b60006137b3858561368d565b90506131bb8160008561408f565b600060086001806137d46002602061493a565b6137de919061493a565b6137e8919061493a565b6137f291906148af565b8260ff911c1692915050565b600061055361380d84846140b2565b5490565b60008383604051602001613826929190614f71565b604051602081830303815290604052805190602001208260f81b7effffffffffffffffffffffffffffffffffffffffffffffffffffffffffffff19167f3b4102da22e32d82fc925482184f16c09fd4281692720b87d124aef6da48a0f1181860001c90509392505050565b821561391857602083106138bb576020830484019350602083816138b7576138b76148c6565b0692505b82156139185760208390036000818410156138de5750600019600884021c6138e8565b50600019600882021c5b8554600886021b818451168219821617845250818411613909575050610509565b50600194909401939182900391015b5b6020821061393a5783548152600190930192601f1990910190602001613919565b8115610509576000600019600884021c8251865482191691161782525050505050565b60008183118061396d5750835182115b156139aa578383836040517f23230fa30000000000000000000000000000000000000000000000000000000081526004016106d093929190614fad565b602084016139b884826148f0565b905060006139c6858561493a565b6fffffffffffffffffffffffffffffffff1660809290921b9190911795945050505050565b606060006105538360206000614108565b7f6f74000000000000000000000000000000000000000000000000000000000000847fffff0000000000000000000000000000000000000000000000000000000000001603613a8657837f8c0b5119d4cec7b284c6b1b39252a03d1e2f2d7451a5895562524c113bb952be848484604051613a7993929190614fd2565b60405180910390a2610509565b6000613a92858561368d565b90506000613a9f86614183565b905060005b8151811015613b74576000828281518110613ac157613ac1614883565b60200260200101519050613aed6004826affffffffffffffffffffff191661420c90919063ffffffff16565b15613b6b576040517f964f667d000000000000000000000000000000000000000000000000000000008152606082901c9063964f667d90613b38908b908b908b908b90600401615005565b600060405180830381600087803b158015613b5257600080fd5b505af1158015613b66573d6000803e3d6000fd5b505050505b50600101613aa4565b50857f8c0b5119d4cec7b284c6b1b39252a03d1e2f2d7451a5895562524c113bb952be868686604051613ba993929190614fd2565b60405180910390a2613bc4828565ffffffffffff168561422a565b60005b8151811015611995576000828281518110613be457613be4614883565b60200260200101519050613c106008826affffffffffffffffffffff191661420c90919063ffffffff16565b15613c8e576040517fa8ba8721000000000000000000000000000000000000000000000000000000008152606082901c9063a8ba872190613c5b908b908b908b908b90600401615005565b600060405180830381600087803b158015613c7557600080fd5b505af1158015613c89573d6000803e3d6000fd5b505050505b50600101613bc7565b6060611e7a613ca7858585613811565b6000613ccc85613cb789896137fe565b9060ff166028026038011c64ffffffffff1690565b61408f565b60007f8b9d8c8b908d9affffffffffffffffffab9e9d939a8d000000000000000000008201613d2057507e60030220202000000000000000000000000000000000000000000000000000919050565b6103c5613d4d7f746273746f72650000000000000000005461626c65730000000000000000000084614240565b60206000613714565b7f6f74000000000000000000000000000000000000000000000000000000000000867fffff0000000000000000000000000000000000000000000000000000000000001603613de257857f8dbb3a9672eebfd3773e72dd9c102393436816d832c7ba9e1e1ac8fcadcac7a986868686604051613dd59493929190615049565b60405180910390a26108ed565b6000613ded87614183565b905060005b8151811015613ec6576000828281518110613e0f57613e0f614883565b60200260200101519050613e3b6001826affffffffffffffffffffff191661420c90919063ffffffff16565b15613ebd576040517f57066c9c000000000000000000000000000000000000000000000000000000008152606082901c906357066c9c90613e8a908c908c908c908c908c908c90600401615088565b600060405180830381600087803b158015613ea457600080fd5b505af1158015613eb8573d6000803e3d6000fd5b505050505b50600101613df2565b50867f8dbb3a9672eebfd3773e72dd9c102393436816d832c7ba9e1e1ac8fcadcac7a987878787604051613efd9493929190615049565b60405180910390a26000613f11888861368d565b90506000602087019050613f2982600089518461425c565b6000613f34856137c1565b1115613fb8576000613f468a8a6140b2565b878155905060208601915060008060005b613f60886137c1565b8160ff161015613fb357613f758d8d83613811565b9250613f908a8260ff166028026038011c64ffffffffff1690565b9150613f9f836000848861425c565b613fa982866148f0565b9450600101613f57565b505050505b60005b8351811015612d13576000848281518110613fd857613fd8614883565b602002602001015190506140046002826affffffffffffffffffffff191661420c90919063ffffffff16565b15614086576040517f5b28cdaf000000000000000000000000000000000000000000000000000000008152606082901c90635b28cdaf90614053908e908e908e908e908e908e90600401615088565b600060405180830381600087803b15801561406d57600080fd5b505af1158015614081573d6000803e3d6000fd5b505050505b50600101613fbb565b60405160208101601f19603f84840101166040528282526134e885858584613891565b600082826040516020016140c7929190614f71565b60408051601f1981840301815291905280516020909101207f14e2fcc58e58e68ec7edc30c8d50dccc3ce2714a623ec81f46b6a63922d76569189392505050565b606060006141168560801c90565b90506fffffffffffffffffffffffffffffffff8516600085828161413c5761413c6148c6565b04905060405193506020840160208202810160405281855260005b82811015614177578451871c825293870193602090910190600101614157565b50505050509392505050565b604080516001808252818301909252606091600091906020808301908036833701905050905082816000815181106141bd576141bd614883565b602090810291909101015260006141f57f746273746f726500000000000000000053746f7265486f6f6b730000000000008383613c97565b9050611e7a614207826000845161395d565b61431b565b60008160ff168261421d8560581c90565b1660ff1614905092915050565b61049a8383835161423b8560200190565b61425c565b60408051602081018490529081018290526000906060016136a2565b82156142d6576020831061428657602083048401935060208381614282576142826148c6565b0692505b82156142d65760208390036000600019600885021c1990506008850281811c91508351811c90508119875416828216178755508184116142c7575050610509565b50600194909401939182900391015b5b602082106142f85780518455600190930192601f19909101906020016142d7565b8115610509576000600019600884021c8554835182191691161785555050505050565b606060006105538360156000614108565b60405180610100016040528060008152602001600081526020016000600281111561435957614359614961565b815260200160008152602001600081526020016000815260200160008152602001600081525090565b60006020828403121561439457600080fd5b81356001600160e01b03198116811461055357600080fd5b600080604083850312156143bf57600080fd5b50508035926020909101359150565b6001600160a01b03811681146143e357600080fd5b50565b600080604083850312156143f957600080fd5b8235614404816143ce565b946020939093013593505050565b634e487b7160e01b600052604160045260246000fd5b604051610120810167ffffffffffffffff8111828210171561444c5761444c614412565b60405290565b604051601f8201601f1916810167ffffffffffffffff8111828210171561447b5761447b614412565b604052919050565b600067ffffffffffffffff82111561449d5761449d614412565b5060051b60200190565b600082601f8301126144b857600080fd5b813560206144cd6144c883614483565b614452565b8083825260208201915060208460051b8701019350868411156144ef57600080fd5b602086015b8481101561450b57803583529183019183016144f4565b509695505050505050565b60008060006060848603121561452b57600080fd5b833567ffffffffffffffff8082111561454357600080fd5b818601915086601f83011261455757600080fd5b813560206145676144c883614483565b82815260059290921b8401810191818101908a84111561458657600080fd5b948201945b838610156145a45785358252948201949082019061458b565b975050870135925050808211156145ba57600080fd5b6145c6878388016144a7565b935060408601359150808211156145dc57600080fd5b506145e9868287016144a7565b9150509250925092565b60006020828403121561460557600080fd5b5035919050565b60008060006060848603121561462157600080fd5b505081359360208301359350604090920135919050565b80151581146143e357600080fd5b6000806040838503121561465957600080fd5b8235614664816143ce565b9150602083013561467481614638565b809150509250929050565b60006060820185835260208560208501526060604085015281855180845260808601915060208701935060005b818110156146c8578451835293830193918301916001016146ac565b509098975050505050505050565b600067ffffffffffffffff8211156146f0576146f0614412565b50601f01601f191660200190565b600082601f83011261470f57600080fd5b813561471d6144c8826146d6565b81815284602083860101111561473257600080fd5b816020850160208301376000918101602001919091529392505050565b600080600080600060a0868803121561476757600080fd5b8535614772816143ce565b94506020860135614782816143ce565b9350604086013567ffffffffffffffff8082111561479f57600080fd5b6147ab89838a016144a7565b945060608801359150808211156147c157600080fd5b6147cd89838a016144a7565b935060808801359150808211156147e357600080fd5b506147f0888289016146fe565b9150509295509295909350565b600080600080600060a0868803121561481557600080fd5b8535614820816143ce565b94506020860135614830816143ce565b93506040860135925060608601359150608086013567ffffffffffffffff81111561485a57600080fd5b6147f0888289016146fe565b60006020828403121561487857600080fd5b815161055381614638565b634e487b7160e01b600052603260045260246000fd5b634e487b7160e01b600052601160045260246000fd5b80820281158282048414176103c5576103c5614899565b634e487b7160e01b600052601260045260246000fd5b6000826148eb576148eb6148c6565b500490565b808201808211156103c5576103c5614899565b60006020828403121561491557600080fd5b8151610553816143ce565b6000600019820361493357614933614899565b5060010190565b818103818111156103c5576103c5614899565b60008261495c5761495c6148c6565b500690565b634e487b7160e01b600052602160045260246000fd5b602081016003831061499957634e487b7160e01b600052602160045260246000fd5b91905290565b600082601f8301126149b057600080fd5b815160206149c06144c883614483565b8083825260208201915060208460051b8701019350868411156149e257600080fd5b602086015b8481101561450b57805183529183019183016149e7565b600060208284031215614a1057600080fd5b815167ffffffffffffffff80821115614a2857600080fd5b9083019060408286031215614a3c57600080fd5b604051604081018181108382111715614a5757614a57614412565b604052825182811115614a6957600080fd5b614a758782860161499f565b825250602083015182811115614a8a57600080fd5b614a968782860161499f565b60208301525095945050505050565b600060208284031215614ab757600080fd5b5051919050565b805160038110611b6557600080fd5b600060208284031215614adf57600080fd5b815167ffffffffffffffff80821115614af757600080fd5b908301906101208286031215614b0c57600080fd5b614b14614428565b8251815260208301516020820152614b2e60408401614abe565b6040820152606083015160608201526080830151608082015260a083015160a082015260c083015182811115614b6357600080fd5b614b6f8782860161499f565b60c08301525060e083810151908201526101009283015192810192909252509392505050565b60005b83811015614bb0578181015183820152602001614b98565b50506000910152565b60008151808452614bd1816020860160208601614b95565b601f01601f19169290920160200192915050565b604081526000614bf86040830185614bb9565b90506001600160a01b03831660208301529392505050565b60008151808452602080850194506020840160005b83811015614c4157815187529582019590820190600101614c25565b509495945050505050565b848152608060208201526000614c656080830186614c10565b60ff949094166040830152506060015292915050565b838152606060208201526000614c946060830185614c10565b9050826040830152949350505050565b600082601f830112614cb557600080fd5b8151614cc36144c8826146d6565b818152846020838601011115614cd857600080fd5b611e7a826020830160208701614b95565b600080600060608486031215614cfe57600080fd5b835167ffffffffffffffff80821115614d1657600080fd5b614d2287838801614ca4565b9450602086015193506040860151915080821115614d3f57600080fd5b506145e986828701614ca4565b85815260a060208201526000614d6560a0830187614c10565b60ff861660408401528281036060840152614d808186614bb9565b9150508260808301529695505050505050565b604081526000614da66040830185614bb9565b90508260208301529392505050565b888152876020820152600060038810614dde57634e487b7160e01b600052602160045260246000fd5b5060f89690961b604087015260418601949094526061850192909252608184015260a183015260c182015260e10192915050565b85815260a060208201526000614e2b60a0830187614c10565b8281036040840152614e3d8187614bb9565b90508460608401528281036080840152614e578185614bb9565b98975050505050505050565b7fffff0000000000000000000000000000000000000000000000000000000000008416815260007f3a000000000000000000000000000000000000000000000000000000000000008060028401528451614ec4816003860160208901614b95565b808401905081600382015284519150614ee4826004830160208801614b95565b0160040195945050505050565b600060ff821660ff8103614f0757614f07614899565b60010192915050565b838152606060208201526000614f296060830185614c10565b905060ff83166040830152949350505050565b600060208284031215614f4e57600080fd5b815167ffffffffffffffff811115614f6557600080fd5b611e7a84828501614ca4565b8281526000602080830184516020860160005b82811015614fa057815184529284019290840190600101614f84565b5091979650505050505050565b606081526000614fc06060830186614bb9565b60208301949094525060400152919050565b606081526000614fe56060830186614c10565b65ffffffffffff851660208401528281036040840152611d368185614bb9565b84815260806020820152600061501e6080830186614c10565b65ffffffffffff85166040840152828103606084015261503e8185614bb9565b979650505050505050565b60808152600061505c6080830187614c10565b828103602084015261506e8187614bb9565b9050846040840152828103606084015261503e8185614bb9565b86815260c0602082015260006150a160c0830188614c10565b82810360408401526150b38188614bb9565b905085606084015282810360808401526150cd8186614bb9565b9150508260a083015297965050505050505056fea26469706673582212200e86dab56b981dfe539bb87a7ab6fc9d44934a0d3a388570e21b77a4226fe8e064736f6c63430008180033","linkReferences":{}},"methodIdentifiers":{"_msgSender()":"119df25f","_msgValue()":"45ec9354","_world()":"e1af802c","calculateExpMultiplier(bytes32)":"3da0f962","consumeItem(bytes32,uint256)":"ea38fe63","depositToEscrow(bytes32,uint256)":"5b90c590","distributePveRewards(bytes32,uint256)":"9f48799c","distributePvpRewards(bytes32,uint256)":"b060475d","dropGoldToEscrow(bytes32,uint256)":"f33a0a68","dropGoldToPlayer(bytes32,uint256)":"5e354981","dropItem(bytes32,uint256,uint256)":"832e305c","dropItems(bytes32[],uint256[],uint256[])":"3722e0d1","getEscrowBalance(bytes32)":"e709de68","increaseEscrowBalance(bytes32,uint256)":"0722a703","issueStarterItems(bytes32)":"daf22fbd","onERC1155BatchReceived(address,address,uint256[],uint256[],bytes)":"bc197c81","onERC1155Received(address,address,uint256,uint256,bytes)":"f23a6e61","setGoldApproval(address,uint256)":"71a9f162","setItemsApproval(address,bool)":"9147852b","supportsInterface(bytes4)":"01ffc9a7","transferGold(address,uint256)":"1c39c7d5","withdrawFromEscrow(bytes32,uint256)":"98cab349"},"id":266}