{"abi":[{"type":"function","name":"_msgSender","inputs":[],"outputs":[{"name":"sender","type":"address","internalType":"address"}],"stateMutability":"view"},{"type":"function","name":"_msgValue","inputs":[],"outputs":[{"name":"value","type":"uint256","internalType":"uint256"}],"stateMutability":"pure"},{"type":"function","name":"_world","inputs":[],"outputs":[{"name":"","type":"address","internalType":"address"}],"stateMutability":"view"},{"type":"function","name":"calculateExpMultiplier","inputs":[{"name":"characterId","type":"bytes32","internalType":"bytes32"}],"outputs":[{"name":"_expMultiplier","type":"uint256","internalType":"uint256"}],"stateMutability":"view"},{"type":"function","name":"depositToEscrow","inputs":[{"name":"characterId","type":"bytes32","internalType":"bytes32"},{"name":"amount","type":"uint256","internalType":"uint256"}],"outputs":[{"name":"_balance","type":"uint256","internalType":"uint256"}],"stateMutability":"nonpayable"},{"type":"function","name":"distributePveRewards","inputs":[{"name":"encounterId","type":"bytes32","internalType":"bytes32"},{"name":"randomNumber","type":"uint256","internalType":"uint256"}],"outputs":[{"name":"_expAmount","type":"uint256","internalType":"uint256"},{"name":"_goldAmount","type":"uint256","internalType":"uint256"},{"name":"_itemIdsDropped","type":"uint256[]","internalType":"uint256[]"}],"stateMutability":"nonpayable"},{"type":"function","name":"distributePvpRewards","inputs":[{"name":"encounterId","type":"bytes32","internalType":"bytes32"},{"name":"randomNumber","type":"uint256","internalType":"uint256"}],"outputs":[{"name":"_expAmount","type":"uint256","internalType":"uint256"},{"name":"_goldAmount","type":"uint256","internalType":"uint256"},{"name":"_itemIdsDropped","type":"uint256[]","internalType":"uint256[]"}],"stateMutability":"nonpayable"},{"type":"function","name":"dropGoldToEscrow","inputs":[{"name":"characterId","type":"bytes32","internalType":"bytes32"},{"name":"amount","type":"uint256","internalType":"uint256"}],"outputs":[],"stateMutability":"nonpayable"},{"type":"function","name":"dropGoldToPlayer","inputs":[{"name":"characterId","type":"bytes32","internalType":"bytes32"},{"name":"amount","type":"uint256","internalType":"uint256"}],"outputs":[],"stateMutability":"nonpayable"},{"type":"function","name":"dropItem","inputs":[{"name":"characterId","type":"bytes32","internalType":"bytes32"},{"name":"itemId","type":"uint256","internalType":"uint256"},{"name":"amount","type":"uint256","internalType":"uint256"}],"outputs":[],"stateMutability":"nonpayable"},{"type":"function","name":"dropItems","inputs":[{"name":"characterIds","type":"bytes32[]","internalType":"bytes32[]"},{"name":"itemIds","type":"uint256[]","internalType":"uint256[]"},{"name":"amounts","type":"uint256[]","internalType":"uint256[]"}],"outputs":[],"stateMutability":"nonpayable"},{"type":"function","name":"getEscrowBalance","inputs":[{"name":"characterId","type":"bytes32","internalType":"bytes32"}],"outputs":[{"name":"_balance","type":"uint256","internalType":"uint256"}],"stateMutability":"view"},{"type":"function","name":"increaseEscrowBalance","inputs":[{"name":"characterId","type":"bytes32","internalType":"bytes32"},{"name":"amount","type":"uint256","internalType":"uint256"}],"outputs":[{"name":"newBalance","type":"uint256","internalType":"uint256"}],"stateMutability":"nonpayable"},{"type":"function","name":"issueStarterItems","inputs":[{"name":"characterId","type":"bytes32","internalType":"bytes32"}],"outputs":[],"stateMutability":"nonpayable"},{"type":"function","name":"supportsInterface","inputs":[{"name":"interfaceId","type":"bytes4","internalType":"bytes4"}],"outputs":[{"name":"","type":"bool","internalType":"bool"}],"stateMutability":"pure"},{"type":"function","name":"withdrawFromEscrow","inputs":[{"name":"characterId","type":"bytes32","internalType":"bytes32"},{"name":"amount","type":"uint256","internalType":"uint256"}],"outputs":[{"name":"_balance","type":"uint256","internalType":"uint256"}],"stateMutability":"nonpayable"},{"type":"event","name":"Store_SetRecord","inputs":[{"name":"tableId","type":"bytes32","indexed":true,"internalType":"ResourceId"},{"name":"keyTuple","type":"bytes32[]","indexed":false,"internalType":"bytes32[]"},{"name":"staticData","type":"bytes","indexed":false,"internalType":"bytes"},{"name":"encodedLengths","type":"bytes32","indexed":false,"internalType":"EncodedLengths"},{"name":"dynamicData","type":"bytes","indexed":false,"internalType":"bytes"}],"anonymous":false},{"type":"event","name":"Store_SpliceStaticData","inputs":[{"name":"tableId","type":"bytes32","indexed":true,"internalType":"ResourceId"},{"name":"keyTuple","type":"bytes32[]","indexed":false,"internalType":"bytes32[]"},{"name":"start","type":"uint48","indexed":false,"internalType":"uint48"},{"name":"data","type":"bytes","indexed":false,"internalType":"bytes"}],"anonymous":false},{"type":"error","name":"Slice_OutOfBounds","inputs":[{"name":"data","type":"bytes","internalType":"bytes"},{"name":"start","type":"uint256","internalType":"uint256"},{"name":"end","type":"uint256","internalType":"uint256"}]},{"type":"error","name":"World_AccessDenied","inputs":[{"name":"resource","type":"string","internalType":"string"},{"name":"caller","type":"address","internalType":"address"}]}],"bytecode":{"object":"0x608060405234801561001057600080fd5b50614b5f806100206000396000f3fe608060405234801561001057600080fd5b50600436106101005760003560e01c8063832e305c11610097578063daf22fbd11610066578063daf22fbd14610222578063e1af802c14610235578063e709de681461023d578063f33a0a681461025057600080fd5b8063832e305c146101c757806398cab349146101da5780639f48799c146101ed578063b060475d1461020f57600080fd5b80633da0f962116100d35780633da0f9621461018357806345ec9354146101965780635b90c590146101a15780635e354981146101b457600080fd5b806301ffc9a7146101055780630722a7031461012d578063119df25f1461014e5780633722e0d11461016e575b600080fd5b610118610113366004613f9d565b610263565b60405190151581526020015b60405180910390f35b61014061013b366004613fdf565b6102fc565b604051908152602001610124565b610156610319565b6040516001600160a01b039091168152602001610124565b61018161017c366004614105565b610328565b005b6101406101913660046141e2565b610398565b36601f190135610140565b6101406101af366004613fdf565b6103e3565b6101816101c2366004613fdf565b6106b1565b6101816101d53660046141fb565b6107d7565b6101406101e8366004613fdf565b610908565b6102006101fb366004613fdf565b610bd1565b60405161012493929190614227565b61020061021d366004613fdf565b611007565b6101816102303660046141e2565b611342565b6101566115bf565b61014061024b3660046141e2565b6115c9565b61018161025e366004613fdf565b6115d4565b60007fffffffff0000000000000000000000000000000000000000000000000000000082167fb5dee1270000000000000000000000000000000000000000000000000000000014806102f657507fffffffff0000000000000000000000000000000000000000000000000000000082167f01ffc9a700000000000000000000000000000000000000000000000000000000145b92915050565b600061030f3061030a610319565b611688565b6102f6838361169e565b60006103236116c3565b905090565b60005b82518110156103925761038a8482815181106103495761034961427e565b60200260200101518483815181106103635761036361427e565b602002602001015184848151811061037d5761037d61427e565b60200260200101516107d7565b60010161032b565b50505050565b6000806103a4836115c9565b9050670de0b6b3a764000060026103ba836116f5565b6103c8906305f5e1006142aa565b6103d291906142d7565b6103dc91906142eb565b9392505050565b60006103ed6115bf565b6001600160a01b03166343def63884610404610319565b6040517fffffffff0000000000000000000000000000000000000000000000000000000060e085901b16815260048101929092526001600160a01b03166024820152604401602060405180830381865afa158015610466573d6000803e3d6000fd5b505050506040513d601f19601f8201168201806040525081019061048a91906142fe565b1561057f576104976115bf565b6040517ff48a39720000000000000000000000000000000000000000000000000000000081526004810185905260006024820181905260448201526001600160a01b03919091169063f48a397290606401602060405180830381865afa158015610505573d6000803e3d6000fd5b505050506040513d601f19601f8201168201806040525081019061052991906142fe565b61057a5760405162461bcd60e51b815260206004820152601960248201527f63616e206f6e6c79206465706f73697420617420737061776e0000000000000060448201526064015b60405180910390fd5b61058b565b61058b3061030a610319565b610593611765565b6001600160a01b03166323b872dd6105a96115bf565b6001600160a01b031663777c2caf866040518263ffffffff1660e01b81526004016105d691815260200190565b602060405180830381865afa1580156105f3573d6000803e3d6000fd5b505050506040513d601f19601f820116820180604052508101906106179190614320565b6040517fffffffff0000000000000000000000000000000000000000000000000000000060e084901b1681526001600160a01b039091166004820152306024820152604481018590526064016020604051808303816000875af1158015610682573d6000803e3d6000fd5b505050506040513d601f19601f820116820180604052508101906106a691906142fe565b506102f6838361169e565b6106cf6106c261155160f21b61176f565b6106ca610319565b6117bc565b6106d7611765565b6001600160a01b03166340c10f196106ed6115bf565b6001600160a01b0316634f10aabc856040518263ffffffff1660e01b815260040161071a91815260200190565b602060405180830381865afa158015610737573d6000803e3d6000fd5b505050506040513d601f19601f8201168201806040525081019061075b9190614320565b6040517fffffffff0000000000000000000000000000000000000000000000000000000060e084901b1681526001600160a01b03909116600482015260248101849052604401600060405180830381600087803b1580156107bb57600080fd5b505af11580156107cf573d6000803e3d6000fd5b505050505050565b6107e86106c261155160f21b61176f565b60006107f26115bf565b6001600160a01b031663777c2caf856040518263ffffffff1660e01b815260040161081f91815260200190565b602060405180830381865afa15801561083c573d6000803e3d6000fd5b505050506040513d601f19601f820116820180604052508101906108609190614320565b905061086a611808565b6040517ff242432a0000000000000000000000000000000000000000000000000000000081523060048201526001600160a01b038381166024830152604482018690526064820185905260a06084830152600060a4830152919091169063f242432a9060c401600060405180830381600087803b1580156108ea57600080fd5b505af11580156108fe573d6000803e3d6000fd5b5050505050505050565b60006109126115bf565b6001600160a01b03166343def63884610929610319565b6040517fffffffff0000000000000000000000000000000000000000000000000000000060e085901b16815260048101929092526001600160a01b03166024820152604401602060405180830381865afa15801561098b573d6000803e3d6000fd5b505050506040513d601f19601f820116820180604052508101906109af91906142fe565b15610a9f576109bc6115bf565b6040517ff48a39720000000000000000000000000000000000000000000000000000000081526004810185905260006024820181905260448201526001600160a01b03919091169063f48a397290606401602060405180830381865afa158015610a2a573d6000803e3d6000fd5b505050506040513d601f19601f82011682018060405250810190610a4e91906142fe565b610a9a5760405162461bcd60e51b815260206004820152601a60248201527f63616e206f6e6c7920776974686472617720617420737061776e0000000000006044820152606401610571565b610aab565b610aab3061030a610319565b610ab58383611870565b610abd611765565b6001600160a01b031663a9059cbb610ad36115bf565b6001600160a01b031663777c2caf866040518263ffffffff1660e01b8152600401610b0091815260200190565b602060405180830381865afa158015610b1d573d6000803e3d6000fd5b505050506040513d601f19601f82011682018060405250810190610b419190614320565b6040517fffffffff0000000000000000000000000000000000000000000000000000000060e084901b1681526001600160a01b039091166004820152602481018590526044016020604051808303816000875af1158015610ba6573d6000803e3d6000fd5b505050506040513d601f19601f82011682018060405250810190610bca91906142fe565b5092915050565b6000806060610be23061030a610319565b6000610bed866118d9565b9050610c3d60405180610100016040528060008019168152602001600080191681526020016000815260200160008152602001600081526020016000815260200160608152602001606081525090565b604082015115801590610c5257506060820151155b610c9e5760405162461bcd60e51b815260206004820152601160248201527f496e76616c696420456e636f756e7465720000000000000000000000000000006044820152606401610571565b610ca6613f47565b8260e0015115610ccb5761012083015160e083015261010083015160c0830152610ce2565b61012083015160c083015261010083015160e08301525b60005b8260c0015151811015610d5c57610d188360c001518281518110610d0b57610d0b61427e565b60200260200101516119de565b91508160e001518360a001818151610d3091906142eb565b90525060a082015160001215610d545760808301805190610d5082614349565b9052505b600101610ce5565b5060005b8260e0015151811015610e83578260e001518181518110610d8357610d8361427e565b6020908102919091010151808452610d9a90611a86565b6040840181905260a084015160009111610dcb57600584604001518560a00151610dc49190614363565b1115610dce565b60015b9050610ddd8460000151611b20565b8015610de65750805b15610e7a578351610df690611bbe565b610e0090896142eb565b9750610e108360e001518a611c50565b610e1a90886142eb565b8451909750610e2a906000611c7f565b60c0840151805160009190610e3f908c614376565b81518110610e4f57610e4f61427e565b60200260200101519050610e6281611b20565b610e7857610e758a866000015183611d38565b96505b505b50600101610d60565b5060005b8260c0015151811015610ff1578260c001518181518110610eaa57610eaa61427e565b6020026020010151836020018181525050610ec36115bf565b6001600160a01b031663fa1becc484602001516040518263ffffffff1660e01b8152600401610ef491815260200190565b602060405180830381865afa158015610f11573d6000803e3d6000fd5b505050506040513d601f19601f82011682018060405250810190610f3591906142fe565b15610fe957610f4783602001516119de565b915060008260a001511315610fdb578515610f7457610f74836020015184608001518861025e91906142d7565b600087118015610f88575060008360800151115b15610fdb57670de0b6b3a7640000610fa38460200151610398565b6080850151610fb2908a6142d7565b610fbc91906142aa565b610fc691906142d7565b8260c001818151610fd791906142eb565b9052505b610fe983602001518361205e565b600101610e87565b50610ffd886001612107565b5050509250925092565b60008060606110183061030a610319565b6000611023866118d9565b905061107360405180610100016040528060008019168152602001600080191681526020016000815260200160008152602001600081526020016000815260200160608152602001606081525090565b60408201511580159061108857506060820151155b6110d45760405162461bcd60e51b815260206004820152601160248201527f496e76616c696420456e636f756e7465720000000000000000000000000000006044820152606401610571565b6000806000805b8561010001515181101561112b5761111086610100015182815181106111035761110361427e565b6020026020010151611b20565b15611123578161111f81614349565b9250505b6001016110db565b5084610100015151810361113e57600192505b821561125c5760005b856101000151518110156111d857600061117e87610100015183815181106111715761117161427e565b60200260200101516121c0565b9050600061118d6002836142d7565b9050611199818b6142eb565b99506111ce88610100015184815181106111b5576111b561427e565b602002602001015182846111c99190614363565b612251565b5050600101611147565b5060005b8561012001515181101561125657600061120687610120015183815181106111715761117161427e565b90506000876101200151518a61121c91906142d7565b905061124c88610120015184815181106112385761123861427e565b602002602001015182846111c991906142eb565b50506001016111dc565b50611336565b60005b856101200151518110156112ca57600061128987610120015183815181106111715761117161427e565b905060006112986002836142d7565b90506112a4818b6142eb565b99506112c088610120015184815181106111b5576111b561427e565b505060010161125f565b5060005b856101000151518110156113345760006112f887610100015183815181106111715761117161427e565b90506000876101000151518a61130e91906142d7565b905061132a88610100015184815181106112385761123861427e565b50506001016112ce565b505b50505050509250925092565b61135861135361155160f21b612305565b612352565b6001600160a01b0316611369610319565b6001600160a01b0316146113bf5760405162461bcd60e51b815260206004820152601560248201527f4954454d533a20496e76616c69642053797374656d00000000000000000000006044820152606401610571565b60006113c96115bf565b6001600160a01b031663b8bfeca16113e0846123ee565b6040518263ffffffff1660e01b81526004016113fc91906143a0565b600060405180830381865afa158015611419573d6000803e3d6000fd5b505050506040513d6000823e601f3d908101601f191682016040526114419190810190614427565b9050600061144d6115bf565b6001600160a01b031663777c2caf846040518263ffffffff1660e01b815260040161147a91815260200190565b602060405180830381865afa158015611497573d6000803e3d6000fd5b505050506040513d601f19601f820116820180604052508101906114bb9190614320565b905060005b825151811015610392576114d2611808565b6001600160a01b031663f242432a3084866000015185815181106114f8576114f861427e565b6020026020010151876020015186815181106115165761151661427e565b60209081029190910101516040517fffffffff0000000000000000000000000000000000000000000000000000000060e087901b1681526001600160a01b0394851660048201529390921660248401526044830152606482015260a06084820152600060a482015260c401600060405180830381600087803b15801561159b57600080fd5b505af11580156115af573d6000803e3d6000fd5b5050600190920191506114c09050565b6000610323612498565b60006102f6826121c0565b6115e56106c261155160f21b61176f565b60006115f0836121c0565b9050611600836111c984846142eb565b611608611765565b6040517f40c10f19000000000000000000000000000000000000000000000000000000008152306004820152602481018490526001600160a01b0391909116906340c10f1990604401600060405180830381600087803b15801561166b57600080fd5b505af115801561167f573d6000803e3d6000fd5b50505050505050565b61169a611694836124a2565b826117bc565b5050565b60006116a9836115c9565b905060006116b783836142eb565b90506103928482612251565b7fffffffffffffffffffffffffffffffffffffffffffffffffffffffffffffffcc36013560601c806116f25750335b90565b60006003821115611756575080600061170f6002836142d7565b61171a9060016142eb565b90505b818110156117505790508060028161173581866142d7565b61173f91906142eb565b61174991906142d7565b905061171d565b50919050565b8115611760575060015b919050565b600061032361253f565b60006102f67f7379000000000000000000000000000000000000000000000000000000000000837f4c6f6f744d616e6167657253797374650000000000000000000000000000000061259d565b6117c68282612615565b61169a576117d382612673565b816040517fd787b73700000000000000000000000000000000000000000000000000000000815260040161057192919061451e565b6040805160008082526020820190925260006118667f74625544000000000000000000000000556c74696d617465446f6d696e696f6e8360057ea10900011414141414141414000000000000000000000000000000000000006127a1565b60601c9392505050565b600061187b836115c9565b9050818110156118cd5760405162461bcd60e51b815260206004820152601960248201527f6e6f7420656e6f75676820676f6c6420696e20657363726f77000000000000006044820152606401610571565b60006116b78383614363565b6119346040805161014081019091528060008152602001600081526020016000815260200160001515815260200160008152602001600081526020016000815260200160001515815260200160608152602001606081525090565b60408051600180825281830190925260009160208083019080368337019050509050828160008151811061196a5761196a61427e565b6020908102919091010152600080806119c37f74625544000000000000000000000000436f6d626174456e636f756e74657200857ea308020120200120202001000000000000000000000000000000000000000061285e565b9250925092506119d483838361292e565b9695505050505050565b6119e6613f47565b604080516001808252818301909252600091602080830190803683370190505090508281600081518110611a1c57611a1c61427e565b602090810291909101015260008080611a757f7462554400000000000000000000000053746174730000000000000000000000857ee108002020012020202020000000000000000000000000000000000000000061285e565b9250925092506119d4838383612a11565b604080516001808252818301909252600091829190602080830190803683370190505090508281600081518110611abf57611abf61427e565b60209081029190910101526000611b187f74625544000000000000000000000000537461747300000000000000000000008360077ee10800202001202020202000000000000000000000000000000000000000006127a1565b949350505050565b604080516001808252818301909252600091829190602080830190803683370190505090508281600081518110611b5957611b5961427e565b60209081029190910101526000611bb27f74625544000000000000000000000000456e636f756e746572456e74697479008360017e210201200100000000000000000000000000000000000000000000000000006127a1565b9050611b188160f81c90565b604080516001808252818301909252600091829190602080830190803683370190505090508281600081518110611bf757611bf761427e565b60209081029190910101526000611b187f74625544000000000000000000000000537461747300000000000000000000008360067ee10800202001202020202000000000000000000000000000000000000000006127a1565b6000611c6483674563918244f400006142aa565b611c6e9083614376565b6103dc9066b1a2bc2ec500006142eb565b604080516001808252818301909252600091602080830190803683370190505090508281600081518110611cb557611cb561427e565b602002602001018181525050611d337f74625544000000000000000000000000456e636f756e746572456e746974790060001b82600085604051602001611cfe91815260200190565b60408051601f198184030181529190527e21020120010000000000000000000000000000000000000000000000000000612a89565b505050565b60606000611d446115bf565b6001600160a01b03166353d64640856040518263ffffffff1660e01b8152600401611d7191815260200190565b602060405180830381865afa158015611d8e573d6000803e3d6000fd5b505050506040513d601f19601f82011682018060405250810190611db29190614549565b90506000611dbf82612b3e565b806020019051810190611dd29190614571565b905060008160c001515167ffffffffffffffff811115611df457611df4614001565b604051908082528060200260200182016040528015611e1d578160200160208202803683370190505b50905060008060005b8460c0015151811015611f74578460c001518181518110611e4957611e4961427e565b602002602001015191506000611e5e83612bb3565b905080611e6f6305f5e1008d614376565b1015611f6b57611eb46040518060400160405280600c81526020017f4954454d2044524f50504544000000000000000000000000000000000000000081525084612c48565b611ebc6115bf565b6040517fcd9caca2000000000000000000000000000000000000000000000000000000008152600481018b905260248101859052600160448201526001600160a01b03919091169063cd9caca290606401600060405180830381600087803b158015611f2757600080fd5b505af1158015611f3b573d6000803e3d6000fd5b5050505082858381518110611f5257611f5261427e565b602090810291909101015283611f6781614349565b9450505b50600101611e26565b5060008267ffffffffffffffff811115611f9057611f90614001565b604051908082528060200260200182016040528015611fb9578160200160208202803683370190505b5090508215612051576000805b855181101561204e57858181518110611fe157611fe161427e565b6020026020010151600014612035578581815181106120025761200261427e565b602002602001015183838151811061201c5761201c61427e565b60209081029190910101528161203181614349565b9250505b81851461204e578061204681614349565b915050611fc6565b50505b9998505050505050505050565b6000612090826000015183602001518460400151856060015186608001518760a001518860c001518960e00151612cbb565b6040805160018082528183019092529192506000916060918391906020808301908036833701905050905085816000815181106120cf576120cf61427e565b60209081029190910101526107cf7f746255440000000000000000000000005374617473000000000000000000000082868686612cf9565b60408051600180825281830190925260009160208083019080368337019050509050828160008151811061213d5761213d61427e565b602002602001018181525050611d337f74625544000000000000000000000000436f6d626174456e636f756e7465720060001b8260038560405160200161218b91151560f81b815260010190565b60408051601f198184030181529190527ea3080201202001202020010000000000000000000000000000000000000000612a89565b6040805160018082528183019092526000918291906020808301908036833701905050905082816000815181106121f9576121f961427e565b60209081029190910101526000611b187f74625544000000000000000000000000416476656e74757265457363726f770083837e200100200000000000000000000000000000000000000000000000000000006127a1565b6040805160018082528183019092526000916020808301908036833701905050905082816000815181106122875761228761427e565b602002602001018181525050611d337f74625544000000000000000000000000416476656e74757265457363726f770060001b826000856040516020016122d091815260200190565b60408051601f198184030181529190527e20010020000000000000000000000000000000000000000000000000000000612a89565b60006102f67f7379000000000000000000000000000000000000000000000000000000000000837f43686172616374657253797374656d000000000000000000000000000000000061259d565b60408051600180825281830190925260009182919060208083019080368337019050509050828160008151811061238b5761238b61427e565b602090810291909101015260006123e37f7462776f726c6400000000000000000053797374656d7300000000000000000083837e150200140100000000000000000000000000000000000000000000000000006127a1565b60601c949350505050565b6040805160018082528183019092526000918291906020808301908036833701905050905082816000815181106124275761242761427e565b602090810291909101015260006124807f74625544000000000000000000000000537461747300000000000000000000008360027ee10800202001202020202000000000000000000000000000000000000000006127a1565b905060f881901c6002811115611b1857611b1861438a565b6000610323612d6f565b60408051600180825281830190925260009182919060208083019080368337019050509050826001600160a01b031660001b816000815181106124e7576124e761427e565b60209081029190910101526000611b187f7462776f726c6400000000000000000053797374656d5265676973747279000083837e200100200000000000000000000000000000000000000000000000000000006127a1565b6040805160008082526020820190925260006118667f74625544000000000000000000000000556c74696d617465446f6d696e696f6e8360017ea10900011414141414141414000000000000000000000000000000000000006127a1565b60006125ab607060106142eb565b7fffff00000000000000000000000000000000000000000000000000000000000085167dffffffffffffffffffffffffffff00000000000000000000000000000000601086901c16176fffffffffffffffffffffffffffffffff19841690911c1790509392505050565b60006126637f6e730000000000000000000000000000000000000000000000000000000000007dffffffffffffffffffffffffffff0000000000000000000000000000000085161783612da9565b806103dc57506103dc8383612da9565b606081601081901b600061268683612e7b565b9050827fffffffffffffffffffffffffffff0000000000000000000000000000000000008316156126e1576126dc7fffffffffffffffffffffffffffff0000000000000000000000000000000000008416612e92565b612718565b6040518060400160405280600681526020017f3c726f6f743e00000000000000000000000000000000000000000000000000008152505b6fffffffffffffffffffffffffffffffff1983161561273f5761273a83612e92565b612776565b6040518060400160405280600681526020017f3c726f6f743e00000000000000000000000000000000000000000000000000008152505b60405160200161278893929190614639565b6040516020818303038152906040529350505050919050565b6000806127ac612d6f565b9050306001600160a01b038216036127d2576127ca86868686612f18565b915050611b18565b6040517f8c364d590000000000000000000000000000000000000000000000000000000081526001600160a01b03821690638c364d599061281d908990899089908990600401614703565b602060405180830381865afa15801561283a573d6000803e3d6000fd5b505050506040513d601f19601f820116820180604052508101906127ca9190614549565b606060006060600061286e612d6f565b9050306001600160a01b038216036128975761288b878787612f45565b93509350935050612925565b6040517f419b58fd0000000000000000000000000000000000000000000000000000000081526001600160a01b0382169063419b58fd906128e0908a908a908a90600401614732565b600060405180830381865afa1580156128fd573d6000803e3d6000fd5b505050506040513d6000823e601f3d908101601f1916820160405261288b91908101906147bf565b93509350939050565b6129896040805161014081019091528060008152602001600081526020016000815260200160001515815260200160008152602001600081526020016000815260200160001515815260200160608152602001606081525090565b6129928461304d565b80151560e08a015260c0890182905260a089018390526080890184905284151560608a01526040890186905260208901879052888860028111156129d8576129d861438a565b60028111156129e9576129e961438a565b81525050505050505050506129fe83836130d1565b6101208301526101008201529392505050565b612a19613f47565b612a2284613120565b60e0890181905260c0890182905260a089018390526080890184905260608901859052886020810160408201886002811115612a6057612a6061438a565b6002811115612a7157612a7161438a565b90529790975250505093909252509195945050505050565b6000612a93612d6f565b9050306001600160a01b03821603612ab757612ab2868686868661318e565b6107cf565b6040517f390baae00000000000000000000000000000000000000000000000000000000081526001600160a01b0382169063390baae090612b049089908990899089908990600401614822565b600060405180830381600087803b158015612b1e57600080fd5b505af1158015612b32573d6000803e3d6000fd5b50505050505050505050565b60408051600180825281830190925260609160009190602080830190803683370190505090508260001b81600081518110612b7b57612b7b61427e565b60209081029190910101526000611b187f746255440000000000000000000000004d6f627300000000000000000000000083836131aa565b604080516001808252818301909252600091829190602080830190803683370190505090508260001b81600081518110612bef57612bef61427e565b60209081029190910101526000611b187f746255440000000000000000000000004974656d7300000000000000000000008360017e410301012020000000000000000000000000000000000000000000000000006127a1565b61169a8282604051602401612c5e929190614869565b60408051601f198184030181529190526020810180517bffffffffffffffffffffffffffffffffffffffffffffffffffffffff167f9710a9d000000000000000000000000000000000000000000000000000000000179052613271565b60608888888888888888604051602001612cdc98979695949392919061488b565b604051602081830303815290604052905098975050505050505050565b6000612d03612d6f565b9050306001600160a01b03821603612d2257612ab28686868686613292565b6040517f298314fb0000000000000000000000000000000000000000000000000000000081526001600160a01b0382169063298314fb90612b0490899089908990899089906004016148e8565b7f629a4c26e296b22a8e0856e9f6ecb2d1008d7e00081111962cd175fa7488e175546000906001600160a01b031680611760573391505090565b604080516002808252606082018352600092839291906020830190803683370190505090508381600081518110612de257612de261427e565b602002602001018181525050826001600160a01b031660001b81600181518110612e0e57612e0e61427e565b60209081029190910101526000612e667f7462776f726c640000000000000000005265736f75726365416363657373000083837e010100010000000000000000000000000000000000000000000000000000006127a1565b9050612e728160f81c90565b95945050505050565b6000612e89607060106142eb565b9190911b919050565b606060005b6010811015612ee8576fffffffffffffffffffffffffffffffff198316600882021b7fff000000000000000000000000000000000000000000000000000000000000001615612ee857600101612e97565b604080516fffffffffffffffffffffffffffffffff19851660208201528151603090910190915281815280611b18565b6000612e72612f2786866132a8565b60ff858116601b0360080285901c16612f4085876132fe565b61332f565b6060600060606000612f5685613380565b9050612f638787836133a3565b93506000612f70866133dc565b9050801561304257612f828888613419565b935066ffffffffffffff841667ffffffffffffffff811115612fa657612fa6614001565b6040519080825280601f01601f191660200182016040528015612fd0576020820181803683370190505b5092506020830160005b828160ff16101561303f576000612ff28b8b8461342c565b9050600061300f888460ff166028026038011c64ffffffffff1690565b905061301e82600083876134ac565b61302881856142eb565b93505050808061303790614939565b915050612fda565b50505b505093509350939050565b600080600080600080600080613067896000016020015190565b60f81c600281111561307b5761307b61438a565b60218a015160418b015160618c0151929a50909850965061309d905b60f81c90565b60628a015160828b015160a28c015160c28d0151939850919650945092506130c490613097565b9050919395975091939597565b6060806000603885901c64ffffffffff166130f56130f0868484613578565b613606565b935090508064ffffffffff606087901c16016131156130f0868484613578565b925050509250929050565b60008060008060008060008061313a896000016020015190565b60408a015160608b0151919950975060f81c600281111561315d5761315d61438a565b60618a015160818b015160a18c015160c18d015160e1909d01519b9d9a9c939b929a91995097509195509350915050565b6131a3858561319d84876132fe565b85613617565b5050505050565b606060006131b6612d6f565b9050306001600160a01b038216036131db576131d38585856138b2565b9150506103dc565b6040517f1e7889770000000000000000000000000000000000000000000000000000000081526001600160a01b03821690631e7889779061322490889088908890600401614958565b600060405180830381865afa158015613241573d6000803e3d6000fd5b505050506040513d6000823e601f3d908101601f191682016040526131d39190810190614984565b509392505050565b80516a636f6e736f6c652e6c6f67602083016000808483855afa5050505050565b6131a385858585856132a38b6138ec565b613971565b600082826040516020016132bd9291906149b9565b60408051601f1981840301815291905280516020909101207f86425bff6b57326c7859e89024fe4f238ca327a1ae4a230180dd2f0e88aaa7d9189392505050565b600080805b8360ff168110156132695761332560ff601b83900360080287901c16836142eb565b9150600101613303565b60006020821061335557602082048401935060208281613351576133516142c1565b0691505b508254600882021b602082900380841115613269576001850154600882021c82179150509392505050565b6000600861339060026020614363565b61339a91906142aa565b9190911c919050565b6060816000036133c257506040805160208101909152600081526103dc565b60006133ce85856132a8565b9050612e7281600085613caa565b600060086001806133ef60026020614363565b6133f99190614363565b6134039190614363565b61340d91906142aa565b8260ff911c1692915050565b60006103dc6134288484613ccd565b5490565b600083836040516020016134419291906149b9565b604051602081830303815290604052805190602001208260f81b7effffffffffffffffffffffffffffffffffffffffffffffffffffffffffffff19167f3b4102da22e32d82fc925482184f16c09fd4281692720b87d124aef6da48a0f1181860001c90509392505050565b821561353357602083106134d6576020830484019350602083816134d2576134d26142c1565b0692505b82156135335760208390036000818410156134f95750600019600884021c613503565b50600019600882021c5b8554600886021b818451168219821617845250818411613524575050610392565b50600194909401939182900391015b5b602082106135555783548152600190930192601f1990910190602001613534565b8115610392576000600019600884021c8251865482191691161782525050505050565b6000818311806135885750835182115b156135c5578383836040517f23230fa3000000000000000000000000000000000000000000000000000000008152600401610571939291906149f5565b602084016135d384826142eb565b905060006135e18585614363565b6fffffffffffffffffffffffffffffffff1660809290921b9190911795945050505050565b606060006103dc8360206000613d23565b7f6f74000000000000000000000000000000000000000000000000000000000000847fffff00000000000000000000000000000000000000000000000000000000000016036136a157837f8c0b5119d4cec7b284c6b1b39252a03d1e2f2d7451a5895562524c113bb952be84848460405161369493929190614a1a565b60405180910390a2610392565b60006136ad85856132a8565b905060006136ba86613d9e565b905060005b815181101561378f5760008282815181106136dc576136dc61427e565b602002602001015190506137086004826affffffffffffffffffffff1916613e2790919063ffffffff16565b15613786576040517f964f667d000000000000000000000000000000000000000000000000000000008152606082901c9063964f667d90613753908b908b908b908b90600401614a4d565b600060405180830381600087803b15801561376d57600080fd5b505af1158015613781573d6000803e3d6000fd5b505050505b506001016136bf565b50857f8c0b5119d4cec7b284c6b1b39252a03d1e2f2d7451a5895562524c113bb952be8686866040516137c493929190614a1a565b60405180910390a26137df828565ffffffffffff1685613e45565b60005b815181101561167f5760008282815181106137ff576137ff61427e565b6020026020010151905061382b6008826affffffffffffffffffffff1916613e2790919063ffffffff16565b156138a9576040517fa8ba8721000000000000000000000000000000000000000000000000000000008152606082901c9063a8ba872190613876908b908b908b908b90600401614a4d565b600060405180830381600087803b15801561389057600080fd5b505af11580156138a4573d6000803e3d6000fd5b505050505b506001016137e2565b6060611b186138c285858561342c565b60006138e7856138d28989613419565b9060ff166028026038011c64ffffffffff1690565b613caa565b60007f8b9d8c8b908d9affffffffffffffffffab9e9d939a8d00000000000000000000820161393b57507e60030220202000000000000000000000000000000000000000000000000000919050565b6102f66139687f746273746f72650000000000000000005461626c65730000000000000000000084613e5b565b6020600061332f565b7f6f74000000000000000000000000000000000000000000000000000000000000867fffff00000000000000000000000000000000000000000000000000000000000016036139fd57857f8dbb3a9672eebfd3773e72dd9c102393436816d832c7ba9e1e1ac8fcadcac7a9868686866040516139f09493929190614a91565b60405180910390a26107cf565b6000613a0887613d9e565b905060005b8151811015613ae1576000828281518110613a2a57613a2a61427e565b60200260200101519050613a566001826affffffffffffffffffffff1916613e2790919063ffffffff16565b15613ad8576040517f57066c9c000000000000000000000000000000000000000000000000000000008152606082901c906357066c9c90613aa5908c908c908c908c908c908c90600401614ad0565b600060405180830381600087803b158015613abf57600080fd5b505af1158015613ad3573d6000803e3d6000fd5b505050505b50600101613a0d565b50867f8dbb3a9672eebfd3773e72dd9c102393436816d832c7ba9e1e1ac8fcadcac7a987878787604051613b189493929190614a91565b60405180910390a26000613b2c88886132a8565b90506000602087019050613b44826000895184613e77565b6000613b4f856133dc565b1115613bd3576000613b618a8a613ccd565b878155905060208601915060008060005b613b7b886133dc565b8160ff161015613bce57613b908d8d8361342c565b9250613bab8a8260ff166028026038011c64ffffffffff1690565b9150613bba8360008488613e77565b613bc482866142eb565b9450600101613b72565b505050505b60005b8351811015612b32576000848281518110613bf357613bf361427e565b60200260200101519050613c1f6002826affffffffffffffffffffff1916613e2790919063ffffffff16565b15613ca1576040517f5b28cdaf000000000000000000000000000000000000000000000000000000008152606082901c90635b28cdaf90613c6e908e908e908e908e908e908e90600401614ad0565b600060405180830381600087803b158015613c8857600080fd5b505af1158015613c9c573d6000803e3d6000fd5b505050505b50600101613bd6565b60405160208101601f19603f8484010116604052828252613269858585846134ac565b60008282604051602001613ce29291906149b9565b60408051601f1981840301815291905280516020909101207f14e2fcc58e58e68ec7edc30c8d50dccc3ce2714a623ec81f46b6a63922d76569189392505050565b60606000613d318560801c90565b90506fffffffffffffffffffffffffffffffff85166000858281613d5757613d576142c1565b04905060405193506020840160208202810160405281855260005b82811015613d92578451871c825293870193602090910190600101613d72565b50505050509392505050565b60408051600180825281830190925260609160009190602080830190803683370190505090508281600081518110613dd857613dd861427e565b60209081029190910101526000613e107f746273746f726500000000000000000053746f7265486f6f6b7300000000000083836138b2565b9050611b18613e228260008451613578565b613f36565b60008160ff1682613e388560581c90565b1660ff1614905092915050565b611d3383838351613e568560200190565b613e77565b60408051602081018490529081018290526000906060016132bd565b8215613ef15760208310613ea157602083048401935060208381613e9d57613e9d6142c1565b0692505b8215613ef15760208390036000600019600885021c1990506008850281811c91508351811c9050811987541682821617875550818411613ee2575050610392565b50600194909401939182900391015b5b60208210613f135780518455600190930192601f1990910190602001613ef2565b8115610392576000600019600884021c8554835182191691161785555050505050565b606060006103dc8360156000613d23565b604051806101000160405280600081526020016000815260200160006002811115613f7457613f7461438a565b815260200160008152602001600081526020016000815260200160008152602001600081525090565b600060208284031215613faf57600080fd5b81357fffffffff00000000000000000000000000000000000000000000000000000000811681146103dc57600080fd5b60008060408385031215613ff257600080fd5b50508035926020909101359150565b634e487b7160e01b600052604160045260246000fd5b604051610120810167ffffffffffffffff8111828210171561403b5761403b614001565b60405290565b604051601f8201601f1916810167ffffffffffffffff8111828210171561406a5761406a614001565b604052919050565b600067ffffffffffffffff82111561408c5761408c614001565b5060051b60200190565b600082601f8301126140a757600080fd5b813560206140bc6140b783614072565b614041565b8083825260208201915060208460051b8701019350868411156140de57600080fd5b602086015b848110156140fa57803583529183019183016140e3565b509695505050505050565b60008060006060848603121561411a57600080fd5b833567ffffffffffffffff8082111561413257600080fd5b818601915086601f83011261414657600080fd5b813560206141566140b783614072565b82815260059290921b8401810191818101908a84111561417557600080fd5b948201945b838610156141935785358252948201949082019061417a565b975050870135925050808211156141a957600080fd5b6141b587838801614096565b935060408601359150808211156141cb57600080fd5b506141d886828701614096565b9150509250925092565b6000602082840312156141f457600080fd5b5035919050565b60008060006060848603121561421057600080fd5b505081359360208301359350604090920135919050565b60006060820185835260208560208501526060604085015281855180845260808601915060208701935060005b8181101561427057845183529383019391830191600101614254565b509098975050505050505050565b634e487b7160e01b600052603260045260246000fd5b634e487b7160e01b600052601160045260246000fd5b80820281158282048414176102f6576102f6614294565b634e487b7160e01b600052601260045260246000fd5b6000826142e6576142e66142c1565b500490565b808201808211156102f6576102f6614294565b60006020828403121561431057600080fd5b815180151581146103dc57600080fd5b60006020828403121561433257600080fd5b81516001600160a01b03811681146103dc57600080fd5b6000600019820361435c5761435c614294565b5060010190565b818103818111156102f6576102f6614294565b600082614385576143856142c1565b500690565b634e487b7160e01b600052602160045260246000fd5b60208101600383106143c257634e487b7160e01b600052602160045260246000fd5b91905290565b600082601f8301126143d957600080fd5b815160206143e96140b783614072565b8083825260208201915060208460051b87010193508684111561440b57600080fd5b602086015b848110156140fa5780518352918301918301614410565b60006020828403121561443957600080fd5b815167ffffffffffffffff8082111561445157600080fd5b908301906040828603121561446557600080fd5b60405160408101818110838211171561448057614480614001565b60405282518281111561449257600080fd5b61449e878286016143c8565b8252506020830151828111156144b357600080fd5b6144bf878286016143c8565b60208301525095945050505050565b60005b838110156144e95781810151838201526020016144d1565b50506000910152565b6000815180845261450a8160208601602086016144ce565b601f01601f19169290920160200192915050565b60408152600061453160408301856144f2565b90506001600160a01b03831660208301529392505050565b60006020828403121561455b57600080fd5b5051919050565b80516003811061176057600080fd5b60006020828403121561458357600080fd5b815167ffffffffffffffff8082111561459b57600080fd5b9083019061012082860312156145b057600080fd5b6145b8614017565b82518152602083015160208201526145d260408401614562565b6040820152606083015160608201526080830151608082015260a083015160a082015260c08301518281111561460757600080fd5b614613878286016143c8565b60c08301525060e083810151908201526101009283015192810192909252509392505050565b7fffff0000000000000000000000000000000000000000000000000000000000008416815260007f3a00000000000000000000000000000000000000000000000000000000000000806002840152845161469a8160038601602089016144ce565b8084019050816003820152845191506146ba8260048301602088016144ce565b0160040195945050505050565b60008151808452602080850194506020840160005b838110156146f8578151875295820195908201906001016146dc565b509495945050505050565b84815260806020820152600061471c60808301866146c7565b60ff949094166040830152506060015292915050565b83815260606020820152600061474b60608301856146c7565b9050826040830152949350505050565b600082601f83011261476c57600080fd5b815167ffffffffffffffff81111561478657614786614001565b6147996020601f19601f84011601614041565b8181528460208386010111156147ae57600080fd5b611b188260208301602087016144ce565b6000806000606084860312156147d457600080fd5b835167ffffffffffffffff808211156147ec57600080fd5b6147f88783880161475b565b945060208601519350604086015191508082111561481557600080fd5b506141d88682870161475b565b85815260a06020820152600061483b60a08301876146c7565b60ff86166040840152828103606084015261485681866144f2565b9150508260808301529695505050505050565b60408152600061487c60408301856144f2565b90508260208301529392505050565b8881528760208201526000600388106148b457634e487b7160e01b600052602160045260246000fd5b5060f89690961b604087015260418601949094526061850192909252608184015260a183015260c182015260e10192915050565b85815260a06020820152600061490160a08301876146c7565b828103604084015261491381876144f2565b9050846060840152828103608084015261492d81856144f2565b98975050505050505050565b600060ff821660ff810361494f5761494f614294565b60010192915050565b83815260606020820152600061497160608301856146c7565b905060ff83166040830152949350505050565b60006020828403121561499657600080fd5b815167ffffffffffffffff8111156149ad57600080fd5b611b188482850161475b565b8281526000602080830184516020860160005b828110156149e8578151845292840192908401906001016149cc565b5091979650505050505050565b606081526000614a0860608301866144f2565b60208301949094525060400152919050565b606081526000614a2d60608301866146c7565b65ffffffffffff8516602084015282810360408401526119d481856144f2565b848152608060208201526000614a6660808301866146c7565b65ffffffffffff851660408401528281036060840152614a8681856144f2565b979650505050505050565b608081526000614aa460808301876146c7565b8281036020840152614ab681876144f2565b90508460408401528281036060840152614a8681856144f2565b86815260c060208201526000614ae960c08301886146c7565b8281036040840152614afb81886144f2565b90508560608401528281036080840152614b1581866144f2565b9150508260a083015297965050505050505056fea264697066735822122019240d7f973c29ae8674210767a9c9bfa8edcf85b6c6a4946174c25a9c14b66264736f6c63430008180033","linkReferences":{}},"methodIdentifiers":{"_msgSender()":"119df25f","_msgValue()":"45ec9354","_world()":"e1af802c","calculateExpMultiplier(bytes32)":"3da0f962","depositToEscrow(bytes32,uint256)":"5b90c590","distributePveRewards(bytes32,uint256)":"9f48799c","distributePvpRewards(bytes32,uint256)":"b060475d","dropGoldToEscrow(bytes32,uint256)":"f33a0a68","dropGoldToPlayer(bytes32,uint256)":"5e354981","dropItem(bytes32,uint256,uint256)":"832e305c","dropItems(bytes32[],uint256[],uint256[])":"3722e0d1","getEscrowBalance(bytes32)":"e709de68","increaseEscrowBalance(bytes32,uint256)":"0722a703","issueStarterItems(bytes32)":"daf22fbd","supportsInterface(bytes4)":"01ffc9a7","withdrawFromEscrow(bytes32,uint256)":"98cab349"},"id":279}