{"abi":[{"type":"function","name":"_msgSender","inputs":[],"outputs":[{"name":"sender","type":"address","internalType":"address"}],"stateMutability":"view"},{"type":"function","name":"_msgValue","inputs":[],"outputs":[{"name":"value","type":"uint256","internalType":"uint256"}],"stateMutability":"view"},{"type":"function","name":"_world","inputs":[],"outputs":[{"name":"","type":"address","internalType":"address"}],"stateMutability":"view"},{"type":"function","name":"install","inputs":[{"name":"encodedArgs","type":"bytes","internalType":"bytes"}],"outputs":[],"stateMutability":"nonpayable"},{"type":"function","name":"installRoot","inputs":[{"name":"encodedArgs","type":"bytes","internalType":"bytes"}],"outputs":[],"stateMutability":"nonpayable"},{"type":"function","name":"supportsInterface","inputs":[{"name":"interfaceId","type":"bytes4","internalType":"bytes4"}],"outputs":[{"name":"","type":"bool","internalType":"bool"}],"stateMutability":"pure"},{"type":"event","name":"Store_SetRecord","inputs":[{"name":"tableId","type":"bytes32","indexed":true,"internalType":"ResourceId"},{"name":"keyTuple","type":"bytes32[]","indexed":false,"internalType":"bytes32[]"},{"name":"staticData","type":"bytes","indexed":false,"internalType":"bytes"},{"name":"encodedLengths","type":"bytes32","indexed":false,"internalType":"EncodedLengths"},{"name":"dynamicData","type":"bytes","indexed":false,"internalType":"bytes"}],"anonymous":false},{"type":"event","name":"Store_SpliceStaticData","inputs":[{"name":"tableId","type":"bytes32","indexed":true,"internalType":"ResourceId"},{"name":"keyTuple","type":"bytes32[]","indexed":false,"internalType":"bytes32[]"},{"name":"start","type":"uint48","indexed":false,"internalType":"uint48"},{"name":"data","type":"bytes","indexed":false,"internalType":"bytes"}],"anonymous":false},{"type":"error","name":"ERC20Module_InvalidNamespace","inputs":[{"name":"namespace","type":"bytes14","internalType":"bytes14"}]},{"type":"error","name":"FieldLayout_Empty","inputs":[]},{"type":"error","name":"FieldLayout_InvalidStaticDataLength","inputs":[{"name":"staticDataLength","type":"uint256","internalType":"uint256"},{"name":"computedStaticDataLength","type":"uint256","internalType":"uint256"}]},{"type":"error","name":"FieldLayout_StaticLengthDoesNotFitInAWord","inputs":[{"name":"index","type":"uint256","internalType":"uint256"}]},{"type":"error","name":"FieldLayout_StaticLengthIsNotZero","inputs":[{"name":"index","type":"uint256","internalType":"uint256"}]},{"type":"error","name":"FieldLayout_StaticLengthIsZero","inputs":[{"name":"index","type":"uint256","internalType":"uint256"}]},{"type":"error","name":"FieldLayout_TooManyDynamicFields","inputs":[{"name":"numFields","type":"uint256","internalType":"uint256"},{"name":"maxFields","type":"uint256","internalType":"uint256"}]},{"type":"error","name":"FieldLayout_TooManyFields","inputs":[{"name":"numFields","type":"uint256","internalType":"uint256"},{"name":"maxFields","type":"uint256","internalType":"uint256"}]},{"type":"error","name":"Module_AlreadyInstalled","inputs":[]},{"type":"error","name":"Module_MissingDependency","inputs":[{"name":"dependency","type":"address","internalType":"address"}]},{"type":"error","name":"Module_NonRootInstallNotSupported","inputs":[]},{"type":"error","name":"Module_RootInstallNotSupported","inputs":[]},{"type":"error","name":"Schema_InvalidLength","inputs":[{"name":"length","type":"uint256","internalType":"uint256"}]},{"type":"error","name":"Schema_StaticTypeAfterDynamicType","inputs":[]},{"type":"error","name":"Slice_OutOfBounds","inputs":[{"name":"data","type":"bytes","internalType":"bytes"},{"name":"start","type":"uint256","internalType":"uint256"},{"name":"end","type":"uint256","internalType":"uint256"}]},{"type":"error","name":"Store_InvalidFieldNamesLength","inputs":[{"name":"expected","type":"uint256","internalType":"uint256"},{"name":"received","type":"uint256","internalType":"uint256"}]},{"type":"error","name":"Store_InvalidKeyNamesLength","inputs":[{"name":"expected","type":"uint256","internalType":"uint256"},{"name":"received","type":"uint256","internalType":"uint256"}]},{"type":"error","name":"Store_InvalidResourceType","inputs":[{"name":"expected","type":"bytes2","internalType":"bytes2"},{"name":"resourceId","type":"bytes32","internalType":"ResourceId"},{"name":"resourceIdString","type":"string","internalType":"string"}]},{"type":"error","name":"Store_InvalidStaticDataLength","inputs":[{"name":"expected","type":"uint256","internalType":"uint256"},{"name":"received","type":"uint256","internalType":"uint256"}]},{"type":"error","name":"Store_InvalidValueSchemaDynamicLength","inputs":[{"name":"expected","type":"uint256","internalType":"uint256"},{"name":"received","type":"uint256","internalType":"uint256"}]},{"type":"error","name":"Store_InvalidValueSchemaLength","inputs":[{"name":"expected","type":"uint256","internalType":"uint256"},{"name":"received","type":"uint256","internalType":"uint256"}]},{"type":"error","name":"Store_InvalidValueSchemaStaticLength","inputs":[{"name":"expected","type":"uint256","internalType":"uint256"},{"name":"received","type":"uint256","internalType":"uint256"}]},{"type":"error","name":"Store_TableAlreadyExists","inputs":[{"name":"tableId","type":"bytes32","internalType":"ResourceId"},{"name":"tableIdString","type":"string","internalType":"string"}]}],"bytecode":{"object":"0x60a0806040523461002357306080526124c290816100288239608051816102520152f35b5f80fdfe60806040526004361015610011575f80fd5b5f3560e01c806301ffc9a714610074578063119df25f1461006f57806313861fb51461006a57806345ec9354146100655780637c5b0335146100605763e1af802c1461005b575f80fd5b6104fd565b6104dc565b6104bd565b61023b565b6100ed565b346100df5760203660031901126100df5760043563ffffffff60e01b81168091036100df5762dfba3960e71b81149081156100ce575b81156100bd575b50151560805260206080f35b6301ffc9a760e01b149050816100b1565b63b5dee12760e01b811491506100aa565b5f80fd5b5f9103126100df57565b346100df575f3660031901126100df5760206101076106d5565b6040516001600160a01b039091168152f35b634e487b7160e01b5f52604160045260245ffd5b6001600160401b03811161014057604052565b610119565b606081019081106001600160401b0382111761014057604052565b604081019081106001600160401b0382111761014057604052565b602081019081106001600160401b0382111761014057604052565b601f909101601f19168101906001600160401b0382119082101761014057604052565b6001600160401b03811161014057601f01601f191660200190565b60206003198201126100df576004356001600160401b0381116100df57816023820112156100df5780600401359061020b826101b9565b926102196040519485610196565b828452602483830101116100df57815f92602460209301838601378301015290565b346100df5761028561024c366101d4565b610276817f00000000000000000000000000000000000000000000000000000000000000006106ec565b6020808251830101910161058c565b6001600160901b031982166b195c98cc8c0b5c1d5c1c195d60a21b14610497576102bc6102b0610f44565b6001600160a01b031690565b9173__$a14fc72bd7e845e1b81e15e89974c95927$__90813b156100df57604051630801180f60e31b81526001600160a01b03851660048201526001600160901b031982166024820152915f90839060449082905af491821561046c5761034d92610484575b5060101c600160801b600160f01b031691674d6574616461746160401b613a3160f11b018317610774565b61036e6a455243323053797374656d60281b61737960f01b018217836109f7565b6001600160a01b039092169190616e7360f01b1761038a6106d5565b833b156100df5760405163ef5d6bbb60e01b8152600481018390526001600160a01b039190911660248201525f8160448183885af1801561046c57610471575b506103e26103de6103d9610650565b610b23565b1590565b6103fb575b6103f992506103f4610650565b610c5e565b005b6104036106a1565b92803b156100df5760405163b29e408960e01b815260048101949094525f908490602490829084905af192831561046c576103f993610453575b5061044e610449610650565b610b46565b6103e7565b806104606104669261012d565b806100e3565b5f61043d565b610623565b8061046061047e9261012d565b5f6103ca565b806104606104919261012d565b5f610322565b6040516303cc718f60e21b81526001600160901b031983166004820152602490fd5b0390fd5b346100df575f3660031901126100df576020604051601f193601358152f35b346100df576104ea366101d4565b506040516302d988bf60e61b8152600490fd5b346100df575f3660031901126100df576020610107610f44565b5f5b8381106105285750505f910152565b8181015183820152602001610519565b90929192610545816101b9565b916105536040519384610196565b8294828452828201116100df57602061056d930190610517565b565b9080601f830112156100df57815161058992602001610538565b90565b9190916040818403126100df5780516001600160901b0319811681036100df5792602082015160018060401b03928382116100df5701906060828203126100df57604051926105da84610145565b825160ff811681036100df57845260208301518181116100df578261060091850161056f565b602085015260408301519081116100df5761061b920161056f565b604082015290565b6040513d5f823e3d90fd5b602081519101519060208110610642575090565b5f199060200360031b1b1690565b604051613a3160f11b6020808301919091526b195c98cc8c0b5c1d5c1c195d60a21b60228301526c4552433230526567697374727960981b603083015281526105899061069c81610160565b61062e565b604051616e7360f01b60208201526b195c98cc8c0b5c1d5c1c195d60a21b6022820152601081526105899061069c81610160565b36603319013560601c9081156106e757565b339150565b9060208151910120906040519061070282610145565b6002825260208201906040368337825115610755576001600160a01b031690528051600110156107555761073a916040820152610d8e565b60f81c61074357565b604051630280240d60e31b8152600490fd5b610afb565b6040519061076782610160565b6001825260203681840137565b90805160405160209160ff60f81b9060f81b16828201526001815261079881610160565b6107f4604083850151940151928451946107be8551878160601b918160381b9101171790565b94866107d4604051988994868087019101610517565b82016107e882518093868085019101610517565b01038086520184610196565b6040516108008161017b565b5f81525f3681376001600160a01b03610817610f44565b16308103610829575061056d94610f79565b9193823b156100df5761087f9561089361086c955f979388946040519a8b998a98899763298314fb60e01b8952600489015260a0602489015260a4880190610d4c565b6003199283888303016044890152610927565b926064860152848303016084850152610927565b03925af1801561046c576108a45750565b8061046061056d9261012d565b60405161737960f01b602080830191909152651c1d5c1c195d60d21b602283015266466163746f727960c81b603083015281526105899061069c81610160565b6020818303126100df578051906001600160401b0382116100df57019080601f830112156100df57815161058992602001610538565b9060209161094081518092818552858086019101610517565b601f01601f1916010190565b604090610589939281528160208201520190610927565b908160209103126100df57516001600160a01b03811681036100df5790565b60405161737960f01b602080830191909152651c1d5c1c195d60d21b6022830152692232b632b3b0ba34b7b760b11b603083015281526105899061069c81610160565b6040516109d18161017b565b5f8152905f368137565b6105899392606092825260208201528160408201520190610927565b9091906001600160a01b0316610a595f610a0f6108b1565b60405163b9eb8bfb60e01b60208201526024810187905290610a3e82604481015b03601f198101845283610196565b60405163075cf5e160e31b815293849283926004840161094c565b038183865af190811561046c57610a85916102b0915f91610ad9575b5060208082518301019101610963565b92610a8e610982565b91610a976109c5565b90803b156100df5760405163bfdfaff760e01b8152935f938593849286928492610893929091600160801b600160f01b0316616e7360f01b17600485016109db565b610af591503d805f833e610aed8183610196565b8101906108f1565b5f610a75565b634e487b7160e01b5f52603260045260245ffd5b80518210156107555760209160051b010190565b610b2b61075a565b80511561075557610b40916020820152610e53565b60f81c90565b610b4e610eb4565b604051610b5a81610160565b600b81526a1b985b595cdc1858d9525960aa1b602082015281511561075557602082015280511561075557610b8d610eb4565b91604051610b9a81610160565b600c81526b746f6b656e4164647265737360a01b6020820152835115610755576020840152825115610755576001600160a01b03610bd6610f44565b16308103610bea57509061056d9291610fc3565b803b156100df575f9283610c4c9361089360405197889687958694630ba51f4960e01b86526004860152630500400560da1b6024860152632001005f60d81b6044860152631401006160d81b606486015260c0608486015260c4850190610ee8565b8381036003190160a485015290610ee8565b610c6661075a565b918251156107555760208301526040519260018060601b03199060601b16602084015260148352610c9683610160565b6001600160a01b03610ca6610f44565b16308103610cba57509061056d9291611f72565b803b156100df575f9283610cf593610d0d604051978896879586946301c85d5760e51b8652600486015260a0602486015260a4850190610d4c565b90846044850152600319848303016064850152610927565b630500400560da1b608483015203925af1801561046c576108a45750565b91908201809211610d3857565b634e487b7160e01b5f52601160045260245ffd5b9081518082526020808093019301915f5b828110610d6b575050505090565b835185529381019392810192600101610d5d565b908160209103126100df575190565b6001600160a01b03610d9e610f44565b16308103610db45750610db09061183c565b5490565b604051638c364d5960e01b81526f496e7374616c6c65644d6f64756c6573661d189ddbdc9b1960ca1b0160048201526080602482015291602091839182908190610e02906084830190610d4c565b5f6044830152630101000160d81b606483015203915afa90811561046c575f91610e2a575090565b610589915060203d602011610e4c575b610e448183610196565b810190610d7f565b503d610e3a565b6001600160a01b03610e63610f44565b16308103610e755750610db0906118bd565b604051638c364d5960e01b81525f805160206124a283398151915260048201526080602482015291602091839182908190610e02906084830190610d4c565b604051610ec081610160565b60018152805f5b602080821015610ee257906060602092828501015201610ec7565b50505090565b90808251908181526020809101926020808460051b8301019501935f915b848310610f165750505050505090565b9091929394958480610f34600193601f198682030187528a51610927565b9801930193019194939290610f06565b7f629a4c26e296b22a8e0856e9f6ecb2d1008d7e00081111962cd175fa7488e175546001600160a01b03168061058957503390565b92909161056d9492610f8a856111d2565b9461153e565b6060906105899392613a3160f11b825260208201528160408201520190610927565b906020610589928181520190610ee8565b9190613a3160f11b6001600160f01b031984168181141590816111c2575b5061118c57610fee611963565b610ff6611a4d565b610ffe611ada565b81516001906001810361116b575083516001810361114b57505f5b8181106110ed5750506001600160f01b03841690611038908217611bd9565b9081156110d6575b506110a05761108961106661109561056d959461109b9460405193849160208301610fb2565b039061107a601f1992838101865285610196565b60405194859160208301610fb2565b03908101845283610196565b83611c65565b611d19565b82604051906110ba82610a30836020830160209181520190565b6104b960405192839263dfaaf9cf60e01b84526004840161094c565b6110e79150611bdd60f21b17611bd9565b5f611040565b630500400560da1b601b82900360031b1c60ff1661111261110d83611b55565b611bab565b810361112057508101611019565b61112c61110d83611b55565b6040516309531f6d60e21b815260048101929092526024820152604490fd5b604051621f7b1360ea1b8152600160048201526024810191909152604490fd5b6040516301ee597360e31b8152600160048201526024810191909152604490fd5b83604051906111a682610a30836020830160209181520190565b6104b96040519283926331b4668360e01b845260048401610f90565b611bdd60f21b141590505f610fe1565b655461626c657360501b66746273746f726560c81b019080821461122357604051906020820192835260408201526040815261120d81610145565b5190205f80516020612442833981519152185490565b506503001811010160cd1b919050565b90610589949261124e61125c92608085526080850190610d4c565b908382036020850152610927565b9260408201526060818403910152610927565b655461626c657360501b66746273746f726560c81b01815260c0602082018190529095946112cc949390926112b9926112ab9190890190610d4c565b908782036040890152610927565b9160608601528482036080860152610927565b9160a06503001811010160cd1b910152565b969594906113259361130460a09694611312938b5260c060208c015260c08b0190610d4c565b9089820360408b0152610927565b9160608801528682036080880152610927565b930152565b919093929361133761210c565b5f5b81518110156113e15761136d6113606113528385610b0f565b516001600160581b03191690565b6001600160581b03191690565b6001808260581c1614611384575b50600101611339565b60601c90813b156100df576040516315c19b2760e21b8152915f9083908183816113b48e8c8c8f6004860161126f565b03925af191821561046c576001926113ce575b509061137b565b806104606113db9261012d565b5f6113c7565b5060408051929690959194919392655461626c657360501b66746273746f726560c81b01905f80516020612462833981519152908061142385888d8985611233565b0390a261143e61143283611927565b885160208a019161225e565b82611448836122e4565b555f93602082015b60ff9081871690600282101561149a576001918161148c6114919364ffffffffff8b61147c8e8d612312565b956028026038011c16809461225e565b610d2b565b96011694611450565b505050959293509590935f5b8151811015611534576114bf6113606113528385610b0f565b6002808260581c16146114d6575b506001016114a6565b60601c90813b156100df575f868a9386838b6115078b5198899687958694635b28cdaf60e01b86526004860161126f565b03925af191821561046c57600192611521575b50906114cd565b8061046061152e9261012d565b5f61151a565b5050505050509050565b9295949192916001600160f01b03198316611bdd60f21b14611750576115638361221a565b5f5b81518110156115f65761157e6113606113528385610b0f565b6001808260581c1614611595575b50600101611565565b60601c90813b156100df575f878b9387838a6115c98a8f6040519a8b98899788966315c19b2760e21b8852600488016112de565b03925af191821561046c576001926115e3575b509061158c565b806104606115f09261012d565b5f6115dc565b5092949094604093815f80516020612462833981519152848b6116206040519283928c8b85611233565b0390a261163c611630858461194a565b8751602089019161225e565b60ff808860e01c16806116ea575b50505f5b81518110156116de576116676113606113528385610b0f565b6002808260581c161461167e575b5060010161164e565b60601c90813b156100df575f888c938883886116b18f8c8f519a8b9889978896635b28cdaf60e01b8852600488016112de565b03925af191821561046c576001926116cb575b5090611675565b806104606116d89261012d565b5f6116c4565b50505050505050509050565b9690989293958a6116fe87879b959b6122f9565b555f96602081015b8b8916908d8b83101561173d578d928261148c60019464ffffffffff8f958f8f9761147c916117349961234f565b99011697611706565b5050509493995095509550955f8061164a565b509093945f80516020612462833981519152936117739160405194859485611233565b0390a2565b6953746f7265486f6f6b7360301b66746273746f726560c81b01815281516020918201928201915f5b8281106117af575050505090565b8351855293810193928101926001016117a1565b655461626c657360501b66746273746f726560c81b01815281516020918201928201915f5b8281106117f6575050505090565b8351855293810193928101926001016117e8565b90815281516020918201928201915f5b828110611828575050505090565b83518552938101939281019260010161181a565b60405160208160208101936f496e7374616c6c65644d6f64756c6573661d189ddbdc9b1960ca1b0185526040820160208251919201935f5b8281106118a657505050611891925003601f198101835282610196565b5190205f805160206124428339815191521890565b855184529481019486945092810192600101611874565b60405160208160208101936a5265736f7572636549647360281b66746273746f726560c81b0185526040820160208251919201935f5b82811061191057505050611891925003601f198101835282610196565b8551845294810194869450928101926001016118f3565b6040516118918161193c6020820194856117c3565b03601f198101835282610196565b9061189161193c9160405192839160208301958661180a565b5f805b600190818310156119d757630500400560da1b601b84900360031b1c60ff1690816119a4576040516353b2dd0560e01b815260048101859052602490fd5b602082116119be57906119b691610d2b565b910190611966565b604051637237f23760e01b815260048101859052602490fd5b91505060148103611a2c57506001805b601c81106119f3575050565b630500400560da1b601b82900360031b1c60ff16611a125781016119e7565b604051631d8d44db60e01b81526004810191909152602490fd5b6040516375d4b26f60e11b8152601460048201526024810191909152604490fd5b5f805b60019081831015611a9057611a6761110d84611b8a565b8015611a7e57611a7691610d2b565b910190611a50565b6040516307a25a1160e51b8152600490fd5b90506020915003611ac1576001805b818110611aaa575050565b611ab661110d82611b8a565b611a7e578101611a9f565b60405163d498615960e01b815260206004820152602490fd5b5f805b60019081831015611b0b57611af461110d84611b55565b8015611a7e57611b0391610d2b565b910190611add565b90506014915003611b3c576001805b818110611b25575050565b611b3161110d82611b55565b611a7e578101611b1a565b60405163d498615960e01b815260146004820152602490fd5b631401006160d81b601b9190910360031b1c60ff1660c6811015611b765790565b634e487b7160e01b5f52602160045260245ffd5b632001005f60d81b601b9190910360031b1c60ff1660c6811015611b765790565b60c6811015611b7657606160ff82161015611bc957601f1660010190565b606103611bd557601490565b5f90565b611be161075a565b805115610755576020808201928352604080515f805160206124a283398151915281840190815293519394909390928492830191905f5b828110611c4e57505050611c35925003601f198101835282610196565b5190205f80516020612442833981519152185460f81c90565b855184529481019486945092810192600101611c18565b60408051630500400560da1b6020820152632001005f60d81b91810191909152631401006160d81b60608083019190915281529092608082019291906001600160401b0384118285101761014057602082611cfc92866040528551611ce781611cda8451828160601b918160381b9101171790565b988660a087019101610517565b82016107e8825180938660a085019101610517565b611d0461075a565b8051156107555761056d94602082015261132a565b90611d2261075a565b918251156107555760208301526040805192600160f81b602085015260019160018552611d4e85610160565b611d57826118bd565b94611d606121bb565b5f855b611e52575b50611db1828697986040515f805160206124228339815191526a5265736f7572636549647360281b66746273746f726560c81b019180611da9868c83611eeb565b0390a2612376565b5f945b611dc1575b505050505050565b8051851015611e4d5784611ddc611360611352899885610b0f565b6008808260581c1614611df3575b50850194611db4565b60601c9550853b156100df575f8451809763a8ba872160e01b8252818381611e1f898c60048401611f16565b03925af190811561046c5787968792611e3a575b5090611dea565b80610460611e479261012d565b5f611e33565b611db9565b8151811015611ee65780611e6d611360611352899486610b0f565b60049081808260581c1614611e87575b5050810190611d63565b90925060601c803b156100df57845f918883611eb7968a519788958694859363964f667d60e01b85528401611f16565b03925af190811561046c5787928392611ed3575b819250611e7d565b80610460611ee09261012d565b5f611ecb565b611d68565b9091611f0261058993606084526060840190610d4c565b915f60208201526040818403910152610927565b5f805160206124a28339815191528152608060208201819052610589939192611f4191840190610d4c565b915f60408201526060818403910152610927565b91611f419061058994928452608060208501526080840190610d4c565b919291906001600160f01b03198216611bdd60f21b146120eb57611f96818361194a565b611f9f8361221a565b905f5b825181101561202c57611fbb6113606113528386610b0f565b9060049182808260581c1614611fd7575b506001915001611fa2565b60601c803b156100df57855f9188838c966120066040519889968795869463964f667d60e01b86528501611f55565b03925af191821561046c5760019215611fcc57806104606120269261012d565b5f611fcc565b5094919061205583604097865f8051602061242283398151915260405180611da9868a83611eeb565b5f5b81518110156120e2576120706113606113528385610b0f565b6008808260581c1614612087575b50600101612057565b60601c90813b156100df57875163a8ba872160e01b8152915f9083908183816120b58b8b8e60048501611f55565b03925af191821561046c576001926120cf575b509061207e565b806104606120dc9261012d565b5f6120c8565b50505050509050565b925f8051602061242283398151915291929361177360405192839283611eeb565b61211461075a565b8051156107555761058990655461626c657360501b66746273746f726560c81b0160208201526040516121a764ffffffffff6121845f8051602061248283398151915260208501856121668883611778565b039561217a601f1997888101835282610196565b51902018946122a7565b5460381c16916040519260208401948592603f83870101166040528185526123d7565b60018060801b039051169060801b17612385565b6121c361075a565b80511561075557610589906a5265736f7572636549647360281b66746273746f726560c81b0160208201526040516121a764ffffffffff6121845f8051602061248283398151915260208501856121668883611778565b61222261075a565b805115610755576105899160208201526040516121a764ffffffffff6121845f8051602061248283398151915260208501856121668883611778565b9291925b6020908183106122825784518155930192601f1990910190600101612262565b92939190508061229157505050565b5f199060031b1c90818354169119905116179055565b6040516122bc8161193c602082019485611778565b5190207f14e2fcc58e58e68ec7edc30c8d50dccc3ce2714a623ec81f46b6a63922d765691890565b6040516122bc8161193c6020820194856117c3565b906122bc61193c9160405192839160208301958661180a565b905f80516020612482833981519152916040516123378161193c6020820194856117c3565b51902060f89190911b6001600160f81b031916181890565b61193c6123375f80516020612482833981519152949360405192839160208301958661180a565b815161056d926020019161225e565b8060801c906015809160018060801b031604604051926020906020850160208460051b8701016040528386525f5b8481106123c35750505050505090565b8251825291850191908301906001016123b3565b9291925b6020908183106123fb5780548552930192601f19909101906001016123db565b9190509291928061240b57505050565b5f199060031b1c9081835116911990541617905256fe8c0b5119d4cec7b284c6b1b39252a03d1e2f2d7451a5895562524c113bb952be86425bff6b57326c7859e89024fe4f238ca327a1ae4a230180dd2f0e88aaa7d98dbb3a9672eebfd3773e72dd9c102393436816d832c7ba9e1e1ac8fcadcac7a93b4102da22e32d82fc925482184f16c09fd4281692720b87d124aef6da48a0f1746273746f72650000000000000000005265736f757263654964730000000000","linkReferences":{"node_modules/@latticexyz/world-modules/src/modules/erc20-puppet/ERC20Module.sol":{"ERC20ModuleRegistrationLib":[{"start":743,"length":20}]}}},"methodIdentifiers":{"_msgSender()":"119df25f","_msgValue()":"45ec9354","_world()":"e1af802c","install(bytes)":"13861fb5","installRoot(bytes)":"7c5b0335","supportsInterface(bytes4)":"01ffc9a7"},"id":62}