{"abi":[{"type":"function","name":"_msgSender","inputs":[],"outputs":[{"name":"sender","type":"address","internalType":"address"}],"stateMutability":"view"},{"type":"function","name":"_msgValue","inputs":[],"outputs":[{"name":"value","type":"uint256","internalType":"uint256"}],"stateMutability":"view"},{"type":"function","name":"_world","inputs":[],"outputs":[{"name":"","type":"address","internalType":"address"}],"stateMutability":"view"},{"type":"function","name":"choosePowerSource","inputs":[{"name":"characterId","type":"bytes32","internalType":"bytes32"},{"name":"powerSource","type":"uint8","internalType":"enum PowerSource"}],"outputs":[],"stateMutability":"nonpayable"},{"type":"function","name":"chooseRace","inputs":[{"name":"characterId","type":"bytes32","internalType":"bytes32"},{"name":"race","type":"uint8","internalType":"enum Race"}],"outputs":[],"stateMutability":"nonpayable"},{"type":"function","name":"chooseStartingArmor","inputs":[{"name":"characterId","type":"bytes32","internalType":"bytes32"},{"name":"armorType","type":"uint8","internalType":"enum ArmorType"}],"outputs":[],"stateMutability":"nonpayable"},{"type":"function","name":"getAdvancedClass","inputs":[{"name":"characterId","type":"bytes32","internalType":"bytes32"}],"outputs":[{"name":"","type":"uint8","internalType":"enum AdvancedClass"}],"stateMutability":"view"},{"type":"function","name":"getAvailableClasses","inputs":[],"outputs":[{"name":"","type":"uint8[9]","internalType":"enum AdvancedClass[9]"}],"stateMutability":"pure"},{"type":"function","name":"getClassMultipliers","inputs":[{"name":"characterId","type":"bytes32","internalType":"bytes32"}],"outputs":[{"name":"physical","type":"uint256","internalType":"uint256"},{"name":"spell","type":"uint256","internalType":"uint256"},{"name":"healing","type":"uint256","internalType":"uint256"},{"name":"crit","type":"uint256","internalType":"uint256"},{"name":"maxHp","type":"uint256","internalType":"uint256"}],"stateMutability":"view"},{"type":"function","name":"getPowerSource","inputs":[{"name":"characterId","type":"bytes32","internalType":"bytes32"}],"outputs":[{"name":"","type":"uint8","internalType":"enum PowerSource"}],"stateMutability":"view"},{"type":"function","name":"getRace","inputs":[{"name":"characterId","type":"bytes32","internalType":"bytes32"}],"outputs":[{"name":"","type":"uint8","internalType":"enum Race"}],"stateMutability":"view"},{"type":"function","name":"getStartingArmor","inputs":[{"name":"characterId","type":"bytes32","internalType":"bytes32"}],"outputs":[{"name":"","type":"uint8","internalType":"enum ArmorType"}],"stateMutability":"view"},{"type":"function","name":"rollBaseStats","inputs":[{"name":"userRandomNumber","type":"bytes32","internalType":"bytes32"},{"name":"characterId","type":"bytes32","internalType":"bytes32"}],"outputs":[],"stateMutability":"payable"},{"type":"function","name":"selectAdvancedClass","inputs":[{"name":"characterId","type":"bytes32","internalType":"bytes32"},{"name":"advancedClass","type":"uint8","internalType":"enum AdvancedClass"}],"outputs":[],"stateMutability":"nonpayable"},{"type":"function","name":"supportsInterface","inputs":[{"name":"interfaceId","type":"bytes4","internalType":"bytes4"}],"outputs":[{"name":"","type":"bool","internalType":"bool"}],"stateMutability":"pure"},{"type":"event","name":"AdvancedClassSelected","inputs":[{"name":"characterId","type":"bytes32","indexed":true,"internalType":"bytes32"},{"name":"advancedClass","type":"uint8","indexed":false,"internalType":"enum AdvancedClass"}],"anonymous":false},{"type":"event","name":"ArmorTypeSelected","inputs":[{"name":"characterId","type":"bytes32","indexed":true,"internalType":"bytes32"},{"name":"armorType","type":"uint8","indexed":false,"internalType":"enum ArmorType"}],"anonymous":false},{"type":"event","name":"PowerSourceSelected","inputs":[{"name":"characterId","type":"bytes32","indexed":true,"internalType":"bytes32"},{"name":"powerSource","type":"uint8","indexed":false,"internalType":"enum PowerSource"}],"anonymous":false},{"type":"event","name":"RaceSelected","inputs":[{"name":"characterId","type":"bytes32","indexed":true,"internalType":"bytes32"},{"name":"race","type":"uint8","indexed":false,"internalType":"enum Race"}],"anonymous":false},{"type":"event","name":"Store_SetRecord","inputs":[{"name":"tableId","type":"bytes32","indexed":true,"internalType":"ResourceId"},{"name":"keyTuple","type":"bytes32[]","indexed":false,"internalType":"bytes32[]"},{"name":"staticData","type":"bytes","indexed":false,"internalType":"bytes"},{"name":"encodedLengths","type":"bytes32","indexed":false,"internalType":"EncodedLengths"},{"name":"dynamicData","type":"bytes","indexed":false,"internalType":"bytes"}],"anonymous":false},{"type":"event","name":"Store_SpliceDynamicData","inputs":[{"name":"tableId","type":"bytes32","indexed":true,"internalType":"ResourceId"},{"name":"keyTuple","type":"bytes32[]","indexed":false,"internalType":"bytes32[]"},{"name":"dynamicFieldIndex","type":"uint8","indexed":false,"internalType":"uint8"},{"name":"start","type":"uint48","indexed":false,"internalType":"uint48"},{"name":"deleteCount","type":"uint40","indexed":false,"internalType":"uint40"},{"name":"encodedLengths","type":"bytes32","indexed":false,"internalType":"EncodedLengths"},{"name":"data","type":"bytes","indexed":false,"internalType":"bytes"}],"anonymous":false},{"type":"event","name":"Store_SpliceStaticData","inputs":[{"name":"tableId","type":"bytes32","indexed":true,"internalType":"ResourceId"},{"name":"keyTuple","type":"bytes32[]","indexed":false,"internalType":"bytes32[]"},{"name":"start","type":"uint48","indexed":false,"internalType":"uint48"},{"name":"data","type":"bytes","indexed":false,"internalType":"bytes"}],"anonymous":false},{"type":"error","name":"EncodedLengths_InvalidLength","inputs":[{"name":"length","type":"uint256","internalType":"uint256"}]},{"type":"error","name":"GamePaused","inputs":[]},{"type":"error","name":"Slice_OutOfBounds","inputs":[{"name":"data","type":"bytes","internalType":"bytes"},{"name":"start","type":"uint256","internalType":"uint256"},{"name":"end","type":"uint256","internalType":"uint256"}]},{"type":"error","name":"Store_IndexOutOfBounds","inputs":[{"name":"length","type":"uint256","internalType":"uint256"},{"name":"accessedIndex","type":"uint256","internalType":"uint256"}]},{"type":"error","name":"Store_InvalidResourceType","inputs":[{"name":"expected","type":"bytes2","internalType":"bytes2"},{"name":"resourceId","type":"bytes32","internalType":"ResourceId"},{"name":"resourceIdString","type":"string","internalType":"string"}]},{"type":"error","name":"Store_InvalidSplice","inputs":[{"name":"startWithinField","type":"uint40","internalType":"uint40"},{"name":"deleteCount","type":"uint40","internalType":"uint40"},{"name":"fieldLength","type":"uint40","internalType":"uint40"}]},{"type":"error","name":"World_AccessDenied","inputs":[{"name":"resource","type":"string","internalType":"string"},{"name":"caller","type":"address","internalType":"address"}]},{"type":"error","name":"World_FunctionSelectorNotFound","inputs":[{"name":"functionSelector","type":"bytes4","internalType":"bytes4"}]},{"type":"error","name":"World_ResourceNotFound","inputs":[{"name":"resourceId","type":"bytes32","internalType":"ResourceId"},{"name":"resourceIdString","type":"string","internalType":"string"}]}],"bytecode":{"object":"0x60808060405234610016576144b6908161001b8239f35b5f80fdfe60806040526004361015610011575f80fd5b5f3560e01c806301ffc9a7146101045780630797e03e146100ff578063119df25f146100fa5780632dfb78cd146100f55780633493289b146100f057806345ec9354146100eb57806348b027f3146100e6578063526e2f47146100e15780635932023c146100dc5780637c636426146100d75780639cca06ef146100d2578063aa8659e4146100cd578063c75fadf2146100c8578063e1af802c146100c35763f70125db146100be575f80fd5b610ae8565b610ace565b610ab0565b61098a565b610811565b6106ac565b6105fa565b61057c565b61044c565b610423565b61027d565b61024e565b6101fb565b6101a0565b3461015a57602036600319011261015a5760043563ffffffff60e01b811680910361015a5760209063b5dee12760e01b8114908115610149575b506040519015158152f35b6301ffc9a760e01b1490505f61013e565b5f80fd5b634e487b7160e01b5f52602160045260245ffd5b600a111561017c57565b61015e565b90600a82101561017c5752565b60208101929161019e9190610181565b565b3461015a57602036600319011261015a576101b9611217565b8051156101ec576101dd6101d560209260043584820152611b7d565b60f81c611266565b6101ea6040518092610181565bf35b611231565b5f91031261015a57565b3461015a575f36600319011261015a576020610215611275565b6040516001600160a01b039091168152f35b6004111561017c57565b9061023b82610227565b52565b9190602083019261023b82610227565b3461015a57602036600319011261015a57602061026c600435611298565b6040519061027981610227565b8152f35b3461015a57604036600319011261015a57600435602435600a81101561015a576102c36102a9836112c1565b6001600160a01b03806102ba611275565b16911614610b06565b6102cb6112e4565b61037b6103676103756102dd8561139c565b6102ee600a60e08301511015610b51565b61034461032d866101809361031461030f61030b87840151151590565b1590565b610bbf565b61031d82610172565b610328821515610c23565b6114e2565b9161033c876101608501610c7e565b820160019052565b61034e8187611675565b6103588587611719565b60405192839160208301610c9e565b03601f198101835282610df0565b83611848565b610395610389610389612829565b6001600160a01b031690565b90813b1561015a575f604051809362954a8360e51b82528183816103bd878a60048401610e13565b03925af190811561041e577fecf83d41266c4a6a02db7466dd117dc3a6f136389ce0e3a31b7fa9d88d4bf2a89261040092610405575b506040519182918261018e565b0390a2005b8061041261041892610d6b565b806101f1565b5f6103f3565b610e29565b3461015a575f36600319011261015a576020604051601f193601358152f35b6004111561015a57565b3461015a57604036600319011261015a5760043560243561046c81610442565b6104786102a9836112c1565b6104806112e4565b61049261048c83611905565b15610e34565b61049b81610227565b80156104f7576104007f3ba9703e1cdcf3251b59516b5c202eba12dd4efcbaacaac50b37094bb160369e916104e16104d285611928565b6104db81610227565b15610e98565b6104eb8185611945565b6040519182918261023e565b60405162461bcd60e51b8152602060048201526024808201527f494d504c4943495420434c4153533a20696e76616c696420706f77657220736f6044820152637572636560e01b6064820152608490fd5b610120810192915f915b6009831061055f57505050565b8061056d6001928451610181565b92019160209182019101610552565b3461015a575f36600319011261015a5761012060405161059b81610d83565b3690376105f66040516105ad81610d83565b6003815260016020820152600660408201526009606082015260046080820152600560a0820152600860c0820152600760e0820152600261010082015260405191829182610548565b0390f35b3461015a57602036600319011261015a57600435610616611217565b8051156101ec578082602061062c930152611c40565b610634611217565b8051156101ec578083602061064a930152611cd1565b91610653611217565b908151156101ec5761066d828260206105f6950152611d5f565b9061068061067a82611a40565b91611a5d565b91604051958695869192608093969594919660a084019784526020840152604083015260608201520152565b3461015a57604036600319011261015a576004357f7f9cbab4e73821b798dfa4e2400bec208cb7586b4087ede564dcccc0d52c2f666104006024356106f081610442565b6106fc6102a9856112c1565b61071061070b61030b86611905565b610e34565b61071981610227565b610724811515610efa565b61073f61073085611298565b61073981610227565b15610f51565b6104eb61074b8561139c565b610759836101408301610fac565b61076283610227565b6001830361079d57606081016107788151610fc9565b9052602081016107888151610fea565b9052610794815161105a565b81525b85611675565b6107a683610227565b600283036107cf57602081016107bc8151610fc9565b90526107c88151610fea565b8152610797565b6107d883610227565b60038303610797576107ea8151610fc9565b8152608081016107fa8151610fea565b90526020810161080a815161105a565b9052610797565b3461015a57604036600319011261015a576004357f1a3c12ae7b2d1c5d4fded6bfa2710975f8543787e0d0eb52cff1f1d86125bec661040060243561085581610442565b6108616102a9856112c1565b6108696112e4565b61087861070b61030b86611905565b61088181610227565b61088c81151561106b565b6108a761089885611a7a565b6108a181610227565b156110b6565b6104eb6108b38561139c565b6108c1836101208301610fac565b6108ca83610227565b60038303610904576108dc8151610fc9565b8152602081016108ec815161105a565b9052608081016108fc8151610fea565b905285611675565b61090d83610227565b6002830361094f57602081016109238151610fc9565b9052606081016109338151610fea565b905261093f815161105a565b81526080810161080a815161105a565b61095883610227565b600183036107975761096a8151610fea565b81526020810161097a8151610fea565b90526060810161080a8151610fea565b604036600319011261015a576024356109a56102a9826112c1565b6109ad6112e4565b6109b961048c82611905565b6109c281611a7a565b6109cb81610227565b15610a5c57610a49610a55610a16836109f96109e9610a5a96611928565b6109f281610227565b1515611110565b604051918291602083016020600191939293604081019481520152565b0390610a2a601f1992838101835282610df0565b604051632caa982960e21b6020820152938491600435602484016111f6565b03908101835282610df0565b611a97565b005b60405162461bcd60e51b815260206004820152602660248201527f494d504c4943495420434c4153533a206d7573742063686f6f7365207261636560448201526508199a5c9cdd60d21b6064820152608490fd5b3461015a57602036600319011261015a57602061026c600435611928565b3461015a575f36600319011261015a576020610215612829565b3461015a57602036600319011261015a57602061026c600435611a7a565b15610b0d57565b606460405162461bcd60e51b815260206004820152602060248201527f494d504c4943495420434c4153533a20494e56414c4944204f50455241544f526044820152fd5b15610b5857565b60405162461bcd60e51b815260206004820152603960248201527f494d504c4943495420434c4153533a204d757374206265206c6576656c20313060448201527820746f2073656c65637420616476616e63656420636c61737360381b6064820152608490fd5b15610bc657565b60405162461bcd60e51b815260206004820152602f60248201527f494d504c4943495420434c4153533a20416476616e63656420636c617373206160448201526e1b1c9958591e481cd95b1958dd1959608a1b6064820152608490fd5b15610c2a57565b60405162461bcd60e51b815260206004820152602660248201527f494d504c4943495420434c4153533a20496e76616c696420616476616e63656460448201526520636c61737360d01b6064820152608490fd5b600a82101561017c5752565b6003111561017c57565b9061023b82610c8a565b61019e909291926101a08101938051825260208101516020830152610ccb60408201516040840190610c94565b606081015160608301526080810151608083015260a081015160a083015260c081015160c083015260e081015160e0830152610d106101008083015190840190610231565b610d236101208083015190840190610231565b610d366101408083015190840190610231565b610d496101608083015190840190610181565b610180908101511515910152565b634e487b7160e01b5f52604160045260245ffd5b6001600160401b038111610d7e57604052565b610d57565b61012081019081106001600160401b03821117610d7e57604052565b604081019081106001600160401b03821117610d7e57604052565b60c081019081106001600160401b03821117610d7e57604052565b606081019081106001600160401b03821117610d7e57604052565b601f909101601f19168101906001600160401b03821190821017610d7e57604052565b90815260408101929161019e9160200190610181565b6040513d5f823e3d90fd5b15610e3b57565b60405162461bcd60e51b815260206004820152602f60248201527f494d504c4943495420434c4153533a2063686172616374657220616c7265616460448201526e1e481a5b8819d85b59481ddbdc9b19608a1b6064820152608490fd5b15610e9f57565b60405162461bcd60e51b815260206004820152602d60248201527f494d504c4943495420434c4153533a20706f77657220736f7572636520616c7260448201526c1958591e481cd95b1958dd1959609a1b6064820152608490fd5b15610f0157565b60405162461bcd60e51b815260206004820152602260248201527f494d504c4943495420434c4153533a20696e76616c69642061726d6f72207479604482015261706560f01b6064820152608490fd5b15610f5857565b60405162461bcd60e51b815260206004820152602660248201527f494d504c4943495420434c4153533a2061726d6f7220616c72656164792073656044820152651b1958dd195960d21b6064820152608490fd5b61023b82610227565b634e487b7160e01b5f52601160045260245ffd5b9060028201915f600284129112908015821691151617610fe557565b610fb5565b9060018201915f600184129112908015821691151617610fe557565b90600a8201915f600a84129112908015821691151617610fe557565b9060038201915f600384129112908015821691151617610fe557565b90600f8201915f600f84129112908015821691151617610fe557565b905f198201918213600116610fe557565b1561107257565b60405162461bcd60e51b815260206004820152601c60248201527b494d504c4943495420434c4153533a20696e76616c6964207261636560201b6044820152606490fd5b156110bd57565b60405162461bcd60e51b815260206004820152602560248201527f494d504c4943495420434c4153533a207261636520616c72656164792073656c6044820152641958dd195960da1b6064820152608490fd5b1561111757565b60405162461bcd60e51b815260206004820152602e60248201527f494d504c4943495420434c4153533a206d7573742063686f6f736520706f776560448201526d1c881cdbdd5c98d948199a5c9cdd60921b6064820152608490fd5b5f5b8381106111845750505f910152565b8181015183820152602001611175565b90606051918281525f5b8381106111bd5750825f602080949584010152601f8019910116010190565b80602091608001518282850101520161119e565b906020916111ea81518092818552858086019101611173565b601f01601f1916010190565b606090611214939281526001602082015281604082015201906111d1565b90565b6040519061122482610d9f565b6001825260203681840137565b634e487b7160e01b5f52603260045260245ffd5b8051156101ec5760200190565b80518210156101ec5760209160051b010190565b60ff16600a81101561017c5790565b36603319013560601c90811561128757565b339150565b60ff1661121481610227565b6112a0611217565b8051156101ec576112b5916020820152611ded565b60f81c61121481610227565b6112c9611217565b8051156101ec576112de916020820152611e87565b60601c90565b60405160208101906001600160401b03821181831017610d7e57611311916040525f81525f368137611f14565b60f81c61131a57565b60405163379a7ed960e01b8152600490fd5b604051906101a082016001600160401b03811183821017610d7e576040525f610180838281528260208201528260408201528260608201528260808201528260a08201528260c08201528260e0820152826101008201528261012082015282610140820152826101608201520152565b6113a461132c565b506113ad611217565b8051156101ec576113c2916020820152612335565b50506113cc61132c565b906020810151906114d86040820151916113f26113ed606083015160f81c90565b612d0b565b9060618101519060818101519060a18101519060c1810151906114b68a6114ac60e18401519361012061143261142d61010184015160f81c90565b61128c565b936114a661144861142d61010286015160f81c90565b9361149c61145e61142d61010384015160f81c90565b9161149261148861010561147f61147a61010486015160f81c90565b611266565b93015160f81c90565b1515610180870152565b6101608501610c7e565b6101408301610fac565b01610fac565b6101008c01610fac565b60e08a015260c089015260a08801526080870152606086015260408501612497565b6020830152815290565b906114eb61132c565b506114f581610172565b6003810361151d57506115088151611022565b8152608081016115188151611006565b905290565b61152681610172565b6001810361154957506115398151610fc9565b815260808101611518815161103e565b61155281610172565b600681036115695750602081016115188151611022565b61157281610172565b600981036115995750602081016115898151610fc9565b9052606081016115188151610fea565b6115a281610172565b600481036115ca5750602081016115b98151610fc9565b90526115c58151610fc9565b815290565b6115d381610172565b600581036115fa5750602081016115ea8151610fc9565b9052606081016115188151610fc9565b61160381610172565b6008810361161a5750606081016115188151611022565b61162381610172565b6007810361164a57506060810161163a8151610fc9565b9052608081016115188151611006565b80611656600292610172565b03611214576116658151610fc9565b8152606081016115188151610fc9565b61170061019e926116f38151916020810151604082015161169581610c8a565b6060830151608084015160a085015160c08601519160e087015193610100880151956116c087610227565b610120890151976116d089610227565b6116fa6101806101408c01519b6116e68d610227565b6101608101519d8e610172565b0151151590565b9b6124c0565b90611709611217565b9061171382611245565b52612558565b9061019e916103e89081829183809561173181610172565b6003810361174557505061044c905b6125fa565b61175181959395610172565b600181036117665750505061041a80926125fa565b61177281959395610172565b6006810361178557505061044c906125fa565b6117928196929396610172565b600981036117a557505061047e936125fa565b6117b3819794929697610172565b600481036117ca575050505061041a8080946125fa565b6117d681979497610172565b600581036117e957505061044c916125fa565b6117f281610172565b6008810361180557505061047e916125fa565b6118128195929495610172565b6007810361182557505061044c926125fa565b80611834600292969396610172565b036117405761041a955061043892506125fa565b90611851611217565b918251156101ec5760208301526001600160a01b0361186e612829565b16913083036118815761019e9250613138565b90823b1561015a576040516377b7543160e11b81525f80516020614496833981519152600482015260806024820152925f9284928391859183916118e791906118ce906084850190611b4a565b60016044850152838103600319016064850152906111d1565b03925af1801561041e576118f85750565b8061041261019e92610d6b565b61190d611217565b8051156101ec57611922916020820152611fa2565b60f81c90565b611930611217565b8051156101ec576112b591602082015261202f565b9061194e611217565b918251156101ec57602083015261196481610227565b60405160f89190911b6001600160f81b03191660208201526001815261198981610d9f565b6001600160a01b03611999612829565b16913083036119ac5761019e92506133c9565b90823b1561015a576040516301c85d5760e51b815264537461747360581b631d18955160e21b01600482015260a06024820152925f928492839185918391611a1691906119fd9060a4850190611b4a565b60086044850152838103600319016064850152906111d1565b6fe60d002020012020202020010101010160781b608483015203925af1801561041e576118f85750565b611a48611217565b8051156101ec576112149160208201526120c9565b611a65611217565b8051156101ec57611214916020820152612157565b611a82611217565b8051156101ec576112b59160208201526121f6565b80516020820180516001600160e01b031994939285918281169160048110611b25575b50509050611ac6611217565b8051156101ec5785611add921660208201526123ff565b505090604060208301519201518215611b0a5781516001600160e01b0316179052919250611214916126f7565b604051637eef2a7160e11b81525f3587166004820152602490fd5b8391925060040360031b1b161684905f80611aba565b9081602091031261015a575190565b9081518082526020808093019301915f5b828110611b69575050505090565b835185529381019392810192600101611b5b565b6001600160a01b03611b8d612829565b16308103611b9f57506112149061285e565b604051638c364d5960e01b815264537461747360581b631d18955160e21b0160048201526080602482015291602091839182908190611be2906084830190611b4a565b600b60448301526fe60d002020012020202020010101010160781b606483015203915afa90811561041e575f91611c17575090565b611214915060203d602011611c39575b611c318183610df0565b810190611b3b565b503d611c27565b6001600160a01b03611c50612829565b16308103611c665750611c6290613745565b5490565b604051638c364d5960e01b81525f8051602061445683398151915260048201526080602482015291602091839182908190611ca5906084830190611b4a565b5f604483015267050028010101010160bd1b606483015203915afa90811561041e575f91611c17575090565b6001600160a01b03611ce1612829565b16308103611cf35750611214906128b2565b604051638c364d5960e01b81525f8051602061445683398151915260048201526080602482015291602091839182908190611d32906084830190611b4a565b6001604483015267050028010101010160bd1b606483015203915afa90811561041e575f91611c17575090565b6001600160a01b03611d6f612829565b16308103611d815750611214906128fe565b604051638c364d5960e01b81525f8051602061445683398151915260048201526080602482015291602091839182908190611dc0906084830190611b4a565b6002604483015267050028010101010160bd1b606483015203915afa90811561041e575f91611c17575090565b6001600160a01b03611dfd612829565b16308103611e0f57506112149061294a565b604051638c364d5960e01b815264537461747360581b631d18955160e21b0160048201526080602482015291602091839182908190611e52906084830190611b4a565b600a60448301526fe60d002020012020202020010101010160781b606483015203915afa90811561041e575f91611c17575090565b6001600160a01b03611e97612829565b16308103611ea957506112149061299e565b604051638c364d5960e01b81525f8051602061449683398151915260048201526080602482015291602091839182908190611ee8906084830190611b4a565b60016044830152665504022014200160c01b606483015203915afa90811561041e575f91611c17575090565b6001600160a01b03611f24612829565b16308103611f365750611c62906137c3565b604051638c364d5960e01b81526514185d5cd95960521b631d18955160e21b0160048201526080602482015291602091839182908190611f7a906084830190611b4a565b5f6044830152630101000160d81b606483015203915afa90811561041e575f91611c17575090565b6001600160a01b03611fb2612829565b16308103611fc4575061121490612a27565b604051638c364d5960e01b81525f8051602061449683398151915260048201526080602482015291602091839182908190612003906084830190611b4a565b60036044830152665504022014200160c01b606483015203915afa90811561041e575f91611c17575090565b6001600160a01b0361203f612829565b16308103612051575061121490612a77565b604051638c364d5960e01b815264537461747360581b631d18955160e21b0160048201526080602482015291602091839182908190612094906084830190611b4a565b600860448301526fe60d002020012020202020010101010160781b606483015203915afa90811561041e575f91611c17575090565b6001600160a01b036120d9612829565b163081036120eb575061121490612acb565b604051638c364d5960e01b81525f805160206144568339815191526004820152608060248201529160209183918290819061212a906084830190611b4a565b6003604483015267050028010101010160bd1b606483015203915afa90811561041e575f91611c17575090565b6001600160a01b03612167612829565b1630810361218a575061217c61121491613745565b61218461392e565b90613967565b604051638c364d5960e01b81525f80516020614456833981519152600482015260806024820152916020918391829081906121c9906084830190611b4a565b6004604483015267050028010101010160bd1b606483015203915afa90811561041e575f91611c17575090565b6001600160a01b03612206612829565b16308103612218575061121490612b1c565b604051638c364d5960e01b815264537461747360581b631d18955160e21b016004820152608060248201529160209183918290819061225b906084830190611b4a565b600960448301526fe60d002020012020202020010101010160781b606483015203915afa90811561041e575f91611c17575090565b6001600160401b038111610d7e57601f01601f191660200190565b81601f8201121561015a5780516122c181612290565b926122cf6040519485610df0565b8184526020828401011161015a576112149160208085019101611173565b909160608284031261015a5781516001600160401b03929083811161015a57846123189183016122ab565b93602082015193604083015190811161015a5761121492016122ab565b6001600160a01b03612345612829565b1630810361235e575061235790612c24565b9192909190565b60405163419b58fd60e01b815264537461747360581b631d18955160e21b0160048201526060602482015292915f918491829081906123a1906064830190611b4a565b6fe60d002020012020202020010101010160781b604483015203915afa90811561041e575f80935f936123d5575b50929190565b919350506123f591503d805f833e6123ed8183610df0565b8101906122ed565b929092915f6123cf565b6001600160a01b0361240f612829565b16308103612421575061235790612c81565b60405163419b58fd60e01b81526f46756e6374696f6e53656c6563746f72661d189ddbdc9b1960ca1b0160048201526060602482015292915f9184918290819061246f906064830190611b4a565b64090080080160d21b604483015203915afa90811561041e575f80935f936123d55750929190565b61023b82610c8a565b6124a981610227565b60f81b9052565b600a81101561017c5760f81b9052565b9b9a999897969594939291906040519c60208e015260408d01526124e381610c8a565b60f81b60608c015260618b015260818a015260a189015260c188015260e187015261250d81610227565b60f81b6101018601526101028501612524916124a0565b6101038401612532916124a0565b6101048301612540916124b0565b151560f81b61010582015260e6815261121481610d83565b6001600160a01b03612568612829565b1630810361257b57509061019e91612d17565b90813b1561015a5760405163298314fb60e01b815264537461747360581b631d18955160e21b01600482015260a06024820152925f92849290918391859183916118e791906125e5906125d29060a4860190611b4a565b60031992838683030160448701526111d1565b90846064850152838203016084840152611194565b93919492909460405195602087015260408601526060850152608084015260a083015260a0825261262a82610dba565b612632611217565b908151156101ec5760208201526001600160a01b0361264f612829565b1630810361266257509061019e91612f44565b90813b1561015a575f916125d2836125e5936118e76040519788968795869463298314fb60e01b86526f436c6173734d756c7469706c69657273631d18955160e21b01600487015260a0602487015260a4860190611b4a565b9060208282031261015a5781516001600160401b03811161015a5761121492016122ab565b6040906112149392815281602082015201906111d1565b906001600160a01b03612708612829565b1680301461276557905f91612734938360405180968195829463075cf5e160e31b8452600484016126e0565b03925af190811561041e575f91612749575090565b61121491503d805f833e61275d8183610df0565b8101906126bb565b5061276e611275565b91612777611217565b8051156101ec578082602061278d930152612b7d565b5050906034602083015160601c92015160f81c82156127fe57156127ef575b60101b6001600160901b0319166127d5576127c692613e38565b905b156127d05790565b61359b565b906127e3916127e993613e13565b90151591565b906127c8565b6127f98482613d64565b6127ac565b5061280881613ca7565b604051637df8867360e11b815291829161282591600484016126e0565b0390fd5b7f629a4c26e296b22a8e0856e9f6ecb2d1008d7e00081111962cd175fa7488e175546001600160a01b03168061121457503390565b61286790613825565b5f80915b600b831061287d576112149250613998565b9060ff6fe60d002020012020202020010101010160781b84601b0360031b1c168101809111610fe5576001909201919061286b565b6128bb90613886565b5f80915b600183106128d1576112149250613967565b9060ff67050028010101010160bd1b84601b0360031b1c168101809111610fe557600190920191906128bf565b61290790613886565b5f80915b6002831061291d576112149250613967565b9060ff67050028010101010160bd1b84601b0360031b1c168101809111610fe5576001909201919061290b565b61295390613825565b5f80915b600a8310612969576112149250613998565b9060ff6fe60d002020012020202020010101010160781b84601b0360031b1c168101809111610fe55760019092019190612957565b6129a7906138ef565b5f905f5b600181106129fe5750818160208210156129e8575b505080548260031b1b9160200390816014116129db57505090565b600101549060031b1c1790565b90809350601f925060051c019116905f806129c0565b9160ff665504022014200160c01b84601b0360031b1c168101809111610fe557916001016129ab565b612a30906138ef565b5f9190825b600380851015612a6a57665504022014200160c01b601b86900390911b1c60ff168101908110610fe557600190930192612a35565b5090611214929350613998565b612a8090613825565b5f80915b60088310612a96576112149250613998565b9060ff6fe60d002020012020202020010101010160781b84601b0360031b1c168101809111610fe55760019092019190612a84565b612ad490613886565b5f9190825b600380851015612b0f5767050028010101010160bd1b601b86900390911b1c60ff168101908110610fe557600190930192612ad9565b5090611214929350613967565b612b2590613825565b5f80915b60098310612b3b576112149250613998565b9060ff6fe60d002020012020202020010101010160781b84601b0360031b1c168101809111610fe55760019092019190612b29565b91908201809211610fe557565b5f906060906040519060209082612b9860208201928361362d565b0392612bac601f1994858101835282610df0565b5190205f805160206143f6833981519152189160405192816054850116604052601584526020840192601591925b81831015612c0c57505080612bf0575b50505092565b5f199060031b1c908183511691199054161790525f8080612bea565b81600185839495979654875201940194019190612bda565b5f90612c31606091613904565b60405190602090601f19908161012585011660405260e68452602084019260e691925b81831015612c6957505080612bf05750505092565b81600185839495979654875201940194019190612c54565b5f906060906040519060209082612c9c602082019283613675565b0392612cb0601f1994858101835282610df0565b5190205f805160206143f6833981519152189160405192816063850116604052602484526020840192602491925b81831015612cf357505080612bf05750505092565b81600185839495979654875201940194019190612cde565b60ff1661121481610c8a565b60408051655461626c657360501b66746273746f726560c81b016020820190815264537461747360581b631d18955160e21b018284018190528383529295929491612d6181610dd5565b5190205f805160206143f6833981519152185491612d7d613fd0565b905f5b8251811015612e2657612db4612da7612d998386611252565b516001600160581b03191690565b6001600160581b03191690565b6001808260581c1614612dcb575b50600101612d80565b60601c90813b1561015a5788516315c19b2760e21b8152915f908390818381612df98c8c8f60048501613ab2565b03925af191821561041e57600192612e13575b5090612dc2565b80610412612e2092610d6b565b5f612e0c565b50945f80516020614416833981519152875180612e44868983613a76565b0390a2612e5f612e5385613904565b835160208501916140cb565b60ff808460e01c1680612f05575b50505f5b8151811015612efc57612e8a612da7612d998385611252565b6002808260581c1614612ea1575b50600101612e71565b60601c90813b1561015a578751635b28cdaf60e01b8152915f908390818381612ecf8b8b8e60048501613ab2565b03925af191821561041e57600192612ee9575b5090612e98565b80610412612ef692610d6b565b5f612ee2565b50505050509050565b5f612f0f87613eea565b555f60805b8284831610612f24575050612e6d565b600181612f3b8693612f36868d613a14565b614080565b92011690612f14565b60408051655461626c657360501b66746273746f726560c81b01602082019081525f805160206144568339815191528284018190528383529295929491612f8a81610dd5565b5190205f805160206143f6833981519152185491612fa6614024565b905f5b825181101561303457612fc2612da7612d998386611252565b6001808260581c1614612fd9575b50600101612fa9565b60601c90813b1561015a5788516315c19b2760e21b8152915f9083908183816130078c8c8f60048501613b11565b03925af191821561041e57600192613021575b5090612fd0565b8061041261302e92610d6b565b5f61301a565b50945f80516020614416833981519152875180613052868983613a76565b0390a2613061612e5385613919565b60ff808460e01c16806130fe575b50505f5b8151811015612efc5761308c612da7612d998385611252565b6002808260581c16146130a3575b50600101613073565b60601c90813b1561015a578751635b28cdaf60e01b8152915f9083908183816130d18b8b8e60048501613b11565b03925af191821561041e576001926130eb575b509061309a565b806104126130f892610d6b565b5f6130e4565b5f61310887613eff565b555f60805b828483161061311d57505061306f565b60018161312f8693612f36868d613a51565b9201169061310d565b91909161314481613ec0565b5464ffffffffff926060848360601c169161316a61316284806139c9565b885190612b70565b83811415969087806133aa575b61337e576131859086614186565b9661318e613f14565b925f5b845181101561321f576131aa612da7612d998388611252565b6010808260581c16146131c1575b50600101613191565b861c90813b1561015a575f898d938a838e6131f260405198899687958694630abd6b4560e31b865260048601613b61565b03925af191821561041e5760019261320c575b50906131b8565b8061041261321992610d6b565b5f613205565b509298939790949691965f985f995b60ff8b1660018110156132555760ff918b8b6001936028026038011c16019b01169961322e565b509692975093985093989196506040947ffe158a7adba34e256807c8a149028d3162918713c3838afc643ce9f96716ebfd85896132ba8d8b60405194859465ffffffffffff694368617261637465727360301b631d18955160e21b0199169086613bbc565b0390a261336e575b6132d4886132cf886139d6565b61420c565b5f5b8151811015613363576132ef612da7612d998385611252565b6020808260581c1614613306575b506001016132d6565b831c90813b1561015a575f878b9387838c6133368c5198899687958694636358453360e01b865260048601613b61565b03925af191821561041e57600192613350575b50906132fd565b8061041261335d92610d6b565b5f613349565b505050505050509050565b8461337887613ec0565b556132c2565b604051632994042d60e21b81525f600482015264ffffffffff8616602482018190526044820152606490fd5b50846133c26133b882613b4e565b64ffffffffff1690565b1415613177565b9190915f805b600882106135685765ffffffffffff9150166133ea82613825565b6133f2613fd0565b905f5b825181101561347f5761340e612da7612d998386611252565b9060049182808260581c161461342a575b5060019150016133f5565b60601c803b1561015a57855f9188838c966134596040519889968795869463964f667d60e01b86528501613c3a565b03925af191821561041e576001921561341f578061041261347992610d6b565b5f61341f565b506040805190969392916134db918591859164537461747360581b631d18955160e21b01907f8c0b5119d4cec7b284c6b1b39252a03d1e2f2d7451a5895562524c113bb952be90806134d387878e84613c09565b0390a261421b565b5f5b8151811015612efc576134f6612da7612d998385611252565b6008808260581c161461350d575b506001016134dd565b60601c90813b1561015a57875163a8ba872160e01b8152915f90839081838161353b8b8b8e60048501613c3a565b03925af191821561041e57600192613555575b5090613504565b8061041261356292610d6b565b5f61354e565b60ff6fe60d002020012020202020010101010160781b83601b0360031b1c168101809111610fe5576001909101906133cf565b602081519101fd5b6953746f7265486f6f6b7360301b66746273746f726560c81b01815281516020918201928201915f5b8281106135da575050505090565b8351855293810193928101926001016135cc565b5f80516020614496833981519152815281516020918201928201915f5b828110613619575050505090565b83518552938101939281019260010161360b565b6653797374656d7360481b661d189ddbdc9b1960ca1b01815281516020918201928201915f5b828110613661575050505090565b835185529381019392810192600101613653565b6f46756e6374696f6e53656c6563746f72661d189ddbdc9b1960ca1b01815281516020918201928201915f5b8281106136af575050505090565b8351855293810193928101926001016136a1565b64537461747360581b631d18955160e21b01815281516020918201928201915f5b8281106136f2575050505090565b8351855293810193928101926001016136e4565b5f80516020614456833981519152815281516020918201928201915f5b828110613731575050505090565b835185529381019392810192600101613723565b60405160208160208101936f436c6173734d756c7469706c69657273631d18955160e21b0185526040820160208251919201935f5b8281106137ac57505050613797925003601f198101835282610df0565b5190205f805160206143f68339815191521890565b85518452948101948694509281019260010161377a565b60405160208160208101936514185d5cd95960521b631d18955160e21b0185526040820160208251919201935f5b82811061380e57505050613797925003601f198101835282610df0565b8551845294810194869450928101926001016137f1565b604051602081602081019364537461747360581b631d18955160e21b0185526040820160208251919201935f5b82811061386f57505050613797925003601f198101835282610df0565b855184529481019486945092810192600101613852565b60405160208160208101936f436c6173734d756c7469706c69657273631d18955160e21b0185526040820160208251919201935f5b8281106138d857505050613797925003601f198101835282610df0565b8551845294810194869450928101926001016138bb565b604051613797816103676020820194856135ee565b604051613797816103676020820194856136c3565b60405161379781610367602082019485613706565b5f805b6004811061393d575090565b9060ff67050028010101010160bd1b83601b0360031b1c168101809111610fe55790600101613931565b602082101561398a575b80548260031b1b9160200390816020116129db57505090565b601f82169160051c01613971565b60208210156139bb575b80548260031b1b9160200390816001116129db57505090565b601f82169160051c016139a2565b91908203918211610fe557565b7f3a4102da22e32d82fc925482184f16c09fd4281692720b87d124aef6da48a0f190604051613a0d816103676020820194856135ee565b5190201890565b905f8051602061443683398151915291604051613a39816103676020820194856136c3565b51902060f89190911b6001600160f81b031916181890565b905f8051602061443683398151915291604051613a3981610367602082019485613706565b9061121492613a90613a9e92608085526080850190611b4a565b9083820360208501526111d1565b905f60408201526060818303910152611194565b64537461747360581b631d18955160e21b01815260c0602082018190529094939260a092613b0c92613af99291613aeb91890190611b4a565b9087820360408901526111d1565b5f60608701528581036080870152611194565b930152565b939291613af9613b0c91613aeb60a0946f436c6173734d756c7469706c69657273631d18955160e21b01895260c060208a015260c0890190611b4a565b9064ffffffffff809216918211610fe557565b5f80516020614496833981519152815260e060208201819052611214959394919264ffffffffff91613b969190850190611b4a565b94600160408501525f606085015216608083015260a082015260c08184039101526111d1565b919390611214959365ffffffffffff613be364ffffffffff9360c0875260c0870190611b4a565b9660016020870152166040850152166060830152608082015260a08184039101526111d1565b65ffffffffffff613c266112149593606084526060840190611b4a565b9316602082015260408184039101526111d1565b64537461747360581b631d18955160e21b018152608060208201819052611214949265ffffffffffff91613c719190840190611b4a565b9316604082015260608184039101526111d1565b60405190613c9282610d9f565b60068252651e3937b7ba1f60d11b6020830152565b608081901b6001600160801b0319169061121490602490601081901b6001600160901b03191680613d555750613cdb613c85565b935b80613d475750613ceb613c85565b60405194859261ffff60f01b166020840152601d60f91b90816022850152613d1d815180926020602388019101611173565b8301906023820152613d388251809360208785019101611173565b01036004810184520182610df0565b613d509061422c565b613ceb565b613d5e9061422c565b93613cdd565b613d8182600160801b600160f01b038316616e7360f01b1761431f565b8015613dd4575b15613d91575050565b90613d9e613dc092613ca7565b9060405192839263d787b73760e01b84526040600485015260448401906111d1565b6001600160a01b0390911660248301520390fd5b50613ddf828261431f565b613d88565b3d15613e0e573d90613df582612290565b91613e036040519384610df0565b82523d5f602084013e565b606090565b90613e215f93928493614285565b9082602083519301915af1613e34613de4565b9091565b90613e465f93928493614285565b90602082519201905af4613e34613de4565b60408051601f19603f85830101811690925283815292602080850193925b81831015613ea857505080613e8c575b50505090565b5f199060031b1c908183511691199054161790525f8080613e86565b81600185839495979654875201940194019190613e76565b604051613ed5816103676020820194856135ee565b5190205f805160206144768339815191521890565b604051613ed5816103676020820194856136c3565b604051613ed581610367602082019485613706565b613f1c611217565b8051156101ec57613fb961121491694368617261637465727360301b631d18955160e21b01602082015264ffffffffff604051915f805160206144368339815191526020840184613f6d84836135a3565b0394613f81601f1996878101835282610df0565b5190201892613f9c6040519182610a496020820195866135a3565b5190205f80516020614476833981519152185460381c1690613e58565b602060018060801b03825116910160801b176142cd565b613fd8611217565b8051156101ec57613fb96112149164537461747360581b631d18955160e21b01602082015264ffffffffff604051915f805160206144368339815191526020840184613f6d84836135a3565b61402c611217565b8051156101ec57613fb9611214916f436c6173734d756c7469706c69657273631d18955160e21b01602082015264ffffffffff604051915f805160206144368339815191526020840184613f6d84836135a3565b9190915f905b6020908183106140a65784518155930192601f1990910190600101614086565b9293919050806140b557505050565b5f199060031b1c90818354169119905116179055565b9291926020908183106140a65784518155930192601f1990910190600101614086565b90939291938061411d575b509290926020908183106140a65784518155930192601f1990910190600101614086565b6020811015614176575b80156140f95791939082602003908360031b5f198460031b1c19811c908751901c90801983541691161781558183111561416e57600101940191601f19910101925f6140f9565b505050509050565b90601f908260051c019116614127565b64ffffffffff8083116141f35766ffffffffffffff821690606083901c16838181106141e9570301915b64ffffffffff60601b60609190911b1664ffffffffff60601b1992909216600169ffffffffff000000000160381b031991909116171790565b90039003916141b0565b604051637149a3c160e01b815260048101849052602490fd5b815161019e92602001916140cb565b825161019e936020019290916140ee565b5f5b60108110614258575b6040516001600160801b03199092166020830152601082526115c582610d9f565b6001600160801b03198216600382901b1b6001600160f81b031916156142805760010161422e565b614237565b60546112149160405193816142a4869351809260208087019101611173565b82019060018060601b03199060601b1660208201525f6034820152036034810184520182610df0565b8060801c906015809160018060801b031604604051926020906020850160208460051b8701016040528386525f5b84811061430b5750505050505090565b8251825291850191908301906001016142fb565b6040519061432c82610dd5565b60028252602092602083019160403684378351156101ec578252825190600191600110156101ec576001600160a01b031660408085019190915280516f5265736f757263654163636573730000661d189ddbdc9b1960ca1b0160208201908152945194959094918501939291905f5b8281106143e257505050505091816143c2611922936112149503601f198101835282610df0565b5190205f805160206143f683398151915218546001600160f81b03191690565b845186529481019493810193830161439b56fe86425bff6b57326c7859e89024fe4f238ca327a1ae4a230180dd2f0e88aaa7d98dbb3a9672eebfd3773e72dd9c102393436816d832c7ba9e1e1ac8fcadcac7a93b4102da22e32d82fc925482184f16c09fd4281692720b87d124aef6da48a0f174625544000000000000000000000000436c6173734d756c7469706c6965727314e2fcc58e58e68ec7edc30c8d50dccc3ce2714a623ec81f46b6a63922d765697462554400000000000000000000000043686172616374657273000000000000","linkReferences":{}},"methodIdentifiers":{"_msgSender()":"119df25f","_msgValue()":"45ec9354","_world()":"e1af802c","choosePowerSource(bytes32,uint8)":"48b027f3","chooseRace(bytes32,uint8)":"9cca06ef","chooseStartingArmor(bytes32,uint8)":"7c636426","getAdvancedClass(bytes32)":"0797e03e","getAvailableClasses()":"526e2f47","getClassMultipliers(bytes32)":"5932023c","getPowerSource(bytes32)":"c75fadf2","getRace(bytes32)":"f70125db","getStartingArmor(bytes32)":"2dfb78cd","rollBaseStats(bytes32,bytes32)":"aa8659e4","selectAdvancedClass(bytes32,uint8)":"3493289b","supportsInterface(bytes4)":"01ffc9a7"},"id":366}