{"abi":[{"type":"function","name":"_msgSender","inputs":[],"outputs":[{"name":"sender","type":"address","internalType":"address"}],"stateMutability":"view"},{"type":"function","name":"_msgValue","inputs":[],"outputs":[{"name":"value","type":"uint256","internalType":"uint256"}],"stateMutability":"view"},{"type":"function","name":"_world","inputs":[],"outputs":[{"name":"","type":"address","internalType":"address"}],"stateMutability":"view"},{"type":"function","name":"choosePowerSource","inputs":[{"name":"characterId","type":"bytes32","internalType":"bytes32"},{"name":"powerSource","type":"uint8","internalType":"enum PowerSource"}],"outputs":[],"stateMutability":"nonpayable"},{"type":"function","name":"chooseRace","inputs":[{"name":"characterId","type":"bytes32","internalType":"bytes32"},{"name":"race","type":"uint8","internalType":"enum Race"}],"outputs":[],"stateMutability":"nonpayable"},{"type":"function","name":"chooseStartingArmor","inputs":[{"name":"characterId","type":"bytes32","internalType":"bytes32"},{"name":"armorType","type":"uint8","internalType":"enum ArmorType"}],"outputs":[],"stateMutability":"nonpayable"},{"type":"function","name":"getAdvancedClass","inputs":[{"name":"characterId","type":"bytes32","internalType":"bytes32"}],"outputs":[{"name":"","type":"uint8","internalType":"enum AdvancedClass"}],"stateMutability":"view"},{"type":"function","name":"getAvailableClasses","inputs":[],"outputs":[{"name":"","type":"uint8[9]","internalType":"enum AdvancedClass[9]"}],"stateMutability":"pure"},{"type":"function","name":"getClassMultipliers","inputs":[{"name":"characterId","type":"bytes32","internalType":"bytes32"}],"outputs":[{"name":"physical","type":"uint256","internalType":"uint256"},{"name":"spell","type":"uint256","internalType":"uint256"},{"name":"healing","type":"uint256","internalType":"uint256"},{"name":"crit","type":"uint256","internalType":"uint256"},{"name":"maxHp","type":"uint256","internalType":"uint256"}],"stateMutability":"view"},{"type":"function","name":"getPowerSource","inputs":[{"name":"characterId","type":"bytes32","internalType":"bytes32"}],"outputs":[{"name":"","type":"uint8","internalType":"enum PowerSource"}],"stateMutability":"view"},{"type":"function","name":"getRace","inputs":[{"name":"characterId","type":"bytes32","internalType":"bytes32"}],"outputs":[{"name":"","type":"uint8","internalType":"enum Race"}],"stateMutability":"view"},{"type":"function","name":"getStartingArmor","inputs":[{"name":"characterId","type":"bytes32","internalType":"bytes32"}],"outputs":[{"name":"","type":"uint8","internalType":"enum ArmorType"}],"stateMutability":"view"},{"type":"function","name":"rollBaseStats","inputs":[{"name":"userRandomNumber","type":"bytes32","internalType":"bytes32"},{"name":"characterId","type":"bytes32","internalType":"bytes32"}],"outputs":[],"stateMutability":"payable"},{"type":"function","name":"selectAdvancedClass","inputs":[{"name":"characterId","type":"bytes32","internalType":"bytes32"},{"name":"advancedClass","type":"uint8","internalType":"enum AdvancedClass"}],"outputs":[],"stateMutability":"nonpayable"},{"type":"function","name":"supportsInterface","inputs":[{"name":"interfaceId","type":"bytes4","internalType":"bytes4"}],"outputs":[{"name":"","type":"bool","internalType":"bool"}],"stateMutability":"pure"},{"type":"event","name":"AdvancedClassSelected","inputs":[{"name":"characterId","type":"bytes32","indexed":true,"internalType":"bytes32"},{"name":"advancedClass","type":"uint8","indexed":false,"internalType":"enum AdvancedClass"}],"anonymous":false},{"type":"event","name":"ArmorTypeSelected","inputs":[{"name":"characterId","type":"bytes32","indexed":true,"internalType":"bytes32"},{"name":"armorType","type":"uint8","indexed":false,"internalType":"enum ArmorType"}],"anonymous":false},{"type":"event","name":"PowerSourceSelected","inputs":[{"name":"characterId","type":"bytes32","indexed":true,"internalType":"bytes32"},{"name":"powerSource","type":"uint8","indexed":false,"internalType":"enum PowerSource"}],"anonymous":false},{"type":"event","name":"RaceSelected","inputs":[{"name":"characterId","type":"bytes32","indexed":true,"internalType":"bytes32"},{"name":"race","type":"uint8","indexed":false,"internalType":"enum Race"}],"anonymous":false},{"type":"event","name":"Store_SetRecord","inputs":[{"name":"tableId","type":"bytes32","indexed":true,"internalType":"ResourceId"},{"name":"keyTuple","type":"bytes32[]","indexed":false,"internalType":"bytes32[]"},{"name":"staticData","type":"bytes","indexed":false,"internalType":"bytes"},{"name":"encodedLengths","type":"bytes32","indexed":false,"internalType":"EncodedLengths"},{"name":"dynamicData","type":"bytes","indexed":false,"internalType":"bytes"}],"anonymous":false},{"type":"event","name":"Store_SpliceDynamicData","inputs":[{"name":"tableId","type":"bytes32","indexed":true,"internalType":"ResourceId"},{"name":"keyTuple","type":"bytes32[]","indexed":false,"internalType":"bytes32[]"},{"name":"dynamicFieldIndex","type":"uint8","indexed":false,"internalType":"uint8"},{"name":"start","type":"uint48","indexed":false,"internalType":"uint48"},{"name":"deleteCount","type":"uint40","indexed":false,"internalType":"uint40"},{"name":"encodedLengths","type":"bytes32","indexed":false,"internalType":"EncodedLengths"},{"name":"data","type":"bytes","indexed":false,"internalType":"bytes"}],"anonymous":false},{"type":"event","name":"Store_SpliceStaticData","inputs":[{"name":"tableId","type":"bytes32","indexed":true,"internalType":"ResourceId"},{"name":"keyTuple","type":"bytes32[]","indexed":false,"internalType":"bytes32[]"},{"name":"start","type":"uint48","indexed":false,"internalType":"uint48"},{"name":"data","type":"bytes","indexed":false,"internalType":"bytes"}],"anonymous":false},{"type":"error","name":"AdvancedClassAlreadySet","inputs":[]},{"type":"error","name":"ArmorAlreadySet","inputs":[]},{"type":"error","name":"CharacterLocked","inputs":[]},{"type":"error","name":"EncodedLengths_InvalidLength","inputs":[{"name":"length","type":"uint256","internalType":"uint256"}]},{"type":"error","name":"GamePaused","inputs":[]},{"type":"error","name":"InvalidAdvancedClass","inputs":[]},{"type":"error","name":"InvalidArmorType","inputs":[]},{"type":"error","name":"InvalidPowerSource","inputs":[]},{"type":"error","name":"InvalidRace","inputs":[]},{"type":"error","name":"MustChoosePowerSourceFirst","inputs":[]},{"type":"error","name":"MustChooseRaceFirst","inputs":[]},{"type":"error","name":"PowerSourceAlreadySet","inputs":[]},{"type":"error","name":"RaceAlreadySet","inputs":[]},{"type":"error","name":"RequiresLevel10","inputs":[]},{"type":"error","name":"Slice_OutOfBounds","inputs":[{"name":"data","type":"bytes","internalType":"bytes"},{"name":"start","type":"uint256","internalType":"uint256"},{"name":"end","type":"uint256","internalType":"uint256"}]},{"type":"error","name":"Store_IndexOutOfBounds","inputs":[{"name":"length","type":"uint256","internalType":"uint256"},{"name":"accessedIndex","type":"uint256","internalType":"uint256"}]},{"type":"error","name":"Store_InvalidResourceType","inputs":[{"name":"expected","type":"bytes2","internalType":"bytes2"},{"name":"resourceId","type":"bytes32","internalType":"ResourceId"},{"name":"resourceIdString","type":"string","internalType":"string"}]},{"type":"error","name":"Store_InvalidSplice","inputs":[{"name":"startWithinField","type":"uint40","internalType":"uint40"},{"name":"deleteCount","type":"uint40","internalType":"uint40"},{"name":"fieldLength","type":"uint40","internalType":"uint40"}]},{"type":"error","name":"Unauthorized","inputs":[]},{"type":"error","name":"World_AccessDenied","inputs":[{"name":"resource","type":"string","internalType":"string"},{"name":"caller","type":"address","internalType":"address"}]},{"type":"error","name":"World_FunctionSelectorNotFound","inputs":[{"name":"functionSelector","type":"bytes4","internalType":"bytes4"}]},{"type":"error","name":"World_ResourceNotFound","inputs":[{"name":"resourceId","type":"bytes32","internalType":"ResourceId"},{"name":"resourceIdString","type":"string","internalType":"string"}]}],"bytecode":{"object":"0x60808060405234610016576141a7908161001b8239f35b5f80fdfe60806040526004361015610011575f80fd5b5f3560e01c806301ffc9a7146101045780630797e03e146100ff578063119df25f146100fa5780632dfb78cd146100f55780633493289b146100f057806345ec9354146100eb57806348b027f3146100e6578063526e2f47146100e15780635932023c146100dc5780637c636426146100d75780639cca06ef146100d2578063aa8659e4146100cd578063c75fadf2146100c8578063e1af802c146100c35763f70125db146100be575f80fd5b610b58565b610b3e565b610b20565b610a05565b61085d565b6106ce565b61061c565b61059e565b610472565b610449565b61027d565b61024e565b6101fb565b6101a0565b3461015a57602036600319011261015a5760043563ffffffff60e01b811680910361015a5760209063b5dee12760e01b8114908115610149575b506040519015158152f35b6301ffc9a760e01b1490505f61013e565b5f80fd5b634e487b7160e01b5f52602160045260245ffd5b600a111561017c57565b61015e565b90600a82101561017c5752565b60208101929161019e9190610181565b565b3461015a57602036600319011261015a576101b9610e8f565b8051156101ec576101dd6101d5602092600435848201526117f5565b60f81c610ede565b6101ea6040518092610181565bf35b610ea9565b5f91031261015a57565b3461015a575f36600319011261015a576020610215610eed565b6040516001600160a01b039091168152f35b6004111561017c57565b9061023b82610227565b52565b9190602083019261023b82610227565b3461015a57602036600319011261015a57602061026c600435610f10565b6040519061027981610227565b8152f35b3461015a5760408060031936011261015a576004803591602435600a81101561015a576102a984610f39565b6001600160a01b03806102ba610eed565b1691160361043c576102ca610f5c565b6102d384611014565b600a60e08201511061042d57610180906102ef82820151151590565b61041d576102fc83610172565b821561040d5761036061036692610330610319866103529561115a565b91610328876101608501610b76565b820160019052565b61033a81896112ed565b6103448589611391565b855192839160208301610b96565b03601f198101835282610ce8565b856114c0565b6103806103746103746124a1565b6001600160a01b031690565b803b1561015a57815f9186836103a99787519889958694859362954a8360e51b85528401610d0b565b03925af1918215610408577fecf83d41266c4a6a02db7466dd117dc3a6f136389ce0e3a31b7fa9d88d4bf2a8936103ea936103ef575b50519182918261018e565b0390a2005b806103fc61040292610c63565b806101f1565b5f6103df565b610d21565b505050516355cba81760e11b8152fd5b5050505163c62a04a760e01b8152fd5b50505163cbeca0ab60e01b8152fd5b50516282b42960e81b8152fd5b3461015a575f36600319011261015a576020604051601f193601358152f35b6004111561015a57565b3461015a5760408060031936011261015a57600435906024359061049582610468565b61049e83610f39565b6001600160a01b03806104af610eed565b1691160361055b576104bf610f5c565b6104c88361157d565b61054b576104d582610227565b811561053b576104e4836115a0565b6104ed81610227565b61052b57816103ea916105217f3ba9703e1cdcf3251b59516b5c202eba12dd4efcbaacaac50b37094bb160369e94866115bd565b519182918261023e565b5163b347e4e560e01b8152600490fd5b51637be18b8d60e11b8152600490fd5b5163130fd36b60e11b8152600490fd5b516282b42960e81b8152600490fd5b610120810192915f915b6009831061058157505050565b8061058f6001928451610181565b92019160209182019101610574565b3461015a575f36600319011261015a576101206040516105bd81610c7b565b3690376106186040516105cf81610c7b565b6003815260016020820152600660408201526009606082015260046080820152600560a0820152600860c0820152600760e082015260026101008201526040519182918261056a565b0390f35b3461015a57602036600319011261015a57600435610638610e8f565b8051156101ec578082602061064e9301526118b8565b610656610e8f565b8051156101ec578083602061066c930152611949565b91610675610e8f565b908151156101ec5761068f828260206106189501526119d7565b906106a261069c826116b8565b916116d5565b91604051958695869192608093969594919660a084019784526020840152604083015260608201520152565b3461015a5760408060031936011261015a5760043590602435906106f182610468565b6106fa83610f39565b6001600160a01b038061070b610eed565b1691160361055b5761071c8361157d565b61054b5761072982610227565b811561084d5761073883610f10565b61074181610227565b61083d577f7f9cbab4e73821b798dfa4e2400bec208cb7586b4087ede564dcccc0d52c2f66916103ea9161052161077786611014565b610785846101408301610d2c565b61078e84610227565b600184036107c957606081016107a48151610d49565b9052602081016107b48151610d6a565b90526107c08151610dda565b81525b866112ed565b6107d284610227565b600284036107fb57602081016107e88151610d49565b90526107f48151610d6a565b81526107c3565b61080484610227565b600384036107c3576108168151610d49565b8152608081016108268151610d6a565b9052602081016108368151610dda565b90526107c3565b51630f121ae560e21b8152600490fd5b5163071b98e760e41b8152600490fd5b3461015a5760408060031936011261015a57600435906024359061088082610468565b61088983610f39565b6001600160a01b038061089a610eed565b1691160361055b576108aa610f5c565b6108b38361157d565b61054b576108c082610227565b81156109f5576108cf836116f2565b6108d881610227565b6109e5577f1a3c12ae7b2d1c5d4fded6bfa2710975f8543787e0d0eb52cff1f1d86125bec6916103ea9161052161090e86611014565b61091c846101208301610d2c565b61092584610227565b6003840361095f576109378151610d49565b8152602081016109478151610dda565b9052608081016109578151610d6a565b9052866112ed565b61096884610227565b600284036109aa576020810161097e8151610d49565b90526060810161098e8151610d6a565b905261099a8151610dda565b8152608081016108368151610dda565b6109b384610227565b600184036107c3576109c58151610d6a565b8152602081016109d58151610d6a565b9052606081016108368151610d6a565b5163dc37ef0160e01b8152600490fd5b516342e6ce2560e01b8152600490fd5b60408060031936011261015a57602435610a1e81610f39565b6001600160a01b0380610a2f610eed565b16911603610b1057610a3f610f5c565b610a488161157d565b610aff57610a55816116f2565b610a5e81610227565b15610aee57610a6c816115a0565b610a7581610227565b15610add578151602081019190915260016040808301919091528152610adb91610aca91610ad691601f199190610aad606083610ce8565b51632caa982960e21b602082015293849160043560248401610e6e565b03908101835282610ce8565b61170f565b005b8151633746994760e01b8152600490fd5b81516368662dd560e11b8152600490fd5b815163130fd36b60e11b8152600490fd5b81516282b42960e81b8152600490fd5b3461015a57602036600319011261015a57602061026c6004356115a0565b3461015a575f36600319011261015a5760206102156124a1565b3461015a57602036600319011261015a57602061026c6004356116f2565b600a82101561017c5752565b6003111561017c57565b9061023b82610b82565b61019e909291926101a08101938051825260208101516020830152610bc360408201516040840190610b8c565b606081015160608301526080810151608083015260a081015160a083015260c081015160c083015260e081015160e0830152610c086101008083015190840190610231565b610c1b6101208083015190840190610231565b610c2e6101408083015190840190610231565b610c416101608083015190840190610181565b610180908101511515910152565b634e487b7160e01b5f52604160045260245ffd5b6001600160401b038111610c7657604052565b610c4f565b61012081019081106001600160401b03821117610c7657604052565b604081019081106001600160401b03821117610c7657604052565b60c081019081106001600160401b03821117610c7657604052565b606081019081106001600160401b03821117610c7657604052565b601f909101601f19168101906001600160401b03821190821017610c7657604052565b90815260408101929161019e9160200190610181565b6040513d5f823e3d90fd5b61023b82610227565b634e487b7160e01b5f52601160045260245ffd5b9060028201915f600284129112908015821691151617610d6557565b610d35565b9060018201915f600184129112908015821691151617610d6557565b90600a8201915f600a84129112908015821691151617610d6557565b9060038201915f600384129112908015821691151617610d6557565b90600f8201915f600f84129112908015821691151617610d6557565b905f198201918213600116610d6557565b5f5b838110610dfc5750505f910152565b8181015183820152602001610ded565b90606051918281525f5b838110610e355750825f602080949584010152601f8019910116010190565b806020916080015182828501015201610e16565b90602091610e6281518092818552858086019101610deb565b601f01601f1916010190565b606090610e8c93928152600160208201528160408201520190610e49565b90565b60405190610e9c82610c97565b6001825260203681840137565b634e487b7160e01b5f52603260045260245ffd5b8051156101ec5760200190565b80518210156101ec5760209160051b010190565b60ff16600a81101561017c5790565b36603319013560601c908115610eff57565b339150565b60ff16610e8c81610227565b610f18610e8f565b8051156101ec57610f2d916020820152611a65565b60f81c610e8c81610227565b610f41610e8f565b8051156101ec57610f56916020820152611aff565b60601c90565b60405160208101906001600160401b03821181831017610c7657610f89916040525f81525f368137611b8c565b60f81c610f9257565b60405163379a7ed960e01b8152600490fd5b604051906101a082016001600160401b03811183821017610c76576040525f610180838281528260208201528260408201528260608201528260808201528260a08201528260c08201528260e0820152826101008201528261012082015282610140820152826101608201520152565b61101c610fa4565b50611025610e8f565b8051156101ec5761103a916020820152611fad565b5050611044610fa4565b9060208101519061115060408201519161106a611065606083015160f81c90565b612983565b9060618101519060818101519060a18101519060c18101519061112e8a61112460e1840151936101206110aa6110a561010184015160f81c90565b610f04565b9361111e6110c06110a561010286015160f81c90565b936111146110d66110a561010384015160f81c90565b9161110a6111006101056110f76110f261010486015160f81c90565b610ede565b93015160f81c90565b1515610180870152565b6101608501610b76565b6101408301610d2c565b01610d2c565b6101008c01610d2c565b60e08a015260c089015260a0880152608087015260608601526040850161210f565b6020830152815290565b90611163610fa4565b5061116d81610172565b6003810361119557506111808151610da2565b8152608081016111908151610d86565b905290565b61119e81610172565b600181036111c157506111b18151610d49565b8152608081016111908151610dbe565b6111ca81610172565b600681036111e15750602081016111908151610da2565b6111ea81610172565b600981036112115750602081016112018151610d49565b9052606081016111908151610d6a565b61121a81610172565b600481036112425750602081016112318151610d49565b905261123d8151610d49565b815290565b61124b81610172565b600581036112725750602081016112628151610d49565b9052606081016111908151610d49565b61127b81610172565b600881036112925750606081016111908151610da2565b61129b81610172565b600781036112c25750606081016112b28151610d49565b9052608081016111908151610d86565b806112ce600292610172565b03610e8c576112dd8151610d49565b8152606081016111908151610d49565b61137861019e9261136b8151916020810151604082015161130d81610b82565b6060830151608084015160a085015160c08601519160e0870151936101008801519561133887610227565b6101208901519761134889610227565b6113726101806101408c01519b61135e8d610227565b6101608101519d8e610172565b0151151590565b9b612138565b90611381610e8f565b9061138b82610ebd565b526121d0565b9061019e916103e8908182918380956113a981610172565b600381036113bd57505061044c905b612272565b6113c981959395610172565b600181036113de5750505061041a8092612272565b6113ea81959395610172565b600681036113fd57505061044c90612272565b61140a8196929396610172565b6009810361141d57505061047e93612272565b61142b819794929697610172565b60048103611442575050505061041a808094612272565b61144e81979497610172565b600581036114615750506104b091612272565b61146a81610172565b6008810361147d5750506104e291612272565b61148a8195929495610172565b6007810361149d57505061044c92612272565b806114ac600292969396610172565b036113b85761041a955061047e9250612272565b906114c9610e8f565b918251156101ec5760208301526001600160a01b036114e66124a1565b16913083036114f95761019e9250612db0565b90823b1561015a576040516377b7543160e11b81525f80516020614187833981519152600482015260806024820152925f92849283918591839161155f91906115469060848501906117c2565b6001604485015283810360031901606485015290610e49565b03925af18015610408576115705750565b806103fc61019e92610c63565b611585610e8f565b8051156101ec5761159a916020820152611c1a565b60f81c90565b6115a8610e8f565b8051156101ec57610f2d916020820152611ca7565b906115c6610e8f565b918251156101ec5760208301526115dc81610227565b60405160f89190911b6001600160f81b03191660208201526001815261160181610c97565b6001600160a01b036116116124a1565b16913083036116245761019e9250613041565b90823b1561015a576040516301c85d5760e51b815264537461747360581b631d18955160e21b01600482015260a06024820152925f92849283918591839161168e91906116759060a48501906117c2565b6008604485015283810360031901606485015290610e49565b6fe60d002020012020202020010101010160781b608483015203925af18015610408576115705750565b6116c0610e8f565b8051156101ec57610e8c916020820152611d41565b6116dd610e8f565b8051156101ec57610e8c916020820152611dcf565b6116fa610e8f565b8051156101ec57610f2d916020820152611e6e565b80516020820180516001600160e01b03199493928591828116916004811061179d575b5050905061173e610e8f565b8051156101ec578561175592166020820152612077565b5050906040602083015192015182156117825781516001600160e01b0316179052919250610e8c9161236f565b604051637eef2a7160e11b81525f3587166004820152602490fd5b8391925060040360031b1b161684905f80611732565b9081602091031261015a575190565b9081518082526020808093019301915f5b8281106117e1575050505090565b8351855293810193928101926001016117d3565b6001600160a01b036118056124a1565b163081036118175750610e8c906124d6565b604051638c364d5960e01b815264537461747360581b631d18955160e21b016004820152608060248201529160209183918290819061185a9060848301906117c2565b600b60448301526fe60d002020012020202020010101010160781b606483015203915afa908115610408575f9161188f575090565b610e8c915060203d6020116118b1575b6118a98183610ce8565b8101906117b3565b503d61189f565b6001600160a01b036118c86124a1565b163081036118de57506118da906133bd565b5490565b604051638c364d5960e01b81525f805160206141478339815191526004820152608060248201529160209183918290819061191d9060848301906117c2565b5f604483015267050028010101010160bd1b606483015203915afa908115610408575f9161188f575090565b6001600160a01b036119596124a1565b1630810361196b5750610e8c9061252a565b604051638c364d5960e01b81525f80516020614147833981519152600482015260806024820152916020918391829081906119aa9060848301906117c2565b6001604483015267050028010101010160bd1b606483015203915afa908115610408575f9161188f575090565b6001600160a01b036119e76124a1565b163081036119f95750610e8c90612576565b604051638c364d5960e01b81525f8051602061414783398151915260048201526080602482015291602091839182908190611a389060848301906117c2565b6002604483015267050028010101010160bd1b606483015203915afa908115610408575f9161188f575090565b6001600160a01b03611a756124a1565b16308103611a875750610e8c906125c2565b604051638c364d5960e01b815264537461747360581b631d18955160e21b0160048201526080602482015291602091839182908190611aca9060848301906117c2565b600a60448301526fe60d002020012020202020010101010160781b606483015203915afa908115610408575f9161188f575090565b6001600160a01b03611b0f6124a1565b16308103611b215750610e8c90612616565b604051638c364d5960e01b81525f8051602061418783398151915260048201526080602482015291602091839182908190611b609060848301906117c2565b60016044830152665504022014200160c01b606483015203915afa908115610408575f9161188f575090565b6001600160a01b03611b9c6124a1565b16308103611bae57506118da9061343b565b604051638c364d5960e01b81526514185d5cd95960521b631d18955160e21b0160048201526080602482015291602091839182908190611bf29060848301906117c2565b5f6044830152630101000160d81b606483015203915afa908115610408575f9161188f575090565b6001600160a01b03611c2a6124a1565b16308103611c3c5750610e8c9061269f565b604051638c364d5960e01b81525f8051602061418783398151915260048201526080602482015291602091839182908190611c7b9060848301906117c2565b60036044830152665504022014200160c01b606483015203915afa908115610408575f9161188f575090565b6001600160a01b03611cb76124a1565b16308103611cc95750610e8c906126ef565b604051638c364d5960e01b815264537461747360581b631d18955160e21b0160048201526080602482015291602091839182908190611d0c9060848301906117c2565b600860448301526fe60d002020012020202020010101010160781b606483015203915afa908115610408575f9161188f575090565b6001600160a01b03611d516124a1565b16308103611d635750610e8c90612743565b604051638c364d5960e01b81525f8051602061414783398151915260048201526080602482015291602091839182908190611da29060848301906117c2565b6003604483015267050028010101010160bd1b606483015203915afa908115610408575f9161188f575090565b6001600160a01b03611ddf6124a1565b16308103611e025750611df4610e8c916133bd565b611dfc6135f7565b90613630565b604051638c364d5960e01b81525f8051602061414783398151915260048201526080602482015291602091839182908190611e419060848301906117c2565b6004604483015267050028010101010160bd1b606483015203915afa908115610408575f9161188f575090565b6001600160a01b03611e7e6124a1565b16308103611e905750610e8c90612794565b604051638c364d5960e01b815264537461747360581b631d18955160e21b0160048201526080602482015291602091839182908190611ed39060848301906117c2565b600960448301526fe60d002020012020202020010101010160781b606483015203915afa908115610408575f9161188f575090565b6001600160401b038111610c7657601f01601f191660200190565b81601f8201121561015a578051611f3981611f08565b92611f476040519485610ce8565b8184526020828401011161015a57610e8c9160208085019101610deb565b909160608284031261015a5781516001600160401b03929083811161015a5784611f90918301611f23565b93602082015193604083015190811161015a57610e8c9201611f23565b6001600160a01b03611fbd6124a1565b16308103611fd65750611fcf9061289c565b9192909190565b60405163419b58fd60e01b815264537461747360581b631d18955160e21b0160048201526060602482015292915f918491829081906120199060648301906117c2565b6fe60d002020012020202020010101010160781b604483015203915afa908115610408575f80935f9361204d575b50929190565b9193505061206d91503d805f833e6120658183610ce8565b810190611f65565b929092915f612047565b6001600160a01b036120876124a1565b163081036120995750611fcf906128f9565b60405163419b58fd60e01b81526f46756e6374696f6e53656c6563746f72661d189ddbdc9b1960ca1b0160048201526060602482015292915f918491829081906120e79060648301906117c2565b64090080080160d21b604483015203915afa908115610408575f80935f9361204d5750929190565b61023b82610b82565b61212181610227565b60f81b9052565b600a81101561017c5760f81b9052565b9b9a999897969594939291906040519c60208e015260408d015261215b81610b82565b60f81b60608c015260618b015260818a015260a189015260c188015260e187015261218581610227565b60f81b610101860152610102850161219c91612118565b61010384016121aa91612118565b61010483016121b891612128565b151560f81b61010582015260e68152610e8c81610c7b565b6001600160a01b036121e06124a1565b163081036121f357509061019e9161298f565b90813b1561015a5760405163298314fb60e01b815264537461747360581b631d18955160e21b01600482015260a06024820152925f928492909183918591839161155f919061225d9061224a9060a48601906117c2565b6003199283868303016044870152610e49565b90846064850152838203016084840152610e0c565b93919492909460405195602087015260408601526060850152608084015260a083015260a082526122a282610cb2565b6122aa610e8f565b908151156101ec5760208201526001600160a01b036122c76124a1565b163081036122da57509061019e91612bbc565b90813b1561015a575f9161224a8361225d9361155f6040519788968795869463298314fb60e01b86526f436c6173734d756c7469706c69657273631d18955160e21b01600487015260a0602487015260a48601906117c2565b9060208282031261015a5781516001600160401b03811161015a57610e8c9201611f23565b604090610e8c939281528160208201520190610e49565b906001600160a01b036123806124a1565b168030146123dd57905f916123ac938360405180968195829463075cf5e160e31b845260048401612358565b03925af1908115610408575f916123c1575090565b610e8c91503d805f833e6123d58183610ce8565b810190612333565b506123e6610eed565b916123ef610e8f565b8051156101ec57808260206124059301526127f5565b5050906034602083015160601c92015160f81c82156124765715612467575b60101b6001600160901b03191661244d5761243e92613b01565b905b156124485790565b613213565b9061245b9161246193613adc565b90151591565b90612440565b6124718482613a2d565b612424565b5061248081613970565b604051637df8867360e11b815291829161249d9160048401612358565b0390fd5b7f629a4c26e296b22a8e0856e9f6ecb2d1008d7e00081111962cd175fa7488e175546001600160a01b031680610e8c57503390565b6124df9061349d565b5f80915b600b83106124f557610e8c9250613661565b9060ff6fe60d002020012020202020010101010160781b84601b0360031b1c168101809111610d6557600190920191906124e3565b612533906134fe565b5f80915b6001831061254957610e8c9250613630565b9060ff67050028010101010160bd1b84601b0360031b1c168101809111610d655760019092019190612537565b61257f906134fe565b5f80915b6002831061259557610e8c9250613630565b9060ff67050028010101010160bd1b84601b0360031b1c168101809111610d655760019092019190612583565b6125cb9061349d565b5f80915b600a83106125e157610e8c9250613661565b9060ff6fe60d002020012020202020010101010160781b84601b0360031b1c168101809111610d6557600190920191906125cf565b61261f90613567565b5f905f5b60018110612676575081816020821015612660575b505080548260031b1b91602003908160141161265357505090565b600101549060031b1c1790565b90809350601f925060051c019116905f80612638565b9160ff665504022014200160c01b84601b0360031b1c168101809111610d655791600101612623565b6126a890613567565b5f9190825b6003808510156126e257665504022014200160c01b601b86900390911b1c60ff168101908110610d65576001909301926126ad565b5090610e8c929350613661565b6126f89061349d565b5f80915b6008831061270e57610e8c9250613661565b9060ff6fe60d002020012020202020010101010160781b84601b0360031b1c168101809111610d6557600190920191906126fc565b61274c906134fe565b5f9190825b6003808510156127875767050028010101010160bd1b601b86900390911b1c60ff168101908110610d6557600190930192612751565b5090610e8c929350613630565b61279d9061349d565b5f80915b600983106127b357610e8c9250613661565b9060ff6fe60d002020012020202020010101010160781b84601b0360031b1c168101809111610d6557600190920191906127a1565b91908201809211610d6557565b5f9060609060405190602090826128106020820192836132a5565b0392612824601f1994858101835282610ce8565b5190205f805160206140e7833981519152189160405192816054850116604052601584526020840192601591925b8183101561288457505080612868575b50505092565b5f199060031b1c908183511691199054161790525f8080612862565b81600185839495979654875201940194019190612852565b5f906128a96060916135cd565b60405190602090601f19908161012585011660405260e68452602084019260e691925b818310156128e1575050806128685750505092565b816001858394959796548752019401940191906128cc565b5f9060609060405190602090826129146020820192836132ed565b0392612928601f1994858101835282610ce8565b5190205f805160206140e7833981519152189160405192816063850116604052602484526020840192602491925b8183101561296b575050806128685750505092565b81600185839495979654875201940194019190612956565b60ff16610e8c81610b82565b60408051655461626c657360501b66746273746f726560c81b016020820190815264537461747360581b631d18955160e21b0182840181905283835292959294916129d981610ccd565b5190205f805160206140e78339815191521854916129f5613c99565b905f5b8251811015612a9e57612a2c612a1f612a118386610eca565b516001600160581b03191690565b6001600160581b03191690565b6001808260581c1614612a43575b506001016129f8565b60601c90813b1561015a5788516315c19b2760e21b8152915f908390818381612a718c8c8f6004850161377b565b03925af191821561040857600192612a8b575b5090612a3a565b806103fc612a9892610c63565b5f612a84565b50945f80516020614107833981519152875180612abc86898361373f565b0390a2612ad7612acb856135cd565b83516020850191613d94565b60ff808460e01c1680612b7d575b50505f5b8151811015612b7457612b02612a1f612a118385610eca565b6002808260581c1614612b19575b50600101612ae9565b60601c90813b1561015a578751635b28cdaf60e01b8152915f908390818381612b478b8b8e6004850161377b565b03925af191821561040857600192612b61575b5090612b10565b806103fc612b6e92610c63565b5f612b5a565b50505050509050565b5f612b8787613bb3565b555f60805b8284831610612b9c575050612ae5565b600181612bb38693612bae868d6136dd565b613d49565b92011690612b8c565b60408051655461626c657360501b66746273746f726560c81b01602082019081525f805160206141478339815191528284018190528383529295929491612c0281610ccd565b5190205f805160206140e7833981519152185491612c1e613ced565b905f5b8251811015612cac57612c3a612a1f612a118386610eca565b6001808260581c1614612c51575b50600101612c21565b60601c90813b1561015a5788516315c19b2760e21b8152915f908390818381612c7f8c8c8f600485016137da565b03925af191821561040857600192612c99575b5090612c48565b806103fc612ca692610c63565b5f612c92565b50945f80516020614107833981519152875180612cca86898361373f565b0390a2612cd9612acb856135e2565b60ff808460e01c1680612d76575b50505f5b8151811015612b7457612d04612a1f612a118385610eca565b6002808260581c1614612d1b575b50600101612ceb565b60601c90813b1561015a578751635b28cdaf60e01b8152915f908390818381612d498b8b8e600485016137da565b03925af191821561040857600192612d63575b5090612d12565b806103fc612d7092610c63565b5f612d5c565b5f612d8087613bc8565b555f60805b8284831610612d95575050612ce7565b600181612da78693612bae868d61371a565b92011690612d85565b919091612dbc81613b89565b5464ffffffffff926060848360601c1691612de2612dda8480613692565b8851906127e8565b8381141596908780613022575b612ff657612dfd9086613e4f565b96612e06613bdd565b925f5b8451811015612e9757612e22612a1f612a118388610eca565b6010808260581c1614612e39575b50600101612e09565b861c90813b1561015a575f898d938a838e612e6a60405198899687958694630abd6b4560e31b86526004860161382a565b03925af191821561040857600192612e84575b5090612e30565b806103fc612e9192610c63565b5f612e7d565b509298939790949691965f985f995b60ff8b166001811015612ecd5760ff918b8b6001936028026038011c16019b011699612ea6565b509692975093985093989196506040947ffe158a7adba34e256807c8a149028d3162918713c3838afc643ce9f96716ebfd8589612f328d8b60405194859465ffffffffffff694368617261637465727360301b631d18955160e21b0199169086613885565b0390a2612fe6575b612f4c88612f478861369f565b613ed5565b5f5b8151811015612fdb57612f67612a1f612a118385610eca565b6020808260581c1614612f7e575b50600101612f4e565b831c90813b1561015a575f878b9387838c612fae8c5198899687958694636358453360e01b86526004860161382a565b03925af191821561040857600192612fc8575b5090612f75565b806103fc612fd592610c63565b5f612fc1565b505050505050509050565b84612ff087613b89565b55612f3a565b604051632994042d60e21b81525f600482015264ffffffffff8616602482018190526044820152606490fd5b508461303a61303082613817565b64ffffffffff1690565b1415612def565b9190915f805b600882106131e05765ffffffffffff9150166130628261349d565b61306a613c99565b905f5b82518110156130f757613086612a1f612a118386610eca565b9060049182808260581c16146130a2575b50600191500161306d565b60601c803b1561015a57855f9188838c966130d16040519889968795869463964f667d60e01b86528501613903565b03925af1918215610408576001921561309757806103fc6130f192610c63565b5f613097565b50604080519096939291613153918591859164537461747360581b631d18955160e21b01907f8c0b5119d4cec7b284c6b1b39252a03d1e2f2d7451a5895562524c113bb952be908061314b87878e846138d2565b0390a2613f0c565b5f5b8151811015612b745761316e612a1f612a118385610eca565b6008808260581c1614613185575b50600101613155565b60601c90813b1561015a57875163a8ba872160e01b8152915f9083908183816131b38b8b8e60048501613903565b03925af1918215610408576001926131cd575b509061317c565b806103fc6131da92610c63565b5f6131c6565b60ff6fe60d002020012020202020010101010160781b83601b0360031b1c168101809111610d6557600190910190613047565b602081519101fd5b6953746f7265486f6f6b7360301b66746273746f726560c81b01815281516020918201928201915f5b828110613252575050505090565b835185529381019392810192600101613244565b5f80516020614187833981519152815281516020918201928201915f5b828110613291575050505090565b835185529381019392810192600101613283565b6653797374656d7360481b661d189ddbdc9b1960ca1b01815281516020918201928201915f5b8281106132d9575050505090565b8351855293810193928101926001016132cb565b6f46756e6374696f6e53656c6563746f72661d189ddbdc9b1960ca1b01815281516020918201928201915f5b828110613327575050505090565b835185529381019392810192600101613319565b64537461747360581b631d18955160e21b01815281516020918201928201915f5b82811061336a575050505090565b83518552938101939281019260010161335c565b5f80516020614147833981519152815281516020918201928201915f5b8281106133a9575050505090565b83518552938101939281019260010161339b565b60405160208160208101936f436c6173734d756c7469706c69657273631d18955160e21b0185526040820160208251919201935f5b8281106134245750505061340f925003601f198101835282610ce8565b5190205f805160206140e78339815191521890565b8551845294810194869450928101926001016133f2565b60405160208160208101936514185d5cd95960521b631d18955160e21b0185526040820160208251919201935f5b8281106134865750505061340f925003601f198101835282610ce8565b855184529481019486945092810192600101613469565b604051602081602081019364537461747360581b631d18955160e21b0185526040820160208251919201935f5b8281106134e75750505061340f925003601f198101835282610ce8565b8551845294810194869450928101926001016134ca565b60405160208160208101936f436c6173734d756c7469706c69657273631d18955160e21b0185526040820160208251919201935f5b8281106135505750505061340f925003601f198101835282610ce8565b855184529481019486945092810192600101613533565b6040516020816020810193694368617261637465727360301b631d18955160e21b0185526040820160208251919201935f5b8281106135b65750505061340f925003601f198101835282610ce8565b855184529481019486945092810192600101613599565b60405161340f8161035260208201948561333b565b60405161340f8161035260208201948561337e565b5f805b60048110613606575090565b9060ff67050028010101010160bd1b83601b0360031b1c168101809111610d6557906001016135fa565b6020821015613653575b80548260031b1b91602003908160201161265357505090565b601f82169160051c0161363a565b6020821015613684575b80548260031b1b91602003908160011161265357505090565b601f82169160051c0161366b565b91908203918211610d6557565b7f3a4102da22e32d82fc925482184f16c09fd4281692720b87d124aef6da48a0f1906040516136d681610352602082019485613266565b5190201890565b905f80516020614127833981519152916040516137028161035260208201948561333b565b51902060f89190911b6001600160f81b031916181890565b905f80516020614127833981519152916040516137028161035260208201948561337e565b90610e8c92613759613767926080855260808501906117c2565b908382036020850152610e49565b905f60408201526060818303910152610e0c565b64537461747360581b631d18955160e21b01815260c0602082018190529094939260a0926137d5926137c292916137b4918901906117c2565b908782036040890152610e49565b5f60608701528581036080870152610e0c565b930152565b9392916137c26137d5916137b460a0946f436c6173734d756c7469706c69657273631d18955160e21b01895260c060208a015260c08901906117c2565b9064ffffffffff809216918211610d6557565b5f80516020614187833981519152815260e060208201819052610e8c959394919264ffffffffff9161385f91908501906117c2565b94600160408501525f606085015216608083015260a082015260c0818403910152610e49565b919390610e8c959365ffffffffffff6138ac64ffffffffff9360c0875260c08701906117c2565b9660016020870152166040850152166060830152608082015260a0818403910152610e49565b65ffffffffffff6138ef610e8c95936060845260608401906117c2565b931660208201526040818403910152610e49565b64537461747360581b631d18955160e21b018152608060208201819052610e8c949265ffffffffffff9161393a91908401906117c2565b931660408201526060818403910152610e49565b6040519061395b82610c97565b60068252651e3937b7ba1f60d11b6020830152565b608081901b6001600160801b03191690610e8c90602490601081901b6001600160901b03191680613a1e57506139a461394e565b935b80613a1057506139b461394e565b60405194859261ffff60f01b166020840152601d60f91b908160228501526139e6815180926020602388019101610deb565b8301906023820152613a018251809360208785019101610deb565b01036004810184520182610ce8565b613a1990613f1d565b6139b4565b613a2790613f1d565b936139a6565b613a4a82600160801b600160f01b038316616e7360f01b17614010565b8015613a9d575b15613a5a575050565b90613a67613a8992613970565b9060405192839263d787b73760e01b8452604060048501526044840190610e49565b6001600160a01b0390911660248301520390fd5b50613aa88282614010565b613a51565b3d15613ad7573d90613abe82611f08565b91613acc6040519384610ce8565b82523d5f602084013e565b606090565b90613aea5f93928493613f76565b9082602083519301915af1613afd613aad565b9091565b90613b0f5f93928493613f76565b90602082519201905af4613afd613aad565b60408051601f19603f85830101811690925283815292602080850193925b81831015613b7157505080613b55575b50505090565b5f199060031b1c908183511691199054161790525f8080613b4f565b81600185839495979654875201940194019190613b3f565b604051613b9e81610352602082019485613266565b5190205f805160206141678339815191521890565b604051613b9e8161035260208201948561333b565b604051613b9e8161035260208201948561337e565b613be5610e8f565b8051156101ec57613c82610e8c91694368617261637465727360301b631d18955160e21b01602082015264ffffffffff604051915f805160206141278339815191526020840184613c36848361321b565b0394613c4a601f1996878101835282610ce8565b5190201892613c656040519182610aca60208201958661321b565b5190205f80516020614167833981519152185460381c1690613b21565b602060018060801b03825116910160801b17613fbe565b613ca1610e8f565b8051156101ec57613c82610e8c9164537461747360581b631d18955160e21b01602082015264ffffffffff604051915f805160206141278339815191526020840184613c36848361321b565b613cf5610e8f565b8051156101ec57613c82610e8c916f436c6173734d756c7469706c69657273631d18955160e21b01602082015264ffffffffff604051915f805160206141278339815191526020840184613c36848361321b565b9190915f905b602090818310613d6f5784518155930192601f1990910190600101613d4f565b929391905080613d7e57505050565b5f199060031b1c90818354169119905116179055565b929192602090818310613d6f5784518155930192601f1990910190600101613d4f565b909392919380613de6575b50929092602090818310613d6f5784518155930192601f1990910190600101613d4f565b6020811015613e3f575b8015613dc25791939082602003908360031b5f198460031b1c19811c908751901c908019835416911617815581831115613e3757600101940191601f19910101925f613dc2565b505050509050565b90601f908260051c019116613df0565b64ffffffffff808311613ebc5766ffffffffffffff821690606083901c1683818110613eb2570301915b64ffffffffff60601b60609190911b1664ffffffffff60601b1992909216600169ffffffffff000000000160381b031991909116171790565b9003900391613e79565b604051637149a3c160e01b815260048101849052602490fd5b81519060208093019190925b80821015613ef4575080613d7e57505050565b6001839482939451815501930191601f190190613ee1565b825161019e93602001929091613db7565b5f5b60108110613f49575b6040516001600160801b031990921660208301526010825261123d82610c97565b6001600160801b03198216600382901b1b6001600160f81b03191615613f7157600101613f1f565b613f28565b6054610e8c916040519381613f95869351809260208087019101610deb565b82019060018060601b03199060601b1660208201525f6034820152036034810184520182610ce8565b8060801c906015809160018060801b031604604051926020906020850160208460051b8701016040528386525f5b848110613ffc5750505050505090565b825182529185019190830190600101613fec565b6040519061401d82610ccd565b60028252602092602083019160403684378351156101ec578252825190600191600110156101ec576001600160a01b031660408085019190915280516f5265736f757263654163636573730000661d189ddbdc9b1960ca1b0160208201908152945194959094918501939291905f5b8281106140d357505050505091816140b361159a93610e8c9503601f198101835282610ce8565b5190205f805160206140e783398151915218546001600160f81b03191690565b845186529481019493810193830161408c56fe86425bff6b57326c7859e89024fe4f238ca327a1ae4a230180dd2f0e88aaa7d98dbb3a9672eebfd3773e72dd9c102393436816d832c7ba9e1e1ac8fcadcac7a93b4102da22e32d82fc925482184f16c09fd4281692720b87d124aef6da48a0f174625544000000000000000000000000436c6173734d756c7469706c6965727314e2fcc58e58e68ec7edc30c8d50dccc3ce2714a623ec81f46b6a63922d765697462554400000000000000000000000043686172616374657273000000000000","linkReferences":{}},"methodIdentifiers":{"_msgSender()":"119df25f","_msgValue()":"45ec9354","_world()":"e1af802c","choosePowerSource(bytes32,uint8)":"48b027f3","chooseRace(bytes32,uint8)":"9cca06ef","chooseStartingArmor(bytes32,uint8)":"7c636426","getAdvancedClass(bytes32)":"0797e03e","getAvailableClasses()":"526e2f47","getClassMultipliers(bytes32)":"5932023c","getPowerSource(bytes32)":"c75fadf2","getRace(bytes32)":"f70125db","getStartingArmor(bytes32)":"2dfb78cd","rollBaseStats(bytes32,bytes32)":"aa8659e4","selectAdvancedClass(bytes32,uint8)":"3493289b","supportsInterface(bytes4)":"01ffc9a7"},"id":371}