{"abi":[{"type":"function","name":"_msgSender","inputs":[],"outputs":[{"name":"sender","type":"address","internalType":"address"}],"stateMutability":"view"},{"type":"function","name":"_msgValue","inputs":[],"outputs":[{"name":"value","type":"uint256","internalType":"uint256"}],"stateMutability":"view"},{"type":"function","name":"_world","inputs":[],"outputs":[{"name":"","type":"address","internalType":"address"}],"stateMutability":"view"},{"type":"function","name":"previewConsumableEffect","inputs":[{"name":"itemId","type":"uint256","internalType":"uint256"}],"outputs":[{"name":"isHealing","type":"bool","internalType":"bool"},{"name":"magnitude","type":"int256","internalType":"int256"}],"stateMutability":"view"},{"type":"function","name":"supportsInterface","inputs":[{"name":"interfaceId","type":"bytes4","internalType":"bytes4"}],"outputs":[{"name":"","type":"bool","internalType":"bool"}],"stateMutability":"pure"},{"type":"function","name":"validateConsumable","inputs":[{"name":"characterId","type":"bytes32","internalType":"bytes32"},{"name":"itemId","type":"uint256","internalType":"uint256"}],"outputs":[{"name":"","type":"bool","internalType":"bool"}],"stateMutability":"view"},{"type":"error","name":"Slice_OutOfBounds","inputs":[{"name":"data","type":"bytes","internalType":"bytes"},{"name":"start","type":"uint256","internalType":"uint256"},{"name":"end","type":"uint256","internalType":"uint256"}]}],"bytecode":{"object":"0x60808060405234610016576110d2908161001b8239f35b5f80fdfe60806040526004361015610011575f80fd5b5f3560e01c806301ffc9a714610074578063119df25f1461006f57806318338c171461006a57806345ec9354146100655780635866627a146100605763e1af802c1461005b575f80fd5b61019c565b610152565b610133565b610108565b6100cc565b346100c85760203660031901126100c85760043563ffffffff60e01b81168091036100c85763b5dee12760e01b81149081156100b7575b50151560805260206080f35b6301ffc9a760e01b149050816100ab565b5f80fd5b346100c8575f3660031901126100c85736603319013560601c8015610101575b6040516001600160a01b039091168152602090f35b50336100ec565b346100c85760403660031901126100c85760206101296024356004356101dc565b6040519015158152f35b346100c8575f3660031901126100c8576020604051601f193601358152f35b346100c85760203660031901126100c85760406101706004356105c4565b60208101515f811291821561018f575b50825191151582526020820152f35b5f9192505112905f610180565b346100c8575f3660031901126100c85760206101b6610a7e565b6040516001600160a01b039091168152f35b634e487b7160e01b5f52602160045260245ffd5b6101f76101e76102e7565b836101f182610311565b526106d6565b60f81c60068110156102a65760030361026257610213906103a2565b61023a61023661022284610515565b604081015190602081519101519185610564565b1590565b61025c57604060e061024e610259946105c4565b920151910151111590565b90565b50505f90565b60405162461bcd60e51b815260206004820152601c60248201527b434f4e53554d41424c453a204e6f74206120636f6e73756d61626c6560201b6044820152606490fd5b6101c8565b634e487b7160e01b5f52604160045260245ffd5b601f909101601f19168101906001600160401b038211908210176102e257604052565b6102ab565b60408051919082016001600160401b038111838210176102e2576040526001825260203681840137565b80511561031e5760200190565b634e487b7160e01b5f52603260045260245ffd5b604051906101a082016001600160401b038111838210176102e2576040525f610180838281528260208201528260408201528260608201528260808201528260a08201528260c08201528260e0820152826101008201528261012082015282610140820152826101608201520152565b6103c7906103ae610332565b506103b76102e7565b906103c182610311565b5261085a565b50506103d1610332565b906020810151906104dd6040820151916103f76103f2606083015160f81c90565b610dee565b9060618101519060818101519060a18101519060c1810151906104bb8a6104b160e18401519361012061043761043261010184015160f81c90565b610dfd565b936104ab61044d61043261010286015160f81c90565b936104a161046361043261010384015160f81c90565b9161049761048d61010561048461047f61010486015160f81c90565b610e09565b93015160f81c90565b1515610180870152565b6101608501610a50565b6101408301610a66565b01610a66565b6101008c01610a66565b60e08a015260c089015260a08801526080870152606086015260408501610a72565b6020830152815290565b60405190606082016001600160401b038111838210176102e2576040525f6040838281528260208201520152565b61053a906105216104e7565b5061052a6102e7565b9061053482610311565b52610924565b50506105446104e7565b906020810151906060604082015191015160408401526020830152815290565b91908251126105895760208201511261025c57606001511261058557600190565b5f90565b5050505f90565b60405190608082016001600160401b038111838210176102e257604052606080835f81525f60208201525f60408201520152565b6105ef64ffffffffff916105d6610590565b506105df6102e7565b906105e982610311565b526109ba565b9192906105fa610590565b936020810151906060604082015191015160408701526020860152845260381c16908051821161063d57906020610635920160801b1761105c565b606082015290565b6084826040519283916323230fa360e01b83526060600484015261067082518093816064870152602087870191016107af565b5f60248401526044830152601f01601f19168101030190fd5b908160209103126100c8575190565b9081518082526020808093019301915f5b8281106106b7575050505090565b8351855293810193928101926001016106a9565b6040513d5f823e3d90fd5b6001600160a01b036106e6610a7e565b163081036106f8575061025990610ab3565b604051638c364d5960e01b8152644974656d7360581b631d18955160e21b016004820152608060248201529160209183918290819061073b906084830190610698565b5f6044830152660308200809010160c51b606483015203915afa90811561078f575f91610766575090565b610259915060203d602011610788575b61078081836102bf565b810190610689565b503d610776565b6106cb565b6001600160401b0381116102e257601f01601f191660200190565b5f5b8381106107c05750505f910152565b81810151838201526020016107b1565b81601f820112156100c85780516107e681610794565b926107f460405194856102bf565b818452602082840101116100c85761025991602080850191016107af565b90916060828403126100c85781516001600160401b0392908381116100c8578461083d9183016107d0565b9360208201519360408301519081116100c85761025992016107d0565b6001600160a01b0361086a610a7e565b16308103610883575061087c90610b93565b9192909190565b60405163419b58fd60e01b815264537461747360581b631d18955160e21b0160048201526060602482015292915f918491829081906108c6906064830190610698565b6fe60d002020012020202020010101010160781b604483015203915afa90811561078f575f80935f936108fa575b50929190565b9193505061091a91503d805f833e61091281836102bf565b810190610812565b929092915f6108f4565b6001600160a01b03610934610a7e565b16308103610946575061087c90610c3b565b60405163419b58fd60e01b81526f537461745265737472696374696f6e73631d18955160e21b0160048201526060602482015292915f91849182908190610991906064830190610698565b6503001801010160cd1b604483015203915afa90811561078f575f80935f936108fa5750929190565b6001600160a01b036109ca610a7e565b163081036109dc575061087c90610cc5565b60405163419b58fd60e01b81526f436f6e73756d61626c65537461747300631d18955160e21b0160048201526060602482015292915f91849182908190610a27906064830190610698565b6503001809010160cd1b604483015203915afa90811561078f575f80935f936108fa5750929190565b600a8210156102a65752565b600411156102a657565b610a6f82610a5c565b52565b60038210156102a65752565b7f629a4c26e296b22a8e0856e9f6ecb2d1008d7e00081111962cd175fa7488e175546001600160a01b03168061025957503390565b6040516020816020810193644974656d7360581b631d18955160e21b0185526040820160208251919201935f5b828110610b1357505050610afd925003601f1981018352826102bf565b5190205f805160206110b2833981519152185490565b855184529481019486945092810192600101610ae0565b90610b3482610794565b610b4160405191826102bf565b8281528092610b52601f1991610794565b0190602036910137565b634e487b7160e01b5f52601160045260245ffd5b60ff1660ff8114610b815760010190565b610b5c565b91908201809211610b8157565b5f906060906040519060209082610bae602082019283610e63565b0392610bc2601f19948581018352826102bf565b5190205f805160206110b28339815191521891604051928161012585011660405260e68452602084019260e691925b81831015610c2357505080610c07575b50505092565b5f199060031b1c908183511691199054161790525f8080610c01565b81600185839495979654875201940194019190610bf1565b5f906060906040519060209082610c56602082019283610ea6565b0392610c6a601f19948581018352826102bf565b5190205f805160206110b283398151915218916040519281609f850116604052606084526020840192606091925b81831015610cad57505080610c075750505092565b81600185839495979654875201940194019190610c98565b610cce81610ef1565b604051602091601f199283609f840116604052606083526020830191606090915b8581831015610dd857505080610dbc575b50505090604051610d26602082019282610d1a8786610e18565b039081018352826102bf565b5190207f14e2fcc58e58e68ec7edc30c8d50dccc3ce2714a623ec81f46b6a63922d765691854610d5e66ffffffffffffff8216610b2a565b925f92602085015b60ff8516906001821015610db257610dac9181610da1610da69364ffffffffff89610d918c8b610f6f565b956028026038011c168094611012565b610b86565b94610b70565b93610d66565b5050949193925050565b5f199060031b1c908183511691199054161790525f8080610d00565b9060018482949695548652019301930190610cef565b60ff1660038110156102a65790565b60ff1661025981610a5c565b60ff16600a8110156102a65790565b6f436f6e73756d61626c65537461747300631d18955160e21b01815281516020918201928201915f5b828110610e4f575050505090565b835185529381019392810192600101610e41565b64537461747360581b631d18955160e21b01815281516020918201928201915f5b828110610e92575050505090565b835185529381019392810192600101610e84565b6f537461745265737472696374696f6e73631d18955160e21b01815281516020918201928201915f5b828110610edd575050505090565b835185529381019392810192600101610ecf565b60405160208160208101936f436f6e73756d61626c65537461747300631d18955160e21b0185526040820160208251919201935f5b828110610f5857505050610f43925003601f1981018352826102bf565b5190205f805160206110b28339815191521890565b855184529481019486945092810192600101610f26565b604080516f436f6e73756d61626c65537461747300631d18955160e21b0160208083019182528451938301969594919391810191905f5b828110610ffe5750505050610fe6817f3b4102da22e32d82fc925482184f16c09fd4281692720b87d124aef6da48a0f1959603601f1981018352826102bf565b51902060f89190911b6001600160f81b031916181890565b835189529781019792810192600101610fa6565b9291925b6020908183106110365780548552930192601f1990910190600101611016565b9190509291928061104657505050565b5f199060031b1c90818351169119905416179052565b6040805160206020600160801b0384168201810190925260016001607b1b03600584901c16808252909260801c8284015f5b83811061109d57505050505090565b82518252918401919084019060010161108e56fe86425bff6b57326c7859e89024fe4f238ca327a1ae4a230180dd2f0e88aaa7d9","linkReferences":{}},"methodIdentifiers":{"_msgSender()":"119df25f","_msgValue()":"45ec9354","_world()":"e1af802c","previewConsumableEffect(uint256)":"5866627a","supportsInterface(bytes4)":"01ffc9a7","validateConsumable(bytes32,uint256)":"18338c17"},"id":296}