{"abi":[{"type":"function","name":"onAfterCallSystem","inputs":[{"name":"","type":"address","internalType":"address"},{"name":"","type":"bytes32","internalType":"ResourceId"},{"name":"","type":"bytes","internalType":"bytes"}],"outputs":[],"stateMutability":"nonpayable"},{"type":"function","name":"onBeforeCallSystem","inputs":[{"name":"","type":"address","internalType":"address"},{"name":"","type":"bytes32","internalType":"ResourceId"},{"name":"callData","type":"bytes","internalType":"bytes"}],"outputs":[],"stateMutability":"pure"},{"type":"function","name":"supportsInterface","inputs":[{"name":"interfaceId","type":"bytes4","internalType":"bytes4"}],"outputs":[{"name":"","type":"bool","internalType":"bool"}],"stateMutability":"view"}],"bytecode":{"object":"0x60808060405234610016576101e7908161001b8239f35b5f80fdfe6080806040526004361015610012575f80fd5b5f3560e01c90816301ffc9a7146100ed57508063973d8f99146100dd5763c33230311461003d575f80fd5b346100d95761004b36610140565b80516020909101516001600160e01b03198082169450925090600481106100c4575b5050166323b872dd60e01b1461007f57005b60405162461bcd60e51b815260206004820152601f60248201527f7468697320746f6b656e206973206e6f6e2d7472616e736665727261626c65006044820152606490fd5b60040360031b82901b16811691505f8061006d565b5f80fd5b346100d9576100eb36610140565b005b346100d95760203660031901126100d9576004359063ffffffff60e01b82168092036100d957602091630a81f7f560e31b811490811561012f575b5015158152f35b6301ffc9a760e01b14905083610128565b60606003198201126100d9576004356001600160a01b03811681036100d95791602435916001600160401b03906044358281116100d957816023820112156100d9578060040135918383116101d35760405193601f8401601f19908116603f01168501908111858210176101d357604052828452602483830101116100d957815f92602460209301838601378301015290565b634e487b7160e01b5f52604160045260245ffd","linkReferences":{}},"methodIdentifiers":{"onAfterCallSystem(address,bytes32,bytes)":"973d8f99","onBeforeCallSystem(address,bytes32,bytes)":"c3323031","supportsInterface(bytes4)":"01ffc9a7"},"id":242}