{"abi":[{"type":"function","name":"_msgSender","inputs":[],"outputs":[{"name":"sender","type":"address","internalType":"address"}],"stateMutability":"view"},{"type":"function","name":"_msgValue","inputs":[],"outputs":[{"name":"value","type":"uint256","internalType":"uint256"}],"stateMutability":"view"},{"type":"function","name":"_world","inputs":[],"outputs":[{"name":"","type":"address","internalType":"address"}],"stateMutability":"view"},{"type":"function","name":"install","inputs":[{"name":"","type":"bytes","internalType":"bytes"}],"outputs":[],"stateMutability":"nonpayable"},{"type":"function","name":"installRoot","inputs":[{"name":"","type":"bytes","internalType":"bytes"}],"outputs":[],"stateMutability":"nonpayable"},{"type":"function","name":"supportsInterface","inputs":[{"name":"interfaceId","type":"bytes4","internalType":"bytes4"}],"outputs":[{"name":"","type":"bool","internalType":"bool"}],"stateMutability":"pure"},{"type":"event","name":"Store_SetRecord","inputs":[{"name":"tableId","type":"bytes32","indexed":true,"internalType":"ResourceId"},{"name":"keyTuple","type":"bytes32[]","indexed":false,"internalType":"bytes32[]"},{"name":"staticData","type":"bytes","indexed":false,"internalType":"bytes"},{"name":"encodedLengths","type":"bytes32","indexed":false,"internalType":"EncodedLengths"},{"name":"dynamicData","type":"bytes","indexed":false,"internalType":"bytes"}],"anonymous":false},{"type":"event","name":"Store_SpliceStaticData","inputs":[{"name":"tableId","type":"bytes32","indexed":true,"internalType":"ResourceId"},{"name":"keyTuple","type":"bytes32[]","indexed":false,"internalType":"bytes32[]"},{"name":"start","type":"uint48","indexed":false,"internalType":"uint48"},{"name":"data","type":"bytes","indexed":false,"internalType":"bytes"}],"anonymous":false},{"type":"error","name":"FieldLayout_Empty","inputs":[]},{"type":"error","name":"FieldLayout_InvalidStaticDataLength","inputs":[{"name":"staticDataLength","type":"uint256","internalType":"uint256"},{"name":"computedStaticDataLength","type":"uint256","internalType":"uint256"}]},{"type":"error","name":"FieldLayout_StaticLengthDoesNotFitInAWord","inputs":[{"name":"index","type":"uint256","internalType":"uint256"}]},{"type":"error","name":"FieldLayout_StaticLengthIsNotZero","inputs":[{"name":"index","type":"uint256","internalType":"uint256"}]},{"type":"error","name":"FieldLayout_StaticLengthIsZero","inputs":[{"name":"index","type":"uint256","internalType":"uint256"}]},{"type":"error","name":"FieldLayout_TooManyDynamicFields","inputs":[{"name":"numFields","type":"uint256","internalType":"uint256"},{"name":"maxFields","type":"uint256","internalType":"uint256"}]},{"type":"error","name":"FieldLayout_TooManyFields","inputs":[{"name":"numFields","type":"uint256","internalType":"uint256"},{"name":"maxFields","type":"uint256","internalType":"uint256"}]},{"type":"error","name":"Module_AlreadyInstalled","inputs":[]},{"type":"error","name":"Module_MissingDependency","inputs":[{"name":"dependency","type":"address","internalType":"address"}]},{"type":"error","name":"Module_NonRootInstallNotSupported","inputs":[]},{"type":"error","name":"Module_RootInstallNotSupported","inputs":[]},{"type":"error","name":"Schema_InvalidLength","inputs":[{"name":"length","type":"uint256","internalType":"uint256"}]},{"type":"error","name":"Schema_StaticTypeAfterDynamicType","inputs":[]},{"type":"error","name":"Slice_OutOfBounds","inputs":[{"name":"data","type":"bytes","internalType":"bytes"},{"name":"start","type":"uint256","internalType":"uint256"},{"name":"end","type":"uint256","internalType":"uint256"}]},{"type":"error","name":"Store_InvalidFieldNamesLength","inputs":[{"name":"expected","type":"uint256","internalType":"uint256"},{"name":"received","type":"uint256","internalType":"uint256"}]},{"type":"error","name":"Store_InvalidKeyNamesLength","inputs":[{"name":"expected","type":"uint256","internalType":"uint256"},{"name":"received","type":"uint256","internalType":"uint256"}]},{"type":"error","name":"Store_InvalidResourceType","inputs":[{"name":"expected","type":"bytes2","internalType":"bytes2"},{"name":"resourceId","type":"bytes32","internalType":"ResourceId"},{"name":"resourceIdString","type":"string","internalType":"string"}]},{"type":"error","name":"Store_InvalidStaticDataLength","inputs":[{"name":"expected","type":"uint256","internalType":"uint256"},{"name":"received","type":"uint256","internalType":"uint256"}]},{"type":"error","name":"Store_InvalidValueSchemaDynamicLength","inputs":[{"name":"expected","type":"uint256","internalType":"uint256"},{"name":"received","type":"uint256","internalType":"uint256"}]},{"type":"error","name":"Store_InvalidValueSchemaLength","inputs":[{"name":"expected","type":"uint256","internalType":"uint256"},{"name":"received","type":"uint256","internalType":"uint256"}]},{"type":"error","name":"Store_InvalidValueSchemaStaticLength","inputs":[{"name":"expected","type":"uint256","internalType":"uint256"},{"name":"received","type":"uint256","internalType":"uint256"}]},{"type":"error","name":"Store_TableAlreadyExists","inputs":[{"name":"tableId","type":"bytes32","internalType":"ResourceId"},{"name":"tableIdString","type":"string","internalType":"string"}]}],"bytecode":{"object":"0x60e080604052346100ba57306080526001600160401b0390610486818101838111838210176100a65782916119d0833903905ff0801561009b5760a052604051906115f590818301908111838210176100a6578291611e56833903905ff0801561009b5760c05260405161191190816100bf823960805181505060a05181818161030b01526104b5015260c0518181816102ad015261044b0152f35b6040513d5f823e3d90fd5b634e487b7160e01b5f52604160045260245ffd5b5f80fdfe60806040526004361015610011575f80fd5b5f3560e01c806301ffc9a714610074578063119df25f1461006f57806313861fb51461006a57806345ec9354146100655780637c5b0335146100605763e1af802c1461005b575f80fd5b610503565b6103a3565b610384565b610215565b6100ed565b346100df5760203660031901126100df5760043563ffffffff60e01b81168091036100df5762dfba3960e71b81149081156100ce575b81156100bd575b50151560805260206080f35b6301ffc9a760e01b149050816100b1565b63b5dee12760e01b811491506100aa565b5f80fd5b5f9103126100df57565b346100df575f3660031901126100df5736603319013560601c8015610122575b6040516001600160a01b039091168152602090f35b503361010d565b634e487b7160e01b5f52604160045260245ffd5b6001600160401b03811161015057604052565b610129565b604081019081106001600160401b0382111761015057604052565b601f909101601f19168101906001600160401b0382119082101761015057604052565b6001600160401b03811161015057601f01601f191660200190565b60206003198201126100df576004356001600160401b0381116100df57816023820112156100df578060040135906101e582610193565b926101f36040519485610170565b828452602483830101116100df57815f92602460209301838601378301015290565b346100df57610223366101ae565b5061023e6102326102326108e5565b6001600160a01b031690565b610246610551565b813b156100df5760405163b29e408960e01b815260048101919091525f8160248183865af1801561035957610371575b50610287610282610592565b6106ab565b61028f6105d9565b813b156100df576040515f81806102d6633350b6a960e01b958683527f00000000000000000000000000000000000000000000000000000000000000009060048401610619565b038183875af180156103595761035e575b506102f0610639565b823b156100df57610334925f928360405180968195829483527f00000000000000000000000000000000000000000000000000000000000000009060048401610619565b03925af180156103595761034457005b806103516103579261013d565b806100e3565b005b610587565b8061035161036b9261013d565b5f6102e7565b8061035161037e9261013d565b5f610276565b346100df575f3660031901126100df576020604051601f193601358152f35b346100df576103b1366101ae565b506103c06102326102326108e5565b6103c8610551565b905f8060405193846103f0602082019263b29e408960e01b8452602483019190602083019252565b0394610404601f1996878101835282610170565b5190845af461041161067c565b90156104fe5750610423610282610592565b61042b6105d9565b915f80604051602081019061048081610474633350b6a960e01b998a86527f00000000000000000000000000000000000000000000000000000000000000009060248401610619565b03868101835282610170565b5190855af461048d61067c565b90156104fe575f8084866104de6104ea876104a6610639565b604051938491602083019687527f00000000000000000000000000000000000000000000000000000000000000009060248401610619565b03908101835282610170565b51915af46104f661067c565b90156104fe57005b6107df565b346100df575f3660031901126100df57602061051d6108e5565b6040516001600160a01b039091168152f35b602081519101519060208110610543575090565b5f199060200360031b1b1690565b604051616e7360f01b6020820152651c1d5c1c195d60d21b6022820152601081526105849061057f81610155565b61052f565b90565b6040513d5f823e3d90fd5b604051613a3160f11b602080830191909152651c1d5c1c195d60d21b60228301526d507570706574526567697374727960901b603083015281526105849061057f81610155565b60405161737960f01b602080830191909152651c1d5c1c195d60d21b602283015266466163746f727960c81b603083015281526105849061057f81610155565b9081526001600160a01b0390911660208201526001604082015260600190565b60405161737960f01b602080830191909152651c1d5c1c195d60d21b6022830152692232b632b3b0ba34b7b760b11b603083015281526105849061057f81610155565b3d156106a6573d9061068d82610193565b9161069b6040519384610170565b82523d5f602084013e565b606090565b6106b36107e7565b6040516106bf81610155565b60088152671cde5cdd195b525960c21b60208201528151156107da5760208201528051156107da576106ef6107e7565b916040516106fc81610155565b60068152651c1d5c1c195d60d21b60208201528351156107da5760208401528251156107da576001600160a01b036107326108e5565b163081036107485750906107469291610964565b565b803b156100df575f92836107aa936107bc60405197889687958694630ba51f4960e01b86526004860152630500400560da1b6024860152632001005f60d81b6044860152631401006160d81b606486015260c0608486015260c4850190610889565b8381036003190160a485015290610889565b03925af18015610359576107cd5750565b806103516107469261013d565b61081b565b602081519101fd5b6040516107f381610155565b60018152805f5b602080821015610815579060606020928285010152016107fa565b50505090565b634e487b7160e01b5f52603260045260245ffd5b80518210156107da5760209160051b010190565b5f5b8381106108545750505f910152565b8181015183820152602001610845565b9060209161087d81518092818552858086019101610843565b601f01601f1916010190565b90808251908181526020809101926020808460051b8301019501935f915b8483106108b75750505050505090565b90919293949584806108d5600193601f198682030187528a51610864565b98019301930191949392906108a7565b7f629a4c26e296b22a8e0856e9f6ecb2d1008d7e00081111962cd175fa7488e175546001600160a01b03168061058457503390565b6060906105849392613a3160f11b825260208201528160408201520190610864565b604090610584939281528160208201520190610864565b906020610584928181520190610889565b9190613a3160f11b6001600160f01b03198416818114159081610b75575b50610b3f5761098f610ba6565b610997610c90565b61099f610d1d565b815160019060018103610b1e5750835160018103610afe57505f5b818110610aa05750506001600160f01b038416906109d9908217610e36565b908115610a89575b50610a4157610a2a610a07610a366107469594610a3c9460405193849160208301610953565b0390610a1b601f1992838101865285610170565b60405194859160208301610953565b03908101845283610170565b83610ecf565b610f82565b8260405190610a6982610a5b836020830160209181520190565b03601f198101845283610170565b610a8560405192839263dfaaf9cf60e01b84526004840161093c565b0390fd5b610a9a9150611bdd60f21b17610e36565b5f6109e1565b630500400560da1b601b82900360031b1c60ff16610ac5610ac083610d98565b610dee565b8103610ad3575081016109ba565b610adf610ac083610d98565b6040516309531f6d60e21b815260048101929092526024820152604490fd5b604051621f7b1360ea1b8152600160048201526024810191909152604490fd5b6040516301ee597360e31b8152600160048201526024810191909152604490fd5b8360405190610b5982610a5b836020830160209181520190565b610a856040519283926331b4668360e01b84526004840161091a565b611bdd60f21b141590505f610982565b91908201809211610b9257565b634e487b7160e01b5f52601160045260245ffd5b5f805b60019081831015610c1a57630500400560da1b601b84900360031b1c60ff169081610be7576040516353b2dd0560e01b815260048101859052602490fd5b60208211610c015790610bf991610b85565b910190610ba9565b604051637237f23760e01b815260048101859052602490fd5b91505060148103610c6f57506001805b601c8110610c36575050565b630500400560da1b601b82900360031b1c60ff16610c55578101610c2a565b604051631d8d44db60e01b81526004810191909152602490fd5b6040516375d4b26f60e11b8152601460048201526024810191909152604490fd5b5f805b60019081831015610cd357610caa610ac084610dcd565b8015610cc157610cb991610b85565b910190610c93565b6040516307a25a1160e51b8152600490fd5b90506020915003610d04576001805b818110610ced575050565b610cf9610ac082610dcd565b610cc1578101610ce2565b60405163d498615960e01b815260206004820152602490fd5b5f805b60019081831015610d4e57610d37610ac084610d98565b8015610cc157610d4691610b85565b910190610d20565b90506014915003610d7f576001805b818110610d68575050565b610d74610ac082610d98565b610cc1578101610d5d565b60405163d498615960e01b815260146004820152602490fd5b631401006160d81b601b9190910360031b1c60ff1660c6811015610db95790565b634e487b7160e01b5f52602160045260245ffd5b632001005f60d81b601b9190910360031b1c60ff1660c6811015610db95790565b60c6811015610db957606160ff82161015610e0c57601f1660010190565b606103610e1857601490565b5f90565b60405190610e2982610155565b6001825260203681840137565b610e3e610e1c565b8051156107da576020808201928352604080516a5265736f7572636549647360281b66746273746f726560c81b0181840190815293519394909390928492830191905f5b828110610eb857505050610e9f925003601f198101835282610170565b5190205f805160206118d1833981519152185460f81c90565b855184529481019486945092810192600101610e82565b91604051630500400560da1b6020820152632001005f60d81b6040820152631401006160d81b606082015260608152608081019281841060018060401b038511176101505783604052610f56602083835195610f34878251968560a086019101610843565b868201610f4a825180938660a085019101610843565b01038087520185610170565b610f5e610e1c565b928351156107da576107469560208501528160601b918160381b9101171791611260565b90610f8b610e1c565b918251156107da5760208301526040805192600160f81b602085015260019160018552610fb785610155565b610fc0826114fe565b94610fc96115a0565b5f855b6110e9575b5061102d828697986040517f8c0b5119d4cec7b284c6b1b39252a03d1e2f2d7451a5895562524c113bb952be6a5265736f7572636549647360281b66746273746f726560c81b019180611025868c83611786565b0390a261184f565b5f945b61103d575b505050505050565b80518510156110e4578461107361106661105889988561082f565b516001600160581b03191690565b6001600160581b03191690565b6008808260581c161461108a575b50850194611030565b60601c9550853b156100df575f8451809763a8ba872160e01b82528183816110b6898c600484016117b1565b03925af190811561035957879687926110d1575b5090611081565b806103516110de9261013d565b5f6110ca565b611035565b815181101561117d578061110461106661105889948661082f565b60049081808260581c161461111e575b5050810190610fcc565b90925060601c803b156100df57845f91888361114e968a519788958694859363964f667d60e01b855284016117b1565b03925af1908115610359578792839261116a575b819250611114565b806103516111779261013d565b5f611162565b610fd1565b9081518082526020808093019301915f5b8281106111a1575050505090565b835185529381019392810192600101611193565b9061058494926111d06111de92608085526080850190611182565b908382036020850152610864565b9260408201526060818403910152610864565b655461626c657360501b66746273746f726560c81b01815260c06020820181905290959461124e9493909261123b9261122d9190890190611182565b908782036040890152610864565b9160608601528482036080860152610864565b9160a06503001811010160cd1b910152565b919093929361126d611654565b5f5b81518110156112fc57611288611066611058838561082f565b6001808260581c161461129f575b5060010161126f565b60601c90813b156100df576040516315c19b2760e21b8152915f9083908183816112cf8e8c8c8f600486016111f1565b03925af1918215610359576001926112e9575b5090611296565b806103516112f69261013d565b5f6112e2565b5060408051929690959194919392655461626c657360501b66746273746f726560c81b01907f8dbb3a9672eebfd3773e72dd9c102393436816d832c7ba9e1e1ac8fcadcac7a9908061135185888d89856111b5565b0390a261136c6113608361157d565b885160208a01916116ae565b8261137683611734565b555f93602082015b60ff908187169060028210156113c857600191816113ba6113bf9364ffffffffff8b6113aa8e8d611749565b956028026038011c1680946116ae565b610b85565b9601169461137e565b505050959293509590935f5b8151811015611462576113ed611066611058838561082f565b6002808260581c1614611404575b506001016113d4565b60601c90813b156100df575f868a9386838b6114358b5198899687958694635b28cdaf60e01b8652600486016111f1565b03925af19182156103595760019261144f575b50906113fb565b8061035161145c9261013d565b5f611448565b5050505050509050565b6953746f7265486f6f6b7360301b66746273746f726560c81b01815281516020918201928201915f5b8281106114a3575050505090565b835185529381019392810192600101611495565b655461626c657360501b66746273746f726560c81b01815281516020918201928201915f5b8281106114ea575050505090565b8351855293810193928101926001016114dc565b60405160208160208101936a5265736f7572636549647360281b66746273746f726560c81b0185526040820160208251919201935f5b82811061156657505050611551925003601f198101835282610170565b5190205f805160206118d18339815191521890565b855184529481019486945092810192600101611534565b604051611551816115926020820194856114b7565b03601f198101835282610170565b6115a8610e1c565b8051156107da57610584906a5265736f7572636549647360281b66746273746f726560c81b01602082015260405161164064ffffffffff61161d5f805160206118f183398151915260208501856115ff888361146c565b0395611613601f1997888101835282610170565b51902018946116f7565b5460381c16916040519260208401948592603f8387010116604052818552611886565b60018060801b039051169060801b176117fd565b61165c610e1c565b8051156107da5761058490655461626c657360501b66746273746f726560c81b01602082015260405161164064ffffffffff61161d5f805160206118f183398151915260208501856115ff888361146c565b9291925b6020908183106116d25784518155930192601f19909101906001016116b2565b9293919050806116e157505050565b5f199060031b1c90818354169119905116179055565b60405161170c8161159260208201948561146c565b5190207f14e2fcc58e58e68ec7edc30c8d50dccc3ce2714a623ec81f46b6a63922d765691890565b60405161170c816115926020820194856114b7565b905f805160206118f18339815191529160405161176e816115926020820194856114b7565b51902060f89190911b6001600160f81b031916181890565b909161179d61058493606084526060840190611182565b915f60208201526040818403910152610864565b6a5265736f7572636549647360281b66746273746f726560c81b0181526080602082018190526105849391926117e991840190611182565b915f60408201526060818403910152610864565b8060801c906015809160018060801b031604604051926020906020850160208460051b8701016040528386525f5b84811061183b5750505050505090565b82518252918501919083019060010161182b565b81519060208093019190925b8082101561186e5750806116e157505050565b6001839482939451815501930191601f19019061185b565b9291925b6020908183106118aa5780548552930192601f199091019060010161188a565b919050929192806118ba57505050565b5f199060031b1c9081835116911990541617905256fe86425bff6b57326c7859e89024fe4f238ca327a1ae4a230180dd2f0e88aaa7d93b4102da22e32d82fc925482184f16c09fd4281692720b87d124aef6da48a0f1608080604052346100165761046b908161001b8239f35b5f80fdfe6080604090808252600480361015610015575f80fd5b5f3560e01c91826301ffc9a71461021257508163119df25f146101f65781631a86b550146100a65750806345ec9354146100875763e1af802c14610057575f80fd5b34610083575f36600319011261008357602090610072610433565b90516001600160a01b039091168152f35b5f80fd5b5034610083575f366003190112610083575136601f1901358152602090f35b905034610083576060366003190112610083576001600160a01b039181358381160361008357604435926001600160401b03808511610083573660238601121561008357848401359081116101e35760209483519161010e87601f19601f84011601846102ab565b8083523660248284010111610083575f92816024899401848301370101526101346102ce565b8251613a3160f11b868201908152651c1d5c1c195d60d21b60228301526d507570706574526567697374727960901b6030830152868252919491906101788161027c565b519051908681106101d3575b508351916101918361027c565b6001835286830190873683378351156101c0575060243590526101b491906102e5565b60601c91519216148152f35b603290634e487b7160e01b5f525260245ffd5b5f1990870360031b1b165f610184565b604184634e487b7160e01b5f525260245ffd5b8234610083575f366003190112610083576020906100726102ce565b903461008357602036600319011261008357359063ffffffff60e01b8216809203610083576020916301a86b5560e41b811490811561026b575b811561025a575b5015158152f35b6301ffc9a760e01b14905083610253565b63b5dee12760e01b8114915061024c565b604081019081106001600160401b0382111761029757604052565b634e487b7160e01b5f52604160045260245ffd5b601f909101601f19168101906001600160401b0382119082101761029757604052565b36603319013560601c9081156102e057565b339150565b6001600160a01b036102f5610433565b163081036103795750906040519081602091602082019485526040820160208251919201935f5b82811061036257505050610339925003601f1981018352826102ab565b5190207f86425bff6b57326c7859e89024fe4f238ca327a1ae4a230180dd2f0e88aaa7d9185490565b85518452948101948694509281019260010161031c565b90916040518092638c364d5960e01b82526084820194600483015260806024830152825180955260a4820160209586809501905f5b81811061041a5750505f604485015250630500400560da1b60648401528290039082905afa91821561040f575f926103e557505090565b90809250813d8311610408575b6103fc81836102ab565b81010312610083575190565b503d6103f2565b6040513d5f823e3d90fd5b82518452889688965093840193909201916001016103ae565b7f629a4c26e296b22a8e0856e9f6ecb2d1008d7e00081111962cd175fa7488e175546001600160a01b03168061046857503390565b905660808060405234610016576115da908161001b8239f35b5f80fdfe60806040526004361015610011575f80fd5b5f3560e01c806301ffc9a714610064578063119df25f1461005f57806345ec93541461005a578063b9eb8bfb146100555763e1af802c14610050575f80fd5b610249565b610111565b6100f2565b6100c6565b346100b85760203660031901126100b85760043563ffffffff60e01b81168091036100b85763b5dee12760e01b81149081156100a7575b50151560805260206080f35b6301ffc9a760e01b1490508161009b565b5f80fd5b5f9103126100b857565b346100b8575f3660031901126100b85760206100e0610334565b6040516001600160a01b039091168152f35b346100b8575f3660031901126100b8576020604051601f193601358152f35b346100b85760203660031901126100b85760043561012d610334565b906101366103b9565b80511561024457600160801b600160f01b038216616e7360f01b17602082015261015f90610646565b6001600160a01b03929060601c8382160361021b575061018c610180610602565b6001600160a01b031690565b604051906108be808301906001600160401b038211848310176102165783926101d1928692610cdc86396001600160a01b039091168152602081019190915260400190565b03905ff080156102115761020d926101f3911680926101ee6102d3565b6103fb565b6040516001600160a01b0390911681529081906020820190565b0390f35b610277565b610263565b6102248261050f565b61024060405192839263d787b73760e01b845260048401610391565b0390fd5b6103d3565b346100b8575f3660031901126100b85760206100e0610602565b634e487b7160e01b5f52604160045260245ffd5b6040513d5f823e3d90fd5b6001600160401b03811161021657604052565b604081019081106001600160401b0382111761021657604052565b601f909101601f19168101906001600160401b0382119082101761021657604052565b604051613a3160f11b6020808301918252651c1d5c1c195d60d21b60228401526d507570706574526567697374727960901b603084015282529061031681610295565b5190519060208110610326575090565b5f199060200360031b1b1690565b36603319013560601c90811561034657565b339150565b5f5b83811061035c5750505f910152565b818101518382015260200161034d565b906020916103858151809281855285808601910161034b565b601f01601f1916010190565b906103a960209194939460408452604084019061036c565b6001600160a01b03909416910152565b604051906103c682610295565b6001825260203681840137565b634e487b7160e01b5f52603260045260245ffd5b80518210156102445760209160051b010190565b6104036103b9565b918251156102445760208301526040519260018060601b03199060601b1660208401526014835261043383610295565b6001600160a01b03610443610602565b163081036104595750906104579291610843565b565b803b156100b8575f9283610494936104ac604051978896879586946301c85d5760e51b8652600486015260a0602486015260a48501906105cf565b9084604485015260031984830301606485015261036c565b630500400560da1b608483015203925af18015610211576104ca5750565b806104d761045792610282565b806100bc565b60408051919082016001600160401b038111838210176102165760405260068252651e3937b7ba1f60d11b6020830152565b608081901b6001600160801b031916906105af90602490601081901b6001600160901b031916806105c057506105436104dd565b935b806105b257506105536104dd565b60405194859261ffff60f01b166020840152601d60f91b9081602285015261058581518092602060238801910161034b565b83019060238201526105a0825180936020878501910161034b565b010360048101845201826102b0565b90565b6105bb90610707565b610553565b6105c990610707565b93610545565b9081518082526020808093019301915f5b8281106105ee575050505090565b8351855293810193928101926001016105e0565b7f629a4c26e296b22a8e0856e9f6ecb2d1008d7e00081111962cd175fa7488e175546001600160a01b0316806105af57503390565b908160209103126100b8575190565b6001600160a01b03610656610602565b1630810361066857506105af90610765565b604051638c364d5960e01b81526f4e616d6573706163654f776e65720000661d189ddbdc9b1960ca1b01600482015260806024820152916020918391829081906106b69060848301906105cf565b5f6044830152630500400560da1b606483015203915afa908115610211575f916106de575090565b6105af915060203d602011610700575b6106f881836102b0565b810190610637565b503d6106ee565b5f5b60108110610738575b6040516001600160801b031990921660208301526010825261073382610295565b815290565b6001600160801b03198216600382901b1b6001600160f81b0319161561076057600101610709565b610712565b60405160208160208101936f4e616d6573706163654f776e65720000661d189ddbdc9b1960ca1b0185526040820160208251919201935f5b8281106107d0575050506107ba925003601f1981018352826102b0565b5190205f805160206115ba833981519152185490565b85518452948101948694509281019260010161079d565b90916107fe6105af936060845260608401906105cf565b915f6020820152604081840391015261036c565b9161082f906105af949284526080602085015260808401906105cf565b915f6040820152606081840391015261036c565b919291906001600160f01b03198216611bdd60f21b146109df576108678183610a50565b61087083610ab7565b905f5b8251811015610918576108a761089a61088c83866103e7565b516001600160581b03191690565b6001600160581b03191690565b9060049182808260581c16146108c3575b506001915001610873565b60601c803b156100b857855f9188838c966108f26040519889968795869463964f667d60e01b86528501610812565b03925af191821561021157600192156108b857806104d761091292610282565b5f6108b8565b5094919061094983604097865f8051602061159a83398151915260405180610941868a836107e7565b0390a2610b9d565b5f5b81518110156109d65761096461089a61088c83856103e7565b6008808260581c161461097b575b5060010161094b565b60601c90813b156100b857875163a8ba872160e01b8152915f9083908183816109a98b8b8e60048501610812565b03925af1918215610211576001926109c3575b5090610972565b806104d76109d092610282565b5f6109bc565b50505050509050565b925f8051602061159a833981519152919293610a00604051928392836107e7565b0390a2565b6953746f7265486f6f6b7360301b66746273746f726560c81b01815281516020918201928201915f5b828110610a3c575050505090565b835185529381019392810192600101610a2e565b906040519081602091602082019485526040820160208251919201935f5b828110610aa057505050610a8b925003601f1981018352826102b0565b5190205f805160206115ba8339815191521890565b855184529481019486945092810192600101610a6e565b610abf6103b9565b908151156102445781610b989160206105af940152610b906040519164ffffffffff6020840184610af08483610a05565b0394610b04601f19968781018352826102b0565b5190207f3b4102da22e32d82fc925482184f16c09fd4281692720b87d124aef6da48a0f11891604051610b4b81610b3f602082019485610a05565b038781018352826102b0565b5190207f14e2fcc58e58e68ec7edc30c8d50dccc3ce2714a623ec81f46b6a63922d76569185460381c1660405193603f82860101166040528084526020840191610c91565b805190610bea565b610c3f565b81519060208093019190925b80821015610bd2575080610bbc57505050565b5f199060031b1c90818354169119905116179055565b6001839482939451815501930191601f190190610ba9565b9081518111610c09576001600160801b031660209190910160801b1790565b6040516323230fa360e01b81526060600482015292508291610c2f90606484019061036c565b905f602484015260448301520390fd5b8060801c906015809160018060801b031604604051926020906020850160208460051b8701016040528386525f5b848110610c7d5750505050505090565b825182529185019190830190600101610c6d565b9291925b602090818310610cb55780548552930192601f1990910190600101610c95565b91905092919280610cc557505050565b5f199060031b1c9081835116911990541617905256fe60c0346100d957601f6108be38819003918201601f19168301916001600160401b038311848410176100dd5780849260409485528339810103126100d95780516001600160a01b038116918282036100d9576020015160809190915260a0527f629a4c26e296b22a8e0856e9f6ecb2d1008d7e00081111962cd175fa7488e17580546001600160a01b03191690911790556040516107cc90816100f28239608051818181608a015261049b015260a05181818160d3015281816101c801528181610262015281816102df0152818161035401526104420152f35b5f80fd5b634e487b7160e01b5f52604160045260245ffdfe60806040526004361015610019575b341561042d575b5f80fd5b5f3560e01c806330b67baa1461007857806339f898bc1461007357806366c93bdb1461006e578063c9a34acd14610069578063d72a2665146100645763e2ed58bd0361000e5761031f565b6102aa565b61022d565b610193565b6100bc565b34610015575f366003190112610015577f00000000000000000000000000000000000000000000000000000000000000006001600160a01b03166080908152602090f35b34610015575f3660031901126100155760206040517f00000000000000000000000000000000000000000000000000000000000000008152f35b634e487b7160e01b5f52604160045260245ffd5b601f909101601f19168101906001600160401b0382119082101761012d57604052565b6100f6565b6001600160401b03811161012d57601f01601f191660200190565b81601f820112156100155780359061016482610132565b92610172604051948561010a565b8284526020838301011161001557815f926020809301838601378301015290565b346100155760a0366003190112610015576084356001600160401b038111610015576101c390369060040161014d565b6101ec7f0000000000000000000000000000000000000000000000000000000000000000610503565b506001600160a01b031633036102155780519060643591604435916024359160206004359201a4005b6040516398d49b0360e01b8152336004820152602490fd5b34610015576080366003190112610015576064356001600160401b0381116100155761025d90369060040161014d565b6102867f0000000000000000000000000000000000000000000000000000000000000000610503565b506001600160a01b03163303610215578051604435916024359160206004359201a3005b34610015576040366003190112610015576024356001600160401b038111610015576102da90369060040161014d565b6103037f0000000000000000000000000000000000000000000000000000000000000000610503565b506001600160a01b0316330361021557805160206004359201a1005b34610015576060366003190112610015576044356001600160401b0381116100155761034f90369060040161014d565b6103787f0000000000000000000000000000000000000000000000000000000000000000610503565b506001600160a01b03163303610215578051906024359160206004359201a2005b9080601f83011215610015578151906103b182610132565b926103bf604051948561010a565b82845260209160208483010111610015575f5b8381106103e75750505060205f918301015290565b81810183015185820184015282016103d2565b906020828203126100155781516001600160401b0381116100155761041f9201610399565b90565b6040513d5f823e3d90fd5b604051631129d98b60e31b81523360048201527f000000000000000000000000000000000000000000000000000000000000000060248201526060604482015236606482018190525f60848301375f3682810160849081018390528391601f01601f191682018290030181837f00000000000000000000000000000000000000000000000000000000000000006001600160a01b03165af19081156104fe575f916104dc575b50602081519101f35b6104f891503d805f833e6104f0818361010a565b8101906103fa565b5f6104d3565b610422565b604080519081016001600160401b0381118282101761012d5760405260018152602081019160203684378151156105545761053e92526105b0565b5050906034602083015160601c92015160f81c90565b634e487b7160e01b5f52603260045260245ffd5b90916060828403126100155781516001600160401b0392908381116100155784610593918301610399565b9360208201519360408301519081116100155761041f9201610399565b906001600160a01b036105c16106a0565b163081036105db5750906105d4906106d5565b9192909190565b60405163419b58fd60e01b81526653797374656d7360481b661d189ddbdc9b1960ca1b01600482015260606024820152835160648201819052909384916084830191602090810191905f5b82811061068957505050509181805f9464150200140160d01b604483015203915afa9081156104fe575f80935f9361065f575b50929190565b9193505061067f91503d805f833e610677818361010a565b810190610568565b929092915f610659565b835185528895509381019392810192600101610626565b7f629a4c26e296b22a8e0856e9f6ecb2d1008d7e00081111962cd175fa7488e175546001600160a01b03168061041f57503390565b604080516653797374656d7360481b661d189ddbdc9b1960ca1b01602080830191825284515f956060959294939284019190850190875b8181106107b85750505091809392039261072e601f199485810183528261010a565b5190207f86425bff6b57326c7859e89024fe4f238ca327a1ae4a230180dd2f0e88aaa7d91891604051928160548501166040526015845282840192601591925b818310156107a057505080610784575b50505092565b5f199060031b1c908183511691199054161790525f808061077e565b8160018583949597965487520194019401919061076e565b82518452928601929186019160010161070c568c0b5119d4cec7b284c6b1b39252a03d1e2f2d7451a5895562524c113bb952be86425bff6b57326c7859e89024fe4f238ca327a1ae4a230180dd2f0e88aaa7d9","linkReferences":{}},"methodIdentifiers":{"_msgSender()":"119df25f","_msgValue()":"45ec9354","_world()":"e1af802c","install(bytes)":"13861fb5","installRoot(bytes)":"7c5b0335","supportsInterface(bytes4)":"01ffc9a7"},"id":100}