{"abi":[{"type":"function","name":"_msgSender","inputs":[],"outputs":[{"name":"sender","type":"address","internalType":"address"}],"stateMutability":"view"},{"type":"function","name":"_msgValue","inputs":[],"outputs":[{"name":"value","type":"uint256","internalType":"uint256"}],"stateMutability":"view"},{"type":"function","name":"_world","inputs":[],"outputs":[{"name":"","type":"address","internalType":"address"}],"stateMutability":"view"},{"type":"function","name":"applyDamageOverTime","inputs":[{"name":"encounterId","type":"bytes32","internalType":"bytes32"},{"name":"entityId","type":"bytes32","internalType":"bytes32"}],"outputs":[],"stateMutability":"nonpayable"},{"type":"function","name":"applyStatusEffect","inputs":[{"name":"entityId","type":"bytes32","internalType":"bytes32"},{"name":"effectId","type":"bytes32","internalType":"bytes32"}],"outputs":[{"name":"_adjustedStats","type":"tuple","internalType":"struct AdjustedCombatStats","components":[{"name":"strength","type":"int256","internalType":"int256"},{"name":"agility","type":"int256","internalType":"int256"},{"name":"intelligence","type":"int256","internalType":"int256"},{"name":"armor","type":"int256","internalType":"int256"},{"name":"maxHp","type":"int256","internalType":"int256"},{"name":"currentHp","type":"int256","internalType":"int256"}]}],"stateMutability":"nonpayable"},{"type":"function","name":"applyWorldEffects","inputs":[{"name":"entityId","type":"bytes32","internalType":"bytes32"}],"outputs":[{"name":"_adjustedStats","type":"tuple","internalType":"struct AdjustedCombatStats","components":[{"name":"strength","type":"int256","internalType":"int256"},{"name":"agility","type":"int256","internalType":"int256"},{"name":"intelligence","type":"int256","internalType":"int256"},{"name":"armor","type":"int256","internalType":"int256"},{"name":"maxHp","type":"int256","internalType":"int256"},{"name":"currentHp","type":"int256","internalType":"int256"}]}],"stateMutability":"nonpayable"},{"type":"function","name":"calculateAllStatusEffects","inputs":[{"name":"entityId","type":"bytes32","internalType":"bytes32"}],"outputs":[{"name":"_adjustedStats","type":"tuple","internalType":"struct AdjustedCombatStats","components":[{"name":"strength","type":"int256","internalType":"int256"},{"name":"agility","type":"int256","internalType":"int256"},{"name":"intelligence","type":"int256","internalType":"int256"},{"name":"armor","type":"int256","internalType":"int256"},{"name":"maxHp","type":"int256","internalType":"int256"},{"name":"currentHp","type":"int256","internalType":"int256"}]}],"stateMutability":"nonpayable"},{"type":"function","name":"calculateCombatStatusEffects","inputs":[{"name":"entityId","type":"bytes32","internalType":"bytes32"},{"name":"_incomingStats","type":"tuple","internalType":"struct AdjustedCombatStats","components":[{"name":"strength","type":"int256","internalType":"int256"},{"name":"agility","type":"int256","internalType":"int256"},{"name":"intelligence","type":"int256","internalType":"int256"},{"name":"armor","type":"int256","internalType":"int256"},{"name":"maxHp","type":"int256","internalType":"int256"},{"name":"currentHp","type":"int256","internalType":"int256"}]}],"outputs":[{"name":"_adjustedStats","type":"tuple","internalType":"struct AdjustedCombatStats","components":[{"name":"strength","type":"int256","internalType":"int256"},{"name":"agility","type":"int256","internalType":"int256"},{"name":"intelligence","type":"int256","internalType":"int256"},{"name":"armor","type":"int256","internalType":"int256"},{"name":"maxHp","type":"int256","internalType":"int256"},{"name":"currentHp","type":"int256","internalType":"int256"}]}],"stateMutability":"nonpayable"},{"type":"function","name":"checkWorldStatusEffects","inputs":[{"name":"entityId","type":"bytes32","internalType":"bytes32"}],"outputs":[],"stateMutability":"nonpayable"},{"type":"function","name":"cullExpiredWorldEffect","inputs":[{"name":"entityId","type":"bytes32","internalType":"bytes32"},{"name":"effectId","type":"bytes32","internalType":"bytes32"},{"name":"index","type":"uint256","internalType":"uint256"}],"outputs":[],"stateMutability":"nonpayable"},{"type":"function","name":"currentStacks","inputs":[{"name":"entityId","type":"bytes32","internalType":"bytes32"},{"name":"effectId","type":"bytes32","internalType":"bytes32"}],"outputs":[{"name":"_appliedStack","type":"uint256","internalType":"uint256"}],"stateMutability":"nonpayable"},{"type":"function","name":"expireIfInvalid","inputs":[{"name":"entityId","type":"bytes32","internalType":"bytes32"},{"name":"appliedEffectId","type":"bytes32","internalType":"bytes32"}],"outputs":[{"name":"","type":"bytes32","internalType":"bytes32"}],"stateMutability":"view"},{"type":"function","name":"isValidEffect","inputs":[{"name":"entityId","type":"bytes32","internalType":"bytes32"},{"name":"appliedEffectId","type":"bytes32","internalType":"bytes32"}],"outputs":[{"name":"","type":"bool","internalType":"bool"}],"stateMutability":"view"},{"type":"function","name":"supportsInterface","inputs":[{"name":"interfaceId","type":"bytes4","internalType":"bytes4"}],"outputs":[{"name":"","type":"bool","internalType":"bool"}],"stateMutability":"pure"},{"type":"event","name":"Store_SetRecord","inputs":[{"name":"tableId","type":"bytes32","indexed":true,"internalType":"ResourceId"},{"name":"keyTuple","type":"bytes32[]","indexed":false,"internalType":"bytes32[]"},{"name":"staticData","type":"bytes","indexed":false,"internalType":"bytes"},{"name":"encodedLengths","type":"bytes32","indexed":false,"internalType":"EncodedLengths"},{"name":"dynamicData","type":"bytes","indexed":false,"internalType":"bytes"}],"anonymous":false},{"type":"event","name":"Store_SpliceDynamicData","inputs":[{"name":"tableId","type":"bytes32","indexed":true,"internalType":"ResourceId"},{"name":"keyTuple","type":"bytes32[]","indexed":false,"internalType":"bytes32[]"},{"name":"dynamicFieldIndex","type":"uint8","indexed":false,"internalType":"uint8"},{"name":"start","type":"uint48","indexed":false,"internalType":"uint48"},{"name":"deleteCount","type":"uint40","indexed":false,"internalType":"uint40"},{"name":"encodedLengths","type":"bytes32","indexed":false,"internalType":"EncodedLengths"},{"name":"data","type":"bytes","indexed":false,"internalType":"bytes"}],"anonymous":false},{"type":"event","name":"Store_SpliceStaticData","inputs":[{"name":"tableId","type":"bytes32","indexed":true,"internalType":"ResourceId"},{"name":"keyTuple","type":"bytes32[]","indexed":false,"internalType":"bytes32[]"},{"name":"start","type":"uint48","indexed":false,"internalType":"uint48"},{"name":"data","type":"bytes","indexed":false,"internalType":"bytes"}],"anonymous":false},{"type":"error","name":"EffectNotApplied","inputs":[]},{"type":"error","name":"EncodedLengths_InvalidLength","inputs":[{"name":"length","type":"uint256","internalType":"uint256"}]},{"type":"error","name":"InvalidEffect","inputs":[]},{"type":"error","name":"InvalidEffectApplication","inputs":[]},{"type":"error","name":"InvalidEffectType","inputs":[]},{"type":"error","name":"NonExistentIndex","inputs":[]},{"type":"error","name":"NotEffectType","inputs":[]},{"type":"error","name":"Slice_OutOfBounds","inputs":[{"name":"data","type":"bytes","internalType":"bytes"},{"name":"start","type":"uint256","internalType":"uint256"},{"name":"end","type":"uint256","internalType":"uint256"}]},{"type":"error","name":"Store_IndexOutOfBounds","inputs":[{"name":"length","type":"uint256","internalType":"uint256"},{"name":"accessedIndex","type":"uint256","internalType":"uint256"}]},{"type":"error","name":"Store_InvalidBounds","inputs":[{"name":"start","type":"uint256","internalType":"uint256"},{"name":"end","type":"uint256","internalType":"uint256"}]},{"type":"error","name":"Store_InvalidResourceType","inputs":[{"name":"expected","type":"bytes2","internalType":"bytes2"},{"name":"resourceId","type":"bytes32","internalType":"ResourceId"},{"name":"resourceIdString","type":"string","internalType":"string"}]},{"type":"error","name":"Store_InvalidSplice","inputs":[{"name":"startWithinField","type":"uint40","internalType":"uint40"},{"name":"deleteCount","type":"uint40","internalType":"uint40"},{"name":"fieldLength","type":"uint40","internalType":"uint40"}]}],"bytecode":{"object":"0x6080806040523461001657615046908161001b8239f35b5f80fdfe60806040526004361015610011575f80fd5b5f3560e01c806301ffc9a7146100f45780630e32c35c146100ef578063119df25f146100ea5780632350b879146100e557806326f069a7146100e057806328610bda146100db57806345ec9354146100d657806359ffcdba146100d15780637b430e8d146100cc578063a14542a0146100c7578063d748eca1146100c2578063e1af802c146100bd578063e3140eb8146100b85763e905cb62146100b3575f80fd5b610b05565b610ae4565b610ab8565b610a54565b610715565b6106f3565b6104bf565b6104a0565b610482565b6103e6565b610206565b610181565b61014e565b3461014a57602036600319011261014a5760043563ffffffff60e01b811680910361014a5760209063b5dee12760e01b8114908115610139575b506040519015158152f35b6301ffc9a760e01b1490505f61012e565b5f80fd5b3461014a57604036600319011261014a57602061016f602435600435610bc3565b604051908152f35b5f91031261014a57565b3461014a575f36600319011261014a5736603319013560601c80156101b6575b6040516001600160a01b039091168152602090f35b50336101a1565b60a0809180518452602081015160208501526040810151604085015260608101516060850152608081015160808501520151910152565b60c08101929161020491906101bd565b565b3461014a5760208060031936011261014a57600435610223610d99565b9061022d81610e90565b61023681611787565b928351610250575b6040518061024c85826101f4565b0390f35b90915061026d610261610261612a66565b6001600160a01b031690565b604091604051946310b9a40360e11b865260c086819481806102978a600483019190602083019252565b03915afa9586156103b0575f966103b5575b50856102b3610e19565b505f5b825181101561033d57806102d56102cf60019386610b6e565b516117dc565b80516102e5878c01918251610e5f565b90526102f5878201518b51610e5f565b8a526103358a608092838101516103108c8401918251610e5f565b9052888101516103266060809401918251610e5f565b90520151918b01918251610e5f565b9052016102b6565b50949350505050610352610261610261612a66565b92833b1561014a5761037d935f9283604051809781958294638e9fa2ef60e01b845260048401610e7a565b03925af19182156103b05761024c92610397575b8061023e565b806103a46103aa92610985565b80610177565b5f610391565b610b91565b6103d891965060c03d60c0116103df575b6103d08183610a24565b810190610dc9565b945f6102a9565b503d6103c6565b3461014a57602036600319011261014a57600435610402610d99565b5061040c81610e90565b602460c06001600160a01b03610420612a66565b16604051928380926310b9a40360e11b82528660048301525afa80156103b05761024c92610455925f92610461575b506113af565b604051918291826101f4565b61047b91925060c03d60c0116103df576103d08183610a24565b905f61044f565b3461014a57602036600319011261014a5761049e600435610e90565b005b3461014a575f36600319011261014a576020604051601f193601358152f35b3461014a5760408060031936011261014a5760043590602435906104e1610d99565b506104fc6104f66104f1856119f1565b611a0e565b83611a2b565b9261050b610261610261612a66565b82516310b9a40360e11b8152600481018390529360c0918290869060249082905afa9485156103b0575f956106d4575b50846105468261172c565b91610550816117dc565b9261056461055d876119f1565b9287610bc3565b60208201511161057c575b86518061024c8a826101f4565b60608101511515806106cb575b156105b4575050505050806105a461024c956105a993611b45565b610e90565b5f808080808061056f565b86919293949897500151151590816106c2575b50156106b157835163741d7f3160e11b8152918691839182916105ee919060048401610fef565b038173__$666bd16c4b93f49d1a4b799865d2ca5533$__5af49485156103b0575f95610692575b5050839261062282610e90565b610630610261610261612a66565b803b1561014a578351638e9fa2ef60e01b8152955f91879182908490829061065c908960048401610e7a565b03925af19182156103b05761024c9561067a9361067f575b50611a91565b6105a9565b806103a461068c92610985565b5f610674565b6106a9929550803d106103df576103d08183610a24565b925f80610615565b8351635177d86360e11b8152600490fd5b9050155f6105c7565b50811515610589565b6106ec919550823d84116103df576103d08183610a24565b935f61053b565b3461014a57606036600319011261014a5761049e604435602435600435611050565b3461014a5760408060031936011261014a576024356004803561073781611a0e565b915f94610743856117b8565b61074d8151611322565b928151610795575b50508561075e57005b8561077d61077761049e9861077289611cec565b611038565b87611d09565b610785610a47565b9586526020860152840152611dec565b919493955f979193979473__$666bd16c4b93f49d1a4b799865d2ca5533$__925b8551871015610960576107f06107cc8888610b6e565b5191895163182b237760e31b93848252818060209586938c83019190602083019252565b03818a5af480156103b0576108118491610834935f91610943575b506117dc565b9461081c8c8c610b6e565b51908d51938492839283528c83019190602083019252565b03818a5af480156103b057898491610867935f91610926575b508d51637f1bf71560e11b815293849283928d8401611354565b03818a5af480156103b0576108999484925f92610907575b508c51631f47efe160e11b815295869283928c8401611395565b0381895af49081156103b057898d6001956108c8955f956108d0575b505083916108c291610b6e565b52610e5f565b9601956107b6565b6108c29293955090816108f792903d10610900575b6108ef8183610a24565b810190610b82565b9391905f6108b5565b503d6108e5565b61091f919250833d8511610900576108ef8183610a24565b905f61087f565b61093d9150833d8511610900576108ef8183610a24565b5f61084d565b61095a9150833d8511610900576108ef8183610a24565b5f61080b565b989450959250959350505f80610755565b634e487b7160e01b5f52604160045260245ffd5b6001600160401b03811161099857604052565b610971565b60c081019081106001600160401b0382111761099857604052565b608081019081106001600160401b0382111761099857604052565b606081019081106001600160401b0382111761099857604052565b604081019081106001600160401b0382111761099857604052565b602081019081106001600160401b0382111761099857604052565b601f909101601f19168101906001600160401b0382119082101761099857604052565b60405190610204826109d3565b3461014a5760e036600319011261014a5760c036602319011261014a5761024c610455604051610a838161099d565b602435815260443560208201526064356040820152608435606082015260a435608082015260c43560a08201526004356113af565b3461014a575f36600319011261014a576020610ad2612a66565b6040516001600160a01b039091168152f35b3461014a57604036600319011261014a57602061016f60243560043561152b565b3461014a57604036600319011261014a576020610b2e610b2960243560043561152b565b6118a7565b6040519015158152f35b634e487b7160e01b5f52603260045260245ffd5b805115610b595760200190565b610b38565b805160011015610b595760400190565b8051821015610b595760209160051b010190565b9081602091031261014a575190565b6040513d5f823e3d90fd5b634e487b7160e01b5f52601160045260245ffd5b5f198114610bbe5760010190565b610b9c565b5f90610bce8361172c565b606081015115801580610d8d575b15610c9e575050610bef909392936117b8565b9273__$666bd16c4b93f49d1a4b799865d2ca5533$__905f5b8551811015610c9757610c42610c1e8288610b6e565b516040519063182b237760e31b825281806020948593600483019190602083019252565b0381885af49182156103b0575f92610c7a575b50508214610c66575b600101610c08565b92610c72600191610bb0565b939050610c5e565b610c909250803d10610900576108ef8183610a24565b5f80610c55565b5050509150565b604080969392959695015115159081610d85575b5015610d7357610cc490939193611787565b9373__$666bd16c4b93f49d1a4b799865d2ca5533$__915f5b8651811015610d6b57610d16610cf38289610b6e565b5183519063182b237760e31b825281806020948593600483019190602083019252565b0381895af49182156103b0575f92610d4e575b50508314610d3a575b600101610cdd565b93610d46600191610bb0565b949050610d32565b610d649250803d10610900576108ef8183610a24565b5f80610d29565b505050509150565b60405163a4840cbb60e01b8152600490fd5b90505f610cb2565b50604082015115610bdc565b60405190610da68261099d565b5f60a0838281528260208201528260408201528260608201528260808201520152565b908160c091031261014a5760a060405191610de38361099d565b8051835260208101516020840152604081015160408401526060810151606084015260808101516080840152015160a082015290565b6040519060e082016001600160401b03811183821017610998576040525f60c0838281528260208201528260408201528260608201528260808201528260a08201520152565b9190915f8382019384129112908015821691151617610bbe57565b90815260e08101929161020491602001906101bd565b610e9981611787565b5f908051610f22575b5091905f905b838210610eb55750509050565b610ebe81611787565b925f5b8451811015610f1557610ee4610ee0610eda8388610b6e565b516118a7565b1590565b610ef057600101610ec1565b80610f05610f0c926001959798969498610b6e565b5186611050565b01909291610ea8565b5093916001919350610f0c565b5f9392935b8151811015610f7c57610f44610f3d8284610b6e565b518661152b565b610f50610ee0826118a7565b610f5e575b50600101610f27565b8193610f70610f759260019489611920565b610bb0565b9290610f55565b50509190915f610ea2565b60041115610f9157565b634e487b7160e01b5f52602160045260245ffd5b60c08091805184526020810151602085015260408101516040850152606081015160608501526080810151608085015260a0810151610fe381610f87565b60a08501520151910152565b9160c0610204929493611007816101a08101976101bd565b0190610fa5565b5f19810191908211610bbe57565b601f19810191908211610bbe57565b91908203918211610bbe57565b81810392915f138015828513169184121617610bbe57565b9092919261105d82611be1565b91848311156112f9576110708582611c04565b9473__$666bd16c4b93f49d1a4b799865d2ca5533$__9060409485519463182b237760e31b938487526020946004978681806110b3878d83019190602083019252565b0381865af49182156103b0576110e7938a8e928a945f966112da575b508d5196879485938493845283019190602083019252565b03915af49182156103b0575f926112bb575b50036112ab576111369596979860c086611117610261610261612a66565b8b516310b9a40360e11b8152808c01928352998a928391829160200190565b03915afa9687156103b0575f9761128a575b50801561127a578161115c610ee0826118a7565b9182611270575b50501561126057611173906117dc565b916001821161123d575b505061118883611c50565b8051611198838601918251611038565b90526111a960c08201518551611038565b845260808101516111be878601918251611038565b905260608101516111d460808601918251611038565b905201516111e760608401918251611038565b90526111f7610261610261612a66565b90813b1561014a575f809461121f965196879586948593638e9fa2ef60e01b85528401610e7a565b03925af180156103b0576112305750565b806103a461020492610985565b61125261124c6112599361100e565b86611c04565b9085611920565b5f8061117d565b875163c46e385f60e01b81528790fd5b149050815f611163565b885163c46e385f60e01b81528890fd5b6112a491975060c03d60c0116103df576103d08183610a24565b955f611148565b865163c46e385f60e01b81528690fd5b6112d3919250863d8811610900576108ef8183610a24565b905f6110f9565b6112f2919650853d8711610900576108ef8183610a24565b945f6110cf565b604051633bcfa7c160e11b8152600490fd5b6001600160401b0381116109985760051b60200190565b9061132c8261130b565b6113396040519182610a24565b828152809261134a601f199161130b565b0190602036910137565b90604082019082526020606081936040838201528551809452019301915f5b828110611381575050505090565b835185529381019392810192600101611373565b60e090939291936113ab81610100810196610fa5565b0152565b91906113b9610d99565b506113c383610e90565b6113cb610e19565b50916113d681611edf565b80516113e0575050565b91909260605f93019173__$666bd16c4b93f49d1a4b799865d2ca5533$__915b83518051861015611500578561141591610b6e565b516040805163182b237760e31b81526004808201849052929190602080826024818b5af480156103b05761145c92611455925f926114e3575b50506117dc565b928a61152b565b611465816118a7565b156114ca57509061148c9291518093819263741d7f3160e11b835260c09687958401610fef565b0381875af49081156103b0576001925f926114ad575b5050945b0193611400565b6114c39250803d106103df576103d08183610a24565b5f806114a2565b9050876001949893506114de925089611f52565b6114a6565b6114f99250803d10610900576108ef8183610a24565b5f8061144e565b50945092505050565b919082608091031261014a578151916020810151916060604083015192015190565b611534826118a7565b156116cf57604051633303373d60e11b81526004810183905273__$666bd16c4b93f49d1a4b799865d2ca5533$__91608082602481865af49283156103b0575f925f94611696575b506001600160c01b0319851685146116845760405163182b237760e31b81526004810186905290602090829060249082905af480156103b0576115c6915f91611665575b5061172c565b925f935f936040820180511591821561164f575b5050611646575b60600190815115928315611623575b50505061161b575b81611613575b50156116075790565b61161090612001565b90565b90505f6115fe565b5060016115f8565b61163a9293506104f1611635916119f1565b61102b565b905110155f80806115f0565b600194506115e1565b61165b9192504261102b565b9051115f806115da565b61167e915060203d602011610900576108ef8183610a24565b5f6115c0565b60405163cf75903f60e01b8152600490fd5b9093506116bc91925060803d6080116116c8575b6116b48183610a24565b810190611509565b9392505091925f61157c565b503d6116aa565b5090565b604051906116e0826109b8565b5f6060838281528260208201528260408201520152565b60405190611704826109ee565b6001825260203681840137565b6040519061171e826109d3565b600282526040366020840137565b6117346116d3565b5061173d6116f7565b805115610b5957611752916020820152612141565b505061175c6116d3565b9060208101519060408101519060806060820151910151606085015260408401526020830152815290565b61178f6116f7565b805115610b59576117ab816116109360206117b394015261241d565b80519061259c565b612d10565b6117c06116f7565b805115610b59576117ab816116109360206117b39401526124dc565b602061180a916117ea610e19565b506040518093819263182b237760e31b8352600483019190602083019252565b038173__$666bd16c4b93f49d1a4b799865d2ca5533$__5af49081156103b0575f91611888575b5061183b81612619565b6003815161184881610f87565b61185181610f87565b149081159161187b575b506118695761161090612678565b6040516336fb4f7160e21b8152600490fd5b602001511590505f61185b565b6118a1915060203d602011610900576108ef8183610a24565b5f611831565b6040519063c169e5a960e01b8252600482015260208160248173__$666bd16c4b93f49d1a4b799865d2ca5533$__5af49081156103b0575f916118e8575090565b90506020813d602011611918575b8161190360209383610a24565b8101031261014a5751801515810361014a5790565b3d91506118f6565b919061192a6116f7565b92835115610b595760208401526040519160208301526020825261194d826109ee565b815164ffffffffff9081169160051b166001600160a01b0361196d612a66565b1630810361197f575061020493612d71565b909293813b1561014a5760405163605144ad60e11b81525f80516020615006833981519152600482015260c06024820152945f94869485938793859361121f9390926119cf9060c487019061210e565b92866044870152606486015260848501526003198483030160a485015261256a565b6119f96116f7565b805115610b5957611610916020820152612707565b611a166116f7565b805115610b5957611610916020820152612792565b90604051916304f26f5b60e31b83526004830152426024830152604482015260208160648173__$666bd16c4b93f49d1a4b799865d2ca5533$__5af49081156103b0575f91611a78575090565b611610915060203d602011610900576108ef8183610a24565b90611a9a6116f7565b91825115610b5957602083015260405190602082015260208152611abd816109ee565b6001600160a01b03611acd612a66565b1691308303611ae0576102049250613346565b90823b1561014a57604051630a87993160e11b81525f80516020615006833981519152600482015260806024820152925f92849283918591839161121f9190611b2d90608485019061210e565b9084604485015260031984830301606485015261256a565b90611b4e6116f7565b91825115610b5957602083015260405190602082015260208152611b71816109ee565b6001600160a01b03611b81612a66565b1691308303611b94576102049250613559565b90823b1561014a57604051630a87993160e11b81525f80516020614fc6833981519152600482015260806024820152925f92849283918591839161121f9190611b2d90608485019061210e565b611be96116f7565b805115610b5957611bfe9160208201526128c9565b60051c90565b90611c0d6116f7565b805115610b5957611c2e9260208201526001820160051b9160051b90612930565b602081519101519060208110611c42575090565b5f199060200360031b1b1690565b611c586116f7565b90815115610b595760208201526001600160a01b03611c75612a66565b16308103611c87575061020490613803565b803b1561014a576040516336700e8160e21b81525f80516020615006833981519152600482015260806024820152915f918391829084908290611cce90608483019061210e565b8260448301526020606483015203925af180156103b0576112305750565b611cf46116f7565b805115610b595761161091602082015261282f565b90611d126116f7565b91825115610b5957602083015260405190602082015260208152611d35816109ee565b6001600160a01b03611d45612a66565b1691308303611d58576102049250613a64565b90823b1561014a576040516301c85d5760e51b815264537461747360581b631d18955160e21b01600482015260a06024820152925f928492839185918391611dc29190611da99060a485019061210e565b600560448501528381036003190160648501529061256a565b6fe60d002020012020202020010101010160781b608483015203925af180156103b0576112305750565b91908151916020918282015160409283918251968688015282870152818652611e14866109d3565b0151928351928360051b94848604831485151715610bbe578151868101603f01601f1916835286815291838301918401825f5b888110611ea7575050509261020498969492611e8092611e7399979551998a9251809285850190612063565b8101038089520187610a24565b611e88611711565b94611e9286610b4c565b52611e9c85610b5e565b52603d1b17916129bc565b825182529186019190860190600101611e47565b60405190611ec8826109b8565b606080835f81525f60208201525f60408201520152565b611ee7611ebb565b50611ef06116f7565b90815115610b59576117b3611f1383611f4a93602064ffffffffff96015261220a565b919490611f1e611ebb565b956020810151906041604082015160f81c910151604089015215156020880152865260381c169061259c565b606082015290565b9190611f5c6116f7565b92835115610b5957602084015260405191602083015260208252611f7f826109ee565b815164ffffffffff9081169160051b166001600160a01b03611f9f612a66565b16308103611fb1575061020493613001565b909293813b1561014a5760405163605144ad60e11b81525f80516020614fc6833981519152600482015260c06024820152945f94869485938793859361121f9390926119cf9060c487019061210e565b604051906333e0795160e01b8252600482015242602482015260208160448173__$666bd16c4b93f49d1a4b799865d2ca5533$__5af49081156103b0575f91611a78575090565b6001600160401b03811161099857601f01601f191660200190565b5f5b8381106120745750505f910152565b8181015183820152602001612065565b81601f8201121561014a57805161209a81612048565b926120a86040519485610a24565b8184526020828401011161014a576116109160208085019101612063565b909160608284031261014a5781516001600160401b03929083811161014a57846120f1918301612084565b93602082015193604083015190811161014a576116109201612084565b9081518082526020808093019301915f5b82811061212d575050505090565b83518552938101939281019260010161211f565b6001600160a01b03612151612a66565b1630810361216a575061216390612a9b565b9192909190565b60405163419b58fd60e01b81526f53746174757345666665637456616c69631d18955160e21b0160048201526060602482015292915f918491829081906121b590606483019061210e565b660400200101010160c51b604483015203915afa9081156103b0575f80935f936121e0575b50929190565b9193505061220091503d805f833e6121f88183610a24565b8101906120c6565b929092915f6121da565b6001600160a01b0361221a612a66565b1630810361222c575061216390612b42565b60405163419b58fd60e01b81525f80516020614fc683398151915260048201526060602482015292915f9184918290819061226b90606483019061210e565b6502081809000960cd1b604483015203915afa9081156103b0575f80935f936121e05750929190565b6001600160a01b036122a4612a66565b163081036122b6575061216390612bfb565b60405163419b58fd60e01b8152664566666563747360481b631d18955160e21b0160048201526060602482015292915f918491829081906122fb90606483019061210e565b64020200010160d01b604483015203915afa9081156103b0575f80935f936121e05750929190565b6001600160a01b03612333612a66565b16308103612345575061216390612c85565b60405163419b58fd60e01b81526f53746174757345666665637453746174631d18955160e21b0160048201526060602482015292915f9184918290819061239090606483019061210e565b690608380101010101000960ad1b604483015203915afa9081156103b0575f80935f936121e05750929190565b9060208282031261014a5781516001600160401b03811161014a576116109201612084565b919060406124185f926f576f726c645374617475734566666563631d18955160e21b01865260606020870152606086019061210e565b930152565b6001600160a01b0361242d612a66565b1630810361248a57506116109064ffffffffff61247f5f80516020614fe68339815191526040516020810190612475816124678885613ef0565b03601f198101835282610a24565b519020189261492b565b5460381c1690614457565b6124ab915f916040518080958194631e78897760e01b8352600483016123e2565b03915afa9081156103b0575f916124c0575090565b61161091503d805f833e6124d48183610a24565b8101906123bd565b6001600160a01b036124ec612a66565b1630810361251157508064ffffffffff61247f61250b611610946141db565b92614955565b604051631e78897760e01b81525f80516020614fc6833981519152600482015260606024820152915f9183918290819061254f90606483019061210e565b85604483015203915afa9081156103b0575f916124c0575090565b9060209161258381518092818552858086019101612063565b601f01601f1916010190565b91908201809211610bbe57565b90815181116125bb576001600160801b031660209190910160801b1790565b6040516323230fa360e01b815260606004820152925082916125e190606484019061256a565b905f602484015260448301520390fd5b60408051919082016001600160401b03811183821017610998576040525f6020838281520152565b6126216125f1565b5061262a6116f7565b805115610b595761263f916020820152612294565b50506126496125f1565b906021602082015160f81c9161265e83610f87565b015160f81c1515602083015261267381610f87565b815290565b612680610e19565b506126896116f7565b805115610b595761269e916020820152612323565b50506126a8610e19565b906020810151906040810151906060810151906080810151906126ee60a08201519160c160c082015160f81c916126de83610f87565b015160c089015260a08801612d65565b6080860152606085015260408401526020830152815290565b6001600160a01b03612717612a66565b16308103612729575061161090613202565b604051638c364d5960e01b81525f80516020614fc68339815191526004820152608060248201529160209183918290819061276890608483019061210e565b5f60448301526502081809000960cd1b606483015203915afa9081156103b0575f91611a78575090565b6001600160a01b036127a2612a66565b163081036127b457506116109061322d565b604051638c364d5960e01b81526f436f6d626174456e636f756e74657200631d18955160e21b01600482015260806024820152916020918391829081906127ff90608483019061210e565b600460448301526aa30802012020012020200160a01b606483015203915afa9081156103b0575f91611a78575090565b6001600160a01b0361283f612a66565b163081036128515750611610906132d8565b604051638c364d5960e01b815264537461747360581b631d18955160e21b016004820152608060248201529160209183918290819061289490608483019061210e565b600560448301526fe60d002020012020202020010101010160781b606483015203915afa9081156103b0575f91611a78575090565b6001600160a01b036128d9612a66565b163081036128f957506128f164ffffffffff9161492b565b5460381c1690565b61291b91602091604051808095819463dbbf0e2160e01b8352600483016123e2565b03915afa9081156103b0575f91611a78575090565b9091906001600160a01b03612943612a66565b1630810361295657509161161092613736565b604051634dc77d9760e01b81525f80516020615006833981519152600482015260a06024820152935f9385938492839290916129969060a485019061210e565b918760448501526064840152608483015203915afa9081156103b0575f916124c0575090565b909291906001600160a01b036129d0612a66565b163081036129e357509261020493613c3f565b909192813b1561014a575f612a529361121f8296612a3f94604051998a988997889663298314fb60e01b88526f44616d6167654f76657254696d654170631d18955160e21b01600489015260a0602489015260a488019061210e565b600319928388830301604489015261256a565b92606486015284830301608485015261256a565b7f629a4c26e296b22a8e0856e9f6ecb2d1008d7e00081111962cd175fa7488e175546001600160a01b03168061161057503390565b5f906060906040519060209082612ab6602082019283614037565b0392612aca601f1994858101835282610a24565b5190205f80516020614fa68339815191521891604051928160bf850116604052608084526020840192608091925b81831015612b2a57505080612b0e575b50505092565b5f199060031b1c908183511691199054161790525f8080612b08565b81600185839495979654875201940194019190612af8565b612b53612b4e826147ea565b6143eb565b91612b5d8261496a565b549266ffffffffffffff841692612b8c612b7685612048565b94612b846040519687610a24565b808652612048565b602085019490601f190136863793915f925b60ff8416906001821015612bf1579081612bd6612bdb9364ffffffffff8b612bc68a8a614206565b956028026038011c1680946142f8565b61258f565b9260ff809116908114610bbe5760010192612b9e565b5050949392915050565b5f906060906040519060209082612c16602082019283614082565b0392612c2a601f1994858101835282610a24565b5190205f80516020614fa6833981519152189160405192816041850116604052600284526020840192600291925b81831015612c6d57505080612b0e5750505092565b81600185839495979654875201940194019190612c58565b5f906060906040519060209082612ca06020820192836140c7565b0392612cb4601f1994858101835282610a24565b5190205f80516020614fa68339815191521891604051928161010085011660405260c18452602084019260c191925b81831015612cf857505080612b0e5750505092565b81600185839495979654875201940194019190612ce3565b6040805160206020600160801b0384168201810190925260016001607b1b03600584901c1680825290939260801c8285015f5b838110612d51575050505050565b825182529184019190840190600101612d43565b612d6e82610f87565b52565b91909392612d7e8361497f565b549464ffffffffff808760381c1695612da4612d9c8387168961102b565b85519061258f565b87811415928380612fe1575b612fb257841697808911612f8f5750612dc990896149d3565b90612dd2614c9d565b925f5b8451811015612e8057612e09612dfc612dee8388610b6e565b516001600160581b03191690565b6001600160581b03191690565b6010808260581c1614612e20575b50600101612dd5565b60601c90813b1561014a575f898d9389838e612e538e604051998a9788968795630abd6b4560e31b875260048701614600565b03925af19182156103b057600192612e6d575b5090612e17565b806103a4612e7a92610985565b5f612e66565b5096948093929950612ee39198604098875f80516020614f868339815191528d8b612ecd87604051938493896f576f726c645374617475734566666563631d18955160e21b019886614728565b0390a2612f7f575b612ede8761428b565b614e9b565b5f5b8151811015612f7457612efe612dfc612dee8385610b6e565b6020808260581c1614612f15575b50600101612ee5565b60601c90813b1561014a575f878b9387838a612f478a8f51998a9788968795636358453360e01b875260048701614600565b03925af19182156103b057600192612f61575b5090612f0c565b806103a4612f6e92610985565b5f612f5a565b505050505050509050565b8a612f8988614994565b55612ed5565b604051637e8578d360e01b8152908190612fae908790600484016144e4565b0390fd5b604051632994042d60e21b815264ffffffffff868116600483015288811660248301528a166044820152606490fd5b5088612ffa612ff089886144cb565b64ffffffffff1690565b1415612db0565b9190939261300e8361496a565b549464ffffffffff808760381c169561302c612d9c8387168961102b565b878114159283806131ec575b612fb257841697808911612f8f575061305190896149d3565b9061305a614d47565b925f5b84518110156130ed57613076612dfc612dee8388610b6e565b6010808260581c161461308d575b5060010161305d565b60601c90813b1561014a575f898d9389838e6130c08e604051998a9788968795630abd6b4560e31b875260048701614665565b03925af19182156103b0576001926130da575b5090613084565b806103a46130e792610985565b5f6130d3565b509694809392995061314b9198604098875f80516020614f868339815191528d8b61313a87604051938493896f456e636f756e746572456e7469747900631d18955160e21b019886614728565b0390a26131dc575b612ede876142af565b5f5b8151811015612f7457613166612dfc612dee8385610b6e565b6020808260581c161461317d575b5060010161314d565b60601c90813b1561014a575f878b9387838a6131af8a8f51998a9788968795636358453360e01b875260048701614665565b03925af19182156103b0576001926131c9575b5090613174565b806103a46131d692610985565b5f6131c2565b8a6131e6886149a9565b55613142565b50886131fb612ff089886144cb565b1415613038565b60405161321781612467602082019485613f6e565b5190205f80516020614fa6833981519152185490565b60405161324281612467602082019485613fad565b5190205f80516020614fa6833981519152185f905f5b600481106132ab575081816020821015613295575b505080548260031b1b91602003908160201161328857505090565b600101549060031b1c1790565b90809350601f925060051c019116905f8061326d565b9160ff6aa30802012020012020200160a01b84601b0360031b1c168101809111610bbe5791600101613258565b6132e190614774565b5f905f5b6005811061331457508181602082101561329557505080548260031b1b91602003908160201161328857505090565b9160ff6fe60d002020012020202020010101010160781b84601b0360031b1c168101809111610bbe57916001016132e5565b9190916133528161497f565b5464ffffffffff8160381c1661336985518261258f565b8181141594908580613544575b6135185761338490846149d3565b9061338d614a50565b915f5b835181101561341f576133a9612dfc612dee8387610b6e565b6010808260581c16146133c0575b50600101613390565b60601c90813b1561014a575f878b9388838c6133f260405198899687958694630abd6b4560e31b8652600486016144fb565b03925af19182156103b05760019261340c575b50906133b7565b806103a461341992610985565b5f613405565b506040805192979195509392915f80516020615006833981519152905f80516020614f8683398151915290806134588c8a898d8561469d565b0390a2613508575b61346e8783612ede88614243565b5f5b81518110156134fe57613489612dfc612dee8385610b6e565b6020808260581c16146134a0575b50600101613470565b60601c90813b1561014a575f868a9386838b6134d18b5198899687958694636358453360e01b8652600486016144fb565b03925af19182156103b0576001926134eb575b5090613497565b806103a46134f892610985565b5f6134e4565b5050505050509050565b836135128661497f565b55613460565b604051632994042d60e21b815264ffffffffff8416600482018190525f60248301526044820152606490fd5b5082613552612ff0826144a2565b1415613376565b9190916135658161496a565b5464ffffffffff8160381c1661357c85518261258f565b8181141594908580613721575b6135185761359790846149d3565b906135a0614b51565b915f5b8351811015613632576135bc612dfc612dee8387610b6e565b6010808260581c16146135d3575b506001016135a3565b60601c90813b1561014a575f878b9388838c61360560405198899687958694630abd6b4560e31b86526004860161455e565b03925af19182156103b05760019261361f575b50906135ca565b806103a461362c92610985565b5f613618565b506040805192979195509392915f80516020614fc6833981519152905f80516020614f86833981519152908061366b8c8a898d8561469d565b0390a2613711575b6136818783612ede88614267565b5f5b81518110156134fe5761369c612dfc612dee8385610b6e565b6020808260581c16146136b3575b50600101613683565b60601c90813b1561014a575f868a9386838b6136e48b5198899687958694636358453360e01b86526004860161455e565b03925af19182156103b0576001926136fe575b50906136aa565b806103a461370b92610985565b5f6136f7565b8361371b8661496a565b55613673565b508261372f612ff0826144a2565b1415613589565b9190918183116137e35761375a61374c8261497f565b5460381c64ffffffffff1690565b808410801580916137da575b61379a575050908261377a61161093614243565b910360405193601f19603f83870101166040528185526020850192614342565b8385915f146137c85750905b604051637e8578d360e01b815260048101919091526024810191909152604490fd5b5f19810191508111610bbe57906137a6565b50818411613766565b50604051635462a3c160e11b815260048101929092526024820152604490fd5b61380c8161492b565b549064ffffffffff91828160381c1692601f198401848111610bbe571660409081519561383887610a09565b5f87525f36813761385361384b8761101c565b88519061258f565b86811415968780613a4f575b613a2057808411613a02575061387590856149d3565b9061387e614a50565b915f5b835181101561390f5761389a612dfc612dee8387610b6e565b6010808260581c16146138b1575b50600101613881565b60601c90813b1561014a575f888c9388838d6138e28d5198899687958694630abd6b4560e31b86526004860161459c565b03925af19182156103b0576001926138fc575b50906138a8565b806103a461390992610985565b5f6138f5565b5094509583515f80516020614f868339815191526f576f726c645374617475734566666563631d18955160e21b01918061394c8c8a898d856146e2565b0390a26139f2575b6139628783612ede88614243565b5f5b81518110156134fe5761397d612dfc612dee8385610b6e565b6020808260581c1614613994575b50600101613964565b60601c90813b1561014a575f868a9386838b6139c58b5198899687958694636358453360e01b86526004860161459c565b03925af19182156103b0576001926139df575b509061398b565b806103a46139ec92610985565b5f6139d8565b836139fc8661497f565b55613954565b8451637e8578d360e01b8152908190612fae908690600484016144e4565b8451632994042d60e21b815264ffffffffff858116600483015260206024830152919091166044820152606490fd5b5080613a5d612ff0866144b5565b141561385f565b9190915f805b60058210613c0c5765ffffffffffff915016613a8582614774565b613a8d614bfb565b905f5b8251811015613b1a57613aa9612dfc612dee8386610b6e565b9060049182808260581c1614613ac5575b506001915001613a90565b60601c803b1561014a57855f9188838c96613af46040519889968795869463964f667d60e01b86528501614845565b03925af19182156103b05760019215613aba57806103a4613b1492610985565b5f613aba565b50604080519096939291613b76918591859164537461747360581b631d18955160e21b01907f8c0b5119d4cec7b284c6b1b39252a03d1e2f2d7451a5895562524c113bb952be9080613b6e87878e84614814565b0390a2614e9b565b5f5b8151811015613c0357613b91612dfc612dee8385610b6e565b6008808260581c1614613ba8575b50600101613b78565b60601c90813b1561014a57875163a8ba872160e01b8152915f908390818381613bd68b8b8e60048501614845565b03925af19182156103b057600192613bf0575b5090613b9f565b806103a4613bfd92610985565b5f613be9565b50505050509050565b60ff6fe60d002020012020202020010101010160781b83601b0360031b1c168101809111610bbe57600190910190613a6a565b60408051655461626c657360501b66746273746f726560c81b01602082019081526f44616d6167654f76657254696d654170631d18955160e21b0182840181905283835296979295949291613c93816109d3565b5190205f80516020614fa6833981519152185490613caf614df1565b905f5b8251811015613d4257613ccb612dfc612dee8386610b6e565b6001808260581c1614613ce2575b50600101613cb2565b60601c90813b1561014a575f888c9388838b613d158f8c9051998a97889687956315c19b2760e21b8752600487016148cc565b03925af19182156103b057600192613d2f575b5090613cd9565b806103a4613d3c92610985565b5f613d28565b50967f8dbb3a9672eebfd3773e72dd9c102393436816d832c7ba9e1e1ac8fcadcac7a9875180613d758c8a898b85614890565b0390a2613d90613d84856147ff565b84516020860191614eac565b60ff808360e01c1680613e31575b50505f5b8151811015612f7457613dbb612dfc612dee8385610b6e565b6002808260581c1614613dd2575b50600101613da2565b60601c90813b1561014a575f878b9387838a613e048a8f51998a9788968795635b28cdaf60e01b8752600487016148cc565b03925af19182156103b057600192613e1e575b5090613dc9565b806103a4613e2b92610985565b5f613e17565b9690989295949385613e45869a949a6149be565b555f96602085015b8b8916908a821015613e9257613e898d9282612bd660019464ffffffffff8f8f908f90613e79916142d3565b956028026038011c168094614eac565b99011697613e4d565b5050939950939495509550955f80613d9e565b6953746f7265486f6f6b7360301b66746273746f726560c81b01815281516020918201928201915f5b828110613edc575050505090565b835185529381019392810192600101613ece565b5f80516020615006833981519152815281516020918201928201915f5b828110613f1b575050505090565b835185529381019392810192600101613f0d565b5f80516020614fc6833981519152815281516020918201928201915f5b828110613f5a575050505090565b835185529381019392810192600101613f4c565b5f80516020614fc6833981519152815281516020918201928201915f5b828110613f99575050505090565b835185529381019392810192600101613f8b565b6f436f6d626174456e636f756e74657200631d18955160e21b01815281516020918201928201915f5b828110613fe4575050505090565b835185529381019392810192600101613fd6565b5f80516020615006833981519152815281516020918201928201915f5b828110614023575050505090565b835185529381019392810192600101614015565b6f53746174757345666665637456616c69631d18955160e21b01815281516020918201928201915f5b82811061406e575050505090565b835185529381019392810192600101614060565b664566666563747360481b631d18955160e21b01815281516020918201928201915f5b8281106140b3575050505090565b8351855293810193928101926001016140a5565b6f53746174757345666665637453746174631d18955160e21b01815281516020918201928201915f5b8281106140fe575050505090565b8351855293810193928101926001016140f0565b5f80516020615006833981519152815281516020918201928201915f5b82811061413d575050505090565b83518552938101939281019260010161412f565b5f80516020614fc6833981519152815281516020918201928201915f5b82811061417c575050505090565b83518552938101939281019260010161416e565b6f44616d6167654f76657254696d654170631d18955160e21b01815281516020918201928201915f5b8281106141c7575050505090565b8351855293810193928101926001016141b9565b5f80516020614fe6833981519152906040516141ff81612467602082019485613f2f565b5190201890565b905f80516020614fe68339815191529160405161422b81612467602082019485613f6e565b51902060f89190911b6001600160f81b031916181890565b5f80516020614fe6833981519152906040516141ff81612467602082019485613ff8565b5f80516020614fe6833981519152906040516141ff81612467602082019485613f6e565b5f80516020614fe6833981519152906040516141ff81612467602082019485614112565b5f80516020614fe6833981519152906040516141ff81612467602082019485614151565b905f80516020614fe68339815191529160405161422b81612467602082019485614190565b9291925b60209081831061431c5780548552930192601f19909101906001016142fc565b9190509291928061432c57505050565b5f199060031b1c90818351169119905416179052565b909392919380614371575b5092909260209081831061431c5780548552930192601f19909101906001016142fc565b60208110156143db575b801561434d5791939082602003908183105f146143cf575f198360031b1c5b8154818851169119908660031b1b16178652818311156143c757600101940191601f19910101925f61434d565b505050509050565b5f198260031b1c61439a565b90601f908260051c01911661437b565b60405190602090601f1990816080850116604052604184526020840192604191925b8183101561443f57505080614423575b50505090565b5f199060031b1c908183511691199054161790525f808061441d565b8160018583949597965487520194019401919061440d565b60408051601f19603f85830101811690925283815292602080850193925b8183101561448a575050806144235750505090565b81600185839495979654875201940194019190614475565b9064ffffffffff809216918211610bbe57565b90602064ffffffffff80931601918211610bbe57565b91909164ffffffffff80809416911601918211610bbe57565b90815264ffffffffff909116602082015260400190565b909264ffffffffff6145396116109694956f576f726c645374617475734566666563631d18955160e21b01855260e0602086015260e085019061210e565b945f60408501521660608301525f608083015260a082015260c081840391015261256a565b909264ffffffffff6145396116109694956f456e636f756e746572456e7469747900631d18955160e21b01855260e0602086015260e085019061210e565b909264ffffffffff6145da6116109694956f576f726c645374617475734566666563631d18955160e21b01855260e0602086015260e085019061210e565b945f60408501521660608301526020608083015260a082015260c081840391015261256a565b91614638611610969495926f576f726c645374617475734566666563631d18955160e21b01855260e0602086015260e085019061210e565b945f604085015264ffffffffff809216606085015216608083015260a082015260c081840391015261256a565b91614638611610969495926f456e636f756e746572456e7469747900631d18955160e21b01855260e0602086015260e085019061210e565b909265ffffffffffff6146bd61161096949560c0855260c085019061210e565b945f60208501521660408301525f6060830152608082015260a081840391015261256a565b909265ffffffffffff61470261161096949560c0855260c085019061210e565b945f602085015216604083015260206060830152608082015260a081840391015261256a565b919390611610959365ffffffffffff61474f64ffffffffff9360c0875260c087019061210e565b965f6020870152166040850152166060830152608082015260a081840391015261256a565b604051602081602081019364537461747360581b631d18955160e21b0185526040820160208251919201935f5b8281106147d3575050506147be925003601f198101835282610a24565b5190205f80516020614fa68339815191521890565b8551845294810194869450928101926001016147a1565b6040516147be81612467602082019485614151565b6040516147be81612467602082019485614190565b65ffffffffffff614831611610959360608452606084019061210e565b93166020820152604081840391015261256a565b64537461747360581b631d18955160e21b018152608060208201819052611610949265ffffffffffff9161487c919084019061210e565b93166040820152606081840391015261256a565b9061161094926148ab6148b99260808552608085019061210e565b90838203602085015261256a565b926040820152606081840391015261256a565b9594936149186124189361490a60a096946f44616d6167654f76657254696d654170631d18955160e21b018b5260c060208c015260c08b019061210e565b9089820360408b015261256a565b916060880152868203608088015261256a565b60405161494081612467602082019485613ef0565b5190205f805160206150268339815191521890565b60405161494081612467602082019485613f2f565b60405161494081612467602082019485613f6e565b60405161494081612467602082019485613ff8565b60405161494081612467602082019485614112565b60405161494081612467602082019485614151565b60405161494081612467602082019485614190565b64ffffffffff808311614a375766ffffffffffffff821690603883901c1683818110614a2d570301915b64ffffffffff60381b60389190911b1664ffffffffff60381b19929092166001600160601b031991909116171790565b90039003916149fd565b604051637149a3c160e01b815260048101849052602490fd5b614a586116f7565b805115610b5957614b036117ab6020926f576f726c645374617475734566666563631d18955160e21b018482015264ffffffffff604051915f80516020614fe683398151915286840184614aac8483613ea5565b0394614ac0601f1996878101835282610a24565b5190201892614ae66040519182614ada8a82019586613ea5565b03908101835282610a24565b5190205f80516020615026833981519152185460381c1690614457565b8060801c916015809260018060801b0316049060405193818501828460051b8701016040528386525f5b848110614b3d5750505050505090565b825182529185019190830190600101614b2d565b614b596116f7565b805115610b5957614bad6117ab6020926f456e636f756e746572456e7469747900631d18955160e21b018482015264ffffffffff604051915f80516020614fe683398151915286840184614aac8483613ea5565b8060801c916015809260018060801b0316049060405193818501828460051b8701016040528386525f5b848110614be75750505050505090565b825182529185019190830190600101614bd7565b614c036116f7565b805115610b5957614c4f6117ab60209264537461747360581b631d18955160e21b018482015264ffffffffff604051915f80516020614fe683398151915286840184614aac8483613ea5565b8060801c916015809260018060801b0316049060405193818501828460051b8701016040528386525f5b848110614c895750505050505090565b825182529185019190830190600101614c79565b614ca56116f7565b805115610b5957614cf96117ab6020926f576f726c645374617475734566666563631d18955160e21b018482015264ffffffffff604051915f80516020614fe683398151915286840184614aac8483613ea5565b8060801c916015809260018060801b0316049060405193818501828460051b8701016040528386525f5b848110614d335750505050505090565b825182529185019190830190600101614d23565b614d4f6116f7565b805115610b5957614da36117ab6020926f456e636f756e746572456e7469747900631d18955160e21b018482015264ffffffffff604051915f80516020614fe683398151915286840184614aac8483613ea5565b8060801c916015809260018060801b0316049060405193818501828460051b8701016040528386525f5b848110614ddd5750505050505090565b825182529185019190830190600101614dcd565b614df96116f7565b805115610b5957614e4d6117ab6020926f44616d6167654f76657254696d654170631d18955160e21b018482015264ffffffffff604051915f80516020614fe683398151915286840184614aac8483613ea5565b8060801c916015809260018060801b0316049060405193818501828460051b8701016040528386525f5b848110614e875750505050505090565b825182529185019190830190600101614e77565b825161020493602001929091614ef5565b9291925b602090818310614ed05784518155930192601f1990910190600101614eb0565b929391905080614edf57505050565b5f199060031b1c90818354169119905116179055565b909392919380614f24575b50929092602090818310614ed05784518155930192601f1990910190600101614eb0565b6020811015614f75575b8015614f005791939082602003908360031b5f198460031b1c19811c908751901c9080198354169116178155818311156143c757600101940191601f19910101925f614f00565b90601f908260051c019116614f2e56fefe158a7adba34e256807c8a149028d3162918713c3838afc643ce9f96716ebfd86425bff6b57326c7859e89024fe4f238ca327a1ae4a230180dd2f0e88aaa7d974625544000000000000000000000000456e636f756e746572456e74697479003b4102da22e32d82fc925482184f16c09fd4281692720b87d124aef6da48a0f174625544000000000000000000000000576f726c64537461747573456666656314e2fcc58e58e68ec7edc30c8d50dccc3ce2714a623ec81f46b6a63922d76569","linkReferences":{"src/libraries/EffectProcessor.sol":{"EffectProcessor":[{"start":1549,"length":20},{"start":1980,"length":20},{"start":3085,"length":20},{"start":3298,"length":20},{"start":4238,"length":20},{"start":5126,"length":20},{"start":5482,"length":20},{"start":6185,"length":20},{"start":6365,"length":20},{"start":6765,"length":20},{"start":8253,"length":20}]}}},"methodIdentifiers":{"_msgSender()":"119df25f","_msgValue()":"45ec9354","_world()":"e1af802c","applyDamageOverTime(bytes32,bytes32)":"a14542a0","applyStatusEffect(bytes32,bytes32)":"59ffcdba","applyWorldEffects(bytes32)":"2350b879","calculateAllStatusEffects(bytes32)":"26f069a7","calculateCombatStatusEffects(bytes32,(int256,int256,int256,int256,int256,int256))":"d748eca1","checkWorldStatusEffects(bytes32)":"28610bda","cullExpiredWorldEffect(bytes32,bytes32,uint256)":"7b430e8d","currentStacks(bytes32,bytes32)":"0e32c35c","expireIfInvalid(bytes32,bytes32)":"e3140eb8","isValidEffect(bytes32,bytes32)":"e905cb62","supportsInterface(bytes4)":"01ffc9a7"},"id":360}