{"abi":[{"type":"function","name":"_msgSender","inputs":[],"outputs":[{"name":"sender","type":"address","internalType":"address"}],"stateMutability":"view"},{"type":"function","name":"_msgValue","inputs":[],"outputs":[{"name":"value","type":"uint256","internalType":"uint256"}],"stateMutability":"view"},{"type":"function","name":"_world","inputs":[],"outputs":[{"name":"","type":"address","internalType":"address"}],"stateMutability":"view"},{"type":"function","name":"applyDamageOverTime","inputs":[{"name":"encounterId","type":"bytes32","internalType":"bytes32"},{"name":"entityId","type":"bytes32","internalType":"bytes32"}],"outputs":[],"stateMutability":"nonpayable"},{"type":"function","name":"applyStatusEffect","inputs":[{"name":"entityId","type":"bytes32","internalType":"bytes32"},{"name":"effectId","type":"bytes32","internalType":"bytes32"}],"outputs":[{"name":"_adjustedStats","type":"tuple","internalType":"struct AdjustedCombatStats","components":[{"name":"strength","type":"int256","internalType":"int256"},{"name":"agility","type":"int256","internalType":"int256"},{"name":"intelligence","type":"int256","internalType":"int256"},{"name":"armor","type":"int256","internalType":"int256"},{"name":"maxHp","type":"int256","internalType":"int256"},{"name":"currentHp","type":"int256","internalType":"int256"}]}],"stateMutability":"nonpayable"},{"type":"function","name":"applyWorldEffects","inputs":[{"name":"entityId","type":"bytes32","internalType":"bytes32"}],"outputs":[{"name":"_adjustedStats","type":"tuple","internalType":"struct AdjustedCombatStats","components":[{"name":"strength","type":"int256","internalType":"int256"},{"name":"agility","type":"int256","internalType":"int256"},{"name":"intelligence","type":"int256","internalType":"int256"},{"name":"armor","type":"int256","internalType":"int256"},{"name":"maxHp","type":"int256","internalType":"int256"},{"name":"currentHp","type":"int256","internalType":"int256"}]}],"stateMutability":"nonpayable"},{"type":"function","name":"calculateAllStatusEffects","inputs":[{"name":"entityId","type":"bytes32","internalType":"bytes32"}],"outputs":[{"name":"_adjustedStats","type":"tuple","internalType":"struct AdjustedCombatStats","components":[{"name":"strength","type":"int256","internalType":"int256"},{"name":"agility","type":"int256","internalType":"int256"},{"name":"intelligence","type":"int256","internalType":"int256"},{"name":"armor","type":"int256","internalType":"int256"},{"name":"maxHp","type":"int256","internalType":"int256"},{"name":"currentHp","type":"int256","internalType":"int256"}]}],"stateMutability":"nonpayable"},{"type":"function","name":"calculateCombatStatusEffects","inputs":[{"name":"entityId","type":"bytes32","internalType":"bytes32"},{"name":"_incomingStats","type":"tuple","internalType":"struct AdjustedCombatStats","components":[{"name":"strength","type":"int256","internalType":"int256"},{"name":"agility","type":"int256","internalType":"int256"},{"name":"intelligence","type":"int256","internalType":"int256"},{"name":"armor","type":"int256","internalType":"int256"},{"name":"maxHp","type":"int256","internalType":"int256"},{"name":"currentHp","type":"int256","internalType":"int256"}]}],"outputs":[{"name":"_adjustedStats","type":"tuple","internalType":"struct AdjustedCombatStats","components":[{"name":"strength","type":"int256","internalType":"int256"},{"name":"agility","type":"int256","internalType":"int256"},{"name":"intelligence","type":"int256","internalType":"int256"},{"name":"armor","type":"int256","internalType":"int256"},{"name":"maxHp","type":"int256","internalType":"int256"},{"name":"currentHp","type":"int256","internalType":"int256"}]}],"stateMutability":"nonpayable"},{"type":"function","name":"checkWorldStatusEffects","inputs":[{"name":"entityId","type":"bytes32","internalType":"bytes32"}],"outputs":[],"stateMutability":"nonpayable"},{"type":"function","name":"cullExpiredWorldEffect","inputs":[{"name":"entityId","type":"bytes32","internalType":"bytes32"},{"name":"effectId","type":"bytes32","internalType":"bytes32"},{"name":"index","type":"uint256","internalType":"uint256"}],"outputs":[],"stateMutability":"nonpayable"},{"type":"function","name":"currentStacks","inputs":[{"name":"entityId","type":"bytes32","internalType":"bytes32"},{"name":"effectId","type":"bytes32","internalType":"bytes32"}],"outputs":[{"name":"_appliedStack","type":"uint256","internalType":"uint256"}],"stateMutability":"nonpayable"},{"type":"function","name":"expireIfInvalid","inputs":[{"name":"entityId","type":"bytes32","internalType":"bytes32"},{"name":"appliedEffectId","type":"bytes32","internalType":"bytes32"}],"outputs":[{"name":"","type":"bytes32","internalType":"bytes32"}],"stateMutability":"view"},{"type":"function","name":"isValidEffect","inputs":[{"name":"entityId","type":"bytes32","internalType":"bytes32"},{"name":"appliedEffectId","type":"bytes32","internalType":"bytes32"}],"outputs":[{"name":"","type":"bool","internalType":"bool"}],"stateMutability":"view"},{"type":"function","name":"supportsInterface","inputs":[{"name":"interfaceId","type":"bytes4","internalType":"bytes4"}],"outputs":[{"name":"","type":"bool","internalType":"bool"}],"stateMutability":"pure"},{"type":"event","name":"Store_SetRecord","inputs":[{"name":"tableId","type":"bytes32","indexed":true,"internalType":"ResourceId"},{"name":"keyTuple","type":"bytes32[]","indexed":false,"internalType":"bytes32[]"},{"name":"staticData","type":"bytes","indexed":false,"internalType":"bytes"},{"name":"encodedLengths","type":"bytes32","indexed":false,"internalType":"EncodedLengths"},{"name":"dynamicData","type":"bytes","indexed":false,"internalType":"bytes"}],"anonymous":false},{"type":"event","name":"Store_SpliceDynamicData","inputs":[{"name":"tableId","type":"bytes32","indexed":true,"internalType":"ResourceId"},{"name":"keyTuple","type":"bytes32[]","indexed":false,"internalType":"bytes32[]"},{"name":"dynamicFieldIndex","type":"uint8","indexed":false,"internalType":"uint8"},{"name":"start","type":"uint48","indexed":false,"internalType":"uint48"},{"name":"deleteCount","type":"uint40","indexed":false,"internalType":"uint40"},{"name":"encodedLengths","type":"bytes32","indexed":false,"internalType":"EncodedLengths"},{"name":"data","type":"bytes","indexed":false,"internalType":"bytes"}],"anonymous":false},{"type":"event","name":"Store_SpliceStaticData","inputs":[{"name":"tableId","type":"bytes32","indexed":true,"internalType":"ResourceId"},{"name":"keyTuple","type":"bytes32[]","indexed":false,"internalType":"bytes32[]"},{"name":"start","type":"uint48","indexed":false,"internalType":"uint48"},{"name":"data","type":"bytes","indexed":false,"internalType":"bytes"}],"anonymous":false},{"type":"error","name":"EffectNotApplied","inputs":[]},{"type":"error","name":"EncodedLengths_InvalidLength","inputs":[{"name":"length","type":"uint256","internalType":"uint256"}]},{"type":"error","name":"InvalidEffect","inputs":[]},{"type":"error","name":"InvalidEffectApplication","inputs":[]},{"type":"error","name":"InvalidEffectType","inputs":[]},{"type":"error","name":"NonExistentIndex","inputs":[]},{"type":"error","name":"NotEffectType","inputs":[]},{"type":"error","name":"Slice_OutOfBounds","inputs":[{"name":"data","type":"bytes","internalType":"bytes"},{"name":"start","type":"uint256","internalType":"uint256"},{"name":"end","type":"uint256","internalType":"uint256"}]},{"type":"error","name":"Store_IndexOutOfBounds","inputs":[{"name":"length","type":"uint256","internalType":"uint256"},{"name":"accessedIndex","type":"uint256","internalType":"uint256"}]},{"type":"error","name":"Store_InvalidBounds","inputs":[{"name":"start","type":"uint256","internalType":"uint256"},{"name":"end","type":"uint256","internalType":"uint256"}]},{"type":"error","name":"Store_InvalidResourceType","inputs":[{"name":"expected","type":"bytes2","internalType":"bytes2"},{"name":"resourceId","type":"bytes32","internalType":"ResourceId"},{"name":"resourceIdString","type":"string","internalType":"string"}]},{"type":"error","name":"Store_InvalidSplice","inputs":[{"name":"startWithinField","type":"uint40","internalType":"uint40"},{"name":"deleteCount","type":"uint40","internalType":"uint40"},{"name":"fieldLength","type":"uint40","internalType":"uint40"}]}],"bytecode":{"object":"0x6080806040523461001657614f7b908161001b8239f35b5f80fdfe60806040526004361015610011575f80fd5b5f3560e01c806301ffc9a7146100f45780630e32c35c146100ef578063119df25f146100ea5780632350b879146100e557806326f069a7146100e057806328610bda146100db57806345ec9354146100d657806359ffcdba146100d15780637b430e8d146100cc578063a14542a0146100c7578063d748eca1146100c2578063e1af802c146100bd578063e3140eb8146100b85763e905cb62146100b3575f80fd5b610b05565b610ae4565b610ab8565b610a54565b610715565b6106f3565b6104bf565b6104a0565b610482565b6103e6565b610206565b610181565b61014e565b3461014a57602036600319011261014a5760043563ffffffff60e01b811680910361014a5760209063b5dee12760e01b8114908115610139575b506040519015158152f35b6301ffc9a760e01b1490505f61012e565b5f80fd5b3461014a57604036600319011261014a57602061016f602435600435610bc3565b604051908152f35b5f91031261014a57565b3461014a575f36600319011261014a5736603319013560601c80156101b6575b6040516001600160a01b039091168152602090f35b50336101a1565b60a0809180518452602081015160208501526040810151604085015260608101516060850152608081015160808501520151910152565b60c08101929161020491906101bd565b565b3461014a5760208060031936011261014a57600435610223610d99565b9061022d81610e9c565b61023681611637565b928351610250575b6040518061024c85826101f4565b0390f35b90915061026d610261610261612a67565b6001600160a01b031690565b604091604051946310b9a40360e11b865260c086819481806102978a600483019190602083019252565b03915afa9586156103b0575f966103b5575b50856102b3610e19565b505f5b825181101561033d57806102d56102cf60019386610b6e565b5161168c565b80516102e5878c01918251610e5f565b90526102f5878201518b51610e5f565b8a526103358a608092838101516103108c8401918251610e5f565b9052888101516103266060809401918251610e5f565b90520151918b01918251610e5f565b9052016102b6565b50949350505050610352610261610261612a67565b92833b1561014a5761037d935f9283604051809781958294638e9fa2ef60e01b845260048401610e7a565b03925af19182156103b05761024c92610397575b8061023e565b806103a46103aa92610985565b80610177565b5f610391565b610b91565b6103d891965060c03d60c0116103df575b6103d08183610a24565b810190610dc9565b945f6102a9565b503d6103c6565b3461014a57602036600319011261014a57600435610402610d99565b5061040c81610e9c565b602460c06001600160a01b03610420612a67565b16604051928380926310b9a40360e11b82528660048301525afa80156103b05761024c92610455925f92610461575b50611757565b604051918291826101f4565b61047b91925060c03d60c0116103df576103d08183610a24565b905f61044f565b3461014a57602036600319011261014a5761049e600435610e9c565b005b3461014a575f36600319011261014a576020604051601f193601358152f35b3461014a5760408060031936011261014a5760043590602435906104e1610d99565b506104fc6104f66104f1856119f2565b611a0f565b83611a2c565b9261050b610261610261612a67565b82516310b9a40360e11b8152600481018390529360c0918290869060249082905afa9485156103b0575f956106d4575b5084610546826115dc565b916105508161168c565b9261056461055d876119f2565b9287610bc3565b60208201511161057c575b86518061024c8a826101f4565b60608101511515806106cb575b156105b4575050505050806105a461024c956105a993611b46565b610e9c565b5f808080808061056f565b86919293949897500151151590816106c2575b50156106b157835163741d7f3160e11b8152918691839182916105ee919060048401610fdd565b038173__$666bd16c4b93f49d1a4b799865d2ca5533$__5af49485156103b0575f95610692575b5050839261062282610e9c565b610630610261610261612a67565b803b1561014a578351638e9fa2ef60e01b8152955f91879182908490829061065c908960048401610e7a565b03925af19182156103b05761024c9561067a9361067f575b50611a92565b6105a9565b806103a461068c92610985565b5f610674565b6106a9929550803d106103df576103d08183610a24565b925f80610615565b8351635177d86360e11b8152600490fd5b9050155f6105c7565b50811515610589565b6106ec919550823d84116103df576103d08183610a24565b935f61053b565b3461014a57606036600319011261014a5761049e60443560243560043561103e565b3461014a5760408060031936011261014a576024356004803561073781611a0f565b915f9461074385611668565b61074d8151611310565b928151610795575b50508561075e57005b8561077d61077761049e9861077289611ced565b611026565b87611d0a565b610785610a47565b9586526020860152840152611ded565b919493955f979193979473__$666bd16c4b93f49d1a4b799865d2ca5533$__925b8551871015610960576107f06107cc8888610b6e565b5191895163182b237760e31b93848252818060209586938c83019190602083019252565b03818a5af480156103b0576108118491610834935f91610943575b5061168c565b9461081c8c8c610b6e565b51908d51938492839283528c83019190602083019252565b03818a5af480156103b057898491610867935f91610926575b508d51637f1bf71560e11b815293849283928d8401611342565b03818a5af480156103b0576108999484925f92610907575b508c51631f47efe160e11b815295869283928c8401611383565b0381895af49081156103b057898d6001956108c8955f956108d0575b505083916108c291610b6e565b52610e5f565b9601956107b6565b6108c29293955090816108f792903d10610900575b6108ef8183610a24565b810190610b82565b9391905f6108b5565b503d6108e5565b61091f919250833d8511610900576108ef8183610a24565b905f61087f565b61093d9150833d8511610900576108ef8183610a24565b5f61084d565b61095a9150833d8511610900576108ef8183610a24565b5f61080b565b989450959250959350505f80610755565b634e487b7160e01b5f52604160045260245ffd5b6001600160401b03811161099857604052565b610971565b60c081019081106001600160401b0382111761099857604052565b608081019081106001600160401b0382111761099857604052565b606081019081106001600160401b0382111761099857604052565b604081019081106001600160401b0382111761099857604052565b602081019081106001600160401b0382111761099857604052565b601f909101601f19168101906001600160401b0382119082101761099857604052565b60405190610204826109d3565b3461014a5760e036600319011261014a5760c036602319011261014a5761024c610455604051610a838161099d565b602435815260443560208201526064356040820152608435606082015260a435608082015260c43560a082015260043561139d565b3461014a575f36600319011261014a576020610ad2612a67565b6040516001600160a01b039091168152f35b3461014a57604036600319011261014a57602061016f6024356004356113de565b3461014a57604036600319011261014a576020610b2e610b296024356004356113de565b6118a8565b6040519015158152f35b634e487b7160e01b5f52603260045260245ffd5b805115610b595760200190565b610b38565b805160011015610b595760400190565b8051821015610b595760209160051b010190565b9081602091031261014a575190565b6040513d5f823e3d90fd5b634e487b7160e01b5f52601160045260245ffd5b5f198114610bbe5760010190565b610b9c565b5f90610bce836115dc565b606081015115801580610d8d575b15610c9e575050610bef90939293611668565b9273__$666bd16c4b93f49d1a4b799865d2ca5533$__905f5b8551811015610c9757610c42610c1e8288610b6e565b516040519063182b237760e31b825281806020948593600483019190602083019252565b0381885af49182156103b0575f92610c7a575b50508214610c66575b600101610c08565b92610c72600191610bb0565b939050610c5e565b610c909250803d10610900576108ef8183610a24565b5f80610c55565b5050509150565b604080969392959695015115159081610d85575b5015610d7357610cc490939193611637565b9373__$666bd16c4b93f49d1a4b799865d2ca5533$__915f5b8651811015610d6b57610d16610cf38289610b6e565b5183519063182b237760e31b825281806020948593600483019190602083019252565b0381895af49182156103b0575f92610d4e575b50508314610d3a575b600101610cdd565b93610d46600191610bb0565b949050610d32565b610d649250803d10610900576108ef8183610a24565b5f80610d29565b505050509150565b60405163a4840cbb60e01b8152600490fd5b90505f610cb2565b50604082015115610bdc565b60405190610da68261099d565b5f60a0838281528260208201528260408201528260608201528260808201520152565b908160c091031261014a5760a060405191610de38361099d565b8051835260208101516020840152604081015160408401526060810151606084015260808101516080840152015160a082015290565b6040519060e082016001600160401b03811183821017610998576040525f60c0838281528260208201528260408201528260608201528260808201528260a08201520152565b9190915f8382019384129112908015821691151617610bbe57565b90815260e08101929161020491602001906101bd565b8015610bbe575f190190565b610ea581611637565b5f908051610f10575b50610eb65750565b610ebf81611637565b908151805b610ecd57505050565b610ed690610e90565b80610ef1610eed610ee78387610b6e565b516118a8565b1590565b15610ec457610f0b81610f048187610b6e565b518561103e565b610ec4565b5f9392935b8151811015610f6a57610f32610f2b8284610b6e565b51866113de565b610f3e610eed826118a8565b610f4c575b50600101610f15565b8193610f5e610f639260019489611921565b610bb0565b9290610f43565b50509190915f610eae565b60041115610f7f57565b634e487b7160e01b5f52602160045260245ffd5b60c08091805184526020810151602085015260408101516040850152606081015160608501526080810151608085015260a0810151610fd181610f75565b60a08501520151910152565b9160c0610204929493610ff5816101a08101976101bd565b0190610f93565b5f19810191908211610bbe57565b601f19810191908211610bbe57565b91908203918211610bbe57565b81810392915f138015828513169184121617610bbe57565b9092919261104b82611be2565b91848311156112e75761105e8582611c05565b9473__$666bd16c4b93f49d1a4b799865d2ca5533$__9060409485519463182b237760e31b938487526020946004978681806110a1878d83019190602083019252565b0381865af49182156103b0576110d5938a8e928a945f966112c8575b508d5196879485938493845283019190602083019252565b03915af49182156103b0575f926112a9575b5003611299576111249596979860c086611105610261610261612a67565b8b516310b9a40360e11b8152808c01928352998a928391829160200190565b03915afa9687156103b0575f97611278575b508015611268578161114a610eed826118a8565b918261125e575b50501561124e576111619061168c565b916001821161122b575b505061117683611c51565b8051611186838601918251611026565b905261119760c08201518551611026565b845260808101516111ac878601918251611026565b905260608101516111c260808601918251611026565b905201516111d560608401918251611026565b90526111e5610261610261612a67565b90813b1561014a575f809461120d965196879586948593638e9fa2ef60e01b85528401610e7a565b03925af180156103b05761121e5750565b806103a461020492610985565b61124061123a61124793610ffc565b86611c05565b9085611921565b5f8061116b565b875163c46e385f60e01b81528790fd5b149050815f611151565b885163c46e385f60e01b81528890fd5b61129291975060c03d60c0116103df576103d08183610a24565b955f611136565b865163c46e385f60e01b81528690fd5b6112c1919250863d8811610900576108ef8183610a24565b905f6110e7565b6112e0919650853d8711610900576108ef8183610a24565b945f6110bd565b604051633bcfa7c160e11b8152600490fd5b6001600160401b0381116109985760051b60200190565b9061131a826112f9565b6113276040519182610a24565b8281528092611338601f19916112f9565b0190602036910137565b90604082019082526020606081936040838201528551809452019301915f5b82811061136f575050505090565b835185529381019392810192600101611361565b60e0909392919361139981610100810196610f93565b0152565b906113b9916113aa610d99565b506113b481610e9c565b611757565b90565b919082608091031261014a578151916020810151916060604083015192015190565b6113e7826118a8565b1561157f57604051633303373d60e11b81526004810183905273__$666bd16c4b93f49d1a4b799865d2ca5533$__91608082602481865af49283156103b0575f925f94611546575b506001600160c01b0319851685146115345760405163182b237760e31b81526004810186905290602090829060249082905af480156103b057611479915f91611515575b506115dc565b925f935f93604082018051159182156114ff575b50506114f6575b606001908151159283156114d3575b5050506114cb575b816114c3575b50156114ba5790565b6113b990611ebc565b90505f6114b1565b5060016114ab565b6114ea9293506104f16114e5916119f2565b611019565b905110155f80806114a3565b60019450611494565b61150b91925042611019565b9051115f8061148d565b61152e915060203d602011610900576108ef8183610a24565b5f611473565b60405163cf75903f60e01b8152600490fd5b90935061156c91925060803d608011611578575b6115648183610a24565b8101906113bc565b9392505091925f61142f565b503d61155a565b5090565b60405190611590826109b8565b5f6060838281528260208201528260408201520152565b604051906115b4826109ee565b6001825260203681840137565b604051906115ce826109d3565b600282526040366020840137565b6115e4611583565b506115ed6115a7565b805115610b5957611602916020820152611ffc565b505061160c611583565b9060208101519060408101519060806060820151910151606085015260408401526020830152815290565b61163f6115a7565b805115610b595761165b816113b99360206116639401526122d8565b805190612457565b612d11565b6116706115a7565b805115610b595761165b816113b9936020611663940152612397565b60206116ba9161169a610e19565b506040518093819263182b237760e31b8352600483019190602083019252565b038173__$666bd16c4b93f49d1a4b799865d2ca5533$__5af49081156103b0575f91611738575b506116eb816124d4565b600381516116f881610f75565b61170181610f75565b149081159161172b575b50611719576113b990612533565b6040516336fb4f7160e21b8152600490fd5b602001511590505f61170b565b611751915060203d602011610900576108ef8183610a24565b5f6116e1565b9190611761610d99565b5061176a610e19565b5091611775816125e6565b805161177f575050565b91909260605f93019173__$666bd16c4b93f49d1a4b799865d2ca5533$__915b8351805186101561189f57856117b491610b6e565b516040805163182b237760e31b81526004808201849052929190602080826024818b5af480156103b0576117fb926117f4925f92611882575b505061168c565b928a6113de565b611804816118a8565b1561186957509061182b9291518093819263741d7f3160e11b835260c09687958401610fdd565b0381875af49081156103b0576001925f9261184c575b5050945b019361179f565b6118629250803d106103df576103d08183610a24565b5f80611841565b90508760019498935061187d925089612659565b611845565b6118989250803d10610900576108ef8183610a24565b5f806117ed565b50945092505050565b6040519063c169e5a960e01b8252600482015260208160248173__$666bd16c4b93f49d1a4b799865d2ca5533$__5af49081156103b0575f916118e9575090565b90506020813d602011611919575b8161190460209383610a24565b8101031261014a5751801515810361014a5790565b3d91506118f7565b919061192b6115a7565b92835115610b595760208401526040519160208301526020825261194e826109ee565b815164ffffffffff9081169160051b166001600160a01b0361196e612a67565b16308103611980575061020493612d72565b909293813b1561014a5760405163605144ad60e11b81525f80516020614f3b833981519152600482015260c06024820152945f94869485938793859361120d9390926119d09060c4870190611fc9565b92866044870152606486015260848501526003198483030160a4850152612425565b6119fa6115a7565b805115610b59576113b9916020820152612708565b611a176115a7565b805115610b59576113b9916020820152612793565b90604051916304f26f5b60e31b83526004830152426024830152604482015260208160648173__$666bd16c4b93f49d1a4b799865d2ca5533$__5af49081156103b0575f91611a79575090565b6113b9915060203d602011610900576108ef8183610a24565b90611a9b6115a7565b91825115610b5957602083015260405190602082015260208152611abe816109ee565b6001600160a01b03611ace612a67565b1691308303611ae1576102049250613347565b90823b1561014a57604051630a87993160e11b81525f80516020614f3b833981519152600482015260806024820152925f92849283918591839161120d9190611b2e906084850190611fc9565b90846044850152600319848303016064850152612425565b90611b4f6115a7565b91825115610b5957602083015260405190602082015260208152611b72816109ee565b6001600160a01b03611b82612a67565b1691308303611b9557610204925061355a565b90823b1561014a57604051630a87993160e11b81525f80516020614efb833981519152600482015260806024820152925f92849283918591839161120d9190611b2e906084850190611fc9565b611bea6115a7565b805115610b5957611bff9160208201526128ca565b60051c90565b90611c0e6115a7565b805115610b5957611c2f9260208201526001820160051b9160051b90612931565b602081519101519060208110611c43575090565b5f199060200360031b1b1690565b611c596115a7565b90815115610b595760208201526001600160a01b03611c76612a67565b16308103611c88575061020490613804565b803b1561014a576040516336700e8160e21b81525f80516020614f3b833981519152600482015260806024820152915f918391829084908290611ccf906084830190611fc9565b8260448301526020606483015203925af180156103b05761121e5750565b611cf56115a7565b805115610b59576113b9916020820152612830565b90611d136115a7565b91825115610b5957602083015260405190602082015260208152611d36816109ee565b6001600160a01b03611d46612a67565b1691308303611d59576102049250613a65565b90823b1561014a576040516301c85d5760e51b815264537461747360581b631d18955160e21b01600482015260a06024820152925f928492839185918391611dc39190611daa9060a4850190611fc9565b6005604485015283810360031901606485015290612425565b6fe60d002020012020202020010101010160781b608483015203925af180156103b05761121e5750565b91908151916020918282015160409283918251968688015282870152818652611e15866109d3565b0151928351928360051b94848604831485151715610bbe578151868101603f01601f1916835286815291838301918401825f5b888110611ea8575050509261020498969492611e8192611e7499979551998a9251809285850190611f1e565b8101038089520187610a24565b611e896115c1565b94611e9386610b4c565b52611e9d85610b5e565b52603d1b17916129bd565b825182529186019190860190600101611e48565b604051906333e0795160e01b8252600482015242602482015260208160448173__$666bd16c4b93f49d1a4b799865d2ca5533$__5af49081156103b0575f91611a79575090565b6001600160401b03811161099857601f01601f191660200190565b5f5b838110611f2f5750505f910152565b8181015183820152602001611f20565b81601f8201121561014a578051611f5581611f03565b92611f636040519485610a24565b8184526020828401011161014a576113b99160208085019101611f1e565b909160608284031261014a5781516001600160401b03929083811161014a5784611fac918301611f3f565b93602082015193604083015190811161014a576113b99201611f3f565b9081518082526020808093019301915f5b828110611fe8575050505090565b835185529381019392810192600101611fda565b6001600160a01b0361200c612a67565b16308103612025575061201e90612a9c565b9192909190565b60405163419b58fd60e01b81526f53746174757345666665637456616c69631d18955160e21b0160048201526060602482015292915f91849182908190612070906064830190611fc9565b660400200101010160c51b604483015203915afa9081156103b0575f80935f9361209b575b50929190565b919350506120bb91503d805f833e6120b38183610a24565b810190611f81565b929092915f612095565b6001600160a01b036120d5612a67565b163081036120e7575061201e90612b43565b60405163419b58fd60e01b8152664566666563747360481b631d18955160e21b0160048201526060602482015292915f9184918290819061212c906064830190611fc9565b64020200010160d01b604483015203915afa9081156103b0575f80935f9361209b5750929190565b6001600160a01b03612164612a67565b16308103612176575061201e90612bcd565b60405163419b58fd60e01b81526f53746174757345666665637453746174631d18955160e21b0160048201526060602482015292915f918491829081906121c1906064830190611fc9565b690608380101010101000960ad1b604483015203915afa9081156103b0575f80935f9361209b5750929190565b6001600160a01b036121fe612a67565b16308103612210575061201e90612c58565b60405163419b58fd60e01b81525f80516020614efb83398151915260048201526060602482015292915f9184918290819061224f906064830190611fc9565b6502081809000960cd1b604483015203915afa9081156103b0575f80935f9361209b5750929190565b9060208282031261014a5781516001600160401b03811161014a576113b99201611f3f565b919060406122d35f926f576f726c645374617475734566666563631d18955160e21b018652606060208701526060860190611fc9565b930152565b6001600160a01b036122e8612a67565b1630810361234557506113b99064ffffffffff61233a5f80516020614f1b8339815191526040516020810190612330816123228885613ef1565b03601f198101835282610a24565b519020189261488a565b5460381c16906143b6565b612366915f916040518080958194631e78897760e01b83526004830161229d565b03915afa9081156103b0575f9161237b575090565b6113b991503d805f833e61238f8183610a24565b810190612278565b6001600160a01b036123a7612a67565b163081036123cc57508064ffffffffff61233a6123c66113b99461415e565b926148b4565b604051631e78897760e01b81525f80516020614efb833981519152600482015260606024820152915f9183918290819061240a906064830190611fc9565b85604483015203915afa9081156103b0575f9161237b575090565b9060209161243e81518092818552858086019101611f1e565b601f01601f1916010190565b91908201809211610bbe57565b9081518111612476576001600160801b031660209190910160801b1790565b6040516323230fa360e01b8152606060048201529250829161249c906064840190612425565b905f602484015260448301520390fd5b60408051919082016001600160401b03811183821017610998576040525f6020838281520152565b6124dc6124ac565b506124e56115a7565b805115610b59576124fa9160208201526120c5565b50506125046124ac565b906021602082015160f81c9161251983610f75565b015160f81c1515602083015261252e81610f75565b815290565b61253b610e19565b506125446115a7565b805115610b5957612559916020820152612154565b5050612563610e19565b906020810151906040810151906060810151906080810151906125a960a08201519160c160c082015160f81c9161259983610f75565b015160c089015260a08801612d66565b6080860152606085015260408401526020830152815290565b604051906125cf826109b8565b606080835f81525f60208201525f60408201520152565b6125ee6125c2565b506125f76115a7565b90815115610b595761166361261a8361265193602064ffffffffff9601526121ee565b9194906126256125c2565b956020810151906041604082015160f81c910151604089015215156020880152865260381c1690612457565b606082015290565b91906126636115a7565b92835115610b5957602084015260405191602083015260208252612686826109ee565b815164ffffffffff9081169160051b166001600160a01b036126a6612a67565b163081036126b8575061020493613002565b909293813b1561014a5760405163605144ad60e11b81525f80516020614efb833981519152600482015260c06024820152945f94869485938793859361120d9390926119d09060c4870190611fc9565b6001600160a01b03612718612a67565b1630810361272a57506113b990613203565b604051638c364d5960e01b81525f80516020614efb83398151915260048201526080602482015291602091839182908190612769906084830190611fc9565b5f60448301526502081809000960cd1b606483015203915afa9081156103b0575f91611a79575090565b6001600160a01b036127a3612a67565b163081036127b557506113b99061322e565b604051638c364d5960e01b81526f436f6d626174456e636f756e74657200631d18955160e21b0160048201526080602482015291602091839182908190612800906084830190611fc9565b600460448301526aa30802012020012020200160a01b606483015203915afa9081156103b0575f91611a79575090565b6001600160a01b03612840612a67565b1630810361285257506113b9906132d9565b604051638c364d5960e01b815264537461747360581b631d18955160e21b0160048201526080602482015291602091839182908190612895906084830190611fc9565b600560448301526fe60d002020012020202020010101010160781b606483015203915afa9081156103b0575f91611a79575090565b6001600160a01b036128da612a67565b163081036128fa57506128f264ffffffffff9161488a565b5460381c1690565b61291c91602091604051808095819463dbbf0e2160e01b83526004830161229d565b03915afa9081156103b0575f91611a79575090565b9091906001600160a01b03612944612a67565b163081036129575750916113b992613737565b604051634dc77d9760e01b81525f80516020614f3b833981519152600482015260a06024820152935f9385938492839290916129979060a4850190611fc9565b918760448501526064840152608483015203915afa9081156103b0575f9161237b575090565b909291906001600160a01b036129d1612a67565b163081036129e457509261020493613c40565b909192813b1561014a575f612a539361120d8296612a4094604051998a988997889663298314fb60e01b88526f44616d6167654f76657254696d654170631d18955160e21b01600489015260a0602489015260a4880190611fc9565b6003199283888303016044890152612425565b926064860152848303016084850152612425565b7f629a4c26e296b22a8e0856e9f6ecb2d1008d7e00081111962cd175fa7488e175546001600160a01b0316806113b957503390565b5f906060906040519060209082612ab7602082019283614038565b0392612acb601f1994858101835282610a24565b5190205f80516020614edb8339815191521891604051928160bf850116604052608084526020840192608091925b81831015612b2b57505080612b0f575b50505092565b5f199060031b1c908183511691199054161790525f8080612b09565b81600185839495979654875201940194019190612af9565b5f906060906040519060209082612b5e602082019283614083565b0392612b72601f1994858101835282610a24565b5190205f80516020614edb833981519152189160405192816041850116604052600284526020840192600291925b81831015612bb557505080612b0f5750505092565b81600185839495979654875201940194019190612ba0565b5f906060906040519060209082612be86020820192836140c8565b0392612bfc601f1994858101835282610a24565b5190205f80516020614edb8339815191521891604051928161010085011660405260c18452602084019260c191925b81831015612c4057505080612b0f5750505092565b81600185839495979654875201940194019190612c2b565b612c69612c6482614749565b61434a565b91612c73826148c9565b549266ffffffffffffff841692612ca2612c8c85611f03565b94612c9a6040519687610a24565b808652611f03565b602085019490601f190136863793915f925b60ff8416906001821015612d07579081612cec612cf19364ffffffffff8b612cdc8a8a614189565b956028026038011c168094614257565b61244a565b9260ff809116908114610bbe5760010192612cb4565b5050949392915050565b6040805160206020600160801b0384168201810190925260016001607b1b03600584901c1680825290939260801c8285015f5b838110612d52575050505050565b825182529184019190840190600101612d44565b612d6f82610f75565b52565b91909392612d7f836148de565b549464ffffffffff808760381c1695612da5612d9d83871689611019565b85519061244a565b87811415928380612fe2575b612fb357841697808911612f905750612dca9089614908565b90612dd3614bd2565b925f5b8451811015612e8157612e0a612dfd612def8388610b6e565b516001600160581b03191690565b6001600160581b03191690565b6010808260581c1614612e21575b50600101612dd6565b60601c90813b1561014a575f898d9389838e612e548e604051998a9788968795630abd6b4560e31b87526004870161455f565b03925af19182156103b057600192612e6e575b5090612e18565b806103a4612e7b92610985565b5f612e67565b5096948093929950612ee49198604098875f80516020614ebb8339815191528d8b612ece87604051938493896f576f726c645374617475734566666563631d18955160e21b019886614687565b0390a2612f80575b612edf8761420e565b614dd0565b5f5b8151811015612f7557612eff612dfd612def8385610b6e565b6020808260581c1614612f16575b50600101612ee6565b60601c90813b1561014a575f878b9387838a612f488a8f51998a9788968795636358453360e01b87526004870161455f565b03925af19182156103b057600192612f62575b5090612f0d565b806103a4612f6f92610985565b5f612f5b565b505050505050509050565b8a612f8a8861488a565b55612ed6565b604051637e8578d360e01b8152908190612faf90879060048401614443565b0390fd5b604051632994042d60e21b815264ffffffffff868116600483015288811660248301528a166044820152606490fd5b5088612ffb612ff1898861442a565b64ffffffffff1690565b1415612db1565b9190939261300f836148c9565b549464ffffffffff808760381c169561302d612d9d83871689611019565b878114159283806131ed575b612fb357841697808911612f9057506130529089614908565b9061305b614c7c565b925f5b84518110156130ee57613077612dfd612def8388610b6e565b6010808260581c161461308e575b5060010161305e565b60601c90813b1561014a575f898d9389838e6130c18e604051998a9788968795630abd6b4560e31b8752600487016145c4565b03925af19182156103b0576001926130db575b5090613085565b806103a46130e892610985565b5f6130d4565b509694809392995061314c9198604098875f80516020614ebb8339815191528d8b61313b87604051938493896f456e636f756e746572456e7469747900631d18955160e21b019886614687565b0390a26131dd575b612edf8761415e565b5f5b8151811015612f7557613167612dfd612def8385610b6e565b6020808260581c161461317e575b5060010161314e565b60601c90813b1561014a575f878b9387838a6131b08a8f51998a9788968795636358453360e01b8752600487016145c4565b03925af19182156103b0576001926131ca575b5090613175565b806103a46131d792610985565b5f6131c3565b8a6131e7886148b4565b55613143565b50886131fc612ff1898861442a565b1415613039565b60405161321881612322602082019485613f6f565b5190205f80516020614edb833981519152185490565b60405161324381612322602082019485613fae565b5190205f80516020614edb833981519152185f905f5b600481106132ac575081816020821015613296575b505080548260031b1b91602003908160201161328957505090565b600101549060031b1c1790565b90809350601f925060051c019116905f8061326e565b9160ff6aa30802012020012020200160a01b84601b0360031b1c168101809111610bbe5791600101613259565b6132e2906146d3565b5f905f5b6005811061331557508181602082101561329657505080548260031b1b91602003908160201161328957505090565b9160ff6fe60d002020012020202020010101010160781b84601b0360031b1c168101809111610bbe57916001016132e6565b919091613353816148de565b5464ffffffffff8160381c1661336a85518261244a565b8181141594908580613545575b613519576133859084614908565b9061338e614985565b915f5b8351811015613420576133aa612dfd612def8387610b6e565b6010808260581c16146133c1575b50600101613391565b60601c90813b1561014a575f878b9388838c6133f360405198899687958694630abd6b4560e31b86526004860161445a565b03925af19182156103b05760019261340d575b50906133b8565b806103a461341a92610985565b5f613406565b506040805192979195509392915f80516020614f3b833981519152905f80516020614ebb83398151915290806134598c8a898d856145fc565b0390a2613509575b61346f8783612edf886141c6565b5f5b81518110156134ff5761348a612dfd612def8385610b6e565b6020808260581c16146134a1575b50600101613471565b60601c90813b1561014a575f868a9386838b6134d28b5198899687958694636358453360e01b86526004860161445a565b03925af19182156103b0576001926134ec575b5090613498565b806103a46134f992610985565b5f6134e5565b5050505050509050565b83613513866148de565b55613461565b604051632994042d60e21b815264ffffffffff8416600482018190525f60248301526044820152606490fd5b5082613553612ff182614401565b1415613377565b919091613566816148c9565b5464ffffffffff8160381c1661357d85518261244a565b8181141594908580613722575b613519576135989084614908565b906135a1614a86565b915f5b8351811015613633576135bd612dfd612def8387610b6e565b6010808260581c16146135d4575b506001016135a4565b60601c90813b1561014a575f878b9388838c61360660405198899687958694630abd6b4560e31b8652600486016144bd565b03925af19182156103b057600192613620575b50906135cb565b806103a461362d92610985565b5f613619565b506040805192979195509392915f80516020614efb833981519152905f80516020614ebb833981519152908061366c8c8a898d856145fc565b0390a2613712575b6136828783612edf886141ea565b5f5b81518110156134ff5761369d612dfd612def8385610b6e565b6020808260581c16146136b4575b50600101613684565b60601c90813b1561014a575f868a9386838b6136e58b5198899687958694636358453360e01b8652600486016144bd565b03925af19182156103b0576001926136ff575b50906136ab565b806103a461370c92610985565b5f6136f8565b8361371c866148c9565b55613674565b5082613730612ff182614401565b141561358a565b9190918183116137e45761375b61374d826148de565b5460381c64ffffffffff1690565b808410801580916137db575b61379b575050908261377b6113b9936141c6565b910360405193601f19603f838701011660405281855260208501926142a1565b8385915f146137c95750905b604051637e8578d360e01b815260048101919091526024810191909152604490fd5b5f19810191508111610bbe57906137a7565b50818411613767565b50604051635462a3c160e11b815260048101929092526024820152604490fd5b61380d8161488a565b549064ffffffffff91828160381c1692601f198401848111610bbe571660409081519561383987610a09565b5f87525f36813761385461384c8761100a565b88519061244a565b86811415968780613a50575b613a2157808411613a0357506138769085614908565b9061387f614985565b915f5b83518110156139105761389b612dfd612def8387610b6e565b6010808260581c16146138b2575b50600101613882565b60601c90813b1561014a575f888c9388838d6138e38d5198899687958694630abd6b4560e31b8652600486016144fb565b03925af19182156103b0576001926138fd575b50906138a9565b806103a461390a92610985565b5f6138f6565b5094509583515f80516020614ebb8339815191526f576f726c645374617475734566666563631d18955160e21b01918061394d8c8a898d85614641565b0390a26139f3575b6139638783612edf886141c6565b5f5b81518110156134ff5761397e612dfd612def8385610b6e565b6020808260581c1614613995575b50600101613965565b60601c90813b1561014a575f868a9386838b6139c68b5198899687958694636358453360e01b8652600486016144fb565b03925af19182156103b0576001926139e0575b509061398c565b806103a46139ed92610985565b5f6139d9565b836139fd866148de565b55613955565b8451637e8578d360e01b8152908190612faf90869060048401614443565b8451632994042d60e21b815264ffffffffff858116600483015260206024830152919091166044820152606490fd5b5080613a5e612ff186614414565b1415613860565b9190915f805b60058210613c0d5765ffffffffffff915016613a86826146d3565b613a8e614b30565b905f5b8251811015613b1b57613aaa612dfd612def8386610b6e565b9060049182808260581c1614613ac6575b506001915001613a91565b60601c803b1561014a57855f9188838c96613af56040519889968795869463964f667d60e01b865285016147a4565b03925af19182156103b05760019215613abb57806103a4613b1592610985565b5f613abb565b50604080519096939291613b77918591859164537461747360581b631d18955160e21b01907f8c0b5119d4cec7b284c6b1b39252a03d1e2f2d7451a5895562524c113bb952be9080613b6f87878e84614773565b0390a2614dd0565b5f5b8151811015613c0457613b92612dfd612def8385610b6e565b6008808260581c1614613ba9575b50600101613b79565b60601c90813b1561014a57875163a8ba872160e01b8152915f908390818381613bd78b8b8e600485016147a4565b03925af19182156103b057600192613bf1575b5090613ba0565b806103a4613bfe92610985565b5f613bea565b50505050509050565b60ff6fe60d002020012020202020010101010160781b83601b0360031b1c168101809111610bbe57600190910190613a6b565b60408051655461626c657360501b66746273746f726560c81b01602082019081526f44616d6167654f76657254696d654170631d18955160e21b0182840181905283835296979295949291613c94816109d3565b5190205f80516020614edb833981519152185490613cb0614d26565b905f5b8251811015613d4357613ccc612dfd612def8386610b6e565b6001808260581c1614613ce3575b50600101613cb3565b60601c90813b1561014a575f888c9388838b613d168f8c9051998a97889687956315c19b2760e21b87526004870161482b565b03925af19182156103b057600192613d30575b5090613cda565b806103a4613d3d92610985565b5f613d29565b50967f8dbb3a9672eebfd3773e72dd9c102393436816d832c7ba9e1e1ac8fcadcac7a9875180613d768c8a898b856147ef565b0390a2613d91613d858561475e565b84516020860191614de1565b60ff808360e01c1680613e32575b50505f5b8151811015612f7557613dbc612dfd612def8385610b6e565b6002808260581c1614613dd3575b50600101613da3565b60601c90813b1561014a575f878b9387838a613e058a8f51998a9788968795635b28cdaf60e01b87526004870161482b565b03925af19182156103b057600192613e1f575b5090613dca565b806103a4613e2c92610985565b5f613e18565b9690989295949385613e46869a949a6148f3565b555f96602085015b8b8916908a821015613e9357613e8a8d9282612cec60019464ffffffffff8f8f908f90613e7a91614232565b956028026038011c168094614de1565b99011697613e4e565b5050939950939495509550955f80613d9f565b6953746f7265486f6f6b7360301b66746273746f726560c81b01815281516020918201928201915f5b828110613edd575050505090565b835185529381019392810192600101613ecf565b5f80516020614f3b833981519152815281516020918201928201915f5b828110613f1c575050505090565b835185529381019392810192600101613f0e565b5f80516020614efb833981519152815281516020918201928201915f5b828110613f5b575050505090565b835185529381019392810192600101613f4d565b5f80516020614efb833981519152815281516020918201928201915f5b828110613f9a575050505090565b835185529381019392810192600101613f8c565b6f436f6d626174456e636f756e74657200631d18955160e21b01815281516020918201928201915f5b828110613fe5575050505090565b835185529381019392810192600101613fd7565b5f80516020614f3b833981519152815281516020918201928201915f5b828110614024575050505090565b835185529381019392810192600101614016565b6f53746174757345666665637456616c69631d18955160e21b01815281516020918201928201915f5b82811061406f575050505090565b835185529381019392810192600101614061565b664566666563747360481b631d18955160e21b01815281516020918201928201915f5b8281106140b4575050505090565b8351855293810193928101926001016140a6565b6f53746174757345666665637453746174631d18955160e21b01815281516020918201928201915f5b8281106140ff575050505090565b8351855293810193928101926001016140f1565b6f44616d6167654f76657254696d654170631d18955160e21b01815281516020918201928201915f5b82811061414a575050505090565b83518552938101939281019260010161413c565b5f80516020614f1b8339815191529060405161418281612322602082019485613f30565b5190201890565b905f80516020614f1b833981519152916040516141ae81612322602082019485613f6f565b51902060f89190911b6001600160f81b031916181890565b5f80516020614f1b8339815191529060405161418281612322602082019485613ff9565b5f80516020614f1b8339815191529060405161418281612322602082019485613f6f565b5f80516020614f1b8339815191529060405161418281612322602082019485613ef1565b905f80516020614f1b833981519152916040516141ae81612322602082019485614113565b9291925b60209081831061427b5780548552930192601f199091019060010161425b565b9190509291928061428b57505050565b5f199060031b1c90818351169119905416179052565b9093929193806142d0575b5092909260209081831061427b5780548552930192601f199091019060010161425b565b602081101561433a575b80156142ac5791939082602003908183105f1461432e575f198360031b1c5b8154818851169119908660031b1b161786528183111561432657600101940191601f19910101925f6142ac565b505050509050565b5f198260031b1c6142f9565b90601f908260051c0191166142da565b60405190602090601f1990816080850116604052604184526020840192604191925b8183101561439e57505080614382575b50505090565b5f199060031b1c908183511691199054161790525f808061437c565b8160018583949597965487520194019401919061436c565b60408051601f19603f85830101811690925283815292602080850193925b818310156143e9575050806143825750505090565b816001858394959796548752019401940191906143d4565b9064ffffffffff809216918211610bbe57565b90602064ffffffffff80931601918211610bbe57565b91909164ffffffffff80809416911601918211610bbe57565b90815264ffffffffff909116602082015260400190565b909264ffffffffff6144986113b99694956f576f726c645374617475734566666563631d18955160e21b01855260e0602086015260e0850190611fc9565b945f60408501521660608301525f608083015260a082015260c0818403910152612425565b909264ffffffffff6144986113b99694956f456e636f756e746572456e7469747900631d18955160e21b01855260e0602086015260e0850190611fc9565b909264ffffffffff6145396113b99694956f576f726c645374617475734566666563631d18955160e21b01855260e0602086015260e0850190611fc9565b945f60408501521660608301526020608083015260a082015260c0818403910152612425565b916145976113b9969495926f576f726c645374617475734566666563631d18955160e21b01855260e0602086015260e0850190611fc9565b945f604085015264ffffffffff809216606085015216608083015260a082015260c0818403910152612425565b916145976113b9969495926f456e636f756e746572456e7469747900631d18955160e21b01855260e0602086015260e0850190611fc9565b909265ffffffffffff61461c6113b996949560c0855260c0850190611fc9565b945f60208501521660408301525f6060830152608082015260a0818403910152612425565b909265ffffffffffff6146616113b996949560c0855260c0850190611fc9565b945f602085015216604083015260206060830152608082015260a0818403910152612425565b9193906113b9959365ffffffffffff6146ae64ffffffffff9360c0875260c0870190611fc9565b965f6020870152166040850152166060830152608082015260a0818403910152612425565b604051602081602081019364537461747360581b631d18955160e21b0185526040820160208251919201935f5b8281106147325750505061471d925003601f198101835282610a24565b5190205f80516020614edb8339815191521890565b855184529481019486945092810192600101614700565b60405161471d81612322602082019485613f30565b60405161471d81612322602082019485614113565b65ffffffffffff6147906113b99593606084526060840190611fc9565b931660208201526040818403910152612425565b64537461747360581b631d18955160e21b0181526080602082018190526113b9949265ffffffffffff916147db9190840190611fc9565b931660408201526060818403910152612425565b906113b9949261480a61481892608085526080850190611fc9565b908382036020850152612425565b9260408201526060818403910152612425565b9594936148776122d39361486960a096946f44616d6167654f76657254696d654170631d18955160e21b018b5260c060208c015260c08b0190611fc9565b9089820360408b0152612425565b9160608801528682036080880152612425565b60405161489f81612322602082019485613ef1565b5190205f80516020614f5b8339815191521890565b60405161489f81612322602082019485613f30565b60405161489f81612322602082019485613f6f565b60405161489f81612322602082019485613ff9565b60405161489f81612322602082019485614113565b64ffffffffff80831161496c5766ffffffffffffff821690603883901c1683818110614962570301915b64ffffffffff60381b60389190911b1664ffffffffff60381b19929092166001600160601b031991909116171790565b9003900391614932565b604051637149a3c160e01b815260048101849052602490fd5b61498d6115a7565b805115610b5957614a3861165b6020926f576f726c645374617475734566666563631d18955160e21b018482015264ffffffffff604051915f80516020614f1b833981519152868401846149e18483613ea6565b03946149f5601f1996878101835282610a24565b5190201892614a1b6040519182614a0f8a82019586613ea6565b03908101835282610a24565b5190205f80516020614f5b833981519152185460381c16906143b6565b8060801c916015809260018060801b0316049060405193818501828460051b8701016040528386525f5b848110614a725750505050505090565b825182529185019190830190600101614a62565b614a8e6115a7565b805115610b5957614ae261165b6020926f456e636f756e746572456e7469747900631d18955160e21b018482015264ffffffffff604051915f80516020614f1b833981519152868401846149e18483613ea6565b8060801c916015809260018060801b0316049060405193818501828460051b8701016040528386525f5b848110614b1c5750505050505090565b825182529185019190830190600101614b0c565b614b386115a7565b805115610b5957614b8461165b60209264537461747360581b631d18955160e21b018482015264ffffffffff604051915f80516020614f1b833981519152868401846149e18483613ea6565b8060801c916015809260018060801b0316049060405193818501828460051b8701016040528386525f5b848110614bbe5750505050505090565b825182529185019190830190600101614bae565b614bda6115a7565b805115610b5957614c2e61165b6020926f576f726c645374617475734566666563631d18955160e21b018482015264ffffffffff604051915f80516020614f1b833981519152868401846149e18483613ea6565b8060801c916015809260018060801b0316049060405193818501828460051b8701016040528386525f5b848110614c685750505050505090565b825182529185019190830190600101614c58565b614c846115a7565b805115610b5957614cd861165b6020926f456e636f756e746572456e7469747900631d18955160e21b018482015264ffffffffff604051915f80516020614f1b833981519152868401846149e18483613ea6565b8060801c916015809260018060801b0316049060405193818501828460051b8701016040528386525f5b848110614d125750505050505090565b825182529185019190830190600101614d02565b614d2e6115a7565b805115610b5957614d8261165b6020926f44616d6167654f76657254696d654170631d18955160e21b018482015264ffffffffff604051915f80516020614f1b833981519152868401846149e18483613ea6565b8060801c916015809260018060801b0316049060405193818501828460051b8701016040528386525f5b848110614dbc5750505050505090565b825182529185019190830190600101614dac565b825161020493602001929091614e2a565b9291925b602090818310614e055784518155930192601f1990910190600101614de5565b929391905080614e1457505050565b5f199060031b1c90818354169119905116179055565b909392919380614e59575b50929092602090818310614e055784518155930192601f1990910190600101614de5565b6020811015614eaa575b8015614e355791939082602003908360031b5f198460031b1c19811c908751901c90801983541691161781558183111561432657600101940191601f19910101925f614e35565b90601f908260051c019116614e6356fefe158a7adba34e256807c8a149028d3162918713c3838afc643ce9f96716ebfd86425bff6b57326c7859e89024fe4f238ca327a1ae4a230180dd2f0e88aaa7d974625544000000000000000000000000456e636f756e746572456e74697479003b4102da22e32d82fc925482184f16c09fd4281692720b87d124aef6da48a0f174625544000000000000000000000000576f726c64537461747573456666656314e2fcc58e58e68ec7edc30c8d50dccc3ce2714a623ec81f46b6a63922d76569","linkReferences":{"src/libraries/EffectProcessor.sol":{"EffectProcessor":[{"start":1549,"length":20},{"start":1980,"length":20},{"start":3085,"length":20},{"start":3298,"length":20},{"start":4220,"length":20},{"start":5149,"length":20},{"start":5849,"length":20},{"start":6053,"length":20},{"start":6366,"length":20},{"start":6766,"length":20},{"start":7928,"length":20}]}}},"methodIdentifiers":{"_msgSender()":"119df25f","_msgValue()":"45ec9354","_world()":"e1af802c","applyDamageOverTime(bytes32,bytes32)":"a14542a0","applyStatusEffect(bytes32,bytes32)":"59ffcdba","applyWorldEffects(bytes32)":"2350b879","calculateAllStatusEffects(bytes32)":"26f069a7","calculateCombatStatusEffects(bytes32,(int256,int256,int256,int256,int256,int256))":"d748eca1","checkWorldStatusEffects(bytes32)":"28610bda","cullExpiredWorldEffect(bytes32,bytes32,uint256)":"7b430e8d","currentStacks(bytes32,bytes32)":"0e32c35c","expireIfInvalid(bytes32,bytes32)":"e3140eb8","isValidEffect(bytes32,bytes32)":"e905cb62","supportsInterface(bytes4)":"01ffc9a7"},"id":363}