{"abi":[{"type":"function","name":"_msgSender","inputs":[],"outputs":[{"name":"sender","type":"address","internalType":"address"}],"stateMutability":"view"},{"type":"function","name":"_msgValue","inputs":[],"outputs":[{"name":"value","type":"uint256","internalType":"uint256"}],"stateMutability":"pure"},{"type":"function","name":"_world","inputs":[],"outputs":[{"name":"","type":"address","internalType":"address"}],"stateMutability":"view"},{"type":"function","name":"checkForEncounterEnd","inputs":[{"name":"encounterData","type":"tuple","internalType":"struct CombatEncounterData","components":[{"name":"encounterType","type":"uint8","internalType":"enum EncounterType"},{"name":"start","type":"uint256","internalType":"uint256"},{"name":"end","type":"uint256","internalType":"uint256"},{"name":"rewardsDistributed","type":"bool","internalType":"bool"},{"name":"currentTurn","type":"uint256","internalType":"uint256"},{"name":"currentTurnTimer","type":"uint256","internalType":"uint256"},{"name":"maxTurns","type":"uint256","internalType":"uint256"},{"name":"attackersAreMobs","type":"bool","internalType":"bool"},{"name":"defenders","type":"bytes32[]","internalType":"bytes32[]"},{"name":"attackers","type":"bytes32[]","internalType":"bytes32[]"}]}],"outputs":[{"name":"_encounterEnded","type":"bool","internalType":"bool"},{"name":"_attackersWin","type":"bool","internalType":"bool"}],"stateMutability":"view"},{"type":"function","name":"createEncounter","inputs":[{"name":"encounterType","type":"uint8","internalType":"enum EncounterType"},{"name":"group1","type":"bytes32[]","internalType":"bytes32[]"},{"name":"group2","type":"bytes32[]","internalType":"bytes32[]"}],"outputs":[{"name":"encounterId","type":"bytes32","internalType":"bytes32"}],"stateMutability":"nonpayable"},{"type":"function","name":"endEncounter","inputs":[{"name":"encounterId","type":"bytes32","internalType":"bytes32"},{"name":"randomNumber","type":"uint256","internalType":"uint256"},{"name":"attackersWin","type":"bool","internalType":"bool"}],"outputs":[],"stateMutability":"nonpayable"},{"type":"function","name":"endTurn","inputs":[{"name":"encounterId","type":"bytes32","internalType":"bytes32"},{"name":"playerId","type":"bytes32","internalType":"bytes32"},{"name":"attacks","type":"tuple[]","internalType":"struct Action[]","components":[{"name":"attackerEntityId","type":"bytes32","internalType":"bytes32"},{"name":"defenderEntityId","type":"bytes32","internalType":"bytes32"},{"name":"itemId","type":"uint256","internalType":"uint256"}]}],"outputs":[],"stateMutability":"payable"},{"type":"function","name":"isInEncounter","inputs":[{"name":"entityId","type":"bytes32","internalType":"bytes32"}],"outputs":[{"name":"","type":"bool","internalType":"bool"}],"stateMutability":"view"},{"type":"function","name":"isParticipant","inputs":[{"name":"account","type":"address","internalType":"address"},{"name":"participants","type":"bytes32[]","internalType":"bytes32[]"}],"outputs":[{"name":"_isParticipant","type":"bool","internalType":"bool"}],"stateMutability":"view"},{"type":"function","name":"isParticipant","inputs":[{"name":"playerId","type":"bytes32","internalType":"bytes32"},{"name":"encounterId","type":"bytes32","internalType":"bytes32"}],"outputs":[{"name":"_isParticipant","type":"bool","internalType":"bool"}],"stateMutability":"view"},{"type":"function","name":"supportsInterface","inputs":[{"name":"interfaceId","type":"bytes4","internalType":"bytes4"}],"outputs":[{"name":"","type":"bool","internalType":"bool"}],"stateMutability":"pure"},{"type":"event","name":"Store_SetRecord","inputs":[{"name":"tableId","type":"bytes32","indexed":true,"internalType":"ResourceId"},{"name":"keyTuple","type":"bytes32[]","indexed":false,"internalType":"bytes32[]"},{"name":"staticData","type":"bytes","indexed":false,"internalType":"bytes"},{"name":"encodedLengths","type":"bytes32","indexed":false,"internalType":"EncodedLengths"},{"name":"dynamicData","type":"bytes","indexed":false,"internalType":"bytes"}],"anonymous":false},{"type":"event","name":"Store_SpliceDynamicData","inputs":[{"name":"tableId","type":"bytes32","indexed":true,"internalType":"ResourceId"},{"name":"keyTuple","type":"bytes32[]","indexed":false,"internalType":"bytes32[]"},{"name":"dynamicFieldIndex","type":"uint8","indexed":false,"internalType":"uint8"},{"name":"start","type":"uint48","indexed":false,"internalType":"uint48"},{"name":"deleteCount","type":"uint40","indexed":false,"internalType":"uint40"},{"name":"encodedLengths","type":"bytes32","indexed":false,"internalType":"EncodedLengths"},{"name":"data","type":"bytes","indexed":false,"internalType":"bytes"}],"anonymous":false},{"type":"event","name":"Store_SpliceStaticData","inputs":[{"name":"tableId","type":"bytes32","indexed":true,"internalType":"ResourceId"},{"name":"keyTuple","type":"bytes32[]","indexed":false,"internalType":"bytes32[]"},{"name":"start","type":"uint48","indexed":false,"internalType":"uint48"},{"name":"data","type":"bytes","indexed":false,"internalType":"bytes"}],"anonymous":false},{"type":"error","name":"EncodedLengths_InvalidLength","inputs":[{"name":"length","type":"uint256","internalType":"uint256"}]},{"type":"error","name":"Slice_OutOfBounds","inputs":[{"name":"data","type":"bytes","internalType":"bytes"},{"name":"start","type":"uint256","internalType":"uint256"},{"name":"end","type":"uint256","internalType":"uint256"}]},{"type":"error","name":"Store_IndexOutOfBounds","inputs":[{"name":"length","type":"uint256","internalType":"uint256"},{"name":"accessedIndex","type":"uint256","internalType":"uint256"}]},{"type":"error","name":"Store_InvalidResourceType","inputs":[{"name":"expected","type":"bytes2","internalType":"bytes2"},{"name":"resourceId","type":"bytes32","internalType":"ResourceId"},{"name":"resourceIdString","type":"string","internalType":"string"}]},{"type":"error","name":"Store_InvalidSplice","inputs":[{"name":"startWithinField","type":"uint40","internalType":"uint40"},{"name":"deleteCount","type":"uint40","internalType":"uint40"},{"name":"fieldLength","type":"uint40","internalType":"uint40"}]},{"type":"error","name":"World_AccessDenied","inputs":[{"name":"resource","type":"string","internalType":"string"},{"name":"caller","type":"address","internalType":"address"}]},{"type":"error","name":"World_FunctionSelectorNotFound","inputs":[{"name":"functionSelector","type":"bytes4","internalType":"bytes4"}]},{"type":"error","name":"World_ResourceNotFound","inputs":[{"name":"resourceId","type":"bytes32","internalType":"ResourceId"},{"name":"resourceIdString","type":"string","internalType":"string"}]}],"bytecode":{"object":"0x608060405234801561001057600080fd5b5061565680620000216000396000f3fe6080604052600436106100bc5760003560e01c806345ec935411610074578063e1af802c1161004e578063e1af802c146101f5578063e903546c1461020a578063fdb4dcd01461022a57600080fd5b806345ec93541461019d578063b2467894146101b5578063c6ca743c146101d557600080fd5b80631b3561d3116100a55780631b3561d3146101235780631e45d614146101385780632c86e0e21461016f57600080fd5b806301ffc9a7146100c1578063119df25f146100f6575b600080fd5b3480156100cd57600080fd5b506100e16100dc3660046146b5565b61024a565b60405190151581526020015b60405180910390f35b34801561010257600080fd5b5061010b6102e3565b6040516001600160a01b0390911681526020016100ed565b6101366101313660046147af565b6102f2565b005b34801561014457600080fd5b5061015861015336600461491c565b61071e565b6040805192151583529015156020830152016100ed565b34801561017b57600080fd5b5061018f61018a366004614a19565b6108e5565b6040519081526020016100ed565b3480156101a957600080fd5b5036601f19013561018f565b3480156101c157600080fd5b506100e16101d0366004614aa2565b610e2b565b3480156101e157600080fd5b506100e16101f0366004614af2565b610f01565b34801561020157600080fd5b5061010b610fbf565b34801561021657600080fd5b50610136610225366004614b14565b610fc9565b34801561023657600080fd5b506100e1610245366004614b4d565b6113fd565b60007fffffffff0000000000000000000000000000000000000000000000000000000082167fb5dee1270000000000000000000000000000000000000000000000000000000014806102dd57507fffffffff0000000000000000000000000000000000000000000000000000000082167f01ffc9a700000000000000000000000000000000000000000000000000000000145b92915050565b60006102ed611411565b905090565b60006102fd84611443565b90506000610309610fbf565b6001600160a01b0316634f10aabc856040518263ffffffff1660e01b815260040161033691815260200190565b602060405180830381865afa158015610353573d6000803e3d6000fd5b505050506040513d601f19601f820116820180604052508101906103779190614b66565b9050816020015160001415801561039057506040820151155b6104075760405162461bcd60e51b815260206004820152602360248201527f454e434f554e5445522053595354454d3a20494e56414c494420454e434f554e60448201527f544552000000000000000000000000000000000000000000000000000000000060648201526084015b60405180910390fd5b8160c001518260800151106104845760405162461bcd60e51b815260206004820152602360248201527f454e434f554e5445522053595354454d3a204558504952454420454e434f554e60448201527f544552000000000000000000000000000000000000000000000000000000000060648201526084016103fe565b61048c6102e3565b6001600160a01b0316816001600160a01b03161480156104b157506104b18486610f01565b6104fd5760405162461bcd60e51b815260206004820152601f60248201527f454e434f554e5445522053595354454d3a204e4f4e2d434f4d424154414e540060448201526064016103fe565b60008251600281111561051257610512614b83565b0361070d57600282608001516105289190614baf565b60000361063657428260a00151601e6105419190614be7565b116105db576105508486610f01565b61059c5760405162461bcd60e51b815260206004820181905260248201527f454e434f554e5445522053595354454d3a20494e56414c49442043414c4c455260448201526064016103fe565b6105ab81836101200151610e2b565b156105d6576001826080018181516105c39190614be7565b90525060808201516105d6908690611548565b61070d565b6105ea81836101000151610e2b565b6105d65760405162461bcd60e51b815260206004820152601960248201527f43616e6e6f7420656e6420646566656e64657273207475726e0000000000000060448201526064016103fe565b428260a00151601e6106489190614be7565b116106b2576106578486610f01565b6106a35760405162461bcd60e51b815260206004820181905260248201527f454e434f554e5445522053595354454d3a20494e56414c49442043414c4c455260448201526064016103fe565b6105ab81836101000151610e2b565b6106c181836101200151610e2b565b61070d5760405162461bcd60e51b815260206004820152601960248201527f43616e6e6f7420656e642061747461636b657273207475726e0000000000000060448201526064016103fe565b6107178584611601565b5050505050565b60008060008060005b856101000151518110156107e45761073d610fbf565b6001600160a01b031663525b0e1e876101000151838151811061076257610762614bfa565b60200260200101516040518263ffffffff1660e01b815260040161078891815260200190565b602060405180830381865afa1580156107a5573d6000803e3d6000fd5b505050506040513d601f19601f820116820180604052508101906107c99190614c10565b156107dc57826107d881614c2d565b9350505b600101610727565b5060005b856101200151518110156108a5576107fe610fbf565b6001600160a01b031663525b0e1e876101200151838151811061082357610823614bfa565b60200260200101516040518263ffffffff1660e01b815260040161084991815260200190565b602060405180830381865afa158015610866573d6000803e3d6000fd5b505050506040513d601f19601f8201168201806040525081019061088a9190614c10565b1561089d578161089981614c2d565b9250505b6001016107e8565b50846101200151518114806108bf57508461010001515182145b806108d157508460c001518560800151145b935084610100015151821492505050915091565b60006108f86108f26102e3565b84610e2b565b8061090f575061090f6109096102e3565b83610e2b565b61095b5760405162461bcd60e51b815260206004820181905260248201527f454e434f554e5445522053595354454d3a20494e56414c49442053454e44455260448201526064016103fe565b6000806109818560008151811061097457610974614bfa565b60200260200101516116be565b91509150600080610992878761176f565b909250905060018860028111156109ab576109ab614b83565b03610b20576000806109bb610fbf565b6001600160a01b031663c6d5525b858589896040518563ffffffff1660e01b81526004016109ec9493929190614c83565b6040805180830381865afa158015610a08573d6000803e3d6000fd5b505050506040513d601f19601f82011682018060405250810190610a2c9190614cc8565b9150915081610a7d5760405162461bcd60e51b815260206004820152601d60248201527f454e434f554e5445522053595354454d3a20494e56414c49442050564500000060448201526064016103fe565b6040514290610a96908c90879087908590602001614d20565b60405160208183030381529060405280519060200120975060006040518061014001604052808d6002811115610ace57610ace614b83565b81526020018381526020016000815260200160001515815260200160018152602001428152602001600f81526020018415158152602001868152602001878152509050610b1b8982611824565b505050505b6000886002811115610b3457610b34614b83565b03610ca057610b41610fbf565b6001600160a01b0316632933423f838387876040518563ffffffff1660e01b8152600401610b729493929190614c83565b602060405180830381865afa158015610b8f573d6000803e3d6000fd5b505050506040513d601f19601f82011682018060405250810190610bb39190614c10565b610bff5760405162461bcd60e51b815260206004820152601d60248201527f454e434f554e5445522053595354454d3a20494e56414c49442050565000000060448201526064016103fe565b6040514290610c18908a90859085908590602001614d20565b60405160208183030381529060405280519060200120955060006040518061014001604052808b6002811115610c5057610c50614b83565b81526020810184905260006040820181905260608201819052600160808301524260a0830152600f60c083015260e08201526101008101859052610120018590529050610c9d8782611824565b50505b604080516060808201835260008083526020830181905292820152905b8351811015610d7957610ce8848281518110610cdb57610cdb614bfa565b6020026020010151611900565b8051909250158015610cfc57508160200151155b610d485760405162461bcd60e51b815260206004820181905260248201527f454e434f554e5445522053595354454d3a20494e56414c494420454e5449545960448201526064016103fe565b8682528351610d7190859083908110610d6357610d63614bfa565b6020026020010151836119a6565b600101610cbd565b5060005b8251811015610e1e57610d9b838281518110610cdb57610cdb614bfa565b8051909250158015610daf57508160200151155b610dfb5760405162461bcd60e51b815260206004820181905260248201527f454e434f554e5445522053595354454d3a20494e56414c494420454e5449545960448201526064016103fe565b8682528251610e1690849083908110610d6357610d63614bfa565b600101610d7d565b5050505050509392505050565b6000805b8251811015610efa57610e40610fbf565b6001600160a01b0316634f10aabc848381518110610e6057610e60614bfa565b60200260200101516040518263ffffffff1660e01b8152600401610e8691815260200190565b602060405180830381865afa158015610ea3573d6000803e3d6000fd5b505050506040513d601f19601f82011682018060405250810190610ec79190614b66565b6001600160a01b0316846001600160a01b031603610ee85760019150610efa565b80610ef281614c2d565b915050610e2f565b5092915050565b600080610f0d83611443565b905060005b81610120015151811015610f60578161012001518181518110610f3757610f37614bfa565b60200260200101518503610f4e5760019250610f60565b80610f5881614c2d565b915050610f12565b5081610efa5760005b81610100015151811015610fb7578161010001518181518110610f8e57610f8e614bfa565b60200260200101518503610fa55760019250610fb7565b80610faf81614c2d565b915050610f69565b505092915050565b60006102ed611a4e565b610fda30610fd56102e3565b611a58565b6000610fe584611443565b9050610ff084611a6e565b1561103d5760405162461bcd60e51b815260206004820152601660248201527f656e636f756e74657220616c7265616479206f7665720000000000000000000060448201526064016103fe565b46617a690361105b576110508443611b08565b43604082015261106c565b6110658442611b08565b4260408201525b60008080606060018551600281111561108757611087614b83565b0361113257611094610fbf565b6040517f49572ff1000000000000000000000000000000000000000000000000000000008152600481018a9052602481018990526001600160a01b0391909116906349572ff1906044015b6000604051808303816000875af11580156110fe573d6000803e3d6000fd5b505050506040513d6000823e601f3d908101601f191682016040526111269190810190614d66565b919450925090506111eb565b60008551600281111561114757611147614b83565b036111a357611154610fbf565b6040517f25e62d82000000000000000000000000000000000000000000000000000000008152600481018a9052602481018990526001600160a01b0391909116906325e62d82906044016110df565b60405162461bcd60e51b815260206004820152601c60248201527f756e7265636f676e697a656420656e6f636f756e74657220747970650000000060448201526064016103fe565b6040805160a08101825242815287151560208201529081018490526060810183905260808101829052600080604051908082528060200260200182016040528015611240578160200160208202803683370190505b50905060005b8761012001515181101561131457876101200151818151811061126b5761126b614bfa565b60200260200101519650611282876000801b611b87565b61128c8783611c24565b61129587611c9a565b1561130c576112a2610fbf565b6001600160a01b031663f547ccbd886040518263ffffffff1660e01b81526004016112cf91815260200190565b600060405180830381600087803b1580156112e957600080fd5b505af11580156112fd573d6000803e3d6000fd5b5050505061130c876001611d21565b600101611246565b5060005b876101000151518110156113e657876101000151818151811061133d5761133d614bfa565b60200260200101519650611354876000801b611b87565b61135e8783611c24565b61136787611c9a565b156113de57611374610fbf565b6001600160a01b031663f547ccbd886040518263ffffffff1660e01b81526004016113a191815260200190565b600060405180830381600087803b1580156113bb57600080fd5b505af11580156113cf573d6000803e3d6000fd5b505050506113de876001611d21565b600101611318565b506113f18a83611da5565b50505050505050505050565b60008061140983611e57565b141592915050565b7fffffffffffffffffffffffffffffffffffffffffffffffffffffffffffffffcc36013560601c806114405750335b90565b61149e6040805161014081019091528060008152602001600081526020016000815260200160001515815260200160008152602001600081526020016000815260200160001515815260200160608152602001606081525090565b6040805160018082528183019092526000916020808301908036833701905050905082816000815181106114d4576114d4614bfa565b60209081029190910101526000808061152d7f74625544000000000000000000000000436f6d626174456e636f756e74657200857ea3080201202001202020010000000000000000000000000000000000000000611ed1565b92509250925061153e838383611fa1565b9695505050505050565b60408051600180825281830190925260009160208083019080368337019050509050828160008151811061157e5761157e614bfa565b6020026020010181815250506115fc7f74625544000000000000000000000000436f6d626174456e636f756e7465720060001b826004856040516020016115c791815260200190565b60408051601f198184030181529190527ea3080201202001202020010000000000000000000000000000000000000000612084565b505050565b6116298160008151811061161757611617614bfa565b6020026020010151600001514261212d565b6115fc8260028484604051602001611642929190614e0c565b60408051601f1981840301815290829052611661939291602401614ec2565b60408051601f198184030181529190526020810180517bffffffffffffffffffffffffffffffffffffffffffffffffffffffff167fb2aa60a4000000000000000000000000000000000000000000000000000000001790526121c9565b604080516001808252818301909252600091829182916020808301908036833701905050905083816000815181106116f8576116f8614bfa565b6020908102919091010152600080806117517f74625544000000000000000000000000506f736974696f6e0000000000000000857e04020002020000000000000000000000000000000000000000000000000000611ed1565b925092509250611762838383612277565b9550955050505050915091565b60608060008060005b86518110156117b7576117a387828151811061179657611796614bfa565b602002602001015161229a565b6117ad9084614eea565b9250600101611778565b5060005b85518110156117ed576117d986828151811061179657611796614bfa565b6117e39083614eea565b91506001016117bb565b50808213156118015785935084925061181b565b818113156118145784935085925061181b565b8593508492505b50509250929050565b6000611856826000015183602001518460400151856060015186608001518760a001518860c001518960e0015161232c565b9050600061186e83610100015184610120015161236a565b90506000611886846101000151856101200151612395565b604080516001808252818301909252919250600091906020808301908036833701905050905085816000815181106118c0576118c0614bfa565b60209081029190910101526118f87f74625544000000000000000000000000436f6d626174456e636f756e74657200828686866123d1565b505050505050565b604080516060808201835260008083526020808401829052838501929092528351600180825281860190955292939092918281019080368337019050509050828160008151811061195357611953614bfa565b6020908102919091010152600080806119957f74625544000000000000000000000000456e636f756e746572456e74697479008564210201200160d01b611ed1565b92509250925061153e838383612447565b60006119ba8260000151836020015161248b565b905060006119cb83604001516124ae565b905060006119dc84604001516124c1565b60408051600180825281830190925291925060009190602080830190803683370190505090508581600081518110611a1657611a16614bfa565b60209081029190910101526118f87f74625544000000000000000000000000456e636f756e746572456e7469747900828686866123d1565b60006102ed6124f2565b611a6a611a6483612531565b826125b6565b5050565b604080516001808252818301909252600091829190602080830190803683370190505090508281600081518110611aa757611aa7614bfa565b60209081029190910101526000611b007f74625544000000000000000000000000436f6d626174456e636f756e746572008360027ea3080201202001202020010000000000000000000000000000000000000000612602565b949350505050565b604080516001808252818301909252600091602080830190803683370190505090508281600081518110611b3e57611b3e614bfa565b6020026020010181815250506115fc7f74625544000000000000000000000000436f6d626174456e636f756e7465720060001b826002856040516020016115c791815260200190565b604080516001808252818301909252600091602080830190803683370190505090508281600081518110611bbd57611bbd614bfa565b6020026020010181815250506115fc7f74625544000000000000000000000000456e636f756e746572456e746974790060001b82600085604051602001611c0691815260200190565b60408051601f1981840301815291905264210201200160d01b612084565b604080516001808252818301909252600091602080830190803683370190505090508281600081518110611c5a57611c5a614bfa565b60209081029190910101526115fc7f74625544000000000000000000000000456e636f756e746572456e7469747900826000611c95866126bf565b6126cf565b604080516001808252818301909252600091829190602080830190803683370190505090508281600081518110611cd357611cd3614bfa565b60209081029190910101526000611d157f74625544000000000000000000000000456e636f756e746572456e746974790083600164210201200160d01b612602565b9050611b008160f81c90565b604080516001808252818301909252600091602080830190803683370190505090508281600081518110611d5757611d57614bfa565b6020026020010181815250506115fc7f74625544000000000000000000000000456e636f756e746572456e746974790060001b82600185604051602001611c0691151560f81b815260010190565b6000611dc38260000151836020015184604001518560600151612780565b90506000611dd483608001516124ae565b90506000611de584608001516124c1565b60408051600180825281830190925291925060009190602080830190803683370190505090508581600081518110611e1f57611e1f614bfa565b60209081029190910101526118f87f6f745544000000000000000000000000436f6d6261744f7574636f6d65000000828686866123d1565b604080516001808252818301909252600091829190602080830190803683370190505090508281600081518110611e9057611e90614bfa565b60209081029190910101526000611b007f74625544000000000000000000000000456e636f756e746572456e7469747900838364210201200160d01b612602565b6060600060606000611ee16124f2565b9050306001600160a01b03821603611f0a57611efe8787876127cb565b93509350935050611f98565b6040517f419b58fd0000000000000000000000000000000000000000000000000000000081526001600160a01b0382169063419b58fd90611f53908a908a908a90600401614f0a565b600060405180830381865afa158015611f70573d6000803e3d6000fd5b505050506040513d6000823e601f3d908101601f19168201604052611efe9190810190614f97565b93509350939050565b611ffc6040805161014081019091528060008152602001600081526020016000815260200160001515815260200160008152602001600081526020016000815260200160001515815260200160608152602001606081525090565b612005846128d3565b80151560e08a015260c0890182905260a089018390526080890184905284151560608a015260408901869052602089018790528888600281111561204b5761204b614b83565b600281111561205c5761205c614b83565b81525050505050505050506120718383612957565b6101208301526101008201529392505050565b600061208e6124f2565b9050306001600160a01b038216036120b2576120ad86868686866129a6565b6118f8565b6040517f390baae00000000000000000000000000000000000000000000000000000000081526001600160a01b0382169063390baae0906120ff9089908990899089908990600401614ffa565b600060405180830381600087803b15801561211957600080fd5b505af11580156113f1573d6000803e3d6000fd5b60408051600180825281830190925260009160208083019080368337019050509050828160008151811061216357612163614bfa565b6020026020010181815250506115fc7f7462554400000000000000000000000053657373696f6e54696d65720000000060001b826000856040516020016121ac91815260200190565b60408051601f19818403018152919052630100080160dd1b612084565b60606000806121df6121da85615041565b6129bb565b91509150816000801b03612245576040517ffdde54e20000000000000000000000000000000000000000000000000000000081527fffffffff000000000000000000000000000000000000000000000000000000006000351660048201526024016103fe565b6020840180517bffffffffffffffffffffffffffffffffffffffffffffffffffffffff1682179052611b008285612a7e565b60208301516022840151600091829160f091821c911c5b90969095509350505050565b6040805160018082528183019092526000918291906020808301908036833701905050905082816000815181106122d3576122d3614bfa565b60209081029190910101526000611b007f74625544000000000000000000000000537461747300000000000000000000008360017ee1080020200120202020200000000000000000000000000000000000000000612602565b6060888888888888888860405160200161234d989796959493929190615091565b604051602081830303815290604052905098975050505050505050565b600061238e83516020028351602002606081901b603883901b838301171792915050565b9392505050565b60606123a0836126bf565b6123a9836126bf565b6040516020016123ba9291906150dd565b604051602081830303815290604052905092915050565b60006123db6124f2565b9050306001600160a01b038216036123fa576120ad8686868686612b59565b6040517f298314fb0000000000000000000000000000000000000000000000000000000081526001600160a01b0382169063298314fb906120ff908990899089908990899060040161510c565b6040805160608082018352600080835260208301529181019190915261246c84612b6f565b15156020830152815261247f8383612b8c565b60408201529392505050565b606082826040516020016123ba929190918252151560f81b602082015260210190565b60006102dd8251602002603881901b1790565b60606124cc826126bf565b6040516020016124dc919061515d565b6040516020818303038152906040529050919050565b7f629a4c26e296b22a8e0856e9f6ecb2d1008d7e00081111962cd175fa7488e175546000906001600160a01b03168061252c573391505090565b919050565b60408051600180825281830190925260009182919060208083019080368337019050509050826001600160a01b031660001b8160008151811061257657612576614bfa565b60209081029190910101526000611b007f7462776f726c6400000000000000000053797374656d526567697374727900008383630100080160dd1b612602565b6125c08282612bb3565b611a6a576125cd82612c11565b816040517fd787b7370000000000000000000000000000000000000000000000000000000081526004016103fe929190615179565b60008061260d6124f2565b9050306001600160a01b038216036126335761262b86868686612d4e565b915050611b00565b6040517f8c364d590000000000000000000000000000000000000000000000000000000081526001600160a01b03821690638c364d599061267e9089908990899089906004016151a4565b602060405180830381865afa15801561269b573d6000803e3d6000fd5b505050506040513d601f19601f8201168201806040525081019061262b91906151d3565b60608161238e8160206000612d7b565b60006126d96124f2565b9050306001600160a01b038216036126fc576126f785858585612ddb565b610717565b6040517fef6ea8620000000000000000000000000000000000000000000000000000000081526001600160a01b0382169063ef6ea862906127479088908890889088906004016151ec565b600060405180830381600087803b15801561276157600080fd5b505af1158015612775573d6000803e3d6000fd5b505050505050505050565b6060848484846040516020016127b2949392919093845291151560f81b60208401526021830152604182015260610190565b6040516020818303038152906040529050949350505050565b60606000606060006127dc85612e16565b90506127e9878783612e39565b935060006127f686612e72565b905080156128c8576128088888612eaf565b935066ffffffffffffff841667ffffffffffffffff81111561282c5761282c6146f7565b6040519080825280601f01601f191660200182016040528015612856576020820181803683370190505b5092506020830160005b828160ff1610156128c55760006128788b8b84612ec2565b90506000612895888460ff166028026038011c64ffffffffff1690565b90506128a48260008387612f42565b6128ae8185614be7565b9350505080806128bd9061522b565b915050612860565b50505b505093509350939050565b6000806000806000806000806128ed896000016020015190565b60f81c600281111561290157612901614b83565b60218a015160418b015160618c0151929a509098509650612923905b60f81c90565b60628a015160828b015160a28c015160c28d01519398509196509450925061294a9061291d565b9050919395975091939597565b6060806000603885901c64ffffffffff1661297b61297686848461300d565b61309b565b935090508064ffffffffff606087901c160161299b61297686848461300d565b925050509250929050565b61071785856129b584876130ac565b856130e5565b6040805160018082528183019092526000918291829160208083019080368337019050509050837bffffffffffffffffffffffffffffffffffffffffffffffffffffffff191681600081518110612a1457612a14614bfa565b602090810291909101015260008080612a6d7f7462776f726c6400000000000000000046756e6374696f6e53656c6563746f72857e24020020040000000000000000000000000000000000000000000000000000611ed1565b925092509250611762838383613389565b60606000612a8a611a4e565b90506001600160a01b0381163003612acb576000612ab2612aa9611411565b60008787613395565b9350905080612ac457612ac4836134d0565b50506102dd565b6040517f3ae7af080000000000000000000000000000000000000000000000000000000081526001600160a01b03821690633ae7af0890612b12908790879060040161524a565b6000604051808303816000875af1158015612b31573d6000803e3d6000fd5b505050506040513d6000823e601f3d908101601f19168201604052611b009190810190615263565b6107178585858585612b6a8b6134d8565b61355d565b60208101516040820151600090612b859061291d565b9050915091565b60606000603884901c64ffffffffff16612baa61297685848461300d565b95945050505050565b6000612c017f6e730000000000000000000000000000000000000000000000000000000000007dffffffffffffffffffffffffffff0000000000000000000000000000000085161783613896565b8061238e575061238e8383613896565b606081601081901b6000612c248361395f565b9050827fffffffffffffffffffffffffffff000000000000000000000000000000000000831615612c7f57612c7a7fffffffffffffffffffffffffffff0000000000000000000000000000000000008416613976565b612cb6565b6040518060400160405280600681526020017f3c726f6f743e00000000000000000000000000000000000000000000000000008152505b7fffffffffffffffffffffffffffffffff00000000000000000000000000000000831615612cec57612ce783613976565b612d23565b6040518060400160405280600681526020017f3c726f6f743e00000000000000000000000000000000000000000000000000008152505b604051602001612d3593929190615298565b6040516020818303038152906040529350505050919050565b6000612baa612d5d8686613a1a565b60ff858116601b0360080285901c16612d7685876130ac565b613a70565b82516060906000612d8c8583615326565b9050604051925060208301601f19603f83860101166040528184526000602088015b84821015612dcf578051871b83529187019160019190910190602001612dae565b50505050509392505050565b6000612de78585612eaf565b90506000612e04828560ff166028026038011c64ffffffffff1690565b90506118f88686866000858888613ac1565b60006008612e266002602061533d565b612e309190615326565b9190911c919050565b606081600003612e58575060408051602081019091526000815261238e565b6000612e648585613a1a565b9050612baa81600085613efb565b60006008600180612e856002602061533d565b612e8f919061533d565b612e99919061533d565b612ea39190615326565b8260ff911c1692915050565b600061238e612ebe8484613f1e565b5490565b60008383604051602001612ed7929190615350565b604051602081830303815290604052805190602001208260f81b7effffffffffffffffffffffffffffffffffffffffffffffffffffffffffffff19167f3b4102da22e32d82fc925482184f16c09fd4281692720b87d124aef6da48a0f1181860001c90509392505050565b8215612fc95760208310612f6c57602083048401935060208381612f6857612f68614b99565b0692505b8215612fc9576020839003600081841015612f8f5750600019600884021c612f99565b50600019600882021c5b8554600886021b818451168219821617845250818411612fba575050613007565b50600194909401939182900391015b5b60208210612feb5783548152600190930192601f1990910190602001612fca565b81156130075780518454600019600885021c9182169119161781525b50505050565b60008183118061301d5750835182115b1561305a578383836040517f23230fa30000000000000000000000000000000000000000000000000000000081526004016103fe9392919061538c565b602084016130688482614be7565b90506000613076858561533d565b6fffffffffffffffffffffffffffffffff1660809290921b9190911795945050505050565b6060600061238e8360206000613f74565b600080805b8360ff168110156130dd576130d360ff601b83900360080287901c1683614be7565b91506001016130b1565b509392505050565b7f6f74000000000000000000000000000000000000000000000000000000000000847fffff000000000000000000000000000000000000000000000000000000000000160361316f57837f8c0b5119d4cec7b284c6b1b39252a03d1e2f2d7451a5895562524c113bb952be848484604051613162939291906153b1565b60405180910390a2613007565b600061317b8585613a1a565b9050600061318886613fe3565b905060005b815181101561325d5760008282815181106131aa576131aa614bfa565b602002602001015190506131d66004826affffffffffffffffffffff191661406c90919063ffffffff16565b15613254576040517f964f667d000000000000000000000000000000000000000000000000000000008152606082901c9063964f667d90613221908b908b908b908b906004016153e4565b600060405180830381600087803b15801561323b57600080fd5b505af115801561324f573d6000803e3d6000fd5b505050505b5060010161318d565b50857f8c0b5119d4cec7b284c6b1b39252a03d1e2f2d7451a5895562524c113bb952be868686604051613292939291906153b1565b60405180910390a26132ad828565ffffffffffff168561408a565b60005b81518110156133805760008282815181106132cd576132cd614bfa565b602002602001015190506132f96008826affffffffffffffffffffff191661406c90919063ffffffff16565b15613377576040517fa8ba8721000000000000000000000000000000000000000000000000000000008152606082901c9063a8ba872190613344908b908b908b908b906004016153e4565b600060405180830381600087803b15801561335e57600080fd5b505af1158015613372573d6000803e3d6000fd5b505050505b506001016132b0565b50505050505050565b60008061228e856140a0565b600060606000806133a5866140b2565b90925090506001600160a01b0382166133f657856133c287612c11565b6040517ffbf10ce60000000000000000000000000000000000000000000000000000000081526004016103fe92919061524a565b80613405576134058689614156565b8615613471577dffffffffffffffffffffffffffff0000000000000000000000000000000086167f6e7300000000000000000000000000000000000000000000000000000000000017600061345982614160565b905061346e826134698b84614be7565b6141d9565b50505b600061347d8760101b90565b7fffffffffffffffffffffffffffff00000000000000000000000000000000000016146134b5576134b088888488614275565b6134c1565b6134c1888884886142ed565b90999098509650505050505050565b805160208201fd5b60007f8b9d8c8b908d9affffffffffffffffffab9e9d939a8d00000000000000000000820161352757507e60030220202000000000000000000000000000000000000000000000000000919050565b6102dd6135547f746273746f72650000000000000000005461626c6573000000000000000000008461434e565b60206000613a70565b7f6f74000000000000000000000000000000000000000000000000000000000000867fffff00000000000000000000000000000000000000000000000000000000000016036135e957857f8dbb3a9672eebfd3773e72dd9c102393436816d832c7ba9e1e1ac8fcadcac7a9868686866040516135dc949392919061541d565b60405180910390a26118f8565b60006135f487613fe3565b905060005b81518110156136cd57600082828151811061361657613616614bfa565b602002602001015190506136426001826affffffffffffffffffffff191661406c90919063ffffffff16565b156136c4576040517f57066c9c000000000000000000000000000000000000000000000000000000008152606082901c906357066c9c90613691908c908c908c908c908c908c9060040161545c565b600060405180830381600087803b1580156136ab57600080fd5b505af11580156136bf573d6000803e3d6000fd5b505050505b506001016135f9565b50867f8dbb3a9672eebfd3773e72dd9c102393436816d832c7ba9e1e1ac8fcadcac7a987878787604051613704949392919061541d565b60405180910390a260006137188888613a1a565b9050600060208701905061373082600089518461436a565b600061373b85612e72565b11156137bf57600061374d8a8a613f1e565b878155905060208601915060008060005b61376788612e72565b8160ff1610156137ba5761377c8d8d83612ec2565b92506137978a8260ff166028026038011c64ffffffffff1690565b91506137a6836000848861436a565b6137b08286614be7565b945060010161375e565b505050505b60005b83518110156113f15760008482815181106137df576137df614bfa565b6020026020010151905061380b6002826affffffffffffffffffffff191661406c90919063ffffffff16565b1561388d576040517f5b28cdaf000000000000000000000000000000000000000000000000000000008152606082901c90635b28cdaf9061385a908e908e908e908e908e908e9060040161545c565b600060405180830381600087803b15801561387457600080fd5b505af1158015613888573d6000803e3d6000fd5b505050505b506001016137c2565b6040805160028082526060820183526000928392919060208301908036833701905050905083816000815181106138cf576138cf614bfa565b602002602001018181525050826001600160a01b031660001b816001815181106138fb576138fb614bfa565b602090810291909101015260006139537f7462776f726c640000000000000000005265736f75726365416363657373000083837e01010001000000000000000000000000000000000000000000000000000000612602565b9050612baa8160f81c90565b600061396d60706010614be7565b9190911b919050565b606060005b60108110156139db577fffffffffffffffffffffffffffffffff000000000000000000000000000000008316600882021b7fff0000000000000000000000000000000000000000000000000000000000000016156139db5760010161397b565b604080517fffffffffffffffffffffffffffffffff00000000000000000000000000000000851660208201528151603090910190915281815280611b00565b60008282604051602001613a2f929190615350565b60408051601f1981840301815291905280516020909101207f86425bff6b57326c7859e89024fe4f238ca327a1ae4a230180dd2f0e88aaa7d9189392505050565b600060208210613a9657602082048401935060208281613a9257613a92614b99565b0691505b508254600882021b6020829003808411156130dd576001850154600882021c82179150509392505050565b7f7462000000000000000000000000000000000000000000000000000000000000877fffff0000000000000000000000000000000000000000000000000000000000001614613b81577f74620000000000000000000000000000000000000000000000000000000000008788604051602001613b3f91815260200190565b60408051601f19818403018152908290527f31b466830000000000000000000000000000000000000000000000000000000082526103fe9392916004016154b5565b6000613b9c828760ff166028026038011c64ffffffffff1690565b9050600083518564ffffffffff1683613bb5919061533d565b613bbf9190614be7565b9050808214158015613be1575081613bd786886154f6565b64ffffffffff1614155b15613c31576040517fa65010b400000000000000000000000000000000000000000000000000000000815264ffffffffff80881660048301528087166024830152831660448201526064016103fe565b818664ffffffffff161115613c82576040517f7e8578d30000000000000000000000000000000000000000000000000000000081526004810183905264ffffffffff871660248201526044016103fe565b6000613c8f848984614429565b90506000613c9c8b613fe3565b905060005b8151811015613d67576000828281518110613cbe57613cbe614bfa565b60200260200101519050613cea6010826affffffffffffffffffffff191661406c90919063ffffffff16565b15613d5e57606081901c6001600160a01b03166355eb5a288e8e8e8e8e8d8f6040518863ffffffff1660e01b8152600401613d2b9796959493929190615514565b600060405180830381600087803b158015613d4557600080fd5b505af1158015613d59573d6000803e3d6000fd5b505050505b50600101613ca1565b5064ffffffffff881660005b8a60ff168160ff161015613da657613d9a878260ff166028026038011c64ffffffffff1690565b90910190600101613d73565b508b7ffe158a7adba34e256807c8a149028d3162918713c3838afc643ce9f96716ebfd8c8c848c888d604051613de196959493929190615572565b60405180910390a250828414613e02576000613dfd8c8c613f1e565b839055505b6000613e0f8c8c8c612ec2565b9050613e23818a64ffffffffff168961408a565b5060005b8151811015613eed576000828281518110613e4457613e44614bfa565b60200260200101519050613e706020826affffffffffffffffffffff191661406c90919063ffffffff16565b15613ee457606081901c6001600160a01b031663635845338e8e8e8e8e8a8f6040518863ffffffff1660e01b8152600401613eb19796959493929190615514565b600060405180830381600087803b158015613ecb57600080fd5b505af1158015613edf573d6000803e3d6000fd5b505050505b50600101613e27565b505050505050505050505050565b60405160208101601f19603f84840101166040528282526130dd85858584612f42565b60008282604051602001613f33929190615350565b60408051601f1981840301815291905280516020909101207f14e2fcc58e58e68ec7edc30c8d50dccc3ce2714a623ec81f46b6a63922d76569189392505050565b60606000613f828560801c90565b90506fffffffffffffffffffffffffffffffff85166000858281613fa857613fa8614b99565b04905060405193506020840160208202810160405281855260005b82811015612dcf578451871c825293870193602090910190600101613fc3565b6040805160018082528183019092526060916000919060208083019080368337019050509050828160008151811061401d5761401d614bfa565b602090810291909101015260006140557f746273746f726500000000000000000053746f7265486f6f6b7300000000000083836144f7565b9050611b00614067826000845161300d565b614531565b60008160ff168261407d8560581c90565b1660ff1614905092915050565b6115fc8383835161409b8560200190565b61436a565b60208101516040820151600090612b85565b604080516001808252818301909252600091829182916020808301908036833701905050905083816000815181106140ec576140ec614bfa565b6020908102919091010152600080806141457f7462776f726c6400000000000000000053797374656d73000000000000000000857e150200140100000000000000000000000000000000000000000000000000006127cb565b925092509250611762838383614542565b6125c0828261454e565b60408051600180825281830190925260009182919060208083019080368337019050509050828160008151811061419957614199614bfa565b60209081029190910101526000611b007f7462776f726c6400000000000000000042616c616e63657300000000000000008383630100080160dd1b612d4e565b60408051600180825281830190925260009160208083019080368337019050509050828160008151811061420f5761420f614bfa565b6020026020010181815250506115fc7f7462776f726c6400000000000000000042616c616e636573000000000000000060001b8260008560405160200161425891815260200190565b60408051601f19818403018152919052630100080160dd1b6129a6565b60006060836001600160a01b031660006142908589896145ac565b60405161429d919061515d565b60006040518083038185875af1925050503d80600081146142da576040519150601f19603f3d011682016040523d82523d6000602084013e6142df565b606091505b509097909650945050505050565b60006060836001600160a01b03166143068488886145ac565b604051614313919061515d565b600060405180830381855af49150503d80600081146142da576040519150601f19603f3d011682016040523d82523d6000602084013e6142df565b6040805160208101849052908101829052600090606001613a2f565b82156143e457602083106143945760208304840193506020838161439057614390614b99565b0692505b82156143e45760208390036000600019600885021c1990506008850281811c91508351811c90508119875416828216178755508184116143d5575050613007565b50600194909401939182900391015b5b602082106144065780518455600190930192601f19909101906020016143e5565b8115613007576000600019600884021c8554835182191691161785555050505050565b600064ffffffffff82111561446d576040517f7149a3c1000000000000000000000000000000000000000000000000000000008152600481018390526024016103fe565b8366ffffffffffffff811660ff851660280260380182901c64ffffffffff1680851061449f57808503820191506144a7565b848103820391505b5064ffffffffff6038602860ff8816020181811b197fffffffffffffffffffffffffffffffffffffffffffffffffff000000000000009490941690921792909216918416901b1790509392505050565b6060611b00614507858585612ec2565b600061452c856145178989612eaf565b9060ff166028026038011c64ffffffffff1690565b613efb565b6060600061238e8360156000613f74565b60008061228e856145db565b600061459c7f6e730000000000000000000000000000000000000000000000000000000000007dffffffffffffffffffffffffffff00000000000000000000000000000000851617836145f8565b8061238e575061238e83836145f8565b60608383836040516020016145c3939291906155ce565b60405160208183030381529060405290509392505050565b6020810151603482015160609190911c90600090612b859061291d565b60408051600280825260608201835260009283929190602083019080368337019050509050838160008151811061463157614631614bfa565b602002602001018181525050826001600160a01b031660001b8160018151811061465d5761465d614bfa565b602090810291909101015260006139537f7462776f726c640000000000000000005265736f75726365416363657373000083837e01010001000000000000000000000000000000000000000000000000000000612d4e565b6000602082840312156146c757600080fd5b81357fffffffff000000000000000000000000000000000000000000000000000000008116811461238e57600080fd5b634e487b7160e01b600052604160045260246000fd5b6040516060810167ffffffffffffffff81118282101715614730576147306146f7565b60405290565b604051610140810167ffffffffffffffff81118282101715614730576147306146f7565b604051601f8201601f1916810167ffffffffffffffff81118282101715614783576147836146f7565b604052919050565b600067ffffffffffffffff8211156147a5576147a56146f7565b5060051b60200190565b600080600060608085870312156147c557600080fd5b84359350602080860135935060408087013567ffffffffffffffff8111156147ec57600080fd5b8701601f810189136147fd57600080fd5b803561481061480b8261478b565b61475a565b81815260609091028201840190848101908b83111561482e57600080fd5b928501925b828410156148765786848d03121561484b5760008081fd5b61485361470d565b843581528685013587820152858501358682015282529286019290850190614833565b809750505050505050509250925092565b80356003811061252c57600080fd5b80151581146148a457600080fd5b50565b803561252c81614896565b600082601f8301126148c357600080fd5b813560206148d361480b8361478b565b8083825260208201915060208460051b8701019350868411156148f557600080fd5b602086015b8481101561491157803583529183019183016148fa565b509695505050505050565b60006020828403121561492e57600080fd5b813567ffffffffffffffff8082111561494657600080fd5b90830190610140828603121561495b57600080fd5b614963614736565b61496c83614887565b8152602083013560208201526040830135604082015261498e606084016148a7565b60608201526080830135608082015260a083013560a082015260c083013560c08201526149bd60e084016148a7565b60e082015261010080840135838111156149d657600080fd5b6149e2888287016148b2565b82840152505061012080840135838111156149fc57600080fd5b614a08888287016148b2565b918301919091525095945050505050565b600080600060608486031215614a2e57600080fd5b614a3784614887565b9250602084013567ffffffffffffffff80821115614a5457600080fd5b614a60878388016148b2565b93506040860135915080821115614a7657600080fd5b50614a83868287016148b2565b9150509250925092565b6001600160a01b03811681146148a457600080fd5b60008060408385031215614ab557600080fd5b8235614ac081614a8d565b9150602083013567ffffffffffffffff811115614adc57600080fd5b614ae8858286016148b2565b9150509250929050565b60008060408385031215614b0557600080fd5b50508035926020909101359150565b600080600060608486031215614b2957600080fd5b83359250602084013591506040840135614b4281614896565b809150509250925092565b600060208284031215614b5f57600080fd5b5035919050565b600060208284031215614b7857600080fd5b815161238e81614a8d565b634e487b7160e01b600052602160045260246000fd5b634e487b7160e01b600052601260045260246000fd5b600082614bcc57634e487b7160e01b600052601260045260246000fd5b500690565b634e487b7160e01b600052601160045260246000fd5b808201808211156102dd576102dd614bd1565b634e487b7160e01b600052603260045260246000fd5b600060208284031215614c2257600080fd5b815161238e81614896565b60006000198203614c4057614c40614bd1565b5060010190565b60008151808452602080850194506020840160005b83811015614c7857815187529582019590820190600101614c5c565b509495945050505050565b608081526000614c966080830187614c47565b8281036020840152614ca88187614c47565b91505061ffff808516604084015280841660608401525095945050505050565b60008060408385031215614cdb57600080fd5b8251614ce681614896565b6020840151909250614cf781614896565b809150509250929050565b600381106148a457634e487b7160e01b600052602160045260246000fd5b614d2985614d02565b848152608060208201526000614d426080830186614c47565b8281036040840152614d548186614c47565b91505082606083015295945050505050565b600080600060608486031215614d7b57600080fd5b835192506020808501519250604085015167ffffffffffffffff811115614da157600080fd5b8501601f81018713614db257600080fd5b8051614dc061480b8261478b565b81815260059190911b82018301908381019089831115614ddf57600080fd5b928401925b82841015614dfd57835182529284019290840190614de4565b80955050505050509250925092565b60006040808301858452602060406020860152818651808452606093506060870191506020880160005b82811015614e63578151805185528581015186860152870151878501529285019290840190600101614e36565b50919998505050505050505050565b60005b83811015614e8d578181015183820152602001614e75565b50506000910152565b60008151808452614eae816020860160208601614e72565b601f01601f19169290920160200192915050565b838152614ece83614d02565b826020820152606060408201526000612baa6060830184614e96565b8082018281126000831280158216821582161715610fb757610fb7614bd1565b838152606060208201526000614f236060830185614c47565b9050826040830152949350505050565b600082601f830112614f4457600080fd5b815167ffffffffffffffff811115614f5e57614f5e6146f7565b614f716020601f19601f8401160161475a565b818152846020838601011115614f8657600080fd5b611b00826020830160208701614e72565b600080600060608486031215614fac57600080fd5b835167ffffffffffffffff80821115614fc457600080fd5b614fd087838801614f33565b9450602086015193506040860151915080821115614fed57600080fd5b50614a8386828701614f33565b85815260a06020820152600061501360a0830187614c47565b60ff86166040840152828103606084015261502e8186614e96565b9150508260808301529695505050505050565b6000815160208301517fffffffff00000000000000000000000000000000000000000000000000000000808216935060048310156150895780818460040360031b1b83161693505b505050919050565b61509a89614d02565b60f898891b815260018101979097526021870195909552921515861b6041860152604285019190915260628401526082830152151590911b60a282015260a30190565b600083516150ef818460208801614e72565b835190830190615103818360208801614e72565b01949350505050565b85815260a06020820152600061512560a0830187614c47565b82810360408401526151378187614e96565b905084606084015282810360808401526151518185614e96565b98975050505050505050565b6000825161516f818460208701614e72565b9190910192915050565b60408152600061518c6040830185614e96565b90506001600160a01b03831660208301529392505050565b8481526080602082015260006151bd6080830186614c47565b60ff949094166040830152506060015292915050565b6000602082840312156151e557600080fd5b5051919050565b8481526080602082015260006152056080830186614c47565b60ff8516604084015282810360608401526152208185614e96565b979650505050505050565b600060ff821660ff810361524157615241614bd1565b60010192915050565b828152604060208201526000611b006040830184614e96565b60006020828403121561527557600080fd5b815167ffffffffffffffff81111561528c57600080fd5b611b0084828501614f33565b7fffff0000000000000000000000000000000000000000000000000000000000008416815260007f3a0000000000000000000000000000000000000000000000000000000000000080600284015284516152f9816003860160208901614e72565b808401905081600382015284519150615319826004830160208801614e72565b0160040195945050505050565b80820281158282048414176102dd576102dd614bd1565b818103818111156102dd576102dd614bd1565b8281526000602080830184516020860160005b8281101561537f57815184529284019290840190600101615363565b5091979650505050505050565b60608152600061539f6060830186614e96565b60208301949094525060400152919050565b6060815260006153c46060830186614c47565b65ffffffffffff85166020840152828103604084015261153e8185614e96565b8481526080602082015260006153fd6080830186614c47565b65ffffffffffff8516604084015282810360608401526152208185614e96565b6080815260006154306080830187614c47565b82810360208401526154428187614e96565b905084604084015282810360608401526152208185614e96565b86815260c06020820152600061547560c0830188614c47565b82810360408401526154878188614e96565b905085606084015282810360808401526154a18186614e96565b9150508260a0830152979650505050505050565b7fffff00000000000000000000000000000000000000000000000000000000000084168152826020820152606060408201526000612baa6060830184614e96565b64ffffffffff818116838216019080821115610efa57610efa614bd1565b87815260e06020820152600061552d60e0830189614c47565b60ff8816604084015264ffffffffff87811660608501528616608084015260a0830185905282810360c08401526155648185614e96565b9a9950505050505050505050565b60c08152600061558560c0830189614c47565b60ff8816602084015265ffffffffffff8716604084015264ffffffffff8616606084015284608084015282810360a08401526155c18185614e96565b9998505050505050505050565b600084516155e0818460208901614e72565b60609490941b7fffffffffffffffffffffffffffffffffffffffff000000000000000000000000169190930190815260148101919091526034019291505056fea2646970667358221220aba07829cb5fb369ee3092eacaf7043d471a1dc100e31c2f6a113633259b7f1364736f6c63430008180033","linkReferences":{}},"methodIdentifiers":{"_msgSender()":"119df25f","_msgValue()":"45ec9354","_world()":"e1af802c","checkForEncounterEnd((uint8,uint256,uint256,bool,uint256,uint256,uint256,bool,bytes32[],bytes32[]))":"1e45d614","createEncounter(uint8,bytes32[],bytes32[])":"2c86e0e2","endEncounter(bytes32,uint256,bool)":"e903546c","endTurn(bytes32,bytes32,(bytes32,bytes32,uint256)[])":"1b3561d3","isInEncounter(bytes32)":"fdb4dcd0","isParticipant(address,bytes32[])":"b2467894","isParticipant(bytes32,bytes32)":"c6ca743c","supportsInterface(bytes4)":"01ffc9a7"},"id":259}