{"abi":[{"type":"function","name":"_msgSender","inputs":[],"outputs":[{"name":"sender","type":"address","internalType":"address"}],"stateMutability":"view"},{"type":"function","name":"_msgValue","inputs":[],"outputs":[{"name":"value","type":"uint256","internalType":"uint256"}],"stateMutability":"pure"},{"type":"function","name":"_world","inputs":[],"outputs":[{"name":"","type":"address","internalType":"address"}],"stateMutability":"view"},{"type":"function","name":"createEncounter","inputs":[{"name":"encounterType","type":"uint8","internalType":"enum EncounterType"},{"name":"group1","type":"bytes32[]","internalType":"bytes32[]"},{"name":"group2","type":"bytes32[]","internalType":"bytes32[]"}],"outputs":[{"name":"encounterId","type":"bytes32","internalType":"bytes32"}],"stateMutability":"nonpayable"},{"type":"function","name":"endEncounter","inputs":[{"name":"encounterId","type":"bytes32","internalType":"bytes32"},{"name":"randomNumber","type":"uint256","internalType":"uint256"},{"name":"attackersWin","type":"bool","internalType":"bool"}],"outputs":[],"stateMutability":"nonpayable"},{"type":"function","name":"endTurn","inputs":[{"name":"encounterId","type":"bytes32","internalType":"bytes32"},{"name":"playerId","type":"bytes32","internalType":"bytes32"},{"name":"attacks","type":"tuple[]","internalType":"struct Action[]","components":[{"name":"attackerEntityId","type":"bytes32","internalType":"bytes32"},{"name":"defenderEntityId","type":"bytes32","internalType":"bytes32"},{"name":"itemId","type":"uint256","internalType":"uint256"}]}],"outputs":[],"stateMutability":"payable"},{"type":"function","name":"supportsInterface","inputs":[{"name":"interfaceId","type":"bytes4","internalType":"bytes4"}],"outputs":[{"name":"","type":"bool","internalType":"bool"}],"stateMutability":"pure"},{"type":"event","name":"Store_SetRecord","inputs":[{"name":"tableId","type":"bytes32","indexed":true,"internalType":"ResourceId"},{"name":"keyTuple","type":"bytes32[]","indexed":false,"internalType":"bytes32[]"},{"name":"staticData","type":"bytes","indexed":false,"internalType":"bytes"},{"name":"encodedLengths","type":"bytes32","indexed":false,"internalType":"EncodedLengths"},{"name":"dynamicData","type":"bytes","indexed":false,"internalType":"bytes"}],"anonymous":false},{"type":"event","name":"Store_SpliceDynamicData","inputs":[{"name":"tableId","type":"bytes32","indexed":true,"internalType":"ResourceId"},{"name":"keyTuple","type":"bytes32[]","indexed":false,"internalType":"bytes32[]"},{"name":"dynamicFieldIndex","type":"uint8","indexed":false,"internalType":"uint8"},{"name":"start","type":"uint48","indexed":false,"internalType":"uint48"},{"name":"deleteCount","type":"uint40","indexed":false,"internalType":"uint40"},{"name":"encodedLengths","type":"bytes32","indexed":false,"internalType":"EncodedLengths"},{"name":"data","type":"bytes","indexed":false,"internalType":"bytes"}],"anonymous":false},{"type":"event","name":"Store_SpliceStaticData","inputs":[{"name":"tableId","type":"bytes32","indexed":true,"internalType":"ResourceId"},{"name":"keyTuple","type":"bytes32[]","indexed":false,"internalType":"bytes32[]"},{"name":"start","type":"uint48","indexed":false,"internalType":"uint48"},{"name":"data","type":"bytes","indexed":false,"internalType":"bytes"}],"anonymous":false},{"type":"error","name":"EncodedLengths_InvalidLength","inputs":[{"name":"length","type":"uint256","internalType":"uint256"}]},{"type":"error","name":"Slice_OutOfBounds","inputs":[{"name":"data","type":"bytes","internalType":"bytes"},{"name":"start","type":"uint256","internalType":"uint256"},{"name":"end","type":"uint256","internalType":"uint256"}]},{"type":"error","name":"Store_IndexOutOfBounds","inputs":[{"name":"length","type":"uint256","internalType":"uint256"},{"name":"accessedIndex","type":"uint256","internalType":"uint256"}]},{"type":"error","name":"Store_InvalidResourceType","inputs":[{"name":"expected","type":"bytes2","internalType":"bytes2"},{"name":"resourceId","type":"bytes32","internalType":"ResourceId"},{"name":"resourceIdString","type":"string","internalType":"string"}]},{"type":"error","name":"Store_InvalidSplice","inputs":[{"name":"startWithinField","type":"uint40","internalType":"uint40"},{"name":"deleteCount","type":"uint40","internalType":"uint40"},{"name":"fieldLength","type":"uint40","internalType":"uint40"}]},{"type":"error","name":"World_AccessDenied","inputs":[{"name":"resource","type":"string","internalType":"string"},{"name":"caller","type":"address","internalType":"address"}]},{"type":"error","name":"World_FunctionSelectorNotFound","inputs":[{"name":"functionSelector","type":"bytes4","internalType":"bytes4"}]},{"type":"error","name":"World_ResourceNotFound","inputs":[{"name":"resourceId","type":"bytes32","internalType":"ResourceId"},{"name":"resourceIdString","type":"string","internalType":"string"}]}],"bytecode":{"object":"0x608060405234801561000f575f80fd5b50615cf6806200001e5f395ff3fe60806040526004361061006e575f3560e01c80632c86e0e21161004c5780632c86e0e2146100e757806345ec935414610114578063e1af802c1461012b578063e903546c1461013f575f80fd5b806301ffc9a714610072578063119df25f146100a65780631b3561d3146100d2575b5f80fd5b34801561007d575f80fd5b5061009161008c366004614ed1565b61015e565b60405190151581526020015b60405180910390f35b3480156100b1575f80fd5b506100ba6101f6565b6040516001600160a01b03909116815260200161009d565b6100e56100e0366004614fa1565b610204565b005b3480156100f2575f80fd5b506101066101013660046150e7565b6109a4565b60405190815260200161009d565b34801561011f575f80fd5b5036601f190135610106565b348015610136575f80fd5b506100ba611452565b34801561014a575f80fd5b506100e5610159366004615165565b61145b565b5f7fffffffff0000000000000000000000000000000000000000000000000000000082167fb5dee1270000000000000000000000000000000000000000000000000000000014806101f057507fffffffff0000000000000000000000000000000000000000000000000000000082167f01ffc9a700000000000000000000000000000000000000000000000000000000145b92915050565b5f6101ff611550565b905090565b5f61020e84611582565b90505f610219611452565b6001600160a01b0316634f10aabc856040518263ffffffff1660e01b815260040161024691815260200190565b602060405180830381865afa158015610261573d5f803e3d5ffd5b505050506040513d601f19601f82011682018060405250810190610285919061519b565b90505f8251600281111561029b5761029b6151c1565b14806102b957506001825160028111156102b7576102b76151c1565b145b61030a5760405162461bcd60e51b815260206004820152601560248201527f4e6f74206120636f6d62617420656e6f756e746572000000000000000000000060448201526064015b60405180910390fd5b60208201511580159061031f57506040820151155b6103915760405162461bcd60e51b815260206004820152602360248201527f454e434f554e5445522053595354454d3a20494e56414c494420454e434f554e60448201527f54455200000000000000000000000000000000000000000000000000000000006064820152608401610301565b8160c0015182608001511061040e5760405162461bcd60e51b815260206004820152602360248201527f454e434f554e5445522053595354454d3a204558504952454420454e434f554e60448201527f54455200000000000000000000000000000000000000000000000000000000006064820152608401610301565b6104166101f6565b6001600160a01b0316816001600160a01b03161480156104c25750610439611452565b6040517fe9958ea400000000000000000000000000000000000000000000000000000000815260048101869052602481018790526001600160a01b03919091169063e9958ea490604401602060405180830381865afa15801561049e573d5f803e3d5ffd5b505050506040513d601f19601f820116820180604052508101906104c291906151d5565b61050e5760405162461bcd60e51b815260206004820152601f60248201527f454e434f554e5445522053595354454d3a204e4f4e2d434f4d424154414e54006044820152606401610301565b5f82516002811115610522576105226151c1565b0361099357600282608001516105389190615204565b5f036107a057428260a00151601e6105509190615237565b116106db5761055d611452565b6040517fe9958ea400000000000000000000000000000000000000000000000000000000815260048101869052602481018790526001600160a01b03919091169063e9958ea490604401602060405180830381865afa1580156105c2573d5f803e3d5ffd5b505050506040513d601f19601f820116820180604052508101906105e691906151d5565b6106325760405162461bcd60e51b815260206004820181905260248201527f454e434f554e5445522053595354454d3a20494e56414c49442043414c4c45526044820152606401610301565b61063a611452565b6001600160a01b03166318853912828461012001516040518363ffffffff1660e01b815260040161066c929190615284565b602060405180830381865afa158015610687573d5f803e3d5ffd5b505050506040513d601f19601f820116820180604052508101906106ab91906151d5565b156106d6576001826080018181516106c39190615237565b90525060808201516106d690869061167c565b610993565b6106e3611452565b6001600160a01b03166318853912828461010001516040518363ffffffff1660e01b8152600401610715929190615284565b602060405180830381865afa158015610730573d5f803e3d5ffd5b505050506040513d601f19601f8201168201806040525081019061075491906151d5565b6106d65760405162461bcd60e51b815260206004820152601960248201527f43616e6e6f7420656e6420646566656e64657273207475726e000000000000006044820152606401610301565b428260a00151601e6107b29190615237565b116108ce576107bf611452565b6040517fe9958ea400000000000000000000000000000000000000000000000000000000815260048101869052602481018790526001600160a01b03919091169063e9958ea490604401602060405180830381865afa158015610824573d5f803e3d5ffd5b505050506040513d601f19601f8201168201806040525081019061084891906151d5565b6108945760405162461bcd60e51b815260206004820181905260248201527f454e434f554e5445522053595354454d3a20494e56414c49442043414c4c45526044820152606401610301565b61089c611452565b6001600160a01b03166318853912828461010001516040518363ffffffff1660e01b815260040161066c929190615284565b6108d6611452565b6001600160a01b03166318853912828461012001516040518363ffffffff1660e01b8152600401610908929190615284565b602060405180830381865afa158015610923573d5f803e3d5ffd5b505050506040513d601f19601f8201168201806040525081019061094791906151d5565b6109935760405162461bcd60e51b815260206004820152601960248201527f43616e6e6f7420656e642061747461636b657273207475726e000000000000006044820152606401610301565b61099d8584611732565b5050505050565b5f6109ad611452565b6001600160a01b031663188539126109c36101f6565b856040518363ffffffff1660e01b81526004016109e1929190615284565b602060405180830381865afa1580156109fc573d5f803e3d5ffd5b505050506040513d601f19601f82011682018060405250810190610a2091906151d5565b80610aa15750610a2e611452565b6001600160a01b03166318853912610a446101f6565b846040518363ffffffff1660e01b8152600401610a62929190615284565b602060405180830381865afa158015610a7d573d5f803e3d5ffd5b505050506040513d601f19601f82011682018060405250810190610aa191906151d5565b610aed5760405162461bcd60e51b815260206004820181905260248201527f454e434f554e5445522053595354454d3a20494e56414c49442053454e4445526044820152606401610301565b5f80610b11855f81518110610b0457610b046152a5565b60200260200101516117ed565b90925090506001866002811115610b2a57610b2a6151c1565b03610caf575f80610b3b878761189b565b915091505f80610b49611452565b6001600160a01b031663c6d5525b858589896040518563ffffffff1660e01b8152600401610b7a94939291906152b9565b6040805180830381865afa158015610b94573d5f803e3d5ffd5b505050506040513d601f19601f82011682018060405250810190610bb891906152fd565b9150915081610c095760405162461bcd60e51b815260206004820152601d60248201527f454e434f554e5445522053595354454d3a20494e56414c4944205056450000006044820152606401610301565b6040514290610c22908c90879087908590602001615351565b6040516020818303038152906040528051906020012097505f6040518061014001604052808d6002811115610c5957610c596151c1565b81526020018381526020015f81526020015f1515815260200160018152602001428152602001600f81526020018415158152602001868152602001878152509050610ca4898261194d565b5050505050506112c3565b5f866002811115610cc257610cc26151c1565b03610e40575f80610cd3878761189b565b91509150610cdf611452565b6001600160a01b0316632933423f838387876040518563ffffffff1660e01b8152600401610d1094939291906152b9565b602060405180830381865afa158015610d2b573d5f803e3d5ffd5b505050506040513d601f19601f82011682018060405250810190610d4f91906151d5565b610d9b5760405162461bcd60e51b815260206004820152601d60248201527f454e434f554e5445522053595354454d3a20494e56414c4944205056500000006044820152606401610301565b6040514290610db4908a90859085908590602001615351565b6040516020818303038152906040528051906020012095505f6040518061014001604052808b6002811115610deb57610deb6151c1565b8152602081018490525f6040820181905260608201819052600160808301524260a0830152600f60c083015260e08201526101008101859052610120018590529050610e37878261194d565b505050506112c3565b6002866002811115610e5457610e546151c1565b0361127b575f80610e63611452565b6001600160a01b0316638b4ce3e5885f81518110610e8357610e836152a5565b60200260200101516040518263ffffffff1660e01b8152600401610ea991815260200190565b6040805180830381865afa158015610ec3573d5f803e3d5ffd5b505050506040513d601f19601f82011682018060405250810190610ee791906153a7565b91509150610ef3611452565b6001600160a01b031663f48a3972875f81518110610f1357610f136152a5565b602002602001015184846040518463ffffffff1660e01b8152600401610f509392919092835261ffff918216602084015216604082015260600190565b602060405180830381865afa158015610f6b573d5f803e3d5ffd5b505050506040513d601f19601f82011682018060405250810190610f8f91906151d5565b610fdb5760405162461bcd60e51b815260206004820152601660248201527f496e76616c696420576f726c64204c6f636174696f6e000000000000000000006044820152606401610301565b6040514290610ff2908990899084906020016153d8565b6040516020818303038152906040528051906020012095505f80611014611452565b6001600160a01b03166392722b808b5f81518110611034576110346152a5565b60200260200101516040518263ffffffff1660e01b815260040161105a91815260200190565b602060405180830381865afa158015611075573d5f803e3d5ffd5b505050506040513d601f19601f8201168201806040525081019061109991906151d5565b156110db57895f815181106110b0576110b06152a5565b60200260200101519150885f815181106110cc576110cc6152a5565b602002602001015190506111e3565b6110e3611452565b6001600160a01b03166392722b808a5f81518110611103576111036152a5565b60200260200101516040518263ffffffff1660e01b815260040161112991815260200190565b602060405180830381865afa158015611144573d5f803e3d5ffd5b505050506040513d601f19601f8201168201806040525081019061116891906151d5565b1561119b57885f8151811061117f5761117f6152a5565b60200260200101519150895f815181106110cc576110cc6152a5565b60405162461bcd60e51b815260206004820152601660248201527f696e76616c69642073686f7020656e636f756e746572000000000000000000006044820152606401610301565b5f6111ed82611a23565b1461123a5760405162461bcd60e51b815260206004820152601c60248201527f63616e6e6f742073746172742061206e657720656e636f756e746572000000006044820152606401610301565b60408051608081018252828152602081018490529081018490525f60608201526112648982611ab9565b61126e828a611b7d565b505050505050505061144b565b60405162461bcd60e51b815260206004820152601b60248201527f756e7265636f676e697a656420656e636f756e746572207479706500000000006044820152606401610301565b604080516080810182525f80825260208201819052918101829052606080820152905b86518110156113a257611311878281518110611304576113046152a5565b6020026020010151611c2d565b805190925015801561132557508160200151155b6113715760405162461bcd60e51b815260206004820181905260248201527f454e434f554e5445522053595354454d3a20494e56414c494420454e544954596044820152606401610301565b848252865161139a9088908390811061138c5761138c6152a5565b602002602001015183611cee565b6001016112e6565b505f5b8551811015611446576113c3868281518110611304576113046152a5565b80519092501580156113d757508160200151155b6114235760405162461bcd60e51b815260206004820181905260248201527f454e434f554e5445522053595354454d3a20494e56414c494420454e544954596044820152606401610301565b848252855161143e9087908390811061138c5761138c6152a5565b6001016113a5565b505050505b9392505050565b5f6101ff611d95565b61146c306114676101f6565b611d9e565b5f611475611452565b6001600160a01b031663511600c3856040518263ffffffff1660e01b81526004016114a291815260200190565b602060405180830381865afa1580156114bd573d5f803e3d5ffd5b505050506040513d601f19601f820116820180604052508101906114e1919061540d565b90505f8160028111156114f6576114f66151c1565b148061151357506001816002811115611511576115116151c1565b145b1561152857611523848484611db4565b61154a565b600281600281111561153c5761153c6151c1565b0361154a5761154a84612215565b50505050565b7fffffffffffffffffffffffffffffffffffffffffffffffffffffffffffffffcc36013560601c8061157f5750335b90565b6115d5604080516101408101909152805f81526020015f81526020015f81526020015f151581526020015f81526020015f81526020015f81526020015f1515815260200160608152602001606081525090565b6040805160018082528183019092525f916020808301908036833701905050905082815f81518110611609576116096152a5565b60209081029190910101525f80806116617f74625544000000000000000000000000436f6d626174456e636f756e74657200857ea30802012020012020200100000000000000000000000000000000000000006122c5565b92509250925061167283838361238f565b9695505050505050565b6040805160018082528183019092525f916020808301908036833701905050905082815f815181106116b0576116b06152a5565b60200260200101818152505061172d7f74625544000000000000000000000000436f6d626174456e636f756e746572005f1b826004856040516020016116f891815260200190565b60408051601f198184030181529190527ea308020120200120202001000000000000000000000000000000000000000061246a565b505050565b611758815f81518110611747576117476152a5565b60200260200101515f01514261250d565b61172d8260028484604051602001611771929190615428565b60408051601f19818403018152908290526117909392916024016154d9565b60408051601f198184030181529190526020810180517bffffffffffffffffffffffffffffffffffffffffffffffffffffffff167fb2aa60a4000000000000000000000000000000000000000000000000000000001790526125a5565b6040805160018082528183019092525f91829182916020808301908036833701905050905083815f81518110611825576118256152a5565b60209081029190910101525f808061187d7f74625544000000000000000000000000506f736974696f6e0000000000000000857e040200020200000000000000000000000000000000000000000000000000006122c5565b92509250925061188e838383612650565b9550955050505050915091565b6060805f805f5b86518110156118e1576118cd8782815181106118c0576118c06152a5565b6020026020010151612672565b6118d79084615500565b92506001016118a2565b505f5b8551811015611916576119028682815181106118c0576118c06152a5565b61190c9083615500565b91506001016118e4565b508082131561192a57859350849250611944565b8181131561193d57849350859250611944565b8593508492505b50509250929050565b5f61197d825f015183602001518460400151856060015186608001518760a001518860c001518960e00151612701565b90505f61199483610100015184610120015161273f565b90505f6119ab846101000151856101200151612762565b6040805160018082528183019092529192505f91906020808301908036833701905050905085815f815181106119e3576119e36152a5565b6020908102919091010152611a1b7f74625544000000000000000000000000436f6d626174456e636f756e746572008286868661279e565b505050505050565b6040805160018082528183019092525f918291906020808301908036833701905050905082815f81518110611a5a57611a5a6152a5565b60209081029190910101525f611ab17f74625544000000000000000000000000456e636f756e746572456e746974790083837e41030120012000000000000000000000000000000000000000000000000000612813565b949350505050565b5f611b08825f01518360200151846040015185606001516040805160208101959095528481019390935260608401919091526080808401919091528151808403909101815260a0909201905290565b6040805160018082528183019092529192505f916060918391906020808301908036833701905050905085815f81518110611b4557611b456152a5565b6020908102919091010152611a1b7f74625544000000000000000000000000576f726c64456e636f756e74657200008286868661279e565b6040805160018082528183019092525f916020808301908036833701905050905082815f81518110611bb157611bb16152a5565b60200260200101818152505061172d7f74625544000000000000000000000000456e636f756e746572456e74697479005f1b825f85604051602001611bf891815260200190565b60408051601f198184030181529190527e4103012001200000000000000000000000000000000000000000000000000061246a565b604080516080810182525f8082526020820181905281830181905260608083015282516001808252818501909452919290919081602001602082028036833701905050905082815f81518110611c8557611c856152a5565b60209081029190910101525f8080611cdd7f74625544000000000000000000000000456e636f756e746572456e7469747900857e410301200120000000000000000000000000000000000000000000000000006122c5565b9250925092506116728383836128cd565b5f611d05825f01518360200151846040015161291c565b90505f611d15836060015161295f565b90505f611d258460600151612971565b6040805160018082528183019092529192505f91906020808301908036833701905050905085815f81518110611d5d57611d5d6152a5565b6020908102919091010152611a1b7f74625544000000000000000000000000456e636f756e746572456e74697479008286868661279e565b5f6101ff6129a2565b611db0611daa836129e0565b82612a61565b5050565b5f611dbe84611582565b9050611dc984612aad565b15611e165760405162461bcd60e51b815260206004820152601660248201527f656e636f756e74657220616c7265616479206f766572000000000000000000006044820152606401610301565b46617a6903611e3457611e298443612b3c565b436040820152611e45565b611e3e8442612b3c565b4260408201525b5f806060611e816040518060c001604052805f81526020015f151581526020015f151581526020015f81526020015f8152602001606081525090565b600185516002811115611e9657611e966151c1565b03611f3c57611ea3611452565b6040517f49572ff1000000000000000000000000000000000000000000000000000000008152600481018a9052602481018990526001600160a01b0391909116906349572ff1906044015b5f604051808303815f875af1158015611f09573d5f803e3d5ffd5b505050506040513d5f823e601f3d908101601f19168201604052611f309190810190615527565b91955093509150611ff4565b5f85516002811115611f5057611f506151c1565b03611fac57611f5d611452565b6040517f25e62d82000000000000000000000000000000000000000000000000000000008152600481018a9052602481018990526001600160a01b0391909116906325e62d8290604401611eee565b60405162461bcd60e51b815260206004820152601c60248201527f756e7265636f676e697a656420656e6f636f756e7465722074797065000000006044820152606401610301565b506040805160c08101825242815286151560208201525f918101829052606081018590526080810184905260a08101839052908080604051908082528060200260200182016040528015612052578160200160208202803683370190505b5090505f5b8761012001515181101561212957876101200151818151811061207c5761207c6152a5565b60200260200101519250612092835f801b611b7d565b61209c8383612bb8565b6120a583612c2b565b15612121576120b2611452565b6001600160a01b031663f547ccbd846040518263ffffffff1660e01b81526004016120df91815260200190565b5f604051808303815f87803b1580156120f6575f80fd5b505af1158015612108573d5f803e3d5ffd5b50505050612117836001612cc6565b6121218383612d47565b600101612057565b505f5b876101000151518110156121fe578761010001518181518110612151576121516152a5565b60200260200101519250612167835f801b611b7d565b6121718383612bb8565b61217a83612c2b565b156121f657612187611452565b6001600160a01b031663f547ccbd846040518263ffffffff1660e01b81526004016121b491815260200190565b5f604051808303815f87803b1580156121cb575f80fd5b505af11580156121dd573d5f803e3d5ffd5b505050506121ec836001612cc6565b6121f68383612d47565b60010161212c565b506122098a84612db5565b50505050505050505050565b5f61221f82612ea6565b905080606001515f1480156122375750604081015115155b6122a95760405162461bcd60e51b815260206004820152602360248201527f456e636f756e7465722053797374656d3a20496e76616c696420456e636f756e60448201527f74657200000000000000000000000000000000000000000000000000000000006064820152608401610301565b42606082015280516122bb905f611b7d565b611db08282611ab9565b60605f60605f6122d36129a2565b9050306001600160a01b038216036122fc576122f0878787612f68565b93509350935050612386565b6040517f419b58fd0000000000000000000000000000000000000000000000000000000081526001600160a01b0382169063419b58fd90612345908a908a908a906004016155c7565b5f60405180830381865afa15801561235f573d5f803e3d5ffd5b505050506040513d5f823e601f3d908101601f191682016040526122f09190810190615650565b93509350939050565b6123e2604080516101408101909152805f81526020015f81526020015f81526020015f151581526020015f81526020015f81526020015f81526020015f1515815260200160608152602001606081525090565b6123eb84613069565b80151560e08a015260c0890182905260a089018390526080890184905284151560608a0152604089018690526020890187905288886002811115612431576124316151c1565b6002811115612442576124426151c1565b815250505050505050505061245783836130e8565b6101208301526101008201529392505050565b5f6124736129a2565b9050306001600160a01b03821603612497576124928686868686613136565b611a1b565b6040517f390baae00000000000000000000000000000000000000000000000000000000081526001600160a01b0382169063390baae0906124e490899089908990899089906004016156ae565b5f604051808303815f87803b1580156124fb575f80fd5b505af1158015612209573d5f803e3d5ffd5b6040805160018082528183019092525f916020808301908036833701905050905082815f81518110612541576125416152a5565b60200260200101818152505061172d7f7462554400000000000000000000000053657373696f6e54696d6572000000005f1b825f8560405160200161258891815260200190565b60408051601f19818403018152919052630100080160dd1b61246a565b60605f806125ba6125b5856156f4565b61314b565b91509150815f801b0361261e576040517ffdde54e20000000000000000000000000000000000000000000000000000000081527fffffffff000000000000000000000000000000000000000000000000000000005f35166004820152602401610301565b6020840180517bffffffffffffffffffffffffffffffffffffffffffffffffffffffff1682179052611ab1828561320b565b602083015160228401515f91829160f091821c911c5b90969095509350505050565b6040805160018082528183019092525f918291906020808301908036833701905050905082815f815181106126a9576126a96152a5565b60209081029190910101525f611ab17f74625544000000000000000000000000537461747300000000000000000000008360017ee1080020200120202020200000000000000000000000000000000000000000612813565b60608888888888888888604051602001612722989796959493929190615743565b604051602081830303815290604052905098975050505050505050565b5f61144b83516020028351602002606081901b603883901b838301171792915050565b606061276d836132de565b612776836132de565b60405160200161278792919061578f565b604051602081830303815290604052905092915050565b5f6127a76129a2565b9050306001600160a01b038216036127c65761249286868686866132ed565b6040517f298314fb0000000000000000000000000000000000000000000000000000000081526001600160a01b0382169063298314fb906124e490899089908990899089906004016157bd565b5f8061281d6129a2565b9050306001600160a01b038216036128435761283b86868686613303565b915050611ab1565b6040517f8c364d590000000000000000000000000000000000000000000000000000000081526001600160a01b03821690638c364d599061288e90899089908990899060040161580d565b602060405180830381865afa1580156128a9573d5f803e3d5ffd5b505050506040513d601f19601f8201168201806040525081019061283b919061583b565b604080516080810182525f80825260208201819052918101919091526060808201526128f884613338565b60408401521515602083015281526129108383613367565b60608201529392505050565b60608383836040516020016129479392919092835290151560f81b6020830152602182015260410190565b60405160208183030381529060405290509392505050565b5f6101f08251602002603881901b1790565b606061297c826132de565b60405160200161298c9190615852565b6040516020818303038152906040529050919050565b7f629a4c26e296b22a8e0856e9f6ecb2d1008d7e00081111962cd175fa7488e175545f906001600160a01b0316806129db573391505090565b919050565b6040805160018082528183019092525f9182919060208083019080368337019050509050826001600160a01b03165f1b815f81518110612a2257612a226152a5565b60209081029190910101525f611ab17f7462776f726c6400000000000000000053797374656d526567697374727900008383630100080160dd1b612813565b612a6b8282613384565b611db057612a78826133e1565b816040517fd787b73700000000000000000000000000000000000000000000000000000000815260040161030192919061586d565b6040805160018082528183019092525f918291906020808301908036833701905050905082815f81518110612ae457612ae46152a5565b60209081029190910101525f611ab17f74625544000000000000000000000000436f6d626174456e636f756e746572008360027ea3080201202001202020010000000000000000000000000000000000000000612813565b6040805160018082528183019092525f916020808301908036833701905050905082815f81518110612b7057612b706152a5565b60200260200101818152505061172d7f74625544000000000000000000000000436f6d626174456e636f756e746572005f1b826002856040516020016116f891815260200190565b6040805160018082528183019092525f916020808301908036833701905050905082815f81518110612bec57612bec6152a5565b602090810291909101015261172d7f74625544000000000000000000000000456e636f756e746572456e7469747900825f612c26866132de565b61351d565b6040805160018082528183019092525f918291906020808301908036833701905050905082815f81518110612c6257612c626152a5565b60209081029190910101525f612cba7f74625544000000000000000000000000456e636f756e746572456e74697479008360017e41030120012000000000000000000000000000000000000000000000000000612813565b9050611ab18160f81c90565b6040805160018082528183019092525f916020808301908036833701905050905082815f81518110612cfa57612cfa6152a5565b60200260200101818152505061172d7f74625544000000000000000000000000456e636f756e746572456e74697479005f1b82600185604051602001611bf891151560f81b815260010190565b6040805160018082528183019092525f916020808301908036833701905050905082815f81518110612d7b57612d7b6152a5565b602090810291909101015261172d7f74625544000000000000000000000000576f726c645374617475734566666563825f612c26866132de565b5f612e16825f0151836020015184604001518560600151866080015160408051602081019690965293151560f890811b8686015292151590921b60418501526042840152606280840191909152815180840390910181526082909201905290565b90505f612e268360a0015161295f565b90505f612e368460a00151612971565b6040805160018082528183019092529192505f91906020808301908036833701905050905085815f81518110612e6e57612e6e6152a5565b6020908102919091010152611a1b7f6f745544000000000000000000000000436f6d6261744f7574636f6d650000008286868661279e565b604080516080810182525f808252602082018190528183018190526060820181905282516001808252818501909452919290919081602001602082028036833701905050905082815f81518110612eff57612eff6152a5565b60209081029190910101525f8080612f577f74625544000000000000000000000000576f726c64456e636f756e7465720000857e800400202020200000000000000000000000000000000000000000000000006122c5565b9250925092506116728383836135c8565b60605f60605f612f778561360c565b9050612f8487878361362e565b93505f612f9086613663565b9050801561305e57612fa2888861369f565b935066ffffffffffffff841667ffffffffffffffff811115612fc657612fc6614f10565b6040519080825280601f01601f191660200182016040528015612ff0576020820181803683370190505b509250602083015f5b828160ff16101561305b575f6130108b8b846136b1565b90505f61302c888460ff166028026038011c64ffffffffff1690565b905061303a825f838761372f565b6130448185615237565b93505050808061305390615897565b915050612ff9565b50505b505093509350939050565b5f805f805f805f8061307e895f016020015190565b60f81c6002811115613092576130926151c1565b60218a015160418b015160618c0151929a5090985096506130b4905b60f81c90565b60628a015160828b015160a28c015160c28d0151939850919650945092506130db906130ae565b9050919395975091939597565b6060805f603885901c64ffffffffff1661310b6131068684846137f6565b613882565b935090508064ffffffffff606087901c160161312b6131068684846137f6565b925050509250929050565b61099d85856131458487613891565b856138c9565b6040805160018082528183019092525f918291829160208083019080368337019050509050837bffffffffffffffffffffffffffffffffffffffffffffffffffffffff1916815f815181106131a2576131a26152a5565b60209081029190910101525f80806131fa7f7462776f726c6400000000000000000046756e6374696f6e53656c6563746f72857e240200200400000000000000000000000000000000000000000000000000006122c5565b92509250925061188e838383613b5d565b60605f613216611d95565b90506001600160a01b0381163003613255575f61323c613234611550565b5f8787613b68565b935090508061324e5761324e83613c9f565b50506101f0565b6040517f3ae7af080000000000000000000000000000000000000000000000000000000081526001600160a01b03821690633ae7af089061329c90879087906004016158b5565b5f604051808303815f875af11580156132b7573d5f803e3d5ffd5b505050506040513d5f823e601f3d908101601f19168201604052611ab191908101906158cd565b60608161144b8160205f613ca7565b61099d85858585856132fe8b613d05565b613d88565b5f61332f61331186866140aa565b60ff858116601b0360080285901c1661332a8587613891565b6140ff565b95945050505050565b5f805f613348845f016020015190565b6040850151909350613359906130ae565b604194909401519294915050565b60605f603884901c64ffffffffff1661332f6131068584846137f6565b5f6133d17f6e730000000000000000000000000000000000000000000000000000000000007dffffffffffffffffffffffffffff000000000000000000000000000000008516178361414f565b8061144b575061144b838361414f565b606081601081901b5f6133f383614214565b9050827fffffffffffffffffffffffffffff00000000000000000000000000000000000083161561344e576134497fffffffffffffffffffffffffffff000000000000000000000000000000000000841661422a565b613485565b6040518060400160405280600681526020017f3c726f6f743e00000000000000000000000000000000000000000000000000008152505b7fffffffffffffffffffffffffffffffff000000000000000000000000000000008316156134bb576134b68361422a565b6134f2565b6040518060400160405280600681526020017f3c726f6f743e00000000000000000000000000000000000000000000000000008152505b604051602001613504939291906158ff565b6040516020818303038152906040529350505050919050565b5f6135266129a2565b9050306001600160a01b0382160361354957613544858585856142cd565b61099d565b6040517fef6ea8620000000000000000000000000000000000000000000000000000000081526001600160a01b0382169063ef6ea8629061359490889088908890889060040161598c565b5f604051808303815f87803b1580156135ab575f80fd5b505af11580156135bd573d5f803e3d5ffd5b505050505050505050565b604080516080810182525f8082526020820181905291810182905260608101919091526135f484614305565b60608501526040840152602083015281529392505050565b5f600861361b600260206159ca565b61362591906159dd565b9190911c919050565b6060815f0361364b575060408051602081019091525f815261144b565b5f61365685856140aa565b905061332f815f85614334565b5f6008600180613675600260206159ca565b61367f91906159ca565b61368991906159ca565b61369391906159dd565b8260ff911c1692915050565b5f61144b6136ad8484614357565b5490565b5f83836040516020016136c59291906159f4565b604051602081830303815290604052805190602001208260f81b7effffffffffffffffffffffffffffffffffffffffffffffffffffffffffffff19167f3b4102da22e32d82fc925482184f16c09fd4281692720b87d124aef6da48a0f118185f1c90509392505050565b82156137b3576020831061375957602083048401935060208381613755576137556151f0565b0692505b82156137b35760208390035f8184101561377a57505f19600884021c613783565b505f19600882021c5b8554600886021b8184511682198216178452508184116137a457505061154a565b50600194909401939182900391015b5b602082106137d55783548152600190930192601f19909101906020016137b4565b811561154a575f5f19600884021c8251865482191691161782525050505050565b5f818311806138055750835182115b15613842578383836040517f23230fa300000000000000000000000000000000000000000000000000000000815260040161030193929190615a2e565b602084016138508482615237565b90505f61385d85856159ca565b6fffffffffffffffffffffffffffffffff1660809290921b9190911795945050505050565b60605f61144b8360205f6143ac565b5f80805b8360ff168110156138c1576138b760ff601b83900360080287901c1683615237565b9150600101613895565b509392505050565b7f6f74000000000000000000000000000000000000000000000000000000000000847fffff000000000000000000000000000000000000000000000000000000000000160361395357837f8c0b5119d4cec7b284c6b1b39252a03d1e2f2d7451a5895562524c113bb952be84848460405161394693929190615a52565b60405180910390a261154a565b5f61395e85856140aa565b90505f61396a86614418565b90505f5b8151811015613a38575f82828151811061398a5761398a6152a5565b602002602001015190506139b66004826affffffffffffffffffffff191661449d90919063ffffffff16565b15613a2f576040517f964f667d000000000000000000000000000000000000000000000000000000008152606082901c9063964f667d90613a01908b908b908b908b90600401615a84565b5f604051808303815f87803b158015613a18575f80fd5b505af1158015613a2a573d5f803e3d5ffd5b505050505b5060010161396e565b50857f8c0b5119d4cec7b284c6b1b39252a03d1e2f2d7451a5895562524c113bb952be868686604051613a6d93929190615a52565b60405180910390a2613a88828565ffffffffffff16856144ba565b5f5b8151811015613b54575f828281518110613aa657613aa66152a5565b60200260200101519050613ad26008826affffffffffffffffffffff191661449d90919063ffffffff16565b15613b4b576040517fa8ba8721000000000000000000000000000000000000000000000000000000008152606082901c9063a8ba872190613b1d908b908b908b908b90600401615a84565b5f604051808303815f87803b158015613b34575f80fd5b505af1158015613b46573d5f803e3d5ffd5b505050505b50600101613a8a565b50505050505050565b5f80612666856144d0565b5f60605f80613b76866144e4565b90925090506001600160a01b038216613bc75785613b93876133e1565b6040517ffbf10ce60000000000000000000000000000000000000000000000000000000081526004016103019291906158b5565b80613bd657613bd68689614585565b8615613c41577dffffffffffffffffffffffffffff0000000000000000000000000000000086167f6e73000000000000000000000000000000000000000000000000000000000000175f613c298261458f565b9050613c3e82613c398b84615237565b614605565b50505b5f613c4c8760101b90565b7fffffffffffffffffffffffffffff0000000000000000000000000000000000001614613c8457613c7f8888848861469d565b613c90565b613c9088888488614710565b90999098509650505050505050565b805160208201fd5b82516060905f613cb785836159dd565b9050604051925060208301601f19603f83860101166040528184525f602088015b84821015613cf9578051871b83529187019160019190910190602001613cd8565b50505050509392505050565b5f7f8b9d8c8b908d9affffffffffffffffffab9e9d939a8d000000000000000000008201613d5357507e60030220202000000000000000000000000000000000000000000000000000919050565b6101f0613d807f746273746f72650000000000000000005461626c6573000000000000000000008461476d565b60205f6140ff565b7f6f74000000000000000000000000000000000000000000000000000000000000867fffff0000000000000000000000000000000000000000000000000000000000001603613e1457857f8dbb3a9672eebfd3773e72dd9c102393436816d832c7ba9e1e1ac8fcadcac7a986868686604051613e079493929190615abc565b60405180910390a2611a1b565b5f613e1e87614418565b90505f5b8151811015613ef0575f828281518110613e3e57613e3e6152a5565b60200260200101519050613e6a6001826affffffffffffffffffffff191661449d90919063ffffffff16565b15613ee7576040517f57066c9c000000000000000000000000000000000000000000000000000000008152606082901c906357066c9c90613eb9908c908c908c908c908c908c90600401615afa565b5f604051808303815f87803b158015613ed0575f80fd5b505af1158015613ee2573d5f803e3d5ffd5b505050505b50600101613e22565b50867f8dbb3a9672eebfd3773e72dd9c102393436816d832c7ba9e1e1ac8fcadcac7a987878787604051613f279493929190615abc565b60405180910390a25f613f3a88886140aa565b90505f602087019050613f50825f895184614788565b5f613f5a85613663565b1115613fda575f613f6b8a8a614357565b87815590506020860191505f805f5b613f8388613663565b8160ff161015613fd557613f988d8d836136b1565b9250613fb38a8260ff166028026038011c64ffffffffff1690565b9150613fc1835f8488614788565b613fcb8286615237565b9450600101613f7a565b505050505b5f5b8351811015612209575f848281518110613ff857613ff86152a5565b602002602001015190506140246002826affffffffffffffffffffff191661449d90919063ffffffff16565b156140a1576040517f5b28cdaf000000000000000000000000000000000000000000000000000000008152606082901c90635b28cdaf90614073908e908e908e908e908e908e90600401615afa565b5f604051808303815f87803b15801561408a575f80fd5b505af115801561409c573d5f803e3d5ffd5b505050505b50600101613fdc565b5f82826040516020016140be9291906159f4565b60408051601f1981840301815291905280516020909101207f86425bff6b57326c7859e89024fe4f238ca327a1ae4a230180dd2f0e88aaa7d9189392505050565b5f6020821061412457602082048401935060208281614120576141206151f0565b0691505b508254600882021b6020829003808411156138c1576001850154600882021c82179150509392505050565b6040805160028082526060820183525f928392919060208301908036833701905050905083815f81518110614186576141866152a5565b602002602001018181525050826001600160a01b03165f1b816001815181106141b1576141b16152a5565b60209081029190910101525f6142087f7462776f726c640000000000000000005265736f75726365416363657373000083837e01010001000000000000000000000000000000000000000000000000000000612813565b905061332f8160f81c90565b5f61422160706010615237565b9190911b919050565b60605f5b601081101561428e577fffffffffffffffffffffffffffffffff000000000000000000000000000000008316600882021b7fff00000000000000000000000000000000000000000000000000000000000000161561428e5760010161422e565b604080517fffffffffffffffffffffffffffffffff00000000000000000000000000000000851660208201528151603090910190915281815280611ab1565b5f6142d8858561369f565b90505f6142f4828560ff166028026038011c64ffffffffff1690565b9050611a1b8686865f858888614843565b5f805f80614316855f016020015190565b60408601516060870151608090970151919790969550909350915050565b60405160208101601f19603f84840101166040528282526138c18585858461372f565b5f828260405160200161436b9291906159f4565b60408051601f1981840301815291905280516020909101207f14e2fcc58e58e68ec7edc30c8d50dccc3ce2714a623ec81f46b6a63922d76569189392505050565b60605f6143b98560801c90565b90506fffffffffffffffffffffffffffffffff85165f8582816143de576143de6151f0565b0490506040519350602084016020820281016040528185525f5b82811015613cf9578451871c8252938701936020909101906001016143f8565b6040805160018082528183019092526060915f91906020808301908036833701905050905082815f81518110614450576144506152a5565b60209081029190910101525f6144877f746273746f726500000000000000000053746f7265486f6f6b730000000000008383614c68565b9050611ab1614498825f84516137f6565b614ca1565b5f8160ff16826144ad8560581c90565b1660ff1614905092915050565b61172d838383516144cb8560200190565b614788565b602081015160408201515f905b9050915091565b6040805160018082528183019092525f91829182916020808301908036833701905050905083815f8151811061451c5761451c6152a5565b60209081029190910101525f80806145747f7462776f726c6400000000000000000053797374656d73000000000000000000857e15020014010000000000000000000000000000000000000000000000000000612f68565b92509250925061188e838383614cb0565b612a6b8282614cbb565b6040805160018082528183019092525f918291906020808301908036833701905050905082815f815181106145c6576145c66152a5565b60209081029190910101525f611ab17f7462776f726c6400000000000000000042616c616e63657300000000000000008383630100080160dd1b613303565b6040805160018082528183019092525f916020808301908036833701905050905082815f81518110614639576146396152a5565b60200260200101818152505061172d7f7462776f726c6400000000000000000042616c616e63657300000000000000005f1b825f8560405160200161468091815260200190565b60408051601f19818403018152919052630100080160dd1b613136565b5f6060836001600160a01b03165f6146b6858989614d18565b6040516146c39190615852565b5f6040518083038185875af1925050503d805f81146146fd576040519150601f19603f3d011682016040523d82523d5f602084013e614702565b606091505b509097909650945050505050565b5f6060836001600160a01b0316614728848888614d18565b6040516147359190615852565b5f60405180830381855af49150503d805f81146146fd576040519150601f19603f3d011682016040523d82523d5f602084013e614702565b60408051602081018490529081018290525f906060016140be565b821561480057602083106147b2576020830484019350602083816147ae576147ae6151f0565b0692505b82156148005760208390035f5f19600885021c1990506008850281811c91508351811c90508119875416828216178755508184116147f157505061154a565b50600194909401939182900391015b5b602082106148225780518455600190930192601f1990910190602001614801565b811561154a575f5f19600884021c8554835182191691161785555050505050565b7f7462000000000000000000000000000000000000000000000000000000000000877fffff0000000000000000000000000000000000000000000000000000000000001614614903577f746200000000000000000000000000000000000000000000000000000000000087886040516020016148c191815260200190565b60408051601f19818403018152908290527f31b46683000000000000000000000000000000000000000000000000000000008252610301939291600401615b52565b5f61491d828760ff166028026038011c64ffffffffff1690565b90505f83518564ffffffffff168361493591906159ca565b61493f9190615237565b90508082141580156149615750816149578688615b92565b64ffffffffff1614155b156149b1576040517fa65010b400000000000000000000000000000000000000000000000000000000815264ffffffffff8088166004830152808716602483015283166044820152606401610301565b818664ffffffffff161115614a02576040517f7e8578d30000000000000000000000000000000000000000000000000000000081526004810183905264ffffffffff87166024820152604401610301565b5f614a0e848984614d2f565b90505f614a1a8b614418565b90505f5b8151811015614ade575f828281518110614a3a57614a3a6152a5565b60200260200101519050614a666010826affffffffffffffffffffff191661449d90919063ffffffff16565b15614ad557606081901c6001600160a01b03166355eb5a288e8e8e8e8e8d8f6040518863ffffffff1660e01b8152600401614aa79796959493929190615bb7565b5f604051808303815f87803b158015614abe575f80fd5b505af1158015614ad0573d5f803e3d5ffd5b505050505b50600101614a1e565b5064ffffffffff88165f5b8a60ff168160ff161015614b1c57614b10878260ff166028026038011c64ffffffffff1690565b90910190600101614ae9565b508b7ffe158a7adba34e256807c8a149028d3162918713c3838afc643ce9f96716ebfd8c8c848c888d604051614b5796959493929190615c14565b60405180910390a250828414614b77575f614b728c8c614357565b839055505b5f614b838c8c8c6136b1565b9050614b97818a64ffffffffff16896144ba565b505f5b8151811015614c5a575f828281518110614bb657614bb66152a5565b60200260200101519050614be26020826affffffffffffffffffffff191661449d90919063ffffffff16565b15614c5157606081901c6001600160a01b031663635845338e8e8e8e8e8a8f6040518863ffffffff1660e01b8152600401614c239796959493929190615bb7565b5f604051808303815f87803b158015614c3a575f80fd5b505af1158015614c4c573d5f803e3d5ffd5b505050505b50600101614b9a565b505050505050505050505050565b6060611ab1614c788585856136b1565b5f614c9c85614c87898961369f565b9060ff166028026038011c64ffffffffff1690565b614334565b60605f61144b8360155f6143ac565b5f8061266685614dfc565b5f614d087f6e730000000000000000000000000000000000000000000000000000000000007dffffffffffffffffffffffffffff0000000000000000000000000000000085161783614e18565b8061144b575061144b8383614e18565b606083838360405160200161294793929190615c6f565b5f64ffffffffff821115614d72576040517f7149a3c100000000000000000000000000000000000000000000000000000000815260048101839052602401610301565b8366ffffffffffffff811660ff851660280260380182901c64ffffffffff16808510614da45780850382019150614dac565b848103820391505b5064ffffffffff6038602860ff8816020181811b197fffffffffffffffffffffffffffffffffffffffffffffffffff000000000000009490941690921792909216918416901b1790509392505050565b6020810151603482015160609190911c905f906144dd906130ae565b6040805160028082526060820183525f928392919060208301908036833701905050905083815f81518110614e4f57614e4f6152a5565b602002602001018181525050826001600160a01b03165f1b81600181518110614e7a57614e7a6152a5565b60209081029190910101525f6142087f7462776f726c640000000000000000005265736f75726365416363657373000083837e01010001000000000000000000000000000000000000000000000000000000613303565b5f60208284031215614ee1575f80fd5b81357fffffffff000000000000000000000000000000000000000000000000000000008116811461144b575f80fd5b634e487b7160e01b5f52604160045260245ffd5b6040516060810167ffffffffffffffff81118282101715614f4757614f47614f10565b60405290565b604051601f8201601f1916810167ffffffffffffffff81118282101715614f7657614f76614f10565b604052919050565b5f67ffffffffffffffff821115614f9757614f97614f10565b5060051b60200190565b5f805f6060808587031215614fb4575f80fd5b84359350602080860135935060408087013567ffffffffffffffff811115614fda575f80fd5b8701601f81018913614fea575f80fd5b8035614ffd614ff882614f7e565b614f4d565b81815260609091028201840190848101908b83111561501a575f80fd5b928501925b828410156150605786848d031215615035575f80fd5b61503d614f24565b84358152868501358782015285850135868201528252928601929085019061501f565b809750505050505050509250925092565b6003811061507d575f80fd5b50565b5f82601f83011261508f575f80fd5b8135602061509f614ff883614f7e565b8083825260208201915060208460051b8701019350868411156150c0575f80fd5b602086015b848110156150dc57803583529183019183016150c5565b509695505050505050565b5f805f606084860312156150f9575f80fd5b833561510481615071565b9250602084013567ffffffffffffffff80821115615120575f80fd5b61512c87838801615080565b93506040860135915080821115615141575f80fd5b5061514e86828701615080565b9150509250925092565b801515811461507d575f80fd5b5f805f60608486031215615177575f80fd5b8335925060208401359150604084013561519081615158565b809150509250925092565b5f602082840312156151ab575f80fd5b81516001600160a01b038116811461144b575f80fd5b634e487b7160e01b5f52602160045260245ffd5b5f602082840312156151e5575f80fd5b815161144b81615158565b634e487b7160e01b5f52601260045260245ffd5b5f8261521e57634e487b7160e01b5f52601260045260245ffd5b500690565b634e487b7160e01b5f52601160045260245ffd5b808201808211156101f0576101f0615223565b5f815180845260208085019450602084015f5b838110156152795781518752958201959082019060010161525d565b509495945050505050565b6001600160a01b0383168152604060208201525f611ab1604083018461524a565b634e487b7160e01b5f52603260045260245ffd5b608081525f6152cb608083018761524a565b82810360208401526152dd818761524a565b91505061ffff808516604084015280841660608401525095945050505050565b5f806040838503121561530e575f80fd5b825161531981615158565b602084015190925061532a81615158565b809150509250929050565b6003811061507d57634e487b7160e01b5f52602160045260245ffd5b61535a85615335565b848152608060208201525f615372608083018661524a565b8281036040840152615384818661524a565b91505082606083015295945050505050565b805161ffff811681146129db575f80fd5b5f80604083850312156153b8575f80fd5b6153c183615396565b91506153cf60208401615396565b90509250929050565b606081525f6153ea606083018661524a565b82810360208401526153fc818661524a565b915050826040830152949350505050565b5f6020828403121561541d575f80fd5b815161144b81615071565b5f604080830185845260206040602086015281865180845260609350606087019150602088015f5b8281101561547d578151805185528581015186860152870151878501529285019290840190600101615450565b50919998505050505050505050565b5f5b838110156154a657818101518382015260200161548e565b50505f910152565b5f81518084526154c581602086016020860161548c565b601f01601f19169290920160200192915050565b8381526154e583615335565b826020820152606060408201525f61332f60608301846154ae565b8082018281125f83128015821682158216171561551f5761551f615223565b505092915050565b5f805f60608486031215615539575f80fd5b835192506020808501519250604085015167ffffffffffffffff81111561555e575f80fd5b8501601f8101871361556e575f80fd5b805161557c614ff882614f7e565b81815260059190911b8201830190838101908983111561559a575f80fd5b928401925b828410156155b85783518252928401929084019061559f565b80955050505050509250925092565b838152606060208201525f6155df606083018561524a565b9050826040830152949350505050565b5f82601f8301126155fe575f80fd5b815167ffffffffffffffff81111561561857615618614f10565b61562b6020601f19601f84011601614f4d565b81815284602083860101111561563f575f80fd5b611ab182602083016020870161548c565b5f805f60608486031215615662575f80fd5b835167ffffffffffffffff80821115615679575f80fd5b615685878388016155ef565b94506020860151935060408601519150808211156156a1575f80fd5b5061514e868287016155ef565b85815260a060208201525f6156c660a083018761524a565b60ff8616604084015282810360608401526156e181866154ae565b9150508260808301529695505050505050565b5f815160208301517fffffffff000000000000000000000000000000000000000000000000000000008082169350600483101561573b5780818460040360031b1b83161693505b505050919050565b61574c89615335565b60f898891b815260018101979097526021870195909552921515861b6041860152604285019190915260628401526082830152151590911b60a282015260a30190565b5f83516157a081846020880161548c565b8351908301906157b481836020880161548c565b01949350505050565b85815260a060208201525f6157d560a083018761524a565b82810360408401526157e781876154ae565b9050846060840152828103608084015261580181856154ae565b98975050505050505050565b848152608060208201525f615825608083018661524a565b60ff949094166040830152506060015292915050565b5f6020828403121561584b575f80fd5b5051919050565b5f825161586381846020870161548c565b9190910192915050565b604081525f61587f60408301856154ae565b90506001600160a01b03831660208301529392505050565b5f60ff821660ff81036158ac576158ac615223565b60010192915050565b828152604060208201525f611ab160408301846154ae565b5f602082840312156158dd575f80fd5b815167ffffffffffffffff8111156158f3575f80fd5b611ab1848285016155ef565b7fffff000000000000000000000000000000000000000000000000000000000000841681525f7f3a00000000000000000000000000000000000000000000000000000000000000806002840152845161595f81600386016020890161548c565b80840190508160038201528451915061597f82600483016020880161548c565b0160040195945050505050565b848152608060208201525f6159a4608083018661524a565b60ff8516604084015282810360608401526159bf81856154ae565b979650505050505050565b818103818111156101f0576101f0615223565b80820281158282048414176101f0576101f0615223565b8281525f60208083018451602086015f5b82811015615a2157815184529284019290840190600101615a05565b5091979650505050505050565b606081525f615a4060608301866154ae565b60208301949094525060400152919050565b606081525f615a64606083018661524a565b65ffffffffffff85166020840152828103604084015261167281856154ae565b848152608060208201525f615a9c608083018661524a565b65ffffffffffff8516604084015282810360608401526159bf81856154ae565b608081525f615ace608083018761524a565b8281036020840152615ae081876154ae565b905084604084015282810360608401526159bf81856154ae565b86815260c060208201525f615b1260c083018861524a565b8281036040840152615b2481886154ae565b90508560608401528281036080840152615b3e81866154ae565b9150508260a0830152979650505050505050565b7fffff00000000000000000000000000000000000000000000000000000000000084168152826020820152606060408201525f61332f60608301846154ae565b64ffffffffff818116838216019080821115615bb057615bb0615223565b5092915050565b87815260e060208201525f615bcf60e083018961524a565b60ff8816604084015264ffffffffff87811660608501528616608084015260a0830185905282810360c0840152615c0681856154ae565b9a9950505050505050505050565b60c081525f615c2660c083018961524a565b60ff8816602084015265ffffffffffff8716604084015264ffffffffff8616606084015284608084015282810360a0840152615c6281856154ae565b9998505050505050505050565b5f8451615c8081846020890161548c565b60609490941b7fffffffffffffffffffffffffffffffffffffffff000000000000000000000000169190930190815260148101919091526034019291505056fea2646970667358221220fca09aa29afe91d6d7ac232143273782b55a4d3e0a65a9b7f190f1b4e50bf01064736f6c63430008180033","linkReferences":{}},"methodIdentifiers":{"_msgSender()":"119df25f","_msgValue()":"45ec9354","_world()":"e1af802c","createEncounter(uint8,bytes32[],bytes32[])":"2c86e0e2","endEncounter(bytes32,uint256,bool)":"e903546c","endTurn(bytes32,bytes32,(bytes32,bytes32,uint256)[])":"1b3561d3","supportsInterface(bytes4)":"01ffc9a7"},"id":280}