{"abi":[{"type":"function","name":"_msgSender","inputs":[],"outputs":[{"name":"sender","type":"address","internalType":"address"}],"stateMutability":"view"},{"type":"function","name":"_msgValue","inputs":[],"outputs":[{"name":"value","type":"uint256","internalType":"uint256"}],"stateMutability":"pure"},{"type":"function","name":"_world","inputs":[],"outputs":[{"name":"","type":"address","internalType":"address"}],"stateMutability":"view"},{"type":"function","name":"checkForEncounterEnd","inputs":[{"name":"encounterData","type":"tuple","internalType":"struct CombatEncounterData","components":[{"name":"encounterType","type":"uint8","internalType":"enum EncounterType"},{"name":"start","type":"uint256","internalType":"uint256"},{"name":"end","type":"uint256","internalType":"uint256"},{"name":"rewardsDistributed","type":"bool","internalType":"bool"},{"name":"currentTurn","type":"uint256","internalType":"uint256"},{"name":"currentTurnTimer","type":"uint256","internalType":"uint256"},{"name":"maxTurns","type":"uint256","internalType":"uint256"},{"name":"attackersAreMobs","type":"bool","internalType":"bool"},{"name":"defenders","type":"bytes32[]","internalType":"bytes32[]"},{"name":"attackers","type":"bytes32[]","internalType":"bytes32[]"}]}],"outputs":[{"name":"_encounterEnded","type":"bool","internalType":"bool"},{"name":"_attackersWin","type":"bool","internalType":"bool"}],"stateMutability":"view"},{"type":"function","name":"createEncounter","inputs":[{"name":"encounterType","type":"uint8","internalType":"enum EncounterType"},{"name":"group1","type":"bytes32[]","internalType":"bytes32[]"},{"name":"group2","type":"bytes32[]","internalType":"bytes32[]"}],"outputs":[{"name":"encounterId","type":"bytes32","internalType":"bytes32"}],"stateMutability":"nonpayable"},{"type":"function","name":"endEncounter","inputs":[{"name":"encounterId","type":"bytes32","internalType":"bytes32"},{"name":"randomNumber","type":"uint256","internalType":"uint256"},{"name":"attackersWin","type":"bool","internalType":"bool"}],"outputs":[],"stateMutability":"nonpayable"},{"type":"function","name":"endTurn","inputs":[{"name":"encounterId","type":"bytes32","internalType":"bytes32"},{"name":"playerId","type":"bytes32","internalType":"bytes32"},{"name":"attacks","type":"tuple[]","internalType":"struct Action[]","components":[{"name":"attackerEntityId","type":"bytes32","internalType":"bytes32"},{"name":"defenderEntityId","type":"bytes32","internalType":"bytes32"},{"name":"itemId","type":"uint256","internalType":"uint256"}]}],"outputs":[],"stateMutability":"payable"},{"type":"function","name":"isAttacker","inputs":[{"name":"encounterId","type":"bytes32","internalType":"bytes32"},{"name":"entityId","type":"bytes32","internalType":"bytes32"}],"outputs":[{"name":"_isAttacker","type":"bool","internalType":"bool"}],"stateMutability":"nonpayable"},{"type":"function","name":"isDefender","inputs":[{"name":"encounterId","type":"bytes32","internalType":"bytes32"},{"name":"entityId","type":"bytes32","internalType":"bytes32"}],"outputs":[{"name":"_isDefender","type":"bool","internalType":"bool"}],"stateMutability":"nonpayable"},{"type":"function","name":"isInEncounter","inputs":[{"name":"entityId","type":"bytes32","internalType":"bytes32"}],"outputs":[{"name":"","type":"bool","internalType":"bool"}],"stateMutability":"view"},{"type":"function","name":"isParticipant","inputs":[{"name":"account","type":"address","internalType":"address"},{"name":"participants","type":"bytes32[]","internalType":"bytes32[]"}],"outputs":[{"name":"_isParticipant","type":"bool","internalType":"bool"}],"stateMutability":"view"},{"type":"function","name":"isParticipant","inputs":[{"name":"playerId","type":"bytes32","internalType":"bytes32"},{"name":"encounterId","type":"bytes32","internalType":"bytes32"}],"outputs":[{"name":"_isParticipant","type":"bool","internalType":"bool"}],"stateMutability":"view"},{"type":"function","name":"supportsInterface","inputs":[{"name":"interfaceId","type":"bytes4","internalType":"bytes4"}],"outputs":[{"name":"","type":"bool","internalType":"bool"}],"stateMutability":"pure"},{"type":"event","name":"Store_SetRecord","inputs":[{"name":"tableId","type":"bytes32","indexed":true,"internalType":"ResourceId"},{"name":"keyTuple","type":"bytes32[]","indexed":false,"internalType":"bytes32[]"},{"name":"staticData","type":"bytes","indexed":false,"internalType":"bytes"},{"name":"encodedLengths","type":"bytes32","indexed":false,"internalType":"EncodedLengths"},{"name":"dynamicData","type":"bytes","indexed":false,"internalType":"bytes"}],"anonymous":false},{"type":"event","name":"Store_SpliceDynamicData","inputs":[{"name":"tableId","type":"bytes32","indexed":true,"internalType":"ResourceId"},{"name":"keyTuple","type":"bytes32[]","indexed":false,"internalType":"bytes32[]"},{"name":"dynamicFieldIndex","type":"uint8","indexed":false,"internalType":"uint8"},{"name":"start","type":"uint48","indexed":false,"internalType":"uint48"},{"name":"deleteCount","type":"uint40","indexed":false,"internalType":"uint40"},{"name":"encodedLengths","type":"bytes32","indexed":false,"internalType":"EncodedLengths"},{"name":"data","type":"bytes","indexed":false,"internalType":"bytes"}],"anonymous":false},{"type":"event","name":"Store_SpliceStaticData","inputs":[{"name":"tableId","type":"bytes32","indexed":true,"internalType":"ResourceId"},{"name":"keyTuple","type":"bytes32[]","indexed":false,"internalType":"bytes32[]"},{"name":"start","type":"uint48","indexed":false,"internalType":"uint48"},{"name":"data","type":"bytes","indexed":false,"internalType":"bytes"}],"anonymous":false},{"type":"error","name":"EncodedLengths_InvalidLength","inputs":[{"name":"length","type":"uint256","internalType":"uint256"}]},{"type":"error","name":"Slice_OutOfBounds","inputs":[{"name":"data","type":"bytes","internalType":"bytes"},{"name":"start","type":"uint256","internalType":"uint256"},{"name":"end","type":"uint256","internalType":"uint256"}]},{"type":"error","name":"Store_IndexOutOfBounds","inputs":[{"name":"length","type":"uint256","internalType":"uint256"},{"name":"accessedIndex","type":"uint256","internalType":"uint256"}]},{"type":"error","name":"Store_InvalidResourceType","inputs":[{"name":"expected","type":"bytes2","internalType":"bytes2"},{"name":"resourceId","type":"bytes32","internalType":"ResourceId"},{"name":"resourceIdString","type":"string","internalType":"string"}]},{"type":"error","name":"Store_InvalidSplice","inputs":[{"name":"startWithinField","type":"uint40","internalType":"uint40"},{"name":"deleteCount","type":"uint40","internalType":"uint40"},{"name":"fieldLength","type":"uint40","internalType":"uint40"}]},{"type":"error","name":"World_AccessDenied","inputs":[{"name":"resource","type":"string","internalType":"string"},{"name":"caller","type":"address","internalType":"address"}]},{"type":"error","name":"World_FunctionSelectorNotFound","inputs":[{"name":"functionSelector","type":"bytes4","internalType":"bytes4"}]},{"type":"error","name":"World_ResourceNotFound","inputs":[{"name":"resourceId","type":"bytes32","internalType":"ResourceId"},{"name":"resourceIdString","type":"string","internalType":"string"}]}],"bytecode":{"object":"0x608060405234801561001057600080fd5b5061580580620000216000396000f3fe6080604052600436106100d25760003560e01c806345ec93541161007f578063c6ca743c11610059578063c6ca743c1461022b578063e1af802c1461024b578063e903546c14610260578063fdb4dcd01461028057600080fd5b806345ec9354146101d357806396eead59146101eb578063b24678941461020b57600080fd5b80631b45e23c116100b05780631b45e23c1461014e5780631e45d6141461016e5780632c86e0e2146101a557600080fd5b806301ffc9a7146100d7578063119df25f1461010c5780631b3561d314610139575b600080fd5b3480156100e357600080fd5b506100f76100f2366004614864565b6102a0565b60405190151581526020015b60405180910390f35b34801561011857600080fd5b50610121610339565b6040516001600160a01b039091168152602001610103565b61014c61014736600461495e565b610348565b005b34801561015a57600080fd5b506100f7610169366004614a36565b610774565b34801561017a57600080fd5b5061018e610189366004614aed565b6107db565b604080519215158352901515602083015201610103565b3480156101b157600080fd5b506101c56101c0366004614bea565b6109a2565b604051908152602001610103565b3480156101df57600080fd5b5036601f1901356101c5565b3480156101f757600080fd5b506100f7610206366004614a36565b610eef565b34801561021757600080fd5b506100f7610226366004614c73565b610f4e565b34801561023757600080fd5b506100f7610246366004614a36565b611024565b34801561025757600080fd5b506101216110da565b34801561026c57600080fd5b5061014c61027b366004614cc3565b6110e4565b34801561028c57600080fd5b506100f761029b366004614cfc565b611518565b60007fffffffff0000000000000000000000000000000000000000000000000000000082167fb5dee12700000000000000000000000000000000000000000000000000000000148061033357507fffffffff0000000000000000000000000000000000000000000000000000000082167f01ffc9a700000000000000000000000000000000000000000000000000000000145b92915050565b600061034361152c565b905090565b60006103538461155e565b9050600061035f6110da565b6001600160a01b0316634f10aabc856040518263ffffffff1660e01b815260040161038c91815260200190565b602060405180830381865afa1580156103a9573d6000803e3d6000fd5b505050506040513d601f19601f820116820180604052508101906103cd9190614d15565b905081602001516000141580156103e657506040820151155b61045d5760405162461bcd60e51b815260206004820152602360248201527f454e434f554e5445522053595354454d3a20494e56414c494420454e434f554e60448201527f544552000000000000000000000000000000000000000000000000000000000060648201526084015b60405180910390fd5b8160c001518260800151106104da5760405162461bcd60e51b815260206004820152602360248201527f454e434f554e5445522053595354454d3a204558504952454420454e434f554e60448201527f54455200000000000000000000000000000000000000000000000000000000006064820152608401610454565b6104e2610339565b6001600160a01b0316816001600160a01b031614801561050757506105078486611024565b6105535760405162461bcd60e51b815260206004820152601f60248201527f454e434f554e5445522053595354454d3a204e4f4e2d434f4d424154414e54006044820152606401610454565b60008251600281111561056857610568614d32565b03610763576002826080015161057e9190614d5e565b60000361068c57428260a00151601e6105979190614d96565b11610631576105a68486611024565b6105f25760405162461bcd60e51b815260206004820181905260248201527f454e434f554e5445522053595354454d3a20494e56414c49442043414c4c45526044820152606401610454565b61060181836101200151610f4e565b1561062c576001826080018181516106199190614d96565b905250608082015161062c908690611663565b610763565b61064081836101000151610f4e565b61062c5760405162461bcd60e51b815260206004820152601960248201527f43616e6e6f7420656e6420646566656e64657273207475726e000000000000006044820152606401610454565b428260a00151601e61069e9190614d96565b11610708576106ad8486611024565b6106f95760405162461bcd60e51b815260206004820181905260248201527f454e434f554e5445522053595354454d3a20494e56414c49442043414c4c45526044820152606401610454565b61060181836101000151610f4e565b61071781836101200151610f4e565b6107635760405162461bcd60e51b815260206004820152601960248201527f43616e6e6f7420656e642061747461636b657273207475726e000000000000006044820152606401610454565b61076d858461171c565b5050505050565b6000806107808461155e565b905060005b816101000151518110156107d35781610100015181815181106107aa576107aa614da9565b602002602001015184036107c157600192506107d3565b806107cb81614dbf565b915050610785565b505092915050565b60008060008060005b856101000151518110156108a1576107fa6110da565b6001600160a01b031663525b0e1e876101000151838151811061081f5761081f614da9565b60200260200101516040518263ffffffff1660e01b815260040161084591815260200190565b602060405180830381865afa158015610862573d6000803e3d6000fd5b505050506040513d601f19601f820116820180604052508101906108869190614dd9565b15610899578261089581614dbf565b9350505b6001016107e4565b5060005b85610120015151811015610962576108bb6110da565b6001600160a01b031663525b0e1e87610120015183815181106108e0576108e0614da9565b60200260200101516040518263ffffffff1660e01b815260040161090691815260200190565b602060405180830381865afa158015610923573d6000803e3d6000fd5b505050506040513d601f19601f820116820180604052508101906109479190614dd9565b1561095a578161095681614dbf565b9250505b6001016108a5565b508461012001515181148061097c57508461010001515182145b8061098e57508460c001518560800151145b935084610100015151821492505050915091565b60006109b56109af610339565b84610f4e565b806109cc57506109cc6109c6610339565b83610f4e565b610a185760405162461bcd60e51b815260206004820181905260248201527f454e434f554e5445522053595354454d3a20494e56414c49442053454e4445526044820152606401610454565b600080610a3e85600081518110610a3157610a31614da9565b60200260200101516117d9565b91509150600080610a4f878761188a565b90925090506001886002811115610a6857610a68614d32565b03610bdd57600080610a786110da565b6001600160a01b031663c6d5525b858589896040518563ffffffff1660e01b8152600401610aa99493929190614e32565b6040805180830381865afa158015610ac5573d6000803e3d6000fd5b505050506040513d601f19601f82011682018060405250810190610ae99190614e77565b9150915081610b3a5760405162461bcd60e51b815260206004820152601d60248201527f454e434f554e5445522053595354454d3a20494e56414c4944205056450000006044820152606401610454565b6040514290610b53908c90879087908590602001614ecf565b60405160208183030381529060405280519060200120975060006040518061014001604052808d6002811115610b8b57610b8b614d32565b81526020018381526020016000815260200160001515815260200160018152602001428152602001600f81526020018415158152602001868152602001878152509050610bd8898261193f565b505050505b6000886002811115610bf157610bf1614d32565b03610d5d57610bfe6110da565b6001600160a01b0316632933423f838387876040518563ffffffff1660e01b8152600401610c2f9493929190614e32565b602060405180830381865afa158015610c4c573d6000803e3d6000fd5b505050506040513d601f19601f82011682018060405250810190610c709190614dd9565b610cbc5760405162461bcd60e51b815260206004820152601d60248201527f454e434f554e5445522053595354454d3a20494e56414c4944205056500000006044820152606401610454565b6040514290610cd5908a90859085908590602001614ecf565b60405160208183030381529060405280519060200120955060006040518061014001604052808b6002811115610d0d57610d0d614d32565b81526020810184905260006040820181905260608201819052600160808301524260a0830152600f60c083015260e08201526101008101859052610120018590529050610d5a878261193f565b50505b60408051608081018252600080825260208201819052918101829052606080820152905b8351811015610e3d57610dac848281518110610d9f57610d9f614da9565b6020026020010151611a1b565b8051909250158015610dc057508160200151155b610e0c5760405162461bcd60e51b815260206004820181905260248201527f454e434f554e5445522053595354454d3a20494e56414c494420454e544954596044820152606401610454565b8682528351610e3590859083908110610e2757610e27614da9565b602002602001015183611adf565b600101610d81565b5060005b8251811015610ee257610e5f838281518110610d9f57610d9f614da9565b8051909250158015610e7357508160200151155b610ebf5760405162461bcd60e51b815260206004820181905260248201527f454e434f554e5445522053595354454d3a20494e56414c494420454e544954596044820152606401610454565b8682528251610eda90849083908110610e2757610e27614da9565b600101610e41565b5050505050509392505050565b600080610efb8461155e565b905060005b816101200151518110156107d3578161012001518181518110610f2557610f25614da9565b60200260200101518403610f3c57600192506107d3565b80610f4681614dbf565b915050610f00565b6000805b825181101561101d57610f636110da565b6001600160a01b0316634f10aabc848381518110610f8357610f83614da9565b60200260200101516040518263ffffffff1660e01b8152600401610fa991815260200190565b602060405180830381865afa158015610fc6573d6000803e3d6000fd5b505050506040513d601f19601f82011682018060405250810190610fea9190614d15565b6001600160a01b0316846001600160a01b03160361100b576001915061101d565b8061101581614dbf565b915050610f52565b5092915050565b6000806110308361155e565b905060005b8161012001515181101561108357816101200151818151811061105a5761105a614da9565b602002602001015185036110715760019250611083565b8061107b81614dbf565b915050611035565b508161101d5760005b816101000151518110156107d35781610100015181815181106110b1576110b1614da9565b602002602001015185036110c857600192506107d3565b806110d281614dbf565b91505061108c565b6000610343611b8c565b6110f5306110f0610339565b611b96565b60006111008461155e565b905061110b84611bac565b156111585760405162461bcd60e51b815260206004820152601660248201527f656e636f756e74657220616c7265616479206f766572000000000000000000006044820152606401610454565b46617a69036111765761116b8443611c46565b436040820152611187565b6111808442611c46565b4260408201525b6000808060606001855160028111156111a2576111a2614d32565b0361124d576111af6110da565b6040517f49572ff1000000000000000000000000000000000000000000000000000000008152600481018a9052602481018990526001600160a01b0391909116906349572ff1906044015b6000604051808303816000875af1158015611219573d6000803e3d6000fd5b505050506040513d6000823e601f3d908101601f191682016040526112419190810190614f15565b91945092509050611306565b60008551600281111561126257611262614d32565b036112be5761126f6110da565b6040517f25e62d82000000000000000000000000000000000000000000000000000000008152600481018a9052602481018990526001600160a01b0391909116906325e62d82906044016111fa565b60405162461bcd60e51b815260206004820152601c60248201527f756e7265636f676e697a656420656e6f636f756e7465722074797065000000006044820152606401610454565b6040805160a0810182524281528715156020820152908101849052606081018390526080810182905260008060405190808252806020026020018201604052801561135b578160200160208202803683370190505b50905060005b8761012001515181101561142f57876101200151818151811061138657611386614da9565b6020026020010151965061139d876000801b611cc5565b6113a78783611d79565b6113b087611def565b15611427576113bd6110da565b6001600160a01b031663f547ccbd886040518263ffffffff1660e01b81526004016113ea91815260200190565b600060405180830381600087803b15801561140457600080fd5b505af1158015611418573d6000803e3d6000fd5b50505050611427876001611e8d565b600101611361565b5060005b8761010001515181101561150157876101000151818151811061145857611458614da9565b6020026020010151965061146f876000801b611cc5565b6114798783611d79565b61148287611def565b156114f95761148f6110da565b6001600160a01b031663f547ccbd886040518263ffffffff1660e01b81526004016114bc91815260200190565b600060405180830381600087803b1580156114d657600080fd5b505af11580156114ea573d6000803e3d6000fd5b505050506114f9876001611e8d565b600101611433565b5061150c8a83611f11565b50505050505050505050565b60008061152483611fc3565b141592915050565b7fffffffffffffffffffffffffffffffffffffffffffffffffffffffffffffffcc36013560601c8061155b5750335b90565b6115b96040805161014081019091528060008152602001600081526020016000815260200160001515815260200160008152602001600081526020016000815260200160001515815260200160608152602001606081525090565b6040805160018082528183019092526000916020808301908036833701905050905082816000815181106115ef576115ef614da9565b6020908102919091010152600080806116487f74625544000000000000000000000000436f6d626174456e636f756e74657200857ea3080201202001202020010000000000000000000000000000000000000000612054565b925092509250611659838383612124565b9695505050505050565b60408051600180825281830190925260009160208083019080368337019050509050828160008151811061169957611699614da9565b6020026020010181815250506117177f74625544000000000000000000000000436f6d626174456e636f756e7465720060001b826004856040516020016116e291815260200190565b60408051601f198184030181529190527ea3080201202001202020010000000000000000000000000000000000000000612207565b505050565b6117448160008151811061173257611732614da9565b602002602001015160000151426122b0565b611717826002848460405160200161175d929190614fbb565b60408051601f198184030181529082905261177c939291602401615071565b60408051601f198184030181529190526020810180517bffffffffffffffffffffffffffffffffffffffffffffffffffffffff167fb2aa60a40000000000000000000000000000000000000000000000000000000017905261234c565b6040805160018082528183019092526000918291829160208083019080368337019050509050838160008151811061181357611813614da9565b60209081029190910101526000808061186c7f74625544000000000000000000000000506f736974696f6e0000000000000000857e04020002020000000000000000000000000000000000000000000000000000612054565b92509250925061187d8383836123fa565b9550955050505050915091565b60608060008060005b86518110156118d2576118be8782815181106118b1576118b1614da9565b602002602001015161241d565b6118c89084615099565b9250600101611893565b5060005b8551811015611908576118f48682815181106118b1576118b1614da9565b6118fe9083615099565b91506001016118d6565b508082131561191c57859350849250611936565b8181131561192f57849350859250611936565b8593508492505b50509250929050565b6000611971826000015183602001518460400151856060015186608001518760a001518860c001518960e001516124af565b905060006119898361010001518461012001516124ed565b905060006119a1846101000151856101200151612518565b604080516001808252818301909252919250600091906020808301908036833701905050905085816000815181106119db576119db614da9565b6020908102919091010152611a137f74625544000000000000000000000000436f6d626174456e636f756e7465720082868686612554565b505050505050565b604080516080810182526000808252602082018190528183018190526060808301528251600180825281850190945291929091908160200160208202803683370190505090508281600081518110611a7557611a75614da9565b602090810291909101015260008080611ace7f74625544000000000000000000000000456e636f756e746572456e7469747900857e41030120012000000000000000000000000000000000000000000000000000612054565b9250925092506116598383836125ca565b6000611af882600001518360200151846040015161261a565b90506000611b09836060015161265d565b90506000611b1a8460600151612670565b60408051600180825281830190925291925060009190602080830190803683370190505090508581600081518110611b5457611b54614da9565b6020908102919091010152611a137f74625544000000000000000000000000456e636f756e746572456e746974790082868686612554565b60006103436126a1565b611ba8611ba2836126e0565b82612765565b5050565b604080516001808252818301909252600091829190602080830190803683370190505090508281600081518110611be557611be5614da9565b60209081029190910101526000611c3e7f74625544000000000000000000000000436f6d626174456e636f756e746572008360027ea30802012020012020200100000000000000000000000000000000000000006127b1565b949350505050565b604080516001808252818301909252600091602080830190803683370190505090508281600081518110611c7c57611c7c614da9565b6020026020010181815250506117177f74625544000000000000000000000000436f6d626174456e636f756e7465720060001b826002856040516020016116e291815260200190565b604080516001808252818301909252600091602080830190803683370190505090508281600081518110611cfb57611cfb614da9565b6020026020010181815250506117177f74625544000000000000000000000000456e636f756e746572456e746974790060001b82600085604051602001611d4491815260200190565b60408051601f198184030181529190527e41030120012000000000000000000000000000000000000000000000000000612207565b604080516001808252818301909252600091602080830190803683370190505090508281600081518110611daf57611daf614da9565b60209081029190910101526117177f74625544000000000000000000000000456e636f756e746572456e7469747900826000611dea8661286e565b61287e565b604080516001808252818301909252600091829190602080830190803683370190505090508281600081518110611e2857611e28614da9565b60209081029190910101526000611e817f74625544000000000000000000000000456e636f756e746572456e74697479008360017e410301200120000000000000000000000000000000000000000000000000006127b1565b9050611c3e8160f81c90565b604080516001808252818301909252600091602080830190803683370190505090508281600081518110611ec357611ec3614da9565b6020026020010181815250506117177f74625544000000000000000000000000456e636f756e746572456e746974790060001b82600185604051602001611d4491151560f81b815260010190565b6000611f2f826000015183602001518460400151856060015161292f565b90506000611f40836080015161265d565b90506000611f518460800151612670565b60408051600180825281830190925291925060009190602080830190803683370190505090508581600081518110611f8b57611f8b614da9565b6020908102919091010152611a137f6f745544000000000000000000000000436f6d6261744f7574636f6d6500000082868686612554565b604080516001808252818301909252600091829190602080830190803683370190505090508281600081518110611ffc57611ffc614da9565b60209081029190910101526000611c3e7f74625544000000000000000000000000456e636f756e746572456e746974790083837e410301200120000000000000000000000000000000000000000000000000006127b1565b60606000606060006120646126a1565b9050306001600160a01b0382160361208d5761208187878761297a565b9350935093505061211b565b6040517f419b58fd0000000000000000000000000000000000000000000000000000000081526001600160a01b0382169063419b58fd906120d6908a908a908a906004016150b9565b600060405180830381865afa1580156120f3573d6000803e3d6000fd5b505050506040513d6000823e601f3d908101601f191682016040526120819190810190615146565b93509350939050565b61217f6040805161014081019091528060008152602001600081526020016000815260200160001515815260200160008152602001600081526020016000815260200160001515815260200160608152602001606081525090565b61218884612a82565b80151560e08a015260c0890182905260a089018390526080890184905284151560608a01526040890186905260208901879052888860028111156121ce576121ce614d32565b60028111156121df576121df614d32565b81525050505050505050506121f48383612b06565b6101208301526101008201529392505050565b60006122116126a1565b9050306001600160a01b03821603612235576122308686868686612b55565b611a13565b6040517f390baae00000000000000000000000000000000000000000000000000000000081526001600160a01b0382169063390baae09061228290899089908990899089906004016151a9565b600060405180830381600087803b15801561229c57600080fd5b505af115801561150c573d6000803e3d6000fd5b6040805160018082528183019092526000916020808301908036833701905050905082816000815181106122e6576122e6614da9565b6020026020010181815250506117177f7462554400000000000000000000000053657373696f6e54696d65720000000060001b8260008560405160200161232f91815260200190565b60408051601f19818403018152919052630100080160dd1b612207565b606060008061236261235d856151f0565b612b6a565b91509150816000801b036123c8576040517ffdde54e20000000000000000000000000000000000000000000000000000000081527fffffffff00000000000000000000000000000000000000000000000000000000600035166004820152602401610454565b6020840180517bffffffffffffffffffffffffffffffffffffffffffffffffffffffff1682179052611c3e8285612c2d565b60208301516022840151600091829160f091821c911c5b90969095509350505050565b60408051600180825281830190925260009182919060208083019080368337019050509050828160008151811061245657612456614da9565b60209081029190910101526000611c3e7f74625544000000000000000000000000537461747300000000000000000000008360017ee10800202001202020202000000000000000000000000000000000000000006127b1565b606088888888888888886040516020016124d0989796959493929190615240565b604051602081830303815290604052905098975050505050505050565b600061251183516020028351602002606081901b603883901b838301171792915050565b9392505050565b60606125238361286e565b61252c8361286e565b60405160200161253d92919061528c565b604051602081830303815290604052905092915050565b600061255e6126a1565b9050306001600160a01b0382160361257d576122308686868686612d08565b6040517f298314fb0000000000000000000000000000000000000000000000000000000081526001600160a01b0382169063298314fb9061228290899089908990899089906004016152bb565b60408051608081018252600080825260208201819052918101919091526060808201526125f684612d1e565b604084015215156020830152815261260e8383612d50565b60608201529392505050565b60608383836040516020016126459392919092835290151560f81b6020830152602182015260410190565b60405160208183030381529060405290509392505050565b60006103338251602002603881901b1790565b606061267b8261286e565b60405160200161268b919061530c565b6040516020818303038152906040529050919050565b7f629a4c26e296b22a8e0856e9f6ecb2d1008d7e00081111962cd175fa7488e175546000906001600160a01b0316806126db573391505090565b919050565b60408051600180825281830190925260009182919060208083019080368337019050509050826001600160a01b031660001b8160008151811061272557612725614da9565b60209081029190910101526000611c3e7f7462776f726c6400000000000000000053797374656d526567697374727900008383630100080160dd1b6127b1565b61276f8282612d77565b611ba85761277c82612dd5565b816040517fd787b737000000000000000000000000000000000000000000000000000000008152600401610454929190615328565b6000806127bc6126a1565b9050306001600160a01b038216036127e2576127da86868686612f12565b915050611c3e565b6040517f8c364d590000000000000000000000000000000000000000000000000000000081526001600160a01b03821690638c364d599061282d908990899089908990600401615353565b602060405180830381865afa15801561284a573d6000803e3d6000fd5b505050506040513d601f19601f820116820180604052508101906127da9190615382565b6060816125118160206000612f3f565b60006128886126a1565b9050306001600160a01b038216036128ab576128a685858585612f9f565b61076d565b6040517fef6ea8620000000000000000000000000000000000000000000000000000000081526001600160a01b0382169063ef6ea862906128f690889088908890889060040161539b565b600060405180830381600087803b15801561291057600080fd5b505af1158015612924573d6000803e3d6000fd5b505050505050505050565b606084848484604051602001612961949392919093845291151560f81b60208401526021830152604182015260610190565b6040516020818303038152906040529050949350505050565b606060006060600061298b85612fda565b9050612998878783612ffd565b935060006129a586613036565b90508015612a77576129b78888613073565b935066ffffffffffffff841667ffffffffffffffff8111156129db576129db6148a6565b6040519080825280601f01601f191660200182016040528015612a05576020820181803683370190505b5092506020830160005b828160ff161015612a74576000612a278b8b84613086565b90506000612a44888460ff166028026038011c64ffffffffff1690565b9050612a538260008387613106565b612a5d8185614d96565b935050508080612a6c906153da565b915050612a0f565b50505b505093509350939050565b600080600080600080600080612a9c896000016020015190565b60f81c6002811115612ab057612ab0614d32565b60218a015160418b015160618c0151929a509098509650612ad2905b60f81c90565b60628a015160828b015160a28c015160c28d015193985091965094509250612af990612acc565b9050919395975091939597565b6060806000603885901c64ffffffffff16612b2a612b258684846131d1565b61325f565b935090508064ffffffffff606087901c1601612b4a612b258684846131d1565b925050509250929050565b61076d8585612b648487613270565b856132a9565b6040805160018082528183019092526000918291829160208083019080368337019050509050837bffffffffffffffffffffffffffffffffffffffffffffffffffffffff191681600081518110612bc357612bc3614da9565b602090810291909101015260008080612c1c7f7462776f726c6400000000000000000046756e6374696f6e53656c6563746f72857e24020020040000000000000000000000000000000000000000000000000000612054565b92509250925061187d83838361354d565b60606000612c39611b8c565b90506001600160a01b0381163003612c7a576000612c61612c5861152c565b60008787613559565b9350905080612c7357612c7383613694565b5050610333565b6040517f3ae7af080000000000000000000000000000000000000000000000000000000081526001600160a01b03821690633ae7af0890612cc190879087906004016153f9565b6000604051808303816000875af1158015612ce0573d6000803e3d6000fd5b505050506040513d6000823e601f3d908101601f19168201604052611c3e9190810190615412565b61076d8585858585612d198b61369c565b613721565b6000806000612d31846000016020015190565b6040850151909350612d4290612acc565b604194909401519294915050565b60606000603884901c64ffffffffff16612d6e612b258584846131d1565b95945050505050565b6000612dc57f6e730000000000000000000000000000000000000000000000000000000000007dffffffffffffffffffffffffffff0000000000000000000000000000000085161783613a5a565b8061251157506125118383613a5a565b606081601081901b6000612de883613b23565b9050827fffffffffffffffffffffffffffff000000000000000000000000000000000000831615612e4357612e3e7fffffffffffffffffffffffffffff0000000000000000000000000000000000008416613b3a565b612e7a565b6040518060400160405280600681526020017f3c726f6f743e00000000000000000000000000000000000000000000000000008152505b7fffffffffffffffffffffffffffffffff00000000000000000000000000000000831615612eb057612eab83613b3a565b612ee7565b6040518060400160405280600681526020017f3c726f6f743e00000000000000000000000000000000000000000000000000008152505b604051602001612ef993929190615447565b6040516020818303038152906040529350505050919050565b6000612d6e612f218686613bde565b60ff858116601b0360080285901c16612f3a8587613270565b613c34565b82516060906000612f5085836154d5565b9050604051925060208301601f19603f83860101166040528184526000602088015b84821015612f93578051871b83529187019160019190910190602001612f72565b50505050509392505050565b6000612fab8585613073565b90506000612fc8828560ff166028026038011c64ffffffffff1690565b9050611a138686866000858888613c85565b60006008612fea600260206154ec565b612ff491906154d5565b9190911c919050565b60608160000361301c5750604080516020810190915260008152612511565b60006130288585613bde565b9050612d6e816000856140bf565b60006008600180613049600260206154ec565b61305391906154ec565b61305d91906154ec565b61306791906154d5565b8260ff911c1692915050565b600061251161308284846140e2565b5490565b6000838360405160200161309b9291906154ff565b604051602081830303815290604052805190602001208260f81b7effffffffffffffffffffffffffffffffffffffffffffffffffffffffffffff19167f3b4102da22e32d82fc925482184f16c09fd4281692720b87d124aef6da48a0f1181860001c90509392505050565b821561318d57602083106131305760208304840193506020838161312c5761312c614d48565b0692505b821561318d5760208390036000818410156131535750600019600884021c61315d565b50600019600882021c5b8554600886021b81845116821982161784525081841161317e5750506131cb565b50600194909401939182900391015b5b602082106131af5783548152600190930192601f199091019060200161318e565b81156131cb5780518454600019600885021c9182169119161781525b50505050565b6000818311806131e15750835182115b1561321e578383836040517f23230fa30000000000000000000000000000000000000000000000000000000081526004016104549392919061553b565b6020840161322c8482614d96565b9050600061323a85856154ec565b6fffffffffffffffffffffffffffffffff1660809290921b9190911795945050505050565b606060006125118360206000614138565b600080805b8360ff168110156132a15761329760ff601b83900360080287901c1683614d96565b9150600101613275565b509392505050565b7f6f74000000000000000000000000000000000000000000000000000000000000847fffff000000000000000000000000000000000000000000000000000000000000160361333357837f8c0b5119d4cec7b284c6b1b39252a03d1e2f2d7451a5895562524c113bb952be84848460405161332693929190615560565b60405180910390a26131cb565b600061333f8585613bde565b9050600061334c866141a7565b905060005b815181101561342157600082828151811061336e5761336e614da9565b6020026020010151905061339a6004826affffffffffffffffffffff191661423090919063ffffffff16565b15613418576040517f964f667d000000000000000000000000000000000000000000000000000000008152606082901c9063964f667d906133e5908b908b908b908b90600401615593565b600060405180830381600087803b1580156133ff57600080fd5b505af1158015613413573d6000803e3d6000fd5b505050505b50600101613351565b50857f8c0b5119d4cec7b284c6b1b39252a03d1e2f2d7451a5895562524c113bb952be86868660405161345693929190615560565b60405180910390a2613471828565ffffffffffff168561424e565b60005b815181101561354457600082828151811061349157613491614da9565b602002602001015190506134bd6008826affffffffffffffffffffff191661423090919063ffffffff16565b1561353b576040517fa8ba8721000000000000000000000000000000000000000000000000000000008152606082901c9063a8ba872190613508908b908b908b908b90600401615593565b600060405180830381600087803b15801561352257600080fd5b505af1158015613536573d6000803e3d6000fd5b505050505b50600101613474565b50505050505050565b60008061241185614264565b6000606060008061356986614279565b90925090506001600160a01b0382166135ba578561358687612dd5565b6040517ffbf10ce60000000000000000000000000000000000000000000000000000000081526004016104549291906153f9565b806135c9576135c9868961431d565b8615613635577dffffffffffffffffffffffffffff0000000000000000000000000000000086167f6e7300000000000000000000000000000000000000000000000000000000000017600061361d82614327565b90506136328261362d8b84614d96565b6143a0565b50505b60006136418760101b90565b7fffffffffffffffffffffffffffff0000000000000000000000000000000000001614613679576136748888848861443c565b613685565b613685888884886144b4565b90999098509650505050505050565b805160208201fd5b60007f8b9d8c8b908d9affffffffffffffffffab9e9d939a8d0000000000000000000082016136eb57507e60030220202000000000000000000000000000000000000000000000000000919050565b6103336137187f746273746f72650000000000000000005461626c65730000000000000000000084614515565b60206000613c34565b7f6f74000000000000000000000000000000000000000000000000000000000000867fffff00000000000000000000000000000000000000000000000000000000000016036137ad57857f8dbb3a9672eebfd3773e72dd9c102393436816d832c7ba9e1e1ac8fcadcac7a9868686866040516137a094939291906155cc565b60405180910390a2611a13565b60006137b8876141a7565b905060005b81518110156138915760008282815181106137da576137da614da9565b602002602001015190506138066001826affffffffffffffffffffff191661423090919063ffffffff16565b15613888576040517f57066c9c000000000000000000000000000000000000000000000000000000008152606082901c906357066c9c90613855908c908c908c908c908c908c9060040161560b565b600060405180830381600087803b15801561386f57600080fd5b505af1158015613883573d6000803e3d6000fd5b505050505b506001016137bd565b50867f8dbb3a9672eebfd3773e72dd9c102393436816d832c7ba9e1e1ac8fcadcac7a9878787876040516138c894939291906155cc565b60405180910390a260006138dc8888613bde565b905060006020870190506138f4826000895184614531565b60006138ff85613036565b11156139835760006139118a8a6140e2565b878155905060208601915060008060005b61392b88613036565b8160ff16101561397e576139408d8d83613086565b925061395b8a8260ff166028026038011c64ffffffffff1690565b915061396a8360008488614531565b6139748286614d96565b9450600101613922565b505050505b60005b835181101561150c5760008482815181106139a3576139a3614da9565b602002602001015190506139cf6002826affffffffffffffffffffff191661423090919063ffffffff16565b15613a51576040517f5b28cdaf000000000000000000000000000000000000000000000000000000008152606082901c90635b28cdaf90613a1e908e908e908e908e908e908e9060040161560b565b600060405180830381600087803b158015613a3857600080fd5b505af1158015613a4c573d6000803e3d6000fd5b505050505b50600101613986565b604080516002808252606082018352600092839291906020830190803683370190505090508381600081518110613a9357613a93614da9565b602002602001018181525050826001600160a01b031660001b81600181518110613abf57613abf614da9565b60209081029190910101526000613b177f7462776f726c640000000000000000005265736f75726365416363657373000083837e010100010000000000000000000000000000000000000000000000000000006127b1565b9050612d6e8160f81c90565b6000613b3160706010614d96565b9190911b919050565b606060005b6010811015613b9f577fffffffffffffffffffffffffffffffff000000000000000000000000000000008316600882021b7fff000000000000000000000000000000000000000000000000000000000000001615613b9f57600101613b3f565b604080517fffffffffffffffffffffffffffffffff00000000000000000000000000000000851660208201528151603090910190915281815280611c3e565b60008282604051602001613bf39291906154ff565b60408051601f1981840301815291905280516020909101207f86425bff6b57326c7859e89024fe4f238ca327a1ae4a230180dd2f0e88aaa7d9189392505050565b600060208210613c5a57602082048401935060208281613c5657613c56614d48565b0691505b508254600882021b6020829003808411156132a1576001850154600882021c82179150509392505050565b7f7462000000000000000000000000000000000000000000000000000000000000877fffff0000000000000000000000000000000000000000000000000000000000001614613d45577f74620000000000000000000000000000000000000000000000000000000000008788604051602001613d0391815260200190565b60408051601f19818403018152908290527f31b46683000000000000000000000000000000000000000000000000000000008252610454939291600401615664565b6000613d60828760ff166028026038011c64ffffffffff1690565b9050600083518564ffffffffff1683613d7991906154ec565b613d839190614d96565b9050808214158015613da5575081613d9b86886156a5565b64ffffffffff1614155b15613df5576040517fa65010b400000000000000000000000000000000000000000000000000000000815264ffffffffff8088166004830152808716602483015283166044820152606401610454565b818664ffffffffff161115613e46576040517f7e8578d30000000000000000000000000000000000000000000000000000000081526004810183905264ffffffffff87166024820152604401610454565b6000613e538489846145f0565b90506000613e608b6141a7565b905060005b8151811015613f2b576000828281518110613e8257613e82614da9565b60200260200101519050613eae6010826affffffffffffffffffffff191661423090919063ffffffff16565b15613f2257606081901c6001600160a01b03166355eb5a288e8e8e8e8e8d8f6040518863ffffffff1660e01b8152600401613eef97969594939291906156c3565b600060405180830381600087803b158015613f0957600080fd5b505af1158015613f1d573d6000803e3d6000fd5b505050505b50600101613e65565b5064ffffffffff881660005b8a60ff168160ff161015613f6a57613f5e878260ff166028026038011c64ffffffffff1690565b90910190600101613f37565b508b7ffe158a7adba34e256807c8a149028d3162918713c3838afc643ce9f96716ebfd8c8c848c888d604051613fa596959493929190615721565b60405180910390a250828414613fc6576000613fc18c8c6140e2565b839055505b6000613fd38c8c8c613086565b9050613fe7818a64ffffffffff168961424e565b5060005b81518110156140b157600082828151811061400857614008614da9565b602002602001015190506140346020826affffffffffffffffffffff191661423090919063ffffffff16565b156140a857606081901c6001600160a01b031663635845338e8e8e8e8e8a8f6040518863ffffffff1660e01b815260040161407597969594939291906156c3565b600060405180830381600087803b15801561408f57600080fd5b505af11580156140a3573d6000803e3d6000fd5b505050505b50600101613feb565b505050505050505050505050565b60405160208101601f19603f84840101166040528282526132a185858584613106565b600082826040516020016140f79291906154ff565b60408051601f1981840301815291905280516020909101207f14e2fcc58e58e68ec7edc30c8d50dccc3ce2714a623ec81f46b6a63922d76569189392505050565b606060006141468560801c90565b90506fffffffffffffffffffffffffffffffff8516600085828161416c5761416c614d48565b04905060405193506020840160208202810160405281855260005b82811015612f93578451871c825293870193602090910190600101614187565b604080516001808252818301909252606091600091906020808301908036833701905050905082816000815181106141e1576141e1614da9565b602090810291909101015260006142197f746273746f726500000000000000000053746f7265486f6f6b7300000000000083836146be565b9050611c3e61422b82600084516131d1565b6146f8565b60008160ff16826142418560581c90565b1660ff1614905092915050565b6117178383835161425f8560200190565b614531565b602081015160408201516000905b9050915091565b604080516001808252818301909252600091829182916020808301908036833701905050905083816000815181106142b3576142b3614da9565b60209081029190910101526000808061430c7f7462776f726c6400000000000000000053797374656d73000000000000000000857e1502001401000000000000000000000000000000000000000000000000000061297a565b92509250925061187d838383614709565b61276f8282614715565b60408051600180825281830190925260009182919060208083019080368337019050509050828160008151811061436057614360614da9565b60209081029190910101526000611c3e7f7462776f726c6400000000000000000042616c616e63657300000000000000008383630100080160dd1b612f12565b6040805160018082528183019092526000916020808301908036833701905050905082816000815181106143d6576143d6614da9565b6020026020010181815250506117177f7462776f726c6400000000000000000042616c616e636573000000000000000060001b8260008560405160200161441f91815260200190565b60408051601f19818403018152919052630100080160dd1b612b55565b60006060836001600160a01b03166000614457858989614773565b604051614464919061530c565b60006040518083038185875af1925050503d80600081146144a1576040519150601f19603f3d011682016040523d82523d6000602084013e6144a6565b606091505b509097909650945050505050565b60006060836001600160a01b03166144cd848888614773565b6040516144da919061530c565b600060405180830381855af49150503d80600081146144a1576040519150601f19603f3d011682016040523d82523d6000602084013e6144a6565b6040805160208101849052908101829052600090606001613bf3565b82156145ab576020831061455b5760208304840193506020838161455757614557614d48565b0692505b82156145ab5760208390036000600019600885021c1990506008850281811c91508351811c905081198754168282161787555081841161459c5750506131cb565b50600194909401939182900391015b5b602082106145cd5780518455600190930192601f19909101906020016145ac565b81156131cb576000600019600884021c8554835182191691161785555050505050565b600064ffffffffff821115614634576040517f7149a3c100000000000000000000000000000000000000000000000000000000815260048101839052602401610454565b8366ffffffffffffff811660ff851660280260380182901c64ffffffffff16808510614666578085038201915061466e565b848103820391505b5064ffffffffff6038602860ff8816020181811b197fffffffffffffffffffffffffffffffffffffffffffffffffff000000000000009490941690921792909216918416901b1790509392505050565b6060611c3e6146ce858585613086565b60006146f3856146de8989613073565b9060ff166028026038011c64ffffffffff1690565b6140bf565b606060006125118360156000614138565b6000806124118561478a565b60006147637f6e730000000000000000000000000000000000000000000000000000000000007dffffffffffffffffffffffffffff00000000000000000000000000000000851617836147a7565b80612511575061251183836147a7565b60608383836040516020016126459392919061577d565b6020810151603482015160609190911c9060009061427290612acc565b6040805160028082526060820183526000928392919060208301908036833701905050905083816000815181106147e0576147e0614da9565b602002602001018181525050826001600160a01b031660001b8160018151811061480c5761480c614da9565b60209081029190910101526000613b177f7462776f726c640000000000000000005265736f75726365416363657373000083837e01010001000000000000000000000000000000000000000000000000000000612f12565b60006020828403121561487657600080fd5b81357fffffffff000000000000000000000000000000000000000000000000000000008116811461251157600080fd5b634e487b7160e01b600052604160045260246000fd5b6040516060810167ffffffffffffffff811182821017156148df576148df6148a6565b60405290565b604051610140810167ffffffffffffffff811182821017156148df576148df6148a6565b604051601f8201601f1916810167ffffffffffffffff81118282101715614932576149326148a6565b604052919050565b600067ffffffffffffffff821115614954576149546148a6565b5060051b60200190565b6000806000606080858703121561497457600080fd5b84359350602080860135935060408087013567ffffffffffffffff81111561499b57600080fd5b8701601f810189136149ac57600080fd5b80356149bf6149ba8261493a565b614909565b81815260609091028201840190848101908b8311156149dd57600080fd5b928501925b82841015614a255786848d0312156149fa5760008081fd5b614a026148bc565b8435815286850135878201528585013586820152825292860192908501906149e2565b809750505050505050509250925092565b60008060408385031215614a4957600080fd5b50508035926020909101359150565b8035600381106126db57600080fd5b8015158114614a7557600080fd5b50565b80356126db81614a67565b600082601f830112614a9457600080fd5b81356020614aa46149ba8361493a565b8083825260208201915060208460051b870101935086841115614ac657600080fd5b602086015b84811015614ae25780358352918301918301614acb565b509695505050505050565b600060208284031215614aff57600080fd5b813567ffffffffffffffff80821115614b1757600080fd5b908301906101408286031215614b2c57600080fd5b614b346148e5565b614b3d83614a58565b81526020830135602082015260408301356040820152614b5f60608401614a78565b60608201526080830135608082015260a083013560a082015260c083013560c0820152614b8e60e08401614a78565b60e08201526101008084013583811115614ba757600080fd5b614bb388828701614a83565b8284015250506101208084013583811115614bcd57600080fd5b614bd988828701614a83565b918301919091525095945050505050565b600080600060608486031215614bff57600080fd5b614c0884614a58565b9250602084013567ffffffffffffffff80821115614c2557600080fd5b614c3187838801614a83565b93506040860135915080821115614c4757600080fd5b50614c5486828701614a83565b9150509250925092565b6001600160a01b0381168114614a7557600080fd5b60008060408385031215614c8657600080fd5b8235614c9181614c5e565b9150602083013567ffffffffffffffff811115614cad57600080fd5b614cb985828601614a83565b9150509250929050565b600080600060608486031215614cd857600080fd5b83359250602084013591506040840135614cf181614a67565b809150509250925092565b600060208284031215614d0e57600080fd5b5035919050565b600060208284031215614d2757600080fd5b815161251181614c5e565b634e487b7160e01b600052602160045260246000fd5b634e487b7160e01b600052601260045260246000fd5b600082614d7b57634e487b7160e01b600052601260045260246000fd5b500690565b634e487b7160e01b600052601160045260246000fd5b8082018082111561033357610333614d80565b634e487b7160e01b600052603260045260246000fd5b60006000198203614dd257614dd2614d80565b5060010190565b600060208284031215614deb57600080fd5b815161251181614a67565b60008151808452602080850194506020840160005b83811015614e2757815187529582019590820190600101614e0b565b509495945050505050565b608081526000614e456080830187614df6565b8281036020840152614e578187614df6565b91505061ffff808516604084015280841660608401525095945050505050565b60008060408385031215614e8a57600080fd5b8251614e9581614a67565b6020840151909250614ea681614a67565b809150509250929050565b60038110614a7557634e487b7160e01b600052602160045260246000fd5b614ed885614eb1565b848152608060208201526000614ef16080830186614df6565b8281036040840152614f038186614df6565b91505082606083015295945050505050565b600080600060608486031215614f2a57600080fd5b835192506020808501519250604085015167ffffffffffffffff811115614f5057600080fd5b8501601f81018713614f6157600080fd5b8051614f6f6149ba8261493a565b81815260059190911b82018301908381019089831115614f8e57600080fd5b928401925b82841015614fac57835182529284019290840190614f93565b80955050505050509250925092565b60006040808301858452602060406020860152818651808452606093506060870191506020880160005b82811015615012578151805185528581015186860152870151878501529285019290840190600101614fe5565b50919998505050505050505050565b60005b8381101561503c578181015183820152602001615024565b50506000910152565b6000815180845261505d816020860160208601615021565b601f01601f19169290920160200192915050565b83815261507d83614eb1565b826020820152606060408201526000612d6e6060830184615045565b80820182811260008312801582168215821617156107d3576107d3614d80565b8381526060602082015260006150d26060830185614df6565b9050826040830152949350505050565b600082601f8301126150f357600080fd5b815167ffffffffffffffff81111561510d5761510d6148a6565b6151206020601f19601f84011601614909565b81815284602083860101111561513557600080fd5b611c3e826020830160208701615021565b60008060006060848603121561515b57600080fd5b835167ffffffffffffffff8082111561517357600080fd5b61517f878388016150e2565b945060208601519350604086015191508082111561519c57600080fd5b50614c54868287016150e2565b85815260a0602082015260006151c260a0830187614df6565b60ff8616604084015282810360608401526151dd8186615045565b9150508260808301529695505050505050565b6000815160208301517fffffffff00000000000000000000000000000000000000000000000000000000808216935060048310156152385780818460040360031b1b83161693505b505050919050565b61524989614eb1565b60f898891b815260018101979097526021870195909552921515861b6041860152604285019190915260628401526082830152151590911b60a282015260a30190565b6000835161529e818460208801615021565b8351908301906152b2818360208801615021565b01949350505050565b85815260a0602082015260006152d460a0830187614df6565b82810360408401526152e68187615045565b905084606084015282810360808401526153008185615045565b98975050505050505050565b6000825161531e818460208701615021565b9190910192915050565b60408152600061533b6040830185615045565b90506001600160a01b03831660208301529392505050565b84815260806020820152600061536c6080830186614df6565b60ff949094166040830152506060015292915050565b60006020828403121561539457600080fd5b5051919050565b8481526080602082015260006153b46080830186614df6565b60ff8516604084015282810360608401526153cf8185615045565b979650505050505050565b600060ff821660ff81036153f0576153f0614d80565b60010192915050565b828152604060208201526000611c3e6040830184615045565b60006020828403121561542457600080fd5b815167ffffffffffffffff81111561543b57600080fd5b611c3e848285016150e2565b7fffff0000000000000000000000000000000000000000000000000000000000008416815260007f3a0000000000000000000000000000000000000000000000000000000000000080600284015284516154a8816003860160208901615021565b8084019050816003820152845191506154c8826004830160208801615021565b0160040195945050505050565b808202811582820484141761033357610333614d80565b8181038181111561033357610333614d80565b8281526000602080830184516020860160005b8281101561552e57815184529284019290840190600101615512565b5091979650505050505050565b60608152600061554e6060830186615045565b60208301949094525060400152919050565b6060815260006155736060830186614df6565b65ffffffffffff8516602084015282810360408401526116598185615045565b8481526080602082015260006155ac6080830186614df6565b65ffffffffffff8516604084015282810360608401526153cf8185615045565b6080815260006155df6080830187614df6565b82810360208401526155f18187615045565b905084604084015282810360608401526153cf8185615045565b86815260c06020820152600061562460c0830188614df6565b82810360408401526156368188615045565b905085606084015282810360808401526156508186615045565b9150508260a0830152979650505050505050565b7fffff00000000000000000000000000000000000000000000000000000000000084168152826020820152606060408201526000612d6e6060830184615045565b64ffffffffff81811683821601908082111561101d5761101d614d80565b87815260e0602082015260006156dc60e0830189614df6565b60ff8816604084015264ffffffffff87811660608501528616608084015260a0830185905282810360c08401526157138185615045565b9a9950505050505050505050565b60c08152600061573460c0830189614df6565b60ff8816602084015265ffffffffffff8716604084015264ffffffffff8616606084015284608084015282810360a08401526157708185615045565b9998505050505050505050565b6000845161578f818460208901615021565b60609490941b7fffffffffffffffffffffffffffffffffffffffff000000000000000000000000169190930190815260148101919091526034019291505056fea2646970667358221220d0e866343ce3ea7092419a780249191efb683701c5aa6e9a88840aa79e80efe164736f6c63430008180033","linkReferences":{}},"methodIdentifiers":{"_msgSender()":"119df25f","_msgValue()":"45ec9354","_world()":"e1af802c","checkForEncounterEnd((uint8,uint256,uint256,bool,uint256,uint256,uint256,bool,bytes32[],bytes32[]))":"1e45d614","createEncounter(uint8,bytes32[],bytes32[])":"2c86e0e2","endEncounter(bytes32,uint256,bool)":"e903546c","endTurn(bytes32,bytes32,(bytes32,bytes32,uint256)[])":"1b3561d3","isAttacker(bytes32,bytes32)":"96eead59","isDefender(bytes32,bytes32)":"1b45e23c","isInEncounter(bytes32)":"fdb4dcd0","isParticipant(address,bytes32[])":"b2467894","isParticipant(bytes32,bytes32)":"c6ca743c","supportsInterface(bytes4)":"01ffc9a7"},"id":223}