{"abi":[{"type":"function","name":"_msgSender","inputs":[],"outputs":[{"name":"sender","type":"address","internalType":"address"}],"stateMutability":"view"},{"type":"function","name":"_msgValue","inputs":[],"outputs":[{"name":"value","type":"uint256","internalType":"uint256"}],"stateMutability":"view"},{"type":"function","name":"_world","inputs":[],"outputs":[{"name":"","type":"address","internalType":"address"}],"stateMutability":"view"},{"type":"function","name":"createEncounter","inputs":[{"name":"encounterType","type":"uint8","internalType":"enum EncounterType"},{"name":"group1","type":"bytes32[]","internalType":"bytes32[]"},{"name":"group2","type":"bytes32[]","internalType":"bytes32[]"}],"outputs":[{"name":"encounterId","type":"bytes32","internalType":"bytes32"}],"stateMutability":"nonpayable"},{"type":"function","name":"endEncounter","inputs":[{"name":"encounterId","type":"bytes32","internalType":"bytes32"},{"name":"randomNumber","type":"uint256","internalType":"uint256"},{"name":"attackersWin","type":"bool","internalType":"bool"}],"outputs":[],"stateMutability":"nonpayable"},{"type":"function","name":"endTurn","inputs":[{"name":"encounterId","type":"bytes32","internalType":"bytes32"},{"name":"playerId","type":"bytes32","internalType":"bytes32"},{"name":"attacks","type":"tuple[]","internalType":"struct Action[]","components":[{"name":"attackerEntityId","type":"bytes32","internalType":"bytes32"},{"name":"defenderEntityId","type":"bytes32","internalType":"bytes32"},{"name":"itemId","type":"uint256","internalType":"uint256"}]}],"outputs":[],"stateMutability":"payable"},{"type":"function","name":"supportsInterface","inputs":[{"name":"interfaceId","type":"bytes4","internalType":"bytes4"}],"outputs":[{"name":"","type":"bool","internalType":"bool"}],"stateMutability":"pure"},{"type":"event","name":"Store_SetRecord","inputs":[{"name":"tableId","type":"bytes32","indexed":true,"internalType":"ResourceId"},{"name":"keyTuple","type":"bytes32[]","indexed":false,"internalType":"bytes32[]"},{"name":"staticData","type":"bytes","indexed":false,"internalType":"bytes"},{"name":"encodedLengths","type":"bytes32","indexed":false,"internalType":"EncodedLengths"},{"name":"dynamicData","type":"bytes","indexed":false,"internalType":"bytes"}],"anonymous":false},{"type":"event","name":"Store_SpliceDynamicData","inputs":[{"name":"tableId","type":"bytes32","indexed":true,"internalType":"ResourceId"},{"name":"keyTuple","type":"bytes32[]","indexed":false,"internalType":"bytes32[]"},{"name":"dynamicFieldIndex","type":"uint8","indexed":false,"internalType":"uint8"},{"name":"start","type":"uint48","indexed":false,"internalType":"uint48"},{"name":"deleteCount","type":"uint40","indexed":false,"internalType":"uint40"},{"name":"encodedLengths","type":"bytes32","indexed":false,"internalType":"EncodedLengths"},{"name":"data","type":"bytes","indexed":false,"internalType":"bytes"}],"anonymous":false},{"type":"event","name":"Store_SpliceStaticData","inputs":[{"name":"tableId","type":"bytes32","indexed":true,"internalType":"ResourceId"},{"name":"keyTuple","type":"bytes32[]","indexed":false,"internalType":"bytes32[]"},{"name":"start","type":"uint48","indexed":false,"internalType":"uint48"},{"name":"data","type":"bytes","indexed":false,"internalType":"bytes"}],"anonymous":false},{"type":"error","name":"AlreadyInEncounter","inputs":[]},{"type":"error","name":"CannotEndTurn","inputs":[]},{"type":"error","name":"EncodedLengths_InvalidLength","inputs":[{"name":"length","type":"uint256","internalType":"uint256"}]},{"type":"error","name":"EncounterAlreadyOver","inputs":[]},{"type":"error","name":"ExpiredEncounter","inputs":[]},{"type":"error","name":"GamePaused","inputs":[]},{"type":"error","name":"InvalidCombatEntity","inputs":[]},{"type":"error","name":"InvalidEncounter","inputs":[]},{"type":"error","name":"InvalidEncounterType","inputs":[]},{"type":"error","name":"InvalidGroupSize","inputs":[]},{"type":"error","name":"InvalidPvE","inputs":[]},{"type":"error","name":"InvalidPvP","inputs":[]},{"type":"error","name":"InvalidShopEncounter","inputs":[]},{"type":"error","name":"InvalidWorldLocation","inputs":[]},{"type":"error","name":"NonCombatant","inputs":[]},{"type":"error","name":"NotCombatEncounter","inputs":[]},{"type":"error","name":"Slice_OutOfBounds","inputs":[{"name":"data","type":"bytes","internalType":"bytes"},{"name":"start","type":"uint256","internalType":"uint256"},{"name":"end","type":"uint256","internalType":"uint256"}]},{"type":"error","name":"Store_IndexOutOfBounds","inputs":[{"name":"length","type":"uint256","internalType":"uint256"},{"name":"accessedIndex","type":"uint256","internalType":"uint256"}]},{"type":"error","name":"Store_InvalidResourceType","inputs":[{"name":"expected","type":"bytes2","internalType":"bytes2"},{"name":"resourceId","type":"bytes32","internalType":"ResourceId"},{"name":"resourceIdString","type":"string","internalType":"string"}]},{"type":"error","name":"Store_InvalidSplice","inputs":[{"name":"startWithinField","type":"uint40","internalType":"uint40"},{"name":"deleteCount","type":"uint40","internalType":"uint40"},{"name":"fieldLength","type":"uint40","internalType":"uint40"}]},{"type":"error","name":"Unauthorized","inputs":[]},{"type":"error","name":"World_AccessDenied","inputs":[{"name":"resource","type":"string","internalType":"string"},{"name":"caller","type":"address","internalType":"address"}]},{"type":"error","name":"World_FunctionSelectorNotFound","inputs":[{"name":"functionSelector","type":"bytes4","internalType":"bytes4"}]},{"type":"error","name":"World_ResourceNotFound","inputs":[{"name":"resourceId","type":"bytes32","internalType":"ResourceId"},{"name":"resourceIdString","type":"string","internalType":"string"}]}],"bytecode":{"object":"0x6080806040523461001757615f9c90816200001c8239f35b5f80fdfe60806040526004361015610011575f80fd5b5f3560e01c806301ffc9a714610084578063119df25f1461007f5780631b3561d31461007a5780632c86e0e21461007557806345ec935414610070578063e1af802c1461006b5763e903546c14610066575f80fd5b61041b565b6103f7565b6103d8565b61036e565b61024d565b6100e6565b346100d85760203660031901126100d85760043563ffffffff60e01b81168091036100d85763b5dee12760e01b81149081156100c7575b50151560805260206080f35b6301ffc9a760e01b149050816100bb565b5f80fd5b5f9103126100d857565b346100d8575f3660031901126100d857602061010061133c565b6040516001600160a01b039091168152f35b634e487b7160e01b5f52604160045260245ffd5b606081019081106001600160401b0382111761014157604052565b610112565b608081019081106001600160401b0382111761014157604052565b6001600160401b03811161014157604052565b604081019081106001600160401b0382111761014157604052565b60a081019081106001600160401b0382111761014157604052565b60e081019081106001600160401b0382111761014157604052565b601f909101601f19168101906001600160401b0382119082101761014157604052565b604051906101f582610146565b565b6040519061014082016001600160401b0381118382101761014157604052565b6040519060c082016001600160401b0381118382101761014157604052565b6001600160401b0381116101415760051b60200190565b6060806003193601126100d8576044356001600160401b0381116100d857366023820112156100d85780600401359061028582610236565b9160409061029660405194856101c5565b80845260209160246060602087019302850101933685116100d857602401915b8483106102ce576102cc86602435600435610616565b005b86833603126100d85783879183516102e581610126565b85358152828601358382015284860135858201528152019201916102b6565b600311156100d857565b9080601f830112156100d857602090823561032881610236565b9361033660405195866101c5565b81855260208086019260051b8201019283116100d857602001905b82821061035f575050505090565b81358152908301908301610351565b346100d85760603660031901126100d85760043561038b81610304565b6001600160401b036024358181116100d8576103ab90369060040161030e565b916044359182116100d8576020926103ca6103d093369060040161030e565b91610bfc565b604051908152f35b346100d8575f3660031901126100d8576020604051601f193601358152f35b346100d8575f3660031901126100d8576020610100612bb5565b801515036100d857565b346100d85760603660031901126100d85760043560443561043b81610411565b610455610449610449612bb5565b6001600160a01b031690565b60405163511600c360e01b81526004810184905290602090829060249082905afa908115610509575f916104da575b5061048e81610538565b801580156104c7575b156104aa57506102cc9160243590611d9b565b600291506104b781610538565b146104be57005b6102cc90611c01565b506104d181610538565b60018114610497565b6104fc915060203d602011610502575b6104f481836101c5565b810190611327565b5f610484565b503d6104ea565b61052d565b908160209103126100d857516001600160a01b03811681036100d85790565b6040513d5f823e3d90fd5b6003111561054257565b634e487b7160e01b5f52602160045260245ffd5b908160209103126100d8575161056b81610411565b90565b908152602081019190915260400190565b634e487b7160e01b5f52601160045260245ffd5b90601e82018092116105a157565b61057f565b90600182018092116105a157565b919082018092116105a157565b9081518082526020808093019301915f5b8281106105e0575050505090565b8351855293810193928101926001016105d2565b6001600160a01b03909116815260406020820181905261056b929101906105c1565b919091610621611353565b61062a81611419565b92610639610449610449612bb5565b604080516313c42aaf60e21b8152600480820185905260209792938890839060249082905afa918215610509575f92610a6c575b50825161067981610538565b61068281610538565b151580610a4e575b610a405787830151158015610a34575b610a26576080830194855160c08501511115610a17576106bb61044961133c565b6001600160a01b038416148015906109b4575b6109a55783516106dd81610538565b6106e681610538565b156106fc575b5050505050506101f592506116d2565b85516001166108bf5761071260a0850151610593565b42106108335788876107479261072c610449610449612bb5565b908851809581948293633a6563a960e21b845289840161056e565b03915afa908115610509575f91610816575b5015610809579161079593918893610120610778610449610449612bb5565b9301519351630c429c8960e11b81529586948593849384016105f4565b03915afa908115610509576101f5955f926107dc575b50506107bf575b505b5f80808080806106ec565b806107cd6107d692516105a6565b809152826114e6565b5f6107b2565b6107fb9250803d10610802575b6107f381836101c5565b810190610556565b5f806107ab565b503d6107e9565b83516282b42960e81b8152fd5b61082d9150893d8b11610802576107f381836101c5565b5f610759565b509796929350829061086f92610100610850610449610449612bb5565b9101518651630c429c8960e11b81529485938492839291838f016105f4565b03915afa918215610509575f926108a2575b50501561089457506101f59293506107b4565b516294117560e21b81528490fd5b6108b89250803d10610802576107f381836101c5565b5f80610881565b6108cc60a0850151610593565b42106109885788876108e69261072c610449610449612bb5565b03915afa908115610509575f9161096b575b5015610809579161091793918893610100610778610449610449612bb5565b03915afa908115610509576101f5955f9261094e575b505061093a575b506107b4565b806107cd61094892516105a6565b5f610934565b6109649250803d10610802576107f381836101c5565b5f8061092d565b6109829150893d8b11610802576107f381836101c5565b5f6108f8565b509796929350829061086f92610120610850610449610449612bb5565b508351632090d0eb60e01b8152fd5b506109c3610449610449612bb5565b8986518092633a6563a960e21b825281806109e18d888a840161056e565b03915afa908115610509575f916109fa575b50156106ce565b610a1191508a3d8c11610802576107f381836101c5565b5f6109f3565b508351630d5bbc5d60e41b8152fd5b835163d8deb7b560e01b8152fd5b5083830151151561069a565b8351636f53077d60e01b8152fd5b5060018351610a5c81610538565b610a6581610538565b141561068a565b610a8d919250883d8a11610a94575b610a8581836101c5565b81019061050e565b905f61066d565b503d610a7b565b634e487b7160e01b5f52603260045260245ffd5b805115610abc5760200190565b610a9b565b8051821015610abc5760209160051b010190565b519061ffff821682036100d857565b91908260409103126100d85761056b6020610afe84610ad5565b9301610ad5565b939291610b2e90610b206040936060885260608801906105c1565b9086820360208801526105c1565b930152565b9290606092610b50610b5e929796976080875260808701906105c1565b9085820360208701526105c1565b9461ffff809216604085015216910152565b949392610b99606093610b2e93610b8681610538565b88526080602089015260808801906105c1565b9086820360408801526105c1565b610bb082610538565b52565b91908260409103126100d85760208251610bcc81610411565b92015161056b81610411565b60405190610be582610146565b606080835f81525f60208201525f60408201520152565b610c04611353565b8151801590811561131c575b506112ff5782518015908115611311575b506112ff57610c34610449610449612bb5565b93610c3d61133c565b9060409182519687630c429c8960e11b918282526020998a918180610c668c89600484016105f4565b03915afa91821561050957899289925f916112e2575b50159384611280575b5050505061127057610c9f610c9985610aaf565b51611770565b9390610caa82610538565b60018203610eae57610cf09484610cc18989611941565b929093610cd2610449610449612bb5565b908351809a8194829363c6d5525b60e01b8452888a60048601610b33565b03915afa958615610509575f905f97610e7c575b5015610e6b5790610d8f9291610d7d86518b810190610d3881610d2a4287898b88610b70565b03601f1981018352826101c5565b51902097610d4e610d476101f7565b9586610ba7565b428c8601525f888601525f6060860152600160808601524260a0860152600f60c086015260e085019015159052565b610100830152610120820152846119b3565b610d97610bd8565b505f5b8451811015610e0257610db6610db08287610ac1565b51611a84565b805115801590610df6575b610de55790610ddf828660019452610dd98389610ac1565b51611afc565b01610d9a565b83516306bc8d7b60e21b8152600490fd5b50808801511515610dc1565b509392505f5b8351811015610e6457610e1e610db08286610ac1565b805115801590610e58575b610e475790610e41828560019452610dd98388610ac1565b01610e08565b82516306bc8d7b60e21b8152600490fd5b50808701511515610e29565b5050925050565b845163adee437160e01b8152600490fd5b9050610e9f919650853d8711610ea7575b610e9781836101c5565b810190610bb3565b95905f610d04565b503d610e8d565b610eb782610538565b81610fb257610ef988610eca8989611941565b979093610edb610449610449612bb5565b908851809581948293632933423f60e01b84528d8a60048601610b33565b03915afa908115610509575f91610f95575b5015610f845790610f7f91845189810190610f2d81610d2a428b878988610b70565b51902095610f43610f3c6101f7565b9384610ba7565b428a8401525f868401525f6060840152600160808401524260a0840152600f60c08401525f60e0840152610100830152610120820152846119b3565b610d8f565b835163a4385cbb60e01b8152600490fd5b610fac9150893d8b11610802576107f381836101c5565b5f610f0b565b50600291969350610fc581969596610538565b036112605761100681610fdc610449610449612bb5565b610fe587610aaf565b519082518080958194638b4ce3e560e01b8352600483019190602083019252565b03915afa908115610509576110709184915f905f92611230575b5061102f610449610449612bb5565b9061103988610aaf565b518651637a451cb960e11b8152600481019190915261ffff9182166024820152921660448301529092839190829081906064820190565b03915afa908115610509575f91611213575b50156112035780518281019061109e81610d2a42888a87610b05565b519020936110b0610449610449612bb5565b6110b982610aaf565b518351630124e45760e71b808252600482019290925290918590829060249082905afa908115610509575f916111e6575b501561115457506110fd61110491610aaf565b5193610aaf565b51925b611110846117a3565b61114457849261056b949261113f926111276101e8565b9285845283015242908201525f6060820152836117c0565b6118f7565b815162769bef60e41b8152600490fd5b8361118d9161116a610449610449989598612bb5565b61117385610aaf565b519186518095819482938352600483019190602083019252565b03915afa908115610509575f916111c9575b50156111b8576110fd6111b191610aaf565b5192611107565b8151636bbd023760e01b8152600490fd5b6111e09150843d8611610802576107f381836101c5565b5f61119f565b6111fd9150853d8711610802576107f381836101c5565b5f6110ea565b51634afb32d960e01b8152600490fd5b61122a9150833d8511610802576107f381836101c5565b5f611082565b90506112529150843d8611611259575b61124a81836101c5565b810190610ae4565b905f611020565b503d611240565b51634f331f7160e01b8152600490fd5b81516282b42960e81b8152600490fd5b6112a89450611293610449610449612bb5565b918751958694859384938452600484016105f4565b03915afa908115610509575f916112c5575b501586865f80610c85565b6112dc9150873d8911610802576107f381836101c5565b5f6112ba565b6112f99150843d8611610802576107f381836101c5565b5f610c7c565b604051632cbdc23160e01b8152600490fd5b600a9150115f610c21565b600a9150115f610c10565b908160209103126100d8575161056b81610304565b36603319013560601c90811561134e57565b339150565b61136361135e6113d9565b612713565b60f81c61136c57565b60405163379a7ed960e01b8152600490fd5b6040519061014082016001600160401b03811183821017610141576040526060610120835f81525f60208201525f60408201525f838201525f60808201525f60a08201525f60c08201525f60e0820152826101008201520152565b604051602081016001600160401b03811182821017610141576040525f8152905f368137565b6040519061140c82610174565b6001825260203681840137565b61142161137e565b5061142a6113ff565b90815115610abc57816114449160206114d7940152612213565b906114d261145394939461137e565b94602081015160f81c9061146682610538565b6021810151906114c2604182015191606181015160f81c906062810151906082810151906114aa8d60e06114a360c260a286015195015160f81c90565b1515910152565b60c08d015260a08c015260808b0152151560608a0152565b6040880152602087015285610ba7565b6133e1565b61012083015261010082015290565b906114ef6113ff565b91825115610abc5760208301526040519060208201526020815261151281610174565b6001600160a01b03611522612bb5565b1691308303611535576101f59250613483565b90823b156100d8576040516301c85d5760e51b81525f80516020615f7c833981519152600482015260a06024820152925f92849283918591839161159b91906115829060a48501906105c1565b600460448501528381036003190160648501529061168f565b6aa30802012020012020200160a01b608483015203925af18015610509576115c1575b50565b806115ce6101f592610161565b806100dc565b906040808301918352602090604060208501528451809352602060608095019501935f915b8483106116095750505050505090565b85518051885280850151888601528101518782015295810195948301946001909201916115f9565b5f5b8381106116425750505f910152565b8181015183820152602001611633565b90606051918281525f5b83811061167b5750825f602080949584010152601f8019910116010190565b80602091608001518282850101520161165c565b906020916116a881518092818552858086019101611631565b601f01601f1916010190565b60609061056b9392815260026020820152816040820152019061168f565b815115610abc5760209182810151516116e96113ff565b93845115610abc5761175f61176b936117218761173095856115be9a015260405190428683015285825261171c82610174565b61251d565b604051938491878584016115d4565b0392611744601f19948581018352826101c5565b604051958693632caa982960e21b90850152602484016116b4565b039081018352826101c5565b612660565b6117786113ff565b805115610abc5761178d9160208201526122d4565b5050906022602083015160f01c92015160f01c90565b6117ab6113ff565b805115610abc5761056b9160208201526127ce565b8151916020810151906060604082015191015191604051946020860152604085015260608401526080830152608082526117f98261018f565b6118016113ff565b90815115610abc5760208201526001600160a01b0361181e612bb5565b163081036118315750906101f591613af6565b90813b156100d8575f9161188a8361189d936118b26040519788968795869463298314fb60e01b86526f576f726c64456e636f756e7465720000631d18955160e21b01600487015260a0602487015260a48601906105c1565b600319928386830301604487015261168f565b90846064850152838203016084840152611652565b03925af18015610509576115c15750565b6118cb6113ff565b805115610abc576101f5916020820152604051905f6020830152602082526118f282610174565b6125cf565b906119006113ff565b805115610abc576101f5926020820152604051916020830152602082526118f282610174565b9190915f83820193841291129080158216911516176105a157565b5f92918390815b83518610156119785761197060019161196a6119648988610ac1565b51612b16565b90611926565b950194611948565b94509190925f935b83518510156119a45761199c60019161196a6119648888610ac1565b940193611980565b9194909350121561056b579190565b6101f59180516119c281610538565b6020820151604083015160608401511515608085015160a08601519160c08701519360e0880151151595604051976119f981610538565b60f81b60208901526021880152604187015260f81b60618601526062850152608284015260a283015260f81b60c282015260a38152611a37816101aa565b611a6b610120610100840151930151611a6581855190518060651b9180603d1b9160051b9060051b01171790565b93612b33565b92611a746113ff565b90611a7e82610aaf565b52612a10565b611a8c610bd8565b50611a956113ff565b90815115610abc57611aef611ab883611af493602064ffffffffff960152612364565b919490611ac3610bd8565b956020810151906041604082015160f81c910151604089015215156020880152865260381c1690614583565b615335565b606082015290565b60608251926020810151151560408201519060405195602087015260f81b6040860152604185015260418452611b3184610146565b0151611b47815180603d1b9060051b1791612b83565b91611b506113ff565b90611b5a82610aaf565b526001600160a01b03611b6b612bb5565b16308103611b7e5750926101f593613d07565b909192813b156100d8575f611bed936118b28296611bda94604051998a988997889663298314fb60e01b88526f456e636f756e746572456e7469747900631d18955160e21b01600489015260a0602489015260a48801906105c1565b600319928388830301604489015261168f565b92606486015284830301608485015261168f565b611c09612bea565b50611c126113ff565b805115610abc5780826020611c289301526123ee565b505090611c33612bea565b9060208301519260408101519360806060830151920151906060850195828752836040870152602086015284521590811591611c97575b50611c85576101f592429052611c8082516118c3565b6117c0565b60405163d8deb7b560e01b8152600490fd5b9050155f611c6a565b6040519060c082016001600160401b0381118382101761014157604052606060a0835f81525f60208201525f60408201525f838201525f60808201520152565b90916060828403126100d8578151926020808401519360408101519060018060401b0382116100d857019180601f840112156100d8578251611d2181610236565b93611d2f60405195866101c5565b818552838086019260051b8201019283116100d8578301905b828210611d56575050505090565b81518152908301908301611d48565b93959491611d8290610b206080959360a0885260a08801906105c1565b9561ffff80921660408601521660608401521515910152565b9091611da682611419565b611daf83612c0e565b61215c57611dbd4284612c2b565b6040924284830152611dcd611ca0565b50815194611dda86610538565b611de386610538565b60019586036120bd57905f611e1f819493611e02610449610449612bb5565b9088519687809481936349572ff160e01b8352886004840161056e565b03925af19081156105095786935f925f915f91612094575b50909291925b611e45610217565b4281528715156020820152925f898501526060840152608083015260a0820152611e6d6113d9565b915f6101208501955b611fe1575b50875f936101008601995b611f1d575b5050611e979250612ee3565b611ea4610c998351610aaf565b95909315611ef657611ecb60e0611ebf610449610449612bb5565b94519251930151151590565b90833b156100d8576118b25f9692879351988997889687956356a7f4bb60e11b875260048701611d65565b91611ecb611f1960e0611f0d610449610449612bb5565b95519351940151151590565b1590565b8951948551811015611fdb57611f368184959697610ac1565b51611f40816118c3565b611f4a8382612ce0565b611f5381612d6e565b611f63575b508201949392611e86565b909250611f74610449610449612bb5565b92833b156100d8578a5163f547ccbd60e01b815260048101839052935f908590602490829084905af19384156105095783869593611fc2928795611fc8575b50611fbd81612d91565b612e49565b90611f58565b806115ce611fd592610161565b5f611fb3565b50611e8b565b8886949293945180518310156120895782611ffb91610ac1565b51612005816118c3565b61200f8482612ce0565b61201881612d6e565b61202b575b508091019093929193611e76565b905061203b610449610449612bb5565b91823b156100d857895163f547ccbd60e01b815260048101839052925f908490602490829084905af192831561050957848c9493612083928695611fc85750611fbd81612d91565b9161201d565b505092919092611e7b565b9150506120b49192503d805f833e6120ac81836101c5565b810190611ce0565b9192915f611e37565b82516120c881610538565b6120d181610538565b61214b57905f6121088194936120eb610449610449612bb5565b9088519687809481936312f316c160e11b8352886004840161056e565b03925af19081156105095786935f925f915f9161212a575b5090929192611e3d565b9150506121429192503d805f833e6120ac81836101c5565b9192915f612120565b8451634f331f7160e01b8152600490fd5b6040516308f8364b60e01b8152600490fd5b6001600160401b03811161014157601f01601f191660200190565b81601f820112156100d857805161219f8161216e565b926121ad60405194856101c5565b818452602082840101116100d85761056b9160208085019101611631565b90916060828403126100d85781516001600160401b0392908381116100d857846121f6918301612189565b9360208201519360408301519081116100d85761056b9201612189565b6001600160a01b03612223612bb5565b1630810361223c575061223590613092565b9192909190565b60405163419b58fd60e01b81525f80516020615f7c83398151915260048201526060602482015292915f9184918290819061227b9060648301906105c1565b6aa30802012020012020200160a01b604483015203915afa908115610509575f80935f936122aa575b50929190565b919350506122ca91503d805f833e6122c281836101c5565b8101906121cb565b929092915f6122a4565b6001600160a01b036122e4612bb5565b163081036122f657506122359061313c565b60405163419b58fd60e01b8152672837b9b4ba34b7b760411b631d18955160e21b0160048201526060602482015292915f9184918290819061233c9060648301906105c1565b64020100010160d11b604483015203915afa908115610509575f80935f936122aa5750929190565b6001600160a01b03612374612bb5565b16308103612386575061223590613201565b60405163419b58fd60e01b81525f80516020615efc83398151915260048201526060602482015292915f918491829081906123c59060648301906105c1565b6502081809000960cd1b604483015203915afa908115610509575f80935f936122aa5750929190565b6001600160a01b036123fe612bb5565b163081036124105750612235906132ba565b60405163419b58fd60e01b81526f576f726c64456e636f756e7465720000631d18955160e21b0160048201526060602482015292915f9184918290819061245b9060648301906105c1565b660400200101010160c51b604483015203915afa908115610509575f80935f936122aa5750929190565b6001600160a01b03612495612bb5565b163081036124a7575061223590613314565b60405163419b58fd60e01b81526f46756e6374696f6e53656c6563746f72661d189ddbdc9b1960ca1b0160048201526060602482015292915f918491829081906124f59060648301906105c1565b64090080080160d21b604483015203915afa908115610509575f80935f936122aa5750929190565b906001600160a01b0361252e612bb5565b1691308303612541576101f592506134d2565b90823b156100d8576040516301c85d5760e51b81526b29b2b9b9b4b7b72a34b6b2b960211b631d18955160e21b01600482015260a06024820152925f9284928391859183916125b191906125999060a48501906105c1565b9084604485015260031984830301606485015261168f565b630100080160dd1b608483015203925af18015610509576115c15750565b906001600160a01b036125e0612bb5565b16913083036125f3576101f5925061492d565b90823b156100d8576040516301c85d5760e51b81525f80516020615efc833981519152600482015260a06024820152925f92849283918591839161264091906125999060a48501906105c1565b6502081809000960cd1b608483015203925af18015610509576115c15750565b80516020820180516001600160e01b0319949392859182811691600481106126ee575b5050905061268f6113ff565b805115610abc57856126a692166020820152612485565b5050906040602083015192015182156126d35781516001600160e01b031617905291925061056b9161385a565b604051637eef2a7160e11b81525f3587166004820152602490fd5b8391925060040360031b1b161684905f80612683565b908160209103126100d8575190565b6001600160a01b03612723612bb5565b16308103612739575061273590614aac565b5490565b604051638c364d5960e01b81526514185d5cd95960521b631d18955160e21b016004820152608060248201529160209183918290819061277d9060848301906105c1565b5f6044830152630101000160d81b606483015203915afa908115610509575f916127a5575090565b61056b915060203d6020116127c7575b6127bf81836101c5565b810190612704565b503d6127b5565b6001600160a01b036127de612bb5565b163081036127f0575061273590614b23565b604051638c364d5960e01b81525f80516020615efc8339815191526004820152608060248201529160209183918290819061282f9060848301906105c1565b5f60448301526502081809000960cd1b606483015203915afa908115610509575f916127a5575090565b6001600160a01b03612869612bb5565b1630810361287b575061056b9061398c565b604051638c364d5960e01b815264537461747360581b631d18955160e21b01600482015260806024820152916020918391829081906128be9060848301906105c1565b600160448301526fe60d002020012020202020010101010160781b606483015203915afa908115610509575f916127a5575090565b6001600160a01b03612903612bb5565b16308103612915575061056b90613a4a565b604051638c364d5960e01b81525f80516020615f7c833981519152600482015260806024820152916020918391829081906129549060848301906105c1565b600260448301526aa30802012020012020200160a01b606483015203915afa908115610509575f916127a5575090565b6001600160a01b03612994612bb5565b163081036129a6575061056b90613a83565b604051638c364d5960e01b81525f80516020615efc833981519152600482015260806024820152916020918391829081906129e59060848301906105c1565b600160448301526502081809000960cd1b606483015203915afa908115610509575f916127a5575090565b909291906001600160a01b03612a24612bb5565b16308103612a375750926101f593613f5e565b909192813b156100d8575f611bed936118b28296611bda94604051998a988997889663298314fb60e01b88526f436f6d626174456e636f756e74657200631d18955160e21b01600489015260a0602489015260a48801906105c1565b909291906001600160a01b03612aa7612bb5565b16308103612aba5750926101f593614189565b909192813b156100d8575f611bed936118b28296611bda94604051998a988997889663298314fb60e01b88526f436f6d6261744f7574636f6d65000000631bdd155160e21b01600489015260a0602489015260a48801906105c1565b612b1e6113ff565b805115610abc5761056b916020820152612859565b6020612b4a612b4461056b936141fa565b936141fa565b926040519381612b638693518092868087019101611631565b8201612b7782518093868085019101611631565b010380845201826101c5565b612b8c906141fa565b61056b602060405183612ba88295518092858086019101611631565b81010380845201826101c5565b7f629a4c26e296b22a8e0856e9f6ecb2d1008d7e00081111962cd175fa7488e175546001600160a01b03168061056b57503390565b60405190612bf782610146565b5f6060838281528260208201528260408201520152565b612c166113ff565b805115610abc5761056b9160208201526128f3565b90612c346113ff565b91825115610abc57602083015260405190602082015260208152612c5781610174565b6001600160a01b03612c67612bb5565b1691308303612c7a576101f59250613803565b90823b156100d8576040516301c85d5760e51b81525f80516020615f7c833981519152600482015260a06024820152925f92849283918591839161159b9190612cc79060a48501906105c1565b600260448501528381036003190160648501529061168f565b612ce86113ff565b91825115610abc57612cfe9160208401526141fa565b6001600160a01b03612d0e612bb5565b1691308303612d21576101f59250614dc9565b90823b156100d8576040516377b7543160e11b81525f80516020615efc833981519152600482015260806024820152925f9284928391859183916118b291906125999060848501906105c1565b612d766113ff565b805115610abc57612d8b916020820152612984565b60f81c90565b612d996113ff565b90815115610abc576020820152604051600160f81b602082015260018152612dc081610174565b6001600160a01b03612dd0612bb5565b1691308303612de3576101f5925061366f565b90823b156100d8576040516301c85d5760e51b81525f80516020615efc833981519152600482015260a06024820152925f9284928391859183916126409190612e309060a48501906105c1565b600160448501528381036003190160648501529061168f565b612e516113ff565b91825115610abc57612e679160208401526141fa565b6001600160a01b03612e77612bb5565b1691308303612e8a576101f59250614ff4565b90823b156100d8576040516377b7543160e11b81526f576f726c645374617475734566666563631d18955160e21b01600482015260806024820152925f9284928391859183916118b291906125999060848501906105c1565b6101f59160a0815191602081015115156040820151151560608301519060808401519260405196602088015260f81b604087015260f81b60418601526042850152606284015260628352612f368361018f565b015190612f52612f4c835160051b8060381b1790565b92612b83565b92612f5b6113ff565b90612f6582610aaf565b52612a93565b90612f758261216e565b612f8260405191826101c5565b8281528092612f93601f199161216e565b0190602036910137565b60ff1660ff81146105a15760010190565b604080516653797374656d7360481b661d189ddbdc9b1960ca1b01602080830191825284515f956060959294939284019190850190875b81811061307e57505050918093920392613007601f19948581018352826101c5565b5190205f80516020615edc8339815191521890604051928060548501166040526015845281840192916015915b818310156130665750508061304a575b50505092565b5f199060031b1c908183511691199054161790525f8080613044565b81600185839495979654875201940194019190613034565b825184529286019291860191600101612fe5565b6130a361309e82614b8c565b6151de565b9160405160208101906130ba81610d2a86856142ac565b5190205f80516020615f5c83398151915218546130df66ffffffffffffff8216612f6b565b9260208401945f955b60ff871660028110156131335761311a8264ffffffffff8761310a8c8961443e565b946028026038011c168093614539565b81018091116105a15761312d9096612f9d565b956130e8565b50509450509190565b60408051672837b9b4ba34b7b760411b631d18955160e21b01602080830191825284515f956060959294939284019190850190875b8181106131ed57505050918093920392613193601f19948581018352826101c5565b5190205f80516020615edc8339815191521890604051928060438501166040526004845281840192916004915b818310156131d55750508061304a5750505092565b816001858394959796548752019401940191906131c0565b825184529286019291860191600101613171565b61321261320d82614ba1565b615248565b9161321c826152b7565b5461322f66ffffffffffffff8216612f6b565b926020808501955f965b60ff881660018110156132b0576132978264ffffffffff885f80516020615f3c8339815191528d8a610d2a6132778c604051928391820194856142eb565b5190209060ff60f81b9060f81b161818946028026038011c168093614539565b81018091116105a1576132aa9097612f9d565b96613239565b5050955050509190565b5f906132c7606091614bb6565b604051906020601f198060bf850116604052608084526020840192916080915b818310156132fc5750508061304a5750505092565b816001858394959796548752019401940191906132e7565b604080516f46756e6374696f6e53656c6563746f72661d189ddbdc9b1960ca1b01602080830191825284515f956060959294939284019190850190875b8181106133cd57505050918093920392613373601f19948581018352826101c5565b5190205f80516020615edc8339815191521890604051928060638501166040526024845281840192916024915b818310156133b55750508061304a5750505092565b816001858394959796548752019401940191906133a0565b825184529286019291860191600101613351565b919064ffffffffff808460381c16906133fd611aef8385614583565b9460601c168101918282118015613479575b6134445790816020828194010192839101116105a15782039182116105a15761056b9160018060801b03169060801b17615335565b6040516323230fa360e01b8152606060048201529283929161346a90606485019061168f565b91602484015260448301520390fd5b508051831161340f565b91905f925f5b600481106134a5575065ffffffffffff6101f5939416906147a8565b9360ff6aa30802012020012020200160a01b86601b0360031b1c1681018091116105a15793600101613489565b91906134dd83614bcb565b916134e6615531565b905f5b825181101561358d5761351d6135106135028386610ac1565b516001600160581b03191690565b6001600160581b03191690565b9060049182808260581c1614613539575b5060019150016134e9565b60601c803b156100d857855f918983613567966040519788958694859363964f667d60e01b855284016146a7565b03925af1918215610509576001921561352e57806115ce61358792610161565b5f61352e565b50604080519194909392916135db9184916b29b2b9b9b4b7b72a34b6b2b960211b631d18955160e21b01905f80516020615ebc83398151915290806135d3868d8361464b565b0390a2615882565b5f5b8151811015613667576135f66135106135028385610ac1565b6008808260581c161461360d575b506001016135dd565b60601c90813b156100d857845163a8ba872160e01b8152915f90839081838161363a8a8e600484016146a7565b03925af191821561050957600192613654575b5090613604565b806115ce61366192610161565b5f61364d565b505050509050565b91909165ffffffffffff6136816145d8565b1661368b82614ba1565b6136936157d8565b905f5b8251811015613720576136af6135106135028386610ac1565b9060049182808260581c16146136cb575b506001915001613696565b60601c803b156100d857855f9188838c966136fa6040519889968795869463964f667d60e01b8652850161476c565b03925af191821561050957600192156136c057806115ce61371a92610161565b5f6136c0565b5094919061376d8383604098875f80516020615ebc8339815191526040518061376587876f456e636f756e746572456e7469747900631d18955160e21b019684614676565b0390a26158de565b5f5b81518110156137fa576137886135106135028385610ac1565b6008808260581c161461379f575b5060010161376f565b60601c90813b156100d857875163a8ba872160e01b8152915f9083908183816137cd8b8b8e6004850161476c565b03925af1918215610509576001926137e7575b5090613796565b806115ce6137f492610161565b5f6137e0565b50505050509050565b906101f59165ffffffffffff61381761460f565b16906147a8565b906020828203126100d85781516001600160401b0381116100d85761056b9201612189565b60409061056b93928152816020820152019061168f565b906001600160a01b0361386b612bb5565b168030146138c857905f91613897938360405180968195829463075cf5e160e31b845260048401613843565b03925af1908115610509575f916138ac575090565b61056b91503d805f833e6138c081836101c5565b81019061381e565b506138d161133c565b916138da6113ff565b805115610abc57808260206138f0930152612fae565b5050906034602083015160601c92015160f81c82156139615715613952575b60101b6001600160901b0319166139385761392992615aa2565b905b156139335790565b614aa4565b906139469161394c93615a7d565b90151591565b9061392b565b61395c84826159ce565b61390f565b5061396b81615911565b604051637df8867360e11b81529182916139889160048401613843565b0390fd5b604051602081602081019364537461747360581b631d18955160e21b0185526040820160208251919201935f5b828110613a33575050506139d6925003601f1981018352826101c5565b5190205f80516020615edc833981519152185f80915b600183106139fe5761056b9250614c33565b9060ff6fe60d002020012020202020010101010160781b84601b0360031b1c1681018091116105a157600190920191906139ec565b8551845294810194869450928101926001016139b9565b61056b90604051613a6381610d2a6020820194856142ac565b5190205f80516020615edc83398151915218613a7d61460f565b90614c33565b604051613a9881610d2a6020820194856142eb565b5190205f80516020615edc83398151915218613ab26145d8565b90806020831015613ae5575b5080548260031b1b916020039081600111613ad857505090565b600101549060031b1c1790565b601f83169260051c0190505f613abe565b60408051655461626c657360501b66746273746f726560c81b01602082019081526f576f726c64456e636f756e7465720000631d18955160e21b018284018190528383529295929491613b4881610126565b5190205f80516020615edc833981519152185491613b646155da565b905f5b8251811015613bf257613b806135106135028386610ac1565b6001808260581c1614613b97575b50600101613b67565b60601c90813b156100d85788516315c19b2760e21b8152915f908390818381613bc58c8c8f60048501614cce565b03925af191821561050957600192613bdf575b5090613b8e565b806115ce613bec92610161565b5f613bd8565b50945f80516020615f1c833981519152875180613c10868983614c64565b0390a2613c2b613c1f85614bb6565b83516020850191615af7565b60ff808460e01c1680613cc8575b50505f5b81518110156137fa57613c566135106135028385610ac1565b6002808260581c1614613c6d575b50600101613c3d565b60601c90813b156100d8578751635b28cdaf60e01b8152915f908390818381613c9b8b8b8e60048501614cce565b03925af191821561050957600192613cb5575b5090613c64565b806115ce613cc292610161565b5f613cae565b5f613cd2876152f6565b555f60805b8284831610613ce7575050613c39565b600181613cfe8693613cf9868d6144ca565b615ac2565b92011690613cd7565b60408051655461626c657360501b66746273746f726560c81b01602082019081525f80516020615efc83398151915282840181905283835296979295949291613d4f81610126565b5190205f80516020615edc833981519152185490613d6b615684565b905f5b8251811015613dfe57613d876135106135028386610ac1565b6001808260581c1614613d9e575b50600101613d6e565b60601c90813b156100d8575f888c9388838b613dd18f8c9051998a97889687956315c19b2760e21b875260048701614d2c565b03925af191821561050957600192613deb575b5090613d95565b806115ce613df892610161565b5f613de4565b50965f80516020615f1c833981519152875180613e1e8c8a898b85614ca0565b0390a2613e39613e2d85614ba1565b84516020860191615af7565b60ff808360e01c1680613ee5575b50505f5b8151811015613eda57613e646135106135028385610ac1565b6002808260581c1614613e7b575b50600101613e4b565b60601c90813b156100d8575f878b9387838a613ead8a8f51998a9788968795635b28cdaf60e01b875260048701614d2c565b03925af191821561050957600192613ec7575b5090613e72565b806115ce613ed492610161565b5f613ec0565b505050505050509050565b9690989295949385613ef9869a949a61530b565b555f96602085015b8b8916908a821015613f4b57613f428d9282613f3d60019464ffffffffff8f8f908f90613f2d916144ef565b956028026038011c168094615af7565b6105b4565b99011697613f01565b5050939950939495509550955f80613e47565b60408051655461626c657360501b66746273746f726560c81b01602082019081525f80516020615f7c83398151915282840181905283835296979295949291613fa681610126565b5190205f80516020615edc833981519152185490613fc261572e565b905f5b825181101561405557613fde6135106135028386610ac1565b6001808260581c1614613ff5575b50600101613fc5565b60601c90813b156100d8575f888c9388838b6140288f8c9051998a97889687956315c19b2760e21b875260048701614d8b565b03925af191821561050957600192614042575b5090613fec565b806115ce61404f92610161565b5f61403b565b50965f80516020615f1c8339815191528751806140758c8a898b85614ca0565b0390a2614084613e2d85614b8c565b60ff808360e01c1680614125575b50505f5b8151811015613eda576140af6135106135028385610ac1565b6002808260581c16146140c6575b50600101614096565b60601c90813b156100d8575f878b9387838a6140f88a8f51998a9788968795635b28cdaf60e01b875260048701614d8b565b03925af191821561050957600192614112575b50906140bd565b806115ce61411f92610161565b5f61410b565b9690989295949385614139869a949a615320565b555f96602085015b8b8916908a8210156141765761416d8d9282613f3d60019464ffffffffff8f8f908f90613f2d91614514565b99011697614141565b5050939950939495509550955f80614092565b60408051655461626c657360501b66746273746f726560c81b0160208201526f436f6d6261744f7574636f6d65000000631bdd155160e21b0181830181905291815290945f80516020615f1c833981519152946141f5926141e990610126565b60405194859485614ca0565b0390a2565b80518060051b602091808204602014811517156105a15790604051936020850191601f19603f8288010116604052855260205f9101905b83811061424057505050505090565b815183529184019190840190600101614231565b919082039182116105a157565b6953746f7265486f6f6b7360301b66746273746f726560c81b01815281516020918201928201915f5b828110614298575050505090565b83518552938101939281019260010161428a565b5f80516020615f7c833981519152815281516020918201928201915f5b8281106142d7575050505090565b8351855293810193928101926001016142c9565b5f80516020615efc833981519152815281516020918201928201915f5b828110614316575050505090565b835185529381019392810192600101614308565b6f576f726c645374617475734566666563631d18955160e21b01815281516020918201928201915f5b828110614361575050505090565b835185529381019392810192600101614353565b6f576f726c64456e636f756e7465720000631d18955160e21b01815281516020918201928201915f5b8281106143ac575050505090565b83518552938101939281019260010161439e565b5f80516020615efc833981519152815281516020918201928201915f5b8281106143eb575050505090565b8351855293810193928101926001016143dd565b5f80516020615f7c833981519152815281516020918201928201915f5b82811061442a575050505090565b83518552938101939281019260010161441c565b905f80516020615f3c8339815191529160405161446381610d2a6020820194856142ac565b51902060f89190911b6001600160f81b031916181890565b5f80516020615f3c8339815191529060405161449f81610d2a6020820194856142eb565b5190201890565b5f80516020615f3c8339815191529060405161449f81610d2a60208201948561432a565b905f80516020615f3c8339815191529160405161446381610d2a602082019485614375565b905f80516020615f3c8339815191529160405161446381610d2a6020820194856143c0565b905f80516020615f3c8339815191529160405161446381610d2a6020820194856143ff565b9291925b60209081831061455d5780548552930192601f199091019060010161453d565b9190509291928061456d57505050565b5f199060031b1c90818351169119905416179052565b90815181116145a2576001600160801b031660209190910160801b1790565b6040516323230fa360e01b815260606004820152925082916145c890606484019061168f565b905f602484015260448301520390fd5b5f805b600181106145e7575090565b9060ff6502081809000960cd1b83601b0360031b1c1681018091116105a157906001016145db565b5f805b6002811061461e575090565b9060ff6aa30802012020012020200160a01b83601b0360031b1c1681018091116105a15790600101614612565b909161466261056b936060845260608401906105c1565b915f6020820152604081840391015261168f565b65ffffffffffff61469361056b95936060845260608401906105c1565b93166020820152604081840391015261168f565b6b29b2b9b9b4b7b72a34b6b2b960211b631d18955160e21b01815260806020820181905261056b9391926146dd918401906105c1565b915f6040820152606081840391015261168f565b65ffffffffffff61472d61056b95936f436f6d626174456e636f756e74657200631d18955160e21b0184526080602085015260808401906105c1565b93166040820152606081840391015261168f565b5f80516020615efc833981519152815260806020820181905261056b9391926146dd918401906105c1565b65ffffffffffff61472d61056b95936f456e636f756e746572456e7469747900631d18955160e21b0184526080602085015260808401906105c1565b909291926147b582614b8c565b6147bd61572e565b905f5b825181101561484a576147d96135106135028386610ac1565b9060049182808260581c16146147f5575b5060019150016147c0565b60601c803b156100d857855f9188838c966148246040519889968795869463964f667d60e01b865285016146f1565b03925af191821561050957600192156147ea57806115ce61484492610161565b5f6147ea565b509491906148a0836040976040515f80516020615ebc8339815191526f436f6d626174456e636f756e74657200631d18955160e21b01918061488e868a8d84614676565b0390a265ffffffffffff8516906158de565b5f5b81518110156137fa576148bb6135106135028385610ac1565b6008808260581c16146148d2575b506001016148a2565b60601c90813b156100d857875163a8ba872160e01b8152915f9083908183816149008b8b8e600485016146f1565b03925af19182156105095760019261491a575b50906148c9565b806115ce61492792610161565b5f614913565b919061493883614ba1565b916149416157d8565b905f5b82518110156149cd5761495d6135106135028386610ac1565b9060049182808260581c1614614979575b506001915001614944565b60601c803b156100d857855f9189836149a7966040519788958694859363964f667d60e01b85528401614741565b03925af1918215610509576001921561496e57806115ce6149c792610161565b5f61496e565b50929190614a18826040946040515f80516020615ebc8339815191526f456e636f756e746572456e7469747900631d18955160e21b019180614a10868d8361464b565b0390a2615891565b5f5b815181101561366757614a336135106135028385610ac1565b6008808260581c1614614a4a575b50600101614a1a565b60601c90813b156100d857845163a8ba872160e01b8152915f908390818381614a778a8e60048401614741565b03925af191821561050957600192614a91575b5090614a41565b806115ce614a9e92610161565b5f614a8a565b602081519101fd5b60405160208160208101936514185d5cd95960521b631d18955160e21b0185526040820160208251919201935f5b828110614b0c57505050614af7925003601f1981018352826101c5565b5190205f80516020615edc8339815191521890565b855184529481019486945092810192600101614ada565b60405160208160208101936f456e636f756e746572456e7469747900631d18955160e21b0185526040820160208251919201935f5b828110614b7557505050614af7925003601f1981018352826101c5565b855184529481019486945092810192600101614b58565b604051614af781610d2a6020820194856143ff565b604051614af781610d2a6020820194856143c0565b604051614af781610d2a602082019485614375565b60405160208160208101936b29b2b9b9b4b7b72a34b6b2b960211b631d18955160e21b0185526040820160208251919201935f5b828110614c1c57505050614af7925003601f1981018352826101c5565b855184529481019486945092810192600101614bff565b6020821015614c56575b80548260031b1b916020039081602011613ad857505090565b601f82169160051c01614c3d565b9061056b92614c7e614c8c926080855260808501906105c1565b90838203602085015261168f565b905f60408201526060818303910152611652565b9061056b9492614c7e614cbb926080855260808501906105c1565b926040820152606081840391015261168f565b939291614d19610b2e91614d0b60a0946f576f726c64456e636f756e7465720000631d18955160e21b01895260c060208a015260c08901906105c1565b90878203604089015261168f565b5f60608701528581036080870152611652565b959493614d78610b2e93614d6a60a096946f456e636f756e746572456e7469747900631d18955160e21b018b5260c060208c015260c08b01906105c1565b9089820360408b015261168f565b916060880152868203608088015261168f565b959493614d78610b2e93614d6a60a096946f436f6d626174456e636f756e74657200631d18955160e21b018b5260c060208c015260c08b01906105c1565b919091614dd5816152b7565b5464ffffffffff8160381c16614df6614dee8280614254565b8651906105b4565b8181141594908580614fd5575b614fa957614e119084615d48565b90614e1a61538a565b915f5b8351811015614eac57614e366135106135028387610ac1565b6010808260581c1614614e4d575b50600101614e1d565b60601c90813b156100d8575f878b9388838c614e7f60405198899687958694630abd6b4560e31b865260048601615bbd565b03925af191821561050957600192614e99575b5090614e44565b806115ce614ea692610161565b5f614e92565b506040805192979195509392915f80516020615efc833981519152905f80516020615e9c8339815191529080614ee58c8a898d85615c5e565b0390a2614f99575b614eff87614efa8761447b565b615882565b5f5b8151811015614f8f57614f1a6135106135028385610ac1565b6020808260581c1614614f31575b50600101614f01565b60601c90813b156100d8575f868a9386838b614f628b5198899687958694636358453360e01b865260048601615bbd565b03925af191821561050957600192614f7c575b5090614f28565b806115ce614f8992610161565b5f614f75565b5050505050509050565b83614fa3866152b7565b55614eed565b604051632994042d60e21b81525f600482015264ffffffffff8416602482018190526044820152606490fd5b5082614fed614fe382615baa565b64ffffffffff1690565b1415614e03565b919091615000816152e1565b5464ffffffffff8160381c16615019614dee8280614254565b81811415949085806151c9575b614fa9576150349084615d48565b9061503d615487565b915f5b83518110156150cf576150596135106135028387610ac1565b6010808260581c1614615070575b50600101615040565b60601c90813b156100d8575f878b9388838c6150a260405198899687958694630abd6b4560e31b865260048601615c20565b03925af1918215610509576001926150bc575b5090615067565b806115ce6150c992610161565b5f6150b5565b506040805192979195509392916f576f726c645374617475734566666563631d18955160e21b01905f80516020615e9c83398151915290806151148c8a898d85615c5e565b0390a26151b9575b61512987614efa876144a6565b5f5b8151811015614f8f576151446135106135028385610ac1565b6020808260581c161461515b575b5060010161512b565b60601c90813b156100d8575f868a9386838b61518c8b5198899687958694636358453360e01b865260048601615c20565b03925af1918215610509576001926151a6575b5090615152565b806115ce6151b392610161565b5f61519f565b836151c3866152e1565b5561511c565b50826151d7614fe382615baa565b1415615026565b604051906020601f198060e285011660405260a3845260208401929160a3915b8183101561523057505080615214575b50505090565b5f199060031b1c908183511691199054161790525f808061520e565b816001858394959796548752019401940191906151fe565b604051906020601f19806080850116604052604184526020840192916041915b8183101561527d575050806152145750505090565b81600185839495979654875201940194019190615268565b61056b9060405192601f19603f82860101166040528084526020840191614539565b6040516152cc81610d2a6020820194856142eb565b5190205f80516020615f5c8339815191521890565b6040516152cc81610d2a60208201948561432a565b6040516152cc81610d2a602082019485614375565b6040516152cc81610d2a6020820194856143c0565b6040516152cc81610d2a6020820194856143ff565b6040805160206020600160801b0384168201810190925260016001607b1b03600584901c1680825290939260801c8285015f5b838110615376575050505050565b825182529184019190840190600101615368565b6153926113ff565b805115610abc576154396154316020926f456e636f756e746572456e7469747900631d18955160e21b018482015264ffffffffff604051915f80516020615f3c833981519152868401846153e68483614261565b03946153fa601f19968781018352826101c5565b5190201892615414604051918261175f8a82019586614261565b5190205f80516020615f5c833981519152185460381c1690615295565b805190614583565b8060801c916015809260018060801b0316049060405193818501828460051b8701016040528386525f5b8481106154735750505050505090565b825182529185019190830190600101615463565b61548f6113ff565b805115610abc576154e36154316020926f576f726c645374617475734566666563631d18955160e21b018482015264ffffffffff604051915f80516020615f3c833981519152868401846153e68483614261565b8060801c916015809260018060801b0316049060405193818501828460051b8701016040528386525f5b84811061551d5750505050505090565b82518252918501919083019060010161550d565b6155396113ff565b805115610abc5761558c6154316020926b29b2b9b9b4b7b72a34b6b2b960211b631d18955160e21b018482015264ffffffffff604051915f80516020615f3c833981519152868401846153e68483614261565b8060801c916015809260018060801b0316049060405193818501828460051b8701016040528386525f5b8481106155c65750505050505090565b8251825291850191908301906001016155b6565b6155e26113ff565b805115610abc576156366154316020926f576f726c64456e636f756e7465720000631d18955160e21b018482015264ffffffffff604051915f80516020615f3c833981519152868401846153e68483614261565b8060801c916015809260018060801b0316049060405193818501828460051b8701016040528386525f5b8481106156705750505050505090565b825182529185019190830190600101615660565b61568c6113ff565b805115610abc576156e06154316020926f456e636f756e746572456e7469747900631d18955160e21b018482015264ffffffffff604051915f80516020615f3c833981519152868401846153e68483614261565b8060801c916015809260018060801b0316049060405193818501828460051b8701016040528386525f5b84811061571a5750505050505090565b82518252918501919083019060010161570a565b6157366113ff565b805115610abc5761578a6154316020926f436f6d626174456e636f756e74657200631d18955160e21b018482015264ffffffffff604051915f80516020615f3c833981519152868401846153e68483614261565b8060801c916015809260018060801b0316049060405193818501828460051b8701016040528386525f5b8481106157c45750505050505090565b8251825291850191908301906001016157b4565b6157e06113ff565b805115610abc576158346154316020926f456e636f756e746572456e7469747900631d18955160e21b018482015264ffffffffff604051915f80516020615f3c833981519152868401846153e68483614261565b8060801c916015809260018060801b0316049060405193818501828460051b8701016040528386525f5b84811061586e5750505050505090565b82518252918501919083019060010161585e565b81516101f59260200191615af7565b81519060208093019190925b808210156158c65750806158b057505050565b5f199060031b1c90818354169119905116179055565b6001839482939451815501930191601f19019061589d565b82516101f593602001929091615b1a565b604051906158fc82610174565b60068252651e3937b7ba1f60d11b6020830152565b608081901b6001600160801b0319169061056b90602490601081901b6001600160901b031916806159bf57506159456158ef565b935b806159b157506159556158ef565b60405194859261ffff60f01b166020840152601d60f91b90816022850152615987815180926020602388019101611631565b83019060238201526159a28251809360208785019101611631565b010360048101845201826101c5565b6159ba90615ca2565b615955565b6159c890615ca2565b93615947565b6159eb82600160801b600160f01b038316616e7360f01b17615dc5565b8015615a3e575b156159fb575050565b90615a08615a2a92615911565b9060405192839263d787b73760e01b845260406004850152604484019061168f565b6001600160a01b0390911660248301520390fd5b50615a498282615dc5565b6159f2565b3d15615a78573d90615a5f8261216e565b91615a6d60405193846101c5565b82523d5f602084013e565b606090565b90615a8b5f93928493615d00565b9082602083519301915af1615a9e615a4e565b9091565b90615ab05f93928493615d00565b90602082519201905af4615a9e615a4e565b9190915f905b602090818310615ae85784518155930192601f1990910190600101615ac8565b9293919050806158b057505050565b929192602090818310615ae85784518155930192601f1990910190600101615ac8565b909392919380615b49575b50929092602090818310615ae85784518155930192601f1990910190600101615ac8565b6020811015615b9a575b8015615b255791939082602003908360031b5f198460031b1c19811c908751901c90801983541691161781558183111561366757600101940191601f19910101925f615b25565b90601f908260051c019116615b53565b9064ffffffffff8092169182116105a157565b909264ffffffffff615bfb61056b9694956f456e636f756e746572456e7469747900631d18955160e21b01855260e0602086015260e08501906105c1565b945f60408501525f606085015216608083015260a082015260c081840391015261168f565b909264ffffffffff615bfb61056b9694956f576f726c645374617475734566666563631d18955160e21b01855260e0602086015260e08501906105c1565b909264ffffffffff615c7d61056b96949560c0855260c08501906105c1565b945f60208501525f6040850152166060830152608082015260a081840391015261168f565b5f5b60108110615cd3575b6040516001600160801b0319909216602083015260108252615cce82610174565b815290565b6001600160801b03198216600382901b1b6001600160f81b03191615615cfb57600101615ca4565b615cad565b605461056b916040519381615d1f869351809260208087019101611631565b82019060018060601b03199060601b1660208201525f60348201520360348101845201826101c5565b64ffffffffff808311615dac5766ffffffffffffff821690603883901c1683818110615da2570301915b64ffffffffff60381b60389190911b1664ffffffffff60381b19929092166001600160601b031991909116171790565b9003900391615d72565b604051637149a3c160e01b815260048101849052602490fd5b60405190615dd282610126565b6002825260209260208301916040368437835115610abc57825282519060019160011015610abc576001600160a01b031660408085019190915280516f5265736f757263654163636573730000661d189ddbdc9b1960ca1b0160208201908152945194959094918501939291905f5b828110615e885750505050509181615e68612d8b9361056b9503601f1981018352826101c5565b5190205f80516020615edc83398151915218546001600160f81b03191690565b8451865294810194938101938301615e4156fefe158a7adba34e256807c8a149028d3162918713c3838afc643ce9f96716ebfd8c0b5119d4cec7b284c6b1b39252a03d1e2f2d7451a5895562524c113bb952be86425bff6b57326c7859e89024fe4f238ca327a1ae4a230180dd2f0e88aaa7d974625544000000000000000000000000456e636f756e746572456e74697479008dbb3a9672eebfd3773e72dd9c102393436816d832c7ba9e1e1ac8fcadcac7a93b4102da22e32d82fc925482184f16c09fd4281692720b87d124aef6da48a0f114e2fcc58e58e68ec7edc30c8d50dccc3ce2714a623ec81f46b6a63922d7656974625544000000000000000000000000436f6d626174456e636f756e74657200","linkReferences":{}},"methodIdentifiers":{"_msgSender()":"119df25f","_msgValue()":"45ec9354","_world()":"e1af802c","createEncounter(uint8,bytes32[],bytes32[])":"2c86e0e2","endEncounter(bytes32,uint256,bool)":"e903546c","endTurn(bytes32,bytes32,(bytes32,bytes32,uint256)[])":"1b3561d3","supportsInterface(bytes4)":"01ffc9a7"},"id":352}