{"abi":[{"type":"function","name":"_msgSender","inputs":[],"outputs":[{"name":"sender","type":"address","internalType":"address"}],"stateMutability":"view"},{"type":"function","name":"_msgValue","inputs":[],"outputs":[{"name":"value","type":"uint256","internalType":"uint256"}],"stateMutability":"pure"},{"type":"function","name":"_world","inputs":[],"outputs":[{"name":"","type":"address","internalType":"address"}],"stateMutability":"view"},{"type":"function","name":"checkForEncounterEnd","inputs":[{"name":"encounterData","type":"tuple","internalType":"struct CombatEncounterData","components":[{"name":"encounterType","type":"uint8","internalType":"enum EncounterType"},{"name":"start","type":"uint256","internalType":"uint256"},{"name":"end","type":"uint256","internalType":"uint256"},{"name":"rewardsDistributed","type":"bool","internalType":"bool"},{"name":"currentTurn","type":"uint256","internalType":"uint256"},{"name":"currentTurnTimer","type":"uint256","internalType":"uint256"},{"name":"maxTurns","type":"uint256","internalType":"uint256"},{"name":"attackersAreMobs","type":"bool","internalType":"bool"},{"name":"defenders","type":"bytes32[]","internalType":"bytes32[]"},{"name":"attackers","type":"bytes32[]","internalType":"bytes32[]"}]}],"outputs":[{"name":"_encounterEnded","type":"bool","internalType":"bool"},{"name":"_attackersWin","type":"bool","internalType":"bool"}],"stateMutability":"view"},{"type":"function","name":"createEncounter","inputs":[{"name":"encounterType","type":"uint8","internalType":"enum EncounterType"},{"name":"group1","type":"bytes32[]","internalType":"bytes32[]"},{"name":"group2","type":"bytes32[]","internalType":"bytes32[]"}],"outputs":[{"name":"encounterId","type":"bytes32","internalType":"bytes32"}],"stateMutability":"nonpayable"},{"type":"function","name":"endEncounter","inputs":[{"name":"encounterId","type":"bytes32","internalType":"bytes32"},{"name":"randomNumber","type":"uint256","internalType":"uint256"},{"name":"attackersWin","type":"bool","internalType":"bool"}],"outputs":[],"stateMutability":"nonpayable"},{"type":"function","name":"endTurn","inputs":[{"name":"encounterId","type":"bytes32","internalType":"bytes32"},{"name":"playerId","type":"bytes32","internalType":"bytes32"},{"name":"actions","type":"tuple[]","internalType":"struct Action[]","components":[{"name":"attackerEntityId","type":"bytes32","internalType":"bytes32"},{"name":"defenderEntityId","type":"bytes32","internalType":"bytes32"},{"name":"actionId","type":"bytes32","internalType":"bytes32"},{"name":"weaponId","type":"uint256","internalType":"uint256"}]}],"outputs":[],"stateMutability":"payable"},{"type":"function","name":"isParticipant","inputs":[{"name":"account","type":"address","internalType":"address"},{"name":"participants","type":"bytes32[]","internalType":"bytes32[]"}],"outputs":[{"name":"_isParticipant","type":"bool","internalType":"bool"}],"stateMutability":"view"},{"type":"function","name":"isParticipant","inputs":[{"name":"playerId","type":"bytes32","internalType":"bytes32"},{"name":"encounterId","type":"bytes32","internalType":"bytes32"}],"outputs":[{"name":"_isParticipant","type":"bool","internalType":"bool"}],"stateMutability":"view"},{"type":"function","name":"supportsInterface","inputs":[{"name":"interfaceId","type":"bytes4","internalType":"bytes4"}],"outputs":[{"name":"","type":"bool","internalType":"bool"}],"stateMutability":"pure"},{"type":"event","name":"Store_SetRecord","inputs":[{"name":"tableId","type":"bytes32","indexed":true,"internalType":"ResourceId"},{"name":"keyTuple","type":"bytes32[]","indexed":false,"internalType":"bytes32[]"},{"name":"staticData","type":"bytes","indexed":false,"internalType":"bytes"},{"name":"encodedLengths","type":"bytes32","indexed":false,"internalType":"EncodedLengths"},{"name":"dynamicData","type":"bytes","indexed":false,"internalType":"bytes"}],"anonymous":false},{"type":"event","name":"Store_SpliceStaticData","inputs":[{"name":"tableId","type":"bytes32","indexed":true,"internalType":"ResourceId"},{"name":"keyTuple","type":"bytes32[]","indexed":false,"internalType":"bytes32[]"},{"name":"start","type":"uint48","indexed":false,"internalType":"uint48"},{"name":"data","type":"bytes","indexed":false,"internalType":"bytes"}],"anonymous":false},{"type":"error","name":"Slice_OutOfBounds","inputs":[{"name":"data","type":"bytes","internalType":"bytes"},{"name":"start","type":"uint256","internalType":"uint256"},{"name":"end","type":"uint256","internalType":"uint256"}]},{"type":"error","name":"World_AccessDenied","inputs":[{"name":"resource","type":"string","internalType":"string"},{"name":"caller","type":"address","internalType":"address"}]},{"type":"error","name":"World_FunctionSelectorNotFound","inputs":[{"name":"functionSelector","type":"bytes4","internalType":"bytes4"}]},{"type":"error","name":"World_ResourceNotFound","inputs":[{"name":"resourceId","type":"bytes32","internalType":"ResourceId"},{"name":"resourceIdString","type":"string","internalType":"string"}]}],"bytecode":{"object":"0x608060405234801561001057600080fd5b50614cf3806100206000396000f3fe6080604052600436106100b15760003560e01c806398d239b111610069578063c6ca743c1161004e578063c6ca743c146101ca578063e1af802c146101ea578063e903546c146101ff57600080fd5b806398d239b114610195578063b2467894146101aa57600080fd5b80631e45d6141161009a5780631e45d614146101185780632c86e0e21461014f57806345ec93541461017d57600080fd5b806301ffc9a7146100b6578063119df25f146100eb575b600080fd5b3480156100c257600080fd5b506100d66100d1366004613eb8565b61021f565b60405190151581526020015b60405180910390f35b3480156100f757600080fd5b506101006102b8565b6040516001600160a01b0390911681526020016100e2565b34801561012457600080fd5b50610138610133366004614049565b6102c7565b6040805192151583529015156020830152016100e2565b34801561015b57600080fd5b5061016f61016a366004614146565b61048e565b6040519081526020016100e2565b34801561018957600080fd5b5036601f19013561016f565b6101a86101a33660046141ba565b6109d5565b005b3480156101b657600080fd5b506100d66101c53660046142ae565b610e3d565b3480156101d657600080fd5b506100d66101e53660046142fe565b610f13565b3480156101f657600080fd5b50610100610fd1565b34801561020b57600080fd5b506101a861021a366004614320565b610fdb565b60007fffffffff0000000000000000000000000000000000000000000000000000000082167fb5dee1270000000000000000000000000000000000000000000000000000000014806102b257507fffffffff0000000000000000000000000000000000000000000000000000000082167f01ffc9a700000000000000000000000000000000000000000000000000000000145b92915050565b60006102c2611361565b905090565b60008060008060005b8561010001515181101561038d576102e6610fd1565b6001600160a01b031663525b0e1e876101000151838151811061030b5761030b614359565b60200260200101516040518263ffffffff1660e01b815260040161033191815260200190565b602060405180830381865afa15801561034e573d6000803e3d6000fd5b505050506040513d601f19601f82011682018060405250810190610372919061436f565b156103855782610381816143a2565b9350505b6001016102d0565b5060005b8561012001515181101561044e576103a7610fd1565b6001600160a01b031663525b0e1e87610120015183815181106103cc576103cc614359565b60200260200101516040518263ffffffff1660e01b81526004016103f291815260200190565b602060405180830381865afa15801561040f573d6000803e3d6000fd5b505050506040513d601f19601f82011682018060405250810190610433919061436f565b156104465781610442816143a2565b9250505b600101610391565b508461012001515181148061046857508461010001515182145b8061047a57508460c001518560800151145b935084610100015151821492505050915091565b60006104a161049b6102b8565b84610e3d565b806104b857506104b86104b26102b8565b83610e3d565b6105095760405162461bcd60e51b815260206004820181905260248201527f454e434f554e5445522053595354454d3a20494e56414c49442053454e44455260448201526064015b60405180910390fd5b60008061052f8560008151811061052257610522614359565b6020026020010151611393565b915091506000806105408787611444565b91509150876001811115610556576105566143bc565b6001036106cd57600080610568610fd1565b6001600160a01b031663c6d5525b858589896040518563ffffffff1660e01b8152600401610599949392919061440e565b6040805180830381865afa1580156105b5573d6000803e3d6000fd5b505050506040513d601f19601f820116820180604052508101906105d99190614453565b915091508161062a5760405162461bcd60e51b815260206004820152601d60248201527f454e434f554e5445522053595354454d3a20494e56414c4944205056450000006044820152606401610500565b6040514290610643908c9087908790859060200161448d565b60405160208183030381529060405280519060200120975060006040518061014001604052808d600181111561067b5761067b6143bc565b81526020018381526020016000815260200160001515815260200160018152602001428152602001600f815260200184151581526020018681526020018781525090506106c889826114f9565b505050505b8760018111156106df576106df6143bc565b60ff16600003610850576106f1610fd1565b6001600160a01b0316632933423f838387876040518563ffffffff1660e01b8152600401610722949392919061440e565b602060405180830381865afa15801561073f573d6000803e3d6000fd5b505050506040513d601f19601f82011682018060405250810190610763919061436f565b6107af5760405162461bcd60e51b815260206004820152601d60248201527f454e434f554e5445522053595354454d3a20494e56414c4944205056500000006044820152606401610500565b60405142906107c8908a9085908590859060200161448d565b60405160208183030381529060405280519060200120955060006040518061014001604052808b6001811115610800576108006143bc565b81526020810184905260006040820181905260608201819052600160808301524260a0830152600f60c083015260e0820152610100810185905261012001859052905061084d87826114f9565b50505b604080518082019091526000808252602082015260005b83518110156109235761089284828151811061088557610885614359565b60200260200101516115d5565b80519092501580156108a657508160200151155b6108f25760405162461bcd60e51b815260206004820181905260248201527f454e434f554e5445522053595354454d3a20494e56414c494420454e544954596044820152606401610500565b868252835161091b9085908390811061090d5761090d614359565b602002602001015183611696565b600101610867565b5060005b82518110156109c85761094583828151811061088557610885614359565b805190925015801561095957508160200151155b6109a55760405162461bcd60e51b815260206004820181905260248201527f454e434f554e5445522053595354454d3a20494e56414c494420454e544954596044820152606401610500565b86825282516109c09084908390811061090d5761090d614359565b600101610927565b5050505050509392505050565b60006109e084611721565b905060006109ec610fd1565b6001600160a01b0316634f10aabc856040518263ffffffff1660e01b8152600401610a1991815260200190565b602060405180830381865afa158015610a36573d6000803e3d6000fd5b505050506040513d601f19601f82011682018060405250810190610a5a91906144da565b90508160200151600014158015610a7357506040820151155b610ae55760405162461bcd60e51b815260206004820152602360248201527f454e434f554e5445522053595354454d3a20494e56414c494420454e434f554e60448201527f54455200000000000000000000000000000000000000000000000000000000006064820152608401610500565b8160c00151826080015110610b625760405162461bcd60e51b815260206004820152602360248201527f454e434f554e5445522053595354454d3a204558504952454420454e434f554e60448201527f54455200000000000000000000000000000000000000000000000000000000006064820152608401610500565b610b6a6102b8565b6001600160a01b0316816001600160a01b0316148015610b8f5750610b8f8486610f13565b610bdb5760405162461bcd60e51b815260206004820152601f60248201527f454e434f554e5445522053595354454d3a204e4f4e2d434f4d424154414e54006044820152606401610500565b81516001811115610bee57610bee6143bc565b60ff16600003610dee5760028260800151610c09919061450d565b600003610d1757428260a00151601e610c22919061452f565b11610cbc57610c318486610f13565b610c7d5760405162461bcd60e51b815260206004820181905260248201527f454e434f554e5445522053595354454d3a20494e56414c49442043414c4c45526044820152606401610500565b610c8c81836101200151610e3d565b15610cb757600182608001818151610ca4919061452f565b9052506080820151610cb790869061181c565b610dee565b610ccb81836101000151610e3d565b610cb75760405162461bcd60e51b815260206004820152601960248201527f43616e6e6f7420656e6420646566656e64657273207475726e000000000000006044820152606401610500565b428260a00151601e610d29919061452f565b11610d9357610d388486610f13565b610d845760405162461bcd60e51b815260206004820181905260248201527f454e434f554e5445522053595354454d3a20494e56414c49442043414c4c45526044820152606401610500565b610c8c81836101000151610e3d565b610da281836101200151610e3d565b610dee5760405162461bcd60e51b815260206004820152601960248201527f43616e6e6f7420656e642061747461636b657273207475726e000000000000006044820152606401610500565b610e2c6040518060400160405280600d81526020017f517565756520616374696f6e73000000000000000000000000000000000000008152506118d5565b610e368584611949565b5050505050565b6000805b8251811015610f0c57610e52610fd1565b6001600160a01b0316634f10aabc848381518110610e7257610e72614359565b60200260200101516040518263ffffffff1660e01b8152600401610e9891815260200190565b602060405180830381865afa158015610eb5573d6000803e3d6000fd5b505050506040513d601f19601f82011682018060405250810190610ed991906144da565b6001600160a01b0316846001600160a01b031603610efa5760019150610f0c565b80610f04816143a2565b915050610e41565b5092915050565b600080610f1f83611721565b905060005b81610120015151811015610f72578161012001518181518110610f4957610f49614359565b60200260200101518503610f605760019250610f72565b80610f6a816143a2565b915050610f24565b5081610f0c5760005b81610100015151811015610fc9578161010001518181518110610fa057610fa0614359565b60200260200101518503610fb75760019250610fc9565b80610fc1816143a2565b915050610f7b565b505092915050565b60006102c26119de565b610fec30610fe76102b8565b6119e8565b6000610ff784611721565b9050611002846119fe565b1561104f5760405162461bcd60e51b815260206004820152601660248201527f656e636f756e74657220616c7265616479206f766572000000000000000000006044820152606401610500565b46617a690361106d576110628443611a98565b43604082015261107e565b6110778442611a98565b4260408201525b6000805b8261010001515181101561112f5782610100015181815181106110a7576110a7614359565b602002602001015191506110ba82611b17565b15611127576110c7610fd1565b6001600160a01b031663f547ccbd836040518263ffffffff1660e01b81526004016110f491815260200190565b600060405180830381600087803b15801561110e57600080fd5b505af1158015611122573d6000803e3d6000fd5b505050505b600101611082565b5060005b826101200151518110156111e057826101200151818151811061115857611158614359565b6020026020010151915061116b82611b17565b156111d857611178610fd1565b6001600160a01b031663f547ccbd836040518263ffffffff1660e01b81526004016111a591815260200190565b600060405180830381600087803b1580156111bf57600080fd5b505af11580156111d3573d6000803e3d6000fd5b505050505b600101611133565b506000806060600160ff1685600001516001811115611201576112016143bc565b60ff16036112aa57611211610fd1565b6040517f49572ff1000000000000000000000000000000000000000000000000000000008152600481018a9052602481018990526001600160a01b0391909116906349572ff1906044016000604051808303816000875af115801561127a573d6000803e3d6000fd5b505050506040513d6000823e601f3d908101601f191682016040526112a29190810190614542565b919450925090505b6040805160a0810182524281528715156020820152908101849052606081018390526080810182905260005b866101200151518110156113175761130f87610120015182815181106112fe576112fe614359565b60200260200101516000801b611bb5565b6001016112d6565b5060005b8661010001515181101561134b5761134387610100015182815181106112fe576112fe614359565b60010161131b565b506113568982611c69565b505050505050505050565b7fffffffffffffffffffffffffffffffffffffffffffffffffffffffffffffffcc36013560601c806113905750335b90565b604080516001808252818301909252600091829182916020808301908036833701905050905083816000815181106113cd576113cd614359565b6020908102919091010152600080806114267f74625544000000000000000000000000506f736974696f6e0000000000000000857e04020002020000000000000000000000000000000000000000000000000000611d1b565b925092509250611437838383611deb565b9550955050505050915091565b60608060008060005b865181101561148c5761147887828151811061146b5761146b614359565b6020026020010151611e0e565b611482908461452f565b925060010161144d565b5060005b85518110156114c2576114ae86828151811061146b5761146b614359565b6114b8908361452f565b9150600101611490565b50808211156114d6578593508492506114f0565b818111156114e9578493508592506114f0565b8593508492505b50509250929050565b600061152b826000015183602001518460400151856060015186608001518760a001518860c001518960e00151611ea0565b90506000611543836101000151846101200151611ede565b9050600061155b846101000151856101200151611f09565b6040805160018082528183019092529192506000919060208083019080368337019050509050858160008151811061159557611595614359565b60209081029190910101526115cd7f74625544000000000000000000000000436f6d626174456e636f756e7465720082868686611f45565b505050505050565b604080518082018252600080825260208201819052825160018082528185019094529192909190816020016020820280368337019050509050828160008151811061162257611622614359565b60209081029190910101526000808061167b7f74625544000000000000000000000000456e636f756e746572456e7469747900857e21020020010000000000000000000000000000000000000000000000000000611d1b565b92509250925061168c838383611ffa565b9695505050505050565b60006116aa82600001518360200151612027565b6040805160018082528183019092529192506000916060918391906020808301908036833701905050905085816000815181106116e9576116e9614359565b60209081029190910101526115cd7f74625544000000000000000000000000456e636f756e746572456e746974790082868686611f45565b61177c6040805161014081019091528060008152602001600081526020016000815260200160001515815260200160008152602001600081526020016000815260200160001515815260200160608152602001606081525090565b6040805160018082528183019092526000916020808301908036833701905050905082816000815181106117b2576117b2614359565b60209081029190910101526000808061180b7f74625544000000000000000000000000436f6d626174456e636f756e74657200857ea3080201202001202020010000000000000000000000000000000000000000611d1b565b92509250925061168c83838361204a565b60408051600180825281830190925260009160208083019080368337019050509050828160008151811061185257611852614359565b6020026020010181815250506118d07f74625544000000000000000000000000436f6d626174456e636f756e7465720060001b8260048560405160200161189b91815260200190565b60408051601f198184030181529190527ea308020120200120202001000000000000000000000000000000000000000061212d565b505050565b611946816040516024016118e99190614638565b60408051601f198184030181529190526020810180517bffffffffffffffffffffffffffffffffffffffffffffffffffffffff167f41304fac000000000000000000000000000000000000000000000000000000001790526121a3565b50565b6118d0826001848460405160200161196292919061464b565b60408051601f19818403018152908290526119819392916024016146bb565b60408051601f198184030181529190526020810180517bffffffffffffffffffffffffffffffffffffffffffffffffffffffff167fb2aa60a4000000000000000000000000000000000000000000000000000000001790526121ac565b60006102c261225a565b6119fa6119f483612299565b82612336565b5050565b604080516001808252818301909252600091829190602080830190803683370190505090508281600081518110611a3757611a37614359565b60209081029190910101526000611a907f74625544000000000000000000000000436f6d626174456e636f756e746572008360027ea3080201202001202020010000000000000000000000000000000000000000612382565b949350505050565b604080516001808252818301909252600091602080830190803683370190505090508281600081518110611ace57611ace614359565b6020026020010181815250506118d07f74625544000000000000000000000000436f6d626174456e636f756e7465720060001b8260028560405160200161189b91815260200190565b604080516001808252818301909252600091829190602080830190803683370190505090508281600081518110611b5057611b50614359565b60209081029190910101526000611ba97f74625544000000000000000000000000456e636f756e746572456e74697479008360017e21020020010000000000000000000000000000000000000000000000000000612382565b9050611a908160f81c90565b604080516001808252818301909252600091602080830190803683370190505090508281600081518110611beb57611beb614359565b6020026020010181815250506118d07f74625544000000000000000000000000456e636f756e746572456e746974790060001b82600085604051602001611c3491815260200190565b60408051601f198184030181529190527e2102002001000000000000000000000000000000000000000000000000000061212d565b6000611c87826000015183602001518460400151856060015161243f565b90506000611c98836080015161248a565b90506000611ca9846080015161249d565b60408051600180825281830190925291925060009190602080830190803683370190505090508581600081518110611ce357611ce3614359565b60209081029190910101526115cd7f6f745544000000000000000000000000436f6d6261744f7574636f6d6500000082868686611f45565b6060600060606000611d2b61225a565b9050306001600160a01b03821603611d5457611d488787876124ce565b93509350935050611de2565b6040517f419b58fd0000000000000000000000000000000000000000000000000000000081526001600160a01b0382169063419b58fd90611d9d908a908a908a906004016146ea565b600060405180830381865afa158015611dba573d6000803e3d6000fd5b505050506040513d6000823e601f3d908101601f19168201604052611d489190810190614777565b93509350939050565b60208301516022840151600091829160f091821c911c5b90969095509350505050565b604080516001808252818301909252600091829190602080830190803683370190505090508281600081518110611e4757611e47614359565b60209081029190910101526000611a907f74625544000000000000000000000000537461747300000000000000000000008360017ee1080020200120202020200000000000000000000000000000000000000000612382565b60608888888888888888604051602001611ec19897969594939291906147da565b604051602081830303815290604052905098975050505050505050565b6000611f0283516020028351602002606081901b603883901b838301171792915050565b9392505050565b6060611f14836125d6565b611f1d836125d6565b604051602001611f2e929190614830565b604051602081830303815290604052905092915050565b6000611f4f61225a565b9050306001600160a01b03821603611f7357611f6e86868686866125e6565b6115cd565b6040517f298314fb0000000000000000000000000000000000000000000000000000000081526001600160a01b0382169063298314fb90611fc0908990899089908990899060040161485f565b600060405180830381600087803b158015611fda57600080fd5b505af1158015611fee573d6000803e3d6000fd5b50505050505050505050565b6040805180820190915260008082526020820152612017846125fc565b1515602083015281529392505050565b60608282604051602001611f2e929190918252151560f81b602082015260210190565b6120a56040805161014081019091528060008152602001600081526020016000815260200160001515815260200160008152602001600081526020016000815260200160001515815260200160608152602001606081525090565b6120ae8461261b565b80151560e08a015260c0890182905260a089018390526080890184905284151560608a01526040890186905260208901879052888860018111156120f4576120f46143bc565b6001811115612105576121056143bc565b815250505050505050505061211a838361269d565b6101208301526101008201529392505050565b600061213761225a565b9050306001600160a01b0382160361215657611f6e86868686866126ec565b6040517f390baae00000000000000000000000000000000000000000000000000000000081526001600160a01b0382169063390baae090611fc090899089908990899089906004016148b0565b61194681612701565b60606000806121c26121bd856148f7565b612722565b91509150816000801b03612228576040517ffdde54e20000000000000000000000000000000000000000000000000000000081527fffffffff00000000000000000000000000000000000000000000000000000000600035166004820152602401610500565b6020840180517bffffffffffffffffffffffffffffffffffffffffffffffffffffffff1682179052611a9082856127e5565b7f629a4c26e296b22a8e0856e9f6ecb2d1008d7e00081111962cd175fa7488e175546000906001600160a01b031680612294573391505090565b919050565b60408051600180825281830190925260009182919060208083019080368337019050509050826001600160a01b031660001b816000815181106122de576122de614359565b60209081029190910101526000611a907f7462776f726c6400000000000000000053797374656d5265676973747279000083837e20010020000000000000000000000000000000000000000000000000000000612382565b61234082826128c0565b6119fa5761234d8261291e565b816040517fd787b737000000000000000000000000000000000000000000000000000000008152600401610500929190614947565b60008061238d61225a565b9050306001600160a01b038216036123b3576123ab86868686612a5b565b915050611a90565b6040517f8c364d590000000000000000000000000000000000000000000000000000000081526001600160a01b03821690638c364d59906123fe908990899089908990600401614972565b602060405180830381865afa15801561241b573d6000803e3d6000fd5b505050506040513d601f19601f820116820180604052508101906123ab91906149a1565b606084848484604051602001612471949392919093845291151560f81b60208401526021830152604182015260610190565b6040516020818303038152906040529050949350505050565b60006102b28251602002603881901b1790565b60606124a8826125d6565b6040516020016124b891906149ba565b6040516020818303038152906040529050919050565b60606000606060006124df85612a91565b90506124ec878783612ab4565b935060006124f986612aed565b905080156125cb5761250b8888612b2a565b935066ffffffffffffff841667ffffffffffffffff81111561252f5761252f613efa565b6040519080825280601f01601f191660200182016040528015612559576020820181803683370190505b5092506020830160005b828160ff1610156125c857600061257b8b8b84612b3d565b90506000612598888460ff166028026038011c64ffffffffff1690565b90506125a78260008387612bbd565b6125b1818561452f565b9350505080806125c0906149d6565b915050612563565b50505b505093509350939050565b606081611f028160206000612c88565b610e3685858585856125f78b612ce8565b612d6d565b60208101516040820151600090612614905b60f81c90565b9050915091565b600080600080600080600080612635896000016020015190565b60f81c6001811115612649576126496143bc565b60218a015160418b015160618c0151929a5090985096506126699061260e565b60628a015160828b015160a28c015160c28d0151939850919650945092506126909061260e565b9050919395975091939597565b6060806000603885901c64ffffffffff166126c16126bc8684846130a6565b613134565b935090508064ffffffffff606087901c16016126e16126bc8684846130a6565b925050509250929050565b610e3685856126fb8487613145565b8561317e565b80516a636f6e736f6c652e6c6f67602083016000808483855afa5050505050565b6040805160018082528183019092526000918291829160208083019080368337019050509050837bffffffffffffffffffffffffffffffffffffffffffffffffffffffff19168160008151811061277b5761277b614359565b6020908102919091010152600080806127d47f7462776f726c6400000000000000000046756e6374696f6e53656c6563746f72857e24020020040000000000000000000000000000000000000000000000000000611d1b565b925092509250611437838383613422565b606060006127f16119de565b90506001600160a01b0381163003612832576000612819612810611361565b6000878761342e565b935090508061282b5761282b83613569565b50506102b2565b6040517f3ae7af080000000000000000000000000000000000000000000000000000000081526001600160a01b03821690633ae7af089061287990879087906004016149f5565b6000604051808303816000875af1158015612898573d6000803e3d6000fd5b505050506040513d6000823e601f3d908101601f19168201604052611a909190810190614a0e565b600061290e7f6e730000000000000000000000000000000000000000000000000000000000007dffffffffffffffffffffffffffff0000000000000000000000000000000085161783613571565b80611f025750611f028383613571565b606081601081901b60006129318361363a565b9050827fffffffffffffffffffffffffffff00000000000000000000000000000000000083161561298c576129877fffffffffffffffffffffffffffff0000000000000000000000000000000000008416613651565b6129c3565b6040518060400160405280600681526020017f3c726f6f743e00000000000000000000000000000000000000000000000000008152505b7fffffffffffffffffffffffffffffffff000000000000000000000000000000008316156129f9576129f483613651565b612a30565b6040518060400160405280600681526020017f3c726f6f743e00000000000000000000000000000000000000000000000000008152505b604051602001612a4293929190614a43565b6040516020818303038152906040529350505050919050565b6000612a88612a6a86866136f5565b60ff858116601b0360080285901c16612a838587613145565b61374b565b95945050505050565b60006008612aa160026020614ad1565b612aab9190614ae4565b9190911c919050565b606081600003612ad35750604080516020810190915260008152611f02565b6000612adf85856136f5565b9050612a888160008561379c565b60006008600180612b0060026020614ad1565b612b0a9190614ad1565b612b149190614ad1565b612b1e9190614ae4565b8260ff911c1692915050565b6000611f02612b3984846137bf565b5490565b60008383604051602001612b52929190614afb565b604051602081830303815290604052805190602001208260f81b7effffffffffffffffffffffffffffffffffffffffffffffffffffffffffffff19167f3b4102da22e32d82fc925482184f16c09fd4281692720b87d124aef6da48a0f1181860001c90509392505050565b8215612c445760208310612be757602083048401935060208381612be357612be36144f7565b0692505b8215612c44576020839003600081841015612c0a5750600019600884021c612c14565b50600019600882021c5b8554600886021b818451168219821617845250818411612c35575050612c82565b50600194909401939182900391015b5b60208210612c665783548152600190930192601f1990910190602001612c45565b8115612c825780518454600019600885021c9182169119161781525b50505050565b82516060906000612c998583614ae4565b9050604051925060208301601f19603f83860101166040528184526000602088015b84821015612cdc578051871b83529187019160019190910190602001612cbb565b50505050509392505050565b60007f8b9d8c8b908d9affffffffffffffffffab9e9d939a8d000000000000000000008201612d3757507e60030220202000000000000000000000000000000000000000000000000000919050565b6102b2612d647f746273746f72650000000000000000005461626c65730000000000000000000084613815565b6020600061374b565b7f6f74000000000000000000000000000000000000000000000000000000000000867fffff0000000000000000000000000000000000000000000000000000000000001603612df957857f8dbb3a9672eebfd3773e72dd9c102393436816d832c7ba9e1e1ac8fcadcac7a986868686604051612dec9493929190614b37565b60405180910390a26115cd565b6000612e0487613831565b905060005b8151811015612edd576000828281518110612e2657612e26614359565b60200260200101519050612e526001826affffffffffffffffffffff19166138ba90919063ffffffff16565b15612ed4576040517f57066c9c000000000000000000000000000000000000000000000000000000008152606082901c906357066c9c90612ea1908c908c908c908c908c908c90600401614b81565b600060405180830381600087803b158015612ebb57600080fd5b505af1158015612ecf573d6000803e3d6000fd5b505050505b50600101612e09565b50867f8dbb3a9672eebfd3773e72dd9c102393436816d832c7ba9e1e1ac8fcadcac7a987878787604051612f149493929190614b37565b60405180910390a26000612f2888886136f5565b90506000602087019050612f408260008951846138d8565b6000612f4b85612aed565b1115612fcf576000612f5d8a8a6137bf565b878155905060208601915060008060005b612f7788612aed565b8160ff161015612fca57612f8c8d8d83612b3d565b9250612fa78a8260ff166028026038011c64ffffffffff1690565b9150612fb683600084886138d8565b612fc0828661452f565b9450600101612f6e565b505050505b60005b8351811015611fee576000848281518110612fef57612fef614359565b6020026020010151905061301b6002826affffffffffffffffffffff19166138ba90919063ffffffff16565b1561309d576040517f5b28cdaf000000000000000000000000000000000000000000000000000000008152606082901c90635b28cdaf9061306a908e908e908e908e908e908e90600401614b81565b600060405180830381600087803b15801561308457600080fd5b505af1158015613098573d6000803e3d6000fd5b505050505b50600101612fd2565b6000818311806130b65750835182115b156130f3578383836040517f23230fa300000000000000000000000000000000000000000000000000000000815260040161050093929190614bda565b60208401613101848261452f565b9050600061310f8585614ad1565b6fffffffffffffffffffffffffffffffff1660809290921b9190911795945050505050565b60606000611f028360206000613997565b600080805b8360ff168110156131765761316c60ff601b83900360080287901c168361452f565b915060010161314a565b509392505050565b7f6f74000000000000000000000000000000000000000000000000000000000000847fffff000000000000000000000000000000000000000000000000000000000000160361320857837f8c0b5119d4cec7b284c6b1b39252a03d1e2f2d7451a5895562524c113bb952be8484846040516131fb93929190614bff565b60405180910390a2612c82565b600061321485856136f5565b9050600061322186613831565b905060005b81518110156132f657600082828151811061324357613243614359565b6020026020010151905061326f6004826affffffffffffffffffffff19166138ba90919063ffffffff16565b156132ed576040517f964f667d000000000000000000000000000000000000000000000000000000008152606082901c9063964f667d906132ba908b908b908b908b90600401614c32565b600060405180830381600087803b1580156132d457600080fd5b505af11580156132e8573d6000803e3d6000fd5b505050505b50600101613226565b50857f8c0b5119d4cec7b284c6b1b39252a03d1e2f2d7451a5895562524c113bb952be86868660405161332b93929190614bff565b60405180910390a2613346828565ffffffffffff1685613a06565b60005b815181101561341957600082828151811061336657613366614359565b602002602001015190506133926008826affffffffffffffffffffff19166138ba90919063ffffffff16565b15613410576040517fa8ba8721000000000000000000000000000000000000000000000000000000008152606082901c9063a8ba8721906133dd908b908b908b908b90600401614c32565b600060405180830381600087803b1580156133f757600080fd5b505af115801561340b573d6000803e3d6000fd5b505050505b50600101613349565b50505050505050565b600080611e0285613a1c565b6000606060008061343e86613a2e565b90925090506001600160a01b03821661348f578561345b8761291e565b6040517ffbf10ce60000000000000000000000000000000000000000000000000000000081526004016105009291906149f5565b8061349e5761349e8689613ad2565b861561350a577dffffffffffffffffffffffffffff0000000000000000000000000000000086167f6e730000000000000000000000000000000000000000000000000000000000001760006134f282613adc565b9050613507826135028b8461452f565b613b6d565b50505b60006135168760101b90565b7fffffffffffffffffffffffffffff000000000000000000000000000000000000161461354e5761354988888488613c21565b61355a565b61355a88888488613c99565b90999098509650505050505050565b805160208201fd5b6040805160028082526060820183526000928392919060208301908036833701905050905083816000815181106135aa576135aa614359565b602002602001018181525050826001600160a01b031660001b816001815181106135d6576135d6614359565b6020908102919091010152600061362e7f7462776f726c640000000000000000005265736f75726365416363657373000083837e01010001000000000000000000000000000000000000000000000000000000612382565b9050612a888160f81c90565b60006136486070601061452f565b9190911b919050565b606060005b60108110156136b6577fffffffffffffffffffffffffffffffff000000000000000000000000000000008316600882021b7fff0000000000000000000000000000000000000000000000000000000000000016156136b657600101613656565b604080517fffffffffffffffffffffffffffffffff00000000000000000000000000000000851660208201528151603090910190915281815280611a90565b6000828260405160200161370a929190614afb565b60408051601f1981840301815291905280516020909101207f86425bff6b57326c7859e89024fe4f238ca327a1ae4a230180dd2f0e88aaa7d9189392505050565b6000602082106137715760208204840193506020828161376d5761376d6144f7565b0691505b508254600882021b602082900380841115613176576001850154600882021c82179150509392505050565b60405160208101601f19603f848401011660405282825261317685858584612bbd565b600082826040516020016137d4929190614afb565b60408051601f1981840301815291905280516020909101207f14e2fcc58e58e68ec7edc30c8d50dccc3ce2714a623ec81f46b6a63922d76569189392505050565b604080516020810184905290810182905260009060600161370a565b6040805160018082528183019092526060916000919060208083019080368337019050509050828160008151811061386b5761386b614359565b602090810291909101015260006138a37f746273746f726500000000000000000053746f7265486f6f6b730000000000008383613cfa565b9050611a906138b582600084516130a6565b613d34565b60008160ff16826138cb8560581c90565b1660ff1614905092915050565b82156139525760208310613902576020830484019350602083816138fe576138fe6144f7565b0692505b82156139525760208390036000600019600885021c1990506008850281811c91508351811c9050811987541682821617875550818411613943575050612c82565b50600194909401939182900391015b5b602082106139745780518455600190930192601f1990910190602001613953565b8115612c82576000600019600884021c8554835182191691161785555050505050565b606060006139a58560801c90565b90506fffffffffffffffffffffffffffffffff851660008582816139cb576139cb6144f7565b04905060405193506020840160208202810160405281855260005b82811015612cdc578451871c8252938701936020909101906001016139e6565b6118d083838351613a178560200190565b6138d8565b60208101516040820151600090612614565b60408051600180825281830190925260009182918291602080830190803683370190505090508381600081518110613a6857613a68614359565b602090810291909101015260008080613ac17f7462776f726c6400000000000000000053797374656d73000000000000000000857e150200140100000000000000000000000000000000000000000000000000006124ce565b925092509250611437838383613d45565b6123408282613d51565b604080516001808252818301909252600091829190602080830190803683370190505090508281600081518110613b1557613b15614359565b60209081029190910101526000611a907f7462776f726c6400000000000000000042616c616e636573000000000000000083837e20010020000000000000000000000000000000000000000000000000000000612a5b565b604080516001808252818301909252600091602080830190803683370190505090508281600081518110613ba357613ba3614359565b6020026020010181815250506118d07f7462776f726c6400000000000000000042616c616e636573000000000000000060001b82600085604051602001613bec91815260200190565b60408051601f198184030181529190527e200100200000000000000000000000000000000000000000000000000000006126ec565b60006060836001600160a01b03166000613c3c858989613daf565b604051613c4991906149ba565b60006040518083038185875af1925050503d8060008114613c86576040519150601f19603f3d011682016040523d82523d6000602084013e613c8b565b606091505b509097909650945050505050565b60006060836001600160a01b0316613cb2848888613daf565b604051613cbf91906149ba565b600060405180830381855af49150503d8060008114613c86576040519150601f19603f3d011682016040523d82523d6000602084013e613c8b565b6060611a90613d0a858585612b3d565b6000613d2f85613d1a8989612b2a565b9060ff166028026038011c64ffffffffff1690565b61379c565b60606000611f028360156000613997565b600080611e0285613dde565b6000613d9f7f6e730000000000000000000000000000000000000000000000000000000000007dffffffffffffffffffffffffffff0000000000000000000000000000000085161783613dfb565b80611f025750611f028383613dfb565b6060838383604051602001613dc693929190614c6b565b60405160208183030381529060405290509392505050565b6020810151603482015160609190911c906000906126149061260e565b604080516002808252606082018352600092839291906020830190803683370190505090508381600081518110613e3457613e34614359565b602002602001018181525050826001600160a01b031660001b81600181518110613e6057613e60614359565b6020908102919091010152600061362e7f7462776f726c640000000000000000005265736f75726365416363657373000083837e01010001000000000000000000000000000000000000000000000000000000612a5b565b600060208284031215613eca57600080fd5b81357fffffffff0000000000000000000000000000000000000000000000000000000081168114611f0257600080fd5b634e487b7160e01b600052604160045260246000fd5b604051610140810167ffffffffffffffff81118282101715613f3457613f34613efa565b60405290565b6040516080810167ffffffffffffffff81118282101715613f3457613f34613efa565b604051601f8201601f1916810167ffffffffffffffff81118282101715613f8657613f86613efa565b604052919050565b80356002811061229457600080fd5b801515811461194657600080fd5b803561229481613f9d565b600067ffffffffffffffff821115613fd057613fd0613efa565b5060051b60200190565b600082601f830112613feb57600080fd5b81356020614000613ffb83613fb6565b613f5d565b8083825260208201915060208460051b87010193508684111561402257600080fd5b602086015b8481101561403e5780358352918301918301614027565b509695505050505050565b60006020828403121561405b57600080fd5b813567ffffffffffffffff8082111561407357600080fd5b90830190610140828603121561408857600080fd5b614090613f10565b61409983613f8e565b815260208301356020820152604083013560408201526140bb60608401613fab565b60608201526080830135608082015260a083013560a082015260c083013560c08201526140ea60e08401613fab565b60e0820152610100808401358381111561410357600080fd5b61410f88828701613fda565b828401525050610120808401358381111561412957600080fd5b61413588828701613fda565b918301919091525095945050505050565b60008060006060848603121561415b57600080fd5b61416484613f8e565b9250602084013567ffffffffffffffff8082111561418157600080fd5b61418d87838801613fda565b935060408601359150808211156141a357600080fd5b506141b086828701613fda565b9150509250925092565b600080600060608085870312156141d057600080fd5b84359350602080860135935060408087013567ffffffffffffffff8111156141f757600080fd5b8701601f8101891361420857600080fd5b8035614216613ffb82613fb6565b81815260079190911b8201840190848101908b83111561423557600080fd5b928501925b82841015614288576080848d0312156142535760008081fd5b61425b613f3a565b8435815286850135878201528585013586820152878501358882015282526080909301929085019061423a565b809750505050505050509250925092565b6001600160a01b038116811461194657600080fd5b600080604083850312156142c157600080fd5b82356142cc81614299565b9150602083013567ffffffffffffffff8111156142e857600080fd5b6142f485828601613fda565b9150509250929050565b6000806040838503121561431157600080fd5b50508035926020909101359150565b60008060006060848603121561433557600080fd5b8335925060208401359150604084013561434e81613f9d565b809150509250925092565b634e487b7160e01b600052603260045260246000fd5b60006020828403121561438157600080fd5b8151611f0281613f9d565b634e487b7160e01b600052601160045260246000fd5b600060001982036143b5576143b561438c565b5060010190565b634e487b7160e01b600052602160045260246000fd5b60008151808452602080850194506020840160005b83811015614403578151875295820195908201906001016143e7565b509495945050505050565b60808152600061442160808301876143d2565b828103602084015261443381876143d2565b91505061ffff808516604084015280841660608401525095945050505050565b6000806040838503121561446657600080fd5b825161447181613f9d565b602084015190925061448281613f9d565b809150509250929050565b60006002861061449f5761449f6143bc565b858252608060208301526144b660808301866143d2565b82810360408401526144c881866143d2565b91505082606083015295945050505050565b6000602082840312156144ec57600080fd5b8151611f0281614299565b634e487b7160e01b600052601260045260246000fd5b60008261452a57634e487b7160e01b600052601260045260246000fd5b500690565b808201808211156102b2576102b261438c565b60008060006060848603121561455757600080fd5b835192506020808501519250604085015167ffffffffffffffff81111561457d57600080fd5b8501601f8101871361458e57600080fd5b805161459c613ffb82613fb6565b81815260059190911b820183019083810190898311156145bb57600080fd5b928401925b828410156145d9578351825292840192908401906145c0565b80955050505050509250925092565b60005b838110156146035781810151838201526020016145eb565b50506000910152565b600081518084526146248160208601602086016145e8565b601f01601f19169290920160200192915050565b602081526000611f02602083018461460c565b60006040808301858452602060406020860152818651808452606093506060870191506020880160005b828110156146ac57815180518552858101518686015287810151888601528601518685015260809093019290840190600101614675565b50919998505050505050505050565b8381526000600384106146d0576146d06143bc565b83602083015260606040830152612a88606083018461460c565b83815260606020820152600061470360608301856143d2565b9050826040830152949350505050565b600082601f83011261472457600080fd5b815167ffffffffffffffff81111561473e5761473e613efa565b6147516020601f19601f84011601613f5d565b81815284602083860101111561476657600080fd5b611a908260208301602087016145e8565b60008060006060848603121561478c57600080fd5b835167ffffffffffffffff808211156147a457600080fd5b6147b087838801614713565b94506020860151935060408601519150808211156147cd57600080fd5b506141b086828701614713565b600060028a106147ec576147ec6143bc565b5060f898891b815260018101979097526021870195909552921515861b6041860152604285019190915260628401526082830152151590911b60a282015260a30190565b600083516148428184602088016145e8565b8351908301906148568183602088016145e8565b01949350505050565b85815260a06020820152600061487860a08301876143d2565b828103604084015261488a818761460c565b905084606084015282810360808401526148a4818561460c565b98975050505050505050565b85815260a0602082015260006148c960a08301876143d2565b60ff8616604084015282810360608401526148e4818661460c565b9150508260808301529695505050505050565b6000815160208301517fffffffff000000000000000000000000000000000000000000000000000000008082169350600483101561493f5780818460040360031b1b83161693505b505050919050565b60408152600061495a604083018561460c565b90506001600160a01b03831660208301529392505050565b84815260806020820152600061498b60808301866143d2565b60ff949094166040830152506060015292915050565b6000602082840312156149b357600080fd5b5051919050565b600082516149cc8184602087016145e8565b9190910192915050565b600060ff821660ff81036149ec576149ec61438c565b60010192915050565b828152604060208201526000611a90604083018461460c565b600060208284031215614a2057600080fd5b815167ffffffffffffffff811115614a3757600080fd5b611a9084828501614713565b7fffff0000000000000000000000000000000000000000000000000000000000008416815260007f3a000000000000000000000000000000000000000000000000000000000000008060028401528451614aa48160038601602089016145e8565b808401905081600382015284519150614ac48260048301602088016145e8565b0160040195945050505050565b818103818111156102b2576102b261438c565b80820281158282048414176102b2576102b261438c565b8281526000602080830184516020860160005b82811015614b2a57815184529284019290840190600101614b0e565b5091979650505050505050565b608081526000614b4a60808301876143d2565b8281036020840152614b5c818761460c565b90508460408401528281036060840152614b76818561460c565b979650505050505050565b86815260c060208201526000614b9a60c08301886143d2565b8281036040840152614bac818861460c565b90508560608401528281036080840152614bc6818661460c565b9150508260a0830152979650505050505050565b606081526000614bed606083018661460c565b60208301949094525060400152919050565b606081526000614c1260608301866143d2565b65ffffffffffff85166020840152828103604084015261168c818561460c565b848152608060208201526000614c4b60808301866143d2565b65ffffffffffff851660408401528281036060840152614b76818561460c565b60008451614c7d8184602089016145e8565b60609490941b7fffffffffffffffffffffffffffffffffffffffff000000000000000000000000169190930190815260148101919091526034019291505056fea2646970667358221220b90ff65b9988a0b6173fba4edd4ca57642a8a6a140f998ff10017f18d6e162f864736f6c63430008180033","linkReferences":{}},"methodIdentifiers":{"_msgSender()":"119df25f","_msgValue()":"45ec9354","_world()":"e1af802c","checkForEncounterEnd((uint8,uint256,uint256,bool,uint256,uint256,uint256,bool,bytes32[],bytes32[]))":"1e45d614","createEncounter(uint8,bytes32[],bytes32[])":"2c86e0e2","endEncounter(bytes32,uint256,bool)":"e903546c","endTurn(bytes32,bytes32,(bytes32,bytes32,bytes32,uint256)[])":"98d239b1","isParticipant(address,bytes32[])":"b2467894","isParticipant(bytes32,bytes32)":"c6ca743c","supportsInterface(bytes4)":"01ffc9a7"},"id":186}