{"abi":[{"type":"function","name":"_msgSender","inputs":[],"outputs":[{"name":"sender","type":"address","internalType":"address"}],"stateMutability":"view"},{"type":"function","name":"_msgValue","inputs":[],"outputs":[{"name":"value","type":"uint256","internalType":"uint256"}],"stateMutability":"pure"},{"type":"function","name":"_world","inputs":[],"outputs":[{"name":"","type":"address","internalType":"address"}],"stateMutability":"view"},{"type":"function","name":"checkForEncounterEnd","inputs":[{"name":"encounterData","type":"tuple","internalType":"struct CombatEncounterData","components":[{"name":"encounterType","type":"uint8","internalType":"enum EncounterType"},{"name":"start","type":"uint256","internalType":"uint256"},{"name":"end","type":"uint256","internalType":"uint256"},{"name":"rewardsDistributed","type":"bool","internalType":"bool"},{"name":"currentTurn","type":"uint256","internalType":"uint256"},{"name":"currentTurnTimer","type":"uint256","internalType":"uint256"},{"name":"maxTurns","type":"uint256","internalType":"uint256"},{"name":"attackersAreMobs","type":"bool","internalType":"bool"},{"name":"defenders","type":"bytes32[]","internalType":"bytes32[]"},{"name":"attackers","type":"bytes32[]","internalType":"bytes32[]"}]}],"outputs":[{"name":"_encounterEnded","type":"bool","internalType":"bool"},{"name":"_attackersWin","type":"bool","internalType":"bool"}],"stateMutability":"view"},{"type":"function","name":"createEncounter","inputs":[{"name":"encounterType","type":"uint8","internalType":"enum EncounterType"},{"name":"group1","type":"bytes32[]","internalType":"bytes32[]"},{"name":"group2","type":"bytes32[]","internalType":"bytes32[]"}],"outputs":[{"name":"encounterId","type":"bytes32","internalType":"bytes32"}],"stateMutability":"nonpayable"},{"type":"function","name":"endEncounter","inputs":[{"name":"encounterId","type":"bytes32","internalType":"bytes32"},{"name":"randomNumber","type":"uint256","internalType":"uint256"},{"name":"attackersWin","type":"bool","internalType":"bool"}],"outputs":[],"stateMutability":"nonpayable"},{"type":"function","name":"endTurn","inputs":[{"name":"encounterId","type":"bytes32","internalType":"bytes32"},{"name":"playerId","type":"bytes32","internalType":"bytes32"},{"name":"attacks","type":"tuple[]","internalType":"struct Action[]","components":[{"name":"attackerEntityId","type":"bytes32","internalType":"bytes32"},{"name":"defenderEntityId","type":"bytes32","internalType":"bytes32"},{"name":"itemId","type":"uint256","internalType":"uint256"}]}],"outputs":[],"stateMutability":"payable"},{"type":"function","name":"isParticipant","inputs":[{"name":"account","type":"address","internalType":"address"},{"name":"participants","type":"bytes32[]","internalType":"bytes32[]"}],"outputs":[{"name":"_isParticipant","type":"bool","internalType":"bool"}],"stateMutability":"view"},{"type":"function","name":"isParticipant","inputs":[{"name":"playerId","type":"bytes32","internalType":"bytes32"},{"name":"encounterId","type":"bytes32","internalType":"bytes32"}],"outputs":[{"name":"_isParticipant","type":"bool","internalType":"bool"}],"stateMutability":"view"},{"type":"function","name":"supportsInterface","inputs":[{"name":"interfaceId","type":"bytes4","internalType":"bytes4"}],"outputs":[{"name":"","type":"bool","internalType":"bool"}],"stateMutability":"pure"},{"type":"event","name":"Store_SetRecord","inputs":[{"name":"tableId","type":"bytes32","indexed":true,"internalType":"ResourceId"},{"name":"keyTuple","type":"bytes32[]","indexed":false,"internalType":"bytes32[]"},{"name":"staticData","type":"bytes","indexed":false,"internalType":"bytes"},{"name":"encodedLengths","type":"bytes32","indexed":false,"internalType":"EncodedLengths"},{"name":"dynamicData","type":"bytes","indexed":false,"internalType":"bytes"}],"anonymous":false},{"type":"event","name":"Store_SpliceDynamicData","inputs":[{"name":"tableId","type":"bytes32","indexed":true,"internalType":"ResourceId"},{"name":"keyTuple","type":"bytes32[]","indexed":false,"internalType":"bytes32[]"},{"name":"dynamicFieldIndex","type":"uint8","indexed":false,"internalType":"uint8"},{"name":"start","type":"uint48","indexed":false,"internalType":"uint48"},{"name":"deleteCount","type":"uint40","indexed":false,"internalType":"uint40"},{"name":"encodedLengths","type":"bytes32","indexed":false,"internalType":"EncodedLengths"},{"name":"data","type":"bytes","indexed":false,"internalType":"bytes"}],"anonymous":false},{"type":"event","name":"Store_SpliceStaticData","inputs":[{"name":"tableId","type":"bytes32","indexed":true,"internalType":"ResourceId"},{"name":"keyTuple","type":"bytes32[]","indexed":false,"internalType":"bytes32[]"},{"name":"start","type":"uint48","indexed":false,"internalType":"uint48"},{"name":"data","type":"bytes","indexed":false,"internalType":"bytes"}],"anonymous":false},{"type":"error","name":"EncodedLengths_InvalidLength","inputs":[{"name":"length","type":"uint256","internalType":"uint256"}]},{"type":"error","name":"Slice_OutOfBounds","inputs":[{"name":"data","type":"bytes","internalType":"bytes"},{"name":"start","type":"uint256","internalType":"uint256"},{"name":"end","type":"uint256","internalType":"uint256"}]},{"type":"error","name":"Store_IndexOutOfBounds","inputs":[{"name":"length","type":"uint256","internalType":"uint256"},{"name":"accessedIndex","type":"uint256","internalType":"uint256"}]},{"type":"error","name":"Store_InvalidResourceType","inputs":[{"name":"expected","type":"bytes2","internalType":"bytes2"},{"name":"resourceId","type":"bytes32","internalType":"ResourceId"},{"name":"resourceIdString","type":"string","internalType":"string"}]},{"type":"error","name":"Store_InvalidSplice","inputs":[{"name":"startWithinField","type":"uint40","internalType":"uint40"},{"name":"deleteCount","type":"uint40","internalType":"uint40"},{"name":"fieldLength","type":"uint40","internalType":"uint40"}]},{"type":"error","name":"World_AccessDenied","inputs":[{"name":"resource","type":"string","internalType":"string"},{"name":"caller","type":"address","internalType":"address"}]},{"type":"error","name":"World_FunctionSelectorNotFound","inputs":[{"name":"functionSelector","type":"bytes4","internalType":"bytes4"}]},{"type":"error","name":"World_ResourceNotFound","inputs":[{"name":"resourceId","type":"bytes32","internalType":"ResourceId"},{"name":"resourceIdString","type":"string","internalType":"string"}]}],"bytecode":{"object":"0x608060405234801561001057600080fd5b50615468806100206000396000f3fe6080604052600436106100b15760003560e01c806345ec935411610069578063c6ca743c1161004e578063c6ca743c146101ca578063e1af802c146101ea578063e903546c146101ff57600080fd5b806345ec935414610192578063b2467894146101aa57600080fd5b80631b3561d31161009a5780631b3561d3146101185780631e45d6141461012d5780632c86e0e21461016457600080fd5b806301ffc9a7146100b6578063119df25f146100eb575b600080fd5b3480156100c257600080fd5b506100d66100d1366004614500565b61021f565b60405190151581526020015b60405180910390f35b3480156100f757600080fd5b506101006102b8565b6040516001600160a01b0390911681526020016100e2565b61012b6101263660046145fa565b6102c7565b005b34801561013957600080fd5b5061014d610148366004614767565b6106f6565b6040805192151583529015156020830152016100e2565b34801561017057600080fd5b5061018461017f366004614864565b6108bd565b6040519081526020016100e2565b34801561019e57600080fd5b5036601f190135610184565b3480156101b657600080fd5b506100d66101c53660046148ed565b610e05565b3480156101d657600080fd5b506100d66101e536600461493d565b610edb565b3480156101f657600080fd5b50610100610f99565b34801561020b57600080fd5b5061012b61021a36600461495f565b610fa3565b60007fffffffff0000000000000000000000000000000000000000000000000000000082167fb5dee1270000000000000000000000000000000000000000000000000000000014806102b257507fffffffff0000000000000000000000000000000000000000000000000000000082167f01ffc9a700000000000000000000000000000000000000000000000000000000145b92915050565b60006102c2611391565b905090565b60006102d2846113c3565b905060006102de610f99565b6001600160a01b0316634f10aabc856040518263ffffffff1660e01b815260040161030b91815260200190565b602060405180830381865afa158015610328573d6000803e3d6000fd5b505050506040513d601f19601f8201168201806040525081019061034c9190614998565b9050816020015160001415801561036557506040820151155b6103dc5760405162461bcd60e51b815260206004820152602360248201527f454e434f554e5445522053595354454d3a20494e56414c494420454e434f554e60448201527f544552000000000000000000000000000000000000000000000000000000000060648201526084015b60405180910390fd5b8160c001518260800151106104595760405162461bcd60e51b815260206004820152602360248201527f454e434f554e5445522053595354454d3a204558504952454420454e434f554e60448201527f544552000000000000000000000000000000000000000000000000000000000060648201526084016103d3565b6104616102b8565b6001600160a01b0316816001600160a01b031614801561048657506104868486610edb565b6104d25760405162461bcd60e51b815260206004820152601f60248201527f454e434f554e5445522053595354454d3a204e4f4e2d434f4d424154414e540060448201526064016103d3565b815160028111156104e5576104e56149b5565b60ff166000036106e5576002826080015161050091906149e1565b60000361060e57428260a00151601e6105199190614a19565b116105b3576105288486610edb565b6105745760405162461bcd60e51b815260206004820181905260248201527f454e434f554e5445522053595354454d3a20494e56414c49442043414c4c455260448201526064016103d3565b61058381836101200151610e05565b156105ae5760018260800181815161059b9190614a19565b90525060808201516105ae9086906114c8565b6106e5565b6105c281836101000151610e05565b6105ae5760405162461bcd60e51b815260206004820152601960248201527f43616e6e6f7420656e6420646566656e64657273207475726e0000000000000060448201526064016103d3565b428260a00151601e6106209190614a19565b1161068a5761062f8486610edb565b61067b5760405162461bcd60e51b815260206004820181905260248201527f454e434f554e5445522053595354454d3a20494e56414c49442043414c4c455260448201526064016103d3565b61058381836101000151610e05565b61069981836101200151610e05565b6106e55760405162461bcd60e51b815260206004820152601960248201527f43616e6e6f7420656e642061747461636b657273207475726e0000000000000060448201526064016103d3565b6106ef8584611581565b5050505050565b60008060008060005b856101000151518110156107bc57610715610f99565b6001600160a01b031663525b0e1e876101000151838151811061073a5761073a614a2c565b60200260200101516040518263ffffffff1660e01b815260040161076091815260200190565b602060405180830381865afa15801561077d573d6000803e3d6000fd5b505050506040513d601f19601f820116820180604052508101906107a19190614a42565b156107b457826107b081614a5f565b9350505b6001016106ff565b5060005b8561012001515181101561087d576107d6610f99565b6001600160a01b031663525b0e1e87610120015183815181106107fb576107fb614a2c565b60200260200101516040518263ffffffff1660e01b815260040161082191815260200190565b602060405180830381865afa15801561083e573d6000803e3d6000fd5b505050506040513d601f19601f820116820180604052508101906108629190614a42565b15610875578161087181614a5f565b9250505b6001016107c0565b508461012001515181148061089757508461010001515182145b806108a957508460c001518560800151145b935084610100015151821492505050915091565b60006108d06108ca6102b8565b84610e05565b806108e757506108e76108e16102b8565b83610e05565b6109335760405162461bcd60e51b815260206004820181905260248201527f454e434f554e5445522053595354454d3a20494e56414c49442053454e44455260448201526064016103d3565b6000806109598560008151811061094c5761094c614a2c565b6020026020010151611616565b9150915060008061096a87876116c7565b91509150876002811115610980576109806149b5565b600103610af757600080610992610f99565b6001600160a01b031663c6d5525b858589896040518563ffffffff1660e01b81526004016109c39493929190614ab5565b6040805180830381865afa1580156109df573d6000803e3d6000fd5b505050506040513d601f19601f82011682018060405250810190610a039190614afa565b9150915081610a545760405162461bcd60e51b815260206004820152601d60248201527f454e434f554e5445522053595354454d3a20494e56414c49442050564500000060448201526064016103d3565b6040514290610a6d908c90879087908590602001614b52565b60405160208183030381529060405280519060200120975060006040518061014001604052808d6002811115610aa557610aa56149b5565b81526020018381526020016000815260200160001515815260200160018152602001428152602001600f81526020018415158152602001868152602001878152509050610af2898261177c565b505050505b876002811115610b0957610b096149b5565b60ff16600003610c7a57610b1b610f99565b6001600160a01b0316632933423f838387876040518563ffffffff1660e01b8152600401610b4c9493929190614ab5565b602060405180830381865afa158015610b69573d6000803e3d6000fd5b505050506040513d601f19601f82011682018060405250810190610b8d9190614a42565b610bd95760405162461bcd60e51b815260206004820152601d60248201527f454e434f554e5445522053595354454d3a20494e56414c49442050565000000060448201526064016103d3565b6040514290610bf2908a90859085908590602001614b52565b60405160208183030381529060405280519060200120955060006040518061014001604052808b6002811115610c2a57610c2a6149b5565b81526020810184905260006040820181905260608201819052600160808301524260a0830152600f60c083015260e08201526101008101859052610120018590529050610c77878261177c565b50505b604080516060808201835260008083526020830181905292820152905b8351811015610d5357610cc2848281518110610cb557610cb5614a2c565b6020026020010151611858565b8051909250158015610cd657508160200151155b610d225760405162461bcd60e51b815260206004820181905260248201527f454e434f554e5445522053595354454d3a20494e56414c494420454e5449545960448201526064016103d3565b8682528351610d4b90859083908110610d3d57610d3d614a2c565b602002602001015183611915565b600101610c97565b5060005b8251811015610df857610d75838281518110610cb557610cb5614a2c565b8051909250158015610d8957508160200151155b610dd55760405162461bcd60e51b815260206004820181905260248201527f454e434f554e5445522053595354454d3a20494e56414c494420454e5449545960448201526064016103d3565b8682528251610df090849083908110610d3d57610d3d614a2c565b600101610d57565b5050505050509392505050565b6000805b8251811015610ed457610e1a610f99565b6001600160a01b0316634f10aabc848381518110610e3a57610e3a614a2c565b60200260200101516040518263ffffffff1660e01b8152600401610e6091815260200190565b602060405180830381865afa158015610e7d573d6000803e3d6000fd5b505050506040513d601f19601f82011682018060405250810190610ea19190614998565b6001600160a01b0316846001600160a01b031603610ec25760019150610ed4565b80610ecc81614a5f565b915050610e09565b5092915050565b600080610ee7836113c3565b905060005b81610120015151811015610f3a578161012001518181518110610f1157610f11614a2c565b60200260200101518503610f285760019250610f3a565b80610f3281614a5f565b915050610eec565b5081610ed45760005b81610100015151811015610f91578161010001518181518110610f6857610f68614a2c565b60200260200101518503610f7f5760019250610f91565b80610f8981614a5f565b915050610f43565b505092915050565b60006102c26119bd565b610fb430610faf6102b8565b6119c7565b6000610fbf846113c3565b9050610fca846119dd565b156110175760405162461bcd60e51b815260206004820152601660248201527f656e636f756e74657220616c7265616479206f7665720000000000000000000060448201526064016103d3565b46617a69036110355761102a8443611a77565b436040820152611046565b61103f8442611a77565b4260408201525b6000805b826101000151518110156110f757826101000151818151811061106f5761106f614a2c565b6020026020010151915061108282611af6565b156110ef5761108f610f99565b6001600160a01b031663f547ccbd836040518263ffffffff1660e01b81526004016110bc91815260200190565b600060405180830381600087803b1580156110d657600080fd5b505af11580156110ea573d6000803e3d6000fd5b505050505b60010161104a565b5060005b826101200151518110156111a857826101200151818151811061112057611120614a2c565b6020026020010151915061113382611af6565b156111a057611140610f99565b6001600160a01b031663f547ccbd836040518263ffffffff1660e01b815260040161116d91815260200190565b600060405180830381600087803b15801561118757600080fd5b505af115801561119b573d6000803e3d6000fd5b505050505b6001016110fb565b50600080606081855160028111156111c2576111c26149b5565b03611268576111cf610f99565b6040517f49572ff1000000000000000000000000000000000000000000000000000000008152600481018a9052602481018990526001600160a01b0391909116906349572ff1906044016000604051808303816000875af1158015611238573d6000803e3d6000fd5b505050506040513d6000823e601f3d908101601f191682016040526112609190810190614b98565b919450925090505b6040805160a081018252428152871515602082015290810184905260608101839052608081018290526000806040519080825280602002602001820160405280156112bd578160200160208202803683370190505b50905060005b8761012001515181101561132c576112fc88610120015182815181106112eb576112eb614a2c565b60200260200101516000801b611b94565b611324886101200151828151811061131657611316614a2c565b602002602001015183611c48565b6001016112c3565b5060005b8761010001515181101561137a5761135888610100015182815181106112eb576112eb614a2c565b611372886101200151828151811061131657611316614a2c565b600101611330565b506113858a83611cbe565b50505050505050505050565b7fffffffffffffffffffffffffffffffffffffffffffffffffffffffffffffffcc36013560601c806113c05750335b90565b61141e6040805161014081019091528060008152602001600081526020016000815260200160001515815260200160008152602001600081526020016000815260200160001515815260200160608152602001606081525090565b60408051600180825281830190925260009160208083019080368337019050509050828160008151811061145457611454614a2c565b6020908102919091010152600080806114ad7f74625544000000000000000000000000436f6d626174456e636f756e74657200857ea3080201202001202020010000000000000000000000000000000000000000611d70565b9250925092506114be838383611e40565b9695505050505050565b6040805160018082528183019092526000916020808301908036833701905050905082816000815181106114fe576114fe614a2c565b60200260200101818152505061157c7f74625544000000000000000000000000436f6d626174456e636f756e7465720060001b8260048560405160200161154791815260200190565b60408051601f198184030181529190527ea3080201202001202020010000000000000000000000000000000000000000611f23565b505050565b61157c826002848460405160200161159a929190614c3e565b60408051601f19818403018152908290526115b9939291602401614cf4565b60408051601f198184030181529190526020810180517bffffffffffffffffffffffffffffffffffffffffffffffffffffffff167fb2aa60a400000000000000000000000000000000000000000000000000000000179052611fcc565b6040805160018082528183019092526000918291829160208083019080368337019050509050838160008151811061165057611650614a2c565b6020908102919091010152600080806116a97f74625544000000000000000000000000506f736974696f6e0000000000000000857e04020002020000000000000000000000000000000000000000000000000000611d70565b9250925092506116ba83838361207a565b9550955050505050915091565b60608060008060005b865181101561170f576116fb8782815181106116ee576116ee614a2c565b602002602001015161209d565b6117059084614a19565b92506001016116d0565b5060005b8551811015611745576117318682815181106116ee576116ee614a2c565b61173b9083614a19565b9150600101611713565b508082111561175957859350849250611773565b8181111561176c57849350859250611773565b8593508492505b50509250929050565b60006117ae826000015183602001518460400151856060015186608001518760a001518860c001518960e0015161212f565b905060006117c683610100015184610120015161216d565b905060006117de846101000151856101200151612198565b6040805160018082528183019092529192506000919060208083019080368337019050509050858160008151811061181857611818614a2c565b60209081029190910101526118507f74625544000000000000000000000000436f6d626174456e636f756e74657200828686866121d4565b505050505050565b60408051606080820183526000808352602080840182905283850192909252835160018082528186019095529293909291828101908036833701905050905082816000815181106118ab576118ab614a2c565b6020908102919091010152600080806119047f74625544000000000000000000000000456e636f756e746572456e7469747900857e21020120010000000000000000000000000000000000000000000000000000611d70565b9250925092506114be83838361224a565b60006119298260000151836020015161228e565b9050600061193a83604001516122b1565b9050600061194b84604001516122c4565b6040805160018082528183019092529192506000919060208083019080368337019050509050858160008151811061198557611985614a2c565b60209081029190910101526118507f74625544000000000000000000000000456e636f756e746572456e7469747900828686866121d4565b60006102c26122f5565b6119d96119d383612334565b826123d1565b5050565b604080516001808252818301909252600091829190602080830190803683370190505090508281600081518110611a1657611a16614a2c565b60209081029190910101526000611a6f7f74625544000000000000000000000000436f6d626174456e636f756e746572008360027ea308020120200120202001000000000000000000000000000000000000000061241d565b949350505050565b604080516001808252818301909252600091602080830190803683370190505090508281600081518110611aad57611aad614a2c565b60200260200101818152505061157c7f74625544000000000000000000000000436f6d626174456e636f756e7465720060001b8260028560405160200161154791815260200190565b604080516001808252818301909252600091829190602080830190803683370190505090508281600081518110611b2f57611b2f614a2c565b60209081029190910101526000611b887f74625544000000000000000000000000456e636f756e746572456e74697479008360017e2102012001000000000000000000000000000000000000000000000000000061241d565b9050611a6f8160f81c90565b604080516001808252818301909252600091602080830190803683370190505090508281600081518110611bca57611bca614a2c565b60200260200101818152505061157c7f74625544000000000000000000000000456e636f756e746572456e746974790060001b82600085604051602001611c1391815260200190565b60408051601f198184030181529190527e21020120010000000000000000000000000000000000000000000000000000611f23565b604080516001808252818301909252600091602080830190803683370190505090508281600081518110611c7e57611c7e614a2c565b602090810291909101015261157c7f74625544000000000000000000000000456e636f756e746572456e7469747900826000611cb9866124da565b6124ea565b6000611cdc826000015183602001518460400151856060015161259b565b90506000611ced83608001516122b1565b90506000611cfe84608001516122c4565b60408051600180825281830190925291925060009190602080830190803683370190505090508581600081518110611d3857611d38614a2c565b60209081029190910101526118507f6f745544000000000000000000000000436f6d6261744f7574636f6d65000000828686866121d4565b6060600060606000611d806122f5565b9050306001600160a01b03821603611da957611d9d8787876125e6565b93509350935050611e37565b6040517f419b58fd0000000000000000000000000000000000000000000000000000000081526001600160a01b0382169063419b58fd90611df2908a908a908a90600401614d1c565b600060405180830381865afa158015611e0f573d6000803e3d6000fd5b505050506040513d6000823e601f3d908101601f19168201604052611d9d9190810190614da9565b93509350939050565b611e9b6040805161014081019091528060008152602001600081526020016000815260200160001515815260200160008152602001600081526020016000815260200160001515815260200160608152602001606081525090565b611ea4846126ee565b80151560e08a015260c0890182905260a089018390526080890184905284151560608a0152604089018690526020890187905288886002811115611eea57611eea6149b5565b6002811115611efb57611efb6149b5565b8152505050505050505050611f108383612772565b6101208301526101008201529392505050565b6000611f2d6122f5565b9050306001600160a01b03821603611f5157611f4c86868686866127c1565b611850565b6040517f390baae00000000000000000000000000000000000000000000000000000000081526001600160a01b0382169063390baae090611f9e9089908990899089908990600401614e0c565b600060405180830381600087803b158015611fb857600080fd5b505af1158015611385573d6000803e3d6000fd5b6060600080611fe2611fdd85614e53565b6127d6565b91509150816000801b03612048576040517ffdde54e20000000000000000000000000000000000000000000000000000000081527fffffffff000000000000000000000000000000000000000000000000000000006000351660048201526024016103d3565b6020840180517bffffffffffffffffffffffffffffffffffffffffffffffffffffffff1682179052611a6f8285612899565b60208301516022840151600091829160f091821c911c5b90969095509350505050565b6040805160018082528183019092526000918291906020808301908036833701905050905082816000815181106120d6576120d6614a2c565b60209081029190910101526000611a6f7f74625544000000000000000000000000537461747300000000000000000000008360017ee108002020012020202020000000000000000000000000000000000000000061241d565b60608888888888888888604051602001612150989796959493929190614ea3565b604051602081830303815290604052905098975050505050505050565b600061219183516020028351602002606081901b603883901b838301171792915050565b9392505050565b60606121a3836124da565b6121ac836124da565b6040516020016121bd929190614eef565b604051602081830303815290604052905092915050565b60006121de6122f5565b9050306001600160a01b038216036121fd57611f4c8686868686612974565b6040517f298314fb0000000000000000000000000000000000000000000000000000000081526001600160a01b0382169063298314fb90611f9e9089908990899089908990600401614f1e565b6040805160608082018352600080835260208301529181019190915261226f8461298a565b15156020830152815261228283836129a7565b60408201529392505050565b606082826040516020016121bd929190918252151560f81b602082015260210190565b60006102b28251602002603881901b1790565b60606122cf826124da565b6040516020016122df9190614f6f565b6040516020818303038152906040529050919050565b7f629a4c26e296b22a8e0856e9f6ecb2d1008d7e00081111962cd175fa7488e175546000906001600160a01b03168061232f573391505090565b919050565b60408051600180825281830190925260009182919060208083019080368337019050509050826001600160a01b031660001b8160008151811061237957612379614a2c565b60209081029190910101526000611a6f7f7462776f726c6400000000000000000053797374656d5265676973747279000083837e2001002000000000000000000000000000000000000000000000000000000061241d565b6123db82826129ce565b6119d9576123e882612a2c565b816040517fd787b7370000000000000000000000000000000000000000000000000000000081526004016103d3929190614f8b565b6000806124286122f5565b9050306001600160a01b0382160361244e5761244686868686612b69565b915050611a6f565b6040517f8c364d590000000000000000000000000000000000000000000000000000000081526001600160a01b03821690638c364d5990612499908990899089908990600401614fb6565b602060405180830381865afa1580156124b6573d6000803e3d6000fd5b505050506040513d601f19601f820116820180604052508101906124469190614fe5565b6060816121918160206000612b96565b60006124f46122f5565b9050306001600160a01b038216036125175761251285858585612bf6565b6106ef565b6040517fef6ea8620000000000000000000000000000000000000000000000000000000081526001600160a01b0382169063ef6ea86290612562908890889088908890600401614ffe565b600060405180830381600087803b15801561257c57600080fd5b505af1158015612590573d6000803e3d6000fd5b505050505050505050565b6060848484846040516020016125cd949392919093845291151560f81b60208401526021830152604182015260610190565b6040516020818303038152906040529050949350505050565b60606000606060006125f785612c31565b9050612604878783612c54565b9350600061261186612c8d565b905080156126e3576126238888612cca565b935066ffffffffffffff841667ffffffffffffffff81111561264757612647614542565b6040519080825280601f01601f191660200182016040528015612671576020820181803683370190505b5092506020830160005b828160ff1610156126e05760006126938b8b84612cdd565b905060006126b0888460ff166028026038011c64ffffffffff1690565b90506126bf8260008387612d5d565b6126c98185614a19565b9350505080806126d89061503d565b91505061267b565b50505b505093509350939050565b600080600080600080600080612708896000016020015190565b60f81c600281111561271c5761271c6149b5565b60218a015160418b015160618c0151929a50909850965061273e905b60f81c90565b60628a015160828b015160a28c015160c28d01519398509196509450925061276590612738565b9050919395975091939597565b6060806000603885901c64ffffffffff16612796612791868484612e28565b612eb6565b935090508064ffffffffff606087901c16016127b6612791868484612e28565b925050509250929050565b6106ef85856127d08487612ec7565b85612f00565b6040805160018082528183019092526000918291829160208083019080368337019050509050837bffffffffffffffffffffffffffffffffffffffffffffffffffffffff19168160008151811061282f5761282f614a2c565b6020908102919091010152600080806128887f7462776f726c6400000000000000000046756e6374696f6e53656c6563746f72857e24020020040000000000000000000000000000000000000000000000000000611d70565b9250925092506116ba8383836131a4565b606060006128a56119bd565b90506001600160a01b03811630036128e65760006128cd6128c4611391565b600087876131b0565b93509050806128df576128df836132eb565b50506102b2565b6040517f3ae7af080000000000000000000000000000000000000000000000000000000081526001600160a01b03821690633ae7af089061292d908790879060040161505c565b6000604051808303816000875af115801561294c573d6000803e3d6000fd5b505050506040513d6000823e601f3d908101601f19168201604052611a6f9190810190615075565b6106ef85858585856129858b6132f3565b613378565b602081015160408201516000906129a090612738565b9050915091565b60606000603884901c64ffffffffff166129c5612791858484612e28565b95945050505050565b6000612a1c7f6e730000000000000000000000000000000000000000000000000000000000007dffffffffffffffffffffffffffff00000000000000000000000000000000851617836136b1565b80612191575061219183836136b1565b606081601081901b6000612a3f8361377a565b9050827fffffffffffffffffffffffffffff000000000000000000000000000000000000831615612a9a57612a957fffffffffffffffffffffffffffff0000000000000000000000000000000000008416613791565b612ad1565b6040518060400160405280600681526020017f3c726f6f743e00000000000000000000000000000000000000000000000000008152505b7fffffffffffffffffffffffffffffffff00000000000000000000000000000000831615612b0757612b0283613791565b612b3e565b6040518060400160405280600681526020017f3c726f6f743e00000000000000000000000000000000000000000000000000008152505b604051602001612b50939291906150aa565b6040516020818303038152906040529350505050919050565b60006129c5612b788686613835565b60ff858116601b0360080285901c16612b918587612ec7565b61388b565b82516060906000612ba78583615138565b9050604051925060208301601f19603f83860101166040528184526000602088015b84821015612bea578051871b83529187019160019190910190602001612bc9565b50505050509392505050565b6000612c028585612cca565b90506000612c1f828560ff166028026038011c64ffffffffff1690565b905061185086868660008588886138dc565b60006008612c416002602061514f565b612c4b9190615138565b9190911c919050565b606081600003612c735750604080516020810190915260008152612191565b6000612c7f8585613835565b90506129c581600085613d16565b60006008600180612ca06002602061514f565b612caa919061514f565b612cb4919061514f565b612cbe9190615138565b8260ff911c1692915050565b6000612191612cd98484613d39565b5490565b60008383604051602001612cf2929190615162565b604051602081830303815290604052805190602001208260f81b7effffffffffffffffffffffffffffffffffffffffffffffffffffffffffffff19167f3b4102da22e32d82fc925482184f16c09fd4281692720b87d124aef6da48a0f1181860001c90509392505050565b8215612de45760208310612d8757602083048401935060208381612d8357612d836149cb565b0692505b8215612de4576020839003600081841015612daa5750600019600884021c612db4565b50600019600882021c5b8554600886021b818451168219821617845250818411612dd5575050612e22565b50600194909401939182900391015b5b60208210612e065783548152600190930192601f1990910190602001612de5565b8115612e225780518454600019600885021c9182169119161781525b50505050565b600081831180612e385750835182115b15612e75578383836040517f23230fa30000000000000000000000000000000000000000000000000000000081526004016103d39392919061519e565b60208401612e838482614a19565b90506000612e91858561514f565b6fffffffffffffffffffffffffffffffff1660809290921b9190911795945050505050565b606060006121918360206000613d8f565b600080805b8360ff16811015612ef857612eee60ff601b83900360080287901c1683614a19565b9150600101612ecc565b509392505050565b7f6f74000000000000000000000000000000000000000000000000000000000000847fffff0000000000000000000000000000000000000000000000000000000000001603612f8a57837f8c0b5119d4cec7b284c6b1b39252a03d1e2f2d7451a5895562524c113bb952be848484604051612f7d939291906151c3565b60405180910390a2612e22565b6000612f968585613835565b90506000612fa386613dfe565b905060005b8151811015613078576000828281518110612fc557612fc5614a2c565b60200260200101519050612ff16004826affffffffffffffffffffff1916613e8790919063ffffffff16565b1561306f576040517f964f667d000000000000000000000000000000000000000000000000000000008152606082901c9063964f667d9061303c908b908b908b908b906004016151f6565b600060405180830381600087803b15801561305657600080fd5b505af115801561306a573d6000803e3d6000fd5b505050505b50600101612fa8565b50857f8c0b5119d4cec7b284c6b1b39252a03d1e2f2d7451a5895562524c113bb952be8686866040516130ad939291906151c3565b60405180910390a26130c8828565ffffffffffff1685613ea5565b60005b815181101561319b5760008282815181106130e8576130e8614a2c565b602002602001015190506131146008826affffffffffffffffffffff1916613e8790919063ffffffff16565b15613192576040517fa8ba8721000000000000000000000000000000000000000000000000000000008152606082901c9063a8ba87219061315f908b908b908b908b906004016151f6565b600060405180830381600087803b15801561317957600080fd5b505af115801561318d573d6000803e3d6000fd5b505050505b506001016130cb565b50505050505050565b60008061209185613ebb565b600060606000806131c086613ecd565b90925090506001600160a01b03821661321157856131dd87612a2c565b6040517ffbf10ce60000000000000000000000000000000000000000000000000000000081526004016103d392919061505c565b80613220576132208689613f71565b861561328c577dffffffffffffffffffffffffffff0000000000000000000000000000000086167f6e7300000000000000000000000000000000000000000000000000000000000017600061327482613f7b565b9050613289826132848b84614a19565b61400c565b50505b60006132988760101b90565b7fffffffffffffffffffffffffffff00000000000000000000000000000000000016146132d0576132cb888884886140c0565b6132dc565b6132dc88888488614138565b90999098509650505050505050565b805160208201fd5b60007f8b9d8c8b908d9affffffffffffffffffab9e9d939a8d00000000000000000000820161334257507e60030220202000000000000000000000000000000000000000000000000000919050565b6102b261336f7f746273746f72650000000000000000005461626c65730000000000000000000084614199565b6020600061388b565b7f6f74000000000000000000000000000000000000000000000000000000000000867fffff000000000000000000000000000000000000000000000000000000000000160361340457857f8dbb3a9672eebfd3773e72dd9c102393436816d832c7ba9e1e1ac8fcadcac7a9868686866040516133f7949392919061522f565b60405180910390a2611850565b600061340f87613dfe565b905060005b81518110156134e857600082828151811061343157613431614a2c565b6020026020010151905061345d6001826affffffffffffffffffffff1916613e8790919063ffffffff16565b156134df576040517f57066c9c000000000000000000000000000000000000000000000000000000008152606082901c906357066c9c906134ac908c908c908c908c908c908c9060040161526e565b600060405180830381600087803b1580156134c657600080fd5b505af11580156134da573d6000803e3d6000fd5b505050505b50600101613414565b50867f8dbb3a9672eebfd3773e72dd9c102393436816d832c7ba9e1e1ac8fcadcac7a98787878760405161351f949392919061522f565b60405180910390a260006135338888613835565b9050600060208701905061354b8260008951846141b5565b600061355685612c8d565b11156135da5760006135688a8a613d39565b878155905060208601915060008060005b61358288612c8d565b8160ff1610156135d5576135978d8d83612cdd565b92506135b28a8260ff166028026038011c64ffffffffff1690565b91506135c183600084886141b5565b6135cb8286614a19565b9450600101613579565b505050505b60005b83518110156113855760008482815181106135fa576135fa614a2c565b602002602001015190506136266002826affffffffffffffffffffff1916613e8790919063ffffffff16565b156136a8576040517f5b28cdaf000000000000000000000000000000000000000000000000000000008152606082901c90635b28cdaf90613675908e908e908e908e908e908e9060040161526e565b600060405180830381600087803b15801561368f57600080fd5b505af11580156136a3573d6000803e3d6000fd5b505050505b506001016135dd565b6040805160028082526060820183526000928392919060208301908036833701905050905083816000815181106136ea576136ea614a2c565b602002602001018181525050826001600160a01b031660001b8160018151811061371657613716614a2c565b6020908102919091010152600061376e7f7462776f726c640000000000000000005265736f75726365416363657373000083837e0101000100000000000000000000000000000000000000000000000000000061241d565b90506129c58160f81c90565b600061378860706010614a19565b9190911b919050565b606060005b60108110156137f6577fffffffffffffffffffffffffffffffff000000000000000000000000000000008316600882021b7fff0000000000000000000000000000000000000000000000000000000000000016156137f657600101613796565b604080517fffffffffffffffffffffffffffffffff00000000000000000000000000000000851660208201528151603090910190915281815280611a6f565b6000828260405160200161384a929190615162565b60408051601f1981840301815291905280516020909101207f86425bff6b57326c7859e89024fe4f238ca327a1ae4a230180dd2f0e88aaa7d9189392505050565b6000602082106138b1576020820484019350602082816138ad576138ad6149cb565b0691505b508254600882021b602082900380841115612ef8576001850154600882021c82179150509392505050565b7f7462000000000000000000000000000000000000000000000000000000000000877fffff000000000000000000000000000000000000000000000000000000000000161461399c577f7462000000000000000000000000000000000000000000000000000000000000878860405160200161395a91815260200190565b60408051601f19818403018152908290527f31b466830000000000000000000000000000000000000000000000000000000082526103d39392916004016152c7565b60006139b7828760ff166028026038011c64ffffffffff1690565b9050600083518564ffffffffff16836139d0919061514f565b6139da9190614a19565b90508082141580156139fc5750816139f28688615308565b64ffffffffff1614155b15613a4c576040517fa65010b400000000000000000000000000000000000000000000000000000000815264ffffffffff80881660048301528087166024830152831660448201526064016103d3565b818664ffffffffff161115613a9d576040517f7e8578d30000000000000000000000000000000000000000000000000000000081526004810183905264ffffffffff871660248201526044016103d3565b6000613aaa848984614274565b90506000613ab78b613dfe565b905060005b8151811015613b82576000828281518110613ad957613ad9614a2c565b60200260200101519050613b056010826affffffffffffffffffffff1916613e8790919063ffffffff16565b15613b7957606081901c6001600160a01b03166355eb5a288e8e8e8e8e8d8f6040518863ffffffff1660e01b8152600401613b469796959493929190615326565b600060405180830381600087803b158015613b6057600080fd5b505af1158015613b74573d6000803e3d6000fd5b505050505b50600101613abc565b5064ffffffffff881660005b8a60ff168160ff161015613bc157613bb5878260ff166028026038011c64ffffffffff1690565b90910190600101613b8e565b508b7ffe158a7adba34e256807c8a149028d3162918713c3838afc643ce9f96716ebfd8c8c848c888d604051613bfc96959493929190615384565b60405180910390a250828414613c1d576000613c188c8c613d39565b839055505b6000613c2a8c8c8c612cdd565b9050613c3e818a64ffffffffff1689613ea5565b5060005b8151811015613d08576000828281518110613c5f57613c5f614a2c565b60200260200101519050613c8b6020826affffffffffffffffffffff1916613e8790919063ffffffff16565b15613cff57606081901c6001600160a01b031663635845338e8e8e8e8e8a8f6040518863ffffffff1660e01b8152600401613ccc9796959493929190615326565b600060405180830381600087803b158015613ce657600080fd5b505af1158015613cfa573d6000803e3d6000fd5b505050505b50600101613c42565b505050505050505050505050565b60405160208101601f19603f8484010116604052828252612ef885858584612d5d565b60008282604051602001613d4e929190615162565b60408051601f1981840301815291905280516020909101207f14e2fcc58e58e68ec7edc30c8d50dccc3ce2714a623ec81f46b6a63922d76569189392505050565b60606000613d9d8560801c90565b90506fffffffffffffffffffffffffffffffff85166000858281613dc357613dc36149cb565b04905060405193506020840160208202810160405281855260005b82811015612bea578451871c825293870193602090910190600101613dde565b60408051600180825281830190925260609160009190602080830190803683370190505090508281600081518110613e3857613e38614a2c565b60209081029190910101526000613e707f746273746f726500000000000000000053746f7265486f6f6b730000000000008383614342565b9050611a6f613e828260008451612e28565b61437c565b60008160ff1682613e988560581c90565b1660ff1614905092915050565b61157c83838351613eb68560200190565b6141b5565b602081015160408201516000906129a0565b60408051600180825281830190925260009182918291602080830190803683370190505090508381600081518110613f0757613f07614a2c565b602090810291909101015260008080613f607f7462776f726c6400000000000000000053797374656d73000000000000000000857e150200140100000000000000000000000000000000000000000000000000006125e6565b9250925092506116ba83838361438d565b6123db8282614399565b604080516001808252818301909252600091829190602080830190803683370190505090508281600081518110613fb457613fb4614a2c565b60209081029190910101526000611a6f7f7462776f726c6400000000000000000042616c616e636573000000000000000083837e20010020000000000000000000000000000000000000000000000000000000612b69565b60408051600180825281830190925260009160208083019080368337019050509050828160008151811061404257614042614a2c565b60200260200101818152505061157c7f7462776f726c6400000000000000000042616c616e636573000000000000000060001b8260008560405160200161408b91815260200190565b60408051601f198184030181529190527e200100200000000000000000000000000000000000000000000000000000006127c1565b60006060836001600160a01b031660006140db8589896143f7565b6040516140e89190614f6f565b60006040518083038185875af1925050503d8060008114614125576040519150601f19603f3d011682016040523d82523d6000602084013e61412a565b606091505b509097909650945050505050565b60006060836001600160a01b03166141518488886143f7565b60405161415e9190614f6f565b600060405180830381855af49150503d8060008114614125576040519150601f19603f3d011682016040523d82523d6000602084013e61412a565b604080516020810184905290810182905260009060600161384a565b821561422f57602083106141df576020830484019350602083816141db576141db6149cb565b0692505b821561422f5760208390036000600019600885021c1990506008850281811c91508351811c9050811987541682821617875550818411614220575050612e22565b50600194909401939182900391015b5b602082106142515780518455600190930192601f1990910190602001614230565b8115612e22576000600019600884021c8554835182191691161785555050505050565b600064ffffffffff8211156142b8576040517f7149a3c1000000000000000000000000000000000000000000000000000000008152600481018390526024016103d3565b8366ffffffffffffff811660ff851660280260380182901c64ffffffffff168085106142ea57808503820191506142f2565b848103820391505b5064ffffffffff6038602860ff8816020181811b197fffffffffffffffffffffffffffffffffffffffffffffffffff000000000000009490941690921792909216918416901b1790509392505050565b6060611a6f614352858585612cdd565b6000614377856143628989612cca565b9060ff166028026038011c64ffffffffff1690565b613d16565b606060006121918360156000613d8f565b60008061209185614426565b60006143e77f6e730000000000000000000000000000000000000000000000000000000000007dffffffffffffffffffffffffffff0000000000000000000000000000000085161783614443565b8061219157506121918383614443565b606083838360405160200161440e939291906153e0565b60405160208183030381529060405290509392505050565b6020810151603482015160609190911c906000906129a090612738565b60408051600280825260608201835260009283929190602083019080368337019050509050838160008151811061447c5761447c614a2c565b602002602001018181525050826001600160a01b031660001b816001815181106144a8576144a8614a2c565b6020908102919091010152600061376e7f7462776f726c640000000000000000005265736f75726365416363657373000083837e01010001000000000000000000000000000000000000000000000000000000612b69565b60006020828403121561451257600080fd5b81357fffffffff000000000000000000000000000000000000000000000000000000008116811461219157600080fd5b634e487b7160e01b600052604160045260246000fd5b6040516060810167ffffffffffffffff8111828210171561457b5761457b614542565b60405290565b604051610140810167ffffffffffffffff8111828210171561457b5761457b614542565b604051601f8201601f1916810167ffffffffffffffff811182821017156145ce576145ce614542565b604052919050565b600067ffffffffffffffff8211156145f0576145f0614542565b5060051b60200190565b6000806000606080858703121561461057600080fd5b84359350602080860135935060408087013567ffffffffffffffff81111561463757600080fd5b8701601f8101891361464857600080fd5b803561465b614656826145d6565b6145a5565b81815260609091028201840190848101908b83111561467957600080fd5b928501925b828410156146c15786848d0312156146965760008081fd5b61469e614558565b84358152868501358782015285850135868201528252928601929085019061467e565b809750505050505050509250925092565b80356003811061232f57600080fd5b80151581146146ef57600080fd5b50565b803561232f816146e1565b600082601f83011261470e57600080fd5b8135602061471e614656836145d6565b8083825260208201915060208460051b87010193508684111561474057600080fd5b602086015b8481101561475c5780358352918301918301614745565b509695505050505050565b60006020828403121561477957600080fd5b813567ffffffffffffffff8082111561479157600080fd5b9083019061014082860312156147a657600080fd5b6147ae614581565b6147b7836146d2565b815260208301356020820152604083013560408201526147d9606084016146f2565b60608201526080830135608082015260a083013560a082015260c083013560c082015261480860e084016146f2565b60e0820152610100808401358381111561482157600080fd5b61482d888287016146fd565b828401525050610120808401358381111561484757600080fd5b614853888287016146fd565b918301919091525095945050505050565b60008060006060848603121561487957600080fd5b614882846146d2565b9250602084013567ffffffffffffffff8082111561489f57600080fd5b6148ab878388016146fd565b935060408601359150808211156148c157600080fd5b506148ce868287016146fd565b9150509250925092565b6001600160a01b03811681146146ef57600080fd5b6000806040838503121561490057600080fd5b823561490b816148d8565b9150602083013567ffffffffffffffff81111561492757600080fd5b614933858286016146fd565b9150509250929050565b6000806040838503121561495057600080fd5b50508035926020909101359150565b60008060006060848603121561497457600080fd5b8335925060208401359150604084013561498d816146e1565b809150509250925092565b6000602082840312156149aa57600080fd5b8151612191816148d8565b634e487b7160e01b600052602160045260246000fd5b634e487b7160e01b600052601260045260246000fd5b6000826149fe57634e487b7160e01b600052601260045260246000fd5b500690565b634e487b7160e01b600052601160045260246000fd5b808201808211156102b2576102b2614a03565b634e487b7160e01b600052603260045260246000fd5b600060208284031215614a5457600080fd5b8151612191816146e1565b60006000198203614a7257614a72614a03565b5060010190565b60008151808452602080850194506020840160005b83811015614aaa57815187529582019590820190600101614a8e565b509495945050505050565b608081526000614ac86080830187614a79565b8281036020840152614ada8187614a79565b91505061ffff808516604084015280841660608401525095945050505050565b60008060408385031215614b0d57600080fd5b8251614b18816146e1565b6020840151909250614b29816146e1565b809150509250929050565b600381106146ef57634e487b7160e01b600052602160045260246000fd5b614b5b85614b34565b848152608060208201526000614b746080830186614a79565b8281036040840152614b868186614a79565b91505082606083015295945050505050565b600080600060608486031215614bad57600080fd5b835192506020808501519250604085015167ffffffffffffffff811115614bd357600080fd5b8501601f81018713614be457600080fd5b8051614bf2614656826145d6565b81815260059190911b82018301908381019089831115614c1157600080fd5b928401925b82841015614c2f57835182529284019290840190614c16565b80955050505050509250925092565b60006040808301858452602060406020860152818651808452606093506060870191506020880160005b82811015614c95578151805185528581015186860152870151878501529285019290840190600101614c68565b50919998505050505050505050565b60005b83811015614cbf578181015183820152602001614ca7565b50506000910152565b60008151808452614ce0816020860160208601614ca4565b601f01601f19169290920160200192915050565b838152614d0083614b34565b8260208201526060604082015260006129c56060830184614cc8565b838152606060208201526000614d356060830185614a79565b9050826040830152949350505050565b600082601f830112614d5657600080fd5b815167ffffffffffffffff811115614d7057614d70614542565b614d836020601f19601f840116016145a5565b818152846020838601011115614d9857600080fd5b611a6f826020830160208701614ca4565b600080600060608486031215614dbe57600080fd5b835167ffffffffffffffff80821115614dd657600080fd5b614de287838801614d45565b9450602086015193506040860151915080821115614dff57600080fd5b506148ce86828701614d45565b85815260a060208201526000614e2560a0830187614a79565b60ff861660408401528281036060840152614e408186614cc8565b9150508260808301529695505050505050565b6000815160208301517fffffffff0000000000000000000000000000000000000000000000000000000080821693506004831015614e9b5780818460040360031b1b83161693505b505050919050565b614eac89614b34565b60f898891b815260018101979097526021870195909552921515861b6041860152604285019190915260628401526082830152151590911b60a282015260a30190565b60008351614f01818460208801614ca4565b835190830190614f15818360208801614ca4565b01949350505050565b85815260a060208201526000614f3760a0830187614a79565b8281036040840152614f498187614cc8565b90508460608401528281036080840152614f638185614cc8565b98975050505050505050565b60008251614f81818460208701614ca4565b9190910192915050565b604081526000614f9e6040830185614cc8565b90506001600160a01b03831660208301529392505050565b848152608060208201526000614fcf6080830186614a79565b60ff949094166040830152506060015292915050565b600060208284031215614ff757600080fd5b5051919050565b8481526080602082015260006150176080830186614a79565b60ff8516604084015282810360608401526150328185614cc8565b979650505050505050565b600060ff821660ff810361505357615053614a03565b60010192915050565b828152604060208201526000611a6f6040830184614cc8565b60006020828403121561508757600080fd5b815167ffffffffffffffff81111561509e57600080fd5b611a6f84828501614d45565b7fffff0000000000000000000000000000000000000000000000000000000000008416815260007f3a00000000000000000000000000000000000000000000000000000000000000806002840152845161510b816003860160208901614ca4565b80840190508160038201528451915061512b826004830160208801614ca4565b0160040195945050505050565b80820281158282048414176102b2576102b2614a03565b818103818111156102b2576102b2614a03565b8281526000602080830184516020860160005b8281101561519157815184529284019290840190600101615175565b5091979650505050505050565b6060815260006151b16060830186614cc8565b60208301949094525060400152919050565b6060815260006151d66060830186614a79565b65ffffffffffff8516602084015282810360408401526114be8185614cc8565b84815260806020820152600061520f6080830186614a79565b65ffffffffffff8516604084015282810360608401526150328185614cc8565b6080815260006152426080830187614a79565b82810360208401526152548187614cc8565b905084604084015282810360608401526150328185614cc8565b86815260c06020820152600061528760c0830188614a79565b82810360408401526152998188614cc8565b905085606084015282810360808401526152b38186614cc8565b9150508260a0830152979650505050505050565b7fffff000000000000000000000000000000000000000000000000000000000000841681528260208201526060604082015260006129c56060830184614cc8565b64ffffffffff818116838216019080821115610ed457610ed4614a03565b87815260e06020820152600061533f60e0830189614a79565b60ff8816604084015264ffffffffff87811660608501528616608084015260a0830185905282810360c08401526153768185614cc8565b9a9950505050505050505050565b60c08152600061539760c0830189614a79565b60ff8816602084015265ffffffffffff8716604084015264ffffffffff8616606084015284608084015282810360a08401526153d38185614cc8565b9998505050505050505050565b600084516153f2818460208901614ca4565b60609490941b7fffffffffffffffffffffffffffffffffffffffff000000000000000000000000169190930190815260148101919091526034019291505056fea26469706673582212203b0b41dc9dbee8bf4e0018a84d877e745ded8c4eb6a84680bff94a4c712059bb64736f6c63430008180033","linkReferences":{}},"methodIdentifiers":{"_msgSender()":"119df25f","_msgValue()":"45ec9354","_world()":"e1af802c","checkForEncounterEnd((uint8,uint256,uint256,bool,uint256,uint256,uint256,bool,bytes32[],bytes32[]))":"1e45d614","createEncounter(uint8,bytes32[],bytes32[])":"2c86e0e2","endEncounter(bytes32,uint256,bool)":"e903546c","endTurn(bytes32,bytes32,(bytes32,bytes32,uint256)[])":"1b3561d3","isParticipant(address,bytes32[])":"b2467894","isParticipant(bytes32,bytes32)":"c6ca743c","supportsInterface(bytes4)":"01ffc9a7"},"id":256}