{"abi":[{"type":"function","name":"_msgSender","inputs":[],"outputs":[{"name":"sender","type":"address","internalType":"address"}],"stateMutability":"view"},{"type":"function","name":"_msgValue","inputs":[],"outputs":[{"name":"value","type":"uint256","internalType":"uint256"}],"stateMutability":"pure"},{"type":"function","name":"_world","inputs":[],"outputs":[{"name":"","type":"address","internalType":"address"}],"stateMutability":"view"},{"type":"function","name":"checkForEncounterEnd","inputs":[{"name":"encounterData","type":"tuple","internalType":"struct CombatEncounterData","components":[{"name":"encounterType","type":"uint8","internalType":"enum EncounterType"},{"name":"start","type":"uint256","internalType":"uint256"},{"name":"end","type":"uint256","internalType":"uint256"},{"name":"rewardsDistributed","type":"bool","internalType":"bool"},{"name":"currentTurn","type":"uint256","internalType":"uint256"},{"name":"currentTurnTimer","type":"uint256","internalType":"uint256"},{"name":"maxTurns","type":"uint256","internalType":"uint256"},{"name":"attackersAreMobs","type":"bool","internalType":"bool"},{"name":"defenders","type":"bytes32[]","internalType":"bytes32[]"},{"name":"attackers","type":"bytes32[]","internalType":"bytes32[]"}]}],"outputs":[{"name":"_encounterEnded","type":"bool","internalType":"bool"},{"name":"_attackersWin","type":"bool","internalType":"bool"}],"stateMutability":"view"},{"type":"function","name":"createEncounter","inputs":[{"name":"encounterType","type":"uint8","internalType":"enum EncounterType"},{"name":"group1","type":"bytes32[]","internalType":"bytes32[]"},{"name":"group2","type":"bytes32[]","internalType":"bytes32[]"}],"outputs":[{"name":"encounterId","type":"bytes32","internalType":"bytes32"}],"stateMutability":"nonpayable"},{"type":"function","name":"endEncounter","inputs":[{"name":"encounterId","type":"bytes32","internalType":"bytes32"},{"name":"randomNumber","type":"uint256","internalType":"uint256"},{"name":"attackersWin","type":"bool","internalType":"bool"}],"outputs":[],"stateMutability":"nonpayable"},{"type":"function","name":"endTurn","inputs":[{"name":"encounterId","type":"bytes32","internalType":"bytes32"},{"name":"playerId","type":"bytes32","internalType":"bytes32"},{"name":"attacks","type":"tuple[]","internalType":"struct Action[]","components":[{"name":"attackerEntityId","type":"bytes32","internalType":"bytes32"},{"name":"defenderEntityId","type":"bytes32","internalType":"bytes32"},{"name":"itemId","type":"uint256","internalType":"uint256"}]}],"outputs":[],"stateMutability":"payable"},{"type":"function","name":"isAttacker","inputs":[{"name":"encounterId","type":"bytes32","internalType":"bytes32"},{"name":"entityId","type":"bytes32","internalType":"bytes32"}],"outputs":[{"name":"_isAttacker","type":"bool","internalType":"bool"}],"stateMutability":"nonpayable"},{"type":"function","name":"isDefender","inputs":[{"name":"encounterId","type":"bytes32","internalType":"bytes32"},{"name":"entityId","type":"bytes32","internalType":"bytes32"}],"outputs":[{"name":"_isDefender","type":"bool","internalType":"bool"}],"stateMutability":"nonpayable"},{"type":"function","name":"isInEncounter","inputs":[{"name":"entityId","type":"bytes32","internalType":"bytes32"}],"outputs":[{"name":"","type":"bool","internalType":"bool"}],"stateMutability":"view"},{"type":"function","name":"isParticipant","inputs":[{"name":"account","type":"address","internalType":"address"},{"name":"participants","type":"bytes32[]","internalType":"bytes32[]"}],"outputs":[{"name":"_isParticipant","type":"bool","internalType":"bool"}],"stateMutability":"view"},{"type":"function","name":"isParticipant","inputs":[{"name":"playerId","type":"bytes32","internalType":"bytes32"},{"name":"encounterId","type":"bytes32","internalType":"bytes32"}],"outputs":[{"name":"_isParticipant","type":"bool","internalType":"bool"}],"stateMutability":"view"},{"type":"function","name":"supportsInterface","inputs":[{"name":"interfaceId","type":"bytes4","internalType":"bytes4"}],"outputs":[{"name":"","type":"bool","internalType":"bool"}],"stateMutability":"pure"},{"type":"event","name":"Store_SetRecord","inputs":[{"name":"tableId","type":"bytes32","indexed":true,"internalType":"ResourceId"},{"name":"keyTuple","type":"bytes32[]","indexed":false,"internalType":"bytes32[]"},{"name":"staticData","type":"bytes","indexed":false,"internalType":"bytes"},{"name":"encodedLengths","type":"bytes32","indexed":false,"internalType":"EncodedLengths"},{"name":"dynamicData","type":"bytes","indexed":false,"internalType":"bytes"}],"anonymous":false},{"type":"event","name":"Store_SpliceDynamicData","inputs":[{"name":"tableId","type":"bytes32","indexed":true,"internalType":"ResourceId"},{"name":"keyTuple","type":"bytes32[]","indexed":false,"internalType":"bytes32[]"},{"name":"dynamicFieldIndex","type":"uint8","indexed":false,"internalType":"uint8"},{"name":"start","type":"uint48","indexed":false,"internalType":"uint48"},{"name":"deleteCount","type":"uint40","indexed":false,"internalType":"uint40"},{"name":"encodedLengths","type":"bytes32","indexed":false,"internalType":"EncodedLengths"},{"name":"data","type":"bytes","indexed":false,"internalType":"bytes"}],"anonymous":false},{"type":"event","name":"Store_SpliceStaticData","inputs":[{"name":"tableId","type":"bytes32","indexed":true,"internalType":"ResourceId"},{"name":"keyTuple","type":"bytes32[]","indexed":false,"internalType":"bytes32[]"},{"name":"start","type":"uint48","indexed":false,"internalType":"uint48"},{"name":"data","type":"bytes","indexed":false,"internalType":"bytes"}],"anonymous":false},{"type":"error","name":"EncodedLengths_InvalidLength","inputs":[{"name":"length","type":"uint256","internalType":"uint256"}]},{"type":"error","name":"Slice_OutOfBounds","inputs":[{"name":"data","type":"bytes","internalType":"bytes"},{"name":"start","type":"uint256","internalType":"uint256"},{"name":"end","type":"uint256","internalType":"uint256"}]},{"type":"error","name":"Store_IndexOutOfBounds","inputs":[{"name":"length","type":"uint256","internalType":"uint256"},{"name":"accessedIndex","type":"uint256","internalType":"uint256"}]},{"type":"error","name":"Store_InvalidResourceType","inputs":[{"name":"expected","type":"bytes2","internalType":"bytes2"},{"name":"resourceId","type":"bytes32","internalType":"ResourceId"},{"name":"resourceIdString","type":"string","internalType":"string"}]},{"type":"error","name":"Store_InvalidSplice","inputs":[{"name":"startWithinField","type":"uint40","internalType":"uint40"},{"name":"deleteCount","type":"uint40","internalType":"uint40"},{"name":"fieldLength","type":"uint40","internalType":"uint40"}]},{"type":"error","name":"World_AccessDenied","inputs":[{"name":"resource","type":"string","internalType":"string"},{"name":"caller","type":"address","internalType":"address"}]},{"type":"error","name":"World_FunctionSelectorNotFound","inputs":[{"name":"functionSelector","type":"bytes4","internalType":"bytes4"}]},{"type":"error","name":"World_ResourceNotFound","inputs":[{"name":"resourceId","type":"bytes32","internalType":"ResourceId"},{"name":"resourceIdString","type":"string","internalType":"string"}]}],"bytecode":{"object":"0x608060405234801561001057600080fd5b5061588280620000216000396000f3fe6080604052600436106100d25760003560e01c806345ec93541161007f578063c6ca743c11610059578063c6ca743c1461022b578063e1af802c1461024b578063e903546c14610260578063fdb4dcd01461028057600080fd5b806345ec9354146101d357806396eead59146101eb578063b24678941461020b57600080fd5b80631b45e23c116100b05780631b45e23c1461014e5780631e45d6141461016e5780632c86e0e2146101a557600080fd5b806301ffc9a7146100d7578063119df25f1461010c5780631b3561d314610139575b600080fd5b3480156100e357600080fd5b506100f76100f23660046148e1565b6102a0565b60405190151581526020015b60405180910390f35b34801561011857600080fd5b50610121610339565b6040516001600160a01b039091168152602001610103565b61014c6101473660046149db565b610348565b005b34801561015a57600080fd5b506100f7610169366004614ab3565b610774565b34801561017a57600080fd5b5061018e610189366004614b6a565b6107db565b604080519215158352901515602083015201610103565b3480156101b157600080fd5b506101c56101c0366004614c67565b6109a2565b604051908152602001610103565b3480156101df57600080fd5b5036601f1901356101c5565b3480156101f757600080fd5b506100f7610206366004614ab3565b610eef565b34801561021757600080fd5b506100f7610226366004614cf0565b610f4e565b34801561023757600080fd5b506100f7610246366004614ab3565b611024565b34801561025757600080fd5b506101216110da565b34801561026c57600080fd5b5061014c61027b366004614d40565b6110e4565b34801561028c57600080fd5b506100f761029b366004614d79565b61152a565b60007fffffffff0000000000000000000000000000000000000000000000000000000082167fb5dee12700000000000000000000000000000000000000000000000000000000148061033357507fffffffff0000000000000000000000000000000000000000000000000000000082167f01ffc9a700000000000000000000000000000000000000000000000000000000145b92915050565b600061034361153e565b905090565b600061035384611570565b9050600061035f6110da565b6001600160a01b0316634f10aabc856040518263ffffffff1660e01b815260040161038c91815260200190565b602060405180830381865afa1580156103a9573d6000803e3d6000fd5b505050506040513d601f19601f820116820180604052508101906103cd9190614d92565b905081602001516000141580156103e657506040820151155b61045d5760405162461bcd60e51b815260206004820152602360248201527f454e434f554e5445522053595354454d3a20494e56414c494420454e434f554e60448201527f544552000000000000000000000000000000000000000000000000000000000060648201526084015b60405180910390fd5b8160c001518260800151106104da5760405162461bcd60e51b815260206004820152602360248201527f454e434f554e5445522053595354454d3a204558504952454420454e434f554e60448201527f54455200000000000000000000000000000000000000000000000000000000006064820152608401610454565b6104e2610339565b6001600160a01b0316816001600160a01b031614801561050757506105078486611024565b6105535760405162461bcd60e51b815260206004820152601f60248201527f454e434f554e5445522053595354454d3a204e4f4e2d434f4d424154414e54006044820152606401610454565b60008251600281111561056857610568614daf565b03610763576002826080015161057e9190614ddb565b60000361068c57428260a00151601e6105979190614e13565b11610631576105a68486611024565b6105f25760405162461bcd60e51b815260206004820181905260248201527f454e434f554e5445522053595354454d3a20494e56414c49442043414c4c45526044820152606401610454565b61060181836101200151610f4e565b1561062c576001826080018181516106199190614e13565b905250608082015161062c908690611675565b610763565b61064081836101000151610f4e565b61062c5760405162461bcd60e51b815260206004820152601960248201527f43616e6e6f7420656e6420646566656e64657273207475726e000000000000006044820152606401610454565b428260a00151601e61069e9190614e13565b11610708576106ad8486611024565b6106f95760405162461bcd60e51b815260206004820181905260248201527f454e434f554e5445522053595354454d3a20494e56414c49442043414c4c45526044820152606401610454565b61060181836101000151610f4e565b61071781836101200151610f4e565b6107635760405162461bcd60e51b815260206004820152601960248201527f43616e6e6f7420656e642061747461636b657273207475726e000000000000006044820152606401610454565b61076d858461172e565b5050505050565b60008061078084611570565b905060005b816101000151518110156107d35781610100015181815181106107aa576107aa614e26565b602002602001015184036107c157600192506107d3565b806107cb81614e3c565b915050610785565b505092915050565b60008060008060005b856101000151518110156108a1576107fa6110da565b6001600160a01b031663525b0e1e876101000151838151811061081f5761081f614e26565b60200260200101516040518263ffffffff1660e01b815260040161084591815260200190565b602060405180830381865afa158015610862573d6000803e3d6000fd5b505050506040513d601f19601f820116820180604052508101906108869190614e56565b15610899578261089581614e3c565b9350505b6001016107e4565b5060005b85610120015151811015610962576108bb6110da565b6001600160a01b031663525b0e1e87610120015183815181106108e0576108e0614e26565b60200260200101516040518263ffffffff1660e01b815260040161090691815260200190565b602060405180830381865afa158015610923573d6000803e3d6000fd5b505050506040513d601f19601f820116820180604052508101906109479190614e56565b1561095a578161095681614e3c565b9250505b6001016108a5565b508461012001515181148061097c57508461010001515182145b8061098e57508460c001518560800151145b935084610100015151821492505050915091565b60006109b56109af610339565b84610f4e565b806109cc57506109cc6109c6610339565b83610f4e565b610a185760405162461bcd60e51b815260206004820181905260248201527f454e434f554e5445522053595354454d3a20494e56414c49442053454e4445526044820152606401610454565b600080610a3e85600081518110610a3157610a31614e26565b60200260200101516117eb565b91509150600080610a4f878761189c565b90925090506001886002811115610a6857610a68614daf565b03610bdd57600080610a786110da565b6001600160a01b031663c6d5525b858589896040518563ffffffff1660e01b8152600401610aa99493929190614eaf565b6040805180830381865afa158015610ac5573d6000803e3d6000fd5b505050506040513d601f19601f82011682018060405250810190610ae99190614ef4565b9150915081610b3a5760405162461bcd60e51b815260206004820152601d60248201527f454e434f554e5445522053595354454d3a20494e56414c4944205056450000006044820152606401610454565b6040514290610b53908c90879087908590602001614f4c565b60405160208183030381529060405280519060200120975060006040518061014001604052808d6002811115610b8b57610b8b614daf565b81526020018381526020016000815260200160001515815260200160018152602001428152602001600f81526020018415158152602001868152602001878152509050610bd88982611951565b505050505b6000886002811115610bf157610bf1614daf565b03610d5d57610bfe6110da565b6001600160a01b0316632933423f838387876040518563ffffffff1660e01b8152600401610c2f9493929190614eaf565b602060405180830381865afa158015610c4c573d6000803e3d6000fd5b505050506040513d601f19601f82011682018060405250810190610c709190614e56565b610cbc5760405162461bcd60e51b815260206004820152601d60248201527f454e434f554e5445522053595354454d3a20494e56414c4944205056500000006044820152606401610454565b6040514290610cd5908a90859085908590602001614f4c565b60405160208183030381529060405280519060200120955060006040518061014001604052808b6002811115610d0d57610d0d614daf565b81526020810184905260006040820181905260608201819052600160808301524260a0830152600f60c083015260e08201526101008101859052610120018590529050610d5a8782611951565b50505b60408051608081018252600080825260208201819052918101829052606080820152905b8351811015610e3d57610dac848281518110610d9f57610d9f614e26565b6020026020010151611a2d565b8051909250158015610dc057508160200151155b610e0c5760405162461bcd60e51b815260206004820181905260248201527f454e434f554e5445522053595354454d3a20494e56414c494420454e544954596044820152606401610454565b8682528351610e3590859083908110610e2757610e27614e26565b602002602001015183611af1565b600101610d81565b5060005b8251811015610ee257610e5f838281518110610d9f57610d9f614e26565b8051909250158015610e7357508160200151155b610ebf5760405162461bcd60e51b815260206004820181905260248201527f454e434f554e5445522053595354454d3a20494e56414c494420454e544954596044820152606401610454565b8682528251610eda90849083908110610e2757610e27614e26565b600101610e41565b5050505050509392505050565b600080610efb84611570565b905060005b816101200151518110156107d3578161012001518181518110610f2557610f25614e26565b60200260200101518403610f3c57600192506107d3565b80610f4681614e3c565b915050610f00565b6000805b825181101561101d57610f636110da565b6001600160a01b0316634f10aabc848381518110610f8357610f83614e26565b60200260200101516040518263ffffffff1660e01b8152600401610fa991815260200190565b602060405180830381865afa158015610fc6573d6000803e3d6000fd5b505050506040513d601f19601f82011682018060405250810190610fea9190614d92565b6001600160a01b0316846001600160a01b03160361100b576001915061101d565b8061101581614e3c565b915050610f52565b5092915050565b60008061103083611570565b905060005b8161012001515181101561108357816101200151818151811061105a5761105a614e26565b602002602001015185036110715760019250611083565b8061107b81614e3c565b915050611035565b508161101d5760005b816101000151518110156107d35781610100015181815181106110b1576110b1614e26565b602002602001015185036110c857600192506107d3565b806110d281614e3c565b91505061108c565b6000610343611b9e565b6110f5306110f0610339565b611ba8565b600061110084611570565b905061110b84611bbe565b156111585760405162461bcd60e51b815260206004820152601660248201527f656e636f756e74657220616c7265616479206f766572000000000000000000006044820152606401610454565b46617a69036111765761116b8443611c58565b436040820152611187565b6111808442611c58565b4260408201525b6000808060606001855160028111156111a2576111a2614daf565b0361124d576111af6110da565b6040517f49572ff1000000000000000000000000000000000000000000000000000000008152600481018a9052602481018990526001600160a01b0391909116906349572ff1906044015b6000604051808303816000875af1158015611219573d6000803e3d6000fd5b505050506040513d6000823e601f3d908101601f191682016040526112419190810190614f92565b91945092509050611306565b60008551600281111561126257611262614daf565b036112be5761126f6110da565b6040517f25e62d82000000000000000000000000000000000000000000000000000000008152600481018a9052602481018990526001600160a01b0391909116906325e62d82906044016111fa565b60405162461bcd60e51b815260206004820152601c60248201527f756e7265636f676e697a656420656e6f636f756e7465722074797065000000006044820152606401610454565b6040805160c08101825242815287151560208201526000918101829052606081018590526080810184905260a081018390529080604051908082528060200260200182016040528015611363578160200160208202803683370190505b50905060005b8761012001515181101561143757876101200151818151811061138e5761138e614e26565b602002602001015196506113a5876000801b611cd7565b6113af8783611d8b565b6113b887611e01565b1561142f576113c56110da565b6001600160a01b031663f547ccbd886040518263ffffffff1660e01b81526004016113f291815260200190565b600060405180830381600087803b15801561140c57600080fd5b505af1158015611420573d6000803e3d6000fd5b5050505061142f876001611e9f565b600101611369565b5060005b8761010001515181101561151357876101000151818151811061146057611460614e26565b60200260200101519650611477876000801b611cd7565b6114818783611d8b565b61148a87611e01565b1561150b576114976110da565b6001600160a01b031663f547ccbd886040518263ffffffff1660e01b81526004016114c491815260200190565b600060405180830381600087803b1580156114de57600080fd5b505af11580156114f2573d6000803e3d6000fd5b50505050611501876001611e9f565b61150b8783611f23565b60010161143b565b5061151e8a83611f94565b50505050505050505050565b6000806115368361208b565b141592915050565b7fffffffffffffffffffffffffffffffffffffffffffffffffffffffffffffffcc36013560601c8061156d5750335b90565b6115cb6040805161014081019091528060008152602001600081526020016000815260200160001515815260200160008152602001600081526020016000815260200160001515815260200160608152602001606081525090565b60408051600180825281830190925260009160208083019080368337019050509050828160008151811061160157611601614e26565b60209081029190910101526000808061165a7f74625544000000000000000000000000436f6d626174456e636f756e74657200857ea308020120200120202001000000000000000000000000000000000000000061211c565b92509250925061166b8383836121ec565b9695505050505050565b6040805160018082528183019092526000916020808301908036833701905050905082816000815181106116ab576116ab614e26565b6020026020010181815250506117297f74625544000000000000000000000000436f6d626174456e636f756e7465720060001b826004856040516020016116f491815260200190565b60408051601f198184030181529190527ea30802012020012020200100000000000000000000000000000000000000006122cf565b505050565b6117568160008151811061174457611744614e26565b60200260200101516000015142612378565b611729826002848460405160200161176f929190615038565b60408051601f198184030181529082905261178e9392916024016150ee565b60408051601f198184030181529190526020810180517bffffffffffffffffffffffffffffffffffffffffffffffffffffffff167fb2aa60a400000000000000000000000000000000000000000000000000000000179052612414565b6040805160018082528183019092526000918291829160208083019080368337019050509050838160008151811061182557611825614e26565b60209081029190910101526000808061187e7f74625544000000000000000000000000506f736974696f6e0000000000000000857e0402000202000000000000000000000000000000000000000000000000000061211c565b92509250925061188f8383836124c2565b9550955050505050915091565b60608060008060005b86518110156118e4576118d08782815181106118c3576118c3614e26565b60200260200101516124e5565b6118da9084615116565b92506001016118a5565b5060005b855181101561191a576119068682815181106118c3576118c3614e26565b6119109083615116565b91506001016118e8565b508082131561192e57859350849250611948565b8181131561194157849350859250611948565b8593508492505b50509250929050565b6000611983826000015183602001518460400151856060015186608001518760a001518860c001518960e00151612577565b9050600061199b8361010001518461012001516125b5565b905060006119b38461010001518561012001516125e0565b604080516001808252818301909252919250600091906020808301908036833701905050905085816000815181106119ed576119ed614e26565b6020908102919091010152611a257f74625544000000000000000000000000436f6d626174456e636f756e746572008286868661261c565b505050505050565b604080516080810182526000808252602082018190528183018190526060808301528251600180825281850190945291929091908160200160208202803683370190505090508281600081518110611a8757611a87614e26565b602090810291909101015260008080611ae07f74625544000000000000000000000000456e636f756e746572456e7469747900857e4103012001200000000000000000000000000000000000000000000000000061211c565b92509250925061166b838383612692565b6000611b0a8260000151836020015184604001516126e2565b90506000611b1b8360600151612725565b90506000611b2c8460600151612738565b60408051600180825281830190925291925060009190602080830190803683370190505090508581600081518110611b6657611b66614e26565b6020908102919091010152611a257f74625544000000000000000000000000456e636f756e746572456e74697479008286868661261c565b6000610343612769565b611bba611bb4836127a8565b8261282d565b5050565b604080516001808252818301909252600091829190602080830190803683370190505090508281600081518110611bf757611bf7614e26565b60209081029190910101526000611c507f74625544000000000000000000000000436f6d626174456e636f756e746572008360027ea3080201202001202020010000000000000000000000000000000000000000612879565b949350505050565b604080516001808252818301909252600091602080830190803683370190505090508281600081518110611c8e57611c8e614e26565b6020026020010181815250506117297f74625544000000000000000000000000436f6d626174456e636f756e7465720060001b826002856040516020016116f491815260200190565b604080516001808252818301909252600091602080830190803683370190505090508281600081518110611d0d57611d0d614e26565b6020026020010181815250506117297f74625544000000000000000000000000456e636f756e746572456e746974790060001b82600085604051602001611d5691815260200190565b60408051601f198184030181529190527e410301200120000000000000000000000000000000000000000000000000006122cf565b604080516001808252818301909252600091602080830190803683370190505090508281600081518110611dc157611dc1614e26565b60209081029190910101526117297f74625544000000000000000000000000456e636f756e746572456e7469747900826000611dfc86612936565b612946565b604080516001808252818301909252600091829190602080830190803683370190505090508281600081518110611e3a57611e3a614e26565b60209081029190910101526000611e937f74625544000000000000000000000000456e636f756e746572456e74697479008360017e41030120012000000000000000000000000000000000000000000000000000612879565b9050611c508160f81c90565b604080516001808252818301909252600091602080830190803683370190505090508281600081518110611ed557611ed5614e26565b6020026020010181815250506117297f74625544000000000000000000000000456e636f756e746572456e746974790060001b82600185604051602001611d5691151560f81b815260010190565b604080516001808252818301909252600091602080830190803683370190505090508281600081518110611f5957611f59614e26565b60209081029190910101526117297f74625544000000000000000000000000576f726c645374617475734566666563826000611dfc86612936565b6000611ff78260000151836020015184604001518560600151866080015160408051602081019690965293151560f890811b8686015292151590921b60418501526042840152606280840191909152815180840390910181526082909201905290565b905060006120088360a00151612725565b905060006120198460a00151612738565b6040805160018082528183019092529192506000919060208083019080368337019050509050858160008151811061205357612053614e26565b6020908102919091010152611a257f6f745544000000000000000000000000436f6d6261744f7574636f6d650000008286868661261c565b6040805160018082528183019092526000918291906020808301908036833701905050905082816000815181106120c4576120c4614e26565b60209081029190910101526000611c507f74625544000000000000000000000000456e636f756e746572456e746974790083837e41030120012000000000000000000000000000000000000000000000000000612879565b606060006060600061212c612769565b9050306001600160a01b03821603612155576121498787876129f7565b935093509350506121e3565b6040517f419b58fd0000000000000000000000000000000000000000000000000000000081526001600160a01b0382169063419b58fd9061219e908a908a908a90600401615136565b600060405180830381865afa1580156121bb573d6000803e3d6000fd5b505050506040513d6000823e601f3d908101601f1916820160405261214991908101906151c3565b93509350939050565b6122476040805161014081019091528060008152602001600081526020016000815260200160001515815260200160008152602001600081526020016000815260200160001515815260200160608152602001606081525090565b61225084612aff565b80151560e08a015260c0890182905260a089018390526080890184905284151560608a015260408901869052602089018790528888600281111561229657612296614daf565b60028111156122a7576122a7614daf565b81525050505050505050506122bc8383612b83565b6101208301526101008201529392505050565b60006122d9612769565b9050306001600160a01b038216036122fd576122f88686868686612bd2565b611a25565b6040517f390baae00000000000000000000000000000000000000000000000000000000081526001600160a01b0382169063390baae09061234a9089908990899089908990600401615226565b600060405180830381600087803b15801561236457600080fd5b505af115801561151e573d6000803e3d6000fd5b6040805160018082528183019092526000916020808301908036833701905050905082816000815181106123ae576123ae614e26565b6020026020010181815250506117297f7462554400000000000000000000000053657373696f6e54696d65720000000060001b826000856040516020016123f791815260200190565b60408051601f19818403018152919052630100080160dd1b6122cf565b606060008061242a6124258561526d565b612be7565b91509150816000801b03612490576040517ffdde54e20000000000000000000000000000000000000000000000000000000081527fffffffff00000000000000000000000000000000000000000000000000000000600035166004820152602401610454565b6020840180517bffffffffffffffffffffffffffffffffffffffffffffffffffffffff1682179052611c508285612caa565b60208301516022840151600091829160f091821c911c5b90969095509350505050565b60408051600180825281830190925260009182919060208083019080368337019050509050828160008151811061251e5761251e614e26565b60209081029190910101526000611c507f74625544000000000000000000000000537461747300000000000000000000008360017ee1080020200120202020200000000000000000000000000000000000000000612879565b606088888888888888886040516020016125989897969594939291906152bd565b604051602081830303815290604052905098975050505050505050565b60006125d983516020028351602002606081901b603883901b838301171792915050565b9392505050565b60606125eb83612936565b6125f483612936565b604051602001612605929190615309565b604051602081830303815290604052905092915050565b6000612626612769565b9050306001600160a01b03821603612645576122f88686868686612d85565b6040517f298314fb0000000000000000000000000000000000000000000000000000000081526001600160a01b0382169063298314fb9061234a9089908990899089908990600401615338565b60408051608081018252600080825260208201819052918101919091526060808201526126be84612d9b565b60408401521515602083015281526126d68383612dcd565b60608201529392505050565b606083838360405160200161270d9392919092835290151560f81b6020830152602182015260410190565b60405160208183030381529060405290509392505050565b60006103338251602002603881901b1790565b606061274382612936565b6040516020016127539190615389565b6040516020818303038152906040529050919050565b7f629a4c26e296b22a8e0856e9f6ecb2d1008d7e00081111962cd175fa7488e175546000906001600160a01b0316806127a3573391505090565b919050565b60408051600180825281830190925260009182919060208083019080368337019050509050826001600160a01b031660001b816000815181106127ed576127ed614e26565b60209081029190910101526000611c507f7462776f726c6400000000000000000053797374656d526567697374727900008383630100080160dd1b612879565b6128378282612df4565b611bba5761284482612e52565b816040517fd787b7370000000000000000000000000000000000000000000000000000000081526004016104549291906153a5565b600080612884612769565b9050306001600160a01b038216036128aa576128a286868686612f8f565b915050611c50565b6040517f8c364d590000000000000000000000000000000000000000000000000000000081526001600160a01b03821690638c364d59906128f59089908990899089906004016153d0565b602060405180830381865afa158015612912573d6000803e3d6000fd5b505050506040513d601f19601f820116820180604052508101906128a291906153ff565b6060816125d98160206000612fbc565b6000612950612769565b9050306001600160a01b038216036129735761296e8585858561301c565b61076d565b6040517fef6ea8620000000000000000000000000000000000000000000000000000000081526001600160a01b0382169063ef6ea862906129be908890889088908890600401615418565b600060405180830381600087803b1580156129d857600080fd5b505af11580156129ec573d6000803e3d6000fd5b505050505050505050565b6060600060606000612a0885613057565b9050612a1587878361307a565b93506000612a22866130b3565b90508015612af457612a3488886130f0565b935066ffffffffffffff841667ffffffffffffffff811115612a5857612a58614923565b6040519080825280601f01601f191660200182016040528015612a82576020820181803683370190505b5092506020830160005b828160ff161015612af1576000612aa48b8b84613103565b90506000612ac1888460ff166028026038011c64ffffffffff1690565b9050612ad08260008387613183565b612ada8185614e13565b935050508080612ae990615457565b915050612a8c565b50505b505093509350939050565b600080600080600080600080612b19896000016020015190565b60f81c6002811115612b2d57612b2d614daf565b60218a015160418b015160618c0151929a509098509650612b4f905b60f81c90565b60628a015160828b015160a28c015160c28d015193985091965094509250612b7690612b49565b9050919395975091939597565b6060806000603885901c64ffffffffff16612ba7612ba286848461324e565b6132dc565b935090508064ffffffffff606087901c1601612bc7612ba286848461324e565b925050509250929050565b61076d8585612be184876132ed565b85613326565b6040805160018082528183019092526000918291829160208083019080368337019050509050837bffffffffffffffffffffffffffffffffffffffffffffffffffffffff191681600081518110612c4057612c40614e26565b602090810291909101015260008080612c997f7462776f726c6400000000000000000046756e6374696f6e53656c6563746f72857e2402002004000000000000000000000000000000000000000000000000000061211c565b92509250925061188f8383836135ca565b60606000612cb6611b9e565b90506001600160a01b0381163003612cf7576000612cde612cd561153e565b600087876135d6565b9350905080612cf057612cf083613711565b5050610333565b6040517f3ae7af080000000000000000000000000000000000000000000000000000000081526001600160a01b03821690633ae7af0890612d3e9087908790600401615476565b6000604051808303816000875af1158015612d5d573d6000803e3d6000fd5b505050506040513d6000823e601f3d908101601f19168201604052611c50919081019061548f565b61076d8585858585612d968b613719565b61379e565b6000806000612dae846000016020015190565b6040850151909350612dbf90612b49565b604194909401519294915050565b60606000603884901c64ffffffffff16612deb612ba285848461324e565b95945050505050565b6000612e427f6e730000000000000000000000000000000000000000000000000000000000007dffffffffffffffffffffffffffff0000000000000000000000000000000085161783613ad7565b806125d957506125d98383613ad7565b606081601081901b6000612e6583613ba0565b9050827fffffffffffffffffffffffffffff000000000000000000000000000000000000831615612ec057612ebb7fffffffffffffffffffffffffffff0000000000000000000000000000000000008416613bb7565b612ef7565b6040518060400160405280600681526020017f3c726f6f743e00000000000000000000000000000000000000000000000000008152505b7fffffffffffffffffffffffffffffffff00000000000000000000000000000000831615612f2d57612f2883613bb7565b612f64565b6040518060400160405280600681526020017f3c726f6f743e00000000000000000000000000000000000000000000000000008152505b604051602001612f76939291906154c4565b6040516020818303038152906040529350505050919050565b6000612deb612f9e8686613c5b565b60ff858116601b0360080285901c16612fb785876132ed565b613cb1565b82516060906000612fcd8583615552565b9050604051925060208301601f19603f83860101166040528184526000602088015b84821015613010578051871b83529187019160019190910190602001612fef565b50505050509392505050565b600061302885856130f0565b90506000613045828560ff166028026038011c64ffffffffff1690565b9050611a258686866000858888613d02565b6000600861306760026020615569565b6130719190615552565b9190911c919050565b60608160000361309957506040805160208101909152600081526125d9565b60006130a58585613c5b565b9050612deb8160008561413c565b600060086001806130c660026020615569565b6130d09190615569565b6130da9190615569565b6130e49190615552565b8260ff911c1692915050565b60006125d96130ff848461415f565b5490565b6000838360405160200161311892919061557c565b604051602081830303815290604052805190602001208260f81b7effffffffffffffffffffffffffffffffffffffffffffffffffffffffffffff19167f3b4102da22e32d82fc925482184f16c09fd4281692720b87d124aef6da48a0f1181860001c90509392505050565b821561320a57602083106131ad576020830484019350602083816131a9576131a9614dc5565b0692505b821561320a5760208390036000818410156131d05750600019600884021c6131da565b50600019600882021c5b8554600886021b8184511682198216178452508184116131fb575050613248565b50600194909401939182900391015b5b6020821061322c5783548152600190930192601f199091019060200161320b565b81156132485780518454600019600885021c9182169119161781525b50505050565b60008183118061325e5750835182115b1561329b578383836040517f23230fa3000000000000000000000000000000000000000000000000000000008152600401610454939291906155b8565b602084016132a98482614e13565b905060006132b78585615569565b6fffffffffffffffffffffffffffffffff1660809290921b9190911795945050505050565b606060006125d983602060006141b5565b600080805b8360ff1681101561331e5761331460ff601b83900360080287901c1683614e13565b91506001016132f2565b509392505050565b7f6f74000000000000000000000000000000000000000000000000000000000000847fffff00000000000000000000000000000000000000000000000000000000000016036133b057837f8c0b5119d4cec7b284c6b1b39252a03d1e2f2d7451a5895562524c113bb952be8484846040516133a3939291906155dd565b60405180910390a2613248565b60006133bc8585613c5b565b905060006133c986614224565b905060005b815181101561349e5760008282815181106133eb576133eb614e26565b602002602001015190506134176004826affffffffffffffffffffff19166142ad90919063ffffffff16565b15613495576040517f964f667d000000000000000000000000000000000000000000000000000000008152606082901c9063964f667d90613462908b908b908b908b90600401615610565b600060405180830381600087803b15801561347c57600080fd5b505af1158015613490573d6000803e3d6000fd5b505050505b506001016133ce565b50857f8c0b5119d4cec7b284c6b1b39252a03d1e2f2d7451a5895562524c113bb952be8686866040516134d3939291906155dd565b60405180910390a26134ee828565ffffffffffff16856142cb565b60005b81518110156135c157600082828151811061350e5761350e614e26565b6020026020010151905061353a6008826affffffffffffffffffffff19166142ad90919063ffffffff16565b156135b8576040517fa8ba8721000000000000000000000000000000000000000000000000000000008152606082901c9063a8ba872190613585908b908b908b908b90600401615610565b600060405180830381600087803b15801561359f57600080fd5b505af11580156135b3573d6000803e3d6000fd5b505050505b506001016134f1565b50505050505050565b6000806124d9856142e1565b600060606000806135e6866142f6565b90925090506001600160a01b038216613637578561360387612e52565b6040517ffbf10ce6000000000000000000000000000000000000000000000000000000008152600401610454929190615476565b8061364657613646868961439a565b86156136b2577dffffffffffffffffffffffffffff0000000000000000000000000000000086167f6e7300000000000000000000000000000000000000000000000000000000000017600061369a826143a4565b90506136af826136aa8b84614e13565b61441d565b50505b60006136be8760101b90565b7fffffffffffffffffffffffffffff00000000000000000000000000000000000016146136f6576136f1888884886144b9565b613702565b61370288888488614531565b90999098509650505050505050565b805160208201fd5b60007f8b9d8c8b908d9affffffffffffffffffab9e9d939a8d00000000000000000000820161376857507e60030220202000000000000000000000000000000000000000000000000000919050565b6103336137957f746273746f72650000000000000000005461626c65730000000000000000000084614592565b60206000613cb1565b7f6f74000000000000000000000000000000000000000000000000000000000000867fffff000000000000000000000000000000000000000000000000000000000000160361382a57857f8dbb3a9672eebfd3773e72dd9c102393436816d832c7ba9e1e1ac8fcadcac7a98686868660405161381d9493929190615649565b60405180910390a2611a25565b600061383587614224565b905060005b815181101561390e57600082828151811061385757613857614e26565b602002602001015190506138836001826affffffffffffffffffffff19166142ad90919063ffffffff16565b15613905576040517f57066c9c000000000000000000000000000000000000000000000000000000008152606082901c906357066c9c906138d2908c908c908c908c908c908c90600401615688565b600060405180830381600087803b1580156138ec57600080fd5b505af1158015613900573d6000803e3d6000fd5b505050505b5060010161383a565b50867f8dbb3a9672eebfd3773e72dd9c102393436816d832c7ba9e1e1ac8fcadcac7a9878787876040516139459493929190615649565b60405180910390a260006139598888613c5b565b905060006020870190506139718260008951846145ae565b600061397c856130b3565b1115613a0057600061398e8a8a61415f565b878155905060208601915060008060005b6139a8886130b3565b8160ff1610156139fb576139bd8d8d83613103565b92506139d88a8260ff166028026038011c64ffffffffff1690565b91506139e783600084886145ae565b6139f18286614e13565b945060010161399f565b505050505b60005b835181101561151e576000848281518110613a2057613a20614e26565b60200260200101519050613a4c6002826affffffffffffffffffffff19166142ad90919063ffffffff16565b15613ace576040517f5b28cdaf000000000000000000000000000000000000000000000000000000008152606082901c90635b28cdaf90613a9b908e908e908e908e908e908e90600401615688565b600060405180830381600087803b158015613ab557600080fd5b505af1158015613ac9573d6000803e3d6000fd5b505050505b50600101613a03565b604080516002808252606082018352600092839291906020830190803683370190505090508381600081518110613b1057613b10614e26565b602002602001018181525050826001600160a01b031660001b81600181518110613b3c57613b3c614e26565b60209081029190910101526000613b947f7462776f726c640000000000000000005265736f75726365416363657373000083837e01010001000000000000000000000000000000000000000000000000000000612879565b9050612deb8160f81c90565b6000613bae60706010614e13565b9190911b919050565b606060005b6010811015613c1c577fffffffffffffffffffffffffffffffff000000000000000000000000000000008316600882021b7fff000000000000000000000000000000000000000000000000000000000000001615613c1c57600101613bbc565b604080517fffffffffffffffffffffffffffffffff00000000000000000000000000000000851660208201528151603090910190915281815280611c50565b60008282604051602001613c7092919061557c565b60408051601f1981840301815291905280516020909101207f86425bff6b57326c7859e89024fe4f238ca327a1ae4a230180dd2f0e88aaa7d9189392505050565b600060208210613cd757602082048401935060208281613cd357613cd3614dc5565b0691505b508254600882021b60208290038084111561331e576001850154600882021c82179150509392505050565b7f7462000000000000000000000000000000000000000000000000000000000000877fffff0000000000000000000000000000000000000000000000000000000000001614613dc2577f74620000000000000000000000000000000000000000000000000000000000008788604051602001613d8091815260200190565b60408051601f19818403018152908290527f31b466830000000000000000000000000000000000000000000000000000000082526104549392916004016156e1565b6000613ddd828760ff166028026038011c64ffffffffff1690565b9050600083518564ffffffffff1683613df69190615569565b613e009190614e13565b9050808214158015613e22575081613e188688615722565b64ffffffffff1614155b15613e72576040517fa65010b400000000000000000000000000000000000000000000000000000000815264ffffffffff8088166004830152808716602483015283166044820152606401610454565b818664ffffffffff161115613ec3576040517f7e8578d30000000000000000000000000000000000000000000000000000000081526004810183905264ffffffffff87166024820152604401610454565b6000613ed084898461466d565b90506000613edd8b614224565b905060005b8151811015613fa8576000828281518110613eff57613eff614e26565b60200260200101519050613f2b6010826affffffffffffffffffffff19166142ad90919063ffffffff16565b15613f9f57606081901c6001600160a01b03166355eb5a288e8e8e8e8e8d8f6040518863ffffffff1660e01b8152600401613f6c9796959493929190615740565b600060405180830381600087803b158015613f8657600080fd5b505af1158015613f9a573d6000803e3d6000fd5b505050505b50600101613ee2565b5064ffffffffff881660005b8a60ff168160ff161015613fe757613fdb878260ff166028026038011c64ffffffffff1690565b90910190600101613fb4565b508b7ffe158a7adba34e256807c8a149028d3162918713c3838afc643ce9f96716ebfd8c8c848c888d6040516140229695949392919061579e565b60405180910390a25082841461404357600061403e8c8c61415f565b839055505b60006140508c8c8c613103565b9050614064818a64ffffffffff16896142cb565b5060005b815181101561412e57600082828151811061408557614085614e26565b602002602001015190506140b16020826affffffffffffffffffffff19166142ad90919063ffffffff16565b1561412557606081901c6001600160a01b031663635845338e8e8e8e8e8a8f6040518863ffffffff1660e01b81526004016140f29796959493929190615740565b600060405180830381600087803b15801561410c57600080fd5b505af1158015614120573d6000803e3d6000fd5b505050505b50600101614068565b505050505050505050505050565b60405160208101601f19603f848401011660405282825261331e85858584613183565b6000828260405160200161417492919061557c565b60408051601f1981840301815291905280516020909101207f14e2fcc58e58e68ec7edc30c8d50dccc3ce2714a623ec81f46b6a63922d76569189392505050565b606060006141c38560801c90565b90506fffffffffffffffffffffffffffffffff851660008582816141e9576141e9614dc5565b04905060405193506020840160208202810160405281855260005b82811015613010578451871c825293870193602090910190600101614204565b6040805160018082528183019092526060916000919060208083019080368337019050509050828160008151811061425e5761425e614e26565b602090810291909101015260006142967f746273746f726500000000000000000053746f7265486f6f6b73000000000000838361473b565b9050611c506142a8826000845161324e565b614775565b60008160ff16826142be8560581c90565b1660ff1614905092915050565b611729838383516142dc8560200190565b6145ae565b602081015160408201516000905b9050915091565b6040805160018082528183019092526000918291829160208083019080368337019050509050838160008151811061433057614330614e26565b6020908102919091010152600080806143897f7462776f726c6400000000000000000053797374656d73000000000000000000857e150200140100000000000000000000000000000000000000000000000000006129f7565b92509250925061188f838383614786565b6128378282614792565b6040805160018082528183019092526000918291906020808301908036833701905050905082816000815181106143dd576143dd614e26565b60209081029190910101526000611c507f7462776f726c6400000000000000000042616c616e63657300000000000000008383630100080160dd1b612f8f565b60408051600180825281830190925260009160208083019080368337019050509050828160008151811061445357614453614e26565b6020026020010181815250506117297f7462776f726c6400000000000000000042616c616e636573000000000000000060001b8260008560405160200161449c91815260200190565b60408051601f19818403018152919052630100080160dd1b612bd2565b60006060836001600160a01b031660006144d48589896147f0565b6040516144e19190615389565b60006040518083038185875af1925050503d806000811461451e576040519150601f19603f3d011682016040523d82523d6000602084013e614523565b606091505b509097909650945050505050565b60006060836001600160a01b031661454a8488886147f0565b6040516145579190615389565b600060405180830381855af49150503d806000811461451e576040519150601f19603f3d011682016040523d82523d6000602084013e614523565b6040805160208101849052908101829052600090606001613c70565b821561462857602083106145d8576020830484019350602083816145d4576145d4614dc5565b0692505b82156146285760208390036000600019600885021c1990506008850281811c91508351811c9050811987541682821617875550818411614619575050613248565b50600194909401939182900391015b5b6020821061464a5780518455600190930192601f1990910190602001614629565b8115613248576000600019600884021c8554835182191691161785555050505050565b600064ffffffffff8211156146b1576040517f7149a3c100000000000000000000000000000000000000000000000000000000815260048101839052602401610454565b8366ffffffffffffff811660ff851660280260380182901c64ffffffffff168085106146e357808503820191506146eb565b848103820391505b5064ffffffffff6038602860ff8816020181811b197fffffffffffffffffffffffffffffffffffffffffffffffffff000000000000009490941690921792909216918416901b1790509392505050565b6060611c5061474b858585613103565b60006147708561475b89896130f0565b9060ff166028026038011c64ffffffffff1690565b61413c565b606060006125d983601560006141b5565b6000806124d985614807565b60006147e07f6e730000000000000000000000000000000000000000000000000000000000007dffffffffffffffffffffffffffff0000000000000000000000000000000085161783614824565b806125d957506125d98383614824565b606083838360405160200161270d939291906157fa565b6020810151603482015160609190911c906000906142ef90612b49565b60408051600280825260608201835260009283929190602083019080368337019050509050838160008151811061485d5761485d614e26565b602002602001018181525050826001600160a01b031660001b8160018151811061488957614889614e26565b60209081029190910101526000613b947f7462776f726c640000000000000000005265736f75726365416363657373000083837e01010001000000000000000000000000000000000000000000000000000000612f8f565b6000602082840312156148f357600080fd5b81357fffffffff00000000000000000000000000000000000000000000000000000000811681146125d957600080fd5b634e487b7160e01b600052604160045260246000fd5b6040516060810167ffffffffffffffff8111828210171561495c5761495c614923565b60405290565b604051610140810167ffffffffffffffff8111828210171561495c5761495c614923565b604051601f8201601f1916810167ffffffffffffffff811182821017156149af576149af614923565b604052919050565b600067ffffffffffffffff8211156149d1576149d1614923565b5060051b60200190565b600080600060608085870312156149f157600080fd5b84359350602080860135935060408087013567ffffffffffffffff811115614a1857600080fd5b8701601f81018913614a2957600080fd5b8035614a3c614a37826149b7565b614986565b81815260609091028201840190848101908b831115614a5a57600080fd5b928501925b82841015614aa25786848d031215614a775760008081fd5b614a7f614939565b843581528685013587820152858501358682015282529286019290850190614a5f565b809750505050505050509250925092565b60008060408385031215614ac657600080fd5b50508035926020909101359150565b8035600381106127a357600080fd5b8015158114614af257600080fd5b50565b80356127a381614ae4565b600082601f830112614b1157600080fd5b81356020614b21614a37836149b7565b8083825260208201915060208460051b870101935086841115614b4357600080fd5b602086015b84811015614b5f5780358352918301918301614b48565b509695505050505050565b600060208284031215614b7c57600080fd5b813567ffffffffffffffff80821115614b9457600080fd5b908301906101408286031215614ba957600080fd5b614bb1614962565b614bba83614ad5565b81526020830135602082015260408301356040820152614bdc60608401614af5565b60608201526080830135608082015260a083013560a082015260c083013560c0820152614c0b60e08401614af5565b60e08201526101008084013583811115614c2457600080fd5b614c3088828701614b00565b8284015250506101208084013583811115614c4a57600080fd5b614c5688828701614b00565b918301919091525095945050505050565b600080600060608486031215614c7c57600080fd5b614c8584614ad5565b9250602084013567ffffffffffffffff80821115614ca257600080fd5b614cae87838801614b00565b93506040860135915080821115614cc457600080fd5b50614cd186828701614b00565b9150509250925092565b6001600160a01b0381168114614af257600080fd5b60008060408385031215614d0357600080fd5b8235614d0e81614cdb565b9150602083013567ffffffffffffffff811115614d2a57600080fd5b614d3685828601614b00565b9150509250929050565b600080600060608486031215614d5557600080fd5b83359250602084013591506040840135614d6e81614ae4565b809150509250925092565b600060208284031215614d8b57600080fd5b5035919050565b600060208284031215614da457600080fd5b81516125d981614cdb565b634e487b7160e01b600052602160045260246000fd5b634e487b7160e01b600052601260045260246000fd5b600082614df857634e487b7160e01b600052601260045260246000fd5b500690565b634e487b7160e01b600052601160045260246000fd5b8082018082111561033357610333614dfd565b634e487b7160e01b600052603260045260246000fd5b60006000198203614e4f57614e4f614dfd565b5060010190565b600060208284031215614e6857600080fd5b81516125d981614ae4565b60008151808452602080850194506020840160005b83811015614ea457815187529582019590820190600101614e88565b509495945050505050565b608081526000614ec26080830187614e73565b8281036020840152614ed48187614e73565b91505061ffff808516604084015280841660608401525095945050505050565b60008060408385031215614f0757600080fd5b8251614f1281614ae4565b6020840151909250614f2381614ae4565b809150509250929050565b60038110614af257634e487b7160e01b600052602160045260246000fd5b614f5585614f2e565b848152608060208201526000614f6e6080830186614e73565b8281036040840152614f808186614e73565b91505082606083015295945050505050565b600080600060608486031215614fa757600080fd5b835192506020808501519250604085015167ffffffffffffffff811115614fcd57600080fd5b8501601f81018713614fde57600080fd5b8051614fec614a37826149b7565b81815260059190911b8201830190838101908983111561500b57600080fd5b928401925b8284101561502957835182529284019290840190615010565b80955050505050509250925092565b60006040808301858452602060406020860152818651808452606093506060870191506020880160005b8281101561508f578151805185528581015186860152870151878501529285019290840190600101615062565b50919998505050505050505050565b60005b838110156150b95781810151838201526020016150a1565b50506000910152565b600081518084526150da81602086016020860161509e565b601f01601f19169290920160200192915050565b8381526150fa83614f2e565b826020820152606060408201526000612deb60608301846150c2565b80820182811260008312801582168215821617156107d3576107d3614dfd565b83815260606020820152600061514f6060830185614e73565b9050826040830152949350505050565b600082601f83011261517057600080fd5b815167ffffffffffffffff81111561518a5761518a614923565b61519d6020601f19601f84011601614986565b8181528460208386010111156151b257600080fd5b611c5082602083016020870161509e565b6000806000606084860312156151d857600080fd5b835167ffffffffffffffff808211156151f057600080fd5b6151fc8783880161515f565b945060208601519350604086015191508082111561521957600080fd5b50614cd18682870161515f565b85815260a06020820152600061523f60a0830187614e73565b60ff86166040840152828103606084015261525a81866150c2565b9150508260808301529695505050505050565b6000815160208301517fffffffff00000000000000000000000000000000000000000000000000000000808216935060048310156152b55780818460040360031b1b83161693505b505050919050565b6152c689614f2e565b60f898891b815260018101979097526021870195909552921515861b6041860152604285019190915260628401526082830152151590911b60a282015260a30190565b6000835161531b81846020880161509e565b83519083019061532f81836020880161509e565b01949350505050565b85815260a06020820152600061535160a0830187614e73565b828103604084015261536381876150c2565b9050846060840152828103608084015261537d81856150c2565b98975050505050505050565b6000825161539b81846020870161509e565b9190910192915050565b6040815260006153b860408301856150c2565b90506001600160a01b03831660208301529392505050565b8481526080602082015260006153e96080830186614e73565b60ff949094166040830152506060015292915050565b60006020828403121561541157600080fd5b5051919050565b8481526080602082015260006154316080830186614e73565b60ff85166040840152828103606084015261544c81856150c2565b979650505050505050565b600060ff821660ff810361546d5761546d614dfd565b60010192915050565b828152604060208201526000611c5060408301846150c2565b6000602082840312156154a157600080fd5b815167ffffffffffffffff8111156154b857600080fd5b611c508482850161515f565b7fffff0000000000000000000000000000000000000000000000000000000000008416815260007f3a00000000000000000000000000000000000000000000000000000000000000806002840152845161552581600386016020890161509e565b80840190508160038201528451915061554582600483016020880161509e565b0160040195945050505050565b808202811582820484141761033357610333614dfd565b8181038181111561033357610333614dfd565b8281526000602080830184516020860160005b828110156155ab5781518452928401929084019060010161558f565b5091979650505050505050565b6060815260006155cb60608301866150c2565b60208301949094525060400152919050565b6060815260006155f06060830186614e73565b65ffffffffffff85166020840152828103604084015261166b81856150c2565b8481526080602082015260006156296080830186614e73565b65ffffffffffff85166040840152828103606084015261544c81856150c2565b60808152600061565c6080830187614e73565b828103602084015261566e81876150c2565b9050846040840152828103606084015261544c81856150c2565b86815260c0602082015260006156a160c0830188614e73565b82810360408401526156b381886150c2565b905085606084015282810360808401526156cd81866150c2565b9150508260a0830152979650505050505050565b7fffff00000000000000000000000000000000000000000000000000000000000084168152826020820152606060408201526000612deb60608301846150c2565b64ffffffffff81811683821601908082111561101d5761101d614dfd565b87815260e06020820152600061575960e0830189614e73565b60ff8816604084015264ffffffffff87811660608501528616608084015260a0830185905282810360c084015261579081856150c2565b9a9950505050505050505050565b60c0815260006157b160c0830189614e73565b60ff8816602084015265ffffffffffff8716604084015264ffffffffff8616606084015284608084015282810360a08401526157ed81856150c2565b9998505050505050505050565b6000845161580c81846020890161509e565b60609490941b7fffffffffffffffffffffffffffffffffffffffff000000000000000000000000169190930190815260148101919091526034019291505056fea264697066735822122046c17f2d7fe9aa18ccd87e2246d93f7d7147a59ca25e1799e5779b58d43849b864736f6c63430008180033","linkReferences":{}},"methodIdentifiers":{"_msgSender()":"119df25f","_msgValue()":"45ec9354","_world()":"e1af802c","checkForEncounterEnd((uint8,uint256,uint256,bool,uint256,uint256,uint256,bool,bytes32[],bytes32[]))":"1e45d614","createEncounter(uint8,bytes32[],bytes32[])":"2c86e0e2","endEncounter(bytes32,uint256,bool)":"e903546c","endTurn(bytes32,bytes32,(bytes32,bytes32,uint256)[])":"1b3561d3","isAttacker(bytes32,bytes32)":"96eead59","isDefender(bytes32,bytes32)":"1b45e23c","isInEncounter(bytes32)":"fdb4dcd0","isParticipant(address,bytes32[])":"b2467894","isParticipant(bytes32,bytes32)":"c6ca743c","supportsInterface(bytes4)":"01ffc9a7"},"id":233}