{"abi":[{"type":"function","name":"_msgSender","inputs":[],"outputs":[{"name":"sender","type":"address","internalType":"address"}],"stateMutability":"view"},{"type":"function","name":"_msgValue","inputs":[],"outputs":[{"name":"value","type":"uint256","internalType":"uint256"}],"stateMutability":"view"},{"type":"function","name":"_world","inputs":[],"outputs":[{"name":"","type":"address","internalType":"address"}],"stateMutability":"view"},{"type":"function","name":"isPaused","inputs":[],"outputs":[{"name":"","type":"bool","internalType":"bool"}],"stateMutability":"view"},{"type":"function","name":"pause","inputs":[],"outputs":[],"stateMutability":"nonpayable"},{"type":"function","name":"supportsInterface","inputs":[{"name":"interfaceId","type":"bytes4","internalType":"bytes4"}],"outputs":[{"name":"","type":"bool","internalType":"bool"}],"stateMutability":"pure"},{"type":"function","name":"unpause","inputs":[],"outputs":[],"stateMutability":"nonpayable"},{"type":"event","name":"GamePaused","inputs":[{"name":"admin","type":"address","indexed":true,"internalType":"address"}],"anonymous":false},{"type":"event","name":"GameUnpaused","inputs":[{"name":"admin","type":"address","indexed":true,"internalType":"address"}],"anonymous":false},{"type":"event","name":"Store_SpliceStaticData","inputs":[{"name":"tableId","type":"bytes32","indexed":true,"internalType":"ResourceId"},{"name":"keyTuple","type":"bytes32[]","indexed":false,"internalType":"bytes32[]"},{"name":"start","type":"uint48","indexed":false,"internalType":"uint48"},{"name":"data","type":"bytes","indexed":false,"internalType":"bytes"}],"anonymous":false},{"type":"error","name":"NotAdmin","inputs":[]},{"type":"error","name":"Slice_OutOfBounds","inputs":[{"name":"data","type":"bytes","internalType":"bytes"},{"name":"start","type":"uint256","internalType":"uint256"},{"name":"end","type":"uint256","internalType":"uint256"}]}],"bytecode":{"object":"0x6080806040523461001657610c8f908161001b8239f35b5f80fdfe60806040526004361015610011575f80fd5b5f3560e01c806301ffc9a714610084578063119df25f1461007f5780633f4ba83a1461007a57806345ec9354146100755780638456cb5914610070578063b187bd261461006b5763e1af802c14610066575f80fd5b6103ce565b61039f565b61027f565b610260565b610112565b6100e6565b346100d85760203660031901126100d85760043563ffffffff60e01b81168091036100d85763b5dee12760e01b81149081156100c7575b50151560805260206080f35b6301ffc9a760e01b149050816100bb565b5f80fd5b5f9103126100d857565b346100d8575f3660031901126100d85760206101006103e8565b6040516001600160a01b039091168152f35b346100d8576003195f368201126100d85761012b6103e8565b610134816104d6565b1561024e57610141610469565b916040515f6020820152600181526101588161042b565b6101606106b2565b6001600160a01b03949085163081036101a5575061017e925061075e565b167fb5a73b054ac6db0c0e6429d3bb998734a660c422d158b35e9cd088b30d42f9e05f80a2005b809291923b156100d8576040516301c85d5760e51b81526514185d5cd95960521b631d18955160e21b01600482015260a06024820152935f93859384928692849261020e92916101f99060a4860190610513565b91856044860152848303016064850152610674565b630101000160d81b608483015203925af1801561024957610230575b5061017e565b8061023d61024392610413565b806100dc565b5f61022a565b610546565b604051637bfa4b9f60e01b8152600490fd5b346100d8575f3660031901126100d8576020604051601f193601358152f35b346100d8576003195f368201126100d8576102986103e8565b6102a1816104d6565b1561024e576102ae610469565b91604051600160f81b6020820152600181526102c98161042b565b6102d16106b2565b6001600160a01b039490851630810361031657506102ef925061075e565b167ff633f37eb96c51f3eee538b18ab2c8be9023a46d535102a54e986e94a52542065f80a2005b809291923b156100d8576040516301c85d5760e51b81526514185d5cd95960521b631d18955160e21b01600482015260a06024820152935f93859384928692849261036a92916101f99060a4860190610513565b630101000160d81b608483015203925af180156102495761038c575b506102ef565b8061023d61039992610413565b5f610386565b346100d8575f3660031901126100d85760206103c16103bc610469565b610551565b60f81c6040519015158152f35b346100d8575f3660031901126100d85760206101006106b2565b36603319013560601c9081156103fa57565b339150565b634e487b7160e01b5f52604160045260245ffd5b6001600160401b03811161042657604052565b6103ff565b604081019081106001600160401b0382111761042657604052565b601f909101601f19168101906001600160401b0382119082101761042657604052565b604051602081016001600160401b03811182821017610426576040525f8152905f368137565b6040519061049c8261042b565b6001825260203681840137565b634e487b7160e01b5f52603260045260245ffd5b80518210156104d15760209160051b010190565b6104a9565b6104de61048f565b8051156104d1576001600160a01b0390911660208201526104fe9061060f565b60f81c90565b908160209103126100d8575190565b9081518082526020808093019301915f5b828110610532575050505090565b835185529381019392810192600101610524565b6040513d5f823e3d90fd5b6001600160a01b036105616106b2565b16308103610577575061057390610953565b5490565b604051638c364d5960e01b81526514185d5cd95960521b631d18955160e21b01600482015260806024820152916020918391829081906105bb906084830190610513565b5f6044830152630101000160d81b606483015203915afa908115610249575f916105e3575090565b610605915060203d602011610608575b6105fd8183610446565b810190610504565b90565b503d6105f3565b6001600160a01b0361061f6106b2565b163081036106315750610605906106e7565b604051638c364d5960e01b81526420b236b4b760591b631d18955160e21b01600482015260806024820152916020918391829081906105bb906084830190610513565b91908251928382525f5b84811061069e575050825f602080949584010152601f8019910116010190565b60208183018101518483018201520161067e565b7f629a4c26e296b22a8e0856e9f6ecb2d1008d7e00081111962cd175fa7488e175546001600160a01b03168061060557503390565b60405160208160208101936420b236b4b760591b631d18955160e21b0185526040820160208251919201935f5b82811061074757505050610731925003601f198101835282610446565b5190205f80516020610c6f833981519152185490565b855184529481019486945092810192600101610714565b919061076983610953565b91610772610a39565b905f5b8251811015610819576107a961079c61078e83866104bd565b516001600160581b03191690565b6001600160581b03191690565b9060049182808260581c16146107c5575b506001915001610775565b60601c803b156100d857855f9189836107f3966040519788958694859363964f667d60e01b855284016109f5565b03925af191821561024957600192156107ba578061023d61081392610413565b5f6107ba565b50604080519194909392916108749184916514185d5cd95960521b631d18955160e21b01907f8c0b5119d4cec7b284c6b1b39252a03d1e2f2d7451a5895562524c113bb952be908061086c868d836109ca565b0390a2610b30565b5f5b81518110156109005761088f61079c61078e83856104bd565b6008808260581c16146108a6575b50600101610876565b60601c90813b156100d857845163a8ba872160e01b8152915f9083908183816108d38a8e600484016109f5565b03925af1918215610249576001926108ed575b509061089d565b8061023d6108fa92610413565b5f6108e6565b505050509050565b6953746f7265486f6f6b7360301b66746273746f726560c81b01815281516020918201928201915f5b82811061093f575050505090565b835185529381019392810192600101610931565b60405160208160208101936514185d5cd95960521b631d18955160e21b0185526040820160208251919201935f5b8281106109b35750505061099e925003601f198101835282610446565b5190205f80516020610c6f8339815191521890565b855184529481019486945092810192600101610981565b90916109e161060593606084526060840190610513565b915f60208201526040818403910152610674565b6514185d5cd95960521b631d18955160e21b018152608060208201819052610605939192610a2591840190610513565b915f60408201526060818403910152610674565b610a4161048f565b8051156104d157610b2b610605916514185d5cd95960521b631d18955160e21b016020820152610b236040519164ffffffffff6020840184610a838483610908565b0394610a97601f1996878101835282610446565b5190207f3b4102da22e32d82fc925482184f16c09fd4281692720b87d124aef6da48a0f11891604051610ade81610ad2602082019485610908565b03878101835282610446565b5190207f14e2fcc58e58e68ec7edc30c8d50dccc3ce2714a623ec81f46b6a63922d76569185460381c1660405193603f82860101166040528084526020840191610c24565b805190610b7d565b610bd2565b81519060208093019190925b80821015610b65575080610b4f57505050565b5f199060031b1c90818354169119905116179055565b6001839482939451815501930191601f190190610b3c565b9081518111610b9c576001600160801b031660209190910160801b1790565b6040516323230fa360e01b81526060600482015292508291610bc2906064840190610674565b905f602484015260448301520390fd5b8060801c906015809160018060801b031604604051926020906020850160208460051b8701016040528386525f5b848110610c105750505050505090565b825182529185019190830190600101610c00565b9291925b602090818310610c485780548552930192601f1990910190600101610c28565b91905092919280610c5857505050565b5f199060031b1c9081835116911990541617905256fe86425bff6b57326c7859e89024fe4f238ca327a1ae4a230180dd2f0e88aaa7d9","linkReferences":{}},"methodIdentifiers":{"_msgSender()":"119df25f","_msgValue()":"45ec9354","_world()":"e1af802c","isPaused()":"b187bd26","pause()":"8456cb59","supportsInterface(bytes4)":"01ffc9a7","unpause()":"3f4ba83a"},"id":516}