{"abi":[{"type":"function","name":"_msgSender","inputs":[],"outputs":[{"name":"sender","type":"address","internalType":"address"}],"stateMutability":"view"},{"type":"function","name":"_msgValue","inputs":[],"outputs":[{"name":"value","type":"uint256","internalType":"uint256"}],"stateMutability":"view"},{"type":"function","name":"_world","inputs":[],"outputs":[{"name":"","type":"address","internalType":"address"}],"stateMutability":"view"},{"type":"function","name":"executeWorldRngActions","inputs":[{"name":"randomNumber","type":"uint256","internalType":"uint256"},{"name":"givingEntity","type":"bytes32","internalType":"bytes32"},{"name":"actions","type":"tuple[]","internalType":"struct Action[]","components":[{"name":"attackerEntityId","type":"bytes32","internalType":"bytes32"},{"name":"defenderEntityId","type":"bytes32","internalType":"bytes32"},{"name":"itemId","type":"uint256","internalType":"uint256"}]}],"outputs":[],"stateMutability":"nonpayable"},{"type":"function","name":"rest","inputs":[{"name":"characterId","type":"bytes32","internalType":"bytes32"}],"outputs":[],"stateMutability":"nonpayable"},{"type":"function","name":"supportsInterface","inputs":[{"name":"interfaceId","type":"bytes4","internalType":"bytes4"}],"outputs":[{"name":"","type":"bool","internalType":"bool"}],"stateMutability":"pure"},{"type":"function","name":"useCombatConsumableItem","inputs":[{"name":"characterId","type":"bytes32","internalType":"bytes32"},{"name":"itemId","type":"uint256","internalType":"uint256"}],"outputs":[],"stateMutability":"nonpayable"},{"type":"function","name":"useWorldConsumableItem","inputs":[{"name":"givingEntity","type":"bytes32","internalType":"bytes32"},{"name":"receivingEntity","type":"bytes32","internalType":"bytes32"},{"name":"itemId","type":"uint256","internalType":"uint256"}],"outputs":[],"stateMutability":"nonpayable"},{"type":"event","name":"Store_SetRecord","inputs":[{"name":"tableId","type":"bytes32","indexed":true,"internalType":"ResourceId"},{"name":"keyTuple","type":"bytes32[]","indexed":false,"internalType":"bytes32[]"},{"name":"staticData","type":"bytes","indexed":false,"internalType":"bytes"},{"name":"encodedLengths","type":"bytes32","indexed":false,"internalType":"EncodedLengths"},{"name":"dynamicData","type":"bytes","indexed":false,"internalType":"bytes"}],"anonymous":false},{"type":"event","name":"Store_SpliceStaticData","inputs":[{"name":"tableId","type":"bytes32","indexed":true,"internalType":"ResourceId"},{"name":"keyTuple","type":"bytes32[]","indexed":false,"internalType":"bytes32[]"},{"name":"start","type":"uint48","indexed":false,"internalType":"uint48"},{"name":"data","type":"bytes","indexed":false,"internalType":"bytes"}],"anonymous":false},{"type":"error","name":"GamePaused","inputs":[]},{"type":"error","name":"Slice_OutOfBounds","inputs":[{"name":"data","type":"bytes","internalType":"bytes"},{"name":"start","type":"uint256","internalType":"uint256"},{"name":"end","type":"uint256","internalType":"uint256"}]},{"type":"error","name":"World_AccessDenied","inputs":[{"name":"resource","type":"string","internalType":"string"},{"name":"caller","type":"address","internalType":"address"}]},{"type":"error","name":"World_FunctionSelectorNotFound","inputs":[{"name":"functionSelector","type":"bytes4","internalType":"bytes4"}]},{"type":"error","name":"World_ResourceNotFound","inputs":[{"name":"resourceId","type":"bytes32","internalType":"ResourceId"},{"name":"resourceIdString","type":"string","internalType":"string"}]}],"bytecode":{"object":"0x6080806040523461001657613ddc908161001b8239f35b5f80fdfe60806040526004361015610011575f80fd5b5f3560e01c806301ffc9a714610094578063119df25f1461008f57806322cb21c01461008a57806345ec935414610085578063af20293214610080578063dc6e8eb71461007b578063e1af802c146100765763e3883cbc14610071575f80fd5b610801565b61072b565b6104d2565b61035b565b61033c565b610122565b6100f6565b346100e85760203660031901126100e85760043563ffffffff60e01b81168091036100e85763b5dee12760e01b81149081156100d7575b50151560805260206080f35b6301ffc9a760e01b149050816100cb565b5f80fd5b5f9103126100e857565b346100e8575f3660031901126100e8576020610110610fdf565b6040516001600160a01b039091168152f35b346100e85760403660031901126100e857600435602435610141610ff6565b61015b61014f61014f61244a565b6001600160a01b031690565b60405163777c2caf60e01b8152600481018490526020918290829060249082905afa9081156102af576101bc9183915f9161030f575b506101a061014f61014f61244a565b604051808095819463166c682360e31b83528960048401610909565b03915afa80156102af576101d7915f916102e2575b50610922565b6101e561014f61014f61244a565b60405163951b88d160e01b81526004810184905291905f90839060249082905afa9081156102af5761022d925f926102be575b508101519051811490816102b4575b50610a3f565b6102388183806110c0565b5061024761014f61014f61244a565b803b156100e857815f916102729483604051809781958294632f40eabb60e01b845260048401610aa4565b03925af19182156102af5761029492610296575b5061028f610ad0565b611251565b005b806102a36102a992610759565b806100ec565b5f610286565b6108da565b5f9150125f610227565b6102db9192503d805f833e6102d381836107a7565b8101906109ca565b905f610218565b6103029150833d8511610308575b6102fa81836107a7565b8101906108f2565b5f6101d1565b503d6102f0565b61032f9150823d8411610335575b61032781836107a7565b8101906108bb565b5f610191565b503d61031d565b346100e8575f3660031901126100e8576020604051601f193601358152f35b346100e85760203660031901126100e857600435610377610ff6565b61038561014f61014f61244a565b60405163777c2caf60e01b81526004810183905290602090829060249082905afa9081156102af576103c7916103c2915f916104b3575b506112a8565b610b1b565b6103d96103d38261135d565b15610b5d565b6103ec5f6103e68361137a565b13610ba5565b6103fa61014f61014f61244a565b60408051638b4ce3e560e01b8152600481018490529291839060249082905afa9182156102af5761029492610448915f905f92610481575b5061ffff809116159182610476575b5050610c15565b61046361045482611397565b61045d836113b4565b90610c81565b9060018212156113d157600191506113d1565b161590505f80610441565b90506104a5915060403d6040116104ac575b61049d81836107a7565b810190610bf4565b905f610432565b503d610493565b6104cc915060203d6020116103355761032781836107a7565b5f6103bc565b346100e85760603660031901126100e8576004356024356044356104f4610ff6565b61050261014f61014f61244a565b60405163777c2caf60e01b815260048101859052602092918390829060249082905afa9081156102af576105649184915f9161070e575b5061054861014f61014f61244a565b604051808095819463166c682360e31b83528860048401610909565b03915afa80156102af5761057e915f916106f75750610922565b61059061058a8561135d565b15610ca1565b61059e61014f61014f61244a565b60405163951b88d160e01b81526004810183905293905f90859060249082905afa9384156102af575f946106db575b509260608101936105df855151610d08565b936105e8610cea565b966040880193828901925f5b89515181101561062757600190848c528686528888528b610615828c610d9d565b52610620818b610d9d565b50016105f4565b87848a82898787810151905f82135f1461069f57505050506106499082611a35565b61065761014f61014f61244a565b91823b156100e857610682925f9283604051809681958294632f40eabb60e01b845260048401610aa4565b03925af180156102af5761069257005b806102a361029492610759565b51811490816106d1575b50156106c0576106ba9250836110c0565b50610649565b50506106cc908261180f565b610649565b5f915012866106a9565b6106f09194503d805f833e6102d381836107a7565b925f6105cd565b6103029150843d8611610308576102fa81836107a7565b6107259150823d84116103355761032781836107a7565b5f610539565b346100e8575f3660031901126100e857602061011061244a565b634e487b7160e01b5f52604160045260245ffd5b6001600160401b03811161076c57604052565b610745565b606081019081106001600160401b0382111761076c57604052565b604081019081106001600160401b0382111761076c57604052565b601f909101601f19168101906001600160401b0382119082101761076c57604052565b604051906101c082016001600160401b0381118382101761076c57604052565b6001600160401b03811161076c5760051b60200190565b346100e8576060806003193601126100e8576044356001600160401b0381116100e857366023820112156100e85780600401359061083e826107ea565b9160409061084f60405194856107a7565b80845260209160246060602087019302850101933685116100e857602401915b8483106108855761029486602435600435610db1565b86833603126100e857838791835161089c81610771565b853581528286013583820152848601358582015281520192019161086f565b908160209103126100e857516001600160a01b03811681036100e85790565b6040513d5f823e3d90fd5b519081151582036100e857565b908160209103126100e857610906906108e5565b90565b9081526001600160a01b03909116602082015260400190565b1561092957565b60405162461bcd60e51b8152602060048201526018602482015277796f7520646f206e6f74206f776e2074686973206974656d60401b6044820152606490fd5b9080601f830112156100e857815190602091610984816107ea565b9361099260405195866107a7565b81855260208086019260051b8201019283116100e857602001905b8282106109bb575050505090565b815181529083019083016109ad565b906020828203126100e85781516001600160401b03928382116100e85701906080828203126100e85760405192608084018481108282111761076c5760405282518452602083015160208501526040830151604085015260608301519081116100e857610a379201610969565b606082015290565b15610a4657565b60405162461bcd60e51b815260206004820152603060248201527f4f6e6c7920696e7374616e74206865616c696e67206974656d732063616e206260448201526f19481d5cd959081a5b8818dbdb58985d60821b6064820152608490fd5b908152602081019190915260400190565b6001600160401b03811161076c57601f01601f191660200190565b60405190610add82610771565b60298252686f6e73756d61626c6560b81b6040837f576f726c64416374696f6e53797374656d3a205573656420636f6d626174206360208201520152565b15610b2257565b60405162461bcd60e51b81526020600482015260136024820152723737ba1031b430b930b1ba32b91037bbb732b960691b6044820152606490fd5b15610b6457565b60405162461bcd60e51b815260206004820152601960248201527818d85b9b9bdd081c995cdd08191d5c9a5b99c818dbdb58985d603a1b6044820152606490fd5b15610bac57565b60405162461bcd60e51b815260206004820152601160248201527018da185c9858dd195c881a5cc819195859607a1b6044820152606490fd5b519061ffff821682036100e857565b91908260409103126100e8576109066020610c0e84610be5565b9301610be5565b15610c1c57565b60405162461bcd60e51b815260206004820152602360248201527f796f75206d7573742072657475726e20746f20746865206669726520746f2072604482015262195cdd60ea1b6064820152608490fd5b634e487b7160e01b5f52601160045260245ffd5b9190915f8382019384129112908015821691151617610c9c57565b610c6d565b15610ca857565b60405162461bcd60e51b815260206004820152601a60248201527931b0b73737ba103ab9b29034b71030b71032b731b7bab73a32b960311b6044820152606490fd5b60405190610cf782610771565b5f6040838281528260208201520152565b90610d12826107ea565b610d1f60405191826107a7565b8281528092610d30601f19916107ea565b01905f5b828110610d4057505050565b602090610d4b610cea565b82828501015201610d34565b634e487b7160e01b5f52603260045260245ffd5b805115610d785760200190565b610d57565b805160011015610d785760400190565b805160021015610d785760600190565b8051821015610d785760209160051b010190565b909291610dbc610fdf565b90610dc56112fd565b91825115610d7857610dde602093306020820152611d58565b610dfb82600160801b600160f01b038316616e7360f01b1761378a565b8015610fcf575b15610fa65750505f5b8151811015610f9e57610e1e8183610d9d565b5190610e286121f1565b50610e3761014f61014f61244a565b6040808401908151945f82518095635875e22f60e11b82528180610e6460049b8c83019190602083019252565b03915afa80156102af57610f3496898b955f979388948591610f7c575b50610e8c815161228e565b90610e97815161228e565b92610ea2825161228e565b94610ead835161228e565b91519881815191015191610ebf6107ca565b9a8b528a0152898901528660608901528660808901528660a08901528660c08901524360e0890152426101008901526101208801526101408701526101608601526101808501526101a0840152610f1a61014f61014f61244a565b9351631618ab3d60e11b81529788958694859384016117c1565b03925af19182156102af57600192610f54915f91610f5a575b50886122c0565b01610e0b565b610f7691503d805f833e610f6e81836107a7565b81019061152b565b5f610f4d565b610f9891503d8087833e610f9081836107a7565b810190612269565b5f610e81565b505050509050565b610faf90612e75565b610fcb60405192839263d787b73760e01b84526004840161247f565b0390fd5b50610fda828261378a565b610e02565b36603319013560601c908115610ff157565b339150565b60405160208101906001600160401b0382118183101761076c57611023916040525f81525f368137611e0d565b60f81c61102c57565b60405163379a7ed960e01b8152600490fd5b908160209103126100e8575190565b1561105457565b606460405162461bcd60e51b815260206004820152602060248201527f596f7520646f206e6f74206f776e2061206865616c696e6720706f74696f6e2e6044820152fd5b81810392915f138015828513169184121617610c9c57565b600160ff1b8114610c9c575f0390565b6020836110f692959493956110d961014f61014f61244a565b90604051809581948293633d5bf82d60e01b845260048401610aa4565b03915afa80156102af57611113915f916111dc575b50151561104d565b61114f5f61112085611c12565b9261112f61014f61014f61244a565b604051808095819463951b88d160e01b8352600483019190602083019252565b03915afa80156102af576020915f916111c2575b5001519260a08201916080611179868551611098565b91015180911361119f575b509061119d91611195858351611098565b8092526113d1565b565b829194506111b56111ba9161119d945190611098565b6110b0565b939091611184565b6111d691503d805f833e6102d381836107a7565b5f611163565b6111fe915060203d602011611204575b6111f681836107a7565b81019061103e565b5f61110b565b503d6111ec565b5f5b83811061121c5750505f910152565b818101518382015260200161120d565b906020916112458151809281855285808601910161120b565b601f01601f1916010190565b5f91908291611295604051809261128160208301956309710a9d60e41b875260406024850152606484019061122c565b90604483015203601f1981018352826107a7565b51906a636f6e736f6c652e6c6f675afa50565b6112b0610fdf565b6001600160a01b0390811691168181146112f6576112cc611317565b90815115610d78576020820152805160011015610d78576112f1916040820152611e9b565b151590565b5050600190565b6040519061130a8261078c565b6001825260203681840137565b6040519061132482610771565b600282526040366020840137565b60405190608082016001600160401b0381118382101761076c57604052600382526060366020840137565b6113656112fd565b805115610d7857610906916020820152611f0b565b6113826112fd565b805115610d7857610906916020820152611fa2565b61139f6112fd565b805115610d785761090691602082015261203c565b6113bc6112fd565b805115610d78576109069160208201526120e7565b906113da6112fd565b91825115610d78576020830152604051906020820152602081526113fd8161078c565b6001600160a01b0361140d61244a565b16913083036114205761119d92506127ff565b90823b156100e8576040516301c85d5760e51b815264537461747360581b631d18955160e21b01600482015260a06024820152925f92849283918591839161148a91906114719060a4850190611657565b600560448501528381036003190160648501529061122c565b6fe60d002020012020202020010101010160781b608483015203925af180156102af576114b5575b50565b806102a361119d92610759565b9080601f830112156100e8578151906020916114dd816107ea565b936114eb60405195866107a7565b81855260208086019260051b8201019283116100e857602001905b828210611514575050505090565b838091611520846108e5565b815201910190611506565b6020818303126100e85780516001600160401b03918282116100e857016101c0818403126100e85761155b6107ca565b92815184526020820151602085015260408201516040850152606082015160608501526080820151608085015261159460a083016108e5565b60a08501526115a560c083016108e5565b60c085015260e082015160e08501526101008083015190850152610120808301518481116100e857826115d9918501610969565b90850152610140808301518481116100e857826115f7918501610969565b90850152610160808301518481116100e857826116159185016114c2565b90850152610180808301518481116100e857826116339185016114c2565b908501526101a092838301519081116100e85761165092016114c2565b9082015290565b9081518082526020808093019301915f5b828110611676575050505090565b835185529381019392810192600101611668565b9081518082526020808093019301915f5b8281106116a9575050505090565b835115158552938101939281019260010161169b565b919060206117bc5f92604086528051604087015282810151606087015260408101516080870152606081015160a0870152608081015160c087015261170d60a082015160e088019015159052565b60c0810151611723610100918289019015159052565b60e08201519061012091828901528201519061014091828901528201516117a9886101c061179661177e611764610160968488870152610200860190611657565b96880151603f198589038101610180968701529790611657565b94870151946101a0958d87898285030191015261168a565b9186015190858c840301908c015261168a565b92015190878303016101e088015261168a565b930152565b9291906117bc602091604086528051604087015282810151606087015260408101516080870152606081015160a0870152608081015160c087015261170d60a082015160e088019015159052565b91905f5b8151811015611992576118268183610d9d565b51906118306121f1565b5061183f61014f61014f61244a565b6040928381019384515f82518095635875e22f60e11b8252818061186c6004968783019190602083019252565b03915afa9586156102af57611938965f958691611978575b5061188f815161228e565b611899825161228e565b916118a4815161228e565b936118af825161228e565b9051978051602080920151916118c36107ca565b9a8b528a0152878901528860608901528860808901528860a08901528860c08901524360e0890152426101008901526101208801526101408701526101608601526101808501526101a08401528361191f61014f61014f61244a565b9251809781958294631618ab3d60e11b845283016116bf565b03925af19182156102af57600192611958915f9161195e575b50866122c0565b01611813565b61197291503d805f833e610f6e81836107a7565b5f611951565b61198c91503d8088833e610f9081836107a7565b5f611884565b50509050565b906040808301918352602090604060208501528451809352602060608095019501935f915b8483106119cd5750505050505090565b85518051885280850151888601528101518782015295810195948301946001909201916119bd565b634e487b7160e01b5f52602160045260245ffd5b60031115611a1357565b6119f5565b606090610906939281525f6020820152816040820152019061122c565b611a3d6112fd565b805115610d785781602082015260405190600160f91b602083015260018252611a658261078c565b6001600160a01b03611a7561244a565b16308103611ae75750916114b293611a93611ae293611aa3956129aa565b6040519384918360208401611998565b0390611ab7601f19928381018652856107a7565b611ad6604051948592632caa982960e21b602085015260248401611a18565b039081018352826107a7565b6123a6565b9291833b156100e8576040516301c85d5760e51b81526f436f6d626174456e636f756e74657200631d18955160e21b01600482015260a06024820152935f928592839185918391611b599190611b419060a4850190611657565b9084604485015260031984830301606485015261122c565b6aa30802012020012020200160a01b608483015203925af19081156102af576114b293611aa393611ae293611b8f575b50611a93565b806102a3611b9c92610759565b5f611b89565b604051906101a082016001600160401b0381118382101761076c576040525f610180838281528260208201528260408201528260608201528260808201528260a08201528260c08201528260e0820152826101008201528261012082015282610140820152826101608201520152565b611c1a611ba2565b50611c236112fd565b805115610d7857611c38916020820152612531565b5050611c42611ba2565b90602081015190611d4e604082015191611c68611c63606083015160f81c90565b6130c0565b9060618101519060818101519060a18101519060c181015190611d2c8a611d2260e184015193610120611ca8611ca361010184015160f81c90565b6130cc565b93611d1c611cbe611ca361010286015160f81c90565b93611d12611cd4611ca361010384015160f81c90565b91611d08611cfe610105611cf5611cf061010486015160f81c90565b6130d8565b93015160f81c90565b1515610180870152565b6101608501612693565b61014083016126a9565b016126a9565b6101008c016126a9565b60e08a015260c089015260a088015260808701526060860152604085016126b5565b6020830152815290565b6001600160a01b03611d6861244a565b16308103611d7e5750611d7a906131c8565b5490565b604051638c364d5960e01b81526f53797374656d52656769737472790000661d189ddbdc9b1960ca1b0160048201526080602482015291602091839182908190611dcc906084830190611657565b5f6044830152630100080160dd1b606483015203915afa9081156102af575f91611df4575090565b610906915060203d602011611204576111f681836107a7565b6001600160a01b03611e1d61244a565b16308103611e2f5750611d7a90613249565b604051638c364d5960e01b81526514185d5cd95960521b631d18955160e21b0160048201526080602482015291602091839182908190611e73906084830190611657565b5f6044830152630101000160d81b606483015203915afa9081156102af575f91611df4575090565b6001600160a01b03611eab61244a565b16308103611ebd5750611d7a906132ab565b604051638c364d5960e01b81526f5573657244656c65676174696f6e436f661d189ddbdc9b1960ca1b0160048201526080602482015291602091839182908190611dcc906084830190611657565b6001600160a01b03611f1b61244a565b16308103611f2d5750611d7a90613317565b604051638c364d5960e01b81526f456e636f756e746572456e7469747900631d18955160e21b0160048201526080602482015291602091839182908190611f78906084830190611657565b5f60448301526502081809000960cd1b606483015203915afa9081156102af575f91611df4575090565b6001600160a01b03611fb261244a565b16308103611fc45750610906906126be565b604051638c364d5960e01b815264537461747360581b631d18955160e21b0160048201526080602482015291602091839182908190612007906084830190611657565b600560448301526fe60d002020012020202020010101010160781b606483015203915afa9081156102af575f91611df4575090565b6001600160a01b0361204c61244a565b1630810361206f575061206161090691613380565b612069613517565b90613599565b604051638c364d5960e01b815264537461747360581b631d18955160e21b01600482015260806024820152916020918391829081906120b2906084830190611657565b600460448301526fe60d002020012020202020010101010160781b606483015203915afa9081156102af575f91611df4575090565b6001600160a01b036120f761244a565b1630810361210957506109069061273c565b604051638c364d5960e01b81526f43686172616374657245717569706d65631d18955160e21b0160048201526080602482015291602091839182908190612154906084830190611657565b6003604483015267050028290101010160bd1b606483015203915afa9081156102af575f91611df4575090565b6001600160a01b0361219161244a565b163081036121a35750611d7a906133e1565b604051638c364d5960e01b81526f5265736f757263654163636573730000661d189ddbdc9b1960ca1b0160048201526080602482015291602091839182908190611e73906084830190611657565b604051906101c082016001600160401b0381118382101761076c57604052815f81525f60208201525f60408201526101a06060915f838201525f60808201525f60a08201525f60c08201525f60e08201525f610100820152826101208201528261014082015282610160820152826101808201520152565b906020828203126100e85781516001600160401b0381116100e8576109069201610969565b90612298826107ea565b6122a560405191826107a7565b82815280926122b6601f19916107ea565b0190602036910137565b61119d9161230b815160208301516040840151606085015160808601516122ea60a0880151151590565b916122f860c0890151151590565b9360e0890151956101008a015197612b21565b61237761012083015192610140810151906101608101516101a061018083015192015192612371848484848b93929193519051935191519251938460d81b948460b01b948460881b948360651b9480603d1b9460051b9060051b01010101171717171790565b96612b84565b92612380611332565b9061238a82610d6b565b525f61239582610d7d565b525f6123a082610d8d565b52612c2e565b80516020820180516001600160e01b031994939285918281169160048110612434575b505090506123d56112fd565b805115610d7857856123ec921660208201526125fb565b5050906040602083015192015182156124195781516001600160e01b031617905291925061090691612d25565b604051637eef2a7160e11b81525f3587166004820152602490fd5b8391925060040360031b1b161684905f806123c9565b7f629a4c26e296b22a8e0856e9f6ecb2d1008d7e00081111962cd175fa7488e175546001600160a01b03168061090657503390565b9061249760209194939460408452604084019061122c565b6001600160a01b03909416910152565b81601f820112156100e85780516124bd81610ab5565b926124cb60405194856107a7565b818452602082840101116100e857610906916020808501910161120b565b90916060828403126100e85781516001600160401b0392908381116100e857846125149183016124a7565b9360208201519360408301519081116100e85761090692016124a7565b6001600160a01b0361254161244a565b1630810361255a575061255390612fd9565b9192909190565b60405163419b58fd60e01b815264537461747360581b631d18955160e21b0160048201526060602482015292915f9184918290819061259d906064830190611657565b6fe60d002020012020202020010101010160781b604483015203915afa9081156102af575f80935f936125d1575b50929190565b919350506125f191503d805f833e6125e981836107a7565b8101906124e9565b929092915f6125cb565b6001600160a01b0361260b61244a565b1630810361261d575061255390613036565b60405163419b58fd60e01b81526f46756e6374696f6e53656c6563746f72661d189ddbdc9b1960ca1b0160048201526060602482015292915f9184918290819061266b906064830190611657565b64090080080160d21b604483015203915afa9081156102af575f80935f936125d15750929190565b600a821015611a135752565b60041115611a1357565b6126b28261269f565b52565b6126b282611a09565b6040805164537461747360581b631d18955160e21b01602080830191825284519383019594919391810191905f5b828110612728575050505061270e81610906949503601f1981018352826107a7565b5190205f80516020613d9c83398151915218612069613558565b8351885296810196928101926001016126ec565b60405160208160208101936f43686172616374657245717569706d65631d18955160e21b0185526040820160208251919201935f5b8281106127e85750505061278e925003601f1981018352826107a7565b5190205f91905f80516020613d9c83398151915218825b6003808510156127db5767050028290101010160bd1b601b86900390911b1c60ff168101908110610c9c576001909301926127a5565b5090610906929350613599565b855184529481019486945092810192600101612771565b91909165ffffffffffff612811613558565b1661281b8261344d565b612823613826565b905f5b82518110156128cb5761285a61284d61283f8386610d9d565b516001600160581b03191690565b6001600160581b03191690565b9060049182808260581c1614612876575b506001915001612826565b60601c803b156100e857855f9188838c966128a56040519889968795869463964f667d60e01b86528501613633565b03925af19182156102af576001921561286b57806102a36128c592610759565b5f61286b565b50604080519096939291612914918591859164537461747360581b631d18955160e21b01905f80516020613d7c833981519152908061290c87878e84613602565b0390a2613999565b5f5b81518110156129a15761292f61284d61283f8385610d9d565b6008808260581c1614612946575b50600101612916565b60601c90813b156100e857875163a8ba872160e01b8152915f9083908183816129748b8b8e60048501613633565b03925af19182156102af5760019261298e575b509061293d565b806102a361299b92610759565b5f612987565b50505050509050565b91906129b5836134ae565b916129be6138f0565b905f5b8251811015612a4a576129da61284d61283f8386610d9d565b9060049182808260581c16146129f6575b5060019150016129c1565b60601c803b156100e857855f918983612a24966040519788958694859363964f667d60e01b8552840161367e565b03925af19182156102af57600192156129eb57806102a3612a4492610759565b5f6129eb565b50929190612a95826040946040515f80516020613d7c8339815191526f436f6d626174456e636f756e74657200631d18955160e21b019180612a8d868d836135d7565b0390a261394c565b5f5b8151811015610f9e57612ab061284d61283f8385610d9d565b6008808260581c1614612ac7575b50600101612a97565b60601c90813b156100e857845163a8ba872160e01b8152915f908390818381612af48a8e6004840161367e565b03925af19182156102af57600192612b0e575b5090612abe565b806102a3612b1b92610759565b5f612b07565b97969594939291906040519860208a015260408901526060880152608087015260a0860152151560f81b60c0850152151560f81b60c184015260c283015260e282015260e28152610120810181811060018060401b0382111761076c5760405290565b93612bb9612bb3612bad612ba7612ba161090698999796976139aa565b966139aa565b94613a04565b96613a04565b91613a04565b90604051958693602095612bd58151809289808a01910161120b565b8501612be98251809389808501910161120b565b01612bfc8251809388808501910161120b565b01612c0f8251809387808501910161120b565b01612c228251809386808501910161120b565b010380845201826107a7565b909291906001600160a01b03612c4261244a565b16308103612c5557509261119d936136c9565b909192813b156100e8575f612cc493612cd88296612cb194604051998a988997889663298314fb60e01b88526f416374696f6e4f7574636f6d65000000631bdd155160e21b01600489015260a0602489015260a4880190611657565b600319928388830301604489015261122c565b92606486015284830301608485015261122c565b03925af180156102af576114b55750565b906020828203126100e85781516001600160401b0381116100e85761090692016124a7565b60409061090693928152816020820152019061122c565b906001600160a01b03612d3661244a565b16803014612d9357905f91612d62938360405180968195829463075cf5e160e31b845260048401612d0e565b03925af19081156102af575f91612d77575090565b61090691503d805f833e612d8b81836107a7565b810190612ce9565b50612d9c610fdf565b91612da56112fd565b805115610d785780826020612dbb930152612f32565b5050906034602083015160601c92015160f81c8215612e2c5715612e1d575b60101b6001600160901b031916612e0357612df492613af0565b905b15612dfe5790565b613782565b90612e1191612e1793613acb565b90151591565b90612df6565b612e278482613a5f565b612dda565b50612e3681612e75565b604051637df8867360e11b8152918291610fcb9160048401612d0e565b60405190612e608261078c565b60068252651e3937b7ba1f60d11b6020830152565b608081901b6001600160801b0319169061090690602490601081901b6001600160901b03191680612f235750612ea9612e53565b935b80612f155750612eb9612e53565b60405194859261ffff60f01b166020840152601d60f91b90816022850152612eeb81518092602060238801910161120b565b8301906023820152612f06825180936020878501910161120b565b010360048101845201826107a7565b612f1e906137c8565b612eb9565b612f2c906137c8565b93612eab565b5f906060906040519060209082612f4d602082019283613132565b0392612f61601f19948581018352826107a7565b5190205f80516020613d9c833981519152189160405192816054850116604052601584526020840192601591925b81831015612fc157505080612fa5575b50505092565b5f199060031b1c908183511691199054161790525f8080612f9f565b81600185839495979654875201940194019190612f8f565b5f90612fe660609161344d565b60405190602090601f19908161012585011660405260e68452602084019260e691925b8183101561301e57505080612fa55750505092565b81600185839495979654875201940194019190613009565b5f90606090604051906020908261305160208201928361317a565b0392613065601f19948581018352826107a7565b5190205f80516020613d9c833981519152189160405192816063850116604052602484526020840192602491925b818310156130a857505080612fa55750505092565b81600185839495979654875201940194019190613093565b60ff1661090681611a09565b60ff166109068161269f565b60ff16600a811015611a135790565b6953746f7265486f6f6b7360301b66746273746f726560c81b01815281516020918201928201915f5b82811061311e575050505090565b835185529381019392810192600101613110565b6653797374656d7360481b661d189ddbdc9b1960ca1b01815281516020918201928201915f5b828110613166575050505090565b835185529381019392810192600101613158565b6f46756e6374696f6e53656c6563746f72661d189ddbdc9b1960ca1b01815281516020918201928201915f5b8281106131b4575050505090565b8351855293810193928101926001016131a6565b60405160208160208101936f53797374656d52656769737472790000661d189ddbdc9b1960ca1b0185526040820160208251919201935f5b8281106132325750505061321d925003601f1981018352826107a7565b5190205f80516020613d9c8339815191521890565b855184529481019486945092810192600101613200565b60405160208160208101936514185d5cd95960521b631d18955160e21b0185526040820160208251919201935f5b8281106132945750505061321d925003601f1981018352826107a7565b855184529481019486945092810192600101613277565b60405160208160208101936f5573657244656c65676174696f6e436f661d189ddbdc9b1960ca1b0185526040820160208251919201935f5b8281106133005750505061321d925003601f1981018352826107a7565b8551845294810194869450928101926001016132e3565b60405160208160208101936f456e636f756e746572456e7469747900631d18955160e21b0185526040820160208251919201935f5b8281106133695750505061321d925003601f1981018352826107a7565b85518452948101948694509281019260010161334c565b604051602081602081019364537461747360581b631d18955160e21b0185526040820160208251919201935f5b8281106133ca5750505061321d925003601f1981018352826107a7565b8551845294810194869450928101926001016133ad565b60405160208160208101936f5265736f757263654163636573730000661d189ddbdc9b1960ca1b0185526040820160208251919201935f5b8281106134365750505061321d925003601f1981018352826107a7565b855184529481019486945092810192600101613419565b604051602081602081019364537461747360581b631d18955160e21b0185526040820160208251919201935f5b8281106134975750505061321d925003601f1981018352826107a7565b85518452948101948694509281019260010161347a565b60405160208160208101936f436f6d626174456e636f756e74657200631d18955160e21b0185526040820160208251919201935f5b8281106135005750505061321d925003601f1981018352826107a7565b8551845294810194869450928101926001016134e3565b5f805b60048110613526575090565b9060ff6fe60d002020012020202020010101010160781b83601b0360031b1c168101809111610c9c579060010161351a565b5f805b60058110613567575090565b9060ff6fe60d002020012020202020010101010160781b83601b0360031b1c168101809111610c9c579060010161355b565b60208210156135c9575b80548260031b1b9160200390816020116135bc57505090565b600101549060031b1c1790565b601f82169160051c016135a3565b90916135ee61090693606084526060840190611657565b915f6020820152604081840391015261122c565b65ffffffffffff61361f6109069593606084526060840190611657565b93166020820152604081840391015261122c565b64537461747360581b631d18955160e21b018152608060208201819052610906949265ffffffffffff9161366a9190840190611657565b93166040820152606081840391015261122c565b6f436f6d626174456e636f756e74657200631d18955160e21b0181526080602082018190526109069391926136b591840190611657565b915f6040820152606081840391015261122c565b60408051655461626c657360501b66746273746f726560c81b0160208201526f416374696f6e4f7574636f6d65000000631bdd155160e21b0181830181905291815290947f8dbb3a9672eebfd3773e72dd9c102393436816d832c7ba9e1e1ac8fcadcac7a99461375c9461377d9391929161376a919061374890610771565b604051968796608088526080880190611657565b90868203602088015261122c565b916040850152838203606085015261122c565b0390a2565b602081519101fd5b613792611317565b90815115610d78576020820152805160011015610d78576001600160a01b0390911660408201526137c290612181565b60f81c90565b5f5b601081106137f9575b6040516001600160801b03199092166020830152601082526137f48261078c565b815290565b6001600160801b03198216600382901b1b6001600160f81b03191615613821576001016137ca565b6137d3565b61382e6112fd565b805115610d78576138d96109069164537461747360581b631d18955160e21b01602082015264ffffffffff604051915f80516020613dbc833981519152602084018461387a84836130e7565b039461388e601f19968781018352826107a7565b51902018926138a96040519182611ad66020820195866130e7565b5190207f14e2fcc58e58e68ec7edc30c8d50dccc3ce2714a623ec81f46b6a63922d76569185460381c1690613b10565b602060018060801b03825116910160801b17613b78565b6138f86112fd565b805115610d78576138d9610906916f436f6d626174456e636f756e74657200631d18955160e21b01602082015264ffffffffff604051915f80516020613dbc833981519152602084018461387a84836130e7565b81519060208093019190925b8082101561398157508061396b57505050565b5f199060031b1c90818354169119905116179055565b6001839482939451815501930191601f190190613958565b825161119d93602001929091613bca565b9081518060051b60209180820460201481151715610c9c5790604051946020860191601f19603f8289010116604052865260205f9101905b8381106139f0575050505050565b8151835291840191908401906001016139e2565b9081519160019083800460011484151715610c9c5760408051808601603f01601f191690915284815293906020908186019082015f5b848110613a4957505050505050565b815160f81b835291850191908301908501613a3a565b613a7c82600160801b600160f01b038316616e7360f01b17613cb2565b8015613a8c575b15610fa6575050565b50613a978282613cb2565b613a83565b3d15613ac6573d90613aad82610ab5565b91613abb60405193846107a7565b82523d5f602084013e565b606090565b90613ad95f93928493613c6a565b9082602083519301915af1613aec613a9c565b9091565b90613afe5f93928493613c6a565b90602082519201905af4613aec613a9c565b60408051601f19603f85830101811690925283815292602080850193925b81831015613b6057505080613b44575b50505090565b5f199060031b1c908183511691199054161790525f8080613b3e565b81600185839495979654875201940194019190613b2e565b8060801c906015809160018060801b031604604051926020906020850160208460051b8701016040528386525f5b848110613bb65750505050505090565b825182529185019190830190600101613ba6565b909392919380613c09575b509290925b602090818310613bfa5784518155930192601f1990910190600101613bda565b92939190508061396b57505050565b6020811015613c5a575b8015613bd55791939082602003908360031b5f198460031b1c19811c908751901c908019835416911617815581831115610f9e57600101940191601f19910101925f613bd5565b90601f908260051c019116613c13565b6054610906916040519381613c8986935180926020808701910161120b565b82019060018060601b03199060601b1660208201525f60348201520360348101845201826107a7565b613cba611317565b90815115610d78576020926020830191825282519060019160011015610d78576001600160a01b031660408085019190915280516f5265736f757263654163636573730000661d189ddbdc9b1960ca1b0160208201908152945194959094918501939291905f5b828110613d685750505050509181613d486137c2936109069503601f1981018352826107a7565b5190205f80516020613d9c83398151915218546001600160f81b03191690565b8451865294810194938101938301613d2156fe8c0b5119d4cec7b284c6b1b39252a03d1e2f2d7451a5895562524c113bb952be86425bff6b57326c7859e89024fe4f238ca327a1ae4a230180dd2f0e88aaa7d93b4102da22e32d82fc925482184f16c09fd4281692720b87d124aef6da48a0f1","linkReferences":{}},"methodIdentifiers":{"_msgSender()":"119df25f","_msgValue()":"45ec9354","_world()":"e1af802c","executeWorldRngActions(uint256,bytes32,(bytes32,bytes32,uint256)[])":"e3883cbc","rest(bytes32)":"af202932","supportsInterface(bytes4)":"01ffc9a7","useCombatConsumableItem(bytes32,uint256)":"22cb21c0","useWorldConsumableItem(bytes32,bytes32,uint256)":"dc6e8eb7"},"id":176}