{"abi":[{"type":"function","name":"_msgSender","inputs":[],"outputs":[{"name":"sender","type":"address","internalType":"address"}],"stateMutability":"view"},{"type":"function","name":"_msgValue","inputs":[],"outputs":[{"name":"value","type":"uint256","internalType":"uint256"}],"stateMutability":"pure"},{"type":"function","name":"_world","inputs":[],"outputs":[{"name":"","type":"address","internalType":"address"}],"stateMutability":"view"},{"type":"function","name":"executeWorldRngActions","inputs":[{"name":"randomNumber","type":"uint256","internalType":"uint256"},{"name":"givingEntity","type":"bytes32","internalType":"bytes32"},{"name":"actions","type":"tuple[]","internalType":"struct Action[]","components":[{"name":"attackerEntityId","type":"bytes32","internalType":"bytes32"},{"name":"defenderEntityId","type":"bytes32","internalType":"bytes32"},{"name":"itemId","type":"uint256","internalType":"uint256"}]}],"outputs":[],"stateMutability":"nonpayable"},{"type":"function","name":"supportsInterface","inputs":[{"name":"interfaceId","type":"bytes4","internalType":"bytes4"}],"outputs":[{"name":"","type":"bool","internalType":"bool"}],"stateMutability":"pure"},{"type":"function","name":"useWorldConsumableItem","inputs":[{"name":"givingEntity","type":"bytes32","internalType":"bytes32"},{"name":"receivingEntity","type":"bytes32","internalType":"bytes32"},{"name":"itemId","type":"uint256","internalType":"uint256"}],"outputs":[],"stateMutability":"nonpayable"},{"type":"event","name":"Store_SetRecord","inputs":[{"name":"tableId","type":"bytes32","indexed":true,"internalType":"ResourceId"},{"name":"keyTuple","type":"bytes32[]","indexed":false,"internalType":"bytes32[]"},{"name":"staticData","type":"bytes","indexed":false,"internalType":"bytes"},{"name":"encodedLengths","type":"bytes32","indexed":false,"internalType":"EncodedLengths"},{"name":"dynamicData","type":"bytes","indexed":false,"internalType":"bytes"}],"anonymous":false},{"type":"event","name":"Store_SpliceStaticData","inputs":[{"name":"tableId","type":"bytes32","indexed":true,"internalType":"ResourceId"},{"name":"keyTuple","type":"bytes32[]","indexed":false,"internalType":"bytes32[]"},{"name":"start","type":"uint48","indexed":false,"internalType":"uint48"},{"name":"data","type":"bytes","indexed":false,"internalType":"bytes"}],"anonymous":false},{"type":"error","name":"Slice_OutOfBounds","inputs":[{"name":"data","type":"bytes","internalType":"bytes"},{"name":"start","type":"uint256","internalType":"uint256"},{"name":"end","type":"uint256","internalType":"uint256"}]},{"type":"error","name":"World_AccessDenied","inputs":[{"name":"resource","type":"string","internalType":"string"},{"name":"caller","type":"address","internalType":"address"}]},{"type":"error","name":"World_FunctionSelectorNotFound","inputs":[{"name":"functionSelector","type":"bytes4","internalType":"bytes4"}]},{"type":"error","name":"World_ResourceNotFound","inputs":[{"name":"resourceId","type":"bytes32","internalType":"ResourceId"},{"name":"resourceIdString","type":"string","internalType":"string"}]}],"bytecode":{"object":"0x608060405234801561001057600080fd5b50613a60806100206000396000f3fe608060405234801561001057600080fd5b50600436106100725760003560e01c8063dc6e8eb711610050578063dc6e8eb7146100d2578063e1af802c146100e7578063e3883cbc146100ef57600080fd5b806301ffc9a714610077578063119df25f1461009f57806345ec9354146100bf575b600080fd5b61008a610085366004612c0c565b610102565b60405190151581526020015b60405180910390f35b6100a761019b565b6040516001600160a01b039091168152602001610096565b604051601f193601358152602001610096565b6100e56100e0366004612c4e565b6101aa565b005b6100a761063e565b6100e56100fd366004612d32565b610648565b60007fffffffff0000000000000000000000000000000000000000000000000000000082167fb5dee12700000000000000000000000000000000000000000000000000000000148061019557507fffffffff0000000000000000000000000000000000000000000000000000000082167f01ffc9a700000000000000000000000000000000000000000000000000000000145b92915050565b60006101a5610669565b905090565b6101b261063e565b6001600160a01b03166343def638846101c961019b565b6040517fffffffff0000000000000000000000000000000000000000000000000000000060e085901b16815260048101929092526001600160a01b03166024820152604401602060405180830381865afa15801561022b573d6000803e3d6000fd5b505050506040513d601f19601f8201168201806040525081019061024f9190612e1a565b6102ba576040517f08c379a000000000000000000000000000000000000000000000000000000000815260206004820152601d60248201527f43616e6e6f7420636f6e73756d6520616e6f746865722773206974656d00000060448201526064015b60405180910390fd5b6102c261063e565b6001600160a01b031663b3634118826102d961019b565b6040517fffffffff0000000000000000000000000000000000000000000000000000000060e085901b16815260048101929092526001600160a01b03166024820152604401602060405180830381865afa15801561033b573d6000803e3d6000fd5b505050506040513d601f19601f8201168201806040525081019061035f9190612e1a565b6103c5576040517f08c379a000000000000000000000000000000000000000000000000000000000815260206004820152601860248201527f796f7520646f206e6f74206f776e2074686973206974656d000000000000000060448201526064016102b1565b60006103d08461069b565b14610437576040517f08c379a000000000000000000000000000000000000000000000000000000000815260206004820152601a60248201527f63616e6e6f742075736520696e20616e20656e636f756e74657200000000000060448201526064016102b1565b600061044161063e565b6001600160a01b031663951b88d1836040518263ffffffff1660e01b815260040161046e91815260200190565b600060405180830381865afa15801561048b573d6000803e3d6000fd5b505050506040513d6000823e601f3d908101601f191682016040526104b39190810190612e9f565b9050600081606001515167ffffffffffffffff8111156104d5576104d5612c7a565b60405190808252806020026020018201604052801561052057816020015b60408051606081018252600080825260208083018290529282015282526000199092019101816104f35790505b50604080516060810182526000808252602082018190529181018290529192505b8360600151518110156105885786825260208201869052604082018590528251829084908390811061057557610575612f42565b6020908102919091010152600101610541565b506000836020015113156105a5576105a08683610734565b6105b1565b6105b1600087846107d4565b6105b961063e565b6040517f2f40eabb00000000000000000000000000000000000000000000000000000000815260048101889052602481018690526001600160a01b039190911690632f40eabb906044015b600060405180830381600087803b15801561061e57600080fd5b505af1158015610632573d6000803e3d6000fd5b50505050505050505050565b60006101a56108a0565b6106593061065461019b565b6108aa565b6106648383836107d4565b505050565b7fffffffffffffffffffffffffffffffffffffffffffffffffffffffffffffffcc36013560601c806106985750335b90565b6040805160018082528183019092526000918291906020808301908036833701905050905082816000815181106106d4576106d4612f42565b6020908102919091010152600061072c7f74625544000000000000000000000000456e636f756e746572456e746974790083837e210201200100000000000000000000000000000000000000000000000000006108c0565b949350505050565b61073f82600261097d565b6106648260008484604051602001610758929190612f58565b60408051601f1981840301815290829052610777939291602401613024565b60408051601f198184030181529190526020810180517bffffffffffffffffffffffffffffffffffffffffffffffffffffffff167fb2aa60a400000000000000000000000000000000000000000000000000000000179052610a67565b60005b815181101561089a5760006108048383815181106107f7576107f7612f42565b6020026020010151610af8565b905061080e61063e565b6001600160a01b0316632c31567a82876040518363ffffffff1660e01b815260040161083b9291906130d0565b6000604051808303816000875af115801561085a573d6000803e3d6000fd5b505050506040513d6000823e601f3d908101601f19168201604052610882919081019061327f565b90506108918460008084610d8a565b506001016107d7565b50505050565b60006101a5610f38565b6108bc6108b683610f77565b82611014565b5050565b6000806108cb610f38565b9050306001600160a01b038216036108f1576108e986868686611060565b91505061072c565b6040517f8c364d590000000000000000000000000000000000000000000000000000000081526001600160a01b03821690638c364d599061093c9089908990899089906004016133f3565b602060405180830381865afa158015610959573d6000803e3d6000fd5b505050506040513d601f19601f820116820180604052508101906108e99190613422565b6040805160018082528183019092526000916020808301908036833701905050905082816000815181106109b3576109b3612f42565b60209081029190910101526106647f74625544000000000000000000000000436f6d626174456e636f756e746572008260008560028111156109f7576109f7612fbe565b604051602001610a32919060f89190911b7fff0000000000000000000000000000000000000000000000000000000000000016815260010190565b60408051601f198184030181529190527ea3080201202001202020010000000000000000000000000000000000000000611096565b6060600080610a7d610a788561343b565b611119565b91509150816000801b03610ae3576040517ffdde54e20000000000000000000000000000000000000000000000000000000081527fffffffff000000000000000000000000000000000000000000000000000000006000351660048201526024016102b1565b61072c82610af3866000856111e9565b61121c565b610b74604051806101c001604052806000815260200160008019168152602001600080191681526020016000815260200160008152602001600015158152602001600015158152602001600081526020016000815260200160608152602001606081526020016060815260200160608152602001606081525090565b6000610b7e61063e565b6001600160a01b031663b0ebc45e84604001516040518263ffffffff1660e01b8152600401610baf91815260200190565b600060405180830381865afa158015610bcc573d6000803e3d6000fd5b505050506040513d6000823e601f3d908101601f19168201604052610bf4919081019061348b565b90506000815167ffffffffffffffff811115610c1257610c12612c7a565b604051908082528060200260200182016040528015610c3b578160200160208202803683370190505b5090506000825167ffffffffffffffff811115610c5a57610c5a612c7a565b604051908082528060200260200182016040528015610c83578160200160208202803683370190505b5090506000835167ffffffffffffffff811115610ca257610ca2612c7a565b604051908082528060200260200182016040528015610ccb578160200160208202803683370190505b5090506000845167ffffffffffffffff811115610cea57610cea612c7a565b604051908082528060200260200182016040528015610d13578160200160208202803683370190505b50604080516101c081018252898201518152895160208083019190915290990151908901526000606089018190526080890181905260a0890181905260c08901524360e089015242610100890152610120880152506101408601939093526101608501919091526101808401526101a08301525090565b6000610e21826000015183602001518460400151856060015186608001518760a001518860c001518960e001518a610100015160408051602081019a909a52898101989098526060890196909652608088019490945260a0870192909252151560f890811b60c0870152901515901b60c185015260c284015260e28084019190915281518084039091018152610102909201905290565b90506000610e4b836101200151846101400151856101600151866101800151876101a001516112f7565b90506000610e75846101200151856101400151866101600151876101800151886101a0015161134f565b6040805160038082526080820190925291925060009190602082016060803683370190505090508781600081518110610eb057610eb0612f42565b6020026020010181815250508660001b81600181518110610ed357610ed3612f42565b6020026020010181815250508560001b81600281518110610ef657610ef6612f42565b6020908102919091010152610f2e7f6f745544000000000000000000000000416374696f6e4f7574636f6d65000000828686866113ac565b5050505050505050565b7f629a4c26e296b22a8e0856e9f6ecb2d1008d7e00081111962cd175fa7488e175546000906001600160a01b031680610f72573391505090565b919050565b60408051600180825281830190925260009182919060208083019080368337019050509050826001600160a01b031660001b81600081518110610fbc57610fbc612f42565b6020908102919091010152600061072c7f7462776f726c6400000000000000000053797374656d5265676973747279000083837e200100200000000000000000000000000000000000000000000000000000006108c0565b61101e8282611422565b6108bc5761102b82611480565b816040517fd787b7370000000000000000000000000000000000000000000000000000000081526004016102b19291906134c0565b600061108d61106f86866115bd565b60ff858116601b0360080285901c166110888587611613565b61164c565b95945050505050565b60006110a0610f38565b9050306001600160a01b038216036110c4576110bf868686868661169d565b611111565b6040517f390baae00000000000000000000000000000000000000000000000000000000081526001600160a01b0382169063390baae09061060490899089908990899089906004016134eb565b505050505050565b6040805160018082528183019092526000918291829160208083019080368337019050509050837bffffffffffffffffffffffffffffffffffffffffffffffffffffffff19168160008151811061117257611172612f42565b6020908102919091010152600080806111cb7f7462776f726c6400000000000000000046756e6374696f6e53656c6563746f72857e240200200400000000000000000000000000000000000000000000000000006116b9565b9250925092506111dc838383611789565b9550955050505050915091565b82820160200180517bffffffffffffffffffffffffffffffffffffffffffffffffffffffff1682179052825b9392505050565b606060006112286108a0565b90506001600160a01b0381163003611269576000611250611247610669565b600087876117a1565b935090508061126257611262836118dc565b5050610195565b6040517f3ae7af080000000000000000000000000000000000000000000000000000000081526001600160a01b03821690633ae7af08906112b09087908790600401613532565b6000604051808303816000875af11580156112cf573d6000803e3d6000fd5b505050506040513d6000823e601f3d908101601f1916820160405261072c91908101906135af565b60006113458651602002865160200286516001028651600102865160010260d881901b60b083901b608885901b606087901b603889901b898901880187018601171717171795945050505050565b9695505050505050565b606061135a866118e4565b611363866118e4565b61136c866118f4565b611375866118f4565b61137e866118f4565b6040516020016113929594939291906135e4565b604051602081830303815290604052905095945050505050565b60006113b6610f38565b9050306001600160a01b038216036113d5576110bf8686868686611904565b6040517f298314fb0000000000000000000000000000000000000000000000000000000081526001600160a01b0382169063298314fb90610604908990899089908990899060040161364f565b60006114707f6e730000000000000000000000000000000000000000000000000000000000007dffffffffffffffffffffffffffff000000000000000000000000000000008516178361191a565b806112155750611215838361191a565b606081601081901b6000611493836119e3565b9050827fffffffffffffffffffffffffffff0000000000000000000000000000000000008316156114ee576114e97fffffffffffffffffffffffffffff00000000000000000000000000000000000084166119fa565b611525565b6040518060400160405280600681526020017f3c726f6f743e00000000000000000000000000000000000000000000000000008152505b7fffffffffffffffffffffffffffffffff0000000000000000000000000000000083161561155b57611556836119fa565b611592565b6040518060400160405280600681526020017f3c726f6f743e00000000000000000000000000000000000000000000000000008152505b6040516020016115a4939291906136a0565b6040516020818303038152906040529350505050919050565b600082826040516020016115d292919061372e565b60408051601f1981840301815291905280516020909101207f86425bff6b57326c7859e89024fe4f238ca327a1ae4a230180dd2f0e88aaa7d9189392505050565b600080805b8360ff168110156116445761163a60ff601b83900360080287901c1683613780565b9150600101611618565b509392505050565b6000602082106116725760208204840193506020828161166e5761166e613793565b0691505b508254600882021b602082900380841115611644576001850154600882021c82179150509392505050565b6116b285856116ac8487611613565b85611a9e565b5050505050565b60606000606060006116c9610f38565b9050306001600160a01b038216036116f2576116e6878787611d42565b93509350935050611780565b6040517f419b58fd0000000000000000000000000000000000000000000000000000000081526001600160a01b0382169063419b58fd9061173b908a908a908a906004016137a9565b600060405180830381865afa158015611758573d6000803e3d6000fd5b505050506040513d6000823e601f3d908101601f191682016040526116e691908101906137d2565b93509350939050565b60008061179585611e4a565b90969095509350505050565b600060606000806117b186611e5f565b90925090506001600160a01b03821661180257856117ce87611480565b6040517ffbf10ce60000000000000000000000000000000000000000000000000000000081526004016102b1929190613532565b80611811576118118689611f03565b861561187d577dffffffffffffffffffffffffffff0000000000000000000000000000000086167f6e7300000000000000000000000000000000000000000000000000000000000017600061186582611f0d565b905061187a826118758b84613780565b611f9e565b50505b60006118898760101b90565b7fffffffffffffffffffffffffffff00000000000000000000000000000000000016146118c1576118bc88888488612052565b6118cd565b6118cd888884886120ca565b90999098509650505050505050565b805160208201fd5b606081611215816020600061212b565b60608161121581600160f861212b565b6116b285858585856119158b61218b565b612210565b60408051600280825260608201835260009283929190602083019080368337019050509050838160008151811061195357611953612f42565b602002602001018181525050826001600160a01b031660001b8160018151811061197f5761197f612f42565b602090810291909101015260006119d77f7462776f726c640000000000000000005265736f75726365416363657373000083837e010100010000000000000000000000000000000000000000000000000000006108c0565b905061108d8160f81c90565b60006119f160706010613780565b9190911b919050565b606060005b6010811015611a5f577fffffffffffffffffffffffffffffffff000000000000000000000000000000008316600882021b7fff000000000000000000000000000000000000000000000000000000000000001615611a5f576001016119ff565b604080517fffffffffffffffffffffffffffffffff0000000000000000000000000000000085166020820152815160309091019091528181528061072c565b7f6f74000000000000000000000000000000000000000000000000000000000000847fffff0000000000000000000000000000000000000000000000000000000000001603611b2857837f8c0b5119d4cec7b284c6b1b39252a03d1e2f2d7451a5895562524c113bb952be848484604051611b1b9392919061383f565b60405180910390a261089a565b6000611b3485856115bd565b90506000611b4186612549565b905060005b8151811015611c16576000828281518110611b6357611b63612f42565b60200260200101519050611b8f6004826affffffffffffffffffffff19166125d290919063ffffffff16565b15611c0d576040517f964f667d000000000000000000000000000000000000000000000000000000008152606082901c9063964f667d90611bda908b908b908b908b90600401613872565b600060405180830381600087803b158015611bf457600080fd5b505af1158015611c08573d6000803e3d6000fd5b505050505b50600101611b46565b50857f8c0b5119d4cec7b284c6b1b39252a03d1e2f2d7451a5895562524c113bb952be868686604051611c4b9392919061383f565b60405180910390a2611c66828565ffffffffffff16856125f0565b60005b8151811015611d39576000828281518110611c8657611c86612f42565b60200260200101519050611cb26008826affffffffffffffffffffff19166125d290919063ffffffff16565b15611d30576040517fa8ba8721000000000000000000000000000000000000000000000000000000008152606082901c9063a8ba872190611cfd908b908b908b908b90600401613872565b600060405180830381600087803b158015611d1757600080fd5b505af1158015611d2b573d6000803e3d6000fd5b505050505b50600101611c69565b50505050505050565b6060600060606000611d5385612606565b9050611d60878783612629565b93506000611d6d86612662565b90508015611e3f57611d7f888861269f565b935066ffffffffffffff841667ffffffffffffffff811115611da357611da3612c7a565b6040519080825280601f01601f191660200182016040528015611dcd576020820181803683370190505b5092506020830160005b828160ff161015611e3c576000611def8b8b846126b2565b90506000611e0c888460ff166028026038011c64ffffffffff1690565b9050611e1b8260008387612732565b611e258185613780565b935050508080611e34906138b6565b915050611dd7565b50505b505093509350939050565b602081015160408201516000905b9050915091565b60408051600180825281830190925260009182918291602080830190803683370190505090508381600081518110611e9957611e99612f42565b602090810291909101015260008080611ef27f7462776f726c6400000000000000000053797374656d73000000000000000000857e15020014010000000000000000000000000000000000000000000000000000611d42565b9250925092506111dc8383836127fe565b61101e828261280a565b604080516001808252818301909252600091829190602080830190803683370190505090508281600081518110611f4657611f46612f42565b6020908102919091010152600061072c7f7462776f726c6400000000000000000042616c616e636573000000000000000083837e20010020000000000000000000000000000000000000000000000000000000611060565b604080516001808252818301909252600091602080830190803683370190505090508281600081518110611fd457611fd4612f42565b6020026020010181815250506106647f7462776f726c6400000000000000000042616c616e636573000000000000000060001b8260008560405160200161201d91815260200190565b60408051601f198184030181529190527e2001002000000000000000000000000000000000000000000000000000000061169d565b60006060836001600160a01b0316600061206d858989612868565b60405161207a91906138d5565b60006040518083038185875af1925050503d80600081146120b7576040519150601f19603f3d011682016040523d82523d6000602084013e6120bc565b606091505b509097909650945050505050565b60006060836001600160a01b03166120e3848888612868565b6040516120f091906138d5565b600060405180830381855af49150503d80600081146120b7576040519150601f19603f3d011682016040523d82523d6000602084013e6120bc565b8251606090600061213c85836138f1565b9050604051925060208301601f19603f83860101166040528184526000602088015b8482101561217f578051871b8352918701916001919091019060200161215e565b50505050509392505050565b60007f8b9d8c8b908d9affffffffffffffffffab9e9d939a8d0000000000000000000082016121da57507e60030220202000000000000000000000000000000000000000000000000000919050565b6101956122077f746273746f72650000000000000000005461626c65730000000000000000000084612897565b6020600061164c565b7f6f74000000000000000000000000000000000000000000000000000000000000867fffff000000000000000000000000000000000000000000000000000000000000160361229c57857f8dbb3a9672eebfd3773e72dd9c102393436816d832c7ba9e1e1ac8fcadcac7a98686868660405161228f9493929190613908565b60405180910390a2611111565b60006122a787612549565b905060005b81518110156123805760008282815181106122c9576122c9612f42565b602002602001015190506122f56001826affffffffffffffffffffff19166125d290919063ffffffff16565b15612377576040517f57066c9c000000000000000000000000000000000000000000000000000000008152606082901c906357066c9c90612344908c908c908c908c908c908c90600401613947565b600060405180830381600087803b15801561235e57600080fd5b505af1158015612372573d6000803e3d6000fd5b505050505b506001016122ac565b50867f8dbb3a9672eebfd3773e72dd9c102393436816d832c7ba9e1e1ac8fcadcac7a9878787876040516123b79493929190613908565b60405180910390a260006123cb88886115bd565b905060006020870190506123e38260008951846128b3565b60006123ee85612662565b11156124725760006124008a8a612972565b878155905060208601915060008060005b61241a88612662565b8160ff16101561246d5761242f8d8d836126b2565b925061244a8a8260ff166028026038011c64ffffffffff1690565b915061245983600084886128b3565b6124638286613780565b9450600101612411565b505050505b60005b835181101561063257600084828151811061249257612492612f42565b602002602001015190506124be6002826affffffffffffffffffffff19166125d290919063ffffffff16565b15612540576040517f5b28cdaf000000000000000000000000000000000000000000000000000000008152606082901c90635b28cdaf9061250d908e908e908e908e908e908e90600401613947565b600060405180830381600087803b15801561252757600080fd5b505af115801561253b573d6000803e3d6000fd5b505050505b50600101612475565b6040805160018082528183019092526060916000919060208083019080368337019050509050828160008151811061258357612583612f42565b602090810291909101015260006125bb7f746273746f726500000000000000000053746f7265486f6f6b7300000000000083836129c8565b905061072c6125cd8260008451612a02565b612a90565b60008160ff16826125e38560581c90565b1660ff1614905092915050565b610664838383516126018560200190565b6128b3565b60006008612616600260206139a0565b61262091906138f1565b9190911c919050565b6060816000036126485750604080516020810190915260008152611215565b600061265485856115bd565b905061108d81600085612aa1565b60006008600180612675600260206139a0565b61267f91906139a0565b61268991906139a0565b61269391906138f1565b8260ff911c1692915050565b60006112156126ae8484612972565b5490565b600083836040516020016126c792919061372e565b604051602081830303815290604052805190602001208260f81b7effffffffffffffffffffffffffffffffffffffffffffffffffffffffffffff19167f3b4102da22e32d82fc925482184f16c09fd4281692720b87d124aef6da48a0f1181860001c90509392505050565b82156127b9576020831061275c5760208304840193506020838161275857612758613793565b0692505b82156127b957602083900360008184101561277f5750600019600884021c612789565b50600019600882021c5b8554600886021b8184511682198216178452508184116127aa57505061089a565b50600194909401939182900391015b5b602082106127db5783548152600190930192601f19909101906020016127ba565b811561089a576000600019600884021c8251865482191691161782525050505050565b60008061179585612ac4565b60006128587f6e730000000000000000000000000000000000000000000000000000000000007dffffffffffffffffffffffffffff0000000000000000000000000000000085161783612ae0565b8061121557506112158383612ae0565b606083838360405160200161287f939291906139b3565b60405160208183030381529060405290509392505050565b60408051602081018490529081018290526000906060016115d2565b821561292d57602083106128dd576020830484019350602083816128d9576128d9613793565b0692505b821561292d5760208390036000600019600885021c1990506008850281811c91508351811c905081198754168282161787555081841161291e57505061089a565b50600194909401939182900391015b5b6020821061294f5780518455600190930192601f199091019060200161292e565b811561089a576000600019600884021c8554835182191691161785555050505050565b6000828260405160200161298792919061372e565b60408051601f1981840301815291905280516020909101207f14e2fcc58e58e68ec7edc30c8d50dccc3ce2714a623ec81f46b6a63922d76569189392505050565b606061072c6129d88585856126b2565b60006129fd856129e8898961269f565b9060ff166028026038011c64ffffffffff1690565b612aa1565b600081831180612a125750835182115b15612a4f578383836040517f23230fa30000000000000000000000000000000000000000000000000000000081526004016102b193929190613a05565b60208401612a5d8482613780565b90506000612a6b85856139a0565b6fffffffffffffffffffffffffffffffff1660809290921b9190911795945050505050565b606060006112158360156000612b9d565b60405160208101601f19603f848401011660405282825261164485858584612732565b6020810151603482015160609190911c9060009060f81c611e58565b604080516002808252606082018352600092839291906020830190803683370190505090508381600081518110612b1957612b19612f42565b602002602001018181525050826001600160a01b031660001b81600181518110612b4557612b45612f42565b602090810291909101015260006119d77f7462776f726c640000000000000000005265736f75726365416363657373000083837e01010001000000000000000000000000000000000000000000000000000000611060565b60606000612bab8560801c90565b90506fffffffffffffffffffffffffffffffff85166000858281612bd157612bd1613793565b04905060405193506020840160208202810160405281855260005b8281101561217f578451871c825293870193602090910190600101612bec565b600060208284031215612c1e57600080fd5b81357fffffffff000000000000000000000000000000000000000000000000000000008116811461121557600080fd5b600080600060608486031215612c6357600080fd5b505081359360208301359350604090920135919050565b634e487b7160e01b600052604160045260246000fd5b6040516060810167ffffffffffffffff81118282101715612cb357612cb3612c7a565b60405290565b6040516101c0810167ffffffffffffffff81118282101715612cb357612cb3612c7a565b604051601f8201601f1916810167ffffffffffffffff81118282101715612d0657612d06612c7a565b604052919050565b600067ffffffffffffffff821115612d2857612d28612c7a565b5060051b60200190565b60008060006060808587031215612d4857600080fd5b84359350602080860135935060408087013567ffffffffffffffff811115612d6f57600080fd5b8701601f81018913612d8057600080fd5b8035612d93612d8e82612d0e565b612cdd565b81815260609091028201840190848101908b831115612db157600080fd5b928501925b82841015612df95786848d031215612dce5760008081fd5b612dd6612c90565b843581528685013587820152858501358682015282529286019290850190612db6565b809750505050505050509250925092565b80518015158114610f7257600080fd5b600060208284031215612e2c57600080fd5b61121582612e0a565b600082601f830112612e4657600080fd5b81516020612e56612d8e83612d0e565b8083825260208201915060208460051b870101935086841115612e7857600080fd5b602086015b84811015612e945780518352918301918301612e7d565b509695505050505050565b600060208284031215612eb157600080fd5b815167ffffffffffffffff80821115612ec957600080fd5b9083019060808286031215612edd57600080fd5b604051608081018181108382111715612ef857612ef8612c7a565b8060405250825181526020830151602082015260408301516040820152606083015182811115612f2757600080fd5b612f3387828601612e35565b60608301525095945050505050565b634e487b7160e01b600052603260045260246000fd5b60006040808301858452602060406020860152818651808452606093506060870191506020880160005b82811015612faf578151805185528581015186860152870151878501529285019290840190600101612f82565b50919998505050505050505050565b634e487b7160e01b600052602160045260246000fd5b60005b83811015612fef578181015183820152602001612fd7565b50506000910152565b60008151808452613010816020860160208601612fd4565b601f01601f19169290920160200192915050565b83815260006003841061304757634e487b7160e01b600052602160045260246000fd5b8360208301526060604083015261108d6060830184612ff8565b60008151808452602080850194506020840160005b8381101561309257815187529582019590820190600101613076565b509495945050505050565b60008151808452602080850194506020840160005b838110156130925781511515875295820195908201906001016130b2565b60408152825160408201526020830151606082015260408301516080820152606083015160a0820152608083015160c0820152600060a084015161311860e084018215159052565b5060c084015161010061312e8185018315159052565b60e08601519150610120828186015281870151925061014091508282860152808701519250506101c0610160818187015261316d610200870185613061565b93508288015192507fffffffffffffffffffffffffffffffffffffffffffffffffffffffffffffffc06101808188870301818901526131ac8686613061565b9550828a015194506101a092508188870301838901526131cc868661309d565b9550808a01519450508087860301838801526131e8858561309d565b945081890151935080878603016101e0880152505050613208828261309d565b925050508260208301529392505050565b600082601f83011261322a57600080fd5b8151602061323a612d8e83612d0e565b8083825260208201915060208460051b87010193508684111561325c57600080fd5b602086015b84811015612e945761327281612e0a565b8352918301918301613261565b60006020828403121561329157600080fd5b815167ffffffffffffffff808211156132a957600080fd5b908301906101c082860312156132be57600080fd5b6132c6612cb9565b82518152602083015160208201526040830151604082015260608301516060820152608083015160808201526132fe60a08401612e0a565b60a082015261330f60c08401612e0a565b60c082015260e083015160e0820152610100808401518183015250610120808401518381111561333e57600080fd5b61334a88828701612e35565b828401525050610140808401518381111561336457600080fd5b61337088828701612e35565b828401525050610160808401518381111561338a57600080fd5b61339688828701613219565b82840152505061018080840151838111156133b057600080fd5b6133bc88828701613219565b8284015250506101a080840151838111156133d657600080fd5b6133e288828701613219565b918301919091525095945050505050565b84815260806020820152600061340c6080830186613061565b60ff949094166040830152506060015292915050565b60006020828403121561343457600080fd5b5051919050565b6000815160208301517fffffffff00000000000000000000000000000000000000000000000000000000808216935060048310156134835780818460040360031b1b83161693505b505050919050565b60006020828403121561349d57600080fd5b815167ffffffffffffffff8111156134b457600080fd5b61072c84828501612e35565b6040815260006134d36040830185612ff8565b90506001600160a01b03831660208301529392505050565b85815260a06020820152600061350460a0830187613061565b60ff86166040840152828103606084015261351f8186612ff8565b9150508260808301529695505050505050565b82815260406020820152600061072c6040830184612ff8565b600082601f83011261355c57600080fd5b815167ffffffffffffffff81111561357657613576612c7a565b6135896020601f19601f84011601612cdd565b81815284602083860101111561359e57600080fd5b61072c826020830160208701612fd4565b6000602082840312156135c157600080fd5b815167ffffffffffffffff8111156135d857600080fd5b61072c8482850161354b565b600086516135f6818460208b01612fd4565b86519083019061360a818360208b01612fd4565b865191019061361d818360208a01612fd4565b8551910190613630818360208901612fd4565b8451910190613643818360208801612fd4565b01979650505050505050565b85815260a06020820152600061366860a0830187613061565b828103604084015261367a8187612ff8565b905084606084015282810360808401526136948185612ff8565b98975050505050505050565b7fffff0000000000000000000000000000000000000000000000000000000000008416815260007f3a000000000000000000000000000000000000000000000000000000000000008060028401528451613701816003860160208901612fd4565b808401905081600382015284519150613721826004830160208801612fd4565b0160040195945050505050565b8281526000602080830184516020860160005b8281101561375d57815184529284019290840190600101613741565b5091979650505050505050565b634e487b7160e01b600052601160045260246000fd5b808201808211156101955761019561376a565b634e487b7160e01b600052601260045260246000fd5b8381526060602082015260006137c26060830185613061565b9050826040830152949350505050565b6000806000606084860312156137e757600080fd5b835167ffffffffffffffff808211156137ff57600080fd5b61380b8783880161354b565b945060208601519350604086015191508082111561382857600080fd5b506138358682870161354b565b9150509250925092565b6060815260006138526060830186613061565b65ffffffffffff8516602084015282810360408401526113458185612ff8565b84815260806020820152600061388b6080830186613061565b65ffffffffffff8516604084015282810360608401526138ab8185612ff8565b979650505050505050565b600060ff821660ff81036138cc576138cc61376a565b60010192915050565b600082516138e7818460208701612fd4565b9190910192915050565b80820281158282048414176101955761019561376a565b60808152600061391b6080830187613061565b828103602084015261392d8187612ff8565b905084604084015282810360608401526138ab8185612ff8565b86815260c06020820152600061396060c0830188613061565b82810360408401526139728188612ff8565b9050856060840152828103608084015261398c8186612ff8565b9150508260a0830152979650505050505050565b818103818111156101955761019561376a565b600084516139c5818460208901612fd4565b60609490941b7fffffffffffffffffffffffffffffffffffffffff0000000000000000000000001691909301908152601481019190915260340192915050565b606081526000613a186060830186612ff8565b6020830194909452506040015291905056fea2646970667358221220eccf100a98326a661503faa893272d8bad9b209fa0fe7882163721b3a32834b264736f6c63430008180033","linkReferences":{}},"methodIdentifiers":{"_msgSender()":"119df25f","_msgValue()":"45ec9354","_world()":"e1af802c","executeWorldRngActions(uint256,bytes32,(bytes32,bytes32,uint256)[])":"e3883cbc","supportsInterface(bytes4)":"01ffc9a7","useWorldConsumableItem(bytes32,bytes32,uint256)":"dc6e8eb7"},"id":272}