{"abi":[{"type":"function","name":"_msgSender","inputs":[],"outputs":[{"name":"sender","type":"address","internalType":"address"}],"stateMutability":"view"},{"type":"function","name":"_msgValue","inputs":[],"outputs":[{"name":"value","type":"uint256","internalType":"uint256"}],"stateMutability":"pure"},{"type":"function","name":"_world","inputs":[],"outputs":[{"name":"","type":"address","internalType":"address"}],"stateMutability":"view"},{"type":"function","name":"executeWorldRngActions","inputs":[{"name":"randomNumber","type":"uint256","internalType":"uint256"},{"name":"givingEntity","type":"bytes32","internalType":"bytes32"},{"name":"actions","type":"tuple[]","internalType":"struct Action[]","components":[{"name":"attackerEntityId","type":"bytes32","internalType":"bytes32"},{"name":"defenderEntityId","type":"bytes32","internalType":"bytes32"},{"name":"itemId","type":"uint256","internalType":"uint256"}]}],"outputs":[],"stateMutability":"nonpayable"},{"type":"function","name":"supportsInterface","inputs":[{"name":"interfaceId","type":"bytes4","internalType":"bytes4"}],"outputs":[{"name":"","type":"bool","internalType":"bool"}],"stateMutability":"pure"},{"type":"function","name":"useWorldConsumableItem","inputs":[{"name":"givingEntity","type":"bytes32","internalType":"bytes32"},{"name":"receivingEntity","type":"bytes32","internalType":"bytes32"},{"name":"itemId","type":"uint256","internalType":"uint256"}],"outputs":[],"stateMutability":"nonpayable"},{"type":"event","name":"Store_SetRecord","inputs":[{"name":"tableId","type":"bytes32","indexed":true,"internalType":"ResourceId"},{"name":"keyTuple","type":"bytes32[]","indexed":false,"internalType":"bytes32[]"},{"name":"staticData","type":"bytes","indexed":false,"internalType":"bytes"},{"name":"encodedLengths","type":"bytes32","indexed":false,"internalType":"EncodedLengths"},{"name":"dynamicData","type":"bytes","indexed":false,"internalType":"bytes"}],"anonymous":false},{"type":"event","name":"Store_SpliceStaticData","inputs":[{"name":"tableId","type":"bytes32","indexed":true,"internalType":"ResourceId"},{"name":"keyTuple","type":"bytes32[]","indexed":false,"internalType":"bytes32[]"},{"name":"start","type":"uint48","indexed":false,"internalType":"uint48"},{"name":"data","type":"bytes","indexed":false,"internalType":"bytes"}],"anonymous":false},{"type":"error","name":"Slice_OutOfBounds","inputs":[{"name":"data","type":"bytes","internalType":"bytes"},{"name":"start","type":"uint256","internalType":"uint256"},{"name":"end","type":"uint256","internalType":"uint256"}]},{"type":"error","name":"World_AccessDenied","inputs":[{"name":"resource","type":"string","internalType":"string"},{"name":"caller","type":"address","internalType":"address"}]},{"type":"error","name":"World_FunctionSelectorNotFound","inputs":[{"name":"functionSelector","type":"bytes4","internalType":"bytes4"}]},{"type":"error","name":"World_ResourceNotFound","inputs":[{"name":"resourceId","type":"bytes32","internalType":"ResourceId"},{"name":"resourceIdString","type":"string","internalType":"string"}]}],"bytecode":{"object":"0x608060405234801561001057600080fd5b50613f07806100206000396000f3fe608060405234801561001057600080fd5b50600436106100725760003560e01c8063dc6e8eb711610050578063dc6e8eb7146100d2578063e1af802c146100e7578063e3883cbc146100ef57600080fd5b806301ffc9a714610077578063119df25f1461009f57806345ec9354146100bf575b600080fd5b61008a610085366004613054565b610102565b60405190151581526020015b60405180910390f35b6100a761019b565b6040516001600160a01b039091168152602001610096565b604051601f193601358152602001610096565b6100e56100e0366004613096565b6101aa565b005b6100a761061e565b6100e56100fd36600461317a565b610628565b60007fffffffff0000000000000000000000000000000000000000000000000000000082167fb5dee12700000000000000000000000000000000000000000000000000000000148061019557507fffffffff0000000000000000000000000000000000000000000000000000000082167f01ffc9a700000000000000000000000000000000000000000000000000000000145b92915050565b60006101a5610649565b905090565b6101b261061e565b6001600160a01b03166343def638846101c961019b565b6040517fffffffff0000000000000000000000000000000000000000000000000000000060e085901b16815260048101929092526001600160a01b03166024820152604401602060405180830381865afa15801561022b573d6000803e3d6000fd5b505050506040513d601f19601f8201168201806040525081019061024f9190613262565b6102a05760405162461bcd60e51b815260206004820152601d60248201527f43616e6e6f7420636f6e73756d6520616e6f746865722773206974656d00000060448201526064015b60405180910390fd5b6102a861061e565b6001600160a01b031663b3634118826102bf61019b565b6040517fffffffff0000000000000000000000000000000000000000000000000000000060e085901b16815260048101929092526001600160a01b03166024820152604401602060405180830381865afa158015610321573d6000803e3d6000fd5b505050506040513d601f19601f820116820180604052508101906103459190613262565b6103915760405162461bcd60e51b815260206004820152601860248201527f796f7520646f206e6f74206f776e2074686973206974656d00000000000000006044820152606401610297565b600061039c8461067b565b146103e95760405162461bcd60e51b815260206004820152601a60248201527f63616e6e6f742075736520696e20616e20656e636f756e7465720000000000006044820152606401610297565b60006103f361061e565b6001600160a01b031663951b88d1836040518263ffffffff1660e01b815260040161042091815260200190565b600060405180830381865afa15801561043d573d6000803e3d6000fd5b505050506040513d6000823e601f3d908101601f1916820160405261046591908101906132e7565b9050600081606001515167ffffffffffffffff811115610487576104876130c2565b6040519080825280602002602001820160405280156104d257816020015b60408051606081018252600080825260208083018290529282015282526000199092019101816104a55790505b50604080516060810182526000808252602082018190529181018290529192505b83606001515181101561053a578682526020820186905260408201859052825182908490839081106105275761052761338a565b60209081029190910101526001016104f3565b50600083602001511315610557576105528683610714565b610591565b8251602084015114801561056f575060008360200151125b156105855761057f8686866107b4565b50610591565b6105916000878461098c565b61059961061e565b6040517f2f40eabb00000000000000000000000000000000000000000000000000000000815260048101889052602481018690526001600160a01b039190911690632f40eabb906044015b600060405180830381600087803b1580156105fe57600080fd5b505af1158015610612573d6000803e3d6000fd5b50505050505050505050565b60006101a5610a58565b6106393061063461019b565b610a62565b61064483838361098c565b505050565b7fffffffffffffffffffffffffffffffffffffffffffffffffffffffffffffffcc36013560601c806106785750335b90565b6040805160018082528183019092526000918291906020808301908036833701905050905082816000815181106106b4576106b461338a565b6020908102919091010152600061070c7f74625544000000000000000000000000456e636f756e746572456e746974790083837e41030120012000000000000000000000000000000000000000000000000000610a78565b949350505050565b61071f826002610b35565b61064482600084846040516020016107389291906133a0565b60408051601f198184030181529082905261075793929160240161346c565b60408051601f198184030181529190526020810180517bffffffffffffffffffffffffffffffffffffffffffffffffffffffff167fb2aa60a400000000000000000000000000000000000000000000000000000000179052610c1f565b6000806107bf61061e565b6040517f3d5bf82d00000000000000000000000000000000000000000000000000000000815260048101879052602481018590526001600160a01b039190911690633d5bf82d90604401602060405180830381865afa158015610826573d6000803e3d6000fd5b505050506040513d601f19601f8201168201806040525081019061084a91906134a9565b116108975760405162461bcd60e51b815260206004820181905260248201527f596f7520646f206e6f74206f776e2061206865616c696e6720706f74696f6e2e6044820152606401610297565b60006108a284610cb0565b90506108ac61061e565b6001600160a01b031663951b88d1846040518263ffffffff1660e01b81526004016108d991815260200190565b600060405180830381865afa1580156108f6573d6000803e3d6000fd5b505050506040513d6000823e601f3d908101601f1916820160405261091e91908101906132e7565b6020015191508060800151828260a0015161093991906134d8565b131561095f578060a00151816080015161095391906134d8565b61095c906134ff565b91505b818160a00181815161097191906134d8565b90525060a0810151610984908590610d62565b509392505050565b60005b8151811015610a525760006109bc8383815181106109af576109af61338a565b6020026020010151610e16565b90506109c661061e565b6001600160a01b0316632c31567a82876040518363ffffffff1660e01b81526004016109f39291906135a6565b6000604051808303816000875af1158015610a12573d6000803e3d6000fd5b505050506040513d6000823e601f3d908101601f19168201604052610a3a9190810190613755565b9050610a4984600080846110a8565b5060010161098f565b50505050565b60006101a5611256565b610a74610a6e83611295565b82611332565b5050565b600080610a83611256565b9050306001600160a01b03821603610aa957610aa18686868661137e565b91505061070c565b6040517f8c364d590000000000000000000000000000000000000000000000000000000081526001600160a01b03821690638c364d5990610af49089908990899089906004016138c9565b602060405180830381865afa158015610b11573d6000803e3d6000fd5b505050506040513d601f19601f82011682018060405250810190610aa191906134a9565b604080516001808252818301909252600091602080830190803683370190505090508281600081518110610b6b57610b6b61338a565b60209081029190910101526106447f74625544000000000000000000000000436f6d626174456e636f756e74657200826000856002811115610baf57610baf613406565b604051602001610bea919060f89190911b7fff0000000000000000000000000000000000000000000000000000000000000016815260010190565b60408051601f198184030181529190527ea30802012020012020200100000000000000000000000000000000000000006113b4565b6060600080610c35610c30856138f8565b611437565b91509150816000801b03610c9b576040517ffdde54e20000000000000000000000000000000000000000000000000000000081527fffffffff00000000000000000000000000000000000000000000000000000000600035166004820152602401610297565b61070c82610cab86600085611507565b61153a565b610cb8612ffe565b604080516001808252818301909252600091602080830190803683370190505090508281600081518110610cee57610cee61338a565b602090810291909101015260008080610d477f7462554400000000000000000000000053746174730000000000000000000000857ee1080020200120202020200000000000000000000000000000000000000000611615565b925092509250610d588383836116e5565b9695505050505050565b604080516001808252818301909252600091602080830190803683370190505090508281600081518110610d9857610d9861338a565b6020026020010181815250506106447f746255440000000000000000000000005374617473000000000000000000000060001b82600585604051602001610de191815260200190565b60408051601f198184030181529190527ee10800202001202020202000000000000000000000000000000000000000006113b4565b610e92604051806101c001604052806000815260200160008019168152602001600080191681526020016000815260200160008152602001600015158152602001600015158152602001600081526020016000815260200160608152602001606081526020016060815260200160608152602001606081525090565b6000610e9c61061e565b6001600160a01b031663b0ebc45e84604001516040518263ffffffff1660e01b8152600401610ecd91815260200190565b600060405180830381865afa158015610eea573d6000803e3d6000fd5b505050506040513d6000823e601f3d908101601f19168201604052610f129190810190613948565b90506000815167ffffffffffffffff811115610f3057610f306130c2565b604051908082528060200260200182016040528015610f59578160200160208202803683370190505b5090506000825167ffffffffffffffff811115610f7857610f786130c2565b604051908082528060200260200182016040528015610fa1578160200160208202803683370190505b5090506000835167ffffffffffffffff811115610fc057610fc06130c2565b604051908082528060200260200182016040528015610fe9578160200160208202803683370190505b5090506000845167ffffffffffffffff811115611008576110086130c2565b604051908082528060200260200182016040528015611031578160200160208202803683370190505b50604080516101c081018252898201518152895160208083019190915290990151908901526000606089018190526080890181905260a0890181905260c08901524360e089015242610100890152610120880152506101408601939093526101608501919091526101808401526101a08301525090565b600061113f826000015183602001518460400151856060015186608001518760a001518860c001518960e001518a610100015160408051602081019a909a52898101989098526060890196909652608088019490945260a0870192909252151560f890811b60c0870152901515901b60c185015260c284015260e28084019190915281518084039091018152610102909201905290565b90506000611169836101200151846101400151856101600151866101800151876101a0015161175d565b90506000611193846101200151856101400151866101600151876101800151886101a001516117ab565b60408051600380825260808201909252919250600091906020820160608036833701905050905087816000815181106111ce576111ce61338a565b6020026020010181815250508660001b816001815181106111f1576111f161338a565b6020026020010181815250508560001b816002815181106112145761121461338a565b602090810291909101015261124c7f6f745544000000000000000000000000416374696f6e4f7574636f6d6500000082868686611808565b5050505050505050565b7f629a4c26e296b22a8e0856e9f6ecb2d1008d7e00081111962cd175fa7488e175546000906001600160a01b031680611290573391505090565b919050565b60408051600180825281830190925260009182919060208083019080368337019050509050826001600160a01b031660001b816000815181106112da576112da61338a565b6020908102919091010152600061070c7f7462776f726c6400000000000000000053797374656d5265676973747279000083837e20010020000000000000000000000000000000000000000000000000000000610a78565b61133c828261187e565b610a7457611349826118dc565b816040517fd787b73700000000000000000000000000000000000000000000000000000000815260040161029792919061397d565b60006113ab61138d8686611a19565b60ff858116601b0360080285901c166113a68587611a6f565b611aa0565b95945050505050565b60006113be611256565b9050306001600160a01b038216036113e2576113dd8686868686611af1565b61142f565b6040517f390baae00000000000000000000000000000000000000000000000000000000081526001600160a01b0382169063390baae0906105e490899089908990899089906004016139a8565b505050505050565b6040805160018082528183019092526000918291829160208083019080368337019050509050837bffffffffffffffffffffffffffffffffffffffffffffffffffffffff1916816000815181106114905761149061338a565b6020908102919091010152600080806114e97f7462776f726c6400000000000000000046756e6374696f6e53656c6563746f72857e24020020040000000000000000000000000000000000000000000000000000611615565b9250925092506114fa838383611b0d565b9550955050505050915091565b82820160200180517bffffffffffffffffffffffffffffffffffffffffffffffffffffffff1682179052825b9392505050565b60606000611546610a58565b90506001600160a01b038116300361158757600061156e611565610649565b60008787611b25565b93509050806115805761158083611c60565b5050610195565b6040517f3ae7af080000000000000000000000000000000000000000000000000000000081526001600160a01b03821690633ae7af08906115ce90879087906004016139ef565b6000604051808303816000875af11580156115ed573d6000803e3d6000fd5b505050506040513d6000823e601f3d908101601f1916820160405261070c9190810190613a6c565b6060600060606000611625611256565b9050306001600160a01b0382160361164e57611642878787611c68565b935093509350506116dc565b6040517f419b58fd0000000000000000000000000000000000000000000000000000000081526001600160a01b0382169063419b58fd90611697908a908a908a90600401613aa1565b600060405180830381865afa1580156116b4573d6000803e3d6000fd5b505050506040513d6000823e601f3d908101601f191682016040526116429190810190613aca565b93509350939050565b6116ed612ffe565b6116f684611d70565b60e0890181905260c0890182905260a08901839052608089018490526060890185905288602081016040820188600281111561173457611734613406565b600281111561174557611745613406565b90529790975250505093909252509195945050505050565b6000610d588651602002865160200286516001028651600102865160010260d881901b60b083901b608885901b606087901b603889901b898901880187018601171717171795945050505050565b60606117b686611dde565b6117bf86611dde565b6117c886611dee565b6117d186611dee565b6117da86611dee565b6040516020016117ee959493929190613b37565b604051602081830303815290604052905095945050505050565b6000611812611256565b9050306001600160a01b03821603611831576113dd8686868686611dfe565b6040517f298314fb0000000000000000000000000000000000000000000000000000000081526001600160a01b0382169063298314fb906105e49089908990899089908990600401613ba2565b60006118cc7f6e730000000000000000000000000000000000000000000000000000000000007dffffffffffffffffffffffffffff0000000000000000000000000000000085161783611e14565b8061153357506115338383611e14565b606081601081901b60006118ef83611edd565b9050827fffffffffffffffffffffffffffff00000000000000000000000000000000000083161561194a576119457fffffffffffffffffffffffffffff0000000000000000000000000000000000008416611ef4565b611981565b6040518060400160405280600681526020017f3c726f6f743e00000000000000000000000000000000000000000000000000008152505b7fffffffffffffffffffffffffffffffff000000000000000000000000000000008316156119b7576119b283611ef4565b6119ee565b6040518060400160405280600681526020017f3c726f6f743e00000000000000000000000000000000000000000000000000008152505b604051602001611a0093929190613bf3565b6040516020818303038152906040529350505050919050565b60008282604051602001611a2e929190613c81565b60408051601f1981840301815291905280516020909101207f86425bff6b57326c7859e89024fe4f238ca327a1ae4a230180dd2f0e88aaa7d9189392505050565b600080805b8360ff1681101561098457611a9660ff601b83900360080287901c1683613cbd565b9150600101611a74565b600060208210611ac657602082048401935060208281611ac257611ac2613cd0565b0691505b508254600882021b602082900380841115610984576001850154600882021c82179150509392505050565b611b068585611b008487611a6f565b85611f98565b5050505050565b600080611b198561223c565b90969095509350505050565b60006060600080611b3586612251565b90925090506001600160a01b038216611b865785611b52876118dc565b6040517ffbf10ce60000000000000000000000000000000000000000000000000000000081526004016102979291906139ef565b80611b9557611b9586896122f5565b8615611c01577dffffffffffffffffffffffffffff0000000000000000000000000000000086167f6e73000000000000000000000000000000000000000000000000000000000000176000611be9826122ff565b9050611bfe82611bf98b84613cbd565b612390565b50505b6000611c0d8760101b90565b7fffffffffffffffffffffffffffff0000000000000000000000000000000000001614611c4557611c4088888488612444565b611c51565b611c51888884886124bc565b90999098509650505050505050565b805160208201fd5b6060600060606000611c798561251d565b9050611c86878783612540565b93506000611c9386612579565b90508015611d6557611ca588886125b6565b935066ffffffffffffff841667ffffffffffffffff811115611cc957611cc96130c2565b6040519080825280601f01601f191660200182016040528015611cf3576020820181803683370190505b5092506020830160005b828160ff161015611d62576000611d158b8b846125c9565b90506000611d32888460ff166028026038011c64ffffffffff1690565b9050611d418260008387612649565b611d4b8185613cbd565b935050508080611d5a90613ce6565b915050611cfd565b50505b505093509350939050565b600080600080600080600080611d8a896000016020015190565b60408a015160608b0151919950975060f81c6002811115611dad57611dad613406565b60618a015160818b015160a18c015160c18d015160e1909d01519b9d9a9c939b929a91995097509195509350915050565b6060816115338160206000612715565b60608161153381600160f8612715565b611b068585858585611e0f8b612775565b6127fa565b604080516002808252606082018352600092839291906020830190803683370190505090508381600081518110611e4d57611e4d61338a565b602002602001018181525050826001600160a01b031660001b81600181518110611e7957611e7961338a565b60209081029190910101526000611ed17f7462776f726c640000000000000000005265736f75726365416363657373000083837e01010001000000000000000000000000000000000000000000000000000000610a78565b90506113ab8160f81c90565b6000611eeb60706010613cbd565b9190911b919050565b606060005b6010811015611f59577fffffffffffffffffffffffffffffffff000000000000000000000000000000008316600882021b7fff000000000000000000000000000000000000000000000000000000000000001615611f5957600101611ef9565b604080517fffffffffffffffffffffffffffffffff0000000000000000000000000000000085166020820152815160309091019091528181528061070c565b7f6f74000000000000000000000000000000000000000000000000000000000000847fffff000000000000000000000000000000000000000000000000000000000000160361202257837f8c0b5119d4cec7b284c6b1b39252a03d1e2f2d7451a5895562524c113bb952be84848460405161201593929190613d05565b60405180910390a2610a52565b600061202e8585611a19565b9050600061203b86612b33565b905060005b815181101561211057600082828151811061205d5761205d61338a565b602002602001015190506120896004826affffffffffffffffffffff1916612bbc90919063ffffffff16565b15612107576040517f964f667d000000000000000000000000000000000000000000000000000000008152606082901c9063964f667d906120d4908b908b908b908b90600401613d38565b600060405180830381600087803b1580156120ee57600080fd5b505af1158015612102573d6000803e3d6000fd5b505050505b50600101612040565b50857f8c0b5119d4cec7b284c6b1b39252a03d1e2f2d7451a5895562524c113bb952be86868660405161214593929190613d05565b60405180910390a2612160828565ffffffffffff1685612bda565b60005b81518110156122335760008282815181106121805761218061338a565b602002602001015190506121ac6008826affffffffffffffffffffff1916612bbc90919063ffffffff16565b1561222a576040517fa8ba8721000000000000000000000000000000000000000000000000000000008152606082901c9063a8ba8721906121f7908b908b908b908b90600401613d38565b600060405180830381600087803b15801561221157600080fd5b505af1158015612225573d6000803e3d6000fd5b505050505b50600101612163565b50505050505050565b602081015160408201516000905b9050915091565b6040805160018082528183019092526000918291829160208083019080368337019050509050838160008151811061228b5761228b61338a565b6020908102919091010152600080806122e47f7462776f726c6400000000000000000053797374656d73000000000000000000857e15020014010000000000000000000000000000000000000000000000000000611c68565b9250925092506114fa838383612bf0565b61133c8282612bfc565b6040805160018082528183019092526000918291906020808301908036833701905050905082816000815181106123385761233861338a565b6020908102919091010152600061070c7f7462776f726c6400000000000000000042616c616e636573000000000000000083837e2001002000000000000000000000000000000000000000000000000000000061137e565b6040805160018082528183019092526000916020808301908036833701905050905082816000815181106123c6576123c661338a565b6020026020010181815250506106447f7462776f726c6400000000000000000042616c616e636573000000000000000060001b8260008560405160200161240f91815260200190565b60408051601f198184030181529190527e20010020000000000000000000000000000000000000000000000000000000611af1565b60006060836001600160a01b0316600061245f858989612c5a565b60405161246c9190613d7c565b60006040518083038185875af1925050503d80600081146124a9576040519150601f19603f3d011682016040523d82523d6000602084013e6124ae565b606091505b509097909650945050505050565b60006060836001600160a01b03166124d5848888612c5a565b6040516124e29190613d7c565b600060405180830381855af49150503d80600081146124a9576040519150601f19603f3d011682016040523d82523d6000602084013e6124ae565b6000600861252d60026020613d98565b6125379190613dab565b9190911c919050565b60608160000361255f5750604080516020810190915260008152611533565b600061256b8585611a19565b90506113ab81600085612c89565b6000600860018061258c60026020613d98565b6125969190613d98565b6125a09190613d98565b6125aa9190613dab565b8260ff911c1692915050565b60006115336125c58484612cac565b5490565b600083836040516020016125de929190613c81565b604051602081830303815290604052805190602001208260f81b7effffffffffffffffffffffffffffffffffffffffffffffffffffffffffffff19167f3b4102da22e32d82fc925482184f16c09fd4281692720b87d124aef6da48a0f1181860001c90509392505050565b82156126d057602083106126735760208304840193506020838161266f5761266f613cd0565b0692505b82156126d05760208390036000818410156126965750600019600884021c6126a0565b50600019600882021c5b8554600886021b8184511682198216178452508184116126c1575050610a52565b50600194909401939182900391015b5b602082106126f25783548152600190930192601f19909101906020016126d1565b8115610a52576000600019600884021c8251865482191691161782525050505050565b825160609060006127268583613dab565b9050604051925060208301601f19603f83860101166040528184526000602088015b84821015612769578051871b83529187019160019190910190602001612748565b50505050509392505050565b60007f8b9d8c8b908d9affffffffffffffffffab9e9d939a8d0000000000000000000082016127c457507e60030220202000000000000000000000000000000000000000000000000000919050565b6101956127f17f746273746f72650000000000000000005461626c65730000000000000000000084612d02565b60206000611aa0565b7f6f74000000000000000000000000000000000000000000000000000000000000867fffff000000000000000000000000000000000000000000000000000000000000160361288657857f8dbb3a9672eebfd3773e72dd9c102393436816d832c7ba9e1e1ac8fcadcac7a9868686866040516128799493929190613dc2565b60405180910390a261142f565b600061289187612b33565b905060005b815181101561296a5760008282815181106128b3576128b361338a565b602002602001015190506128df6001826affffffffffffffffffffff1916612bbc90919063ffffffff16565b15612961576040517f57066c9c000000000000000000000000000000000000000000000000000000008152606082901c906357066c9c9061292e908c908c908c908c908c908c90600401613e01565b600060405180830381600087803b15801561294857600080fd5b505af115801561295c573d6000803e3d6000fd5b505050505b50600101612896565b50867f8dbb3a9672eebfd3773e72dd9c102393436816d832c7ba9e1e1ac8fcadcac7a9878787876040516129a19493929190613dc2565b60405180910390a260006129b58888611a19565b905060006020870190506129cd826000895184612d1e565b60006129d885612579565b1115612a5c5760006129ea8a8a612cac565b878155905060208601915060008060005b612a0488612579565b8160ff161015612a5757612a198d8d836125c9565b9250612a348a8260ff166028026038011c64ffffffffff1690565b9150612a438360008488612d1e565b612a4d8286613cbd565b94506001016129fb565b505050505b60005b8351811015610612576000848281518110612a7c57612a7c61338a565b60200260200101519050612aa86002826affffffffffffffffffffff1916612bbc90919063ffffffff16565b15612b2a576040517f5b28cdaf000000000000000000000000000000000000000000000000000000008152606082901c90635b28cdaf90612af7908e908e908e908e908e908e90600401613e01565b600060405180830381600087803b158015612b1157600080fd5b505af1158015612b25573d6000803e3d6000fd5b505050505b50600101612a5f565b60408051600180825281830190925260609160009190602080830190803683370190505090508281600081518110612b6d57612b6d61338a565b60209081029190910101526000612ba57f746273746f726500000000000000000053746f7265486f6f6b730000000000008383612ddd565b905061070c612bb78260008451612e17565b612ea5565b60008160ff1682612bcd8560581c90565b1660ff1614905092915050565b61064483838351612beb8560200190565b612d1e565b600080611b1985612eb6565b6000612c4a7f6e730000000000000000000000000000000000000000000000000000000000007dffffffffffffffffffffffffffff0000000000000000000000000000000085161783612ed2565b8061153357506115338383612ed2565b6060838383604051602001612c7193929190613e5a565b60405160208183030381529060405290509392505050565b60405160208101601f19603f848401011660405282825261098485858584612649565b60008282604051602001612cc1929190613c81565b60408051601f1981840301815291905280516020909101207f14e2fcc58e58e68ec7edc30c8d50dccc3ce2714a623ec81f46b6a63922d76569189392505050565b6040805160208101849052908101829052600090606001611a2e565b8215612d985760208310612d4857602083048401935060208381612d4457612d44613cd0565b0692505b8215612d985760208390036000600019600885021c1990506008850281811c91508351811c9050811987541682821617875550818411612d89575050610a52565b50600194909401939182900391015b5b60208210612dba5780518455600190930192601f1990910190602001612d99565b8115610a52576000600019600884021c8554835182191691161785555050505050565b606061070c612ded8585856125c9565b6000612e1285612dfd89896125b6565b9060ff166028026038011c64ffffffffff1690565b612c89565b600081831180612e275750835182115b15612e64578383836040517f23230fa300000000000000000000000000000000000000000000000000000000815260040161029793929190613eac565b60208401612e728482613cbd565b90506000612e808585613d98565b6fffffffffffffffffffffffffffffffff1660809290921b9190911795945050505050565b606060006115338360156000612f8f565b6020810151603482015160609190911c9060009060f81c61224a565b604080516002808252606082018352600092839291906020830190803683370190505090508381600081518110612f0b57612f0b61338a565b602002602001018181525050826001600160a01b031660001b81600181518110612f3757612f3761338a565b60209081029190910101526000611ed17f7462776f726c640000000000000000005265736f75726365416363657373000083837e0101000100000000000000000000000000000000000000000000000000000061137e565b60606000612f9d8560801c90565b90506fffffffffffffffffffffffffffffffff85166000858281612fc357612fc3613cd0565b04905060405193506020840160208202810160405281855260005b82811015612769578451871c825293870193602090910190600101612fde565b60405180610100016040528060008152602001600081526020016000600281111561302b5761302b613406565b815260200160008152602001600081526020016000815260200160008152602001600081525090565b60006020828403121561306657600080fd5b81357fffffffff000000000000000000000000000000000000000000000000000000008116811461153357600080fd5b6000806000606084860312156130ab57600080fd5b505081359360208301359350604090920135919050565b634e487b7160e01b600052604160045260246000fd5b6040516060810167ffffffffffffffff811182821017156130fb576130fb6130c2565b60405290565b6040516101c0810167ffffffffffffffff811182821017156130fb576130fb6130c2565b604051601f8201601f1916810167ffffffffffffffff8111828210171561314e5761314e6130c2565b604052919050565b600067ffffffffffffffff821115613170576131706130c2565b5060051b60200190565b6000806000606080858703121561319057600080fd5b84359350602080860135935060408087013567ffffffffffffffff8111156131b757600080fd5b8701601f810189136131c857600080fd5b80356131db6131d682613156565b613125565b81815260609091028201840190848101908b8311156131f957600080fd5b928501925b828410156132415786848d0312156132165760008081fd5b61321e6130d8565b8435815286850135878201528585013586820152825292860192908501906131fe565b809750505050505050509250925092565b8051801515811461129057600080fd5b60006020828403121561327457600080fd5b61153382613252565b600082601f83011261328e57600080fd5b8151602061329e6131d683613156565b8083825260208201915060208460051b8701019350868411156132c057600080fd5b602086015b848110156132dc57805183529183019183016132c5565b509695505050505050565b6000602082840312156132f957600080fd5b815167ffffffffffffffff8082111561331157600080fd5b908301906080828603121561332557600080fd5b604051608081018181108382111715613340576133406130c2565b806040525082518152602083015160208201526040830151604082015260608301518281111561336f57600080fd5b61337b8782860161327d565b60608301525095945050505050565b634e487b7160e01b600052603260045260246000fd5b60006040808301858452602060406020860152818651808452606093506060870191506020880160005b828110156133f75781518051855285810151868601528701518785015292850192908401906001016133ca565b50919998505050505050505050565b634e487b7160e01b600052602160045260246000fd5b60005b8381101561343757818101518382015260200161341f565b50506000910152565b6000815180845261345881602086016020860161341c565b601f01601f19169290920160200192915050565b83815260006003841061348f57634e487b7160e01b600052602160045260246000fd5b836020830152606060408301526113ab6060830184613440565b6000602082840312156134bb57600080fd5b5051919050565b634e487b7160e01b600052601160045260246000fd5b81810360008312801583831316838312821617156134f8576134f86134c2565b5092915050565b60007f80000000000000000000000000000000000000000000000000000000000000008203613530576135306134c2565b5060000390565b60008151808452602080850194506020840160005b838110156135685781518752958201959082019060010161354c565b509495945050505050565b60008151808452602080850194506020840160005b83811015613568578151151587529582019590820190600101613588565b60408152825160408201526020830151606082015260408301516080820152606083015160a0820152608083015160c0820152600060a08401516135ee60e084018215159052565b5060c08401516101006136048185018315159052565b60e08601519150610120828186015281870151925061014091508282860152808701519250506101c06101608181870152613643610200870185613537565b93508288015192507fffffffffffffffffffffffffffffffffffffffffffffffffffffffffffffffc06101808188870301818901526136828686613537565b9550828a015194506101a092508188870301838901526136a28686613573565b9550808a01519450508087860301838801526136be8585613573565b945081890151935080878603016101e08801525050506136de8282613573565b925050508260208301529392505050565b600082601f83011261370057600080fd5b815160206137106131d683613156565b8083825260208201915060208460051b87010193508684111561373257600080fd5b602086015b848110156132dc5761374881613252565b8352918301918301613737565b60006020828403121561376757600080fd5b815167ffffffffffffffff8082111561377f57600080fd5b908301906101c0828603121561379457600080fd5b61379c613101565b82518152602083015160208201526040830151604082015260608301516060820152608083015160808201526137d460a08401613252565b60a08201526137e560c08401613252565b60c082015260e083015160e0820152610100808401518183015250610120808401518381111561381457600080fd5b6138208882870161327d565b828401525050610140808401518381111561383a57600080fd5b6138468882870161327d565b828401525050610160808401518381111561386057600080fd5b61386c888287016136ef565b828401525050610180808401518381111561388657600080fd5b613892888287016136ef565b8284015250506101a080840151838111156138ac57600080fd5b6138b8888287016136ef565b918301919091525095945050505050565b8481526080602082015260006138e26080830186613537565b60ff949094166040830152506060015292915050565b6000815160208301517fffffffff00000000000000000000000000000000000000000000000000000000808216935060048310156139405780818460040360031b1b83161693505b505050919050565b60006020828403121561395a57600080fd5b815167ffffffffffffffff81111561397157600080fd5b61070c8482850161327d565b6040815260006139906040830185613440565b90506001600160a01b03831660208301529392505050565b85815260a0602082015260006139c160a0830187613537565b60ff8616604084015282810360608401526139dc8186613440565b9150508260808301529695505050505050565b82815260406020820152600061070c6040830184613440565b600082601f830112613a1957600080fd5b815167ffffffffffffffff811115613a3357613a336130c2565b613a466020601f19601f84011601613125565b818152846020838601011115613a5b57600080fd5b61070c82602083016020870161341c565b600060208284031215613a7e57600080fd5b815167ffffffffffffffff811115613a9557600080fd5b61070c84828501613a08565b838152606060208201526000613aba6060830185613537565b9050826040830152949350505050565b600080600060608486031215613adf57600080fd5b835167ffffffffffffffff80821115613af757600080fd5b613b0387838801613a08565b9450602086015193506040860151915080821115613b2057600080fd5b50613b2d86828701613a08565b9150509250925092565b60008651613b49818460208b0161341c565b865190830190613b5d818360208b0161341c565b8651910190613b70818360208a0161341c565b8551910190613b8381836020890161341c565b8451910190613b9681836020880161341c565b01979650505050505050565b85815260a060208201526000613bbb60a0830187613537565b8281036040840152613bcd8187613440565b90508460608401528281036080840152613be78185613440565b98975050505050505050565b7fffff0000000000000000000000000000000000000000000000000000000000008416815260007f3a000000000000000000000000000000000000000000000000000000000000008060028401528451613c5481600386016020890161341c565b808401905081600382015284519150613c7482600483016020880161341c565b0160040195945050505050565b8281526000602080830184516020860160005b82811015613cb057815184529284019290840190600101613c94565b5091979650505050505050565b80820180821115610195576101956134c2565b634e487b7160e01b600052601260045260246000fd5b600060ff821660ff8103613cfc57613cfc6134c2565b60010192915050565b606081526000613d186060830186613537565b65ffffffffffff851660208401528281036040840152610d588185613440565b848152608060208201526000613d516080830186613537565b65ffffffffffff851660408401528281036060840152613d718185613440565b979650505050505050565b60008251613d8e81846020870161341c565b9190910192915050565b81810381811115610195576101956134c2565b8082028115828204841417610195576101956134c2565b608081526000613dd56080830187613537565b8281036020840152613de78187613440565b90508460408401528281036060840152613d718185613440565b86815260c060208201526000613e1a60c0830188613537565b8281036040840152613e2c8188613440565b90508560608401528281036080840152613e468186613440565b9150508260a0830152979650505050505050565b60008451613e6c81846020890161341c565b60609490941b7fffffffffffffffffffffffffffffffffffffffff0000000000000000000000001691909301908152601481019190915260340192915050565b606081526000613ebf6060830186613440565b6020830194909452506040015291905056fea2646970667358221220def31defec6631b1a8d02f6e310c0ffe79aeb9c770611b7f5316ec2c2f8b666664736f6c63430008180033","linkReferences":{}},"methodIdentifiers":{"_msgSender()":"119df25f","_msgValue()":"45ec9354","_world()":"e1af802c","executeWorldRngActions(uint256,bytes32,(bytes32,bytes32,uint256)[])":"e3883cbc","supportsInterface(bytes4)":"01ffc9a7","useWorldConsumableItem(bytes32,bytes32,uint256)":"dc6e8eb7"},"id":273}