{"abi":[{"type":"function","name":"_msgSender","inputs":[],"outputs":[{"name":"sender","type":"address","internalType":"address"}],"stateMutability":"view"},{"type":"function","name":"_msgValue","inputs":[],"outputs":[{"name":"value","type":"uint256","internalType":"uint256"}],"stateMutability":"view"},{"type":"function","name":"_world","inputs":[],"outputs":[{"name":"","type":"address","internalType":"address"}],"stateMutability":"view"},{"type":"function","name":"executeWorldRngActions","inputs":[{"name":"randomNumber","type":"uint256","internalType":"uint256"},{"name":"givingEntity","type":"bytes32","internalType":"bytes32"},{"name":"actions","type":"tuple[]","internalType":"struct Action[]","components":[{"name":"attackerEntityId","type":"bytes32","internalType":"bytes32"},{"name":"defenderEntityId","type":"bytes32","internalType":"bytes32"},{"name":"itemId","type":"uint256","internalType":"uint256"}]}],"outputs":[],"stateMutability":"nonpayable"},{"type":"function","name":"supportsInterface","inputs":[{"name":"interfaceId","type":"bytes4","internalType":"bytes4"}],"outputs":[{"name":"","type":"bool","internalType":"bool"}],"stateMutability":"pure"},{"type":"function","name":"useCombatConsumableItem","inputs":[{"name":"characterId","type":"bytes32","internalType":"bytes32"},{"name":"itemId","type":"uint256","internalType":"uint256"}],"outputs":[],"stateMutability":"nonpayable"},{"type":"function","name":"useWorldConsumableItem","inputs":[{"name":"givingEntity","type":"bytes32","internalType":"bytes32"},{"name":"receivingEntity","type":"bytes32","internalType":"bytes32"},{"name":"itemId","type":"uint256","internalType":"uint256"}],"outputs":[],"stateMutability":"nonpayable"},{"type":"event","name":"Store_SetRecord","inputs":[{"name":"tableId","type":"bytes32","indexed":true,"internalType":"ResourceId"},{"name":"keyTuple","type":"bytes32[]","indexed":false,"internalType":"bytes32[]"},{"name":"staticData","type":"bytes","indexed":false,"internalType":"bytes"},{"name":"encodedLengths","type":"bytes32","indexed":false,"internalType":"EncodedLengths"},{"name":"dynamicData","type":"bytes","indexed":false,"internalType":"bytes"}],"anonymous":false},{"type":"event","name":"Store_SpliceStaticData","inputs":[{"name":"tableId","type":"bytes32","indexed":true,"internalType":"ResourceId"},{"name":"keyTuple","type":"bytes32[]","indexed":false,"internalType":"bytes32[]"},{"name":"start","type":"uint48","indexed":false,"internalType":"uint48"},{"name":"data","type":"bytes","indexed":false,"internalType":"bytes"}],"anonymous":false},{"type":"error","name":"GamePaused","inputs":[]},{"type":"error","name":"Slice_OutOfBounds","inputs":[{"name":"data","type":"bytes","internalType":"bytes"},{"name":"start","type":"uint256","internalType":"uint256"},{"name":"end","type":"uint256","internalType":"uint256"}]},{"type":"error","name":"World_AccessDenied","inputs":[{"name":"resource","type":"string","internalType":"string"},{"name":"caller","type":"address","internalType":"address"}]},{"type":"error","name":"World_FunctionSelectorNotFound","inputs":[{"name":"functionSelector","type":"bytes4","internalType":"bytes4"}]},{"type":"error","name":"World_ResourceNotFound","inputs":[{"name":"resourceId","type":"bytes32","internalType":"ResourceId"},{"name":"resourceIdString","type":"string","internalType":"string"}]}],"bytecode":{"object":"0x6080806040523461001657613591908161001b8239f35b5f80fdfe60806040526004361015610011575f80fd5b5f3560e01c806301ffc9a714610084578063119df25f1461007f57806322cb21c01461007a57806345ec935414610075578063dc6e8eb714610070578063e1af802c1461006b5763e3883cbc14610066575f80fd5b61067a565b6105a4565b61034b565b61032c565b610112565b6100e6565b346100d85760203660031901126100d85760043563ffffffff60e01b81168091036100d85763b5dee12760e01b81149081156100c7575b50151560805260206080f35b6301ffc9a760e01b149050816100bb565b5f80fd5b5f9103126100d857565b346100d8575f3660031901126100d8576020610100610cd2565b6040516001600160a01b039091168152f35b346100d85760403660031901126100d857600435602435610131610ce9565b61014b61013f61013f611e5d565b6001600160a01b031690565b60405163777c2caf60e01b8152600481018490526020918290829060249082905afa90811561029f576101ac9183915f916102ff575b5061019061013f61013f611e5d565b604051808095819463166c682360e31b83528960048401610782565b03915afa801561029f576101c7915f916102d2575b5061079b565b6101d561013f61013f611e5d565b60405163951b88d160e01b81526004810184905291905f90839060249082905afa90811561029f5761021d925f926102ae575b508101519051811490816102a4575b506108b8565b610228818380610dcc565b5061023761013f61013f611e5d565b803b156100d857815f916102629483604051809781958294632f40eabb60e01b84526004840161091d565b03925af191821561029f5761028492610286575b5061027f610949565b610f5d565b005b80610293610299926105d2565b806100dc565b5f610276565b610753565b5f9150125f610217565b6102cb9192503d805f833e6102c38183610620565b810190610843565b905f610208565b6102f29150833d85116102f8575b6102ea8183610620565b81019061076b565b5f6101c1565b503d6102e0565b61031f9150823d8411610325575b6103178183610620565b810190610734565b5f610181565b503d61030d565b346100d8575f3660031901126100d8576020604051601f193601358152f35b346100d85760603660031901126100d85760043560243560443561036d610ce9565b61037b61013f61013f611e5d565b60405163777c2caf60e01b815260048101859052602092918390829060249082905afa90811561029f576103dd9184915f91610587575b506103c161013f61013f611e5d565b604051808095819463166c682360e31b83528860048401610782565b03915afa801561029f576103f7915f91610570575061079b565b61040961040385611014565b15610994565b61041761013f61013f611e5d565b60405163951b88d160e01b81526004810183905293905f90859060249082905afa93841561029f575f94610554575b509260608101936104588551516109fb565b936104616109dd565b966040880193828901925f5b8951518110156104a057600190848c528686528888528b61048e828c610a90565b52610499818b610a90565b500161046d565b87848a82898787810151905f82135f1461051857505050506104c290826115a4565b6104d061013f61013f611e5d565b91823b156100d8576104fb925f9283604051809681958294632f40eabb60e01b84526004840161091d565b03925af1801561029f5761050b57005b80610293610284926105d2565b518114908161054a575b501561053957610533925083610dcc565b506104c2565b5050610545908261137e565b6104c2565b5f91501286610522565b6105699194503d805f833e6102c38183610620565b925f610446565b6102f29150843d86116102f8576102ea8183610620565b61059e9150823d8411610325576103178183610620565b5f6103b2565b346100d8575f3660031901126100d8576020610100611e5d565b634e487b7160e01b5f52604160045260245ffd5b6001600160401b0381116105e557604052565b6105be565b606081019081106001600160401b038211176105e557604052565b604081019081106001600160401b038211176105e557604052565b601f909101601f19168101906001600160401b038211908210176105e557604052565b604051906101c082016001600160401b038111838210176105e557604052565b6001600160401b0381116105e55760051b60200190565b346100d8576060806003193601126100d8576044356001600160401b0381116100d857366023820112156100d8578060040135906106b782610663565b916040906106c86040519485610620565b80845260209160246060602087019302850101933685116100d857602401915b8483106106fe5761028486602435600435610aa4565b86833603126100d8578387918351610715816105ea565b85358152828601358382015284860135858201528152019201916106e8565b908160209103126100d857516001600160a01b03811681036100d85790565b6040513d5f823e3d90fd5b519081151582036100d857565b908160209103126100d85761077f9061075e565b90565b9081526001600160a01b03909116602082015260400190565b156107a257565b60405162461bcd60e51b8152602060048201526018602482015277796f7520646f206e6f74206f776e2074686973206974656d60401b6044820152606490fd5b9080601f830112156100d8578151906020916107fd81610663565b9361080b6040519586610620565b81855260208086019260051b8201019283116100d857602001905b828210610834575050505090565b81518152908301908301610826565b906020828203126100d85781516001600160401b03928382116100d85701906080828203126100d8576040519260808401848110828211176105e55760405282518452602083015160208501526040830151604085015260608301519081116100d8576108b092016107e2565b606082015290565b156108bf57565b60405162461bcd60e51b815260206004820152603060248201527f4f6e6c7920696e7374616e74206865616c696e67206974656d732063616e206260448201526f19481d5cd959081a5b8818dbdb58985d60821b6064820152608490fd5b908152602081019190915260400190565b6001600160401b0381116105e557601f01601f191660200190565b60405190610956826105ea565b60298252686f6e73756d61626c6560b81b6040837f576f726c64416374696f6e53797374656d3a205573656420636f6d626174206360208201520152565b1561099b57565b60405162461bcd60e51b815260206004820152601a60248201527931b0b73737ba103ab9b29034b71030b71032b731b7bab73a32b960311b6044820152606490fd5b604051906109ea826105ea565b5f6040838281528260208201520152565b90610a0582610663565b610a126040519182610620565b8281528092610a23601f1991610663565b01905f5b828110610a3357505050565b602090610a3e6109dd565b82828501015201610a27565b634e487b7160e01b5f52603260045260245ffd5b805115610a6b5760200190565b610a4a565b805160011015610a6b5760400190565b805160021015610a6b5760600190565b8051821015610a6b5760209160051b010190565b909291610aaf610cd2565b90610ab8610fb4565b91825115610a6b57610ad16020933060208201526119ba565b610aee82600160801b600160f01b038316616e7360f01b17612e55565b8015610cc2575b15610c995750505f5b8151811015610c9157610b118183610a90565b5190610b1b611c04565b50610b2a61013f61013f611e5d565b6040808401908151945f82518095635875e22f60e11b82528180610b5760049b8c83019190602083019252565b03915afa801561029f57610c2796898b955f979388948591610c6f575b50610b7f8151611ca1565b90610b8a8151611ca1565b92610b958251611ca1565b94610ba08351611ca1565b91519881815191015191610bb2610643565b9a8b528a0152898901528660608901528660808901528660a08901528660c08901524360e0890152426101008901526101208801526101408701526101608601526101808501526101a0840152610c0d61013f61013f611e5d565b9351631618ab3d60e11b8152978895869485938401611330565b03925af191821561029f57600192610c47915f91610c4d575b5088611cd3565b01610afe565b610c6991503d805f833e610c618183610620565b81019061109a565b5f610c40565b610c8b91503d8087833e610c838183610620565b810190611c7c565b5f610b74565b505050509050565b610ca290612465565b610cbe60405192839263d787b73760e01b845260048401611e92565b0390fd5b50610ccd8282612e55565b610af5565b36603319013560601c908115610ce457565b339150565b60405160208101906001600160401b038211818310176105e557610d16916040525f81525f368137611a6f565b60f81c610d1f57565b60405163379a7ed960e01b8152600490fd5b908160209103126100d8575190565b15610d4757565b606460405162461bcd60e51b815260206004820152602060248201527f596f7520646f206e6f74206f776e2061206865616c696e6720706f74696f6e2e6044820152fd5b634e487b7160e01b5f52601160045260245ffd5b81810392915f138015828513169184121617610db757565b610d8b565b600160ff1b8114610db7575f0390565b602083610e029295949395610de561013f61013f611e5d565b90604051809581948293633d5bf82d60e01b84526004840161091d565b03915afa801561029f57610e1f915f91610ee8575b501515610d40565b610e5b5f610e2c85611784565b92610e3b61013f61013f611e5d565b604051808095819463951b88d160e01b8352600483019190602083019252565b03915afa801561029f576020915f91610ece575b5001519260a08201916080610e85868551610d9f565b910151809113610eab575b5090610ea991610ea1858351610d9f565b8092526118ca565b565b82919450610ec1610ec691610ea9945190610d9f565b610dbc565b939091610e90565b610ee291503d805f833e6102c38183610620565b5f610e6f565b610f0a915060203d602011610f10575b610f028183610620565b810190610d31565b5f610e17565b503d610ef8565b5f5b838110610f285750505f910152565b8181015183820152602001610f19565b90602091610f5181518092818552858086019101610f17565b601f01601f1916010190565b5f91908291610fa16040518092610f8d60208301956309710a9d60e41b8752604060248501526064840190610f38565b90604483015203601f198101835282610620565b51906a636f6e736f6c652e6c6f675afa50565b60405190610fc182610605565b6001825260203681840137565b60405190608082016001600160401b038111838210176105e557604052600382526060366020840137565b60405190611006826105ea565b600282526040366020840137565b61101c610fb4565b805115610a6b5761077f916020820152611afd565b9080601f830112156100d85781519060209161104c81610663565b9361105a6040519586610620565b81855260208086019260051b8201019283116100d857602001905b828210611083575050505090565b83809161108f8461075e565b815201910190611075565b6020818303126100d85780516001600160401b03918282116100d857016101c0818403126100d8576110ca610643565b92815184526020820151602085015260408201516040850152606082015160608501526080820151608085015261110360a0830161075e565b60a085015261111460c0830161075e565b60c085015260e082015160e08501526101008083015190850152610120808301518481116100d857826111489185016107e2565b90850152610140808301518481116100d857826111669185016107e2565b90850152610160808301518481116100d85782611184918501611031565b90850152610180808301518481116100d857826111a2918501611031565b908501526101a092838301519081116100d8576111bf9201611031565b9082015290565b9081518082526020808093019301915f5b8281106111e5575050505090565b8351855293810193928101926001016111d7565b9081518082526020808093019301915f5b828110611218575050505090565b835115158552938101939281019260010161120a565b9190602061132b5f92604086528051604087015282810151606087015260408101516080870152606081015160a0870152608081015160c087015261127c60a082015160e088019015159052565b60c0810151611292610100918289019015159052565b60e0820151906101209182890152820151906101409182890152820151611318886101c06113056112ed6112d36101609684888701526102008601906111c6565b96880151603f1985890381016101809687015297906111c6565b94870151946101a0958d8789828503019101526111f9565b9186015190858c840301908c01526111f9565b92015190878303016101e08801526111f9565b930152565b92919061132b602091604086528051604087015282810151606087015260408101516080870152606081015160a0870152608081015160c087015261127c60a082015160e088019015159052565b91905f5b8151811015611501576113958183610a90565b519061139f611c04565b506113ae61013f61013f611e5d565b6040928381019384515f82518095635875e22f60e11b825281806113db6004968783019190602083019252565b03915afa95861561029f576114a7965f9586916114e7575b506113fe8151611ca1565b6114088251611ca1565b916114138151611ca1565b9361141e8251611ca1565b905197805160208092015191611432610643565b9a8b528a0152878901528860608901528860808901528860a08901528860c08901524360e0890152426101008901526101208801526101408701526101608601526101808501526101a08401528361148e61013f61013f611e5d565b9251809781958294631618ab3d60e11b8452830161122e565b03925af191821561029f576001926114c7915f916114cd575b5086611cd3565b01611382565b6114e191503d805f833e610c618183610620565b5f6114c0565b6114fb91503d8088833e610c838183610620565b5f6113f3565b50509050565b906040808301918352602090604060208501528451809352602060608095019501935f915b84831061153c5750505050505090565b855180518852808501518886015281015187820152958101959483019460019092019161152c565b634e487b7160e01b5f52602160045260245ffd5b6003111561158257565b611564565b60609061077f939281525f60208201528160408201520190610f38565b6115ac610fb4565b805115610a6b5781602082015260405190600160f91b6020830152600182526115d482610605565b6001600160a01b036115e4611e5d565b163081036116595750916116569361160261165193611612956126d7565b6040519384918360208401611507565b0390611626601f1992838101865285610620565b611645604051948592632caa982960e21b602085015260248401611587565b03908101835282610620565b611db9565b50565b9291833b156100d8576040516301c85d5760e51b81526f436f6d626174456e636f756e74657200631d18955160e21b01600482015260a06024820152935f9285928391859183916116cb91906116b39060a48501906111c6565b90846044850152600319848303016064850152610f38565b6aa30802012020012020200160a01b608483015203925af190811561029f57611656936116129361165193611701575b50611602565b8061029361170e926105d2565b5f6116fb565b604051906101a082016001600160401b038111838210176105e5576040525f610180838281528260208201528260408201528260608201528260808201528260a08201528260c08201528260e0820152826101008201528261012082015282610140820152826101608201520152565b61178c611714565b50611795610fb4565b805115610a6b576117aa916020820152611f44565b50506117b4611714565b906020810151906118c06040820151916117da6117d5606083015160f81c90565b6126b0565b9060618101519060818101519060a18101519060c18101519061189e8a61189460e18401519361012061181a61181561010184015160f81c90565b6126bc565b9361188e61183061181561010286015160f81c90565b9361188461184661181561010384015160f81c90565b9161187a61187061010561186761186261010486015160f81c90565b6126c8565b93015160f81c90565b1515610180870152565b61016085016120a6565b61014083016120bc565b016120bc565b6101008c016120bc565b60e08a015260c089015260a088015260808701526060860152604085016120c8565b6020830152815290565b906118d3610fb4565b91825115610a6b576020830152604051906020820152602081526118f681610605565b6001600160a01b03611906611e5d565b169130830361191957610ea99250612869565b90823b156100d8576040516301c85d5760e51b815264537461747360581b631d18955160e21b01600482015260a06024820152925f928492839185918391611983919061196a9060a48501906111c6565b6005604485015283810360031901606485015290610f38565b6fe60d002020012020202020010101010160781b608483015203925af1801561029f576119ad5750565b80610293610ea9926105d2565b6001600160a01b036119ca611e5d565b163081036119e057506119dc90612b12565b5490565b604051638c364d5960e01b81526f53797374656d52656769737472790000661d189ddbdc9b1960ca1b0160048201526080602482015291602091839182908190611a2e9060848301906111c6565b5f6044830152630100080160dd1b606483015203915afa90811561029f575f91611a56575090565b61077f915060203d602011610f1057610f028183610620565b6001600160a01b03611a7f611e5d565b16308103611a9157506119dc90612b93565b604051638c364d5960e01b81526514185d5cd95960521b631d18955160e21b0160048201526080602482015291602091839182908190611ad59060848301906111c6565b5f6044830152630101000160d81b606483015203915afa90811561029f575f91611a56575090565b6001600160a01b03611b0d611e5d565b16308103611b1f57506119dc90612bf5565b604051638c364d5960e01b81526f456e636f756e746572456e7469747900631d18955160e21b0160048201526080602482015291602091839182908190611b6a9060848301906111c6565b5f60448301526502081809000960cd1b606483015203915afa90811561029f575f91611a56575090565b6001600160a01b03611ba4611e5d565b16308103611bb657506119dc90612c5e565b604051638c364d5960e01b81526f5265736f757263654163636573730000661d189ddbdc9b1960ca1b0160048201526080602482015291602091839182908190611ad59060848301906111c6565b604051906101c082016001600160401b038111838210176105e557604052815f81525f60208201525f60408201526101a06060915f838201525f60808201525f60a08201525f60c08201525f60e08201525f610100820152826101208201528261014082015282610160820152826101808201520152565b906020828203126100d85781516001600160401b0381116100d85761077f92016107e2565b90611cab82610663565b611cb86040519182610620565b8281528092611cc9601f1991610663565b0190602036910137565b610ea991611d1e81516020830151604084015160608501516080860151611cfd60a0880151151590565b91611d0b60c0890151151590565b9360e0890151956101008a0151976120d1565b611d8a61012083015192610140810151906101608101516101a061018083015192015192611d84848484848b93929193519051935191519251938460d81b948460b01b948460881b948360651b9480603d1b9460051b9060051b01010101171717171790565b9661214b565b92611d93610fce565b90611d9d82610a5e565b525f611da882610a70565b525f611db382610a80565b5261221e565b80516020820180516001600160e01b031994939285918281169160048110611e47575b50509050611de8610fb4565b805115610a6b5785611dff9216602082015261200e565b505090604060208301519201518215611e2c5781516001600160e01b031617905291925061077f91612315565b604051637eef2a7160e11b81525f3587166004820152602490fd5b8391925060040360031b1b161684905f80611ddc565b7f629a4c26e296b22a8e0856e9f6ecb2d1008d7e00081111962cd175fa7488e175546001600160a01b03168061077f57503390565b90611eaa602091949394604084526040840190610f38565b6001600160a01b03909416910152565b81601f820112156100d8578051611ed08161092e565b92611ede6040519485610620565b818452602082840101116100d85761077f9160208085019101610f17565b90916060828403126100d85781516001600160401b0392908381116100d85784611f27918301611eba565b9360208201519360408301519081116100d85761077f9201611eba565b6001600160a01b03611f54611e5d565b16308103611f6d5750611f66906125c9565b9192909190565b60405163419b58fd60e01b815264537461747360581b631d18955160e21b0160048201526060602482015292915f91849182908190611fb09060648301906111c6565b6fe60d002020012020202020010101010160781b604483015203915afa90811561029f575f80935f93611fe4575b50929190565b9193505061200491503d805f833e611ffc8183610620565b810190611efc565b929092915f611fde565b6001600160a01b0361201e611e5d565b163081036120305750611f6690612626565b60405163419b58fd60e01b81526f46756e6374696f6e53656c6563746f72661d189ddbdc9b1960ca1b0160048201526060602482015292915f9184918290819061207e9060648301906111c6565b64090080080160d21b604483015203915afa90811561029f575f80935f93611fe45750929190565b600a8210156115825752565b6004111561158257565b6120c5826120b2565b52565b6120c582611578565b97969594939291906040519860208a015260408901526060880152608087015260a0860152151560f81b60c0850152151560f81b60c184015260c283015260e282015260e28152610120810181811060018060401b038211176105e55760405290565b9061214760209282815194859201610f17565b0190565b9193908251938460051b95602092868804841487151715610db757604051968488018097601f199a8b603f828d0101166040528a52865f9101905b83811061220a575050505093611645936121d5989693612204936121c26121bc6121b66121b661077f9d9b612fe3565b9361303d565b9461303d565b956040519b8c99518092868c0190610f17565b88016121e982518093868085019101610f17565b016121fc82518093858085019101610f17565b010190612134565b90612134565b815183529187019190870190600101612186565b909291906001600160a01b03612232611e5d565b16308103612245575092610ea993612d94565b909192813b156100d8575f6122b4936122c882966122a194604051998a988997889663298314fb60e01b88526f416374696f6e4f7574636f6d65000000631bdd155160e21b01600489015260a0602489015260a48801906111c6565b6003199283888303016044890152610f38565b926064860152848303016084850152610f38565b03925af1801561029f576119ad5750565b906020828203126100d85781516001600160401b0381116100d85761077f9201611eba565b60409061077f939281528160208201520190610f38565b906001600160a01b03612326611e5d565b1680301461238357905f91612352938360405180968195829463075cf5e160e31b8452600484016122fe565b03925af190811561029f575f91612367575090565b61077f91503d805f833e61237b8183610620565b8101906122d9565b5061238c610cd2565b91612395610fb4565b805115610a6b57808260206123ab930152612522565b5050906034602083015160601c92015160f81c821561241c571561240d575b60101b6001600160901b0319166123f3576123e492613129565b905b156123ee5790565b612e4d565b906124019161240793613104565b90151591565b906123e6565b6124178482613098565b6123ca565b5061242681612465565b604051637df8867360e11b8152918291610cbe91600484016122fe565b6040519061245082610605565b60068252651e3937b7ba1f60d11b6020830152565b608081901b6001600160801b0319169061077f90602490601081901b6001600160901b031916806125135750612499612443565b935b8061250557506124a9612443565b60405194859261ffff60f01b166020840152601d60f91b908160228501526124db815180926020602388019101610f17565b83019060238201526124f68251809360208785019101610f17565b01036004810184520182610620565b61250e90612e93565b6124a9565b61251c90612e93565b9361249b565b5f90606090604051906020908261253d602082019283612a7c565b0392612551601f1994858101835282610620565b5190205f80516020613551833981519152189160405192816054850116604052601584526020840192601591925b818310156125b157505080612595575b50505092565b5f199060031b1c908183511691199054161790525f808061258f565b8160018583949597965487520194019401919061257f565b5f906125d6606091612cca565b60405190602090601f19908161012585011660405260e68452602084019260e691925b8183101561260e575050806125955750505092565b816001858394959796548752019401940191906125f9565b5f906060906040519060209082612641602082019283612ac4565b0392612655601f1994858101835282610620565b5190205f80516020613551833981519152189160405192816063850116604052602484526020840192602491925b81831015612698575050806125955750505092565b81600185839495979654875201940194019190612683565b60ff1661077f81611578565b60ff1661077f816120b2565b60ff16600a8110156115825790565b91906126e283612d2b565b916126eb6131b1565b905f5b8251811015612792576127226127156127078386610a90565b516001600160581b03191690565b6001600160581b03191690565b9060049182808260581c161461273e575b5060019150016126ee565b60601c803b156100d857855f91898361276c966040519788958694859363964f667d60e01b85528401612f4d565b03925af191821561029f5760019215612733578061029361278c926105d2565b5f612733565b509291906127dd826040946040515f805160206135318339815191526f436f6d626174456e636f756e74657200631d18955160e21b0191806127d5868d83612ef1565b0390a26132d7565b5f5b8151811015610c91576127f86127156127078385610a90565b6008808260581c161461280f575b506001016127df565b60601c90813b156100d857845163a8ba872160e01b8152915f90839081838161283c8a8e60048401612f4d565b03925af191821561029f57600192612856575b5090612806565b80610293612863926105d2565b5f61284f565b9190915f805b600582106129fe5765ffffffffffff91501661288a82612cca565b612892613283565b905f5b825181101561291f576128ae6127156127078386610a90565b9060049182808260581c16146128ca575b506001915001612895565b60601c803b156100d857855f9188838c966128f96040519889968795869463964f667d60e01b86528501612f98565b03925af191821561029f57600192156128bf5780610293612919926105d2565b5f6128bf565b50604080519096939291612968918591859164537461747360581b631d18955160e21b01905f80516020613531833981519152908061296087878e84612f1c565b0390a2613324565b5f5b81518110156129f5576129836127156127078385610a90565b6008808260581c161461299a575b5060010161296a565b60601c90813b156100d857875163a8ba872160e01b8152915f9083908183816129c88b8b8e60048501612f98565b03925af191821561029f576001926129e2575b5090612991565b806102936129ef926105d2565b5f6129db565b50505050509050565b60ff6fe60d002020012020202020010101010160781b83601b0360031b1c168101809111610db75760019091019061286f565b6953746f7265486f6f6b7360301b66746273746f726560c81b01815281516020918201928201915f5b828110612a68575050505090565b835185529381019392810192600101612a5a565b6653797374656d7360481b661d189ddbdc9b1960ca1b01815281516020918201928201915f5b828110612ab0575050505090565b835185529381019392810192600101612aa2565b6f46756e6374696f6e53656c6563746f72661d189ddbdc9b1960ca1b01815281516020918201928201915f5b828110612afe575050505090565b835185529381019392810192600101612af0565b60405160208160208101936f53797374656d52656769737472790000661d189ddbdc9b1960ca1b0185526040820160208251919201935f5b828110612b7c57505050612b67925003601f198101835282610620565b5190205f805160206135518339815191521890565b855184529481019486945092810192600101612b4a565b60405160208160208101936514185d5cd95960521b631d18955160e21b0185526040820160208251919201935f5b828110612bde57505050612b67925003601f198101835282610620565b855184529481019486945092810192600101612bc1565b60405160208160208101936f456e636f756e746572456e7469747900631d18955160e21b0185526040820160208251919201935f5b828110612c4757505050612b67925003601f198101835282610620565b855184529481019486945092810192600101612c2a565b60405160208160208101936f5265736f757263654163636573730000661d189ddbdc9b1960ca1b0185526040820160208251919201935f5b828110612cb357505050612b67925003601f198101835282610620565b855184529481019486945092810192600101612c96565b604051602081602081019364537461747360581b631d18955160e21b0185526040820160208251919201935f5b828110612d1457505050612b67925003601f198101835282610620565b855184529481019486945092810192600101612cf7565b60405160208160208101936f436f6d626174456e636f756e74657200631d18955160e21b0185526040820160208251919201935f5b828110612d7d57505050612b67925003601f198101835282610620565b855184529481019486945092810192600101612d60565b60408051655461626c657360501b66746273746f726560c81b0160208201526f416374696f6e4f7574636f6d65000000631bdd155160e21b0181830181905291815290947f8dbb3a9672eebfd3773e72dd9c102393436816d832c7ba9e1e1ac8fcadcac7a994612e2794612e4893919291612e359190612e13906105ea565b6040519687966080885260808801906111c6565b908682036020880152610f38565b9160408501528382036060850152610f38565b0390a2565b602081519101fd5b612e5d610ff9565b90815115610a6b576020820152805160011015610a6b576001600160a01b039091166040820152612e8d90611b94565b60f81c90565b5f5b60108110612ec4575b6040516001600160801b0319909216602083015260108252612ebf82610605565b815290565b6001600160801b03198216600382901b1b6001600160f81b03191615612eec57600101612e95565b612e9e565b9091612f0861077f936060845260608401906111c6565b915f60208201526040818403910152610f38565b65ffffffffffff612f3961077f95936060845260608401906111c6565b931660208201526040818403910152610f38565b6f436f6d626174456e636f756e74657200631d18955160e21b01815260806020820181905261077f939192612f84918401906111c6565b915f60408201526060818403910152610f38565b64537461747360581b631d18955160e21b01815260806020820181905261077f949265ffffffffffff91612fcf91908401906111c6565b931660408201526060818403910152610f38565b9081518060051b60209180820460201481151715610db75790604051946020860191601f19603f8289010116604052865260205f9101905b838110613029575050505050565b81518352918401919084019060010161301b565b9081519160019083800460011484151715610db75760408051808601603f01601f191690915284815293906020908186019082015f5b84811061308257505050505050565b815160f81b835291850191908301908501613073565b6130b582600160801b600160f01b038316616e7360f01b17613467565b80156130c5575b15610c99575050565b506130d08282613467565b6130bc565b3d156130ff573d906130e68261092e565b916130f46040519384610620565b82523d5f602084013e565b606090565b906131125f939284936133cd565b9082602083519301915af16131256130d5565b9091565b906131375f939284936133cd565b90602082519201905af46131256130d5565b60408051601f19603f85830101811690925283815292602080850193925b818310156131995750508061317d575b50505090565b5f199060031b1c908183511691199054161790525f8080613177565b81600185839495979654875201940194019190613167565b6131b9610fb4565b805115610a6b5761326c61077f916f436f6d626174456e636f756e74657200631d18955160e21b01602082015264ffffffffff604051915f80516020613571833981519152602084018461320d8483612a31565b0394613221601f1996878101835282610620565b519020189261323c6040519182611645602082019586612a31565b5190207f14e2fcc58e58e68ec7edc30c8d50dccc3ce2714a623ec81f46b6a63922d76569185460381c1690613149565b602060018060801b03825116910160801b17613415565b61328b610fb4565b805115610a6b5761326c61077f9164537461747360581b631d18955160e21b01602082015264ffffffffff604051915f80516020613571833981519152602084018461320d8483612a31565b81519060208093019190925b8082101561330c5750806132f657505050565b5f199060031b1c90818354169119905116179055565b6001839482939451815501930191601f1901906132e3565b825192610ea992602090910191908061336c575b509290925b60209081831061335d5784518155930192601f199091019060010161333d565b9293919050806132f657505050565b60208110156133bd575b80156133385791939082602003908360031b5f198460031b1c19811c908751901c908019835416911617815581831115610c9157600101940191601f19910101925f613338565b90601f908260051c019116613376565b605461077f9160405193816133ec869351809260208087019101610f17565b82019060018060601b03199060601b1660208201525f6034820152036034810184520182610620565b8060801c906015809160018060801b031604604051926020906020850160208460051b8701016040528386525f5b8481106134535750505050505090565b825182529185019190830190600101613443565b61346f610ff9565b90815115610a6b576020926020830191825282519060019160011015610a6b576001600160a01b031660408085019190915280516f5265736f757263654163636573730000661d189ddbdc9b1960ca1b0160208201908152945194959094918501939291905f5b82811061351d57505050505091816134fd612e8d9361077f9503601f198101835282610620565b5190205f8051602061355183398151915218546001600160f81b03191690565b84518652948101949381019383016134d656fe8c0b5119d4cec7b284c6b1b39252a03d1e2f2d7451a5895562524c113bb952be86425bff6b57326c7859e89024fe4f238ca327a1ae4a230180dd2f0e88aaa7d93b4102da22e32d82fc925482184f16c09fd4281692720b87d124aef6da48a0f1","linkReferences":{}},"methodIdentifiers":{"_msgSender()":"119df25f","_msgValue()":"45ec9354","_world()":"e1af802c","executeWorldRngActions(uint256,bytes32,(bytes32,bytes32,uint256)[])":"e3883cbc","supportsInterface(bytes4)":"01ffc9a7","useCombatConsumableItem(bytes32,uint256)":"22cb21c0","useWorldConsumableItem(bytes32,bytes32,uint256)":"dc6e8eb7"},"id":360}