{"abi":[{"type":"function","name":"_msgSender","inputs":[],"outputs":[{"name":"sender","type":"address","internalType":"address"}],"stateMutability":"view"},{"type":"function","name":"_msgValue","inputs":[],"outputs":[{"name":"value","type":"uint256","internalType":"uint256"}],"stateMutability":"view"},{"type":"function","name":"_world","inputs":[],"outputs":[{"name":"","type":"address","internalType":"address"}],"stateMutability":"view"},{"type":"function","name":"executeWorldRngActions","inputs":[{"name":"randomNumber","type":"uint256","internalType":"uint256"},{"name":"givingEntity","type":"bytes32","internalType":"bytes32"},{"name":"actions","type":"tuple[]","internalType":"struct Action[]","components":[{"name":"attackerEntityId","type":"bytes32","internalType":"bytes32"},{"name":"defenderEntityId","type":"bytes32","internalType":"bytes32"},{"name":"itemId","type":"uint256","internalType":"uint256"}]}],"outputs":[],"stateMutability":"nonpayable"},{"type":"function","name":"rest","inputs":[{"name":"characterId","type":"bytes32","internalType":"bytes32"}],"outputs":[],"stateMutability":"nonpayable"},{"type":"function","name":"supportsInterface","inputs":[{"name":"interfaceId","type":"bytes4","internalType":"bytes4"}],"outputs":[{"name":"","type":"bool","internalType":"bool"}],"stateMutability":"pure"},{"type":"function","name":"useCombatConsumableItem","inputs":[{"name":"characterId","type":"bytes32","internalType":"bytes32"},{"name":"itemId","type":"uint256","internalType":"uint256"}],"outputs":[],"stateMutability":"nonpayable"},{"type":"function","name":"useWorldConsumableItem","inputs":[{"name":"givingEntity","type":"bytes32","internalType":"bytes32"},{"name":"receivingEntity","type":"bytes32","internalType":"bytes32"},{"name":"itemId","type":"uint256","internalType":"uint256"}],"outputs":[],"stateMutability":"nonpayable"},{"type":"event","name":"Store_SetRecord","inputs":[{"name":"tableId","type":"bytes32","indexed":true,"internalType":"ResourceId"},{"name":"keyTuple","type":"bytes32[]","indexed":false,"internalType":"bytes32[]"},{"name":"staticData","type":"bytes","indexed":false,"internalType":"bytes"},{"name":"encodedLengths","type":"bytes32","indexed":false,"internalType":"EncodedLengths"},{"name":"dynamicData","type":"bytes","indexed":false,"internalType":"bytes"}],"anonymous":false},{"type":"event","name":"Store_SpliceStaticData","inputs":[{"name":"tableId","type":"bytes32","indexed":true,"internalType":"ResourceId"},{"name":"keyTuple","type":"bytes32[]","indexed":false,"internalType":"bytes32[]"},{"name":"start","type":"uint48","indexed":false,"internalType":"uint48"},{"name":"data","type":"bytes","indexed":false,"internalType":"bytes"}],"anonymous":false},{"type":"error","name":"GamePaused","inputs":[]},{"type":"error","name":"Slice_OutOfBounds","inputs":[{"name":"data","type":"bytes","internalType":"bytes"},{"name":"start","type":"uint256","internalType":"uint256"},{"name":"end","type":"uint256","internalType":"uint256"}]},{"type":"error","name":"World_AccessDenied","inputs":[{"name":"resource","type":"string","internalType":"string"},{"name":"caller","type":"address","internalType":"address"}]},{"type":"error","name":"World_FunctionSelectorNotFound","inputs":[{"name":"functionSelector","type":"bytes4","internalType":"bytes4"}]},{"type":"error","name":"World_ResourceNotFound","inputs":[{"name":"resourceId","type":"bytes32","internalType":"ResourceId"},{"name":"resourceIdString","type":"string","internalType":"string"}]}],"bytecode":{"object":"0x6080806040523461001657613d1f908161001b8239f35b5f80fdfe60806040526004361015610011575f80fd5b5f3560e01c806301ffc9a714610094578063119df25f1461008f57806322cb21c01461008a57806345ec935414610085578063af20293214610080578063dc6e8eb71461007b578063e1af802c146100765763e3883cbc14610071575f80fd5b61076b565b610695565b61043c565b61035b565b61033c565b610122565b6100f6565b346100e85760203660031901126100e85760043563ffffffff60e01b81168091036100e85763b5dee12760e01b81149081156100d7575b50151560805260206080f35b6301ffc9a760e01b149050816100cb565b5f80fd5b5f9103126100e857565b346100e8575f3660031901126100e8576020610110610ec1565b6040516001600160a01b039091168152f35b346100e85760403660031901126100e857600435602435610141610ed8565b61015b61014f61014f61238d565b6001600160a01b031690565b60405163777c2caf60e01b8152600481018490526020918290829060249082905afa9081156102af576101bc9183915f9161030f575b506101a061014f61014f61238d565b604051808095819463166c682360e31b83528960048401610873565b03915afa80156102af576101d7915f916102e2575b5061088c565b6101e561014f61014f61238d565b60405163951b88d160e01b81526004810184905291905f90839060249082905afa9081156102af5761022d925f926102be575b508101519051811490816102b4575b506109a9565b610238818380610fa2565b5061024761014f61014f61238d565b803b156100e857815f916102729483604051809781958294632f40eabb60e01b845260048401610a0e565b03925af19182156102af5761029492610296575b5061028f610a3a565b611133565b005b806102a36102a9926106c3565b806100ec565b5f610286565b610844565b5f9150125f610227565b6102db9192503d805f833e6102d38183610711565b810190610934565b905f610218565b6103029150833d8511610308575b6102fa8183610711565b81019061085c565b5f6101d1565b503d6102f0565b61032f9150823d8411610335575b6103278183610711565b810190610825565b5f610191565b503d61031d565b346100e8575f3660031901126100e8576020604051601f193601358152f35b346100e85760203660031901126100e857600435610377610ed8565b61038561014f61014f61238d565b60405163777c2caf60e01b8152600481018390529190602090839060249082905afa80156102af576103c56103ca91610294945f9161041d575b5061118a565b610a85565b6103dc6103d68261123f565b15610ac7565b6103ef5f6103e98361125c565b13610b0f565b61040a6103fb82611279565b61040483611296565b90610b63565b9060018212156112b357600191506112b3565b610436915060203d602011610335576103278183610711565b5f6103bf565b346100e85760603660031901126100e85760043560243560443561045e610ed8565b61046c61014f61014f61238d565b60405163777c2caf60e01b815260048101859052602092918390829060249082905afa9081156102af576104ce9184915f91610678575b506104b261014f61014f61238d565b604051808095819463166c682360e31b83528860048401610873565b03915afa80156102af576104e8915f91610661575061088c565b6104fa6104f48561123f565b15610b83565b61050861014f61014f61238d565b60405163951b88d160e01b81526004810183905293905f90859060249082905afa9384156102af575f94610645575b50926060810193610549855151610bea565b93610552610bcc565b966040880193828901925f5b89515181101561059157600190848c528686528888528b61057f828c610c7f565b5261058a818b610c7f565b500161055e565b87848a82898787810151905f82135f1461060957505050506105b39082611978565b6105c161014f61014f61238d565b91823b156100e8576105ec925f9283604051809681958294632f40eabb60e01b845260048401610a0e565b03925af180156102af576105fc57005b806102a3610294926106c3565b518114908161063b575b501561062a57610624925083610fa2565b506105b3565b50506106369082611752565b6105b3565b5f91501286610613565b61065a9194503d805f833e6102d38183610711565b925f610537565b6103029150843d8611610308576102fa8183610711565b61068f9150823d8411610335576103278183610711565b5f6104a3565b346100e8575f3660031901126100e857602061011061238d565b634e487b7160e01b5f52604160045260245ffd5b6001600160401b0381116106d657604052565b6106af565b606081019081106001600160401b038211176106d657604052565b604081019081106001600160401b038211176106d657604052565b601f909101601f19168101906001600160401b038211908210176106d657604052565b604051906101c082016001600160401b038111838210176106d657604052565b6001600160401b0381116106d65760051b60200190565b346100e8576060806003193601126100e8576044356001600160401b0381116100e857366023820112156100e8578060040135906107a882610754565b916040906107b96040519485610711565b80845260209160246060602087019302850101933685116100e857602401915b8483106107ef5761029486602435600435610c93565b86833603126100e8578387918351610806816106db565b85358152828601358382015284860135858201528152019201916107d9565b908160209103126100e857516001600160a01b03811681036100e85790565b6040513d5f823e3d90fd5b519081151582036100e857565b908160209103126100e8576108709061084f565b90565b9081526001600160a01b03909116602082015260400190565b1561089357565b60405162461bcd60e51b8152602060048201526018602482015277796f7520646f206e6f74206f776e2074686973206974656d60401b6044820152606490fd5b9080601f830112156100e8578151906020916108ee81610754565b936108fc6040519586610711565b81855260208086019260051b8201019283116100e857602001905b828210610925575050505090565b81518152908301908301610917565b906020828203126100e85781516001600160401b03928382116100e85701906080828203126100e8576040519260808401848110828211176106d65760405282518452602083015160208501526040830151604085015260608301519081116100e8576109a192016108d3565b606082015290565b156109b057565b60405162461bcd60e51b815260206004820152603060248201527f4f6e6c7920696e7374616e74206865616c696e67206974656d732063616e206260448201526f19481d5cd959081a5b8818dbdb58985d60821b6064820152608490fd5b908152602081019190915260400190565b6001600160401b0381116106d657601f01601f191660200190565b60405190610a47826106db565b60298252686f6e73756d61626c6560b81b6040837f576f726c64416374696f6e53797374656d3a205573656420636f6d626174206360208201520152565b15610a8c57565b60405162461bcd60e51b81526020600482015260136024820152723737ba1031b430b930b1ba32b91037bbb732b960691b6044820152606490fd5b15610ace57565b60405162461bcd60e51b815260206004820152601960248201527818d85b9b9bdd081c995cdd08191d5c9a5b99c818dbdb58985d603a1b6044820152606490fd5b15610b1657565b60405162461bcd60e51b815260206004820152601160248201527018da185c9858dd195c881a5cc819195859607a1b6044820152606490fd5b634e487b7160e01b5f52601160045260245ffd5b9190915f8382019384129112908015821691151617610b7e57565b610b4f565b15610b8a57565b60405162461bcd60e51b815260206004820152601a60248201527931b0b73737ba103ab9b29034b71030b71032b731b7bab73a32b960311b6044820152606490fd5b60405190610bd9826106db565b5f6040838281528260208201520152565b90610bf482610754565b610c016040519182610711565b8281528092610c12601f1991610754565b01905f5b828110610c2257505050565b602090610c2d610bcc565b82828501015201610c16565b634e487b7160e01b5f52603260045260245ffd5b805115610c5a5760200190565b610c39565b805160011015610c5a5760400190565b805160021015610c5a5760600190565b8051821015610c5a5760209160051b010190565b909291610c9e610ec1565b90610ca76111df565b91825115610c5a57610cc0602093306020820152611c9b565b610cdd82600160801b600160f01b038316616e7360f01b176136cd565b8015610eb1575b15610e885750505f5b8151811015610e8057610d008183610c7f565b5190610d0a612134565b50610d1961014f61014f61238d565b6040808401908151945f82518095635875e22f60e11b82528180610d4660049b8c83019190602083019252565b03915afa80156102af57610e1696898b955f979388948591610e5e575b50610d6e81516121d1565b90610d7981516121d1565b92610d8482516121d1565b94610d8f83516121d1565b91519881815191015191610da1610734565b9a8b528a0152898901528660608901528660808901528660a08901528660c08901524360e0890152426101008901526101208801526101408701526101608601526101808501526101a0840152610dfc61014f61014f61238d565b9351631618ab3d60e11b8152978895869485938401611704565b03925af19182156102af57600192610e36915f91610e3c575b5088612203565b01610ced565b610e5891503d805f833e610e508183610711565b81019061146e565b5f610e2f565b610e7a91503d8087833e610e728183610711565b8101906121ac565b5f610d63565b505050509050565b610e9190612db8565b610ead60405192839263d787b73760e01b8452600484016123c2565b0390fd5b50610ebc82826136cd565b610ce4565b36603319013560601c908115610ed357565b339150565b60405160208101906001600160401b038211818310176106d657610f05916040525f81525f368137611d50565b60f81c610f0e57565b60405163379a7ed960e01b8152600490fd5b908160209103126100e8575190565b15610f3657565b606460405162461bcd60e51b815260206004820152602060248201527f596f7520646f206e6f74206f776e2061206865616c696e6720706f74696f6e2e6044820152fd5b81810392915f138015828513169184121617610b7e57565b600160ff1b8114610b7e575f0390565b602083610fd89295949395610fbb61014f61014f61238d565b90604051809581948293633d5bf82d60e01b845260048401610a0e565b03915afa80156102af57610ff5915f916110be575b501515610f2f565b6110315f61100285611b55565b9261101161014f61014f61238d565b604051808095819463951b88d160e01b8352600483019190602083019252565b03915afa80156102af576020915f916110a4575b5001519260a0820191608061105b868551610f7a565b910151809113611081575b509061107f91611077858351610f7a565b8092526112b3565b565b8291945061109761109c9161107f945190610f7a565b610f92565b939091611066565b6110b891503d805f833e6102d38183610711565b5f611045565b6110e0915060203d6020116110e6575b6110d88183610711565b810190610f20565b5f610fed565b503d6110ce565b5f5b8381106110fe5750505f910152565b81810151838201526020016110ef565b90602091611127815180928185528580860191016110ed565b601f01601f1916010190565b5f91908291611177604051809261116360208301956309710a9d60e41b875260406024850152606484019061110e565b90604483015203601f198101835282610711565b51906a636f6e736f6c652e6c6f675afa50565b611192610ec1565b6001600160a01b0390811691168181146111d8576111ae6111f9565b90815115610c5a576020820152805160011015610c5a576111d3916040820152611dde565b151590565b5050600190565b604051906111ec826106f6565b6001825260203681840137565b60405190611206826106db565b600282526040366020840137565b60405190608082016001600160401b038111838210176106d657604052600382526060366020840137565b6112476111df565b805115610c5a57610870916020820152611e4e565b6112646111df565b805115610c5a57610870916020820152611ee5565b6112816111df565b805115610c5a57610870916020820152611f7f565b61129e6111df565b805115610c5a5761087091602082015261202a565b906112bc6111df565b91825115610c5a576020830152604051906020820152602081526112df816106f6565b6001600160a01b036112ef61238d565b16913083036113025761107f9250612742565b90823b156100e8576040516301c85d5760e51b815264537461747360581b631d18955160e21b01600482015260a06024820152925f92849283918591839161136c91906113539060a485019061159a565b600560448501528381036003190160648501529061110e565b6fe60d002020012020202020010101010160781b608483015203925af180156102af57611397575b50565b806102a361107f926106c3565b9080601f830112156100e8578151906020916113bf81610754565b936113cd6040519586610711565b81855260208086019260051b8201019283116100e857602001905b8282106113f6575050505090565b815181529083019083016113e8565b9080601f830112156100e85781519060209161142081610754565b9361142e6040519586610711565b81855260208086019260051b8201019283116100e857602001905b828210611457575050505090565b8380916114638461084f565b815201910190611449565b6020818303126100e85780516001600160401b03918282116100e857016101c0818403126100e85761149e610734565b9281518452602082015160208501526040820151604085015260608201516060850152608082015160808501526114d760a0830161084f565b60a08501526114e860c0830161084f565b60c085015260e082015160e08501526101008083015190850152610120808301518481116100e8578261151c9185016113a4565b90850152610140808301518481116100e8578261153a9185016108d3565b90850152610160808301518481116100e85782611558918501611405565b90850152610180808301518481116100e85782611576918501611405565b908501526101a092838301519081116100e8576115939201611405565b9082015290565b9081518082526020808093019301915f5b8281106115b9575050505090565b8351855293810193928101926001016115ab565b9081518082526020808093019301915f5b8281106115ec575050505090565b83511515855293810193928101926001016115de565b919060206116ff5f92604086528051604087015282810151606087015260408101516080870152606081015160a0870152608081015160c087015261165060a082015160e088019015159052565b60c0810151611666610100918289019015159052565b60e08201519061012091828901528201519061014091828901528201516116ec886101c06116d96116c16116a761016096848887015261020086019061159a565b96880151603f19858903810161018096870152979061159a565b94870151946101a0958d8789828503019101526115cd565b9186015190858c840301908c01526115cd565b92015190878303016101e08801526115cd565b930152565b9291906116ff602091604086528051604087015282810151606087015260408101516080870152606081015160a0870152608081015160c087015261165060a082015160e088019015159052565b91905f5b81518110156118d5576117698183610c7f565b5190611773612134565b5061178261014f61014f61238d565b6040928381019384515f82518095635875e22f60e11b825281806117af6004968783019190602083019252565b03915afa9586156102af5761187b965f9586916118bb575b506117d281516121d1565b6117dc82516121d1565b916117e781516121d1565b936117f282516121d1565b905197805160208092015191611806610734565b9a8b528a0152878901528860608901528860808901528860a08901528860c08901524360e0890152426101008901526101208801526101408701526101608601526101808501526101a08401528361186261014f61014f61238d565b9251809781958294631618ab3d60e11b84528301611602565b03925af19182156102af5760019261189b915f916118a1575b5086612203565b01611756565b6118b591503d805f833e610e508183610711565b5f611894565b6118cf91503d8088833e610e728183610711565b5f6117c7565b50509050565b906040808301918352602090604060208501528451809352602060608095019501935f915b8483106119105750505050505090565b8551805188528085015188860152810151878201529581019594830194600190920191611900565b634e487b7160e01b5f52602160045260245ffd5b6003111561195657565b611938565b606090610870939281525f6020820152816040820152019061110e565b6119806111df565b805115610c5a5781602082015260405190600160f91b6020830152600182526119a8826106f6565b6001600160a01b036119b861238d565b16308103611a2a575091611394936119d6611a25936119e6956128ed565b60405193849183602084016118db565b03906119fa601f1992838101865285610711565b611a19604051948592632caa982960e21b60208501526024840161195b565b03908101835282610711565b6122e9565b9291833b156100e8576040516301c85d5760e51b81526f436f6d626174456e636f756e74657200631d18955160e21b01600482015260a06024820152935f928592839185918391611a9c9190611a849060a485019061159a565b9084604485015260031984830301606485015261110e565b6aa30802012020012020200160a01b608483015203925af19081156102af57611394936119e693611a2593611ad2575b506119d6565b806102a3611adf926106c3565b5f611acc565b604051906101a082016001600160401b038111838210176106d6576040525f610180838281528260208201528260408201528260608201528260808201528260a08201528260c08201528260e0820152826101008201528261012082015282610140820152826101608201520152565b611b5d611ae5565b50611b666111df565b805115610c5a57611b7b916020820152612474565b5050611b85611ae5565b90602081015190611c91604082015191611bab611ba6606083015160f81c90565b613003565b9060618101519060818101519060a18101519060c181015190611c6f8a611c6560e184015193610120611beb611be661010184015160f81c90565b61300f565b93611c5f611c01611be661010286015160f81c90565b93611c55611c17611be661010384015160f81c90565b91611c4b611c41610105611c38611c3361010486015160f81c90565b61301b565b93015160f81c90565b1515610180870152565b61016085016125d6565b61014083016125ec565b016125ec565b6101008c016125ec565b60e08a015260c089015260a088015260808701526060860152604085016125f8565b6020830152815290565b6001600160a01b03611cab61238d565b16308103611cc15750611cbd9061310b565b5490565b604051638c364d5960e01b81526f53797374656d52656769737472790000661d189ddbdc9b1960ca1b0160048201526080602482015291602091839182908190611d0f90608483019061159a565b5f6044830152630100080160dd1b606483015203915afa9081156102af575f91611d37575090565b610870915060203d6020116110e6576110d88183610711565b6001600160a01b03611d6061238d565b16308103611d725750611cbd9061318c565b604051638c364d5960e01b81526514185d5cd95960521b631d18955160e21b0160048201526080602482015291602091839182908190611db690608483019061159a565b5f6044830152630101000160d81b606483015203915afa9081156102af575f91611d37575090565b6001600160a01b03611dee61238d565b16308103611e005750611cbd906131ee565b604051638c364d5960e01b81526f5573657244656c65676174696f6e436f661d189ddbdc9b1960ca1b0160048201526080602482015291602091839182908190611d0f90608483019061159a565b6001600160a01b03611e5e61238d565b16308103611e705750611cbd9061325a565b604051638c364d5960e01b81526f456e636f756e746572456e7469747900631d18955160e21b0160048201526080602482015291602091839182908190611ebb90608483019061159a565b5f60448301526502081809000960cd1b606483015203915afa9081156102af575f91611d37575090565b6001600160a01b03611ef561238d565b16308103611f07575061087090612601565b604051638c364d5960e01b815264537461747360581b631d18955160e21b0160048201526080602482015291602091839182908190611f4a90608483019061159a565b600560448301526fe60d002020012020202020010101010160781b606483015203915afa9081156102af575f91611d37575090565b6001600160a01b03611f8f61238d565b16308103611fb25750611fa4610870916132c3565b611fac61345a565b906134dc565b604051638c364d5960e01b815264537461747360581b631d18955160e21b0160048201526080602482015291602091839182908190611ff590608483019061159a565b600460448301526fe60d002020012020202020010101010160781b606483015203915afa9081156102af575f91611d37575090565b6001600160a01b0361203a61238d565b1630810361204c57506108709061267f565b604051638c364d5960e01b81526f43686172616374657245717569706d65631d18955160e21b016004820152608060248201529160209183918290819061209790608483019061159a565b6003604483015267050028290101010160bd1b606483015203915afa9081156102af575f91611d37575090565b6001600160a01b036120d461238d565b163081036120e65750611cbd90613324565b604051638c364d5960e01b81526f5265736f757263654163636573730000661d189ddbdc9b1960ca1b0160048201526080602482015291602091839182908190611db690608483019061159a565b604051906101c082016001600160401b038111838210176106d657604052815f81525f60208201525f60408201526101a06060915f838201525f60808201525f60a08201525f60c08201525f60e08201525f610100820152826101208201528261014082015282610160820152826101808201520152565b906020828203126100e85781516001600160401b0381116100e85761087092016108d3565b906121db82610754565b6121e86040519182610711565b82815280926121f9601f1991610754565b0190602036910137565b61107f9161224e8151602083015160408401516060850151608086015161222d60a0880151151590565b9161223b60c0890151151590565b9360e0890151956101008a015197612a64565b6122ba61012083015192610140810151906101608101516101a0610180830151920151926122b4848484848b93929193519051935191519251938460d81b948460b01b948460881b948360651b9480603d1b9460051b9060051b01010101171717171790565b96612ac7565b926122c3611214565b906122cd82610c4d565b525f6122d882610c5f565b525f6122e382610c6f565b52612b71565b80516020820180516001600160e01b031994939285918281169160048110612377575b505090506123186111df565b805115610c5a578561232f9216602082015261253e565b50509060406020830151920151821561235c5781516001600160e01b031617905291925061087091612c68565b604051637eef2a7160e11b81525f3587166004820152602490fd5b8391925060040360031b1b161684905f8061230c565b7f629a4c26e296b22a8e0856e9f6ecb2d1008d7e00081111962cd175fa7488e175546001600160a01b03168061087057503390565b906123da60209194939460408452604084019061110e565b6001600160a01b03909416910152565b81601f820112156100e857805161240081610a1f565b9261240e6040519485610711565b818452602082840101116100e85761087091602080850191016110ed565b90916060828403126100e85781516001600160401b0392908381116100e857846124579183016123ea565b9360208201519360408301519081116100e85761087092016123ea565b6001600160a01b0361248461238d565b1630810361249d575061249690612f1c565b9192909190565b60405163419b58fd60e01b815264537461747360581b631d18955160e21b0160048201526060602482015292915f918491829081906124e090606483019061159a565b6fe60d002020012020202020010101010160781b604483015203915afa9081156102af575f80935f93612514575b50929190565b9193505061253491503d805f833e61252c8183610711565b81019061242c565b929092915f61250e565b6001600160a01b0361254e61238d565b16308103612560575061249690612f79565b60405163419b58fd60e01b81526f46756e6374696f6e53656c6563746f72661d189ddbdc9b1960ca1b0160048201526060602482015292915f918491829081906125ae90606483019061159a565b64090080080160d21b604483015203915afa9081156102af575f80935f936125145750929190565b600a8210156119565752565b6004111561195657565b6125f5826125e2565b52565b6125f58261194c565b6040805164537461747360581b631d18955160e21b01602080830191825284519383019594919391810191905f5b82811061266b575050505061265181610870949503601f198101835282610711565b5190205f80516020613cdf83398151915218611fac61349b565b83518852968101969281019260010161262f565b60405160208160208101936f43686172616374657245717569706d65631d18955160e21b0185526040820160208251919201935f5b82811061272b575050506126d1925003601f198101835282610711565b5190205f91905f80516020613cdf83398151915218825b60038085101561271e5767050028290101010160bd1b601b86900390911b1c60ff168101908110610b7e576001909301926126e8565b50906108709293506134dc565b8551845294810194869450928101926001016126b4565b91909165ffffffffffff61275461349b565b1661275e82613390565b612766613769565b905f5b825181101561280e5761279d6127906127828386610c7f565b516001600160581b03191690565b6001600160581b03191690565b9060049182808260581c16146127b9575b506001915001612769565b60601c803b156100e857855f9188838c966127e86040519889968795869463964f667d60e01b86528501613576565b03925af19182156102af57600192156127ae57806102a3612808926106c3565b5f6127ae565b50604080519096939291612857918591859164537461747360581b631d18955160e21b01905f80516020613cbf833981519152908061284f87878e84613545565b0390a26138dc565b5f5b81518110156128e4576128726127906127828385610c7f565b6008808260581c1614612889575b50600101612859565b60601c90813b156100e857875163a8ba872160e01b8152915f9083908183816128b78b8b8e60048501613576565b03925af19182156102af576001926128d1575b5090612880565b806102a36128de926106c3565b5f6128ca565b50505050509050565b91906128f8836133f1565b91612901613833565b905f5b825181101561298d5761291d6127906127828386610c7f565b9060049182808260581c1614612939575b506001915001612904565b60601c803b156100e857855f918983612967966040519788958694859363964f667d60e01b855284016135c1565b03925af19182156102af576001921561292e57806102a3612987926106c3565b5f61292e565b509291906129d8826040946040515f80516020613cbf8339815191526f436f6d626174456e636f756e74657200631d18955160e21b0191806129d0868d8361351a565b0390a261388f565b5f5b8151811015610e80576129f36127906127828385610c7f565b6008808260581c1614612a0a575b506001016129da565b60601c90813b156100e857845163a8ba872160e01b8152915f908390818381612a378a8e600484016135c1565b03925af19182156102af57600192612a51575b5090612a01565b806102a3612a5e926106c3565b5f612a4a565b97969594939291906040519860208a015260408901526060880152608087015260a0860152151560f81b60c0850152151560f81b60c184015260c283015260e282015260e28152610120810181811060018060401b038211176106d65760405290565b93612afc612af6612af0612aea612ae461087098999796976138ed565b966138ed565b94613947565b96613947565b91613947565b90604051958693602095612b188151809289808a0191016110ed565b8501612b2c825180938980850191016110ed565b01612b3f825180938880850191016110ed565b01612b52825180938780850191016110ed565b01612b65825180938680850191016110ed565b01038084520182610711565b909291906001600160a01b03612b8561238d565b16308103612b9857509261107f9361360c565b909192813b156100e8575f612c0793612c1b8296612bf494604051998a988997889663298314fb60e01b88526f416374696f6e4f7574636f6d65000000631bdd155160e21b01600489015260a0602489015260a488019061159a565b600319928388830301604489015261110e565b92606486015284830301608485015261110e565b03925af180156102af576113975750565b906020828203126100e85781516001600160401b0381116100e85761087092016123ea565b60409061087093928152816020820152019061110e565b906001600160a01b03612c7961238d565b16803014612cd657905f91612ca5938360405180968195829463075cf5e160e31b845260048401612c51565b03925af19081156102af575f91612cba575090565b61087091503d805f833e612cce8183610711565b810190612c2c565b50612cdf610ec1565b91612ce86111df565b805115610c5a5780826020612cfe930152612e75565b5050906034602083015160601c92015160f81c8215612d6f5715612d60575b60101b6001600160901b031916612d4657612d3792613a33565b905b15612d415790565b6136c5565b90612d5491612d5a93613a0e565b90151591565b90612d39565b612d6a84826139a2565b612d1d565b50612d7981612db8565b604051637df8867360e11b8152918291610ead9160048401612c51565b60405190612da3826106f6565b60068252651e3937b7ba1f60d11b6020830152565b608081901b6001600160801b0319169061087090602490601081901b6001600160901b03191680612e665750612dec612d96565b935b80612e585750612dfc612d96565b60405194859261ffff60f01b166020840152601d60f91b90816022850152612e2e8151809260206023880191016110ed565b8301906023820152612e4982518093602087850191016110ed565b01036004810184520182610711565b612e619061370b565b612dfc565b612e6f9061370b565b93612dee565b5f906060906040519060209082612e90602082019283613075565b0392612ea4601f1994858101835282610711565b5190205f80516020613cdf833981519152189160405192816054850116604052601584526020840192601591925b81831015612f0457505080612ee8575b50505092565b5f199060031b1c908183511691199054161790525f8080612ee2565b81600185839495979654875201940194019190612ed2565b5f90612f29606091613390565b60405190602090601f19908161012585011660405260e68452602084019260e691925b81831015612f6157505080612ee85750505092565b81600185839495979654875201940194019190612f4c565b5f906060906040519060209082612f946020820192836130bd565b0392612fa8601f1994858101835282610711565b5190205f80516020613cdf833981519152189160405192816063850116604052602484526020840192602491925b81831015612feb57505080612ee85750505092565b81600185839495979654875201940194019190612fd6565b60ff166108708161194c565b60ff16610870816125e2565b60ff16600a8110156119565790565b6953746f7265486f6f6b7360301b66746273746f726560c81b01815281516020918201928201915f5b828110613061575050505090565b835185529381019392810192600101613053565b6653797374656d7360481b661d189ddbdc9b1960ca1b01815281516020918201928201915f5b8281106130a9575050505090565b83518552938101939281019260010161309b565b6f46756e6374696f6e53656c6563746f72661d189ddbdc9b1960ca1b01815281516020918201928201915f5b8281106130f7575050505090565b8351855293810193928101926001016130e9565b60405160208160208101936f53797374656d52656769737472790000661d189ddbdc9b1960ca1b0185526040820160208251919201935f5b82811061317557505050613160925003601f198101835282610711565b5190205f80516020613cdf8339815191521890565b855184529481019486945092810192600101613143565b60405160208160208101936514185d5cd95960521b631d18955160e21b0185526040820160208251919201935f5b8281106131d757505050613160925003601f198101835282610711565b8551845294810194869450928101926001016131ba565b60405160208160208101936f5573657244656c65676174696f6e436f661d189ddbdc9b1960ca1b0185526040820160208251919201935f5b82811061324357505050613160925003601f198101835282610711565b855184529481019486945092810192600101613226565b60405160208160208101936f456e636f756e746572456e7469747900631d18955160e21b0185526040820160208251919201935f5b8281106132ac57505050613160925003601f198101835282610711565b85518452948101948694509281019260010161328f565b604051602081602081019364537461747360581b631d18955160e21b0185526040820160208251919201935f5b82811061330d57505050613160925003601f198101835282610711565b8551845294810194869450928101926001016132f0565b60405160208160208101936f5265736f757263654163636573730000661d189ddbdc9b1960ca1b0185526040820160208251919201935f5b82811061337957505050613160925003601f198101835282610711565b85518452948101948694509281019260010161335c565b604051602081602081019364537461747360581b631d18955160e21b0185526040820160208251919201935f5b8281106133da57505050613160925003601f198101835282610711565b8551845294810194869450928101926001016133bd565b60405160208160208101936f436f6d626174456e636f756e74657200631d18955160e21b0185526040820160208251919201935f5b82811061344357505050613160925003601f198101835282610711565b855184529481019486945092810192600101613426565b5f805b60048110613469575090565b9060ff6fe60d002020012020202020010101010160781b83601b0360031b1c168101809111610b7e579060010161345d565b5f805b600581106134aa575090565b9060ff6fe60d002020012020202020010101010160781b83601b0360031b1c168101809111610b7e579060010161349e565b602082101561350c575b80548260031b1b9160200390816020116134ff57505090565b600101549060031b1c1790565b601f82169160051c016134e6565b90916135316108709360608452606084019061159a565b915f6020820152604081840391015261110e565b65ffffffffffff613562610870959360608452606084019061159a565b93166020820152604081840391015261110e565b64537461747360581b631d18955160e21b018152608060208201819052610870949265ffffffffffff916135ad919084019061159a565b93166040820152606081840391015261110e565b6f436f6d626174456e636f756e74657200631d18955160e21b0181526080602082018190526108709391926135f89184019061159a565b915f6040820152606081840391015261110e565b60408051655461626c657360501b66746273746f726560c81b0160208201526f416374696f6e4f7574636f6d65000000631bdd155160e21b0181830181905291815290947f8dbb3a9672eebfd3773e72dd9c102393436816d832c7ba9e1e1ac8fcadcac7a99461369f946136c0939192916136ad919061368b906106db565b60405196879660808852608088019061159a565b90868203602088015261110e565b916040850152838203606085015261110e565b0390a2565b602081519101fd5b6136d56111f9565b90815115610c5a576020820152805160011015610c5a576001600160a01b039091166040820152613705906120c4565b60f81c90565b5f5b6010811061373c575b6040516001600160801b0319909216602083015260108252613737826106f6565b815290565b6001600160801b03198216600382901b1b6001600160f81b031916156137645760010161370d565b613716565b6137716111df565b805115610c5a5761381c6108709164537461747360581b631d18955160e21b01602082015264ffffffffff604051915f80516020613cff83398151915260208401846137bd848361302a565b03946137d1601f1996878101835282610711565b51902018926137ec6040519182611a1960208201958661302a565b5190207f14e2fcc58e58e68ec7edc30c8d50dccc3ce2714a623ec81f46b6a63922d76569185460381c1690613a53565b602060018060801b03825116910160801b17613abb565b61383b6111df565b805115610c5a5761381c610870916f436f6d626174456e636f756e74657200631d18955160e21b01602082015264ffffffffff604051915f80516020613cff83398151915260208401846137bd848361302a565b81519060208093019190925b808210156138c45750806138ae57505050565b5f199060031b1c90818354169119905116179055565b6001839482939451815501930191601f19019061389b565b825161107f93602001929091613b0d565b9081518060051b60209180820460201481151715610b7e5790604051946020860191601f19603f8289010116604052865260205f9101905b838110613933575050505050565b815183529184019190840190600101613925565b9081519160019083800460011484151715610b7e5760408051808601603f01601f191690915284815293906020908186019082015f5b84811061398c57505050505050565b815160f81b83529185019190830190850161397d565b6139bf82600160801b600160f01b038316616e7360f01b17613bf5565b80156139cf575b15610e88575050565b506139da8282613bf5565b6139c6565b3d15613a09573d906139f082610a1f565b916139fe6040519384610711565b82523d5f602084013e565b606090565b90613a1c5f93928493613bad565b9082602083519301915af1613a2f6139df565b9091565b90613a415f93928493613bad565b90602082519201905af4613a2f6139df565b60408051601f19603f85830101811690925283815292602080850193925b81831015613aa357505080613a87575b50505090565b5f199060031b1c908183511691199054161790525f8080613a81565b81600185839495979654875201940194019190613a71565b8060801c906015809160018060801b031604604051926020906020850160208460051b8701016040528386525f5b848110613af95750505050505090565b825182529185019190830190600101613ae9565b909392919380613b4c575b509290925b602090818310613b3d5784518155930192601f1990910190600101613b1d565b9293919050806138ae57505050565b6020811015613b9d575b8015613b185791939082602003908360031b5f198460031b1c19811c908751901c908019835416911617815581831115610e8057600101940191601f19910101925f613b18565b90601f908260051c019116613b56565b6054610870916040519381613bcc8693518092602080870191016110ed565b82019060018060601b03199060601b1660208201525f6034820152036034810184520182610711565b613bfd6111f9565b90815115610c5a576020926020830191825282519060019160011015610c5a576001600160a01b031660408085019190915280516f5265736f757263654163636573730000661d189ddbdc9b1960ca1b0160208201908152945194959094918501939291905f5b828110613cab5750505050509181613c8b613705936108709503601f198101835282610711565b5190205f80516020613cdf83398151915218546001600160f81b03191690565b8451865294810194938101938301613c6456fe8c0b5119d4cec7b284c6b1b39252a03d1e2f2d7451a5895562524c113bb952be86425bff6b57326c7859e89024fe4f238ca327a1ae4a230180dd2f0e88aaa7d93b4102da22e32d82fc925482184f16c09fd4281692720b87d124aef6da48a0f1","linkReferences":{}},"methodIdentifiers":{"_msgSender()":"119df25f","_msgValue()":"45ec9354","_world()":"e1af802c","executeWorldRngActions(uint256,bytes32,(bytes32,bytes32,uint256)[])":"e3883cbc","rest(bytes32)":"af202932","supportsInterface(bytes4)":"01ffc9a7","useCombatConsumableItem(bytes32,uint256)":"22cb21c0","useWorldConsumableItem(bytes32,bytes32,uint256)":"dc6e8eb7"},"id":374}