{"abi":[{"type":"function","name":"_msgSender","inputs":[],"outputs":[{"name":"sender","type":"address","internalType":"address"}],"stateMutability":"view"},{"type":"function","name":"_msgValue","inputs":[],"outputs":[{"name":"value","type":"uint256","internalType":"uint256"}],"stateMutability":"view"},{"type":"function","name":"_world","inputs":[],"outputs":[{"name":"","type":"address","internalType":"address"}],"stateMutability":"view"},{"type":"function","name":"buy","inputs":[{"name":"amount","type":"uint256","internalType":"uint256"},{"name":"shopId","type":"bytes32","internalType":"bytes32"},{"name":"itemIndex","type":"uint256","internalType":"uint256"},{"name":"characterId","type":"bytes32","internalType":"bytes32"}],"outputs":[],"stateMutability":"nonpayable"},{"type":"function","name":"canRestock","inputs":[{"name":"shopId","type":"bytes32","internalType":"bytes32"}],"outputs":[{"name":"","type":"bool","internalType":"bool"}],"stateMutability":"view"},{"type":"function","name":"endShopEncounter","inputs":[{"name":"encounterId","type":"bytes32","internalType":"bytes32"}],"outputs":[],"stateMutability":"nonpayable"},{"type":"function","name":"isShop","inputs":[{"name":"shopId","type":"bytes32","internalType":"bytes32"}],"outputs":[{"name":"","type":"bool","internalType":"bool"}],"stateMutability":"view"},{"type":"function","name":"itemBase","inputs":[{"name":"itemId","type":"uint256","internalType":"uint256"}],"outputs":[{"name":"","type":"uint256","internalType":"uint256"}],"stateMutability":"view"},{"type":"function","name":"itemMarkdown","inputs":[{"name":"shopId","type":"bytes32","internalType":"bytes32"},{"name":"itemId","type":"uint256","internalType":"uint256"}],"outputs":[{"name":"","type":"uint256","internalType":"uint256"}],"stateMutability":"view"},{"type":"function","name":"itemMarkup","inputs":[{"name":"shopId","type":"bytes32","internalType":"bytes32"},{"name":"itemId","type":"uint256","internalType":"uint256"}],"outputs":[{"name":"","type":"uint256","internalType":"uint256"}],"stateMutability":"view"},{"type":"function","name":"itemStock","inputs":[{"name":"shopId","type":"bytes32","internalType":"bytes32"},{"name":"itemIndex","type":"uint256","internalType":"uint256"}],"outputs":[{"name":"","type":"uint256","internalType":"uint256"}],"stateMutability":"view"},{"type":"function","name":"restock","inputs":[{"name":"shopId","type":"bytes32","internalType":"bytes32"}],"outputs":[{"name":"","type":"bool","internalType":"bool"}],"stateMutability":"nonpayable"},{"type":"function","name":"sell","inputs":[{"name":"amount","type":"uint256","internalType":"uint256"},{"name":"shopId","type":"bytes32","internalType":"bytes32"},{"name":"itemIndex","type":"uint256","internalType":"uint256"},{"name":"characterId","type":"bytes32","internalType":"bytes32"}],"outputs":[],"stateMutability":"nonpayable"},{"type":"function","name":"sellAny","inputs":[{"name":"amount","type":"uint256","internalType":"uint256"},{"name":"shopId","type":"bytes32","internalType":"bytes32"},{"name":"itemId","type":"uint256","internalType":"uint256"},{"name":"characterId","type":"bytes32","internalType":"bytes32"}],"outputs":[],"stateMutability":"nonpayable"},{"type":"function","name":"shopSystemAddress","inputs":[],"outputs":[{"name":"","type":"address","internalType":"address"}],"stateMutability":"view"},{"type":"function","name":"supportsInterface","inputs":[{"name":"interfaceId","type":"bytes4","internalType":"bytes4"}],"outputs":[{"name":"","type":"bool","internalType":"bool"}],"stateMutability":"pure"},{"type":"event","name":"Store_SetRecord","inputs":[{"name":"tableId","type":"bytes32","indexed":true,"internalType":"ResourceId"},{"name":"keyTuple","type":"bytes32[]","indexed":false,"internalType":"bytes32[]"},{"name":"staticData","type":"bytes","indexed":false,"internalType":"bytes"},{"name":"encodedLengths","type":"bytes32","indexed":false,"internalType":"EncodedLengths"},{"name":"dynamicData","type":"bytes","indexed":false,"internalType":"bytes"}],"anonymous":false},{"type":"event","name":"Store_SpliceDynamicData","inputs":[{"name":"tableId","type":"bytes32","indexed":true,"internalType":"ResourceId"},{"name":"keyTuple","type":"bytes32[]","indexed":false,"internalType":"bytes32[]"},{"name":"dynamicFieldIndex","type":"uint8","indexed":false,"internalType":"uint8"},{"name":"start","type":"uint48","indexed":false,"internalType":"uint48"},{"name":"deleteCount","type":"uint40","indexed":false,"internalType":"uint40"},{"name":"encodedLengths","type":"bytes32","indexed":false,"internalType":"EncodedLengths"},{"name":"data","type":"bytes","indexed":false,"internalType":"bytes"}],"anonymous":false},{"type":"event","name":"Store_SpliceStaticData","inputs":[{"name":"tableId","type":"bytes32","indexed":true,"internalType":"ResourceId"},{"name":"keyTuple","type":"bytes32[]","indexed":false,"internalType":"bytes32[]"},{"name":"start","type":"uint48","indexed":false,"internalType":"uint48"},{"name":"data","type":"bytes","indexed":false,"internalType":"bytes"}],"anonymous":false},{"type":"error","name":"EncodedLengths_InvalidLength","inputs":[{"name":"length","type":"uint256","internalType":"uint256"}]},{"type":"error","name":"GamePaused","inputs":[]},{"type":"error","name":"InsufficientItemBalance","inputs":[]},{"type":"error","name":"InvalidEncounter","inputs":[]},{"type":"error","name":"InvalidShopEncounter","inputs":[]},{"type":"error","name":"NotAtShopPosition","inputs":[]},{"type":"error","name":"NotOwnShopEncounter","inputs":[]},{"type":"error","name":"OutOfStock","inputs":[]},{"type":"error","name":"ReentrancyGuardReentrantCall","inputs":[]},{"type":"error","name":"ShopInsufficientGold","inputs":[]},{"type":"error","name":"Slice_OutOfBounds","inputs":[{"name":"data","type":"bytes","internalType":"bytes"},{"name":"start","type":"uint256","internalType":"uint256"},{"name":"end","type":"uint256","internalType":"uint256"}]},{"type":"error","name":"Store_IndexOutOfBounds","inputs":[{"name":"length","type":"uint256","internalType":"uint256"},{"name":"accessedIndex","type":"uint256","internalType":"uint256"}]},{"type":"error","name":"Store_InvalidResourceType","inputs":[{"name":"expected","type":"bytes2","internalType":"bytes2"},{"name":"resourceId","type":"bytes32","internalType":"ResourceId"},{"name":"resourceIdString","type":"string","internalType":"string"}]},{"type":"error","name":"Store_InvalidSplice","inputs":[{"name":"startWithinField","type":"uint40","internalType":"uint40"},{"name":"deleteCount","type":"uint40","internalType":"uint40"},{"name":"fieldLength","type":"uint40","internalType":"uint40"}]},{"type":"error","name":"Unauthorized","inputs":[]},{"type":"error","name":"World_AccessDenied","inputs":[{"name":"resource","type":"string","internalType":"string"},{"name":"caller","type":"address","internalType":"address"}]},{"type":"error","name":"World_FunctionSelectorNotFound","inputs":[{"name":"functionSelector","type":"bytes4","internalType":"bytes4"}]},{"type":"error","name":"World_ResourceNotFound","inputs":[{"name":"resourceId","type":"bytes32","internalType":"ResourceId"},{"name":"resourceIdString","type":"string","internalType":"string"}]}],"bytecode":{"object":"0x6080806040523461001b5760015f55615a619081620000208239f35b5f80fdfe60806040526004361015610011575f80fd5b5f3560e01c806301ffc9a71461011457806308f483cb1461010f578063119df25f1461010a5780631cb2b85f1461010557806345ec9354146101005780634ec9c8e3146100fb5780635dcbb50b146100f65780637246e48c146100f157806373a95569146100ec5780639238e994146100e7578063b702f92b146100e2578063c9ad107c146100dd578063d8fa95d7146100d8578063da0996cd146100d3578063e1af802c146100ce5763f479b6ea146100c9575f80fd5b6107bb565b6107a1565b610780565b610762565b610744565b6105b3565b610581565b61041b565b6103f2565b610324565b61030a565b6102eb565b6102c3565b610297565b61018c565b3461016a57602036600319011261016a5760043563ffffffff60e01b811680910361016a5760209063b5dee12760e01b8114908115610159575b506040519015158152f35b6301ffc9a760e01b1490505f61014e565b5f80fd5b608090600319011261016a5760043590602435906044359060643590565b3461016a5761019a3661016e565b91906101a4610c42565b6101ac610c63565b6101b68284610cf6565b6101c96101c38284610a11565b8561093a565b92836101d484610f79565b1061027b576101f46101ee856101e986610f79565b610952565b84610f96565b6101fc6112a7565b9461020561235f565b61020f848861107b565b828110610269576102308361023661025e9a88610230610245988297610952565b916110b1565b610240838561107b565b61095f565b610257846102528361118a565b6111ad565b4292611227565b61026760015f55565b005b6040516316a8a70960e01b8152600490fd5b604051634a675dad60e01b8152600490fd5b5f91031261016a57565b3461016a575f36600319011261016a5760206102b16112a7565b6040516001600160a01b039091168152f35b3461016a57602036600319011261016a5760206102e160043561096c565b6040519015158152f35b3461016a575f36600319011261016a576020604051601f193601358152f35b3461016a575f36600319011261016a576020604051308152f35b3461016a57602036600319011261016a5761033d61139d565b50610346610f29565b8051156103ed5760a06103a96103666103de936004356020820152612840565b6103729391929361139d565b9260208501516040860151606087015188608089015198015197602088019860808901526060880152604087015286528452613c03565b95929391908661010084015260e083015260c0820152015251151590816103e2575b5060405190151581529081906020820190565b0390f35b90505115155f6103cb565b610b05565b3461016a57604036600319011261016a576020610413602435600435610a11565b604051908152f35b3461016a57602036600319011261016a57600435610437610c63565b610440816113f1565b61045061044c8261140e565b1590565b801561054e575b61053c5761046c61046783611441565b61145e565b61ffff600981841614908161052f575b506104d6575b50505061048e81611559565b60608101918251158015906104ca575b6104b857610267924290526104b382516115b4565b61167b565b60405163d8deb7b560e01b8152600490fd5b5060408201511561049e565b604051633f96047360e01b602082015260248101939093526002604484015261ffff9182166064840152166084820152610526906105218160a481015b03601f198101835282610ae2565b611491565b505f8080610482565b600991508216145f61047c565b604051633c6b984160e11b8152600490fd5b506105588161118a565b61056f6105636112a7565b6001600160a01b031690565b6001600160a01b039091161415610457565b3461016a57604036600319011261016a5760206105aa6024356105a560043561177e565b610b49565b51604051908152f35b3461016a576105c13661016e565b6105cc929192610c42565b6105d4610c63565b6105de8282610cf6565b6105e7826117a2565b6105f08361177e565b856105fb8683610b49565b51106107325780610619876106138861062a95610b49565b51610952565b6106238783610b49565b5284611329565b61064761064161063a8684610b49565b5185610bda565b8661093a565b9361065e6106588661024087610f79565b85610f96565b6106a061066961235f565b6106936106746112a7565b61068d89610681836117f3565b6101e982821015610b5d565b906118bb565b61068d87610240836117f3565b6106ae610563610563612bde565b956106b98284610b49565b5190873b1561016a576040516366ce565160e11b81526004810186905260248101929092526044820152955f908790606490829084905af191821561072d5761025e9661070b93610714575b50610b49565b51904292611283565b8061072161072792610a5e565b8061028d565b5f610705565b610b9d565b60405163ade1cb4160e01b8152600490fd5b3461016a57602036600319011261016a5760206102e1600435610ba8565b3461016a57602036600319011261016a57602061041360043561190e565b3461016a57604036600319011261016a576020610413602435600435610bda565b3461016a575f36600319011261016a5760206102b1612bde565b3461016a576107c93661016e565b91906107d3610c42565b6107db610c63565b6107e58284610cf6565b6107ed610c1e565b936107f78361177e565b85526108028361192b565b916020860192835261081384610f79565b61083161082b610824848751610b49565b5187610a11565b8461093a565b1161027b5761084b82610845838951610b49565b5161095f565b610856828851610b49565b52610862865185611329565b61088061087a610873838651610b49565b5186610a11565b8361093a565b92606087019384526108a561089f61089787610f79565b865190610952565b86610f96565b60406108b08661192b565b97019687526108bd6112a7565b966108d1836108ca61235f565b9251610b49565b51906108dd828a61107b565b91858310610269576102308661023661025e9c8461023061091b9b61090199610952565b61091561090d8761118a565b8551906111ad565b51610b49565b519051924292611227565b634e487b7160e01b5f52601160045260245ffd5b8181029291811591840414171561094d57565b610926565b9190820391821161094d57565b9190820180921161094d57565b610974610c63565b61097d81610ba8565b61098657505f90565b61098f816112be565b42039042821161094d5761a8c080920642039142831161094d57820180921161094d576109ba610f29565b8051156103ed57610a0c92818360206109ea940152604051916020830152602082526109e582610a91565b6122d5565b6109f3816112db565b90610a07610a008261130c565b9282611329565b610f96565b600190565b90610a1b9061190e565b610a23610f29565b908151156103ed57610a4082612710946020610a469501526119ae565b9061093a565b0490565b634e487b7160e01b5f52604160045260245ffd5b6001600160401b038111610a7157604052565b610a4a565b608081019081106001600160401b03821117610a7157604052565b604081019081106001600160401b03821117610a7157604052565b606081019081106001600160401b03821117610a7157604052565b60a081019081106001600160401b03821117610a7157604052565b601f909101601f19168101906001600160401b03821190821017610a7157604052565b634e487b7160e01b5f52603260045260245ffd5b8051600110156103ed5760400190565b8051600210156103ed5760600190565b8051600310156103ed5760800190565b80518210156103ed5760209160051b010190565b15610b6457565b60405162461bcd60e51b8152602060048201526011602482015270125b9cdd59999a58da595b9d0819dbdb19607a1b6044820152606490fd5b6040513d5f823e3d90fd5b90610bb35f926112be565b428111610bd457420342811161094d5761a8c01115610bce57565b60019150565b505f9150565b610bec610be68361190e565b9261190e565b610bf4610f29565b908151156103ed57610a4082612710946020610c11950152611a65565b04810180911161094d5790565b60405190610c2b82610a76565b5f6060838181528160208201528160408201520152565b60025f5414610c515760025f55565b604051633ee5aeb560e01b8152600490fd5b60405160208101906001600160401b03821181831017610a7157610c90916040525f81525f368137611af3565b60f81c610c9957565b60405163379a7ed960e01b8152600490fd5b9081602091031261016a5751801515810361016a5790565b519061ffff8216820361016a57565b919082604091031261016a57610cf36020610cec84610cc3565b9301610cc3565b90565b90610d008261194f565b82610d0a82611559565b9115918215610f1c575b8215610f0e575b8215610eff575b8215610ef3575b5050610ee157610d8290610d41610563610563612bde565b92610d4a6112a7565b6040805163087bdec760e31b8152600481018490526001600160a01b0390921660248301529460209485918391829081906044820190565b03915afa90811561072d575f91610ec4575b5015610eb45783610dcc91610dad610563610563612bde565b82518080958194638b4ce3e560e01b8352600483019190602083019252565b03915afa801561072d57610e299284925f905f93610e82575b50610df4610563610563612bde565b8751637a451cb960e11b8152600481019390935261ffff91821660248401529216604482015292839190829081906064820190565b03915afa91821561072d575f92610e55575b505015610e455750565b51639d026e7f60e01b8152600490fd5b610e749250803d10610e7b575b610e6c8183610ae2565b810190610cab565b5f80610e3b565b503d610e62565b9050610ea5919250863d8811610ead575b610e9d8183610ae2565b810190610cd2565b91905f610de5565b503d610e93565b83516282b42960e81b8152600490fd5b610edb9150843d8611610e7b57610e6c8183610ae2565b5f610d94565b604051636bbd023760e01b8152600490fd5b5114159050825f610d29565b60208101518414159250610d22565b606081015115159250610d1b565b6040810151159250610d14565b60405190610f3682610a91565b6001825260203681840137565b60405190610f5082610aac565b600282526040366020840137565b60405190610f6b82610ac7565b600482526080366020840137565b610f81610f29565b8051156103ed57610cf3916020820152611b85565b90610f9f610f29565b918251156103ed57602083015260405190602082015260208152610fc281610a91565b6001600160a01b03610fd2612bde565b1691308303610fe757610fe5925061463c565b565b90823b1561016a576040516301c85d5760e51b81525f80516020615a41833981519152600482015260a06024820152925f92849283918591839161104c91906110349060a485019061197b565b908460448501526003198483030160648501526122b0565b67050028210101010160bd1b608483015203925af1801561072d5761106e5750565b80610721610fe592610a5e565b611083610f43565b908151156103ed576001600160a01b031660208201528051600110156103ed57610cf3916040820152611c9b565b9190916110bc610f43565b805190936001600160a01b03929091156103ed57821660208501528351600110156103ed576040840152604051916020830152602082526110fc82610a91565b611104612bde565b169130830361111757610fe59250614912565b90823b1561016a576040516301c85d5760e51b8152654f776e65727360501b6674624974656d7360c81b01600482015260a06024820152925f92849283918591839161116c91906110349060a485019061197b565b630100080160dd1b608483015203925af1801561072d5761106e5750565b611192610f29565b8051156103ed576111a7916020820152611d26565b60601c90565b906111b6610f29565b8051156103ed576f4c6f6f744d616e616765725379737465631cde555160e21b0160208201526111e5906121bf565b60601c6111f1816117cb565b82811061027b5782810390811161094d5761120b9161181b565b611214826117cb565b90810180911161094d57610fe59161181b565b93929091604051935f602086015260218501526021845261124784610aac565b61124f610f5e565b928351156103ed57610fe595602085015261126984610b19565b5261127383610b29565b5261127d82610b39565b52612396565b9392909160405193600160f81b602086015260218501526021845261124784610aac565b36603319013560601c9081156112b957565b339150565b6112c6610f29565b8051156103ed57610cf3916020820152611dbc565b6112e3610f29565b8051156103ed576112ff81610cf3936020611307940152612495565b8051906126a0565b6135fb565b611314610f29565b8051156103ed57610cf3916020820152611e5b565b9190611333610f29565b8051156103ed576020938482015281518060051b9080820486148115171561094d57906040519386850191601f19603f82880101166040528552865f9101905b8381106113895750505050610fe592935061276e565b815183529187019190870190600101611373565b6040519061012082016001600160401b03811183821017610a71576040526060610100835f81525f60208201525f60408201525f838201525f60808201528260a08201528260c08201528260e08201520152565b6113f9610f29565b8051156103ed57610cf3916020820152611ee9565b611416610f29565b908151156103ed576001600160601b038116602083015260601c9061143a90611f75565b60601c1490565b611449610f29565b8051156103ed57610cf391602082015261200a565b611466610f29565b8051156103ed5761147b9160208201526128fe565b5050906022602083015160f01c92015160f01c90565b80516020820180516001600160e01b03199493928591828116916004811061151f575b505090506114c0610f29565b8051156103ed57856114d79216602082015261298e565b5050906040602083015192015182156115045781516001600160e01b0316179052919250610cf391612ac8565b604051637eef2a7160e11b81525f3587166004820152602490fd5b8391925060040360031b1b161684905f806114b4565b6040519061154282610a76565b5f6060838281528260208201528260408201520152565b611561611535565b5061156a610f29565b8051156103ed5761157f916020820152612a26565b5050611589611535565b9060208101519060408101519060806060820151910151606085015260408401526020830152815290565b6115bc610f29565b908151156103ed5760208201526040515f6020820152602081526115df81610a91565b6001600160a01b036115ef612bde565b169130830361160257610fe59250612f28565b90823b1561016a576040516301c85d5760e51b81526f456e636f756e746572456e7469747900631d18955160e21b01600482015260a06024820152925f92849283918591839161165b91906110349060a485019061197b565b6502081809000960cd1b608483015203925af1801561072d5761106e5750565b8151916020810151906060604082015191015191604051946020860152604085015260608401526080830152608082526116b482610ac7565b6116bc610f29565b908151156103ed5760208201526001600160a01b036116d9612bde565b163081036116ec575090610fe59161327e565b90813b1561016a575f91611745836117589361176d6040519788968795869463298314fb60e01b86526f576f726c64456e636f756e7465720000631d18955160e21b01600487015260a0602487015260a486019061197b565b60031992838683030160448701526122b0565b90846064850152838203016084840152612273565b03925af1801561072d5761106e5750565b611786610f29565b8051156103ed576112ff81610cf393602061130794015261252d565b6117aa610f29565b8051156103ed576112ff81610cf39360206117c69401526125a9565b613650565b6117d3610f29565b8051156103ed576001600160a01b039091166020820152610cf390611c12565b6117fb610f29565b8051156103ed576001600160a01b039091166020820152610cf390611d04565b90611824610f29565b805190926001600160a01b0391156103ed57811660208401526040519160208301526020825261185382610a91565b61185b612bde565b169130830361186e57610fe592506147ab565b90823b1561016a576040516301c85d5760e51b81525f805160206159e1833981519152600482015260a06024820152925f92849283918591839161116c91906110349060a485019061197b565b906118c4610f29565b805190926001600160a01b0391156103ed5781166020840152604051916020830152602082526118f382610a91565b6118fb612bde565b169130830361186e57610fe59250614a81565b611916610f29565b8051156103ed57610cf3916020820152612097565b611933610f29565b8051156103ed576112ff81610cf39360206117c6940152612625565b611957610f29565b8051156103ed57610cf3916020820152612128565b9081602091031261016a575190565b9081518082526020808093019301915f5b82811061199a575050505090565b83518552938101939281019260010161198c565b6001600160a01b036119be612bde565b163081036119d05750610cf390612c13565b604051638c364d5960e01b81525f80516020615a4183398151915260048201526080602482015291602091839182908190611a0f90608483019061197b565b6003604483015267050028210101010160bd1b606483015203915afa90811561072d575f91611a3c575090565b610cf3915060203d602011611a5e575b611a568183610ae2565b81019061196c565b503d611a4c565b6001600160a01b03611a75612bde565b16308103611a875750610cf390612c64565b604051638c364d5960e01b81525f80516020615a4183398151915260048201526080602482015291602091839182908190611ac690608483019061197b565b6002604483015267050028210101010160bd1b606483015203915afa90811561072d575f91611a3c575090565b6001600160a01b03611b03612bde565b16308103611b195750611b1590613e4e565b5490565b604051638c364d5960e01b81526514185d5cd95960521b631d18955160e21b0160048201526080602482015291602091839182908190611b5d90608483019061197b565b5f6044830152630101000160d81b606483015203915afa90811561072d575f91611a3c575090565b6001600160a01b03611b95612bde565b16308103611ba75750611b1590613ec5565b604051638c364d5960e01b81525f80516020615a4183398151915260048201526080602482015291602091839182908190611be690608483019061197b565b5f604483015267050028210101010160bd1b606483015203915afa90811561072d575f91611a3c575090565b6001600160a01b03611c22612bde565b16308103611c345750611b15906140dc565b604051638c364d5960e01b81525f805160206159e183398151915260048201526080602482015291602091839182908190611c7390608483019061197b565b5f6044830152630100080160dd1b606483015203915afa90811561072d575f91611a3c575090565b6001600160a01b03611cab612bde565b16308103611cbd5750611b1590614221565b604051638c364d5960e01b8152654f776e65727360501b6674624974656d7360c81b0160048201526080602482015291602091839182908190611c7390608483019061197b565b6001600160a01b03611d14612bde565b16308103611c345750611b1590614286565b6001600160a01b03611d36612bde565b16308103611d485750610cf390612cb0565b604051638c364d5960e01b8152694368617261637465727360301b631d18955160e21b0160048201526080602482015291602091839182908190611d9090608483019061197b565b60016044830152665504022014200160c01b606483015203915afa90811561072d575f91611a3c575090565b6001600160a01b03611dcc612bde565b16308103611def5750611de1610cf391613ec5565b611de961441d565b90614456565b604051638c364d5960e01b81525f80516020615a4183398151915260048201526080602482015291602091839182908190611e2e90608483019061197b565b6004604483015267050028210101010160bd1b606483015203915afa90811561072d575f91611a3c575090565b6001600160a01b03611e6b612bde565b16308103611e7d5750610cf390612d6a565b604051638c364d5960e01b81525f80516020615a4183398151915260048201526080602482015291602091839182908190611ebc90608483019061197b565b6001604483015267050028210101010160bd1b606483015203915afa90811561072d575f91611a3c575090565b6001600160a01b03611ef9612bde565b16308103611f0b5750611b1590613f26565b604051638c364d5960e01b81525f8051602061596183398151915260048201526080602482015291602091839182908190611f4a90608483019061197b565b5f6044830152660400200101010160c51b606483015203915afa90811561072d575f91611a3c575090565b6001600160a01b03611f85612bde565b16308103611f975750611b159061405e565b604051638c364d5960e01b815275746243686172616374657273000000004f776e65727360501b60048201526080602482015291602091839182908190611fe290608483019061197b565b5f6044830152630500400560da1b606483015203915afa90811561072d575f91611a3c575090565b6001600160a01b0361201a612bde565b1630810361202c5750610cf390612db6565b604051638c364d5960e01b81525f805160206159618339815191526004820152608060248201529160209183918290819061206b90608483019061197b565b60016044830152660400200101010160c51b606483015203915afa90811561072d575f91611a3c575090565b6001600160a01b036120a7612bde565b163081036120b95750610cf390612e73565b604051638c364d5960e01b8152644974656d7360581b631d18955160e21b01600482015260806024820152916020918391829081906120fc90608483019061197b565b60026044830152660308200809010160c51b606483015203915afa90811561072d575f91611a3c575090565b6001600160a01b03612138612bde565b1630810361214a5750611b1590613f8f565b604051638c364d5960e01b81526f456e636f756e746572456e7469747900631d18955160e21b016004820152608060248201529160209183918290819061219590608483019061197b565b5f60448301526502081809000960cd1b606483015203915afa90811561072d575f91611a3c575090565b6001600160a01b036121cf612bde565b163081036121e15750611b1590613ff8565b604051638c364d5960e01b81526653797374656d7360481b661d189ddbdc9b1960ca1b016004820152608060248201529160209183918290819061222990608483019061197b565b5f604483015264150200140160d01b606483015203915afa90811561072d575f91611a3c575090565b5f5b8381106122635750505f910152565b8181015183820152602001612254565b90606051918281525f5b83811061229c5750825f602080949584010152601f8019910116010190565b80602091608001518282850101520161227d565b906020916122c981518092818552858086019101612252565b601f01601f1916010190565b906001600160a01b036122e6612bde565b16913083036122f957610fe592506130c2565b90823b1561016a576040516301c85d5760e51b81525f80516020615a41833981519152600482015260a06024820152925f92849283918591839161104c91906123469060a485019061197b565b60046044850152838103600319016064850152906122b0565b612367610f29565b8051156103ed576f4c6f6f744d616e616765725379737465631cde555160e21b0160208201526111a7906121bf565b6001600160a01b036123a6612bde565b163081036123b9575090610fe591613483565b90813b1561016a5760405163298314fb60e01b81526753686f7053616c6560401b631bdd155160e21b01600482015260a06024820152925f928492909183918591839161176d9190611758906117459060a486019061197b565b6001600160401b038111610a7157601f01601f191660200190565b81601f8201121561016a57805161244481612413565b926124526040519485610ae2565b8184526020828401011161016a57610cf39160208085019101612252565b9060208282031261016a5781516001600160401b03811161016a57610cf3920161242e565b6001600160a01b036124a5612bde565b163081036124b75750610cf3906134f0565b604051631e78897760e01b81525f80516020615a41833981519152600482015260606024820152915f918391829081906124f590606483019061197b565b6002604483015203915afa90811561072d575f91612511575090565b610cf391503d805f833e6125258183610ae2565b810190612470565b6001600160a01b0361253d612bde565b1630810361254f5750610cf390613549565b604051631e78897760e01b81525f80516020615a41833981519152600482015260606024820152915f9183918290819061258d90606483019061197b565b6003604483015203915afa90811561072d575f91612511575090565b6001600160a01b036125b9612bde565b163081036125cb5750610cf390613570565b604051631e78897760e01b81525f80516020615a41833981519152600482015260606024820152915f9183918290819061260990606483019061197b565b6001604483015203915afa90811561072d575f91612511575090565b6001600160a01b03612635612bde565b163081036126475750610cf3906135bf565b604051631e78897760e01b81525f80516020615a41833981519152600482015260606024820152915f9183918290819061268590606483019061197b565b85604483015203915afa90811561072d575f91612511575090565b90815181116126bf576001600160801b031660209190910160801b1790565b6040516323230fa360e01b815260606004820152925082916126e59060648401906122b0565b905f602484015260448301520390fd5b8282118015612764575b61272f5790816020828195940101938491011161094d57810390811161094d5760018060801b03169060801b1790565b6040516323230fa360e01b815260606004820152928392916127559060648501906122b0565b91602484015260448301520390fd5b50805183116126ff565b906001600160a01b0361277f612bde565b169130830361279257610fe592506136a5565b90823b1561016a576040516377b7543160e11b81525f80516020615a41833981519152600482015260806024820152925f92849283918591839161176d91906127df90608485019061197b565b60036044850152838103600319016064850152906122b0565b909160608284031261016a5781516001600160401b03929083811161016a578461282391830161242e565b93602082015193604083015190811161016a57610cf3920161242e565b6001600160a01b03612850612bde565b163081036128695750612862906139e4565b9192909190565b60405163419b58fd60e01b81525f80516020615a4183398151915260048201526060602482015292915f918491829081906128a890606483019061197b565b67050028210101010160bd1b604483015203915afa90811561072d575f80935f936128d4575b50929190565b919350506128f491503d805f833e6128ec8183610ae2565b8101906127f8565b929092915f6128ce565b6001600160a01b0361290e612bde565b16308103612920575061286290613a93565b60405163419b58fd60e01b8152672837b9b4ba34b7b760411b631d18955160e21b0160048201526060602482015292915f9184918290819061296690606483019061197b565b64020100010160d11b604483015203915afa90811561072d575f80935f936128d45750929190565b6001600160a01b0361299e612bde565b163081036129b0575061286290613b1d565b60405163419b58fd60e01b81526f46756e6374696f6e53656c6563746f72661d189ddbdc9b1960ca1b0160048201526060602482015292915f918491829081906129fe90606483019061197b565b64090080080160d21b604483015203915afa90811561072d575f80935f936128d45750929190565b6001600160a01b03612a36612bde565b16308103612a48575061286290613ba7565b60405163419b58fd60e01b81525f8051602061596183398151915260048201526060602482015292915f91849182908190612a8790606483019061197b565b660400200101010160c51b604483015203915afa90811561072d575f80935f936128d45750929190565b604090610cf39392815281602082015201906122b0565b906001600160a01b03612ad9612bde565b16803014612b1a57905f91612b05938360405180968195829463075cf5e160e31b845260048401612ab1565b03925af190811561072d575f91612511575090565b50612b236112a7565b91612b2c610f29565b8051156103ed5780826020612b4293015261393d565b5050906034602083015160601c92015160f81c8215612bb35715612ba4575b60101b6001600160901b031916612b8a57612b7b92615096565b905b15612b855790565b613c62565b90612b9891612b9e93615071565b90151591565b90612b7d565b612bae8482614fc2565b612b61565b50612bbd81614f05565b604051637df8867360e11b8152918291612bda9160048401612ab1565b0390fd5b7f629a4c26e296b22a8e0856e9f6ecb2d1008d7e00081111962cd175fa7488e175546001600160a01b031680610cf357503390565b612c1c906140c7565b5f9190825b600380851015612c575767050028210101010160bd1b601b86900390911b1c60ff16810190811061094d57600190930192612c21565b5090610cf3929350614456565b612c6d906140c7565b5f80915b60028310612c8357610cf39250614456565b9060ff67050028210101010160bd1b84601b0360031b1c16810180911161094d5760019092019190612c71565b6040516020816020810193694368617261637465727360301b631d18955160e21b0185526040820160208251919201935f5b828110612d5357505050612cff925003601f198101835282610ae2565b5190205f805160206159a1833981519152185f80915b60018310612d2757610cf39250614494565b9060ff665504022014200160c01b84601b0360031b1c16810180911161094d5760019092019190612d15565b855184529481019486945092810192600101612ce2565b612d73906140c7565b5f80915b60018310612d8957610cf39250614456565b9060ff67050028210101010160bd1b84601b0360031b1c16810180911161094d5760019092019190612d77565b60405160208160208101936f576f726c64456e636f756e7465720000631d18955160e21b0185526040820160208251919201935f5b828110612e5c57505050612e08925003601f198101835282610ae2565b5190205f805160206159a1833981519152185f80915b60018310612e3057610cf39250614456565b9060ff660400200101010160c51b84601b0360031b1c16810180911161094d5760019092019190612e1e565b855184529481019486945092810192600101612deb565b6040516020816020810193644974656d7360581b631d18955160e21b0185526040820160208251919201935f5b828110612f1157505050612ebd925003601f198101835282610ae2565b5190205f805160206159a1833981519152185f80915b60028310612ee557610cf39250614456565b9060ff660308200809010160c51b84601b0360031b1c16810180911161094d5760019092019190612ed3565b855184529481019486945092810192600101612ea0565b9190612f3383614142565b91612f3c6151af565b905f5b8251811015612fe357612f73612f66612f588386610b49565b516001600160581b03191690565b6001600160581b03191690565b9060049182808260581c1614612f8f575b506001915001612f3f565b60601c803b1561016a57855f918983612fbd966040519788958694859363964f667d60e01b85528401614521565b03925af191821561072d5760019215612f845780610721612fdd92610a5e565b5f612f84565b5092919061302e826040946040515f805160206159818339815191526f456e636f756e746572456e7469747900631d18955160e21b019180613026868d836144c5565b0390a26155e6565b5f5b81518110156130ba57613049612f66612f588385610b49565b6008808260581c1614613060575b50600101613030565b60601c90813b1561016a57845163a8ba872160e01b8152915f90839081838161308d8a8e60048401614521565b03925af191821561072d576001926130a7575b5090613057565b806107216130b492610a5e565b5f6130a0565b505050509050565b9190915f805b600482106132535765ffffffffffff9150166130e3826141c0565b6130eb615303565b905f5b825181101561317857613107612f66612f588386610b49565b9060049182808260581c1614613123575b5060019150016130ee565b60601c803b1561016a57855f9188838c966131526040519889968795869463964f667d60e01b86528501614597565b03925af191821561072d5760019215613118578061072161317292610a5e565b5f613118565b506040805190969392916131bd91859185915f80516020615a41833981519152905f8051602061598183398151915290806131b587878e846144f0565b0390a261562c565b5f5b815181101561324a576131d8612f66612f588385610b49565b6008808260581c16146131ef575b506001016131bf565b60601c90813b1561016a57875163a8ba872160e01b8152915f90839081838161321d8b8b8e60048501614597565b03925af191821561072d57600192613237575b50906131e6565b8061072161324492610a5e565b5f613230565b50505050509050565b60ff67050028210101010160bd1b83601b0360031b1c16810180911161094d576001909101906130c8565b60408051655461626c657360501b66746273746f726560c81b01602082019081525f8051602061596183398151915282840181905283835292959294916132c481610aac565b5190205f805160206159a18339815191521854916132e0615259565b905f5b825181101561336e576132fc612f66612f588386610b49565b6001808260581c1614613313575b506001016132e3565b60601c90813b1561016a5788516315c19b2760e21b8152915f9083908183816133418c8c8f60048501614c24565b03925af191821561072d5760019261335b575b509061330a565b8061072161336892610a5e565b5f613354565b50945f805160206159c183398151915287518061338c868983614be8565b0390a26133a761339b856141ab565b83516020850191615672565b60ff808460e01c1680613444575b50505f5b815181101561324a576133d2612f66612f588385610b49565b6002808260581c16146133e9575b506001016133b9565b60601c90813b1561016a578751635b28cdaf60e01b8152915f9083908183816134178b8b8e60048501614c24565b03925af191821561072d57600192613431575b50906133e0565b8061072161343e92610a5e565b5f61342a565b5f61344e8761574f565b555f60805b82848316106134635750506133b5565b60018161347a8693613475868d614d02565b61563d565b92011690613453565b60408051655461626c657360501b66746273746f726560c81b0160208201526753686f7053616c6560401b631bdd155160e21b0181830181905291815290925f805160206159c18339815191529290916134dc90610aac565b6134eb60405192839283614be8565b0390a2565b610cf39064ffffffffff61353e7f394102da22e32d82fc925482184f16c09fd4281692720b87d124aef6da48a0f16040516020810190613534816105138885613cb5565b5190201892615725565b5460881c1690614d93565b610cf39064ffffffffff61356561355f83614c87565b92615725565b5460b01c1690614d93565b610cf39064ffffffffff6135b47f3a4102da22e32d82fc925482184f16c09fd4281692720b87d124aef6da48a0f16040516020810190613534816105138885613cb5565b5460601c1690614d93565b610cf39064ffffffffff6135f05f80516020615a018339815191526040516020810190613534816105138885613cb5565b5460381c1690614d93565b6040805160206020600160801b0384168201810190925260016001607b1b03600584901c1680825290939260801c8285015f5b83811061363c575050505050565b82518252918401919084019060010161362e565b6040805160206020600160801b0384168201810190925260016001607b1b03600584901c1680825290939260801c8285015f5b838110613691575050505050565b825182529184019190840190600101613683565b9190916136b181615725565b5464ffffffffff92838260b01c16906136d56136cd8380610952565b87519061095f565b828114159590868061390d575b6138e1576136f09085615764565b956136f96150b6565b925f5b845181101561378b57613715612f66612f588388610b49565b6010808260581c161461372c575b506001016136fc565b60601c90813b1561016a575f888c9389838d61375e60405198899687958694630abd6b4560e31b865260048601614df1565b03925af191821561072d57600192613778575b5090613723565b8061072161378592610a5e565b5f613771565b5091959093969792975f975f985b60ff8a1660038110156137c05760ff918a8a6001936028026038011c16019a011698613799565b5095929750939892975094506040937ffe158a7adba34e256807c8a149028d3162918713c3838afc643ce9f96716ebfd6040518061381d8c8a898d65ffffffffffff6453686f707360581b631d18955160e21b0199169086614e4c565b0390a26138d1575b6138378761383287614c87565b615599565b5f5b81518110156138c757613852612f66612f588385610b49565b6020808260581c1614613869575b50600101613839565b60601c90813b1561016a575f868a9386838b61389a8b5198899687958694636358453360e01b865260048601614df1565b03925af191821561072d576001926138b4575b5090613860565b806107216138c192610a5e565b5f6138ad565b5050505050509050565b836138db86615725565b55613825565b604051632994042d60e21b81525f600482015264ffffffffff8516602482018190526044820152606490fd5b508361392561391b82614dde565b64ffffffffff1690565b14156136e2565b60ff1660ff811461094d5760010190565b5f906060906040519060209082613958602082019283613cf4565b039261396c601f1994858101835282610ae2565b5190205f805160206159a1833981519152189160405192816054850116604052601584526020840192601591925b818310156139cc575050806139b0575b50505092565b5f199060031b1c908183511691199054161790525f80806139aa565b8160018583949597965487520194019401919061399a565b6139f56139f0826141c0565b614d27565b916139ff82615725565b5466ffffffffffffff811692613a2d613a1785612413565b94613a256040519687610ae2565b808652612413565b602085019490601f190136863793945f955b60ff87166004811015613a8a57613a718264ffffffffff87613a618c89614cc5565b946028026038011c168093614e99565b810180911161094d57613a84909661392c565b95613a3f565b50509450509190565b5f906060906040519060209082613aae602082019283613d7b565b0392613ac2601f1994858101835282610ae2565b5190205f805160206159a1833981519152189160405192816043850116604052600484526020840192600491925b81831015613b05575050806139b05750505092565b81600185839495979654875201940194019190613af0565b5f906060906040519060209082613b38602082019283613dc1565b0392613b4c601f1994858101835282610ae2565b5190205f805160206159a1833981519152189160405192816063850116604052602484526020840192602491925b81831015613b8f575050806139b05750505092565b81600185839495979654875201940194019190613b7a565b5f90613bb46060916141ab565b60405190602090601f19908160bf850116604052608084526020840192608091925b81831015613beb575050806139b05750505092565b81600185839495979654875201940194019190613bd6565b91909164ffffffffff91610cf36117c6848460381c1695613c276117c688836126a0565b96613c3e6117c6888860601c1683018093856126f5565b96613c556117c6828960881c1684018094866126f5565b9660b01c168101916126f5565b602081519101fd5b6953746f7265486f6f6b7360301b66746273746f726560c81b01815281516020918201928201915f5b828110613ca1575050505090565b835185529381019392810192600101613c93565b5f80516020615a41833981519152815281516020918201928201915f5b828110613ce0575050505090565b835185529381019392810192600101613cd2565b6653797374656d7360481b661d189ddbdc9b1960ca1b01815281516020918201928201915f5b828110613d28575050505090565b835185529381019392810192600101613d1a565b5f80516020615a41833981519152815281516020918201928201915f5b828110613d67575050505090565b835185529381019392810192600101613d59565b672837b9b4ba34b7b760411b631d18955160e21b01815281516020918201928201915f5b828110613dad575050505090565b835185529381019392810192600101613d9f565b6f46756e6374696f6e53656c6563746f72661d189ddbdc9b1960ca1b01815281516020918201928201915f5b828110613dfb575050505090565b835185529381019392810192600101613ded565b5f80516020615961833981519152815281516020918201928201915f5b828110613e3a575050505090565b835185529381019392810192600101613e2c565b60405160208160208101936514185d5cd95960521b631d18955160e21b0185526040820160208251919201935f5b828110613eae57505050613e99925003601f198101835282610ae2565b5190205f805160206159a18339815191521890565b855184529481019486945092810192600101613e7c565b60405160208160208101936453686f707360581b631d18955160e21b0185526040820160208251919201935f5b828110613f0f57505050613e99925003601f198101835282610ae2565b855184529481019486945092810192600101613ef2565b60405160208160208101936f576f726c64456e636f756e7465720000631d18955160e21b0185526040820160208251919201935f5b828110613f7857505050613e99925003601f198101835282610ae2565b855184529481019486945092810192600101613f5b565b60405160208160208101936f456e636f756e746572456e7469747900631d18955160e21b0185526040820160208251919201935f5b828110613fe157505050613e99925003601f198101835282610ae2565b855184529481019486945092810192600101613fc4565b60405160208160208101936653797374656d7360481b661d189ddbdc9b1960ca1b0185526040820160208251919201935f5b82811061404757505050613e99925003601f198101835282610ae2565b85518452948101948694509281019260010161402a565b604051602081602081019375746243686172616374657273000000004f776e65727360501b85526040820160208251919201935f5b8281106140b057505050613e99925003601f198101835282610ae2565b855184529481019486945092810192600101614093565b604051613e9981610513602082019485613cb5565b60405160208160208101936742616c616e63657360401b651d1891dbdb1960d21b0185526040820160208251919201935f5b82811061412b57505050613e99925003601f198101835282610ae2565b85518452948101948694509281019260010161410e565b60405160208160208101936f456e636f756e746572456e7469747900631d18955160e21b0185526040820160208251919201935f5b82811061419457505050613e99925003601f198101835282610ae2565b855184529481019486945092810192600101614177565b604051613e9981610513602082019485613e0f565b60405160208160208101936453686f707360581b631d18955160e21b0185526040820160208251919201935f5b82811061420a57505050613e99925003601f198101835282610ae2565b8551845294810194869450928101926001016141ed565b6040516020816020810193654f776e65727360501b6674624974656d7360c81b0185526040820160208251919201935f5b82811061426f57505050613e99925003601f198101835282610ae2565b855184529481019486945092810192600101614252565b60405160208160208101936742616c616e63657360401b651d1891dbdb1960d21b0185526040820160208251919201935f5b8281106142d557505050613e99925003601f198101835282610ae2565b8551845294810194869450928101926001016142b8565b60405160208160208101936742616c616e63657360401b651d1891dbdb1960d21b0185526040820160208251919201935f5b82811061433b57505050613e99925003601f198101835282610ae2565b85518452948101948694509281019260010161431e565b6040516020816020810193654f776e65727360501b6674624974656d7360c81b0185526040820160208251919201935f5b8281106143a057505050613e99925003601f198101835282610ae2565b855184529481019486945092810192600101614383565b60405160208160208101936742616c616e63657360401b651d1891dbdb1960d21b0185526040820160208251919201935f5b82811061440657505050613e99925003601f198101835282610ae2565b8551845294810194869450928101926001016143e9565b5f805b6004811061442c575090565b9060ff67050028210101010160bd1b83601b0360031b1c16810180911161094d5790600101614420565b6020821015614486575b80548260031b1b91602003908160201161447957505090565b600101549060031b1c1790565b601f82169160051c01614460565b60208210156144b7575b80548260031b1b91602003908160141161447957505090565b601f82169160051c0161449e565b90916144dc610cf39360608452606084019061197b565b915f602082015260408184039101526122b0565b65ffffffffffff61450d610cf3959360608452606084019061197b565b9316602082015260408184039101526122b0565b6f456e636f756e746572456e7469747900631d18955160e21b018152608060208201819052610cf39391926145589184019061197b565b915f604082015260608184039101526122b0565b5f80516020615a418339815191528152608060208201819052610cf39391926145589184019061197b565b5f80516020615a418339815191528152608060208201819052610cf3949265ffffffffffff916145ca919084019061197b565b9316604082015260608184039101526122b0565b5f805160206159e18339815191528152608060208201819052610cf39391926145589184019061197b565b654f776e65727360501b6674624974656d7360c81b018152608060208201819052610cf39391926145589184019061197b565b9190614647836141c0565b91614650615303565b905f5b82518110156146dc5761466c612f66612f588386610b49565b9060049182808260581c1614614688575b506001915001614653565b60601c803b1561016a57855f9189836146b6966040519788958694859363964f667d60e01b8552840161456c565b03925af191821561072d576001921561467d57806107216146d692610a5e565b5f61467d565b506040805191949093929161471f9184915f80516020615a41833981519152905f805160206159818339815191529080614717868d836144c5565b0390a261561d565b5f5b81518110156130ba5761473a612f66612f588385610b49565b6008808260581c1614614751575b50600101614721565b60601c90813b1561016a57845163a8ba872160e01b8152915f90839081838161477e8a8e6004840161456c565b03925af191821561072d57600192614798575b5090614748565b806107216147a592610a5e565b5f614791565b91906147b6836142ec565b916147bf6153a5565b905f5b825181101561484b576147db612f66612f588386610b49565b9060049182808260581c16146147f7575b5060019150016147c2565b60601c803b1561016a57855f918983614825966040519788958694859363964f667d60e01b855284016145de565b03925af191821561072d57600192156147ec578061072161484592610a5e565b5f6147ec565b50604080519194909392916148869184915f805160206159e1833981519152905f805160206159818339815191529080614717868d836144c5565b5f5b81518110156130ba576148a1612f66612f588385610b49565b6008808260581c16146148b8575b50600101614888565b60601c90813b1561016a57845163a8ba872160e01b8152915f9083908183816148e58a8e600484016145de565b03925af191821561072d576001926148ff575b50906148af565b8061072161490c92610a5e565b5f6148f8565b919061491d83614352565b9161492661544c565b905f5b82518110156149b257614942612f66612f588386610b49565b9060049182808260581c161461495e575b506001915001614929565b60601c803b1561016a57855f91898361498c966040519788958694859363964f667d60e01b85528401614609565b03925af191821561072d576001921561495357806107216149ac92610a5e565b5f614953565b50604080519194909392916149f5918491654f776e65727360501b6674624974656d7360c81b01905f805160206159818339815191529080614717868d836144c5565b5f5b81518110156130ba57614a10612f66612f588385610b49565b6008808260581c1614614a27575b506001016149f7565b60601c90813b1561016a57845163a8ba872160e01b8152915f908390818381614a548a8e60048401614609565b03925af191821561072d57600192614a6e575b5090614a1e565b80610721614a7b92610a5e565b5f614a67565b9190614a8c836143b7565b91614a956154f2565b905f5b8251811015614b2157614ab1612f66612f588386610b49565b9060049182808260581c1614614acd575b506001915001614a98565b60601c803b1561016a57855f918983614afb966040519788958694859363964f667d60e01b855284016145de565b03925af191821561072d5760019215614ac25780610721614b1b92610a5e565b5f614ac2565b5060408051919490939291614b5c9184915f805160206159e1833981519152905f805160206159818339815191529080614717868d836144c5565b5f5b81518110156130ba57614b77612f66612f588385610b49565b6008808260581c1614614b8e575b50600101614b5e565b60601c90813b1561016a57845163a8ba872160e01b8152915f908390818381614bbb8a8e600484016145de565b03925af191821561072d57600192614bd5575b5090614b85565b80610721614be292610a5e565b5f614bce565b90610cf392614c02614c109260808552608085019061197b565b9083820360208501526122b0565b905f60408201526060818303910152612273565b939291614c6f614c8291614c6160a0946f576f726c64456e636f756e7465720000631d18955160e21b01895260c060208a015260c089019061197b565b9087820360408901526122b0565b5f60608701528581036080870152612273565b930152565b7f384102da22e32d82fc925482184f16c09fd4281692720b87d124aef6da48a0f190604051614cbe81610513602082019485613d3c565b5190201890565b905f80516020615a0183398151915291604051614cea81610513602082019485613d3c565b51902060f89190911b6001600160f81b031916181890565b905f80516020615a0183398151915291604051614cea81610513602082019485613e0f565b60405190602090601f19908160df85011660405260a08452602084019260a091925b81831015614d7b57505080614d5f575b50505090565b5f199060031b1c908183511691199054161790525f8080614d59565b81600185839495979654875201940194019190614d49565b60408051601f19603f85830101811690925283815292602080850193925b81831015614dc657505080614d5f5750505090565b81600185839495979654875201940194019190614db1565b9064ffffffffff80921691821161094d57565b5f80516020615a41833981519152815260e060208201819052610cf3959394919264ffffffffff91614e26919085019061197b565b94600360408501525f606085015216608083015260a082015260c08184039101526122b0565b919390610cf3959365ffffffffffff614e7364ffffffffff9360c0875260c087019061197b565b9660036020870152166040850152166060830152608082015260a08184039101526122b0565b9291925b602090818310614ebd5780548552930192601f1990910190600101614e9d565b91905092919280614ecd57505050565b5f199060031b1c90818351169119905416179052565b60405190614ef082610a91565b60068252651e3937b7ba1f60d11b6020830152565b608081901b6001600160801b03191690610cf390602490601081901b6001600160901b03191680614fb35750614f39614ee3565b935b80614fa55750614f49614ee3565b60405194859261ffff60f01b166020840152601d60f91b90816022850152614f7b815180926020602388019101612252565b8301906023820152614f968251809360208785019101612252565b01036004810184520182610ae2565b614fae906157eb565b614f49565b614fbc906157eb565b93614f3b565b614fdf82600160801b600160f01b038316616e7360f01b17615891565b8015615032575b15614fef575050565b90614ffc61501e92614f05565b9060405192839263d787b73760e01b84526040600485015260448401906122b0565b6001600160a01b0390911660248301520390fd5b5061503d8282615891565b614fe6565b3d1561506c573d9061505382612413565b916150616040519384610ae2565b82523d5f602084013e565b606090565b9061507f5f93928493615849565b9082602083519301915af1615092615042565b9091565b906150a45f93928493615849565b90602082519201905af4615092615042565b6150be610f29565b8051156103ed576151616112ff6020926453686f707360581b631d18955160e21b018482015264ffffffffff604051915f80516020615a018339815191528684018461510a8483613c6a565b039461511e601f1996878101835282610ae2565b519020189261514460405191826151388a82019586613c6a565b03908101835282610ae2565b5190205f80516020615a21833981519152185460381c1690614d93565b8060801c916015809260018060801b0316049060405193818501828460051b8701016040528386525f5b84811061519b5750505050505090565b82518252918501919083019060010161518b565b6151b7610f29565b8051156103ed5761520b6112ff6020926f456e636f756e746572456e7469747900631d18955160e21b018482015264ffffffffff604051915f80516020615a018339815191528684018461510a8483613c6a565b8060801c916015809260018060801b0316049060405193818501828460051b8701016040528386525f5b8481106152455750505050505090565b825182529185019190830190600101615235565b615261610f29565b8051156103ed576152b56112ff6020926f576f726c64456e636f756e7465720000631d18955160e21b018482015264ffffffffff604051915f80516020615a018339815191528684018461510a8483613c6a565b8060801c916015809260018060801b0316049060405193818501828460051b8701016040528386525f5b8481106152ef5750505050505090565b8251825291850191908301906001016152df565b61530b610f29565b8051156103ed576153576112ff6020926453686f707360581b631d18955160e21b018482015264ffffffffff604051915f80516020615a018339815191528684018461510a8483613c6a565b8060801c916015809260018060801b0316049060405193818501828460051b8701016040528386525f5b8481106153915750505050505090565b825182529185019190830190600101615381565b6153ad610f29565b8051156103ed576153fe6112ff6020926742616c616e63657360401b651d1891dbdb1960d21b018482015264ffffffffff604051915f80516020615a018339815191528684018461510a8483613c6a565b8060801c916015809260018060801b0316049060405193818501828460051b8701016040528386525f5b8481106154385750505050505090565b825182529185019190830190600101615428565b615454610f29565b8051156103ed576154a46112ff602092654f776e65727360501b6674624974656d7360c81b018482015264ffffffffff604051915f80516020615a018339815191528684018461510a8483613c6a565b8060801c916015809260018060801b0316049060405193818501828460051b8701016040528386525f5b8481106154de5750505050505090565b8251825291850191908301906001016154ce565b6154fa610f29565b8051156103ed5761554b6112ff6020926742616c616e63657360401b651d1891dbdb1960d21b018482015264ffffffffff604051915f80516020615a018339815191528684018461510a8483613c6a565b8060801c916015809260018060801b0316049060405193818501828460051b8701016040528386525f5b8481106155855750505050505090565b825182529185019190830190600101615575565b81519060208093019190925b808210156155ce5750806155b857505050565b5f199060031b1c90818354169119905116179055565b6001839482939451815501930191601f1901906155a5565b81519060208093019190925b808210156156055750806155b857505050565b6001839482939451815501930191601f1901906155f2565b8151610fe59260200191615672565b8251610fe593602001929091615695565b9190915f905b6020908183106156635784518155930192601f1990910190600101615643565b9293919050806155b857505050565b9291926020908183106156635784518155930192601f1990910190600101615643565b9093929193806156c4575b509290926020908183106156635784518155930192601f1990910190600101615643565b6020811015615715575b80156156a05791939082602003908360031b5f198460031b1c19811c908751901c9080198354169116178155818311156130ba57600101940191601f19910101925f6156a0565b90601f908260051c0191166156ce565b60405161573a81610513602082019485613d3c565b5190205f80516020615a218339815191521890565b60405161573a81610513602082019485613e0f565b64ffffffffff8083116157d25766ffffffffffffff82169060b083901c16838181106157c8570301915b64ffffffffff60b01b60b09190911b1664ffffffffff60b01b199290921666ffffffffffffff64ffffffffff60b01b011991909116171790565b900390039161578e565b604051637149a3c160e01b815260048101849052602490fd5b5f5b6010811061581c575b6040516001600160801b031990921660208301526010825261581782610a91565b815290565b6001600160801b03198216600382901b1b6001600160f81b03191615615844576001016157ed565b6157f6565b6054610cf3916040519381615868869351809260208087019101612252565b82019060018060601b03199060601b1660208201525f6034820152036034810184520182610ae2565b615899610f43565b908151156103ed5760209260208301918252825190600191600110156103ed576001600160a01b031660408085019190915280516f5265736f757263654163636573730000661d189ddbdc9b1960ca1b0160208201908152945194959094918501939291905f5b82811061594d575050505050918161592761594793610cf39503601f198101835282610ae2565b5190205f805160206159a183398151915218546001600160f81b03191690565b60f81c90565b845186529481019493810193830161590056fe74625544000000000000000000000000576f726c64456e636f756e74657200008c0b5119d4cec7b284c6b1b39252a03d1e2f2d7451a5895562524c113bb952be86425bff6b57326c7859e89024fe4f238ca327a1ae4a230180dd2f0e88aaa7d98dbb3a9672eebfd3773e72dd9c102393436816d832c7ba9e1e1ac8fcadcac7a97462476f6c640000000000000000000042616c616e63657300000000000000003b4102da22e32d82fc925482184f16c09fd4281692720b87d124aef6da48a0f114e2fcc58e58e68ec7edc30c8d50dccc3ce2714a623ec81f46b6a63922d765697462554400000000000000000000000053686f70730000000000000000000000","linkReferences":{}},"methodIdentifiers":{"_msgSender()":"119df25f","_msgValue()":"45ec9354","_world()":"e1af802c","buy(uint256,bytes32,uint256,bytes32)":"b702f92b","canRestock(bytes32)":"c9ad107c","endShopEncounter(bytes32)":"73a95569","isShop(bytes32)":"5dcbb50b","itemBase(uint256)":"d8fa95d7","itemMarkdown(bytes32,uint256)":"7246e48c","itemMarkup(bytes32,uint256)":"da0996cd","itemStock(bytes32,uint256)":"9238e994","restock(bytes32)":"1cb2b85f","sell(uint256,bytes32,uint256,bytes32)":"f479b6ea","sellAny(uint256,bytes32,uint256,bytes32)":"08f483cb","shopSystemAddress()":"4ec9c8e3","supportsInterface(bytes4)":"01ffc9a7"},"id":522}