{"abi":[{"type":"function","name":"_msgSender","inputs":[],"outputs":[{"name":"sender","type":"address","internalType":"address"}],"stateMutability":"view"},{"type":"function","name":"_msgValue","inputs":[],"outputs":[{"name":"value","type":"uint256","internalType":"uint256"}],"stateMutability":"pure"},{"type":"function","name":"_world","inputs":[],"outputs":[{"name":"","type":"address","internalType":"address"}],"stateMutability":"view"},{"type":"function","name":"buy","inputs":[{"name":"amount","type":"uint256","internalType":"uint256"},{"name":"shopId","type":"bytes32","internalType":"bytes32"},{"name":"itemIndex","type":"uint256","internalType":"uint256"},{"name":"characterId","type":"bytes32","internalType":"bytes32"}],"outputs":[],"stateMutability":"nonpayable"},{"type":"function","name":"canRestock","inputs":[{"name":"shopId","type":"bytes32","internalType":"bytes32"}],"outputs":[{"name":"","type":"bool","internalType":"bool"}],"stateMutability":"view"},{"type":"function","name":"isShop","inputs":[{"name":"shopId","type":"bytes32","internalType":"bytes32"}],"outputs":[{"name":"","type":"bool","internalType":"bool"}],"stateMutability":"view"},{"type":"function","name":"itemBase","inputs":[{"name":"itemId","type":"uint256","internalType":"uint256"}],"outputs":[{"name":"","type":"uint256","internalType":"uint256"}],"stateMutability":"view"},{"type":"function","name":"itemMarkdown","inputs":[{"name":"shopId","type":"bytes32","internalType":"bytes32"},{"name":"itemId","type":"uint256","internalType":"uint256"}],"outputs":[{"name":"","type":"uint256","internalType":"uint256"}],"stateMutability":"view"},{"type":"function","name":"itemMarkup","inputs":[{"name":"shopId","type":"bytes32","internalType":"bytes32"},{"name":"itemId","type":"uint256","internalType":"uint256"}],"outputs":[{"name":"","type":"uint256","internalType":"uint256"}],"stateMutability":"view"},{"type":"function","name":"itemStock","inputs":[{"name":"shopId","type":"bytes32","internalType":"bytes32"},{"name":"itemIndex","type":"uint256","internalType":"uint256"}],"outputs":[{"name":"","type":"uint256","internalType":"uint256"}],"stateMutability":"view"},{"type":"function","name":"restock","inputs":[{"name":"shopId","type":"bytes32","internalType":"bytes32"}],"outputs":[{"name":"","type":"bool","internalType":"bool"}],"stateMutability":"nonpayable"},{"type":"function","name":"sell","inputs":[{"name":"amount","type":"uint256","internalType":"uint256"},{"name":"shopId","type":"bytes32","internalType":"bytes32"},{"name":"itemIndex","type":"uint256","internalType":"uint256"},{"name":"characterId","type":"bytes32","internalType":"bytes32"}],"outputs":[],"stateMutability":"nonpayable"},{"type":"function","name":"shopSystemAddress","inputs":[],"outputs":[{"name":"","type":"address","internalType":"address"}],"stateMutability":"view"},{"type":"function","name":"supportsInterface","inputs":[{"name":"interfaceId","type":"bytes4","internalType":"bytes4"}],"outputs":[{"name":"","type":"bool","internalType":"bool"}],"stateMutability":"pure"},{"type":"event","name":"Store_SetRecord","inputs":[{"name":"tableId","type":"bytes32","indexed":true,"internalType":"ResourceId"},{"name":"keyTuple","type":"bytes32[]","indexed":false,"internalType":"bytes32[]"},{"name":"staticData","type":"bytes","indexed":false,"internalType":"bytes"},{"name":"encodedLengths","type":"bytes32","indexed":false,"internalType":"EncodedLengths"},{"name":"dynamicData","type":"bytes","indexed":false,"internalType":"bytes"}],"anonymous":false},{"type":"event","name":"Store_SpliceDynamicData","inputs":[{"name":"tableId","type":"bytes32","indexed":true,"internalType":"ResourceId"},{"name":"keyTuple","type":"bytes32[]","indexed":false,"internalType":"bytes32[]"},{"name":"dynamicFieldIndex","type":"uint8","indexed":false,"internalType":"uint8"},{"name":"start","type":"uint48","indexed":false,"internalType":"uint48"},{"name":"deleteCount","type":"uint40","indexed":false,"internalType":"uint40"},{"name":"encodedLengths","type":"bytes32","indexed":false,"internalType":"EncodedLengths"},{"name":"data","type":"bytes","indexed":false,"internalType":"bytes"}],"anonymous":false},{"type":"event","name":"Store_SpliceStaticData","inputs":[{"name":"tableId","type":"bytes32","indexed":true,"internalType":"ResourceId"},{"name":"keyTuple","type":"bytes32[]","indexed":false,"internalType":"bytes32[]"},{"name":"start","type":"uint48","indexed":false,"internalType":"uint48"},{"name":"data","type":"bytes","indexed":false,"internalType":"bytes"}],"anonymous":false},{"type":"error","name":"EncodedLengths_InvalidLength","inputs":[{"name":"length","type":"uint256","internalType":"uint256"}]},{"type":"error","name":"ReentrancyGuardReentrantCall","inputs":[]},{"type":"error","name":"Slice_OutOfBounds","inputs":[{"name":"data","type":"bytes","internalType":"bytes"},{"name":"start","type":"uint256","internalType":"uint256"},{"name":"end","type":"uint256","internalType":"uint256"}]},{"type":"error","name":"Store_IndexOutOfBounds","inputs":[{"name":"length","type":"uint256","internalType":"uint256"},{"name":"accessedIndex","type":"uint256","internalType":"uint256"}]},{"type":"error","name":"Store_InvalidResourceType","inputs":[{"name":"expected","type":"bytes2","internalType":"bytes2"},{"name":"resourceId","type":"bytes32","internalType":"ResourceId"},{"name":"resourceIdString","type":"string","internalType":"string"}]},{"type":"error","name":"Store_InvalidSplice","inputs":[{"name":"startWithinField","type":"uint40","internalType":"uint40"},{"name":"deleteCount","type":"uint40","internalType":"uint40"},{"name":"fieldLength","type":"uint40","internalType":"uint40"}]}],"bytecode":{"object":"0x608060405234801561001057600080fd5b506001600055613e56806100256000396000f3fe608060405234801561001057600080fd5b50600436106100ea5760003560e01c80639238e9941161008c578063d8fa95d711610066578063d8fa95d7146101c6578063da0996cd146101d9578063e1af802c146101ec578063f479b6ea146101f457600080fd5b80639238e9941461018b578063b702f92b1461019e578063c9ad107c146101b357600080fd5b806345ec9354116100c857806345ec93541461014a5780634ec9c8e31461015f5780635dcbb50b146101655780637246e48c1461017857600080fd5b806301ffc9a7146100ef578063119df25f146101175780631cb2b85f14610137575b600080fd5b6101026100fd366004613689565b610207565b60405190151581526020015b60405180910390f35b61011f6102a0565b6040516001600160a01b03909116815260200161010e565b6101026101453660046136cb565b6102af565b36601f1901355b60405190815260200161010e565b3061011f565b6101026101733660046136cb565b61034d565b6101516101863660046136e4565b61037c565b6101516101993660046136e4565b6103a7565b6101b16101ac366004613706565b6103d3565b005b6101026101c13660046136cb565b6109bd565b6101516101d43660046136cb565b6109fd565b6101516101e73660046136e4565b610a08565b61011f610a46565b6101b1610202366004613706565b610a50565b60007fffffffff0000000000000000000000000000000000000000000000000000000082167fb5dee12700000000000000000000000000000000000000000000000000000000148061029a57507fffffffff0000000000000000000000000000000000000000000000000000000082167f01ffc9a700000000000000000000000000000000000000000000000000000000145b92915050565b60006102aa611089565b905090565b60006102ba826109bd565b156103455760006102ca836110bb565b9050600061a8c06102db834261374e565b6102e59190613777565b905060006102f3824261374e565b905061030a856103058361a8c061378b565b611139565b6000610315866111d6565b9050600061032287611258565b905061032e87836112ce565b610338878261133c565b5060019695505050505050565b506000919050565b600080610359836113b3565b9050806020015160001415801561037557506101008101515115155b9392505050565b600061271061038a84611490565b610393846109fd565b61039d919061379e565b61037591906137b5565b60006103b283611506565b82815181106103c3576103c36137c9565b6020026020010151905092915050565b60006103de82611571565b905060006103eb82611602565b905081158015906103ff5750604081015115155b801561040d57506060810151155b801561041c5750848160200151145b80156104285750805183145b6104795760405162461bcd60e51b815260206004820152601660248201527f696e76616c69642073686f7020656e636f756e7465720000000000000000000060448201526064015b60405180910390fd5b610481610a46565b6001600160a01b03166343def638846104986102a0565b6040517fffffffff0000000000000000000000000000000000000000000000000000000060e085901b16815260048101929092526001600160a01b03166024820152604401602060405180830381865afa1580156104fa573d6000803e3d6000fd5b505050506040513d601f19601f8201168201806040525081019061051e91906137df565b6105905760405162461bcd60e51b815260206004820152602360248201527f43616e6e6f742062757920616e206974656d20666f7220736f6d656f6e65206560448201527f6c736500000000000000000000000000000000000000000000000000000000006064820152608401610470565b60008061059b610a46565b6001600160a01b0316638b4ce3e5866040518263ffffffff1660e01b81526004016105c891815260200190565b6040805180830381865afa1580156105e4573d6000803e3d6000fd5b505050506040513d601f19601f820116820180604052508101906106089190613813565b91509150610614610a46565b6040517ff48a39720000000000000000000000000000000000000000000000000000000081526004810189905261ffff8085166024830152831660448201526001600160a01b03919091169063f48a397290606401602060405180830381865afa158015610686573d6000803e3d6000fd5b505050506040513d601f19601f820116820180604052508101906106aa91906137df565b15156001146107205760405162461bcd60e51b8152602060048201526024808201527f43616e6e6f74206275792066726f6d20612073686f702061742061206469737460448201527f616e6365000000000000000000000000000000000000000000000000000000006064820152608401610470565b600061072b886116c7565b9050600061073889611506565b90508981898151811061074d5761074d6137c9565b602002602001015110156107a35760405162461bcd60e51b815260206004820152601260248201527f696e73756666696369656e742073746f636b00000000000000000000000000006044820152606401610470565b898189815181106107b6576107b66137c9565b60200260200101516107c8919061374e565b8189815181106107da576107da6137c9565b6020026020010181815250506107f089826112ce565b60006108158a848b81518110610808576108086137c9565b6020026020010151610a08565b61081f908c61379e565b905061083e8a8261082f8d611732565b610839919061378b565b61133c565b6108466117a7565b6001600160a01b03166323b872dd61085c6102a0565b61086461180f565b6040517fffffffff0000000000000000000000000000000000000000000000000000000060e085901b1681526001600160a01b03928316600482015291166024820152604481018490526064016020604051808303816000875af11580156108d0573d6000803e3d6000fd5b505050506040513d601f19601f820116820180604052508101906108f491906137df565b506108fd610a46565b6001600160a01b031663cd9caca289858c8151811061091e5761091e6137c9565b60200260200101518e6040518463ffffffff1660e01b8152600401610956939291909283526020830191909152604082015260600190565b600060405180830381600087803b15801561097057600080fd5b505af1158015610984573d6000803e3d6000fd5b505050506109b08a89858c8151811061099f5761099f6137c9565b602002602001015142600186611842565b5050505050505050505050565b6000806109c9836110bb565b9050428111156109dc5750600092915050565b61a8c06109e9824261374e565b106109f75750600192915050565b50919050565b600061029a8261194b565b6000612710610a16846119e0565b610a1f846109fd565b610a29919061379e565b610a3391906137b5565b610a3c836109fd565b610375919061378b565b60006102aa611a56565b6000610a5b82611571565b90506000610a6882611602565b9050610a956040518060800160405280606081526020016060815260200160608152602001600081525090565b8215801590610aa75750604082015115155b8015610ab557506060820151155b8015610ac45750858260200151145b8015610ad05750815184145b610b1c5760405162461bcd60e51b815260206004820152601660248201527f696e76616c69642073686f7020656e636f756e746572000000000000000000006044820152606401610470565b610b24610a46565b6001600160a01b03166343def63885610b3b6102a0565b6040517fffffffff0000000000000000000000000000000000000000000000000000000060e085901b16815260048101929092526001600160a01b03166024820152604401602060405180830381865afa158015610b9d573d6000803e3d6000fd5b505050506040513d601f19601f82011682018060405250810190610bc191906137df565b610c325760405162461bcd60e51b8152602060048201526024808201527f43616e6e6f742073656c6c20616e206974656d20666f7220736f6d656f6e652060448201527f656c7365000000000000000000000000000000000000000000000000000000006064820152608401610470565b600080610c3d610a46565b6001600160a01b0316638b4ce3e5876040518263ffffffff1660e01b8152600401610c6a91815260200190565b6040805180830381865afa158015610c86573d6000803e3d6000fd5b505050506040513d601f19601f82011682018060405250810190610caa9190613813565b91509150610cb6610a46565b6040517ff48a3972000000000000000000000000000000000000000000000000000000008152600481018a905261ffff8085166024830152831660448201526001600160a01b03919091169063f48a397290606401602060405180830381865afa158015610d28573d6000803e3d6000fd5b505050506040513d601f19601f82011682018060405250810190610d4c91906137df565b1515600114610dc35760405162461bcd60e51b815260206004820152602360248201527f43616e6e6f742073656c6c20746f20612073686f70206174206120646973746160448201527f6e636500000000000000000000000000000000000000000000000000000000006064820152608401610470565b610dcc88611506565b8352610dd788611a60565b602084018190528051610e03918a918a908110610df657610df66137c9565b602002602001015161037c565b610e0d908a61379e565b610e1689611732565b1015610e645760405162461bcd60e51b815260206004820152601e60248201527f53686f7020646f6573206e6f74206861766520656e6f75676820676f6c6400006044820152606401610470565b8883600001518881518110610e7b57610e7b6137c9565b6020026020010151610e8d919061378b565b8351805189908110610ea157610ea16137c9565b602002602001018181525050610ebb8884600001516112ce565b610ed58884602001518981518110610df657610df66137c9565b610edf908a61379e565b60608401819052610eff908990610ef582611732565b610839919061374e565b610f0888611a60565b6040840152610f15611aca565b6001600160a01b031663fe99049a610f2b6102a0565b610f3361180f565b86604001518b81518110610f4957610f496137c9565b60209081029190910101516040517fffffffff0000000000000000000000000000000000000000000000000000000060e086901b1681526001600160a01b0393841660048201529290911660248301526044820152606481018c9052608401600060405180830381600087803b158015610fc257600080fd5b505af1158015610fd6573d6000803e3d6000fd5b50505050610fe2610a46565b6001600160a01b031663bcf0229a8785606001516040518363ffffffff1660e01b815260040161101c929190918252602082015260400190565b600060405180830381600087803b15801561103657600080fd5b505af115801561104a573d6000803e3d6000fd5b5050505061107e888785602001518a81518110611069576110696137c9565b60200260200101514260008860600151611842565b505050505050505050565b7fffffffffffffffffffffffffffffffffffffffffffffffffffffffffffffffcc36013560601c806110b85750335b90565b6040805160018082528183019092526000918291906020808301908036833701905050905082816000815181106110f4576110f46137c9565b60209081029190910101526000611131747462554400000000000000000000000053686f707360581b83600467050028210101010160bd1b611b24565b949350505050565b60408051600180825281830190925260009160208083019080368337019050509050828160008151811061116f5761116f6137c9565b6020026020010181815250506111d1747462554400000000000000000000000053686f707360581b60001b826004856040516020016111b091815260200190565b60408051601f1981840301815291905267050028210101010160bd1b611be1565b505050565b60408051600180825281830190925260609160009190602080830190803683370190505090508281600081518110611210576112106137c9565b60209081029190910101526000611241747462554400000000000000000000000053686f707360581b836002611c92565b90506111316112538260008451611d59565b611de7565b604080516001808252818301909252600091829190602080830190803683370190505090508281600081518110611291576112916137c9565b60209081029190910101526000611131747462554400000000000000000000000053686f707360581b83600167050028210101010160bd1b611b24565b604080516001808252818301909252600091602080830190803683370190505090508281600081518110611304576113046137c9565b60209081029190910101526111d1747462554400000000000000000000000053686f707360581b82600361133786611df8565b611e08565b604080516001808252818301909252600091602080830190803683370190505090508281600081518110611372576113726137c9565b6020026020010181815250506111d1747462554400000000000000000000000053686f707360581b60001b826000856040516020016111b091815260200190565b6114026040518061012001604052806000815260200160008152602001600081526020016000815260200160008152602001606081526020016060815260200160608152602001606081525090565b604080516001808252818301909252600091602080830190803683370190505090508281600081518110611438576114386137c9565b602090810291909101015260008080611475747462554400000000000000000000000053686f707360581b8567050028210101010160bd1b611eb5565b925092509250611486838383611f85565b9695505050505050565b6040805160018082528183019092526000918291906020808301908036833701905050905082816000815181106114c9576114c96137c9565b60209081029190910101526000611131747462554400000000000000000000000053686f707360581b83600367050028210101010160bd1b611b24565b60408051600180825281830190925260609160009190602080830190803683370190505090508281600081518110611540576115406137c9565b60209081029190910101526000611241747462554400000000000000000000000053686f707360581b836003611c92565b6040805160018082528183019092526000918291906020808301908036833701905050905082816000815181106115aa576115aa6137c9565b602090810291909101015260006111317f74625544000000000000000000000000456e636f756e746572456e746974790083837e41030120012000000000000000000000000000000000000000000000000000611b24565b6040805160808101825260008082526020820181905281830181905260608201819052825160018082528185019094529192909190816020016020820280368337019050509050828160008151811061165d5761165d6137c9565b6020908102919091010152600080806116b67f74625544000000000000000000000000576f726c64456e636f756e7465720000857e80040020202020000000000000000000000000000000000000000000000000611eb5565b925092509250611486838383612019565b60408051600180825281830190925260609160009190602080830190803683370190505090508281600081518110611701576117016137c9565b60209081029190910101526000611241747462554400000000000000000000000053686f707360581b836001611c92565b60408051600180825281830190925260009182919060208083019080368337019050509050828160008151811061176b5761176b6137c9565b60209081029190910101526000611131747462554400000000000000000000000053686f707360581b838367050028210101010160bd1b611b24565b6040805160008082526020820190925260006118057f74625544000000000000000000000000556c74696d617465446f6d696e696f6e8360017e99080001141414141414200000000000000000000000000000000000000000611b24565b60601c9392505050565b60006102aa61183d7f554400000000000000000000000000000000000000000000000000000000000061205e565b6120ab565b6040805183151560f81b602082015260218082018490528251808303909101815260046041830181815260e18401909452909260009260609284929160610160808036833701905050905089816000815181106118a1576118a16137c9565b60200260200101818152505088816001815181106118c1576118c16137c9565b6020026020010181815250508760001b816002815181106118e4576118e46137c9565b6020026020010181815250508660001b81600381518110611907576119076137c9565b602090810291909101015261193f7f6f74554400000000000000000000000053686f7053616c65000000000000000082868686612147565b50505050505050505050565b604080516001808252818301909252600091829190602080830190803683370190505090508260001b81600081518110611987576119876137c9565b602090810291909101015260006111317f746255440000000000000000000000004974656d7300000000000000000000008360027e41030101202000000000000000000000000000000000000000000000000000611b24565b604080516001808252818301909252600091829190602080830190803683370190505090508281600081518110611a1957611a196137c9565b60209081029190910101526000611131747462554400000000000000000000000053686f707360581b83600267050028210101010160bd1b611b24565b60006102aa6121bd565b60408051600180825281830190925260609160009190602080830190803683370190505090508281600081518110611a9a57611a9a6137c9565b60209081029190910101526000611241747462554400000000000000000000000053686f707360581b8383611c92565b6040805160008082526020820190925260006118057f74625544000000000000000000000000556c74696d617465446f6d696e696f6e8360037e990800011414141414142000000000000000000000000000000000000000005b600080611b2f6121bd565b9050306001600160a01b03821603611b5557611b4d868686866121fc565b915050611131565b6040517f8c364d590000000000000000000000000000000000000000000000000000000081526001600160a01b03821690638c364d5990611ba0908990899089908990600401613898565b602060405180830381865afa158015611bbd573d6000803e3d6000fd5b505050506040513d601f19601f82011682018060405250810190611b4d91906138c7565b6000611beb6121bd565b9050306001600160a01b03821603611c0f57611c0a8686868686612232565b611c8a565b6040517f390baae00000000000000000000000000000000000000000000000000000000081526001600160a01b0382169063390baae090611c5c9089908990899089908990600401613930565b600060405180830381600087803b158015611c7657600080fd5b505af115801561193f573d6000803e3d6000fd5b505050505050565b60606000611c9e6121bd565b9050306001600160a01b03821603611cc357611cbb858585612247565b915050610375565b6040517f1e7889770000000000000000000000000000000000000000000000000000000081526001600160a01b03821690631e78897790611d0c90889088908890600401613977565b600060405180830381865afa158015611d29573d6000803e3d6000fd5b505050506040513d6000823e601f3d908101601f19168201604052611cbb9190810190613a21565b509392505050565b600081831180611d695750835182115b15611da6578383836040517f23230fa300000000000000000000000000000000000000000000000000000000815260040161047093929190613a56565b60208401611db4848261378b565b90506000611dc2858561374e565b6fffffffffffffffffffffffffffffffff1660809290921b9190911795945050505050565b606060006103758360206000612281565b60608161037581602060006122fc565b6000611e126121bd565b9050306001600160a01b03821603611e3557611e3085858585612350565b611eae565b6040517fef6ea8620000000000000000000000000000000000000000000000000000000081526001600160a01b0382169063ef6ea86290611e80908890889088908890600401613a7b565b600060405180830381600087803b158015611e9a57600080fd5b505af115801561107e573d6000803e3d6000fd5b5050505050565b6060600060606000611ec56121bd565b9050306001600160a01b03821603611eee57611ee287878761238b565b93509350935050611f7c565b6040517f419b58fd0000000000000000000000000000000000000000000000000000000081526001600160a01b0382169063419b58fd90611f37908a908a908a90600401613aba565b600060405180830381865afa158015611f54573d6000803e3d6000fd5b505050506040513d6000823e601f3d908101601f19168201604052611ee29190810190613ae3565b93509350939050565b611fd46040518061012001604052806000815260200160008152602001600081526020016000815260200160008152602001606081526020016060815260200160608152602001606081525090565b611fdd84612493565b60808601526060850152604084015260208301528152611ffd83836124cf565b61010085015260e084015260c083015260a08201529392505050565b6040805160808101825260008082526020820181905291810182905260608101919091526120468461255d565b60608501526040840152602083015281529392505050565b600061029a7f7379000000000000000000000000000000000000000000000000000000000000837f4c6f6f744d616e6167657253797374650000000000000000000000000000000061258f565b6040805160018082528183019092526000918291906020808301908036833701905050905082816000815181106120e4576120e46137c9565b6020908102919091010152600061213c7f7462776f726c6400000000000000000053797374656d7300000000000000000083837e15020014010000000000000000000000000000000000000000000000000000611b24565b60601c949350505050565b60006121516121bd565b9050306001600160a01b0382160361217057611c0a8686868686612616565b6040517f298314fb0000000000000000000000000000000000000000000000000000000081526001600160a01b0382169063298314fb90611c5c9089908990899089908990600401613b50565b7f629a4c26e296b22a8e0856e9f6ecb2d1008d7e00081111962cd175fa7488e175546000906001600160a01b0316806121f7573391505090565b919050565b600061222961220b868661262c565b60ff858116601b0360080285901c166122248587612682565b6126b3565b95945050505050565b611eae85856122418487612682565b85612704565b60606111316122578585856129a9565b600061227c856122678989612a29565b9060ff166028026038011c64ffffffffff1690565b612a3c565b6060600061228f8560801c90565b90506fffffffffffffffffffffffffffffffff851660008582816122b5576122b5613761565b04905060405193506020840160208202810160405281855260005b828110156122f0578451871c8252938701936020909101906001016122d0565b50505050509392505050565b8251606090600061230d858361379e565b9050604051925060208301601f19603f83860101166040528184526000602088015b848210156122f0578051871b8352918701916001919091019060200161232f565b600061235c8585612a29565b90506000612379828560ff166028026038011c64ffffffffff1690565b9050611c8a8686866000858888612a5f565b606060006060600061239c85612e99565b90506123a9878783612ebc565b935060006123b686612ef5565b90508015612488576123c88888612a29565b935066ffffffffffffff841667ffffffffffffffff8111156123ec576123ec613846565b6040519080825280601f01601f191660200182016040528015612416576020820181803683370190505b5092506020830160005b828160ff1610156124855760006124388b8b846129a9565b90506000612455888460ff166028026038011c64ffffffffff1690565b90506124648260008387612f32565b61246e818561378b565b93505050808061247d90613ba1565b915050612420565b50505b505093509350939050565b60008060008060006124a9866000016020015190565b60408701516060880151608089015160a090990151929991989097509550909350915050565b60608080806000603887901c64ffffffffff166124f0611253888484611d59565b955090508064ffffffffff606089901c1601612510611253888484611d59565b945090508064ffffffffff608889901c1601612530611253888484611d59565b935090508064ffffffffff60b089901c1601612550611253888484611d59565b9250505092959194509250565b600080600080612571856000016020015190565b60408601516060870151608090970151919790969550909350915050565b600061259d6070601061378b565b7fffff00000000000000000000000000000000000000000000000000000000000085167dffffffffffffffffffffffffffff00000000000000000000000000000000601086901c16177fffffffffffffffffffffffffffffffff00000000000000000000000000000000841690911c1790509392505050565b611eae85858585856126278b612ffe565b613083565b60008282604051602001612641929190613bc0565b60408051601f1981840301815291905280516020909101207f86425bff6b57326c7859e89024fe4f238ca327a1ae4a230180dd2f0e88aaa7d9189392505050565b600080805b8360ff16811015611d51576126a960ff601b83900360080287901c168361378b565b9150600101612687565b6000602082106126d9576020820484019350602082816126d5576126d5613761565b0691505b508254600882021b602082900380841115611d51576001850154600882021c82179150509392505050565b7f6f74000000000000000000000000000000000000000000000000000000000000847fffff000000000000000000000000000000000000000000000000000000000000160361278e57837f8c0b5119d4cec7b284c6b1b39252a03d1e2f2d7451a5895562524c113bb952be84848460405161278193929190613bfc565b60405180910390a26129a3565b600061279a858561262c565b905060006127a7866133bc565b905060005b815181101561287c5760008282815181106127c9576127c96137c9565b602002602001015190506127f56004826affffffffffffffffffffff191661344590919063ffffffff16565b15612873576040517f964f667d000000000000000000000000000000000000000000000000000000008152606082901c9063964f667d90612840908b908b908b908b90600401613c2f565b600060405180830381600087803b15801561285a57600080fd5b505af115801561286e573d6000803e3d6000fd5b505050505b506001016127ac565b50857f8c0b5119d4cec7b284c6b1b39252a03d1e2f2d7451a5895562524c113bb952be8686866040516128b193929190613bfc565b60405180910390a26128cc828565ffffffffffff1685613463565b60005b815181101561299f5760008282815181106128ec576128ec6137c9565b602002602001015190506129186008826affffffffffffffffffffff191661344590919063ffffffff16565b15612996576040517fa8ba8721000000000000000000000000000000000000000000000000000000008152606082901c9063a8ba872190612963908b908b908b908b90600401613c2f565b600060405180830381600087803b15801561297d57600080fd5b505af1158015612991573d6000803e3d6000fd5b505050505b506001016128cf565b5050505b50505050565b600083836040516020016129be929190613bc0565b604051602081830303815290604052805190602001208260f81b7effffffffffffffffffffffffffffffffffffffffffffffffffffffffffffff19167f3b4102da22e32d82fc925482184f16c09fd4281692720b87d124aef6da48a0f1181860001c90509392505050565b6000610375612a388484613479565b5490565b60405160208101601f19603f8484010116604052828252611d5185858584612f32565b7f7462000000000000000000000000000000000000000000000000000000000000877fffff0000000000000000000000000000000000000000000000000000000000001614612b1f577f74620000000000000000000000000000000000000000000000000000000000008788604051602001612add91815260200190565b60408051601f19818403018152908290527f31b46683000000000000000000000000000000000000000000000000000000008252610470939291600401613c68565b6000612b3a828760ff166028026038011c64ffffffffff1690565b9050600083518564ffffffffff1683612b53919061374e565b612b5d919061378b565b9050808214158015612b7f575081612b758688613ca9565b64ffffffffff1614155b15612bcf576040517fa65010b400000000000000000000000000000000000000000000000000000000815264ffffffffff8088166004830152808716602483015283166044820152606401610470565b818664ffffffffff161115612c20576040517f7e8578d30000000000000000000000000000000000000000000000000000000081526004810183905264ffffffffff87166024820152604401610470565b6000612c2d8489846134cf565b90506000612c3a8b6133bc565b905060005b8151811015612d05576000828281518110612c5c57612c5c6137c9565b60200260200101519050612c886010826affffffffffffffffffffff191661344590919063ffffffff16565b15612cfc57606081901c6001600160a01b03166355eb5a288e8e8e8e8e8d8f6040518863ffffffff1660e01b8152600401612cc99796959493929190613cce565b600060405180830381600087803b158015612ce357600080fd5b505af1158015612cf7573d6000803e3d6000fd5b505050505b50600101612c3f565b5064ffffffffff881660005b8a60ff168160ff161015612d4457612d38878260ff166028026038011c64ffffffffff1690565b90910190600101612d11565b508b7ffe158a7adba34e256807c8a149028d3162918713c3838afc643ce9f96716ebfd8c8c848c888d604051612d7f96959493929190613d2c565b60405180910390a250828414612da0576000612d9b8c8c613479565b839055505b6000612dad8c8c8c6129a9565b9050612dc1818a64ffffffffff1689613463565b5060005b8151811015612e8b576000828281518110612de257612de26137c9565b60200260200101519050612e0e6020826affffffffffffffffffffff191661344590919063ffffffff16565b15612e8257606081901c6001600160a01b031663635845338e8e8e8e8e8a8f6040518863ffffffff1660e01b8152600401612e4f9796959493929190613cce565b600060405180830381600087803b158015612e6957600080fd5b505af1158015612e7d573d6000803e3d6000fd5b505050505b50600101612dc5565b505050505050505050505050565b60006008612ea96002602061374e565b612eb3919061379e565b9190911c919050565b606081600003612edb5750604080516020810190915260008152610375565b6000612ee7858561262c565b905061222981600085612a3c565b60006008600180612f086002602061374e565b612f12919061374e565b612f1c919061374e565b612f26919061379e565b8260ff911c1692915050565b8215612fb95760208310612f5c57602083048401935060208381612f5857612f58613761565b0692505b8215612fb9576020839003600081841015612f7f5750600019600884021c612f89565b50600019600882021c5b8554600886021b818451168219821617845250818411612faa5750506129a3565b50600194909401939182900391015b5b60208210612fdb5783548152600190930192601f1990910190602001612fba565b81156129a3576000600019600884021c8251865482191691161782525050505050565b60007f8b9d8c8b908d9affffffffffffffffffab9e9d939a8d00000000000000000000820161304d57507e60030220202000000000000000000000000000000000000000000000000000919050565b61029a61307a7f746273746f72650000000000000000005461626c6573000000000000000000008461359d565b602060006126b3565b7f6f74000000000000000000000000000000000000000000000000000000000000867fffff000000000000000000000000000000000000000000000000000000000000160361310f57857f8dbb3a9672eebfd3773e72dd9c102393436816d832c7ba9e1e1ac8fcadcac7a9868686866040516131029493929190613d88565b60405180910390a2611c8a565b600061311a876133bc565b905060005b81518110156131f357600082828151811061313c5761313c6137c9565b602002602001015190506131686001826affffffffffffffffffffff191661344590919063ffffffff16565b156131ea576040517f57066c9c000000000000000000000000000000000000000000000000000000008152606082901c906357066c9c906131b7908c908c908c908c908c908c90600401613dc7565b600060405180830381600087803b1580156131d157600080fd5b505af11580156131e5573d6000803e3d6000fd5b505050505b5060010161311f565b50867f8dbb3a9672eebfd3773e72dd9c102393436816d832c7ba9e1e1ac8fcadcac7a98787878760405161322a9493929190613d88565b60405180910390a2600061323e888861262c565b905060006020870190506132568260008951846135b9565b600061326185612ef5565b11156132e55760006132738a8a613479565b878155905060208601915060008060005b61328d88612ef5565b8160ff1610156132e0576132a28d8d836129a9565b92506132bd8a8260ff166028026038011c64ffffffffff1690565b91506132cc83600084886135b9565b6132d6828661378b565b9450600101613284565b505050505b60005b835181101561193f576000848281518110613305576133056137c9565b602002602001015190506133316002826affffffffffffffffffffff191661344590919063ffffffff16565b156133b3576040517f5b28cdaf000000000000000000000000000000000000000000000000000000008152606082901c90635b28cdaf90613380908e908e908e908e908e908e90600401613dc7565b600060405180830381600087803b15801561339a57600080fd5b505af11580156133ae573d6000803e3d6000fd5b505050505b506001016132e8565b604080516001808252818301909252606091600091906020808301908036833701905050905082816000815181106133f6576133f66137c9565b6020908102919091010152600061342e7f746273746f726500000000000000000053746f7265486f6f6b730000000000008383612247565b90506111316134408260008451611d59565b613678565b60008160ff16826134568560581c90565b1660ff1614905092915050565b6111d1838383516134748560200190565b6135b9565b6000828260405160200161348e929190613bc0565b60408051601f1981840301815291905280516020909101207f14e2fcc58e58e68ec7edc30c8d50dccc3ce2714a623ec81f46b6a63922d76569189392505050565b600064ffffffffff821115613513576040517f7149a3c100000000000000000000000000000000000000000000000000000000815260048101839052602401610470565b8366ffffffffffffff811660ff851660280260380182901c64ffffffffff16808510613545578085038201915061354d565b848103820391505b5064ffffffffff6038602860ff8816020181811b197fffffffffffffffffffffffffffffffffffffffffffffffffff000000000000009490941690921792909216918416901b1790509392505050565b6040805160208101849052908101829052600090606001612641565b821561363357602083106135e3576020830484019350602083816135df576135df613761565b0692505b82156136335760208390036000600019600885021c1990506008850281811c91508351811c90508119875416828216178755508184116136245750506129a3565b50600194909401939182900391015b5b602082106136555780518455600190930192601f1990910190602001613634565b81156129a3576000600019600884021c8554835182191691161785555050505050565b606060006103758360156000612281565b60006020828403121561369b57600080fd5b81357fffffffff000000000000000000000000000000000000000000000000000000008116811461037557600080fd5b6000602082840312156136dd57600080fd5b5035919050565b600080604083850312156136f757600080fd5b50508035926020909101359150565b6000806000806080858703121561371c57600080fd5b5050823594602084013594506040840135936060013592509050565b634e487b7160e01b600052601160045260246000fd5b8181038181111561029a5761029a613738565b634e487b7160e01b600052601260045260246000fd5b60008261378657613786613761565b500690565b8082018082111561029a5761029a613738565b808202811582820484141761029a5761029a613738565b6000826137c4576137c4613761565b500490565b634e487b7160e01b600052603260045260246000fd5b6000602082840312156137f157600080fd5b8151801515811461037557600080fd5b805161ffff811681146121f757600080fd5b6000806040838503121561382657600080fd5b61382f83613801565b915061383d60208401613801565b90509250929050565b634e487b7160e01b600052604160045260246000fd5b60008151808452602080850194506020840160005b8381101561388d57815187529582019590820190600101613871565b509495945050505050565b8481526080602082015260006138b1608083018661385c565b60ff949094166040830152506060015292915050565b6000602082840312156138d957600080fd5b5051919050565b60005b838110156138fb5781810151838201526020016138e3565b50506000910152565b6000815180845261391c8160208601602086016138e0565b601f01601f19169290920160200192915050565b85815260a06020820152600061394960a083018761385c565b60ff8616604084015282810360608401526139648186613904565b9150508260808301529695505050505050565b838152606060208201526000613990606083018561385c565b905060ff83166040830152949350505050565b600082601f8301126139b457600080fd5b815167ffffffffffffffff808211156139cf576139cf613846565b604051601f8301601f19908116603f011681019082821181831017156139f7576139f7613846565b81604052838152866020858801011115613a1057600080fd5b6114868460208301602089016138e0565b600060208284031215613a3357600080fd5b815167ffffffffffffffff811115613a4a57600080fd5b611131848285016139a3565b606081526000613a696060830186613904565b60208301949094525060400152919050565b848152608060208201526000613a94608083018661385c565b60ff851660408401528281036060840152613aaf8185613904565b979650505050505050565b838152606060208201526000613ad3606083018561385c565b9050826040830152949350505050565b600080600060608486031215613af857600080fd5b835167ffffffffffffffff80821115613b1057600080fd5b613b1c878388016139a3565b9450602086015193506040860151915080821115613b3957600080fd5b50613b46868287016139a3565b9150509250925092565b85815260a060208201526000613b6960a083018761385c565b8281036040840152613b7b8187613904565b90508460608401528281036080840152613b958185613904565b98975050505050505050565b600060ff821660ff8103613bb757613bb7613738565b60010192915050565b8281526000602080830184516020860160005b82811015613bef57815184529284019290840190600101613bd3565b5091979650505050505050565b606081526000613c0f606083018661385c565b65ffffffffffff8516602084015282810360408401526114868185613904565b848152608060208201526000613c48608083018661385c565b65ffffffffffff851660408401528281036060840152613aaf8185613904565b7fffff000000000000000000000000000000000000000000000000000000000000841681528260208201526060604082015260006122296060830184613904565b64ffffffffff818116838216019080821115613cc757613cc7613738565b5092915050565b87815260e060208201526000613ce760e083018961385c565b60ff8816604084015264ffffffffff87811660608501528616608084015260a0830185905282810360c0840152613d1e8185613904565b9a9950505050505050505050565b60c081526000613d3f60c083018961385c565b60ff8816602084015265ffffffffffff8716604084015264ffffffffff8616606084015284608084015282810360a0840152613d7b8185613904565b9998505050505050505050565b608081526000613d9b608083018761385c565b8281036020840152613dad8187613904565b90508460408401528281036060840152613aaf8185613904565b86815260c060208201526000613de060c083018861385c565b8281036040840152613df28188613904565b90508560608401528281036080840152613e0c8186613904565b9150508260a083015297965050505050505056fea26469706673582212205797532811ed8713a53cab34974a3bf2611c2f91e9001cae9fd92c47ae3d4a9464736f6c63430008180033","linkReferences":{}},"methodIdentifiers":{"_msgSender()":"119df25f","_msgValue()":"45ec9354","_world()":"e1af802c","buy(uint256,bytes32,uint256,bytes32)":"b702f92b","canRestock(bytes32)":"c9ad107c","isShop(bytes32)":"5dcbb50b","itemBase(uint256)":"d8fa95d7","itemMarkdown(bytes32,uint256)":"7246e48c","itemMarkup(bytes32,uint256)":"da0996cd","itemStock(bytes32,uint256)":"9238e994","restock(bytes32)":"1cb2b85f","sell(uint256,bytes32,uint256,bytes32)":"f479b6ea","shopSystemAddress()":"4ec9c8e3","supportsInterface(bytes4)":"01ffc9a7"},"id":274}