{"abi":[{"type":"function","name":"_msgSender","inputs":[],"outputs":[{"name":"sender","type":"address","internalType":"address"}],"stateMutability":"view"},{"type":"function","name":"_msgValue","inputs":[],"outputs":[{"name":"value","type":"uint256","internalType":"uint256"}],"stateMutability":"pure"},{"type":"function","name":"_world","inputs":[],"outputs":[{"name":"","type":"address","internalType":"address"}],"stateMutability":"view"},{"type":"function","name":"buy","inputs":[{"name":"amount","type":"uint256","internalType":"uint256"},{"name":"shopId","type":"bytes32","internalType":"bytes32"},{"name":"itemIndex","type":"uint256","internalType":"uint256"},{"name":"characterId","type":"bytes32","internalType":"bytes32"}],"outputs":[],"stateMutability":"nonpayable"},{"type":"function","name":"canRestock","inputs":[{"name":"shopId","type":"bytes32","internalType":"bytes32"}],"outputs":[{"name":"","type":"bool","internalType":"bool"}],"stateMutability":"view"},{"type":"function","name":"itemBase","inputs":[{"name":"itemId","type":"uint256","internalType":"uint256"}],"outputs":[{"name":"","type":"uint256","internalType":"uint256"}],"stateMutability":"view"},{"type":"function","name":"itemMarkdown","inputs":[{"name":"shopId","type":"bytes32","internalType":"bytes32"},{"name":"itemId","type":"uint256","internalType":"uint256"}],"outputs":[{"name":"","type":"uint256","internalType":"uint256"}],"stateMutability":"view"},{"type":"function","name":"itemMarkup","inputs":[{"name":"shopId","type":"bytes32","internalType":"bytes32"},{"name":"itemId","type":"uint256","internalType":"uint256"}],"outputs":[{"name":"","type":"uint256","internalType":"uint256"}],"stateMutability":"view"},{"type":"function","name":"itemStock","inputs":[{"name":"shopId","type":"bytes32","internalType":"bytes32"},{"name":"itemIndex","type":"uint256","internalType":"uint256"}],"outputs":[{"name":"","type":"uint256","internalType":"uint256"}],"stateMutability":"view"},{"type":"function","name":"restock","inputs":[{"name":"shopId","type":"bytes32","internalType":"bytes32"}],"outputs":[{"name":"","type":"bool","internalType":"bool"}],"stateMutability":"nonpayable"},{"type":"function","name":"sell","inputs":[{"name":"amount","type":"uint256","internalType":"uint256"},{"name":"shopId","type":"bytes32","internalType":"bytes32"},{"name":"itemIndex","type":"uint256","internalType":"uint256"},{"name":"characterId","type":"bytes32","internalType":"bytes32"}],"outputs":[],"stateMutability":"nonpayable"},{"type":"function","name":"shopSystemAddress","inputs":[],"outputs":[{"name":"","type":"address","internalType":"address"}],"stateMutability":"view"},{"type":"function","name":"supportsInterface","inputs":[{"name":"interfaceId","type":"bytes4","internalType":"bytes4"}],"outputs":[{"name":"","type":"bool","internalType":"bool"}],"stateMutability":"pure"},{"type":"event","name":"Store_SetRecord","inputs":[{"name":"tableId","type":"bytes32","indexed":true,"internalType":"ResourceId"},{"name":"keyTuple","type":"bytes32[]","indexed":false,"internalType":"bytes32[]"},{"name":"staticData","type":"bytes","indexed":false,"internalType":"bytes"},{"name":"encodedLengths","type":"bytes32","indexed":false,"internalType":"EncodedLengths"},{"name":"dynamicData","type":"bytes","indexed":false,"internalType":"bytes"}],"anonymous":false},{"type":"event","name":"Store_SpliceDynamicData","inputs":[{"name":"tableId","type":"bytes32","indexed":true,"internalType":"ResourceId"},{"name":"keyTuple","type":"bytes32[]","indexed":false,"internalType":"bytes32[]"},{"name":"dynamicFieldIndex","type":"uint8","indexed":false,"internalType":"uint8"},{"name":"start","type":"uint48","indexed":false,"internalType":"uint48"},{"name":"deleteCount","type":"uint40","indexed":false,"internalType":"uint40"},{"name":"encodedLengths","type":"bytes32","indexed":false,"internalType":"EncodedLengths"},{"name":"data","type":"bytes","indexed":false,"internalType":"bytes"}],"anonymous":false},{"type":"event","name":"Store_SpliceStaticData","inputs":[{"name":"tableId","type":"bytes32","indexed":true,"internalType":"ResourceId"},{"name":"keyTuple","type":"bytes32[]","indexed":false,"internalType":"bytes32[]"},{"name":"start","type":"uint48","indexed":false,"internalType":"uint48"},{"name":"data","type":"bytes","indexed":false,"internalType":"bytes"}],"anonymous":false},{"type":"error","name":"EncodedLengths_InvalidLength","inputs":[{"name":"length","type":"uint256","internalType":"uint256"}]},{"type":"error","name":"ReentrancyGuardReentrantCall","inputs":[]},{"type":"error","name":"Slice_OutOfBounds","inputs":[{"name":"data","type":"bytes","internalType":"bytes"},{"name":"start","type":"uint256","internalType":"uint256"},{"name":"end","type":"uint256","internalType":"uint256"}]},{"type":"error","name":"Store_IndexOutOfBounds","inputs":[{"name":"length","type":"uint256","internalType":"uint256"},{"name":"accessedIndex","type":"uint256","internalType":"uint256"}]},{"type":"error","name":"Store_InvalidResourceType","inputs":[{"name":"expected","type":"bytes2","internalType":"bytes2"},{"name":"resourceId","type":"bytes32","internalType":"ResourceId"},{"name":"resourceIdString","type":"string","internalType":"string"}]},{"type":"error","name":"Store_InvalidSplice","inputs":[{"name":"startWithinField","type":"uint40","internalType":"uint40"},{"name":"deleteCount","type":"uint40","internalType":"uint40"},{"name":"fieldLength","type":"uint40","internalType":"uint40"}]}],"bytecode":{"object":"0x608060405234801561001057600080fd5b50600160005561358c806100256000396000f3fe608060405234801561001057600080fd5b50600436106100df5760003560e01c80639238e9941161008c578063d8fa95d711610066578063d8fa95d7146101a8578063da0996cd146101bb578063e1af802c146101ce578063f479b6ea146101d657600080fd5b80639238e9941461016d578063b702f92b14610180578063c9ad107c1461019557600080fd5b806345ec9354116100bd57806345ec93541461013f5780634ec9c8e3146101545780637246e48c1461015a57600080fd5b806301ffc9a7146100e4578063119df25f1461010c5780631cb2b85f1461012c575b600080fd5b6100f76100f2366004612e7b565b6101e9565b60405190151581526020015b60405180910390f35b610114610282565b6040516001600160a01b039091168152602001610103565b6100f761013a366004612ebd565b610291565b36601f1901355b604051908152602001610103565b30610114565b610146610168366004612ed6565b61032f565b61014661017b366004612ed6565b610361565b61019361018e366004612ef8565b61038d565b005b6100f76101a3366004612ebd565b6108d4565b6101466101b6366004612ebd565b610914565b6101466101c9366004612ed6565b61091f565b61011461095d565b6101936101e4366004612ef8565b610967565b60007fffffffff0000000000000000000000000000000000000000000000000000000082167fb5dee12700000000000000000000000000000000000000000000000000000000148061027c57507fffffffff0000000000000000000000000000000000000000000000000000000082167f01ffc9a700000000000000000000000000000000000000000000000000000000145b92915050565b600061028c610ec3565b905090565b600061029c826108d4565b156103275760006102ac83610ef5565b9050600061a8c06102bd8342612f40565b6102c79190612f69565b905060006102d58242612f40565b90506102ec856102e78361a8c0612f7d565b610f73565b60006102f786611010565b9050600061030487611092565b90506103108783611108565b61031a8782611176565b5060019695505050505050565b506000919050565b600061271061033d846111ed565b61034684610914565b6103509190612f90565b61035a9190612fa7565b9392505050565b600061036c83611263565b828151811061037d5761037d612fbb565b6020026020010151905092915050565b61039561095d565b6001600160a01b03166343def638826103ac610282565b6040517fffffffff0000000000000000000000000000000000000000000000000000000060e085901b16815260048101929092526001600160a01b03166024820152604401602060405180830381865afa15801561040e573d6000803e3d6000fd5b505050506040513d601f19601f820116820180604052508101906104329190612fd1565b6104a95760405162461bcd60e51b815260206004820152602360248201527f43616e6e6f742062757920616e206974656d20666f7220736f6d656f6e65206560448201527f6c7365000000000000000000000000000000000000000000000000000000000060648201526084015b60405180910390fd5b6000806104b461095d565b6001600160a01b0316638b4ce3e5846040518263ffffffff1660e01b81526004016104e191815260200190565b6040805180830381865afa1580156104fd573d6000803e3d6000fd5b505050506040513d601f19601f820116820180604052508101906105219190613005565b9150915061052d61095d565b6040517ff48a39720000000000000000000000000000000000000000000000000000000081526004810187905261ffff8085166024830152831660448201526001600160a01b03919091169063f48a397290606401602060405180830381865afa15801561059f573d6000803e3d6000fd5b505050506040513d601f19601f820116820180604052508101906105c39190612fd1565b15156001146106395760405162461bcd60e51b8152602060048201526024808201527f43616e6e6f74206275792066726f6d20612073686f702061742061206469737460448201527f616e63650000000000000000000000000000000000000000000000000000000060648201526084016104a0565b6000610644866112ce565b9050600061065187611263565b90508781878151811061066657610666612fbb565b602002602001015110156106bc5760405162461bcd60e51b815260206004820152601260248201527f696e73756666696369656e742073746f636b000000000000000000000000000060448201526064016104a0565b878187815181106106cf576106cf612fbb565b60200260200101516106e19190612f40565b8187815181106106f3576106f3612fbb565b6020026020010181815250506107098782611108565b600061072e8884898151811061072157610721612fbb565b602002602001015161091f565b610738908a612f90565b905061075788826107488b611339565b6107529190612f7d565b611176565b61075f6113ae565b6001600160a01b03166323b872dd610775610282565b61077d611416565b6040517fffffffff0000000000000000000000000000000000000000000000000000000060e085901b1681526001600160a01b03928316600482015291166024820152604481018490526064016020604051808303816000875af11580156107e9573d6000803e3d6000fd5b505050506040513d601f19601f8201168201806040525081019061080d9190612fd1565b5061081661095d565b6001600160a01b031663cd9caca287858a8151811061083757610837612fbb565b60200260200101518c6040518463ffffffff1660e01b815260040161086f939291909283526020830191909152604082015260600190565b600060405180830381600087803b15801561088957600080fd5b505af115801561089d573d6000803e3d6000fd5b505050506108c98887858a815181106108b8576108b8612fbb565b602002602001015142600186611449565b505050505050505050565b6000806108e083610ef5565b9050428111156108f35750600092915050565b61a8c06109008242612f40565b1061090e5750600192915050565b50919050565b600061027c82611546565b600061271061092d846115db565b61093684610914565b6109409190612f90565b61094a9190612fa7565b61095383610914565b61035a9190612f7d565b600061028c611651565b61096f61095d565b6001600160a01b03166343def63882610986610282565b6040517fffffffff0000000000000000000000000000000000000000000000000000000060e085901b16815260048101929092526001600160a01b03166024820152604401602060405180830381865afa1580156109e8573d6000803e3d6000fd5b505050506040513d601f19601f82011682018060405250810190610a0c9190612fd1565b610a7d5760405162461bcd60e51b8152602060048201526024808201527f43616e6e6f742073656c6c20616e206974656d20666f7220736f6d656f6e652060448201527f656c73650000000000000000000000000000000000000000000000000000000060648201526084016104a0565b600080610a8861095d565b6001600160a01b0316638b4ce3e5846040518263ffffffff1660e01b8152600401610ab591815260200190565b6040805180830381865afa158015610ad1573d6000803e3d6000fd5b505050506040513d601f19601f82011682018060405250810190610af59190613005565b91509150610b0161095d565b6040517ff48a39720000000000000000000000000000000000000000000000000000000081526004810187905261ffff8085166024830152831660448201526001600160a01b03919091169063f48a397290606401602060405180830381865afa158015610b73573d6000803e3d6000fd5b505050506040513d601f19601f82011682018060405250810190610b979190612fd1565b1515600114610c0e5760405162461bcd60e51b815260206004820152602360248201527f43616e6e6f742073656c6c20746f20612073686f70206174206120646973746160448201527f6e6365000000000000000000000000000000000000000000000000000000000060648201526084016104a0565b6000610c1986611263565b90506000610c268761165b565b9050610c4b87828881518110610c3e57610c3e612fbb565b602002602001015161032f565b610c559089612f90565b610c5e88611339565b1015610cac5760405162461bcd60e51b815260206004820152601e60248201527f53686f7020646f6573206e6f74206861766520656e6f75676820676f6c64000060448201526064016104a0565b87828781518110610cbf57610cbf612fbb565b6020026020010151610cd19190612f7d565b828781518110610ce357610ce3612fbb565b602002602001018181525050610cf98783611108565b6000610d1188838981518110610c3e57610c3e612fbb565b610d1b908a612f90565b9050610d358882610d2b8b611339565b6107529190612f40565b6000610d408961165b565b9050610d4a6116c5565b6001600160a01b031663fe99049a610d60610282565b610d68611416565b848c81518110610d7a57610d7a612fbb565b60209081029190910101516040517fffffffff0000000000000000000000000000000000000000000000000000000060e086901b1681526001600160a01b0393841660048201529290911660248301526044820152606481018d9052608401600060405180830381600087803b158015610df357600080fd5b505af1158015610e07573d6000803e3d6000fd5b50505050610e1361095d565b6040517fbcf0229a00000000000000000000000000000000000000000000000000000000815260048101899052602481018490526001600160a01b03919091169063bcf0229a90604401600060405180830381600087803b158015610e7757600080fd5b505af1158015610e8b573d6000803e3d6000fd5b50505050610eb78988858b81518110610ea657610ea6612fbb565b602002602001015142600087611449565b50505050505050505050565b7fffffffffffffffffffffffffffffffffffffffffffffffffffffffffffffffcc36013560601c80610ef25750335b90565b604080516001808252818301909252600091829190602080830190803683370190505090508281600081518110610f2e57610f2e612fbb565b60209081029190910101526000610f6b747462554400000000000000000000000053686f707360581b83600467050028210101010160bd1b61171f565b949350505050565b604080516001808252818301909252600091602080830190803683370190505090508281600081518110610fa957610fa9612fbb565b60200260200101818152505061100b747462554400000000000000000000000053686f707360581b60001b82600485604051602001610fea91815260200190565b60408051601f1981840301815291905267050028210101010160bd1b6117dc565b505050565b6040805160018082528183019092526060916000919060208083019080368337019050509050828160008151811061104a5761104a612fbb565b6020908102919091010152600061107b747462554400000000000000000000000053686f707360581b83600261188d565b9050610f6b61108d8260008451611954565b6119e2565b6040805160018082528183019092526000918291906020808301908036833701905050905082816000815181106110cb576110cb612fbb565b60209081029190910101526000610f6b747462554400000000000000000000000053686f707360581b83600167050028210101010160bd1b61171f565b60408051600180825281830190925260009160208083019080368337019050509050828160008151811061113e5761113e612fbb565b602090810291909101015261100b747462554400000000000000000000000053686f707360581b826003611171866119f3565b611a03565b6040805160018082528183019092526000916020808301908036833701905050905082816000815181106111ac576111ac612fbb565b60200260200101818152505061100b747462554400000000000000000000000053686f707360581b60001b82600085604051602001610fea91815260200190565b60408051600180825281830190925260009182919060208083019080368337019050509050828160008151811061122657611226612fbb565b60209081029190910101526000610f6b747462554400000000000000000000000053686f707360581b83600367050028210101010160bd1b61171f565b6040805160018082528183019092526060916000919060208083019080368337019050509050828160008151811061129d5761129d612fbb565b6020908102919091010152600061107b747462554400000000000000000000000053686f707360581b83600361188d565b6040805160018082528183019092526060916000919060208083019080368337019050509050828160008151811061130857611308612fbb565b6020908102919091010152600061107b747462554400000000000000000000000053686f707360581b83600161188d565b60408051600180825281830190925260009182919060208083019080368337019050509050828160008151811061137257611372612fbb565b60209081029190910101526000610f6b747462554400000000000000000000000053686f707360581b838367050028210101010160bd1b61171f565b60408051600080825260208201909252600061140c7f74625544000000000000000000000000556c74696d617465446f6d696e696f6e8360017e9908000114141414141420000000000000000000000000000000000000000061171f565b60601c9392505050565b600061028c6114447f5544000000000000000000000000000000000000000000000000000000000000611ab0565b611afd565b6040805183151560f81b602082015260218082018490528251808303909101815260046041830181815260e18401909452909260009260609284929160610160808036833701905050905089816000815181106114a8576114a8612fbb565b60200260200101818152505088816001815181106114c8576114c8612fbb565b6020026020010181815250508760001b816002815181106114eb576114eb612fbb565b6020026020010181815250508660001b8160038151811061150e5761150e612fbb565b6020908102919091010152610eb77f6f74554400000000000000000000000053686f7053616c65000000000000000082868686611b99565b604080516001808252818301909252600091829190602080830190803683370190505090508260001b8160008151811061158257611582612fbb565b60209081029190910101526000610f6b7f746255440000000000000000000000004974656d7300000000000000000000008360027e4103010120200000000000000000000000000000000000000000000000000061171f565b60408051600180825281830190925260009182919060208083019080368337019050509050828160008151811061161457611614612fbb565b60209081029190910101526000610f6b747462554400000000000000000000000053686f707360581b83600267050028210101010160bd1b61171f565b600061028c611c0f565b6040805160018082528183019092526060916000919060208083019080368337019050509050828160008151811061169557611695612fbb565b6020908102919091010152600061107b747462554400000000000000000000000053686f707360581b838361188d565b60408051600080825260208201909252600061140c7f74625544000000000000000000000000556c74696d617465446f6d696e696f6e8360037e990800011414141414142000000000000000000000000000000000000000005b60008061172a611c0f565b9050306001600160a01b038216036117505761174886868686611c4e565b915050610f6b565b6040517f8c364d590000000000000000000000000000000000000000000000000000000081526001600160a01b03821690638c364d599061179b90899089908990899060040161308a565b602060405180830381865afa1580156117b8573d6000803e3d6000fd5b505050506040513d601f19601f8201168201806040525081019061174891906130b9565b60006117e6611c0f565b9050306001600160a01b0382160361180a576118058686868686611c84565b611885565b6040517f390baae00000000000000000000000000000000000000000000000000000000081526001600160a01b0382169063390baae0906118579089908990899089908990600401613122565b600060405180830381600087803b15801561187157600080fd5b505af1158015610eb7573d6000803e3d6000fd5b505050505050565b60606000611899611c0f565b9050306001600160a01b038216036118be576118b6858585611c99565b91505061035a565b6040517f1e7889770000000000000000000000000000000000000000000000000000000081526001600160a01b03821690631e7889779061190790889088908890600401613169565b600060405180830381865afa158015611924573d6000803e3d6000fd5b505050506040513d6000823e601f3d908101601f191682016040526118b69190810190613195565b509392505050565b6000818311806119645750835182115b156119a1578383836040517f23230fa30000000000000000000000000000000000000000000000000000000081526004016104a093929190613242565b602084016119af8482612f7d565b905060006119bd8585612f40565b6fffffffffffffffffffffffffffffffff1660809290921b9190911795945050505050565b6060600061035a8360206000611cd3565b60608161035a8160206000611d4e565b6000611a0d611c0f565b9050306001600160a01b03821603611a3057611a2b85858585611da2565b611aa9565b6040517fef6ea8620000000000000000000000000000000000000000000000000000000081526001600160a01b0382169063ef6ea86290611a7b908890889088908890600401613267565b600060405180830381600087803b158015611a9557600080fd5b505af11580156108c9573d6000803e3d6000fd5b5050505050565b600061027c7f7379000000000000000000000000000000000000000000000000000000000000837f4c6f6f744d616e61676572537973746500000000000000000000000000000000611ddd565b604080516001808252818301909252600091829190602080830190803683370190505090508281600081518110611b3657611b36612fbb565b60209081029190910101526000611b8e7f7462776f726c6400000000000000000053797374656d7300000000000000000083837e1502001401000000000000000000000000000000000000000000000000000061171f565b60601c949350505050565b6000611ba3611c0f565b9050306001600160a01b03821603611bc2576118058686868686611e64565b6040517f298314fb0000000000000000000000000000000000000000000000000000000081526001600160a01b0382169063298314fb90611857908990899089908990899060040161329b565b7f629a4c26e296b22a8e0856e9f6ecb2d1008d7e00081111962cd175fa7488e175546000906001600160a01b031680611c49573391505090565b919050565b6000611c7b611c5d8686611e7a565b60ff858116601b0360080285901c16611c768587611ed0565b611f01565b95945050505050565b611aa98585611c938487611ed0565b85611f52565b6060610f6b611ca98585856121f7565b6000611cce85611cb98989612277565b9060ff166028026038011c64ffffffffff1690565b61228a565b60606000611ce18560801c90565b90506fffffffffffffffffffffffffffffffff85166000858281611d0757611d07612f53565b04905060405193506020840160208202810160405281855260005b82811015611d42578451871c825293870193602090910190600101611d22565b50505050509392505050565b82516060906000611d5f8583612f90565b9050604051925060208301601f19603f83860101166040528184526000602088015b84821015611d42578051871b83529187019160019190910190602001611d81565b6000611dae8585612277565b90506000611dcb828560ff166028026038011c64ffffffffff1690565b905061188586868660008588886122ad565b6000611deb60706010612f7d565b7fffff00000000000000000000000000000000000000000000000000000000000085167dffffffffffffffffffffffffffff00000000000000000000000000000000601086901c16177fffffffffffffffffffffffffffffffff00000000000000000000000000000000841690911c1790509392505050565b611aa98585858585611e758b6126e7565b61276c565b60008282604051602001611e8f9291906132ec565b60408051601f1981840301815291905280516020909101207f86425bff6b57326c7859e89024fe4f238ca327a1ae4a230180dd2f0e88aaa7d9189392505050565b600080805b8360ff1681101561194c57611ef760ff601b83900360080287901c1683612f7d565b9150600101611ed5565b600060208210611f2757602082048401935060208281611f2357611f23612f53565b0691505b508254600882021b60208290038084111561194c576001850154600882021c82179150509392505050565b7f6f74000000000000000000000000000000000000000000000000000000000000847fffff0000000000000000000000000000000000000000000000000000000000001603611fdc57837f8c0b5119d4cec7b284c6b1b39252a03d1e2f2d7451a5895562524c113bb952be848484604051611fcf93929190613328565b60405180910390a26121f1565b6000611fe88585611e7a565b90506000611ff586612aa5565b905060005b81518110156120ca57600082828151811061201757612017612fbb565b602002602001015190506120436004826affffffffffffffffffffff1916612b2e90919063ffffffff16565b156120c1576040517f964f667d000000000000000000000000000000000000000000000000000000008152606082901c9063964f667d9061208e908b908b908b908b90600401613365565b600060405180830381600087803b1580156120a857600080fd5b505af11580156120bc573d6000803e3d6000fd5b505050505b50600101611ffa565b50857f8c0b5119d4cec7b284c6b1b39252a03d1e2f2d7451a5895562524c113bb952be8686866040516120ff93929190613328565b60405180910390a261211a828565ffffffffffff1685612b4c565b60005b81518110156121ed57600082828151811061213a5761213a612fbb565b602002602001015190506121666008826affffffffffffffffffffff1916612b2e90919063ffffffff16565b156121e4576040517fa8ba8721000000000000000000000000000000000000000000000000000000008152606082901c9063a8ba8721906121b1908b908b908b908b90600401613365565b600060405180830381600087803b1580156121cb57600080fd5b505af11580156121df573d6000803e3d6000fd5b505050505b5060010161211d565b5050505b50505050565b6000838360405160200161220c9291906132ec565b604051602081830303815290604052805190602001208260f81b7effffffffffffffffffffffffffffffffffffffffffffffffffffffffffffff19167f3b4102da22e32d82fc925482184f16c09fd4281692720b87d124aef6da48a0f1181860001c90509392505050565b600061035a6122868484612b62565b5490565b60405160208101601f19603f848401011660405282825261194c85858584612bb8565b7f7462000000000000000000000000000000000000000000000000000000000000877fffff000000000000000000000000000000000000000000000000000000000000161461236d577f7462000000000000000000000000000000000000000000000000000000000000878860405160200161232b91815260200190565b60408051601f19818403018152908290527f31b466830000000000000000000000000000000000000000000000000000000082526104a093929160040161339e565b6000612388828760ff166028026038011c64ffffffffff1690565b9050600083518564ffffffffff16836123a19190612f40565b6123ab9190612f7d565b90508082141580156123cd5750816123c386886133df565b64ffffffffff1614155b1561241d576040517fa65010b400000000000000000000000000000000000000000000000000000000815264ffffffffff80881660048301528087166024830152831660448201526064016104a0565b818664ffffffffff16111561246e576040517f7e8578d30000000000000000000000000000000000000000000000000000000081526004810183905264ffffffffff871660248201526044016104a0565b600061247b848984612c84565b905060006124888b612aa5565b905060005b81518110156125535760008282815181106124aa576124aa612fbb565b602002602001015190506124d66010826affffffffffffffffffffff1916612b2e90919063ffffffff16565b1561254a57606081901c6001600160a01b03166355eb5a288e8e8e8e8e8d8f6040518863ffffffff1660e01b81526004016125179796959493929190613404565b600060405180830381600087803b15801561253157600080fd5b505af1158015612545573d6000803e3d6000fd5b505050505b5060010161248d565b5064ffffffffff881660005b8a60ff168160ff16101561259257612586878260ff166028026038011c64ffffffffff1690565b9091019060010161255f565b508b7ffe158a7adba34e256807c8a149028d3162918713c3838afc643ce9f96716ebfd8c8c848c888d6040516125cd96959493929190613462565b60405180910390a2508284146125ee5760006125e98c8c612b62565b839055505b60006125fb8c8c8c6121f7565b905061260f818a64ffffffffff1689612b4c565b5060005b81518110156126d957600082828151811061263057612630612fbb565b6020026020010151905061265c6020826affffffffffffffffffffff1916612b2e90919063ffffffff16565b156126d057606081901c6001600160a01b031663635845338e8e8e8e8e8a8f6040518863ffffffff1660e01b815260040161269d9796959493929190613404565b600060405180830381600087803b1580156126b757600080fd5b505af11580156126cb573d6000803e3d6000fd5b505050505b50600101612613565b505050505050505050505050565b60007f8b9d8c8b908d9affffffffffffffffffab9e9d939a8d00000000000000000000820161273657507e60030220202000000000000000000000000000000000000000000000000000919050565b61027c6127637f746273746f72650000000000000000005461626c65730000000000000000000084612d52565b60206000611f01565b7f6f74000000000000000000000000000000000000000000000000000000000000867fffff00000000000000000000000000000000000000000000000000000000000016036127f857857f8dbb3a9672eebfd3773e72dd9c102393436816d832c7ba9e1e1ac8fcadcac7a9868686866040516127eb94939291906134be565b60405180910390a2611885565b600061280387612aa5565b905060005b81518110156128dc57600082828151811061282557612825612fbb565b602002602001015190506128516001826affffffffffffffffffffff1916612b2e90919063ffffffff16565b156128d3576040517f57066c9c000000000000000000000000000000000000000000000000000000008152606082901c906357066c9c906128a0908c908c908c908c908c908c906004016134fd565b600060405180830381600087803b1580156128ba57600080fd5b505af11580156128ce573d6000803e3d6000fd5b505050505b50600101612808565b50867f8dbb3a9672eebfd3773e72dd9c102393436816d832c7ba9e1e1ac8fcadcac7a98787878760405161291394939291906134be565b60405180910390a260006129278888611e7a565b9050600060208701905061293f826000895184612d6e565b600061294a85612e2d565b11156129ce57600061295c8a8a612b62565b878155905060208601915060008060005b61297688612e2d565b8160ff1610156129c95761298b8d8d836121f7565b92506129a68a8260ff166028026038011c64ffffffffff1690565b91506129b58360008488612d6e565b6129bf8286612f7d565b945060010161296d565b505050505b60005b8351811015610eb75760008482815181106129ee576129ee612fbb565b60200260200101519050612a1a6002826affffffffffffffffffffff1916612b2e90919063ffffffff16565b15612a9c576040517f5b28cdaf000000000000000000000000000000000000000000000000000000008152606082901c90635b28cdaf90612a69908e908e908e908e908e908e906004016134fd565b600060405180830381600087803b158015612a8357600080fd5b505af1158015612a97573d6000803e3d6000fd5b505050505b506001016129d1565b60408051600180825281830190925260609160009190602080830190803683370190505090508281600081518110612adf57612adf612fbb565b60209081029190910101526000612b177f746273746f726500000000000000000053746f7265486f6f6b730000000000008383611c99565b9050610f6b612b298260008451611954565b612e6a565b60008160ff1682612b3f8560581c90565b1660ff1614905092915050565b61100b83838351612b5d8560200190565b612d6e565b60008282604051602001612b779291906132ec565b60408051601f1981840301815291905280516020909101207f14e2fcc58e58e68ec7edc30c8d50dccc3ce2714a623ec81f46b6a63922d76569189392505050565b8215612c3f5760208310612be257602083048401935060208381612bde57612bde612f53565b0692505b8215612c3f576020839003600081841015612c055750600019600884021c612c0f565b50600019600882021c5b8554600886021b818451168219821617845250818411612c305750506121f1565b50600194909401939182900391015b5b60208210612c615783548152600190930192601f1990910190602001612c40565b81156121f1576000600019600884021c8251865482191691161782525050505050565b600064ffffffffff821115612cc8576040517f7149a3c1000000000000000000000000000000000000000000000000000000008152600481018390526024016104a0565b8366ffffffffffffff811660ff851660280260380182901c64ffffffffff16808510612cfa5780850382019150612d02565b848103820391505b5064ffffffffff6038602860ff8816020181811b197fffffffffffffffffffffffffffffffffffffffffffffffffff000000000000009490941690921792909216918416901b1790509392505050565b6040805160208101849052908101829052600090606001611e8f565b8215612de85760208310612d9857602083048401935060208381612d9457612d94612f53565b0692505b8215612de85760208390036000600019600885021c1990506008850281811c91508351811c9050811987541682821617875550818411612dd95750506121f1565b50600194909401939182900391015b5b60208210612e0a5780518455600190930192601f1990910190602001612de9565b81156121f1576000600019600884021c8554835182191691161785555050505050565b60006008600180612e4060026020612f40565b612e4a9190612f40565b612e549190612f40565b612e5e9190612f90565b8260ff911c1692915050565b6060600061035a8360156000611cd3565b600060208284031215612e8d57600080fd5b81357fffffffff000000000000000000000000000000000000000000000000000000008116811461035a57600080fd5b600060208284031215612ecf57600080fd5b5035919050565b60008060408385031215612ee957600080fd5b50508035926020909101359150565b60008060008060808587031215612f0e57600080fd5b5050823594602084013594506040840135936060013592509050565b634e487b7160e01b600052601160045260246000fd5b8181038181111561027c5761027c612f2a565b634e487b7160e01b600052601260045260246000fd5b600082612f7857612f78612f53565b500690565b8082018082111561027c5761027c612f2a565b808202811582820484141761027c5761027c612f2a565b600082612fb657612fb6612f53565b500490565b634e487b7160e01b600052603260045260246000fd5b600060208284031215612fe357600080fd5b8151801515811461035a57600080fd5b805161ffff81168114611c4957600080fd5b6000806040838503121561301857600080fd5b61302183612ff3565b915061302f60208401612ff3565b90509250929050565b634e487b7160e01b600052604160045260246000fd5b60008151808452602080850194506020840160005b8381101561307f57815187529582019590820190600101613063565b509495945050505050565b8481526080602082015260006130a3608083018661304e565b60ff949094166040830152506060015292915050565b6000602082840312156130cb57600080fd5b5051919050565b60005b838110156130ed5781810151838201526020016130d5565b50506000910152565b6000815180845261310e8160208601602086016130d2565b601f01601f19169290920160200192915050565b85815260a06020820152600061313b60a083018761304e565b60ff86166040840152828103606084015261315681866130f6565b9150508260808301529695505050505050565b838152606060208201526000613182606083018561304e565b905060ff83166040830152949350505050565b6000602082840312156131a757600080fd5b815167ffffffffffffffff808211156131bf57600080fd5b818401915084601f8301126131d357600080fd5b8151818111156131e5576131e5613038565b604051601f8201601f19908116603f0116810190838211818310171561320d5761320d613038565b8160405282815287602084870101111561322657600080fd5b6132378360208301602088016130d2565b979650505050505050565b60608152600061325560608301866130f6565b60208301949094525060400152919050565b848152608060208201526000613280608083018661304e565b60ff85166040840152828103606084015261323781856130f6565b85815260a0602082015260006132b460a083018761304e565b82810360408401526132c681876130f6565b905084606084015282810360808401526132e081856130f6565b98975050505050505050565b8281526000602080830184516020860160005b8281101561331b578151845292840192908401906001016132ff565b5091979650505050505050565b60608152600061333b606083018661304e565b65ffffffffffff85166020840152828103604084015261335b81856130f6565b9695505050505050565b84815260806020820152600061337e608083018661304e565b65ffffffffffff85166040840152828103606084015261323781856130f6565b7fffff00000000000000000000000000000000000000000000000000000000000084168152826020820152606060408201526000611c7b60608301846130f6565b64ffffffffff8181168382160190808211156133fd576133fd612f2a565b5092915050565b87815260e06020820152600061341d60e083018961304e565b60ff8816604084015264ffffffffff87811660608501528616608084015260a0830185905282810360c084015261345481856130f6565b9a9950505050505050505050565b60c08152600061347560c083018961304e565b60ff8816602084015265ffffffffffff8716604084015264ffffffffff8616606084015284608084015282810360a08401526134b181856130f6565b9998505050505050505050565b6080815260006134d1608083018761304e565b82810360208401526134e381876130f6565b9050846040840152828103606084015261323781856130f6565b86815260c06020820152600061351660c083018861304e565b828103604084015261352881886130f6565b9050856060840152828103608084015261354281866130f6565b9150508260a083015297965050505050505056fea2646970667358221220dbd256ed6a93d8886ab143c491b3f00708f2c832b9f7c13f468527eb5612da0864736f6c63430008180033","linkReferences":{}},"methodIdentifiers":{"_msgSender()":"119df25f","_msgValue()":"45ec9354","_world()":"e1af802c","buy(uint256,bytes32,uint256,bytes32)":"b702f92b","canRestock(bytes32)":"c9ad107c","itemBase(uint256)":"d8fa95d7","itemMarkdown(bytes32,uint256)":"7246e48c","itemMarkup(bytes32,uint256)":"da0996cd","itemStock(bytes32,uint256)":"9238e994","restock(bytes32)":"1cb2b85f","sell(uint256,bytes32,uint256,bytes32)":"f479b6ea","shopSystemAddress()":"4ec9c8e3","supportsInterface(bytes4)":"01ffc9a7"},"id":273}