{"abi":[{"type":"function","name":"_msgSender","inputs":[],"outputs":[{"name":"sender","type":"address","internalType":"address"}],"stateMutability":"view"},{"type":"function","name":"_msgValue","inputs":[],"outputs":[{"name":"value","type":"uint256","internalType":"uint256"}],"stateMutability":"pure"},{"type":"function","name":"_world","inputs":[],"outputs":[{"name":"","type":"address","internalType":"address"}],"stateMutability":"view"},{"type":"function","name":"buy","inputs":[{"name":"amount","type":"uint256","internalType":"uint256"},{"name":"shopId","type":"bytes32","internalType":"bytes32"},{"name":"itemIndex","type":"uint256","internalType":"uint256"},{"name":"characterId","type":"bytes32","internalType":"bytes32"}],"outputs":[],"stateMutability":"nonpayable"},{"type":"function","name":"canRestock","inputs":[{"name":"shopId","type":"bytes32","internalType":"bytes32"}],"outputs":[{"name":"","type":"bool","internalType":"bool"}],"stateMutability":"view"},{"type":"function","name":"endShopEncounter","inputs":[{"name":"encounterId","type":"bytes32","internalType":"bytes32"}],"outputs":[],"stateMutability":"nonpayable"},{"type":"function","name":"isShop","inputs":[{"name":"shopId","type":"bytes32","internalType":"bytes32"}],"outputs":[{"name":"","type":"bool","internalType":"bool"}],"stateMutability":"view"},{"type":"function","name":"itemBase","inputs":[{"name":"itemId","type":"uint256","internalType":"uint256"}],"outputs":[{"name":"","type":"uint256","internalType":"uint256"}],"stateMutability":"view"},{"type":"function","name":"itemMarkdown","inputs":[{"name":"shopId","type":"bytes32","internalType":"bytes32"},{"name":"itemId","type":"uint256","internalType":"uint256"}],"outputs":[{"name":"","type":"uint256","internalType":"uint256"}],"stateMutability":"view"},{"type":"function","name":"itemMarkup","inputs":[{"name":"shopId","type":"bytes32","internalType":"bytes32"},{"name":"itemId","type":"uint256","internalType":"uint256"}],"outputs":[{"name":"","type":"uint256","internalType":"uint256"}],"stateMutability":"view"},{"type":"function","name":"itemStock","inputs":[{"name":"shopId","type":"bytes32","internalType":"bytes32"},{"name":"itemIndex","type":"uint256","internalType":"uint256"}],"outputs":[{"name":"","type":"uint256","internalType":"uint256"}],"stateMutability":"view"},{"type":"function","name":"restock","inputs":[{"name":"shopId","type":"bytes32","internalType":"bytes32"}],"outputs":[{"name":"","type":"bool","internalType":"bool"}],"stateMutability":"nonpayable"},{"type":"function","name":"sell","inputs":[{"name":"amount","type":"uint256","internalType":"uint256"},{"name":"shopId","type":"bytes32","internalType":"bytes32"},{"name":"itemIndex","type":"uint256","internalType":"uint256"},{"name":"characterId","type":"bytes32","internalType":"bytes32"}],"outputs":[],"stateMutability":"nonpayable"},{"type":"function","name":"shopSystemAddress","inputs":[],"outputs":[{"name":"","type":"address","internalType":"address"}],"stateMutability":"view"},{"type":"function","name":"supportsInterface","inputs":[{"name":"interfaceId","type":"bytes4","internalType":"bytes4"}],"outputs":[{"name":"","type":"bool","internalType":"bool"}],"stateMutability":"pure"},{"type":"event","name":"Store_SetRecord","inputs":[{"name":"tableId","type":"bytes32","indexed":true,"internalType":"ResourceId"},{"name":"keyTuple","type":"bytes32[]","indexed":false,"internalType":"bytes32[]"},{"name":"staticData","type":"bytes","indexed":false,"internalType":"bytes"},{"name":"encodedLengths","type":"bytes32","indexed":false,"internalType":"EncodedLengths"},{"name":"dynamicData","type":"bytes","indexed":false,"internalType":"bytes"}],"anonymous":false},{"type":"event","name":"Store_SpliceDynamicData","inputs":[{"name":"tableId","type":"bytes32","indexed":true,"internalType":"ResourceId"},{"name":"keyTuple","type":"bytes32[]","indexed":false,"internalType":"bytes32[]"},{"name":"dynamicFieldIndex","type":"uint8","indexed":false,"internalType":"uint8"},{"name":"start","type":"uint48","indexed":false,"internalType":"uint48"},{"name":"deleteCount","type":"uint40","indexed":false,"internalType":"uint40"},{"name":"encodedLengths","type":"bytes32","indexed":false,"internalType":"EncodedLengths"},{"name":"data","type":"bytes","indexed":false,"internalType":"bytes"}],"anonymous":false},{"type":"event","name":"Store_SpliceStaticData","inputs":[{"name":"tableId","type":"bytes32","indexed":true,"internalType":"ResourceId"},{"name":"keyTuple","type":"bytes32[]","indexed":false,"internalType":"bytes32[]"},{"name":"start","type":"uint48","indexed":false,"internalType":"uint48"},{"name":"data","type":"bytes","indexed":false,"internalType":"bytes"}],"anonymous":false},{"type":"error","name":"EncodedLengths_InvalidLength","inputs":[{"name":"length","type":"uint256","internalType":"uint256"}]},{"type":"error","name":"ReentrancyGuardReentrantCall","inputs":[]},{"type":"error","name":"Slice_OutOfBounds","inputs":[{"name":"data","type":"bytes","internalType":"bytes"},{"name":"start","type":"uint256","internalType":"uint256"},{"name":"end","type":"uint256","internalType":"uint256"}]},{"type":"error","name":"Store_IndexOutOfBounds","inputs":[{"name":"length","type":"uint256","internalType":"uint256"},{"name":"accessedIndex","type":"uint256","internalType":"uint256"}]},{"type":"error","name":"Store_InvalidResourceType","inputs":[{"name":"expected","type":"bytes2","internalType":"bytes2"},{"name":"resourceId","type":"bytes32","internalType":"ResourceId"},{"name":"resourceIdString","type":"string","internalType":"string"}]},{"type":"error","name":"Store_InvalidSplice","inputs":[{"name":"startWithinField","type":"uint40","internalType":"uint40"},{"name":"deleteCount","type":"uint40","internalType":"uint40"},{"name":"fieldLength","type":"uint40","internalType":"uint40"}]}],"bytecode":{"object":"0x608060405234801561001057600080fd5b506001600055614107806100256000396000f3fe608060405234801561001057600080fd5b50600436106100f55760003560e01c806373a9556911610097578063d8fa95d711610066578063d8fa95d7146101e4578063da0996cd146101f7578063e1af802c1461020a578063f479b6ea1461021257600080fd5b806373a95569146101965780639238e994146101ab578063b702f92b146101be578063c9ad107c146101d157600080fd5b806345ec9354116100d357806345ec9354146101555780634ec9c8e31461016a5780635dcbb50b146101705780637246e48c1461018357600080fd5b806301ffc9a7146100fa578063119df25f146101225780631cb2b85f14610142575b600080fd5b61010d61010836600461393a565b610225565b60405190151581526020015b60405180910390f35b61012a6102be565b6040516001600160a01b039091168152602001610119565b61010d61015036600461397c565b6102cd565b36601f1901355b604051908152602001610119565b3061012a565b61010d61017e36600461397c565b61036b565b61015c610191366004613995565b61039a565b6101a96101a436600461397c565b6103c5565b005b61015c6101b9366004613995565b6105d4565b6101a96101cc3660046139b7565b610600565b61010d6101df36600461397c565b610be5565b61015c6101f236600461397c565b610c25565b61015c610205366004613995565b610c30565b61012a610c6e565b6101a96102203660046139b7565b610c78565b60007fffffffff0000000000000000000000000000000000000000000000000000000082167fb5dee1270000000000000000000000000000000000000000000000000000000014806102b857507fffffffff0000000000000000000000000000000000000000000000000000000082167f01ffc9a700000000000000000000000000000000000000000000000000000000145b92915050565b60006102c86112b1565b905090565b60006102d882610be5565b156103635760006102e8836112e3565b9050600061a8c06102f983426139ff565b6103039190613a28565b9050600061031182426139ff565b9050610328856103238361a8c0613a3c565b611361565b6000610333866113fe565b9050600061034087611480565b905061034c87836114f6565b6103568782611564565b5060019695505050505050565b506000919050565b600080610377836115db565b9050806020015160001415801561039357506101008101515115155b9392505050565b60006127106103a8846116b8565b6103b184610c25565b6103bb9190613a4f565b6103939190613a66565b60006103d08261172e565b90506103da610c6e565b6001600160a01b031663fa1becc4826040518263ffffffff1660e01b815260040161040791815260200190565b602060405180830381865afa158015610424573d6000803e3d6000fd5b505050506040513d601f19601f820116820180604052508101906104489190613a7a565b80156104f45750610457610c6e565b6001600160a01b03166343def6388261046e6102be565b6040517fffffffff0000000000000000000000000000000000000000000000000000000060e085901b16815260048101929092526001600160a01b03166024820152604401602060405180830381865afa1580156104d0573d6000803e3d6000fd5b505050506040513d601f19601f820116820180604052508101906104f49190613a7a565b6105455760405162461bcd60e51b815260206004820152601b60248201527f63616e206f6e6c79206578697420796f7572206f776e2073686f70000000000060448201526064015b60405180910390fd5b61054d610c6e565b6040517f43c00bf70000000000000000000000000000000000000000000000000000000081526004810184905260006024820181905260448201526001600160a01b0391909116906343c00bf790606401600060405180830381600087803b1580156105b857600080fd5b505af11580156105cc573d6000803e3d6000fd5b505050505050565b60006105df836117bf565b82815181106105f0576105f0613a9c565b6020026020010151905092915050565b600061060b8261182a565b90506000610618826118bb565b9050811580159061062c5750604081015115155b801561063a57506060810151155b80156106495750848160200151145b80156106555750805183145b6106a15760405162461bcd60e51b815260206004820152601660248201527f696e76616c69642073686f7020656e636f756e74657200000000000000000000604482015260640161053c565b6106a9610c6e565b6001600160a01b03166343def638846106c06102be565b6040517fffffffff0000000000000000000000000000000000000000000000000000000060e085901b16815260048101929092526001600160a01b03166024820152604401602060405180830381865afa158015610722573d6000803e3d6000fd5b505050506040513d601f19601f820116820180604052508101906107469190613a7a565b6107b85760405162461bcd60e51b815260206004820152602360248201527f43616e6e6f742062757920616e206974656d20666f7220736f6d656f6e65206560448201527f6c73650000000000000000000000000000000000000000000000000000000000606482015260840161053c565b6000806107c3610c6e565b6001600160a01b0316638b4ce3e5866040518263ffffffff1660e01b81526004016107f091815260200190565b6040805180830381865afa15801561080c573d6000803e3d6000fd5b505050506040513d601f19601f820116820180604052508101906108309190613ac4565b9150915061083c610c6e565b6040517ff48a39720000000000000000000000000000000000000000000000000000000081526004810189905261ffff8085166024830152831660448201526001600160a01b03919091169063f48a397290606401602060405180830381865afa1580156108ae573d6000803e3d6000fd5b505050506040513d601f19601f820116820180604052508101906108d29190613a7a565b15156001146109485760405162461bcd60e51b8152602060048201526024808201527f43616e6e6f74206275792066726f6d20612073686f702061742061206469737460448201527f616e636500000000000000000000000000000000000000000000000000000000606482015260840161053c565b600061095388611980565b90506000610960896117bf565b90508981898151811061097557610975613a9c565b602002602001015110156109cb5760405162461bcd60e51b815260206004820152601260248201527f696e73756666696369656e742073746f636b0000000000000000000000000000604482015260640161053c565b898189815181106109de576109de613a9c565b60200260200101516109f091906139ff565b818981518110610a0257610a02613a9c565b602002602001018181525050610a1889826114f6565b6000610a3d8a848b81518110610a3057610a30613a9c565b6020026020010151610c30565b610a47908c613a4f565b9050610a668a82610a578d6119eb565b610a619190613a3c565b611564565b610a6e611a60565b6001600160a01b03166323b872dd610a846102be565b610a8c611ac8565b6040517fffffffff0000000000000000000000000000000000000000000000000000000060e085901b1681526001600160a01b03928316600482015291166024820152604481018490526064016020604051808303816000875af1158015610af8573d6000803e3d6000fd5b505050506040513d601f19601f82011682018060405250810190610b1c9190613a7a565b50610b25610c6e565b6001600160a01b031663cd9caca289858c81518110610b4657610b46613a9c565b60200260200101518e6040518463ffffffff1660e01b8152600401610b7e939291909283526020830191909152604082015260600190565b600060405180830381600087803b158015610b9857600080fd5b505af1158015610bac573d6000803e3d6000fd5b50505050610bd88a89858c81518110610bc757610bc7613a9c565b602002602001015142600186611afb565b5050505050505050505050565b600080610bf1836112e3565b905042811115610c045750600092915050565b61a8c0610c1182426139ff565b10610c1f5750600192915050565b50919050565b60006102b882611c04565b6000612710610c3e84611c99565b610c4784610c25565b610c519190613a4f565b610c5b9190613a66565b610c6483610c25565b6103939190613a3c565b60006102c8611d0f565b6000610c838261182a565b90506000610c90826118bb565b9050610cbd6040518060800160405280606081526020016060815260200160608152602001600081525090565b8215801590610ccf5750604082015115155b8015610cdd57506060820151155b8015610cec5750858260200151145b8015610cf85750815184145b610d445760405162461bcd60e51b815260206004820152601660248201527f696e76616c69642073686f7020656e636f756e74657200000000000000000000604482015260640161053c565b610d4c610c6e565b6001600160a01b03166343def63885610d636102be565b6040517fffffffff0000000000000000000000000000000000000000000000000000000060e085901b16815260048101929092526001600160a01b03166024820152604401602060405180830381865afa158015610dc5573d6000803e3d6000fd5b505050506040513d601f19601f82011682018060405250810190610de99190613a7a565b610e5a5760405162461bcd60e51b8152602060048201526024808201527f43616e6e6f742073656c6c20616e206974656d20666f7220736f6d656f6e652060448201527f656c736500000000000000000000000000000000000000000000000000000000606482015260840161053c565b600080610e65610c6e565b6001600160a01b0316638b4ce3e5876040518263ffffffff1660e01b8152600401610e9291815260200190565b6040805180830381865afa158015610eae573d6000803e3d6000fd5b505050506040513d601f19601f82011682018060405250810190610ed29190613ac4565b91509150610ede610c6e565b6040517ff48a3972000000000000000000000000000000000000000000000000000000008152600481018a905261ffff8085166024830152831660448201526001600160a01b03919091169063f48a397290606401602060405180830381865afa158015610f50573d6000803e3d6000fd5b505050506040513d601f19601f82011682018060405250810190610f749190613a7a565b1515600114610feb5760405162461bcd60e51b815260206004820152602360248201527f43616e6e6f742073656c6c20746f20612073686f70206174206120646973746160448201527f6e63650000000000000000000000000000000000000000000000000000000000606482015260840161053c565b610ff4886117bf565b8352610fff88611d19565b60208401819052805161102b918a918a90811061101e5761101e613a9c565b602002602001015161039a565b611035908a613a4f565b61103e896119eb565b101561108c5760405162461bcd60e51b815260206004820152601e60248201527f53686f7020646f6573206e6f74206861766520656e6f75676820676f6c640000604482015260640161053c565b88836000015188815181106110a3576110a3613a9c565b60200260200101516110b59190613a3c565b83518051899081106110c9576110c9613a9c565b6020026020010181815250506110e38884600001516114f6565b6110fd888460200151898151811061101e5761101e613a9c565b611107908a613a4f565b6060840181905261112790899061111d826119eb565b610a6191906139ff565b61113088611d19565b604084015261113d611d83565b6001600160a01b031663fe99049a6111536102be565b61115b611ac8565b86604001518b8151811061117157611171613a9c565b60209081029190910101516040517fffffffff0000000000000000000000000000000000000000000000000000000060e086901b1681526001600160a01b0393841660048201529290911660248301526044820152606481018c9052608401600060405180830381600087803b1580156111ea57600080fd5b505af11580156111fe573d6000803e3d6000fd5b5050505061120a610c6e565b6001600160a01b031663bcf0229a8785606001516040518363ffffffff1660e01b8152600401611244929190918252602082015260400190565b600060405180830381600087803b15801561125e57600080fd5b505af1158015611272573d6000803e3d6000fd5b505050506112a6888785602001518a8151811061129157611291613a9c565b60200260200101514260008860600151611afb565b505050505050505050565b7fffffffffffffffffffffffffffffffffffffffffffffffffffffffffffffffcc36013560601c806112e05750335b90565b60408051600180825281830190925260009182919060208083019080368337019050509050828160008151811061131c5761131c613a9c565b60209081029190910101526000611359747462554400000000000000000000000053686f707360581b83600467050028210101010160bd1b611ddd565b949350505050565b60408051600180825281830190925260009160208083019080368337019050509050828160008151811061139757611397613a9c565b6020026020010181815250506113f9747462554400000000000000000000000053686f707360581b60001b826004856040516020016113d891815260200190565b60408051601f1981840301815291905267050028210101010160bd1b611e9a565b505050565b6040805160018082528183019092526060916000919060208083019080368337019050509050828160008151811061143857611438613a9c565b60209081029190910101526000611469747462554400000000000000000000000053686f707360581b836002611f43565b905061135961147b826000845161200a565b612098565b6040805160018082528183019092526000918291906020808301908036833701905050905082816000815181106114b9576114b9613a9c565b60209081029190910101526000611359747462554400000000000000000000000053686f707360581b83600167050028210101010160bd1b611ddd565b60408051600180825281830190925260009160208083019080368337019050509050828160008151811061152c5761152c613a9c565b60209081029190910101526113f9747462554400000000000000000000000053686f707360581b82600361155f866120a9565b6120b9565b60408051600180825281830190925260009160208083019080368337019050509050828160008151811061159a5761159a613a9c565b6020026020010181815250506113f9747462554400000000000000000000000053686f707360581b60001b826000856040516020016113d891815260200190565b61162a6040518061012001604052806000815260200160008152602001600081526020016000815260200160008152602001606081526020016060815260200160608152602001606081525090565b60408051600180825281830190925260009160208083019080368337019050509050828160008151811061166057611660613a9c565b60209081029190910101526000808061169d747462554400000000000000000000000053686f707360581b8567050028210101010160bd1b612166565b9250925092506116ae838383612236565b9695505050505050565b6040805160018082528183019092526000918291906020808301908036833701905050905082816000815181106116f1576116f1613a9c565b60209081029190910101526000611359747462554400000000000000000000000053686f707360581b83600367050028210101010160bd1b611ddd565b60408051600180825281830190925260009182919060208083019080368337019050509050828160008151811061176757611767613a9c565b602090810291909101015260006113597f74625544000000000000000000000000576f726c64456e636f756e746572000083837e80040020202020000000000000000000000000000000000000000000000000611ddd565b604080516001808252818301909252606091600091906020808301908036833701905050905082816000815181106117f9576117f9613a9c565b60209081029190910101526000611469747462554400000000000000000000000053686f707360581b836003611f43565b60408051600180825281830190925260009182919060208083019080368337019050509050828160008151811061186357611863613a9c565b602090810291909101015260006113597f74625544000000000000000000000000456e636f756e746572456e746974790083837e41030120012000000000000000000000000000000000000000000000000000611ddd565b6040805160808101825260008082526020820181905281830181905260608201819052825160018082528185019094529192909190816020016020820280368337019050509050828160008151811061191657611916613a9c565b60209081029190910101526000808061196f7f74625544000000000000000000000000576f726c64456e636f756e7465720000857e80040020202020000000000000000000000000000000000000000000000000612166565b9250925092506116ae8383836122ca565b604080516001808252818301909252606091600091906020808301908036833701905050905082816000815181106119ba576119ba613a9c565b60209081029190910101526000611469747462554400000000000000000000000053686f707360581b836001611f43565b604080516001808252818301909252600091829190602080830190803683370190505090508281600081518110611a2457611a24613a9c565b60209081029190910101526000611359747462554400000000000000000000000053686f707360581b838367050028210101010160bd1b611ddd565b604080516000808252602082019092526000611abe7f74625544000000000000000000000000556c74696d617465446f6d696e696f6e8360017e99080001141414141414200000000000000000000000000000000000000000611ddd565b60601c9392505050565b60006102c8611af67f554400000000000000000000000000000000000000000000000000000000000061230f565b61235c565b6040805183151560f81b602082015260218082018490528251808303909101815260046041830181815260e1840190945290926000926060928492916061016080803683370190505090508981600081518110611b5a57611b5a613a9c565b6020026020010181815250508881600181518110611b7a57611b7a613a9c565b6020026020010181815250508760001b81600281518110611b9d57611b9d613a9c565b6020026020010181815250508660001b81600381518110611bc057611bc0613a9c565b6020908102919091010152611bf87f6f74554400000000000000000000000053686f7053616c650000000000000000828686866123f8565b50505050505050505050565b604080516001808252818301909252600091829190602080830190803683370190505090508260001b81600081518110611c4057611c40613a9c565b602090810291909101015260006113597f746255440000000000000000000000004974656d7300000000000000000000008360027e41030101202000000000000000000000000000000000000000000000000000611ddd565b604080516001808252818301909252600091829190602080830190803683370190505090508281600081518110611cd257611cd2613a9c565b60209081029190910101526000611359747462554400000000000000000000000053686f707360581b83600267050028210101010160bd1b611ddd565b60006102c861246e565b60408051600180825281830190925260609160009190602080830190803683370190505090508281600081518110611d5357611d53613a9c565b60209081029190910101526000611469747462554400000000000000000000000053686f707360581b8383611f43565b604080516000808252602082019092526000611abe7f74625544000000000000000000000000556c74696d617465446f6d696e696f6e8360037e990800011414141414142000000000000000000000000000000000000000005b600080611de861246e565b9050306001600160a01b03821603611e0e57611e06868686866124ad565b915050611359565b6040517f8c364d590000000000000000000000000000000000000000000000000000000081526001600160a01b03821690638c364d5990611e59908990899089908990600401613b49565b602060405180830381865afa158015611e76573d6000803e3d6000fd5b505050506040513d601f19601f82011682018060405250810190611e069190613b78565b6000611ea461246e565b9050306001600160a01b03821603611ec857611ec386868686866124e3565b6105cc565b6040517f390baae00000000000000000000000000000000000000000000000000000000081526001600160a01b0382169063390baae090611f159089908990899089908990600401613be1565b600060405180830381600087803b158015611f2f57600080fd5b505af1158015611bf8573d6000803e3d6000fd5b60606000611f4f61246e565b9050306001600160a01b03821603611f7457611f6c8585856124f8565b915050610393565b6040517f1e7889770000000000000000000000000000000000000000000000000000000081526001600160a01b03821690631e78897790611fbd90889088908890600401613c28565b600060405180830381865afa158015611fda573d6000803e3d6000fd5b505050506040513d6000823e601f3d908101601f19168201604052611f6c9190810190613cd2565b509392505050565b60008183118061201a5750835182115b15612057578383836040517f23230fa300000000000000000000000000000000000000000000000000000000815260040161053c93929190613d07565b602084016120658482613a3c565b9050600061207385856139ff565b6fffffffffffffffffffffffffffffffff1660809290921b9190911795945050505050565b606060006103938360206000612532565b60608161039381602060006125ad565b60006120c361246e565b9050306001600160a01b038216036120e6576120e185858585612601565b61215f565b6040517fef6ea8620000000000000000000000000000000000000000000000000000000081526001600160a01b0382169063ef6ea86290612131908890889088908890600401613d2c565b600060405180830381600087803b15801561214b57600080fd5b505af11580156112a6573d6000803e3d6000fd5b5050505050565b606060006060600061217661246e565b9050306001600160a01b0382160361219f5761219387878761263c565b9350935093505061222d565b6040517f419b58fd0000000000000000000000000000000000000000000000000000000081526001600160a01b0382169063419b58fd906121e8908a908a908a90600401613d6b565b600060405180830381865afa158015612205573d6000803e3d6000fd5b505050506040513d6000823e601f3d908101601f191682016040526121939190810190613d94565b93509350939050565b6122856040518061012001604052806000815260200160008152602001600081526020016000815260200160008152602001606081526020016060815260200160608152602001606081525090565b61228e84612744565b608086015260608501526040840152602083015281526122ae8383612780565b61010085015260e084015260c083015260a08201529392505050565b6040805160808101825260008082526020820181905291810182905260608101919091526122f78461280e565b60608501526040840152602083015281529392505050565b60006102b87f7379000000000000000000000000000000000000000000000000000000000000837f4c6f6f744d616e61676572537973746500000000000000000000000000000000612840565b60408051600180825281830190925260009182919060208083019080368337019050509050828160008151811061239557612395613a9c565b602090810291909101015260006123ed7f7462776f726c6400000000000000000053797374656d7300000000000000000083837e15020014010000000000000000000000000000000000000000000000000000611ddd565b60601c949350505050565b600061240261246e565b9050306001600160a01b0382160361242157611ec386868686866128c7565b6040517f298314fb0000000000000000000000000000000000000000000000000000000081526001600160a01b0382169063298314fb90611f159089908990899089908990600401613e01565b7f629a4c26e296b22a8e0856e9f6ecb2d1008d7e00081111962cd175fa7488e175546000906001600160a01b0316806124a8573391505090565b919050565b60006124da6124bc86866128dd565b60ff858116601b0360080285901c166124d58587612933565b612964565b95945050505050565b61215f85856124f28487612933565b856129b5565b6060611359612508858585612c5a565b600061252d856125188989612cda565b9060ff166028026038011c64ffffffffff1690565b612ced565b606060006125408560801c90565b90506fffffffffffffffffffffffffffffffff8516600085828161256657612566613a12565b04905060405193506020840160208202810160405281855260005b828110156125a1578451871c825293870193602090910190600101612581565b50505050509392505050565b825160609060006125be8583613a4f565b9050604051925060208301601f19603f83860101166040528184526000602088015b848210156125a1578051871b835291870191600191909101906020016125e0565b600061260d8585612cda565b9050600061262a828560ff166028026038011c64ffffffffff1690565b90506105cc8686866000858888612d10565b606060006060600061264d8561314a565b905061265a87878361316d565b93506000612667866131a6565b90508015612739576126798888612cda565b935066ffffffffffffff841667ffffffffffffffff81111561269d5761269d613af7565b6040519080825280601f01601f1916602001820160405280156126c7576020820181803683370190505b5092506020830160005b828160ff1610156127365760006126e98b8b84612c5a565b90506000612706888460ff166028026038011c64ffffffffff1690565b905061271582600083876131e3565b61271f8185613a3c565b93505050808061272e90613e52565b9150506126d1565b50505b505093509350939050565b600080600080600061275a866000016020015190565b60408701516060880151608089015160a090990151929991989097509550909350915050565b60608080806000603887901c64ffffffffff166127a161147b88848461200a565b955090508064ffffffffff606089901c16016127c161147b88848461200a565b945090508064ffffffffff608889901c16016127e161147b88848461200a565b935090508064ffffffffff60b089901c160161280161147b88848461200a565b9250505092959194509250565b600080600080612822856000016020015190565b60408601516060870151608090970151919790969550909350915050565b600061284e60706010613a3c565b7fffff00000000000000000000000000000000000000000000000000000000000085167dffffffffffffffffffffffffffff00000000000000000000000000000000601086901c16177fffffffffffffffffffffffffffffffff00000000000000000000000000000000841690911c1790509392505050565b61215f85858585856128d88b6132af565b613334565b600082826040516020016128f2929190613e71565b60408051601f1981840301815291905280516020909101207f86425bff6b57326c7859e89024fe4f238ca327a1ae4a230180dd2f0e88aaa7d9189392505050565b600080805b8360ff168110156120025761295a60ff601b83900360080287901c1683613a3c565b9150600101612938565b60006020821061298a5760208204840193506020828161298657612986613a12565b0691505b508254600882021b602082900380841115612002576001850154600882021c82179150509392505050565b7f6f74000000000000000000000000000000000000000000000000000000000000847fffff0000000000000000000000000000000000000000000000000000000000001603612a3f57837f8c0b5119d4cec7b284c6b1b39252a03d1e2f2d7451a5895562524c113bb952be848484604051612a3293929190613ead565b60405180910390a2612c54565b6000612a4b85856128dd565b90506000612a588661366d565b905060005b8151811015612b2d576000828281518110612a7a57612a7a613a9c565b60200260200101519050612aa66004826affffffffffffffffffffff19166136f690919063ffffffff16565b15612b24576040517f964f667d000000000000000000000000000000000000000000000000000000008152606082901c9063964f667d90612af1908b908b908b908b90600401613ee0565b600060405180830381600087803b158015612b0b57600080fd5b505af1158015612b1f573d6000803e3d6000fd5b505050505b50600101612a5d565b50857f8c0b5119d4cec7b284c6b1b39252a03d1e2f2d7451a5895562524c113bb952be868686604051612b6293929190613ead565b60405180910390a2612b7d828565ffffffffffff1685613714565b60005b8151811015612c50576000828281518110612b9d57612b9d613a9c565b60200260200101519050612bc96008826affffffffffffffffffffff19166136f690919063ffffffff16565b15612c47576040517fa8ba8721000000000000000000000000000000000000000000000000000000008152606082901c9063a8ba872190612c14908b908b908b908b90600401613ee0565b600060405180830381600087803b158015612c2e57600080fd5b505af1158015612c42573d6000803e3d6000fd5b505050505b50600101612b80565b5050505b50505050565b60008383604051602001612c6f929190613e71565b604051602081830303815290604052805190602001208260f81b7effffffffffffffffffffffffffffffffffffffffffffffffffffffffffffff19167f3b4102da22e32d82fc925482184f16c09fd4281692720b87d124aef6da48a0f1181860001c90509392505050565b6000610393612ce9848461372a565b5490565b60405160208101601f19603f8484010116604052828252612002858585846131e3565b7f7462000000000000000000000000000000000000000000000000000000000000877fffff0000000000000000000000000000000000000000000000000000000000001614612dd0577f74620000000000000000000000000000000000000000000000000000000000008788604051602001612d8e91815260200190565b60408051601f19818403018152908290527f31b4668300000000000000000000000000000000000000000000000000000000825261053c939291600401613f19565b6000612deb828760ff166028026038011c64ffffffffff1690565b9050600083518564ffffffffff1683612e0491906139ff565b612e0e9190613a3c565b9050808214158015612e30575081612e268688613f5a565b64ffffffffff1614155b15612e80576040517fa65010b400000000000000000000000000000000000000000000000000000000815264ffffffffff808816600483015280871660248301528316604482015260640161053c565b818664ffffffffff161115612ed1576040517f7e8578d30000000000000000000000000000000000000000000000000000000081526004810183905264ffffffffff8716602482015260440161053c565b6000612ede848984613780565b90506000612eeb8b61366d565b905060005b8151811015612fb6576000828281518110612f0d57612f0d613a9c565b60200260200101519050612f396010826affffffffffffffffffffff19166136f690919063ffffffff16565b15612fad57606081901c6001600160a01b03166355eb5a288e8e8e8e8e8d8f6040518863ffffffff1660e01b8152600401612f7a9796959493929190613f7f565b600060405180830381600087803b158015612f9457600080fd5b505af1158015612fa8573d6000803e3d6000fd5b505050505b50600101612ef0565b5064ffffffffff881660005b8a60ff168160ff161015612ff557612fe9878260ff166028026038011c64ffffffffff1690565b90910190600101612fc2565b508b7ffe158a7adba34e256807c8a149028d3162918713c3838afc643ce9f96716ebfd8c8c848c888d60405161303096959493929190613fdd565b60405180910390a25082841461305157600061304c8c8c61372a565b839055505b600061305e8c8c8c612c5a565b9050613072818a64ffffffffff1689613714565b5060005b815181101561313c57600082828151811061309357613093613a9c565b602002602001015190506130bf6020826affffffffffffffffffffff19166136f690919063ffffffff16565b1561313357606081901c6001600160a01b031663635845338e8e8e8e8e8a8f6040518863ffffffff1660e01b81526004016131009796959493929190613f7f565b600060405180830381600087803b15801561311a57600080fd5b505af115801561312e573d6000803e3d6000fd5b505050505b50600101613076565b505050505050505050505050565b6000600861315a600260206139ff565b6131649190613a4f565b9190911c919050565b60608160000361318c5750604080516020810190915260008152610393565b600061319885856128dd565b90506124da81600085612ced565b600060086001806131b9600260206139ff565b6131c391906139ff565b6131cd91906139ff565b6131d79190613a4f565b8260ff911c1692915050565b821561326a576020831061320d5760208304840193506020838161320957613209613a12565b0692505b821561326a5760208390036000818410156132305750600019600884021c61323a565b50600019600882021c5b8554600886021b81845116821982161784525081841161325b575050612c54565b50600194909401939182900391015b5b6020821061328c5783548152600190930192601f199091019060200161326b565b8115612c54576000600019600884021c8251865482191691161782525050505050565b60007f8b9d8c8b908d9affffffffffffffffffab9e9d939a8d0000000000000000000082016132fe57507e60030220202000000000000000000000000000000000000000000000000000919050565b6102b861332b7f746273746f72650000000000000000005461626c6573000000000000000000008461384e565b60206000612964565b7f6f74000000000000000000000000000000000000000000000000000000000000867fffff00000000000000000000000000000000000000000000000000000000000016036133c057857f8dbb3a9672eebfd3773e72dd9c102393436816d832c7ba9e1e1ac8fcadcac7a9868686866040516133b39493929190614039565b60405180910390a26105cc565b60006133cb8761366d565b905060005b81518110156134a45760008282815181106133ed576133ed613a9c565b602002602001015190506134196001826affffffffffffffffffffff19166136f690919063ffffffff16565b1561349b576040517f57066c9c000000000000000000000000000000000000000000000000000000008152606082901c906357066c9c90613468908c908c908c908c908c908c90600401614078565b600060405180830381600087803b15801561348257600080fd5b505af1158015613496573d6000803e3d6000fd5b505050505b506001016133d0565b50867f8dbb3a9672eebfd3773e72dd9c102393436816d832c7ba9e1e1ac8fcadcac7a9878787876040516134db9493929190614039565b60405180910390a260006134ef88886128dd565b9050600060208701905061350782600089518461386a565b6000613512856131a6565b11156135965760006135248a8a61372a565b878155905060208601915060008060005b61353e886131a6565b8160ff161015613591576135538d8d83612c5a565b925061356e8a8260ff166028026038011c64ffffffffff1690565b915061357d836000848861386a565b6135878286613a3c565b9450600101613535565b505050505b60005b8351811015611bf85760008482815181106135b6576135b6613a9c565b602002602001015190506135e26002826affffffffffffffffffffff19166136f690919063ffffffff16565b15613664576040517f5b28cdaf000000000000000000000000000000000000000000000000000000008152606082901c90635b28cdaf90613631908e908e908e908e908e908e90600401614078565b600060405180830381600087803b15801561364b57600080fd5b505af115801561365f573d6000803e3d6000fd5b505050505b50600101613599565b604080516001808252818301909252606091600091906020808301908036833701905050905082816000815181106136a7576136a7613a9c565b602090810291909101015260006136df7f746273746f726500000000000000000053746f7265486f6f6b7300000000000083836124f8565b90506113596136f1826000845161200a565b613929565b60008160ff16826137078560581c90565b1660ff1614905092915050565b6113f9838383516137258560200190565b61386a565b6000828260405160200161373f929190613e71565b60408051601f1981840301815291905280516020909101207f14e2fcc58e58e68ec7edc30c8d50dccc3ce2714a623ec81f46b6a63922d76569189392505050565b600064ffffffffff8211156137c4576040517f7149a3c10000000000000000000000000000000000000000000000000000000081526004810183905260240161053c565b8366ffffffffffffff811660ff851660280260380182901c64ffffffffff168085106137f657808503820191506137fe565b848103820391505b5064ffffffffff6038602860ff8816020181811b197fffffffffffffffffffffffffffffffffffffffffffffffffff000000000000009490941690921792909216918416901b1790509392505050565b60408051602081018490529081018290526000906060016128f2565b82156138e457602083106138945760208304840193506020838161389057613890613a12565b0692505b82156138e45760208390036000600019600885021c1990506008850281811c91508351811c90508119875416828216178755508184116138d5575050612c54565b50600194909401939182900391015b5b602082106139065780518455600190930192601f19909101906020016138e5565b8115612c54576000600019600884021c8554835182191691161785555050505050565b606060006103938360156000612532565b60006020828403121561394c57600080fd5b81357fffffffff000000000000000000000000000000000000000000000000000000008116811461039357600080fd5b60006020828403121561398e57600080fd5b5035919050565b600080604083850312156139a857600080fd5b50508035926020909101359150565b600080600080608085870312156139cd57600080fd5b5050823594602084013594506040840135936060013592509050565b634e487b7160e01b600052601160045260246000fd5b818103818111156102b8576102b86139e9565b634e487b7160e01b600052601260045260246000fd5b600082613a3757613a37613a12565b500690565b808201808211156102b8576102b86139e9565b80820281158282048414176102b8576102b86139e9565b600082613a7557613a75613a12565b500490565b600060208284031215613a8c57600080fd5b8151801515811461039357600080fd5b634e487b7160e01b600052603260045260246000fd5b805161ffff811681146124a857600080fd5b60008060408385031215613ad757600080fd5b613ae083613ab2565b9150613aee60208401613ab2565b90509250929050565b634e487b7160e01b600052604160045260246000fd5b60008151808452602080850194506020840160005b83811015613b3e57815187529582019590820190600101613b22565b509495945050505050565b848152608060208201526000613b626080830186613b0d565b60ff949094166040830152506060015292915050565b600060208284031215613b8a57600080fd5b5051919050565b60005b83811015613bac578181015183820152602001613b94565b50506000910152565b60008151808452613bcd816020860160208601613b91565b601f01601f19169290920160200192915050565b85815260a060208201526000613bfa60a0830187613b0d565b60ff861660408401528281036060840152613c158186613bb5565b9150508260808301529695505050505050565b838152606060208201526000613c416060830185613b0d565b905060ff83166040830152949350505050565b600082601f830112613c6557600080fd5b815167ffffffffffffffff80821115613c8057613c80613af7565b604051601f8301601f19908116603f01168101908282118183101715613ca857613ca8613af7565b81604052838152866020858801011115613cc157600080fd5b6116ae846020830160208901613b91565b600060208284031215613ce457600080fd5b815167ffffffffffffffff811115613cfb57600080fd5b61135984828501613c54565b606081526000613d1a6060830186613bb5565b60208301949094525060400152919050565b848152608060208201526000613d456080830186613b0d565b60ff851660408401528281036060840152613d608185613bb5565b979650505050505050565b838152606060208201526000613d846060830185613b0d565b9050826040830152949350505050565b600080600060608486031215613da957600080fd5b835167ffffffffffffffff80821115613dc157600080fd5b613dcd87838801613c54565b9450602086015193506040860151915080821115613dea57600080fd5b50613df786828701613c54565b9150509250925092565b85815260a060208201526000613e1a60a0830187613b0d565b8281036040840152613e2c8187613bb5565b90508460608401528281036080840152613e468185613bb5565b98975050505050505050565b600060ff821660ff8103613e6857613e686139e9565b60010192915050565b8281526000602080830184516020860160005b82811015613ea057815184529284019290840190600101613e84565b5091979650505050505050565b606081526000613ec06060830186613b0d565b65ffffffffffff8516602084015282810360408401526116ae8185613bb5565b848152608060208201526000613ef96080830186613b0d565b65ffffffffffff851660408401528281036060840152613d608185613bb5565b7fffff000000000000000000000000000000000000000000000000000000000000841681528260208201526060604082015260006124da6060830184613bb5565b64ffffffffff818116838216019080821115613f7857613f786139e9565b5092915050565b87815260e060208201526000613f9860e0830189613b0d565b60ff8816604084015264ffffffffff87811660608501528616608084015260a0830185905282810360c0840152613fcf8185613bb5565b9a9950505050505050505050565b60c081526000613ff060c0830189613b0d565b60ff8816602084015265ffffffffffff8716604084015264ffffffffff8616606084015284608084015282810360a084015261402c8185613bb5565b9998505050505050505050565b60808152600061404c6080830187613b0d565b828103602084015261405e8187613bb5565b90508460408401528281036060840152613d608185613bb5565b86815260c06020820152600061409160c0830188613b0d565b82810360408401526140a38188613bb5565b905085606084015282810360808401526140bd8186613bb5565b9150508260a083015297965050505050505056fea2646970667358221220fc02196c33a3f26472f7f774ea1f68ea72853d0adea4e5437b0d4784ffaf63bc64736f6c63430008180033","linkReferences":{}},"methodIdentifiers":{"_msgSender()":"119df25f","_msgValue()":"45ec9354","_world()":"e1af802c","buy(uint256,bytes32,uint256,bytes32)":"b702f92b","canRestock(bytes32)":"c9ad107c","endShopEncounter(bytes32)":"73a95569","isShop(bytes32)":"5dcbb50b","itemBase(uint256)":"d8fa95d7","itemMarkdown(bytes32,uint256)":"7246e48c","itemMarkup(bytes32,uint256)":"da0996cd","itemStock(bytes32,uint256)":"9238e994","restock(bytes32)":"1cb2b85f","sell(uint256,bytes32,uint256,bytes32)":"f479b6ea","shopSystemAddress()":"4ec9c8e3","supportsInterface(bytes4)":"01ffc9a7"},"id":275}