{"abi":[{"type":"function","name":"_msgSender","inputs":[],"outputs":[{"name":"sender","type":"address","internalType":"address"}],"stateMutability":"view"},{"type":"function","name":"_msgValue","inputs":[],"outputs":[{"name":"value","type":"uint256","internalType":"uint256"}],"stateMutability":"view"},{"type":"function","name":"_world","inputs":[],"outputs":[{"name":"","type":"address","internalType":"address"}],"stateMutability":"view"},{"type":"function","name":"buy","inputs":[{"name":"amount","type":"uint256","internalType":"uint256"},{"name":"shopId","type":"bytes32","internalType":"bytes32"},{"name":"itemIndex","type":"uint256","internalType":"uint256"},{"name":"characterId","type":"bytes32","internalType":"bytes32"}],"outputs":[],"stateMutability":"nonpayable"},{"type":"function","name":"canRestock","inputs":[{"name":"shopId","type":"bytes32","internalType":"bytes32"}],"outputs":[{"name":"","type":"bool","internalType":"bool"}],"stateMutability":"view"},{"type":"function","name":"endShopEncounter","inputs":[{"name":"encounterId","type":"bytes32","internalType":"bytes32"}],"outputs":[],"stateMutability":"nonpayable"},{"type":"function","name":"isShop","inputs":[{"name":"shopId","type":"bytes32","internalType":"bytes32"}],"outputs":[{"name":"","type":"bool","internalType":"bool"}],"stateMutability":"view"},{"type":"function","name":"itemBase","inputs":[{"name":"itemId","type":"uint256","internalType":"uint256"}],"outputs":[{"name":"","type":"uint256","internalType":"uint256"}],"stateMutability":"view"},{"type":"function","name":"itemMarkdown","inputs":[{"name":"shopId","type":"bytes32","internalType":"bytes32"},{"name":"itemId","type":"uint256","internalType":"uint256"}],"outputs":[{"name":"","type":"uint256","internalType":"uint256"}],"stateMutability":"view"},{"type":"function","name":"itemMarkup","inputs":[{"name":"shopId","type":"bytes32","internalType":"bytes32"},{"name":"itemId","type":"uint256","internalType":"uint256"}],"outputs":[{"name":"","type":"uint256","internalType":"uint256"}],"stateMutability":"view"},{"type":"function","name":"itemStock","inputs":[{"name":"shopId","type":"bytes32","internalType":"bytes32"},{"name":"itemIndex","type":"uint256","internalType":"uint256"}],"outputs":[{"name":"","type":"uint256","internalType":"uint256"}],"stateMutability":"view"},{"type":"function","name":"restock","inputs":[{"name":"shopId","type":"bytes32","internalType":"bytes32"}],"outputs":[{"name":"","type":"bool","internalType":"bool"}],"stateMutability":"nonpayable"},{"type":"function","name":"sell","inputs":[{"name":"amount","type":"uint256","internalType":"uint256"},{"name":"shopId","type":"bytes32","internalType":"bytes32"},{"name":"itemIndex","type":"uint256","internalType":"uint256"},{"name":"characterId","type":"bytes32","internalType":"bytes32"}],"outputs":[],"stateMutability":"nonpayable"},{"type":"function","name":"shopSystemAddress","inputs":[],"outputs":[{"name":"","type":"address","internalType":"address"}],"stateMutability":"view"},{"type":"function","name":"supportsInterface","inputs":[{"name":"interfaceId","type":"bytes4","internalType":"bytes4"}],"outputs":[{"name":"","type":"bool","internalType":"bool"}],"stateMutability":"pure"},{"type":"event","name":"Store_SetRecord","inputs":[{"name":"tableId","type":"bytes32","indexed":true,"internalType":"ResourceId"},{"name":"keyTuple","type":"bytes32[]","indexed":false,"internalType":"bytes32[]"},{"name":"staticData","type":"bytes","indexed":false,"internalType":"bytes"},{"name":"encodedLengths","type":"bytes32","indexed":false,"internalType":"EncodedLengths"},{"name":"dynamicData","type":"bytes","indexed":false,"internalType":"bytes"}],"anonymous":false},{"type":"event","name":"Store_SpliceDynamicData","inputs":[{"name":"tableId","type":"bytes32","indexed":true,"internalType":"ResourceId"},{"name":"keyTuple","type":"bytes32[]","indexed":false,"internalType":"bytes32[]"},{"name":"dynamicFieldIndex","type":"uint8","indexed":false,"internalType":"uint8"},{"name":"start","type":"uint48","indexed":false,"internalType":"uint48"},{"name":"deleteCount","type":"uint40","indexed":false,"internalType":"uint40"},{"name":"encodedLengths","type":"bytes32","indexed":false,"internalType":"EncodedLengths"},{"name":"data","type":"bytes","indexed":false,"internalType":"bytes"}],"anonymous":false},{"type":"event","name":"Store_SpliceStaticData","inputs":[{"name":"tableId","type":"bytes32","indexed":true,"internalType":"ResourceId"},{"name":"keyTuple","type":"bytes32[]","indexed":false,"internalType":"bytes32[]"},{"name":"start","type":"uint48","indexed":false,"internalType":"uint48"},{"name":"data","type":"bytes","indexed":false,"internalType":"bytes"}],"anonymous":false},{"type":"error","name":"EncodedLengths_InvalidLength","inputs":[{"name":"length","type":"uint256","internalType":"uint256"}]},{"type":"error","name":"ReentrancyGuardReentrantCall","inputs":[]},{"type":"error","name":"Slice_OutOfBounds","inputs":[{"name":"data","type":"bytes","internalType":"bytes"},{"name":"start","type":"uint256","internalType":"uint256"},{"name":"end","type":"uint256","internalType":"uint256"}]},{"type":"error","name":"Store_IndexOutOfBounds","inputs":[{"name":"length","type":"uint256","internalType":"uint256"},{"name":"accessedIndex","type":"uint256","internalType":"uint256"}]},{"type":"error","name":"Store_InvalidResourceType","inputs":[{"name":"expected","type":"bytes2","internalType":"bytes2"},{"name":"resourceId","type":"bytes32","internalType":"ResourceId"},{"name":"resourceIdString","type":"string","internalType":"string"}]},{"type":"error","name":"Store_InvalidSplice","inputs":[{"name":"startWithinField","type":"uint40","internalType":"uint40"},{"name":"deleteCount","type":"uint40","internalType":"uint40"},{"name":"fieldLength","type":"uint40","internalType":"uint40"}]}],"bytecode":{"object":"0x608060405234801561000f575f80fd5b5060015f55613f96806100215f395ff3fe608060405234801561000f575f80fd5b50600436106100f0575f3560e01c806373a9556911610093578063d8fa95d711610063578063d8fa95d7146101de578063da0996cd146101f1578063e1af802c14610204578063f479b6ea1461020c575f80fd5b806373a95569146101905780639238e994146101a5578063b702f92b146101b8578063c9ad107c146101cb575f80fd5b806345ec9354116100ce57806345ec93541461014f5780634ec9c8e3146101645780635dcbb50b1461016a5780637246e48c1461017d575f80fd5b806301ffc9a7146100f4578063119df25f1461011c5780631cb2b85f1461013c575b5f80fd5b610107610102366004613806565b61021f565b60405190151581526020015b60405180910390f35b6101246102b7565b6040516001600160a01b039091168152602001610113565b61010761014a366004613845565b6102c5565b36601f1901355b604051908152602001610113565b30610124565b610107610178366004613845565b61035c565b61015661018b36600461385c565b610389565b6101a361019e366004613845565b6103b3565b005b6101566101b336600461385c565b6105b7565b6101a36101c636600461387c565b6105e2565b6101076101d9366004613845565b610bb3565b6101566101ec366004613845565b610bf1565b6101566101ff36600461385c565b610bfb565b610124610c38565b6101a361021a36600461387c565b610c41565b5f7fffffffff0000000000000000000000000000000000000000000000000000000082167fb5dee1270000000000000000000000000000000000000000000000000000000014806102b157507fffffffff0000000000000000000000000000000000000000000000000000000082167f01ffc9a700000000000000000000000000000000000000000000000000000000145b92915050565b5f6102c0611263565b905090565b5f6102cf82610bb3565b15610355575f6102de83611295565b90505f61a8c06102ee83426138bf565b6102f891906138e6565b90505f61030582426138bf565b905061031c856103178361a8c06138f9565b611310565b5f610326866113aa565b90505f61033287611428565b905061033e878361149b565b6103488782611507565b5060019695505050505050565b505f919050565b5f806103678361157a565b905080602001515f1415801561038257506101008101515115155b9392505050565b5f6127106103968461164f565b61039f84610bf1565b6103a9919061390c565b6103829190613923565b5f6103bd826116c2565b90506103c7610c38565b6001600160a01b031663fa1becc4826040518263ffffffff1660e01b81526004016103f491815260200190565b602060405180830381865afa15801561040f573d5f803e3d5ffd5b505050506040513d601f19601f820116820180604052508101906104339190613936565b80156104dd5750610442610c38565b6001600160a01b03166343def638826104596102b7565b6040517fffffffff0000000000000000000000000000000000000000000000000000000060e085901b16815260048101929092526001600160a01b03166024820152604401602060405180830381865afa1580156104b9573d5f803e3d5ffd5b505050506040513d601f19601f820116820180604052508101906104dd9190613936565b61052e5760405162461bcd60e51b815260206004820152601b60248201527f63616e206f6e6c79206578697420796f7572206f776e2073686f70000000000060448201526064015b60405180910390fd5b610536610c38565b6040517f43c00bf7000000000000000000000000000000000000000000000000000000008152600481018490525f6024820181905260448201526001600160a01b0391909116906343c00bf7906064015f604051808303815f87803b15801561059d575f80fd5b505af11580156105af573d5f803e3d5ffd5b505050505050565b5f6105c183611750565b82815181106105d2576105d2613955565b6020026020010151905092915050565b5f6105ec826117b8565b90505f6105f882611846565b9050811580159061060c5750604081015115155b801561061a57506060810151155b80156106295750848160200151145b80156106355750805183145b6106815760405162461bcd60e51b815260206004820152601660248201527f696e76616c69642073686f7020656e636f756e746572000000000000000000006044820152606401610525565b610689610c38565b6001600160a01b03166343def638846106a06102b7565b6040517fffffffff0000000000000000000000000000000000000000000000000000000060e085901b16815260048101929092526001600160a01b03166024820152604401602060405180830381865afa158015610700573d5f803e3d5ffd5b505050506040513d601f19601f820116820180604052508101906107249190613936565b6107965760405162461bcd60e51b815260206004820152602360248201527f43616e6e6f742062757920616e206974656d20666f7220736f6d656f6e65206560448201527f6c736500000000000000000000000000000000000000000000000000000000006064820152608401610525565b5f806107a0610c38565b6001600160a01b0316638b4ce3e5866040518263ffffffff1660e01b81526004016107cd91815260200190565b6040805180830381865afa1580156107e7573d5f803e3d5ffd5b505050506040513d601f19601f8201168201806040525081019061080b919061397a565b91509150610817610c38565b6040517ff48a39720000000000000000000000000000000000000000000000000000000081526004810189905261ffff8085166024830152831660448201526001600160a01b03919091169063f48a397290606401602060405180830381865afa158015610887573d5f803e3d5ffd5b505050506040513d601f19601f820116820180604052508101906108ab9190613936565b15156001146109215760405162461bcd60e51b8152602060048201526024808201527f43616e6e6f74206275792066726f6d20612073686f702061742061206469737460448201527f616e6365000000000000000000000000000000000000000000000000000000006064820152608401610525565b5f61092b88611908565b90505f61093789611750565b90508981898151811061094c5761094c613955565b602002602001015110156109a25760405162461bcd60e51b815260206004820152601260248201527f696e73756666696369656e742073746f636b00000000000000000000000000006044820152606401610525565b898189815181106109b5576109b5613955565b60200260200101516109c791906138bf565b8189815181106109d9576109d9613955565b6020026020010181815250506109ef898261149b565b5f610a138a848b81518110610a0657610a06613955565b6020026020010151610bfb565b610a1d908c61390c565b9050610a3c8a82610a2d8d611970565b610a3791906138f9565b611507565b610a446119e2565b6001600160a01b03166323b872dd610a5a6102b7565b610a62611a48565b6040517fffffffff0000000000000000000000000000000000000000000000000000000060e085901b1681526001600160a01b03928316600482015291166024820152604481018490526064016020604051808303815f875af1158015610acb573d5f803e3d5ffd5b505050506040513d601f19601f82011682018060405250810190610aef9190613936565b50610af8610c38565b6001600160a01b031663cd9caca289858c81518110610b1957610b19613955565b60200260200101518e6040518463ffffffff1660e01b8152600401610b51939291909283526020830191909152604082015260600190565b5f604051808303815f87803b158015610b68575f80fd5b505af1158015610b7a573d5f803e3d5ffd5b50505050610ba68a89858c81518110610b9557610b95613955565b602002602001015142600186611a7a565b5050505050505050505050565b5f80610bbe83611295565b905042811115610bd057505f92915050565b61a8c0610bdd82426138bf565b10610beb5750600192915050565b50919050565b5f6102b182611b7f565b5f612710610c0884611c10565b610c1184610bf1565b610c1b919061390c565b610c259190613923565b610c2e83610bf1565b61038291906138f9565b5f6102c0611c83565b5f610c4b826117b8565b90505f610c5782611846565b9050610c8360405180608001604052806060815260200160608152602001606081526020015f81525090565b8215801590610c955750604082015115155b8015610ca357506060820151155b8015610cb25750858260200151145b8015610cbe5750815184145b610d0a5760405162461bcd60e51b815260206004820152601660248201527f696e76616c69642073686f7020656e636f756e746572000000000000000000006044820152606401610525565b610d12610c38565b6001600160a01b03166343def63885610d296102b7565b6040517fffffffff0000000000000000000000000000000000000000000000000000000060e085901b16815260048101929092526001600160a01b03166024820152604401602060405180830381865afa158015610d89573d5f803e3d5ffd5b505050506040513d601f19601f82011682018060405250810190610dad9190613936565b610e1e5760405162461bcd60e51b8152602060048201526024808201527f43616e6e6f742073656c6c20616e206974656d20666f7220736f6d656f6e652060448201527f656c7365000000000000000000000000000000000000000000000000000000006064820152608401610525565b5f80610e28610c38565b6001600160a01b0316638b4ce3e5876040518263ffffffff1660e01b8152600401610e5591815260200190565b6040805180830381865afa158015610e6f573d5f803e3d5ffd5b505050506040513d601f19601f82011682018060405250810190610e93919061397a565b91509150610e9f610c38565b6040517ff48a3972000000000000000000000000000000000000000000000000000000008152600481018a905261ffff8085166024830152831660448201526001600160a01b03919091169063f48a397290606401602060405180830381865afa158015610f0f573d5f803e3d5ffd5b505050506040513d601f19601f82011682018060405250810190610f339190613936565b1515600114610faa5760405162461bcd60e51b815260206004820152602360248201527f43616e6e6f742073656c6c20746f20612073686f70206174206120646973746160448201527f6e636500000000000000000000000000000000000000000000000000000000006064820152608401610525565b610fb388611750565b8352610fbe88611c8c565b602084018190528051610fea918a918a908110610fdd57610fdd613955565b6020026020010151610389565b610ff4908a61390c565b610ffd89611970565b101561104b5760405162461bcd60e51b815260206004820152601e60248201527f53686f7020646f6573206e6f74206861766520656e6f75676820676f6c6400006044820152606401610525565b88835f0151888151811061106157611061613955565b602002602001015161107391906138f9565b835180518990811061108757611087613955565b6020026020010181815250506110a088845f015161149b565b6110ba8884602001518981518110610fdd57610fdd613955565b6110c4908a61390c565b606084018190526110e49089906110da82611970565b610a3791906138bf565b6110ed88611c8c565b60408401526110fa611cf3565b6001600160a01b031663fe99049a6111106102b7565b611118611a48565b86604001518b8151811061112e5761112e613955565b60209081029190910101516040517fffffffff0000000000000000000000000000000000000000000000000000000060e086901b1681526001600160a01b0393841660048201529290911660248301526044820152606481018c90526084015f604051808303815f87803b1580156111a4575f80fd5b505af11580156111b6573d5f803e3d5ffd5b505050506111c2610c38565b6001600160a01b031663bcf0229a8785606001516040518363ffffffff1660e01b81526004016111fc929190918252602082015260400190565b5f604051808303815f87803b158015611213575f80fd5b505af1158015611225573d5f803e3d5ffd5b50505050611258888785602001518a8151811061124457611244613955565b6020026020010151425f8860600151611a7a565b505050505050505050565b7fffffffffffffffffffffffffffffffffffffffffffffffffffffffffffffffcc36013560601c806112925750335b90565b6040805160018082528183019092525f918291906020808301908036833701905050905082815f815181106112cc576112cc613955565b60209081029190910101525f611308747462554400000000000000000000000053686f707360581b83600467050028210101010160bd1b611d4b565b949350505050565b6040805160018082528183019092525f916020808301908036833701905050905082815f8151811061134457611344613955565b6020026020010181815250506113a5747462554400000000000000000000000053686f707360581b5f1b8260048560405160200161138491815260200190565b60408051601f1981840301815291905267050028210101010160bd1b611e05565b505050565b6040805160018082528183019092526060915f91906020808301908036833701905050905082815f815181106113e2576113e2613955565b60209081029190910101525f611412747462554400000000000000000000000053686f707360581b836002611ea8565b9050611308611423825f8451611f6a565b611ff6565b6040805160018082528183019092525f918291906020808301908036833701905050905082815f8151811061145f5761145f613955565b60209081029190910101525f611308747462554400000000000000000000000053686f707360581b83600167050028210101010160bd1b611d4b565b6040805160018082528183019092525f916020808301908036833701905050905082815f815181106114cf576114cf613955565b60209081029190910101526113a5747462554400000000000000000000000053686f707360581b82600361150286612005565b612014565b6040805160018082528183019092525f916020808301908036833701905050905082815f8151811061153b5761153b613955565b6020026020010181815250506113a5747462554400000000000000000000000053686f707360581b5f1b825f8560405160200161138491815260200190565b6115c46040518061012001604052805f81526020015f81526020015f81526020015f81526020015f8152602001606081526020016060815260200160608152602001606081525090565b6040805160018082528183019092525f916020808301908036833701905050905082815f815181106115f8576115f8613955565b60209081029190910101525f8080611634747462554400000000000000000000000053686f707360581b8567050028210101010160bd1b6120bb565b925092509250611645838383612185565b9695505050505050565b6040805160018082528183019092525f918291906020808301908036833701905050905082815f8151811061168657611686613955565b60209081029190910101525f611308747462554400000000000000000000000053686f707360581b83600367050028210101010160bd1b611d4b565b6040805160018082528183019092525f918291906020808301908036833701905050905082815f815181106116f9576116f9613955565b60209081029190910101525f6113087f74625544000000000000000000000000576f726c64456e636f756e746572000083837e80040020202020000000000000000000000000000000000000000000000000611d4b565b6040805160018082528183019092526060915f91906020808301908036833701905050905082815f8151811061178857611788613955565b60209081029190910101525f611412747462554400000000000000000000000053686f707360581b836003611ea8565b6040805160018082528183019092525f918291906020808301908036833701905050905082815f815181106117ef576117ef613955565b60209081029190910101525f6113087f74625544000000000000000000000000456e636f756e746572456e746974790083837e41030120012000000000000000000000000000000000000000000000000000611d4b565b604080516080810182525f808252602082018190528183018190526060820181905282516001808252818501909452919290919081602001602082028036833701905050905082815f8151811061189f5761189f613955565b60209081029190910101525f80806118f77f74625544000000000000000000000000576f726c64456e636f756e7465720000857e800400202020200000000000000000000000000000000000000000000000006120bb565b925092509250611645838383612214565b6040805160018082528183019092526060915f91906020808301908036833701905050905082815f8151811061194057611940613955565b60209081029190910101525f611412747462554400000000000000000000000053686f707360581b836001611ea8565b6040805160018082528183019092525f918291906020808301908036833701905050905082815f815181106119a7576119a7613955565b60209081029190910101525f611308747462554400000000000000000000000053686f707360581b838367050028210101010160bd1b611d4b565b604080515f808252602082019092525f611a3e7f74625544000000000000000000000000556c74696d617465446f6d696e696f6e8360017e99080001141414141414200000000000000000000000000000000000000000611d4b565b60601c9392505050565b5f6102c0611a757f5544000000000000000000000000000000000000000000000000000000000000612258565b6122a4565b6040805183151560f81b602082015260218082018490528251808303909101815260046041830181815260e1840190945290925f9260609284929160610160808036833701905050905089815f81518110611ad757611ad7613955565b6020026020010181815250508881600181518110611af757611af7613955565b602002602001018181525050875f1b81600281518110611b1957611b19613955565b602002602001018181525050865f1b81600381518110611b3b57611b3b613955565b6020908102919091010152611b737f6f74554400000000000000000000000053686f7053616c6500000000000000008286868661233d565b50505050505050505050565b6040805160018082528183019092525f9182919060208083019080368337019050509050825f1b815f81518110611bb857611bb8613955565b60209081029190910101525f6113087f746255440000000000000000000000004974656d7300000000000000000000008360027e41030101202000000000000000000000000000000000000000000000000000611d4b565b6040805160018082528183019092525f918291906020808301908036833701905050905082815f81518110611c4757611c47613955565b60209081029190910101525f611308747462554400000000000000000000000053686f707360581b83600267050028210101010160bd1b611d4b565b5f6102c06123b2565b6040805160018082528183019092526060915f91906020808301908036833701905050905082815f81518110611cc457611cc4613955565b60209081029190910101525f611412747462554400000000000000000000000053686f707360581b8383611ea8565b604080515f808252602082019092525f611a3e7f74625544000000000000000000000000556c74696d617465446f6d696e696f6e8360037e990800011414141414142000000000000000000000000000000000000000005b5f80611d556123b2565b9050306001600160a01b03821603611d7b57611d73868686866123f0565b915050611308565b6040517f8c364d590000000000000000000000000000000000000000000000000000000081526001600160a01b03821690638c364d5990611dc69089908990899089906004016139f9565b602060405180830381865afa158015611de1573d5f803e3d5ffd5b505050506040513d601f19601f82011682018060405250810190611d739190613a27565b5f611e0e6123b2565b9050306001600160a01b03821603611e3257611e2d8686868686612425565b6105af565b6040517f390baae00000000000000000000000000000000000000000000000000000000081526001600160a01b0382169063390baae090611e7f9089908990899089908990600401613a8b565b5f604051808303815f87803b158015611e96575f80fd5b505af1158015611b73573d5f803e3d5ffd5b60605f611eb36123b2565b9050306001600160a01b03821603611ed857611ed085858561243a565b915050610382565b6040517f1e7889770000000000000000000000000000000000000000000000000000000081526001600160a01b03821690631e78897790611f2190889088908890600401613ad1565b5f60405180830381865afa158015611f3b573d5f803e3d5ffd5b505050506040513d5f823e601f3d908101601f19168201604052611ed09190810190613b77565b509392505050565b5f81831180611f795750835182115b15611fb6578383836040517f23230fa300000000000000000000000000000000000000000000000000000000815260040161052593929190613ba9565b60208401611fc484826138f9565b90505f611fd185856138bf565b6fffffffffffffffffffffffffffffffff1660809290921b9190911795945050505050565b60605f6103828360205f612473565b6060816103828160205f6124eb565b5f61201d6123b2565b9050306001600160a01b038216036120405761203b8585858561253d565b6120b4565b6040517fef6ea8620000000000000000000000000000000000000000000000000000000081526001600160a01b0382169063ef6ea8629061208b908890889088908890600401613bcd565b5f604051808303815f87803b1580156120a2575f80fd5b505af1158015611258573d5f803e3d5ffd5b5050505050565b60605f60605f6120c96123b2565b9050306001600160a01b038216036120f2576120e6878787612575565b9350935093505061217c565b6040517f419b58fd0000000000000000000000000000000000000000000000000000000081526001600160a01b0382169063419b58fd9061213b908a908a908a90600401613c0b565b5f60405180830381865afa158015612155573d5f803e3d5ffd5b505050506040513d5f823e601f3d908101601f191682016040526120e69190810190613c33565b93509350939050565b6121cf6040518061012001604052805f81526020015f81526020015f81526020015f81526020015f8152602001606081526020016060815260200160608152602001606081525090565b6121d884612676565b608086015260608501526040840152602083015281526121f883836126ae565b61010085015260e084015260c083015260a08201529392505050565b604080516080810182525f8082526020820181905291810182905260608101919091526122408461273b565b60608501526040840152602083015281529392505050565b5f6102b17f7379000000000000000000000000000000000000000000000000000000000000837f4c6f6f744d616e6167657253797374650000000000000000000000000000000061276a565b6040805160018082528183019092525f918291906020808301908036833701905050905082815f815181106122db576122db613955565b60209081029190910101525f6123327f7462776f726c6400000000000000000053797374656d7300000000000000000083837e15020014010000000000000000000000000000000000000000000000000000611d4b565b60601c949350505050565b5f6123466123b2565b9050306001600160a01b0382160361236557611e2d86868686866127f0565b6040517f298314fb0000000000000000000000000000000000000000000000000000000081526001600160a01b0382169063298314fb90611e7f9089908990899089908990600401613c9b565b7f629a4c26e296b22a8e0856e9f6ecb2d1008d7e00081111962cd175fa7488e175545f906001600160a01b0316806123eb573391505090565b919050565b5f61241c6123fe8686612806565b60ff858116601b0360080285901c16612417858761285b565b61288b565b95945050505050565b6120b48585612434848761285b565b856128db565b606061130861244a858585612b70565b5f61246e856124598989612bee565b9060ff166028026038011c64ffffffffff1690565b612c00565b60605f6124808560801c90565b90506fffffffffffffffffffffffffffffffff85165f8582816124a5576124a56138d2565b0490506040519350602084016020820281016040528185525f5b828110156124df578451871c8252938701936020909101906001016124bf565b50505050509392505050565b82516060905f6124fb858361390c565b9050604051925060208301601f19603f83860101166040528184525f602088015b848210156124df578051871b8352918701916001919091019060200161251c565b5f6125488585612bee565b90505f612564828560ff166028026038011c64ffffffffff1690565b90506105af8686865f858888612c23565b60605f60605f61258485613048565b905061259187878361306a565b93505f61259d8661309f565b9050801561266b576125af8888612bee565b935066ffffffffffffff841667ffffffffffffffff8111156125d3576125d36139ab565b6040519080825280601f01601f1916602001820160405280156125fd576020820181803683370190505b509250602083015f5b828160ff161015612668575f61261d8b8b84612b70565b90505f612639888460ff166028026038011c64ffffffffff1690565b9050612647825f83876130db565b61265181856138f9565b93505050808061266090613ceb565b915050612606565b50505b505093509350939050565b5f805f805f612688865f016020015190565b60408701516060880151608089015160a090990151929991989097509550909350915050565b60608080805f603887901c64ffffffffff166126ce611423888484611f6a565b955090508064ffffffffff606089901c16016126ee611423888484611f6a565b945090508064ffffffffff608889901c160161270e611423888484611f6a565b935090508064ffffffffff60b089901c160161272e611423888484611f6a565b9250505092959194509250565b5f805f8061274c855f016020015190565b60408601516060870151608090970151919790969550909350915050565b5f612777607060106138f9565b7fffff00000000000000000000000000000000000000000000000000000000000085167dffffffffffffffffffffffffffff00000000000000000000000000000000601086901c16177fffffffffffffffffffffffffffffffff00000000000000000000000000000000841690911c1790509392505050565b6120b485858585856128018b6131a2565b613225565b5f828260405160200161281a929190613d09565b60408051601f1981840301815291905280516020909101207f86425bff6b57326c7859e89024fe4f238ca327a1ae4a230180dd2f0e88aaa7d9189392505050565b5f80805b8360ff16811015611f625761288160ff601b83900360080287901c16836138f9565b915060010161285f565b5f602082106128b0576020820484019350602082816128ac576128ac6138d2565b0691505b508254600882021b602082900380841115611f62576001850154600882021c82179150509392505050565b7f6f74000000000000000000000000000000000000000000000000000000000000847fffff000000000000000000000000000000000000000000000000000000000000160361296557837f8c0b5119d4cec7b284c6b1b39252a03d1e2f2d7451a5895562524c113bb952be84848460405161295893929190613d43565b60405180910390a2612b6a565b5f6129708585612806565b90505f61297c86613547565b90505f5b8151811015612a4a575f82828151811061299c5761299c613955565b602002602001015190506129c86004826affffffffffffffffffffff19166135cc90919063ffffffff16565b15612a41576040517f964f667d000000000000000000000000000000000000000000000000000000008152606082901c9063964f667d90612a13908b908b908b908b90600401613d75565b5f604051808303815f87803b158015612a2a575f80fd5b505af1158015612a3c573d5f803e3d5ffd5b505050505b50600101612980565b50857f8c0b5119d4cec7b284c6b1b39252a03d1e2f2d7451a5895562524c113bb952be868686604051612a7f93929190613d43565b60405180910390a2612a9a828565ffffffffffff16856135e9565b5f5b8151811015612b66575f828281518110612ab857612ab8613955565b60200260200101519050612ae46008826affffffffffffffffffffff19166135cc90919063ffffffff16565b15612b5d576040517fa8ba8721000000000000000000000000000000000000000000000000000000008152606082901c9063a8ba872190612b2f908b908b908b908b90600401613d75565b5f604051808303815f87803b158015612b46575f80fd5b505af1158015612b58573d5f803e3d5ffd5b505050505b50600101612a9c565b5050505b50505050565b5f8383604051602001612b84929190613d09565b604051602081830303815290604052805190602001208260f81b7effffffffffffffffffffffffffffffffffffffffffffffffffffffffffffff19167f3b4102da22e32d82fc925482184f16c09fd4281692720b87d124aef6da48a0f118185f1c90509392505050565b5f610382612bfc84846135ff565b5490565b60405160208101601f19603f8484010116604052828252611f62858585846130db565b7f7462000000000000000000000000000000000000000000000000000000000000877fffff0000000000000000000000000000000000000000000000000000000000001614612ce3577f74620000000000000000000000000000000000000000000000000000000000008788604051602001612ca191815260200190565b60408051601f19818403018152908290527f31b46683000000000000000000000000000000000000000000000000000000008252610525939291600401613dad565b5f612cfd828760ff166028026038011c64ffffffffff1690565b90505f83518564ffffffffff1683612d1591906138bf565b612d1f91906138f9565b9050808214158015612d41575081612d378688613ded565b64ffffffffff1614155b15612d91576040517fa65010b400000000000000000000000000000000000000000000000000000000815264ffffffffff8088166004830152808716602483015283166044820152606401610525565b818664ffffffffff161115612de2576040517f7e8578d30000000000000000000000000000000000000000000000000000000081526004810183905264ffffffffff87166024820152604401610525565b5f612dee848984613654565b90505f612dfa8b613547565b90505f5b8151811015612ebe575f828281518110612e1a57612e1a613955565b60200260200101519050612e466010826affffffffffffffffffffff19166135cc90919063ffffffff16565b15612eb557606081901c6001600160a01b03166355eb5a288e8e8e8e8e8d8f6040518863ffffffff1660e01b8152600401612e879796959493929190613e12565b5f604051808303815f87803b158015612e9e575f80fd5b505af1158015612eb0573d5f803e3d5ffd5b505050505b50600101612dfe565b5064ffffffffff88165f5b8a60ff168160ff161015612efc57612ef0878260ff166028026038011c64ffffffffff1690565b90910190600101612ec9565b508b7ffe158a7adba34e256807c8a149028d3162918713c3838afc643ce9f96716ebfd8c8c848c888d604051612f3796959493929190613e6f565b60405180910390a250828414612f57575f612f528c8c6135ff565b839055505b5f612f638c8c8c612b70565b9050612f77818a64ffffffffff16896135e9565b505f5b815181101561303a575f828281518110612f9657612f96613955565b60200260200101519050612fc26020826affffffffffffffffffffff19166135cc90919063ffffffff16565b1561303157606081901c6001600160a01b031663635845338e8e8e8e8e8a8f6040518863ffffffff1660e01b81526004016130039796959493929190613e12565b5f604051808303815f87803b15801561301a575f80fd5b505af115801561302c573d5f803e3d5ffd5b505050505b50600101612f7a565b505050505050505050505050565b5f6008613057600260206138bf565b613061919061390c565b9190911c919050565b6060815f03613087575060408051602081019091525f8152610382565b5f6130928585612806565b905061241c815f85612c00565b5f60086001806130b1600260206138bf565b6130bb91906138bf565b6130c591906138bf565b6130cf919061390c565b8260ff911c1692915050565b821561315f576020831061310557602083048401935060208381613101576131016138d2565b0692505b821561315f5760208390035f8184101561312657505f19600884021c61312f565b505f19600882021c5b8554600886021b818451168219821617845250818411613150575050612b6a565b50600194909401939182900391015b5b602082106131815783548152600190930192601f1990910190602001613160565b8115612b6a575f5f19600884021c8251865482191691161782525050505050565b5f7f8b9d8c8b908d9affffffffffffffffffab9e9d939a8d0000000000000000000082016131f057507e60030220202000000000000000000000000000000000000000000000000000919050565b6102b161321d7f746273746f72650000000000000000005461626c65730000000000000000000084613721565b60205f61288b565b7f6f74000000000000000000000000000000000000000000000000000000000000867fffff00000000000000000000000000000000000000000000000000000000000016036132b157857f8dbb3a9672eebfd3773e72dd9c102393436816d832c7ba9e1e1ac8fcadcac7a9868686866040516132a49493929190613eca565b60405180910390a26105af565b5f6132bb87613547565b90505f5b815181101561338d575f8282815181106132db576132db613955565b602002602001015190506133076001826affffffffffffffffffffff19166135cc90919063ffffffff16565b15613384576040517f57066c9c000000000000000000000000000000000000000000000000000000008152606082901c906357066c9c90613356908c908c908c908c908c908c90600401613f08565b5f604051808303815f87803b15801561336d575f80fd5b505af115801561337f573d5f803e3d5ffd5b505050505b506001016132bf565b50867f8dbb3a9672eebfd3773e72dd9c102393436816d832c7ba9e1e1ac8fcadcac7a9878787876040516133c49493929190613eca565b60405180910390a25f6133d78888612806565b90505f6020870190506133ed825f89518461373c565b5f6133f78561309f565b1115613477575f6134088a8a6135ff565b87815590506020860191505f805f5b6134208861309f565b8160ff161015613472576134358d8d83612b70565b92506134508a8260ff166028026038011c64ffffffffff1690565b915061345e835f848861373c565b61346882866138f9565b9450600101613417565b505050505b5f5b8351811015611b73575f84828151811061349557613495613955565b602002602001015190506134c16002826affffffffffffffffffffff19166135cc90919063ffffffff16565b1561353e576040517f5b28cdaf000000000000000000000000000000000000000000000000000000008152606082901c90635b28cdaf90613510908e908e908e908e908e908e90600401613f08565b5f604051808303815f87803b158015613527575f80fd5b505af1158015613539573d5f803e3d5ffd5b505050505b50600101613479565b6040805160018082528183019092526060915f91906020808301908036833701905050905082815f8151811061357f5761357f613955565b60209081029190910101525f6135b67f746273746f726500000000000000000053746f7265486f6f6b73000000000000838361243a565b90506113086135c7825f8451611f6a565b6137f7565b5f8160ff16826135dc8560581c90565b1660ff1614905092915050565b6113a5838383516135fa8560200190565b61373c565b5f8282604051602001613613929190613d09565b60408051601f1981840301815291905280516020909101207f14e2fcc58e58e68ec7edc30c8d50dccc3ce2714a623ec81f46b6a63922d76569189392505050565b5f64ffffffffff821115613697576040517f7149a3c100000000000000000000000000000000000000000000000000000000815260048101839052602401610525565b8366ffffffffffffff811660ff851660280260380182901c64ffffffffff168085106136c957808503820191506136d1565b848103820391505b5064ffffffffff6038602860ff8816020181811b197fffffffffffffffffffffffffffffffffffffffffffffffffff000000000000009490941690921792909216918416901b1790509392505050565b60408051602081018490529081018290525f9060600161281a565b82156137b4576020831061376657602083048401935060208381613762576137626138d2565b0692505b82156137b45760208390035f5f19600885021c1990506008850281811c91508351811c90508119875416828216178755508184116137a5575050612b6a565b50600194909401939182900391015b5b602082106137d65780518455600190930192601f19909101906020016137b5565b8115612b6a575f5f19600884021c8554835182191691161785555050505050565b60605f6103828360155f612473565b5f60208284031215613816575f80fd5b81357fffffffff0000000000000000000000000000000000000000000000000000000081168114610382575f80fd5b5f60208284031215613855575f80fd5b5035919050565b5f806040838503121561386d575f80fd5b50508035926020909101359150565b5f805f806080858703121561388f575f80fd5b5050823594602084013594506040840135936060013592509050565b634e487b7160e01b5f52601160045260245ffd5b818103818111156102b1576102b16138ab565b634e487b7160e01b5f52601260045260245ffd5b5f826138f4576138f46138d2565b500690565b808201808211156102b1576102b16138ab565b80820281158282048414176102b1576102b16138ab565b5f82613931576139316138d2565b500490565b5f60208284031215613946575f80fd5b81518015158114610382575f80fd5b634e487b7160e01b5f52603260045260245ffd5b805161ffff811681146123eb575f80fd5b5f806040838503121561398b575f80fd5b61399483613969565b91506139a260208401613969565b90509250929050565b634e487b7160e01b5f52604160045260245ffd5b5f815180845260208085019450602084015f5b838110156139ee578151875295820195908201906001016139d2565b509495945050505050565b848152608060208201525f613a1160808301866139bf565b60ff949094166040830152506060015292915050565b5f60208284031215613a37575f80fd5b5051919050565b5f5b83811015613a58578181015183820152602001613a40565b50505f910152565b5f8151808452613a77816020860160208601613a3e565b601f01601f19169290920160200192915050565b85815260a060208201525f613aa360a08301876139bf565b60ff861660408401528281036060840152613abe8186613a60565b9150508260808301529695505050505050565b838152606060208201525f613ae960608301856139bf565b905060ff83166040830152949350505050565b5f82601f830112613b0b575f80fd5b815167ffffffffffffffff80821115613b2657613b266139ab565b604051601f8301601f19908116603f01168101908282118183101715613b4e57613b4e6139ab565b81604052838152866020858801011115613b66575f80fd5b611645846020830160208901613a3e565b5f60208284031215613b87575f80fd5b815167ffffffffffffffff811115613b9d575f80fd5b61130884828501613afc565b606081525f613bbb6060830186613a60565b60208301949094525060400152919050565b848152608060208201525f613be560808301866139bf565b60ff851660408401528281036060840152613c008185613a60565b979650505050505050565b838152606060208201525f613c2360608301856139bf565b9050826040830152949350505050565b5f805f60608486031215613c45575f80fd5b835167ffffffffffffffff80821115613c5c575f80fd5b613c6887838801613afc565b9450602086015193506040860151915080821115613c84575f80fd5b50613c9186828701613afc565b9150509250925092565b85815260a060208201525f613cb360a08301876139bf565b8281036040840152613cc58187613a60565b90508460608401528281036080840152613cdf8185613a60565b98975050505050505050565b5f60ff821660ff8103613d0057613d006138ab565b60010192915050565b8281525f60208083018451602086015f5b82811015613d3657815184529284019290840190600101613d1a565b5091979650505050505050565b606081525f613d5560608301866139bf565b65ffffffffffff8516602084015282810360408401526116458185613a60565b848152608060208201525f613d8d60808301866139bf565b65ffffffffffff851660408401528281036060840152613c008185613a60565b7fffff00000000000000000000000000000000000000000000000000000000000084168152826020820152606060408201525f61241c6060830184613a60565b64ffffffffff818116838216019080821115613e0b57613e0b6138ab565b5092915050565b87815260e060208201525f613e2a60e08301896139bf565b60ff8816604084015264ffffffffff87811660608501528616608084015260a0830185905282810360c0840152613e618185613a60565b9a9950505050505050505050565b60c081525f613e8160c08301896139bf565b60ff8816602084015265ffffffffffff8716604084015264ffffffffff8616606084015284608084015282810360a0840152613ebd8185613a60565b9998505050505050505050565b608081525f613edc60808301876139bf565b8281036020840152613eee8187613a60565b90508460408401528281036060840152613c008185613a60565b86815260c060208201525f613f2060c08301886139bf565b8281036040840152613f328188613a60565b90508560608401528281036080840152613f4c8186613a60565b9150508260a083015297965050505050505056fea26469706673582212204c75f508eb3b8f043e9670eddce3e329176a796aee418c22d68188bc6726572e64736f6c63430008180033","linkReferences":{}},"methodIdentifiers":{"_msgSender()":"119df25f","_msgValue()":"45ec9354","_world()":"e1af802c","buy(uint256,bytes32,uint256,bytes32)":"b702f92b","canRestock(bytes32)":"c9ad107c","endShopEncounter(bytes32)":"73a95569","isShop(bytes32)":"5dcbb50b","itemBase(uint256)":"d8fa95d7","itemMarkdown(bytes32,uint256)":"7246e48c","itemMarkup(bytes32,uint256)":"da0996cd","itemStock(bytes32,uint256)":"9238e994","restock(bytes32)":"1cb2b85f","sell(uint256,bytes32,uint256,bytes32)":"f479b6ea","shopSystemAddress()":"4ec9c8e3","supportsInterface(bytes4)":"01ffc9a7"},"id":309}