{"abi":[{"type":"function","name":"_msgSender","inputs":[],"outputs":[{"name":"sender","type":"address","internalType":"address"}],"stateMutability":"view"},{"type":"function","name":"_msgValue","inputs":[],"outputs":[{"name":"value","type":"uint256","internalType":"uint256"}],"stateMutability":"pure"},{"type":"function","name":"_world","inputs":[],"outputs":[{"name":"","type":"address","internalType":"address"}],"stateMutability":"view"},{"type":"function","name":"buy","inputs":[{"name":"amount","type":"uint256","internalType":"uint256"},{"name":"shopId","type":"bytes32","internalType":"bytes32"},{"name":"itemIndex","type":"uint256","internalType":"uint256"},{"name":"characterId","type":"bytes32","internalType":"bytes32"}],"outputs":[],"stateMutability":"nonpayable"},{"type":"function","name":"canRestock","inputs":[{"name":"shopId","type":"bytes32","internalType":"bytes32"}],"outputs":[{"name":"","type":"bool","internalType":"bool"}],"stateMutability":"view"},{"type":"function","name":"itemBase","inputs":[{"name":"itemId","type":"uint256","internalType":"uint256"}],"outputs":[{"name":"","type":"uint256","internalType":"uint256"}],"stateMutability":"view"},{"type":"function","name":"itemMarkdown","inputs":[{"name":"shopId","type":"bytes32","internalType":"bytes32"},{"name":"itemId","type":"uint256","internalType":"uint256"}],"outputs":[{"name":"","type":"uint256","internalType":"uint256"}],"stateMutability":"view"},{"type":"function","name":"itemMarkup","inputs":[{"name":"shopId","type":"bytes32","internalType":"bytes32"},{"name":"itemId","type":"uint256","internalType":"uint256"}],"outputs":[{"name":"","type":"uint256","internalType":"uint256"}],"stateMutability":"view"},{"type":"function","name":"itemStock","inputs":[{"name":"shopId","type":"bytes32","internalType":"bytes32"},{"name":"itemIndex","type":"uint256","internalType":"uint256"}],"outputs":[{"name":"","type":"uint256","internalType":"uint256"}],"stateMutability":"view"},{"type":"function","name":"restock","inputs":[{"name":"shopId","type":"bytes32","internalType":"bytes32"}],"outputs":[{"name":"","type":"bool","internalType":"bool"}],"stateMutability":"nonpayable"},{"type":"function","name":"sell","inputs":[{"name":"amount","type":"uint256","internalType":"uint256"},{"name":"shopId","type":"bytes32","internalType":"bytes32"},{"name":"itemIndex","type":"uint256","internalType":"uint256"},{"name":"characterId","type":"bytes32","internalType":"bytes32"}],"outputs":[],"stateMutability":"nonpayable"},{"type":"function","name":"shopSystemAddress","inputs":[],"outputs":[{"name":"","type":"address","internalType":"address"}],"stateMutability":"view"},{"type":"function","name":"supportsInterface","inputs":[{"name":"interfaceId","type":"bytes4","internalType":"bytes4"}],"outputs":[{"name":"","type":"bool","internalType":"bool"}],"stateMutability":"pure"},{"type":"event","name":"Store_SpliceDynamicData","inputs":[{"name":"tableId","type":"bytes32","indexed":true,"internalType":"ResourceId"},{"name":"keyTuple","type":"bytes32[]","indexed":false,"internalType":"bytes32[]"},{"name":"dynamicFieldIndex","type":"uint8","indexed":false,"internalType":"uint8"},{"name":"start","type":"uint48","indexed":false,"internalType":"uint48"},{"name":"deleteCount","type":"uint40","indexed":false,"internalType":"uint40"},{"name":"encodedLengths","type":"bytes32","indexed":false,"internalType":"EncodedLengths"},{"name":"data","type":"bytes","indexed":false,"internalType":"bytes"}],"anonymous":false},{"type":"event","name":"Store_SpliceStaticData","inputs":[{"name":"tableId","type":"bytes32","indexed":true,"internalType":"ResourceId"},{"name":"keyTuple","type":"bytes32[]","indexed":false,"internalType":"bytes32[]"},{"name":"start","type":"uint48","indexed":false,"internalType":"uint48"},{"name":"data","type":"bytes","indexed":false,"internalType":"bytes"}],"anonymous":false},{"type":"error","name":"EncodedLengths_InvalidLength","inputs":[{"name":"length","type":"uint256","internalType":"uint256"}]},{"type":"error","name":"ReentrancyGuardReentrantCall","inputs":[]},{"type":"error","name":"Slice_OutOfBounds","inputs":[{"name":"data","type":"bytes","internalType":"bytes"},{"name":"start","type":"uint256","internalType":"uint256"},{"name":"end","type":"uint256","internalType":"uint256"}]},{"type":"error","name":"Store_IndexOutOfBounds","inputs":[{"name":"length","type":"uint256","internalType":"uint256"},{"name":"accessedIndex","type":"uint256","internalType":"uint256"}]},{"type":"error","name":"Store_InvalidResourceType","inputs":[{"name":"expected","type":"bytes2","internalType":"bytes2"},{"name":"resourceId","type":"bytes32","internalType":"ResourceId"},{"name":"resourceIdString","type":"string","internalType":"string"}]},{"type":"error","name":"Store_InvalidSplice","inputs":[{"name":"startWithinField","type":"uint40","internalType":"uint40"},{"name":"deleteCount","type":"uint40","internalType":"uint40"},{"name":"fieldLength","type":"uint40","internalType":"uint40"}]}],"bytecode":{"object":"0x608060405234801561001057600080fd5b506001600055612ee4806100256000396000f3fe608060405234801561001057600080fd5b50600436106100df5760003560e01c80639238e9941161008c578063d8fa95d711610066578063d8fa95d7146101a8578063da0996cd146101bb578063e1af802c146101ce578063f479b6ea146101d657600080fd5b80639238e9941461016d578063b702f92b14610180578063c9ad107c1461019557600080fd5b806345ec9354116100bd57806345ec93541461013f5780634ec9c8e3146101545780637246e48c1461015a57600080fd5b806301ffc9a7146100e4578063119df25f1461010c5780631cb2b85f1461012c575b600080fd5b6100f76100f23660046128bc565b6101e9565b60405190151581526020015b60405180910390f35b610114610282565b6040516001600160a01b039091168152602001610103565b6100f761013a3660046128fe565b610291565b36601f1901355b604051908152602001610103565b30610114565b610146610168366004612917565b61032f565b61014661017b366004612917565b610361565b61019361018e366004612939565b61038d565b005b6100f76101a33660046128fe565b6108c6565b6101466101b63660046128fe565b610906565b6101466101c9366004612917565b610911565b61011461094f565b6101936101e4366004612939565b610959565b60007fffffffff0000000000000000000000000000000000000000000000000000000082167fb5dee12700000000000000000000000000000000000000000000000000000000148061027c57507fffffffff0000000000000000000000000000000000000000000000000000000082167f01ffc9a700000000000000000000000000000000000000000000000000000000145b92915050565b600061028c610ea8565b905090565b600061029c826108c6565b156103275760006102ac83610eda565b9050600061a8c06102bd8342612981565b6102c791906129aa565b905060006102d58242612981565b90506102ec856102e78361a8c06129be565b610f58565b60006102f786610ff5565b9050600061030487611077565b905061031087836110ed565b61031a878261115b565b5060019695505050505050565b506000919050565b600061271061033d846111d2565b61034684610906565b61035091906129d1565b61035a91906129e8565b9392505050565b600061036c83611248565b828151811061037d5761037d6129fc565b6020026020010151905092915050565b61039561094f565b6001600160a01b03166343def638826103ac610282565b6040517fffffffff0000000000000000000000000000000000000000000000000000000060e085901b16815260048101929092526001600160a01b03166024820152604401602060405180830381865afa15801561040e573d6000803e3d6000fd5b505050506040513d601f19601f820116820180604052508101906104329190612a12565b6104a95760405162461bcd60e51b815260206004820152602360248201527f43616e6e6f742062757920616e206974656d20666f7220736f6d656f6e65206560448201527f6c7365000000000000000000000000000000000000000000000000000000000060648201526084015b60405180910390fd5b6000806104b461094f565b6001600160a01b0316638b4ce3e5846040518263ffffffff1660e01b81526004016104e191815260200190565b6040805180830381865afa1580156104fd573d6000803e3d6000fd5b505050506040513d601f19601f820116820180604052508101906105219190612a46565b9150915061052d61094f565b6040517ff48a39720000000000000000000000000000000000000000000000000000000081526004810187905261ffff8085166024830152831660448201526001600160a01b03919091169063f48a397290606401602060405180830381865afa15801561059f573d6000803e3d6000fd5b505050506040513d601f19601f820116820180604052508101906105c39190612a12565b15156001146106395760405162461bcd60e51b8152602060048201526024808201527f43616e6e6f74206275792066726f6d20612073686f702061742061206469737460448201527f616e63650000000000000000000000000000000000000000000000000000000060648201526084016104a0565b6000610644866112b3565b9050600061065187611248565b905087818781518110610666576106666129fc565b602002602001015110156106bc5760405162461bcd60e51b815260206004820152601260248201527f696e73756666696369656e742073746f636b000000000000000000000000000060448201526064016104a0565b878187815181106106cf576106cf6129fc565b60200260200101516106e19190612981565b8187815181106106f3576106f36129fc565b60200260200101818152505061070987826110ed565b6107528761073089858a81518110610723576107236129fc565b6020026020010151610911565b61073a908b6129d1565b6107438a61131e565b61074d91906129be565b61115b565b61075a611393565b6001600160a01b03166323b872dd610770610282565b6107786113fb565b61078e8b878c81518110610723576107236129fc565b610798908d6129d1565b6040517fffffffff0000000000000000000000000000000000000000000000000000000060e086901b1681526001600160a01b03938416600482015292909116602483015260448201526064016020604051808303816000875af1158015610804573d6000803e3d6000fd5b505050506040513d601f19601f820116820180604052508101906108289190612a12565b5061083161094f565b6001600160a01b031663cd9caca286848981518110610852576108526129fc565b60200260200101518b6040518463ffffffff1660e01b815260040161088a939291909283526020830191909152604082015260600190565b600060405180830381600087803b1580156108a457600080fd5b505af11580156108b8573d6000803e3d6000fd5b505050505050505050505050565b6000806108d283610eda565b9050428111156108e55750600092915050565b61a8c06108f28242612981565b106109005750600192915050565b50919050565b600061027c8261142e565b600061271061091f846114c3565b61092884610906565b61093291906129d1565b61093c91906129e8565b61094583610906565b61035a91906129be565b600061028c611539565b61096161094f565b6001600160a01b03166343def63882610978610282565b6040517fffffffff0000000000000000000000000000000000000000000000000000000060e085901b16815260048101929092526001600160a01b03166024820152604401602060405180830381865afa1580156109da573d6000803e3d6000fd5b505050506040513d601f19601f820116820180604052508101906109fe9190612a12565b610a6f5760405162461bcd60e51b8152602060048201526024808201527f43616e6e6f742073656c6c20616e206974656d20666f7220736f6d656f6e652060448201527f656c73650000000000000000000000000000000000000000000000000000000060648201526084016104a0565b600080610a7a61094f565b6001600160a01b0316638b4ce3e5846040518263ffffffff1660e01b8152600401610aa791815260200190565b6040805180830381865afa158015610ac3573d6000803e3d6000fd5b505050506040513d601f19601f82011682018060405250810190610ae79190612a46565b91509150610af361094f565b6040517ff48a39720000000000000000000000000000000000000000000000000000000081526004810187905261ffff8085166024830152831660448201526001600160a01b03919091169063f48a397290606401602060405180830381865afa158015610b65573d6000803e3d6000fd5b505050506040513d601f19601f82011682018060405250810190610b899190612a12565b1515600114610c005760405162461bcd60e51b815260206004820152602360248201527f43616e6e6f742073656c6c20746f20612073686f70206174206120646973746160448201527f6e6365000000000000000000000000000000000000000000000000000000000060648201526084016104a0565b6000610c0b86611248565b90506000610c1887611543565b9050610c3d87828881518110610c3057610c306129fc565b602002602001015161032f565b610c4790896129d1565b610c508861131e565b1015610c9e5760405162461bcd60e51b815260206004820152601e60248201527f53686f7020646f6573206e6f74206861766520656e6f75676820676f6c64000060448201526064016104a0565b87828781518110610cb157610cb16129fc565b6020026020010151610cc391906129be565b828781518110610cd557610cd56129fc565b602002602001018181525050610ceb87836110ed565b610d2287610d0589848a81518110610c3057610c306129fc565b610d0f908b6129d1565b610d188a61131e565b61074d9190612981565b6000610d2d88611543565b9050610d376115ad565b6001600160a01b031663fe99049a610d4d610282565b610d556113fb565b848b81518110610d6757610d676129fc565b60209081029190910101516040517fffffffff0000000000000000000000000000000000000000000000000000000060e086901b1681526001600160a01b0393841660048201529290911660248301526044820152606481018c9052608401600060405180830381600087803b158015610de057600080fd5b505af1158015610df4573d6000803e3d6000fd5b50505050610e0061094f565b6001600160a01b031663bcf0229a87610e258b868c81518110610c3057610c306129fc565b610e2f908d6129d1565b6040517fffffffff0000000000000000000000000000000000000000000000000000000060e085901b16815260048101929092526024820152604401600060405180830381600087803b158015610e8557600080fd5b505af1158015610e99573d6000803e3d6000fd5b50505050505050505050505050565b7fffffffffffffffffffffffffffffffffffffffffffffffffffffffffffffffcc36013560601c80610ed75750335b90565b604080516001808252818301909252600091829190602080830190803683370190505090508281600081518110610f1357610f136129fc565b60209081029190910101526000610f50747462554400000000000000000000000053686f707360581b83600467050028210101010160bd1b611607565b949350505050565b604080516001808252818301909252600091602080830190803683370190505090508281600081518110610f8e57610f8e6129fc565b602002602001018181525050610ff0747462554400000000000000000000000053686f707360581b60001b82600485604051602001610fcf91815260200190565b60408051601f1981840301815291905267050028210101010160bd1b6116c4565b505050565b6040805160018082528183019092526060916000919060208083019080368337019050509050828160008151811061102f5761102f6129fc565b60209081029190910101526000611060747462554400000000000000000000000053686f707360581b83600261177a565b9050610f506110728260008451611841565b6118cf565b6040805160018082528183019092526000918291906020808301908036833701905050905082816000815181106110b0576110b06129fc565b60209081029190910101526000610f50747462554400000000000000000000000053686f707360581b83600167050028210101010160bd1b611607565b604080516001808252818301909252600091602080830190803683370190505090508281600081518110611123576111236129fc565b6020908102919091010152610ff0747462554400000000000000000000000053686f707360581b826003611156866118e0565b6118f0565b604080516001808252818301909252600091602080830190803683370190505090508281600081518110611191576111916129fc565b602002602001018181525050610ff0747462554400000000000000000000000053686f707360581b60001b82600085604051602001610fcf91815260200190565b60408051600180825281830190925260009182919060208083019080368337019050509050828160008151811061120b5761120b6129fc565b60209081029190910101526000610f50747462554400000000000000000000000053686f707360581b83600367050028210101010160bd1b611607565b60408051600180825281830190925260609160009190602080830190803683370190505090508281600081518110611282576112826129fc565b60209081029190910101526000611060747462554400000000000000000000000053686f707360581b83600361177a565b604080516001808252818301909252606091600091906020808301908036833701905050905082816000815181106112ed576112ed6129fc565b60209081029190910101526000611060747462554400000000000000000000000053686f707360581b83600161177a565b604080516001808252818301909252600091829190602080830190803683370190505090508281600081518110611357576113576129fc565b60209081029190910101526000610f50747462554400000000000000000000000053686f707360581b838367050028210101010160bd1b611607565b6040805160008082526020820190925260006113f17f74625544000000000000000000000000556c74696d617465446f6d696e696f6e8360017ea1090001141414141414141400000000000000000000000000000000000000611607565b60601c9392505050565b600061028c6114297f55440000000000000000000000000000000000000000000000000000000000006119a2565b6119ef565b604080516001808252818301909252600091829190602080830190803683370190505090508260001b8160008151811061146a5761146a6129fc565b60209081029190910101526000610f507f746255440000000000000000000000004974656d7300000000000000000000008360027e41030101202000000000000000000000000000000000000000000000000000611607565b6040805160018082528183019092526000918291906020808301908036833701905050905082816000815181106114fc576114fc6129fc565b60209081029190910101526000610f50747462554400000000000000000000000053686f707360581b83600267050028210101010160bd1b611607565b600061028c611a8b565b6040805160018082528183019092526060916000919060208083019080368337019050509050828160008151811061157d5761157d6129fc565b60209081029190910101526000611060747462554400000000000000000000000053686f707360581b838361177a565b6040805160008082526020820190925260006113f17f74625544000000000000000000000000556c74696d617465446f6d696e696f6e8360057ea10900011414141414141414000000000000000000000000000000000000005b600080611612611a8b565b9050306001600160a01b038216036116385761163086868686611aca565b915050610f50565b6040517f8c364d590000000000000000000000000000000000000000000000000000000081526001600160a01b03821690638c364d5990611683908990899089908990600401612acb565b602060405180830381865afa1580156116a0573d6000803e3d6000fd5b505050506040513d601f19601f820116820180604052508101906116309190612afa565b60006116ce611a8b565b9050306001600160a01b038216036116f2576116ed8686868686611b00565b611772565b6040517f390baae00000000000000000000000000000000000000000000000000000000081526001600160a01b0382169063390baae09061173f9089908990899089908990600401612b63565b600060405180830381600087803b15801561175957600080fd5b505af115801561176d573d6000803e3d6000fd5b505050505b505050505050565b60606000611786611a8b565b9050306001600160a01b038216036117ab576117a3858585611b15565b91505061035a565b6040517f1e7889770000000000000000000000000000000000000000000000000000000081526001600160a01b03821690631e788977906117f490889088908890600401612baa565b600060405180830381865afa158015611811573d6000803e3d6000fd5b505050506040513d6000823e601f3d908101601f191682016040526117a39190810190612bd6565b509392505050565b6000818311806118515750835182115b1561188e578383836040517f23230fa30000000000000000000000000000000000000000000000000000000081526004016104a093929190612c83565b6020840161189c84826129be565b905060006118aa8585612981565b6fffffffffffffffffffffffffffffffff1660809290921b9190911795945050505050565b6060600061035a8360206000611b4f565b60608161035a8160206000611bca565b60006118fa611a8b565b9050306001600160a01b0382160361191d5761191885858585611c1e565b61199b565b6040517fef6ea8620000000000000000000000000000000000000000000000000000000081526001600160a01b0382169063ef6ea86290611968908890889088908890600401612ca8565b600060405180830381600087803b15801561198257600080fd5b505af1158015611996573d6000803e3d6000fd5b505050505b5050505050565b600061027c7f7379000000000000000000000000000000000000000000000000000000000000837f4c6f6f744d616e61676572537973746500000000000000000000000000000000611c59565b604080516001808252818301909252600091829190602080830190803683370190505090508281600081518110611a2857611a286129fc565b60209081029190910101526000611a807f7462776f726c6400000000000000000053797374656d7300000000000000000083837e15020014010000000000000000000000000000000000000000000000000000611607565b60601c949350505050565b7f629a4c26e296b22a8e0856e9f6ecb2d1008d7e00081111962cd175fa7488e175546000906001600160a01b031680611ac5573391505090565b919050565b6000611af7611ad98686611ce0565b60ff858116601b0360080285901c16611af28587611d36565b611d67565b95945050505050565b61199b8585611b0f8487611d36565b85611db8565b6060610f50611b2585858561205d565b6000611b4a85611b3589896120dd565b9060ff166028026038011c64ffffffffff1690565b6120f0565b60606000611b5d8560801c90565b90506fffffffffffffffffffffffffffffffff85166000858281611b8357611b83612994565b04905060405193506020840160208202810160405281855260005b82811015611bbe578451871c825293870193602090910190600101611b9e565b50505050509392505050565b82516060906000611bdb85836129d1565b9050604051925060208301601f19603f83860101166040528184526000602088015b84821015611bbe578051871b83529187019160019190910190602001611bfd565b6000611c2a85856120dd565b90506000611c47828560ff166028026038011c64ffffffffff1690565b90506117728686866000858888612113565b6000611c67607060106129be565b7fffff00000000000000000000000000000000000000000000000000000000000085167dffffffffffffffffffffffffffff00000000000000000000000000000000601086901c16177fffffffffffffffffffffffffffffffff00000000000000000000000000000000841690911c1790509392505050565b60008282604051602001611cf5929190612cdc565b60408051601f1981840301815291905280516020909101207f86425bff6b57326c7859e89024fe4f238ca327a1ae4a230180dd2f0e88aaa7d9189392505050565b600080805b8360ff1681101561183957611d5d60ff601b83900360080287901c16836129be565b9150600101611d3b565b600060208210611d8d57602082048401935060208281611d8957611d89612994565b0691505b508254600882021b602082900380841115611839576001850154600882021c82179150509392505050565b7f6f74000000000000000000000000000000000000000000000000000000000000847fffff0000000000000000000000000000000000000000000000000000000000001603611e4257837f8c0b5119d4cec7b284c6b1b39252a03d1e2f2d7451a5895562524c113bb952be848484604051611e3593929190612d18565b60405180910390a2612057565b6000611e4e8585611ce0565b90506000611e5b8661253f565b905060005b8151811015611f30576000828281518110611e7d57611e7d6129fc565b60200260200101519050611ea96004826affffffffffffffffffffff19166125c890919063ffffffff16565b15611f27576040517f964f667d000000000000000000000000000000000000000000000000000000008152606082901c9063964f667d90611ef4908b908b908b908b90600401612d55565b600060405180830381600087803b158015611f0e57600080fd5b505af1158015611f22573d6000803e3d6000fd5b505050505b50600101611e60565b50857f8c0b5119d4cec7b284c6b1b39252a03d1e2f2d7451a5895562524c113bb952be868686604051611f6593929190612d18565b60405180910390a2611f80828565ffffffffffff16856125e6565b60005b8151811015612053576000828281518110611fa057611fa06129fc565b60200260200101519050611fcc6008826affffffffffffffffffffff19166125c890919063ffffffff16565b1561204a576040517fa8ba8721000000000000000000000000000000000000000000000000000000008152606082901c9063a8ba872190612017908b908b908b908b90600401612d55565b600060405180830381600087803b15801561203157600080fd5b505af1158015612045573d6000803e3d6000fd5b505050505b50600101611f83565b5050505b50505050565b60008383604051602001612072929190612cdc565b604051602081830303815290604052805190602001208260f81b7effffffffffffffffffffffffffffffffffffffffffffffffffffffffffffff19167f3b4102da22e32d82fc925482184f16c09fd4281692720b87d124aef6da48a0f1181860001c90509392505050565b600061035a6120ec84846125fc565b5490565b60405160208101601f19603f848401011660405282825261183985858584612652565b7f7462000000000000000000000000000000000000000000000000000000000000877fffff00000000000000000000000000000000000000000000000000000000000016146121d3577f7462000000000000000000000000000000000000000000000000000000000000878860405160200161219191815260200190565b60408051601f19818403018152908290527f31b466830000000000000000000000000000000000000000000000000000000082526104a0939291600401612d8e565b60006121ee828760ff166028026038011c64ffffffffff1690565b9050600083518564ffffffffff16836122079190612981565b61221191906129be565b90508082141580156122335750816122298688612dcf565b64ffffffffff1614155b15612283576040517fa65010b400000000000000000000000000000000000000000000000000000000815264ffffffffff80881660048301528087166024830152831660448201526064016104a0565b818664ffffffffff1611156122d4576040517f7e8578d30000000000000000000000000000000000000000000000000000000081526004810183905264ffffffffff871660248201526044016104a0565b60006122e184898461271e565b905060006122ee8b61253f565b905060005b81518110156123b9576000828281518110612310576123106129fc565b6020026020010151905061233c6010826affffffffffffffffffffff19166125c890919063ffffffff16565b156123b057606081901c6001600160a01b03166355eb5a288e8e8e8e8e8d8f6040518863ffffffff1660e01b815260040161237d9796959493929190612df4565b600060405180830381600087803b15801561239757600080fd5b505af11580156123ab573d6000803e3d6000fd5b505050505b506001016122f3565b5064ffffffffff881660005b8a60ff168160ff1610156123f8576123ec878260ff166028026038011c64ffffffffff1690565b909101906001016123c5565b508b7ffe158a7adba34e256807c8a149028d3162918713c3838afc643ce9f96716ebfd8c8c848c888d60405161243396959493929190612e52565b60405180910390a25082841461245457600061244f8c8c6125fc565b839055505b60006124618c8c8c61205d565b9050612475818a64ffffffffff16896125e6565b5060005b81518110156108b8576000828281518110612496576124966129fc565b602002602001015190506124c26020826affffffffffffffffffffff19166125c890919063ffffffff16565b1561253657606081901c6001600160a01b031663635845338e8e8e8e8e8a8f6040518863ffffffff1660e01b81526004016125039796959493929190612df4565b600060405180830381600087803b15801561251d57600080fd5b505af1158015612531573d6000803e3d6000fd5b505050505b50600101612479565b60408051600180825281830190925260609160009190602080830190803683370190505090508281600081518110612579576125796129fc565b602090810291909101015260006125b17f746273746f726500000000000000000053746f7265486f6f6b730000000000008383611b15565b9050610f506125c38260008451611841565b6127ec565b60008160ff16826125d98560581c90565b1660ff1614905092915050565b610ff0838383516125f78560200190565b6127fd565b60008282604051602001612611929190612cdc565b60408051601f1981840301815291905280516020909101207f14e2fcc58e58e68ec7edc30c8d50dccc3ce2714a623ec81f46b6a63922d76569189392505050565b82156126d9576020831061267c5760208304840193506020838161267857612678612994565b0692505b82156126d957602083900360008184101561269f5750600019600884021c6126a9565b50600019600882021c5b8554600886021b8184511682198216178452508184116126ca575050612057565b50600194909401939182900391015b5b602082106126fb5783548152600190930192601f19909101906020016126da565b8115612057576000600019600884021c8251865482191691161782525050505050565b600064ffffffffff821115612762576040517f7149a3c1000000000000000000000000000000000000000000000000000000008152600481018390526024016104a0565b8366ffffffffffffff811660ff851660280260380182901c64ffffffffff16808510612794578085038201915061279c565b848103820391505b5064ffffffffff6038602860ff8816020181811b197fffffffffffffffffffffffffffffffffffffffffffffffffff000000000000009490941690921792909216918416901b1790509392505050565b6060600061035a8360156000611b4f565b821561287757602083106128275760208304840193506020838161282357612823612994565b0692505b82156128775760208390036000600019600885021c1990506008850281811c91508351811c9050811987541682821617875550818411612868575050612057565b50600194909401939182900391015b5b602082106128995780518455600190930192601f1990910190602001612878565b8115612057576000600019600884021c8554835182191691161785555050505050565b6000602082840312156128ce57600080fd5b81357fffffffff000000000000000000000000000000000000000000000000000000008116811461035a57600080fd5b60006020828403121561291057600080fd5b5035919050565b6000806040838503121561292a57600080fd5b50508035926020909101359150565b6000806000806080858703121561294f57600080fd5b5050823594602084013594506040840135936060013592509050565b634e487b7160e01b600052601160045260246000fd5b8181038181111561027c5761027c61296b565b634e487b7160e01b600052601260045260246000fd5b6000826129b9576129b9612994565b500690565b8082018082111561027c5761027c61296b565b808202811582820484141761027c5761027c61296b565b6000826129f7576129f7612994565b500490565b634e487b7160e01b600052603260045260246000fd5b600060208284031215612a2457600080fd5b8151801515811461035a57600080fd5b805161ffff81168114611ac557600080fd5b60008060408385031215612a5957600080fd5b612a6283612a34565b9150612a7060208401612a34565b90509250929050565b634e487b7160e01b600052604160045260246000fd5b60008151808452602080850194506020840160005b83811015612ac057815187529582019590820190600101612aa4565b509495945050505050565b848152608060208201526000612ae46080830186612a8f565b60ff949094166040830152506060015292915050565b600060208284031215612b0c57600080fd5b5051919050565b60005b83811015612b2e578181015183820152602001612b16565b50506000910152565b60008151808452612b4f816020860160208601612b13565b601f01601f19169290920160200192915050565b85815260a060208201526000612b7c60a0830187612a8f565b60ff861660408401528281036060840152612b978186612b37565b9150508260808301529695505050505050565b838152606060208201526000612bc36060830185612a8f565b905060ff83166040830152949350505050565b600060208284031215612be857600080fd5b815167ffffffffffffffff80821115612c0057600080fd5b818401915084601f830112612c1457600080fd5b815181811115612c2657612c26612a79565b604051601f8201601f19908116603f01168101908382118183101715612c4e57612c4e612a79565b81604052828152876020848701011115612c6757600080fd5b612c78836020830160208801612b13565b979650505050505050565b606081526000612c966060830186612b37565b60208301949094525060400152919050565b848152608060208201526000612cc16080830186612a8f565b60ff851660408401528281036060840152612c788185612b37565b8281526000602080830184516020860160005b82811015612d0b57815184529284019290840190600101612cef565b5091979650505050505050565b606081526000612d2b6060830186612a8f565b65ffffffffffff851660208401528281036040840152612d4b8185612b37565b9695505050505050565b848152608060208201526000612d6e6080830186612a8f565b65ffffffffffff851660408401528281036060840152612c788185612b37565b7fffff00000000000000000000000000000000000000000000000000000000000084168152826020820152606060408201526000611af76060830184612b37565b64ffffffffff818116838216019080821115612ded57612ded61296b565b5092915050565b87815260e060208201526000612e0d60e0830189612a8f565b60ff8816604084015264ffffffffff87811660608501528616608084015260a0830185905282810360c0840152612e448185612b37565b9a9950505050505050505050565b60c081526000612e6560c0830189612a8f565b60ff8816602084015265ffffffffffff8716604084015264ffffffffff8616606084015284608084015282810360a0840152612ea18185612b37565b999850505050505050505056fea2646970667358221220169cb51ecd3f0c7a6a913a918198959d9f658efd23ac393af0aba486e6056bdb64736f6c63430008180033","linkReferences":{}},"methodIdentifiers":{"_msgSender()":"119df25f","_msgValue()":"45ec9354","_world()":"e1af802c","buy(uint256,bytes32,uint256,bytes32)":"b702f92b","canRestock(bytes32)":"c9ad107c","itemBase(uint256)":"d8fa95d7","itemMarkdown(bytes32,uint256)":"7246e48c","itemMarkup(bytes32,uint256)":"da0996cd","itemStock(bytes32,uint256)":"9238e994","restock(bytes32)":"1cb2b85f","sell(uint256,bytes32,uint256,bytes32)":"f479b6ea","shopSystemAddress()":"4ec9c8e3","supportsInterface(bytes4)":"01ffc9a7"},"id":286}