{"abi":[{"type":"function","name":"_msgSender","inputs":[],"outputs":[{"name":"sender","type":"address","internalType":"address"}],"stateMutability":"view"},{"type":"function","name":"_msgValue","inputs":[],"outputs":[{"name":"value","type":"uint256","internalType":"uint256"}],"stateMutability":"view"},{"type":"function","name":"_world","inputs":[],"outputs":[{"name":"","type":"address","internalType":"address"}],"stateMutability":"view"},{"type":"function","name":"distributePvpRewards","inputs":[{"name":"encounterId","type":"bytes32","internalType":"bytes32"},{"name":"randomNumber","type":"uint256","internalType":"uint256"}],"outputs":[{"name":"_expAmount","type":"uint256","internalType":"uint256"},{"name":"_goldAmount","type":"uint256","internalType":"uint256"},{"name":"_itemIdsDropped","type":"uint256[]","internalType":"uint256[]"}],"stateMutability":"nonpayable"},{"type":"function","name":"supportsInterface","inputs":[{"name":"interfaceId","type":"bytes4","internalType":"bytes4"}],"outputs":[{"name":"","type":"bool","internalType":"bool"}],"stateMutability":"pure"},{"type":"event","name":"Store_SpliceStaticData","inputs":[{"name":"tableId","type":"bytes32","indexed":true,"internalType":"ResourceId"},{"name":"keyTuple","type":"bytes32[]","indexed":false,"internalType":"bytes32[]"},{"name":"start","type":"uint48","indexed":false,"internalType":"uint48"},{"name":"data","type":"bytes","indexed":false,"internalType":"bytes"}],"anonymous":false},{"type":"error","name":"InvalidRewardState","inputs":[]},{"type":"error","name":"NotAuthorizedCaller","inputs":[]},{"type":"error","name":"Slice_OutOfBounds","inputs":[{"name":"data","type":"bytes","internalType":"bytes"},{"name":"start","type":"uint256","internalType":"uint256"},{"name":"end","type":"uint256","internalType":"uint256"}]}],"bytecode":{"object":"0x6080806040523461001657611c02908161001b8239f35b5f80fdfe60806040526004361015610011575f80fd5b5f3560e01c806301ffc9a714610064578063119df25f1461005f57806345ec93541461005a578063b060475d146100555763e1af802c14610050575f80fd5b61033e565b61015a565b6100f2565b6100c6565b346100b85760203660031901126100b85760043563ffffffff60e01b81168091036100b85763b5dee12760e01b81149081156100a7575b50151560805260206080f35b6301ffc9a760e01b1490508161009b565b5f80fd5b5f9103126100b857565b346100b8575f3660031901126100b85760206100e06103e4565b6040516001600160a01b039091168152f35b346100b8575f3660031901126100b8576020604051601f193601358152f35b90608060608301925f815260209260208201526060604082015260605180945201916080915f5b828110610146575050505090565b835185529381019392810192600101610138565b346100b85760403660031901126100b8576004355f61017f61017a6103e4565b6103fb565b61018882610543565b916040830151158015610331575b61031f5782905f925f915f916101008501925b835180518210156101e8576101c1826101c79261036c565b51610629565b6101d4575b6001016101a9565b936101e0600191610399565b9490506101cc565b505084868585515114610317575b156102c1575f5b84518051821015610250579061024a61022161021b8360019561036c565b5161064c565b61024461023182861c80986103ca565b9661023d858b5161036c565b51926103d7565b9061066c565b016101fd565b509293506101200191505f5b825180518210156102a1579061029b61027a61021b8360019561036c565b610244610289875151876103ac565b61029485895161036c565b51926103ca565b0161025c565b505090506102b16102bd92610762565b60405191829182610111565b0390f35b61012001925f5b845180518210156102ec57906102e661022161021b8360019561036c565b016102c8565b50509192505f5b825180518210156102a1579061031161027a61021b8360019561036c565b016102f3565b5060016101f6565b60405163ce2521ff60e01b8152600490fd5b5060608301511515610196565b346100b8575f3660031901126100b85760206100e0610c97565b634e487b7160e01b5f52603260045260245ffd5b80518210156103805760209160051b010190565b610358565b634e487b7160e01b5f52601160045260245ffd5b5f1981146103a75760010190565b610385565b81156103b6570490565b634e487b7160e01b5f52601260045260245ffd5b919082018092116103a757565b919082039182116103a757565b36603319013560601c9081156103f657565b339150565b610403610529565b80516001600160a01b0390921691156103805780826020610425930152610a1f565b61046157610431610529565b80511561038057610446916020820152610ae0565b60f81c61045f57604051637046c88d60e01b8152600490fd5b565b50565b634e487b7160e01b5f52604160045260245ffd5b6001600160401b03811161048b57604052565b610464565b604081019081106001600160401b0382111761048b57604052565b601f909101601f19168101906001600160401b0382119082101761048b57604052565b6040519061014082016001600160401b0381118382101761048b576040526060610120835f81525f60208201525f60408201525f838201525f60808201525f60a08201525f60c08201525f60e0820152826101008201520152565b6040519061053682610490565b6001825260203681840137565b61054b6104ce565b50610554610529565b80511561038057610569916020820152610943565b6105749291926104ce565b92602083015160f81c9260038410156106155761060693816021610601930151906105f16041820151916105ac606182015160f81c90565b906062810151906082810151906105d98d60e06105d260c260a286015195015160f81c90565b1515910152565b60c08d015260a08c015260808b0152151560608a0152565b6040880152602087015285610a04565b610e25565b61012083015261010082015290565b634e487b7160e01b5f52602160045260245ffd5b610631610529565b80511561038057610646916020820152610b6d565b60f81c90565b610654610529565b80511561038057610669916020820152610c05565b90565b90610675610529565b918251156103805760208301526040519060208201526020815261069881610490565b6001600160a01b036106a8610c97565b16913083036106bb5761045f92506110cc565b90823b156100b8576040516301c85d5760e51b81526f416476656e74757265457363726f7700631d18955160e21b01600482015260a06024820152925f92849283918591839161072c91906107149060a4850190610905565b90846044850152600319848303016064850152610c72565b630100080160dd1b608483015203925af1801561075d5761074a5750565b8061075761045f92610478565b806100bc565b610938565b61076a610529565b90815115610380576020820152604051600160f81b60208201526001815261079181610490565b6001600160a01b036107a1610c97565b16913083036107b45761045f9250611266565b90823b156100b8576040516301c85d5760e51b81525f80516020611be2833981519152600482015260a06024820152925f92849283918591839161081a91906108019060a4850190610905565b6003604485015283810360031901606485015290610c72565b6aa30802012020012020200160a01b608483015203925af1801561075d5761074a5750565b6001600160401b03811161048b57601f01601f191660200190565b5f5b83811061086b5750505f910152565b818101518382015260200161085c565b81601f820112156100b85780516108918161083f565b9261089f60405194856104ab565b818452602082840101116100b857610669916020808501910161085a565b90916060828403126100b85781516001600160401b0392908381116100b857846108e891830161087b565b9360208201519360408301519081116100b857610669920161087b565b9081518082526020808093019301915f5b828110610924575050505090565b835185529381019392810192600101610916565b6040513d5f823e3d90fd5b6001600160a01b03610953610c97565b1630810361096c575061096590610d0f565b9192909190565b60405163419b58fd60e01b81525f80516020611be283398151915260048201526060602482015292915f918491829081906109ab906064830190610905565b6aa30802012020012020200160a01b604483015203915afa90811561075d575f80935f936109da575b50929190565b919350506109fa91503d805f833e6109f281836104ab565b8101906108bd565b929092915f6109d4565b60038210156106155752565b908160209103126100b8575190565b6001600160a01b03610a2f610c97565b16308103610a41575061066990610ecc565b604051638c364d5960e01b81526f53797374656d52656769737472790000661d189ddbdc9b1960ca1b0160048201526080602482015291602091839182908190610a8f906084830190610905565b5f6044830152630100080160dd1b606483015203915afa90811561075d575f91610ab7575090565b610669915060203d602011610ad9575b610ad181836104ab565b810190610a10565b503d610ac7565b6001600160a01b03610af0610c97565b16308103610b02575061066990610f4e565b604051638c364d5960e01b81526420b236b4b760591b631d18955160e21b0160048201526080602482015291602091839182908190610b45906084830190610905565b5f6044830152630101000160d81b606483015203915afa90811561075d575f91610ab7575090565b6001600160a01b03610b7d610c97565b16308103610b8f575061066990610faf565b604051638c364d5960e01b81526f456e636f756e746572456e7469747900631d18955160e21b0160048201526080602482015291602091839182908190610bda906084830190610905565b600160448301526502081809000960cd1b606483015203915afa90811561075d575f91610ab7575090565b6001600160a01b03610c15610c97565b16308103610c27575061066990611063565b604051638c364d5960e01b81526f416476656e74757265457363726f7700631d18955160e21b0160048201526080602482015291602091839182908190610a8f906084830190610905565b90602091610c8b8151809281855285808601910161085a565b601f01601f1916010190565b7f629a4c26e296b22a8e0856e9f6ecb2d1008d7e00081111962cd175fa7488e175546001600160a01b03168061066957503390565b90610cd68261083f565b610ce360405191826104ab565b8281528092610cf4601f199161083f565b0190602036910137565b60ff1660ff81146103a75760010190565b610d1881611629565b604051602091601f19928360e284011660405260a38352602083019160a390915b8581831015610e0f57505080610df3575b50505090604051610d70602082019282610d64878661147c565b039081018352826104ab565b5190205f80516020611bc28339815191521854610d9566ffffffffffffff8216610ccc565b925f92602085015b60ff8516906002821015610de957610de39181610dd8610ddd9364ffffffffff89610dc88c8b611506565b956028026038011c16809461158a565b6103ca565b94610cfe565b93610d9d565b5050949193925050565b5f199060031b1c908183511691199054161790525f8080610d4a565b9060018482949695548652019301930190610d39565b919064ffffffffff808460381c1690610e46610e4183856115d4565b61186f565b9460601c168101918282118015610ec2575b610e8d5790816020828194010192839101116103a75782039182116103a7576106699160018060801b03169060801b1761186f565b6040516323230fa360e01b81526060600482015292839291610eb3906064850190610c72565b91602484015260448301520390fd5b5080518311610e58565b60405160208160208101936f53797374656d52656769737472790000661d189ddbdc9b1960ca1b0185526040820160208251919201935f5b828110610f3757505050610f21925003601f1981018352826104ab565b5190205f80516020611b82833981519152185490565b855184529481019486945092810192600101610f04565b60405160208160208101936420b236b4b760591b631d18955160e21b0185526040820160208251919201935f5b828110610f9857505050610f21925003601f1981018352826104ab565b855184529481019486945092810192600101610f7b565b604051610fd281610fc46020820194856114bb565b03601f1981018352826104ab565b5190205f80516020611b82833981519152185f905f5b6001811061103b575081816020821015611025575b505080548260031b1b91602003908160011161101857505090565b600101549060031b1c1790565b90809350601f925060051c019116905f80610ffd565b9160ff6502081809000960cd1b84601b0360031b1c1681018091116103a75791600101610fe8565b60405160208160208101936f416476656e74757265457363726f7700631d18955160e21b0185526040820160208251919201935f5b8281106110b557505050610f21925003601f1981018352826104ab565b855184529481019486945092810192600101611098565b91906110d7836116a7565b916110e06118c4565b905f5b82518110156111875761111761110a6110fc838661036c565b516001600160581b03191690565b6001600160581b03191690565b9060049182808260581c1614611133575b5060019150016110e3565b60601c803b156100b857855f918983611161966040519788958694859363964f667d60e01b8552840161176c565b03925af191821561075d5760019215611128578061075761118192610478565b5f611128565b509291906111d2826040946040515f80516020611b628339815191526f416476656e74757265457363726f7700631d18955160e21b0191806111ca868d83611710565b0390a2611a6b565b5f5b815181101561125e576111ed61110a6110fc838561036c565b6008808260581c1614611204575b506001016111d4565b60601c90813b156100b857845163a8ba872160e01b8152915f9083908183816112318a8e6004840161176c565b03925af191821561075d5760019261124b575b50906111fb565b8061075761125892610478565b5f611244565b505050509050565b5f9291835b6003808610156112a4576aa30802012020012020200160a01b601b87900390911b1c60ff1681019081106103a75760019094019361126b565b5065ffffffffffff919450166112b982611629565b6112c16119c1565b905f5b825181101561134e576112dd61110a6110fc838661036c565b9060049182808260581c16146112f9575b5060019150016112c4565b60601c803b156100b857855f9188838c966113286040519889968795869463964f667d60e01b865285016117b7565b03925af191821561075d57600192156112ee578061075761134892610478565b5f6112ee565b5094919061139b8383604098875f80516020611b628339815191526040518061139387876f436f6d626174456e636f756e74657200631d18955160e21b01968461173b565b0390a2611ab8565b5f5b8151811015611428576113b661110a6110fc838561036c565b6008808260581c16146113cd575b5060010161139d565b60601c90813b156100b857875163a8ba872160e01b8152915f9083908183816113fb8b8b8e600485016117b7565b03925af191821561075d57600192611415575b50906113c4565b8061075761142292610478565b5f61140e565b50505050509050565b6953746f7265486f6f6b7360301b66746273746f726560c81b01815281516020918201928201915f5b828110611468575050505090565b83518552938101939281019260010161145a565b5f80516020611be2833981519152815281516020918201928201915f5b8281106114a7575050505090565b835185529381019392810192600101611499565b6f456e636f756e746572456e7469747900631d18955160e21b01815281516020918201928201915f5b8281106114f2575050505090565b8351855293810193928101926001016114e4565b604080515f80516020611be283398151915260208083019182528451938301969594919391810191905f5b828110611576575050505061155e815f80516020611ba2833981519152959603601f1981018352826104ab565b51902060f89190911b6001600160f81b031916181890565b835189529781019792810192600101611531565b9291925b6020908183106115ae5780548552930192601f199091019060010161158e565b919050929192806115be57505050565b5f199060031b1c90818351169119905416179052565b90815181116115f3576001600160801b031660209190910160801b1790565b6040516323230fa360e01b81526060600482015292508291611619906064840190610c72565b905f602484015260448301520390fd5b60405160208160208101936f436f6d626174456e636f756e74657200631d18955160e21b0185526040820160208251919201935f5b8281106116905750505061167b925003601f1981018352826104ab565b5190205f80516020611b828339815191521890565b85518452948101948694509281019260010161165e565b60405160208160208101936f416476656e74757265457363726f7700631d18955160e21b0185526040820160208251919201935f5b8281106116f95750505061167b925003601f1981018352826104ab565b8551845294810194869450928101926001016116dc565b909161172761066993606084526060840190610905565b915f60208201526040818403910152610c72565b65ffffffffffff6117586106699593606084526060840190610905565b931660208201526040818403910152610c72565b6f416476656e74757265457363726f7700631d18955160e21b0181526080602082018190526106699391926117a391840190610905565b915f60408201526060818403910152610c72565b65ffffffffffff6117f361066995936f436f6d626174456e636f756e74657200631d18955160e21b018452608060208501526080840190610905565b931660408201526060818403910152610c72565b60408051601f19603f85830101811690925283815292602080850193925b818310156118575750508061183b575b50505090565b5f199060031b1c908183511691199054161790525f8080611835565b81600185839495979654875201940194019190611825565b6040805160206020600160801b0384168201810190925260016001607b1b03600584901c1680825290939260801c8285015f5b8381106118b0575050505050565b8251825291840191908401906001016118a2565b6118cc610529565b8051156103805761197361196b6020926f416476656e74757265457363726f7700631d18955160e21b018482015264ffffffffff604051915f80516020611ba2833981519152868401846119208483611431565b0394611934601f19968781018352826104ab565b519020189261194e6040519182610d648a82019586611431565b5190205f80516020611bc2833981519152185460381c1690611807565b8051906115d4565b8060801c916015809260018060801b0316049060405193818501828460051b8701016040528386525f5b8481106119ad5750505050505090565b82518252918501919083019060010161199d565b6119c9610529565b80511561038057611a1d61196b6020926f436f6d626174456e636f756e74657200631d18955160e21b018482015264ffffffffff604051915f80516020611ba2833981519152868401846119208483611431565b8060801c916015809260018060801b0316049060405193818501828460051b8701016040528386525f5b848110611a575750505050505090565b825182529185019190830190600101611a47565b81519060208093019190925b80821015611aa0575080611a8a57505050565b5f199060031b1c90818354169119905116179055565b6001839482939451815501930191601f190190611a77565b82519261045f926020909101919080611b00575b509290925b602090818310611af15784518155930192601f1990910190600101611ad1565b929391905080611a8a57505050565b6020811015611b51575b8015611acc5791939082602003908360031b5f198460031b1c19811c908751901c90801983541691161781558183111561125e57600101940191601f19910101925f611acc565b90601f908260051c019116611b0a56fe8c0b5119d4cec7b284c6b1b39252a03d1e2f2d7451a5895562524c113bb952be86425bff6b57326c7859e89024fe4f238ca327a1ae4a230180dd2f0e88aaa7d93b4102da22e32d82fc925482184f16c09fd4281692720b87d124aef6da48a0f114e2fcc58e58e68ec7edc30c8d50dccc3ce2714a623ec81f46b6a63922d7656974625544000000000000000000000000436f6d626174456e636f756e74657200","linkReferences":{}},"methodIdentifiers":{"_msgSender()":"119df25f","_msgValue()":"45ec9354","_world()":"e1af802c","distributePvpRewards(bytes32,uint256)":"b060475d","supportsInterface(bytes4)":"01ffc9a7"},"id":384}