{"abi":[{"type":"function","name":"_msgSender","inputs":[],"outputs":[{"name":"sender","type":"address","internalType":"address"}],"stateMutability":"view"},{"type":"function","name":"_msgValue","inputs":[],"outputs":[{"name":"value","type":"uint256","internalType":"uint256"}],"stateMutability":"view"},{"type":"function","name":"_world","inputs":[],"outputs":[{"name":"","type":"address","internalType":"address"}],"stateMutability":"view"},{"type":"function","name":"allowance","inputs":[{"name":"owner","type":"address","internalType":"address"},{"name":"spender","type":"address","internalType":"address"}],"outputs":[{"name":"","type":"uint256","internalType":"uint256"}],"stateMutability":"view"},{"type":"function","name":"approve","inputs":[{"name":"spender","type":"address","internalType":"address"},{"name":"value","type":"uint256","internalType":"uint256"}],"outputs":[{"name":"","type":"bool","internalType":"bool"}],"stateMutability":"nonpayable"},{"type":"function","name":"balanceOf","inputs":[{"name":"account","type":"address","internalType":"address"}],"outputs":[{"name":"","type":"uint256","internalType":"uint256"}],"stateMutability":"view"},{"type":"function","name":"burn","inputs":[{"name":"account","type":"address","internalType":"address"},{"name":"value","type":"uint256","internalType":"uint256"}],"outputs":[],"stateMutability":"nonpayable"},{"type":"function","name":"decimals","inputs":[],"outputs":[{"name":"","type":"uint8","internalType":"uint8"}],"stateMutability":"view"},{"type":"function","name":"mint","inputs":[{"name":"account","type":"address","internalType":"address"},{"name":"value","type":"uint256","internalType":"uint256"}],"outputs":[],"stateMutability":"nonpayable"},{"type":"function","name":"name","inputs":[],"outputs":[{"name":"","type":"string","internalType":"string"}],"stateMutability":"view"},{"type":"function","name":"supportsInterface","inputs":[{"name":"interfaceId","type":"bytes4","internalType":"bytes4"}],"outputs":[{"name":"","type":"bool","internalType":"bool"}],"stateMutability":"pure"},{"type":"function","name":"symbol","inputs":[],"outputs":[{"name":"","type":"string","internalType":"string"}],"stateMutability":"view"},{"type":"function","name":"totalSupply","inputs":[],"outputs":[{"name":"","type":"uint256","internalType":"uint256"}],"stateMutability":"view"},{"type":"function","name":"transfer","inputs":[{"name":"to","type":"address","internalType":"address"},{"name":"value","type":"uint256","internalType":"uint256"}],"outputs":[{"name":"","type":"bool","internalType":"bool"}],"stateMutability":"nonpayable"},{"type":"function","name":"transferFrom","inputs":[{"name":"from","type":"address","internalType":"address"},{"name":"to","type":"address","internalType":"address"},{"name":"value","type":"uint256","internalType":"uint256"}],"outputs":[{"name":"","type":"bool","internalType":"bool"}],"stateMutability":"nonpayable"},{"type":"event","name":"Approval","inputs":[{"name":"owner","type":"address","indexed":true,"internalType":"address"},{"name":"spender","type":"address","indexed":true,"internalType":"address"},{"name":"value","type":"uint256","indexed":false,"internalType":"uint256"}],"anonymous":false},{"type":"event","name":"Store_SpliceStaticData","inputs":[{"name":"tableId","type":"bytes32","indexed":true,"internalType":"ResourceId"},{"name":"keyTuple","type":"bytes32[]","indexed":false,"internalType":"bytes32[]"},{"name":"start","type":"uint48","indexed":false,"internalType":"uint48"},{"name":"data","type":"bytes","indexed":false,"internalType":"bytes"}],"anonymous":false},{"type":"event","name":"Transfer","inputs":[{"name":"from","type":"address","indexed":true,"internalType":"address"},{"name":"to","type":"address","indexed":true,"internalType":"address"},{"name":"value","type":"uint256","indexed":false,"internalType":"uint256"}],"anonymous":false},{"type":"error","name":"ERC20InsufficientAllowance","inputs":[{"name":"spender","type":"address","internalType":"address"},{"name":"allowance","type":"uint256","internalType":"uint256"},{"name":"needed","type":"uint256","internalType":"uint256"}]},{"type":"error","name":"ERC20InsufficientBalance","inputs":[{"name":"sender","type":"address","internalType":"address"},{"name":"balance","type":"uint256","internalType":"uint256"},{"name":"needed","type":"uint256","internalType":"uint256"}]},{"type":"error","name":"ERC20InvalidApprover","inputs":[{"name":"approver","type":"address","internalType":"address"}]},{"type":"error","name":"ERC20InvalidReceiver","inputs":[{"name":"receiver","type":"address","internalType":"address"}]},{"type":"error","name":"ERC20InvalidSender","inputs":[{"name":"sender","type":"address","internalType":"address"}]},{"type":"error","name":"ERC20InvalidSpender","inputs":[{"name":"spender","type":"address","internalType":"address"}]},{"type":"error","name":"PuppetMaster_NoPuppet","inputs":[{"name":"systemAddress","type":"address","internalType":"address"},{"name":"systemId","type":"bytes32","internalType":"ResourceId"}]},{"type":"error","name":"Slice_OutOfBounds","inputs":[{"name":"data","type":"bytes","internalType":"bytes"},{"name":"start","type":"uint256","internalType":"uint256"},{"name":"end","type":"uint256","internalType":"uint256"}]},{"type":"error","name":"World_AccessDenied","inputs":[{"name":"resource","type":"string","internalType":"string"},{"name":"caller","type":"address","internalType":"address"}]}],"bytecode":{"object":"0x6080806040523461001657611b85908161001b8239f35b5f80fdfe60806040526004361015610011575f80fd5b5f3560e01c806301ffc9a71461010457806306fdde03146100ff578063095ea7b3146100fa578063119df25f146100f557806318160ddd146100f057806323b872dd146100eb578063313ce567146100e657806340c10f19146100e157806345ec9354146100dc57806370a08231146100d757806395d89b41146100d25780639dc29fac146100cd578063a9059cbb146100c8578063dd62ed3e146100c35763e1af802c146100be575f80fd5b6107b0565b610774565b610747565b610619565b6105e0565b61059f565b610580565b61040b565b6103c8565b610310565b6102b9565b61028d565b610255565b6101ae565b3461015a57602036600319011261015a5760043563ffffffff60e01b811680910361015a5760209063b5dee12760e01b8114908115610149575b506040519015158152f35b6301ffc9a760e01b1490505f61013e565b5f80fd5b5f91031261015a57565b5f5b8381106101795750505f910152565b818101518382015260200161016a565b906020916101a281518092818552858086019101610168565b601f01601f1916010190565b3461015a575f36600319011261015a576102256102116102036001600160901b03196101d930610d69565b60101b1660101c600160801b600160f01b0316674d6574616461746160401b613a3160f11b011790565b61020b610834565b90610e52565b604051918291602083526020830190610189565b0390f35b600435906001600160a01b038216820361015a57565b602435906001600160a01b038216820361015a57565b3461015a57604036600319011261015a57610282610271610229565b6024359061027d610a6c565b61097f565b602060405160018152f35b3461015a575f36600319011261015a5760206102a7610a6c565b6040516001600160a01b039091168152f35b3461015a575f36600319011261015a5760206103086a546f74616c537570706c7960281b613a3160f11b01600160801b600160f01b036102f830610d69565b1617610302610834565b90611064565b604051908152f35b3461015a57606036600319011261015a57610329610229565b61033161023f565b6044359061033d610a6c565b9261036684826103616001600160901b031961035830610d69565b60101b16610d07565b610d2f565b9360018501610387575b5061037b9350610aa1565b60405160018152602090f35b8385106103a55761039f908461037b9603908361097f565b5f610370565b84906103c485604051938493637dc7a0d960e11b855260048501610a83565b0390fd5b3461015a575f36600319011261015a5760206104006103f26001600160901b03196101d930610d69565b6103fa610834565b9061110d565b60f81c604051908152f35b3461015a57604036600319011261015a57610424610229565b60243590610430610b5e565b6001600160a01b038116908115610568576104d490600160801b600160f01b0361046c61045c30610d69565b60101b6001600160901b03191690565b60101c166742616c616e63657360401b613a3160f11b01811791906104c2906a546f74616c537570706c7960281b613a3160f11b01176104bc876104b76104b1610834565b84611064565b610c95565b90611347565b846104cd8284610cde565b019161130d565b6105066105146104f16104e5610f9e565b6001600160a01b031690565b93604051928391602083019190602083019252565b03601f198101835282610811565b823b1561015a5761053e925f928360405180968195829463c9a34acd60e01b8452600484016108e5565b03925af180156105635761054e57005b8061055b610561926107de565b8061015e565b005b610974565b60405163ec442f0560e01b81525f6004820152602490fd5b3461015a575f36600319011261015a576020604051601f193601358152f35b3461015a57602036600319011261015a5760206103086105bd610229565b6105db6001600160901b03196105d230610d69565b60101b16610d91565b610cde565b3461015a575f36600319011261015a5761022561021161060b6001600160901b03196101d930610d69565b610613610834565b90610edc565b3461015a57604036600319011261015a57610632610229565b6024359061063e610b5e565b6001600160a01b03811690811561072f57600160801b600160f01b0361066661045c30610d69565b60101c166a546f74616c537570706c7960281b613a3160f11b018117916742616c616e63657360401b613a3160f11b01909117906106a48183610cde565b85811061071157916106bd91866106d69594039161130d565b836106cf6106c9610834565b83611064565b0390611347565b6105066106e76104f16104e5610f9e565b823b1561015a5761053e925f928360405180968195829463c9a34acd60e01b845260048401610915565b906103c48660405193849363391434e360e21b855260048501610a83565b604051634b637e8f60e11b81525f6004820152602490fd5b3461015a57604036600319011261015a57610282610763610229565b6024359061076f610a6c565b610aa1565b3461015a57604036600319011261015a576020610308610792610229565b61079a61023f565b906103616001600160901b031961035830610d69565b3461015a575f36600319011261015a5760206102a761136b565b634e487b7160e01b5f52604160045260245ffd5b6001600160401b0381116107f157604052565b6107ca565b604081019081106001600160401b038211176107f157604052565b601f909101601f19168101906001600160401b038211908210176107f157604052565b604051602081016001600160401b038111828210176107f1576040525f8152905f368137565b60405190610867826107f6565b6001825260203681840137565b60405190606082016001600160401b038111838210176107f15760405260028252604082602036910137565b6108e293926080927f8c5be1e5ebec7d5bd14f71427d1e84f3dd0314c0f7b2291e5b200ac8c7c3b9258352602083015260408201528160608201520190610189565b90565b6080906108e293925f80516020611b4583398151915282525f602083015260408201528160608201520190610189565b6080906108e293925f80516020611b45833981519152825260208201525f60408201528160608201520190610189565b6108e293926080925f80516020611b458339815191528352602083015260408201528160608201520190610189565b6040513d5f823e3d90fd5b90916001600160a01b038083169291908315610a54578416938415610a3c57816109c0916109e3946109bb6109b661045c30610d69565b610d07565b610f4b565b6109f16109ce6104e5610f9e565b91604051938491602083019190602083019252565b03601f198101845283610811565b803b1561015a57610a1c935f80946040519687958694859363c9a34acd60e01b8552600485016108a0565b03925af1801561056357610a2d5750565b8061055b610a3a926107de565b565b604051634a1406b160e11b81525f6004820152602490fd5b60405163e602df0560e01b81525f6004820152602490fd5b36603319013560601c908115610a7e57565b339150565b604091949392606082019560018060a01b0316825260208201520152565b90916001600160a01b038083169290831561072f57841693841561056857610ad3610ace61045c30610d69565b610d91565b91610ade8184610cde565b848110610b405791610afc8594926109e396610b079503908461130d565b836104cd8284610cde565b610b156109ce6104e5610f9e565b803b1561015a57610a1c935f80946040519687958694859363c9a34acd60e01b855260048501610945565b906103c48560405193849363391434e360e21b855260048501610a83565b610b6730610d69565b610b6f610a6c565b90610b7861085a565b805115610c9057600160801b600160f01b038216616e7360f01b176020820152610ba190611189565b60601c6001600160a01b03831603610bb7575050565b608081901b6001600160801b03191690610c5790602490601081901b6001600160901b03191680610c815750610beb61160a565b935b80610c735750610bfb61160a565b60405194859261ffff60f01b166020840152601d60f91b90816022850152610c2d815180926020602388019101610168565b8301906023820152610c488251809360208785019101610168565b01036004810184520182610811565b6103c460405192839263d787b73760e01b8452600484016112e5565b610c7c9061173f565b610bfb565b610c8a9061173f565b93610bed565b610cb6565b91908201809211610ca257565b634e487b7160e01b5f52601160045260245ffd5b634e487b7160e01b5f52603260045260245ffd5b8051821015610c905760209160051b010190565b610ce661085a565b90815115610c90576001600160a01b0390921660208201526108e291611064565b60101c600160801b600160f01b031669416c6c6f77616e63657360301b613a3160f11b011790565b610d37610874565b805190926001600160a01b039115610c905781166020840152825160011015610c90576108e293166040830152611064565b610d7161085a565b805115610c90576001600160a01b0390911660208201526108e290611221565b60101c600160801b600160f01b03166742616c616e63657360401b613a3160f11b011790565b60208183031261015a5780516001600160401b039182821161015a57019082601f8301121561015a5781519081116107f15760405192610e01601f8301601f191660200185610811565b8184526020828401011161015a576108e29160208085019101610168565b9081518082526020808093019301915f5b828110610e3e575050505090565b835185529381019392810192600101610e30565b906001600160a01b03610e6361136b565b16308103610e7557506108e2916113a0565b905f91610ea593604051809581948293631e78897760e01b84526004840152606060248401526064830190610e1f565b85604483015203915afa908115610563575f91610ec0575090565b6108e291503d805f833e610ed48183610811565b810190610db7565b906001600160a01b03610eed61136b565b16308103610eff57506108e291611425565b905f91610f2f93604051809581948293631e78897760e01b84526004840152606060248401526064830190610e1f565b6001604483015203915afa908115610563575f91610ec0575090565b929192610f56610874565b805190926001600160a01b039115610c905781166020840152825160011015610c9057610a3a9416604083015260405192602084015260208352610f99836107f6565b611487565b610fa730610d69565b604051613a3160f11b6020808301918252651c1d5c1c195d60d21b60228401526d507570706574526567697374727960901b6030840152825290610fea816107f6565b5190519060208110611044575b5061100061085a565b805115610c905761101691836020830152611291565b60601c908115611024575090565b604051639434f7e160e01b81523060048201526024810191909152604490fd5b5f199060200360031b1b165f610ff7565b9081602091031261015a575190565b906001600160a01b0361107561136b565b1630810361108b575061108791611711565b5490565b906020916110bc93604051809581948293638c364d5960e01b84526004840152608060248401526084830190610e1f565b5f6044830152630100080160dd1b606483015203915afa908115610563575f916110e4575090565b6108e2915060203d602011611106575b6110fe8183610811565b810190611055565b503d6110f4565b906001600160a01b0361111e61136b565b16308103611130575061108791611711565b9060209161116193604051809581948293638c364d5960e01b84526004840152608060248401526084830190610e1f565b5f6044830152630101020160d81b606483015203915afa908115610563575f916110e4575090565b6001600160a01b0361119961136b565b163081036111ab57506108e29061151c565b604051638c364d5960e01b81526f4e616d6573706163654f776e65720000661d189ddbdc9b1960ca1b01600482015260806024820152916020918391829081906111f9906084830190610e1f565b5f6044830152630500400560da1b606483015203915afa908115610563575f916110e4575090565b6001600160a01b0361123161136b565b1630810361124357506108e29061159e565b604051638c364d5960e01b81526f53797374656d52656769737472790000661d189ddbdc9b1960ca1b01600482015260806024820152916020918391829081906110bc906084830190610e1f565b906001600160a01b036112a261136b565b163081036112b4575061108791611711565b906020916111f993604051809581948293638c364d5960e01b84526004840152608060248401526084830190610e1f565b906112fd602091949394604084526040840190610189565b6001600160a01b03909416910152565b91909161131861085a565b90815115610c9057610a3a9360018060a01b0316602083015260405192602084015260208352610f99836107f6565b90610a3a91611354610834565b9060405192602084015260208352610f99836107f6565b7f629a4c26e296b22a8e0856e9f6ecb2d1008d7e00081111962cd175fa7488e175546001600160a01b0316806108e257503390565b9064ffffffffff6108e2926113fc6114086040515f80516020611b2583398151915260208201826113d2898884611677565b03926113e6601f1994858101835282610811565b5190201895604051938491602083019687611677565b03908101835282610811565b5190205f80516020611b65833981519152185460381c16906116a9565b9064ffffffffff6108e2926113fc61146a6040517f3a4102da22e32d82fc925482184f16c09fd4281692720b87d124aef6da48a0f160208201826113d2898884611677565b5190205f80516020611b65833981519152185460601c16906116a9565b6001600160a01b0361149761136b565b163081036114ab575090610a3a92916117f9565b803b1561015a575f92836114e6936114fe604051978896879586946301c85d5760e51b8652600486015260a0602486015260a4850190610e1f565b90846044850152600319848303016064850152610189565b630100080160dd1b608483015203925af1801561056357610a2d5750565b60405160208160208101936f4e616d6573706163654f776e65720000661d189ddbdc9b1960ca1b0185526040820160208251919201935f5b82811061158757505050611571925003601f198101835282610811565b5190205f80516020611b05833981519152185490565b855184529481019486945092810192600101611554565b60405160208160208101936f53797374656d52656769737472790000661d189ddbdc9b1960ca1b0185526040820160208251919201935f5b8281106115f357505050611571925003601f198101835282610811565b8551845294810194869450928101926001016115d6565b60405190611617826107f6565b60068252651e3937b7ba1f60d11b6020830152565b6953746f7265486f6f6b7360301b66746273746f726560c81b01815281516020918201928201915f5b828110611663575050505090565b835185529381019392810192600101611655565b90815281516020918201928201915f5b828110611695575050505090565b835185529381019392810192600101611687565b60408051601f19603f85830101811690925283815292602080850193925b818310156116f9575050806116dd575b50505090565b5f199060031b1c908183511691199054161790525f80806116d7565b816001858394959796548752019401940191906116c7565b9061172a61050691604051928391602083019586611677565b5190205f80516020611b058339815191521890565b5f5b60108110611770575b6040516001600160801b031990921660208301526010825261176b826107f6565b815290565b6001600160801b03198216600382901b1b6001600160f81b0319161561179857600101611741565b61174a565b90916117b46108e293606084526060840190610e1f565b915f60208201526040818403910152610189565b916117e5906108e294928452608060208501526080840190610e1f565b915f60408201526060818403910152610189565b919291906001600160f01b03198216611bdd60f21b146119955761181d8183611711565b611826836119bb565b905f5b82518110156118ce5761185d6118506118428386610cca565b516001600160581b03191690565b6001600160581b03191690565b9060049182808260581c1614611879575b506001915001611829565b60601c803b1561015a57855f9188838c966118a86040519889968795869463964f667d60e01b865285016117c8565b03925af1918215610563576001921561186e578061055b6118c8926107de565b5f61186e565b509491906118ff83604097865f80516020611ae5833981519152604051806118f7868a8361179d565b0390a2611a45565b5f5b815181101561198c5761191a6118506118428385610cca565b6008808260581c1614611931575b50600101611901565b60601c90813b1561015a57875163a8ba872160e01b8152915f90839081838161195f8b8b8e600485016117c8565b03925af191821561056357600192611979575b5090611928565b8061055b611986926107de565b5f611972565b50505050509050565b925f80516020611ae58339815191529192936119b66040519283928361179d565b0390a2565b6119c361085a565b90815115610c905781611a2e9160206108e294015264ffffffffff604051915f80516020611b2583398151915260208401846119ff848361162c565b0394611a13601f1996878101835282610811565b519020189261140860405191826113fc60208201958661162c565b602060018060801b03825116910160801b17611a92565b81519060208093019190925b80821015611a7a575080611a6457505050565b5f199060031b1c90818354169119905116179055565b6001839482939451815501930191601f190190611a51565b8060801c906015809160018060801b031604604051926020906020850160208460051b8701016040528386525f5b848110611ad05750505050505090565b825182529185019190830190600101611ac056fe8c0b5119d4cec7b284c6b1b39252a03d1e2f2d7451a5895562524c113bb952be86425bff6b57326c7859e89024fe4f238ca327a1ae4a230180dd2f0e88aaa7d93b4102da22e32d82fc925482184f16c09fd4281692720b87d124aef6da48a0f1ddf252ad1be2c89b69c2b068fc378daa952ba7f163c4a11628f55a4df523b3ef14e2fcc58e58e68ec7edc30c8d50dccc3ce2714a623ec81f46b6a63922d76569","linkReferences":{}},"methodIdentifiers":{"_msgSender()":"119df25f","_msgValue()":"45ec9354","_world()":"e1af802c","allowance(address,address)":"dd62ed3e","approve(address,uint256)":"095ea7b3","balanceOf(address)":"70a08231","burn(address,uint256)":"9dc29fac","decimals()":"313ce567","mint(address,uint256)":"40c10f19","name()":"06fdde03","supportsInterface(bytes4)":"01ffc9a7","symbol()":"95d89b41","totalSupply()":"18160ddd","transfer(address,uint256)":"a9059cbb","transferFrom(address,address,uint256)":"23b872dd"},"id":63}