{"abi":[{"type":"function","name":"_msgSender","inputs":[],"outputs":[{"name":"sender","type":"address","internalType":"address"}],"stateMutability":"view"},{"type":"function","name":"_msgValue","inputs":[],"outputs":[{"name":"value","type":"uint256","internalType":"uint256"}],"stateMutability":"view"},{"type":"function","name":"_world","inputs":[],"outputs":[{"name":"","type":"address","internalType":"address"}],"stateMutability":"view"},{"type":"function","name":"removeEntitiesFromBoard","inputs":[{"name":"entityIds","type":"bytes32[]","internalType":"bytes32[]"}],"outputs":[],"stateMutability":"nonpayable"},{"type":"function","name":"removeEntityFromBoard","inputs":[{"name":"entityId","type":"bytes32","internalType":"bytes32"}],"outputs":[],"stateMutability":"nonpayable"},{"type":"function","name":"supportsInterface","inputs":[{"name":"interfaceId","type":"bytes4","internalType":"bytes4"}],"outputs":[{"name":"","type":"bool","internalType":"bool"}],"stateMutability":"pure"},{"type":"event","name":"Store_SetRecord","inputs":[{"name":"tableId","type":"bytes32","indexed":true,"internalType":"ResourceId"},{"name":"keyTuple","type":"bytes32[]","indexed":false,"internalType":"bytes32[]"},{"name":"staticData","type":"bytes","indexed":false,"internalType":"bytes"},{"name":"encodedLengths","type":"bytes32","indexed":false,"internalType":"EncodedLengths"},{"name":"dynamicData","type":"bytes","indexed":false,"internalType":"bytes"}],"anonymous":false},{"type":"event","name":"Store_SpliceDynamicData","inputs":[{"name":"tableId","type":"bytes32","indexed":true,"internalType":"ResourceId"},{"name":"keyTuple","type":"bytes32[]","indexed":false,"internalType":"bytes32[]"},{"name":"dynamicFieldIndex","type":"uint8","indexed":false,"internalType":"uint8"},{"name":"start","type":"uint48","indexed":false,"internalType":"uint48"},{"name":"deleteCount","type":"uint40","indexed":false,"internalType":"uint40"},{"name":"encodedLengths","type":"bytes32","indexed":false,"internalType":"EncodedLengths"},{"name":"data","type":"bytes","indexed":false,"internalType":"bytes"}],"anonymous":false},{"type":"event","name":"Store_SpliceStaticData","inputs":[{"name":"tableId","type":"bytes32","indexed":true,"internalType":"ResourceId"},{"name":"keyTuple","type":"bytes32[]","indexed":false,"internalType":"bytes32[]"},{"name":"start","type":"uint48","indexed":false,"internalType":"uint48"},{"name":"data","type":"bytes","indexed":false,"internalType":"bytes"}],"anonymous":false},{"type":"error","name":"EncodedLengths_InvalidLength","inputs":[{"name":"length","type":"uint256","internalType":"uint256"}]},{"type":"error","name":"GamePaused","inputs":[]},{"type":"error","name":"SessionNotTimedOut","inputs":[]},{"type":"error","name":"Slice_OutOfBounds","inputs":[{"name":"data","type":"bytes","internalType":"bytes"},{"name":"start","type":"uint256","internalType":"uint256"},{"name":"end","type":"uint256","internalType":"uint256"}]},{"type":"error","name":"Store_IndexOutOfBounds","inputs":[{"name":"length","type":"uint256","internalType":"uint256"},{"name":"accessedIndex","type":"uint256","internalType":"uint256"}]},{"type":"error","name":"Store_InvalidResourceType","inputs":[{"name":"expected","type":"bytes2","internalType":"bytes2"},{"name":"resourceId","type":"bytes32","internalType":"ResourceId"},{"name":"resourceIdString","type":"string","internalType":"string"}]},{"type":"error","name":"Store_InvalidSplice","inputs":[{"name":"startWithinField","type":"uint40","internalType":"uint40"},{"name":"deleteCount","type":"uint40","internalType":"uint40"},{"name":"fieldLength","type":"uint40","internalType":"uint40"}]},{"type":"error","name":"UseFleeFunction","inputs":[]}],"bytecode":{"object":"0x608080604052346100165761450f908161001b8239f35b5f80fdfe60806040526004361015610011575f80fd5b5f3560e01c806301ffc9a714610074578063119df25f1461006f57806345ec93541461006a5780638181bc5714610065578063e03beb83146100605763e1af802c1461005b575f80fd5b6101ae565b61013f565b610121565b610102565b6100d6565b346100c85760203660031901126100c85760043563ffffffff60e01b81168091036100c85763b5dee12760e01b81149081156100b7575b50151560805260206080f35b6301ffc9a760e01b149050816100ab565b5f80fd5b5f9103126100c857565b346100c8575f3660031901126100c85760206100f0610870565b6040516001600160a01b039091168152f35b346100c8575f3660031901126100c8576020604051601f193601358152f35b346100c85760203660031901126100c85761013d6004356103fb565b005b346100c85760203660031901126100c8576004356001600160401b038082116100c857366023830112156100c85781600401359081116100c857600560243683831b85018201116100c8575f5b83811061019557005b806101a883600193861b880101356103fb565b0161018c565b346100c8575f3660031901126100c85760206100f06119ad565b634e487b7160e01b5f52604160045260245ffd5b6001600160401b0381116101ef57604052565b6101c8565b602081019081106001600160401b038211176101ef57604052565b604081019081106001600160401b038211176101ef57604052565b606081019081106001600160401b038211176101ef57604052565b601f909101601f19168101906001600160401b038211908210176101ef57604052565b908160209103126100c8575180151581036100c85790565b6040513d5f823e3d90fd5b60208151910151906020811061029f575090565b5f199060200360031b1b1690565b634e487b7160e01b5f52601160045260245ffd5b5f198101919082116102cf57565b6102ad565b601f198101919082116102cf57565b919082039182116102cf57565b919082018092116102cf57565b519061ffff821682036100c857565b91908260409103126100c85761032d6020610326846102fd565b93016102fd565b90565b6001600160401b0381116101ef5760051b60200190565b60209081818403126100c8578051906001600160401b0382116100c857019180601f840112156100c857825161037c81610330565b9361038a6040519586610245565b818552838086019260051b8201019283116100c8578301905b8282106103b1575050505090565b815181529083019083016103a3565b634e487b7160e01b5f52603260045260245ffd5b80518210156103e85760209160051b010190565b6103c0565b5f1981146102cf5760010190565b610403610887565b61041361040f826108fd565b1590565b61086d5761042081610920565b9061043b61042f61042f6119ad565b6001600160a01b031690565b60408051633e86fb3160e21b8152600480820185905294602093909291908490829060249082905afa9081156106ff575f91610850575b501561084b5761048061093d565b61048e61042f61042f6119ad565b6104cb8561049a610870565b855163087bdec760e31b8152808b018a81526001600160a01b03831660208201529194909384928391829160400190565b03915afa9081156106ff575f9161081e575b5015610772575082151580610761575b610751578061073a575b505b61050761042f61042f6119ad565b8180518092638b4ce3e560e01b825281806105298a8c83019190602083019252565b03915afa9182156106ff57610583965f925f94610704575b505f9183859261055561042f61042f6119ad565b925163d0f8a4f560e01b815261ffff9283169181019182529190931660208401529889928391829160400190565b03915afa9586156106ff575f966106db575b505f5b86518110156106cf57856105ac82896103d4565b51146105c0576105bb906103ed565b610598565b6105e7906105de886105d86105ec9798999a516102c1565b906103d4565b51908484610acb565b610bc5565b6105f583610c77565b6105fe83610d4e565b8061060857505050565b6106158194929394610e68565b92830151156106b757610120830193925f5b855180518210156106625790610648610642826001946103d4565b51611030565b61065c6106568289516103d4565b516110eb565b01610627565b505061010001935091905f5b8451805182101561069d5790610689610642826001946103d4565b6106976106568288516103d4565b0161066e565b50509250906106ae6106b592611160565b4290611218565b565b6106b592506106ca909391934290610f4e565b611030565b505050909192506105ec565b6106f89196503d805f833e6106f08183610245565b810190610347565b945f610595565b610280565b825f9395506107299294503d8611610733575b6107218183610245565b81019061030c565b9390929091610541565b503d610717565b61074661074b916102c1565b610994565b5f6104f7565b8151635a1887dd60e11b81528690fd5b5061076b83610aae565b15156104ed565b6107956107a36107846107a89361096c565b855188810191825292839160200190565b03601f198101835282610245565b61028b565b610813576107bc6107b76108b2565b6115dd565b801561080a575b6107d5906107d087610a91565b6102f0565b4211156107fa57806107e8575b506104f9565b6107466107f4916102c1565b5f6107e2565b81516399bc5f7d60e01b81528690fd5b506102586107c3565b806107e857506104f9565b61083e9150863d8811610844575b6108368183610245565b810190610268565b5f6104dd565b503d61082c565b6104f9565b6108679150843d8611610844576108368183610245565b5f610472565b50565b36603319013560601c90811561088257565b339150565b6108976108926108b2565b611334565b60f81c6108a057565b60405163379a7ed960e01b8152600490fd5b6040516108be816101f4565b5f8152905f368137565b604051906108d58261020f565b6001825260203681840137565b604051906108ef8261022a565b600282526040366020840137565b6109056108c8565b8051156103e85761091a9160208201526113eb565b60f81c90565b6109286108c8565b8051156103e85761032d916020820152611452565b6109456108e2565b8051156103e857600160208201528051600110156103e857805f604061032d9301526114dd565b6109746108c8565b8051156103e8576001600160a01b03909116602082015261032d9061156d565b61099c6108e2565b908151156103e857600160208301528151600110156103e8575f6040830152604051906020820152602081526109d18161020f565b6001600160a01b036109e16119ad565b16913083036109f4576106b592506123e4565b90823b156100c8576040516301c85d5760e51b815267436f756e7465727360401b631d18955160e21b01600482015260a06024820152925f928492839185918391610a609190610a489060a4850190611301565b908460448501526003198483030160648501526117a5565b630100080160dd1b608483015203925af180156106ff57610a7e5750565b80610a8b6106b5926101dc565b806100cc565b610a996108c8565b8051156103e85761032d91602082015261164a565b610ab66108c8565b8051156103e85761032d9160208201526116b6565b92919092610ad76108e2565b9361ffff918551156103e857821660208601528451600110156103e85716604084015260405191602083015260208252610b108261020f565b815164ffffffffff9081169160051b166001600160a01b03610b306119ad565b16308103610b4257506106b593612552565b909293813b156100c85760405163605144ad60e11b81525f805160206144cf833981519152600482015260c06024820152945f948694859387938593610bb4939092610b929060c4870190611301565b92866044870152606486015260848501526003198483030160a48501526117a5565b03925af180156106ff57610a7e5750565b610bcd6108e2565b9161ffff918351156103e857821660208401528251600110156103e8571660408201526001600160a01b03610c006119ad565b16308103610c1257506106b5906127c7565b803b156100c8576040516336700e8160e21b81525f805160206144cf833981519152600482015260806024820152915f918391829084908290610c59906084830190611301565b8260448301526020606483015203925af180156106ff57610a7e5750565b604051905f60208301525f602283015260048252610c948261020f565b610c9c6108c8565b908151156103e85760208201526001600160a01b03610cb96119ad565b16308103610ccc5750906106b591612a4e565b90813b156100c85760405163298314fb60e01b8152672837b9b4ba34b7b760411b631d18955160e21b01600482015260a06024820152925f9284929091839185918391610bb49190610d3990610d269060a4860190611301565b60031992838683030160448701526117a5565b90846064850152838203016084840152611768565b610d566108c8565b908151156103e85760208201526040515f602082015260018152610d798161020f565b6001600160a01b03610d896119ad565b1691308303610d9c576106b59250611d1e565b90823b156100c8576040516301c85d5760e51b81526614dc185ddb9959604a1b631d18955160e21b01600482015260a06024820152925f928492839185918391610def9190610a489060a4850190611301565b630101000160d81b608483015203925af180156106ff57610a7e5750565b6040519061014082016001600160401b038111838210176101ef576040526060610120835f81525f60208201525f60408201525f838201525f60808201525f60a08201525f60c08201525f60e0820152826101008201520152565b610e70610e0d565b50610e796108c8565b8051156103e857610e8e91602082015261186f565b610e99929192610e0d565b92602083015160f81c926003841015610f3a57610f2b93816021610f2693015190610f16604182015191610ed1606182015160f81c90565b90606281015190608281015190610efe8d60e0610ef760c260a286015195015160f81c90565b1515910152565b60c08d015260a08c015260808b0152151560608a0152565b6040880152602087015285611930565b612d21565b61012083015261010082015290565b634e487b7160e01b5f52602160045260245ffd5b90610f576108c8565b918251156103e857602083015260405190602082015260208152610f7a8161020f565b6001600160a01b03610f8a6119ad565b1691308303610f9d576106b59250611eb6565b90823b156100c8576040516301c85d5760e51b81526f576f726c64456e636f756e7465720000631d18955160e21b01600482015260a06024820152925f92849283918591839161100f9190610ff69060a4850190611301565b60036044850152838103600319016064850152906117a5565b660400200101010160c51b608483015203925af180156106ff57610a7e5750565b6110386108c8565b908151156103e85760208201526040515f60208201526020815261105b8161020f565b6001600160a01b0361106b6119ad565b169130830361107e576106b59250613568565b90823b156100c8576040516301c85d5760e51b81525f8051602061446f833981519152600482015260a06024820152925f9284928391859183916110cb9190610a489060a4850190611301565b6502081809000960cd1b608483015203925af180156106ff57610a7e5750565b906110f46108c8565b8051156103e8576020926020820152606051908160051b828104602014831517156102cf5760408051808301603f01601f1916909152908152916020830160805f5b83811061114c57505050506106b592935061193c565b815183529187019190870190600101611136565b6111686108c8565b908151156103e8576020820152604051600160f81b60208201526001815261118f8161020f565b6001600160a01b0361119f6119ad565b16913083036111b2576106b5925061207d565b90823b156100c8576040516301c85d5760e51b81525f8051602061446f833981519152600482015260a06024820152925f9284928391859183916110cb91906111ff9060a4850190611301565b60016044850152838103600319016064850152906117a5565b906112216108c8565b918251156103e8576020830152604051906020820152602081526112448161020f565b6001600160a01b036112546119ad565b1691308303611267576106b5925061222e565b90823b156100c8576040516301c85d5760e51b81525f805160206144ef833981519152600482015260a06024820152925f9284928391859183916112cd91906112b49060a4850190611301565b60026044850152838103600319016064850152906117a5565b6aa30802012020012020200160a01b608483015203925af180156106ff57610a7e5750565b908160209103126100c8575190565b9081518082526020808093019301915f5b828110611320575050505090565b835185529381019392810192600101611312565b6001600160a01b036113446119ad565b16308103611356575061032d906119e2565b604051638c364d5960e01b81526514185d5cd95960521b631d18955160e21b016004820152608060248201529160209183918290819061139a906084830190611301565b5f6044830152630101000160d81b606483015203915afa9081156106ff575f916113c2575090565b61032d915060203d6020116113e4575b6113dc8183610245565b8101906112f2565b503d6113d2565b6001600160a01b036113fb6119ad565b1630810361140d575061032d90611a5a565b604051638c364d5960e01b81526614dc185ddb9959604a1b631d18955160e21b016004820152608060248201529160209183918290819061139a906084830190611301565b6001600160a01b036114626119ad565b16308103611474575061032d90611abd565b604051638c364d5960e01b81525f8051602061446f833981519152600482015260806024820152916020918391829081906114b3906084830190611301565b5f60448301526502081809000960cd1b606483015203915afa9081156106ff575f916113c2575090565b6001600160a01b036114ed6119ad565b163081036114ff575061032d90611ad2565b604051638c364d5960e01b815267436f756e7465727360401b631d18955160e21b0160048201526080602482015291602091839182908190611545906084830190611301565b5f6044830152630100080160dd1b606483015203915afa9081156106ff575f916113c2575090565b6001600160a01b0361157d6119ad565b1630810361158f575061032d90611b36565b604051638c364d5960e01b81526f53797374656d52656769737472790000661d189ddbdc9b1960ca1b0160048201526080602482015291602091839182908190611545906084830190611301565b6001600160a01b036115ed6119ad565b163081036115ff575061032d90611ba2565b604051638c364d5960e01b81526f53657373696f6e436f6e666967000000631d18955160e21b0160048201526080602482015291602091839182908190611545906084830190611301565b6001600160a01b0361165a6119ad565b1630810361166c575061032d90611c0b565b604051638c364d5960e01b81526b29b2b9b9b4b7b72a34b6b2b960211b631d18955160e21b0160048201526080602482015291602091839182908190611545906084830190611301565b6001600160a01b036116c66119ad565b163081036116d8575061032d90611c73565b604051638c364d5960e01b81525f805160206144ef83398151915260048201526080602482015291602091839182908190611717906084830190611301565b600160448301526aa30802012020012020200160a01b606483015203915afa9081156106ff575f916113c2575090565b5f5b8381106117585750505f910152565b8181015183820152602001611749565b90606051918281525f5b8381106117915750825f602080949584010152601f8019910116010190565b806020916080015182828501015201611772565b906020916117be81518092818552858086019101611747565b601f01601f1916010190565b6001600160401b0381116101ef57601f01601f191660200190565b81601f820112156100c85780516117fb816117ca565b926118096040519485610245565b818452602082840101116100c85761032d9160208085019101611747565b90916060828403126100c85781516001600160401b0392908381116100c857846118529183016117e5565b9360208201519360408301519081116100c85761032d92016117e5565b6001600160a01b0361187f6119ad565b16308103611898575061189190612c6d565b9192909190565b60405163419b58fd60e01b81525f805160206144ef83398151915260048201526060602482015292915f918491829081906118d7906064830190611301565b6aa30802012020012020200160a01b604483015203915afa9081156106ff575f80935f93611906575b50929190565b9193505061192691503d805f833e61191e8183610245565b810190611827565b929092915f611900565b6003821015610f3a5752565b906001600160a01b0361194d6119ad565b1691308303611960576106b59250612dc8565b90823b156100c8576040516377b7543160e11b81525f8051602061446f833981519152600482015260806024820152925f928492839185918391610bb49190610a48906084850190611301565b7f629a4c26e296b22a8e0856e9f6ecb2d1008d7e00081111962cd175fa7488e175546001600160a01b03168061032d57503390565b60405160208160208101936514185d5cd95960521b631d18955160e21b0185526040820160208251919201935f5b828110611a4357505050611a2d925003601f198101835282610245565b5190205f8051602061444f833981519152185490565b855184529481019486945092810192600101611a10565b60405160208160208101936614dc185ddb9959604a1b631d18955160e21b0185526040820160208251919201935f5b828110611aa657505050611a2d925003601f198101835282610245565b855184529481019486945092810192600101611a89565b604051611a2d81610795602082019485613073565b604051602081602081019367436f756e7465727360401b631d18955160e21b0185526040820160208251919201935f5b828110611b1f57505050611a2d925003601f198101835282610245565b855184529481019486945092810192600101611b02565b60405160208160208101936f53797374656d52656769737472790000661d189ddbdc9b1960ca1b0185526040820160208251919201935f5b828110611b8b57505050611a2d925003601f198101835282610245565b855184529481019486945092810192600101611b6e565b60405160208160208101936f53657373696f6e436f6e666967000000631d18955160e21b0185526040820160208251919201935f5b828110611bf457505050611a2d925003601f198101835282610245565b855184529481019486945092810192600101611bd7565b60405160208160208101936b29b2b9b9b4b7b72a34b6b2b960211b631d18955160e21b0185526040820160208251919201935f5b828110611c5c57505050611a2d925003601f198101835282610245565b855184529481019486945092810192600101611c3f565b604051611c88816107956020820194856130b2565b5190205f8051602061444f833981519152185f905f5b60018110611cf1575081816020821015611cdb575b505080548260031b1b916020039081602011611cce57505090565b600101549060031b1c1790565b90809350601f925060051c019116905f80611cb3565b9160ff6aa30802012020012020200160a01b84601b0360031b1c1681018091116102cf5791600101611c9e565b9190611d29836131a0565b91611d32613d80565b905f5b8251811015611dd957611d69611d5c611d4e83866103d4565b516001600160581b03191690565b6001600160581b03191690565b9060049182808260581c1614611d85575b506001915001611d35565b60601c803b156100c857855f918983611db3966040519788958694859363964f667d60e01b855284016133fe565b03925af19182156106ff5760019215611d7a5780610a8b611dd3926101dc565b5f611d7a565b5060408051919490939291611e229184916614dc185ddb9959604a1b631d18955160e21b01905f8051602061442f8339815191529080611e1a868d836133a2565b0390a26140c7565b5f5b8151811015611eae57611e3d611d5c611d4e83856103d4565b6008808260581c1614611e54575b50600101611e24565b60601c90813b156100c857845163a8ba872160e01b8152915f908390818381611e818a8e600484016133fe565b03925af19182156106ff57600192611e9b575b5090611e4b565b80610a8b611ea8926101dc565b5f611e94565b505050509050565b5f9291835b600380861015611ef057660400200101010160c51b601b87900390911b1c60ff1681019081106102cf57600190940193611ebb565b5065ffffffffffff91945016611f0582613203565b611f0d613e24565b905f5b8251811015611f9a57611f29611d5c611d4e83866103d4565b9060049182808260581c1614611f45575b506001915001611f10565b60601c803b156100c857855f9188838c96611f746040519889968795869463964f667d60e01b86528501613443565b03925af19182156106ff5760019215611f3a5780610a8b611f94926101dc565b5f611f3a565b50949190611fe78383604098875f8051602061442f83398151915260405180611fdf87876f576f726c64456e636f756e7465720000631d18955160e21b0196846133cd565b0390a2614123565b5f5b815181101561207457612002611d5c611d4e83856103d4565b6008808260581c1614612019575b50600101611fe9565b60601c90813b156100c857875163a8ba872160e01b8152915f9083908183816120478b8b8e60048501613443565b03925af19182156106ff57600192612061575b5090612010565b80610a8b61206e926101dc565b5f61205a565b50505050509050565b9190915f805b600182106122055765ffffffffffff91501661209e82613339565b6120a661401d565b905f5b8251811015612133576120c2611d5c611d4e83866103d4565b9060049182808260581c16146120de575b5060019150016120a9565b60601c803b156100c857855f9188838c9661210d6040519889968795869463964f667d60e01b8652850161352c565b03925af19182156106ff57600192156120d35780610a8b61212d926101dc565b5f6120d3565b509491906121788383604098875f8051602061442f83398151915260405180611fdf87876f456e636f756e746572456e7469747900631d18955160e21b0196846133cd565b5f5b815181101561207457612193611d5c611d4e83856103d4565b6008808260581c16146121aa575b5060010161217a565b60601c90813b156100c857875163a8ba872160e01b8152915f9083908183816121d88b8b8e6004850161352c565b03925af19182156106ff576001926121f2575b50906121a1565b80610a8b6121ff926101dc565b5f6121eb565b60ff6502081809000960cd1b83601b0360031b1c1681018091116102cf57600190910190612083565b9190915f805b600282106123b65765ffffffffffff91501661224f8261326c565b612257613ece565b905f5b82518110156122e457612273611d5c611d4e83866103d4565b9060049182808260581c161461228f575b50600191500161225a565b60601c803b156100c857855f9188838c966122be6040519889968795869463964f667d60e01b86528501613493565b03925af19182156106ff57600192156122845780610a8b6122de926101dc565b5f612284565b509491906123298383604098875f8051602061442f83398151915260405180611fdf87876f436f6d626174456e636f756e74657200631d18955160e21b0196846133cd565b5f5b815181101561207457612344611d5c611d4e83856103d4565b6008808260581c161461235b575b5060010161232b565b60601c90813b156100c857875163a8ba872160e01b8152915f9083908183816123898b8b8e60048501613493565b03925af19182156106ff576001926123a3575b5090612352565b80610a8b6123b0926101dc565b5f61239c565b60ff6aa30802012020012020200160a01b83601b0360031b1c1681018091116102cf57600190910190612234565b91906123ef836132d5565b916123f8613f78565b905f5b825181101561248457612414611d5c611d4e83866103d4565b9060049182808260581c1614612430575b5060019150016123fb565b60601c803b156100c857855f91898361245e966040519788958694859363964f667d60e01b855284016134cf565b03925af19182156106ff57600192156124255780610a8b61247e926101dc565b5f612425565b50604080519194909392916124c691849167436f756e7465727360401b631d18955160e21b01905f8051602061442f8339815191529080611e1a868d836133a2565b5f5b8151811015611eae576124e1611d5c611d4e83856103d4565b6008808260581c16146124f8575b506001016124c8565b60601c90813b156100c857845163a8ba872160e01b8152915f9083908183816125258a8e600484016134cf565b03925af19182156106ff5760019261253f575b50906124ef565b80610a8b61254c926101dc565b5f612538565b9190939261255f83614134565b549464ffffffffff808760381c169561258561257d838716896102e3565b8551906102f0565b878114159283806127a7575b6127785784169780891161275557506125aa908961419d565b906125b3613b28565b925f5b8451811015612646576125cf611d5c611d4e83886103d4565b6010808260581c16146125e6575b506001016125b6565b60601c90813b156100c8575f898d9389838e6126198e604051998a9788968795630abd6b4560e31b87526004870161379b565b03925af19182156106ff57600192612633575b50906125dd565b80610a8b612640926101dc565b5f61262c565b50969480939299506126a99198604098875f8051602061440f8339815191528d8b61269387604051938493896f456e7469746965734174506f73697469631d18955160e21b019886613864565b0390a2612745575b6126a4876139d8565b614123565b5f5b815181101561273a576126c4611d5c611d4e83856103d4565b6020808260581c16146126db575b506001016126ab565b60601c90813b156100c8575f878b9387838a61270d8a8f51998a9788968795636358453360e01b87526004870161379b565b03925af19182156106ff57600192612727575b50906126d2565b80610a8b612734926101dc565b5f612720565b505050505050509050565b8a61274f88614134565b5561269b565b604051637e8578d360e01b815290819061277490879060048401613721565b0390fd5b604051632994042d60e21b815264ffffffffff868116600483015288811660248301528a166044820152606490fd5b50886127c06127b68988613708565b64ffffffffff1690565b1415612591565b60409081519160209060208401846127df8583613034565b03946127f3601f1996878101835282610245565b5190205f805160206144af83398151915218549164ffffffffff808460381c169586018681116102cf57169082519661282b886101f4565b5f88525f36813761284661283e886102d4565b8951906102f0565b87811415978880612a39575b612a0a578085116129ec5750612868908661419d565b612870613b28565b925f5b84518110156129015761288c611d5c611d4e83886103d4565b6010808260581c16146128a3575b50600101612873565b60601c90813b156100c8575f898d9389838e6128d48e5198899687958694630abd6b4560e31b865260048601613800565b03925af19182156106ff576001926128ee575b509061289a565b80610a8b6128fb926101dc565b5f6128e7565b508551929891965092915f805160206144cf833981519152905f8051602061440f83398151915290806129378d8b8a8e856138b0565b0390a26129dc575b61294d88846126a4896139d8565b5f5b815181101561273a57612968611d5c611d4e83856103d4565b83808260581c161461297e575b5060010161294f565b60601c90813b156100c8575f878b9387838c6129af8c5198899687958694636358453360e01b865260048601613800565b03925af19182156106ff576001926129c9575b5090612975565b80610a8b6129d6926101dc565b5f6129c2565b846129e687614134565b5561293f565b8551637e8578d360e01b815290819061277490879060048401613721565b8551632994042d60e21b815264ffffffffff868116600483015260206024830152919091166044820152606490fd5b5080612a476127b6876136f2565b1415612852565b60408051655461626c657360501b66746273746f726560c81b0160208201908152672837b9b4ba34b7b760411b631d18955160e21b018284018190528383529295929491612a9b8161022a565b5190205f8051602061444f833981519152185491612ab7613c31565b905f5b8251811015612b4557612ad3611d5c611d4e83866103d4565b6001808260581c1614612aea575b50600101612aba565b60601c90813b156100c85788516315c19b2760e21b8152915f908390818381612b188c8c8f60048501613976565b03925af19182156106ff57600192612b32575b5090612ae1565b80610a8b612b3f926101dc565b5f612b2b565b50947f8dbb3a9672eebfd3773e72dd9c102393436816d832c7ba9e1e1ac8fcadcac7a9875180612b7686898361393a565b0390a2612b91612b8585613176565b8351602085019161424f565b60ff808460e01c1680612c2e575b50505f5b815181101561207457612bbc611d5c611d4e83856103d4565b6002808260581c1614612bd3575b50600101612ba3565b60601c90813b156100c8578751635b28cdaf60e01b8152915f908390818381612c018b8b8e60048501613976565b03925af19182156106ff57600192612c1b575b5090612bca565b80610a8b612c28926101dc565b5f612c14565b5f612c388761415e565b555f60805b8284831610612c4d575050612b9f565b600181612c648693612c5f868d613a03565b61421a565b92011690612c3d565b612c7e612c798261326c565b614302565b91612c8882614173565b549266ffffffffffffff841692612cb7612ca1856117ca565b94612caf6040519687610245565b8086526117ca565b602085019490601f190136863793915f925b60ff8416906002821015612d175790816107d0612d019364ffffffffff8b612cf18a8a613a40565b956028026038011c168094613a89565b9260ff8091169081146102cf5760010192612cc9565b5050949392915050565b919064ffffffffff808460381c1690612d42612d3d8385613ad3565b6143b9565b9460601c168101918282118015612dbe575b612d895790816020828194010192839101116102cf5782039182116102cf5761032d9160018060801b03169060801b176143b9565b6040516323230fa360e01b81526060600482015292839291612daf9060648501906117a5565b91602484015260448301520390fd5b5080518311612d54565b919091612dd481614188565b5464ffffffffff8160381c16612df5612ded82806102e3565b8651906102f0565b8181141594908580612fd4575b612fa857612e10908461419d565b90612e19613cd6565b915f5b8351811015612eab57612e35611d5c611d4e83876103d4565b6010808260581c1614612e4c575b50600101612e1c565b60601c90813b156100c8575f878b9388838c612e7e60405198899687958694630abd6b4560e31b865260048601613738565b03925af19182156106ff57600192612e98575b5090612e43565b80610a8b612ea5926101dc565b5f612e91565b506040805192979195509392915f8051602061446f833981519152905f8051602061440f8339815191529080612ee48c8a898d856138f6565b0390a2612f98575b612efe87612ef987613a65565b6140c7565b5f5b8151811015612f8e57612f19611d5c611d4e83856103d4565b6020808260581c1614612f30575b50600101612f00565b60601c90813b156100c8575f868a9386838b612f618b5198899687958694636358453360e01b865260048601613738565b03925af19182156106ff57600192612f7b575b5090612f27565b80610a8b612f88926101dc565b5f612f74565b5050505050509050565b83612fa286614188565b55612eec565b604051632994042d60e21b81525f600482015264ffffffffff8416602482018190526044820152606490fd5b5082612fe26127b6826136df565b1415612e02565b6953746f7265486f6f6b7360301b66746273746f726560c81b01815281516020918201928201915f5b828110613020575050505090565b835185529381019392810192600101613012565b5f805160206144cf833981519152815281516020918201928201915f5b82811061305f575050505090565b835185529381019392810192600101613051565b5f8051602061446f833981519152815281516020918201928201915f5b82811061309e575050505090565b835185529381019392810192600101613090565b5f805160206144ef833981519152815281516020918201928201915f5b8281106130dd575050505090565b8351855293810193928101926001016130cf565b672837b9b4ba34b7b760411b631d18955160e21b01815281516020918201928201915f5b828110613123575050505090565b835185529381019392810192600101613115565b5f805160206144cf833981519152815281516020918201928201915f5b828110613162575050505090565b835185529381019392810192600101613154565b60405161318b816107956020820194856130f1565b5190205f8051602061444f8339815191521890565b60405160208160208101936614dc185ddb9959604a1b631d18955160e21b0185526040820160208251919201935f5b8281106131ec5750505061318b925003601f198101835282610245565b8551845294810194869450928101926001016131cf565b60405160208160208101936f576f726c64456e636f756e7465720000631d18955160e21b0185526040820160208251919201935f5b8281106132555750505061318b925003601f198101835282610245565b855184529481019486945092810192600101613238565b60405160208160208101936f436f6d626174456e636f756e74657200631d18955160e21b0185526040820160208251919201935f5b8281106132be5750505061318b925003601f198101835282610245565b8551845294810194869450928101926001016132a1565b604051602081602081019367436f756e7465727360401b631d18955160e21b0185526040820160208251919201935f5b8281106133225750505061318b925003601f198101835282610245565b855184529481019486945092810192600101613305565b60405160208160208101936f456e636f756e746572456e7469747900631d18955160e21b0185526040820160208251919201935f5b82811061338b5750505061318b925003601f198101835282610245565b85518452948101948694509281019260010161336e565b90916133b961032d93606084526060840190611301565b915f602082015260408184039101526117a5565b65ffffffffffff6133ea61032d9593606084526060840190611301565b9316602082015260408184039101526117a5565b6614dc185ddb9959604a1b631d18955160e21b01815260806020820181905261032d93919261342f91840190611301565b915f604082015260608184039101526117a5565b65ffffffffffff61347f61032d95936f576f726c64456e636f756e7465720000631d18955160e21b018452608060208501526080840190611301565b9316604082015260608184039101526117a5565b65ffffffffffff61347f61032d95936f436f6d626174456e636f756e74657200631d18955160e21b018452608060208501526080840190611301565b67436f756e7465727360401b631d18955160e21b01815260806020820181905261032d93919261342f91840190611301565b5f8051602061446f833981519152815260806020820181905261032d93919261342f91840190611301565b65ffffffffffff61347f61032d95936f456e636f756e746572456e7469747900631d18955160e21b018452608060208501526080840190611301565b919061357383613339565b9161357c61401d565b905f5b825181101561360857613598611d5c611d4e83866103d4565b9060049182808260581c16146135b4575b50600191500161357f565b60601c803b156100c857855f9189836135e2966040519788958694859363964f667d60e01b85528401613501565b03925af19182156106ff57600192156135a95780610a8b613602926101dc565b5f6135a9565b50929190613653826040946040515f8051602061442f8339815191526f456e636f756e746572456e7469747900631d18955160e21b01918061364b868d836133a2565b0390a2614114565b5f5b8151811015611eae5761366e611d5c611d4e83856103d4565b6008808260581c1614613685575b50600101613655565b60601c90813b156100c857845163a8ba872160e01b8152915f9083908183816136b28a8e60048401613501565b03925af19182156106ff576001926136cc575b509061367c565b80610a8b6136d9926101dc565b5f6136c5565b9064ffffffffff8092169182116102cf57565b90602064ffffffffff809316019182116102cf57565b91909164ffffffffff808094169116019182116102cf57565b90815264ffffffffff909116602082015260400190565b909264ffffffffff61377661032d9694956f456e636f756e746572456e7469747900631d18955160e21b01855260e0602086015260e0850190611301565b945f60408501525f606085015216608083015260a082015260c08184039101526117a5565b916137d361032d969495926f456e7469746965734174506f73697469631d18955160e21b01855260e0602086015260e0850190611301565b945f604085015264ffffffffff809216606085015216608083015260a082015260c08184039101526117a5565b909264ffffffffff61383e61032d9694956f456e7469746965734174506f73697469631d18955160e21b01855260e0602086015260e0850190611301565b945f60408501521660608301526020608083015260a082015260c08184039101526117a5565b91939061032d959365ffffffffffff61388b64ffffffffff9360c0875260c0870190611301565b965f6020870152166040850152166060830152608082015260a08184039101526117a5565b909265ffffffffffff6138d061032d96949560c0855260c0850190611301565b945f602085015216604083015260206060830152608082015260a08184039101526117a5565b909264ffffffffff61391561032d96949560c0855260c0850190611301565b945f60208501525f6040850152166060830152608082015260a08184039101526117a5565b9061032d9261395461396292608085526080850190611301565b9083820360208501526117a5565b905f60408201526060818303910152611768565b672837b9b4ba34b7b760411b631d18955160e21b01815260c0602082018190529094939260a0926139d3926139c092916139b291890190611301565b9087820360408901526117a5565b5f60608701528581036080870152611768565b930152565b5f8051602061448f833981519152906040516139fc81610795602082019485613137565b5190201890565b905f8051602061448f83398151915291604051613a28816107956020820194856130f1565b51902060f89190911b6001600160f81b031916181890565b905f8051602061448f83398151915291604051613a28816107956020820194856130b2565b5f8051602061448f833981519152906040516139fc81610795602082019485613073565b9291925b602090818310613aad5780548552930192601f1990910190600101613a8d565b91905092919280613abd57505050565b5f199060031b1c90818351169119905416179052565b9081518111613af2576001600160801b031660209190910160801b1790565b6040516323230fa360e01b81526060600482015292508291613b189060648401906117a5565b905f602484015260448301520390fd5b613b306108c8565b8051156103e857613be3613bdb6020926f456e7469746965734174506f73697469631d18955160e21b018482015264ffffffffff604051915f8051602061448f83398151915286840184613b848483612fe9565b0394613b98601f1996878101835282610245565b5190201892613bbe6040519182613bb28a82019586612fe9565b03908101835282610245565b5190205f805160206144af833981519152185460381c169061436e565b805190613ad3565b8060801c916015809260018060801b0316049060405193818501828460051b8701016040528386525f5b848110613c1d5750505050505090565b825182529185019190830190600101613c0d565b613c396108c8565b8051156103e857613c88613bdb602092672837b9b4ba34b7b760411b631d18955160e21b018482015264ffffffffff604051915f8051602061448f83398151915286840184613b848483612fe9565b8060801c916015809260018060801b0316049060405193818501828460051b8701016040528386525f5b848110613cc25750505050505090565b825182529185019190830190600101613cb2565b613cde6108c8565b8051156103e857613d32613bdb6020926f456e636f756e746572456e7469747900631d18955160e21b018482015264ffffffffff604051915f8051602061448f83398151915286840184613b848483612fe9565b8060801c916015809260018060801b0316049060405193818501828460051b8701016040528386525f5b848110613d6c5750505050505090565b825182529185019190830190600101613d5c565b613d886108c8565b8051156103e857613dd6613bdb6020926614dc185ddb9959604a1b631d18955160e21b018482015264ffffffffff604051915f8051602061448f83398151915286840184613b848483612fe9565b8060801c916015809260018060801b0316049060405193818501828460051b8701016040528386525f5b848110613e105750505050505090565b825182529185019190830190600101613e00565b613e2c6108c8565b8051156103e857613e80613bdb6020926f576f726c64456e636f756e7465720000631d18955160e21b018482015264ffffffffff604051915f8051602061448f83398151915286840184613b848483612fe9565b8060801c916015809260018060801b0316049060405193818501828460051b8701016040528386525f5b848110613eba5750505050505090565b825182529185019190830190600101613eaa565b613ed66108c8565b8051156103e857613f2a613bdb6020926f436f6d626174456e636f756e74657200631d18955160e21b018482015264ffffffffff604051915f8051602061448f83398151915286840184613b848483612fe9565b8060801c916015809260018060801b0316049060405193818501828460051b8701016040528386525f5b848110613f645750505050505090565b825182529185019190830190600101613f54565b613f806108c8565b8051156103e857613fcf613bdb60209267436f756e7465727360401b631d18955160e21b018482015264ffffffffff604051915f8051602061448f83398151915286840184613b848483612fe9565b8060801c916015809260018060801b0316049060405193818501828460051b8701016040528386525f5b8481106140095750505050505090565b825182529185019190830190600101613ff9565b6140256108c8565b8051156103e857614079613bdb6020926f456e636f756e746572456e7469747900631d18955160e21b018482015264ffffffffff604051915f8051602061448f83398151915286840184613b848483612fe9565b8060801c916015809260018060801b0316049060405193818501828460051b8701016040528386525f5b8481106140b35750505050505090565b8251825291850191908301906001016140a3565b81519060208093019190925b808210156140fc5750806140e657505050565b5f199060031b1c90818354169119905116179055565b6001839482939451815501930191601f1901906140d3565b81516106b5926020019161424f565b82516106b593602001929091614272565b60405161414981610795602082019485613137565b5190205f805160206144af8339815191521890565b604051614149816107956020820194856130f1565b604051614149816107956020820194856130b2565b60405161414981610795602082019485613073565b64ffffffffff8083116142015766ffffffffffffff821690603883901c16838181106141f7570301915b64ffffffffff60381b60389190911b1664ffffffffff60381b19929092166001600160601b031991909116171790565b90039003916141c7565b604051637149a3c160e01b815260048101849052602490fd5b9190915f905b6020908183106142405784518155930192601f1990910190600101614220565b9293919050806140e657505050565b9291926020908183106142405784518155930192601f1990910190600101614220565b9093929193806142a1575b509290926020908183106142405784518155930192601f1990910190600101614220565b60208110156142f2575b801561427d5791939082602003908360031b5f198460031b1c19811c908751901c908019835416911617815581831115611eae57600101940191601f19910101925f61427d565b90601f908260051c0191166142ab565b60405190602090601f19908160e285011660405260a38452602084019260a391925b818310156143565750508061433a575b50505090565b5f199060031b1c908183511691199054161790525f8080614334565b81600185839495979654875201940194019190614324565b60408051601f19603f85830101811690925283815292602080850193925b818310156143a15750508061433a5750505090565b8160018583949597965487520194019401919061438c565b6040805160206020600160801b0384168201810190925260016001607b1b03600584901c1680825290939260801c8285015f5b8381106143fa575050505050565b8251825291840191908401906001016143ec56fefe158a7adba34e256807c8a149028d3162918713c3838afc643ce9f96716ebfd8c0b5119d4cec7b284c6b1b39252a03d1e2f2d7451a5895562524c113bb952be86425bff6b57326c7859e89024fe4f238ca327a1ae4a230180dd2f0e88aaa7d974625544000000000000000000000000456e636f756e746572456e74697479003b4102da22e32d82fc925482184f16c09fd4281692720b87d124aef6da48a0f114e2fcc58e58e68ec7edc30c8d50dccc3ce2714a623ec81f46b6a63922d7656974625544000000000000000000000000456e7469746965734174506f7369746974625544000000000000000000000000436f6d626174456e636f756e74657200","linkReferences":{}},"methodIdentifiers":{"_msgSender()":"119df25f","_msgValue()":"45ec9354","_world()":"e1af802c","removeEntitiesFromBoard(bytes32[])":"e03beb83","removeEntityFromBoard(bytes32)":"8181bc57","supportsInterface(bytes4)":"01ffc9a7"},"id":511}