{"abi":[{"type":"function","name":"_msgSender","inputs":[],"outputs":[{"name":"sender","type":"address","internalType":"address"}],"stateMutability":"view"},{"type":"function","name":"_msgValue","inputs":[],"outputs":[{"name":"value","type":"uint256","internalType":"uint256"}],"stateMutability":"view"},{"type":"function","name":"_world","inputs":[],"outputs":[{"name":"","type":"address","internalType":"address"}],"stateMutability":"view"},{"type":"function","name":"removeEntitiesFromBoard","inputs":[{"name":"entityIds","type":"bytes32[]","internalType":"bytes32[]"}],"outputs":[],"stateMutability":"nonpayable"},{"type":"function","name":"removeEntityFromBoard","inputs":[{"name":"entityId","type":"bytes32","internalType":"bytes32"}],"outputs":[],"stateMutability":"nonpayable"},{"type":"function","name":"supportsInterface","inputs":[{"name":"interfaceId","type":"bytes4","internalType":"bytes4"}],"outputs":[{"name":"","type":"bool","internalType":"bool"}],"stateMutability":"pure"},{"type":"event","name":"Store_SetRecord","inputs":[{"name":"tableId","type":"bytes32","indexed":true,"internalType":"ResourceId"},{"name":"keyTuple","type":"bytes32[]","indexed":false,"internalType":"bytes32[]"},{"name":"staticData","type":"bytes","indexed":false,"internalType":"bytes"},{"name":"encodedLengths","type":"bytes32","indexed":false,"internalType":"EncodedLengths"},{"name":"dynamicData","type":"bytes","indexed":false,"internalType":"bytes"}],"anonymous":false},{"type":"event","name":"Store_SpliceDynamicData","inputs":[{"name":"tableId","type":"bytes32","indexed":true,"internalType":"ResourceId"},{"name":"keyTuple","type":"bytes32[]","indexed":false,"internalType":"bytes32[]"},{"name":"dynamicFieldIndex","type":"uint8","indexed":false,"internalType":"uint8"},{"name":"start","type":"uint48","indexed":false,"internalType":"uint48"},{"name":"deleteCount","type":"uint40","indexed":false,"internalType":"uint40"},{"name":"encodedLengths","type":"bytes32","indexed":false,"internalType":"EncodedLengths"},{"name":"data","type":"bytes","indexed":false,"internalType":"bytes"}],"anonymous":false},{"type":"event","name":"Store_SpliceStaticData","inputs":[{"name":"tableId","type":"bytes32","indexed":true,"internalType":"ResourceId"},{"name":"keyTuple","type":"bytes32[]","indexed":false,"internalType":"bytes32[]"},{"name":"start","type":"uint48","indexed":false,"internalType":"uint48"},{"name":"data","type":"bytes","indexed":false,"internalType":"bytes"}],"anonymous":false},{"type":"error","name":"EncodedLengths_InvalidLength","inputs":[{"name":"length","type":"uint256","internalType":"uint256"}]},{"type":"error","name":"GamePaused","inputs":[]},{"type":"error","name":"SessionNotTimedOut","inputs":[]},{"type":"error","name":"Slice_OutOfBounds","inputs":[{"name":"data","type":"bytes","internalType":"bytes"},{"name":"start","type":"uint256","internalType":"uint256"},{"name":"end","type":"uint256","internalType":"uint256"}]},{"type":"error","name":"Store_IndexOutOfBounds","inputs":[{"name":"length","type":"uint256","internalType":"uint256"},{"name":"accessedIndex","type":"uint256","internalType":"uint256"}]},{"type":"error","name":"Store_InvalidResourceType","inputs":[{"name":"expected","type":"bytes2","internalType":"bytes2"},{"name":"resourceId","type":"bytes32","internalType":"ResourceId"},{"name":"resourceIdString","type":"string","internalType":"string"}]},{"type":"error","name":"Store_InvalidSplice","inputs":[{"name":"startWithinField","type":"uint40","internalType":"uint40"},{"name":"deleteCount","type":"uint40","internalType":"uint40"},{"name":"fieldLength","type":"uint40","internalType":"uint40"}]},{"type":"error","name":"UseFleeFunction","inputs":[]}],"bytecode":{"object":"0x6080806040523461001657613ca7908161001b8239f35b5f80fdfe60806040526004361015610011575f80fd5b5f3560e01c806301ffc9a714610074578063119df25f1461006f57806345ec93541461006a5780638181bc5714610065578063e03beb83146100605763e1af802c1461005b575f80fd5b6101ae565b61013f565b610121565b610102565b6100d6565b346100c85760203660031901126100c85760043563ffffffff60e01b81168091036100c85763b5dee12760e01b81149081156100b7575b50151560805260206080f35b6301ffc9a760e01b149050816100ab565b5f80fd5b5f9103126100c857565b346100c8575f3660031901126100c85760206100f06107eb565b6040516001600160a01b039091168152f35b346100c8575f3660031901126100c8576020604051601f193601358152f35b346100c85760203660031901126100c85761013d60043561040a565b005b346100c85760203660031901126100c8576004356001600160401b038082116100c857366023830112156100c85781600401359081116100c857600560243683831b85018201116100c8575f5b83811061019557005b806101a883600193861b8801013561040a565b0161018c565b346100c8575f3660031901126100c85760206100f06116b9565b634e487b7160e01b5f52604160045260245ffd5b6001600160401b0381116101ef57604052565b6101c8565b602081019081106001600160401b038211176101ef57604052565b604081019081106001600160401b038211176101ef57604052565b606081019081106001600160401b038211176101ef57604052565b601f909101601f19168101906001600160401b038211908210176101ef57604052565b908160209103126100c8575180151581036100c85790565b6040513d5f823e3d90fd5b60208151910151906020811061029f575090565b5f199060200360031b1b1690565b634e487b7160e01b5f52601160045260245ffd5b5f198101919082116102cf57565b6102ad565b601f198101919082116102cf57565b919082039182116102cf57565b9061025882018092116102cf57565b919082018092116102cf57565b519061ffff821682036100c857565b91908260409103126100c85761033c60206103358461030c565b930161030c565b90565b6001600160401b0381116101ef5760051b60200190565b60209081818403126100c8578051906001600160401b0382116100c857019180601f840112156100c857825161038b8161033f565b936103996040519586610245565b818552838086019260051b8201019283116100c8578301905b8282106103c0575050505090565b815181529083019083016103b2565b634e487b7160e01b5f52603260045260245ffd5b80518210156103f75760209160051b010190565b6103cf565b5f1981146102cf5760010190565b610412610802565b61041b8161086d565b9061043661042a61042a6116b9565b6001600160a01b031690565b60408051633e86fb3160e21b815260048082018590529492602091908290829060249082905afa9081156106d7575f916107ce575b50156107c85761047a3061088a565b9061048961042a61042a6116b9565b906104c7816104966107eb565b865163087bdec760e31b8152808b018a81526001600160a01b03831660208201529195909384928391829160400190565b03915afa9081156106d7575f9161079b575b501561072257505082610712576104f26104f8916102c1565b306108e9565b61050661042a61042a6116b9565b8180518092638b4ce3e560e01b82528180610528898b83019190602083019252565b03915afa9182156106d757610582955f925f946106dc575b505f9183859261055461042a61042a6116b9565b925163d0f8a4f560e01b815261ffff9283169181019182529190931660208401529788928391829160400190565b03915afa9485156106d7575f956106b3575b505f5b85518110156106a857846105ab82886103e3565b51146105bf576105ba906103fc565b610597565b6105e5906105dc876105d66105ea979899516102c1565b906103e3565b51908484610a06565b610b00565b6105f382610bb2565b6105fc82610c89565b80610605575050565b9161060f83610da3565b610120810193905f5b855180518210156106535790610639610633826001946103e3565b51610e89565b61064d6106478289516103e3565b51610f44565b01610618565b505061010001935091905f5b8451805182101561068e579061067a610633826001946103e3565b6106886106478288516103e3565b0161065f565b505092509061069f6106a692610fb9565b4290611071565b565b5050509091506105ea565b6106d09195503d805f833e6106c88183610245565b810190610356565b935f610594565b610280565b825f9395506107019294503d861161070b575b6106f98183610245565b81019061031b565b9390929091610540565b503d6106ef565b8151635a1887dd60e11b81528590fd5b61074d610731610752936108c1565b855192830190815282906020015b03601f198101835282610245565b61028b565b61078f57610767610762856109e9565b6102f0565b42111561077f576104f261077a916102c1565b6104f8565b81516399bc5f7d60e01b81528590fd5b6104f261077a916102c1565b6107bb9150823d84116107c1575b6107b38183610245565b810190610268565b5f6104d9565b503d6107a9565b506104f8565b6107e59150823d84116107c1576107b38183610245565b5f61046b565b36603319013560601c9081156107fd57565b339150565b61081d604051610811816101f4565b5f81525f368137611199565b60f81c61082657565b60405163379a7ed960e01b8152600490fd5b604051906108458261020f565b6001825260203681840137565b6040519061085f8261022a565b600282526040366020840137565b610875610838565b8051156103f75761033c916020820152611250565b610892610852565b908151156103f7576001600160a01b031660208201528051600110156103f757805f604061033c9301526112db565b6108c9610838565b8051156103f7576001600160a01b03909116602082015261033c9061136b565b906108f2610852565b805190926001600160a01b0391156103f757811660208401528251600110156103f7575f6040840152604051916020830152602082526109318261020f565b6109396116b9565b169130830361094c576106a69250611dc3565b90823b156100c8576040516301c85d5760e51b815267436f756e7465727360401b631d18955160e21b01600482015260a06024820152925f9284928391859183916109b891906109a09060a4850190611166565b908460448501526003198483030160648501526114a5565b630100080160dd1b608483015203925af180156106d7576109d65750565b806109e36106a6926101dc565b806100cc565b6109f1610838565b8051156103f75761033c9160208201526113db565b92919092610a12610852565b9361ffff918551156103f757821660208601528451600110156103f75716604084015260405191602083015260208252610a4b8261020f565b815164ffffffffff9081169160051b166001600160a01b03610a6b6116b9565b16308103610a7d57506106a693611f31565b909293813b156100c85760405163605144ad60e11b81525f80516020613c87833981519152600482015260c06024820152945f948694859387938593610aef939092610acd9060c4870190611166565b92866044870152606486015260848501526003198483030160a48501526114a5565b03925af180156106d7576109d65750565b610b08610852565b9161ffff918351156103f757821660208401528251600110156103f7571660408201526001600160a01b03610b3b6116b9565b16308103610b4d57506106a6906121a6565b803b156100c8576040516336700e8160e21b81525f80516020613c87833981519152600482015260806024820152915f918391829084908290610b94906084830190611166565b8260448301526020606483015203925af180156106d7576109d65750565b604051905f60208301525f602283015260048252610bcf8261020f565b610bd7610838565b908151156103f75760208201526001600160a01b03610bf46116b9565b16308103610c075750906106a69161242d565b90813b156100c85760405163298314fb60e01b8152672837b9b4ba34b7b760411b631d18955160e21b01600482015260a06024820152925f9284929091839185918391610aef9190610c7490610c619060a4860190611166565b60031992838683030160448701526114a5565b90846064850152838203016084840152611468565b610c91610838565b908151156103f75760208201526040515f602082015260018152610cb48161020f565b6001600160a01b03610cc46116b9565b1691308303610cd7576106a692506118b3565b90823b156100c8576040516301c85d5760e51b81526614dc185ddb9959604a1b631d18955160e21b01600482015260a06024820152925f928492839185918391610d2a91906109a09060a4850190611166565b630101000160d81b608483015203925af180156106d7576109d65750565b6040519061014082016001600160401b038111838210176101ef576040526060610120835f81525f60208201525f60408201525f838201525f60808201525f60a08201525f60c08201525f60e0820152826101008201520152565b610dab610d48565b50610db4610838565b8051156103f757610dc991602082015261156f565b610dd4929192610d48565b92602083015160f81c926003841015610e7557610e6693816021610e6193015190610e51604182015191610e0c606182015160f81c90565b90606281015190608281015190610e398d60e0610e3260c260a286015195015160f81c90565b1515910152565b60c08d015260a08c015260808b0152151560608a0152565b604088015260208701528561163c565b612705565b61012083015261010082015290565b634e487b7160e01b5f52602160045260245ffd5b610e91610838565b908151156103f75760208201526040515f602082015260208152610eb48161020f565b6001600160a01b03610ec46116b9565b1691308303610ed7576106a69250612eb3565b90823b156100c8576040516301c85d5760e51b81525f80516020613c27833981519152600482015260a06024820152925f928492839185918391610f2491906109a09060a4850190611166565b6502081809000960cd1b608483015203925af180156106d7576109d65750565b90610f4d610838565b8051156103f7576020926020820152606051908160051b828104602014831517156102cf5760408051808301603f01601f1916909152908152916020830160805f5b838110610fa557505050506106a6929350611648565b815183529187019190870190600101610f8f565b610fc1610838565b908151156103f7576020820152604051600160f81b602082015260018152610fe88161020f565b6001600160a01b03610ff86116b9565b169130830361100b576106a69250611a4b565b90823b156100c8576040516301c85d5760e51b81525f80516020613c27833981519152600482015260a06024820152925f928492839185918391610f2491906110589060a4850190611166565b60016044850152838103600319016064850152906114a5565b9061107a610838565b918251156103f75760208301526040519060208201526020815261109d8161020f565b6001600160a01b036110ad6116b9565b16913083036110c0576106a69250611c0d565b90823b156100c8576040516301c85d5760e51b81526f436f6d626174456e636f756e74657200631d18955160e21b01600482015260a06024820152925f92849283918591839161113291906111199060a4850190611166565b60026044850152838103600319016064850152906114a5565b6aa30802012020012020200160a01b608483015203925af180156106d7576109d65750565b908160209103126100c8575190565b9081518082526020808093019301915f5b828110611185575050505090565b835185529381019392810192600101611177565b6001600160a01b036111a96116b9565b163081036111bb575061033c906116ee565b604051638c364d5960e01b81526514185d5cd95960521b631d18955160e21b01600482015260806024820152916020918391829081906111ff906084830190611166565b5f6044830152630101000160d81b606483015203915afa9081156106d7575f91611227575090565b61033c915060203d602011611249575b6112418183610245565b810190611157565b503d611237565b6001600160a01b036112606116b9565b16308103611272575061033c90611766565b604051638c364d5960e01b81525f80516020613c27833981519152600482015260806024820152916020918391829081906112b1906084830190611166565b5f60448301526502081809000960cd1b606483015203915afa9081156106d7575f91611227575090565b6001600160a01b036112eb6116b9565b163081036112fd575061033c9061177b565b604051638c364d5960e01b815267436f756e7465727360401b631d18955160e21b0160048201526080602482015291602091839182908190611343906084830190611166565b5f6044830152630100080160dd1b606483015203915afa9081156106d7575f91611227575090565b6001600160a01b0361137b6116b9565b1630810361138d575061033c906117df565b604051638c364d5960e01b81526f53797374656d52656769737472790000661d189ddbdc9b1960ca1b0160048201526080602482015291602091839182908190611343906084830190611166565b6001600160a01b036113eb6116b9565b163081036113fd575061033c9061184b565b604051638c364d5960e01b81526b29b2b9b9b4b7b72a34b6b2b960211b631d18955160e21b0160048201526080602482015291602091839182908190611343906084830190611166565b5f5b8381106114585750505f910152565b8181015183820152602001611449565b90606051918281525f5b8381106114915750825f602080949584010152601f8019910116010190565b806020916080015182828501015201611472565b906020916114be81518092818552858086019101611447565b601f01601f1916010190565b6001600160401b0381116101ef57601f01601f191660200190565b81601f820112156100c85780516114fb816114ca565b926115096040519485610245565b818452602082840101116100c85761033c9160208085019101611447565b90916060828403126100c85781516001600160401b0392908381116100c857846115529183016114e5565b9360208201519360408301519081116100c85761033c92016114e5565b6001600160a01b0361157f6116b9565b1630810361159857506115919061264c565b9192909190565b60405163419b58fd60e01b81526f436f6d626174456e636f756e74657200631d18955160e21b0160048201526060602482015292915f918491829081906115e3906064830190611166565b6aa30802012020012020200160a01b604483015203915afa9081156106d7575f80935f93611612575b50929190565b9193505061163291503d805f833e61162a8183610245565b810190611527565b929092915f61160c565b6003821015610e755752565b906001600160a01b036116596116b9565b169130830361166c576106a692506127ac565b90823b156100c8576040516377b7543160e11b81525f80516020613c27833981519152600482015260806024820152925f928492839185918391610aef91906109a0906084850190611166565b7f629a4c26e296b22a8e0856e9f6ecb2d1008d7e00081111962cd175fa7488e175546001600160a01b03168061033c57503390565b60405160208160208101936514185d5cd95960521b631d18955160e21b0185526040820160208251919201935f5b82811061174f57505050611739925003601f198101835282610245565b5190205f80516020613c07833981519152185490565b85518452948101948694509281019260010161171c565b6040516117398161073f602082019485612a57565b604051602081602081019367436f756e7465727360401b631d18955160e21b0185526040820160208251919201935f5b8281106117c857505050611739925003601f198101835282610245565b8551845294810194869450928101926001016117ab565b60405160208160208101936f53797374656d52656769737472790000661d189ddbdc9b1960ca1b0185526040820160208251919201935f5b82811061183457505050611739925003601f198101835282610245565b855184529481019486945092810192600101611817565b60405160208160208101936b29b2b9b9b4b7b72a34b6b2b960211b631d18955160e21b0185526040820160208251919201935f5b82811061189c57505050611739925003601f198101835282610245565b85518452948101948694509281019260010161187f565b91906118be83612b90565b916118c76136c3565b905f5b825181101561196e576118fe6118f16118e383866103e3565b516001600160581b03191690565b6001600160581b03191690565b9060049182808260581c161461191a575b5060019150016118ca565b60601c803b156100c857855f918983611948966040519788958694859363964f667d60e01b85528401612d85565b03925af19182156106d7576001921561190f57806109e3611968926101dc565b5f61190f565b50604080519194909392916119b79184916614dc185ddb9959604a1b631d18955160e21b01905f80516020613be783398151915290806119af868d83612d29565b0390a26138b6565b5f5b8151811015611a43576119d26118f16118e383856103e3565b6008808260581c16146119e9575b506001016119b9565b60601c90813b156100c857845163a8ba872160e01b8152915f908390818381611a168a8e60048401612d85565b03925af19182156106d757600192611a30575b50906119e0565b806109e3611a3d926101dc565b5f611a29565b505050509050565b9190915f805b60018210611be45765ffffffffffff915016611a6c82612cc0565b611a74613619565b905f5b8251811015611b0157611a906118f16118e383866103e3565b9060049182808260581c1614611aac575b506001915001611a77565b60601c803b156100c857855f9188838c96611adb6040519889968795869463964f667d60e01b86528501612e77565b03925af19182156106d75760019215611aa157806109e3611afb926101dc565b5f611aa1565b50949190611b4e8383604098875f80516020613be783398151915260405180611b4687876f456e636f756e746572456e7469747900631d18955160e21b019684612d54565b0390a26138c5565b5f5b8151811015611bdb57611b696118f16118e383856103e3565b6008808260581c1614611b80575b50600101611b50565b60601c90813b156100c857875163a8ba872160e01b8152915f908390818381611bae8b8b8e60048501612e77565b03925af19182156106d757600192611bc8575b5090611b77565b806109e3611bd5926101dc565b5f611bc1565b50505050509050565b60ff6502081809000960cd1b83601b0360031b1c1681018091116102cf57600190910190611a51565b9190915f805b60028210611d955765ffffffffffff915016611c2e82612bf3565b611c36613767565b905f5b8251811015611cc357611c526118f16118e383866103e3565b9060049182808260581c1614611c6e575b506001915001611c39565b60601c803b156100c857855f9188838c96611c9d6040519889968795869463964f667d60e01b86528501612dca565b03925af19182156106d75760019215611c6357806109e3611cbd926101dc565b5f611c63565b50949190611d088383604098875f80516020613be783398151915260405180611b4687876f436f6d626174456e636f756e74657200631d18955160e21b019684612d54565b5f5b8151811015611bdb57611d236118f16118e383856103e3565b6008808260581c1614611d3a575b50600101611d0a565b60601c90813b156100c857875163a8ba872160e01b8152915f908390818381611d688b8b8e60048501612dca565b03925af19182156106d757600192611d82575b5090611d31565b806109e3611d8f926101dc565b5f611d7b565b60ff6aa30802012020012020200160a01b83601b0360031b1c1681018091116102cf57600190910190611c13565b9190611dce83612c5c565b91611dd7613811565b905f5b8251811015611e6357611df36118f16118e383866103e3565b9060049182808260581c1614611e0f575b506001915001611dda565b60601c803b156100c857855f918983611e3d966040519788958694859363964f667d60e01b85528401612e1a565b03925af19182156106d75760019215611e0457806109e3611e5d926101dc565b5f611e04565b5060408051919490939291611ea591849167436f756e7465727360401b631d18955160e21b01905f80516020613be783398151915290806119af868d83612d29565b5f5b8151811015611a4357611ec06118f16118e383856103e3565b6008808260581c1614611ed7575b50600101611ea7565b60601c90813b156100c857845163a8ba872160e01b8152915f908390818381611f048a8e60048401612e1a565b03925af19182156106d757600192611f1e575b5090611ece565b806109e3611f2b926101dc565b5f611f17565b91909392611f3e836138d6565b549464ffffffffff808760381c1695611f64611f5c838716896102e3565b8551906102ff565b87811415928380612186575b612157578416978089116121345750611f89908961393f565b90611f9261346b565b925f5b845181101561202557611fae6118f16118e383886103e3565b6010808260581c1614611fc5575b50600101611f95565b60601c90813b156100c8575f898d9389838e611ff88e604051998a9788968795630abd6b4560e31b8752600487016130de565b03925af19182156106d757600192612012575b5090611fbc565b806109e361201f926101dc565b5f61200b565b50969480939299506120889198604098875f80516020613bc78339815191528d8b61207287604051938493896f456e7469746965734174506f73697469631d18955160e21b0198866131a7565b0390a2612124575b6120838761331b565b6138c5565b5f5b8151811015612119576120a36118f16118e383856103e3565b6020808260581c16146120ba575b5060010161208a565b60601c90813b156100c8575f878b9387838a6120ec8a8f51998a9788968795636358453360e01b8752600487016130de565b03925af19182156106d757600192612106575b50906120b1565b806109e3612113926101dc565b5f6120ff565b505050505050509050565b8a61212e886138d6565b5561207a565b604051637e8578d360e01b815290819061215390879060048401613064565b0390fd5b604051632994042d60e21b815264ffffffffff868116600483015288811660248301528a166044820152606490fd5b508861219f612195898861304b565b64ffffffffff1690565b1415611f70565b60409081519160209060208401846121be8583612a18565b03946121d2601f1996878101835282610245565b5190205f80516020613c6783398151915218549164ffffffffff808460381c169586018681116102cf57169082519661220a886101f4565b5f88525f36813761222561221d886102d4565b8951906102ff565b87811415978880612418575b6123e9578085116123cb5750612247908661393f565b61224f61346b565b925f5b84518110156122e05761226b6118f16118e383886103e3565b6010808260581c1614612282575b50600101612252565b60601c90813b156100c8575f898d9389838e6122b38e5198899687958694630abd6b4560e31b865260048601613143565b03925af19182156106d7576001926122cd575b5090612279565b806109e36122da926101dc565b5f6122c6565b508551929891965092915f80516020613c87833981519152905f80516020613bc783398151915290806123168d8b8a8e856131f3565b0390a26123bb575b61232c88846120838961331b565b5f5b8151811015612119576123476118f16118e383856103e3565b83808260581c161461235d575b5060010161232e565b60601c90813b156100c8575f878b9387838c61238e8c5198899687958694636358453360e01b865260048601613143565b03925af19182156106d7576001926123a8575b5090612354565b806109e36123b5926101dc565b5f6123a1565b846123c5876138d6565b5561231e565b8551637e8578d360e01b815290819061215390879060048401613064565b8551632994042d60e21b815264ffffffffff868116600483015260206024830152919091166044820152606490fd5b508061242661219587613035565b1415612231565b60408051655461626c657360501b66746273746f726560c81b0160208201908152672837b9b4ba34b7b760411b631d18955160e21b01828401819052838352929592949161247a8161022a565b5190205f80516020613c07833981519152185491612496613574565b905f5b8251811015612524576124b26118f16118e383866103e3565b6001808260581c16146124c9575b50600101612499565b60601c90813b156100c85788516315c19b2760e21b8152915f9083908183816124f78c8c8f600485016132b9565b03925af19182156106d757600192612511575b50906124c0565b806109e361251e926101dc565b5f61250a565b50947f8dbb3a9672eebfd3773e72dd9c102393436816d832c7ba9e1e1ac8fcadcac7a987518061255586898361327d565b0390a261257061256485612b66565b83516020850191613a07565b60ff808460e01c168061260d575b50505f5b8151811015611bdb5761259b6118f16118e383856103e3565b6002808260581c16146125b2575b50600101612582565b60601c90813b156100c8578751635b28cdaf60e01b8152915f9083908183816125e08b8b8e600485016132b9565b03925af19182156106d7576001926125fa575b50906125a9565b806109e3612607926101dc565b5f6125f3565b5f61261787613900565b555f60805b828483161061262c57505061257e565b600181612643869361263e868d613346565b6139bc565b9201169061261c565b61265d61265882612bf3565b613aba565b9161266782613915565b549266ffffffffffffff841692612696612680856114ca565b9461268e6040519687610245565b8086526114ca565b602085019490601f190136863793915f925b60ff84169060028210156126fb5790816126e06126e59364ffffffffff8b6126d08a8a613383565b956028026038011c1680946133cc565b6102ff565b9260ff8091169081146102cf57600101926126a8565b5050949392915050565b919064ffffffffff808460381c16906127266127218385613416565b613b71565b9460601c1681019182821180156127a2575b61276d5790816020828194010192839101116102cf5782039182116102cf5761033c9160018060801b03169060801b17613b71565b6040516323230fa360e01b815260606004820152928392916127939060648501906114a5565b91602484015260448301520390fd5b5080518311612738565b9190916127b88161392a565b5464ffffffffff8160381c166127d96127d182806102e3565b8651906102ff565b81811415949085806129b8575b61298c576127f4908461393f565b906127fd613619565b915f5b835181101561288f576128196118f16118e383876103e3565b6010808260581c1614612830575b50600101612800565b60601c90813b156100c8575f878b9388838c61286260405198899687958694630abd6b4560e31b86526004860161307b565b03925af19182156106d75760019261287c575b5090612827565b806109e3612889926101dc565b5f612875565b506040805192979195509392915f80516020613c27833981519152905f80516020613bc783398151915290806128c88c8a898d85613239565b0390a261297c575b6128e2876128dd876133a8565b6138b6565b5f5b8151811015612972576128fd6118f16118e383856103e3565b6020808260581c1614612914575b506001016128e4565b60601c90813b156100c8575f868a9386838b6129458b5198899687958694636358453360e01b86526004860161307b565b03925af19182156106d75760019261295f575b509061290b565b806109e361296c926101dc565b5f612958565b5050505050509050565b836129868661392a565b556128d0565b604051632994042d60e21b81525f600482015264ffffffffff8416602482018190526044820152606490fd5b50826129c661219582613022565b14156127e6565b6953746f7265486f6f6b7360301b66746273746f726560c81b01815281516020918201928201915f5b828110612a04575050505090565b8351855293810193928101926001016129f6565b5f80516020613c87833981519152815281516020918201928201915f5b828110612a43575050505090565b835185529381019392810192600101612a35565b5f80516020613c27833981519152815281516020918201928201915f5b828110612a82575050505090565b835185529381019392810192600101612a74565b672837b9b4ba34b7b760411b631d18955160e21b01815281516020918201928201915f5b828110612ac8575050505090565b835185529381019392810192600101612aba565b5f80516020613c87833981519152815281516020918201928201915f5b828110612b07575050505090565b835185529381019392810192600101612af9565b6f436f6d626174456e636f756e74657200631d18955160e21b01815281516020918201928201915f5b828110612b52575050505090565b835185529381019392810192600101612b44565b604051612b7b8161073f602082019485612a96565b5190205f80516020613c078339815191521890565b60405160208160208101936614dc185ddb9959604a1b631d18955160e21b0185526040820160208251919201935f5b828110612bdc57505050612b7b925003601f198101835282610245565b855184529481019486945092810192600101612bbf565b60405160208160208101936f436f6d626174456e636f756e74657200631d18955160e21b0185526040820160208251919201935f5b828110612c4557505050612b7b925003601f198101835282610245565b855184529481019486945092810192600101612c28565b604051602081602081019367436f756e7465727360401b631d18955160e21b0185526040820160208251919201935f5b828110612ca957505050612b7b925003601f198101835282610245565b855184529481019486945092810192600101612c8c565b60405160208160208101936f456e636f756e746572456e7469747900631d18955160e21b0185526040820160208251919201935f5b828110612d1257505050612b7b925003601f198101835282610245565b855184529481019486945092810192600101612cf5565b9091612d4061033c93606084526060840190611166565b915f602082015260408184039101526114a5565b65ffffffffffff612d7161033c9593606084526060840190611166565b9316602082015260408184039101526114a5565b6614dc185ddb9959604a1b631d18955160e21b01815260806020820181905261033c939192612db691840190611166565b915f604082015260608184039101526114a5565b65ffffffffffff612e0661033c95936f436f6d626174456e636f756e74657200631d18955160e21b018452608060208501526080840190611166565b9316604082015260608184039101526114a5565b67436f756e7465727360401b631d18955160e21b01815260806020820181905261033c939192612db691840190611166565b5f80516020613c27833981519152815260806020820181905261033c939192612db691840190611166565b65ffffffffffff612e0661033c95936f456e636f756e746572456e7469747900631d18955160e21b018452608060208501526080840190611166565b9190612ebe83612cc0565b91612ec7613619565b905f5b8251811015612f5357612ee36118f16118e383866103e3565b9060049182808260581c1614612eff575b506001915001612eca565b60601c803b156100c857855f918983612f2d966040519788958694859363964f667d60e01b85528401612e4c565b03925af19182156106d75760019215612ef457806109e3612f4d926101dc565b5f612ef4565b50929190612f96826040946040515f80516020613be78339815191526f456e636f756e746572456e7469747900631d18955160e21b0191806119af868d83612d29565b5f5b8151811015611a4357612fb16118f16118e383856103e3565b6008808260581c1614612fc8575b50600101612f98565b60601c90813b156100c857845163a8ba872160e01b8152915f908390818381612ff58a8e60048401612e4c565b03925af19182156106d75760019261300f575b5090612fbf565b806109e361301c926101dc565b5f613008565b9064ffffffffff8092169182116102cf57565b90602064ffffffffff809316019182116102cf57565b91909164ffffffffff808094169116019182116102cf57565b90815264ffffffffff909116602082015260400190565b909264ffffffffff6130b961033c9694956f456e636f756e746572456e7469747900631d18955160e21b01855260e0602086015260e0850190611166565b945f60408501525f606085015216608083015260a082015260c08184039101526114a5565b9161311661033c969495926f456e7469746965734174506f73697469631d18955160e21b01855260e0602086015260e0850190611166565b945f604085015264ffffffffff809216606085015216608083015260a082015260c08184039101526114a5565b909264ffffffffff61318161033c9694956f456e7469746965734174506f73697469631d18955160e21b01855260e0602086015260e0850190611166565b945f60408501521660608301526020608083015260a082015260c08184039101526114a5565b91939061033c959365ffffffffffff6131ce64ffffffffff9360c0875260c0870190611166565b965f6020870152166040850152166060830152608082015260a08184039101526114a5565b909265ffffffffffff61321361033c96949560c0855260c0850190611166565b945f602085015216604083015260206060830152608082015260a08184039101526114a5565b909264ffffffffff61325861033c96949560c0855260c0850190611166565b945f60208501525f6040850152166060830152608082015260a08184039101526114a5565b9061033c926132976132a592608085526080850190611166565b9083820360208501526114a5565b905f60408201526060818303910152611468565b672837b9b4ba34b7b760411b631d18955160e21b01815260c0602082018190529094939260a0926133169261330392916132f591890190611166565b9087820360408901526114a5565b5f60608701528581036080870152611468565b930152565b5f80516020613c478339815191529060405161333f8161073f602082019485612adc565b5190201890565b905f80516020613c478339815191529160405161336b8161073f602082019485612a96565b51902060f89190911b6001600160f81b031916181890565b905f80516020613c478339815191529160405161336b8161073f602082019485612b1b565b5f80516020613c478339815191529060405161333f8161073f602082019485612a57565b9291925b6020908183106133f05780548552930192601f19909101906001016133d0565b9190509291928061340057505050565b5f199060031b1c90818351169119905416179052565b9081518111613435576001600160801b031660209190910160801b1790565b6040516323230fa360e01b8152606060048201529250829161345b9060648401906114a5565b905f602484015260448301520390fd5b613473610838565b8051156103f75761352661351e6020926f456e7469746965734174506f73697469631d18955160e21b018482015264ffffffffff604051915f80516020613c47833981519152868401846134c784836129cd565b03946134db601f1996878101835282610245565b519020189261350160405191826134f58a820195866129cd565b03908101835282610245565b5190205f80516020613c67833981519152185460381c1690613b26565b805190613416565b8060801c916015809260018060801b0316049060405193818501828460051b8701016040528386525f5b8481106135605750505050505090565b825182529185019190830190600101613550565b61357c610838565b8051156103f7576135cb61351e602092672837b9b4ba34b7b760411b631d18955160e21b018482015264ffffffffff604051915f80516020613c47833981519152868401846134c784836129cd565b8060801c916015809260018060801b0316049060405193818501828460051b8701016040528386525f5b8481106136055750505050505090565b8251825291850191908301906001016135f5565b613621610838565b8051156103f75761367561351e6020926f456e636f756e746572456e7469747900631d18955160e21b018482015264ffffffffff604051915f80516020613c47833981519152868401846134c784836129cd565b8060801c916015809260018060801b0316049060405193818501828460051b8701016040528386525f5b8481106136af5750505050505090565b82518252918501919083019060010161369f565b6136cb610838565b8051156103f75761371961351e6020926614dc185ddb9959604a1b631d18955160e21b018482015264ffffffffff604051915f80516020613c47833981519152868401846134c784836129cd565b8060801c916015809260018060801b0316049060405193818501828460051b8701016040528386525f5b8481106137535750505050505090565b825182529185019190830190600101613743565b61376f610838565b8051156103f7576137c361351e6020926f436f6d626174456e636f756e74657200631d18955160e21b018482015264ffffffffff604051915f80516020613c47833981519152868401846134c784836129cd565b8060801c916015809260018060801b0316049060405193818501828460051b8701016040528386525f5b8481106137fd5750505050505090565b8251825291850191908301906001016137ed565b613819610838565b8051156103f75761386861351e60209267436f756e7465727360401b631d18955160e21b018482015264ffffffffff604051915f80516020613c47833981519152868401846134c784836129cd565b8060801c916015809260018060801b0316049060405193818501828460051b8701016040528386525f5b8481106138a25750505050505090565b825182529185019190830190600101613892565b81516106a69260200191613a07565b82516106a693602001929091613a2a565b6040516138eb8161073f602082019485612adc565b5190205f80516020613c678339815191521890565b6040516138eb8161073f602082019485612a96565b6040516138eb8161073f602082019485612b1b565b6040516138eb8161073f602082019485612a57565b64ffffffffff8083116139a35766ffffffffffffff821690603883901c1683818110613999570301915b64ffffffffff60381b60389190911b1664ffffffffff60381b19929092166001600160601b031991909116171790565b9003900391613969565b604051637149a3c160e01b815260048101849052602490fd5b9190915f905b6020908183106139e25784518155930192601f19909101906001016139c2565b9293919050806139f157505050565b5f199060031b1c90818354169119905116179055565b9291926020908183106139e25784518155930192601f19909101906001016139c2565b909392919380613a59575b509290926020908183106139e25784518155930192601f19909101906001016139c2565b6020811015613aaa575b8015613a355791939082602003908360031b5f198460031b1c19811c908751901c908019835416911617815581831115611a4357600101940191601f19910101925f613a35565b90601f908260051c019116613a63565b60405190602090601f19908160e285011660405260a38452602084019260a391925b81831015613b0e57505080613af2575b50505090565b5f199060031b1c908183511691199054161790525f8080613aec565b81600185839495979654875201940194019190613adc565b60408051601f19603f85830101811690925283815292602080850193925b81831015613b5957505080613af25750505090565b81600185839495979654875201940194019190613b44565b6040805160206020600160801b0384168201810190925260016001607b1b03600584901c1680825290939260801c8285015f5b838110613bb2575050505050565b825182529184019190840190600101613ba456fefe158a7adba34e256807c8a149028d3162918713c3838afc643ce9f96716ebfd8c0b5119d4cec7b284c6b1b39252a03d1e2f2d7451a5895562524c113bb952be86425bff6b57326c7859e89024fe4f238ca327a1ae4a230180dd2f0e88aaa7d974625544000000000000000000000000456e636f756e746572456e74697479003b4102da22e32d82fc925482184f16c09fd4281692720b87d124aef6da48a0f114e2fcc58e58e68ec7edc30c8d50dccc3ce2714a623ec81f46b6a63922d7656974625544000000000000000000000000456e7469746965734174506f73697469","linkReferences":{}},"methodIdentifiers":{"_msgSender()":"119df25f","_msgValue()":"45ec9354","_world()":"e1af802c","removeEntitiesFromBoard(bytes32[])":"e03beb83","removeEntityFromBoard(bytes32)":"8181bc57","supportsInterface(bytes4)":"01ffc9a7"},"id":369}