{"abi":[{"type":"function","name":"_msgSender","inputs":[],"outputs":[{"name":"sender","type":"address","internalType":"address"}],"stateMutability":"view"},{"type":"function","name":"_msgValue","inputs":[],"outputs":[{"name":"value","type":"uint256","internalType":"uint256"}],"stateMutability":"view"},{"type":"function","name":"_world","inputs":[],"outputs":[{"name":"","type":"address","internalType":"address"}],"stateMutability":"view"},{"type":"function","name":"initDelegation","inputs":[{"name":"","type":"address","internalType":"address"}],"outputs":[],"stateMutability":"nonpayable"},{"type":"function","name":"supportsInterface","inputs":[{"name":"interfaceId","type":"bytes4","internalType":"bytes4"}],"outputs":[{"name":"","type":"bool","internalType":"bool"}],"stateMutability":"pure"},{"type":"function","name":"verify","inputs":[{"name":"","type":"address","internalType":"address"},{"name":"systemId","type":"bytes32","internalType":"ResourceId"},{"name":"callData","type":"bytes","internalType":"bytes"}],"outputs":[{"name":"","type":"bool","internalType":"bool"}],"stateMutability":"view"}],"bytecode":{"object":"0x608080604052346100165761054a908161001b8239f35b5f80fdfe608060408181526004361015610013575f80fd5b5f3560e01c91826301ffc9a7146101a857508163119df25f1461016c5781631a86b550146100c957816345ec9354146100ab578163e1af802c1461007f575063ef1d5adf14610060575f80fd5b3461007b57602036600319011261007b57610079610213565b005b5f80fd5b3461007b575f36600319011261007b5760209061009a610512565b90516001600160a01b039091168152f35b3461007b575f36600319011261007b575136601f1901358152602090f35b3461007b57606036600319011261007b576100e2610213565b506001600160401b039060443582811161007b573660238201121561007b578060040135928311610158578151610123601f8501601f191660200182610229565b838152366024858401011161007b575f6020858196602461014f9601838601378301015260243561024c565b90519015158152f35b634e487b7160e01b5f52604160045260245ffd5b3461007b575f36600319011261007b5760209036603319013560601c9081156101a0575b516001600160a01b039091168152f35b339150610190565b3461007b57602036600319011261007b576004359063ffffffff60e01b821680920361007b576020916301a86b5560e41b8114908115610202575b81156101f1575b5015158152f35b6301ffc9a760e01b149050836101ea565b63b5dee12760e01b811491506101e3565b600435906001600160a01b038216820361007b57565b601f909101601f19168101906001600160401b0382119082101761015857604052565b604080519081016001600160401b0381118282101761015857604052600181526020810190602036833780511561036d57826102889252610393565b60f81c1561038d5760801b6001600160801b0319166f4c6f6f744d616e61676572537973746560801b1480610381575b6102c3575b50600190565b80511561036d5760ff60f81b6020820151169080516001101561036d5760ff60f01b602182015160081c1681516002101561036d5760ff60e81b602283015160101c169180516003101561036d57602360ff60e01b91015160181c1692171717631c39c7d560e01b811490811561035c575b811561034b575b50610347575f6102bd565b5f90565b639147852b60e01b1490505f61033c565b6338d4f8b160e11b81149150610335565b634e487b7160e01b5f52603260045260245ffd5b506004815110156102b8565b50505f90565b6001600160a01b036103a3610512565b1630810361043e575060405160208160208101936f416c6c6f77656447616d655379737465631d18955160e21b0185526040820160208251919201935f5b828110610427575050506103fe925003601f198101835282610229565b5190207f86425bff6b57326c7859e89024fe4f238ca327a1ae4a230180dd2f0e88aaa7d9185490565b8551845294810194869450928101926001016103e1565b604051638c364d5960e01b81526f416c6c6f77656447616d655379737465631d18955160e21b0160048201526080602482015282516084820181905260209391928492849260a48401918501905f5b8181106104f95750505f604485015250630101000160d81b60648401528290039082905afa9182156104ee575f926104c457505090565b90809250813d83116104e7575b6104db8183610229565b8101031261007b575190565b503d6104d1565b6040513d5f823e3d90fd5b825184528896889650938401939092019160010161048d565b7f629a4c26e296b22a8e0856e9f6ecb2d1008d7e00081111962cd175fa7488e175546001600160a01b03168061054757503390565b9056","linkReferences":{}},"methodIdentifiers":{"_msgSender()":"119df25f","_msgValue()":"45ec9354","_world()":"e1af802c","initDelegation(address)":"ef1d5adf","supportsInterface(bytes4)":"01ffc9a7","verify(address,bytes32,bytes)":"1a86b550"},"id":369}