{"abi":[{"type":"function","name":"_msgSender","inputs":[],"outputs":[{"name":"sender","type":"address","internalType":"address"}],"stateMutability":"view"},{"type":"function","name":"_msgValue","inputs":[],"outputs":[{"name":"value","type":"uint256","internalType":"uint256"}],"stateMutability":"view"},{"type":"function","name":"_world","inputs":[],"outputs":[{"name":"","type":"address","internalType":"address"}],"stateMutability":"view"},{"type":"function","name":"adminClearEncounterState","inputs":[{"name":"entityId","type":"bytes32","internalType":"bytes32"}],"outputs":[],"stateMutability":"nonpayable"},{"type":"function","name":"adminSetCombatEncounter","inputs":[{"name":"encounterId","type":"bytes32","internalType":"bytes32"},{"name":"encounterData","type":"tuple","internalType":"struct CombatEncounterData","components":[{"name":"encounterType","type":"uint8","internalType":"enum EncounterType"},{"name":"start","type":"uint256","internalType":"uint256"},{"name":"end","type":"uint256","internalType":"uint256"},{"name":"rewardsDistributed","type":"bool","internalType":"bool"},{"name":"currentTurn","type":"uint256","internalType":"uint256"},{"name":"currentTurnTimer","type":"uint256","internalType":"uint256"},{"name":"maxTurns","type":"uint256","internalType":"uint256"},{"name":"attackersAreMobs","type":"bool","internalType":"bool"},{"name":"defenders","type":"bytes32[]","internalType":"bytes32[]"},{"name":"attackers","type":"bytes32[]","internalType":"bytes32[]"}]}],"outputs":[],"stateMutability":"nonpayable"},{"type":"function","name":"adminSetEncounterEntity","inputs":[{"name":"entityId","type":"bytes32","internalType":"bytes32"},{"name":"encounterEntityData","type":"tuple","internalType":"struct EncounterEntityData","components":[{"name":"encounterId","type":"bytes32","internalType":"bytes32"},{"name":"died","type":"bool","internalType":"bool"},{"name":"pvpTimer","type":"uint256","internalType":"uint256"},{"name":"appliedStatusEffects","type":"bytes32[]","internalType":"bytes32[]"}]}],"outputs":[],"stateMutability":"nonpayable"},{"type":"function","name":"adminSetPlayerCount","inputs":[{"name":"systemAddr","type":"address","internalType":"address"},{"name":"count","type":"uint256","internalType":"uint256"}],"outputs":[],"stateMutability":"nonpayable"},{"type":"function","name":"getSystemAddress","inputs":[{"name":"systemId","type":"bytes32","internalType":"ResourceId"}],"outputs":[{"name":"","type":"address","internalType":"address"}],"stateMutability":"view"},{"type":"function","name":"setAdmin","inputs":[{"name":"newAdmin","type":"address","internalType":"address"},{"name":"adminState","type":"bool","internalType":"bool"}],"outputs":[],"stateMutability":"nonpayable"},{"type":"function","name":"setFeePercent","inputs":[{"name":"newPercent","type":"uint256","internalType":"uint256"}],"outputs":[],"stateMutability":"nonpayable"},{"type":"function","name":"setFeeRecipient","inputs":[{"name":"newRecipient","type":"address","internalType":"address"}],"outputs":[],"stateMutability":"nonpayable"},{"type":"function","name":"setMaxPlayers","inputs":[{"name":"newMax","type":"uint256","internalType":"uint256"}],"outputs":[],"stateMutability":"nonpayable"},{"type":"function","name":"supportsInterface","inputs":[{"name":"interfaceId","type":"bytes4","internalType":"bytes4"}],"outputs":[{"name":"","type":"bool","internalType":"bool"}],"stateMutability":"pure"},{"type":"event","name":"Store_SetRecord","inputs":[{"name":"tableId","type":"bytes32","indexed":true,"internalType":"ResourceId"},{"name":"keyTuple","type":"bytes32[]","indexed":false,"internalType":"bytes32[]"},{"name":"staticData","type":"bytes","indexed":false,"internalType":"bytes"},{"name":"encodedLengths","type":"bytes32","indexed":false,"internalType":"EncodedLengths"},{"name":"dynamicData","type":"bytes","indexed":false,"internalType":"bytes"}],"anonymous":false},{"type":"event","name":"Store_SpliceDynamicData","inputs":[{"name":"tableId","type":"bytes32","indexed":true,"internalType":"ResourceId"},{"name":"keyTuple","type":"bytes32[]","indexed":false,"internalType":"bytes32[]"},{"name":"dynamicFieldIndex","type":"uint8","indexed":false,"internalType":"uint8"},{"name":"start","type":"uint48","indexed":false,"internalType":"uint48"},{"name":"deleteCount","type":"uint40","indexed":false,"internalType":"uint40"},{"name":"encodedLengths","type":"bytes32","indexed":false,"internalType":"EncodedLengths"},{"name":"data","type":"bytes","indexed":false,"internalType":"bytes"}],"anonymous":false},{"type":"event","name":"Store_SpliceStaticData","inputs":[{"name":"tableId","type":"bytes32","indexed":true,"internalType":"ResourceId"},{"name":"keyTuple","type":"bytes32[]","indexed":false,"internalType":"bytes32[]"},{"name":"start","type":"uint48","indexed":false,"internalType":"uint48"},{"name":"data","type":"bytes","indexed":false,"internalType":"bytes"}],"anonymous":false},{"type":"error","name":"EncodedLengths_InvalidLength","inputs":[{"name":"length","type":"uint256","internalType":"uint256"}]},{"type":"error","name":"NotAdmin","inputs":[]},{"type":"error","name":"Slice_OutOfBounds","inputs":[{"name":"data","type":"bytes","internalType":"bytes"},{"name":"start","type":"uint256","internalType":"uint256"},{"name":"end","type":"uint256","internalType":"uint256"}]},{"type":"error","name":"Store_IndexOutOfBounds","inputs":[{"name":"length","type":"uint256","internalType":"uint256"},{"name":"accessedIndex","type":"uint256","internalType":"uint256"}]},{"type":"error","name":"Store_InvalidResourceType","inputs":[{"name":"expected","type":"bytes2","internalType":"bytes2"},{"name":"resourceId","type":"bytes32","internalType":"ResourceId"},{"name":"resourceIdString","type":"string","internalType":"string"}]},{"type":"error","name":"Store_InvalidSplice","inputs":[{"name":"startWithinField","type":"uint40","internalType":"uint40"},{"name":"deleteCount","type":"uint40","internalType":"uint40"},{"name":"fieldLength","type":"uint40","internalType":"uint40"}]}],"bytecode":{"object":"0x60808060405234610016576130b1908161001b8239f35b5f80fdfe60806040526004361015610011575f80fd5b5f3560e01c806301ffc9a7146100e457806305ad7522146100df5780630ede8f81146100da578063119df25f146100d557806323e8492c146100d0578063288dee3b146100cb57806341603e0f146100c657806345ec9354146100c15780634b0bddd2146100bc5780637ce3489b146100b757806396daec3d146100b2578063e1af802c146100ad5763e74b981b146100a8575f80fd5b610926565b61090c565b61081d565b610739565b6106be565b61069f565b610616565b6104f3565b6104b6565b61048a565b61031b565b61028c565b3461013a57602036600319011261013a5760043563ffffffff60e01b811680910361013a5760209063b5dee12760e01b8114908115610129575b506040519015158152f35b6301ffc9a760e01b1490505f61011e565b5f80fd5b634e487b7160e01b5f52604160045260245ffd5b608081019081106001600160401b0382111761016d57604052565b61013e565b6001600160401b03811161016d57604052565b604081019081106001600160401b0382111761016d57604052565b606081019081106001600160401b0382111761016d57604052565b60e081019081106001600160401b0382111761016d57604052565b601f909101601f19168101906001600160401b0382119082101761016d57604052565b6040519061014082016001600160401b0381118382101761016d57604052565b3590811515820361013a57565b81601f8201121561013a578035916020916001600160401b03841161016d578360051b906040519461025a858401876101d6565b8552838086019282010192831161013a578301905b82821061027d575050505090565b8135815290830190830161026f565b3461013a5760031960403682011261013a57602435906001600160401b039081831161013a57608090833603011261013a57604051906102cb82610152565b826004013582526102de60248401610219565b602083015260448301356040830152606483013590811161013a5761031992600461030c9236920101610226565b6060820152600435610a11565b005b3461013a5760031960203682011261013a5760043561034061033b610da1565b610bde565b1561046e5761034d610b4e565b805115610469578082602061037a930152604051905f60208301526020825261037582610185565b611107565b610382610b4e565b805115610469578160208201526103976112b9565b926001600160a01b036103a86113fd565b163081036103cd575050610319926103bf91611e60565b6103c881610c0c565b610ced565b809491943b1561013a576040516377b7543160e11b81525f80516020613051833981519152600482015260806024820152945f938693849286928492610431929161041c906084860190610dc7565b91856044860152848303016064850152610fa4565b03925af1918215610464576103199261044b575b506103bf565b8061045861045e92610172565b80610480565b5f610445565b610dfa565b610ba9565b604051637bfa4b9f60e01b8152600490fd5b5f91031261013a57565b3461013a575f36600319011261013a5760206104a4610da1565b6040516001600160a01b039091168152f35b3461013a57602036600319011261013a576104cf610b4e565b805115610469576104e860209160043583820152610e05565b60601c604051908152f35b3461013a5760031960203682011261013a5761051061033b610da1565b1561046e5761051d610b68565b6040519060043560208301526020825261053682610185565b6001600160a01b036105466113fd565b16308103610559575061031992506119b8565b809291923b1561013a576040516301c85d5760e51b81526f556c74696d617465446f6d696e696f6e631d18955160e21b01600482015260a06024820152935f9385938492869284926105ca92916105b49060a4860190610dc7565b9160086044860152848303016064850152610fa4565b6f45434000450505050505050805080805607a1b608483015203925af18015610464576105f357005b8061045861031992610172565b600435906001600160a01b038216820361013a57565b3461013a57604036600319011261013a5761062f610600565b61063a61033b610da1565b1561046e57610647610b8e565b90815115610469576001600160a01b0316602082015280516001101561046957805f60406103199301526040519061069a8261068c6024356020830160209181520190565b03601f1981018452836101d6565b611190565b3461013a575f36600319011261013a576020604051601f193601358152f35b3461013a57604036600319011261013a576106d7610600565b602435801515810361013a576106ee61033b610da1565b1561046e576106fb610b4e565b805115610469576001600160a01b0390921660208381019190915260405191151560f81b9082015261031991610734826021810161068c565b611226565b3461013a5760031960203682011261013a5761075661033b610da1565b1561046e57610763610b68565b6040519060043560208301526020825261077c82610185565b6001600160a01b0361078c6113fd565b1630810361079f57506103199250611a11565b809291923b1561013a576040516301c85d5760e51b81526f556c74696d617465446f6d696e696f6e631d18955160e21b01600482015260a06024820152935f9385938492869284926105ca92916107fa9060a4860190610dc7565b91600a6044860152848303016064850152610fa4565b3590600382101561013a57565b3461013a5760031960403682011261013a57602435906001600160401b039081831161013a5761014090833603011261013a576108586101f9565b9061086583600401610810565b8252602483013560208301526044830135604083015261088760648401610219565b60608301526084830135608083015260a483013560a083015260c483013560c08301526108b660e48401610219565b60e083015261010483013581811161013a576108d89060043691860101610226565b61010083015261012483013590811161013a576103199260046108fe9236920101610226565b610120820152600435610a8e565b3461013a575f36600319011261013a5760206104a46113fd565b3461013a5760031960203682011261013a57610940610600565b61094b61033b610da1565b1561046e57610958610b68565b60405160609290921b6001600160601b03191660208301526014825261097d82610185565b6001600160a01b0361098d6113fd565b163081036109a057506103199250611a65565b809291923b1561013a576040516301c85d5760e51b81526f556c74696d617465446f6d696e696f6e631d18955160e21b01600482015260a06024820152935f9385938492869284926105ca92916109fb9060a4860190610dc7565b9160096044860152848303016064850152610fa4565b90610a1d61033b610da1565b1561046e57610a8c9160608251926020810151151560408201519060405195602087015260f81b6040860152604185015260418452610a5b84610152565b015191610a69835193610f72565b92610a72610b4e565b92610a7c84610bbd565b5280603d1b9060051b1791610fc9565b565b610a9961033b610da1565b1561046e578151916003831015610b3a57610aed610a8c9360208301516040840151610ac86060860151151590565b60808601519060a08701519260c088015194610ae760e08a0151151590565b96611357565b610b21610120610100840151930151610b1b81855190518060651b9180603d1b9160051b9060051b01171790565b936113ad565b92610b2a610b4e565b90610b3482610bbd565b52611084565b634e487b7160e01b5f52602160045260245ffd5b60405190610b5b82610185565b6001825260203681840137565b604051602081016001600160401b0381118282101761016d576040525f8152905f368137565b60405190610b9b826101a0565b600282526040366020840137565b634e487b7160e01b5f52603260045260245ffd5b8051156104695760200190565b80518210156104695760209160051b010190565b610be6610b4e565b805115610469576001600160a01b039091166020820152610c0690610ec4565b60f81c90565b610c14610b4e565b908151156104695760208201526040515f602082015260208152610c3781610185565b6001600160a01b03610c476113fd565b1691308303610c5a57610a8c9250611ab9565b90823b1561013a576040516301c85d5760e51b81525f80516020613051833981519152600482015260a06024820152925f928492839185918391610cc09190610ca79060a4850190610dc7565b6002604485015283810360031901606485015290610fa4565b6502081809000960cd1b608483015203925af1801561046457610ce05750565b80610458610a8c92610172565b610cf5610b4e565b908151156104695760208201526040515f602082015260018152610d1881610185565b6001600160a01b03610d286113fd565b1691308303610d3b57610a8c9250611b03565b90823b1561013a576040516301c85d5760e51b81525f80516020613051833981519152600482015260a06024820152925f928492839185918391610cc09190610d889060a4850190610dc7565b6001604485015283810360031901606485015290610fa4565b36603319013560601c908115610db357565b339150565b9081602091031261013a575190565b9081518082526020808093019301915f5b828110610de6575050505090565b835185529381019392810192600101610dd8565b6040513d5f823e3d90fd5b6001600160a01b03610e156113fd565b16308103610e2a5750610e2790611432565b90565b604051638c364d5960e01b81526653797374656d7360481b661d189ddbdc9b1960ca1b0160048201526080602482015291602091839182908190610e72906084830190610dc7565b5f604483015264150200140160d01b606483015203915afa908115610464575f91610e9b575090565b610e27915060203d602011610ebd575b610eb581836101d6565b810190610db8565b503d610eab565b6001600160a01b03610ed46113fd565b16308103610ee65750610e27906114ae565b604051638c364d5960e01b81526420b236b4b760591b631d18955160e21b0160048201526080602482015291602091839182908190610f29906084830190610dc7565b5f6044830152630101000160d81b606483015203915afa908115610464575f91610e9b575090565b5f5b838110610f625750505f910152565b8181015183820152602001610f53565b610f7b90611308565b610e27602060405183610f978295518092858086019101610f51565b81010380845201826101d6565b90602091610fbd81518092818552858086019101610f51565b601f01601f1916010190565b909291906001600160a01b03610fdd6113fd565b16308103610ff0575092610a8c9361150f565b909192813b1561013a575f61105f93611073829661104c94604051998a988997889663298314fb60e01b88526f456e636f756e746572456e7469747900631d18955160e21b01600489015260a0602489015260a4880190610dc7565b6003199283888303016044890152610fa4565b926064860152848303016084850152610fa4565b03925af1801561046457610ce05750565b909291906001600160a01b036110986113fd565b163081036110ab575092610a8c93611781565b909192813b1561013a575f61105f93611073829661104c94604051998a988997889663298314fb60e01b88526f436f6d626174456e636f756e74657200631d18955160e21b01600489015260a0602489015260a4880190610dc7565b906001600160a01b036111186113fd565b169130830361112b57610a8c925061272e565b90823b1561013a576040516301c85d5760e51b81525f80516020613051833981519152600482015260a06024820152925f928492839185918391610cc091906111789060a4850190610dc7565b90846044850152600319848303016064850152610fa4565b906001600160a01b036111a16113fd565b16913083036111b457610a8c9250611b4d565b90823b1561013a576040516301c85d5760e51b815267436f756e7465727360401b631d18955160e21b01600482015260a06024820152925f92849283918591839161120891906111789060a4850190610dc7565b630100080160dd1b608483015203925af1801561046457610ce05750565b906001600160a01b036112376113fd565b169130830361124a57610a8c9250611ccb565b90823b1561013a576040516301c85d5760e51b81526420b236b4b760591b631d18955160e21b01600482015260a06024820152925f92849283918591839161129b91906111789060a4850190610dc7565b630101000160d81b608483015203925af1801561046457610ce05750565b6060516112c581611e4a565b604051916020916020840190601f19603f828701011660405284525f6080905b8381106112f457505050505090565b8151835291840191908401906001016112e5565b80519061131482611e4a565b60408051808301603f01601f1916909152908152916020918284019083015f5b83811061134357505050505090565b815183529184019190840190600101611334565b96959493929190604051976003811015610b3a5760f81b602089015260218801526041870152151560f81b60618601526062850152608284015260a2830152151560f81b60c282015260a38152610e27816101bb565b60206113c46113be610e2793611308565b93611308565b9260405193816113dd8693518092868087019101610f51565b82016113f182518093868085019101610f51565b010380845201826101d6565b7f629a4c26e296b22a8e0856e9f6ecb2d1008d7e00081111962cd175fa7488e175546001600160a01b031680610e2757503390565b60405160208160208101936653797374656d7360481b661d189ddbdc9b1960ca1b0185526040820160208251919201935f5b82811061149757505050611481925003601f1981018352826101d6565b5190205f80516020613031833981519152185490565b855184529481019486945092810192600101611464565b60405160208160208101936420b236b4b760591b631d18955160e21b0185526040820160208251919201935f5b8281106114f857505050611481925003601f1981018352826101d6565b8551845294810194869450928101926001016114db565b60408051655461626c657360501b66746273746f726560c81b01602082019081525f8051602061305183398151915282840181905283835296979295949291611557816101a0565b5190205f80516020613031833981519152185490611573612ad7565b905f5b8251811015611621576115aa61159d61158f8386610bca565b516001600160581b03191690565b6001600160581b03191690565b6001808260581c16146115c1575b50600101611576565b60601c90813b1561013a575f888c9388838b6115f48f8c9051998a97889687956315c19b2760e21b875260048701612376565b03925af19182156104645760019261160e575b50906115b8565b8061045861161b92610172565b5f611607565b50965f805160206130718339815191528751806116418c8a898b8561233a565b0390a261165c611650856121b2565b84516020860191612cf5565b60ff808360e01c1680611708575b50505f5b81518110156116fd5761168761159d61158f8385610bca565b6002808260581c161461169e575b5060010161166e565b60601c90813b1561013a575f878b9387838a6116d08a8f51998a9788968795635b28cdaf60e01b875260048701612376565b03925af1918215610464576001926116ea575b5090611695565b806104586116f792610172565b5f6116e3565b505050505050509050565b969098929594938561171c869a949a612e20565b555f96602085015b8b8916908a82101561176e576117658d928261176060019464ffffffffff8f8f908f9061175091612e75565b956028026038011c168094612cf5565b61232d565b99011697611724565b5050939950939495509550955f8061166a565b60408051655461626c657360501b66746273746f726560c81b01602082019081526f436f6d626174456e636f756e74657200631d18955160e21b01828401819052838352969792959492916117d5816101a0565b5190205f805160206130318339815191521854906117f1612b8a565b905f5b82518110156118845761180d61159d61158f8386610bca565b6001808260581c1614611824575b506001016117f4565b60601c90813b1561013a575f888c9388838b6118578f8c9051998a97889687956315c19b2760e21b8752600487016123da565b03925af191821561046457600192611871575b509061181b565b8061045861187e92610172565b5f61186a565b50965f805160206130718339815191528751806118a48c8a898b8561233a565b0390a26118b3611650856121ea565b60ff808360e01c1680611954575b50505f5b81518110156116fd576118de61159d61158f8385610bca565b6002808260581c16146118f5575b506001016118c5565b60601c90813b1561013a575f878b9387838a6119278a8f51998a9788968795635b28cdaf60e01b8752600487016123da565b03925af191821561046457600192611941575b50906118ec565b8061045861194e92610172565b5f61193a565b9690989295949385611968869a949a612e35565b555f96602085015b8b8916908a8210156119a55761199c8d928261176060019464ffffffffff8f8f908f9061175091612eb2565b99011697611970565b5050939950939495509550955f806118c1565b91905f925f5b600881106119da575065ffffffffffff610a8c939416906125a0565b9360ff6f45434000450505050505050805080805607a1b86601b0360031b1c168101809111611a0c57936001016119be565b611e36565b91905f925f5b600a8110611a33575065ffffffffffff610a8c939416906125a0565b9360ff6f45434000450505050505050805080805607a1b86601b0360031b1c168101809111611a0c5793600101611a17565b91905f925f5b60098110611a87575065ffffffffffff610a8c939416906125a0565b9360ff6f45434000450505050505050805080805607a1b86601b0360031b1c168101809111611a0c5793600101611a6b565b91905f925f5b60028110611adb575065ffffffffffff610a8c9394169061289d565b9360ff6502081809000960cd1b86601b0360031b1c168101809111611a0c5793600101611abf565b91905f925f5b60018110611b25575065ffffffffffff610a8c9394169061289d565b9360ff6502081809000960cd1b86601b0360031b1c168101809111611a0c5793600101611b09565b9190611b58836121ff565b91611b61612be8565b905f5b8251811015611bed57611b7d61159d61158f8386610bca565b9060049182808260581c1614611b99575b506001915001611b64565b60601c803b1561013a57855f918983611bc7966040519788958694859363964f667d60e01b85528401612474565b03925af19182156104645760019215611b8e5780610458611be792610172565b5f611b8e565b5060408051919490939291611c3791849167436f756e7465727360401b631d18955160e21b01905f805160206130118339815191529080611c2f868d83612418565b0390a2612ed7565b5f5b8151811015611cc357611c5261159d61158f8385610bca565b6008808260581c1614611c69575b50600101611c39565b60601c90813b1561013a57845163a8ba872160e01b8152915f908390818381611c968a8e60048401612474565b03925af191821561046457600192611cb0575b5090611c60565b80610458611cbd92610172565b5f611ca9565b505050509050565b9190611cd683612263565b91611cdf612c41565b905f5b8251811015611d6b57611cfb61159d61158f8386610bca565b9060049182808260581c1614611d17575b506001915001611ce2565b60601c803b1561013a57855f918983611d45966040519788958694859363964f667d60e01b855284016124ba565b03925af19182156104645760019215611d0c5780610458611d6592610172565b5f611d0c565b5060408051919490939291611daa9184916420b236b4b760591b631d18955160e21b01905f805160206130118339815191529080611c2f868d83612418565b5f5b8151811015611cc357611dc561159d61158f8385610bca565b6008808260581c1614611ddc575b50600101611dac565b60601c90813b1561013a57845163a8ba872160e01b8152915f908390818381611e098a8e600484016124ba565b03925af191821561046457600192611e23575b5090611dd3565b80610458611e3092610172565b5f611e1c565b634e487b7160e01b5f52601160045260245ffd5b908160051b9180830460201490151715611a0c57565b919091611e6c81612e0b565b5464ffffffffff8160381c16611e8d611e858280612a10565b86519061232d565b818114159490858061207f575b61205357611ea89084612ef7565b90611eb1612ad7565b915f5b8351811015611f4357611ecd61159d61158f8387610bca565b6010808260581c1614611ee4575b50600101611eb4565b60601c90813b1561013a575f878b9388838c611f1660405198899687958694630abd6b4560e31b865260048601612a30565b03925af191821561046457600192611f30575b5090611edb565b80610458611f3d92610172565b5f611f29565b506040805192979195509392915f80516020613051833981519152907ffe158a7adba34e256807c8a149028d3162918713c3838afc643ce9f96716ebfd9080611f8f8c8a898d85612a93565b0390a2612043575b611fa987611fa487612e4a565b612ed7565b5f5b815181101561203957611fc461159d61158f8385610bca565b6020808260581c1614611fdb575b50600101611fab565b60601c90813b1561013a575f868a9386838b61200c8b5198899687958694636358453360e01b865260048601612a30565b03925af191821561046457600192612026575b5090611fd2565b8061045861203392610172565b5f61201f565b5050505050509050565b8361204d86612e0b565b55611f97565b604051632994042d60e21b81525f600482015264ffffffffff8416602482018190526044820152606490fd5b508261209761208d82612a1d565b64ffffffffff1690565b1415611e9a565b6953746f7265486f6f6b7360301b66746273746f726560c81b01815281516020918201928201915f5b8281106120d5575050505090565b8351855293810193928101926001016120c7565b5f80516020613051833981519152815281516020918201928201915f5b828110612114575050505090565b835185529381019392810192600101612106565b5f80516020613051833981519152815281516020918201928201915f5b828110612153575050505090565b835185529381019392810192600101612145565b6f436f6d626174456e636f756e74657200631d18955160e21b01815281516020918201928201915f5b82811061219e575050505090565b835185529381019392810192600101612190565b6040516121d5816121c7602082019485612128565b03601f1981018352826101d6565b5190205f805160206130318339815191521890565b6040516121d5816121c7602082019485612167565b604051602081602081019367436f756e7465727360401b631d18955160e21b0185526040820160208251919201935f5b82811061224c575050506121d5925003601f1981018352826101d6565b85518452948101948694509281019260010161222f565b60405160208160208101936420b236b4b760591b631d18955160e21b0185526040820160208251919201935f5b8281106122ad575050506121d5925003601f1981018352826101d6565b855184529481019486945092810192600101612290565b60405160208160208101936f556c74696d617465446f6d696e696f6e631d18955160e21b0185526040820160208251919201935f5b828110612316575050506121d5925003601f1981018352826101d6565b8551845294810194869450928101926001016122f9565b91908201809211611a0c57565b90610e27949261235561236392608085526080850190610dc7565b908382036020850152610fa4565b9260408201526060818403910152610fa4565b9594936123c26123d5936123b460a096946f456e636f756e746572456e7469747900631d18955160e21b018b5260c060208c015260c08b0190610dc7565b9089820360408b0152610fa4565b9160608801528682036080880152610fa4565b930152565b9594936123c26123d5936123b460a096946f436f6d626174456e636f756e74657200631d18955160e21b018b5260c060208c015260c08b0190610dc7565b909161242f610e2793606084526060840190610dc7565b915f60208201526040818403910152610fa4565b65ffffffffffff612460610e279593606084526060840190610dc7565b931660208201526040818403910152610fa4565b67436f756e7465727360401b631d18955160e21b018152608060208201819052610e279391926124a691840190610dc7565b915f60408201526060818403910152610fa4565b6420b236b4b760591b631d18955160e21b018152608060208201819052610e279391926124a691840190610dc7565b65ffffffffffff612525610e2795936f556c74696d617465446f6d696e696f6e631d18955160e21b018452608060208501526080840190610dc7565b931660408201526060818403910152610fa4565b5f805160206130518339815191528152608060208201819052610e279391926124a691840190610dc7565b65ffffffffffff612525610e2795936f456e636f756e746572456e7469747900631d18955160e21b018452608060208501526080840190610dc7565b909291926125ad826122c4565b6125b5612c97565b905f5b8251811015612642576125d161159d61158f8386610bca565b9060049182808260581c16146125ed575b5060019150016125b8565b60601c803b1561013a57855f9188838c9661261c6040519889968795869463964f667d60e01b865285016124e9565b03925af191821561046457600192156125e2578061045861263c92610172565b5f6125e2565b50949190612698836040976040515f805160206130118339815191526f556c74696d617465446f6d696e696f6e631d18955160e21b019180612686868a8d84612443565b0390a265ffffffffffff851690612ee6565b5f5b8151811015612725576126b361159d61158f8385610bca565b6008808260581c16146126ca575b5060010161269a565b60601c90813b1561013a57875163a8ba872160e01b8152915f9083908183816126f88b8b8e600485016124e9565b03925af191821561046457600192612712575b50906126c1565b8061045861271f92610172565b5f61270b565b50505050509050565b9190612739836121b2565b91612742612ad7565b905f5b82518110156127ce5761275e61159d61158f8386610bca565b9060049182808260581c161461277a575b506001915001612745565b60601c803b1561013a57855f9189836127a8966040519788958694859363964f667d60e01b85528401612539565b03925af1918215610464576001921561276f57806104586127c892610172565b5f61276f565b50929190612811826040946040515f805160206130118339815191526f456e636f756e746572456e7469747900631d18955160e21b019180611c2f868d83612418565b5f5b8151811015611cc35761282c61159d61158f8385610bca565b6008808260581c1614612843575b50600101612813565b60601c90813b1561013a57845163a8ba872160e01b8152915f9083908183816128708a8e60048401612539565b03925af19182156104645760019261288a575b509061283a565b8061045861289792610172565b5f612883565b909291926128aa826121b2565b6128b2612ad7565b905f5b825181101561293f576128ce61159d61158f8386610bca565b9060049182808260581c16146128ea575b5060019150016128b5565b60601c803b1561013a57855f9188838c966129196040519889968795869463964f667d60e01b86528501612564565b03925af191821561046457600192156128df578061045861293992610172565b5f6128df565b50949190612983836040976040515f805160206130118339815191526f456e636f756e746572456e7469747900631d18955160e21b019180612686868a8d84612443565b5f5b81518110156127255761299e61159d61158f8385610bca565b6008808260581c16146129b5575b50600101612985565b60601c90813b1561013a57875163a8ba872160e01b8152915f9083908183816129e38b8b8e60048501612564565b03925af1918215610464576001926129fd575b50906129ac565b80610458612a0a92610172565b5f6129f6565b91908203918211611a0c57565b9064ffffffffff809216918211611a0c57565b909264ffffffffff612a6e610e279694956f456e636f756e746572456e7469747900631d18955160e21b01855260e0602086015260e0850190610dc7565b945f60408501525f606085015216608083015260a082015260c0818403910152610fa4565b909264ffffffffff612ab2610e2796949560c0855260c0850190610dc7565b945f60208501525f6040850152166060830152608082015260a0818403910152610fa4565b612adf610b4e565b80511561046957610e27906f456e636f756e746572456e7469747900631d18955160e21b016020820152604051612b7664ffffffffff612b535f805160206130918339815191526020850185612b35888361209e565b0395612b49601f19978881018352826101d6565b5190201894612dce565b5460381c16916040519260208401948592603f8387010116604052818552612fc6565b60018060801b039051169060801b17612f74565b612b92610b4e565b80511561046957610e27906f436f6d626174456e636f756e74657200631d18955160e21b016020820152604051612b7664ffffffffff612b535f805160206130918339815191526020850185612b35888361209e565b612bf0610b4e565b80511561046957610e279067436f756e7465727360401b631d18955160e21b016020820152604051612b7664ffffffffff612b535f805160206130918339815191526020850185612b35888361209e565b612c49610b4e565b80511561046957610e27906420b236b4b760591b631d18955160e21b016020820152604051612b7664ffffffffff612b535f805160206130918339815191526020850185612b35888361209e565b612c9f610b4e565b80511561046957610e27906f556c74696d617465446f6d696e696f6e631d18955160e21b016020820152604051612b7664ffffffffff612b535f805160206130918339815191526020850185612b35888361209e565b9291925b602090818310612d195784518155930192601f1990910190600101612cf9565b929391905080612d2857505050565b5f199060031b1c90818354169119905116179055565b909392919380612d6d575b50929092602090818310612d195784518155930192601f1990910190600101612cf9565b6020811015612dbe575b8015612d495791939082602003908360031b5f198460031b1c19811c908751901c908019835416911617815581831115611cc357600101940191601f19910101925f612d49565b90601f908260051c019116612d77565b604051612de3816121c760208201948561209e565b5190207f14e2fcc58e58e68ec7edc30c8d50dccc3ce2714a623ec81f46b6a63922d765691890565b604051612de3816121c76020820194856120e9565b604051612de3816121c7602082019485612128565b604051612de3816121c7602082019485612167565b5f8051602061309183398151915290604051612e6e816121c76020820194856120e9565b5190201890565b905f8051602061309183398151915291604051612e9a816121c7602082019485612128565b51902060f89190911b6001600160f81b031916181890565b905f8051602061309183398151915291604051612e9a816121c7602082019485612167565b8151610a8c9260200191612cf5565b8251610a8c93602001929091612d3e565b64ffffffffff808311612f5b5766ffffffffffffff821690603883901c1683818110612f51570301915b64ffffffffff60381b60389190911b1664ffffffffff60381b19929092166001600160601b031991909116171790565b9003900391612f21565b604051637149a3c160e01b815260048101849052602490fd5b8060801c906015809160018060801b031604604051926020906020850160208460051b8701016040528386525f5b848110612fb25750505050505090565b825182529185019190830190600101612fa2565b9291925b602090818310612fea5780548552930192601f1990910190600101612fca565b91905092919280612ffa57505050565b5f199060031b1c9081835116911990541617905256fe8c0b5119d4cec7b284c6b1b39252a03d1e2f2d7451a5895562524c113bb952be86425bff6b57326c7859e89024fe4f238ca327a1ae4a230180dd2f0e88aaa7d974625544000000000000000000000000456e636f756e746572456e74697479008dbb3a9672eebfd3773e72dd9c102393436816d832c7ba9e1e1ac8fcadcac7a93b4102da22e32d82fc925482184f16c09fd4281692720b87d124aef6da48a0f1","linkReferences":{}},"methodIdentifiers":{"_msgSender()":"119df25f","_msgValue()":"45ec9354","_world()":"e1af802c","adminClearEncounterState(bytes32)":"0ede8f81","adminSetCombatEncounter(bytes32,(uint8,uint256,uint256,bool,uint256,uint256,uint256,bool,bytes32[],bytes32[]))":"96daec3d","adminSetEncounterEntity(bytes32,(bytes32,bool,uint256,bytes32[]))":"05ad7522","adminSetPlayerCount(address,uint256)":"41603e0f","getSystemAddress(bytes32)":"23e8492c","setAdmin(address,bool)":"4b0bddd2","setFeePercent(uint256)":"7ce3489b","setFeeRecipient(address)":"e74b981b","setMaxPlayers(uint256)":"288dee3b","supportsInterface(bytes4)":"01ffc9a7"},"id":495}