{"abi":[{"type":"function","name":"_msgSender","inputs":[],"outputs":[{"name":"sender","type":"address","internalType":"address"}],"stateMutability":"view"},{"type":"function","name":"_msgValue","inputs":[],"outputs":[{"name":"value","type":"uint256","internalType":"uint256"}],"stateMutability":"view"},{"type":"function","name":"_world","inputs":[],"outputs":[{"name":"","type":"address","internalType":"address"}],"stateMutability":"view"},{"type":"function","name":"adminApplyStatusEffect","inputs":[{"name":"entityId","type":"bytes32","internalType":"bytes32"},{"name":"statusEffectId","type":"bytes32","internalType":"bytes32"}],"outputs":[],"stateMutability":"nonpayable"},{"type":"function","name":"adminClearEncounterState","inputs":[{"name":"entityId","type":"bytes32","internalType":"bytes32"}],"outputs":[],"stateMutability":"nonpayable"},{"type":"function","name":"adminCreateEffect","inputs":[{"name":"effectType","type":"uint8","internalType":"enum EffectType"},{"name":"name","type":"string","internalType":"string"},{"name":"effectStats","type":"bytes","internalType":"bytes"}],"outputs":[{"name":"","type":"bytes32","internalType":"bytes32"}],"stateMutability":"nonpayable"},{"type":"function","name":"adminCreateItem","inputs":[{"name":"itemType","type":"uint8","internalType":"enum ItemType"},{"name":"supply","type":"uint256","internalType":"uint256"},{"name":"dropChance","type":"uint256","internalType":"uint256"},{"name":"price","type":"uint256","internalType":"uint256"},{"name":"rarity","type":"uint256","internalType":"uint256"},{"name":"stats","type":"bytes","internalType":"bytes"},{"name":"itemMetadataURI","type":"string","internalType":"string"}],"outputs":[{"name":"","type":"uint256","internalType":"uint256"}],"stateMutability":"nonpayable"},{"type":"function","name":"adminCreateItems","inputs":[{"name":"itemTypes","type":"uint8[]","internalType":"enum ItemType[]"},{"name":"supply","type":"uint256[]","internalType":"uint256[]"},{"name":"dropChances","type":"uint256[]","internalType":"uint256[]"},{"name":"prices","type":"uint256[]","internalType":"uint256[]"},{"name":"rarities","type":"uint256[]","internalType":"uint256[]"},{"name":"stats","type":"bytes[]","internalType":"bytes[]"},{"name":"itemMetadataURIs","type":"string[]","internalType":"string[]"}],"outputs":[],"stateMutability":"nonpayable"},{"type":"function","name":"adminCreateMob","inputs":[{"name":"mobType","type":"uint8","internalType":"enum MobType"},{"name":"stats","type":"bytes","internalType":"bytes"},{"name":"mobMetadataUri","type":"string","internalType":"string"}],"outputs":[{"name":"","type":"uint256","internalType":"uint256"}],"stateMutability":"nonpayable"},{"type":"function","name":"adminCreateMobs","inputs":[{"name":"mobTypes","type":"uint8[]","internalType":"enum MobType[]"},{"name":"stats","type":"bytes[]","internalType":"bytes[]"},{"name":"mobMetadataURIs","type":"string[]","internalType":"string[]"}],"outputs":[],"stateMutability":"nonpayable"},{"type":"function","name":"adminDropGold","inputs":[{"name":"characterId","type":"bytes32","internalType":"bytes32"},{"name":"goldAmount","type":"uint256","internalType":"uint256"}],"outputs":[],"stateMutability":"nonpayable"},{"type":"function","name":"adminDropItem","inputs":[{"name":"characterId","type":"bytes32","internalType":"bytes32"},{"name":"itemId","type":"uint256","internalType":"uint256"},{"name":"amount","type":"uint256","internalType":"uint256"}],"outputs":[],"stateMutability":"nonpayable"},{"type":"function","name":"adminMoveEntity","inputs":[{"name":"entityId","type":"bytes32","internalType":"bytes32"},{"name":"x","type":"uint16","internalType":"uint16"},{"name":"y","type":"uint16","internalType":"uint16"}],"outputs":[],"stateMutability":"nonpayable"},{"type":"function","name":"adminRemoveEntity","inputs":[{"name":"entityId","type":"bytes32","internalType":"bytes32"}],"outputs":[],"stateMutability":"nonpayable"},{"type":"function","name":"adminResupplyLootManager","inputs":[{"name":"itemId","type":"uint256","internalType":"uint256"},{"name":"newSupply","type":"uint256","internalType":"uint256"}],"outputs":[],"stateMutability":"nonpayable"},{"type":"function","name":"adminSetCombatEncounter","inputs":[{"name":"encounterId","type":"bytes32","internalType":"bytes32"},{"name":"encounterData","type":"tuple","internalType":"struct CombatEncounterData","components":[{"name":"encounterType","type":"uint8","internalType":"enum EncounterType"},{"name":"start","type":"uint256","internalType":"uint256"},{"name":"end","type":"uint256","internalType":"uint256"},{"name":"rewardsDistributed","type":"bool","internalType":"bool"},{"name":"currentTurn","type":"uint256","internalType":"uint256"},{"name":"currentTurnTimer","type":"uint256","internalType":"uint256"},{"name":"maxTurns","type":"uint256","internalType":"uint256"},{"name":"attackersAreMobs","type":"bool","internalType":"bool"},{"name":"defenders","type":"bytes32[]","internalType":"bytes32[]"},{"name":"attackers","type":"bytes32[]","internalType":"bytes32[]"}]}],"outputs":[],"stateMutability":"nonpayable"},{"type":"function","name":"adminSetEncounterEntity","inputs":[{"name":"entityId","type":"bytes32","internalType":"bytes32"},{"name":"encounterEntityData","type":"tuple","internalType":"struct EncounterEntityData","components":[{"name":"encounterId","type":"bytes32","internalType":"bytes32"},{"name":"died","type":"bool","internalType":"bool"},{"name":"pvpTimer","type":"uint256","internalType":"uint256"},{"name":"appliedStatusEffects","type":"bytes32[]","internalType":"bytes32[]"}]}],"outputs":[],"stateMutability":"nonpayable"},{"type":"function","name":"adminSetStats","inputs":[{"name":"entityId","type":"bytes32","internalType":"bytes32"},{"name":"desiredStats","type":"tuple","internalType":"struct StatsData","components":[{"name":"strength","type":"int256","internalType":"int256"},{"name":"agility","type":"int256","internalType":"int256"},{"name":"class","type":"uint8","internalType":"enum Classes"},{"name":"intelligence","type":"int256","internalType":"int256"},{"name":"maxHp","type":"int256","internalType":"int256"},{"name":"currentHp","type":"int256","internalType":"int256"},{"name":"experience","type":"uint256","internalType":"uint256"},{"name":"level","type":"uint256","internalType":"uint256"},{"name":"powerSource","type":"uint8","internalType":"enum PowerSource"},{"name":"race","type":"uint8","internalType":"enum Race"},{"name":"startingArmor","type":"uint8","internalType":"enum ArmorType"},{"name":"advancedClass","type":"uint8","internalType":"enum AdvancedClass"},{"name":"hasSelectedAdvancedClass","type":"bool","internalType":"bool"}]}],"outputs":[],"stateMutability":"nonpayable"},{"type":"function","name":"getSystemAddress","inputs":[{"name":"systemId","type":"bytes32","internalType":"ResourceId"}],"outputs":[{"name":"","type":"address","internalType":"address"}],"stateMutability":"view"},{"type":"function","name":"setAdmin","inputs":[{"name":"newAdmin","type":"address","internalType":"address"},{"name":"adminState","type":"bool","internalType":"bool"}],"outputs":[],"stateMutability":"nonpayable"},{"type":"function","name":"setMaxPlayers","inputs":[{"name":"newMax","type":"uint256","internalType":"uint256"}],"outputs":[],"stateMutability":"nonpayable"},{"type":"function","name":"supportsInterface","inputs":[{"name":"interfaceId","type":"bytes4","internalType":"bytes4"}],"outputs":[{"name":"","type":"bool","internalType":"bool"}],"stateMutability":"pure"},{"type":"event","name":"Store_SetRecord","inputs":[{"name":"tableId","type":"bytes32","indexed":true,"internalType":"ResourceId"},{"name":"keyTuple","type":"bytes32[]","indexed":false,"internalType":"bytes32[]"},{"name":"staticData","type":"bytes","indexed":false,"internalType":"bytes"},{"name":"encodedLengths","type":"bytes32","indexed":false,"internalType":"EncodedLengths"},{"name":"dynamicData","type":"bytes","indexed":false,"internalType":"bytes"}],"anonymous":false},{"type":"event","name":"Store_SpliceDynamicData","inputs":[{"name":"tableId","type":"bytes32","indexed":true,"internalType":"ResourceId"},{"name":"keyTuple","type":"bytes32[]","indexed":false,"internalType":"bytes32[]"},{"name":"dynamicFieldIndex","type":"uint8","indexed":false,"internalType":"uint8"},{"name":"start","type":"uint48","indexed":false,"internalType":"uint48"},{"name":"deleteCount","type":"uint40","indexed":false,"internalType":"uint40"},{"name":"encodedLengths","type":"bytes32","indexed":false,"internalType":"EncodedLengths"},{"name":"data","type":"bytes","indexed":false,"internalType":"bytes"}],"anonymous":false},{"type":"event","name":"Store_SpliceStaticData","inputs":[{"name":"tableId","type":"bytes32","indexed":true,"internalType":"ResourceId"},{"name":"keyTuple","type":"bytes32[]","indexed":false,"internalType":"bytes32[]"},{"name":"start","type":"uint48","indexed":false,"internalType":"uint48"},{"name":"data","type":"bytes","indexed":false,"internalType":"bytes"}],"anonymous":false},{"type":"error","name":"EncodedLengths_InvalidLength","inputs":[{"name":"length","type":"uint256","internalType":"uint256"}]},{"type":"error","name":"EntityNotAtPosition","inputs":[]},{"type":"error","name":"NotAdmin","inputs":[]},{"type":"error","name":"Slice_OutOfBounds","inputs":[{"name":"data","type":"bytes","internalType":"bytes"},{"name":"start","type":"uint256","internalType":"uint256"},{"name":"end","type":"uint256","internalType":"uint256"}]},{"type":"error","name":"Store_IndexOutOfBounds","inputs":[{"name":"length","type":"uint256","internalType":"uint256"},{"name":"accessedIndex","type":"uint256","internalType":"uint256"}]},{"type":"error","name":"Store_InvalidResourceType","inputs":[{"name":"expected","type":"bytes2","internalType":"bytes2"},{"name":"resourceId","type":"bytes32","internalType":"ResourceId"},{"name":"resourceIdString","type":"string","internalType":"string"}]},{"type":"error","name":"Store_InvalidSplice","inputs":[{"name":"startWithinField","type":"uint40","internalType":"uint40"},{"name":"deleteCount","type":"uint40","internalType":"uint40"},{"name":"fieldLength","type":"uint40","internalType":"uint40"}]}],"bytecode":{"object":"0x60808060405234610017576159e690816200001c8239f35b5f80fdfe60806040526004361015610011575f80fd5b5f3560e01c806301ffc9a71461017457806305ad75221461016f57806307457a8c1461016a5780630ede8f8114610165578063119df25f146101605780631f1300d61461015b57806323e8492c14610156578063288dee3b146101515780632c66b87a1461014c57806345ec9354146101475780634b0bddd2146101425780635adbe5a31461013d57806363054f39146101385780636797b954146101335780636c4291bf1461012e5780638ad57aac14610129578063947ae72e1461012457806396daec3d1461011f578063b508364c1461011a578063b6912bba14610115578063b8b26bb8146101105763e1af802c1461010b575f80fd5b61141c565b6113ac565b611316565b611293565b6111a4565b611100565b610fde565b610f23565b610df3565b610bde565b610a19565b610985565b610966565b6108f6565b6107ef565b6107b2565b610740565b610714565b610661565b610499565b6103da565b346101ca5760203660031901126101ca5760043563ffffffff60e01b81168091036101ca5760209063b5dee12760e01b81149081156101b9575b506040519015158152f35b6301ffc9a760e01b1490505f6101ae565b5f80fd5b634e487b7160e01b5f52604160045260245ffd5b608081019081106001600160401b038211176101fd57604052565b6101ce565b6001600160401b0381116101fd57604052565b60c081019081106001600160401b038211176101fd57604052565b604081019081106001600160401b038211176101fd57604052565b602081019081106001600160401b038211176101fd57604052565b6101c081019081106001600160401b038211176101fd57604052565b60e081019081106001600160401b038211176101fd57604052565b606081019081106001600160401b038211176101fd57604052565b61012081019081106001600160401b038211176101fd57604052565b601f909101601f19168101906001600160401b038211908210176101fd57604052565b604051906101a082016001600160401b038111838210176101fd57604052565b6040519061014082016001600160401b038111838210176101fd57604052565b6024359081151582036101ca57565b6101a4359081151582036101ca57565b359081151582036101ca57565b6001600160401b0381116101fd5760051b60200190565b9080601f830112156101ca57602090823561039481610363565b936103a260405195866102d4565b81855260208086019260051b8201019283116101ca57602001905b8282106103cb575050505090565b813581529083019083016103bd565b346101ca576003196040368201126101ca57602435906001600160401b03908183116101ca5760809083360301126101ca5760405190610419826101e2565b8260040135825261042c60248401610356565b60208301526044830135604083015260648301359081116101ca5761046792600461045a923692010161037a565b6060820152600435611436565b005b9181601f840112156101ca578235916001600160401b0383116101ca576020808501948460051b0101116101ca57565b346101ca576003196060368201126101ca576004906001600160401b0382358181116101ca576104cc9036908501610469565b92906024358381116101ca576104e59036908701610469565b9290936044359081116101ca576104ff9036908801610469565b93909261051261050d611dcf565b611c19565b15610650576001600160a01b03610527612b4b565b1696873b156101ca579795909493929188604051998a98630fe4e8c560e21b8a52606060648b01918b0152526084880196905f5b818110610617575050508287870301602488015280865260208087019660208360051b82010197845f925b8584106105d457505050885f818c8183816105ac8f8f8f8f858403016044860152611526565b03925af180156105cf576105bc57005b806105c961046792610202565b8061070a565b611583565b9193869b50806106006001939597999a9b9c6105fa839a601f19888403018a52886114f4565b906114d4565b9c0194019401918c9a999897969491959395610586565b919398509193949596600190843561062e81610ebb565b610637816114c5565b8152602080910194019101918a9893979695949261055b565b604051637bfa4b9f60e01b81528890fd5b346101ca5760203660031901126101ca5760043561068061050d611dcf565b156106f85761068d611be4565b8051156106f357808260206106ba930152604051905f6020830152602082526106b582610230565b6127d9565b6106c2611be4565b908151156106f3576106e5828260206104679501526106df6128f5565b906129d2565b6106ee81611c47565b611d1b565b61162f565b604051637bfa4b9f60e01b8152600490fd5b5f9103126101ca57565b346101ca575f3660031901126101ca57602061072e611dcf565b6040516001600160a01b039091168152f35b346101ca575f60203660031901126101ca5761075d61050d611dcf565b156106f8576001600160a01b03610772612b4b565b16803b156101ca575f809160246040518094819363f547ccbd60e01b835260043560048401525af180156105cf576107a8575080f35b6104679150610202565b346101ca5760203660031901126101ca576107cb611be4565b8051156106f3576107e4602091600435838201526124e0565b60601c604051908152f35b346101ca576003196020368201126101ca5761080c61050d611dcf565b156106f85760405161081d8161024b565b5f81526040519060043560208301526020825261083982610230565b6001600160a01b03610849612b4b565b1630810361085c5750610467925061358c565b809291923b156101ca576040516301c85d5760e51b81526f556c74696d617465446f6d696e696f6e631d18955160e21b01600482015260a06024820152935f9385938492869284926108cd92916108b79060a48601906124ad565b9160086044860152848303016064850152611896565b6f45434000450505050505050805080805607a1b608483015203925af180156105cf576105bc57005b346101ca575f60403660031901126101ca5761091361050d611dcf565b156106f8576001600160a01b03610928612b4b565b16803b156101ca575f8091604460405180948193636b692cff60e01b8352600435600484015260243560248401525af180156105cf576107a8575080f35b346101ca575f3660031901126101ca576020604051601f193601358152f35b346101ca5760403660031901126101ca576004356001600160a01b038116908190036101ca576109b3610337565b6109be61050d611dcf565b156106f8576109cb611be4565b8051156106f357610a086109fa9261046794602084015260405193849160208301600191151560f81b81520190565b03601f1981018452836102d4565b612862565b61ffff8116036101ca57565b346101ca5760603660031901126101ca57602435600435610a3982610a0d565b60443590610a4682610a0d565b610a5161050d611dcf565b156106f857610a70610a64610a64612b4b565b6001600160a01b031690565b916040938480518095638b4ce3e560e01b82528180610a9788600483019190602083019252565b03915afa80156105cf575f945f91610bab575b50610ab9610a64610a64612b4b565b865163d0f8a4f560e01b815261ffff87811660048301528316602482015291905f90839060449082905afa9182156105cf575f92610b87575b505f955f5b8351811015610b7b5786610b0b8286611650565b5114610b1f57610b1a906116a7565b610af7565b610b50939495969750610b4b90610b42600196610b3c8151611678565b90611650565b51908484611de6565b611ecf565b15610b6a576104679350610b65828285611f81565b612067565b8351632f43d24d60e21b8152600490fd5b50505050909192610b50565b610ba49192503d805f833e610b9c81836102d4565b8101906115b6565b905f610af2565b9050610bce919450853d8711610bd7575b610bc681836102d4565b81019061158e565b9390935f610aaa565b503d610bbc565b346101ca575f60603660031901126101ca57610bfb61050d611dcf565b156106f8576001600160a01b03610c10612b4b565b16803b156101ca575f80916064604051809481936366ce565160e11b83526004356004840152602435602484015260443560448401525af180156105cf576107a8575080f35b9080601f830112156101ca576020908235610c7081610363565b93610c7e60405195866102d4565b81855260208086019260051b8201019283116101ca57602001905b828210610ca7575050505090565b813560068110156101ca578152908301908301610c99565b9080601f830112156101ca576020908235610cd981610363565b93610ce760405195866102d4565b81855260208086019260051b8201019283116101ca57602001905b828210610d10575050505090565b81358152908301908301610d02565b81601f820112156101ca578035906001600160401b0382116101fd5760405192610d53601f8401601f1916602001856102d4565b828452602083830101116101ca57815f926020809301838601378301015290565b81601f820112156101ca57803591602091610d8e84610363565b93610d9c60405195866102d4565b808552838086019160051b830101928084116101ca57848301915b848310610dc75750505050505090565b82356001600160401b0381116101ca578691610de884848094890101610d1f565b815201920191610db7565b346101ca5760e03660031901126101ca5760046001600160401b0381358181116101ca57610e249036908401610c56565b906024358181116101ca57610e3c9036908501610cbf565b6044358281116101ca57610e539036908601610cbf565b6064358381116101ca57610e6a9036908701610cbf565b906084358481116101ca57610e829036908801610cbf565b9260a4358581116101ca57610e9a9036908901610d74565b9460c4359081116101ca5761046797610eb591369101610d74565b956116b5565b600311156101ca57565b60643590610ed282610ebb565b565b3590610ed282610ebb565b600411156101ca57565b6101243590610ed282610edf565b6101443590610ed282610edf565b6101643590610ed282610edf565b6101843590600a8210156101ca57565b346101ca576101c03660031901126101ca576101a03660231901126101ca57610467610f4d6102f7565b60243581526044356020820152610f62610ec5565b6040820152608435606082015260a435608082015260c43560a082015260e43560c08201526101043560e0820152610f98610ee9565b610100820152610fa6610ef7565b610120820152610fb4610f05565b610140820152610fc2610f13565b610160820152610fd0610346565b610180820152600435611917565b346101ca576003196060368201126101ca57600435610ffc81610edf565b6001600160401b03906024358281116101ca5761101d903690600401610d1f565b916044359081116101ca57611036903690600401610d1f565b9261104261050d611dcf565b156106f857602092611098925f906110a76001600160a01b03611063612b4b565b1694604051988997889687956383bc449360e01b875261108281611a0d565b6004870152606060248701526064860190611896565b91848303016044850152611896565b03925af180156105cf576110cd915f916110d1575b506040519081529081906020820190565b0390f35b6110f3915060203d6020116110f9575b6110eb81836102d4565b810190611a38565b5f6110bc565b503d6110e1565b346101ca576003196060368201126101ca5760043561111e81610ebb565b6001600160401b03906024358281116101ca5761113f903690600401610d1f565b916044359081116101ca57611158903690600401610d1f565b9261116461050d611dcf565b156106f857602092611098925f906110a76001600160a01b03611185612b4b565b169460405198899788968795638cc68cc760e01b8752611082816114c5565b346101ca576003196040368201126101ca57602435906001600160401b03908183116101ca576101409083360301126101ca576111df610317565b906111ec83600401610ed4565b8252602483013560208301526044830135604083015261120e60648401610356565b60608301526084830135608083015260a483013560a083015260c483013560c083015261123d60e48401610356565b60e08301526101048301358181116101ca5761125f906004369186010161037a565b6101008301526101248301359081116101ca57610467926004611285923692010161037a565b610120820152600435611a47565b346101ca5760e03660031901126101ca5760043560068110156101ca576001600160401b0360a4358181116101ca576112d0903690600401610d1f565b9160c4359182116101ca576110cd926112f0611306933690600401610d1f565b9160843590606435906044359060243590611b28565b6040519081529081906020820190565b346101ca5760403660031901126101ca5761133261050d611dcf565b156106f8575f60c06001600160a01b0361134a612b4b565b16604460405180948193632b549aa160e11b8352600435600484015260243560248401525af180156105cf5761137c57005b60c090813d83116113a5575b61139281836102d4565b810103126101ca57610467604051610215565b503d611388565b346101ca575f60403660031901126101ca576113c961050d611dcf565b156106f8576001600160a01b036113de612b4b565b16803b156101ca575f8091604460405180948193635e78114d60e11b8352600435600484015260243560248401525af180156105cf576107a8575080f35b346101ca575f3660031901126101ca57602061072e612b4b565b9061144261050d611dcf565b156106f857610ed29160608251926020810151151560408201519060405195602087015260f81b6040860152604185015260418452611480846101e2565b01519161148e835193612600565b92611497611be4565b926114a184611643565b5280603d1b9060051b1791612632565b634e487b7160e01b5f52602160045260245ffd5b600311156114cf57565b6114b1565b908060209392818452848401375f828201840152601f01601f1916010190565b9035601e19823603018112156101ca570160208101919035906001600160401b0382116101ca5781360383136101ca57565b908281815260208091019360208360051b82010194845f925b858410611550575050505050505090565b909192939495968580611572600193601f198682030188526105fa8c886114f4565b99019401940192959493919061153f565b6040513d5f823e3d90fd5b91908260409103126101ca57602082516115a781610a0d565b9201516115b381610a0d565b90565b60209081818403126101ca578051906001600160401b0382116101ca57019180601f840112156101ca5782516115eb81610363565b936115f960405195866102d4565b818552838086019260051b8201019283116101ca578301905b828210611620575050505090565b81518152908301908301611612565b634e487b7160e01b5f52603260045260245ffd5b8051156106f35760200190565b80518210156106f35760209160051b010190565b634e487b7160e01b5f52601160045260245ffd5b5f1981019190821161168657565b611664565b601f1981019190821161168657565b9190820391821161168657565b5f1981146116865760010190565b9492909593916116c661050d611dcf565b156106f8576001600160a01b036116db612b4b565b1695863b156101ca579593916040979593919751978896636c6f2dcd60e01b885260e488019060e060048a015289518092526101048901916020809b01905f5b8181106117c6575050505f995089956117898a9893966117796117a8976117696024986117598e9c611799998e6003199d8e82850301910152611805565b8c81038b0160448e015290611805565b90888b83030160648c0152611805565b90868983030160848a0152611805565b90848783030160a48801526118bb565b918483030160c48501526118bb565b03925af180156105cf576117b95750565b806105c9610ed292610202565b919597999b80809496989a9c50856117e2600194978a516117f8565b0196019101928c9a989694929b9997959361171b565b9060068210156114cf5752565b9081518082526020808093019301915f5b828110611824575050505090565b835185529381019392810192600101611816565b5f5b8381106118495750505f910152565b818101518382015260200161183a565b90606051918281525f5b8381106118825750825f602080949584010152601f8019910116010190565b806020916080015182828501015201611863565b906020916118af81518092818552858086019101611838565b601f01601f1916010190565b90808251908181526020809101926020808460051b8301019501935f915b8483106118e95750505050505090565b9091929394958480611907600193601f198682030187528a51611896565b98019301930191949392906118d9565b9061192361050d611dcf565b156106f857610ed2916119fb604051835160208201526020840151604082015261195560408501516060830190611a00565b60608401516080820152608084015160a082015260a084015160c082015260c084015160e082015260e0840151610100908183015284015161199d6101209182840190611a17565b8401516119b06101409182840190611a17565b8401516119c36101609182840190611a17565b8401516119d66101809182840190611a2b565b8401516119ea6101a0918284019015159052565b81526119f581610266565b8261237a565b612409565b90611a0a826114c5565b52565b600411156114cf57565b90611a0a82611a0d565b600a11156114cf57565b90600a8210156114cf5752565b908160209103126101ca575190565b611a5261050d611dcf565b156106f85781610ed29251611a66816114c5565b6020820151604083015160608401511515608085015160a08601519160c08701519360e088015115159560405197611a9d816114c5565b60f81b60208901526021880152604187015260f81b60618601526062850152608284015260a283015260f81b60c282015260a38152611adb81610282565b611b0f610120610100840151930151611b0981855190518060651b9180603d1b9160051b9060051b01171790565b93612afb565b92611b18611be4565b90611b2282611643565b526126dc565b959195939093611b3961050d611dcf565b156106f857602095611b7f935f93611bb692611ba4916001600160a01b03611b5f612b4b565b16986040519c8d9b8c9a8b9963656aeb0560e11b8b5260048b01906117f8565b602489015260448801526064870152608486015260e060a486015260e4850190611896565b8381036003190160c485015290611896565b03925af19081156105cf575f91611bcb575090565b6115b3915060203d6020116110f9576110eb81836102d4565b60405190611bf182610230565b6001825260203681840137565b60405190611c0b8261029d565b600282526040366020840137565b611c21611be4565b8051156106f3576001600160a01b039091166020820152611c4190612573565b60f81c90565b611c4f611be4565b908151156106f35760208201526040515f602082015260208152611c7281610230565b6001600160a01b03611c82612b4b565b1691308303611c9557610ed292506134f8565b90823b156101ca576040516301c85d5760e51b81525f80516020615966833981519152600482015260a06024820152925f928492839185918391611cfb9190611ce29060a48501906124ad565b6002604485015283810360031901606485015290611896565b6502081809000960cd1b608483015203925af180156105cf576117b95750565b611d23611be4565b908151156106f35760208201526040515f602082015260018152611d4681610230565b6001600160a01b03611d56612b4b565b1691308303611d6957610ed29250613542565b90823b156101ca576040516301c85d5760e51b81525f80516020615966833981519152600482015260a06024820152925f928492839185918391611cfb9190611db69060a48501906124ad565b6001604485015283810360031901606485015290611896565b36603319013560601c908115611de157565b339150565b92919092611df2611bfe565b9361ffff918551156106f357821660208601528451600110156106f35716604084015260405191602083015260208252611e2b82610230565b815164ffffffffff9081169160051b166001600160a01b03611e4b612b4b565b16308103611e5d5750610ed293613d45565b909293813b156101ca5760405163605144ad60e11b81525f805160206159c6833981519152600482015260c06024820152945f9486948593879385936117a8939092611ead9060c48701906124ad565b92866044870152606486015260848501526003198483030160a4850152611896565b611ed7611bfe565b9161ffff918351156106f357821660208401528251600110156106f3571660408201526001600160a01b03611f0a612b4b565b16308103611f1c5750610ed290613f9c565b803b156101ca576040516336700e8160e21b81525f805160206159c6833981519152600482015260806024820152915f918391829084908290611f639060848301906124ad565b8260448301526020606483015203925af180156105cf576117b95750565b906040519261ffff60f01b809260f01b16602085015260f01b16602283015260048252611fad82610230565b611fb5611be4565b908151156106f35760208201526001600160a01b03611fd2612b4b565b16308103611fe5575090610ed291612c5d565b90813b156101ca5760405163298314fb60e01b8152672837b9b4ba34b7b760411b631d18955160e21b01600482015260a06024820152925f92849290918391859183916117a891906120529061203f9060a48601906124ad565b6003199283868303016044870152611896565b90846064850152838203016084840152611859565b929091612072611bfe565b61ffff938151156106f35784602096166020830152815194600195600110156106f35760409116818301528051926020840152602083526120b283610230565b6001600160a01b036120c2612b4b565b1630810361233257506120d4826153c0565b549064ffffffffff8260381c166120ec855182614599565b9781891415938480612313575b6122e45761210b899a829a999a61577f565b94612114614f58565b915f9b5b612247575b5088999a50865f8051602061590683398151915286518061215b8c8b8a6f456e7469746965734174506f73697469631d18955160e21b019785614df0565b0390a2612237575b612176878461217189615468565b61576e565b5f975b612189575b505050505050505050565b805188101561223257876121bf6121b26121a48c9b85611650565b516001600160581b03191690565b6001600160581b03191690565b83808260581c16146121d5575b50880197612179565b60601c9850883b156101ca578451636358453360e01b81529889806122008b8a898d60048601614bfd565b03815a5f948591f19081156105cf578a998a9261221f575b50906121cc565b806105c961222c92610202565b5f612218565b61217e565b84612241876153c0565b55612163565b829a999a518c10156122dc578b6122686121b26121a48e9f9d9e9d87611650565b6010808260581c161461227f575b508a019b612118565b60601c9a508a3b156101ca578651630abd6b4560e31b81529a8b806122aa8d868b8f60048601614bfd565b03815a5f948591f19081156105cf578d9b8c926122c9575b5090612276565b806105c96122d692610202565b5f6122c2565b99989961211d565b8351632994042d60e21b815264ffffffffff8416600482018190525f60248301526044820152606490fd5b0390fd5b508261232b61232182614b86565b64ffffffffff1690565b14156120f9565b919450929450803b156101ca57612360935f809451809681958294630a87993160e11b845260048401612993565b03925af180156105cf576123715750565b610ed290610202565b90612383611be4565b918251156106f35760208301526001600160a01b036123a0612b4b565b16913083036123b357610ed292506138e0565b90823b156101ca576040516377b7543160e11b8152694368617261637465727360301b631d18955160e21b01600482015260806024820152925f9284928391859183916123609190611db69060848501906124ad565b612494610ed29261248781519160208101516040820151612429816114c5565b6060830151608084015160a085015160c08601519160e0870151936101008801519561245487611a0d565b6101208901519761246489611a0d565b61248e6101806101408c01519b61247a8d611a0d565b6101608101519d8e611a21565b0151151590565b9b612a63565b9061249d611be4565b906124a782611643565b5261275f565b9081518082526020808093019301915f5b8281106124cc575050505090565b8351855293810193928101926001016124be565b6001600160a01b036124f0612b4b565b1630810361250257506115b390612b80565b604051638c364d5960e01b81526653797374656d7360481b661d189ddbdc9b1960ca1b016004820152608060248201529160209183918290819061254a9060848301906124ad565b5f604483015264150200140160d01b606483015203915afa9081156105cf575f91611bcb575090565b6001600160a01b03612583612b4b565b1630810361259557506115b390612bfc565b604051638c364d5960e01b81526420b236b4b760591b631d18955160e21b01600482015260806024820152916020918391829081906125d89060848301906124ad565b5f6044830152630101000160d81b606483015203915afa9081156105cf575f91611bcb575090565b61260990612944565b6115b36020604051836126258295518092858086019101611838565b81010380845201826102d4565b909291906001600160a01b03612646612b4b565b16308103612659575092610ed293612e72565b909192813b156101ca575f6126c8936117a882966126b594604051998a988997889663298314fb60e01b88526f456e636f756e746572456e7469747900631d18955160e21b01600489015260a0602489015260a48801906124ad565b6003199283888303016044890152611896565b926064860152848303016084850152611896565b909291906001600160a01b036126f0612b4b565b16308103612703575092610ed2936130c9565b909192813b156101ca575f6126c8936117a882966126b594604051998a988997889663298314fb60e01b88526f436f6d626174456e636f756e74657200631d18955160e21b01600489015260a0602489015260a48801906124ad565b6001600160a01b0361276f612b4b565b16308103612782575090610ed291613300565b90813b156101ca5760405163298314fb60e01b815264537461747360581b631d18955160e21b01600482015260a06024820152925f92849290918391859183916117a891906120529061203f9060a48601906124ad565b906001600160a01b036127ea612b4b565b16913083036127fd57610ed2925061488a565b90823b156101ca576040516301c85d5760e51b81525f80516020615966833981519152600482015260a06024820152925f928492839185918391611cfb919061284a9060a48501906124ad565b90846044850152600319848303016064850152611896565b906001600160a01b03612873612b4b565b169130830361288657610ed2925061374f565b90823b156101ca576040516301c85d5760e51b81526420b236b4b760591b631d18955160e21b01600482015260a06024820152925f9284928391859183916128d7919061284a9060a48501906124ad565b630101000160d81b608483015203925af180156105cf576117b95750565b606051612901816138ca565b604051916020916020840190601f19603f828701011660405284525f6080905b83811061293057505050505090565b815183529184019190840190600101612921565b805190612950826138ca565b60408051808301603f01601f1916909152908152916020918284019083015f5b83811061297f57505050505090565b815183529184019190840190600101612970565b5f805160206159c683398151915281526080602082018190526115b39391926129be918401906124ad565b915f60408201526060818403910152611896565b906001600160a01b036129e3612b4b565b16913083036129f657610ed29250613b39565b90823b156101ca576040516377b7543160e11b81525f80516020615966833981519152600482015260806024820152925f928492839185918391612360919061284a9060848501906124ad565b612a4c81611a0d565b60f81b9052565b600a8110156114cf5760f81b9052565b9b9a999897969594939291906040519c60208e015260408d0152612a86816114c5565b60f81b60608c015260618b015260818a015260a189015260c188015260e1870152612ab081611a0d565b60f81b6101018601526101028501612ac791612a43565b6101038401612ad591612a43565b6101048301612ae391612a53565b151560f81b61010582015260e681526115b3816102b8565b6020612b12612b0c6115b393612944565b93612944565b926040519381612b2b8693518092868087019101611838565b8201612b3f82518093868085019101611838565b010380845201826102d4565b7f629a4c26e296b22a8e0856e9f6ecb2d1008d7e00081111962cd175fa7488e175546001600160a01b0316806115b357503390565b60405160208160208101936653797374656d7360481b661d189ddbdc9b1960ca1b0185526040820160208251919201935f5b828110612be557505050612bcf925003601f1981018352826102d4565b5190205f80516020615946833981519152185490565b855184529481019486945092810192600101612bb2565b60405160208160208101936420b236b4b760591b631d18955160e21b0185526040820160208251919201935f5b828110612c4657505050612bcf925003601f1981018352826102d4565b855184529481019486945092810192600101612c29565b60408051655461626c657360501b66746273746f726560c81b0160208201908152672837b9b4ba34b7b760411b631d18955160e21b018284018190528383529295929491612caa8161029d565b5190205f80516020615946833981519152185491612cc66150c4565b905f5b8251811015612d5457612ce26121b26121a48386611650565b6001808260581c1614612cf9575b50600101612cc9565b60601c90813b156101ca5788516315c19b2760e21b8152915f908390818381612d278c8c8f60048501614610565b03925af19182156105cf57600192612d41575b5090612cf0565b806105c9612d4e92610202565b5f612d3a565b50945f80516020615986833981519152875180612d728689836145a6565b0390a2612d8d612d8185614458565b835160208501916152d0565b60ff808460e01c1680612e33575b50505f5b8151811015612e2a57612db86121b26121a48385611650565b6002808260581c1614612dcf575b50600101612d9f565b60601c90813b156101ca578751635b28cdaf60e01b8152915f908390818381612dfd8b8b8e60048501614610565b03925af19182156105cf57600192612e17575b5090612dc6565b806105c9612e2492610202565b5f612e10565b50505050509050565b5f612e3d87615414565b555f60805b8284831610612e52575050612d9b565b600181612e698693612e64868d615512565b615285565b92011690612e42565b60408051655461626c657360501b66746273746f726560c81b01602082019081525f8051602061596683398151915282840181905283835296979295949291612eba8161029d565b5190205f80516020615946833981519152185490612ed6615066565b905f5b8251811015612f6957612ef26121b26121a48386611650565b6001808260581c1614612f09575b50600101612ed9565b60601c90813b156101ca575f888c9388838b612f3c8f8c9051998a97889687956315c19b2760e21b875260048701614672565b03925af19182156105cf57600192612f56575b5090612f00565b806105c9612f6392610202565b5f612f4f565b50965f80516020615986833981519152875180612f898c8a898b856145e2565b0390a2612fa4612f9885614490565b845160208601916152d0565b60ff808360e01c1680613050575b50505f5b815181101561304557612fcf6121b26121a48385611650565b6002808260581c1614612fe6575b50600101612fb6565b60601c90813b156101ca575f878b9387838a6130188a8f51998a9788968795635b28cdaf60e01b875260048701614672565b03925af19182156105cf57600192613032575b5090612fdd565b806105c961303f92610202565b5f61302b565b505050505050509050565b9690989295949385613064869a949a615429565b555f96602085015b8b8916908a8210156130b6576130ad8d92826130a860019464ffffffffff8f8f908f906130989161559d565b956028026038011c1680946152d0565b614599565b9901169761306c565b5050939950939495509550955f80612fb2565b60408051655461626c657360501b66746273746f726560c81b01602082019081526f436f6d626174456e636f756e74657200631d18955160e21b018284018190528383529697929594929161311d8161029d565b5190205f8051602061594683398151915218549061313961511d565b905f5b82518110156131cc576131556121b26121a48386611650565b6001808260581c161461316c575b5060010161313c565b60601c90813b156101ca575f888c9388838b61319f8f8c9051998a97889687956315c19b2760e21b8752600487016146d1565b03925af19182156105cf576001926131b9575b5090613163565b806105c96131c692610202565b5f6131b2565b50965f805160206159868339815191528751806131ec8c8a898b856145e2565b0390a26131fb612f98856144a5565b60ff808360e01c168061329c575b50505f5b8151811015613045576132266121b26121a48385611650565b6002808260581c161461323d575b5060010161320d565b60601c90813b156101ca575f878b9387838a61326f8a8f51998a9788968795635b28cdaf60e01b8752600487016146d1565b03925af19182156105cf57600192613289575b5090613234565b806105c961329692610202565b5f613282565b96909892959493856132b0869a949a61543e565b555f96602085015b8b8916908a8210156132ed576132e48d92826130a860019464ffffffffff8f8f908f9061309891615609565b990116976132b8565b5050939950939495509550955f80613209565b60408051655461626c657360501b66746273746f726560c81b016020820190815264537461747360581b631d18955160e21b01828401819052838352929592949161334a8161029d565b5190205f8051602061594683398151915218549161336661517b565b905f5b82518110156133f4576133826121b26121a48386611650565b6001808260581c1614613399575b50600101613369565b60601c90813b156101ca5788516315c19b2760e21b8152915f9083908183816133c78c8c8f6004850161470f565b03925af19182156105cf576001926133e1575b5090613390565b806105c96133ee92610202565b5f6133da565b50945f805160206159868339815191528751806134128689836145a6565b0390a2613421612d81856144ba565b60ff808460e01c16806134be575b50505f5b8151811015612e2a5761344c6121b26121a48385611650565b6002808260581c1614613463575b50600101613433565b60601c90813b156101ca578751635b28cdaf60e01b8152915f9083908183816134918b8b8e6004850161470f565b03925af19182156105cf576001926134ab575b509061345a565b806105c96134b892610202565b5f6134a4565b5f6134c887615453565b555f60805b82848316106134dd57505061342f565b6001816134ef8693612e64868d615681565b920116906134cd565b91905f925f5b6002811061351a575065ffffffffffff610ed293941690614a01565b9360ff6502081809000960cd1b86601b0360031b1c16810180911161168657936001016134fe565b91905f925f5b60018110613564575065ffffffffffff610ed293941690614a01565b9360ff6502081809000960cd1b86601b0360031b1c1681018091116116865793600101613548565b9190915f805b6008821061371c5765ffffffffffff9150166135ad826144cf565b6135b56151d1565b905f5b8251811015613642576135d16121b26121a48386611650565b9060049182808260581c16146135ed575b5060019150016135b8565b60601c803b156101ca57855f9188838c9661361c6040519889968795869463964f667d60e01b865285016147a4565b03925af19182156105cf57600192156135e257806105c961363c92610202565b5f6135e2565b5094919061368f8383604098875f805160206159268339815191526040518061368787876f556c74696d617465446f6d696e696f6e631d18955160e21b019684614773565b0390a261576e565b5f5b8151811015612e2a576136aa6121b26121a48385611650565b6008808260581c16146136c1575b50600101613691565b60601c90813b156101ca57875163a8ba872160e01b8152915f9083908183816136ef8b8b8e600485016147a4565b03925af19182156105cf57600192613709575b50906136b8565b806105c961371692610202565b5f613702565b60ff6f45434000450505050505050805080805607a1b83601b0360031b1c16810180911161168657600190910190613592565b919061375a83614538565b9161376361522f565b905f5b82518110156137ef5761377f6121b26121a48386611650565b9060049182808260581c161461379b575b506001915001613766565b60601c803b156101ca57855f9189836137c9966040519788958694859363964f667d60e01b855284016147f4565b03925af19182156105cf576001921561379057806105c96137e992610202565b5f613790565b50604080519194909392916138369184916420b236b4b760591b631d18955160e21b01905f80516020615926833981519152908061382e868d83614748565b0390a2615700565b5f5b81518110156138c2576138516121b26121a48385611650565b6008808260581c1614613868575b50600101613838565b60601c90813b156101ca57845163a8ba872160e01b8152915f9083908183816138958a8e600484016147f4565b03925af19182156105cf576001926138af575b509061385f565b806105c96138bc92610202565b5f6138a8565b505050509050565b908160051b918083046020149015171561168657565b9190916138ec816153d5565b5464ffffffffff926060848360601c169161391261390a848061169a565b885190614599565b8381141596908780613b24575b613b085761392d90866157fc565b9661393661500b565b925f5b84518110156139c7576139526121b26121a48388611650565b6010808260581c1614613969575b50600101613939565b861c90813b156101ca575f898d938a838e61399a60405198899687958694630abd6b4560e31b865260048601614c60565b03925af19182156105cf576001926139b4575b5090613960565b806105c96139c192610202565b5f6139ad565b509298939790949691965f985f995b60ff8b1660018110156139fd5760ff918b8b6001936028026038011c16019b0116996139d6565b509692975093985093989196506040945f805160206159068339815191528589613a4f8d8b60405194859465ffffffffffff694368617261637465727360301b631d18955160e21b0199169086614e35565b0390a2613af8575b613a6988613a6488615493565b6156f1565b5f5b815181101561304557613a846121b26121a48385611650565b6020808260581c1614613a9b575b50600101613a6b565b831c90813b156101ca575f878b9387838c613acb8c5198899687958694636358453360e01b865260048601614c60565b03925af19182156105cf57600192613ae5575b5090613a92565b806105c9613af292610202565b5f613ade565b84613b02876153d5565b55613a57565b604051632994042d60e21b81528061230f878060048401614bc8565b5084613b3261232182614b86565b141561391f565b919091613b45816153ea565b5464ffffffffff8160381c16613b66613b5e828061169a565b865190614599565b8181141594908580613d30575b613d1457613b81908461577f565b90613b8a615066565b915f5b8351811015613c1c57613ba66121b26121a48387611650565b6010808260581c1614613bbd575b50600101613b8d565b60601c90813b156101ca575f878b9388838c613bef60405198899687958694630abd6b4560e31b865260048601614cc4565b03925af19182156105cf57600192613c09575b5090613bb4565b806105c9613c1692610202565b5f613c02565b506040805192979195509392915f80516020615966833981519152905f805160206159068339815191529080613c558c8a898d85614e82565b0390a2613d04575b613c6a87613a64876154ca565b5f5b8151811015613cfa57613c856121b26121a48385611650565b6020808260581c1614613c9c575b50600101613c6c565b60601c90813b156101ca575f868a9386838b613ccd8b5198899687958694636358453360e01b865260048601614cc4565b03925af19182156105cf57600192613ce7575b5090613c93565b806105c9613cf492610202565b5f613ce0565b5050505050509050565b83613d0e866153ea565b55613c5d565b604051632994042d60e21b81528061230f858060048401614bc8565b5082613d3e61232182614b86565b1415613b73565b91909392613d52836153ff565b549464ffffffffff808760381c1695613d78613d708387168961169a565b855190614599565b87811415928380613f86575b613f5757841697808911613f385750613d9d908961577f565b90613da6614f58565b925f5b8451811015613e3957613dc26121b26121a48388611650565b6010808260581c1614613dd9575b50600101613da9565b60601c90813b156101ca575f898d9389838e613e0c8e604051998a9788968795630abd6b4560e31b875260048701614d27565b03925af19182156105cf57600192613e26575b5090613dd0565b806105c9613e3392610202565b5f613e1f565b5096948093929950613e979198604098875f805160206159068339815191528d8b613e8687604051938493896f456e7469746965734174506f73697469631d18955160e21b019886614ec6565b0390a2613f28575b612171876154ee565b5f5b815181101561304557613eb26121b26121a48385611650565b6020808260581c1614613ec9575b50600101613e99565b60601c90813b156101ca575f878b9387838a613efb8a8f51998a9788968795636358453360e01b875260048701614d27565b03925af19182156105cf57600192613f15575b5090613ec0565b806105c9613f2292610202565b5f613f0e565b8a613f32886153ff565b55613e8e565b604051637e8578d360e01b815290819061230f90879060048401614be6565b604051632994042d60e21b815264ffffffffff868116600483015288811660248301528a166044820152606490fd5b5088613f956123218988614baf565b1415613d84565b613fa5816153c0565b549064ffffffffff91828160381c1692601f1984018481116116865716604090815195613fd18761024b565b5f87525f368137613fe461390a8761168b565b868114159687806141e0575b6141b1578084116141935750614006908561577f565b9061400f614f58565b915f5b83518110156140a05761402b6121b26121a48387611650565b6010808260581c1614614042575b50600101614012565b60601c90813b156101ca575f888c9388838d6140738d5198899687958694630abd6b4560e31b865260048601614d8c565b03925af19182156105cf5760019261408d575b5090614039565b806105c961409a92610202565b5f614086565b5094509583515f805160206159068339815191526f456e7469746965734174506f73697469631d18955160e21b0191806140dd8c8a898d85614f12565b0390a2614183575b6140f38783612171886154ee565b5f5b8151811015613cfa5761410e6121b26121a48385611650565b6020808260581c1614614125575b506001016140f5565b60601c90813b156101ca575f868a9386838b6141568b5198899687958694636358453360e01b865260048601614d8c565b03925af19182156105cf57600192614170575b509061411c565b806105c961417d92610202565b5f614169565b8361418d866153ff565b556140e5565b8451637e8578d360e01b815290819061230f90869060048401614be6565b8451632994042d60e21b815264ffffffffff858116600483015260206024830152919091166044820152606490fd5b50806141ee61232186614b99565b1415613ff0565b6953746f7265486f6f6b7360301b66746273746f726560c81b01815281516020918201928201915f5b82811061422c575050505090565b83518552938101939281019260010161421e565b5f805160206159c6833981519152815281516020918201928201915f5b82811061426b575050505090565b83518552938101939281019260010161425d565b694368617261637465727360301b631d18955160e21b01815281516020918201928201915f5b8281106142b3575050505090565b8351855293810193928101926001016142a5565b5f80516020615966833981519152815281516020918201928201915f5b8281106142f2575050505090565b8351855293810193928101926001016142e4565b5f805160206159c6833981519152815281516020918201928201915f5b828110614331575050505090565b835185529381019392810192600101614323565b672837b9b4ba34b7b760411b631d18955160e21b01815281516020918201928201915f5b828110614377575050505090565b835185529381019392810192600101614369565b5f80516020615966833981519152815281516020918201928201915f5b8281106143b6575050505090565b8351855293810193928101926001016143a8565b6f436f6d626174456e636f756e74657200631d18955160e21b01815281516020918201928201915f5b828110614401575050505090565b8351855293810193928101926001016143f3565b64537461747360581b631d18955160e21b01815281516020918201928201915f5b828110614444575050505090565b835185529381019392810192600101614436565b60405161447b8161446d602082019485614345565b03601f1981018352826102d4565b5190205f805160206159468339815191521890565b60405161447b8161446d60208201948561438b565b60405161447b8161446d6020820194856143ca565b60405161447b8161446d602082019485614415565b60405160208160208101936f556c74696d617465446f6d696e696f6e631d18955160e21b0185526040820160208251919201935f5b8281106145215750505061447b925003601f1981018352826102d4565b855184529481019486945092810192600101614504565b60405160208160208101936420b236b4b760591b631d18955160e21b0185526040820160208251919201935f5b8281106145825750505061447b925003601f1981018352826102d4565b855184529481019486945092810192600101614565565b9190820180921161168657565b906115b3926145c06145ce926080855260808501906124ad565b908382036020850152611896565b905f60408201526060818303910152611859565b906115b394926145c06145fd926080855260808501906124ad565b9260408201526060818403910152611896565b672837b9b4ba34b7b760411b631d18955160e21b01815260c0602082018190529094939260a09261466d9261465a929161464c918901906124ad565b908782036040890152611896565b5f60608701528581036080870152611859565b930152565b9594936146be61466d936146b060a096946f456e636f756e746572456e7469747900631d18955160e21b018b5260c060208c015260c08b01906124ad565b9089820360408b0152611896565b9160608801528682036080880152611896565b9594936146be61466d936146b060a096946f436f6d626174456e636f756e74657200631d18955160e21b018b5260c060208c015260c08b01906124ad565b64537461747360581b631d18955160e21b01815260c0602082018190529094939260a09261466d9261465a929161464c918901906124ad565b909161475f6115b3936060845260608401906124ad565b915f60208201526040818403910152611896565b65ffffffffffff6147906115b395936060845260608401906124ad565b931660208201526040818403910152611896565b65ffffffffffff6147e06115b395936f556c74696d617465446f6d696e696f6e631d18955160e21b0184526080602085015260808401906124ad565b931660408201526060818403910152611896565b6420b236b4b760591b631d18955160e21b0181526080602082018190526115b39391926129be918401906124ad565b5f8051602061596683398151915281526080602082018190526115b39391926129be918401906124ad565b65ffffffffffff6147e06115b395936f456e636f756e746572456e7469747900631d18955160e21b0184526080602085015260808401906124ad565b919061489583614490565b9161489e615066565b905f5b825181101561492a576148ba6121b26121a48386611650565b9060049182808260581c16146148d6575b5060019150016148a1565b60601c803b156101ca57855f918983614904966040519788958694859363964f667d60e01b85528401614823565b03925af19182156105cf57600192156148cb57806105c961492492610202565b5f6148cb565b50929190614975826040946040515f805160206159268339815191526f456e636f756e746572456e7469747900631d18955160e21b01918061496d868d83614748565b0390a2615737565b5f5b81518110156138c2576149906121b26121a48385611650565b6008808260581c16146149a7575b50600101614977565b60601c90813b156101ca57845163a8ba872160e01b8152915f9083908183816149d48a8e60048401614823565b03925af19182156105cf576001926149ee575b509061499e565b806105c96149fb92610202565b5f6149e7565b90929192614a0e82614490565b614a16615066565b905f5b8251811015614aa357614a326121b26121a48386611650565b9060049182808260581c1614614a4e575b506001915001614a19565b60601c803b156101ca57855f9188838c96614a7d6040519889968795869463964f667d60e01b8652850161484e565b03925af19182156105cf5760019215614a4357806105c9614a9d92610202565b5f614a43565b50949190614af9836040976040515f805160206159268339815191526f456e636f756e746572456e7469747900631d18955160e21b019180614ae7868a8d84614773565b0390a265ffffffffffff85169061576e565b5f5b8151811015612e2a57614b146121b26121a48385611650565b6008808260581c1614614b2b575b50600101614afb565b60601c90813b156101ca57875163a8ba872160e01b8152915f908390818381614b598b8b8e6004850161484e565b03925af19182156105cf57600192614b73575b5090614b22565b806105c9614b8092610202565b5f614b6c565b9064ffffffffff80921691821161168657565b90602064ffffffffff8093160191821161168657565b91909164ffffffffff8080941691160191821161168657565b5f815264ffffffffff91821660208201529116604082015260600190565b90815264ffffffffff909116602082015260400190565b909264ffffffffff614c3b6115b39694956f456e7469746965734174506f73697469631d18955160e21b01855260e0602086015260e08501906124ad565b945f60408501521660608301525f608083015260a082015260c0818403910152611896565b694368617261637465727360301b631d18955160e21b01815260e0602082018190526115b3959394919264ffffffffff91614c9e91908501906124ad565b94600160408501525f606085015216608083015260a082015260c0818403910152611896565b909264ffffffffff614d026115b39694956f456e636f756e746572456e7469747900631d18955160e21b01855260e0602086015260e08501906124ad565b945f60408501525f606085015216608083015260a082015260c0818403910152611896565b91614d5f6115b3969495926f456e7469746965734174506f73697469631d18955160e21b01855260e0602086015260e08501906124ad565b945f604085015264ffffffffff809216606085015216608083015260a082015260c0818403910152611896565b909264ffffffffff614dca6115b39694956f456e7469746965734174506f73697469631d18955160e21b01855260e0602086015260e08501906124ad565b945f60408501521660608301526020608083015260a082015260c0818403910152611896565b909265ffffffffffff614e106115b396949560c0855260c08501906124ad565b945f60208501521660408301525f6060830152608082015260a0818403910152611896565b9193906115b3959365ffffffffffff614e5c64ffffffffff9360c0875260c08701906124ad565b9660016020870152166040850152166060830152608082015260a0818403910152611896565b909264ffffffffff614ea16115b396949560c0855260c08501906124ad565b945f60208501525f6040850152166060830152608082015260a0818403910152611896565b9193906115b3959365ffffffffffff614eed64ffffffffff9360c0875260c08701906124ad565b965f6020870152166040850152166060830152608082015260a0818403910152611896565b909265ffffffffffff614f326115b396949560c0855260c08501906124ad565b945f602085015216604083015260206060830152608082015260a0818403910152611896565b614f60611be4565b8051156106f3576115b3906f456e7469746965734174506f73697469631d18955160e21b016020820152604051614ff764ffffffffff614fd45f805160206159a68339815191526020850185614fb688836141f5565b0395614fca601f19978881018352826102d4565b5190201894615383565b5460381c16916040519260208401948592603f83870101166040528185526158bb565b60018060801b039051169060801b17615869565b615013611be4565b8051156106f3576115b390694368617261637465727360301b631d18955160e21b016020820152604051614ff764ffffffffff614fd45f805160206159a68339815191526020850185614fb688836141f5565b61506e611be4565b8051156106f3576115b3906f456e636f756e746572456e7469747900631d18955160e21b016020820152604051614ff764ffffffffff614fd45f805160206159a68339815191526020850185614fb688836141f5565b6150cc611be4565b8051156106f3576115b390672837b9b4ba34b7b760411b631d18955160e21b016020820152604051614ff764ffffffffff614fd45f805160206159a68339815191526020850185614fb688836141f5565b615125611be4565b8051156106f3576115b3906f436f6d626174456e636f756e74657200631d18955160e21b016020820152604051614ff764ffffffffff614fd45f805160206159a68339815191526020850185614fb688836141f5565b615183611be4565b8051156106f3576115b39064537461747360581b631d18955160e21b016020820152604051614ff764ffffffffff614fd45f805160206159a68339815191526020850185614fb688836141f5565b6151d9611be4565b8051156106f3576115b3906f556c74696d617465446f6d696e696f6e631d18955160e21b016020820152604051614ff764ffffffffff614fd45f805160206159a68339815191526020850185614fb688836141f5565b615237611be4565b8051156106f3576115b3906420b236b4b760591b631d18955160e21b016020820152604051614ff764ffffffffff614fd45f805160206159a68339815191526020850185614fb688836141f5565b9190915f905b6020908183106152ab5784518155930192601f199091019060010161528b565b9293919050806152ba57505050565b5f199060031b1c90818354169119905116179055565b9291926020908183106152ab5784518155930192601f199091019060010161528b565b909392919380615322575b509290926020908183106152ab5784518155930192601f199091019060010161528b565b6020811015615373575b80156152fe5791939082602003908360031b5f198460031b1c19811c908751901c9080198354169116178155818311156138c257600101940191601f19910101925f6152fe565b90601f908260051c01911661532c565b6040516153988161446d6020820194856141f5565b5190207f14e2fcc58e58e68ec7edc30c8d50dccc3ce2714a623ec81f46b6a63922d765691890565b6040516153988161446d602082019485614240565b6040516153988161446d60208201948561427f565b6040516153988161446d6020820194856142c7565b6040516153988161446d602082019485614306565b6040516153988161446d602082019485614345565b6040516153988161446d60208201948561438b565b6040516153988161446d6020820194856143ca565b6040516153988161446d602082019485614415565b5f805160206159a68339815191529060405161548c8161446d602082019485614240565b5190201890565b7f3a4102da22e32d82fc925482184f16c09fd4281692720b87d124aef6da48a0f19060405161548c8161446d60208201948561427f565b5f805160206159a68339815191529060405161548c8161446d6020820194856142c7565b5f805160206159a68339815191529060405161548c8161446d602082019485614306565b60408051672837b9b4ba34b7b760411b631d18955160e21b0160208083019182528451938301969594919391810191905f5b8281106155895750505050615571815f805160206159a6833981519152959603601f1981018352826102d4565b51902060f89190911b6001600160f81b031916181890565b835189529781019792810192600101615544565b604080515f8051602061596683398151915260208083019182528451938301969594919391810191905f5b8281106155f55750505050615571815f805160206159a6833981519152959603601f1981018352826102d4565b8351895297810197928101926001016155c8565b604080516f436f6d626174456e636f756e74657200631d18955160e21b0160208083019182528451938301969594919391810191905f5b82811061566d5750505050615571815f805160206159a6833981519152959603601f1981018352826102d4565b835189529781019792810192600101615640565b6040805164537461747360581b631d18955160e21b0160208083019182528451938301969594919391810191905f5b8281106156dd5750505050615571815f805160206159a6833981519152959603601f1981018352826102d4565b8351895297810197928101926001016156b0565b8151610ed292602001916152d0565b81519060208093019190925b8082101561571f5750806152ba57505050565b6001839482939451815501930191601f19019061570c565b81519060208093019190925b808210156157565750806152ba57505050565b6001839482939451815501930191601f190190615743565b8251610ed2936020019290916152f3565b64ffffffffff8083116157e35766ffffffffffffff821690603883901c16838181106157d9570301915b64ffffffffff60381b60389190911b1664ffffffffff60381b19929092166001600160601b031991909116171790565b90039003916157a9565b604051637149a3c160e01b815260048101849052602490fd5b64ffffffffff8083116157e35766ffffffffffffff821690606083901c168381811061585f570301915b64ffffffffff60601b60609190911b1664ffffffffff60601b1992909216600169ffffffffff000000000160381b031991909116171790565b9003900391615826565b8060801c906015809160018060801b031604604051926020906020850160208460051b8701016040528386525f5b8481106158a75750505050505090565b825182529185019190830190600101615897565b9291925b6020908183106158df5780548552930192601f19909101906001016158bf565b919050929192806158ef57505050565b5f199060031b1c9081835116911990541617905256fefe158a7adba34e256807c8a149028d3162918713c3838afc643ce9f96716ebfd8c0b5119d4cec7b284c6b1b39252a03d1e2f2d7451a5895562524c113bb952be86425bff6b57326c7859e89024fe4f238ca327a1ae4a230180dd2f0e88aaa7d974625544000000000000000000000000456e636f756e746572456e74697479008dbb3a9672eebfd3773e72dd9c102393436816d832c7ba9e1e1ac8fcadcac7a93b4102da22e32d82fc925482184f16c09fd4281692720b87d124aef6da48a0f174625544000000000000000000000000456e7469746965734174506f73697469","linkReferences":{}},"methodIdentifiers":{"_msgSender()":"119df25f","_msgValue()":"45ec9354","_world()":"e1af802c","adminApplyStatusEffect(bytes32,bytes32)":"b6912bba","adminClearEncounterState(bytes32)":"0ede8f81","adminCreateEffect(uint8,string,bytes)":"8ad57aac","adminCreateItem(uint8,uint256,uint256,uint256,uint256,bytes,string)":"b508364c","adminCreateItems(uint8[],uint256[],uint256[],uint256[],uint256[],bytes[],string[])":"6797b954","adminCreateMob(uint8,bytes,string)":"947ae72e","adminCreateMobs(uint8[],bytes[],string[])":"07457a8c","adminDropGold(bytes32,uint256)":"b8b26bb8","adminDropItem(bytes32,uint256,uint256)":"63054f39","adminMoveEntity(bytes32,uint16,uint16)":"5adbe5a3","adminRemoveEntity(bytes32)":"1f1300d6","adminResupplyLootManager(uint256,uint256)":"2c66b87a","adminSetCombatEncounter(bytes32,(uint8,uint256,uint256,bool,uint256,uint256,uint256,bool,bytes32[],bytes32[]))":"96daec3d","adminSetEncounterEntity(bytes32,(bytes32,bool,uint256,bytes32[]))":"05ad7522","adminSetStats(bytes32,(int256,int256,uint8,int256,int256,int256,uint256,uint256,uint8,uint8,uint8,uint8,bool))":"6c4291bf","getSystemAddress(bytes32)":"23e8492c","setAdmin(address,bool)":"4b0bddd2","setMaxPlayers(uint256)":"288dee3b","supportsInterface(bytes4)":"01ffc9a7"},"id":357}