{"abi":[{"type":"function","name":"_msgSender","inputs":[],"outputs":[{"name":"sender","type":"address","internalType":"address"}],"stateMutability":"view"},{"type":"function","name":"_msgValue","inputs":[],"outputs":[{"name":"value","type":"uint256","internalType":"uint256"}],"stateMutability":"view"},{"type":"function","name":"_world","inputs":[],"outputs":[{"name":"","type":"address","internalType":"address"}],"stateMutability":"view"},{"type":"function","name":"adminClearEncounterState","inputs":[{"name":"entityId","type":"bytes32","internalType":"bytes32"}],"outputs":[],"stateMutability":"nonpayable"},{"type":"function","name":"adminSetCombatEncounter","inputs":[{"name":"encounterId","type":"bytes32","internalType":"bytes32"},{"name":"encounterData","type":"tuple","internalType":"struct CombatEncounterData","components":[{"name":"encounterType","type":"uint8","internalType":"enum EncounterType"},{"name":"start","type":"uint256","internalType":"uint256"},{"name":"end","type":"uint256","internalType":"uint256"},{"name":"rewardsDistributed","type":"bool","internalType":"bool"},{"name":"currentTurn","type":"uint256","internalType":"uint256"},{"name":"currentTurnTimer","type":"uint256","internalType":"uint256"},{"name":"maxTurns","type":"uint256","internalType":"uint256"},{"name":"attackersAreMobs","type":"bool","internalType":"bool"},{"name":"defenders","type":"bytes32[]","internalType":"bytes32[]"},{"name":"attackers","type":"bytes32[]","internalType":"bytes32[]"}]}],"outputs":[],"stateMutability":"nonpayable"},{"type":"function","name":"adminSetEncounterEntity","inputs":[{"name":"entityId","type":"bytes32","internalType":"bytes32"},{"name":"encounterEntityData","type":"tuple","internalType":"struct EncounterEntityData","components":[{"name":"encounterId","type":"bytes32","internalType":"bytes32"},{"name":"died","type":"bool","internalType":"bool"},{"name":"pvpTimer","type":"uint256","internalType":"uint256"},{"name":"appliedStatusEffects","type":"bytes32[]","internalType":"bytes32[]"}]}],"outputs":[],"stateMutability":"nonpayable"},{"type":"function","name":"getSystemAddress","inputs":[{"name":"systemId","type":"bytes32","internalType":"ResourceId"}],"outputs":[{"name":"","type":"address","internalType":"address"}],"stateMutability":"view"},{"type":"function","name":"setAdmin","inputs":[{"name":"newAdmin","type":"address","internalType":"address"},{"name":"adminState","type":"bool","internalType":"bool"}],"outputs":[],"stateMutability":"nonpayable"},{"type":"function","name":"setMaxPlayers","inputs":[{"name":"newMax","type":"uint256","internalType":"uint256"}],"outputs":[],"stateMutability":"nonpayable"},{"type":"function","name":"supportsInterface","inputs":[{"name":"interfaceId","type":"bytes4","internalType":"bytes4"}],"outputs":[{"name":"","type":"bool","internalType":"bool"}],"stateMutability":"pure"},{"type":"event","name":"Store_SetRecord","inputs":[{"name":"tableId","type":"bytes32","indexed":true,"internalType":"ResourceId"},{"name":"keyTuple","type":"bytes32[]","indexed":false,"internalType":"bytes32[]"},{"name":"staticData","type":"bytes","indexed":false,"internalType":"bytes"},{"name":"encodedLengths","type":"bytes32","indexed":false,"internalType":"EncodedLengths"},{"name":"dynamicData","type":"bytes","indexed":false,"internalType":"bytes"}],"anonymous":false},{"type":"event","name":"Store_SpliceDynamicData","inputs":[{"name":"tableId","type":"bytes32","indexed":true,"internalType":"ResourceId"},{"name":"keyTuple","type":"bytes32[]","indexed":false,"internalType":"bytes32[]"},{"name":"dynamicFieldIndex","type":"uint8","indexed":false,"internalType":"uint8"},{"name":"start","type":"uint48","indexed":false,"internalType":"uint48"},{"name":"deleteCount","type":"uint40","indexed":false,"internalType":"uint40"},{"name":"encodedLengths","type":"bytes32","indexed":false,"internalType":"EncodedLengths"},{"name":"data","type":"bytes","indexed":false,"internalType":"bytes"}],"anonymous":false},{"type":"event","name":"Store_SpliceStaticData","inputs":[{"name":"tableId","type":"bytes32","indexed":true,"internalType":"ResourceId"},{"name":"keyTuple","type":"bytes32[]","indexed":false,"internalType":"bytes32[]"},{"name":"start","type":"uint48","indexed":false,"internalType":"uint48"},{"name":"data","type":"bytes","indexed":false,"internalType":"bytes"}],"anonymous":false},{"type":"error","name":"EncodedLengths_InvalidLength","inputs":[{"name":"length","type":"uint256","internalType":"uint256"}]},{"type":"error","name":"NotAdmin","inputs":[]},{"type":"error","name":"Slice_OutOfBounds","inputs":[{"name":"data","type":"bytes","internalType":"bytes"},{"name":"start","type":"uint256","internalType":"uint256"},{"name":"end","type":"uint256","internalType":"uint256"}]},{"type":"error","name":"Store_IndexOutOfBounds","inputs":[{"name":"length","type":"uint256","internalType":"uint256"},{"name":"accessedIndex","type":"uint256","internalType":"uint256"}]},{"type":"error","name":"Store_InvalidResourceType","inputs":[{"name":"expected","type":"bytes2","internalType":"bytes2"},{"name":"resourceId","type":"bytes32","internalType":"ResourceId"},{"name":"resourceIdString","type":"string","internalType":"string"}]},{"type":"error","name":"Store_InvalidSplice","inputs":[{"name":"startWithinField","type":"uint40","internalType":"uint40"},{"name":"deleteCount","type":"uint40","internalType":"uint40"},{"name":"fieldLength","type":"uint40","internalType":"uint40"}]}],"bytecode":{"object":"0x6080806040523461001657612af1908161001b8239f35b5f80fdfe60806040526004361015610011575f80fd5b5f3560e01c806301ffc9a7146100b457806305ad7522146100af5780630ede8f81146100aa578063119df25f146100a557806323e8492c146100a0578063288dee3b1461009b57806345ec9354146100965780634b0bddd21461009157806396daec3d1461008c5763e1af802c14610087575f80fd5b61077c565b61068d565b6105f8565b6105d9565b6104b5565b610478565b61044c565b6102dd565b61024e565b346101085760203660031901126101085760043563ffffffff60e01b81168091036101085763b5dee12760e01b81149081156100f7575b50151560805260206080f35b6301ffc9a760e01b149050816100eb565b5f80fd5b634e487b7160e01b5f52604160045260245ffd5b608081019081106001600160401b0382111761013b57604052565b61010c565b6001600160401b03811161013b57604052565b604081019081106001600160401b0382111761013b57604052565b60e081019081106001600160401b0382111761013b57604052565b601f909101601f19168101906001600160401b0382119082101761013b57604052565b6040519061014082016001600160401b0381118382101761013b57604052565b60243590811515820361010857565b3590811515820361010857565b81601f82011215610108578035916020916001600160401b03841161013b578360051b906040519461021c85840187610189565b85528380860192820101928311610108578301905b82821061023f575050505090565b81358152908301908301610231565b346101085760031960403682011261010857602435906001600160401b0390818311610108576080908336030112610108576040519061028d82610120565b826004013582526102a0602484016101db565b6020830152604483013560408301526064830135908111610108576102db9260046102ce92369201016101e8565b6060820152600435610796565b005b3461010857600319602036820112610108576004356103026102fd610ae5565b610922565b156104305761030f6108d3565b80511561042b578082602061033c930152604051905f60208301526020825261033782610153565b610e4b565b6103446108d3565b80511561042b57816020820152610359610f67565b926001600160a01b0361036a6110ab565b1630810361038f5750506102db9261038191611a95565b61038a81610950565b610a31565b809491943b15610108576040516377b7543160e11b81525f80516020612a91833981519152600482015260806024820152945f9386938492869284926103f392916103de906084860190610b0b565b91856044860152848303016064850152610ce8565b03925af1918215610426576102db9261040d575b50610381565b8061041a61042092610140565b80610442565b5f610407565b610b3e565b6108ed565b604051637bfa4b9f60e01b8152600490fd5b5f91031261010857565b34610108575f366003190112610108576020610466610ae5565b6040516001600160a01b039091168152f35b34610108576020366003190112610108576104916108d3565b80511561042b576104aa60209160043583820152610b49565b60601c604051908152f35b3461010857600319602036820112610108576104d26102fd610ae5565b1561043057604051602081016001600160401b0381118282101761013b576040525f81526040519060043560208301526020825261050f82610153565b6001600160a01b0361051f6110ab565b1630810361053257506102db9250611724565b809291923b15610108576040516301c85d5760e51b81526f556c74696d617465446f6d696e696f6e631d18955160e21b01600482015260a06024820152935f9385938492869284926105a3929161058d9060a4860190610b0b565b9160086044860152848303016064850152610ce8565b6f45434000450505050505050805080805607a1b608483015203925af18015610426576105cc57005b8061041a6102db92610140565b34610108575f366003190112610108576020604051601f193601358152f35b34610108576040366003190112610108576004356001600160a01b03811690819003610108576106266101cc565b6106316102fd610ae5565b156104305761063e6108d3565b80511561042b5761067b61066d926102db94602084015260405193849160208301600191151560f81b81520190565b03601f198101845283610189565b610ed4565b3590600382101561010857565b346101085760031960403682011261010857602435906001600160401b039081831161010857610140908336030112610108576106c86101ac565b906106d583600401610680565b825260248301356020830152604483013560408301526106f7606484016101db565b60608301526084830135608083015260a483013560a083015260c483013560c083015261072660e484016101db565b60e08301526101048301358181116101085761074890600436918601016101e8565b610100830152610124830135908111610108576102db92600461076e92369201016101e8565b610120820152600435610813565b34610108575f3660031901126101085760206104666110ab565b906107a26102fd610ae5565b15610430576108119160608251926020810151151560408201519060405195602087015260f81b60408601526041850152604184526107e084610120565b0151916107ee835193610cb6565b926107f76108d3565b9261080184610901565b5280603d1b9060051b1791610d0d565b565b61081e6102fd610ae5565b156104305781519160038310156108bf57610872610811936020830151604084015161084d6060860151151590565b60808601519060a08701519260c08801519461086c60e08a0151151590565b96611005565b6108a66101206101008401519301516108a081855190518060651b9180603d1b9160051b9060051b01171790565b9361105b565b926108af6108d3565b906108b982610901565b52610dc8565b634e487b7160e01b5f52602160045260245ffd5b604051906108e082610153565b6001825260203681840137565b634e487b7160e01b5f52603260045260245ffd5b80511561042b5760200190565b805182101561042b5760209160051b010190565b61092a6108d3565b80511561042b576001600160a01b03909116602082015261094a90610c08565b60f81c90565b6109586108d3565b9081511561042b5760208201526040515f60208201526020815261097b81610153565b6001600160a01b0361098b6110ab565b169130830361099e57610811925061168b565b90823b15610108576040516301c85d5760e51b81525f80516020612a91833981519152600482015260a06024820152925f928492839185918391610a0491906109eb9060a4850190610b0b565b6002604485015283810360031901606485015290610ce8565b6502081809000960cd1b608483015203925af1801561042657610a245750565b8061041a61081192610140565b610a396108d3565b9081511561042b5760208201526040515f602082015260018152610a5c81610153565b6001600160a01b03610a6c6110ab565b1691308303610a7f5761081192506116da565b90823b15610108576040516301c85d5760e51b81525f80516020612a91833981519152600482015260a06024820152925f928492839185918391610a049190610acc9060a4850190610b0b565b6001604485015283810360031901606485015290610ce8565b36603319013560601c908115610af757565b339150565b90816020910312610108575190565b9081518082526020808093019301915f5b828110610b2a575050505090565b835185529381019392810192600101610b1c565b6040513d5f823e3d90fd5b6001600160a01b03610b596110ab565b16308103610b6e5750610b6b906110e0565b90565b604051638c364d5960e01b81526653797374656d7360481b661d189ddbdc9b1960ca1b0160048201526080602482015291602091839182908190610bb6906084830190610b0b565b5f604483015264150200140160d01b606483015203915afa908115610426575f91610bdf575090565b610b6b915060203d602011610c01575b610bf98183610189565b810190610afc565b503d610bef565b6001600160a01b03610c186110ab565b16308103610c2a5750610b6b9061115c565b604051638c364d5960e01b81526420b236b4b760591b631d18955160e21b0160048201526080602482015291602091839182908190610c6d906084830190610b0b565b5f6044830152630101000160d81b606483015203915afa908115610426575f91610bdf575090565b5f5b838110610ca65750505f910152565b8181015183820152602001610c97565b610cbf90610fb6565b610b6b602060405183610cdb8295518092858086019101610c95565b8101038084520182610189565b90602091610d0181518092818552858086019101610c95565b601f01601f1916010190565b909291906001600160a01b03610d216110ab565b16308103610d34575092610811936111bd565b909192813b15610108575f610da393610db78296610d9094604051998a988997889663298314fb60e01b88526f456e636f756e746572456e7469747900631d18955160e21b01600489015260a0602489015260a4880190610b0b565b6003199283888303016044890152610ce8565b926064860152848303016084850152610ce8565b03925af1801561042657610a245750565b909291906001600160a01b03610ddc6110ab565b16308103610def57509261081193611442565b909192813b15610108575f610da393610db78296610d9094604051998a988997889663298314fb60e01b88526f436f6d626174456e636f756e74657200631d18955160e21b01600489015260a0602489015260a4880190610b0b565b906001600160a01b03610e5c6110ab565b1691308303610e6f57610811925061213f565b90823b15610108576040516301c85d5760e51b81525f80516020612a91833981519152600482015260a06024820152925f928492839185918391610a049190610ebc9060a4850190610b0b565b90846044850152600319848303016064850152610ce8565b906001600160a01b03610ee56110ab565b1691308303610ef85761081192506118f0565b90823b15610108576040516301c85d5760e51b81526420b236b4b760591b631d18955160e21b01600482015260a06024820152925f928492839185918391610f499190610ebc9060a4850190610b0b565b630101000160d81b608483015203925af1801561042657610a245750565b606051610f7381611a7f565b604051916020916020840190601f19603f828701011660405284525f6080905b838110610fa257505050505090565b815183529184019190840190600101610f93565b805190610fc282611a7f565b60408051808301603f01601f1916909152908152916020918284019083015f5b838110610ff157505050505090565b815183529184019190840190600101610fe2565b969594939291906040519760038110156108bf5760f81b602089015260218801526041870152151560f81b60618601526062850152608284015260a2830152151560f81b60c282015260a38152610b6b8161016e565b602061107261106c610b6b93610fb6565b93610fb6565b92604051938161108b8693518092868087019101610c95565b820161109f82518093868085019101610c95565b01038084520182610189565b7f629a4c26e296b22a8e0856e9f6ecb2d1008d7e00081111962cd175fa7488e175546001600160a01b031680610b6b57503390565b60405160208160208101936653797374656d7360481b661d189ddbdc9b1960ca1b0185526040820160208251919201935f5b8281106111455750505061112f925003601f198101835282610189565b5190205f80516020612a71833981519152185490565b855184529481019486945092810192600101611112565b60405160208160208101936420b236b4b760591b631d18955160e21b0185526040820160208251919201935f5b8281106111a65750505061112f925003601f198101835282610189565b855184529481019486945092810192600101611189565b60408051655461626c657360501b66746273746f726560c81b01602082019081525f80516020612a9183398151915282840181905283835296979295949291606091908281016001600160401b0381118282101761013b5788525190205f80516020612a71833981519152185491611233612502565b905f5b82518110156112e05761126a61125d61124f838661090e565b516001600160581b03191690565b6001600160581b03191690565b6001808260581c1614611281575b50600101611236565b841c90813b15610108575f898d9389838c8f8c6112b39151998a97889687956315c19b2760e21b875260048701611f47565b03925af1918215610426576001926112cd575b5090611278565b8061041a6112da92610140565b5f6112c6565b50975f80516020612ab18339815191528851806113008d8b8a8c85611f0b565b0390a261131b61130f86611de7565b855160208701916126c7565b60ff808460e01c16806113c8575b50505f5b81518110156113bc5761134661125d61124f838561090e565b6002808260581c161461135d575b5060010161132d565b831c90813b15610108575f888c9388838b61138f8f8c9051998a9788968795635b28cdaf60e01b875260048701611f47565b03925af1918215610426576001926113a9575b5090611354565b8061041a6113b692610140565b5f6113a2565b50505050505050509050565b97919892969594909993866113dc876127f2565b555f97602086015b8c8a16908b82101561142d576114248e928261141f6001948f8f8f64ffffffffff9261140f91612847565b956028026038011c1680946126c7565b611efe565b9a0116986113e4565b50509399929850939950939495505f80611329565b60408051655461626c657360501b66746273746f726560c81b01602082019081526f436f6d626174456e636f756e74657200631d18955160e21b0182840181905283835296979295949291606091908281016001600160401b0381118282101761013b5788525190205f80516020612a718339815191521854916114c46125b5565b905f5b8251811015611556576114e061125d61124f838661090e565b6001808260581c16146114f7575b506001016114c7565b841c90813b15610108575f898d9389838c8f8c6115299151998a97889687956315c19b2760e21b875260048701611fab565b03925af191821561042657600192611543575b50906114ee565b8061041a61155092610140565b5f61153c565b50975f80516020612ab18339815191528851806115768d8b8a8c85611f0b565b0390a261158561130f86611e1f565b60ff808460e01c1680611626575b50505f5b81518110156113bc576115b061125d61124f838561090e565b6002808260581c16146115c7575b50600101611597565b831c90813b15610108575f888c9388838b6115f98f8c9051998a9788968795635b28cdaf60e01b875260048701611fab565b03925af191821561042657600192611613575b50906115be565b8061041a61162092610140565b5f61160c565b979198929695949099938661163a87612807565b555f97602086015b8c8a16908b8210156116765761166d8e928261141f6001948f8f8f64ffffffffff9261140f91612884565b9a011698611642565b50509399929850939950939495505f80611593565b91905f925f5b600281106116ad575065ffffffffffff610811939416906122b6565b9360ff6502081809000960cd1b86601b0360031b1c1681018091116116d55793600101611691565b611a6b565b91905f925f5b600181106116fc575065ffffffffffff610811939416906122b6565b9360ff6502081809000960cd1b86601b0360031b1c1681018091116116d557936001016116e0565b9190915f805b600882106118bd5765ffffffffffff91501661174582611e34565b61174d612613565b905f5b82518110156117da5761176961125d61124f838661090e565b9060049182808260581c1614611785575b506001915001611750565b60601c803b1561010857855f9188838c966117b46040519889968795869463964f667d60e01b86528501612045565b03925af1918215610426576001921561177a578061041a6117d492610140565b5f61177a565b509491906118278383604098875f80516020612a518339815191526040518061181f87876f556c74696d617465446f6d696e696f6e631d18955160e21b019684612014565b0390a2612926565b5f5b81518110156118b45761184261125d61124f838561090e565b6008808260581c1614611859575b50600101611829565b60601c90813b1561010857875163a8ba872160e01b8152915f9083908183816118878b8b8e60048501612045565b03925af1918215610426576001926118a1575b5090611850565b8061041a6118ae92610140565b5f61189a565b50505050509050565b60ff6f45434000450505050505050805080805607a1b83601b0360031b1c1681018091116116d55760019091019061172a565b91906118fb83611e9d565b91611904612671565b905f5b82518110156119905761192061125d61124f838661090e565b9060049182808260581c161461193c575b506001915001611907565b60601c803b1561010857855f91898361196a966040519788958694859363964f667d60e01b85528401612095565b03925af19182156104265760019215611931578061041a61198a92610140565b5f611931565b50604080519194909392916119d79184916420b236b4b760591b631d18955160e21b01905f80516020612a5183398151915290806119cf868d83611fe9565b0390a26128b8565b5f5b8151811015611a63576119f261125d61124f838561090e565b6008808260581c1614611a09575b506001016119d9565b60601c90813b1561010857845163a8ba872160e01b8152915f908390818381611a368a8e60048401612095565b03925af191821561042657600192611a50575b5090611a00565b8061041a611a5d92610140565b5f611a49565b505050509050565b634e487b7160e01b5f52601160045260245ffd5b908160051b91808304602014901517156116d557565b919091611aa1816127dd565b5464ffffffffff8160381c16611ac2611aba828061243b565b865190611efe565b8181141594908580611cb4575b611c8857611add9084612937565b90611ae6612502565b915f5b8351811015611b7857611b0261125d61124f838761090e565b6010808260581c1614611b19575b50600101611ae9565b60601c90813b15610108575f878b9388838c611b4b60405198899687958694630abd6b4560e31b86526004860161245b565b03925af191821561042657600192611b65575b5090611b10565b8061041a611b7292610140565b5f611b5e565b506040805192979195509392915f80516020612a91833981519152907ffe158a7adba34e256807c8a149028d3162918713c3838afc643ce9f96716ebfd9080611bc48c8a898d856124be565b0390a2611c78575b611bde87611bd98761281c565b6128a9565b5f5b8151811015611c6e57611bf961125d61124f838561090e565b6020808260581c1614611c10575b50600101611be0565b60601c90813b15610108575f868a9386838b611c418b5198899687958694636358453360e01b86526004860161245b565b03925af191821561042657600192611c5b575b5090611c07565b8061041a611c6892610140565b5f611c54565b5050505050509050565b83611c82866127dd565b55611bcc565b604051632994042d60e21b81525f600482015264ffffffffff8416602482018190526044820152606490fd5b5082611ccc611cc282612448565b64ffffffffff1690565b1415611acf565b6953746f7265486f6f6b7360301b66746273746f726560c81b01815281516020918201928201915f5b828110611d0a575050505090565b835185529381019392810192600101611cfc565b5f80516020612a91833981519152815281516020918201928201915f5b828110611d49575050505090565b835185529381019392810192600101611d3b565b5f80516020612a91833981519152815281516020918201928201915f5b828110611d88575050505090565b835185529381019392810192600101611d7a565b6f436f6d626174456e636f756e74657200631d18955160e21b01815281516020918201928201915f5b828110611dd3575050505090565b835185529381019392810192600101611dc5565b604051611e0a81611dfc602082019485611d5d565b03601f198101835282610189565b5190205f80516020612a718339815191521890565b604051611e0a81611dfc602082019485611d9c565b60405160208160208101936f556c74696d617465446f6d696e696f6e631d18955160e21b0185526040820160208251919201935f5b828110611e8657505050611e0a925003601f198101835282610189565b855184529481019486945092810192600101611e69565b60405160208160208101936420b236b4b760591b631d18955160e21b0185526040820160208251919201935f5b828110611ee757505050611e0a925003601f198101835282610189565b855184529481019486945092810192600101611eca565b919082018092116116d557565b90610b6b9492611f26611f3492608085526080850190610b0b565b908382036020850152610ce8565b9260408201526060818403910152610ce8565b959493611f93611fa693611f8560a096946f456e636f756e746572456e7469747900631d18955160e21b018b5260c060208c015260c08b0190610b0b565b9089820360408b0152610ce8565b9160608801528682036080880152610ce8565b930152565b959493611f93611fa693611f8560a096946f436f6d626174456e636f756e74657200631d18955160e21b018b5260c060208c015260c08b0190610b0b565b9091612000610b6b93606084526060840190610b0b565b915f60208201526040818403910152610ce8565b65ffffffffffff612031610b6b9593606084526060840190610b0b565b931660208201526040818403910152610ce8565b65ffffffffffff612081610b6b95936f556c74696d617465446f6d696e696f6e631d18955160e21b018452608060208501526080840190610b0b565b931660408201526060818403910152610ce8565b6420b236b4b760591b631d18955160e21b018152608060208201819052610b6b9391926120c491840190610b0b565b915f60408201526060818403910152610ce8565b5f80516020612a918339815191528152608060208201819052610b6b9391926120c491840190610b0b565b65ffffffffffff612081610b6b95936f456e636f756e746572456e7469747900631d18955160e21b018452608060208501526080840190610b0b565b919061214a83611de7565b91612153612502565b905f5b82518110156121df5761216f61125d61124f838661090e565b9060049182808260581c161461218b575b506001915001612156565b60601c803b1561010857855f9189836121b9966040519788958694859363964f667d60e01b855284016120d8565b03925af19182156104265760019215612180578061041a6121d992610140565b5f612180565b5092919061222a826040946040515f80516020612a518339815191526f456e636f756e746572456e7469747900631d18955160e21b019180612222868d83611fe9565b0390a26128ef565b5f5b8151811015611a635761224561125d61124f838561090e565b6008808260581c161461225c575b5060010161222c565b60601c90813b1561010857845163a8ba872160e01b8152915f9083908183816122898a8e600484016120d8565b03925af1918215610426576001926122a3575b5090612253565b8061041a6122b092610140565b5f61229c565b909291926122c382611de7565b6122cb612502565b905f5b8251811015612358576122e761125d61124f838661090e565b9060049182808260581c1614612303575b5060019150016122ce565b60601c803b1561010857855f9188838c966123326040519889968795869463964f667d60e01b86528501612103565b03925af191821561042657600192156122f8578061041a61235292610140565b5f6122f8565b509491906123ae836040976040515f80516020612a518339815191526f456e636f756e746572456e7469747900631d18955160e21b01918061239c868a8d84612014565b0390a265ffffffffffff851690612926565b5f5b81518110156118b4576123c961125d61124f838561090e565b6008808260581c16146123e0575b506001016123b0565b60601c90813b1561010857875163a8ba872160e01b8152915f90839081838161240e8b8b8e60048501612103565b03925af191821561042657600192612428575b50906123d7565b8061041a61243592610140565b5f612421565b919082039182116116d557565b9064ffffffffff8092169182116116d557565b909264ffffffffff612499610b6b9694956f456e636f756e746572456e7469747900631d18955160e21b01855260e0602086015260e0850190610b0b565b945f60408501525f606085015216608083015260a082015260c0818403910152610ce8565b909264ffffffffff6124dd610b6b96949560c0855260c0850190610b0b565b945f60208501525f6040850152166060830152608082015260a0818403910152610ce8565b61250a6108d3565b80511561042b57610b6b906f456e636f756e746572456e7469747900631d18955160e21b0160208201526040516125a164ffffffffff61257e5f80516020612ad183398151915260208501856125608883611cd3565b0395612574601f1997888101835282610189565b51902018946127a0565b5460381c16916040519260208401948592603f8387010116604052818552612a06565b60018060801b039051169060801b176129b4565b6125bd6108d3565b80511561042b57610b6b906f436f6d626174456e636f756e74657200631d18955160e21b0160208201526040516125a164ffffffffff61257e5f80516020612ad183398151915260208501856125608883611cd3565b61261b6108d3565b80511561042b57610b6b906f556c74696d617465446f6d696e696f6e631d18955160e21b0160208201526040516125a164ffffffffff61257e5f80516020612ad183398151915260208501856125608883611cd3565b6126796108d3565b80511561042b57610b6b906420b236b4b760591b631d18955160e21b0160208201526040516125a164ffffffffff61257e5f80516020612ad183398151915260208501856125608883611cd3565b9291925b6020908183106126eb5784518155930192601f19909101906001016126cb565b9293919050806126fa57505050565b5f199060031b1c90818354169119905116179055565b90939291938061273f575b509290926020908183106126eb5784518155930192601f19909101906001016126cb565b6020811015612790575b801561271b5791939082602003908360031b5f198460031b1c19811c908751901c908019835416911617815581831115611a6357600101940191601f19910101925f61271b565b90601f908260051c019116612749565b6040516127b581611dfc602082019485611cd3565b5190207f14e2fcc58e58e68ec7edc30c8d50dccc3ce2714a623ec81f46b6a63922d765691890565b6040516127b581611dfc602082019485611d1e565b6040516127b581611dfc602082019485611d5d565b6040516127b581611dfc602082019485611d9c565b5f80516020612ad18339815191529060405161284081611dfc602082019485611d1e565b5190201890565b905f80516020612ad18339815191529160405161286c81611dfc602082019485611d5d565b51902060f89190911b6001600160f81b031916181890565b905f80516020612ad18339815191529160405161286c81611dfc602082019485611d9c565b815161081192602001916126c7565b81519060208093019190925b808210156128d75750806126fa57505050565b6001839482939451815501930191601f1901906128c4565b81519060208093019190925b8082101561290e5750806126fa57505050565b6001839482939451815501930191601f1901906128fb565b825161081193602001929091612710565b64ffffffffff80831161299b5766ffffffffffffff821690603883901c1683818110612991570301915b64ffffffffff60381b60389190911b1664ffffffffff60381b19929092166001600160601b031991909116171790565b9003900391612961565b604051637149a3c160e01b815260048101849052602490fd5b8060801c906015809160018060801b031604604051926020906020850160208460051b8701016040528386525f5b8481106129f25750505050505090565b8251825291850191908301906001016129e2565b9291925b602090818310612a2a5780548552930192601f1990910190600101612a0a565b91905092919280612a3a57505050565b5f199060031b1c9081835116911990541617905256fe8c0b5119d4cec7b284c6b1b39252a03d1e2f2d7451a5895562524c113bb952be86425bff6b57326c7859e89024fe4f238ca327a1ae4a230180dd2f0e88aaa7d974625544000000000000000000000000456e636f756e746572456e74697479008dbb3a9672eebfd3773e72dd9c102393436816d832c7ba9e1e1ac8fcadcac7a93b4102da22e32d82fc925482184f16c09fd4281692720b87d124aef6da48a0f1","linkReferences":{}},"methodIdentifiers":{"_msgSender()":"119df25f","_msgValue()":"45ec9354","_world()":"e1af802c","adminClearEncounterState(bytes32)":"0ede8f81","adminSetCombatEncounter(bytes32,(uint8,uint256,uint256,bool,uint256,uint256,uint256,bool,bytes32[],bytes32[]))":"96daec3d","adminSetEncounterEntity(bytes32,(bytes32,bool,uint256,bytes32[]))":"05ad7522","getSystemAddress(bytes32)":"23e8492c","setAdmin(address,bool)":"4b0bddd2","setMaxPlayers(uint256)":"288dee3b","supportsInterface(bytes4)":"01ffc9a7"},"id":359}