{"abi":[{"type":"function","name":"_msgSender","inputs":[],"outputs":[{"name":"sender","type":"address","internalType":"address"}],"stateMutability":"view"},{"type":"function","name":"_msgValue","inputs":[],"outputs":[{"name":"value","type":"uint256","internalType":"uint256"}],"stateMutability":"view"},{"type":"function","name":"_world","inputs":[],"outputs":[{"name":"","type":"address","internalType":"address"}],"stateMutability":"view"},{"type":"function","name":"executePvECombat","inputs":[{"name":"randomness","type":"uint256","internalType":"uint256"},{"name":"encounterId","type":"bytes32","internalType":"bytes32"},{"name":"attacks","type":"tuple[]","internalType":"struct Action[]","components":[{"name":"attackerEntityId","type":"bytes32","internalType":"bytes32"},{"name":"defenderEntityId","type":"bytes32","internalType":"bytes32"},{"name":"itemId","type":"uint256","internalType":"uint256"}]}],"outputs":[],"stateMutability":"nonpayable"},{"type":"function","name":"isValidPvE","inputs":[{"name":"attackers","type":"bytes32[]","internalType":"bytes32[]"},{"name":"defenders","type":"bytes32[]","internalType":"bytes32[]"},{"name":"x","type":"uint16","internalType":"uint16"},{"name":"y","type":"uint16","internalType":"uint16"}],"outputs":[{"name":"_isValidPvE","type":"bool","internalType":"bool"},{"name":"_attackersAreMobs","type":"bool","internalType":"bool"}],"stateMutability":"view"},{"type":"function","name":"supportsInterface","inputs":[{"name":"interfaceId","type":"bytes4","internalType":"bytes4"}],"outputs":[{"name":"","type":"bool","internalType":"bool"}],"stateMutability":"pure"},{"type":"event","name":"Store_SetRecord","inputs":[{"name":"tableId","type":"bytes32","indexed":true,"internalType":"ResourceId"},{"name":"keyTuple","type":"bytes32[]","indexed":false,"internalType":"bytes32[]"},{"name":"staticData","type":"bytes","indexed":false,"internalType":"bytes"},{"name":"encodedLengths","type":"bytes32","indexed":false,"internalType":"EncodedLengths"},{"name":"dynamicData","type":"bytes","indexed":false,"internalType":"bytes"}],"anonymous":false},{"type":"event","name":"Store_SpliceStaticData","inputs":[{"name":"tableId","type":"bytes32","indexed":true,"internalType":"ResourceId"},{"name":"keyTuple","type":"bytes32[]","indexed":false,"internalType":"bytes32[]"},{"name":"start","type":"uint48","indexed":false,"internalType":"uint48"},{"name":"data","type":"bytes","indexed":false,"internalType":"bytes"}],"anonymous":false},{"type":"error","name":"NoWeaponsEquipped","inputs":[]},{"type":"error","name":"Slice_OutOfBounds","inputs":[{"name":"data","type":"bytes","internalType":"bytes"},{"name":"start","type":"uint256","internalType":"uint256"},{"name":"end","type":"uint256","internalType":"uint256"}]},{"type":"error","name":"Store_IndexOutOfBounds","inputs":[{"name":"length","type":"uint256","internalType":"uint256"},{"name":"accessedIndex","type":"uint256","internalType":"uint256"}]},{"type":"error","name":"Store_InvalidBounds","inputs":[{"name":"start","type":"uint256","internalType":"uint256"},{"name":"end","type":"uint256","internalType":"uint256"}]}],"bytecode":{"object":"0x608080604052346100165761371b908161001b8239f35b5f80fdfe60806040526004361015610011575f80fd5b5f3560e01c806301ffc9a714610074578063119df25f1461006f578063154510201461006a57806345ec93541461006557806349789fa1146100605763e1af802c1461005b575f80fd5b610801565b610745565b610726565b61027a565b6100d6565b346100c85760203660031901126100c85760043563ffffffff60e01b81168091036100c85763b5dee12760e01b81149081156100b7575b50151560805260206080f35b6301ffc9a760e01b149050816100ab565b5f80fd5b5f9103126100c857565b346100c8575f3660031901126100c85736603319013560601c801561010b575b6040516001600160a01b039091168152602090f35b50336100f6565b634e487b7160e01b5f52604160045260245ffd5b606081019081106001600160401b0382111761014157604052565b610112565b6001600160401b03811161014157604052565b604081019081106001600160401b0382111761014157604052565b60e081019081106001600160401b0382111761014157604052565b601f909101601f19168101906001600160401b0382119082101761014157604052565b604051906101c082016001600160401b0381118382101761014157604052565b604051906101df82610126565b565b6001600160401b0381116101415760051b60200190565b9080601f830112156100c8576020908235610212816101e1565b93610220604051958661018f565b81855260208086019260051b8201019283116100c857602001905b828210610249575050505090565b8135815290830190830161023b565b6044359061ffff821682036100c857565b6064359061ffff821682036100c857565b346100c85760803660031901126100c85760046001600160401b0381358181116100c8576102ab90369084016101f8565b906024359081116100c8576102c390369084016101f8565b916102cc610258565b916102d5610269565b915f946001945f6102f66102ea6102ea612286565b6001600160a01b031690565b6103046102ea6102ea612286565b915b865181101561071a5761034161031c8289610873565b51604090815190633e86fb3160e21b8252818060209586938d83019190602083019252565b0381885afa90811561054d575f916106fd575b50156106f4575b8186918961039c8d61036d888f610873565b519351637a451cb960e11b81529586948594850190815261ffff91821660208201529116604082015260600190565b0381885afa91821561054d575f926106d7575b5050156103be57600101610306565b5050509091929394505f945b8587806106d0575b1561059157505f6103e76102ea6102ea612286565b926103f66102ea6102ea612286565b915b888651821015610582575061040d8187610873565b5160408051633e86fb3160e21b8152898101928352602092839082908190830103818b5afa90811561054d575f91610565575b5015610552578184918a6104588961036d888e610873565b0381885afa91821561054d575f92610520575b5050156104805761047b906108ca565b6103f8565b5050505050909192505f92835b6104a8575b5050604080519215158352921515602083015250f35b91939182156105185750905b5f5b825181101561050c576104ee6104d56104cf8386610873565b51610e22565b6104e86104e28487610873565b51610e45565b906108dd565b156104fb576001016104b6565b604051638fa2ffa160e01b81528590fd5b509250505f8080610492565b9050906104b4565b61053f9250803d10610546575b610537818361018f565b810190610894565b5f8061046b565b503d61052d565b6108ab565b50505050505050909192505f928361048d565b61057c9150833d851161054657610537818361018f565b5f610440565b9450505050509290919261048d565b9190879593949515806106c9575b6105ab575b505061048d565b9091505f949392946105c16102ea6102ea612286565b926105d06102ea6102ea612286565b915b8886518210156106ba57506105e78187610873565b5160408051633e86fb3160e21b8152898101928352602092839082908190830103818b5afa90811561054d575f9161069d575b5061068a578184918a6106318961036d888e610873565b0381885afa91821561054d575f9261066d575b50501561065957610654906108ca565b6105d2565b5050505050909192505f92835b5f806105a4565b6106839250803d1061054657610537818361018f565b5f80610644565b50505050505050909192505f9283610666565b6106b49150833d851161054657610537818361018f565b5f61061a565b94505050505092909192610666565b508261059f565b50806103d2565b6106ed9250803d1061054657610537818361018f565b5f806103af565b60019b5061035b565b6107149150833d851161054657610537818361018f565b5f610354565b505050909192936103ca565b346100c8575f3660031901126100c8576020604051601f193601358152f35b346100c8576060806003193601126100c8576044356001600160401b0381116100c857366023820112156100c857806004013590610782826101e1565b91604090610793604051948561018f565b80845260209160246060602087019302850101933685116100c857602401915b8483106107cb576107c986602435600435610a2d565b005b86833603126100c85783879183516107e281610126565b85358152828601358382015284860135858201528152019201916107b3565b346100c8575f3660031901126100c857602061081b612286565b6040516001600160a01b039091168152f35b634e487b7160e01b5f52603260045260245ffd5b80511561084e5760200190565b61082d565b80516001101561084e5760400190565b80516002101561084e5760600190565b805182101561084e5760209160051b010190565b519081151582036100c857565b908160209103126100c8576108a890610887565b90565b6040513d5f823e3d90fd5b634e487b7160e01b5f52601160045260245ffd5b5f1981146108d85760010190565b6108b6565b919082018092116108d857565b908152602081019190915260400190565b91908260409103126100c8576108a8602061091584610887565b9301610887565b9060038210156109295752565b634e487b7160e01b5f52602160045260245ffd5b9081518082526020808093019301915f5b82811061095c575050505090565b83518552938101939281019260010161094e565b906108a8916020815261098760208201835161091c565b60208201516040820152604082015160608201526109ae6060830151608083019015159052565b608082015160a082015260a082015160c082015260c082015160e082015260e08201516109e2610100918284019015159052565b8201519061014091610a0161012091848385015261016084019061093d565b93015191601f198285030191015261093d565b9081526020810191909152901515604082015260600190565b610a3682610ebd565b90608082019182519260019360018103610dc2575b5060e0820193610a5b8551151590565b15610db057610a6b8484886115de565b965b5f6101008501835b610d2a575b5050610a8a6102ea6102ea612286565b906040988951976304e1beaf60e21b95868a528b8a6004968180610ab18d60048301610970565b03915afa998a1561054d575f905f9b610d08575b5015610b375750505050505050610adb906118ff565b610ae96102ea6102ea612286565b90813b156100c8575f8094610b139651968795869485936343c00bf760e01b855260048501610a14565b03925af1801561054d57610b245750565b80610b316101df92610146565b806100cc565b889293949596995090610b5a82610b51610b6094516108ca565b8091528c610f8f565b51151590565b15610cf657610b7092868a61151a565b505b5f906101208401835b610c72575b50505050610b8e8185611863565b84610b9d6102ea6102ea612286565b815194855284908180610bb38660048301610970565b03915afa92831561054d575f905f94610c40575b50610bd4575b5050505050565b610bdd906118ff565b610beb6102ea6102ea612286565b90813b156100c8575f8094610c159651968795869485936343c00bf760e01b855260048501610a14565b03925af1801561054d57610c2d575b80808080610bcd565b80610b31610c3a92610146565b5f610c24565b9050610c63919350853d8711610c6b575b610c5b818361018f565b8101906108fb565b92905f610bc7565b503d610c51565b8051928351811015610cf057610c9681610c906102ea6102ea612286565b95610873565b5193803b156100c857610cc1945f918b838e51809981958294633effd25760e21b84528b84016108ea565b03925af190811561054d5785948592610cdd575b500192610b7b565b80610b31610cea92610146565b5f610cd5565b50610b80565b610d0292508589611720565b50610b72565b9050610d22919a508c8d3d10610c6b57610c5b818361018f565b99905f610ac5565b8051918251811015610daa57610d4e81610d486102ea6102ea612286565b94610873565b5192803b156100c857610d7b935f918c83604051809881958294633effd25760e21b8452600484016108ea565b03925af190811561054d5785938492610d97575b500191610a75565b80610b31610da492610146565b5f610d8f565b50610a7a565b610dbc84888589611440565b96610a6d565b610dce610dd7916108ca565b80835286610f8f565b5f610a4b565b60405190610dea82610159565b6001825260203681840137565b60405190608082016001600160401b0381118382101761014157604052600382526060366020840137565b610e2a610ddd565b80511561084e57610e3f9160208201526119d2565b60051c90565b610e4d610ddd565b80511561084e57610e3f916020820152611a95565b6040519061014082016001600160401b03811183821017610141576040526060610120835f81525f60208201525f60408201525f838201525f60808201525f60a08201525f60c08201525f60e0820152826101008201520152565b610ec5610e62565b50610ece610ddd565b80511561084e57610ee3916020820152611bf5565b610eee929192610e62565b92602083015160f81c92600384101561092957610f8093816021610f7b93015190610f6b604182015191610f26606182015160f81c90565b90606281015190608281015190610f538d60e0610f4c60c260a286015195015160f81c90565b1515910152565b60c08d015260a08c015260808b0152151560608a0152565b6040880152602087015285611cb6565b612374565b61012083015261010082015290565b90610f98610ddd565b9182511561084e57602083015260405190602082015260208152610fbb81610159565b6001600160a01b03610fcb612286565b1691308303610fde576101df925061241b565b90823b156100c8576040516301c85d5760e51b81525f805160206136fb833981519152600482015260a06024820152925f928492839185918391611044919061102b9060a48501906112d6565b6004604485015283810360031901606485015290611cc2565b6aa30802012020012020200160a01b608483015203925af1801561054d57610b245750565b6040919493926060820195825260208201520152565b9080601f830112156100c85781519060209161109a816101e1565b936110a8604051958661018f565b81855260208086019260051b8201019283116100c857602001905b8282106110d1575050505090565b815181529083019083016110c3565b9080601f830112156100c8578151906020916110fb816101e1565b93611109604051958661018f565b81855260208086019260051b8201019283116100c857602001905b828210611132575050505090565b81518152908301908301611124565b9080601f830112156100c85781519060209161115c816101e1565b9361116a604051958661018f565b81855260208086019260051b8201019283116100c857602001905b828210611193575050505090565b83809161119f84610887565b815201910190611185565b6020818303126100c85780516001600160401b03918282116100c857016101c0818403126100c8576111da6101b2565b92815184526020820151602085015260408201516040850152606082015160608501526080820151608085015261121360a08301610887565b60a085015261122460c08301610887565b60c085015260e082015160e08501526101008083015190850152610120808301518481116100c8578261125891850161107f565b90850152610140808301518481116100c857826112769185016110e0565b90850152610160808301518481116100c85782611294918501611141565b90850152610180808301518481116100c857826112b2918501611141565b908501526101a092838301519081116100c8576112cf9201611141565b9082015290565b9081518082526020808093019301915f5b8281106112f5575050505090565b8351855293810193928101926001016112e7565b9081518082526020808093019301915f5b828110611328575050505090565b835115158552938101939281019260010161131a565b92919061143b602091604086528051604087015282810151606087015260408101516080870152606081015160a0870152608081015160c087015261138c60a082015160e088019015159052565b60c08101516113a2610100918289019015159052565b60e0820151906101209182890152820151906101409182890152820151611428886101c06114156113fd6113e36101609684888701526102008601906112d6565b96880151603f19858903810161018096870152979061093d565b94870151946101a0958d878982850301910152611309565b9186015190858c840301908c0152611309565b92015190878303016101e0880152611309565b930152565b919093928151945f5b868110611457575050505050565b806114656114cf9286610873565b515f81519160808601926114a588855161149c60409461148e8651938492602084019687611069565b03601f19810183528261018f565b51902092611db6565b836114b46102ea6102ea612286565b9251809881958294631618ab3d60e11b84526004840161133e565b03925af1801561054d57826114f0926001955f936114f6575b505189611eb5565b01611449565b6115139193503d805f833e61150b818361018f565b8101906111aa565b915f6114e8565b82519594915f5b87811061153057505050505050565b61153a8186610873565b51906115915f83519360808601946115678b875161149c60409461148e8651938492602084019687611069565b836115766102ea6102ea612286565b9251809681958294631618ab3d60e11b84526004840161133e565b03925af1801561054d576001936115bc925f926115c2575b50516115b588856108dd565b9087611eb5565b01611521565b6115d79192503d805f833e61150b818361018f565b905f6115a9565b909291610100840190815151945f5b8681106115fb575050505050565b6116b89060e0830161160d8151151590565b1561170c575f61162b61162584610120880151610873565b51611f9d565b8251151582146116f75761164f61164785610120890151610873565b519351151590565b82146116de57611684611663858a51610873565b51935b61166e6101d2565b9081526020948582015260409283820152611db6565b9087848301516116a560808a019661148e8851865194859384019687611069565b51902091836114b46102ea6102ea612286565b03925af1801561054d57826116d8926001955f936114f657505189611eb5565b016115ed565b6116846116f085610120890151610873565b5193611666565b61164f611705858a51610873565b5193610b5a565b5f61171b611625848951610873565b61162b565b909392610100850191825151955f5b87811061173e57505050505050565b60e082019061174d8251151590565b1561184c576117f55f61176861162584610120880151610873565b8451151582146118375761178c61178485610120890151610873565b519551151590565b821461181e576117c16117a0858b51610873565b51955b6117ab6101d2565b9081526020968782015260409283820152611db6565b908a868301516117e260808a019861148e8a51865194859384019687611069565b51902091836115766102ea6102ea612286565b03925af1801561054d57600193611818925f926115c25750516115b588856108dd565b0161172f565b6117c161183085610120890151610873565b51956117a3565b61178c611845858b51610873565b5195610b5a565b6117f55f61185e611625848a51610873565b611768565b8151916003831015610929576118b26101df936020830151604084015161188d6060860151151590565b60808601519060a08701519260c0880151946118ac60e08a0151151590565b96611fdc565b6118e66101206101008401519301516118e081855190518060651b9180603d1b9160051b9060051b01171790565b93612032565b926118ef610ddd565b906118f982610841565b52612082565b60e0810151156119b8576101000151905b5f5b82518110156119b35761195c9061192d6102ea6102ea612286565b6119378286610873565b51604051809263292d870f60e11b825281806020978895600483019190602083019252565b03915afa90811561054d576001935f92611996575b505061197e575b01611912565b61199161198b8286610873565b516121af565b611978565b6119ac9250803d1061054657610537818361018f565b5f80611971565b509050565b610120015190611910565b908160209103126100c8575190565b6001600160a01b036119e2612286565b16308103611a0557506119f76108a891613173565b5460601c64ffffffffff1690565b60405163dbbf0e2160e01b81526f43686172616374657245717569706d65631d18955160e21b0160048201526060602482015291602091839182908190611a509060648301906112d6565b6001604483015203915afa90811561054d575f91611a6c575090565b6108a8915060203d602011611a8e575b611a86818361018f565b8101906119c3565b503d611a7c565b6001600160a01b03611aa5612286565b16308103611ac85750611aba6108a891613173565b5460881c64ffffffffff1690565b60405163dbbf0e2160e01b81526f43686172616374657245717569706d65631d18955160e21b0160048201526060602482015291602091839182908190611b139060648301906112d6565b6002604483015203915afa90811561054d575f91611a6c575090565b6001600160401b03811161014157601f01601f191660200190565b5f5b838110611b5b5750505f910152565b8181015183820152602001611b4c565b81601f820112156100c8578051611b8181611b2f565b92611b8f604051948561018f565b818452602082840101116100c8576108a89160208085019101611b4a565b90916060828403126100c85781516001600160401b0392908381116100c85784611bd8918301611b6b565b9360208201519360408301519081116100c8576108a89201611b6b565b6001600160a01b03611c05612286565b16308103611c1e5750611c17906122bb565b9192909190565b60405163419b58fd60e01b81525f805160206136fb83398151915260048201526060602482015292915f91849182908190611c5d9060648301906112d6565b6aa30802012020012020200160a01b604483015203915afa90811561054d575f80935f93611c8c575b50929190565b91935050611cac91503d805f833e611ca4818361018f565b810190611bad565b929092915f611c86565b60038210156109295752565b90602091611cdb81518092818552858086019101611b4a565b601f01601f1916010190565b604051906101c082016001600160401b0381118382101761014157604052815f81525f60208201525f60408201526101a06060915f838201525f60808201525f60a08201525f60c08201525f60e08201525f610100820152826101208201528261014082015282610160820152826101808201520152565b906020828203126100c85781516001600160401b0381116100c8576108a892016110e0565b90611d8e826101e1565b611d9b604051918261018f565b8281528092611dac601f19916101e1565b0190602036910137565b611dbe611ce7565b50611dcd6102ea6102ea612286565b604082810180519151635875e22f60e11b81526004810192909252915f90829060249082905afa90811561054d575f91611e93575b50611e0d8151611d84565b611e178251611d84565b91611e228151611d84565b93611e2d8251611d84565b9051956020815191015190611e406101b2565b978852602088015260408701525f60608701525f60808701525f60a08701525f60c08701524360e0870152426101008701526101208601526101408501526101608401526101808301526101a082015290565b611eaf91503d805f833e611ea7818361018f565b810190611d5f565b5f611e02565b916101df939192611f0383516020850151604086015160608701516080880151611ee260a08a0151151590565b91611ef060c08b0151151590565b9360e08b0151956101008c0151976125fd565b91611f7061012085015194610140810151906101608101516101a061018083015192015192611f6a848484848d93929193519051935191519251938460d81b948460b01b948460881b948360651b9480603d1b9460051b9060051b01010101171717171790565b98612660565b94611f79610df7565b92611f8384610841565b52611f8d83610853565b52611f9782610863565b5261212c565b611fa5610ddd565b80511561084e57611fba916020820152612723565b602081519101519060208110611fce575090565b5f199060200360031b1b1690565b969594939291906040519760038110156109295760f81b602089015260218801526041870152151560f81b60618601526062850152608284015260a2830152151560f81b60c282015260a381526108a881610174565b60206120496120436108a893613023565b93613023565b9260405193816120628693518092868087019101611b4a565b820161207682518093868085019101611b4a565b0103808452018261018f565b909291906001600160a01b03612096612286565b163081036120a95750926101df936127ce565b909192813b156100c8575f61211893610b13829661210594604051998a988997889663298314fb60e01b88526f436f6d626174456e636f756e74657200631d18955160e21b01600489015260a0602489015260a48801906112d6565b6003199283888303016044890152611cc2565b926064860152848303016084850152611cc2565b909291906001600160a01b03612140612286565b163081036121535750926101df93612a20565b909192813b156100c8575f61211893610b13829661210594604051998a988997889663298314fb60e01b88526f416374696f6e4f7574636f6d65000000631bdd155160e21b01600489015260a0602489015260a48801906112d6565b6121b7610ddd565b9081511561084e5760208201526040515f6020820152600181526121da81610159565b6001600160a01b036121ea612286565b16913083036121fd576101df9250612dec565b90823b156100c8576040516301c85d5760e51b81526614dc185ddb9959604a1b631d18955160e21b01600482015260a06024820152925f92849283918591839161226891906122509060a48501906112d6565b90846044850152600319848303016064850152611cc2565b630101000160d81b608483015203925af1801561054d57610b245750565b7f629a4c26e296b22a8e0856e9f6ecb2d1008d7e00081111962cd175fa7488e175546001600160a01b0316806108a857503390565b6122cc6122c78261321b565b6132a8565b916122d6826131f1565b549266ffffffffffffff8416926123056122ef85611b2f565b946122fd604051968761018f565b808652611b2f565b602085019490601f190136863793915f925b60ff841690600282101561236a57908161234f6123549364ffffffffff8b61233f8a8a612ba0565b956028026038011c168094612c2d565b6108dd565b9260ff8091169081146108d85760010192612317565b5050949392915050565b919064ffffffffff808460381c16906123956123908385612ca6565b61335f565b9460601c168101918282118015612411575b6123dc5790816020828194010192839101116108d85782039182116108d8576108a89160018060801b03169060801b1761335f565b6040516323230fa360e01b81526060600482015292839291612402906064850190611cc2565b91602484015260448301520390fd5b50805183116123a7565b9190915f805b600482106125cf5765ffffffffffff91501661243c8261321b565b6124446133b4565b905f5b82518110156124ec5761247b61246e6124608386610873565b516001600160581b03191690565b6001600160581b03191690565b9060049182808260581c1614612497575b506001915001612447565b60601c803b156100c857855f9188838c966124c66040519889968795869463964f667d60e01b86528501612d57565b03925af191821561054d576001921561248c5780610b316124e692610146565b5f61248c565b509491906125398383604098875f8051602061365b8339815191526040518061253187876f436f6d626174456e636f756e74657200631d18955160e21b019684612d26565b0390a2613570565b5f5b81518110156125c65761255461246e6124608385610873565b6008808260581c161461256b575b5060010161253b565b60601c90813b156100c857875163a8ba872160e01b8152915f9083908183816125998b8b8e60048501612d57565b03925af191821561054d576001926125b3575b5090612562565b80610b316125c092610146565b5f6125ac565b50505050509050565b60ff6aa30802012020012020200160a01b83601b0360031b1c1681018091116108d857600190910190612421565b97969594939291906040519860208a015260408901526060880152608087015260a0860152151560f81b60c0850152151560f81b60c184015260c283015260e282015260e28152610120810181811060018060401b038211176101415760405290565b9361269561268f61268961268361267d6108a89899979697613023565b96613023565b9461307d565b9661307d565b9161307d565b906040519586936020956126b18151809289808a019101611b4a565b85016126c582518093898085019101611b4a565b016126d882518093888085019101611b4a565b016126eb82518093878085019101611b4a565b0161207682518093868085019101611b4a565b906020828203126100c85781516001600160401b0381116100c8576108a89201611b6b565b6001600160a01b03612733612286565b1630810361274557506108a890612f69565b604051634dc77d9760e01b8152674d6f62537461747360401b631d18955160e21b01600482015260a06024820152915f9183918290819061278a9060a48301906112d6565b8560448301528560648301526020608483015203915afa90811561054d575f916127b2575090565b6108a891503d805f833e6127c6818361018f565b8101906126fe565b60408051655461626c657360501b66746273746f726560c81b01602082019081525f805160206136fb8339815191528284018190528383529697929594929161281681610126565b5190205f8051602061367b8339815191521854906128326133b4565b905f5b82518110156128c55761284e61246e6124608386610873565b6001808260581c1614612865575b50600101612835565b60601c90813b156100c8575f888c9388838b6128988f8c9051998a97889687956315c19b2760e21b875260048701613114565b03925af191821561054d576001926128b2575b509061285c565b80610b316128bf92610146565b5f6128ab565b50965f8051602061369b8339815191528751806128e58c8a898b856130d8565b0390a26129006128f48561321b565b84516020860191613581565b60ff808360e01c16806129ac575b50505f5b81518110156129a15761292b61246e6124608385610873565b6002808260581c1614612942575b50600101612912565b60601c90813b156100c8575f878b9387838a6129748a8f51998a9788968795635b28cdaf60e01b875260048701613114565b03925af191821561054d5760019261298e575b5090612939565b80610b3161299b92610146565b5f612987565b505050505050509050565b96909892959493856129c0869a949a613206565b555f96602085015b8b8916908a821015612a0d57612a048d928261234f60019464ffffffffff8f8f908f906129f491612c08565b956028026038011c168094613581565b990116976129c8565b5050939950939495509550955f8061290e565b60408051655461626c657360501b66746273746f726560c81b0160208201526f416374696f6e4f7574636f6d65000000631bdd155160e21b0181830181905291815290945f8051602061369b83398151915294612a8c92612a8090610126565b604051948594856130d8565b0390a2565b6953746f7265486f6f6b7360301b66746273746f726560c81b01815281516020918201928201915f5b828110612ac8575050505090565b835185529381019392810192600101612aba565b5f805160206136fb833981519152815281516020918201928201915f5b828110612b07575050505090565b835185529381019392810192600101612af9565b674d6f62537461747360401b631d18955160e21b01815281516020918201928201915f5b828110612b4d575050505090565b835185529381019392810192600101612b3f565b5f805160206136fb833981519152815281516020918201928201915f5b828110612b8c575050505090565b835185529381019392810192600101612b7e565b905f805160206136bb83398151915291604051612bc58161148e602082019485612adc565b51902060f89190911b6001600160f81b031916181890565b5f805160206136bb83398151915290604051612c018161148e602082019485612b1b565b5190201890565b905f805160206136bb83398151915291604051612bc58161148e602082019485612b61565b9291925b602090818310612c515780548552930192601f1990910190600101612c31565b91905092919280612c6157505050565b5f199060031b1c90818351169119905416179052565b6020805b80821015612c8e575080612c6157505050565b6001838293959454855201920192601f190190612c7b565b9081518111612cc5576001600160801b031660209190910160801b1790565b6040516323230fa360e01b81526060600482015292508291612ceb906064840190611cc2565b905f602484015260448301520390fd5b9091612d126108a8936060845260608401906112d6565b915f60208201526040818403910152611cc2565b65ffffffffffff612d436108a895936060845260608401906112d6565b931660208201526040818403910152611cc2565b65ffffffffffff612d936108a895936f436f6d626174456e636f756e74657200631d18955160e21b0184526080602085015260808401906112d6565b931660408201526060818403910152611cc2565b6614dc185ddb9959604a1b631d18955160e21b0181526080602082018190526108a8939192612dd8918401906112d6565b915f60408201526060818403910152611cc2565b9190612df783613245565b91612e006134bd565b905f5b8251811015612e8c57612e1c61246e6124608386610873565b9060049182808260581c1614612e38575b506001915001612e03565b60601c803b156100c857855f918983612e66966040519788958694859363964f667d60e01b85528401612da7565b03925af191821561054d5760019215612e2d5780610b31612e8692610146565b5f612e2d565b5060408051919490939291612ed59184916614dc185ddb9959604a1b631d18955160e21b01905f8051602061365b8339815191529080612ecd868d83612cfb565b0390a2613561565b5f5b8151811015612f6157612ef061246e6124608385610873565b6008808260581c1614612f07575b50600101612ed7565b60601c90813b156100c857845163a8ba872160e01b8152915f908390818381612f348a8e60048401612da7565b03925af191821561054d57600192612f4e575b5090612efe565b80610b31612f5b92610146565b5f612f47565b505050509050565b60405190612fb36020830183612f7f8483612b1b565b0393612f93601f199586810183528261018f565b5190205f805160206136db833981519152185460381c64ffffffffff1690565b8015808015613019575b612fe9575050612fcf6108a891612bdd565b60405192605f840116604052602083526020830190612c77565b15613011575f905b61300d604051928392637e8578d360e01b8452600484016108ea565b0390fd5b601f90612ff1565b5081602011612fbd565b9081518060051b602091808204602014811517156108d85790604051946020860191601f19603f8289010116604052865260205f9101905b838110613069575050505050565b81518352918401919084019060010161305b565b90815191600190838004600114841517156108d85760408051808601603f01601f191690915284815293906020908186019082015f5b8481106130c257505050505050565b815160f81b8352918501919083019085016130b3565b906108a894926130f3613101926080855260808501906112d6565b908382036020850152611cc2565b9260408201526060818403910152611cc2565b95949361316061143b9361315260a096946f436f6d626174456e636f756e74657200631d18955160e21b018b5260c060208c015260c08b01906112d6565b9089820360408b0152611cc2565b9160608801528682036080880152611cc2565b60405160208160208101936f43686172616374657245717569706d65631d18955160e21b0185526040820160208251919201935f5b8281106131da575050506131c5925003601f19810183528261018f565b5190205f805160206136db8339815191521890565b8551845294810194869450928101926001016131a8565b6040516131c58161148e602082019485612adc565b6040516131c58161148e602082019485612b61565b6040516132308161148e602082019485612b61565b5190205f8051602061367b8339815191521890565b60405160208160208101936614dc185ddb9959604a1b631d18955160e21b0185526040820160208251919201935f5b82811061329157505050613230925003601f19810183528261018f565b855184529481019486945092810192600101613274565b60405190602090601f19908160e285011660405260a38452602084019260a391925b818310156132fc575050806132e0575b50505090565b5f199060031b1c908183511691199054161790525f80806132da565b816001858394959796548752019401940191906132ca565b60408051601f19603f85830101811690925283815292602080850193925b81831015613347575050806132e05750505090565b81600185839495979654875201940194019190613332565b6040805160206020600160801b0384168201810190925260016001607b1b03600584901c1680825290939260801c8285015f5b8381106133a0575050505050565b825182529184019190840190600101613392565b6133bc610ddd565b80511561084e5761346f6134676020926f436f6d626174456e636f756e74657200631d18955160e21b018482015264ffffffffff604051915f805160206136bb833981519152868401846134108483612a91565b0394613424601f199687810183528261018f565b519020189261344a604051918261343e8a82019586612a91565b0390810183528261018f565b5190205f805160206136db833981519152185460381c1690613314565b805190612ca6565b8060801c916015809260018060801b0316049060405193818501828460051b8701016040528386525f5b8481106134a95750505050505090565b825182529185019190830190600101613499565b6134c5610ddd565b80511561084e576135136134676020926614dc185ddb9959604a1b631d18955160e21b018482015264ffffffffff604051915f805160206136bb833981519152868401846134108483612a91565b8060801c916015809260018060801b0316049060405193818501828460051b8701016040528386525f5b84811061354d5750505050505090565b82518252918501919083019060010161353d565b81516101df9260200191613581565b82516101df936020019290916135ca565b9291925b6020908183106135a55784518155930192601f1990910190600101613585565b9293919050806135b457505050565b5f199060031b1c90818354169119905116179055565b9093929193806135f9575b509290926020908183106135a55784518155930192601f1990910190600101613585565b602081101561364a575b80156135d55791939082602003908360031b5f198460031b1c19811c908751901c908019835416911617815581831115612f6157600101940191601f19910101925f6135d5565b90601f908260051c01911661360356fe8c0b5119d4cec7b284c6b1b39252a03d1e2f2d7451a5895562524c113bb952be86425bff6b57326c7859e89024fe4f238ca327a1ae4a230180dd2f0e88aaa7d98dbb3a9672eebfd3773e72dd9c102393436816d832c7ba9e1e1ac8fcadcac7a93b4102da22e32d82fc925482184f16c09fd4281692720b87d124aef6da48a0f114e2fcc58e58e68ec7edc30c8d50dccc3ce2714a623ec81f46b6a63922d7656974625544000000000000000000000000436f6d626174456e636f756e74657200","linkReferences":{}},"methodIdentifiers":{"_msgSender()":"119df25f","_msgValue()":"45ec9354","_world()":"e1af802c","executePvECombat(uint256,bytes32,(bytes32,bytes32,uint256)[])":"49789fa1","isValidPvE(bytes32[],bytes32[],uint16,uint16)":"15451020","supportsInterface(bytes4)":"01ffc9a7"},"id":381}