{"abi":[{"type":"function","name":"_calculateMagicAttack","inputs":[],"outputs":[],"stateMutability":"nonpayable"},{"type":"function","name":"_msgSender","inputs":[],"outputs":[{"name":"sender","type":"address","internalType":"address"}],"stateMutability":"view"},{"type":"function","name":"_msgValue","inputs":[],"outputs":[{"name":"value","type":"uint256","internalType":"uint256"}],"stateMutability":"pure"},{"type":"function","name":"_world","inputs":[],"outputs":[{"name":"","type":"address","internalType":"address"}],"stateMutability":"view"},{"type":"function","name":"executeAction","inputs":[{"name":"actionOutcomeData","type":"tuple","internalType":"struct ActionOutcomeData","components":[{"name":"actionId","type":"bytes32","internalType":"bytes32"},{"name":"weaponId","type":"uint256","internalType":"uint256"},{"name":"attackerId","type":"bytes32","internalType":"bytes32"},{"name":"defenderId","type":"bytes32","internalType":"bytes32"},{"name":"hit","type":"bool","internalType":"bool"},{"name":"miss","type":"bool","internalType":"bool"},{"name":"crit","type":"bool","internalType":"bool"},{"name":"attackerDamageDelt","type":"int256","internalType":"int256"},{"name":"defenderDamageDelt","type":"int256","internalType":"int256"},{"name":"attackerDied","type":"bool","internalType":"bool"},{"name":"defenderDied","type":"bool","internalType":"bool"},{"name":"blockNumber","type":"uint256","internalType":"uint256"},{"name":"timestamp","type":"uint256","internalType":"uint256"}]},{"name":"randomNumber","type":"uint256","internalType":"uint256"}],"outputs":[{"name":"","type":"tuple","internalType":"struct ActionOutcomeData","components":[{"name":"actionId","type":"bytes32","internalType":"bytes32"},{"name":"weaponId","type":"uint256","internalType":"uint256"},{"name":"attackerId","type":"bytes32","internalType":"bytes32"},{"name":"defenderId","type":"bytes32","internalType":"bytes32"},{"name":"hit","type":"bool","internalType":"bool"},{"name":"miss","type":"bool","internalType":"bool"},{"name":"crit","type":"bool","internalType":"bool"},{"name":"attackerDamageDelt","type":"int256","internalType":"int256"},{"name":"defenderDamageDelt","type":"int256","internalType":"int256"},{"name":"attackerDied","type":"bool","internalType":"bool"},{"name":"defenderDied","type":"bool","internalType":"bool"},{"name":"blockNumber","type":"uint256","internalType":"uint256"},{"name":"timestamp","type":"uint256","internalType":"uint256"}]}],"stateMutability":"nonpayable"},{"type":"function","name":"getDied","inputs":[{"name":"entityId","type":"bytes32","internalType":"bytes32"}],"outputs":[{"name":"isDied","type":"bool","internalType":"bool"}],"stateMutability":"view"},{"type":"function","name":"getEncounter","inputs":[{"name":"encounterId","type":"bytes32","internalType":"bytes32"}],"outputs":[{"name":"","type":"tuple","internalType":"struct CombatEncounterData","components":[{"name":"encounterType","type":"uint8","internalType":"enum EncounterType"},{"name":"start","type":"uint256","internalType":"uint256"},{"name":"end","type":"uint256","internalType":"uint256"},{"name":"rewardsDistributed","type":"bool","internalType":"bool"},{"name":"currentTurn","type":"uint256","internalType":"uint256"},{"name":"maxTurns","type":"uint256","internalType":"uint256"},{"name":"defenders","type":"bytes32[]","internalType":"bytes32[]"},{"name":"attackers","type":"bytes32[]","internalType":"bytes32[]"}]}],"stateMutability":"view"},{"type":"function","name":"supportsInterface","inputs":[{"name":"interfaceId","type":"bytes4","internalType":"bytes4"}],"outputs":[{"name":"","type":"bool","internalType":"bool"}],"stateMutability":"pure"},{"type":"event","name":"Store_SpliceStaticData","inputs":[{"name":"tableId","type":"bytes32","indexed":true,"internalType":"ResourceId"},{"name":"keyTuple","type":"bytes32[]","indexed":false,"internalType":"bytes32[]"},{"name":"start","type":"uint48","indexed":false,"internalType":"uint48"},{"name":"data","type":"bytes","indexed":false,"internalType":"bytes"}],"anonymous":false},{"type":"error","name":"Slice_OutOfBounds","inputs":[{"name":"data","type":"bytes","internalType":"bytes"},{"name":"start","type":"uint256","internalType":"uint256"},{"name":"end","type":"uint256","internalType":"uint256"}]},{"type":"error","name":"World_AccessDenied","inputs":[{"name":"resource","type":"string","internalType":"string"},{"name":"caller","type":"address","internalType":"address"}]}],"bytecode":{"object":"0x608060405234801561001057600080fd5b50612f14806100206000396000f3fe608060405234801561001057600080fd5b50600436106100885760003560e01c80636783d47a1161005b5780636783d47a14610108578063bfea0b8514610128578063def4c3ff1461012a578063e1af802c1461013d57600080fd5b806301ffc9a71461008d578063119df25f146100b557806345ec9354146100d55780634dda27e8146100e8575b600080fd5b6100a061009b3660046122bb565b610145565b60405190151581526020015b60405180910390f35b6100bd6101de565b6040516001600160a01b0390911681526020016100ac565b604051601f1936013581526020016100ac565b6100fb6100f63660046122fd565b6101ed565b6040516100ac9190612368565b61011b6101163660046124d1565b610241565b6040516100ac91906125b0565b005b6100a06101383660046122fd565b6104d6565b6100bd6104e1565b60007fffffffff0000000000000000000000000000000000000000000000000000000082167fb5dee1270000000000000000000000000000000000000000000000000000000014806101d857507fffffffff0000000000000000000000000000000000000000000000000000000082167f01ffc9a700000000000000000000000000000000000000000000000000000000145b92915050565b60006101e86104eb565b905090565b61023860408051610100810190915280600081526020016000815260200160008152602001600015158152602001600081526020016000815260200160608152602001606081525090565b6101d88261051d565b604080516101a081018252600080825260208201819052918101829052606081018290526080810182905260a0810182905260c0810182905260e0810182905261010081018290526101208101829052610140810182905261016081018290526101808101919091526102bb306102b66101de565b610612565b6102c883604001516104d6565b1580156102df57506102dd83606001516104d6565b155b156104cf5760006102f38460000151610628565b9050806020015151600003610369576040517f08c379a000000000000000000000000000000000000000000000000000000000815260206004820152601560248201527f616374696f6e20646f6573206e6f74206578697374000000000000000000000060448201526064015b60405180910390fd5b8051600381111561037c5761037c612316565b60ff1660010361043757600081602001518060200190518101906103a09190612706565b90506103bb81866040015187606001518860200151886106dd565b151560c0880152158015608088015260e0870191909152610429576000620186a08660e001516103eb91906127ca565b6103f88760600151610b1a565b6104029190612814565b9050600081136104155760016101408701525b610423866060015182610bb4565b50610431565b600160a08601525b50610499565b6040517f08c379a000000000000000000000000000000000000000000000000000000000815260206004820152601a60248201527f616374696f6e2074797065206e6f74207265636f676e697a65640000000000006044820152606401610360565b836101400151156104b3576104b384606001516001610c6d565b836101200151156104cd576104cd84604001516001610c6d565b505b5090919050565b60006101d882610d26565b60006101e8610dc4565b7fffffffffffffffffffffffffffffffffffffffffffffffffffffffffffffffcc36013560601c8061051a5750335b90565b61056860408051610100810190915280600081526020016000815260200160008152602001600015158152602001600081526020016000815260200160608152602001606081525090565b60408051600180825281830190925260009160208083019080368337019050509050828160008151811061059e5761059e61283b565b6020908102919091010152600080806105f77f74625544000000000000000000000000436f6d626174456e636f756e74657200857e82060201202001202000000000000000000000000000000000000000000000610dce565b925092509250610608838383610e9e565b9695505050505050565b61062461061e83610f5e565b82610ffb565b5050565b6040805180820190915260008152606060208201526040805160018082528183019092526000916020808301908036833701905050905082816000815181106106735761067361283b565b6020908102919091010152600080806106cc7f74625544000000000000000000000000416374696f6e73000000000000000000857e01010101000000000000000000000000000000000000000000000000000000610dce565b925092509250610608838383611047565b6000806000806106eb6104e1565b6001600160a01b03166354f1f2db896040518263ffffffff1660e01b815260040161071891815260200190565b60e060405180830381865afa158015610735573d6000803e3d6000fd5b505050506040513d601f19601f820116820180604052508101906107599190612851565b905060006107656104e1565b6001600160a01b03166354f1f2db896040518263ffffffff1660e01b815260040161079291815260200190565b60e060405180830381865afa1580156107af573d6000803e3d6000fd5b505050506040513d601f19601f820116820180604052508101906107d39190612851565b905060006107df6104e1565b6001600160a01b031663810c1dc1896040518263ffffffff1660e01b815260040161080c91815260200190565b600060405180830381865afa158015610829573d6000803e3d6000fd5b505050506040513d6000823e601f3d908101601f1916820160405261085191908101906128d5565b905060008260a001511315610aff576040517f4dddf8370000000000000000000000000000000000000000000000000000000081526004810188905260009073__$227e4555c1f608352b26068e438454dd8b$__90634dddf83790602401600060405180830381865af41580156108cc573d6000803e3d6000fd5b505050506040513d6000823e601f3d908101601f191682016040526108f4919081019061298c565b905061094b8160008151811061090c5761090c61283b565b602002602001015167ffffffffffffffff16826001815181106109315761093161283b565b602002602001015167ffffffffffffffff168e87876110a4565b90965094508515610ab257620186a060008d6000015185606001516109709190612814565b1361097c57600161098d565b8c51606085015161098d9190612814565b6109979190612a31565b8451620186a0906109aa90600490612a48565b8460a001518560800151856002815181106109c7576109c761283b565b602002602001015167ffffffffffffffff166109e39190612a5c565b1115610a2257846080015184600281518110610a0157610a0161283b565b602002602001015167ffffffffffffffff16610a1d9190612a5c565b610a28565b8460a001515b8f60400151610a379190612a70565b610a419190612a70565b610a4b9190612a98565b610a559190612814565b96508415610aad57610a9b6040518060400160405280600581526020017f4352495421000000000000000000000000000000000000000000000000000000815250611135565b610aa6600288612a98565b9650600194505b610af9565b610af06040518060400160405280600581526020017f4d49535321000000000000000000000000000000000000000000000000000000815250611135565b60009650600095505b50610b0c565b6000955060009450600093505b505050955095509592505050565b604080516001808252818301909252600091829190602080830190803683370190505090508281600081518110610b5357610b5361283b565b60209081029190910101526000610bac7f74625544000000000000000000000000537461747300000000000000000000008360057ee10800202001202020202000000000000000000000000000000000000000006111a9565b949350505050565b604080516001808252818301909252600091602080830190803683370190505090508281600081518110610bea57610bea61283b565b602002602001018181525050610c687f746255440000000000000000000000005374617473000000000000000000000060001b82600585604051602001610c3391815260200190565b60408051601f198184030181529190527ee1080020200120202020200000000000000000000000000000000000000000611266565b505050565b604080516001808252818301909252600091602080830190803683370190505090508281600081518110610ca357610ca361283b565b602002602001018181525050610c687f74625544000000000000000000000000456e636f756e746572456e746974790060001b82600185604051602001610cf191151560f81b815260010190565b60408051601f198184030181529190527e21020020010000000000000000000000000000000000000000000000000000611266565b604080516001808252818301909252600091829190602080830190803683370190505090508281600081518110610d5f57610d5f61283b565b60209081029190910101526000610db87f74625544000000000000000000000000456e636f756e746572456e74697479008360017e210200200100000000000000000000000000000000000000000000000000006111a9565b9050610bac8160f81c90565b60006101e861131c565b6060600060606000610dde61131c565b9050306001600160a01b03821603610e0757610dfb87878761135b565b93509350935050610e95565b6040517f419b58fd0000000000000000000000000000000000000000000000000000000081526001600160a01b0382169063419b58fd90610e50908a908a908a90600401612ae4565b600060405180830381865afa158015610e6d573d6000803e3d6000fd5b505050506040513d6000823e601f3d908101601f19168201604052610dfb9190810190612b95565b93509350939050565b610ee960408051610100810190915280600081526020016000815260200160008152602001600015158152602001600081526020016000815260200160608152602001606081525090565b610ef284611463565b60a08701819052608087018290528215156060880152604087018490526020870185905286866001811115610f2957610f29612316565b6001811115610f3a57610f3a612316565b815250505050505050610f4d83836114be565b60e083015260c08201529392505050565b60408051600180825281830190925260009182919060208083019080368337019050509050826001600160a01b031660001b81600081518110610fa357610fa361283b565b60209081029190910101526000610bac7f7462776f726c6400000000000000000053797374656d5265676973747279000083837e200100200000000000000000000000000000000000000000000000000000006111a9565b611005828261150d565b6106245761101282611572565b816040517fd787b737000000000000000000000000000000000000000000000000000000008152600401610360929190612c2e565b604080518082019091526000815260606020820152611065846116af565b8190600381111561107857611078612316565b9081600381111561108b5761108b612316565b90525061109883836116cb565b60208201529392505050565b60008080620249f06110b760648a612a5c565b6110c9876020015189602001516116f7565b6110d39190612c59565b6110dd9190612a31565b90506000620186a0856020015160648a6110f79190612a5c565b6111019190612c59565b61110b9190612a31565b9050808211935083156111295760026111248284612a48565b101592505b50509550959350505050565b6111a6816040516024016111499190612c6c565b60408051601f198184030181529190526020810180517bffffffffffffffffffffffffffffffffffffffffffffffffffffffff167f41304fac00000000000000000000000000000000000000000000000000000000179052611724565b50565b6000806111b461131c565b9050306001600160a01b038216036111da576111d28686868661172d565b915050610bac565b6040517f8c364d590000000000000000000000000000000000000000000000000000000081526001600160a01b03821690638c364d5990611225908990899089908990600401612c7f565b602060405180830381865afa158015611242573d6000803e3d6000fd5b505050506040513d601f19601f820116820180604052508101906111d29190612cae565b600061127061131c565b9050306001600160a01b038216036112945761128f868686868661175a565b611314565b6040517f390baae00000000000000000000000000000000000000000000000000000000081526001600160a01b0382169063390baae0906112e19089908990899089908990600401612cc7565b600060405180830381600087803b1580156112fb57600080fd5b505af115801561130f573d6000803e3d6000fd5b505050505b505050505050565b7f629a4c26e296b22a8e0856e9f6ecb2d1008d7e00081111962cd175fa7488e175546000906001600160a01b031680611356573391505090565b919050565b606060006060600061136c85611776565b9050611379878783611799565b93506000611386866117d2565b9050801561145857611398888861180f565b935066ffffffffffffff841667ffffffffffffffff8111156113bc576113bc612409565b6040519080825280601f01601f1916602001820160405280156113e6576020820181803683370190505b5092506020830160005b828160ff1610156114555760006114088b8b84611822565b90506000611425888460ff166028026038011c64ffffffffff1690565b905061143482600083876118a2565b61143e8185612c59565b93505050808061144d90612d0e565b9150506113f0565b50505b505093509350939050565b60008060008060008061147a876000016020015190565b60f81c600181111561148e5761148e612316565b6021880151604189015160618a015160628b01516082909b0151939b929a91995060f81c97509550909350915050565b6060806000603885901c64ffffffffff166114e26114dd86848461196d565b6119fb565b935090508064ffffffffff606087901c16016115026114dd86848461196d565b925050509250929050565b600061155b7f6e730000000000000000000000000000000000000000000000000000000000007dffffffffffffffffffffffffffff0000000000000000000000000000000085161783611a0c565b8061156b575061156b8383611a0c565b9392505050565b606081601081901b600061158583611ad5565b9050827fffffffffffffffffffffffffffff0000000000000000000000000000000000008316156115e0576115db7fffffffffffffffffffffffffffff0000000000000000000000000000000000008416611aec565b611617565b6040518060400160405280600681526020017f3c726f6f743e00000000000000000000000000000000000000000000000000008152505b7fffffffffffffffffffffffffffffffff0000000000000000000000000000000083161561164d5761164883611aec565b611684565b6040518060400160405280600681526020017f3c726f6f743e00000000000000000000000000000000000000000000000000008152505b60405160200161169693929190612d2d565b6040516020818303038152906040529350505050919050565b602081015160009060f81c60038111156101d8576101d8612316565b60606000603884901c64ffffffffff166116ee6116e985848461196d565b611b90565b95945050505050565b60008082126117115761170a8284612c59565b90506101d8565b61171a82612dbb565b61170a9084612df3565b6111a681611c10565b60006116ee61173c8686611c31565b60ff858116601b0360080285901c166117558587611c87565b611cc0565b61176f85856117698487611c87565b85611d11565b5050505050565b6000600861178660026020612df3565b6117909190612a31565b9190911c919050565b6060816000036117b8575060408051602081019091526000815261156b565b60006117c48585611c31565b90506116ee81600085611fb5565b600060086001806117e560026020612df3565b6117ef9190612df3565b6117f99190612df3565b6118039190612a31565b8260ff911c1692915050565b600061156b61181e8484611fd8565b5490565b60008383604051602001611837929190612e06565b604051602081830303815290604052805190602001208260f81b7effffffffffffffffffffffffffffffffffffffffffffffffffffffffffffff19167f3b4102da22e32d82fc925482184f16c09fd4281692720b87d124aef6da48a0f1181860001c90509392505050565b821561192957602083106118cc576020830484019350602083816118c8576118c861279e565b0692505b82156119295760208390036000818410156118ef5750600019600884021c6118f9565b50600019600882021c5b8554600886021b81845116821982161784525081841161191a575050611967565b50600194909401939182900391015b5b6020821061194b5783548152600190930192601f199091019060200161192a565b81156119675780518454600019600885021c9182169119161781525b50505050565b60008183118061197d5750835182115b156119ba578383836040517f23230fa300000000000000000000000000000000000000000000000000000000815260040161036093929190612e42565b602084016119c88482612c59565b905060006119d68585612df3565b6fffffffffffffffffffffffffffffffff1660809290921b9190911795945050505050565b6060600061156b836020600061202e565b604080516002808252606082018352600092839291906020830190803683370190505090508381600081518110611a4557611a4561283b565b602002602001018181525050826001600160a01b031660001b81600181518110611a7157611a7161283b565b60209081029190910101526000611ac97f7462776f726c640000000000000000005265736f75726365416363657373000083837e010100010000000000000000000000000000000000000000000000000000006111a9565b90506116ee8160f81c90565b6000611ae360706010612c59565b9190911b919050565b606060005b6010811015611b51577fffffffffffffffffffffffffffffffff000000000000000000000000000000008316600882021b7fff000000000000000000000000000000000000000000000000000000000000001615611b5157600101611af1565b604080517fffffffffffffffffffffffffffffffff00000000000000000000000000000000851660208201528151603090910190915281815280610bac565b60606000611b9e8360801c90565b90506fffffffffffffffffffffffffffffffff83168067ffffffffffffffff811115611bcc57611bcc612409565b6040519080825280601f01601f191660200182016040528015611bf6576020820181803683370190505b50925060208301611c088382846120a9565b505050919050565b80516a636f6e736f6c652e6c6f67602083016000808483855afa5050505050565b60008282604051602001611c46929190612e06565b60408051601f1981840301815291905280516020909101207f86425bff6b57326c7859e89024fe4f238ca327a1ae4a230180dd2f0e88aaa7d9189392505050565b600080805b8360ff16811015611cb857611cae60ff601b83900360080287901c1683612c59565b9150600101611c8c565b509392505050565b600060208210611ce657602082048401935060208281611ce257611ce261279e565b0691505b508254600882021b602082900380841115611cb8576001850154600882021c82179150509392505050565b7f6f74000000000000000000000000000000000000000000000000000000000000847fffff0000000000000000000000000000000000000000000000000000000000001603611d9b57837f8c0b5119d4cec7b284c6b1b39252a03d1e2f2d7451a5895562524c113bb952be848484604051611d8e93929190612e67565b60405180910390a2611967565b6000611da78585611c31565b90506000611db4866120f4565b905060005b8151811015611e89576000828281518110611dd657611dd661283b565b60200260200101519050611e026004826affffffffffffffffffffff191661217d90919063ffffffff16565b15611e80576040517f964f667d000000000000000000000000000000000000000000000000000000008152606082901c9063964f667d90611e4d908b908b908b908b90600401612e9a565b600060405180830381600087803b158015611e6757600080fd5b505af1158015611e7b573d6000803e3d6000fd5b505050505b50600101611db9565b50857f8c0b5119d4cec7b284c6b1b39252a03d1e2f2d7451a5895562524c113bb952be868686604051611ebe93929190612e67565b60405180910390a2611ed9828565ffffffffffff168561219b565b60005b8151811015611fac576000828281518110611ef957611ef961283b565b60200260200101519050611f256008826affffffffffffffffffffff191661217d90919063ffffffff16565b15611fa3576040517fa8ba8721000000000000000000000000000000000000000000000000000000008152606082901c9063a8ba872190611f70908b908b908b908b90600401612e9a565b600060405180830381600087803b158015611f8a57600080fd5b505af1158015611f9e573d6000803e3d6000fd5b505050505b50600101611edc565b50505050505050565b60405160208101601f19603f8484010116604052828252611cb8858585846118a2565b60008282604051602001611fed929190612e06565b60408051601f1981840301815291905280516020909101207f14e2fcc58e58e68ec7edc30c8d50dccc3ce2714a623ec81f46b6a63922d76569189392505050565b6060600061203c8560801c90565b90506fffffffffffffffffffffffffffffffff851660008582816120625761206261279e565b04905060405193506020840160208202810160405281855260005b8281101561209d578451871c82529387019360209091019060010161207d565b50505050509392505050565b5b602081106120c9578251825260209283019290910190601f19016120aa565b806000036120d657505050565b6000600019600883021c905080835116811985511617835250505050565b6040805160018082528183019092526060916000919060208083019080368337019050509050828160008151811061212e5761212e61283b565b602090810291909101015260006121667f746273746f726500000000000000000053746f7265486f6f6b7300000000000083836121b1565b9050610bac612178826000845161196d565b6121eb565b60008160ff168261218e8560581c90565b1660ff1614905092915050565b610c68838383516121ac8560200190565b6121fc565b6060610bac6121c1858585611822565b60006121e6856121d1898961180f565b9060ff166028026038011c64ffffffffff1690565b611fb5565b6060600061156b836015600061202e565b82156122765760208310612226576020830484019350602083816122225761222261279e565b0692505b82156122765760208390036000600019600885021c1990506008850281811c91508351811c9050811987541682821617875550818411612267575050611967565b50600194909401939182900391015b5b602082106122985780518455600190930192601f1990910190602001612277565b8115611967576000600019600884021c8554835182191691161785555050505050565b6000602082840312156122cd57600080fd5b81357fffffffff000000000000000000000000000000000000000000000000000000008116811461156b57600080fd5b60006020828403121561230f57600080fd5b5035919050565b634e487b7160e01b600052602160045260246000fd5b60008151808452602080850194506020840160005b8381101561235d57815187529582019590820190600101612341565b509495945050505050565b60208152600082516002811061238e57634e487b7160e01b600052602160045260246000fd5b80602084015250602083015160408301526040830151606083015260608301516123bc608084018215159052565b50608083015160a083015260a083015160c083015260c08301516101008060e08501526123ed61012085018361232c565b915060e0850151601f198584030182860152610608838261232c565b634e487b7160e01b600052604160045260246000fd5b6040516101a0810167ffffffffffffffff8111828210171561244357612443612409565b60405290565b60405160a0810167ffffffffffffffff8111828210171561244357612443612409565b604051610100810167ffffffffffffffff8111828210171561244357612443612409565b604051601f8201601f1916810167ffffffffffffffff811182821017156124b9576124b9612409565b604052919050565b8035801515811461135657600080fd5b6000808284036101c08112156124e657600080fd5b6101a0808212156124f657600080fd5b6124fe61241f565b91508435825260208501356020830152604085013560408301526060850135606083015261252e608086016124c1565b608083015261253f60a086016124c1565b60a083015261255060c086016124c1565b60c083015260e085013560e08301526101008086013581840152506101206125798187016124c1565b9083015261014061258b8682016124c1565b9083015261016085810135908301526101808086013590830152909593013593505050565b60006101a0820190508251825260208301516020830152604083015160408301526060830151606083015260808301516125ee608084018215159052565b5060a083015161260260a084018215159052565b5060c083015161261660c084018215159052565b5060e0838101519083015261010080840151908301526101208084015115159083015261014080840151151590830152610160808401519083015261018092830151929091019190915290565b600067ffffffffffffffff82111561267d5761267d612409565b5060051b60200190565b600082601f83011261269857600080fd5b815160206126ad6126a883612663565b612490565b8083825260208201915060208460051b8701019350868411156126cf57600080fd5b602086015b848110156126fb57805160ff811681146126ee5760008081fd5b83529183019183016126d4565b509695505050505050565b60006020828403121561271857600080fd5b815167ffffffffffffffff8082111561273057600080fd5b9083019060a0828603121561274457600080fd5b61274c612449565b82518152602083015160208201526040830151604082015260608301518281111561277657600080fd5b61278287828601612687565b6060830152506080830151608082015280935050505092915050565b634e487b7160e01b600052601260045260246000fd5b634e487b7160e01b600052601160045260246000fd5b6000826127d9576127d961279e565b60001983147f80000000000000000000000000000000000000000000000000000000000000008314161561280f5761280f6127b4565b500590565b8181036000831280158383131683831282161715612834576128346127b4565b5092915050565b634e487b7160e01b600052603260045260246000fd5b600060e0828403121561286357600080fd5b60405160e0810181811067ffffffffffffffff8211171561288657612886612409565b8060405250825181526020830151602082015260408301516040820152606083015160608201526080830151608082015260a083015160a082015260c083015160c08201528091505092915050565b6000602082840312156128e757600080fd5b815167ffffffffffffffff808211156128ff57600080fd5b90830190610100828603121561291457600080fd5b61291c61246c565b8251815260208301518281111561293257600080fd5b61293e87828601612687565b60208301525060408301516040820152606083015160608201526080830151608082015260a083015160a082015260c083015160c082015260e083015160e082015280935050505092915050565b6000602080838503121561299f57600080fd5b825167ffffffffffffffff808211156129b757600080fd5b818501915085601f8301126129cb57600080fd5b81516129d96126a882612663565b81815260059190911b830184019084810190888311156129f857600080fd5b938501935b82851015612a255784518481168114612a165760008081fd5b825293850193908501906129fd565b98975050505050505050565b80820281158282048414176101d8576101d86127b4565b600082612a5757612a5761279e565b500490565b600082612a6b57612a6b61279e565b500690565b8082018281126000831280158216821582161715612a9057612a906127b4565b505092915050565b808202600082127f800000000000000000000000000000000000000000000000000000000000000084141615612ad057612ad06127b4565b81810583148215176101d8576101d86127b4565b838152606060208201526000612afd606083018561232c565b9050826040830152949350505050565b60005b83811015612b28578181015183820152602001612b10565b50506000910152565b600082601f830112612b4257600080fd5b815167ffffffffffffffff811115612b5c57612b5c612409565b612b6f6020601f19601f84011601612490565b818152846020838601011115612b8457600080fd5b610bac826020830160208701612b0d565b600080600060608486031215612baa57600080fd5b835167ffffffffffffffff80821115612bc257600080fd5b612bce87838801612b31565b9450602086015193506040860151915080821115612beb57600080fd5b50612bf886828701612b31565b9150509250925092565b60008151808452612c1a816020860160208601612b0d565b601f01601f19169290920160200192915050565b604081526000612c416040830185612c02565b90506001600160a01b03831660208301529392505050565b808201808211156101d8576101d86127b4565b60208152600061156b6020830184612c02565b848152608060208201526000612c98608083018661232c565b60ff949094166040830152506060015292915050565b600060208284031215612cc057600080fd5b5051919050565b85815260a060208201526000612ce060a083018761232c565b60ff861660408401528281036060840152612cfb8186612c02565b9150508260808301529695505050505050565b600060ff821660ff8103612d2457612d246127b4565b60010192915050565b7fffff0000000000000000000000000000000000000000000000000000000000008416815260007f3a000000000000000000000000000000000000000000000000000000000000008060028401528451612d8e816003860160208901612b0d565b808401905081600382015284519150612dae826004830160208801612b0d565b0160040195945050505050565b60007f80000000000000000000000000000000000000000000000000000000000000008203612dec57612dec6127b4565b5060000390565b818103818111156101d8576101d86127b4565b8281526000602080830184516020860160005b82811015612e3557815184529284019290840190600101612e19565b5091979650505050505050565b606081526000612e556060830186612c02565b60208301949094525060400152919050565b606081526000612e7a606083018661232c565b65ffffffffffff8516602084015282810360408401526106088185612c02565b848152608060208201526000612eb3608083018661232c565b65ffffffffffff851660408401528281036060840152612ed38185612c02565b97965050505050505056fea264697066735822122077184a8379e91aa8d230d7251ec75f0a197cefb6bcc804b57b65a7ee01ad9d7964736f6c63430008180033","linkReferences":{"src/libraries/LibChunks.sol":{"LibChunks":[{"start":2226,"length":20}]}}},"methodIdentifiers":{"_calculateMagicAttack()":"bfea0b85","_msgSender()":"119df25f","_msgValue()":"45ec9354","_world()":"e1af802c","executeAction((bytes32,uint256,bytes32,bytes32,bool,bool,bool,int256,int256,bool,bool,uint256,uint256),uint256)":"6783d47a","getDied(bytes32)":"def4c3ff","getEncounter(bytes32)":"4dda27e8","supportsInterface(bytes4)":"01ffc9a7"},"id":223}