{"abi":[{"type":"function","name":"_calculateMagicAttack","inputs":[],"outputs":[],"stateMutability":"nonpayable"},{"type":"function","name":"_msgSender","inputs":[],"outputs":[{"name":"sender","type":"address","internalType":"address"}],"stateMutability":"view"},{"type":"function","name":"_msgValue","inputs":[],"outputs":[{"name":"value","type":"uint256","internalType":"uint256"}],"stateMutability":"pure"},{"type":"function","name":"_world","inputs":[],"outputs":[{"name":"","type":"address","internalType":"address"}],"stateMutability":"view"},{"type":"function","name":"createMatch","inputs":[{"name":"encounterType","type":"uint8","internalType":"enum EncounterType"},{"name":"attackers","type":"bytes32[]","internalType":"bytes32[]"},{"name":"defenders","type":"bytes32[]","internalType":"bytes32[]"}],"outputs":[{"name":"encounterId","type":"bytes32","internalType":"bytes32"}],"stateMutability":"nonpayable"},{"type":"function","name":"endTurn","inputs":[{"name":"encounterId","type":"bytes32","internalType":"bytes32"},{"name":"playerId","type":"bytes32","internalType":"bytes32"},{"name":"actions","type":"tuple[]","internalType":"struct Action[]","components":[{"name":"attackerEntityId","type":"bytes32","internalType":"bytes32"},{"name":"defenderEntityId","type":"bytes32","internalType":"bytes32"},{"name":"actionId","type":"bytes32","internalType":"bytes32"},{"name":"weaponId","type":"uint256","internalType":"uint256"}]}],"outputs":[],"stateMutability":"payable"},{"type":"function","name":"executeCombat","inputs":[{"name":"randomNumber","type":"uint256","internalType":"uint256"},{"name":"encounterId","type":"bytes32","internalType":"bytes32"},{"name":"actions","type":"tuple[]","internalType":"struct Action[]","components":[{"name":"attackerEntityId","type":"bytes32","internalType":"bytes32"},{"name":"defenderEntityId","type":"bytes32","internalType":"bytes32"},{"name":"actionId","type":"bytes32","internalType":"bytes32"},{"name":"weaponId","type":"uint256","internalType":"uint256"}]}],"outputs":[],"stateMutability":"nonpayable"},{"type":"function","name":"getEncounter","inputs":[{"name":"encounterId","type":"bytes32","internalType":"bytes32"}],"outputs":[{"name":"_encounterData","type":"tuple","internalType":"struct CombatEncounterData","components":[{"name":"encounterType","type":"uint8","internalType":"enum EncounterType"},{"name":"start","type":"uint256","internalType":"uint256"},{"name":"end","type":"uint256","internalType":"uint256"},{"name":"currentTurn","type":"uint256","internalType":"uint256"},{"name":"maxTurns","type":"uint256","internalType":"uint256"},{"name":"defenders","type":"bytes32[]","internalType":"bytes32[]"},{"name":"attackers","type":"bytes32[]","internalType":"bytes32[]"}]}],"stateMutability":"view"},{"type":"function","name":"isParticipant","inputs":[{"name":"account","type":"address","internalType":"address"},{"name":"participants","type":"bytes32[]","internalType":"bytes32[]"}],"outputs":[{"name":"_isParticipant","type":"bool","internalType":"bool"}],"stateMutability":"view"},{"type":"function","name":"isParticipant","inputs":[{"name":"playerId","type":"bytes32","internalType":"bytes32"},{"name":"encounterId","type":"bytes32","internalType":"bytes32"}],"outputs":[{"name":"_isParticipant","type":"bool","internalType":"bool"}],"stateMutability":"view"},{"type":"function","name":"isValidPvE","inputs":[{"name":"attackers","type":"bytes32[]","internalType":"bytes32[]"},{"name":"defenders","type":"bytes32[]","internalType":"bytes32[]"},{"name":"x","type":"uint16","internalType":"uint16"},{"name":"y","type":"uint16","internalType":"uint16"}],"outputs":[{"name":"_isValidPvE","type":"bool","internalType":"bool"}],"stateMutability":"view"},{"type":"function","name":"supportsInterface","inputs":[{"name":"interfaceId","type":"bytes4","internalType":"bytes4"}],"outputs":[{"name":"","type":"bool","internalType":"bool"}],"stateMutability":"pure"},{"type":"event","name":"Store_SetRecord","inputs":[{"name":"tableId","type":"bytes32","indexed":true,"internalType":"ResourceId"},{"name":"keyTuple","type":"bytes32[]","indexed":false,"internalType":"bytes32[]"},{"name":"staticData","type":"bytes","indexed":false,"internalType":"bytes"},{"name":"encodedLengths","type":"bytes32","indexed":false,"internalType":"EncodedLengths"},{"name":"dynamicData","type":"bytes","indexed":false,"internalType":"bytes"}],"anonymous":false},{"type":"event","name":"Store_SpliceStaticData","inputs":[{"name":"tableId","type":"bytes32","indexed":true,"internalType":"ResourceId"},{"name":"keyTuple","type":"bytes32[]","indexed":false,"internalType":"bytes32[]"},{"name":"start","type":"uint48","indexed":false,"internalType":"uint48"},{"name":"data","type":"bytes","indexed":false,"internalType":"bytes"}],"anonymous":false},{"type":"error","name":"Slice_OutOfBounds","inputs":[{"name":"data","type":"bytes","internalType":"bytes"},{"name":"start","type":"uint256","internalType":"uint256"},{"name":"end","type":"uint256","internalType":"uint256"}]},{"type":"error","name":"World_AccessDenied","inputs":[{"name":"resource","type":"string","internalType":"string"},{"name":"caller","type":"address","internalType":"address"}]},{"type":"error","name":"World_FunctionSelectorNotFound","inputs":[{"name":"functionSelector","type":"bytes4","internalType":"bytes4"}]},{"type":"error","name":"World_ResourceNotFound","inputs":[{"name":"resourceId","type":"bytes32","internalType":"ResourceId"},{"name":"resourceIdString","type":"string","internalType":"string"}]}],"bytecode":{"object":"0x608060405234801561001057600080fd5b50615ead80620000216000396000f3fe6080604052600436106100c75760003560e01c8063aaa417b711610074578063c6ca743c1161004e578063c6ca743c146101fe578063e1af802c1461021e578063fc88ff631461023357600080fd5b8063aaa417b7146101b2578063b2467894146101d2578063bfea0b85146101f257600080fd5b806345ec9354116100a557806345ec93541461014e5780634dda27e81461017057806398d239b11461019d57600080fd5b806301ffc9a7146100cc578063119df25f14610101578063154510201461012e575b600080fd5b3480156100d857600080fd5b506100ec6100e7366004614b6e565b610253565b60405190151581526020015b60405180910390f35b34801561010d57600080fd5b506101166102ec565b6040516001600160a01b0390911681526020016100f8565b34801561013a57600080fd5b506100ec610149366004614d30565b6102fb565b34801561015a57600080fd5b5036601f1901355b6040519081526020016100f8565b34801561017c57600080fd5b5061019061018b366004614db5565b6105d5565b6040516100f89190614e34565b6101b06101ab366004614f3a565b61061f565b005b3480156101be57600080fd5b506101626101cd366004614f8a565b6107e9565b3480156101de57600080fd5b506100ec6101ed36600461500f565b610ac3565b3480156101b057600080fd5b34801561020a57600080fd5b506100ec61021936600461505f565b610b99565b34801561022a57600080fd5b50610116610c53565b34801561023f57600080fd5b506101b061024e366004614f3a565b610c5d565b60007fffffffff0000000000000000000000000000000000000000000000000000000082167fb5dee1270000000000000000000000000000000000000000000000000000000014806102e657507fffffffff0000000000000000000000000000000000000000000000000000000082167f01ffc9a700000000000000000000000000000000000000000000000000000000145b92915050565b60006102f6610e67565b905090565b600160005b855181101561046057610311610c53565b6001600160a01b031663fa1becc487838151811061033157610331615081565b60200260200101516040518263ffffffff1660e01b815260040161035791815260200190565b602060405180830381865afa158015610374573d6000803e3d6000fd5b505050506040513d601f19601f820116820180604052508101906103989190615097565b6103a55760009150610460565b6103ad610c53565b6001600160a01b031663f48a39728783815181106103cd576103cd615081565b602002602001015186866040518463ffffffff1660e01b815260040161040a9392919092835261ffff918216602084015216604082015260600190565b602060405180830381865afa158015610427573d6000803e3d6000fd5b505050506040513d601f19601f8201168201806040525081019061044b9190615097565b6104585760009150610460565b600101610300565b5080156105cd5760005b84518110156105cb5761047b610c53565b6001600160a01b031663fa1becc486838151811061049b5761049b615081565b60200260200101516040518263ffffffff1660e01b81526004016104c191815260200190565b602060405180830381865afa1580156104de573d6000803e3d6000fd5b505050506040513d601f19601f820116820180604052508101906105029190615097565b1561051057600091506105cb565b610518610c53565b6001600160a01b031663f48a397286838151811061053857610538615081565b602002602001015186866040518463ffffffff1660e01b81526004016105759392919092835261ffff918216602084015216604082015260600190565b602060405180830381865afa158015610592573d6000803e3d6000fd5b505050506040513d601f19601f820116820180604052508101906105b69190615097565b6105c357600091506105cb565b60010161046a565b505b949350505050565b6106166040805160e0810190915280600081526020016000815260200160008152602001600081526020016000815260200160608152602001606081525090565b6102e682610e99565b600061062a84610e99565b9050806020015160001415801561064357506040810151155b6106945760405162461bcd60e51b815260206004820181905260248201527f434f4d4241542053595354454d3a20494e56414c494420454e434f554e54455260448201526064015b60405180910390fd5b80608001518160600151106106eb5760405162461bcd60e51b815260206004820181905260248201527f434f4d4241542053595354454d3a204558504952454420454e434f554e544552604482015260640161068b565b6106f36102ec565b6001600160a01b0316610704610c53565b6001600160a01b0316634f10aabc856040518263ffffffff1660e01b815260040161073191815260200190565b602060405180830381865afa15801561074e573d6000803e3d6000fd5b505050506040513d601f19601f8201168201806040525081019061077291906150b9565b6001600160a01b031614801561078d575061078d8385610b99565b6107d95760405162461bcd60e51b815260206004820152601c60248201527f434f4d4241542053595354454d3a204e4f4e2d434f4d424154414e5400000000604482015260640161068b565b6107e38483610f84565b50505050565b60006107fc6107f66102ec565b84610ac3565b6108485760405162461bcd60e51b815260206004820152601d60248201527f434f4d4241542053595354454d3a20494e56414c49442053454e444552000000604482015260640161068b565b60008061086e8560008151811061086157610861615081565b602002602001015161101e565b9150915085600181111561088457610884614dce565b60010361096c57610897858584846102fb565b6108e35760405162461bcd60e51b815260206004820152601a60248201527f434f4d4241542053595354454d3a20494e56414c494420505645000000000000604482015260640161068b565b60405142906108fc9088908890889085906020016150d6565b60405160208183030381529060405280519060200120935060006040518060e0016040528089600181111561093357610933614dce565b81526020018381526020016000815260200160008152602001600f815260200187815260200188815250905061096985826110cf565b50505b85600181111561097e5761097e614dce565b5060005b8451811015610a29576000801b6109b18683815181106109a4576109a4615081565b6020026020010151611190565b146109fe5760405162461bcd60e51b815260206004820152601e60248201527f434f4d4241542053595354454d3a20454e54495459204f434355504945440000604482015260640161068b565b610a21858281518110610a1357610a13615081565b602002602001015185611221565b600101610982565b5060005b8551811015610ab9576000801b610a4f8783815181106109a4576109a4615081565b14610a9c5760405162461bcd60e51b815260206004820152601e60248201527f434f4d4241542053595354454d3a20454e54495459204f434355504945440000604482015260640161068b565b610ab1868281518110610a1357610a13615081565b600101610a2d565b5050509392505050565b6000805b8251811015610b9257610ad8610c53565b6001600160a01b0316634f10aabc848381518110610af857610af8615081565b60200260200101516040518263ffffffff1660e01b8152600401610b1e91815260200190565b602060405180830381865afa158015610b3b573d6000803e3d6000fd5b505050506040513d601f19601f82011682018060405250810190610b5f91906150b9565b6001600160a01b0316846001600160a01b031603610b805760019150610b92565b80610b8a81615130565b915050610ac7565b5092915050565b600080610ba583610e99565b905060005b8160c0015151811015610bf6578160c001518181518110610bcd57610bcd615081565b60200260200101518503610be45760019250610bf6565b80610bee81615130565b915050610baa565b5081610b925760005b8160a0015151811015610c4b578160a001518181518110610c2257610c22615081565b60200260200101518503610c395760019250610c4b565b80610c4381615130565b915050610bff565b505092915050565b60006102f66112d5565b610c6e30610c696102ec565b6112df565b6000610c7983610e99565b905060005b8251811015610d71576000838281518110610c9b57610c9b615081565b602090810291909101810151604080516101a08101825281830151815260608084015182860152835192820192909252928201519083015260006080830181905260a0830181905260c0830181905260e083018190526101008301819052610120830181905261014083015243610160830152426101808301529150610d2181886112f5565b905080610140015115610d3d57610d3d816060015160016114d8565b80610120015115610d5757610d57816040015160016114d8565b610d67868560600151858461155c565b5050600101610c7e565b5060008060005b8360a0015151811015610dc657610dab8460a001518281518110610d9e57610d9e615081565b6020026020010151611673565b15610dbe5782610dba81615130565b9350505b600101610d78565b5060005b8360c0015151811015610e0b57610df08460c001518281518110610d9e57610d9e615081565b15610e035781610dff81615130565b9250505b600101610dca565b508260c0015151811480610e2357508260a001515182145b80610e35575082608001518360600151145b15610e4b57610e448587611711565b5050610e5f565b60608301805190610e5b82615130565b9052505b505050505050565b7fffffffffffffffffffffffffffffffffffffffffffffffffffffffffffffffcc36013560601c80610e965750335b90565b610eda6040805160e0810190915280600081526020016000815260200160008152602001600081526020016000815260200160608152602001606081525090565b604080516001808252818301909252600091602080830190803683370190505090508281600081518110610f1057610f10615081565b602090810291909101015260008080610f697f74625544000000000000000000000000436f6d626174456e636f756e74657200857e81050201202020200000000000000000000000000000000000000000000000611a32565b925092509250610f7a838383611b02565b9695505050505050565b6110198260018484604051602001610f9d92919061514a565b60408051601f1981840301815290829052610fbc93929160240161521a565b60408051601f198184030181529190526020810180517bffffffffffffffffffffffffffffffffffffffffffffffffffffffff167fb2aa60a400000000000000000000000000000000000000000000000000000000179052611baf565b505050565b6040805160018082528183019092526000918291829160208083019080368337019050509050838160008151811061105857611058615081565b6020908102919091010152600080806110b17f74625544000000000000000000000000506f736974696f6e0000000000000000857e04020002020000000000000000000000000000000000000000000000000000611a32565b9250925092506110c2838383611c5d565b9550955050505050915091565b60006110f282600001518360200151846040015185606001518660800151611c80565b905060006111088360a001518460c00151611cb5565b9050600061111e8460a001518560c00151611ce0565b6040805160018082528183019092529192506000919060208083019080368337019050509050858160008151811061115857611158615081565b6020908102919091010152610e5f7f74625544000000000000000000000000436f6d626174456e636f756e7465720082868686611d1c565b6040805160018082528183019092526000918291906020808301908036833701905050905082816000815181106111c9576111c9615081565b602090810291909101015260006105cd7f746255440000000000000000000000004d61746368456e74697479000000000083837e41030020200100000000000000000000000000000000000000000000000000611dd1565b60408051600180825281830190925260009160208083019080368337019050509050828160008151811061125757611257615081565b6020026020010181815250506110197f746255440000000000000000000000004d61746368456e74697479000000000060001b826000856040516020016112a091815260200190565b60408051601f198184030181529190527e41030020200100000000000000000000000000000000000000000000000000611e8e565b60006102f6611f04565b6112f16112eb83611f43565b82611fe0565b5050565b604080516101a081018252600080825260208201819052918101829052606081018290526080810182905260a0810182905260c0810182905260e081018290526101008101829052610120810182905261014081018290526101608101829052610180810191909152600061136d846000015161202c565b90506113c66040518060400160405280600b81526020017f414354494f4e2054595045000000000000000000000000000000000000000000815250826000015160038111156113be576113be614dce565b60ff166120e1565b805160038111156113d9576113d9614dce565b60ff1660010361148857600081602001518060200190518101906113fd91906152b1565b90506114188186604001518760600151886020015188612154565b151560c0880152158015608088015260e0870191909152611482576000620186a08660e00151611448919061535c565b611455876060015161262f565b61145f91906153a6565b9050600081136114725760016101408701525b6114808660600151826126c1565b505b506114d0565b60405162461bcd60e51b815260206004820152601a60248201527f616374696f6e2074797065206e6f74207265636f676e697a6564000000000000604482015260640161068b565b509192915050565b60408051600180825281830190925260009160208083019080368337019050509050828160008151811061150e5761150e615081565b6020026020010181815250506110197f746255440000000000000000000000004d61746368456e74697479000000000060001b826002856040516020016112a091151560f81b815260010190565b60006115ac826000015183602001518460400151856060015186608001518760a001518860c001518960e001518a61010001518b61012001518c61014001518d61016001518e6101800151612775565b6040805160038082526080820190925291925060009160609183919060208201848036833701905050905087816000815181106115eb576115eb615081565b6020026020010181815250508660001b8160018151811061160e5761160e615081565b6020026020010181815250508560001b8160028151811061163157611631615081565b60209081029190910101526116697f6f745544000000000000000000000000416374696f6e4f7574636f6d6500000082868686611d1c565b5050505050505050565b6040805160018082528183019092526000918291906020808301908036833701905050905082816000815181106116ac576116ac615081565b602090810291909101015260006117057f746255440000000000000000000000004d61746368456e7469747900000000008360027e41030020200100000000000000000000000000000000000000000000000000611dd1565b90506105cd8160f81c90565b600080600061171f85610e99565b905046617a69036117355743604082015261173c565b4260408201525b600080611747614b18565b60005b8460c00151518110156117b45761177d8560c00151828151811061177057611770615081565b60200260200101516127c2565b91508160e001518461178f91906153c6565b935060008260a0015113156117ac57826117a881615130565b9350505b60010161174a565b506000805b8560a001515181101561186e578560a0015181815181106117dc576117dc615081565b602002602001015191506117ef82611673565b15611866576117fd8261286a565b61180790896153c6565b97506118178360e001518a6128fc565b61182190886153c6565b965061182e826000611221565b61186689838860c001518960c00151518d61184991906153d9565b8151811061185957611859615081565b6020026020010151612919565b6001016117b9565b506000805b8660c0015151811015611a1a578660c00151818151811061189657611896615081565b602002602001015191506118a8610c53565b6001600160a01b031663fa1becc4836040518263ffffffff1660e01b81526004016118d591815260200190565b602060405180830381865afa1580156118f2573d6000803e3d6000fd5b505050506040513d601f19601f820116820180604052508101906119169190615097565b15611a0757611924826127c2565b935060008460a0015113156119fd5787156119c957611941610c53565b6001600160a01b031663fda0ce508361195a888c6153ed565b6040517fffffffff0000000000000000000000000000000000000000000000000000000060e085901b16815260048101929092526024820152604401600060405180830381600087803b1580156119b057600080fd5b505af11580156119c4573d6000803e3d6000fd5b505050505b6000891180156119d95750600085115b156119fd576119e8858a6153ed565b8460c0018181516119f991906153c6565b9052505b611a078285612ab8565b611a12826000611221565b600101611873565b50611a258a876110cf565b5050505050509250929050565b6060600060606000611a42611f04565b9050306001600160a01b03821603611a6b57611a5f878787612b61565b93509350935050611af9565b6040517f419b58fd0000000000000000000000000000000000000000000000000000000081526001600160a01b0382169063419b58fd90611ab4908a908a908a90600401615401565b600060405180830381865afa158015611ad1573d6000803e3d6000fd5b505050506040513d6000823e601f3d908101601f19168201604052611a5f919081019061548e565b93509350939050565b611b436040805160e0810190915280600081526020016000815260200160008152602001600081526020016000815260200160608152602001606081525090565b611b4c84612c69565b6080860181905260608601829052604086018390526020860184905285856001811115611b7b57611b7b614dce565b6001811115611b8c57611b8c614dce565b8152505050505050611b9e8383612cb9565b60c083015260a08201529392505050565b6060600080611bc5611bc0856154f1565b612d08565b91509150816000801b03611c2b576040517ffdde54e20000000000000000000000000000000000000000000000000000000081527fffffffff0000000000000000000000000000000000000000000000000000000060003516600482015260240161068b565b6020840180517bffffffffffffffffffffffffffffffffffffffffffffffffffffffff16821790526105cd8285612dcb565b60208301516022840151600091829160f091821c911c5b90969095509350505050565b60608585858585604051602001611c9b95949392919061553d565b604051602081830303815290604052905095945050505050565b6000611cd983516020028351602002606081901b603883901b838301171792915050565b9392505050565b6060611ceb83612ea6565b611cf483612ea6565b604051602001611d05929190615578565b604051602081830303815290604052905092915050565b6000611d26611f04565b9050306001600160a01b03821603611d4a57611d458686868686612eb6565b610e5f565b6040517f298314fb0000000000000000000000000000000000000000000000000000000081526001600160a01b0382169063298314fb90611d9790899089908990899089906004016155a7565b600060405180830381600087803b158015611db157600080fd5b505af1158015611dc5573d6000803e3d6000fd5b50505050505050505050565b600080611ddc611f04565b9050306001600160a01b03821603611e0257611dfa86868686612ed3565b9150506105cd565b6040517f8c364d590000000000000000000000000000000000000000000000000000000081526001600160a01b03821690638c364d5990611e4d9089908990899089906004016155f8565b602060405180830381865afa158015611e6a573d6000803e3d6000fd5b505050506040513d601f19601f82011682018060405250810190611dfa9190615627565b6000611e98611f04565b9050306001600160a01b03821603611eb757611d458686868686612f09565b6040517f390baae00000000000000000000000000000000000000000000000000000000081526001600160a01b0382169063390baae090611d979089908990899089908990600401615640565b7f629a4c26e296b22a8e0856e9f6ecb2d1008d7e00081111962cd175fa7488e175546000906001600160a01b031680611f3e573391505090565b919050565b60408051600180825281830190925260009182919060208083019080368337019050509050826001600160a01b031660001b81600081518110611f8857611f88615081565b602090810291909101015260006105cd7f7462776f726c6400000000000000000053797374656d5265676973747279000083837e20010020000000000000000000000000000000000000000000000000000000611dd1565b611fea8282612f1e565b6112f157611ff782612f7c565b816040517fd787b73700000000000000000000000000000000000000000000000000000000815260040161068b929190615687565b60408051808201909152600081526060602082015260408051600180825281830190925260009160208083019080368337019050509050828160008151811061207757612077615081565b6020908102919091010152600080806120d07f74625544000000000000000000000000416374696f6e73000000000000000000857e01010101000000000000000000000000000000000000000000000000000000611a32565b925092509250610f7a8383836130b9565b6112f182826040516024016120f79291906156b2565b60408051601f198184030181529190526020810180517bffffffffffffffffffffffffffffffffffffffffffffffffffffffff167fb60e72cc00000000000000000000000000000000000000000000000000000000179052613116565b600080600080612162610c53565b6001600160a01b03166354f1f2db896040518263ffffffff1660e01b815260040161218f91815260200190565b61010060405180830381865afa1580156121ad573d6000803e3d6000fd5b505050506040513d601f19601f820116820180604052508101906121d191906156d4565b905060006121dd610c53565b6001600160a01b03166354f1f2db896040518263ffffffff1660e01b815260040161220a91815260200190565b61010060405180830381865afa158015612228573d6000803e3d6000fd5b505050506040513d601f19601f8201168201806040525081019061224c91906156d4565b90506000612258610c53565b6001600160a01b031663810c1dc1896040518263ffffffff1660e01b815260040161228591815260200190565b600060405180830381865afa1580156122a2573d6000803e3d6000fd5b505050506040513d6000823e601f3d908101601f191682016040526122ca9190810190615743565b905060008260a001511315612614576040517f4dddf8370000000000000000000000000000000000000000000000000000000081526004810188905260009073__$227e4555c1f608352b26068e438454dd8b$__90634dddf83790602401600060405180830381865af4158015612345573d6000803e3d6000fd5b505050506040513d6000823e601f3d908101601f1916820160405261236d91908101906157fa565b905061240b8160008151811061238557612385615081565b602002602001015167ffffffffffffffff16826001815181106123aa576123aa615081565b602002602001015167ffffffffffffffff16836002815181106123cf576123cf615081565b602002602001015167ffffffffffffffff16846003815181106123f4576123f4615081565b602002602001015167ffffffffffffffff16613122565b6124608160008151811061242157612421615081565b602002602001015167ffffffffffffffff168260018151811061244657612446615081565b602002602001015167ffffffffffffffff168e87876131a5565b909650945085156125c757620186a060008d60200151856060015161248591906153a6565b136124915760016124a5565b8c6020015184606001516124a591906153a6565b6124af9190615893565b8451620186a0906124c2906002906153ed565b8460a001518560800151856002815181106124df576124df615081565b602002602001015167ffffffffffffffff166124fb91906153d9565b111561253a5784608001518460028151811061251957612519615081565b602002602001015167ffffffffffffffff1661253591906153d9565b612540565b8460a001515b8f5161254c91906158aa565b61255691906158aa565b61256091906158ca565b61256a91906153a6565b965084156125c2576125b06040518060400160405280600581526020017f4352495421000000000000000000000000000000000000000000000000000000815250613238565b6125bb6002886158ca565b9650600194505b61260e565b6126056040518060400160405280600581526020017f4d49535321000000000000000000000000000000000000000000000000000000815250613238565b60009650600095505b50612621565b6000955060009450600093505b505050955095509592505050565b60408051600180825281830190925260009182919060208083019080368337019050509050828160008151811061266857612668615081565b602090810291909101015260006105cd7f74625544000000000000000000000000537461747300000000000000000000008360057ee1080020200120202020200000000000000000000000000000000000000000611dd1565b6040805160018082528183019092526000916020808301908036833701905050905082816000815181106126f7576126f7615081565b6020026020010181815250506110197f746255440000000000000000000000005374617473000000000000000000000060001b8260058560405160200161274091815260200190565b60408051601f198184030181529190527ee1080020200120202020200000000000000000000000000000000000000000611e8e565b60608d8d8d8d8d8d8d8d8d8d8d8d8d6040516020016127a09d9c9b9a99989796959493929190615916565b60405160208183030381529060405290509d9c50505050505050505050505050565b6127ca614b18565b60408051600180825281830190925260009160208083019080368337019050509050828160008151811061280057612800615081565b6020908102919091010152600080806128597f7462554400000000000000000000000053746174730000000000000000000000857ee1080020200120202020200000000000000000000000000000000000000000611a32565b925092509250610f7a8383836132a9565b6040805160018082528183019092526000918291906020808301908036833701905050905082816000815181106128a3576128a3615081565b602090810291909101015260006105cd7f74625544000000000000000000000000537461747300000000000000000000008360067ee1080020200120202020200000000000000000000000000000000000000000611dd1565b600061290f8366038d7ea4c68000615893565b611cd990836153d9565b6000612923610c53565b6001600160a01b03166353d64640846040518263ffffffff1660e01b815260040161295091815260200190565b602060405180830381865afa15801561296d573d6000803e3d6000fd5b505050506040513d601f19601f820116820180604052508101906129919190615627565b9050600061299e82613321565b8060200190518101906129b19190615a07565b905060005b8160c0015151811015610e5f5760006129eb8360c0015183815181106129de576129de615081565b6020026020010151613396565b9050806129fb620186a0896153d9565b1115612aaf57612a09610c53565b6001600160a01b031663cd9caca2868560c001518581518110612a2e57612a2e615081565b60209081029190910101516040517fffffffff0000000000000000000000000000000000000000000000000000000060e085901b1681526004810192909252602482015260016044820152606401600060405180830381600087803b158015612a9657600080fd5b505af1158015612aaa573d6000803e3d6000fd5b505050505b506001016129b6565b6000612aea826000015183602001518460400151856060015186608001518760a001518860c001518960e0015161342b565b604080516001808252818301909252919250600091606091839190602080830190803683370190505090508581600081518110612b2957612b29615081565b6020908102919091010152610e5f7f746255440000000000000000000000005374617473000000000000000000000082868686611d1c565b6060600060606000612b7285613469565b9050612b7f87878361348c565b93506000612b8c866134c5565b90508015612c5e57612b9e8888613502565b935066ffffffffffffff841667ffffffffffffffff811115612bc257612bc2614bb0565b6040519080825280601f01601f191660200182016040528015612bec576020820181803683370190505b5092506020830160005b828160ff161015612c5b576000612c0e8b8b84613515565b90506000612c2b888460ff166028026038011c64ffffffffff1690565b9050612c3a8260008387613595565b612c4481856153c6565b935050508080612c5390615acf565b915050612bf6565b50505b505093509350939050565b6000806000806000612c7f866000016020015190565b60f81c6001811115612c9357612c93614dce565b602187015160418801516061890151608190990151929991989097509550909350915050565b6060806000603885901c64ffffffffff16612cdd612cd8868484613661565b6136ef565b935090508064ffffffffff606087901c1601612cfd612cd8868484613661565b925050509250929050565b6040805160018082528183019092526000918291829160208083019080368337019050509050837bffffffffffffffffffffffffffffffffffffffffffffffffffffffff191681600081518110612d6157612d61615081565b602090810291909101015260008080612dba7f7462776f726c6400000000000000000046756e6374696f6e53656c6563746f72857e24020020040000000000000000000000000000000000000000000000000000611a32565b9250925092506110c2838383613700565b60606000612dd76112d5565b90506001600160a01b0381163003612e18576000612dff612df6610e67565b6000878761370c565b9350905080612e1157612e1183613847565b50506102e6565b6040517f3ae7af080000000000000000000000000000000000000000000000000000000081526001600160a01b03821690633ae7af0890612e5f9087908790600401615aee565b6000604051808303816000875af1158015612e7e573d6000803e3d6000fd5b505050506040513d6000823e601f3d908101601f191682016040526105cd9190810190615b07565b606081611cd9816020600061384f565b612ecc8585858585612ec78b6138af565b613934565b5050505050565b6000612f00612ee28686613c6d565b60ff858116601b0360080285901c16612efb8587613cc3565b613cfc565b95945050505050565b612ecc8585612f188487613cc3565b85613d4d565b6000612f6c7f6e730000000000000000000000000000000000000000000000000000000000007dffffffffffffffffffffffffffff0000000000000000000000000000000085161783613ff1565b80611cd95750611cd98383613ff1565b606081601081901b6000612f8f836140ba565b9050827fffffffffffffffffffffffffffff000000000000000000000000000000000000831615612fea57612fe57fffffffffffffffffffffffffffff00000000000000000000000000000000000084166140d1565b613021565b6040518060400160405280600681526020017f3c726f6f743e00000000000000000000000000000000000000000000000000008152505b7fffffffffffffffffffffffffffffffff0000000000000000000000000000000083161561305757613052836140d1565b61308e565b6040518060400160405280600681526020017f3c726f6f743e00000000000000000000000000000000000000000000000000008152505b6040516020016130a093929190615b3c565b6040516020818303038152906040529350505050919050565b6040805180820190915260008152606060208201526130d784614175565b819060038111156130ea576130ea614dce565b908160038111156130fd576130fd614dce565b90525061310a8383614191565b60208201529392505050565b61311f816141b4565b50565b604051602481018590526044810184905260648101839052608481018290526107e39060a40160408051601f198184030181529190526020810180517bffffffffffffffffffffffffffffffffffffffffffffffffffffffff167f193fb80000000000000000000000000000000000000000000000000000000000179052613116565b60008080620249f06131b96103e88a6153d9565b6131cb876020015189604001516141d5565b6131d591906153c6565b6131df9190615893565b90506000620186a085602001516103e88a6131fa91906153d9565b61320491906153c6565b61320e9190615893565b90508082119350831561322c57600261322782846153ed565b101592505b50509550959350505050565b61311f8160405160240161324c9190615bca565b60408051601f198184030181529190526020810180517bffffffffffffffffffffffffffffffffffffffffffffffffffffffff167f41304fac00000000000000000000000000000000000000000000000000000000179052613116565b6132b1614b18565b6132ba84614202565b60e0890181905260c0890182905260a0890183905260808901849052606089018590528860208101604082018860028111156132f8576132f8614dce565b600281111561330957613309614dce565b90529790975250505093909252509195945050505050565b60408051600180825281830190925260609160009190602080830190803683370190505090508260001b8160008151811061335e5761335e615081565b602090810291909101015260006105cd7f746255440000000000000000000000004d6f62730000000000000000000000008383614270565b604080516001808252818301909252600091829190602080830190803683370190505090508260001b816000815181106133d2576133d2615081565b602090810291909101015260006105cd7f746255440000000000000000000000004974656d7300000000000000000000008360017e21020101200000000000000000000000000000000000000000000000000000611dd1565b6060888888888888888860405160200161344c989796959493929190615bdd565b604051602081830303815290604052905098975050505050505050565b6000600861347960026020615c22565b6134839190615893565b9190911c919050565b6060816000036134ab5750604080516020810190915260008152611cd9565b60006134b78585613c6d565b9050612f008160008561432f565b600060086001806134d860026020615c22565b6134e29190615c22565b6134ec9190615c22565b6134f69190615893565b8260ff911c1692915050565b6000611cd96135118484614352565b5490565b6000838360405160200161352a929190615c35565b604051602081830303815290604052805190602001208260f81b7effffffffffffffffffffffffffffffffffffffffffffffffffffffffffffff19167f3b4102da22e32d82fc925482184f16c09fd4281692720b87d124aef6da48a0f1181860001c90509392505050565b821561361c57602083106135bf576020830484019350602083816135bb576135bb615346565b0692505b821561361c5760208390036000818410156135e25750600019600884021c6135ec565b50600019600882021c5b8554600886021b81845116821982161784525081841161360d5750506107e3565b50600194909401939182900391015b5b6020821061363e5783548152600190930192601f199091019060200161361d565b81156107e3576000600019600884021c8251865482191691161782525050505050565b6000818311806136715750835182115b156136ae578383836040517f23230fa300000000000000000000000000000000000000000000000000000000815260040161068b93929190615c71565b602084016136bc84826153c6565b905060006136ca8585615c22565b6fffffffffffffffffffffffffffffffff1660809290921b9190911795945050505050565b60606000611cd983602060006143a8565b600080611c7485614417565b6000606060008061371c8661442c565b90925090506001600160a01b03821661376d578561373987612f7c565b6040517ffbf10ce600000000000000000000000000000000000000000000000000000000815260040161068b929190615aee565b8061377c5761377c86896144d0565b86156137e8577dffffffffffffffffffffffffffff0000000000000000000000000000000086167f6e730000000000000000000000000000000000000000000000000000000000001760006137d0826144da565b90506137e5826137e08b846153c6565b61456b565b50505b60006137f48760101b90565b7fffffffffffffffffffffffffffff000000000000000000000000000000000000161461382c576138278888848861461f565b613838565b61383888888488614697565b90999098509650505050505050565b805160208201fd5b825160609060006138608583615893565b9050604051925060208301601f19603f83860101166040528184526000602088015b848210156138a3578051871b83529187019160019190910190602001613882565b50505050509392505050565b60007f8b9d8c8b908d9affffffffffffffffffab9e9d939a8d0000000000000000000082016138fe57507e60030220202000000000000000000000000000000000000000000000000000919050565b6102e661392b7f746273746f72650000000000000000005461626c657300000000000000000000846146f8565b60206000613cfc565b7f6f74000000000000000000000000000000000000000000000000000000000000867fffff00000000000000000000000000000000000000000000000000000000000016036139c057857f8dbb3a9672eebfd3773e72dd9c102393436816d832c7ba9e1e1ac8fcadcac7a9868686866040516139b39493929190615c96565b60405180910390a2610e5f565b60006139cb87614714565b905060005b8151811015613aa45760008282815181106139ed576139ed615081565b60200260200101519050613a196001826affffffffffffffffffffff191661479d90919063ffffffff16565b15613a9b576040517f57066c9c000000000000000000000000000000000000000000000000000000008152606082901c906357066c9c90613a68908c908c908c908c908c908c90600401615ce0565b600060405180830381600087803b158015613a8257600080fd5b505af1158015613a96573d6000803e3d6000fd5b505050505b506001016139d0565b50867f8dbb3a9672eebfd3773e72dd9c102393436816d832c7ba9e1e1ac8fcadcac7a987878787604051613adb9493929190615c96565b60405180910390a26000613aef8888613c6d565b90506000602087019050613b078260008951846147bb565b6000613b12856134c5565b1115613b96576000613b248a8a614352565b878155905060208601915060008060005b613b3e886134c5565b8160ff161015613b9157613b538d8d83613515565b9250613b6e8a8260ff166028026038011c64ffffffffff1690565b9150613b7d83600084886147bb565b613b8782866153c6565b9450600101613b35565b505050505b60005b8351811015611dc5576000848281518110613bb657613bb6615081565b60200260200101519050613be26002826affffffffffffffffffffff191661479d90919063ffffffff16565b15613c64576040517f5b28cdaf000000000000000000000000000000000000000000000000000000008152606082901c90635b28cdaf90613c31908e908e908e908e908e908e90600401615ce0565b600060405180830381600087803b158015613c4b57600080fd5b505af1158015613c5f573d6000803e3d6000fd5b505050505b50600101613b99565b60008282604051602001613c82929190615c35565b60408051601f1981840301815291905280516020909101207f86425bff6b57326c7859e89024fe4f238ca327a1ae4a230180dd2f0e88aaa7d9189392505050565b600080805b8360ff16811015613cf457613cea60ff601b83900360080287901c16836153c6565b9150600101613cc8565b509392505050565b600060208210613d2257602082048401935060208281613d1e57613d1e615346565b0691505b508254600882021b602082900380841115613cf4576001850154600882021c82179150509392505050565b7f6f74000000000000000000000000000000000000000000000000000000000000847fffff0000000000000000000000000000000000000000000000000000000000001603613dd757837f8c0b5119d4cec7b284c6b1b39252a03d1e2f2d7451a5895562524c113bb952be848484604051613dca93929190615d39565b60405180910390a26107e3565b6000613de38585613c6d565b90506000613df086614714565b905060005b8151811015613ec5576000828281518110613e1257613e12615081565b60200260200101519050613e3e6004826affffffffffffffffffffff191661479d90919063ffffffff16565b15613ebc576040517f964f667d000000000000000000000000000000000000000000000000000000008152606082901c9063964f667d90613e89908b908b908b908b90600401615d6c565b600060405180830381600087803b158015613ea357600080fd5b505af1158015613eb7573d6000803e3d6000fd5b505050505b50600101613df5565b50857f8c0b5119d4cec7b284c6b1b39252a03d1e2f2d7451a5895562524c113bb952be868686604051613efa93929190615d39565b60405180910390a2613f15828565ffffffffffff168561487a565b60005b8151811015613fe8576000828281518110613f3557613f35615081565b60200260200101519050613f616008826affffffffffffffffffffff191661479d90919063ffffffff16565b15613fdf576040517fa8ba8721000000000000000000000000000000000000000000000000000000008152606082901c9063a8ba872190613fac908b908b908b908b90600401615d6c565b600060405180830381600087803b158015613fc657600080fd5b505af1158015613fda573d6000803e3d6000fd5b505050505b50600101613f18565b50505050505050565b60408051600280825260608201835260009283929190602083019080368337019050509050838160008151811061402a5761402a615081565b602002602001018181525050826001600160a01b031660001b8160018151811061405657614056615081565b602090810291909101015260006140ae7f7462776f726c640000000000000000005265736f75726365416363657373000083837e01010001000000000000000000000000000000000000000000000000000000611dd1565b9050612f008160f81c90565b60006140c8607060106153c6565b9190911b919050565b606060005b6010811015614136577fffffffffffffffffffffffffffffffff000000000000000000000000000000008316600882021b7fff000000000000000000000000000000000000000000000000000000000000001615614136576001016140d6565b604080517fffffffffffffffffffffffffffffffff000000000000000000000000000000008516602082015281516030909101909152818152806105cd565b602081015160009060f81c60038111156102e6576102e6614dce565b60606000603884901c64ffffffffff16612f006141af858484613661565b614890565b80516a636f6e736f6c652e6c6f67602083016000808483855afa5050505050565b60008082126141ef576141e882846153c6565b90506102e6565b6141f882615da5565b6141e89084615c22565b60008060008060008060008061421c896000016020015190565b60408a015160608b0151919950975060f81c600281111561423f5761423f614dce565b60618a015160818b015160a18c015160c18d015160e1909d01519b9d9a9c939b929a91995097509195509350915050565b6060600061427c611f04565b9050306001600160a01b038216036142a157614299858585614910565b915050611cd9565b6040517f1e7889770000000000000000000000000000000000000000000000000000000081526001600160a01b03821690631e788977906142ea90889088908890600401615ddd565b600060405180830381865afa158015614307573d6000803e3d6000fd5b505050506040513d6000823e601f3d908101601f191682016040526142999190810190615b07565b60405160208101601f19603f8484010116604052828252613cf485858584613595565b60008282604051602001614367929190615c35565b60408051601f1981840301815291905280516020909101207f14e2fcc58e58e68ec7edc30c8d50dccc3ce2714a623ec81f46b6a63922d76569189392505050565b606060006143b68560801c90565b90506fffffffffffffffffffffffffffffffff851660008582816143dc576143dc615346565b04905060405193506020840160208202810160405281855260005b828110156138a3578451871c8252938701936020909101906001016143f7565b602081015160408201516000905b9050915091565b6040805160018082528183019092526000918291829160208083019080368337019050509050838160008151811061446657614466615081565b6020908102919091010152600080806144bf7f7462776f726c6400000000000000000053797374656d73000000000000000000857e15020014010000000000000000000000000000000000000000000000000000612b61565b9250925092506110c283838361494a565b611fea8282614956565b60408051600180825281830190925260009182919060208083019080368337019050509050828160008151811061451357614513615081565b602090810291909101015260006105cd7f7462776f726c6400000000000000000042616c616e636573000000000000000083837e20010020000000000000000000000000000000000000000000000000000000612ed3565b6040805160018082528183019092526000916020808301908036833701905050905082816000815181106145a1576145a1615081565b6020026020010181815250506110197f7462776f726c6400000000000000000042616c616e636573000000000000000060001b826000856040516020016145ea91815260200190565b60408051601f198184030181529190527e20010020000000000000000000000000000000000000000000000000000000612f09565b60006060836001600160a01b0316600061463a8589896149b4565b6040516146479190615e09565b60006040518083038185875af1925050503d8060008114614684576040519150601f19603f3d011682016040523d82523d6000602084013e614689565b606091505b509097909650945050505050565b60006060836001600160a01b03166146b08488886149b4565b6040516146bd9190615e09565b600060405180830381855af49150503d8060008114614684576040519150601f19603f3d011682016040523d82523d6000602084013e614689565b6040805160208101849052908101829052600090606001613c82565b6040805160018082528183019092526060916000919060208083019080368337019050509050828160008151811061474e5761474e615081565b602090810291909101015260006147867f746273746f726500000000000000000053746f7265486f6f6b730000000000008383614910565b90506105cd6147988260008451613661565b6149e3565b60008160ff16826147ae8560581c90565b1660ff1614905092915050565b821561483557602083106147e5576020830484019350602083816147e1576147e1615346565b0692505b82156148355760208390036000600019600885021c1990506008850281811c91508351811c90508119875416828216178755508184116148265750506107e3565b50600194909401939182900391015b5b602082106148575780518455600190930192601f1990910190602001614836565b81156107e3576000600019600884021c8554835182191691161785555050505050565b6110198383835161488b8560200190565b6147bb565b6060600061489e8360801c90565b90506fffffffffffffffffffffffffffffffff83168067ffffffffffffffff8111156148cc576148cc614bb0565b6040519080825280601f01601f1916602001820160405280156148f6576020820181803683370190505b509250602083016149088382846149f4565b505050919050565b60606105cd614920858585613515565b6000614945856149308989613502565b9060ff166028026038011c64ffffffffff1690565b61432f565b600080611c7485614a3f565b60006149a47f6e730000000000000000000000000000000000000000000000000000000000007dffffffffffffffffffffffffffff0000000000000000000000000000000085161783614a5b565b80611cd95750611cd98383614a5b565b60608383836040516020016149cb93929190615e25565b60405160208183030381529060405290509392505050565b60606000611cd983601560006143a8565b5b60208110614a14578251825260209283019290910190601f19016149f5565b80600003614a2157505050565b6000600019600883021c905080835116811985511617835250505050565b6020810151603482015160609190911c9060009060f81c614425565b604080516002808252606082018352600092839291906020830190803683370190505090508381600081518110614a9457614a94615081565b602002602001018181525050826001600160a01b031660001b81600181518110614ac057614ac0615081565b602090810291909101015260006140ae7f7462776f726c640000000000000000005265736f75726365416363657373000083837e01010001000000000000000000000000000000000000000000000000000000612ed3565b604051806101000160405280600081526020016000815260200160006002811115614b4557614b45614dce565b815260200160008152602001600081526020016000815260200160008152602001600081525090565b600060208284031215614b8057600080fd5b81357fffffffff0000000000000000000000000000000000000000000000000000000081168114611cd957600080fd5b634e487b7160e01b600052604160045260246000fd5b6040516080810167ffffffffffffffff81118282101715614be957614be9614bb0565b60405290565b60405160a0810167ffffffffffffffff81118282101715614be957614be9614bb0565b604051610100810167ffffffffffffffff81118282101715614be957614be9614bb0565b604051610120810167ffffffffffffffff81118282101715614be957614be9614bb0565b604051601f8201601f1916810167ffffffffffffffff81118282101715614c8357614c83614bb0565b604052919050565b600067ffffffffffffffff821115614ca557614ca5614bb0565b5060051b60200190565b600082601f830112614cc057600080fd5b81356020614cd5614cd083614c8b565b614c5a565b8083825260208201915060208460051b870101935086841115614cf757600080fd5b602086015b84811015614d135780358352918301918301614cfc565b509695505050505050565b803561ffff81168114611f3e57600080fd5b60008060008060808587031215614d4657600080fd5b843567ffffffffffffffff80821115614d5e57600080fd5b614d6a88838901614caf565b95506020870135915080821115614d8057600080fd5b50614d8d87828801614caf565b935050614d9c60408601614d1e565b9150614daa60608601614d1e565b905092959194509250565b600060208284031215614dc757600080fd5b5035919050565b634e487b7160e01b600052602160045260246000fd5b60028110614df457614df4614dce565b9052565b60008151808452602080850194506020840160005b83811015614e2957815187529582019590820190600101614e0d565b509495945050505050565b60208152614e46602082018351614de4565b602082015160408201526040820151606082015260608201516080820152608082015160a0820152600060a083015160e060c0840152614e8a610100840182614df8565b905060c0840151601f198483030160e0850152612f008282614df8565b600082601f830112614eb857600080fd5b81356020614ec8614cd083614c8b565b82815260079290921b84018101918181019086841115614ee757600080fd5b8286015b84811015614d135760808189031215614f045760008081fd5b614f0c614bc6565b8135815284820135858201526040808301359082015260608083013590820152835291830191608001614eeb565b600080600060608486031215614f4f57600080fd5b8335925060208401359150604084013567ffffffffffffffff811115614f7457600080fd5b614f8086828701614ea7565b9150509250925092565b600080600060608486031215614f9f57600080fd5b833560028110614fae57600080fd5b9250602084013567ffffffffffffffff80821115614fcb57600080fd5b614fd787838801614caf565b93506040860135915080821115614fed57600080fd5b50614f8086828701614caf565b6001600160a01b038116811461311f57600080fd5b6000806040838503121561502257600080fd5b823561502d81614ffa565b9150602083013567ffffffffffffffff81111561504957600080fd5b61505585828601614caf565b9150509250929050565b6000806040838503121561507257600080fd5b50508035926020909101359150565b634e487b7160e01b600052603260045260246000fd5b6000602082840312156150a957600080fd5b81518015158114611cd957600080fd5b6000602082840312156150cb57600080fd5b8151611cd981614ffa565b6150e08186614de4565b6080602082015260006150f66080830186614df8565b82810360408401526151088186614df8565b91505082606083015295945050505050565b634e487b7160e01b600052601160045260246000fd5b600060001982036151435761514361511a565b5060010190565b60006040808301858452602060406020860152818651808452606093506060870191506020880160005b828110156151ab57815180518552858101518686015287810151888601528601518685015260809093019290840190600101615174565b50919998505050505050505050565b6003811061311f5761311f614dce565b60005b838110156151e55781810151838201526020016151cd565b50506000910152565b600081518084526152068160208601602086016151ca565b601f01601f19169290920160200192915050565b838152615226836151ba565b826020820152606060408201526000612f0060608301846151ee565b600082601f83011261525357600080fd5b81516020615263614cd083614c8b565b8083825260208201915060208460051b87010193508684111561528557600080fd5b602086015b84811015614d1357805160ff811681146152a45760008081fd5b835291830191830161528a565b6000602082840312156152c357600080fd5b815167ffffffffffffffff808211156152db57600080fd5b9083019060a082860312156152ef57600080fd5b6152f7614bef565b8251815260208301516020820152604083015160408201526060830151606082015260808301518281111561532b57600080fd5b61533787828601615242565b60808301525095945050505050565b634e487b7160e01b600052601260045260246000fd5b60008261536b5761536b615346565b60001983147f8000000000000000000000000000000000000000000000000000000000000000831416156153a1576153a161511a565b500590565b8181036000831280158383131683831282161715610b9257610b9261511a565b808201808211156102e6576102e661511a565b6000826153e8576153e8615346565b500690565b6000826153fc576153fc615346565b500490565b83815260606020820152600061541a6060830185614df8565b9050826040830152949350505050565b600082601f83011261543b57600080fd5b815167ffffffffffffffff81111561545557615455614bb0565b6154686020601f19601f84011601614c5a565b81815284602083860101111561547d57600080fd5b6105cd8260208301602087016151ca565b6000806000606084860312156154a357600080fd5b835167ffffffffffffffff808211156154bb57600080fd5b6154c78783880161542a565b94506020860151935060408601519150808211156154e457600080fd5b50614f808682870161542a565b6000815160208301517fffffffff00000000000000000000000000000000000000000000000000000000808216935060048310156149085760049290920360031b82901b161692915050565b60006002871061554f5761554f614dce565b5060f89590951b8552600185019390935260218401919091526041830152606182015260810190565b6000835161558a8184602088016151ca565b83519083019061559e8183602088016151ca565b01949350505050565b85815260a0602082015260006155c060a0830187614df8565b82810360408401526155d281876151ee565b905084606084015282810360808401526155ec81856151ee565b98975050505050505050565b8481526080602082015260006156116080830186614df8565b60ff949094166040830152506060015292915050565b60006020828403121561563957600080fd5b5051919050565b85815260a06020820152600061565960a0830187614df8565b60ff86166040840152828103606084015261567481866151ee565b9150508260808301529695505050505050565b60408152600061569a60408301856151ee565b90506001600160a01b03831660208301529392505050565b6040815260006156c560408301856151ee565b90508260208301529392505050565b600061010082840312156156e757600080fd5b6156ef614c12565b825181526020830151602082015260408301516040820152606083015160608201526080830151608082015260a083015160a082015260c083015160c082015260e083015160e08201528091505092915050565b60006020828403121561575557600080fd5b815167ffffffffffffffff8082111561576d57600080fd5b90830190610100828603121561578257600080fd5b61578a614c12565b825181526020830151828111156157a057600080fd5b6157ac87828601615242565b60208301525060408301516040820152606083015160608201526080830151608082015260a083015160a082015260c083015160c082015260e083015160e082015280935050505092915050565b6000602080838503121561580d57600080fd5b825167ffffffffffffffff8082111561582557600080fd5b818501915085601f83011261583957600080fd5b8151615847614cd082614c8b565b81815260059190911b8301840190848101908883111561586657600080fd5b938501935b828510156155ec57845184811681146158845760008081fd5b8252938501939085019061586b565b80820281158282048414176102e6576102e661511a565b8082018281126000831280158216821582161715610c4b57610c4b61511a565b808202600082127f8000000000000000000000000000000000000000000000000000000000000000841416156159025761590261511a565b81810583148215176102e6576102e661511a565b8d81528c60208201528b60408201528a606082015289151560f81b608082015288151560f81b60818201526159526082820189151560f81b9052565b8660838201528560a382015261596f60c3820186151560f81b9052565b92151560f81b60c484015260c583019190915260e5820152610105019a9950505050505050505050565b805160038110611f3e57600080fd5b600082601f8301126159b957600080fd5b815160206159c9614cd083614c8b565b8083825260208201915060208460051b8701019350868411156159eb57600080fd5b602086015b84811015614d1357805183529183019183016159f0565b600060208284031215615a1957600080fd5b815167ffffffffffffffff80821115615a3157600080fd5b908301906101208286031215615a4657600080fd5b615a4e614c36565b8251815260208301516020820152615a6860408401615999565b6040820152606083015160608201526080830151608082015260a083015160a082015260c083015182811115615a9d57600080fd5b615aa9878286016159a8565b60c08301525060e083810151908201526101009283015192810192909252509392505050565b600060ff821660ff8103615ae557615ae561511a565b60010192915050565b8281526040602082015260006105cd60408301846151ee565b600060208284031215615b1957600080fd5b815167ffffffffffffffff811115615b3057600080fd5b6105cd8482850161542a565b7fffff0000000000000000000000000000000000000000000000000000000000008416815260007f3a000000000000000000000000000000000000000000000000000000000000008060028401528451615b9d8160038601602089016151ca565b808401905081600382015284519150615bbd8260048301602088016151ca565b0160040195945050505050565b602081526000611cd960208301846151ee565b888152876020820152615bef876151ba565b60f89690961b604087015260418601949094526061850192909252608184015260a183015260c182015260e10192915050565b818103818111156102e6576102e661511a565b8281526000602080830184516020860160005b82811015615c6457815184529284019290840190600101615c48565b5091979650505050505050565b606081526000615c8460608301866151ee565b60208301949094525060400152919050565b608081526000615ca96080830187614df8565b8281036020840152615cbb81876151ee565b90508460408401528281036060840152615cd581856151ee565b979650505050505050565b86815260c060208201526000615cf960c0830188614df8565b8281036040840152615d0b81886151ee565b90508560608401528281036080840152615d2581866151ee565b9150508260a0830152979650505050505050565b606081526000615d4c6060830186614df8565b65ffffffffffff851660208401528281036040840152610f7a81856151ee565b848152608060208201526000615d856080830186614df8565b65ffffffffffff851660408401528281036060840152615cd581856151ee565b60007f80000000000000000000000000000000000000000000000000000000000000008203615dd657615dd661511a565b5060000390565b838152606060208201526000615df66060830185614df8565b905060ff83166040830152949350505050565b60008251615e1b8184602087016151ca565b9190910192915050565b60008451615e378184602089016151ca565b60609490941b7fffffffffffffffffffffffffffffffffffffffff000000000000000000000000169190930190815260148101919091526034019291505056fea26469706673582212208b85d6e6c1eb6359b1f81a8fcbc85c9df37973d9b26c87008994001d449f204e64736f6c63430008180033","linkReferences":{"src/libraries/LibChunks.sol":{"LibChunks":[{"start":9004,"length":20}]}}},"methodIdentifiers":{"_calculateMagicAttack()":"bfea0b85","_msgSender()":"119df25f","_msgValue()":"45ec9354","_world()":"e1af802c","createMatch(uint8,bytes32[],bytes32[])":"aaa417b7","endTurn(bytes32,bytes32,(bytes32,bytes32,bytes32,uint256)[])":"98d239b1","executeCombat(uint256,bytes32,(bytes32,bytes32,bytes32,uint256)[])":"fc88ff63","getEncounter(bytes32)":"4dda27e8","isParticipant(address,bytes32[])":"b2467894","isParticipant(bytes32,bytes32)":"c6ca743c","isValidPvE(bytes32[],bytes32[],uint16,uint16)":"15451020","supportsInterface(bytes4)":"01ffc9a7"},"id":114}