{"abi":[{"type":"function","name":"_msgSender","inputs":[],"outputs":[{"name":"sender","type":"address","internalType":"address"}],"stateMutability":"view"},{"type":"function","name":"_msgValue","inputs":[],"outputs":[{"name":"value","type":"uint256","internalType":"uint256"}],"stateMutability":"pure"},{"type":"function","name":"_world","inputs":[],"outputs":[{"name":"","type":"address","internalType":"address"}],"stateMutability":"view"},{"type":"function","name":"applyEquipmentAndStatusEffects","inputs":[{"name":"entityId","type":"bytes32","internalType":"bytes32"}],"outputs":[{"name":"_adjustedStats","type":"tuple","internalType":"struct AdjustedCombatStats","components":[{"name":"adjustedStrength","type":"int256","internalType":"int256"},{"name":"adjustedAgility","type":"int256","internalType":"int256"},{"name":"adjustedIntelligence","type":"int256","internalType":"int256"},{"name":"adjustedArmor","type":"int256","internalType":"int256"},{"name":"adjustedMaxHp","type":"int256","internalType":"int256"},{"name":"currentHp","type":"int256","internalType":"int256"},{"name":"level","type":"uint256","internalType":"uint256"}]}],"stateMutability":"nonpayable"},{"type":"function","name":"executeAction","inputs":[{"name":"actionOutcomeData","type":"tuple","internalType":"struct ActionOutcomeData","components":[{"name":"itemId","type":"uint256","internalType":"uint256"},{"name":"attackerId","type":"bytes32","internalType":"bytes32"},{"name":"defenderId","type":"bytes32","internalType":"bytes32"},{"name":"attackerDamageDelt","type":"int256","internalType":"int256"},{"name":"defenderDamageDelt","type":"int256","internalType":"int256"},{"name":"attackerDied","type":"bool","internalType":"bool"},{"name":"defenderDied","type":"bool","internalType":"bool"},{"name":"blockNumber","type":"uint256","internalType":"uint256"},{"name":"timestamp","type":"uint256","internalType":"uint256"},{"name":"damagePerHit","type":"int256[]","internalType":"int256[]"},{"name":"effectIds","type":"bytes32[]","internalType":"bytes32[]"},{"name":"hit","type":"bool[]","internalType":"bool[]"},{"name":"miss","type":"bool[]","internalType":"bool[]"},{"name":"crit","type":"bool[]","internalType":"bool[]"}]},{"name":"randomNumber","type":"uint256","internalType":"uint256"}],"outputs":[{"name":"","type":"tuple","internalType":"struct ActionOutcomeData","components":[{"name":"itemId","type":"uint256","internalType":"uint256"},{"name":"attackerId","type":"bytes32","internalType":"bytes32"},{"name":"defenderId","type":"bytes32","internalType":"bytes32"},{"name":"attackerDamageDelt","type":"int256","internalType":"int256"},{"name":"defenderDamageDelt","type":"int256","internalType":"int256"},{"name":"attackerDied","type":"bool","internalType":"bool"},{"name":"defenderDied","type":"bool","internalType":"bool"},{"name":"blockNumber","type":"uint256","internalType":"uint256"},{"name":"timestamp","type":"uint256","internalType":"uint256"},{"name":"damagePerHit","type":"int256[]","internalType":"int256[]"},{"name":"effectIds","type":"bytes32[]","internalType":"bytes32[]"},{"name":"hit","type":"bool[]","internalType":"bool[]"},{"name":"miss","type":"bool[]","internalType":"bool[]"},{"name":"crit","type":"bool[]","internalType":"bool[]"}]}],"stateMutability":"nonpayable"},{"type":"function","name":"getDied","inputs":[{"name":"entityId","type":"bytes32","internalType":"bytes32"}],"outputs":[{"name":"isDied","type":"bool","internalType":"bool"}],"stateMutability":"view"},{"type":"function","name":"getEncounter","inputs":[{"name":"encounterId","type":"bytes32","internalType":"bytes32"}],"outputs":[{"name":"","type":"tuple","internalType":"struct CombatEncounterData","components":[{"name":"encounterType","type":"uint8","internalType":"enum EncounterType"},{"name":"start","type":"uint256","internalType":"uint256"},{"name":"end","type":"uint256","internalType":"uint256"},{"name":"rewardsDistributed","type":"bool","internalType":"bool"},{"name":"currentTurn","type":"uint256","internalType":"uint256"},{"name":"currentTurnTimer","type":"uint256","internalType":"uint256"},{"name":"maxTurns","type":"uint256","internalType":"uint256"},{"name":"attackersAreMobs","type":"bool","internalType":"bool"},{"name":"defenders","type":"bytes32[]","internalType":"bytes32[]"},{"name":"attackers","type":"bytes32[]","internalType":"bytes32[]"}]}],"stateMutability":"view"},{"type":"function","name":"supportsInterface","inputs":[{"name":"interfaceId","type":"bytes4","internalType":"bytes4"}],"outputs":[{"name":"","type":"bool","internalType":"bool"}],"stateMutability":"pure"},{"type":"event","name":"Store_SpliceStaticData","inputs":[{"name":"tableId","type":"bytes32","indexed":true,"internalType":"ResourceId"},{"name":"keyTuple","type":"bytes32[]","indexed":false,"internalType":"bytes32[]"},{"name":"start","type":"uint48","indexed":false,"internalType":"uint48"},{"name":"data","type":"bytes","indexed":false,"internalType":"bytes"}],"anonymous":false},{"type":"error","name":"IntOverflow","inputs":[]},{"type":"error","name":"Slice_OutOfBounds","inputs":[{"name":"data","type":"bytes","internalType":"bytes"},{"name":"start","type":"uint256","internalType":"uint256"},{"name":"end","type":"uint256","internalType":"uint256"}]},{"type":"error","name":"World_AccessDenied","inputs":[{"name":"resource","type":"string","internalType":"string"},{"name":"caller","type":"address","internalType":"address"}]}],"bytecode":{"object":"0x608060405234801561001057600080fd5b50614213806100206000396000f3fe608060405234801561001057600080fd5b50600436106100885760003560e01c80634dda27e81161005b5780634dda27e814610108578063d01f757f14610128578063def4c3ff14610148578063e1af802c1461015b57600080fd5b806301ffc9a71461008d578063119df25f146100b557806324653997146100d557806345ec9354146100f5575b600080fd5b6100a061009b3660046131da565b610163565b60405190151581526020015b60405180910390f35b6100bd6101fc565b6040516001600160a01b0390911681526020016100ac565b6100e86100e336600461321c565b61020b565b6040516100ac9190613235565b604051601f1936013581526020016100ac565b61011b61011636600461321c565b610344565b6040516100ac91906132f6565b61013b610136366004613590565b6103a8565b6040516100ac919061373f565b6100a061015636600461321c565b6107eb565b6100bd6107f6565b60007fffffffff0000000000000000000000000000000000000000000000000000000082167fb5dee1270000000000000000000000000000000000000000000000000000000014806101f657507fffffffff0000000000000000000000000000000000000000000000000000000082167f01ffc9a700000000000000000000000000000000000000000000000000000000145b92915050565b6000610206610800565b905090565b61024b6040518060e00160405280600081526020016000815260200160008152602001600081526020016000815260200160008152602001600081525090565b60006102556107f6565b6001600160a01b03166354f1f2db846040518263ffffffff1660e01b815260040161028291815260200190565b60e060405180830381865afa15801561029f573d6000803e3d6000fd5b505050506040513d601f19601f820116820180604052508101906102c3919061384a565b90506102cd6107f6565b6001600160a01b031663dd2a588584836040518363ffffffff1660e01b81526004016102fa9291906138ae565b60e0604051808303816000875af1158015610319573d6000803e3d6000fd5b505050506040513d601f19601f8201168201806040525081019061033d919061384a565b9392505050565b61039f6040805161014081019091528060008152602001600081526020016000815260200160001515815260200160008152602001600081526020016000815260200160001515815260200160608152602001606081525090565b6101f682610832565b610424604051806101c001604052806000815260200160008019168152602001600080191681526020016000815260200160008152602001600015158152602001600015158152602001600081526020016000815260200160608152602001606081526020016060815260200160608152602001606081525090565b610435306104306101fc565b610937565b61044283602001516107eb565b158015610459575061045783604001516107eb565b155b156107e45760005b836101400151518110156107b1576000610498856101400151838151811061048b5761048b613902565b602002602001015161094d565b905080602001516104f05760405162461bcd60e51b815260206004820152601560248201527f616374696f6e20646f6573206e6f74206578697374000000000000000000000060448201526064015b60405180910390fd5b8051600381111561050357610503613282565b60ff166001036106a157610544856101400151838151811061052757610527613902565b602002602001015186602001518760400151886000015188610a01565b876101200151858151811061055b5761055b613902565b60200260200101886101600151868151811061057957610579613902565b60200260200101896101a00151878151811061059757610597613902565b931515602094850291909101909301929092529115159052526101208501518051839081106105c8576105c8613902565b6020026020010151856060018181516105e1919061392e565b9052506101608501518051839081106105fc576105fc613902565b6020026020010151156106735760006001866101200151848151811061062457610624613902565b6020026020010151610636919061396c565b6106438760400151610e82565b61064d91906139b6565b90506000811361065f57600160c08701525b61066d866040015182610f1c565b506107a8565b6001856101800151838151811061068c5761068c613902565b911515602092830291909101909101526107a8565b805160038111156106b4576106b4613282565b60ff166002036106f55761054485610140015183815181106106d8576106d8613902565b602002602001015186602001518760400151886000015188610fd5565b8051600381111561070857610708613282565b60ff1660030361076057610749856101400151838151811061072c5761072c613902565b602002602001015186602001518760400151886000015188611357565b856101600151838151811061068c5761068c613902565b60405162461bcd60e51b815260206004820152601a60248201527f616374696f6e2074797065206e6f74207265636f676e697a656400000000000060448201526064016104e7565b50600101610461565b508260c00151156107cb576107cb836040015160016117e8565b8260a00151156107e4576107e4836020015160016117e8565b5090919050565b60006101f6826118a1565b600061020661193f565b7fffffffffffffffffffffffffffffffffffffffffffffffffffffffffffffffcc36013560601c8061082f5750335b90565b61088d6040805161014081019091528060008152602001600081526020016000815260200160001515815260200160008152602001600081526020016000815260200160001515815260200160608152602001606081525090565b6040805160018082528183019092526000916020808301908036833701905050905082816000815181106108c3576108c3613902565b60209081029190910101526000808061091c7f74625544000000000000000000000000436f6d626174456e636f756e74657200857ea3080201202001202020010000000000000000000000000000000000000000611949565b92509250925061092d838383611a19565b9695505050505050565b61094961094383611afc565b82611b99565b5050565b604080518082019091526000808252602082015260408051600180825281830190925260009160208083019080368337019050509050828160008151811061099757610997613902565b6020908102919091010152600080806109f07f7462554400000000000000000000000045666665637473000000000000000000857e02020001010000000000000000000000000000000000000000000000000000611949565b92509250925061092d838383611be5565b600080600080610a108861020b565b90506000610a1d8861020b565b90506000610a296107f6565b6001600160a01b031663810c1dc1896040518263ffffffff1660e01b8152600401610a5691815260200190565b600060405180830381865afa158015610a73573d6000803e3d6000fd5b505050506040513d6000823e601f3d908101601f19168201604052610a9b9190810190613a3c565b9050610aa56107f6565b6040517f8340b0e1000000000000000000000000000000000000000000000000000000008152600481018a9052602481018d90526001600160a01b039190911690638340b0e190604401602060405180830381865afa158015610b0c573d6000803e3d6000fd5b505050506040513d601f19601f82011682018060405250810190610b309190613af0565b610b7c5760405162461bcd60e51b815260206004820152600e60248201527f494e56414c494420414354494f4e00000000000000000000000000000000000060448201526064016104e7565b6000610b866107f6565b6001600160a01b03166336915e548d6040518263ffffffff1660e01b8152600401610bb391815260200190565b608060405180830381865afa158015610bd0573d6000803e3d6000fd5b505050506040513d601f19601f82011682018060405250810190610bf49190613b0d565b905060008360a001511315610e66576040517f4dddf8370000000000000000000000000000000000000000000000000000000081526004810189905260009073__$227e4555c1f608352b26068e438454dd8b$__90634dddf83790602401600060405180830381865af4158015610c6f573d6000803e3d6000fd5b505050506040513d6000823e601f3d908101601f19168201604052610c979190810190613b53565b9050610cff81600081518110610caf57610caf613902565b602002602001015167ffffffffffffffff1682600181518110610cd457610cd4613902565b602002602001015167ffffffffffffffff168460200151856060015189602001518960200151611c3a565b90975095508615610e19576001600083600001518660600151610d2291906139b6565b13610d2e576000610d3f565b82516060860151610d3f91906139b6565b610d499190613bf8565b610d748387600001518685600281518110610d6657610d66613902565b60200260200101518b611cf6565b610d7e91906139b6565b9750610dbe6040518060400160405280600481526020017f4849542100000000000000000000000000000000000000000000000000000000815250611dd5565b8515610e1457610e026040518060400160405280600581526020017f4352495421000000000000000000000000000000000000000000000000000000815250611dd5565b610e0d600289613c0f565b9750600195505b610e60565b610e576040518060400160405280600581526020017f4d49535321000000000000000000000000000000000000000000000000000000815250611dd5565b60009750600096505b50610e73565b6000965060009550600094505b50505050955095509592505050565b604080516001808252818301909252600091829190602080830190803683370190505090508281600081518110610ebb57610ebb613902565b60209081029190910101526000610f147f74625544000000000000000000000000537461747300000000000000000000008360057ee1080020200120202020200000000000000000000000000000000000000000611e49565b949350505050565b604080516001808252818301909252600091602080830190803683370190505090508281600081518110610f5257610f52613902565b602002602001018181525050610fd07f746255440000000000000000000000005374617473000000000000000000000060001b82600585604051602001610f9b91815260200190565b60408051601f198184030181529190527ee1080020200120202020200000000000000000000000000000000000000000611f06565b505050565b600080600080610fe48861020b565b90506000610ff18861020b565b90506000610ffd6107f6565b6001600160a01b031663975bb835896040518263ffffffff1660e01b815260040161102a91815260200190565b600060405180830381865afa158015611047573d6000803e3d6000fd5b505050506040513d6000823e601f3d908101601f1916820160405261106f9190810190613c5b565b90506110796107f6565b6040517f8340b0e1000000000000000000000000000000000000000000000000000000008152600481018a9052602481018d90526001600160a01b039190911690638340b0e190604401602060405180830381865afa1580156110e0573d6000803e3d6000fd5b505050506040513d601f19601f820116820180604052508101906111049190613af0565b6111505760405162461bcd60e51b815260206004820152600e60248201527f494e56414c494420414354494f4e00000000000000000000000000000000000060448201526064016104e7565b600061115a6107f6565b6001600160a01b0316637fe3cf018d6040518263ffffffff1660e01b815260040161118791815260200190565b606060405180830381865afa1580156111a4573d6000803e3d6000fd5b505050506040513d601f19601f820116820180604052508101906111c89190613ce6565b905060008360a001511315610e66576040517f4dddf8370000000000000000000000000000000000000000000000000000000081526004810189905260009073__$227e4555c1f608352b26068e438454dd8b$__90634dddf83790602401600060405180830381865af4158015611243573d6000803e3d6000fd5b505050506040513d6000823e601f3d908101601f1916820160405261126b9190810190613b53565b90506112d38160008151811061128357611283613902565b602002602001015167ffffffffffffffff16826001815181106112a8576112a8613902565b602002602001015167ffffffffffffffff168460000151856040015189604001518960400151611c3a565b90975095508615610e195761130e8284836002815181106112f6576112f6613902565b6020026020010151886040015188604001518b611fbc565b975061134e6040518060400160405280600c81526020017f4d616769632064616d6167650000000000000000000000000000000000000000815250611dd5565b610dbe8861217e565b6000806113638661020b565b905060006113708661020b565b9050600061137c6107f6565b6001600160a01b031663a2bc1c468a6040518263ffffffff1660e01b81526004016113a991815260200190565b60e060405180830381865afa1580156113c6573d6000803e3d6000fd5b505050506040513d601f19601f820116820180604052508101906113ea9190613d42565b60a0015190506113f86107f6565b6040517f8340b0e100000000000000000000000000000000000000000000000000000000815260048101889052602481018b90526001600160a01b039190911690638340b0e190604401602060405180830381865afa15801561145f573d6000803e3d6000fd5b505050506040513d601f19601f820116820180604052508101906114839190613af0565b6114cf5760405162461bcd60e51b815260206004820152600e60248201527f494e56414c49442045464645435400000000000000000000000000000000000060448201526064016104e7565b6114fa6040518060800160405280600081526020016000815260200160008152602001600081525090565b60008360a0015113156117db576040517f4dddf8370000000000000000000000000000000000000000000000000000000081526004810187905260009073__$227e4555c1f608352b26068e438454dd8b$__90634dddf83790602401600060405180830381865af4158015611573573d6000803e3d6000fd5b505050506040513d6000823e601f3d908101601f1916820160405261159b9190810190613b53565b905060008360038111156115b1576115b1613282565b036115bf576001955061173c565b60018360038111156115d3576115d3613282565b036116465761163e816000815181106115ee576115ee613902565b602002602001015167ffffffffffffffff168260018151811061161357611613613902565b602002602001015167ffffffffffffffff168460200151856060015189600001518960000151611c3a565b50955061173c565b600283600381111561165a5761165a613282565b036116755761163e81600081518110610caf57610caf613902565b600383600381111561168957611689613282565b036116f45761163e816000815181106116a4576116a4613902565b602002602001015167ffffffffffffffff16826001815181106116c9576116c9613902565b602002602001015167ffffffffffffffff168460200151856060015189604001518960400151611c3a565b60405162461bcd60e51b815260206004820152601c60248201527f556e7265636f676e697a656420726573697374616e636520737461740000000060448201526064016104e7565b85156117d95761174a6107f6565b6040517f56a93542000000000000000000000000000000000000000000000000000000008152600481018b9052602481018d90526001600160a01b0391909116906356a935429060440160e0604051808303816000875af11580156117b3573d6000803e3d6000fd5b505050506040513d601f19601f820116820180604052508101906117d7919061384a565b505b505b5050505095945050505050565b60408051600180825281830190925260009160208083019080368337019050509050828160008151811061181e5761181e613902565b602002602001018181525050610fd07f74625544000000000000000000000000456e636f756e746572456e746974790060001b8260018560405160200161186c91151560f81b815260010190565b60408051601f198184030181529190527e21020120010000000000000000000000000000000000000000000000000000611f06565b6040805160018082528183019092526000918291906020808301908036833701905050905082816000815181106118da576118da613902565b602090810291909101015260006119337f74625544000000000000000000000000456e636f756e746572456e74697479008360017e21020120010000000000000000000000000000000000000000000000000000611e49565b9050610f148160f81c90565b60006102066121f1565b60606000606060006119596121f1565b9050306001600160a01b0382160361198257611976878787612230565b93509350935050611a10565b6040517f419b58fd0000000000000000000000000000000000000000000000000000000081526001600160a01b0382169063419b58fd906119cb908a908a908a90600401613db2565b600060405180830381865afa1580156119e8573d6000803e3d6000fd5b505050506040513d6000823e601f3d908101601f191682016040526119769190810190613e63565b93509350939050565b611a746040805161014081019091528060008152602001600081526020016000815260200160001515815260200160008152602001600081526020016000815260200160001515815260200160608152602001606081525090565b611a7d84612338565b80151560e08a015260c0890182905260a089018390526080890184905284151560608a0152604089018690526020890187905288886002811115611ac357611ac3613282565b6002811115611ad457611ad4613282565b8152505050505050505050611ae983836123bc565b6101208301526101008201529392505050565b60408051600180825281830190925260009182919060208083019080368337019050509050826001600160a01b031660001b81600081518110611b4157611b41613902565b60209081029190910101526000610f147f7462776f726c6400000000000000000053797374656d5265676973747279000083837e20010020000000000000000000000000000000000000000000000000000000611e49565b611ba3828261240b565b61094957611bb082612469565b816040517fd787b7370000000000000000000000000000000000000000000000000000000081526004016104e7929190613efc565b6040805180820190915260008082526020820152611c02846125a6565b801515602084015282826003811115611c1d57611c1d613282565b6003811115611c2e57611c2e613282565b81525050509392505050565b600080806001670de0b6b3a7640000611c556103e88c613f27565b611c5f888b6125dc565b611c699190613bf8565b611c739190613f3b565b611c7d9190613bf8565b905060006001670de0b6b3a7640000611c978760006125dc565b611ca36101908d613f27565b611cad9190613bf8565b611cb79190613f3b565b611cc19190613bf8565b90508082101593508315611ce957611cda600982613bf8565b611ce4888461392e565b101592505b5050965096945050505050565b600081611d7e576000611d158460041867ffffffffffffffff16612631565b905060008560800151866060015183611d2e9190613f4f565b1315611d48576060860151611d439083613f4f565b611d4e565b85608001515b8860400151611d5d919061392e565b90506001611d6b888361266d565b611d759190613c0f565b92505050611d85565b5060608301515b611dc36040518060400160405280600681526020017f44414d4147450000000000000000000000000000000000000000000000000000815250611dd5565b611dcc8161217e565b95945050505050565b611e4681604051602401611de99190613f63565b60408051601f198184030181529190526020810180517bffffffffffffffffffffffffffffffffffffffffffffffffffffffff167f41304fac000000000000000000000000000000000000000000000000000000001790526126ee565b50565b600080611e546121f1565b9050306001600160a01b03821603611e7a57611e728686868661270f565b915050610f14565b6040517f8c364d590000000000000000000000000000000000000000000000000000000081526001600160a01b03821690638c364d5990611ec5908990899089908990600401613f76565b602060405180830381865afa158015611ee2573d6000803e3d6000fd5b505050506040513d601f19601f82011682018060405250810190611e729190613fa5565b6000611f106121f1565b9050306001600160a01b03821603611f3457611f2f868686868661273c565b611fb4565b6040517f390baae00000000000000000000000000000000000000000000000000000000081526001600160a01b0382169063390baae090611f819089908990899089908990600401613fbe565b600060405180830381600087803b158015611f9b57600080fd5b505af1158015611faf573d6000803e3d6000fd5b505050505b505050505050565b6000611ffc6040518060400160405280600681526020017f4d41474943210000000000000000000000000000000000000000000000000000815250611dd5565b85516000128015612011575060008660200151135b156120d15760008261207557865160208801516120389067ffffffffffffffff8916613f27565b111561205c5760208701516120579067ffffffffffffffff8816613f27565b61205f565b86515b886020015161206e919061392e565b905061208c565b87602001518760200151612089919061392e565b90505b60016000851361209d57600061209f565b845b6120a99190613c0f565b60016120b5878461266d565b6120bf9190613c0f565b6120c991906139b6565b91505061092d565b855160001380156120e6575060008660200151125b1561092d578161215f57855160208701516001919061210f9067ffffffffffffffff8916613f27565b111561213c57602087015161212e9067ffffffffffffffff8816613f27565b61213790614005565b61213f565b86515b886020015161214e919061392e565b6121589190613c0f565b905061092d565b86602001518660200151612173919061392e565b979650505050505050565b611e468160405160240161219491815260200190565b60408051601f198184030181529190526020810180517bffffffffffffffffffffffffffffffffffffffffffffffffffffffff167f4e0c1d1d000000000000000000000000000000000000000000000000000000001790526126ee565b7f629a4c26e296b22a8e0856e9f6ecb2d1008d7e00081111962cd175fa7488e175546000906001600160a01b03168061222b573391505090565b919050565b606060006060600061224185612758565b905061224e87878361277b565b9350600061225b866127b4565b9050801561232d5761226d88886127f1565b935066ffffffffffffff841667ffffffffffffffff811115612291576122916133a1565b6040519080825280601f01601f1916602001820160405280156122bb576020820181803683370190505b5092506020830160005b828160ff16101561232a5760006122dd8b8b84612804565b905060006122fa888460ff166028026038011c64ffffffffff1690565b90506123098260008387612884565b612313818561403d565b93505050808061232290614050565b9150506122c5565b50505b505093509350939050565b600080600080600080600080612352896000016020015190565b60f81c600281111561236657612366613282565b60218a015160418b015160618c0151929a509098509650612388905b60f81c90565b60628a015160828b015160a28c015160c28d0151939850919650945092506123af90612382565b9050919395975091939597565b6060806000603885901c64ffffffffff166123e06123db86848461294f565b6129dd565b935090508064ffffffffff606087901c16016124006123db86848461294f565b925050509250929050565b60006124597f6e730000000000000000000000000000000000000000000000000000000000007dffffffffffffffffffffffffffff00000000000000000000000000000000851617836129ee565b8061033d575061033d83836129ee565b606081601081901b600061247c83612ab7565b9050827fffffffffffffffffffffffffffff0000000000000000000000000000000000008316156124d7576124d27fffffffffffffffffffffffffffff0000000000000000000000000000000000008416612ace565b61250e565b6040518060400160405280600681526020017f3c726f6f743e00000000000000000000000000000000000000000000000000008152505b7fffffffffffffffffffffffffffffffff000000000000000000000000000000008316156125445761253f83612ace565b61257b565b6040518060400160405280600681526020017f3c726f6f743e00000000000000000000000000000000000000000000000000008152505b60405160200161258d9392919061406f565b6040516020818303038152906040529350505050919050565b6020810151600090819060f81c60038111156125c4576125c4613282565b60218401519092506125d590612382565b9050915091565b600080826125eb60038661396c565b6125f5919061392e565b1361260857670de0b6b3a764000061033d565b670de0b6b3a76400008261261d60038661396c565b612627919061392e565b61033d9190613c0f565b80600081121561222b576040517f44dddea200000000000000000000000000000000000000000000000000000000815260040160405180910390fd5b6000808313156126e35760006126ad670de0b6b3a76400006103e881612694600589613c0f565b61269e9190613c0f565b6126a8919061396c565b612b72565b905082670de0b6b3a76400006126c7836126a88385613c0f565b6126d1919061396c565b6126db919061392e565b9150506101f6565b61033d60028361396c565b80516a636f6e736f6c652e6c6f67602083016000808483855afa5050505050565b6000611dcc61271e8686612b9b565b60ff858116601b0360080285901c166127378587612bf1565b612c2a565b612751858561274b8487612bf1565b85612c7b565b5050505050565b60006008612768600260206140fd565b6127729190613bf8565b9190911c919050565b60608160000361279a575060408051602081019091526000815261033d565b60006127a68585612b9b565b9050611dcc81600085612f1f565b600060086001806127c7600260206140fd565b6127d191906140fd565b6127db91906140fd565b6127e59190613bf8565b8260ff911c1692915050565b600061033d6128008484612f42565b5490565b60008383604051602001612819929190614110565b604051602081830303815290604052805190602001208260f81b7effffffffffffffffffffffffffffffffffffffffffffffffffffffffffffff19167f3b4102da22e32d82fc925482184f16c09fd4281692720b87d124aef6da48a0f1181860001c90509392505050565b821561290b57602083106128ae576020830484019350602083816128aa576128aa613956565b0692505b821561290b5760208390036000818410156128d15750600019600884021c6128db565b50600019600882021c5b8554600886021b8184511682198216178452508184116128fc575050612949565b50600194909401939182900391015b5b6020821061292d5783548152600190930192601f199091019060200161290c565b81156129495780518454600019600885021c9182169119161781525b50505050565b60008183118061295f5750835182115b1561299c578383836040517f23230fa30000000000000000000000000000000000000000000000000000000081526004016104e79392919061414c565b602084016129aa848261403d565b905060006129b885856140fd565b6fffffffffffffffffffffffffffffffff1660809290921b9190911795945050505050565b6060600061033d8360206000612f98565b604080516002808252606082018352600092839291906020830190803683370190505090508381600081518110612a2757612a27613902565b602002602001018181525050826001600160a01b031660001b81600181518110612a5357612a53613902565b60209081029190910101526000612aab7f7462776f726c640000000000000000005265736f75726365416363657373000083837e01010001000000000000000000000000000000000000000000000000000000611e49565b9050611dcc8160f81c90565b6000612ac56070601061403d565b9190911b919050565b606060005b6010811015612b33577fffffffffffffffffffffffffffffffff000000000000000000000000000000008316600882021b7fff000000000000000000000000000000000000000000000000000000000000001615612b3357600101612ad3565b604080517fffffffffffffffffffffffffffffffff00000000000000000000000000000000851660208201528151603090910190915281815280610f14565b6000670de0b6b3a764000082612b8785612631565b612b919190613c0f565b61033d919061396c565b60008282604051602001612bb0929190614110565b60408051601f1981840301815291905280516020909101207f86425bff6b57326c7859e89024fe4f238ca327a1ae4a230180dd2f0e88aaa7d9189392505050565b600080805b8360ff16811015612c2257612c1860ff601b83900360080287901c168361403d565b9150600101612bf6565b509392505050565b600060208210612c5057602082048401935060208281612c4c57612c4c613956565b0691505b508254600882021b602082900380841115612c22576001850154600882021c82179150509392505050565b7f6f74000000000000000000000000000000000000000000000000000000000000847fffff0000000000000000000000000000000000000000000000000000000000001603612d0557837f8c0b5119d4cec7b284c6b1b39252a03d1e2f2d7451a5895562524c113bb952be848484604051612cf893929190614171565b60405180910390a2612949565b6000612d118585612b9b565b90506000612d1e86613013565b905060005b8151811015612df3576000828281518110612d4057612d40613902565b60200260200101519050612d6c6004826affffffffffffffffffffff191661309c90919063ffffffff16565b15612dea576040517f964f667d000000000000000000000000000000000000000000000000000000008152606082901c9063964f667d90612db7908b908b908b908b906004016141a4565b600060405180830381600087803b158015612dd157600080fd5b505af1158015612de5573d6000803e3d6000fd5b505050505b50600101612d23565b50857f8c0b5119d4cec7b284c6b1b39252a03d1e2f2d7451a5895562524c113bb952be868686604051612e2893929190614171565b60405180910390a2612e43828565ffffffffffff16856130ba565b60005b8151811015612f16576000828281518110612e6357612e63613902565b60200260200101519050612e8f6008826affffffffffffffffffffff191661309c90919063ffffffff16565b15612f0d576040517fa8ba8721000000000000000000000000000000000000000000000000000000008152606082901c9063a8ba872190612eda908b908b908b908b906004016141a4565b600060405180830381600087803b158015612ef457600080fd5b505af1158015612f08573d6000803e3d6000fd5b505050505b50600101612e46565b50505050505050565b60405160208101601f19603f8484010116604052828252612c2285858584612884565b60008282604051602001612f57929190614110565b60408051601f1981840301815291905280516020909101207f14e2fcc58e58e68ec7edc30c8d50dccc3ce2714a623ec81f46b6a63922d76569189392505050565b60606000612fa68560801c90565b90506fffffffffffffffffffffffffffffffff85166000858281612fcc57612fcc613956565b04905060405193506020840160208202810160405281855260005b82811015613007578451871c825293870193602090910190600101612fe7565b50505050509392505050565b6040805160018082528183019092526060916000919060208083019080368337019050509050828160008151811061304d5761304d613902565b602090810291909101015260006130857f746273746f726500000000000000000053746f7265486f6f6b7300000000000083836130d0565b9050610f14613097826000845161294f565b61310a565b60008160ff16826130ad8560581c90565b1660ff1614905092915050565b610fd0838383516130cb8560200190565b61311b565b6060610f146130e0858585612804565b6000613105856130f089896127f1565b9060ff166028026038011c64ffffffffff1690565b612f1f565b6060600061033d8360156000612f98565b821561319557602083106131455760208304840193506020838161314157613141613956565b0692505b82156131955760208390036000600019600885021c1990506008850281811c91508351811c9050811987541682821617875550818411613186575050612949565b50600194909401939182900391015b5b602082106131b75780518455600190930192601f1990910190602001613196565b8115612949576000600019600884021c8554835182191691161785555050505050565b6000602082840312156131ec57600080fd5b81357fffffffff000000000000000000000000000000000000000000000000000000008116811461033d57600080fd5b60006020828403121561322e57600080fd5b5035919050565b60e081016101f68284805182526020810151602083015260408101516040830152606081015160608301526080810151608083015260a081015160a083015260c081015160c08301525050565b634e487b7160e01b600052602160045260246000fd5b600381106132b657634e487b7160e01b600052602160045260246000fd5b9052565b60008151808452602080850194506020840160005b838110156132eb578151875295820195908201906001016132cf565b509495945050505050565b60208152613308602082018351613298565b602082015160408201526040820151606082015260006060830151613331608084018215159052565b50608083015160a083015260a083015160c083015260c083015160e083015260e08301516101006133658185018315159052565b8085015191505061014061012081818601526133856101608601846132ba565b90860151858203601f19018387015290925061092d83826132ba565b634e487b7160e01b600052604160045260246000fd5b6040516101c0810167ffffffffffffffff811182821017156133db576133db6133a1565b60405290565b60405160e0810167ffffffffffffffff811182821017156133db576133db6133a1565b604051610100810167ffffffffffffffff811182821017156133db576133db6133a1565b6040516080810167ffffffffffffffff811182821017156133db576133db6133a1565b604051601f8201601f1916810167ffffffffffffffff81118282101715613474576134746133a1565b604052919050565b8015158114611e4657600080fd5b803561222b8161347c565b600067ffffffffffffffff8211156134af576134af6133a1565b5060051b60200190565b600082601f8301126134ca57600080fd5b813560206134df6134da83613495565b61344b565b8083825260208201915060208460051b87010193508684111561350157600080fd5b602086015b8481101561351d5780358352918301918301613506565b509695505050505050565b600082601f83011261353957600080fd5b813560206135496134da83613495565b8083825260208201915060208460051b87010193508684111561356b57600080fd5b602086015b8481101561351d5780356135838161347c565b8352918301918301613570565b600080604083850312156135a357600080fd5b823567ffffffffffffffff808211156135bb57600080fd5b908401906101c082870312156135d057600080fd5b6135d86133b7565b823581526020830135602082015260408301356040820152606083013560608201526080830135608082015261361060a0840161348a565b60a082015261362160c0840161348a565b60c082015260e083013560e0820152610100808401358183015250610120808401358381111561365057600080fd5b61365c898287016134b9565b828401525050610140808401358381111561367657600080fd5b613682898287016134b9565b828401525050610160808401358381111561369c57600080fd5b6136a889828701613528565b82840152505061018080840135838111156136c257600080fd5b6136ce89828701613528565b8284015250506101a080840135838111156136e857600080fd5b6136f489828701613528565b91830191909152509660209590950135955050505050565b60008151808452602080850194506020840160005b838110156132eb578151151587529582019590820190600101613721565b6020815281516020820152602082015160408201526040820151606082015260608201516080820152608082015160a0820152600060a083015161378760c084018215159052565b5060c083015180151560e08401525060e083015161010083810191909152830151610120808401919091528301516101c06101408085018290526137cf6101e08601846132ba565b9250808601519050601f196101608187860301818801526137f085846132ba565b94508088015192505061018081878603018188015261380f858461370c565b9450808801519250506101a081878603018188015261382e858461370c565b90880151878203909201848801529350905061092d838261370c565b600060e0828403121561385c57600080fd5b6138646133e1565b825181526020830151602082015260408301516040820152606083015160608201526080830151608082015260a083015160a082015260c083015160c08201528091505092915050565b828152610100810161033d6020830184805182526020810151602083015260408101516040830152606081015160608301526080810151608083015260a081015160a083015260c081015160c08301525050565b634e487b7160e01b600052603260045260246000fd5b634e487b7160e01b600052601160045260246000fd5b808201828112600083128015821682158216171561394e5761394e613918565b505092915050565b634e487b7160e01b600052601260045260246000fd5b60008261397b5761397b613956565b60001983147f8000000000000000000000000000000000000000000000000000000000000000831416156139b1576139b1613918565b500590565b81810360008312801583831316838312821617156139d6576139d6613918565b5092915050565b600082601f8301126139ee57600080fd5b815160206139fe6134da83613495565b8083825260208201915060208460051b870101935086841115613a2057600080fd5b602086015b8481101561351d5780518352918301918301613a25565b600060208284031215613a4e57600080fd5b815167ffffffffffffffff80821115613a6657600080fd5b908301906101008286031215613a7b57600080fd5b613a83613404565b825181526020830151602082015260408301516040820152606083015160608201526080830151608082015260a083015160a082015260c083015160c082015260e083015182811115613ad557600080fd5b613ae1878286016139dd565b60e08301525095945050505050565b600060208284031215613b0257600080fd5b815161033d8161347c565b600060808284031215613b1f57600080fd5b613b27613428565b825181526020830151602082015260408301516040820152606083015160608201528091505092915050565b60006020808385031215613b6657600080fd5b825167ffffffffffffffff80821115613b7e57600080fd5b818501915085601f830112613b9257600080fd5b8151613ba06134da82613495565b81815260059190911b83018401908481019088831115613bbf57600080fd5b938501935b82851015613bec5784518481168114613bdd5760008081fd5b82529385019390850190613bc4565b98975050505050505050565b80820281158282048414176101f6576101f6613918565b808202600082127f800000000000000000000000000000000000000000000000000000000000000084141615613c4757613c47613918565b81810583148215176101f6576101f6613918565b600060208284031215613c6d57600080fd5b815167ffffffffffffffff80821115613c8557600080fd5b9083019060808286031215613c9957600080fd5b613ca1613428565b825181526020830151602082015260408301516040820152606083015182811115613ccb57600080fd5b613cd7878286016139dd565b60608301525095945050505050565b600060608284031215613cf857600080fd5b6040516060810181811067ffffffffffffffff82111715613d1b57613d1b6133a1565b80604052508251815260208301516020820152604083015160408201528091505092915050565b600060e08284031215613d5457600080fd5b613d5c6133e1565b825181526020830151602082015260408301516040820152606083015160608201526080830151608082015260a083015160048110613d9a57600080fd5b60a082015260c0928301519281019290925250919050565b838152606060208201526000613dcb60608301856132ba565b9050826040830152949350505050565b60005b83811015613df6578181015183820152602001613dde565b50506000910152565b600082601f830112613e1057600080fd5b815167ffffffffffffffff811115613e2a57613e2a6133a1565b613e3d6020601f19601f8401160161344b565b818152846020838601011115613e5257600080fd5b610f14826020830160208701613ddb565b600080600060608486031215613e7857600080fd5b835167ffffffffffffffff80821115613e9057600080fd5b613e9c87838801613dff565b9450602086015193506040860151915080821115613eb957600080fd5b50613ec686828701613dff565b9150509250925092565b60008151808452613ee8816020860160208601613ddb565b601f01601f19169290920160200192915050565b604081526000613f0f6040830185613ed0565b90506001600160a01b03831660208301529392505050565b600082613f3657613f36613956565b500690565b600082613f4a57613f4a613956565b500490565b600082613f5e57613f5e613956565b500790565b60208152600061033d6020830184613ed0565b848152608060208201526000613f8f60808301866132ba565b60ff949094166040830152506060015292915050565b600060208284031215613fb757600080fd5b5051919050565b85815260a060208201526000613fd760a08301876132ba565b60ff861660408401528281036060840152613ff28186613ed0565b9150508260808301529695505050505050565b60007f8000000000000000000000000000000000000000000000000000000000000000820361403657614036613918565b5060000390565b808201808211156101f6576101f6613918565b600060ff821660ff810361406657614066613918565b60010192915050565b7fffff0000000000000000000000000000000000000000000000000000000000008416815260007f3a0000000000000000000000000000000000000000000000000000000000000080600284015284516140d0816003860160208901613ddb565b8084019050816003820152845191506140f0826004830160208801613ddb565b0160040195945050505050565b818103818111156101f6576101f6613918565b8281526000602080830184516020860160005b8281101561413f57815184529284019290840190600101614123565b5091979650505050505050565b60608152600061415f6060830186613ed0565b60208301949094525060400152919050565b60608152600061418460608301866132ba565b65ffffffffffff85166020840152828103604084015261092d8185613ed0565b8481526080602082015260006141bd60808301866132ba565b65ffffffffffff8516604084015282810360608401526121738185613ed056fea2646970667358221220d2ed9fcd51a3afda0104072231369fd11609508ce2c239c3fba998858940444764736f6c63430008180033","linkReferences":{"src/libraries/LibChunks.sol":{"LibChunks":[{"start":3157,"length":20},{"start":4649,"length":20},{"start":5465,"length":20}]}}},"methodIdentifiers":{"_msgSender()":"119df25f","_msgValue()":"45ec9354","_world()":"e1af802c","applyEquipmentAndStatusEffects(bytes32)":"24653997","executeAction((uint256,bytes32,bytes32,int256,int256,bool,bool,uint256,uint256,int256[],bytes32[],bool[],bool[],bool[]),uint256)":"d01f757f","getDied(bytes32)":"def4c3ff","getEncounter(bytes32)":"4dda27e8","supportsInterface(bytes4)":"01ffc9a7"},"id":254}