{"abi":[{"type":"function","name":"_msgSender","inputs":[],"outputs":[{"name":"sender","type":"address","internalType":"address"}],"stateMutability":"view"},{"type":"function","name":"_msgValue","inputs":[],"outputs":[{"name":"value","type":"uint256","internalType":"uint256"}],"stateMutability":"pure"},{"type":"function","name":"_world","inputs":[],"outputs":[{"name":"","type":"address","internalType":"address"}],"stateMutability":"view"},{"type":"function","name":"applyEquipmentAndStatusEffects","inputs":[{"name":"entityId","type":"bytes32","internalType":"bytes32"}],"outputs":[{"name":"_adjustedStats","type":"tuple","internalType":"struct AdjustedCombatStats","components":[{"name":"adjustedStrength","type":"int256","internalType":"int256"},{"name":"adjustedAgility","type":"int256","internalType":"int256"},{"name":"adjustedIntelligence","type":"int256","internalType":"int256"},{"name":"adjustedArmor","type":"int256","internalType":"int256"},{"name":"adjustedMaxHp","type":"int256","internalType":"int256"},{"name":"currentHp","type":"int256","internalType":"int256"},{"name":"level","type":"uint256","internalType":"uint256"}]}],"stateMutability":"nonpayable"},{"type":"function","name":"executeAttack","inputs":[{"name":"attackOutcomeData","type":"tuple","internalType":"struct AttackOutcomeData","components":[{"name":"itemId","type":"uint256","internalType":"uint256"},{"name":"attackerId","type":"bytes32","internalType":"bytes32"},{"name":"defenderId","type":"bytes32","internalType":"bytes32"},{"name":"attackerDamageDelt","type":"int256","internalType":"int256"},{"name":"defenderDamageDelt","type":"int256","internalType":"int256"},{"name":"attackerDied","type":"bool","internalType":"bool"},{"name":"defenderDied","type":"bool","internalType":"bool"},{"name":"blockNumber","type":"uint256","internalType":"uint256"},{"name":"timestamp","type":"uint256","internalType":"uint256"},{"name":"damagePerHit","type":"int256[]","internalType":"int256[]"},{"name":"effectIds","type":"bytes32[]","internalType":"bytes32[]"},{"name":"hit","type":"bool[]","internalType":"bool[]"},{"name":"miss","type":"bool[]","internalType":"bool[]"},{"name":"crit","type":"bool[]","internalType":"bool[]"}]},{"name":"randomNumber","type":"uint256","internalType":"uint256"}],"outputs":[{"name":"","type":"tuple","internalType":"struct AttackOutcomeData","components":[{"name":"itemId","type":"uint256","internalType":"uint256"},{"name":"attackerId","type":"bytes32","internalType":"bytes32"},{"name":"defenderId","type":"bytes32","internalType":"bytes32"},{"name":"attackerDamageDelt","type":"int256","internalType":"int256"},{"name":"defenderDamageDelt","type":"int256","internalType":"int256"},{"name":"attackerDied","type":"bool","internalType":"bool"},{"name":"defenderDied","type":"bool","internalType":"bool"},{"name":"blockNumber","type":"uint256","internalType":"uint256"},{"name":"timestamp","type":"uint256","internalType":"uint256"},{"name":"damagePerHit","type":"int256[]","internalType":"int256[]"},{"name":"effectIds","type":"bytes32[]","internalType":"bytes32[]"},{"name":"hit","type":"bool[]","internalType":"bool[]"},{"name":"miss","type":"bool[]","internalType":"bool[]"},{"name":"crit","type":"bool[]","internalType":"bool[]"}]}],"stateMutability":"nonpayable"},{"type":"function","name":"getDied","inputs":[{"name":"entityId","type":"bytes32","internalType":"bytes32"}],"outputs":[{"name":"isDied","type":"bool","internalType":"bool"}],"stateMutability":"view"},{"type":"function","name":"getEncounter","inputs":[{"name":"encounterId","type":"bytes32","internalType":"bytes32"}],"outputs":[{"name":"","type":"tuple","internalType":"struct CombatEncounterData","components":[{"name":"encounterType","type":"uint8","internalType":"enum EncounterType"},{"name":"start","type":"uint256","internalType":"uint256"},{"name":"end","type":"uint256","internalType":"uint256"},{"name":"rewardsDistributed","type":"bool","internalType":"bool"},{"name":"currentTurn","type":"uint256","internalType":"uint256"},{"name":"currentTurnTimer","type":"uint256","internalType":"uint256"},{"name":"maxTurns","type":"uint256","internalType":"uint256"},{"name":"attackersAreMobs","type":"bool","internalType":"bool"},{"name":"defenders","type":"bytes32[]","internalType":"bytes32[]"},{"name":"attackers","type":"bytes32[]","internalType":"bytes32[]"}]}],"stateMutability":"view"},{"type":"function","name":"supportsInterface","inputs":[{"name":"interfaceId","type":"bytes4","internalType":"bytes4"}],"outputs":[{"name":"","type":"bool","internalType":"bool"}],"stateMutability":"pure"},{"type":"event","name":"Store_SpliceStaticData","inputs":[{"name":"tableId","type":"bytes32","indexed":true,"internalType":"ResourceId"},{"name":"keyTuple","type":"bytes32[]","indexed":false,"internalType":"bytes32[]"},{"name":"start","type":"uint48","indexed":false,"internalType":"uint48"},{"name":"data","type":"bytes","indexed":false,"internalType":"bytes"}],"anonymous":false},{"type":"error","name":"IntOverflow","inputs":[]},{"type":"error","name":"Slice_OutOfBounds","inputs":[{"name":"data","type":"bytes","internalType":"bytes"},{"name":"start","type":"uint256","internalType":"uint256"},{"name":"end","type":"uint256","internalType":"uint256"}]},{"type":"error","name":"World_AccessDenied","inputs":[{"name":"resource","type":"string","internalType":"string"},{"name":"caller","type":"address","internalType":"address"}]}],"bytecode":{"object":"0x608060405234801561001057600080fd5b50614209806100206000396000f3fe608060405234801561001057600080fd5b50600436106100885760003560e01c80634dda27e81161005b5780634dda27e814610108578063def4c3ff14610128578063e1af802c1461013b578063f7b417671461014357600080fd5b806301ffc9a71461008d578063119df25f146100b557806324653997146100d557806345ec9354146100f5575b600080fd5b6100a061009b3660046131da565b610163565b60405190151581526020015b60405180910390f35b6100bd6101fc565b6040516001600160a01b0390911681526020016100ac565b6100e86100e336600461321c565b61020b565b6040516100ac9190613235565b604051601f1936013581526020016100ac565b61011b61011636600461321c565b610344565b6040516100ac91906132f6565b6100a061013636600461321c565b6103a8565b6100bd6103b3565b610156610151366004613590565b6103bd565b6040516100ac919061373f565b60007fffffffff0000000000000000000000000000000000000000000000000000000082167fb5dee1270000000000000000000000000000000000000000000000000000000014806101f657507fffffffff0000000000000000000000000000000000000000000000000000000082167f01ffc9a700000000000000000000000000000000000000000000000000000000145b92915050565b6000610206610800565b905090565b61024b6040518060e00160405280600081526020016000815260200160008152602001600081526020016000815260200160008152602001600081525090565b60006102556103b3565b6001600160a01b03166354f1f2db846040518263ffffffff1660e01b815260040161028291815260200190565b60e060405180830381865afa15801561029f573d6000803e3d6000fd5b505050506040513d601f19601f820116820180604052508101906102c3919061384a565b90506102cd6103b3565b6001600160a01b031663dd2a588584836040518363ffffffff1660e01b81526004016102fa9291906138ae565b60e0604051808303816000875af1158015610319573d6000803e3d6000fd5b505050506040513d601f19601f8201168201806040525081019061033d919061384a565b9392505050565b61039f6040805161014081019091528060008152602001600081526020016000815260200160001515815260200160008152602001600081526020016000815260200160001515815260200160608152602001606081525090565b6101f682610832565b60006101f682610937565b60006102066109dd565b610439604051806101c001604052806000815260200160008019168152602001600080191681526020016000815260200160008152602001600015158152602001600015158152602001600081526020016000815260200160608152602001606081526020016060815260200160608152602001606081525090565b61044a306104456101fc565b6109e7565b61045783602001516103a8565b15801561046e575061046c83604001516103a8565b155b156107f95760005b836101400151518110156107c65760006104ad85610140015183815181106104a0576104a0613902565b60200260200101516109fd565b905080602001516105055760405162461bcd60e51b815260206004820152601560248201527f616374696f6e20646f6573206e6f74206578697374000000000000000000000060448201526064015b60405180910390fd5b8051600381111561051857610518613282565b60ff166001036106b657610559856101400151838151811061053c5761053c613902565b602002602001015186602001518760400151886000015188610ab1565b876101200151858151811061057057610570613902565b60200260200101886101600151868151811061058e5761058e613902565b60200260200101896101a0015187815181106105ac576105ac613902565b931515602094850291909101909301929092529115159052526101208501518051839081106105dd576105dd613902565b6020026020010151856060018181516105f6919061392e565b90525061016085015180518390811061061157610611613902565b6020026020010151156106885760006001866101200151848151811061063957610639613902565b602002602001015161064b919061396c565b6106588760400151610f32565b61066291906139b6565b90506000811361067457600160c08701525b610682866040015182610fc4565b506107bd565b600185610180015183815181106106a1576106a1613902565b911515602092830291909101909101526107bd565b805160038111156106c9576106c9613282565b60ff1660020361070a5761055985610140015183815181106106ed576106ed613902565b60200260200101518660200151876040015188600001518861107d565b8051600381111561071d5761071d613282565b60ff166003036107755761075e856101400151838151811061074157610741613902565b6020026020010151866020015187604001518860000151886113ff565b85610160015183815181106106a1576106a1613902565b60405162461bcd60e51b815260206004820152601a60248201527f616374696f6e2074797065206e6f74207265636f676e697a656400000000000060448201526064016104fc565b50600101610476565b508260c00151156107e0576107e083604001516001611890565b8260a00151156107f9576107f983602001516001611890565b5090919050565b7fffffffffffffffffffffffffffffffffffffffffffffffffffffffffffffffcc36013560601c8061082f5750335b90565b61088d6040805161014081019091528060008152602001600081526020016000815260200160001515815260200160008152602001600081526020016000815260200160001515815260200160608152602001606081525090565b6040805160018082528183019092526000916020808301908036833701905050905082816000815181106108c3576108c3613902565b60209081029190910101526000808061091c7f74625544000000000000000000000000436f6d626174456e636f756e74657200857ea3080201202001202020010000000000000000000000000000000000000000611949565b92509250925061092d838383611a19565b9695505050505050565b60408051600180825281830190925260009182919060208083019080368337019050509050828160008151811061097057610970613902565b602090810291909101015260006109c97f74625544000000000000000000000000456e636f756e746572456e74697479008360017e21020120010000000000000000000000000000000000000000000000000000611afc565b90506109d58160f81c90565b949350505050565b6000610206611bb9565b6109f96109f383611bf8565b82611c95565b5050565b6040805180820190915260008082526020820152604080516001808252818301909252600091602080830190803683370190505090508281600081518110610a4757610a47613902565b602090810291909101015260008080610aa07f7462554400000000000000000000000045666665637473000000000000000000857e02020001010000000000000000000000000000000000000000000000000000611949565b92509250925061092d838383611ce1565b600080600080610ac08861020b565b90506000610acd8861020b565b90506000610ad96103b3565b6001600160a01b031663810c1dc1896040518263ffffffff1660e01b8152600401610b0691815260200190565b600060405180830381865afa158015610b23573d6000803e3d6000fd5b505050506040513d6000823e601f3d908101601f19168201604052610b4b9190810190613a3c565b9050610b556103b3565b6040517f8340b0e1000000000000000000000000000000000000000000000000000000008152600481018a9052602481018d90526001600160a01b039190911690638340b0e190604401602060405180830381865afa158015610bbc573d6000803e3d6000fd5b505050506040513d601f19601f82011682018060405250810190610be09190613af0565b610c2c5760405162461bcd60e51b815260206004820152600e60248201527f494e56414c494420414354494f4e00000000000000000000000000000000000060448201526064016104fc565b6000610c366103b3565b6001600160a01b03166336915e548d6040518263ffffffff1660e01b8152600401610c6391815260200190565b608060405180830381865afa158015610c80573d6000803e3d6000fd5b505050506040513d601f19601f82011682018060405250810190610ca49190613b0d565b905060008360a001511315610f16576040517f4dddf8370000000000000000000000000000000000000000000000000000000081526004810189905260009073__$227e4555c1f608352b26068e438454dd8b$__90634dddf83790602401600060405180830381865af4158015610d1f573d6000803e3d6000fd5b505050506040513d6000823e601f3d908101601f19168201604052610d479190810190613b73565b9050610daf81600081518110610d5f57610d5f613902565b602002602001015167ffffffffffffffff1682600181518110610d8457610d84613902565b602002602001015167ffffffffffffffff168460200151856060015189602001518960200151611d36565b90975095508615610ec9576001600083600001518660600151610dd291906139b6565b13610dde576000610def565b82516060860151610def91906139b6565b610df99190613c18565b610e248387600001518685600281518110610e1657610e16613902565b60200260200101518b611df2565b610e2e91906139b6565b9750610e6e6040518060400160405280600481526020017f4849542100000000000000000000000000000000000000000000000000000000815250611ed1565b8515610ec457610eb26040518060400160405280600581526020017f4352495421000000000000000000000000000000000000000000000000000000815250611ed1565b610ebd600289613c2f565b9750600195505b610f10565b610f076040518060400160405280600581526020017f4d49535321000000000000000000000000000000000000000000000000000000815250611ed1565b60009750600096505b50610f23565b6000965060009550600094505b50505050955095509592505050565b604080516001808252818301909252600091829190602080830190803683370190505090508281600081518110610f6b57610f6b613902565b602090810291909101015260006109d57f74625544000000000000000000000000537461747300000000000000000000008360057ee1080020200120202020200000000000000000000000000000000000000000611afc565b604080516001808252818301909252600091602080830190803683370190505090508281600081518110610ffa57610ffa613902565b6020026020010181815250506110787f746255440000000000000000000000005374617473000000000000000000000060001b8260058560405160200161104391815260200190565b60408051601f198184030181529190527ee1080020200120202020200000000000000000000000000000000000000000611f45565b505050565b60008060008061108c8861020b565b905060006110998861020b565b905060006110a56103b3565b6001600160a01b031663975bb835896040518263ffffffff1660e01b81526004016110d291815260200190565b600060405180830381865afa1580156110ef573d6000803e3d6000fd5b505050506040513d6000823e601f3d908101601f191682016040526111179190810190613c7b565b90506111216103b3565b6040517f8340b0e1000000000000000000000000000000000000000000000000000000008152600481018a9052602481018d90526001600160a01b039190911690638340b0e190604401602060405180830381865afa158015611188573d6000803e3d6000fd5b505050506040513d601f19601f820116820180604052508101906111ac9190613af0565b6111f85760405162461bcd60e51b815260206004820152600e60248201527f494e56414c494420414354494f4e00000000000000000000000000000000000060448201526064016104fc565b60006112026103b3565b6001600160a01b0316637fe3cf018d6040518263ffffffff1660e01b815260040161122f91815260200190565b606060405180830381865afa15801561124c573d6000803e3d6000fd5b505050506040513d601f19601f820116820180604052508101906112709190613cfc565b905060008360a001511315610f16576040517f4dddf8370000000000000000000000000000000000000000000000000000000081526004810189905260009073__$227e4555c1f608352b26068e438454dd8b$__90634dddf83790602401600060405180830381865af41580156112eb573d6000803e3d6000fd5b505050506040513d6000823e601f3d908101601f191682016040526113139190810190613b73565b905061137b8160008151811061132b5761132b613902565b602002602001015167ffffffffffffffff168260018151811061135057611350613902565b602002602001015167ffffffffffffffff168460000151856040015189604001518960400151611d36565b90975095508615610ec9576113b682848360028151811061139e5761139e613902565b6020026020010151886040015188604001518b611ffb565b97506113f66040518060400160405280600c81526020017f4d616769632064616d6167650000000000000000000000000000000000000000815250611ed1565b610e6e886121bd565b60008061140b8661020b565b905060006114188661020b565b905060006114246103b3565b6001600160a01b031663a2bc1c468a6040518263ffffffff1660e01b815260040161145191815260200190565b60e060405180830381865afa15801561146e573d6000803e3d6000fd5b505050506040513d601f19601f820116820180604052508101906114929190613d38565b60a0015190506114a06103b3565b6040517f8340b0e100000000000000000000000000000000000000000000000000000000815260048101889052602481018b90526001600160a01b039190911690638340b0e190604401602060405180830381865afa158015611507573d6000803e3d6000fd5b505050506040513d601f19601f8201168201806040525081019061152b9190613af0565b6115775760405162461bcd60e51b815260206004820152600e60248201527f494e56414c49442045464645435400000000000000000000000000000000000060448201526064016104fc565b6115a26040518060800160405280600081526020016000815260200160008152602001600081525090565b60008360a001511315611883576040517f4dddf8370000000000000000000000000000000000000000000000000000000081526004810187905260009073__$227e4555c1f608352b26068e438454dd8b$__90634dddf83790602401600060405180830381865af415801561161b573d6000803e3d6000fd5b505050506040513d6000823e601f3d908101601f191682016040526116439190810190613b73565b9050600083600381111561165957611659613282565b0361166757600195506117e4565b600183600381111561167b5761167b613282565b036116ee576116e68160008151811061169657611696613902565b602002602001015167ffffffffffffffff16826001815181106116bb576116bb613902565b602002602001015167ffffffffffffffff168460200151856060015189600001518960000151611d36565b5095506117e4565b600283600381111561170257611702613282565b0361171d576116e681600081518110610d5f57610d5f613902565b600383600381111561173157611731613282565b0361179c576116e68160008151811061174c5761174c613902565b602002602001015167ffffffffffffffff168260018151811061177157611771613902565b602002602001015167ffffffffffffffff168460200151856060015189604001518960400151611d36565b60405162461bcd60e51b815260206004820152601c60248201527f556e7265636f676e697a656420726573697374616e636520737461740000000060448201526064016104fc565b8515611881576117f26103b3565b6040517f56a93542000000000000000000000000000000000000000000000000000000008152600481018b9052602481018d90526001600160a01b0391909116906356a935429060440160e0604051808303816000875af115801561185b573d6000803e3d6000fd5b505050506040513d601f19601f8201168201806040525081019061187f919061384a565b505b505b5050505095945050505050565b6040805160018082528183019092526000916020808301908036833701905050905082816000815181106118c6576118c6613902565b6020026020010181815250506110787f74625544000000000000000000000000456e636f756e746572456e746974790060001b8260018560405160200161191491151560f81b815260010190565b60408051601f198184030181529190527e21020120010000000000000000000000000000000000000000000000000000611f45565b6060600060606000611959611bb9565b9050306001600160a01b0382160361198257611976878787612230565b93509350935050611a10565b6040517f419b58fd0000000000000000000000000000000000000000000000000000000081526001600160a01b0382169063419b58fd906119cb908a908a908a90600401613da8565b600060405180830381865afa1580156119e8573d6000803e3d6000fd5b505050506040513d6000823e601f3d908101601f191682016040526119769190810190613e59565b93509350939050565b611a746040805161014081019091528060008152602001600081526020016000815260200160001515815260200160008152602001600081526020016000815260200160001515815260200160608152602001606081525090565b611a7d84612338565b80151560e08a015260c0890182905260a089018390526080890184905284151560608a0152604089018690526020890187905288886001811115611ac357611ac3613282565b6001811115611ad457611ad4613282565b8152505050505050505050611ae983836123bc565b6101208301526101008201529392505050565b600080611b07611bb9565b9050306001600160a01b03821603611b2d57611b258686868661240b565b9150506109d5565b6040517f8c364d590000000000000000000000000000000000000000000000000000000081526001600160a01b03821690638c364d5990611b78908990899089908990600401613ec6565b602060405180830381865afa158015611b95573d6000803e3d6000fd5b505050506040513d601f19601f82011682018060405250810190611b259190613ef5565b7f629a4c26e296b22a8e0856e9f6ecb2d1008d7e00081111962cd175fa7488e175546000906001600160a01b031680611bf3573391505090565b919050565b60408051600180825281830190925260009182919060208083019080368337019050509050826001600160a01b031660001b81600081518110611c3d57611c3d613902565b602090810291909101015260006109d57f7462776f726c6400000000000000000053797374656d5265676973747279000083837e20010020000000000000000000000000000000000000000000000000000000611afc565b611c9f8282612438565b6109f957611cac82612496565b816040517fd787b7370000000000000000000000000000000000000000000000000000000081526004016104fc929190613f3a565b6040805180820190915260008082526020820152611cfe846125d3565b801515602084015282826003811115611d1957611d19613282565b6003811115611d2a57611d2a613282565b81525050509392505050565b600080806001670de0b6b3a7640000611d516103e88c613f65565b611d5b888b612609565b611d659190613c18565b611d6f9190613f79565b611d799190613c18565b905060006001670de0b6b3a7640000611d93876000612609565b611d9f6101908d613f65565b611da99190613c18565b611db39190613f79565b611dbd9190613c18565b90508082101593508315611de557611dd6600882613c18565b611de0888461392e565b101592505b5050965096945050505050565b600081611e7a576000611e118460041867ffffffffffffffff1661265e565b905060008560800151866060015183611e2a9190613f8d565b1315611e44576060860151611e3f9083613f8d565b611e4a565b85608001515b8860400151611e59919061392e565b90506001611e67888361269a565b611e719190613c2f565b92505050611e81565b5060608301515b611ebf6040518060400160405280600681526020017f44414d4147450000000000000000000000000000000000000000000000000000815250611ed1565b611ec8816121bd565b95945050505050565b611f4281604051602401611ee59190613fa1565b60408051601f198184030181529190526020810180517bffffffffffffffffffffffffffffffffffffffffffffffffffffffff167f41304fac0000000000000000000000000000000000000000000000000000000017905261271b565b50565b6000611f4f611bb9565b9050306001600160a01b03821603611f7357611f6e868686868661273c565b611ff3565b6040517f390baae00000000000000000000000000000000000000000000000000000000081526001600160a01b0382169063390baae090611fc09089908990899089908990600401613fb4565b600060405180830381600087803b158015611fda57600080fd5b505af1158015611fee573d6000803e3d6000fd5b505050505b505050505050565b600061203b6040518060400160405280600681526020017f4d41474943210000000000000000000000000000000000000000000000000000815250611ed1565b85516000128015612050575060008660200151135b15612110576000826120b457865160208801516120779067ffffffffffffffff8916613f65565b111561209b5760208701516120969067ffffffffffffffff8816613f65565b61209e565b86515b88602001516120ad919061392e565b90506120cb565b876020015187602001516120c8919061392e565b90505b6001600085136120dc5760006120de565b845b6120e89190613c2f565b60016120f4878461269a565b6120fe9190613c2f565b61210891906139b6565b91505061092d565b85516000138015612125575060008660200151125b1561092d578161219e57855160208701516001919061214e9067ffffffffffffffff8916613f65565b111561217b57602087015161216d9067ffffffffffffffff8816613f65565b61217690613ffb565b61217e565b86515b886020015161218d919061392e565b6121979190613c2f565b905061092d565b866020015186602001516121b2919061392e565b979650505050505050565b611f42816040516024016121d391815260200190565b60408051601f198184030181529190526020810180517bffffffffffffffffffffffffffffffffffffffffffffffffffffffff167f4e0c1d1d0000000000000000000000000000000000000000000000000000000017905261271b565b606060006060600061224185612758565b905061224e87878361277b565b9350600061225b866127b4565b9050801561232d5761226d88886127f1565b935066ffffffffffffff841667ffffffffffffffff811115612291576122916133a1565b6040519080825280601f01601f1916602001820160405280156122bb576020820181803683370190505b5092506020830160005b828160ff16101561232a5760006122dd8b8b84612804565b905060006122fa888460ff166028026038011c64ffffffffff1690565b90506123098260008387612884565b6123138185614033565b93505050808061232290614046565b9150506122c5565b50505b505093509350939050565b600080600080600080600080612352896000016020015190565b60f81c600181111561236657612366613282565b60218a015160418b015160618c0151929a509098509650612388905b60f81c90565b60628a015160828b015160a28c015160c28d0151939850919650945092506123af90612382565b9050919395975091939597565b6060806000603885901c64ffffffffff166123e06123db86848461294f565b6129dd565b935090508064ffffffffff606087901c16016124006123db86848461294f565b925050509250929050565b6000611ec861241a86866129ee565b60ff858116601b0360080285901c166124338587612a44565b612a7d565b60006124867f6e730000000000000000000000000000000000000000000000000000000000007dffffffffffffffffffffffffffff0000000000000000000000000000000085161783612ace565b8061033d575061033d8383612ace565b606081601081901b60006124a983612b97565b9050827fffffffffffffffffffffffffffff000000000000000000000000000000000000831615612504576124ff7fffffffffffffffffffffffffffff0000000000000000000000000000000000008416612bae565b61253b565b6040518060400160405280600681526020017f3c726f6f743e00000000000000000000000000000000000000000000000000008152505b7fffffffffffffffffffffffffffffffff000000000000000000000000000000008316156125715761256c83612bae565b6125a8565b6040518060400160405280600681526020017f3c726f6f743e00000000000000000000000000000000000000000000000000008152505b6040516020016125ba93929190614065565b6040516020818303038152906040529350505050919050565b6020810151600090819060f81c60038111156125f1576125f1613282565b602184015190925061260290612382565b9050915091565b6000808261261860028661396c565b612622919061392e565b1361263557670de0b6b3a764000061033d565b670de0b6b3a76400008261264a60028661396c565b612654919061392e565b61033d9190613c2f565b806000811215611bf3576040517f44dddea200000000000000000000000000000000000000000000000000000000815260040160405180910390fd5b6000808313156127105760006126da670de0b6b3a76400006103e8816126c1600589613c2f565b6126cb9190613c2f565b6126d5919061396c565b612c52565b905082670de0b6b3a76400006126f4836126d58385613c2f565b6126fe919061396c565b612708919061392e565b9150506101f6565b61033d60028361396c565b80516a636f6e736f6c652e6c6f67602083016000808483855afa5050505050565b612751858561274b8487612a44565b85612c7b565b5050505050565b60006008612768600260206140f3565b6127729190613c18565b9190911c919050565b60608160000361279a575060408051602081019091526000815261033d565b60006127a685856129ee565b9050611ec881600085612f1f565b600060086001806127c7600260206140f3565b6127d191906140f3565b6127db91906140f3565b6127e59190613c18565b8260ff911c1692915050565b600061033d6128008484612f42565b5490565b60008383604051602001612819929190614106565b604051602081830303815290604052805190602001208260f81b7effffffffffffffffffffffffffffffffffffffffffffffffffffffffffffff19167f3b4102da22e32d82fc925482184f16c09fd4281692720b87d124aef6da48a0f1181860001c90509392505050565b821561290b57602083106128ae576020830484019350602083816128aa576128aa613956565b0692505b821561290b5760208390036000818410156128d15750600019600884021c6128db565b50600019600882021c5b8554600886021b8184511682198216178452508184116128fc575050612949565b50600194909401939182900391015b5b6020821061292d5783548152600190930192601f199091019060200161290c565b81156129495780518454600019600885021c9182169119161781525b50505050565b60008183118061295f5750835182115b1561299c578383836040517f23230fa30000000000000000000000000000000000000000000000000000000081526004016104fc93929190614142565b602084016129aa8482614033565b905060006129b885856140f3565b6fffffffffffffffffffffffffffffffff1660809290921b9190911795945050505050565b6060600061033d8360206000612f98565b60008282604051602001612a03929190614106565b60408051601f1981840301815291905280516020909101207f86425bff6b57326c7859e89024fe4f238ca327a1ae4a230180dd2f0e88aaa7d9189392505050565b600080805b8360ff16811015612a7557612a6b60ff601b83900360080287901c1683614033565b9150600101612a49565b509392505050565b600060208210612aa357602082048401935060208281612a9f57612a9f613956565b0691505b508254600882021b602082900380841115612a75576001850154600882021c82179150509392505050565b604080516002808252606082018352600092839291906020830190803683370190505090508381600081518110612b0757612b07613902565b602002602001018181525050826001600160a01b031660001b81600181518110612b3357612b33613902565b60209081029190910101526000612b8b7f7462776f726c640000000000000000005265736f75726365416363657373000083837e01010001000000000000000000000000000000000000000000000000000000611afc565b9050611ec88160f81c90565b6000612ba560706010614033565b9190911b919050565b606060005b6010811015612c13577fffffffffffffffffffffffffffffffff000000000000000000000000000000008316600882021b7fff000000000000000000000000000000000000000000000000000000000000001615612c1357600101612bb3565b604080517fffffffffffffffffffffffffffffffff000000000000000000000000000000008516602082015281516030909101909152818152806109d5565b6000670de0b6b3a764000082612c678561265e565b612c719190613c2f565b61033d919061396c565b7f6f74000000000000000000000000000000000000000000000000000000000000847fffff0000000000000000000000000000000000000000000000000000000000001603612d0557837f8c0b5119d4cec7b284c6b1b39252a03d1e2f2d7451a5895562524c113bb952be848484604051612cf893929190614167565b60405180910390a2612949565b6000612d1185856129ee565b90506000612d1e86613013565b905060005b8151811015612df3576000828281518110612d4057612d40613902565b60200260200101519050612d6c6004826affffffffffffffffffffff191661309c90919063ffffffff16565b15612dea576040517f964f667d000000000000000000000000000000000000000000000000000000008152606082901c9063964f667d90612db7908b908b908b908b9060040161419a565b600060405180830381600087803b158015612dd157600080fd5b505af1158015612de5573d6000803e3d6000fd5b505050505b50600101612d23565b50857f8c0b5119d4cec7b284c6b1b39252a03d1e2f2d7451a5895562524c113bb952be868686604051612e2893929190614167565b60405180910390a2612e43828565ffffffffffff16856130ba565b60005b8151811015612f16576000828281518110612e6357612e63613902565b60200260200101519050612e8f6008826affffffffffffffffffffff191661309c90919063ffffffff16565b15612f0d576040517fa8ba8721000000000000000000000000000000000000000000000000000000008152606082901c9063a8ba872190612eda908b908b908b908b9060040161419a565b600060405180830381600087803b158015612ef457600080fd5b505af1158015612f08573d6000803e3d6000fd5b505050505b50600101612e46565b50505050505050565b60405160208101601f19603f8484010116604052828252612a7585858584612884565b60008282604051602001612f57929190614106565b60408051601f1981840301815291905280516020909101207f14e2fcc58e58e68ec7edc30c8d50dccc3ce2714a623ec81f46b6a63922d76569189392505050565b60606000612fa68560801c90565b90506fffffffffffffffffffffffffffffffff85166000858281612fcc57612fcc613956565b04905060405193506020840160208202810160405281855260005b82811015613007578451871c825293870193602090910190600101612fe7565b50505050509392505050565b6040805160018082528183019092526060916000919060208083019080368337019050509050828160008151811061304d5761304d613902565b602090810291909101015260006130857f746273746f726500000000000000000053746f7265486f6f6b7300000000000083836130d0565b90506109d5613097826000845161294f565b61310a565b60008160ff16826130ad8560581c90565b1660ff1614905092915050565b611078838383516130cb8560200190565b61311b565b60606109d56130e0858585612804565b6000613105856130f089896127f1565b9060ff166028026038011c64ffffffffff1690565b612f1f565b6060600061033d8360156000612f98565b821561319557602083106131455760208304840193506020838161314157613141613956565b0692505b82156131955760208390036000600019600885021c1990506008850281811c91508351811c9050811987541682821617875550818411613186575050612949565b50600194909401939182900391015b5b602082106131b75780518455600190930192601f1990910190602001613196565b8115612949576000600019600884021c8554835182191691161785555050505050565b6000602082840312156131ec57600080fd5b81357fffffffff000000000000000000000000000000000000000000000000000000008116811461033d57600080fd5b60006020828403121561322e57600080fd5b5035919050565b60e081016101f68284805182526020810151602083015260408101516040830152606081015160608301526080810151608083015260a081015160a083015260c081015160c08301525050565b634e487b7160e01b600052602160045260246000fd5b600281106132b657634e487b7160e01b600052602160045260246000fd5b9052565b60008151808452602080850194506020840160005b838110156132eb578151875295820195908201906001016132cf565b509495945050505050565b60208152613308602082018351613298565b602082015160408201526040820151606082015260006060830151613331608084018215159052565b50608083015160a083015260a083015160c083015260c083015160e083015260e08301516101006133658185018315159052565b8085015191505061014061012081818601526133856101608601846132ba565b90860151858203601f19018387015290925061092d83826132ba565b634e487b7160e01b600052604160045260246000fd5b6040516101c0810167ffffffffffffffff811182821017156133db576133db6133a1565b60405290565b60405160e0810167ffffffffffffffff811182821017156133db576133db6133a1565b604051610100810167ffffffffffffffff811182821017156133db576133db6133a1565b6040516060810167ffffffffffffffff811182821017156133db576133db6133a1565b604051601f8201601f1916810167ffffffffffffffff81118282101715613474576134746133a1565b604052919050565b8015158114611f4257600080fd5b8035611bf38161347c565b600067ffffffffffffffff8211156134af576134af6133a1565b5060051b60200190565b600082601f8301126134ca57600080fd5b813560206134df6134da83613495565b61344b565b8083825260208201915060208460051b87010193508684111561350157600080fd5b602086015b8481101561351d5780358352918301918301613506565b509695505050505050565b600082601f83011261353957600080fd5b813560206135496134da83613495565b8083825260208201915060208460051b87010193508684111561356b57600080fd5b602086015b8481101561351d5780356135838161347c565b8352918301918301613570565b600080604083850312156135a357600080fd5b823567ffffffffffffffff808211156135bb57600080fd5b908401906101c082870312156135d057600080fd5b6135d86133b7565b823581526020830135602082015260408301356040820152606083013560608201526080830135608082015261361060a0840161348a565b60a082015261362160c0840161348a565b60c082015260e083013560e0820152610100808401358183015250610120808401358381111561365057600080fd5b61365c898287016134b9565b828401525050610140808401358381111561367657600080fd5b613682898287016134b9565b828401525050610160808401358381111561369c57600080fd5b6136a889828701613528565b82840152505061018080840135838111156136c257600080fd5b6136ce89828701613528565b8284015250506101a080840135838111156136e857600080fd5b6136f489828701613528565b91830191909152509660209590950135955050505050565b60008151808452602080850194506020840160005b838110156132eb578151151587529582019590820190600101613721565b6020815281516020820152602082015160408201526040820151606082015260608201516080820152608082015160a0820152600060a083015161378760c084018215159052565b5060c083015180151560e08401525060e083015161010083810191909152830151610120808401919091528301516101c06101408085018290526137cf6101e08601846132ba565b9250808601519050601f196101608187860301818801526137f085846132ba565b94508088015192505061018081878603018188015261380f858461370c565b9450808801519250506101a081878603018188015261382e858461370c565b90880151878203909201848801529350905061092d838261370c565b600060e0828403121561385c57600080fd5b6138646133e1565b825181526020830151602082015260408301516040820152606083015160608201526080830151608082015260a083015160a082015260c083015160c08201528091505092915050565b828152610100810161033d6020830184805182526020810151602083015260408101516040830152606081015160608301526080810151608083015260a081015160a083015260c081015160c08301525050565b634e487b7160e01b600052603260045260246000fd5b634e487b7160e01b600052601160045260246000fd5b808201828112600083128015821682158216171561394e5761394e613918565b505092915050565b634e487b7160e01b600052601260045260246000fd5b60008261397b5761397b613956565b60001983147f8000000000000000000000000000000000000000000000000000000000000000831416156139b1576139b1613918565b500590565b81810360008312801583831316838312821617156139d6576139d6613918565b5092915050565b600082601f8301126139ee57600080fd5b815160206139fe6134da83613495565b8083825260208201915060208460051b870101935086841115613a2057600080fd5b602086015b8481101561351d5780518352918301918301613a25565b600060208284031215613a4e57600080fd5b815167ffffffffffffffff80821115613a6657600080fd5b908301906101008286031215613a7b57600080fd5b613a83613404565b825181526020830151602082015260408301516040820152606083015160608201526080830151608082015260a083015160a082015260c083015160c082015260e083015182811115613ad557600080fd5b613ae1878286016139dd565b60e08301525095945050505050565b600060208284031215613b0257600080fd5b815161033d8161347c565b600060808284031215613b1f57600080fd5b6040516080810181811067ffffffffffffffff82111715613b4257613b426133a1565b8060405250825181526020830151602082015260408301516040820152606083015160608201528091505092915050565b60006020808385031215613b8657600080fd5b825167ffffffffffffffff80821115613b9e57600080fd5b818501915085601f830112613bb257600080fd5b8151613bc06134da82613495565b81815260059190911b83018401908481019088831115613bdf57600080fd5b938501935b82851015613c0c5784518481168114613bfd5760008081fd5b82529385019390850190613be4565b98975050505050505050565b80820281158282048414176101f6576101f6613918565b808202600082127f800000000000000000000000000000000000000000000000000000000000000084141615613c6757613c67613918565b81810583148215176101f6576101f6613918565b600060208284031215613c8d57600080fd5b815167ffffffffffffffff80821115613ca557600080fd5b9083019060608286031215613cb957600080fd5b613cc1613428565b8251815260208301516020820152604083015182811115613ce157600080fd5b613ced878286016139dd565b60408301525095945050505050565b600060608284031215613d0e57600080fd5b613d16613428565b8251815260208301516020820152604083015160408201528091505092915050565b600060e08284031215613d4a57600080fd5b613d526133e1565b825181526020830151602082015260408301516040820152606083015160608201526080830151608082015260a083015160048110613d9057600080fd5b60a082015260c0928301519281019290925250919050565b838152606060208201526000613dc160608301856132ba565b9050826040830152949350505050565b60005b83811015613dec578181015183820152602001613dd4565b50506000910152565b600082601f830112613e0657600080fd5b815167ffffffffffffffff811115613e2057613e206133a1565b613e336020601f19601f8401160161344b565b818152846020838601011115613e4857600080fd5b6109d5826020830160208701613dd1565b600080600060608486031215613e6e57600080fd5b835167ffffffffffffffff80821115613e8657600080fd5b613e9287838801613df5565b9450602086015193506040860151915080821115613eaf57600080fd5b50613ebc86828701613df5565b9150509250925092565b848152608060208201526000613edf60808301866132ba565b60ff949094166040830152506060015292915050565b600060208284031215613f0757600080fd5b5051919050565b60008151808452613f26816020860160208601613dd1565b601f01601f19169290920160200192915050565b604081526000613f4d6040830185613f0e565b90506001600160a01b03831660208301529392505050565b600082613f7457613f74613956565b500690565b600082613f8857613f88613956565b500490565b600082613f9c57613f9c613956565b500790565b60208152600061033d6020830184613f0e565b85815260a060208201526000613fcd60a08301876132ba565b60ff861660408401528281036060840152613fe88186613f0e565b9150508260808301529695505050505050565b60007f8000000000000000000000000000000000000000000000000000000000000000820361402c5761402c613918565b5060000390565b808201808211156101f6576101f6613918565b600060ff821660ff810361405c5761405c613918565b60010192915050565b7fffff0000000000000000000000000000000000000000000000000000000000008416815260007f3a0000000000000000000000000000000000000000000000000000000000000080600284015284516140c6816003860160208901613dd1565b8084019050816003820152845191506140e6826004830160208801613dd1565b0160040195945050505050565b818103818111156101f6576101f6613918565b8281526000602080830184516020860160005b8281101561413557815184529284019290840190600101614119565b5091979650505050505050565b6060815260006141556060830186613f0e565b60208301949094525060400152919050565b60608152600061417a60608301866132ba565b65ffffffffffff85166020840152828103604084015261092d8185613f0e565b8481526080602082015260006141b360808301866132ba565b65ffffffffffff8516604084015282810360608401526121b28185613f0e56fea264697066735822122047db7bc2a0036fc71f4e8654b54d1acefc78a2c49d5aca83934700ba8f60c15264736f6c63430008180033","linkReferences":{"src/libraries/LibChunks.sol":{"LibChunks":[{"start":3333,"length":20},{"start":4817,"length":20},{"start":5633,"length":20}]}}},"methodIdentifiers":{"_msgSender()":"119df25f","_msgValue()":"45ec9354","_world()":"e1af802c","applyEquipmentAndStatusEffects(bytes32)":"24653997","executeAttack((uint256,bytes32,bytes32,int256,int256,bool,bool,uint256,uint256,int256[],bytes32[],bool[],bool[],bool[]),uint256)":"f7b41767","getDied(bytes32)":"def4c3ff","getEncounter(bytes32)":"4dda27e8","supportsInterface(bytes4)":"01ffc9a7"},"id":134}