{"abi":[{"type":"function","name":"_calculateMagicAttack","inputs":[],"outputs":[],"stateMutability":"nonpayable"},{"type":"function","name":"_calculatePhysicalAttack","inputs":[{"name":"attackStats","type":"tuple","internalType":"struct PhysicalAttackStats","components":[{"name":"bonusDamage","type":"int256","internalType":"int256"},{"name":"armorPenetration","type":"int256","internalType":"int256"},{"name":"attackModifierBonus","type":"int256","internalType":"int256"},{"name":"critChanceBonus","type":"int256","internalType":"int256"},{"name":"classRestrictions","type":"uint8[]","internalType":"uint8[]"}]},{"name":"attackerId","type":"bytes32","internalType":"bytes32"},{"name":"defenderId","type":"bytes32","internalType":"bytes32"},{"name":"weaponId","type":"uint256","internalType":"uint256"},{"name":"randomNumber","type":"uint256","internalType":"uint256"}],"outputs":[{"name":"damage","type":"int256","internalType":"int256"},{"name":"hit","type":"bool","internalType":"bool"},{"name":"crit","type":"bool","internalType":"bool"}],"stateMutability":"nonpayable"},{"type":"function","name":"_msgSender","inputs":[],"outputs":[{"name":"sender","type":"address","internalType":"address"}],"stateMutability":"view"},{"type":"function","name":"_msgValue","inputs":[],"outputs":[{"name":"value","type":"uint256","internalType":"uint256"}],"stateMutability":"pure"},{"type":"function","name":"_world","inputs":[],"outputs":[{"name":"","type":"address","internalType":"address"}],"stateMutability":"view"},{"type":"function","name":"calculateGoldDrop","inputs":[{"name":"mobLevel","type":"uint256","internalType":"uint256"},{"name":"randomNumber","type":"uint256","internalType":"uint256"}],"outputs":[{"name":"dropAmount","type":"uint256","internalType":"uint256"}],"stateMutability":"nonpayable"},{"type":"function","name":"calculateItemDrop","inputs":[{"name":"randomNumber","type":"uint256","internalType":"uint256"},{"name":"itemId","type":"uint256","internalType":"uint256"}],"outputs":[{"name":"","type":"bool","internalType":"bool"}],"stateMutability":"nonpayable"},{"type":"function","name":"createMatch","inputs":[{"name":"encounterType","type":"uint8","internalType":"enum EncounterType"},{"name":"attackers","type":"bytes32[]","internalType":"bytes32[]"},{"name":"defenders","type":"bytes32[]","internalType":"bytes32[]"}],"outputs":[{"name":"encounterId","type":"bytes32","internalType":"bytes32"}],"stateMutability":"nonpayable"},{"type":"function","name":"endTurn","inputs":[{"name":"encounterId","type":"bytes32","internalType":"bytes32"},{"name":"playerId","type":"bytes32","internalType":"bytes32"},{"name":"actions","type":"tuple[]","internalType":"struct Action[]","components":[{"name":"attackerEntityId","type":"bytes32","internalType":"bytes32"},{"name":"defenderEntityId","type":"bytes32","internalType":"bytes32"},{"name":"actionId","type":"bytes32","internalType":"bytes32"},{"name":"weaponId","type":"uint256","internalType":"uint256"}]}],"outputs":[],"stateMutability":"payable"},{"type":"function","name":"executeCombat","inputs":[{"name":"randomNumber","type":"uint256","internalType":"uint256"},{"name":"encounterId","type":"bytes32","internalType":"bytes32"},{"name":"actions","type":"tuple[]","internalType":"struct Action[]","components":[{"name":"attackerEntityId","type":"bytes32","internalType":"bytes32"},{"name":"defenderEntityId","type":"bytes32","internalType":"bytes32"},{"name":"actionId","type":"bytes32","internalType":"bytes32"},{"name":"weaponId","type":"uint256","internalType":"uint256"}]}],"outputs":[],"stateMutability":"nonpayable"},{"type":"function","name":"getEncounter","inputs":[{"name":"encounterId","type":"bytes32","internalType":"bytes32"}],"outputs":[{"name":"_encounterData","type":"tuple","internalType":"struct CombatEncounterData","components":[{"name":"encounterType","type":"uint8","internalType":"enum EncounterType"},{"name":"start","type":"uint256","internalType":"uint256"},{"name":"end","type":"uint256","internalType":"uint256"},{"name":"currentTurn","type":"uint256","internalType":"uint256"},{"name":"maxTurns","type":"uint256","internalType":"uint256"},{"name":"defenders","type":"bytes32[]","internalType":"bytes32[]"},{"name":"attackers","type":"bytes32[]","internalType":"bytes32[]"}]}],"stateMutability":"view"},{"type":"function","name":"isParticipant","inputs":[{"name":"account","type":"address","internalType":"address"},{"name":"participants","type":"bytes32[]","internalType":"bytes32[]"}],"outputs":[{"name":"_isParticipant","type":"bool","internalType":"bool"}],"stateMutability":"view"},{"type":"function","name":"isParticipant","inputs":[{"name":"playerId","type":"bytes32","internalType":"bytes32"},{"name":"encounterId","type":"bytes32","internalType":"bytes32"}],"outputs":[{"name":"_isParticipant","type":"bool","internalType":"bool"}],"stateMutability":"view"},{"type":"function","name":"isValidPvE","inputs":[{"name":"attackers","type":"bytes32[]","internalType":"bytes32[]"},{"name":"defenders","type":"bytes32[]","internalType":"bytes32[]"},{"name":"x","type":"uint16","internalType":"uint16"},{"name":"y","type":"uint16","internalType":"uint16"}],"outputs":[{"name":"_isValidPvE","type":"bool","internalType":"bool"}],"stateMutability":"view"},{"type":"function","name":"supportsInterface","inputs":[{"name":"interfaceId","type":"bytes4","internalType":"bytes4"}],"outputs":[{"name":"","type":"bool","internalType":"bool"}],"stateMutability":"pure"},{"type":"event","name":"Store_SetRecord","inputs":[{"name":"tableId","type":"bytes32","indexed":true,"internalType":"ResourceId"},{"name":"keyTuple","type":"bytes32[]","indexed":false,"internalType":"bytes32[]"},{"name":"staticData","type":"bytes","indexed":false,"internalType":"bytes"},{"name":"encodedLengths","type":"bytes32","indexed":false,"internalType":"EncodedLengths"},{"name":"dynamicData","type":"bytes","indexed":false,"internalType":"bytes"}],"anonymous":false},{"type":"event","name":"Store_SpliceStaticData","inputs":[{"name":"tableId","type":"bytes32","indexed":true,"internalType":"ResourceId"},{"name":"keyTuple","type":"bytes32[]","indexed":false,"internalType":"bytes32[]"},{"name":"start","type":"uint48","indexed":false,"internalType":"uint48"},{"name":"data","type":"bytes","indexed":false,"internalType":"bytes"}],"anonymous":false},{"type":"error","name":"Slice_OutOfBounds","inputs":[{"name":"data","type":"bytes","internalType":"bytes"},{"name":"start","type":"uint256","internalType":"uint256"},{"name":"end","type":"uint256","internalType":"uint256"}]},{"type":"error","name":"World_AccessDenied","inputs":[{"name":"resource","type":"string","internalType":"string"},{"name":"caller","type":"address","internalType":"address"}]},{"type":"error","name":"World_FunctionSelectorNotFound","inputs":[{"name":"functionSelector","type":"bytes4","internalType":"bytes4"}]},{"type":"error","name":"World_ResourceNotFound","inputs":[{"name":"resourceId","type":"bytes32","internalType":"ResourceId"},{"name":"resourceIdString","type":"string","internalType":"string"}]}],"bytecode":{"object":"0x608060405234801561001057600080fd5b506154f7806100206000396000f3fe6080604052600436106100e85760003560e01c806398d239b11161008a578063bfea0b8511610059578063bfea0b8514610297578063c6ca743c146102a3578063e1af802c146102c3578063fc88ff63146102d857600080fd5b806398d239b114610205578063aaa417b71461021a578063b127ae901461023a578063b24678941461027757600080fd5b8063195e75c4116100c6578063195e75c41461016f57806332aeffdf1461019d57806345ec9354146101c05780634dda27e8146101d857600080fd5b806301ffc9a7146100ed578063119df25f14610122578063154510201461014f575b600080fd5b3480156100f957600080fd5b5061010d6101083660046142c3565b6102f8565b60405190151581526020015b60405180910390f35b34801561012e57600080fd5b50610137610391565b6040516001600160a01b039091168152602001610119565b34801561015b57600080fd5b5061010d61016a366004614461565b6103a0565b34801561017b57600080fd5b5061018f61018a3660046144e6565b61067a565b604051908152602001610119565b3480156101a957600080fd5b5061010d6101b83660046144e6565b600092915050565b3480156101cc57600080fd5b5036601f19013561018f565b3480156101e457600080fd5b506101f86101f3366004614508565b61069e565b6040516101199190614587565b61021861021336600461468d565b6106e8565b005b34801561022657600080fd5b5061018f6102353660046146dd565b6108b2565b34801561024657600080fd5b5061025a61025536600461475c565b610b8c565b604080519384529115156020840152151590820152606001610119565b34801561028357600080fd5b5061010d610292366004614889565b610fc3565b34801561021857600080fd5b3480156102af57600080fd5b5061010d6102be3660046144e6565b611099565b3480156102cf57600080fd5b50610137611153565b3480156102e457600080fd5b506102186102f336600461468d565b61115d565b60007fffffffff0000000000000000000000000000000000000000000000000000000082167fb5dee12700000000000000000000000000000000000000000000000000000000148061038b57507fffffffff0000000000000000000000000000000000000000000000000000000082167f01ffc9a700000000000000000000000000000000000000000000000000000000145b92915050565b600061039b6113d6565b905090565b600160005b8551811015610505576103b6611153565b6001600160a01b031663fa1becc48783815181106103d6576103d66148d9565b60200260200101516040518263ffffffff1660e01b81526004016103fc91815260200190565b602060405180830381865afa158015610419573d6000803e3d6000fd5b505050506040513d601f19601f8201168201806040525081019061043d91906148ef565b61044a5760009150610505565b610452611153565b6001600160a01b031663f48a3972878381518110610472576104726148d9565b602002602001015186866040518463ffffffff1660e01b81526004016104af9392919092835261ffff918216602084015216604082015260600190565b602060405180830381865afa1580156104cc573d6000803e3d6000fd5b505050506040513d601f19601f820116820180604052508101906104f091906148ef565b6104fd5760009150610505565b6001016103a5565b5080156106725760005b845181101561067057610520611153565b6001600160a01b031663fa1becc4868381518110610540576105406148d9565b60200260200101516040518263ffffffff1660e01b815260040161056691815260200190565b602060405180830381865afa158015610583573d6000803e3d6000fd5b505050506040513d601f19601f820116820180604052508101906105a791906148ef565b156105b55760009150610670565b6105bd611153565b6001600160a01b031663f48a39728683815181106105dd576105dd6148d9565b602002602001015186866040518463ffffffff1660e01b815260040161061a9392919092835261ffff918216602084015216604082015260600190565b602060405180830381865afa158015610637573d6000803e3d6000fd5b505050506040513d601f19601f8201168201806040525081019061065b91906148ef565b6106685760009150610670565b60010161050f565b505b949350505050565b600061068d8366038d7ea4c68000614927565b6106979083614954565b9392505050565b6106df6040805160e0810190915280600081526020016000815260200160008152602001600081526020016000815260200160608152602001606081525090565b61038b82611408565b60006106f384611408565b9050806020015160001415801561070c57506040810151155b61075d5760405162461bcd60e51b815260206004820181905260248201527f434f4d4241542053595354454d3a20494e56414c494420454e434f554e54455260448201526064015b60405180910390fd5b80608001518160600151106107b45760405162461bcd60e51b815260206004820181905260248201527f434f4d4241542053595354454d3a204558504952454420454e434f554e5445526044820152606401610754565b6107bc610391565b6001600160a01b03166107cd611153565b6001600160a01b0316634f10aabc856040518263ffffffff1660e01b81526004016107fa91815260200190565b602060405180830381865afa158015610817573d6000803e3d6000fd5b505050506040513d601f19601f8201168201806040525081019061083b9190614968565b6001600160a01b031614801561085657506108568385611099565b6108a25760405162461bcd60e51b815260206004820152601c60248201527f434f4d4241542053595354454d3a204e4f4e2d434f4d424154414e54000000006044820152606401610754565b6108ac84836114f3565b50505050565b60006108c56108bf610391565b84610fc3565b6109115760405162461bcd60e51b815260206004820152601d60248201527f434f4d4241542053595354454d3a20494e56414c49442053454e4445520000006044820152606401610754565b6000806109378560008151811061092a5761092a6148d9565b602002602001015161158d565b9150915085600181111561094d5761094d614521565b600103610a3557610960858584846103a0565b6109ac5760405162461bcd60e51b815260206004820152601a60248201527f434f4d4241542053595354454d3a20494e56414c4944205056450000000000006044820152606401610754565b60405142906109c5908890889088908590602001614985565b60405160208183030381529060405280519060200120935060006040518060e001604052808960018111156109fc576109fc614521565b81526020018381526020016000815260200160008152602001600f8152602001878152602001888152509050610a32858261163e565b50505b856001811115610a4757610a47614521565b5060005b8451811015610af2576000801b610a7a868381518110610a6d57610a6d6148d9565b60200260200101516116ff565b14610ac75760405162461bcd60e51b815260206004820152601e60248201527f434f4d4241542053595354454d3a20454e54495459204f4343555049454400006044820152606401610754565b610aea858281518110610adc57610adc6148d9565b602002602001015185611790565b600101610a4b565b5060005b8551811015610b82576000801b610b18878381518110610a6d57610a6d6148d9565b14610b655760405162461bcd60e51b815260206004820152601e60248201527f434f4d4241542053595354454d3a20454e54495459204f4343555049454400006044820152606401610754565b610b7a868281518110610adc57610adc6148d9565b600101610af6565b5050509392505050565b600080600080610b9a611153565b6001600160a01b03166354f1f2db896040518263ffffffff1660e01b8152600401610bc791815260200190565b61010060405180830381865afa158015610be5573d6000803e3d6000fd5b505050506040513d601f19601f82011682018060405250810190610c0991906149c9565b90506000610c15611153565b6001600160a01b03166354f1f2db896040518263ffffffff1660e01b8152600401610c4291815260200190565b61010060405180830381865afa158015610c60573d6000803e3d6000fd5b505050506040513d601f19601f82011682018060405250810190610c8491906149c9565b90506000610c90611153565b6001600160a01b031663810c1dc1896040518263ffffffff1660e01b8152600401610cbd91815260200190565b600060405180830381865afa158015610cda573d6000803e3d6000fd5b505050506040513d6000823e601f3d908101601f19168201604052610d029190810190614aa0565b905060008260a001511315610fa8576040517f4dddf8370000000000000000000000000000000000000000000000000000000081526004810188905260009073__$227e4555c1f608352b26068e438454dd8b$__90634dddf83790602401600060405180830381865af4158015610d7d573d6000803e3d6000fd5b505050506040513d6000823e601f3d908101601f19168201604052610da59190810190614b57565b9050610dfc81600081518110610dbd57610dbd6148d9565b602002602001015167ffffffffffffffff1682600181518110610de257610de26148d9565b602002602001015167ffffffffffffffff168e8787611844565b90965094508515610f5f57620186a060008d602001518560600151610e219190614bfc565b13610e2d576001610e41565b8c602001518460600151610e419190614bfc565b610e4b9190614927565b8451620186a090610e5e90600290614c1c565b8460a00151856080015185600281518110610e7b57610e7b6148d9565b602002602001015167ffffffffffffffff16610e979190614954565b1115610ed657846080015184600281518110610eb557610eb56148d9565b602002602001015167ffffffffffffffff16610ed19190614954565b610edc565b8460a001515b8f51610ee89190614c30565b610ef29190614c30565b610efc9190614c50565b610f069190614bfc565b96508415610f5a57610f4c6040518060400160405280600581526020017f43524954210000000000000000000000000000000000000000000000000000008152506118d7565b610f57600288614c50565b96505b610fa2565b610f9d6040518060400160405280600581526020017f4d495353210000000000000000000000000000000000000000000000000000008152506118d7565b600096505b50610fb5565b6000955060009450600093505b505050955095509592505050565b6000805b825181101561109257610fd8611153565b6001600160a01b0316634f10aabc848381518110610ff857610ff86148d9565b60200260200101516040518263ffffffff1660e01b815260040161101e91815260200190565b602060405180830381865afa15801561103b573d6000803e3d6000fd5b505050506040513d601f19601f8201168201806040525081019061105f9190614968565b6001600160a01b0316846001600160a01b0316036110805760019150611092565b8061108a81614c9c565b915050610fc7565b5092915050565b6000806110a583611408565b905060005b8160c00151518110156110f6578160c0015181815181106110cd576110cd6148d9565b602002602001015185036110e457600192506110f6565b806110ee81614c9c565b9150506110aa565b50816110925760005b8160a001515181101561114b578160a001518181518110611122576111226148d9565b60200260200101518503611139576001925061114b565b8061114381614c9c565b9150506110ff565b505092915050565b600061039b61194b565b61116e30611169610391565b611955565b600061117983611408565b905060005b82518110156111cc57600083828151811061119b5761119b6148d9565b602002602001015190506111c38582604001518360000151846020015185606001518b61196b565b5060010161117e565b50606081018051906111dd82614c9c565b905250600080805b8360a001515181101561131c57600061121a8560a00151838151811061120d5761120d6148d9565b6020026020010151611a08565b905060008113611313578361122e81614c9c565b9450508460000151600181111561124757611247614521565b60ff1660000361131357611259611153565b6001600160a01b031663fa1becc48660a00151848151811061127d5761127d6148d9565b60200260200101516040518263ffffffff1660e01b81526004016112a391815260200190565b602060405180830381865afa1580156112c0573d6000803e3d6000fd5b505050506040513d601f19601f820116820180604052508101906112e491906148ef565b15611313576113138560a001518381518110611302576113026148d9565b60200260200101516000801b611790565b506001016111e5565b5060005b8360c00151518110156113815760006113488560c00151838151811061120d5761120d6148d9565b905060008113611378578261135c81614c9c565b9350506113788560c001518381518110611302576113026148d9565b50600101611320565b508260c001515181148061139957508260a001515182145b806113ab575082608001518360600151145b156113ce574360408401526113c0858461163e565b6113ca8587611a9a565b5050505b505050505050565b7fffffffffffffffffffffffffffffffffffffffffffffffffffffffffffffffcc36013560601c806114055750335b90565b6114496040805160e0810190915280600081526020016000815260200160008152602001600081526020016000815260200160608152602001606081525090565b60408051600180825281830190925260009160208083019080368337019050509050828160008151811061147f5761147f6148d9565b6020908102919091010152600080806114d87f74625544000000000000000000000000436f6d626174456e636f756e74657200857e81050201202020200000000000000000000000000000000000000000000000611d65565b9250925092506114e9838383611e35565b9695505050505050565b611588826001848460405160200161150c929190614cb6565b60408051601f198184030181529082905261152b939291602401614d86565b60408051601f198184030181529190526020810180517bffffffffffffffffffffffffffffffffffffffffffffffffffffffff167fb2aa60a400000000000000000000000000000000000000000000000000000000179052611ee2565b505050565b604080516001808252818301909252600091829182916020808301908036833701905050905083816000815181106115c7576115c76148d9565b6020908102919091010152600080806116207f74625544000000000000000000000000506f736974696f6e0000000000000000857e04020002020000000000000000000000000000000000000000000000000000611d65565b925092509250611631838383611f90565b9550955050505050915091565b600061166182600001518360200151846040015185606001518660800151611fb3565b905060006116778360a001518460c00151611fe8565b9050600061168d8460a001518560c0015161200c565b604080516001808252818301909252919250600091906020808301908036833701905050905085816000815181106116c7576116c76148d9565b60209081029190910101526113ce7f74625544000000000000000000000000436f6d626174456e636f756e7465720082868686612048565b604080516001808252818301909252600091829190602080830190803683370190505090508281600081518110611738576117386148d9565b602090810291909101015260006106727f746255440000000000000000000000004d61746368456e74697479000000000083837e400200202000000000000000000000000000000000000000000000000000006120fd565b6040805160018082528183019092526000916020808301908036833701905050905082816000815181106117c6576117c66148d9565b6020026020010181815250506115887f746255440000000000000000000000004d61746368456e74697479000000000060001b8260008560405160200161180f91815260200190565b60408051601f198184030181529190527e400200202000000000000000000000000000000000000000000000000000006121ba565b60008080620249f06118586103e88a614954565b61186a87602001518960400151612230565b6118749190614dae565b61187e9190614927565b90506000620186a085602001516103e88a6118999190614954565b6118a39190614dae565b6118ad9190614927565b9050808211935083156118cb5760026118c68284614c1c565b101592505b50509550959350505050565b611948816040516024016118eb9190614dc1565b60408051601f198184030181529190526020810180517bffffffffffffffffffffffffffffffffffffffffffffffffffffffff167f41304fac0000000000000000000000000000000000000000000000000000000017905261225d565b50565b600061039b612266565b611967611961836122a5565b82612342565b5050565b60006119768661238e565b8051909150600381111561198c5761198c614521565b60ff166001036119ff57600081602001518060200190518101906119b09190614dd4565b905060008060006119c4848a8a8a8a610b8c565b9194509250905060006119da620186a085614e69565b6119e38a611a08565b6119ed9190614bfc565b90506119f98982612443565b50505050505b50505050505050565b604080516001808252818301909252600091829190602080830190803683370190505090508281600081518110611a4157611a416148d9565b602090810291909101015260006106727f74625544000000000000000000000000537461747300000000000000000000008360057ee10800202001202020202000000000000000000000000000000000000000006120fd565b606080600080611aa986611408565b9050600080611ab661426d565b60005b8460c0015151811015611b2357611aec8560c001518281518110611adf57611adf6148d9565b60200260200101516124f7565b91508160e0015184611afe9190614dae565b935060008260a001511315611b1b5782611b1781614c9c565b9350505b600101611ab9565b5060008060005b8660a0015151811015611baa57611b508760a001518281518110611adf57611adf6148d9565b935060008460a0015113611ba25760c0840151611b6d9083614dae565b9150611b7d8460e001518c61067a565b611b879084614dae565b9250611ba28760a001518281518110611302576113026148d9565b600101611b2a565b506000805b8760c0015151811015611d56578760c001518181518110611bd257611bd26148d9565b60200260200101519150611be4611153565b6001600160a01b031663fa1becc4836040518263ffffffff1660e01b8152600401611c1191815260200190565b602060405180830381865afa158015611c2e573d6000803e3d6000fd5b505050506040513d601f19601f82011682018060405250810190611c5291906148ef565b15611d4357611c60826124f7565b945060008560a001511315611d39578315611d0557611c7d611153565b6001600160a01b031663fda0ce5083611c968988614c1c565b6040517fffffffff0000000000000000000000000000000000000000000000000000000060e085901b16815260048101929092526024820152604401600060405180830381600087803b158015611cec57600080fd5b505af1158015611d00573d6000803e3d6000fd5b505050505b600083118015611d155750600086115b15611d3957611d248684614c1c565b8560c001818151611d359190614dae565b9052505b611d43828661259f565b611d4e826000611790565b600101611baf565b50505050505050509250925092565b6060600060606000611d75612266565b9050306001600160a01b03821603611d9e57611d92878787612648565b93509350935050611e2c565b6040517f419b58fd0000000000000000000000000000000000000000000000000000000081526001600160a01b0382169063419b58fd90611de7908a908a908a90600401614eb3565b600060405180830381865afa158015611e04573d6000803e3d6000fd5b505050506040513d6000823e601f3d908101601f19168201604052611d929190810190614f40565b93509350939050565b611e766040805160e0810190915280600081526020016000815260200160008152602001600081526020016000815260200160608152602001606081525090565b611e7f84612750565b6080860181905260608601829052604086018390526020860184905285856001811115611eae57611eae614521565b6001811115611ebf57611ebf614521565b8152505050505050611ed183836127a0565b60c083015260a08201529392505050565b6060600080611ef8611ef385614fa3565b6127ef565b91509150816000801b03611f5e576040517ffdde54e20000000000000000000000000000000000000000000000000000000081527fffffffff00000000000000000000000000000000000000000000000000000000600035166004820152602401610754565b6020840180517bffffffffffffffffffffffffffffffffffffffffffffffffffffffff168217905261067282856128b2565b60208301516022840151600091829160f091821c911c5b90969095509350505050565b60608585858585604051602001611fce959493929190614fef565b604051602081830303815290604052905095945050505050565b600061069783516020028351602002606081901b603883901b838301171792915050565b60606120178361298d565b6120208361298d565b60405160200161203192919061502a565b604051602081830303815290604052905092915050565b6000612052612266565b9050306001600160a01b0382160361207657612071868686868661299d565b6113ce565b6040517f298314fb0000000000000000000000000000000000000000000000000000000081526001600160a01b0382169063298314fb906120c39089908990899089908990600401615059565b600060405180830381600087803b1580156120dd57600080fd5b505af11580156120f1573d6000803e3d6000fd5b50505050505050505050565b600080612108612266565b9050306001600160a01b0382160361212e57612126868686866129ba565b915050610672565b6040517f8c364d590000000000000000000000000000000000000000000000000000000081526001600160a01b03821690638c364d599061217990899089908990899060040161509e565b602060405180830381865afa158015612196573d6000803e3d6000fd5b505050506040513d601f19601f8201168201806040525081019061212691906150cd565b60006121c4612266565b9050306001600160a01b038216036121e35761207186868686866129f0565b6040517f390baae00000000000000000000000000000000000000000000000000000000081526001600160a01b0382169063390baae0906120c390899089908990899089906004016150e6565b600080821261224a576122438284614dae565b905061038b565b6122538261512d565b6122439084615165565b61194881612a05565b7f629a4c26e296b22a8e0856e9f6ecb2d1008d7e00081111962cd175fa7488e175546000906001600160a01b0316806122a0573391505090565b919050565b60408051600180825281830190925260009182919060208083019080368337019050509050826001600160a01b031660001b816000815181106122ea576122ea6148d9565b602090810291909101015260006106727f7462776f726c6400000000000000000053797374656d5265676973747279000083837e200100200000000000000000000000000000000000000000000000000000006120fd565b61234c8282612a26565b6119675761235982612a84565b816040517fd787b737000000000000000000000000000000000000000000000000000000008152600401610754929190615178565b6040805180820190915260008152606060208201526040805160018082528183019092526000916020808301908036833701905050905082816000815181106123d9576123d96148d9565b6020908102919091010152600080806124327f74625544000000000000000000000000416374696f6e73000000000000000000857e01010101000000000000000000000000000000000000000000000000000000611d65565b9250925092506114e9838383612bc1565b604080516001808252818301909252600091602080830190803683370190505090508281600081518110612479576124796148d9565b6020026020010181815250506115887f746255440000000000000000000000005374617473000000000000000000000060001b826005856040516020016124c291815260200190565b60408051601f198184030181529190527ee10800202001202020202000000000000000000000000000000000000000006121ba565b6124ff61426d565b604080516001808252818301909252600091602080830190803683370190505090508281600081518110612535576125356148d9565b60209081029190910101526000808061258e7f7462554400000000000000000000000053746174730000000000000000000000857ee1080020200120202020200000000000000000000000000000000000000000611d65565b9250925092506114e9838383612c1e565b60006125d1826000015183602001518460400151856060015186608001518760a001518860c001518960e00151612c96565b604080516001808252818301909252919250600091606091839190602080830190803683370190505090508581600081518110612610576126106148d9565b60209081029190910101526113ce7f746255440000000000000000000000005374617473000000000000000000000082868686612048565b606060006060600061265985612cd4565b9050612666878783612cf7565b9350600061267386612d30565b90508015612745576126858888612d6d565b935066ffffffffffffff841667ffffffffffffffff8111156126a9576126a9614305565b6040519080825280601f01601f1916602001820160405280156126d3576020820181803683370190505b5092506020830160005b828160ff1610156127425760006126f58b8b84612d80565b90506000612712888460ff166028026038011c64ffffffffff1690565b90506127218260008387612e00565b61272b8185614dae565b93505050808061273a906151a3565b9150506126dd565b50505b505093509350939050565b6000806000806000612766866000016020015190565b60f81c600181111561277a5761277a614521565b602187015160418801516061890151608190990151929991989097509550909350915050565b6060806000603885901c64ffffffffff166127c46127bf868484612ecc565b612f5a565b935090508064ffffffffff606087901c16016127e46127bf868484612ecc565b925050509250929050565b6040805160018082528183019092526000918291829160208083019080368337019050509050837bffffffffffffffffffffffffffffffffffffffffffffffffffffffff191681600081518110612848576128486148d9565b6020908102919091010152600080806128a17f7462776f726c6400000000000000000046756e6374696f6e53656c6563746f72857e24020020040000000000000000000000000000000000000000000000000000611d65565b925092509250611631838383612f6b565b606060006128be61194b565b90506001600160a01b03811630036128ff5760006128e66128dd6113d6565b60008787612f77565b93509050806128f8576128f8836130b2565b505061038b565b6040517f3ae7af080000000000000000000000000000000000000000000000000000000081526001600160a01b03821690633ae7af089061294690879087906004016151c2565b6000604051808303816000875af1158015612965573d6000803e3d6000fd5b505050506040513d6000823e601f3d908101601f1916820160405261067291908101906151db565b60608161069781602060006130ba565b6129b385858585856129ae8b61311a565b61319f565b5050505050565b60006129e76129c986866134d8565b60ff858116601b0360080285901c166129e2858761352e565b613567565b95945050505050565b6129b385856129ff848761352e565b856135b8565b80516a636f6e736f6c652e6c6f67602083016000808483855afa5050505050565b6000612a747f6e730000000000000000000000000000000000000000000000000000000000007dffffffffffffffffffffffffffff0000000000000000000000000000000085161783613853565b8061069757506106978383613853565b606081601081901b6000612a978361391c565b9050827fffffffffffffffffffffffffffff000000000000000000000000000000000000831615612af257612aed7fffffffffffffffffffffffffffff0000000000000000000000000000000000008416613933565b612b29565b6040518060400160405280600681526020017f3c726f6f743e00000000000000000000000000000000000000000000000000008152505b7fffffffffffffffffffffffffffffffff00000000000000000000000000000000831615612b5f57612b5a83613933565b612b96565b6040518060400160405280600681526020017f3c726f6f743e00000000000000000000000000000000000000000000000000008152505b604051602001612ba893929190615210565b6040516020818303038152906040529350505050919050565b604080518082019091526000815260606020820152612bdf846139d7565b81906003811115612bf257612bf2614521565b90816003811115612c0557612c05614521565b905250612c1283836139f3565b60208201529392505050565b612c2661426d565b612c2f84613a16565b60e0890181905260c0890182905260a089018390526080890184905260608901859052886020810160408201886002811115612c6d57612c6d614521565b6002811115612c7e57612c7e614521565b90529790975250505093909252509195945050505050565b60608888888888888888604051602001612cb798979695949392919061529e565b604051602081830303815290604052905098975050505050505050565b60006008612ce460026020615165565b612cee9190614927565b9190911c919050565b606081600003612d165750604080516020810190915260008152610697565b6000612d2285856134d8565b90506129e781600085613a84565b60006008600180612d4360026020615165565b612d4d9190615165565b612d579190615165565b612d619190614927565b8260ff911c1692915050565b6000610697612d7c8484613aa7565b5490565b60008383604051602001612d959291906152e3565b604051602081830303815290604052805190602001208260f81b7effffffffffffffffffffffffffffffffffffffffffffffffffffffffffffff19167f3b4102da22e32d82fc925482184f16c09fd4281692720b87d124aef6da48a0f1181860001c90509392505050565b8215612e875760208310612e2a57602083048401935060208381612e2657612e2661493e565b0692505b8215612e87576020839003600081841015612e4d5750600019600884021c612e57565b50600019600882021c5b8554600886021b818451168219821617845250818411612e785750506108ac565b50600194909401939182900391015b5b60208210612ea95783548152600190930192601f1990910190602001612e88565b81156108ac576000600019600884021c8251865482191691161782525050505050565b600081831180612edc5750835182115b15612f19578383836040517f23230fa30000000000000000000000000000000000000000000000000000000081526004016107549392919061531f565b60208401612f278482614dae565b90506000612f358585615165565b6fffffffffffffffffffffffffffffffff1660809290921b9190911795945050505050565b606060006106978360206000613afd565b600080611fa785613b6c565b60006060600080612f8786613b81565b90925090506001600160a01b038216612fd85785612fa487612a84565b6040517ffbf10ce60000000000000000000000000000000000000000000000000000000081526004016107549291906151c2565b80612fe757612fe78689613c25565b8615613053577dffffffffffffffffffffffffffff0000000000000000000000000000000086167f6e7300000000000000000000000000000000000000000000000000000000000017600061303b82613c2f565b90506130508261304b8b84614dae565b613cc0565b50505b600061305f8760101b90565b7fffffffffffffffffffffffffffff00000000000000000000000000000000000016146130975761309288888488613d74565b6130a3565b6130a388888488613dec565b90999098509650505050505050565b805160208201fd5b825160609060006130cb8583614927565b9050604051925060208301601f19603f83860101166040528184526000602088015b8482101561310e578051871b835291870191600191909101906020016130ed565b50505050509392505050565b60007f8b9d8c8b908d9affffffffffffffffffab9e9d939a8d00000000000000000000820161316957507e60030220202000000000000000000000000000000000000000000000000000919050565b61038b6131967f746273746f72650000000000000000005461626c65730000000000000000000084613e4d565b60206000613567565b7f6f74000000000000000000000000000000000000000000000000000000000000867fffff000000000000000000000000000000000000000000000000000000000000160361322b57857f8dbb3a9672eebfd3773e72dd9c102393436816d832c7ba9e1e1ac8fcadcac7a98686868660405161321e9493929190615344565b60405180910390a26113ce565b600061323687613e69565b905060005b815181101561330f576000828281518110613258576132586148d9565b602002602001015190506132846001826affffffffffffffffffffff1916613ef290919063ffffffff16565b15613306576040517f57066c9c000000000000000000000000000000000000000000000000000000008152606082901c906357066c9c906132d3908c908c908c908c908c908c9060040161538e565b600060405180830381600087803b1580156132ed57600080fd5b505af1158015613301573d6000803e3d6000fd5b505050505b5060010161323b565b50867f8dbb3a9672eebfd3773e72dd9c102393436816d832c7ba9e1e1ac8fcadcac7a9878787876040516133469493929190615344565b60405180910390a2600061335a88886134d8565b90506000602087019050613372826000895184613f10565b600061337d85612d30565b111561340157600061338f8a8a613aa7565b878155905060208601915060008060005b6133a988612d30565b8160ff1610156133fc576133be8d8d83612d80565b92506133d98a8260ff166028026038011c64ffffffffff1690565b91506133e88360008488613f10565b6133f28286614dae565b94506001016133a0565b505050505b60005b83518110156120f1576000848281518110613421576134216148d9565b6020026020010151905061344d6002826affffffffffffffffffffff1916613ef290919063ffffffff16565b156134cf576040517f5b28cdaf000000000000000000000000000000000000000000000000000000008152606082901c90635b28cdaf9061349c908e908e908e908e908e908e9060040161538e565b600060405180830381600087803b1580156134b657600080fd5b505af11580156134ca573d6000803e3d6000fd5b505050505b50600101613404565b600082826040516020016134ed9291906152e3565b60408051601f1981840301815291905280516020909101207f86425bff6b57326c7859e89024fe4f238ca327a1ae4a230180dd2f0e88aaa7d9189392505050565b600080805b8360ff1681101561355f5761355560ff601b83900360080287901c1683614dae565b9150600101613533565b509392505050565b60006020821061358d576020820484019350602082816135895761358961493e565b0691505b508254600882021b60208290038084111561355f576001850154600882021c82179150509392505050565b7f6f74000000000000000000000000000000000000000000000000000000000000847fffff000000000000000000000000000000000000000000000000000000000000160361364257837f8c0b5119d4cec7b284c6b1b39252a03d1e2f2d7451a5895562524c113bb952be848484604051613635939291906153e7565b60405180910390a26108ac565b600061364e85856134d8565b9050600061365b86613e69565b905060005b815181101561373057600082828151811061367d5761367d6148d9565b602002602001015190506136a96004826affffffffffffffffffffff1916613ef290919063ffffffff16565b15613727576040517f964f667d000000000000000000000000000000000000000000000000000000008152606082901c9063964f667d906136f4908b908b908b908b9060040161541a565b600060405180830381600087803b15801561370e57600080fd5b505af1158015613722573d6000803e3d6000fd5b505050505b50600101613660565b50857f8c0b5119d4cec7b284c6b1b39252a03d1e2f2d7451a5895562524c113bb952be868686604051613765939291906153e7565b60405180910390a2613780828565ffffffffffff1685613fcf565b60005b81518110156119ff5760008282815181106137a0576137a06148d9565b602002602001015190506137cc6008826affffffffffffffffffffff1916613ef290919063ffffffff16565b1561384a576040517fa8ba8721000000000000000000000000000000000000000000000000000000008152606082901c9063a8ba872190613817908b908b908b908b9060040161541a565b600060405180830381600087803b15801561383157600080fd5b505af1158015613845573d6000803e3d6000fd5b505050505b50600101613783565b60408051600280825260608201835260009283929190602083019080368337019050509050838160008151811061388c5761388c6148d9565b602002602001018181525050826001600160a01b031660001b816001815181106138b8576138b86148d9565b602090810291909101015260006139107f7462776f726c640000000000000000005265736f75726365416363657373000083837e010100010000000000000000000000000000000000000000000000000000006120fd565b90506129e78160f81c90565b600061392a60706010614dae565b9190911b919050565b606060005b6010811015613998577fffffffffffffffffffffffffffffffff000000000000000000000000000000008316600882021b7fff00000000000000000000000000000000000000000000000000000000000000161561399857600101613938565b604080517fffffffffffffffffffffffffffffffff00000000000000000000000000000000851660208201528151603090910190915281815280610672565b602081015160009060f81c600381111561038b5761038b614521565b60606000603884901c64ffffffffff166129e7613a11858484612ecc565b613fe5565b600080600080600080600080613a30896000016020015190565b60408a015160608b0151919950975060f81c6002811115613a5357613a53614521565b60618a015160818b015160a18c015160c18d015160e1909d01519b9d9a9c939b929a91995097509195509350915050565b60405160208101601f19603f848401011660405282825261355f85858584612e00565b60008282604051602001613abc9291906152e3565b60408051601f1981840301815291905280516020909101207f14e2fcc58e58e68ec7edc30c8d50dccc3ce2714a623ec81f46b6a63922d76569189392505050565b60606000613b0b8560801c90565b90506fffffffffffffffffffffffffffffffff85166000858281613b3157613b3161493e565b04905060405193506020840160208202810160405281855260005b8281101561310e578451871c825293870193602090910190600101613b4c565b602081015160408201516000905b9050915091565b60408051600180825281830190925260009182918291602080830190803683370190505090508381600081518110613bbb57613bbb6148d9565b602090810291909101015260008080613c147f7462776f726c6400000000000000000053797374656d73000000000000000000857e15020014010000000000000000000000000000000000000000000000000000612648565b925092509250611631838383614065565b61234c8282614071565b604080516001808252818301909252600091829190602080830190803683370190505090508281600081518110613c6857613c686148d9565b602090810291909101015260006106727f7462776f726c6400000000000000000042616c616e636573000000000000000083837e200100200000000000000000000000000000000000000000000000000000006129ba565b604080516001808252818301909252600091602080830190803683370190505090508281600081518110613cf657613cf66148d9565b6020026020010181815250506115887f7462776f726c6400000000000000000042616c616e636573000000000000000060001b82600085604051602001613d3f91815260200190565b60408051601f198184030181529190527e200100200000000000000000000000000000000000000000000000000000006129f0565b60006060836001600160a01b03166000613d8f8589896140cf565b604051613d9c9190615453565b60006040518083038185875af1925050503d8060008114613dd9576040519150601f19603f3d011682016040523d82523d6000602084013e613dde565b606091505b509097909650945050505050565b60006060836001600160a01b0316613e058488886140cf565b604051613e129190615453565b600060405180830381855af49150503d8060008114613dd9576040519150601f19603f3d011682016040523d82523d6000602084013e613dde565b60408051602081018490529081018290526000906060016134ed565b60408051600180825281830190925260609160009190602080830190803683370190505090508281600081518110613ea357613ea36148d9565b60209081029190910101526000613edb7f746273746f726500000000000000000053746f7265486f6f6b7300000000000083836140fe565b9050610672613eed8260008451612ecc565b614138565b60008160ff1682613f038560581c90565b1660ff1614905092915050565b8215613f8a5760208310613f3a57602083048401935060208381613f3657613f3661493e565b0692505b8215613f8a5760208390036000600019600885021c1990506008850281811c91508351811c9050811987541682821617875550818411613f7b5750506108ac565b50600194909401939182900391015b5b60208210613fac5780518455600190930192601f1990910190602001613f8b565b81156108ac576000600019600884021c8554835182191691161785555050505050565b61158883838351613fe08560200190565b613f10565b60606000613ff38360801c90565b90506fffffffffffffffffffffffffffffffff83168067ffffffffffffffff81111561402157614021614305565b6040519080825280601f01601f19166020018201604052801561404b576020820181803683370190505b5092506020830161405d838284614149565b505050919050565b600080611fa785614194565b60006140bf7f6e730000000000000000000000000000000000000000000000000000000000007dffffffffffffffffffffffffffff00000000000000000000000000000000851617836141b0565b80610697575061069783836141b0565b60608383836040516020016140e69392919061546f565b60405160208183030381529060405290509392505050565b606061067261410e858585612d80565b60006141338561411e8989612d6d565b9060ff166028026038011c64ffffffffff1690565b613a84565b606060006106978360156000613afd565b5b60208110614169578251825260209283019290910190601f190161414a565b8060000361417657505050565b6000600019600883021c905080835116811985511617835250505050565b6020810151603482015160609190911c9060009060f81c613b7a565b6040805160028082526060820183526000928392919060208301908036833701905050905083816000815181106141e9576141e96148d9565b602002602001018181525050826001600160a01b031660001b81600181518110614215576142156148d9565b602090810291909101015260006139107f7462776f726c640000000000000000005265736f75726365416363657373000083837e010100010000000000000000000000000000000000000000000000000000006129ba565b60405180610100016040528060008152602001600081526020016000600281111561429a5761429a614521565b815260200160008152602001600081526020016000815260200160008152602001600081525090565b6000602082840312156142d557600080fd5b81357fffffffff000000000000000000000000000000000000000000000000000000008116811461069757600080fd5b634e487b7160e01b600052604160045260246000fd5b6040516080810167ffffffffffffffff8111828210171561433e5761433e614305565b60405290565b60405160a0810167ffffffffffffffff8111828210171561433e5761433e614305565b604051610100810167ffffffffffffffff8111828210171561433e5761433e614305565b604051601f8201601f1916810167ffffffffffffffff811182821017156143b4576143b4614305565b604052919050565b600067ffffffffffffffff8211156143d6576143d6614305565b5060051b60200190565b600082601f8301126143f157600080fd5b81356020614406614401836143bc565b61438b565b8083825260208201915060208460051b87010193508684111561442857600080fd5b602086015b84811015614444578035835291830191830161442d565b509695505050505050565b803561ffff811681146122a057600080fd5b6000806000806080858703121561447757600080fd5b843567ffffffffffffffff8082111561448f57600080fd5b61449b888389016143e0565b955060208701359150808211156144b157600080fd5b506144be878288016143e0565b9350506144cd6040860161444f565b91506144db6060860161444f565b905092959194509250565b600080604083850312156144f957600080fd5b50508035926020909101359150565b60006020828403121561451a57600080fd5b5035919050565b634e487b7160e01b600052602160045260246000fd5b6002811061454757614547614521565b9052565b60008151808452602080850194506020840160005b8381101561457c57815187529582019590820190600101614560565b509495945050505050565b60208152614599602082018351614537565b602082015160408201526040820151606082015260608201516080820152608082015160a0820152600060a083015160e060c08401526145dd61010084018261454b565b905060c0840151601f198483030160e08501526129e7828261454b565b600082601f83011261460b57600080fd5b8135602061461b614401836143bc565b82815260079290921b8401810191818101908684111561463a57600080fd5b8286015b8481101561444457608081890312156146575760008081fd5b61465f61431b565b813581528482013585820152604080830135908201526060808301359082015283529183019160800161463e565b6000806000606084860312156146a257600080fd5b8335925060208401359150604084013567ffffffffffffffff8111156146c757600080fd5b6146d3868287016145fa565b9150509250925092565b6000806000606084860312156146f257600080fd5b83356002811061470157600080fd5b9250602084013567ffffffffffffffff8082111561471e57600080fd5b61472a878388016143e0565b9350604086013591508082111561474057600080fd5b506146d3868287016143e0565b60ff8116811461194857600080fd5b600080600080600060a0868803121561477457600080fd5b853567ffffffffffffffff8082111561478c57600080fd5b9087019060a0828a0312156147a057600080fd5b6147a8614344565b823581526020808401358183015260408401356040830152606084013560608301526080840135838111156147dc57600080fd5b8085019450508a601f8501126147f157600080fd5b83359250614801614401846143bc565b83815260059390931b8401810192818101908c85111561482057600080fd5b948201945b848610156148475785356148388161474d565b82529482019490820190614825565b608084810191909152929c918b01359b505060408a01359960608101359950909101359650945050505050565b6001600160a01b038116811461194857600080fd5b6000806040838503121561489c57600080fd5b82356148a781614874565b9150602083013567ffffffffffffffff8111156148c357600080fd5b6148cf858286016143e0565b9150509250929050565b634e487b7160e01b600052603260045260246000fd5b60006020828403121561490157600080fd5b8151801515811461069757600080fd5b634e487b7160e01b600052601160045260246000fd5b808202811582820484141761038b5761038b614911565b634e487b7160e01b600052601260045260246000fd5b6000826149635761496361493e565b500690565b60006020828403121561497a57600080fd5b815161069781614874565b61498f8186614537565b6080602082015260006149a5608083018661454b565b82810360408401526149b7818661454b565b91505082606083015295945050505050565b600061010082840312156149dc57600080fd5b6149e4614367565b825181526020830151602082015260408301516040820152606083015160608201526080830151608082015260a083015160a082015260c083015160c082015260e083015160e08201528091505092915050565b600082601f830112614a4957600080fd5b81516020614a59614401836143bc565b8083825260208201915060208460051b870101935086841115614a7b57600080fd5b602086015b84811015614444578051614a938161474d565b8352918301918301614a80565b600060208284031215614ab257600080fd5b815167ffffffffffffffff80821115614aca57600080fd5b908301906101008286031215614adf57600080fd5b614ae7614367565b82518152602083015182811115614afd57600080fd5b614b0987828601614a38565b60208301525060408301516040820152606083015160608201526080830151608082015260a083015160a082015260c083015160c082015260e083015160e082015280935050505092915050565b60006020808385031215614b6a57600080fd5b825167ffffffffffffffff80821115614b8257600080fd5b818501915085601f830112614b9657600080fd5b8151614ba4614401826143bc565b81815260059190911b83018401908481019088831115614bc357600080fd5b938501935b82851015614bf05784518481168114614be15760008081fd5b82529385019390850190614bc8565b98975050505050505050565b818103600083128015838313168383128216171561109257611092614911565b600082614c2b57614c2b61493e565b500490565b808201828112600083128015821682158216171561114b5761114b614911565b808202600082127f800000000000000000000000000000000000000000000000000000000000000084141615614c8857614c88614911565b818105831482151761038b5761038b614911565b60006000198203614caf57614caf614911565b5060010190565b60006040808301858452602060406020860152818651808452606093506060870191506020880160005b82811015614d1757815180518552858101518686015287810151888601528601518685015260809093019290840190600101614ce0565b50919998505050505050505050565b6003811061194857611948614521565b60005b83811015614d51578181015183820152602001614d39565b50506000910152565b60008151808452614d72816020860160208601614d36565b601f01601f19169290920160200192915050565b838152614d9283614d26565b8260208201526060604082015260006129e76060830184614d5a565b8082018082111561038b5761038b614911565b6020815260006106976020830184614d5a565b600060208284031215614de657600080fd5b815167ffffffffffffffff80821115614dfe57600080fd5b9083019060a08286031215614e1257600080fd5b614e1a614344565b82518152602083015160208201526040830151604082015260608301516060820152608083015182811115614e4e57600080fd5b614e5a87828601614a38565b60808301525095945050505050565b600082614e7857614e7861493e565b60001983147f800000000000000000000000000000000000000000000000000000000000000083141615614eae57614eae614911565b500590565b838152606060208201526000614ecc606083018561454b565b9050826040830152949350505050565b600082601f830112614eed57600080fd5b815167ffffffffffffffff811115614f0757614f07614305565b614f1a6020601f19601f8401160161438b565b818152846020838601011115614f2f57600080fd5b610672826020830160208701614d36565b600080600060608486031215614f5557600080fd5b835167ffffffffffffffff80821115614f6d57600080fd5b614f7987838801614edc565b9450602086015193506040860151915080821115614f9657600080fd5b506146d386828701614edc565b6000815160208301517fffffffff000000000000000000000000000000000000000000000000000000008082169350600483101561405d5760049290920360031b82901b161692915050565b60006002871061500157615001614521565b5060f89590951b8552600185019390935260218401919091526041830152606182015260810190565b6000835161503c818460208801614d36565b835190830190615050818360208801614d36565b01949350505050565b85815260a06020820152600061507260a083018761454b565b82810360408401526150848187614d5a565b90508460608401528281036080840152614bf08185614d5a565b8481526080602082015260006150b7608083018661454b565b60ff949094166040830152506060015292915050565b6000602082840312156150df57600080fd5b5051919050565b85815260a0602082015260006150ff60a083018761454b565b60ff86166040840152828103606084015261511a8186614d5a565b9150508260808301529695505050505050565b60007f8000000000000000000000000000000000000000000000000000000000000000820361515e5761515e614911565b5060000390565b8181038181111561038b5761038b614911565b60408152600061518b6040830185614d5a565b90506001600160a01b03831660208301529392505050565b600060ff821660ff81036151b9576151b9614911565b60010192915050565b8281526040602082015260006106726040830184614d5a565b6000602082840312156151ed57600080fd5b815167ffffffffffffffff81111561520457600080fd5b61067284828501614edc565b7fffff0000000000000000000000000000000000000000000000000000000000008416815260007f3a000000000000000000000000000000000000000000000000000000000000008060028401528451615271816003860160208901614d36565b808401905081600382015284519150615291826004830160208801614d36565b0160040195945050505050565b8881528760208201526152b087614d26565b60f89690961b604087015260418601949094526061850192909252608184015260a183015260c182015260e10192915050565b8281526000602080830184516020860160005b82811015615312578151845292840192908401906001016152f6565b5091979650505050505050565b6060815260006153326060830186614d5a565b60208301949094525060400152919050565b608081526000615357608083018761454b565b82810360208401526153698187614d5a565b905084604084015282810360608401526153838185614d5a565b979650505050505050565b86815260c0602082015260006153a760c083018861454b565b82810360408401526153b98188614d5a565b905085606084015282810360808401526153d38186614d5a565b9150508260a0830152979650505050505050565b6060815260006153fa606083018661454b565b65ffffffffffff8516602084015282810360408401526114e98185614d5a565b848152608060208201526000615433608083018661454b565b65ffffffffffff8516604084015282810360608401526153838185614d5a565b60008251615465818460208701614d36565b9190910192915050565b60008451615481818460208901614d36565b60609490941b7fffffffffffffffffffffffffffffffffffffffff000000000000000000000000169190930190815260148101919091526034019291505056fea2646970667358221220ff778f66bade81d5692f1a1523643d0baa6c61b3feb3e1678d6dc51940edd0f064736f6c63430008180033","linkReferences":{"src/libraries/LibChunks.sol":{"LibChunks":[{"start":3427,"length":20}]}}},"methodIdentifiers":{"_calculateMagicAttack()":"bfea0b85","_calculatePhysicalAttack((int256,int256,int256,int256,uint8[]),bytes32,bytes32,uint256,uint256)":"b127ae90","_msgSender()":"119df25f","_msgValue()":"45ec9354","_world()":"e1af802c","calculateGoldDrop(uint256,uint256)":"195e75c4","calculateItemDrop(uint256,uint256)":"32aeffdf","createMatch(uint8,bytes32[],bytes32[])":"aaa417b7","endTurn(bytes32,bytes32,(bytes32,bytes32,bytes32,uint256)[])":"98d239b1","executeCombat(uint256,bytes32,(bytes32,bytes32,bytes32,uint256)[])":"fc88ff63","getEncounter(bytes32)":"4dda27e8","isParticipant(address,bytes32[])":"b2467894","isParticipant(bytes32,bytes32)":"c6ca743c","isValidPvE(bytes32[],bytes32[],uint16,uint16)":"15451020","supportsInterface(bytes4)":"01ffc9a7"},"id":212}