{"abi":[{"type":"function","name":"_calculateMagicAttack","inputs":[],"outputs":[],"stateMutability":"nonpayable"},{"type":"function","name":"_msgSender","inputs":[],"outputs":[{"name":"sender","type":"address","internalType":"address"}],"stateMutability":"view"},{"type":"function","name":"_msgValue","inputs":[],"outputs":[{"name":"value","type":"uint256","internalType":"uint256"}],"stateMutability":"pure"},{"type":"function","name":"_world","inputs":[],"outputs":[{"name":"","type":"address","internalType":"address"}],"stateMutability":"view"},{"type":"function","name":"checkForMatchEnd","inputs":[{"name":"encounterData","type":"tuple","internalType":"struct CombatEncounterData","components":[{"name":"encounterType","type":"uint8","internalType":"enum EncounterType"},{"name":"start","type":"uint256","internalType":"uint256"},{"name":"end","type":"uint256","internalType":"uint256"},{"name":"rewardsDistributed","type":"bool","internalType":"bool"},{"name":"currentTurn","type":"uint256","internalType":"uint256"},{"name":"maxTurns","type":"uint256","internalType":"uint256"},{"name":"defenders","type":"bytes32[]","internalType":"bytes32[]"},{"name":"attackers","type":"bytes32[]","internalType":"bytes32[]"}]}],"outputs":[{"name":"_matchEnded","type":"bool","internalType":"bool"},{"name":"_attackersWin","type":"bool","internalType":"bool"}],"stateMutability":"view"},{"type":"function","name":"createMatch","inputs":[{"name":"encounterType","type":"uint8","internalType":"enum EncounterType"},{"name":"attackers","type":"bytes32[]","internalType":"bytes32[]"},{"name":"defenders","type":"bytes32[]","internalType":"bytes32[]"}],"outputs":[{"name":"encounterId","type":"bytes32","internalType":"bytes32"}],"stateMutability":"nonpayable"},{"type":"function","name":"endMatch","inputs":[{"name":"encounterId","type":"bytes32","internalType":"bytes32"},{"name":"randomNumber","type":"uint256","internalType":"uint256"},{"name":"attackersWin","type":"bool","internalType":"bool"}],"outputs":[],"stateMutability":"nonpayable"},{"type":"function","name":"endTurn","inputs":[{"name":"encounterId","type":"bytes32","internalType":"bytes32"},{"name":"playerId","type":"bytes32","internalType":"bytes32"},{"name":"actions","type":"tuple[]","internalType":"struct Action[]","components":[{"name":"attackerEntityId","type":"bytes32","internalType":"bytes32"},{"name":"defenderEntityId","type":"bytes32","internalType":"bytes32"},{"name":"actionId","type":"bytes32","internalType":"bytes32"},{"name":"weaponId","type":"uint256","internalType":"uint256"}]}],"outputs":[],"stateMutability":"payable"},{"type":"function","name":"executeAction","inputs":[{"name":"actionOutcomeData","type":"tuple","internalType":"struct ActionOutcomeData","components":[{"name":"actionId","type":"bytes32","internalType":"bytes32"},{"name":"weaponId","type":"uint256","internalType":"uint256"},{"name":"attackerId","type":"bytes32","internalType":"bytes32"},{"name":"defenderId","type":"bytes32","internalType":"bytes32"},{"name":"hit","type":"bool","internalType":"bool"},{"name":"miss","type":"bool","internalType":"bool"},{"name":"crit","type":"bool","internalType":"bool"},{"name":"attackerDamageDelt","type":"int256","internalType":"int256"},{"name":"defenderDamageDelt","type":"int256","internalType":"int256"},{"name":"attackerDied","type":"bool","internalType":"bool"},{"name":"defenderDied","type":"bool","internalType":"bool"},{"name":"blockNumber","type":"uint256","internalType":"uint256"},{"name":"timestamp","type":"uint256","internalType":"uint256"}]},{"name":"randomNumber","type":"uint256","internalType":"uint256"}],"outputs":[{"name":"","type":"tuple","internalType":"struct ActionOutcomeData","components":[{"name":"actionId","type":"bytes32","internalType":"bytes32"},{"name":"weaponId","type":"uint256","internalType":"uint256"},{"name":"attackerId","type":"bytes32","internalType":"bytes32"},{"name":"defenderId","type":"bytes32","internalType":"bytes32"},{"name":"hit","type":"bool","internalType":"bool"},{"name":"miss","type":"bool","internalType":"bool"},{"name":"crit","type":"bool","internalType":"bool"},{"name":"attackerDamageDelt","type":"int256","internalType":"int256"},{"name":"defenderDamageDelt","type":"int256","internalType":"int256"},{"name":"attackerDied","type":"bool","internalType":"bool"},{"name":"defenderDied","type":"bool","internalType":"bool"},{"name":"blockNumber","type":"uint256","internalType":"uint256"},{"name":"timestamp","type":"uint256","internalType":"uint256"}]}],"stateMutability":"nonpayable"},{"type":"function","name":"getDied","inputs":[{"name":"entityId","type":"bytes32","internalType":"bytes32"}],"outputs":[{"name":"isDied","type":"bool","internalType":"bool"}],"stateMutability":"view"},{"type":"function","name":"getEncounter","inputs":[{"name":"encounterId","type":"bytes32","internalType":"bytes32"}],"outputs":[{"name":"","type":"tuple","internalType":"struct CombatEncounterData","components":[{"name":"encounterType","type":"uint8","internalType":"enum EncounterType"},{"name":"start","type":"uint256","internalType":"uint256"},{"name":"end","type":"uint256","internalType":"uint256"},{"name":"rewardsDistributed","type":"bool","internalType":"bool"},{"name":"currentTurn","type":"uint256","internalType":"uint256"},{"name":"maxTurns","type":"uint256","internalType":"uint256"},{"name":"defenders","type":"bytes32[]","internalType":"bytes32[]"},{"name":"attackers","type":"bytes32[]","internalType":"bytes32[]"}]}],"stateMutability":"view"},{"type":"function","name":"isParticipant","inputs":[{"name":"account","type":"address","internalType":"address"},{"name":"participants","type":"bytes32[]","internalType":"bytes32[]"}],"outputs":[{"name":"_isParticipant","type":"bool","internalType":"bool"}],"stateMutability":"view"},{"type":"function","name":"isParticipant","inputs":[{"name":"playerId","type":"bytes32","internalType":"bytes32"},{"name":"encounterId","type":"bytes32","internalType":"bytes32"}],"outputs":[{"name":"_isParticipant","type":"bool","internalType":"bool"}],"stateMutability":"view"},{"type":"function","name":"supportsInterface","inputs":[{"name":"interfaceId","type":"bytes4","internalType":"bytes4"}],"outputs":[{"name":"","type":"bool","internalType":"bool"}],"stateMutability":"pure"},{"type":"event","name":"Store_SetRecord","inputs":[{"name":"tableId","type":"bytes32","indexed":true,"internalType":"ResourceId"},{"name":"keyTuple","type":"bytes32[]","indexed":false,"internalType":"bytes32[]"},{"name":"staticData","type":"bytes","indexed":false,"internalType":"bytes"},{"name":"encodedLengths","type":"bytes32","indexed":false,"internalType":"EncodedLengths"},{"name":"dynamicData","type":"bytes","indexed":false,"internalType":"bytes"}],"anonymous":false},{"type":"event","name":"Store_SpliceStaticData","inputs":[{"name":"tableId","type":"bytes32","indexed":true,"internalType":"ResourceId"},{"name":"keyTuple","type":"bytes32[]","indexed":false,"internalType":"bytes32[]"},{"name":"start","type":"uint48","indexed":false,"internalType":"uint48"},{"name":"data","type":"bytes","indexed":false,"internalType":"bytes"}],"anonymous":false},{"type":"error","name":"Slice_OutOfBounds","inputs":[{"name":"data","type":"bytes","internalType":"bytes"},{"name":"start","type":"uint256","internalType":"uint256"},{"name":"end","type":"uint256","internalType":"uint256"}]},{"type":"error","name":"World_AccessDenied","inputs":[{"name":"resource","type":"string","internalType":"string"},{"name":"caller","type":"address","internalType":"address"}]},{"type":"error","name":"World_FunctionSelectorNotFound","inputs":[{"name":"functionSelector","type":"bytes4","internalType":"bytes4"}]},{"type":"error","name":"World_ResourceNotFound","inputs":[{"name":"resourceId","type":"bytes32","internalType":"ResourceId"},{"name":"resourceIdString","type":"string","internalType":"string"}]}],"bytecode":{"object":"0x608060405234801561001057600080fd5b5061566280620000216000396000f3fe6080604052600436106100dd5760003560e01c806398d239b11161007f578063bfea0b8511610059578063bfea0b851461026c578063c6ca743c14610278578063def4c3ff14610298578063e1af802c146102b857600080fd5b806398d239b114610219578063aaa417b71461022c578063b24678941461024c57600080fd5b806347082155116100bb57806347082155146101665780634dda27e8146101885780636783d47a146101b5578063889d1704146101e257600080fd5b806301ffc9a7146100e2578063119df25f1461011757806345ec935414610144575b600080fd5b3480156100ee57600080fd5b506101026100fd366004614224565b6102cd565b60405190151581526020015b60405180910390f35b34801561012357600080fd5b5061012c610366565b6040516001600160a01b03909116815260200161010e565b34801561015057600080fd5b5036601f1901355b60405190815260200161010e565b34801561017257600080fd5b5061018661018136600461427f565b610375565b005b34801561019457600080fd5b506101a86101a33660046142b8565b610598565b60405161010e9190614337565b3480156101c157600080fd5b506101d56101d0366004614492565b6105ec565b60405161010e9190614571565b3480156101ee57600080fd5b506102026101fd3660046146c6565b610837565b60408051921515835290151560208301520161010e565b6101866102273660046147a2565b610910565b34801561023857600080fd5b50610158610247366004614881565b610ad5565b34801561025857600080fd5b5061010261026736600461490a565b610e66565b34801561018657600080fd5b34801561028457600080fd5b5061010261029336600461495a565b610f3c565b3480156102a457600080fd5b506101026102b33660046142b8565b610ff6565b3480156102c457600080fd5b5061012c611001565b60007fffffffff0000000000000000000000000000000000000000000000000000000082167fb5dee12700000000000000000000000000000000000000000000000000000000148061036057507fffffffff0000000000000000000000000000000000000000000000000000000082167f01ffc9a700000000000000000000000000000000000000000000000000000000145b92915050565b600061037061100b565b905090565b61038630610381610366565b61103d565b600061039184611053565b905061039c84611148565b156103ee5760405162461bcd60e51b815260206004820152601260248201527f6d6174636820616c7265616479206f766572000000000000000000000000000060448201526064015b60405180910390fd5b46617a690361040c5761040184436111e2565b43604082015261041d565b61041684426111e2565b4260408201525b6000805b8260c001515181101561046e578260c0015181815181106104445761044461497c565b602002602001015191506104578261129b565b61046657610466826000611339565b600101610421565b50600080600061047c611001565b6040517fdf883bd7000000000000000000000000000000000000000000000000000000008152600481018a9052602481018990526001600160a01b03919091169063df883bd7906044016000604051808303816000875af11580156104e5573d6000803e3d6000fd5b505050506040513d6000823e601f3d908101601f1916820160405261050d9190810190614992565b92509250925060006040518060a00160405280428152602001881515815260200185815260200184815260200183815250905060005b8660e00151518110156105825761057a8760e0015182815181106105695761056961497c565b60200260200101516000801b611339565b600101610543565b5061058d89826113ed565b505050505050505050565b6105e360408051610100810190915280600081526020016000815260200160008152602001600015158152602001600081526020016000815260200160608152602001606081525090565b61036082611053565b604080516101a081018252600080825260208201819052918101829052606081018290526080810182905260a0810182905260c0810182905260e08101829052610100810182905261012081018290526101408101829052610160810182905261018081019190915261066130610381610366565b61066e836040015161129b565b1580156106855750610683836060015161129b565b155b1561083057600061069984600001516114a7565b90508060200151516000036106f05760405162461bcd60e51b815260206004820152601560248201527f616374696f6e20646f6573206e6f74206578697374000000000000000000000060448201526064016103e5565b80516003811115610703576107036142d1565b60ff166001036107b257600081602001518060200190518101906107279190614aa7565b9050610742818660400151876060015188602001518861155c565b151560c0880152158015608088015260e08701919091526107ac576000620186a08660e001516107729190614b6b565b61077f8760600151611999565b6107899190614bb5565b90506000811361079c5760016101408701525b6107aa866060015182611a2b565b505b506107fa565b60405162461bcd60e51b815260206004820152601a60248201527f616374696f6e2074797065206e6f74207265636f676e697a656400000000000060448201526064016103e5565b836101400151156108145761081484606001516001611adf565b8361012001511561082e5761082e84604001516001611adf565b505b5090919050565b60008060008060005b8560c001515181101561088e576108738660c0015182815181106108665761086661497c565b6020026020010151610ff6565b15610886578261088281614bd5565b9350505b600101610840565b5060005b8560e00151518110156108d3576108b88660e0015182815181106108665761086661497c565b156108cb57816108c781614bd5565b9250505b600101610892565b508460e00151518114806108eb57508460c001515182145b806108fd57508460a001518560800151145b93508460c0015151821492505050915091565b600061091b84611053565b9050806020015160001415801561093457506040810151155b6109805760405162461bcd60e51b815260206004820181905260248201527f434f4d4241542053595354454d3a20494e56414c494420454e434f554e54455260448201526064016103e5565b8060a001518160800151106109d75760405162461bcd60e51b815260206004820181905260248201527f434f4d4241542053595354454d3a204558504952454420454e434f554e54455260448201526064016103e5565b6109df610366565b6001600160a01b03166109f0611001565b6001600160a01b0316634f10aabc856040518263ffffffff1660e01b8152600401610a1d91815260200190565b602060405180830381865afa158015610a3a573d6000803e3d6000fd5b505050506040513d601f19601f82011682018060405250810190610a5e9190614bef565b6001600160a01b0316148015610a795750610a798385610f3c565b610ac55760405162461bcd60e51b815260206004820152601c60248201527f434f4d4241542053595354454d3a204e4f4e2d434f4d424154414e540000000060448201526064016103e5565b610acf8483611b63565b50505050565b6000610ae8610ae2610366565b84610e66565b610b345760405162461bcd60e51b815260206004820152601d60248201527f434f4d4241542053595354454d3a20494e56414c49442053454e44455200000060448201526064016103e5565b600080610b5a85600081518110610b4d57610b4d61497c565b6020026020010151611bf8565b91509150856001811115610b7057610b706142d1565b600103610cd057610b7f611001565b6001600160a01b031663c6d5525b868685856040518563ffffffff1660e01b8152600401610bb09493929190614c0c565b602060405180830381865afa158015610bcd573d6000803e3d6000fd5b505050506040513d601f19601f82011682018060405250810190610bf19190614c51565b610c3d5760405162461bcd60e51b815260206004820152601a60248201527f434f4d4241542053595354454d3a20494e56414c49442050564500000000000060448201526064016103e5565b6040514290610c56908890889088908590602001614c6e565b6040516020818303038152906040528051906020012093506000604051806101000160405280896001811115610c8e57610c8e6142d1565b81526020018381526020016000815260200160001515815260200160008152602001600f8152602001878152602001888152509050610ccd8582611ca9565b50505b856001811115610ce257610ce26142d1565b50604080518082019091526000808252602082015260005b8551811015610db657610d25868281518110610d1857610d1861497c565b6020026020010151611d6f565b8051909250158015610d3957508160200151155b610d855760405162461bcd60e51b815260206004820152601d60248201527f434f4d4241542053595354454d3a20494e56414c494420454e5449545900000060448201526064016103e5565b8482528551610dae90879083908110610da057610da061497c565b602002602001015183611e26565b600101610cfa565b5060005b8651811015610e5b57610dd8878281518110610d1857610d1861497c565b8051909250158015610dec57508160200151155b610e385760405162461bcd60e51b815260206004820152601d60248201527f434f4d4241542053595354454d3a20494e56414c494420454e5449545900000060448201526064016103e5565b8482528651610e5390889083908110610da057610da061497c565b600101610dba565b505050509392505050565b6000805b8251811015610f3557610e7b611001565b6001600160a01b0316634f10aabc848381518110610e9b57610e9b61497c565b60200260200101516040518263ffffffff1660e01b8152600401610ec191815260200190565b602060405180830381865afa158015610ede573d6000803e3d6000fd5b505050506040513d601f19601f82011682018060405250810190610f029190614bef565b6001600160a01b0316846001600160a01b031603610f235760019150610f35565b80610f2d81614bd5565b915050610e6a565b5092915050565b600080610f4883611053565b905060005b8160e0015151811015610f99578160e001518181518110610f7057610f7061497c565b60200260200101518503610f875760019250610f99565b80610f9181614bd5565b915050610f4d565b5081610f355760005b8160c0015151811015610fee578160c001518181518110610fc557610fc561497c565b60200260200101518503610fdc5760019250610fee565b80610fe681614bd5565b915050610fa2565b505092915050565b60006103608261129b565b6000610370611eb1565b7fffffffffffffffffffffffffffffffffffffffffffffffffffffffffffffffcc36013560601c8061103a5750335b90565b61104f61104983611ebb565b82611f58565b5050565b61109e60408051610100810190915280600081526020016000815260200160008152602001600015158152602001600081526020016000815260200160608152602001606081525090565b6040805160018082528183019092526000916020808301908036833701905050905082816000815181106110d4576110d461497c565b60209081029190910101526000808061112d7f74625544000000000000000000000000436f6d626174456e636f756e74657200857e82060201202001202000000000000000000000000000000000000000000000611fa4565b92509250925061113e838383612074565b9695505050505050565b6040805160018082528183019092526000918291906020808301908036833701905050905082816000815181106111815761118161497c565b602090810291909101015260006111da7f74625544000000000000000000000000436f6d626174456e636f756e746572008360027e82060201202001202000000000000000000000000000000000000000000000612134565b949350505050565b6040805160018082528183019092526000916020808301908036833701905050905082816000815181106112185761121861497c565b6020026020010181815250506112967f74625544000000000000000000000000436f6d626174456e636f756e7465720060001b8260028560405160200161126191815260200190565b60408051601f198184030181529190527e820602012020012020000000000000000000000000000000000000000000006121f1565b505050565b6040805160018082528183019092526000918291906020808301908036833701905050905082816000815181106112d4576112d461497c565b6020908102919091010152600061132d7f746255440000000000000000000000004d61746368456e7469747900000000008360017e21020020010000000000000000000000000000000000000000000000000000612134565b90506111da8160f81c90565b60408051600180825281830190925260009160208083019080368337019050509050828160008151811061136f5761136f61497c565b6020026020010181815250506112967f746255440000000000000000000000004d61746368456e74697479000000000060001b826000856040516020016113b891815260200190565b60408051601f198184030181529190527e210200200100000000000000000000000000000000000000000000000000006121f1565b600061140b82600001518360200151846040015185606001516122a6565b9050600061141c83608001516122f1565b9050600061142d8460800151612304565b604080516001808252818301909252919250600091906020808301908036833701905050905085816000815181106114675761146761497c565b602090810291909101015261149f7f6f745544000000000000000000000000436f6d6261744f7574636f6d6500000082868686612335565b505050505050565b6040805180820190915260008152606060208201526040805160018082528183019092526000916020808301908036833701905050905082816000815181106114f2576114f261497c565b60209081029190910101526000808061154b7f74625544000000000000000000000000416374696f6e73000000000000000000857e01010101000000000000000000000000000000000000000000000000000000611fa4565b92509250925061113e8383836123ab565b60008060008061156a611001565b6001600160a01b03166354f1f2db896040518263ffffffff1660e01b815260040161159791815260200190565b60e060405180830381865afa1580156115b4573d6000803e3d6000fd5b505050506040513d601f19601f820116820180604052508101906115d89190614cb2565b905060006115e4611001565b6001600160a01b03166354f1f2db896040518263ffffffff1660e01b815260040161161191815260200190565b60e060405180830381865afa15801561162e573d6000803e3d6000fd5b505050506040513d601f19601f820116820180604052508101906116529190614cb2565b9050600061165e611001565b6001600160a01b031663810c1dc1896040518263ffffffff1660e01b815260040161168b91815260200190565b600060405180830381865afa1580156116a8573d6000803e3d6000fd5b505050506040513d6000823e601f3d908101601f191682016040526116d09190810190614d36565b905060008260a00151131561197e576040517f4dddf8370000000000000000000000000000000000000000000000000000000081526004810188905260009073__$227e4555c1f608352b26068e438454dd8b$__90634dddf83790602401600060405180830381865af415801561174b573d6000803e3d6000fd5b505050506040513d6000823e601f3d908101601f191682016040526117739190810190614ded565b90506117ca8160008151811061178b5761178b61497c565b602002602001015167ffffffffffffffff16826001815181106117b0576117b061497c565b602002602001015167ffffffffffffffff168e8787612408565b9096509450851561193157620186a060008d6000015185606001516117ef9190614bb5565b136117fb57600161180c565b8c51606085015161180c9190614bb5565b6118169190614e92565b8451620186a09061182990600290614ea9565b8460a001518560800151856002815181106118465761184661497c565b602002602001015167ffffffffffffffff166118629190614ebd565b11156118a1578460800151846002815181106118805761188061497c565b602002602001015167ffffffffffffffff1661189c9190614ebd565b6118a7565b8460a001515b8f604001516118b69190614ed1565b6118c09190614ed1565b6118ca9190614ef1565b6118d49190614bb5565b9650841561192c5761191a6040518060400160405280600581526020017f435249542100000000000000000000000000000000000000000000000000000081525061249b565b611925600288614ef1565b9650600194505b611978565b61196f6040518060400160405280600581526020017f4d4953532100000000000000000000000000000000000000000000000000000081525061249b565b60009650600095505b5061198b565b6000955060009450600093505b505050955095509592505050565b6040805160018082528183019092526000918291906020808301908036833701905050905082816000815181106119d2576119d261497c565b602090810291909101015260006111da7f74625544000000000000000000000000537461747300000000000000000000008360057ee1080020200120202020200000000000000000000000000000000000000000612134565b604080516001808252818301909252600091602080830190803683370190505090508281600081518110611a6157611a6161497c565b6020026020010181815250506112967f746255440000000000000000000000005374617473000000000000000000000060001b82600585604051602001611aaa91815260200190565b60408051601f198184030181529190527ee10800202001202020202000000000000000000000000000000000000000006121f1565b604080516001808252818301909252600091602080830190803683370190505090508281600081518110611b1557611b1561497c565b6020026020010181815250506112967f746255440000000000000000000000004d61746368456e74697479000000000060001b826001856040516020016113b891151560f81b815260010190565b6112968260018484604051602001611b7c929190614f3d565b60408051601f1981840301815290829052611b9b939291602401614ffd565b60408051601f198184030181529190526020810180517bffffffffffffffffffffffffffffffffffffffffffffffffffffffff167fb2aa60a40000000000000000000000000000000000000000000000000000000017905261250f565b60408051600180825281830190925260009182918291602080830190803683370190505090508381600081518110611c3257611c3261497c565b602090810291909101015260008080611c8b7f74625544000000000000000000000000506f736974696f6e0000000000000000857e04020002020000000000000000000000000000000000000000000000000000611fa4565b925092509250611c9c8383836125bd565b9550955050505050915091565b6000611cd1826000015183602001518460400151856060015186608001518760a001516125e0565b90506000611ce78360c001518460e00151612618565b90506000611cfd8460c001518560e00151612643565b60408051600180825281830190925291925060009190602080830190803683370190505090508581600081518110611d3757611d3761497c565b602090810291909101015261149f7f74625544000000000000000000000000436f6d626174456e636f756e7465720082868686612335565b6040805180820182526000808252602082018190528251600180825281850190945291929091908160200160208202803683370190505090508281600081518110611dbc57611dbc61497c565b602090810291909101015260008080611e157f746255440000000000000000000000004d61746368456e746974790000000000857e21020020010000000000000000000000000000000000000000000000000000611fa4565b92509250925061113e83838361267f565b6000611e3a826000015183602001516126ac565b604080516001808252818301909252919250600091606091839190602080830190803683370190505090508581600081518110611e7957611e7961497c565b602090810291909101015261149f7f746255440000000000000000000000004d61746368456e74697479000000000082868686612335565b60006103706126cf565b60408051600180825281830190925260009182919060208083019080368337019050509050826001600160a01b031660001b81600081518110611f0057611f0061497c565b602090810291909101015260006111da7f7462776f726c6400000000000000000053797374656d5265676973747279000083837e20010020000000000000000000000000000000000000000000000000000000612134565b611f62828261270e565b61104f57611f6f8261276c565b816040517fd787b7370000000000000000000000000000000000000000000000000000000081526004016103e592919061502c565b6060600060606000611fb46126cf565b9050306001600160a01b03821603611fdd57611fd18787876128a9565b9350935093505061206b565b6040517f419b58fd0000000000000000000000000000000000000000000000000000000081526001600160a01b0382169063419b58fd90612026908a908a908a90600401615057565b600060405180830381865afa158015612043573d6000803e3d6000fd5b505050506040513d6000823e601f3d908101601f19168201604052611fd191908101906150e4565b93509350939050565b6120bf60408051610100810190915280600081526020016000815260200160008152602001600015158152602001600081526020016000815260200160608152602001606081525090565b6120c8846129b1565b60a087018190526080870182905282151560608801526040870184905260208701859052868660018111156120ff576120ff6142d1565b6001811115612110576121106142d1565b8152505050505050506121238383612a19565b60e083015260c08201529392505050565b60008061213f6126cf565b9050306001600160a01b038216036121655761215d86868686612a68565b9150506111da565b6040517f8c364d590000000000000000000000000000000000000000000000000000000081526001600160a01b03821690638c364d59906121b0908990899089908990600401615147565b602060405180830381865afa1580156121cd573d6000803e3d6000fd5b505050506040513d601f19601f8201168201806040525081019061215d9190615176565b60006121fb6126cf565b9050306001600160a01b0382160361221f5761221a8686868686612a9e565b61149f565b6040517f390baae00000000000000000000000000000000000000000000000000000000081526001600160a01b0382169063390baae09061226c908990899089908990899060040161518f565b600060405180830381600087803b15801561228657600080fd5b505af115801561229a573d6000803e3d6000fd5b50505050505050505050565b6060848484846040516020016122d8949392919093845291151560f81b60208401526021830152604182015260610190565b6040516020818303038152906040529050949350505050565b60006103608251602002603881901b1790565b606061230f82612aba565b60405160200161231f91906151d6565b6040516020818303038152906040529050919050565b600061233f6126cf565b9050306001600160a01b0382160361235e5761221a8686868686612aca565b6040517f298314fb0000000000000000000000000000000000000000000000000000000081526001600160a01b0382169063298314fb9061226c90899089908990899089906004016151f2565b6040805180820190915260008152606060208201526123c984612ae0565b819060038111156123dc576123dc6142d1565b908160038111156123ef576123ef6142d1565b9052506123fc8383612afc565b60208201529392505050565b60008080620249f061241c6103e88a614ebd565b61242e87602001518960200151612b1f565b6124389190615237565b6124429190614e92565b90506000620186a085602001516103e88a61245d9190614ebd565b6124679190615237565b6124719190614e92565b90508082119350831561248f57600261248a8284614ea9565b101592505b50509550959350505050565b61250c816040516024016124af919061524a565b60408051601f198184030181529190526020810180517bffffffffffffffffffffffffffffffffffffffffffffffffffffffff167f41304fac00000000000000000000000000000000000000000000000000000000179052612b4c565b50565b60606000806125256125208561525d565b612b55565b91509150816000801b0361258b576040517ffdde54e20000000000000000000000000000000000000000000000000000000081527fffffffff000000000000000000000000000000000000000000000000000000006000351660048201526024016103e5565b6020840180517bffffffffffffffffffffffffffffffffffffffffffffffffffffffff16821790526111da8285612c18565b60208301516022840151600091829160f091821c911c5b90969095509350505050565b60608686868686866040516020016125fd969594939291906152a9565b60405160208183030381529060405290509695505050505050565b600061263c83516020028351602002606081901b603883901b838301171792915050565b9392505050565b606061264e83612aba565b61265783612aba565b6040516020016126689291906152f5565b604051602081830303815290604052905092915050565b604080518082019091526000808252602082015261269c84612cf3565b1515602083015281529392505050565b60608282604051602001612668929190918252151560f81b602082015260210190565b7f629a4c26e296b22a8e0856e9f6ecb2d1008d7e00081111962cd175fa7488e175546000906001600160a01b031680612709573391505090565b919050565b600061275c7f6e730000000000000000000000000000000000000000000000000000000000007dffffffffffffffffffffffffffff0000000000000000000000000000000085161783612d10565b8061263c575061263c8383612d10565b606081601081901b600061277f83612dd9565b9050827fffffffffffffffffffffffffffff0000000000000000000000000000000000008316156127da576127d57fffffffffffffffffffffffffffff0000000000000000000000000000000000008416612df0565b612811565b6040518060400160405280600681526020017f3c726f6f743e00000000000000000000000000000000000000000000000000008152505b7fffffffffffffffffffffffffffffffff000000000000000000000000000000008316156128475761284283612df0565b61287e565b6040518060400160405280600681526020017f3c726f6f743e00000000000000000000000000000000000000000000000000008152505b60405160200161289093929190615324565b6040516020818303038152906040529350505050919050565b60606000606060006128ba85612e94565b90506128c7878783612eb7565b935060006128d486612ef0565b905080156129a6576128e68888612f2d565b935066ffffffffffffff841667ffffffffffffffff81111561290a5761290a6143b7565b6040519080825280601f01601f191660200182016040528015612934576020820181803683370190505b5092506020830160005b828160ff1610156129a35760006129568b8b84612f40565b90506000612973888460ff166028026038011c64ffffffffff1690565b90506129828260008387612fc0565b61298c8185615237565b93505050808061299b906153b2565b91505061293e565b50505b505093509350939050565b6000806000806000806129c8876000016020015190565b60f81c60018111156129dc576129dc6142d1565b6021880151604189015160618a015192985090965094506129fe905b60f81c90565b60628801516082909801519698959794969095909350915050565b6060806000603885901c64ffffffffff16612a3d612a3886848461308c565b61311a565b935090508064ffffffffff606087901c1601612a5d612a3886848461308c565b925050509250929050565b6000612a95612a77868661312b565b60ff858116601b0360080285901c16612a908587613181565b6131ba565b95945050505050565b612ab38585612aad8487613181565b8561320b565b5050505050565b60608161263c81602060006134af565b612ab38585858585612adb8b61350f565b613594565b602081015160009060f81c6003811115610360576103606142d1565b60606000603884901c64ffffffffff16612a95612b1a85848461308c565b6138cd565b6000808212612b3957612b328284615237565b9050610360565b612b42826153d1565b612b329084615409565b61250c8161394d565b6040805160018082528183019092526000918291829160208083019080368337019050509050837bffffffffffffffffffffffffffffffffffffffffffffffffffffffff191681600081518110612bae57612bae61497c565b602090810291909101015260008080612c077f7462776f726c6400000000000000000046756e6374696f6e53656c6563746f72857e24020020040000000000000000000000000000000000000000000000000000611fa4565b925092509250611c9c83838361396e565b60606000612c24611eb1565b90506001600160a01b0381163003612c65576000612c4c612c4361100b565b6000878761397a565b9350905080612c5e57612c5e83613ab5565b5050610360565b6040517f3ae7af080000000000000000000000000000000000000000000000000000000081526001600160a01b03821690633ae7af0890612cac908790879060040161541c565b6000604051808303816000875af1158015612ccb573d6000803e3d6000fd5b505050506040513d6000823e601f3d908101601f191682016040526111da9190810190615435565b60208101516040820151600090612d09906129f8565b9050915091565b604080516002808252606082018352600092839291906020830190803683370190505090508381600081518110612d4957612d4961497c565b602002602001018181525050826001600160a01b031660001b81600181518110612d7557612d7561497c565b60209081029190910101526000612dcd7f7462776f726c640000000000000000005265736f75726365416363657373000083837e01010001000000000000000000000000000000000000000000000000000000612134565b9050612a958160f81c90565b6000612de760706010615237565b9190911b919050565b606060005b6010811015612e55577fffffffffffffffffffffffffffffffff000000000000000000000000000000008316600882021b7fff000000000000000000000000000000000000000000000000000000000000001615612e5557600101612df5565b604080517fffffffffffffffffffffffffffffffff000000000000000000000000000000008516602082015281516030909101909152818152806111da565b60006008612ea460026020615409565b612eae9190614e92565b9190911c919050565b606081600003612ed6575060408051602081019091526000815261263c565b6000612ee2858561312b565b9050612a9581600085613abd565b60006008600180612f0360026020615409565b612f0d9190615409565b612f179190615409565b612f219190614e92565b8260ff911c1692915050565b600061263c612f3c8484613ae0565b5490565b60008383604051602001612f5592919061546a565b604051602081830303815290604052805190602001208260f81b7effffffffffffffffffffffffffffffffffffffffffffffffffffffffffffff19167f3b4102da22e32d82fc925482184f16c09fd4281692720b87d124aef6da48a0f1181860001c90509392505050565b82156130475760208310612fea57602083048401935060208381612fe657612fe6614b3f565b0692505b821561304757602083900360008184101561300d5750600019600884021c613017565b50600019600882021c5b8554600886021b818451168219821617845250818411613038575050610acf565b50600194909401939182900391015b5b602082106130695783548152600190930192601f1990910190602001613048565b8115610acf576000600019600884021c8251865482191691161782525050505050565b60008183118061309c5750835182115b156130d9578383836040517f23230fa30000000000000000000000000000000000000000000000000000000081526004016103e5939291906154a6565b602084016130e78482615237565b905060006130f58585615409565b6fffffffffffffffffffffffffffffffff1660809290921b9190911795945050505050565b6060600061263c8360206000613b36565b6000828260405160200161314092919061546a565b60408051601f1981840301815291905280516020909101207f86425bff6b57326c7859e89024fe4f238ca327a1ae4a230180dd2f0e88aaa7d9189392505050565b600080805b8360ff168110156131b2576131a860ff601b83900360080287901c1683615237565b9150600101613186565b509392505050565b6000602082106131e0576020820484019350602082816131dc576131dc614b3f565b0691505b508254600882021b6020829003808411156131b2576001850154600882021c82179150509392505050565b7f6f74000000000000000000000000000000000000000000000000000000000000847fffff000000000000000000000000000000000000000000000000000000000000160361329557837f8c0b5119d4cec7b284c6b1b39252a03d1e2f2d7451a5895562524c113bb952be848484604051613288939291906154cb565b60405180910390a2610acf565b60006132a1858561312b565b905060006132ae86613ba5565b905060005b81518110156133835760008282815181106132d0576132d061497c565b602002602001015190506132fc6004826affffffffffffffffffffff1916613c2e90919063ffffffff16565b1561337a576040517f964f667d000000000000000000000000000000000000000000000000000000008152606082901c9063964f667d90613347908b908b908b908b906004016154fe565b600060405180830381600087803b15801561336157600080fd5b505af1158015613375573d6000803e3d6000fd5b505050505b506001016132b3565b50857f8c0b5119d4cec7b284c6b1b39252a03d1e2f2d7451a5895562524c113bb952be8686866040516133b8939291906154cb565b60405180910390a26133d3828565ffffffffffff1685613c4c565b60005b81518110156134a65760008282815181106133f3576133f361497c565b6020026020010151905061341f6008826affffffffffffffffffffff1916613c2e90919063ffffffff16565b1561349d576040517fa8ba8721000000000000000000000000000000000000000000000000000000008152606082901c9063a8ba87219061346a908b908b908b908b906004016154fe565b600060405180830381600087803b15801561348457600080fd5b505af1158015613498573d6000803e3d6000fd5b505050505b506001016133d6565b50505050505050565b825160609060006134c08583614e92565b9050604051925060208301601f19603f83860101166040528184526000602088015b84821015613503578051871b835291870191600191909101906020016134e2565b50505050509392505050565b60007f8b9d8c8b908d9affffffffffffffffffab9e9d939a8d00000000000000000000820161355e57507e60030220202000000000000000000000000000000000000000000000000000919050565b61036061358b7f746273746f72650000000000000000005461626c65730000000000000000000084613c62565b602060006131ba565b7f6f74000000000000000000000000000000000000000000000000000000000000867fffff000000000000000000000000000000000000000000000000000000000000160361362057857f8dbb3a9672eebfd3773e72dd9c102393436816d832c7ba9e1e1ac8fcadcac7a9868686866040516136139493929190615542565b60405180910390a261149f565b600061362b87613ba5565b905060005b815181101561370457600082828151811061364d5761364d61497c565b602002602001015190506136796001826affffffffffffffffffffff1916613c2e90919063ffffffff16565b156136fb576040517f57066c9c000000000000000000000000000000000000000000000000000000008152606082901c906357066c9c906136c8908c908c908c908c908c908c90600401615581565b600060405180830381600087803b1580156136e257600080fd5b505af11580156136f6573d6000803e3d6000fd5b505050505b50600101613630565b50867f8dbb3a9672eebfd3773e72dd9c102393436816d832c7ba9e1e1ac8fcadcac7a98787878760405161373b9493929190615542565b60405180910390a2600061374f888861312b565b90506000602087019050613767826000895184613c7e565b600061377285612ef0565b11156137f65760006137848a8a613ae0565b878155905060208601915060008060005b61379e88612ef0565b8160ff1610156137f1576137b38d8d83612f40565b92506137ce8a8260ff166028026038011c64ffffffffff1690565b91506137dd8360008488613c7e565b6137e78286615237565b9450600101613795565b505050505b60005b835181101561229a5760008482815181106138165761381661497c565b602002602001015190506138426002826affffffffffffffffffffff1916613c2e90919063ffffffff16565b156138c4576040517f5b28cdaf000000000000000000000000000000000000000000000000000000008152606082901c90635b28cdaf90613891908e908e908e908e908e908e90600401615581565b600060405180830381600087803b1580156138ab57600080fd5b505af11580156138bf573d6000803e3d6000fd5b505050505b506001016137f9565b606060006138db8360801c90565b90506fffffffffffffffffffffffffffffffff83168067ffffffffffffffff811115613909576139096143b7565b6040519080825280601f01601f191660200182016040528015613933576020820181803683370190505b50925060208301613945838284613d3d565b505050919050565b80516a636f6e736f6c652e6c6f67602083016000808483855afa5050505050565b6000806125d485613d88565b6000606060008061398a86613d9a565b90925090506001600160a01b0382166139db57856139a78761276c565b6040517ffbf10ce60000000000000000000000000000000000000000000000000000000081526004016103e592919061541c565b806139ea576139ea8689613e3e565b8615613a56577dffffffffffffffffffffffffffff0000000000000000000000000000000086167f6e73000000000000000000000000000000000000000000000000000000000000176000613a3e82613e48565b9050613a5382613a4e8b84615237565b613ed9565b50505b6000613a628760101b90565b7fffffffffffffffffffffffffffff0000000000000000000000000000000000001614613a9a57613a9588888488613f8d565b613aa6565b613aa688888488614005565b90999098509650505050505050565b805160208201fd5b60405160208101601f19603f84840101166040528282526131b285858584612fc0565b60008282604051602001613af592919061546a565b60408051601f1981840301815291905280516020909101207f14e2fcc58e58e68ec7edc30c8d50dccc3ce2714a623ec81f46b6a63922d76569189392505050565b60606000613b448560801c90565b90506fffffffffffffffffffffffffffffffff85166000858281613b6a57613b6a614b3f565b04905060405193506020840160208202810160405281855260005b82811015613503578451871c825293870193602090910190600101613b85565b60408051600180825281830190925260609160009190602080830190803683370190505090508281600081518110613bdf57613bdf61497c565b60209081029190910101526000613c177f746273746f726500000000000000000053746f7265486f6f6b730000000000008383614066565b90506111da613c29826000845161308c565b6140a0565b60008160ff1682613c3f8560581c90565b1660ff1614905092915050565b61129683838351613c5d8560200190565b613c7e565b6040805160208101849052908101829052600090606001613140565b8215613cf85760208310613ca857602083048401935060208381613ca457613ca4614b3f565b0692505b8215613cf85760208390036000600019600885021c1990506008850281811c91508351811c9050811987541682821617875550818411613ce9575050610acf565b50600194909401939182900391015b5b60208210613d1a5780518455600190930192601f1990910190602001613cf9565b8115610acf576000600019600884021c8554835182191691161785555050505050565b5b60208110613d5d578251825260209283019290910190601f1901613d3e565b80600003613d6a57505050565b6000600019600883021c905080835116811985511617835250505050565b60208101516040820151600090612d09565b60408051600180825281830190925260009182918291602080830190803683370190505090508381600081518110613dd457613dd461497c565b602090810291909101015260008080613e2d7f7462776f726c6400000000000000000053797374656d73000000000000000000857e150200140100000000000000000000000000000000000000000000000000006128a9565b925092509250611c9c8383836140b1565b611f6282826140bd565b604080516001808252818301909252600091829190602080830190803683370190505090508281600081518110613e8157613e8161497c565b602090810291909101015260006111da7f7462776f726c6400000000000000000042616c616e636573000000000000000083837e20010020000000000000000000000000000000000000000000000000000000612a68565b604080516001808252818301909252600091602080830190803683370190505090508281600081518110613f0f57613f0f61497c565b6020026020010181815250506112967f7462776f726c6400000000000000000042616c616e636573000000000000000060001b82600085604051602001613f5891815260200190565b60408051601f198184030181529190527e20010020000000000000000000000000000000000000000000000000000000612a9e565b60006060836001600160a01b03166000613fa885898961411b565b604051613fb591906151d6565b60006040518083038185875af1925050503d8060008114613ff2576040519150601f19603f3d011682016040523d82523d6000602084013e613ff7565b606091505b509097909650945050505050565b60006060836001600160a01b031661401e84888861411b565b60405161402b91906151d6565b600060405180830381855af49150503d8060008114613ff2576040519150601f19603f3d011682016040523d82523d6000602084013e613ff7565b60606111da614076858585612f40565b600061409b856140868989612f2d565b9060ff166028026038011c64ffffffffff1690565b613abd565b6060600061263c8360156000613b36565b6000806125d48561414a565b600061410b7f6e730000000000000000000000000000000000000000000000000000000000007dffffffffffffffffffffffffffff0000000000000000000000000000000085161783614167565b8061263c575061263c8383614167565b6060838383604051602001614132939291906155da565b60405160208183030381529060405290509392505050565b6020810151603482015160609190911c90600090612d09906129f8565b6040805160028082526060820183526000928392919060208301908036833701905050905083816000815181106141a0576141a061497c565b602002602001018181525050826001600160a01b031660001b816001815181106141cc576141cc61497c565b60209081029190910101526000612dcd7f7462776f726c640000000000000000005265736f75726365416363657373000083837e01010001000000000000000000000000000000000000000000000000000000612a68565b60006020828403121561423657600080fd5b81357fffffffff000000000000000000000000000000000000000000000000000000008116811461263c57600080fd5b801515811461250c57600080fd5b803561270981614266565b60008060006060848603121561429457600080fd5b833592506020840135915060408401356142ad81614266565b809150509250925092565b6000602082840312156142ca57600080fd5b5035919050565b634e487b7160e01b600052602160045260246000fd5b600281106142f7576142f76142d1565b9052565b60008151808452602080850194506020840160005b8381101561432c57815187529582019590820190600101614310565b509495945050505050565b602081526143496020820183516142e7565b6020820151604082015260408201516060820152606082015115156080820152608082015160a082015260a082015160c0820152600060c08301516101008060e085015261439b6101208501836142fb565b915060e0850151601f19858403018286015261113e83826142fb565b634e487b7160e01b600052604160045260246000fd5b6040516101a0810167ffffffffffffffff811182821017156143f1576143f16143b7565b60405290565b604051610100810167ffffffffffffffff811182821017156143f1576143f16143b7565b6040516080810167ffffffffffffffff811182821017156143f1576143f16143b7565b60405160a0810167ffffffffffffffff811182821017156143f1576143f16143b7565b604051601f8201601f1916810167ffffffffffffffff8111828210171561448a5761448a6143b7565b604052919050565b6000808284036101c08112156144a757600080fd5b6101a0808212156144b757600080fd5b6144bf6143cd565b9150843582526020850135602083015260408501356040830152606085013560608301526144ef60808601614274565b608083015261450060a08601614274565b60a083015261451160c08601614274565b60c083015260e085013560e083015261010080860135818401525061012061453a818701614274565b9083015261014061454c868201614274565b9083015261016085810135908301526101808086013590830152909593013593505050565b60006101a0820190508251825260208301516020830152604083015160408301526060830151606083015260808301516145af608084018215159052565b5060a08301516145c360a084018215159052565b5060c08301516145d760c084018215159052565b5060e0838101519083015261010080840151908301526101208084015115159083015261014080840151151590830152610160808401519083015261018092830151929091019190915290565b80356002811061270957600080fd5b600067ffffffffffffffff82111561464d5761464d6143b7565b5060051b60200190565b600082601f83011261466857600080fd5b8135602061467d61467883614633565b614461565b8083825260208201915060208460051b87010193508684111561469f57600080fd5b602086015b848110156146bb57803583529183019183016146a4565b509695505050505050565b6000602082840312156146d857600080fd5b813567ffffffffffffffff808211156146f057600080fd5b90830190610100828603121561470557600080fd5b61470d6143f7565b61471683614624565b8152602083013560208201526040830135604082015261473860608401614274565b60608201526080830135608082015260a083013560a082015260c08301358281111561476357600080fd5b61476f87828601614657565b60c08301525060e08301358281111561478757600080fd5b61479387828601614657565b60e08301525095945050505050565b600080600060608085870312156147b857600080fd5b84359350602080860135935060408087013567ffffffffffffffff8111156147df57600080fd5b8701601f810189136147f057600080fd5b80356147fe61467882614633565b81815260079190911b8201840190848101908b83111561481d57600080fd5b928501925b82841015614870576080848d03121561483b5760008081fd5b61484361441b565b84358152868501358782015285850135868201528785013588820152825260809093019290850190614822565b809750505050505050509250925092565b60008060006060848603121561489657600080fd5b61489f84614624565b9250602084013567ffffffffffffffff808211156148bc57600080fd5b6148c887838801614657565b935060408601359150808211156148de57600080fd5b506148eb86828701614657565b9150509250925092565b6001600160a01b038116811461250c57600080fd5b6000806040838503121561491d57600080fd5b8235614928816148f5565b9150602083013567ffffffffffffffff81111561494457600080fd5b61495085828601614657565b9150509250929050565b6000806040838503121561496d57600080fd5b50508035926020909101359150565b634e487b7160e01b600052603260045260246000fd5b6000806000606084860312156149a757600080fd5b835192506020808501519250604085015167ffffffffffffffff8111156149cd57600080fd5b8501601f810187136149de57600080fd5b80516149ec61467882614633565b81815260059190911b82018301908381019089831115614a0b57600080fd5b928401925b82841015614a2957835182529284019290840190614a10565b80955050505050509250925092565b600082601f830112614a4957600080fd5b81516020614a5961467883614633565b8083825260208201915060208460051b870101935086841115614a7b57600080fd5b602086015b848110156146bb57805160ff81168114614a9a5760008081fd5b8352918301918301614a80565b600060208284031215614ab957600080fd5b815167ffffffffffffffff80821115614ad157600080fd5b9083019060a08286031215614ae557600080fd5b614aed61443e565b825181526020830151602082015260408301516040820152606083015182811115614b1757600080fd5b614b2387828601614a38565b6060830152506080830151608082015280935050505092915050565b634e487b7160e01b600052601260045260246000fd5b634e487b7160e01b600052601160045260246000fd5b600082614b7a57614b7a614b3f565b60001983147f800000000000000000000000000000000000000000000000000000000000000083141615614bb057614bb0614b55565b500590565b8181036000831280158383131683831282161715610f3557610f35614b55565b60006000198203614be857614be8614b55565b5060010190565b600060208284031215614c0157600080fd5b815161263c816148f5565b608081526000614c1f60808301876142fb565b8281036020840152614c3181876142fb565b91505061ffff808516604084015280841660608401525095945050505050565b600060208284031215614c6357600080fd5b815161263c81614266565b614c7881866142e7565b608060208201526000614c8e60808301866142fb565b8281036040840152614ca081866142fb565b91505082606083015295945050505050565b600060e08284031215614cc457600080fd5b60405160e0810181811067ffffffffffffffff82111715614ce757614ce76143b7565b8060405250825181526020830151602082015260408301516040820152606083015160608201526080830151608082015260a083015160a082015260c083015160c08201528091505092915050565b600060208284031215614d4857600080fd5b815167ffffffffffffffff80821115614d6057600080fd5b908301906101008286031215614d7557600080fd5b614d7d6143f7565b82518152602083015182811115614d9357600080fd5b614d9f87828601614a38565b60208301525060408301516040820152606083015160608201526080830151608082015260a083015160a082015260c083015160c082015260e083015160e082015280935050505092915050565b60006020808385031215614e0057600080fd5b825167ffffffffffffffff80821115614e1857600080fd5b818501915085601f830112614e2c57600080fd5b8151614e3a61467882614633565b81815260059190911b83018401908481019088831115614e5957600080fd5b938501935b82851015614e865784518481168114614e775760008081fd5b82529385019390850190614e5e565b98975050505050505050565b808202811582820484141761036057610360614b55565b600082614eb857614eb8614b3f565b500490565b600082614ecc57614ecc614b3f565b500690565b8082018281126000831280158216821582161715610fee57610fee614b55565b808202600082127f800000000000000000000000000000000000000000000000000000000000000084141615614f2957614f29614b55565b818105831482151761036057610360614b55565b60006040808301858452602060406020860152818651808452606093506060870191506020880160005b82811015614f9e57815180518552858101518686015287810151888601528601518685015260809093019290840190600101614f67565b50919998505050505050505050565b60005b83811015614fc8578181015183820152602001614fb0565b50506000910152565b60008151808452614fe9816020860160208601614fad565b601f01601f19169290920160200192915050565b838152600060038410615012576150126142d1565b83602083015260606040830152612a956060830184614fd1565b60408152600061503f6040830185614fd1565b90506001600160a01b03831660208301529392505050565b83815260606020820152600061507060608301856142fb565b9050826040830152949350505050565b600082601f83011261509157600080fd5b815167ffffffffffffffff8111156150ab576150ab6143b7565b6150be6020601f19601f84011601614461565b8181528460208386010111156150d357600080fd5b6111da826020830160208701614fad565b6000806000606084860312156150f957600080fd5b835167ffffffffffffffff8082111561511157600080fd5b61511d87838801615080565b945060208601519350604086015191508082111561513a57600080fd5b506148eb86828701615080565b84815260806020820152600061516060808301866142fb565b60ff949094166040830152506060015292915050565b60006020828403121561518857600080fd5b5051919050565b85815260a0602082015260006151a860a08301876142fb565b60ff8616604084015282810360608401526151c38186614fd1565b9150508260808301529695505050505050565b600082516151e8818460208701614fad565b9190910192915050565b85815260a06020820152600061520b60a08301876142fb565b828103604084015261521d8187614fd1565b90508460608401528281036080840152614e868185614fd1565b8082018082111561036057610360614b55565b60208152600061263c6020830184614fd1565b6000815160208301517fffffffff00000000000000000000000000000000000000000000000000000000808216935060048310156139455760049290920360031b82901b161692915050565b6000600288106152bb576152bb6142d1565b8760f81b825286600183015285602183015284151560f81b6041830152836042830152826062830152608282019050979650505050505050565b60008351615307818460208801614fad565b83519083019061531b818360208801614fad565b01949350505050565b7fffff0000000000000000000000000000000000000000000000000000000000008416815260007f3a000000000000000000000000000000000000000000000000000000000000008060028401528451615385816003860160208901614fad565b8084019050816003820152845191506153a5826004830160208801614fad565b0160040195945050505050565b600060ff821660ff81036153c8576153c8614b55565b60010192915050565b60007f8000000000000000000000000000000000000000000000000000000000000000820361540257615402614b55565b5060000390565b8181038181111561036057610360614b55565b8281526040602082015260006111da6040830184614fd1565b60006020828403121561544757600080fd5b815167ffffffffffffffff81111561545e57600080fd5b6111da84828501615080565b8281526000602080830184516020860160005b828110156154995781518452928401929084019060010161547d565b5091979650505050505050565b6060815260006154b96060830186614fd1565b60208301949094525060400152919050565b6060815260006154de60608301866142fb565b65ffffffffffff85166020840152828103604084015261113e8185614fd1565b84815260806020820152600061551760808301866142fb565b65ffffffffffff8516604084015282810360608401526155378185614fd1565b979650505050505050565b60808152600061555560808301876142fb565b82810360208401526155678187614fd1565b905084604084015282810360608401526155378185614fd1565b86815260c06020820152600061559a60c08301886142fb565b82810360408401526155ac8188614fd1565b905085606084015282810360808401526155c68186614fd1565b9150508260a0830152979650505050505050565b600084516155ec818460208901614fad565b60609490941b7fffffffffffffffffffffffffffffffffffffffff000000000000000000000000169190930190815260148101919091526034019291505056fea2646970667358221220bc4c1f1260750c0ebb88a629c225c5995255fa81157d9c723ce74b2a6f1c1d9a64736f6c63430008180033","linkReferences":{"src/libraries/LibChunks.sol":{"LibChunks":[{"start":5938,"length":20}]}}},"methodIdentifiers":{"_calculateMagicAttack()":"bfea0b85","_msgSender()":"119df25f","_msgValue()":"45ec9354","_world()":"e1af802c","checkForMatchEnd((uint8,uint256,uint256,bool,uint256,uint256,bytes32[],bytes32[]))":"889d1704","createMatch(uint8,bytes32[],bytes32[])":"aaa417b7","endMatch(bytes32,uint256,bool)":"47082155","endTurn(bytes32,bytes32,(bytes32,bytes32,bytes32,uint256)[])":"98d239b1","executeAction((bytes32,uint256,bytes32,bytes32,bool,bool,bool,int256,int256,bool,bool,uint256,uint256),uint256)":"6783d47a","getDied(bytes32)":"def4c3ff","getEncounter(bytes32)":"4dda27e8","isParticipant(address,bytes32[])":"b2467894","isParticipant(bytes32,bytes32)":"c6ca743c","supportsInterface(bytes4)":"01ffc9a7"},"id":220}