{"abi":[{"type":"function","name":"_calculateMagicAttack","inputs":[],"outputs":[],"stateMutability":"nonpayable"},{"type":"function","name":"_msgSender","inputs":[],"outputs":[{"name":"sender","type":"address","internalType":"address"}],"stateMutability":"view"},{"type":"function","name":"_msgValue","inputs":[],"outputs":[{"name":"value","type":"uint256","internalType":"uint256"}],"stateMutability":"pure"},{"type":"function","name":"_world","inputs":[],"outputs":[{"name":"","type":"address","internalType":"address"}],"stateMutability":"view"},{"type":"function","name":"checkForMatchEnd","inputs":[{"name":"encounterData","type":"tuple","internalType":"struct CombatEncounterData","components":[{"name":"encounterType","type":"uint8","internalType":"enum EncounterType"},{"name":"start","type":"uint256","internalType":"uint256"},{"name":"end","type":"uint256","internalType":"uint256"},{"name":"rewardsDistributed","type":"bool","internalType":"bool"},{"name":"currentTurn","type":"uint256","internalType":"uint256"},{"name":"maxTurns","type":"uint256","internalType":"uint256"},{"name":"defenders","type":"bytes32[]","internalType":"bytes32[]"},{"name":"attackers","type":"bytes32[]","internalType":"bytes32[]"}]}],"outputs":[{"name":"_matchEnded","type":"bool","internalType":"bool"},{"name":"_attackersWin","type":"bool","internalType":"bool"}],"stateMutability":"view"},{"type":"function","name":"createMatch","inputs":[{"name":"encounterType","type":"uint8","internalType":"enum EncounterType"},{"name":"attackers","type":"bytes32[]","internalType":"bytes32[]"},{"name":"defenders","type":"bytes32[]","internalType":"bytes32[]"}],"outputs":[{"name":"encounterId","type":"bytes32","internalType":"bytes32"}],"stateMutability":"nonpayable"},{"type":"function","name":"endMatch","inputs":[{"name":"encounterId","type":"bytes32","internalType":"bytes32"},{"name":"randomNumber","type":"uint256","internalType":"uint256"},{"name":"attackersWin","type":"bool","internalType":"bool"}],"outputs":[],"stateMutability":"nonpayable"},{"type":"function","name":"endTurn","inputs":[{"name":"encounterId","type":"bytes32","internalType":"bytes32"},{"name":"playerId","type":"bytes32","internalType":"bytes32"},{"name":"actions","type":"tuple[]","internalType":"struct Action[]","components":[{"name":"attackerEntityId","type":"bytes32","internalType":"bytes32"},{"name":"defenderEntityId","type":"bytes32","internalType":"bytes32"},{"name":"actionId","type":"bytes32","internalType":"bytes32"},{"name":"weaponId","type":"uint256","internalType":"uint256"}]}],"outputs":[],"stateMutability":"payable"},{"type":"function","name":"executeAction","inputs":[{"name":"actionOutcomeData","type":"tuple","internalType":"struct ActionOutcomeData","components":[{"name":"actionId","type":"bytes32","internalType":"bytes32"},{"name":"weaponId","type":"uint256","internalType":"uint256"},{"name":"attackerId","type":"bytes32","internalType":"bytes32"},{"name":"defenderId","type":"bytes32","internalType":"bytes32"},{"name":"hit","type":"bool","internalType":"bool"},{"name":"miss","type":"bool","internalType":"bool"},{"name":"crit","type":"bool","internalType":"bool"},{"name":"attackerDamageDelt","type":"int256","internalType":"int256"},{"name":"defenderDamageDelt","type":"int256","internalType":"int256"},{"name":"attackerDied","type":"bool","internalType":"bool"},{"name":"defenderDied","type":"bool","internalType":"bool"},{"name":"blockNumber","type":"uint256","internalType":"uint256"},{"name":"timestamp","type":"uint256","internalType":"uint256"}]},{"name":"randomNumber","type":"uint256","internalType":"uint256"}],"outputs":[{"name":"","type":"tuple","internalType":"struct ActionOutcomeData","components":[{"name":"actionId","type":"bytes32","internalType":"bytes32"},{"name":"weaponId","type":"uint256","internalType":"uint256"},{"name":"attackerId","type":"bytes32","internalType":"bytes32"},{"name":"defenderId","type":"bytes32","internalType":"bytes32"},{"name":"hit","type":"bool","internalType":"bool"},{"name":"miss","type":"bool","internalType":"bool"},{"name":"crit","type":"bool","internalType":"bool"},{"name":"attackerDamageDelt","type":"int256","internalType":"int256"},{"name":"defenderDamageDelt","type":"int256","internalType":"int256"},{"name":"attackerDied","type":"bool","internalType":"bool"},{"name":"defenderDied","type":"bool","internalType":"bool"},{"name":"blockNumber","type":"uint256","internalType":"uint256"},{"name":"timestamp","type":"uint256","internalType":"uint256"}]}],"stateMutability":"nonpayable"},{"type":"function","name":"getDied","inputs":[{"name":"entityId","type":"bytes32","internalType":"bytes32"}],"outputs":[{"name":"isDied","type":"bool","internalType":"bool"}],"stateMutability":"view"},{"type":"function","name":"getEncounter","inputs":[{"name":"encounterId","type":"bytes32","internalType":"bytes32"}],"outputs":[{"name":"","type":"tuple","internalType":"struct CombatEncounterData","components":[{"name":"encounterType","type":"uint8","internalType":"enum EncounterType"},{"name":"start","type":"uint256","internalType":"uint256"},{"name":"end","type":"uint256","internalType":"uint256"},{"name":"rewardsDistributed","type":"bool","internalType":"bool"},{"name":"currentTurn","type":"uint256","internalType":"uint256"},{"name":"maxTurns","type":"uint256","internalType":"uint256"},{"name":"defenders","type":"bytes32[]","internalType":"bytes32[]"},{"name":"attackers","type":"bytes32[]","internalType":"bytes32[]"}]}],"stateMutability":"view"},{"type":"function","name":"isParticipant","inputs":[{"name":"account","type":"address","internalType":"address"},{"name":"participants","type":"bytes32[]","internalType":"bytes32[]"}],"outputs":[{"name":"_isParticipant","type":"bool","internalType":"bool"}],"stateMutability":"view"},{"type":"function","name":"isParticipant","inputs":[{"name":"playerId","type":"bytes32","internalType":"bytes32"},{"name":"encounterId","type":"bytes32","internalType":"bytes32"}],"outputs":[{"name":"_isParticipant","type":"bool","internalType":"bool"}],"stateMutability":"view"},{"type":"function","name":"supportsInterface","inputs":[{"name":"interfaceId","type":"bytes4","internalType":"bytes4"}],"outputs":[{"name":"","type":"bool","internalType":"bool"}],"stateMutability":"pure"},{"type":"event","name":"Store_SetRecord","inputs":[{"name":"tableId","type":"bytes32","indexed":true,"internalType":"ResourceId"},{"name":"keyTuple","type":"bytes32[]","indexed":false,"internalType":"bytes32[]"},{"name":"staticData","type":"bytes","indexed":false,"internalType":"bytes"},{"name":"encodedLengths","type":"bytes32","indexed":false,"internalType":"EncodedLengths"},{"name":"dynamicData","type":"bytes","indexed":false,"internalType":"bytes"}],"anonymous":false},{"type":"event","name":"Store_SpliceStaticData","inputs":[{"name":"tableId","type":"bytes32","indexed":true,"internalType":"ResourceId"},{"name":"keyTuple","type":"bytes32[]","indexed":false,"internalType":"bytes32[]"},{"name":"start","type":"uint48","indexed":false,"internalType":"uint48"},{"name":"data","type":"bytes","indexed":false,"internalType":"bytes"}],"anonymous":false},{"type":"error","name":"Slice_OutOfBounds","inputs":[{"name":"data","type":"bytes","internalType":"bytes"},{"name":"start","type":"uint256","internalType":"uint256"},{"name":"end","type":"uint256","internalType":"uint256"}]},{"type":"error","name":"World_AccessDenied","inputs":[{"name":"resource","type":"string","internalType":"string"},{"name":"caller","type":"address","internalType":"address"}]},{"type":"error","name":"World_FunctionSelectorNotFound","inputs":[{"name":"functionSelector","type":"bytes4","internalType":"bytes4"}]},{"type":"error","name":"World_ResourceNotFound","inputs":[{"name":"resourceId","type":"bytes32","internalType":"ResourceId"},{"name":"resourceIdString","type":"string","internalType":"string"}]}],"bytecode":{"object":"0x608060405234801561001057600080fd5b50615b4680620000216000396000f3fe6080604052600436106100dd5760003560e01c806398d239b11161007f578063bfea0b8511610059578063bfea0b851461026c578063c6ca743c14610278578063def4c3ff14610298578063e1af802c146102b857600080fd5b806398d239b114610219578063aaa417b71461022c578063b24678941461024c57600080fd5b806347082155116100bb57806347082155146101665780634dda27e8146101885780636783d47a146101b5578063889d1704146101e257600080fd5b806301ffc9a7146100e2578063119df25f1461011757806345ec935414610144575b600080fd5b3480156100ee57600080fd5b506101026100fd366004614708565b6102cd565b60405190151581526020015b60405180910390f35b34801561012357600080fd5b5061012c610366565b6040516001600160a01b03909116815260200161010e565b34801561015057600080fd5b5036601f1901355b60405190815260200161010e565b34801561017257600080fd5b50610186610181366004614763565b610375565b005b34801561019457600080fd5b506101a86101a336600461479c565b610823565b60405161010e919061481b565b3480156101c157600080fd5b506101d56101d0366004614976565b610877565b60405161010e9190614a55565b3480156101ee57600080fd5b506102026101fd366004614baa565b610ace565b60408051921515835290151560208301520161010e565b610186610227366004614c86565b610ba7565b34801561023857600080fd5b50610158610247366004614d65565b610e61565b34801561025857600080fd5b50610102610267366004614dee565b611354565b34801561018657600080fd5b34801561028457600080fd5b50610102610293366004614e3e565b61142a565b3480156102a457600080fd5b506101026102b336600461479c565b6114e4565b3480156102c457600080fd5b5061012c6114ef565b60007fffffffff0000000000000000000000000000000000000000000000000000000082167fb5dee12700000000000000000000000000000000000000000000000000000000148061036057507fffffffff0000000000000000000000000000000000000000000000000000000082167f01ffc9a700000000000000000000000000000000000000000000000000000000145b92915050565b60006103706114f9565b905090565b61038630610381610366565b61152b565b600061039184611541565b905061039c84611636565b156103ee5760405162461bcd60e51b815260206004820152601260248201527f6d6174636820616c7265616479206f766572000000000000000000000000000060448201526064015b60405180910390fd5b46617a690361040c5761040184436116d0565b43604082015261041d565b61041684426116d0565b4260408201525b6000805b8260c001515181101561046e578260c00151818151811061044457610444614e60565b6020026020010151915061045782611789565b61046657610466826000611827565b600101610421565b506000806060600160ff168560000151600181111561048f5761048f6147b5565b60ff16036105385761049f6114ef565b6040517f49572ff1000000000000000000000000000000000000000000000000000000008152600481018a9052602481018990526001600160a01b0391909116906349572ff1906044016000604051808303816000875af1158015610508573d6000803e3d6000fd5b505050506040513d6000823e601f3d908101601f191682016040526105309190810190614e76565b919450925090505b6040805160a0810182524281528715156020820152908101849052606081018390526080810182905260005b8660e00151518110156106bf5761059b8760e00151828151811061058a5761058a614e60565b60200260200101516000801b611827565b6105a36114ef565b6001600160a01b031663fa1becc48860e0015183815181106105c7576105c7614e60565b60200260200101516040518263ffffffff1660e01b81526004016105ed91815260200190565b602060405180830381865afa15801561060a573d6000803e3d6000fd5b505050506040513d601f19601f8201168201806040525081019061062e9190614f1c565b6106b75761063a6114ef565b6001600160a01b031663f547ccbd8860e00151838151811061065e5761065e614e60565b60200260200101516040518263ffffffff1660e01b815260040161068491815260200190565b600060405180830381600087803b15801561069e57600080fd5b505af11580156106b2573d6000803e3d6000fd5b505050505b600101610564565b5060005b8660c001515181101561080d576106e98760c00151828151811061058a5761058a614e60565b6106f16114ef565b6001600160a01b031663fa1becc48860c00151838151811061071557610715614e60565b60200260200101516040518263ffffffff1660e01b815260040161073b91815260200190565b602060405180830381865afa158015610758573d6000803e3d6000fd5b505050506040513d601f19601f8201168201806040525081019061077c9190614f1c565b610805576107886114ef565b6001600160a01b031663f547ccbd8860c0015183815181106107ac576107ac614e60565b60200260200101516040518263ffffffff1660e01b81526004016107d291815260200190565b600060405180830381600087803b1580156107ec57600080fd5b505af1158015610800573d6000803e3d6000fd5b505050505b6001016106c3565b5061081889826118db565b505050505050505050565b61086e60408051610100810190915280600081526020016000815260200160008152602001600015158152602001600081526020016000815260200160608152602001606081525090565b61036082611541565b604080516101a081018252600080825260208201819052918101829052606081018290526080810182905260a0810182905260c0810182905260e0810182905261010081018290526101208101829052610140810182905261016081018290526101808101919091526108ec30610381610366565b6108f983604001516114e4565b158015610910575061090e83606001516114e4565b155b15610ac75760006109248460000151611995565b905080602001515160000361097b5760405162461bcd60e51b815260206004820152601560248201527f616374696f6e20646f6573206e6f74206578697374000000000000000000000060448201526064016103e5565b8051600381111561098e5761098e6147b5565b60ff16600103610a4957600081602001518060200190518101906109b29190614fa8565b90506109cd8186604001518760600151886020015188611a4a565b151560c0880152158015608088015260e0870191909152610a3b576000620186a08660e001516109fd919061506c565b610a0a8760600151611e87565b610a1491906150b6565b905060008113610a275760016101408701525b610a35866060015182611f19565b50610a43565b600160a08601525b50610a91565b60405162461bcd60e51b815260206004820152601a60248201527f616374696f6e2074797065206e6f74207265636f676e697a656400000000000060448201526064016103e5565b83610140015115610aab57610aab84606001516001611fcd565b83610120015115610ac557610ac584604001516001611fcd565b505b5090919050565b60008060008060005b8560c0015151811015610b2557610b0a8660c001518281518110610afd57610afd614e60565b60200260200101516114e4565b15610b1d5782610b19816150d6565b9350505b600101610ad7565b5060005b8560e0015151811015610b6a57610b4f8660e001518281518110610afd57610afd614e60565b15610b625781610b5e816150d6565b9250505b600101610b29565b508460e0015151811480610b8257508460c001515182145b80610b9457508460a001518560800151145b93508460c0015151821492505050915091565b6000610bb284611541565b90508060200151600014158015610bcb57506040810151155b610c175760405162461bcd60e51b815260206004820181905260248201527f434f4d4241542053595354454d3a20494e56414c494420454e434f554e54455260448201526064016103e5565b8060a00151816080015110610c6e5760405162461bcd60e51b815260206004820181905260248201527f434f4d4241542053595354454d3a204558504952454420454e434f554e54455260448201526064016103e5565b6000610c786114ef565b6001600160a01b0316634f10aabc856040518263ffffffff1660e01b8152600401610ca591815260200190565b602060405180830381865afa158015610cc2573d6000803e3d6000fd5b505050506040513d601f19601f82011682018060405250810190610ce691906150f0565b82519091506001811115610cfc57610cfc6147b5565b60ff16600003610dd75760028260800151610d17919061510d565b600003610d7d57610d2c818360c00151611354565b610d785760405162461bcd60e51b815260206004820152601960248201527f43616e6e6f7420656e642061747461636b657273207475726e0000000000000060448201526064016103e5565b610e50565b610d8b818360e00151611354565b610d785760405162461bcd60e51b815260206004820152601960248201527f43616e6e6f7420656e6420646566656e64657273207475726e0000000000000060448201526064016103e5565b610ddf610366565b6001600160a01b0316816001600160a01b0316148015610e045750610e04848661142a565b610e505760405162461bcd60e51b815260206004820152601c60248201527f434f4d4241542053595354454d3a204e4f4e2d434f4d424154414e540000000060448201526064016103e5565b610e5a8584612051565b5050505050565b6000610e74610e6e610366565b84611354565b610ec05760405162461bcd60e51b815260206004820152601d60248201527f434f4d4241542053595354454d3a20494e56414c49442053454e44455200000060448201526064016103e5565b600080610ee685600081518110610ed957610ed9614e60565b60200260200101516120e6565b91509150856001811115610efc57610efc6147b5565b60010361105c57610f0b6114ef565b6001600160a01b031663c6d5525b868685856040518563ffffffff1660e01b8152600401610f3c9493929190615121565b602060405180830381865afa158015610f59573d6000803e3d6000fd5b505050506040513d601f19601f82011682018060405250810190610f7d9190614f1c565b610fc95760405162461bcd60e51b815260206004820152601a60248201527f434f4d4241542053595354454d3a20494e56414c49442050564500000000000060448201526064016103e5565b6040514290610fe2908890889088908590602001615166565b604051602081830303815290604052805190602001209350600060405180610100016040528089600181111561101a5761101a6147b5565b81526020018381526020016000815260200160001515815260200160018152602001600f81526020018781526020018881525090506110598582612197565b50505b85600181111561106e5761106e6147b5565b60ff166000036111d1576110806114ef565b6001600160a01b0316632933423f868685856040518563ffffffff1660e01b81526004016110b19493929190615121565b602060405180830381865afa1580156110ce573d6000803e3d6000fd5b505050506040513d601f19601f820116820180604052508101906110f29190614f1c565b61113e5760405162461bcd60e51b815260206004820152601a60248201527f434f4d4241542053595354454d3a20494e56414c49442050565000000000000060448201526064016103e5565b6040514290611157908890889088908590602001615166565b604051602081830303815290604052805190602001209350600060405180610100016040528089600181111561118f5761118f6147b5565b81526020018381526020016000815260200160001515815260200160018152602001600f81526020018781526020018881525090506111ce8582612197565b50505b604080518082019091526000808252602082015260005b85518110156112a45761121386828151811061120657611206614e60565b602002602001015161225d565b805190925015801561122757508160200151155b6112735760405162461bcd60e51b815260206004820152601d60248201527f434f4d4241542053595354454d3a20494e56414c494420454e5449545900000060448201526064016103e5565b848252855161129c9087908390811061128e5761128e614e60565b602002602001015183612314565b6001016111e8565b5060005b8651811015611349576112c687828151811061120657611206614e60565b80519092501580156112da57508160200151155b6113265760405162461bcd60e51b815260206004820152601d60248201527f434f4d4241542053595354454d3a20494e56414c494420454e5449545900000060448201526064016103e5565b84825286516113419088908390811061128e5761128e614e60565b6001016112a8565b505050509392505050565b6000805b8251811015611423576113696114ef565b6001600160a01b0316634f10aabc84838151811061138957611389614e60565b60200260200101516040518263ffffffff1660e01b81526004016113af91815260200190565b602060405180830381865afa1580156113cc573d6000803e3d6000fd5b505050506040513d601f19601f820116820180604052508101906113f091906150f0565b6001600160a01b0316846001600160a01b0316036114115760019150611423565b8061141b816150d6565b915050611358565b5092915050565b60008061143683611541565b905060005b8160e0015151811015611487578160e00151818151811061145e5761145e614e60565b602002602001015185036114755760019250611487565b8061147f816150d6565b91505061143b565b50816114235760005b8160c00151518110156114dc578160c0015181815181106114b3576114b3614e60565b602002602001015185036114ca57600192506114dc565b806114d4816150d6565b915050611490565b505092915050565b600061036082611789565b600061037061239f565b7fffffffffffffffffffffffffffffffffffffffffffffffffffffffffffffffcc36013560601c806115285750335b90565b61153d611537836123a9565b82612446565b5050565b61158c60408051610100810190915280600081526020016000815260200160008152602001600015158152602001600081526020016000815260200160608152602001606081525090565b6040805160018082528183019092526000916020808301908036833701905050905082816000815181106115c2576115c2614e60565b60209081029190910101526000808061161b7f74625544000000000000000000000000436f6d626174456e636f756e74657200857e82060201202001202000000000000000000000000000000000000000000000612492565b92509250925061162c838383612562565b9695505050505050565b60408051600180825281830190925260009182919060208083019080368337019050509050828160008151811061166f5761166f614e60565b602090810291909101015260006116c87f74625544000000000000000000000000436f6d626174456e636f756e746572008360027e82060201202001202000000000000000000000000000000000000000000000612622565b949350505050565b60408051600180825281830190925260009160208083019080368337019050509050828160008151811061170657611706614e60565b6020026020010181815250506117847f74625544000000000000000000000000436f6d626174456e636f756e7465720060001b8260028560405160200161174f91815260200190565b60408051601f198184030181529190527e820602012020012020000000000000000000000000000000000000000000006126df565b505050565b6040805160018082528183019092526000918291906020808301908036833701905050905082816000815181106117c2576117c2614e60565b6020908102919091010152600061181b7f746255440000000000000000000000004d61746368456e7469747900000000008360017e21020020010000000000000000000000000000000000000000000000000000612622565b90506116c88160f81c90565b60408051600180825281830190925260009160208083019080368337019050509050828160008151811061185d5761185d614e60565b6020026020010181815250506117847f746255440000000000000000000000004d61746368456e74697479000000000060001b826000856040516020016118a691815260200190565b60408051601f198184030181529190527e210200200100000000000000000000000000000000000000000000000000006126df565b60006118f98260000151836020015184604001518560600151612794565b9050600061190a83608001516127df565b9050600061191b84608001516127f2565b6040805160018082528183019092529192506000919060208083019080368337019050509050858160008151811061195557611955614e60565b602090810291909101015261198d7f6f745544000000000000000000000000436f6d6261744f7574636f6d6500000082868686612823565b505050505050565b6040805180820190915260008152606060208201526040805160018082528183019092526000916020808301908036833701905050905082816000815181106119e0576119e0614e60565b602090810291909101015260008080611a397f74625544000000000000000000000000416374696f6e73000000000000000000857e01010101000000000000000000000000000000000000000000000000000000612492565b92509250925061162c838383612899565b600080600080611a586114ef565b6001600160a01b03166354f1f2db896040518263ffffffff1660e01b8152600401611a8591815260200190565b60e060405180830381865afa158015611aa2573d6000803e3d6000fd5b505050506040513d601f19601f82011682018060405250810190611ac691906151aa565b90506000611ad26114ef565b6001600160a01b03166354f1f2db896040518263ffffffff1660e01b8152600401611aff91815260200190565b60e060405180830381865afa158015611b1c573d6000803e3d6000fd5b505050506040513d601f19601f82011682018060405250810190611b4091906151aa565b90506000611b4c6114ef565b6001600160a01b031663810c1dc1896040518263ffffffff1660e01b8152600401611b7991815260200190565b600060405180830381865afa158015611b96573d6000803e3d6000fd5b505050506040513d6000823e601f3d908101601f19168201604052611bbe919081019061522e565b905060008260a001511315611e6c576040517f4dddf8370000000000000000000000000000000000000000000000000000000081526004810188905260009073__$227e4555c1f608352b26068e438454dd8b$__90634dddf83790602401600060405180830381865af4158015611c39573d6000803e3d6000fd5b505050506040513d6000823e601f3d908101601f19168201604052611c6191908101906152e5565b9050611cb881600081518110611c7957611c79614e60565b602002602001015167ffffffffffffffff1682600181518110611c9e57611c9e614e60565b602002602001015167ffffffffffffffff168e87876128f6565b90965094508515611e1f57620186a060008d600001518560600151611cdd91906150b6565b13611ce9576001611cfa565b8c516060850151611cfa91906150b6565b611d04919061538a565b8451620186a090611d17906002906153a1565b8460a00151856080015185600281518110611d3457611d34614e60565b602002602001015167ffffffffffffffff16611d50919061510d565b1115611d8f57846080015184600281518110611d6e57611d6e614e60565b602002602001015167ffffffffffffffff16611d8a919061510d565b611d95565b8460a001515b8f60400151611da491906153b5565b611dae91906153b5565b611db891906153d5565b611dc291906150b6565b96508415611e1a57611e086040518060400160405280600581526020017f4352495421000000000000000000000000000000000000000000000000000000815250612987565b611e136002886153d5565b9650600194505b611e66565b611e5d6040518060400160405280600581526020017f4d49535321000000000000000000000000000000000000000000000000000000815250612987565b60009650600095505b50611e79565b6000955060009450600093505b505050955095509592505050565b604080516001808252818301909252600091829190602080830190803683370190505090508281600081518110611ec057611ec0614e60565b602090810291909101015260006116c87f74625544000000000000000000000000537461747300000000000000000000008360057ee1080020200120202020200000000000000000000000000000000000000000612622565b604080516001808252818301909252600091602080830190803683370190505090508281600081518110611f4f57611f4f614e60565b6020026020010181815250506117847f746255440000000000000000000000005374617473000000000000000000000060001b82600585604051602001611f9891815260200190565b60408051601f198184030181529190527ee10800202001202020202000000000000000000000000000000000000000006126df565b60408051600180825281830190925260009160208083019080368337019050509050828160008151811061200357612003614e60565b6020026020010181815250506117847f746255440000000000000000000000004d61746368456e74697479000000000060001b826001856040516020016118a691151560f81b815260010190565b611784826001848460405160200161206a929190615421565b60408051601f19818403018152908290526120899392916024016154e1565b60408051601f198184030181529190526020810180517bffffffffffffffffffffffffffffffffffffffffffffffffffffffff167fb2aa60a4000000000000000000000000000000000000000000000000000000001790526129fb565b6040805160018082528183019092526000918291829160208083019080368337019050509050838160008151811061212057612120614e60565b6020908102919091010152600080806121797f74625544000000000000000000000000506f736974696f6e0000000000000000857e04020002020000000000000000000000000000000000000000000000000000612492565b92509250925061218a838383612aa9565b9550955050505050915091565b60006121bf826000015183602001518460400151856060015186608001518760a00151612acc565b905060006121d58360c001518460e00151612b04565b905060006121eb8460c001518560e00151612b2f565b6040805160018082528183019092529192506000919060208083019080368337019050509050858160008151811061222557612225614e60565b602090810291909101015261198d7f74625544000000000000000000000000436f6d626174456e636f756e7465720082868686612823565b60408051808201825260008082526020820181905282516001808252818501909452919290919081602001602082028036833701905050905082816000815181106122aa576122aa614e60565b6020908102919091010152600080806123037f746255440000000000000000000000004d61746368456e746974790000000000857e21020020010000000000000000000000000000000000000000000000000000612492565b92509250925061162c838383612b6b565b600061232882600001518360200151612b98565b60408051600180825281830190925291925060009160609183919060208083019080368337019050509050858160008151811061236757612367614e60565b602090810291909101015261198d7f746255440000000000000000000000004d61746368456e74697479000000000082868686612823565b6000610370612bbb565b60408051600180825281830190925260009182919060208083019080368337019050509050826001600160a01b031660001b816000815181106123ee576123ee614e60565b602090810291909101015260006116c87f7462776f726c6400000000000000000053797374656d5265676973747279000083837e20010020000000000000000000000000000000000000000000000000000000612622565b6124508282612bfa565b61153d5761245d82612c58565b816040517fd787b7370000000000000000000000000000000000000000000000000000000081526004016103e5929190615510565b60606000606060006124a2612bbb565b9050306001600160a01b038216036124cb576124bf878787612d95565b93509350935050612559565b6040517f419b58fd0000000000000000000000000000000000000000000000000000000081526001600160a01b0382169063419b58fd90612514908a908a908a9060040161553b565b600060405180830381865afa158015612531573d6000803e3d6000fd5b505050506040513d6000823e601f3d908101601f191682016040526124bf91908101906155c8565b93509350939050565b6125ad60408051610100810190915280600081526020016000815260200160008152602001600015158152602001600081526020016000815260200160608152602001606081525090565b6125b684612e9d565b60a087018190526080870182905282151560608801526040870184905260208701859052868660018111156125ed576125ed6147b5565b60018111156125fe576125fe6147b5565b8152505050505050506126118383612f05565b60e083015260c08201529392505050565b60008061262d612bbb565b9050306001600160a01b038216036126535761264b86868686612f54565b9150506116c8565b6040517f8c364d590000000000000000000000000000000000000000000000000000000081526001600160a01b03821690638c364d599061269e90899089908990899060040161562b565b602060405180830381865afa1580156126bb573d6000803e3d6000fd5b505050506040513d601f19601f8201168201806040525081019061264b919061565a565b60006126e9612bbb565b9050306001600160a01b0382160361270d576127088686868686612f8a565b61198d565b6040517f390baae00000000000000000000000000000000000000000000000000000000081526001600160a01b0382169063390baae09061275a9089908990899089908990600401615673565b600060405180830381600087803b15801561277457600080fd5b505af1158015612788573d6000803e3d6000fd5b50505050505050505050565b6060848484846040516020016127c6949392919093845291151560f81b60208401526021830152604182015260610190565b6040516020818303038152906040529050949350505050565b60006103608251602002603881901b1790565b60606127fd82612f9f565b60405160200161280d91906156ba565b6040516020818303038152906040529050919050565b600061282d612bbb565b9050306001600160a01b0382160361284c576127088686868686612faf565b6040517f298314fb0000000000000000000000000000000000000000000000000000000081526001600160a01b0382169063298314fb9061275a90899089908990899089906004016156d6565b6040805180820190915260008152606060208201526128b784612fc5565b819060038111156128ca576128ca6147b5565b908160038111156128dd576128dd6147b5565b9052506128ea8383612fe1565b60208201529392505050565b60008080620249f061290960648a61510d565b61291b87602001518960200151613004565b612925919061571b565b61292f919061538a565b90506000620186a0856020015160648a612949919061510d565b612953919061571b565b61295d919061538a565b90508082119350831561297b57600261297682846153a1565b101592505b50509550959350505050565b6129f88160405160240161299b919061572e565b60408051601f198184030181529190526020810180517bffffffffffffffffffffffffffffffffffffffffffffffffffffffff167f41304fac00000000000000000000000000000000000000000000000000000000179052613031565b50565b6060600080612a11612a0c85615741565b61303a565b91509150816000801b03612a77576040517ffdde54e20000000000000000000000000000000000000000000000000000000081527fffffffff000000000000000000000000000000000000000000000000000000006000351660048201526024016103e5565b6020840180517bffffffffffffffffffffffffffffffffffffffffffffffffffffffff16821790526116c882856130fd565b60208301516022840151600091829160f091821c911c5b90969095509350505050565b6060868686868686604051602001612ae99695949392919061578d565b60405160208183030381529060405290509695505050505050565b6000612b2883516020028351602002606081901b603883901b838301171792915050565b9392505050565b6060612b3a83612f9f565b612b4383612f9f565b604051602001612b549291906157d9565b604051602081830303815290604052905092915050565b6040805180820190915260008082526020820152612b88846131d8565b1515602083015281529392505050565b60608282604051602001612b54929190918252151560f81b602082015260210190565b7f629a4c26e296b22a8e0856e9f6ecb2d1008d7e00081111962cd175fa7488e175546000906001600160a01b031680612bf5573391505090565b919050565b6000612c487f6e730000000000000000000000000000000000000000000000000000000000007dffffffffffffffffffffffffffff00000000000000000000000000000000851617836131f5565b80612b285750612b2883836131f5565b606081601081901b6000612c6b836132be565b9050827fffffffffffffffffffffffffffff000000000000000000000000000000000000831615612cc657612cc17fffffffffffffffffffffffffffff00000000000000000000000000000000000084166132d5565b612cfd565b6040518060400160405280600681526020017f3c726f6f743e00000000000000000000000000000000000000000000000000008152505b7fffffffffffffffffffffffffffffffff00000000000000000000000000000000831615612d3357612d2e836132d5565b612d6a565b6040518060400160405280600681526020017f3c726f6f743e00000000000000000000000000000000000000000000000000008152505b604051602001612d7c93929190615808565b6040516020818303038152906040529350505050919050565b6060600060606000612da685613379565b9050612db387878361339c565b93506000612dc0866133d5565b90508015612e9257612dd28888613412565b935066ffffffffffffff841667ffffffffffffffff811115612df657612df661489b565b6040519080825280601f01601f191660200182016040528015612e20576020820181803683370190505b5092506020830160005b828160ff161015612e8f576000612e428b8b84613425565b90506000612e5f888460ff166028026038011c64ffffffffff1690565b9050612e6e82600083876134a5565b612e78818561571b565b935050508080612e8790615896565b915050612e2a565b50505b505093509350939050565b600080600080600080612eb4876000016020015190565b60f81c6001811115612ec857612ec86147b5565b6021880151604189015160618a01519298509096509450612eea905b60f81c90565b60628801516082909801519698959794969095909350915050565b6060806000603885901c64ffffffffff16612f29612f24868484613570565b6135fe565b935090508064ffffffffff606087901c1601612f49612f24868484613570565b925050509250929050565b6000612f81612f63868661360f565b60ff858116601b0360080285901c16612f7c8587613665565b61369e565b95945050505050565b610e5a8585612f998487613665565b856136ef565b606081612b288160206000613993565b610e5a8585858585612fc08b6139f3565b613a78565b602081015160009060f81c6003811115610360576103606147b5565b60606000603884901c64ffffffffff16612f81612fff858484613570565b613db1565b600080821261301e57613017828461571b565b9050610360565b613027826158b5565b61301790846158ed565b6129f881613e31565b6040805160018082528183019092526000918291829160208083019080368337019050509050837bffffffffffffffffffffffffffffffffffffffffffffffffffffffff19168160008151811061309357613093614e60565b6020908102919091010152600080806130ec7f7462776f726c6400000000000000000046756e6374696f6e53656c6563746f72857e24020020040000000000000000000000000000000000000000000000000000612492565b92509250925061218a838383613e52565b6060600061310961239f565b90506001600160a01b038116300361314a5760006131316131286114f9565b60008787613e5e565b93509050806131435761314383613f99565b5050610360565b6040517f3ae7af080000000000000000000000000000000000000000000000000000000081526001600160a01b03821690633ae7af08906131919087908790600401615900565b6000604051808303816000875af11580156131b0573d6000803e3d6000fd5b505050506040513d6000823e601f3d908101601f191682016040526116c89190810190615919565b602081015160408201516000906131ee90612ee4565b9050915091565b60408051600280825260608201835260009283929190602083019080368337019050509050838160008151811061322e5761322e614e60565b602002602001018181525050826001600160a01b031660001b8160018151811061325a5761325a614e60565b602090810291909101015260006132b27f7462776f726c640000000000000000005265736f75726365416363657373000083837e01010001000000000000000000000000000000000000000000000000000000612622565b9050612f818160f81c90565b60006132cc6070601061571b565b9190911b919050565b606060005b601081101561333a577fffffffffffffffffffffffffffffffff000000000000000000000000000000008316600882021b7fff00000000000000000000000000000000000000000000000000000000000000161561333a576001016132da565b604080517fffffffffffffffffffffffffffffffff000000000000000000000000000000008516602082015281516030909101909152818152806116c8565b60006008613389600260206158ed565b613393919061538a565b9190911c919050565b6060816000036133bb5750604080516020810190915260008152612b28565b60006133c7858561360f565b9050612f8181600085613fa1565b600060086001806133e8600260206158ed565b6133f291906158ed565b6133fc91906158ed565b613406919061538a565b8260ff911c1692915050565b6000612b286134218484613fc4565b5490565b6000838360405160200161343a92919061594e565b604051602081830303815290604052805190602001208260f81b7effffffffffffffffffffffffffffffffffffffffffffffffffffffffffffff19167f3b4102da22e32d82fc925482184f16c09fd4281692720b87d124aef6da48a0f1181860001c90509392505050565b821561352c57602083106134cf576020830484019350602083816134cb576134cb615040565b0692505b821561352c5760208390036000818410156134f25750600019600884021c6134fc565b50600019600882021c5b8554600886021b81845116821982161784525081841161351d57505061356a565b50600194909401939182900391015b5b6020821061354e5783548152600190930192601f199091019060200161352d565b811561356a5780518454600019600885021c9182169119161781525b50505050565b6000818311806135805750835182115b156135bd578383836040517f23230fa30000000000000000000000000000000000000000000000000000000081526004016103e59392919061598a565b602084016135cb848261571b565b905060006135d985856158ed565b6fffffffffffffffffffffffffffffffff1660809290921b9190911795945050505050565b60606000612b28836020600061401a565b6000828260405160200161362492919061594e565b60408051601f1981840301815291905280516020909101207f86425bff6b57326c7859e89024fe4f238ca327a1ae4a230180dd2f0e88aaa7d9189392505050565b600080805b8360ff168110156136965761368c60ff601b83900360080287901c168361571b565b915060010161366a565b509392505050565b6000602082106136c4576020820484019350602082816136c0576136c0615040565b0691505b508254600882021b602082900380841115613696576001850154600882021c82179150509392505050565b7f6f74000000000000000000000000000000000000000000000000000000000000847fffff000000000000000000000000000000000000000000000000000000000000160361377957837f8c0b5119d4cec7b284c6b1b39252a03d1e2f2d7451a5895562524c113bb952be84848460405161376c939291906159af565b60405180910390a261356a565b6000613785858561360f565b9050600061379286614089565b905060005b81518110156138675760008282815181106137b4576137b4614e60565b602002602001015190506137e06004826affffffffffffffffffffff191661411290919063ffffffff16565b1561385e576040517f964f667d000000000000000000000000000000000000000000000000000000008152606082901c9063964f667d9061382b908b908b908b908b906004016159e2565b600060405180830381600087803b15801561384557600080fd5b505af1158015613859573d6000803e3d6000fd5b505050505b50600101613797565b50857f8c0b5119d4cec7b284c6b1b39252a03d1e2f2d7451a5895562524c113bb952be86868660405161389c939291906159af565b60405180910390a26138b7828565ffffffffffff1685614130565b60005b815181101561398a5760008282815181106138d7576138d7614e60565b602002602001015190506139036008826affffffffffffffffffffff191661411290919063ffffffff16565b15613981576040517fa8ba8721000000000000000000000000000000000000000000000000000000008152606082901c9063a8ba87219061394e908b908b908b908b906004016159e2565b600060405180830381600087803b15801561396857600080fd5b505af115801561397c573d6000803e3d6000fd5b505050505b506001016138ba565b50505050505050565b825160609060006139a4858361538a565b9050604051925060208301601f19603f83860101166040528184526000602088015b848210156139e7578051871b835291870191600191909101906020016139c6565b50505050509392505050565b60007f8b9d8c8b908d9affffffffffffffffffab9e9d939a8d000000000000000000008201613a4257507e60030220202000000000000000000000000000000000000000000000000000919050565b610360613a6f7f746273746f72650000000000000000005461626c65730000000000000000000084614146565b6020600061369e565b7f6f74000000000000000000000000000000000000000000000000000000000000867fffff0000000000000000000000000000000000000000000000000000000000001603613b0457857f8dbb3a9672eebfd3773e72dd9c102393436816d832c7ba9e1e1ac8fcadcac7a986868686604051613af79493929190615a26565b60405180910390a261198d565b6000613b0f87614089565b905060005b8151811015613be8576000828281518110613b3157613b31614e60565b60200260200101519050613b5d6001826affffffffffffffffffffff191661411290919063ffffffff16565b15613bdf576040517f57066c9c000000000000000000000000000000000000000000000000000000008152606082901c906357066c9c90613bac908c908c908c908c908c908c90600401615a65565b600060405180830381600087803b158015613bc657600080fd5b505af1158015613bda573d6000803e3d6000fd5b505050505b50600101613b14565b50867f8dbb3a9672eebfd3773e72dd9c102393436816d832c7ba9e1e1ac8fcadcac7a987878787604051613c1f9493929190615a26565b60405180910390a26000613c33888861360f565b90506000602087019050613c4b826000895184614162565b6000613c56856133d5565b1115613cda576000613c688a8a613fc4565b878155905060208601915060008060005b613c82886133d5565b8160ff161015613cd557613c978d8d83613425565b9250613cb28a8260ff166028026038011c64ffffffffff1690565b9150613cc18360008488614162565b613ccb828661571b565b9450600101613c79565b505050505b60005b8351811015612788576000848281518110613cfa57613cfa614e60565b60200260200101519050613d266002826affffffffffffffffffffff191661411290919063ffffffff16565b15613da8576040517f5b28cdaf000000000000000000000000000000000000000000000000000000008152606082901c90635b28cdaf90613d75908e908e908e908e908e908e90600401615a65565b600060405180830381600087803b158015613d8f57600080fd5b505af1158015613da3573d6000803e3d6000fd5b505050505b50600101613cdd565b60606000613dbf8360801c90565b90506fffffffffffffffffffffffffffffffff83168067ffffffffffffffff811115613ded57613ded61489b565b6040519080825280601f01601f191660200182016040528015613e17576020820181803683370190505b50925060208301613e29838284614221565b505050919050565b80516a636f6e736f6c652e6c6f67602083016000808483855afa5050505050565b600080612ac08561426c565b60006060600080613e6e8661427e565b90925090506001600160a01b038216613ebf5785613e8b87612c58565b6040517ffbf10ce60000000000000000000000000000000000000000000000000000000081526004016103e5929190615900565b80613ece57613ece8689614322565b8615613f3a577dffffffffffffffffffffffffffff0000000000000000000000000000000086167f6e73000000000000000000000000000000000000000000000000000000000000176000613f228261432c565b9050613f3782613f328b8461571b565b6143bd565b50505b6000613f468760101b90565b7fffffffffffffffffffffffffffff0000000000000000000000000000000000001614613f7e57613f7988888488614471565b613f8a565b613f8a888884886144e9565b90999098509650505050505050565b805160208201fd5b60405160208101601f19603f8484010116604052828252613696858585846134a5565b60008282604051602001613fd992919061594e565b60408051601f1981840301815291905280516020909101207f14e2fcc58e58e68ec7edc30c8d50dccc3ce2714a623ec81f46b6a63922d76569189392505050565b606060006140288560801c90565b90506fffffffffffffffffffffffffffffffff8516600085828161404e5761404e615040565b04905060405193506020840160208202810160405281855260005b828110156139e7578451871c825293870193602090910190600101614069565b604080516001808252818301909252606091600091906020808301908036833701905050905082816000815181106140c3576140c3614e60565b602090810291909101015260006140fb7f746273746f726500000000000000000053746f7265486f6f6b73000000000000838361454a565b90506116c861410d8260008451613570565b614584565b60008160ff16826141238560581c90565b1660ff1614905092915050565b611784838383516141418560200190565b614162565b6040805160208101849052908101829052600090606001613624565b82156141dc576020831061418c5760208304840193506020838161418857614188615040565b0692505b82156141dc5760208390036000600019600885021c1990506008850281811c91508351811c90508119875416828216178755508184116141cd57505061356a565b50600194909401939182900391015b5b602082106141fe5780518455600190930192601f19909101906020016141dd565b811561356a576000600019600884021c8554835182191691161785555050505050565b5b60208110614241578251825260209283019290910190601f1901614222565b8060000361424e57505050565b6000600019600883021c905080835116811985511617835250505050565b602081015160408201516000906131ee565b604080516001808252818301909252600091829182916020808301908036833701905050905083816000815181106142b8576142b8614e60565b6020908102919091010152600080806143117f7462776f726c6400000000000000000053797374656d73000000000000000000857e15020014010000000000000000000000000000000000000000000000000000612d95565b92509250925061218a838383614595565b61245082826145a1565b60408051600180825281830190925260009182919060208083019080368337019050509050828160008151811061436557614365614e60565b602090810291909101015260006116c87f7462776f726c6400000000000000000042616c616e636573000000000000000083837e20010020000000000000000000000000000000000000000000000000000000612f54565b6040805160018082528183019092526000916020808301908036833701905050905082816000815181106143f3576143f3614e60565b6020026020010181815250506117847f7462776f726c6400000000000000000042616c616e636573000000000000000060001b8260008560405160200161443c91815260200190565b60408051601f198184030181529190527e20010020000000000000000000000000000000000000000000000000000000612f8a565b60006060836001600160a01b0316600061448c8589896145ff565b60405161449991906156ba565b60006040518083038185875af1925050503d80600081146144d6576040519150601f19603f3d011682016040523d82523d6000602084013e6144db565b606091505b509097909650945050505050565b60006060836001600160a01b03166145028488886145ff565b60405161450f91906156ba565b600060405180830381855af49150503d80600081146144d6576040519150601f19603f3d011682016040523d82523d6000602084013e6144db565b60606116c861455a858585613425565b600061457f8561456a8989613412565b9060ff166028026038011c64ffffffffff1690565b613fa1565b60606000612b28836015600061401a565b600080612ac08561462e565b60006145ef7f6e730000000000000000000000000000000000000000000000000000000000007dffffffffffffffffffffffffffff000000000000000000000000000000008516178361464b565b80612b285750612b28838361464b565b606083838360405160200161461693929190615abe565b60405160208183030381529060405290509392505050565b6020810151603482015160609190911c906000906131ee90612ee4565b60408051600280825260608201835260009283929190602083019080368337019050509050838160008151811061468457614684614e60565b602002602001018181525050826001600160a01b031660001b816001815181106146b0576146b0614e60565b602090810291909101015260006132b27f7462776f726c640000000000000000005265736f75726365416363657373000083837e01010001000000000000000000000000000000000000000000000000000000612f54565b60006020828403121561471a57600080fd5b81357fffffffff0000000000000000000000000000000000000000000000000000000081168114612b2857600080fd5b80151581146129f857600080fd5b8035612bf58161474a565b60008060006060848603121561477857600080fd5b833592506020840135915060408401356147918161474a565b809150509250925092565b6000602082840312156147ae57600080fd5b5035919050565b634e487b7160e01b600052602160045260246000fd5b600281106147db576147db6147b5565b9052565b60008151808452602080850194506020840160005b83811015614810578151875295820195908201906001016147f4565b509495945050505050565b6020815261482d6020820183516147cb565b6020820151604082015260408201516060820152606082015115156080820152608082015160a082015260a082015160c0820152600060c08301516101008060e085015261487f6101208501836147df565b915060e0850151601f19858403018286015261162c83826147df565b634e487b7160e01b600052604160045260246000fd5b6040516101a0810167ffffffffffffffff811182821017156148d5576148d561489b565b60405290565b604051610100810167ffffffffffffffff811182821017156148d5576148d561489b565b6040516080810167ffffffffffffffff811182821017156148d5576148d561489b565b60405160a0810167ffffffffffffffff811182821017156148d5576148d561489b565b604051601f8201601f1916810167ffffffffffffffff8111828210171561496e5761496e61489b565b604052919050565b6000808284036101c081121561498b57600080fd5b6101a08082121561499b57600080fd5b6149a36148b1565b9150843582526020850135602083015260408501356040830152606085013560608301526149d360808601614758565b60808301526149e460a08601614758565b60a08301526149f560c08601614758565b60c083015260e085013560e0830152610100808601358184015250610120614a1e818701614758565b90830152610140614a30868201614758565b9083015261016085810135908301526101808086013590830152909593013593505050565b60006101a082019050825182526020830151602083015260408301516040830152606083015160608301526080830151614a93608084018215159052565b5060a0830151614aa760a084018215159052565b5060c0830151614abb60c084018215159052565b5060e0838101519083015261010080840151908301526101208084015115159083015261014080840151151590830152610160808401519083015261018092830151929091019190915290565b803560028110612bf557600080fd5b600067ffffffffffffffff821115614b3157614b3161489b565b5060051b60200190565b600082601f830112614b4c57600080fd5b81356020614b61614b5c83614b17565b614945565b8083825260208201915060208460051b870101935086841115614b8357600080fd5b602086015b84811015614b9f5780358352918301918301614b88565b509695505050505050565b600060208284031215614bbc57600080fd5b813567ffffffffffffffff80821115614bd457600080fd5b908301906101008286031215614be957600080fd5b614bf16148db565b614bfa83614b08565b81526020830135602082015260408301356040820152614c1c60608401614758565b60608201526080830135608082015260a083013560a082015260c083013582811115614c4757600080fd5b614c5387828601614b3b565b60c08301525060e083013582811115614c6b57600080fd5b614c7787828601614b3b565b60e08301525095945050505050565b60008060006060808587031215614c9c57600080fd5b84359350602080860135935060408087013567ffffffffffffffff811115614cc357600080fd5b8701601f81018913614cd457600080fd5b8035614ce2614b5c82614b17565b81815260079190911b8201840190848101908b831115614d0157600080fd5b928501925b82841015614d54576080848d031215614d1f5760008081fd5b614d276148ff565b84358152868501358782015285850135868201528785013588820152825260809093019290850190614d06565b809750505050505050509250925092565b600080600060608486031215614d7a57600080fd5b614d8384614b08565b9250602084013567ffffffffffffffff80821115614da057600080fd5b614dac87838801614b3b565b93506040860135915080821115614dc257600080fd5b50614dcf86828701614b3b565b9150509250925092565b6001600160a01b03811681146129f857600080fd5b60008060408385031215614e0157600080fd5b8235614e0c81614dd9565b9150602083013567ffffffffffffffff811115614e2857600080fd5b614e3485828601614b3b565b9150509250929050565b60008060408385031215614e5157600080fd5b50508035926020909101359150565b634e487b7160e01b600052603260045260246000fd5b600080600060608486031215614e8b57600080fd5b835192506020808501519250604085015167ffffffffffffffff811115614eb157600080fd5b8501601f81018713614ec257600080fd5b8051614ed0614b5c82614b17565b81815260059190911b82018301908381019089831115614eef57600080fd5b928401925b82841015614f0d57835182529284019290840190614ef4565b80955050505050509250925092565b600060208284031215614f2e57600080fd5b8151612b288161474a565b600082601f830112614f4a57600080fd5b81516020614f5a614b5c83614b17565b8083825260208201915060208460051b870101935086841115614f7c57600080fd5b602086015b84811015614b9f57805160ff81168114614f9b5760008081fd5b8352918301918301614f81565b600060208284031215614fba57600080fd5b815167ffffffffffffffff80821115614fd257600080fd5b9083019060a08286031215614fe657600080fd5b614fee614922565b82518152602083015160208201526040830151604082015260608301518281111561501857600080fd5b61502487828601614f39565b6060830152506080830151608082015280935050505092915050565b634e487b7160e01b600052601260045260246000fd5b634e487b7160e01b600052601160045260246000fd5b60008261507b5761507b615040565b60001983147f8000000000000000000000000000000000000000000000000000000000000000831416156150b1576150b1615056565b500590565b818103600083128015838313168383128216171561142357611423615056565b600060001982036150e9576150e9615056565b5060010190565b60006020828403121561510257600080fd5b8151612b2881614dd9565b60008261511c5761511c615040565b500690565b60808152600061513460808301876147df565b828103602084015261514681876147df565b91505061ffff808516604084015280841660608401525095945050505050565b61517081866147cb565b60806020820152600061518660808301866147df565b828103604084015261519881866147df565b91505082606083015295945050505050565b600060e082840312156151bc57600080fd5b60405160e0810181811067ffffffffffffffff821117156151df576151df61489b565b8060405250825181526020830151602082015260408301516040820152606083015160608201526080830151608082015260a083015160a082015260c083015160c08201528091505092915050565b60006020828403121561524057600080fd5b815167ffffffffffffffff8082111561525857600080fd5b90830190610100828603121561526d57600080fd5b6152756148db565b8251815260208301518281111561528b57600080fd5b61529787828601614f39565b60208301525060408301516040820152606083015160608201526080830151608082015260a083015160a082015260c083015160c082015260e083015160e082015280935050505092915050565b600060208083850312156152f857600080fd5b825167ffffffffffffffff8082111561531057600080fd5b818501915085601f83011261532457600080fd5b8151615332614b5c82614b17565b81815260059190911b8301840190848101908883111561535157600080fd5b938501935b8285101561537e578451848116811461536f5760008081fd5b82529385019390850190615356565b98975050505050505050565b808202811582820484141761036057610360615056565b6000826153b0576153b0615040565b500490565b80820182811260008312801582168215821617156114dc576114dc615056565b808202600082127f80000000000000000000000000000000000000000000000000000000000000008414161561540d5761540d615056565b818105831482151761036057610360615056565b60006040808301858452602060406020860152818651808452606093506060870191506020880160005b828110156154825781518051855285810151868601528781015188860152860151868501526080909301929084019060010161544b565b50919998505050505050505050565b60005b838110156154ac578181015183820152602001615494565b50506000910152565b600081518084526154cd816020860160208601615491565b601f01601f19169290920160200192915050565b8381526000600384106154f6576154f66147b5565b83602083015260606040830152612f8160608301846154b5565b60408152600061552360408301856154b5565b90506001600160a01b03831660208301529392505050565b83815260606020820152600061555460608301856147df565b9050826040830152949350505050565b600082601f83011261557557600080fd5b815167ffffffffffffffff81111561558f5761558f61489b565b6155a26020601f19601f84011601614945565b8181528460208386010111156155b757600080fd5b6116c8826020830160208701615491565b6000806000606084860312156155dd57600080fd5b835167ffffffffffffffff808211156155f557600080fd5b61560187838801615564565b945060208601519350604086015191508082111561561e57600080fd5b50614dcf86828701615564565b84815260806020820152600061564460808301866147df565b60ff949094166040830152506060015292915050565b60006020828403121561566c57600080fd5b5051919050565b85815260a06020820152600061568c60a08301876147df565b60ff8616604084015282810360608401526156a781866154b5565b9150508260808301529695505050505050565b600082516156cc818460208701615491565b9190910192915050565b85815260a0602082015260006156ef60a08301876147df565b828103604084015261570181876154b5565b9050846060840152828103608084015261537e81856154b5565b8082018082111561036057610360615056565b602081526000612b2860208301846154b5565b6000815160208301517fffffffff0000000000000000000000000000000000000000000000000000000080821693506004831015613e295760049290920360031b82901b161692915050565b60006002881061579f5761579f6147b5565b8760f81b825286600183015285602183015284151560f81b6041830152836042830152826062830152608282019050979650505050505050565b600083516157eb818460208801615491565b8351908301906157ff818360208801615491565b01949350505050565b7fffff0000000000000000000000000000000000000000000000000000000000008416815260007f3a000000000000000000000000000000000000000000000000000000000000008060028401528451615869816003860160208901615491565b808401905081600382015284519150615889826004830160208801615491565b0160040195945050505050565b600060ff821660ff81036158ac576158ac615056565b60010192915050565b60007f800000000000000000000000000000000000000000000000000000000000000082036158e6576158e6615056565b5060000390565b8181038181111561036057610360615056565b8281526040602082015260006116c860408301846154b5565b60006020828403121561592b57600080fd5b815167ffffffffffffffff81111561594257600080fd5b6116c884828501615564565b8281526000602080830184516020860160005b8281101561597d57815184529284019290840190600101615961565b5091979650505050505050565b60608152600061599d60608301866154b5565b60208301949094525060400152919050565b6060815260006159c260608301866147df565b65ffffffffffff85166020840152828103604084015261162c81856154b5565b8481526080602082015260006159fb60808301866147df565b65ffffffffffff851660408401528281036060840152615a1b81856154b5565b979650505050505050565b608081526000615a3960808301876147df565b8281036020840152615a4b81876154b5565b90508460408401528281036060840152615a1b81856154b5565b86815260c060208201526000615a7e60c08301886147df565b8281036040840152615a9081886154b5565b90508560608401528281036080840152615aaa81866154b5565b9150508260a0830152979650505050505050565b60008451615ad0818460208901615491565b60609490941b7fffffffffffffffffffffffffffffffffffffffff000000000000000000000000169190930190815260148101919091526034019291505056fea264697066735822122050b006cc3c7705e08ca869dfa06a26197c54296f8024eb2b48c808204dc8235c64736f6c63430008180033","linkReferences":{"src/libraries/LibChunks.sol":{"LibChunks":[{"start":7200,"length":20}]}}},"methodIdentifiers":{"_calculateMagicAttack()":"bfea0b85","_msgSender()":"119df25f","_msgValue()":"45ec9354","_world()":"e1af802c","checkForMatchEnd((uint8,uint256,uint256,bool,uint256,uint256,bytes32[],bytes32[]))":"889d1704","createMatch(uint8,bytes32[],bytes32[])":"aaa417b7","endMatch(bytes32,uint256,bool)":"47082155","endTurn(bytes32,bytes32,(bytes32,bytes32,bytes32,uint256)[])":"98d239b1","executeAction((bytes32,uint256,bytes32,bytes32,bool,bool,bool,int256,int256,bool,bool,uint256,uint256),uint256)":"6783d47a","getDied(bytes32)":"def4c3ff","getEncounter(bytes32)":"4dda27e8","isParticipant(address,bytes32[])":"b2467894","isParticipant(bytes32,bytes32)":"c6ca743c","supportsInterface(bytes4)":"01ffc9a7"},"id":222}