{"abi":[{"type":"function","name":"_calculateMagicAttack","inputs":[],"outputs":[],"stateMutability":"nonpayable"},{"type":"function","name":"_calculatePhysicalAttack","inputs":[{"name":"attackStats","type":"tuple","internalType":"struct PhysicalAttackStats","components":[{"name":"bonusDamage","type":"int256","internalType":"int256"},{"name":"armorPenetration","type":"int256","internalType":"int256"},{"name":"attackModifierBonus","type":"int256","internalType":"int256"},{"name":"critChanceBonus","type":"int256","internalType":"int256"},{"name":"classRestrictions","type":"uint8[]","internalType":"uint8[]"}]},{"name":"attackerId","type":"bytes32","internalType":"bytes32"},{"name":"defenderId","type":"bytes32","internalType":"bytes32"},{"name":"weaponId","type":"uint256","internalType":"uint256"},{"name":"randomNumber","type":"uint256","internalType":"uint256"}],"outputs":[{"name":"damage","type":"int256","internalType":"int256"},{"name":"hit","type":"bool","internalType":"bool"},{"name":"crit","type":"bool","internalType":"bool"}],"stateMutability":"nonpayable"},{"type":"function","name":"_msgSender","inputs":[],"outputs":[{"name":"sender","type":"address","internalType":"address"}],"stateMutability":"view"},{"type":"function","name":"_msgValue","inputs":[],"outputs":[{"name":"value","type":"uint256","internalType":"uint256"}],"stateMutability":"pure"},{"type":"function","name":"_world","inputs":[],"outputs":[{"name":"","type":"address","internalType":"address"}],"stateMutability":"view"},{"type":"function","name":"calculateGoldDrop","inputs":[{"name":"mobLevel","type":"uint256","internalType":"uint256"},{"name":"randomNumber","type":"uint256","internalType":"uint256"}],"outputs":[{"name":"dropAmount","type":"uint256","internalType":"uint256"}],"stateMutability":"nonpayable"},{"type":"function","name":"calculateItemDrop","inputs":[{"name":"randomNumber","type":"uint256","internalType":"uint256"},{"name":"itemId","type":"uint256","internalType":"uint256"}],"outputs":[{"name":"","type":"bool","internalType":"bool"}],"stateMutability":"nonpayable"},{"type":"function","name":"createMatch","inputs":[{"name":"encounterType","type":"uint8","internalType":"enum EncounterType"},{"name":"attackers","type":"bytes32[]","internalType":"bytes32[]"},{"name":"defenders","type":"bytes32[]","internalType":"bytes32[]"}],"outputs":[{"name":"encounterId","type":"bytes32","internalType":"bytes32"}],"stateMutability":"nonpayable"},{"type":"function","name":"endTurn","inputs":[{"name":"encounterId","type":"bytes32","internalType":"bytes32"},{"name":"playerId","type":"bytes32","internalType":"bytes32"},{"name":"actions","type":"tuple[]","internalType":"struct Action[]","components":[{"name":"attackerEntityId","type":"bytes32","internalType":"bytes32"},{"name":"defenderEntityId","type":"bytes32","internalType":"bytes32"},{"name":"actionId","type":"bytes32","internalType":"bytes32"},{"name":"weaponId","type":"uint256","internalType":"uint256"}]}],"outputs":[],"stateMutability":"payable"},{"type":"function","name":"executeCombat","inputs":[{"name":"randomNumber","type":"uint256","internalType":"uint256"},{"name":"encounterId","type":"bytes32","internalType":"bytes32"},{"name":"actions","type":"tuple[]","internalType":"struct Action[]","components":[{"name":"attackerEntityId","type":"bytes32","internalType":"bytes32"},{"name":"defenderEntityId","type":"bytes32","internalType":"bytes32"},{"name":"actionId","type":"bytes32","internalType":"bytes32"},{"name":"weaponId","type":"uint256","internalType":"uint256"}]}],"outputs":[],"stateMutability":"nonpayable"},{"type":"function","name":"getEncounter","inputs":[{"name":"encounterId","type":"bytes32","internalType":"bytes32"}],"outputs":[{"name":"_encounterData","type":"tuple","internalType":"struct CombatEncounterData","components":[{"name":"encounterType","type":"uint8","internalType":"enum EncounterType"},{"name":"start","type":"uint256","internalType":"uint256"},{"name":"end","type":"uint256","internalType":"uint256"},{"name":"currentTurn","type":"uint256","internalType":"uint256"},{"name":"maxTurns","type":"uint256","internalType":"uint256"},{"name":"defenders","type":"bytes32[]","internalType":"bytes32[]"},{"name":"attackers","type":"bytes32[]","internalType":"bytes32[]"}]}],"stateMutability":"view"},{"type":"function","name":"isParticipant","inputs":[{"name":"account","type":"address","internalType":"address"},{"name":"participants","type":"bytes32[]","internalType":"bytes32[]"}],"outputs":[{"name":"_isParticipant","type":"bool","internalType":"bool"}],"stateMutability":"view"},{"type":"function","name":"isParticipant","inputs":[{"name":"playerId","type":"bytes32","internalType":"bytes32"},{"name":"encounterId","type":"bytes32","internalType":"bytes32"}],"outputs":[{"name":"_isParticipant","type":"bool","internalType":"bool"}],"stateMutability":"view"},{"type":"function","name":"isValidPvE","inputs":[{"name":"attackers","type":"bytes32[]","internalType":"bytes32[]"},{"name":"defenders","type":"bytes32[]","internalType":"bytes32[]"},{"name":"x","type":"uint16","internalType":"uint16"},{"name":"y","type":"uint16","internalType":"uint16"}],"outputs":[{"name":"_isValidPvE","type":"bool","internalType":"bool"}],"stateMutability":"view"},{"type":"function","name":"supportsInterface","inputs":[{"name":"interfaceId","type":"bytes4","internalType":"bytes4"}],"outputs":[{"name":"","type":"bool","internalType":"bool"}],"stateMutability":"pure"},{"type":"event","name":"Store_SetRecord","inputs":[{"name":"tableId","type":"bytes32","indexed":true,"internalType":"ResourceId"},{"name":"keyTuple","type":"bytes32[]","indexed":false,"internalType":"bytes32[]"},{"name":"staticData","type":"bytes","indexed":false,"internalType":"bytes"},{"name":"encodedLengths","type":"bytes32","indexed":false,"internalType":"EncodedLengths"},{"name":"dynamicData","type":"bytes","indexed":false,"internalType":"bytes"}],"anonymous":false},{"type":"event","name":"Store_SpliceStaticData","inputs":[{"name":"tableId","type":"bytes32","indexed":true,"internalType":"ResourceId"},{"name":"keyTuple","type":"bytes32[]","indexed":false,"internalType":"bytes32[]"},{"name":"start","type":"uint48","indexed":false,"internalType":"uint48"},{"name":"data","type":"bytes","indexed":false,"internalType":"bytes"}],"anonymous":false},{"type":"error","name":"Slice_OutOfBounds","inputs":[{"name":"data","type":"bytes","internalType":"bytes"},{"name":"start","type":"uint256","internalType":"uint256"},{"name":"end","type":"uint256","internalType":"uint256"}]},{"type":"error","name":"World_AccessDenied","inputs":[{"name":"resource","type":"string","internalType":"string"},{"name":"caller","type":"address","internalType":"address"}]},{"type":"error","name":"World_FunctionSelectorNotFound","inputs":[{"name":"functionSelector","type":"bytes4","internalType":"bytes4"}]},{"type":"error","name":"World_ResourceNotFound","inputs":[{"name":"resourceId","type":"bytes32","internalType":"ResourceId"},{"name":"resourceIdString","type":"string","internalType":"string"}]}],"bytecode":{"object":"0x608060405234801561001057600080fd5b50615461806100206000396000f3fe6080604052600436106100e85760003560e01c806398d239b11161008a578063bfea0b8511610059578063bfea0b8514610297578063c6ca743c146102a3578063e1af802c146102c3578063fc88ff63146102d857600080fd5b806398d239b114610205578063aaa417b71461021a578063b127ae901461023a578063b24678941461027757600080fd5b8063195e75c4116100c6578063195e75c41461016f57806332aeffdf1461019d57806345ec9354146101c05780634dda27e8146101d857600080fd5b806301ffc9a7146100ed578063119df25f14610122578063154510201461014f575b600080fd5b3480156100f957600080fd5b5061010d61010836600461422d565b6102f8565b60405190151581526020015b60405180910390f35b34801561012e57600080fd5b50610137610391565b6040516001600160a01b039091168152602001610119565b34801561015b57600080fd5b5061010d61016a3660046143cb565b6103a0565b34801561017b57600080fd5b5061018f61018a366004614450565b61067a565b604051908152602001610119565b3480156101a957600080fd5b5061010d6101b8366004614450565b600092915050565b3480156101cc57600080fd5b5036601f19013561018f565b3480156101e457600080fd5b506101f86101f3366004614472565b61069e565b60405161011991906144f1565b6102186102133660046145f7565b6106e8565b005b34801561022657600080fd5b5061018f610235366004614647565b6108b2565b34801561024657600080fd5b5061025a6102553660046146c6565b610b8c565b604080519384529115156020840152151590820152606001610119565b34801561028357600080fd5b5061010d6102923660046147f3565b610fc3565b34801561021857600080fd5b3480156102af57600080fd5b5061010d6102be366004614450565b611099565b3480156102cf57600080fd5b50610137611153565b3480156102e457600080fd5b506102186102f33660046145f7565b61115d565b60007fffffffff0000000000000000000000000000000000000000000000000000000082167fb5dee12700000000000000000000000000000000000000000000000000000000148061038b57507fffffffff0000000000000000000000000000000000000000000000000000000082167f01ffc9a700000000000000000000000000000000000000000000000000000000145b92915050565b600061039b6113d6565b905090565b600160005b8551811015610505576103b6611153565b6001600160a01b031663fa1becc48783815181106103d6576103d6614843565b60200260200101516040518263ffffffff1660e01b81526004016103fc91815260200190565b602060405180830381865afa158015610419573d6000803e3d6000fd5b505050506040513d601f19601f8201168201806040525081019061043d9190614859565b61044a5760009150610505565b610452611153565b6001600160a01b031663f48a397287838151811061047257610472614843565b602002602001015186866040518463ffffffff1660e01b81526004016104af9392919092835261ffff918216602084015216604082015260600190565b602060405180830381865afa1580156104cc573d6000803e3d6000fd5b505050506040513d601f19601f820116820180604052508101906104f09190614859565b6104fd5760009150610505565b6001016103a5565b5080156106725760005b845181101561067057610520611153565b6001600160a01b031663fa1becc486838151811061054057610540614843565b60200260200101516040518263ffffffff1660e01b815260040161056691815260200190565b602060405180830381865afa158015610583573d6000803e3d6000fd5b505050506040513d601f19601f820116820180604052508101906105a79190614859565b156105b55760009150610670565b6105bd611153565b6001600160a01b031663f48a39728683815181106105dd576105dd614843565b602002602001015186866040518463ffffffff1660e01b815260040161061a9392919092835261ffff918216602084015216604082015260600190565b602060405180830381865afa158015610637573d6000803e3d6000fd5b505050506040513d601f19601f8201168201806040525081019061065b9190614859565b6106685760009150610670565b60010161050f565b505b949350505050565b600061068d8366038d7ea4c68000614891565b61069790836148be565b9392505050565b6106df6040805160e0810190915280600081526020016000815260200160008152602001600081526020016000815260200160608152602001606081525090565b61038b82611408565b60006106f384611408565b9050806020015160001415801561070c57506040810151155b61075d5760405162461bcd60e51b815260206004820181905260248201527f434f4d4241542053595354454d3a20494e56414c494420454e434f554e54455260448201526064015b60405180910390fd5b80608001518160600151106107b45760405162461bcd60e51b815260206004820181905260248201527f434f4d4241542053595354454d3a204558504952454420454e434f554e5445526044820152606401610754565b6107bc610391565b6001600160a01b03166107cd611153565b6001600160a01b0316634f10aabc856040518263ffffffff1660e01b81526004016107fa91815260200190565b602060405180830381865afa158015610817573d6000803e3d6000fd5b505050506040513d601f19601f8201168201806040525081019061083b91906148d2565b6001600160a01b031614801561085657506108568385611099565b6108a25760405162461bcd60e51b815260206004820152601c60248201527f434f4d4241542053595354454d3a204e4f4e2d434f4d424154414e54000000006044820152606401610754565b6108ac84836114f3565b50505050565b60006108c56108bf610391565b84610fc3565b6109115760405162461bcd60e51b815260206004820152601d60248201527f434f4d4241542053595354454d3a20494e56414c49442053454e4445520000006044820152606401610754565b6000806109378560008151811061092a5761092a614843565b602002602001015161158d565b9150915085600181111561094d5761094d61448b565b600103610a3557610960858584846103a0565b6109ac5760405162461bcd60e51b815260206004820152601a60248201527f434f4d4241542053595354454d3a20494e56414c4944205056450000000000006044820152606401610754565b60405142906109c59088908890889085906020016148ef565b60405160208183030381529060405280519060200120935060006040518060e001604052808960018111156109fc576109fc61448b565b81526020018381526020016000815260200160008152602001600f8152602001878152602001888152509050610a32858261163e565b50505b856001811115610a4757610a4761448b565b5060005b8451811015610af2576000801b610a7a868381518110610a6d57610a6d614843565b60200260200101516116ff565b14610ac75760405162461bcd60e51b815260206004820152601e60248201527f434f4d4241542053595354454d3a20454e54495459204f4343555049454400006044820152606401610754565b610aea858281518110610adc57610adc614843565b602002602001015185611790565b600101610a4b565b5060005b8551811015610b82576000801b610b18878381518110610a6d57610a6d614843565b14610b655760405162461bcd60e51b815260206004820152601e60248201527f434f4d4241542053595354454d3a20454e54495459204f4343555049454400006044820152606401610754565b610b7a868281518110610adc57610adc614843565b600101610af6565b5050509392505050565b600080600080610b9a611153565b6001600160a01b03166354f1f2db896040518263ffffffff1660e01b8152600401610bc791815260200190565b61010060405180830381865afa158015610be5573d6000803e3d6000fd5b505050506040513d601f19601f82011682018060405250810190610c099190614933565b90506000610c15611153565b6001600160a01b03166354f1f2db896040518263ffffffff1660e01b8152600401610c4291815260200190565b61010060405180830381865afa158015610c60573d6000803e3d6000fd5b505050506040513d601f19601f82011682018060405250810190610c849190614933565b90506000610c90611153565b6001600160a01b031663810c1dc1896040518263ffffffff1660e01b8152600401610cbd91815260200190565b600060405180830381865afa158015610cda573d6000803e3d6000fd5b505050506040513d6000823e601f3d908101601f19168201604052610d029190810190614a0a565b905060008260a001511315610fa8576040517f4dddf8370000000000000000000000000000000000000000000000000000000081526004810188905260009073__$227e4555c1f608352b26068e438454dd8b$__90634dddf83790602401600060405180830381865af4158015610d7d573d6000803e3d6000fd5b505050506040513d6000823e601f3d908101601f19168201604052610da59190810190614ac1565b9050610dfc81600081518110610dbd57610dbd614843565b602002602001015167ffffffffffffffff1682600181518110610de257610de2614843565b602002602001015167ffffffffffffffff168e8787611844565b90965094508515610f5f57620186a060008d602001518560600151610e219190614b66565b13610e2d576001610e41565b8c602001518460600151610e419190614b66565b610e4b9190614891565b8451620186a090610e5e90600290614b86565b8460a00151856080015185600281518110610e7b57610e7b614843565b602002602001015167ffffffffffffffff16610e9791906148be565b1115610ed657846080015184600281518110610eb557610eb5614843565b602002602001015167ffffffffffffffff16610ed191906148be565b610edc565b8460a001515b8f51610ee89190614b9a565b610ef29190614b9a565b610efc9190614bba565b610f069190614b66565b96508415610f5a57610f4c6040518060400160405280600581526020017f43524954210000000000000000000000000000000000000000000000000000008152506118d7565b610f57600288614bba565b96505b610fa2565b610f9d6040518060400160405280600581526020017f4d495353210000000000000000000000000000000000000000000000000000008152506118d7565b600096505b50610fb5565b6000955060009450600093505b505050955095509592505050565b6000805b825181101561109257610fd8611153565b6001600160a01b0316634f10aabc848381518110610ff857610ff8614843565b60200260200101516040518263ffffffff1660e01b815260040161101e91815260200190565b602060405180830381865afa15801561103b573d6000803e3d6000fd5b505050506040513d601f19601f8201168201806040525081019061105f91906148d2565b6001600160a01b0316846001600160a01b0316036110805760019150611092565b8061108a81614c06565b915050610fc7565b5092915050565b6000806110a583611408565b905060005b8160c00151518110156110f6578160c0015181815181106110cd576110cd614843565b602002602001015185036110e457600192506110f6565b806110ee81614c06565b9150506110aa565b50816110925760005b8160a001515181101561114b578160a00151818151811061112257611122614843565b60200260200101518503611139576001925061114b565b8061114381614c06565b9150506110ff565b505092915050565b600061039b61194b565b61116e30611169610391565b611955565b600061117983611408565b905060005b82518110156111cc57600083828151811061119b5761119b614843565b602002602001015190506111c38582604001518360000151846020015185606001518b61196b565b5060010161117e565b50606081018051906111dd82614c06565b905250600080805b8360a001515181101561131c57600061121a8560a00151838151811061120d5761120d614843565b6020026020010151611a08565b905060008113611313578361122e81614c06565b945050846000015160018111156112475761124761448b565b60ff1660000361131357611259611153565b6001600160a01b031663fa1becc48660a00151848151811061127d5761127d614843565b60200260200101516040518263ffffffff1660e01b81526004016112a391815260200190565b602060405180830381865afa1580156112c0573d6000803e3d6000fd5b505050506040513d601f19601f820116820180604052508101906112e49190614859565b15611313576113138560a00151838151811061130257611302614843565b60200260200101516000801b611790565b506001016111e5565b5060005b8360c00151518110156113815760006113488560c00151838151811061120d5761120d614843565b905060008113611378578261135c81614c06565b9350506113788560c00151838151811061130257611302614843565b50600101611320565b508260c001515181148061139957508260a001515182145b806113ab575082608001518360600151145b156113ce574360408401526113c0858461163e565b6113ca8587611a9a565b5050505b505050505050565b7fffffffffffffffffffffffffffffffffffffffffffffffffffffffffffffffcc36013560601c806114055750335b90565b6114496040805160e0810190915280600081526020016000815260200160008152602001600081526020016000815260200160608152602001606081525090565b60408051600180825281830190925260009160208083019080368337019050509050828160008151811061147f5761147f614843565b6020908102919091010152600080806114d87f74625544000000000000000000000000436f6d626174456e636f756e74657200857e81050201202020200000000000000000000000000000000000000000000000611ccf565b9250925092506114e9838383611d9f565b9695505050505050565b611588826001848460405160200161150c929190614c20565b60408051601f198184030181529082905261152b939291602401614cf0565b60408051601f198184030181529190526020810180517bffffffffffffffffffffffffffffffffffffffffffffffffffffffff167fb2aa60a400000000000000000000000000000000000000000000000000000000179052611e4c565b505050565b604080516001808252818301909252600091829182916020808301908036833701905050905083816000815181106115c7576115c7614843565b6020908102919091010152600080806116207f74625544000000000000000000000000506f736974696f6e0000000000000000857e04020002020000000000000000000000000000000000000000000000000000611ccf565b925092509250611631838383611efa565b9550955050505050915091565b600061166182600001518360200151846040015185606001518660800151611f1d565b905060006116778360a001518460c00151611f52565b9050600061168d8460a001518560c00151611f76565b604080516001808252818301909252919250600091906020808301908036833701905050905085816000815181106116c7576116c7614843565b60209081029190910101526113ce7f74625544000000000000000000000000436f6d626174456e636f756e7465720082868686611fb2565b60408051600180825281830190925260009182919060208083019080368337019050509050828160008151811061173857611738614843565b602090810291909101015260006106727f746255440000000000000000000000004d61746368456e74697479000000000083837e40020020200000000000000000000000000000000000000000000000000000612067565b6040805160018082528183019092526000916020808301908036833701905050905082816000815181106117c6576117c6614843565b6020026020010181815250506115887f746255440000000000000000000000004d61746368456e74697479000000000060001b8260008560405160200161180f91815260200190565b60408051601f198184030181529190527e40020020200000000000000000000000000000000000000000000000000000612124565b60008080620249f06118586103e88a6148be565b61186a8760200151896040015161219a565b6118749190614d18565b61187e9190614891565b90506000620186a085602001516103e88a61189991906148be565b6118a39190614d18565b6118ad9190614891565b9050808211935083156118cb5760026118c68284614b86565b101592505b50509550959350505050565b611948816040516024016118eb9190614d2b565b60408051601f198184030181529190526020810180517bffffffffffffffffffffffffffffffffffffffffffffffffffffffff167f41304fac000000000000000000000000000000000000000000000000000000001790526121c7565b50565b600061039b6121d0565b6119676119618361220f565b826122ac565b5050565b6000611976866122f8565b8051909150600381111561198c5761198c61448b565b60ff166001036119ff57600081602001518060200190518101906119b09190614d3e565b905060008060006119c4848a8a8a8a610b8c565b9194509250905060006119da620186a085614dd3565b6119e38a611a08565b6119ed9190614b66565b90506119f989826123ad565b50505050505b50505050505050565b604080516001808252818301909252600091829190602080830190803683370190505090508281600081518110611a4157611a41614843565b602090810291909101015260006106727f74625544000000000000000000000000537461747300000000000000000000008360057ee1080020200120202020200000000000000000000000000000000000000000612067565b606080600080611aa986611408565b90506000806000611ab86141d7565b60005b8560c0015151811015611b2557611aee8660c001518281518110611ae157611ae1614843565b6020026020010151612461565b91508160e0015185611b009190614d18565b945060008260a001511315611b1d5783611b1981614c06565b9450505b600101611abb565b5060008060005b8760a0015151811015611bac57611b528860a001518281518110611ae157611ae1614843565b935060008460a0015113611ba45760c0840151611b6f9083614d18565b9150611b7f8460e001518d61067a565b611b899084614d18565b9250611ba48860a00151828151811061130257611302614843565b600101611b2c565b5060005b8760c0015151811015611cc0578760c001518181518110611bd357611bd3614843565b60200260200101519450611be685612461565b9350611bf28683614b86565b8460c001818151611c039190614d18565b905250611c0e611153565b6001600160a01b031663fda0ce5086611c278987614b86565b6040517fffffffff0000000000000000000000000000000000000000000000000000000060e085901b16815260048101929092526024820152604401600060405180830381600087803b158015611c7d57600080fd5b505af1158015611c91573d6000803e3d6000fd5b50505050611c9f8585612509565b611cb88860c00151828151811061130257611302614843565b600101611bb0565b50505050505050509250925092565b6060600060606000611cdf6121d0565b9050306001600160a01b03821603611d0857611cfc8787876125b2565b93509350935050611d96565b6040517f419b58fd0000000000000000000000000000000000000000000000000000000081526001600160a01b0382169063419b58fd90611d51908a908a908a90600401614e1d565b600060405180830381865afa158015611d6e573d6000803e3d6000fd5b505050506040513d6000823e601f3d908101601f19168201604052611cfc9190810190614eaa565b93509350939050565b611de06040805160e0810190915280600081526020016000815260200160008152602001600081526020016000815260200160608152602001606081525090565b611de9846126ba565b6080860181905260608601829052604086018390526020860184905285856001811115611e1857611e1861448b565b6001811115611e2957611e2961448b565b8152505050505050611e3b838361270a565b60c083015260a08201529392505050565b6060600080611e62611e5d85614f0d565b612759565b91509150816000801b03611ec8576040517ffdde54e20000000000000000000000000000000000000000000000000000000081527fffffffff00000000000000000000000000000000000000000000000000000000600035166004820152602401610754565b6020840180517bffffffffffffffffffffffffffffffffffffffffffffffffffffffff1682179052610672828561281c565b60208301516022840151600091829160f091821c911c5b90969095509350505050565b60608585858585604051602001611f38959493929190614f59565b604051602081830303815290604052905095945050505050565b600061069783516020028351602002606081901b603883901b838301171792915050565b6060611f81836128f7565b611f8a836128f7565b604051602001611f9b929190614f94565b604051602081830303815290604052905092915050565b6000611fbc6121d0565b9050306001600160a01b03821603611fe057611fdb8686868686612907565b6113ce565b6040517f298314fb0000000000000000000000000000000000000000000000000000000081526001600160a01b0382169063298314fb9061202d9089908990899089908990600401614fc3565b600060405180830381600087803b15801561204757600080fd5b505af115801561205b573d6000803e3d6000fd5b50505050505050505050565b6000806120726121d0565b9050306001600160a01b038216036120985761209086868686612924565b915050610672565b6040517f8c364d590000000000000000000000000000000000000000000000000000000081526001600160a01b03821690638c364d59906120e3908990899089908990600401615008565b602060405180830381865afa158015612100573d6000803e3d6000fd5b505050506040513d601f19601f820116820180604052508101906120909190615037565b600061212e6121d0565b9050306001600160a01b0382160361214d57611fdb868686868661295a565b6040517f390baae00000000000000000000000000000000000000000000000000000000081526001600160a01b0382169063390baae09061202d9089908990899089908990600401615050565b60008082126121b4576121ad8284614d18565b905061038b565b6121bd82615097565b6121ad90846150cf565b6119488161296f565b7f629a4c26e296b22a8e0856e9f6ecb2d1008d7e00081111962cd175fa7488e175546000906001600160a01b03168061220a573391505090565b919050565b60408051600180825281830190925260009182919060208083019080368337019050509050826001600160a01b031660001b8160008151811061225457612254614843565b602090810291909101015260006106727f7462776f726c6400000000000000000053797374656d5265676973747279000083837e20010020000000000000000000000000000000000000000000000000000000612067565b6122b68282612990565b611967576122c3826129ee565b816040517fd787b7370000000000000000000000000000000000000000000000000000000081526004016107549291906150e2565b60408051808201909152600081526060602082015260408051600180825281830190925260009160208083019080368337019050509050828160008151811061234357612343614843565b60209081029190910101526000808061239c7f74625544000000000000000000000000416374696f6e73000000000000000000857e01010101000000000000000000000000000000000000000000000000000000611ccf565b9250925092506114e9838383612b2b565b6040805160018082528183019092526000916020808301908036833701905050905082816000815181106123e3576123e3614843565b6020026020010181815250506115887f746255440000000000000000000000005374617473000000000000000000000060001b8260058560405160200161242c91815260200190565b60408051601f198184030181529190527ee1080020200120202020200000000000000000000000000000000000000000612124565b6124696141d7565b60408051600180825281830190925260009160208083019080368337019050509050828160008151811061249f5761249f614843565b6020908102919091010152600080806124f87f7462554400000000000000000000000053746174730000000000000000000000857ee1080020200120202020200000000000000000000000000000000000000000611ccf565b9250925092506114e9838383612b88565b600061253b826000015183602001518460400151856060015186608001518760a001518860c001518960e00151612c00565b60408051600180825281830190925291925060009160609183919060208083019080368337019050509050858160008151811061257a5761257a614843565b60209081029190910101526113ce7f746255440000000000000000000000005374617473000000000000000000000082868686611fb2565b60606000606060006125c385612c3e565b90506125d0878783612c61565b935060006125dd86612c9a565b905080156126af576125ef8888612cd7565b935066ffffffffffffff841667ffffffffffffffff8111156126135761261361426f565b6040519080825280601f01601f19166020018201604052801561263d576020820181803683370190505b5092506020830160005b828160ff1610156126ac57600061265f8b8b84612cea565b9050600061267c888460ff166028026038011c64ffffffffff1690565b905061268b8260008387612d6a565b6126958185614d18565b9350505080806126a49061510d565b915050612647565b50505b505093509350939050565b60008060008060006126d0866000016020015190565b60f81c60018111156126e4576126e461448b565b602187015160418801516061890151608190990151929991989097509550909350915050565b6060806000603885901c64ffffffffff1661272e612729868484612e36565b612ec4565b935090508064ffffffffff606087901c160161274e612729868484612e36565b925050509250929050565b6040805160018082528183019092526000918291829160208083019080368337019050509050837bffffffffffffffffffffffffffffffffffffffffffffffffffffffff1916816000815181106127b2576127b2614843565b60209081029190910101526000808061280b7f7462776f726c6400000000000000000046756e6374696f6e53656c6563746f72857e24020020040000000000000000000000000000000000000000000000000000611ccf565b925092509250611631838383612ed5565b6060600061282861194b565b90506001600160a01b03811630036128695760006128506128476113d6565b60008787612ee1565b9350905080612862576128628361301c565b505061038b565b6040517f3ae7af080000000000000000000000000000000000000000000000000000000081526001600160a01b03821690633ae7af08906128b0908790879060040161512c565b6000604051808303816000875af11580156128cf573d6000803e3d6000fd5b505050506040513d6000823e601f3d908101601f191682016040526106729190810190615145565b6060816106978160206000613024565b61291d85858585856129188b613084565b613109565b5050505050565b60006129516129338686613442565b60ff858116601b0360080285901c1661294c8587613498565b6134d1565b95945050505050565b61291d85856129698487613498565b85613522565b80516a636f6e736f6c652e6c6f67602083016000808483855afa5050505050565b60006129de7f6e730000000000000000000000000000000000000000000000000000000000007dffffffffffffffffffffffffffff00000000000000000000000000000000851617836137bd565b80610697575061069783836137bd565b606081601081901b6000612a0183613886565b9050827fffffffffffffffffffffffffffff000000000000000000000000000000000000831615612a5c57612a577fffffffffffffffffffffffffffff000000000000000000000000000000000000841661389d565b612a93565b6040518060400160405280600681526020017f3c726f6f743e00000000000000000000000000000000000000000000000000008152505b7fffffffffffffffffffffffffffffffff00000000000000000000000000000000831615612ac957612ac48361389d565b612b00565b6040518060400160405280600681526020017f3c726f6f743e00000000000000000000000000000000000000000000000000008152505b604051602001612b129392919061517a565b6040516020818303038152906040529350505050919050565b604080518082019091526000815260606020820152612b4984613941565b81906003811115612b5c57612b5c61448b565b90816003811115612b6f57612b6f61448b565b905250612b7c838361395d565b60208201529392505050565b612b906141d7565b612b9984613980565b60e0890181905260c0890182905260a089018390526080890184905260608901859052886020810160408201886002811115612bd757612bd761448b565b6002811115612be857612be861448b565b90529790975250505093909252509195945050505050565b60608888888888888888604051602001612c21989796959493929190615208565b604051602081830303815290604052905098975050505050505050565b60006008612c4e600260206150cf565b612c589190614891565b9190911c919050565b606081600003612c805750604080516020810190915260008152610697565b6000612c8c8585613442565b9050612951816000856139ee565b60006008600180612cad600260206150cf565b612cb791906150cf565b612cc191906150cf565b612ccb9190614891565b8260ff911c1692915050565b6000610697612ce68484613a11565b5490565b60008383604051602001612cff92919061524d565b604051602081830303815290604052805190602001208260f81b7effffffffffffffffffffffffffffffffffffffffffffffffffffffffffffff19167f3b4102da22e32d82fc925482184f16c09fd4281692720b87d124aef6da48a0f1181860001c90509392505050565b8215612df15760208310612d9457602083048401935060208381612d9057612d906148a8565b0692505b8215612df1576020839003600081841015612db75750600019600884021c612dc1565b50600019600882021c5b8554600886021b818451168219821617845250818411612de25750506108ac565b50600194909401939182900391015b5b60208210612e135783548152600190930192601f1990910190602001612df2565b81156108ac576000600019600884021c8251865482191691161782525050505050565b600081831180612e465750835182115b15612e83578383836040517f23230fa300000000000000000000000000000000000000000000000000000000815260040161075493929190615289565b60208401612e918482614d18565b90506000612e9f85856150cf565b6fffffffffffffffffffffffffffffffff1660809290921b9190911795945050505050565b606060006106978360206000613a67565b600080611f1185613ad6565b60006060600080612ef186613aeb565b90925090506001600160a01b038216612f425785612f0e876129ee565b6040517ffbf10ce600000000000000000000000000000000000000000000000000000000815260040161075492919061512c565b80612f5157612f518689613b8f565b8615612fbd577dffffffffffffffffffffffffffff0000000000000000000000000000000086167f6e73000000000000000000000000000000000000000000000000000000000000176000612fa582613b99565b9050612fba82612fb58b84614d18565b613c2a565b50505b6000612fc98760101b90565b7fffffffffffffffffffffffffffff000000000000000000000000000000000000161461300157612ffc88888488613cde565b61300d565b61300d88888488613d56565b90999098509650505050505050565b805160208201fd5b825160609060006130358583614891565b9050604051925060208301601f19603f83860101166040528184526000602088015b84821015613078578051871b83529187019160019190910190602001613057565b50505050509392505050565b60007f8b9d8c8b908d9affffffffffffffffffab9e9d939a8d0000000000000000000082016130d357507e60030220202000000000000000000000000000000000000000000000000000919050565b61038b6131007f746273746f72650000000000000000005461626c65730000000000000000000084613db7565b602060006134d1565b7f6f74000000000000000000000000000000000000000000000000000000000000867fffff000000000000000000000000000000000000000000000000000000000000160361319557857f8dbb3a9672eebfd3773e72dd9c102393436816d832c7ba9e1e1ac8fcadcac7a98686868660405161318894939291906152ae565b60405180910390a26113ce565b60006131a087613dd3565b905060005b81518110156132795760008282815181106131c2576131c2614843565b602002602001015190506131ee6001826affffffffffffffffffffff1916613e5c90919063ffffffff16565b15613270576040517f57066c9c000000000000000000000000000000000000000000000000000000008152606082901c906357066c9c9061323d908c908c908c908c908c908c906004016152f8565b600060405180830381600087803b15801561325757600080fd5b505af115801561326b573d6000803e3d6000fd5b505050505b506001016131a5565b50867f8dbb3a9672eebfd3773e72dd9c102393436816d832c7ba9e1e1ac8fcadcac7a9878787876040516132b094939291906152ae565b60405180910390a260006132c48888613442565b905060006020870190506132dc826000895184613e7a565b60006132e785612c9a565b111561336b5760006132f98a8a613a11565b878155905060208601915060008060005b61331388612c9a565b8160ff161015613366576133288d8d83612cea565b92506133438a8260ff166028026038011c64ffffffffff1690565b91506133528360008488613e7a565b61335c8286614d18565b945060010161330a565b505050505b60005b835181101561205b57600084828151811061338b5761338b614843565b602002602001015190506133b76002826affffffffffffffffffffff1916613e5c90919063ffffffff16565b15613439576040517f5b28cdaf000000000000000000000000000000000000000000000000000000008152606082901c90635b28cdaf90613406908e908e908e908e908e908e906004016152f8565b600060405180830381600087803b15801561342057600080fd5b505af1158015613434573d6000803e3d6000fd5b505050505b5060010161336e565b6000828260405160200161345792919061524d565b60408051601f1981840301815291905280516020909101207f86425bff6b57326c7859e89024fe4f238ca327a1ae4a230180dd2f0e88aaa7d9189392505050565b600080805b8360ff168110156134c9576134bf60ff601b83900360080287901c1683614d18565b915060010161349d565b509392505050565b6000602082106134f7576020820484019350602082816134f3576134f36148a8565b0691505b508254600882021b6020829003808411156134c9576001850154600882021c82179150509392505050565b7f6f74000000000000000000000000000000000000000000000000000000000000847fffff00000000000000000000000000000000000000000000000000000000000016036135ac57837f8c0b5119d4cec7b284c6b1b39252a03d1e2f2d7451a5895562524c113bb952be84848460405161359f93929190615351565b60405180910390a26108ac565b60006135b88585613442565b905060006135c586613dd3565b905060005b815181101561369a5760008282815181106135e7576135e7614843565b602002602001015190506136136004826affffffffffffffffffffff1916613e5c90919063ffffffff16565b15613691576040517f964f667d000000000000000000000000000000000000000000000000000000008152606082901c9063964f667d9061365e908b908b908b908b90600401615384565b600060405180830381600087803b15801561367857600080fd5b505af115801561368c573d6000803e3d6000fd5b505050505b506001016135ca565b50857f8c0b5119d4cec7b284c6b1b39252a03d1e2f2d7451a5895562524c113bb952be8686866040516136cf93929190615351565b60405180910390a26136ea828565ffffffffffff1685613f39565b60005b81518110156119ff57600082828151811061370a5761370a614843565b602002602001015190506137366008826affffffffffffffffffffff1916613e5c90919063ffffffff16565b156137b4576040517fa8ba8721000000000000000000000000000000000000000000000000000000008152606082901c9063a8ba872190613781908b908b908b908b90600401615384565b600060405180830381600087803b15801561379b57600080fd5b505af11580156137af573d6000803e3d6000fd5b505050505b506001016136ed565b6040805160028082526060820183526000928392919060208301908036833701905050905083816000815181106137f6576137f6614843565b602002602001018181525050826001600160a01b031660001b8160018151811061382257613822614843565b6020908102919091010152600061387a7f7462776f726c640000000000000000005265736f75726365416363657373000083837e01010001000000000000000000000000000000000000000000000000000000612067565b90506129518160f81c90565b600061389460706010614d18565b9190911b919050565b606060005b6010811015613902577fffffffffffffffffffffffffffffffff000000000000000000000000000000008316600882021b7fff000000000000000000000000000000000000000000000000000000000000001615613902576001016138a2565b604080517fffffffffffffffffffffffffffffffff00000000000000000000000000000000851660208201528151603090910190915281815280610672565b602081015160009060f81c600381111561038b5761038b61448b565b60606000603884901c64ffffffffff1661295161397b858484612e36565b613f4f565b60008060008060008060008061399a896000016020015190565b60408a015160608b0151919950975060f81c60028111156139bd576139bd61448b565b60618a015160818b015160a18c015160c18d015160e1909d01519b9d9a9c939b929a91995097509195509350915050565b60405160208101601f19603f84840101166040528282526134c985858584612d6a565b60008282604051602001613a2692919061524d565b60408051601f1981840301815291905280516020909101207f14e2fcc58e58e68ec7edc30c8d50dccc3ce2714a623ec81f46b6a63922d76569189392505050565b60606000613a758560801c90565b90506fffffffffffffffffffffffffffffffff85166000858281613a9b57613a9b6148a8565b04905060405193506020840160208202810160405281855260005b82811015613078578451871c825293870193602090910190600101613ab6565b602081015160408201516000905b9050915091565b60408051600180825281830190925260009182918291602080830190803683370190505090508381600081518110613b2557613b25614843565b602090810291909101015260008080613b7e7f7462776f726c6400000000000000000053797374656d73000000000000000000857e150200140100000000000000000000000000000000000000000000000000006125b2565b925092509250611631838383613fcf565b6122b68282613fdb565b604080516001808252818301909252600091829190602080830190803683370190505090508281600081518110613bd257613bd2614843565b602090810291909101015260006106727f7462776f726c6400000000000000000042616c616e636573000000000000000083837e20010020000000000000000000000000000000000000000000000000000000612924565b604080516001808252818301909252600091602080830190803683370190505090508281600081518110613c6057613c60614843565b6020026020010181815250506115887f7462776f726c6400000000000000000042616c616e636573000000000000000060001b82600085604051602001613ca991815260200190565b60408051601f198184030181529190527e2001002000000000000000000000000000000000000000000000000000000061295a565b60006060836001600160a01b03166000613cf9858989614039565b604051613d0691906153bd565b60006040518083038185875af1925050503d8060008114613d43576040519150601f19603f3d011682016040523d82523d6000602084013e613d48565b606091505b509097909650945050505050565b60006060836001600160a01b0316613d6f848888614039565b604051613d7c91906153bd565b600060405180830381855af49150503d8060008114613d43576040519150601f19603f3d011682016040523d82523d6000602084013e613d48565b6040805160208101849052908101829052600090606001613457565b60408051600180825281830190925260609160009190602080830190803683370190505090508281600081518110613e0d57613e0d614843565b60209081029190910101526000613e457f746273746f726500000000000000000053746f7265486f6f6b730000000000008383614068565b9050610672613e578260008451612e36565b6140a2565b60008160ff1682613e6d8560581c90565b1660ff1614905092915050565b8215613ef45760208310613ea457602083048401935060208381613ea057613ea06148a8565b0692505b8215613ef45760208390036000600019600885021c1990506008850281811c91508351811c9050811987541682821617875550818411613ee55750506108ac565b50600194909401939182900391015b5b60208210613f165780518455600190930192601f1990910190602001613ef5565b81156108ac576000600019600884021c8554835182191691161785555050505050565b61158883838351613f4a8560200190565b613e7a565b60606000613f5d8360801c90565b90506fffffffffffffffffffffffffffffffff83168067ffffffffffffffff811115613f8b57613f8b61426f565b6040519080825280601f01601f191660200182016040528015613fb5576020820181803683370190505b50925060208301613fc78382846140b3565b505050919050565b600080611f11856140fe565b60006140297f6e730000000000000000000000000000000000000000000000000000000000007dffffffffffffffffffffffffffff000000000000000000000000000000008516178361411a565b806106975750610697838361411a565b6060838383604051602001614050939291906153d9565b60405160208183030381529060405290509392505050565b6060610672614078858585612cea565b600061409d856140888989612cd7565b9060ff166028026038011c64ffffffffff1690565b6139ee565b606060006106978360156000613a67565b5b602081106140d3578251825260209283019290910190601f19016140b4565b806000036140e057505050565b6000600019600883021c905080835116811985511617835250505050565b6020810151603482015160609190911c9060009060f81c613ae4565b60408051600280825260608201835260009283929190602083019080368337019050509050838160008151811061415357614153614843565b602002602001018181525050826001600160a01b031660001b8160018151811061417f5761417f614843565b6020908102919091010152600061387a7f7462776f726c640000000000000000005265736f75726365416363657373000083837e01010001000000000000000000000000000000000000000000000000000000612924565b6040518061010001604052806000815260200160008152602001600060028111156142045761420461448b565b815260200160008152602001600081526020016000815260200160008152602001600081525090565b60006020828403121561423f57600080fd5b81357fffffffff000000000000000000000000000000000000000000000000000000008116811461069757600080fd5b634e487b7160e01b600052604160045260246000fd5b6040516080810167ffffffffffffffff811182821017156142a8576142a861426f565b60405290565b60405160a0810167ffffffffffffffff811182821017156142a8576142a861426f565b604051610100810167ffffffffffffffff811182821017156142a8576142a861426f565b604051601f8201601f1916810167ffffffffffffffff8111828210171561431e5761431e61426f565b604052919050565b600067ffffffffffffffff8211156143405761434061426f565b5060051b60200190565b600082601f83011261435b57600080fd5b8135602061437061436b83614326565b6142f5565b8083825260208201915060208460051b87010193508684111561439257600080fd5b602086015b848110156143ae5780358352918301918301614397565b509695505050505050565b803561ffff8116811461220a57600080fd5b600080600080608085870312156143e157600080fd5b843567ffffffffffffffff808211156143f957600080fd5b6144058883890161434a565b9550602087013591508082111561441b57600080fd5b506144288782880161434a565b935050614437604086016143b9565b9150614445606086016143b9565b905092959194509250565b6000806040838503121561446357600080fd5b50508035926020909101359150565b60006020828403121561448457600080fd5b5035919050565b634e487b7160e01b600052602160045260246000fd5b600281106144b1576144b161448b565b9052565b60008151808452602080850194506020840160005b838110156144e6578151875295820195908201906001016144ca565b509495945050505050565b602081526145036020820183516144a1565b602082015160408201526040820151606082015260608201516080820152608082015160a0820152600060a083015160e060c08401526145476101008401826144b5565b905060c0840151601f198483030160e085015261295182826144b5565b600082601f83011261457557600080fd5b8135602061458561436b83614326565b82815260079290921b840181019181810190868411156145a457600080fd5b8286015b848110156143ae57608081890312156145c15760008081fd5b6145c9614285565b81358152848201358582015260408083013590820152606080830135908201528352918301916080016145a8565b60008060006060848603121561460c57600080fd5b8335925060208401359150604084013567ffffffffffffffff81111561463157600080fd5b61463d86828701614564565b9150509250925092565b60008060006060848603121561465c57600080fd5b83356002811061466b57600080fd5b9250602084013567ffffffffffffffff8082111561468857600080fd5b6146948783880161434a565b935060408601359150808211156146aa57600080fd5b5061463d8682870161434a565b60ff8116811461194857600080fd5b600080600080600060a086880312156146de57600080fd5b853567ffffffffffffffff808211156146f657600080fd5b9087019060a0828a03121561470a57600080fd5b6147126142ae565b8235815260208084013581830152604084013560408301526060840135606083015260808401358381111561474657600080fd5b8085019450508a601f85011261475b57600080fd5b8335925061476b61436b84614326565b83815260059390931b8401810192818101908c85111561478a57600080fd5b948201945b848610156147b15785356147a2816146b7565b8252948201949082019061478f565b608084810191909152929c918b01359b505060408a01359960608101359950909101359650945050505050565b6001600160a01b038116811461194857600080fd5b6000806040838503121561480657600080fd5b8235614811816147de565b9150602083013567ffffffffffffffff81111561482d57600080fd5b6148398582860161434a565b9150509250929050565b634e487b7160e01b600052603260045260246000fd5b60006020828403121561486b57600080fd5b8151801515811461069757600080fd5b634e487b7160e01b600052601160045260246000fd5b808202811582820484141761038b5761038b61487b565b634e487b7160e01b600052601260045260246000fd5b6000826148cd576148cd6148a8565b500690565b6000602082840312156148e457600080fd5b8151610697816147de565b6148f981866144a1565b60806020820152600061490f60808301866144b5565b828103604084015261492181866144b5565b91505082606083015295945050505050565b6000610100828403121561494657600080fd5b61494e6142d1565b825181526020830151602082015260408301516040820152606083015160608201526080830151608082015260a083015160a082015260c083015160c082015260e083015160e08201528091505092915050565b600082601f8301126149b357600080fd5b815160206149c361436b83614326565b8083825260208201915060208460051b8701019350868411156149e557600080fd5b602086015b848110156143ae5780516149fd816146b7565b83529183019183016149ea565b600060208284031215614a1c57600080fd5b815167ffffffffffffffff80821115614a3457600080fd5b908301906101008286031215614a4957600080fd5b614a516142d1565b82518152602083015182811115614a6757600080fd5b614a73878286016149a2565b60208301525060408301516040820152606083015160608201526080830151608082015260a083015160a082015260c083015160c082015260e083015160e082015280935050505092915050565b60006020808385031215614ad457600080fd5b825167ffffffffffffffff80821115614aec57600080fd5b818501915085601f830112614b0057600080fd5b8151614b0e61436b82614326565b81815260059190911b83018401908481019088831115614b2d57600080fd5b938501935b82851015614b5a5784518481168114614b4b5760008081fd5b82529385019390850190614b32565b98975050505050505050565b81810360008312801583831316838312821617156110925761109261487b565b600082614b9557614b956148a8565b500490565b808201828112600083128015821682158216171561114b5761114b61487b565b808202600082127f800000000000000000000000000000000000000000000000000000000000000084141615614bf257614bf261487b565b818105831482151761038b5761038b61487b565b60006000198203614c1957614c1961487b565b5060010190565b60006040808301858452602060406020860152818651808452606093506060870191506020880160005b82811015614c8157815180518552858101518686015287810151888601528601518685015260809093019290840190600101614c4a565b50919998505050505050505050565b600381106119485761194861448b565b60005b83811015614cbb578181015183820152602001614ca3565b50506000910152565b60008151808452614cdc816020860160208601614ca0565b601f01601f19169290920160200192915050565b838152614cfc83614c90565b8260208201526060604082015260006129516060830184614cc4565b8082018082111561038b5761038b61487b565b6020815260006106976020830184614cc4565b600060208284031215614d5057600080fd5b815167ffffffffffffffff80821115614d6857600080fd5b9083019060a08286031215614d7c57600080fd5b614d846142ae565b82518152602083015160208201526040830151604082015260608301516060820152608083015182811115614db857600080fd5b614dc4878286016149a2565b60808301525095945050505050565b600082614de257614de26148a8565b60001983147f800000000000000000000000000000000000000000000000000000000000000083141615614e1857614e1861487b565b500590565b838152606060208201526000614e3660608301856144b5565b9050826040830152949350505050565b600082601f830112614e5757600080fd5b815167ffffffffffffffff811115614e7157614e7161426f565b614e846020601f19601f840116016142f5565b818152846020838601011115614e9957600080fd5b610672826020830160208701614ca0565b600080600060608486031215614ebf57600080fd5b835167ffffffffffffffff80821115614ed757600080fd5b614ee387838801614e46565b9450602086015193506040860151915080821115614f0057600080fd5b5061463d86828701614e46565b6000815160208301517fffffffff0000000000000000000000000000000000000000000000000000000080821693506004831015613fc75760049290920360031b82901b161692915050565b600060028710614f6b57614f6b61448b565b5060f89590951b8552600185019390935260218401919091526041830152606182015260810190565b60008351614fa6818460208801614ca0565b835190830190614fba818360208801614ca0565b01949350505050565b85815260a060208201526000614fdc60a08301876144b5565b8281036040840152614fee8187614cc4565b90508460608401528281036080840152614b5a8185614cc4565b84815260806020820152600061502160808301866144b5565b60ff949094166040830152506060015292915050565b60006020828403121561504957600080fd5b5051919050565b85815260a06020820152600061506960a08301876144b5565b60ff8616604084015282810360608401526150848186614cc4565b9150508260808301529695505050505050565b60007f800000000000000000000000000000000000000000000000000000000000000082036150c8576150c861487b565b5060000390565b8181038181111561038b5761038b61487b565b6040815260006150f56040830185614cc4565b90506001600160a01b03831660208301529392505050565b600060ff821660ff81036151235761512361487b565b60010192915050565b8281526040602082015260006106726040830184614cc4565b60006020828403121561515757600080fd5b815167ffffffffffffffff81111561516e57600080fd5b61067284828501614e46565b7fffff0000000000000000000000000000000000000000000000000000000000008416815260007f3a0000000000000000000000000000000000000000000000000000000000000080600284015284516151db816003860160208901614ca0565b8084019050816003820152845191506151fb826004830160208801614ca0565b0160040195945050505050565b88815287602082015261521a87614c90565b60f89690961b604087015260418601949094526061850192909252608184015260a183015260c182015260e10192915050565b8281526000602080830184516020860160005b8281101561527c57815184529284019290840190600101615260565b5091979650505050505050565b60608152600061529c6060830186614cc4565b60208301949094525060400152919050565b6080815260006152c160808301876144b5565b82810360208401526152d38187614cc4565b905084604084015282810360608401526152ed8185614cc4565b979650505050505050565b86815260c06020820152600061531160c08301886144b5565b82810360408401526153238188614cc4565b9050856060840152828103608084015261533d8186614cc4565b9150508260a0830152979650505050505050565b60608152600061536460608301866144b5565b65ffffffffffff8516602084015282810360408401526114e98185614cc4565b84815260806020820152600061539d60808301866144b5565b65ffffffffffff8516604084015282810360608401526152ed8185614cc4565b600082516153cf818460208701614ca0565b9190910192915050565b600084516153eb818460208901614ca0565b60609490941b7fffffffffffffffffffffffffffffffffffffffff000000000000000000000000169190930190815260148101919091526034019291505056fea2646970667358221220e0b06e430c1d6652950eb639c715b921ba1255c065dc37c90f90cd46f3c8c4c564736f6c63430008180033","linkReferences":{"src/libraries/LibChunks.sol":{"LibChunks":[{"start":3427,"length":20}]}}},"methodIdentifiers":{"_calculateMagicAttack()":"bfea0b85","_calculatePhysicalAttack((int256,int256,int256,int256,uint8[]),bytes32,bytes32,uint256,uint256)":"b127ae90","_msgSender()":"119df25f","_msgValue()":"45ec9354","_world()":"e1af802c","calculateGoldDrop(uint256,uint256)":"195e75c4","calculateItemDrop(uint256,uint256)":"32aeffdf","createMatch(uint8,bytes32[],bytes32[])":"aaa417b7","endTurn(bytes32,bytes32,(bytes32,bytes32,bytes32,uint256)[])":"98d239b1","executeCombat(uint256,bytes32,(bytes32,bytes32,bytes32,uint256)[])":"fc88ff63","getEncounter(bytes32)":"4dda27e8","isParticipant(address,bytes32[])":"b2467894","isParticipant(bytes32,bytes32)":"c6ca743c","isValidPvE(bytes32[],bytes32[],uint16,uint16)":"15451020","supportsInterface(bytes4)":"01ffc9a7"},"id":111}