{"abi":[{"type":"function","name":"_msgSender","inputs":[],"outputs":[{"name":"sender","type":"address","internalType":"address"}],"stateMutability":"view"},{"type":"function","name":"_msgValue","inputs":[],"outputs":[{"name":"value","type":"uint256","internalType":"uint256"}],"stateMutability":"pure"},{"type":"function","name":"_world","inputs":[],"outputs":[{"name":"","type":"address","internalType":"address"}],"stateMutability":"view"},{"type":"function","name":"executeAction","inputs":[{"name":"actionOutcomeData","type":"tuple","internalType":"struct ActionOutcomeData","components":[{"name":"itemId","type":"uint256","internalType":"uint256"},{"name":"attackerId","type":"bytes32","internalType":"bytes32"},{"name":"defenderId","type":"bytes32","internalType":"bytes32"},{"name":"attackerDamageDelt","type":"int256","internalType":"int256"},{"name":"defenderDamageDelt","type":"int256","internalType":"int256"},{"name":"attackerDied","type":"bool","internalType":"bool"},{"name":"defenderDied","type":"bool","internalType":"bool"},{"name":"blockNumber","type":"uint256","internalType":"uint256"},{"name":"timestamp","type":"uint256","internalType":"uint256"},{"name":"damagePerHit","type":"int256[]","internalType":"int256[]"},{"name":"effectIds","type":"bytes32[]","internalType":"bytes32[]"},{"name":"hit","type":"bool[]","internalType":"bool[]"},{"name":"miss","type":"bool[]","internalType":"bool[]"},{"name":"crit","type":"bool[]","internalType":"bool[]"}]},{"name":"randomNumber","type":"uint256","internalType":"uint256"}],"outputs":[{"name":"","type":"tuple","internalType":"struct ActionOutcomeData","components":[{"name":"itemId","type":"uint256","internalType":"uint256"},{"name":"attackerId","type":"bytes32","internalType":"bytes32"},{"name":"defenderId","type":"bytes32","internalType":"bytes32"},{"name":"attackerDamageDelt","type":"int256","internalType":"int256"},{"name":"defenderDamageDelt","type":"int256","internalType":"int256"},{"name":"attackerDied","type":"bool","internalType":"bool"},{"name":"defenderDied","type":"bool","internalType":"bool"},{"name":"blockNumber","type":"uint256","internalType":"uint256"},{"name":"timestamp","type":"uint256","internalType":"uint256"},{"name":"damagePerHit","type":"int256[]","internalType":"int256[]"},{"name":"effectIds","type":"bytes32[]","internalType":"bytes32[]"},{"name":"hit","type":"bool[]","internalType":"bool[]"},{"name":"miss","type":"bool[]","internalType":"bool[]"},{"name":"crit","type":"bool[]","internalType":"bool[]"}]}],"stateMutability":"nonpayable"},{"type":"function","name":"getDied","inputs":[{"name":"entityId","type":"bytes32","internalType":"bytes32"}],"outputs":[{"name":"isDied","type":"bool","internalType":"bool"}],"stateMutability":"view"},{"type":"function","name":"getEncounter","inputs":[{"name":"encounterId","type":"bytes32","internalType":"bytes32"}],"outputs":[{"name":"","type":"tuple","internalType":"struct CombatEncounterData","components":[{"name":"encounterType","type":"uint8","internalType":"enum EncounterType"},{"name":"start","type":"uint256","internalType":"uint256"},{"name":"end","type":"uint256","internalType":"uint256"},{"name":"rewardsDistributed","type":"bool","internalType":"bool"},{"name":"currentTurn","type":"uint256","internalType":"uint256"},{"name":"currentTurnTimer","type":"uint256","internalType":"uint256"},{"name":"maxTurns","type":"uint256","internalType":"uint256"},{"name":"attackersAreMobs","type":"bool","internalType":"bool"},{"name":"defenders","type":"bytes32[]","internalType":"bytes32[]"},{"name":"attackers","type":"bytes32[]","internalType":"bytes32[]"}]}],"stateMutability":"view"},{"type":"function","name":"supportsInterface","inputs":[{"name":"interfaceId","type":"bytes4","internalType":"bytes4"}],"outputs":[{"name":"","type":"bool","internalType":"bool"}],"stateMutability":"pure"},{"type":"event","name":"Store_SpliceStaticData","inputs":[{"name":"tableId","type":"bytes32","indexed":true,"internalType":"ResourceId"},{"name":"keyTuple","type":"bytes32[]","indexed":false,"internalType":"bytes32[]"},{"name":"start","type":"uint48","indexed":false,"internalType":"uint48"},{"name":"data","type":"bytes","indexed":false,"internalType":"bytes"}],"anonymous":false},{"type":"error","name":"IntOverflow","inputs":[]},{"type":"error","name":"Slice_OutOfBounds","inputs":[{"name":"data","type":"bytes","internalType":"bytes"},{"name":"start","type":"uint256","internalType":"uint256"},{"name":"end","type":"uint256","internalType":"uint256"}]},{"type":"error","name":"World_AccessDenied","inputs":[{"name":"resource","type":"string","internalType":"string"},{"name":"caller","type":"address","internalType":"address"}]}],"bytecode":{"object":"0x608060405234801561001057600080fd5b5061450d806100206000396000f3fe608060405234801561001057600080fd5b506004361061007d5760003560e01c80634dda27e81161005b5780634dda27e8146100dd578063d01f757f146100fd578063def4c3ff1461011d578063e1af802c1461013057600080fd5b806301ffc9a714610082578063119df25f146100aa57806345ec9354146100ca575b600080fd5b610095610090366004613587565b610138565b60405190151581526020015b60405180910390f35b6100b26101d1565b6040516001600160a01b0390911681526020016100a1565b604051601f1936013581526020016100a1565b6100f06100eb3660046135c9565b6101e0565b6040516100a19190613656565b61011061010b3660046138d0565b610244565b6040516100a19190613a7f565b61009561012b3660046135c9565b61097f565b6100b261098a565b60007fffffffff0000000000000000000000000000000000000000000000000000000082167fb5dee1270000000000000000000000000000000000000000000000000000000014806101cb57507fffffffff0000000000000000000000000000000000000000000000000000000082167f01ffc9a700000000000000000000000000000000000000000000000000000000145b92915050565b60006101db610994565b905090565b61023b6040805161014081019091528060008152602001600081526020016000815260200160001515815260200160008152602001600081526020016000815260200160001515815260200160608152602001606081525090565b6101cb826109c6565b6102c0604051806101c001604052806000815260200160008019168152602001600080191681526020016000815260200160008152602001600015158152602001600015158152602001600081526020016000815260200160608152602001606081526020016060815260200160608152602001606081525090565b6102d1306102cc6101d1565b610acb565b6102de836020015161097f565b1580156102f557506102f3836040015161097f565b155b156109785760005b83610140015151811015610945578281856101400151838151811061032457610324613b8a565b602002602001015160405160200161034f939291909283526020830191909152604082015260600190565b6040516020818303038152906040528051906020012060001c92506000610393856101400151838151811061038657610386613b8a565b6020026020010151610ae1565b905080602001516103eb5760405162461bcd60e51b815260206004820152601560248201527f616374696f6e20646f6573206e6f74206578697374000000000000000000000060448201526064015b60405180910390fd5b6103f361098a565b6001600160a01b031663fa1becc486602001516040518263ffffffff1660e01b815260040161042491815260200190565b602060405180830381865afa158015610441573d6000803e3d6000fd5b505050506040513d601f19601f820116820180604052508101906104659190613ba0565b801561048d57506003855161047990610b95565b600481111561048a5761048a6135e2565b14155b156105775761049a61098a565b602086015186516040517f7273e39a000000000000000000000000000000000000000000000000000000008152600481019290925260248201526001600160a01b039190911690637273e39a90604401602060405180830381865afa158015610507573d6000803e3d6000fd5b505050506040513d601f19601f8201168201806040525081019061052b9190613ba0565b6105775760405162461bcd60e51b815260206004820152601160248201527f4974656d206e6f7420657175697070656400000000000000000000000000000060448201526064016103e2565b60018151600381111561058c5761058c6135e2565b03610719576105c885610140015183815181106105ab576105ab613b8a565b602002602001015186602001518760400151886000015188610c49565b87610120015185815181106105df576105df613b8a565b6020026020010188610160015186815181106105fd576105fd613b8a565b60200260200101896101a00151878151811061061b5761061b613b8a565b9315156020948502919091019093019290925291151590525261012085015180518390811061064c5761064c613b8a565b6020026020010151856060018181516106659190613bd3565b90525061016085015180518390811061068057610680613b8a565b6020026020010151156106eb57600085610120015183815181106106a6576106a6613b8a565b60200260200101516106bb87604001516110a1565b6106c59190613bfb565b9050600081136106d757600160c08701525b6106e5866040015182611133565b5061093c565b6001856101800151838151811061070457610704613b8a565b9115156020928302919091019091015261093c565b60028151600381111561072e5761072e6135e2565b0361088c5761076a856101400151838151811061074d5761074d613b8a565b6020026020010151866020015187604001518860000151886111ec565b876101200151858151811061078157610781613b8a565b60200260200101886101600151868151811061079f5761079f613b8a565b60200260200101896101a0015187815181106107bd576107bd613b8a565b931515602094850291909101909301929092529115159052526101208501518051839081106107ee576107ee613b8a565b6020026020010151856060018181516108079190613bd3565b90525061016085015180518390811061082257610822613b8a565b6020026020010151156106eb576000856101200151838151811061084857610848613b8a565b602002602001015161085d87604001516110a1565b6108679190613bfb565b9050610877866040015182611133565b600081136106e557600160c08701525061093c565b6003815160038111156108a1576108a16135e2565b036108f4576108dd85610140015183815181106108c0576108c0613b8a565b60200260200101518660200151876040015188600001518861169a565b856101600151838151811061070457610704613b8a565b60405162461bcd60e51b815260206004820152601a60248201527f616374696f6e2074797065206e6f74207265636f676e697a656400000000000060448201526064016103e2565b506001016102fd565b508260c001511561095f5761095f83604001516001611bc3565b8260a00151156109785761097883602001516001611bc3565b5090919050565b60006101cb82611c7c565b60006101db611d1a565b7fffffffffffffffffffffffffffffffffffffffffffffffffffffffffffffffcc36013560601c806109c35750335b90565b610a216040805161014081019091528060008152602001600081526020016000815260200160001515815260200160008152602001600081526020016000815260200160001515815260200160608152602001606081525090565b604080516001808252818301909252600091602080830190803683370190505090508281600081518110610a5757610a57613b8a565b602090810291909101015260008080610ab07f74625544000000000000000000000000436f6d626174456e636f756e74657200857ea3080201202001202020010000000000000000000000000000000000000000611d24565b925092509250610ac1838383611df4565b9695505050505050565b610add610ad783611ed7565b82611f74565b5050565b6040805180820190915260008082526020820152604080516001808252818301909252600091602080830190803683370190505090508281600081518110610b2b57610b2b613b8a565b602090810291909101015260008080610b847f7462554400000000000000000000000045666665637473000000000000000000857e02020001010000000000000000000000000000000000000000000000000000611d24565b925092509250610ac1838383611fc0565b604080516001808252818301909252600091829190602080830190803683370190505090508260001b81600081518110610bd157610bd1613b8a565b60209081029190910101526000610c297f746255440000000000000000000000004974656d73000000000000000000000083837e41030101202000000000000000000000000000000000000000000000000000612015565b905060f881901c6004811115610c4157610c416135e2565b949350505050565b600080600080610c5761098a565b6001600160a01b03166363de597f896040518263ffffffff1660e01b8152600401610c8491815260200190565b60c0604051808303816000875af1158015610ca3573d6000803e3d6000fd5b505050506040513d601f19601f82011682018060405250810190610cc79190613c22565b90506000610cd361098a565b6001600160a01b03166363de597f896040518263ffffffff1660e01b8152600401610d0091815260200190565b60c0604051808303816000875af1158015610d1f573d6000803e3d6000fd5b505050506040513d601f19601f82011682018060405250810190610d439190613c22565b90506000610d4f61098a565b6001600160a01b031663810c1dc1896040518263ffffffff1660e01b8152600401610d7c91815260200190565b600060405180830381865afa158015610d99573d6000803e3d6000fd5b505050506040513d6000823e601f3d908101601f19168201604052610dc19190810190613cfb565b9050610dcb61098a565b6040517f8340b0e1000000000000000000000000000000000000000000000000000000008152600481018a9052602481018d90526001600160a01b039190911690638340b0e190604401602060405180830381865afa158015610e32573d6000803e3d6000fd5b505050506040513d601f19601f82011682018060405250810190610e569190613ba0565b610ea25760405162461bcd60e51b815260206004820152600e60248201527f494e56414c494420414354494f4e00000000000000000000000000000000000060448201526064016103e2565b6000610eac61098a565b6001600160a01b03166336915e548d6040518263ffffffff1660e01b8152600401610ed991815260200190565b608060405180830381865afa158015610ef6573d6000803e3d6000fd5b505050506040513d601f19601f82011682018060405250810190610f1a9190613daf565b90506000610f278b6110a1565b1315611085576040517f4dddf8370000000000000000000000000000000000000000000000000000000081526004810189905260009073__$227e4555c1f608352b26068e438454dd8b$__90634dddf83790602401600060405180830381865af4158015610f99573d6000803e3d6000fd5b505050506040513d6000823e601f3d908101601f19168201604052610fc19190810190613df5565b905061100481600081518110610fd957610fd9613b8a565b602002602001015167ffffffffffffffff1683602001518460600151886020015188602001516120d2565b9097509550861561107657611022846060015183600001518a6121b5565b61104d838760000151868560028151811061103f5761103f613b8a565b60200260200101518b61220e565b6110579190613bfb565b975085156110715761106a600289613e8e565b9750600195505b61107f565b60009750600096505b50611092565b6000965060009550600094505b50505050955095509592505050565b6040805160018082528183019092526000918291906020808301908036833701905050905082816000815181106110da576110da613b8a565b60209081029190910101526000610c417f74625544000000000000000000000000537461747300000000000000000000008360057ee1080020200120202020200000000000000000000000000000000000000000612015565b60408051600180825281830190925260009160208083019080368337019050509050828160008151811061116957611169613b8a565b6020026020010181815250506111e77f746255440000000000000000000000005374617473000000000000000000000060001b826005856040516020016111b291815260200190565b60408051601f198184030181529190527ee10800202001202020202000000000000000000000000000000000000000006122ca565b505050565b6000806000806111fa61098a565b6001600160a01b03166363de597f896040518263ffffffff1660e01b815260040161122791815260200190565b60c0604051808303816000875af1158015611246573d6000803e3d6000fd5b505050506040513d601f19601f8201168201806040525081019061126a9190613c22565b9050600061127661098a565b6001600160a01b03166363de597f896040518263ffffffff1660e01b81526004016112a391815260200190565b60c0604051808303816000875af11580156112c2573d6000803e3d6000fd5b505050506040513d601f19601f820116820180604052508101906112e69190613c22565b905060006112f261098a565b6001600160a01b031663975bb835896040518263ffffffff1660e01b815260040161131f91815260200190565b600060405180830381865afa15801561133c573d6000803e3d6000fd5b505050506040513d6000823e601f3d908101601f191682016040526113649190810190613eda565b905061136e61098a565b6040517f8340b0e1000000000000000000000000000000000000000000000000000000008152600481018a9052602481018d90526001600160a01b039190911690638340b0e190604401602060405180830381865afa1580156113d5573d6000803e3d6000fd5b505050506040513d601f19601f820116820180604052508101906113f99190613ba0565b6114455760405162461bcd60e51b815260206004820152600e60248201527f494e56414c494420414354494f4e00000000000000000000000000000000000060448201526064016103e2565b600061144f61098a565b6001600160a01b0316637fe3cf018d6040518263ffffffff1660e01b815260040161147c91815260200190565b606060405180830381865afa158015611499573d6000803e3d6000fd5b505050506040513d601f19601f820116820180604052508101906114bd9190613f65565b905060006114ca8b6110a1565b1315611085576040517f4dddf8370000000000000000000000000000000000000000000000000000000081526004810189905260009073__$227e4555c1f608352b26068e438454dd8b$__90634dddf83790602401600060405180830381865af415801561153c573d6000803e3d6000fd5b505050506040513d6000823e601f3d908101601f191682016040526115649190810190613df5565b90506115a78160008151811061157c5761157c613b8a565b602002602001015167ffffffffffffffff1683600001518460400151886040015188604001516120d2565b90975095508615611076576115e28284836002815181106115ca576115ca613b8a565b6020026020010151886040015188604001518b612380565b975060008812156116315760006115f88c6110a1565b905060006116058d612451565b9050806116128b84613bfb565b131561162e576116228282613bfb565b61162b90613fc1565b99505b50505b851561107157611642600289613e8e565b975060008812156116915760006116588c612451565b905060006116658d6110a1565b9050816116728b83613bfb565b131561168e576116828183613bfb565b61168b90613fc1565b99505b50505b6001955061107f565b6000806116a561098a565b6001600160a01b03166363de597f876040518263ffffffff1660e01b81526004016116d291815260200190565b60c0604051808303816000875af11580156116f1573d6000803e3d6000fd5b505050506040513d601f19601f820116820180604052508101906117159190613c22565b9050600061172161098a565b6001600160a01b03166363de597f876040518263ffffffff1660e01b815260040161174e91815260200190565b60c0604051808303816000875af115801561176d573d6000803e3d6000fd5b505050506040513d601f19601f820116820180604052508101906117919190613c22565b9050600061179d61098a565b6001600160a01b031663a2bc1c468a6040518263ffffffff1660e01b81526004016117ca91815260200190565b60e060405180830381865afa1580156117e7573d6000803e3d6000fd5b505050506040513d601f19601f8201168201806040525081019061180b9190613ff9565b60a00151905061181961098a565b6040517f8340b0e100000000000000000000000000000000000000000000000000000000815260048101889052602481018b90526001600160a01b039190911690638340b0e190604401602060405180830381865afa158015611880573d6000803e3d6000fd5b505050506040513d601f19601f820116820180604052508101906118a49190613ba0565b6118f05760405162461bcd60e51b815260206004820152600e60248201527f494e56414c49442045464645435400000000000000000000000000000000000060448201526064016103e2565b61191b6040518060800160405280600081526020016000815260200160008152602001600081525090565b6000611926896110a1565b1315611bb6576040517f4dddf8370000000000000000000000000000000000000000000000000000000081526004810187905260009073__$227e4555c1f608352b26068e438454dd8b$__90634dddf83790602401600060405180830381865af4158015611998573d6000803e3d6000fd5b505050506040513d6000823e601f3d908101601f191682016040526119c09190810190613df5565b905060008360038111156119d6576119d66135e2565b036119e45760019550611b17565b60018360038111156119f8576119f86135e2565b03611a4657611a3e81600081518110611a1357611a13613b8a565b602002602001015167ffffffffffffffff1683602001518460600151886000015188600001516120d2565b509550611b17565b6002836003811115611a5a57611a5a6135e2565b03611a7557611a3e81600081518110610fd957610fd9613b8a565b6003836003811115611a8957611a896135e2565b03611acf57611a3e81600081518110611aa457611aa4613b8a565b602002602001015167ffffffffffffffff1683602001518460600151886040015188604001516120d2565b60405162461bcd60e51b815260206004820152601c60248201527f556e7265636f676e697a656420726573697374616e636520737461740000000060448201526064016103e2565b8515611bb457611b2561098a565b6040517f56a93542000000000000000000000000000000000000000000000000000000008152600481018b9052602481018d90526001600160a01b0391909116906356a935429060440160c0604051808303816000875af1158015611b8e573d6000803e3d6000fd5b505050506040513d601f19601f82011682018060405250810190611bb29190613c22565b505b505b5050505095945050505050565b604080516001808252818301909252600091602080830190803683370190505090508281600081518110611bf957611bf9613b8a565b6020026020010181815250506111e77f74625544000000000000000000000000456e636f756e746572456e746974790060001b82600185604051602001611c4791151560f81b815260010190565b60408051601f198184030181529190527e410301200120000000000000000000000000000000000000000000000000006122ca565b604080516001808252818301909252600091829190602080830190803683370190505090508281600081518110611cb557611cb5613b8a565b60209081029190910101526000611d0e7f74625544000000000000000000000000456e636f756e746572456e74697479008360017e41030120012000000000000000000000000000000000000000000000000000612015565b9050610c418160f81c90565b60006101db6124e3565b6060600060606000611d346124e3565b9050306001600160a01b03821603611d5d57611d51878787612522565b93509350935050611deb565b6040517f419b58fd0000000000000000000000000000000000000000000000000000000081526001600160a01b0382169063419b58fd90611da6908a908a908a90600401614089565b600060405180830381865afa158015611dc3573d6000803e3d6000fd5b505050506040513d6000823e601f3d908101601f19168201604052611d51919081019061413a565b93509350939050565b611e4f6040805161014081019091528060008152602001600081526020016000815260200160001515815260200160008152602001600081526020016000815260200160001515815260200160608152602001606081525090565b611e588461262a565b80151560e08a015260c0890182905260a089018390526080890184905284151560608a0152604089018690526020890187905288886002811115611e9e57611e9e6135e2565b6002811115611eaf57611eaf6135e2565b8152505050505050505050611ec483836126ae565b6101208301526101008201529392505050565b60408051600180825281830190925260009182919060208083019080368337019050509050826001600160a01b031660001b81600081518110611f1c57611f1c613b8a565b60209081029190910101526000610c417f7462776f726c6400000000000000000053797374656d5265676973747279000083837e20010020000000000000000000000000000000000000000000000000000000612015565b611f7e82826126fd565b610add57611f8b8261275b565b816040517fd787b7370000000000000000000000000000000000000000000000000000000081526004016103e29291906141d3565b6040805180820190915260008082526020820152611fdd84612898565b801515602084015282826003811115611ff857611ff86135e2565b6003811115612009576120096135e2565b81525050509392505050565b6000806120206124e3565b9050306001600160a01b038216036120465761203e868686866128ce565b915050610c41565b6040517f8c364d590000000000000000000000000000000000000000000000000000000081526001600160a01b03821690638c364d59906120919089908990899089906004016141fe565b602060405180830381865afa1580156120ae573d6000803e3d6000fd5b505050506040513d601f19601f8201168201806040525081019061203e919061422d565b60008060008385136120e557601e6120e8565b605f5b90506000816120ff6120fa8789613bfb565b6128fb565b6121099190614246565b61211490600a613e8e565b8861211f8789613bfb565b6121299190613bd3565b612135906103e8613e8e565b61213f919061426f565b61214a90605a613bd3565b905060006062821161215c578161215f565b60625b90508061216d60648c6142b9565b612178906001614246565b11801595506121a85760058861218f60648d6142b9565b6121999190613bfb565b6121a4906001613bd3565b1293505b5050509550959350505050565b6000806121c28486613bfb565b13156121e857670de0b6b3a76400006121db8486613bfb565b6121e59190613e8e565b90505b60006121f48486613bfb565b6121fe9084613bfb565b12156122075750805b9392505050565b60008161229d57600061222d8460041867ffffffffffffffff16612913565b905060006710a741a462780000866080015187606001518461224f91906142cd565b131561226957606087015161226490846142cd565b61226f565b86608001515b896040015161227e9190613bd3565b6122889190613e8e565b9050612294878261294f565b925050506122c1565b6122be856710a741a46278000086606001516122b99190613e8e565b61294f565b90505b95945050505050565b60006122d46124e3565b9050306001600160a01b038216036122f8576122f38686868686612afd565b612378565b6040517f390baae00000000000000000000000000000000000000000000000000000000081526001600160a01b0382169063390baae09061234590899089908990899089906004016142e1565b600060405180830381600087803b15801561235f57600080fd5b505af1158015612373573d6000803e3d6000fd5b505050505b505050505050565b600080826123f557865160208801516710a741a46278000091906123ae9067ffffffffffffffff8a166142b9565b11156123d25760208801516123cd9067ffffffffffffffff89166142b9565b6123d5565b87515b89602001516123e49190613bd3565b6123ee9190613e8e565b905061241f565b6710a741a462780000886020015188602001516124129190613bd3565b61241c9190613e8e565b90505b61243184670de0b6b3a764000061294f565b61243b868361294f565b6124459190613bfb565b98975050505050505050565b60408051600180825281830190925260009182919060208083019080368337019050509050828160008151811061248a5761248a613b8a565b60209081029190910101526000610c417f74625544000000000000000000000000537461747300000000000000000000008360047ee1080020200120202020200000000000000000000000000000000000000000612015565b7f629a4c26e296b22a8e0856e9f6ecb2d1008d7e00081111962cd175fa7488e175546000906001600160a01b03168061251d573391505090565b919050565b606060006060600061253385612b19565b9050612540878783612b3c565b9350600061254d86612b75565b9050801561261f5761255f8888612bb2565b935066ffffffffffffff841667ffffffffffffffff81111561258357612583613701565b6040519080825280601f01601f1916602001820160405280156125ad576020820181803683370190505b5092506020830160005b828160ff16101561261c5760006125cf8b8b84612bc5565b905060006125ec888460ff166028026038011c64ffffffffff1690565b90506125fb8260008387612c45565b6126058185614246565b93505050808061261490614328565b9150506125b7565b50505b505093509350939050565b600080600080600080600080612644896000016020015190565b60f81c6002811115612658576126586135e2565b60218a015160418b015160618c0151929a50909850965061267a905b60f81c90565b60628a015160828b015160a28c015160c28d0151939850919650945092506126a190612674565b9050919395975091939597565b6060806000603885901c64ffffffffff166126d26126cd868484612d10565b612d9e565b935090508064ffffffffff606087901c16016126f26126cd868484612d10565b925050509250929050565b600061274b7f6e730000000000000000000000000000000000000000000000000000000000007dffffffffffffffffffffffffffff0000000000000000000000000000000085161783612daf565b8061220757506122078383612daf565b606081601081901b600061276e83612e78565b9050827fffffffffffffffffffffffffffff0000000000000000000000000000000000008316156127c9576127c47fffffffffffffffffffffffffffff0000000000000000000000000000000000008416612e8f565b612800565b6040518060400160405280600681526020017f3c726f6f743e00000000000000000000000000000000000000000000000000008152505b7fffffffffffffffffffffffffffffffff000000000000000000000000000000008316156128365761283183612e8f565b61286d565b6040518060400160405280600681526020017f3c726f6f743e00000000000000000000000000000000000000000000000000008152505b60405160200161287f93929190614347565b6040516020818303038152906040529350505050919050565b6020810151600090819060f81c60038111156128b6576128b66135e2565b60218401519092506128c790612674565b9050915091565b60006122c16128dd8686612f33565b60ff858116601b0360080285901c166128f68587612f89565b612fc2565b600080821261290a57816101cb565b6101cb82613fc1565b80600081121561251d576040517f44dddea200000000000000000000000000000000000000000000000000000000815260040160405180910390fd5b600080831315612a3f57600082612983816014612974670de0b6b3a764000089613e8e565b61297e919061426f565b613013565b61298d9190613bd3565b6040517f79967f8800000000000000000000000000000000000000000000000000000000815260048101829052670de0b6b3a76400006024820181905291925073__$064f527a8f482c84819e4cea6f08a00624$__906379967f8890604401602060405180830381865af4158015612a09573d6000803e3d6000fd5b505050506040513d601f19601f82011682018060405250810190612a2d919061422d565b612a37919061426f565b9150506101cb565b670de0b6b3a764000073__$064f527a8f482c84819e4cea6f08a00624$__6379967f88612a6d60028661426f565b6040517fffffffff0000000000000000000000000000000000000000000000000000000060e084901b1681526004810191909152670de0b6b3a76400006024820152604401602060405180830381865af4158015612acf573d6000803e3d6000fd5b505050506040513d601f19601f82011682018060405250810190612af3919061422d565b612207919061426f565b612b128585612b0c8487612f89565b85613028565b5050505050565b60006008612b29600260206143d5565b612b3391906143e8565b9190911c919050565b606081600003612b5b5750604080516020810190915260008152612207565b6000612b678585612f33565b90506122c1816000856132cc565b60006008600180612b88600260206143d5565b612b9291906143d5565b612b9c91906143d5565b612ba691906143e8565b8260ff911c1692915050565b6000612207612bc184846132ef565b5490565b60008383604051602001612bda9291906143ff565b604051602081830303815290604052805190602001208260f81b7effffffffffffffffffffffffffffffffffffffffffffffffffffffffffffff19167f3b4102da22e32d82fc925482184f16c09fd4281692720b87d124aef6da48a0f1181860001c90509392505050565b8215612ccc5760208310612c6f57602083048401935060208381612c6b57612c6b614259565b0692505b8215612ccc576020839003600081841015612c925750600019600884021c612c9c565b50600019600882021c5b8554600886021b818451168219821617845250818411612cbd575050612d0a565b50600194909401939182900391015b5b60208210612cee5783548152600190930192601f1990910190602001612ccd565b8115612d0a5780518454600019600885021c9182169119161781525b50505050565b600081831180612d205750835182115b15612d5d578383836040517f23230fa30000000000000000000000000000000000000000000000000000000081526004016103e29392919061443b565b60208401612d6b8482614246565b90506000612d7985856143d5565b6fffffffffffffffffffffffffffffffff1660809290921b9190911795945050505050565b606060006122078360206000613345565b604080516002808252606082018352600092839291906020830190803683370190505090508381600081518110612de857612de8613b8a565b602002602001018181525050826001600160a01b031660001b81600181518110612e1457612e14613b8a565b60209081029190910101526000612e6c7f7462776f726c640000000000000000005265736f75726365416363657373000083837e01010001000000000000000000000000000000000000000000000000000000612015565b90506122c18160f81c90565b6000612e8660706010614246565b9190911b919050565b606060005b6010811015612ef4577fffffffffffffffffffffffffffffffff000000000000000000000000000000008316600882021b7fff000000000000000000000000000000000000000000000000000000000000001615612ef457600101612e94565b604080517fffffffffffffffffffffffffffffffff00000000000000000000000000000000851660208201528151603090910190915281815280610c41565b60008282604051602001612f489291906143ff565b60408051601f1981840301815291905280516020909101207f86425bff6b57326c7859e89024fe4f238ca327a1ae4a230180dd2f0e88aaa7d9189392505050565b600080805b8360ff16811015612fba57612fb060ff601b83900360080287901c1683614246565b9150600101612f8e565b509392505050565b600060208210612fe857602082048401935060208281612fe457612fe4614259565b0691505b508254600882021b602082900380841115612fba576001850154600882021c82179150509392505050565b6000670de0b6b3a7640000612af38385613e8e565b7f6f74000000000000000000000000000000000000000000000000000000000000847fffff00000000000000000000000000000000000000000000000000000000000016036130b257837f8c0b5119d4cec7b284c6b1b39252a03d1e2f2d7451a5895562524c113bb952be8484846040516130a593929190614460565b60405180910390a2612d0a565b60006130be8585612f33565b905060006130cb866133c0565b905060005b81518110156131a05760008282815181106130ed576130ed613b8a565b602002602001015190506131196004826affffffffffffffffffffff191661344990919063ffffffff16565b15613197576040517f964f667d000000000000000000000000000000000000000000000000000000008152606082901c9063964f667d90613164908b908b908b908b90600401614493565b600060405180830381600087803b15801561317e57600080fd5b505af1158015613192573d6000803e3d6000fd5b505050505b506001016130d0565b50857f8c0b5119d4cec7b284c6b1b39252a03d1e2f2d7451a5895562524c113bb952be8686866040516131d593929190614460565b60405180910390a26131f0828565ffffffffffff1685613467565b60005b81518110156132c357600082828151811061321057613210613b8a565b6020026020010151905061323c6008826affffffffffffffffffffff191661344990919063ffffffff16565b156132ba576040517fa8ba8721000000000000000000000000000000000000000000000000000000008152606082901c9063a8ba872190613287908b908b908b908b90600401614493565b600060405180830381600087803b1580156132a157600080fd5b505af11580156132b5573d6000803e3d6000fd5b505050505b506001016131f3565b50505050505050565b60405160208101601f19603f8484010116604052828252612fba85858584612c45565b600082826040516020016133049291906143ff565b60408051601f1981840301815291905280516020909101207f14e2fcc58e58e68ec7edc30c8d50dccc3ce2714a623ec81f46b6a63922d76569189392505050565b606060006133538560801c90565b90506fffffffffffffffffffffffffffffffff8516600085828161337957613379614259565b04905060405193506020840160208202810160405281855260005b828110156133b4578451871c825293870193602090910190600101613394565b50505050509392505050565b604080516001808252818301909252606091600091906020808301908036833701905050905082816000815181106133fa576133fa613b8a565b602090810291909101015260006134327f746273746f726500000000000000000053746f7265486f6f6b73000000000000838361347d565b9050610c416134448260008451612d10565b6134b7565b60008160ff168261345a8560581c90565b1660ff1614905092915050565b6111e7838383516134788560200190565b6134c8565b6060610c4161348d858585612bc5565b60006134b28561349d8989612bb2565b9060ff166028026038011c64ffffffffff1690565b6132cc565b606060006122078360156000613345565b821561354257602083106134f2576020830484019350602083816134ee576134ee614259565b0692505b82156135425760208390036000600019600885021c1990506008850281811c91508351811c9050811987541682821617875550818411613533575050612d0a565b50600194909401939182900391015b5b602082106135645780518455600190930192601f1990910190602001613543565b8115612d0a576000600019600884021c8554835182191691161785555050505050565b60006020828403121561359957600080fd5b81357fffffffff000000000000000000000000000000000000000000000000000000008116811461220757600080fd5b6000602082840312156135db57600080fd5b5035919050565b634e487b7160e01b600052602160045260246000fd5b6003811061361657634e487b7160e01b600052602160045260246000fd5b9052565b60008151808452602080850194506020840160005b8381101561364b5781518752958201959082019060010161362f565b509495945050505050565b602081526136686020820183516135f8565b602082015160408201526040820151606082015260006060830151613691608084018215159052565b50608083015160a083015260a083015160c083015260c083015160e083015260e08301516101006136c58185018315159052565b8085015191505061014061012081818601526136e561016086018461361a565b90860151858203601f190183870152909250610ac1838261361a565b634e487b7160e01b600052604160045260246000fd5b6040516101c0810167ffffffffffffffff8111828210171561373b5761373b613701565b60405290565b604051610100810167ffffffffffffffff8111828210171561373b5761373b613701565b6040516080810167ffffffffffffffff8111828210171561373b5761373b613701565b604051601f8201601f1916810167ffffffffffffffff811182821017156137b1576137b1613701565b604052919050565b80151581146137c757600080fd5b50565b803561251d816137b9565b600067ffffffffffffffff8211156137ef576137ef613701565b5060051b60200190565b600082601f83011261380a57600080fd5b8135602061381f61381a836137d5565b613788565b8083825260208201915060208460051b87010193508684111561384157600080fd5b602086015b8481101561385d5780358352918301918301613846565b509695505050505050565b600082601f83011261387957600080fd5b8135602061388961381a836137d5565b8083825260208201915060208460051b8701019350868411156138ab57600080fd5b602086015b8481101561385d5780356138c3816137b9565b83529183019183016138b0565b600080604083850312156138e357600080fd5b823567ffffffffffffffff808211156138fb57600080fd5b908401906101c0828703121561391057600080fd5b613918613717565b823581526020830135602082015260408301356040820152606083013560608201526080830135608082015261395060a084016137ca565b60a082015261396160c084016137ca565b60c082015260e083013560e0820152610100808401358183015250610120808401358381111561399057600080fd5b61399c898287016137f9565b82840152505061014080840135838111156139b657600080fd5b6139c2898287016137f9565b82840152505061016080840135838111156139dc57600080fd5b6139e889828701613868565b8284015250506101808084013583811115613a0257600080fd5b613a0e89828701613868565b8284015250506101a08084013583811115613a2857600080fd5b613a3489828701613868565b91830191909152509660209590950135955050505050565b60008151808452602080850194506020840160005b8381101561364b578151151587529582019590820190600101613a61565b6020815281516020820152602082015160408201526040820151606082015260608201516080820152608082015160a0820152600060a0830151613ac760c084018215159052565b5060c083015180151560e08401525060e083015161010083810191909152830151610120808401919091528301516101c0610140808501829052613b0f6101e086018461361a565b9250808601519050601f19610160818786030181880152613b30858461361a565b945080880151925050610180818786030181880152613b4f8584613a4c565b9450808801519250506101a0818786030181880152613b6e8584613a4c565b908801518782039092018488015293509050610ac18382613a4c565b634e487b7160e01b600052603260045260246000fd5b600060208284031215613bb257600080fd5b8151612207816137b9565b634e487b7160e01b600052601160045260246000fd5b8082018281126000831280158216821582161715613bf357613bf3613bbd565b505092915050565b8181036000831280158383131683831282161715613c1b57613c1b613bbd565b5092915050565b600060c08284031215613c3457600080fd5b60405160c0810181811067ffffffffffffffff82111715613c5757613c57613701565b8060405250825181526020830151602082015260408301516040820152606083015160608201526080830151608082015260a083015160a08201528091505092915050565b600082601f830112613cad57600080fd5b81516020613cbd61381a836137d5565b8083825260208201915060208460051b870101935086841115613cdf57600080fd5b602086015b8481101561385d5780518352918301918301613ce4565b600060208284031215613d0d57600080fd5b815167ffffffffffffffff80821115613d2557600080fd5b908301906101008286031215613d3a57600080fd5b613d42613741565b825181526020830151602082015260408301516040820152606083015160608201526080830151608082015260a083015160a082015260c083015160c082015260e083015182811115613d9457600080fd5b613da087828601613c9c565b60e08301525095945050505050565b600060808284031215613dc157600080fd5b613dc9613765565b825181526020830151602082015260408301516040820152606083015160608201528091505092915050565b60006020808385031215613e0857600080fd5b825167ffffffffffffffff80821115613e2057600080fd5b818501915085601f830112613e3457600080fd5b8151613e4261381a826137d5565b81815260059190911b83018401908481019088831115613e6157600080fd5b938501935b828510156124455784518481168114613e7f5760008081fd5b82529385019390850190613e66565b808202600082127f800000000000000000000000000000000000000000000000000000000000000084141615613ec657613ec6613bbd565b81810583148215176101cb576101cb613bbd565b600060208284031215613eec57600080fd5b815167ffffffffffffffff80821115613f0457600080fd5b9083019060808286031215613f1857600080fd5b613f20613765565b825181526020830151602082015260408301516040820152606083015182811115613f4a57600080fd5b613f5687828601613c9c565b60608301525095945050505050565b600060608284031215613f7757600080fd5b6040516060810181811067ffffffffffffffff82111715613f9a57613f9a613701565b80604052508251815260208301516020820152604083015160408201528091505092915050565b60007f80000000000000000000000000000000000000000000000000000000000000008203613ff257613ff2613bbd565b5060000390565b600060e0828403121561400b57600080fd5b60405160e0810181811067ffffffffffffffff8211171561402e5761402e613701565b8060405250825181526020830151602082015260408301516040820152606083015160608201526080830151608082015260a08301516004811061407157600080fd5b60a082015260c0928301519281019290925250919050565b8381526060602082015260006140a2606083018561361a565b9050826040830152949350505050565b60005b838110156140cd5781810151838201526020016140b5565b50506000910152565b600082601f8301126140e757600080fd5b815167ffffffffffffffff81111561410157614101613701565b6141146020601f19601f84011601613788565b81815284602083860101111561412957600080fd5b610c418260208301602087016140b2565b60008060006060848603121561414f57600080fd5b835167ffffffffffffffff8082111561416757600080fd5b614173878388016140d6565b945060208601519350604086015191508082111561419057600080fd5b5061419d868287016140d6565b9150509250925092565b600081518084526141bf8160208601602086016140b2565b601f01601f19169290920160200192915050565b6040815260006141e660408301856141a7565b90506001600160a01b03831660208301529392505050565b848152608060208201526000614217608083018661361a565b60ff949094166040830152506060015292915050565b60006020828403121561423f57600080fd5b5051919050565b808201808211156101cb576101cb613bbd565b634e487b7160e01b600052601260045260246000fd5b60008261427e5761427e614259565b60001983147f8000000000000000000000000000000000000000000000000000000000000000831416156142b4576142b4613bbd565b500590565b6000826142c8576142c8614259565b500690565b6000826142dc576142dc614259565b500790565b85815260a0602082015260006142fa60a083018761361a565b60ff86166040840152828103606084015261431581866141a7565b9150508260808301529695505050505050565b600060ff821660ff810361433e5761433e613bbd565b60010192915050565b7fffff0000000000000000000000000000000000000000000000000000000000008416815260007f3a0000000000000000000000000000000000000000000000000000000000000080600284015284516143a88160038601602089016140b2565b8084019050816003820152845191506143c88260048301602088016140b2565b0160040195945050505050565b818103818111156101cb576101cb613bbd565b80820281158282048414176101cb576101cb613bbd565b8281526000602080830184516020860160005b8281101561442e57815184529284019290840190600101614412565b5091979650505050505050565b60608152600061444e60608301866141a7565b60208301949094525060400152919050565b606081526000614473606083018661361a565b65ffffffffffff851660208401528281036040840152610ac181856141a7565b8481526080602082015260006144ac608083018661361a565b65ffffffffffff8516604084015282810360608401526144cc81856141a7565b97965050505050505056fea26469706673582212201336499820818ffc4615a0d6c0b2908ede4b8a11a088cd3e7a65f6779847513c64736f6c63430008180033","linkReferences":{"src/libraries/LibChunks.sol":{"LibChunks":[{"start":3967,"length":20},{"start":5410,"length":20},{"start":6526,"length":20}]},"src/libraries/Math.sol":{"Math":[{"start":10735,"length":20},{"start":10858,"length":20}]}}},"methodIdentifiers":{"_msgSender()":"119df25f","_msgValue()":"45ec9354","_world()":"e1af802c","executeAction((uint256,bytes32,bytes32,int256,int256,bool,bool,uint256,uint256,int256[],bytes32[],bool[],bool[],bool[]),uint256)":"d01f757f","getDied(bytes32)":"def4c3ff","getEncounter(bytes32)":"4dda27e8","supportsInterface(bytes4)":"01ffc9a7"},"id":259}