{"abi":[{"type":"function","name":"_msgSender","inputs":[],"outputs":[{"name":"sender","type":"address","internalType":"address"}],"stateMutability":"view"},{"type":"function","name":"_msgValue","inputs":[],"outputs":[{"name":"value","type":"uint256","internalType":"uint256"}],"stateMutability":"pure"},{"type":"function","name":"_world","inputs":[],"outputs":[{"name":"","type":"address","internalType":"address"}],"stateMutability":"view"},{"type":"function","name":"executeAttack","inputs":[{"name":"attackOutcomeData","type":"tuple","internalType":"struct AttackOutcomeData","components":[{"name":"itemId","type":"uint256","internalType":"uint256"},{"name":"attackerId","type":"bytes32","internalType":"bytes32"},{"name":"defenderId","type":"bytes32","internalType":"bytes32"},{"name":"attackerDamageDelt","type":"int256","internalType":"int256"},{"name":"defenderDamageDelt","type":"int256","internalType":"int256"},{"name":"attackerDied","type":"bool","internalType":"bool"},{"name":"defenderDied","type":"bool","internalType":"bool"},{"name":"blockNumber","type":"uint256","internalType":"uint256"},{"name":"timestamp","type":"uint256","internalType":"uint256"},{"name":"damagePerHit","type":"int256[]","internalType":"int256[]"},{"name":"effectIds","type":"bytes32[]","internalType":"bytes32[]"},{"name":"hit","type":"bool[]","internalType":"bool[]"},{"name":"miss","type":"bool[]","internalType":"bool[]"},{"name":"crit","type":"bool[]","internalType":"bool[]"}]},{"name":"randomNumber","type":"uint256","internalType":"uint256"}],"outputs":[{"name":"","type":"tuple","internalType":"struct AttackOutcomeData","components":[{"name":"itemId","type":"uint256","internalType":"uint256"},{"name":"attackerId","type":"bytes32","internalType":"bytes32"},{"name":"defenderId","type":"bytes32","internalType":"bytes32"},{"name":"attackerDamageDelt","type":"int256","internalType":"int256"},{"name":"defenderDamageDelt","type":"int256","internalType":"int256"},{"name":"attackerDied","type":"bool","internalType":"bool"},{"name":"defenderDied","type":"bool","internalType":"bool"},{"name":"blockNumber","type":"uint256","internalType":"uint256"},{"name":"timestamp","type":"uint256","internalType":"uint256"},{"name":"damagePerHit","type":"int256[]","internalType":"int256[]"},{"name":"effectIds","type":"bytes32[]","internalType":"bytes32[]"},{"name":"hit","type":"bool[]","internalType":"bool[]"},{"name":"miss","type":"bool[]","internalType":"bool[]"},{"name":"crit","type":"bool[]","internalType":"bool[]"}]}],"stateMutability":"nonpayable"},{"type":"function","name":"getDied","inputs":[{"name":"entityId","type":"bytes32","internalType":"bytes32"}],"outputs":[{"name":"isDied","type":"bool","internalType":"bool"}],"stateMutability":"view"},{"type":"function","name":"getEncounter","inputs":[{"name":"encounterId","type":"bytes32","internalType":"bytes32"}],"outputs":[{"name":"","type":"tuple","internalType":"struct CombatEncounterData","components":[{"name":"encounterType","type":"uint8","internalType":"enum EncounterType"},{"name":"start","type":"uint256","internalType":"uint256"},{"name":"end","type":"uint256","internalType":"uint256"},{"name":"rewardsDistributed","type":"bool","internalType":"bool"},{"name":"currentTurn","type":"uint256","internalType":"uint256"},{"name":"currentTurnTimer","type":"uint256","internalType":"uint256"},{"name":"maxTurns","type":"uint256","internalType":"uint256"},{"name":"attackersAreMobs","type":"bool","internalType":"bool"},{"name":"defenders","type":"bytes32[]","internalType":"bytes32[]"},{"name":"attackers","type":"bytes32[]","internalType":"bytes32[]"}]}],"stateMutability":"view"},{"type":"function","name":"supportsInterface","inputs":[{"name":"interfaceId","type":"bytes4","internalType":"bytes4"}],"outputs":[{"name":"","type":"bool","internalType":"bool"}],"stateMutability":"pure"},{"type":"event","name":"Store_SpliceStaticData","inputs":[{"name":"tableId","type":"bytes32","indexed":true,"internalType":"ResourceId"},{"name":"keyTuple","type":"bytes32[]","indexed":false,"internalType":"bytes32[]"},{"name":"start","type":"uint48","indexed":false,"internalType":"uint48"},{"name":"data","type":"bytes","indexed":false,"internalType":"bytes"}],"anonymous":false},{"type":"error","name":"IntOverflow","inputs":[]},{"type":"error","name":"Slice_OutOfBounds","inputs":[{"name":"data","type":"bytes","internalType":"bytes"},{"name":"start","type":"uint256","internalType":"uint256"},{"name":"end","type":"uint256","internalType":"uint256"}]},{"type":"error","name":"World_AccessDenied","inputs":[{"name":"resource","type":"string","internalType":"string"},{"name":"caller","type":"address","internalType":"address"}]}],"bytecode":{"object":"0x608060405234801561001057600080fd5b50613ce8806100206000396000f3fe608060405234801561001057600080fd5b506004361061007d5760003560e01c80634dda27e81161005b5780634dda27e8146100dd578063def4c3ff146100fd578063e1af802c14610110578063f7b417671461011857600080fd5b806301ffc9a714610082578063119df25f146100aa57806345ec9354146100ca575b600080fd5b610095610090366004612dc2565b610138565b60405190151581526020015b60405180910390f35b6100b26101d1565b6040516001600160a01b0390911681526020016100a1565b604051601f1936013581526020016100a1565b6100f06100eb366004612e04565b6101e0565b6040516100a19190612e91565b61009561010b366004612e04565b610244565b6100b261024f565b61012b610126366004613108565b610259565b6040516100a191906132b7565b60007fffffffff0000000000000000000000000000000000000000000000000000000082167fb5dee1270000000000000000000000000000000000000000000000000000000014806101cb57507fffffffff0000000000000000000000000000000000000000000000000000000082167f01ffc9a700000000000000000000000000000000000000000000000000000000145b92915050565b60006101db610631565b905090565b61023b6040805161014081019091528060008152602001600081526020016000815260200160001515815260200160008152602001600081526020016000815260200160001515815260200160608152602001606081525090565b6101cb82610663565b60006101cb82610768565b60006101db61080e565b6102d5604051806101c001604052806000815260200160008019168152602001600080191681526020016000815260200160008152602001600015158152602001600015158152602001600081526020016000815260200160608152602001606081526020016060815260200160608152602001606081525090565b6102e6306102e16101d1565b610818565b6102f38360200151610244565b15801561030a57506103088360400151610244565b155b1561062a5760005b836101400151518110156105f7576000610349856101400151838151811061033c5761033c6133c2565b602002602001015161082e565b905080602001516103a15760405162461bcd60e51b815260206004820152601560248201527f616374696f6e20646f6573206e6f74206578697374000000000000000000000060448201526064015b60405180910390fd5b805160038111156103b4576103b4612e1d565b60ff16600103610552576103f585610140015183815181106103d8576103d86133c2565b6020026020010151866020015187604001518860000151886108e2565b876101200151858151811061040c5761040c6133c2565b60200260200101886101600151868151811061042a5761042a6133c2565b60200260200101896101a001518781518110610448576104486133c2565b93151560209485029190910190930192909252911515905252610120850151805183908110610479576104796133c2565b60200260200101518560600181815161049291906133ee565b9052506101608501518051839081106104ad576104ad6133c2565b602002602001015115610524576000600186610120015184815181106104d5576104d56133c2565b60200260200101516104e7919061342c565b6104f48760400151610e27565b6104fe9190613476565b90506000811361051057600160c08701525b61051e866040015182610eb9565b506105ee565b6001856101800151838151811061053d5761053d6133c2565b911515602092830291909101909101526105ee565b8051600381111561056557610565612e1d565b60ff166002036105a6576103f58561014001518381518110610589576105896133c2565b602002602001015186602001518760400151886000015188610f72565b60405162461bcd60e51b815260206004820152601a60248201527f616374696f6e2074797065206e6f74207265636f676e697a65640000000000006044820152606401610398565b50600101610312565b508260c001511561061157610611836040015160016113b4565b8260a001511561062a5761062a836020015160016113b4565b5090919050565b7fffffffffffffffffffffffffffffffffffffffffffffffffffffffffffffffcc36013560601c806106605750335b90565b6106be6040805161014081019091528060008152602001600081526020016000815260200160001515815260200160008152602001600081526020016000815260200160001515815260200160608152602001606081525090565b6040805160018082528183019092526000916020808301908036833701905050905082816000815181106106f4576106f46133c2565b60209081029190910101526000808061074d7f74625544000000000000000000000000436f6d626174456e636f756e74657200857ea308020120200120202001000000000000000000000000000000000000000061146d565b92509250925061075e83838361153d565b9695505050505050565b6040805160018082528183019092526000918291906020808301908036833701905050905082816000815181106107a1576107a16133c2565b602090810291909101015260006107fa7f74625544000000000000000000000000456e636f756e746572456e74697479008360017e21020120010000000000000000000000000000000000000000000000000000611620565b90506108068160f81c90565b949350505050565b60006101db6116dd565b61082a6108248361171c565b826117b9565b5050565b6040805180820190915260008082526020820152604080516001808252818301909252600091602080830190803683370190505090508281600081518110610878576108786133c2565b6020908102919091010152600080806108d17f7462554400000000000000000000000045666665637473000000000000000000857e0202000101000000000000000000000000000000000000000000000000000061146d565b92509250925061075e838383611805565b6000806000806108f061024f565b6001600160a01b03166354f1f2db896040518263ffffffff1660e01b815260040161091d91815260200190565b60e060405180830381865afa15801561093a573d6000803e3d6000fd5b505050506040513d601f19601f8201168201806040525081019061095e919061349d565b9050600061096a61024f565b6001600160a01b03166354f1f2db896040518263ffffffff1660e01b815260040161099791815260200190565b60e060405180830381865afa1580156109b4573d6000803e3d6000fd5b505050506040513d601f19601f820116820180604052508101906109d8919061349d565b905060006109e461024f565b6001600160a01b031663810c1dc1896040518263ffffffff1660e01b8152600401610a1191815260200190565b600060405180830381865afa158015610a2e573d6000803e3d6000fd5b505050506040513d6000823e601f3d908101601f19168201604052610a569190810190613580565b9050610a6061024f565b6040517f8255e8d5000000000000000000000000000000000000000000000000000000008152600481018a9052602481018d90526001600160a01b039190911690638255e8d590604401602060405180830381865afa158015610ac7573d6000803e3d6000fd5b505050506040513d601f19601f82011682018060405250810190610aeb9190613634565b610b375760405162461bcd60e51b815260206004820152600e60248201527f494e56414c494420414354494f4e0000000000000000000000000000000000006044820152606401610398565b6000610b4161024f565b6001600160a01b03166336915e548d6040518263ffffffff1660e01b8152600401610b6e91815260200190565b608060405180830381865afa158015610b8b573d6000803e3d6000fd5b505050506040513d601f19601f82011682018060405250810190610baf9190613651565b905060008360a001511315610e0b576040517f4dddf8370000000000000000000000000000000000000000000000000000000081526004810189905260009073__$227e4555c1f608352b26068e438454dd8b$__90634dddf83790602401600060405180830381865af4158015610c2a573d6000803e3d6000fd5b505050506040513d6000823e601f3d908101601f19168201604052610c5291908101906136b7565b9050610ca981600081518110610c6a57610c6a6133c2565b602002602001015167ffffffffffffffff1682600181518110610c8f57610c8f6133c2565b602002602001015167ffffffffffffffff1684888861185a565b90975095508615610dbe576001600083600001518660600151610ccc9190613476565b13610cd8576000610ce9565b82516060860151610ce99190613476565b610cf3919061375c565b610d1983878685600281518110610d0c57610d0c6133c2565b6020026020010151611926565b610d239190613476565b9750610d636040518060400160405280600481526020017f48495421000000000000000000000000000000000000000000000000000000008152506119f6565b8515610db957610da76040518060400160405280600581526020017f43524954210000000000000000000000000000000000000000000000000000008152506119f6565b610db2600289613773565b9750600195505b610e05565b610dfc6040518060400160405280600581526020017f4d495353210000000000000000000000000000000000000000000000000000008152506119f6565b60009750600096505b50610e18565b6000965060009550600094505b50505050955095509592505050565b604080516001808252818301909252600091829190602080830190803683370190505090508281600081518110610e6057610e606133c2565b602090810291909101015260006108067f74625544000000000000000000000000537461747300000000000000000000008360057ee1080020200120202020200000000000000000000000000000000000000000611620565b604080516001808252818301909252600091602080830190803683370190505090508281600081518110610eef57610eef6133c2565b602002602001018181525050610f6d7f746255440000000000000000000000005374617473000000000000000000000060001b82600585604051602001610f3891815260200190565b60408051601f198184030181529190527ee1080020200120202020200000000000000000000000000000000000000000611a6a565b505050565b600080600080610f8061024f565b6001600160a01b03166354f1f2db896040518263ffffffff1660e01b8152600401610fad91815260200190565b60e060405180830381865afa158015610fca573d6000803e3d6000fd5b505050506040513d601f19601f82011682018060405250810190610fee919061349d565b90506000610ffa61024f565b6001600160a01b03166354f1f2db896040518263ffffffff1660e01b815260040161102791815260200190565b60e060405180830381865afa158015611044573d6000803e3d6000fd5b505050506040513d601f19601f82011682018060405250810190611068919061349d565b9050600061107461024f565b6001600160a01b031663975bb835896040518263ffffffff1660e01b81526004016110a191815260200190565b600060405180830381865afa1580156110be573d6000803e3d6000fd5b505050506040513d6000823e601f3d908101601f191682016040526110e691908101906137bf565b90506110f061024f565b6040517f8255e8d5000000000000000000000000000000000000000000000000000000008152600481018a9052602481018d90526001600160a01b039190911690638255e8d590604401602060405180830381865afa158015611157573d6000803e3d6000fd5b505050506040513d601f19601f8201168201806040525081019061117b9190613634565b6111c75760405162461bcd60e51b815260206004820152600e60248201527f494e56414c494420414354494f4e0000000000000000000000000000000000006044820152606401610398565b60006111d161024f565b6001600160a01b0316637fe3cf018d6040518263ffffffff1660e01b81526004016111fe91815260200190565b606060405180830381865afa15801561121b573d6000803e3d6000fd5b505050506040513d601f19601f8201168201806040525081019061123f9190613840565b905060008360a001511315610e0b576040517f4dddf8370000000000000000000000000000000000000000000000000000000081526004810189905260009073__$227e4555c1f608352b26068e438454dd8b$__90634dddf83790602401600060405180830381865af41580156112ba573d6000803e3d6000fd5b505050506040513d6000823e601f3d908101601f191682016040526112e291908101906136b7565b9050611339816000815181106112fa576112fa6133c2565b602002602001015167ffffffffffffffff168260018151811061131f5761131f6133c2565b602002602001015167ffffffffffffffff16848888611b20565b90975095508615610dbe5761136b82848360028151811061135c5761135c6133c2565b60200260200101518888611bdb565b97506113ab6040518060400160405280600c81526020017f4d616769632064616d61676500000000000000000000000000000000000000008152506119f6565b610d6388611d95565b6040805160018082528183019092526000916020808301908036833701905050905082816000815181106113ea576113ea6133c2565b602002602001018181525050610f6d7f74625544000000000000000000000000456e636f756e746572456e746974790060001b8260018560405160200161143891151560f81b815260010190565b60408051601f198184030181529190527e21020120010000000000000000000000000000000000000000000000000000611a6a565b606060006060600061147d6116dd565b9050306001600160a01b038216036114a65761149a878787611e08565b93509350935050611534565b6040517f419b58fd0000000000000000000000000000000000000000000000000000000081526001600160a01b0382169063419b58fd906114ef908a908a908a9060040161387c565b600060405180830381865afa15801561150c573d6000803e3d6000fd5b505050506040513d6000823e601f3d908101601f1916820160405261149a919081019061392d565b93509350939050565b6115986040805161014081019091528060008152602001600081526020016000815260200160001515815260200160008152602001600081526020016000815260200160001515815260200160608152602001606081525090565b6115a184611f10565b80151560e08a015260c0890182905260a089018390526080890184905284151560608a01526040890186905260208901879052888860018111156115e7576115e7612e1d565b60018111156115f8576115f8612e1d565b815250505050505050505061160d8383611f94565b6101208301526101008201529392505050565b60008061162b6116dd565b9050306001600160a01b038216036116515761164986868686611fe3565b915050610806565b6040517f8c364d590000000000000000000000000000000000000000000000000000000081526001600160a01b03821690638c364d599061169c90899089908990899060040161399a565b602060405180830381865afa1580156116b9573d6000803e3d6000fd5b505050506040513d601f19601f8201168201806040525081019061164991906139c9565b7f629a4c26e296b22a8e0856e9f6ecb2d1008d7e00081111962cd175fa7488e175546000906001600160a01b031680611717573391505090565b919050565b60408051600180825281830190925260009182919060208083019080368337019050509050826001600160a01b031660001b81600081518110611761576117616133c2565b602090810291909101015260006108067f7462776f726c6400000000000000000053797374656d5265676973747279000083837e20010020000000000000000000000000000000000000000000000000000000611620565b6117c38282612010565b61082a576117d082612075565b816040517fd787b737000000000000000000000000000000000000000000000000000000008152600401610398929190613a0e565b6040805180820190915260008082526020820152611822846121b2565b80151560208401528282600381111561183d5761183d612e1d565b600381111561184e5761184e612e1d565b81525050509392505050565b600080806001670de0b6b3a76400006118756103e88b613a39565b61188788602001518a602001516121e8565b611891919061375c565b61189b9190613a4d565b6118a5919061375c565b905060006001670de0b6b3a76400006118c3876020015160006121e8565b6118cf6101908c613a39565b6118d9919061375c565b6118e39190613a4d565b6118ed919061375c565b9050808210159350831561191a5761190660088261375c565b606088015161191590846133ee565b101592505b50509550959350505050565b60008061193f8360041867ffffffffffffffff16612211565b9050600084608001518560600151836119589190613a61565b131561197257606085015161196d9083613a61565b611978565b84608001515b876040015161198791906133ee565b9050600161199987600001518361224d565b6119a39190613773565b92506119e36040518060400160405280600681526020017f44414d41474500000000000000000000000000000000000000000000000000008152506119f6565b6119ec83611d95565b5050949350505050565b611a6781604051602401611a0a9190613a75565b60408051601f198184030181529190526020810180517bffffffffffffffffffffffffffffffffffffffffffffffffffffffff167f41304fac000000000000000000000000000000000000000000000000000000001790526122b7565b50565b6000611a746116dd565b9050306001600160a01b03821603611a9857611a9386868686866122d8565b611b18565b6040517f390baae00000000000000000000000000000000000000000000000000000000081526001600160a01b0382169063390baae090611ae59089908990899089908990600401613a88565b600060405180830381600087803b158015611aff57600080fd5b505af1158015611b13573d6000803e3d6000fd5b505050505b505050505050565b600080806001670de0b6b3a7640000611b3b6103e88b613a39565b611b4d88604001518a600001516121e8565b611b57919061375c565b611b619190613a4d565b611b6b919061375c565b905060006001670de0b6b3a7640000611b89876040015160006121e8565b611b956102588c613a39565b611b9f919061375c565b611ba99190613a4d565b611bb3919061375c565b9050808210159350831561191a57611bcc60088261375c565b604088015161191590846133ee565b6000611c1b6040518060400160405280600681526020017f4d414749432100000000000000000000000000000000000000000000000000008152506119f6565b84516000128015611c30575060008560200151135b15611cf3578451602086015160009190611c4b9060016133ee565b611c5f9067ffffffffffffffff8816613a39565b1115611c8e576020860151611c759060016133ee565b611c899067ffffffffffffffff8716613a39565b611c91565b85515b8760200151611ca091906133ee565b905060016000846040015113611cb7576000611cbd565b83604001515b611cc7919061375c565b6001611cd786604001518461224d565b611ce19190613773565b611ceb9190613476565b915050611d8c565b84516000138015611d08575060008560200151125b15611d8c578451600190611d1c90826133ee565b6020870151611d2c9060016133ee565b611d409067ffffffffffffffff8816613a39565b1115611d6d576020860151611d5f9067ffffffffffffffff8716613a39565b611d6890613acf565b611d70565b85515b8760200151611d7f91906133ee565b611d899190613773565b90505b95945050505050565b611a6781604051602401611dab91815260200190565b60408051601f198184030181529190526020810180517bffffffffffffffffffffffffffffffffffffffffffffffffffffffff167f4e0c1d1d000000000000000000000000000000000000000000000000000000001790526122b7565b6060600060606000611e19856122f4565b9050611e26878783612317565b93506000611e3386612350565b90508015611f0557611e45888861238d565b935066ffffffffffffff841667ffffffffffffffff811115611e6957611e69612f3c565b6040519080825280601f01601f191660200182016040528015611e93576020820181803683370190505b5092506020830160005b828160ff161015611f02576000611eb58b8b846123a0565b90506000611ed2888460ff166028026038011c64ffffffffff1690565b9050611ee18260008387612420565b611eeb8185613b07565b935050508080611efa90613b1a565b915050611e9d565b50505b505093509350939050565b600080600080600080600080611f2a896000016020015190565b60f81c6001811115611f3e57611f3e612e1d565b60218a015160418b015160618c0151929a509098509650611f60905b60f81c90565b60628a015160828b015160a28c015160c28d015193985091965094509250611f8790611f5a565b9050919395975091939597565b6060806000603885901c64ffffffffff16611fb8611fb38684846124eb565b612579565b935090508064ffffffffff606087901c1601611fd8611fb38684846124eb565b925050509250929050565b6000611d8c611ff2868661258a565b60ff858116601b0360080285901c1661200b85876125e0565b612619565b600061205e7f6e730000000000000000000000000000000000000000000000000000000000007dffffffffffffffffffffffffffff000000000000000000000000000000008516178361266a565b8061206e575061206e838361266a565b9392505050565b606081601081901b600061208883612733565b9050827fffffffffffffffffffffffffffff0000000000000000000000000000000000008316156120e3576120de7fffffffffffffffffffffffffffff000000000000000000000000000000000000841661274a565b61211a565b6040518060400160405280600681526020017f3c726f6f743e00000000000000000000000000000000000000000000000000008152505b7fffffffffffffffffffffffffffffffff000000000000000000000000000000008316156121505761214b8361274a565b612187565b6040518060400160405280600681526020017f3c726f6f743e00000000000000000000000000000000000000000000000000008152505b60405160200161219993929190613b39565b6040516020818303038152906040529350505050919050565b6020810151600090819060f81c60038111156121d0576121d0612e1d565b60218401519092506121e190611f5a565b9050915091565b6000670de0b6b3a7640000612207612201600286613a4d565b846127ee565b61206e919061375c565b806000811215611717576040517f44dddea200000000000000000000000000000000000000000000000000000000815260040160405180910390fd5b600080612284670de0b6b3a76400006103e88161226b88600561375c565b612275919061375c565b61227f9190613a4d565b61281b565b905082670de0b6b3a76400006122a38361229e8385613773565b61283a565b6122ad919061342c565b61080691906133ee565b80516a636f6e736f6c652e6c6f67602083016000808483855afa5050505050565b6122ed85856122e784876125e0565b85612863565b5050505050565b6000600861230460026020613bc7565b61230e919061375c565b9190911c919050565b606081600003612336575060408051602081019091526000815261206e565b6000612342858561258a565b9050611d8c81600085612b07565b6000600860018061236360026020613bc7565b61236d9190613bc7565b6123779190613bc7565b612381919061375c565b8260ff911c1692915050565b600061206e61239c8484612b2a565b5490565b600083836040516020016123b5929190613bda565b604051602081830303815290604052805190602001208260f81b7effffffffffffffffffffffffffffffffffffffffffffffffffffffffffffff19167f3b4102da22e32d82fc925482184f16c09fd4281692720b87d124aef6da48a0f1181860001c90509392505050565b82156124a7576020831061244a5760208304840193506020838161244657612446613416565b0692505b82156124a757602083900360008184101561246d5750600019600884021c612477565b50600019600882021c5b8554600886021b8184511682198216178452508184116124985750506124e5565b50600194909401939182900391015b5b602082106124c95783548152600190930192601f19909101906020016124a8565b81156124e55780518454600019600885021c9182169119161781525b50505050565b6000818311806124fb5750835182115b15612538578383836040517f23230fa300000000000000000000000000000000000000000000000000000000815260040161039893929190613c16565b602084016125468482613b07565b905060006125548585613bc7565b6fffffffffffffffffffffffffffffffff1660809290921b9190911795945050505050565b6060600061206e8360206000612b80565b6000828260405160200161259f929190613bda565b60408051601f1981840301815291905280516020909101207f86425bff6b57326c7859e89024fe4f238ca327a1ae4a230180dd2f0e88aaa7d9189392505050565b600080805b8360ff168110156126115761260760ff601b83900360080287901c1683613b07565b91506001016125e5565b509392505050565b60006020821061263f5760208204840193506020828161263b5761263b613416565b0691505b508254600882021b602082900380841115612611576001850154600882021c82179150509392505050565b6040805160028082526060820183526000928392919060208301908036833701905050905083816000815181106126a3576126a36133c2565b602002602001018181525050826001600160a01b031660001b816001815181106126cf576126cf6133c2565b602090810291909101015260006127277f7462776f726c640000000000000000005265736f75726365416363657373000083837e01010001000000000000000000000000000000000000000000000000000000611620565b9050611d8c8160f81c90565b600061274160706010613b07565b9190911b919050565b606060005b60108110156127af577fffffffffffffffffffffffffffffffff000000000000000000000000000000008316600882021b7fff0000000000000000000000000000000000000000000000000000000000000016156127af5760010161274f565b604080517fffffffffffffffffffffffffffffffff00000000000000000000000000000000851660208201528151603090910190915281815280610806565b6000808212612808576128018284613b07565b90506101cb565b61281182613acf565b6128019084613bc7565b6000670de0b6b3a7640000612830838561375c565b61206e9190613a4d565b6000670de0b6b3a76400008261284f85612211565b6128599190613773565b61206e919061342c565b7f6f74000000000000000000000000000000000000000000000000000000000000847fffff00000000000000000000000000000000000000000000000000000000000016036128ed57837f8c0b5119d4cec7b284c6b1b39252a03d1e2f2d7451a5895562524c113bb952be8484846040516128e093929190613c3b565b60405180910390a26124e5565b60006128f9858561258a565b9050600061290686612bfb565b905060005b81518110156129db576000828281518110612928576129286133c2565b602002602001015190506129546004826affffffffffffffffffffff1916612c8490919063ffffffff16565b156129d2576040517f964f667d000000000000000000000000000000000000000000000000000000008152606082901c9063964f667d9061299f908b908b908b908b90600401613c6e565b600060405180830381600087803b1580156129b957600080fd5b505af11580156129cd573d6000803e3d6000fd5b505050505b5060010161290b565b50857f8c0b5119d4cec7b284c6b1b39252a03d1e2f2d7451a5895562524c113bb952be868686604051612a1093929190613c3b565b60405180910390a2612a2b828565ffffffffffff1685612ca2565b60005b8151811015612afe576000828281518110612a4b57612a4b6133c2565b60200260200101519050612a776008826affffffffffffffffffffff1916612c8490919063ffffffff16565b15612af5576040517fa8ba8721000000000000000000000000000000000000000000000000000000008152606082901c9063a8ba872190612ac2908b908b908b908b90600401613c6e565b600060405180830381600087803b158015612adc57600080fd5b505af1158015612af0573d6000803e3d6000fd5b505050505b50600101612a2e565b50505050505050565b60405160208101601f19603f848401011660405282825261261185858584612420565b60008282604051602001612b3f929190613bda565b60408051601f1981840301815291905280516020909101207f14e2fcc58e58e68ec7edc30c8d50dccc3ce2714a623ec81f46b6a63922d76569189392505050565b60606000612b8e8560801c90565b90506fffffffffffffffffffffffffffffffff85166000858281612bb457612bb4613416565b04905060405193506020840160208202810160405281855260005b82811015612bef578451871c825293870193602090910190600101612bcf565b50505050509392505050565b60408051600180825281830190925260609160009190602080830190803683370190505090508281600081518110612c3557612c356133c2565b60209081029190910101526000612c6d7f746273746f726500000000000000000053746f7265486f6f6b730000000000008383612cb8565b9050610806612c7f82600084516124eb565b612cf2565b60008160ff1682612c958560581c90565b1660ff1614905092915050565b610f6d83838351612cb38560200190565b612d03565b6060610806612cc88585856123a0565b6000612ced85612cd8898961238d565b9060ff166028026038011c64ffffffffff1690565b612b07565b6060600061206e8360156000612b80565b8215612d7d5760208310612d2d57602083048401935060208381612d2957612d29613416565b0692505b8215612d7d5760208390036000600019600885021c1990506008850281811c91508351811c9050811987541682821617875550818411612d6e5750506124e5565b50600194909401939182900391015b5b60208210612d9f5780518455600190930192601f1990910190602001612d7e565b81156124e5576000600019600884021c8554835182191691161785555050505050565b600060208284031215612dd457600080fd5b81357fffffffff000000000000000000000000000000000000000000000000000000008116811461206e57600080fd5b600060208284031215612e1657600080fd5b5035919050565b634e487b7160e01b600052602160045260246000fd5b60028110612e5157634e487b7160e01b600052602160045260246000fd5b9052565b60008151808452602080850194506020840160005b83811015612e8657815187529582019590820190600101612e6a565b509495945050505050565b60208152612ea3602082018351612e33565b602082015160408201526040820151606082015260006060830151612ecc608084018215159052565b50608083015160a083015260a083015160c083015260c083015160e083015260e0830151610100612f008185018315159052565b808501519150506101406101208181860152612f20610160860184612e55565b90860151858203601f19018387015290925061075e8382612e55565b634e487b7160e01b600052604160045260246000fd5b6040516101c0810167ffffffffffffffff81118282101715612f7657612f76612f3c565b60405290565b604051610100810167ffffffffffffffff81118282101715612f7657612f76612f3c565b6040516060810167ffffffffffffffff81118282101715612f7657612f76612f3c565b604051601f8201601f1916810167ffffffffffffffff81118282101715612fec57612fec612f3c565b604052919050565b8015158114611a6757600080fd5b803561171781612ff4565b600067ffffffffffffffff82111561302757613027612f3c565b5060051b60200190565b600082601f83011261304257600080fd5b813560206130576130528361300d565b612fc3565b8083825260208201915060208460051b87010193508684111561307957600080fd5b602086015b84811015613095578035835291830191830161307e565b509695505050505050565b600082601f8301126130b157600080fd5b813560206130c16130528361300d565b8083825260208201915060208460051b8701019350868411156130e357600080fd5b602086015b848110156130955780356130fb81612ff4565b83529183019183016130e8565b6000806040838503121561311b57600080fd5b823567ffffffffffffffff8082111561313357600080fd5b908401906101c0828703121561314857600080fd5b613150612f52565b823581526020830135602082015260408301356040820152606083013560608201526080830135608082015261318860a08401613002565b60a082015261319960c08401613002565b60c082015260e083013560e082015261010080840135818301525061012080840135838111156131c857600080fd5b6131d489828701613031565b82840152505061014080840135838111156131ee57600080fd5b6131fa89828701613031565b828401525050610160808401358381111561321457600080fd5b613220898287016130a0565b828401525050610180808401358381111561323a57600080fd5b613246898287016130a0565b8284015250506101a0808401358381111561326057600080fd5b61326c898287016130a0565b91830191909152509660209590950135955050505050565b60008151808452602080850194506020840160005b83811015612e86578151151587529582019590820190600101613299565b6020815281516020820152602082015160408201526040820151606082015260608201516080820152608082015160a0820152600060a08301516132ff60c084018215159052565b5060c083015180151560e08401525060e083015161010083810191909152830151610120808401919091528301516101c06101408085018290526133476101e0860184612e55565b9250808601519050601f196101608187860301818801526133688584612e55565b9450808801519250506101808187860301818801526133878584613284565b9450808801519250506101a08187860301818801526133a68584613284565b90880151878203909201848801529350905061075e8382613284565b634e487b7160e01b600052603260045260246000fd5b634e487b7160e01b600052601160045260246000fd5b808201828112600083128015821682158216171561340e5761340e6133d8565b505092915050565b634e487b7160e01b600052601260045260246000fd5b60008261343b5761343b613416565b60001983147f800000000000000000000000000000000000000000000000000000000000000083141615613471576134716133d8565b500590565b8181036000831280158383131683831282161715613496576134966133d8565b5092915050565b600060e082840312156134af57600080fd5b60405160e0810181811067ffffffffffffffff821117156134d2576134d2612f3c565b8060405250825181526020830151602082015260408301516040820152606083015160608201526080830151608082015260a083015160a082015260c083015160c08201528091505092915050565b600082601f83011261353257600080fd5b815160206135426130528361300d565b8083825260208201915060208460051b87010193508684111561356457600080fd5b602086015b848110156130955780518352918301918301613569565b60006020828403121561359257600080fd5b815167ffffffffffffffff808211156135aa57600080fd5b9083019061010082860312156135bf57600080fd5b6135c7612f7c565b825181526020830151602082015260408301516040820152606083015160608201526080830151608082015260a083015160a082015260c083015160c082015260e08301518281111561361957600080fd5b61362587828601613521565b60e08301525095945050505050565b60006020828403121561364657600080fd5b815161206e81612ff4565b60006080828403121561366357600080fd5b6040516080810181811067ffffffffffffffff8211171561368657613686612f3c565b8060405250825181526020830151602082015260408301516040820152606083015160608201528091505092915050565b600060208083850312156136ca57600080fd5b825167ffffffffffffffff808211156136e257600080fd5b818501915085601f8301126136f657600080fd5b81516137046130528261300d565b81815260059190911b8301840190848101908883111561372357600080fd5b938501935b8285101561375057845184811681146137415760008081fd5b82529385019390850190613728565b98975050505050505050565b80820281158282048414176101cb576101cb6133d8565b808202600082127f8000000000000000000000000000000000000000000000000000000000000000841416156137ab576137ab6133d8565b81810583148215176101cb576101cb6133d8565b6000602082840312156137d157600080fd5b815167ffffffffffffffff808211156137e957600080fd5b90830190606082860312156137fd57600080fd5b613805612fa0565b825181526020830151602082015260408301518281111561382557600080fd5b61383187828601613521565b60408301525095945050505050565b60006060828403121561385257600080fd5b61385a612fa0565b8251815260208301516020820152604083015160408201528091505092915050565b8381526060602082015260006138956060830185612e55565b9050826040830152949350505050565b60005b838110156138c05781810151838201526020016138a8565b50506000910152565b600082601f8301126138da57600080fd5b815167ffffffffffffffff8111156138f4576138f4612f3c565b6139076020601f19601f84011601612fc3565b81815284602083860101111561391c57600080fd5b6108068260208301602087016138a5565b60008060006060848603121561394257600080fd5b835167ffffffffffffffff8082111561395a57600080fd5b613966878388016138c9565b945060208601519350604086015191508082111561398357600080fd5b50613990868287016138c9565b9150509250925092565b8481526080602082015260006139b36080830186612e55565b60ff949094166040830152506060015292915050565b6000602082840312156139db57600080fd5b5051919050565b600081518084526139fa8160208601602086016138a5565b601f01601f19169290920160200192915050565b604081526000613a2160408301856139e2565b90506001600160a01b03831660208301529392505050565b600082613a4857613a48613416565b500690565b600082613a5c57613a5c613416565b500490565b600082613a7057613a70613416565b500790565b60208152600061206e60208301846139e2565b85815260a060208201526000613aa160a0830187612e55565b60ff861660408401528281036060840152613abc81866139e2565b9150508260808301529695505050505050565b60007f80000000000000000000000000000000000000000000000000000000000000008203613b0057613b006133d8565b5060000390565b808201808211156101cb576101cb6133d8565b600060ff821660ff8103613b3057613b306133d8565b60010192915050565b7fffff0000000000000000000000000000000000000000000000000000000000008416815260007f3a000000000000000000000000000000000000000000000000000000000000008060028401528451613b9a8160038601602089016138a5565b808401905081600382015284519150613bba8260048301602088016138a5565b0160040195945050505050565b818103818111156101cb576101cb6133d8565b8281526000602080830184516020860160005b82811015613c0957815184529284019290840190600101613bed565b5091979650505050505050565b606081526000613c2960608301866139e2565b60208301949094525060400152919050565b606081526000613c4e6060830186612e55565b65ffffffffffff85166020840152828103604084015261075e81856139e2565b848152608060208201526000613c876080830186612e55565b65ffffffffffff851660408401528281036060840152613ca781856139e2565b97965050505050505056fea264697066735822122040a92542abfab5a8c8fef311e114f878062a5c67b70671bfec00d3b4f5aabdd664736f6c63430008180033","linkReferences":{"src/libraries/LibChunks.sol":{"LibChunks":[{"start":3088,"length":20},{"start":4768,"length":20}]}}},"methodIdentifiers":{"_msgSender()":"119df25f","_msgValue()":"45ec9354","_world()":"e1af802c","executeAttack((uint256,bytes32,bytes32,int256,int256,bool,bool,uint256,uint256,int256[],bytes32[],bool[],bool[],bool[]),uint256)":"f7b41767","getDied(bytes32)":"def4c3ff","getEncounter(bytes32)":"4dda27e8","supportsInterface(bytes4)":"01ffc9a7"},"id":251}