{"abi":[{"type":"function","name":"_msgSender","inputs":[],"outputs":[{"name":"sender","type":"address","internalType":"address"}],"stateMutability":"view"},{"type":"function","name":"_msgValue","inputs":[],"outputs":[{"name":"value","type":"uint256","internalType":"uint256"}],"stateMutability":"pure"},{"type":"function","name":"_world","inputs":[],"outputs":[{"name":"","type":"address","internalType":"address"}],"stateMutability":"view"},{"type":"function","name":"executeAttack","inputs":[{"name":"attackOutcomeData","type":"tuple","internalType":"struct AttackOutcomeData","components":[{"name":"itemId","type":"uint256","internalType":"uint256"},{"name":"attackerId","type":"bytes32","internalType":"bytes32"},{"name":"defenderId","type":"bytes32","internalType":"bytes32"},{"name":"attackerDamageDelt","type":"int256","internalType":"int256"},{"name":"defenderDamageDelt","type":"int256","internalType":"int256"},{"name":"attackerDied","type":"bool","internalType":"bool"},{"name":"defenderDied","type":"bool","internalType":"bool"},{"name":"blockNumber","type":"uint256","internalType":"uint256"},{"name":"timestamp","type":"uint256","internalType":"uint256"},{"name":"damagePerHit","type":"int256[]","internalType":"int256[]"},{"name":"effectIds","type":"bytes32[]","internalType":"bytes32[]"},{"name":"hit","type":"bool[]","internalType":"bool[]"},{"name":"miss","type":"bool[]","internalType":"bool[]"},{"name":"crit","type":"bool[]","internalType":"bool[]"}]},{"name":"randomNumber","type":"uint256","internalType":"uint256"}],"outputs":[{"name":"","type":"tuple","internalType":"struct AttackOutcomeData","components":[{"name":"itemId","type":"uint256","internalType":"uint256"},{"name":"attackerId","type":"bytes32","internalType":"bytes32"},{"name":"defenderId","type":"bytes32","internalType":"bytes32"},{"name":"attackerDamageDelt","type":"int256","internalType":"int256"},{"name":"defenderDamageDelt","type":"int256","internalType":"int256"},{"name":"attackerDied","type":"bool","internalType":"bool"},{"name":"defenderDied","type":"bool","internalType":"bool"},{"name":"blockNumber","type":"uint256","internalType":"uint256"},{"name":"timestamp","type":"uint256","internalType":"uint256"},{"name":"damagePerHit","type":"int256[]","internalType":"int256[]"},{"name":"effectIds","type":"bytes32[]","internalType":"bytes32[]"},{"name":"hit","type":"bool[]","internalType":"bool[]"},{"name":"miss","type":"bool[]","internalType":"bool[]"},{"name":"crit","type":"bool[]","internalType":"bool[]"}]}],"stateMutability":"nonpayable"},{"type":"function","name":"getDied","inputs":[{"name":"entityId","type":"bytes32","internalType":"bytes32"}],"outputs":[{"name":"isDied","type":"bool","internalType":"bool"}],"stateMutability":"view"},{"type":"function","name":"getEncounter","inputs":[{"name":"encounterId","type":"bytes32","internalType":"bytes32"}],"outputs":[{"name":"","type":"tuple","internalType":"struct CombatEncounterData","components":[{"name":"encounterType","type":"uint8","internalType":"enum EncounterType"},{"name":"start","type":"uint256","internalType":"uint256"},{"name":"end","type":"uint256","internalType":"uint256"},{"name":"rewardsDistributed","type":"bool","internalType":"bool"},{"name":"currentTurn","type":"uint256","internalType":"uint256"},{"name":"currentTurnTimer","type":"uint256","internalType":"uint256"},{"name":"maxTurns","type":"uint256","internalType":"uint256"},{"name":"attackersAreMobs","type":"bool","internalType":"bool"},{"name":"defenders","type":"bytes32[]","internalType":"bytes32[]"},{"name":"attackers","type":"bytes32[]","internalType":"bytes32[]"}]}],"stateMutability":"view"},{"type":"function","name":"supportsInterface","inputs":[{"name":"interfaceId","type":"bytes4","internalType":"bytes4"}],"outputs":[{"name":"","type":"bool","internalType":"bool"}],"stateMutability":"pure"},{"type":"event","name":"Store_SpliceStaticData","inputs":[{"name":"tableId","type":"bytes32","indexed":true,"internalType":"ResourceId"},{"name":"keyTuple","type":"bytes32[]","indexed":false,"internalType":"bytes32[]"},{"name":"start","type":"uint48","indexed":false,"internalType":"uint48"},{"name":"data","type":"bytes","indexed":false,"internalType":"bytes"}],"anonymous":false},{"type":"error","name":"IntOverflow","inputs":[]},{"type":"error","name":"Slice_OutOfBounds","inputs":[{"name":"data","type":"bytes","internalType":"bytes"},{"name":"start","type":"uint256","internalType":"uint256"},{"name":"end","type":"uint256","internalType":"uint256"}]},{"type":"error","name":"World_AccessDenied","inputs":[{"name":"resource","type":"string","internalType":"string"},{"name":"caller","type":"address","internalType":"address"}]}],"bytecode":{"object":"0x608060405234801561001057600080fd5b50613e2e806100206000396000f3fe608060405234801561001057600080fd5b506004361061007d5760003560e01c80634dda27e81161005b5780634dda27e8146100dd578063def4c3ff146100fd578063e1af802c14610110578063f7b417671461011857600080fd5b806301ffc9a714610082578063119df25f146100aa57806345ec9354146100ca575b600080fd5b610095610090366004612fb5565b610138565b60405190151581526020015b60405180910390f35b6100b26101d1565b6040516001600160a01b0390911681526020016100a1565b604051601f1936013581526020016100a1565b6100f06100eb366004612ff7565b6101e0565b6040516100a19190613084565b61009561010b366004612ff7565b610244565b6100b261024f565b61012b6101263660046132d8565b610259565b6040516100a19190613487565b60007fffffffff0000000000000000000000000000000000000000000000000000000082167fb5dee1270000000000000000000000000000000000000000000000000000000014806101cb57507fffffffff0000000000000000000000000000000000000000000000000000000082167f01ffc9a700000000000000000000000000000000000000000000000000000000145b92915050565b60006101db610631565b905090565b61023b6040805161014081019091528060008152602001600081526020016000815260200160001515815260200160008152602001600081526020016000815260200160001515815260200160608152602001606081525090565b6101cb82610663565b60006101cb82610768565b60006101db61080e565b6102d5604051806101c001604052806000815260200160008019168152602001600080191681526020016000815260200160008152602001600015158152602001600015158152602001600081526020016000815260200160608152602001606081526020016060815260200160608152602001606081525090565b6102e6306102e16101d1565b610818565b6102f38360200151610244565b15801561030a57506103088360400151610244565b155b1561062a5760005b836101400151518110156105f7576000610349856101400151838151811061033c5761033c613592565b602002602001015161082e565b905080602001516103a15760405162461bcd60e51b815260206004820152601560248201527f616374696f6e20646f6573206e6f74206578697374000000000000000000000060448201526064015b60405180910390fd5b805160038111156103b4576103b4613010565b60ff16600103610552576103f585610140015183815181106103d8576103d8613592565b6020026020010151866020015187604001518860000151886108e2565b876101200151858151811061040c5761040c613592565b60200260200101886101600151868151811061042a5761042a613592565b60200260200101896101a00151878151811061044857610448613592565b9315156020948502919091019093019290925291151590525261012085015180518390811061047957610479613592565b60200260200101518560600181815161049291906135be565b9052506101608501518051839081106104ad576104ad613592565b602002602001015115610524576000600186610120015184815181106104d5576104d5613592565b60200260200101516104e791906135fc565b6104f48760400151610dba565b6104fe9190613646565b90506000811361051057600160c08701525b61051e866040015182610e4c565b506105ee565b6001856101800151838151811061053d5761053d613592565b911515602092830291909101909101526105ee565b8051600381111561056557610565613010565b60ff166002036105a6576103f5856101400151838151811061058957610589613592565b602002602001015186602001518760400151886000015188610f05565b60405162461bcd60e51b815260206004820152601a60248201527f616374696f6e2074797065206e6f74207265636f676e697a65640000000000006044820152606401610398565b50600101610312565b508260c001511561061157610611836040015160016112da565b8260a001511561062a5761062a836020015160016112da565b5090919050565b7fffffffffffffffffffffffffffffffffffffffffffffffffffffffffffffffcc36013560601c806106605750335b90565b6106be6040805161014081019091528060008152602001600081526020016000815260200160001515815260200160008152602001600081526020016000815260200160001515815260200160608152602001606081525090565b6040805160018082528183019092526000916020808301908036833701905050905082816000815181106106f4576106f4613592565b60209081029190910101526000808061074d7f74625544000000000000000000000000436f6d626174456e636f756e74657200857ea3080201202001202020010000000000000000000000000000000000000000611393565b92509250925061075e838383611463565b9695505050505050565b6040805160018082528183019092526000918291906020808301908036833701905050905082816000815181106107a1576107a1613592565b602090810291909101015260006107fa7f74625544000000000000000000000000456e636f756e746572456e74697479008360017e21020020010000000000000000000000000000000000000000000000000000611546565b90506108068160f81c90565b949350505050565b60006101db611603565b61082a61082483611642565b826116df565b5050565b604080518082019091526000808252602082015260408051600180825281830190925260009160208083019080368337019050509050828160008151811061087857610878613592565b6020908102919091010152600080806108d17f7462554400000000000000000000000045666665637473000000000000000000857e02020001010000000000000000000000000000000000000000000000000000611393565b92509250925061075e83838361172b565b6000806000806108f061024f565b6001600160a01b03166354f1f2db896040518263ffffffff1660e01b815260040161091d91815260200190565b60e060405180830381865afa15801561093a573d6000803e3d6000fd5b505050506040513d601f19601f8201168201806040525081019061095e919061366d565b9050600061096a61024f565b6001600160a01b03166354f1f2db896040518263ffffffff1660e01b815260040161099791815260200190565b60e060405180830381865afa1580156109b4573d6000803e3d6000fd5b505050506040513d601f19601f820116820180604052508101906109d8919061366d565b905060006109e461024f565b6001600160a01b031663810c1dc1896040518263ffffffff1660e01b8152600401610a1191815260200190565b600060405180830381865afa158015610a2e573d6000803e3d6000fd5b505050506040513d6000823e601f3d908101601f19168201604052610a569190810190613750565b9050610a6061024f565b6040517f8255e8d5000000000000000000000000000000000000000000000000000000008152600481018a9052602481018d90526001600160a01b039190911690638255e8d590604401602060405180830381865afa158015610ac7573d6000803e3d6000fd5b505050506040513d601f19601f82011682018060405250810190610aeb9190613804565b610b375760405162461bcd60e51b815260206004820152600e60248201527f494e56414c494420414354494f4e0000000000000000000000000000000000006044820152606401610398565b6000610b428c611780565b905060008360a001511315610d9e576040517f4dddf8370000000000000000000000000000000000000000000000000000000081526004810189905260009073__$227e4555c1f608352b26068e438454dd8b$__90634dddf83790602401600060405180830381865af4158015610bbd573d6000803e3d6000fd5b505050506040513d6000823e601f3d908101601f19168201604052610be59190810190613821565b9050610c3c81600081518110610bfd57610bfd613592565b602002602001015167ffffffffffffffff1682600181518110610c2257610c22613592565b602002602001015167ffffffffffffffff16848888611852565b90975095508615610d51576001600083600001518660600151610c5f9190613646565b13610c6b576000610c7c565b82516060860151610c7c9190613646565b610c8691906138c6565b610cac83878685600281518110610c9f57610c9f613592565b602002602001015161191e565b610cb69190613646565b9750610cf66040518060400160405280600481526020017f48495421000000000000000000000000000000000000000000000000000000008152506119ee565b8515610d4c57610d3a6040518060400160405280600581526020017f43524954210000000000000000000000000000000000000000000000000000008152506119ee565b610d456002896138dd565b9750600195505b610d98565b610d8f6040518060400160405280600581526020017f4d495353210000000000000000000000000000000000000000000000000000008152506119ee565b60009750600096505b50610dab565b6000965060009550600094505b50505050955095509592505050565b604080516001808252818301909252600091829190602080830190803683370190505090508281600081518110610df357610df3613592565b602090810291909101015260006108067f74625544000000000000000000000000537461747300000000000000000000008360057ee1080020200120202020200000000000000000000000000000000000000000611546565b604080516001808252818301909252600091602080830190803683370190505090508281600081518110610e8257610e82613592565b602002602001018181525050610f007f746255440000000000000000000000005374617473000000000000000000000060001b82600585604051602001610ecb91815260200190565b60408051601f198184030181529190527ee1080020200120202020200000000000000000000000000000000000000000611a62565b505050565b600080600080610f1361024f565b6001600160a01b03166354f1f2db896040518263ffffffff1660e01b8152600401610f4091815260200190565b60e060405180830381865afa158015610f5d573d6000803e3d6000fd5b505050506040513d601f19601f82011682018060405250810190610f81919061366d565b90506000610f8d61024f565b6001600160a01b03166354f1f2db896040518263ffffffff1660e01b8152600401610fba91815260200190565b60e060405180830381865afa158015610fd7573d6000803e3d6000fd5b505050506040513d601f19601f82011682018060405250810190610ffb919061366d565b9050600061100761024f565b6001600160a01b031663975bb835896040518263ffffffff1660e01b815260040161103491815260200190565b600060405180830381865afa158015611051573d6000803e3d6000fd5b505050506040513d6000823e601f3d908101601f191682016040526110799190810190613929565b905061108361024f565b6040517f8255e8d5000000000000000000000000000000000000000000000000000000008152600481018a9052602481018d90526001600160a01b039190911690638255e8d590604401602060405180830381865afa1580156110ea573d6000803e3d6000fd5b505050506040513d601f19601f8201168201806040525081019061110e9190613804565b61115a5760405162461bcd60e51b815260206004820152600e60248201527f494e56414c494420414354494f4e0000000000000000000000000000000000006044820152606401610398565b60006111658c611b18565b905060008360a001511315610d9e576040517f4dddf8370000000000000000000000000000000000000000000000000000000081526004810189905260009073__$227e4555c1f608352b26068e438454dd8b$__90634dddf83790602401600060405180830381865af41580156111e0573d6000803e3d6000fd5b505050506040513d6000823e601f3d908101601f191682016040526112089190810190613821565b905061125f8160008151811061122057611220613592565b602002602001015167ffffffffffffffff168260018151811061124557611245613592565b602002602001015167ffffffffffffffff16848888611be3565b90975095508615610d515761129182848360028151811061128257611282613592565b60200260200101518888611c9e565b97506112d16040518060400160405280600c81526020017f4d616769632064616d61676500000000000000000000000000000000000000008152506119ee565b610cf688611e58565b60408051600180825281830190925260009160208083019080368337019050509050828160008151811061131057611310613592565b602002602001018181525050610f007f74625544000000000000000000000000456e636f756e746572456e746974790060001b8260018560405160200161135e91151560f81b815260010190565b60408051601f198184030181529190527e21020020010000000000000000000000000000000000000000000000000000611a62565b60606000606060006113a3611603565b9050306001600160a01b038216036113cc576113c0878787611ecb565b9350935093505061145a565b6040517f419b58fd0000000000000000000000000000000000000000000000000000000081526001600160a01b0382169063419b58fd90611415908a908a908a906004016139c2565b600060405180830381865afa158015611432573d6000803e3d6000fd5b505050506040513d6000823e601f3d908101601f191682016040526113c09190810190613a73565b93509350939050565b6114be6040805161014081019091528060008152602001600081526020016000815260200160001515815260200160008152602001600081526020016000815260200160001515815260200160608152602001606081525090565b6114c784611fd3565b80151560e08a015260c0890182905260a089018390526080890184905284151560608a015260408901869052602089018790528888600181111561150d5761150d613010565b600181111561151e5761151e613010565b81525050505050505050506115338383612057565b6101208301526101008201529392505050565b600080611551611603565b9050306001600160a01b038216036115775761156f868686866120a6565b915050610806565b6040517f8c364d590000000000000000000000000000000000000000000000000000000081526001600160a01b03821690638c364d59906115c2908990899089908990600401613ae0565b602060405180830381865afa1580156115df573d6000803e3d6000fd5b505050506040513d601f19601f8201168201806040525081019061156f9190613b0f565b7f629a4c26e296b22a8e0856e9f6ecb2d1008d7e00081111962cd175fa7488e175546000906001600160a01b03168061163d573391505090565b919050565b60408051600180825281830190925260009182919060208083019080368337019050509050826001600160a01b031660001b8160008151811061168757611687613592565b602090810291909101015260006108067f7462776f726c6400000000000000000053797374656d5265676973747279000083837e20010020000000000000000000000000000000000000000000000000000000611546565b6116e982826120d3565b61082a576116f682612138565b816040517fd787b737000000000000000000000000000000000000000000000000000000008152600401610398929190613b54565b604080518082019091526000808252602082015261174884612275565b80151560208401528282600381111561176357611763613010565b600381111561177457611774613010565b81525050509392505050565b6117b26040518060a0016040528060008152602001600081526020016000815260200160008152602001606081525090565b6040805160018082528183019092526000916020808301908036833701905050905082816000815181106117e8576117e8613592565b6020908102919091010152600080806118417f74625544000000000000000000000000506879736963616c44616d6167655374857e80040120202020000000000000000000000000000000000000000000000000611393565b92509250925061075e8383836122ab565b600080806001670de0b6b3a764000061186d6103e88b613b7f565b61187f88602001518a6020015161230d565b61188991906138c6565b6118939190613b93565b61189d91906138c6565b905060006001670de0b6b3a76400006118bb8760200151600061230d565b6118c76102588c613b7f565b6118d191906138c6565b6118db9190613b93565b6118e591906138c6565b90508082101593508315611912576118fe6008826138c6565b606088015161190d90846135be565b101592505b50509550959350505050565b6000806119378360041867ffffffffffffffff16612336565b9050600084608001518560600151836119509190613ba7565b131561196a5760608501516119659083613ba7565b611970565b84608001515b876040015161197f91906135be565b90506001611991876000015183612372565b61199b91906138dd565b92506119db6040518060400160405280600681526020017f44414d41474500000000000000000000000000000000000000000000000000008152506119ee565b6119e483611e58565b5050949350505050565b611a5f81604051602401611a029190613bbb565b60408051601f198184030181529190526020810180517bffffffffffffffffffffffffffffffffffffffffffffffffffffffff167f41304fac000000000000000000000000000000000000000000000000000000001790526123dc565b50565b6000611a6c611603565b9050306001600160a01b03821603611a9057611a8b86868686866123fd565b611b10565b6040517f390baae00000000000000000000000000000000000000000000000000000000081526001600160a01b0382169063390baae090611add9089908990899089908990600401613bce565b600060405180830381600087803b158015611af757600080fd5b505af1158015611b0b573d6000803e3d6000fd5b505050505b505050505050565b611b436040518060800160405280600081526020016000815260200160008152602001606081525090565b604080516001808252818301909252600091602080830190803683370190505090508281600081518110611b7957611b79613592565b602090810291909101015260008080611bd27f746255440000000000000000000000004d6167696344616d6167655374617473857e60030120202000000000000000000000000000000000000000000000000000611393565b92509250925061075e838383612419565b600080806001670de0b6b3a7640000611bfe6103e88b613b7f565b611c1088604001518a6000015161230d565b611c1a91906138c6565b611c249190613b93565b611c2e91906138c6565b905060006001670de0b6b3a7640000611c4c8760400151600061230d565b611c586102588c613b7f565b611c6291906138c6565b611c6c9190613b93565b611c7691906138c6565b9050808210159350831561191257611c8f6008826138c6565b604088015161190d90846135be565b6000611cde6040518060400160405280600681526020017f4d414749432100000000000000000000000000000000000000000000000000008152506119ee565b84516000128015611cf3575060008560200151135b15611db6578451602086015160009190611d0e9060016135be565b611d229067ffffffffffffffff8816613b7f565b1115611d51576020860151611d389060016135be565b611d4c9067ffffffffffffffff8716613b7f565b611d54565b85515b8760200151611d6391906135be565b905060016000846040015113611d7a576000611d80565b83604001515b611d8a91906138c6565b6001611d9a866040015184612372565b611da491906138dd565b611dae9190613646565b915050611e4f565b84516000138015611dcb575060008560200151125b15611e4f578451600190611ddf90826135be565b6020870151611def9060016135be565b611e039067ffffffffffffffff8816613b7f565b1115611e30576020860151611e229067ffffffffffffffff8716613b7f565b611e2b90613c15565b611e33565b85515b8760200151611e4291906135be565b611e4c91906138dd565b90505b95945050505050565b611a5f81604051602401611e6e91815260200190565b60408051601f198184030181529190526020810180517bffffffffffffffffffffffffffffffffffffffffffffffffffffffff167f4e0c1d1d000000000000000000000000000000000000000000000000000000001790526123dc565b6060600060606000611edc8561246f565b9050611ee9878783612492565b93506000611ef6866124cb565b90508015611fc857611f088888612508565b935066ffffffffffffff841667ffffffffffffffff811115611f2c57611f2c61312f565b6040519080825280601f01601f191660200182016040528015611f56576020820181803683370190505b5092506020830160005b828160ff161015611fc5576000611f788b8b8461251b565b90506000611f95888460ff166028026038011c64ffffffffff1690565b9050611fa4826000838761259b565b611fae8185613c4d565b935050508080611fbd90613c60565b915050611f60565b50505b505093509350939050565b600080600080600080600080611fed896000016020015190565b60f81c600181111561200157612001613010565b60218a015160418b015160618c0151929a509098509650612023905b60f81c90565b60628a015160828b015160a28c015160c28d01519398509196509450925061204a9061201d565b9050919395975091939597565b6060806000603885901c64ffffffffff1661207b612076868484612666565b6126f4565b935090508064ffffffffff606087901c160161209b612076868484612666565b925050509250929050565b6000611e4f6120b58686612705565b60ff858116601b0360080285901c166120ce858761275b565b612794565b60006121217f6e730000000000000000000000000000000000000000000000000000000000007dffffffffffffffffffffffffffff00000000000000000000000000000000851617836127e5565b80612131575061213183836127e5565b9392505050565b606081601081901b600061214b836128ae565b9050827fffffffffffffffffffffffffffff0000000000000000000000000000000000008316156121a6576121a17fffffffffffffffffffffffffffff00000000000000000000000000000000000084166128c5565b6121dd565b6040518060400160405280600681526020017f3c726f6f743e00000000000000000000000000000000000000000000000000008152505b7fffffffffffffffffffffffffffffffff000000000000000000000000000000008316156122135761220e836128c5565b61224a565b6040518060400160405280600681526020017f3c726f6f743e00000000000000000000000000000000000000000000000000008152505b60405160200161225c93929190613c7f565b6040516020818303038152906040529350505050919050565b6020810151600090819060f81c600381111561229357612293613010565b60218401519092506122a49061201d565b9050915091565b6122dd6040518060a0016040528060008152602001600081526020016000815260200160008152602001606081525090565b6122e684612969565b6060850152604084015260208301528152612301838361299b565b60808201529392505050565b6000670de0b6b3a764000061232c612326600286613b93565b846129b9565b61213191906138c6565b80600081121561163d576040517f44dddea200000000000000000000000000000000000000000000000000000000815260040160405180910390fd5b6000806123a9670de0b6b3a76400006103e8816123908860056138c6565b61239a91906138c6565b6123a49190613b93565b6129e6565b905082670de0b6b3a76400006123c8836123c383856138dd565b612a05565b6123d291906135fc565b61080691906135be565b80516a636f6e736f6c652e6c6f67602083016000808483855afa5050505050565b612412858561240c848761275b565b85612a2e565b5050505050565b6124446040518060800160405280600081526020016000815260200160008152602001606081525090565b61244d84612cd2565b604084015260208301528152612463838361299b565b60608201529392505050565b6000600861247f60026020613d0d565b61248991906138c6565b9190911c919050565b6060816000036124b15750604080516020810190915260008152612131565b60006124bd8585612705565b9050611e4f81600085612cfa565b600060086001806124de60026020613d0d565b6124e89190613d0d565b6124f29190613d0d565b6124fc91906138c6565b8260ff911c1692915050565b60006121316125178484612d1d565b5490565b60008383604051602001612530929190613d20565b604051602081830303815290604052805190602001208260f81b7effffffffffffffffffffffffffffffffffffffffffffffffffffffffffffff19167f3b4102da22e32d82fc925482184f16c09fd4281692720b87d124aef6da48a0f1181860001c90509392505050565b821561262257602083106125c5576020830484019350602083816125c1576125c16135e6565b0692505b82156126225760208390036000818410156125e85750600019600884021c6125f2565b50600019600882021c5b8554600886021b818451168219821617845250818411612613575050612660565b50600194909401939182900391015b5b602082106126445783548152600190930192601f1990910190602001612623565b81156126605780518454600019600885021c9182169119161781525b50505050565b6000818311806126765750835182115b156126b3578383836040517f23230fa300000000000000000000000000000000000000000000000000000000815260040161039893929190613d5c565b602084016126c18482613c4d565b905060006126cf8585613d0d565b6fffffffffffffffffffffffffffffffff1660809290921b9190911795945050505050565b606060006121318360206000612d73565b6000828260405160200161271a929190613d20565b60408051601f1981840301815291905280516020909101207f86425bff6b57326c7859e89024fe4f238ca327a1ae4a230180dd2f0e88aaa7d9189392505050565b600080805b8360ff1681101561278c5761278260ff601b83900360080287901c1683613c4d565b9150600101612760565b509392505050565b6000602082106127ba576020820484019350602082816127b6576127b66135e6565b0691505b508254600882021b60208290038084111561278c576001850154600882021c82179150509392505050565b60408051600280825260608201835260009283929190602083019080368337019050509050838160008151811061281e5761281e613592565b602002602001018181525050826001600160a01b031660001b8160018151811061284a5761284a613592565b602090810291909101015260006128a27f7462776f726c640000000000000000005265736f75726365416363657373000083837e01010001000000000000000000000000000000000000000000000000000000611546565b9050611e4f8160f81c90565b60006128bc60706010613c4d565b9190911b919050565b606060005b601081101561292a577fffffffffffffffffffffffffffffffff000000000000000000000000000000008316600882021b7fff00000000000000000000000000000000000000000000000000000000000000161561292a576001016128ca565b604080517fffffffffffffffffffffffffffffffff00000000000000000000000000000000851660208201528151603090910190915281815280610806565b60008060008061297d856000016020015190565b60408601516060870151608090970151919790969550909350915050565b60606000603884901c64ffffffffff16611e4f612076858484612666565b60008082126129d3576129cc8284613c4d565b90506101cb565b6129dc82613c15565b6129cc9084613d0d565b6000670de0b6b3a76400006129fb83856138c6565b6121319190613b93565b6000670de0b6b3a764000082612a1a85612336565b612a2491906138dd565b61213191906135fc565b7f6f74000000000000000000000000000000000000000000000000000000000000847fffff0000000000000000000000000000000000000000000000000000000000001603612ab857837f8c0b5119d4cec7b284c6b1b39252a03d1e2f2d7451a5895562524c113bb952be848484604051612aab93929190613d81565b60405180910390a2612660565b6000612ac48585612705565b90506000612ad186612dee565b905060005b8151811015612ba6576000828281518110612af357612af3613592565b60200260200101519050612b1f6004826affffffffffffffffffffff1916612e7790919063ffffffff16565b15612b9d576040517f964f667d000000000000000000000000000000000000000000000000000000008152606082901c9063964f667d90612b6a908b908b908b908b90600401613db4565b600060405180830381600087803b158015612b8457600080fd5b505af1158015612b98573d6000803e3d6000fd5b505050505b50600101612ad6565b50857f8c0b5119d4cec7b284c6b1b39252a03d1e2f2d7451a5895562524c113bb952be868686604051612bdb93929190613d81565b60405180910390a2612bf6828565ffffffffffff1685612e95565b60005b8151811015612cc9576000828281518110612c1657612c16613592565b60200260200101519050612c426008826affffffffffffffffffffff1916612e7790919063ffffffff16565b15612cc0576040517fa8ba8721000000000000000000000000000000000000000000000000000000008152606082901c9063a8ba872190612c8d908b908b908b908b90600401613db4565b600060405180830381600087803b158015612ca757600080fd5b505af1158015612cbb573d6000803e3d6000fd5b505050505b50600101612bf9565b50505050505050565b6000806000612ce5846000016020015190565b60408501516060909501519095909350915050565b60405160208101601f19603f848401011660405282825261278c8585858461259b565b60008282604051602001612d32929190613d20565b60408051601f1981840301815291905280516020909101207f14e2fcc58e58e68ec7edc30c8d50dccc3ce2714a623ec81f46b6a63922d76569189392505050565b60606000612d818560801c90565b90506fffffffffffffffffffffffffffffffff85166000858281612da757612da76135e6565b04905060405193506020840160208202810160405281855260005b82811015612de2578451871c825293870193602090910190600101612dc2565b50505050509392505050565b60408051600180825281830190925260609160009190602080830190803683370190505090508281600081518110612e2857612e28613592565b60209081029190910101526000612e607f746273746f726500000000000000000053746f7265486f6f6b730000000000008383612eab565b9050610806612e728260008451612666565b612ee5565b60008160ff1682612e888560581c90565b1660ff1614905092915050565b610f0083838351612ea68560200190565b612ef6565b6060610806612ebb85858561251b565b6000612ee085612ecb8989612508565b9060ff166028026038011c64ffffffffff1690565b612cfa565b606060006121318360156000612d73565b8215612f705760208310612f2057602083048401935060208381612f1c57612f1c6135e6565b0692505b8215612f705760208390036000600019600885021c1990506008850281811c91508351811c9050811987541682821617875550818411612f61575050612660565b50600194909401939182900391015b5b60208210612f925780518455600190930192601f1990910190602001612f71565b8115612660576000600019600884021c8554835182191691161785555050505050565b600060208284031215612fc757600080fd5b81357fffffffff000000000000000000000000000000000000000000000000000000008116811461213157600080fd5b60006020828403121561300957600080fd5b5035919050565b634e487b7160e01b600052602160045260246000fd5b6002811061304457634e487b7160e01b600052602160045260246000fd5b9052565b60008151808452602080850194506020840160005b838110156130795781518752958201959082019060010161305d565b509495945050505050565b60208152613096602082018351613026565b6020820151604082015260408201516060820152600060608301516130bf608084018215159052565b50608083015160a083015260a083015160c083015260c083015160e083015260e08301516101006130f38185018315159052565b808501519150506101406101208181860152613113610160860184613048565b90860151858203601f19018387015290925061075e8382613048565b634e487b7160e01b600052604160045260246000fd5b6040516101c0810167ffffffffffffffff811182821017156131695761316961312f565b60405290565b604051610100810167ffffffffffffffff811182821017156131695761316961312f565b604051601f8201601f1916810167ffffffffffffffff811182821017156131bc576131bc61312f565b604052919050565b8015158114611a5f57600080fd5b803561163d816131c4565b600067ffffffffffffffff8211156131f7576131f761312f565b5060051b60200190565b600082601f83011261321257600080fd5b81356020613227613222836131dd565b613193565b8083825260208201915060208460051b87010193508684111561324957600080fd5b602086015b84811015613265578035835291830191830161324e565b509695505050505050565b600082601f83011261328157600080fd5b81356020613291613222836131dd565b8083825260208201915060208460051b8701019350868411156132b357600080fd5b602086015b848110156132655780356132cb816131c4565b83529183019183016132b8565b600080604083850312156132eb57600080fd5b823567ffffffffffffffff8082111561330357600080fd5b908401906101c0828703121561331857600080fd5b613320613145565b823581526020830135602082015260408301356040820152606083013560608201526080830135608082015261335860a084016131d2565b60a082015261336960c084016131d2565b60c082015260e083013560e0820152610100808401358183015250610120808401358381111561339857600080fd5b6133a489828701613201565b82840152505061014080840135838111156133be57600080fd5b6133ca89828701613201565b82840152505061016080840135838111156133e457600080fd5b6133f089828701613270565b828401525050610180808401358381111561340a57600080fd5b61341689828701613270565b8284015250506101a0808401358381111561343057600080fd5b61343c89828701613270565b91830191909152509660209590950135955050505050565b60008151808452602080850194506020840160005b83811015613079578151151587529582019590820190600101613469565b6020815281516020820152602082015160408201526040820151606082015260608201516080820152608082015160a0820152600060a08301516134cf60c084018215159052565b5060c083015180151560e08401525060e083015161010083810191909152830151610120808401919091528301516101c06101408085018290526135176101e0860184613048565b9250808601519050601f196101608187860301818801526135388584613048565b9450808801519250506101808187860301818801526135578584613454565b9450808801519250506101a08187860301818801526135768584613454565b90880151878203909201848801529350905061075e8382613454565b634e487b7160e01b600052603260045260246000fd5b634e487b7160e01b600052601160045260246000fd5b80820182811260008312801582168215821617156135de576135de6135a8565b505092915050565b634e487b7160e01b600052601260045260246000fd5b60008261360b5761360b6135e6565b60001983147f800000000000000000000000000000000000000000000000000000000000000083141615613641576136416135a8565b500590565b8181036000831280158383131683831282161715613666576136666135a8565b5092915050565b600060e0828403121561367f57600080fd5b60405160e0810181811067ffffffffffffffff821117156136a2576136a261312f565b8060405250825181526020830151602082015260408301516040820152606083015160608201526080830151608082015260a083015160a082015260c083015160c08201528091505092915050565b600082601f83011261370257600080fd5b81516020613712613222836131dd565b8083825260208201915060208460051b87010193508684111561373457600080fd5b602086015b848110156132655780518352918301918301613739565b60006020828403121561376257600080fd5b815167ffffffffffffffff8082111561377a57600080fd5b90830190610100828603121561378f57600080fd5b61379761316f565b825181526020830151602082015260408301516040820152606083015160608201526080830151608082015260a083015160a082015260c083015160c082015260e0830151828111156137e957600080fd5b6137f5878286016136f1565b60e08301525095945050505050565b60006020828403121561381657600080fd5b8151612131816131c4565b6000602080838503121561383457600080fd5b825167ffffffffffffffff8082111561384c57600080fd5b818501915085601f83011261386057600080fd5b815161386e613222826131dd565b81815260059190911b8301840190848101908883111561388d57600080fd5b938501935b828510156138ba57845184811681146138ab5760008081fd5b82529385019390850190613892565b98975050505050505050565b80820281158282048414176101cb576101cb6135a8565b808202600082127f800000000000000000000000000000000000000000000000000000000000000084141615613915576139156135a8565b81810583148215176101cb576101cb6135a8565b60006020828403121561393b57600080fd5b815167ffffffffffffffff8082111561395357600080fd5b908301906060828603121561396757600080fd5b6040516060810181811083821117156139825761398261312f565b806040525082518152602083015160208201526040830151828111156139a757600080fd5b6139b3878286016136f1565b60408301525095945050505050565b8381526060602082015260006139db6060830185613048565b9050826040830152949350505050565b60005b83811015613a065781810151838201526020016139ee565b50506000910152565b600082601f830112613a2057600080fd5b815167ffffffffffffffff811115613a3a57613a3a61312f565b613a4d6020601f19601f84011601613193565b818152846020838601011115613a6257600080fd5b6108068260208301602087016139eb565b600080600060608486031215613a8857600080fd5b835167ffffffffffffffff80821115613aa057600080fd5b613aac87838801613a0f565b9450602086015193506040860151915080821115613ac957600080fd5b50613ad686828701613a0f565b9150509250925092565b848152608060208201526000613af96080830186613048565b60ff949094166040830152506060015292915050565b600060208284031215613b2157600080fd5b5051919050565b60008151808452613b408160208601602086016139eb565b601f01601f19169290920160200192915050565b604081526000613b676040830185613b28565b90506001600160a01b03831660208301529392505050565b600082613b8e57613b8e6135e6565b500690565b600082613ba257613ba26135e6565b500490565b600082613bb657613bb66135e6565b500790565b6020815260006121316020830184613b28565b85815260a060208201526000613be760a0830187613048565b60ff861660408401528281036060840152613c028186613b28565b9150508260808301529695505050505050565b60007f80000000000000000000000000000000000000000000000000000000000000008203613c4657613c466135a8565b5060000390565b808201808211156101cb576101cb6135a8565b600060ff821660ff8103613c7657613c766135a8565b60010192915050565b7fffff0000000000000000000000000000000000000000000000000000000000008416815260007f3a000000000000000000000000000000000000000000000000000000000000008060028401528451613ce08160038601602089016139eb565b808401905081600382015284519150613d008260048301602088016139eb565b0160040195945050505050565b818103818111156101cb576101cb6135a8565b8281526000602080830184516020860160005b82811015613d4f57815184529284019290840190600101613d33565b5091979650505050505050565b606081526000613d6f6060830186613b28565b60208301949094525060400152919050565b606081526000613d946060830186613048565b65ffffffffffff85166020840152828103604084015261075e8185613b28565b848152608060208201526000613dcd6080830186613048565b65ffffffffffff851660408401528281036060840152613ded8185613b28565b97965050505050505056fea264697066735822122037f9fa7f6c176b8fee34aa6c9ee1dd160aec1a4342ee5622bf8e427425b4856164736f6c63430008180033","linkReferences":{"src/libraries/LibChunks.sol":{"LibChunks":[{"start":2979,"length":20},{"start":4550,"length":20}]}}},"methodIdentifiers":{"_msgSender()":"119df25f","_msgValue()":"45ec9354","_world()":"e1af802c","executeAttack((uint256,bytes32,bytes32,int256,int256,bool,bool,uint256,uint256,int256[],bytes32[],bool[],bool[],bool[]),uint256)":"f7b41767","getDied(bytes32)":"def4c3ff","getEncounter(bytes32)":"4dda27e8","supportsInterface(bytes4)":"01ffc9a7"},"id":250}