{"abi":[{"type":"function","name":"_calculateMagicAttack","inputs":[],"outputs":[],"stateMutability":"nonpayable"},{"type":"function","name":"_msgSender","inputs":[],"outputs":[{"name":"sender","type":"address","internalType":"address"}],"stateMutability":"view"},{"type":"function","name":"_msgValue","inputs":[],"outputs":[{"name":"value","type":"uint256","internalType":"uint256"}],"stateMutability":"pure"},{"type":"function","name":"_world","inputs":[],"outputs":[{"name":"","type":"address","internalType":"address"}],"stateMutability":"view"},{"type":"function","name":"createMatch","inputs":[{"name":"encounterType","type":"uint8","internalType":"enum EncounterType"},{"name":"attackers","type":"bytes32[]","internalType":"bytes32[]"},{"name":"defenders","type":"bytes32[]","internalType":"bytes32[]"}],"outputs":[{"name":"encounterId","type":"bytes32","internalType":"bytes32"}],"stateMutability":"nonpayable"},{"type":"function","name":"endTurn","inputs":[{"name":"encounterId","type":"bytes32","internalType":"bytes32"},{"name":"playerId","type":"bytes32","internalType":"bytes32"},{"name":"actions","type":"tuple[]","internalType":"struct Action[]","components":[{"name":"attackerEntityId","type":"bytes32","internalType":"bytes32"},{"name":"defenderEntityId","type":"bytes32","internalType":"bytes32"},{"name":"actionId","type":"bytes32","internalType":"bytes32"},{"name":"weaponId","type":"uint256","internalType":"uint256"}]}],"outputs":[],"stateMutability":"payable"},{"type":"function","name":"executeCombat","inputs":[{"name":"randomNumber","type":"uint256","internalType":"uint256"},{"name":"encounterId","type":"bytes32","internalType":"bytes32"},{"name":"actions","type":"tuple[]","internalType":"struct Action[]","components":[{"name":"attackerEntityId","type":"bytes32","internalType":"bytes32"},{"name":"defenderEntityId","type":"bytes32","internalType":"bytes32"},{"name":"actionId","type":"bytes32","internalType":"bytes32"},{"name":"weaponId","type":"uint256","internalType":"uint256"}]}],"outputs":[],"stateMutability":"nonpayable"},{"type":"function","name":"getEncounter","inputs":[{"name":"encounterId","type":"bytes32","internalType":"bytes32"}],"outputs":[{"name":"_encounterData","type":"tuple","internalType":"struct CombatEncounterData","components":[{"name":"encounterType","type":"uint8","internalType":"enum EncounterType"},{"name":"start","type":"uint256","internalType":"uint256"},{"name":"end","type":"uint256","internalType":"uint256"},{"name":"currentTurn","type":"uint256","internalType":"uint256"},{"name":"maxTurns","type":"uint256","internalType":"uint256"},{"name":"defenders","type":"bytes32[]","internalType":"bytes32[]"},{"name":"attackers","type":"bytes32[]","internalType":"bytes32[]"}]}],"stateMutability":"view"},{"type":"function","name":"isParticipant","inputs":[{"name":"account","type":"address","internalType":"address"},{"name":"participants","type":"bytes32[]","internalType":"bytes32[]"}],"outputs":[{"name":"_isParticipant","type":"bool","internalType":"bool"}],"stateMutability":"view"},{"type":"function","name":"isParticipant","inputs":[{"name":"playerId","type":"bytes32","internalType":"bytes32"},{"name":"encounterId","type":"bytes32","internalType":"bytes32"}],"outputs":[{"name":"_isParticipant","type":"bool","internalType":"bool"}],"stateMutability":"view"},{"type":"function","name":"isValidPvE","inputs":[{"name":"attackers","type":"bytes32[]","internalType":"bytes32[]"},{"name":"defenders","type":"bytes32[]","internalType":"bytes32[]"},{"name":"x","type":"uint16","internalType":"uint16"},{"name":"y","type":"uint16","internalType":"uint16"}],"outputs":[{"name":"_isValidPvE","type":"bool","internalType":"bool"}],"stateMutability":"view"},{"type":"function","name":"supportsInterface","inputs":[{"name":"interfaceId","type":"bytes4","internalType":"bytes4"}],"outputs":[{"name":"","type":"bool","internalType":"bool"}],"stateMutability":"pure"},{"type":"event","name":"Store_SetRecord","inputs":[{"name":"tableId","type":"bytes32","indexed":true,"internalType":"ResourceId"},{"name":"keyTuple","type":"bytes32[]","indexed":false,"internalType":"bytes32[]"},{"name":"staticData","type":"bytes","indexed":false,"internalType":"bytes"},{"name":"encodedLengths","type":"bytes32","indexed":false,"internalType":"EncodedLengths"},{"name":"dynamicData","type":"bytes","indexed":false,"internalType":"bytes"}],"anonymous":false},{"type":"event","name":"Store_SpliceStaticData","inputs":[{"name":"tableId","type":"bytes32","indexed":true,"internalType":"ResourceId"},{"name":"keyTuple","type":"bytes32[]","indexed":false,"internalType":"bytes32[]"},{"name":"start","type":"uint48","indexed":false,"internalType":"uint48"},{"name":"data","type":"bytes","indexed":false,"internalType":"bytes"}],"anonymous":false},{"type":"error","name":"Slice_OutOfBounds","inputs":[{"name":"data","type":"bytes","internalType":"bytes"},{"name":"start","type":"uint256","internalType":"uint256"},{"name":"end","type":"uint256","internalType":"uint256"}]},{"type":"error","name":"World_AccessDenied","inputs":[{"name":"resource","type":"string","internalType":"string"},{"name":"caller","type":"address","internalType":"address"}]},{"type":"error","name":"World_FunctionSelectorNotFound","inputs":[{"name":"functionSelector","type":"bytes4","internalType":"bytes4"}]},{"type":"error","name":"World_ResourceNotFound","inputs":[{"name":"resourceId","type":"bytes32","internalType":"ResourceId"},{"name":"resourceIdString","type":"string","internalType":"string"}]}],"bytecode":{"object":"0x608060405234801561001057600080fd5b50615cf780620000216000396000f3fe6080604052600436106100c75760003560e01c8063aaa417b711610074578063c6ca743c1161004e578063c6ca743c146101fe578063e1af802c1461021e578063fc88ff631461023357600080fd5b8063aaa417b7146101b2578063b2467894146101d2578063bfea0b85146101f257600080fd5b806345ec9354116100a557806345ec93541461014e5780634dda27e81461017057806398d239b11461019d57600080fd5b806301ffc9a7146100cc578063119df25f14610101578063154510201461012e575b600080fd5b3480156100d857600080fd5b506100ec6100e73660046149da565b610253565b60405190151581526020015b60405180910390f35b34801561010d57600080fd5b506101166102ec565b6040516001600160a01b0390911681526020016100f8565b34801561013a57600080fd5b506100ec610149366004614b9c565b6102fb565b34801561015a57600080fd5b5036601f1901355b6040519081526020016100f8565b34801561017c57600080fd5b5061019061018b366004614c21565b6105d5565b6040516100f89190614ca0565b6101b06101ab366004614da6565b61061f565b005b3480156101be57600080fd5b506101626101cd366004614df6565b6107e9565b3480156101de57600080fd5b506100ec6101ed366004614e7b565b610ac3565b3480156101b057600080fd5b34801561020a57600080fd5b506100ec610219366004614ecb565b610b99565b34801561022a57600080fd5b50610116610c53565b34801561023f57600080fd5b506101b061024e366004614da6565b610c5d565b60007fffffffff0000000000000000000000000000000000000000000000000000000082167fb5dee1270000000000000000000000000000000000000000000000000000000014806102e657507fffffffff0000000000000000000000000000000000000000000000000000000082167f01ffc9a700000000000000000000000000000000000000000000000000000000145b92915050565b60006102f6610e67565b905090565b600160005b855181101561046057610311610c53565b6001600160a01b031663fa1becc487838151811061033157610331614eed565b60200260200101516040518263ffffffff1660e01b815260040161035791815260200190565b602060405180830381865afa158015610374573d6000803e3d6000fd5b505050506040513d601f19601f820116820180604052508101906103989190614f03565b6103a55760009150610460565b6103ad610c53565b6001600160a01b031663f48a39728783815181106103cd576103cd614eed565b602002602001015186866040518463ffffffff1660e01b815260040161040a9392919092835261ffff918216602084015216604082015260600190565b602060405180830381865afa158015610427573d6000803e3d6000fd5b505050506040513d601f19601f8201168201806040525081019061044b9190614f03565b6104585760009150610460565b600101610300565b5080156105cd5760005b84518110156105cb5761047b610c53565b6001600160a01b031663fa1becc486838151811061049b5761049b614eed565b60200260200101516040518263ffffffff1660e01b81526004016104c191815260200190565b602060405180830381865afa1580156104de573d6000803e3d6000fd5b505050506040513d601f19601f820116820180604052508101906105029190614f03565b1561051057600091506105cb565b610518610c53565b6001600160a01b031663f48a397286838151811061053857610538614eed565b602002602001015186866040518463ffffffff1660e01b81526004016105759392919092835261ffff918216602084015216604082015260600190565b602060405180830381865afa158015610592573d6000803e3d6000fd5b505050506040513d601f19601f820116820180604052508101906105b69190614f03565b6105c357600091506105cb565b60010161046a565b505b949350505050565b6106166040805160e0810190915280600081526020016000815260200160008152602001600081526020016000815260200160608152602001606081525090565b6102e682610e99565b600061062a84610e99565b9050806020015160001415801561064357506040810151155b6106945760405162461bcd60e51b815260206004820181905260248201527f434f4d4241542053595354454d3a20494e56414c494420454e434f554e54455260448201526064015b60405180910390fd5b80608001518160600151106106eb5760405162461bcd60e51b815260206004820181905260248201527f434f4d4241542053595354454d3a204558504952454420454e434f554e544552604482015260640161068b565b6106f36102ec565b6001600160a01b0316610704610c53565b6001600160a01b0316634f10aabc856040518263ffffffff1660e01b815260040161073191815260200190565b602060405180830381865afa15801561074e573d6000803e3d6000fd5b505050506040513d601f19601f820116820180604052508101906107729190614f25565b6001600160a01b031614801561078d575061078d8385610b99565b6107d95760405162461bcd60e51b815260206004820152601c60248201527f434f4d4241542053595354454d3a204e4f4e2d434f4d424154414e5400000000604482015260640161068b565b6107e38483610f84565b50505050565b60006107fc6107f66102ec565b84610ac3565b6108485760405162461bcd60e51b815260206004820152601d60248201527f434f4d4241542053595354454d3a20494e56414c49442053454e444552000000604482015260640161068b565b60008061086e8560008151811061086157610861614eed565b602002602001015161101e565b9150915085600181111561088457610884614c3a565b60010361096c57610897858584846102fb565b6108e35760405162461bcd60e51b815260206004820152601a60248201527f434f4d4241542053595354454d3a20494e56414c494420505645000000000000604482015260640161068b565b60405142906108fc908890889088908590602001614f42565b60405160208183030381529060405280519060200120935060006040518060e0016040528089600181111561093357610933614c3a565b81526020018381526020016000815260200160008152602001600f815260200187815260200188815250905061096985826110cf565b50505b85600181111561097e5761097e614c3a565b5060005b8451811015610a29576000801b6109b18683815181106109a4576109a4614eed565b6020026020010151611190565b146109fe5760405162461bcd60e51b815260206004820152601e60248201527f434f4d4241542053595354454d3a20454e54495459204f434355504945440000604482015260640161068b565b610a21858281518110610a1357610a13614eed565b602002602001015185611221565b600101610982565b5060005b8551811015610ab9576000801b610a4f8783815181106109a4576109a4614eed565b14610a9c5760405162461bcd60e51b815260206004820152601e60248201527f434f4d4241542053595354454d3a20454e54495459204f434355504945440000604482015260640161068b565b610ab1868281518110610a1357610a13614eed565b600101610a2d565b5050509392505050565b6000805b8251811015610b9257610ad8610c53565b6001600160a01b0316634f10aabc848381518110610af857610af8614eed565b60200260200101516040518263ffffffff1660e01b8152600401610b1e91815260200190565b602060405180830381865afa158015610b3b573d6000803e3d6000fd5b505050506040513d601f19601f82011682018060405250810190610b5f9190614f25565b6001600160a01b0316846001600160a01b031603610b805760019150610b92565b80610b8a81614f9c565b915050610ac7565b5092915050565b600080610ba583610e99565b905060005b8160c0015151811015610bf6578160c001518181518110610bcd57610bcd614eed565b60200260200101518503610be45760019250610bf6565b80610bee81614f9c565b915050610baa565b5081610b925760005b8160a0015151811015610c4b578160a001518181518110610c2257610c22614eed565b60200260200101518503610c395760019250610c4b565b80610c4381614f9c565b915050610bff565b505092915050565b60006102f66112d5565b610c6e30610c696102ec565b6112df565b6000610c7983610e99565b905060005b8251811015610d71576000838281518110610c9b57610c9b614eed565b602090810291909101810151604080516101a08101825281830151815260608084015182860152835192820192909252928201519083015260006080830181905260a0830181905260c0830181905260e083018190526101008301819052610120830181905261014083015243610160830152426101808301529150610d2181886112f5565b905080610140015115610d3d57610d3d816060015160016114d6565b80610120015115610d5757610d57816040015160016114d6565b610d67868560600151858461155a565b5050600101610c7e565b5060008060005b8360a0015151811015610dc657610dab8460a001518281518110610d9e57610d9e614eed565b6020026020010151611671565b15610dbe5782610dba81614f9c565b9350505b600101610d78565b5060005b8360c0015151811015610e0b57610df08460c001518281518110610d9e57610d9e614eed565b15610e035781610dff81614f9c565b9250505b600101610dca565b508260c0015151811480610e2357508260a001515182145b80610e35575082608001518360600151145b15610e4b57610e44858761170f565b5050610e5f565b60608301805190610e5b82614f9c565b9052505b505050505050565b7fffffffffffffffffffffffffffffffffffffffffffffffffffffffffffffffcc36013560601c80610e965750335b90565b610eda6040805160e0810190915280600081526020016000815260200160008152602001600081526020016000815260200160608152602001606081525090565b604080516001808252818301909252600091602080830190803683370190505090508281600081518110610f1057610f10614eed565b602090810291909101015260008080610f697f74625544000000000000000000000000436f6d626174456e636f756e74657200857e81050201202020200000000000000000000000000000000000000000000000611a30565b925092509250610f7a838383611b00565b9695505050505050565b6110198260018484604051602001610f9d929190614fb6565b60408051601f1981840301815290829052610fbc939291602401615086565b60408051601f198184030181529190526020810180517bffffffffffffffffffffffffffffffffffffffffffffffffffffffff167fb2aa60a400000000000000000000000000000000000000000000000000000000179052611bad565b505050565b6040805160018082528183019092526000918291829160208083019080368337019050509050838160008151811061105857611058614eed565b6020908102919091010152600080806110b17f74625544000000000000000000000000506f736974696f6e0000000000000000857e04020002020000000000000000000000000000000000000000000000000000611a30565b9250925092506110c2838383611c5b565b9550955050505050915091565b60006110f282600001518360200151846040015185606001518660800151611c7e565b905060006111088360a001518460c00151611cb3565b9050600061111e8460a001518560c00151611cde565b6040805160018082528183019092529192506000919060208083019080368337019050509050858160008151811061115857611158614eed565b6020908102919091010152610e5f7f74625544000000000000000000000000436f6d626174456e636f756e7465720082868686611d1a565b6040805160018082528183019092526000918291906020808301908036833701905050905082816000815181106111c9576111c9614eed565b602090810291909101015260006105cd7f746255440000000000000000000000004d61746368456e74697479000000000083837e41030020200100000000000000000000000000000000000000000000000000611dcf565b60408051600180825281830190925260009160208083019080368337019050509050828160008151811061125757611257614eed565b6020026020010181815250506110197f746255440000000000000000000000004d61746368456e74697479000000000060001b826000856040516020016112a091815260200190565b60408051601f198184030181529190527e41030020200100000000000000000000000000000000000000000000000000611e8c565b60006102f6611f02565b6112f16112eb83611f41565b82611fde565b5050565b604080516101a081018252600080825260208201819052918101829052606081018290526080810182905260a0810182905260c0810182905260e081018290526101008101829052610120810182905261014081018290526101608101829052610180810191909152600061136d846000015161202a565b90508060200151516000036113c45760405162461bcd60e51b815260206004820152601560248201527f616374696f6e20646f6573206e6f742065786973740000000000000000000000604482015260640161068b565b805160038111156113d7576113d7614c3a565b60ff1660010361148657600081602001518060200190518101906113fb919061511d565b905061141681866040015187606001518860200151886120df565b151560c0880152158015608088015260e0870191909152611480576000620186a08660e0015161144691906151c8565b611453876060015161251e565b61145d9190615212565b9050600081136114705760016101408701525b61147e8660600151826125b0565b505b506114ce565b60405162461bcd60e51b815260206004820152601a60248201527f616374696f6e2074797065206e6f74207265636f676e697a6564000000000000604482015260640161068b565b509192915050565b60408051600180825281830190925260009160208083019080368337019050509050828160008151811061150c5761150c614eed565b6020026020010181815250506110197f746255440000000000000000000000004d61746368456e74697479000000000060001b826002856040516020016112a091151560f81b815260010190565b60006115aa826000015183602001518460400151856060015186608001518760a001518860c001518960e001518a61010001518b61012001518c61014001518d61016001518e6101800151612664565b6040805160038082526080820190925291925060009160609183919060208201848036833701905050905087816000815181106115e9576115e9614eed565b6020026020010181815250508660001b8160018151811061160c5761160c614eed565b6020026020010181815250508560001b8160028151811061162f5761162f614eed565b60209081029190910101526116677f6f745544000000000000000000000000416374696f6e4f7574636f6d6500000082868686611d1a565b5050505050505050565b6040805160018082528183019092526000918291906020808301908036833701905050905082816000815181106116aa576116aa614eed565b602090810291909101015260006117037f746255440000000000000000000000004d61746368456e7469747900000000008360027e41030020200100000000000000000000000000000000000000000000000000611dcf565b90506105cd8160f81c90565b600080600061171d85610e99565b905046617a69036117335743604082015261173a565b4260408201525b600080611745614984565b60005b8460c00151518110156117b25761177b8560c00151828151811061176e5761176e614eed565b60200260200101516126b1565b91508160e001518461178d9190615232565b935060008260a0015113156117aa57826117a681614f9c565b9350505b600101611748565b506000805b8560a001515181101561186c578560a0015181815181106117da576117da614eed565b602002602001015191506117ed82611671565b15611864576117fb82612759565b6118059089615232565b97506118158360e001518a6127eb565b61181f9088615232565b965061182c826000611221565b61186489838860c001518960c00151518d6118479190615245565b8151811061185757611857614eed565b6020026020010151612808565b6001016117b7565b506000805b8660c0015151811015611a18578660c00151818151811061189457611894614eed565b602002602001015191506118a6610c53565b6001600160a01b031663fa1becc4836040518263ffffffff1660e01b81526004016118d391815260200190565b602060405180830381865afa1580156118f0573d6000803e3d6000fd5b505050506040513d601f19601f820116820180604052508101906119149190614f03565b15611a0557611922826126b1565b935060008460a0015113156119fb5787156119c75761193f610c53565b6001600160a01b031663fda0ce5083611958888c615259565b6040517fffffffff0000000000000000000000000000000000000000000000000000000060e085901b16815260048101929092526024820152604401600060405180830381600087803b1580156119ae57600080fd5b505af11580156119c2573d6000803e3d6000fd5b505050505b6000891180156119d75750600085115b156119fb576119e6858a615259565b8460c0018181516119f79190615232565b9052505b611a0582856129a7565b611a10826000611221565b600101611871565b50611a238a876110cf565b5050505050509250929050565b6060600060606000611a40611f02565b9050306001600160a01b03821603611a6957611a5d878787612a50565b93509350935050611af7565b6040517f419b58fd0000000000000000000000000000000000000000000000000000000081526001600160a01b0382169063419b58fd90611ab2908a908a908a9060040161526d565b600060405180830381865afa158015611acf573d6000803e3d6000fd5b505050506040513d6000823e601f3d908101601f19168201604052611a5d91908101906152fa565b93509350939050565b611b416040805160e0810190915280600081526020016000815260200160008152602001600081526020016000815260200160608152602001606081525090565b611b4a84612b58565b6080860181905260608601829052604086018390526020860184905285856001811115611b7957611b79614c3a565b6001811115611b8a57611b8a614c3a565b8152505050505050611b9c8383612ba8565b60c083015260a08201529392505050565b6060600080611bc3611bbe8561535d565b612bf7565b91509150816000801b03611c29576040517ffdde54e20000000000000000000000000000000000000000000000000000000081527fffffffff0000000000000000000000000000000000000000000000000000000060003516600482015260240161068b565b6020840180517bffffffffffffffffffffffffffffffffffffffffffffffffffffffff16821790526105cd8285612cba565b60208301516022840151600091829160f091821c911c5b90969095509350505050565b60608585858585604051602001611c999594939291906153a9565b604051602081830303815290604052905095945050505050565b6000611cd783516020028351602002606081901b603883901b838301171792915050565b9392505050565b6060611ce983612d95565b611cf283612d95565b604051602001611d039291906153e4565b604051602081830303815290604052905092915050565b6000611d24611f02565b9050306001600160a01b03821603611d4857611d438686868686612da5565b610e5f565b6040517f298314fb0000000000000000000000000000000000000000000000000000000081526001600160a01b0382169063298314fb90611d959089908990899089908990600401615413565b600060405180830381600087803b158015611daf57600080fd5b505af1158015611dc3573d6000803e3d6000fd5b50505050505050505050565b600080611dda611f02565b9050306001600160a01b03821603611e0057611df886868686612dc2565b9150506105cd565b6040517f8c364d590000000000000000000000000000000000000000000000000000000081526001600160a01b03821690638c364d5990611e4b908990899089908990600401615464565b602060405180830381865afa158015611e68573d6000803e3d6000fd5b505050506040513d601f19601f82011682018060405250810190611df89190615493565b6000611e96611f02565b9050306001600160a01b03821603611eb557611d438686868686612df8565b6040517f390baae00000000000000000000000000000000000000000000000000000000081526001600160a01b0382169063390baae090611d9590899089908990899089906004016154ac565b7f629a4c26e296b22a8e0856e9f6ecb2d1008d7e00081111962cd175fa7488e175546000906001600160a01b031680611f3c573391505090565b919050565b60408051600180825281830190925260009182919060208083019080368337019050509050826001600160a01b031660001b81600081518110611f8657611f86614eed565b602090810291909101015260006105cd7f7462776f726c6400000000000000000053797374656d5265676973747279000083837e20010020000000000000000000000000000000000000000000000000000000611dcf565b611fe88282612e0d565b6112f157611ff582612e6b565b816040517fd787b73700000000000000000000000000000000000000000000000000000000815260040161068b9291906154f3565b60408051808201909152600081526060602082015260408051600180825281830190925260009160208083019080368337019050509050828160008151811061207557612075614eed565b6020908102919091010152600080806120ce7f74625544000000000000000000000000416374696f6e73000000000000000000857e01010101000000000000000000000000000000000000000000000000000000611a30565b925092509250610f7a838383612fa8565b6000806000806120ed610c53565b6001600160a01b03166354f1f2db896040518263ffffffff1660e01b815260040161211a91815260200190565b61010060405180830381865afa158015612138573d6000803e3d6000fd5b505050506040513d601f19601f8201168201806040525081019061215c919061551e565b90506000612168610c53565b6001600160a01b03166354f1f2db896040518263ffffffff1660e01b815260040161219591815260200190565b61010060405180830381865afa1580156121b3573d6000803e3d6000fd5b505050506040513d601f19601f820116820180604052508101906121d7919061551e565b905060006121e3610c53565b6001600160a01b031663810c1dc1896040518263ffffffff1660e01b815260040161221091815260200190565b600060405180830381865afa15801561222d573d6000803e3d6000fd5b505050506040513d6000823e601f3d908101601f19168201604052612255919081019061558d565b905060008260a001511315612503576040517f4dddf8370000000000000000000000000000000000000000000000000000000081526004810188905260009073__$227e4555c1f608352b26068e438454dd8b$__90634dddf83790602401600060405180830381865af41580156122d0573d6000803e3d6000fd5b505050506040513d6000823e601f3d908101601f191682016040526122f89190810190615644565b905061234f8160008151811061231057612310614eed565b602002602001015167ffffffffffffffff168260018151811061233557612335614eed565b602002602001015167ffffffffffffffff168e8787613005565b909650945085156124b657620186a060008d6020015185606001516123749190615212565b13612380576001612394565b8c6020015184606001516123949190615212565b61239e91906156dd565b8451620186a0906123b190600290615259565b8460a001518560800151856002815181106123ce576123ce614eed565b602002602001015167ffffffffffffffff166123ea9190615245565b11156124295784608001518460028151811061240857612408614eed565b602002602001015167ffffffffffffffff166124249190615245565b61242f565b8460a001515b8f5161243b91906156f4565b61244591906156f4565b61244f9190615714565b6124599190615212565b965084156124b15761249f6040518060400160405280600581526020017f4352495421000000000000000000000000000000000000000000000000000000815250613098565b6124aa600288615714565b9650600194505b6124fd565b6124f46040518060400160405280600581526020017f4d49535321000000000000000000000000000000000000000000000000000000815250613098565b60009650600095505b50612510565b6000955060009450600093505b505050955095509592505050565b60408051600180825281830190925260009182919060208083019080368337019050509050828160008151811061255757612557614eed565b602090810291909101015260006105cd7f74625544000000000000000000000000537461747300000000000000000000008360057ee1080020200120202020200000000000000000000000000000000000000000611dcf565b6040805160018082528183019092526000916020808301908036833701905050905082816000815181106125e6576125e6614eed565b6020026020010181815250506110197f746255440000000000000000000000005374617473000000000000000000000060001b8260058560405160200161262f91815260200190565b60408051601f198184030181529190527ee1080020200120202020200000000000000000000000000000000000000000611e8c565b60608d8d8d8d8d8d8d8d8d8d8d8d8d60405160200161268f9d9c9b9a99989796959493929190615760565b60405160208183030381529060405290509d9c50505050505050505050505050565b6126b9614984565b6040805160018082528183019092526000916020808301908036833701905050905082816000815181106126ef576126ef614eed565b6020908102919091010152600080806127487f7462554400000000000000000000000053746174730000000000000000000000857ee1080020200120202020200000000000000000000000000000000000000000611a30565b925092509250610f7a83838361310c565b60408051600180825281830190925260009182919060208083019080368337019050509050828160008151811061279257612792614eed565b602090810291909101015260006105cd7f74625544000000000000000000000000537461747300000000000000000000008360067ee1080020200120202020200000000000000000000000000000000000000000611dcf565b60006127fe8366038d7ea4c680006156dd565b611cd79083615245565b6000612812610c53565b6001600160a01b03166353d64640846040518263ffffffff1660e01b815260040161283f91815260200190565b602060405180830381865afa15801561285c573d6000803e3d6000fd5b505050506040513d601f19601f820116820180604052508101906128809190615493565b9050600061288d82613184565b8060200190518101906128a09190615851565b905060005b8160c0015151811015610e5f5760006128da8360c0015183815181106128cd576128cd614eed565b60200260200101516131f9565b9050806128ea620186a089615245565b111561299e576128f8610c53565b6001600160a01b031663cd9caca2868560c00151858151811061291d5761291d614eed565b60209081029190910101516040517fffffffff0000000000000000000000000000000000000000000000000000000060e085901b1681526004810192909252602482015260016044820152606401600060405180830381600087803b15801561298557600080fd5b505af1158015612999573d6000803e3d6000fd5b505050505b506001016128a5565b60006129d9826000015183602001518460400151856060015186608001518760a001518860c001518960e0015161328e565b604080516001808252818301909252919250600091606091839190602080830190803683370190505090508581600081518110612a1857612a18614eed565b6020908102919091010152610e5f7f746255440000000000000000000000005374617473000000000000000000000082868686611d1a565b6060600060606000612a61856132cc565b9050612a6e8787836132ef565b93506000612a7b86613328565b90508015612b4d57612a8d8888613365565b935066ffffffffffffff841667ffffffffffffffff811115612ab157612ab1614a1c565b6040519080825280601f01601f191660200182016040528015612adb576020820181803683370190505b5092506020830160005b828160ff161015612b4a576000612afd8b8b84613378565b90506000612b1a888460ff166028026038011c64ffffffffff1690565b9050612b2982600083876133f8565b612b338185615232565b935050508080612b4290615919565b915050612ae5565b50505b505093509350939050565b6000806000806000612b6e866000016020015190565b60f81c6001811115612b8257612b82614c3a565b602187015160418801516061890151608190990151929991989097509550909350915050565b6060806000603885901c64ffffffffff16612bcc612bc78684846134c4565b613552565b935090508064ffffffffff606087901c1601612bec612bc78684846134c4565b925050509250929050565b6040805160018082528183019092526000918291829160208083019080368337019050509050837bffffffffffffffffffffffffffffffffffffffffffffffffffffffff191681600081518110612c5057612c50614eed565b602090810291909101015260008080612ca97f7462776f726c6400000000000000000046756e6374696f6e53656c6563746f72857e24020020040000000000000000000000000000000000000000000000000000611a30565b9250925092506110c2838383613563565b60606000612cc66112d5565b90506001600160a01b0381163003612d07576000612cee612ce5610e67565b6000878761356f565b9350905080612d0057612d00836136aa565b50506102e6565b6040517f3ae7af080000000000000000000000000000000000000000000000000000000081526001600160a01b03821690633ae7af0890612d4e9087908790600401615938565b6000604051808303816000875af1158015612d6d573d6000803e3d6000fd5b505050506040513d6000823e601f3d908101601f191682016040526105cd9190810190615951565b606081611cd781602060006136b2565b612dbb8585858585612db68b613712565b613797565b5050505050565b6000612def612dd18686613ad0565b60ff858116601b0360080285901c16612dea8587613b26565b613b5f565b95945050505050565b612dbb8585612e078487613b26565b85613bb0565b6000612e5b7f6e730000000000000000000000000000000000000000000000000000000000007dffffffffffffffffffffffffffff0000000000000000000000000000000085161783613e54565b80611cd75750611cd78383613e54565b606081601081901b6000612e7e83613f1d565b9050827fffffffffffffffffffffffffffff000000000000000000000000000000000000831615612ed957612ed47fffffffffffffffffffffffffffff0000000000000000000000000000000000008416613f34565b612f10565b6040518060400160405280600681526020017f3c726f6f743e00000000000000000000000000000000000000000000000000008152505b7fffffffffffffffffffffffffffffffff00000000000000000000000000000000831615612f4657612f4183613f34565b612f7d565b6040518060400160405280600681526020017f3c726f6f743e00000000000000000000000000000000000000000000000000008152505b604051602001612f8f93929190615986565b6040516020818303038152906040529350505050919050565b604080518082019091526000815260606020820152612fc684613fd8565b81906003811115612fd957612fd9614c3a565b90816003811115612fec57612fec614c3a565b905250612ff98383613ff4565b60208201529392505050565b60008080620249f06130196103e88a615245565b61302b87602001518960400151614017565b6130359190615232565b61303f91906156dd565b90506000620186a085602001516103e88a61305a9190615245565b6130649190615232565b61306e91906156dd565b90508082119350831561308c5760026130878284615259565b101592505b50509550959350505050565b613109816040516024016130ac9190615a14565b60408051601f198184030181529190526020810180517bffffffffffffffffffffffffffffffffffffffffffffffffffffffff167f41304fac00000000000000000000000000000000000000000000000000000000179052614044565b50565b613114614984565b61311d8461404d565b60e0890181905260c0890182905260a08901839052608089018490526060890185905288602081016040820188600281111561315b5761315b614c3a565b600281111561316c5761316c614c3a565b90529790975250505093909252509195945050505050565b60408051600180825281830190925260609160009190602080830190803683370190505090508260001b816000815181106131c1576131c1614eed565b602090810291909101015260006105cd7f746255440000000000000000000000004d6f627300000000000000000000000083836140bb565b604080516001808252818301909252600091829190602080830190803683370190505090508260001b8160008151811061323557613235614eed565b602090810291909101015260006105cd7f746255440000000000000000000000004974656d7300000000000000000000008360017e21020101200000000000000000000000000000000000000000000000000000611dcf565b606088888888888888886040516020016132af989796959493929190615a27565b604051602081830303815290604052905098975050505050505050565b600060086132dc60026020615a6c565b6132e691906156dd565b9190911c919050565b60608160000361330e5750604080516020810190915260008152611cd7565b600061331a8585613ad0565b9050612def8160008561417a565b6000600860018061333b60026020615a6c565b6133459190615a6c565b61334f9190615a6c565b61335991906156dd565b8260ff911c1692915050565b6000611cd7613374848461419d565b5490565b6000838360405160200161338d929190615a7f565b604051602081830303815290604052805190602001208260f81b7effffffffffffffffffffffffffffffffffffffffffffffffffffffffffffff19167f3b4102da22e32d82fc925482184f16c09fd4281692720b87d124aef6da48a0f1181860001c90509392505050565b821561347f57602083106134225760208304840193506020838161341e5761341e6151b2565b0692505b821561347f5760208390036000818410156134455750600019600884021c61344f565b50600019600882021c5b8554600886021b8184511682198216178452508184116134705750506107e3565b50600194909401939182900391015b5b602082106134a15783548152600190930192601f1990910190602001613480565b81156107e3576000600019600884021c8251865482191691161782525050505050565b6000818311806134d45750835182115b15613511578383836040517f23230fa300000000000000000000000000000000000000000000000000000000815260040161068b93929190615abb565b6020840161351f8482615232565b9050600061352d8585615a6c565b6fffffffffffffffffffffffffffffffff1660809290921b9190911795945050505050565b60606000611cd783602060006141f3565b600080611c7285614262565b6000606060008061357f86614277565b90925090506001600160a01b0382166135d0578561359c87612e6b565b6040517ffbf10ce600000000000000000000000000000000000000000000000000000000815260040161068b929190615938565b806135df576135df868961431b565b861561364b577dffffffffffffffffffffffffffff0000000000000000000000000000000086167f6e7300000000000000000000000000000000000000000000000000000000000017600061363382614325565b9050613648826136438b84615232565b6143b6565b50505b60006136578760101b90565b7fffffffffffffffffffffffffffff000000000000000000000000000000000000161461368f5761368a8888848861446a565b61369b565b61369b888884886144e2565b90999098509650505050505050565b805160208201fd5b825160609060006136c385836156dd565b9050604051925060208301601f19603f83860101166040528184526000602088015b84821015613706578051871b835291870191600191909101906020016136e5565b50505050509392505050565b60007f8b9d8c8b908d9affffffffffffffffffab9e9d939a8d00000000000000000000820161376157507e60030220202000000000000000000000000000000000000000000000000000919050565b6102e661378e7f746273746f72650000000000000000005461626c65730000000000000000000084614543565b60206000613b5f565b7f6f74000000000000000000000000000000000000000000000000000000000000867fffff000000000000000000000000000000000000000000000000000000000000160361382357857f8dbb3a9672eebfd3773e72dd9c102393436816d832c7ba9e1e1ac8fcadcac7a9868686866040516138169493929190615ae0565b60405180910390a2610e5f565b600061382e8761455f565b905060005b815181101561390757600082828151811061385057613850614eed565b6020026020010151905061387c6001826affffffffffffffffffffff19166145e890919063ffffffff16565b156138fe576040517f57066c9c000000000000000000000000000000000000000000000000000000008152606082901c906357066c9c906138cb908c908c908c908c908c908c90600401615b2a565b600060405180830381600087803b1580156138e557600080fd5b505af11580156138f9573d6000803e3d6000fd5b505050505b50600101613833565b50867f8dbb3a9672eebfd3773e72dd9c102393436816d832c7ba9e1e1ac8fcadcac7a98787878760405161393e9493929190615ae0565b60405180910390a260006139528888613ad0565b9050600060208701905061396a826000895184614606565b600061397585613328565b11156139f95760006139878a8a61419d565b878155905060208601915060008060005b6139a188613328565b8160ff1610156139f4576139b68d8d83613378565b92506139d18a8260ff166028026038011c64ffffffffff1690565b91506139e08360008488614606565b6139ea8286615232565b9450600101613998565b505050505b60005b8351811015611dc3576000848281518110613a1957613a19614eed565b60200260200101519050613a456002826affffffffffffffffffffff19166145e890919063ffffffff16565b15613ac7576040517f5b28cdaf000000000000000000000000000000000000000000000000000000008152606082901c90635b28cdaf90613a94908e908e908e908e908e908e90600401615b2a565b600060405180830381600087803b158015613aae57600080fd5b505af1158015613ac2573d6000803e3d6000fd5b505050505b506001016139fc565b60008282604051602001613ae5929190615a7f565b60408051601f1981840301815291905280516020909101207f86425bff6b57326c7859e89024fe4f238ca327a1ae4a230180dd2f0e88aaa7d9189392505050565b600080805b8360ff16811015613b5757613b4d60ff601b83900360080287901c1683615232565b9150600101613b2b565b509392505050565b600060208210613b8557602082048401935060208281613b8157613b816151b2565b0691505b508254600882021b602082900380841115613b57576001850154600882021c82179150509392505050565b7f6f74000000000000000000000000000000000000000000000000000000000000847fffff0000000000000000000000000000000000000000000000000000000000001603613c3a57837f8c0b5119d4cec7b284c6b1b39252a03d1e2f2d7451a5895562524c113bb952be848484604051613c2d93929190615b83565b60405180910390a26107e3565b6000613c468585613ad0565b90506000613c538661455f565b905060005b8151811015613d28576000828281518110613c7557613c75614eed565b60200260200101519050613ca16004826affffffffffffffffffffff19166145e890919063ffffffff16565b15613d1f576040517f964f667d000000000000000000000000000000000000000000000000000000008152606082901c9063964f667d90613cec908b908b908b908b90600401615bb6565b600060405180830381600087803b158015613d0657600080fd5b505af1158015613d1a573d6000803e3d6000fd5b505050505b50600101613c58565b50857f8c0b5119d4cec7b284c6b1b39252a03d1e2f2d7451a5895562524c113bb952be868686604051613d5d93929190615b83565b60405180910390a2613d78828565ffffffffffff16856146c5565b60005b8151811015613e4b576000828281518110613d9857613d98614eed565b60200260200101519050613dc46008826affffffffffffffffffffff19166145e890919063ffffffff16565b15613e42576040517fa8ba8721000000000000000000000000000000000000000000000000000000008152606082901c9063a8ba872190613e0f908b908b908b908b90600401615bb6565b600060405180830381600087803b158015613e2957600080fd5b505af1158015613e3d573d6000803e3d6000fd5b505050505b50600101613d7b565b50505050505050565b604080516002808252606082018352600092839291906020830190803683370190505090508381600081518110613e8d57613e8d614eed565b602002602001018181525050826001600160a01b031660001b81600181518110613eb957613eb9614eed565b60209081029190910101526000613f117f7462776f726c640000000000000000005265736f75726365416363657373000083837e01010001000000000000000000000000000000000000000000000000000000611dcf565b9050612def8160f81c90565b6000613f2b60706010615232565b9190911b919050565b606060005b6010811015613f99577fffffffffffffffffffffffffffffffff000000000000000000000000000000008316600882021b7fff000000000000000000000000000000000000000000000000000000000000001615613f9957600101613f39565b604080517fffffffffffffffffffffffffffffffff000000000000000000000000000000008516602082015281516030909101909152818152806105cd565b602081015160009060f81c60038111156102e6576102e6614c3a565b60606000603884901c64ffffffffff16612def6140128584846134c4565b6146db565b60008082126140315761402a8284615232565b90506102e6565b61403a82615bef565b61402a9084615a6c565b6131098161475b565b600080600080600080600080614067896000016020015190565b60408a015160608b0151919950975060f81c600281111561408a5761408a614c3a565b60618a015160818b015160a18c015160c18d015160e1909d01519b9d9a9c939b929a91995097509195509350915050565b606060006140c7611f02565b9050306001600160a01b038216036140ec576140e485858561477c565b915050611cd7565b6040517f1e7889770000000000000000000000000000000000000000000000000000000081526001600160a01b03821690631e7889779061413590889088908890600401615c27565b600060405180830381865afa158015614152573d6000803e3d6000fd5b505050506040513d6000823e601f3d908101601f191682016040526140e49190810190615951565b60405160208101601f19603f8484010116604052828252613b57858585846133f8565b600082826040516020016141b2929190615a7f565b60408051601f1981840301815291905280516020909101207f14e2fcc58e58e68ec7edc30c8d50dccc3ce2714a623ec81f46b6a63922d76569189392505050565b606060006142018560801c90565b90506fffffffffffffffffffffffffffffffff85166000858281614227576142276151b2565b04905060405193506020840160208202810160405281855260005b82811015613706578451871c825293870193602090910190600101614242565b602081015160408201516000905b9050915091565b604080516001808252818301909252600091829182916020808301908036833701905050905083816000815181106142b1576142b1614eed565b60209081029190910101526000808061430a7f7462776f726c6400000000000000000053797374656d73000000000000000000857e15020014010000000000000000000000000000000000000000000000000000612a50565b9250925092506110c28383836147b6565b611fe882826147c2565b60408051600180825281830190925260009182919060208083019080368337019050509050828160008151811061435e5761435e614eed565b602090810291909101015260006105cd7f7462776f726c6400000000000000000042616c616e636573000000000000000083837e20010020000000000000000000000000000000000000000000000000000000612dc2565b6040805160018082528183019092526000916020808301908036833701905050905082816000815181106143ec576143ec614eed565b6020026020010181815250506110197f7462776f726c6400000000000000000042616c616e636573000000000000000060001b8260008560405160200161443591815260200190565b60408051601f198184030181529190527e20010020000000000000000000000000000000000000000000000000000000612df8565b60006060836001600160a01b03166000614485858989614820565b6040516144929190615c53565b60006040518083038185875af1925050503d80600081146144cf576040519150601f19603f3d011682016040523d82523d6000602084013e6144d4565b606091505b509097909650945050505050565b60006060836001600160a01b03166144fb848888614820565b6040516145089190615c53565b600060405180830381855af49150503d80600081146144cf576040519150601f19603f3d011682016040523d82523d6000602084013e6144d4565b6040805160208101849052908101829052600090606001613ae5565b6040805160018082528183019092526060916000919060208083019080368337019050509050828160008151811061459957614599614eed565b602090810291909101015260006145d17f746273746f726500000000000000000053746f7265486f6f6b73000000000000838361477c565b90506105cd6145e382600084516134c4565b61484f565b60008160ff16826145f98560581c90565b1660ff1614905092915050565b821561468057602083106146305760208304840193506020838161462c5761462c6151b2565b0692505b82156146805760208390036000600019600885021c1990506008850281811c91508351811c90508119875416828216178755508184116146715750506107e3565b50600194909401939182900391015b5b602082106146a25780518455600190930192601f1990910190602001614681565b81156107e3576000600019600884021c8554835182191691161785555050505050565b611019838383516146d68560200190565b614606565b606060006146e98360801c90565b90506fffffffffffffffffffffffffffffffff83168067ffffffffffffffff81111561471757614717614a1c565b6040519080825280601f01601f191660200182016040528015614741576020820181803683370190505b50925060208301614753838284614860565b505050919050565b80516a636f6e736f6c652e6c6f67602083016000808483855afa5050505050565b60606105cd61478c858585613378565b60006147b18561479c8989613365565b9060ff166028026038011c64ffffffffff1690565b61417a565b600080611c72856148ab565b60006148107f6e730000000000000000000000000000000000000000000000000000000000007dffffffffffffffffffffffffffff00000000000000000000000000000000851617836148c7565b80611cd75750611cd783836148c7565b606083838360405160200161483793929190615c6f565b60405160208183030381529060405290509392505050565b60606000611cd783601560006141f3565b5b60208110614880578251825260209283019290910190601f1901614861565b8060000361488d57505050565b6000600019600883021c905080835116811985511617835250505050565b6020810151603482015160609190911c9060009060f81c614270565b60408051600280825260608201835260009283929190602083019080368337019050509050838160008151811061490057614900614eed565b602002602001018181525050826001600160a01b031660001b8160018151811061492c5761492c614eed565b60209081029190910101526000613f117f7462776f726c640000000000000000005265736f75726365416363657373000083837e01010001000000000000000000000000000000000000000000000000000000612dc2565b6040518061010001604052806000815260200160008152602001600060028111156149b1576149b1614c3a565b815260200160008152602001600081526020016000815260200160008152602001600081525090565b6000602082840312156149ec57600080fd5b81357fffffffff0000000000000000000000000000000000000000000000000000000081168114611cd757600080fd5b634e487b7160e01b600052604160045260246000fd5b6040516080810167ffffffffffffffff81118282101715614a5557614a55614a1c565b60405290565b60405160a0810167ffffffffffffffff81118282101715614a5557614a55614a1c565b604051610100810167ffffffffffffffff81118282101715614a5557614a55614a1c565b604051610120810167ffffffffffffffff81118282101715614a5557614a55614a1c565b604051601f8201601f1916810167ffffffffffffffff81118282101715614aef57614aef614a1c565b604052919050565b600067ffffffffffffffff821115614b1157614b11614a1c565b5060051b60200190565b600082601f830112614b2c57600080fd5b81356020614b41614b3c83614af7565b614ac6565b8083825260208201915060208460051b870101935086841115614b6357600080fd5b602086015b84811015614b7f5780358352918301918301614b68565b509695505050505050565b803561ffff81168114611f3c57600080fd5b60008060008060808587031215614bb257600080fd5b843567ffffffffffffffff80821115614bca57600080fd5b614bd688838901614b1b565b95506020870135915080821115614bec57600080fd5b50614bf987828801614b1b565b935050614c0860408601614b8a565b9150614c1660608601614b8a565b905092959194509250565b600060208284031215614c3357600080fd5b5035919050565b634e487b7160e01b600052602160045260246000fd5b60028110614c6057614c60614c3a565b9052565b60008151808452602080850194506020840160005b83811015614c9557815187529582019590820190600101614c79565b509495945050505050565b60208152614cb2602082018351614c50565b602082015160408201526040820151606082015260608201516080820152608082015160a0820152600060a083015160e060c0840152614cf6610100840182614c64565b905060c0840151601f198483030160e0850152612def8282614c64565b600082601f830112614d2457600080fd5b81356020614d34614b3c83614af7565b82815260079290921b84018101918181019086841115614d5357600080fd5b8286015b84811015614b7f5760808189031215614d705760008081fd5b614d78614a32565b8135815284820135858201526040808301359082015260608083013590820152835291830191608001614d57565b600080600060608486031215614dbb57600080fd5b8335925060208401359150604084013567ffffffffffffffff811115614de057600080fd5b614dec86828701614d13565b9150509250925092565b600080600060608486031215614e0b57600080fd5b833560028110614e1a57600080fd5b9250602084013567ffffffffffffffff80821115614e3757600080fd5b614e4387838801614b1b565b93506040860135915080821115614e5957600080fd5b50614dec86828701614b1b565b6001600160a01b038116811461310957600080fd5b60008060408385031215614e8e57600080fd5b8235614e9981614e66565b9150602083013567ffffffffffffffff811115614eb557600080fd5b614ec185828601614b1b565b9150509250929050565b60008060408385031215614ede57600080fd5b50508035926020909101359150565b634e487b7160e01b600052603260045260246000fd5b600060208284031215614f1557600080fd5b81518015158114611cd757600080fd5b600060208284031215614f3757600080fd5b8151611cd781614e66565b614f4c8186614c50565b608060208201526000614f626080830186614c64565b8281036040840152614f748186614c64565b91505082606083015295945050505050565b634e487b7160e01b600052601160045260246000fd5b60006000198203614faf57614faf614f86565b5060010190565b60006040808301858452602060406020860152818651808452606093506060870191506020880160005b8281101561501757815180518552858101518686015287810151888601528601518685015260809093019290840190600101614fe0565b50919998505050505050505050565b6003811061310957613109614c3a565b60005b83811015615051578181015183820152602001615039565b50506000910152565b60008151808452615072816020860160208601615036565b601f01601f19169290920160200192915050565b83815261509283615026565b826020820152606060408201526000612def606083018461505a565b600082601f8301126150bf57600080fd5b815160206150cf614b3c83614af7565b8083825260208201915060208460051b8701019350868411156150f157600080fd5b602086015b84811015614b7f57805160ff811681146151105760008081fd5b83529183019183016150f6565b60006020828403121561512f57600080fd5b815167ffffffffffffffff8082111561514757600080fd5b9083019060a0828603121561515b57600080fd5b615163614a5b565b8251815260208301516020820152604083015160408201526060830151606082015260808301518281111561519757600080fd5b6151a3878286016150ae565b60808301525095945050505050565b634e487b7160e01b600052601260045260246000fd5b6000826151d7576151d76151b2565b60001983147f80000000000000000000000000000000000000000000000000000000000000008314161561520d5761520d614f86565b500590565b8181036000831280158383131683831282161715610b9257610b92614f86565b808201808211156102e6576102e6614f86565b600082615254576152546151b2565b500690565b600082615268576152686151b2565b500490565b8381526060602082015260006152866060830185614c64565b9050826040830152949350505050565b600082601f8301126152a757600080fd5b815167ffffffffffffffff8111156152c1576152c1614a1c565b6152d46020601f19601f84011601614ac6565b8181528460208386010111156152e957600080fd5b6105cd826020830160208701615036565b60008060006060848603121561530f57600080fd5b835167ffffffffffffffff8082111561532757600080fd5b61533387838801615296565b945060208601519350604086015191508082111561535057600080fd5b50614dec86828701615296565b6000815160208301517fffffffff00000000000000000000000000000000000000000000000000000000808216935060048310156147535760049290920360031b82901b161692915050565b6000600287106153bb576153bb614c3a565b5060f89590951b8552600185019390935260218401919091526041830152606182015260810190565b600083516153f6818460208801615036565b83519083019061540a818360208801615036565b01949350505050565b85815260a06020820152600061542c60a0830187614c64565b828103604084015261543e818761505a565b90508460608401528281036080840152615458818561505a565b98975050505050505050565b84815260806020820152600061547d6080830186614c64565b60ff949094166040830152506060015292915050565b6000602082840312156154a557600080fd5b5051919050565b85815260a0602082015260006154c560a0830187614c64565b60ff8616604084015282810360608401526154e0818661505a565b9150508260808301529695505050505050565b604081526000615506604083018561505a565b90506001600160a01b03831660208301529392505050565b6000610100828403121561553157600080fd5b615539614a7e565b825181526020830151602082015260408301516040820152606083015160608201526080830151608082015260a083015160a082015260c083015160c082015260e083015160e08201528091505092915050565b60006020828403121561559f57600080fd5b815167ffffffffffffffff808211156155b757600080fd5b9083019061010082860312156155cc57600080fd5b6155d4614a7e565b825181526020830151828111156155ea57600080fd5b6155f6878286016150ae565b60208301525060408301516040820152606083015160608201526080830151608082015260a083015160a082015260c083015160c082015260e083015160e082015280935050505092915050565b6000602080838503121561565757600080fd5b825167ffffffffffffffff8082111561566f57600080fd5b818501915085601f83011261568357600080fd5b8151615691614b3c82614af7565b81815260059190911b830184019084810190888311156156b057600080fd5b938501935b8285101561545857845184811681146156ce5760008081fd5b825293850193908501906156b5565b80820281158282048414176102e6576102e6614f86565b8082018281126000831280158216821582161715610c4b57610c4b614f86565b808202600082127f80000000000000000000000000000000000000000000000000000000000000008414161561574c5761574c614f86565b81810583148215176102e6576102e6614f86565b8d81528c60208201528b60408201528a606082015289151560f81b608082015288151560f81b608182015261579c6082820189151560f81b9052565b8660838201528560a38201526157b960c3820186151560f81b9052565b92151560f81b60c484015260c583019190915260e5820152610105019a9950505050505050505050565b805160038110611f3c57600080fd5b600082601f83011261580357600080fd5b81516020615813614b3c83614af7565b8083825260208201915060208460051b87010193508684111561583557600080fd5b602086015b84811015614b7f578051835291830191830161583a565b60006020828403121561586357600080fd5b815167ffffffffffffffff8082111561587b57600080fd5b90830190610120828603121561589057600080fd5b615898614aa2565b82518152602083015160208201526158b2604084016157e3565b6040820152606083015160608201526080830151608082015260a083015160a082015260c0830151828111156158e757600080fd5b6158f3878286016157f2565b60c08301525060e083810151908201526101009283015192810192909252509392505050565b600060ff821660ff810361592f5761592f614f86565b60010192915050565b8281526040602082015260006105cd604083018461505a565b60006020828403121561596357600080fd5b815167ffffffffffffffff81111561597a57600080fd5b6105cd84828501615296565b7fffff0000000000000000000000000000000000000000000000000000000000008416815260007f3a0000000000000000000000000000000000000000000000000000000000000080600284015284516159e7816003860160208901615036565b808401905081600382015284519150615a07826004830160208801615036565b0160040195945050505050565b602081526000611cd7602083018461505a565b888152876020820152615a3987615026565b60f89690961b604087015260418601949094526061850192909252608184015260a183015260c182015260e10192915050565b818103818111156102e6576102e6614f86565b8281526000602080830184516020860160005b82811015615aae57815184529284019290840190600101615a92565b5091979650505050505050565b606081526000615ace606083018661505a565b60208301949094525060400152919050565b608081526000615af36080830187614c64565b8281036020840152615b05818761505a565b90508460408401528281036060840152615b1f818561505a565b979650505050505050565b86815260c060208201526000615b4360c0830188614c64565b8281036040840152615b55818861505a565b90508560608401528281036080840152615b6f818661505a565b9150508260a0830152979650505050505050565b606081526000615b966060830186614c64565b65ffffffffffff851660208401528281036040840152610f7a818561505a565b848152608060208201526000615bcf6080830186614c64565b65ffffffffffff851660408401528281036060840152615b1f818561505a565b60007f80000000000000000000000000000000000000000000000000000000000000008203615c2057615c20614f86565b5060000390565b838152606060208201526000615c406060830185614c64565b905060ff83166040830152949350505050565b60008251615c65818460208701615036565b9190910192915050565b60008451615c81818460208901615036565b60609490941b7fffffffffffffffffffffffffffffffffffffffff000000000000000000000000169190930190815260148101919091526034019291505056fea2646970667358221220430b9ad49aa9c313df5fdd64a42a278d32d8a5f00d94ff80e2078f308e6e6c3a64736f6c63430008180033","linkReferences":{"src/libraries/LibChunks.sol":{"LibChunks":[{"start":8887,"length":20}]}}},"methodIdentifiers":{"_calculateMagicAttack()":"bfea0b85","_msgSender()":"119df25f","_msgValue()":"45ec9354","_world()":"e1af802c","createMatch(uint8,bytes32[],bytes32[])":"aaa417b7","endTurn(bytes32,bytes32,(bytes32,bytes32,bytes32,uint256)[])":"98d239b1","executeCombat(uint256,bytes32,(bytes32,bytes32,bytes32,uint256)[])":"fc88ff63","getEncounter(bytes32)":"4dda27e8","isParticipant(address,bytes32[])":"b2467894","isParticipant(bytes32,bytes32)":"c6ca743c","isValidPvE(bytes32[],bytes32[],uint16,uint16)":"15451020","supportsInterface(bytes4)":"01ffc9a7"},"id":182}