{"abi":[{"type":"function","name":"_msgSender","inputs":[],"outputs":[{"name":"sender","type":"address","internalType":"address"}],"stateMutability":"view"},{"type":"function","name":"_msgValue","inputs":[],"outputs":[{"name":"value","type":"uint256","internalType":"uint256"}],"stateMutability":"pure"},{"type":"function","name":"_world","inputs":[],"outputs":[{"name":"","type":"address","internalType":"address"}],"stateMutability":"view"},{"type":"function","name":"executeAction","inputs":[{"name":"actionOutcomeData","type":"tuple","internalType":"struct ActionOutcomeData","components":[{"name":"actionId","type":"bytes32","internalType":"bytes32"},{"name":"weaponId","type":"uint256","internalType":"uint256"},{"name":"attackerId","type":"bytes32","internalType":"bytes32"},{"name":"defenderId","type":"bytes32","internalType":"bytes32"},{"name":"hit","type":"bool","internalType":"bool"},{"name":"miss","type":"bool","internalType":"bool"},{"name":"crit","type":"bool","internalType":"bool"},{"name":"attackerDamageDelt","type":"int256","internalType":"int256"},{"name":"defenderDamageDelt","type":"int256","internalType":"int256"},{"name":"attackerDied","type":"bool","internalType":"bool"},{"name":"defenderDied","type":"bool","internalType":"bool"},{"name":"blockNumber","type":"uint256","internalType":"uint256"},{"name":"timestamp","type":"uint256","internalType":"uint256"}]},{"name":"randomNumber","type":"uint256","internalType":"uint256"}],"outputs":[{"name":"","type":"tuple","internalType":"struct ActionOutcomeData","components":[{"name":"actionId","type":"bytes32","internalType":"bytes32"},{"name":"weaponId","type":"uint256","internalType":"uint256"},{"name":"attackerId","type":"bytes32","internalType":"bytes32"},{"name":"defenderId","type":"bytes32","internalType":"bytes32"},{"name":"hit","type":"bool","internalType":"bool"},{"name":"miss","type":"bool","internalType":"bool"},{"name":"crit","type":"bool","internalType":"bool"},{"name":"attackerDamageDelt","type":"int256","internalType":"int256"},{"name":"defenderDamageDelt","type":"int256","internalType":"int256"},{"name":"attackerDied","type":"bool","internalType":"bool"},{"name":"defenderDied","type":"bool","internalType":"bool"},{"name":"blockNumber","type":"uint256","internalType":"uint256"},{"name":"timestamp","type":"uint256","internalType":"uint256"}]}],"stateMutability":"nonpayable"},{"type":"function","name":"getDied","inputs":[{"name":"entityId","type":"bytes32","internalType":"bytes32"}],"outputs":[{"name":"isDied","type":"bool","internalType":"bool"}],"stateMutability":"view"},{"type":"function","name":"getEncounter","inputs":[{"name":"encounterId","type":"bytes32","internalType":"bytes32"}],"outputs":[{"name":"","type":"tuple","internalType":"struct CombatEncounterData","components":[{"name":"encounterType","type":"uint8","internalType":"enum EncounterType"},{"name":"start","type":"uint256","internalType":"uint256"},{"name":"end","type":"uint256","internalType":"uint256"},{"name":"rewardsDistributed","type":"bool","internalType":"bool"},{"name":"currentTurn","type":"uint256","internalType":"uint256"},{"name":"currentTurnTimer","type":"uint256","internalType":"uint256"},{"name":"maxTurns","type":"uint256","internalType":"uint256"},{"name":"attackersAreMobs","type":"bool","internalType":"bool"},{"name":"defenders","type":"bytes32[]","internalType":"bytes32[]"},{"name":"attackers","type":"bytes32[]","internalType":"bytes32[]"}]}],"stateMutability":"view"},{"type":"function","name":"supportsInterface","inputs":[{"name":"interfaceId","type":"bytes4","internalType":"bytes4"}],"outputs":[{"name":"","type":"bool","internalType":"bool"}],"stateMutability":"pure"},{"type":"event","name":"Store_SpliceStaticData","inputs":[{"name":"tableId","type":"bytes32","indexed":true,"internalType":"ResourceId"},{"name":"keyTuple","type":"bytes32[]","indexed":false,"internalType":"bytes32[]"},{"name":"start","type":"uint48","indexed":false,"internalType":"uint48"},{"name":"data","type":"bytes","indexed":false,"internalType":"bytes"}],"anonymous":false},{"type":"error","name":"IntOverflow","inputs":[]},{"type":"error","name":"Slice_OutOfBounds","inputs":[{"name":"data","type":"bytes","internalType":"bytes"},{"name":"start","type":"uint256","internalType":"uint256"},{"name":"end","type":"uint256","internalType":"uint256"}]},{"type":"error","name":"World_AccessDenied","inputs":[{"name":"resource","type":"string","internalType":"string"},{"name":"caller","type":"address","internalType":"address"}]}],"bytecode":{"object":"0x608060405234801561001057600080fd5b50613a8c806100206000396000f3fe608060405234801561001057600080fd5b506004361061007d5760003560e01c80634dda27e81161005b5780634dda27e8146100dd5780636783d47a146100fd578063def4c3ff1461011d578063e1af802c1461013057600080fd5b806301ffc9a714610082578063119df25f146100aa57806345ec9354146100ca575b600080fd5b610095610090366004612c7d565b610138565b60405190151581526020015b60405180910390f35b6100b26101d1565b6040516001600160a01b0390911681526020016100a1565b604051601f1936013581526020016100a1565b6100f06100eb366004612cbf565b6101e0565b6040516100a19190612d4c565b61011061010b366004612ebf565b610244565b6040516100a19190612f9e565b61009561012b366004612cbf565b610529565b6100b2610534565b60007fffffffff0000000000000000000000000000000000000000000000000000000082167fb5dee1270000000000000000000000000000000000000000000000000000000014806101cb57507fffffffff0000000000000000000000000000000000000000000000000000000082167f01ffc9a700000000000000000000000000000000000000000000000000000000145b92915050565b60006101db61053e565b905090565b61023b6040805161014081019091528060008152602001600081526020016000815260200160001515815260200160008152602001600081526020016000815260200160001515815260200160608152602001606081525090565b6101cb82610570565b604080516101a081018252600080825260208201819052918101829052606081018290526080810182905260a0810182905260c0810182905260e0810182905261010081018290526101208101829052610140810182905261016081018290526101808101919091526102be306102b96101d1565b610675565b6102cb8360400151610529565b1580156102e257506102e08360600151610529565b155b156105225760006102f6846000015161068b565b905080602001515160000361036c576040517f08c379a000000000000000000000000000000000000000000000000000000000815260206004820152601560248201527f616374696f6e20646f6573206e6f74206578697374000000000000000000000060448201526064015b60405180910390fd5b8051600381111561037f5761037f612cd8565b60ff1660010361043857600081602001518060200190518101906103a39190613153565b90506103be8186604001518760600151886020015188610740565b151560c0880152158015608088015260e087019190915261042a57600060018660e001516103ec9190613238565b6103f98760600151610b2b565b6104039190613282565b9050600081136104165760016101408701525b610424866060015182610bc5565b50610432565b600160a08601525b506104ec565b8051600381111561044b5761044b612cd8565b60ff1660020361048a576000816020015180602001905181019061046f91906132a9565b90506103be8186604001518760600151886020015188610c7e565b6040517f08c379a000000000000000000000000000000000000000000000000000000000815260206004820152601a60248201527f616374696f6e2074797065206e6f74207265636f676e697a65640000000000006044820152606401610363565b836101400151156105065761050684606001516001610faa565b836101200151156105205761052084604001516001610faa565b505b5090919050565b60006101cb82611063565b60006101db611101565b7fffffffffffffffffffffffffffffffffffffffffffffffffffffffffffffffcc36013560601c8061056d5750335b90565b6105cb6040805161014081019091528060008152602001600081526020016000815260200160001515815260200160008152602001600081526020016000815260200160001515815260200160608152602001606081525090565b60408051600180825281830190925260009160208083019080368337019050509050828160008151811061060157610601613391565b60209081029190910101526000808061065a7f74625544000000000000000000000000436f6d626174456e636f756e74657200857ea308020120200120202001000000000000000000000000000000000000000061110b565b92509250925061066b8383836111db565b9695505050505050565b610687610681836112be565b8261135b565b5050565b6040805180820190915260008152606060208201526040805160018082528183019092526000916020808301908036833701905050905082816000815181106106d6576106d6613391565b60209081029190910101526000808061072f7f74625544000000000000000000000000416374696f6e73000000000000000000857e0101010100000000000000000000000000000000000000000000000000000061110b565b92509250925061066b8383836113a7565b60008060008061074e610534565b6001600160a01b03166354f1f2db896040518263ffffffff1660e01b815260040161077b91815260200190565b60e060405180830381865afa158015610798573d6000803e3d6000fd5b505050506040513d601f19601f820116820180604052508101906107bc91906133a7565b905060006107c8610534565b6001600160a01b03166354f1f2db896040518263ffffffff1660e01b81526004016107f591815260200190565b60e060405180830381865afa158015610812573d6000803e3d6000fd5b505050506040513d601f19601f8201168201806040525081019061083691906133a7565b90506000610842610534565b6001600160a01b031663810c1dc1896040518263ffffffff1660e01b815260040161086f91815260200190565b600060405180830381865afa15801561088c573d6000803e3d6000fd5b505050506040513d6000823e601f3d908101601f191682016040526108b4919081019061342b565b905060008260a001511315610b10576040517f4dddf8370000000000000000000000000000000000000000000000000000000081526004810188905260009073__$227e4555c1f608352b26068e438454dd8b$__90634dddf83790602401600060405180830381865af415801561092f573d6000803e3d6000fd5b505050506040513d6000823e601f3d908101601f1916820160405261095791908101906134e2565b90506109ae8160008151811061096f5761096f613391565b602002602001015167ffffffffffffffff168260018151811061099457610994613391565b602002602001015167ffffffffffffffff168e8787611404565b90965094508515610ac357600160008d6000015185606001516109d19190613282565b136109dd5760006109ee565b8c5160608501516109ee9190613282565b6109f89190613587565b610a1e8d868585600281518110610a1157610a11613391565b60200260200101516114d0565b610a289190613282565b9650610a686040518060400160405280600481526020017f4849542100000000000000000000000000000000000000000000000000000000815250611599565b8415610abe57610aac6040518060400160405280600581526020017f4352495421000000000000000000000000000000000000000000000000000000815250611599565b610ab760028861359e565b9650600194505b610b0a565b610b016040518060400160405280600581526020017f4d49535321000000000000000000000000000000000000000000000000000000815250611599565b60009650600095505b50610b1d565b6000955060009450600093505b505050955095509592505050565b604080516001808252818301909252600091829190602080830190803683370190505090508281600081518110610b6457610b64613391565b60209081029190910101526000610bbd7f74625544000000000000000000000000537461747300000000000000000000008360057ee108002020012020202020000000000000000000000000000000000000000061160d565b949350505050565b604080516001808252818301909252600091602080830190803683370190505090508281600081518110610bfb57610bfb613391565b602002602001018181525050610c797f746255440000000000000000000000005374617473000000000000000000000060001b82600585604051602001610c4491815260200190565b60408051601f198184030181529190527ee10800202001202020202000000000000000000000000000000000000000006116ca565b505050565b600080600080610c8c610534565b6001600160a01b03166354f1f2db896040518263ffffffff1660e01b8152600401610cb991815260200190565b60e060405180830381865afa158015610cd6573d6000803e3d6000fd5b505050506040513d601f19601f82011682018060405250810190610cfa91906133a7565b90506000610d06610534565b6001600160a01b03166354f1f2db896040518263ffffffff1660e01b8152600401610d3391815260200190565b60e060405180830381865afa158015610d50573d6000803e3d6000fd5b505050506040513d601f19601f82011682018060405250810190610d7491906133a7565b905060008160a001511315610f90576040517f4dddf8370000000000000000000000000000000000000000000000000000000081526004810187905260009073__$227e4555c1f608352b26068e438454dd8b$__90634dddf83790602401600060405180830381865af4158015610def573d6000803e3d6000fd5b505050506040513d6000823e601f3d908101601f19168201604052610e1791908101906134e2565b9050610e6e81600081518110610e2f57610e2f613391565b602002602001015167ffffffffffffffff1682600181518110610e5457610e54613391565b602002602001015167ffffffffffffffff168d8686611780565b90955093508415610f4357610e9f8b82600281518110610e9057610e90613391565b6020026020010151858561183b565b9550610edf6040518060400160405280600c81526020017f4d616769632064616d6167650000000000000000000000000000000000000000815250611599565b610ee8866119fc565b8315610f3e57610f2c6040518060400160405280600581526020017f4352495421000000000000000000000000000000000000000000000000000000815250611599565b610f3760028761359e565b9550600193505b610f8a565b610f816040518060400160405280600581526020017f4d49535321000000000000000000000000000000000000000000000000000000815250611599565b60009550600094505b50610f9d565b6000945060009350600092505b5050955095509592505050565b604080516001808252818301909252600091602080830190803683370190505090508281600081518110610fe057610fe0613391565b602002602001018181525050610c797f74625544000000000000000000000000456e636f756e746572456e746974790060001b8260018560405160200161102e91151560f81b815260010190565b60408051601f198184030181529190527e210200200100000000000000000000000000000000000000000000000000006116ca565b60408051600180825281830190925260009182919060208083019080368337019050509050828160008151811061109c5761109c613391565b602090810291909101015260006110f57f74625544000000000000000000000000456e636f756e746572456e74697479008360017e2102002001000000000000000000000000000000000000000000000000000061160d565b9050610bbd8160f81c90565b60006101db611a6f565b606060006060600061111b611a6f565b9050306001600160a01b0382160361114457611138878787611aae565b935093509350506111d2565b6040517f419b58fd0000000000000000000000000000000000000000000000000000000081526001600160a01b0382169063419b58fd9061118d908a908a908a906004016135ea565b600060405180830381865afa1580156111aa573d6000803e3d6000fd5b505050506040513d6000823e601f3d908101601f19168201604052611138919081019061369b565b93509350939050565b6112366040805161014081019091528060008152602001600081526020016000815260200160001515815260200160008152602001600081526020016000815260200160001515815260200160608152602001606081525090565b61123f84611bb6565b80151560e08a015260c0890182905260a089018390526080890184905284151560608a015260408901869052602089018790528888600181111561128557611285612cd8565b600181111561129657611296612cd8565b81525050505050505050506112ab8383611c3a565b6101208301526101008201529392505050565b60408051600180825281830190925260009182919060208083019080368337019050509050826001600160a01b031660001b8160008151811061130357611303613391565b60209081029190910101526000610bbd7f7462776f726c6400000000000000000053797374656d5265676973747279000083837e2001002000000000000000000000000000000000000000000000000000000061160d565b6113658282611c89565b6106875761137282611cee565b816040517fd787b737000000000000000000000000000000000000000000000000000000008152600401610363929190613734565b6040805180820190915260008152606060208201526113c584611e2b565b819060038111156113d8576113d8612cd8565b908160038111156113eb576113eb612cd8565b9052506113f88383611e47565b60208201529392505050565b600080806001670de0b6b3a764000061141f6103e88b61375f565b61143188602001518a60200151611e6a565b61143b9190613587565b6114459190613773565b61144f9190613587565b905060006001670de0b6b3a764000061146d87602001516000611e6a565b6114796102588c61375f565b6114839190613587565b61148d9190613773565b6114979190613587565b905080821015935083156114c4576114b0600882613587565b60808801516114bf9084613787565b101592505b50509550959350505050565b6000808360a0015184608001518467ffffffffffffffff166114f2919061375f565b11156115165760808401516115119067ffffffffffffffff851661375f565b61151c565b8360a001515b866040015161152b9190613787565b9050600161153d866000015183611e93565b611547919061359e565b91506115876040518060400160405280600681526020017f44414d4147450000000000000000000000000000000000000000000000000000815250611599565b611590826119fc565b50949350505050565b61160a816040516024016115ad91906137af565b60408051601f198184030181529190526020810180517bffffffffffffffffffffffffffffffffffffffffffffffffffffffff167f41304fac00000000000000000000000000000000000000000000000000000000179052611f4f565b50565b600080611618611a6f565b9050306001600160a01b0382160361163e5761163686868686611f58565b915050610bbd565b6040517f8c364d590000000000000000000000000000000000000000000000000000000081526001600160a01b03821690638c364d59906116899089908990899089906004016137c2565b602060405180830381865afa1580156116a6573d6000803e3d6000fd5b505050506040513d601f19601f8201168201806040525081019061163691906137f1565b60006116d4611a6f565b9050306001600160a01b038216036116f8576116f38686868686611f85565b611778565b6040517f390baae00000000000000000000000000000000000000000000000000000000081526001600160a01b0382169063390baae090611745908990899089908990899060040161380a565b600060405180830381600087803b15801561175f57600080fd5b505af1158015611773573d6000803e3d6000fd5b505050505b505050505050565b600080806001670de0b6b3a764000061179b6103e88b61375f565b6117ad88604001518a60000151611e6a565b6117b79190613587565b6117c19190613773565b6117cb9190613587565b905060006001670de0b6b3a76400006117e987604001516000611e6a565b6117f56102588c61375f565b6117ff9190613587565b6118099190613773565b6118139190613587565b905080821015935083156114c45761182c600882613587565b60608801516114bf9084613787565b600061187b6040518060400160405280600681526020017f4d41474943210000000000000000000000000000000000000000000000000000815250611599565b60008560a00151138015611893575060008560c00151135b156119535760008560a001518660c0015160016118b09190613787565b6118c49067ffffffffffffffff881661375f565b11156118f35760c08601516118da906001613787565b6118ee9067ffffffffffffffff871661375f565b6118f9565b8560a001515b86602001516119089190613787565b90506001600084604001511361191f576000611925565b83604001515b61192f9190613587565b600161193f866040015184611e93565b611949919061359e565b6116369190613282565b60008560a0015112801561196b575060008560c00151125b15610bbd5760018560a0015160016119839190613787565b60c0870151611993906001613787565b6119a79067ffffffffffffffff881661375f565b11156119d45760c08601516119c69067ffffffffffffffff871661375f565b6119cf90613851565b6119da565b8560a001515b86602001516119e99190613787565b6119f3919061359e565b95945050505050565b61160a81604051602401611a1291815260200190565b60408051601f198184030181529190526020810180517bffffffffffffffffffffffffffffffffffffffffffffffffffffffff167f2d5b6cb900000000000000000000000000000000000000000000000000000000179052611f4f565b7f629a4c26e296b22a8e0856e9f6ecb2d1008d7e00081111962cd175fa7488e175546000906001600160a01b031680611aa9573391505090565b919050565b6060600060606000611abf85611fa1565b9050611acc878783611fc4565b93506000611ad986611ffd565b90508015611bab57611aeb888861203a565b935066ffffffffffffff841667ffffffffffffffff811115611b0f57611b0f612df7565b6040519080825280601f01601f191660200182016040528015611b39576020820181803683370190505b5092506020830160005b828160ff161015611ba8576000611b5b8b8b8461204d565b90506000611b78888460ff166028026038011c64ffffffffff1690565b9050611b8782600083876120cd565b611b918185613889565b935050508080611ba09061389c565b915050611b43565b50505b505093509350939050565b600080600080600080600080611bd0896000016020015190565b60f81c6001811115611be457611be4612cd8565b60218a015160418b015160618c0151929a509098509650611c06905b60f81c90565b60628a015160828b015160a28c015160c28d015193985091965094509250611c2d90611c00565b9050919395975091939597565b6060806000603885901c64ffffffffff16611c5e611c59868484612198565b612226565b935090508064ffffffffff606087901c1601611c7e611c59868484612198565b925050509250929050565b6000611cd77f6e730000000000000000000000000000000000000000000000000000000000007dffffffffffffffffffffffffffff0000000000000000000000000000000085161783612237565b80611ce75750611ce78383612237565b9392505050565b606081601081901b6000611d0183612300565b9050827fffffffffffffffffffffffffffff000000000000000000000000000000000000831615611d5c57611d577fffffffffffffffffffffffffffff0000000000000000000000000000000000008416612317565b611d93565b6040518060400160405280600681526020017f3c726f6f743e00000000000000000000000000000000000000000000000000008152505b7fffffffffffffffffffffffffffffffff00000000000000000000000000000000831615611dc957611dc483612317565b611e00565b6040518060400160405280600681526020017f3c726f6f743e00000000000000000000000000000000000000000000000000008152505b604051602001611e12939291906138bb565b6040516020818303038152906040529350505050919050565b602081015160009060f81c60038111156101cb576101cb612cd8565b60606000603884901c64ffffffffff166119f3611e65858484612198565b6123bb565b6000670de0b6b3a7640000611e89611e83600286613773565b8461243b565b611ce79190613587565b6000611ed46040518060400160405280600481526020017f737461740000000000000000000000000000000000000000000000000000000081525084612468565b611edd826119fc565b6000611f13670de0b6b3a76400006103e881611efa886005613587565b611f049190613587565b611f0e9190613773565b6124db565b9050611f1e816124fa565b82670de0b6b3a7640000611f3b83611f36838561359e565b61256d565b611f459190613238565b610bbd9190613787565b61160a81612596565b60006119f3611f6786866125b7565b60ff858116601b0360080285901c16611f80858761260d565b612646565b611f9a8585611f94848761260d565b85612697565b5050505050565b60006008611fb160026020613949565b611fbb9190613587565b9190911c919050565b606081600003611fe35750604080516020810190915260008152611ce7565b6000611fef85856125b7565b90506119f38160008561293b565b6000600860018061201060026020613949565b61201a9190613949565b6120249190613949565b61202e9190613587565b8260ff911c1692915050565b6000611ce7612049848461295e565b5490565b6000838360405160200161206292919061395c565b604051602081830303815290604052805190602001208260f81b7effffffffffffffffffffffffffffffffffffffffffffffffffffffffffffff19167f3b4102da22e32d82fc925482184f16c09fd4281692720b87d124aef6da48a0f1181860001c90509392505050565b821561215457602083106120f7576020830484019350602083816120f3576120f361320c565b0692505b821561215457602083900360008184101561211a5750600019600884021c612124565b50600019600882021c5b8554600886021b818451168219821617845250818411612145575050612192565b50600194909401939182900391015b5b602082106121765783548152600190930192601f1990910190602001612155565b81156121925780518454600019600885021c9182169119161781525b50505050565b6000818311806121a85750835182115b156121e5578383836040517f23230fa300000000000000000000000000000000000000000000000000000000815260040161036393929190613998565b602084016121f38482613889565b905060006122018585613949565b6fffffffffffffffffffffffffffffffff1660809290921b9190911795945050505050565b60606000611ce783602060006129b4565b60408051600280825260608201835260009283929190602083019080368337019050509050838160008151811061227057612270613391565b602002602001018181525050826001600160a01b031660001b8160018151811061229c5761229c613391565b602090810291909101015260006122f47f7462776f726c640000000000000000005265736f75726365416363657373000083837e0101000100000000000000000000000000000000000000000000000000000061160d565b90506119f38160f81c90565b600061230e60706010613889565b9190911b919050565b606060005b601081101561237c577fffffffffffffffffffffffffffffffff000000000000000000000000000000008316600882021b7fff00000000000000000000000000000000000000000000000000000000000000161561237c5760010161231c565b604080517fffffffffffffffffffffffffffffffff00000000000000000000000000000000851660208201528151603090910190915281815280610bbd565b606060006123c98360801c90565b90506fffffffffffffffffffffffffffffffff83168067ffffffffffffffff8111156123f7576123f7612df7565b6040519080825280601f01601f191660200182016040528015612421576020820181803683370190505b50925060208301612433838284612a2f565b505050919050565b60008082126124555761244e8284613889565b90506101cb565b61245e82613851565b61244e9084613949565b610687828260405160240161247e9291906139bd565b60408051601f198184030181529190526020810180517bffffffffffffffffffffffffffffffffffffffffffffffffffffffff167fb60e72cc00000000000000000000000000000000000000000000000000000000179052611f4f565b6000670de0b6b3a76400006124f08385613587565b611ce79190613773565b61160a8160405160240161251091815260200190565b60408051601f198184030181529190526020810180517bffffffffffffffffffffffffffffffffffffffffffffffffffffffff167ff82c50f100000000000000000000000000000000000000000000000000000000179052611f4f565b6000670de0b6b3a76400008261258285612a7a565b61258c919061359e565b611ce79190613238565b80516a636f6e736f6c652e6c6f67602083016000808483855afa5050505050565b600082826040516020016125cc92919061395c565b60408051601f1981840301815291905280516020909101207f86425bff6b57326c7859e89024fe4f238ca327a1ae4a230180dd2f0e88aaa7d9189392505050565b600080805b8360ff1681101561263e5761263460ff601b83900360080287901c1683613889565b9150600101612612565b509392505050565b60006020821061266c576020820484019350602082816126685761266861320c565b0691505b508254600882021b60208290038084111561263e576001850154600882021c82179150509392505050565b7f6f74000000000000000000000000000000000000000000000000000000000000847fffff000000000000000000000000000000000000000000000000000000000000160361272157837f8c0b5119d4cec7b284c6b1b39252a03d1e2f2d7451a5895562524c113bb952be848484604051612714939291906139df565b60405180910390a2612192565b600061272d85856125b7565b9050600061273a86612ab6565b905060005b815181101561280f57600082828151811061275c5761275c613391565b602002602001015190506127886004826affffffffffffffffffffff1916612b3f90919063ffffffff16565b15612806576040517f964f667d000000000000000000000000000000000000000000000000000000008152606082901c9063964f667d906127d3908b908b908b908b90600401613a12565b600060405180830381600087803b1580156127ed57600080fd5b505af1158015612801573d6000803e3d6000fd5b505050505b5060010161273f565b50857f8c0b5119d4cec7b284c6b1b39252a03d1e2f2d7451a5895562524c113bb952be868686604051612844939291906139df565b60405180910390a261285f828565ffffffffffff1685612b5d565b60005b815181101561293257600082828151811061287f5761287f613391565b602002602001015190506128ab6008826affffffffffffffffffffff1916612b3f90919063ffffffff16565b15612929576040517fa8ba8721000000000000000000000000000000000000000000000000000000008152606082901c9063a8ba8721906128f6908b908b908b908b90600401613a12565b600060405180830381600087803b15801561291057600080fd5b505af1158015612924573d6000803e3d6000fd5b505050505b50600101612862565b50505050505050565b60405160208101601f19603f848401011660405282825261263e858585846120cd565b6000828260405160200161297392919061395c565b60408051601f1981840301815291905280516020909101207f14e2fcc58e58e68ec7edc30c8d50dccc3ce2714a623ec81f46b6a63922d76569189392505050565b606060006129c28560801c90565b90506fffffffffffffffffffffffffffffffff851660008582816129e8576129e861320c565b04905060405193506020840160208202810160405281855260005b82811015612a23578451871c825293870193602090910190600101612a03565b50505050509392505050565b5b60208110612a4f578251825260209283019290910190601f1901612a30565b80600003612a5c57505050565b6000600019600883021c905080835116811985511617835250505050565b806000811215611aa9576040517f44dddea200000000000000000000000000000000000000000000000000000000815260040160405180910390fd5b60408051600180825281830190925260609160009190602080830190803683370190505090508281600081518110612af057612af0613391565b60209081029190910101526000612b287f746273746f726500000000000000000053746f7265486f6f6b730000000000008383612b73565b9050610bbd612b3a8260008451612198565b612bad565b60008160ff1682612b508560581c90565b1660ff1614905092915050565b610c7983838351612b6e8560200190565b612bbe565b6060610bbd612b8385858561204d565b6000612ba885612b93898961203a565b9060ff166028026038011c64ffffffffff1690565b61293b565b60606000611ce783601560006129b4565b8215612c385760208310612be857602083048401935060208381612be457612be461320c565b0692505b8215612c385760208390036000600019600885021c1990506008850281811c91508351811c9050811987541682821617875550818411612c29575050612192565b50600194909401939182900391015b5b60208210612c5a5780518455600190930192601f1990910190602001612c39565b8115612192576000600019600884021c8554835182191691161785555050505050565b600060208284031215612c8f57600080fd5b81357fffffffff0000000000000000000000000000000000000000000000000000000081168114611ce757600080fd5b600060208284031215612cd157600080fd5b5035919050565b634e487b7160e01b600052602160045260246000fd5b60028110612d0c57634e487b7160e01b600052602160045260246000fd5b9052565b60008151808452602080850194506020840160005b83811015612d4157815187529582019590820190600101612d25565b509495945050505050565b60208152612d5e602082018351612cee565b602082015160408201526040820151606082015260006060830151612d87608084018215159052565b50608083015160a083015260a083015160c083015260c083015160e083015260e0830151610100612dbb8185018315159052565b808501519150506101406101208181860152612ddb610160860184612d10565b90860151858203601f19018387015290925061066b8382612d10565b634e487b7160e01b600052604160045260246000fd5b6040516101a0810167ffffffffffffffff81118282101715612e3157612e31612df7565b60405290565b60405160c0810167ffffffffffffffff81118282101715612e3157612e31612df7565b604051610100810167ffffffffffffffff81118282101715612e3157612e31612df7565b604051601f8201601f1916810167ffffffffffffffff81118282101715612ea757612ea7612df7565b604052919050565b80358015158114611aa957600080fd5b6000808284036101c0811215612ed457600080fd5b6101a080821215612ee457600080fd5b612eec612e0d565b915084358252602085013560208301526040850135604083015260608501356060830152612f1c60808601612eaf565b6080830152612f2d60a08601612eaf565b60a0830152612f3e60c08601612eaf565b60c083015260e085013560e0830152610100808601358184015250610120612f67818701612eaf565b90830152610140612f79868201612eaf565b9083015261016085810135908301526101808086013590830152909593013593505050565b60006101a082019050825182526020830151602083015260408301516040830152606083015160608301526080830151612fdc608084018215159052565b5060a0830151612ff060a084018215159052565b5060c083015161300460c084018215159052565b5060e0838101519083015261010080840151908301526101208084015115159083015261014080840151151590830152610160808401519083015261018092830151929091019190915290565b600067ffffffffffffffff82111561306b5761306b612df7565b5060051b60200190565b600082601f83011261308657600080fd5b8151602061309b61309683613051565b612e7e565b8083825260208201915060208460051b8701019350868411156130bd57600080fd5b602086015b848110156130e957805160ff811681146130dc5760008081fd5b83529183019183016130c2565b509695505050505050565b600082601f83011261310557600080fd5b8151602061311561309683613051565b8083825260208201915060208460051b87010193508684111561313757600080fd5b602086015b848110156130e9578051835291830191830161313c565b60006020828403121561316557600080fd5b815167ffffffffffffffff8082111561317d57600080fd5b9083019060c0828603121561319157600080fd5b613199612e37565b8251815260208301516020820152604083015160408201526060830151828111156131c357600080fd5b6131cf87828601613075565b6060830152506080830151608082015260a0830151828111156131f157600080fd5b6131fd878286016130f4565b60a08301525095945050505050565b634e487b7160e01b600052601260045260246000fd5b634e487b7160e01b600052601160045260246000fd5b6000826132475761324761320c565b60001983147f80000000000000000000000000000000000000000000000000000000000000008314161561327d5761327d613222565b500590565b81810360008312801583831316838312821617156132a2576132a2613222565b5092915050565b6000602082840312156132bb57600080fd5b815167ffffffffffffffff808211156132d357600080fd5b9083019061010082860312156132e857600080fd5b6132f0612e5a565b825181526020830151602082015260408301518281111561331057600080fd5b61331c87828601613075565b6040830152506060830151606082015260808301518281111561333e57600080fd5b61334a878286016130f4565b60808301525060a083015160a082015260c083015160c082015260e08301518281111561337657600080fd5b613382878286016130f4565b60e08301525095945050505050565b634e487b7160e01b600052603260045260246000fd5b600060e082840312156133b957600080fd5b60405160e0810181811067ffffffffffffffff821117156133dc576133dc612df7565b8060405250825181526020830151602082015260408301516040820152606083015160608201526080830151608082015260a083015160a082015260c083015160c08201528091505092915050565b60006020828403121561343d57600080fd5b815167ffffffffffffffff8082111561345557600080fd5b90830190610100828603121561346a57600080fd5b613472612e5a565b8251815260208301518281111561348857600080fd5b61349487828601613075565b60208301525060408301516040820152606083015160608201526080830151608082015260a083015160a082015260c083015160c082015260e083015160e082015280935050505092915050565b600060208083850312156134f557600080fd5b825167ffffffffffffffff8082111561350d57600080fd5b818501915085601f83011261352157600080fd5b815161352f61309682613051565b81815260059190911b8301840190848101908883111561354e57600080fd5b938501935b8285101561357b578451848116811461356c5760008081fd5b82529385019390850190613553565b98975050505050505050565b80820281158282048414176101cb576101cb613222565b808202600082127f8000000000000000000000000000000000000000000000000000000000000000841416156135d6576135d6613222565b81810583148215176101cb576101cb613222565b8381526060602082015260006136036060830185612d10565b9050826040830152949350505050565b60005b8381101561362e578181015183820152602001613616565b50506000910152565b600082601f83011261364857600080fd5b815167ffffffffffffffff81111561366257613662612df7565b6136756020601f19601f84011601612e7e565b81815284602083860101111561368a57600080fd5b610bbd826020830160208701613613565b6000806000606084860312156136b057600080fd5b835167ffffffffffffffff808211156136c857600080fd5b6136d487838801613637565b94506020860151935060408601519150808211156136f157600080fd5b506136fe86828701613637565b9150509250925092565b60008151808452613720816020860160208601613613565b601f01601f19169290920160200192915050565b6040815260006137476040830185613708565b90506001600160a01b03831660208301529392505050565b60008261376e5761376e61320c565b500690565b6000826137825761378261320c565b500490565b80820182811260008312801582168215821617156137a7576137a7613222565b505092915050565b602081526000611ce76020830184613708565b8481526080602082015260006137db6080830186612d10565b60ff949094166040830152506060015292915050565b60006020828403121561380357600080fd5b5051919050565b85815260a06020820152600061382360a0830187612d10565b60ff86166040840152828103606084015261383e8186613708565b9150508260808301529695505050505050565b60007f8000000000000000000000000000000000000000000000000000000000000000820361388257613882613222565b5060000390565b808201808211156101cb576101cb613222565b600060ff821660ff81036138b2576138b2613222565b60010192915050565b7fffff0000000000000000000000000000000000000000000000000000000000008416815260007f3a00000000000000000000000000000000000000000000000000000000000000806002840152845161391c816003860160208901613613565b80840190508160038201528451915061393c826004830160208801613613565b0160040195945050505050565b818103818111156101cb576101cb613222565b8281526000602080830184516020860160005b8281101561398b5781518452928401929084019060010161396f565b5091979650505050505050565b6060815260006139ab6060830186613708565b60208301949094525060400152919050565b6040815260006139d06040830185613708565b90508260208301529392505050565b6060815260006139f26060830186612d10565b65ffffffffffff85166020840152828103604084015261066b8185613708565b848152608060208201526000613a2b6080830186612d10565b65ffffffffffff851660408401528281036060840152613a4b8185613708565b97965050505050505056fea2646970667358221220f18afefc06eebb549fc3d599796c946877909d9bc4202e9be6b21ad2e54c2a4164736f6c63430008180033","linkReferences":{"src/libraries/LibChunks.sol":{"LibChunks":[{"start":2325,"length":20},{"start":3541,"length":20}]}}},"methodIdentifiers":{"_msgSender()":"119df25f","_msgValue()":"45ec9354","_world()":"e1af802c","executeAction((bytes32,uint256,bytes32,bytes32,bool,bool,bool,int256,int256,bool,bool,uint256,uint256),uint256)":"6783d47a","getDied(bytes32)":"def4c3ff","getEncounter(bytes32)":"4dda27e8","supportsInterface(bytes4)":"01ffc9a7"},"id":120}