{"abi":[{"type":"function","name":"_msgSender","inputs":[],"outputs":[{"name":"sender","type":"address","internalType":"address"}],"stateMutability":"view"},{"type":"function","name":"_msgValue","inputs":[],"outputs":[{"name":"value","type":"uint256","internalType":"uint256"}],"stateMutability":"pure"},{"type":"function","name":"_world","inputs":[],"outputs":[{"name":"","type":"address","internalType":"address"}],"stateMutability":"view"},{"type":"function","name":"calculateCombatStats","inputs":[{"name":"entityId","type":"bytes32","internalType":"bytes32"}],"outputs":[{"name":"_stats","type":"tuple","internalType":"struct AdjustedCombatStats","components":[{"name":"strength","type":"int256","internalType":"int256"},{"name":"agility","type":"int256","internalType":"int256"},{"name":"intelligence","type":"int256","internalType":"int256"},{"name":"armor","type":"int256","internalType":"int256"},{"name":"maxHp","type":"int256","internalType":"int256"},{"name":"currentHp","type":"int256","internalType":"int256"}]}],"stateMutability":"nonpayable"},{"type":"function","name":"executeAction","inputs":[{"name":"actionOutcomeData","type":"tuple","internalType":"struct ActionOutcomeData","components":[{"name":"itemId","type":"uint256","internalType":"uint256"},{"name":"attackerId","type":"bytes32","internalType":"bytes32"},{"name":"defenderId","type":"bytes32","internalType":"bytes32"},{"name":"attackerDamageDelt","type":"int256","internalType":"int256"},{"name":"defenderDamageDelt","type":"int256","internalType":"int256"},{"name":"attackerDied","type":"bool","internalType":"bool"},{"name":"defenderDied","type":"bool","internalType":"bool"},{"name":"blockNumber","type":"uint256","internalType":"uint256"},{"name":"timestamp","type":"uint256","internalType":"uint256"},{"name":"damagePerHit","type":"int256[]","internalType":"int256[]"},{"name":"effectIds","type":"bytes32[]","internalType":"bytes32[]"},{"name":"hit","type":"bool[]","internalType":"bool[]"},{"name":"miss","type":"bool[]","internalType":"bool[]"},{"name":"crit","type":"bool[]","internalType":"bool[]"}]},{"name":"randomNumber","type":"uint256","internalType":"uint256"}],"outputs":[{"name":"","type":"tuple","internalType":"struct ActionOutcomeData","components":[{"name":"itemId","type":"uint256","internalType":"uint256"},{"name":"attackerId","type":"bytes32","internalType":"bytes32"},{"name":"defenderId","type":"bytes32","internalType":"bytes32"},{"name":"attackerDamageDelt","type":"int256","internalType":"int256"},{"name":"defenderDamageDelt","type":"int256","internalType":"int256"},{"name":"attackerDied","type":"bool","internalType":"bool"},{"name":"defenderDied","type":"bool","internalType":"bool"},{"name":"blockNumber","type":"uint256","internalType":"uint256"},{"name":"timestamp","type":"uint256","internalType":"uint256"},{"name":"damagePerHit","type":"int256[]","internalType":"int256[]"},{"name":"effectIds","type":"bytes32[]","internalType":"bytes32[]"},{"name":"hit","type":"bool[]","internalType":"bool[]"},{"name":"miss","type":"bool[]","internalType":"bool[]"},{"name":"crit","type":"bool[]","internalType":"bool[]"}]}],"stateMutability":"nonpayable"},{"type":"function","name":"getDied","inputs":[{"name":"entityId","type":"bytes32","internalType":"bytes32"}],"outputs":[{"name":"isDied","type":"bool","internalType":"bool"}],"stateMutability":"view"},{"type":"function","name":"getEncounter","inputs":[{"name":"encounterId","type":"bytes32","internalType":"bytes32"}],"outputs":[{"name":"","type":"tuple","internalType":"struct CombatEncounterData","components":[{"name":"encounterType","type":"uint8","internalType":"enum EncounterType"},{"name":"start","type":"uint256","internalType":"uint256"},{"name":"end","type":"uint256","internalType":"uint256"},{"name":"rewardsDistributed","type":"bool","internalType":"bool"},{"name":"currentTurn","type":"uint256","internalType":"uint256"},{"name":"currentTurnTimer","type":"uint256","internalType":"uint256"},{"name":"maxTurns","type":"uint256","internalType":"uint256"},{"name":"attackersAreMobs","type":"bool","internalType":"bool"},{"name":"defenders","type":"bytes32[]","internalType":"bytes32[]"},{"name":"attackers","type":"bytes32[]","internalType":"bytes32[]"}]}],"stateMutability":"view"},{"type":"function","name":"supportsInterface","inputs":[{"name":"interfaceId","type":"bytes4","internalType":"bytes4"}],"outputs":[{"name":"","type":"bool","internalType":"bool"}],"stateMutability":"pure"},{"type":"event","name":"Store_SpliceStaticData","inputs":[{"name":"tableId","type":"bytes32","indexed":true,"internalType":"ResourceId"},{"name":"keyTuple","type":"bytes32[]","indexed":false,"internalType":"bytes32[]"},{"name":"start","type":"uint48","indexed":false,"internalType":"uint48"},{"name":"data","type":"bytes","indexed":false,"internalType":"bytes"}],"anonymous":false},{"type":"error","name":"IntOverflow","inputs":[]},{"type":"error","name":"Slice_OutOfBounds","inputs":[{"name":"data","type":"bytes","internalType":"bytes"},{"name":"start","type":"uint256","internalType":"uint256"},{"name":"end","type":"uint256","internalType":"uint256"}]},{"type":"error","name":"World_AccessDenied","inputs":[{"name":"resource","type":"string","internalType":"string"},{"name":"caller","type":"address","internalType":"address"}]}],"bytecode":{"object":"0x608060405234801561001057600080fd5b506141e0806100206000396000f3fe608060405234801561001057600080fd5b50600436106100885760003560e01c80634dda27e81161005b5780634dda27e814610147578063d01f757f14610167578063def4c3ff14610187578063e1af802c1461019a57600080fd5b806301ffc9a71461008d578063119df25f146100b5578063176a86be146100d557806345ec935414610134575b600080fd5b6100a061009b366004613235565b6101a2565b60405190151581526020015b60405180910390f35b6100bd61023b565b6040516001600160a01b0390911681526020016100ac565b6100e86100e3366004613277565b61024a565b6040516100ac9190600060c082019050825182526020830151602083015260408301516040830152606083015160608301526080830151608083015260a083015160a083015292915050565b604051601f1936013581526020016100ac565b61015a610155366004613277565b6102fb565b6040516100ac9190613304565b61017a61017536600461357b565b61035f565b6040516100ac919061372a565b6100a0610195366004613277565b610893565b6100bd61089e565b60007fffffffff0000000000000000000000000000000000000000000000000000000082167fb5dee12700000000000000000000000000000000000000000000000000000000148061023557507fffffffff0000000000000000000000000000000000000000000000000000000082167f01ffc9a700000000000000000000000000000000000000000000000000000000145b92915050565b60006102456108a8565b905090565b6102836040518060c001604052806000815260200160008152602001600081526020016000815260200160008152602001600081525090565b61028b61089e565b6001600160a01b031663af762aee836040518263ffffffff1660e01b81526004016102b891815260200190565b60c0604051808303816000875af11580156102d7573d6000803e3d6000fd5b505050506040513d601f19601f820116820180604052508101906102359190613835565b6103566040805161014081019091528060008152602001600081526020016000815260200160001515815260200160008152602001600081526020016000815260200160001515815260200160608152602001606081525090565b610235826108da565b6103db604051806101c001604052806000815260200160008019168152602001600080191681526020016000815260200160008152602001600015158152602001600015158152602001600081526020016000815260200160608152602001606081526020016060815260200160608152602001606081525090565b6103ec306103e761023b565b6109df565b6103f98360200151610893565b158015610410575061040e8360400151610893565b155b1561088c5760005b8361014001515181101561085957600061044f8561014001518381518110610442576104426138af565b60200260200101516109f5565b905080602001516104a75760405162461bcd60e51b815260206004820152601560248201527f616374696f6e20646f6573206e6f74206578697374000000000000000000000060448201526064015b60405180910390fd5b6001815160038111156104bc576104bc613290565b03610649576104f885610140015183815181106104db576104db6138af565b602002602001015186602001518760400151886000015188610aa9565b876101200151858151811061050f5761050f6138af565b60200260200101886101600151868151811061052d5761052d6138af565b60200260200101896101a00151878151811061054b5761054b6138af565b9315156020948502919091019093019290925291151590525261012085015180518390811061057c5761057c6138af565b60200260200101518560600181815161059591906138db565b9052506101608501518051839081106105b0576105b06138af565b60200260200101511561061b57600085610120015183815181106105d6576105d66138af565b60200260200101516105eb8760400151610f40565b6105f59190613903565b90506000811361060757600160c08701525b610615866040015182610fda565b50610850565b60018561018001518381518110610634576106346138af565b91151560209283029190910190910152610850565b60028151600381111561065e5761065e613290565b036107a05761069a856101400151838151811061067d5761067d6138af565b602002602001015186602001518760400151886000015188611093565b87610120015185815181106106b1576106b16138af565b6020026020010188610160015186815181106106cf576106cf6138af565b60200260200101896101a0015187815181106106ed576106ed6138af565b9315156020948502919091019093019290925291151590525261012085015180518390811061071e5761071e6138af565b60200260200101518560600181815161073791906138db565b905250610160850151805183908110610752576107526138af565b60200260200101511561061b576000670de0b6b3a76400008661012001518481518110610781576107816138af565b60200260200101516107939190613940565b6105eb8760400151610f40565b6003815160038111156107b5576107b5613290565b03610808576107f185610140015183815181106107d4576107d46138af565b602002602001015186602001518760400151886000015188611416565b8561016001518381518110610634576106346138af565b60405162461bcd60e51b815260206004820152601a60248201527f616374696f6e2074797065206e6f74207265636f676e697a6564000000000000604482015260640161049e565b50600101610418565b508260c001511561087357610873836040015160016118ab565b8260a001511561088c5761088c836020015160016118ab565b5090919050565b600061023582611964565b6000610245611a02565b7fffffffffffffffffffffffffffffffffffffffffffffffffffffffffffffffcc36013560601c806108d75750335b90565b6109356040805161014081019091528060008152602001600081526020016000815260200160001515815260200160008152602001600081526020016000815260200160001515815260200160608152602001606081525090565b60408051600180825281830190925260009160208083019080368337019050509050828160008151811061096b5761096b6138af565b6020908102919091010152600080806109c47f74625544000000000000000000000000436f6d626174456e636f756e74657200857ea3080201202001202020010000000000000000000000000000000000000000611a0c565b9250925092506109d5838383611adc565b9695505050505050565b6109f16109eb83611bbf565b82611c5c565b5050565b6040805180820190915260008082526020820152604080516001808252818301909252600091602080830190803683370190505090508281600081518110610a3f57610a3f6138af565b602090810291909101015260008080610a987f7462554400000000000000000000000045666665637473000000000000000000857e02020001010000000000000000000000000000000000000000000000000000611a0c565b9250925092506109d5838383611ca8565b600080600080610ab88861024a565b90506000610ac58861024a565b90506000610ad161089e565b6001600160a01b031663810c1dc1896040518263ffffffff1660e01b8152600401610afe91815260200190565b600060405180830381865afa158015610b1b573d6000803e3d6000fd5b505050506040513d6000823e601f3d908101601f19168201604052610b4391908101906139e9565b9050610b4d61089e565b6040517f8340b0e1000000000000000000000000000000000000000000000000000000008152600481018a9052602481018d90526001600160a01b039190911690638340b0e190604401602060405180830381865afa158015610bb4573d6000803e3d6000fd5b505050506040513d601f19601f82011682018060405250810190610bd89190613a9d565b610c245760405162461bcd60e51b815260206004820152600e60248201527f494e56414c494420414354494f4e000000000000000000000000000000000000604482015260640161049e565b6000610c2e61089e565b6001600160a01b03166336915e548d6040518263ffffffff1660e01b8152600401610c5b91815260200190565b608060405180830381865afa158015610c78573d6000803e3d6000fd5b505050506040513d601f19601f82011682018060405250810190610c9c9190613aba565b90506000610ca98b610f40565b1315610f24576040517f4dddf8370000000000000000000000000000000000000000000000000000000081526004810189905260009073__$227e4555c1f608352b26068e438454dd8b$__90634dddf83790602401600060405180830381865af4158015610d1b573d6000803e3d6000fd5b505050506040513d6000823e601f3d908101601f19168201604052610d439190810190613b00565b9050610dab81600081518110610d5b57610d5b6138af565b602002602001015167ffffffffffffffff1682600181518110610d8057610d806138af565b602002602001015167ffffffffffffffff168460200151856060015189602001518960200151611cfd565b90975095508615610ed757670de0b6b3a764000080600084600001518760600151610dd69190613903565b13610de2576000610df3565b83516060870151610df39190613903565b610dfd9190613ba5565b610e079190613940565b610e328387600001518685600281518110610e2457610e246138af565b60200260200101518b611ddd565b610e3c9190613903565b9750610e7c6040518060400160405280600481526020017f4849542100000000000000000000000000000000000000000000000000000000815250611e7c565b8515610ed257610ec06040518060400160405280600581526020017f4352495421000000000000000000000000000000000000000000000000000000815250611e7c565b610ecb600289613bbc565b9750600195505b610f1e565b610f156040518060400160405280600581526020017f4d49535321000000000000000000000000000000000000000000000000000000815250611e7c565b60009750600096505b50610f31565b6000965060009550600094505b50505050955095509592505050565b604080516001808252818301909252600091829190602080830190803683370190505090508281600081518110610f7957610f796138af565b60209081029190910101526000610fd27f74625544000000000000000000000000537461747300000000000000000000008360057ee1080020200120202020200000000000000000000000000000000000000000611ef0565b949350505050565b604080516001808252818301909252600091602080830190803683370190505090508281600081518110611010576110106138af565b60200260200101818152505061108e7f746255440000000000000000000000005374617473000000000000000000000060001b8260058560405160200161105991815260200190565b60408051601f198184030181529190527ee1080020200120202020200000000000000000000000000000000000000000611fad565b505050565b6000806000806110a28861024a565b905060006110af8861024a565b905060006110bb61089e565b6001600160a01b031663975bb835896040518263ffffffff1660e01b81526004016110e891815260200190565b600060405180830381865afa158015611105573d6000803e3d6000fd5b505050506040513d6000823e601f3d908101601f1916820160405261112d9190810190613c08565b905061113761089e565b6040517f8340b0e1000000000000000000000000000000000000000000000000000000008152600481018a9052602481018d90526001600160a01b039190911690638340b0e190604401602060405180830381865afa15801561119e573d6000803e3d6000fd5b505050506040513d601f19601f820116820180604052508101906111c29190613a9d565b61120e5760405162461bcd60e51b815260206004820152600e60248201527f494e56414c494420414354494f4e000000000000000000000000000000000000604482015260640161049e565b600061121861089e565b6001600160a01b0316637fe3cf018d6040518263ffffffff1660e01b815260040161124591815260200190565b606060405180830381865afa158015611262573d6000803e3d6000fd5b505050506040513d601f19601f820116820180604052508101906112869190613c93565b905060006112938b610f40565b1315610f24576040517f4dddf8370000000000000000000000000000000000000000000000000000000081526004810189905260009073__$227e4555c1f608352b26068e438454dd8b$__90634dddf83790602401600060405180830381865af4158015611305573d6000803e3d6000fd5b505050506040513d6000823e601f3d908101601f1916820160405261132d9190810190613b00565b905061139581600081518110611345576113456138af565b602002602001015167ffffffffffffffff168260018151811061136a5761136a6138af565b602002602001015167ffffffffffffffff168460000151856040015189604001518960400151611cfd565b90975095508615610ed7576113d08284836002815181106113b8576113b86138af565b6020026020010151886040015188604001518b612063565b97508515610ed257610ec06040518060400160405280600581526020017f4352495421000000000000000000000000000000000000000000000000000000815250611e7c565b6000806114228661024a565b9050600061142f8661024a565b9050600061143b61089e565b6001600160a01b031663a2bc1c468a6040518263ffffffff1660e01b815260040161146891815260200190565b60e060405180830381865afa158015611485573d6000803e3d6000fd5b505050506040513d601f19601f820116820180604052508101906114a99190613cef565b60a0015190506114b761089e565b6040517f8340b0e100000000000000000000000000000000000000000000000000000000815260048101889052602481018b90526001600160a01b039190911690638340b0e190604401602060405180830381865afa15801561151e573d6000803e3d6000fd5b505050506040513d601f19601f820116820180604052508101906115429190613a9d565b61158e5760405162461bcd60e51b815260206004820152600e60248201527f494e56414c494420454646454354000000000000000000000000000000000000604482015260640161049e565b6115b96040518060800160405280600081526020016000815260200160008152602001600081525090565b60006115c489610f40565b131561189e576040517f4dddf8370000000000000000000000000000000000000000000000000000000081526004810187905260009073__$227e4555c1f608352b26068e438454dd8b$__90634dddf83790602401600060405180830381865af4158015611636573d6000803e3d6000fd5b505050506040513d6000823e601f3d908101601f1916820160405261165e9190810190613b00565b9050600083600381111561167457611674613290565b0361168257600195506117ff565b600183600381111561169657611696613290565b0361170957611701816000815181106116b1576116b16138af565b602002602001015167ffffffffffffffff16826001815181106116d6576116d66138af565b602002602001015167ffffffffffffffff168460200151856060015189600001518960000151611cfd565b5095506117ff565b600283600381111561171d5761171d613290565b036117385761170181600081518110610d5b57610d5b6138af565b600383600381111561174c5761174c613290565b036117b75761170181600081518110611767576117676138af565b602002602001015167ffffffffffffffff168260018151811061178c5761178c6138af565b602002602001015167ffffffffffffffff168460200151856060015189604001518960400151611cfd565b60405162461bcd60e51b815260206004820152601c60248201527f556e7265636f676e697a656420726573697374616e6365207374617400000000604482015260640161049e565b851561189c5761180d61089e565b6040517f56a93542000000000000000000000000000000000000000000000000000000008152600481018b9052602481018d90526001600160a01b0391909116906356a935429060440160c0604051808303816000875af1158015611876573d6000803e3d6000fd5b505050506040513d601f19601f8201168201806040525081019061189a9190613835565b505b505b5050505095945050505050565b6040805160018082528183019092526000916020808301908036833701905050905082816000815181106118e1576118e16138af565b60200260200101818152505061108e7f74625544000000000000000000000000456e636f756e746572456e746974790060001b8260018560405160200161192f91151560f81b815260010190565b60408051601f198184030181529190527e21020120010000000000000000000000000000000000000000000000000000611fad565b60408051600180825281830190925260009182919060208083019080368337019050509050828160008151811061199d5761199d6138af565b602090810291909101015260006119f67f74625544000000000000000000000000456e636f756e746572456e74697479008360017e21020120010000000000000000000000000000000000000000000000000000611ef0565b9050610fd28160f81c90565b6000610245612245565b6060600060606000611a1c612245565b9050306001600160a01b03821603611a4557611a39878787612284565b93509350935050611ad3565b6040517f419b58fd0000000000000000000000000000000000000000000000000000000081526001600160a01b0382169063419b58fd90611a8e908a908a908a90600401613d7f565b600060405180830381865afa158015611aab573d6000803e3d6000fd5b505050506040513d6000823e601f3d908101601f19168201604052611a399190810190613e30565b93509350939050565b611b376040805161014081019091528060008152602001600081526020016000815260200160001515815260200160008152602001600081526020016000815260200160001515815260200160608152602001606081525090565b611b408461238c565b80151560e08a015260c0890182905260a089018390526080890184905284151560608a0152604089018690526020890187905288886002811115611b8657611b86613290565b6002811115611b9757611b97613290565b8152505050505050505050611bac8383612410565b6101208301526101008201529392505050565b60408051600180825281830190925260009182919060208083019080368337019050509050826001600160a01b031660001b81600081518110611c0457611c046138af565b60209081029190910101526000610fd27f7462776f726c6400000000000000000053797374656d5265676973747279000083837e20010020000000000000000000000000000000000000000000000000000000611ef0565b611c66828261245f565b6109f157611c73826124c4565b816040517fd787b73700000000000000000000000000000000000000000000000000000000815260040161049e929190613ec9565b6040805180820190915260008082526020820152611cc584612601565b801515602084015282826003811115611ce057611ce0613290565b6003811115611cf157611cf1613290565b81525050509392505050565b60008080722cd76fe086b93ce2f768a00b22a000000000006710a741a462780000611d2a6103e88c613ef4565b611d34888b612637565b611d3e9190613ba5565b611d489190613ba5565b611d529190613f08565b90506000722cd76fe086b93ce2f768a00b22a00000000000670de0b6b3a7640000611d7e876000612637565b611d8a6101908d613ef4565b611d949190613ba5565b611d9e9190613ba5565b611da89190613f08565b90508082101593508315611dd057611dc1600982613ba5565b611dcb88846138db565b101592505b5050965096945050505050565b600081611e6c576000611dfc8460041867ffffffffffffffff1661268c565b905060008560800151866060015183611e159190613f1c565b1315611e2f576060860151611e2a9083613f1c565b611e35565b85608001515b8860400151611e4491906138db565b9050670de0b6b3a7640000611e5988836126c8565b611e639190613bbc565b92505050611e73565b5060608301515b95945050505050565b611eed81604051602401611e909190613f30565b60408051601f198184030181529190526020810180517bffffffffffffffffffffffffffffffffffffffffffffffffffffffff167f41304fac00000000000000000000000000000000000000000000000000000000179052612749565b50565b600080611efb612245565b9050306001600160a01b03821603611f2157611f198686868661276a565b915050610fd2565b6040517f8c364d590000000000000000000000000000000000000000000000000000000081526001600160a01b03821690638c364d5990611f6c908990899089908990600401613f43565b602060405180830381865afa158015611f89573d6000803e3d6000fd5b505050506040513d601f19601f82011682018060405250810190611f199190613f72565b6000611fb7612245565b9050306001600160a01b03821603611fdb57611fd68686868686612797565b61205b565b6040517f390baae00000000000000000000000000000000000000000000000000000000081526001600160a01b0382169063390baae0906120289089908990899089908990600401613f8b565b600060405180830381600087803b15801561204257600080fd5b505af1158015612056573d6000803e3d6000fd5b505050505b505050505050565b60006120a36040518060400160405280600681526020017f4d41474943210000000000000000000000000000000000000000000000000000815250611e7c565b855160001280156120b8575060008660200151135b156121915760008261211c57865160208801516120df9067ffffffffffffffff8916613ef4565b11156121035760208701516120fe9067ffffffffffffffff8816613ef4565b612106565b86515b886020015161211591906138db565b9050612133565b8760200151876020015161213091906138db565b90505b670de0b6b3a7640000806000861361214c57600061214e565b855b6121589190613bbc565b6121629190613940565b670de0b6b3a764000061217587846126c8565b61217f9190613bbc565b6121899190613903565b9150506109d5565b855160001380156121a6575060008660200151125b156109d557816122265785516020870151670de0b6b3a764000091906121d69067ffffffffffffffff8916613ef4565b11156122035760208701516121f59067ffffffffffffffff8816613ef4565b6121fe90613fd2565b612206565b86515b886020015161221591906138db565b61221f9190613bbc565b90506109d5565b8660200151866020015161223a91906138db565b979650505050505050565b7f629a4c26e296b22a8e0856e9f6ecb2d1008d7e00081111962cd175fa7488e175546000906001600160a01b03168061227f573391505090565b919050565b6060600060606000612295856127b3565b90506122a28787836127d6565b935060006122af8661280f565b90508015612381576122c1888861284c565b935066ffffffffffffff841667ffffffffffffffff8111156122e5576122e56133af565b6040519080825280601f01601f19166020018201604052801561230f576020820181803683370190505b5092506020830160005b828160ff16101561237e5760006123318b8b8461285f565b9050600061234e888460ff166028026038011c64ffffffffff1690565b905061235d82600083876128df565b612367818561400a565b9350505080806123769061401d565b915050612319565b50505b505093509350939050565b6000806000806000806000806123a6896000016020015190565b60f81c60028111156123ba576123ba613290565b60218a015160418b015160618c0151929a5090985096506123dc905b60f81c90565b60628a015160828b015160a28c015160c28d015193985091965094509250612403906123d6565b9050919395975091939597565b6060806000603885901c64ffffffffff1661243461242f8684846129aa565b612a38565b935090508064ffffffffff606087901c160161245461242f8684846129aa565b925050509250929050565b60006124ad7f6e730000000000000000000000000000000000000000000000000000000000007dffffffffffffffffffffffffffff0000000000000000000000000000000085161783612a49565b806124bd57506124bd8383612a49565b9392505050565b606081601081901b60006124d783612b12565b9050827fffffffffffffffffffffffffffff0000000000000000000000000000000000008316156125325761252d7fffffffffffffffffffffffffffff0000000000000000000000000000000000008416612b29565b612569565b6040518060400160405280600681526020017f3c726f6f743e00000000000000000000000000000000000000000000000000008152505b7fffffffffffffffffffffffffffffffff0000000000000000000000000000000083161561259f5761259a83612b29565b6125d6565b6040518060400160405280600681526020017f3c726f6f743e00000000000000000000000000000000000000000000000000008152505b6040516020016125e89392919061403c565b6040516020818303038152906040529350505050919050565b6020810151600090819060f81c600381111561261f5761261f613290565b6021840151909250612630906123d6565b9050915091565b60008082612646600386613940565b61265091906138db565b1361266357670de0b6b3a76400006124bd565b670de0b6b3a764000082612678600386613940565b61268291906138db565b6124bd9190613bbc565b80600081121561227f576040517f44dddea200000000000000000000000000000000000000000000000000000000815260040160405180910390fd5b60008083131561273e576000612708670de0b6b3a76400006103e8816126ef600589613bbc565b6126f99190613bbc565b6127039190613940565b612bcd565b905082670de0b6b3a7640000612722836127038385613bbc565b61272c9190613940565b61273691906138db565b915050610235565b6124bd600283613940565b80516a636f6e736f6c652e6c6f67602083016000808483855afa5050505050565b6000611e736127798686612bf6565b60ff858116601b0360080285901c166127928587612c4c565b612c85565b6127ac85856127a68487612c4c565b85612cd6565b5050505050565b600060086127c3600260206140ca565b6127cd9190613ba5565b9190911c919050565b6060816000036127f557506040805160208101909152600081526124bd565b60006128018585612bf6565b9050611e7381600085612f7a565b60006008600180612822600260206140ca565b61282c91906140ca565b61283691906140ca565b6128409190613ba5565b8260ff911c1692915050565b60006124bd61285b8484612f9d565b5490565b600083836040516020016128749291906140dd565b604051602081830303815290604052805190602001208260f81b7effffffffffffffffffffffffffffffffffffffffffffffffffffffffffffff19167f3b4102da22e32d82fc925482184f16c09fd4281692720b87d124aef6da48a0f1181860001c90509392505050565b82156129665760208310612909576020830484019350602083816129055761290561392a565b0692505b821561296657602083900360008184101561292c5750600019600884021c612936565b50600019600882021c5b8554600886021b8184511682198216178452508184116129575750506129a4565b50600194909401939182900391015b5b602082106129885783548152600190930192601f1990910190602001612967565b81156129a45780518454600019600885021c9182169119161781525b50505050565b6000818311806129ba5750835182115b156129f7578383836040517f23230fa300000000000000000000000000000000000000000000000000000000815260040161049e93929190614119565b60208401612a05848261400a565b90506000612a1385856140ca565b6fffffffffffffffffffffffffffffffff1660809290921b9190911795945050505050565b606060006124bd8360206000612ff3565b604080516002808252606082018352600092839291906020830190803683370190505090508381600081518110612a8257612a826138af565b602002602001018181525050826001600160a01b031660001b81600181518110612aae57612aae6138af565b60209081029190910101526000612b067f7462776f726c640000000000000000005265736f75726365416363657373000083837e01010001000000000000000000000000000000000000000000000000000000611ef0565b9050611e738160f81c90565b6000612b206070601061400a565b9190911b919050565b606060005b6010811015612b8e577fffffffffffffffffffffffffffffffff000000000000000000000000000000008316600882021b7fff000000000000000000000000000000000000000000000000000000000000001615612b8e57600101612b2e565b604080517fffffffffffffffffffffffffffffffff00000000000000000000000000000000851660208201528151603090910190915281815280610fd2565b6000670de0b6b3a764000082612be28561268c565b612bec9190613bbc565b6124bd9190613940565b60008282604051602001612c0b9291906140dd565b60408051601f1981840301815291905280516020909101207f86425bff6b57326c7859e89024fe4f238ca327a1ae4a230180dd2f0e88aaa7d9189392505050565b600080805b8360ff16811015612c7d57612c7360ff601b83900360080287901c168361400a565b9150600101612c51565b509392505050565b600060208210612cab57602082048401935060208281612ca757612ca761392a565b0691505b508254600882021b602082900380841115612c7d576001850154600882021c82179150509392505050565b7f6f74000000000000000000000000000000000000000000000000000000000000847fffff0000000000000000000000000000000000000000000000000000000000001603612d6057837f8c0b5119d4cec7b284c6b1b39252a03d1e2f2d7451a5895562524c113bb952be848484604051612d539392919061413e565b60405180910390a26129a4565b6000612d6c8585612bf6565b90506000612d798661306e565b905060005b8151811015612e4e576000828281518110612d9b57612d9b6138af565b60200260200101519050612dc76004826affffffffffffffffffffff19166130f790919063ffffffff16565b15612e45576040517f964f667d000000000000000000000000000000000000000000000000000000008152606082901c9063964f667d90612e12908b908b908b908b90600401614171565b600060405180830381600087803b158015612e2c57600080fd5b505af1158015612e40573d6000803e3d6000fd5b505050505b50600101612d7e565b50857f8c0b5119d4cec7b284c6b1b39252a03d1e2f2d7451a5895562524c113bb952be868686604051612e839392919061413e565b60405180910390a2612e9e828565ffffffffffff1685613115565b60005b8151811015612f71576000828281518110612ebe57612ebe6138af565b60200260200101519050612eea6008826affffffffffffffffffffff19166130f790919063ffffffff16565b15612f68576040517fa8ba8721000000000000000000000000000000000000000000000000000000008152606082901c9063a8ba872190612f35908b908b908b908b90600401614171565b600060405180830381600087803b158015612f4f57600080fd5b505af1158015612f63573d6000803e3d6000fd5b505050505b50600101612ea1565b50505050505050565b60405160208101601f19603f8484010116604052828252612c7d858585846128df565b60008282604051602001612fb29291906140dd565b60408051601f1981840301815291905280516020909101207f14e2fcc58e58e68ec7edc30c8d50dccc3ce2714a623ec81f46b6a63922d76569189392505050565b606060006130018560801c90565b90506fffffffffffffffffffffffffffffffff851660008582816130275761302761392a565b04905060405193506020840160208202810160405281855260005b82811015613062578451871c825293870193602090910190600101613042565b50505050509392505050565b604080516001808252818301909252606091600091906020808301908036833701905050905082816000815181106130a8576130a86138af565b602090810291909101015260006130e07f746273746f726500000000000000000053746f7265486f6f6b73000000000000838361312b565b9050610fd26130f282600084516129aa565b613165565b60008160ff16826131088560581c90565b1660ff1614905092915050565b61108e838383516131268560200190565b613176565b6060610fd261313b85858561285f565b60006131608561314b898961284c565b9060ff166028026038011c64ffffffffff1690565b612f7a565b606060006124bd8360156000612ff3565b82156131f057602083106131a05760208304840193506020838161319c5761319c61392a565b0692505b82156131f05760208390036000600019600885021c1990506008850281811c91508351811c90508119875416828216178755508184116131e15750506129a4565b50600194909401939182900391015b5b602082106132125780518455600190930192601f19909101906020016131f1565b81156129a4576000600019600884021c8554835182191691161785555050505050565b60006020828403121561324757600080fd5b81357fffffffff00000000000000000000000000000000000000000000000000000000811681146124bd57600080fd5b60006020828403121561328957600080fd5b5035919050565b634e487b7160e01b600052602160045260246000fd5b600381106132c457634e487b7160e01b600052602160045260246000fd5b9052565b60008151808452602080850194506020840160005b838110156132f9578151875295820195908201906001016132dd565b509495945050505050565b602081526133166020820183516132a6565b60208201516040820152604082015160608201526000606083015161333f608084018215159052565b50608083015160a083015260a083015160c083015260c083015160e083015260e08301516101006133738185018315159052565b8085015191505061014061012081818601526133936101608601846132c8565b90860151858203601f1901838701529092506109d583826132c8565b634e487b7160e01b600052604160045260246000fd5b6040516101c0810167ffffffffffffffff811182821017156133e9576133e96133af565b60405290565b604051610100810167ffffffffffffffff811182821017156133e9576133e96133af565b6040516080810167ffffffffffffffff811182821017156133e9576133e96133af565b604051601f8201601f1916810167ffffffffffffffff8111828210171561345f5761345f6133af565b604052919050565b8015158114611eed57600080fd5b803561227f81613467565b600067ffffffffffffffff82111561349a5761349a6133af565b5060051b60200190565b600082601f8301126134b557600080fd5b813560206134ca6134c583613480565b613436565b8083825260208201915060208460051b8701019350868411156134ec57600080fd5b602086015b8481101561350857803583529183019183016134f1565b509695505050505050565b600082601f83011261352457600080fd5b813560206135346134c583613480565b8083825260208201915060208460051b87010193508684111561355657600080fd5b602086015b8481101561350857803561356e81613467565b835291830191830161355b565b6000806040838503121561358e57600080fd5b823567ffffffffffffffff808211156135a657600080fd5b908401906101c082870312156135bb57600080fd5b6135c36133c5565b82358152602083013560208201526040830135604082015260608301356060820152608083013560808201526135fb60a08401613475565b60a082015261360c60c08401613475565b60c082015260e083013560e0820152610100808401358183015250610120808401358381111561363b57600080fd5b613647898287016134a4565b828401525050610140808401358381111561366157600080fd5b61366d898287016134a4565b828401525050610160808401358381111561368757600080fd5b61369389828701613513565b82840152505061018080840135838111156136ad57600080fd5b6136b989828701613513565b8284015250506101a080840135838111156136d357600080fd5b6136df89828701613513565b91830191909152509660209590950135955050505050565b60008151808452602080850194506020840160005b838110156132f957815115158752958201959082019060010161370c565b6020815281516020820152602082015160408201526040820151606082015260608201516080820152608082015160a0820152600060a083015161377260c084018215159052565b5060c083015180151560e08401525060e083015161010083810191909152830151610120808401919091528301516101c06101408085018290526137ba6101e08601846132c8565b9250808601519050601f196101608187860301818801526137db85846132c8565b9450808801519250506101808187860301818801526137fa85846136f7565b9450808801519250506101a081878603018188015261381985846136f7565b9088015187820390920184880152935090506109d583826136f7565b600060c0828403121561384757600080fd5b60405160c0810181811067ffffffffffffffff8211171561386a5761386a6133af565b8060405250825181526020830151602082015260408301516040820152606083015160608201526080830151608082015260a083015160a08201528091505092915050565b634e487b7160e01b600052603260045260246000fd5b634e487b7160e01b600052601160045260246000fd5b80820182811260008312801582168215821617156138fb576138fb6138c5565b505092915050565b8181036000831280158383131683831282161715613923576139236138c5565b5092915050565b634e487b7160e01b600052601260045260246000fd5b60008261394f5761394f61392a565b60001983147f800000000000000000000000000000000000000000000000000000000000000083141615613985576139856138c5565b500590565b600082601f83011261399b57600080fd5b815160206139ab6134c583613480565b8083825260208201915060208460051b8701019350868411156139cd57600080fd5b602086015b8481101561350857805183529183019183016139d2565b6000602082840312156139fb57600080fd5b815167ffffffffffffffff80821115613a1357600080fd5b908301906101008286031215613a2857600080fd5b613a306133ef565b825181526020830151602082015260408301516040820152606083015160608201526080830151608082015260a083015160a082015260c083015160c082015260e083015182811115613a8257600080fd5b613a8e8782860161398a565b60e08301525095945050505050565b600060208284031215613aaf57600080fd5b81516124bd81613467565b600060808284031215613acc57600080fd5b613ad4613413565b825181526020830151602082015260408301516040820152606083015160608201528091505092915050565b60006020808385031215613b1357600080fd5b825167ffffffffffffffff80821115613b2b57600080fd5b818501915085601f830112613b3f57600080fd5b8151613b4d6134c582613480565b81815260059190911b83018401908481019088831115613b6c57600080fd5b938501935b82851015613b995784518481168114613b8a5760008081fd5b82529385019390850190613b71565b98975050505050505050565b8082028115828204841417610235576102356138c5565b808202600082127f800000000000000000000000000000000000000000000000000000000000000084141615613bf457613bf46138c5565b8181058314821517610235576102356138c5565b600060208284031215613c1a57600080fd5b815167ffffffffffffffff80821115613c3257600080fd5b9083019060808286031215613c4657600080fd5b613c4e613413565b825181526020830151602082015260408301516040820152606083015182811115613c7857600080fd5b613c848782860161398a565b60608301525095945050505050565b600060608284031215613ca557600080fd5b6040516060810181811067ffffffffffffffff82111715613cc857613cc86133af565b80604052508251815260208301516020820152604083015160408201528091505092915050565b600060e08284031215613d0157600080fd5b60405160e0810181811067ffffffffffffffff82111715613d2457613d246133af565b8060405250825181526020830151602082015260408301516040820152606083015160608201526080830151608082015260a083015160048110613d6757600080fd5b60a082015260c0928301519281019290925250919050565b838152606060208201526000613d9860608301856132c8565b9050826040830152949350505050565b60005b83811015613dc3578181015183820152602001613dab565b50506000910152565b600082601f830112613ddd57600080fd5b815167ffffffffffffffff811115613df757613df76133af565b613e0a6020601f19601f84011601613436565b818152846020838601011115613e1f57600080fd5b610fd2826020830160208701613da8565b600080600060608486031215613e4557600080fd5b835167ffffffffffffffff80821115613e5d57600080fd5b613e6987838801613dcc565b9450602086015193506040860151915080821115613e8657600080fd5b50613e9386828701613dcc565b9150509250925092565b60008151808452613eb5816020860160208601613da8565b601f01601f19169290920160200192915050565b604081526000613edc6040830185613e9d565b90506001600160a01b03831660208301529392505050565b600082613f0357613f0361392a565b500690565b600082613f1757613f1761392a565b500490565b600082613f2b57613f2b61392a565b500790565b6020815260006124bd6020830184613e9d565b848152608060208201526000613f5c60808301866132c8565b60ff949094166040830152506060015292915050565b600060208284031215613f8457600080fd5b5051919050565b85815260a060208201526000613fa460a08301876132c8565b60ff861660408401528281036060840152613fbf8186613e9d565b9150508260808301529695505050505050565b60007f80000000000000000000000000000000000000000000000000000000000000008203614003576140036138c5565b5060000390565b80820180821115610235576102356138c5565b600060ff821660ff8103614033576140336138c5565b60010192915050565b7fffff0000000000000000000000000000000000000000000000000000000000008416815260007f3a00000000000000000000000000000000000000000000000000000000000000806002840152845161409d816003860160208901613da8565b8084019050816003820152845191506140bd826004830160208801613da8565b0160040195945050505050565b81810381811115610235576102356138c5565b8281526000602080830184516020860160005b8281101561410c578151845292840192908401906001016140f0565b5091979650505050505050565b60608152600061412c6060830186613e9d565b60208301949094525060400152919050565b60608152600061415160608301866132c8565b65ffffffffffff8516602084015282810360408401526109d58185613e9d565b84815260806020820152600061418a60808301866132c8565b65ffffffffffff85166040840152828103606084015261223a8185613e9d56fea2646970667358221220ceb752d6e54b2d8c06bf13f887b5005fbe110fee5d7e58b53ec8cf564adddd2064736f6c63430008180033","linkReferences":{"src/libraries/LibChunks.sol":{"LibChunks":[{"start":3329,"length":20},{"start":4843,"length":20},{"start":5660,"length":20}]}}},"methodIdentifiers":{"_msgSender()":"119df25f","_msgValue()":"45ec9354","_world()":"e1af802c","calculateCombatStats(bytes32)":"176a86be","executeAction((uint256,bytes32,bytes32,int256,int256,bool,bool,uint256,uint256,int256[],bytes32[],bool[],bool[],bool[]),uint256)":"d01f757f","getDied(bytes32)":"def4c3ff","getEncounter(bytes32)":"4dda27e8","supportsInterface(bytes4)":"01ffc9a7"},"id":235}