{"abi":[{"type":"function","name":"_msgSender","inputs":[],"outputs":[{"name":"sender","type":"address","internalType":"address"}],"stateMutability":"view"},{"type":"function","name":"_msgValue","inputs":[],"outputs":[{"name":"value","type":"uint256","internalType":"uint256"}],"stateMutability":"view"},{"type":"function","name":"_world","inputs":[],"outputs":[{"name":"","type":"address","internalType":"address"}],"stateMutability":"view"},{"type":"function","name":"createItem","inputs":[{"name":"itemType","type":"uint8","internalType":"enum ItemType"},{"name":"supply","type":"uint256","internalType":"uint256"},{"name":"dropChance","type":"uint256","internalType":"uint256"},{"name":"price","type":"uint256","internalType":"uint256"},{"name":"rarity","type":"uint256","internalType":"uint256"},{"name":"stats","type":"bytes","internalType":"bytes"},{"name":"itemMetadataURI","type":"string","internalType":"string"}],"outputs":[{"name":"","type":"uint256","internalType":"uint256"}],"stateMutability":"nonpayable"},{"type":"function","name":"createItems","inputs":[{"name":"itemTypes","type":"uint8[]","internalType":"enum ItemType[]"},{"name":"supply","type":"uint256[]","internalType":"uint256[]"},{"name":"dropChances","type":"uint256[]","internalType":"uint256[]"},{"name":"prices","type":"uint256[]","internalType":"uint256[]"},{"name":"rarities","type":"uint256[]","internalType":"uint256[]"},{"name":"stats","type":"bytes[]","internalType":"bytes[]"},{"name":"itemMetadataURIs","type":"string[]","internalType":"string[]"}],"outputs":[],"stateMutability":"nonpayable"},{"type":"function","name":"getCurrentItemsCounter","inputs":[],"outputs":[{"name":"","type":"uint256","internalType":"uint256"}],"stateMutability":"view"},{"type":"function","name":"resupplyLootManager","inputs":[{"name":"itemId","type":"uint256","internalType":"uint256"},{"name":"newSupply","type":"uint256","internalType":"uint256"}],"outputs":[],"stateMutability":"nonpayable"},{"type":"function","name":"setTokenUri","inputs":[{"name":"tokenId","type":"uint256","internalType":"uint256"},{"name":"tokenUri","type":"string","internalType":"string"}],"outputs":[],"stateMutability":"nonpayable"},{"type":"function","name":"supportsInterface","inputs":[{"name":"interfaceId","type":"bytes4","internalType":"bytes4"}],"outputs":[{"name":"","type":"bool","internalType":"bool"}],"stateMutability":"pure"},{"type":"event","name":"Store_SetRecord","inputs":[{"name":"tableId","type":"bytes32","indexed":true,"internalType":"ResourceId"},{"name":"keyTuple","type":"bytes32[]","indexed":false,"internalType":"bytes32[]"},{"name":"staticData","type":"bytes","indexed":false,"internalType":"bytes"},{"name":"encodedLengths","type":"bytes32","indexed":false,"internalType":"EncodedLengths"},{"name":"dynamicData","type":"bytes","indexed":false,"internalType":"bytes"}],"anonymous":false},{"type":"event","name":"Store_SpliceDynamicData","inputs":[{"name":"tableId","type":"bytes32","indexed":true,"internalType":"ResourceId"},{"name":"keyTuple","type":"bytes32[]","indexed":false,"internalType":"bytes32[]"},{"name":"dynamicFieldIndex","type":"uint8","indexed":false,"internalType":"uint8"},{"name":"start","type":"uint48","indexed":false,"internalType":"uint48"},{"name":"deleteCount","type":"uint40","indexed":false,"internalType":"uint40"},{"name":"encodedLengths","type":"bytes32","indexed":false,"internalType":"EncodedLengths"},{"name":"data","type":"bytes","indexed":false,"internalType":"bytes"}],"anonymous":false},{"type":"event","name":"Store_SpliceStaticData","inputs":[{"name":"tableId","type":"bytes32","indexed":true,"internalType":"ResourceId"},{"name":"keyTuple","type":"bytes32[]","indexed":false,"internalType":"bytes32[]"},{"name":"start","type":"uint48","indexed":false,"internalType":"uint48"},{"name":"data","type":"bytes","indexed":false,"internalType":"bytes"}],"anonymous":false},{"type":"error","name":"ArrayMismatch","inputs":[]},{"type":"error","name":"EncodedLengths_InvalidLength","inputs":[{"name":"length","type":"uint256","internalType":"uint256"}]},{"type":"error","name":"NoSupply","inputs":[]},{"type":"error","name":"Slice_OutOfBounds","inputs":[{"name":"data","type":"bytes","internalType":"bytes"},{"name":"start","type":"uint256","internalType":"uint256"},{"name":"end","type":"uint256","internalType":"uint256"}]},{"type":"error","name":"Store_IndexOutOfBounds","inputs":[{"name":"length","type":"uint256","internalType":"uint256"},{"name":"accessedIndex","type":"uint256","internalType":"uint256"}]},{"type":"error","name":"Store_InvalidResourceType","inputs":[{"name":"expected","type":"bytes2","internalType":"bytes2"},{"name":"resourceId","type":"bytes32","internalType":"ResourceId"},{"name":"resourceIdString","type":"string","internalType":"string"}]},{"type":"error","name":"Store_InvalidSplice","inputs":[{"name":"startWithinField","type":"uint40","internalType":"uint40"},{"name":"deleteCount","type":"uint40","internalType":"uint40"},{"name":"fieldLength","type":"uint40","internalType":"uint40"}]},{"type":"error","name":"World_AccessDenied","inputs":[{"name":"resource","type":"string","internalType":"string"},{"name":"caller","type":"address","internalType":"address"}]}],"bytecode":{"object":"0x6080806040523461001657614785908161001b8239f35b5f80fdfe60806040526004361015610011575f80fd5b5f3560e01c806301ffc9a7146100a45780630f43c00c1461009f578063119df25f1461009a57806345ec93541461009557806357f7789e1461009057806364c14ca81461008b578063b6fbf05414610086578063e1af802c146100815763e59d73bf1461007c575f80fd5b61070c565b6106f2565b61062a565b6103ab565b6102e9565b610167565b61013b565b610106565b346100f85760203660031901126100f85760043563ffffffff60e01b81168091036100f85763b5dee12760e01b81149081156100e7575b50151560805260206080f35b6301ffc9a760e01b149050816100db565b5f80fd5b5f9103126100f857565b346100f8575f3660031901126100f857602061013361012b610126610d13565b611652565b60601c610d54565b604051908152f35b346100f8575f3660031901126100f8576020610155610d8b565b6040516001600160a01b039091168152f35b346100f8575f3660031901126100f8576020604051601f193601358152f35b634e487b7160e01b5f52604160045260245ffd5b606081019081106001600160401b038211176101b557604052565b610186565b608081019081106001600160401b038211176101b557604052565b60e081019081106001600160401b038211176101b557604052565b6001600160401b0381116101b557604052565b61010081019081106001600160401b038211176101b557604052565b60a081019081106001600160401b038211176101b557604052565b604081019081106001600160401b038211176101b557604052565b601f909101601f19168101906001600160401b038211908210176101b557604052565b6040519061028582610203565b565b604051906102858261021f565b81601f820112156100f8578035906001600160401b0382116101b557604051926102c8601f8401601f191660200185610255565b828452602083830101116100f857815f926020809301838601378301015290565b346100f85760403660031901126100f8576024356001600160401b0381116100f857610319903690600401610294565b610321610d8b565b9061032b30611a9a565b610333610cf9565b8051156103a657600160801b600160f01b038216616e7360f01b17602082015261035c90611591565b60601c6001600160a01b0384160361037c5761037a82600435610da2565b005b6103869150612345565b6103a260405192839263d787b73760e01b845260048401611b45565b0390fd5b610793565b346100f85760403660031901126100f8576004356103d06103ca610d8b565b30610e69565b6103d8610cf9565b8051156103a657808260206103ee930152611811565b1561043a576103fb610cf9565b8051156103a6576f4c6f6f744d616e616765725379737465631cde555160e21b01602082015261037a9160243591610432906118be565b60601c610f6a565b604051632b5131d760e21b8152600490fd5b6001600160401b0381116101b55760051b60200190565b9080601f830112156100f857602090823561047d8161044c565b9361048b6040519586610255565b81855260208086019260051b8201019283116100f857602001905b8282106104b4575050505090565b813560068110156100f85781529083019083016104a6565b9080601f830112156100f85760209082356104e68161044c565b936104f46040519586610255565b81855260208086019260051b8201019283116100f857602001905b82821061051d575050505090565b8135815290830190830161050f565b81601f820112156100f8578035916020916105468461044c565b936105546040519586610255565b808552838086019160051b830101928084116100f857848301915b84831061057f5750505050505090565b82356001600160401b0381116100f85786916105a084848094890101610294565b81520192019161056f565b81601f820112156100f8578035916020916105c58461044c565b936105d36040519586610255565b808552838086019160051b830101928084116100f857848301915b8483106105fe5750505050505090565b82356001600160401b0381116100f857869161061f84848094890101610294565b8152019201916105ee565b346100f85760e03660031901126100f85760046001600160401b0381358181116100f85761065b9036908401610463565b906024358181116100f85761067390369085016104cc565b6044358281116100f85761068a90369086016104cc565b6064358381116100f8576106a190369087016104cc565b906084358481116100f8576106b990369088016104cc565b9260a4358581116100f8576106d1903690890161052c565b9460c4359081116100f85761037a976106ec913691016105ab565b956107f8565b346100f8575f3660031901126100f8576020610155611c41565b346100f85760e03660031901126100f85760043560068110156100f8576001600160401b0360a4358181116100f857610749903690600401610294565b9160c4359182116100f85761078f9261076961077f933690600401610294565b9160843590606435906044359060243590610bc1565b6040519081529081906020820190565b0390f35b634e487b7160e01b5f52603260045260245ffd5b8051156103a65760200190565b80518210156103a65760209160051b010190565b634e487b7160e01b5f52602160045260245ffd5b600611156107e657565b6107c8565b5160068110156107e65790565b9492919096959396855195868251148015906108c1575b80156108b6575b6108a4575f5b87811061082f5750505050505050509050565b8080808080808f8c8e918d8d8d610846878f6107b4565b61084f906107eb565b9b610859916107b4565b5199610864916107b4565b519461086f916107b4565b519461087a916107b4565b5194610885916107b4565b5194610890916107b4565b519461089b96610bc1565b5060010161081c565b60405163b7c1140d60e01b8152600490fd5b508685511415610816565b50868651141561080f565b60068210156107e65752565b604051906108e58261019a565b5f6040838281528260208201520152565b60405190610903826101ba565b606080835f81525f60208201525f60408201520152565b9080601f830112156100f8578151906020916109358161044c565b936109436040519586610255565b81855260208086019260051b8201019283116100f857602001905b82821061096c575050505090565b8151815290830190830161095e565b91908260609103126100f8576040516109938161019a565b604080829480518452602081015160208501520151910152565b91906080838203126100f85782516001600160401b0391908281116100f85784016080818303126100f8576040516109e4816101ba565b81518152602082015160208201526040820151604082015260608201519384116100f857610a1983610a25956020940161091a565b6060820152940161097b565b90565b60405190610a35826101d5565b5f60c0838281528260208201528260408201528260608201528260808201528260a08201520152565b919082810361014081126100f85760e0136100f85760405190610a80826101d5565b835182526020840151602083015260408401516040830152606084015160608301526080840151608083015260a084015160a083015260c084015160048110156100f8578260e09160c0610a25950152940161097b565b6040519061010082016001600160401b038111838210176101b557604052606060e0835f81525f60208201525f60408201525f838201525f60808201525f60a08201525f60c08201520152565b91906080838203126100f85782516001600160401b0391908281116100f8578401610100818303126100f857610b58610278565b815181526020820151602082015260408201516040820152606082015160608201526080820151608082015260a082015160a082015260c082015160c082015260e08201519384116100f857610bb583610a25956020940161091a565b60e0820152940161097b565b90610c6a93949692610a2596610c6493610bdc6103ca610d8b565b610be46110b5565b99610bed610287565b98610bf8838b6108cc565b602094858b015260408a01526060890152816080890152610c176108d8565b50610c21816107dc565b80610c705750610c48610c5091610c5693610c3a610ad7565b508082518301019101610b24565b91908a61141e565b886112b6565b86610c5f610f07565b610f6a565b84610da2565b826114af565b610c79816107dc565b60018103610cb05750610ca3610c5091610cab93610c95610a28565b508082518301019101610a5e565b91908a61139d565b610c56565b80610cbc6003926107dc565b14610cc9575b5050610c56565b610cea610c5091610cf293610cdc6108f6565b5080825183010191016109ad565b91908a6111b6565b5f80610cc2565b60405190610d068261023a565b6001825260203681840137565b604051602081016001600160401b038111828210176101b5576040525f8152905f368137565b60405190610d468261019a565b600282526040366020840137565b610d5c610d39565b908151156103a6576001600160a01b031660208201528051600110156103a657805f6040610a259301526116f4565b36603319013560601c908115610d9d57565b339150565b90610dab610cf9565b918251156103a65760208301526001600160a01b03610dc8611c41565b1691308303610ddb5761028592506134c5565b90823b156100f8576040516377b7543160e11b81525f80516020614705833981519152600482015260806024820152925f928492839185918391610e409190610e28906084850190611553565b90846044850152600319848303016064850152611b20565b03925af18015610e6457610e515750565b80610e5e610285926101f0565b806100fc565b611586565b610e71610cf9565b8051156103a6576001600160a01b0383166020820152610e9090611784565b60f81c610ee657610ea090611a9a565b610ebd82600160801b600160f01b038316616e7360f01b17613703565b8015610ed6575b15610ecd575050565b61038690612345565b50610ee18282613703565b610ec4565b5050565b610ef2610cf9565b8051156103a657610a2591602082015261189c565b610f0f610cf9565b8051156103a6576f4c6f6f744d616e616765725379737465631cde555160e21b016020820152610f3e906118be565b60601c90565b634e487b7160e01b5f52601160045260245ffd5b91908201809211610f6557565b610f44565b91610f73610d39565b80516001600160a01b039485169190156103a6578160208201528051600110156103a65780846040610fa6930152611951565b93828501809511610f6557610fb9610d39565b918251156103a65760208301528151600110156103a65783604083015260405194602086015260208552610fec8561023a565b610ff4611c41565b1630810361102257509061100e6102859461101c936138bf565b61101783610eea565b610f58565b90611b6d565b93843b156100f8576040516301c85d5760e51b8152654f776e65727360501b6674624974656d7360c81b01600482015260a06024820152945f9286928391859183916110779190610e289060a4850190611553565b630100080160dd1b608483015203925af1908115610e64576102859361101c926110a2575b5061100e565b80610e5e6110af926101f0565b5f61109c565b6110c0610126610d13565b60601c6110cc81610d54565b9060018201809211610f65576110e0610d39565b908151156103a65760208201528051600110156103a6575f6040820152604051826020820152602081526111138161023a565b6001600160a01b03611123611c41565b169130830361113657610a259250613741565b90823b156100f8576040516301c85d5760e51b815267436f756e7465727360401b631d18955160e21b01600482015260a06024820152925f92849283918591839161118a9190610e289060a4850190611553565b630100080160dd1b608483015203925af18015610e64576111a9575090565b80610e5e610a25926101f0565b606082519260208101516040820151906040519560208701526040860152828501528184526111e4846101ba565b01516111fa815180603d1b9060051b1791611c76565b91611203610cf9565b908151156103a65760208201526001600160a01b03611220611c41565b1630810361123357509261028593612402565b909192813b156100f8575f6112a293610e40829661128f94604051998a988997889663298314fb60e01b88526f436f6e73756d61626c65537461747300631d18955160e21b01600489015260a0602489015260a4880190611553565b6003199283888303016044890152611b20565b926064860152848303016084850152611b20565b815191604060208201519101519060405193602085015260408401526060830152606082526112e4826101ba565b6112ec610cf9565b908151156103a65760208201526001600160a01b03611309611c41565b1630810361131c5750906102859161267b565b90813b156100f8575f916113758361138893610e406040519788968795869463298314fb60e01b86526f537461745265737472696374696f6e73631d18955160e21b01600487015260a0602487015260a4860190611553565b6003199283868303016044870152611b20565b90846064850152838203016084840152611ae3565b815190602083015192604081015190606081015160808201519060c060a08401519301519360048510156107e6576102859760405197602089015260408801526060870152608086015260a085015260c084015260f81b60e083015260c1825261140682610203565b61140e610cf9565b90611418826107a7565b52611cf5565b6102859160e081519160208101516040820151606083015160808401519060a08501519260c0860151946040519860208a015260408901526060880152608087015260a086015260c08501528284015281835261147a83610203565b015190611496611490835160051b8060381b1790565b92611c76565b9261149f610cf9565b906114a9826107a7565b52611d74565b81519060068210156107e657608083602061028595015160408201516060830151916040519660f81b6020880152602187015260418601526061850152606184526114f98461021f565b0151918251611512816040519560208088019101611ac2565b611526602085838101038087520185610255565b61152e610cf9565b92611538846107a7565b528060381b1791611dfb565b908160209103126100f8575190565b9081518082526020808093019301915f5b828110611572575050505090565b835185529381019392810192600101611564565b6040513d5f823e3d90fd5b6001600160a01b036115a1611c41565b163081036115b35750610a2590611e7c565b604051638c364d5960e01b81526f4e616d6573706163654f776e65720000661d189ddbdc9b1960ca1b0160048201526080602482015291602091839182908190611601906084830190611553565b5f6044830152630500400560da1b606483015203915afa908115610e64575f91611629575090565b610a25915060203d60201161164b575b6116438183610255565b810190611544565b503d611639565b6001600160a01b03611662611c41565b163081036116745750610a2590611efe565b604051638c364d5960e01b81526f556c74696d617465446f6d696e696f6e631d18955160e21b01600482015260806024820152916020918391829081906116bf906084830190611553565b600360448301526f45434000450505050505050805080805607a1b606483015203915afa908115610e64575f91611629575090565b6001600160a01b03611704611c41565b163081036117165750610a2590611fc4565b604051638c364d5960e01b815267436f756e7465727360401b631d18955160e21b016004820152608060248201529160209183918290819061175c906084830190611553565b5f6044830152630100080160dd1b606483015203915afa908115610e64575f91611629575090565b6001600160a01b03611794611c41565b163081036117a65750610a2590612028565b604051638c364d5960e01b81526420b236b4b760591b631d18955160e21b01600482015260806024820152916020918391829081906117e9906084830190611553565b5f6044830152630101000160d81b606483015203915afa908115610e64575f91611629575090565b6001600160a01b03611821611c41565b163081036118335750610a2590612089565b604051638c364d5960e01b81525f805160206146e583398151915260048201526080602482015291602091839182908190611872906084830190611553565b6001604483015264020010010160d51b606483015203915afa908115610e64575f91611629575090565b6001600160a01b036118ac611c41565b163081036118335750610a2590612138565b6001600160a01b036118ce611c41565b163081036118e05750610a2590612180565b604051638c364d5960e01b81526653797374656d7360481b661d189ddbdc9b1960ca1b0160048201526080602482015291602091839182908190611928906084830190611553565b5f604483015264150200140160d01b606483015203915afa908115610e64575f91611629575090565b6001600160a01b03611961611c41565b163081036119735750610a25906121e6565b604051638c364d5960e01b8152654f776e65727360501b6674624974656d7360c81b016004820152608060248201529160209183918290819061175c906084830190611553565b6001600160a01b036119ca611c41565b163081036119dc5750610a259061224b565b604051638c364d5960e01b81526f53797374656d52656769737472790000661d189ddbdc9b1960ca1b016004820152608060248201529160209183918290819061175c906084830190611553565b6001600160a01b03611a3a611c41565b16308103611a4c5750610a25906122b7565b604051638c364d5960e01b81526f5265736f757263654163636573730000661d189ddbdc9b1960ca1b01600482015260806024820152916020918391829081906117e9906084830190611553565b611aa2610cf9565b8051156103a6576001600160a01b039091166020820152610a25906119ba565b5f5b838110611ad35750505f910152565b8181015183820152602001611ac4565b90606051918281525f5b838110611b0c5750825f602080949584010152601f8019910116010190565b806020916080015182828501015201611aed565b90602091611b3981518092818552858086019101611ac2565b601f01601f1916010190565b90611b5d602091949394604084526040840190611b20565b6001600160a01b03909416910152565b90611b76610cf9565b918251156103a657602083015260405190602082015260208152611b998161023a565b6001600160a01b03611ba9611c41565b1691308303611bbc576102859250613a2e565b90823b156100f8576040516301c85d5760e51b81525f805160206146e5833981519152600482015260a06024820152925f928492839185918391611c229190611c099060a4850190611553565b6001604485015283810360031901606485015290611b20565b64020010010160d51b608483015203925af18015610e6457610e515750565b7f629a4c26e296b22a8e0856e9f6ecb2d1008d7e00081111962cd175fa7488e175546001600160a01b031680610a2557503390565b9081518060051b90602091818104831482151715610f6557604051918383018092601f19603f82870101166040528452845f9701965b828110611ce157505050611cd493945090610a25929160405194859251809285850190611ac2565b8101038084520182610255565b875182529685019690850190600101611cac565b6001600160a01b03611d05611c41565b16308103611d1857509061028591612895565b90813b156100f85760405163298314fb60e01b81526941726d6f72537461747360301b631d18955160e21b01600482015260a06024820152925f9284929091839185918391610e409190611388906113759060a4860190611553565b909291906001600160a01b03611d88611c41565b16308103611d9b57509261028593612a92565b909192813b156100f85760405163298314fb60e01b81526a576561706f6e537461747360281b631d18955160e21b01600482015260a06024820152945f948694859387938593610e4093909291906112a29061128f9060a4880190611553565b909291906001600160a01b03611e0f611c41565b16308103611e2257509261028593612cc7565b909192813b156100f85760405163298314fb60e01b8152644974656d7360581b631d18955160e21b01600482015260a06024820152945f948694859387938593610e4093909291906112a29061128f9060a4880190611553565b60405160208160208101936f4e616d6573706163654f776e65720000661d189ddbdc9b1960ca1b0185526040820160208251919201935f5b828110611ee757505050611ed1925003601f198101835282610255565b5190205f805160206146c5833981519152185490565b855184529481019486945092810192600101611eb4565b604051611f2181611f13602082019485612f41565b03601f198101835282610255565b5190205f91905f805160206146c583398151915218825b600380851015611f76576f45434000450505050505050805080805607a1b601b86900390911b1c60ff168101908110610f6557600190930192611f38565b5091925081816020821015611fae575b505080548260031b1b916020039081601411611fa157505090565b600101549060031b1c1790565b90809350601f925060051c019116905f80611f86565b604051602081602081019367436f756e7465727360401b631d18955160e21b0185526040820160208251919201935f5b82811061201157505050611ed1925003601f198101835282610255565b855184529481019486945092810192600101611ff4565b60405160208160208101936420b236b4b760591b631d18955160e21b0185526040820160208251919201935f5b82811061207257505050611ed1925003601f198101835282610255565b855184529481019486945092810192600101612055565b604080515f805160206146e58339815191526020808301918252845190949193918501918391908201905f5b87828210612121575050506120d3925003601f198101835282610255565b5190205f805160206146c583398151915218906120ee613431565b918082841015612110575b5080548360031b1b928203809211611fa157505090565b601f84169360051c0190505f6120f9565b8551845294850194869450909201916001016120b5565b61214190613362565b612149613431565b9080602083101561216f575b5080548260031b1b916020039081602011611fa157505090565b601f83169260051c0190505f612155565b60405160208160208101936653797374656d7360481b661d189ddbdc9b1960ca1b0185526040820160208251919201935f5b8281106121cf57505050611ed1925003601f198101835282610255565b8551845294810194869450928101926001016121b2565b6040516020816020810193654f776e65727360501b6674624974656d7360c81b0185526040820160208251919201935f5b82811061223457505050611ed1925003601f198101835282610255565b855184529481019486945092810192600101612217565b60405160208160208101936f53797374656d52656769737472790000661d189ddbdc9b1960ca1b0185526040820160208251919201935f5b8281106122a057505050611ed1925003601f198101835282610255565b855184529481019486945092810192600101612283565b60405160208160208101936f5265736f757263654163636573730000661d189ddbdc9b1960ca1b0185526040820160208251919201935f5b82811061230c57505050611ed1925003601f198101835282610255565b8551845294810194869450928101926001016122ef565b604051906123308261023a565b60068252651e3937b7ba1f60d11b6020830152565b608081901b6001600160801b03191690610a2590602490601081901b6001600160901b031916806123f35750612379612323565b935b806123e55750612389612323565b60405194859261ffff60f01b166020840152601d60f91b908160228501526123bb815180926020602388019101611ac2565b83019060238201526123d68251809360208785019101611ac2565b01036004810184520182610255565b6123ee90613467565b612389565b6123fc90613467565b9361237b565b60408051655461626c657360501b66746273746f726560c81b01602082019081526f436f6e73756d61626c65537461747300631d18955160e21b01828401819052838352969792959492916124568161019a565b5190205f805160206146c583398151915218549061247261404b565b905f5b8251811015612520576124a961249c61248e83866107b4565b516001600160581b03191690565b6001600160581b03191690565b6001808260581c16146124c0575b50600101612475565b60601c90813b156100f8575f888c9388838b6124f38f8c9051998a97889687956315c19b2760e21b875260048701613c1b565b03925af1918215610e645760019261250d575b50906124b7565b80610e5e61251a926101f0565b5f612506565b50965f805160206147258339815191528751806125408c8a898b85613bed565b0390a261255b61254f85613135565b845160208601916142f6565b60ff808360e01c1680612607575b50505f5b81518110156125fc5761258661249c61248e83856107b4565b6002808260581c161461259d575b5060010161256d565b60601c90813b156100f8575f878b9387838a6125cf8a8f51998a9788968795635b28cdaf60e01b875260048701613c1b565b03925af1918215610e64576001926125e9575b5090612594565b80610e5e6125f6926101f0565b5f6125e2565b505050505050509050565b969098929594938561261b869a949a614406565b555f96602085015b8b8916908a8210156126685761265f8d928261101760019464ffffffffff8f8f908f9061264f9161449a565b956028026038011c1680946142f6565b99011697612623565b5050939950939495509550955f80612569565b60408051655461626c657360501b66746273746f726560c81b01602082019081526f537461745265737472696374696f6e73631d18955160e21b0182840181905283835292959294916126cd8161019a565b5190205f805160206146c58339815191521854916126e96140a3565b905f5b82518110156127775761270561249c61248e83866107b4565b6001808260581c161461271c575b506001016126ec565b60601c90813b156100f85788516315c19b2760e21b8152915f90839081838161274a8c8c8f60048501613c7f565b03925af1918215610e6457600192612764575b5090612713565b80610e5e612771926101f0565b5f61275d565b50945f80516020614725833981519152875180612795868983613bb1565b0390a26127b06127a4856131b3565b835160208501916142f6565b60ff808460e01c1680612856575b50505f5b815181101561284d576127db61249c61248e83856107b4565b6002808260581c16146127f2575b506001016127c2565b60601c90813b156100f8578751635b28cdaf60e01b8152915f9083908183816128208b8b8e60048501613c7f565b03925af1918215610e645760019261283a575b50906127e9565b80610e5e612847926101f0565b5f612833565b50505050509050565b5f6128608761441b565b555f60805b82848316106128755750506127be565b60018161288c8693612887868d6144d7565b61433f565b92011690612865565b60408051655461626c657360501b66746273746f726560c81b01602082019081526941726d6f72537461747360301b631d18955160e21b0182840181905283835292959294916128e48161019a565b5190205f805160206146c58339815191521854916129006140fb565b905f5b825181101561298e5761291c61249c61248e83866107b4565b6001808260581c1614612933575b50600101612903565b60601c90813b156100f85788516315c19b2760e21b8152915f9083908183816129618c8c8f60048501613cdd565b03925af1918215610e645760019261297b575b509061292a565b80610e5e612988926101f0565b5f612974565b50945f805160206147258339815191528751806129ac868983613bb1565b0390a26129bb6127a48561321c565b60ff808460e01c1680612a58575b50505f5b815181101561284d576129e661249c61248e83856107b4565b6002808260581c16146129fd575b506001016129cd565b60601c90813b156100f8578751635b28cdaf60e01b8152915f908390818381612a2b8b8b8e60048501613cdd565b03925af1918215610e6457600192612a45575b50906129f4565b80610e5e612a52926101f0565b5f612a3e565b5f612a6287614430565b555f60805b8284831610612a775750506129c9565b600181612a898693612887868d6144fc565b92011690612a67565b60408051655461626c657360501b66746273746f726560c81b01602082019081526a576561706f6e537461747360281b631d18955160e21b0182840181905283835296979295949291612ae48161019a565b5190205f805160206146c5833981519152185490612b00614150565b905f5b8251811015612b9357612b1c61249c61248e83866107b4565b6001808260581c1614612b33575b50600101612b03565b60601c90813b156100f8575f888c9388838b612b668f8c9051998a97889687956315c19b2760e21b875260048701613d1b565b03925af1918215610e6457600192612b80575b5090612b2a565b80610e5e612b8d926101f0565b5f612b79565b50965f80516020614725833981519152875180612bb38c8a898b85613bed565b0390a2612bc261254f85613282565b60ff808360e01c1680612c63575b50505f5b81518110156125fc57612bed61249c61248e83856107b4565b6002808260581c1614612c04575b50600101612bd4565b60601c90813b156100f8575f878b9387838a612c368a8f51998a9788968795635b28cdaf60e01b875260048701613d1b565b03925af1918215610e6457600192612c50575b5090612bfb565b80610e5e612c5d926101f0565b5f612c49565b9690989295949385612c77869a949a614445565b555f96602085015b8b8916908a821015612cb457612cab8d928261101760019464ffffffffff8f8f908f9061264f91614521565b99011697612c7f565b5050939950939495509550955f80612bd0565b60408051655461626c657360501b66746273746f726560c81b0160208201908152644974656d7360581b631d18955160e21b0182840181905283835296979295949291612d138161019a565b5190205f805160206146c5833981519152185490612d2f6141a6565b905f5b8251811015612dc257612d4b61249c61248e83866107b4565b6001808260581c1614612d62575b50600101612d32565b60601c90813b156100f8575f888c9388838b612d958f8c9051998a97889687956315c19b2760e21b875260048701613d57565b03925af1918215610e6457600192612daf575b5090612d59565b80610e5e612dbc926101f0565b5f612da8565b50965f80516020614725833981519152875180612de28c8a898b85613bed565b0390a2612df161254f856132e9565b60ff808360e01c1680612e92575b50505f5b81518110156125fc57612e1c61249c61248e83856107b4565b6002808260581c1614612e33575b50600101612e03565b60601c90813b156100f8575f878b9387838a612e658a8f51998a9788968795635b28cdaf60e01b875260048701613d57565b03925af1918215610e6457600192612e7f575b5090612e2a565b80610e5e612e8c926101f0565b5f612e78565b9690989295949385612ea6869a949a61445a565b555f96602085015b8b8916908a821015612ee357612eda8d928261101760019464ffffffffff8f8f908f9061264f91614546565b99011697612eae565b5050939950939495509550955f80612dff565b6953746f7265486f6f6b7360301b66746273746f726560c81b01815281516020918201928201915f5b828110612f2d575050505090565b835185529381019392810192600101612f1f565b6f556c74696d617465446f6d696e696f6e631d18955160e21b01815281516020918201928201915f5b828110612f78575050505090565b835185529381019392810192600101612f6a565b5f80516020614705833981519152815281516020918201928201915f5b828110612fb7575050505090565b835185529381019392810192600101612fa9565b644974656d7360581b631d18955160e21b01815281516020918201928201915f5b828110612ffa575050505090565b835185529381019392810192600101612fec565b6f436f6e73756d61626c65537461747300631d18955160e21b01815281516020918201928201915f5b828110613045575050505090565b835185529381019392810192600101613037565b6f537461745265737472696374696f6e73631d18955160e21b01815281516020918201928201915f5b828110613090575050505090565b835185529381019392810192600101613082565b6941726d6f72537461747360301b631d18955160e21b01815281516020918201928201915f5b8281106130d8575050505090565b8351855293810193928101926001016130ca565b6a576561706f6e537461747360281b631d18955160e21b01815281516020918201928201915f5b828110613121575050505090565b835185529381019392810192600101613113565b60405160208160208101936f436f6e73756d61626c65537461747300631d18955160e21b0185526040820160208251919201935f5b82811061319c57505050613187925003601f198101835282610255565b5190205f805160206146c58339815191521890565b85518452948101948694509281019260010161316a565b60405160208160208101936f537461745265737472696374696f6e73631d18955160e21b0185526040820160208251919201935f5b82811061320557505050613187925003601f198101835282610255565b8551845294810194869450928101926001016131e8565b60405160208160208101936941726d6f72537461747360301b631d18955160e21b0185526040820160208251919201935f5b82811061326b57505050613187925003601f198101835282610255565b85518452948101948694509281019260010161324e565b60405160208160208101936a576561706f6e537461747360281b631d18955160e21b0185526040820160208251919201935f5b8281106132d257505050613187925003601f198101835282610255565b8551845294810194869450928101926001016132b5565b60405161318781611f13602082019485612fcb565b604051602081602081019367436f756e7465727360401b631d18955160e21b0185526040820160208251919201935f5b82811061334b57505050613187925003601f198101835282610255565b85518452948101948694509281019260010161332e565b60405160208160208101936a546f74616c537570706c7960281b6674624974656d7360c81b0185526040820160208251919201935f5b8281106133b557505050613187925003601f198101835282610255565b855184529481019486945092810192600101613398565b6040516020816020810193654f776e65727360501b6674624974656d7360c81b0185526040820160208251919201935f5b82811061341a57505050613187925003601f198101835282610255565b8551845294810194869450928101926001016133fd565b5f805b60018110613440575090565b9060ff64020010010160d51b83601b0360031b1c168101809111610f655790600101613434565b5f5b60108110613498575b6040516001600160801b03199092166020830152601082526134938261023a565b815290565b6001600160801b03198216600382901b1b6001600160f81b031916156134c057600101613469565b613472565b9190916134d1816143dc565b5464ffffffffff8160381c166134f26134ea8280613d8d565b865190610f58565b81811415949085806136e4575b6136b85761350d908461456b565b90613516613f67565b915f5b83518110156135a85761353261249c61248e83876107b4565b6010808260581c1614613549575b50600101613519565b60601c90813b156100f8575f878b9388838c61357b60405198899687958694630abd6b4560e31b865260048601613dad565b03925af1918215610e6457600192613595575b5090613540565b80610e5e6135a2926101f0565b5f61358e565b506040805192979195509392915f80516020614705833981519152907ffe158a7adba34e256807c8a149028d3162918713c3838afc643ce9f96716ebfd90806135f48c8a898d85613e07565b0390a26136a8575b61360e876136098761446f565b6145e8565b5f5b815181101561369e5761362961249c61248e83856107b4565b6020808260581c1614613640575b50600101613610565b60601c90813b156100f8575f868a9386838b6136718b5198899687958694636358453360e01b865260048601613dad565b03925af1918215610e645760019261368b575b5090613637565b80610e5e613698926101f0565b5f613684565b5050505050509050565b836136b2866143dc565b556135fc565b604051632994042d60e21b81525f600482015264ffffffffff8416602482018190526044820152606490fd5b50826136fc6136f282613d9a565b64ffffffffff1690565b14156134ff565b61370b610d39565b908151156103a65760208201528051600110156103a6576001600160a01b03909116604082015261373b90611a2a565b60f81c90565b919061374c836132fe565b916137556141f6565b905f5b82518110156137e15761377161249c61248e83866107b4565b9060049182808260581c161461378d575b506001915001613758565b60601c803b156100f857855f9189836137bb966040519788958694859363964f667d60e01b85528401613ea7565b03925af1918215610e6457600192156137825780610e5e6137db926101f0565b5f613782565b506040805191949093929161382b91849167436f756e7465727360401b631d18955160e21b01905f805160206146a58339815191529080613823868d83613e4b565b0390a26145e8565b5f5b81518110156138b75761384661249c61248e83856107b4565b6008808260581c161461385d575b5060010161382d565b60601c90813b156100f857845163a8ba872160e01b8152915f90839081838161388a8a8e60048401613ea7565b03925af1918215610e64576001926138a4575b5090613854565b80610e5e6138b1926101f0565b5f61389d565b505050509050565b91906138ca836133cc565b916138d3614249565b905f5b825181101561395f576138ef61249c61248e83866107b4565b9060049182808260581c161461390b575b5060019150016138d6565b60601c803b156100f857855f918983613939966040519788958694859363964f667d60e01b85528401613eed565b03925af1918215610e6457600192156139005780610e5e613959926101f0565b5f613900565b50604080519194909392916139a2918491654f776e65727360501b6674624974656d7360c81b01905f805160206146a58339815191529080613823868d83613e4b565b5f5b81518110156138b7576139bd61249c61248e83856107b4565b6008808260581c16146139d4575b506001016139a4565b60601c90813b156100f857845163a8ba872160e01b8152915f908390818381613a018a8e60048401613eed565b03925af1918215610e6457600192613a1b575b50906139cb565b80610e5e613a28926101f0565b5f613a14565b91909165ffffffffffff613a40613431565b16613a4a82613362565b613a5261429d565b905f5b8251811015613adf57613a6e61249c61248e83866107b4565b9060049182808260581c1614613a8a575b506001915001613a55565b60601c803b156100f857855f9188838c96613ab96040519889968795869463964f667d60e01b86528501613f20565b03925af1918215610e645760019215613a7f5780610e5e613ad9926101f0565b5f613a7f565b50604080519096939291613b2491859185915f805160206146e5833981519152905f805160206146a58339815191529080613b1c87878e84613e76565b0390a26145f7565b5f5b815181101561284d57613b3f61249c61248e83856107b4565b6008808260581c1614613b56575b50600101613b26565b60601c90813b156100f857875163a8ba872160e01b8152915f908390818381613b848b8b8e60048501613f20565b03925af1918215610e6457600192613b9e575b5090613b4d565b80610e5e613bab926101f0565b5f613b97565b90610a2592613bcb613bd992608085526080850190611553565b908382036020850152611b20565b905f60408201526060818303910152611ae3565b90610a259492613bcb613c0892608085526080850190611553565b9260408201526060818403910152611b20565b959493613c67613c7a93613c5960a096946f436f6e73756d61626c65537461747300631d18955160e21b018b5260c060208c015260c08b0190611553565b9089820360408b0152611b20565b9160608801528682036080880152611b20565b930152565b939291613cca613c7a91613cbc60a0946f537461745265737472696374696f6e73631d18955160e21b01895260c060208a015260c0890190611553565b908782036040890152611b20565b5f60608701528581036080870152611ae3565b6941726d6f72537461747360301b631d18955160e21b01815260c0602082018190529094939260a092613c7a92613cca9291613cbc91890190611553565b959493613c67613c7a93613c5960a096946a576561706f6e537461747360281b631d18955160e21b018b5260c060208c015260c08b0190611553565b959493613c67613c7a93613c5960a09694644974656d7360581b631d18955160e21b018b5260c060208c015260c08b0190611553565b91908203918211610f6557565b9064ffffffffff809216918211610f6557565b5f80516020614705833981519152815260e060208201819052610a25959394919264ffffffffff91613de29190850190611553565b945f60408501525f606085015216608083015260a082015260c0818403910152611b20565b909264ffffffffff613e26610a2596949560c0855260c0850190611553565b945f60208501525f6040850152166060830152608082015260a0818403910152611b20565b9091613e62610a2593606084526060840190611553565b915f60208201526040818403910152611b20565b65ffffffffffff613e93610a259593606084526060840190611553565b931660208201526040818403910152611b20565b67436f756e7465727360401b631d18955160e21b018152608060208201819052610a25939192613ed991840190611553565b915f60408201526060818403910152611b20565b654f776e65727360501b6674624974656d7360c81b018152608060208201819052610a25939192613ed991840190611553565b5f805160206146e58339815191528152608060208201819052610a25949265ffffffffffff91613f539190840190611553565b931660408201526060818403910152611b20565b613f6f610cf9565b8051156103a657610a25906955524953746f7261676560301b6674624974656d7360c81b0160208201526040516140376140195f805160206147458339815191526020840184613fbf8783612ef6565b0394613fd3601f1996878101835282610255565b5190201893604051613ff981613fed602082019485612ef6565b03868101835282610255565b5190205f80516020614765833981519152185460381c64ffffffffff1690565b916040519260208401948592603f838701011660405281855261465a565b60018060801b039051169060801b17614608565b614053610cf9565b8051156103a657610a25906f436f6e73756d61626c65537461747300631d18955160e21b0160208201526040516140376140195f805160206147458339815191526020840184613fbf8783612ef6565b6140ab610cf9565b8051156103a657610a25906f537461745265737472696374696f6e73631d18955160e21b0160208201526040516140376140195f805160206147458339815191526020840184613fbf8783612ef6565b614103610cf9565b8051156103a657610a25906941726d6f72537461747360301b631d18955160e21b0160208201526040516140376140195f805160206147458339815191526020840184613fbf8783612ef6565b614158610cf9565b8051156103a657610a25906a576561706f6e537461747360281b631d18955160e21b0160208201526040516140376140195f805160206147458339815191526020840184613fbf8783612ef6565b6141ae610cf9565b8051156103a657610a2590644974656d7360581b631d18955160e21b0160208201526040516140376140195f805160206147458339815191526020840184613fbf8783612ef6565b6141fe610cf9565b8051156103a657610a259067436f756e7465727360401b631d18955160e21b0160208201526040516140376140195f805160206147458339815191526020840184613fbf8783612ef6565b614251610cf9565b8051156103a657610a2590654f776e65727360501b6674624974656d7360c81b0160208201526040516140376140195f805160206147458339815191526020840184613fbf8783612ef6565b6142a5610cf9565b8051156103a657610a25906a546f74616c537570706c7960281b6674624974656d7360c81b0160208201526040516140376140195f805160206147458339815191526020840184613fbf8783612ef6565b9291925b60209081831061431a5784518155930192601f19909101906001016142fa565b92939190508061432957505050565b5f199060031b1c90818354169119905116179055565b9091905f9060209061431a565b90939291938061437b575b5092909260209081831061431a5784518155930192601f19909101906001016142fa565b60208110156143cc575b80156143575791939082602003908360031b5f198460031b1c19811c908751901c9080198354169116178155818311156138b757600101940191601f19910101925f614357565b90601f908260051c019116614385565b6040516143f181611f13602082019485612f8c565b5190205f805160206147658339815191521890565b6040516143f181611f1360208201948561300e565b6040516143f181611f13602082019485613059565b6040516143f181611f136020820194856130a4565b6040516143f181611f136020820194856130ec565b6040516143f181611f13602082019485612fcb565b5f805160206147458339815191529060405161449381611f13602082019485612f8c565b5190201890565b905f80516020614745833981519152916040516144bf81611f1360208201948561300e565b51902060f89190911b6001600160f81b031916181890565b905f80516020614745833981519152916040516144bf81611f13602082019485613059565b905f80516020614745833981519152916040516144bf81611f136020820194856130a4565b905f80516020614745833981519152916040516144bf81611f136020820194856130ec565b905f80516020614745833981519152916040516144bf81611f13602082019485612fcb565b64ffffffffff8083116145cf5766ffffffffffffff821690603883901c16838181106145c5570301915b64ffffffffff60381b60389190911b1664ffffffffff60381b19929092166001600160601b031991909116171790565b9003900391614595565b604051637149a3c160e01b815260048101849052602490fd5b815161028592602001916142f6565b82516102859360200192909161434c565b8060801c906015809160018060801b031604604051926020906020850160208460051b8701016040528386525f5b8481106146465750505050505090565b825182529185019190830190600101614636565b9291925b60209081831061467e5780548552930192601f199091019060010161465e565b9190509291928061468e57505050565b5f199060031b1c9081835116911990541617905256fe8c0b5119d4cec7b284c6b1b39252a03d1e2f2d7451a5895562524c113bb952be86425bff6b57326c7859e89024fe4f238ca327a1ae4a230180dd2f0e88aaa7d974624974656d73000000000000000000546f74616c537570706c79000000000074624974656d7300000000000000000055524953746f726167650000000000008dbb3a9672eebfd3773e72dd9c102393436816d832c7ba9e1e1ac8fcadcac7a93b4102da22e32d82fc925482184f16c09fd4281692720b87d124aef6da48a0f114e2fcc58e58e68ec7edc30c8d50dccc3ce2714a623ec81f46b6a63922d76569","linkReferences":{}},"methodIdentifiers":{"_msgSender()":"119df25f","_msgValue()":"45ec9354","_world()":"e1af802c","createItem(uint8,uint256,uint256,uint256,uint256,bytes,string)":"e59d73bf","createItems(uint8[],uint256[],uint256[],uint256[],uint256[],bytes[],string[])":"b6fbf054","getCurrentItemsCounter()":"0f43c00c","resupplyLootManager(uint256,uint256)":"64c14ca8","setTokenUri(uint256,string)":"57f7789e","supportsInterface(bytes4)":"01ffc9a7"},"id":362}