{"abi":[{"type":"function","name":"_msgSender","inputs":[],"outputs":[{"name":"sender","type":"address","internalType":"address"}],"stateMutability":"view"},{"type":"function","name":"_msgValue","inputs":[],"outputs":[{"name":"value","type":"uint256","internalType":"uint256"}],"stateMutability":"view"},{"type":"function","name":"_world","inputs":[],"outputs":[{"name":"","type":"address","internalType":"address"}],"stateMutability":"view"},{"type":"function","name":"initDelegation","inputs":[{"name":"delegatee","type":"address","internalType":"address"},{"name":"systemId","type":"bytes32","internalType":"ResourceId"},{"name":"numCalls","type":"uint256","internalType":"uint256"}],"outputs":[],"stateMutability":"nonpayable"},{"type":"function","name":"supportsInterface","inputs":[{"name":"interfaceId","type":"bytes4","internalType":"bytes4"}],"outputs":[{"name":"","type":"bool","internalType":"bool"}],"stateMutability":"pure"},{"type":"function","name":"verify","inputs":[{"name":"delegator","type":"address","internalType":"address"},{"name":"systemId","type":"bytes32","internalType":"ResourceId"},{"name":"","type":"bytes","internalType":"bytes"}],"outputs":[{"name":"","type":"bool","internalType":"bool"}],"stateMutability":"nonpayable"},{"type":"event","name":"Store_DeleteRecord","inputs":[{"name":"tableId","type":"bytes32","indexed":true,"internalType":"ResourceId"},{"name":"keyTuple","type":"bytes32[]","indexed":false,"internalType":"bytes32[]"}],"anonymous":false},{"type":"event","name":"Store_SpliceStaticData","inputs":[{"name":"tableId","type":"bytes32","indexed":true,"internalType":"ResourceId"},{"name":"keyTuple","type":"bytes32[]","indexed":false,"internalType":"bytes32[]"},{"name":"start","type":"uint48","indexed":false,"internalType":"uint48"},{"name":"data","type":"bytes","indexed":false,"internalType":"bytes"}],"anonymous":false},{"type":"error","name":"Slice_OutOfBounds","inputs":[{"name":"data","type":"bytes","internalType":"bytes"},{"name":"start","type":"uint256","internalType":"uint256"},{"name":"end","type":"uint256","internalType":"uint256"}]}],"bytecode":{"object":"0x6080806040523461001657611036908161001b8239f35b5f80fdfe60806040526004361015610011575f80fd5b5f3560e01c806301ffc9a714610074578063119df25f1461006f5780631a86b5501461006a57806345ec93541461006557806393b94f61146100605763e1af802c1461005b575f80fd5b61029e565b61026b565b61024c565b6101b5565b6100ee565b346100e05760203660031901126100e05760043563ffffffff60e01b81168091036100e0576301a86b5560e41b81149081156100cf575b81156100be575b50151560805260206080f35b6301ffc9a760e01b149050816100b2565b63b5dee12760e01b811491506100ab565b5f80fd5b5f9103126100e057565b346100e0575f3660031901126100e0576020610108610344565b6040516001600160a01b039091168152f35b600435906001600160a01b03821682036100e057565b634e487b7160e01b5f52604160045260245ffd5b6001600160401b03811161015757604052565b610130565b604081019081106001600160401b0382111761015757604052565b601f909101601f19168101906001600160401b0382119082101761015757604052565b6001600160401b03811161015757601f01601f191660200190565b346100e05760603660031901126100e0576101ce61011a565b604435906001600160401b0382116100e057366023830112156100e0578160040135906101fa8261019a565b6102076040519182610177565b82815236602484860101116100e0576020835f92610236956024610248980184830137010152602435906102b8565b60405190151581529081906020820190565b0390f35b346100e0575f3660031901126100e0576020604051601f193601358152f35b346100e05760603660031901126100e05761029c61028761011a565b6044359060243590610297610344565b610477565b005b346100e0575f3660031901126100e05760206101086106c4565b6102c0610344565b916102c961035b565b80516001600160a01b03901561033f57808416602083015281516001101561033f578416604082015280516002101561033f578082606061030b9301526105d1565b9260018414610333578361032157505050505f90565b61032e935f190192610477565b600190565b909161032e93506103ae565b610386565b36603319013560601c90811561035657565b339150565b60405190608082016001600160401b0381118382101761015757604052600382526060366020840137565b634e487b7160e01b5f52603260045260245ffd5b805182101561033f5760209160051b010190565b90916103b861035b565b805190936001600160a01b039390911561033f578316602085015283516001101561033f578216604084015282516002101561033f5760608301526103fb6106c4565b1630810361040f575061040d90610776565b565b803b156100e0576040805163505a181d60e01b81525f8051602061101683398151915260048201526024810191909152915f918391829084908290610458906044830190610593565b03925af18015610472576104695750565b61040d90610144565b6105c6565b90929161048261035b565b805190946001600160a01b039390911561033f578316602086015284516001101561033f578216604085015283516002101561033f576060840152604051916020830152602082526104d38261015c565b6104db6106c4565b16913083036104ee5761040d9250610996565b90823b156100e0576040516301c85d5760e51b81525f80516020611016833981519152600482015260a06024820152925f928492839185918391610553919061053b9060a4850190610593565b90846044850152600319848303016064850152610686565b630100080160dd1b608483015203925af18015610472576105715750565b8061057e61040d92610144565b806100e4565b908160209103126100e0575190565b9081518082526020808093019301915f5b8281106105b2575050505090565b8351855293810193928101926001016105a4565b6040513d5f823e3d90fd5b6001600160a01b036105e16106c4565b163081036105f657506105f3906106f9565b90565b604051638c364d5960e01b81525f8051602061101683398151915260048201526080602482015291602091839182908190610635906084830190610593565b5f6044830152630100080160dd1b606483015203915afa908115610472575f9161065d575090565b6105f3915060203d60201161067f575b6106778183610177565b810190610584565b503d61066d565b91908251928382525f5b8481106106b0575050825f602080949584010152601f8019910116010190565b602081830181015184830182015201610690565b7f629a4c26e296b22a8e0856e9f6ecb2d1008d7e00081111962cd175fa7488e175546001600160a01b0316806105f357503390565b60405160208160208101936f53797374656d626f756e6444656c6567613a3160f11b0185526040820160208251919201935f5b82811061075f57505050610749925003601f198101835282610177565b5190205f80516020610ff6833981519152185490565b85518452948101948694509281019260010161072c565b60408051655461626c657360501b66746273746f726560c81b01602082019081525f80516020611016833981519152828401819052838352939491606091908281016001600160401b038111828210176101575785525190205f80516020610ff68339815191521854916107e8610cce565b905f5b825181101561088f5761081f610812610804838661039a565b516001600160581b03191690565b6001600160581b03191690565b86808260581c1614610835575b506001016107eb565b841c90813b156100e0575f86610862938b838b51809781958294639faeaf4560e01b845260048401610bf9565b03925af19182156104725760019261087c575b509061082c565b8061057e61088992610144565b5f610875565b50947f0e1f72f429eb97e64878619984a91e687ae91610348b9ff4216782cc96e49d078551806108bf8a82610be8565b0390a26108e06108ce87610bb0565b6108da8560f01c610c32565b90610da0565b60ff8360e01c16610980575b5f5b815181101561097757610907610812610804838561039a565b6080808260581c161461091e575b506001016108ee565b831c90813b156100e05785516383b5c95b60e01b8152915f90839081838161094a8b8f60048401610bf9565b03925af191821561047257600192610964575b5090610915565b8061057e61097192610144565b5f61095d565b50505050509050565b61099161098c87610eb5565b610eca565b6108ec565b91906109a183610bb0565b916109aa610cce565b905f5b8251811015610a36576109c6610812610804838661039a565b9060049182808260581c16146109e2575b5060019150016109ad565b60601c803b156100e057855f918983610a10966040519788958694859363964f667d60e01b85528401610c8f565b03925af191821561047257600192156109d7578061057e610a3092610144565b5f6109d7565b50929190610a92826040946040517f8c0b5119d4cec7b284c6b1b39252a03d1e2f2d7451a5895562524c113bb952be6f53797374656d626f756e6444656c6567613a3160f11b019180610a8a868d83610c64565b0390a2610ded565b5f5b8151811015610b1e57610aad610812610804838561039a565b6008808260581c1614610ac4575b50600101610a94565b60601c90813b156100e057845163a8ba872160e01b8152915f908390818381610af18a8e60048401610c8f565b03925af191821561047257600192610b0b575b5090610abb565b8061057e610b1892610144565b5f610b04565b505050509050565b6953746f7265486f6f6b7360301b66746273746f726560c81b01815281516020918201928201915f5b828110610b5d575050505090565b835185529381019392810192600101610b4f565b5f80516020611016833981519152815281516020918201928201915f5b828110610b9c575050505090565b835185529381019392810192600101610b8e565b604051610bd381610bc5602082019485610b71565b03601f198101835282610177565b5190205f80516020610ff68339815191521890565b9060206105f3928181520190610593565b929190610c2d6040916f53797374656d626f756e6444656c6567613a3160f11b018652606060208701526060860190610593565b930152565b90610c3c8261019a565b610c496040519182610177565b8281528092610c5a601f199161019a565b0190602036910137565b9091610c7b6105f393606084526060840190610593565b915f60208201526040818403910152610686565b5f8051602061101683398151915281526080602082018190526105f3939192610cba91840190610593565b915f60408201526060818403910152610686565b604080518082016001600160401b03811182821017610157578252600181526020810191602036843781511561033f575f8051602061101683398151915290925281516105f392610d9b92610d939164ffffffffff610d746020860186610d358683610b26565b0396610d49601f1998898101835282610177565b5190207f3b4102da22e32d82fc925482184f16c09fd4281692720b87d124aef6da48a0f11893610e24565b5460381c1690805194603f838701011690528084526020840191610fab565b805190610f04565b610f59565b81519060208093019190925b80821015610dd5575080610dbf57505050565b5f199060031b1c90818354169119905116179055565b6001839482939451815501930191601f190190610dac565b81519060208093019190925b80821015610e0c575080610dbf57505050565b6001839482939451815501930191601f190190610df9565b60405160208160208101936953746f7265486f6f6b7360301b66746273746f726560c81b0185526040820160208251919201935f5b828110610e9e57505050610e76925003601f198101835282610177565b5190207f14e2fcc58e58e68ec7edc30c8d50dccc3ce2714a623ec81f46b6a63922d765691890565b855184529481019486945092810192600101610e59565b604051610e7681610bc5602082019485610b71565b60019060018101808211610ef057905b818110610ee657505050565b5f81558201610eda565b634e487b7160e01b5f52601160045260245ffd5b9081518111610f23576001600160801b031660209190910160801b1790565b6040516323230fa360e01b81526060600482015292508291610f49906064840190610686565b905f602484015260448301520390fd5b8060801c906015809160018060801b031604604051926020906020850160208460051b8701016040528386525f5b848110610f975750505050505090565b825182529185019190830190600101610f87565b9291925b602090818310610fcf5780548552930192601f1990910190600101610faf565b91905092919280610fdf57505050565b5f199060031b1c9081835116911990541617905256fe86425bff6b57326c7859e89024fe4f238ca327a1ae4a230180dd2f0e88aaa7d97462000000000000000000000000000053797374656d626f756e6444656c6567","linkReferences":{}},"methodIdentifiers":{"_msgSender()":"119df25f","_msgValue()":"45ec9354","_world()":"e1af802c","initDelegation(address,bytes32,uint256)":"93b94f61","supportsInterface(bytes4)":"01ffc9a7","verify(address,bytes32,bytes)":"1a86b550"},"id":107}