{"abi":[{"type":"function","name":"_msgSender","inputs":[],"outputs":[{"name":"sender","type":"address","internalType":"address"}],"stateMutability":"view"},{"type":"function","name":"_msgValue","inputs":[],"outputs":[{"name":"value","type":"uint256","internalType":"uint256"}],"stateMutability":"view"},{"type":"function","name":"_world","inputs":[],"outputs":[{"name":"","type":"address","internalType":"address"}],"stateMutability":"view"},{"type":"function","name":"balanceOf","inputs":[{"name":"owner","type":"address","internalType":"address"},{"name":"id","type":"uint256","internalType":"uint256"}],"outputs":[{"name":"","type":"uint256","internalType":"uint256"}],"stateMutability":"view"},{"type":"function","name":"balanceOfBatch","inputs":[{"name":"accounts","type":"address[]","internalType":"address[]"},{"name":"ids","type":"uint256[]","internalType":"uint256[]"}],"outputs":[{"name":"","type":"uint256[]","internalType":"uint256[]"}],"stateMutability":"view"},{"type":"function","name":"burn","inputs":[{"name":"tokenId","type":"uint256","internalType":"uint256"},{"name":"value","type":"uint256","internalType":"uint256"}],"outputs":[],"stateMutability":"nonpayable"},{"type":"function","name":"isApprovedForAll","inputs":[{"name":"owner","type":"address","internalType":"address"},{"name":"operator","type":"address","internalType":"address"}],"outputs":[{"name":"","type":"bool","internalType":"bool"}],"stateMutability":"view"},{"type":"function","name":"mint","inputs":[{"name":"to","type":"address","internalType":"address"},{"name":"tokenId","type":"uint256","internalType":"uint256"},{"name":"value","type":"uint256","internalType":"uint256"},{"name":"data","type":"bytes","internalType":"bytes"}],"outputs":[],"stateMutability":"nonpayable"},{"type":"function","name":"onERC1155BatchReceived","inputs":[{"name":"","type":"address","internalType":"address"},{"name":"","type":"address","internalType":"address"},{"name":"","type":"uint256[]","internalType":"uint256[]"},{"name":"","type":"uint256[]","internalType":"uint256[]"},{"name":"","type":"bytes","internalType":"bytes"}],"outputs":[{"name":"retval","type":"bytes4","internalType":"bytes4"}],"stateMutability":"nonpayable"},{"type":"function","name":"onERC1155Received","inputs":[{"name":"","type":"address","internalType":"address"},{"name":"","type":"address","internalType":"address"},{"name":"","type":"uint256","internalType":"uint256"},{"name":"","type":"uint256","internalType":"uint256"},{"name":"","type":"bytes","internalType":"bytes"}],"outputs":[{"name":"retval","type":"bytes4","internalType":"bytes4"}],"stateMutability":"nonpayable"},{"type":"function","name":"safeBatchTransferFrom","inputs":[{"name":"from","type":"address","internalType":"address"},{"name":"to","type":"address","internalType":"address"},{"name":"ids","type":"uint256[]","internalType":"uint256[]"},{"name":"values","type":"uint256[]","internalType":"uint256[]"},{"name":"data","type":"bytes","internalType":"bytes"}],"outputs":[],"stateMutability":"nonpayable"},{"type":"function","name":"safeMint","inputs":[{"name":"to","type":"address","internalType":"address"},{"name":"tokenId","type":"uint256","internalType":"uint256"},{"name":"value","type":"uint256","internalType":"uint256"},{"name":"data","type":"bytes","internalType":"bytes"}],"outputs":[],"stateMutability":"nonpayable"},{"type":"function","name":"safeTransferFrom","inputs":[{"name":"from","type":"address","internalType":"address"},{"name":"to","type":"address","internalType":"address"},{"name":"tokenId","type":"uint256","internalType":"uint256"},{"name":"value","type":"uint256","internalType":"uint256"},{"name":"data","type":"bytes","internalType":"bytes"}],"outputs":[],"stateMutability":"nonpayable"},{"type":"function","name":"setApprovalForAll","inputs":[{"name":"operator","type":"address","internalType":"address"},{"name":"approved","type":"bool","internalType":"bool"}],"outputs":[],"stateMutability":"nonpayable"},{"type":"function","name":"supportsInterface","inputs":[{"name":"interfaceId","type":"bytes4","internalType":"bytes4"}],"outputs":[{"name":"","type":"bool","internalType":"bool"}],"stateMutability":"pure"},{"type":"function","name":"transferFrom","inputs":[{"name":"from","type":"address","internalType":"address"},{"name":"to","type":"address","internalType":"address"},{"name":"tokenId","type":"uint256","internalType":"uint256"},{"name":"value","type":"uint256","internalType":"uint256"}],"outputs":[],"stateMutability":"nonpayable"},{"type":"function","name":"uri","inputs":[{"name":"tokenId","type":"uint256","internalType":"uint256"}],"outputs":[{"name":"","type":"string","internalType":"string"}],"stateMutability":"view"},{"type":"event","name":"ApprovalForAll","inputs":[{"name":"account","type":"address","indexed":true,"internalType":"address"},{"name":"operator","type":"address","indexed":true,"internalType":"address"},{"name":"approved","type":"bool","indexed":false,"internalType":"bool"}],"anonymous":false},{"type":"event","name":"Store_SpliceStaticData","inputs":[{"name":"tableId","type":"bytes32","indexed":true,"internalType":"ResourceId"},{"name":"keyTuple","type":"bytes32[]","indexed":false,"internalType":"bytes32[]"},{"name":"start","type":"uint48","indexed":false,"internalType":"uint48"},{"name":"data","type":"bytes","indexed":false,"internalType":"bytes"}],"anonymous":false},{"type":"event","name":"TransferBatch","inputs":[{"name":"operator","type":"address","indexed":true,"internalType":"address"},{"name":"from","type":"address","indexed":true,"internalType":"address"},{"name":"to","type":"address","indexed":true,"internalType":"address"},{"name":"ids","type":"uint256[]","indexed":false,"internalType":"uint256[]"},{"name":"values","type":"uint256[]","indexed":false,"internalType":"uint256[]"}],"anonymous":false},{"type":"event","name":"TransferSingle","inputs":[{"name":"operator","type":"address","indexed":true,"internalType":"address"},{"name":"from","type":"address","indexed":true,"internalType":"address"},{"name":"to","type":"address","indexed":true,"internalType":"address"},{"name":"id","type":"uint256","indexed":false,"internalType":"uint256"},{"name":"value","type":"uint256","indexed":false,"internalType":"uint256"}],"anonymous":false},{"type":"event","name":"URI","inputs":[{"name":"value","type":"string","indexed":false,"internalType":"string"},{"name":"id","type":"uint256","indexed":true,"internalType":"uint256"}],"anonymous":false},{"type":"error","name":"ERC1155InsufficientBalance","inputs":[{"name":"sender","type":"address","internalType":"address"},{"name":"balance","type":"uint256","internalType":"uint256"},{"name":"needed","type":"uint256","internalType":"uint256"},{"name":"tokenId","type":"uint256","internalType":"uint256"}]},{"type":"error","name":"ERC1155InvalidApprover","inputs":[{"name":"approver","type":"address","internalType":"address"}]},{"type":"error","name":"ERC1155InvalidArrayLength","inputs":[{"name":"idsLength","type":"uint256","internalType":"uint256"},{"name":"valuesLength","type":"uint256","internalType":"uint256"}]},{"type":"error","name":"ERC1155InvalidOperator","inputs":[{"name":"operator","type":"address","internalType":"address"}]},{"type":"error","name":"ERC1155InvalidReceiver","inputs":[{"name":"receiver","type":"address","internalType":"address"}]},{"type":"error","name":"ERC1155InvalidReceiver","inputs":[{"name":"receiver","type":"address","internalType":"address"}]},{"type":"error","name":"ERC1155InvalidSender","inputs":[{"name":"sender","type":"address","internalType":"address"}]},{"type":"error","name":"ERC1155MissingApprovalForAll","inputs":[{"name":"operator","type":"address","internalType":"address"},{"name":"owner","type":"address","internalType":"address"}]},{"type":"error","name":"ERC1155NonexistentToken","inputs":[{"name":"tokenId","type":"uint256","internalType":"uint256"}]},{"type":"error","name":"PuppetMaster_NoPuppet","inputs":[{"name":"systemAddress","type":"address","internalType":"address"},{"name":"systemId","type":"bytes32","internalType":"ResourceId"}]},{"type":"error","name":"Slice_OutOfBounds","inputs":[{"name":"data","type":"bytes","internalType":"bytes"},{"name":"start","type":"uint256","internalType":"uint256"},{"name":"end","type":"uint256","internalType":"uint256"}]},{"type":"error","name":"World_AccessDenied","inputs":[{"name":"resource","type":"string","internalType":"string"},{"name":"caller","type":"address","internalType":"address"}]}],"bytecode":{"object":"0x6080806040523461001657612f9a908161001b8239f35b5f80fdfe60806040526004361015610011575f80fd5b5f3560e01c8062fdd58e1461012357806301ffc9a71461011e5780630e89341c14610119578063119df25f146101145780632eb2c2d61461010f57806345ec93541461010a5780634e1273f4146101055780635cfa929714610100578063731133e9146100fb578063a22cb465146100f6578063b390c0ab146100f1578063bc197c81146100ec578063e1af802c146100e7578063e985e9c5146100e2578063f23a6e61146100dd578063f242432a146100d85763fe99049a146100d3575f80fd5b610e1b565b610dc8565b610d72565b610d1e565b610d04565b610cdd565b610a68565b610947565b610908565b6107d2565b610665565b610521565b6104a0565b61038f565b61027b565b6101cb565b61016c565b600435906001600160a01b038216820361013e57565b5f80fd5b602435906001600160a01b038216820361013e57565b35906001600160a01b038216820361013e57565b3461013e57604036600319011261013e5760206101b161018a610128565b602435906101ac6001600160901b03196101a330611ab8565b60101b16610fcb565b61105b565b604051908152f35b6001600160e01b031981160361013e57565b3461013e57602036600319011261013e5760206004356101ea816101b9565b63ffffffff60e01b1663b5dee12760e01b8114908115610210575b506040519015158152f35b6301ffc9a760e01b1490505f610205565b5f5b8381106102325750505f910152565b8181015183820152602001610223565b9060209161025b81518092818552858086019101610221565b601f01601f1916010190565b906020610278928181520190610242565b90565b3461013e57602036600319011261013e576001600160901b03196103216102e76102d9836102a830611ab8565b601090811b91909116901c600160801b600160f01b03166a4d6574616461746155524960281b613a3160f11b011790565b6102e1610fef565b90611e75565b916102f130611ab8565b601090811b91909116901c600160801b600160f01b03166955524953746f7261676560301b613a3160f11b011790565b9061032a611015565b9182511561036d5761036392610347916004356020830152611e75565b8051156103675761035791610e82565b60405191829182610267565b0390f35b50610357565b610ec5565b5f91031261013e57565b6001600160a01b03909116815260200190565b3461013e575f36600319011261013e5760206103a9611091565b6040516001600160a01b039091168152f35b9181601f8401121561013e578235916001600160401b03831161013e576020808501948460051b01011161013e57565b9181601f8401121561013e578235916001600160401b03831161013e576020838186019501011161013e57565b9060a060031983011261013e576001600160a01b0391600435838116810361013e5792602435908116810361013e57916001600160401b0360443581811161013e5783610467916004016103bb565b9390939260643583811161013e5782610482916004016103bb565b9390939260843591821161013e5761049c916004016103eb565b9091565b3461013e576104ae36610418565b93969095909392916001600160a01b038216801561050957505f5b8881106104d257005b806105036104e36001938c8b610ed9565b356104ef838689610ed9565b356104fb368a8e61073a565b91878b6110a8565b016104c9565b60249060405190632bfa23e760e11b82526004820152fd5b3461013e575f36600319011261013e576020604051601f193601358152f35b634e487b7160e01b5f52604160045260245ffd5b6001600160401b03811161056757604052565b610540565b604081019081106001600160401b0382111761056757604052565b601f909101601f19168101906001600160401b0382119082101761056757604052565b6001600160401b0381116105675760051b60200190565b9080601f8301121561013e5760209082356105db816105aa565b936105e96040519586610587565b81855260208086019260051b82010192831161013e57602001905b828210610612575050505090565b81358152908301908301610604565b9081518082526020808093019301915f5b828110610640575050505090565b835185529381019392810192600101610632565b906020610278928181520190610621565b3461013e57604036600319011261013e576004356001600160401b0380821161013e573660238301121561013e5781600401356106a1816105aa565b926106af6040519485610587565b8184526020916024602086019160051b8301019136831161013e57602401905b828210610708578560243586811161013e57610363916106f66106fc9236906004016105c1565b90610f1b565b60405191829182610654565b83809161071484610158565b8152019101906106cf565b6001600160401b03811161056757601f01601f191660200190565b9291926107468261071f565b916107546040519384610587565b82948184528183011161013e578281602093845f960137010152565b9080601f8301121561013e578160206102789335910161073a565b90608060031983011261013e576004356001600160a01b038116810361013e57916024359160443591606435906001600160401b03821161013e5761027891600401610770565b3461013e576107e03661078b565b906107e9611285565b6001600160a01b0384169182156108ef5761080e61080783866113b7565b9087611565565b50843b61081757005b610847926020925f610827611091565b966040519687958694859363f23a6e6160e01b9b8c8652600486016111e8565b03925af15f91816108be575b506108905782610861611256565b805191908261088957604051632bfa23e760e11b815280610885846004830161037c565b0390fd5b9050602001fd5b6001600160e01b031916036108a157005b604051632bfa23e760e11b8152908190610885906004830161037c565b6108e191925060203d6020116108e8575b6108d98183610587565b8101906111d3565b905f610853565b503d6108cf565b604051632bfa23e760e11b815260048101849052602490fd5b3461013e576109163661078b565b509190610921611285565b6001600160a01b038216801561050957506109459261093f916113b7565b91611565565b005b3461013e57604036600319011261013e57610960610128565b602435801515810361013e57610974611091565b906001600160a01b0383811691908215610a4e576109ba826109ed96866109b56109b06109a030611ab8565b60101b6001600160901b03191690565b611a4d565b61233a565b6109fb6109d46109c8612283565b6001600160a01b031690565b9260405196879160208301919091602081019215159052565b03601f198101875286610587565b813b1561013e575f8094610a266040519788968795869463c9a34acd60e01b865216600485016119e2565b03925af18015610a4957610a3657005b80610a4361094592610554565b80610372565b61124b565b60405162ced3e160e81b815280610885876004830161037c565b3461013e5760408060031936011261013e5760049081359060243590610a8c611091565b610a9683856113b7565b9581518751808203610cc257506001600160a01b0384169384158080610cba575b610c9d578015915f5b848110610bbb5750505050600103610b7357610b14610af3610aec610ae66109c8612283565b94610efa565b5198610efa565b5197610b068651998a9260208401610ee9565b03601f198101895288610587565b813b1561013e575f8391610b3c829651998a96879586946366c93bdb60e01b865285016114c5565b03925af1908115610a495761094593610b5a92610b60575b50611a38565b90612002565b80610a43610b6d92610554565b5f610b54565b610b93610b816109c8612283565b92610b068651998a9260208401611400565b813b1561013e575f8391610b3c829651998a96879586946366c93bdb60e01b86528501611425565b8b610bd182610bca818b610f07565b5192610f07565b51908415610c15579060019291610be6611285565b86610bf18383612002565b505b610c00575b505001610ac0565b610c0d915f039085612135565b505f80610bf8565b610c3281610c2d610c286109a030611ab8565b611ae0565b611fe4565b15610c8157610c5081856101ac610c4b6109a030611ab8565b610fcb565b828110610c635750906001929186610bf3565b8b516303dee4c560e01b815294859450610885939190858b016113dc565b8a51639307fe3960e01b81528089019182529081906020010390fd5b8651639307fe3960e01b8152600a81860190815281906020010390fd5b506001610ab7565b8551635b05999160e01b815291829161088591838601610ee9565b3461013e57610ceb36610418565b5050505050505050602060405163f23a6e6160e01b8152f35b3461013e575f36600319011261013e5760206103a96123ff565b3461013e57604036600319011261013e576020610d68610d3c610128565b610d44610142565b90610d636001600160901b0319610d5a30611ab8565b60101b16611a4d565b611a78565b6040519015158152f35b3461013e5760a036600319011261013e57610d8b610128565b50610d94610142565b506084356001600160401b03811161013e57610db49036906004016103eb565b505060405163f23a6e6160e01b8152602090f35b3461013e5760a036600319011261013e57610de1610128565b610de9610142565b60843591906001600160401b03831161013e57610e0d610945933690600401610770565b9160643591604435916110a8565b3461013e57608036600319011261013e57610e34610128565b610e3c610142565b6001600160a01b0381169182156108ef576109459250610e606064356044356113b7565b929091611745565b61027891906101ac6001600160901b03196101a330611ab8565b6020610ec3919392936040519481610ea38793518092868087019101610221565b8201610eb782518093868085019101610221565b01038085520183610587565b565b634e487b7160e01b5f52603260045260245ffd5b919081101561036d5760051b0190565b908152602081019190915260400190565b80511561036d5760200190565b805182101561036d5760209160051b010190565b91909180518351808203610faf575050805190610f37826105aa565b91610f456040519384610587565b808352610f54601f19916105aa565b013660208401375f5b8151811015610fa85780610f97610f86610f7960019486610f07565b516001600160a01b031690565b610f908389610f07565b5190610e68565b610fa18286610f07565b5201610f5d565b5090925050565b610885604051928392635b05999160e01b845260048401610ee9565b60101c600160801b600160f01b0316654f776e65727360501b613a3160f11b011790565b604051602081016001600160401b03811182821017610567576040525f8152905f368137565b604051906110228261056c565b6001825260203681840137565b60405190606082016001600160401b038111838210176105675760405260028252604082602036910137565b61106361102f565b9182511561036d576001600160a01b0316602083015281516001101561036d57610278926040830152611b18565b36603319013560601c9081156110a357565b339150565b93926001600160a01b0382811693919084156111bb578616156111a4576110ce916113b7565b9190946110dd83878484611745565b506110e6611091565b9360018751145f146111105750611109611102610ec397610efa565b5193610efa565b519361265e565b90929195869594953b611127575b50505050505050565b5f60209461114d6040519788968795869463bc197c8160e01b9c8d875260048701612610565b03925af15f9181611183575b506111675782610861611256565b6001600160e01b031916036108a157505f80808080808061111e565b61119d91925060203d6020116108e8576108d98183610587565b905f611159565b604051626a0d4560e21b81525f6004820152602490fd5b604051632bfa23e760e11b81525f6004820152602490fd5b9081602091031261013e5751610278816101b9565b909260a0926102789594600180861b031683525f6020840152604083015260608201528160808201520190610242565b919261027895949160a094600180871b038092168552166020840152604083015260608201528160808201520190610242565b6040513d5f823e3d90fd5b3d15611280573d906112678261071f565b916112756040519384610587565b82523d5f602084013e565b606090565b61128e30611ab8565b611296611091565b9061129f611015565b80511561036d57600160801b600160f01b038216616e7360f01b1760208201526112c890611bc1565b60601c6001600160a01b038316036112de575050565b608081901b6001600160801b0319169061137e90602490601081901b6001600160901b031916806113a857506113126126f7565b935b8061139a57506113226126f7565b60405194859261ffff60f01b166020840152601d60f91b90816022850152611354815180926020602388019101610221565b830190602382015261136f8251809360208785019101610221565b01036004810184520182610587565b61088560405192839263d787b73760e01b845260048401611eff565b6113a390612862565b611322565b6113b190612862565b93611314565b9160405192600184526020840152604083019160018352606084015260808301604052565b90949392606092608083019660018060a01b03168352602083015260408201520152565b909161141761027893604084526040840190610621565b916020818403910152610621565b610278939260a0925f80516020612efa8339815191528352602083015260408201525f60608201528160808201520190610242565b610278939260a0925f80516020612efa833981519152835260208301525f604083015260608201528160808201520190610242565b909260a09261027895945f80516020612efa83398151915284526020840152604083015260608201528160808201520190610242565b610278939260a0925f80516020612f1a8339815191528352602083015260408201525f60608201528160808201520190610242565b610278939260a0925f80516020612f1a833981519152835260208301525f604083015260608201528160808201520190610242565b909260a09261027895945f80516020612f1a83398151915284526020840152604083015260608201528160808201520190610242565b918151918151808403611727575061157b611091565b6001600160a01b03808216949185151580611720575b6116e2575b5085169485156116c9575f5b82811061168c575050600103611640576115ee6115cc6111026115c66109c8612283565b93610efa565b51926115e060405194859260208401610ee9565b03601f198101845283610587565b803b1561013e57611619935f8094604051968795869485936366c93bdb60e01b8552600485016114fa565b03925af18015610a495761162d575b505f90565b80610a4361163a92610554565b5f611628565b61166161164e6109c8612283565b916115e060405194859260208401611400565b803b1561013e57611619935f8094604051968795869485936366c93bdb60e01b85526004850161145a565b806116c261169c60019387610f07565b516116a78389610f07565b51906116b1611285565b6116bb8282612002565b5085612135565b50016115a2565b604051639307fe3960e01b8152600a6004820152602490fd5b6116f26116ee82611f27565b1590565b156115965760405163711bec9160e11b81526001600160a01b039190911660048201525f6024820152604490fd5b505f611591565b604051635b05999160e01b8152908190610885908660048401610ee9565b929180519083518083036119c4575061175c611091565b6001600160a01b038082169587821694919290919087861415806119bb575b61197f575b5084158080611975575b6116c9578015905f5b83811061188157505050600103611833576117e76117c56117be6117b86109c8612283565b95610efa565b5192610efa565b51916117d960405193849260208401610ee9565b03601f198101835282610587565b823b1561013e575f946118148692604051988997889687956366c93bdb60e01b875216916004860161152f565b03925af18015610a4957611826575090565b80610a4361027892610554565b6118546118416109c8612283565b936117d960405193849260208401611400565b823b1561013e575f946118148692604051988997889687956366c93bdb60e01b875216916004860161148f565b61188b8188610f07565b51906118978187610f07565b518c84156118fa576001936118aa611285565b6118b48382612002565b505b868d84838d83166118e8575b5050506118d3575b50505001611793565b6118df925f0391612135565b505f8c816118ca565b6118f192612135565b508d84836118c2565b50909161191081610c2d610c286109a030611ab8565b1561195b57611929818e6101ac610c4b6109a030611ab8565b82811061193c5750908c600193926118b6565b8d61088583856040519485946303dee4c560e01b8652600486016113dc565b604051639307fe3960e01b81526004810191909152602490fd5b508387161561178a565b61198c6116ee828b611f8e565b156117805760405163711bec9160e11b81526001600160a01b0391821660048201529089166024820152604490fd5b5085151561177b565b604051635b05999160e01b8152908190610885908560048401610ee9565b61027893926080927f17307eab39ab6107e8899845ad3d59bd9653f200f220920489ca2b5937696c318352602083015260408201528160608201520190610242565b634e487b7160e01b5f52601160045260245ffd5b600160ff1b8114611a48575f0390565b611a24565b60101c600160801b600160f01b03166f4f70657261746f72417070726f76616c613a3160f11b011790565b611a8061102f565b805190926001600160a01b03911561036d578116602084015282516001101561036d57611ab293166040830152611c59565b60f81c90565b611ac0611015565b80511561036d576001600160a01b03909116602082015261027890611cd5565b60101c600160801b600160f01b03166a546f74616c537570706c7960281b613a3160f11b011790565b9081602091031261013e575190565b906001600160a01b03611b296123ff565b16308103611b3f5750611b3b91612796565b5490565b90602091611b7093604051809581948293638c364d5960e01b84526004840152608060248401526084830190610621565b5f6044830152630100080160dd1b606483015203915afa908115610a49575f91611b98575090565b610278915060203d602011611bba575b611bb28183610587565b810190611b09565b503d611ba8565b6001600160a01b03611bd16123ff565b16308103611be3575061027890612434565b604051638c364d5960e01b81526f4e616d6573706163654f776e65720000661d189ddbdc9b1960ca1b0160048201526080602482015291602091839182908190611c31906084830190610621565b5f6044830152630500400560da1b606483015203915afa908115610a49575f91611b98575090565b906001600160a01b03611c6a6123ff565b16308103611c7c5750611b3b91612796565b90602091611cad93604051809581948293638c364d5960e01b84526004840152608060248401526084830190610621565b5f6044830152630101000160d81b606483015203915afa908115610a49575f91611b98575090565b6001600160a01b03611ce56123ff565b16308103611cf75750610278906124b6565b604051638c364d5960e01b81526f53797374656d52656769737472790000661d189ddbdc9b1960ca1b0160048201526080602482015291602091839182908190611b70906084830190610621565b906001600160a01b03611d566123ff565b16308103611d68575061027891612522565b90602091611d9993604051809581948293638c364d5960e01b84526004840152608060248401526084830190610621565b6001604483015264020010010160d51b606483015203915afa908115610a49575f91611b98575090565b906001600160a01b03611dd46123ff565b16308103611de65750611b3b91612796565b90602091611c3193604051809581948293638c364d5960e01b84526004840152608060248401526084830190610621565b60208183031261013e578051906001600160401b03821161013e570181601f8201121561013e578051611e498161071f565b92611e576040519485610587565b8184526020828401011161013e576102789160208085019101610221565b906001600160a01b03611e866123ff565b16308103611e98575061027891612578565b905f91611ec893604051809581948293631e78897760e01b84526004840152606060248401526064830190610621565b85604483015203915afa908115610a49575f91611ee3575090565b61027891503d805f833e611ef78183610587565b810190611e17565b90611f17602091949394604084526040840190610242565b6001600160a01b03909416910152565b6001600160a01b031680158015919082611f4057505090565b91611f49575090565b9050611f606001600160901b0319610d5a30611ab8565b611f6861102f565b9081511561036d575f602083015281516001101561036d57611ab2926040830152611c59565b6001600160a01b03828116801515939184611fab575b5050505090565b8316149250908215611fc3575b50505f808080611fa4565b611fdd9250610d636001600160901b0319610d5a30611ab8565b5f80611fb8565b611fec611015565b9081511561036d57610278926020830152611d45565b6001600160901b0319929161202782610c2d8661201e30611ab8565b60101b16611ae0565b905f8112156121225761203990611a38565b8103908111611a485761205190935b61201e30611ab8565b9061205a611015565b9081511561036d576020820152604051918460208401526020835261207e8361056c565b6001600160a01b0361208e6123ff565b163081036120a2575090610ec392916128c0565b803b1561013e575f92836120dd936120f6604051978896879586946301c85d5760e51b8652600486015260a0602486015260a4850190610621565b6001604485015283810360031901606485015290610242565b64020010010160d51b608483015203925af18015610a49576121155750565b80610a43610ec392610554565b8101809111611a48576120519093612048565b9092915f8112156122595761216361215d85846101ac6001600160901b03196101a330611ab8565b91611a38565b8103908111611a4857925b6121836001600160901b03196101a330611ab8565b61218b61102f565b80516001600160a01b0394919391901561036d578416602084015282516001101561036d57604083015260405192856020850152602084526121cc8461056c565b6121d46123ff565b163081036121e8575090610ec392916129a0565b803b1561013e575f92836122239361223b604051978896879586946301c85d5760e51b8652600486015260a0602486015260a4850190610621565b90846044850152600319848303016064850152610242565b630100080160dd1b608483015203925af18015610a49576121155750565b61227384836101ac6001600160901b03196101a330611ab8565b908101809111611a48579261216e565b61228c30611ab8565b604051613a3160f11b6020808301918252651c1d5c1c195d60d21b60228401526d507570706574526567697374727960901b60308401528252906122cf8161056c565b5190519060208110612329575b506122e5611015565b80511561036d576122fb91836020830152611dc3565b60601c908115612309575090565b604051639434f7e160e01b81523060048201526024810191909152604490fd5b5f199060200360031b1b165f6122dc565b9061234361102f565b805190936001600160a01b039290911561036d578216602085015283516001101561036d578116604084015260405193151560f81b60208501526001845261238a8461056c565b6123926123ff565b163081036123a6575090610ec392916129a0565b803b1561013e575f9283612223936123e1604051978896879586946301c85d5760e51b8652600486015260a0602486015260a4850190610621565b630101000160d81b608483015203925af18015610a49576121155750565b7f629a4c26e296b22a8e0856e9f6ecb2d1008d7e00081111962cd175fa7488e175546001600160a01b03168061027857503390565b60405160208160208101936f4e616d6573706163654f776e65720000661d189ddbdc9b1960ca1b0185526040820160208251919201935f5b82811061249f57505050612489925003601f198101835282610587565b5190205f80516020612f5a833981519152185490565b85518452948101948694509281019260010161246c565b60405160208160208101936f53797374656d52656769737472790000661d189ddbdc9b1960ca1b0185526040820160208251919201935f5b82811061250b57505050612489925003601f198101835282610587565b8551845294810194869450928101926001016124ee565b9061252c91612796565b6125346127c4565b90806020831015612567575b5080548260031b1b91602003908160201161255a57505090565b600101549060031b1c1790565b601f83169260051c0190505f612540565b9064ffffffffff610278926125d46125e06040515f80516020612f7a83398151915260208201826125aa898884612764565b03926125be601f1994858101835282610587565b5190201895604051938491602083019687612764565b03908101835282610587565b5190207f14e2fcc58e58e68ec7edc30c8d50dccc3ce2714a623ec81f46b6a63922d76569185460381c16906127fa565b93906102789593612642916126509460018060a01b03809216885216602087015260a0604087015260a0860190610621565b908482036060860152610621565b916080818403910152610242565b939290949194853b612673575b505050505050565b612696602093604051958694859463f23a6e6160e01b998a875260048701611218565b03815f6001600160a01b0388165af15f91816126d6575b506126bb5782610861611256565b6001600160e01b031916036108a157505f808080808061266b565b6126f091925060203d6020116108e8576108d98183610587565b905f6126ad565b604051906127048261056c565b60068252651e3937b7ba1f60d11b6020830152565b6953746f7265486f6f6b7360301b66746273746f726560c81b01815281516020918201928201915f5b828110612750575050505090565b835185529381019392810192600101612742565b90815281516020918201928201915f5b828110612782575050505090565b835185529381019392810192600101612774565b906127af6117d991604051928391602083019586612764565b5190205f80516020612f5a8339815191521890565b5f805b600181106127d3575090565b9060ff64020010010160d51b83601b0360031b1c168101809111611a4857906001016127c7565b60408051601f19603f85830101811690925283815292602080850193925b8183101561284a5750508061282e575b50505090565b5f199060031b1c908183511691199054161790525f8080612828565b81600185839495979654875201940194019190612818565b5f5b60108110612893575b6040516001600160801b031990921660208301526010825261288e8261056c565b815290565b6001600160801b03198216600382901b1b6001600160f81b031916156128bb57600101612864565b61286d565b610ec3929165ffffffffffff6128d46127c4565b1691612b62565b90916128f261027893606084526060840190610621565b915f60208201526040818403910152610242565b65ffffffffffff6129236102789593606084526060840190610621565b931660208201526040818403910152610242565b916129549061027894928452608060208501526080840190610621565b915f60408201526060818403910152610242565b9061298c610278959365ffffffffffff928452608060208501526080840190610621565b931660408201526060818403910152610242565b919291906001600160f01b03198216611bdd60f21b14612b3c576129c48183612796565b6129cd83612d17565b905f5b8251811015612a7557612a046129f76129e98386610f07565b516001600160581b03191690565b6001600160581b03191690565b9060049182808260581c1614612a20575b5060019150016129d0565b60601c803b1561013e57855f9188838c96612a4f6040519889968795869463964f667d60e01b86528501612937565b03925af1918215610a495760019215612a155780610a43612a6f92610554565b5f612a15565b50949190612aa683604097865f80516020612f3a83398151915260405180612a9e868a836128db565b0390a2612da1565b5f5b8151811015612b3357612ac16129f76129e98385610f07565b6008808260581c1614612ad8575b50600101612aa8565b60601c90813b1561013e57875163a8ba872160e01b8152915f908390818381612b068b8b8e60048501612937565b03925af1918215610a4957600192612b20575b5090612acf565b80610a43612b2d92610554565b5f612b19565b50505050509050565b925f80516020612f3a833981519152919293612b5d604051928392836128db565b0390a2565b9193926001600160f01b03198316611bdd60f21b14612cf557612b858284612796565b93612b8f84612d17565b905f5b8251811015612c1d57612bab6129f76129e98386610f07565b9060049182808260581c1614612bc7575b506001915001612b92565b60601c803b1561013e57865f9189838d96612bf78b604051998a978896879563964f667d60e01b87528601612968565b03925af1918215610a495760019215612bbc5780610a43612c1792610554565b5f612bbc565b509491959290612c5b87604094875f80516020612f3a83398151915260405180612c49868c8b84612906565b0390a265ffffffffffff871690612dee565b5f5b8151811015612ceb57612c766129f76129e98385610f07565b6008808260581c1614612c8d575b50600101612c5d565b60601c90813b1561013e575f868a9386838b612cbe8b519889968795869463a8ba872160e01b865260048601612968565b03925af1918215610a4957600192612cd8575b5090612c84565b80610a43612ce592610554565b5f612cd1565b5050505050509050565b90612b5d5f80516020612f3a8339815191529394959260405193849384612906565b612d1f611015565b9081511561036d5781612d8a91602061027894015264ffffffffff604051915f80516020612f7a8339815191526020840184612d5b8483612719565b0394612d6f601f1996878101835282610587565b51902018926125e060405191826125d4602082019586612719565b602060018060801b03825116910160801b17612dff565b81519060208093019190925b80821015612dd6575080612dc057505050565b5f199060031b1c90818354169119905116179055565b6001839482939451815501930191601f190190612dad565b8251610ec393602001929091612e51565b8060801c906015809160018060801b031604604051926020906020850160208460051b8701016040528386525f5b848110612e3d5750505050505090565b825182529185019190830190600101612e2d565b909392919380612e90575b509290925b602090818310612e815784518155930192601f1990910190600101612e61565b929391905080612dc057505050565b6020811015612ee9575b8015612e5c5791939082602003908360031b5f198460031b1c19811c908751901c908019835416911617815581831115612ee157600101940191601f19910101925f612e5c565b505050509050565b90601f908260051c019116612e9a56fe4a39dc06d4c0dbc64b70af90fd698a233a518aa5d07e595d983b8c0526c8f7fbc3d58168c5ae7397731d063d5bbf3d657854427343f4c083240f7aacaa2d0f628c0b5119d4cec7b284c6b1b39252a03d1e2f2d7451a5895562524c113bb952be86425bff6b57326c7859e89024fe4f238ca327a1ae4a230180dd2f0e88aaa7d93b4102da22e32d82fc925482184f16c09fd4281692720b87d124aef6da48a0f1","linkReferences":{}},"methodIdentifiers":{"_msgSender()":"119df25f","_msgValue()":"45ec9354","_world()":"e1af802c","balanceOf(address,uint256)":"00fdd58e","balanceOfBatch(address[],uint256[])":"4e1273f4","burn(uint256,uint256)":"b390c0ab","isApprovedForAll(address,address)":"e985e9c5","mint(address,uint256,uint256,bytes)":"731133e9","onERC1155BatchReceived(address,address,uint256[],uint256[],bytes)":"bc197c81","onERC1155Received(address,address,uint256,uint256,bytes)":"f23a6e61","safeBatchTransferFrom(address,address,uint256[],uint256[],bytes)":"2eb2c2d6","safeMint(address,uint256,uint256,bytes)":"5cfa9297","safeTransferFrom(address,address,uint256,uint256,bytes)":"f242432a","setApprovalForAll(address,bool)":"a22cb465","supportsInterface(bytes4)":"01ffc9a7","transferFrom(address,address,uint256,uint256)":"fe99049a","uri(uint256)":"0e89341c"},"id":1}