{"abi":[{"type":"function","name":"_msgSender","inputs":[],"outputs":[{"name":"sender","type":"address","internalType":"address"}],"stateMutability":"view"},{"type":"function","name":"_msgValue","inputs":[],"outputs":[{"name":"value","type":"uint256","internalType":"uint256"}],"stateMutability":"view"},{"type":"function","name":"_world","inputs":[],"outputs":[{"name":"","type":"address","internalType":"address"}],"stateMutability":"view"},{"type":"function","name":"createMob","inputs":[{"name":"mobType","type":"uint8","internalType":"enum MobType"},{"name":"stats","type":"bytes","internalType":"bytes"},{"name":"mobMetadataUri","type":"string","internalType":"string"}],"outputs":[{"name":"","type":"uint256","internalType":"uint256"}],"stateMutability":"nonpayable"},{"type":"function","name":"createMobs","inputs":[{"name":"mobTypes","type":"uint8[]","internalType":"enum MobType[]"},{"name":"stats","type":"bytes[]","internalType":"bytes[]"},{"name":"mobMetadataURIs","type":"string[]","internalType":"string[]"}],"outputs":[],"stateMutability":"nonpayable"},{"type":"function","name":"getMob","inputs":[{"name":"entityId","type":"bytes32","internalType":"bytes32"}],"outputs":[{"name":"","type":"tuple","internalType":"struct MobsData","components":[{"name":"mobType","type":"uint8","internalType":"enum MobType"},{"name":"mobStats","type":"bytes","internalType":"bytes"},{"name":"mobMetadata","type":"string","internalType":"string"}]}],"stateMutability":"view"},{"type":"function","name":"getMob","inputs":[{"name":"mobId","type":"uint256","internalType":"uint256"}],"outputs":[{"name":"","type":"tuple","internalType":"struct MobsData","components":[{"name":"mobType","type":"uint8","internalType":"enum MobType"},{"name":"mobStats","type":"bytes","internalType":"bytes"},{"name":"mobMetadata","type":"string","internalType":"string"}]}],"stateMutability":"view"},{"type":"function","name":"getMobId","inputs":[{"name":"entityId","type":"bytes32","internalType":"bytes32"}],"outputs":[{"name":"","type":"uint256","internalType":"uint256"}],"stateMutability":"pure"},{"type":"function","name":"getMobPositionFromId","inputs":[{"name":"entityId","type":"bytes32","internalType":"bytes32"}],"outputs":[{"name":"x","type":"uint16","internalType":"uint16"},{"name":"y","type":"uint16","internalType":"uint16"}],"stateMutability":"pure"},{"type":"function","name":"getMonsterCombatStats","inputs":[{"name":"entityId","type":"bytes32","internalType":"bytes32"}],"outputs":[{"name":"_spawnedMonsterStats","type":"tuple","internalType":"struct AdjustedCombatStats","components":[{"name":"strength","type":"int256","internalType":"int256"},{"name":"agility","type":"int256","internalType":"int256"},{"name":"intelligence","type":"int256","internalType":"int256"},{"name":"armor","type":"int256","internalType":"int256"},{"name":"maxHp","type":"int256","internalType":"int256"},{"name":"currentHp","type":"int256","internalType":"int256"}]}],"stateMutability":"view"},{"type":"function","name":"getMonsterStats","inputs":[{"name":"mobId","type":"uint256","internalType":"uint256"}],"outputs":[{"name":"","type":"tuple","internalType":"struct MonsterStats","components":[{"name":"agility","type":"int256","internalType":"int256"},{"name":"armor","type":"int256","internalType":"int256"},{"name":"class","type":"uint8","internalType":"enum Classes"},{"name":"experience","type":"uint256","internalType":"uint256"},{"name":"hitPoints","type":"int256","internalType":"int256"},{"name":"intelligence","type":"int256","internalType":"int256"},{"name":"inventory","type":"uint256[]","internalType":"uint256[]"},{"name":"level","type":"uint256","internalType":"uint256"},{"name":"strength","type":"int256","internalType":"int256"}]}],"stateMutability":"view"},{"type":"function","name":"getNpcStats","inputs":[{"name":"mobId","type":"uint256","internalType":"uint256"}],"outputs":[{"name":"","type":"tuple","internalType":"struct NPCStats","components":[{"name":"name","type":"string","internalType":"string"},{"name":"storyPathIds","type":"bytes32[]","internalType":"bytes32[]"},{"name":"alignment","type":"uint8","internalType":"enum Alignment"}]}],"stateMutability":"view"},{"type":"function","name":"getNpcStats","inputs":[{"name":"entityId","type":"bytes32","internalType":"bytes32"}],"outputs":[{"name":"","type":"tuple","internalType":"struct NPCStats","components":[{"name":"name","type":"string","internalType":"string"},{"name":"storyPathIds","type":"bytes32[]","internalType":"bytes32[]"},{"name":"alignment","type":"uint8","internalType":"enum Alignment"}]}],"stateMutability":"view"},{"type":"function","name":"getSpawnCounter","inputs":[{"name":"entityId","type":"bytes32","internalType":"bytes32"}],"outputs":[{"name":"","type":"uint256","internalType":"uint256"}],"stateMutability":"pure"},{"type":"function","name":"isValidMob","inputs":[{"name":"entityId","type":"bytes32","internalType":"bytes32"}],"outputs":[{"name":"_isValidMob","type":"bool","internalType":"bool"}],"stateMutability":"view"},{"type":"function","name":"spawnMob","inputs":[{"name":"mobId","type":"uint256","internalType":"uint256"},{"name":"x","type":"uint16","internalType":"uint16"},{"name":"y","type":"uint16","internalType":"uint16"}],"outputs":[{"name":"entityId","type":"bytes32","internalType":"bytes32"}],"stateMutability":"nonpayable"},{"type":"function","name":"spawnMobs","inputs":[{"name":"mobIds","type":"uint256[]","internalType":"uint256[]"},{"name":"x","type":"uint16","internalType":"uint16"},{"name":"y","type":"uint16","internalType":"uint16"}],"outputs":[],"stateMutability":"nonpayable"},{"type":"function","name":"supportsInterface","inputs":[{"name":"interfaceId","type":"bytes4","internalType":"bytes4"}],"outputs":[{"name":"","type":"bool","internalType":"bool"}],"stateMutability":"pure"},{"type":"event","name":"Store_SetRecord","inputs":[{"name":"tableId","type":"bytes32","indexed":true,"internalType":"ResourceId"},{"name":"keyTuple","type":"bytes32[]","indexed":false,"internalType":"bytes32[]"},{"name":"staticData","type":"bytes","indexed":false,"internalType":"bytes"},{"name":"encodedLengths","type":"bytes32","indexed":false,"internalType":"EncodedLengths"},{"name":"dynamicData","type":"bytes","indexed":false,"internalType":"bytes"}],"anonymous":false},{"type":"event","name":"Store_SpliceDynamicData","inputs":[{"name":"tableId","type":"bytes32","indexed":true,"internalType":"ResourceId"},{"name":"keyTuple","type":"bytes32[]","indexed":false,"internalType":"bytes32[]"},{"name":"dynamicFieldIndex","type":"uint8","indexed":false,"internalType":"uint8"},{"name":"start","type":"uint48","indexed":false,"internalType":"uint48"},{"name":"deleteCount","type":"uint40","indexed":false,"internalType":"uint40"},{"name":"encodedLengths","type":"bytes32","indexed":false,"internalType":"EncodedLengths"},{"name":"data","type":"bytes","indexed":false,"internalType":"bytes"}],"anonymous":false},{"type":"event","name":"Store_SpliceStaticData","inputs":[{"name":"tableId","type":"bytes32","indexed":true,"internalType":"ResourceId"},{"name":"keyTuple","type":"bytes32[]","indexed":false,"internalType":"bytes32[]"},{"name":"start","type":"uint48","indexed":false,"internalType":"uint48"},{"name":"data","type":"bytes","indexed":false,"internalType":"bytes"}],"anonymous":false},{"type":"error","name":"EncodedLengths_InvalidLength","inputs":[{"name":"length","type":"uint256","internalType":"uint256"}]},{"type":"error","name":"MaxMobSpawns","inputs":[]},{"type":"error","name":"MaxMobTypes","inputs":[]},{"type":"error","name":"MobArrayMismatch","inputs":[]},{"type":"error","name":"Slice_OutOfBounds","inputs":[{"name":"data","type":"bytes","internalType":"bytes"},{"name":"start","type":"uint256","internalType":"uint256"},{"name":"end","type":"uint256","internalType":"uint256"}]},{"type":"error","name":"Store_IndexOutOfBounds","inputs":[{"name":"length","type":"uint256","internalType":"uint256"},{"name":"accessedIndex","type":"uint256","internalType":"uint256"}]},{"type":"error","name":"Store_InvalidResourceType","inputs":[{"name":"expected","type":"bytes2","internalType":"bytes2"},{"name":"resourceId","type":"bytes32","internalType":"ResourceId"},{"name":"resourceIdString","type":"string","internalType":"string"}]},{"type":"error","name":"Store_InvalidSplice","inputs":[{"name":"startWithinField","type":"uint40","internalType":"uint40"},{"name":"deleteCount","type":"uint40","internalType":"uint40"},{"name":"fieldLength","type":"uint40","internalType":"uint40"}]},{"type":"error","name":"World_AccessDenied","inputs":[{"name":"resource","type":"string","internalType":"string"},{"name":"caller","type":"address","internalType":"address"}]},{"type":"error","name":"WrongMobType","inputs":[]}],"bytecode":{"object":"0x608080604052346100175761578990816200001c8239f35b5f80fdfe60806040526004361015610011575f80fd5b5f3560e01c806301ffc9a71461013457806310407e741461012f578063119df25f1461012a5780631462e019146101255780632116aaef1461012057806327bdc7b51461011b57806330feba9c1461011657806342952c5f1461011157806345ec93541461010c5780635bbee18c146101075780636f1b80e114610102578063aca6f56e146100fd578063ba5d4ff1146100f8578063c4cc3db0146100f3578063c841df4f146100ee578063cfff24b4146100e9578063ddbf34d0146100e45763e1af802c146100df575f80fd5b610b06565b610ab6565b610a7f565b6109e5565b61089d565b61072f565b61070c565b610615565b6105ed565b6105ce565b6105b5565b6104d3565b6104a2565b6103e0565b610312565b6101d0565b6101a0565b3461018a57602036600319011261018a5760043563ffffffff60e01b811680910361018a5760209063b5dee12760e01b8114908115610179575b506040519015158152f35b6301ffc9a760e01b1490505f61016e565b5f80fd5b602090600319011261018a5760043590565b3461018a5760406101b03661018e565b61ffff825191818160101c168352166020820152f35b5f91031261018a57565b3461018a575f36600319011261018a5760206101ea6114e6565b6040516001600160a01b039091168152f35b5f5b83811061020d5750505f910152565b81810151838201526020016101fe565b90606051918281525f5b8381106102465750825f602080949584010152601f8019910116010190565b806020916080015182828501015201610227565b90602091610273815180928185528580860191016101fc565b601f01601f1916010190565b634e487b7160e01b5f52602160045260245ffd5b6004111561029d57565b61027f565b6020918282526102bd8151606085850152608084019061025a565b81840151838203601f1901604085015280518083529185019490810191905f5b8281106102fe575050505060406060910151916102f983610293565b015290565b8351875295810195928101926001016102dd565b3461018a57602036600319011261018a5761032b610b20565b50610337600435611532565b600181516103448161044d565b61034d8161044d565b0361037c5761036c602061037892015160208082518301019101610bf2565b604051918291826102a2565b0390f35b60405163064b927760e41b8152600490fd5b9181601f8401121561018a578235916001600160401b03831161018a576020808501948460051b01011161018a57565b6024359061ffff8216820361018a57565b6044359061ffff8216820361018a57565b3461018a57606036600319011261018a576004356001600160401b03811161018a5761041090369060040161038e565b906104196103be565b906104226103cf565b5f5b84811061042d57005b8061044683866104406001958a89610c93565b356110d7565b5001610424565b6003111561029d57565b9061049f9160208152815161046b8161044d565b6020820152604061048a6020840151606083850152608084019061025a565b920151906060601f198285030191015261025a565b90565b3461018a576103786104c76104b63661018e565b6104be610ca3565b5060e01c611532565b60405191829182610457565b3461018a576104e13661018e565b6040516104ed81610768565b5f815260208101915f835260408201905f825260608301935f8552608084015f815260a08501935f855261052b6105268560e01c611532565b610b40565b6105348161044d565b61037c57610378966105588561054b60a09761169e565b95602087015190526117e4565b9052825186526060830151905260808201519052015190526040519182918291909160a08060c083019480518452602081015160208501526040810151604085015260608101516060850152608081015160808501520151910152565b3461018a576103376105c63661018e565b6104be610b20565b3461018a575f36600319011261018a576020604051601f193601358152f35b3461018a57602036600319011261018a57610606610ca3565b506103786104c7600435611532565b3461018a57606036600319011261018a576001600160401b0360043581811161018a5761064690369060040161038e565b919060243582811161018a5761066090369060040161038e565b9260443590811161018a5761067990369060040161038e565b93858514801590610702575b6106f0575f5b86811061069457005b806106e985886106e3846106db6106d16106c88f998b8f8260019d6106b892610c93565b35986106c38a61074a565b610cc2565b9390958c610cc2565b9490923691610867565b923691610867565b91610db1565b500161068b565b60405163dd94cf1960e01b8152600490fd5b5085811415610685565b3461018a57602061071c3661018e565b60405190821c6001600160c01b03168152f35b3461018a57602061073f3661018e565b60e01c604051908152f35b6003111561018a57565b634e487b7160e01b5f52604160045260245ffd5b60c081019081106001600160401b0382111761078357604052565b610754565b61012081019081106001600160401b0382111761078357604052565b606081019081106001600160401b0382111761078357604052565b6001600160401b03811161078357604052565b604081019081106001600160401b0382111761078357604052565b601f909101601f19168101906001600160401b0382119082101761078357604052565b6040519061081d82610788565b565b604051906101a082016001600160401b0381118382101761078357604052565b6040519061081d826107a4565b6001600160401b03811161078357601f01601f191660200190565b9291926108738261084c565b9161088160405193846107ed565b82948184528183011161018a578281602093845f960137010152565b3461018a57606036600319011261018a576004356108ba8161074a565b6001600160401b0360243581811161018a573660238201121561018a576108eb903690602481600401359101610867565b9160443591821161018a573660238301121561018a57610378926106e361091c933690602481600401359101610867565b6040519081529081906020820190565b906109368261044d565b52565b9081518082526020808093019301915f5b828110610958575050505090565b83518552938101939281019260010161094a565b6020815281516020820152602082015160408201526109936040830151606083019061092c565b60608201516080820152608082015160a082015260a082015160c082015260c08201516109ce610120918260e0850152610140840190610939565b9260e0810151906101009182850152015191015290565b3461018a57602036600319011261018a575f610100604051610a0681610788565b8281528260208201528260408201528260608201528260808201528260a0820152606060c08201528260e08201520152610a41600435611532565b8051610a4c8161044d565b610a558161044d565b61037c57610a73602061037892015160208082518301019101610d0e565b6040519182918261096c565b3461018a57606036600319011261018a576020610aae610a9d6103be565b610aa56103cf565b906004356110d7565b604051908152f35b3461018a57610ac43661018e565b5f90610ace6114fd565b805115610b0157610ae69160e01c6020820152612839565b51610af9575b6020906040519015158152f35b506001610aec565b610c7f565b3461018a575f36600319011261018a5760206101ea612ad6565b60405190610b2d826107a4565b5f60408360608152606060208201520152565b5161049f8161044d565b90929192610b578161084c565b91610b6560405193846107ed565b82948284528282011161018a57602061081d9301906101fc565b81601f8201121561018a578051916020916001600160401b038411610783578360051b9060405194610bb3858401876107ed565b8552838086019282010192831161018a578301905b828210610bd6575050505090565b81518152908301908301610bc8565b5190600482101561018a57565b60208183031261018a5780516001600160401b039182821161018a57019160608382031261018a5760405192610c27846107a4565b805183811161018a57810182601f8201121561018a5782816020610c4d93519101610b4a565b8452602081015192831161018a57610c6c604092610c77948301610b7f565b602085015201610be5565b604082015290565b634e487b7160e01b5f52603260045260245ffd5b9190811015610b015760051b0190565b60405190610cb0826107a4565b60606040835f81528260208201520152565b9190811015610b015760051b81013590601e198136030182121561018a5701803591906001600160401b03831161018a57602001823603811361018a579190565b519061081d8261074a565b60208183031261018a5780516001600160401b039182821161018a5701906101208284031261018a57610d3f610810565b928251845260208301516020850152610d5a60408401610d03565b6040850152606083015160608501526080830151608085015260a083015160a085015260c083015191821161018a57610d94918301610b7f565b60c083015260e081015160e0830152610100809101519082015290565b91610dc3610dbd6114e6565b30611801565b610dcc30611b4d565b9260018401809411610e7a57610de0611517565b805115610b0157306020820152805160011015610b0157805f6040610e1d9301526040519086602083015260208252610e18826107d2565b612a40565b63ffffffff841015610e6857610e36849284838561193e565b610e3f8161044d565b15610e4957505090565b60e0610e618360208061049f96518301019101610d0e565b0151611a8f565b60405163ecea39ab60e01b8152600490fd5b610fc1565b15610e8657565b60405162461bcd60e51b815260206004820152601e60248201527f4d4f422053595354454d3a204d6f6220646f6573206e6f7420657869737400006044820152606490fd5b602081519101519060208110610edf575090565b5f199060200360031b1b1690565b60208183031261018a5780516001600160401b039182821161018a57016101208184031261018a57610f1d610810565b92815184526020820151602085015260408201516040850152606082015160608501526080820151608085015260a082015183811161018a5781610f62918401610b7f565b60a085015260c082015183811161018a5781610f7f918401610b7f565b60c085015260e082015183811161018a5781610f9c918401610b7f565b60e0850152610100928383015190811161018a57610fba9201610b7f565b9082015290565b634e487b7160e01b5f52601160045260245ffd5b91908201809211610e7a57565b805115610b015760200190565b8051821015610b015760209160051b010190565b5f19810191908211610e7a57565b634e487b7160e01b5f52601260045260245ffd5b9060018201915f600184129112908015821691151617610e7a57565b9190915f8382019384129112908015821691151617610e7a57565b6109368261044d565b61093682610293565b600a111561029d57565b600a82101561029d5752565b90608282029180830560821490151715610e7a57565b90609682029180830560961490151715610e7a57565b908160011b916002830503610e7a57565b90609682029180830460961490151715610e7a57565b92916110ed846110e630611b4d565b1015610e7f565b818463ffffffff61110c61110083611b84565b6001600160c01b031690565b6040805193831660e01b6001600160e01b03191660208086019190915291811b6001600160401b031916602485015260f096871b6001600160f01b0319908116603c8601529686901b909616603e84015291949061118961118387808501039761117e601f19998a81018352826107ed565b610ecb565b98611532565b8881516111958161044d565b61119e8161044d565b61149157506111ad8686611cd4565b80515f908b811561148057506015111561140057505090838996959493925b0151838082518301019101906111e191610d0e565b82518481018881524460208201529198816040840103908101825261120690826107ed565b519020968793610100820193845184871661122091611d72565b83518588851c1661123091611d72565b9560a08501958651818a861c1661124691611d72565b9080608088019a818c519160601c1661125e91611d72565b9e60801c166064900616600f11928392519061127991611041565b9786519061128691611041565b96519061129291611041565b978c8151906112a091611041565b9c84870151916112af8361044d565b51906112ba91611041565b9c60608701519160e0880151906112cf61081f565b9a8b52878b01998a526112e490878c0161105c565b60608a019a8b5260808a0191825260a08a019e8f5260c08a0192835260e08a01525f6101008a018190526101208a018190526101408a018190526101608a018190526101808a01526113839d6113739a61136d996113649661138c575b505050505060c0848601519501519361135861083f565b95865285019015159052565b82015286611dea565b84611ee5565b61137e828285611f89565b61206f565b61081d82612123565b6113a06113998d51611084565b6064900590565b8c526113af6113998251611084565b90526113be6113998251611084565b90526113cd611399835161109a565b809252526113e56113de82516110c1565b6064900490565b90528385016113f48151611025565b90525f80808080611341565b9795939161142861052661142361141c8c869f9c9a9896610fef565b5160e01c90565b611532565b6114318161044d565b61144b5750505050505050506114479192610fef565b5190565b60146114578c51611003565b1061146e5750505050505050506114479192610fef565b879a50839495969850929091926111cc565b9897969594939150508491506111cc565b959493925090506113839550600281516114aa8161044d565b6114b38161044d565b146114c0575b5050611373565b816114df926114d9920151908082518301019101610eed565b84611c1e565b5f806114b9565b36603319013560601c9081156114f857565b339150565b6040519061150a826107d2565b6001825260203681840137565b60405190611524826107a4565b600282526040366020840137565b61153a610ca3565b506115436114fd565b805115610b0157611558916020820152612253565b6020611562610ca3565b93015160f81c6115718161044d565b61157a8161044d565b835264ffffffffff808360381c169061159b6115968385612933565b6146ba565b9360601c168101918282118015611624575b6115ef579081602082819401019283910111610e7a578203918211610e7a576115e29160018060801b03169060801b176146ba565b6040830152602082015290565b6040516323230fa360e01b8152606060048201529283929161161590606485019061025a565b91602484015260448301520390fd5b50805183116115ad565b604051906101a082016001600160401b03811183821017610783576040525f610180838281528260208201528260408201528260608201528260808201528260a08201528260c08201528260e0820152826101008201528261012082015282610140820152826101608201520152565b6116a661162e565b506116af6114fd565b805115610b01576116c4916020820152612310565b50506116ce61162e565b906020810151906117da6040820151916116f46116ef606083015160f81c90565b612c91565b9060618101519060818101519060a18101519060c1810151906117b88a6117ae60e18401519361012061173461172f61010184015160f81c90565b612c9d565b936117a861174a61172f61010286015160f81c90565b9361179e61176061172f61010384015160f81c90565b9161179461178a61010561178161177c61010486015160f81c90565b612ca9565b93015160f81c90565b1515610180870152565b6101608501611078565b6101408301611065565b01611065565b6101008c01611065565b60e08a015260c089015260a0880152608087015260608601526040850161105c565b6020830152815290565b6117ec6114fd565b805115610b015761049f9160208201526123b7565b6118096114fd565b80516001600160a01b03919015610b015761182b908285166020820152612471565b60f81c6119395761183a6114fd565b90815115610b0157611851921660208201526124fe565b61186e82600160801b600160f01b038316616e7360f01b17614824565b8015611929575b1561187e575050565b608081901b6001600160801b031916906118e990601081901b6001600160901b0319168061191a57506118af612ecf565b925b8061190957506118db6118c2612ecf565b6040519485936001600160f01b03191660208501612ef1565b03601f1981018352826107ed565b61190560405192839263d787b73760e01b84526004840161266e565b0390fd5b6119156118db91614862565b6118c2565b61192390614862565b926118b1565b506119348282614824565b611875565b505050565b60405193916119b0906020906119538161044d565b60f81b8187015260018652611967866107d2565b84519484518060601b908760381b908801171794866119906040519889948680870191016101fc565b82016119a4825180938680850191016101fc565b010380865201846107ed565b6119b86114fd565b906119c282610fe2565b526001600160a01b036119d3612ad6565b163081036119e657509261081d93612f3f565b909192813b1561018a5760405163298314fb60e01b8152634d6f627360601b631d18955160e21b01600482015260a06024820152945f948694859387938593611a669390929190611a5290611a3f9060a4880190610939565b600319928388830301604489015261025a565b92606486015284830301608485015261025a565b03925af18015611a8a57611a775750565b80611a8461081d926107bf565b806101c6565b612248565b90611a986114fd565b91825115610b0157602083015260405190602082015260208152611abb816107d2565b6001600160a01b03611acb612ad6565b1691308303611ade5761081d9250613a22565b90823b1561018a57604051630a87993160e11b81526a135bd89cd09e53195d995b602a1b631d18955160e21b01600482015260806024820152925f928492839185918391611a669190611b35906084850190610939565b9084604485015260031984830301606485015261025a565b611b55611517565b90815115610b01576001600160a01b03166020820152805160011015610b0157805f604061049f930152612596565b611b8c611517565b805115610b0157306020820152805160011015610b015780826040611bb2930152612596565b9060018201809211610e7a576001600160c01b03821015611c0c57611bd5611517565b805115610b0157306020820152805160011015610b015761049f9160408201526040519083602083015260208252610e18826107d2565b604051635ffeddff60e01b8152600490fd5b9061081d9181516020830151604084015160608501519060808601519260405194602086015260408501526060840152608083015260a082015260a08152611c6581610768565b60a08301519260c08101519061010060e0820151910151611c90865191845193805195825199612791565b95611c996114fd565b95611ca387610fe2565b528060b51b9380608d1b938060651b9380603d1b9360051b9260051b9160051b9060051b0101011717171791612696565b611cdc611517565b9161ffff90835115610b01578160209316602085015283519360019460011015610b0157611d1b92611d13921660408201526128d3565b805190612933565b6040805160206020600160801b0384168201810190925260016001607b1b03600584901c168082529094909260801c9185015f5b848110611d5f5750505050505090565b8351825292850192908501908201611d4f565b600a810290808205600a1490151715610e7a57606490059060018212611de1575b611d9c826110b0565b9060018201915f600184129112908015821691151617610e7a578115611ddc5763ffffffff16065f8282039212818312811691831390151617610e7a5790565b611011565b60019150611d93565b604082519260208101511515825194602086015260f81b8285015260218452611e12846107a4565b0151611e28815180603d1b9060051b1791613e2b565b91611e52602060405185611e4582975180928580860191016101fc565b81010380865201846107ed565b611e5a6114fd565b90611e6482610fe2565b526001600160a01b03611e75612ad6565b16308103611e8857509261081d936135f8565b909192813b1561018a5760405163298314fb60e01b8152674d6f62537461747360401b631d18955160e21b01600482015260a06024820152945f948694859387938593611a669390929190611a5290611a3f9060a4880190610939565b611f7061081d92611f6381519160208101516040820151611f058161044d565b6060830151608084015160a085015160c08601519160e08701519361010088015195611f3087610293565b61012089015197611f4089610293565b611f6a6101806101408c01519b611f568d610293565b6101608101519d8e61106e565b0151151590565b9b6129a8565b90611f796114fd565b90611f8382610fe2565b52612717565b906040519261ffff60f01b809260f01b16602085015260f01b16602283015260048252611fb5826107d2565b611fbd6114fd565b90815115610b015760208201526001600160a01b03611fda612ad6565b16308103611fed57509061081d916131b4565b90813b1561018a5760405163298314fb60e01b8152672837b9b4ba34b7b760411b631d18955160e21b01600482015260a06024820152925f9284929091839185918391611a66919061205a906120479060a4860190610939565b600319928386830301604487015261025a565b9084606485015283820301608484015261021d565b91909161207a611517565b9261ffff91845115610b015782166020850152835160011015610b0157166040830152604051906020820152602081526120b3816107d2565b6001600160a01b036120c3612ad6565b16913083036120d65761081d9250613c4e565b90823b1561018a57604051630a87993160e11b81525f80516020615769833981519152600482015260806024820152925f928492839185918391611a669190611b35906084850190610939565b61212b6114fd565b90815115610b01576020820152604051600160f81b602082015260018152612152816107d2565b6001600160a01b03612162612ad6565b16913083036121755761081d9250613ee7565b90823b1561018a576040516301c85d5760e51b81526614dc185ddb9959604a1b631d18955160e21b01600482015260a06024820152925f9284928391859183916121c89190611b359060a4850190610939565b630101000160d81b608483015203925af18015611a8a57611a775750565b9080601f8301121561018a57815161049f92602001610b4a565b909160608284031261018a5781516001600160401b03929083811161018a578461222b9183016121e6565b93602082015193604083015190811161018a5761049f92016121e6565b6040513d5f823e3d90fd5b6001600160a01b03612263612ad6565b1630810361227c575061227590612b3d565b9192909190565b60405163419b58fd60e01b8152634d6f627360601b631d18955160e21b0160048201526060602482015292915f918491829081906122be906064830190610939565b630101020160d81b604483015203915afa908115611a8a575f80935f936122e6575b50929190565b9193505061230691503d805f833e6122fe81836107ed565b810190612200565b929092915f6122e0565b6001600160a01b03612320612ad6565b16308103612332575061227590612c17565b60405163419b58fd60e01b815264537461747360581b631d18955160e21b0160048201526060602482015292915f91849182908190612375906064830190610939565b6fe60d002020012020202020010101010160781b604483015203915afa908115611a8a575f80935f936122e65750929190565b9081602091031261018a575190565b6001600160a01b036123c7612ad6565b163081036123d9575061049f90612cb8565b604051638c364d5960e01b8152674d6f62537461747360401b631d18955160e21b016004820152608060248201529160209183918290819061241f906084830190610939565b5f604483015264210201200160d01b606483015203915afa908115611a8a575f91612448575090565b61049f915060203d60201161246a575b61246281836107ed565b8101906123a8565b503d612458565b6001600160a01b03612481612ad6565b16308103612493575061049f90612d32565b604051638c364d5960e01b81526420b236b4b760591b631d18955160e21b01600482015260806024820152916020918391829081906124d6906084830190610939565b5f6044830152630101000160d81b606483015203915afa908115611a8a575f91612448575090565b6001600160a01b0361250e612ad6565b16308103612520575061049f90612d93565b604051638c364d5960e01b81526f53797374656d52656769737472790000661d189ddbdc9b1960ca1b016004820152608060248201529160209183918290819061256e906084830190610939565b5f6044830152630100080160dd1b606483015203915afa908115611a8a575f91612448575090565b6001600160a01b036125a6612ad6565b163081036125b8575061049f90612dff565b604051638c364d5960e01b815267436f756e7465727360401b631d18955160e21b016004820152608060248201529160209183918290819061256e906084830190610939565b6001600160a01b0361260e612ad6565b16308103612620575061049f90612e63565b604051638c364d5960e01b81526f5265736f757263654163636573730000661d189ddbdc9b1960ca1b01600482015260806024820152916020918391829081906124d6906084830190610939565b9061268660209194939460408452604084019061025a565b6001600160a01b03909416910152565b909291906001600160a01b036126aa612ad6565b163081036126bd57509261081d936133c9565b909192813b1561018a5760405163298314fb60e01b81526453686f707360581b631d18955160e21b01600482015260a06024820152945f948694859387938593611a669390929190611a5290611a3f9060a4880190610939565b6001600160a01b03612727612ad6565b1630810361273a57509061081d9161382a565b90813b1561018a5760405163298314fb60e01b815264537461747360581b631d18955160e21b01600482015260a06024820152925f9284929091839185918391611a66919061205a906120479060a4860190610939565b916127b36127a76127ad6127a761049f96613e2b565b94613e2b565b92613e2b565b6040519485926020946127ce815180928880890191016101fc565b84016127e2825180938880850191016101fc565b016127f5825180938780850191016101fc565b01612808825180938680850191016101fc565b010380845201826107ed565b9060208282031261018a5781516001600160401b03811161018a5761049f92016121e6565b6001600160a01b03612849612ad6565b1630810361285b575061049f90613e85565b604051631e78897760e01b8152634d6f627360601b631d18955160e21b01600482015260606024820152915f9183918290819061289c906064830190610939565b85604483015203915afa908115611a8a575f916128b7575090565b61049f91503d805f833e6128cb81836107ed565b810190612814565b6001600160a01b036128e3612ad6565b163081036128f5575061049f90613ecb565b604051631e78897760e01b81525f80516020615769833981519152600482015260606024820152915f9183918290819061289c906064830190610939565b9081518111612952576001600160801b031660209190910160801b1790565b6040516323230fa360e01b8152606060048201529250829161297890606484019061025a565b905f602484015260448301520390fd5b61299181610293565b60f81b9052565b600a81101561029d5760f81b9052565b9b9a999897969594939291906040519c60208e015260408d01526129cb8161044d565b60f81b60608c015260618b015260818a015260a189015260c188015260e18701526129f581610293565b60f81b6101018601526101028501612a0c91612988565b6101038401612a1a91612988565b6101048301612a2891612998565b151560f81b61010582015260e6815261049f81610788565b906001600160a01b03612a51612ad6565b1691308303612a645761081d9250614064565b90823b1561018a576040516301c85d5760e51b815267436f756e7465727360401b631d18955160e21b01600482015260a06024820152925f928492839185918391612ab89190611b359060a4850190610939565b630100080160dd1b608483015203925af18015611a8a57611a775750565b7f629a4c26e296b22a8e0856e9f6ecb2d1008d7e00081111962cd175fa7488e175546001600160a01b03168061049f57503390565b90612b158261084c565b612b2260405191826107ed565b8281528092612b33601f199161084c565b0190602036910137565b612b4e612b49826146df565b614b84565b90612b5881614cdb565b5491612b6c66ffffffffffffff8416612b0b565b926020925f928486015b60ff8516906002821015612c0c5790869164ffffffffff86612b9889886143f2565b936028026038011c16918190835b85811015612bf357612bc1955080612bd7575b505050610fd5565b9360ff809116908114610e7a5760010193612b76565b5f199060031b1c908183511691199054161790525f8080612bb9565b815483528a9590920191600190910190601f1901612ba6565b505095925050929150565b5f90612c24606091614709565b60405190602090601f19908161012585011660405260e68452602084019260e691925b81831015612c7957505080612c5d575b50505092565b5f199060031b1c908183511691199054161790525f8080612c57565b81600185839495979654875201940194019190612c47565b60ff1661049f8161044d565b60ff1661049f81610293565b60ff16600a81101561029d5790565b6040516020816020810193674d6f62537461747360401b631d18955160e21b0185526040820160208251919201935f5b828110612d1b57505050612d05925003601f1981018352826107ed565b5190205f805160206156e9833981519152185490565b855184529481019486945092810192600101612ce8565b60405160208160208101936420b236b4b760591b631d18955160e21b0185526040820160208251919201935f5b828110612d7c57505050612d05925003601f1981018352826107ed565b855184529481019486945092810192600101612d5f565b60405160208160208101936f53797374656d52656769737472790000661d189ddbdc9b1960ca1b0185526040820160208251919201935f5b828110612de857505050612d05925003601f1981018352826107ed565b855184529481019486945092810192600101612dcb565b604051602081602081019367436f756e7465727360401b631d18955160e21b0185526040820160208251919201935f5b828110612e4c57505050612d05925003601f1981018352826107ed565b855184529481019486945092810192600101612e2f565b60405160208160208101936f5265736f757263654163636573730000661d189ddbdc9b1960ca1b0185526040820160208251919201935f5b828110612eb857505050612d05925003601f1981018352826107ed565b855184529481019486945092810192600101612e9b565b60405190612edc826107d2565b60068252651e3937b7ba1f60d11b6020830152565b90916004939261ffff60f01b168252601d60f91b91826002820152612f208251809360206003850191016101fc565b01906003820152612f3a82518093602086850191016101fc565b010190565b60408051655461626c657360501b66746273746f726560c81b0160208201908152634d6f627360601b631d18955160e21b0182840181905283835296979295949291612f8a816107a4565b5190205f805160206156e9833981519152185490612fa661506d565b905f5b825181101561305457612fdd612fd0612fc28386610fef565b516001600160581b03191690565b6001600160581b03191690565b6001808260581c1614612ff4575b50600101612fa9565b60601c90813b1561018a575f888c9388838b6130278f8c9051998a97889687956315c19b2760e21b87526004870161492a565b03925af1918215611a8a57600192613041575b5090612feb565b80611a8461304e926107bf565b5f61303a565b50965f805160206157098339815191528751806130748c8a898b856148fc565b0390a261308f613083856146df565b84516020860191615530565b60ff808360e01c168061313b575b50505f5b8151811015613130576130ba612fd0612fc28385610fef565b6002808260581c16146130d1575b506001016130a1565b60601c90813b1561018a575f878b9387838a6131038a8f51998a9788968795635b28cdaf60e01b87526004870161492a565b03925af1918215611a8a5760019261311d575b50906130c8565b80611a8461312a926107bf565b5f613116565b505050505050509050565b969098929594938561314f869a949a614dcc565b555f96602085015b8b8916908a8210156131a1576131988d928261319360019464ffffffffff8f8f908f90613183916144cf565b956028026038011c168094615530565b610fd5565b99011697613157565b5050939950939495509550955f8061309d565b60408051655461626c657360501b66746273746f726560c81b0160208201908152672837b9b4ba34b7b760411b631d18955160e21b018284018190528383529295929491613201816107a4565b5190205f805160206156e983398151915218549161321d61510e565b905f5b82518110156132ab57613239612fd0612fc28386610fef565b6001808260581c1614613250575b50600101613220565b60601c90813b1561018a5788516315c19b2760e21b8152915f90839081838161327e8c8c8f60048501614985565b03925af1918215611a8a57600192613298575b5090613247565b80611a846132a5926107bf565b5f613291565b50945f805160206157098339815191528751806132c98689836148c0565b0390a26132e46132d88561471e565b83516020850191615530565b60ff808460e01c168061338a575b50505f5b81518110156133815761330f612fd0612fc28385610fef565b6002808260581c1614613326575b506001016132f6565b60601c90813b1561018a578751635b28cdaf60e01b8152915f9083908183816133548b8b8e60048501614985565b03925af1918215611a8a5760019261336e575b509061331d565b80611a8461337b926107bf565b5f613367565b50505050509050565b5f61339487614e2c565b555f60805b82848316106133a95750506132f2565b6001816133c086936133bb868d6144f4565b6154e5565b92011690613399565b60408051655461626c657360501b66746273746f726560c81b01602082019081526453686f707360581b631d18955160e21b0182840181905283835296979295949291613415816107a4565b5190205f805160206156e98339815191521854906134316151b3565b905f5b82518110156134c45761344d612fd0612fc28386610fef565b6001808260581c1614613464575b50600101613434565b60601c90813b1561018a575f888c9388838b6134978f8c9051998a97889687956315c19b2760e21b8752600487016149e2565b03925af1918215611a8a576001926134b1575b509061345b565b80611a846134be926107bf565b5f6134aa565b50965f805160206157098339815191528751806134e48c8a898b856148fc565b0390a26134f361308385614733565b60ff808360e01c1680613594575b50505f5b81518110156131305761351e612fd0612fc28385610fef565b6002808260581c1614613535575b50600101613505565b60601c90813b1561018a575f878b9387838a6135678a8f51998a9788968795635b28cdaf60e01b8752600487016149e2565b03925af1918215611a8a57600192613581575b509061352c565b80611a8461358e926107bf565b5f61357a565b96909892959493856135a8869a949a614e41565b555f96602085015b8b8916908a8210156135e5576135dc8d928261319360019464ffffffffff8f8f908f9061318391614567565b990116976135b0565b5050939950939495509550955f80613501565b60408051655461626c657360501b66746273746f726560c81b0160208201908152674d6f62537461747360401b631d18955160e21b0182840181905283835296979295949291613647816107a4565b5190205f805160206156e9833981519152185490613663615255565b905f5b82518110156136f65761367f612fd0612fc28386610fef565b6001808260581c1614613696575b50600101613666565b60601c90813b1561018a575f888c9388838b6136c98f8c9051998a97889687956315c19b2760e21b875260048701614a18565b03925af1918215611a8a576001926136e3575b509061368d565b80611a846136f0926107bf565b5f6136dc565b50965f805160206157098339815191528751806137168c8a898b856148fc565b0390a261372561308385614748565b60ff808360e01c16806137c6575b50505f5b815181101561313057613750612fd0612fc28385610fef565b6002808260581c1614613767575b50600101613737565b60601c90813b1561018a575f878b9387838a6137998a8f51998a9788968795635b28cdaf60e01b875260048701614a18565b03925af1918215611a8a576001926137b3575b509061375e565b80611a846137c0926107bf565b5f6137ac565b96909892959493856137da869a949a614e56565b555f96602085015b8b8916908a8210156138175761380e8d928261319360019464ffffffffff8f8f908f90613183916145d7565b990116976137e2565b5050939950939495509550955f80613733565b60408051655461626c657360501b66746273746f726560c81b016020820190815264537461747360581b631d18955160e21b018284018190528383529295929491613874816107a4565b5190205f805160206156e98339815191521854916138906152fa565b905f5b825181101561391e576138ac612fd0612fc28386610fef565b6001808260581c16146138c3575b50600101613893565b60601c90813b1561018a5788516315c19b2760e21b8152915f9083908183816138f18c8c8f60048501614a51565b03925af1918215611a8a5760019261390b575b50906138ba565b80611a84613918926107bf565b5f613904565b50945f8051602061570983398151915287518061393c8689836148c0565b0390a261394b6132d885614709565b60ff808460e01c16806139e8575b50505f5b815181101561338157613976612fd0612fc28385610fef565b6002808260581c161461398d575b5060010161395d565b60601c90813b1561018a578751635b28cdaf60e01b8152915f9083908183816139bb8b8b8e60048501614a51565b03925af1918215611a8a576001926139d5575b5090613984565b80611a846139e2926107bf565b5f6139ce565b5f6139f287614e6b565b555f60805b8284831610613a07575050613959565b600181613a1986936133bb868d61464a565b920116906139f7565b919091613a2e81614d50565b5464ffffffffff8160381c16613a45855182610fd5565b8181141594908580613c2f575b613c0357613a6090846155e3565b90613a69614ec4565b915f5b8351811015613afb57613a85612fd0612fc28387610fef565b6010808260581c1614613a9c575b50600101613a6c565b60601c90813b1561018a575f878b9388838c613ace60405198899687958694630abd6b4560e31b865260048601614a9d565b03925af1918215611a8a57600192613ae8575b5090613a93565b80611a84613af5926107bf565b5f613ae1565b506040805192979195509392916a135bd89cd09e53195d995b602a1b631d18955160e21b01905f805160206156a98339815191529080613b3e8c8a898d85614b3f565b0390a2613bf3575b613b598783613b548861442f565b615697565b5f5b8151811015613be957613b74612fd0612fc28385610fef565b6020808260581c1614613b8b575b50600101613b5b565b60601c90813b1561018a575f868a9386838b613bbc8b5198899687958694636358453360e01b865260048601614a9d565b03925af1918215611a8a57600192613bd6575b5090613b82565b80611a84613be3926107bf565b5f613bcf565b5050505050509050565b83613bfd86614d50565b55613b46565b604051632994042d60e21b815264ffffffffff8416600482018190525f60248301526044820152606490fd5b5082613c47613c3d82614a8a565b64ffffffffff1690565b1415613a52565b919091613c5a81614db7565b5464ffffffffff8160381c16613c71855182610fd5565b8181141594908580613e16575b613c0357613c8c90846155e3565b90613c95614fc3565b915f5b8351811015613d2757613cb1612fd0612fc28387610fef565b6010808260581c1614613cc8575b50600101613c98565b60601c90813b1561018a575f878b9388838c613cfa60405198899687958694630abd6b4560e31b865260048601614b01565b03925af1918215611a8a57600192613d14575b5090613cbf565b80611a84613d21926107bf565b5f613d0d565b506040805192979195509392915f80516020615769833981519152905f805160206156a98339815191529080613d608c8a898d85614b3f565b0390a2613e06575b613d768783613b54886144ab565b5f5b8151811015613be957613d91612fd0612fc28385610fef565b6020808260581c1614613da8575b50600101613d78565b60601c90813b1561018a575f868a9386838b613dd98b5198899687958694636358453360e01b865260048601614b01565b03925af1918215611a8a57600192613df3575b5090613d9f565b80611a84613e00926107bf565b5f613dec565b83613e1086614db7565b55613d68565b5082613e24613c3d82614a8a565b1415613c7e565b80518060051b60209180820460201481151715610e7a5790604051936020850191601f19603f8288010116604052855260205f9101905b838110613e7157505050505090565b815183529184019190840190600101613e62565b61049f9064ffffffffff613ec05f805160206157298339815191526040516020810190613eb6816118db888561421d565b5190201892614cdb565b5460381c1690614bee565b61049f9064ffffffffff613ec0613ee1836144ab565b92614db7565b9190613ef28361475d565b91613efb61539c565b905f5b8251811015613f8757613f17612fd0612fc28386610fef565b9060049182808260581c1614613f33575b506001915001613efe565b60601c803b1561018a57855f918983613f61966040519788958694859363964f667d60e01b85528401614c64565b03925af1918215611a8a5760019215613f285780611a84613f81926107bf565b5f613f28565b5060408051919490939291613fd09184916614dc185ddb9959604a1b631d18955160e21b01905f805160206156c98339815191529080613fc8868d83614c39565b0390a2615660565b5f5b815181101561405c57613feb612fd0612fc28385610fef565b6008808260581c1614614002575b50600101613fd2565b60601c90813b1561018a57845163a8ba872160e01b8152915f90839081838161402f8a8e60048401614c64565b03925af1918215611a8a57600192614049575b5090613ff9565b80611a84614056926107bf565b5f614042565b505050509050565b919061406f836147c0565b91614078615440565b905f5b825181101561410457614094612fd0612fc28386610fef565b9060049182808260581c16146140b0575b50600191500161407b565b60601c803b1561018a57855f9189836140de966040519788958694859363964f667d60e01b85528401614ca9565b03925af1918215611a8a57600192156140a55780611a846140fe926107bf565b5f6140a5565b506040805191949093929161414691849167436f756e7465727360401b631d18955160e21b01905f805160206156c98339815191529080613fc8868d83614c39565b5f5b815181101561405c57614161612fd0612fc28385610fef565b6008808260581c1614614178575b50600101614148565b60601c90813b1561018a57845163a8ba872160e01b8152915f9083908183816141a58a8e60048401614ca9565b03925af1918215611a8a576001926141bf575b509061416f565b80611a846141cc926107bf565b5f6141b8565b6953746f7265486f6f6b7360301b66746273746f726560c81b01815281516020918201928201915f5b828110614209575050505090565b8351855293810193928101926001016141fb565b634d6f627360601b631d18955160e21b01815281516020918201928201915f5b82811061424b575050505090565b83518552938101939281019260010161423d565b5f80516020615769833981519152815281516020918201928201915f5b82811061428a575050505090565b83518552938101939281019260010161427c565b634d6f627360601b631d18955160e21b01815281516020918201928201915f5b8281106142cc575050505090565b8351855293810193928101926001016142be565b64537461747360581b631d18955160e21b01815281516020918201928201915f5b82811061430f575050505090565b835185529381019392810192600101614301565b672837b9b4ba34b7b760411b631d18955160e21b01815281516020918201928201915f5b828110614355575050505090565b835185529381019392810192600101614347565b6453686f707360581b631d18955160e21b01815281516020918201928201915f5b828110614398575050505090565b83518552938101939281019260010161438a565b674d6f62537461747360401b631d18955160e21b01815281516020918201928201915f5b8281106143de575050505090565b8351855293810193928101926001016143d0565b905f8051602061572983398151915291604051614417816118db60208201948561421d565b51902060f89190911b6001600160f81b031916181890565b604080516a135bd89cd09e53195d995b602a1b631d18955160e21b01602080830191825284519383019594919391810191905f5b8281106144975750505050614490815f80516020615729833981519152949503601f1981018352826107ed565b5190201890565b835188529681019692810192600101614463565b5f8051602061572983398151915290604051614490816118db60208201948561425f565b905f8051602061572983398151915291604051614417816118db60208201948561429e565b60408051672837b9b4ba34b7b760411b631d18955160e21b0160208083019182528451938301969594919391810191905f5b8281106145535750505050614417815f80516020615729833981519152959603601f1981018352826107ed565b835189529781019792810192600101614526565b604080516453686f707360581b631d18955160e21b0160208083019182528451938301969594919391810191905f5b8281106145c35750505050614417815f80516020615729833981519152959603601f1981018352826107ed565b835189529781019792810192600101614596565b60408051674d6f62537461747360401b631d18955160e21b0160208083019182528451938301969594919391810191905f5b8281106146365750505050614417815f80516020615729833981519152959603601f1981018352826107ed565b835189529781019792810192600101614609565b6040805164537461747360581b631d18955160e21b0160208083019182528451938301969594919391810191905f5b8281106146a65750505050614417815f80516020615729833981519152959603601f1981018352826107ed565b835189529781019792810192600101614679565b9061081d6001600160801b0383166146d181612b0b565b93602085019060801c614e80565b6040516146f4816118db60208201948561429e565b5190205f805160206156e98339815191521890565b6040516146f4816118db6020820194856142e0565b6040516146f4816118db602082019485614323565b6040516146f4816118db602082019485614369565b6040516146f4816118db6020820194856143ac565b60405160208160208101936614dc185ddb9959604a1b631d18955160e21b0185526040820160208251919201935f5b8281106147a9575050506146f4925003601f1981018352826107ed565b85518452948101948694509281019260010161478c565b604051602081602081019367436f756e7465727360401b631d18955160e21b0185526040820160208251919201935f5b82811061480d575050506146f4925003601f1981018352826107ed565b8551845294810194869450928101926001016147f0565b61482c611517565b90815115610b01576020820152805160011015610b01576001600160a01b03909116604082015261485c906125fe565b60f81c90565b5f5b60108110614893575b6040516001600160801b031990921660208301526010825261488e826107d2565b815290565b6001600160801b03198216600382901b1b6001600160f81b031916156148bb57600101614864565b61486d565b9061049f926148da6148e892608085526080850190610939565b90838203602085015261025a565b905f6040820152606081830391015261021d565b9061049f94926148da61491792608085526080850190610939565b926040820152606081840391015261025a565b95949361496d6149809361495f60a09694634d6f627360601b631d18955160e21b018b5260c060208c015260c08b0190610939565b9089820360408b015261025a565b916060880152868203608088015261025a565b930152565b672837b9b4ba34b7b760411b631d18955160e21b01815260c0602082018190529094939260a092614980926149cf92916149c191890190610939565b90878203604089015261025a565b5f6060870152858103608087015261021d565b95949361496d6149809361495f60a096946453686f707360581b631d18955160e21b018b5260c060208c015260c08b0190610939565b95949361496d6149809361495f60a09694674d6f62537461747360401b631d18955160e21b018b5260c060208c015260c08b0190610939565b64537461747360581b631d18955160e21b01815260c0602082018190529094939260a092614980926149cf92916149c191890190610939565b9064ffffffffff809216918211610e7a57565b6a135bd89cd09e53195d995b602a1b631d18955160e21b01815260e06020820181905261049f959394919264ffffffffff91614adc9190850190610939565b945f60408501521660608301525f608083015260a082015260c081840391015261025a565b909264ffffffffff614adc61049f9694956f456e7469746965734174506f73697469631d18955160e21b01855260e0602086015260e0850190610939565b909265ffffffffffff614b5f61049f96949560c0855260c0850190610939565b945f60208501521660408301525f6060830152608082015260a081840391015261025a565b604051906020601f199182604085011660405260018085526020850193600192935b80841015614bd95750505080614bbd575b50505090565b5f199060031b1c908183511691199054161790525f8080614bb7565b84548652948501949382019392810192614ba6565b60408051601f19603f85830101811690925283815292602080850193925b81831015614c2157505080614bbd5750505090565b81600185839495979654875201940194019190614c0c565b9091614c5061049f93606084526060840190610939565b915f6020820152604081840391015261025a565b6614dc185ddb9959604a1b631d18955160e21b01815260806020820181905261049f939192614c9591840190610939565b915f6040820152606081840391015261025a565b67436f756e7465727360401b631d18955160e21b01815260806020820181905261049f939192614c9591840190610939565b6040516020816020810193634d6f627360601b631d18955160e21b0185526040820160208251919201935f5b828110614d3957505050614d24925003601f1981018352826107ed565b5190205f805160206157498339815191521890565b855184529481019486945092810192600101614d07565b60405160208160208101936a135bd89cd09e53195d995b602a1b631d18955160e21b0185526040820160208251919201935f5b828110614da057505050614d24925003601f1981018352826107ed565b855184529481019486945092810192600101614d83565b604051614d24816118db60208201948561425f565b6040516020816020810193634d6f627360601b631d18955160e21b0185526040820160208251919201935f5b828110614e1557505050614d24925003601f1981018352826107ed565b855184529481019486945092810192600101614df8565b604051614d24816118db602082019485614323565b604051614d24816118db602082019485614369565b604051614d24816118db6020820194856143ac565b604051614d24816118db6020820194856142e0565b9291905b602090818310614ea3578451815293810193601f199092019101614e84565b92939190508015611939575f199060031b1c90818351169119905116179052565b614ecc6114fd565b805115610b0157614f75611d136020926a135bd89cd09e53195d995b602a1b631d18955160e21b018482015264ffffffffff604051915f8051602061572983398151915286840184614f1e84836141d2565b0394614f32601f19968781018352826107ed565b5190201892614f586040519182614f4c8a820195866141d2565b039081018352826107ed565b5190205f80516020615749833981519152185460381c1690614bee565b8060801c916015809260018060801b0316049060405193818501828460051b8701016040528386525f5b848110614faf5750505050505090565b825182529185019190830190600101614f9f565b614fcb6114fd565b805115610b015761501f611d136020926f456e7469746965734174506f73697469631d18955160e21b018482015264ffffffffff604051915f8051602061572983398151915286840184614f1e84836141d2565b8060801c916015809260018060801b0316049060405193818501828460051b8701016040528386525f5b8481106150595750505050505090565b825182529185019190830190600101615049565b6150756114fd565b805115610b01576150c0611d13602092634d6f627360601b631d18955160e21b018482015264ffffffffff604051915f8051602061572983398151915286840184614f1e84836141d2565b8060801c916015809260018060801b0316049060405193818501828460051b8701016040528386525f5b8481106150fa5750505050505090565b8251825291850191908301906001016150ea565b6151166114fd565b805115610b0157615165611d13602092672837b9b4ba34b7b760411b631d18955160e21b018482015264ffffffffff604051915f8051602061572983398151915286840184614f1e84836141d2565b8060801c916015809260018060801b0316049060405193818501828460051b8701016040528386525f5b84811061519f5750505050505090565b82518252918501919083019060010161518f565b6151bb6114fd565b805115610b0157615207611d136020926453686f707360581b631d18955160e21b018482015264ffffffffff604051915f8051602061572983398151915286840184614f1e84836141d2565b8060801c916015809260018060801b0316049060405193818501828460051b8701016040528386525f5b8481106152415750505050505090565b825182529185019190830190600101615231565b61525d6114fd565b805115610b01576152ac611d13602092674d6f62537461747360401b631d18955160e21b018482015264ffffffffff604051915f8051602061572983398151915286840184614f1e84836141d2565b8060801c916015809260018060801b0316049060405193818501828460051b8701016040528386525f5b8481106152e65750505050505090565b8251825291850191908301906001016152d6565b6153026114fd565b805115610b015761534e611d1360209264537461747360581b631d18955160e21b018482015264ffffffffff604051915f8051602061572983398151915286840184614f1e84836141d2565b8060801c916015809260018060801b0316049060405193818501828460051b8701016040528386525f5b8481106153885750505050505090565b825182529185019190830190600101615378565b6153a46114fd565b805115610b01576153f2611d136020926614dc185ddb9959604a1b631d18955160e21b018482015264ffffffffff604051915f8051602061572983398151915286840184614f1e84836141d2565b8060801c916015809260018060801b0316049060405193818501828460051b8701016040528386525f5b84811061542c5750505050505090565b82518252918501919083019060010161541c565b6154486114fd565b805115610b0157615497611d1360209267436f756e7465727360401b631d18955160e21b018482015264ffffffffff604051915f8051602061572983398151915286840184614f1e84836141d2565b8060801c916015809260018060801b0316049060405193818501828460051b8701016040528386525f5b8481106154d15750505050505090565b8251825291850191908301906001016154c1565b9190915f905b60209081831061550b5784518155930192601f19909101906001016154eb565b92939190508061551a57505050565b5f199060031b1c90818354169119905116179055565b92919260209081831061550b5784518155930192601f19909101906001016154eb565b909392919380615582575b5092909260209081831061550b5784518155930192601f19909101906001016154eb565b60208110156155d3575b801561555e5791939082602003908360031b5f198460031b1c19811c908751901c90801983541691161781558183111561405c57600101940191601f19910101925f61555e565b90601f908260051c01911661558c565b64ffffffffff8083116156475766ffffffffffffff821690603883901c168381811061563d570301915b64ffffffffff60381b60389190911b1664ffffffffff60381b19929092166001600160601b031991909116171790565b900390039161560d565b604051637149a3c160e01b815260048101849052602490fd5b81519060208093019190925b8082101561567f57508061551a57505050565b6001839482939451815501930191601f19019061566c565b825161081d9360200192909161555356fefe158a7adba34e256807c8a149028d3162918713c3838afc643ce9f96716ebfd8c0b5119d4cec7b284c6b1b39252a03d1e2f2d7451a5895562524c113bb952be86425bff6b57326c7859e89024fe4f238ca327a1ae4a230180dd2f0e88aaa7d98dbb3a9672eebfd3773e72dd9c102393436816d832c7ba9e1e1ac8fcadcac7a93b4102da22e32d82fc925482184f16c09fd4281692720b87d124aef6da48a0f114e2fcc58e58e68ec7edc30c8d50dccc3ce2714a623ec81f46b6a63922d7656974625544000000000000000000000000456e7469746965734174506f73697469","linkReferences":{}},"methodIdentifiers":{"_msgSender()":"119df25f","_msgValue()":"45ec9354","_world()":"e1af802c","createMob(uint8,bytes,string)":"c4cc3db0","createMobs(uint8[],bytes[],string[])":"6f1b80e1","getMob(bytes32)":"27bdc7b5","getMob(uint256)":"5bbee18c","getMobId(bytes32)":"ba5d4ff1","getMobPositionFromId(bytes32)":"10407e74","getMonsterCombatStats(bytes32)":"30feba9c","getMonsterStats(uint256)":"c841df4f","getNpcStats(bytes32)":"42952c5f","getNpcStats(uint256)":"1462e019","getSpawnCounter(bytes32)":"aca6f56e","isValidMob(bytes32)":"ddbf34d0","spawnMob(uint256,uint16,uint16)":"cfff24b4","spawnMobs(uint256[],uint16,uint16)":"2116aaef","supportsInterface(bytes4)":"01ffc9a7"},"id":368}