{"abi":[{"type":"function","name":"_msgSender","inputs":[],"outputs":[{"name":"sender","type":"address","internalType":"address"}],"stateMutability":"view"},{"type":"function","name":"_msgValue","inputs":[],"outputs":[{"name":"value","type":"uint256","internalType":"uint256"}],"stateMutability":"view"},{"type":"function","name":"_world","inputs":[],"outputs":[{"name":"","type":"address","internalType":"address"}],"stateMutability":"view"},{"type":"function","name":"createMob","inputs":[{"name":"mobType","type":"uint8","internalType":"enum MobType"},{"name":"stats","type":"bytes","internalType":"bytes"},{"name":"mobMetadataUri","type":"string","internalType":"string"}],"outputs":[{"name":"","type":"uint256","internalType":"uint256"}],"stateMutability":"nonpayable"},{"type":"function","name":"createMobs","inputs":[{"name":"mobTypes","type":"uint8[]","internalType":"enum MobType[]"},{"name":"stats","type":"bytes[]","internalType":"bytes[]"},{"name":"mobMetadataURIs","type":"string[]","internalType":"string[]"}],"outputs":[],"stateMutability":"nonpayable"},{"type":"function","name":"getMob","inputs":[{"name":"entityId","type":"bytes32","internalType":"bytes32"}],"outputs":[{"name":"","type":"tuple","internalType":"struct MobsData","components":[{"name":"mobType","type":"uint8","internalType":"enum MobType"},{"name":"mobStats","type":"bytes","internalType":"bytes"},{"name":"mobMetadata","type":"string","internalType":"string"}]}],"stateMutability":"view"},{"type":"function","name":"getMob","inputs":[{"name":"mobId","type":"uint256","internalType":"uint256"}],"outputs":[{"name":"","type":"tuple","internalType":"struct MobsData","components":[{"name":"mobType","type":"uint8","internalType":"enum MobType"},{"name":"mobStats","type":"bytes","internalType":"bytes"},{"name":"mobMetadata","type":"string","internalType":"string"}]}],"stateMutability":"view"},{"type":"function","name":"getMobId","inputs":[{"name":"entityId","type":"bytes32","internalType":"bytes32"}],"outputs":[{"name":"","type":"uint256","internalType":"uint256"}],"stateMutability":"pure"},{"type":"function","name":"getMobPositionFromId","inputs":[{"name":"entityId","type":"bytes32","internalType":"bytes32"}],"outputs":[{"name":"x","type":"uint16","internalType":"uint16"},{"name":"y","type":"uint16","internalType":"uint16"}],"stateMutability":"pure"},{"type":"function","name":"getMonsterCombatStats","inputs":[{"name":"entityId","type":"bytes32","internalType":"bytes32"}],"outputs":[{"name":"_spawnedMonsterStats","type":"tuple","internalType":"struct AdjustedCombatStats","components":[{"name":"strength","type":"int256","internalType":"int256"},{"name":"agility","type":"int256","internalType":"int256"},{"name":"intelligence","type":"int256","internalType":"int256"},{"name":"armor","type":"int256","internalType":"int256"},{"name":"maxHp","type":"int256","internalType":"int256"},{"name":"currentHp","type":"int256","internalType":"int256"}]}],"stateMutability":"view"},{"type":"function","name":"getMonsterStats","inputs":[{"name":"mobId","type":"uint256","internalType":"uint256"}],"outputs":[{"name":"","type":"tuple","internalType":"struct MonsterStats","components":[{"name":"agility","type":"int256","internalType":"int256"},{"name":"armor","type":"int256","internalType":"int256"},{"name":"class","type":"uint8","internalType":"enum Classes"},{"name":"experience","type":"uint256","internalType":"uint256"},{"name":"hitPoints","type":"int256","internalType":"int256"},{"name":"intelligence","type":"int256","internalType":"int256"},{"name":"inventory","type":"uint256[]","internalType":"uint256[]"},{"name":"level","type":"uint256","internalType":"uint256"},{"name":"strength","type":"int256","internalType":"int256"}]}],"stateMutability":"view"},{"type":"function","name":"getNpcStats","inputs":[{"name":"mobId","type":"uint256","internalType":"uint256"}],"outputs":[{"name":"","type":"tuple","internalType":"struct NPCStats","components":[{"name":"name","type":"string","internalType":"string"},{"name":"storyPathIds","type":"bytes32[]","internalType":"bytes32[]"},{"name":"alignment","type":"uint8","internalType":"enum Alignment"}]}],"stateMutability":"view"},{"type":"function","name":"getNpcStats","inputs":[{"name":"entityId","type":"bytes32","internalType":"bytes32"}],"outputs":[{"name":"","type":"tuple","internalType":"struct NPCStats","components":[{"name":"name","type":"string","internalType":"string"},{"name":"storyPathIds","type":"bytes32[]","internalType":"bytes32[]"},{"name":"alignment","type":"uint8","internalType":"enum Alignment"}]}],"stateMutability":"view"},{"type":"function","name":"getSpawnCounter","inputs":[{"name":"entityId","type":"bytes32","internalType":"bytes32"}],"outputs":[{"name":"","type":"uint256","internalType":"uint256"}],"stateMutability":"pure"},{"type":"function","name":"isValidMob","inputs":[{"name":"entityId","type":"bytes32","internalType":"bytes32"}],"outputs":[{"name":"_isValidMob","type":"bool","internalType":"bool"}],"stateMutability":"view"},{"type":"function","name":"spawnMob","inputs":[{"name":"mobId","type":"uint256","internalType":"uint256"},{"name":"x","type":"uint16","internalType":"uint16"},{"name":"y","type":"uint16","internalType":"uint16"}],"outputs":[{"name":"entityId","type":"bytes32","internalType":"bytes32"}],"stateMutability":"nonpayable"},{"type":"function","name":"spawnMobs","inputs":[{"name":"mobIds","type":"uint256[]","internalType":"uint256[]"},{"name":"x","type":"uint16","internalType":"uint16"},{"name":"y","type":"uint16","internalType":"uint16"}],"outputs":[],"stateMutability":"nonpayable"},{"type":"function","name":"supportsInterface","inputs":[{"name":"interfaceId","type":"bytes4","internalType":"bytes4"}],"outputs":[{"name":"","type":"bool","internalType":"bool"}],"stateMutability":"pure"},{"type":"event","name":"Store_SetRecord","inputs":[{"name":"tableId","type":"bytes32","indexed":true,"internalType":"ResourceId"},{"name":"keyTuple","type":"bytes32[]","indexed":false,"internalType":"bytes32[]"},{"name":"staticData","type":"bytes","indexed":false,"internalType":"bytes"},{"name":"encodedLengths","type":"bytes32","indexed":false,"internalType":"EncodedLengths"},{"name":"dynamicData","type":"bytes","indexed":false,"internalType":"bytes"}],"anonymous":false},{"type":"event","name":"Store_SpliceDynamicData","inputs":[{"name":"tableId","type":"bytes32","indexed":true,"internalType":"ResourceId"},{"name":"keyTuple","type":"bytes32[]","indexed":false,"internalType":"bytes32[]"},{"name":"dynamicFieldIndex","type":"uint8","indexed":false,"internalType":"uint8"},{"name":"start","type":"uint48","indexed":false,"internalType":"uint48"},{"name":"deleteCount","type":"uint40","indexed":false,"internalType":"uint40"},{"name":"encodedLengths","type":"bytes32","indexed":false,"internalType":"EncodedLengths"},{"name":"data","type":"bytes","indexed":false,"internalType":"bytes"}],"anonymous":false},{"type":"event","name":"Store_SpliceStaticData","inputs":[{"name":"tableId","type":"bytes32","indexed":true,"internalType":"ResourceId"},{"name":"keyTuple","type":"bytes32[]","indexed":false,"internalType":"bytes32[]"},{"name":"start","type":"uint48","indexed":false,"internalType":"uint48"},{"name":"data","type":"bytes","indexed":false,"internalType":"bytes"}],"anonymous":false},{"type":"error","name":"EncodedLengths_InvalidLength","inputs":[{"name":"length","type":"uint256","internalType":"uint256"}]},{"type":"error","name":"MaxMobSpawns","inputs":[]},{"type":"error","name":"MaxMobTypes","inputs":[]},{"type":"error","name":"MobArrayMismatch","inputs":[]},{"type":"error","name":"Slice_OutOfBounds","inputs":[{"name":"data","type":"bytes","internalType":"bytes"},{"name":"start","type":"uint256","internalType":"uint256"},{"name":"end","type":"uint256","internalType":"uint256"}]},{"type":"error","name":"Store_IndexOutOfBounds","inputs":[{"name":"length","type":"uint256","internalType":"uint256"},{"name":"accessedIndex","type":"uint256","internalType":"uint256"}]},{"type":"error","name":"Store_InvalidResourceType","inputs":[{"name":"expected","type":"bytes2","internalType":"bytes2"},{"name":"resourceId","type":"bytes32","internalType":"ResourceId"},{"name":"resourceIdString","type":"string","internalType":"string"}]},{"type":"error","name":"Store_InvalidSplice","inputs":[{"name":"startWithinField","type":"uint40","internalType":"uint40"},{"name":"deleteCount","type":"uint40","internalType":"uint40"},{"name":"fieldLength","type":"uint40","internalType":"uint40"}]},{"type":"error","name":"World_AccessDenied","inputs":[{"name":"resource","type":"string","internalType":"string"},{"name":"caller","type":"address","internalType":"address"}]},{"type":"error","name":"WrongMobType","inputs":[]}],"bytecode":{"object":"0x608080604052346100175761570190816200001c8239f35b5f80fdfe60806040526004361015610011575f80fd5b5f3560e01c806301ffc9a71461013457806310407e741461012f578063119df25f1461012a5780631462e019146101255780632116aaef1461012057806327bdc7b51461011b57806330feba9c1461011657806342952c5f1461011157806345ec93541461010c5780635bbee18c146101075780636f1b80e114610102578063aca6f56e146100fd578063ba5d4ff1146100f8578063c4cc3db0146100f3578063c841df4f146100ee578063cfff24b4146100e9578063ddbf34d0146100e45763e1af802c146100df575f80fd5b610b06565b610ab6565b610a7f565b6109e5565b61089d565b61072f565b61070c565b610615565b6105ed565b6105ce565b6105b5565b6104d3565b6104a2565b6103e0565b610312565b6101d0565b6101a0565b3461018a57602036600319011261018a5760043563ffffffff60e01b811680910361018a5760209063b5dee12760e01b8114908115610179575b506040519015158152f35b6301ffc9a760e01b1490505f61016e565b5f80fd5b602090600319011261018a5760043590565b3461018a5760406101b03661018e565b61ffff825191818160101c168352166020820152f35b5f91031261018a57565b3461018a575f36600319011261018a5760206101ea61150b565b6040516001600160a01b039091168152f35b5f5b83811061020d5750505f910152565b81810151838201526020016101fe565b90606051918281525f5b8381106102465750825f602080949584010152601f8019910116010190565b806020916080015182828501015201610227565b90602091610273815180928185528580860191016101fc565b601f01601f1916010190565b634e487b7160e01b5f52602160045260245ffd5b6004111561029d57565b61027f565b6020918282526102bd8151606085850152608084019061025a565b81840151838203601f1901604085015280518083529185019490810191905f5b8281106102fe575050505060406060910151916102f983610293565b015290565b8351875295810195928101926001016102dd565b3461018a57602036600319011261018a5761032b610b20565b50610337600435611557565b600181516103448161044d565b61034d8161044d565b0361037c5761036c602061037892015160208082518301019101610bf2565b604051918291826102a2565b0390f35b60405163064b927760e41b8152600490fd5b9181601f8401121561018a578235916001600160401b03831161018a576020808501948460051b01011161018a57565b6024359061ffff8216820361018a57565b6044359061ffff8216820361018a57565b3461018a57606036600319011261018a576004356001600160401b03811161018a5761041090369060040161038e565b906104196103be565b906104226103cf565b5f5b84811061042d57005b8061044683866104406001958a89610c93565b356110ef565b5001610424565b6003111561029d57565b9061049f9160208152815161046b8161044d565b6020820152604061048a6020840151606083850152608084019061025a565b920151906060601f198285030191015261025a565b90565b3461018a576103786104c76104b63661018e565b6104be610ca3565b5060e01c611557565b60405191829182610457565b3461018a576104e13661018e565b6040516104ed81610768565b5f815260208101915f835260408201905f825260608301935f8552608084015f815260a08501935f855261052b6105268560e01c611557565b610b40565b6105348161044d565b61037c57610378966105588561054b60a0976116c3565b9560208701519052611809565b9052825186526060830151905260808201519052015190526040519182918291909160a08060c083019480518452602081015160208501526040810151604085015260608101516060850152608081015160808501520151910152565b3461018a576103376105c63661018e565b6104be610b20565b3461018a575f36600319011261018a576020604051601f193601358152f35b3461018a57602036600319011261018a57610606610ca3565b506103786104c7600435611557565b3461018a57606036600319011261018a576001600160401b0360043581811161018a5761064690369060040161038e565b919060243582811161018a5761066090369060040161038e565b9260443590811161018a5761067990369060040161038e565b93858514801590610702575b6106f0575f5b86811061069457005b806106e985886106e3846106db6106d16106c88f998b8f8260019d6106b892610c93565b35986106c38a61074a565b610cc2565b9390958c610cc2565b9490923691610867565b923691610867565b91610db1565b500161068b565b60405163dd94cf1960e01b8152600490fd5b5085811415610685565b3461018a57602061071c3661018e565b60405190821c6001600160c01b03168152f35b3461018a57602061073f3661018e565b60e01c604051908152f35b6003111561018a57565b634e487b7160e01b5f52604160045260245ffd5b60c081019081106001600160401b0382111761078357604052565b610754565b61012081019081106001600160401b0382111761078357604052565b606081019081106001600160401b0382111761078357604052565b6001600160401b03811161078357604052565b604081019081106001600160401b0382111761078357604052565b601f909101601f19168101906001600160401b0382119082101761078357604052565b6040519061081d82610788565b565b604051906101a082016001600160401b0381118382101761078357604052565b6040519061081d826107a4565b6001600160401b03811161078357601f01601f191660200190565b9291926108738261084c565b9161088160405193846107ed565b82948184528183011161018a578281602093845f960137010152565b3461018a57606036600319011261018a576004356108ba8161074a565b6001600160401b0360243581811161018a573660238201121561018a576108eb903690602481600401359101610867565b9160443591821161018a573660238301121561018a57610378926106e361091c933690602481600401359101610867565b6040519081529081906020820190565b906109368261044d565b52565b9081518082526020808093019301915f5b828110610958575050505090565b83518552938101939281019260010161094a565b6020815281516020820152602082015160408201526109936040830151606083019061092c565b60608201516080820152608082015160a082015260a082015160c082015260c08201516109ce610120918260e0850152610140840190610939565b9260e0810151906101009182850152015191015290565b3461018a57602036600319011261018a575f610100604051610a0681610788565b8281528260208201528260408201528260608201528260808201528260a0820152606060c08201528260e08201520152610a41600435611557565b8051610a4c8161044d565b610a558161044d565b61037c57610a73602061037892015160208082518301019101610d0e565b6040519182918261096c565b3461018a57606036600319011261018a576020610aae610a9d6103be565b610aa56103cf565b906004356110ef565b604051908152f35b3461018a57610ac43661018e565b5f90610ace611522565b805115610b0157610ae69160e01c602082015261287c565b51610af9575b6020906040519015158152f35b506001610aec565b610c7f565b3461018a575f36600319011261018a5760206101ea612b19565b60405190610b2d826107a4565b5f60408360608152606060208201520152565b5161049f8161044d565b90929192610b578161084c565b91610b6560405193846107ed565b82948284528282011161018a57602061081d9301906101fc565b81601f8201121561018a578051916020916001600160401b038411610783578360051b9060405194610bb3858401876107ed565b8552838086019282010192831161018a578301905b828210610bd6575050505090565b81518152908301908301610bc8565b5190600482101561018a57565b60208183031261018a5780516001600160401b039182821161018a57019160608382031261018a5760405192610c27846107a4565b805183811161018a57810182601f8201121561018a5782816020610c4d93519101610b4a565b8452602081015192831161018a57610c6c604092610c77948301610b7f565b602085015201610be5565b604082015290565b634e487b7160e01b5f52603260045260245ffd5b9190811015610b015760051b0190565b60405190610cb0826107a4565b60606040835f81528260208201520152565b9190811015610b015760051b81013590601e198136030182121561018a5701803591906001600160401b03831161018a57602001823603811361018a579190565b519061081d8261074a565b60208183031261018a5780516001600160401b039182821161018a5701906101208284031261018a57610d3f610810565b928251845260208301516020850152610d5a60408401610d03565b6040850152606083015160608501526080830151608085015260a083015160a085015260c083015191821161018a57610d94918301610b7f565b60c083015260e081015160e0830152610100809101519082015290565b91610dc3610dbd61150b565b30611826565b610dd3610dce612b19565b611b72565b9260018401809411610e9257610de7612b19565b610def61153c565b90815115610b01576001600160a01b03166020820152805160011015610b0157805f6040610e359301526040519086602083015260208252610e30826107d2565b612a83565b63ffffffff841015610e8057610e4e8492848385611963565b610e578161044d565b15610e6157505090565b60e0610e798360208061049f96518301019101610d0e565b0151611ab4565b60405163ecea39ab60e01b8152600490fd5b610fd9565b15610e9e57565b60405162461bcd60e51b815260206004820152601e60248201527f4d4f422053595354454d3a204d6f6220646f6573206e6f7420657869737400006044820152606490fd5b602081519101519060208110610ef7575090565b5f199060200360031b1b1690565b60208183031261018a5780516001600160401b039182821161018a57016101208184031261018a57610f35610810565b92815184526020820151602085015260408201516040850152606082015160608501526080820151608085015260a082015183811161018a5781610f7a918401610b7f565b60a085015260c082015183811161018a5781610f97918401610b7f565b60c085015260e082015183811161018a5781610fb4918401610b7f565b60e0850152610100928383015190811161018a57610fd29201610b7f565b9082015290565b634e487b7160e01b5f52601160045260245ffd5b91908201809211610e9257565b805115610b015760200190565b8051821015610b015760209160051b010190565b5f19810191908211610e9257565b634e487b7160e01b5f52601260045260245ffd5b9060018201915f600184129112908015821691151617610e9257565b9190915f8382019384129112908015821691151617610e9257565b6109368261044d565b61093682610293565b600a111561029d57565b600a82101561029d5752565b90608282029180830560821490151715610e9257565b90609682029180830560961490151715610e9257565b908160011b916002830503610e9257565b90609682029180830460961490151715610e9257565b92916110fc610dbd61150b565b6111128461110b610dce612b19565b1015610e97565b818463ffffffff61113161112583611ba9565b6001600160c01b031690565b6040805193831660e01b6001600160e01b03191660208086019190915291811b6001600160401b031916602485015260f096871b6001600160f01b0319908116603c8601529686901b909616603e8401529194906111ae6111a88780850103976111a3601f19998a81018352826107ed565b610ee3565b98611557565b8881516111ba8161044d565b6111c38161044d565b6114b657506111d28686611d17565b80515f908b81156114a557506015111561142557505090838996959493925b01518380825183010191019061120691610d0e565b82518481018881524460208201529198816040840103908101825261122b90826107ed565b519020968793610100820193845184871661124591611db5565b83518588851c1661125591611db5565b9560a08501958651818a861c1661126b91611db5565b9080608088019a818c519160601c1661128391611db5565b9e60801c166064900616600f11928392519061129e91611059565b978651906112ab91611059565b9651906112b791611059565b978c8151906112c591611059565b9c84870151916112d48361044d565b51906112df91611059565b9c60608701519160e0880151906112f461081f565b9a8b52878b01998a5261130990878c01611074565b60608a019a8b5260808a0191825260a08a019e8f5260c08a0192835260e08a01525f6101008a018190526101208a018190526101408a018190526101608a018190526101808a01526113a89d6113989a61139299611389966113b1575b505050505060c0848601519501519361137d61083f565b95865285019015159052565b82015286611e2d565b84611f28565b6113a3828285611fcc565b6120b2565b61081d82612166565b6113c56113be8d5161109c565b6064900590565b8c526113d46113be825161109c565b90526113e36113be825161109c565b90526113f26113be83516110b2565b8092525261140a61140382516110d9565b6064900490565b9052838501611419815161103d565b90525f80808080611366565b9795939161144d6105266114486114418c869f9c9a9896611007565b5160e01c90565b611557565b6114568161044d565b61147057505050505050505061146c9192611007565b5190565b601461147c8c5161101b565b1061149357505050505050505061146c9192611007565b879a50839495969850929091926111f1565b9897969594939150508491506111f1565b959493925090506113a89550600281516114cf8161044d565b6114d88161044d565b146114e5575b5050611398565b81611504926114fe920151908082518301019101610f05565b84611c61565b5f806114de565b36603319013560601c90811561151d57565b339150565b6040519061152f826107d2565b6001825260203681840137565b60405190611549826107a4565b600282526040366020840137565b61155f610ca3565b50611568611522565b805115610b015761157d916020820152612296565b6020611587610ca3565b93015160f81c6115968161044d565b61159f8161044d565b835264ffffffffff808360381c16906115c06115bb8385612976565b61465c565b9360601c168101918282118015611649575b611614579081602082819401019283910111610e92578203918211610e92576116079160018060801b03169060801b1761465c565b6040830152602082015290565b6040516323230fa360e01b8152606060048201529283929161163a90606485019061025a565b91602484015260448301520390fd5b50805183116115d2565b604051906101a082016001600160401b03811183821017610783576040525f610180838281528260208201528260408201528260608201528260808201528260a08201528260c08201528260e0820152826101008201528261012082015282610140820152826101608201520152565b6116cb611653565b506116d4611522565b805115610b01576116e9916020820152612353565b50506116f3611653565b906020810151906117ff604082015191611719611714606083015160f81c90565b612cd4565b9060618101519060818101519060a18101519060c1810151906117dd8a6117d360e18401519361012061175961175461010184015160f81c90565b612ce0565b936117cd61176f61175461010286015160f81c90565b936117c361178561175461010384015160f81c90565b916117b96117af6101056117a66117a161010486015160f81c90565b612cec565b93015160f81c90565b1515610180870152565b6101608501611090565b610140830161107d565b0161107d565b6101008c0161107d565b60e08a015260c089015260a08801526080870152606086015260408501611074565b6020830152815290565b611811611522565b805115610b015761049f9160208201526123fa565b61182e611522565b80516001600160a01b03919015610b01576118509082851660208201526124b4565b60f81c61195e5761185f611522565b90815115610b015761187692166020820152612541565b61189382600160801b600160f01b038316616e7360f01b176147c6565b801561194e575b156118a3575050565b608081901b6001600160801b0319169061190e90601081901b6001600160901b0319168061193f57506118d4612f12565b925b8061192e57506119006118e7612f12565b6040519485936001600160f01b03191660208501612f34565b03601f1981018352826107ed565b61192a60405192839263d787b73760e01b8452600484016126b1565b0390fd5b61193a61190091614804565b6118e7565b61194890614804565b926118d6565b5061195982826147c6565b61189a565b505050565b60405193916119d5906020906119788161044d565b60f81b818701526001865261198c866107d2565b84519484518060601b908760381b908801171794866119b56040519889948680870191016101fc565b82016119c9825180938680850191016101fc565b010380865201846107ed565b6119dd611522565b906119e782610ffa565b526001600160a01b036119f8612b19565b16308103611a0b57509261081d93612f82565b909192813b1561018a5760405163298314fb60e01b8152634d6f627360601b631d18955160e21b01600482015260a06024820152945f948694859387938593611a8b9390929190611a7790611a649060a4880190610939565b600319928388830301604489015261025a565b92606486015284830301608485015261025a565b03925af18015611aaf57611a9c5750565b80611aa961081d926107bf565b806101c6565b61228b565b90611abd611522565b91825115610b0157602083015260405190602082015260208152611ae0816107d2565b6001600160a01b03611af0612b19565b1691308303611b035761081d9250613a65565b90823b1561018a57604051630a87993160e11b81526a135bd89cd09e53195d995b602a1b631d18955160e21b01600482015260806024820152925f928492839185918391611a8b9190611b5a906084850190610939565b9084604485015260031984830301606485015261025a565b611b7a61153c565b90815115610b01576001600160a01b03166020820152805160011015610b0157805f604061049f9301526125d9565b611bb1612b19565b90611bba61153c565b80516001600160a01b03939015610b015783166020820152805160011015610b015780826040611beb9301526125d9565b9160018301809311610e92576001600160c01b03831015611c4f57611c0e612b19565b90611c1761153c565b91825115610b0157166020820152805160011015610b015761049f9160408201526040519083602083015260208252610e30826107d2565b604051635ffeddff60e01b8152600490fd5b9061081d9181516020830151604084015160608501519060808601519260405194602086015260408501526060840152608083015260a082015260a08152611ca881610768565b60a08301519260c08101519061010060e0820151910151611cd38651918451938051958251996127d4565b95611cdc611522565b95611ce687610ffa565b528060b51b9380608d1b938060651b9380603d1b9360051b9260051b9160051b9060051b01010117171717916126d9565b611d1f61153c565b9161ffff90835115610b01578160209316602085015283519360019460011015610b0157611d5e92611d5692166040820152612916565b805190612976565b6040805160206020600160801b0384168201810190925260016001607b1b03600584901c168082529094909260801c9185015f5b848110611da25750505050505090565b8351825292850192908501908201611d92565b600a810290808205600a1490151715610e9257606490059060018212611e24575b611ddf826110c8565b9060018201915f600184129112908015821691151617610e92578115611e1f5763ffffffff16065f8282039212818312811691831390151617610e925790565b611029565b60019150611dd6565b604082519260208101511515825194602086015260f81b8285015260218452611e55846107a4565b0151611e6b815180603d1b9060051b1791613e6e565b91611e95602060405185611e8882975180928580860191016101fc565b81010380865201846107ed565b611e9d611522565b90611ea782610ffa565b526001600160a01b03611eb8612b19565b16308103611ecb57509261081d9361363b565b909192813b1561018a5760405163298314fb60e01b8152674d6f62537461747360401b631d18955160e21b01600482015260a06024820152945f948694859387938593611a8b9390929190611a7790611a649060a4880190610939565b611fb361081d92611fa681519160208101516040820151611f488161044d565b6060830151608084015160a085015160c08601519160e08701519361010088015195611f7387610293565b61012089015197611f8389610293565b611fad6101806101408c01519b611f998d610293565b6101608101519d8e611086565b0151151590565b9b6129eb565b90611fbc611522565b90611fc682610ffa565b5261275a565b906040519261ffff60f01b809260f01b16602085015260f01b16602283015260048252611ff8826107d2565b612000611522565b90815115610b015760208201526001600160a01b0361201d612b19565b1630810361203057509061081d916131f7565b90813b1561018a5760405163298314fb60e01b8152672837b9b4ba34b7b760411b631d18955160e21b01600482015260a06024820152925f9284929091839185918391611a8b919061209d9061208a9060a4860190610939565b600319928386830301604487015261025a565b9084606485015283820301608484015261021d565b9190916120bd61153c565b9261ffff91845115610b015782166020850152835160011015610b0157166040830152604051906020820152602081526120f6816107d2565b6001600160a01b03612106612b19565b16913083036121195761081d9250613c91565b90823b1561018a57604051630a87993160e11b81525f805160206156e1833981519152600482015260806024820152925f928492839185918391611a8b9190611b5a906084850190610939565b61216e611522565b90815115610b01576020820152604051600160f81b602082015260018152612195816107d2565b6001600160a01b036121a5612b19565b16913083036121b85761081d9250613f2a565b90823b1561018a576040516301c85d5760e51b81526614dc185ddb9959604a1b631d18955160e21b01600482015260a06024820152925f92849283918591839161220b9190611b5a9060a4850190610939565b630101000160d81b608483015203925af18015611aaf57611a9c5750565b9080601f8301121561018a57815161049f92602001610b4a565b909160608284031261018a5781516001600160401b03929083811161018a578461226e918301612229565b93602082015193604083015190811161018a5761049f9201612229565b6040513d5f823e3d90fd5b6001600160a01b036122a6612b19565b163081036122bf57506122b890612b80565b9192909190565b60405163419b58fd60e01b8152634d6f627360601b631d18955160e21b0160048201526060602482015292915f91849182908190612301906064830190610939565b630101020160d81b604483015203915afa908115611aaf575f80935f93612329575b50929190565b9193505061234991503d805f833e61234181836107ed565b810190612243565b929092915f612323565b6001600160a01b03612363612b19565b1630810361237557506122b890612c5a565b60405163419b58fd60e01b815264537461747360581b631d18955160e21b0160048201526060602482015292915f918491829081906123b8906064830190610939565b6fe60d002020012020202020010101010160781b604483015203915afa908115611aaf575f80935f936123295750929190565b9081602091031261018a575190565b6001600160a01b0361240a612b19565b1630810361241c575061049f90612cfb565b604051638c364d5960e01b8152674d6f62537461747360401b631d18955160e21b0160048201526080602482015291602091839182908190612462906084830190610939565b5f604483015264210201200160d01b606483015203915afa908115611aaf575f9161248b575090565b61049f915060203d6020116124ad575b6124a581836107ed565b8101906123eb565b503d61249b565b6001600160a01b036124c4612b19565b163081036124d6575061049f90612d75565b604051638c364d5960e01b81526420b236b4b760591b631d18955160e21b0160048201526080602482015291602091839182908190612519906084830190610939565b5f6044830152630101000160d81b606483015203915afa908115611aaf575f9161248b575090565b6001600160a01b03612551612b19565b16308103612563575061049f90612dd6565b604051638c364d5960e01b81526f53797374656d52656769737472790000661d189ddbdc9b1960ca1b01600482015260806024820152916020918391829081906125b1906084830190610939565b5f6044830152630100080160dd1b606483015203915afa908115611aaf575f9161248b575090565b6001600160a01b036125e9612b19565b163081036125fb575061049f90612e42565b604051638c364d5960e01b815267436f756e7465727360401b631d18955160e21b01600482015260806024820152916020918391829081906125b1906084830190610939565b6001600160a01b03612651612b19565b16308103612663575061049f90612ea6565b604051638c364d5960e01b81526f5265736f757263654163636573730000661d189ddbdc9b1960ca1b0160048201526080602482015291602091839182908190612519906084830190610939565b906126c960209194939460408452604084019061025a565b6001600160a01b03909416910152565b909291906001600160a01b036126ed612b19565b1630810361270057509261081d9361340c565b909192813b1561018a5760405163298314fb60e01b81526453686f707360581b631d18955160e21b01600482015260a06024820152945f948694859387938593611a8b9390929190611a7790611a649060a4880190610939565b6001600160a01b0361276a612b19565b1630810361277d57509061081d9161386d565b90813b1561018a5760405163298314fb60e01b815264537461747360581b631d18955160e21b01600482015260a06024820152925f9284929091839185918391611a8b919061209d9061208a9060a4860190610939565b916127f66127ea6127f06127ea61049f96613e6e565b94613e6e565b92613e6e565b604051948592602094612811815180928880890191016101fc565b8401612825825180938880850191016101fc565b01612838825180938780850191016101fc565b0161284b825180938680850191016101fc565b010380845201826107ed565b9060208282031261018a5781516001600160401b03811161018a5761049f9201612229565b6001600160a01b0361288c612b19565b1630810361289e575061049f90613ec8565b604051631e78897760e01b8152634d6f627360601b631d18955160e21b01600482015260606024820152915f918391829081906128df906064830190610939565b85604483015203915afa908115611aaf575f916128fa575090565b61049f91503d805f833e61290e81836107ed565b810190612857565b6001600160a01b03612926612b19565b16308103612938575061049f90613f0e565b604051631e78897760e01b81525f805160206156e1833981519152600482015260606024820152915f918391829081906128df906064830190610939565b9081518111612995576001600160801b031660209190910160801b1790565b6040516323230fa360e01b815260606004820152925082916129bb90606484019061025a565b905f602484015260448301520390fd5b6129d481610293565b60f81b9052565b600a81101561029d5760f81b9052565b9b9a999897969594939291906040519c60208e015260408d0152612a0e8161044d565b60f81b60608c015260618b015260818a015260a189015260c188015260e1870152612a3881610293565b60f81b6101018601526101028501612a4f916129cb565b6101038401612a5d916129cb565b6101048301612a6b916129db565b151560f81b61010582015260e6815261049f81610788565b906001600160a01b03612a94612b19565b1691308303612aa75761081d92506140a7565b90823b1561018a576040516301c85d5760e51b815267436f756e7465727360401b631d18955160e21b01600482015260a06024820152925f928492839185918391612afb9190611b5a9060a4850190610939565b630100080160dd1b608483015203925af18015611aaf57611a9c5750565b7f629a4c26e296b22a8e0856e9f6ecb2d1008d7e00081111962cd175fa7488e175546001600160a01b03168061049f57503390565b90612b588261084c565b612b6560405191826107ed565b8281528092612b76601f199161084c565b0190602036910137565b612b91612b8c82614681565b614b26565b90612b9b81614c7d565b5491612baf66ffffffffffffff8416612b4e565b926020925f928486015b60ff8516906002821015612c4f5790869164ffffffffff86612bdb898861447e565b936028026038011c16918190835b85811015612c3657612c04955080612c1a575b505050610fed565b9360ff809116908114610e925760010193612bb9565b5f199060031b1c908183511691199054161790525f8080612bfc565b815483528a9590920191600190910190601f1901612be9565b505095925050929150565b5f90612c676060916146ab565b60405190602090601f19908161012585011660405260e68452602084019260e691925b81831015612cbc57505080612ca0575b50505092565b5f199060031b1c908183511691199054161790525f8080612c9a565b81600185839495979654875201940194019190612c8a565b60ff1661049f8161044d565b60ff1661049f81610293565b60ff16600a81101561029d5790565b6040516020816020810193674d6f62537461747360401b631d18955160e21b0185526040820160208251919201935f5b828110612d5e57505050612d48925003601f1981018352826107ed565b5190205f80516020615661833981519152185490565b855184529481019486945092810192600101612d2b565b60405160208160208101936420b236b4b760591b631d18955160e21b0185526040820160208251919201935f5b828110612dbf57505050612d48925003601f1981018352826107ed565b855184529481019486945092810192600101612da2565b60405160208160208101936f53797374656d52656769737472790000661d189ddbdc9b1960ca1b0185526040820160208251919201935f5b828110612e2b57505050612d48925003601f1981018352826107ed565b855184529481019486945092810192600101612e0e565b604051602081602081019367436f756e7465727360401b631d18955160e21b0185526040820160208251919201935f5b828110612e8f57505050612d48925003601f1981018352826107ed565b855184529481019486945092810192600101612e72565b60405160208160208101936f5265736f757263654163636573730000661d189ddbdc9b1960ca1b0185526040820160208251919201935f5b828110612efb57505050612d48925003601f1981018352826107ed565b855184529481019486945092810192600101612ede565b60405190612f1f826107d2565b60068252651e3937b7ba1f60d11b6020830152565b90916004939261ffff60f01b168252601d60f91b91826002820152612f638251809360206003850191016101fc565b01906003820152612f7d82518093602086850191016101fc565b010190565b60408051655461626c657360501b66746273746f726560c81b0160208201908152634d6f627360601b631d18955160e21b0182840181905283835296979295949291612fcd816107a4565b5190205f80516020615661833981519152185490612fe961500d565b905f5b8251811015613097576130206130136130058386611007565b516001600160581b03191690565b6001600160581b03191690565b6001808260581c1614613037575b50600101612fec565b60601c90813b1561018a575f888c9388838b61306a8f8c9051998a97889687956315c19b2760e21b8752600487016148cc565b03925af1918215611aaf57600192613084575b509061302e565b80611aa9613091926107bf565b5f61307d565b50965f805160206156818339815191528751806130b78c8a898b8561489e565b0390a26130d26130c685614681565b845160208601916154d0565b60ff808360e01c168061317e575b50505f5b8151811015613173576130fd6130136130058385611007565b6002808260581c1614613114575b506001016130e4565b60601c90813b1561018a575f878b9387838a6131468a8f51998a9788968795635b28cdaf60e01b8752600487016148cc565b03925af1918215611aaf57600192613160575b509061310b565b80611aa961316d926107bf565b5f613159565b505050505050509050565b9690989295949385613192869a949a614cd1565b555f96602085015b8b8916908a8210156131e4576131db8d92826131d660019464ffffffffff8f8f908f906131c69161450a565b956028026038011c1680946154d0565b610fed565b9901169761319a565b5050939950939495509550955f806130e0565b60408051655461626c657360501b66746273746f726560c81b0160208201908152672837b9b4ba34b7b760411b631d18955160e21b018284018190528383529295929491613244816107a4565b5190205f805160206156618339815191521854916132606150ae565b905f5b82518110156132ee5761327c6130136130058386611007565b6001808260581c1614613293575b50600101613263565b60601c90813b1561018a5788516315c19b2760e21b8152915f9083908183816132c18c8c8f60048501614927565b03925af1918215611aaf576001926132db575b509061328a565b80611aa96132e8926107bf565b5f6132d4565b50945f8051602061568183398151915287518061330c868983614862565b0390a261332761331b856146c0565b835160208501916154d0565b60ff808460e01c16806133cd575b50505f5b81518110156133c4576133526130136130058385611007565b6002808260581c1614613369575b50600101613339565b60601c90813b1561018a578751635b28cdaf60e01b8152915f9083908183816133978b8b8e60048501614927565b03925af1918215611aaf576001926133b1575b5090613360565b80611aa96133be926107bf565b5f6133aa565b50505050509050565b5f6133d787614d31565b555f60805b82848316106133ec575050613335565b60018161340386936133fe868d61452f565b615485565b920116906133dc565b60408051655461626c657360501b66746273746f726560c81b01602082019081526453686f707360581b631d18955160e21b0182840181905283835296979295949291613458816107a4565b5190205f80516020615661833981519152185490613474615153565b905f5b8251811015613507576134906130136130058386611007565b6001808260581c16146134a7575b50600101613477565b60601c90813b1561018a575f888c9388838b6134da8f8c9051998a97889687956315c19b2760e21b875260048701614984565b03925af1918215611aaf576001926134f4575b509061349e565b80611aa9613501926107bf565b5f6134ed565b50965f805160206156818339815191528751806135278c8a898b8561489e565b0390a26135366130c6856146d5565b60ff808360e01c16806135d7575b50505f5b8151811015613173576135616130136130058385611007565b6002808260581c1614613578575b50600101613548565b60601c90813b1561018a575f878b9387838a6135aa8a8f51998a9788968795635b28cdaf60e01b875260048701614984565b03925af1918215611aaf576001926135c4575b509061356f565b80611aa96135d1926107bf565b5f6135bd565b96909892959493856135eb869a949a614d95565b555f96602085015b8b8916908a8210156136285761361f8d92826131d660019464ffffffffff8f8f908f906131c691614554565b990116976135f3565b5050939950939495509550955f80613544565b60408051655461626c657360501b66746273746f726560c81b0160208201908152674d6f62537461747360401b631d18955160e21b018284018190528383529697929594929161368a816107a4565b5190205f805160206156618339815191521854906136a66151f5565b905f5b8251811015613739576136c26130136130058386611007565b6001808260581c16146136d9575b506001016136a9565b60601c90813b1561018a575f888c9388838b61370c8f8c9051998a97889687956315c19b2760e21b8752600487016149ba565b03925af1918215611aaf57600192613726575b50906136d0565b80611aa9613733926107bf565b5f61371f565b50965f805160206156818339815191528751806137598c8a898b8561489e565b0390a26137686130c6856146ea565b60ff808360e01c1680613809575b50505f5b8151811015613173576137936130136130058385611007565b6002808260581c16146137aa575b5060010161377a565b60601c90813b1561018a575f878b9387838a6137dc8a8f51998a9788968795635b28cdaf60e01b8752600487016149ba565b03925af1918215611aaf576001926137f6575b50906137a1565b80611aa9613803926107bf565b5f6137ef565b969098929594938561381d869a949a614daa565b555f96602085015b8b8916908a82101561385a576138518d92826131d660019464ffffffffff8f8f908f906131c6916145c4565b99011697613825565b5050939950939495509550955f80613776565b60408051655461626c657360501b66746273746f726560c81b016020820190815264537461747360581b631d18955160e21b0182840181905283835292959294916138b7816107a4565b5190205f805160206156618339815191521854916138d361529a565b905f5b8251811015613961576138ef6130136130058386611007565b6001808260581c1614613906575b506001016138d6565b60601c90813b1561018a5788516315c19b2760e21b8152915f9083908183816139348c8c8f600485016149f3565b03925af1918215611aaf5760019261394e575b50906138fd565b80611aa961395b926107bf565b5f613947565b50945f8051602061568183398151915287518061397f868983614862565b0390a261398e61331b856146ab565b60ff808460e01c1680613a2b575b50505f5b81518110156133c4576139b96130136130058385611007565b6002808260581c16146139d0575b506001016139a0565b60601c90813b1561018a578751635b28cdaf60e01b8152915f9083908183816139fe8b8b8e600485016149f3565b03925af1918215611aaf57600192613a18575b50906139c7565b80611aa9613a25926107bf565b5f613a11565b5f613a3587614dbf565b555f60805b8284831610613a4a57505061399c565b600181613a5c86936133fe868d614637565b92011690613a3a565b919091613a7181614ca7565b5464ffffffffff8160381c16613a88855182610fed565b8181141594908580613c72575b613c4657613aa39084615583565b90613aac614e64565b915f5b8351811015613b3e57613ac86130136130058387611007565b6010808260581c1614613adf575b50600101613aaf565b60601c90813b1561018a575f878b9388838c613b1160405198899687958694630abd6b4560e31b865260048601614a3f565b03925af1918215611aaf57600192613b2b575b5090613ad6565b80611aa9613b38926107bf565b5f613b24565b506040805192979195509392916a135bd89cd09e53195d995b602a1b631d18955160e21b01905f805160206156218339815191529080613b818c8a898d85614ae1565b0390a2613c36575b613b9c8783613b97886144bb565b61560f565b5f5b8151811015613c2c57613bb76130136130058385611007565b6020808260581c1614613bce575b50600101613b9e565b60601c90813b1561018a575f868a9386838b613bff8b5198899687958694636358453360e01b865260048601614a3f565b03925af1918215611aaf57600192613c19575b5090613bc5565b80611aa9613c26926107bf565b5f613c12565b5050505050509050565b83613c4086614ca7565b55613b89565b604051632994042d60e21b815264ffffffffff8416600482018190525f60248301526044820152606490fd5b5082613c8a613c8082614a2c565b64ffffffffff1690565b1415613a95565b919091613c9d81614cbc565b5464ffffffffff8160381c16613cb4855182610fed565b8181141594908580613e59575b613c4657613ccf9084615583565b90613cd8614f63565b915f5b8351811015613d6a57613cf46130136130058387611007565b6010808260581c1614613d0b575b50600101613cdb565b60601c90813b1561018a575f878b9388838c613d3d60405198899687958694630abd6b4560e31b865260048601614aa3565b03925af1918215611aaf57600192613d57575b5090613d02565b80611aa9613d64926107bf565b5f613d50565b506040805192979195509392915f805160206156e1833981519152905f805160206156218339815191529080613da38c8a898d85614ae1565b0390a2613e49575b613db98783613b97886144e6565b5f5b8151811015613c2c57613dd46130136130058385611007565b6020808260581c1614613deb575b50600101613dbb565b60601c90813b1561018a575f868a9386838b613e1c8b5198899687958694636358453360e01b865260048601614aa3565b03925af1918215611aaf57600192613e36575b5090613de2565b80611aa9613e43926107bf565b5f613e2f565b83613e5386614cbc565b55613dab565b5082613e67613c8082614a2c565b1415613cc1565b80518060051b60209180820460201481151715610e925790604051936020850191601f19603f8288010116604052855260205f9101905b838110613eb457505050505090565b815183529184019190840190600101613ea5565b61049f9064ffffffffff613f035f805160206156a18339815191526040516020810190613ef9816119008885614260565b5190201892614c7d565b5460381c1690614b90565b61049f9064ffffffffff613f03613f24836144e6565b92614cbc565b9190613f35836146ff565b91613f3e61533c565b905f5b8251811015613fca57613f5a6130136130058386611007565b9060049182808260581c1614613f76575b506001915001613f41565b60601c803b1561018a57855f918983613fa4966040519788958694859363964f667d60e01b85528401614c06565b03925af1918215611aaf5760019215613f6b5780611aa9613fc4926107bf565b5f613f6b565b50604080519194909392916140139184916614dc185ddb9959604a1b631d18955160e21b01905f80516020615641833981519152908061400b868d83614bdb565b0390a2615600565b5f5b815181101561409f5761402e6130136130058385611007565b6008808260581c1614614045575b50600101614015565b60601c90813b1561018a57845163a8ba872160e01b8152915f9083908183816140728a8e60048401614c06565b03925af1918215611aaf5760019261408c575b509061403c565b80611aa9614099926107bf565b5f614085565b505050509050565b91906140b283614762565b916140bb6153e0565b905f5b8251811015614147576140d76130136130058386611007565b9060049182808260581c16146140f3575b5060019150016140be565b60601c803b1561018a57855f918983614121966040519788958694859363964f667d60e01b85528401614c4b565b03925af1918215611aaf57600192156140e85780611aa9614141926107bf565b5f6140e8565b506040805191949093929161418991849167436f756e7465727360401b631d18955160e21b01905f80516020615641833981519152908061400b868d83614bdb565b5f5b815181101561409f576141a46130136130058385611007565b6008808260581c16146141bb575b5060010161418b565b60601c90813b1561018a57845163a8ba872160e01b8152915f9083908183816141e88a8e60048401614c4b565b03925af1918215611aaf57600192614202575b50906141b2565b80611aa961420f926107bf565b5f6141fb565b6953746f7265486f6f6b7360301b66746273746f726560c81b01815281516020918201928201915f5b82811061424c575050505090565b83518552938101939281019260010161423e565b634d6f627360601b631d18955160e21b01815281516020918201928201915f5b82811061428e575050505090565b835185529381019392810192600101614280565b6a135bd89cd09e53195d995b602a1b631d18955160e21b01815281516020918201928201915f5b8281106142d7575050505090565b8351855293810193928101926001016142c9565b5f805160206156e1833981519152815281516020918201928201915f5b828110614316575050505090565b835185529381019392810192600101614308565b634d6f627360601b631d18955160e21b01815281516020918201928201915f5b828110614358575050505090565b83518552938101939281019260010161434a565b672837b9b4ba34b7b760411b631d18955160e21b01815281516020918201928201915f5b82811061439e575050505090565b835185529381019392810192600101614390565b64537461747360581b631d18955160e21b01815281516020918201928201915f5b8281106143e1575050505090565b8351855293810193928101926001016143d3565b6453686f707360581b631d18955160e21b01815281516020918201928201915f5b828110614424575050505090565b835185529381019392810192600101614416565b674d6f62537461747360401b631d18955160e21b01815281516020918201928201915f5b82811061446a575050505090565b83518552938101939281019260010161445c565b905f805160206156a1833981519152916040516144a381611900602082019485614260565b51902060f89190911b6001600160f81b031916181890565b5f805160206156a1833981519152906040516144df816119006020820194856142a2565b5190201890565b5f805160206156a1833981519152906040516144df816119006020820194856142eb565b905f805160206156a1833981519152916040516144a38161190060208201948561432a565b905f805160206156a1833981519152916040516144a38161190060208201948561436c565b604080516453686f707360581b631d18955160e21b0160208083019182528451938301969594919391810191905f5b8281106145b057505050506144a3815f805160206156a1833981519152959603601f1981018352826107ed565b835189529781019792810192600101614583565b60408051674d6f62537461747360401b631d18955160e21b0160208083019182528451938301969594919391810191905f5b82811061462357505050506144a3815f805160206156a1833981519152959603601f1981018352826107ed565b8351895297810197928101926001016145f6565b905f805160206156a1833981519152916040516144a3816119006020820194856143b2565b9061081d6001600160801b03831661467381612b4e565b93602085019060801c614e20565b6040516146968161190060208201948561432a565b5190205f805160206156618339815191521890565b604051614696816119006020820194856143b2565b6040516146968161190060208201948561436c565b604051614696816119006020820194856143f5565b60405161469681611900602082019485614438565b60405160208160208101936614dc185ddb9959604a1b631d18955160e21b0185526040820160208251919201935f5b82811061474b57505050614696925003601f1981018352826107ed565b85518452948101948694509281019260010161472e565b604051602081602081019367436f756e7465727360401b631d18955160e21b0185526040820160208251919201935f5b8281106147af57505050614696925003601f1981018352826107ed565b855184529481019486945092810192600101614792565b6147ce61153c565b90815115610b01576020820152805160011015610b01576001600160a01b0390911660408201526147fe90612641565b60f81c90565b5f5b60108110614835575b6040516001600160801b0319909216602083015260108252614830826107d2565b815290565b6001600160801b03198216600382901b1b6001600160f81b0319161561485d57600101614806565b61480f565b9061049f9261487c61488a92608085526080850190610939565b90838203602085015261025a565b905f6040820152606081830391015261021d565b9061049f949261487c6148b992608085526080850190610939565b926040820152606081840391015261025a565b95949361490f6149229361490160a09694634d6f627360601b631d18955160e21b018b5260c060208c015260c08b0190610939565b9089820360408b015261025a565b916060880152868203608088015261025a565b930152565b672837b9b4ba34b7b760411b631d18955160e21b01815260c0602082018190529094939260a09261492292614971929161496391890190610939565b90878203604089015261025a565b5f6060870152858103608087015261021d565b95949361490f6149229361490160a096946453686f707360581b631d18955160e21b018b5260c060208c015260c08b0190610939565b95949361490f6149229361490160a09694674d6f62537461747360401b631d18955160e21b018b5260c060208c015260c08b0190610939565b64537461747360581b631d18955160e21b01815260c0602082018190529094939260a09261492292614971929161496391890190610939565b9064ffffffffff809216918211610e9257565b6a135bd89cd09e53195d995b602a1b631d18955160e21b01815260e06020820181905261049f959394919264ffffffffff91614a7e9190850190610939565b945f60408501521660608301525f608083015260a082015260c081840391015261025a565b909264ffffffffff614a7e61049f9694956f456e7469746965734174506f73697469631d18955160e21b01855260e0602086015260e0850190610939565b909265ffffffffffff614b0161049f96949560c0855260c0850190610939565b945f60208501521660408301525f6060830152608082015260a081840391015261025a565b604051906020601f199182604085011660405260018085526020850193600192935b80841015614b7b5750505080614b5f575b50505090565b5f199060031b1c908183511691199054161790525f8080614b59565b84548652948501949382019392810192614b48565b60408051601f19603f85830101811690925283815292602080850193925b81831015614bc357505080614b5f5750505090565b81600185839495979654875201940194019190614bae565b9091614bf261049f93606084526060840190610939565b915f6020820152604081840391015261025a565b6614dc185ddb9959604a1b631d18955160e21b01815260806020820181905261049f939192614c3791840190610939565b915f6040820152606081840391015261025a565b67436f756e7465727360401b631d18955160e21b01815260806020820181905261049f939192614c3791840190610939565b604051614c9281611900602082019485614260565b5190205f805160206156c18339815191521890565b604051614c92816119006020820194856142a2565b604051614c92816119006020820194856142eb565b6040516020816020810193634d6f627360601b631d18955160e21b0185526040820160208251919201935f5b828110614d1a57505050614c92925003601f1981018352826107ed565b855184529481019486945092810192600101614cfd565b6040516020816020810193672837b9b4ba34b7b760411b631d18955160e21b0185526040820160208251919201935f5b828110614d7e57505050614c92925003601f1981018352826107ed565b855184529481019486945092810192600101614d61565b604051614c92816119006020820194856143f5565b604051614c9281611900602082019485614438565b604051602081602081019364537461747360581b631d18955160e21b0185526040820160208251919201935f5b828110614e0957505050614c92925003601f1981018352826107ed565b855184529481019486945092810192600101614dec565b9291905b602090818310614e43578451815293810193601f199092019101614e24565b9293919050801561195e575f199060031b1c90818351169119905116179052565b614e6c611522565b805115610b0157614f15611d566020926a135bd89cd09e53195d995b602a1b631d18955160e21b018482015264ffffffffff604051915f805160206156a183398151915286840184614ebe8483614215565b0394614ed2601f19968781018352826107ed565b5190201892614ef86040519182614eec8a82019586614215565b039081018352826107ed565b5190205f805160206156c1833981519152185460381c1690614b90565b8060801c916015809260018060801b0316049060405193818501828460051b8701016040528386525f5b848110614f4f5750505050505090565b825182529185019190830190600101614f3f565b614f6b611522565b805115610b0157614fbf611d566020926f456e7469746965734174506f73697469631d18955160e21b018482015264ffffffffff604051915f805160206156a183398151915286840184614ebe8483614215565b8060801c916015809260018060801b0316049060405193818501828460051b8701016040528386525f5b848110614ff95750505050505090565b825182529185019190830190600101614fe9565b615015611522565b805115610b0157615060611d56602092634d6f627360601b631d18955160e21b018482015264ffffffffff604051915f805160206156a183398151915286840184614ebe8483614215565b8060801c916015809260018060801b0316049060405193818501828460051b8701016040528386525f5b84811061509a5750505050505090565b82518252918501919083019060010161508a565b6150b6611522565b805115610b0157615105611d56602092672837b9b4ba34b7b760411b631d18955160e21b018482015264ffffffffff604051915f805160206156a183398151915286840184614ebe8483614215565b8060801c916015809260018060801b0316049060405193818501828460051b8701016040528386525f5b84811061513f5750505050505090565b82518252918501919083019060010161512f565b61515b611522565b805115610b01576151a7611d566020926453686f707360581b631d18955160e21b018482015264ffffffffff604051915f805160206156a183398151915286840184614ebe8483614215565b8060801c916015809260018060801b0316049060405193818501828460051b8701016040528386525f5b8481106151e15750505050505090565b8251825291850191908301906001016151d1565b6151fd611522565b805115610b015761524c611d56602092674d6f62537461747360401b631d18955160e21b018482015264ffffffffff604051915f805160206156a183398151915286840184614ebe8483614215565b8060801c916015809260018060801b0316049060405193818501828460051b8701016040528386525f5b8481106152865750505050505090565b825182529185019190830190600101615276565b6152a2611522565b805115610b01576152ee611d5660209264537461747360581b631d18955160e21b018482015264ffffffffff604051915f805160206156a183398151915286840184614ebe8483614215565b8060801c916015809260018060801b0316049060405193818501828460051b8701016040528386525f5b8481106153285750505050505090565b825182529185019190830190600101615318565b615344611522565b805115610b0157615392611d566020926614dc185ddb9959604a1b631d18955160e21b018482015264ffffffffff604051915f805160206156a183398151915286840184614ebe8483614215565b8060801c916015809260018060801b0316049060405193818501828460051b8701016040528386525f5b8481106153cc5750505050505090565b8251825291850191908301906001016153bc565b6153e8611522565b805115610b0157615437611d5660209267436f756e7465727360401b631d18955160e21b018482015264ffffffffff604051915f805160206156a183398151915286840184614ebe8483614215565b8060801c916015809260018060801b0316049060405193818501828460051b8701016040528386525f5b8481106154715750505050505090565b825182529185019190830190600101615461565b9190915f905b6020908183106154ab5784518155930192601f199091019060010161548b565b9293919050806154ba57505050565b5f199060031b1c90818354169119905116179055565b9291926020908183106154ab5784518155930192601f199091019060010161548b565b909392919380615522575b509290926020908183106154ab5784518155930192601f199091019060010161548b565b6020811015615573575b80156154fe5791939082602003908360031b5f198460031b1c19811c908751901c90801983541691161781558183111561409f57600101940191601f19910101925f6154fe565b90601f908260051c01911661552c565b64ffffffffff8083116155e75766ffffffffffffff821690603883901c16838181106155dd570301915b64ffffffffff60381b60389190911b1664ffffffffff60381b19929092166001600160601b031991909116171790565b90039003916155ad565b604051637149a3c160e01b815260048101849052602490fd5b815161081d92602001916154d0565b825161081d936020019290916154f356fefe158a7adba34e256807c8a149028d3162918713c3838afc643ce9f96716ebfd8c0b5119d4cec7b284c6b1b39252a03d1e2f2d7451a5895562524c113bb952be86425bff6b57326c7859e89024fe4f238ca327a1ae4a230180dd2f0e88aaa7d98dbb3a9672eebfd3773e72dd9c102393436816d832c7ba9e1e1ac8fcadcac7a93b4102da22e32d82fc925482184f16c09fd4281692720b87d124aef6da48a0f114e2fcc58e58e68ec7edc30c8d50dccc3ce2714a623ec81f46b6a63922d7656974625544000000000000000000000000456e7469746965734174506f73697469","linkReferences":{}},"methodIdentifiers":{"_msgSender()":"119df25f","_msgValue()":"45ec9354","_world()":"e1af802c","createMob(uint8,bytes,string)":"c4cc3db0","createMobs(uint8[],bytes[],string[])":"6f1b80e1","getMob(bytes32)":"27bdc7b5","getMob(uint256)":"5bbee18c","getMobId(bytes32)":"ba5d4ff1","getMobPositionFromId(bytes32)":"10407e74","getMonsterCombatStats(bytes32)":"30feba9c","getMonsterStats(uint256)":"c841df4f","getNpcStats(bytes32)":"42952c5f","getNpcStats(uint256)":"1462e019","getSpawnCounter(bytes32)":"aca6f56e","isValidMob(bytes32)":"ddbf34d0","spawnMob(uint256,uint16,uint16)":"cfff24b4","spawnMobs(uint256[],uint16,uint16)":"2116aaef","supportsInterface(bytes4)":"01ffc9a7"},"id":515}