{"abi":[{"type":"constructor","inputs":[{"name":"_world","type":"address","internalType":"address"}],"stateMutability":"nonpayable"},{"type":"function","name":"onAfterCallSystem","inputs":[{"name":"","type":"address","internalType":"address"},{"name":"","type":"bytes32","internalType":"ResourceId"},{"name":"","type":"bytes","internalType":"bytes"}],"outputs":[],"stateMutability":"nonpayable"},{"type":"function","name":"onBeforeCallSystem","inputs":[{"name":"","type":"address","internalType":"address"},{"name":"","type":"bytes32","internalType":"ResourceId"},{"name":"callData","type":"bytes","internalType":"bytes"}],"outputs":[],"stateMutability":"view"},{"type":"function","name":"supportsInterface","inputs":[{"name":"interfaceId","type":"bytes4","internalType":"bytes4"}],"outputs":[{"name":"","type":"bool","internalType":"bool"}],"stateMutability":"view"},{"type":"error","name":"MustUnequipItem","inputs":[]}],"bytecode":{"object":"0x60803461007357601f6109ed38819003918201601f19168301916001600160401b038311848410176100775780849260209460405283398101031261007357516001600160a01b03811690819003610073575f80546001600160a01b031916919091179055604051610961908161008c8239f35b5f80fd5b634e487b7160e01b5f52604160045260245ffdfe6080604081815260049182361015610015575f80fd5b5f3560e01c90816301ffc9a71461075857508063973d8f991461071f5763c332303114610040575f80fd5b34610240576003196060368201126102405761005a6107aa565b506044803591906001600160401b0380841161024057366023850112156102405783860135818111610240576024938186019185830194368611610240576001600160e01b0319808989013581811690858e80821061070a575b505050905016637921219560e11b81145f146103025750508811610240578560a092030112610240576100e96028850161084c565b906100f66048860161084c565b5060688501359260a8860135918211610240576028610117928701016107f7565b5060018060a01b03809116815f5416918651630e8b242360e21b8152828982015260209586828281885afa9182156102f8579086915f936102c5575b50895192633939f1cd60e11b84528b8401528201528581604481875afa9081156102bb575f9161028e575b5061018f575b50505050505050505b005b848893885194858092634cbfc4bd60e11b82525afa92831561028457918593916101d595935f93610255575b508851809681958294627eeac760e11b84528d8401610925565b0392165afa91821561024b575f92610218575b50506101fb906088600193013590610940565b1061020b57808080808080610184565b5163055ab7ab60e51b8152fd5b90809250813d8311610244575b61022f81836107c0565b8101031261024057518160886101e8565b5f80fd5b503d610225565b84513d5f823e3d90fd5b610276919350853d871161027d575b61026e81836107c0565b810190610906565b915f6101bb565b503d610264565b87513d5f823e3d90fd5b6102ae9150863d88116102b4575b6102a681836107c0565b8101906108ee565b5f61017e565b503d61029c565b88513d5f823e3d90fd5b88809294508193503d83116102f1575b6102df81836107c0565b8101031261024057859051915f610153565b503d6102d5565b89513d5f823e3d90fd5b637f4c824d60e197939597969294961b811480156106fa575b156104b8575050505086116102405783608092030112610240576103416028830161084c565b61034d6048840161084c565b505f548451630e8b242360e21b81526001600160a01b039283168782018190526020946068870135949384169391929086828281885afa9182156102f8579086915f93610485575b50895192633939f1cd60e11b84528b8401528201528581604481875afa9081156102bb575f91610468575b506103c757005b848893885194858092634cbfc4bd60e11b82525afa928315610284579185939161040c95935f9361025557508851809681958294627eeac760e11b84528d8401610925565b0392165afa91821561024b575f92610439575b5050610432906088600193013590610940565b1061020b57005b90809250813d8311610461575b61045081836107c0565b81010312610240575181608861041f565b503d610446565b61047f9150863d88116102b4576102a681836107c0565b5f6103c0565b88809294508193503d83116104b1575b61049f81836107c0565b8101031261024057859051915f610395565b503d610495565b631759616b60e19a99989a9794979693969592951b146104d457005b89116102405785608092030112610240576104f16028850161084c565b916104fe6048860161084c565b5060688501358281116102405781602861051a92880101610860565b946088810135928311610240576105349201602801610860565b5f548551630e8b242360e21b81526001600160a01b03938416898201819052929560209590928516919086828b81865afa9182156102f8575f926106cb575b505f5b845181101561018d578b61058a82876108c6565b518b51633939f1cd60e11b81529182018590528c82015288818481885afa908115610685575f916106ae575b506105c4575b600101610576565b8951634cbfc4bd60e11b815288818e81885afa908115610685578b610615928f8b8b918e955f9461068f575b506105fb888d6108c6565b519451627eeac760e11b8152968795869485938401610925565b0392165afa908115610685575f91610656575b50610640600191610639848d6108c6565b5190610940565b10156105bc57895163055ab7ab60e51b81528c90fd5b90508881813d831161067e575b61066d81836107c0565b810103126102405751610640610628565b503d610663565b8b513d5f823e3d90fd5b6106a7919450863d881161027d5761026e81836107c0565b925f6105f0565b6106c59150893d8b116102b4576102a681836107c0565b5f6105b6565b9091508681813d83116106f3575b6106e381836107c0565b810103126102405751905f610573565b503d6106d9565b50630febdd4960e01b811461031b565b849293500360031b1b161681905f858e6100b4565b8234610240576060366003190112610240576107396107aa565b50604435906001600160401b0382116102405761018d913691016107f7565b833461024057602036600319011261024057359063ffffffff60e01b821680920361024057602091630a81f7f560e31b8114908115610799575b5015158152f35b6301ffc9a760e01b14905083610792565b600435906001600160a01b038216820361024057565b601f909101601f19168101906001600160401b038211908210176107e357604052565b634e487b7160e01b5f52604160045260245ffd5b81601f82011215610240578035906001600160401b0382116107e3576040519261082b601f8401601f1916602001856107c0565b8284526020838301011161024057815f926020809301838601378301015290565b35906001600160a01b038216820361024057565b81601f82011215610240578035916020916001600160401b0384116107e3578360051b9060405194610894858401876107c0565b85528380860192820101928311610240578301905b8282106108b7575050505090565b813581529083019083016108a9565b80518210156108da5760209160051b010190565b634e487b7160e01b5f52603260045260245ffd5b90816020910312610240575180151581036102405790565b9081602091031261024057516001600160a01b03811681036102405790565b6001600160a01b039091168152602081019190915260400190565b9190820391821161094d57565b634e487b7160e01b5f52601160045260245ffd","linkReferences":{}},"methodIdentifiers":{"onAfterCallSystem(address,bytes32,bytes)":"973d8f99","onBeforeCallSystem(address,bytes32,bytes)":"c3323031","supportsInterface(bytes4)":"01ffc9a7"},"id":231}