{"abi":[{"type":"function","name":"_msgSender","inputs":[],"outputs":[{"name":"sender","type":"address","internalType":"address"}],"stateMutability":"view"},{"type":"function","name":"_msgValue","inputs":[],"outputs":[{"name":"value","type":"uint256","internalType":"uint256"}],"stateMutability":"pure"},{"type":"function","name":"_world","inputs":[],"outputs":[{"name":"","type":"address","internalType":"address"}],"stateMutability":"view"},{"type":"function","name":"enterGame","inputs":[{"name":"characterId","type":"uint256","internalType":"uint256"}],"outputs":[],"stateMutability":"nonpayable"},{"type":"function","name":"getCharacterStats","inputs":[{"name":"characterId","type":"uint256","internalType":"uint256"}],"outputs":[{"name":"","type":"tuple","internalType":"struct CharacterStatsData","components":[{"name":"strength","type":"uint256","internalType":"uint256"},{"name":"agility","type":"uint256","internalType":"uint256"},{"name":"intelligence","type":"uint256","internalType":"uint256"},{"name":"hitPoints","type":"uint256","internalType":"uint256"},{"name":"damageTaken","type":"int256","internalType":"int256"},{"name":"experience","type":"uint256","internalType":"uint256"}]}],"stateMutability":"view"},{"type":"function","name":"getClass","inputs":[{"name":"characterId","type":"uint256","internalType":"uint256"}],"outputs":[{"name":"_class","type":"uint8","internalType":"enum Classes"}],"stateMutability":"view"},{"type":"function","name":"getCurrentLevel","inputs":[{"name":"experience","type":"uint256","internalType":"uint256"}],"outputs":[{"name":"currentLevel","type":"uint256","internalType":"uint256"}],"stateMutability":"view"},{"type":"function","name":"getExperience","inputs":[{"name":"characterId","type":"uint256","internalType":"uint256"}],"outputs":[{"name":"","type":"uint256","internalType":"uint256"}],"stateMutability":"view"},{"type":"function","name":"getName","inputs":[{"name":"characterId","type":"uint256","internalType":"uint256"}],"outputs":[{"name":"_name","type":"bytes32","internalType":"bytes32"}],"stateMutability":"view"},{"type":"function","name":"getOwner","inputs":[{"name":"characterId","type":"uint256","internalType":"uint256"}],"outputs":[{"name":"","type":"address","internalType":"address"}],"stateMutability":"view"},{"type":"function","name":"mintCharacter","inputs":[{"name":"account","type":"address","internalType":"address"},{"name":"name","type":"bytes32","internalType":"bytes32"},{"name":"tokenUri","type":"string","internalType":"string"}],"outputs":[{"name":"characterId","type":"uint256","internalType":"uint256"}],"stateMutability":"nonpayable"},{"type":"function","name":"rollStats","inputs":[{"name":"userRandomNumber","type":"bytes32","internalType":"bytes32"},{"name":"characterId","type":"uint256","internalType":"uint256"},{"name":"class","type":"uint8","internalType":"enum Classes"}],"outputs":[],"stateMutability":"payable"},{"type":"function","name":"supportsInterface","inputs":[{"name":"interfaceId","type":"bytes4","internalType":"bytes4"}],"outputs":[{"name":"","type":"bool","internalType":"bool"}],"stateMutability":"pure"},{"type":"event","name":"Store_SpliceDynamicData","inputs":[{"name":"tableId","type":"bytes32","indexed":true,"internalType":"ResourceId"},{"name":"keyTuple","type":"bytes32[]","indexed":false,"internalType":"bytes32[]"},{"name":"dynamicFieldIndex","type":"uint8","indexed":false,"internalType":"uint8"},{"name":"start","type":"uint48","indexed":false,"internalType":"uint48"},{"name":"deleteCount","type":"uint40","indexed":false,"internalType":"uint40"},{"name":"encodedLengths","type":"bytes32","indexed":false,"internalType":"EncodedLengths"},{"name":"data","type":"bytes","indexed":false,"internalType":"bytes"}],"anonymous":false},{"type":"event","name":"Store_SpliceStaticData","inputs":[{"name":"tableId","type":"bytes32","indexed":true,"internalType":"ResourceId"},{"name":"keyTuple","type":"bytes32[]","indexed":false,"internalType":"bytes32[]"},{"name":"start","type":"uint48","indexed":false,"internalType":"uint48"},{"name":"data","type":"bytes","indexed":false,"internalType":"bytes"}],"anonymous":false},{"type":"error","name":"EncodedLengths_InvalidLength","inputs":[{"name":"length","type":"uint256","internalType":"uint256"}]},{"type":"error","name":"Slice_OutOfBounds","inputs":[{"name":"data","type":"bytes","internalType":"bytes"},{"name":"start","type":"uint256","internalType":"uint256"},{"name":"end","type":"uint256","internalType":"uint256"}]},{"type":"error","name":"Store_IndexOutOfBounds","inputs":[{"name":"length","type":"uint256","internalType":"uint256"},{"name":"accessedIndex","type":"uint256","internalType":"uint256"}]},{"type":"error","name":"Store_InvalidResourceType","inputs":[{"name":"expected","type":"bytes2","internalType":"bytes2"},{"name":"resourceId","type":"bytes32","internalType":"ResourceId"},{"name":"resourceIdString","type":"string","internalType":"string"}]},{"type":"error","name":"Store_InvalidSplice","inputs":[{"name":"startWithinField","type":"uint40","internalType":"uint40"},{"name":"deleteCount","type":"uint40","internalType":"uint40"},{"name":"fieldLength","type":"uint40","internalType":"uint40"}]},{"type":"error","name":"World_AccessDenied","inputs":[{"name":"resource","type":"string","internalType":"string"},{"name":"caller","type":"address","internalType":"address"}]},{"type":"error","name":"World_FunctionSelectorNotFound","inputs":[{"name":"functionSelector","type":"bytes4","internalType":"bytes4"}]},{"type":"error","name":"World_ResourceNotFound","inputs":[{"name":"resourceId","type":"bytes32","internalType":"ResourceId"},{"name":"resourceIdString","type":"string","internalType":"string"}]}],"bytecode":{"object":"0x608060405234801561001057600080fd5b50613be4806100206000396000f3fe6080604052600436106100d25760003560e01c8063512d62df1161007f578063b1ca210611610059578063b1ca21061461027a578063c41a360a1461029a578063e1af802c146102ba578063e429766e146102cf57600080fd5b8063512d62df146101c15780636b8ff574146101ee5780636fe0c0461461020e57600080fd5b80633d0854ae116100b05780633d0854ae1461016757806343d6582b1461018757806345ec9354146101a957600080fd5b806301ffc9a7146100d7578063119df25f1461010c578063143f302114610139575b600080fd5b3480156100e357600080fd5b506100f76100f23660046132f1565b6102e2565b60405190151581526020015b60405180910390f35b34801561011857600080fd5b5061012161037b565b6040516001600160a01b039091168152602001610103565b34801561014557600080fd5b506101596101543660046133a2565b61038a565b604051908152602001610103565b34801561017357600080fd5b5061015961018236600461344a565b610554565b34801561019357600080fd5b506101a76101a236600461344a565b6105d2565b005b3480156101b557600080fd5b5036601f190135610159565b3480156101cd57600080fd5b506101e16101dc36600461344a565b610704565b6040516101039190613497565b3480156101fa57600080fd5b5061015961020936600461344a565b61070f565b34801561021a57600080fd5b5061022e61022936600461344a565b61071a565b6040516101039190600060c082019050825182526020830151602083015260408301516040830152606083015160608301526080830151608083015260a083015160a083015292915050565b34801561028657600080fd5b5061015961029536600461344a565b61075c565b3480156102a657600080fd5b506101216102b536600461344a565b610767565b3480156102c657600080fd5b50610121610772565b6101a76102dd3660046134aa565b61077c565b60007fffffffff0000000000000000000000000000000000000000000000000000000082167fb5dee12700000000000000000000000000000000000000000000000000000000148061037557507fffffffff0000000000000000000000000000000000000000000000000000000082167f01ffc9a700000000000000000000000000000000000000000000000000000000145b92915050565b60006103856108f4565b905090565b6000610394610926565b905061039e610772565b6001600160a01b0316633ae7af086103d57f4368617261637465727300000000000000000000000000000000000000000000610955565b6040516001600160a01b03881660248201526044810185905260640160408051601f198184030181529181526020820180517bffffffffffffffffffffffffffffffffffffffffffffffffffffffff167f40c10f1900000000000000000000000000000000000000000000000000000000179052517fffffffff0000000000000000000000000000000000000000000000000000000060e085901b168152610481929190600401613537565b6000604051808303816000875af11580156104a0573d6000803e3d6000fd5b505050506040513d6000823e601f3d908101601f191682016040526104c89190810190613595565b506104d381856109a2565b6104dc83610a72565b1561052e5760405162461bcd60e51b815260206004820152601360248201527f4e616d6520616c7265616479206578697374730000000000000000000000000060448201526064015b60405180910390fd5b610539836001610b17565b6105438184610bd0565b61054d8183610c52565b9392505050565b60006105606013610c89565b821061056e57506014919050565b60005b60148110156105cc578261058482610c89565b111580156105a35750826105a161059c8360016135e0565b610c89565b115b156105ba576105b38160016135e0565b91506105cc565b806105c4816135f3565b915050610571565b50919050565b6105db81610d05565b6106275760405162461bcd60e51b815260206004820152601260248201527f6e6f7420796f75722063686172616374657200000000000000000000000000006044820152606401610525565b61063081610d31565b1561067d5760405162461bcd60e51b815260206004820152601960248201527f796f75206861766520656e7465726564207468652067616d65000000000000006044820152606401610525565b61068f81674563918244f40000610db1565b610697610772565b6001600160a01b031663ce2d5a9a826040518263ffffffff1660e01b81526004016106c491815260200190565b600060405180830381600087803b1580156106de57600080fd5b505af11580156106f2573d6000803e3d6000fd5b50505050610701816001610e4c565b50565b600061037582610ed3565b600061037582610f6b565b6107536040518060c001604052806000815260200160008152602001600081526020016000815260200160008152602001600081525090565b61037582610feb565b6000610375826110d1565b600061037582611166565b60006103856111f0565b61078582610d31565b156107f85760405162461bcd60e51b815260206004820152602860248201527f796f75206861766520616c72656164792061636365707465642074686973206360448201527f68617261637465720000000000000000000000000000000000000000000000006064820152608401610525565b61080182610d05565b61084d5760405162461bcd60e51b815260206004820152601360248201527f4e6f7420796f7572204368617261637465722e000000000000000000000000006044820152606401610525565b600061085983836111fa565b6108ed84828560405160200161087191815260200190565b60408051601f198184030181529082905261089093929160240161360d565b60408051601f198184030181529190526020810180517bffffffffffffffffffffffffffffffffffffffffffffffffffffffff167fb2aa60a4000000000000000000000000000000000000000000000000000000001790526112b2565b5050505050565b7fffffffffffffffffffffffffffffffffffffffffffffffffffffffffffffffcc36013560601c806109235750335b90565b600080610931611360565b9050600061093e826113c8565b6109499060016135e0565b9050610375828261144d565b60006103757f7379000000000000000000000000000000000000000000000000000000000000837f45524337323153797374656d00000000000000000000000000000000000000006114f5565b604080516001808252818301909252600091602080830190803683370190505090508260001b816000815181106109db576109db613635565b602002602001018181525050610a6d7f746255440000000000000000000000004368617261637465727300000000000060001b82600085604051602001610a4d919060609190911b7fffffffffffffffffffffffffffffffffffffffff00000000000000000000000016815260140190565b60408051601f19818403018152919052663604001401200160c01b61156d565b505050565b604080516001808252818301909252600091829190602080830190803683370190505090508281600081518110610aab57610aab613635565b60209081029190910101526000610b037f746255440000000000000000000000004e616d6545786973747300000000000083837e01010001000000000000000000000000000000000000000000000000000000611622565b9050610b0f8160f81c90565b949350505050565b604080516001808252818301909252600091602080830190803683370190505090508281600081518110610b4d57610b4d613635565b602002602001018181525050610a6d7f746255440000000000000000000000004e616d6545786973747300000000000060001b82600085604051602001610b9b91151560f81b815260010190565b60408051601f198184030181529190527e0101000100000000000000000000000000000000000000000000000000000061156d565b604080516001808252818301909252600091602080830190803683370190505090508260001b81600081518110610c0957610c09613635565b602002602001018181525050610a6d7f746255440000000000000000000000004368617261637465727300000000000060001b82600285604051602001610a4d91815260200190565b610c85610c7e7f43686172616374657273000000000000000000000000000000000000000000006116df565b838361172c565b5050565b604080516001808252818301909252600091829190602080830190803683370190505090508260001b81600081518110610cc557610cc5613635565b60209081029190910101526000610b0f7f746255440000000000000000000000004c6576656c73000000000000000000008383630100080160dd1b611622565b6000610d1082611166565b6001600160a01b0316610d2161037b565b6001600160a01b03161492915050565b604080516001808252818301909252600091829190602080830190803683370190505090508260001b81600081518110610d6d57610d6d613635565b60209081029190910101526000610b037f7462554400000000000000000000000043686172616374657273000000000000836003663604001401200160c01b611622565b610db9611784565b6001600160a01b03166340c10f19610dd084610767565b6040517fffffffff0000000000000000000000000000000000000000000000000000000060e084901b1681526001600160a01b03909116600482015260248101849052604401600060405180830381600087803b158015610e3057600080fd5b505af1158015610e44573d6000803e3d6000fd5b505050505050565b604080516001808252818301909252600091602080830190803683370190505090508260001b81600081518110610e8557610e85613635565b602002602001018181525050610a6d7f746255440000000000000000000000004368617261637465727300000000000060001b82600385604051602001610a4d91151560f81b815260010190565b604080516001808252818301909252600091829190602080830190803683370190505090508260001b81600081518110610f0f57610f0f613635565b60209081029190910101526000610f537f7462554400000000000000000000000043686172616374657273000000000000836001663604001401200160c01b611622565b905060f881901c6002811115610b0f57610b0f613463565b604080516001808252818301909252600091829190602080830190803683370190505090508260001b81600081518110610fa757610fa7613635565b60209081029190910101526000610b0f7f7462554400000000000000000000000043686172616374657273000000000000836002663604001401200160c01b611622565b6110246040518060c001604052806000815260200160008152602001600081526020016000815260200160008152602001600081525090565b604080516001808252818301909252600091602080830190803683370190505090508260001b8160008151811061105d5761105d613635565b6020908102919091010152600080806110b67f7462554400000000000000000000000043686172616374657253746174730000857ec006002020202020200000000000000000000000000000000000000000000061178e565b9250925092506110c783838361185e565b9695505050505050565b604080516001808252818301909252600091829190602080830190803683370190505090508260001b8160008151811061110d5761110d613635565b60209081029190910101526000610b0f7f74625544000000000000000000000000436861726163746572537461747300008360057ec0060020202020202000000000000000000000000000000000000000000000611622565b604080516001808252818301909252600091829190602080830190803683370190505090508260001b816000815181106111a2576111a2613635565b602090810291909101015260006111e57f74625544000000000000000000000000436861726163746572730000000000008383663604001401200160c01b611622565b60601c949350505050565b60006103856118c2565b604080516001808252818301909252600091602080830190803683370190505090508260001b8160008151811061123357611233613635565b6020908102919091010152610a6d7f746255440000000000000000000000004368617261637465727300000000000082600185600281111561127757611277613463565b604051602001610a4d919060f89190911b7fff0000000000000000000000000000000000000000000000000000000000000016815260010190565b60606000806112c86112c38561364b565b611901565b91509150816000801b0361132e576040517ffdde54e20000000000000000000000000000000000000000000000000000000081527fffffffff00000000000000000000000000000000000000000000000000000000600035166004820152602401610525565b6020840180517bffffffffffffffffffffffffffffffffffffffffffffffffffffffff1682179052610b0f82856119d1565b6040805160008082526020820190925260006113be7f74625544000000000000000000000000556c74696d617465446f6d696e696f6e8360027e79070001141414141414000000000000000000000000000000000000000000611622565b60601c9392505050565b60408051600180825281830190925260009182919060208083019080368337019050509050826001600160a01b031660001b8160008151811061140d5761140d613635565b60209081029190910101526000610b0f7f74625544000000000000000000000000436f756e7465727300000000000000008383630100080160dd1b611622565b60408051600180825281830190925260009160208083019080368337019050509050826001600160a01b031660001b8160008151811061148f5761148f613635565b602002602001018181525050610a6d7f74625544000000000000000000000000436f756e74657273000000000000000060001b826000856040516020016114d891815260200190565b60408051601f19818403018152919052630100080160dd1b61156d565b6000611503607060106135e0565b7fffff00000000000000000000000000000000000000000000000000000000000085167dffffffffffffffffffffffffffff00000000000000000000000000000000601086901c16176fffffffffffffffffffffffffffffffff19841690911c1790509392505050565b60006115776118c2565b9050306001600160a01b0382160361159b576115968686868686611aac565b610e44565b6040517f390baae00000000000000000000000000000000000000000000000000000000081526001600160a01b0382169063390baae0906115e890899089908990899089906004016136d7565b600060405180830381600087803b15801561160257600080fd5b505af1158015611616573d6000803e3d6000fd5b50505050505050505050565b60008061162d6118c2565b9050306001600160a01b038216036116535761164b86868686611ac1565b915050610b0f565b6040517f8c364d590000000000000000000000000000000000000000000000000000000081526001600160a01b03821690638c364d599061169e90899089908990899060040161371e565b602060405180830381865afa1580156116bb573d6000803e3d6000fd5b505050506040513d601f19601f8201168201806040525081019061164b919061374d565b60006103757f7462000000000000000000000000000000000000000000000000000000000000837f546f6b656e5552490000000000000000000000000000000000000000000000006114f5565b604080516001808252818301909252600091602080830190803683370190505090508260001b8160008151811061176557611765613635565b60200260200101818152505061177e8482600085611af7565b50505050565b6000610385611ba8565b606060006060600061179e6118c2565b9050306001600160a01b038216036117c7576117bb878787611c06565b93509350935050611855565b6040517f419b58fd0000000000000000000000000000000000000000000000000000000081526001600160a01b0382169063419b58fd90611810908a908a908a90600401613766565b600060405180830381865afa15801561182d573d6000803e3d6000fd5b505050506040513d6000823e601f3d908101601f191682016040526117bb919081019061378f565b93509350939050565b6118976040518060c001604052806000815260200160008152602001600081526020016000815260200160008152602001600081525090565b6118a084611d0e565b60a0870152608086015260608501526040840152602083015281529392505050565b7f629a4c26e296b22a8e0856e9f6ecb2d1008d7e00081111962cd175fa7488e175546000906001600160a01b0316806118fc573391505090565b919050565b6040805160018082528183019092526000918291829160208083019080368337019050509050837bffffffffffffffffffffffffffffffffffffffffffffffffffffffff19168160008151811061195a5761195a613635565b6020908102919091010152600080806119b37f7462776f726c6400000000000000000046756e6374696f6e53656c6563746f72857e2402002004000000000000000000000000000000000000000000000000000061178e565b9250925092506119c4838383611d52565b9550955050505050915091565b606060006119dd6111f0565b90506001600160a01b0381163003611a1e576000611a056119fc6108f4565b60008787611d6a565b9350905080611a1757611a1783611ea5565b5050610375565b6040517f3ae7af080000000000000000000000000000000000000000000000000000000081526001600160a01b03821690633ae7af0890611a659087908790600401613537565b6000604051808303816000875af1158015611a84573d6000803e3d6000fd5b505050506040513d6000823e601f3d908101601f19168201604052610b0f9190810190613595565b6108ed8585611abb8487611ead565b85611ee6565b6000611aee611ad0868661218a565b60ff858116601b0360080285901c16611ae98587611ead565b6121e0565b95945050505050565b6000611b016118c2565b9050306001600160a01b03821603611b2457611b1f85858585612231565b6108ed565b6040517fef6ea8620000000000000000000000000000000000000000000000000000000081526001600160a01b0382169063ef6ea86290611b6f9088908890889088906004016137fc565b600060405180830381600087803b158015611b8957600080fd5b505af1158015611b9d573d6000803e3d6000fd5b505050505050505050565b6040805160008082526020820190925260006113be7f74625544000000000000000000000000556c74696d617465446f6d696e696f6e8360017e79070001141414141414000000000000000000000000000000000000000000611622565b6060600060606000611c178561226c565b9050611c2487878361228f565b93506000611c31866122c8565b90508015611d0357611c438888612305565b935066ffffffffffffff841667ffffffffffffffff811115611c6757611c67613333565b6040519080825280601f01601f191660200182016040528015611c91576020820181803683370190505b5092506020830160005b828160ff161015611d00576000611cb38b8b84612318565b90506000611cd0888460ff166028026038011c64ffffffffff1690565b9050611cdf8260008387612398565b611ce981856135e0565b935050508080611cf89061383b565b915050611c9b565b50505b505093509350939050565b600080600080600080611d25876000016020015190565b6040880151606089015160808a015160a08b015160c0909b0151939b929a91995097509550909350915050565b600080611d5e85612464565b90969095509350505050565b60006060600080611d7a86612479565b90925090506001600160a01b038216611dcb5785611d978761251d565b6040517ffbf10ce6000000000000000000000000000000000000000000000000000000008152600401610525929190613537565b80611dda57611dda868961264b565b8615611e46577dffffffffffffffffffffffffffff0000000000000000000000000000000086167f6e73000000000000000000000000000000000000000000000000000000000000176000611e2e82612697565b9050611e4382611e3e8b846135e0565b612710565b50505b6000611e528760101b90565b7fffffffffffffffffffffffffffff0000000000000000000000000000000000001614611e8a57611e85888884886127ac565b611e96565b611e9688888488612824565b90999098509650505050505050565b805160208201fd5b600080805b8360ff16811015611ede57611ed460ff601b83900360080287901c16836135e0565b9150600101611eb2565b509392505050565b7f6f74000000000000000000000000000000000000000000000000000000000000847fffff0000000000000000000000000000000000000000000000000000000000001603611f7057837f8c0b5119d4cec7b284c6b1b39252a03d1e2f2d7451a5895562524c113bb952be848484604051611f639392919061385a565b60405180910390a261177e565b6000611f7c858561218a565b90506000611f8986612885565b905060005b815181101561205e576000828281518110611fab57611fab613635565b60200260200101519050611fd76004826affffffffffffffffffffff191661290e90919063ffffffff16565b15612055576040517f964f667d000000000000000000000000000000000000000000000000000000008152606082901c9063964f667d90612022908b908b908b908b9060040161388d565b600060405180830381600087803b15801561203c57600080fd5b505af1158015612050573d6000803e3d6000fd5b505050505b50600101611f8e565b50857f8c0b5119d4cec7b284c6b1b39252a03d1e2f2d7451a5895562524c113bb952be8686866040516120939392919061385a565b60405180910390a26120ae828565ffffffffffff168561292c565b60005b81518110156121815760008282815181106120ce576120ce613635565b602002602001015190506120fa6008826affffffffffffffffffffff191661290e90919063ffffffff16565b15612178576040517fa8ba8721000000000000000000000000000000000000000000000000000000008152606082901c9063a8ba872190612145908b908b908b908b9060040161388d565b600060405180830381600087803b15801561215f57600080fd5b505af1158015612173573d6000803e3d6000fd5b505050505b506001016120b1565b50505050505050565b6000828260405160200161219f9291906138c6565b60408051601f1981840301815291905280516020909101207f86425bff6b57326c7859e89024fe4f238ca327a1ae4a230180dd2f0e88aaa7d9189392505050565b6000602082106122065760208204840193506020828161220257612202613902565b0691505b508254600882021b602082900380841115611ede576001850154600882021c82179150509392505050565b600061223d8585612305565b9050600061225a828560ff166028026038011c64ffffffffff1690565b9050610e448686866000858888612942565b6000600861227c60026020613918565b612286919061392b565b9190911c919050565b6060816000036122ae575060408051602081019091526000815261054d565b60006122ba858561218a565b9050611aee81600085612d7c565b600060086001806122db60026020613918565b6122e59190613918565b6122ef9190613918565b6122f9919061392b565b8260ff911c1692915050565b600061054d6123148484612d9f565b5490565b6000838360405160200161232d9291906138c6565b604051602081830303815290604052805190602001208260f81b7effffffffffffffffffffffffffffffffffffffffffffffffffffffffffffff19167f3b4102da22e32d82fc925482184f16c09fd4281692720b87d124aef6da48a0f1181860001c90509392505050565b821561241f57602083106123c2576020830484019350602083816123be576123be613902565b0692505b821561241f5760208390036000818410156123e55750600019600884021c6123ef565b50600019600882021c5b8554600886021b81845116821982161784525081841161241057505061177e565b50600194909401939182900391015b5b602082106124415783548152600190930192601f1990910190602001612420565b811561177e576000600019600884021c8251865482191691161782525050505050565b602081015160408201516000905b9050915091565b604080516001808252818301909252600091829182916020808301908036833701905050905083816000815181106124b3576124b3613635565b60209081029190910101526000808061250c7f7462776f726c6400000000000000000053797374656d73000000000000000000857e15020014010000000000000000000000000000000000000000000000000000611c06565b9250925092506119c4838383612df5565b606081601081901b600061253083612e01565b9050827fffffffffffffffffffffffffffff00000000000000000000000000000000000083161561258b576125867fffffffffffffffffffffffffffff0000000000000000000000000000000000008416612e18565b6125c2565b6040518060400160405280600681526020017f3c726f6f743e00000000000000000000000000000000000000000000000000008152505b6fffffffffffffffffffffffffffffffff198316156125e9576125e483612e18565b612620565b6040518060400160405280600681526020017f3c726f6f743e00000000000000000000000000000000000000000000000000008152505b60405160200161263293929190613942565b6040516020818303038152906040529350505050919050565b6126558282612e9e565b610c85576126628261251d565b816040517fd787b7370000000000000000000000000000000000000000000000000000000081526004016105259291906139d0565b6040805160018082528183019092526000918291906020808301908036833701905050905082816000815181106126d0576126d0613635565b60209081029190910101526000610b0f7f7462776f726c6400000000000000000042616c616e63657300000000000000008383630100080160dd1b611ac1565b60408051600180825281830190925260009160208083019080368337019050509050828160008151811061274657612746613635565b602002602001018181525050610a6d7f7462776f726c6400000000000000000042616c616e636573000000000000000060001b8260008560405160200161278f91815260200190565b60408051601f19818403018152919052630100080160dd1b611aac565b60006060836001600160a01b031660006127c7858989612efc565b6040516127d491906139fb565b60006040518083038185875af1925050503d8060008114612811576040519150601f19603f3d011682016040523d82523d6000602084013e612816565b606091505b509097909650945050505050565b60006060836001600160a01b031661283d848888612efc565b60405161284a91906139fb565b600060405180830381855af49150503d8060008114612811576040519150601f19603f3d011682016040523d82523d6000602084013e612816565b604080516001808252818301909252606091600091906020808301908036833701905050905082816000815181106128bf576128bf613635565b602090810291909101015260006128f77f746273746f726500000000000000000053746f7265486f6f6b730000000000008383612f2b565b9050610b0f6129098260008451612f65565b612ff3565b60008160ff168261291f8560581c90565b1660ff1614905092915050565b610a6d8383835161293d8560200190565b613004565b7f7462000000000000000000000000000000000000000000000000000000000000877fffff0000000000000000000000000000000000000000000000000000000000001614612a02577f746200000000000000000000000000000000000000000000000000000000000087886040516020016129c091815260200190565b60408051601f19818403018152908290527f31b46683000000000000000000000000000000000000000000000000000000008252610525939291600401613a17565b6000612a1d828760ff166028026038011c64ffffffffff1690565b9050600083518564ffffffffff1683612a369190613918565b612a4091906135e0565b9050808214158015612a62575081612a588688613a58565b64ffffffffff1614155b15612ab2576040517fa65010b400000000000000000000000000000000000000000000000000000000815264ffffffffff8088166004830152808716602483015283166044820152606401610525565b818664ffffffffff161115612b03576040517f7e8578d30000000000000000000000000000000000000000000000000000000081526004810183905264ffffffffff87166024820152604401610525565b6000612b108489846130c3565b90506000612b1d8b612885565b905060005b8151811015612be8576000828281518110612b3f57612b3f613635565b60200260200101519050612b6b6010826affffffffffffffffffffff191661290e90919063ffffffff16565b15612bdf57606081901c6001600160a01b03166355eb5a288e8e8e8e8e8d8f6040518863ffffffff1660e01b8152600401612bac9796959493929190613a7d565b600060405180830381600087803b158015612bc657600080fd5b505af1158015612bda573d6000803e3d6000fd5b505050505b50600101612b22565b5064ffffffffff881660005b8a60ff168160ff161015612c2757612c1b878260ff166028026038011c64ffffffffff1690565b90910190600101612bf4565b508b7ffe158a7adba34e256807c8a149028d3162918713c3838afc643ce9f96716ebfd8c8c848c888d604051612c6296959493929190613adb565b60405180910390a250828414612c83576000612c7e8c8c612d9f565b839055505b6000612c908c8c8c612318565b9050612ca4818a64ffffffffff168961292c565b5060005b8151811015612d6e576000828281518110612cc557612cc5613635565b60200260200101519050612cf16020826affffffffffffffffffffff191661290e90919063ffffffff16565b15612d6557606081901c6001600160a01b031663635845338e8e8e8e8e8a8f6040518863ffffffff1660e01b8152600401612d329796959493929190613a7d565b600060405180830381600087803b158015612d4c57600080fd5b505af1158015612d60573d6000803e3d6000fd5b505050505b50600101612ca8565b505050505050505050505050565b60405160208101601f19603f8484010116604052828252611ede85858584612398565b60008282604051602001612db49291906138c6565b60408051601f1981840301815291905280516020909101207f14e2fcc58e58e68ec7edc30c8d50dccc3ce2714a623ec81f46b6a63922d76569189392505050565b600080611d5e85613191565b6000612e0f607060106135e0565b9190911b919050565b606060005b6010811015612e6e576fffffffffffffffffffffffffffffffff198316600882021b7fff000000000000000000000000000000000000000000000000000000000000001615612e6e57600101612e1d565b604080516fffffffffffffffffffffffffffffffff19851660208201528151603090910190915281815280610b0f565b6000612eec7f6e730000000000000000000000000000000000000000000000000000000000007dffffffffffffffffffffffffffff00000000000000000000000000000000851617836131ad565b8061054d575061054d83836131ad565b6060838383604051602001612f1393929190613b37565b60405160208183030381529060405290509392505050565b6060610b0f612f3b858585612318565b6000612f6085612f4b8989612305565b9060ff166028026038011c64ffffffffff1690565b612d7c565b600081831180612f755750835182115b15612fb2578383836040517f23230fa300000000000000000000000000000000000000000000000000000000815260040161052593929190613b89565b60208401612fc084826135e0565b90506000612fce8585613918565b6fffffffffffffffffffffffffffffffff1660809290921b9190911795945050505050565b6060600061054d8360156000613276565b821561307e576020831061302e5760208304840193506020838161302a5761302a613902565b0692505b821561307e5760208390036000600019600885021c1990506008850281811c91508351811c905081198754168282161787555081841161306f57505061177e565b50600194909401939182900391015b5b602082106130a05780518455600190930192601f199091019060200161307f565b811561177e576000600019600884021c8554835182191691161785555050505050565b600064ffffffffff821115613107576040517f7149a3c100000000000000000000000000000000000000000000000000000000815260048101839052602401610525565b8366ffffffffffffff811660ff851660280260380182901c64ffffffffff168085106131395780850382019150613141565b848103820391505b5064ffffffffff6038602860ff8816020181811b197fffffffffffffffffffffffffffffffffffffffffffffffffff000000000000009490941690921792909216918416901b1790509392505050565b6020810151603482015160609190911c9060009060f81c612472565b6040805160028082526060820183526000928392919060208301908036833701905050905083816000815181106131e6576131e6613635565b602002602001018181525050826001600160a01b031660001b8160018151811061321257613212613635565b6020908102919091010152600061326a7f7462776f726c640000000000000000005265736f75726365416363657373000083837e01010001000000000000000000000000000000000000000000000000000000611ac1565b9050611aee8160f81c90565b606060006132848560801c90565b90506fffffffffffffffffffffffffffffffff851660008582816132aa576132aa613902565b04905060405193506020840160208202810160405281855260005b828110156132e5578451871c8252938701936020909101906001016132c5565b50505050509392505050565b60006020828403121561330357600080fd5b81357fffffffff000000000000000000000000000000000000000000000000000000008116811461054d57600080fd5b634e487b7160e01b600052604160045260246000fd5b604051601f8201601f1916810167ffffffffffffffff8111828210171561337257613372613333565b604052919050565b600067ffffffffffffffff82111561339457613394613333565b50601f01601f191660200190565b6000806000606084860312156133b757600080fd5b83356001600160a01b03811681146133ce57600080fd5b925060208401359150604084013567ffffffffffffffff8111156133f157600080fd5b8401601f8101861361340257600080fd5b80356134156134108261337a565b613349565b81815287602083850101111561342a57600080fd5b816020840160208301376000602083830101528093505050509250925092565b60006020828403121561345c57600080fd5b5035919050565b634e487b7160e01b600052602160045260246000fd5b6003811061070157634e487b7160e01b600052602160045260246000fd5b602081016134a483613479565b91905290565b6000806000606084860312156134bf57600080fd5b83359250602084013591506040840135600381106134dc57600080fd5b809150509250925092565b60005b838110156135025781810151838201526020016134ea565b50506000910152565b600081518084526135238160208601602086016134e7565b601f01601f19169290920160200192915050565b828152604060208201526000610b0f604083018461350b565b600082601f83011261356157600080fd5b815161356f6134108261337a565b81815284602083860101111561358457600080fd5b610b0f8260208301602087016134e7565b6000602082840312156135a757600080fd5b815167ffffffffffffffff8111156135be57600080fd5b610b0f84828501613550565b634e487b7160e01b600052601160045260246000fd5b80820180821115610375576103756135ca565b60006000198203613606576136066135ca565b5060010190565b83815261361983613479565b826020820152606060408201526000611aee606083018461350b565b634e487b7160e01b600052603260045260246000fd5b6000815160208301517fffffffff00000000000000000000000000000000000000000000000000000000808216935060048310156136935780818460040360031b1b83161693505b505050919050565b60008151808452602080850194506020840160005b838110156136cc578151875295820195908201906001016136b0565b509495945050505050565b85815260a0602082015260006136f060a083018761369b565b60ff86166040840152828103606084015261370b818661350b565b9150508260808301529695505050505050565b848152608060208201526000613737608083018661369b565b60ff949094166040830152506060015292915050565b60006020828403121561375f57600080fd5b5051919050565b83815260606020820152600061377f606083018561369b565b9050826040830152949350505050565b6000806000606084860312156137a457600080fd5b835167ffffffffffffffff808211156137bc57600080fd5b6137c887838801613550565b94506020860151935060408601519150808211156137e557600080fd5b506137f286828701613550565b9150509250925092565b848152608060208201526000613815608083018661369b565b60ff851660408401528281036060840152613830818561350b565b979650505050505050565b600060ff821660ff8103613851576138516135ca565b60010192915050565b60608152600061386d606083018661369b565b65ffffffffffff8516602084015282810360408401526110c7818561350b565b8481526080602082015260006138a6608083018661369b565b65ffffffffffff851660408401528281036060840152613830818561350b565b8281526000602080830184516020860160005b828110156138f5578151845292840192908401906001016138d9565b5091979650505050505050565b634e487b7160e01b600052601260045260246000fd5b81810381811115610375576103756135ca565b8082028115828204841417610375576103756135ca565b7fffff0000000000000000000000000000000000000000000000000000000000008416815260007f3a0000000000000000000000000000000000000000000000000000000000000080600284015284516139a38160038601602089016134e7565b8084019050816003820152845191506139c38260048301602088016134e7565b0160040195945050505050565b6040815260006139e3604083018561350b565b90506001600160a01b03831660208301529392505050565b60008251613a0d8184602087016134e7565b9190910192915050565b7fffff00000000000000000000000000000000000000000000000000000000000084168152826020820152606060408201526000611aee606083018461350b565b64ffffffffff818116838216019080821115613a7657613a766135ca565b5092915050565b87815260e060208201526000613a9660e083018961369b565b60ff8816604084015264ffffffffff87811660608501528616608084015260a0830185905282810360c0840152613acd818561350b565b9a9950505050505050505050565b60c081526000613aee60c083018961369b565b60ff8816602084015265ffffffffffff8716604084015264ffffffffff8616606084015284608084015282810360a0840152613b2a818561350b565b9998505050505050505050565b60008451613b498184602089016134e7565b60609490941b7fffffffffffffffffffffffffffffffffffffffff0000000000000000000000001691909301908152601481019190915260340192915050565b606081526000613b9c606083018661350b565b6020830194909452506040015291905056fea26469706673582212205ab7f5c794827429cbcdad0c5a496082d8c80052d579bc42fa410bae7747dfec64736f6c63430008180033","linkReferences":{}},"methodIdentifiers":{"_msgSender()":"119df25f","_msgValue()":"45ec9354","_world()":"e1af802c","enterGame(uint256)":"43d6582b","getCharacterStats(uint256)":"6fe0c046","getClass(uint256)":"512d62df","getCurrentLevel(uint256)":"3d0854ae","getExperience(uint256)":"b1ca2106","getName(uint256)":"6b8ff574","getOwner(uint256)":"c41a360a","mintCharacter(address,bytes32,string)":"143f3021","rollStats(bytes32,uint256,uint8)":"e429766e","supportsInterface(bytes4)":"01ffc9a7"},"id":205}