{"abi":[{"type":"function","name":"_msgSender","inputs":[],"outputs":[{"name":"sender","type":"address","internalType":"address"}],"stateMutability":"view"},{"type":"function","name":"_msgValue","inputs":[],"outputs":[{"name":"value","type":"uint256","internalType":"uint256"}],"stateMutability":"pure"},{"type":"function","name":"_world","inputs":[],"outputs":[{"name":"","type":"address","internalType":"address"}],"stateMutability":"view"},{"type":"function","name":"enterGame","inputs":[{"name":"characterId","type":"bytes32","internalType":"bytes32"}],"outputs":[],"stateMutability":"nonpayable"},{"type":"function","name":"getCharacterTokenId","inputs":[{"name":"characterId","type":"bytes32","internalType":"bytes32"}],"outputs":[{"name":"","type":"uint256","internalType":"uint256"}],"stateMutability":"pure"},{"type":"function","name":"getClass","inputs":[{"name":"characterId","type":"bytes32","internalType":"bytes32"}],"outputs":[{"name":"_class","type":"uint8","internalType":"enum Classes"}],"stateMutability":"view"},{"type":"function","name":"getCurrentLevel","inputs":[{"name":"experience","type":"uint256","internalType":"uint256"}],"outputs":[{"name":"currentLevel","type":"uint256","internalType":"uint256"}],"stateMutability":"view"},{"type":"function","name":"getExperience","inputs":[{"name":"characterId","type":"bytes32","internalType":"bytes32"}],"outputs":[{"name":"","type":"uint256","internalType":"uint256"}],"stateMutability":"view"},{"type":"function","name":"getName","inputs":[{"name":"characterId","type":"bytes32","internalType":"bytes32"}],"outputs":[{"name":"_name","type":"bytes32","internalType":"bytes32"}],"stateMutability":"view"},{"type":"function","name":"getOwner","inputs":[{"name":"characterId","type":"bytes32","internalType":"bytes32"}],"outputs":[{"name":"","type":"address","internalType":"address"}],"stateMutability":"view"},{"type":"function","name":"getOwnerAddress","inputs":[{"name":"characterId","type":"bytes32","internalType":"bytes32"}],"outputs":[{"name":"","type":"address","internalType":"address"}],"stateMutability":"pure"},{"type":"function","name":"getPlayerEntityId","inputs":[{"name":"characterTokenId","type":"uint256","internalType":"uint256"}],"outputs":[{"name":"characterId","type":"bytes32","internalType":"bytes32"}],"stateMutability":"view"},{"type":"function","name":"getStats","inputs":[{"name":"characterId","type":"bytes32","internalType":"bytes32"}],"outputs":[{"name":"","type":"tuple","internalType":"struct StatsData","components":[{"name":"strength","type":"uint256","internalType":"uint256"},{"name":"agility","type":"uint256","internalType":"uint256"},{"name":"class","type":"uint8","internalType":"enum Classes"},{"name":"intelligence","type":"uint256","internalType":"uint256"},{"name":"baseHitPoints","type":"uint256","internalType":"uint256"},{"name":"currentHp","type":"int256","internalType":"int256"},{"name":"experience","type":"uint256","internalType":"uint256"},{"name":"level","type":"uint256","internalType":"uint256"}]}],"stateMutability":"view"},{"type":"function","name":"isValidCharacterId","inputs":[{"name":"characterId","type":"bytes32","internalType":"bytes32"}],"outputs":[{"name":"","type":"bool","internalType":"bool"}],"stateMutability":"view"},{"type":"function","name":"mintCharacter","inputs":[{"name":"account","type":"address","internalType":"address"},{"name":"name","type":"bytes32","internalType":"bytes32"},{"name":"tokenUri","type":"string","internalType":"string"}],"outputs":[{"name":"characterId","type":"bytes32","internalType":"bytes32"}],"stateMutability":"nonpayable"},{"type":"function","name":"rollStats","inputs":[{"name":"userRandomNumber","type":"bytes32","internalType":"bytes32"},{"name":"characterId","type":"bytes32","internalType":"bytes32"},{"name":"class","type":"uint8","internalType":"enum Classes"}],"outputs":[],"stateMutability":"payable"},{"type":"function","name":"supportsInterface","inputs":[{"name":"interfaceId","type":"bytes4","internalType":"bytes4"}],"outputs":[{"name":"","type":"bool","internalType":"bool"}],"stateMutability":"pure"},{"type":"event","name":"Store_SpliceDynamicData","inputs":[{"name":"tableId","type":"bytes32","indexed":true,"internalType":"ResourceId"},{"name":"keyTuple","type":"bytes32[]","indexed":false,"internalType":"bytes32[]"},{"name":"dynamicFieldIndex","type":"uint8","indexed":false,"internalType":"uint8"},{"name":"start","type":"uint48","indexed":false,"internalType":"uint48"},{"name":"deleteCount","type":"uint40","indexed":false,"internalType":"uint40"},{"name":"encodedLengths","type":"bytes32","indexed":false,"internalType":"EncodedLengths"},{"name":"data","type":"bytes","indexed":false,"internalType":"bytes"}],"anonymous":false},{"type":"event","name":"Store_SpliceStaticData","inputs":[{"name":"tableId","type":"bytes32","indexed":true,"internalType":"ResourceId"},{"name":"keyTuple","type":"bytes32[]","indexed":false,"internalType":"bytes32[]"},{"name":"start","type":"uint48","indexed":false,"internalType":"uint48"},{"name":"data","type":"bytes","indexed":false,"internalType":"bytes"}],"anonymous":false},{"type":"error","name":"EncodedLengths_InvalidLength","inputs":[{"name":"length","type":"uint256","internalType":"uint256"}]},{"type":"error","name":"Slice_OutOfBounds","inputs":[{"name":"data","type":"bytes","internalType":"bytes"},{"name":"start","type":"uint256","internalType":"uint256"},{"name":"end","type":"uint256","internalType":"uint256"}]},{"type":"error","name":"Store_IndexOutOfBounds","inputs":[{"name":"length","type":"uint256","internalType":"uint256"},{"name":"accessedIndex","type":"uint256","internalType":"uint256"}]},{"type":"error","name":"Store_InvalidResourceType","inputs":[{"name":"expected","type":"bytes2","internalType":"bytes2"},{"name":"resourceId","type":"bytes32","internalType":"ResourceId"},{"name":"resourceIdString","type":"string","internalType":"string"}]},{"type":"error","name":"Store_InvalidSplice","inputs":[{"name":"startWithinField","type":"uint40","internalType":"uint40"},{"name":"deleteCount","type":"uint40","internalType":"uint40"},{"name":"fieldLength","type":"uint40","internalType":"uint40"}]},{"type":"error","name":"World_AccessDenied","inputs":[{"name":"resource","type":"string","internalType":"string"},{"name":"caller","type":"address","internalType":"address"}]},{"type":"error","name":"World_FunctionSelectorNotFound","inputs":[{"name":"functionSelector","type":"bytes4","internalType":"bytes4"}]},{"type":"error","name":"World_ResourceNotFound","inputs":[{"name":"resourceId","type":"bytes32","internalType":"ResourceId"},{"name":"resourceIdString","type":"string","internalType":"string"}]}],"bytecode":{"object":"0x608060405234801561001057600080fd5b506140a3806100206000396000f3fe60806040526004361061010d5760003560e01c806354b8d5e3116100a5578063c74dedc811610074578063e1af802c11610059578063e1af802c1461030a578063ebee03bb1461031f578063f8c675611461033f57600080fd5b8063c74dedc8146102ca578063deb931a2146102ea57600080fd5b806354b8d5e314610255578063623daa0514610275578063679ee16d146102955780638338f0e0146102aa57600080fd5b8063143f3021116100e1578063143f3021146101c257806323801570146101f05780633d0854ae1461021d57806345ec93541461023d57600080fd5b8062d43ec61461011257806301ffc9a7146101505780630bb700dc14610180578063119df25f146101ad575b600080fd5b34801561011e57600080fd5b5061013361012d36600461373c565b60601c90565b6040516001600160a01b0390911681526020015b60405180910390f35b34801561015c57600080fd5b5061017061016b366004613755565b61036b565b6040519015158152602001610147565b34801561018c57600080fd5b506101a061019b36600461373c565b610404565b60405161014791906137cb565b3480156101b957600080fd5b50610133610415565b3480156101ce57600080fd5b506101e26101dd3660046138b0565b610424565b604051908152602001610147565b3480156101fc57600080fd5b5061021061020b36600461373c565b610686565b604051610147919061394c565b34801561022957600080fd5b506101e261023836600461373c565b610691565b34801561024957600080fd5b5036601f1901356101e2565b34801561026157600080fd5b506101e261027036600461373c565b61070f565b34801561028157600080fd5b5061017061029036600461373c565b61071a565b6102a86102a336600461395f565b610846565b005b3480156102b657600080fd5b506101e26102c536600461373c565b6109be565b3480156102d657600080fd5b506102a86102e536600461373c565b610a53565b3480156102f657600080fd5b5061013361030536600461373c565b610b85565b34801561031657600080fd5b50610133610b90565b34801561032b57600080fd5b506101e261033a36600461373c565b610b9a565b34801561034b57600080fd5b506101e261035a36600461373c565b6bffffffffffffffffffffffff1690565b60007fffffffff0000000000000000000000000000000000000000000000000000000082167fb5dee1270000000000000000000000000000000000000000000000000000000014806103fe57507fffffffff0000000000000000000000000000000000000000000000000000000082167f01ffc9a700000000000000000000000000000000000000000000000000000000145b92915050565b61040c6136e6565b6103fe82610ba5565b600061041f610c57565b905090565b60008061042f610c89565b90506bffffffffffffffffffffffff81106104b75760405162461bcd60e51b815260206004820152602360248201527f43484152414341544552533a204d61782063686172616374657273207265616360448201527f686564000000000000000000000000000000000000000000000000000000000060648201526084015b60405180910390fd5b6104bf610b90565b6001600160a01b0316633ae7af086104f67f4368617261637465727300000000000000000000000000000000000000000000610cbc565b6040516001600160a01b03891660248201526044810185905260640160408051601f198184030181529181526020820180517bffffffffffffffffffffffffffffffffffffffffffffffffffffffff167f40c10f1900000000000000000000000000000000000000000000000000000000179052517fffffffff0000000000000000000000000000000000000000000000000000000060e085901b1681526105a29291906004016139ec565b6000604051808303816000875af11580156105c1573d6000803e3d6000fd5b505050506040513d6000823e601f3d908101601f191682016040526105e99190810190613a4a565b506105f3816109be565b91506105ff8286610d09565b6106098282610dd8565b61061284610e57565b1561065f5760405162461bcd60e51b815260206004820152601360248201527f4e616d6520616c7265616479206578697374730000000000000000000000000060448201526064016104ae565b61066a846001610efc565b6106748285610fb5565b61067e8184611034565b509392505050565b60006103fe8261106b565b600061069d6013611115565b82106106ab57506014919050565b60005b601481101561070957826106c182611115565b111580156106e05750826106de6106d9836001613a95565b611115565b115b156106f7576106f0816001613a95565b9150610709565b8061070181613aa8565b9150506106ae565b50919050565b60006103fe82611191565b6000806107278360601c90565b90506bffffffffffffffffffffffff83166000610742611223565b6001600160a01b0316636352211e836040518263ffffffff1660e01b815260040161076f91815260200190565b602060405180830381865afa9250505080156107a8575060408051601f3d908101601f191682019092526107a591810190613ac2565b60015b15610827576107b5611223565b6001600160a01b0316636352211e846040518263ffffffff1660e01b81526004016107e291815260200190565b602060405180830381865afa1580156107ff573d6000803e3d6000fd5b505050506040513d601f19601f820116820180604052508101906108239190613ac2565b9150505b826001600160a01b0316816001600160a01b0316149350505050919050565b61084f8261122d565b156108c25760405162461bcd60e51b815260206004820152602b60248201527f434841524143544552533a2063686172616374657220616c726561647920696e60448201527f2067616d6520776f726c6400000000000000000000000000000000000000000060648201526084016104ae565b6108cb826112bf565b6109175760405162461bcd60e51b815260206004820152601360248201527f4e6f7420796f7572204368617261637465722e0000000000000000000000000060448201526064016104ae565b600061092383836112eb565b6109b784828560405160200161093b91815260200190565b60408051601f198184030181529082905261095a939291602401613adf565b60408051601f198184030181529190526020810180517bffffffffffffffffffffffffffffffffffffffffffffffffffffffff167fb2aa60a4000000000000000000000000000000000000000000000000000000001790526113d4565b5050505050565b6000806109c9611223565b6001600160a01b0316636352211e846040518263ffffffff1660e01b81526004016109f691815260200190565b602060405180830381865afa158015610a13573d6000803e3d6000fd5b505050506040513d601f19601f82011682018060405250810190610a379190613ac2565b60601b6bffffffffffffffffffffffff19169290921792915050565b610a5c816112bf565b610aa85760405162461bcd60e51b815260206004820152601260248201527f6e6f7420796f757220636861726163746572000000000000000000000000000060448201526064016104ae565b610ab18161122d565b15610afe5760405162461bcd60e51b815260206004820152601960248201527f796f75206861766520656e7465726564207468652067616d650000000000000060448201526064016104ae565b610b1081674563918244f40000611482565b610b18610b90565b6001600160a01b031663f9d175ed826040518263ffffffff1660e01b8152600401610b4591815260200190565b600060405180830381600087803b158015610b5f57600080fd5b505af1158015610b73573d6000803e3d6000fd5b50505050610b8281600161151d565b50565b60006103fe826115a1565b600061041f61163e565b60006103fe82611648565b610bad6136e6565b604080516001808252818301909252600091602080830190803683370190505090508281600081518110610be357610be3613b07565b602090810291909101015260008080610c3c7f7462554400000000000000000000000053746174730000000000000000000000857ee10800202001202020202000000000000000000000000000000000000000006116da565b925092509250610c4d8383836117aa565b9695505050505050565b7fffffffffffffffffffffffffffffffffffffffffffffffffffffffffffffffcc36013560601c80610c865750335b90565b600080610c94611822565b90506000610ca382600061188a565b610cae906001613a95565b90506103fe8260008361193b565b60006103fe7f7379000000000000000000000000000000000000000000000000000000000000837f45524337323153797374656d0000000000000000000000000000000000000000611a0b565b604080516001808252818301909252600091602080830190803683370190505090508281600081518110610d3f57610d3f613b07565b602002602001018181525050610dd37f746255440000000000000000000000004368617261637465727300000000000060001b82600185604051602001610d9e919060609190911b6bffffffffffffffffffffffff1916815260140190565b60408051601f198184030181529190527e55040020142001000000000000000000000000000000000000000000000000611a83565b505050565b604080516001808252818301909252600091602080830190803683370190505090508281600081518110610e0e57610e0e613b07565b602002602001018181525050610dd37f746255440000000000000000000000004368617261637465727300000000000060001b82600085604051602001610d9e91815260200190565b604080516001808252818301909252600091829190602080830190803683370190505090508281600081518110610e9057610e90613b07565b60209081029190910101526000610ee87f746255440000000000000000000000004e616d6545786973747300000000000083837e01010001000000000000000000000000000000000000000000000000000000611b38565b9050610ef48160f81c90565b949350505050565b604080516001808252818301909252600091602080830190803683370190505090508281600081518110610f3257610f32613b07565b602002602001018181525050610dd37f746255440000000000000000000000004e616d6545786973747300000000000060001b82600085604051602001610f8091151560f81b815260010190565b60408051601f198184030181529190527e01010001000000000000000000000000000000000000000000000000000000611a83565b604080516001808252818301909252600091602080830190803683370190505090508281600081518110610feb57610feb613b07565b602002602001018181525050610dd37f746255440000000000000000000000004368617261637465727300000000000060001b82600285604051602001610d9e91815260200190565b6110676110607f4368617261637465727300000000000000000000000000000000000000000000611bf5565b8383611c42565b5050565b6040805160018082528183019092526000918291906020808301908036833701905050905082816000815181106110a4576110a4613b07565b602090810291909101015260006110fd7f74625544000000000000000000000000537461747300000000000000000000008360027ee1080020200120202020200000000000000000000000000000000000000000611b38565b905060f881901c6002811115610ef457610ef4613797565b604080516001808252818301909252600091829190602080830190803683370190505090508260001b8160008151811061115157611151613b07565b60209081029190910101526000610ef47f746255440000000000000000000000004c6576656c73000000000000000000008383630100080160dd1b611b38565b6040805160018082528183019092526000918291906020808301908036833701905050905082816000815181106111ca576111ca613b07565b60209081029190910101526000610ef47f74625544000000000000000000000000436861726163746572730000000000008360027e55040020142001000000000000000000000000000000000000000000000000611b38565b600061041f611822565b60408051600180825281830190925260009182919060208083019080368337019050509050828160008151811061126657611266613b07565b60209081029190910101526000610ee87f74625544000000000000000000000000436861726163746572730000000000008360037e55040020142001000000000000000000000000000000000000000000000000611b38565b60006112ca826115a1565b6001600160a01b03166112db610415565b6001600160a01b03161492915050565b60408051600180825281830190925260009160208083019080368337019050509050828160008151811061132157611321613b07565b6020908102919091010152610dd37f7462554400000000000000000000000053746174730000000000000000000000826002858181111561136457611364613797565b60405160200161139f919060f89190911b7fff0000000000000000000000000000000000000000000000000000000000000016815260010190565b60408051601f198184030181529190527ee1080020200120202020200000000000000000000000000000000000000000611a83565b60606000806113ea6113e585613b1d565b611c94565b91509150816000801b03611450576040517ffdde54e20000000000000000000000000000000000000000000000000000000081527fffffffff000000000000000000000000000000000000000000000000000000006000351660048201526024016104ae565b6020840180517bffffffffffffffffffffffffffffffffffffffffffffffffffffffff1682179052610ef48285611d64565b61148a611e3f565b6001600160a01b03166340c10f196114a184610b85565b6040517fffffffff0000000000000000000000000000000000000000000000000000000060e084901b1681526001600160a01b03909116600482015260248101849052604401600060405180830381600087803b15801561150157600080fd5b505af1158015611515573d6000803e3d6000fd5b505050505050565b60408051600180825281830190925260009160208083019080368337019050509050828160008151811061155357611553613b07565b602002602001018181525050610dd37f746255440000000000000000000000004368617261637465727300000000000060001b82600385604051602001610d9e91151560f81b815260010190565b6040805160018082528183019092526000918291906020808301908036833701905050905082816000815181106115da576115da613b07565b602090810291909101015260006116337f74625544000000000000000000000000436861726163746572730000000000008360017e55040020142001000000000000000000000000000000000000000000000000611b38565b60601c949350505050565b600061041f611e49565b60408051600180825281830190925260009182919060208083019080368337019050509050828160008151811061168157611681613b07565b60209081029190910101526000610ef47f74625544000000000000000000000000537461747300000000000000000000008360067ee1080020200120202020200000000000000000000000000000000000000000611b38565b60606000606060006116ea611e49565b9050306001600160a01b0382160361171357611707878787611e88565b935093509350506117a1565b6040517f419b58fd0000000000000000000000000000000000000000000000000000000081526001600160a01b0382169063419b58fd9061175c908a908a908a90600401613ba9565b600060405180830381865afa158015611779573d6000803e3d6000fd5b505050506040513d6000823e601f3d908101601f191682016040526117079190810190613bd2565b93509350939050565b6117b26136e6565b6117bb84611f90565b60e0890181905260c0890182905260a0890183905260808901849052606089018590528860208101604082018860028111156117f9576117f9613797565b600281111561180a5761180a613797565b90529790975250505093909252509195945050505050565b6040805160008082526020820190925260006118807f74625544000000000000000000000000556c74696d617465446f6d696e696f6e8360027e79070001141414141414000000000000000000000000000000000000000000611b38565b60601c9392505050565b60408051600280825260608201835260009283929190602083019080368337019050509050836001600160a01b031660001b816000815181106118cf576118cf613b07565b6020026020010181815250508260001b816001815181106118f2576118f2613b07565b602090810291909101015260006119327f74625544000000000000000000000000436f756e7465727300000000000000008383630100080160dd1b611b38565b95945050505050565b604080516002808252606082018352600092602083019080368337019050509050836001600160a01b031660001b8160008151811061197c5761197c613b07565b6020026020010181815250508260001b8160018151811061199f5761199f613b07565b602002602001018181525050611a057f74625544000000000000000000000000436f756e74657273000000000000000060001b826000856040516020016119e891815260200190565b60408051601f19818403018152919052630100080160dd1b611a83565b50505050565b6000611a1960706010613a95565b6fffffffffffffffffffffffffffffffff198316901c601084901c7dffffffffffffffffffffffffffff00000000000000000000000000000000167fffff0000000000000000000000000000000000000000000000000000000000008616171790505b9392505050565b6000611a8d611e49565b9050306001600160a01b03821603611ab157611aac8686868686611ffe565b611515565b6040517f390baae00000000000000000000000000000000000000000000000000000000081526001600160a01b0382169063390baae090611afe9089908990899089908990600401613c3f565b600060405180830381600087803b158015611b1857600080fd5b505af1158015611b2c573d6000803e3d6000fd5b50505050505050505050565b600080611b43611e49565b9050306001600160a01b03821603611b6957611b6186868686612013565b915050610ef4565b6040517f8c364d590000000000000000000000000000000000000000000000000000000081526001600160a01b03821690638c364d5990611bb4908990899089908990600401613c86565b602060405180830381865afa158015611bd1573d6000803e3d6000fd5b505050506040513d601f19601f82011682018060405250810190611b619190613cb5565b60006103fe7f7462000000000000000000000000000000000000000000000000000000000000837f546f6b656e555249000000000000000000000000000000000000000000000000611a0b565b604080516001808252818301909252600091602080830190803683370190505090508260001b81600081518110611c7b57611c7b613b07565b602002602001018181525050611a058482600085612040565b6040805160018082528183019092526000918291829160208083019080368337019050509050837bffffffffffffffffffffffffffffffffffffffffffffffffffffffff191681600081518110611ced57611ced613b07565b602090810291909101015260008080611d467f7462776f726c6400000000000000000046756e6374696f6e53656c6563746f72857e240200200400000000000000000000000000000000000000000000000000006116da565b925092509250611d578383836120f1565b9550955050505050915091565b60606000611d7061163e565b90506001600160a01b0381163003611db1576000611d98611d8f610c57565b60008787612109565b9350905080611daa57611daa83612244565b50506103fe565b6040517f3ae7af080000000000000000000000000000000000000000000000000000000081526001600160a01b03821690633ae7af0890611df890879087906004016139ec565b6000604051808303816000875af1158015611e17573d6000803e3d6000fd5b505050506040513d6000823e601f3d908101601f19168201604052610ef49190810190613a4a565b600061041f61224c565b7f629a4c26e296b22a8e0856e9f6ecb2d1008d7e00081111962cd175fa7488e175546000906001600160a01b031680611e83573391505090565b919050565b6060600060606000611e99856122aa565b9050611ea68787836122cd565b93506000611eb386612306565b90508015611f8557611ec58888612343565b935066ffffffffffffff841667ffffffffffffffff811115611ee957611ee9613841565b6040519080825280601f01601f191660200182016040528015611f13576020820181803683370190505b5092506020830160005b828160ff161015611f82576000611f358b8b84612356565b90506000611f52888460ff166028026038011c64ffffffffff1690565b9050611f6182600083876123d6565b611f6b8185613a95565b935050508080611f7a90613cce565b915050611f1d565b50505b505093509350939050565b600080600080600080600080611faa896000016020015190565b60408a015160608b0151919950975060f81c6002811115611fcd57611fcd613797565b60618a015160818b015160a18c015160c18d015160e1909d01519b9d9a9c939b929a91995097509195509350915050565b6109b7858561200d84876124a2565b856124d3565b60006119326120228686612777565b60ff858116601b0360080285901c1661203b85876124a2565b6127cd565b600061204a611e49565b9050306001600160a01b0382160361206d576120688585858561281e565b6109b7565b6040517fef6ea8620000000000000000000000000000000000000000000000000000000081526001600160a01b0382169063ef6ea862906120b8908890889088908890600401613ced565b600060405180830381600087803b1580156120d257600080fd5b505af11580156120e6573d6000803e3d6000fd5b505050505050505050565b6000806120fd85612859565b90969095509350505050565b600060606000806121198661286e565b90925090506001600160a01b03821661216a578561213687612912565b6040517ffbf10ce60000000000000000000000000000000000000000000000000000000081526004016104ae9291906139ec565b80612179576121798689612a40565b86156121e5577dffffffffffffffffffffffffffff0000000000000000000000000000000086167f6e730000000000000000000000000000000000000000000000000000000000001760006121cd82612a8c565b90506121e2826121dd8b84613a95565b612b05565b50505b60006121f18760101b90565b7fffffffffffffffffffffffffffff00000000000000000000000000000000000016146122295761222488888488612ba1565b612235565b61223588888488612c19565b90999098509650505050505050565b805160208201fd5b6040805160008082526020820190925260006118807f74625544000000000000000000000000556c74696d617465446f6d696e696f6e8360017e79070001141414141414000000000000000000000000000000000000000000611b38565b600060086122ba60026020613d2c565b6122c49190613d3f565b9190911c919050565b6060816000036122ec5750604080516020810190915260008152611a7c565b60006122f88585612777565b905061193281600085612c7a565b6000600860018061231960026020613d2c565b6123239190613d2c565b61232d9190613d2c565b6123379190613d3f565b8260ff911c1692915050565b6000611a7c6123528484612c9d565b5490565b6000838360405160200161236b929190613d56565b604051602081830303815290604052805190602001208260f81b7effffffffffffffffffffffffffffffffffffffffffffffffffffffffffffff19167f3b4102da22e32d82fc925482184f16c09fd4281692720b87d124aef6da48a0f1181860001c90509392505050565b821561245d5760208310612400576020830484019350602083816123fc576123fc613d92565b0692505b821561245d5760208390036000818410156124235750600019600884021c61242d565b50600019600882021c5b8554600886021b81845116821982161784525081841161244e575050611a05565b50600194909401939182900391015b5b6020821061247f5783548152600190930192601f199091019060200161245e565b8115611a05576000600019600884021c8251865482191691161782525050505050565b600080805b8360ff1681101561067e576124c960ff601b83900360080287901c1683613a95565b91506001016124a7565b7f6f74000000000000000000000000000000000000000000000000000000000000847fffff000000000000000000000000000000000000000000000000000000000000160361255d57837f8c0b5119d4cec7b284c6b1b39252a03d1e2f2d7451a5895562524c113bb952be84848460405161255093929190613da8565b60405180910390a2611a05565b60006125698585612777565b9050600061257686612cf3565b905060005b815181101561264b57600082828151811061259857612598613b07565b602002602001015190506125c46004826affffffffffffffffffffff1916612d7c90919063ffffffff16565b15612642576040517f964f667d000000000000000000000000000000000000000000000000000000008152606082901c9063964f667d9061260f908b908b908b908b90600401613ddb565b600060405180830381600087803b15801561262957600080fd5b505af115801561263d573d6000803e3d6000fd5b505050505b5060010161257b565b50857f8c0b5119d4cec7b284c6b1b39252a03d1e2f2d7451a5895562524c113bb952be86868660405161268093929190613da8565b60405180910390a261269b828565ffffffffffff1685612d9a565b60005b815181101561276e5760008282815181106126bb576126bb613b07565b602002602001015190506126e76008826affffffffffffffffffffff1916612d7c90919063ffffffff16565b15612765576040517fa8ba8721000000000000000000000000000000000000000000000000000000008152606082901c9063a8ba872190612732908b908b908b908b90600401613ddb565b600060405180830381600087803b15801561274c57600080fd5b505af1158015612760573d6000803e3d6000fd5b505050505b5060010161269e565b50505050505050565b6000828260405160200161278c929190613d56565b60408051601f1981840301815291905280516020909101207f86425bff6b57326c7859e89024fe4f238ca327a1ae4a230180dd2f0e88aaa7d9189392505050565b6000602082106127f3576020820484019350602082816127ef576127ef613d92565b0691505b508254600882021b60208290038084111561067e576001850154600882021c82179150509392505050565b600061282a8585612343565b90506000612847828560ff166028026038011c64ffffffffff1690565b90506115158686866000858888612db0565b602081015160408201516000905b9050915091565b604080516001808252818301909252600091829182916020808301908036833701905050905083816000815181106128a8576128a8613b07565b6020908102919091010152600080806129017f7462776f726c6400000000000000000053797374656d73000000000000000000857e15020014010000000000000000000000000000000000000000000000000000611e88565b925092509250611d578383836131ea565b606081601081901b6000612925836131f6565b9050827fffffffffffffffffffffffffffff0000000000000000000000000000000000008316156129805761297b7fffffffffffffffffffffffffffff000000000000000000000000000000000000841661320d565b6129b7565b6040518060400160405280600681526020017f3c726f6f743e00000000000000000000000000000000000000000000000000008152505b6fffffffffffffffffffffffffffffffff198316156129de576129d98361320d565b612a15565b6040518060400160405280600681526020017f3c726f6f743e00000000000000000000000000000000000000000000000000008152505b604051602001612a2793929190613e14565b6040516020818303038152906040529350505050919050565b612a4a8282613293565b61106757612a5782612912565b816040517fd787b7370000000000000000000000000000000000000000000000000000000081526004016104ae929190613ea2565b604080516001808252818301909252600091829190602080830190803683370190505090508281600081518110612ac557612ac5613b07565b60209081029190910101526000610ef47f7462776f726c6400000000000000000042616c616e63657300000000000000008383630100080160dd1b612013565b604080516001808252818301909252600091602080830190803683370190505090508281600081518110612b3b57612b3b613b07565b602002602001018181525050610dd37f7462776f726c6400000000000000000042616c616e636573000000000000000060001b82600085604051602001612b8491815260200190565b60408051601f19818403018152919052630100080160dd1b611ffe565b60006060836001600160a01b03166000612bbc8589896132f1565b604051612bc99190613ecd565b60006040518083038185875af1925050503d8060008114612c06576040519150601f19603f3d011682016040523d82523d6000602084013e612c0b565b606091505b509097909650945050505050565b60006060836001600160a01b0316612c328488886132f1565b604051612c3f9190613ecd565b600060405180830381855af49150503d8060008114612c06576040519150601f19603f3d011682016040523d82523d6000602084013e612c0b565b60405160208101601f19603f848401011660405282825261067e858585846123d6565b60008282604051602001612cb2929190613d56565b60408051601f1981840301815291905280516020909101207f14e2fcc58e58e68ec7edc30c8d50dccc3ce2714a623ec81f46b6a63922d76569189392505050565b60408051600180825281830190925260609160009190602080830190803683370190505090508281600081518110612d2d57612d2d613b07565b60209081029190910101526000612d657f746273746f726500000000000000000053746f7265486f6f6b730000000000008383613320565b9050610ef4612d77826000845161335a565b6133e8565b60008160ff1682612d8d8560581c90565b1660ff1614905092915050565b610dd383838351612dab8560200190565b6133f9565b7f7462000000000000000000000000000000000000000000000000000000000000877fffff0000000000000000000000000000000000000000000000000000000000001614612e70577f74620000000000000000000000000000000000000000000000000000000000008788604051602001612e2e91815260200190565b60408051601f19818403018152908290527f31b466830000000000000000000000000000000000000000000000000000000082526104ae939291600401613ee9565b6000612e8b828760ff166028026038011c64ffffffffff1690565b9050600083518564ffffffffff1683612ea49190613d2c565b612eae9190613a95565b9050808214158015612ed0575081612ec68688613f2a565b64ffffffffff1614155b15612f20576040517fa65010b400000000000000000000000000000000000000000000000000000000815264ffffffffff80881660048301528087166024830152831660448201526064016104ae565b818664ffffffffff161115612f71576040517f7e8578d30000000000000000000000000000000000000000000000000000000081526004810183905264ffffffffff871660248201526044016104ae565b6000612f7e8489846134b8565b90506000612f8b8b612cf3565b905060005b8151811015613056576000828281518110612fad57612fad613b07565b60200260200101519050612fd96010826affffffffffffffffffffff1916612d7c90919063ffffffff16565b1561304d57606081901c6001600160a01b03166355eb5a288e8e8e8e8e8d8f6040518863ffffffff1660e01b815260040161301a9796959493929190613f4f565b600060405180830381600087803b15801561303457600080fd5b505af1158015613048573d6000803e3d6000fd5b505050505b50600101612f90565b5064ffffffffff881660005b8a60ff168160ff16101561309557613089878260ff166028026038011c64ffffffffff1690565b90910190600101613062565b508b7ffe158a7adba34e256807c8a149028d3162918713c3838afc643ce9f96716ebfd8c8c848c888d6040516130d096959493929190613fad565b60405180910390a2508284146130f15760006130ec8c8c612c9d565b839055505b60006130fe8c8c8c612356565b9050613112818a64ffffffffff1689612d9a565b5060005b81518110156131dc57600082828151811061313357613133613b07565b6020026020010151905061315f6020826affffffffffffffffffffff1916612d7c90919063ffffffff16565b156131d357606081901c6001600160a01b031663635845338e8e8e8e8e8a8f6040518863ffffffff1660e01b81526004016131a09796959493929190613f4f565b600060405180830381600087803b1580156131ba57600080fd5b505af11580156131ce573d6000803e3d6000fd5b505050505b50600101613116565b505050505050505050505050565b6000806120fd85613586565b600061320460706010613a95565b9190911b919050565b606060005b6010811015613263576fffffffffffffffffffffffffffffffff198316600882021b7fff00000000000000000000000000000000000000000000000000000000000000161561326357600101613212565b604080516fffffffffffffffffffffffffffffffff19851660208201528151603090910190915281815280610ef4565b60006132e17f6e730000000000000000000000000000000000000000000000000000000000007dffffffffffffffffffffffffffff00000000000000000000000000000000851617836135a2565b80611a7c5750611a7c83836135a2565b606083838360405160200161330893929190614009565b60405160208183030381529060405290509392505050565b6060610ef4613330858585612356565b6000613355856133408989612343565b9060ff166028026038011c64ffffffffff1690565b612c7a565b60008183118061336a5750835182115b156133a7578383836040517f23230fa30000000000000000000000000000000000000000000000000000000081526004016104ae93929190614048565b602084016133b58482613a95565b905060006133c38585613d2c565b6fffffffffffffffffffffffffffffffff1660809290921b9190911795945050505050565b60606000611a7c836015600061366b565b821561347357602083106134235760208304840193506020838161341f5761341f613d92565b0692505b82156134735760208390036000600019600885021c1990506008850281811c91508351811c9050811987541682821617875550818411613464575050611a05565b50600194909401939182900391015b5b602082106134955780518455600190930192601f1990910190602001613474565b8115611a05576000600019600884021c8554835182191691161785555050505050565b600064ffffffffff8211156134fc576040517f7149a3c1000000000000000000000000000000000000000000000000000000008152600481018390526024016104ae565b8366ffffffffffffff811660ff851660280260380182901c64ffffffffff1680851061352e5780850382019150613536565b848103820391505b5064ffffffffff6038602860ff8816020181811b197fffffffffffffffffffffffffffffffffffffffffffffffffff000000000000009490941690921792909216918416901b1790509392505050565b6020810151603482015160609190911c9060009060f81c612867565b6040805160028082526060820183526000928392919060208301908036833701905050905083816000815181106135db576135db613b07565b602002602001018181525050826001600160a01b031660001b8160018151811061360757613607613b07565b6020908102919091010152600061365f7f7462776f726c640000000000000000005265736f75726365416363657373000083837e01010001000000000000000000000000000000000000000000000000000000612013565b90506119328160f81c90565b606060006136798560801c90565b90506fffffffffffffffffffffffffffffffff8516600085828161369f5761369f613d92565b04905060405193506020840160208202810160405281855260005b828110156136da578451871c8252938701936020909101906001016136ba565b50505050509392505050565b60405180610100016040528060008152602001600081526020016000600281111561371357613713613797565b815260200160008152602001600081526020016000815260200160008152602001600081525090565b60006020828403121561374e57600080fd5b5035919050565b60006020828403121561376757600080fd5b81357fffffffff0000000000000000000000000000000000000000000000000000000081168114611a7c57600080fd5b634e487b7160e01b600052602160045260246000fd5b60038110610b8257634e487b7160e01b600052602160045260246000fd5b815181526020808301519082015260408201516101008201906137ed816137ad565b80604084015250606083015160608301526080830151608083015260a083015160a083015260c083015160c083015260e083015160e083015292915050565b6001600160a01b0381168114610b8257600080fd5b634e487b7160e01b600052604160045260246000fd5b604051601f8201601f1916810167ffffffffffffffff8111828210171561388057613880613841565b604052919050565b600067ffffffffffffffff8211156138a2576138a2613841565b50601f01601f191660200190565b6000806000606084860312156138c557600080fd5b83356138d08161382c565b925060208401359150604084013567ffffffffffffffff8111156138f357600080fd5b8401601f8101861361390457600080fd5b803561391761391282613888565b613857565b81815287602083850101111561392c57600080fd5b816020840160208301376000602083830101528093505050509250925092565b60208101613959836137ad565b91905290565b60008060006060848603121561397457600080fd5b833592506020840135915060408401356003811061399157600080fd5b809150509250925092565b60005b838110156139b757818101518382015260200161399f565b50506000910152565b600081518084526139d881602086016020860161399c565b601f01601f19169290920160200192915050565b828152604060208201526000610ef460408301846139c0565b600082601f830112613a1657600080fd5b8151613a2461391282613888565b818152846020838601011115613a3957600080fd5b610ef482602083016020870161399c565b600060208284031215613a5c57600080fd5b815167ffffffffffffffff811115613a7357600080fd5b610ef484828501613a05565b634e487b7160e01b600052601160045260246000fd5b808201808211156103fe576103fe613a7f565b60006000198203613abb57613abb613a7f565b5060010190565b600060208284031215613ad457600080fd5b8151611a7c8161382c565b838152613aeb836137ad565b82602082015260606040820152600061193260608301846139c0565b634e487b7160e01b600052603260045260246000fd5b6000815160208301517fffffffff0000000000000000000000000000000000000000000000000000000080821693506004831015613b655780818460040360031b1b83161693505b505050919050565b60008151808452602080850194506020840160005b83811015613b9e57815187529582019590820190600101613b82565b509495945050505050565b838152606060208201526000613bc26060830185613b6d565b9050826040830152949350505050565b600080600060608486031215613be757600080fd5b835167ffffffffffffffff80821115613bff57600080fd5b613c0b87838801613a05565b9450602086015193506040860151915080821115613c2857600080fd5b50613c3586828701613a05565b9150509250925092565b85815260a060208201526000613c5860a0830187613b6d565b60ff861660408401528281036060840152613c7381866139c0565b9150508260808301529695505050505050565b848152608060208201526000613c9f6080830186613b6d565b60ff949094166040830152506060015292915050565b600060208284031215613cc757600080fd5b5051919050565b600060ff821660ff8103613ce457613ce4613a7f565b60010192915050565b848152608060208201526000613d066080830186613b6d565b60ff851660408401528281036060840152613d2181856139c0565b979650505050505050565b818103818111156103fe576103fe613a7f565b80820281158282048414176103fe576103fe613a7f565b8281526000602080830184516020860160005b82811015613d8557815184529284019290840190600101613d69565b5091979650505050505050565b634e487b7160e01b600052601260045260246000fd5b606081526000613dbb6060830186613b6d565b65ffffffffffff851660208401528281036040840152610c4d81856139c0565b848152608060208201526000613df46080830186613b6d565b65ffffffffffff851660408401528281036060840152613d2181856139c0565b7fffff0000000000000000000000000000000000000000000000000000000000008416815260007f3a000000000000000000000000000000000000000000000000000000000000008060028401528451613e7581600386016020890161399c565b808401905081600382015284519150613e9582600483016020880161399c565b0160040195945050505050565b604081526000613eb560408301856139c0565b90506001600160a01b03831660208301529392505050565b60008251613edf81846020870161399c565b9190910192915050565b7fffff0000000000000000000000000000000000000000000000000000000000008416815282602082015260606040820152600061193260608301846139c0565b64ffffffffff818116838216019080821115613f4857613f48613a7f565b5092915050565b87815260e060208201526000613f6860e0830189613b6d565b60ff8816604084015264ffffffffff87811660608501528616608084015260a0830185905282810360c0840152613f9f81856139c0565b9a9950505050505050505050565b60c081526000613fc060c0830189613b6d565b60ff8816602084015265ffffffffffff8716604084015264ffffffffff8616606084015284608084015282810360a0840152613ffc81856139c0565b9998505050505050505050565b6000845161401b81846020890161399c565b60609490941b6bffffffffffffffffffffffff191691909301908152601481019190915260340192915050565b60608152600061405b60608301866139c0565b6020830194909452506040015291905056fea264697066735822122071d5215233486db6b7059d18eceb6921ec0aca01a484e5c8e8a2c6c2b2b684bd64736f6c63430008180033","linkReferences":{}},"methodIdentifiers":{"_msgSender()":"119df25f","_msgValue()":"45ec9354","_world()":"e1af802c","enterGame(bytes32)":"c74dedc8","getCharacterTokenId(bytes32)":"f8c67561","getClass(bytes32)":"23801570","getCurrentLevel(uint256)":"3d0854ae","getExperience(bytes32)":"ebee03bb","getName(bytes32)":"54b8d5e3","getOwner(bytes32)":"deb931a2","getOwnerAddress(bytes32)":"00d43ec6","getPlayerEntityId(uint256)":"8338f0e0","getStats(bytes32)":"0bb700dc","isValidCharacterId(bytes32)":"623daa05","mintCharacter(address,bytes32,string)":"143f3021","rollStats(bytes32,bytes32,uint8)":"679ee16d","supportsInterface(bytes4)":"01ffc9a7"},"id":211}