{"abi":[{"type":"function","name":"_msgSender","inputs":[],"outputs":[{"name":"sender","type":"address","internalType":"address"}],"stateMutability":"view"},{"type":"function","name":"_msgValue","inputs":[],"outputs":[{"name":"value","type":"uint256","internalType":"uint256"}],"stateMutability":"pure"},{"type":"function","name":"_world","inputs":[],"outputs":[{"name":"","type":"address","internalType":"address"}],"stateMutability":"view"},{"type":"function","name":"enterGame","inputs":[{"name":"characterId","type":"bytes32","internalType":"bytes32"}],"outputs":[],"stateMutability":"nonpayable"},{"type":"function","name":"getBaseStats","inputs":[{"name":"characterId","type":"bytes32","internalType":"bytes32"}],"outputs":[{"name":"","type":"tuple","internalType":"struct StatsData","components":[{"name":"strength","type":"int256","internalType":"int256"},{"name":"agility","type":"int256","internalType":"int256"},{"name":"class","type":"uint8","internalType":"enum Classes"},{"name":"intelligence","type":"int256","internalType":"int256"},{"name":"maxHp","type":"int256","internalType":"int256"},{"name":"currentHp","type":"int256","internalType":"int256"},{"name":"experience","type":"uint256","internalType":"uint256"},{"name":"level","type":"uint256","internalType":"uint256"}]}],"stateMutability":"view"},{"type":"function","name":"getCharacterTokenId","inputs":[{"name":"characterId","type":"bytes32","internalType":"bytes32"}],"outputs":[{"name":"","type":"uint256","internalType":"uint256"}],"stateMutability":"pure"},{"type":"function","name":"getClass","inputs":[{"name":"characterId","type":"bytes32","internalType":"bytes32"}],"outputs":[{"name":"_class","type":"uint8","internalType":"enum Classes"}],"stateMutability":"view"},{"type":"function","name":"getCurrentAvailableLevel","inputs":[{"name":"experience","type":"uint256","internalType":"uint256"}],"outputs":[{"name":"currentAvailableLevel","type":"uint256","internalType":"uint256"}],"stateMutability":"view"},{"type":"function","name":"getExperience","inputs":[{"name":"characterId","type":"bytes32","internalType":"bytes32"}],"outputs":[{"name":"","type":"uint256","internalType":"uint256"}],"stateMutability":"view"},{"type":"function","name":"getName","inputs":[{"name":"characterId","type":"bytes32","internalType":"bytes32"}],"outputs":[{"name":"_name","type":"bytes32","internalType":"bytes32"}],"stateMutability":"view"},{"type":"function","name":"getOwner","inputs":[{"name":"characterId","type":"bytes32","internalType":"bytes32"}],"outputs":[{"name":"","type":"address","internalType":"address"}],"stateMutability":"view"},{"type":"function","name":"getOwnerAddress","inputs":[{"name":"characterId","type":"bytes32","internalType":"bytes32"}],"outputs":[{"name":"","type":"address","internalType":"address"}],"stateMutability":"pure"},{"type":"function","name":"getPlayerEntityId","inputs":[{"name":"characterTokenId","type":"uint256","internalType":"uint256"}],"outputs":[{"name":"characterId","type":"bytes32","internalType":"bytes32"}],"stateMutability":"view"},{"type":"function","name":"getStats","inputs":[{"name":"characterId","type":"bytes32","internalType":"bytes32"}],"outputs":[{"name":"","type":"tuple","internalType":"struct StatsData","components":[{"name":"strength","type":"int256","internalType":"int256"},{"name":"agility","type":"int256","internalType":"int256"},{"name":"class","type":"uint8","internalType":"enum Classes"},{"name":"intelligence","type":"int256","internalType":"int256"},{"name":"maxHp","type":"int256","internalType":"int256"},{"name":"currentHp","type":"int256","internalType":"int256"},{"name":"experience","type":"uint256","internalType":"uint256"},{"name":"level","type":"uint256","internalType":"uint256"}]}],"stateMutability":"view"},{"type":"function","name":"isValidCharacterId","inputs":[{"name":"characterId","type":"bytes32","internalType":"bytes32"}],"outputs":[{"name":"","type":"bool","internalType":"bool"}],"stateMutability":"view"},{"type":"function","name":"isValidOwner","inputs":[{"name":"characterId","type":"bytes32","internalType":"bytes32"},{"name":"owner","type":"address","internalType":"address"}],"outputs":[{"name":"","type":"bool","internalType":"bool"}],"stateMutability":"view"},{"type":"function","name":"levelCharacter","inputs":[{"name":"characterId","type":"bytes32","internalType":"bytes32"},{"name":"desiredStats","type":"tuple","internalType":"struct StatsData","components":[{"name":"strength","type":"int256","internalType":"int256"},{"name":"agility","type":"int256","internalType":"int256"},{"name":"class","type":"uint8","internalType":"enum Classes"},{"name":"intelligence","type":"int256","internalType":"int256"},{"name":"maxHp","type":"int256","internalType":"int256"},{"name":"currentHp","type":"int256","internalType":"int256"},{"name":"experience","type":"uint256","internalType":"uint256"},{"name":"level","type":"uint256","internalType":"uint256"}]}],"outputs":[],"stateMutability":"nonpayable"},{"type":"function","name":"mintCharacter","inputs":[{"name":"account","type":"address","internalType":"address"},{"name":"name","type":"bytes32","internalType":"bytes32"},{"name":"tokenUri","type":"string","internalType":"string"}],"outputs":[{"name":"characterId","type":"bytes32","internalType":"bytes32"}],"stateMutability":"nonpayable"},{"type":"function","name":"rollStats","inputs":[{"name":"userRandomNumber","type":"bytes32","internalType":"bytes32"},{"name":"characterId","type":"bytes32","internalType":"bytes32"},{"name":"class","type":"uint8","internalType":"enum Classes"}],"outputs":[],"stateMutability":"payable"},{"type":"function","name":"setStats","inputs":[{"name":"entityId","type":"bytes32","internalType":"bytes32"},{"name":"stats","type":"tuple","internalType":"struct AdjustedCombatStats","components":[{"name":"strength","type":"int256","internalType":"int256"},{"name":"agility","type":"int256","internalType":"int256"},{"name":"intelligence","type":"int256","internalType":"int256"},{"name":"armor","type":"int256","internalType":"int256"},{"name":"maxHp","type":"int256","internalType":"int256"},{"name":"currentHp","type":"int256","internalType":"int256"}]}],"outputs":[],"stateMutability":"nonpayable"},{"type":"function","name":"supportsInterface","inputs":[{"name":"interfaceId","type":"bytes4","internalType":"bytes4"}],"outputs":[{"name":"","type":"bool","internalType":"bool"}],"stateMutability":"pure"},{"type":"function","name":"updateTokenUri","inputs":[{"name":"characterId","type":"bytes32","internalType":"bytes32"},{"name":"tokenUri","type":"string","internalType":"string"}],"outputs":[],"stateMutability":"nonpayable"},{"type":"event","name":"Store_SetRecord","inputs":[{"name":"tableId","type":"bytes32","indexed":true,"internalType":"ResourceId"},{"name":"keyTuple","type":"bytes32[]","indexed":false,"internalType":"bytes32[]"},{"name":"staticData","type":"bytes","indexed":false,"internalType":"bytes"},{"name":"encodedLengths","type":"bytes32","indexed":false,"internalType":"EncodedLengths"},{"name":"dynamicData","type":"bytes","indexed":false,"internalType":"bytes"}],"anonymous":false},{"type":"event","name":"Store_SpliceDynamicData","inputs":[{"name":"tableId","type":"bytes32","indexed":true,"internalType":"ResourceId"},{"name":"keyTuple","type":"bytes32[]","indexed":false,"internalType":"bytes32[]"},{"name":"dynamicFieldIndex","type":"uint8","indexed":false,"internalType":"uint8"},{"name":"start","type":"uint48","indexed":false,"internalType":"uint48"},{"name":"deleteCount","type":"uint40","indexed":false,"internalType":"uint40"},{"name":"encodedLengths","type":"bytes32","indexed":false,"internalType":"EncodedLengths"},{"name":"data","type":"bytes","indexed":false,"internalType":"bytes"}],"anonymous":false},{"type":"event","name":"Store_SpliceStaticData","inputs":[{"name":"tableId","type":"bytes32","indexed":true,"internalType":"ResourceId"},{"name":"keyTuple","type":"bytes32[]","indexed":false,"internalType":"bytes32[]"},{"name":"start","type":"uint48","indexed":false,"internalType":"uint48"},{"name":"data","type":"bytes","indexed":false,"internalType":"bytes"}],"anonymous":false},{"type":"error","name":"EncodedLengths_InvalidLength","inputs":[{"name":"length","type":"uint256","internalType":"uint256"}]},{"type":"error","name":"Slice_OutOfBounds","inputs":[{"name":"data","type":"bytes","internalType":"bytes"},{"name":"start","type":"uint256","internalType":"uint256"},{"name":"end","type":"uint256","internalType":"uint256"}]},{"type":"error","name":"Store_IndexOutOfBounds","inputs":[{"name":"length","type":"uint256","internalType":"uint256"},{"name":"accessedIndex","type":"uint256","internalType":"uint256"}]},{"type":"error","name":"Store_InvalidResourceType","inputs":[{"name":"expected","type":"bytes2","internalType":"bytes2"},{"name":"resourceId","type":"bytes32","internalType":"ResourceId"},{"name":"resourceIdString","type":"string","internalType":"string"}]},{"type":"error","name":"Store_InvalidSplice","inputs":[{"name":"startWithinField","type":"uint40","internalType":"uint40"},{"name":"deleteCount","type":"uint40","internalType":"uint40"},{"name":"fieldLength","type":"uint40","internalType":"uint40"}]},{"type":"error","name":"World_AccessDenied","inputs":[{"name":"resource","type":"string","internalType":"string"},{"name":"caller","type":"address","internalType":"address"}]},{"type":"error","name":"World_FunctionSelectorNotFound","inputs":[{"name":"functionSelector","type":"bytes4","internalType":"bytes4"}]},{"type":"error","name":"World_ResourceNotFound","inputs":[{"name":"resourceId","type":"bytes32","internalType":"ResourceId"},{"name":"resourceIdString","type":"string","internalType":"string"}]}],"bytecode":{"object":"0x608060405234801561001057600080fd5b50615aee80620000216000396000f3fe6080604052600436106101745760003560e01c8063623daa05116100cb578063b27cbcbb1161007f578063e1af802c11610059578063e1af802c14610411578063ebee03bb14610426578063f8c675611461044657600080fd5b8063b27cbcbb146103b1578063c74dedc8146103d1578063deb931a2146103f157600080fd5b80637163c6ba116100b05780637163c6ba146103515780638338f0e0146103715780639b63ec051461039157600080fd5b8063623daa051461031e578063679ee16d1461033e57600080fd5b8063143f30211161012d578063238015701161010757806323801570146102b957806345ec9354146102e657806354b8d5e3146102fe57600080fd5b8063143f30211461024b5780631b5cdcc4146102795780631ecb393f1461029957600080fd5b806309a4fa6e1161015e57806309a4fa6e146101e75780630bb700dc14610209578063119df25f1461023657600080fd5b8062d43ec61461017957806301ffc9a7146101b7575b600080fd5b34801561018557600080fd5b5061019a610194366004614cb8565b60601c90565b6040516001600160a01b0390911681526020015b60405180910390f35b3480156101c357600080fd5b506101d76101d2366004614cd1565b610472565b60405190151581526020016101ae565b3480156101f357600080fd5b50610207610202366004614da7565b61050b565b005b34801561021557600080fd5b50610229610224366004614cb8565b6106e8565b6040516101ae9190614e55565b34801561024257600080fd5b5061019a6106f9565b34801561025757600080fd5b5061026b610266366004614f49565b610708565b6040519081526020016101ae565b34801561028557600080fd5b50610207610294366004614faf565b610965565b3480156102a557600080fd5b5061026b6102b4366004614cb8565b610d08565b3480156102c557600080fd5b506102d96102d4366004614cb8565b610d86565b6040516101ae9190615049565b3480156102f257600080fd5b5036601f19013561026b565b34801561030a57600080fd5b5061026b610319366004614cb8565b610d91565b34801561032a57600080fd5b506101d7610339366004614cb8565b610d9c565b61020761034c36600461505c565b610ec8565b34801561035d57600080fd5b5061022961036c366004614cb8565b611050565b34801561037d57600080fd5b5061026b61038c366004614cb8565b611074565b34801561039d57600080fd5b506101d76103ac366004615095565b611109565b3480156103bd57600080fd5b506102076103cc3660046150c5565b6111d0565b3480156103dd57600080fd5b506102076103ec366004614cb8565b61124c565b3480156103fd57600080fd5b5061019a61040c366004614cb8565b61147a565b34801561041d57600080fd5b5061019a611485565b34801561043257600080fd5b5061026b610441366004614cb8565b61148f565b34801561045257600080fd5b5061026b610461366004614cb8565b6bffffffffffffffffffffffff1690565b60007fffffffff0000000000000000000000000000000000000000000000000000000082167fb5dee12700000000000000000000000000000000000000000000000000000000148061050557507fffffffff0000000000000000000000000000000000000000000000000000000082167f01ffc9a700000000000000000000000000000000000000000000000000000000145b92915050565b61051c306105176106f9565b61149a565b6000610527836114b0565b9050610531611485565b6001600160a01b031663fa1becc4846040518263ffffffff1660e01b815260040161055e91815260200190565b602060405180830381865afa15801561057b573d6000803e3d6000fd5b505050506040513d601f19601f8201168201806040525081019061059f919061510c565b156105dd5781518152602080830151908201526040820151606080830191909152608080840151908301528201516105d8908490611562565b6106d9565b6105e5611485565b6001600160a01b031663bace814a846040518263ffffffff1660e01b815260040161061291815260200190565b602060405180830381865afa15801561062f573d6000803e3d6000fd5b505050506040513d601f19601f82011682018060405250810190610653919061510c565b1561068c5781518152602080830151908201526040820151606080830191909152608080840151908301528201516105d8908490611616565b60405162461bcd60e51b815260206004820152600f60248201527f756e7265636f676e697a6564206964000000000000000000000000000000000060448201526064015b60405180910390fd5b6106e383826116ca565b505050565b6106f0614c62565b610505826114b0565b6000610703611773565b905090565b6000806107136117a5565b90506bffffffffffffffffffffffff81106107965760405162461bcd60e51b815260206004820152602360248201527f43484152414341544552533a204d61782063686172616374657273207265616360448201527f686564000000000000000000000000000000000000000000000000000000000060648201526084016106d0565b61079e611485565b6001600160a01b0316633ae7af086107d57f43686172616374657273000000000000000000000000000000000000000000006117d8565b6040516001600160a01b03891660248201526044810185905260640160408051601f198184030181529181526020820180517bffffffffffffffffffffffffffffffffffffffffffffffffffffffff167f40c10f1900000000000000000000000000000000000000000000000000000000179052517fffffffff0000000000000000000000000000000000000000000000000000000060e085901b16815261088192919060040161517e565b6000604051808303816000875af11580156108a0573d6000803e3d6000fd5b505050506040513d6000823e601f3d908101601f191682016040526108c891908101906151dc565b506108d281611074565b91506108de8286611825565b6108e882826118da565b6108f184611959565b1561093e5760405162461bcd60e51b815260206004820152601360248201527f4e616d6520616c7265616479206578697374730000000000000000000000000060448201526064016106d0565b6109498460016119e6565b6109538285611a87565b61095d8184611b06565b509392505050565b81610972816103ac6106f9565b6109c95760405162461bcd60e51b815260206004820152602260248201527f4348415241435445522053595354454d3a20494e56414c4944204f504552415460448201526127a960f11b60648201526084016106d0565b6109d1611485565b6001600160a01b03166385fcd3bd846040518263ffffffff1660e01b81526004016109fe91815260200190565b602060405180830381865afa158015610a1b573d6000803e3d6000fd5b505050506040513d601f19601f82011682018060405250810190610a3f919061510c565b15610a8c5760405162461bcd60e51b815260206004820152601660248201527f63616e6e6f74206c6576656c20696e20636f6d6261740000000000000000000060448201526064016106d0565b6000610a9784611b39565b806020019051810190610aaa9190615211565b9050610ab584611bac565b60a082015260c0810151600090610acb90610d08565b90508160e00151811115610aed5760e08201805190610ae9826152a1565b9052505b81518451600091610afd916152bb565b9050600083602001518660200151610b1591906152bb565b9050600084606001518760600151610b2d91906152bb565b9050600281610b3c84866152e2565b610b4691906152e2565b14610bb95760405162461bcd60e51b815260206004820152602560248201527f4348415241435445522053595354454d3a20494e56414c49442053544154204360448201527f48414e474500000000000000000000000000000000000000000000000000000060648201526084016106d0565b84604001516002811115610bcf57610bcf614e1e565b60ff16158015610bed575060038560e00151610beb9190615320565b155b15610c0957600185608001818151610c0591906152e2565b9052505b600185608001818151610c1c91906152e2565b90525086518552602080880151908601526060808801519086015260e08501805160019190610c4c908390615342565b905250604051610c7a908990610c66908890602001614e55565b604051602081830303815290604052611c3e565b610cfe88610c86611485565b6001600160a01b031663a543a0c58b6040518263ffffffff1660e01b8152600401610cb391815260200190565b60c060405180830381865afa158015610cd0573d6000803e3d6000fd5b505050506040513d601f19601f82011682018060405250810190610cf49190615355565b8760e00151611cac565b5050505050505050565b6000610d146013611d0f565b8210610d2257506014919050565b60005b6014811015610d805782610d3882611d0f565b11158015610d57575082610d55610d50836001615342565b611d0f565b115b15610d6e57610d67816001615342565b9150610d80565b80610d78816152a1565b915050610d25565b50919050565b600061050582611d8b565b600061050582611e35565b600080610da98360601c90565b90506bffffffffffffffffffffffff83166000610dc4611eb2565b6001600160a01b0316636352211e836040518263ffffffff1660e01b8152600401610df191815260200190565b602060405180830381865afa925050508015610e2a575060408051601f3d908101601f19168201909252610e27918101906153af565b60015b15610ea957610e37611eb2565b6001600160a01b0316636352211e846040518263ffffffff1660e01b8152600401610e6491815260200190565b602060405180830381865afa158015610e81573d6000803e3d6000fd5b505050506040513d601f19601f82011682018060405250810190610ea591906153af565b9150505b826001600160a01b0316816001600160a01b0316149350505050919050565b81610ed5816103ac6106f9565b610f2c5760405162461bcd60e51b815260206004820152602260248201527f4348415241435445522053595354454d3a20494e56414c4944204f504552415460448201526127a960f11b60648201526084016106d0565b610f3583611ebc565b15610fa85760405162461bcd60e51b815260206004820152602b60248201527f434841524143544552533a2063686172616374657220616c726561647920696e60448201527f2067616d6520776f726c6400000000000000000000000000000000000000000060648201526084016106d0565b6001610fb48484611f39565b611048858286604051602001610fcc91815260200190565b60408051601f1981840301815290829052610feb9392916024016153cc565b60408051601f198184030181529190526020810180517bffffffffffffffffffffffffffffffffffffffffffffffffffffffff167fb2aa60a400000000000000000000000000000000000000000000000000000000179052612022565b505050505050565b611058614c62565b61106182611b39565b8060200190518101906105059190615211565b60008061107f611eb2565b6001600160a01b0316636352211e846040518263ffffffff1660e01b81526004016110ac91815260200190565b602060405180830381865afa1580156110c9573d6000803e3d6000fd5b505050506040513d601f19601f820116820180604052508101906110ed91906153af565b60601b6bffffffffffffffffffffffff19169290921792915050565b600061111483610d9c565b80156111c95750816001600160a01b031661112d611eb2565b6040517f6352211e0000000000000000000000000000000000000000000000000000000081526bffffffffffffffffffffffff861660048201526001600160a01b039190911690636352211e90602401602060405180830381865afa15801561119a573d6000803e3d6000fd5b505050506040513d601f19601f820116820180604052508101906111be91906153af565b6001600160a01b0316145b9392505050565b816111dd816103ac6106f9565b6112345760405162461bcd60e51b815260206004820152602260248201527f4348415241435445522053595354454d3a20494e56414c4944204f504552415460448201526127a960f11b60648201526084016106d0565b6106e36bffffffffffffffffffffffff841683611b06565b80611259816103ac6106f9565b6112b05760405162461bcd60e51b815260206004820152602260248201527f4348415241435445522053595354454d3a20494e56414c4944204f504552415460448201526127a960f11b60648201526084016106d0565b6112b982611ebc565b156113065760405162461bcd60e51b815260206004820152601960248201527f796f75206861766520656e7465726564207468652067616d650000000000000060448201526064016106d0565b6000611311836114b0565b600160e0820152608081015160a0820152905061132e83826116ca565b611336611485565b6040517ffda0ce5000000000000000000000000000000000000000000000000000000000815260048101859052674563918244f4000060248201526001600160a01b03919091169063fda0ce5090604401600060405180830381600087803b1580156113a157600080fd5b505af11580156113b5573d6000803e3d6000fd5b505050506113c1611485565b6001600160a01b031663f9d175ed846040518263ffffffff1660e01b81526004016113ee91815260200190565b600060405180830381600087803b15801561140857600080fd5b505af115801561141c573d6000803e3d6000fd5b50505050600061142b846120d0565b60016060820152604051909150600090611449908490602001614e55565b60408051601f1981840301815291905260a0830181905260808301819052905061147385836121a2565b5050505050565b600061050582612297565b600061070361231f565b600061050582612329565b6114ac6114a6836123bb565b82612440565b5050565b6114b8614c62565b6040805160018082528183019092526000916020808301908036833701905050905082816000815181106114ee576114ee6153f4565b6020908102919091010152600080806115477f7462554400000000000000000000000053746174730000000000000000000000857ee108002020012020202020000000000000000000000000000000000000000061248c565b92509250925061155883838361255c565b9695505050505050565b604080516001808252818301909252600091602080830190803683370190505090508281600081518110611598576115986153f4565b6020026020010181815250506106e37f7462554400000000000000000000000043686172616374657245717569706d6560001b826004856040516020016115e191815260200190565b60408051601f198184030181529190527ea00504202020202000000000000000000000000000000000000000000000006125d4565b60408051600180825281830190925260009160208083019080368337019050509050828160008151811061164c5761164c6153f4565b6020026020010181815250506106e37f746255440000000000000000000000004d6f625374617473000000000000000060001b8260008560405160200161169591815260200190565b60408051601f198184030181529190527e200101200000000000000000000000000000000000000000000000000000006125d4565b60006116fc826000015183602001518460400151856060015186608001518760a001518860c001518960e00151612689565b60408051600180825281830190925291925060009160609183919060208083019080368337019050509050858160008151811061173b5761173b6153f4565b60209081029190910101526110487f7462554400000000000000000000000053746174730000000000000000000000828686866126c7565b7fffffffffffffffffffffffffffffffffffffffffffffffffffffffffffffffcc36013560601c806117a25750335b90565b6000806117b061273d565b905060006117bf8260006127a5565b6117ca906001615342565b905061050582600083612856565b60006105057f7379000000000000000000000000000000000000000000000000000000000000837f45524337323153797374656d0000000000000000000000000000000000000000612920565b60408051600180825281830190925260009160208083019080368337019050509050828160008151811061185b5761185b6153f4565b6020026020010181815250506106e37f746255440000000000000000000000004368617261637465727300000000000060001b826001856040516020016118ba919060609190911b6bffffffffffffffffffffffff1916815260140190565b60408051601f19818403018152919052665504022014200160c01b6125d4565b604080516001808252818301909252600091602080830190803683370190505090508281600081518110611910576119106153f4565b6020026020010181815250506106e37f746255440000000000000000000000004368617261637465727300000000000060001b826000856040516020016118ba91815260200190565b604080516001808252818301909252600091829190602080830190803683370190505090508281600081518110611992576119926153f4565b602090810291909101015260006119d27f746255440000000000000000000000004e616d654578697374730000000000008383630101000160d81b612997565b90506119de8160f81c90565b949350505050565b604080516001808252818301909252600091602080830190803683370190505090508281600081518110611a1c57611a1c6153f4565b6020026020010181815250506106e37f746255440000000000000000000000004e616d6545786973747300000000000060001b82600085604051602001611a6a91151560f81b815260010190565b60408051601f19818403018152919052630101000160d81b6125d4565b604080516001808252818301909252600091602080830190803683370190505090508281600081518110611abd57611abd6153f4565b6020026020010181815250506106e37f746255440000000000000000000000004368617261637465727300000000000060001b826002856040516020016118ba91815260200190565b6114ac611b327f4368617261637465727300000000000000000000000000000000000000000000612a54565b8383612aa1565b60408051600180825281830190925260609160009190602080830190803683370190505090508281600081518110611b7357611b736153f4565b602090810291909101015260006119de7f7462554400000000000000000000000043686172616374657273000000000000836001612af3565b604080516001808252818301909252600091829190602080830190803683370190505090508281600081518110611be557611be56153f4565b602090810291909101015260006119de7f74625544000000000000000000000000537461747300000000000000000000008360057ee1080020200120202020200000000000000000000000000000000000000000612997565b604080516001808252818301909252600091602080830190803683370190505090508281600081518110611c7457611c746153f4565b60209081029190910101526106e37f746255440000000000000000000000004368617261637465727300000000000082600185612bb2565b6000611cb7846114b0565b8351815260208085015190820152604084015160608083019190915260808086018051918401919091525160a083015260e08201849052840151909150611cff908590611562565b611d0984826116ca565b50505050565b604080516001808252818301909252600091829190602080830190803683370190505090508260001b81600081518110611d4b57611d4b6153f4565b602090810291909101015260006119de7f746255440000000000000000000000004c6576656c73000000000000000000008383630100080160dd1b612997565b604080516001808252818301909252600091829190602080830190803683370190505090508281600081518110611dc457611dc46153f4565b60209081029190910101526000611e1d7f74625544000000000000000000000000537461747300000000000000000000008360027ee1080020200120202020200000000000000000000000000000000000000000612997565b905060f881901c60028111156119de576119de614e1e565b604080516001808252818301909252600091829190602080830190803683370190505090508281600081518110611e6e57611e6e6153f4565b602090810291909101015260006119de7f7462554400000000000000000000000043686172616374657273000000000000836002665504022014200160c01b612997565b600061070361273d565b604080516001808252818301909252600091829190602080830190803683370190505090508281600081518110611ef557611ef56153f4565b602090810291909101015260006119d27f7462554400000000000000000000000043686172616374657273000000000000836003665504022014200160c01b612997565b604080516001808252818301909252600091602080830190803683370190505090508281600081518110611f6f57611f6f6153f4565b60209081029190910101526106e37f74625544000000000000000000000000537461747300000000000000000000008260028581811115611fb257611fb2614e1e565b604051602001611fed919060f89190911b7fff0000000000000000000000000000000000000000000000000000000000000016815260010190565b60408051601f198184030181529190527ee10800202001202020202000000000000000000000000000000000000000006125d4565b60606000806120386120338561540a565b612c63565b91509150816000801b0361209e576040517ffdde54e20000000000000000000000000000000000000000000000000000000081527fffffffff000000000000000000000000000000000000000000000000000000006000351660048201526024016106d0565b6020840180517bffffffffffffffffffffffffffffffffffffffffffffffffffffffff16821790526119de8285612d33565b6121176040518060c001604052806000815260200160006001600160a01b031681526020016000801916815260200160001515815260200160608152602001606081525090565b60408051600180825281830190925260009160208083019080368337019050509050828160008151811061214d5761214d6153f4565b6020908102919091010152600080806121917f746255440000000000000000000000004368617261637465727300000000000085665504022014200160c01b61248c565b925092509250611558838383612e0e565b80516020808301516040808501516060808701518351958601969096529290921b6bffffffffffffffffffffffff191683820152605483019190915291151560f81b6074820152815180820360550181526075909101909152600061220f83608001518460a00151612e95565b9050600061222584608001518560a00151612eb2565b6040805160018082528183019092529192506000919060208083019080368337019050509050858160008151811061225f5761225f6153f4565b60209081029190910101526110487f7462554400000000000000000000000043686172616374657273000000000000828686866126c7565b6040805160018082528183019092526000918291906020808301908036833701905050905082816000815181106122d0576122d06153f4565b602090810291909101015260006123147f7462554400000000000000000000000043686172616374657273000000000000836001665504022014200160c01b612997565b60601c949350505050565b6000610703612ede565b604080516001808252818301909252600091829190602080830190803683370190505090508281600081518110612362576123626153f4565b602090810291909101015260006119de7f74625544000000000000000000000000537461747300000000000000000000008360067ee1080020200120202020200000000000000000000000000000000000000000612997565b60408051600180825281830190925260009182919060208083019080368337019050509050826001600160a01b031660001b81600081518110612400576124006153f4565b602090810291909101015260006119de7f7462776f726c6400000000000000000053797374656d526567697374727900008383630100080160dd1b612997565b61244a8282612f1d565b6114ac5761245782612f7b565b816040517fd787b7370000000000000000000000000000000000000000000000000000000081526004016106d0929190615456565b606060006060600061249c612ede565b9050306001600160a01b038216036124c5576124b98787876130a9565b93509350935050612553565b6040517f419b58fd0000000000000000000000000000000000000000000000000000000081526001600160a01b0382169063419b58fd9061250e908a908a908a906004016154bd565b600060405180830381865afa15801561252b573d6000803e3d6000fd5b505050506040513d6000823e601f3d908101601f191682016040526124b991908101906154e6565b93509350939050565b612564614c62565b61256d846131b1565b60e0890181905260c0890182905260a0890183905260808901849052606089018590528860208101604082018860028111156125ab576125ab614e1e565b60028111156125bc576125bc614e1e565b90529790975250505093909252509195945050505050565b60006125de612ede565b9050306001600160a01b03821603612602576125fd868686868661321f565b611048565b6040517f390baae00000000000000000000000000000000000000000000000000000000081526001600160a01b0382169063390baae09061264f9089908990899089908990600401615549565b600060405180830381600087803b15801561266957600080fd5b505af115801561267d573d6000803e3d6000fd5b50505050505050505050565b606088888888888888886040516020016126aa989796959493929190615590565b604051602081830303815290604052905098975050505050505050565b60006126d1612ede565b9050306001600160a01b038216036126f0576125fd8686868686613234565b6040517f298314fb0000000000000000000000000000000000000000000000000000000081526001600160a01b0382169063298314fb9061264f90899089908990899089906004016155d5565b60408051600080825260208201909252600061279b7f74625544000000000000000000000000556c74696d617465446f6d696e696f6e8360027e79070001141414141414000000000000000000000000000000000000000000612997565b60601c9392505050565b60408051600280825260608201835260009283929190602083019080368337019050509050836001600160a01b031660001b816000815181106127ea576127ea6153f4565b6020026020010181815250508260001b8160018151811061280d5761280d6153f4565b6020908102919091010152600061284d7f74625544000000000000000000000000436f756e7465727300000000000000008383630100080160dd1b612997565b95945050505050565b604080516002808252606082018352600092602083019080368337019050509050836001600160a01b031660001b81600081518110612897576128976153f4565b6020026020010181815250508260001b816001815181106128ba576128ba6153f4565b602002602001018181525050611d097f74625544000000000000000000000000436f756e74657273000000000000000060001b8260008560405160200161290391815260200190565b60408051601f19818403018152919052630100080160dd1b6125d4565b600061292e60706010615342565b6fffffffffffffffffffffffffffffffff198316901c601084901c7dffffffffffffffffffffffffffff00000000000000000000000000000000167fffff0000000000000000000000000000000000000000000000000000000000008616171790509392505050565b6000806129a2612ede565b9050306001600160a01b038216036129c8576129c08686868661324a565b9150506119de565b6040517f8c364d590000000000000000000000000000000000000000000000000000000081526001600160a01b03821690638c364d5990612a13908990899089908990600401615626565b602060405180830381865afa158015612a30573d6000803e3d6000fd5b505050506040513d601f19601f820116820180604052508101906129c09190615655565b60006105057f7462000000000000000000000000000000000000000000000000000000000000837f546f6b656e555249000000000000000000000000000000000000000000000000612920565b604080516001808252818301909252600091602080830190803683370190505090508260001b81600081518110612ada57612ada6153f4565b602002602001018181525050611d098482600085612bb2565b60606000612aff612ede565b9050306001600160a01b03821603612b2457612b1c858585613277565b9150506111c9565b6040517f1e7889770000000000000000000000000000000000000000000000000000000081526001600160a01b03821690631e78897790612b6d9088908890889060040161566e565b600060405180830381865afa158015612b8a573d6000803e3d6000fd5b505050506040513d6000823e601f3d908101601f19168201604052612b1c91908101906151dc565b6000612bbc612ede565b9050306001600160a01b03821603612bdf57612bda858585856132b1565b611473565b6040517fef6ea8620000000000000000000000000000000000000000000000000000000081526001600160a01b0382169063ef6ea86290612c2a90889088908890889060040161569a565b600060405180830381600087803b158015612c4457600080fd5b505af1158015612c58573d6000803e3d6000fd5b505050505050505050565b6040805160018082528183019092526000918291829160208083019080368337019050509050837bffffffffffffffffffffffffffffffffffffffffffffffffffffffff191681600081518110612cbc57612cbc6153f4565b602090810291909101015260008080612d157f7462776f726c6400000000000000000046756e6374696f6e53656c6563746f72857e2402002004000000000000000000000000000000000000000000000000000061248c565b925092509250612d268383836132ec565b9550955050505050915091565b60606000612d3f61231f565b90506001600160a01b0381163003612d80576000612d67612d5e611773565b60008787613304565b9350905080612d7957612d798361343f565b5050610505565b6040517f3ae7af080000000000000000000000000000000000000000000000000000000081526001600160a01b03821690633ae7af0890612dc7908790879060040161517e565b6000604051808303816000875af1158015612de6573d6000803e3d6000fd5b505050506040513d6000823e601f3d908101601f191682016040526119de91908101906151dc565b612e556040518060c001604052806000815260200160006001600160a01b031681526020016000801916815260200160001515815260200160608152602001606081525090565b612e5e84613447565b1515606085015260408401526001600160a01b031660208301528152612e848383613489565b60a083015260808201529392505050565b8151815160009181810160389190911b1760609190911b176111c9565b60608282604051602001612ec79291906156d9565b604051602081830303815290604052905092915050565b7f629a4c26e296b22a8e0856e9f6ecb2d1008d7e00081111962cd175fa7488e175546000906001600160a01b031680612f18573391505090565b919050565b6000612f6b7f6e730000000000000000000000000000000000000000000000000000000000007dffffffffffffffffffffffffffff00000000000000000000000000000000851617836134d8565b806111c957506111c983836134d8565b606081601081901b6000612f8e83613589565b9050827fffffffffffffffffffffffffffff000000000000000000000000000000000000831615612fe957612fe47fffffffffffffffffffffffffffff00000000000000000000000000000000000084166135a0565b613020565b6040518060400160405280600681526020017f3c726f6f743e00000000000000000000000000000000000000000000000000008152505b6fffffffffffffffffffffffffffffffff1983161561304757613042836135a0565b61307e565b6040518060400160405280600681526020017f3c726f6f743e00000000000000000000000000000000000000000000000000008152505b60405160200161309093929190615708565b6040516020818303038152906040529350505050919050565b60606000606060006130ba85613626565b90506130c7878783613649565b935060006130d486613682565b905080156131a6576130e688886136bf565b935066ffffffffffffff841667ffffffffffffffff81111561310a5761310a614d13565b6040519080825280601f01601f191660200182016040528015613134576020820181803683370190505b5092506020830160005b828160ff1610156131a35760006131568b8b846136d2565b90506000613173888460ff166028026038011c64ffffffffff1690565b90506131828260008387613752565b61318c8185615342565b93505050808061319b90615796565b91505061313e565b50505b505093509350939050565b6000806000806000806000806131cb896000016020015190565b60408a015160608b0151919950975060f81c60028111156131ee576131ee614e1e565b60618a015160818b015160a18c015160c18d015160e1909d01519b9d9a9c939b929a91995097509195509350915050565b611473858561322e848761381e565b8561384f565b61147385858585856132458b613af3565b613b78565b600061284d6132598686613eb1565b60ff858116601b0360080285901c16613272858761381e565b613f07565b60606119de6132878585856136d2565b60006132ac8561329789896136bf565b9060ff166028026038011c64ffffffffff1690565b613f58565b60006132bd85856136bf565b905060006132da828560ff166028026038011c64ffffffffff1690565b90506110488686866000858888613f7b565b6000806132f8856143b5565b90969095509350505050565b60006060600080613314866143ca565b90925090506001600160a01b038216613365578561333187612f7b565b6040517ffbf10ce60000000000000000000000000000000000000000000000000000000081526004016106d092919061517e565b8061337457613374868961446e565b86156133e0577dffffffffffffffffffffffffffff0000000000000000000000000000000086167f6e730000000000000000000000000000000000000000000000000000000000001760006133c882614478565b90506133dd826133d88b84615342565b6144f1565b50505b60006133ec8760101b90565b7fffffffffffffffffffffffffffff00000000000000000000000000000000000016146134245761341f8888848861458d565b613430565b61343088888488614605565b90999098509650505050505050565b805160208201fd5b60008060008061345b856000016020015190565b6040860151605487015191955060601c93506074860151909250613480905b60f81c90565b90509193509193565b6060806000603885901c64ffffffffff166134ad6134a8868484614666565b6146f4565b935090508064ffffffffff606087901c16016134cd6134a8868484614666565b925050509250929050565b604080516002808252606082018352600092839291906020830190803683370190505090508381600081518110613511576135116153f4565b602002602001018181525050826001600160a01b031660001b8160018151811061353d5761353d6153f4565b6020908102919091010152600061357d7f7462776f726c640000000000000000005265736f7572636541636365737300008383630101000160d81b612997565b905061284d8160f81c90565b600061359760706010615342565b9190911b919050565b606060005b60108110156135f6576fffffffffffffffffffffffffffffffff198316600882021b7fff0000000000000000000000000000000000000000000000000000000000000016156135f6576001016135a5565b604080516fffffffffffffffffffffffffffffffff198516602082015281516030909101909152818152806119de565b60006008613636600260206157b5565b61364091906157c8565b9190911c919050565b60608160000361366857506040805160208101909152600081526111c9565b60006136748585613eb1565b905061284d81600085613f58565b60006008600180613695600260206157b5565b61369f91906157b5565b6136a991906157b5565b6136b391906157c8565b8260ff911c1692915050565b60006111c96136ce8484614774565b5490565b600083836040516020016136e79291906157df565b604051602081830303815290604052805190602001208260f81b7effffffffffffffffffffffffffffffffffffffffffffffffffffffffffffff19167f3b4102da22e32d82fc925482184f16c09fd4281692720b87d124aef6da48a0f1181860001c90509392505050565b82156137d9576020831061377c576020830484019350602083816137785761377861530a565b0692505b82156137d957602083900360008184101561379f5750600019600884021c6137a9565b50600019600882021c5b8554600886021b8184511682198216178452508184116137ca575050611d09565b50600194909401939182900391015b5b602082106137fb5783548152600190930192601f19909101906020016137da565b8115611d09576000600019600884021c8251865482191691161782525050505050565b600080805b8360ff1681101561095d5761384560ff601b83900360080287901c1683615342565b9150600101613823565b7f6f74000000000000000000000000000000000000000000000000000000000000847fffff00000000000000000000000000000000000000000000000000000000000016036138d957837f8c0b5119d4cec7b284c6b1b39252a03d1e2f2d7451a5895562524c113bb952be8484846040516138cc9392919061581b565b60405180910390a2611d09565b60006138e58585613eb1565b905060006138f2866147ca565b905060005b81518110156139c7576000828281518110613914576139146153f4565b602002602001015190506139406004826affffffffffffffffffffff191661485390919063ffffffff16565b156139be576040517f964f667d000000000000000000000000000000000000000000000000000000008152606082901c9063964f667d9061398b908b908b908b908b9060040161584e565b600060405180830381600087803b1580156139a557600080fd5b505af11580156139b9573d6000803e3d6000fd5b505050505b506001016138f7565b50857f8c0b5119d4cec7b284c6b1b39252a03d1e2f2d7451a5895562524c113bb952be8686866040516139fc9392919061581b565b60405180910390a2613a17828565ffffffffffff1685614871565b60005b8151811015613aea576000828281518110613a3757613a376153f4565b60200260200101519050613a636008826affffffffffffffffffffff191661485390919063ffffffff16565b15613ae1576040517fa8ba8721000000000000000000000000000000000000000000000000000000008152606082901c9063a8ba872190613aae908b908b908b908b9060040161584e565b600060405180830381600087803b158015613ac857600080fd5b505af1158015613adc573d6000803e3d6000fd5b505050505b50600101613a1a565b50505050505050565b60007f8b9d8c8b908d9affffffffffffffffffab9e9d939a8d000000000000000000008201613b4257507e60030220202000000000000000000000000000000000000000000000000000919050565b610505613b6f7f746273746f72650000000000000000005461626c65730000000000000000000084614887565b60206000613f07565b7f6f74000000000000000000000000000000000000000000000000000000000000867fffff0000000000000000000000000000000000000000000000000000000000001603613c0457857f8dbb3a9672eebfd3773e72dd9c102393436816d832c7ba9e1e1ac8fcadcac7a986868686604051613bf79493929190615887565b60405180910390a2611048565b6000613c0f876147ca565b905060005b8151811015613ce8576000828281518110613c3157613c316153f4565b60200260200101519050613c5d6001826affffffffffffffffffffff191661485390919063ffffffff16565b15613cdf576040517f57066c9c000000000000000000000000000000000000000000000000000000008152606082901c906357066c9c90613cac908c908c908c908c908c908c906004016158c6565b600060405180830381600087803b158015613cc657600080fd5b505af1158015613cda573d6000803e3d6000fd5b505050505b50600101613c14565b50867f8dbb3a9672eebfd3773e72dd9c102393436816d832c7ba9e1e1ac8fcadcac7a987878787604051613d1f9493929190615887565b60405180910390a26000613d338888613eb1565b90506000602087019050613d4b8260008951846148a3565b6000613d5685613682565b1115613dda576000613d688a8a614774565b878155905060208601915060008060005b613d8288613682565b8160ff161015613dd557613d978d8d836136d2565b9250613db28a8260ff166028026038011c64ffffffffff1690565b9150613dc183600084886148a3565b613dcb8286615342565b9450600101613d79565b505050505b60005b835181101561267d576000848281518110613dfa57613dfa6153f4565b60200260200101519050613e266002826affffffffffffffffffffff191661485390919063ffffffff16565b15613ea8576040517f5b28cdaf000000000000000000000000000000000000000000000000000000008152606082901c90635b28cdaf90613e75908e908e908e908e908e908e906004016158c6565b600060405180830381600087803b158015613e8f57600080fd5b505af1158015613ea3573d6000803e3d6000fd5b505050505b50600101613ddd565b60008282604051602001613ec69291906157df565b60408051601f1981840301815291905280516020909101207f86425bff6b57326c7859e89024fe4f238ca327a1ae4a230180dd2f0e88aaa7d9189392505050565b600060208210613f2d57602082048401935060208281613f2957613f2961530a565b0691505b508254600882021b60208290038084111561095d576001850154600882021c82179150509392505050565b60405160208101601f19603f848401011660405282825261095d85858584613752565b7f7462000000000000000000000000000000000000000000000000000000000000877fffff000000000000000000000000000000000000000000000000000000000000161461403b577f74620000000000000000000000000000000000000000000000000000000000008788604051602001613ff991815260200190565b60408051601f19818403018152908290527f31b466830000000000000000000000000000000000000000000000000000000082526106d093929160040161591f565b6000614056828760ff166028026038011c64ffffffffff1690565b9050600083518564ffffffffff168361406f91906157b5565b6140799190615342565b905080821415801561409b5750816140918688615960565b64ffffffffff1614155b156140eb576040517fa65010b400000000000000000000000000000000000000000000000000000000815264ffffffffff80881660048301528087166024830152831660448201526064016106d0565b818664ffffffffff16111561413c576040517f7e8578d30000000000000000000000000000000000000000000000000000000081526004810183905264ffffffffff871660248201526044016106d0565b6000614149848984614962565b905060006141568b6147ca565b905060005b8151811015614221576000828281518110614178576141786153f4565b602002602001015190506141a46010826affffffffffffffffffffff191661485390919063ffffffff16565b1561421857606081901c6001600160a01b03166355eb5a288e8e8e8e8e8d8f6040518863ffffffff1660e01b81526004016141e5979695949392919061597e565b600060405180830381600087803b1580156141ff57600080fd5b505af1158015614213573d6000803e3d6000fd5b505050505b5060010161415b565b5064ffffffffff881660005b8a60ff168160ff16101561426057614254878260ff166028026038011c64ffffffffff1690565b9091019060010161422d565b508b7ffe158a7adba34e256807c8a149028d3162918713c3838afc643ce9f96716ebfd8c8c848c888d60405161429b969594939291906159dc565b60405180910390a2508284146142bc5760006142b78c8c614774565b839055505b60006142c98c8c8c6136d2565b90506142dd818a64ffffffffff1689614871565b5060005b81518110156143a75760008282815181106142fe576142fe6153f4565b6020026020010151905061432a6020826affffffffffffffffffffff191661485390919063ffffffff16565b1561439e57606081901c6001600160a01b031663635845338e8e8e8e8e8a8f6040518863ffffffff1660e01b815260040161436b979695949392919061597e565b600060405180830381600087803b15801561438557600080fd5b505af1158015614399573d6000803e3d6000fd5b505050505b506001016142e1565b505050505050505050505050565b602081015160408201516000905b9050915091565b60408051600180825281830190925260009182918291602080830190803683370190505090508381600081518110614404576144046153f4565b60209081029190910101526000808061445d7f7462776f726c6400000000000000000053797374656d73000000000000000000857e150200140100000000000000000000000000000000000000000000000000006130a9565b925092509250612d26838383614a30565b61244a8282614a3c565b6040805160018082528183019092526000918291906020808301908036833701905050905082816000815181106144b1576144b16153f4565b602090810291909101015260006119de7f7462776f726c6400000000000000000042616c616e63657300000000000000008383630100080160dd1b61324a565b604080516001808252818301909252600091602080830190803683370190505090508281600081518110614527576145276153f4565b6020026020010181815250506106e37f7462776f726c6400000000000000000042616c616e636573000000000000000060001b8260008560405160200161457091815260200190565b60408051601f19818403018152919052630100080160dd1b61321f565b60006060836001600160a01b031660006145a8858989614a9a565b6040516145b59190615a38565b60006040518083038185875af1925050503d80600081146145f2576040519150601f19603f3d011682016040523d82523d6000602084013e6145f7565b606091505b509097909650945050505050565b60006060836001600160a01b031661461e848888614a9a565b60405161462b9190615a38565b600060405180830381855af49150503d80600081146145f2576040519150601f19603f3d011682016040523d82523d6000602084013e6145f7565b6000818311806146765750835182115b156146b3578383836040517f23230fa30000000000000000000000000000000000000000000000000000000081526004016106d093929190615a54565b602084016146c18482615342565b905060006146cf85856157b5565b6fffffffffffffffffffffffffffffffff1660809290921b9190911795945050505050565b606060006147028360801c90565b90506fffffffffffffffffffffffffffffffff83168067ffffffffffffffff81111561473057614730614d13565b6040519080825280601f01601f19166020018201604052801561475a576020820181803683370190505b5092506020830161476c838284614ac9565b505050919050565b600082826040516020016147899291906157df565b60408051601f1981840301815291905280516020909101207f14e2fcc58e58e68ec7edc30c8d50dccc3ce2714a623ec81f46b6a63922d76569189392505050565b60408051600180825281830190925260609160009190602080830190803683370190505090508281600081518110614804576148046153f4565b6020908102919091010152600061483c7f746273746f726500000000000000000053746f7265486f6f6b730000000000008383613277565b90506119de61484e8260008451614666565b614b14565b60008160ff16826148648560581c90565b1660ff1614905092915050565b6106e3838383516148828560200190565b6148a3565b6040805160208101849052908101829052600090606001613ec6565b821561491d57602083106148cd576020830484019350602083816148c9576148c961530a565b0692505b821561491d5760208390036000600019600885021c1990506008850281811c91508351811c905081198754168282161787555081841161490e575050611d09565b50600194909401939182900391015b5b6020821061493f5780518455600190930192601f199091019060200161491e565b8115611d09576000600019600884021c8554835182191691161785555050505050565b600064ffffffffff8211156149a6576040517f7149a3c1000000000000000000000000000000000000000000000000000000008152600481018390526024016106d0565b8366ffffffffffffff811660ff851660280260380182901c64ffffffffff168085106149d857808503820191506149e0565b848103820391505b5064ffffffffff6038602860ff8816020181811b197fffffffffffffffffffffffffffffffffffffffffffffffffff000000000000009490941690921792909216918416901b1790509392505050565b6000806132f885614b25565b6000614a8a7f6e730000000000000000000000000000000000000000000000000000000000007dffffffffffffffffffffffffffff0000000000000000000000000000000085161783614b42565b806111c957506111c98383614b42565b6060838383604051602001614ab193929190615a79565b60405160208183030381529060405290509392505050565b5b60208110614ae9578251825260209283019290910190601f1901614aca565b80600003614af657505050565b6000600019600883021c905080835116811985511617835250505050565b606060006111c98360156000614be7565b6020810151603482015160609190911c906000906143c39061347a565b604080516002808252606082018352600092839291906020830190803683370190505090508381600081518110614b7b57614b7b6153f4565b602002602001018181525050826001600160a01b031660001b81600181518110614ba757614ba76153f4565b6020908102919091010152600061357d7f7462776f726c640000000000000000005265736f7572636541636365737300008383630101000160d81b61324a565b60606000614bf58560801c90565b90506fffffffffffffffffffffffffffffffff85166000858281614c1b57614c1b61530a565b04905060405193506020840160208202810160405281855260005b82811015614c56578451871c825293870193602090910190600101614c36565b50505050509392505050565b604051806101000160405280600081526020016000815260200160006002811115614c8f57614c8f614e1e565b815260200160008152602001600081526020016000815260200160008152602001600081525090565b600060208284031215614cca57600080fd5b5035919050565b600060208284031215614ce357600080fd5b81357fffffffff00000000000000000000000000000000000000000000000000000000811681146111c957600080fd5b634e487b7160e01b600052604160045260246000fd5b60405160c0810167ffffffffffffffff81118282101715614d4c57614d4c614d13565b60405290565b604051610100810167ffffffffffffffff81118282101715614d4c57614d4c614d13565b604051601f8201601f1916810167ffffffffffffffff81118282101715614d9f57614d9f614d13565b604052919050565b60008082840360e0811215614dbb57600080fd5b8335925060c0601f1982011215614dd157600080fd5b50614dda614d29565b6020840135815260408401356020820152606084013560408201526080840135606082015260a0840135608082015260c084013560a0820152809150509250929050565b634e487b7160e01b600052602160045260246000fd5b60038110614e5257634e487b7160e01b600052602160045260246000fd5b50565b81518152602080830151908201526040820151610100820190614e7781614e34565b80604084015250606083015160608301526080830151608083015260a083015160a083015260c083015160c083015260e083015160e083015292915050565b6001600160a01b0381168114614e5257600080fd5b600067ffffffffffffffff821115614ee557614ee5614d13565b50601f01601f191660200190565b600082601f830112614f0457600080fd5b8135614f17614f1282614ecb565b614d76565b818152846020838601011115614f2c57600080fd5b816020850160208301376000918101602001919091529392505050565b600080600060608486031215614f5e57600080fd5b8335614f6981614eb6565b925060208401359150604084013567ffffffffffffffff811115614f8c57600080fd5b614f9886828701614ef3565b9150509250925092565b60038110614e5257600080fd5b600080828403610120811215614fc457600080fd5b8335925061010080601f1983011215614fdc57600080fd5b614fe4614d52565b91506020850135825260408501356020830152606085013561500581614fa2565b806040840152506080850135606083015260a0850135608083015260c085013560a083015260e085013560c08301528085013560e083015250809150509250929050565b6020810161505683614e34565b91905290565b60008060006060848603121561507157600080fd5b8335925060208401359150604084013561508a81614fa2565b809150509250925092565b600080604083850312156150a857600080fd5b8235915060208301356150ba81614eb6565b809150509250929050565b600080604083850312156150d857600080fd5b82359150602083013567ffffffffffffffff8111156150f657600080fd5b61510285828601614ef3565b9150509250929050565b60006020828403121561511e57600080fd5b815180151581146111c957600080fd5b60005b83811015615149578181015183820152602001615131565b50506000910152565b6000815180845261516a81602086016020860161512e565b601f01601f19169290920160200192915050565b8281526040602082015260006119de6040830184615152565b600082601f8301126151a857600080fd5b81516151b6614f1282614ecb565b8181528460208386010111156151cb57600080fd5b6119de82602083016020870161512e565b6000602082840312156151ee57600080fd5b815167ffffffffffffffff81111561520557600080fd5b6119de84828501615197565b6000610100828403121561522457600080fd5b61522c614d52565b8251815260208301516020820152604083015161524881614fa2565b80604083015250606083015160608201526080830151608082015260a083015160a082015260c083015160c082015260e083015160e08201528091505092915050565b634e487b7160e01b600052601160045260246000fd5b600060001982036152b4576152b461528b565b5060010190565b81810360008312801583831316838312821617156152db576152db61528b565b5092915050565b80820182811260008312801582168215821617156153025761530261528b565b505092915050565b634e487b7160e01b600052601260045260246000fd5b60008261533d57634e487b7160e01b600052601260045260246000fd5b500690565b808201808211156105055761050561528b565b600060c0828403121561536757600080fd5b61536f614d29565b825181526020830151602082015260408301516040820152606083015160608201526080830151608082015260a083015160a08201528091505092915050565b6000602082840312156153c157600080fd5b81516111c981614eb6565b8381526153d883614e34565b82602082015260606040820152600061284d6060830184615152565b634e487b7160e01b600052603260045260246000fd5b6000815160208301517fffffffff000000000000000000000000000000000000000000000000000000008082169350600483101561476c5760049290920360031b82901b161692915050565b6040815260006154696040830185615152565b90506001600160a01b03831660208301529392505050565b60008151808452602080850194506020840160005b838110156154b257815187529582019590820190600101615496565b509495945050505050565b8381526060602082015260006154d66060830185615481565b9050826040830152949350505050565b6000806000606084860312156154fb57600080fd5b835167ffffffffffffffff8082111561551357600080fd5b61551f87838801615197565b945060208601519350604086015191508082111561553c57600080fd5b50614f9886828701615197565b85815260a06020820152600061556260a0830187615481565b60ff86166040840152828103606084015261557d8186615152565b9150508260808301529695505050505050565b8881528760208201526155a287614e34565b60f89690961b604087015260418601949094526061850192909252608184015260a183015260c182015260e10192915050565b85815260a0602082015260006155ee60a0830187615481565b82810360408401526156008187615152565b9050846060840152828103608084015261561a8185615152565b98975050505050505050565b84815260806020820152600061563f6080830186615481565b60ff949094166040830152506060015292915050565b60006020828403121561566757600080fd5b5051919050565b8381526060602082015260006156876060830185615481565b905060ff83166040830152949350505050565b8481526080602082015260006156b36080830186615481565b60ff8516604084015282810360608401526156ce8185615152565b979650505050505050565b600083516156eb81846020880161512e565b8351908301906156ff81836020880161512e565b01949350505050565b7fffff0000000000000000000000000000000000000000000000000000000000008416815260007f3a00000000000000000000000000000000000000000000000000000000000000806002840152845161576981600386016020890161512e565b80840190508160038201528451915061578982600483016020880161512e565b0160040195945050505050565b600060ff821660ff81036157ac576157ac61528b565b60010192915050565b818103818111156105055761050561528b565b80820281158282048414176105055761050561528b565b8281526000602080830184516020860160005b8281101561580e578151845292840192908401906001016157f2565b5091979650505050505050565b60608152600061582e6060830186615481565b65ffffffffffff8516602084015282810360408401526115588185615152565b8481526080602082015260006158676080830186615481565b65ffffffffffff8516604084015282810360608401526156ce8185615152565b60808152600061589a6080830187615481565b82810360208401526158ac8187615152565b905084604084015282810360608401526156ce8185615152565b86815260c0602082015260006158df60c0830188615481565b82810360408401526158f18188615152565b9050856060840152828103608084015261590b8186615152565b9150508260a0830152979650505050505050565b7fffff0000000000000000000000000000000000000000000000000000000000008416815282602082015260606040820152600061284d6060830184615152565b64ffffffffff8181168382160190808211156152db576152db61528b565b87815260e06020820152600061599760e0830189615481565b60ff8816604084015264ffffffffff87811660608501528616608084015260a0830185905282810360c08401526159ce8185615152565b9a9950505050505050505050565b60c0815260006159ef60c0830189615481565b60ff8816602084015265ffffffffffff8716604084015264ffffffffff8616606084015284608084015282810360a0840152615a2b8185615152565b9998505050505050505050565b60008251615a4a81846020870161512e565b9190910192915050565b606081526000615a676060830186615152565b60208301949094525060400152919050565b60008451615a8b81846020890161512e565b60609490941b6bffffffffffffffffffffffff19169190930190815260148101919091526034019291505056fea2646970667358221220c356ee5f756bcecfc43beb4330042d0657ae92636eee6dbfba1961be3f84958a64736f6c63430008180033","linkReferences":{}},"methodIdentifiers":{"_msgSender()":"119df25f","_msgValue()":"45ec9354","_world()":"e1af802c","enterGame(bytes32)":"c74dedc8","getBaseStats(bytes32)":"7163c6ba","getCharacterTokenId(bytes32)":"f8c67561","getClass(bytes32)":"23801570","getCurrentAvailableLevel(uint256)":"1ecb393f","getExperience(bytes32)":"ebee03bb","getName(bytes32)":"54b8d5e3","getOwner(bytes32)":"deb931a2","getOwnerAddress(bytes32)":"00d43ec6","getPlayerEntityId(uint256)":"8338f0e0","getStats(bytes32)":"0bb700dc","isValidCharacterId(bytes32)":"623daa05","isValidOwner(bytes32,address)":"9b63ec05","levelCharacter(bytes32,(int256,int256,uint8,int256,int256,int256,uint256,uint256))":"1b5cdcc4","mintCharacter(address,bytes32,string)":"143f3021","rollStats(bytes32,bytes32,uint8)":"679ee16d","setStats(bytes32,(int256,int256,int256,int256,int256,int256))":"09a4fa6e","supportsInterface(bytes4)":"01ffc9a7","updateTokenUri(bytes32,string)":"b27cbcbb"},"id":255}