{"abi":[{"type":"function","name":"_msgSender","inputs":[],"outputs":[{"name":"sender","type":"address","internalType":"address"}],"stateMutability":"view"},{"type":"function","name":"_msgValue","inputs":[],"outputs":[{"name":"value","type":"uint256","internalType":"uint256"}],"stateMutability":"view"},{"type":"function","name":"_world","inputs":[],"outputs":[{"name":"","type":"address","internalType":"address"}],"stateMutability":"view"},{"type":"function","name":"choosePowerSource","inputs":[{"name":"characterId","type":"bytes32","internalType":"bytes32"},{"name":"powerSource","type":"uint8","internalType":"enum PowerSource"}],"outputs":[],"stateMutability":"nonpayable"},{"type":"function","name":"chooseRace","inputs":[{"name":"characterId","type":"bytes32","internalType":"bytes32"},{"name":"race","type":"uint8","internalType":"enum Race"}],"outputs":[],"stateMutability":"nonpayable"},{"type":"function","name":"chooseStartingArmor","inputs":[{"name":"characterId","type":"bytes32","internalType":"bytes32"},{"name":"armorType","type":"uint8","internalType":"enum ArmorType"}],"outputs":[],"stateMutability":"nonpayable"},{"type":"function","name":"enterGame","inputs":[{"name":"characterId","type":"bytes32","internalType":"bytes32"}],"outputs":[],"stateMutability":"nonpayable"},{"type":"function","name":"getAdvancedClass","inputs":[{"name":"characterId","type":"bytes32","internalType":"bytes32"}],"outputs":[{"name":"","type":"uint8","internalType":"enum AdvancedClass"}],"stateMutability":"view"},{"type":"function","name":"getBaseStats","inputs":[{"name":"characterId","type":"bytes32","internalType":"bytes32"}],"outputs":[{"name":"","type":"tuple","internalType":"struct StatsData","components":[{"name":"strength","type":"int256","internalType":"int256"},{"name":"agility","type":"int256","internalType":"int256"},{"name":"class","type":"uint8","internalType":"enum Classes"},{"name":"intelligence","type":"int256","internalType":"int256"},{"name":"maxHp","type":"int256","internalType":"int256"},{"name":"currentHp","type":"int256","internalType":"int256"},{"name":"experience","type":"uint256","internalType":"uint256"},{"name":"level","type":"uint256","internalType":"uint256"},{"name":"powerSource","type":"uint8","internalType":"enum PowerSource"},{"name":"race","type":"uint8","internalType":"enum Race"},{"name":"startingArmor","type":"uint8","internalType":"enum ArmorType"},{"name":"advancedClass","type":"uint8","internalType":"enum AdvancedClass"},{"name":"hasSelectedAdvancedClass","type":"bool","internalType":"bool"}]}],"stateMutability":"view"},{"type":"function","name":"getCharacterIdFromOwnerAddress","inputs":[{"name":"ownerAddress","type":"address","internalType":"address"}],"outputs":[{"name":"_characterId","type":"bytes32","internalType":"bytes32"}],"stateMutability":"view"},{"type":"function","name":"getCharacterTokenId","inputs":[{"name":"characterId","type":"bytes32","internalType":"bytes32"}],"outputs":[{"name":"","type":"uint256","internalType":"uint256"}],"stateMutability":"pure"},{"type":"function","name":"getClass","inputs":[{"name":"characterId","type":"bytes32","internalType":"bytes32"}],"outputs":[{"name":"_class","type":"uint8","internalType":"enum Classes"}],"stateMutability":"view"},{"type":"function","name":"getCurrentAvailableLevel","inputs":[{"name":"experience","type":"uint256","internalType":"uint256"}],"outputs":[{"name":"currentAvailableLevel","type":"uint256","internalType":"uint256"}],"stateMutability":"view"},{"type":"function","name":"getExperience","inputs":[{"name":"characterId","type":"bytes32","internalType":"bytes32"}],"outputs":[{"name":"","type":"uint256","internalType":"uint256"}],"stateMutability":"view"},{"type":"function","name":"getName","inputs":[{"name":"characterId","type":"bytes32","internalType":"bytes32"}],"outputs":[{"name":"_name","type":"bytes32","internalType":"bytes32"}],"stateMutability":"view"},{"type":"function","name":"getOwner","inputs":[{"name":"characterId","type":"bytes32","internalType":"bytes32"}],"outputs":[{"name":"","type":"address","internalType":"address"}],"stateMutability":"view"},{"type":"function","name":"getOwnerAddress","inputs":[{"name":"characterId","type":"bytes32","internalType":"bytes32"}],"outputs":[{"name":"","type":"address","internalType":"address"}],"stateMutability":"pure"},{"type":"function","name":"getPlayerEntityId","inputs":[{"name":"characterTokenId","type":"uint256","internalType":"uint256"}],"outputs":[{"name":"characterId","type":"bytes32","internalType":"bytes32"}],"stateMutability":"view"},{"type":"function","name":"getPowerSource","inputs":[{"name":"characterId","type":"bytes32","internalType":"bytes32"}],"outputs":[{"name":"","type":"uint8","internalType":"enum PowerSource"}],"stateMutability":"view"},{"type":"function","name":"getRace","inputs":[{"name":"characterId","type":"bytes32","internalType":"bytes32"}],"outputs":[{"name":"","type":"uint8","internalType":"enum Race"}],"stateMutability":"view"},{"type":"function","name":"getStartingArmor","inputs":[{"name":"characterId","type":"bytes32","internalType":"bytes32"}],"outputs":[{"name":"","type":"uint8","internalType":"enum ArmorType"}],"stateMutability":"view"},{"type":"function","name":"getStats","inputs":[{"name":"characterId","type":"bytes32","internalType":"bytes32"}],"outputs":[{"name":"","type":"tuple","internalType":"struct StatsData","components":[{"name":"strength","type":"int256","internalType":"int256"},{"name":"agility","type":"int256","internalType":"int256"},{"name":"class","type":"uint8","internalType":"enum Classes"},{"name":"intelligence","type":"int256","internalType":"int256"},{"name":"maxHp","type":"int256","internalType":"int256"},{"name":"currentHp","type":"int256","internalType":"int256"},{"name":"experience","type":"uint256","internalType":"uint256"},{"name":"level","type":"uint256","internalType":"uint256"},{"name":"powerSource","type":"uint8","internalType":"enum PowerSource"},{"name":"race","type":"uint8","internalType":"enum Race"},{"name":"startingArmor","type":"uint8","internalType":"enum ArmorType"},{"name":"advancedClass","type":"uint8","internalType":"enum AdvancedClass"},{"name":"hasSelectedAdvancedClass","type":"bool","internalType":"bool"}]}],"stateMutability":"view"},{"type":"function","name":"getValidAdvancedClass","inputs":[{"name":"characterId","type":"bytes32","internalType":"bytes32"}],"outputs":[{"name":"","type":"uint8","internalType":"enum AdvancedClass"}],"stateMutability":"view"},{"type":"function","name":"isValidCharacterId","inputs":[{"name":"characterId","type":"bytes32","internalType":"bytes32"}],"outputs":[{"name":"","type":"bool","internalType":"bool"}],"stateMutability":"view"},{"type":"function","name":"isValidOwner","inputs":[{"name":"characterId","type":"bytes32","internalType":"bytes32"},{"name":"owner","type":"address","internalType":"address"}],"outputs":[{"name":"","type":"bool","internalType":"bool"}],"stateMutability":"view"},{"type":"function","name":"levelCharacter","inputs":[{"name":"characterId","type":"bytes32","internalType":"bytes32"},{"name":"desiredStats","type":"tuple","internalType":"struct StatsData","components":[{"name":"strength","type":"int256","internalType":"int256"},{"name":"agility","type":"int256","internalType":"int256"},{"name":"class","type":"uint8","internalType":"enum Classes"},{"name":"intelligence","type":"int256","internalType":"int256"},{"name":"maxHp","type":"int256","internalType":"int256"},{"name":"currentHp","type":"int256","internalType":"int256"},{"name":"experience","type":"uint256","internalType":"uint256"},{"name":"level","type":"uint256","internalType":"uint256"},{"name":"powerSource","type":"uint8","internalType":"enum PowerSource"},{"name":"race","type":"uint8","internalType":"enum Race"},{"name":"startingArmor","type":"uint8","internalType":"enum ArmorType"},{"name":"advancedClass","type":"uint8","internalType":"enum AdvancedClass"},{"name":"hasSelectedAdvancedClass","type":"bool","internalType":"bool"}]}],"outputs":[],"stateMutability":"nonpayable"},{"type":"function","name":"mintCharacter","inputs":[{"name":"account","type":"address","internalType":"address"},{"name":"name","type":"bytes32","internalType":"bytes32"},{"name":"tokenUri","type":"string","internalType":"string"}],"outputs":[{"name":"characterId","type":"bytes32","internalType":"bytes32"}],"stateMutability":"nonpayable"},{"type":"function","name":"rollBaseStats","inputs":[{"name":"userRandomNumber","type":"bytes32","internalType":"bytes32"},{"name":"characterId","type":"bytes32","internalType":"bytes32"}],"outputs":[],"stateMutability":"payable"},{"type":"function","name":"rollStats","inputs":[{"name":"userRandomNumber","type":"bytes32","internalType":"bytes32"},{"name":"characterId","type":"bytes32","internalType":"bytes32"},{"name":"class","type":"uint8","internalType":"enum Classes"}],"outputs":[],"stateMutability":"payable"},{"type":"function","name":"selectAdvancedClass","inputs":[{"name":"characterId","type":"bytes32","internalType":"bytes32"},{"name":"advancedClass","type":"uint8","internalType":"enum AdvancedClass"}],"outputs":[],"stateMutability":"nonpayable"},{"type":"function","name":"setStats","inputs":[{"name":"entityId","type":"bytes32","internalType":"bytes32"},{"name":"stats","type":"tuple","internalType":"struct AdjustedCombatStats","components":[{"name":"strength","type":"int256","internalType":"int256"},{"name":"agility","type":"int256","internalType":"int256"},{"name":"intelligence","type":"int256","internalType":"int256"},{"name":"armor","type":"int256","internalType":"int256"},{"name":"maxHp","type":"int256","internalType":"int256"},{"name":"currentHp","type":"int256","internalType":"int256"}]}],"outputs":[],"stateMutability":"nonpayable"},{"type":"function","name":"supportsInterface","inputs":[{"name":"interfaceId","type":"bytes4","internalType":"bytes4"}],"outputs":[{"name":"","type":"bool","internalType":"bool"}],"stateMutability":"pure"},{"type":"function","name":"updateTokenUri","inputs":[{"name":"characterId","type":"bytes32","internalType":"bytes32"},{"name":"tokenUri","type":"string","internalType":"string"}],"outputs":[],"stateMutability":"nonpayable"},{"type":"event","name":"AdvancedClassSelected","inputs":[{"name":"characterId","type":"bytes32","indexed":true,"internalType":"bytes32"},{"name":"advancedClass","type":"uint8","indexed":false,"internalType":"enum AdvancedClass"}],"anonymous":false},{"type":"event","name":"ArmorTypeSelected","inputs":[{"name":"characterId","type":"bytes32","indexed":true,"internalType":"bytes32"},{"name":"armorType","type":"uint8","indexed":false,"internalType":"enum ArmorType"}],"anonymous":false},{"type":"event","name":"PowerSourceSelected","inputs":[{"name":"characterId","type":"bytes32","indexed":true,"internalType":"bytes32"},{"name":"powerSource","type":"uint8","indexed":false,"internalType":"enum PowerSource"}],"anonymous":false},{"type":"event","name":"RaceSelected","inputs":[{"name":"characterId","type":"bytes32","indexed":true,"internalType":"bytes32"},{"name":"race","type":"uint8","indexed":false,"internalType":"enum Race"}],"anonymous":false},{"type":"event","name":"Store_SetRecord","inputs":[{"name":"tableId","type":"bytes32","indexed":true,"internalType":"ResourceId"},{"name":"keyTuple","type":"bytes32[]","indexed":false,"internalType":"bytes32[]"},{"name":"staticData","type":"bytes","indexed":false,"internalType":"bytes"},{"name":"encodedLengths","type":"bytes32","indexed":false,"internalType":"EncodedLengths"},{"name":"dynamicData","type":"bytes","indexed":false,"internalType":"bytes"}],"anonymous":false},{"type":"event","name":"Store_SpliceDynamicData","inputs":[{"name":"tableId","type":"bytes32","indexed":true,"internalType":"ResourceId"},{"name":"keyTuple","type":"bytes32[]","indexed":false,"internalType":"bytes32[]"},{"name":"dynamicFieldIndex","type":"uint8","indexed":false,"internalType":"uint8"},{"name":"start","type":"uint48","indexed":false,"internalType":"uint48"},{"name":"deleteCount","type":"uint40","indexed":false,"internalType":"uint40"},{"name":"encodedLengths","type":"bytes32","indexed":false,"internalType":"EncodedLengths"},{"name":"data","type":"bytes","indexed":false,"internalType":"bytes"}],"anonymous":false},{"type":"event","name":"Store_SpliceStaticData","inputs":[{"name":"tableId","type":"bytes32","indexed":true,"internalType":"ResourceId"},{"name":"keyTuple","type":"bytes32[]","indexed":false,"internalType":"bytes32[]"},{"name":"start","type":"uint48","indexed":false,"internalType":"uint48"},{"name":"data","type":"bytes","indexed":false,"internalType":"bytes"}],"anonymous":false},{"type":"error","name":"EncodedLengths_InvalidLength","inputs":[{"name":"length","type":"uint256","internalType":"uint256"}]},{"type":"error","name":"Slice_OutOfBounds","inputs":[{"name":"data","type":"bytes","internalType":"bytes"},{"name":"start","type":"uint256","internalType":"uint256"},{"name":"end","type":"uint256","internalType":"uint256"}]},{"type":"error","name":"Store_IndexOutOfBounds","inputs":[{"name":"length","type":"uint256","internalType":"uint256"},{"name":"accessedIndex","type":"uint256","internalType":"uint256"}]},{"type":"error","name":"Store_InvalidResourceType","inputs":[{"name":"expected","type":"bytes2","internalType":"bytes2"},{"name":"resourceId","type":"bytes32","internalType":"ResourceId"},{"name":"resourceIdString","type":"string","internalType":"string"}]},{"type":"error","name":"Store_InvalidSplice","inputs":[{"name":"startWithinField","type":"uint40","internalType":"uint40"},{"name":"deleteCount","type":"uint40","internalType":"uint40"},{"name":"fieldLength","type":"uint40","internalType":"uint40"}]},{"type":"error","name":"World_AccessDenied","inputs":[{"name":"resource","type":"string","internalType":"string"},{"name":"caller","type":"address","internalType":"address"}]},{"type":"error","name":"World_FunctionSelectorNotFound","inputs":[{"name":"functionSelector","type":"bytes4","internalType":"bytes4"}]},{"type":"error","name":"World_ResourceNotFound","inputs":[{"name":"resourceId","type":"bytes32","internalType":"ResourceId"},{"name":"resourceIdString","type":"string","internalType":"string"}]}],"bytecode":{"object":"0x6080806040523462000018576187b290816200001d8239f35b5f80fdfe60806040526004361015610011575f80fd5b5f3560e01c8062d43ec61461022357806301ffc9a71461021e57806306a3432f146102195780630797e03e1461021457806309a4fa6e1461020f5780630bb700dc1461020a578063119df25f14610205578063143f3021146102005780631ecb393f146101fb57806323801570146101f65780632dfb78cd146101f15780633493289b146101ec57806345ec9354146101e757806348b027f3146101e257806354b8d5e3146101dd578063623daa05146101d8578063679ee16d146101d35780637163c6ba146101ce5780637c636426146101c95780638338f0e0146101c45780639b63ec05146101bf5780639cca06ef146101ba578063aa8659e4146101b5578063b27cbcbb146101b0578063bf240995146101ab578063c74dedc8146101a6578063c75fadf2146101a1578063deb931a21461019c578063e1af802c14610197578063ebee03bb14610192578063f59cb8631461018d578063f70125db146101885763f8c6756114610183575f80fd5b6114b9565b61149b565b6113e0565b611396565b61137c565b61133f565b611321565b6111db565b6111bd565b61116a565b611080565b610f0d565b610ee3565b610ec5565b610d58565b610d1e565b610c21565b610be2565b610bb0565b610ac7565b610a74565b6108fe565b6108bb565b61085c565b61083e565b61069f565b610612565b6105d0565b610489565b610346565b6102ae565b610247565b3461024357602036600319011261024357602060405160043560601c8152f35b5f80fd5b346102435760203660031901126102435760043563ffffffff60e01b81168091036102435760209063b5dee12760e01b811490811561028c575b506040519015158152f35b6301ffc9a760e01b1490505f610281565b6001600160a01b0381160361024357565b34610243576020366003190112610243576004356102cb8161029d565b6102d3612809565b908151156102ff576001600160a01b0316602082810191909152906102f790613cf1565b604051908152f35b612864565b634e487b7160e01b5f52602160045260245ffd5b600a111561032257565b610304565b90600a8210156103225752565b6020810192916103449190610327565b565b346102435760203660031901126102435761035f612809565b8051156102ff5761038361037b60209260043584820152613d95565b60f81c612899565b6103906040518092610327565bf35b634e487b7160e01b5f52604160045260245ffd5b60c081019081106001600160401b038211176103c157604052565b610392565b6001600160401b0381116103c157604052565b604081019081106001600160401b038211176103c157604052565b606081019081106001600160401b038211176103c157604052565b608081019081106001600160401b038211176103c157604052565b61012081019081106001600160401b038211176103c157604052565b601f909101601f19168101906001600160401b038211908210176103c157604052565b604051906101a082016001600160401b038111838210176103c157604052565b346102435760e03660031901126102435760c0366023190112610243576104ea6040516104b5816103a6565b602435815260443560208201526064356040820152608435606082015260a435608082015260c43560a082015260043561150e565b005b6003111561032257565b90610500826104ec565b52565b6004111561032257565b9061050082610503565b610344909291926101a08101938051825260208101516020830152610544604082015160408401906104f6565b606081015160608301526080810151608083015260a081015160a083015260c081015160c083015260e081015160e0830152610589610100808301519084019061050d565b61059c610120808301519084019061050d565b6105af610140808301519084019061050d565b6105c26101608083015190840190610327565b610180908101511515910152565b34610243576020366003190112610243576105e961169c565b506106046105f8600435612932565b60405191829182610517565b0390f35b5f91031261024357565b34610243575f36600319011261024357602061062c612ce6565b6040516001600160a01b039091168152f35b6001600160401b0381116103c157601f01601f191660200190565b81601f82011215610243578035906106708261063e565b9261067e6040519485610446565b8284526020838301011161024357815f926020809301838601378301015290565b34610243576060366003190112610243576004356106bc8161029d565b602435906044356001600160401b038111610243576106df903690600401610659565b6106e7612ce6565b906106fa6106f483612cfd565b1561170c565b610702612d25565b6107146001600160601b038210611764565b5f8061078c610733610727610727614d62565b6001600160a01b031690565b6040516340c10f1960e01b60208201526001600160a01b03891660248201526044810186905261077081606481015b03601f198101835282610446565b60405194858094819363075cf5e160e31b8352600483016118a6565b03925af1958615610839576107db6107c29661080796610802946106049a610817575b506107b98661202a565b98899283612e4b565b6107cc8683612f2e565b6107d68682612fca565b613089565b6107f36107ee6107ea83613129565b1590565b6118f4565b6107fc8161314c565b85613209565b6132be565b6040519081529081906020820190565b610832903d805f833e61082a8183610446565b81019061181f565b505f6107af565b611503565b346102435760203660031901126102435760206102f7600435611985565b3461024357602036600319011261024357610875612809565b8051156102ff5761088e60209160043583820152613e25565b60f81c61089a816104ec565b604051906108a7816104ec565b8152f35b9190602083019261050082610503565b346102435760203660031901126102435760206108d9600435613398565b604051906108a781610503565b600a111561024357565b6101843590610344826108e6565b346102435760403660031901126102435760043560243561091e816108e6565b61093761093261092c612ce6565b84612094565b611a15565b6109dd6107626109d761094985612932565b61095a600a60e08301511015611a6c565b6109be6109a7866101809361097c6109776107ea87840151151590565b611adc565b61098582610318565b610990821515611b42565b6109a261099d83836133c1565b611b9f565b613630565b916109b6876101608501611c07565b820160019052565b6109c88187612c42565b60405192839160208301610517565b836137f6565b6109eb610727610727614d62565b90813b15610243575f604051809362954a8360e51b8252818381610a13878a60048401611c13565b03925af1908115610839577fecf83d41266c4a6a02db7466dd117dc3a6f136389ce0e3a31b7fa9d88d4bf2a892610a5692610a5b575b5060405191829182610334565b0390a2005b80610a68610a6e926103c6565b80610608565b5f610a49565b34610243575f366003190112610243576020604051601f193601358152f35b6004111561024357565b610124359061034482610a93565b610144359061034482610a93565b610164359061034482610a93565b3461024357604036600319011261024357600435602435610ae781610a93565b610af561093261092c612ce6565b610b07610b018361387c565b15611c29565b610b1081610503565b8015610b6c57610a567f3ba9703e1cdcf3251b59516b5c202eba12dd4efcbaacaac50b37094bb160369e91610b56610b4785613899565b610b5081610503565b15611c89565b610b6081856138b6565b604051918291826108ab565b606460405162461bcd60e51b815260206004820152602060248201527f434841524143544552533a20696e76616c696420706f77657220736f757263656044820152fd5b3461024357602036600319011261024357610bc9612809565b8051156102ff576102f760209160043583820152613eb5565b34610243576020366003190112610243576020610c00600435611cfc565b6040519015158152f35b6003111561024357565b6064359061034482610c0a565b606036600319011261024357604435602435610c3c82610c0a565b610c50610932610c4a612ce6565b83612094565b610c5c610b018261387c565b610c64612809565b918251156102ff5782610ce2610cee84610cce610cb5610d1996610d0d9860206104ea9b0152610c93816104ec565b60405160f89190911b6001600160f81b03191660208201529081906021820190565b0395610cc9601f1997888101845283610446565b614917565b604051928391602083019190602083019252565b03838101835282610446565b604051632caa982960e21b602082015293849160043560248401611d90565b03908101835282610446565b6139ac565b3461024357602036600319011261024357610d3761169c565b506106046105f8610d49600435613a50565b60208082518301019101611dcf565b34610243576040366003190112610243576004357f7f9cbab4e73821b798dfa4e2400bec208cb7586b4087ede564dcccc0d52c2f66610a56602435610d9c81610a93565b610db0610932610daa612ce6565b86612094565b610dc4610dbf6107ea8661387c565b611c29565b610dcd81610503565b610dd8811515611e92565b610df3610de485613398565b610ded81610503565b15611ede565b610b60610dff85612932565b610e0d836101408301611f35565b610e1683610503565b60018303610e515760608101610e2c8151611f3e565b905260208101610e3c8151611f5a565b9052610e488151612001565b81525b85612c42565b610e5a83610503565b60028303610e835760208101610e708151611f3e565b9052610e7c8151611f5a565b8152610e4b565b610e8c83610503565b60038303610e4b57610e9e8151611f3e565b815260808101610eae8151611f5a565b905260208101610ebe8151612001565b9052610e4b565b346102435760203660031901126102435760206102f760043561202a565b34610243576040366003190112610243576020610c00602435610f058161029d565b600435612094565b34610243576040366003190112610243576004357f1a3c12ae7b2d1c5d4fded6bfa2710975f8543787e0d0eb52cff1f1d86125bec6610a56602435610f5181610a93565b610f5f610932610daa612ce6565b610f6e610dbf6107ea8661387c565b610f7781610503565b610f82811515612122565b610f9d610f8e85613a6d565b610f9781610503565b15612169565b610b60610fa985612932565b610fb7836101208301611f35565b610fc083610503565b60038303610ffa57610fd28151611f3e565b815260208101610fe28151612001565b905260808101610ff28151611f5a565b905285612c42565b61100383610503565b6002830361104557602081016110198151611f3e565b9052606081016110298151611f5a565b90526110358151612001565b815260808101610ebe8151612001565b61104e83610503565b60018303610e4b576110608151611f5a565b8152602081016110708151611f5a565b905260608101610ebe8151611f5a565b60403660031901126102435760243561109d610932610c4a612ce6565b6110a9610b018261387c565b6110b281613a6d565b6110bb81610503565b1561111a57610d0d610d19611106836110e96110d96104ea96613899565b6110e281610503565b15156121bf565b604051918291602083016020600191939293604081019481520152565b0390610cee601f1992838101835282610446565b60405162461bcd60e51b815260206004820152602260248201527f434841524143544552533a206d7573742063686f6f73652072616365206669726044820152611cdd60f21b6064820152608490fd5b34610243576040366003190112610243576024356004356001600160401b038211610243576111a06104ea923690600401610659565b906111af610932610c4a612ce6565b6001600160601b03166132be565b3461024357602036600319011261024357602061038360043561221e565b34610243576020366003190112610243576004356111fd610932610c4a612ce6565b61121161120c6107ea8361387c565b6123b2565b61121a81612932565b600160e0820152608081015160a08201526112358183612c42565b611243610727610727614d62565b803b1561024357604051635e78114d60e11b815260048101849052674563918244f400006024820152905f908290604490829084905af180156108395761130e575b50611294610727610727614d62565b91823b156102435760405163f9d175ed60e01b815260048101829052925f908490602490829084905af1928315610839576104ea936112fb575b506107626112eb6112de83613aba565b60016060820152936109c8565b8060a08401526080830152613bca565b80610a68611308926103c6565b5f6112ce565b80610a6861131b926103c6565b5f611285565b346102435760203660031901126102435760206108d9600435613899565b3461024357602036600319011261024357611358612809565b8051156102ff5761137160209160043583820152613f42565b60601c604051908152f35b34610243575f36600319011261024357602061062c614d62565b34610243576020366003190112610243576113af612809565b8051156102ff576102f760209160043583820152613fcf565b8015150361024357565b6101a43590610344826113c8565b34610243576101c0366003190112610243576101a0366023190112610243576104ea61140a610469565b6024358152604435602082015261141f610c14565b6040820152608435606082015260a435608082015260c43560a082015260e43560c08201526101043560e0820152611455610a9d565b610100820152611463610aab565b610120820152611471610ab9565b61014082015261147f6108f0565b61016082015261148d6113d2565b6101808201526004356123fa565b346102435760203660031901126102435760206108d9600435613a6d565b34610243576020366003190112610243576040516004356001600160601b03168152602090f35b5190610344826113c8565b908160209103126102435751611500816113c8565b90565b6040513d5f823e3d90fd5b61151f611519612ce6565b306128a8565b61152881612932565b90611537610727610727614d62565b604051633e86fb3160e21b815260048101839052602094918590829060249082905afa908115610839575f9161167f575b50156115a4576060816103449561159f93518652808201519086015260408101518286015260808101516080860152015182612b5f565b612c42565b6115b2610727610727614d62565b604051635d6740a560e11b815260048101849052908590829060249082905afa908115610839575f91611652575b5015611617576060816103449561159f93518652808201519086015260408101518286015260808101516080860152015182612a78565b60405162461bcd60e51b815260206004820152600f60248201526e1d5b9c9958dbd9db9a5e9959081a59608a1b6044820152606490fd5b0390fd5b6116729150853d8711611678575b61166a8183610446565b8101906114eb565b5f6115e0565b503d611660565b6116969150853d87116116785761166a8183610446565b5f611568565b604051906101a082016001600160401b038111838210176103c1576040525f610180838281528260208201528260408201528260608201528260808201528260a08201528260c08201528260e0820152826101008201528261012082015282610140820152826101608201520152565b1561171357565b60405162461bcd60e51b815260206004820152602360248201527f434841524143544552533a20416c7265616479206861732061206368617261636044820152623a32b960e91b6064820152608490fd5b1561176b57565b60405162461bcd60e51b815260206004820152602360248201527f43484152414341544552533a204d6178206368617261637465727320726561636044820152621a195960ea1b6064820152608490fd5b5f5b8381106117cd5750505f910152565b81810151838201526020016117be565b81601f820112156102435780516117f38161063e565b926118016040519485610446565b818452602082840101116102435761150091602080850191016117bc565b906020828203126102435781516001600160401b0381116102435761150092016117dd565b90606051918281525f5b83811061186d5750825f602080949584010152601f8019910116010190565b80602091608001518282850101520161184e565b9060209161189a815180928185528580860191016117bc565b601f01601f1916010190565b7b7379436861726163746572730000000045524337323153797374656d60201b815260406020820181905261150092910190611881565b604090611500939281528160208201520190611881565b156118fb57565b60405162461bcd60e51b81526020600482015260136024820152724e616d6520616c72656164792065786973747360681b6044820152606490fd5b634e487b7160e01b5f52601160045260245ffd5b9190820391821161195757565b611936565b906001820180921161195757565b9190820180921161195757565b5f1981146119575760010190565b905f91611990612809565b8051156102ff5780606360206119a7930152614276565b81106119b4575060649150565b5f5b606481106119c2575050565b816119cc82613363565b1115806119f9575b6119e6576119e190611977565b6119b6565b8092935060019150018091116119575790565b506001810180821161195757611a0f8391613363565b116119d4565b15611a1c57565b60405162461bcd60e51b815260206004820152602260248201527f4348415241435445522053595354454d3a20494e56414c4944204f504552415460448201526127a960f11b6064820152608490fd5b15611a7357565b60405162461bcd60e51b815260206004820152603b60248201527f4348415241435445522053595354454d3a204d757374206265206c6576656c2060448201527a313020746f2073656c65637420616476616e63656420636c61737360281b6064820152608490fd5b15611ae357565b60405162461bcd60e51b815260206004820152603160248201527f4348415241435445522053595354454d3a20416476616e63656420636c61737360448201527008185b1c9958591e481cd95b1958dd1959607a1b6064820152608490fd5b15611b4957565b60405162461bcd60e51b815260206004820152602860248201527f4348415241435445522053595354454d3a20496e76616c696420616476616e63604482015267656420636c61737360c01b6064820152608490fd5b15611ba657565b60405162461bcd60e51b815260206004820152603360248201527f4348415241435445522053595354454d3a20496e76616c696420636c61737320604482015272199bdc8818da185c9858dd195c88189d5a5b19606a1b6064820152608490fd5b600a8210156103225752565b9081526040810192916103449160200190610327565b15611c3057565b60405162461bcd60e51b815260206004820152602b60248201527f434841524143544552533a2063686172616374657220616c726561647920696e60448201526a0819d85b59481ddbdc9b1960aa1b6064820152608490fd5b15611c9057565b60405162461bcd60e51b815260206004820152602960248201527f434841524143544552533a20706f77657220736f7572636520616c7265616479604482015268081cd95b1958dd195960ba1b6064820152608490fd5b9081602091031261024357516115008161029d565b5f9060246020611d12611d0d61283e565b6145a9565b6040516331a9108f60e11b81526001600160601b0385166004820152928391829060601c5afa5f9181611d5f575b50611d57575b5060601c9060018060a01b03161490565b91505f611d46565b611d8291925060203d602011611d89575b611d7a8183610446565b810190611ce7565b905f611d40565b503d611d70565b60609061150093928152600160208201528160408201520190611881565b519061034482610c0a565b519061034482610a93565b5190610344826108e6565b90816101a091031261024357611de3610469565b908051825260208101516020830152611dfe60408201611dae565b6040830152606081015160608301526080810151608083015260a081015160a083015260c081015160c083015260e081015160e0830152610100611e43818301611db9565b90830152610120611e55818301611db9565b90830152610140611e67818301611db9565b90830152610160611e79818301611dc4565b90830152611e8b6101808092016114e0565b9082015290565b15611e9957565b60405162461bcd60e51b815260206004820152601e60248201527f434841524143544552533a20696e76616c69642061726d6f72207479706500006044820152606490fd5b15611ee557565b60405162461bcd60e51b815260206004820152602260248201527f434841524143544552533a2061726d6f7220616c72656164792073656c656374604482015261195960f21b6064820152608490fd5b61050082610503565b9060028201915f60028412911290801582169115161761195757565b9060018201915f60018412911290801582169115161761195757565b9060048201915f60048412911290801582169115161761195757565b9060058201915f60058412911290801582169115161761195757565b9060038201915f60038412911290801582169115161761195757565b9060078201915f60078412911290801582169115161761195757565b9190915f838201938412911290801582169115161761195757565b905f19820191821360011661195757565b81810392915f13801582851316918412161761195757565b60246020612039611d0d61283e565b604051928380926331a9108f60e11b825286600483015260601c5afa908115610839575f91612075575b5060601b6001600160601b0319161790565b61208e915060203d602011611d8957611d7a8183610446565b5f612063565b61209d81611cfc565b91826120a857505090565b90915060206120b8611d0d61283e565b6040516331a9108f60e11b81526001600160601b0390941660048501528390602490829060601c5afa918215610839575f92612101575b506001600160a01b0391821691161490565b61211b91925060203d602011611d8957611d7a8183610446565b905f6120ef565b1561212957565b60405162461bcd60e51b8152602060048201526018602482015277434841524143544552533a20696e76616c6964207261636560401b6044820152606490fd5b1561217057565b60405162461bcd60e51b815260206004820152602160248201527f434841524143544552533a207261636520616c72656164792073656c656374656044820152601960fa1b6064820152608490fd5b156121c657565b60405162461bcd60e51b815260206004820152602a60248201527f434841524143544552533a206d7573742063686f6f736520706f77657220736f6044820152691d5c98d948199a5c9cdd60b21b6064820152608490fd5b61222a61010091612932565b805160208201518082121590816123a3575b81159283612399575b508261238a575b50156122bb5750016001815161226181610503565b61226a81610503565b146122b5576002815161227c81610503565b61228581610503565b146122af576003905161229781610503565b6122a081610503565b146122aa575b5f90565b600390565b50600290565b50600190565b156123275701600181516122ce81610503565b6122d781610503565b1461232157600281516122e981610503565b6122f281610503565b1461231b576003905161230481610503565b61230d81610503565b14612316575f90565b600690565b50600590565b50600490565b016001815161233581610503565b61233e81610503565b14612384576002815161235081610503565b61235981610503565b1461237e576003905161236b81610503565b61237481610503565b036122a657600990565b50600890565b50600790565b6060840151131591505f61224c565b811392505f612245565b6060840151831215915061223c565b156123b957565b60405162461bcd60e51b8152602060048201526019602482015278796f75206861766520656e7465726564207468652067616d6560381b6044820152606490fd5b906103449161240d610932610c4a612ce6565b612510565b1561241957565b60405162461bcd60e51b815260206004820152601660248201527518d85b9b9bdd081b195d995b081a5b8818dbdb58985d60521b6044820152606490fd5b90816020910312610243575190565b1561246d57565b60405162461bcd60e51b815260206004820152602560248201527f4348415241435445522053595354454d3a20494e56414c49442053544154204360448201526448414e474560d81b6064820152608490fd5b908160c09103126102435760a0604051916124da836103a6565b8051835260208101516020840152604081015160408401526060810151606084015260808101516080840152015160a082015290565b61251e610727610727614d62565b604080516385fcd3bd60e01b815260048101849052909291602091908290829060249082905afa80156108395761255d915f916127ec575b5015612412565b61257761256983613a50565b828082518301019101611dcf565b9361258183613c58565b60a086015260c09461259586820151611985565b5060e0810192835190606482146127e2576125b0879261195c565b6125bd8551855190612012565b8286019081516125d285880191825190612012565b9261262560608a01938451956125ee60608c0197885190612012565b898973__$adf94ce26827ee9b3226667380e63e262b$__809d5180809881946322fa929b60e01b8352600483019190602083019252565b03915af491821561083957612655945f936127bb575b5061264a9061264f9394611fe6565b611fe6565b14612466565b8b51633b39a0f760e21b815260048101869052968690889060249082905af4988915610839576126b6996109d7985f9161278e575b5061269a60808b01918251611fe6565b9052518852519052519052855261076287519384928301610517565b6126c4610727610727614d62565b835163a543a0c560e01b81526004810184905293908590859060249082905afa928315610839576127068694612734945f97889261276f575b50519083613c75565b612714610727610727614d62565b915194858094819363ad54c98b60e01b8352600483019190602083019252565b03925af1801561083957612746575050565b8161276592903d10612768575b61275d8183610446565b8101906124c0565b50565b503d612753565b612787919250873d89116127685761275d8183610446565b905f6126fd565b6127ae9150883d8a116127b4575b6127a68183610446565b810190612457565b5f61268a565b503d61279c565b61264f9350906127da61264a928d803d106127b4576127a68183610446565b93509061263b565b5050505050505050565b6128039150833d85116116785761166a8183610446565b5f612556565b60405190612816826103d9565b6001825260203681840137565b60405190612830826103f4565b600282526040366020840137565b604051602081016001600160401b038111828210176103c1576040525f8152905f368137565b634e487b7160e01b5f52603260045260245ffd5b8051156102ff5760200190565b80518210156102ff5760209160051b010190565b60ff16600a8110156103225790565b6128b0612809565b8051156102ff576001600160a01b0390911660208201526128d09061405f565b6128ed82600160801b600160f01b038316616e7360f01b17616ead565b8015612922575b156128fd575050565b6129069061514f565b61164e60405192839263d787b73760e01b8452600484016146bb565b5061292d8282616ead565b6128f4565b61293a61169c565b50612943612809565b8051156102ff5761295891602082015261472b565b505061296261169c565b90602081015190612a6e604082015191612988612983606083015160f81c90565b613380565b9060618101519060818101519060a18101519060c181015190612a4c8a612a4260e1840151936101206129c86129c361010184015160f81c90565b61338c565b93612a3c6129de6129c361010286015160f81c90565b93612a326129f46129c361010384015160f81c90565b91612a28612a1e610105612a15612a1061010486015160f81c90565b612899565b93015160f81c90565b1515610180870152565b6101608501611c07565b6101408301611f35565b01611f35565b6101008c01611f35565b60e08a015260c089015260a0880152608087015260608601526040850161490e565b6020830152815290565b90612a81612809565b918251156102ff57602083015260405190602082015260208152612aa4816103d9565b6001600160a01b03612ab4614d62565b1691308303612ac75761034492506154bf565b90823b15610243576040516301c85d5760e51b8152674d6f62537461747360401b631d18955160e21b01600482015260a06024820152925f928492839185918391612b339190612b1b9060a4850190613cbe565b90846044850152600319848303016064850152611881565b64210201200160d01b608483015203925af1801561083957612b525750565b80610a68610344926103c6565b90612b68612809565b918251156102ff57602083015260405190602082015260208152612b8b816103d9565b6001600160a01b03612b9b614d62565b1691308303612bae576103449250615658565b90823b15610243576040516301c85d5760e51b81526f43686172616374657245717569706d65631d18955160e21b01600482015260a06024820152925f928492839185918391612c209190612c079060a4850190613cbe565b6004604485015283810360031901606485015290611881565b67050028290101010160bd1b608483015203925af1801561083957612b525750565b612ccd61034492612cc081519160208101516040820151612c62816104ec565b6060830151608084015160a085015160c08601519160e08701519361010088015195612c8d87610503565b61012089015197612c9d89610503565b612cc76101806101408c01519b612cb38d610503565b6101608101519d8e610318565b0151151590565b9b6149a8565b90612cd6612809565b90612ce082612878565b52614a40565b36603319013560601c908115612cf857565b339150565b612d05612809565b8051156102ff576001600160a01b039091166020820152611500906140fb565b612d30611d0d61283e565b60601c612d3b612823565b8051156102ff578160208201528051600110156102ff57805f6040612d61930152614185565b906001820180921161195757612d75612823565b908151156102ff5760208201528051600110156102ff575f604082015260405182602082015260208152612da8816103d9565b6001600160a01b03612db8614d62565b1691308303612dcb57611500925061581c565b90823b15610243576040516301c85d5760e51b815267436f756e7465727360401b631d18955160e21b01600482015260a06024820152925f928492839185918391612e1f9190612b1b9060a4850190613cbe565b630100080160dd1b608483015203925af1801561083957612e3e575090565b80610a68611500926103c6565b90612e54612809565b918251156102ff5760208301526040519060018060601b03199060601b16602082015260148152612e84816103d9565b6001600160a01b03612e94614d62565b1691308303612ea757610344925061598a565b90823b15610243576040516301c85d5760e51b81525f80516020618792833981519152600482015260a06024820152925f928492839185918391612f0d9190612ef49060a4850190613cbe565b6001604485015283810360031901606485015290611881565b665504022014200160c01b608483015203925af1801561083957612b525750565b90612f37612809565b918251156102ff57602083015260405190602082015260208152612f5a816103d9565b6001600160a01b03612f6a614d62565b1691308303612f7d5761034492506172e1565b90823b15610243576040516301c85d5760e51b81525f80516020618792833981519152600482015260a06024820152925f928492839185918391612f0d9190612b1b9060a4850190613cbe565b90612fd3612809565b805190926001600160a01b0391156102ff578116602084015260405191602083015260208252613002826103d9565b61300a614d62565b169130830361301d5761034492506175cd565b90823b15610243576040516301c85d5760e51b81525f80516020618752833981519152600482015260a06024820152925f92849283918591839161306a9190612b1b9060a4850190613cbe565b64020010010160d51b608483015203925af1801561083957612b525750565b90613092612809565b805190926001600160a01b0391156102ff5781166020840152604051916020830152602082526130c1826103d9565b6130c9614d62565b16913083036130dc5761034492506159a5565b90823b15610243576040516301c85d5760e51b81525f80516020618752833981519152600482015260a06024820152925f92849283918591839161306a9190612ef49060a4850190613cbe565b613131612809565b8051156102ff576131469160208201526141ed565b60f81c90565b613154612809565b908151156102ff576020820152604051600160f81b60208201526001815261317b816103d9565b6001600160a01b0361318b614d62565b169130830361319e576103449250615b28565b90823b15610243576040516301c85d5760e51b81525f805160206186b2833981519152600482015260a06024820152925f9284928391859183916131eb9190612b1b9060a4850190613cbe565b630101000160d81b608483015203925af1801561083957612b525750565b90613212612809565b918251156102ff57602083015260405190602082015260208152613235816103d9565b6001600160a01b03613245614d62565b1691308303613258576103449250615c8f565b90823b15610243576040516301c85d5760e51b81525f80516020618792833981519152600482015260a06024820152925f928492839185918391612f0d91906132a59060a4850190613cbe565b6002604485015283810360031901606485015290611881565b906132c7612809565b918251156102ff5760208301526001600160a01b036132e4614d62565b16913083036132f757610344925061612e565b90823b15610243576040516377b7543160e11b81527774624368617261637465727300000000546f6b656e55524960401b600482015260806024820152925f9284928391859183916133529190612b1b906084850190613cbe565b03925af1801561083957612b525750565b61336b612809565b8051156102ff57611500916020820152614276565b60ff16611500816104ec565b60ff1661150081610503565b6133a0612809565b8051156102ff576133b59160208201526142dc565b60f81c61150081610503565b80516020820151908181121580613622575b801592839283613618575b5082613609575b5082613600575b156134a6575050610100016001815161340481610503565b61340d81610503565b1480613493575b613479576002815161342581610503565b61342e81610503565b1480613480575b613479576003905161344681610503565b61344f81610503565b149081613465575b50613460575f90565b600190565b6003915061347281610318565b145f613457565b5050600190565b5061348a82610318565b60028214613435565b5061349d82610318565b60018214613414565b1561354b575061010001600181516134bd81610503565b6134c681610503565b1480613538575b61347957600281516134de81610503565b6134e781610503565b1480613525575b61347957600390516134ff81610503565b61350881610503565b1490816135185750613460575f90565b6006915061347281610318565b5061352f82610318565b600582146134ee565b5061354282610318565b600482146134cd565b613556575b50505f90565b610100016001815161356781610503565b61357081610503565b14806135ed575b613479576002815161358881610503565b61359181610503565b14806135da575b61347957600390516135a981610503565b6135b281610503565b1490816135c6575b50613460575f80613550565b600991506135d381610318565b145f6135ba565b506135e482610318565b60088214613598565b506135f782610318565b60078214613577565b811592506133ec565b6060850151131591505f6133e5565b811392505f6133de565b5060608301518112156133d3565b9061363961169c565b5061364381610318565b6001810361366b57506136568151611f3e565b8152608081016136668151611f92565b905290565b61367481610318565b600281036136a757506136878151611f5a565b8152606081016136978151611f5a565b9052608081016136668151611fae565b6136b081610318565b600381036136d357506136c38151611f3e565b8152608081016136668151611fca565b6136dc81610318565b6004810361370f5750602081016136f38151611f5a565b90526136ff8151611f5a565b8152608081016136668151611fae565b61371881610318565b6005810361374f57506020810161372f8151611f5a565b90526060810161373f8151611f5a565b9052608081016136668151611f3e565b61375881610318565b6006810361376f5750602081016136978151611f3e565b61377881610318565b6007810361379b57506060810161378f8151611f5a565b90526136568151611f5a565b6137a481610318565b600881036137bb57506060810161373f8151611f3e565b806137c7600992610318565b0361150057606081016137da8151611f5a565b90526137e68151611f5a565b8152608081016136668151611f76565b906137ff612809565b918251156102ff5760208301526001600160a01b0361381c614d62565b169130830361382f576103449250616355565b90823b15610243576040516377b7543160e11b81525f80516020618792833981519152600482015260806024820152925f9284928391859183916133529190612ef4906084850190613cbe565b613884612809565b8051156102ff5761314691602082015261436c565b6138a1612809565b8051156102ff576133b59160208201526143f9565b906138bf612809565b918251156102ff57610762916138ff9160208501526138dd81610503565b60405160f89190911b6001600160f81b03191660208201529182906021820190565b6001600160a01b0361390f614d62565b1691308303613922576103449250615ca3565b90823b15610243576040516301c85d5760e51b81525f80516020618692833981519152600482015260a06024820152925f928492839185918391613988919061396f9060a4850190613cbe565b6008604485015283810360031901606485015290611881565b5f80516020618772833981519152608483015203925af1801561083957612b525750565b80516020820180516001600160e01b031994939285918281169160048110613a3a575b505090506139db612809565b8051156102ff57856139f2921660208201526147eb565b505090604060208301519201518215613a1f5781516001600160e01b031617905291925061150091614b82565b604051637eef2a7160e11b81525f3587166004820152602490fd5b8391925060040360031b1b161684905f806139cf565b613a58612809565b8051156102ff57611500916020820152614ca8565b613a75612809565b8051156102ff576133b5916020820152614489565b60405190613a97826103a6565b606060a0835f81525f60208201525f60408201525f838201528260808201520152565b613ac2613a8a565b50613acb612809565b8051156102ff57613ae0916020820152614883565b613ae8613a8a565b926020810151906040810151906074605482015191015160f81c15156060870152604086015260601c6020850152835264ffffffffff808360381c1690613b37613b328385617c5d565b617cb2565b9360601c168101918282118015613bc0575b613b8b57908160208281940101928391011161195757820391821161195757613b7e9160018060801b03169060801b17617cb2565b60a0830152608082015290565b6040516323230fa360e01b81526060600482015292839291613bb1906064850190611881565b91602484015260448301520390fd5b5080518311613b49565b9061034491815160208301516040840151606085015115159160405193602085015260018060601b03199060601b166040840152605483015260f81b607482015260558152613c188161040f565b60a0608084015193015192613c31815194805192614d24565b93613c3a612809565b93613c4485612878565b528160601b918160381b9101171791614ade565b613c60612809565b8051156102ff57611500916020820152614519565b61159f60606103449493613c8884612932565b94815186526020820151602087015260408201518387015260808201805160808801525160a087015260e0860152015182612b5f565b9081518082526020808093019301915f5b828110613cdd575050505090565b835185529381019392810192600101613ccf565b6001600160a01b03613d01614d62565b16308103613d13575061150090614d97565b604051638c364d5960e01b81525f8051602061875283398151915260048201526080602482015291602091839182908190613d52906084830190613cbe565b6001604483015264020010010160d51b606483015203915afa908115610839575f91613d7c575090565b611500915060203d6020116127b4576127a68183610446565b6001600160a01b03613da5614d62565b16308103613db7575061150090614e17565b604051638c364d5960e01b81525f8051602061869283398151915260048201526080602482015291602091839182908190613df6906084830190613cbe565b600b60448301525f80516020618772833981519152606483015203915afa908115610839575f91613d7c575090565b6001600160a01b03613e35614d62565b16308103613e47575061150090614e6b565b604051638c364d5960e01b81525f8051602061869283398151915260048201526080602482015291602091839182908190613e86906084830190613cbe565b600260448301525f80516020618772833981519152606483015203915afa908115610839575f91613d7c575090565b6001600160a01b03613ec5614d62565b16308103613ed7575061150090614e85565b604051638c364d5960e01b81525f8051602061879283398151915260048201526080602482015291602091839182908190613f16906084830190613cbe565b60026044830152665504022014200160c01b606483015203915afa908115610839575f91613d7c575090565b6001600160a01b03613f52614d62565b16308103613f64575061150090614e99565b604051638c364d5960e01b81525f8051602061879283398151915260048201526080602482015291602091839182908190613fa3906084830190613cbe565b60016044830152665504022014200160c01b606483015203915afa908115610839575f91613d7c575090565b6001600160a01b03613fdf614d62565b16308103613ff1575061150090614eb3565b604051638c364d5960e01b81525f8051602061869283398151915260048201526080602482015291602091839182908190614030906084830190613cbe565b600660448301525f80516020618772833981519152606483015203915afa908115610839575f91613d7c575090565b6001600160a01b0361406f614d62565b163081036140855750614081906167c3565b5490565b604051638c364d5960e01b81526f53797374656d52656769737472790000661d189ddbdc9b1960ca1b01600482015260806024820152916020918391829081906140d3906084830190613cbe565b5f6044830152630100080160dd1b606483015203915afa908115610839575f91613d7c575090565b6001600160a01b0361410b614d62565b1630810361411d575061408190616844565b604051638c364d5960e01b81525f805160206187528339815191526004820152608060248201529160209183918290819061415c906084830190613cbe565b5f604483015264020010010160d51b606483015203915afa908115610839575f91613d7c575090565b6001600160a01b03614195614d62565b163081036141a75750614081906168ad565b604051638c364d5960e01b815267436f756e7465727360401b631d18955160e21b01600482015260806024820152916020918391829081906140d3906084830190613cbe565b6001600160a01b036141fd614d62565b1630810361420f575061408190616911565b604051638c364d5960e01b81525f805160206186b28339815191526004820152608060248201529160209183918290819061424e906084830190613cbe565b5f6044830152630101000160d81b606483015203915afa908115610839575f91613d7c575090565b6001600160a01b03614286614d62565b16308103614298575061408190616977565b604051638c364d5960e01b8152654c6576656c7360501b631d18955160e21b01600482015260806024820152916020918391829081906140d3906084830190613cbe565b6001600160a01b036142ec614d62565b163081036142fe575061150090614f07565b604051638c364d5960e01b81525f805160206186928339815191526004820152608060248201529160209183918290819061433d906084830190613cbe565b600a60448301525f80516020618772833981519152606483015203915afa908115610839575f91613d7c575090565b6001600160a01b0361437c614d62565b1630810361438e575061150090614f5b565b604051638c364d5960e01b81525f80516020618792833981519152600482015260806024820152916020918391829081906143cd906084830190613cbe565b60036044830152665504022014200160c01b606483015203915afa908115610839575f91613d7c575090565b6001600160a01b03614409614d62565b1630810361441b575061150090614fab565b604051638c364d5960e01b81525f805160206186928339815191526004820152608060248201529160209183918290819061445a906084830190613cbe565b600860448301525f80516020618772833981519152606483015203915afa908115610839575f91613d7c575090565b6001600160a01b03614499614d62565b163081036144ab575061150090614fbf565b604051638c364d5960e01b81525f80516020618692833981519152600482015260806024820152916020918391829081906144ea906084830190613cbe565b600960448301525f80516020618772833981519152606483015203915afa908115610839575f91613d7c575090565b6001600160a01b03614529614d62565b1630810361453b575061150090615013565b604051638c364d5960e01b81525f805160206186928339815191526004820152608060248201529160209183918290819061457a906084830190613cbe565b600560448301525f80516020618772833981519152606483015203915afa908115610839575f91613d7c575090565b6001600160a01b036145b9614d62565b163081036145cb575061150090615067565b604051638c364d5960e01b81526f556c74696d617465446f6d696e696f6e631d18955160e21b0160048201526080602482015291602091839182908190614616906084830190613cbe565b600260448301526f45434000450505050505050805080805607a1b606483015203915afa908115610839575f91613d7c575090565b6001600160a01b0361465b614d62565b1630810361466d5750614081906169d9565b604051638c364d5960e01b81526f5265736f757263654163636573730000661d189ddbdc9b1960ca1b016004820152608060248201529160209183918290819061424e906084830190613cbe565b906146d3602091949394604084526040840190611881565b6001600160a01b03909416910152565b90916060828403126102435781516001600160401b039290838111610243578461470e9183016117dd565b9360208201519360408301519081116102435761150092016117dd565b6001600160a01b0361473b614d62565b16308103614754575061474d906152e5565b9192909190565b60405163419b58fd60e01b81525f8051602061869283398151915260048201526060602482015292915f91849182908190614793906064830190613cbe565b5f80516020618772833981519152604483015203915afa908115610839575f80935f936147c1575b50929190565b919350506147e191503d805f833e6147d98183610446565b8101906146e3565b929092915f6147bb565b6001600160a01b036147fb614d62565b1630810361480d575061474d90615342565b60405163419b58fd60e01b81526f46756e6374696f6e53656c6563746f72661d189ddbdc9b1960ca1b0160048201526060602482015292915f9184918290819061485b906064830190613cbe565b64090080080160d21b604483015203915afa908115610839575f80935f936147c15750929190565b6001600160a01b03614893614d62565b163081036148a5575061474d906153cc565b60405163419b58fd60e01b81525f8051602061879283398151915260048201526060602482015292915f918491829081906148e4906064830190613cbe565b665504022014200160c01b604483015203915afa908115610839575f80935f936147c15750929190565b610500826104ec565b906001600160a01b03614928614d62565b169130830361493b576103449250615cbe565b90823b15610243576040516301c85d5760e51b81525f80516020618692833981519152600482015260a06024820152925f92849283918591839161398891906132a59060a4850190613cbe565b61499181610503565b60f81b9052565b600a8110156103225760f81b9052565b9b9a999897969594939291906040519c60208e015260408d01526149cb816104ec565b60f81b60608c015260618b015260818a015260a189015260c188015260e18701526149f581610503565b60f81b6101018601526101028501614a0c91614988565b6101038401614a1a91614988565b6101048301614a2891614998565b151560f81b61010582015260e681526115008161042a565b6001600160a01b03614a50614d62565b16308103614a6357509061034491615cd2565b90813b156102435760405163298314fb60e01b81525f80516020618692833981519152600482015260a06024820152925f92849290918391859183916133529190614ac990614ab69060a4860190613cbe565b6003199283868303016044870152611881565b90846064850152838203016084840152611844565b909291906001600160a01b03614af2614d62565b16308103614b0557509261034493615ed7565b909192813b156102435760405163298314fb60e01b81525f80516020618792833981519152600482015260a06024820152945f9486948593879385936133529390929190614b6e90614b5b9060a4880190613cbe565b6003199283888303016044890152611881565b926064860152848303016084850152611881565b906001600160a01b03614b93614d62565b16803014614be857905f91614bbf938360405180968195829463075cf5e160e31b8452600484016118dd565b03925af1908115610839575f91614bd4575090565b61150091503d805f833e61082a8183610446565b50614bf1612ce6565b91614bfa612809565b8051156102ff5780826020614c1093015261523e565b5050906034602083015160601c92015160f81c8215614c815715614c72575b60101b6001600160901b031916614c5857614c4992617bd5565b905b15614c535790565b6165a9565b90614c6691614c6c93617bb0565b90151591565b90614c4b565b614c7c8482617b4a565b614c2f565b50614c8b8161514f565b604051637df8867360e11b815291829161164e91600484016118dd565b6001600160a01b03614cb8614d62565b16308103614cca5750611500906165b1565b604051631e78897760e01b81525f80516020618792833981519152600482015260606024820152915f91839182908190614d08906064830190613cbe565b6001604483015203915afa908115610839575f91614bd4575090565b6020611500916040519381614d4286935180928680870191016117bc565b8201614d56825180938680850191016117bc565b01038084520182610446565b7f629a4c26e296b22a8e0856e9f6ecb2d1008d7e00081111962cd175fa7488e175546001600160a01b03168061150057503390565b604080515f80516020618752833981519152602080830191825284519383019594919391810191905f5b828110614e035750505050614de381611500949503601f198101835282610446565b5190205f805160206186f283398151915218614dfd616ce5565b90616e0d565b835188529681019692810192600101614dc1565b614e2090616a45565b5f80915b600b8310614e36576115009250616e4b565b9060ff6fe60d002020012020202020010101010160781b84601b0360031b1c1681018091116119575760019092019190614e24565b614e7761150091616a45565b614e7f616d1b565b90616e4b565b614e9161150091616aa6565b614dfd616d5c565b614ea561150091616aa6565b614ead616d94565b90616e7c565b614ebc90616a45565b5f80915b60068310614ed2576115009250616e0d565b9060ff6fe60d002020012020202020010101010160781b84601b0360031b1c1681018091116119575760019092019190614ec0565b614f1090616a45565b5f80915b600a8310614f26576115009250616e4b565b9060ff6fe60d002020012020202020010101010160781b84601b0360031b1c1681018091116119575760019092019190614f14565b614f6490616aa6565b5f9190825b600380851015614f9e57665504022014200160c01b601b86900390911b1c60ff16810190811061195757600190930192614f69565b5090611500929350616e4b565b614fb761150091616a45565b614e7f616dcc565b614fc890616a45565b5f80915b60098310614fde576115009250616e4b565b9060ff6fe60d002020012020202020010101010160781b84601b0360031b1c1681018091116119575760019092019190614fcc565b61501c90616a45565b5f80915b60058310615032576115009250616e0d565b9060ff6fe60d002020012020202020010101010160781b84601b0360031b1c1681018091116119575760019092019190615020565b60405160208160208101936f556c74696d617465446f6d696e696f6e631d18955160e21b0185526040820160208251919201935f5b828110615116575050506150b9925003601f198101835282610446565b5190205f805160206186f2833981519152185f80915b600283106150e1576115009250616e7c565b9060ff6f45434000450505050505050805080805607a1b84601b0360031b1c16810180911161195757600190920191906150cf565b85518452948101948694509281019260010161509c565b6040519061513a826103d9565b60068252651e3937b7ba1f60d11b6020830152565b608081901b6001600160801b0319169061150090602490601081901b6001600160901b031916806151fd575061518361512d565b935b806151ef575061519361512d565b60405194859261ffff60f01b166020840152601d60f91b908160228501526151c58151809260206023880191016117bc565b83019060238201526151e082518093602087850191016117bc565b01036004810184520182610446565b6151f890616ee5565b615193565b61520690616ee5565b93615185565b906152168261063e565b6152236040519182610446565b8281528092615234601f199161063e565b0190602036910137565b5f906060906040519060209082615259602082019283616623565b039261526d601f1994858101835282610446565b5190205f805160206186f2833981519152189160405192816054850116604052601584526020840192601591925b818310156152cd575050806152b1575b50505092565b5f199060031b1c908183511691199054161790525f80806152ab565b8160018583949597965487520194019401919061529b565b5f906152f2606091616abb565b60405190602090601f19908161012585011660405260e68452602084019260e691925b8183101561532a575050806152b15750505092565b81600185839495979654875201940194019190615315565b5f90606090604051906020908261535d6020820192836166f7565b0392615371601f1994858101835282610446565b5190205f805160206186f2833981519152189160405192816063850116604052602484526020840192602491925b818310156153b4575050806152b15750505092565b8160018583949597965487520194019401919061539f565b906153d682616ad0565b60405190602090601f1990816094850116604052605584526020840192605591925b818310156154a75750508061548b575b5050509061541583617d14565b5461542866ffffffffffffff821661520c565b935f93602086015b60ff86166002811015615481576154628264ffffffffff876154528b89616f6e565b946028026038011c168093617050565b8101809111611957579460ff8091169081146119575760010194615430565b5050949291935050565b5f199060031b1c908183511691199054161790525f8080615408565b816001858394959796548752019401940191906153f8565b91906154ca83616ae5565b916154d3617eb0565b905f5b825181101561557a5761550a6154fd6154ef8386612885565b516001600160581b03191690565b6001600160581b03191690565b9060049182808260581c1614615526575b5060019150016154d6565b60601c803b1561024357855f918983615554966040519788958694859363964f667d60e01b855284016170f6565b03925af1918215610839576001921561551b5780610a68615574926103c6565b5f61551b565b50604080519194909392916155c4918491674d6f62537461747360401b631d18955160e21b01905f805160206186d283398151915290806155bc868d8361709a565b0390a26182b0565b5f5b8151811015615650576155df6154fd6154ef8385612885565b6008808260581c16146155f6575b506001016155c6565b60601c90813b1561024357845163a8ba872160e01b8152915f9083908183816156238a8e600484016170f6565b03925af19182156108395760019261563d575b50906155ed565b80610a6861564a926103c6565b5f615636565b505050509050565b9190915f805b600482106157f15765ffffffffffff91501661567982616b49565b615681617f45565b905f5b825181101561570e5761569d6154fd6154ef8386612885565b9060049182808260581c16146156b9575b506001915001615684565b60601c803b1561024357855f9188838c966156e86040519889968795869463964f667d60e01b8652850161713c565b03925af191821561083957600192156156ae5780610a68615708926103c6565b5f6156ae565b5094919061575b8383604098875f805160206186d28339815191526040518061575387876f43686172616374657245717569706d65631d18955160e21b0196846170c5565b0390a2618334565b5f5b81518110156157e8576157766154fd6154ef8385612885565b6008808260581c161461578d575b5060010161575d565b60601c90813b1561024357875163a8ba872160e01b8152915f9083908183816157bb8b8b8e6004850161713c565b03925af1918215610839576001926157d5575b5090615784565b80610a686157e2926103c6565b5f6157ce565b50505050509050565b60ff67050028290101010160bd1b83601b0360031b1c1681018091116119575760019091019061565e565b919061582783616bb2565b91615830617fdb565b905f5b82518110156158bc5761584c6154fd6154ef8386612885565b9060049182808260581c1614615868575b506001915001615833565b60601c803b1561024357855f918983615896966040519788958694859363964f667d60e01b8552840161718c565b03925af1918215610839576001921561585d5780610a686158b6926103c6565b5f61585d565b50604080519194909392916158fe91849167436f756e7465727360401b631d18955160e21b01905f805160206186d283398151915290806155bc868d8361709a565b5f5b8151811015615650576159196154fd6154ef8385612885565b6008808260581c1614615930575b50600101615900565b60601c90813b1561024357845163a8ba872160e01b8152915f90839081838161595d8a8e6004840161718c565b03925af191821561083957600192615977575b5090615927565b80610a68615984926103c6565b5f615970565b906103449165ffffffffffff61599e616d94565b1690617450565b91909165ffffffffffff6159b7616ce5565b166159c182616c7c565b6159c961818c565b905f5b8251811015615a56576159e56154fd6154ef8386612885565b9060049182808260581c1614615a01575b5060019150016159cc565b60601c803b1561024357855f9188838c96615a306040519889968795869463964f667d60e01b86528501617272565b03925af191821561083957600192156159f65780610a68615a50926103c6565b5f6159f6565b50949190615a9b8383604098875f805160206186d28339815191526040518061575387876f4368617261637465724f776e65720000631d18955160e21b0196846170c5565b5f5b81518110156157e857615ab66154fd6154ef8385612885565b6008808260581c1614615acd575b50600101615a9d565b60601c90813b1561024357875163a8ba872160e01b8152915f908390818381615afb8b8b8e60048501617272565b03925af191821561083957600192615b15575b5090615ac4565b80610a68615b22926103c6565b5f615b0e565b9190615b3383616c16565b91615b3c618070565b905f5b8251811015615bc857615b586154fd6154ef8386612885565b9060049182808260581c1614615b74575b506001915001615b3f565b60601c803b1561024357855f918983615ba2966040519788958694859363964f667d60e01b855284016171be565b03925af19182156108395760019215615b695780610a68615bc2926103c6565b5f615b69565b5060408051919490939291615c039184915f805160206186b2833981519152905f805160206186d283398151915290806155bc868d8361709a565b5f5b815181101561565057615c1e6154fd6154ef8385612885565b6008808260581c1614615c35575b50600101615c05565b60601c90813b1561024357845163a8ba872160e01b8152915f908390818381615c628a8e600484016171be565b03925af191821561083957600192615c7c575b5090615c2c565b80610a68615c89926103c6565b5f615c75565b906103449165ffffffffffff61599e616d5c565b906103449165ffffffffffff615cb7616dcc565b169061773c565b906103449165ffffffffffff615cb7616d1b565b60408051655461626c657360501b66746273746f726560c81b01602082019081525f805160206186928339815191528284018190528383529295929491615d18816103f4565b5190205f805160206186f2833981519152185491615d346180fe565b905f5b8251811015615dc257615d506154fd6154ef8386612885565b6001808260581c1614615d67575b50600101615d37565b60601c90813b156102435788516315c19b2760e21b8152915f908390818381615d958c8c8f60048501617911565b03925af191821561083957600192615daf575b5090615d5e565b80610a68615dbc926103c6565b5f615da8565b50945f80516020618712833981519152875180615de08689836178a7565b0390a2615dfb615def85616abb565b8351602085019161837a565b60ff808460e01c1680615e98575b50505f5b81518110156157e857615e266154fd6154ef8385612885565b6002808260581c1614615e3d575b50600101615e0d565b60601c90813b15610243578751635b28cdaf60e01b8152915f908390818381615e6b8b8b8e60048501617911565b03925af191821561083957600192615e85575b5090615e34565b80610a68615e92926103c6565b5f615e7e565b5f615ea287617d3e565b555f60805b8284831610615eb7575050615e09565b600181615ece8693615ec9868d617006565b618345565b92011690615ea7565b60408051655461626c657360501b66746273746f726560c81b01602082019081525f8051602061879283398151915282840181905283835296979295949291615f1f816103f4565b5190205f805160206186f2833981519152185490615f3b617e22565b905f5b8251811015615fce57615f576154fd6154ef8386612885565b6001808260581c1614615f6e575b50600101615f3e565b60601c90813b15610243575f888c9388838b615fa18f8c9051998a97889687956315c19b2760e21b87526004870161796c565b03925af191821561083957600192615fbb575b5090615f65565b80610a68615fc8926103c6565b5f615fb4565b50965f80516020618712833981519152875180615fee8c8a898b856178e3565b0390a2616009615ffd85616ad0565b8451602086019161837a565b60ff808360e01c16806160b5575b50505f5b81518110156160aa576160346154fd6154ef8385612885565b6002808260581c161461604b575b5060010161601b565b60601c90813b15610243575f878b9387838a61607d8a8f51998a9788968795635b28cdaf60e01b87526004870161796c565b03925af191821561083957600192616097575b5090616042565b80610a686160a4926103c6565b5f616090565b505050505050509050565b96909892959493856160c9869a949a617d53565b555f96602085015b8b8916908a82101561611b576161128d928261610d60019464ffffffffff8f8f908f906160fd9161702b565b956028026038011c16809461837a565b61196a565b990116976160d1565b5050939950939495509550955f80616017565b91909161613a81617d29565b5464ffffffffff8160381c1661615b616153828061194a565b86519061196a565b8181141594908580616336575b61631a57616176908461842d565b9061617f617d68565b915f5b83518110156162115761619b6154fd6154ef8387612885565b6010808260581c16146161b2575b50600101616182565b60601c90813b15610243575f878b9388838c6161e460405198899687958694630abd6b4560e31b8652600486016179f9565b03925af1918215610839576001926161fe575b50906161a9565b80610a6861620b926103c6565b5f6161f7565b5093509491906040926040515f805160206186728339815191527774624368617261637465727300000000546f6b656e55524960401b91806162568c8a898d85617ab9565b0390a261630a575b6162708761626b87616fab565b6182b0565b5f5b81518110156163005761628b6154fd6154ef8385612885565b6020808260581c16146162a2575b50600101616272565b60601c90813b15610243575f868a9386838b6162d38b5198899687958694636358453360e01b8652600486016179f9565b03925af1918215610839576001926162ed575b5090616299565b80610a686162fa926103c6565b5f6162e6565b5050505050509050565b8361631486617d29565b5561625e565b604051632994042d60e21b81528061164e8580600484016179db565b508261634e616344826179c8565b64ffffffffff1690565b1415616168565b91909161636181617d14565b5464ffffffffff926060848360601c169161638761637f848061194a565b88519061196a565b8381141596908780616594575b616578576163a290866184aa565b966163ab617e22565b925f5b845181101561643c576163c76154fd6154ef8388612885565b6010808260581c16146163de575b506001016163ae565b861c90813b15610243575f898d938a838e61640f60405198899687958694630abd6b4560e31b865260048601617a5e565b03925af191821561083957600192616429575b50906163d5565b80610a68616436926103c6565b5f616422565b509298939790949691965f985f995b60ff8b1660018110156164725760ff918b8b6001936028026038011c16019b01169961644b565b509692975093985093989196506040945f8051602061867283398151915285896164c48d8b60405194859465ffffffffffff694368617261637465727360301b631d18955160e21b0199169086617afd565b0390a2616568575b6164d98861626b88616fcf565b5f5b81518110156160aa576164f46154fd6154ef8385612885565b6020808260581c161461650b575b506001016164db565b831c90813b15610243575f878b9387838c61653b8c5198899687958694636358453360e01b865260048601617a5e565b03925af191821561083957600192616555575b5090616502565b80610a68616562926103c6565b5f61654e565b8461657287617d14565b556164cc565b604051632994042d60e21b81528061164e8780600484016179db565b50846165a2616344826179c8565b1415616394565b602081519101fd5b6115009064ffffffffff6165cd6165c783616fcf565b92617d14565b5460601c1690617bf5565b6953746f7265486f6f6b7360301b66746273746f726560c81b01815281516020918201928201915f5b82811061660f575050505090565b835185529381019392810192600101616601565b6653797374656d7360481b661d189ddbdc9b1960ca1b01815281516020918201928201915f5b828110616657575050505090565b835185529381019392810192600101616649565b5f80516020618792833981519152815281516020918201928201915f5b828110616696575050505090565b835185529381019392810192600101616688565b7774624368617261637465727300000000546f6b656e55524960401b815281516020918201928201915f5b8281106166e3575050505090565b8351855293810193928101926001016166d5565b6f46756e6374696f6e53656c6563746f72661d189ddbdc9b1960ca1b01815281516020918201928201915f5b828110616731575050505090565b835185529381019392810192600101616723565b5f80516020618692833981519152815281516020918201928201915f5b828110616770575050505090565b835185529381019392810192600101616762565b5f80516020618792833981519152815281516020918201928201915f5b8281106167af575050505090565b8351855293810193928101926001016167a1565b60405160208160208101936f53797374656d52656769737472790000661d189ddbdc9b1960ca1b0185526040820160208251919201935f5b82811061682d57505050616818925003601f198101835282610446565b5190205f805160206186f28339815191521890565b8551845294810194869450928101926001016167fb565b60405160208160208101936f4368617261637465724f776e65720000631d18955160e21b0185526040820160208251919201935f5b82811061689657505050616818925003601f198101835282610446565b855184529481019486945092810192600101616879565b604051602081602081019367436f756e7465727360401b631d18955160e21b0185526040820160208251919201935f5b8281106168fa57505050616818925003601f198101835282610446565b8551845294810194869450928101926001016168dd565b6040516020816020810193694e616d6545786973747360301b631d18955160e21b0185526040820160208251919201935f5b82811061696057505050616818925003601f198101835282610446565b855184529481019486945092810192600101616943565b6040516020816020810193654c6576656c7360501b631d18955160e21b0185526040820160208251919201935f5b8281106169c257505050616818925003601f198101835282610446565b8551845294810194869450928101926001016169a5565b60405160208160208101936f5265736f757263654163636573730000661d189ddbdc9b1960ca1b0185526040820160208251919201935f5b828110616a2e57505050616818925003601f198101835282610446565b855184529481019486945092810192600101616a11565b604051602081602081019364537461747360581b631d18955160e21b0185526040820160208251919201935f5b828110616a8f57505050616818925003601f198101835282610446565b855184529481019486945092810192600101616a72565b6040516168188161076260208201948561666b565b60405161681881610762602082019485616745565b60405161681881610762602082019485616784565b6040516020816020810193674d6f62537461747360401b631d18955160e21b0185526040820160208251919201935f5b828110616b3257505050616818925003601f198101835282610446565b855184529481019486945092810192600101616b15565b60405160208160208101936f43686172616374657245717569706d65631d18955160e21b0185526040820160208251919201935f5b828110616b9b57505050616818925003601f198101835282610446565b855184529481019486945092810192600101616b7e565b604051602081602081019367436f756e7465727360401b631d18955160e21b0185526040820160208251919201935f5b828110616bff57505050616818925003601f198101835282610446565b855184529481019486945092810192600101616be2565b6040516020816020810193694e616d6545786973747360301b631d18955160e21b0185526040820160208251919201935f5b828110616c6557505050616818925003601f198101835282610446565b855184529481019486945092810192600101616c48565b60405160208160208101936f4368617261637465724f776e65720000631d18955160e21b0185526040820160208251919201935f5b828110616cce57505050616818925003601f198101835282610446565b855184529481019486945092810192600101616cb1565b5f805b60018110616cf4575090565b9060ff64020010010160d51b83601b0360031b1c1681018091116119575790600101616ce8565b5f805b60028110616d2a575090565b9060ff6fe60d002020012020202020010101010160781b83601b0360031b1c1681018091116119575790600101616d1e565b5f805b60028110616d6b575090565b9060ff665504022014200160c01b83601b0360031b1c1681018091116119575790600101616d5f565b5f805b60018110616da3575090565b9060ff665504022014200160c01b83601b0360031b1c1681018091116119575790600101616d97565b5f805b60088110616ddb575090565b9060ff6fe60d002020012020202020010101010160781b83601b0360031b1c1681018091116119575790600101616dcf565b6020821015616e3d575b80548260031b1b916020039081602011616e3057505090565b600101549060031b1c1790565b601f82169160051c01616e17565b6020821015616e6e575b80548260031b1b916020039081600111616e3057505090565b601f82169160051c01616e55565b6020821015616e9f575b80548260031b1b916020039081601411616e3057505090565b601f82169160051c01616e86565b616eb5612823565b908151156102ff5760208201528051600110156102ff576001600160a01b0390911660408201526131469061464b565b5f5b60108110616f16575b6040516001600160801b0319909216602083015260108252616f11826103d9565b815290565b6001600160801b03198216600382901b1b6001600160f81b03191615616f3e57600101616ee7565b616ef0565b5f8051602061873283398151915290604051616f67816107626020820194856165d8565b5190201890565b905f8051602061873283398151915291604051616f938161076260208201948561666b565b51902060f89190911b6001600160f81b031916181890565b5f8051602061873283398151915290604051616f67816107626020820194856166aa565b7f3a4102da22e32d82fc925482184f16c09fd4281692720b87d124aef6da48a0f190604051616f678161076260208201948561666b565b905f8051602061873283398151915291604051616f9381610762602082019485616745565b905f8051602061873283398151915291604051616f9381610762602082019485616784565b9291925b6020908183106170745780548552930192601f1990910190600101617054565b9190509291928061708457505050565b5f199060031b1c90818351169119905416179052565b90916170b161150093606084526060840190613cbe565b915f60208201526040818403910152611881565b65ffffffffffff6170e26115009593606084526060840190613cbe565b931660208201526040818403910152611881565b674d6f62537461747360401b631d18955160e21b01815260806020820181905261150093919261712891840190613cbe565b915f60408201526060818403910152611881565b65ffffffffffff61717861150095936f43686172616374657245717569706d65631d18955160e21b018452608060208501526080840190613cbe565b931660408201526060818403910152611881565b67436f756e7465727360401b631d18955160e21b01815260806020820181905261150093919261712891840190613cbe565b5f805160206186b2833981519152815260806020820181905261150093919261712891840190613cbe565b5f80516020618792833981519152815260806020820181905261150093919261712891840190613cbe565b5f805160206187928339815191528152608060208201819052611500949265ffffffffffff916171789190840190613cbe565b5f80516020618752833981519152815260806020820181905261150093919261712891840190613cbe565b65ffffffffffff61717861150095936f4368617261637465724f776e65720000631d18955160e21b018452608060208501526080840190613cbe565b5f805160206186928339815191528152608060208201819052611500949265ffffffffffff916171789190840190613cbe565b91906172ec83616ad0565b916172f5617e22565b905f5b8251811015617381576173116154fd6154ef8386612885565b9060049182808260581c161461732d575b5060019150016172f8565b60601c803b1561024357855f91898361735b966040519788958694859363964f667d60e01b855284016171e9565b03925af191821561083957600192156173225780610a6861737b926103c6565b5f617322565b50604080519194909392916173c49184915f80516020618792833981519152905f805160206186d283398151915290806173bc868d8361709a565b0390a26182fd565b5f5b8151811015615650576173df6154fd6154ef8385612885565b6008808260581c16146173f6575b506001016173c6565b60601c90813b1561024357845163a8ba872160e01b8152915f9083908183816174238a8e600484016171e9565b03925af19182156108395760019261743d575b50906173ed565b80610a6861744a926103c6565b5f617436565b9092919261745d82616ad0565b617465617e22565b905f5b82518110156174f2576174816154fd6154ef8386612885565b9060049182808260581c161461749d575b506001915001617468565b60601c803b1561024357855f9188838c966174cc6040519889968795869463964f667d60e01b86528501617214565b03925af191821561083957600192156174925780610a686174ec926103c6565b5f617492565b50604080519096939291617540918591905f80516020618792833981519152905f805160206186d2833981519152908061752e868a8d846170c5565b0390a265ffffffffffff851690618334565b5f5b81518110156157e85761755b6154fd6154ef8385612885565b6008808260581c1614617572575b50600101617542565b60601c90813b1561024357875163a8ba872160e01b8152915f9083908183816175a08b8b8e60048501617214565b03925af1918215610839576001926175ba575b5090617569565b80610a686175c7926103c6565b5f6175b3565b91906175d883616c7c565b916175e161818c565b905f5b825181101561766d576175fd6154fd6154ef8386612885565b9060049182808260581c1614617619575b5060019150016175e4565b60601c803b1561024357855f918983617647966040519788958694859363964f667d60e01b85528401617247565b03925af1918215610839576001921561760e5780610a68617667926103c6565b5f61760e565b509291906176b0826040946040515f805160206186d28339815191526f4368617261637465724f776e65720000631d18955160e21b0191806173bc868d8361709a565b5f5b8151811015615650576176cb6154fd6154ef8385612885565b6008808260581c16146176e2575b506001016176b2565b60601c90813b1561024357845163a8ba872160e01b8152915f90839081838161770f8a8e60048401617247565b03925af191821561083957600192617729575b50906176d9565b80610a68617736926103c6565b5f617722565b9092919261774982616abb565b617751618222565b905f5b82518110156177de5761776d6154fd6154ef8386612885565b9060049182808260581c1614617789575b506001915001617754565b60601c803b1561024357855f9188838c966177b86040519889968795869463964f667d60e01b865285016172ae565b03925af1918215610839576001921561777e5780610a686177d8926103c6565b5f61777e565b5060408051909693929161781a918591905f80516020618692833981519152905f805160206186d2833981519152908061752e868a8d846170c5565b5f5b81518110156157e8576178356154fd6154ef8385612885565b6008808260581c161461784c575b5060010161781c565b60601c90813b1561024357875163a8ba872160e01b8152915f90839081838161787a8b8b8e600485016172ae565b03925af191821561083957600192617894575b5090617843565b80610a686178a1926103c6565b5f61788d565b90611500926178c16178cf92608085526080850190613cbe565b908382036020850152611881565b905f60408201526060818303910152611844565b9061150094926178c16178fe92608085526080850190613cbe565b9260408201526060818403910152611881565b5f80516020618692833981519152815260c0602082018190529094939260a09261796792617954929161794691890190613cbe565b908782036040890152611881565b5f60608701528581036080870152611844565b930152565b9594936179b5617967936179a760a09694694368617261637465727360301b631d18955160e21b018b5260c060208c015260c08b0190613cbe565b9089820360408b0152611881565b9160608801528682036080880152611881565b9064ffffffffff80921691821161195757565b5f815264ffffffffff91821660208201529116604082015260600190565b909264ffffffffff617a396115009694957774624368617261637465727300000000546f6b656e55524960401b855260e0602086015260e0850190613cbe565b945f60408501525f606085015216608083015260a082015260c0818403910152611881565b5f80516020618792833981519152815260e060208201819052611500959394919264ffffffffff91617a939190850190613cbe565b94600160408501525f606085015216608083015260a082015260c0818403910152611881565b909264ffffffffff617ad861150096949560c0855260c0850190613cbe565b945f60208501525f6040850152166060830152608082015260a0818403910152611881565b919390611500959365ffffffffffff617b2464ffffffffff9360c0875260c0870190613cbe565b9660016020870152166040850152166060830152608082015260a0818403910152611881565b617b6782600160801b600160f01b038316616e7360f01b176185a8565b8015617b7657156128fd575050565b5061292d82826185a8565b3d15617bab573d90617b928261063e565b91617ba06040519384610446565b82523d5f602084013e565b606090565b90617bbe5f93928493618517565b9082602083519301915af1617bd1617b81565b9091565b90617be35f93928493618517565b90602082519201905af4617bd1617b81565b60408051601f19603f85830101811690925283815292602080850193925b81831015617c4557505080617c29575b50505090565b5f199060031b1c908183511691199054161790525f8080617c23565b81600185839495979654875201940194019190617c13565b9081518111617c7c576001600160801b031660209190910160801b1790565b6040516323230fa360e01b81526060600482015292508291617ca2906064840190611881565b905f602484015260448301520390fd5b906103446001600160801b038316617cc98161520c565b93602085019060801c61855f565b604051617cec816107626020820194856165d8565b5190207f14e2fcc58e58e68ec7edc30c8d50dccc3ce2714a623ec81f46b6a63922d765691890565b604051617cec8161076260208201948561666b565b604051617cec816107626020820194856166aa565b604051617cec81610762602082019485616745565b604051617cec81610762602082019485616784565b617d70612809565b8051156102ff57617dd2617dca6020927774624368617261637465727300000000546f6b656e55524960401b6020820152617dc4617db6617db083616f43565b92617cd7565b5460381c64ffffffffff1690565b90617bf5565b805190617c5d565b8060801c916015809260018060801b03160490604051936020850160208460051b8701016040528386525f5b848110617e0e5750505050505090565b825182529185019190830190600101617dfe565b617e2a612809565b8051156102ff575f8051602061879283398151915260208281019190915290617e6090617dca90617dc4617db6617db083616f43565b8060801c916015809260018060801b03160490604051936020850160208460051b8701016040528386525f5b848110617e9c5750505050505090565b825182529185019190830190600101617e8c565b617eb8612809565b8051156102ff57674d6f62537461747360401b631d18955160e21b0160208281019190915290617ef590617dca90617dc4617db6617db083616f43565b8060801c916015809260018060801b03160490604051936020850160208460051b8701016040528386525f5b848110617f315750505050505090565b825182529185019190830190600101617f21565b617f4d612809565b8051156102ff57617f8b617dca6020926f43686172616374657245717569706d65631d18955160e21b016020820152617dc4617db6617db083616f43565b8060801c916015809260018060801b03160490604051936020850160208460051b8701016040528386525f5b848110617fc75750505050505090565b825182529185019190830190600101617fb7565b617fe3612809565b8051156102ff5767436f756e7465727360401b631d18955160e21b016020828101919091529061802090617dca90617dc4617db6617db083616f43565b8060801c916015809260018060801b03160490604051936020850160208460051b8701016040528386525f5b84811061805c5750505050505090565b82518252918501919083019060010161804c565b618078612809565b8051156102ff575f805160206186b2833981519152602082810191909152906180ae90617dca90617dc4617db6617db083616f43565b8060801c916015809260018060801b03160490604051936020850160208460051b8701016040528386525f5b8481106180ea5750505050505090565b8251825291850191908301906001016180da565b618106612809565b8051156102ff575f805160206186928339815191526020828101919091529061813c90617dca90617dc4617db6617db083616f43565b8060801c916015809260018060801b03160490604051936020850160208460051b8701016040528386525f5b8481106181785750505050505090565b825182529185019190830190600101618168565b618194612809565b8051156102ff576181d2617dca6020926f4368617261637465724f776e65720000631d18955160e21b016020820152617dc4617db6617db083616f43565b8060801c916015809260018060801b03160490604051936020850160208460051b8701016040528386525f5b84811061820e5750505050505090565b8251825291850191908301906001016181fe565b61822a612809565b8051156102ff575f805160206186928339815191526020828101919091529061826090617dca90617dc4617db6617db083616f43565b8060801c916015809260018060801b03160490604051936020850160208460051b8701016040528386525f5b84811061829c5750505050505090565b82518252918501919083019060010161828c565b81519060208093019190925b808210156182e55750806182cf57505050565b5f199060031b1c90818354169119905116179055565b6001839482939451815501930191601f1901906182bc565b81519060208093019190925b8082101561831c5750806182cf57505050565b6001839482939451815501930191601f190190618309565b82516103449360200192909161839d565b9190915f905b60209081831061836b5784518155930192601f199091019060010161834b565b9293919050806182cf57505050565b92919260209081831061836b5784518155930192601f199091019060010161834b565b9093929193806183cc575b5092909260209081831061836b5784518155930192601f199091019060010161834b565b602081101561841d575b80156183a85791939082602003908360031b5f198460031b1c19811c908751901c90801983541691161781558183111561565057600101940191601f19910101925f6183a8565b90601f908260051c0191166183d6565b64ffffffffff8083116184915766ffffffffffffff821690603883901c1683818110618487570301915b64ffffffffff60381b60389190911b1664ffffffffff60381b19929092166001600160601b031991909116171790565b9003900391618457565b604051637149a3c160e01b815260048101849052602490fd5b64ffffffffff8083116184915766ffffffffffffff821690606083901c168381811061850d570301915b64ffffffffff60601b60609190911b1664ffffffffff60601b1992909216600169ffffffffff000000000160381b031991909116171790565b90039003916184d4565b60546115009160405193816185368693518092602080870191016117bc565b82019060018060601b03199060601b1660208201525f6034820152036034810184520182610446565b9291905b602090818310618582578451815293810193601f199092019101618563565b929391905080156185a3575f199060031b1c90818351169119905116179052565b505050565b6185b0612823565b908151156102ff5760209260208301918252825190600191600110156102ff576001600160a01b031660408085019190915280516f5265736f757263654163636573730000661d189ddbdc9b1960ca1b0160208201908152945194959094918501939291905f5b82811061865e575050505050918161863e613146936115009503601f198101835282610446565b5190205f805160206186f283398151915218546001600160f81b03191690565b845186529481019493810193830161861756fefe158a7adba34e256807c8a149028d3162918713c3838afc643ce9f96716ebfd7462554400000000000000000000000053746174730000000000000000000000746255440000000000000000000000004e616d654578697374730000000000008c0b5119d4cec7b284c6b1b39252a03d1e2f2d7451a5895562524c113bb952be86425bff6b57326c7859e89024fe4f238ca327a1ae4a230180dd2f0e88aaa7d98dbb3a9672eebfd3773e72dd9c102393436816d832c7ba9e1e1ac8fcadcac7a93b4102da22e32d82fc925482184f16c09fd4281692720b87d124aef6da48a0f1746255440000000000000000000000004368617261637465724f776e6572000000e60d00202001202020202001010101010000000000000000000000000000007462554400000000000000000000000043686172616374657273000000000000","linkReferences":{"src/libraries/StatCalculator.sol":{"StatCalculator":[{"start":9743,"length":20}]}}},"methodIdentifiers":{"_msgSender()":"119df25f","_msgValue()":"45ec9354","_world()":"e1af802c","choosePowerSource(bytes32,uint8)":"48b027f3","chooseRace(bytes32,uint8)":"9cca06ef","chooseStartingArmor(bytes32,uint8)":"7c636426","enterGame(bytes32)":"c74dedc8","getAdvancedClass(bytes32)":"0797e03e","getBaseStats(bytes32)":"7163c6ba","getCharacterIdFromOwnerAddress(address)":"06a3432f","getCharacterTokenId(bytes32)":"f8c67561","getClass(bytes32)":"23801570","getCurrentAvailableLevel(uint256)":"1ecb393f","getExperience(bytes32)":"ebee03bb","getName(bytes32)":"54b8d5e3","getOwner(bytes32)":"deb931a2","getOwnerAddress(bytes32)":"00d43ec6","getPlayerEntityId(uint256)":"8338f0e0","getPowerSource(bytes32)":"c75fadf2","getRace(bytes32)":"f70125db","getStartingArmor(bytes32)":"2dfb78cd","getStats(bytes32)":"0bb700dc","getValidAdvancedClass(bytes32)":"bf240995","isValidCharacterId(bytes32)":"623daa05","isValidOwner(bytes32,address)":"9b63ec05","levelCharacter(bytes32,(int256,int256,uint8,int256,int256,int256,uint256,uint256,uint8,uint8,uint8,uint8,bool))":"f59cb863","mintCharacter(address,bytes32,string)":"143f3021","rollBaseStats(bytes32,bytes32)":"aa8659e4","rollStats(bytes32,bytes32,uint8)":"679ee16d","selectAdvancedClass(bytes32,uint8)":"3493289b","setStats(bytes32,(int256,int256,int256,int256,int256,int256))":"09a4fa6e","supportsInterface(bytes4)":"01ffc9a7","updateTokenUri(bytes32,string)":"b27cbcbb"},"id":358}