{"abi":[{"type":"function","name":"_msgSender","inputs":[],"outputs":[{"name":"sender","type":"address","internalType":"address"}],"stateMutability":"view"},{"type":"function","name":"_msgValue","inputs":[],"outputs":[{"name":"value","type":"uint256","internalType":"uint256"}],"stateMutability":"pure"},{"type":"function","name":"_world","inputs":[],"outputs":[{"name":"","type":"address","internalType":"address"}],"stateMutability":"view"},{"type":"function","name":"enterGame","inputs":[{"name":"characterId","type":"bytes32","internalType":"bytes32"}],"outputs":[],"stateMutability":"nonpayable"},{"type":"function","name":"getCharacterTokenId","inputs":[{"name":"characterId","type":"bytes32","internalType":"bytes32"}],"outputs":[{"name":"","type":"uint256","internalType":"uint256"}],"stateMutability":"pure"},{"type":"function","name":"getClass","inputs":[{"name":"characterId","type":"bytes32","internalType":"bytes32"}],"outputs":[{"name":"_class","type":"uint8","internalType":"enum Classes"}],"stateMutability":"view"},{"type":"function","name":"getCurrentAvailableLevel","inputs":[{"name":"experience","type":"uint256","internalType":"uint256"}],"outputs":[{"name":"currentLevel","type":"uint256","internalType":"uint256"}],"stateMutability":"view"},{"type":"function","name":"getExperience","inputs":[{"name":"characterId","type":"bytes32","internalType":"bytes32"}],"outputs":[{"name":"","type":"uint256","internalType":"uint256"}],"stateMutability":"view"},{"type":"function","name":"getName","inputs":[{"name":"characterId","type":"bytes32","internalType":"bytes32"}],"outputs":[{"name":"_name","type":"bytes32","internalType":"bytes32"}],"stateMutability":"view"},{"type":"function","name":"getOwner","inputs":[{"name":"characterId","type":"bytes32","internalType":"bytes32"}],"outputs":[{"name":"","type":"address","internalType":"address"}],"stateMutability":"view"},{"type":"function","name":"getOwnerAddress","inputs":[{"name":"characterId","type":"bytes32","internalType":"bytes32"}],"outputs":[{"name":"","type":"address","internalType":"address"}],"stateMutability":"pure"},{"type":"function","name":"getPlayerEntityId","inputs":[{"name":"characterTokenId","type":"uint256","internalType":"uint256"}],"outputs":[{"name":"characterId","type":"bytes32","internalType":"bytes32"}],"stateMutability":"view"},{"type":"function","name":"getStats","inputs":[{"name":"characterId","type":"bytes32","internalType":"bytes32"}],"outputs":[{"name":"","type":"tuple","internalType":"struct StatsData","components":[{"name":"strength","type":"uint256","internalType":"uint256"},{"name":"agility","type":"uint256","internalType":"uint256"},{"name":"class","type":"uint8","internalType":"enum Classes"},{"name":"intelligence","type":"uint256","internalType":"uint256"},{"name":"baseHitPoints","type":"uint256","internalType":"uint256"},{"name":"currentHp","type":"int256","internalType":"int256"},{"name":"experience","type":"uint256","internalType":"uint256"},{"name":"level","type":"uint256","internalType":"uint256"}]}],"stateMutability":"view"},{"type":"function","name":"isValidCharacterId","inputs":[{"name":"characterId","type":"bytes32","internalType":"bytes32"}],"outputs":[{"name":"","type":"bool","internalType":"bool"}],"stateMutability":"view"},{"type":"function","name":"mintCharacter","inputs":[{"name":"account","type":"address","internalType":"address"},{"name":"name","type":"bytes32","internalType":"bytes32"},{"name":"tokenUri","type":"string","internalType":"string"}],"outputs":[{"name":"characterId","type":"bytes32","internalType":"bytes32"}],"stateMutability":"nonpayable"},{"type":"function","name":"rollStats","inputs":[{"name":"userRandomNumber","type":"bytes32","internalType":"bytes32"},{"name":"characterId","type":"bytes32","internalType":"bytes32"},{"name":"class","type":"uint8","internalType":"enum Classes"}],"outputs":[],"stateMutability":"payable"},{"type":"function","name":"supportsInterface","inputs":[{"name":"interfaceId","type":"bytes4","internalType":"bytes4"}],"outputs":[{"name":"","type":"bool","internalType":"bool"}],"stateMutability":"pure"},{"type":"function","name":"updateTokenUri","inputs":[{"name":"characterId","type":"bytes32","internalType":"bytes32"},{"name":"tokenUri","type":"string","internalType":"string"}],"outputs":[],"stateMutability":"nonpayable"},{"type":"event","name":"Store_SetRecord","inputs":[{"name":"tableId","type":"bytes32","indexed":true,"internalType":"ResourceId"},{"name":"keyTuple","type":"bytes32[]","indexed":false,"internalType":"bytes32[]"},{"name":"staticData","type":"bytes","indexed":false,"internalType":"bytes"},{"name":"encodedLengths","type":"bytes32","indexed":false,"internalType":"EncodedLengths"},{"name":"dynamicData","type":"bytes","indexed":false,"internalType":"bytes"}],"anonymous":false},{"type":"event","name":"Store_SpliceDynamicData","inputs":[{"name":"tableId","type":"bytes32","indexed":true,"internalType":"ResourceId"},{"name":"keyTuple","type":"bytes32[]","indexed":false,"internalType":"bytes32[]"},{"name":"dynamicFieldIndex","type":"uint8","indexed":false,"internalType":"uint8"},{"name":"start","type":"uint48","indexed":false,"internalType":"uint48"},{"name":"deleteCount","type":"uint40","indexed":false,"internalType":"uint40"},{"name":"encodedLengths","type":"bytes32","indexed":false,"internalType":"EncodedLengths"},{"name":"data","type":"bytes","indexed":false,"internalType":"bytes"}],"anonymous":false},{"type":"event","name":"Store_SpliceStaticData","inputs":[{"name":"tableId","type":"bytes32","indexed":true,"internalType":"ResourceId"},{"name":"keyTuple","type":"bytes32[]","indexed":false,"internalType":"bytes32[]"},{"name":"start","type":"uint48","indexed":false,"internalType":"uint48"},{"name":"data","type":"bytes","indexed":false,"internalType":"bytes"}],"anonymous":false},{"type":"error","name":"EncodedLengths_InvalidLength","inputs":[{"name":"length","type":"uint256","internalType":"uint256"}]},{"type":"error","name":"Slice_OutOfBounds","inputs":[{"name":"data","type":"bytes","internalType":"bytes"},{"name":"start","type":"uint256","internalType":"uint256"},{"name":"end","type":"uint256","internalType":"uint256"}]},{"type":"error","name":"Store_IndexOutOfBounds","inputs":[{"name":"length","type":"uint256","internalType":"uint256"},{"name":"accessedIndex","type":"uint256","internalType":"uint256"}]},{"type":"error","name":"Store_InvalidResourceType","inputs":[{"name":"expected","type":"bytes2","internalType":"bytes2"},{"name":"resourceId","type":"bytes32","internalType":"ResourceId"},{"name":"resourceIdString","type":"string","internalType":"string"}]},{"type":"error","name":"Store_InvalidSplice","inputs":[{"name":"startWithinField","type":"uint40","internalType":"uint40"},{"name":"deleteCount","type":"uint40","internalType":"uint40"},{"name":"fieldLength","type":"uint40","internalType":"uint40"}]},{"type":"error","name":"World_AccessDenied","inputs":[{"name":"resource","type":"string","internalType":"string"},{"name":"caller","type":"address","internalType":"address"}]},{"type":"error","name":"World_FunctionSelectorNotFound","inputs":[{"name":"functionSelector","type":"bytes4","internalType":"bytes4"}]},{"type":"error","name":"World_ResourceNotFound","inputs":[{"name":"resourceId","type":"bytes32","internalType":"ResourceId"},{"name":"resourceIdString","type":"string","internalType":"string"}]}],"bytecode":{"object":"0x608060405234801561001057600080fd5b5061484c806100206000396000f3fe6080604052600436106101285760003560e01c8063623daa05116100a5578063c74dedc811610074578063e1af802c11610059578063e1af802c14610345578063ebee03bb1461035a578063f8c675611461037a57600080fd5b8063c74dedc814610305578063deb931a21461032557600080fd5b8063623daa0514610290578063679ee16d146102b05780638338f0e0146102c5578063b27cbcbb146102e557600080fd5b8063143f3021116100fc57806323801570116100e1578063238015701461022b57806345ec93541461025857806354b8d5e31461027057600080fd5b8063143f3021146101dd5780631ecb393f1461020b57600080fd5b8062d43ec61461012d57806301ffc9a71461016b5780630bb700dc1461019b578063119df25f146101c8575b600080fd5b34801561013957600080fd5b5061014e610148366004613d64565b60601c90565b6040516001600160a01b0390911681526020015b60405180910390f35b34801561017757600080fd5b5061018b610186366004613d7d565b6103a6565b6040519015158152602001610162565b3480156101a757600080fd5b506101bb6101b6366004613d64565b61043f565b6040516101629190613df6565b3480156101d457600080fd5b5061014e610450565b3480156101e957600080fd5b506101fd6101f8366004613f31565b61045f565b604051908152602001610162565b34801561021757600080fd5b506101fd610226366004613d64565b6106c1565b34801561023757600080fd5b5061024b610246366004613d64565b61073f565b6040516101629190613f8a565b34801561026457600080fd5b5036601f1901356101fd565b34801561027c57600080fd5b506101fd61028b366004613d64565b61074a565b34801561029c57600080fd5b5061018b6102ab366004613d64565b610755565b6102c36102be366004613f9d565b610881565b005b3480156102d157600080fd5b506101fd6102e0366004613d64565b6109f9565b3480156102f157600080fd5b506102c3610300366004613fda565b610a8e565b34801561031157600080fd5b506102c3610320366004613d64565b610aff565b34801561033157600080fd5b5061014e610340366004613d64565b610ccf565b34801561035157600080fd5b5061014e610cda565b34801561036657600080fd5b506101fd610375366004613d64565b610ce4565b34801561038657600080fd5b506101fd610395366004613d64565b6bffffffffffffffffffffffff1690565b60007fffffffff0000000000000000000000000000000000000000000000000000000082167fb5dee12700000000000000000000000000000000000000000000000000000000148061043957507fffffffff0000000000000000000000000000000000000000000000000000000082167f01ffc9a700000000000000000000000000000000000000000000000000000000145b92915050565b610447613d0e565b61043982610cef565b600061045a610da1565b905090565b60008061046a610dd3565b90506bffffffffffffffffffffffff81106104f25760405162461bcd60e51b815260206004820152602360248201527f43484152414341544552533a204d61782063686172616374657273207265616360448201527f686564000000000000000000000000000000000000000000000000000000000060648201526084015b60405180910390fd5b6104fa610cda565b6001600160a01b0316633ae7af086105317f4368617261637465727300000000000000000000000000000000000000000000610e06565b6040516001600160a01b03891660248201526044810185905260640160408051601f198184030181529181526020820180517bffffffffffffffffffffffffffffffffffffffffffffffffffffffff167f40c10f1900000000000000000000000000000000000000000000000000000000179052517fffffffff0000000000000000000000000000000000000000000000000000000060e085901b1681526105dd929190600401614071565b6000604051808303816000875af11580156105fc573d6000803e3d6000fd5b505050506040513d6000823e601f3d908101601f1916820160405261062491908101906140cf565b5061062e816109f9565b915061063a8286610e53565b6106448282610f22565b61064d84610fa1565b1561069a5760405162461bcd60e51b815260206004820152601360248201527f4e616d6520616c7265616479206578697374730000000000000000000000000060448201526064016104e9565b6106a5846001611046565b6106af82856110ff565b6106b9818461117e565b509392505050565b60006106cd60136111b1565b82106106db57506014919050565b60005b601481101561073957826106f1826111b1565b1115801561071057508261070e61070983600161411a565b6111b1565b115b156107275761072081600161411a565b9150610739565b806107318161412d565b9150506106de565b50919050565b60006104398261122d565b6000610439826112d7565b6000806107628360601c90565b90506bffffffffffffffffffffffff8316600061077d611369565b6001600160a01b0316636352211e836040518263ffffffff1660e01b81526004016107aa91815260200190565b602060405180830381865afa9250505080156107e3575060408051601f3d908101601f191682019092526107e091810190614147565b60015b15610862576107f0611369565b6001600160a01b0316636352211e846040518263ffffffff1660e01b815260040161081d91815260200190565b602060405180830381865afa15801561083a573d6000803e3d6000fd5b505050506040513d601f19601f8201168201806040525081019061085e9190614147565b9150505b826001600160a01b0316816001600160a01b0316149350505050919050565b61088a82611373565b156108fd5760405162461bcd60e51b815260206004820152602b60248201527f434841524143544552533a2063686172616374657220616c726561647920696e60448201527f2067616d6520776f726c6400000000000000000000000000000000000000000060648201526084016104e9565b61090682611405565b6109525760405162461bcd60e51b815260206004820152601360248201527f4e6f7420796f7572204368617261637465722e0000000000000000000000000060448201526064016104e9565b600061095e83836114c1565b6109f284828560405160200161097691815260200190565b60408051601f1981840301815290829052610995939291602401614164565b60408051601f198184030181529190526020810180517bffffffffffffffffffffffffffffffffffffffffffffffffffffffff167fb2aa60a4000000000000000000000000000000000000000000000000000000001790526115aa565b5050505050565b600080610a04611369565b6001600160a01b0316636352211e846040518263ffffffff1660e01b8152600401610a3191815260200190565b602060405180830381865afa158015610a4e573d6000803e3d6000fd5b505050506040513d601f19601f82011682018060405250810190610a729190614147565b60601b6bffffffffffffffffffffffff19169290921792915050565b610a9782611405565b610ae35760405162461bcd60e51b815260206004820152601a60248201527f434841524143544552533a204e4f5420415554484f52495a454400000000000060448201526064016104e9565b610afb6bffffffffffffffffffffffff83168261117e565b5050565b610b0881611405565b610b545760405162461bcd60e51b815260206004820152601260248201527f6e6f7420796f757220636861726163746572000000000000000000000000000060448201526064016104e9565b610b5d81611373565b15610baa5760405162461bcd60e51b815260206004820152601960248201527f796f75206861766520656e7465726564207468652067616d650000000000000060448201526064016104e9565b6000610bb582610cef565b600160e0820152608081015160a08201529050610bd28282611658565b610bda610cda565b6040517ffda0ce5000000000000000000000000000000000000000000000000000000000815260048101849052674563918244f4000060248201526001600160a01b03919091169063fda0ce5090604401600060405180830381600087803b158015610c4557600080fd5b505af1158015610c59573d6000803e3d6000fd5b50505050610c65610cda565b6001600160a01b031663f9d175ed836040518263ffffffff1660e01b8152600401610c9291815260200190565b600060405180830381600087803b158015610cac57600080fd5b505af1158015610cc0573d6000803e3d6000fd5b50505050610afb826001611709565b60006104398261178d565b600061045a61182a565b600061043982611834565b610cf7613d0e565b604080516001808252818301909252600091602080830190803683370190505090508281600081518110610d2d57610d2d61418c565b602090810291909101015260008080610d867f7462554400000000000000000000000053746174730000000000000000000000857ee10800202001202020202000000000000000000000000000000000000000006118c6565b925092509250610d97838383611996565b9695505050505050565b7fffffffffffffffffffffffffffffffffffffffffffffffffffffffffffffffcc36013560601c80610dd05750335b90565b600080610dde611a0e565b90506000610ded826000611a76565b610df890600161411a565b905061043982600083611b27565b60006104397f7379000000000000000000000000000000000000000000000000000000000000837f45524337323153797374656d0000000000000000000000000000000000000000611bf7565b604080516001808252818301909252600091602080830190803683370190505090508281600081518110610e8957610e8961418c565b602002602001018181525050610f1d7f746255440000000000000000000000004368617261637465727300000000000060001b82600185604051602001610ee8919060609190911b6bffffffffffffffffffffffff1916815260140190565b60408051601f198184030181529190527e55040020142001000000000000000000000000000000000000000000000000611c6f565b505050565b604080516001808252818301909252600091602080830190803683370190505090508281600081518110610f5857610f5861418c565b602002602001018181525050610f1d7f746255440000000000000000000000004368617261637465727300000000000060001b82600085604051602001610ee891815260200190565b604080516001808252818301909252600091829190602080830190803683370190505090508281600081518110610fda57610fda61418c565b602090810291909101015260006110327f746255440000000000000000000000004e616d6545786973747300000000000083837e01010001000000000000000000000000000000000000000000000000000000611d24565b905061103e8160f81c90565b949350505050565b60408051600180825281830190925260009160208083019080368337019050509050828160008151811061107c5761107c61418c565b602002602001018181525050610f1d7f746255440000000000000000000000004e616d6545786973747300000000000060001b826000856040516020016110ca91151560f81b815260010190565b60408051601f198184030181529190527e01010001000000000000000000000000000000000000000000000000000000611c6f565b6040805160018082528183019092526000916020808301908036833701905050905082816000815181106111355761113561418c565b602002602001018181525050610f1d7f746255440000000000000000000000004368617261637465727300000000000060001b82600285604051602001610ee891815260200190565b610afb6111aa7f4368617261637465727300000000000000000000000000000000000000000000611de1565b8383611e2e565b604080516001808252818301909252600091829190602080830190803683370190505090508260001b816000815181106111ed576111ed61418c565b6020908102919091010152600061103e7f746255440000000000000000000000004c6576656c73000000000000000000008383630100080160dd1b611d24565b6040805160018082528183019092526000918291906020808301908036833701905050905082816000815181106112665761126661418c565b602090810291909101015260006112bf7f74625544000000000000000000000000537461747300000000000000000000008360027ee1080020200120202020200000000000000000000000000000000000000000611d24565b905060f881901c600281111561103e5761103e613dbf565b6040805160018082528183019092526000918291906020808301908036833701905050905082816000815181106113105761131061418c565b6020908102919091010152600061103e7f74625544000000000000000000000000436861726163746572730000000000008360027e55040020142001000000000000000000000000000000000000000000000000611d24565b600061045a611a0e565b6040805160018082528183019092526000918291906020808301908036833701905050905082816000815181106113ac576113ac61418c565b602090810291909101015260006110327f74625544000000000000000000000000436861726163746572730000000000008360037e55040020142001000000000000000000000000000000000000000000000000611d24565b600061140f611369565b6040517f6352211e0000000000000000000000000000000000000000000000000000000081526bffffffffffffffffffffffff841660048201526001600160a01b039190911690636352211e90602401602060405180830381865afa15801561147c573d6000803e3d6000fd5b505050506040513d601f19601f820116820180604052508101906114a09190614147565b6001600160a01b03166114b1610450565b6001600160a01b03161492915050565b6040805160018082528183019092526000916020808301908036833701905050905082816000815181106114f7576114f761418c565b6020908102919091010152610f1d7f7462554400000000000000000000000053746174730000000000000000000000826002858181111561153a5761153a613dbf565b604051602001611575919060f89190911b7fff0000000000000000000000000000000000000000000000000000000000000016815260010190565b60408051601f198184030181529190527ee1080020200120202020200000000000000000000000000000000000000000611c6f565b60606000806115c06115bb856141a2565b611e80565b91509150816000801b03611626576040517ffdde54e20000000000000000000000000000000000000000000000000000000081527fffffffff000000000000000000000000000000000000000000000000000000006000351660048201526024016104e9565b6020840180517bffffffffffffffffffffffffffffffffffffffffffffffffffffffff168217905261103e8285611f50565b600061168a826000015183602001518460400151856060015186608001518760a001518860c001518960e0015161202b565b6040805160018082528183019092529192506000916060918391906020808301908036833701905050905085816000815181106116c9576116c961418c565b60209081029190910101526117017f746255440000000000000000000000005374617473000000000000000000000082868686612069565b505050505050565b60408051600180825281830190925260009160208083019080368337019050509050828160008151811061173f5761173f61418c565b602002602001018181525050610f1d7f746255440000000000000000000000004368617261637465727300000000000060001b82600385604051602001610ee891151560f81b815260010190565b6040805160018082528183019092526000918291906020808301908036833701905050905082816000815181106117c6576117c661418c565b6020908102919091010152600061181f7f74625544000000000000000000000000436861726163746572730000000000008360017e55040020142001000000000000000000000000000000000000000000000000611d24565b60601c949350505050565b600061045a6120df565b60408051600180825281830190925260009182919060208083019080368337019050509050828160008151811061186d5761186d61418c565b6020908102919091010152600061103e7f74625544000000000000000000000000537461747300000000000000000000008360067ee1080020200120202020200000000000000000000000000000000000000000611d24565b60606000606060006118d66120df565b9050306001600160a01b038216036118ff576118f387878761211e565b9350935093505061198d565b6040517f419b58fd0000000000000000000000000000000000000000000000000000000081526001600160a01b0382169063419b58fd90611948908a908a908a9060040161422e565b600060405180830381865afa158015611965573d6000803e3d6000fd5b505050506040513d6000823e601f3d908101601f191682016040526118f39190810190614257565b93509350939050565b61199e613d0e565b6119a784612226565b60e0890181905260c0890182905260a0890183905260808901849052606089018590528860208101604082018860028111156119e5576119e5613dbf565b60028111156119f6576119f6613dbf565b90529790975250505093909252509195945050505050565b604080516000808252602082019092526000611a6c7f74625544000000000000000000000000556c74696d617465446f6d696e696f6e8360027e79070001141414141414000000000000000000000000000000000000000000611d24565b60601c9392505050565b60408051600280825260608201835260009283929190602083019080368337019050509050836001600160a01b031660001b81600081518110611abb57611abb61418c565b6020026020010181815250508260001b81600181518110611ade57611ade61418c565b60209081029190910101526000611b1e7f74625544000000000000000000000000436f756e7465727300000000000000008383630100080160dd1b611d24565b95945050505050565b604080516002808252606082018352600092602083019080368337019050509050836001600160a01b031660001b81600081518110611b6857611b6861418c565b6020026020010181815250508260001b81600181518110611b8b57611b8b61418c565b602002602001018181525050611bf17f74625544000000000000000000000000436f756e74657273000000000000000060001b82600085604051602001611bd491815260200190565b60408051601f19818403018152919052630100080160dd1b611c6f565b50505050565b6000611c056070601061411a565b6fffffffffffffffffffffffffffffffff198316901c601084901c7dffffffffffffffffffffffffffff00000000000000000000000000000000167fffff0000000000000000000000000000000000000000000000000000000000008616171790505b9392505050565b6000611c796120df565b9050306001600160a01b03821603611c9d57611c988686868686612294565b611701565b6040517f390baae00000000000000000000000000000000000000000000000000000000081526001600160a01b0382169063390baae090611cea90899089908990899089906004016142ba565b600060405180830381600087803b158015611d0457600080fd5b505af1158015611d18573d6000803e3d6000fd5b50505050505050505050565b600080611d2f6120df565b9050306001600160a01b03821603611d5557611d4d868686866122a9565b91505061103e565b6040517f8c364d590000000000000000000000000000000000000000000000000000000081526001600160a01b03821690638c364d5990611da0908990899089908990600401614301565b602060405180830381865afa158015611dbd573d6000803e3d6000fd5b505050506040513d601f19601f82011682018060405250810190611d4d9190614330565b60006104397f7462000000000000000000000000000000000000000000000000000000000000837f546f6b656e555249000000000000000000000000000000000000000000000000611bf7565b604080516001808252818301909252600091602080830190803683370190505090508260001b81600081518110611e6757611e6761418c565b602002602001018181525050611bf184826000856122d6565b6040805160018082528183019092526000918291829160208083019080368337019050509050837bffffffffffffffffffffffffffffffffffffffffffffffffffffffff191681600081518110611ed957611ed961418c565b602090810291909101015260008080611f327f7462776f726c6400000000000000000046756e6374696f6e53656c6563746f72857e240200200400000000000000000000000000000000000000000000000000006118c6565b925092509250611f43838383612387565b9550955050505050915091565b60606000611f5c61182a565b90506001600160a01b0381163003611f9d576000611f84611f7b610da1565b6000878761239f565b9350905080611f9657611f96836124da565b5050610439565b6040517f3ae7af080000000000000000000000000000000000000000000000000000000081526001600160a01b03821690633ae7af0890611fe49087908790600401614071565b6000604051808303816000875af1158015612003573d6000803e3d6000fd5b505050506040513d6000823e601f3d908101601f1916820160405261103e91908101906140cf565b6060888888888888888860405160200161204c989796959493929190614349565b604051602081830303815290604052905098975050505050505050565b60006120736120df565b9050306001600160a01b0382160361209257611c9886868686866124e2565b6040517f298314fb0000000000000000000000000000000000000000000000000000000081526001600160a01b0382169063298314fb90611cea908990899089908990899060040161438e565b7f629a4c26e296b22a8e0856e9f6ecb2d1008d7e00081111962cd175fa7488e175546000906001600160a01b031680612119573391505090565b919050565b606060006060600061212f856124f8565b905061213c87878361251b565b9350600061214986612554565b9050801561221b5761215b8888612591565b935066ffffffffffffff841667ffffffffffffffff81111561217f5761217f613e6c565b6040519080825280601f01601f1916602001820160405280156121a9576020820181803683370190505b5092506020830160005b828160ff1610156122185760006121cb8b8b846125a4565b905060006121e8888460ff166028026038011c64ffffffffff1690565b90506121f78260008387612624565b612201818561411a565b935050508080612210906143df565b9150506121b3565b50505b505093509350939050565b600080600080600080600080612240896000016020015190565b60408a015160608b0151919950975060f81c600281111561226357612263613dbf565b60618a015160818b015160a18c015160c18d015160e1909d01519b9d9a9c939b929a91995097509195509350915050565b6109f285856122a384876126f0565b85612721565b6000611b1e6122b886866129c5565b60ff858116601b0360080285901c166122d185876126f0565b612a1b565b60006122e06120df565b9050306001600160a01b03821603612303576122fe85858585612a6c565b6109f2565b6040517fef6ea8620000000000000000000000000000000000000000000000000000000081526001600160a01b0382169063ef6ea8629061234e9088908890889088906004016143fe565b600060405180830381600087803b15801561236857600080fd5b505af115801561237c573d6000803e3d6000fd5b505050505050505050565b60008061239385612aa7565b90969095509350505050565b600060606000806123af86612abc565b90925090506001600160a01b03821661240057856123cc87612b60565b6040517ffbf10ce60000000000000000000000000000000000000000000000000000000081526004016104e9929190614071565b8061240f5761240f8689612c8e565b861561247b577dffffffffffffffffffffffffffff0000000000000000000000000000000086167f6e7300000000000000000000000000000000000000000000000000000000000017600061246382612cda565b9050612478826124738b8461411a565b612d53565b50505b60006124878760101b90565b7fffffffffffffffffffffffffffff00000000000000000000000000000000000016146124bf576124ba88888488612def565b6124cb565b6124cb88888488612e67565b90999098509650505050505050565b805160208201fd5b6109f285858585856124f38b612ec8565b612f4d565b600060086125086002602061443d565b6125129190614450565b9190911c919050565b60608160000361253a5750604080516020810190915260008152611c68565b600061254685856129c5565b9050611b1e81600085613286565b600060086001806125676002602061443d565b612571919061443d565b61257b919061443d565b6125859190614450565b8260ff911c1692915050565b6000611c686125a084846132a9565b5490565b600083836040516020016125b9929190614467565b604051602081830303815290604052805190602001208260f81b7effffffffffffffffffffffffffffffffffffffffffffffffffffffffffffff19167f3b4102da22e32d82fc925482184f16c09fd4281692720b87d124aef6da48a0f1181860001c90509392505050565b82156126ab576020831061264e5760208304840193506020838161264a5761264a6144a3565b0692505b82156126ab5760208390036000818410156126715750600019600884021c61267b565b50600019600882021c5b8554600886021b81845116821982161784525081841161269c575050611bf1565b50600194909401939182900391015b5b602082106126cd5783548152600190930192601f19909101906020016126ac565b8115611bf1576000600019600884021c8251865482191691161782525050505050565b600080805b8360ff168110156106b95761271760ff601b83900360080287901c168361411a565b91506001016126f5565b7f6f74000000000000000000000000000000000000000000000000000000000000847fffff00000000000000000000000000000000000000000000000000000000000016036127ab57837f8c0b5119d4cec7b284c6b1b39252a03d1e2f2d7451a5895562524c113bb952be84848460405161279e939291906144b9565b60405180910390a2611bf1565b60006127b785856129c5565b905060006127c4866132ff565b905060005b81518110156128995760008282815181106127e6576127e661418c565b602002602001015190506128126004826affffffffffffffffffffff191661338890919063ffffffff16565b15612890576040517f964f667d000000000000000000000000000000000000000000000000000000008152606082901c9063964f667d9061285d908b908b908b908b906004016144ec565b600060405180830381600087803b15801561287757600080fd5b505af115801561288b573d6000803e3d6000fd5b505050505b506001016127c9565b50857f8c0b5119d4cec7b284c6b1b39252a03d1e2f2d7451a5895562524c113bb952be8686866040516128ce939291906144b9565b60405180910390a26128e9828565ffffffffffff16856133a6565b60005b81518110156129bc5760008282815181106129095761290961418c565b602002602001015190506129356008826affffffffffffffffffffff191661338890919063ffffffff16565b156129b3576040517fa8ba8721000000000000000000000000000000000000000000000000000000008152606082901c9063a8ba872190612980908b908b908b908b906004016144ec565b600060405180830381600087803b15801561299a57600080fd5b505af11580156129ae573d6000803e3d6000fd5b505050505b506001016128ec565b50505050505050565b600082826040516020016129da929190614467565b60408051601f1981840301815291905280516020909101207f86425bff6b57326c7859e89024fe4f238ca327a1ae4a230180dd2f0e88aaa7d9189392505050565b600060208210612a4157602082048401935060208281612a3d57612a3d6144a3565b0691505b508254600882021b6020829003808411156106b9576001850154600882021c82179150509392505050565b6000612a788585612591565b90506000612a95828560ff166028026038011c64ffffffffff1690565b905061170186868660008588886133bc565b602081015160408201516000905b9050915091565b60408051600180825281830190925260009182918291602080830190803683370190505090508381600081518110612af657612af661418c565b602090810291909101015260008080612b4f7f7462776f726c6400000000000000000053797374656d73000000000000000000857e1502001401000000000000000000000000000000000000000000000000000061211e565b925092509250611f438383836137f6565b606081601081901b6000612b7383613802565b9050827fffffffffffffffffffffffffffff000000000000000000000000000000000000831615612bce57612bc97fffffffffffffffffffffffffffff0000000000000000000000000000000000008416613819565b612c05565b6040518060400160405280600681526020017f3c726f6f743e00000000000000000000000000000000000000000000000000008152505b6fffffffffffffffffffffffffffffffff19831615612c2c57612c2783613819565b612c63565b6040518060400160405280600681526020017f3c726f6f743e00000000000000000000000000000000000000000000000000008152505b604051602001612c7593929190614525565b6040516020818303038152906040529350505050919050565b612c98828261389f565b610afb57612ca582612b60565b816040517fd787b7370000000000000000000000000000000000000000000000000000000081526004016104e99291906145b3565b604080516001808252818301909252600091829190602080830190803683370190505090508281600081518110612d1357612d1361418c565b6020908102919091010152600061103e7f7462776f726c6400000000000000000042616c616e63657300000000000000008383630100080160dd1b6122a9565b604080516001808252818301909252600091602080830190803683370190505090508281600081518110612d8957612d8961418c565b602002602001018181525050610f1d7f7462776f726c6400000000000000000042616c616e636573000000000000000060001b82600085604051602001612dd291815260200190565b60408051601f19818403018152919052630100080160dd1b612294565b60006060836001600160a01b03166000612e0a8589896138fd565b604051612e1791906145de565b60006040518083038185875af1925050503d8060008114612e54576040519150601f19603f3d011682016040523d82523d6000602084013e612e59565b606091505b509097909650945050505050565b60006060836001600160a01b0316612e808488886138fd565b604051612e8d91906145de565b600060405180830381855af49150503d8060008114612e54576040519150601f19603f3d011682016040523d82523d6000602084013e612e59565b60007f8b9d8c8b908d9affffffffffffffffffab9e9d939a8d000000000000000000008201612f1757507e60030220202000000000000000000000000000000000000000000000000000919050565b610439612f447f746273746f72650000000000000000005461626c6573000000000000000000008461392c565b60206000612a1b565b7f6f74000000000000000000000000000000000000000000000000000000000000867fffff0000000000000000000000000000000000000000000000000000000000001603612fd957857f8dbb3a9672eebfd3773e72dd9c102393436816d832c7ba9e1e1ac8fcadcac7a986868686604051612fcc94939291906145fa565b60405180910390a2611701565b6000612fe4876132ff565b905060005b81518110156130bd5760008282815181106130065761300661418c565b602002602001015190506130326001826affffffffffffffffffffff191661338890919063ffffffff16565b156130b4576040517f57066c9c000000000000000000000000000000000000000000000000000000008152606082901c906357066c9c90613081908c908c908c908c908c908c90600401614639565b600060405180830381600087803b15801561309b57600080fd5b505af11580156130af573d6000803e3d6000fd5b505050505b50600101612fe9565b50867f8dbb3a9672eebfd3773e72dd9c102393436816d832c7ba9e1e1ac8fcadcac7a9878787876040516130f494939291906145fa565b60405180910390a2600061310888886129c5565b90506000602087019050613120826000895184613948565b600061312b85612554565b11156131af57600061313d8a8a6132a9565b878155905060208601915060008060005b61315788612554565b8160ff1610156131aa5761316c8d8d836125a4565b92506131878a8260ff166028026038011c64ffffffffff1690565b91506131968360008488613948565b6131a0828661411a565b945060010161314e565b505050505b60005b8351811015611d185760008482815181106131cf576131cf61418c565b602002602001015190506131fb6002826affffffffffffffffffffff191661338890919063ffffffff16565b1561327d576040517f5b28cdaf000000000000000000000000000000000000000000000000000000008152606082901c90635b28cdaf9061324a908e908e908e908e908e908e90600401614639565b600060405180830381600087803b15801561326457600080fd5b505af1158015613278573d6000803e3d6000fd5b505050505b506001016131b2565b60405160208101601f19603f84840101166040528282526106b985858584612624565b600082826040516020016132be929190614467565b60408051601f1981840301815291905280516020909101207f14e2fcc58e58e68ec7edc30c8d50dccc3ce2714a623ec81f46b6a63922d76569189392505050565b604080516001808252818301909252606091600091906020808301908036833701905050905082816000815181106133395761333961418c565b602090810291909101015260006133717f746273746f726500000000000000000053746f7265486f6f6b730000000000008383613a07565b905061103e6133838260008451613a41565b613acf565b60008160ff16826133998560581c90565b1660ff1614905092915050565b610f1d838383516133b78560200190565b613948565b7f7462000000000000000000000000000000000000000000000000000000000000877fffff000000000000000000000000000000000000000000000000000000000000161461347c577f7462000000000000000000000000000000000000000000000000000000000000878860405160200161343a91815260200190565b60408051601f19818403018152908290527f31b466830000000000000000000000000000000000000000000000000000000082526104e9939291600401614692565b6000613497828760ff166028026038011c64ffffffffff1690565b9050600083518564ffffffffff16836134b0919061443d565b6134ba919061411a565b90508082141580156134dc5750816134d286886146d3565b64ffffffffff1614155b1561352c576040517fa65010b400000000000000000000000000000000000000000000000000000000815264ffffffffff80881660048301528087166024830152831660448201526064016104e9565b818664ffffffffff16111561357d576040517f7e8578d30000000000000000000000000000000000000000000000000000000081526004810183905264ffffffffff871660248201526044016104e9565b600061358a848984613ae0565b905060006135978b6132ff565b905060005b81518110156136625760008282815181106135b9576135b961418c565b602002602001015190506135e56010826affffffffffffffffffffff191661338890919063ffffffff16565b1561365957606081901c6001600160a01b03166355eb5a288e8e8e8e8e8d8f6040518863ffffffff1660e01b815260040161362697969594939291906146f8565b600060405180830381600087803b15801561364057600080fd5b505af1158015613654573d6000803e3d6000fd5b505050505b5060010161359c565b5064ffffffffff881660005b8a60ff168160ff1610156136a157613695878260ff166028026038011c64ffffffffff1690565b9091019060010161366e565b508b7ffe158a7adba34e256807c8a149028d3162918713c3838afc643ce9f96716ebfd8c8c848c888d6040516136dc96959493929190614756565b60405180910390a2508284146136fd5760006136f88c8c6132a9565b839055505b600061370a8c8c8c6125a4565b905061371e818a64ffffffffff16896133a6565b5060005b81518110156137e857600082828151811061373f5761373f61418c565b6020026020010151905061376b6020826affffffffffffffffffffff191661338890919063ffffffff16565b156137df57606081901c6001600160a01b031663635845338e8e8e8e8e8a8f6040518863ffffffff1660e01b81526004016137ac97969594939291906146f8565b600060405180830381600087803b1580156137c657600080fd5b505af11580156137da573d6000803e3d6000fd5b505050505b50600101613722565b505050505050505050505050565b60008061239385613bae565b60006138106070601061411a565b9190911b919050565b606060005b601081101561386f576fffffffffffffffffffffffffffffffff198316600882021b7fff00000000000000000000000000000000000000000000000000000000000000161561386f5760010161381e565b604080516fffffffffffffffffffffffffffffffff1985166020820152815160309091019091528181528061103e565b60006138ed7f6e730000000000000000000000000000000000000000000000000000000000007dffffffffffffffffffffffffffff0000000000000000000000000000000085161783613bca565b80611c685750611c688383613bca565b6060838383604051602001613914939291906147b2565b60405160208183030381529060405290509392505050565b60408051602081018490529081018290526000906060016129da565b82156139c257602083106139725760208304840193506020838161396e5761396e6144a3565b0692505b82156139c25760208390036000600019600885021c1990506008850281811c91508351811c90508119875416828216178755508184116139b3575050611bf1565b50600194909401939182900391015b5b602082106139e45780518455600190930192601f19909101906020016139c3565b8115611bf1576000600019600884021c8554835182191691161785555050505050565b606061103e613a178585856125a4565b6000613a3c85613a278989612591565b9060ff166028026038011c64ffffffffff1690565b613286565b600081831180613a515750835182115b15613a8e578383836040517f23230fa30000000000000000000000000000000000000000000000000000000081526004016104e9939291906147f1565b60208401613a9c848261411a565b90506000613aaa858561443d565b6fffffffffffffffffffffffffffffffff1660809290921b9190911795945050505050565b60606000611c688360156000613c93565b600064ffffffffff821115613b24576040517f7149a3c1000000000000000000000000000000000000000000000000000000008152600481018390526024016104e9565b8366ffffffffffffff811660ff851660280260380182901c64ffffffffff16808510613b565780850382019150613b5e565b848103820391505b5064ffffffffff6038602860ff8816020181811b197fffffffffffffffffffffffffffffffffffffffffffffffffff000000000000009490941690921792909216918416901b1790509392505050565b6020810151603482015160609190911c9060009060f81c612ab5565b604080516002808252606082018352600092839291906020830190803683370190505090508381600081518110613c0357613c0361418c565b602002602001018181525050826001600160a01b031660001b81600181518110613c2f57613c2f61418c565b60209081029190910101526000613c877f7462776f726c640000000000000000005265736f75726365416363657373000083837e010100010000000000000000000000000000000000000000000000000000006122a9565b9050611b1e8160f81c90565b60606000613ca18560801c90565b90506fffffffffffffffffffffffffffffffff85166000858281613cc757613cc76144a3565b04905060405193506020840160208202810160405281855260005b82811015613d02578451871c825293870193602090910190600101613ce2565b50505050509392505050565b604051806101000160405280600081526020016000815260200160006002811115613d3b57613d3b613dbf565b815260200160008152602001600081526020016000815260200160008152602001600081525090565b600060208284031215613d7657600080fd5b5035919050565b600060208284031215613d8f57600080fd5b81357fffffffff0000000000000000000000000000000000000000000000000000000081168114611c6857600080fd5b634e487b7160e01b600052602160045260246000fd5b60038110613df357634e487b7160e01b600052602160045260246000fd5b50565b81518152602080830151908201526040820151610100820190613e1881613dd5565b80604084015250606083015160608301526080830151608083015260a083015160a083015260c083015160c083015260e083015160e083015292915050565b6001600160a01b0381168114613df357600080fd5b634e487b7160e01b600052604160045260246000fd5b604051601f8201601f1916810167ffffffffffffffff81118282101715613eab57613eab613e6c565b604052919050565b600067ffffffffffffffff821115613ecd57613ecd613e6c565b50601f01601f191660200190565b600082601f830112613eec57600080fd5b8135613eff613efa82613eb3565b613e82565b818152846020838601011115613f1457600080fd5b816020850160208301376000918101602001919091529392505050565b600080600060608486031215613f4657600080fd5b8335613f5181613e57565b925060208401359150604084013567ffffffffffffffff811115613f7457600080fd5b613f8086828701613edb565b9150509250925092565b60208101613f9783613dd5565b91905290565b600080600060608486031215613fb257600080fd5b8335925060208401359150604084013560038110613fcf57600080fd5b809150509250925092565b60008060408385031215613fed57600080fd5b82359150602083013567ffffffffffffffff81111561400b57600080fd5b61401785828601613edb565b9150509250929050565b60005b8381101561403c578181015183820152602001614024565b50506000910152565b6000815180845261405d816020860160208601614021565b601f01601f19169290920160200192915050565b82815260406020820152600061103e6040830184614045565b600082601f83011261409b57600080fd5b81516140a9613efa82613eb3565b8181528460208386010111156140be57600080fd5b61103e826020830160208701614021565b6000602082840312156140e157600080fd5b815167ffffffffffffffff8111156140f857600080fd5b61103e8482850161408a565b634e487b7160e01b600052601160045260246000fd5b8082018082111561043957610439614104565b6000600019820361414057614140614104565b5060010190565b60006020828403121561415957600080fd5b8151611c6881613e57565b83815261417083613dd5565b826020820152606060408201526000611b1e6060830184614045565b634e487b7160e01b600052603260045260246000fd5b6000815160208301517fffffffff00000000000000000000000000000000000000000000000000000000808216935060048310156141ea5780818460040360031b1b83161693505b505050919050565b60008151808452602080850194506020840160005b8381101561422357815187529582019590820190600101614207565b509495945050505050565b83815260606020820152600061424760608301856141f2565b9050826040830152949350505050565b60008060006060848603121561426c57600080fd5b835167ffffffffffffffff8082111561428457600080fd5b6142908783880161408a565b94506020860151935060408601519150808211156142ad57600080fd5b50613f808682870161408a565b85815260a0602082015260006142d360a08301876141f2565b60ff8616604084015282810360608401526142ee8186614045565b9150508260808301529695505050505050565b84815260806020820152600061431a60808301866141f2565b60ff949094166040830152506060015292915050565b60006020828403121561434257600080fd5b5051919050565b88815287602082015261435b87613dd5565b60f89690961b604087015260418601949094526061850192909252608184015260a183015260c182015260e10192915050565b85815260a0602082015260006143a760a08301876141f2565b82810360408401526143b98187614045565b905084606084015282810360808401526143d38185614045565b98975050505050505050565b600060ff821660ff81036143f5576143f5614104565b60010192915050565b84815260806020820152600061441760808301866141f2565b60ff8516604084015282810360608401526144328185614045565b979650505050505050565b8181038181111561043957610439614104565b808202811582820484141761043957610439614104565b8281526000602080830184516020860160005b828110156144965781518452928401929084019060010161447a565b5091979650505050505050565b634e487b7160e01b600052601260045260246000fd5b6060815260006144cc60608301866141f2565b65ffffffffffff851660208401528281036040840152610d978185614045565b84815260806020820152600061450560808301866141f2565b65ffffffffffff8516604084015282810360608401526144328185614045565b7fffff0000000000000000000000000000000000000000000000000000000000008416815260007f3a000000000000000000000000000000000000000000000000000000000000008060028401528451614586816003860160208901614021565b8084019050816003820152845191506145a6826004830160208801614021565b0160040195945050505050565b6040815260006145c66040830185614045565b90506001600160a01b03831660208301529392505050565b600082516145f0818460208701614021565b9190910192915050565b60808152600061460d60808301876141f2565b828103602084015261461f8187614045565b905084604084015282810360608401526144328185614045565b86815260c06020820152600061465260c08301886141f2565b82810360408401526146648188614045565b9050856060840152828103608084015261467e8186614045565b9150508260a0830152979650505050505050565b7fffff00000000000000000000000000000000000000000000000000000000000084168152826020820152606060408201526000611b1e6060830184614045565b64ffffffffff8181168382160190808211156146f1576146f1614104565b5092915050565b87815260e06020820152600061471160e08301896141f2565b60ff8816604084015264ffffffffff87811660608501528616608084015260a0830185905282810360c08401526147488185614045565b9a9950505050505050505050565b60c08152600061476960c08301896141f2565b60ff8816602084015265ffffffffffff8716604084015264ffffffffff8616606084015284608084015282810360a08401526147a58185614045565b9998505050505050505050565b600084516147c4818460208901614021565b60609490941b6bffffffffffffffffffffffff191691909301908152601481019190915260340192915050565b6060815260006148046060830186614045565b6020830194909452506040015291905056fea264697066735822122086d244e76566d88f08574505a94c682c41e0427c140ef488ae6e6840ef8c383e64736f6c63430008180033","linkReferences":{}},"methodIdentifiers":{"_msgSender()":"119df25f","_msgValue()":"45ec9354","_world()":"e1af802c","enterGame(bytes32)":"c74dedc8","getCharacterTokenId(bytes32)":"f8c67561","getClass(bytes32)":"23801570","getCurrentAvailableLevel(uint256)":"1ecb393f","getExperience(bytes32)":"ebee03bb","getName(bytes32)":"54b8d5e3","getOwner(bytes32)":"deb931a2","getOwnerAddress(bytes32)":"00d43ec6","getPlayerEntityId(uint256)":"8338f0e0","getStats(bytes32)":"0bb700dc","isValidCharacterId(bytes32)":"623daa05","mintCharacter(address,bytes32,string)":"143f3021","rollStats(bytes32,bytes32,uint8)":"679ee16d","supportsInterface(bytes4)":"01ffc9a7","updateTokenUri(bytes32,string)":"b27cbcbb"},"id":211}