{"abi":[{"type":"function","name":"_msgSender","inputs":[],"outputs":[{"name":"sender","type":"address","internalType":"address"}],"stateMutability":"view"},{"type":"function","name":"_msgValue","inputs":[],"outputs":[{"name":"value","type":"uint256","internalType":"uint256"}],"stateMutability":"pure"},{"type":"function","name":"_world","inputs":[],"outputs":[{"name":"","type":"address","internalType":"address"}],"stateMutability":"view"},{"type":"function","name":"enterGame","inputs":[{"name":"characterId","type":"bytes32","internalType":"bytes32"}],"outputs":[],"stateMutability":"nonpayable"},{"type":"function","name":"getCharacterTokenId","inputs":[{"name":"characterId","type":"bytes32","internalType":"bytes32"}],"outputs":[{"name":"","type":"uint256","internalType":"uint256"}],"stateMutability":"pure"},{"type":"function","name":"getClass","inputs":[{"name":"characterId","type":"bytes32","internalType":"bytes32"}],"outputs":[{"name":"_class","type":"uint8","internalType":"enum Classes"}],"stateMutability":"view"},{"type":"function","name":"getCurrentAvailableLevel","inputs":[{"name":"experience","type":"uint256","internalType":"uint256"}],"outputs":[{"name":"currentAvailibleLevel","type":"uint256","internalType":"uint256"}],"stateMutability":"view"},{"type":"function","name":"getExperience","inputs":[{"name":"characterId","type":"bytes32","internalType":"bytes32"}],"outputs":[{"name":"","type":"uint256","internalType":"uint256"}],"stateMutability":"view"},{"type":"function","name":"getName","inputs":[{"name":"characterId","type":"bytes32","internalType":"bytes32"}],"outputs":[{"name":"_name","type":"bytes32","internalType":"bytes32"}],"stateMutability":"view"},{"type":"function","name":"getOwner","inputs":[{"name":"characterId","type":"bytes32","internalType":"bytes32"}],"outputs":[{"name":"","type":"address","internalType":"address"}],"stateMutability":"view"},{"type":"function","name":"getOwnerAddress","inputs":[{"name":"characterId","type":"bytes32","internalType":"bytes32"}],"outputs":[{"name":"","type":"address","internalType":"address"}],"stateMutability":"pure"},{"type":"function","name":"getPlayerEntityId","inputs":[{"name":"characterTokenId","type":"uint256","internalType":"uint256"}],"outputs":[{"name":"characterId","type":"bytes32","internalType":"bytes32"}],"stateMutability":"view"},{"type":"function","name":"getStats","inputs":[{"name":"characterId","type":"bytes32","internalType":"bytes32"}],"outputs":[{"name":"","type":"tuple","internalType":"struct StatsData","components":[{"name":"strength","type":"uint256","internalType":"uint256"},{"name":"agility","type":"uint256","internalType":"uint256"},{"name":"class","type":"uint8","internalType":"enum Classes"},{"name":"intelligence","type":"uint256","internalType":"uint256"},{"name":"baseHp","type":"uint256","internalType":"uint256"},{"name":"currentHp","type":"int256","internalType":"int256"},{"name":"experience","type":"uint256","internalType":"uint256"},{"name":"level","type":"uint256","internalType":"uint256"}]}],"stateMutability":"view"},{"type":"function","name":"isValidCharacterId","inputs":[{"name":"characterId","type":"bytes32","internalType":"bytes32"}],"outputs":[{"name":"","type":"bool","internalType":"bool"}],"stateMutability":"view"},{"type":"function","name":"isValidOwner","inputs":[{"name":"characterId","type":"bytes32","internalType":"bytes32"},{"name":"owner","type":"address","internalType":"address"}],"outputs":[{"name":"","type":"bool","internalType":"bool"}],"stateMutability":"view"},{"type":"function","name":"levelCharacter","inputs":[{"name":"characterId","type":"bytes32","internalType":"bytes32"},{"name":"desiredStats","type":"tuple","internalType":"struct StatsData","components":[{"name":"strength","type":"uint256","internalType":"uint256"},{"name":"agility","type":"uint256","internalType":"uint256"},{"name":"class","type":"uint8","internalType":"enum Classes"},{"name":"intelligence","type":"uint256","internalType":"uint256"},{"name":"baseHp","type":"uint256","internalType":"uint256"},{"name":"currentHp","type":"int256","internalType":"int256"},{"name":"experience","type":"uint256","internalType":"uint256"},{"name":"level","type":"uint256","internalType":"uint256"}]}],"outputs":[],"stateMutability":"nonpayable"},{"type":"function","name":"mintCharacter","inputs":[{"name":"account","type":"address","internalType":"address"},{"name":"name","type":"bytes32","internalType":"bytes32"},{"name":"tokenUri","type":"string","internalType":"string"}],"outputs":[{"name":"characterId","type":"bytes32","internalType":"bytes32"}],"stateMutability":"nonpayable"},{"type":"function","name":"rollStats","inputs":[{"name":"userRandomNumber","type":"bytes32","internalType":"bytes32"},{"name":"characterId","type":"bytes32","internalType":"bytes32"},{"name":"class","type":"uint8","internalType":"enum Classes"}],"outputs":[{"name":"requestId","type":"bytes32","internalType":"bytes32"}],"stateMutability":"payable"},{"type":"function","name":"supportsInterface","inputs":[{"name":"interfaceId","type":"bytes4","internalType":"bytes4"}],"outputs":[{"name":"","type":"bool","internalType":"bool"}],"stateMutability":"pure"},{"type":"function","name":"updateTokenUri","inputs":[{"name":"characterId","type":"bytes32","internalType":"bytes32"},{"name":"tokenUri","type":"string","internalType":"string"}],"outputs":[],"stateMutability":"nonpayable"},{"type":"event","name":"Store_SetRecord","inputs":[{"name":"tableId","type":"bytes32","indexed":true,"internalType":"ResourceId"},{"name":"keyTuple","type":"bytes32[]","indexed":false,"internalType":"bytes32[]"},{"name":"staticData","type":"bytes","indexed":false,"internalType":"bytes"},{"name":"encodedLengths","type":"bytes32","indexed":false,"internalType":"EncodedLengths"},{"name":"dynamicData","type":"bytes","indexed":false,"internalType":"bytes"}],"anonymous":false},{"type":"event","name":"Store_SpliceDynamicData","inputs":[{"name":"tableId","type":"bytes32","indexed":true,"internalType":"ResourceId"},{"name":"keyTuple","type":"bytes32[]","indexed":false,"internalType":"bytes32[]"},{"name":"dynamicFieldIndex","type":"uint8","indexed":false,"internalType":"uint8"},{"name":"start","type":"uint48","indexed":false,"internalType":"uint48"},{"name":"deleteCount","type":"uint40","indexed":false,"internalType":"uint40"},{"name":"encodedLengths","type":"bytes32","indexed":false,"internalType":"EncodedLengths"},{"name":"data","type":"bytes","indexed":false,"internalType":"bytes"}],"anonymous":false},{"type":"event","name":"Store_SpliceStaticData","inputs":[{"name":"tableId","type":"bytes32","indexed":true,"internalType":"ResourceId"},{"name":"keyTuple","type":"bytes32[]","indexed":false,"internalType":"bytes32[]"},{"name":"start","type":"uint48","indexed":false,"internalType":"uint48"},{"name":"data","type":"bytes","indexed":false,"internalType":"bytes"}],"anonymous":false},{"type":"error","name":"EncodedLengths_InvalidLength","inputs":[{"name":"length","type":"uint256","internalType":"uint256"}]},{"type":"error","name":"Slice_OutOfBounds","inputs":[{"name":"data","type":"bytes","internalType":"bytes"},{"name":"start","type":"uint256","internalType":"uint256"},{"name":"end","type":"uint256","internalType":"uint256"}]},{"type":"error","name":"Store_IndexOutOfBounds","inputs":[{"name":"length","type":"uint256","internalType":"uint256"},{"name":"accessedIndex","type":"uint256","internalType":"uint256"}]},{"type":"error","name":"Store_InvalidResourceType","inputs":[{"name":"expected","type":"bytes2","internalType":"bytes2"},{"name":"resourceId","type":"bytes32","internalType":"ResourceId"},{"name":"resourceIdString","type":"string","internalType":"string"}]},{"type":"error","name":"Store_InvalidSplice","inputs":[{"name":"startWithinField","type":"uint40","internalType":"uint40"},{"name":"deleteCount","type":"uint40","internalType":"uint40"},{"name":"fieldLength","type":"uint40","internalType":"uint40"}]},{"type":"error","name":"World_AccessDenied","inputs":[{"name":"resource","type":"string","internalType":"string"},{"name":"caller","type":"address","internalType":"address"}]},{"type":"error","name":"World_FunctionSelectorNotFound","inputs":[{"name":"functionSelector","type":"bytes4","internalType":"bytes4"}]},{"type":"error","name":"World_ResourceNotFound","inputs":[{"name":"resourceId","type":"bytes32","internalType":"ResourceId"},{"name":"resourceIdString","type":"string","internalType":"string"}]}],"bytecode":{"object":"0x608060405234801561001057600080fd5b50614c3c806100206000396000f3fe60806040526004361061015e5760003560e01c8063679ee16d116100c0578063c74dedc811610074578063e1af802c11610059578063e1af802c146103bb578063ebee03bb146103d0578063f8c67561146103f057600080fd5b8063c74dedc81461037b578063deb931a21461039b57600080fd5b80639b63ec05116100a55780639b63ec0514610319578063b27cbcbb14610339578063c441b44d1461035b57600080fd5b8063679ee16d146102e65780638338f0e0146102f957600080fd5b80631ecb393f1161011757806345ec9354116100fc57806345ec93541461028e57806354b8d5e3146102a6578063623daa05146102c657600080fd5b80631ecb393f14610241578063238015701461026157600080fd5b80630bb700dc116101485780630bb700dc146101d1578063119df25f146101fe578063143f30211461021357600080fd5b8062d43ec61461016357806301ffc9a7146101a1575b600080fd5b34801561016f57600080fd5b5061018461017e36600461403b565b60601c90565b6040516001600160a01b0390911681526020015b60405180910390f35b3480156101ad57600080fd5b506101c16101bc366004614054565b61041c565b6040519015158152602001610198565b3480156101dd57600080fd5b506101f16101ec36600461403b565b6104b5565b60405161019891906140cd565b34801561020a57600080fd5b506101846104c6565b34801561021f57600080fd5b5061023361022e366004614232565b6104d5565b604051908152602001610198565b34801561024d57600080fd5b5061023361025c36600461403b565b610737565b34801561026d57600080fd5b5061028161027c36600461403b565b6107b6565b604051610198919061428b565b34801561029a57600080fd5b5036601f190135610233565b3480156102b257600080fd5b506102336102c136600461403b565b6107c1565b3480156102d257600080fd5b506101c16102e136600461403b565b6107cc565b6102336102f43660046142ad565b6108f8565b34801561030557600080fd5b5061023361031436600461403b565b610a97565b34801561032557600080fd5b506101c16103343660046142e2565b610b2c565b34801561034557600080fd5b50610359610354366004614312565b610bf3565b005b34801561036757600080fd5b50610359610376366004614359565b610c74565b34801561038757600080fd5b5061035961039636600461403b565b610e98565b3480156103a757600080fd5b506101846103b636600461403b565b611077565b3480156103c757600080fd5b50610184611082565b3480156103dc57600080fd5b506102336103eb36600461403b565b61108c565b3480156103fc57600080fd5b5061023361040b36600461403b565b6bffffffffffffffffffffffff1690565b60007fffffffff0000000000000000000000000000000000000000000000000000000082167fb5dee1270000000000000000000000000000000000000000000000000000000014806104af57507fffffffff0000000000000000000000000000000000000000000000000000000082167f01ffc9a700000000000000000000000000000000000000000000000000000000145b92915050565b6104bd613fe5565b6104af82611097565b60006104d061113f565b905090565b6000806104e0611171565b90506bffffffffffffffffffffffff81106105685760405162461bcd60e51b815260206004820152602360248201527f43484152414341544552533a204d61782063686172616374657273207265616360448201527f686564000000000000000000000000000000000000000000000000000000000060648201526084015b60405180910390fd5b610570611082565b6001600160a01b0316633ae7af086105a77f43686172616374657273000000000000000000000000000000000000000000006111a4565b6040516001600160a01b03891660248201526044810185905260640160408051601f198184030181529181526020820180517bffffffffffffffffffffffffffffffffffffffffffffffffffffffff167f40c10f1900000000000000000000000000000000000000000000000000000000179052517fffffffff0000000000000000000000000000000000000000000000000000000060e085901b16815261065392919060040161443f565b6000604051808303816000875af1158015610672573d6000803e3d6000fd5b505050506040513d6000823e601f3d908101601f1916820160405261069a919081019061449d565b506106a481610a97565b91506106b082866111f1565b6106ba82826112bb565b6106c38461133a565b156107105760405162461bcd60e51b815260206004820152601360248201527f4e616d6520616c72656164792065786973747300000000000000000000000000604482015260640161055f565b61071b8460016113df565b6107258285611498565b61072f8184611517565b509392505050565b6000610743601361154e565b821061075157506014919050565b60005b60148110156107af57826107678261154e565b1115801561078657508261078461077f8360016144e8565b61154e565b115b1561079d576107968160016144e8565b91506107af565b806107a7816144fb565b915050610754565b505b919050565b60006104af826115ca565b60006104af82611674565b6000806107d98360601c90565b90506bffffffffffffffffffffffff831660006107f4611706565b6001600160a01b0316636352211e836040518263ffffffff1660e01b815260040161082191815260200190565b602060405180830381865afa92505050801561085a575060408051601f3d908101601f1916820190925261085791810190614515565b60015b156108d957610867611706565b6001600160a01b0316636352211e846040518263ffffffff1660e01b815260040161089491815260200190565b602060405180830381865afa1580156108b1573d6000803e3d6000fd5b505050506040513d601f19601f820116820180604052508101906108d59190614515565b9150505b826001600160a01b0316816001600160a01b0316149350505050919050565b600082610907816103346104c6565b61095e5760405162461bcd60e51b815260206004820152602260248201527f4348415241435445522053595354454d3a20494e56414c4944204f504552415460448201526127a960f11b606482015260840161055f565b61096784611710565b156109da5760405162461bcd60e51b815260206004820152602b60248201527f434841524143544552533a2063686172616374657220616c726561647920696e60448201527f2067616d6520776f726c64000000000000000000000000000000000000000000606482015260840161055f565b60006109e685856117a2565b610a7a8682876040516020016109fe91815260200190565b60408051601f1981840301815290829052610a1d939291602401614532565b60408051601f198184030181529190526020810180517bffffffffffffffffffffffffffffffffffffffffffffffffffffffff167fb2aa60a40000000000000000000000000000000000000000000000000000000017905261188b565b806020019051810190610a8d919061455a565b9695505050505050565b600080610aa2611706565b6001600160a01b0316636352211e846040518263ffffffff1660e01b8152600401610acf91815260200190565b602060405180830381865afa158015610aec573d6000803e3d6000fd5b505050506040513d601f19601f82011682018060405250810190610b109190614515565b60601b6bffffffffffffffffffffffff19169290921792915050565b6000610b37836107cc565b8015610bec5750816001600160a01b0316610b50611706565b6040517f6352211e0000000000000000000000000000000000000000000000000000000081526bffffffffffffffffffffffff861660048201526001600160a01b039190911690636352211e90602401602060405180830381865afa158015610bbd573d6000803e3d6000fd5b505050506040513d601f19601f82011682018060405250810190610be19190614515565b6001600160a01b0316145b9392505050565b81610c00816103346104c6565b610c575760405162461bcd60e51b815260206004820152602260248201527f4348415241435445522053595354454d3a20494e56414c4944204f504552415460448201526127a960f11b606482015260840161055f565b610c6f6bffffffffffffffffffffffff841683611517565b505050565b81610c81816103346104c6565b610cd85760405162461bcd60e51b815260206004820152602260248201527f4348415241435445522053595354454d3a20494e56414c4944204f504552415460448201526127a960f11b606482015260840161055f565b6000610ce384611097565b90506000610cf48260c00151610737565b90508160e00151811115610d165760e08201805190610d12826144fb565b9052505b81518451600091610d2691614573565b9050600083602001518660200151610d3e9190614573565b9050600084606001518760600151610d569190614573565b9050600085608001518860800151610d6e9190614573565b905060028183610d7e86886144e8565b610d8891906144e8565b610d9291906144e8565b14610e055760405162461bcd60e51b815260206004820152602560248201527f4348415241435445522053595354454d3a20494e56414c49442053544154204360448201527f48414e4745000000000000000000000000000000000000000000000000000000606482015260840161055f565b85604001516002811115610e1b57610e1b614096565b60ff16158015610e39575060038660e00151610e37919061459c565b155b15610e5557600186608001818151610e5191906144e8565b9052505b600186608001818151610e6891906144e8565b905250875186526020808901519087015260608089015190870152610e8d8987611939565b505050505050505050565b80610ea5816103346104c6565b610efc5760405162461bcd60e51b815260206004820152602260248201527f4348415241435445522053595354454d3a20494e56414c4944204f504552415460448201526127a960f11b606482015260840161055f565b610f0582611710565b15610f525760405162461bcd60e51b815260206004820152601960248201527f796f75206861766520656e7465726564207468652067616d6500000000000000604482015260640161055f565b6000610f5d83611097565b600160e0820152608081015160a08201529050610f7a8382611939565b610f82611082565b6040517ffda0ce5000000000000000000000000000000000000000000000000000000000815260048101859052674563918244f4000060248201526001600160a01b03919091169063fda0ce5090604401600060405180830381600087803b158015610fed57600080fd5b505af1158015611001573d6000803e3d6000fd5b5050505061100d611082565b6001600160a01b031663f9d175ed846040518263ffffffff1660e01b815260040161103a91815260200190565b600060405180830381600087803b15801561105457600080fd5b505af1158015611068573d6000803e3d6000fd5b50505050610c6f8360016119ea565b60006104af82611a6e565b60006104d0611b0b565b60006104af82611b15565b61109f613fe5565b6040805160018082528183019092526000916020808301908036833701905050905082816000815181106110d5576110d56145be565b60209081029190910101526000808061112e7f7462554400000000000000000000000053746174730000000000000000000000857ee1080020200120202020200000000000000000000000000000000000000000611ba7565b925092509250610a8d838383611c77565b7fffffffffffffffffffffffffffffffffffffffffffffffffffffffffffffffcc36013560601c8061116e5750335b90565b60008061117c611cef565b9050600061118b826000611d57565b6111969060016144e8565b90506104af82600083611e08565b60006104af7f7379000000000000000000000000000000000000000000000000000000000000837f45524337323153797374656d0000000000000000000000000000000000000000611ed8565b604080516001808252818301909252600091602080830190803683370190505090508281600081518110611227576112276145be565b602002602001018181525050610c6f7f746255440000000000000000000000004368617261637465727300000000000060001b82600185604051602001611286919060609190911b6bffffffffffffffffffffffff1916815260140190565b60408051601f198184030181529190527e55040020142001000000000000000000000000000000000000000000000000611f4f565b6040805160018082528183019092526000916020808301908036833701905050905082816000815181106112f1576112f16145be565b602002602001018181525050610c6f7f746255440000000000000000000000004368617261637465727300000000000060001b8260008560405160200161128691815260200190565b604080516001808252818301909252600091829190602080830190803683370190505090508281600081518110611373576113736145be565b602090810291909101015260006113cb7f746255440000000000000000000000004e616d6545786973747300000000000083837e01010001000000000000000000000000000000000000000000000000000000612004565b90506113d78160f81c90565b949350505050565b604080516001808252818301909252600091602080830190803683370190505090508281600081518110611415576114156145be565b602002602001018181525050610c6f7f746255440000000000000000000000004e616d6545786973747300000000000060001b8260008560405160200161146391151560f81b815260010190565b60408051601f198184030181529190527e01010001000000000000000000000000000000000000000000000000000000611f4f565b6040805160018082528183019092526000916020808301908036833701905050905082816000815181106114ce576114ce6145be565b602002602001018181525050610c6f7f746255440000000000000000000000004368617261637465727300000000000060001b8260028560405160200161128691815260200190565b61154a6115437f43686172616374657273000000000000000000000000000000000000000000006120c1565b838361210e565b5050565b604080516001808252818301909252600091829190602080830190803683370190505090508260001b8160008151811061158a5761158a6145be565b602090810291909101015260006113d77f746255440000000000000000000000004c6576656c73000000000000000000008383630100080160dd1b612004565b604080516001808252818301909252600091829190602080830190803683370190505090508281600081518110611603576116036145be565b6020908102919091010152600061165c7f74625544000000000000000000000000537461747300000000000000000000008360027ee1080020200120202020200000000000000000000000000000000000000000612004565b905060f881901c60028111156113d7576113d7614096565b6040805160018082528183019092526000918291906020808301908036833701905050905082816000815181106116ad576116ad6145be565b602090810291909101015260006113d77f74625544000000000000000000000000436861726163746572730000000000008360027e55040020142001000000000000000000000000000000000000000000000000612004565b60006104d0611cef565b604080516001808252818301909252600091829190602080830190803683370190505090508281600081518110611749576117496145be565b602090810291909101015260006113cb7f74625544000000000000000000000000436861726163746572730000000000008360037e55040020142001000000000000000000000000000000000000000000000000612004565b6040805160018082528183019092526000916020808301908036833701905050905082816000815181106117d8576117d86145be565b6020908102919091010152610c6f7f7462554400000000000000000000000053746174730000000000000000000000826002858181111561181b5761181b614096565b604051602001611856919060f89190911b7fff0000000000000000000000000000000000000000000000000000000000000016815260010190565b60408051601f198184030181529190527ee1080020200120202020200000000000000000000000000000000000000000611f4f565b60606000806118a161189c856145d4565b612160565b91509150816000801b03611907576040517ffdde54e20000000000000000000000000000000000000000000000000000000081527fffffffff0000000000000000000000000000000000000000000000000000000060003516600482015260240161055f565b6020840180517bffffffffffffffffffffffffffffffffffffffffffffffffffffffff16821790526113d78285612230565b600061196b826000015183602001518460400151856060015186608001518760a001518860c001518960e0015161230b565b6040805160018082528183019092529192506000916060918391906020808301908036833701905050905085816000815181106119aa576119aa6145be565b60209081029190910101526119e27f746255440000000000000000000000005374617473000000000000000000000082868686612349565b505050505050565b604080516001808252818301909252600091602080830190803683370190505090508281600081518110611a2057611a206145be565b602002602001018181525050610c6f7f746255440000000000000000000000004368617261637465727300000000000060001b8260038560405160200161128691151560f81b815260010190565b604080516001808252818301909252600091829190602080830190803683370190505090508281600081518110611aa757611aa76145be565b60209081029190910101526000611b007f74625544000000000000000000000000436861726163746572730000000000008360017e55040020142001000000000000000000000000000000000000000000000000612004565b60601c949350505050565b60006104d06123bf565b604080516001808252818301909252600091829190602080830190803683370190505090508281600081518110611b4e57611b4e6145be565b602090810291909101015260006113d77f74625544000000000000000000000000537461747300000000000000000000008360067ee1080020200120202020200000000000000000000000000000000000000000612004565b6060600060606000611bb76123bf565b9050306001600160a01b03821603611be057611bd48787876123f9565b93509350935050611c6e565b6040517f419b58fd0000000000000000000000000000000000000000000000000000000081526001600160a01b0382169063419b58fd90611c29908a908a908a90600401614660565b600060405180830381865afa158015611c46573d6000803e3d6000fd5b505050506040513d6000823e601f3d908101601f19168201604052611bd49190810190614689565b93509350939050565b611c7f613fe5565b611c8884612501565b60e0890181905260c0890182905260a089018390526080890184905260608901859052886020810160408201886002811115611cc657611cc6614096565b6002811115611cd757611cd7614096565b90529790975250505093909252509195945050505050565b604080516000808252602082019092526000611d4d7f74625544000000000000000000000000556c74696d617465446f6d696e696f6e8360027e6d070001141414141408000000000000000000000000000000000000000000612004565b60601c9392505050565b60408051600280825260608201835260009283929190602083019080368337019050509050836001600160a01b031660001b81600081518110611d9c57611d9c6145be565b6020026020010181815250508260001b81600181518110611dbf57611dbf6145be565b60209081029190910101526000611dff7f74625544000000000000000000000000436f756e7465727300000000000000008383630100080160dd1b612004565b95945050505050565b604080516002808252606082018352600092602083019080368337019050509050836001600160a01b031660001b81600081518110611e4957611e496145be565b6020026020010181815250508260001b81600181518110611e6c57611e6c6145be565b602002602001018181525050611ed27f74625544000000000000000000000000436f756e74657273000000000000000060001b82600085604051602001611eb591815260200190565b60408051601f19818403018152919052630100080160dd1b611f4f565b50505050565b6000611ee6607060106144e8565b6fffffffffffffffffffffffffffffffff198316901c601084901c7dffffffffffffffffffffffffffff00000000000000000000000000000000167fffff0000000000000000000000000000000000000000000000000000000000008616171790509392505050565b6000611f596123bf565b9050306001600160a01b03821603611f7d57611f78868686868661256f565b6119e2565b6040517f390baae00000000000000000000000000000000000000000000000000000000081526001600160a01b0382169063390baae090611fca90899089908990899089906004016146ec565b600060405180830381600087803b158015611fe457600080fd5b505af1158015611ff8573d6000803e3d6000fd5b50505050505050505050565b60008061200f6123bf565b9050306001600160a01b038216036120355761202d8686868661258b565b9150506113d7565b6040517f8c364d590000000000000000000000000000000000000000000000000000000081526001600160a01b03821690638c364d5990612080908990899089908990600401614733565b602060405180830381865afa15801561209d573d6000803e3d6000fd5b505050506040513d601f19601f8201168201806040525081019061202d919061455a565b60006104af7f7462000000000000000000000000000000000000000000000000000000000000837f546f6b656e555249000000000000000000000000000000000000000000000000611ed8565b604080516001808252818301909252600091602080830190803683370190505090508260001b81600081518110612147576121476145be565b602002602001018181525050611ed284826000856125b8565b6040805160018082528183019092526000918291829160208083019080368337019050509050837bffffffffffffffffffffffffffffffffffffffffffffffffffffffff1916816000815181106121b9576121b96145be565b6020908102919091010152600080806122127f7462776f726c6400000000000000000046756e6374696f6e53656c6563746f72857e24020020040000000000000000000000000000000000000000000000000000611ba7565b92509250925061222383838361265e565b9550955050505050915091565b6060600061223c611b0b565b90506001600160a01b038116300361227d57600061226461225b61113f565b60008787612676565b935090508061227657612276836127b1565b50506104af565b6040517f3ae7af080000000000000000000000000000000000000000000000000000000081526001600160a01b03821690633ae7af08906122c4908790879060040161443f565b6000604051808303816000875af11580156122e3573d6000803e3d6000fd5b505050506040513d6000823e601f3d908101601f191682016040526113d7919081019061449d565b6060888888888888888860405160200161232c989796959493929190614762565b604051602081830303815290604052905098975050505050505050565b60006123536123bf565b9050306001600160a01b0382160361237257611f7886868686866127b9565b6040517f298314fb0000000000000000000000000000000000000000000000000000000081526001600160a01b0382169063298314fb90611fca90899089908990899089906004016147a7565b7f629a4c26e296b22a8e0856e9f6ecb2d1008d7e00081111962cd175fa7488e175546000906001600160a01b0316806107b1573391505090565b606060006060600061240a856127cf565b90506124178787836127f2565b935060006124248661282b565b905080156124f6576124368888612868565b935066ffffffffffffff841667ffffffffffffffff81111561245a5761245a614143565b6040519080825280601f01601f191660200182016040528015612484576020820181803683370190505b5092506020830160005b828160ff1610156124f35760006124a68b8b8461287b565b905060006124c3888460ff166028026038011c64ffffffffff1690565b90506124d282600083876128fb565b6124dc81856144e8565b9350505080806124eb906147f8565b91505061248e565b50505b505093509350939050565b60008060008060008060008061251b896000016020015190565b60408a015160608b0151919950975060f81c600281111561253e5761253e614096565b60618a015160818b015160a18c015160c18d015160e1909d01519b9d9a9c939b929a91995097509195509350915050565b612584858561257e84876129c7565b856129f8565b5050505050565b6000611dff61259a8686612c9c565b60ff858116601b0360080285901c166125b385876129c7565b612cf2565b60006125c26123bf565b9050306001600160a01b038216036125e5576125e085858585612d43565b612584565b6040517fef6ea8620000000000000000000000000000000000000000000000000000000081526001600160a01b0382169063ef6ea86290612630908890889088908890600401614817565b600060405180830381600087803b15801561264a57600080fd5b505af1158015610e8d573d6000803e3d6000fd5b60008061266a85612d7e565b90969095509350505050565b6000606060008061268686612d93565b90925090506001600160a01b0382166126d757856126a387612e37565b6040517ffbf10ce600000000000000000000000000000000000000000000000000000000815260040161055f92919061443f565b806126e6576126e68689612f65565b8615612752577dffffffffffffffffffffffffffff0000000000000000000000000000000086167f6e7300000000000000000000000000000000000000000000000000000000000017600061273a82612fb1565b905061274f8261274a8b846144e8565b61302a565b50505b600061275e8760101b90565b7fffffffffffffffffffffffffffff000000000000000000000000000000000000161461279657612791888884886130c6565b6127a2565b6127a28888848861313e565b90999098509650505050505050565b805160208201fd5b61258485858585856127ca8b61319f565b613224565b600060086127df60026020614573565b6127e99190614856565b9190911c919050565b6060816000036128115750604080516020810190915260008152610bec565b600061281d8585612c9c565b9050611dff8160008561355d565b6000600860018061283e60026020614573565b6128489190614573565b6128529190614573565b61285c9190614856565b8260ff911c1692915050565b6000610bec6128778484613580565b5490565b6000838360405160200161289092919061486d565b604051602081830303815290604052805190602001208260f81b7effffffffffffffffffffffffffffffffffffffffffffffffffffffffffffff19167f3b4102da22e32d82fc925482184f16c09fd4281692720b87d124aef6da48a0f1181860001c90509392505050565b821561298257602083106129255760208304840193506020838161292157612921614586565b0692505b82156129825760208390036000818410156129485750600019600884021c612952565b50600019600882021c5b8554600886021b818451168219821617845250818411612973575050611ed2565b50600194909401939182900391015b5b602082106129a45783548152600190930192601f1990910190602001612983565b8115611ed2576000600019600884021c8251865482191691161782525050505050565b600080805b8360ff1681101561072f576129ee60ff601b83900360080287901c16836144e8565b91506001016129cc565b7f6f74000000000000000000000000000000000000000000000000000000000000847fffff0000000000000000000000000000000000000000000000000000000000001603612a8257837f8c0b5119d4cec7b284c6b1b39252a03d1e2f2d7451a5895562524c113bb952be848484604051612a75939291906148a9565b60405180910390a2611ed2565b6000612a8e8585612c9c565b90506000612a9b866135d6565b905060005b8151811015612b70576000828281518110612abd57612abd6145be565b60200260200101519050612ae96004826affffffffffffffffffffff191661365f90919063ffffffff16565b15612b67576040517f964f667d000000000000000000000000000000000000000000000000000000008152606082901c9063964f667d90612b34908b908b908b908b906004016148dc565b600060405180830381600087803b158015612b4e57600080fd5b505af1158015612b62573d6000803e3d6000fd5b505050505b50600101612aa0565b50857f8c0b5119d4cec7b284c6b1b39252a03d1e2f2d7451a5895562524c113bb952be868686604051612ba5939291906148a9565b60405180910390a2612bc0828565ffffffffffff168561367d565b60005b8151811015612c93576000828281518110612be057612be06145be565b60200260200101519050612c0c6008826affffffffffffffffffffff191661365f90919063ffffffff16565b15612c8a576040517fa8ba8721000000000000000000000000000000000000000000000000000000008152606082901c9063a8ba872190612c57908b908b908b908b906004016148dc565b600060405180830381600087803b158015612c7157600080fd5b505af1158015612c85573d6000803e3d6000fd5b505050505b50600101612bc3565b50505050505050565b60008282604051602001612cb192919061486d565b60408051601f1981840301815291905280516020909101207f86425bff6b57326c7859e89024fe4f238ca327a1ae4a230180dd2f0e88aaa7d9189392505050565b600060208210612d1857602082048401935060208281612d1457612d14614586565b0691505b508254600882021b60208290038084111561072f576001850154600882021c82179150509392505050565b6000612d4f8585612868565b90506000612d6c828560ff166028026038011c64ffffffffff1690565b90506119e28686866000858888613693565b602081015160408201516000905b9050915091565b60408051600180825281830190925260009182918291602080830190803683370190505090508381600081518110612dcd57612dcd6145be565b602090810291909101015260008080612e267f7462776f726c6400000000000000000053797374656d73000000000000000000857e150200140100000000000000000000000000000000000000000000000000006123f9565b925092509250612223838383613acd565b606081601081901b6000612e4a83613ad9565b9050827fffffffffffffffffffffffffffff000000000000000000000000000000000000831615612ea557612ea07fffffffffffffffffffffffffffff0000000000000000000000000000000000008416613af0565b612edc565b6040518060400160405280600681526020017f3c726f6f743e00000000000000000000000000000000000000000000000000008152505b6fffffffffffffffffffffffffffffffff19831615612f0357612efe83613af0565b612f3a565b6040518060400160405280600681526020017f3c726f6f743e00000000000000000000000000000000000000000000000000008152505b604051602001612f4c93929190614915565b6040516020818303038152906040529350505050919050565b612f6f8282613b76565b61154a57612f7c82612e37565b816040517fd787b73700000000000000000000000000000000000000000000000000000000815260040161055f9291906149a3565b604080516001808252818301909252600091829190602080830190803683370190505090508281600081518110612fea57612fea6145be565b602090810291909101015260006113d77f7462776f726c6400000000000000000042616c616e63657300000000000000008383630100080160dd1b61258b565b604080516001808252818301909252600091602080830190803683370190505090508281600081518110613060576130606145be565b602002602001018181525050610c6f7f7462776f726c6400000000000000000042616c616e636573000000000000000060001b826000856040516020016130a991815260200190565b60408051601f19818403018152919052630100080160dd1b61256f565b60006060836001600160a01b031660006130e1858989613bd4565b6040516130ee91906149ce565b60006040518083038185875af1925050503d806000811461312b576040519150601f19603f3d011682016040523d82523d6000602084013e613130565b606091505b509097909650945050505050565b60006060836001600160a01b0316613157848888613bd4565b60405161316491906149ce565b600060405180830381855af49150503d806000811461312b576040519150601f19603f3d011682016040523d82523d6000602084013e613130565b60007f8b9d8c8b908d9affffffffffffffffffab9e9d939a8d0000000000000000000082016131ee57507e60030220202000000000000000000000000000000000000000000000000000919050565b6104af61321b7f746273746f72650000000000000000005461626c65730000000000000000000084613c03565b60206000612cf2565b7f6f74000000000000000000000000000000000000000000000000000000000000867fffff00000000000000000000000000000000000000000000000000000000000016036132b057857f8dbb3a9672eebfd3773e72dd9c102393436816d832c7ba9e1e1ac8fcadcac7a9868686866040516132a394939291906149ea565b60405180910390a26119e2565b60006132bb876135d6565b905060005b81518110156133945760008282815181106132dd576132dd6145be565b602002602001015190506133096001826affffffffffffffffffffff191661365f90919063ffffffff16565b1561338b576040517f57066c9c000000000000000000000000000000000000000000000000000000008152606082901c906357066c9c90613358908c908c908c908c908c908c90600401614a29565b600060405180830381600087803b15801561337257600080fd5b505af1158015613386573d6000803e3d6000fd5b505050505b506001016132c0565b50867f8dbb3a9672eebfd3773e72dd9c102393436816d832c7ba9e1e1ac8fcadcac7a9878787876040516133cb94939291906149ea565b60405180910390a260006133df8888612c9c565b905060006020870190506133f7826000895184613c1f565b60006134028561282b565b11156134865760006134148a8a613580565b878155905060208601915060008060005b61342e8861282b565b8160ff161015613481576134438d8d8361287b565b925061345e8a8260ff166028026038011c64ffffffffff1690565b915061346d8360008488613c1f565b61347782866144e8565b9450600101613425565b505050505b60005b8351811015611ff85760008482815181106134a6576134a66145be565b602002602001015190506134d26002826affffffffffffffffffffff191661365f90919063ffffffff16565b15613554576040517f5b28cdaf000000000000000000000000000000000000000000000000000000008152606082901c90635b28cdaf90613521908e908e908e908e908e908e90600401614a29565b600060405180830381600087803b15801561353b57600080fd5b505af115801561354f573d6000803e3d6000fd5b505050505b50600101613489565b60405160208101601f19603f848401011660405282825261072f858585846128fb565b6000828260405160200161359592919061486d565b60408051601f1981840301815291905280516020909101207f14e2fcc58e58e68ec7edc30c8d50dccc3ce2714a623ec81f46b6a63922d76569189392505050565b60408051600180825281830190925260609160009190602080830190803683370190505090508281600081518110613610576136106145be565b602090810291909101015260006136487f746273746f726500000000000000000053746f7265486f6f6b730000000000008383613cde565b90506113d761365a8260008451613d18565b613da6565b60008160ff16826136708560581c90565b1660ff1614905092915050565b610c6f8383835161368e8560200190565b613c1f565b7f7462000000000000000000000000000000000000000000000000000000000000877fffff0000000000000000000000000000000000000000000000000000000000001614613753577f7462000000000000000000000000000000000000000000000000000000000000878860405160200161371191815260200190565b60408051601f19818403018152908290527f31b4668300000000000000000000000000000000000000000000000000000000825261055f939291600401614a82565b600061376e828760ff166028026038011c64ffffffffff1690565b9050600083518564ffffffffff16836137879190614573565b61379191906144e8565b90508082141580156137b35750816137a98688614ac3565b64ffffffffff1614155b15613803576040517fa65010b400000000000000000000000000000000000000000000000000000000815264ffffffffff808816600483015280871660248301528316604482015260640161055f565b818664ffffffffff161115613854576040517f7e8578d30000000000000000000000000000000000000000000000000000000081526004810183905264ffffffffff8716602482015260440161055f565b6000613861848984613db7565b9050600061386e8b6135d6565b905060005b8151811015613939576000828281518110613890576138906145be565b602002602001015190506138bc6010826affffffffffffffffffffff191661365f90919063ffffffff16565b1561393057606081901c6001600160a01b03166355eb5a288e8e8e8e8e8d8f6040518863ffffffff1660e01b81526004016138fd9796959493929190614ae8565b600060405180830381600087803b15801561391757600080fd5b505af115801561392b573d6000803e3d6000fd5b505050505b50600101613873565b5064ffffffffff881660005b8a60ff168160ff1610156139785761396c878260ff166028026038011c64ffffffffff1690565b90910190600101613945565b508b7ffe158a7adba34e256807c8a149028d3162918713c3838afc643ce9f96716ebfd8c8c848c888d6040516139b396959493929190614b46565b60405180910390a2508284146139d45760006139cf8c8c613580565b839055505b60006139e18c8c8c61287b565b90506139f5818a64ffffffffff168961367d565b5060005b8151811015613abf576000828281518110613a1657613a166145be565b60200260200101519050613a426020826affffffffffffffffffffff191661365f90919063ffffffff16565b15613ab657606081901c6001600160a01b031663635845338e8e8e8e8e8a8f6040518863ffffffff1660e01b8152600401613a839796959493929190614ae8565b600060405180830381600087803b158015613a9d57600080fd5b505af1158015613ab1573d6000803e3d6000fd5b505050505b506001016139f9565b505050505050505050505050565b60008061266a85613e85565b6000613ae7607060106144e8565b9190911b919050565b606060005b6010811015613b46576fffffffffffffffffffffffffffffffff198316600882021b7fff000000000000000000000000000000000000000000000000000000000000001615613b4657600101613af5565b604080516fffffffffffffffffffffffffffffffff198516602082015281516030909101909152818152806113d7565b6000613bc47f6e730000000000000000000000000000000000000000000000000000000000007dffffffffffffffffffffffffffff0000000000000000000000000000000085161783613ea1565b80610bec5750610bec8383613ea1565b6060838383604051602001613beb93929190614ba2565b60405160208183030381529060405290509392505050565b6040805160208101849052908101829052600090606001612cb1565b8215613c995760208310613c4957602083048401935060208381613c4557613c45614586565b0692505b8215613c995760208390036000600019600885021c1990506008850281811c91508351811c9050811987541682821617875550818411613c8a575050611ed2565b50600194909401939182900391015b5b60208210613cbb5780518455600190930192601f1990910190602001613c9a565b8115611ed2576000600019600884021c8554835182191691161785555050505050565b60606113d7613cee85858561287b565b6000613d1385613cfe8989612868565b9060ff166028026038011c64ffffffffff1690565b61355d565b600081831180613d285750835182115b15613d65578383836040517f23230fa300000000000000000000000000000000000000000000000000000000815260040161055f93929190614be1565b60208401613d7384826144e8565b90506000613d818585614573565b6fffffffffffffffffffffffffffffffff1660809290921b9190911795945050505050565b60606000610bec8360156000613f6a565b600064ffffffffff821115613dfb576040517f7149a3c10000000000000000000000000000000000000000000000000000000081526004810183905260240161055f565b8366ffffffffffffff811660ff851660280260380182901c64ffffffffff16808510613e2d5780850382019150613e35565b848103820391505b5064ffffffffff6038602860ff8816020181811b197fffffffffffffffffffffffffffffffffffffffffffffffffff000000000000009490941690921792909216918416901b1790509392505050565b6020810151603482015160609190911c9060009060f81c612d8c565b604080516002808252606082018352600092839291906020830190803683370190505090508381600081518110613eda57613eda6145be565b602002602001018181525050826001600160a01b031660001b81600181518110613f0657613f066145be565b60209081029190910101526000613f5e7f7462776f726c640000000000000000005265736f75726365416363657373000083837e0101000100000000000000000000000000000000000000000000000000000061258b565b9050611dff8160f81c90565b60606000613f788560801c90565b90506fffffffffffffffffffffffffffffffff85166000858281613f9e57613f9e614586565b04905060405193506020840160208202810160405281855260005b82811015613fd9578451871c825293870193602090910190600101613fb9565b50505050509392505050565b60405180610100016040528060008152602001600081526020016000600281111561401257614012614096565b815260200160008152602001600081526020016000815260200160008152602001600081525090565b60006020828403121561404d57600080fd5b5035919050565b60006020828403121561406657600080fd5b81357fffffffff0000000000000000000000000000000000000000000000000000000081168114610bec57600080fd5b634e487b7160e01b600052602160045260246000fd5b600381106140ca57634e487b7160e01b600052602160045260246000fd5b50565b815181526020808301519082015260408201516101008201906140ef816140ac565b80604084015250606083015160608301526080830151608083015260a083015160a083015260c083015160c083015260e083015160e083015292915050565b6001600160a01b03811681146140ca57600080fd5b634e487b7160e01b600052604160045260246000fd5b604051610100810167ffffffffffffffff8111828210171561417d5761417d614143565b60405290565b604051601f8201601f1916810167ffffffffffffffff811182821017156141ac576141ac614143565b604052919050565b600067ffffffffffffffff8211156141ce576141ce614143565b50601f01601f191660200190565b600082601f8301126141ed57600080fd5b81356142006141fb826141b4565b614183565b81815284602083860101111561421557600080fd5b816020850160208301376000918101602001919091529392505050565b60008060006060848603121561424757600080fd5b83356142528161412e565b925060208401359150604084013567ffffffffffffffff81111561427557600080fd5b614281868287016141dc565b9150509250925092565b60208101614298836140ac565b91905290565b8035600381106107b157600080fd5b6000806000606084860312156142c257600080fd5b83359250602084013591506142d96040850161429e565b90509250925092565b600080604083850312156142f557600080fd5b8235915060208301356143078161412e565b809150509250929050565b6000806040838503121561432557600080fd5b82359150602083013567ffffffffffffffff81111561434357600080fd5b61434f858286016141dc565b9150509250929050565b60008082840361012081121561436e57600080fd5b8335925061010080601f198301121561438657600080fd5b61438e614159565b915060208501358252604085013560208301526143ad6060860161429e565b60408301526080850135606083015260a0850135608083015260c085013560a083015260e085013560c08301528085013560e083015250809150509250929050565b60005b8381101561440a5781810151838201526020016143f2565b50506000910152565b6000815180845261442b8160208601602086016143ef565b601f01601f19169290920160200192915050565b8281526040602082015260006113d76040830184614413565b600082601f83011261446957600080fd5b81516144776141fb826141b4565b81815284602083860101111561448c57600080fd5b6113d78260208301602087016143ef565b6000602082840312156144af57600080fd5b815167ffffffffffffffff8111156144c657600080fd5b6113d784828501614458565b634e487b7160e01b600052601160045260246000fd5b808201808211156104af576104af6144d2565b6000600019820361450e5761450e6144d2565b5060010190565b60006020828403121561452757600080fd5b8151610bec8161412e565b83815261453e836140ac565b826020820152606060408201526000611dff6060830184614413565b60006020828403121561456c57600080fd5b5051919050565b818103818111156104af576104af6144d2565b634e487b7160e01b600052601260045260246000fd5b6000826145b957634e487b7160e01b600052601260045260246000fd5b500690565b634e487b7160e01b600052603260045260246000fd5b6000815160208301517fffffffff000000000000000000000000000000000000000000000000000000008082169350600483101561461c5780818460040360031b1b83161693505b505050919050565b60008151808452602080850194506020840160005b8381101561465557815187529582019590820190600101614639565b509495945050505050565b8381526060602082015260006146796060830185614624565b9050826040830152949350505050565b60008060006060848603121561469e57600080fd5b835167ffffffffffffffff808211156146b657600080fd5b6146c287838801614458565b94506020860151935060408601519150808211156146df57600080fd5b5061428186828701614458565b85815260a06020820152600061470560a0830187614624565b60ff8616604084015282810360608401526147208186614413565b9150508260808301529695505050505050565b84815260806020820152600061474c6080830186614624565b60ff949094166040830152506060015292915050565b888152876020820152614774876140ac565b60f89690961b604087015260418601949094526061850192909252608184015260a183015260c182015260e10192915050565b85815260a0602082015260006147c060a0830187614624565b82810360408401526147d28187614413565b905084606084015282810360808401526147ec8185614413565b98975050505050505050565b600060ff821660ff810361480e5761480e6144d2565b60010192915050565b8481526080602082015260006148306080830186614624565b60ff85166040840152828103606084015261484b8185614413565b979650505050505050565b80820281158282048414176104af576104af6144d2565b8281526000602080830184516020860160005b8281101561489c57815184529284019290840190600101614880565b5091979650505050505050565b6060815260006148bc6060830186614624565b65ffffffffffff851660208401528281036040840152610a8d8185614413565b8481526080602082015260006148f56080830186614624565b65ffffffffffff85166040840152828103606084015261484b8185614413565b7fffff0000000000000000000000000000000000000000000000000000000000008416815260007f3a0000000000000000000000000000000000000000000000000000000000000080600284015284516149768160038601602089016143ef565b8084019050816003820152845191506149968260048301602088016143ef565b0160040195945050505050565b6040815260006149b66040830185614413565b90506001600160a01b03831660208301529392505050565b600082516149e08184602087016143ef565b9190910192915050565b6080815260006149fd6080830187614624565b8281036020840152614a0f8187614413565b9050846040840152828103606084015261484b8185614413565b86815260c060208201526000614a4260c0830188614624565b8281036040840152614a548188614413565b90508560608401528281036080840152614a6e8186614413565b9150508260a0830152979650505050505050565b7fffff00000000000000000000000000000000000000000000000000000000000084168152826020820152606060408201526000611dff6060830184614413565b64ffffffffff818116838216019080821115614ae157614ae16144d2565b5092915050565b87815260e060208201526000614b0160e0830189614624565b60ff8816604084015264ffffffffff87811660608501528616608084015260a0830185905282810360c0840152614b388185614413565b9a9950505050505050505050565b60c081526000614b5960c0830189614624565b60ff8816602084015265ffffffffffff8716604084015264ffffffffff8616606084015284608084015282810360a0840152614b958185614413565b9998505050505050505050565b60008451614bb48184602089016143ef565b60609490941b6bffffffffffffffffffffffff191691909301908152601481019190915260340192915050565b606081526000614bf46060830186614413565b6020830194909452506040015291905056fea2646970667358221220dcf122c42cfe15a8a9dea62ee821c0dbed2d9af80bd3cf1092128cc8f466f6ed64736f6c63430008180033","linkReferences":{}},"methodIdentifiers":{"_msgSender()":"119df25f","_msgValue()":"45ec9354","_world()":"e1af802c","enterGame(bytes32)":"c74dedc8","getCharacterTokenId(bytes32)":"f8c67561","getClass(bytes32)":"23801570","getCurrentAvailableLevel(uint256)":"1ecb393f","getExperience(bytes32)":"ebee03bb","getName(bytes32)":"54b8d5e3","getOwner(bytes32)":"deb931a2","getOwnerAddress(bytes32)":"00d43ec6","getPlayerEntityId(uint256)":"8338f0e0","getStats(bytes32)":"0bb700dc","isValidCharacterId(bytes32)":"623daa05","isValidOwner(bytes32,address)":"9b63ec05","levelCharacter(bytes32,(uint256,uint256,uint8,uint256,uint256,int256,uint256,uint256))":"c441b44d","mintCharacter(address,bytes32,string)":"143f3021","rollStats(bytes32,bytes32,uint8)":"679ee16d","supportsInterface(bytes4)":"01ffc9a7","updateTokenUri(bytes32,string)":"b27cbcbb"},"id":226}