{"abi":[{"type":"function","name":"_msgSender","inputs":[],"outputs":[{"name":"sender","type":"address","internalType":"address"}],"stateMutability":"view"},{"type":"function","name":"_msgValue","inputs":[],"outputs":[{"name":"value","type":"uint256","internalType":"uint256"}],"stateMutability":"pure"},{"type":"function","name":"_world","inputs":[],"outputs":[{"name":"","type":"address","internalType":"address"}],"stateMutability":"view"},{"type":"function","name":"enterGame","inputs":[{"name":"characterId","type":"bytes32","internalType":"bytes32"}],"outputs":[],"stateMutability":"nonpayable"},{"type":"function","name":"getCharacterTokenId","inputs":[{"name":"characterId","type":"bytes32","internalType":"bytes32"}],"outputs":[{"name":"","type":"uint256","internalType":"uint256"}],"stateMutability":"pure"},{"type":"function","name":"getClass","inputs":[{"name":"characterId","type":"bytes32","internalType":"bytes32"}],"outputs":[{"name":"_class","type":"uint8","internalType":"enum Classes"}],"stateMutability":"view"},{"type":"function","name":"getCurrentAvailableLevel","inputs":[{"name":"experience","type":"uint256","internalType":"uint256"}],"outputs":[{"name":"currentLevel","type":"uint256","internalType":"uint256"}],"stateMutability":"view"},{"type":"function","name":"getExperience","inputs":[{"name":"characterId","type":"bytes32","internalType":"bytes32"}],"outputs":[{"name":"","type":"uint256","internalType":"uint256"}],"stateMutability":"view"},{"type":"function","name":"getName","inputs":[{"name":"characterId","type":"bytes32","internalType":"bytes32"}],"outputs":[{"name":"_name","type":"bytes32","internalType":"bytes32"}],"stateMutability":"view"},{"type":"function","name":"getOwner","inputs":[{"name":"characterId","type":"bytes32","internalType":"bytes32"}],"outputs":[{"name":"","type":"address","internalType":"address"}],"stateMutability":"view"},{"type":"function","name":"getOwnerAddress","inputs":[{"name":"characterId","type":"bytes32","internalType":"bytes32"}],"outputs":[{"name":"","type":"address","internalType":"address"}],"stateMutability":"pure"},{"type":"function","name":"getPlayerEntityId","inputs":[{"name":"characterTokenId","type":"uint256","internalType":"uint256"}],"outputs":[{"name":"characterId","type":"bytes32","internalType":"bytes32"}],"stateMutability":"view"},{"type":"function","name":"getStats","inputs":[{"name":"characterId","type":"bytes32","internalType":"bytes32"}],"outputs":[{"name":"","type":"tuple","internalType":"struct StatsData","components":[{"name":"strength","type":"uint256","internalType":"uint256"},{"name":"agility","type":"uint256","internalType":"uint256"},{"name":"class","type":"uint8","internalType":"enum Classes"},{"name":"intelligence","type":"uint256","internalType":"uint256"},{"name":"baseHp","type":"uint256","internalType":"uint256"},{"name":"currentHp","type":"int256","internalType":"int256"},{"name":"experience","type":"uint256","internalType":"uint256"},{"name":"level","type":"uint256","internalType":"uint256"}]}],"stateMutability":"view"},{"type":"function","name":"isValidCharacterId","inputs":[{"name":"characterId","type":"bytes32","internalType":"bytes32"}],"outputs":[{"name":"","type":"bool","internalType":"bool"}],"stateMutability":"view"},{"type":"function","name":"isValidOwner","inputs":[{"name":"characterId","type":"bytes32","internalType":"bytes32"},{"name":"owner","type":"address","internalType":"address"}],"outputs":[{"name":"","type":"bool","internalType":"bool"}],"stateMutability":"view"},{"type":"function","name":"mintCharacter","inputs":[{"name":"account","type":"address","internalType":"address"},{"name":"name","type":"bytes32","internalType":"bytes32"},{"name":"tokenUri","type":"string","internalType":"string"}],"outputs":[{"name":"characterId","type":"bytes32","internalType":"bytes32"}],"stateMutability":"nonpayable"},{"type":"function","name":"rollStats","inputs":[{"name":"userRandomNumber","type":"bytes32","internalType":"bytes32"},{"name":"characterId","type":"bytes32","internalType":"bytes32"},{"name":"class","type":"uint8","internalType":"enum Classes"}],"outputs":[],"stateMutability":"payable"},{"type":"function","name":"supportsInterface","inputs":[{"name":"interfaceId","type":"bytes4","internalType":"bytes4"}],"outputs":[{"name":"","type":"bool","internalType":"bool"}],"stateMutability":"pure"},{"type":"function","name":"updateTokenUri","inputs":[{"name":"characterId","type":"bytes32","internalType":"bytes32"},{"name":"tokenUri","type":"string","internalType":"string"}],"outputs":[],"stateMutability":"nonpayable"},{"type":"event","name":"Store_SetRecord","inputs":[{"name":"tableId","type":"bytes32","indexed":true,"internalType":"ResourceId"},{"name":"keyTuple","type":"bytes32[]","indexed":false,"internalType":"bytes32[]"},{"name":"staticData","type":"bytes","indexed":false,"internalType":"bytes"},{"name":"encodedLengths","type":"bytes32","indexed":false,"internalType":"EncodedLengths"},{"name":"dynamicData","type":"bytes","indexed":false,"internalType":"bytes"}],"anonymous":false},{"type":"event","name":"Store_SpliceDynamicData","inputs":[{"name":"tableId","type":"bytes32","indexed":true,"internalType":"ResourceId"},{"name":"keyTuple","type":"bytes32[]","indexed":false,"internalType":"bytes32[]"},{"name":"dynamicFieldIndex","type":"uint8","indexed":false,"internalType":"uint8"},{"name":"start","type":"uint48","indexed":false,"internalType":"uint48"},{"name":"deleteCount","type":"uint40","indexed":false,"internalType":"uint40"},{"name":"encodedLengths","type":"bytes32","indexed":false,"internalType":"EncodedLengths"},{"name":"data","type":"bytes","indexed":false,"internalType":"bytes"}],"anonymous":false},{"type":"event","name":"Store_SpliceStaticData","inputs":[{"name":"tableId","type":"bytes32","indexed":true,"internalType":"ResourceId"},{"name":"keyTuple","type":"bytes32[]","indexed":false,"internalType":"bytes32[]"},{"name":"start","type":"uint48","indexed":false,"internalType":"uint48"},{"name":"data","type":"bytes","indexed":false,"internalType":"bytes"}],"anonymous":false},{"type":"error","name":"EncodedLengths_InvalidLength","inputs":[{"name":"length","type":"uint256","internalType":"uint256"}]},{"type":"error","name":"Slice_OutOfBounds","inputs":[{"name":"data","type":"bytes","internalType":"bytes"},{"name":"start","type":"uint256","internalType":"uint256"},{"name":"end","type":"uint256","internalType":"uint256"}]},{"type":"error","name":"Store_IndexOutOfBounds","inputs":[{"name":"length","type":"uint256","internalType":"uint256"},{"name":"accessedIndex","type":"uint256","internalType":"uint256"}]},{"type":"error","name":"Store_InvalidResourceType","inputs":[{"name":"expected","type":"bytes2","internalType":"bytes2"},{"name":"resourceId","type":"bytes32","internalType":"ResourceId"},{"name":"resourceIdString","type":"string","internalType":"string"}]},{"type":"error","name":"Store_InvalidSplice","inputs":[{"name":"startWithinField","type":"uint40","internalType":"uint40"},{"name":"deleteCount","type":"uint40","internalType":"uint40"},{"name":"fieldLength","type":"uint40","internalType":"uint40"}]},{"type":"error","name":"World_AccessDenied","inputs":[{"name":"resource","type":"string","internalType":"string"},{"name":"caller","type":"address","internalType":"address"}]},{"type":"error","name":"World_FunctionSelectorNotFound","inputs":[{"name":"functionSelector","type":"bytes4","internalType":"bytes4"}]},{"type":"error","name":"World_ResourceNotFound","inputs":[{"name":"resourceId","type":"bytes32","internalType":"ResourceId"},{"name":"resourceIdString","type":"string","internalType":"string"}]}],"bytecode":{"object":"0x608060405234801561001057600080fd5b5061497d806100206000396000f3fe6080604052600436106101435760003560e01c8063623daa05116100c0578063c74dedc811610074578063e1af802c11610059578063e1af802c14610380578063ebee03bb14610395578063f8c67561146103b557600080fd5b8063c74dedc814610340578063deb931a21461036057600080fd5b80638338f0e0116100a55780638338f0e0146102e05780639b63ec0514610300578063b27cbcbb1461032057600080fd5b8063623daa05146102ab578063679ee16d146102cb57600080fd5b8063143f30211161011757806323801570116100fc578063238015701461024657806345ec93541461027357806354b8d5e31461028b57600080fd5b8063143f3021146101f85780631ecb393f1461022657600080fd5b8062d43ec61461014857806301ffc9a7146101865780630bb700dc146101b6578063119df25f146101e3575b600080fd5b34801561015457600080fd5b50610169610163366004613e65565b60601c90565b6040516001600160a01b0390911681526020015b60405180910390f35b34801561019257600080fd5b506101a66101a1366004613e7e565b6103e1565b604051901515815260200161017d565b3480156101c257600080fd5b506101d66101d1366004613e65565b61047a565b60405161017d9190613ef7565b3480156101ef57600080fd5b5061016961048b565b34801561020457600080fd5b50610218610213366004614032565b61049a565b60405190815260200161017d565b34801561023257600080fd5b50610218610241366004613e65565b6106fc565b34801561025257600080fd5b50610266610261366004613e65565b61077a565b60405161017d919061408b565b34801561027f57600080fd5b5036601f190135610218565b34801561029757600080fd5b506102186102a6366004613e65565b610785565b3480156102b757600080fd5b506101a66102c6366004613e65565b610790565b6102de6102d936600461409e565b6108bc565b005b3480156102ec57600080fd5b506102186102fb366004613e65565b610a34565b34801561030c57600080fd5b506101a661031b3660046140db565b610ac9565b34801561032c57600080fd5b506102de61033b36600461410b565b610b90565b34801561034c57600080fd5b506102de61035b366004613e65565b610c01565b34801561036c57600080fd5b5061016961037b366004613e65565b610dd1565b34801561038c57600080fd5b50610169610ddc565b3480156103a157600080fd5b506102186103b0366004613e65565b610de6565b3480156103c157600080fd5b506102186103d0366004613e65565b6bffffffffffffffffffffffff1690565b60007fffffffff0000000000000000000000000000000000000000000000000000000082167fb5dee12700000000000000000000000000000000000000000000000000000000148061047457507fffffffff0000000000000000000000000000000000000000000000000000000082167f01ffc9a700000000000000000000000000000000000000000000000000000000145b92915050565b610482613e0f565b61047482610df1565b6000610495610ea3565b905090565b6000806104a5610ed5565b90506bffffffffffffffffffffffff811061052d5760405162461bcd60e51b815260206004820152602360248201527f43484152414341544552533a204d61782063686172616374657273207265616360448201527f686564000000000000000000000000000000000000000000000000000000000060648201526084015b60405180910390fd5b610535610ddc565b6001600160a01b0316633ae7af0861056c7f4368617261637465727300000000000000000000000000000000000000000000610f08565b6040516001600160a01b03891660248201526044810185905260640160408051601f198184030181529181526020820180517bffffffffffffffffffffffffffffffffffffffffffffffffffffffff167f40c10f1900000000000000000000000000000000000000000000000000000000179052517fffffffff0000000000000000000000000000000000000000000000000000000060e085901b1681526106189291906004016141a2565b6000604051808303816000875af1158015610637573d6000803e3d6000fd5b505050506040513d6000823e601f3d908101601f1916820160405261065f9190810190614200565b5061066981610a34565b91506106758286610f55565b61067f8282611024565b610688846110a3565b156106d55760405162461bcd60e51b815260206004820152601360248201527f4e616d6520616c726561647920657869737473000000000000000000000000006044820152606401610524565b6106e0846001611148565b6106ea8285611201565b6106f48184611280565b509392505050565b600061070860136112b3565b821061071657506014919050565b60005b6014811015610774578261072c826112b3565b1115801561074b57508261074961074483600161424b565b6112b3565b115b156107625761075b81600161424b565b9150610774565b8061076c8161425e565b915050610719565b50919050565b60006104748261132f565b6000610474826113d9565b60008061079d8360601c90565b90506bffffffffffffffffffffffff831660006107b861146b565b6001600160a01b0316636352211e836040518263ffffffff1660e01b81526004016107e591815260200190565b602060405180830381865afa92505050801561081e575060408051601f3d908101601f1916820190925261081b91810190614278565b60015b1561089d5761082b61146b565b6001600160a01b0316636352211e846040518263ffffffff1660e01b815260040161085891815260200190565b602060405180830381865afa158015610875573d6000803e3d6000fd5b505050506040513d601f19601f820116820180604052508101906108999190614278565b9150505b826001600160a01b0316816001600160a01b0316149350505050919050565b6108c582611475565b156109385760405162461bcd60e51b815260206004820152602b60248201527f434841524143544552533a2063686172616374657220616c726561647920696e60448201527f2067616d6520776f726c640000000000000000000000000000000000000000006064820152608401610524565b61094182611507565b61098d5760405162461bcd60e51b815260206004820152601360248201527f4e6f7420796f7572204368617261637465722e000000000000000000000000006044820152606401610524565b600061099983836115c3565b610a2d8482856040516020016109b191815260200190565b60408051601f19818403018152908290526109d0939291602401614295565b60408051601f198184030181529190526020810180517bffffffffffffffffffffffffffffffffffffffffffffffffffffffff167fb2aa60a4000000000000000000000000000000000000000000000000000000001790526116ac565b5050505050565b600080610a3f61146b565b6001600160a01b0316636352211e846040518263ffffffff1660e01b8152600401610a6c91815260200190565b602060405180830381865afa158015610a89573d6000803e3d6000fd5b505050506040513d601f19601f82011682018060405250810190610aad9190614278565b60601b6bffffffffffffffffffffffff19169290921792915050565b6000610ad483610790565b8015610b895750816001600160a01b0316610aed61146b565b6040517f6352211e0000000000000000000000000000000000000000000000000000000081526bffffffffffffffffffffffff861660048201526001600160a01b039190911690636352211e90602401602060405180830381865afa158015610b5a573d6000803e3d6000fd5b505050506040513d601f19601f82011682018060405250810190610b7e9190614278565b6001600160a01b0316145b9392505050565b610b9982611507565b610be55760405162461bcd60e51b815260206004820152601a60248201527f434841524143544552533a204e4f5420415554484f52495a45440000000000006044820152606401610524565b610bfd6bffffffffffffffffffffffff831682611280565b5050565b610c0a81611507565b610c565760405162461bcd60e51b815260206004820152601260248201527f6e6f7420796f75722063686172616374657200000000000000000000000000006044820152606401610524565b610c5f81611475565b15610cac5760405162461bcd60e51b815260206004820152601960248201527f796f75206861766520656e7465726564207468652067616d65000000000000006044820152606401610524565b6000610cb782610df1565b600160e0820152608081015160a08201529050610cd4828261175a565b610cdc610ddc565b6040517ffda0ce5000000000000000000000000000000000000000000000000000000000815260048101849052674563918244f4000060248201526001600160a01b03919091169063fda0ce5090604401600060405180830381600087803b158015610d4757600080fd5b505af1158015610d5b573d6000803e3d6000fd5b50505050610d67610ddc565b6001600160a01b031663f9d175ed836040518263ffffffff1660e01b8152600401610d9491815260200190565b600060405180830381600087803b158015610dae57600080fd5b505af1158015610dc2573d6000803e3d6000fd5b50505050610bfd82600161180b565b60006104748261188f565b600061049561192c565b600061047482611936565b610df9613e0f565b604080516001808252818301909252600091602080830190803683370190505090508281600081518110610e2f57610e2f6142bd565b602090810291909101015260008080610e887f7462554400000000000000000000000053746174730000000000000000000000857ee10800202001202020202000000000000000000000000000000000000000006119c8565b925092509250610e99838383611a98565b9695505050505050565b7fffffffffffffffffffffffffffffffffffffffffffffffffffffffffffffffcc36013560601c80610ed25750335b90565b600080610ee0611b10565b90506000610eef826000611b78565b610efa90600161424b565b905061047482600083611c29565b60006104747f7379000000000000000000000000000000000000000000000000000000000000837f45524337323153797374656d0000000000000000000000000000000000000000611cf9565b604080516001808252818301909252600091602080830190803683370190505090508281600081518110610f8b57610f8b6142bd565b60200260200101818152505061101f7f746255440000000000000000000000004368617261637465727300000000000060001b82600185604051602001610fea919060609190911b6bffffffffffffffffffffffff1916815260140190565b60408051601f198184030181529190527e55040020142001000000000000000000000000000000000000000000000000611d70565b505050565b60408051600180825281830190925260009160208083019080368337019050509050828160008151811061105a5761105a6142bd565b60200260200101818152505061101f7f746255440000000000000000000000004368617261637465727300000000000060001b82600085604051602001610fea91815260200190565b6040805160018082528183019092526000918291906020808301908036833701905050905082816000815181106110dc576110dc6142bd565b602090810291909101015260006111347f746255440000000000000000000000004e616d6545786973747300000000000083837e01010001000000000000000000000000000000000000000000000000000000611e25565b90506111408160f81c90565b949350505050565b60408051600180825281830190925260009160208083019080368337019050509050828160008151811061117e5761117e6142bd565b60200260200101818152505061101f7f746255440000000000000000000000004e616d6545786973747300000000000060001b826000856040516020016111cc91151560f81b815260010190565b60408051601f198184030181529190527e01010001000000000000000000000000000000000000000000000000000000611d70565b604080516001808252818301909252600091602080830190803683370190505090508281600081518110611237576112376142bd565b60200260200101818152505061101f7f746255440000000000000000000000004368617261637465727300000000000060001b82600285604051602001610fea91815260200190565b610bfd6112ac7f4368617261637465727300000000000000000000000000000000000000000000611ee2565b8383611f2f565b604080516001808252818301909252600091829190602080830190803683370190505090508260001b816000815181106112ef576112ef6142bd565b602090810291909101015260006111407f746255440000000000000000000000004c6576656c73000000000000000000008383630100080160dd1b611e25565b604080516001808252818301909252600091829190602080830190803683370190505090508281600081518110611368576113686142bd565b602090810291909101015260006113c17f74625544000000000000000000000000537461747300000000000000000000008360027ee1080020200120202020200000000000000000000000000000000000000000611e25565b905060f881901c600281111561114057611140613ec0565b604080516001808252818301909252600091829190602080830190803683370190505090508281600081518110611412576114126142bd565b602090810291909101015260006111407f74625544000000000000000000000000436861726163746572730000000000008360027e55040020142001000000000000000000000000000000000000000000000000611e25565b6000610495611b10565b6040805160018082528183019092526000918291906020808301908036833701905050905082816000815181106114ae576114ae6142bd565b602090810291909101015260006111347f74625544000000000000000000000000436861726163746572730000000000008360037e55040020142001000000000000000000000000000000000000000000000000611e25565b600061151161146b565b6040517f6352211e0000000000000000000000000000000000000000000000000000000081526bffffffffffffffffffffffff841660048201526001600160a01b039190911690636352211e90602401602060405180830381865afa15801561157e573d6000803e3d6000fd5b505050506040513d601f19601f820116820180604052508101906115a29190614278565b6001600160a01b03166115b361048b565b6001600160a01b03161492915050565b6040805160018082528183019092526000916020808301908036833701905050905082816000815181106115f9576115f96142bd565b602090810291909101015261101f7f7462554400000000000000000000000053746174730000000000000000000000826002858181111561163c5761163c613ec0565b604051602001611677919060f89190911b7fff0000000000000000000000000000000000000000000000000000000000000016815260010190565b60408051601f198184030181529190527ee1080020200120202020200000000000000000000000000000000000000000611d70565b60606000806116c26116bd856142d3565b611f81565b91509150816000801b03611728576040517ffdde54e20000000000000000000000000000000000000000000000000000000081527fffffffff00000000000000000000000000000000000000000000000000000000600035166004820152602401610524565b6020840180517bffffffffffffffffffffffffffffffffffffffffffffffffffffffff16821790526111408285612051565b600061178c826000015183602001518460400151856060015186608001518760a001518860c001518960e0015161212c565b6040805160018082528183019092529192506000916060918391906020808301908036833701905050905085816000815181106117cb576117cb6142bd565b60209081029190910101526118037f74625544000000000000000000000000537461747300000000000000000000008286868661216a565b505050505050565b604080516001808252818301909252600091602080830190803683370190505090508281600081518110611841576118416142bd565b60200260200101818152505061101f7f746255440000000000000000000000004368617261637465727300000000000060001b82600385604051602001610fea91151560f81b815260010190565b6040805160018082528183019092526000918291906020808301908036833701905050905082816000815181106118c8576118c86142bd565b602090810291909101015260006119217f74625544000000000000000000000000436861726163746572730000000000008360017e55040020142001000000000000000000000000000000000000000000000000611e25565b60601c949350505050565b60006104956121e0565b60408051600180825281830190925260009182919060208083019080368337019050509050828160008151811061196f5761196f6142bd565b602090810291909101015260006111407f74625544000000000000000000000000537461747300000000000000000000008360067ee1080020200120202020200000000000000000000000000000000000000000611e25565b60606000606060006119d86121e0565b9050306001600160a01b03821603611a01576119f587878761221f565b93509350935050611a8f565b6040517f419b58fd0000000000000000000000000000000000000000000000000000000081526001600160a01b0382169063419b58fd90611a4a908a908a908a9060040161435f565b600060405180830381865afa158015611a67573d6000803e3d6000fd5b505050506040513d6000823e601f3d908101601f191682016040526119f59190810190614388565b93509350939050565b611aa0613e0f565b611aa984612327565b60e0890181905260c0890182905260a089018390526080890184905260608901859052886020810160408201886002811115611ae757611ae7613ec0565b6002811115611af857611af8613ec0565b90529790975250505093909252509195945050505050565b604080516000808252602082019092526000611b6e7f74625544000000000000000000000000556c74696d617465446f6d696e696f6e8360027e65060001141414141400000000000000000000000000000000000000000000611e25565b60601c9392505050565b60408051600280825260608201835260009283929190602083019080368337019050509050836001600160a01b031660001b81600081518110611bbd57611bbd6142bd565b6020026020010181815250508260001b81600181518110611be057611be06142bd565b60209081029190910101526000611c207f74625544000000000000000000000000436f756e7465727300000000000000008383630100080160dd1b611e25565b95945050505050565b604080516002808252606082018352600092602083019080368337019050509050836001600160a01b031660001b81600081518110611c6a57611c6a6142bd565b6020026020010181815250508260001b81600181518110611c8d57611c8d6142bd565b602002602001018181525050611cf37f74625544000000000000000000000000436f756e74657273000000000000000060001b82600085604051602001611cd691815260200190565b60408051601f19818403018152919052630100080160dd1b611d70565b50505050565b6000611d076070601061424b565b6fffffffffffffffffffffffffffffffff198316901c601084901c7dffffffffffffffffffffffffffff00000000000000000000000000000000167fffff0000000000000000000000000000000000000000000000000000000000008616171790509392505050565b6000611d7a6121e0565b9050306001600160a01b03821603611d9e57611d998686868686612395565b611803565b6040517f390baae00000000000000000000000000000000000000000000000000000000081526001600160a01b0382169063390baae090611deb90899089908990899089906004016143eb565b600060405180830381600087803b158015611e0557600080fd5b505af1158015611e19573d6000803e3d6000fd5b50505050505050505050565b600080611e306121e0565b9050306001600160a01b03821603611e5657611e4e868686866123aa565b915050611140565b6040517f8c364d590000000000000000000000000000000000000000000000000000000081526001600160a01b03821690638c364d5990611ea1908990899089908990600401614432565b602060405180830381865afa158015611ebe573d6000803e3d6000fd5b505050506040513d601f19601f82011682018060405250810190611e4e9190614461565b60006104747f7462000000000000000000000000000000000000000000000000000000000000837f546f6b656e555249000000000000000000000000000000000000000000000000611cf9565b604080516001808252818301909252600091602080830190803683370190505090508260001b81600081518110611f6857611f686142bd565b602002602001018181525050611cf384826000856123d7565b6040805160018082528183019092526000918291829160208083019080368337019050509050837bffffffffffffffffffffffffffffffffffffffffffffffffffffffff191681600081518110611fda57611fda6142bd565b6020908102919091010152600080806120337f7462776f726c6400000000000000000046756e6374696f6e53656c6563746f72857e240200200400000000000000000000000000000000000000000000000000006119c8565b925092509250612044838383612488565b9550955050505050915091565b6060600061205d61192c565b90506001600160a01b038116300361209e57600061208561207c610ea3565b600087876124a0565b935090508061209757612097836125db565b5050610474565b6040517f3ae7af080000000000000000000000000000000000000000000000000000000081526001600160a01b03821690633ae7af08906120e590879087906004016141a2565b6000604051808303816000875af1158015612104573d6000803e3d6000fd5b505050506040513d6000823e601f3d908101601f191682016040526111409190810190614200565b6060888888888888888860405160200161214d98979695949392919061447a565b604051602081830303815290604052905098975050505050505050565b60006121746121e0565b9050306001600160a01b0382160361219357611d9986868686866125e3565b6040517f298314fb0000000000000000000000000000000000000000000000000000000081526001600160a01b0382169063298314fb90611deb90899089908990899089906004016144bf565b7f629a4c26e296b22a8e0856e9f6ecb2d1008d7e00081111962cd175fa7488e175546000906001600160a01b03168061221a573391505090565b919050565b6060600060606000612230856125f9565b905061223d87878361261c565b9350600061224a86612655565b9050801561231c5761225c8888612692565b935066ffffffffffffff841667ffffffffffffffff81111561228057612280613f6d565b6040519080825280601f01601f1916602001820160405280156122aa576020820181803683370190505b5092506020830160005b828160ff1610156123195760006122cc8b8b846126a5565b905060006122e9888460ff166028026038011c64ffffffffff1690565b90506122f88260008387612725565b612302818561424b565b93505050808061231190614510565b9150506122b4565b50505b505093509350939050565b600080600080600080600080612341896000016020015190565b60408a015160608b0151919950975060f81c600281111561236457612364613ec0565b60618a015160818b015160a18c015160c18d015160e1909d01519b9d9a9c939b929a91995097509195509350915050565b610a2d85856123a484876127f1565b85612822565b6000611c206123b98686612ac6565b60ff858116601b0360080285901c166123d285876127f1565b612b1c565b60006123e16121e0565b9050306001600160a01b03821603612404576123ff85858585612b6d565b610a2d565b6040517fef6ea8620000000000000000000000000000000000000000000000000000000081526001600160a01b0382169063ef6ea8629061244f90889088908890889060040161452f565b600060405180830381600087803b15801561246957600080fd5b505af115801561247d573d6000803e3d6000fd5b505050505050505050565b60008061249485612ba8565b90969095509350505050565b600060606000806124b086612bbd565b90925090506001600160a01b03821661250157856124cd87612c61565b6040517ffbf10ce60000000000000000000000000000000000000000000000000000000081526004016105249291906141a2565b80612510576125108689612d8f565b861561257c577dffffffffffffffffffffffffffff0000000000000000000000000000000086167f6e7300000000000000000000000000000000000000000000000000000000000017600061256482612ddb565b9050612579826125748b8461424b565b612e54565b50505b60006125888760101b90565b7fffffffffffffffffffffffffffff00000000000000000000000000000000000016146125c0576125bb88888488612ef0565b6125cc565b6125cc88888488612f68565b90999098509650505050505050565b805160208201fd5b610a2d85858585856125f48b612fc9565b61304e565b600060086126096002602061456e565b6126139190614581565b9190911c919050565b60608160000361263b5750604080516020810190915260008152610b89565b60006126478585612ac6565b9050611c2081600085613387565b600060086001806126686002602061456e565b612672919061456e565b61267c919061456e565b6126869190614581565b8260ff911c1692915050565b6000610b896126a184846133aa565b5490565b600083836040516020016126ba929190614598565b604051602081830303815290604052805190602001208260f81b7effffffffffffffffffffffffffffffffffffffffffffffffffffffffffffff19167f3b4102da22e32d82fc925482184f16c09fd4281692720b87d124aef6da48a0f1181860001c90509392505050565b82156127ac576020831061274f5760208304840193506020838161274b5761274b6145d4565b0692505b82156127ac5760208390036000818410156127725750600019600884021c61277c565b50600019600882021c5b8554600886021b81845116821982161784525081841161279d575050611cf3565b50600194909401939182900391015b5b602082106127ce5783548152600190930192601f19909101906020016127ad565b8115611cf3576000600019600884021c8251865482191691161782525050505050565b600080805b8360ff168110156106f45761281860ff601b83900360080287901c168361424b565b91506001016127f6565b7f6f74000000000000000000000000000000000000000000000000000000000000847fffff00000000000000000000000000000000000000000000000000000000000016036128ac57837f8c0b5119d4cec7b284c6b1b39252a03d1e2f2d7451a5895562524c113bb952be84848460405161289f939291906145ea565b60405180910390a2611cf3565b60006128b88585612ac6565b905060006128c586613400565b905060005b815181101561299a5760008282815181106128e7576128e76142bd565b602002602001015190506129136004826affffffffffffffffffffff191661348990919063ffffffff16565b15612991576040517f964f667d000000000000000000000000000000000000000000000000000000008152606082901c9063964f667d9061295e908b908b908b908b9060040161461d565b600060405180830381600087803b15801561297857600080fd5b505af115801561298c573d6000803e3d6000fd5b505050505b506001016128ca565b50857f8c0b5119d4cec7b284c6b1b39252a03d1e2f2d7451a5895562524c113bb952be8686866040516129cf939291906145ea565b60405180910390a26129ea828565ffffffffffff16856134a7565b60005b8151811015612abd576000828281518110612a0a57612a0a6142bd565b60200260200101519050612a366008826affffffffffffffffffffff191661348990919063ffffffff16565b15612ab4576040517fa8ba8721000000000000000000000000000000000000000000000000000000008152606082901c9063a8ba872190612a81908b908b908b908b9060040161461d565b600060405180830381600087803b158015612a9b57600080fd5b505af1158015612aaf573d6000803e3d6000fd5b505050505b506001016129ed565b50505050505050565b60008282604051602001612adb929190614598565b60408051601f1981840301815291905280516020909101207f86425bff6b57326c7859e89024fe4f238ca327a1ae4a230180dd2f0e88aaa7d9189392505050565b600060208210612b4257602082048401935060208281612b3e57612b3e6145d4565b0691505b508254600882021b6020829003808411156106f4576001850154600882021c82179150509392505050565b6000612b798585612692565b90506000612b96828560ff166028026038011c64ffffffffff1690565b905061180386868660008588886134bd565b602081015160408201516000905b9050915091565b60408051600180825281830190925260009182918291602080830190803683370190505090508381600081518110612bf757612bf76142bd565b602090810291909101015260008080612c507f7462776f726c6400000000000000000053797374656d73000000000000000000857e1502001401000000000000000000000000000000000000000000000000000061221f565b9250925092506120448383836138f7565b606081601081901b6000612c7483613903565b9050827fffffffffffffffffffffffffffff000000000000000000000000000000000000831615612ccf57612cca7fffffffffffffffffffffffffffff000000000000000000000000000000000000841661391a565b612d06565b6040518060400160405280600681526020017f3c726f6f743e00000000000000000000000000000000000000000000000000008152505b6fffffffffffffffffffffffffffffffff19831615612d2d57612d288361391a565b612d64565b6040518060400160405280600681526020017f3c726f6f743e00000000000000000000000000000000000000000000000000008152505b604051602001612d7693929190614656565b6040516020818303038152906040529350505050919050565b612d9982826139a0565b610bfd57612da682612c61565b816040517fd787b7370000000000000000000000000000000000000000000000000000000081526004016105249291906146e4565b604080516001808252818301909252600091829190602080830190803683370190505090508281600081518110612e1457612e146142bd565b602090810291909101015260006111407f7462776f726c6400000000000000000042616c616e63657300000000000000008383630100080160dd1b6123aa565b604080516001808252818301909252600091602080830190803683370190505090508281600081518110612e8a57612e8a6142bd565b60200260200101818152505061101f7f7462776f726c6400000000000000000042616c616e636573000000000000000060001b82600085604051602001612ed391815260200190565b60408051601f19818403018152919052630100080160dd1b612395565b60006060836001600160a01b03166000612f0b8589896139fe565b604051612f18919061470f565b60006040518083038185875af1925050503d8060008114612f55576040519150601f19603f3d011682016040523d82523d6000602084013e612f5a565b606091505b509097909650945050505050565b60006060836001600160a01b0316612f818488886139fe565b604051612f8e919061470f565b600060405180830381855af49150503d8060008114612f55576040519150601f19603f3d011682016040523d82523d6000602084013e612f5a565b60007f8b9d8c8b908d9affffffffffffffffffab9e9d939a8d00000000000000000000820161301857507e60030220202000000000000000000000000000000000000000000000000000919050565b6104746130457f746273746f72650000000000000000005461626c65730000000000000000000084613a2d565b60206000612b1c565b7f6f74000000000000000000000000000000000000000000000000000000000000867fffff00000000000000000000000000000000000000000000000000000000000016036130da57857f8dbb3a9672eebfd3773e72dd9c102393436816d832c7ba9e1e1ac8fcadcac7a9868686866040516130cd949392919061472b565b60405180910390a2611803565b60006130e587613400565b905060005b81518110156131be576000828281518110613107576131076142bd565b602002602001015190506131336001826affffffffffffffffffffff191661348990919063ffffffff16565b156131b5576040517f57066c9c000000000000000000000000000000000000000000000000000000008152606082901c906357066c9c90613182908c908c908c908c908c908c9060040161476a565b600060405180830381600087803b15801561319c57600080fd5b505af11580156131b0573d6000803e3d6000fd5b505050505b506001016130ea565b50867f8dbb3a9672eebfd3773e72dd9c102393436816d832c7ba9e1e1ac8fcadcac7a9878787876040516131f5949392919061472b565b60405180910390a260006132098888612ac6565b90506000602087019050613221826000895184613a49565b600061322c85612655565b11156132b057600061323e8a8a6133aa565b878155905060208601915060008060005b61325888612655565b8160ff1610156132ab5761326d8d8d836126a5565b92506132888a8260ff166028026038011c64ffffffffff1690565b91506132978360008488613a49565b6132a1828661424b565b945060010161324f565b505050505b60005b8351811015611e195760008482815181106132d0576132d06142bd565b602002602001015190506132fc6002826affffffffffffffffffffff191661348990919063ffffffff16565b1561337e576040517f5b28cdaf000000000000000000000000000000000000000000000000000000008152606082901c90635b28cdaf9061334b908e908e908e908e908e908e9060040161476a565b600060405180830381600087803b15801561336557600080fd5b505af1158015613379573d6000803e3d6000fd5b505050505b506001016132b3565b60405160208101601f19603f84840101166040528282526106f485858584612725565b600082826040516020016133bf929190614598565b60408051601f1981840301815291905280516020909101207f14e2fcc58e58e68ec7edc30c8d50dccc3ce2714a623ec81f46b6a63922d76569189392505050565b6040805160018082528183019092526060916000919060208083019080368337019050509050828160008151811061343a5761343a6142bd565b602090810291909101015260006134727f746273746f726500000000000000000053746f7265486f6f6b730000000000008383613b08565b90506111406134848260008451613b42565b613bd0565b60008160ff168261349a8560581c90565b1660ff1614905092915050565b61101f838383516134b88560200190565b613a49565b7f7462000000000000000000000000000000000000000000000000000000000000877fffff000000000000000000000000000000000000000000000000000000000000161461357d577f7462000000000000000000000000000000000000000000000000000000000000878860405160200161353b91815260200190565b60408051601f19818403018152908290527f31b466830000000000000000000000000000000000000000000000000000000082526105249392916004016147c3565b6000613598828760ff166028026038011c64ffffffffff1690565b9050600083518564ffffffffff16836135b1919061456e565b6135bb919061424b565b90508082141580156135dd5750816135d38688614804565b64ffffffffff1614155b1561362d576040517fa65010b400000000000000000000000000000000000000000000000000000000815264ffffffffff8088166004830152808716602483015283166044820152606401610524565b818664ffffffffff16111561367e576040517f7e8578d30000000000000000000000000000000000000000000000000000000081526004810183905264ffffffffff87166024820152604401610524565b600061368b848984613be1565b905060006136988b613400565b905060005b81518110156137635760008282815181106136ba576136ba6142bd565b602002602001015190506136e66010826affffffffffffffffffffff191661348990919063ffffffff16565b1561375a57606081901c6001600160a01b03166355eb5a288e8e8e8e8e8d8f6040518863ffffffff1660e01b81526004016137279796959493929190614829565b600060405180830381600087803b15801561374157600080fd5b505af1158015613755573d6000803e3d6000fd5b505050505b5060010161369d565b5064ffffffffff881660005b8a60ff168160ff1610156137a257613796878260ff166028026038011c64ffffffffff1690565b9091019060010161376f565b508b7ffe158a7adba34e256807c8a149028d3162918713c3838afc643ce9f96716ebfd8c8c848c888d6040516137dd96959493929190614887565b60405180910390a2508284146137fe5760006137f98c8c6133aa565b839055505b600061380b8c8c8c6126a5565b905061381f818a64ffffffffff16896134a7565b5060005b81518110156138e9576000828281518110613840576138406142bd565b6020026020010151905061386c6020826affffffffffffffffffffff191661348990919063ffffffff16565b156138e057606081901c6001600160a01b031663635845338e8e8e8e8e8a8f6040518863ffffffff1660e01b81526004016138ad9796959493929190614829565b600060405180830381600087803b1580156138c757600080fd5b505af11580156138db573d6000803e3d6000fd5b505050505b50600101613823565b505050505050505050505050565b60008061249485613caf565b60006139116070601061424b565b9190911b919050565b606060005b6010811015613970576fffffffffffffffffffffffffffffffff198316600882021b7fff0000000000000000000000000000000000000000000000000000000000000016156139705760010161391f565b604080516fffffffffffffffffffffffffffffffff19851660208201528151603090910190915281815280611140565b60006139ee7f6e730000000000000000000000000000000000000000000000000000000000007dffffffffffffffffffffffffffff0000000000000000000000000000000085161783613ccb565b80610b895750610b898383613ccb565b6060838383604051602001613a15939291906148e3565b60405160208183030381529060405290509392505050565b6040805160208101849052908101829052600090606001612adb565b8215613ac35760208310613a7357602083048401935060208381613a6f57613a6f6145d4565b0692505b8215613ac35760208390036000600019600885021c1990506008850281811c91508351811c9050811987541682821617875550818411613ab4575050611cf3565b50600194909401939182900391015b5b60208210613ae55780518455600190930192601f1990910190602001613ac4565b8115611cf3576000600019600884021c8554835182191691161785555050505050565b6060611140613b188585856126a5565b6000613b3d85613b288989612692565b9060ff166028026038011c64ffffffffff1690565b613387565b600081831180613b525750835182115b15613b8f578383836040517f23230fa300000000000000000000000000000000000000000000000000000000815260040161052493929190614922565b60208401613b9d848261424b565b90506000613bab858561456e565b6fffffffffffffffffffffffffffffffff1660809290921b9190911795945050505050565b60606000610b898360156000613d94565b600064ffffffffff821115613c25576040517f7149a3c100000000000000000000000000000000000000000000000000000000815260048101839052602401610524565b8366ffffffffffffff811660ff851660280260380182901c64ffffffffff16808510613c575780850382019150613c5f565b848103820391505b5064ffffffffff6038602860ff8816020181811b197fffffffffffffffffffffffffffffffffffffffffffffffffff000000000000009490941690921792909216918416901b1790509392505050565b6020810151603482015160609190911c9060009060f81c612bb6565b604080516002808252606082018352600092839291906020830190803683370190505090508381600081518110613d0457613d046142bd565b602002602001018181525050826001600160a01b031660001b81600181518110613d3057613d306142bd565b60209081029190910101526000613d887f7462776f726c640000000000000000005265736f75726365416363657373000083837e010100010000000000000000000000000000000000000000000000000000006123aa565b9050611c208160f81c90565b60606000613da28560801c90565b90506fffffffffffffffffffffffffffffffff85166000858281613dc857613dc86145d4565b04905060405193506020840160208202810160405281855260005b82811015613e03578451871c825293870193602090910190600101613de3565b50505050509392505050565b604051806101000160405280600081526020016000815260200160006002811115613e3c57613e3c613ec0565b815260200160008152602001600081526020016000815260200160008152602001600081525090565b600060208284031215613e7757600080fd5b5035919050565b600060208284031215613e9057600080fd5b81357fffffffff0000000000000000000000000000000000000000000000000000000081168114610b8957600080fd5b634e487b7160e01b600052602160045260246000fd5b60038110613ef457634e487b7160e01b600052602160045260246000fd5b50565b81518152602080830151908201526040820151610100820190613f1981613ed6565b80604084015250606083015160608301526080830151608083015260a083015160a083015260c083015160c083015260e083015160e083015292915050565b6001600160a01b0381168114613ef457600080fd5b634e487b7160e01b600052604160045260246000fd5b604051601f8201601f1916810167ffffffffffffffff81118282101715613fac57613fac613f6d565b604052919050565b600067ffffffffffffffff821115613fce57613fce613f6d565b50601f01601f191660200190565b600082601f830112613fed57600080fd5b8135614000613ffb82613fb4565b613f83565b81815284602083860101111561401557600080fd5b816020850160208301376000918101602001919091529392505050565b60008060006060848603121561404757600080fd5b833561405281613f58565b925060208401359150604084013567ffffffffffffffff81111561407557600080fd5b61408186828701613fdc565b9150509250925092565b6020810161409883613ed6565b91905290565b6000806000606084860312156140b357600080fd5b83359250602084013591506040840135600381106140d057600080fd5b809150509250925092565b600080604083850312156140ee57600080fd5b82359150602083013561410081613f58565b809150509250929050565b6000806040838503121561411e57600080fd5b82359150602083013567ffffffffffffffff81111561413c57600080fd5b61414885828601613fdc565b9150509250929050565b60005b8381101561416d578181015183820152602001614155565b50506000910152565b6000815180845261418e816020860160208601614152565b601f01601f19169290920160200192915050565b8281526040602082015260006111406040830184614176565b600082601f8301126141cc57600080fd5b81516141da613ffb82613fb4565b8181528460208386010111156141ef57600080fd5b611140826020830160208701614152565b60006020828403121561421257600080fd5b815167ffffffffffffffff81111561422957600080fd5b611140848285016141bb565b634e487b7160e01b600052601160045260246000fd5b8082018082111561047457610474614235565b6000600019820361427157614271614235565b5060010190565b60006020828403121561428a57600080fd5b8151610b8981613f58565b8381526142a183613ed6565b826020820152606060408201526000611c206060830184614176565b634e487b7160e01b600052603260045260246000fd5b6000815160208301517fffffffff000000000000000000000000000000000000000000000000000000008082169350600483101561431b5780818460040360031b1b83161693505b505050919050565b60008151808452602080850194506020840160005b8381101561435457815187529582019590820190600101614338565b509495945050505050565b8381526060602082015260006143786060830185614323565b9050826040830152949350505050565b60008060006060848603121561439d57600080fd5b835167ffffffffffffffff808211156143b557600080fd5b6143c1878388016141bb565b94506020860151935060408601519150808211156143de57600080fd5b50614081868287016141bb565b85815260a06020820152600061440460a0830187614323565b60ff86166040840152828103606084015261441f8186614176565b9150508260808301529695505050505050565b84815260806020820152600061444b6080830186614323565b60ff949094166040830152506060015292915050565b60006020828403121561447357600080fd5b5051919050565b88815287602082015261448c87613ed6565b60f89690961b604087015260418601949094526061850192909252608184015260a183015260c182015260e10192915050565b85815260a0602082015260006144d860a0830187614323565b82810360408401526144ea8187614176565b905084606084015282810360808401526145048185614176565b98975050505050505050565b600060ff821660ff810361452657614526614235565b60010192915050565b8481526080602082015260006145486080830186614323565b60ff8516604084015282810360608401526145638185614176565b979650505050505050565b8181038181111561047457610474614235565b808202811582820484141761047457610474614235565b8281526000602080830184516020860160005b828110156145c7578151845292840192908401906001016145ab565b5091979650505050505050565b634e487b7160e01b600052601260045260246000fd5b6060815260006145fd6060830186614323565b65ffffffffffff851660208401528281036040840152610e998185614176565b8481526080602082015260006146366080830186614323565b65ffffffffffff8516604084015282810360608401526145638185614176565b7fffff0000000000000000000000000000000000000000000000000000000000008416815260007f3a0000000000000000000000000000000000000000000000000000000000000080600284015284516146b7816003860160208901614152565b8084019050816003820152845191506146d7826004830160208801614152565b0160040195945050505050565b6040815260006146f76040830185614176565b90506001600160a01b03831660208301529392505050565b60008251614721818460208701614152565b9190910192915050565b60808152600061473e6080830187614323565b82810360208401526147508187614176565b905084604084015282810360608401526145638185614176565b86815260c06020820152600061478360c0830188614323565b82810360408401526147958188614176565b905085606084015282810360808401526147af8186614176565b9150508260a0830152979650505050505050565b7fffff00000000000000000000000000000000000000000000000000000000000084168152826020820152606060408201526000611c206060830184614176565b64ffffffffff81811683821601908082111561482257614822614235565b5092915050565b87815260e06020820152600061484260e0830189614323565b60ff8816604084015264ffffffffff87811660608501528616608084015260a0830185905282810360c08401526148798185614176565b9a9950505050505050505050565b60c08152600061489a60c0830189614323565b60ff8816602084015265ffffffffffff8716604084015264ffffffffff8616606084015284608084015282810360a08401526148d68185614176565b9998505050505050505050565b600084516148f5818460208901614152565b60609490941b6bffffffffffffffffffffffff191691909301908152601481019190915260340192915050565b6060815260006149356060830186614176565b6020830194909452506040015291905056fea26469706673582212208bf0402a6c2ba549908fd98c99c4100317435acc5044a1ee80b6eadd9527dfff64736f6c63430008180033","linkReferences":{}},"methodIdentifiers":{"_msgSender()":"119df25f","_msgValue()":"45ec9354","_world()":"e1af802c","enterGame(bytes32)":"c74dedc8","getCharacterTokenId(bytes32)":"f8c67561","getClass(bytes32)":"23801570","getCurrentAvailableLevel(uint256)":"1ecb393f","getExperience(bytes32)":"ebee03bb","getName(bytes32)":"54b8d5e3","getOwner(bytes32)":"deb931a2","getOwnerAddress(bytes32)":"00d43ec6","getPlayerEntityId(uint256)":"8338f0e0","getStats(bytes32)":"0bb700dc","isValidCharacterId(bytes32)":"623daa05","isValidOwner(bytes32,address)":"9b63ec05","mintCharacter(address,bytes32,string)":"143f3021","rollStats(bytes32,bytes32,uint8)":"679ee16d","supportsInterface(bytes4)":"01ffc9a7","updateTokenUri(bytes32,string)":"b27cbcbb"},"id":213}