{"abi":[{"type":"function","name":"_msgSender","inputs":[],"outputs":[{"name":"sender","type":"address","internalType":"address"}],"stateMutability":"view"},{"type":"function","name":"_msgValue","inputs":[],"outputs":[{"name":"value","type":"uint256","internalType":"uint256"}],"stateMutability":"pure"},{"type":"function","name":"_world","inputs":[],"outputs":[{"name":"","type":"address","internalType":"address"}],"stateMutability":"view"},{"type":"function","name":"enterGame","inputs":[{"name":"characterId","type":"bytes32","internalType":"bytes32"}],"outputs":[],"stateMutability":"nonpayable"},{"type":"function","name":"getCharacterTokenId","inputs":[{"name":"characterId","type":"bytes32","internalType":"bytes32"}],"outputs":[{"name":"","type":"uint256","internalType":"uint256"}],"stateMutability":"pure"},{"type":"function","name":"getClass","inputs":[{"name":"characterId","type":"bytes32","internalType":"bytes32"}],"outputs":[{"name":"_class","type":"uint8","internalType":"enum Classes"}],"stateMutability":"view"},{"type":"function","name":"getCurrentLevel","inputs":[{"name":"experience","type":"uint256","internalType":"uint256"}],"outputs":[{"name":"currentLevel","type":"uint256","internalType":"uint256"}],"stateMutability":"view"},{"type":"function","name":"getExperience","inputs":[{"name":"characterId","type":"bytes32","internalType":"bytes32"}],"outputs":[{"name":"","type":"uint256","internalType":"uint256"}],"stateMutability":"view"},{"type":"function","name":"getName","inputs":[{"name":"characterId","type":"bytes32","internalType":"bytes32"}],"outputs":[{"name":"_name","type":"bytes32","internalType":"bytes32"}],"stateMutability":"view"},{"type":"function","name":"getOwner","inputs":[{"name":"characterId","type":"bytes32","internalType":"bytes32"}],"outputs":[{"name":"","type":"address","internalType":"address"}],"stateMutability":"view"},{"type":"function","name":"getOwnerAddress","inputs":[{"name":"characterId","type":"bytes32","internalType":"bytes32"}],"outputs":[{"name":"","type":"address","internalType":"address"}],"stateMutability":"pure"},{"type":"function","name":"getPlayerEntityId","inputs":[{"name":"characterTokenId","type":"uint256","internalType":"uint256"}],"outputs":[{"name":"characterId","type":"bytes32","internalType":"bytes32"}],"stateMutability":"view"},{"type":"function","name":"getStats","inputs":[{"name":"characterId","type":"bytes32","internalType":"bytes32"}],"outputs":[{"name":"","type":"tuple","internalType":"struct StatsData","components":[{"name":"strength","type":"uint256","internalType":"uint256"},{"name":"agility","type":"uint256","internalType":"uint256"},{"name":"intelligence","type":"uint256","internalType":"uint256"},{"name":"maxHitPoints","type":"uint256","internalType":"uint256"},{"name":"currentDamage","type":"int256","internalType":"int256"},{"name":"experience","type":"uint256","internalType":"uint256"},{"name":"level","type":"uint256","internalType":"uint256"},{"name":"armor","type":"uint256","internalType":"uint256"}]}],"stateMutability":"view"},{"type":"function","name":"mintCharacter","inputs":[{"name":"account","type":"address","internalType":"address"},{"name":"name","type":"bytes32","internalType":"bytes32"},{"name":"tokenUri","type":"string","internalType":"string"}],"outputs":[{"name":"characterId","type":"bytes32","internalType":"bytes32"}],"stateMutability":"nonpayable"},{"type":"function","name":"rollStats","inputs":[{"name":"userRandomNumber","type":"bytes32","internalType":"bytes32"},{"name":"characterId","type":"bytes32","internalType":"bytes32"},{"name":"class","type":"uint8","internalType":"enum Classes"}],"outputs":[],"stateMutability":"payable"},{"type":"function","name":"supportsInterface","inputs":[{"name":"interfaceId","type":"bytes4","internalType":"bytes4"}],"outputs":[{"name":"","type":"bool","internalType":"bool"}],"stateMutability":"pure"},{"type":"event","name":"Store_SpliceDynamicData","inputs":[{"name":"tableId","type":"bytes32","indexed":true,"internalType":"ResourceId"},{"name":"keyTuple","type":"bytes32[]","indexed":false,"internalType":"bytes32[]"},{"name":"dynamicFieldIndex","type":"uint8","indexed":false,"internalType":"uint8"},{"name":"start","type":"uint48","indexed":false,"internalType":"uint48"},{"name":"deleteCount","type":"uint40","indexed":false,"internalType":"uint40"},{"name":"encodedLengths","type":"bytes32","indexed":false,"internalType":"EncodedLengths"},{"name":"data","type":"bytes","indexed":false,"internalType":"bytes"}],"anonymous":false},{"type":"event","name":"Store_SpliceStaticData","inputs":[{"name":"tableId","type":"bytes32","indexed":true,"internalType":"ResourceId"},{"name":"keyTuple","type":"bytes32[]","indexed":false,"internalType":"bytes32[]"},{"name":"start","type":"uint48","indexed":false,"internalType":"uint48"},{"name":"data","type":"bytes","indexed":false,"internalType":"bytes"}],"anonymous":false},{"type":"error","name":"EncodedLengths_InvalidLength","inputs":[{"name":"length","type":"uint256","internalType":"uint256"}]},{"type":"error","name":"Slice_OutOfBounds","inputs":[{"name":"data","type":"bytes","internalType":"bytes"},{"name":"start","type":"uint256","internalType":"uint256"},{"name":"end","type":"uint256","internalType":"uint256"}]},{"type":"error","name":"Store_IndexOutOfBounds","inputs":[{"name":"length","type":"uint256","internalType":"uint256"},{"name":"accessedIndex","type":"uint256","internalType":"uint256"}]},{"type":"error","name":"Store_InvalidResourceType","inputs":[{"name":"expected","type":"bytes2","internalType":"bytes2"},{"name":"resourceId","type":"bytes32","internalType":"ResourceId"},{"name":"resourceIdString","type":"string","internalType":"string"}]},{"type":"error","name":"Store_InvalidSplice","inputs":[{"name":"startWithinField","type":"uint40","internalType":"uint40"},{"name":"deleteCount","type":"uint40","internalType":"uint40"},{"name":"fieldLength","type":"uint40","internalType":"uint40"}]},{"type":"error","name":"World_AccessDenied","inputs":[{"name":"resource","type":"string","internalType":"string"},{"name":"caller","type":"address","internalType":"address"}]},{"type":"error","name":"World_FunctionSelectorNotFound","inputs":[{"name":"functionSelector","type":"bytes4","internalType":"bytes4"}]},{"type":"error","name":"World_ResourceNotFound","inputs":[{"name":"resourceId","type":"bytes32","internalType":"ResourceId"},{"name":"resourceIdString","type":"string","internalType":"string"}]}],"bytecode":{"object":"0x608060405234801561001057600080fd5b50613e22806100206000396000f3fe6080604052600436106100f25760003560e01c806354b8d5e31161008a578063deb931a211610059578063deb931a214610303578063e1af802c14610323578063ebee03bb14610338578063f8c675611461035857600080fd5b806354b8d5e31461028e578063679ee16d146102ae5780638338f0e0146102c3578063c74dedc8146102e357600080fd5b8063143f3021116100c6578063143f3021146101fb57806323801570146102295780633d0854ae1461025657806345ec93541461027657600080fd5b8062d43ec6146100f757806301ffc9a7146101355780630bb700dc14610165578063119df25f146101e6575b600080fd5b34801561010357600080fd5b5061011861011236600461351c565b60601c90565b6040516001600160a01b0390911681526020015b60405180910390f35b34801561014157600080fd5b50610155610150366004613535565b610384565b604051901515815260200161012c565b34801561017157600080fd5b5061018561018036600461351c565b61041d565b60405161012c9190600061010082019050825182526020830151602083015260408301516040830152606083015160608301526080830151608083015260a083015160a083015260c083015160c083015260e083015160e083015292915050565b3480156101f257600080fd5b5061011861046e565b34801561020757600080fd5b5061021b6102163660046135fb565b61047d565b60405190815260200161012c565b34801561023557600080fd5b5061024961024436600461351c565b6106d5565b60405161012c91906136cb565b34801561026257600080fd5b5061021b61027136600461351c565b6106e0565b34801561028257600080fd5b5036601f19013561021b565b34801561029a57600080fd5b5061021b6102a936600461351c565b61075e565b6102c16102bc3660046136de565b610769565b005b3480156102cf57600080fd5b5061021b6102de36600461351c565b6108e1565b3480156102ef57600080fd5b506102c16102fe36600461351c565b610976565b34801561030f57600080fd5b5061011861031e36600461351c565b610aa8565b34801561032f57600080fd5b50610118610ab3565b34801561034457600080fd5b5061021b61035336600461351c565b610abd565b34801561036457600080fd5b5061021b61037336600461351c565b6bffffffffffffffffffffffff1690565b60007fffffffff0000000000000000000000000000000000000000000000000000000082167fb5dee12700000000000000000000000000000000000000000000000000000000148061041757507fffffffff0000000000000000000000000000000000000000000000000000000082167f01ffc9a700000000000000000000000000000000000000000000000000000000145b92915050565b61046560405180610100016040528060008152602001600081526020016000815260200160008152602001600081526020016000815260200160008152602001600081525090565b61041782610ac8565b6000610478610bbb565b905090565b600080610488610bed565b90506bffffffffffffffffffffffff81106105105760405162461bcd60e51b815260206004820152602360248201527f43484152414341544552533a204d61782063686172616374657273207265616360448201527f686564000000000000000000000000000000000000000000000000000000000060648201526084015b60405180910390fd5b610518610ab3565b6001600160a01b0316633ae7af0861054f7f4368617261637465727300000000000000000000000000000000000000000000610c20565b6040516001600160a01b03891660248201526044810185905260640160408051601f198184030181529181526020820180517bffffffffffffffffffffffffffffffffffffffffffffffffffffffff167f40c10f1900000000000000000000000000000000000000000000000000000000179052517fffffffff0000000000000000000000000000000000000000000000000000000060e085901b1681526105fb92919060040161376b565b6000604051808303816000875af115801561061a573d6000803e3d6000fd5b505050506040513d6000823e601f3d908101601f1916820160405261064291908101906137c9565b5061064c816108e1565b91506106588286610c6d565b61066184610d27565b156106ae5760405162461bcd60e51b815260206004820152601360248201527f4e616d6520616c726561647920657869737473000000000000000000000000006044820152606401610507565b6106b9846001610dcc565b6106c38285610e85565b6106cd8184610f04565b509392505050565b600061041782610f3b565b60006106ec6013610fd0565b82106106fa57506014919050565b60005b6014811015610758578261071082610fd0565b1115801561072f57508261072d610728836001613814565b610fd0565b115b156107465761073f816001613814565b9150610758565b8061075081613827565b9150506106fd565b50919050565b60006104178261104c565b610772826110c9565b156107e55760405162461bcd60e51b815260206004820152602b60248201527f434841524143544552533a2063686172616374657220616c726561647920696e60448201527f2067616d6520776f726c640000000000000000000000000000000000000000006064820152608401610507565b6107ee82611146565b61083a5760405162461bcd60e51b815260206004820152601360248201527f4e6f7420796f7572204368617261637465722e000000000000000000000000006044820152606401610507565b60006108468383611172565b6108da84828560405160200161085e91815260200190565b60408051601f198184030181529082905261087d939291602401613841565b60408051601f198184030181529190526020810180517bffffffffffffffffffffffffffffffffffffffffffffffffffffffff167fb2aa60a400000000000000000000000000000000000000000000000000000000179052611227565b5050505050565b6000806108ec6112d5565b6001600160a01b0316636352211e846040518263ffffffff1660e01b815260040161091991815260200190565b602060405180830381865afa158015610936573d6000803e3d6000fd5b505050506040513d601f19601f8201168201806040525081019061095a9190613869565b60601b6bffffffffffffffffffffffff19169290921792915050565b61097f81611146565b6109cb5760405162461bcd60e51b815260206004820152601260248201527f6e6f7420796f75722063686172616374657200000000000000000000000000006044820152606401610507565b6109d4816110c9565b15610a215760405162461bcd60e51b815260206004820152601960248201527f796f75206861766520656e7465726564207468652067616d65000000000000006044820152606401610507565b610a3381674563918244f400006112df565b610a3b610ab3565b6001600160a01b031663f9d175ed826040518263ffffffff1660e01b8152600401610a6891815260200190565b600060405180830381600087803b158015610a8257600080fd5b505af1158015610a96573d6000803e3d6000fd5b50505050610aa581600161137a565b50565b6000610417826113fe565b6000610478611485565b60006104178261148f565b610b1060405180610100016040528060008152602001600081526020016000815260200160008152602001600081526020016000815260200160008152602001600081525090565b604080516001808252818301909252600091602080830190803683370190505090508281600081518110610b4657610b46613886565b602090810291909101015260008080610ba07f7462554400000000000000000000000053746174730000000000000000000000857f0100080020202020202020200000000000000000000000000000000000000000611522565b925092509250610bb18383836115f2565b9695505050505050565b7fffffffffffffffffffffffffffffffffffffffffffffffffffffffffffffffcc36013560601c80610bea5750335b90565b600080610bf861166f565b90506000610c078260006116d7565b610c12906001613814565b905061041782600083611788565b60006104177f7379000000000000000000000000000000000000000000000000000000000000837f45524337323153797374656d0000000000000000000000000000000000000000611858565b604080516001808252818301909252600091602080830190803683370190505090508281600081518110610ca357610ca3613886565b602002602001018181525050610d227f746255440000000000000000000000004368617261637465727300000000000060001b82600085604051602001610d02919060609190911b6bffffffffffffffffffffffff1916815260140190565b60408051601f19818403018152919052663604001401200160c01b6118d0565b505050565b604080516001808252818301909252600091829190602080830190803683370190505090508281600081518110610d6057610d60613886565b60209081029190910101526000610db87f746255440000000000000000000000004e616d6545786973747300000000000083837e01010001000000000000000000000000000000000000000000000000000000611985565b9050610dc48160f81c90565b949350505050565b604080516001808252818301909252600091602080830190803683370190505090508281600081518110610e0257610e02613886565b602002602001018181525050610d227f746255440000000000000000000000004e616d6545786973747300000000000060001b82600085604051602001610e5091151560f81b815260010190565b60408051601f198184030181529190527e010100010000000000000000000000000000000000000000000000000000006118d0565b604080516001808252818301909252600091602080830190803683370190505090508281600081518110610ebb57610ebb613886565b602002602001018181525050610d227f746255440000000000000000000000004368617261637465727300000000000060001b82600285604051602001610d0291815260200190565b610f37610f307f4368617261637465727300000000000000000000000000000000000000000000611a42565b8383611a8f565b5050565b604080516001808252818301909252600091829190602080830190803683370190505090508281600081518110610f7457610f74613886565b60209081029190910101526000610fb87f7462554400000000000000000000000043686172616374657273000000000000836001663604001401200160c01b611985565b905060f881901c6002811115610dc457610dc4613697565b604080516001808252818301909252600091829190602080830190803683370190505090508260001b8160008151811061100c5761100c613886565b60209081029190910101526000610dc47f746255440000000000000000000000004c6576656c73000000000000000000008383630100080160dd1b611985565b60408051600180825281830190925260009182919060208083019080368337019050509050828160008151811061108557611085613886565b60209081029190910101526000610dc47f7462554400000000000000000000000043686172616374657273000000000000836002663604001401200160c01b611985565b60408051600180825281830190925260009182919060208083019080368337019050509050828160008151811061110257611102613886565b60209081029190910101526000610db87f7462554400000000000000000000000043686172616374657273000000000000836003663604001401200160c01b611985565b6000611151826113fe565b6001600160a01b031661116261046e565b6001600160a01b03161492915050565b6040805160018082528183019092526000916020808301908036833701905050905082816000815181106111a8576111a8613886565b6020908102919091010152610d227f74625544000000000000000000000000436861726163746572730000000000008260018560028111156111ec576111ec613697565b604051602001610d02919060f89190911b7fff0000000000000000000000000000000000000000000000000000000000000016815260010190565b606060008061123d6112388561389c565b611ae1565b91509150816000801b036112a3576040517ffdde54e20000000000000000000000000000000000000000000000000000000081527fffffffff00000000000000000000000000000000000000000000000000000000600035166004820152602401610507565b6020840180517bffffffffffffffffffffffffffffffffffffffffffffffffffffffff1682179052610dc48285611bb1565b600061047861166f565b6112e7611c8c565b6001600160a01b03166340c10f196112fe84610aa8565b6040517fffffffff0000000000000000000000000000000000000000000000000000000060e084901b1681526001600160a01b03909116600482015260248101849052604401600060405180830381600087803b15801561135e57600080fd5b505af1158015611372573d6000803e3d6000fd5b505050505050565b6040805160018082528183019092526000916020808301908036833701905050905082816000815181106113b0576113b0613886565b602002602001018181525050610d227f746255440000000000000000000000004368617261637465727300000000000060001b82600385604051602001610d0291151560f81b815260010190565b60408051600180825281830190925260009182919060208083019080368337019050509050828160008151811061143757611437613886565b6020908102919091010152600061147a7f74625544000000000000000000000000436861726163746572730000000000008383663604001401200160c01b611985565b60601c949350505050565b6000610478611c96565b6040805160018082528183019092526000918291906020808301908036833701905050905082816000815181106114c8576114c8613886565b60209081029190910101526000610dc47f74625544000000000000000000000000537461747300000000000000000000008360057f0100080020202020202020200000000000000000000000000000000000000000611985565b6060600060606000611532611c96565b9050306001600160a01b0382160361155b5761154f878787611cd5565b935093509350506115e9565b6040517f419b58fd0000000000000000000000000000000000000000000000000000000081526001600160a01b0382169063419b58fd906115a4908a908a908a90600401613928565b600060405180830381865afa1580156115c1573d6000803e3d6000fd5b505050506040513d6000823e601f3d908101601f1916820160405261154f9190810190613951565b93509350939050565b61163a60405180610100016040528060008152602001600081526020016000815260200160008152602001600081526020016000815260200160008152602001600081525090565b61164384611ddd565b60e089015260c088015260a0870152608086015260608501526040840152602083015281529392505050565b6040805160008082526020820190925260006116cd7f74625544000000000000000000000000556c74696d617465446f6d696e696f6e8360027e65060001141414141400000000000000000000000000000000000000000000611985565b60601c9392505050565b60408051600280825260608201835260009283929190602083019080368337019050509050836001600160a01b031660001b8160008151811061171c5761171c613886565b6020026020010181815250508260001b8160018151811061173f5761173f613886565b6020908102919091010152600061177f7f74625544000000000000000000000000436f756e7465727300000000000000008383630100080160dd1b611985565b95945050505050565b604080516002808252606082018352600092602083019080368337019050509050836001600160a01b031660001b816000815181106117c9576117c9613886565b6020026020010181815250508260001b816001815181106117ec576117ec613886565b6020026020010181815250506118527f74625544000000000000000000000000436f756e74657273000000000000000060001b8260008560405160200161183591815260200190565b60408051601f19818403018152919052630100080160dd1b6118d0565b50505050565b600061186660706010613814565b6fffffffffffffffffffffffffffffffff198316901c601084901c7dffffffffffffffffffffffffffff00000000000000000000000000000000167fffff0000000000000000000000000000000000000000000000000000000000008616171790505b9392505050565b60006118da611c96565b9050306001600160a01b038216036118fe576118f98686868686611e34565b611372565b6040517f390baae00000000000000000000000000000000000000000000000000000000081526001600160a01b0382169063390baae09061194b90899089908990899089906004016139be565b600060405180830381600087803b15801561196557600080fd5b505af1158015611979573d6000803e3d6000fd5b50505050505050505050565b600080611990611c96565b9050306001600160a01b038216036119b6576119ae86868686611e49565b915050610dc4565b6040517f8c364d590000000000000000000000000000000000000000000000000000000081526001600160a01b03821690638c364d5990611a01908990899089908990600401613a05565b602060405180830381865afa158015611a1e573d6000803e3d6000fd5b505050506040513d601f19601f820116820180604052508101906119ae9190613a34565b60006104177f7462000000000000000000000000000000000000000000000000000000000000837f546f6b656e555249000000000000000000000000000000000000000000000000611858565b604080516001808252818301909252600091602080830190803683370190505090508260001b81600081518110611ac857611ac8613886565b6020026020010181815250506118528482600085611e76565b6040805160018082528183019092526000918291829160208083019080368337019050509050837bffffffffffffffffffffffffffffffffffffffffffffffffffffffff191681600081518110611b3a57611b3a613886565b602090810291909101015260008080611b937f7462776f726c6400000000000000000046756e6374696f6e53656c6563746f72857e24020020040000000000000000000000000000000000000000000000000000611522565b925092509250611ba4838383611f27565b9550955050505050915091565b60606000611bbd611485565b90506001600160a01b0381163003611bfe576000611be5611bdc610bbb565b60008787611f3f565b9350905080611bf757611bf78361207a565b5050610417565b6040517f3ae7af080000000000000000000000000000000000000000000000000000000081526001600160a01b03821690633ae7af0890611c45908790879060040161376b565b6000604051808303816000875af1158015611c64573d6000803e3d6000fd5b505050506040513d6000823e601f3d908101601f19168201604052610dc491908101906137c9565b6000610478612082565b7f629a4c26e296b22a8e0856e9f6ecb2d1008d7e00081111962cd175fa7488e175546000906001600160a01b031680611cd0573391505090565b919050565b6060600060606000611ce6856120e0565b9050611cf3878783612103565b93506000611d008661213c565b90508015611dd257611d128888612179565b935066ffffffffffffff841667ffffffffffffffff811115611d3657611d3661358c565b6040519080825280601f01601f191660200182016040528015611d60576020820181803683370190505b5092506020830160005b828160ff161015611dcf576000611d828b8b8461218c565b90506000611d9f888460ff166028026038011c64ffffffffff1690565b9050611dae826000838761220c565b611db88185613814565b935050508080611dc790613a4d565b915050611d6a565b50505b505093509350939050565b600080600080600080600080611df7896000016020015190565b60408a015160608b015160808c015160a08d015160c08e015160e08f0151610100909f0151959f949e939d50919b50995097509550909350915050565b6108da8585611e4384876122d8565b85612309565b600061177f611e5886866125ad565b60ff858116601b0360080285901c16611e7185876122d8565b612603565b6000611e80611c96565b9050306001600160a01b03821603611ea357611e9e85858585612654565b6108da565b6040517fef6ea8620000000000000000000000000000000000000000000000000000000081526001600160a01b0382169063ef6ea86290611eee908890889088908890600401613a6c565b600060405180830381600087803b158015611f0857600080fd5b505af1158015611f1c573d6000803e3d6000fd5b505050505050505050565b600080611f338561268f565b90969095509350505050565b60006060600080611f4f866126a4565b90925090506001600160a01b038216611fa05785611f6c87612748565b6040517ffbf10ce600000000000000000000000000000000000000000000000000000000815260040161050792919061376b565b80611faf57611faf8689612876565b861561201b577dffffffffffffffffffffffffffff0000000000000000000000000000000086167f6e73000000000000000000000000000000000000000000000000000000000000176000612003826128c2565b9050612018826120138b84613814565b61293b565b50505b60006120278760101b90565b7fffffffffffffffffffffffffffff000000000000000000000000000000000000161461205f5761205a888884886129d7565b61206b565b61206b88888488612a4f565b90999098509650505050505050565b805160208201fd5b6040805160008082526020820190925260006116cd7f74625544000000000000000000000000556c74696d617465446f6d696e696f6e8360017e65060001141414141400000000000000000000000000000000000000000000611985565b600060086120f060026020613aab565b6120fa9190613abe565b9190911c919050565b60608160000361212257506040805160208101909152600081526118c9565b600061212e85856125ad565b905061177f81600085612ab0565b6000600860018061214f60026020613aab565b6121599190613aab565b6121639190613aab565b61216d9190613abe565b8260ff911c1692915050565b60006118c96121888484612ad3565b5490565b600083836040516020016121a1929190613ad5565b604051602081830303815290604052805190602001208260f81b7effffffffffffffffffffffffffffffffffffffffffffffffffffffffffffff19167f3b4102da22e32d82fc925482184f16c09fd4281692720b87d124aef6da48a0f1181860001c90509392505050565b821561229357602083106122365760208304840193506020838161223257612232613b11565b0692505b82156122935760208390036000818410156122595750600019600884021c612263565b50600019600882021c5b8554600886021b818451168219821617845250818411612284575050611852565b50600194909401939182900391015b5b602082106122b55783548152600190930192601f1990910190602001612294565b8115611852576000600019600884021c8251865482191691161782525050505050565b600080805b8360ff168110156106cd576122ff60ff601b83900360080287901c1683613814565b91506001016122dd565b7f6f74000000000000000000000000000000000000000000000000000000000000847fffff000000000000000000000000000000000000000000000000000000000000160361239357837f8c0b5119d4cec7b284c6b1b39252a03d1e2f2d7451a5895562524c113bb952be84848460405161238693929190613b27565b60405180910390a2611852565b600061239f85856125ad565b905060006123ac86612b29565b905060005b81518110156124815760008282815181106123ce576123ce613886565b602002602001015190506123fa6004826affffffffffffffffffffff1916612bb290919063ffffffff16565b15612478576040517f964f667d000000000000000000000000000000000000000000000000000000008152606082901c9063964f667d90612445908b908b908b908b90600401613b5a565b600060405180830381600087803b15801561245f57600080fd5b505af1158015612473573d6000803e3d6000fd5b505050505b506001016123b1565b50857f8c0b5119d4cec7b284c6b1b39252a03d1e2f2d7451a5895562524c113bb952be8686866040516124b693929190613b27565b60405180910390a26124d1828565ffffffffffff1685612bd0565b60005b81518110156125a45760008282815181106124f1576124f1613886565b6020026020010151905061251d6008826affffffffffffffffffffff1916612bb290919063ffffffff16565b1561259b576040517fa8ba8721000000000000000000000000000000000000000000000000000000008152606082901c9063a8ba872190612568908b908b908b908b90600401613b5a565b600060405180830381600087803b15801561258257600080fd5b505af1158015612596573d6000803e3d6000fd5b505050505b506001016124d4565b50505050505050565b600082826040516020016125c2929190613ad5565b60408051601f1981840301815291905280516020909101207f86425bff6b57326c7859e89024fe4f238ca327a1ae4a230180dd2f0e88aaa7d9189392505050565b6000602082106126295760208204840193506020828161262557612625613b11565b0691505b508254600882021b6020829003808411156106cd576001850154600882021c82179150509392505050565b60006126608585612179565b9050600061267d828560ff166028026038011c64ffffffffff1690565b90506113728686866000858888612be6565b602081015160408201516000905b9050915091565b604080516001808252818301909252600091829182916020808301908036833701905050905083816000815181106126de576126de613886565b6020908102919091010152600080806127377f7462776f726c6400000000000000000053797374656d73000000000000000000857e15020014010000000000000000000000000000000000000000000000000000611cd5565b925092509250611ba4838383613020565b606081601081901b600061275b8361302c565b9050827fffffffffffffffffffffffffffff0000000000000000000000000000000000008316156127b6576127b17fffffffffffffffffffffffffffff0000000000000000000000000000000000008416613043565b6127ed565b6040518060400160405280600681526020017f3c726f6f743e00000000000000000000000000000000000000000000000000008152505b6fffffffffffffffffffffffffffffffff198316156128145761280f83613043565b61284b565b6040518060400160405280600681526020017f3c726f6f743e00000000000000000000000000000000000000000000000000008152505b60405160200161285d93929190613b93565b6040516020818303038152906040529350505050919050565b61288082826130c9565b610f375761288d82612748565b816040517fd787b737000000000000000000000000000000000000000000000000000000008152600401610507929190613c21565b6040805160018082528183019092526000918291906020808301908036833701905050905082816000815181106128fb576128fb613886565b60209081029190910101526000610dc47f7462776f726c6400000000000000000042616c616e63657300000000000000008383630100080160dd1b611e49565b60408051600180825281830190925260009160208083019080368337019050509050828160008151811061297157612971613886565b602002602001018181525050610d227f7462776f726c6400000000000000000042616c616e636573000000000000000060001b826000856040516020016129ba91815260200190565b60408051601f19818403018152919052630100080160dd1b611e34565b60006060836001600160a01b031660006129f2858989613127565b6040516129ff9190613c4c565b60006040518083038185875af1925050503d8060008114612a3c576040519150601f19603f3d011682016040523d82523d6000602084013e612a41565b606091505b509097909650945050505050565b60006060836001600160a01b0316612a68848888613127565b604051612a759190613c4c565b600060405180830381855af49150503d8060008114612a3c576040519150601f19603f3d011682016040523d82523d6000602084013e612a41565b60405160208101601f19603f84840101166040528282526106cd8585858461220c565b60008282604051602001612ae8929190613ad5565b60408051601f1981840301815291905280516020909101207f14e2fcc58e58e68ec7edc30c8d50dccc3ce2714a623ec81f46b6a63922d76569189392505050565b60408051600180825281830190925260609160009190602080830190803683370190505090508281600081518110612b6357612b63613886565b60209081029190910101526000612b9b7f746273746f726500000000000000000053746f7265486f6f6b730000000000008383613156565b9050610dc4612bad8260008451613190565b61321e565b60008160ff1682612bc38560581c90565b1660ff1614905092915050565b610d2283838351612be18560200190565b61322f565b7f7462000000000000000000000000000000000000000000000000000000000000877fffff0000000000000000000000000000000000000000000000000000000000001614612ca6577f74620000000000000000000000000000000000000000000000000000000000008788604051602001612c6491815260200190565b60408051601f19818403018152908290527f31b46683000000000000000000000000000000000000000000000000000000008252610507939291600401613c68565b6000612cc1828760ff166028026038011c64ffffffffff1690565b9050600083518564ffffffffff1683612cda9190613aab565b612ce49190613814565b9050808214158015612d06575081612cfc8688613ca9565b64ffffffffff1614155b15612d56576040517fa65010b400000000000000000000000000000000000000000000000000000000815264ffffffffff8088166004830152808716602483015283166044820152606401610507565b818664ffffffffff161115612da7576040517f7e8578d30000000000000000000000000000000000000000000000000000000081526004810183905264ffffffffff87166024820152604401610507565b6000612db48489846132ee565b90506000612dc18b612b29565b905060005b8151811015612e8c576000828281518110612de357612de3613886565b60200260200101519050612e0f6010826affffffffffffffffffffff1916612bb290919063ffffffff16565b15612e8357606081901c6001600160a01b03166355eb5a288e8e8e8e8e8d8f6040518863ffffffff1660e01b8152600401612e509796959493929190613cce565b600060405180830381600087803b158015612e6a57600080fd5b505af1158015612e7e573d6000803e3d6000fd5b505050505b50600101612dc6565b5064ffffffffff881660005b8a60ff168160ff161015612ecb57612ebf878260ff166028026038011c64ffffffffff1690565b90910190600101612e98565b508b7ffe158a7adba34e256807c8a149028d3162918713c3838afc643ce9f96716ebfd8c8c848c888d604051612f0696959493929190613d2c565b60405180910390a250828414612f27576000612f228c8c612ad3565b839055505b6000612f348c8c8c61218c565b9050612f48818a64ffffffffff1689612bd0565b5060005b8151811015613012576000828281518110612f6957612f69613886565b60200260200101519050612f956020826affffffffffffffffffffff1916612bb290919063ffffffff16565b1561300957606081901c6001600160a01b031663635845338e8e8e8e8e8a8f6040518863ffffffff1660e01b8152600401612fd69796959493929190613cce565b600060405180830381600087803b158015612ff057600080fd5b505af1158015613004573d6000803e3d6000fd5b505050505b50600101612f4c565b505050505050505050505050565b600080611f33856133bc565b600061303a60706010613814565b9190911b919050565b606060005b6010811015613099576fffffffffffffffffffffffffffffffff198316600882021b7fff00000000000000000000000000000000000000000000000000000000000000161561309957600101613048565b604080516fffffffffffffffffffffffffffffffff19851660208201528151603090910190915281815280610dc4565b60006131177f6e730000000000000000000000000000000000000000000000000000000000007dffffffffffffffffffffffffffff00000000000000000000000000000000851617836133d8565b806118c957506118c983836133d8565b606083838360405160200161313e93929190613d88565b60405160208183030381529060405290509392505050565b6060610dc461316685858561218c565b600061318b856131768989612179565b9060ff166028026038011c64ffffffffff1690565b612ab0565b6000818311806131a05750835182115b156131dd578383836040517f23230fa300000000000000000000000000000000000000000000000000000000815260040161050793929190613dc7565b602084016131eb8482613814565b905060006131f98585613aab565b6fffffffffffffffffffffffffffffffff1660809290921b9190911795945050505050565b606060006118c983601560006134a1565b82156132a957602083106132595760208304840193506020838161325557613255613b11565b0692505b82156132a95760208390036000600019600885021c1990506008850281811c91508351811c905081198754168282161787555081841161329a575050611852565b50600194909401939182900391015b5b602082106132cb5780518455600190930192601f19909101906020016132aa565b8115611852576000600019600884021c8554835182191691161785555050505050565b600064ffffffffff821115613332576040517f7149a3c100000000000000000000000000000000000000000000000000000000815260048101839052602401610507565b8366ffffffffffffff811660ff851660280260380182901c64ffffffffff16808510613364578085038201915061336c565b848103820391505b5064ffffffffff6038602860ff8816020181811b197fffffffffffffffffffffffffffffffffffffffffffffffffff000000000000009490941690921792909216918416901b1790509392505050565b6020810151603482015160609190911c9060009060f81c61269d565b60408051600280825260608201835260009283929190602083019080368337019050509050838160008151811061341157613411613886565b602002602001018181525050826001600160a01b031660001b8160018151811061343d5761343d613886565b602090810291909101015260006134957f7462776f726c640000000000000000005265736f75726365416363657373000083837e01010001000000000000000000000000000000000000000000000000000000611e49565b905061177f8160f81c90565b606060006134af8560801c90565b90506fffffffffffffffffffffffffffffffff851660008582816134d5576134d5613b11565b04905060405193506020840160208202810160405281855260005b82811015613510578451871c8252938701936020909101906001016134f0565b50505050509392505050565b60006020828403121561352e57600080fd5b5035919050565b60006020828403121561354757600080fd5b81357fffffffff00000000000000000000000000000000000000000000000000000000811681146118c957600080fd5b6001600160a01b0381168114610aa557600080fd5b634e487b7160e01b600052604160045260246000fd5b604051601f8201601f1916810167ffffffffffffffff811182821017156135cb576135cb61358c565b604052919050565b600067ffffffffffffffff8211156135ed576135ed61358c565b50601f01601f191660200190565b60008060006060848603121561361057600080fd5b833561361b81613577565b925060208401359150604084013567ffffffffffffffff81111561363e57600080fd5b8401601f8101861361364f57600080fd5b803561366261365d826135d3565b6135a2565b81815287602083850101111561367757600080fd5b816020840160208301376000602083830101528093505050509250925092565b634e487b7160e01b600052602160045260246000fd5b60038110610aa557634e487b7160e01b600052602160045260246000fd5b602081016136d8836136ad565b91905290565b6000806000606084860312156136f357600080fd5b833592506020840135915060408401356003811061371057600080fd5b809150509250925092565b60005b8381101561373657818101518382015260200161371e565b50506000910152565b6000815180845261375781602086016020860161371b565b601f01601f19169290920160200192915050565b828152604060208201526000610dc4604083018461373f565b600082601f83011261379557600080fd5b81516137a361365d826135d3565b8181528460208386010111156137b857600080fd5b610dc482602083016020870161371b565b6000602082840312156137db57600080fd5b815167ffffffffffffffff8111156137f257600080fd5b610dc484828501613784565b634e487b7160e01b600052601160045260246000fd5b80820180821115610417576104176137fe565b6000600019820361383a5761383a6137fe565b5060010190565b83815261384d836136ad565b82602082015260606040820152600061177f606083018461373f565b60006020828403121561387b57600080fd5b81516118c981613577565b634e487b7160e01b600052603260045260246000fd5b6000815160208301517fffffffff00000000000000000000000000000000000000000000000000000000808216935060048310156138e45780818460040360031b1b83161693505b505050919050565b60008151808452602080850194506020840160005b8381101561391d57815187529582019590820190600101613901565b509495945050505050565b83815260606020820152600061394160608301856138ec565b9050826040830152949350505050565b60008060006060848603121561396657600080fd5b835167ffffffffffffffff8082111561397e57600080fd5b61398a87838801613784565b94506020860151935060408601519150808211156139a757600080fd5b506139b486828701613784565b9150509250925092565b85815260a0602082015260006139d760a08301876138ec565b60ff8616604084015282810360608401526139f2818661373f565b9150508260808301529695505050505050565b848152608060208201526000613a1e60808301866138ec565b60ff949094166040830152506060015292915050565b600060208284031215613a4657600080fd5b5051919050565b600060ff821660ff8103613a6357613a636137fe565b60010192915050565b848152608060208201526000613a8560808301866138ec565b60ff851660408401528281036060840152613aa0818561373f565b979650505050505050565b81810381811115610417576104176137fe565b8082028115828204841417610417576104176137fe565b8281526000602080830184516020860160005b82811015613b0457815184529284019290840190600101613ae8565b5091979650505050505050565b634e487b7160e01b600052601260045260246000fd5b606081526000613b3a60608301866138ec565b65ffffffffffff851660208401528281036040840152610bb1818561373f565b848152608060208201526000613b7360808301866138ec565b65ffffffffffff851660408401528281036060840152613aa0818561373f565b7fffff0000000000000000000000000000000000000000000000000000000000008416815260007f3a000000000000000000000000000000000000000000000000000000000000008060028401528451613bf481600386016020890161371b565b808401905081600382015284519150613c1482600483016020880161371b565b0160040195945050505050565b604081526000613c34604083018561373f565b90506001600160a01b03831660208301529392505050565b60008251613c5e81846020870161371b565b9190910192915050565b7fffff0000000000000000000000000000000000000000000000000000000000008416815282602082015260606040820152600061177f606083018461373f565b64ffffffffff818116838216019080821115613cc757613cc76137fe565b5092915050565b87815260e060208201526000613ce760e08301896138ec565b60ff8816604084015264ffffffffff87811660608501528616608084015260a0830185905282810360c0840152613d1e818561373f565b9a9950505050505050505050565b60c081526000613d3f60c08301896138ec565b60ff8816602084015265ffffffffffff8716604084015264ffffffffff8616606084015284608084015282810360a0840152613d7b818561373f565b9998505050505050505050565b60008451613d9a81846020890161371b565b60609490941b6bffffffffffffffffffffffff191691909301908152601481019190915260340192915050565b606081526000613dda606083018661373f565b6020830194909452506040015291905056fea2646970667358221220a859df74e0eb259d08d8045ac6d146edb45b4bce31b87317a8cb3c052bdba9b764736f6c63430008180033","linkReferences":{}},"methodIdentifiers":{"_msgSender()":"119df25f","_msgValue()":"45ec9354","_world()":"e1af802c","enterGame(bytes32)":"c74dedc8","getCharacterTokenId(bytes32)":"f8c67561","getClass(bytes32)":"23801570","getCurrentLevel(uint256)":"3d0854ae","getExperience(bytes32)":"ebee03bb","getName(bytes32)":"54b8d5e3","getOwner(bytes32)":"deb931a2","getOwnerAddress(bytes32)":"00d43ec6","getPlayerEntityId(uint256)":"8338f0e0","getStats(bytes32)":"0bb700dc","mintCharacter(address,bytes32,string)":"143f3021","rollStats(bytes32,bytes32,uint8)":"679ee16d","supportsInterface(bytes4)":"01ffc9a7"},"id":195}