{"abi":[{"type":"function","name":"_msgSender","inputs":[],"outputs":[{"name":"sender","type":"address","internalType":"address"}],"stateMutability":"view"},{"type":"function","name":"_msgValue","inputs":[],"outputs":[{"name":"value","type":"uint256","internalType":"uint256"}],"stateMutability":"pure"},{"type":"function","name":"_world","inputs":[],"outputs":[{"name":"","type":"address","internalType":"address"}],"stateMutability":"view"},{"type":"function","name":"enterGame","inputs":[{"name":"characterId","type":"bytes32","internalType":"bytes32"}],"outputs":[],"stateMutability":"nonpayable"},{"type":"function","name":"getCharacterTokenId","inputs":[{"name":"characterId","type":"bytes32","internalType":"bytes32"}],"outputs":[{"name":"","type":"uint256","internalType":"uint256"}],"stateMutability":"pure"},{"type":"function","name":"getClass","inputs":[{"name":"characterId","type":"bytes32","internalType":"bytes32"}],"outputs":[{"name":"_class","type":"uint8","internalType":"enum Classes"}],"stateMutability":"view"},{"type":"function","name":"getCurrentLevel","inputs":[{"name":"experience","type":"uint256","internalType":"uint256"}],"outputs":[{"name":"currentLevel","type":"uint256","internalType":"uint256"}],"stateMutability":"view"},{"type":"function","name":"getExperience","inputs":[{"name":"characterId","type":"bytes32","internalType":"bytes32"}],"outputs":[{"name":"","type":"uint256","internalType":"uint256"}],"stateMutability":"view"},{"type":"function","name":"getName","inputs":[{"name":"characterId","type":"bytes32","internalType":"bytes32"}],"outputs":[{"name":"_name","type":"bytes32","internalType":"bytes32"}],"stateMutability":"view"},{"type":"function","name":"getOwner","inputs":[{"name":"characterId","type":"bytes32","internalType":"bytes32"}],"outputs":[{"name":"","type":"address","internalType":"address"}],"stateMutability":"view"},{"type":"function","name":"getOwnerAddress","inputs":[{"name":"characterId","type":"bytes32","internalType":"bytes32"}],"outputs":[{"name":"","type":"address","internalType":"address"}],"stateMutability":"pure"},{"type":"function","name":"getPlayerEntityId","inputs":[{"name":"characterTokenId","type":"uint256","internalType":"uint256"}],"outputs":[{"name":"characterId","type":"bytes32","internalType":"bytes32"}],"stateMutability":"view"},{"type":"function","name":"getStats","inputs":[{"name":"characterId","type":"bytes32","internalType":"bytes32"}],"outputs":[{"name":"","type":"tuple","internalType":"struct StatsData","components":[{"name":"strength","type":"uint256","internalType":"uint256"},{"name":"agility","type":"uint256","internalType":"uint256"},{"name":"intelligence","type":"uint256","internalType":"uint256"},{"name":"maxHitPoints","type":"uint256","internalType":"uint256"},{"name":"currentDamage","type":"int256","internalType":"int256"},{"name":"experience","type":"uint256","internalType":"uint256"},{"name":"level","type":"uint256","internalType":"uint256"},{"name":"armor","type":"uint256","internalType":"uint256"}]}],"stateMutability":"view"},{"type":"function","name":"isValidCharacterId","inputs":[{"name":"characterId","type":"bytes32","internalType":"bytes32"}],"outputs":[{"name":"","type":"bool","internalType":"bool"}],"stateMutability":"view"},{"type":"function","name":"mintCharacter","inputs":[{"name":"account","type":"address","internalType":"address"},{"name":"name","type":"bytes32","internalType":"bytes32"},{"name":"tokenUri","type":"string","internalType":"string"}],"outputs":[{"name":"characterId","type":"bytes32","internalType":"bytes32"}],"stateMutability":"nonpayable"},{"type":"function","name":"rollStats","inputs":[{"name":"userRandomNumber","type":"bytes32","internalType":"bytes32"},{"name":"characterId","type":"bytes32","internalType":"bytes32"},{"name":"class","type":"uint8","internalType":"enum Classes"}],"outputs":[],"stateMutability":"payable"},{"type":"function","name":"supportsInterface","inputs":[{"name":"interfaceId","type":"bytes4","internalType":"bytes4"}],"outputs":[{"name":"","type":"bool","internalType":"bool"}],"stateMutability":"pure"},{"type":"event","name":"Store_SpliceDynamicData","inputs":[{"name":"tableId","type":"bytes32","indexed":true,"internalType":"ResourceId"},{"name":"keyTuple","type":"bytes32[]","indexed":false,"internalType":"bytes32[]"},{"name":"dynamicFieldIndex","type":"uint8","indexed":false,"internalType":"uint8"},{"name":"start","type":"uint48","indexed":false,"internalType":"uint48"},{"name":"deleteCount","type":"uint40","indexed":false,"internalType":"uint40"},{"name":"encodedLengths","type":"bytes32","indexed":false,"internalType":"EncodedLengths"},{"name":"data","type":"bytes","indexed":false,"internalType":"bytes"}],"anonymous":false},{"type":"event","name":"Store_SpliceStaticData","inputs":[{"name":"tableId","type":"bytes32","indexed":true,"internalType":"ResourceId"},{"name":"keyTuple","type":"bytes32[]","indexed":false,"internalType":"bytes32[]"},{"name":"start","type":"uint48","indexed":false,"internalType":"uint48"},{"name":"data","type":"bytes","indexed":false,"internalType":"bytes"}],"anonymous":false},{"type":"error","name":"EncodedLengths_InvalidLength","inputs":[{"name":"length","type":"uint256","internalType":"uint256"}]},{"type":"error","name":"Slice_OutOfBounds","inputs":[{"name":"data","type":"bytes","internalType":"bytes"},{"name":"start","type":"uint256","internalType":"uint256"},{"name":"end","type":"uint256","internalType":"uint256"}]},{"type":"error","name":"Store_IndexOutOfBounds","inputs":[{"name":"length","type":"uint256","internalType":"uint256"},{"name":"accessedIndex","type":"uint256","internalType":"uint256"}]},{"type":"error","name":"Store_InvalidResourceType","inputs":[{"name":"expected","type":"bytes2","internalType":"bytes2"},{"name":"resourceId","type":"bytes32","internalType":"ResourceId"},{"name":"resourceIdString","type":"string","internalType":"string"}]},{"type":"error","name":"Store_InvalidSplice","inputs":[{"name":"startWithinField","type":"uint40","internalType":"uint40"},{"name":"deleteCount","type":"uint40","internalType":"uint40"},{"name":"fieldLength","type":"uint40","internalType":"uint40"}]},{"type":"error","name":"World_AccessDenied","inputs":[{"name":"resource","type":"string","internalType":"string"},{"name":"caller","type":"address","internalType":"address"}]},{"type":"error","name":"World_FunctionSelectorNotFound","inputs":[{"name":"functionSelector","type":"bytes4","internalType":"bytes4"}]},{"type":"error","name":"World_ResourceNotFound","inputs":[{"name":"resourceId","type":"bytes32","internalType":"ResourceId"},{"name":"resourceIdString","type":"string","internalType":"string"}]}],"bytecode":{"object":"0x608060405234801561001057600080fd5b50614017806100206000396000f3fe60806040526004361061010d5760003560e01c806354b8d5e3116100a5578063c74dedc811610074578063e1af802c11610059578063e1af802c1461035e578063ebee03bb14610373578063f8c675611461039357600080fd5b8063c74dedc81461031e578063deb931a21461033e57600080fd5b806354b8d5e3146102a9578063623daa05146102c9578063679ee16d146102e95780638338f0e0146102fe57600080fd5b8063143f3021116100e1578063143f30211461021657806323801570146102445780633d0854ae1461027157806345ec93541461029157600080fd5b8062d43ec61461011257806301ffc9a7146101505780630bb700dc14610180578063119df25f14610201575b600080fd5b34801561011e57600080fd5b5061013361012d366004613711565b60601c90565b6040516001600160a01b0390911681526020015b60405180910390f35b34801561015c57600080fd5b5061017061016b36600461372a565b6103bf565b6040519015158152602001610147565b34801561018c57600080fd5b506101a061019b366004613711565b610458565b6040516101479190600061010082019050825182526020830151602083015260408301516040830152606083015160608301526080830151608083015260a083015160a083015260c083015160c083015260e083015160e083015292915050565b34801561020d57600080fd5b506101336104a9565b34801561022257600080fd5b506102366102313660046137f0565b6104b8565b604051908152602001610147565b34801561025057600080fd5b5061026461025f366004613711565b61071a565b60405161014791906138c0565b34801561027d57600080fd5b5061023661028c366004613711565b610725565b34801561029d57600080fd5b5036601f190135610236565b3480156102b557600080fd5b506102366102c4366004613711565b6107a3565b3480156102d557600080fd5b506101706102e4366004613711565b6107ae565b6102fc6102f73660046138d3565b6108da565b005b34801561030a57600080fd5b50610236610319366004613711565b610a52565b34801561032a57600080fd5b506102fc610339366004613711565b610ae7565b34801561034a57600080fd5b50610133610359366004613711565b610c19565b34801561036a57600080fd5b50610133610c24565b34801561037f57600080fd5b5061023661038e366004613711565b610c2e565b34801561039f57600080fd5b506102366103ae366004613711565b6bffffffffffffffffffffffff1690565b60007fffffffff0000000000000000000000000000000000000000000000000000000082167fb5dee12700000000000000000000000000000000000000000000000000000000148061045257507fffffffff0000000000000000000000000000000000000000000000000000000082167f01ffc9a700000000000000000000000000000000000000000000000000000000145b92915050565b6104a060405180610100016040528060008152602001600081526020016000815260200160008152602001600081526020016000815260200160008152602001600081525090565b61045282610c39565b60006104b3610d2c565b905090565b6000806104c3610d5e565b90506bffffffffffffffffffffffff811061054b5760405162461bcd60e51b815260206004820152602360248201527f43484152414341544552533a204d61782063686172616374657273207265616360448201527f686564000000000000000000000000000000000000000000000000000000000060648201526084015b60405180910390fd5b610553610c24565b6001600160a01b0316633ae7af0861058a7f4368617261637465727300000000000000000000000000000000000000000000610d91565b6040516001600160a01b03891660248201526044810185905260640160408051601f198184030181529181526020820180517bffffffffffffffffffffffffffffffffffffffffffffffffffffffff167f40c10f1900000000000000000000000000000000000000000000000000000000179052517fffffffff0000000000000000000000000000000000000000000000000000000060e085901b168152610636929190600401613960565b6000604051808303816000875af1158015610655573d6000803e3d6000fd5b505050506040513d6000823e601f3d908101601f1916820160405261067d91908101906139be565b5061068781610a52565b91506106938286610dde565b61069d8282610e99565b6106a684610f18565b156106f35760405162461bcd60e51b815260206004820152601360248201527f4e616d6520616c726561647920657869737473000000000000000000000000006044820152606401610542565b6106fe846001610fbd565b6107088285611076565b61071281846110f5565b509392505050565b60006104528261112c565b600061073160136111c2565b821061073f57506014919050565b60005b601481101561079d5782610755826111c2565b1115801561077457508261077261076d836001613a09565b6111c2565b115b1561078b57610784816001613a09565b915061079d565b8061079581613a1c565b915050610742565b50919050565b60006104528261123e565b6000806107bb8360601c90565b90506bffffffffffffffffffffffff831660006107d66112bc565b6001600160a01b0316636352211e836040518263ffffffff1660e01b815260040161080391815260200190565b602060405180830381865afa92505050801561083c575060408051601f3d908101601f1916820190925261083991810190613a36565b60015b156108bb576108496112bc565b6001600160a01b0316636352211e846040518263ffffffff1660e01b815260040161087691815260200190565b602060405180830381865afa158015610893573d6000803e3d6000fd5b505050506040513d601f19601f820116820180604052508101906108b79190613a36565b9150505b826001600160a01b0316816001600160a01b0316149350505050919050565b6108e3826112c6565b156109565760405162461bcd60e51b815260206004820152602b60248201527f434841524143544552533a2063686172616374657220616c726561647920696e60448201527f2067616d6520776f726c640000000000000000000000000000000000000000006064820152608401610542565b61095f82611344565b6109ab5760405162461bcd60e51b815260206004820152601360248201527f4e6f7420796f7572204368617261637465722e000000000000000000000000006044820152606401610542565b60006109b78383611370565b610a4b8482856040516020016109cf91815260200190565b60408051601f19818403018152908290526109ee939291602401613a53565b60408051601f198184030181529190526020810180517bffffffffffffffffffffffffffffffffffffffffffffffffffffffff167fb2aa60a400000000000000000000000000000000000000000000000000000000179052611424565b5050505050565b600080610a5d6112bc565b6001600160a01b0316636352211e846040518263ffffffff1660e01b8152600401610a8a91815260200190565b602060405180830381865afa158015610aa7573d6000803e3d6000fd5b505050506040513d601f19601f82011682018060405250810190610acb9190613a36565b60601b6bffffffffffffffffffffffff19169290921792915050565b610af081611344565b610b3c5760405162461bcd60e51b815260206004820152601260248201527f6e6f7420796f75722063686172616374657200000000000000000000000000006044820152606401610542565b610b45816112c6565b15610b925760405162461bcd60e51b815260206004820152601960248201527f796f75206861766520656e7465726564207468652067616d65000000000000006044820152606401610542565b610ba481674563918244f400006114d2565b610bac610c24565b6001600160a01b031663f9d175ed826040518263ffffffff1660e01b8152600401610bd991815260200190565b600060405180830381600087803b158015610bf357600080fd5b505af1158015610c07573d6000803e3d6000fd5b50505050610c1681600161156d565b50565b6000610452826115f1565b60006104b361167a565b600061045282611684565b610c8160405180610100016040528060008152602001600081526020016000815260200160008152602001600081526020016000815260200160008152602001600081525090565b604080516001808252818301909252600091602080830190803683370190505090508281600081518110610cb757610cb7613a7b565b602090810291909101015260008080610d117f7462554400000000000000000000000053746174730000000000000000000000857f0100080020202020202020200000000000000000000000000000000000000000611717565b925092509250610d228383836117e7565b9695505050505050565b7fffffffffffffffffffffffffffffffffffffffffffffffffffffffffffffffcc36013560601c80610d5b5750335b90565b600080610d69611864565b90506000610d788260006118cc565b610d83906001613a09565b90506104528260008361197d565b60006104527f7379000000000000000000000000000000000000000000000000000000000000837f45524337323153797374656d0000000000000000000000000000000000000000611a4d565b604080516001808252818301909252600091602080830190803683370190505090508281600081518110610e1457610e14613a7b565b602002602001018181525050610e947f746255440000000000000000000000004368617261637465727300000000000060001b82600185604051602001610e73919060609190911b6bffffffffffffffffffffffff1916815260140190565b60408051601f1981840301815291905267560500201401200160b81b611ac5565b505050565b604080516001808252818301909252600091602080830190803683370190505090508281600081518110610ecf57610ecf613a7b565b602002602001018181525050610e947f746255440000000000000000000000004368617261637465727300000000000060001b82600085604051602001610e7391815260200190565b604080516001808252818301909252600091829190602080830190803683370190505090508281600081518110610f5157610f51613a7b565b60209081029190910101526000610fa97f746255440000000000000000000000004e616d6545786973747300000000000083837e01010001000000000000000000000000000000000000000000000000000000611b7a565b9050610fb58160f81c90565b949350505050565b604080516001808252818301909252600091602080830190803683370190505090508281600081518110610ff357610ff3613a7b565b602002602001018181525050610e947f746255440000000000000000000000004e616d6545786973747300000000000060001b8260008560405160200161104191151560f81b815260010190565b60408051601f198184030181529190527e01010001000000000000000000000000000000000000000000000000000000611ac5565b6040805160018082528183019092526000916020808301908036833701905050905082816000815181106110ac576110ac613a7b565b602002602001018181525050610e947f746255440000000000000000000000004368617261637465727300000000000060001b82600385604051602001610e7391815260200190565b6111286111217f4368617261637465727300000000000000000000000000000000000000000000611c37565b8383611c84565b5050565b60408051600180825281830190925260009182919060208083019080368337019050509050828160008151811061116557611165613a7b565b602090810291909101015260006111aa7f746255440000000000000000000000004368617261637465727300000000000083600267560500201401200160b81b611b7a565b905060f881901c6002811115610fb557610fb561388c565b604080516001808252818301909252600091829190602080830190803683370190505090508260001b816000815181106111fe576111fe613a7b565b60209081029190910101526000610fb57f746255440000000000000000000000004c6576656c73000000000000000000008383630100080160dd1b611b7a565b60408051600180825281830190925260009182919060208083019080368337019050509050828160008151811061127757611277613a7b565b60209081029190910101526000610fb57f746255440000000000000000000000004368617261637465727300000000000083600367560500201401200160b81b611b7a565b60006104b3611864565b6040805160018082528183019092526000918291906020808301908036833701905050905082816000815181106112ff576112ff613a7b565b60209081029190910101526000610fa97f746255440000000000000000000000004368617261637465727300000000000083600467560500201401200160b81b611b7a565b600061134f826115f1565b6001600160a01b03166113606104a9565b6001600160a01b03161492915050565b6040805160018082528183019092526000916020808301908036833701905050905082816000815181106113a6576113a6613a7b565b6020908102919091010152610e947f746255440000000000000000000000004368617261637465727300000000000082600285818111156113e9576113e961388c565b604051602001610e73919060f89190911b7fff0000000000000000000000000000000000000000000000000000000000000016815260010190565b606060008061143a61143585613a91565b611cd6565b91509150816000801b036114a0576040517ffdde54e20000000000000000000000000000000000000000000000000000000081527fffffffff00000000000000000000000000000000000000000000000000000000600035166004820152602401610542565b6020840180517bffffffffffffffffffffffffffffffffffffffffffffffffffffffff1682179052610fb58285611da6565b6114da611e81565b6001600160a01b03166340c10f196114f184610c19565b6040517fffffffff0000000000000000000000000000000000000000000000000000000060e084901b1681526001600160a01b03909116600482015260248101849052604401600060405180830381600087803b15801561155157600080fd5b505af1158015611565573d6000803e3d6000fd5b505050505050565b6040805160018082528183019092526000916020808301908036833701905050905082816000815181106115a3576115a3613a7b565b602002602001018181525050610e947f746255440000000000000000000000004368617261637465727300000000000060001b82600485604051602001610e7391151560f81b815260010190565b60408051600180825281830190925260009182919060208083019080368337019050509050828160008151811061162a5761162a613a7b565b6020908102919091010152600061166f7f746255440000000000000000000000004368617261637465727300000000000083600167560500201401200160b81b611b7a565b60601c949350505050565b60006104b3611e8b565b6040805160018082528183019092526000918291906020808301908036833701905050905082816000815181106116bd576116bd613a7b565b60209081029190910101526000610fb57f74625544000000000000000000000000537461747300000000000000000000008360057f0100080020202020202020200000000000000000000000000000000000000000611b7a565b6060600060606000611727611e8b565b9050306001600160a01b0382160361175057611744878787611eca565b935093509350506117de565b6040517f419b58fd0000000000000000000000000000000000000000000000000000000081526001600160a01b0382169063419b58fd90611799908a908a908a90600401613b1d565b600060405180830381865afa1580156117b6573d6000803e3d6000fd5b505050506040513d6000823e601f3d908101601f191682016040526117449190810190613b46565b93509350939050565b61182f60405180610100016040528060008152602001600081526020016000815260200160008152602001600081526020016000815260200160008152602001600081525090565b61183884611fd2565b60e089015260c088015260a0870152608086015260608501526040840152602083015281529392505050565b6040805160008082526020820190925260006118c27f74625544000000000000000000000000556c74696d617465446f6d696e696f6e8360027e65060001141414141400000000000000000000000000000000000000000000611b7a565b60601c9392505050565b60408051600280825260608201835260009283929190602083019080368337019050509050836001600160a01b031660001b8160008151811061191157611911613a7b565b6020026020010181815250508260001b8160018151811061193457611934613a7b565b602090810291909101015260006119747f74625544000000000000000000000000436f756e7465727300000000000000008383630100080160dd1b611b7a565b95945050505050565b604080516002808252606082018352600092602083019080368337019050509050836001600160a01b031660001b816000815181106119be576119be613a7b565b6020026020010181815250508260001b816001815181106119e1576119e1613a7b565b602002602001018181525050611a477f74625544000000000000000000000000436f756e74657273000000000000000060001b82600085604051602001611a2a91815260200190565b60408051601f19818403018152919052630100080160dd1b611ac5565b50505050565b6000611a5b60706010613a09565b6fffffffffffffffffffffffffffffffff198316901c601084901c7dffffffffffffffffffffffffffff00000000000000000000000000000000167fffff0000000000000000000000000000000000000000000000000000000000008616171790505b9392505050565b6000611acf611e8b565b9050306001600160a01b03821603611af357611aee8686868686612029565b611565565b6040517f390baae00000000000000000000000000000000000000000000000000000000081526001600160a01b0382169063390baae090611b409089908990899089908990600401613bb3565b600060405180830381600087803b158015611b5a57600080fd5b505af1158015611b6e573d6000803e3d6000fd5b50505050505050505050565b600080611b85611e8b565b9050306001600160a01b03821603611bab57611ba38686868661203e565b915050610fb5565b6040517f8c364d590000000000000000000000000000000000000000000000000000000081526001600160a01b03821690638c364d5990611bf6908990899089908990600401613bfa565b602060405180830381865afa158015611c13573d6000803e3d6000fd5b505050506040513d601f19601f82011682018060405250810190611ba39190613c29565b60006104527f7462000000000000000000000000000000000000000000000000000000000000837f546f6b656e555249000000000000000000000000000000000000000000000000611a4d565b604080516001808252818301909252600091602080830190803683370190505090508260001b81600081518110611cbd57611cbd613a7b565b602002602001018181525050611a47848260008561206b565b6040805160018082528183019092526000918291829160208083019080368337019050509050837bffffffffffffffffffffffffffffffffffffffffffffffffffffffff191681600081518110611d2f57611d2f613a7b565b602090810291909101015260008080611d887f7462776f726c6400000000000000000046756e6374696f6e53656c6563746f72857e24020020040000000000000000000000000000000000000000000000000000611717565b925092509250611d9983838361211c565b9550955050505050915091565b60606000611db261167a565b90506001600160a01b0381163003611df3576000611dda611dd1610d2c565b60008787612134565b9350905080611dec57611dec8361226f565b5050610452565b6040517f3ae7af080000000000000000000000000000000000000000000000000000000081526001600160a01b03821690633ae7af0890611e3a9087908790600401613960565b6000604051808303816000875af1158015611e59573d6000803e3d6000fd5b505050506040513d6000823e601f3d908101601f19168201604052610fb591908101906139be565b60006104b3612277565b7f629a4c26e296b22a8e0856e9f6ecb2d1008d7e00081111962cd175fa7488e175546000906001600160a01b031680611ec5573391505090565b919050565b6060600060606000611edb856122d5565b9050611ee88787836122f8565b93506000611ef586612331565b90508015611fc757611f07888861236e565b935066ffffffffffffff841667ffffffffffffffff811115611f2b57611f2b613781565b6040519080825280601f01601f191660200182016040528015611f55576020820181803683370190505b5092506020830160005b828160ff161015611fc4576000611f778b8b84612381565b90506000611f94888460ff166028026038011c64ffffffffff1690565b9050611fa38260008387612401565b611fad8185613a09565b935050508080611fbc90613c42565b915050611f5f565b50505b505093509350939050565b600080600080600080600080611fec896000016020015190565b60408a015160608b015160808c015160a08d015160c08e015160e08f0151610100909f0151959f949e939d50919b50995097509550909350915050565b610a4b858561203884876124cd565b856124fe565b600061197461204d86866127a2565b60ff858116601b0360080285901c1661206685876124cd565b6127f8565b6000612075611e8b565b9050306001600160a01b038216036120985761209385858585612849565b610a4b565b6040517fef6ea8620000000000000000000000000000000000000000000000000000000081526001600160a01b0382169063ef6ea862906120e3908890889088908890600401613c61565b600060405180830381600087803b1580156120fd57600080fd5b505af1158015612111573d6000803e3d6000fd5b505050505050505050565b60008061212885612884565b90969095509350505050565b6000606060008061214486612899565b90925090506001600160a01b03821661219557856121618761293d565b6040517ffbf10ce6000000000000000000000000000000000000000000000000000000008152600401610542929190613960565b806121a4576121a48689612a6b565b8615612210577dffffffffffffffffffffffffffff0000000000000000000000000000000086167f6e730000000000000000000000000000000000000000000000000000000000001760006121f882612ab7565b905061220d826122088b84613a09565b612b30565b50505b600061221c8760101b90565b7fffffffffffffffffffffffffffff00000000000000000000000000000000000016146122545761224f88888488612bcc565b612260565b61226088888488612c44565b90999098509650505050505050565b805160208201fd5b6040805160008082526020820190925260006118c27f74625544000000000000000000000000556c74696d617465446f6d696e696f6e8360017e65060001141414141400000000000000000000000000000000000000000000611b7a565b600060086122e560026020613ca0565b6122ef9190613cb3565b9190911c919050565b6060816000036123175750604080516020810190915260008152611abe565b600061232385856127a2565b905061197481600085612ca5565b6000600860018061234460026020613ca0565b61234e9190613ca0565b6123589190613ca0565b6123629190613cb3565b8260ff911c1692915050565b6000611abe61237d8484612cc8565b5490565b60008383604051602001612396929190613cca565b604051602081830303815290604052805190602001208260f81b7effffffffffffffffffffffffffffffffffffffffffffffffffffffffffffff19167f3b4102da22e32d82fc925482184f16c09fd4281692720b87d124aef6da48a0f1181860001c90509392505050565b8215612488576020831061242b5760208304840193506020838161242757612427613d06565b0692505b821561248857602083900360008184101561244e5750600019600884021c612458565b50600019600882021c5b8554600886021b818451168219821617845250818411612479575050611a47565b50600194909401939182900391015b5b602082106124aa5783548152600190930192601f1990910190602001612489565b8115611a47576000600019600884021c8251865482191691161782525050505050565b600080805b8360ff16811015610712576124f460ff601b83900360080287901c1683613a09565b91506001016124d2565b7f6f74000000000000000000000000000000000000000000000000000000000000847fffff000000000000000000000000000000000000000000000000000000000000160361258857837f8c0b5119d4cec7b284c6b1b39252a03d1e2f2d7451a5895562524c113bb952be84848460405161257b93929190613d1c565b60405180910390a2611a47565b600061259485856127a2565b905060006125a186612d1e565b905060005b81518110156126765760008282815181106125c3576125c3613a7b565b602002602001015190506125ef6004826affffffffffffffffffffff1916612da790919063ffffffff16565b1561266d576040517f964f667d000000000000000000000000000000000000000000000000000000008152606082901c9063964f667d9061263a908b908b908b908b90600401613d4f565b600060405180830381600087803b15801561265457600080fd5b505af1158015612668573d6000803e3d6000fd5b505050505b506001016125a6565b50857f8c0b5119d4cec7b284c6b1b39252a03d1e2f2d7451a5895562524c113bb952be8686866040516126ab93929190613d1c565b60405180910390a26126c6828565ffffffffffff1685612dc5565b60005b81518110156127995760008282815181106126e6576126e6613a7b565b602002602001015190506127126008826affffffffffffffffffffff1916612da790919063ffffffff16565b15612790576040517fa8ba8721000000000000000000000000000000000000000000000000000000008152606082901c9063a8ba87219061275d908b908b908b908b90600401613d4f565b600060405180830381600087803b15801561277757600080fd5b505af115801561278b573d6000803e3d6000fd5b505050505b506001016126c9565b50505050505050565b600082826040516020016127b7929190613cca565b60408051601f1981840301815291905280516020909101207f86425bff6b57326c7859e89024fe4f238ca327a1ae4a230180dd2f0e88aaa7d9189392505050565b60006020821061281e5760208204840193506020828161281a5761281a613d06565b0691505b508254600882021b602082900380841115610712576001850154600882021c82179150509392505050565b6000612855858561236e565b90506000612872828560ff166028026038011c64ffffffffff1690565b90506115658686866000858888612ddb565b602081015160408201516000905b9050915091565b604080516001808252818301909252600091829182916020808301908036833701905050905083816000815181106128d3576128d3613a7b565b60209081029190910101526000808061292c7f7462776f726c6400000000000000000053797374656d73000000000000000000857e15020014010000000000000000000000000000000000000000000000000000611eca565b925092509250611d99838383613215565b606081601081901b600061295083613221565b9050827fffffffffffffffffffffffffffff0000000000000000000000000000000000008316156129ab576129a67fffffffffffffffffffffffffffff0000000000000000000000000000000000008416613238565b6129e2565b6040518060400160405280600681526020017f3c726f6f743e00000000000000000000000000000000000000000000000000008152505b6fffffffffffffffffffffffffffffffff19831615612a0957612a0483613238565b612a40565b6040518060400160405280600681526020017f3c726f6f743e00000000000000000000000000000000000000000000000000008152505b604051602001612a5293929190613d88565b6040516020818303038152906040529350505050919050565b612a7582826132be565b61112857612a828261293d565b816040517fd787b737000000000000000000000000000000000000000000000000000000008152600401610542929190613e16565b604080516001808252818301909252600091829190602080830190803683370190505090508281600081518110612af057612af0613a7b565b60209081029190910101526000610fb57f7462776f726c6400000000000000000042616c616e63657300000000000000008383630100080160dd1b61203e565b604080516001808252818301909252600091602080830190803683370190505090508281600081518110612b6657612b66613a7b565b602002602001018181525050610e947f7462776f726c6400000000000000000042616c616e636573000000000000000060001b82600085604051602001612baf91815260200190565b60408051601f19818403018152919052630100080160dd1b612029565b60006060836001600160a01b03166000612be785898961331c565b604051612bf49190613e41565b60006040518083038185875af1925050503d8060008114612c31576040519150601f19603f3d011682016040523d82523d6000602084013e612c36565b606091505b509097909650945050505050565b60006060836001600160a01b0316612c5d84888861331c565b604051612c6a9190613e41565b600060405180830381855af49150503d8060008114612c31576040519150601f19603f3d011682016040523d82523d6000602084013e612c36565b60405160208101601f19603f848401011660405282825261071285858584612401565b60008282604051602001612cdd929190613cca565b60408051601f1981840301815291905280516020909101207f14e2fcc58e58e68ec7edc30c8d50dccc3ce2714a623ec81f46b6a63922d76569189392505050565b60408051600180825281830190925260609160009190602080830190803683370190505090508281600081518110612d5857612d58613a7b565b60209081029190910101526000612d907f746273746f726500000000000000000053746f7265486f6f6b73000000000000838361334b565b9050610fb5612da28260008451613385565b613413565b60008160ff1682612db88560581c90565b1660ff1614905092915050565b610e9483838351612dd68560200190565b613424565b7f7462000000000000000000000000000000000000000000000000000000000000877fffff0000000000000000000000000000000000000000000000000000000000001614612e9b577f74620000000000000000000000000000000000000000000000000000000000008788604051602001612e5991815260200190565b60408051601f19818403018152908290527f31b46683000000000000000000000000000000000000000000000000000000008252610542939291600401613e5d565b6000612eb6828760ff166028026038011c64ffffffffff1690565b9050600083518564ffffffffff1683612ecf9190613ca0565b612ed99190613a09565b9050808214158015612efb575081612ef18688613e9e565b64ffffffffff1614155b15612f4b576040517fa65010b400000000000000000000000000000000000000000000000000000000815264ffffffffff8088166004830152808716602483015283166044820152606401610542565b818664ffffffffff161115612f9c576040517f7e8578d30000000000000000000000000000000000000000000000000000000081526004810183905264ffffffffff87166024820152604401610542565b6000612fa98489846134e3565b90506000612fb68b612d1e565b905060005b8151811015613081576000828281518110612fd857612fd8613a7b565b602002602001015190506130046010826affffffffffffffffffffff1916612da790919063ffffffff16565b1561307857606081901c6001600160a01b03166355eb5a288e8e8e8e8e8d8f6040518863ffffffff1660e01b81526004016130459796959493929190613ec3565b600060405180830381600087803b15801561305f57600080fd5b505af1158015613073573d6000803e3d6000fd5b505050505b50600101612fbb565b5064ffffffffff881660005b8a60ff168160ff1610156130c0576130b4878260ff166028026038011c64ffffffffff1690565b9091019060010161308d565b508b7ffe158a7adba34e256807c8a149028d3162918713c3838afc643ce9f96716ebfd8c8c848c888d6040516130fb96959493929190613f21565b60405180910390a25082841461311c5760006131178c8c612cc8565b839055505b60006131298c8c8c612381565b905061313d818a64ffffffffff1689612dc5565b5060005b815181101561320757600082828151811061315e5761315e613a7b565b6020026020010151905061318a6020826affffffffffffffffffffff1916612da790919063ffffffff16565b156131fe57606081901c6001600160a01b031663635845338e8e8e8e8e8a8f6040518863ffffffff1660e01b81526004016131cb9796959493929190613ec3565b600060405180830381600087803b1580156131e557600080fd5b505af11580156131f9573d6000803e3d6000fd5b505050505b50600101613141565b505050505050505050505050565b600080612128856135b1565b600061322f60706010613a09565b9190911b919050565b606060005b601081101561328e576fffffffffffffffffffffffffffffffff198316600882021b7fff00000000000000000000000000000000000000000000000000000000000000161561328e5760010161323d565b604080516fffffffffffffffffffffffffffffffff19851660208201528151603090910190915281815280610fb5565b600061330c7f6e730000000000000000000000000000000000000000000000000000000000007dffffffffffffffffffffffffffff00000000000000000000000000000000851617836135cd565b80611abe5750611abe83836135cd565b606083838360405160200161333393929190613f7d565b60405160208183030381529060405290509392505050565b6060610fb561335b858585612381565b60006133808561336b898961236e565b9060ff166028026038011c64ffffffffff1690565b612ca5565b6000818311806133955750835182115b156133d2578383836040517f23230fa300000000000000000000000000000000000000000000000000000000815260040161054293929190613fbc565b602084016133e08482613a09565b905060006133ee8585613ca0565b6fffffffffffffffffffffffffffffffff1660809290921b9190911795945050505050565b60606000611abe8360156000613696565b821561349e576020831061344e5760208304840193506020838161344a5761344a613d06565b0692505b821561349e5760208390036000600019600885021c1990506008850281811c91508351811c905081198754168282161787555081841161348f575050611a47565b50600194909401939182900391015b5b602082106134c05780518455600190930192601f199091019060200161349f565b8115611a47576000600019600884021c8554835182191691161785555050505050565b600064ffffffffff821115613527576040517f7149a3c100000000000000000000000000000000000000000000000000000000815260048101839052602401610542565b8366ffffffffffffff811660ff851660280260380182901c64ffffffffff168085106135595780850382019150613561565b848103820391505b5064ffffffffff6038602860ff8816020181811b197fffffffffffffffffffffffffffffffffffffffffffffffffff000000000000009490941690921792909216918416901b1790509392505050565b6020810151603482015160609190911c9060009060f81c612892565b60408051600280825260608201835260009283929190602083019080368337019050509050838160008151811061360657613606613a7b565b602002602001018181525050826001600160a01b031660001b8160018151811061363257613632613a7b565b6020908102919091010152600061368a7f7462776f726c640000000000000000005265736f75726365416363657373000083837e0101000100000000000000000000000000000000000000000000000000000061203e565b90506119748160f81c90565b606060006136a48560801c90565b90506fffffffffffffffffffffffffffffffff851660008582816136ca576136ca613d06565b04905060405193506020840160208202810160405281855260005b82811015613705578451871c8252938701936020909101906001016136e5565b50505050509392505050565b60006020828403121561372357600080fd5b5035919050565b60006020828403121561373c57600080fd5b81357fffffffff0000000000000000000000000000000000000000000000000000000081168114611abe57600080fd5b6001600160a01b0381168114610c1657600080fd5b634e487b7160e01b600052604160045260246000fd5b604051601f8201601f1916810167ffffffffffffffff811182821017156137c0576137c0613781565b604052919050565b600067ffffffffffffffff8211156137e2576137e2613781565b50601f01601f191660200190565b60008060006060848603121561380557600080fd5b83356138108161376c565b925060208401359150604084013567ffffffffffffffff81111561383357600080fd5b8401601f8101861361384457600080fd5b8035613857613852826137c8565b613797565b81815287602083850101111561386c57600080fd5b816020840160208301376000602083830101528093505050509250925092565b634e487b7160e01b600052602160045260246000fd5b60038110610c1657634e487b7160e01b600052602160045260246000fd5b602081016138cd836138a2565b91905290565b6000806000606084860312156138e857600080fd5b833592506020840135915060408401356003811061390557600080fd5b809150509250925092565b60005b8381101561392b578181015183820152602001613913565b50506000910152565b6000815180845261394c816020860160208601613910565b601f01601f19169290920160200192915050565b828152604060208201526000610fb56040830184613934565b600082601f83011261398a57600080fd5b8151613998613852826137c8565b8181528460208386010111156139ad57600080fd5b610fb5826020830160208701613910565b6000602082840312156139d057600080fd5b815167ffffffffffffffff8111156139e757600080fd5b610fb584828501613979565b634e487b7160e01b600052601160045260246000fd5b80820180821115610452576104526139f3565b60006000198203613a2f57613a2f6139f3565b5060010190565b600060208284031215613a4857600080fd5b8151611abe8161376c565b838152613a5f836138a2565b8260208201526060604082015260006119746060830184613934565b634e487b7160e01b600052603260045260246000fd5b6000815160208301517fffffffff0000000000000000000000000000000000000000000000000000000080821693506004831015613ad95780818460040360031b1b83161693505b505050919050565b60008151808452602080850194506020840160005b83811015613b1257815187529582019590820190600101613af6565b509495945050505050565b838152606060208201526000613b366060830185613ae1565b9050826040830152949350505050565b600080600060608486031215613b5b57600080fd5b835167ffffffffffffffff80821115613b7357600080fd5b613b7f87838801613979565b9450602086015193506040860151915080821115613b9c57600080fd5b50613ba986828701613979565b9150509250925092565b85815260a060208201526000613bcc60a0830187613ae1565b60ff861660408401528281036060840152613be78186613934565b9150508260808301529695505050505050565b848152608060208201526000613c136080830186613ae1565b60ff949094166040830152506060015292915050565b600060208284031215613c3b57600080fd5b5051919050565b600060ff821660ff8103613c5857613c586139f3565b60010192915050565b848152608060208201526000613c7a6080830186613ae1565b60ff851660408401528281036060840152613c958185613934565b979650505050505050565b81810381811115610452576104526139f3565b8082028115828204841417610452576104526139f3565b8281526000602080830184516020860160005b82811015613cf957815184529284019290840190600101613cdd565b5091979650505050505050565b634e487b7160e01b600052601260045260246000fd5b606081526000613d2f6060830186613ae1565b65ffffffffffff851660208401528281036040840152610d228185613934565b848152608060208201526000613d686080830186613ae1565b65ffffffffffff851660408401528281036060840152613c958185613934565b7fffff0000000000000000000000000000000000000000000000000000000000008416815260007f3a000000000000000000000000000000000000000000000000000000000000008060028401528451613de9816003860160208901613910565b808401905081600382015284519150613e09826004830160208801613910565b0160040195945050505050565b604081526000613e296040830185613934565b90506001600160a01b03831660208301529392505050565b60008251613e53818460208701613910565b9190910192915050565b7fffff000000000000000000000000000000000000000000000000000000000000841681528260208201526060604082015260006119746060830184613934565b64ffffffffff818116838216019080821115613ebc57613ebc6139f3565b5092915050565b87815260e060208201526000613edc60e0830189613ae1565b60ff8816604084015264ffffffffff87811660608501528616608084015260a0830185905282810360c0840152613f138185613934565b9a9950505050505050505050565b60c081526000613f3460c0830189613ae1565b60ff8816602084015265ffffffffffff8716604084015264ffffffffff8616606084015284608084015282810360a0840152613f708185613934565b9998505050505050505050565b60008451613f8f818460208901613910565b60609490941b6bffffffffffffffffffffffff191691909301908152601481019190915260340192915050565b606081526000613fcf6060830186613934565b6020830194909452506040015291905056fea26469706673582212205805af0779c08c323b1a0a4e2fc2fa23988c9d5e32c09f74c2e496c1ac3b612364736f6c63430008180033","linkReferences":{}},"methodIdentifiers":{"_msgSender()":"119df25f","_msgValue()":"45ec9354","_world()":"e1af802c","enterGame(bytes32)":"c74dedc8","getCharacterTokenId(bytes32)":"f8c67561","getClass(bytes32)":"23801570","getCurrentLevel(uint256)":"3d0854ae","getExperience(bytes32)":"ebee03bb","getName(bytes32)":"54b8d5e3","getOwner(bytes32)":"deb931a2","getOwnerAddress(bytes32)":"00d43ec6","getPlayerEntityId(uint256)":"8338f0e0","getStats(bytes32)":"0bb700dc","isValidCharacterId(bytes32)":"623daa05","mintCharacter(address,bytes32,string)":"143f3021","rollStats(bytes32,bytes32,uint8)":"679ee16d","supportsInterface(bytes4)":"01ffc9a7"},"id":208}