{"abi":[{"type":"function","name":"_msgSender","inputs":[],"outputs":[{"name":"sender","type":"address","internalType":"address"}],"stateMutability":"view"},{"type":"function","name":"_msgValue","inputs":[],"outputs":[{"name":"value","type":"uint256","internalType":"uint256"}],"stateMutability":"pure"},{"type":"function","name":"_world","inputs":[],"outputs":[{"name":"","type":"address","internalType":"address"}],"stateMutability":"view"},{"type":"function","name":"enterGame","inputs":[{"name":"characterId","type":"bytes32","internalType":"bytes32"}],"outputs":[],"stateMutability":"nonpayable"},{"type":"function","name":"getBaseStats","inputs":[{"name":"characterId","type":"bytes32","internalType":"bytes32"}],"outputs":[{"name":"","type":"tuple","internalType":"struct StatsData","components":[{"name":"strength","type":"int256","internalType":"int256"},{"name":"agility","type":"int256","internalType":"int256"},{"name":"class","type":"uint8","internalType":"enum Classes"},{"name":"intelligence","type":"int256","internalType":"int256"},{"name":"maxHp","type":"int256","internalType":"int256"},{"name":"currentHp","type":"int256","internalType":"int256"},{"name":"experience","type":"uint256","internalType":"uint256"},{"name":"level","type":"uint256","internalType":"uint256"}]}],"stateMutability":"view"},{"type":"function","name":"getCharacterIdFromOwnerAddress","inputs":[{"name":"ownerAddress","type":"address","internalType":"address"}],"outputs":[{"name":"_characterId","type":"bytes32","internalType":"bytes32"}],"stateMutability":"view"},{"type":"function","name":"getCharacterTokenId","inputs":[{"name":"characterId","type":"bytes32","internalType":"bytes32"}],"outputs":[{"name":"","type":"uint256","internalType":"uint256"}],"stateMutability":"pure"},{"type":"function","name":"getClass","inputs":[{"name":"characterId","type":"bytes32","internalType":"bytes32"}],"outputs":[{"name":"_class","type":"uint8","internalType":"enum Classes"}],"stateMutability":"view"},{"type":"function","name":"getCurrentAvailableLevel","inputs":[{"name":"experience","type":"uint256","internalType":"uint256"}],"outputs":[{"name":"currentAvailableLevel","type":"uint256","internalType":"uint256"}],"stateMutability":"view"},{"type":"function","name":"getExperience","inputs":[{"name":"characterId","type":"bytes32","internalType":"bytes32"}],"outputs":[{"name":"","type":"uint256","internalType":"uint256"}],"stateMutability":"view"},{"type":"function","name":"getName","inputs":[{"name":"characterId","type":"bytes32","internalType":"bytes32"}],"outputs":[{"name":"_name","type":"bytes32","internalType":"bytes32"}],"stateMutability":"view"},{"type":"function","name":"getOwner","inputs":[{"name":"characterId","type":"bytes32","internalType":"bytes32"}],"outputs":[{"name":"","type":"address","internalType":"address"}],"stateMutability":"view"},{"type":"function","name":"getOwnerAddress","inputs":[{"name":"characterId","type":"bytes32","internalType":"bytes32"}],"outputs":[{"name":"","type":"address","internalType":"address"}],"stateMutability":"pure"},{"type":"function","name":"getPlayerEntityId","inputs":[{"name":"characterTokenId","type":"uint256","internalType":"uint256"}],"outputs":[{"name":"characterId","type":"bytes32","internalType":"bytes32"}],"stateMutability":"view"},{"type":"function","name":"getStats","inputs":[{"name":"characterId","type":"bytes32","internalType":"bytes32"}],"outputs":[{"name":"","type":"tuple","internalType":"struct StatsData","components":[{"name":"strength","type":"int256","internalType":"int256"},{"name":"agility","type":"int256","internalType":"int256"},{"name":"class","type":"uint8","internalType":"enum Classes"},{"name":"intelligence","type":"int256","internalType":"int256"},{"name":"maxHp","type":"int256","internalType":"int256"},{"name":"currentHp","type":"int256","internalType":"int256"},{"name":"experience","type":"uint256","internalType":"uint256"},{"name":"level","type":"uint256","internalType":"uint256"}]}],"stateMutability":"view"},{"type":"function","name":"isValidCharacterId","inputs":[{"name":"characterId","type":"bytes32","internalType":"bytes32"}],"outputs":[{"name":"","type":"bool","internalType":"bool"}],"stateMutability":"view"},{"type":"function","name":"isValidOwner","inputs":[{"name":"characterId","type":"bytes32","internalType":"bytes32"},{"name":"owner","type":"address","internalType":"address"}],"outputs":[{"name":"","type":"bool","internalType":"bool"}],"stateMutability":"view"},{"type":"function","name":"levelCharacter","inputs":[{"name":"characterId","type":"bytes32","internalType":"bytes32"},{"name":"desiredStats","type":"tuple","internalType":"struct StatsData","components":[{"name":"strength","type":"int256","internalType":"int256"},{"name":"agility","type":"int256","internalType":"int256"},{"name":"class","type":"uint8","internalType":"enum Classes"},{"name":"intelligence","type":"int256","internalType":"int256"},{"name":"maxHp","type":"int256","internalType":"int256"},{"name":"currentHp","type":"int256","internalType":"int256"},{"name":"experience","type":"uint256","internalType":"uint256"},{"name":"level","type":"uint256","internalType":"uint256"}]}],"outputs":[],"stateMutability":"nonpayable"},{"type":"function","name":"mintCharacter","inputs":[{"name":"account","type":"address","internalType":"address"},{"name":"name","type":"bytes32","internalType":"bytes32"},{"name":"tokenUri","type":"string","internalType":"string"}],"outputs":[{"name":"characterId","type":"bytes32","internalType":"bytes32"}],"stateMutability":"nonpayable"},{"type":"function","name":"rollStats","inputs":[{"name":"userRandomNumber","type":"bytes32","internalType":"bytes32"},{"name":"characterId","type":"bytes32","internalType":"bytes32"},{"name":"class","type":"uint8","internalType":"enum Classes"}],"outputs":[],"stateMutability":"payable"},{"type":"function","name":"setStats","inputs":[{"name":"entityId","type":"bytes32","internalType":"bytes32"},{"name":"stats","type":"tuple","internalType":"struct AdjustedCombatStats","components":[{"name":"strength","type":"int256","internalType":"int256"},{"name":"agility","type":"int256","internalType":"int256"},{"name":"intelligence","type":"int256","internalType":"int256"},{"name":"armor","type":"int256","internalType":"int256"},{"name":"maxHp","type":"int256","internalType":"int256"},{"name":"currentHp","type":"int256","internalType":"int256"}]}],"outputs":[],"stateMutability":"nonpayable"},{"type":"function","name":"supportsInterface","inputs":[{"name":"interfaceId","type":"bytes4","internalType":"bytes4"}],"outputs":[{"name":"","type":"bool","internalType":"bool"}],"stateMutability":"pure"},{"type":"function","name":"updateTokenUri","inputs":[{"name":"characterId","type":"bytes32","internalType":"bytes32"},{"name":"tokenUri","type":"string","internalType":"string"}],"outputs":[],"stateMutability":"nonpayable"},{"type":"event","name":"Store_SetRecord","inputs":[{"name":"tableId","type":"bytes32","indexed":true,"internalType":"ResourceId"},{"name":"keyTuple","type":"bytes32[]","indexed":false,"internalType":"bytes32[]"},{"name":"staticData","type":"bytes","indexed":false,"internalType":"bytes"},{"name":"encodedLengths","type":"bytes32","indexed":false,"internalType":"EncodedLengths"},{"name":"dynamicData","type":"bytes","indexed":false,"internalType":"bytes"}],"anonymous":false},{"type":"event","name":"Store_SpliceDynamicData","inputs":[{"name":"tableId","type":"bytes32","indexed":true,"internalType":"ResourceId"},{"name":"keyTuple","type":"bytes32[]","indexed":false,"internalType":"bytes32[]"},{"name":"dynamicFieldIndex","type":"uint8","indexed":false,"internalType":"uint8"},{"name":"start","type":"uint48","indexed":false,"internalType":"uint48"},{"name":"deleteCount","type":"uint40","indexed":false,"internalType":"uint40"},{"name":"encodedLengths","type":"bytes32","indexed":false,"internalType":"EncodedLengths"},{"name":"data","type":"bytes","indexed":false,"internalType":"bytes"}],"anonymous":false},{"type":"event","name":"Store_SpliceStaticData","inputs":[{"name":"tableId","type":"bytes32","indexed":true,"internalType":"ResourceId"},{"name":"keyTuple","type":"bytes32[]","indexed":false,"internalType":"bytes32[]"},{"name":"start","type":"uint48","indexed":false,"internalType":"uint48"},{"name":"data","type":"bytes","indexed":false,"internalType":"bytes"}],"anonymous":false},{"type":"error","name":"EncodedLengths_InvalidLength","inputs":[{"name":"length","type":"uint256","internalType":"uint256"}]},{"type":"error","name":"Slice_OutOfBounds","inputs":[{"name":"data","type":"bytes","internalType":"bytes"},{"name":"start","type":"uint256","internalType":"uint256"},{"name":"end","type":"uint256","internalType":"uint256"}]},{"type":"error","name":"Store_IndexOutOfBounds","inputs":[{"name":"length","type":"uint256","internalType":"uint256"},{"name":"accessedIndex","type":"uint256","internalType":"uint256"}]},{"type":"error","name":"Store_InvalidResourceType","inputs":[{"name":"expected","type":"bytes2","internalType":"bytes2"},{"name":"resourceId","type":"bytes32","internalType":"ResourceId"},{"name":"resourceIdString","type":"string","internalType":"string"}]},{"type":"error","name":"Store_InvalidSplice","inputs":[{"name":"startWithinField","type":"uint40","internalType":"uint40"},{"name":"deleteCount","type":"uint40","internalType":"uint40"},{"name":"fieldLength","type":"uint40","internalType":"uint40"}]},{"type":"error","name":"World_AccessDenied","inputs":[{"name":"resource","type":"string","internalType":"string"},{"name":"caller","type":"address","internalType":"address"}]},{"type":"error","name":"World_FunctionSelectorNotFound","inputs":[{"name":"functionSelector","type":"bytes4","internalType":"bytes4"}]},{"type":"error","name":"World_ResourceNotFound","inputs":[{"name":"resourceId","type":"bytes32","internalType":"ResourceId"},{"name":"resourceIdString","type":"string","internalType":"string"}]}],"bytecode":{"object":"0x608060405234801561000f575f80fd5b50615bb1806200001e5f395ff3fe608060405260043610610177575f3560e01c806354b8d5e3116100d1578063b27cbcbb1161007c578063e1af802c11610057578063e1af802c14610420578063ebee03bb14610434578063f8c6756114610453575f80fd5b8063b27cbcbb146103c3578063c74dedc8146103e2578063deb931a214610401575f80fd5b80637163c6ba116100ac5780637163c6ba146103665780638338f0e0146103855780639b63ec05146103a4575f80fd5b806354b8d5e314610315578063623daa0514610334578063679ee16d14610353575f80fd5b8063119df25f116101315780631ecb393f1161010c5780631ecb393f146102b357806323801570146102d257806345ec9354146102fe575f80fd5b8063119df25f14610261578063143f3021146102755780631b5cdcc414610294575f80fd5b806306a3432f1161016157806306a3432f146101e757806309a4fa6e146102145780630bb700dc14610235575f80fd5b8062d43ec61461017b57806301ffc9a7146101b8575b5f80fd5b348015610186575f80fd5b5061019b610195366004614d95565b60601c90565b6040516001600160a01b0390911681526020015b60405180910390f35b3480156101c3575f80fd5b506101d76101d2366004614dac565b61047e565b60405190151581526020016101af565b3480156101f2575f80fd5b50610206610201366004614e02565b610516565b6040519081526020016101af565b34801561021f575f80fd5b5061023361022e366004614eaf565b610520565b005b348015610240575f80fd5b5061025461024f366004614d95565b6106f8565b6040516101af9190614f53565b34801561026c575f80fd5b5061019b610709565b348015610280575f80fd5b5061020661028f36600461502d565b610717565b34801561029f575f80fd5b506102336102ae36600461508e565b610990565b3480156102be575f80fd5b506102066102cd366004614d95565b610e31565b3480156102dd575f80fd5b506102f16102ec366004614d95565b610eb2565b6040516101af9190615125565b348015610309575f80fd5b5036601f190135610206565b348015610320575f80fd5b5061020661032f366004614d95565b610ebc565b34801561033f575f80fd5b506101d761034e366004614d95565b610ec6565b610233610361366004615138565b610fee565b348015610371575f80fd5b50610254610380366004614d95565b611176565b348015610390575f80fd5b5061020661039f366004614d95565b61119a565b3480156103af575f80fd5b506101d76103be36600461516e565b61122c565b3480156103ce575f80fd5b506102336103dd36600461519c565b6112f0565b3480156103ed575f80fd5b506102336103fc366004614d95565b61136c565b34801561040c575f80fd5b5061019b61041b366004614d95565b61158d565b34801561042b575f80fd5b5061019b611597565b34801561043f575f80fd5b5061020661044e366004614d95565b6115a0565b34801561045e575f80fd5b5061020661046d366004614d95565b6bffffffffffffffffffffffff1690565b5f7fffffffff0000000000000000000000000000000000000000000000000000000082167fb5dee12700000000000000000000000000000000000000000000000000000000148061051057507fffffffff0000000000000000000000000000000000000000000000000000000082167f01ffc9a700000000000000000000000000000000000000000000000000000000145b92915050565b5f610510826115aa565b6105313061052c610709565b61164c565b5f61053b83611662565b9050610545611597565b6001600160a01b031663fa1becc4846040518263ffffffff1660e01b815260040161057291815260200190565b602060405180830381865afa15801561058d573d5f803e3d5ffd5b505050506040513d601f19601f820116820180604052508101906105b191906151e0565b156105ef5781518152602080830151908201526040820151606080830191909152608080840151908301528201516105ea908490611711565b6106e9565b6105f7611597565b6001600160a01b031663bace814a846040518263ffffffff1660e01b815260040161062491815260200190565b602060405180830381865afa15801561063f573d5f803e3d5ffd5b505050506040513d601f19601f8201168201806040525081019061066391906151e0565b1561069c5781518152602080830151908201526040820151606080830191909152608080840151908301528201516105ea9084906117c2565b60405162461bcd60e51b815260206004820152600f60248201527f756e7265636f676e697a6564206964000000000000000000000000000000000060448201526064015b60405180910390fd5b6106f38382611872565b505050565b610700614d47565b61051082611662565b5f610712611917565b905090565b5f80610721611949565b90506bffffffffffffffffffffffff81106107a45760405162461bcd60e51b815260206004820152602360248201527f43484152414341544552533a204d61782063686172616374657273207265616360448201527f686564000000000000000000000000000000000000000000000000000000000060648201526084016106e0565b6107ac611597565b6001600160a01b0316633ae7af086107e37f4368617261637465727300000000000000000000000000000000000000000000611978565b6040516001600160a01b03891660248201526044810185905260640160408051601f198184030181529181526020820180517bffffffffffffffffffffffffffffffffffffffffffffffffffffffff167f40c10f1900000000000000000000000000000000000000000000000000000000179052517fffffffff0000000000000000000000000000000000000000000000000000000060e085901b16815261088f92919060040161524c565b5f604051808303815f875af11580156108aa573d5f803e3d5ffd5b505050506040513d5f823e601f3d908101601f191682016040526108d191908101906152a6565b506108db8161119a565b91506108e782866119c4565b6108f18282611a76565b6109026108fc610709565b82611af1565b61091361090d610709565b83611bac565b61091c84611c33565b156109695760405162461bcd60e51b815260206004820152601360248201527f4e616d6520616c7265616479206578697374730000000000000000000000000060448201526064016106e0565b610974846001611ccd565b61097e8285611d82565b6109888184611dfe565b509392505050565b8161099d816103be610709565b6109f45760405162461bcd60e51b815260206004820152602260248201527f4348415241435445522053595354454d3a20494e56414c4944204f504552415460448201526127a960f11b60648201526084016106e0565b6109fc611597565b6001600160a01b03166385fcd3bd846040518263ffffffff1660e01b8152600401610a2991815260200190565b602060405180830381865afa158015610a44573d5f803e3d5ffd5b505050506040513d601f19601f82011682018060405250810190610a6891906151e0565b15610ab55760405162461bcd60e51b815260206004820152601660248201527f63616e6e6f74206c6576656c20696e20636f6d6261740000000000000000000060448201526064016106e0565b5f610abf84611e31565b806020019051810190610ad291906152d8565b9050610add84611ea1565b60a082015260c08101515f90610af290610e31565b9050600a8260e0015103610b07575050505050565b815184515f91610b1691615364565b90505f83602001518660200151610b2d9190615364565b90505f84606001518760600151610b449190615364565b9050600281610b53848661538a565b610b5d919061538a565b14610bd05760405162461bcd60e51b815260206004820152602560248201527f4348415241435445522053595354454d3a20494e56414c49442053544154204360448201527f48414e474500000000000000000000000000000000000000000000000000000060648201526084016106e0565b610bdb6001856153c5565b5f03610c6e575f610beb89610eb2565b90505f816002811115610c0057610c00614f23565b03610c195787518890610c12906153e4565b9052610c6c565b6001816002811115610c2d57610c2d614f23565b03610c4157876020018051610c12906153e4565b6002816002811115610c5557610c55614f23565b03610c6c57876060018051610c69906153e4565b90525b505b84604001516002811115610c8457610c84614f23565b60ff16158015610ca2575060038560e00151610ca091906153c5565b155b15610cbe57600385608001818151610cba919061538a565b9052505b600385608001818151610cd1919061538a565b90525086518552602080880151908601526060808801519086015260e08501805160019190610d0190839061541b565b905250604051610d2f908990610d1b908890602001614f53565b604051602081830303815290604052611f30565b610db188610d3b611597565b6001600160a01b031663a543a0c58b6040518263ffffffff1660e01b8152600401610d6891815260200190565b60c060405180830381865afa158015610d83573d5f803e3d5ffd5b505050506040513d601f19601f82011682018060405250810190610da7919061542e565b8760e00151611f9c565b610db9611597565b6001600160a01b031663ad54c98b896040518263ffffffff1660e01b8152600401610de691815260200190565b60c0604051808303815f875af1158015610e02573d5f803e3d5ffd5b505050506040513d601f19601f82011682018060405250810190610e26919061542e565b505050505050505050565b5f610e46610e416001600a615486565b611ffe565b8210610e545750600a919050565b5f5b600a811015610eac5782610e6982611ffe565b11158015610e83575082610e81610e4183600161541b565b115b15610e9a57610e9381600161541b565b9150610eac565b80610ea481615499565b915050610e56565b50919050565b5f61051082612076565b5f6105108261211d565b5f80610ed28360601c90565b90506bffffffffffffffffffffffff83165f610eec612197565b6001600160a01b0316636352211e836040518263ffffffff1660e01b8152600401610f1991815260200190565b602060405180830381865afa925050508015610f52575060408051601f3d908101601f19168201909252610f4f918101906154aa565b60015b15610fcf57610f5f612197565b6001600160a01b0316636352211e846040518263ffffffff1660e01b8152600401610f8c91815260200190565b602060405180830381865afa158015610fa7573d5f803e3d5ffd5b505050506040513d601f19601f82011682018060405250810190610fcb91906154aa565b9150505b826001600160a01b0316816001600160a01b0316149350505050919050565b81610ffb816103be610709565b6110525760405162461bcd60e51b815260206004820152602260248201527f4348415241435445522053595354454d3a20494e56414c4944204f504552415460448201526127a960f11b60648201526084016106e0565b61105b836121a0565b156110ce5760405162461bcd60e51b815260206004820152602b60248201527f434841524143544552533a2063686172616374657220616c726561647920696e60448201527f2067616d6520776f726c6400000000000000000000000000000000000000000060648201526084016106e0565b60016110da848461221a565b61116e8582866040516020016110f291815260200190565b60408051601f19818403018152908290526111119392916024016154c5565b60408051601f198184030181529190526020810180517bffffffffffffffffffffffffffffffffffffffffffffffffffffffff167fb2aa60a400000000000000000000000000000000000000000000000000000000179052612301565b505050505050565b61117e614d47565b61118782611e31565b80602001905181019061051091906152d8565b5f806111a4612197565b6001600160a01b0316636352211e846040518263ffffffff1660e01b81526004016111d191815260200190565b602060405180830381865afa1580156111ec573d5f803e3d5ffd5b505050506040513d601f19601f8201168201806040525081019061121091906154aa565b60601b6bffffffffffffffffffffffff19169290921792915050565b5f61123683610ec6565b80156112e95750816001600160a01b031661124f612197565b6040517f6352211e0000000000000000000000000000000000000000000000000000000081526bffffffffffffffffffffffff861660048201526001600160a01b039190911690636352211e90602401602060405180830381865afa1580156112ba573d5f803e3d5ffd5b505050506040513d601f19601f820116820180604052508101906112de91906154aa565b6001600160a01b0316145b9392505050565b816112fd816103be610709565b6113545760405162461bcd60e51b815260206004820152602260248201527f4348415241435445522053595354454d3a20494e56414c4944204f504552415460448201526127a960f11b60648201526084016106e0565b6106f36bffffffffffffffffffffffff841683611dfe565b80611379816103be610709565b6113d05760405162461bcd60e51b815260206004820152602260248201527f4348415241435445522053595354454d3a20494e56414c4944204f504552415460448201526127a960f11b60648201526084016106e0565b6113d9826121a0565b156114265760405162461bcd60e51b815260206004820152601960248201527f796f75206861766520656e7465726564207468652067616d650000000000000060448201526064016106e0565b5f61143083611662565b600160e0820152608081015160a0820152905061144d8382611872565b611455611597565b6040517fbcf0229a00000000000000000000000000000000000000000000000000000000815260048101859052674563918244f4000060248201526001600160a01b03919091169063bcf0229a906044015f604051808303815f87803b1580156114bd575f80fd5b505af11580156114cf573d5f803e3d5ffd5b505050506114db611597565b6001600160a01b031663f9d175ed846040518263ffffffff1660e01b815260040161150891815260200190565b5f604051808303815f87803b15801561151f575f80fd5b505af1158015611531573d5f803e3d5ffd5b505050505f61153f846123ac565b600160608201526040519091505f9061155c908490602001614f53565b60408051601f1981840301815291905260a083018190526080830181905290506115868583612477565b5050505050565b5f61051082612568565b5f6107126125ed565b5f610510826125f6565b6040805160018082528183019092525f9182919060208083019080368337019050509050826001600160a01b03165f1b815f815181106115ec576115ec6154ec565b60209081029190910101525f6116447f746255440000000000000000000000004368617261637465724f776e657200008360017e40020020200000000000000000000000000000000000000000000000000000612681565b949350505050565b61165e6116588361273b565b826127bc565b5050565b61166a614d47565b6040805160018082528183019092525f916020808301908036833701905050905082815f8151811061169e5761169e6154ec565b60209081029190910101525f80806116f67f7462554400000000000000000000000053746174730000000000000000000000857ee1080020200120202020200000000000000000000000000000000000000000612808565b9250925092506117078383836128d2565b9695505050505050565b6040805160018082528183019092525f916020808301908036833701905050905082815f81518110611745576117456154ec565b6020026020010181815250506106f37f7462554400000000000000000000000043686172616374657245717569706d655f1b8260048560405160200161178d91815260200190565b60408051601f198184030181529190527ea005052020202020000000000000000000000000000000000000000000000061294a565b6040805160018082528183019092525f916020808301908036833701905050905082815f815181106117f6576117f66154ec565b6020026020010181815250506106f37f746255440000000000000000000000004d6f62537461747300000000000000005f1b825f8560405160200161183d91815260200190565b60408051601f198184030181529190527e2001012000000000000000000000000000000000000000000000000000000061294a565b5f6118a2825f015183602001518460400151856060015186608001518760a001518860c001518960e001516129f9565b6040805160018082528183019092529192505f916060918391906020808301908036833701905050905085815f815181106118df576118df6154ec565b602090810291909101015261116e7f746255440000000000000000000000005374617473000000000000000000000082868686612a37565b7fffffffffffffffffffffffffffffffffffffffffffffffffffffffffffffffcc36013560601c806119465750335b90565b5f80611953612aac565b90505f611960825f612b12565b61196b90600161541b565b9050610510825f83612bbe565b5f6105107f7379000000000000000000000000000000000000000000000000000000000000837f45524337323153797374656d0000000000000000000000000000000000000000612c82565b6040805160018082528183019092525f916020808301908036833701905050905082815f815181106119f8576119f86154ec565b6020026020010181815250506106f37f74625544000000000000000000000000436861726163746572730000000000005f1b82600185604051602001611a56919060609190911b6bffffffffffffffffffffffff1916815260140190565b60408051601f19818403018152919052665504022014200160c01b61294a565b6040805160018082528183019092525f916020808301908036833701905050905082815f81518110611aaa57611aaa6154ec565b6020026020010181815250506106f37f74625544000000000000000000000000436861726163746572730000000000005f1b825f85604051602001611a5691815260200190565b6040805160018082528183019092525f9160208083019080368337019050509050826001600160a01b03165f1b815f81518110611b3057611b306154ec565b6020026020010181815250506106f37f746255440000000000000000000000004368617261637465724f776e657200005f1b825f85604051602001611b7791815260200190565b60408051601f198184030181529190527e4002002020000000000000000000000000000000000000000000000000000061294a565b6040805160018082528183019092525f9160208083019080368337019050509050826001600160a01b03165f1b815f81518110611beb57611beb6154ec565b6020026020010181815250506106f37f746255440000000000000000000000004368617261637465724f776e657200005f1b82600185604051602001611b7791815260200190565b6040805160018082528183019092525f918291906020808301908036833701905050905082815f81518110611c6a57611c6a6154ec565b60209081029190910101525f611cc17f746255440000000000000000000000004e616d6545786973747300000000000083837e01010001000000000000000000000000000000000000000000000000000000612681565b90506116448160f81c90565b6040805160018082528183019092525f916020808301908036833701905050905082815f81518110611d0157611d016154ec565b6020026020010181815250506106f37f746255440000000000000000000000004e616d654578697374730000000000005f1b825f85604051602001611d4d91151560f81b815260010190565b60408051601f198184030181529190527e0101000100000000000000000000000000000000000000000000000000000061294a565b6040805160018082528183019092525f916020808301908036833701905050905082815f81518110611db657611db66154ec565b6020026020010181815250506106f37f74625544000000000000000000000000436861726163746572730000000000005f1b82600285604051602001611a5691815260200190565b61165e611e2a7f4368617261637465727300000000000000000000000000000000000000000000612cf8565b8383612d44565b6040805160018082528183019092526060915f91906020808301908036833701905050905082815f81518110611e6957611e696154ec565b60209081029190910101525f6116447f7462554400000000000000000000000043686172616374657273000000000000836001612d92565b6040805160018082528183019092525f918291906020808301908036833701905050905082815f81518110611ed857611ed86154ec565b60209081029190910101525f6116447f74625544000000000000000000000000537461747300000000000000000000008360057ee1080020200120202020200000000000000000000000000000000000000000612681565b6040805160018082528183019092525f916020808301908036833701905050905082815f81518110611f6457611f646154ec565b60209081029190910101526106f37f746255440000000000000000000000004368617261637465727300000000000082600185612e4c565b5f611fa684611662565b8351815260208085015190820152604084015160608083019190915260808086018051918401919091525160a083015260e08201849052840151909150611fee908590611711565b611ff88482611872565b50505050565b6040805160018082528183019092525f9182919060208083019080368337019050509050825f1b815f81518110612037576120376154ec565b60209081029190910101525f6116447f746255440000000000000000000000004c6576656c73000000000000000000008383630100080160dd1b612681565b6040805160018082528183019092525f918291906020808301908036833701905050905082815f815181106120ad576120ad6154ec565b60209081029190910101525f6121057f74625544000000000000000000000000537461747300000000000000000000008360027ee1080020200120202020200000000000000000000000000000000000000000612681565b905060f881901c600281111561164457611644614f23565b6040805160018082528183019092525f918291906020808301908036833701905050905082815f81518110612154576121546154ec565b60209081029190910101525f6116447f7462554400000000000000000000000043686172616374657273000000000000836002665504022014200160c01b612681565b5f610712612aac565b6040805160018082528183019092525f918291906020808301908036833701905050905082815f815181106121d7576121d76154ec565b60209081029190910101525f611cc17f7462554400000000000000000000000043686172616374657273000000000000836003665504022014200160c01b612681565b6040805160018082528183019092525f916020808301908036833701905050905082815f8151811061224e5761224e6154ec565b60209081029190910101526106f37f7462554400000000000000000000000053746174730000000000000000000000826002858181111561229157612291614f23565b6040516020016122cc919060f89190911b7fff0000000000000000000000000000000000000000000000000000000000000016815260010190565b60408051601f198184030181529190527ee108002020012020202020000000000000000000000000000000000000000061294a565b60605f8061231661231185615500565b612eec565b91509150815f801b0361237a576040517ffdde54e20000000000000000000000000000000000000000000000000000000081527fffffffff000000000000000000000000000000000000000000000000000000005f351660048201526024016106e0565b6020840180517bffffffffffffffffffffffffffffffffffffffffffffffffffffffff16821790526116448285612fb9565b6123ef6040518060c001604052805f81526020015f6001600160a01b031681526020015f80191681526020015f1515815260200160608152602001606081525090565b6040805160018082528183019092525f916020808301908036833701905050905082815f81518110612423576124236154ec565b60209081029190910101525f80806124667f746255440000000000000000000000004368617261637465727300000000000085665504022014200160c01b612808565b92509250925061170783838361308c565b80516020808301516040808501516060808701518351958601969096529290921b6bffffffffffffffffffffffff191683820152605483019190915291151560f81b60748201528151808203605501815260759091019091525f6124e383608001518460a0015161310f565b90505f6124f884608001518560a0015161312b565b6040805160018082528183019092529192505f91906020808301908036833701905050905085815f81518110612530576125306154ec565b602090810291909101015261116e7f746255440000000000000000000000004368617261637465727300000000000082868686612a37565b6040805160018082528183019092525f918291906020808301908036833701905050905082815f8151811061259f5761259f6154ec565b60209081029190910101525f6125e27f7462554400000000000000000000000043686172616374657273000000000000836001665504022014200160c01b612681565b60601c949350505050565b5f610712613157565b6040805160018082528183019092525f918291906020808301908036833701905050905082815f8151811061262d5761262d6154ec565b60209081029190910101525f6116447f74625544000000000000000000000000537461747300000000000000000000008360067ee10800202001202020202000000000000000000000000000000000000000005b5f8061268b613157565b9050306001600160a01b038216036126b1576126a986868686613195565b915050611644565b6040517f8c364d590000000000000000000000000000000000000000000000000000000081526001600160a01b03821690638c364d59906126fc908990899089908990600401615585565b602060405180830381865afa158015612717573d5f803e3d5ffd5b505050506040513d601f19601f820116820180604052508101906126a991906155b3565b6040805160018082528183019092525f9182919060208083019080368337019050509050826001600160a01b03165f1b815f8151811061277d5761277d6154ec565b60209081029190910101525f6116447f7462776f726c6400000000000000000053797374656d526567697374727900008383630100080160dd1b612681565b6127c682826131c1565b61165e576127d38261321e565b816040517fd787b7370000000000000000000000000000000000000000000000000000000081526004016106e09291906155ca565b60605f60605f612816613157565b9050306001600160a01b0382160361283f5761283387878761334b565b935093509350506128c9565b6040517f419b58fd0000000000000000000000000000000000000000000000000000000081526001600160a01b0382169063419b58fd90612888908a908a908a906004016155f4565b5f60405180830381865afa1580156128a2573d5f803e3d5ffd5b505050506040513d5f823e601f3d908101601f19168201604052612833919081019061561c565b93509350939050565b6128da614d47565b6128e38461344c565b60e0890181905260c0890182905260a08901839052608089018490526060890185905288602081016040820188600281111561292157612921614f23565b600281111561293257612932614f23565b90529790975250505093909252509195945050505050565b5f612953613157565b9050306001600160a01b038216036129775761297286868686866134b5565b61116e565b6040517f390baae00000000000000000000000000000000000000000000000000000000081526001600160a01b0382169063390baae0906129c4908990899089908990899060040161567a565b5f604051808303815f87803b1580156129db575f80fd5b505af11580156129ed573d5f803e3d5ffd5b50505050505050505050565b60608888888888888888604051602001612a1a9897969594939291906156c0565b604051602081830303815290604052905098975050505050505050565b5f612a40613157565b9050306001600160a01b03821603612a5f5761297286868686866134ca565b6040517f298314fb0000000000000000000000000000000000000000000000000000000081526001600160a01b0382169063298314fb906129c49089908990899089908990600401615705565b604080515f808252602082019092525f612b087f74625544000000000000000000000000556c74696d617465446f6d696e696f6e8360027e99080001141414141414200000000000000000000000000000000000000000612681565b60601c9392505050565b6040805160028082526060820183525f9283929190602083019080368337019050509050836001600160a01b03165f1b815f81518110612b5457612b546154ec565b602002602001018181525050825f1b81600181518110612b7657612b766154ec565b60209081029190910101525f612bb57f74625544000000000000000000000000436f756e7465727300000000000000008383630100080160dd1b612681565b95945050505050565b6040805160028082526060820183525f92602083019080368337019050509050836001600160a01b03165f1b815f81518110612bfc57612bfc6154ec565b602002602001018181525050825f1b81600181518110612c1e57612c1e6154ec565b602002602001018181525050611ff87f74625544000000000000000000000000436f756e7465727300000000000000005f1b825f85604051602001612c6591815260200190565b60408051601f19818403018152919052630100080160dd1b61294a565b5f612c8f6070601061541b565b6fffffffffffffffffffffffffffffffff198316901c601084901c7dffffffffffffffffffffffffffff00000000000000000000000000000000167fffff0000000000000000000000000000000000000000000000000000000000008616171790509392505050565b5f6105107f7462000000000000000000000000000000000000000000000000000000000000837f546f6b656e555249000000000000000000000000000000000000000000000000612c82565b6040805160018082528183019092525f9160208083019080368337019050509050825f1b815f81518110612d7a57612d7a6154ec565b602002602001018181525050611ff884825f85612e4c565b60605f612d9d613157565b9050306001600160a01b03821603612dc257612dba8585856134e0565b9150506112e9565b6040517f1e7889770000000000000000000000000000000000000000000000000000000081526001600160a01b03821690631e78897790612e0b90889088908890600401615755565b5f60405180830381865afa158015612e25573d5f803e3d5ffd5b505050506040513d5f823e601f3d908101601f19168201604052612dba91908101906152a6565b5f612e55613157565b9050306001600160a01b03821603612e7857612e7385858585613519565b611586565b6040517fef6ea8620000000000000000000000000000000000000000000000000000000081526001600160a01b0382169063ef6ea86290612ec3908890889088908890600401615780565b5f604051808303815f87803b158015612eda575f80fd5b505af1158015610e26573d5f803e3d5ffd5b6040805160018082528183019092525f918291829160208083019080368337019050509050837bffffffffffffffffffffffffffffffffffffffffffffffffffffffff1916815f81518110612f4357612f436154ec565b60209081029190910101525f8080612f9b7f7462776f726c6400000000000000000046756e6374696f6e53656c6563746f72857e24020020040000000000000000000000000000000000000000000000000000612808565b925092509250612fac838383613551565b9550955050505050915091565b60605f612fc46125ed565b90506001600160a01b0381163003613003575f612fea612fe2611917565b5f8787613568565b9350905080612ffc57612ffc8361369f565b5050610510565b6040517f3ae7af080000000000000000000000000000000000000000000000000000000081526001600160a01b03821690633ae7af089061304a908790879060040161524c565b5f604051808303815f875af1158015613065573d5f803e3d5ffd5b505050506040513d5f823e601f3d908101601f1916820160405261164491908101906152a6565b6130cf6040518060c001604052805f81526020015f6001600160a01b031681526020015f80191681526020015f1515815260200160608152602001606081525090565b6130d8846136a7565b1515606085015260408401526001600160a01b0316602083015281526130fe83836136e6565b60a083015260808201529392505050565b815181515f9181810160389190911b1760609190911b176112e9565b606082826040516020016131409291906157be565b604051602081830303815290604052905092915050565b7f629a4c26e296b22a8e0856e9f6ecb2d1008d7e00081111962cd175fa7488e175545f906001600160a01b031680613190573391505090565b919050565b5f612bb56131a38686613734565b60ff858116601b0360080285901c166131bc8587613789565b6137b9565b5f61320e7f6e730000000000000000000000000000000000000000000000000000000000007dffffffffffffffffffffffffffff0000000000000000000000000000000085161783613809565b806112e957506112e98383613809565b606081601081901b5f613230836138ce565b9050827fffffffffffffffffffffffffffff00000000000000000000000000000000000083161561328b576132867fffffffffffffffffffffffffffff00000000000000000000000000000000000084166138e4565b6132c2565b6040518060400160405280600681526020017f3c726f6f743e00000000000000000000000000000000000000000000000000008152505b6fffffffffffffffffffffffffffffffff198316156132e9576132e4836138e4565b613320565b6040518060400160405280600681526020017f3c726f6f743e00000000000000000000000000000000000000000000000000008152505b604051602001613332939291906157ec565b6040516020818303038152906040529350505050919050565b60605f60605f61335a85613969565b905061336787878361398b565b93505f613373866139c0565b905080156134415761338588886139fc565b935066ffffffffffffff841667ffffffffffffffff8111156133a9576133a9614e1d565b6040519080825280601f01601f1916602001820160405280156133d3576020820181803683370190505b509250602083015f5b828160ff16101561343e575f6133f38b8b84613a0e565b90505f61340f888460ff166028026038011c64ffffffffff1690565b905061341d825f8387613a8c565b613427818561541b565b93505050808061343690615879565b9150506133dc565b50505b505093509350939050565b5f805f805f805f80613461895f016020015190565b60408a015160608b0151919950975060f81c600281111561348457613484614f23565b60618a015160818b015160a18c015160c18d015160e1909d01519b9d9a9c939b929a91995097509195509350915050565b61158685856134c48487613789565b85613b53565b61158685858585856134db8b613de7565b613e6a565b60606116446134f0858585613a0e565b5f613514856134ff89896139fc565b9060ff166028026038011c64ffffffffff1690565b61418c565b5f61352485856139fc565b90505f613540828560ff166028026038011c64ffffffffff1690565b905061116e8686865f8588886141af565b5f8061355c856145d4565b90969095509350505050565b5f60605f80613576866145e8565b90925090506001600160a01b0382166135c757856135938761321e565b6040517ffbf10ce60000000000000000000000000000000000000000000000000000000081526004016106e092919061524c565b806135d6576135d686896127bc565b8615613641577dffffffffffffffffffffffffffff0000000000000000000000000000000086167f6e73000000000000000000000000000000000000000000000000000000000000175f61362982614689565b905061363e826136398b8461541b565b6146ff565b50505b5f61364c8760101b90565b7fffffffffffffffffffffffffffff00000000000000000000000000000000000016146136845761367f88888488614797565b613690565b6136908888848861480a565b90999098509650505050505050565b805160208201fd5b5f805f806136b8855f016020015190565b6040860151605487015191955060601c935060748601519092506136dd905b60f81c90565b90509193509193565b6060805f603885901c64ffffffffff16613709613704868484614867565b6148f3565b935090508064ffffffffff606087901c1601613729613704868484614867565b925050509250929050565b5f8282604051602001613748929190615897565b60408051601f1981840301815291905280516020909101207f86425bff6b57326c7859e89024fe4f238ca327a1ae4a230180dd2f0e88aaa7d9189392505050565b5f80805b8360ff16811015610988576137af60ff601b83900360080287901c168361541b565b915060010161378d565b5f602082106137de576020820484019350602082816137da576137da6153b1565b0691505b508254600882021b602082900380841115610988576001850154600882021c82179150509392505050565b6040805160028082526060820183525f928392919060208301908036833701905050905083815f81518110613840576138406154ec565b602002602001018181525050826001600160a01b03165f1b8160018151811061386b5761386b6154ec565b60209081029190910101525f6138c27f7462776f726c640000000000000000005265736f75726365416363657373000083837e01010001000000000000000000000000000000000000000000000000000000613195565b9050612bb58160f81c90565b5f6138db6070601061541b565b9190911b919050565b60605f5b6010811015613939576fffffffffffffffffffffffffffffffff198316600882021b7fff000000000000000000000000000000000000000000000000000000000000001615613939576001016138e8565b604080516fffffffffffffffffffffffffffffffff19851660208201528151603090910190915281815280611644565b5f600861397860026020615486565b61398291906158d1565b9190911c919050565b6060815f036139a8575060408051602081019091525f81526112e9565b5f6139b38585613734565b9050612bb5815f8561418c565b5f60086001806139d260026020615486565b6139dc9190615486565b6139e69190615486565b6139f091906158d1565b8260ff911c1692915050565b5f6112e9613a0a8484614972565b5490565b5f8383604051602001613a22929190615897565b604051602081830303815290604052805190602001208260f81b7effffffffffffffffffffffffffffffffffffffffffffffffffffffffffffff19167f3b4102da22e32d82fc925482184f16c09fd4281692720b87d124aef6da48a0f118185f1c90509392505050565b8215613b105760208310613ab657602083048401935060208381613ab257613ab26153b1565b0692505b8215613b105760208390035f81841015613ad757505f19600884021c613ae0565b505f19600882021c5b8554600886021b818451168219821617845250818411613b01575050611ff8565b50600194909401939182900391015b5b60208210613b325783548152600190930192601f1990910190602001613b11565b8115611ff8575f5f19600884021c8251865482191691161782525050505050565b7f6f74000000000000000000000000000000000000000000000000000000000000847fffff0000000000000000000000000000000000000000000000000000000000001603613bdd57837f8c0b5119d4cec7b284c6b1b39252a03d1e2f2d7451a5895562524c113bb952be848484604051613bd0939291906158e8565b60405180910390a2611ff8565b5f613be88585613734565b90505f613bf4866149c7565b90505f5b8151811015613cc2575f828281518110613c1457613c146154ec565b60200260200101519050613c406004826affffffffffffffffffffff1916614a4c90919063ffffffff16565b15613cb9576040517f964f667d000000000000000000000000000000000000000000000000000000008152606082901c9063964f667d90613c8b908b908b908b908b9060040161591a565b5f604051808303815f87803b158015613ca2575f80fd5b505af1158015613cb4573d5f803e3d5ffd5b505050505b50600101613bf8565b50857f8c0b5119d4cec7b284c6b1b39252a03d1e2f2d7451a5895562524c113bb952be868686604051613cf7939291906158e8565b60405180910390a2613d12828565ffffffffffff1685614a69565b5f5b8151811015613dde575f828281518110613d3057613d306154ec565b60200260200101519050613d5c6008826affffffffffffffffffffff1916614a4c90919063ffffffff16565b15613dd5576040517fa8ba8721000000000000000000000000000000000000000000000000000000008152606082901c9063a8ba872190613da7908b908b908b908b9060040161591a565b5f604051808303815f87803b158015613dbe575f80fd5b505af1158015613dd0573d5f803e3d5ffd5b505050505b50600101613d14565b50505050505050565b5f7f8b9d8c8b908d9affffffffffffffffffab9e9d939a8d000000000000000000008201613e3557507e60030220202000000000000000000000000000000000000000000000000000919050565b610510613e627f746273746f72650000000000000000005461626c65730000000000000000000084614a7f565b60205f6137b9565b7f6f74000000000000000000000000000000000000000000000000000000000000867fffff0000000000000000000000000000000000000000000000000000000000001603613ef657857f8dbb3a9672eebfd3773e72dd9c102393436816d832c7ba9e1e1ac8fcadcac7a986868686604051613ee99493929190615952565b60405180910390a261116e565b5f613f00876149c7565b90505f5b8151811015613fd2575f828281518110613f2057613f206154ec565b60200260200101519050613f4c6001826affffffffffffffffffffff1916614a4c90919063ffffffff16565b15613fc9576040517f57066c9c000000000000000000000000000000000000000000000000000000008152606082901c906357066c9c90613f9b908c908c908c908c908c908c90600401615990565b5f604051808303815f87803b158015613fb2575f80fd5b505af1158015613fc4573d5f803e3d5ffd5b505050505b50600101613f04565b50867f8dbb3a9672eebfd3773e72dd9c102393436816d832c7ba9e1e1ac8fcadcac7a9878787876040516140099493929190615952565b60405180910390a25f61401c8888613734565b90505f602087019050614032825f895184614a9a565b5f61403c856139c0565b11156140bc575f61404d8a8a614972565b87815590506020860191505f805f5b614065886139c0565b8160ff1610156140b75761407a8d8d83613a0e565b92506140958a8260ff166028026038011c64ffffffffff1690565b91506140a3835f8488614a9a565b6140ad828661541b565b945060010161405c565b505050505b5f5b83518110156129ed575f8482815181106140da576140da6154ec565b602002602001015190506141066002826affffffffffffffffffffff1916614a4c90919063ffffffff16565b15614183576040517f5b28cdaf000000000000000000000000000000000000000000000000000000008152606082901c90635b28cdaf90614155908e908e908e908e908e908e90600401615990565b5f604051808303815f87803b15801561416c575f80fd5b505af115801561417e573d5f803e3d5ffd5b505050505b506001016140be565b60405160208101601f19603f848401011660405282825261098885858584613a8c565b7f7462000000000000000000000000000000000000000000000000000000000000877fffff000000000000000000000000000000000000000000000000000000000000161461426f577f7462000000000000000000000000000000000000000000000000000000000000878860405160200161422d91815260200190565b60408051601f19818403018152908290527f31b466830000000000000000000000000000000000000000000000000000000082526106e09392916004016159e8565b5f614289828760ff166028026038011c64ffffffffff1690565b90505f83518564ffffffffff16836142a19190615486565b6142ab919061541b565b90508082141580156142cd5750816142c38688615a28565b64ffffffffff1614155b1561431d576040517fa65010b400000000000000000000000000000000000000000000000000000000815264ffffffffff80881660048301528087166024830152831660448201526064016106e0565b818664ffffffffff16111561436e576040517f7e8578d30000000000000000000000000000000000000000000000000000000081526004810183905264ffffffffff871660248201526044016106e0565b5f61437a848984614b55565b90505f6143868b6149c7565b90505f5b815181101561444a575f8282815181106143a6576143a66154ec565b602002602001015190506143d26010826affffffffffffffffffffff1916614a4c90919063ffffffff16565b1561444157606081901c6001600160a01b03166355eb5a288e8e8e8e8e8d8f6040518863ffffffff1660e01b81526004016144139796959493929190615a46565b5f604051808303815f87803b15801561442a575f80fd5b505af115801561443c573d5f803e3d5ffd5b505050505b5060010161438a565b5064ffffffffff88165f5b8a60ff168160ff1610156144885761447c878260ff166028026038011c64ffffffffff1690565b90910190600101614455565b508b7ffe158a7adba34e256807c8a149028d3162918713c3838afc643ce9f96716ebfd8c8c848c888d6040516144c396959493929190615aa3565b60405180910390a2508284146144e3575f6144de8c8c614972565b839055505b5f6144ef8c8c8c613a0e565b9050614503818a64ffffffffff1689614a69565b505f5b81518110156145c6575f828281518110614522576145226154ec565b6020026020010151905061454e6020826affffffffffffffffffffff1916614a4c90919063ffffffff16565b156145bd57606081901c6001600160a01b031663635845338e8e8e8e8e8a8f6040518863ffffffff1660e01b815260040161458f9796959493929190615a46565b5f604051808303815f87803b1580156145a6575f80fd5b505af11580156145b8573d5f803e3d5ffd5b505050505b50600101614506565b505050505050505050505050565b602081015160408201515f905b9050915091565b6040805160018082528183019092525f91829182916020808301908036833701905050905083815f81518110614620576146206154ec565b60209081029190910101525f80806146787f7462776f726c6400000000000000000053797374656d73000000000000000000857e1502001401000000000000000000000000000000000000000000000000000061334b565b925092509250612fac838383614c22565b6040805160018082528183019092525f918291906020808301908036833701905050905082815f815181106146c0576146c06154ec565b60209081029190910101525f6116447f7462776f726c6400000000000000000042616c616e63657300000000000000008383630100080160dd1b613195565b6040805160018082528183019092525f916020808301908036833701905050905082815f81518110614733576147336154ec565b6020026020010181815250506106f37f7462776f726c6400000000000000000042616c616e63657300000000000000005f1b825f8560405160200161477a91815260200190565b60408051601f19818403018152919052630100080160dd1b6134b5565b5f6060836001600160a01b03165f6147b0858989614c2d565b6040516147bd9190615afe565b5f6040518083038185875af1925050503d805f81146147f7576040519150601f19603f3d011682016040523d82523d5f602084013e6147fc565b606091505b509097909650945050505050565b5f6060836001600160a01b0316614822848888614c2d565b60405161482f9190615afe565b5f60405180830381855af49150503d805f81146147f7576040519150601f19603f3d011682016040523d82523d5f602084013e6147fc565b5f818311806148765750835182115b156148b3578383836040517f23230fa30000000000000000000000000000000000000000000000000000000081526004016106e093929190615b19565b602084016148c1848261541b565b90505f6148ce8585615486565b6fffffffffffffffffffffffffffffffff1660809290921b9190911795945050505050565b60605f6149008360801c90565b90506fffffffffffffffffffffffffffffffff83168067ffffffffffffffff81111561492e5761492e614e1d565b6040519080825280601f01601f191660200182016040528015614958576020820181803683370190505b5092506020830161496a838284614c5c565b505050919050565b5f8282604051602001614986929190615897565b60408051601f1981840301815291905280516020909101207f14e2fcc58e58e68ec7edc30c8d50dccc3ce2714a623ec81f46b6a63922d76569189392505050565b6040805160018082528183019092526060915f91906020808301908036833701905050905082815f815181106149ff576149ff6154ec565b60209081029190910101525f614a367f746273746f726500000000000000000053746f7265486f6f6b7300000000000083836134e0565b9050611644614a47825f8451614867565b614ca4565b5f8160ff1682614a5c8560581c90565b1660ff1614905092915050565b6106f383838351614a7a8560200190565b614a9a565b60408051602081018490529081018290525f90606001613748565b8215614b125760208310614ac457602083048401935060208381614ac057614ac06153b1565b0692505b8215614b125760208390035f5f19600885021c1990506008850281811c91508351811c9050811987541682821617875550818411614b03575050611ff8565b50600194909401939182900391015b5b60208210614b345780518455600190930192601f1990910190602001614b13565b8115611ff8575f5f19600884021c8554835182191691161785555050505050565b5f64ffffffffff821115614b98576040517f7149a3c1000000000000000000000000000000000000000000000000000000008152600481018390526024016106e0565b8366ffffffffffffff811660ff851660280260380182901c64ffffffffff16808510614bca5780850382019150614bd2565b848103820391505b5064ffffffffff6038602860ff8816020181811b197fffffffffffffffffffffffffffffffffffffffffffffffffff000000000000009490941690921792909216918416901b1790509392505050565b5f8061355c85614cb3565b6060838383604051602001614c4493929190615b3d565b60405160208183030381529060405290509392505050565b5b60208110614c7c578251825260209283019290910190601f1901614c5d565b805f03614c8857505050565b5f5f19600883021c905080835116811985511617835250505050565b60605f6112e98360155f614ccf565b6020810151603482015160609190911c905f906145e1906136d7565b60605f614cdc8560801c90565b90506fffffffffffffffffffffffffffffffff85165f858281614d0157614d016153b1565b0490506040519350602084016020820281016040528185525f5b82811015614d3b578451871c825293870193602090910190600101614d1b565b50505050509392505050565b6040518061010001604052805f81526020015f81526020015f6002811115614d7157614d71614f23565b81526020015f81526020015f81526020015f81526020015f81526020015f81525090565b5f60208284031215614da5575f80fd5b5035919050565b5f60208284031215614dbc575f80fd5b81357fffffffff00000000000000000000000000000000000000000000000000000000811681146112e9575f80fd5b6001600160a01b0381168114614dff575f80fd5b50565b5f60208284031215614e12575f80fd5b81356112e981614deb565b634e487b7160e01b5f52604160045260245ffd5b60405160c0810167ffffffffffffffff81118282101715614e5457614e54614e1d565b60405290565b604051610100810167ffffffffffffffff81118282101715614e5457614e54614e1d565b604051601f8201601f1916810167ffffffffffffffff81118282101715614ea757614ea7614e1d565b604052919050565b5f8082840360e0811215614ec1575f80fd5b8335925060c0601f1982011215614ed6575f80fd5b50614edf614e31565b6020840135815260408401356020820152606084013560408201526080840135606082015260a0840135608082015260c084013560a0820152809150509250929050565b634e487b7160e01b5f52602160045260245ffd5b60038110614dff57634e487b7160e01b5f52602160045260245ffd5b81518152602080830151908201526040820151610100820190614f7581614f37565b80604084015250606083015160608301526080830151608083015260a083015160a083015260c083015160c083015260e083015160e083015292915050565b5f67ffffffffffffffff821115614fcd57614fcd614e1d565b50601f01601f191660200190565b5f82601f830112614fea575f80fd5b8135614ffd614ff882614fb4565b614e7e565b818152846020838601011115615011575f80fd5b816020850160208301375f918101602001919091529392505050565b5f805f6060848603121561503f575f80fd5b833561504a81614deb565b925060208401359150604084013567ffffffffffffffff81111561506c575f80fd5b61507886828701614fdb565b9150509250925092565b60038110614dff575f80fd5b5f808284036101208112156150a1575f80fd5b8335925061010080601f19830112156150b8575f80fd5b6150c0614e5a565b9150602085013582526040850135602083015260608501356150e181615082565b806040840152506080850135606083015260a0850135608083015260c085013560a083015260e085013560c08301528085013560e083015250809150509250929050565b6020810161513283614f37565b91905290565b5f805f6060848603121561514a575f80fd5b8335925060208401359150604084013561516381615082565b809150509250925092565b5f806040838503121561517f575f80fd5b82359150602083013561519181614deb565b809150509250929050565b5f80604083850312156151ad575f80fd5b82359150602083013567ffffffffffffffff8111156151ca575f80fd5b6151d685828601614fdb565b9150509250929050565b5f602082840312156151f0575f80fd5b815180151581146112e9575f80fd5b5f5b83811015615219578181015183820152602001615201565b50505f910152565b5f81518084526152388160208601602086016151ff565b601f01601f19169290920160200192915050565b828152604060208201525f6116446040830184615221565b5f82601f830112615273575f80fd5b8151615281614ff882614fb4565b818152846020838601011115615295575f80fd5b6116448260208301602087016151ff565b5f602082840312156152b6575f80fd5b815167ffffffffffffffff8111156152cc575f80fd5b61164484828501615264565b5f61010082840312156152e9575f80fd5b6152f1614e5a565b8251815260208301516020820152604083015161530d81615082565b80604083015250606083015160608201526080830151608082015260a083015160a082015260c083015160c082015260e083015160e08201528091505092915050565b634e487b7160e01b5f52601160045260245ffd5b8181035f83128015838313168383128216171561538357615383615350565b5092915050565b8082018281125f8312801582168215821617156153a9576153a9615350565b505092915050565b634e487b7160e01b5f52601260045260245ffd5b5f826153df57634e487b7160e01b5f52601260045260245ffd5b500690565b5f7f7fffffffffffffffffffffffffffffffffffffffffffffffffffffffffffffff820361541457615414615350565b5060010190565b8082018082111561051057610510615350565b5f60c0828403121561543e575f80fd5b615446614e31565b825181526020830151602082015260408301516040820152606083015160608201526080830151608082015260a083015160a08201528091505092915050565b8181038181111561051057610510615350565b5f5f19820361541457615414615350565b5f602082840312156154ba575f80fd5b81516112e981614deb565b8381526154d183614f37565b826020820152606060408201525f612bb56060830184615221565b634e487b7160e01b5f52603260045260245ffd5b5f815160208301517fffffffff000000000000000000000000000000000000000000000000000000008082169350600483101561496a5760049290920360031b82901b161692915050565b5f815180845260208085019450602084015f5b8381101561557a5781518752958201959082019060010161555e565b509495945050505050565b848152608060208201525f61559d608083018661554b565b60ff949094166040830152506060015292915050565b5f602082840312156155c3575f80fd5b5051919050565b604081525f6155dc6040830185615221565b90506001600160a01b03831660208301529392505050565b838152606060208201525f61560c606083018561554b565b9050826040830152949350505050565b5f805f6060848603121561562e575f80fd5b835167ffffffffffffffff80821115615645575f80fd5b61565187838801615264565b945060208601519350604086015191508082111561566d575f80fd5b5061507886828701615264565b85815260a060208201525f61569260a083018761554b565b60ff8616604084015282810360608401526156ad8186615221565b9150508260808301529695505050505050565b8881528760208201526156d287614f37565b60f89690961b604087015260418601949094526061850192909252608184015260a183015260c182015260e10192915050565b85815260a060208201525f61571d60a083018761554b565b828103604084015261572f8187615221565b905084606084015282810360808401526157498185615221565b98975050505050505050565b838152606060208201525f61576d606083018561554b565b905060ff83166040830152949350505050565b848152608060208201525f615798608083018661554b565b60ff8516604084015282810360608401526157b38185615221565b979650505050505050565b5f83516157cf8184602088016151ff565b8351908301906157e38183602088016151ff565b01949350505050565b7fffff000000000000000000000000000000000000000000000000000000000000841681525f7f3a00000000000000000000000000000000000000000000000000000000000000806002840152845161584c8160038601602089016151ff565b80840190508160038201528451915061586c8260048301602088016151ff565b0160040195945050505050565b5f60ff821660ff810361588e5761588e615350565b60010192915050565b8281525f60208083018451602086015f5b828110156158c4578151845292840192908401906001016158a8565b5091979650505050505050565b808202811582820484141761051057610510615350565b606081525f6158fa606083018661554b565b65ffffffffffff8516602084015282810360408401526117078185615221565b848152608060208201525f615932608083018661554b565b65ffffffffffff8516604084015282810360608401526157b38185615221565b608081525f615964608083018761554b565b82810360208401526159768187615221565b905084604084015282810360608401526157b38185615221565b86815260c060208201525f6159a860c083018861554b565b82810360408401526159ba8188615221565b905085606084015282810360808401526159d48186615221565b9150508260a0830152979650505050505050565b7fffff00000000000000000000000000000000000000000000000000000000000084168152826020820152606060408201525f612bb56060830184615221565b64ffffffffff81811683821601908082111561538357615383615350565b87815260e060208201525f615a5e60e083018961554b565b60ff8816604084015264ffffffffff87811660608501528616608084015260a0830185905282810360c0840152615a958185615221565b9a9950505050505050505050565b60c081525f615ab560c083018961554b565b60ff8816602084015265ffffffffffff8716604084015264ffffffffff8616606084015284608084015282810360a0840152615af18185615221565b9998505050505050505050565b5f8251615b0f8184602087016151ff565b9190910192915050565b606081525f615b2b6060830186615221565b60208301949094525060400152919050565b5f8451615b4e8184602089016151ff565b60609490941b6bffffffffffffffffffffffff19169190930190815260148101919091526034019291505056fea2646970667358221220589db00194cf4c8bbfc4068145cc947f37904795e98bddd76a9088522da6e35264736f6c63430008180033","linkReferences":{}},"methodIdentifiers":{"_msgSender()":"119df25f","_msgValue()":"45ec9354","_world()":"e1af802c","enterGame(bytes32)":"c74dedc8","getBaseStats(bytes32)":"7163c6ba","getCharacterIdFromOwnerAddress(address)":"06a3432f","getCharacterTokenId(bytes32)":"f8c67561","getClass(bytes32)":"23801570","getCurrentAvailableLevel(uint256)":"1ecb393f","getExperience(bytes32)":"ebee03bb","getName(bytes32)":"54b8d5e3","getOwner(bytes32)":"deb931a2","getOwnerAddress(bytes32)":"00d43ec6","getPlayerEntityId(uint256)":"8338f0e0","getStats(bytes32)":"0bb700dc","isValidCharacterId(bytes32)":"623daa05","isValidOwner(bytes32,address)":"9b63ec05","levelCharacter(bytes32,(int256,int256,uint8,int256,int256,int256,uint256,uint256))":"1b5cdcc4","mintCharacter(address,bytes32,string)":"143f3021","rollStats(bytes32,bytes32,uint8)":"679ee16d","setStats(bytes32,(int256,int256,int256,int256,int256,int256))":"09a4fa6e","supportsInterface(bytes4)":"01ffc9a7","updateTokenUri(bytes32,string)":"b27cbcbb"},"id":212}