{
    "abi": [
        {
            "type": "function",
            "name": "_msgSender",
            "inputs": [],
            "outputs": [
                {
                    "name": "sender",
                    "type": "address",
                    "internalType": "address"
                }
            ],
            "stateMutability": "view"
        },
        {
            "type": "function",
            "name": "_msgValue",
            "inputs": [],
            "outputs": [
                {
                    "name": "value",
                    "type": "uint256",
                    "internalType": "uint256"
                }
            ],
            "stateMutability": "pure"
        },
        {
            "type": "function",
            "name": "_world",
            "inputs": [],
            "outputs": [
                {
                    "name": "",
                    "type": "address",
                    "internalType": "address"
                }
            ],
            "stateMutability": "view"
        },
        {
            "type": "function",
            "name": "enterGame",
            "inputs": [
                {
                    "name": "characterId",
                    "type": "bytes32",
                    "internalType": "bytes32"
                }
            ],
            "outputs": [],
            "stateMutability": "nonpayable"
        },
        {
            "type": "function",
            "name": "getCharacterTokenId",
            "inputs": [
                {
                    "name": "characterId",
                    "type": "bytes32",
                    "internalType": "bytes32"
                }
            ],
            "outputs": [
                {
                    "name": "",
                    "type": "uint256",
                    "internalType": "uint256"
                }
            ],
            "stateMutability": "pure"
        },
        {
            "type": "function",
            "name": "getClass",
            "inputs": [
                {
                    "name": "characterId",
                    "type": "bytes32",
                    "internalType": "bytes32"
                }
            ],
            "outputs": [
                {
                    "name": "_class",
                    "type": "uint8",
                    "internalType": "enum Classes"
                }
            ],
            "stateMutability": "view"
        },
        {
            "type": "function",
            "name": "getCurrentLevel",
            "inputs": [
                {
                    "name": "experience",
                    "type": "uint256",
                    "internalType": "uint256"
                }
            ],
            "outputs": [
                {
                    "name": "currentLevel",
                    "type": "uint256",
                    "internalType": "uint256"
                }
            ],
            "stateMutability": "view"
        },
        {
            "type": "function",
            "name": "getExperience",
            "inputs": [
                {
                    "name": "characterId",
                    "type": "bytes32",
                    "internalType": "bytes32"
                }
            ],
            "outputs": [
                {
                    "name": "",
                    "type": "uint256",
                    "internalType": "uint256"
                }
            ],
            "stateMutability": "view"
        },
        {
            "type": "function",
            "name": "getName",
            "inputs": [
                {
                    "name": "characterId",
                    "type": "bytes32",
                    "internalType": "bytes32"
                }
            ],
            "outputs": [
                {
                    "name": "_name",
                    "type": "bytes32",
                    "internalType": "bytes32"
                }
            ],
            "stateMutability": "view"
        },
        {
            "type": "function",
            "name": "getOwner",
            "inputs": [
                {
                    "name": "characterId",
                    "type": "bytes32",
                    "internalType": "bytes32"
                }
            ],
            "outputs": [
                {
                    "name": "",
                    "type": "address",
                    "internalType": "address"
                }
            ],
            "stateMutability": "view"
        },
        {
            "type": "function",
            "name": "getOwnerAddress",
            "inputs": [
                {
                    "name": "characterId",
                    "type": "bytes32",
                    "internalType": "bytes32"
                }
            ],
            "outputs": [
                {
                    "name": "",
                    "type": "address",
                    "internalType": "address"
                }
            ],
            "stateMutability": "pure"
        },
        {
            "type": "function",
            "name": "getPlayerEntityId",
            "inputs": [
                {
                    "name": "characterTokenId",
                    "type": "uint256",
                    "internalType": "uint256"
                }
            ],
            "outputs": [
                {
                    "name": "characterId",
                    "type": "bytes32",
                    "internalType": "bytes32"
                }
            ],
            "stateMutability": "view"
        },
        {
            "type": "function",
            "name": "getStats",
            "inputs": [
                {
                    "name": "characterId",
                    "type": "bytes32",
                    "internalType": "bytes32"
                }
            ],
            "outputs": [
                {
                    "name": "",
                    "type": "tuple",
                    "internalType": "struct StatsData",
                    "components": [
                        {
                            "name": "strength",
                            "type": "uint256",
                            "internalType": "uint256"
                        },
                        {
                            "name": "agility",
                            "type": "uint256",
                            "internalType": "uint256"
                        },
                        {
                            "name": "intelligence",
                            "type": "uint256",
                            "internalType": "uint256"
                        },
                        {
                            "name": "maxHitPoints",
                            "type": "uint256",
                            "internalType": "uint256"
                        },
                        {
                            "name": "currentDamage",
                            "type": "int256",
                            "internalType": "int256"
                        },
                        {
                            "name": "experience",
                            "type": "uint256",
                            "internalType": "uint256"
                        },
                        {
                            "name": "level",
                            "type": "uint256",
                            "internalType": "uint256"
                        },
                        {
                            "name": "armor",
                            "type": "uint256",
                            "internalType": "uint256"
                        }
                    ]
                }
            ],
            "stateMutability": "view"
        },
        {
            "type": "function",
            "name": "mintCharacter",
            "inputs": [
                {
                    "name": "account",
                    "type": "address",
                    "internalType": "address"
                },
                {
                    "name": "name",
                    "type": "bytes32",
                    "internalType": "bytes32"
                },
                {
                    "name": "tokenUri",
                    "type": "string",
                    "internalType": "string"
                }
            ],
            "outputs": [
                {
                    "name": "characterId",
                    "type": "bytes32",
                    "internalType": "bytes32"
                }
            ],
            "stateMutability": "nonpayable"
        },
        {
            "type": "function",
            "name": "rollStats",
            "inputs": [
                {
                    "name": "userRandomNumber",
                    "type": "bytes32",
                    "internalType": "bytes32"
                },
                {
                    "name": "characterId",
                    "type": "bytes32",
                    "internalType": "bytes32"
                },
                {
                    "name": "class",
                    "type": "uint8",
                    "internalType": "enum Classes"
                }
            ],
            "outputs": [],
            "stateMutability": "payable"
        },
        {
            "type": "function",
            "name": "supportsInterface",
            "inputs": [
                {
                    "name": "interfaceId",
                    "type": "bytes4",
                    "internalType": "bytes4"
                }
            ],
            "outputs": [
                {
                    "name": "",
                    "type": "bool",
                    "internalType": "bool"
                }
            ],
            "stateMutability": "pure"
        },
        {
            "type": "event",
            "name": "Store_SpliceDynamicData",
            "inputs": [
                {
                    "name": "tableId",
                    "type": "bytes32",
                    "indexed": true,
                    "internalType": "ResourceId"
                },
                {
                    "name": "keyTuple",
                    "type": "bytes32[]",
                    "indexed": false,
                    "internalType": "bytes32[]"
                },
                {
                    "name": "dynamicFieldIndex",
                    "type": "uint8",
                    "indexed": false,
                    "internalType": "uint8"
                },
                {
                    "name": "start",
                    "type": "uint48",
                    "indexed": false,
                    "internalType": "uint48"
                },
                {
                    "name": "deleteCount",
                    "type": "uint40",
                    "indexed": false,
                    "internalType": "uint40"
                },
                {
                    "name": "encodedLengths",
                    "type": "bytes32",
                    "indexed": false,
                    "internalType": "EncodedLengths"
                },
                {
                    "name": "data",
                    "type": "bytes",
                    "indexed": false,
                    "internalType": "bytes"
                }
            ],
            "anonymous": false
        },
        {
            "type": "event",
            "name": "Store_SpliceStaticData",
            "inputs": [
                {
                    "name": "tableId",
                    "type": "bytes32",
                    "indexed": true,
                    "internalType": "ResourceId"
                },
                {
                    "name": "keyTuple",
                    "type": "bytes32[]",
                    "indexed": false,
                    "internalType": "bytes32[]"
                },
                {
                    "name": "start",
                    "type": "uint48",
                    "indexed": false,
                    "internalType": "uint48"
                },
                {
                    "name": "data",
                    "type": "bytes",
                    "indexed": false,
                    "internalType": "bytes"
                }
            ],
            "anonymous": false
        },
        {
            "type": "error",
            "name": "EncodedLengths_InvalidLength",
            "inputs": [
                {
                    "name": "length",
                    "type": "uint256",
                    "internalType": "uint256"
                }
            ]
        },
        {
            "type": "error",
            "name": "Slice_OutOfBounds",
            "inputs": [
                {
                    "name": "data",
                    "type": "bytes",
                    "internalType": "bytes"
                },
                {
                    "name": "start",
                    "type": "uint256",
                    "internalType": "uint256"
                },
                {
                    "name": "end",
                    "type": "uint256",
                    "internalType": "uint256"
                }
            ]
        },
        {
            "type": "error",
            "name": "Store_IndexOutOfBounds",
            "inputs": [
                {
                    "name": "length",
                    "type": "uint256",
                    "internalType": "uint256"
                },
                {
                    "name": "accessedIndex",
                    "type": "uint256",
                    "internalType": "uint256"
                }
            ]
        },
        {
            "type": "error",
            "name": "Store_InvalidResourceType",
            "inputs": [
                {
                    "name": "expected",
                    "type": "bytes2",
                    "internalType": "bytes2"
                },
                {
                    "name": "resourceId",
                    "type": "bytes32",
                    "internalType": "ResourceId"
                },
                {
                    "name": "resourceIdString",
                    "type": "string",
                    "internalType": "string"
                }
            ]
        },
        {
            "type": "error",
            "name": "Store_InvalidSplice",
            "inputs": [
                {
                    "name": "startWithinField",
                    "type": "uint40",
                    "internalType": "uint40"
                },
                {
                    "name": "deleteCount",
                    "type": "uint40",
                    "internalType": "uint40"
                },
                {
                    "name": "fieldLength",
                    "type": "uint40",
                    "internalType": "uint40"
                }
            ]
        },
        {
            "type": "error",
            "name": "World_AccessDenied",
            "inputs": [
                {
                    "name": "resource",
                    "type": "string",
                    "internalType": "string"
                },
                {
                    "name": "caller",
                    "type": "address",
                    "internalType": "address"
                }
            ]
        },
        {
            "type": "error",
            "name": "World_FunctionSelectorNotFound",
            "inputs": [
                {
                    "name": "functionSelector",
                    "type": "bytes4",
                    "internalType": "bytes4"
                }
            ]
        },
        {
            "type": "error",
            "name": "World_ResourceNotFound",
            "inputs": [
                {
                    "name": "resourceId",
                    "type": "bytes32",
                    "internalType": "ResourceId"
                },
                {
                    "name": "resourceIdString",
                    "type": "string",
                    "internalType": "string"
                }
            ]
        }
    ],
    "bytecode": {
        "object": "0x608060405234801561001057600080fd5b50613eb0806100206000396000f3fe6080604052600436106100f25760003560e01c806354b8d5e31161008a578063deb931a211610059578063deb931a214610303578063e1af802c14610323578063ebee03bb14610338578063f8c675611461035857600080fd5b806354b8d5e31461028e578063679ee16d146102ae5780638338f0e0146102c3578063c74dedc8146102e357600080fd5b8063143f3021116100c6578063143f3021146101fb57806323801570146102295780633d0854ae1461025657806345ec93541461027657600080fd5b8062d43ec6146100f757806301ffc9a7146101355780630bb700dc14610165578063119df25f146101e6575b600080fd5b34801561010357600080fd5b506101186101123660046135aa565b60601c90565b6040516001600160a01b0390911681526020015b60405180910390f35b34801561014157600080fd5b506101556101503660046135c3565b610384565b604051901515815260200161012c565b34801561017157600080fd5b506101856101803660046135aa565b61041d565b60405161012c9190600061010082019050825182526020830151602083015260408301516040830152606083015160608301526080830151608083015260a083015160a083015260c083015160c083015260e083015160e083015292915050565b3480156101f257600080fd5b5061011861046e565b34801561020757600080fd5b5061021b610216366004613689565b61047d565b60405190815260200161012c565b34801561023557600080fd5b506102496102443660046135aa565b6106df565b60405161012c9190613759565b34801561026257600080fd5b5061021b6102713660046135aa565b6106ea565b34801561028257600080fd5b5036601f19013561021b565b34801561029a57600080fd5b5061021b6102a93660046135aa565b610768565b6102c16102bc36600461376c565b610773565b005b3480156102cf57600080fd5b5061021b6102de3660046135aa565b6108eb565b3480156102ef57600080fd5b506102c16102fe3660046135aa565b610980565b34801561030f57600080fd5b5061011861031e3660046135aa565b610ab2565b34801561032f57600080fd5b50610118610abd565b34801561034457600080fd5b5061021b6103533660046135aa565b610ac7565b34801561036457600080fd5b5061021b6103733660046135aa565b6bffffffffffffffffffffffff1690565b60007fffffffff0000000000000000000000000000000000000000000000000000000082167fb5dee12700000000000000000000000000000000000000000000000000000000148061041757507fffffffff0000000000000000000000000000000000000000000000000000000082167f01ffc9a700000000000000000000000000000000000000000000000000000000145b92915050565b61046560405180610100016040528060008152602001600081526020016000815260200160008152602001600081526020016000815260200160008152602001600081525090565b61041782610ad2565b6000610478610bc5565b905090565b600080610488610bf7565b90506bffffffffffffffffffffffff81106105105760405162461bcd60e51b815260206004820152602360248201527f43484152414341544552533a204d61782063686172616374657273207265616360448201527f686564000000000000000000000000000000000000000000000000000000000060648201526084015b60405180910390fd5b610518610abd565b6001600160a01b0316633ae7af0861054f7f4368617261637465727300000000000000000000000000000000000000000000610c2a565b6040516001600160a01b03891660248201526044810185905260640160408051601f198184030181529181526020820180517bffffffffffffffffffffffffffffffffffffffffffffffffffffffff167f40c10f1900000000000000000000000000000000000000000000000000000000179052517fffffffff0000000000000000000000000000000000000000000000000000000060e085901b1681526105fb9291906004016137f9565b6000604051808303816000875af115801561061a573d6000803e3d6000fd5b505050506040513d6000823e601f3d908101601f191682016040526106429190810190613857565b5061064c816108eb565b91506106588286610c77565b6106628282610d32565b61066b84610db1565b156106b85760405162461bcd60e51b815260206004820152601360248201527f4e616d6520616c726561647920657869737473000000000000000000000000006044820152606401610507565b6106c3846001610e56565b6106cd8285610f0f565b6106d78184610f8e565b509392505050565b600061041782610fc5565b60006106f6601361105b565b821061070457506014919050565b60005b6014811015610762578261071a8261105b565b111580156107395750826107376107328360016138a2565b61105b565b115b15610750576107498160016138a2565b9150610762565b8061075a816138b5565b915050610707565b50919050565b6000610417826110d7565b61077c82611155565b156107ef5760405162461bcd60e51b815260206004820152602b60248201527f434841524143544552533a2063686172616374657220616c726561647920696e60448201527f2067616d6520776f726c640000000000000000000000000000000000000000006064820152608401610507565b6107f8826111d3565b6108445760405162461bcd60e51b815260206004820152601360248201527f4e6f7420796f7572204368617261637465722e000000000000000000000000006044820152606401610507565b600061085083836111ff565b6108e484828560405160200161086891815260200190565b60408051601f19818403018152908290526108879392916024016138cf565b60408051601f198184030181529190526020810180517bffffffffffffffffffffffffffffffffffffffffffffffffffffffff167fb2aa60a4000000000000000000000000000000000000000000000000000000001790526112b3565b5050505050565b6000806108f6611361565b6001600160a01b0316636352211e846040518263ffffffff1660e01b815260040161092391815260200190565b602060405180830381865afa158015610940573d6000803e3d6000fd5b505050506040513d601f19601f8201168201806040525081019061096491906138f7565b60601b6bffffffffffffffffffffffff19169290921792915050565b610989816111d3565b6109d55760405162461bcd60e51b815260206004820152601260248201527f6e6f7420796f75722063686172616374657200000000000000000000000000006044820152606401610507565b6109de81611155565b15610a2b5760405162461bcd60e51b815260206004820152601960248201527f796f75206861766520656e7465726564207468652067616d65000000000000006044820152606401610507565b610a3d81674563918244f4000061136b565b610a45610abd565b6001600160a01b031663f9d175ed826040518263ffffffff1660e01b8152600401610a7291815260200190565b600060405180830381600087803b158015610a8c57600080fd5b505af1158015610aa0573d6000803e3d6000fd5b50505050610aaf816001611406565b50565b60006104178261148a565b6000610478611513565b60006104178261151d565b610b1a60405180610100016040528060008152602001600081526020016000815260200160008152602001600081526020016000815260200160008152602001600081525090565b604080516001808252818301909252600091602080830190803683370190505090508281600081518110610b5057610b50613914565b602090810291909101015260008080610baa7f7462554400000000000000000000000053746174730000000000000000000000857f01000800202020202020202000000000000000000000000000000000000000006115b0565b925092509250610bbb838383611680565b9695505050505050565b7fffffffffffffffffffffffffffffffffffffffffffffffffffffffffffffffcc36013560601c80610bf45750335b90565b600080610c026116fd565b90506000610c11826000611765565b610c1c9060016138a2565b905061041782600083611816565b60006104177f7379000000000000000000000000000000000000000000000000000000000000837f45524337323153797374656d00000000000000000000000000000000000000006118e6565b604080516001808252818301909252600091602080830190803683370190505090508281600081518110610cad57610cad613914565b602002602001018181525050610d2d7f746255440000000000000000000000004368617261637465727300000000000060001b82600185604051602001610d0c919060609190911b6bffffffffffffffffffffffff1916815260140190565b60408051601f1981840301815291905267560500201401200160b81b61195e565b505050565b604080516001808252818301909252600091602080830190803683370190505090508281600081518110610d6857610d68613914565b602002602001018181525050610d2d7f746255440000000000000000000000004368617261637465727300000000000060001b82600085604051602001610d0c91815260200190565b604080516001808252818301909252600091829190602080830190803683370190505090508281600081518110610dea57610dea613914565b60209081029190910101526000610e427f746255440000000000000000000000004e616d6545786973747300000000000083837e01010001000000000000000000000000000000000000000000000000000000611a13565b9050610e4e8160f81c90565b949350505050565b604080516001808252818301909252600091602080830190803683370190505090508281600081518110610e8c57610e8c613914565b602002602001018181525050610d2d7f746255440000000000000000000000004e616d6545786973747300000000000060001b82600085604051602001610eda91151560f81b815260010190565b60408051601f198184030181529190527e0101000100000000000000000000000000000000000000000000000000000061195e565b604080516001808252818301909252600091602080830190803683370190505090508281600081518110610f4557610f45613914565b602002602001018181525050610d2d7f746255440000000000000000000000004368617261637465727300000000000060001b82600385604051602001610d0c91815260200190565b610fc1610fba7f4368617261637465727300000000000000000000000000000000000000000000611ad0565b8383611b1d565b5050565b604080516001808252818301909252600091829190602080830190803683370190505090508281600081518110610ffe57610ffe613914565b602090810291909101015260006110437f746255440000000000000000000000004368617261637465727300000000000083600267560500201401200160b81b611a13565b905060f881901c6002811115610e4e57610e4e613725565b604080516001808252818301909252600091829190602080830190803683370190505090508260001b8160008151811061109757611097613914565b60209081029190910101526000610e4e7f746255440000000000000000000000004c6576656c73000000000000000000008383630100080160dd1b611a13565b60408051600180825281830190925260009182919060208083019080368337019050509050828160008151811061111057611110613914565b60209081029190910101526000610e4e7f746255440000000000000000000000004368617261637465727300000000000083600367560500201401200160b81b611a13565b60408051600180825281830190925260009182919060208083019080368337019050509050828160008151811061118e5761118e613914565b60209081029190910101526000610e427f746255440000000000000000000000004368617261637465727300000000000083600467560500201401200160b81b611a13565b60006111de8261148a565b6001600160a01b03166111ef61046e565b6001600160a01b03161492915050565b60408051600180825281830190925260009160208083019080368337019050509050828160008151811061123557611235613914565b6020908102919091010152610d2d7f7462554400000000000000000000000043686172616374657273000000000000826002858181111561127857611278613725565b604051602001610d0c919060f89190911b7fff0000000000000000000000000000000000000000000000000000000000000016815260010190565b60606000806112c96112c48561392a565b611b6f565b91509150816000801b0361132f576040517ffdde54e20000000000000000000000000000000000000000000000000000000081527fffffffff00000000000000000000000000000000000000000000000000000000600035166004820152602401610507565b6020840180517bffffffffffffffffffffffffffffffffffffffffffffffffffffffff1682179052610e4e8285611c3f565b60006104786116fd565b611373611d1a565b6001600160a01b03166340c10f1961138a84610ab2565b6040517fffffffff0000000000000000000000000000000000000000000000000000000060e084901b1681526001600160a01b03909116600482015260248101849052604401600060405180830381600087803b1580156113ea57600080fd5b505af11580156113fe573d6000803e3d6000fd5b505050505050565b60408051600180825281830190925260009160208083019080368337019050509050828160008151811061143c5761143c613914565b602002602001018181525050610d2d7f746255440000000000000000000000004368617261637465727300000000000060001b82600485604051602001610d0c91151560f81b815260010190565b6040805160018082528183019092526000918291906020808301908036833701905050905082816000815181106114c3576114c3613914565b602090810291909101015260006115087f746255440000000000000000000000004368617261637465727300000000000083600167560500201401200160b81b611a13565b60601c949350505050565b6000610478611d24565b60408051600180825281830190925260009182919060208083019080368337019050509050828160008151811061155657611556613914565b60209081029190910101526000610e4e7f74625544000000000000000000000000537461747300000000000000000000008360057f0100080020202020202020200000000000000000000000000000000000000000611a13565b60606000606060006115c0611d24565b9050306001600160a01b038216036115e9576115dd878787611d63565b93509350935050611677565b6040517f419b58fd0000000000000000000000000000000000000000000000000000000081526001600160a01b0382169063419b58fd90611632908a908a908a906004016139b6565b600060405180830381865afa15801561164f573d6000803e3d6000fd5b505050506040513d6000823e601f3d908101601f191682016040526115dd91908101906139df565b93509350939050565b6116c860405180610100016040528060008152602001600081526020016000815260200160008152602001600081526020016000815260200160008152602001600081525090565b6116d184611e6b565b60e089015260c088015260a0870152608086015260608501526040840152602083015281529392505050565b60408051600080825260208201909252600061175b7f74625544000000000000000000000000556c74696d617465446f6d696e696f6e8360027e65060001141414141400000000000000000000000000000000000000000000611a13565b60601c9392505050565b60408051600280825260608201835260009283929190602083019080368337019050509050836001600160a01b031660001b816000815181106117aa576117aa613914565b6020026020010181815250508260001b816001815181106117cd576117cd613914565b6020908102919091010152600061180d7f74625544000000000000000000000000436f756e7465727300000000000000008383630100080160dd1b611a13565b95945050505050565b604080516002808252606082018352600092602083019080368337019050509050836001600160a01b031660001b8160008151811061185757611857613914565b6020026020010181815250508260001b8160018151811061187a5761187a613914565b6020026020010181815250506118e07f74625544000000000000000000000000436f756e74657273000000000000000060001b826000856040516020016118c391815260200190565b60408051601f19818403018152919052630100080160dd1b61195e565b50505050565b60006118f4607060106138a2565b6fffffffffffffffffffffffffffffffff198316901c601084901c7dffffffffffffffffffffffffffff00000000000000000000000000000000167fffff0000000000000000000000000000000000000000000000000000000000008616171790505b9392505050565b6000611968611d24565b9050306001600160a01b0382160361198c576119878686868686611ec2565b6113fe565b6040517f390baae00000000000000000000000000000000000000000000000000000000081526001600160a01b0382169063390baae0906119d99089908990899089908990600401613a4c565b600060405180830381600087803b1580156119f357600080fd5b505af1158015611a07573d6000803e3d6000fd5b50505050505050505050565b600080611a1e611d24565b9050306001600160a01b03821603611a4457611a3c86868686611ed7565b915050610e4e565b6040517f8c364d590000000000000000000000000000000000000000000000000000000081526001600160a01b03821690638c364d5990611a8f908990899089908990600401613a93565b602060405180830381865afa158015611aac573d6000803e3d6000fd5b505050506040513d601f19601f82011682018060405250810190611a3c9190613ac2565b60006104177f7462000000000000000000000000000000000000000000000000000000000000837f546f6b656e5552490000000000000000000000000000000000000000000000006118e6565b604080516001808252818301909252600091602080830190803683370190505090508260001b81600081518110611b5657611b56613914565b6020026020010181815250506118e08482600085611f04565b6040805160018082528183019092526000918291829160208083019080368337019050509050837bffffffffffffffffffffffffffffffffffffffffffffffffffffffff191681600081518110611bc857611bc8613914565b602090810291909101015260008080611c217f7462776f726c6400000000000000000046756e6374696f6e53656c6563746f72857e240200200400000000000000000000000000000000000000000000000000006115b0565b925092509250611c32838383611fb5565b9550955050505050915091565b60606000611c4b611513565b90506001600160a01b0381163003611c8c576000611c73611c6a610bc5565b60008787611fcd565b9350905080611c8557611c8583612108565b5050610417565b6040517f3ae7af080000000000000000000000000000000000000000000000000000000081526001600160a01b03821690633ae7af0890611cd390879087906004016137f9565b6000604051808303816000875af1158015611cf2573d6000803e3d6000fd5b505050506040513d6000823e601f3d908101601f19168201604052610e4e9190810190613857565b6000610478612110565b7f629a4c26e296b22a8e0856e9f6ecb2d1008d7e00081111962cd175fa7488e175546000906001600160a01b031680611d5e573391505090565b919050565b6060600060606000611d748561216e565b9050611d81878783612191565b93506000611d8e866121ca565b90508015611e6057611da08888612207565b935066ffffffffffffff841667ffffffffffffffff811115611dc457611dc461361a565b6040519080825280601f01601f191660200182016040528015611dee576020820181803683370190505b5092506020830160005b828160ff161015611e5d576000611e108b8b8461221a565b90506000611e2d888460ff166028026038011c64ffffffffff1690565b9050611e3c826000838761229a565b611e4681856138a2565b935050508080611e5590613adb565b915050611df8565b50505b505093509350939050565b600080600080600080600080611e85896000016020015190565b60408a015160608b015160808c015160a08d015160c08e015160e08f0151610100909f0151959f949e939d50919b50995097509550909350915050565b6108e48585611ed18487612366565b85612397565b600061180d611ee6868661263b565b60ff858116601b0360080285901c16611eff8587612366565b612691565b6000611f0e611d24565b9050306001600160a01b03821603611f3157611f2c858585856126e2565b6108e4565b6040517fef6ea8620000000000000000000000000000000000000000000000000000000081526001600160a01b0382169063ef6ea86290611f7c908890889088908890600401613afa565b600060405180830381600087803b158015611f9657600080fd5b505af1158015611faa573d6000803e3d6000fd5b505050505050505050565b600080611fc18561271d565b90969095509350505050565b60006060600080611fdd86612732565b90925090506001600160a01b03821661202e5785611ffa876127d6565b6040517ffbf10ce60000000000000000000000000000000000000000000000000000000081526004016105079291906137f9565b8061203d5761203d8689612904565b86156120a9577dffffffffffffffffffffffffffff0000000000000000000000000000000086167f6e7300000000000000000000000000000000000000000000000000000000000017600061209182612950565b90506120a6826120a18b846138a2565b6129c9565b50505b60006120b58760101b90565b7fffffffffffffffffffffffffffff00000000000000000000000000000000000016146120ed576120e888888488612a65565b6120f9565b6120f988888488612add565b90999098509650505050505050565b805160208201fd5b60408051600080825260208201909252600061175b7f74625544000000000000000000000000556c74696d617465446f6d696e696f6e8360017e65060001141414141400000000000000000000000000000000000000000000611a13565b6000600861217e60026020613b39565b6121889190613b4c565b9190911c919050565b6060816000036121b05750604080516020810190915260008152611957565b60006121bc858561263b565b905061180d81600085612b3e565b600060086001806121dd60026020613b39565b6121e79190613b39565b6121f19190613b39565b6121fb9190613b4c565b8260ff911c1692915050565b60006119576122168484612b61565b5490565b6000838360405160200161222f929190613b63565b604051602081830303815290604052805190602001208260f81b7effffffffffffffffffffffffffffffffffffffffffffffffffffffffffffff19167f3b4102da22e32d82fc925482184f16c09fd4281692720b87d124aef6da48a0f1181860001c90509392505050565b821561232157602083106122c4576020830484019350602083816122c0576122c0613b9f565b0692505b82156123215760208390036000818410156122e75750600019600884021c6122f1565b50600019600882021c5b8554600886021b8184511682198216178452508184116123125750506118e0565b50600194909401939182900391015b5b602082106123435783548152600190930192601f1990910190602001612322565b81156118e0576000600019600884021c8251865482191691161782525050505050565b600080805b8360ff168110156106d75761238d60ff601b83900360080287901c16836138a2565b915060010161236b565b7f6f74000000000000000000000000000000000000000000000000000000000000847fffff000000000000000000000000000000000000000000000000000000000000160361242157837f8c0b5119d4cec7b284c6b1b39252a03d1e2f2d7451a5895562524c113bb952be84848460405161241493929190613bb5565b60405180910390a26118e0565b600061242d858561263b565b9050600061243a86612bb7565b905060005b815181101561250f57600082828151811061245c5761245c613914565b602002602001015190506124886004826affffffffffffffffffffff1916612c4090919063ffffffff16565b15612506576040517f964f667d000000000000000000000000000000000000000000000000000000008152606082901c9063964f667d906124d3908b908b908b908b90600401613be8565b600060405180830381600087803b1580156124ed57600080fd5b505af1158015612501573d6000803e3d6000fd5b505050505b5060010161243f565b50857f8c0b5119d4cec7b284c6b1b39252a03d1e2f2d7451a5895562524c113bb952be86868660405161254493929190613bb5565b60405180910390a261255f828565ffffffffffff1685612c5e565b60005b815181101561263257600082828151811061257f5761257f613914565b602002602001015190506125ab6008826affffffffffffffffffffff1916612c4090919063ffffffff16565b15612629576040517fa8ba8721000000000000000000000000000000000000000000000000000000008152606082901c9063a8ba8721906125f6908b908b908b908b90600401613be8565b600060405180830381600087803b15801561261057600080fd5b505af1158015612624573d6000803e3d6000fd5b505050505b50600101612562565b50505050505050565b60008282604051602001612650929190613b63565b60408051601f1981840301815291905280516020909101207f86425bff6b57326c7859e89024fe4f238ca327a1ae4a230180dd2f0e88aaa7d9189392505050565b6000602082106126b7576020820484019350602082816126b3576126b3613b9f565b0691505b508254600882021b6020829003808411156106d7576001850154600882021c82179150509392505050565b60006126ee8585612207565b9050600061270b828560ff166028026038011c64ffffffffff1690565b90506113fe8686866000858888612c74565b602081015160408201516000905b9050915091565b6040805160018082528183019092526000918291829160208083019080368337019050509050838160008151811061276c5761276c613914565b6020908102919091010152600080806127c57f7462776f726c6400000000000000000053797374656d73000000000000000000857e15020014010000000000000000000000000000000000000000000000000000611d63565b925092509250611c328383836130ae565b606081601081901b60006127e9836130ba565b9050827fffffffffffffffffffffffffffff0000000000000000000000000000000000008316156128445761283f7fffffffffffffffffffffffffffff00000000000000000000000000000000000084166130d1565b61287b565b6040518060400160405280600681526020017f3c726f6f743e00000000000000000000000000000000000000000000000000008152505b6fffffffffffffffffffffffffffffffff198316156128a25761289d836130d1565b6128d9565b6040518060400160405280600681526020017f3c726f6f743e00000000000000000000000000000000000000000000000000008152505b6040516020016128eb93929190613c21565b6040516020818303038152906040529350505050919050565b61290e8282613157565b610fc15761291b826127d6565b816040517fd787b737000000000000000000000000000000000000000000000000000000008152600401610507929190613caf565b60408051600180825281830190925260009182919060208083019080368337019050509050828160008151811061298957612989613914565b60209081029190910101526000610e4e7f7462776f726c6400000000000000000042616c616e63657300000000000000008383630100080160dd1b611ed7565b6040805160018082528183019092526000916020808301908036833701905050905082816000815181106129ff576129ff613914565b602002602001018181525050610d2d7f7462776f726c6400000000000000000042616c616e636573000000000000000060001b82600085604051602001612a4891815260200190565b60408051601f19818403018152919052630100080160dd1b611ec2565b60006060836001600160a01b03166000612a808589896131b5565b604051612a8d9190613cda565b60006040518083038185875af1925050503d8060008114612aca576040519150601f19603f3d011682016040523d82523d6000602084013e612acf565b606091505b509097909650945050505050565b60006060836001600160a01b0316612af68488886131b5565b604051612b039190613cda565b600060405180830381855af49150503d8060008114612aca576040519150601f19603f3d011682016040523d82523d6000602084013e612acf565b60405160208101601f19603f84840101166040528282526106d78585858461229a565b60008282604051602001612b76929190613b63565b60408051601f1981840301815291905280516020909101207f14e2fcc58e58e68ec7edc30c8d50dccc3ce2714a623ec81f46b6a63922d76569189392505050565b60408051600180825281830190925260609160009190602080830190803683370190505090508281600081518110612bf157612bf1613914565b60209081029190910101526000612c297f746273746f726500000000000000000053746f7265486f6f6b7300000000000083836131e4565b9050610e4e612c3b826000845161321e565b6132ac565b60008160ff1682612c518560581c90565b1660ff1614905092915050565b610d2d83838351612c6f8560200190565b6132bd565b7f7462000000000000000000000000000000000000000000000000000000000000877fffff0000000000000000000000000000000000000000000000000000000000001614612d34577f74620000000000000000000000000000000000000000000000000000000000008788604051602001612cf291815260200190565b60408051601f19818403018152908290527f31b46683000000000000000000000000000000000000000000000000000000008252610507939291600401613cf6565b6000612d4f828760ff166028026038011c64ffffffffff1690565b9050600083518564ffffffffff1683612d689190613b39565b612d7291906138a2565b9050808214158015612d94575081612d8a8688613d37565b64ffffffffff1614155b15612de4576040517fa65010b400000000000000000000000000000000000000000000000000000000815264ffffffffff8088166004830152808716602483015283166044820152606401610507565b818664ffffffffff161115612e35576040517f7e8578d30000000000000000000000000000000000000000000000000000000081526004810183905264ffffffffff87166024820152604401610507565b6000612e4284898461337c565b90506000612e4f8b612bb7565b905060005b8151811015612f1a576000828281518110612e7157612e71613914565b60200260200101519050612e9d6010826affffffffffffffffffffff1916612c4090919063ffffffff16565b15612f1157606081901c6001600160a01b03166355eb5a288e8e8e8e8e8d8f6040518863ffffffff1660e01b8152600401612ede9796959493929190613d5c565b600060405180830381600087803b158015612ef857600080fd5b505af1158015612f0c573d6000803e3d6000fd5b505050505b50600101612e54565b5064ffffffffff881660005b8a60ff168160ff161015612f5957612f4d878260ff166028026038011c64ffffffffff1690565b90910190600101612f26565b508b7ffe158a7adba34e256807c8a149028d3162918713c3838afc643ce9f96716ebfd8c8c848c888d604051612f9496959493929190613dba565b60405180910390a250828414612fb5576000612fb08c8c612b61565b839055505b6000612fc28c8c8c61221a565b9050612fd6818a64ffffffffff1689612c5e565b5060005b81518110156130a0576000828281518110612ff757612ff7613914565b602002602001015190506130236020826affffffffffffffffffffff1916612c4090919063ffffffff16565b1561309757606081901c6001600160a01b031663635845338e8e8e8e8e8a8f6040518863ffffffff1660e01b81526004016130649796959493929190613d5c565b600060405180830381600087803b15801561307e57600080fd5b505af1158015613092573d6000803e3d6000fd5b505050505b50600101612fda565b505050505050505050505050565b600080611fc18561344a565b60006130c8607060106138a2565b9190911b919050565b606060005b6010811015613127576fffffffffffffffffffffffffffffffff198316600882021b7fff000000000000000000000000000000000000000000000000000000000000001615613127576001016130d6565b604080516fffffffffffffffffffffffffffffffff19851660208201528151603090910190915281815280610e4e565b60006131a57f6e730000000000000000000000000000000000000000000000000000000000007dffffffffffffffffffffffffffff0000000000000000000000000000000085161783613466565b8061195757506119578383613466565b60608383836040516020016131cc93929190613e16565b60405160208183030381529060405290509392505050565b6060610e4e6131f485858561221a565b6000613219856132048989612207565b9060ff166028026038011c64ffffffffff1690565b612b3e565b60008183118061322e5750835182115b1561326b578383836040517f23230fa300000000000000000000000000000000000000000000000000000000815260040161050793929190613e55565b6020840161327984826138a2565b905060006132878585613b39565b6fffffffffffffffffffffffffffffffff1660809290921b9190911795945050505050565b60606000611957836015600061352f565b821561333757602083106132e7576020830484019350602083816132e3576132e3613b9f565b0692505b82156133375760208390036000600019600885021c1990506008850281811c91508351811c90508119875416828216178755508184116133285750506118e0565b50600194909401939182900391015b5b602082106133595780518455600190930192601f1990910190602001613338565b81156118e0576000600019600884021c8554835182191691161785555050505050565b600064ffffffffff8211156133c0576040517f7149a3c100000000000000000000000000000000000000000000000000000000815260048101839052602401610507565b8366ffffffffffffff811660ff851660280260380182901c64ffffffffff168085106133f257808503820191506133fa565b848103820391505b5064ffffffffff6038602860ff8816020181811b197fffffffffffffffffffffffffffffffffffffffffffffffffff000000000000009490941690921792909216918416901b1790509392505050565b6020810151603482015160609190911c9060009060f81c61272b565b60408051600280825260608201835260009283929190602083019080368337019050509050838160008151811061349f5761349f613914565b602002602001018181525050826001600160a01b031660001b816001815181106134cb576134cb613914565b602090810291909101015260006135237f7462776f726c640000000000000000005265736f75726365416363657373000083837e01010001000000000000000000000000000000000000000000000000000000611ed7565b905061180d8160f81c90565b6060600061353d8560801c90565b90506fffffffffffffffffffffffffffffffff8516600085828161356357613563613b9f565b04905060405193506020840160208202810160405281855260005b8281101561359e578451871c82529387019360209091019060010161357e565b50505050509392505050565b6000602082840312156135bc57600080fd5b5035919050565b6000602082840312156135d557600080fd5b81357fffffffff000000000000000000000000000000000000000000000000000000008116811461195757600080fd5b6001600160a01b0381168114610aaf57600080fd5b634e487b7160e01b600052604160045260246000fd5b604051601f8201601f1916810167ffffffffffffffff811182821017156136595761365961361a565b604052919050565b600067ffffffffffffffff82111561367b5761367b61361a565b50601f01601f191660200190565b60008060006060848603121561369e57600080fd5b83356136a981613605565b925060208401359150604084013567ffffffffffffffff8111156136cc57600080fd5b8401601f810186136136dd57600080fd5b80356136f06136eb82613661565b613630565b81815287602083850101111561370557600080fd5b816020840160208301376000602083830101528093505050509250925092565b634e487b7160e01b600052602160045260246000fd5b60038110610aaf57634e487b7160e01b600052602160045260246000fd5b602081016137668361373b565b91905290565b60008060006060848603121561378157600080fd5b833592506020840135915060408401356003811061379e57600080fd5b809150509250925092565b60005b838110156137c45781810151838201526020016137ac565b50506000910152565b600081518084526137e58160208601602086016137a9565b601f01601f19169290920160200192915050565b828152604060208201526000610e4e60408301846137cd565b600082601f83011261382357600080fd5b81516138316136eb82613661565b81815284602083860101111561384657600080fd5b610e4e8260208301602087016137a9565b60006020828403121561386957600080fd5b815167ffffffffffffffff81111561388057600080fd5b610e4e84828501613812565b634e487b7160e01b600052601160045260246000fd5b808201808211156104175761041761388c565b600060001982036138c8576138c861388c565b5060010190565b8381526138db8361373b565b82602082015260606040820152600061180d60608301846137cd565b60006020828403121561390957600080fd5b815161195781613605565b634e487b7160e01b600052603260045260246000fd5b6000815160208301517fffffffff00000000000000000000000000000000000000000000000000000000808216935060048310156139725780818460040360031b1b83161693505b505050919050565b60008151808452602080850194506020840160005b838110156139ab5781518752958201959082019060010161398f565b509495945050505050565b8381526060602082015260006139cf606083018561397a565b9050826040830152949350505050565b6000806000606084860312156139f457600080fd5b835167ffffffffffffffff80821115613a0c57600080fd5b613a1887838801613812565b9450602086015193506040860151915080821115613a3557600080fd5b50613a4286828701613812565b9150509250925092565b85815260a060208201526000613a6560a083018761397a565b60ff861660408401528281036060840152613a8081866137cd565b9150508260808301529695505050505050565b848152608060208201526000613aac608083018661397a565b60ff949094166040830152506060015292915050565b600060208284031215613ad457600080fd5b5051919050565b600060ff821660ff8103613af157613af161388c565b60010192915050565b848152608060208201526000613b13608083018661397a565b60ff851660408401528281036060840152613b2e81856137cd565b979650505050505050565b818103818111156104175761041761388c565b80820281158282048414176104175761041761388c565b8281526000602080830184516020860160005b82811015613b9257815184529284019290840190600101613b76565b5091979650505050505050565b634e487b7160e01b600052601260045260246000fd5b606081526000613bc8606083018661397a565b65ffffffffffff851660208401528281036040840152610bbb81856137cd565b848152608060208201526000613c01608083018661397a565b65ffffffffffff851660408401528281036060840152613b2e81856137cd565b7fffff0000000000000000000000000000000000000000000000000000000000008416815260007f3a000000000000000000000000000000000000000000000000000000000000008060028401528451613c828160038601602089016137a9565b808401905081600382015284519150613ca28260048301602088016137a9565b0160040195945050505050565b604081526000613cc260408301856137cd565b90506001600160a01b03831660208301529392505050565b60008251613cec8184602087016137a9565b9190910192915050565b7fffff0000000000000000000000000000000000000000000000000000000000008416815282602082015260606040820152600061180d60608301846137cd565b64ffffffffff818116838216019080821115613d5557613d5561388c565b5092915050565b87815260e060208201526000613d7560e083018961397a565b60ff8816604084015264ffffffffff87811660608501528616608084015260a0830185905282810360c0840152613dac81856137cd565b9a9950505050505050505050565b60c081526000613dcd60c083018961397a565b60ff8816602084015265ffffffffffff8716604084015264ffffffffff8616606084015284608084015282810360a0840152613e0981856137cd565b9998505050505050505050565b60008451613e288184602089016137a9565b60609490941b6bffffffffffffffffffffffff191691909301908152601481019190915260340192915050565b606081526000613e6860608301866137cd565b6020830194909452506040015291905056fea26469706673582212202d9cdfaf594f9451ecee52942b5f9045d77eedf7c8e51eddc24421d9eaf70dbc64736f6c63430008180033",
        "linkReferences": {}
    },
    "methodIdentifiers": {
        "_msgSender()": "119df25f",
        "_msgValue()": "45ec9354",
        "_world()": "e1af802c",
        "enterGame(bytes32)": "c74dedc8",
        "getCharacterTokenId(bytes32)": "f8c67561",
        "getClass(bytes32)": "23801570",
        "getCurrentLevel(uint256)": "3d0854ae",
        "getExperience(bytes32)": "ebee03bb",
        "getName(bytes32)": "54b8d5e3",
        "getOwner(bytes32)": "deb931a2",
        "getOwnerAddress(bytes32)": "00d43ec6",
        "getPlayerEntityId(uint256)": "8338f0e0",
        "getStats(bytes32)": "0bb700dc",
        "mintCharacter(address,bytes32,string)": "143f3021",
        "rollStats(bytes32,bytes32,uint8)": "679ee16d",
        "supportsInterface(bytes4)": "01ffc9a7"
    },
    "id": 207
}