{"abi":[{"type":"function","name":"_msgSender","inputs":[],"outputs":[{"name":"sender","type":"address","internalType":"address"}],"stateMutability":"view"},{"type":"function","name":"_msgValue","inputs":[],"outputs":[{"name":"value","type":"uint256","internalType":"uint256"}],"stateMutability":"pure"},{"type":"function","name":"_world","inputs":[],"outputs":[{"name":"","type":"address","internalType":"address"}],"stateMutability":"view"},{"type":"function","name":"enterGame","inputs":[{"name":"characterId","type":"bytes32","internalType":"bytes32"}],"outputs":[],"stateMutability":"nonpayable"},{"type":"function","name":"getBaseStats","inputs":[{"name":"characterId","type":"bytes32","internalType":"bytes32"}],"outputs":[{"name":"","type":"tuple","internalType":"struct StatsData","components":[{"name":"strength","type":"int256","internalType":"int256"},{"name":"agility","type":"int256","internalType":"int256"},{"name":"class","type":"uint8","internalType":"enum Classes"},{"name":"intelligence","type":"int256","internalType":"int256"},{"name":"maxHp","type":"int256","internalType":"int256"},{"name":"currentHp","type":"int256","internalType":"int256"},{"name":"experience","type":"uint256","internalType":"uint256"},{"name":"level","type":"uint256","internalType":"uint256"}]}],"stateMutability":"view"},{"type":"function","name":"getCharacterTokenId","inputs":[{"name":"characterId","type":"bytes32","internalType":"bytes32"}],"outputs":[{"name":"","type":"uint256","internalType":"uint256"}],"stateMutability":"pure"},{"type":"function","name":"getClass","inputs":[{"name":"characterId","type":"bytes32","internalType":"bytes32"}],"outputs":[{"name":"_class","type":"uint8","internalType":"enum Classes"}],"stateMutability":"view"},{"type":"function","name":"getCurrentAvailableLevel","inputs":[{"name":"experience","type":"uint256","internalType":"uint256"}],"outputs":[{"name":"currentAvailableLevel","type":"uint256","internalType":"uint256"}],"stateMutability":"view"},{"type":"function","name":"getExperience","inputs":[{"name":"characterId","type":"bytes32","internalType":"bytes32"}],"outputs":[{"name":"","type":"uint256","internalType":"uint256"}],"stateMutability":"view"},{"type":"function","name":"getName","inputs":[{"name":"characterId","type":"bytes32","internalType":"bytes32"}],"outputs":[{"name":"_name","type":"bytes32","internalType":"bytes32"}],"stateMutability":"view"},{"type":"function","name":"getOwner","inputs":[{"name":"characterId","type":"bytes32","internalType":"bytes32"}],"outputs":[{"name":"","type":"address","internalType":"address"}],"stateMutability":"view"},{"type":"function","name":"getOwnerAddress","inputs":[{"name":"characterId","type":"bytes32","internalType":"bytes32"}],"outputs":[{"name":"","type":"address","internalType":"address"}],"stateMutability":"pure"},{"type":"function","name":"getPlayerEntityId","inputs":[{"name":"characterTokenId","type":"uint256","internalType":"uint256"}],"outputs":[{"name":"characterId","type":"bytes32","internalType":"bytes32"}],"stateMutability":"view"},{"type":"function","name":"getStats","inputs":[{"name":"characterId","type":"bytes32","internalType":"bytes32"}],"outputs":[{"name":"","type":"tuple","internalType":"struct StatsData","components":[{"name":"strength","type":"int256","internalType":"int256"},{"name":"agility","type":"int256","internalType":"int256"},{"name":"class","type":"uint8","internalType":"enum Classes"},{"name":"intelligence","type":"int256","internalType":"int256"},{"name":"maxHp","type":"int256","internalType":"int256"},{"name":"currentHp","type":"int256","internalType":"int256"},{"name":"experience","type":"uint256","internalType":"uint256"},{"name":"level","type":"uint256","internalType":"uint256"}]}],"stateMutability":"view"},{"type":"function","name":"isValidCharacterId","inputs":[{"name":"characterId","type":"bytes32","internalType":"bytes32"}],"outputs":[{"name":"","type":"bool","internalType":"bool"}],"stateMutability":"view"},{"type":"function","name":"isValidOwner","inputs":[{"name":"characterId","type":"bytes32","internalType":"bytes32"},{"name":"owner","type":"address","internalType":"address"}],"outputs":[{"name":"","type":"bool","internalType":"bool"}],"stateMutability":"view"},{"type":"function","name":"levelCharacter","inputs":[{"name":"characterId","type":"bytes32","internalType":"bytes32"},{"name":"desiredStats","type":"tuple","internalType":"struct StatsData","components":[{"name":"strength","type":"int256","internalType":"int256"},{"name":"agility","type":"int256","internalType":"int256"},{"name":"class","type":"uint8","internalType":"enum Classes"},{"name":"intelligence","type":"int256","internalType":"int256"},{"name":"maxHp","type":"int256","internalType":"int256"},{"name":"currentHp","type":"int256","internalType":"int256"},{"name":"experience","type":"uint256","internalType":"uint256"},{"name":"level","type":"uint256","internalType":"uint256"}]}],"outputs":[],"stateMutability":"nonpayable"},{"type":"function","name":"mintCharacter","inputs":[{"name":"account","type":"address","internalType":"address"},{"name":"name","type":"bytes32","internalType":"bytes32"},{"name":"tokenUri","type":"string","internalType":"string"}],"outputs":[{"name":"characterId","type":"bytes32","internalType":"bytes32"}],"stateMutability":"nonpayable"},{"type":"function","name":"rollStats","inputs":[{"name":"userRandomNumber","type":"bytes32","internalType":"bytes32"},{"name":"characterId","type":"bytes32","internalType":"bytes32"},{"name":"class","type":"uint8","internalType":"enum Classes"}],"outputs":[],"stateMutability":"payable"},{"type":"function","name":"setStats","inputs":[{"name":"entityId","type":"bytes32","internalType":"bytes32"},{"name":"stats","type":"tuple","internalType":"struct AdjustedCombatStats","components":[{"name":"strength","type":"int256","internalType":"int256"},{"name":"agility","type":"int256","internalType":"int256"},{"name":"intelligence","type":"int256","internalType":"int256"},{"name":"armor","type":"int256","internalType":"int256"},{"name":"maxHp","type":"int256","internalType":"int256"},{"name":"currentHp","type":"int256","internalType":"int256"}]}],"outputs":[],"stateMutability":"nonpayable"},{"type":"function","name":"supportsInterface","inputs":[{"name":"interfaceId","type":"bytes4","internalType":"bytes4"}],"outputs":[{"name":"","type":"bool","internalType":"bool"}],"stateMutability":"pure"},{"type":"function","name":"updateTokenUri","inputs":[{"name":"characterId","type":"bytes32","internalType":"bytes32"},{"name":"tokenUri","type":"string","internalType":"string"}],"outputs":[],"stateMutability":"nonpayable"},{"type":"event","name":"Store_SetRecord","inputs":[{"name":"tableId","type":"bytes32","indexed":true,"internalType":"ResourceId"},{"name":"keyTuple","type":"bytes32[]","indexed":false,"internalType":"bytes32[]"},{"name":"staticData","type":"bytes","indexed":false,"internalType":"bytes"},{"name":"encodedLengths","type":"bytes32","indexed":false,"internalType":"EncodedLengths"},{"name":"dynamicData","type":"bytes","indexed":false,"internalType":"bytes"}],"anonymous":false},{"type":"event","name":"Store_SpliceDynamicData","inputs":[{"name":"tableId","type":"bytes32","indexed":true,"internalType":"ResourceId"},{"name":"keyTuple","type":"bytes32[]","indexed":false,"internalType":"bytes32[]"},{"name":"dynamicFieldIndex","type":"uint8","indexed":false,"internalType":"uint8"},{"name":"start","type":"uint48","indexed":false,"internalType":"uint48"},{"name":"deleteCount","type":"uint40","indexed":false,"internalType":"uint40"},{"name":"encodedLengths","type":"bytes32","indexed":false,"internalType":"EncodedLengths"},{"name":"data","type":"bytes","indexed":false,"internalType":"bytes"}],"anonymous":false},{"type":"event","name":"Store_SpliceStaticData","inputs":[{"name":"tableId","type":"bytes32","indexed":true,"internalType":"ResourceId"},{"name":"keyTuple","type":"bytes32[]","indexed":false,"internalType":"bytes32[]"},{"name":"start","type":"uint48","indexed":false,"internalType":"uint48"},{"name":"data","type":"bytes","indexed":false,"internalType":"bytes"}],"anonymous":false},{"type":"error","name":"EncodedLengths_InvalidLength","inputs":[{"name":"length","type":"uint256","internalType":"uint256"}]},{"type":"error","name":"Slice_OutOfBounds","inputs":[{"name":"data","type":"bytes","internalType":"bytes"},{"name":"start","type":"uint256","internalType":"uint256"},{"name":"end","type":"uint256","internalType":"uint256"}]},{"type":"error","name":"Store_IndexOutOfBounds","inputs":[{"name":"length","type":"uint256","internalType":"uint256"},{"name":"accessedIndex","type":"uint256","internalType":"uint256"}]},{"type":"error","name":"Store_InvalidResourceType","inputs":[{"name":"expected","type":"bytes2","internalType":"bytes2"},{"name":"resourceId","type":"bytes32","internalType":"ResourceId"},{"name":"resourceIdString","type":"string","internalType":"string"}]},{"type":"error","name":"Store_InvalidSplice","inputs":[{"name":"startWithinField","type":"uint40","internalType":"uint40"},{"name":"deleteCount","type":"uint40","internalType":"uint40"},{"name":"fieldLength","type":"uint40","internalType":"uint40"}]},{"type":"error","name":"World_AccessDenied","inputs":[{"name":"resource","type":"string","internalType":"string"},{"name":"caller","type":"address","internalType":"address"}]},{"type":"error","name":"World_FunctionSelectorNotFound","inputs":[{"name":"functionSelector","type":"bytes4","internalType":"bytes4"}]},{"type":"error","name":"World_ResourceNotFound","inputs":[{"name":"resourceId","type":"bytes32","internalType":"ResourceId"},{"name":"resourceIdString","type":"string","internalType":"string"}]}],"bytecode":{"object":"0x608060405234801561001057600080fd5b50615c6580620000216000396000f3fe6080604052600436106101745760003560e01c8063623daa05116100cb578063b27cbcbb1161007f578063e1af802c11610059578063e1af802c14610411578063ebee03bb14610426578063f8c675611461044657600080fd5b8063b27cbcbb146103b1578063c74dedc8146103d1578063deb931a2146103f157600080fd5b80637163c6ba116100b05780637163c6ba146103515780638338f0e0146103715780639b63ec051461039157600080fd5b8063623daa051461031e578063679ee16d1461033e57600080fd5b8063143f30211161012d578063238015701161010757806323801570146102b957806345ec9354146102e657806354b8d5e3146102fe57600080fd5b8063143f30211461024b5780631b5cdcc4146102795780631ecb393f1461029957600080fd5b806309a4fa6e1161015e57806309a4fa6e146101e75780630bb700dc14610209578063119df25f1461023657600080fd5b8062d43ec61461017957806301ffc9a7146101b7575b600080fd5b34801561018557600080fd5b5061019a610194366004614dfe565b60601c90565b6040516001600160a01b0390911681526020015b60405180910390f35b3480156101c357600080fd5b506101d76101d2366004614e17565b610472565b60405190151581526020016101ae565b3480156101f357600080fd5b50610207610202366004614eed565b61050b565b005b34801561021557600080fd5b50610229610224366004614dfe565b6106e8565b6040516101ae9190614f9b565b34801561024257600080fd5b5061019a6106f9565b34801561025757600080fd5b5061026b61026636600461508f565b610708565b6040519081526020016101ae565b34801561028557600080fd5b506102076102943660046150f5565b610965565b3480156102a557600080fd5b5061026b6102b4366004614dfe565b610de4565b3480156102c557600080fd5b506102d96102d4366004614dfe565b610e75565b6040516101ae919061518f565b3480156102f257600080fd5b5036601f19013561026b565b34801561030a57600080fd5b5061026b610319366004614dfe565b610e80565b34801561032a57600080fd5b506101d7610339366004614dfe565b610e8b565b61020761034c3660046151a2565b610fb7565b34801561035d57600080fd5b5061022961036c366004614dfe565b61113f565b34801561037d57600080fd5b5061026b61038c366004614dfe565b611163565b34801561039d57600080fd5b506101d76103ac3660046151db565b6111f8565b3480156103bd57600080fd5b506102076103cc36600461520b565b6112bf565b3480156103dd57600080fd5b506102076103ec366004614dfe565b61133b565b3480156103fd57600080fd5b5061019a61040c366004614dfe565b611562565b34801561041d57600080fd5b5061019a61156d565b34801561043257600080fd5b5061026b610441366004614dfe565b611577565b34801561045257600080fd5b5061026b610461366004614dfe565b6bffffffffffffffffffffffff1690565b60007fffffffff0000000000000000000000000000000000000000000000000000000082167fb5dee12700000000000000000000000000000000000000000000000000000000148061050557507fffffffff0000000000000000000000000000000000000000000000000000000082167f01ffc9a700000000000000000000000000000000000000000000000000000000145b92915050565b61051c306105176106f9565b611582565b600061052783611598565b905061053161156d565b6001600160a01b031663fa1becc4846040518263ffffffff1660e01b815260040161055e91815260200190565b602060405180830381865afa15801561057b573d6000803e3d6000fd5b505050506040513d601f19601f8201168201806040525081019061059f9190615252565b156105dd5781518152602080830151908201526040820151606080830191909152608080840151908301528201516105d890849061164a565b6106d9565b6105e561156d565b6001600160a01b031663bace814a846040518263ffffffff1660e01b815260040161061291815260200190565b602060405180830381865afa15801561062f573d6000803e3d6000fd5b505050506040513d601f19601f820116820180604052508101906106539190615252565b1561068c5781518152602080830151908201526040820151606080830191909152608080840151908301528201516105d89084906116fe565b60405162461bcd60e51b815260206004820152600f60248201527f756e7265636f676e697a6564206964000000000000000000000000000000000060448201526064015b60405180910390fd5b6106e383826117b2565b505050565b6106f0614da8565b61050582611598565b600061070361185b565b905090565b60008061071361188d565b90506bffffffffffffffffffffffff81106107965760405162461bcd60e51b815260206004820152602360248201527f43484152414341544552533a204d61782063686172616374657273207265616360448201527f686564000000000000000000000000000000000000000000000000000000000060648201526084016106d0565b61079e61156d565b6001600160a01b0316633ae7af086107d57f43686172616374657273000000000000000000000000000000000000000000006118c0565b6040516001600160a01b03891660248201526044810185905260640160408051601f198184030181529181526020820180517bffffffffffffffffffffffffffffffffffffffffffffffffffffffff167f40c10f1900000000000000000000000000000000000000000000000000000000179052517fffffffff0000000000000000000000000000000000000000000000000000000060e085901b1681526108819291906004016152c4565b6000604051808303816000875af11580156108a0573d6000803e3d6000fd5b505050506040513d6000823e601f3d908101601f191682016040526108c89190810190615322565b506108d281611163565b91506108de828661190d565b6108e882826119c2565b6108f184611a41565b1561093e5760405162461bcd60e51b815260206004820152601360248201527f4e616d6520616c7265616479206578697374730000000000000000000000000060448201526064016106d0565b610949846001611ace565b6109538285611b6f565b61095d8184611bee565b509392505050565b81610972816103ac6106f9565b6109c95760405162461bcd60e51b815260206004820152602260248201527f4348415241435445522053595354454d3a20494e56414c4944204f504552415460448201526127a960f11b60648201526084016106d0565b6109d161156d565b6001600160a01b03166385fcd3bd846040518263ffffffff1660e01b81526004016109fe91815260200190565b602060405180830381865afa158015610a1b573d6000803e3d6000fd5b505050506040513d601f19601f82011682018060405250810190610a3f9190615252565b15610a8c5760405162461bcd60e51b815260206004820152601660248201527f63616e6e6f74206c6576656c20696e20636f6d6261740000000000000000000060448201526064016106d0565b6000610a9784611c21565b806020019051810190610aaa9190615357565b9050610ab584611c94565b60a082015260c0810151600090610acb90610de4565b90508160e00151811115610d955781518451600091610ae9916153e7565b9050600083602001518660200151610b0191906153e7565b9050600084606001518760600151610b1991906153e7565b9050600281610b28848661540e565b610b32919061540e565b14610ba55760405162461bcd60e51b815260206004820152602560248201527f4348415241435445522053595354454d3a20494e56414c49442053544154204360448201527f48414e474500000000000000000000000000000000000000000000000000000060648201526084016106d0565b84604001516002811115610bbb57610bbb614f64565b60ff16158015610bd9575060038560e00151610bd7919061544c565b155b15610bf557600185608001818151610bf1919061540e565b9052505b600185608001818151610c08919061540e565b90525086518552602080880151908601526060808801519086015260e08501805160019190610c3890839061546e565b9052506000610c4689610e75565b90506000816002811115610c5c57610c5c614f64565b03610c755785518690610c6e90615481565b9052610cc8565b6001816002811115610c8957610c89614f64565b03610c9d57856020018051610c6e90615481565b6002816002811115610cb157610cb1614f64565b03610cc857856060018051610cc590615481565b90525b848660e001511115610cdf57505050505050505050565b610d088987604051602001610cf49190614f9b565b604051602081830303815290604052611d26565b610d8c89610d1461156d565b6001600160a01b031663a543a0c58c6040518263ffffffff1660e01b8152600401610d4191815260200190565b60c060405180830381865afa158015610d5e573d6000803e3d6000fd5b505050506040513d601f19601f82011682018060405250810190610d8291906154b9565b8860e00151611d94565b50505050610ddd565b60405162461bcd60e51b815260206004820152601360248201527f6e6f20617661696c61626c65206c6576656c730000000000000000000000000060448201526064016106d0565b5050505050565b6000610e026001610df3611df7565b610dfd9190615513565b611e55565b8210610e1057610505611df7565b60005b610e1b611df7565b811015610e6f5782610e2c82611e55565b11158015610e46575082610e44610dfd83600161546e565b115b15610e5d57610e5681600161546e565b9150610e6f565b80610e6781615526565b915050610e13565b50919050565b600061050582611ed1565b600061050582611f7b565b600080610e988360601c90565b90506bffffffffffffffffffffffff83166000610eb3611ff8565b6001600160a01b0316636352211e836040518263ffffffff1660e01b8152600401610ee091815260200190565b602060405180830381865afa925050508015610f19575060408051601f3d908101601f19168201909252610f1691810190615539565b60015b15610f9857610f26611ff8565b6001600160a01b0316636352211e846040518263ffffffff1660e01b8152600401610f5391815260200190565b602060405180830381865afa158015610f70573d6000803e3d6000fd5b505050506040513d601f19601f82011682018060405250810190610f949190615539565b9150505b826001600160a01b0316816001600160a01b0316149350505050919050565b81610fc4816103ac6106f9565b61101b5760405162461bcd60e51b815260206004820152602260248201527f4348415241435445522053595354454d3a20494e56414c4944204f504552415460448201526127a960f11b60648201526084016106d0565b61102483612002565b156110975760405162461bcd60e51b815260206004820152602b60248201527f434841524143544552533a2063686172616374657220616c726561647920696e60448201527f2067616d6520776f726c6400000000000000000000000000000000000000000060648201526084016106d0565b60016110a3848461207f565b6111378582866040516020016110bb91815260200190565b60408051601f19818403018152908290526110da939291602401615556565b60408051601f198184030181529190526020810180517bffffffffffffffffffffffffffffffffffffffffffffffffffffffff167fb2aa60a400000000000000000000000000000000000000000000000000000000179052612168565b505050505050565b611147614da8565b61115082611c21565b8060200190518101906105059190615357565b60008061116e611ff8565b6001600160a01b0316636352211e846040518263ffffffff1660e01b815260040161119b91815260200190565b602060405180830381865afa1580156111b8573d6000803e3d6000fd5b505050506040513d601f19601f820116820180604052508101906111dc9190615539565b60601b6bffffffffffffffffffffffff19169290921792915050565b600061120383610e8b565b80156112b85750816001600160a01b031661121c611ff8565b6040517f6352211e0000000000000000000000000000000000000000000000000000000081526bffffffffffffffffffffffff861660048201526001600160a01b039190911690636352211e90602401602060405180830381865afa158015611289573d6000803e3d6000fd5b505050506040513d601f19601f820116820180604052508101906112ad9190615539565b6001600160a01b0316145b9392505050565b816112cc816103ac6106f9565b6113235760405162461bcd60e51b815260206004820152602260248201527f4348415241435445522053595354454d3a20494e56414c4944204f504552415460448201526127a960f11b60648201526084016106d0565b6106e36bffffffffffffffffffffffff841683611bee565b80611348816103ac6106f9565b61139f5760405162461bcd60e51b815260206004820152602260248201527f4348415241435445522053595354454d3a20494e56414c4944204f504552415460448201526127a960f11b60648201526084016106d0565b6113a882612002565b156113f55760405162461bcd60e51b815260206004820152601960248201527f796f75206861766520656e7465726564207468652067616d650000000000000060448201526064016106d0565b600061140083611598565b600160e0820152608081015160a0820152905061141d83826117b2565b61142561156d565b6040517fbcf0229a00000000000000000000000000000000000000000000000000000000815260048101859052674563918244f4000060248201526001600160a01b03919091169063bcf0229a90604401600060405180830381600087803b15801561149057600080fd5b505af11580156114a4573d6000803e3d6000fd5b505050506114b061156d565b6001600160a01b031663f9d175ed846040518263ffffffff1660e01b81526004016114dd91815260200190565b600060405180830381600087803b1580156114f757600080fd5b505af115801561150b573d6000803e3d6000fd5b50505050600061151a84612216565b60016060820152604051909150600090611538908490602001614f9b565b60408051601f1981840301815291905260a08301819052608083018190529050610ddd85836122e8565b6000610505826123dd565b6000610703612465565b60006105058261246f565b61159461158e83612501565b82612586565b5050565b6115a0614da8565b6040805160018082528183019092526000916020808301908036833701905050905082816000815181106115d6576115d661557e565b60209081029190910101526000808061162f7f7462554400000000000000000000000053746174730000000000000000000000857ee10800202001202020202000000000000000000000000000000000000000006125d2565b9250925092506116408383836126a2565b9695505050505050565b6040805160018082528183019092526000916020808301908036833701905050905082816000815181106116805761168061557e565b6020026020010181815250506106e37f7462554400000000000000000000000043686172616374657245717569706d6560001b826004856040516020016116c991815260200190565b60408051601f198184030181529190527ea005042020202020000000000000000000000000000000000000000000000061271a565b6040805160018082528183019092526000916020808301908036833701905050905082816000815181106117345761173461557e565b6020026020010181815250506106e37f746255440000000000000000000000004d6f625374617473000000000000000060001b8260008560405160200161177d91815260200190565b60408051601f198184030181529190527e2001012000000000000000000000000000000000000000000000000000000061271a565b60006117e4826000015183602001518460400151856060015186608001518760a001518860c001518960e001516127cf565b6040805160018082528183019092529192506000916060918391906020808301908036833701905050905085816000815181106118235761182361557e565b60209081029190910101526111377f74625544000000000000000000000000537461747300000000000000000000008286868661280d565b7fffffffffffffffffffffffffffffffffffffffffffffffffffffffffffffffcc36013560601c8061188a5750335b90565b600080611898612883565b905060006118a78260006128eb565b6118b290600161546e565b90506105058260008361299c565b60006105057f7379000000000000000000000000000000000000000000000000000000000000837f45524337323153797374656d0000000000000000000000000000000000000000612a66565b6040805160018082528183019092526000916020808301908036833701905050905082816000815181106119435761194361557e565b6020026020010181815250506106e37f746255440000000000000000000000004368617261637465727300000000000060001b826001856040516020016119a2919060609190911b6bffffffffffffffffffffffff1916815260140190565b60408051601f19818403018152919052665504022014200160c01b61271a565b6040805160018082528183019092526000916020808301908036833701905050905082816000815181106119f8576119f861557e565b6020026020010181815250506106e37f746255440000000000000000000000004368617261637465727300000000000060001b826000856040516020016119a291815260200190565b604080516001808252818301909252600091829190602080830190803683370190505090508281600081518110611a7a57611a7a61557e565b60209081029190910101526000611aba7f746255440000000000000000000000004e616d654578697374730000000000008383630101000160d81b612add565b9050611ac68160f81c90565b949350505050565b604080516001808252818301909252600091602080830190803683370190505090508281600081518110611b0457611b0461557e565b6020026020010181815250506106e37f746255440000000000000000000000004e616d6545786973747300000000000060001b82600085604051602001611b5291151560f81b815260010190565b60408051601f19818403018152919052630101000160d81b61271a565b604080516001808252818301909252600091602080830190803683370190505090508281600081518110611ba557611ba561557e565b6020026020010181815250506106e37f746255440000000000000000000000004368617261637465727300000000000060001b826002856040516020016119a291815260200190565b611594611c1a7f4368617261637465727300000000000000000000000000000000000000000000612b9a565b8383612be7565b60408051600180825281830190925260609160009190602080830190803683370190505090508281600081518110611c5b57611c5b61557e565b60209081029190910101526000611ac67f7462554400000000000000000000000043686172616374657273000000000000836001612c39565b604080516001808252818301909252600091829190602080830190803683370190505090508281600081518110611ccd57611ccd61557e565b60209081029190910101526000611ac67f74625544000000000000000000000000537461747300000000000000000000008360057ee1080020200120202020200000000000000000000000000000000000000000612add565b604080516001808252818301909252600091602080830190803683370190505090508281600081518110611d5c57611d5c61557e565b60209081029190910101526106e37f746255440000000000000000000000004368617261637465727300000000000082600185612cf8565b6000611d9f84611598565b8351815260208085015190820152604084015160608083019190915260808086018051918401919091525160a083015260e08201849052840151909150611de790859061164a565b611df184826117b2565b50505050565b6040805160008082526020820190925260006112b87f74625544000000000000000000000000556c74696d617465446f6d696e696f6e8360087ecd0a0001141414141414142020000000000000000000000000000000000000612add565b604080516001808252818301909252600091829190602080830190803683370190505090508260001b81600081518110611e9157611e9161557e565b60209081029190910101526000611ac67f746255440000000000000000000000004c6576656c73000000000000000000008383630100080160dd1b612add565b604080516001808252818301909252600091829190602080830190803683370190505090508281600081518110611f0a57611f0a61557e565b60209081029190910101526000611f637f74625544000000000000000000000000537461747300000000000000000000008360027ee1080020200120202020200000000000000000000000000000000000000000612add565b905060f881901c6002811115611ac657611ac6614f64565b604080516001808252818301909252600091829190602080830190803683370190505090508281600081518110611fb457611fb461557e565b60209081029190910101526000611ac67f7462554400000000000000000000000043686172616374657273000000000000836002665504022014200160c01b612add565b6000610703612883565b60408051600180825281830190925260009182919060208083019080368337019050509050828160008151811061203b5761203b61557e565b60209081029190910101526000611aba7f7462554400000000000000000000000043686172616374657273000000000000836003665504022014200160c01b612add565b6040805160018082528183019092526000916020808301908036833701905050905082816000815181106120b5576120b561557e565b60209081029190910101526106e37f746255440000000000000000000000005374617473000000000000000000000082600285818111156120f8576120f8614f64565b604051602001612133919060f89190911b7fff0000000000000000000000000000000000000000000000000000000000000016815260010190565b60408051601f198184030181529190527ee108002020012020202020000000000000000000000000000000000000000061271a565b606060008061217e61217985615594565b612da9565b91509150816000801b036121e4576040517ffdde54e20000000000000000000000000000000000000000000000000000000081527fffffffff000000000000000000000000000000000000000000000000000000006000351660048201526024016106d0565b6020840180517bffffffffffffffffffffffffffffffffffffffffffffffffffffffff1682179052611ac68285612e79565b61225d6040518060c001604052806000815260200160006001600160a01b031681526020016000801916815260200160001515815260200160608152602001606081525090565b6040805160018082528183019092526000916020808301908036833701905050905082816000815181106122935761229361557e565b6020908102919091010152600080806122d77f746255440000000000000000000000004368617261637465727300000000000085665504022014200160c01b6125d2565b925092509250611640838383612f54565b80516020808301516040808501516060808701518351958601969096529290921b6bffffffffffffffffffffffff191683820152605483019190915291151560f81b6074820152815180820360550181526075909101909152600061235583608001518460a00151612fdb565b9050600061236b84608001518560a00151612ff8565b604080516001808252818301909252919250600091906020808301908036833701905050905085816000815181106123a5576123a561557e565b60209081029190910101526111377f74625544000000000000000000000000436861726163746572730000000000008286868661280d565b6040805160018082528183019092526000918291906020808301908036833701905050905082816000815181106124165761241661557e565b6020908102919091010152600061245a7f7462554400000000000000000000000043686172616374657273000000000000836001665504022014200160c01b612add565b60601c949350505050565b6000610703613024565b6040805160018082528183019092526000918291906020808301908036833701905050905082816000815181106124a8576124a861557e565b60209081029190910101526000611ac67f74625544000000000000000000000000537461747300000000000000000000008360067ee1080020200120202020200000000000000000000000000000000000000000612add565b60408051600180825281830190925260009182919060208083019080368337019050509050826001600160a01b031660001b816000815181106125465761254661557e565b60209081029190910101526000611ac67f7462776f726c6400000000000000000053797374656d526567697374727900008383630100080160dd1b612add565b6125908282613063565b6115945761259d826130c1565b816040517fd787b7370000000000000000000000000000000000000000000000000000000081526004016106d09291906155e0565b60606000606060006125e2613024565b9050306001600160a01b0382160361260b576125ff8787876131ef565b93509350935050612699565b6040517f419b58fd0000000000000000000000000000000000000000000000000000000081526001600160a01b0382169063419b58fd90612654908a908a908a90600401615647565b600060405180830381865afa158015612671573d6000803e3d6000fd5b505050506040513d6000823e601f3d908101601f191682016040526125ff9190810190615670565b93509350939050565b6126aa614da8565b6126b3846132f7565b60e0890181905260c0890182905260a0890183905260808901849052606089018590528860208101604082018860028111156126f1576126f1614f64565b600281111561270257612702614f64565b90529790975250505093909252509195945050505050565b6000612724613024565b9050306001600160a01b03821603612748576127438686868686613365565b611137565b6040517f390baae00000000000000000000000000000000000000000000000000000000081526001600160a01b0382169063390baae09061279590899089908990899089906004016156d3565b600060405180830381600087803b1580156127af57600080fd5b505af11580156127c3573d6000803e3d6000fd5b50505050505050505050565b606088888888888888886040516020016127f098979695949392919061571a565b604051602081830303815290604052905098975050505050505050565b6000612817613024565b9050306001600160a01b0382160361283657612743868686868661337a565b6040517f298314fb0000000000000000000000000000000000000000000000000000000081526001600160a01b0382169063298314fb90612795908990899089908990899060040161575f565b6040805160008082526020820190925260006128e17f74625544000000000000000000000000556c74696d617465446f6d696e696f6e8360027ecd0a0001141414141414142020000000000000000000000000000000000000612add565b60601c9392505050565b60408051600280825260608201835260009283929190602083019080368337019050509050836001600160a01b031660001b816000815181106129305761293061557e565b6020026020010181815250508260001b816001815181106129535761295361557e565b602090810291909101015260006129937f74625544000000000000000000000000436f756e7465727300000000000000008383630100080160dd1b612add565b95945050505050565b604080516002808252606082018352600092602083019080368337019050509050836001600160a01b031660001b816000815181106129dd576129dd61557e565b6020026020010181815250508260001b81600181518110612a0057612a0061557e565b602002602001018181525050611df17f74625544000000000000000000000000436f756e74657273000000000000000060001b82600085604051602001612a4991815260200190565b60408051601f19818403018152919052630100080160dd1b61271a565b6000612a746070601061546e565b6fffffffffffffffffffffffffffffffff198316901c601084901c7dffffffffffffffffffffffffffff00000000000000000000000000000000167fffff0000000000000000000000000000000000000000000000000000000000008616171790509392505050565b600080612ae8613024565b9050306001600160a01b03821603612b0e57612b0686868686613390565b915050611ac6565b6040517f8c364d590000000000000000000000000000000000000000000000000000000081526001600160a01b03821690638c364d5990612b599089908990899089906004016157b0565b602060405180830381865afa158015612b76573d6000803e3d6000fd5b505050506040513d601f19601f82011682018060405250810190612b0691906157df565b60006105057f7462000000000000000000000000000000000000000000000000000000000000837f546f6b656e555249000000000000000000000000000000000000000000000000612a66565b604080516001808252818301909252600091602080830190803683370190505090508260001b81600081518110612c2057612c2061557e565b602002602001018181525050611df18482600085612cf8565b60606000612c45613024565b9050306001600160a01b03821603612c6a57612c628585856133bd565b9150506112b8565b6040517f1e7889770000000000000000000000000000000000000000000000000000000081526001600160a01b03821690631e78897790612cb3908890889088906004016157f8565b600060405180830381865afa158015612cd0573d6000803e3d6000fd5b505050506040513d6000823e601f3d908101601f19168201604052612c629190810190615322565b6000612d02613024565b9050306001600160a01b03821603612d2557612d20858585856133f7565b610ddd565b6040517fef6ea8620000000000000000000000000000000000000000000000000000000081526001600160a01b0382169063ef6ea86290612d70908890889088908890600401615824565b600060405180830381600087803b158015612d8a57600080fd5b505af1158015612d9e573d6000803e3d6000fd5b505050505050505050565b6040805160018082528183019092526000918291829160208083019080368337019050509050837bffffffffffffffffffffffffffffffffffffffffffffffffffffffff191681600081518110612e0257612e0261557e565b602090810291909101015260008080612e5b7f7462776f726c6400000000000000000046756e6374696f6e53656c6563746f72857e240200200400000000000000000000000000000000000000000000000000006125d2565b925092509250612e6c838383613432565b9550955050505050915091565b60606000612e85612465565b90506001600160a01b0381163003612ec6576000612ead612ea461185b565b6000878761344a565b9350905080612ebf57612ebf83613585565b5050610505565b6040517f3ae7af080000000000000000000000000000000000000000000000000000000081526001600160a01b03821690633ae7af0890612f0d90879087906004016152c4565b6000604051808303816000875af1158015612f2c573d6000803e3d6000fd5b505050506040513d6000823e601f3d908101601f19168201604052611ac69190810190615322565b612f9b6040518060c001604052806000815260200160006001600160a01b031681526020016000801916815260200160001515815260200160608152602001606081525090565b612fa48461358d565b1515606085015260408401526001600160a01b031660208301528152612fca83836135cf565b60a083015260808201529392505050565b8151815160009181810160389190911b1760609190911b176112b8565b6060828260405160200161300d929190615863565b604051602081830303815290604052905092915050565b7f629a4c26e296b22a8e0856e9f6ecb2d1008d7e00081111962cd175fa7488e175546000906001600160a01b03168061305e573391505090565b919050565b60006130b17f6e730000000000000000000000000000000000000000000000000000000000007dffffffffffffffffffffffffffff000000000000000000000000000000008516178361361e565b806112b857506112b8838361361e565b606081601081901b60006130d4836136cf565b9050827fffffffffffffffffffffffffffff00000000000000000000000000000000000083161561312f5761312a7fffffffffffffffffffffffffffff00000000000000000000000000000000000084166136e6565b613166565b6040518060400160405280600681526020017f3c726f6f743e00000000000000000000000000000000000000000000000000008152505b6fffffffffffffffffffffffffffffffff1983161561318d57613188836136e6565b6131c4565b6040518060400160405280600681526020017f3c726f6f743e00000000000000000000000000000000000000000000000000008152505b6040516020016131d693929190615892565b6040516020818303038152906040529350505050919050565b60606000606060006132008561376c565b905061320d87878361378f565b9350600061321a866137c8565b905080156132ec5761322c8888613805565b935066ffffffffffffff841667ffffffffffffffff81111561325057613250614e59565b6040519080825280601f01601f19166020018201604052801561327a576020820181803683370190505b5092506020830160005b828160ff1610156132e957600061329c8b8b84613818565b905060006132b9888460ff166028026038011c64ffffffffff1690565b90506132c88260008387613898565b6132d2818561546e565b9350505080806132e190615920565b915050613284565b50505b505093509350939050565b600080600080600080600080613311896000016020015190565b60408a015160608b0151919950975060f81c600281111561333457613334614f64565b60618a015160818b015160a18c015160c18d015160e1909d01519b9d9a9c939b929a91995097509195509350915050565b610ddd85856133748487613964565b85613995565b610ddd858585858561338b8b613c39565b613cbe565b600061299361339f8686613ff7565b60ff858116601b0360080285901c166133b88587613964565b61404d565b6060611ac66133cd858585613818565b60006133f2856133dd8989613805565b9060ff166028026038011c64ffffffffff1690565b61409e565b60006134038585613805565b90506000613420828560ff166028026038011c64ffffffffff1690565b905061113786868660008588886140c1565b60008061343e856144fb565b90969095509350505050565b6000606060008061345a86614510565b90925090506001600160a01b0382166134ab5785613477876130c1565b6040517ffbf10ce60000000000000000000000000000000000000000000000000000000081526004016106d09291906152c4565b806134ba576134ba86896145b4565b8615613526577dffffffffffffffffffffffffffff0000000000000000000000000000000086167f6e7300000000000000000000000000000000000000000000000000000000000017600061350e826145be565b90506135238261351e8b8461546e565b614637565b50505b60006135328760101b90565b7fffffffffffffffffffffffffffff000000000000000000000000000000000000161461356a57613565888884886146d3565b613576565b6135768888848861474b565b90999098509650505050505050565b805160208201fd5b6000806000806135a1856000016020015190565b6040860151605487015191955060601c935060748601519092506135c6905b60f81c90565b90509193509193565b6060806000603885901c64ffffffffff166135f36135ee8684846147ac565b61483a565b935090508064ffffffffff606087901c16016136136135ee8684846147ac565b925050509250929050565b6040805160028082526060820183526000928392919060208301908036833701905050905083816000815181106136575761365761557e565b602002602001018181525050826001600160a01b031660001b816001815181106136835761368361557e565b602090810291909101015260006136c37f7462776f726c640000000000000000005265736f7572636541636365737300008383630101000160d81b612add565b90506129938160f81c90565b60006136dd6070601061546e565b9190911b919050565b606060005b601081101561373c576fffffffffffffffffffffffffffffffff198316600882021b7fff00000000000000000000000000000000000000000000000000000000000000161561373c576001016136eb565b604080516fffffffffffffffffffffffffffffffff19851660208201528151603090910190915281815280611ac6565b6000600861377c60026020615513565b613786919061593f565b9190911c919050565b6060816000036137ae57506040805160208101909152600081526112b8565b60006137ba8585613ff7565b90506129938160008561409e565b600060086001806137db60026020615513565b6137e59190615513565b6137ef9190615513565b6137f9919061593f565b8260ff911c1692915050565b60006112b861381484846148ba565b5490565b6000838360405160200161382d929190615956565b604051602081830303815290604052805190602001208260f81b7effffffffffffffffffffffffffffffffffffffffffffffffffffffffffffff19167f3b4102da22e32d82fc925482184f16c09fd4281692720b87d124aef6da48a0f1181860001c90509392505050565b821561391f57602083106138c2576020830484019350602083816138be576138be615436565b0692505b821561391f5760208390036000818410156138e55750600019600884021c6138ef565b50600019600882021c5b8554600886021b818451168219821617845250818411613910575050611df1565b50600194909401939182900391015b5b602082106139415783548152600190930192601f1990910190602001613920565b8115611df1576000600019600884021c8251865482191691161782525050505050565b600080805b8360ff1681101561095d5761398b60ff601b83900360080287901c168361546e565b9150600101613969565b7f6f74000000000000000000000000000000000000000000000000000000000000847fffff0000000000000000000000000000000000000000000000000000000000001603613a1f57837f8c0b5119d4cec7b284c6b1b39252a03d1e2f2d7451a5895562524c113bb952be848484604051613a1293929190615992565b60405180910390a2611df1565b6000613a2b8585613ff7565b90506000613a3886614910565b905060005b8151811015613b0d576000828281518110613a5a57613a5a61557e565b60200260200101519050613a866004826affffffffffffffffffffff191661499990919063ffffffff16565b15613b04576040517f964f667d000000000000000000000000000000000000000000000000000000008152606082901c9063964f667d90613ad1908b908b908b908b906004016159c5565b600060405180830381600087803b158015613aeb57600080fd5b505af1158015613aff573d6000803e3d6000fd5b505050505b50600101613a3d565b50857f8c0b5119d4cec7b284c6b1b39252a03d1e2f2d7451a5895562524c113bb952be868686604051613b4293929190615992565b60405180910390a2613b5d828565ffffffffffff16856149b7565b60005b8151811015613c30576000828281518110613b7d57613b7d61557e565b60200260200101519050613ba96008826affffffffffffffffffffff191661499990919063ffffffff16565b15613c27576040517fa8ba8721000000000000000000000000000000000000000000000000000000008152606082901c9063a8ba872190613bf4908b908b908b908b906004016159c5565b600060405180830381600087803b158015613c0e57600080fd5b505af1158015613c22573d6000803e3d6000fd5b505050505b50600101613b60565b50505050505050565b60007f8b9d8c8b908d9affffffffffffffffffab9e9d939a8d000000000000000000008201613c8857507e60030220202000000000000000000000000000000000000000000000000000919050565b610505613cb57f746273746f72650000000000000000005461626c657300000000000000000000846149cd565b6020600061404d565b7f6f74000000000000000000000000000000000000000000000000000000000000867fffff0000000000000000000000000000000000000000000000000000000000001603613d4a57857f8dbb3a9672eebfd3773e72dd9c102393436816d832c7ba9e1e1ac8fcadcac7a986868686604051613d3d94939291906159fe565b60405180910390a2611137565b6000613d5587614910565b905060005b8151811015613e2e576000828281518110613d7757613d7761557e565b60200260200101519050613da36001826affffffffffffffffffffff191661499990919063ffffffff16565b15613e25576040517f57066c9c000000000000000000000000000000000000000000000000000000008152606082901c906357066c9c90613df2908c908c908c908c908c908c90600401615a3d565b600060405180830381600087803b158015613e0c57600080fd5b505af1158015613e20573d6000803e3d6000fd5b505050505b50600101613d5a565b50867f8dbb3a9672eebfd3773e72dd9c102393436816d832c7ba9e1e1ac8fcadcac7a987878787604051613e6594939291906159fe565b60405180910390a26000613e798888613ff7565b90506000602087019050613e918260008951846149e9565b6000613e9c856137c8565b1115613f20576000613eae8a8a6148ba565b878155905060208601915060008060005b613ec8886137c8565b8160ff161015613f1b57613edd8d8d83613818565b9250613ef88a8260ff166028026038011c64ffffffffff1690565b9150613f0783600084886149e9565b613f11828661546e565b9450600101613ebf565b505050505b60005b83518110156127c3576000848281518110613f4057613f4061557e565b60200260200101519050613f6c6002826affffffffffffffffffffff191661499990919063ffffffff16565b15613fee576040517f5b28cdaf000000000000000000000000000000000000000000000000000000008152606082901c90635b28cdaf90613fbb908e908e908e908e908e908e90600401615a3d565b600060405180830381600087803b158015613fd557600080fd5b505af1158015613fe9573d6000803e3d6000fd5b505050505b50600101613f23565b6000828260405160200161400c929190615956565b60408051601f1981840301815291905280516020909101207f86425bff6b57326c7859e89024fe4f238ca327a1ae4a230180dd2f0e88aaa7d9189392505050565b6000602082106140735760208204840193506020828161406f5761406f615436565b0691505b508254600882021b60208290038084111561095d576001850154600882021c82179150509392505050565b60405160208101601f19603f848401011660405282825261095d85858584613898565b7f7462000000000000000000000000000000000000000000000000000000000000877fffff0000000000000000000000000000000000000000000000000000000000001614614181577f7462000000000000000000000000000000000000000000000000000000000000878860405160200161413f91815260200190565b60408051601f19818403018152908290527f31b466830000000000000000000000000000000000000000000000000000000082526106d0939291600401615a96565b600061419c828760ff166028026038011c64ffffffffff1690565b9050600083518564ffffffffff16836141b59190615513565b6141bf919061546e565b90508082141580156141e15750816141d78688615ad7565b64ffffffffff1614155b15614231576040517fa65010b400000000000000000000000000000000000000000000000000000000815264ffffffffff80881660048301528087166024830152831660448201526064016106d0565b818664ffffffffff161115614282576040517f7e8578d30000000000000000000000000000000000000000000000000000000081526004810183905264ffffffffff871660248201526044016106d0565b600061428f848984614aa8565b9050600061429c8b614910565b905060005b81518110156143675760008282815181106142be576142be61557e565b602002602001015190506142ea6010826affffffffffffffffffffff191661499990919063ffffffff16565b1561435e57606081901c6001600160a01b03166355eb5a288e8e8e8e8e8d8f6040518863ffffffff1660e01b815260040161432b9796959493929190615af5565b600060405180830381600087803b15801561434557600080fd5b505af1158015614359573d6000803e3d6000fd5b505050505b506001016142a1565b5064ffffffffff881660005b8a60ff168160ff1610156143a65761439a878260ff166028026038011c64ffffffffff1690565b90910190600101614373565b508b7ffe158a7adba34e256807c8a149028d3162918713c3838afc643ce9f96716ebfd8c8c848c888d6040516143e196959493929190615b53565b60405180910390a2508284146144025760006143fd8c8c6148ba565b839055505b600061440f8c8c8c613818565b9050614423818a64ffffffffff16896149b7565b5060005b81518110156144ed5760008282815181106144445761444461557e565b602002602001015190506144706020826affffffffffffffffffffff191661499990919063ffffffff16565b156144e457606081901c6001600160a01b031663635845338e8e8e8e8e8a8f6040518863ffffffff1660e01b81526004016144b19796959493929190615af5565b600060405180830381600087803b1580156144cb57600080fd5b505af11580156144df573d6000803e3d6000fd5b505050505b50600101614427565b505050505050505050505050565b602081015160408201516000905b9050915091565b6040805160018082528183019092526000918291829160208083019080368337019050509050838160008151811061454a5761454a61557e565b6020908102919091010152600080806145a37f7462776f726c6400000000000000000053797374656d73000000000000000000857e150200140100000000000000000000000000000000000000000000000000006131ef565b925092509250612e6c838383614b76565b6125908282614b82565b6040805160018082528183019092526000918291906020808301908036833701905050905082816000815181106145f7576145f761557e565b60209081029190910101526000611ac67f7462776f726c6400000000000000000042616c616e63657300000000000000008383630100080160dd1b613390565b60408051600180825281830190925260009160208083019080368337019050509050828160008151811061466d5761466d61557e565b6020026020010181815250506106e37f7462776f726c6400000000000000000042616c616e636573000000000000000060001b826000856040516020016146b691815260200190565b60408051601f19818403018152919052630100080160dd1b613365565b60006060836001600160a01b031660006146ee858989614be0565b6040516146fb9190615baf565b60006040518083038185875af1925050503d8060008114614738576040519150601f19603f3d011682016040523d82523d6000602084013e61473d565b606091505b509097909650945050505050565b60006060836001600160a01b0316614764848888614be0565b6040516147719190615baf565b600060405180830381855af49150503d8060008114614738576040519150601f19603f3d011682016040523d82523d6000602084013e61473d565b6000818311806147bc5750835182115b156147f9578383836040517f23230fa30000000000000000000000000000000000000000000000000000000081526004016106d093929190615bcb565b60208401614807848261546e565b905060006148158585615513565b6fffffffffffffffffffffffffffffffff1660809290921b9190911795945050505050565b606060006148488360801c90565b90506fffffffffffffffffffffffffffffffff83168067ffffffffffffffff81111561487657614876614e59565b6040519080825280601f01601f1916602001820160405280156148a0576020820181803683370190505b509250602083016148b2838284614c0f565b505050919050565b600082826040516020016148cf929190615956565b60408051601f1981840301815291905280516020909101207f14e2fcc58e58e68ec7edc30c8d50dccc3ce2714a623ec81f46b6a63922d76569189392505050565b6040805160018082528183019092526060916000919060208083019080368337019050509050828160008151811061494a5761494a61557e565b602090810291909101015260006149827f746273746f726500000000000000000053746f7265486f6f6b7300000000000083836133bd565b9050611ac661499482600084516147ac565b614c5a565b60008160ff16826149aa8560581c90565b1660ff1614905092915050565b6106e3838383516149c88560200190565b6149e9565b604080516020810184905290810182905260009060600161400c565b8215614a635760208310614a1357602083048401935060208381614a0f57614a0f615436565b0692505b8215614a635760208390036000600019600885021c1990506008850281811c91508351811c9050811987541682821617875550818411614a54575050611df1565b50600194909401939182900391015b5b60208210614a855780518455600190930192601f1990910190602001614a64565b8115611df1576000600019600884021c8554835182191691161785555050505050565b600064ffffffffff821115614aec576040517f7149a3c1000000000000000000000000000000000000000000000000000000008152600481018390526024016106d0565b8366ffffffffffffff811660ff851660280260380182901c64ffffffffff16808510614b1e5780850382019150614b26565b848103820391505b5064ffffffffff6038602860ff8816020181811b197fffffffffffffffffffffffffffffffffffffffffffffffffff000000000000009490941690921792909216918416901b1790509392505050565b60008061343e85614c6b565b6000614bd07f6e730000000000000000000000000000000000000000000000000000000000007dffffffffffffffffffffffffffff0000000000000000000000000000000085161783614c88565b806112b857506112b88383614c88565b6060838383604051602001614bf793929190615bf0565b60405160208183030381529060405290509392505050565b5b60208110614c2f578251825260209283019290910190601f1901614c10565b80600003614c3c57505050565b6000600019600883021c905080835116811985511617835250505050565b606060006112b88360156000614d2d565b6020810151603482015160609190911c90600090614509906135c0565b604080516002808252606082018352600092839291906020830190803683370190505090508381600081518110614cc157614cc161557e565b602002602001018181525050826001600160a01b031660001b81600181518110614ced57614ced61557e565b602090810291909101015260006136c37f7462776f726c640000000000000000005265736f7572636541636365737300008383630101000160d81b613390565b60606000614d3b8560801c90565b90506fffffffffffffffffffffffffffffffff85166000858281614d6157614d61615436565b04905060405193506020840160208202810160405281855260005b82811015614d9c578451871c825293870193602090910190600101614d7c565b50505050509392505050565b604051806101000160405280600081526020016000815260200160006002811115614dd557614dd5614f64565b815260200160008152602001600081526020016000815260200160008152602001600081525090565b600060208284031215614e1057600080fd5b5035919050565b600060208284031215614e2957600080fd5b81357fffffffff00000000000000000000000000000000000000000000000000000000811681146112b857600080fd5b634e487b7160e01b600052604160045260246000fd5b60405160c0810167ffffffffffffffff81118282101715614e9257614e92614e59565b60405290565b604051610100810167ffffffffffffffff81118282101715614e9257614e92614e59565b604051601f8201601f1916810167ffffffffffffffff81118282101715614ee557614ee5614e59565b604052919050565b60008082840360e0811215614f0157600080fd5b8335925060c0601f1982011215614f1757600080fd5b50614f20614e6f565b6020840135815260408401356020820152606084013560408201526080840135606082015260a0840135608082015260c084013560a0820152809150509250929050565b634e487b7160e01b600052602160045260246000fd5b60038110614f9857634e487b7160e01b600052602160045260246000fd5b50565b81518152602080830151908201526040820151610100820190614fbd81614f7a565b80604084015250606083015160608301526080830151608083015260a083015160a083015260c083015160c083015260e083015160e083015292915050565b6001600160a01b0381168114614f9857600080fd5b600067ffffffffffffffff82111561502b5761502b614e59565b50601f01601f191660200190565b600082601f83011261504a57600080fd5b813561505d61505882615011565b614ebc565b81815284602083860101111561507257600080fd5b816020850160208301376000918101602001919091529392505050565b6000806000606084860312156150a457600080fd5b83356150af81614ffc565b925060208401359150604084013567ffffffffffffffff8111156150d257600080fd5b6150de86828701615039565b9150509250925092565b60038110614f9857600080fd5b60008082840361012081121561510a57600080fd5b8335925061010080601f198301121561512257600080fd5b61512a614e98565b91506020850135825260408501356020830152606085013561514b816150e8565b806040840152506080850135606083015260a0850135608083015260c085013560a083015260e085013560c08301528085013560e083015250809150509250929050565b6020810161519c83614f7a565b91905290565b6000806000606084860312156151b757600080fd5b833592506020840135915060408401356151d0816150e8565b809150509250925092565b600080604083850312156151ee57600080fd5b82359150602083013561520081614ffc565b809150509250929050565b6000806040838503121561521e57600080fd5b82359150602083013567ffffffffffffffff81111561523c57600080fd5b61524885828601615039565b9150509250929050565b60006020828403121561526457600080fd5b815180151581146112b857600080fd5b60005b8381101561528f578181015183820152602001615277565b50506000910152565b600081518084526152b0816020860160208601615274565b601f01601f19169290920160200192915050565b828152604060208201526000611ac66040830184615298565b600082601f8301126152ee57600080fd5b81516152fc61505882615011565b81815284602083860101111561531157600080fd5b611ac6826020830160208701615274565b60006020828403121561533457600080fd5b815167ffffffffffffffff81111561534b57600080fd5b611ac6848285016152dd565b6000610100828403121561536a57600080fd5b615372614e98565b8251815260208301516020820152604083015161538e816150e8565b80604083015250606083015160608201526080830151608082015260a083015160a082015260c083015160c082015260e083015160e08201528091505092915050565b634e487b7160e01b600052601160045260246000fd5b8181036000831280158383131683831282161715615407576154076153d1565b5092915050565b808201828112600083128015821682158216171561542e5761542e6153d1565b505092915050565b634e487b7160e01b600052601260045260246000fd5b60008261546957634e487b7160e01b600052601260045260246000fd5b500690565b80820180821115610505576105056153d1565b60007f7fffffffffffffffffffffffffffffffffffffffffffffffffffffffffffffff82036154b2576154b26153d1565b5060010190565b600060c082840312156154cb57600080fd5b6154d3614e6f565b825181526020830151602082015260408301516040820152606083015160608201526080830151608082015260a083015160a08201528091505092915050565b81810381811115610505576105056153d1565b600060001982036154b2576154b26153d1565b60006020828403121561554b57600080fd5b81516112b881614ffc565b83815261556283614f7a565b8260208201526060604082015260006129936060830184615298565b634e487b7160e01b600052603260045260246000fd5b6000815160208301517fffffffff00000000000000000000000000000000000000000000000000000000808216935060048310156148b25760049290920360031b82901b161692915050565b6040815260006155f36040830185615298565b90506001600160a01b03831660208301529392505050565b60008151808452602080850194506020840160005b8381101561563c57815187529582019590820190600101615620565b509495945050505050565b838152606060208201526000615660606083018561560b565b9050826040830152949350505050565b60008060006060848603121561568557600080fd5b835167ffffffffffffffff8082111561569d57600080fd5b6156a9878388016152dd565b94506020860151935060408601519150808211156156c657600080fd5b506150de868287016152dd565b85815260a0602082015260006156ec60a083018761560b565b60ff8616604084015282810360608401526157078186615298565b9150508260808301529695505050505050565b88815287602082015261572c87614f7a565b60f89690961b604087015260418601949094526061850192909252608184015260a183015260c182015260e10192915050565b85815260a06020820152600061577860a083018761560b565b828103604084015261578a8187615298565b905084606084015282810360808401526157a48185615298565b98975050505050505050565b8481526080602082015260006157c9608083018661560b565b60ff949094166040830152506060015292915050565b6000602082840312156157f157600080fd5b5051919050565b838152606060208201526000615811606083018561560b565b905060ff83166040830152949350505050565b84815260806020820152600061583d608083018661560b565b60ff8516604084015282810360608401526158588185615298565b979650505050505050565b60008351615875818460208801615274565b835190830190615889818360208801615274565b01949350505050565b7fffff0000000000000000000000000000000000000000000000000000000000008416815260007f3a0000000000000000000000000000000000000000000000000000000000000080600284015284516158f3816003860160208901615274565b808401905081600382015284519150615913826004830160208801615274565b0160040195945050505050565b600060ff821660ff8103615936576159366153d1565b60010192915050565b8082028115828204841417610505576105056153d1565b8281526000602080830184516020860160005b8281101561598557815184529284019290840190600101615969565b5091979650505050505050565b6060815260006159a5606083018661560b565b65ffffffffffff8516602084015282810360408401526116408185615298565b8481526080602082015260006159de608083018661560b565b65ffffffffffff8516604084015282810360608401526158588185615298565b608081526000615a11608083018761560b565b8281036020840152615a238187615298565b905084604084015282810360608401526158588185615298565b86815260c060208201526000615a5660c083018861560b565b8281036040840152615a688188615298565b90508560608401528281036080840152615a828186615298565b9150508260a0830152979650505050505050565b7fffff000000000000000000000000000000000000000000000000000000000000841681528260208201526060604082015260006129936060830184615298565b64ffffffffff818116838216019080821115615407576154076153d1565b87815260e060208201526000615b0e60e083018961560b565b60ff8816604084015264ffffffffff87811660608501528616608084015260a0830185905282810360c0840152615b458185615298565b9a9950505050505050505050565b60c081526000615b6660c083018961560b565b60ff8816602084015265ffffffffffff8716604084015264ffffffffff8616606084015284608084015282810360a0840152615ba28185615298565b9998505050505050505050565b60008251615bc1818460208701615274565b9190910192915050565b606081526000615bde6060830186615298565b60208301949094525060400152919050565b60008451615c02818460208901615274565b60609490941b6bffffffffffffffffffffffff19169190930190815260148101919091526034019291505056fea264697066735822122041c8a74e47f84484fce88557ef58c5eeabba96a3b505561290070897d1c9f98164736f6c63430008180033","linkReferences":{}},"methodIdentifiers":{"_msgSender()":"119df25f","_msgValue()":"45ec9354","_world()":"e1af802c","enterGame(bytes32)":"c74dedc8","getBaseStats(bytes32)":"7163c6ba","getCharacterTokenId(bytes32)":"f8c67561","getClass(bytes32)":"23801570","getCurrentAvailableLevel(uint256)":"1ecb393f","getExperience(bytes32)":"ebee03bb","getName(bytes32)":"54b8d5e3","getOwner(bytes32)":"deb931a2","getOwnerAddress(bytes32)":"00d43ec6","getPlayerEntityId(uint256)":"8338f0e0","getStats(bytes32)":"0bb700dc","isValidCharacterId(bytes32)":"623daa05","isValidOwner(bytes32,address)":"9b63ec05","levelCharacter(bytes32,(int256,int256,uint8,int256,int256,int256,uint256,uint256))":"1b5cdcc4","mintCharacter(address,bytes32,string)":"143f3021","rollStats(bytes32,bytes32,uint8)":"679ee16d","setStats(bytes32,(int256,int256,int256,int256,int256,int256))":"09a4fa6e","supportsInterface(bytes4)":"01ffc9a7","updateTokenUri(bytes32,string)":"b27cbcbb"},"id":225}