{"abi":[{"type":"function","name":"_msgSender","inputs":[],"outputs":[{"name":"sender","type":"address","internalType":"address"}],"stateMutability":"view"},{"type":"function","name":"_msgValue","inputs":[],"outputs":[{"name":"value","type":"uint256","internalType":"uint256"}],"stateMutability":"pure"},{"type":"function","name":"_world","inputs":[],"outputs":[{"name":"","type":"address","internalType":"address"}],"stateMutability":"view"},{"type":"function","name":"enterGame","inputs":[{"name":"characterId","type":"bytes32","internalType":"bytes32"}],"outputs":[],"stateMutability":"nonpayable"},{"type":"function","name":"getCharacterTokenId","inputs":[{"name":"characterId","type":"bytes32","internalType":"bytes32"}],"outputs":[{"name":"","type":"uint256","internalType":"uint256"}],"stateMutability":"pure"},{"type":"function","name":"getClass","inputs":[{"name":"characterId","type":"bytes32","internalType":"bytes32"}],"outputs":[{"name":"_class","type":"uint8","internalType":"enum Classes"}],"stateMutability":"view"},{"type":"function","name":"getCurrentAvailableLevel","inputs":[{"name":"experience","type":"uint256","internalType":"uint256"}],"outputs":[{"name":"currentAvailibleLevel","type":"uint256","internalType":"uint256"}],"stateMutability":"view"},{"type":"function","name":"getExperience","inputs":[{"name":"characterId","type":"bytes32","internalType":"bytes32"}],"outputs":[{"name":"","type":"uint256","internalType":"uint256"}],"stateMutability":"view"},{"type":"function","name":"getName","inputs":[{"name":"characterId","type":"bytes32","internalType":"bytes32"}],"outputs":[{"name":"_name","type":"bytes32","internalType":"bytes32"}],"stateMutability":"view"},{"type":"function","name":"getOwner","inputs":[{"name":"characterId","type":"bytes32","internalType":"bytes32"}],"outputs":[{"name":"","type":"address","internalType":"address"}],"stateMutability":"view"},{"type":"function","name":"getOwnerAddress","inputs":[{"name":"characterId","type":"bytes32","internalType":"bytes32"}],"outputs":[{"name":"","type":"address","internalType":"address"}],"stateMutability":"pure"},{"type":"function","name":"getPlayerEntityId","inputs":[{"name":"characterTokenId","type":"uint256","internalType":"uint256"}],"outputs":[{"name":"characterId","type":"bytes32","internalType":"bytes32"}],"stateMutability":"view"},{"type":"function","name":"getStats","inputs":[{"name":"characterId","type":"bytes32","internalType":"bytes32"}],"outputs":[{"name":"","type":"tuple","internalType":"struct StatsData","components":[{"name":"strength","type":"uint256","internalType":"uint256"},{"name":"agility","type":"uint256","internalType":"uint256"},{"name":"class","type":"uint8","internalType":"enum Classes"},{"name":"intelligence","type":"uint256","internalType":"uint256"},{"name":"baseHp","type":"uint256","internalType":"uint256"},{"name":"currentHp","type":"int256","internalType":"int256"},{"name":"experience","type":"uint256","internalType":"uint256"},{"name":"level","type":"uint256","internalType":"uint256"}]}],"stateMutability":"view"},{"type":"function","name":"isValidCharacterId","inputs":[{"name":"characterId","type":"bytes32","internalType":"bytes32"}],"outputs":[{"name":"","type":"bool","internalType":"bool"}],"stateMutability":"view"},{"type":"function","name":"isValidOwner","inputs":[{"name":"characterId","type":"bytes32","internalType":"bytes32"},{"name":"owner","type":"address","internalType":"address"}],"outputs":[{"name":"","type":"bool","internalType":"bool"}],"stateMutability":"view"},{"type":"function","name":"levelCharacter","inputs":[{"name":"characterId","type":"bytes32","internalType":"bytes32"},{"name":"desiredStats","type":"tuple","internalType":"struct StatsData","components":[{"name":"strength","type":"uint256","internalType":"uint256"},{"name":"agility","type":"uint256","internalType":"uint256"},{"name":"class","type":"uint8","internalType":"enum Classes"},{"name":"intelligence","type":"uint256","internalType":"uint256"},{"name":"baseHp","type":"uint256","internalType":"uint256"},{"name":"currentHp","type":"int256","internalType":"int256"},{"name":"experience","type":"uint256","internalType":"uint256"},{"name":"level","type":"uint256","internalType":"uint256"}]}],"outputs":[],"stateMutability":"nonpayable"},{"type":"function","name":"mintCharacter","inputs":[{"name":"account","type":"address","internalType":"address"},{"name":"name","type":"bytes32","internalType":"bytes32"},{"name":"tokenUri","type":"string","internalType":"string"}],"outputs":[{"name":"characterId","type":"bytes32","internalType":"bytes32"}],"stateMutability":"nonpayable"},{"type":"function","name":"rollStats","inputs":[{"name":"userRandomNumber","type":"bytes32","internalType":"bytes32"},{"name":"characterId","type":"bytes32","internalType":"bytes32"},{"name":"class","type":"uint8","internalType":"enum Classes"}],"outputs":[{"name":"requestId","type":"bytes32","internalType":"bytes32"}],"stateMutability":"payable"},{"type":"function","name":"supportsInterface","inputs":[{"name":"interfaceId","type":"bytes4","internalType":"bytes4"}],"outputs":[{"name":"","type":"bool","internalType":"bool"}],"stateMutability":"pure"},{"type":"function","name":"updateTokenUri","inputs":[{"name":"characterId","type":"bytes32","internalType":"bytes32"},{"name":"tokenUri","type":"string","internalType":"string"}],"outputs":[],"stateMutability":"nonpayable"},{"type":"event","name":"Store_SetRecord","inputs":[{"name":"tableId","type":"bytes32","indexed":true,"internalType":"ResourceId"},{"name":"keyTuple","type":"bytes32[]","indexed":false,"internalType":"bytes32[]"},{"name":"staticData","type":"bytes","indexed":false,"internalType":"bytes"},{"name":"encodedLengths","type":"bytes32","indexed":false,"internalType":"EncodedLengths"},{"name":"dynamicData","type":"bytes","indexed":false,"internalType":"bytes"}],"anonymous":false},{"type":"event","name":"Store_SpliceDynamicData","inputs":[{"name":"tableId","type":"bytes32","indexed":true,"internalType":"ResourceId"},{"name":"keyTuple","type":"bytes32[]","indexed":false,"internalType":"bytes32[]"},{"name":"dynamicFieldIndex","type":"uint8","indexed":false,"internalType":"uint8"},{"name":"start","type":"uint48","indexed":false,"internalType":"uint48"},{"name":"deleteCount","type":"uint40","indexed":false,"internalType":"uint40"},{"name":"encodedLengths","type":"bytes32","indexed":false,"internalType":"EncodedLengths"},{"name":"data","type":"bytes","indexed":false,"internalType":"bytes"}],"anonymous":false},{"type":"event","name":"Store_SpliceStaticData","inputs":[{"name":"tableId","type":"bytes32","indexed":true,"internalType":"ResourceId"},{"name":"keyTuple","type":"bytes32[]","indexed":false,"internalType":"bytes32[]"},{"name":"start","type":"uint48","indexed":false,"internalType":"uint48"},{"name":"data","type":"bytes","indexed":false,"internalType":"bytes"}],"anonymous":false},{"type":"error","name":"EncodedLengths_InvalidLength","inputs":[{"name":"length","type":"uint256","internalType":"uint256"}]},{"type":"error","name":"Slice_OutOfBounds","inputs":[{"name":"data","type":"bytes","internalType":"bytes"},{"name":"start","type":"uint256","internalType":"uint256"},{"name":"end","type":"uint256","internalType":"uint256"}]},{"type":"error","name":"Store_IndexOutOfBounds","inputs":[{"name":"length","type":"uint256","internalType":"uint256"},{"name":"accessedIndex","type":"uint256","internalType":"uint256"}]},{"type":"error","name":"Store_InvalidResourceType","inputs":[{"name":"expected","type":"bytes2","internalType":"bytes2"},{"name":"resourceId","type":"bytes32","internalType":"ResourceId"},{"name":"resourceIdString","type":"string","internalType":"string"}]},{"type":"error","name":"Store_InvalidSplice","inputs":[{"name":"startWithinField","type":"uint40","internalType":"uint40"},{"name":"deleteCount","type":"uint40","internalType":"uint40"},{"name":"fieldLength","type":"uint40","internalType":"uint40"}]},{"type":"error","name":"World_AccessDenied","inputs":[{"name":"resource","type":"string","internalType":"string"},{"name":"caller","type":"address","internalType":"address"}]},{"type":"error","name":"World_FunctionSelectorNotFound","inputs":[{"name":"functionSelector","type":"bytes4","internalType":"bytes4"}]},{"type":"error","name":"World_ResourceNotFound","inputs":[{"name":"resourceId","type":"bytes32","internalType":"ResourceId"},{"name":"resourceIdString","type":"string","internalType":"string"}]}],"bytecode":{"object":"0x608060405234801561001057600080fd5b50614c4c806100206000396000f3fe60806040526004361061015e5760003560e01c8063679ee16d116100c0578063c74dedc811610074578063e1af802c11610059578063e1af802c146103bb578063ebee03bb146103d0578063f8c67561146103f057600080fd5b8063c74dedc81461037b578063deb931a21461039b57600080fd5b80639b63ec05116100a55780639b63ec0514610319578063b27cbcbb14610339578063c441b44d1461035b57600080fd5b8063679ee16d146102e65780638338f0e0146102f957600080fd5b80631ecb393f1161011757806345ec9354116100fc57806345ec93541461028e57806354b8d5e3146102a6578063623daa05146102c657600080fd5b80631ecb393f14610241578063238015701461026157600080fd5b80630bb700dc116101485780630bb700dc146101d1578063119df25f146101fe578063143f30211461021357600080fd5b8062d43ec61461016357806301ffc9a7146101a1575b600080fd5b34801561016f57600080fd5b5061018461017e36600461404b565b60601c90565b6040516001600160a01b0390911681526020015b60405180910390f35b3480156101ad57600080fd5b506101c16101bc366004614064565b61041c565b6040519015158152602001610198565b3480156101dd57600080fd5b506101f16101ec36600461404b565b6104b5565b60405161019891906140dd565b34801561020a57600080fd5b506101846104c6565b34801561021f57600080fd5b5061023361022e366004614242565b6104d5565b604051908152602001610198565b34801561024d57600080fd5b5061023361025c36600461404b565b610737565b34801561026d57600080fd5b5061028161027c36600461404b565b6107b6565b604051610198919061429b565b34801561029a57600080fd5b5036601f190135610233565b3480156102b257600080fd5b506102336102c136600461404b565b6107c1565b3480156102d257600080fd5b506101c16102e136600461404b565b6107cc565b6102336102f43660046142bd565b6108f8565b34801561030557600080fd5b5061023361031436600461404b565b610a84565b34801561032557600080fd5b506101c16103343660046142f2565b610b19565b34801561034557600080fd5b50610359610354366004614322565b610be0565b005b34801561036757600080fd5b50610359610376366004614369565b610c61565b34801561038757600080fd5b5061035961039636600461404b565b610e85565b3480156103a757600080fd5b506101846103b636600461404b565b61107d565b3480156103c757600080fd5b50610184611088565b3480156103dc57600080fd5b506102336103eb36600461404b565b611092565b3480156103fc57600080fd5b5061023361040b36600461404b565b6bffffffffffffffffffffffff1690565b60007fffffffff0000000000000000000000000000000000000000000000000000000082167fb5dee1270000000000000000000000000000000000000000000000000000000014806104af57507fffffffff0000000000000000000000000000000000000000000000000000000082167f01ffc9a700000000000000000000000000000000000000000000000000000000145b92915050565b6104bd613ff5565b6104af8261109d565b60006104d061114f565b905090565b6000806104e0611181565b90506bffffffffffffffffffffffff81106105685760405162461bcd60e51b815260206004820152602360248201527f43484152414341544552533a204d61782063686172616374657273207265616360448201527f686564000000000000000000000000000000000000000000000000000000000060648201526084015b60405180910390fd5b610570611088565b6001600160a01b0316633ae7af086105a77f43686172616374657273000000000000000000000000000000000000000000006111b4565b6040516001600160a01b03891660248201526044810185905260640160408051601f198184030181529181526020820180517bffffffffffffffffffffffffffffffffffffffffffffffffffffffff167f40c10f1900000000000000000000000000000000000000000000000000000000179052517fffffffff0000000000000000000000000000000000000000000000000000000060e085901b16815261065392919060040161444f565b6000604051808303816000875af1158015610672573d6000803e3d6000fd5b505050506040513d6000823e601f3d908101601f1916820160405261069a91908101906144ad565b506106a481610a84565b91506106b08286611201565b6106ba82826112cb565b6106c38461134a565b156107105760405162461bcd60e51b815260206004820152601360248201527f4e616d6520616c72656164792065786973747300000000000000000000000000604482015260640161055f565b61071b8460016113ef565b61072582856114a8565b61072f8184611527565b509392505050565b6000610743601361155e565b821061075157506014919050565b60005b60148110156107af57826107678261155e565b1115801561078657508261078461077f8360016144f8565b61155e565b115b1561079d576107968160016144f8565b91506107af565b806107a78161450b565b915050610754565b505b919050565b60006104af826115da565b60006104af82611684565b6000806107d98360601c90565b90506bffffffffffffffffffffffff831660006107f4611716565b6001600160a01b0316636352211e836040518263ffffffff1660e01b815260040161082191815260200190565b602060405180830381865afa92505050801561085a575060408051601f3d908101601f1916820190925261085791810190614525565b60015b156108d957610867611716565b6001600160a01b0316636352211e846040518263ffffffff1660e01b815260040161089491815260200190565b602060405180830381865afa1580156108b1573d6000803e3d6000fd5b505050506040513d601f19601f820116820180604052508101906108d59190614525565b9150505b826001600160a01b0316816001600160a01b0316149350505050919050565b600082610907816103346104c6565b61095e5760405162461bcd60e51b815260206004820152602260248201527f4348415241435445522053595354454d3a20494e56414c4944204f504552415460448201526127a960f11b606482015260840161055f565b61096784611720565b156109da5760405162461bcd60e51b815260206004820152602b60248201527f434841524143544552533a2063686172616374657220616c726561647920696e60448201527f2067616d6520776f726c64000000000000000000000000000000000000000000606482015260840161055f565b60006109e685856117b2565b610a7a8682876040516020016109fe91815260200190565b60408051601f1981840301815290829052610a1d939291602401614542565b60408051601f198184030181529190526020810180517bffffffffffffffffffffffffffffffffffffffffffffffffffffffff167fb2aa60a40000000000000000000000000000000000000000000000000000000017905261189b565b5050509392505050565b600080610a8f611716565b6001600160a01b0316636352211e846040518263ffffffff1660e01b8152600401610abc91815260200190565b602060405180830381865afa158015610ad9573d6000803e3d6000fd5b505050506040513d601f19601f82011682018060405250810190610afd9190614525565b60601b6bffffffffffffffffffffffff19169290921792915050565b6000610b24836107cc565b8015610bd95750816001600160a01b0316610b3d611716565b6040517f6352211e0000000000000000000000000000000000000000000000000000000081526bffffffffffffffffffffffff861660048201526001600160a01b039190911690636352211e90602401602060405180830381865afa158015610baa573d6000803e3d6000fd5b505050506040513d601f19601f82011682018060405250810190610bce9190614525565b6001600160a01b0316145b9392505050565b81610bed816103346104c6565b610c445760405162461bcd60e51b815260206004820152602260248201527f4348415241435445522053595354454d3a20494e56414c4944204f504552415460448201526127a960f11b606482015260840161055f565b610c5c6bffffffffffffffffffffffff841683611527565b505050565b81610c6e816103346104c6565b610cc55760405162461bcd60e51b815260206004820152602260248201527f4348415241435445522053595354454d3a20494e56414c4944204f504552415460448201526127a960f11b606482015260840161055f565b6000610cd08461109d565b90506000610ce18260c00151610737565b90508160e00151811115610d035760e08201805190610cff8261450b565b9052505b81518451600091610d139161456a565b9050600083602001518660200151610d2b919061456a565b9050600084606001518760600151610d43919061456a565b9050600085608001518860800151610d5b919061456a565b905060028183610d6b86886144f8565b610d7591906144f8565b610d7f91906144f8565b14610df25760405162461bcd60e51b815260206004820152602560248201527f4348415241435445522053595354454d3a20494e56414c49442053544154204360448201527f48414e4745000000000000000000000000000000000000000000000000000000606482015260840161055f565b85604001516002811115610e0857610e086140a6565b60ff16158015610e26575060038660e00151610e249190614593565b155b15610e4257600186608001818151610e3e91906144f8565b9052505b600186608001818151610e5591906144f8565b905250875186526020808901519087015260608089015190870152610e7a8987611949565b505050505050505050565b80610e92816103346104c6565b610ee95760405162461bcd60e51b815260206004820152602260248201527f4348415241435445522053595354454d3a20494e56414c4944204f504552415460448201526127a960f11b606482015260840161055f565b610ef282611720565b15610f3f5760405162461bcd60e51b815260206004820152601960248201527f796f75206861766520656e7465726564207468652067616d6500000000000000604482015260640161055f565b6000610f4a8361109d565b600160e08201819052608082015160a083015260c0820180519293509091610f739083906144f8565b905250610f808382611949565b610f88611088565b6040517ffda0ce5000000000000000000000000000000000000000000000000000000000815260048101859052674563918244f4000060248201526001600160a01b03919091169063fda0ce5090604401600060405180830381600087803b158015610ff357600080fd5b505af1158015611007573d6000803e3d6000fd5b50505050611013611088565b6001600160a01b031663f9d175ed846040518263ffffffff1660e01b815260040161104091815260200190565b600060405180830381600087803b15801561105a57600080fd5b505af115801561106e573d6000803e3d6000fd5b50505050610c5c8360016119fa565b60006104af82611a7e565b60006104d0611b1b565b60006104af82611b25565b6110a5613ff5565b6040805160018082528183019092526000916020808301908036833701905050905082816000815181106110db576110db6145b5565b6020908102919091010152600080806111347f7462554400000000000000000000000053746174730000000000000000000000857ee1080020200120202020200000000000000000000000000000000000000000611bb7565b925092509250611145838383611c87565b9695505050505050565b7fffffffffffffffffffffffffffffffffffffffffffffffffffffffffffffffcc36013560601c8061117e5750335b90565b60008061118c611cff565b9050600061119b826000611d67565b6111a69060016144f8565b90506104af82600083611e18565b60006104af7f7379000000000000000000000000000000000000000000000000000000000000837f45524337323153797374656d0000000000000000000000000000000000000000611ee8565b604080516001808252818301909252600091602080830190803683370190505090508281600081518110611237576112376145b5565b602002602001018181525050610c5c7f746255440000000000000000000000004368617261637465727300000000000060001b82600185604051602001611296919060609190911b6bffffffffffffffffffffffff1916815260140190565b60408051601f198184030181529190527e55040020142001000000000000000000000000000000000000000000000000611f5f565b604080516001808252818301909252600091602080830190803683370190505090508281600081518110611301576113016145b5565b602002602001018181525050610c5c7f746255440000000000000000000000004368617261637465727300000000000060001b8260008560405160200161129691815260200190565b604080516001808252818301909252600091829190602080830190803683370190505090508281600081518110611383576113836145b5565b602090810291909101015260006113db7f746255440000000000000000000000004e616d6545786973747300000000000083837e01010001000000000000000000000000000000000000000000000000000000612014565b90506113e78160f81c90565b949350505050565b604080516001808252818301909252600091602080830190803683370190505090508281600081518110611425576114256145b5565b602002602001018181525050610c5c7f746255440000000000000000000000004e616d6545786973747300000000000060001b8260008560405160200161147391151560f81b815260010190565b60408051601f198184030181529190527e01010001000000000000000000000000000000000000000000000000000000611f5f565b6040805160018082528183019092526000916020808301908036833701905050905082816000815181106114de576114de6145b5565b602002602001018181525050610c5c7f746255440000000000000000000000004368617261637465727300000000000060001b8260028560405160200161129691815260200190565b61155a6115537f43686172616374657273000000000000000000000000000000000000000000006120d1565b838361211e565b5050565b604080516001808252818301909252600091829190602080830190803683370190505090508260001b8160008151811061159a5761159a6145b5565b602090810291909101015260006113e77f746255440000000000000000000000004c6576656c73000000000000000000008383630100080160dd1b612014565b604080516001808252818301909252600091829190602080830190803683370190505090508281600081518110611613576116136145b5565b6020908102919091010152600061166c7f74625544000000000000000000000000537461747300000000000000000000008360027ee1080020200120202020200000000000000000000000000000000000000000612014565b905060f881901c60028111156113e7576113e76140a6565b6040805160018082528183019092526000918291906020808301908036833701905050905082816000815181106116bd576116bd6145b5565b602090810291909101015260006113e77f74625544000000000000000000000000436861726163746572730000000000008360027e55040020142001000000000000000000000000000000000000000000000000612014565b60006104d0611cff565b604080516001808252818301909252600091829190602080830190803683370190505090508281600081518110611759576117596145b5565b602090810291909101015260006113db7f74625544000000000000000000000000436861726163746572730000000000008360037e55040020142001000000000000000000000000000000000000000000000000612014565b6040805160018082528183019092526000916020808301908036833701905050905082816000815181106117e8576117e86145b5565b6020908102919091010152610c5c7f7462554400000000000000000000000053746174730000000000000000000000826002858181111561182b5761182b6140a6565b604051602001611866919060f89190911b7fff0000000000000000000000000000000000000000000000000000000000000016815260010190565b60408051601f198184030181529190527ee1080020200120202020200000000000000000000000000000000000000000611f5f565b60606000806118b16118ac856145cb565b612170565b91509150816000801b03611917576040517ffdde54e20000000000000000000000000000000000000000000000000000000081527fffffffff0000000000000000000000000000000000000000000000000000000060003516600482015260240161055f565b6020840180517bffffffffffffffffffffffffffffffffffffffffffffffffffffffff16821790526113e78285612240565b600061197b826000015183602001518460400151856060015186608001518760a001518860c001518960e0015161231b565b6040805160018082528183019092529192506000916060918391906020808301908036833701905050905085816000815181106119ba576119ba6145b5565b60209081029190910101526119f27f746255440000000000000000000000005374617473000000000000000000000082868686612359565b505050505050565b604080516001808252818301909252600091602080830190803683370190505090508281600081518110611a3057611a306145b5565b602002602001018181525050610c5c7f746255440000000000000000000000004368617261637465727300000000000060001b8260038560405160200161129691151560f81b815260010190565b604080516001808252818301909252600091829190602080830190803683370190505090508281600081518110611ab757611ab76145b5565b60209081029190910101526000611b107f74625544000000000000000000000000436861726163746572730000000000008360017e55040020142001000000000000000000000000000000000000000000000000612014565b60601c949350505050565b60006104d06123cf565b604080516001808252818301909252600091829190602080830190803683370190505090508281600081518110611b5e57611b5e6145b5565b602090810291909101015260006113e77f74625544000000000000000000000000537461747300000000000000000000008360067ee1080020200120202020200000000000000000000000000000000000000000612014565b6060600060606000611bc76123cf565b9050306001600160a01b03821603611bf057611be4878787612409565b93509350935050611c7e565b6040517f419b58fd0000000000000000000000000000000000000000000000000000000081526001600160a01b0382169063419b58fd90611c39908a908a908a90600401614657565b600060405180830381865afa158015611c56573d6000803e3d6000fd5b505050506040513d6000823e601f3d908101601f19168201604052611be49190810190614680565b93509350939050565b611c8f613ff5565b611c9884612511565b60e0890181905260c0890182905260a089018390526080890184905260608901859052886020810160408201886002811115611cd657611cd66140a6565b6002811115611ce757611ce76140a6565b90529790975250505093909252509195945050505050565b604080516000808252602082019092526000611d5d7f74625544000000000000000000000000556c74696d617465446f6d696e696f6e8360027e6d070001141414141408000000000000000000000000000000000000000000612014565b60601c9392505050565b60408051600280825260608201835260009283929190602083019080368337019050509050836001600160a01b031660001b81600081518110611dac57611dac6145b5565b6020026020010181815250508260001b81600181518110611dcf57611dcf6145b5565b60209081029190910101526000611e0f7f74625544000000000000000000000000436f756e7465727300000000000000008383630100080160dd1b612014565b95945050505050565b604080516002808252606082018352600092602083019080368337019050509050836001600160a01b031660001b81600081518110611e5957611e596145b5565b6020026020010181815250508260001b81600181518110611e7c57611e7c6145b5565b602002602001018181525050611ee27f74625544000000000000000000000000436f756e74657273000000000000000060001b82600085604051602001611ec591815260200190565b60408051601f19818403018152919052630100080160dd1b611f5f565b50505050565b6000611ef6607060106144f8565b6fffffffffffffffffffffffffffffffff198316901c601084901c7dffffffffffffffffffffffffffff00000000000000000000000000000000167fffff0000000000000000000000000000000000000000000000000000000000008616171790509392505050565b6000611f696123cf565b9050306001600160a01b03821603611f8d57611f88868686868661257f565b6119f2565b6040517f390baae00000000000000000000000000000000000000000000000000000000081526001600160a01b0382169063390baae090611fda90899089908990899089906004016146e3565b600060405180830381600087803b158015611ff457600080fd5b505af1158015612008573d6000803e3d6000fd5b50505050505050505050565b60008061201f6123cf565b9050306001600160a01b038216036120455761203d8686868661259b565b9150506113e7565b6040517f8c364d590000000000000000000000000000000000000000000000000000000081526001600160a01b03821690638c364d599061209090899089908990899060040161472a565b602060405180830381865afa1580156120ad573d6000803e3d6000fd5b505050506040513d601f19601f8201168201806040525081019061203d9190614759565b60006104af7f7462000000000000000000000000000000000000000000000000000000000000837f546f6b656e555249000000000000000000000000000000000000000000000000611ee8565b604080516001808252818301909252600091602080830190803683370190505090508260001b81600081518110612157576121576145b5565b602002602001018181525050611ee284826000856125c8565b6040805160018082528183019092526000918291829160208083019080368337019050509050837bffffffffffffffffffffffffffffffffffffffffffffffffffffffff1916816000815181106121c9576121c96145b5565b6020908102919091010152600080806122227f7462776f726c6400000000000000000046756e6374696f6e53656c6563746f72857e24020020040000000000000000000000000000000000000000000000000000611bb7565b92509250925061223383838361266e565b9550955050505050915091565b6060600061224c611b1b565b90506001600160a01b038116300361228d57600061227461226b61114f565b60008787612686565b935090508061228657612286836127c1565b50506104af565b6040517f3ae7af080000000000000000000000000000000000000000000000000000000081526001600160a01b03821690633ae7af08906122d4908790879060040161444f565b6000604051808303816000875af11580156122f3573d6000803e3d6000fd5b505050506040513d6000823e601f3d908101601f191682016040526113e791908101906144ad565b6060888888888888888860405160200161233c989796959493929190614772565b604051602081830303815290604052905098975050505050505050565b60006123636123cf565b9050306001600160a01b0382160361238257611f8886868686866127c9565b6040517f298314fb0000000000000000000000000000000000000000000000000000000081526001600160a01b0382169063298314fb90611fda90899089908990899089906004016147b7565b7f629a4c26e296b22a8e0856e9f6ecb2d1008d7e00081111962cd175fa7488e175546000906001600160a01b0316806107b1573391505090565b606060006060600061241a856127df565b9050612427878783612802565b935060006124348661283b565b90508015612506576124468888612878565b935066ffffffffffffff841667ffffffffffffffff81111561246a5761246a614153565b6040519080825280601f01601f191660200182016040528015612494576020820181803683370190505b5092506020830160005b828160ff1610156125035760006124b68b8b8461288b565b905060006124d3888460ff166028026038011c64ffffffffff1690565b90506124e2826000838761290b565b6124ec81856144f8565b9350505080806124fb90614808565b91505061249e565b50505b505093509350939050565b60008060008060008060008061252b896000016020015190565b60408a015160608b0151919950975060f81c600281111561254e5761254e6140a6565b60618a015160818b015160a18c015160c18d015160e1909d01519b9d9a9c939b929a91995097509195509350915050565b612594858561258e84876129d7565b85612a08565b5050505050565b6000611e0f6125aa8686612cac565b60ff858116601b0360080285901c166125c385876129d7565b612d02565b60006125d26123cf565b9050306001600160a01b038216036125f5576125f085858585612d53565b612594565b6040517fef6ea8620000000000000000000000000000000000000000000000000000000081526001600160a01b0382169063ef6ea86290612640908890889088908890600401614827565b600060405180830381600087803b15801561265a57600080fd5b505af1158015610e7a573d6000803e3d6000fd5b60008061267a85612d8e565b90969095509350505050565b6000606060008061269686612da3565b90925090506001600160a01b0382166126e757856126b387612e47565b6040517ffbf10ce600000000000000000000000000000000000000000000000000000000815260040161055f92919061444f565b806126f6576126f68689612f75565b8615612762577dffffffffffffffffffffffffffff0000000000000000000000000000000086167f6e7300000000000000000000000000000000000000000000000000000000000017600061274a82612fc1565b905061275f8261275a8b846144f8565b61303a565b50505b600061276e8760101b90565b7fffffffffffffffffffffffffffff00000000000000000000000000000000000016146127a6576127a1888884886130d6565b6127b2565b6127b28888848861314e565b90999098509650505050505050565b805160208201fd5b61259485858585856127da8b6131af565b613234565b600060086127ef6002602061456a565b6127f99190614866565b9190911c919050565b6060816000036128215750604080516020810190915260008152610bd9565b600061282d8585612cac565b9050611e0f8160008561356d565b6000600860018061284e6002602061456a565b612858919061456a565b612862919061456a565b61286c9190614866565b8260ff911c1692915050565b6000610bd96128878484613590565b5490565b600083836040516020016128a092919061487d565b604051602081830303815290604052805190602001208260f81b7effffffffffffffffffffffffffffffffffffffffffffffffffffffffffffff19167f3b4102da22e32d82fc925482184f16c09fd4281692720b87d124aef6da48a0f1181860001c90509392505050565b82156129925760208310612935576020830484019350602083816129315761293161457d565b0692505b82156129925760208390036000818410156129585750600019600884021c612962565b50600019600882021c5b8554600886021b818451168219821617845250818411612983575050611ee2565b50600194909401939182900391015b5b602082106129b45783548152600190930192601f1990910190602001612993565b8115611ee2576000600019600884021c8251865482191691161782525050505050565b600080805b8360ff1681101561072f576129fe60ff601b83900360080287901c16836144f8565b91506001016129dc565b7f6f74000000000000000000000000000000000000000000000000000000000000847fffff0000000000000000000000000000000000000000000000000000000000001603612a9257837f8c0b5119d4cec7b284c6b1b39252a03d1e2f2d7451a5895562524c113bb952be848484604051612a85939291906148b9565b60405180910390a2611ee2565b6000612a9e8585612cac565b90506000612aab866135e6565b905060005b8151811015612b80576000828281518110612acd57612acd6145b5565b60200260200101519050612af96004826affffffffffffffffffffff191661366f90919063ffffffff16565b15612b77576040517f964f667d000000000000000000000000000000000000000000000000000000008152606082901c9063964f667d90612b44908b908b908b908b906004016148ec565b600060405180830381600087803b158015612b5e57600080fd5b505af1158015612b72573d6000803e3d6000fd5b505050505b50600101612ab0565b50857f8c0b5119d4cec7b284c6b1b39252a03d1e2f2d7451a5895562524c113bb952be868686604051612bb5939291906148b9565b60405180910390a2612bd0828565ffffffffffff168561368d565b60005b8151811015612ca3576000828281518110612bf057612bf06145b5565b60200260200101519050612c1c6008826affffffffffffffffffffff191661366f90919063ffffffff16565b15612c9a576040517fa8ba8721000000000000000000000000000000000000000000000000000000008152606082901c9063a8ba872190612c67908b908b908b908b906004016148ec565b600060405180830381600087803b158015612c8157600080fd5b505af1158015612c95573d6000803e3d6000fd5b505050505b50600101612bd3565b50505050505050565b60008282604051602001612cc192919061487d565b60408051601f1981840301815291905280516020909101207f86425bff6b57326c7859e89024fe4f238ca327a1ae4a230180dd2f0e88aaa7d9189392505050565b600060208210612d2857602082048401935060208281612d2457612d2461457d565b0691505b508254600882021b60208290038084111561072f576001850154600882021c82179150509392505050565b6000612d5f8585612878565b90506000612d7c828560ff166028026038011c64ffffffffff1690565b90506119f286868660008588886136a3565b602081015160408201516000905b9050915091565b60408051600180825281830190925260009182918291602080830190803683370190505090508381600081518110612ddd57612ddd6145b5565b602090810291909101015260008080612e367f7462776f726c6400000000000000000053797374656d73000000000000000000857e15020014010000000000000000000000000000000000000000000000000000612409565b925092509250612233838383613add565b606081601081901b6000612e5a83613ae9565b9050827fffffffffffffffffffffffffffff000000000000000000000000000000000000831615612eb557612eb07fffffffffffffffffffffffffffff0000000000000000000000000000000000008416613b00565b612eec565b6040518060400160405280600681526020017f3c726f6f743e00000000000000000000000000000000000000000000000000008152505b6fffffffffffffffffffffffffffffffff19831615612f1357612f0e83613b00565b612f4a565b6040518060400160405280600681526020017f3c726f6f743e00000000000000000000000000000000000000000000000000008152505b604051602001612f5c93929190614925565b6040516020818303038152906040529350505050919050565b612f7f8282613b86565b61155a57612f8c82612e47565b816040517fd787b73700000000000000000000000000000000000000000000000000000000815260040161055f9291906149b3565b604080516001808252818301909252600091829190602080830190803683370190505090508281600081518110612ffa57612ffa6145b5565b602090810291909101015260006113e77f7462776f726c6400000000000000000042616c616e63657300000000000000008383630100080160dd1b61259b565b604080516001808252818301909252600091602080830190803683370190505090508281600081518110613070576130706145b5565b602002602001018181525050610c5c7f7462776f726c6400000000000000000042616c616e636573000000000000000060001b826000856040516020016130b991815260200190565b60408051601f19818403018152919052630100080160dd1b61257f565b60006060836001600160a01b031660006130f1858989613be4565b6040516130fe91906149de565b60006040518083038185875af1925050503d806000811461313b576040519150601f19603f3d011682016040523d82523d6000602084013e613140565b606091505b509097909650945050505050565b60006060836001600160a01b0316613167848888613be4565b60405161317491906149de565b600060405180830381855af49150503d806000811461313b576040519150601f19603f3d011682016040523d82523d6000602084013e613140565b60007f8b9d8c8b908d9affffffffffffffffffab9e9d939a8d0000000000000000000082016131fe57507e60030220202000000000000000000000000000000000000000000000000000919050565b6104af61322b7f746273746f72650000000000000000005461626c65730000000000000000000084613c13565b60206000612d02565b7f6f74000000000000000000000000000000000000000000000000000000000000867fffff00000000000000000000000000000000000000000000000000000000000016036132c057857f8dbb3a9672eebfd3773e72dd9c102393436816d832c7ba9e1e1ac8fcadcac7a9868686866040516132b394939291906149fa565b60405180910390a26119f2565b60006132cb876135e6565b905060005b81518110156133a45760008282815181106132ed576132ed6145b5565b602002602001015190506133196001826affffffffffffffffffffff191661366f90919063ffffffff16565b1561339b576040517f57066c9c000000000000000000000000000000000000000000000000000000008152606082901c906357066c9c90613368908c908c908c908c908c908c90600401614a39565b600060405180830381600087803b15801561338257600080fd5b505af1158015613396573d6000803e3d6000fd5b505050505b506001016132d0565b50867f8dbb3a9672eebfd3773e72dd9c102393436816d832c7ba9e1e1ac8fcadcac7a9878787876040516133db94939291906149fa565b60405180910390a260006133ef8888612cac565b90506000602087019050613407826000895184613c2f565b60006134128561283b565b11156134965760006134248a8a613590565b878155905060208601915060008060005b61343e8861283b565b8160ff161015613491576134538d8d8361288b565b925061346e8a8260ff166028026038011c64ffffffffff1690565b915061347d8360008488613c2f565b61348782866144f8565b9450600101613435565b505050505b60005b83518110156120085760008482815181106134b6576134b66145b5565b602002602001015190506134e26002826affffffffffffffffffffff191661366f90919063ffffffff16565b15613564576040517f5b28cdaf000000000000000000000000000000000000000000000000000000008152606082901c90635b28cdaf90613531908e908e908e908e908e908e90600401614a39565b600060405180830381600087803b15801561354b57600080fd5b505af115801561355f573d6000803e3d6000fd5b505050505b50600101613499565b60405160208101601f19603f848401011660405282825261072f8585858461290b565b600082826040516020016135a592919061487d565b60408051601f1981840301815291905280516020909101207f14e2fcc58e58e68ec7edc30c8d50dccc3ce2714a623ec81f46b6a63922d76569189392505050565b60408051600180825281830190925260609160009190602080830190803683370190505090508281600081518110613620576136206145b5565b602090810291909101015260006136587f746273746f726500000000000000000053746f7265486f6f6b730000000000008383613cee565b90506113e761366a8260008451613d28565b613db6565b60008160ff16826136808560581c90565b1660ff1614905092915050565b610c5c8383835161369e8560200190565b613c2f565b7f7462000000000000000000000000000000000000000000000000000000000000877fffff0000000000000000000000000000000000000000000000000000000000001614613763577f7462000000000000000000000000000000000000000000000000000000000000878860405160200161372191815260200190565b60408051601f19818403018152908290527f31b4668300000000000000000000000000000000000000000000000000000000825261055f939291600401614a92565b600061377e828760ff166028026038011c64ffffffffff1690565b9050600083518564ffffffffff1683613797919061456a565b6137a191906144f8565b90508082141580156137c35750816137b98688614ad3565b64ffffffffff1614155b15613813576040517fa65010b400000000000000000000000000000000000000000000000000000000815264ffffffffff808816600483015280871660248301528316604482015260640161055f565b818664ffffffffff161115613864576040517f7e8578d30000000000000000000000000000000000000000000000000000000081526004810183905264ffffffffff8716602482015260440161055f565b6000613871848984613dc7565b9050600061387e8b6135e6565b905060005b81518110156139495760008282815181106138a0576138a06145b5565b602002602001015190506138cc6010826affffffffffffffffffffff191661366f90919063ffffffff16565b1561394057606081901c6001600160a01b03166355eb5a288e8e8e8e8e8d8f6040518863ffffffff1660e01b815260040161390d9796959493929190614af8565b600060405180830381600087803b15801561392757600080fd5b505af115801561393b573d6000803e3d6000fd5b505050505b50600101613883565b5064ffffffffff881660005b8a60ff168160ff1610156139885761397c878260ff166028026038011c64ffffffffff1690565b90910190600101613955565b508b7ffe158a7adba34e256807c8a149028d3162918713c3838afc643ce9f96716ebfd8c8c848c888d6040516139c396959493929190614b56565b60405180910390a2508284146139e45760006139df8c8c613590565b839055505b60006139f18c8c8c61288b565b9050613a05818a64ffffffffff168961368d565b5060005b8151811015613acf576000828281518110613a2657613a266145b5565b60200260200101519050613a526020826affffffffffffffffffffff191661366f90919063ffffffff16565b15613ac657606081901c6001600160a01b031663635845338e8e8e8e8e8a8f6040518863ffffffff1660e01b8152600401613a939796959493929190614af8565b600060405180830381600087803b158015613aad57600080fd5b505af1158015613ac1573d6000803e3d6000fd5b505050505b50600101613a09565b505050505050505050505050565b60008061267a85613e95565b6000613af7607060106144f8565b9190911b919050565b606060005b6010811015613b56576fffffffffffffffffffffffffffffffff198316600882021b7fff000000000000000000000000000000000000000000000000000000000000001615613b5657600101613b05565b604080516fffffffffffffffffffffffffffffffff198516602082015281516030909101909152818152806113e7565b6000613bd47f6e730000000000000000000000000000000000000000000000000000000000007dffffffffffffffffffffffffffff0000000000000000000000000000000085161783613eb1565b80610bd95750610bd98383613eb1565b6060838383604051602001613bfb93929190614bb2565b60405160208183030381529060405290509392505050565b6040805160208101849052908101829052600090606001612cc1565b8215613ca95760208310613c5957602083048401935060208381613c5557613c5561457d565b0692505b8215613ca95760208390036000600019600885021c1990506008850281811c91508351811c9050811987541682821617875550818411613c9a575050611ee2565b50600194909401939182900391015b5b60208210613ccb5780518455600190930192601f1990910190602001613caa565b8115611ee2576000600019600884021c8554835182191691161785555050505050565b60606113e7613cfe85858561288b565b6000613d2385613d0e8989612878565b9060ff166028026038011c64ffffffffff1690565b61356d565b600081831180613d385750835182115b15613d75578383836040517f23230fa300000000000000000000000000000000000000000000000000000000815260040161055f93929190614bf1565b60208401613d8384826144f8565b90506000613d91858561456a565b6fffffffffffffffffffffffffffffffff1660809290921b9190911795945050505050565b60606000610bd98360156000613f7a565b600064ffffffffff821115613e0b576040517f7149a3c10000000000000000000000000000000000000000000000000000000081526004810183905260240161055f565b8366ffffffffffffff811660ff851660280260380182901c64ffffffffff16808510613e3d5780850382019150613e45565b848103820391505b5064ffffffffff6038602860ff8816020181811b197fffffffffffffffffffffffffffffffffffffffffffffffffff000000000000009490941690921792909216918416901b1790509392505050565b6020810151603482015160609190911c9060009060f81c612d9c565b604080516002808252606082018352600092839291906020830190803683370190505090508381600081518110613eea57613eea6145b5565b602002602001018181525050826001600160a01b031660001b81600181518110613f1657613f166145b5565b60209081029190910101526000613f6e7f7462776f726c640000000000000000005265736f75726365416363657373000083837e0101000100000000000000000000000000000000000000000000000000000061259b565b9050611e0f8160f81c90565b60606000613f888560801c90565b90506fffffffffffffffffffffffffffffffff85166000858281613fae57613fae61457d565b04905060405193506020840160208202810160405281855260005b82811015613fe9578451871c825293870193602090910190600101613fc9565b50505050509392505050565b604051806101000160405280600081526020016000815260200160006002811115614022576140226140a6565b815260200160008152602001600081526020016000815260200160008152602001600081525090565b60006020828403121561405d57600080fd5b5035919050565b60006020828403121561407657600080fd5b81357fffffffff0000000000000000000000000000000000000000000000000000000081168114610bd957600080fd5b634e487b7160e01b600052602160045260246000fd5b600381106140da57634e487b7160e01b600052602160045260246000fd5b50565b815181526020808301519082015260408201516101008201906140ff816140bc565b80604084015250606083015160608301526080830151608083015260a083015160a083015260c083015160c083015260e083015160e083015292915050565b6001600160a01b03811681146140da57600080fd5b634e487b7160e01b600052604160045260246000fd5b604051610100810167ffffffffffffffff8111828210171561418d5761418d614153565b60405290565b604051601f8201601f1916810167ffffffffffffffff811182821017156141bc576141bc614153565b604052919050565b600067ffffffffffffffff8211156141de576141de614153565b50601f01601f191660200190565b600082601f8301126141fd57600080fd5b813561421061420b826141c4565b614193565b81815284602083860101111561422557600080fd5b816020850160208301376000918101602001919091529392505050565b60008060006060848603121561425757600080fd5b83356142628161413e565b925060208401359150604084013567ffffffffffffffff81111561428557600080fd5b614291868287016141ec565b9150509250925092565b602081016142a8836140bc565b91905290565b8035600381106107b157600080fd5b6000806000606084860312156142d257600080fd5b83359250602084013591506142e9604085016142ae565b90509250925092565b6000806040838503121561430557600080fd5b8235915060208301356143178161413e565b809150509250929050565b6000806040838503121561433557600080fd5b82359150602083013567ffffffffffffffff81111561435357600080fd5b61435f858286016141ec565b9150509250929050565b60008082840361012081121561437e57600080fd5b8335925061010080601f198301121561439657600080fd5b61439e614169565b915060208501358252604085013560208301526143bd606086016142ae565b60408301526080850135606083015260a0850135608083015260c085013560a083015260e085013560c08301528085013560e083015250809150509250929050565b60005b8381101561441a578181015183820152602001614402565b50506000910152565b6000815180845261443b8160208601602086016143ff565b601f01601f19169290920160200192915050565b8281526040602082015260006113e76040830184614423565b600082601f83011261447957600080fd5b815161448761420b826141c4565b81815284602083860101111561449c57600080fd5b6113e78260208301602087016143ff565b6000602082840312156144bf57600080fd5b815167ffffffffffffffff8111156144d657600080fd5b6113e784828501614468565b634e487b7160e01b600052601160045260246000fd5b808201808211156104af576104af6144e2565b6000600019820361451e5761451e6144e2565b5060010190565b60006020828403121561453757600080fd5b8151610bd98161413e565b83815261454e836140bc565b826020820152606060408201526000611e0f6060830184614423565b818103818111156104af576104af6144e2565b634e487b7160e01b600052601260045260246000fd5b6000826145b057634e487b7160e01b600052601260045260246000fd5b500690565b634e487b7160e01b600052603260045260246000fd5b6000815160208301517fffffffff00000000000000000000000000000000000000000000000000000000808216935060048310156146135780818460040360031b1b83161693505b505050919050565b60008151808452602080850194506020840160005b8381101561464c57815187529582019590820190600101614630565b509495945050505050565b838152606060208201526000614670606083018561461b565b9050826040830152949350505050565b60008060006060848603121561469557600080fd5b835167ffffffffffffffff808211156146ad57600080fd5b6146b987838801614468565b94506020860151935060408601519150808211156146d657600080fd5b5061429186828701614468565b85815260a0602082015260006146fc60a083018761461b565b60ff8616604084015282810360608401526147178186614423565b9150508260808301529695505050505050565b848152608060208201526000614743608083018661461b565b60ff949094166040830152506060015292915050565b60006020828403121561476b57600080fd5b5051919050565b888152876020820152614784876140bc565b60f89690961b604087015260418601949094526061850192909252608184015260a183015260c182015260e10192915050565b85815260a0602082015260006147d060a083018761461b565b82810360408401526147e28187614423565b905084606084015282810360808401526147fc8185614423565b98975050505050505050565b600060ff821660ff810361481e5761481e6144e2565b60010192915050565b848152608060208201526000614840608083018661461b565b60ff85166040840152828103606084015261485b8185614423565b979650505050505050565b80820281158282048414176104af576104af6144e2565b8281526000602080830184516020860160005b828110156148ac57815184529284019290840190600101614890565b5091979650505050505050565b6060815260006148cc606083018661461b565b65ffffffffffff8516602084015282810360408401526111458185614423565b848152608060208201526000614905608083018661461b565b65ffffffffffff85166040840152828103606084015261485b8185614423565b7fffff0000000000000000000000000000000000000000000000000000000000008416815260007f3a0000000000000000000000000000000000000000000000000000000000000080600284015284516149868160038601602089016143ff565b8084019050816003820152845191506149a68260048301602088016143ff565b0160040195945050505050565b6040815260006149c66040830185614423565b90506001600160a01b03831660208301529392505050565b600082516149f08184602087016143ff565b9190910192915050565b608081526000614a0d608083018761461b565b8281036020840152614a1f8187614423565b9050846040840152828103606084015261485b8185614423565b86815260c060208201526000614a5260c083018861461b565b8281036040840152614a648188614423565b90508560608401528281036080840152614a7e8186614423565b9150508260a0830152979650505050505050565b7fffff00000000000000000000000000000000000000000000000000000000000084168152826020820152606060408201526000611e0f6060830184614423565b64ffffffffff818116838216019080821115614af157614af16144e2565b5092915050565b87815260e060208201526000614b1160e083018961461b565b60ff8816604084015264ffffffffff87811660608501528616608084015260a0830185905282810360c0840152614b488185614423565b9a9950505050505050505050565b60c081526000614b6960c083018961461b565b60ff8816602084015265ffffffffffff8716604084015264ffffffffff8616606084015284608084015282810360a0840152614ba58185614423565b9998505050505050505050565b60008451614bc48184602089016143ff565b60609490941b6bffffffffffffffffffffffff191691909301908152601481019190915260340192915050565b606081526000614c046060830186614423565b6020830194909452506040015291905056fea2646970667358221220fb60d9a0d0689edb99a7bee4547405b488aa0b1e474a10f565c9caaf26fe71f464736f6c63430008180033","linkReferences":{}},"methodIdentifiers":{"_msgSender()":"119df25f","_msgValue()":"45ec9354","_world()":"e1af802c","enterGame(bytes32)":"c74dedc8","getCharacterTokenId(bytes32)":"f8c67561","getClass(bytes32)":"23801570","getCurrentAvailableLevel(uint256)":"1ecb393f","getExperience(bytes32)":"ebee03bb","getName(bytes32)":"54b8d5e3","getOwner(bytes32)":"deb931a2","getOwnerAddress(bytes32)":"00d43ec6","getPlayerEntityId(uint256)":"8338f0e0","getStats(bytes32)":"0bb700dc","isValidCharacterId(bytes32)":"623daa05","isValidOwner(bytes32,address)":"9b63ec05","levelCharacter(bytes32,(uint256,uint256,uint8,uint256,uint256,int256,uint256,uint256))":"c441b44d","mintCharacter(address,bytes32,string)":"143f3021","rollStats(bytes32,bytes32,uint8)":"679ee16d","supportsInterface(bytes4)":"01ffc9a7","updateTokenUri(bytes32,string)":"b27cbcbb"},"id":210}