{"abi":[{"type":"function","name":"_msgSender","inputs":[],"outputs":[{"name":"sender","type":"address","internalType":"address"}],"stateMutability":"view"},{"type":"function","name":"_msgValue","inputs":[],"outputs":[{"name":"value","type":"uint256","internalType":"uint256"}],"stateMutability":"view"},{"type":"function","name":"_world","inputs":[],"outputs":[{"name":"","type":"address","internalType":"address"}],"stateMutability":"view"},{"type":"function","name":"choosePowerSource","inputs":[{"name":"characterId","type":"bytes32","internalType":"bytes32"},{"name":"powerSource","type":"uint8","internalType":"enum PowerSource"}],"outputs":[],"stateMutability":"nonpayable"},{"type":"function","name":"chooseRace","inputs":[{"name":"characterId","type":"bytes32","internalType":"bytes32"},{"name":"race","type":"uint8","internalType":"enum Race"}],"outputs":[],"stateMutability":"nonpayable"},{"type":"function","name":"chooseStartingArmor","inputs":[{"name":"characterId","type":"bytes32","internalType":"bytes32"},{"name":"armorType","type":"uint8","internalType":"enum ArmorType"}],"outputs":[],"stateMutability":"nonpayable"},{"type":"function","name":"enterGame","inputs":[{"name":"characterId","type":"bytes32","internalType":"bytes32"}],"outputs":[],"stateMutability":"nonpayable"},{"type":"function","name":"getAdvancedClass","inputs":[{"name":"characterId","type":"bytes32","internalType":"bytes32"}],"outputs":[{"name":"","type":"uint8","internalType":"enum AdvancedClass"}],"stateMutability":"view"},{"type":"function","name":"getBaseStats","inputs":[{"name":"characterId","type":"bytes32","internalType":"bytes32"}],"outputs":[{"name":"","type":"tuple","internalType":"struct StatsData","components":[{"name":"strength","type":"int256","internalType":"int256"},{"name":"agility","type":"int256","internalType":"int256"},{"name":"class","type":"uint8","internalType":"enum Classes"},{"name":"intelligence","type":"int256","internalType":"int256"},{"name":"maxHp","type":"int256","internalType":"int256"},{"name":"currentHp","type":"int256","internalType":"int256"},{"name":"experience","type":"uint256","internalType":"uint256"},{"name":"level","type":"uint256","internalType":"uint256"},{"name":"powerSource","type":"uint8","internalType":"enum PowerSource"},{"name":"race","type":"uint8","internalType":"enum Race"},{"name":"startingArmor","type":"uint8","internalType":"enum ArmorType"},{"name":"advancedClass","type":"uint8","internalType":"enum AdvancedClass"},{"name":"hasSelectedAdvancedClass","type":"bool","internalType":"bool"}]}],"stateMutability":"view"},{"type":"function","name":"getCharacterIdFromOwnerAddress","inputs":[{"name":"ownerAddress","type":"address","internalType":"address"}],"outputs":[{"name":"_characterId","type":"bytes32","internalType":"bytes32"}],"stateMutability":"view"},{"type":"function","name":"getCharacterTokenId","inputs":[{"name":"characterId","type":"bytes32","internalType":"bytes32"}],"outputs":[{"name":"","type":"uint256","internalType":"uint256"}],"stateMutability":"pure"},{"type":"function","name":"getClass","inputs":[{"name":"characterId","type":"bytes32","internalType":"bytes32"}],"outputs":[{"name":"_class","type":"uint8","internalType":"enum Classes"}],"stateMutability":"view"},{"type":"function","name":"getCurrentAvailableLevel","inputs":[{"name":"experience","type":"uint256","internalType":"uint256"}],"outputs":[{"name":"currentAvailableLevel","type":"uint256","internalType":"uint256"}],"stateMutability":"view"},{"type":"function","name":"getExperience","inputs":[{"name":"characterId","type":"bytes32","internalType":"bytes32"}],"outputs":[{"name":"","type":"uint256","internalType":"uint256"}],"stateMutability":"view"},{"type":"function","name":"getName","inputs":[{"name":"characterId","type":"bytes32","internalType":"bytes32"}],"outputs":[{"name":"_name","type":"bytes32","internalType":"bytes32"}],"stateMutability":"view"},{"type":"function","name":"getOwner","inputs":[{"name":"characterId","type":"bytes32","internalType":"bytes32"}],"outputs":[{"name":"","type":"address","internalType":"address"}],"stateMutability":"view"},{"type":"function","name":"getOwnerAddress","inputs":[{"name":"characterId","type":"bytes32","internalType":"bytes32"}],"outputs":[{"name":"","type":"address","internalType":"address"}],"stateMutability":"pure"},{"type":"function","name":"getPlayerEntityId","inputs":[{"name":"characterTokenId","type":"uint256","internalType":"uint256"}],"outputs":[{"name":"characterId","type":"bytes32","internalType":"bytes32"}],"stateMutability":"view"},{"type":"function","name":"getPowerSource","inputs":[{"name":"characterId","type":"bytes32","internalType":"bytes32"}],"outputs":[{"name":"","type":"uint8","internalType":"enum PowerSource"}],"stateMutability":"view"},{"type":"function","name":"getRace","inputs":[{"name":"characterId","type":"bytes32","internalType":"bytes32"}],"outputs":[{"name":"","type":"uint8","internalType":"enum Race"}],"stateMutability":"view"},{"type":"function","name":"getStartingArmor","inputs":[{"name":"characterId","type":"bytes32","internalType":"bytes32"}],"outputs":[{"name":"","type":"uint8","internalType":"enum ArmorType"}],"stateMutability":"view"},{"type":"function","name":"getStats","inputs":[{"name":"characterId","type":"bytes32","internalType":"bytes32"}],"outputs":[{"name":"","type":"tuple","internalType":"struct StatsData","components":[{"name":"strength","type":"int256","internalType":"int256"},{"name":"agility","type":"int256","internalType":"int256"},{"name":"class","type":"uint8","internalType":"enum Classes"},{"name":"intelligence","type":"int256","internalType":"int256"},{"name":"maxHp","type":"int256","internalType":"int256"},{"name":"currentHp","type":"int256","internalType":"int256"},{"name":"experience","type":"uint256","internalType":"uint256"},{"name":"level","type":"uint256","internalType":"uint256"},{"name":"powerSource","type":"uint8","internalType":"enum PowerSource"},{"name":"race","type":"uint8","internalType":"enum Race"},{"name":"startingArmor","type":"uint8","internalType":"enum ArmorType"},{"name":"advancedClass","type":"uint8","internalType":"enum AdvancedClass"},{"name":"hasSelectedAdvancedClass","type":"bool","internalType":"bool"}]}],"stateMutability":"view"},{"type":"function","name":"getValidAdvancedClass","inputs":[{"name":"characterId","type":"bytes32","internalType":"bytes32"}],"outputs":[{"name":"","type":"uint8","internalType":"enum AdvancedClass"}],"stateMutability":"view"},{"type":"function","name":"isValidCharacterId","inputs":[{"name":"characterId","type":"bytes32","internalType":"bytes32"}],"outputs":[{"name":"","type":"bool","internalType":"bool"}],"stateMutability":"view"},{"type":"function","name":"isValidOwner","inputs":[{"name":"characterId","type":"bytes32","internalType":"bytes32"},{"name":"owner","type":"address","internalType":"address"}],"outputs":[{"name":"","type":"bool","internalType":"bool"}],"stateMutability":"view"},{"type":"function","name":"levelCharacter","inputs":[{"name":"characterId","type":"bytes32","internalType":"bytes32"},{"name":"desiredStats","type":"tuple","internalType":"struct StatsData","components":[{"name":"strength","type":"int256","internalType":"int256"},{"name":"agility","type":"int256","internalType":"int256"},{"name":"class","type":"uint8","internalType":"enum Classes"},{"name":"intelligence","type":"int256","internalType":"int256"},{"name":"maxHp","type":"int256","internalType":"int256"},{"name":"currentHp","type":"int256","internalType":"int256"},{"name":"experience","type":"uint256","internalType":"uint256"},{"name":"level","type":"uint256","internalType":"uint256"},{"name":"powerSource","type":"uint8","internalType":"enum PowerSource"},{"name":"race","type":"uint8","internalType":"enum Race"},{"name":"startingArmor","type":"uint8","internalType":"enum ArmorType"},{"name":"advancedClass","type":"uint8","internalType":"enum AdvancedClass"},{"name":"hasSelectedAdvancedClass","type":"bool","internalType":"bool"}]}],"outputs":[],"stateMutability":"nonpayable"},{"type":"function","name":"mintCharacter","inputs":[{"name":"account","type":"address","internalType":"address"},{"name":"name","type":"bytes32","internalType":"bytes32"},{"name":"tokenUri","type":"string","internalType":"string"}],"outputs":[{"name":"characterId","type":"bytes32","internalType":"bytes32"}],"stateMutability":"nonpayable"},{"type":"function","name":"rollBaseStats","inputs":[{"name":"userRandomNumber","type":"bytes32","internalType":"bytes32"},{"name":"characterId","type":"bytes32","internalType":"bytes32"}],"outputs":[],"stateMutability":"payable"},{"type":"function","name":"rollStats","inputs":[{"name":"userRandomNumber","type":"bytes32","internalType":"bytes32"},{"name":"characterId","type":"bytes32","internalType":"bytes32"},{"name":"class","type":"uint8","internalType":"enum Classes"}],"outputs":[],"stateMutability":"payable"},{"type":"function","name":"selectAdvancedClass","inputs":[{"name":"characterId","type":"bytes32","internalType":"bytes32"},{"name":"advancedClass","type":"uint8","internalType":"enum AdvancedClass"}],"outputs":[],"stateMutability":"nonpayable"},{"type":"function","name":"setStats","inputs":[{"name":"entityId","type":"bytes32","internalType":"bytes32"},{"name":"stats","type":"tuple","internalType":"struct AdjustedCombatStats","components":[{"name":"strength","type":"int256","internalType":"int256"},{"name":"agility","type":"int256","internalType":"int256"},{"name":"intelligence","type":"int256","internalType":"int256"},{"name":"armor","type":"int256","internalType":"int256"},{"name":"maxHp","type":"int256","internalType":"int256"},{"name":"currentHp","type":"int256","internalType":"int256"}]}],"outputs":[],"stateMutability":"nonpayable"},{"type":"function","name":"supportsInterface","inputs":[{"name":"interfaceId","type":"bytes4","internalType":"bytes4"}],"outputs":[{"name":"","type":"bool","internalType":"bool"}],"stateMutability":"pure"},{"type":"function","name":"updateTokenUri","inputs":[{"name":"characterId","type":"bytes32","internalType":"bytes32"},{"name":"tokenUri","type":"string","internalType":"string"}],"outputs":[],"stateMutability":"nonpayable"},{"type":"event","name":"AdvancedClassSelected","inputs":[{"name":"characterId","type":"bytes32","indexed":true,"internalType":"bytes32"},{"name":"advancedClass","type":"uint8","indexed":false,"internalType":"enum AdvancedClass"}],"anonymous":false},{"type":"event","name":"ArmorTypeSelected","inputs":[{"name":"characterId","type":"bytes32","indexed":true,"internalType":"bytes32"},{"name":"armorType","type":"uint8","indexed":false,"internalType":"enum ArmorType"}],"anonymous":false},{"type":"event","name":"PowerSourceSelected","inputs":[{"name":"characterId","type":"bytes32","indexed":true,"internalType":"bytes32"},{"name":"powerSource","type":"uint8","indexed":false,"internalType":"enum PowerSource"}],"anonymous":false},{"type":"event","name":"RaceSelected","inputs":[{"name":"characterId","type":"bytes32","indexed":true,"internalType":"bytes32"},{"name":"race","type":"uint8","indexed":false,"internalType":"enum Race"}],"anonymous":false},{"type":"event","name":"Store_SetRecord","inputs":[{"name":"tableId","type":"bytes32","indexed":true,"internalType":"ResourceId"},{"name":"keyTuple","type":"bytes32[]","indexed":false,"internalType":"bytes32[]"},{"name":"staticData","type":"bytes","indexed":false,"internalType":"bytes"},{"name":"encodedLengths","type":"bytes32","indexed":false,"internalType":"EncodedLengths"},{"name":"dynamicData","type":"bytes","indexed":false,"internalType":"bytes"}],"anonymous":false},{"type":"event","name":"Store_SpliceDynamicData","inputs":[{"name":"tableId","type":"bytes32","indexed":true,"internalType":"ResourceId"},{"name":"keyTuple","type":"bytes32[]","indexed":false,"internalType":"bytes32[]"},{"name":"dynamicFieldIndex","type":"uint8","indexed":false,"internalType":"uint8"},{"name":"start","type":"uint48","indexed":false,"internalType":"uint48"},{"name":"deleteCount","type":"uint40","indexed":false,"internalType":"uint40"},{"name":"encodedLengths","type":"bytes32","indexed":false,"internalType":"EncodedLengths"},{"name":"data","type":"bytes","indexed":false,"internalType":"bytes"}],"anonymous":false},{"type":"event","name":"Store_SpliceStaticData","inputs":[{"name":"tableId","type":"bytes32","indexed":true,"internalType":"ResourceId"},{"name":"keyTuple","type":"bytes32[]","indexed":false,"internalType":"bytes32[]"},{"name":"start","type":"uint48","indexed":false,"internalType":"uint48"},{"name":"data","type":"bytes","indexed":false,"internalType":"bytes"}],"anonymous":false},{"type":"error","name":"EncodedLengths_InvalidLength","inputs":[{"name":"length","type":"uint256","internalType":"uint256"}]},{"type":"error","name":"Slice_OutOfBounds","inputs":[{"name":"data","type":"bytes","internalType":"bytes"},{"name":"start","type":"uint256","internalType":"uint256"},{"name":"end","type":"uint256","internalType":"uint256"}]},{"type":"error","name":"Store_IndexOutOfBounds","inputs":[{"name":"length","type":"uint256","internalType":"uint256"},{"name":"accessedIndex","type":"uint256","internalType":"uint256"}]},{"type":"error","name":"Store_InvalidResourceType","inputs":[{"name":"expected","type":"bytes2","internalType":"bytes2"},{"name":"resourceId","type":"bytes32","internalType":"ResourceId"},{"name":"resourceIdString","type":"string","internalType":"string"}]},{"type":"error","name":"Store_InvalidSplice","inputs":[{"name":"startWithinField","type":"uint40","internalType":"uint40"},{"name":"deleteCount","type":"uint40","internalType":"uint40"},{"name":"fieldLength","type":"uint40","internalType":"uint40"}]},{"type":"error","name":"World_AccessDenied","inputs":[{"name":"resource","type":"string","internalType":"string"},{"name":"caller","type":"address","internalType":"address"}]},{"type":"error","name":"World_FunctionSelectorNotFound","inputs":[{"name":"functionSelector","type":"bytes4","internalType":"bytes4"}]},{"type":"error","name":"World_ResourceNotFound","inputs":[{"name":"resourceId","type":"bytes32","internalType":"ResourceId"},{"name":"resourceIdString","type":"string","internalType":"string"}]}],"bytecode":{"object":"0x6080806040523462000018576187c490816200001d8239f35b5f80fdfe60806040526004361015610011575f80fd5b5f3560e01c8062d43ec61461022357806301ffc9a71461021e57806306a3432f146102195780630797e03e1461021457806309a4fa6e1461020f5780630bb700dc1461020a578063119df25f14610205578063143f3021146102005780631ecb393f146101fb57806323801570146101f65780632dfb78cd146101f15780633493289b146101ec57806345ec9354146101e757806348b027f3146101e257806354b8d5e3146101dd578063623daa05146101d8578063679ee16d146101d35780637163c6ba146101ce5780637c636426146101c95780638338f0e0146101c45780639b63ec05146101bf5780639cca06ef146101ba578063aa8659e4146101b5578063b27cbcbb146101b0578063bf240995146101ab578063c74dedc8146101a6578063c75fadf2146101a1578063deb931a21461019c578063e1af802c14610197578063ebee03bb14610192578063f59cb8631461018d578063f70125db146101885763f8c6756114610183575f80fd5b6114b2565b611494565b6113d9565b61138f565b611375565b611338565b61131a565b6111d4565b6111b6565b611163565b611079565b610f06565b610edc565b610ebe565b610d51565b610d17565b610c1a565b610bdb565b610ba9565b610ac0565b610a6d565b6108f7565b6108b4565b610855565b610837565b61069f565b610612565b6105d0565b610489565b610346565b6102ae565b610247565b3461024357602036600319011261024357602060405160043560601c8152f35b5f80fd5b346102435760203660031901126102435760043563ffffffff60e01b81168091036102435760209063b5dee12760e01b811490811561028c575b506040519015158152f35b6301ffc9a760e01b1490505f610281565b6001600160a01b0381160361024357565b34610243576020366003190112610243576004356102cb8161029d565b6102d36127be565b908151156102ff576001600160a01b0316602082810191909152906102f790613d0b565b604051908152f35b612819565b634e487b7160e01b5f52602160045260245ffd5b600a111561032257565b610304565b90600a8210156103225752565b6020810192916103449190610327565b565b346102435760203660031901126102435761035f6127be565b8051156102ff5761038361037b60209260043584820152613dbf565b60f81c61284e565b6103906040518092610327565bf35b634e487b7160e01b5f52604160045260245ffd5b60c081019081106001600160401b038211176103c157604052565b610392565b6001600160401b0381116103c157604052565b604081019081106001600160401b038211176103c157604052565b606081019081106001600160401b038211176103c157604052565b608081019081106001600160401b038211176103c157604052565b61012081019081106001600160401b038211176103c157604052565b601f909101601f19168101906001600160401b038211908210176103c157604052565b604051906101a082016001600160401b038111838210176103c157604052565b346102435760e03660031901126102435760c0366023190112610243576104ea6040516104b5816103a6565b602435815260443560208201526064356040820152608435606082015260a435608082015260c43560a0820152600435611513565b005b6003111561032257565b90610500826104ec565b52565b6004111561032257565b9061050082610503565b610344909291926101a08101938051825260208101516020830152610544604082015160408401906104f6565b606081015160608301526080810151608083015260a081015160a083015260c081015160c083015260e081015160e0830152610589610100808301519084019061050d565b61059c610120808301519084019061050d565b6105af610140808301519084019061050d565b6105c26101608083015190840190610327565b610180908101511515910152565b34610243576020366003190112610243576105e96116a1565b506106046105f86004356128e7565b60405191829182610517565b0390f35b5f91031261024357565b34610243575f36600319011261024357602061062c612c9a565b6040516001600160a01b039091168152f35b6001600160401b0381116103c157601f01601f191660200190565b81601f82011215610243578035906106708261063e565b9261067e6040519485610446565b8284526020838301011161024357815f926020809301838601378301015290565b34610243576060366003190112610243576004356106bc8161029d565b602435906044356001600160401b038111610243576106df903690600401610659565b6106e7612c9a565b906106fa6106f483612cb1565b15611711565b610702612cd9565b6107146001600160601b038210611769565b5f8061078561072c610727610727614d8c565b6114d9565b6040516340c10f1960e01b60208201526001600160a01b03891660248201526044810186905261076981606481015b03601f198101835282610446565b60405194858094819363075cf5e160e31b8352600483016118ab565b03925af1958615610832576107d46107bb96610800966107fb946106049a610810575b506107b2866120a8565b98899283612dff565b6107c58683612ee2565b6107cf8682612f7e565b61303d565b6107ec6107e76107e3836130dd565b1590565b6118f9565b6107f581613100565b856131bd565b613272565b6040519081529081906020820190565b61082b903d805f833e6108238183610446565b810190611824565b505f6107a8565b611508565b346102435760203660031901126102435760206102f760043561198a565b346102435760203660031901126102435761086e6127be565b8051156102ff5761088760209160043583820152613e4f565b60f81c610893816104ec565b604051906108a0816104ec565b8152f35b9190602083019261050082610503565b346102435760203660031901126102435760206108d260043561334c565b604051906108a081610503565b600a111561024357565b6101843590610344826108df565b3461024357604036600319011261024357600435602435610917816108df565b61093061092b610925612c9a565b84612112565b611a1a565b6109d661075b6109d0610942856128e7565b610953600a60e08301511015611a71565b6109b76109a086610180936109756109706107e387840151151590565b611ae1565b61097e82610318565b610989821515611b47565b61099b6109968383613375565b611ba4565b6135e4565b916109af876101608501611c0c565b820160019052565b6109c18187612bf6565b60405192839160208301610517565b836137aa565b6109e4610727610727614d8c565b90813b15610243575f604051809362954a8360e51b8252818381610a0c878a60048401611c18565b03925af1908115610832577fecf83d41266c4a6a02db7466dd117dc3a6f136389ce0e3a31b7fa9d88d4bf2a892610a4f92610a54575b5060405191829182610334565b0390a2005b80610a61610a67926103c6565b80610608565b5f610a42565b34610243575f366003190112610243576020604051601f193601358152f35b6004111561024357565b610124359061034482610a8c565b610144359061034482610a8c565b610164359061034482610a8c565b3461024357604036600319011261024357600435602435610ae081610a8c565b610aee61092b610925612c9a565b610b00610afa83613830565b15611c2e565b610b0981610503565b8015610b6557610a4f7f3ba9703e1cdcf3251b59516b5c202eba12dd4efcbaacaac50b37094bb160369e91610b4f610b408561384d565b610b4981610503565b15611c8e565b610b59818561386a565b604051918291826108a4565b606460405162461bcd60e51b815260206004820152602060248201527f434841524143544552533a20696e76616c696420706f77657220736f757263656044820152fd5b3461024357602036600319011261024357610bc26127be565b8051156102ff576102f760209160043583820152613edf565b34610243576020366003190112610243576020610bf9600435611d01565b6040519015158152f35b6003111561024357565b6064359061034482610c03565b606036600319011261024357604435602435610c3582610c03565b610c4961092b610c43612c9a565b83612112565b610c55610afa82613830565b610c5d6127be565b918251156102ff5782610cdb610ce784610cc7610cae610d1296610d069860206104ea9b0152610c8c816104ec565b60405160f89190911b6001600160f81b03191660208201529081906021820190565b0395610cc2601f1997888101845283610446565b614941565b604051928391602083019190602083019252565b03838101835282610446565b604051632caa982960e21b602082015293849160043560248401611e0e565b03908101835282610446565b613960565b3461024357602036600319011261024357610d306116a1565b506106046105f8610d42600435613a04565b60208082518301019101611e4d565b34610243576040366003190112610243576004357f7f9cbab4e73821b798dfa4e2400bec208cb7586b4087ede564dcccc0d52c2f66610a4f602435610d9581610a8c565b610da961092b610da3612c9a565b86612112565b610dbd610db86107e386613830565b611c2e565b610dc681610503565b610dd1811515611f10565b610dec610ddd8561334c565b610de681610503565b15611f5c565b610b59610df8856128e7565b610e06836101408301611fb3565b610e0f83610503565b60018303610e4a5760608101610e258151611fbc565b905260208101610e358151611fd8565b9052610e41815161207f565b81525b85612bf6565b610e5383610503565b60028303610e7c5760208101610e698151611fbc565b9052610e758151611fd8565b8152610e44565b610e8583610503565b60038303610e4457610e978151611fbc565b815260808101610ea78151611fd8565b905260208101610eb7815161207f565b9052610e44565b346102435760203660031901126102435760206102f76004356120a8565b34610243576040366003190112610243576020610bf9602435610efe8161029d565b600435612112565b34610243576040366003190112610243576004357f1a3c12ae7b2d1c5d4fded6bfa2710975f8543787e0d0eb52cff1f1d86125bec6610a4f602435610f4a81610a8c565b610f5861092b610da3612c9a565b610f67610db86107e386613830565b610f7081610503565b610f7b8115156121a0565b610f96610f8785613a21565b610f9081610503565b156121e7565b610b59610fa2856128e7565b610fb0836101208301611fb3565b610fb983610503565b60038303610ff357610fcb8151611fbc565b815260208101610fdb815161207f565b905260808101610feb8151611fd8565b905285612bf6565b610ffc83610503565b6002830361103e57602081016110128151611fbc565b9052606081016110228151611fd8565b905261102e815161207f565b815260808101610eb7815161207f565b61104783610503565b60018303610e44576110598151611fd8565b8152602081016110698151611fd8565b905260608101610eb78151611fd8565b60403660031901126102435760243561109661092b610c43612c9a565b6110a2610afa82613830565b6110ab81613a21565b6110b481610503565b1561111357610d06610d126110ff836110e26110d26104ea9661384d565b6110db81610503565b151561223d565b604051918291602083016020600191939293604081019481520152565b0390610ce7601f1992838101835282610446565b60405162461bcd60e51b815260206004820152602260248201527f434841524143544552533a206d7573742063686f6f73652072616365206669726044820152611cdd60f21b6064820152608490fd5b34610243576040366003190112610243576024356004356001600160401b038211610243576111996104ea923690600401610659565b906111a861092b610c43612c9a565b6001600160601b0316613272565b3461024357602036600319011261024357602061038360043561229c565b34610243576020366003190112610243576004356111f661092b610c43612c9a565b61120a6112056107e383613830565b612430565b611213816128e7565b600160e0820152608081015160a082015261122e8183612bf6565b61123c610727610727614d8c565b803b1561024357604051635e78114d60e11b815260048101849052674563918244f400006024820152905f908290604490829084905af1801561083257611307575b5061128d610727610727614d8c565b91823b156102435760405163f9d175ed60e01b815260048101829052925f908490602490829084905af1928315610832576104ea936112f4575b5061075b6112e46112d783613a6e565b60016060820152936109c1565b8060a08401526080830152613b7e565b80610a61611301926103c6565b5f6112c7565b80610a61611314926103c6565b5f61127e565b346102435760203660031901126102435760206108d260043561384d565b34610243576020366003190112610243576113516127be565b8051156102ff5761136a60209160043583820152613f6c565b60601c604051908152f35b34610243575f36600319011261024357602061062c614d8c565b34610243576020366003190112610243576113a86127be565b8051156102ff576102f760209160043583820152613ff9565b8015150361024357565b6101a43590610344826113c1565b34610243576101c0366003190112610243576101a0366023190112610243576104ea611403610469565b60243581526044356020820152611418610c0d565b6040820152608435606082015260a435608082015260c43560a082015260e43560c08201526101043560e082015261144e610a96565b61010082015261145c610aa4565b61012082015261146a610ab2565b6101408201526114786108e9565b6101608201526114866113cb565b610180820152600435612478565b346102435760203660031901126102435760206108d2600435613a21565b34610243576020366003190112610243576040516004356001600160601b03168152602090f35b6001600160a01b031690565b5190610344826113c1565b908160209103126102435751611505816113c1565b90565b6040513d5f823e3d90fd5b61152461151e612c9a565b3061285d565b61152d816128e7565b9061153c610727610727614d8c565b604051633e86fb3160e21b815260048101839052602094918590829060249082905afa908115610832575f91611684575b50156115a957606081610344956115a493518652808201519086015260408101518286015260808101516080860152015182612b13565b612bf6565b6115b7610727610727614d8c565b604051635d6740a560e11b815260048101849052908590829060249082905afa908115610832575f91611657575b501561161c57606081610344956115a493518652808201519086015260408101518286015260808101516080860152015182612a2d565b60405162461bcd60e51b815260206004820152600f60248201526e1d5b9c9958dbd9db9a5e9959081a59608a1b6044820152606490fd5b0390fd5b6116779150853d871161167d575b61166f8183610446565b8101906114f0565b5f6115e5565b503d611665565b61169b9150853d871161167d5761166f8183610446565b5f61156d565b604051906101a082016001600160401b038111838210176103c1576040525f610180838281528260208201528260408201528260608201528260808201528260a08201528260c08201528260e0820152826101008201528261012082015282610140820152826101608201520152565b1561171857565b60405162461bcd60e51b815260206004820152602360248201527f434841524143544552533a20416c7265616479206861732061206368617261636044820152623a32b960e91b6064820152608490fd5b1561177057565b60405162461bcd60e51b815260206004820152602360248201527f43484152414341544552533a204d6178206368617261637465727320726561636044820152621a195960ea1b6064820152608490fd5b5f5b8381106117d25750505f910152565b81810151838201526020016117c3565b81601f820112156102435780516117f88161063e565b926118066040519485610446565b818452602082840101116102435761150591602080850191016117c1565b906020828203126102435781516001600160401b0381116102435761150592016117e2565b90606051918281525f5b8381106118725750825f602080949584010152601f8019910116010190565b806020916080015182828501015201611853565b9060209161189f815180928185528580860191016117c1565b601f01601f1916010190565b7b7379436861726163746572730000000045524337323153797374656d60201b815260406020820181905261150592910190611886565b604090611505939281528160208201520190611886565b1561190057565b60405162461bcd60e51b81526020600482015260136024820152724e616d6520616c72656164792065786973747360681b6044820152606490fd5b634e487b7160e01b5f52601160045260245ffd5b9190820391821161195c57565b61193b565b906001820180921161195c57565b9190820180921161195c57565b5f19811461195c5760010190565b905f916119956127be565b8051156102ff5780606360206119ac9301526142a0565b81106119b9575060649150565b5f5b606481106119c7575050565b816119d182613317565b1115806119fe575b6119eb576119e69061197c565b6119bb565b80929350600191500180911161195c5790565b506001810180821161195c57611a148391613317565b116119d9565b15611a2157565b60405162461bcd60e51b815260206004820152602260248201527f4348415241435445522053595354454d3a20494e56414c4944204f504552415460448201526127a960f11b6064820152608490fd5b15611a7857565b60405162461bcd60e51b815260206004820152603b60248201527f4348415241435445522053595354454d3a204d757374206265206c6576656c2060448201527a313020746f2073656c65637420616476616e63656420636c61737360281b6064820152608490fd5b15611ae857565b60405162461bcd60e51b815260206004820152603160248201527f4348415241435445522053595354454d3a20416476616e63656420636c61737360448201527008185b1c9958591e481cd95b1958dd1959607a1b6064820152608490fd5b15611b4e57565b60405162461bcd60e51b815260206004820152602860248201527f4348415241435445522053595354454d3a20496e76616c696420616476616e63604482015267656420636c61737360c01b6064820152608490fd5b15611bab57565b60405162461bcd60e51b815260206004820152603360248201527f4348415241435445522053595354454d3a20496e76616c696420636c61737320604482015272199bdc8818da185c9858dd195c88189d5a5b19606a1b6064820152608490fd5b600a8210156103225752565b9081526040810192916103449160200190610327565b15611c3557565b60405162461bcd60e51b815260206004820152602b60248201527f434841524143544552533a2063686172616374657220616c726561647920696e60448201526a0819d85b59481ddbdc9b1960aa1b6064820152608490fd5b15611c9557565b60405162461bcd60e51b815260206004820152602960248201527f434841524143544552533a20706f77657220736f7572636520616c7265616479604482015268081cd95b1958dd195960ba1b6064820152608490fd5b9081602091031261024357516115058161029d565b5f906001600160601b038116611d2b610727611d23611d1e6127f3565b6145d3565b60601c6114d9565b6040516331a9108f60e11b80825260048201849052602093929091908490829060249082905afa9081611df1575b50611d72575b50505060601c9060018060a01b03161490565b8293945090611da79291611d8d610727611d23611d1e6127f3565b906040518095819482938352600483019190602083019252565b03915afa918215610832575f92611dc4575b5050905f8080611d5f565b611de39250803d10611dea575b611ddb8183610446565b810190611cec565b5f80611db9565b503d611dd1565b611e0790853d8711611dea57611ddb8183610446565b505f611d59565b60609061150593928152600160208201528160408201520190611886565b519061034482610c03565b519061034482610a8c565b5190610344826108df565b90816101a091031261024357611e61610469565b908051825260208101516020830152611e7c60408201611e2c565b6040830152606081015160608301526080810151608083015260a081015160a083015260c081015160c083015260e081015160e0830152610100611ec1818301611e37565b90830152610120611ed3818301611e37565b90830152610140611ee5818301611e37565b90830152610160611ef7818301611e42565b90830152611f096101808092016114e5565b9082015290565b15611f1757565b60405162461bcd60e51b815260206004820152601e60248201527f434841524143544552533a20696e76616c69642061726d6f72207479706500006044820152606490fd5b15611f6357565b60405162461bcd60e51b815260206004820152602260248201527f434841524143544552533a2061726d6f7220616c72656164792073656c656374604482015261195960f21b6064820152608490fd5b61050082610503565b9060028201915f60028412911290801582169115161761195c57565b9060018201915f60018412911290801582169115161761195c57565b9060048201915f60048412911290801582169115161761195c57565b9060058201915f60058412911290801582169115161761195c57565b9060038201915f60038412911290801582169115161761195c57565b9060078201915f60078412911290801582169115161761195c57565b9190915f838201938412911290801582169115161761195c57565b905f19820191821360011661195c57565b81810392915f13801582851316918412161761195c57565b602460206120b7611d1e6127f3565b604051928380926331a9108f60e11b825286600483015260601c5afa908115610832575f916120f3575b5060601b6001600160601b0319161790565b61210c915060203d602011611dea57611ddb8183610446565b5f6120e1565b61211b81611d01565b918261212657505090565b9091506020612136611d1e6127f3565b6040516331a9108f60e11b81526001600160601b0390941660048501528390602490829060601c5afa918215610832575f9261217f575b506001600160a01b0391821691161490565b61219991925060203d602011611dea57611ddb8183610446565b905f61216d565b156121a757565b60405162461bcd60e51b8152602060048201526018602482015277434841524143544552533a20696e76616c6964207261636560401b6044820152606490fd5b156121ee57565b60405162461bcd60e51b815260206004820152602160248201527f434841524143544552533a207261636520616c72656164792073656c656374656044820152601960fa1b6064820152608490fd5b1561224457565b60405162461bcd60e51b815260206004820152602a60248201527f434841524143544552533a206d7573742063686f6f736520706f77657220736f6044820152691d5c98d948199a5c9cdd60b21b6064820152608490fd5b6122a8610100916128e7565b80516020820151808212159081612421575b81159283612417575b5082612408575b5015612339575001600181516122df81610503565b6122e881610503565b1461233357600281516122fa81610503565b61230381610503565b1461232d576003905161231581610503565b61231e81610503565b14612328575b5f90565b600390565b50600290565b50600190565b156123a557016001815161234c81610503565b61235581610503565b1461239f576002815161236781610503565b61237081610503565b14612399576003905161238281610503565b61238b81610503565b14612394575f90565b600690565b50600590565b50600490565b01600181516123b381610503565b6123bc81610503565b1461240257600281516123ce81610503565b6123d781610503565b146123fc57600390516123e981610503565b6123f281610503565b0361232457600990565b50600890565b50600790565b6060840151131591505f6122ca565b811392505f6122c3565b606084015183121591506122ba565b1561243757565b60405162461bcd60e51b8152602060048201526019602482015278796f75206861766520656e7465726564207468652067616d6560381b6044820152606490fd5b906103449161248b61092b610c43612c9a565b61257f565b1561249757565b60405162461bcd60e51b815260206004820152601660248201527518d85b9b9bdd081b195d995b081a5b8818dbdb58985d60521b6044820152606490fd5b156124dc57565b60405162461bcd60e51b815260206004820152602560248201527f4348415241435445522053595354454d3a20494e56414c49442053544154204360448201526448414e474560d81b6064820152608490fd5b908160c09103126102435760a060405191612549836103a6565b8051835260208101516020840152604081015160408401526060810151606084015260808101516080840152015160a082015290565b61258d610727610727614d8c565b6040516385fcd3bd60e01b815260048101839052602092918390829060249082905afa8015610832576125c8915f916127a1575b5015612490565b6125e26125d482613a04565b838082518301019101611e4d565b926125ec82613c0c565b60a085015260c0936126008582015161198a565b5060e081019384519060648214612798576126bd93836126226126b794611961565b916126308151835190612090565b9084810180519161268261264988870194855190612090565b9461267c606084019661267761266760608a519b019a8b5190612090565b916126718c613c29565b94612064565b612064565b146124d5565b61268b86613c58565b61269a60808b01918251612064565b9052518852519052519052865261075b6040519384928301610517565b826137aa565b6126cb610727610727614d8c565b60405163a543a0c560e01b81526004810183905292908490849060249082905afa9182156108325761270e859361273e935f968792612779575b50519083613c80565b61271c610727610727614d8c565b9060405194858094819363ad54c98b60e01b8352600483019190602083019252565b03925af1801561083257612750575050565b8161276f92903d10612772575b6127678183610446565b81019061252f565b50565b503d61275d565b612791919250863d8811612772576127678183610446565b905f612705565b50505050505050565b6127b89150843d861161167d5761166f8183610446565b5f6125c1565b604051906127cb826103d9565b6001825260203681840137565b604051906127e5826103f4565b600282526040366020840137565b604051602081016001600160401b038111828210176103c1576040525f8152905f368137565b634e487b7160e01b5f52603260045260245ffd5b8051156102ff5760200190565b80518210156102ff5760209160051b010190565b60ff16600a8110156103225790565b6128656127be565b8051156102ff576001600160a01b03909116602082015261288590614089565b6128a282600160801b600160f01b038316616e7360f01b17616ec7565b80156128d7575b156128b2575050565b6128bb906151c2565b61165360405192839263d787b73760e01b8452600484016146e5565b506128e28282616ec7565b6128a9565b6128ef6116a1565b506128f86127be565b8051156102ff5761290d916020820152614755565b50506129176116a1565b90602081015190612a2360408201519161293d612938606083015160f81c90565b613334565b9060618101519060818101519060a18101519060c181015190612a018a6129f760e18401519361012061297d61297861010184015160f81c90565b613340565b936129f161299361297861010286015160f81c90565b936129e76129a961297861010384015160f81c90565b916129dd6129d36101056129ca6129c561010486015160f81c90565b61284e565b93015160f81c90565b1515610180870152565b6101608501611c0c565b6101408301611fb3565b01611fb3565b6101008c01611fb3565b60e08a015260c089015260a08801526080870152606086015260408501614938565b6020830152815290565b90612a366127be565b918251156102ff57602083015260405190602082015260208152612a59816103d9565b6001600160a01b03612a69614d8c565b1691308303612a7c576103449250615532565b90823b15610243576040516301c85d5760e51b8152674d6f62537461747360401b631d18955160e21b01600482015260a06024820152925f928492839185918391612ae89190612ad09060a4850190613cd8565b90846044850152600319848303016064850152611886565b630100080960dd1b608483015203925af1801561083257612b065750565b80610a61610344926103c6565b90612b1c6127be565b918251156102ff57602083015260405190602082015260208152612b3f816103d9565b6001600160a01b03612b4f614d8c565b1691308303612b625761034492506156cb565b90823b15610243576040516301c85d5760e51b81526f43686172616374657245717569706d65631d18955160e21b01600482015260a06024820152925f928492839185918391612bd49190612bbb9060a4850190613cd8565b6004604485015283810360031901606485015290611886565b67050028290101010160bd1b608483015203925af1801561083257612b065750565b612c8161034492612c7481519160208101516040820151612c16816104ec565b6060830151608084015160a085015160c08601519160e08701519361010088015195612c4187610503565b61012089015197612c5189610503565b612c7b6101806101408c01519b612c678d610503565b6101608101519d8e610318565b0151151590565b9b6149d2565b90612c8a6127be565b90612c948261282d565b52614a6a565b36603319013560601c908115612cac57565b339150565b612cb96127be565b8051156102ff576001600160a01b03909116602082015261150590614125565b612ce4611d1e6127f3565b60601c612cef6127d8565b8051156102ff578160208201528051600110156102ff57805f6040612d159301526141af565b906001820180921161195c57612d296127d8565b908151156102ff5760208201528051600110156102ff575f604082015260405182602082015260208152612d5c816103d9565b6001600160a01b03612d6c614d8c565b1691308303612d7f57611505925061588f565b90823b15610243576040516301c85d5760e51b815267436f756e7465727360401b631d18955160e21b01600482015260a06024820152925f928492839185918391612dd39190612ad09060a4850190613cd8565b630100080160dd1b608483015203925af1801561083257612df2575090565b80610a61611505926103c6565b90612e086127be565b918251156102ff5760208301526040519060018060601b03199060601b16602082015260148152612e38816103d9565b6001600160a01b03612e48614d8c565b1691308303612e5b5761034492506159fd565b90823b15610243576040516301c85d5760e51b81525f805160206187a4833981519152600482015260a06024820152925f928492839185918391612ec19190612ea89060a4850190613cd8565b6001604485015283810360031901606485015290611886565b665504022014200160c01b608483015203925af1801561083257612b065750565b90612eeb6127be565b918251156102ff57602083015260405190602082015260208152612f0e816103d9565b6001600160a01b03612f1e614d8c565b1691308303612f315761034492506172fb565b90823b15610243576040516301c85d5760e51b81525f805160206187a4833981519152600482015260a06024820152925f928492839185918391612ec19190612ad09060a4850190613cd8565b90612f876127be565b805190926001600160a01b0391156102ff578116602084015260405191602083015260208252612fb6826103d9565b612fbe614d8c565b1691308303612fd15761034492506175df565b90823b15610243576040516301c85d5760e51b81525f80516020618764833981519152600482015260a06024820152925f92849283918591839161301e9190612ad09060a4850190613cd8565b64020010010160d51b608483015203925af1801561083257612b065750565b906130466127be565b805190926001600160a01b0391156102ff578116602084015260405191602083015260208252613075826103d9565b61307d614d8c565b1691308303613090576103449250615a18565b90823b15610243576040516301c85d5760e51b81525f80516020618764833981519152600482015260a06024820152925f92849283918591839161301e9190612ea89060a4850190613cd8565b6130e56127be565b8051156102ff576130fa916020820152614217565b60f81c90565b6131086127be565b908151156102ff576020820152604051600160f81b60208201526001815261312f816103d9565b6001600160a01b0361313f614d8c565b1691308303613152576103449250615b9b565b90823b15610243576040516301c85d5760e51b81525f805160206186c4833981519152600482015260a06024820152925f92849283918591839161319f9190612ad09060a4850190613cd8565b630101000160d81b608483015203925af1801561083257612b065750565b906131c66127be565b918251156102ff576020830152604051906020820152602081526131e9816103d9565b6001600160a01b036131f9614d8c565b169130830361320c576103449250615d02565b90823b15610243576040516301c85d5760e51b81525f805160206187a4833981519152600482015260a06024820152925f928492839185918391612ec191906132599060a4850190613cd8565b6002604485015283810360031901606485015290611886565b9061327b6127be565b918251156102ff5760208301526001600160a01b03613298614d8c565b16913083036132ab5761034492506161a1565b90823b15610243576040516377b7543160e11b81527774624368617261637465727300000000546f6b656e55524960401b600482015260806024820152925f9284928391859183916133069190612ad0906084850190613cd8565b03925af1801561083257612b065750565b61331f6127be565b8051156102ff576115059160208201526142a0565b60ff16611505816104ec565b60ff1661150581610503565b6133546127be565b8051156102ff57613369916020820152614306565b60f81c61150581610503565b805160208201519081811215806135d6575b8015928392836135cc575b50826135bd575b50826135b4575b1561345a57505061010001600181516133b881610503565b6133c181610503565b1480613447575b61342d57600281516133d981610503565b6133e281610503565b1480613434575b61342d57600390516133fa81610503565b61340381610503565b149081613419575b50613414575f90565b600190565b6003915061342681610318565b145f61340b565b5050600190565b5061343e82610318565b600282146133e9565b5061345182610318565b600182146133c8565b156134ff5750610100016001815161347181610503565b61347a81610503565b14806134ec575b61342d576002815161349281610503565b61349b81610503565b14806134d9575b61342d57600390516134b381610503565b6134bc81610503565b1490816134cc5750613414575f90565b6006915061342681610318565b506134e382610318565b600582146134a2565b506134f682610318565b60048214613481565b61350a575b50505f90565b610100016001815161351b81610503565b61352481610503565b14806135a1575b61342d576002815161353c81610503565b61354581610503565b148061358e575b61342d576003905161355d81610503565b61356681610503565b14908161357a575b50613414575f80613504565b6009915061358781610318565b145f61356e565b5061359882610318565b6008821461354c565b506135ab82610318565b6007821461352b565b811592506133a0565b6060850151131591505f613399565b811392505f613392565b506060830151811215613387565b906135ed6116a1565b506135f781610318565b6001810361361f575061360a8151611fbc565b81526080810161361a8151612010565b905290565b61362881610318565b6002810361365b575061363b8151611fd8565b81526060810161364b8151611fd8565b90526080810161361a815161202c565b61366481610318565b6003810361368757506136778151611fbc565b81526080810161361a8151612048565b61369081610318565b600481036136c35750602081016136a78151611fd8565b90526136b38151611fd8565b81526080810161361a815161202c565b6136cc81610318565b600581036137035750602081016136e38151611fd8565b9052606081016136f38151611fd8565b90526080810161361a8151611fbc565b61370c81610318565b6006810361372357506020810161364b8151611fbc565b61372c81610318565b6007810361374f5750606081016137438151611fd8565b905261360a8151611fd8565b61375881610318565b6008810361376f5750606081016136f38151611fbc565b8061377b600992610318565b03611505576060810161378e8151611fd8565b905261379a8151611fd8565b81526080810161361a8151611ff4565b906137b36127be565b918251156102ff5760208301526001600160a01b036137d0614d8c565b16913083036137e35761034492506163c8565b90823b15610243576040516377b7543160e11b81525f805160206187a4833981519152600482015260806024820152925f9284928391859183916133069190612ea8906084850190613cd8565b6138386127be565b8051156102ff576130fa916020820152614396565b6138556127be565b8051156102ff57613369916020820152614423565b906138736127be565b918251156102ff5761075b916138b391602085015261389181610503565b60405160f89190911b6001600160f81b03191660208201529182906021820190565b6001600160a01b036138c3614d8c565b16913083036138d6576103449250615d16565b90823b15610243576040516301c85d5760e51b81525f805160206186a4833981519152600482015260a06024820152925f92849283918591839161393c91906139239060a4850190613cd8565b6008604485015283810360031901606485015290611886565b5f80516020618784833981519152608483015203925af1801561083257612b065750565b80516020820180516001600160e01b0319949392859182811691600481106139ee575b5050905061398f6127be565b8051156102ff57856139a692166020820152614815565b5050906040602083015192015182156139d35781516001600160e01b031617905291925061150591614bac565b604051637eef2a7160e11b81525f3587166004820152602490fd5b8391925060040360031b1b161684905f80613983565b613a0c6127be565b8051156102ff57611505916020820152614cd2565b613a296127be565b8051156102ff576133699160208201526144b3565b60405190613a4b826103a6565b606060a0835f81525f60208201525f60408201525f838201528260808201520152565b613a76613a3e565b50613a7f6127be565b8051156102ff57613a949160208201526148ad565b613a9c613a3e565b926020810151906040810151906074605482015191015160f81c15156060870152604086015260601c6020850152835264ffffffffff808360381c1690613aeb613ae68385617c6f565b617cc4565b9360601c168101918282118015613b74575b613b3f57908160208281940101928391011161195c57820391821161195c57613b329160018060801b03169060801b17617cc4565b60a0830152608082015290565b6040516323230fa360e01b81526060600482015292839291613b65906064850190611886565b91602484015260448301520390fd5b5080518311613afd565b9061034491815160208301516040840151606085015115159160405193602085015260018060601b03199060601b166040840152605483015260f81b607482015260558152613bcc8161040f565b60a0608084015193015192613be5815194805192614d4e565b93613bee6127be565b93613bf88561282d565b528160601b918160381b9101171791614b08565b613c146127be565b8051156102ff57611505916020820152614543565b600a8111613c375750600190565b60328111613c4b5760011661232457600190565b6005900661232457600190565b600a8111613c665750600290565b60328111613c745750600190565b60011661232457600190565b6115a460606103449493613c93846128e7565b94815186526020820151602087015260408201518387015260808201805160808801525160a087015260e0860152015182612b13565b90816020910312610243575190565b9081518082526020808093019301915f5b828110613cf7575050505090565b835185529381019392810192600101613ce9565b6001600160a01b03613d1b614d8c565b16308103613d2d575061150590614dc1565b604051638c364d5960e01b81525f8051602061876483398151915260048201526080602482015291602091839182908190613d6c906084830190613cd8565b6001604483015264020010010160d51b606483015203915afa908115610832575f91613d96575090565b611505915060203d602011613db8575b613db08183610446565b810190613cc9565b503d613da6565b6001600160a01b03613dcf614d8c565b16308103613de1575061150590614e41565b604051638c364d5960e01b81525f805160206186a483398151915260048201526080602482015291602091839182908190613e20906084830190613cd8565b600b60448301525f80516020618784833981519152606483015203915afa908115610832575f91613d96575090565b6001600160a01b03613e5f614d8c565b16308103613e71575061150590614e95565b604051638c364d5960e01b81525f805160206186a483398151915260048201526080602482015291602091839182908190613eb0906084830190613cd8565b600260448301525f80516020618784833981519152606483015203915afa908115610832575f91613d96575090565b6001600160a01b03613eef614d8c565b16308103613f01575061150590614eaf565b604051638c364d5960e01b81525f805160206187a483398151915260048201526080602482015291602091839182908190613f40906084830190613cd8565b60026044830152665504022014200160c01b606483015203915afa908115610832575f91613d96575090565b6001600160a01b03613f7c614d8c565b16308103613f8e575061150590614ec3565b604051638c364d5960e01b81525f805160206187a483398151915260048201526080602482015291602091839182908190613fcd906084830190613cd8565b60016044830152665504022014200160c01b606483015203915afa908115610832575f91613d96575090565b6001600160a01b03614009614d8c565b1630810361401b575061150590614f18565b604051638c364d5960e01b81525f805160206186a48339815191526004820152608060248201529160209183918290819061405a906084830190613cd8565b600660448301525f80516020618784833981519152606483015203915afa908115610832575f91613d96575090565b6001600160a01b03614099614d8c565b163081036140af57506140ab90616881565b5490565b604051638c364d5960e01b81526f53797374656d52656769737472790000661d189ddbdc9b1960ca1b01600482015260806024820152916020918391829081906140fd906084830190613cd8565b5f6044830152630100080160dd1b606483015203915afa908115610832575f91613d96575090565b6001600160a01b03614135614d8c565b1630810361414757506140ab90616902565b604051638c364d5960e01b81525f8051602061876483398151915260048201526080602482015291602091839182908190614186906084830190613cd8565b5f604483015264020010010160d51b606483015203915afa908115610832575f91613d96575090565b6001600160a01b036141bf614d8c565b163081036141d157506140ab9061696b565b604051638c364d5960e01b815267436f756e7465727360401b631d18955160e21b01600482015260806024820152916020918391829081906140fd906084830190613cd8565b6001600160a01b03614227614d8c565b1630810361423957506140ab906169cf565b604051638c364d5960e01b81525f805160206186c483398151915260048201526080602482015291602091839182908190614278906084830190613cd8565b5f6044830152630101000160d81b606483015203915afa908115610832575f91613d96575090565b6001600160a01b036142b0614d8c565b163081036142c257506140ab90616a35565b604051638c364d5960e01b8152654c6576656c7360501b631d18955160e21b01600482015260806024820152916020918391829081906140fd906084830190613cd8565b6001600160a01b03614316614d8c565b16308103614328575061150590614f6c565b604051638c364d5960e01b81525f805160206186a483398151915260048201526080602482015291602091839182908190614367906084830190613cd8565b600a60448301525f80516020618784833981519152606483015203915afa908115610832575f91613d96575090565b6001600160a01b036143a6614d8c565b163081036143b8575061150590614fc0565b604051638c364d5960e01b81525f805160206187a4833981519152600482015260806024820152916020918391829081906143f7906084830190613cd8565b60036044830152665504022014200160c01b606483015203915afa908115610832575f91613d96575090565b6001600160a01b03614433614d8c565b16308103614445575061150590615010565b604051638c364d5960e01b81525f805160206186a483398151915260048201526080602482015291602091839182908190614484906084830190613cd8565b600860448301525f80516020618784833981519152606483015203915afa908115610832575f91613d96575090565b6001600160a01b036144c3614d8c565b163081036144d5575061150590615024565b604051638c364d5960e01b81525f805160206186a483398151915260048201526080602482015291602091839182908190614514906084830190613cd8565b600960448301525f80516020618784833981519152606483015203915afa908115610832575f91613d96575090565b6001600160a01b03614553614d8c565b16308103614565575061150590615078565b604051638c364d5960e01b81525f805160206186a4833981519152600482015260806024820152916020918391829081906145a4906084830190613cd8565b600560448301525f80516020618784833981519152606483015203915afa908115610832575f91613d96575090565b6001600160a01b036145e3614d8c565b163081036145f55750611505906150fd565b604051638c364d5960e01b81526f556c74696d617465446f6d696e696f6e631d18955160e21b0160048201526080602482015291602091839182908190614640906084830190613cd8565b600260448301526f45434000450505050505050805080805607a1b606483015203915afa908115610832575f91613d96575090565b6001600160a01b03614685614d8c565b1630810361469757506140ab90616a97565b604051638c364d5960e01b81526f5265736f757263654163636573730000661d189ddbdc9b1960ca1b0160048201526080602482015291602091839182908190614278906084830190613cd8565b906146fd602091949394604084526040840190611886565b6001600160a01b03909416910152565b90916060828403126102435781516001600160401b03929083811161024357846147389183016117e2565b9360208201519360408301519081116102435761150592016117e2565b6001600160a01b03614765614d8c565b1630810361477e575061477790615358565b9192909190565b60405163419b58fd60e01b81525f805160206186a483398151915260048201526060602482015292915f918491829081906147bd906064830190613cd8565b5f80516020618784833981519152604483015203915afa908115610832575f80935f936147eb575b50929190565b9193505061480b91503d805f833e6148038183610446565b81019061470d565b929092915f6147e5565b6001600160a01b03614825614d8c565b163081036148375750614777906153b5565b60405163419b58fd60e01b81526f46756e6374696f6e53656c6563746f72661d189ddbdc9b1960ca1b0160048201526060602482015292915f91849182908190614885906064830190613cd8565b64090080080160d21b604483015203915afa908115610832575f80935f936147eb5750929190565b6001600160a01b036148bd614d8c565b163081036148cf57506147779061543f565b60405163419b58fd60e01b81525f805160206187a483398151915260048201526060602482015292915f9184918290819061490e906064830190613cd8565b665504022014200160c01b604483015203915afa908115610832575f80935f936147eb5750929190565b610500826104ec565b906001600160a01b03614952614d8c565b1691308303614965576103449250615d31565b90823b15610243576040516301c85d5760e51b81525f805160206186a4833981519152600482015260a06024820152925f92849283918591839161393c91906132599060a4850190613cd8565b6149bb81610503565b60f81b9052565b600a8110156103225760f81b9052565b9b9a999897969594939291906040519c60208e015260408d01526149f5816104ec565b60f81b60608c015260618b015260818a015260a189015260c188015260e1870152614a1f81610503565b60f81b6101018601526101028501614a36916149b2565b6101038401614a44916149b2565b6101048301614a52916149c2565b151560f81b61010582015260e681526115058161042a565b6001600160a01b03614a7a614d8c565b16308103614a8d57509061034491615d45565b90813b156102435760405163298314fb60e01b81525f805160206186a4833981519152600482015260a06024820152925f92849290918391859183916133069190614af390614ae09060a4860190613cd8565b6003199283868303016044870152611886565b90846064850152838203016084840152611849565b909291906001600160a01b03614b1c614d8c565b16308103614b2f57509261034493615f4a565b909192813b156102435760405163298314fb60e01b81525f805160206187a4833981519152600482015260a06024820152945f9486948593879385936133069390929190614b9890614b859060a4880190613cd8565b6003199283888303016044890152611886565b926064860152848303016084850152611886565b906001600160a01b03614bbd614d8c565b16803014614c1257905f91614be9938360405180968195829463075cf5e160e31b8452600484016118e2565b03925af1908115610832575f91614bfe575090565b61150591503d805f833e6108238183610446565b50614c1b612c9a565b91614c246127be565b8051156102ff5780826020614c3a9301526152b1565b5050906034602083015160601c92015160f81c8215614cab5715614c9c575b60101b6001600160901b031916614c8257614c7392617be7565b905b15614c7d5790565b61661c565b90614c9091614c9693617bc2565b90151591565b90614c75565b614ca68482617b5c565b614c59565b50614cb5816151c2565b604051637df8867360e11b815291829161165391600484016118e2565b6001600160a01b03614ce2614d8c565b16308103614cf4575061150590616624565b604051631e78897760e01b81525f805160206187a4833981519152600482015260606024820152915f91839182908190614d32906064830190613cd8565b6001604483015203915afa908115610832575f91614bfe575090565b6020611505916040519381614d6c86935180928680870191016117c1565b8201614d80825180938680850191016117c1565b01038084520182610446565b7f629a4c26e296b22a8e0856e9f6ecb2d1008d7e00081111962cd175fa7488e175546001600160a01b03168061150557503390565b604080515f80516020618764833981519152602080830191825284519383019594919391810191905f5b828110614e2d5750505050614e0d81611505949503601f198101835282610446565b5190205f8051602061870483398151915218614e27616d3d565b90616e65565b835188529681019692810192600101614deb565b614e4a90616b03565b5f80915b600b8310614e60576115059250616e96565b9060ff6fe60d002020012020202020010101010160781b84601b0360031b1c16810180911161195c5760019092019190614e4e565b614ea161150591616b03565b614ea9616d73565b90616e96565b614ebb61150591616b64565b614e27616db4565b614ecc90616b64565b614ed4616dec565b90806020831015614f07575b5080548260031b1b916020039081601411614efa57505090565b600101549060031b1c1790565b601f83169260051c0190505f614ee0565b614f2190616b03565b5f80915b60068310614f37576115059250616e65565b9060ff6fe60d002020012020202020010101010160781b84601b0360031b1c16810180911161195c5760019092019190614f25565b614f7590616b03565b5f80915b600a8310614f8b576115059250616e96565b9060ff6fe60d002020012020202020010101010160781b84601b0360031b1c16810180911161195c5760019092019190614f79565b614fc990616b64565b5f9190825b60038085101561500357665504022014200160c01b601b86900390911b1c60ff16810190811061195c57600190930192614fce565b5090611505929350616e96565b61501c61150591616b03565b614ea9616e24565b61502d90616b03565b5f80915b60098310615043576115059250616e96565b9060ff6fe60d002020012020202020010101010160781b84601b0360031b1c16810180911161195c5760019092019190615031565b61508190616b03565b5f905f5b600581106150cb5750818160208210156150b5575b505080548260031b1b916020039081602011614efa57505090565b90809350601f925060051c019116905f8061509a565b9160ff6fe60d002020012020202020010101010160781b84601b0360031b1c16810180911161195c5791600101615085565b6040516151128161075b602082019485616696565b5190205f80516020618704833981519152185f905f5b6002811061516e575081816020821015615158575b505080548260031b1b916020039081601411614efa57505090565b90809350601f925060051c019116905f8061513d565b9160ff6f45434000450505050505050805080805607a1b84601b0360031b1c16810180911161195c5791600101615128565b604051906151ad826103d9565b60068252651e3937b7ba1f60d11b6020830152565b608081901b6001600160801b0319169061150590602490601081901b6001600160901b0319168061527057506151f66151a0565b935b8061526257506152066151a0565b60405194859261ffff60f01b166020840152601d60f91b908160228501526152388151809260206023880191016117c1565b830190602382015261525382518093602087850191016117c1565b01036004810184520182610446565b61526b90616eff565b615206565b61527990616eff565b936151f8565b906152898261063e565b6152966040519182610446565b82815280926152a7601f199161063e565b0190602036910137565b5f9060609060405190602090826152cc6020820192836166e1565b03926152e0601f1994858101835282610446565b5190205f80516020618704833981519152189160405192816054850116604052601584526020840192601591925b8183101561534057505080615324575b50505092565b5f199060031b1c908183511691199054161790525f808061531e565b8160018583949597965487520194019401919061530e565b5f90615365606091616b79565b60405190602090601f19908161012585011660405260e68452602084019260e691925b8183101561539d575050806153245750505092565b81600185839495979654875201940194019190615388565b5f9060609060405190602090826153d06020820192836167b5565b03926153e4601f1994858101835282610446565b5190205f80516020618704833981519152189160405192816063850116604052602484526020840192602491925b81831015615427575050806153245750505092565b81600185839495979654875201940194019190615412565b9061544982616b8e565b60405190602090601f1990816094850116604052605584526020840192605591925b8183101561551a575050806154fe575b5050509061548883617d26565b5461549b66ffffffffffffff821661527f565b935f93602086015b60ff861660028110156154f4576154d58264ffffffffff876154c58b89616f88565b946028026038011c16809361706a565b810180911161195c579460ff80911690811461195c57600101946154a3565b5050949291935050565b5f199060031b1c908183511691199054161790525f808061547b565b8160018583949597965487520194019401919061546b565b919061553d83616ba3565b91615546617ec2565b905f5b82518110156155ed5761557d615570615562838661283a565b516001600160581b03191690565b6001600160581b03191690565b9060049182808260581c1614615599575b506001915001615549565b60601c803b1561024357855f9189836155c7966040519788958694859363964f667d60e01b85528401617110565b03925af1918215610832576001921561558e5780610a616155e7926103c6565b5f61558e565b5060408051919490939291615637918491674d6f62537461747360401b631d18955160e21b01905f805160206186e4833981519152908061562f868d836170b4565b0390a261830f565b5f5b81518110156156c357615652615570615562838561283a565b6008808260581c1614615669575b50600101615639565b60601c90813b1561024357845163a8ba872160e01b8152915f9083908183816156968a8e60048401617110565b03925af1918215610832576001926156b0575b5090615660565b80610a616156bd926103c6565b5f6156a9565b505050509050565b9190915f805b600482106158645765ffffffffffff9150166156ec82616c07565b6156f4617f57565b905f5b825181101561578157615710615570615562838661283a565b9060049182808260581c161461572c575b5060019150016156f7565b60601c803b1561024357855f9188838c9661575b6040519889968795869463964f667d60e01b86528501617156565b03925af191821561083257600192156157215780610a6161577b926103c6565b5f615721565b509491906157ce8383604098875f805160206186e4833981519152604051806157c687876f43686172616374657245717569706d65631d18955160e21b0196846170df565b0390a2618346565b5f5b815181101561585b576157e9615570615562838561283a565b6008808260581c1614615800575b506001016157d0565b60601c90813b1561024357875163a8ba872160e01b8152915f90839081838161582e8b8b8e60048501617156565b03925af191821561083257600192615848575b50906157f7565b80610a61615855926103c6565b5f615841565b50505050509050565b60ff67050028290101010160bd1b83601b0360031b1c16810180911161195c576001909101906156d1565b919061589a83616c70565b916158a3617fed565b905f5b825181101561592f576158bf615570615562838661283a565b9060049182808260581c16146158db575b5060019150016158a6565b60601c803b1561024357855f918983615909966040519788958694859363964f667d60e01b855284016171a6565b03925af191821561083257600192156158d05780610a61615929926103c6565b5f6158d0565b506040805191949093929161597191849167436f756e7465727360401b631d18955160e21b01905f805160206186e4833981519152908061562f868d836170b4565b5f5b81518110156156c35761598c615570615562838561283a565b6008808260581c16146159a3575b50600101615973565b60601c90813b1561024357845163a8ba872160e01b8152915f9083908183816159d08a8e600484016171a6565b03925af1918215610832576001926159ea575b509061599a565b80610a616159f7926103c6565b5f6159e3565b906103449165ffffffffffff615a11616dec565b1690617462565b91909165ffffffffffff615a2a616d3d565b16615a3482616cd4565b615a3c61822c565b905f5b8251811015615ac957615a58615570615562838661283a565b9060049182808260581c1614615a74575b506001915001615a3f565b60601c803b1561024357855f9188838c96615aa36040519889968795869463964f667d60e01b8652850161728c565b03925af19182156108325760019215615a695780610a61615ac3926103c6565b5f615a69565b50949190615b0e8383604098875f805160206186e4833981519152604051806157c687876f4368617261637465724f776e65720000631d18955160e21b0196846170df565b5f5b815181101561585b57615b29615570615562838561283a565b6008808260581c1614615b40575b50600101615b10565b60601c90813b1561024357875163a8ba872160e01b8152915f908390818381615b6e8b8b8e6004850161728c565b03925af191821561083257600192615b88575b5090615b37565b80610a61615b95926103c6565b5f615b81565b9190615ba6836169cf565b91615baf618082565b905f5b8251811015615c3b57615bcb615570615562838661283a565b9060049182808260581c1614615be7575b506001915001615bb2565b60601c803b1561024357855f918983615c15966040519788958694859363964f667d60e01b855284016171d8565b03925af19182156108325760019215615bdc5780610a61615c35926103c6565b5f615bdc565b5060408051919490939291615c769184915f805160206186c4833981519152905f805160206186e4833981519152908061562f868d836170b4565b5f5b81518110156156c357615c91615570615562838561283a565b6008808260581c1614615ca8575b50600101615c78565b60601c90813b1561024357845163a8ba872160e01b8152915f908390818381615cd58a8e600484016171d8565b03925af191821561083257600192615cef575b5090615c9f565b80610a61615cfc926103c6565b5f615ce8565b906103449165ffffffffffff615a11616db4565b906103449165ffffffffffff615d2a616e24565b169061774e565b906103449165ffffffffffff615d2a616d73565b60408051655461626c657360501b66746273746f726560c81b01602082019081525f805160206186a48339815191528284018190528383529295929491615d8b816103f4565b5190205f80516020618704833981519152185491615da7618110565b905f5b8251811015615e3557615dc3615570615562838661283a565b6001808260581c1614615dda575b50600101615daa565b60601c90813b156102435788516315c19b2760e21b8152915f908390818381615e088c8c8f60048501617923565b03925af191821561083257600192615e22575b5090615dd1565b80610a61615e2f926103c6565b5f615e1b565b50945f80516020618724833981519152875180615e538689836178b9565b0390a2615e6e615e6285616b79565b8351602085019161838c565b60ff808460e01c1680615f0b575b50505f5b815181101561585b57615e99615570615562838561283a565b6002808260581c1614615eb0575b50600101615e80565b60601c90813b15610243578751635b28cdaf60e01b8152915f908390818381615ede8b8b8e60048501617923565b03925af191821561083257600192615ef8575b5090615ea7565b80610a61615f05926103c6565b5f615ef1565b5f615f1587617d50565b555f60805b8284831610615f2a575050615e7c565b600181615f418693615f3c868d617020565b618357565b92011690615f1a565b60408051655461626c657360501b66746273746f726560c81b01602082019081525f805160206187a483398151915282840181905283835296979295949291615f92816103f4565b5190205f80516020618704833981519152185490615fae61819e565b905f5b825181101561604157615fca615570615562838661283a565b6001808260581c1614615fe1575b50600101615fb1565b60601c90813b15610243575f888c9388838b6160148f8c9051998a97889687956315c19b2760e21b87526004870161797e565b03925af19182156108325760019261602e575b5090615fd8565b80610a6161603b926103c6565b5f616027565b50965f805160206187248339815191528751806160618c8a898b856178f5565b0390a261607c61607085616b8e565b8451602086019161838c565b60ff808360e01c1680616128575b50505f5b815181101561611d576160a7615570615562838561283a565b6002808260581c16146160be575b5060010161608e565b60601c90813b15610243575f878b9387838a6160f08a8f51998a9788968795635b28cdaf60e01b87526004870161797e565b03925af19182156108325760019261610a575b50906160b5565b80610a61616117926103c6565b5f616103565b505050505050509050565b969098929594938561613c869a949a617d65565b555f96602085015b8b8916908a82101561618e576161858d928261618060019464ffffffffff8f8f908f9061617091617045565b956028026038011c16809461838c565b61196f565b99011697616144565b5050939950939495509550955f8061608a565b9190916161ad81617d3b565b5464ffffffffff8160381c166161ce6161c6828061194f565b86519061196f565b81811415949085806163a9575b61638d576161e9908461843f565b906161f2617d7a565b915f5b83518110156162845761620e615570615562838761283a565b6010808260581c1614616225575b506001016161f5565b60601c90813b15610243575f878b9388838c61625760405198899687958694630abd6b4560e31b865260048601617a0b565b03925af191821561083257600192616271575b509061621c565b80610a6161627e926103c6565b5f61626a565b5093509491906040926040515f805160206186848339815191527774624368617261637465727300000000546f6b656e55524960401b91806162c98c8a898d85617acb565b0390a261637d575b6162e3876162de87616fc5565b6182c2565b5f5b8151811015616373576162fe615570615562838561283a565b6020808260581c1614616315575b506001016162e5565b60601c90813b15610243575f868a9386838b6163468b5198899687958694636358453360e01b865260048601617a0b565b03925af191821561083257600192616360575b509061630c565b80610a6161636d926103c6565b5f616359565b5050505050509050565b8361638786617d3b565b556162d1565b604051632994042d60e21b8152806116538580600484016179ed565b50826163c16163b7826179da565b64ffffffffff1690565b14156161db565b9190916163d481617d26565b5464ffffffffff926060848360601c16916163fa6163f2848061194f565b88519061196f565b8381141596908780616607575b6165eb5761641590866184bc565b9661641e617e34565b925f5b84518110156164af5761643a615570615562838861283a565b6010808260581c1614616451575b50600101616421565b861c90813b15610243575f898d938a838e61648260405198899687958694630abd6b4560e31b865260048601617a70565b03925af19182156108325760019261649c575b5090616448565b80610a616164a9926103c6565b5f616495565b509298939790949691965f985f995b60ff8b1660018110156164e55760ff918b8b6001936028026038011c16019b0116996164be565b509692975093985093989196506040945f8051602061868483398151915285896165378d8b60405194859465ffffffffffff694368617261637465727360301b631d18955160e21b0199169086617b0f565b0390a26165db575b61654c886162de88616fe9565b5f5b815181101561611d57616567615570615562838561283a565b6020808260581c161461657e575b5060010161654e565b831c90813b15610243575f878b9387838c6165ae8c5198899687958694636358453360e01b865260048601617a70565b03925af1918215610832576001926165c8575b5090616575565b80610a616165d5926103c6565b5f6165c1565b846165e587617d26565b5561653f565b604051632994042d60e21b8152806116538780600484016179ed565b50846166156163b7826179da565b1415616407565b602081519101fd5b6115059064ffffffffff61664061663a83616fe9565b92617d26565b5460601c1690617c07565b6953746f7265486f6f6b7360301b66746273746f726560c81b01815281516020918201928201915f5b828110616682575050505090565b835185529381019392810192600101616674565b6f556c74696d617465446f6d696e696f6e631d18955160e21b01815281516020918201928201915f5b8281106166cd575050505090565b8351855293810193928101926001016166bf565b6653797374656d7360481b661d189ddbdc9b1960ca1b01815281516020918201928201915f5b828110616715575050505090565b835185529381019392810192600101616707565b5f805160206187a4833981519152815281516020918201928201915f5b828110616754575050505090565b835185529381019392810192600101616746565b7774624368617261637465727300000000546f6b656e55524960401b815281516020918201928201915f5b8281106167a1575050505090565b835185529381019392810192600101616793565b6f46756e6374696f6e53656c6563746f72661d189ddbdc9b1960ca1b01815281516020918201928201915f5b8281106167ef575050505090565b8351855293810193928101926001016167e1565b5f805160206186a4833981519152815281516020918201928201915f5b82811061682e575050505090565b835185529381019392810192600101616820565b5f805160206187a4833981519152815281516020918201928201915f5b82811061686d575050505090565b83518552938101939281019260010161685f565b60405160208160208101936f53797374656d52656769737472790000661d189ddbdc9b1960ca1b0185526040820160208251919201935f5b8281106168eb575050506168d6925003601f198101835282610446565b5190205f805160206187048339815191521890565b8551845294810194869450928101926001016168b9565b60405160208160208101936f4368617261637465724f776e65720000631d18955160e21b0185526040820160208251919201935f5b828110616954575050506168d6925003601f198101835282610446565b855184529481019486945092810192600101616937565b604051602081602081019367436f756e7465727360401b631d18955160e21b0185526040820160208251919201935f5b8281106169b8575050506168d6925003601f198101835282610446565b85518452948101948694509281019260010161699b565b6040516020816020810193694e616d6545786973747360301b631d18955160e21b0185526040820160208251919201935f5b828110616a1e575050506168d6925003601f198101835282610446565b855184529481019486945092810192600101616a01565b6040516020816020810193654c6576656c7360501b631d18955160e21b0185526040820160208251919201935f5b828110616a80575050506168d6925003601f198101835282610446565b855184529481019486945092810192600101616a63565b60405160208160208101936f5265736f757263654163636573730000661d189ddbdc9b1960ca1b0185526040820160208251919201935f5b828110616aec575050506168d6925003601f198101835282610446565b855184529481019486945092810192600101616acf565b604051602081602081019364537461747360581b631d18955160e21b0185526040820160208251919201935f5b828110616b4d575050506168d6925003601f198101835282610446565b855184529481019486945092810192600101616b30565b6040516168d68161075b602082019485616729565b6040516168d68161075b602082019485616803565b6040516168d68161075b602082019485616842565b6040516020816020810193674d6f62537461747360401b631d18955160e21b0185526040820160208251919201935f5b828110616bf0575050506168d6925003601f198101835282610446565b855184529481019486945092810192600101616bd3565b60405160208160208101936f43686172616374657245717569706d65631d18955160e21b0185526040820160208251919201935f5b828110616c59575050506168d6925003601f198101835282610446565b855184529481019486945092810192600101616c3c565b604051602081602081019367436f756e7465727360401b631d18955160e21b0185526040820160208251919201935f5b828110616cbd575050506168d6925003601f198101835282610446565b855184529481019486945092810192600101616ca0565b60405160208160208101936f4368617261637465724f776e65720000631d18955160e21b0185526040820160208251919201935f5b828110616d26575050506168d6925003601f198101835282610446565b855184529481019486945092810192600101616d09565b5f805b60018110616d4c575090565b9060ff64020010010160d51b83601b0360031b1c16810180911161195c5790600101616d40565b5f805b60028110616d82575090565b9060ff6fe60d002020012020202020010101010160781b83601b0360031b1c16810180911161195c5790600101616d76565b5f805b60028110616dc3575090565b9060ff665504022014200160c01b83601b0360031b1c16810180911161195c5790600101616db7565b5f805b60018110616dfb575090565b9060ff665504022014200160c01b83601b0360031b1c16810180911161195c5790600101616def565b5f805b60088110616e33575090565b9060ff6fe60d002020012020202020010101010160781b83601b0360031b1c16810180911161195c5790600101616e27565b6020821015616e88575b80548260031b1b916020039081602011614efa57505090565b601f82169160051c01616e6f565b6020821015616eb9575b80548260031b1b916020039081600111614efa57505090565b601f82169160051c01616ea0565b616ecf6127d8565b908151156102ff5760208201528051600110156102ff576001600160a01b0390911660408201526130fa90614675565b5f5b60108110616f30575b6040516001600160801b0319909216602083015260108252616f2b826103d9565b815290565b6001600160801b03198216600382901b1b6001600160f81b03191615616f5857600101616f01565b616f0a565b5f8051602061874483398151915290604051616f818161075b60208201948561664b565b5190201890565b905f8051602061874483398151915291604051616fad8161075b602082019485616729565b51902060f89190911b6001600160f81b031916181890565b5f8051602061874483398151915290604051616f818161075b602082019485616768565b7f3a4102da22e32d82fc925482184f16c09fd4281692720b87d124aef6da48a0f190604051616f818161075b602082019485616729565b905f8051602061874483398151915291604051616fad8161075b602082019485616803565b905f8051602061874483398151915291604051616fad8161075b602082019485616842565b9291925b60209081831061708e5780548552930192601f199091019060010161706e565b9190509291928061709e57505050565b5f199060031b1c90818351169119905416179052565b90916170cb61150593606084526060840190613cd8565b915f60208201526040818403910152611886565b65ffffffffffff6170fc6115059593606084526060840190613cd8565b931660208201526040818403910152611886565b674d6f62537461747360401b631d18955160e21b01815260806020820181905261150593919261714291840190613cd8565b915f60408201526060818403910152611886565b65ffffffffffff61719261150595936f43686172616374657245717569706d65631d18955160e21b018452608060208501526080840190613cd8565b931660408201526060818403910152611886565b67436f756e7465727360401b631d18955160e21b01815260806020820181905261150593919261714291840190613cd8565b5f805160206186c4833981519152815260806020820181905261150593919261714291840190613cd8565b5f805160206187a4833981519152815260806020820181905261150593919261714291840190613cd8565b5f805160206187a48339815191528152608060208201819052611505949265ffffffffffff916171929190840190613cd8565b5f80516020618764833981519152815260806020820181905261150593919261714291840190613cd8565b65ffffffffffff61719261150595936f4368617261637465724f776e65720000631d18955160e21b018452608060208501526080840190613cd8565b5f805160206186a48339815191528152608060208201819052611505949265ffffffffffff916171929190840190613cd8565b919061730683616b8e565b9161730f61819e565b905f5b825181101561739b5761732b615570615562838661283a565b9060049182808260581c1614617347575b506001915001617312565b60601c803b1561024357855f918983617375966040519788958694859363964f667d60e01b85528401617203565b03925af1918215610832576001921561733c5780610a61617395926103c6565b5f61733c565b50604080519194909392916173d69184915f805160206187a4833981519152905f805160206186e4833981519152908061562f868d836170b4565b5f5b81518110156156c3576173f1615570615562838561283a565b6008808260581c1614617408575b506001016173d8565b60601c90813b1561024357845163a8ba872160e01b8152915f9083908183816174358a8e60048401617203565b03925af19182156108325760019261744f575b50906173ff565b80610a6161745c926103c6565b5f617448565b9092919261746f82616b8e565b61747761819e565b905f5b825181101561750457617493615570615562838661283a565b9060049182808260581c16146174af575b50600191500161747a565b60601c803b1561024357855f9188838c966174de6040519889968795869463964f667d60e01b8652850161722e565b03925af191821561083257600192156174a45780610a616174fe926103c6565b5f6174a4565b50604080519096939291617552918591905f805160206187a4833981519152905f805160206186e48339815191529080617540868a8d846170df565b0390a265ffffffffffff851690618346565b5f5b815181101561585b5761756d615570615562838561283a565b6008808260581c1614617584575b50600101617554565b60601c90813b1561024357875163a8ba872160e01b8152915f9083908183816175b28b8b8e6004850161722e565b03925af1918215610832576001926175cc575b509061757b565b80610a616175d9926103c6565b5f6175c5565b91906175ea83616cd4565b916175f361822c565b905f5b825181101561767f5761760f615570615562838661283a565b9060049182808260581c161461762b575b5060019150016175f6565b60601c803b1561024357855f918983617659966040519788958694859363964f667d60e01b85528401617261565b03925af191821561083257600192156176205780610a61617679926103c6565b5f617620565b509291906176c2826040946040515f805160206186e48339815191526f4368617261637465724f776e65720000631d18955160e21b01918061562f868d836170b4565b5f5b81518110156156c3576176dd615570615562838561283a565b6008808260581c16146176f4575b506001016176c4565b60601c90813b1561024357845163a8ba872160e01b8152915f9083908183816177218a8e60048401617261565b03925af19182156108325760019261773b575b50906176eb565b80610a61617748926103c6565b5f617734565b9092919261775b82616b79565b617763618110565b905f5b82518110156177f05761777f615570615562838661283a565b9060049182808260581c161461779b575b506001915001617766565b60601c803b1561024357855f9188838c966177ca6040519889968795869463964f667d60e01b865285016172c8565b03925af191821561083257600192156177905780610a616177ea926103c6565b5f617790565b5060408051909693929161782c918591905f805160206186a4833981519152905f805160206186e48339815191529080617540868a8d846170df565b5f5b815181101561585b57617847615570615562838561283a565b6008808260581c161461785e575b5060010161782e565b60601c90813b1561024357875163a8ba872160e01b8152915f90839081838161788c8b8b8e600485016172c8565b03925af1918215610832576001926178a6575b5090617855565b80610a616178b3926103c6565b5f61789f565b90611505926178d36178e192608085526080850190613cd8565b908382036020850152611886565b905f60408201526060818303910152611849565b9061150594926178d361791092608085526080850190613cd8565b9260408201526060818403910152611886565b5f805160206186a4833981519152815260c0602082018190529094939260a09261797992617966929161795891890190613cd8565b908782036040890152611886565b5f60608701528581036080870152611849565b930152565b9594936179c7617979936179b960a09694694368617261637465727360301b631d18955160e21b018b5260c060208c015260c08b0190613cd8565b9089820360408b0152611886565b9160608801528682036080880152611886565b9064ffffffffff80921691821161195c57565b5f815264ffffffffff91821660208201529116604082015260600190565b909264ffffffffff617a4b6115059694957774624368617261637465727300000000546f6b656e55524960401b855260e0602086015260e0850190613cd8565b945f60408501525f606085015216608083015260a082015260c0818403910152611886565b5f805160206187a4833981519152815260e060208201819052611505959394919264ffffffffff91617aa59190850190613cd8565b94600160408501525f606085015216608083015260a082015260c0818403910152611886565b909264ffffffffff617aea61150596949560c0855260c0850190613cd8565b945f60208501525f6040850152166060830152608082015260a0818403910152611886565b919390611505959365ffffffffffff617b3664ffffffffff9360c0875260c0870190613cd8565b9660016020870152166040850152166060830152608082015260a0818403910152611886565b617b7982600160801b600160f01b038316616e7360f01b176185ba565b8015617b8857156128b2575050565b506128e282826185ba565b3d15617bbd573d90617ba48261063e565b91617bb26040519384610446565b82523d5f602084013e565b606090565b90617bd05f93928493618529565b9082602083519301915af1617be3617b93565b9091565b90617bf55f93928493618529565b90602082519201905af4617be3617b93565b60408051601f19603f85830101811690925283815292602080850193925b81831015617c5757505080617c3b575b50505090565b5f199060031b1c908183511691199054161790525f8080617c35565b81600185839495979654875201940194019190617c25565b9081518111617c8e576001600160801b031660209190910160801b1790565b6040516323230fa360e01b81526060600482015292508291617cb4906064840190611886565b905f602484015260448301520390fd5b906103446001600160801b038316617cdb8161527f565b93602085019060801c618571565b604051617cfe8161075b60208201948561664b565b5190207f14e2fcc58e58e68ec7edc30c8d50dccc3ce2714a623ec81f46b6a63922d765691890565b604051617cfe8161075b602082019485616729565b604051617cfe8161075b602082019485616768565b604051617cfe8161075b602082019485616803565b604051617cfe8161075b602082019485616842565b617d826127be565b8051156102ff57617de4617ddc6020927774624368617261637465727300000000546f6b656e55524960401b6020820152617dd6617dc8617dc283616f5d565b92617ce9565b5460381c64ffffffffff1690565b90617c07565b805190617c6f565b8060801c916015809260018060801b03160490604051936020850160208460051b8701016040528386525f5b848110617e205750505050505090565b825182529185019190830190600101617e10565b617e3c6127be565b8051156102ff575f805160206187a483398151915260208281019190915290617e7290617ddc90617dd6617dc8617dc283616f5d565b8060801c916015809260018060801b03160490604051936020850160208460051b8701016040528386525f5b848110617eae5750505050505090565b825182529185019190830190600101617e9e565b617eca6127be565b8051156102ff57674d6f62537461747360401b631d18955160e21b0160208281019190915290617f0790617ddc90617dd6617dc8617dc283616f5d565b8060801c916015809260018060801b03160490604051936020850160208460051b8701016040528386525f5b848110617f435750505050505090565b825182529185019190830190600101617f33565b617f5f6127be565b8051156102ff57617f9d617ddc6020926f43686172616374657245717569706d65631d18955160e21b016020820152617dd6617dc8617dc283616f5d565b8060801c916015809260018060801b03160490604051936020850160208460051b8701016040528386525f5b848110617fd95750505050505090565b825182529185019190830190600101617fc9565b617ff56127be565b8051156102ff5767436f756e7465727360401b631d18955160e21b016020828101919091529061803290617ddc90617dd6617dc8617dc283616f5d565b8060801c916015809260018060801b03160490604051936020850160208460051b8701016040528386525f5b84811061806e5750505050505090565b82518252918501919083019060010161805e565b61808a6127be565b8051156102ff575f805160206186c4833981519152602082810191909152906180c090617ddc90617dd6617dc8617dc283616f5d565b8060801c916015809260018060801b03160490604051936020850160208460051b8701016040528386525f5b8481106180fc5750505050505090565b8251825291850191908301906001016180ec565b6181186127be565b8051156102ff575f805160206186a48339815191526020828101919091529061814e90617ddc90617dd6617dc8617dc283616f5d565b8060801c916015809260018060801b03160490604051936020850160208460051b8701016040528386525f5b84811061818a5750505050505090565b82518252918501919083019060010161817a565b6181a66127be565b8051156102ff575f805160206187a4833981519152602082810191909152906181dc90617ddc90617dd6617dc8617dc283616f5d565b8060801c916015809260018060801b03160490604051936020850160208460051b8701016040528386525f5b8481106182185750505050505090565b825182529185019190830190600101618208565b6182346127be565b8051156102ff57618272617ddc6020926f4368617261637465724f776e65720000631d18955160e21b016020820152617dd6617dc8617dc283616f5d565b8060801c916015809260018060801b03160490604051936020850160208460051b8701016040528386525f5b8481106182ae5750505050505090565b82518252918501919083019060010161829e565b81519060208093019190925b808210156182f75750806182e157505050565b5f199060031b1c90818354169119905116179055565b6001839482939451815501930191601f1901906182ce565b81519060208093019190925b8082101561832e5750806182e157505050565b6001839482939451815501930191601f19019061831b565b8251610344936020019290916183af565b9190915f905b60209081831061837d5784518155930192601f199091019060010161835d565b9293919050806182e157505050565b92919260209081831061837d5784518155930192601f199091019060010161835d565b9093929193806183de575b5092909260209081831061837d5784518155930192601f199091019060010161835d565b602081101561842f575b80156183ba5791939082602003908360031b5f198460031b1c19811c908751901c9080198354169116178155818311156156c357600101940191601f19910101925f6183ba565b90601f908260051c0191166183e8565b64ffffffffff8083116184a35766ffffffffffffff821690603883901c1683818110618499570301915b64ffffffffff60381b60389190911b1664ffffffffff60381b19929092166001600160601b031991909116171790565b9003900391618469565b604051637149a3c160e01b815260048101849052602490fd5b64ffffffffff8083116184a35766ffffffffffffff821690606083901c168381811061851f570301915b64ffffffffff60601b60609190911b1664ffffffffff60601b1992909216600169ffffffffff000000000160381b031991909116171790565b90039003916184e6565b60546115059160405193816185488693518092602080870191016117c1565b82019060018060601b03199060601b1660208201525f6034820152036034810184520182610446565b9291905b602090818310618594578451815293810193601f199092019101618575565b929391905080156185b5575f199060031b1c90818351169119905116179052565b505050565b6185c26127d8565b908151156102ff5760209260208301918252825190600191600110156102ff576001600160a01b031660408085019190915280516f5265736f757263654163636573730000661d189ddbdc9b1960ca1b0160208201908152945194959094918501939291905f5b82811061867057505050505091816186506130fa936115059503601f198101835282610446565b5190205f8051602061870483398151915218546001600160f81b03191690565b845186529481019493810193830161862956fefe158a7adba34e256807c8a149028d3162918713c3838afc643ce9f96716ebfd7462554400000000000000000000000053746174730000000000000000000000746255440000000000000000000000004e616d654578697374730000000000008c0b5119d4cec7b284c6b1b39252a03d1e2f2d7451a5895562524c113bb952be86425bff6b57326c7859e89024fe4f238ca327a1ae4a230180dd2f0e88aaa7d98dbb3a9672eebfd3773e72dd9c102393436816d832c7ba9e1e1ac8fcadcac7a93b4102da22e32d82fc925482184f16c09fd4281692720b87d124aef6da48a0f1746255440000000000000000000000004368617261637465724f776e6572000000e60d00202001202020202001010101010000000000000000000000000000007462554400000000000000000000000043686172616374657273000000000000","linkReferences":{}},"methodIdentifiers":{"_msgSender()":"119df25f","_msgValue()":"45ec9354","_world()":"e1af802c","choosePowerSource(bytes32,uint8)":"48b027f3","chooseRace(bytes32,uint8)":"9cca06ef","chooseStartingArmor(bytes32,uint8)":"7c636426","enterGame(bytes32)":"c74dedc8","getAdvancedClass(bytes32)":"0797e03e","getBaseStats(bytes32)":"7163c6ba","getCharacterIdFromOwnerAddress(address)":"06a3432f","getCharacterTokenId(bytes32)":"f8c67561","getClass(bytes32)":"23801570","getCurrentAvailableLevel(uint256)":"1ecb393f","getExperience(bytes32)":"ebee03bb","getName(bytes32)":"54b8d5e3","getOwner(bytes32)":"deb931a2","getOwnerAddress(bytes32)":"00d43ec6","getPlayerEntityId(uint256)":"8338f0e0","getPowerSource(bytes32)":"c75fadf2","getRace(bytes32)":"f70125db","getStartingArmor(bytes32)":"2dfb78cd","getStats(bytes32)":"0bb700dc","getValidAdvancedClass(bytes32)":"bf240995","isValidCharacterId(bytes32)":"623daa05","isValidOwner(bytes32,address)":"9b63ec05","levelCharacter(bytes32,(int256,int256,uint8,int256,int256,int256,uint256,uint256,uint8,uint8,uint8,uint8,bool))":"f59cb863","mintCharacter(address,bytes32,string)":"143f3021","rollBaseStats(bytes32,bytes32)":"aa8659e4","rollStats(bytes32,bytes32,uint8)":"679ee16d","selectAdvancedClass(bytes32,uint8)":"3493289b","setStats(bytes32,(int256,int256,int256,int256,int256,int256))":"09a4fa6e","supportsInterface(bytes4)":"01ffc9a7","updateTokenUri(bytes32,string)":"b27cbcbb"},"id":348}