{"abi":[{"type":"function","name":"_msgSender","inputs":[],"outputs":[{"name":"sender","type":"address","internalType":"address"}],"stateMutability":"view"},{"type":"function","name":"_msgValue","inputs":[],"outputs":[{"name":"value","type":"uint256","internalType":"uint256"}],"stateMutability":"pure"},{"type":"function","name":"_world","inputs":[],"outputs":[{"name":"","type":"address","internalType":"address"}],"stateMutability":"view"},{"type":"function","name":"enterGame","inputs":[{"name":"characterId","type":"bytes32","internalType":"bytes32"}],"outputs":[],"stateMutability":"nonpayable"},{"type":"function","name":"getCharacterTokenId","inputs":[{"name":"characterId","type":"bytes32","internalType":"bytes32"}],"outputs":[{"name":"","type":"uint256","internalType":"uint256"}],"stateMutability":"pure"},{"type":"function","name":"getClass","inputs":[{"name":"characterId","type":"bytes32","internalType":"bytes32"}],"outputs":[{"name":"_class","type":"uint8","internalType":"enum Classes"}],"stateMutability":"view"},{"type":"function","name":"getCurrentAvailableLevel","inputs":[{"name":"experience","type":"uint256","internalType":"uint256"}],"outputs":[{"name":"currentLevel","type":"uint256","internalType":"uint256"}],"stateMutability":"view"},{"type":"function","name":"getExperience","inputs":[{"name":"characterId","type":"bytes32","internalType":"bytes32"}],"outputs":[{"name":"","type":"uint256","internalType":"uint256"}],"stateMutability":"view"},{"type":"function","name":"getName","inputs":[{"name":"characterId","type":"bytes32","internalType":"bytes32"}],"outputs":[{"name":"_name","type":"bytes32","internalType":"bytes32"}],"stateMutability":"view"},{"type":"function","name":"getOwner","inputs":[{"name":"characterId","type":"bytes32","internalType":"bytes32"}],"outputs":[{"name":"","type":"address","internalType":"address"}],"stateMutability":"view"},{"type":"function","name":"getOwnerAddress","inputs":[{"name":"characterId","type":"bytes32","internalType":"bytes32"}],"outputs":[{"name":"","type":"address","internalType":"address"}],"stateMutability":"pure"},{"type":"function","name":"getPlayerEntityId","inputs":[{"name":"characterTokenId","type":"uint256","internalType":"uint256"}],"outputs":[{"name":"characterId","type":"bytes32","internalType":"bytes32"}],"stateMutability":"view"},{"type":"function","name":"getStats","inputs":[{"name":"characterId","type":"bytes32","internalType":"bytes32"}],"outputs":[{"name":"","type":"tuple","internalType":"struct StatsData","components":[{"name":"strength","type":"uint256","internalType":"uint256"},{"name":"agility","type":"uint256","internalType":"uint256"},{"name":"class","type":"uint8","internalType":"enum Classes"},{"name":"intelligence","type":"uint256","internalType":"uint256"},{"name":"baseHitPoints","type":"uint256","internalType":"uint256"},{"name":"currentHp","type":"int256","internalType":"int256"},{"name":"experience","type":"uint256","internalType":"uint256"},{"name":"level","type":"uint256","internalType":"uint256"}]}],"stateMutability":"view"},{"type":"function","name":"isValidCharacterId","inputs":[{"name":"characterId","type":"bytes32","internalType":"bytes32"}],"outputs":[{"name":"","type":"bool","internalType":"bool"}],"stateMutability":"view"},{"type":"function","name":"mintCharacter","inputs":[{"name":"account","type":"address","internalType":"address"},{"name":"name","type":"bytes32","internalType":"bytes32"},{"name":"tokenUri","type":"string","internalType":"string"}],"outputs":[{"name":"characterId","type":"bytes32","internalType":"bytes32"}],"stateMutability":"nonpayable"},{"type":"function","name":"rollStats","inputs":[{"name":"userRandomNumber","type":"bytes32","internalType":"bytes32"},{"name":"characterId","type":"bytes32","internalType":"bytes32"},{"name":"class","type":"uint8","internalType":"enum Classes"}],"outputs":[],"stateMutability":"payable"},{"type":"function","name":"supportsInterface","inputs":[{"name":"interfaceId","type":"bytes4","internalType":"bytes4"}],"outputs":[{"name":"","type":"bool","internalType":"bool"}],"stateMutability":"pure"},{"type":"function","name":"updateTokenUri","inputs":[{"name":"characterId","type":"bytes32","internalType":"bytes32"},{"name":"tokenUri","type":"string","internalType":"string"}],"outputs":[],"stateMutability":"nonpayable"},{"type":"event","name":"Store_SpliceDynamicData","inputs":[{"name":"tableId","type":"bytes32","indexed":true,"internalType":"ResourceId"},{"name":"keyTuple","type":"bytes32[]","indexed":false,"internalType":"bytes32[]"},{"name":"dynamicFieldIndex","type":"uint8","indexed":false,"internalType":"uint8"},{"name":"start","type":"uint48","indexed":false,"internalType":"uint48"},{"name":"deleteCount","type":"uint40","indexed":false,"internalType":"uint40"},{"name":"encodedLengths","type":"bytes32","indexed":false,"internalType":"EncodedLengths"},{"name":"data","type":"bytes","indexed":false,"internalType":"bytes"}],"anonymous":false},{"type":"event","name":"Store_SpliceStaticData","inputs":[{"name":"tableId","type":"bytes32","indexed":true,"internalType":"ResourceId"},{"name":"keyTuple","type":"bytes32[]","indexed":false,"internalType":"bytes32[]"},{"name":"start","type":"uint48","indexed":false,"internalType":"uint48"},{"name":"data","type":"bytes","indexed":false,"internalType":"bytes"}],"anonymous":false},{"type":"error","name":"EncodedLengths_InvalidLength","inputs":[{"name":"length","type":"uint256","internalType":"uint256"}]},{"type":"error","name":"Slice_OutOfBounds","inputs":[{"name":"data","type":"bytes","internalType":"bytes"},{"name":"start","type":"uint256","internalType":"uint256"},{"name":"end","type":"uint256","internalType":"uint256"}]},{"type":"error","name":"Store_IndexOutOfBounds","inputs":[{"name":"length","type":"uint256","internalType":"uint256"},{"name":"accessedIndex","type":"uint256","internalType":"uint256"}]},{"type":"error","name":"Store_InvalidResourceType","inputs":[{"name":"expected","type":"bytes2","internalType":"bytes2"},{"name":"resourceId","type":"bytes32","internalType":"ResourceId"},{"name":"resourceIdString","type":"string","internalType":"string"}]},{"type":"error","name":"Store_InvalidSplice","inputs":[{"name":"startWithinField","type":"uint40","internalType":"uint40"},{"name":"deleteCount","type":"uint40","internalType":"uint40"},{"name":"fieldLength","type":"uint40","internalType":"uint40"}]},{"type":"error","name":"World_AccessDenied","inputs":[{"name":"resource","type":"string","internalType":"string"},{"name":"caller","type":"address","internalType":"address"}]},{"type":"error","name":"World_FunctionSelectorNotFound","inputs":[{"name":"functionSelector","type":"bytes4","internalType":"bytes4"}]},{"type":"error","name":"World_ResourceNotFound","inputs":[{"name":"resourceId","type":"bytes32","internalType":"ResourceId"},{"name":"resourceIdString","type":"string","internalType":"string"}]}],"bytecode":{"object":"0x608060405234801561001057600080fd5b506142b5806100206000396000f3fe6080604052600436106101285760003560e01c8063623daa05116100a5578063c74dedc811610074578063e1af802c11610059578063e1af802c14610345578063ebee03bb1461035a578063f8c675611461037a57600080fd5b8063c74dedc814610305578063deb931a21461032557600080fd5b8063623daa0514610290578063679ee16d146102b05780638338f0e0146102c5578063b27cbcbb146102e557600080fd5b8063143f3021116100fc57806323801570116100e1578063238015701461022b57806345ec93541461025857806354b8d5e31461027057600080fd5b8063143f3021146101dd5780631ecb393f1461020b57600080fd5b8062d43ec61461012d57806301ffc9a71461016b5780630bb700dc1461019b578063119df25f146101c8575b600080fd5b34801561013957600080fd5b5061014e6101483660046138fe565b60601c90565b6040516001600160a01b0390911681526020015b60405180910390f35b34801561017757600080fd5b5061018b610186366004613917565b6103a6565b6040519015158152602001610162565b3480156101a757600080fd5b506101bb6101b63660046138fe565b61043f565b604051610162919061398d565b3480156101d457600080fd5b5061014e610450565b3480156101e957600080fd5b506101fd6101f8366004613ac8565b61045f565b604051908152602001610162565b34801561021757600080fd5b506101fd6102263660046138fe565b6106c1565b34801561023757600080fd5b5061024b6102463660046138fe565b61073f565b6040516101629190613b21565b34801561026457600080fd5b5036601f1901356101fd565b34801561027c57600080fd5b506101fd61028b3660046138fe565b61074a565b34801561029c57600080fd5b5061018b6102ab3660046138fe565b610755565b6102c36102be366004613b34565b610881565b005b3480156102d157600080fd5b506101fd6102e03660046138fe565b6109f9565b3480156102f157600080fd5b506102c3610300366004613b71565b610a8e565b34801561031157600080fd5b506102c36103203660046138fe565b610aff565b34801561033157600080fd5b5061014e6103403660046138fe565b610c3c565b34801561035157600080fd5b5061014e610c47565b34801561036657600080fd5b506101fd6103753660046138fe565b610c51565b34801561038657600080fd5b506101fd6103953660046138fe565b6bffffffffffffffffffffffff1690565b60007fffffffff0000000000000000000000000000000000000000000000000000000082167fb5dee12700000000000000000000000000000000000000000000000000000000148061043957507fffffffff0000000000000000000000000000000000000000000000000000000082167f01ffc9a700000000000000000000000000000000000000000000000000000000145b92915050565b6104476138a8565b61043982610c5c565b600061045a610d0e565b905090565b60008061046a610d40565b90506bffffffffffffffffffffffff81106104f25760405162461bcd60e51b815260206004820152602360248201527f43484152414341544552533a204d61782063686172616374657273207265616360448201527f686564000000000000000000000000000000000000000000000000000000000060648201526084015b60405180910390fd5b6104fa610c47565b6001600160a01b0316633ae7af086105317f4368617261637465727300000000000000000000000000000000000000000000610d73565b6040516001600160a01b03891660248201526044810185905260640160408051601f198184030181529181526020820180517bffffffffffffffffffffffffffffffffffffffffffffffffffffffff167f40c10f1900000000000000000000000000000000000000000000000000000000179052517fffffffff0000000000000000000000000000000000000000000000000000000060e085901b1681526105dd929190600401613c08565b6000604051808303816000875af11580156105fc573d6000803e3d6000fd5b505050506040513d6000823e601f3d908101601f191682016040526106249190810190613c66565b5061062e816109f9565b915061063a8286610dc0565b6106448282610e8f565b61064d84610f0e565b1561069a5760405162461bcd60e51b815260206004820152601360248201527f4e616d6520616c7265616479206578697374730000000000000000000000000060448201526064016104e9565b6106a5846001610fb3565b6106af828561106c565b6106b981846110eb565b509392505050565b60006106cd601361111e565b82106106db57506014919050565b60005b601481101561073957826106f18261111e565b1115801561071057508261070e610709836001613cb1565b61111e565b115b1561072757610720816001613cb1565b9150610739565b8061073181613cc4565b9150506106de565b50919050565b60006104398261119a565b600061043982611244565b6000806107628360601c90565b90506bffffffffffffffffffffffff8316600061077d6112d6565b6001600160a01b0316636352211e836040518263ffffffff1660e01b81526004016107aa91815260200190565b602060405180830381865afa9250505080156107e3575060408051601f3d908101601f191682019092526107e091810190613cde565b60015b15610862576107f06112d6565b6001600160a01b0316636352211e846040518263ffffffff1660e01b815260040161081d91815260200190565b602060405180830381865afa15801561083a573d6000803e3d6000fd5b505050506040513d601f19601f8201168201806040525081019061085e9190613cde565b9150505b826001600160a01b0316816001600160a01b0316149350505050919050565b61088a826112e0565b156108fd5760405162461bcd60e51b815260206004820152602b60248201527f434841524143544552533a2063686172616374657220616c726561647920696e60448201527f2067616d6520776f726c6400000000000000000000000000000000000000000060648201526084016104e9565b61090682611372565b6109525760405162461bcd60e51b815260206004820152601360248201527f4e6f7420796f7572204368617261637465722e0000000000000000000000000060448201526064016104e9565b600061095e838361142e565b6109f284828560405160200161097691815260200190565b60408051601f1981840301815290829052610995939291602401613cfb565b60408051601f198184030181529190526020810180517bffffffffffffffffffffffffffffffffffffffffffffffffffffffff167fb2aa60a400000000000000000000000000000000000000000000000000000000179052611517565b5050505050565b600080610a046112d6565b6001600160a01b0316636352211e846040518263ffffffff1660e01b8152600401610a3191815260200190565b602060405180830381865afa158015610a4e573d6000803e3d6000fd5b505050506040513d601f19601f82011682018060405250810190610a729190613cde565b60601b6bffffffffffffffffffffffff19169290921792915050565b610a9782611372565b610ae35760405162461bcd60e51b815260206004820152601a60248201527f434841524143544552533a204e4f5420415554484f52495a454400000000000060448201526064016104e9565b610afb6bffffffffffffffffffffffff8316826110eb565b5050565b610b0881611372565b610b545760405162461bcd60e51b815260206004820152601260248201527f6e6f7420796f757220636861726163746572000000000000000000000000000060448201526064016104e9565b610b5d816112e0565b15610baa5760405162461bcd60e51b815260206004820152601960248201527f796f75206861766520656e7465726564207468652067616d650000000000000060448201526064016104e9565b610bb58160016115c5565b610bc781674563918244f40000611644565b610bcf610c47565b6001600160a01b031663f9d175ed826040518263ffffffff1660e01b8152600401610bfc91815260200190565b600060405180830381600087803b158015610c1657600080fd5b505af1158015610c2a573d6000803e3d6000fd5b50505050610c398160016116df565b50565b600061043982611763565b600061045a611800565b60006104398261180a565b610c646138a8565b604080516001808252818301909252600091602080830190803683370190505090508281600081518110610c9a57610c9a613d23565b602090810291909101015260008080610cf37f7462554400000000000000000000000053746174730000000000000000000000857ee108002020012020202020000000000000000000000000000000000000000061189c565b925092509250610d0483838361196c565b9695505050505050565b7fffffffffffffffffffffffffffffffffffffffffffffffffffffffffffffffcc36013560601c80610d3d5750335b90565b600080610d4b6119e4565b90506000610d5a826000611a4c565b610d65906001613cb1565b905061043982600083611afd565b60006104397f7379000000000000000000000000000000000000000000000000000000000000837f45524337323153797374656d0000000000000000000000000000000000000000611bcd565b604080516001808252818301909252600091602080830190803683370190505090508281600081518110610df657610df6613d23565b602002602001018181525050610e8a7f746255440000000000000000000000004368617261637465727300000000000060001b82600185604051602001610e55919060609190911b6bffffffffffffffffffffffff1916815260140190565b60408051601f198184030181529190527e55040020142001000000000000000000000000000000000000000000000000611c45565b505050565b604080516001808252818301909252600091602080830190803683370190505090508281600081518110610ec557610ec5613d23565b602002602001018181525050610e8a7f746255440000000000000000000000004368617261637465727300000000000060001b82600085604051602001610e5591815260200190565b604080516001808252818301909252600091829190602080830190803683370190505090508281600081518110610f4757610f47613d23565b60209081029190910101526000610f9f7f746255440000000000000000000000004e616d6545786973747300000000000083837e01010001000000000000000000000000000000000000000000000000000000611cfa565b9050610fab8160f81c90565b949350505050565b604080516001808252818301909252600091602080830190803683370190505090508281600081518110610fe957610fe9613d23565b602002602001018181525050610e8a7f746255440000000000000000000000004e616d6545786973747300000000000060001b8260008560405160200161103791151560f81b815260010190565b60408051601f198184030181529190527e01010001000000000000000000000000000000000000000000000000000000611c45565b6040805160018082528183019092526000916020808301908036833701905050905082816000815181106110a2576110a2613d23565b602002602001018181525050610e8a7f746255440000000000000000000000004368617261637465727300000000000060001b82600285604051602001610e5591815260200190565b610afb6111177f4368617261637465727300000000000000000000000000000000000000000000611db7565b8383611e04565b604080516001808252818301909252600091829190602080830190803683370190505090508260001b8160008151811061115a5761115a613d23565b60209081029190910101526000610fab7f746255440000000000000000000000004c6576656c73000000000000000000008383630100080160dd1b611cfa565b6040805160018082528183019092526000918291906020808301908036833701905050905082816000815181106111d3576111d3613d23565b6020908102919091010152600061122c7f74625544000000000000000000000000537461747300000000000000000000008360027ee1080020200120202020200000000000000000000000000000000000000000611cfa565b905060f881901c6002811115610fab57610fab613959565b60408051600180825281830190925260009182919060208083019080368337019050509050828160008151811061127d5761127d613d23565b60209081029190910101526000610fab7f74625544000000000000000000000000436861726163746572730000000000008360027e55040020142001000000000000000000000000000000000000000000000000611cfa565b600061045a6119e4565b60408051600180825281830190925260009182919060208083019080368337019050509050828160008151811061131957611319613d23565b60209081029190910101526000610f9f7f74625544000000000000000000000000436861726163746572730000000000008360037e55040020142001000000000000000000000000000000000000000000000000611cfa565b600061137c6112d6565b6040517f6352211e0000000000000000000000000000000000000000000000000000000081526bffffffffffffffffffffffff841660048201526001600160a01b039190911690636352211e90602401602060405180830381865afa1580156113e9573d6000803e3d6000fd5b505050506040513d601f19601f8201168201806040525081019061140d9190613cde565b6001600160a01b031661141e610450565b6001600160a01b03161492915050565b60408051600180825281830190925260009160208083019080368337019050509050828160008151811061146457611464613d23565b6020908102919091010152610e8a7f746255440000000000000000000000005374617473000000000000000000000082600285818111156114a7576114a7613959565b6040516020016114e2919060f89190911b7fff0000000000000000000000000000000000000000000000000000000000000016815260010190565b60408051601f198184030181529190527ee1080020200120202020200000000000000000000000000000000000000000611c45565b606060008061152d61152885613d39565b611e56565b91509150816000801b03611593576040517ffdde54e20000000000000000000000000000000000000000000000000000000081527fffffffff000000000000000000000000000000000000000000000000000000006000351660048201526024016104e9565b6020840180517bffffffffffffffffffffffffffffffffffffffffffffffffffffffff1682179052610fab8285611f26565b6040805160018082528183019092526000916020808301908036833701905050905082816000815181106115fb576115fb613d23565b602002602001018181525050610e8a7f746255440000000000000000000000005374617473000000000000000000000060001b826007856040516020016114e291815260200190565b61164c612001565b6001600160a01b03166340c10f1961166384610c3c565b6040517fffffffff0000000000000000000000000000000000000000000000000000000060e084901b1681526001600160a01b03909116600482015260248101849052604401600060405180830381600087803b1580156116c357600080fd5b505af11580156116d7573d6000803e3d6000fd5b505050505050565b60408051600180825281830190925260009160208083019080368337019050509050828160008151811061171557611715613d23565b602002602001018181525050610e8a7f746255440000000000000000000000004368617261637465727300000000000060001b82600385604051602001610e5591151560f81b815260010190565b60408051600180825281830190925260009182919060208083019080368337019050509050828160008151811061179c5761179c613d23565b602090810291909101015260006117f57f74625544000000000000000000000000436861726163746572730000000000008360017e55040020142001000000000000000000000000000000000000000000000000611cfa565b60601c949350505050565b600061045a61200b565b60408051600180825281830190925260009182919060208083019080368337019050509050828160008151811061184357611843613d23565b60209081029190910101526000610fab7f74625544000000000000000000000000537461747300000000000000000000008360067ee1080020200120202020200000000000000000000000000000000000000000611cfa565b60606000606060006118ac61200b565b9050306001600160a01b038216036118d5576118c987878761204a565b93509350935050611963565b6040517f419b58fd0000000000000000000000000000000000000000000000000000000081526001600160a01b0382169063419b58fd9061191e908a908a908a90600401613dc5565b600060405180830381865afa15801561193b573d6000803e3d6000fd5b505050506040513d6000823e601f3d908101601f191682016040526118c99190810190613dee565b93509350939050565b6119746138a8565b61197d84612152565b60e0890181905260c0890182905260a0890183905260808901849052606089018590528860208101604082018860028111156119bb576119bb613959565b60028111156119cc576119cc613959565b90529790975250505093909252509195945050505050565b604080516000808252602082019092526000611a427f74625544000000000000000000000000556c74696d617465446f6d696e696f6e8360027e79070001141414141414000000000000000000000000000000000000000000611cfa565b60601c9392505050565b60408051600280825260608201835260009283929190602083019080368337019050509050836001600160a01b031660001b81600081518110611a9157611a91613d23565b6020026020010181815250508260001b81600181518110611ab457611ab4613d23565b60209081029190910101526000611af47f74625544000000000000000000000000436f756e7465727300000000000000008383630100080160dd1b611cfa565b95945050505050565b604080516002808252606082018352600092602083019080368337019050509050836001600160a01b031660001b81600081518110611b3e57611b3e613d23565b6020026020010181815250508260001b81600181518110611b6157611b61613d23565b602002602001018181525050611bc77f74625544000000000000000000000000436f756e74657273000000000000000060001b82600085604051602001611baa91815260200190565b60408051601f19818403018152919052630100080160dd1b611c45565b50505050565b6000611bdb60706010613cb1565b6fffffffffffffffffffffffffffffffff198316901c601084901c7dffffffffffffffffffffffffffff00000000000000000000000000000000167fffff0000000000000000000000000000000000000000000000000000000000008616171790505b9392505050565b6000611c4f61200b565b9050306001600160a01b03821603611c7357611c6e86868686866121c0565b6116d7565b6040517f390baae00000000000000000000000000000000000000000000000000000000081526001600160a01b0382169063390baae090611cc09089908990899089908990600401613e51565b600060405180830381600087803b158015611cda57600080fd5b505af1158015611cee573d6000803e3d6000fd5b50505050505050505050565b600080611d0561200b565b9050306001600160a01b03821603611d2b57611d23868686866121d5565b915050610fab565b6040517f8c364d590000000000000000000000000000000000000000000000000000000081526001600160a01b03821690638c364d5990611d76908990899089908990600401613e98565b602060405180830381865afa158015611d93573d6000803e3d6000fd5b505050506040513d601f19601f82011682018060405250810190611d239190613ec7565b60006104397f7462000000000000000000000000000000000000000000000000000000000000837f546f6b656e555249000000000000000000000000000000000000000000000000611bcd565b604080516001808252818301909252600091602080830190803683370190505090508260001b81600081518110611e3d57611e3d613d23565b602002602001018181525050611bc78482600085612202565b6040805160018082528183019092526000918291829160208083019080368337019050509050837bffffffffffffffffffffffffffffffffffffffffffffffffffffffff191681600081518110611eaf57611eaf613d23565b602090810291909101015260008080611f087f7462776f726c6400000000000000000046756e6374696f6e53656c6563746f72857e2402002004000000000000000000000000000000000000000000000000000061189c565b925092509250611f198383836122b3565b9550955050505050915091565b60606000611f32611800565b90506001600160a01b0381163003611f73576000611f5a611f51610d0e565b600087876122cb565b9350905080611f6c57611f6c83612406565b5050610439565b6040517f3ae7af080000000000000000000000000000000000000000000000000000000081526001600160a01b03821690633ae7af0890611fba9087908790600401613c08565b6000604051808303816000875af1158015611fd9573d6000803e3d6000fd5b505050506040513d6000823e601f3d908101601f19168201604052610fab9190810190613c66565b600061045a61240e565b7f629a4c26e296b22a8e0856e9f6ecb2d1008d7e00081111962cd175fa7488e175546000906001600160a01b031680612045573391505090565b919050565b606060006060600061205b8561246c565b905061206887878361248f565b93506000612075866124c8565b90508015612147576120878888612505565b935066ffffffffffffff841667ffffffffffffffff8111156120ab576120ab613a03565b6040519080825280601f01601f1916602001820160405280156120d5576020820181803683370190505b5092506020830160005b828160ff1610156121445760006120f78b8b84612518565b90506000612114888460ff166028026038011c64ffffffffff1690565b90506121238260008387612598565b61212d8185613cb1565b93505050808061213c90613ee0565b9150506120df565b50505b505093509350939050565b60008060008060008060008061216c896000016020015190565b60408a015160608b0151919950975060f81c600281111561218f5761218f613959565b60618a015160818b015160a18c015160c18d015160e1909d01519b9d9a9c939b929a91995097509195509350915050565b6109f285856121cf8487612664565b85612695565b6000611af46121e48686612939565b60ff858116601b0360080285901c166121fd8587612664565b61298f565b600061220c61200b565b9050306001600160a01b0382160361222f5761222a858585856129e0565b6109f2565b6040517fef6ea8620000000000000000000000000000000000000000000000000000000081526001600160a01b0382169063ef6ea8629061227a908890889088908890600401613eff565b600060405180830381600087803b15801561229457600080fd5b505af11580156122a8573d6000803e3d6000fd5b505050505050505050565b6000806122bf85612a1b565b90969095509350505050565b600060606000806122db86612a30565b90925090506001600160a01b03821661232c57856122f887612ad4565b6040517ffbf10ce60000000000000000000000000000000000000000000000000000000081526004016104e9929190613c08565b8061233b5761233b8689612c02565b86156123a7577dffffffffffffffffffffffffffff0000000000000000000000000000000086167f6e7300000000000000000000000000000000000000000000000000000000000017600061238f82612c4e565b90506123a48261239f8b84613cb1565b612cc7565b50505b60006123b38760101b90565b7fffffffffffffffffffffffffffff00000000000000000000000000000000000016146123eb576123e688888488612d63565b6123f7565b6123f788888488612ddb565b90999098509650505050505050565b805160208201fd5b604080516000808252602082019092526000611a427f74625544000000000000000000000000556c74696d617465446f6d696e696f6e8360017e79070001141414141414000000000000000000000000000000000000000000611cfa565b6000600861247c60026020613f3e565b6124869190613f51565b9190911c919050565b6060816000036124ae5750604080516020810190915260008152611c3e565b60006124ba8585612939565b9050611af481600085612e3c565b600060086001806124db60026020613f3e565b6124e59190613f3e565b6124ef9190613f3e565b6124f99190613f51565b8260ff911c1692915050565b6000611c3e6125148484612e5f565b5490565b6000838360405160200161252d929190613f68565b604051602081830303815290604052805190602001208260f81b7effffffffffffffffffffffffffffffffffffffffffffffffffffffffffffff19167f3b4102da22e32d82fc925482184f16c09fd4281692720b87d124aef6da48a0f1181860001c90509392505050565b821561261f57602083106125c2576020830484019350602083816125be576125be613fa4565b0692505b821561261f5760208390036000818410156125e55750600019600884021c6125ef565b50600019600882021c5b8554600886021b818451168219821617845250818411612610575050611bc7565b50600194909401939182900391015b5b602082106126415783548152600190930192601f1990910190602001612620565b8115611bc7576000600019600884021c8251865482191691161782525050505050565b600080805b8360ff168110156106b95761268b60ff601b83900360080287901c1683613cb1565b9150600101612669565b7f6f74000000000000000000000000000000000000000000000000000000000000847fffff000000000000000000000000000000000000000000000000000000000000160361271f57837f8c0b5119d4cec7b284c6b1b39252a03d1e2f2d7451a5895562524c113bb952be84848460405161271293929190613fba565b60405180910390a2611bc7565b600061272b8585612939565b9050600061273886612eb5565b905060005b815181101561280d57600082828151811061275a5761275a613d23565b602002602001015190506127866004826affffffffffffffffffffff1916612f3e90919063ffffffff16565b15612804576040517f964f667d000000000000000000000000000000000000000000000000000000008152606082901c9063964f667d906127d1908b908b908b908b90600401613fed565b600060405180830381600087803b1580156127eb57600080fd5b505af11580156127ff573d6000803e3d6000fd5b505050505b5060010161273d565b50857f8c0b5119d4cec7b284c6b1b39252a03d1e2f2d7451a5895562524c113bb952be86868660405161284293929190613fba565b60405180910390a261285d828565ffffffffffff1685612f5c565b60005b815181101561293057600082828151811061287d5761287d613d23565b602002602001015190506128a96008826affffffffffffffffffffff1916612f3e90919063ffffffff16565b15612927576040517fa8ba8721000000000000000000000000000000000000000000000000000000008152606082901c9063a8ba8721906128f4908b908b908b908b90600401613fed565b600060405180830381600087803b15801561290e57600080fd5b505af1158015612922573d6000803e3d6000fd5b505050505b50600101612860565b50505050505050565b6000828260405160200161294e929190613f68565b60408051601f1981840301815291905280516020909101207f86425bff6b57326c7859e89024fe4f238ca327a1ae4a230180dd2f0e88aaa7d9189392505050565b6000602082106129b5576020820484019350602082816129b1576129b1613fa4565b0691505b508254600882021b6020829003808411156106b9576001850154600882021c82179150509392505050565b60006129ec8585612505565b90506000612a09828560ff166028026038011c64ffffffffff1690565b90506116d78686866000858888612f72565b602081015160408201516000905b9050915091565b60408051600180825281830190925260009182918291602080830190803683370190505090508381600081518110612a6a57612a6a613d23565b602090810291909101015260008080612ac37f7462776f726c6400000000000000000053797374656d73000000000000000000857e1502001401000000000000000000000000000000000000000000000000000061204a565b925092509250611f198383836133ac565b606081601081901b6000612ae7836133b8565b9050827fffffffffffffffffffffffffffff000000000000000000000000000000000000831615612b4257612b3d7fffffffffffffffffffffffffffff00000000000000000000000000000000000084166133cf565b612b79565b6040518060400160405280600681526020017f3c726f6f743e00000000000000000000000000000000000000000000000000008152505b6fffffffffffffffffffffffffffffffff19831615612ba057612b9b836133cf565b612bd7565b6040518060400160405280600681526020017f3c726f6f743e00000000000000000000000000000000000000000000000000008152505b604051602001612be993929190614026565b6040516020818303038152906040529350505050919050565b612c0c8282613455565b610afb57612c1982612ad4565b816040517fd787b7370000000000000000000000000000000000000000000000000000000081526004016104e99291906140b4565b604080516001808252818301909252600091829190602080830190803683370190505090508281600081518110612c8757612c87613d23565b60209081029190910101526000610fab7f7462776f726c6400000000000000000042616c616e63657300000000000000008383630100080160dd1b6121d5565b604080516001808252818301909252600091602080830190803683370190505090508281600081518110612cfd57612cfd613d23565b602002602001018181525050610e8a7f7462776f726c6400000000000000000042616c616e636573000000000000000060001b82600085604051602001612d4691815260200190565b60408051601f19818403018152919052630100080160dd1b6121c0565b60006060836001600160a01b03166000612d7e8589896134b3565b604051612d8b91906140df565b60006040518083038185875af1925050503d8060008114612dc8576040519150601f19603f3d011682016040523d82523d6000602084013e612dcd565b606091505b509097909650945050505050565b60006060836001600160a01b0316612df48488886134b3565b604051612e0191906140df565b600060405180830381855af49150503d8060008114612dc8576040519150601f19603f3d011682016040523d82523d6000602084013e612dcd565b60405160208101601f19603f84840101166040528282526106b985858584612598565b60008282604051602001612e74929190613f68565b60408051601f1981840301815291905280516020909101207f14e2fcc58e58e68ec7edc30c8d50dccc3ce2714a623ec81f46b6a63922d76569189392505050565b60408051600180825281830190925260609160009190602080830190803683370190505090508281600081518110612eef57612eef613d23565b60209081029190910101526000612f277f746273746f726500000000000000000053746f7265486f6f6b7300000000000083836134e2565b9050610fab612f39826000845161351c565b6135aa565b60008160ff1682612f4f8560581c90565b1660ff1614905092915050565b610e8a83838351612f6d8560200190565b6135bb565b7f7462000000000000000000000000000000000000000000000000000000000000877fffff0000000000000000000000000000000000000000000000000000000000001614613032577f74620000000000000000000000000000000000000000000000000000000000008788604051602001612ff091815260200190565b60408051601f19818403018152908290527f31b466830000000000000000000000000000000000000000000000000000000082526104e99392916004016140fb565b600061304d828760ff166028026038011c64ffffffffff1690565b9050600083518564ffffffffff16836130669190613f3e565b6130709190613cb1565b9050808214158015613092575081613088868861413c565b64ffffffffff1614155b156130e2576040517fa65010b400000000000000000000000000000000000000000000000000000000815264ffffffffff80881660048301528087166024830152831660448201526064016104e9565b818664ffffffffff161115613133576040517f7e8578d30000000000000000000000000000000000000000000000000000000081526004810183905264ffffffffff871660248201526044016104e9565b600061314084898461367a565b9050600061314d8b612eb5565b905060005b815181101561321857600082828151811061316f5761316f613d23565b6020026020010151905061319b6010826affffffffffffffffffffff1916612f3e90919063ffffffff16565b1561320f57606081901c6001600160a01b03166355eb5a288e8e8e8e8e8d8f6040518863ffffffff1660e01b81526004016131dc9796959493929190614161565b600060405180830381600087803b1580156131f657600080fd5b505af115801561320a573d6000803e3d6000fd5b505050505b50600101613152565b5064ffffffffff881660005b8a60ff168160ff1610156132575761324b878260ff166028026038011c64ffffffffff1690565b90910190600101613224565b508b7ffe158a7adba34e256807c8a149028d3162918713c3838afc643ce9f96716ebfd8c8c848c888d604051613292969594939291906141bf565b60405180910390a2508284146132b35760006132ae8c8c612e5f565b839055505b60006132c08c8c8c612518565b90506132d4818a64ffffffffff1689612f5c565b5060005b815181101561339e5760008282815181106132f5576132f5613d23565b602002602001015190506133216020826affffffffffffffffffffff1916612f3e90919063ffffffff16565b1561339557606081901c6001600160a01b031663635845338e8e8e8e8e8a8f6040518863ffffffff1660e01b81526004016133629796959493929190614161565b600060405180830381600087803b15801561337c57600080fd5b505af1158015613390573d6000803e3d6000fd5b505050505b506001016132d8565b505050505050505050505050565b6000806122bf85613748565b60006133c660706010613cb1565b9190911b919050565b606060005b6010811015613425576fffffffffffffffffffffffffffffffff198316600882021b7fff000000000000000000000000000000000000000000000000000000000000001615613425576001016133d4565b604080516fffffffffffffffffffffffffffffffff19851660208201528151603090910190915281815280610fab565b60006134a37f6e730000000000000000000000000000000000000000000000000000000000007dffffffffffffffffffffffffffff0000000000000000000000000000000085161783613764565b80611c3e5750611c3e8383613764565b60608383836040516020016134ca9392919061421b565b60405160208183030381529060405290509392505050565b6060610fab6134f2858585612518565b6000613517856135028989612505565b9060ff166028026038011c64ffffffffff1690565b612e3c565b60008183118061352c5750835182115b15613569578383836040517f23230fa30000000000000000000000000000000000000000000000000000000081526004016104e99392919061425a565b602084016135778482613cb1565b905060006135858585613f3e565b6fffffffffffffffffffffffffffffffff1660809290921b9190911795945050505050565b60606000611c3e836015600061382d565b821561363557602083106135e5576020830484019350602083816135e1576135e1613fa4565b0692505b82156136355760208390036000600019600885021c1990506008850281811c91508351811c9050811987541682821617875550818411613626575050611bc7565b50600194909401939182900391015b5b602082106136575780518455600190930192601f1990910190602001613636565b8115611bc7576000600019600884021c8554835182191691161785555050505050565b600064ffffffffff8211156136be576040517f7149a3c1000000000000000000000000000000000000000000000000000000008152600481018390526024016104e9565b8366ffffffffffffff811660ff851660280260380182901c64ffffffffff168085106136f057808503820191506136f8565b848103820391505b5064ffffffffff6038602860ff8816020181811b197fffffffffffffffffffffffffffffffffffffffffffffffffff000000000000009490941690921792909216918416901b1790509392505050565b6020810151603482015160609190911c9060009060f81c612a29565b60408051600280825260608201835260009283929190602083019080368337019050509050838160008151811061379d5761379d613d23565b602002602001018181525050826001600160a01b031660001b816001815181106137c9576137c9613d23565b602090810291909101015260006138217f7462776f726c640000000000000000005265736f75726365416363657373000083837e010100010000000000000000000000000000000000000000000000000000006121d5565b9050611af48160f81c90565b6060600061383b8560801c90565b90506fffffffffffffffffffffffffffffffff8516600085828161386157613861613fa4565b04905060405193506020840160208202810160405281855260005b8281101561389c578451871c82529387019360209091019060010161387c565b50505050509392505050565b6040518061010001604052806000815260200160008152602001600060028111156138d5576138d5613959565b815260200160008152602001600081526020016000815260200160008152602001600081525090565b60006020828403121561391057600080fd5b5035919050565b60006020828403121561392957600080fd5b81357fffffffff0000000000000000000000000000000000000000000000000000000081168114611c3e57600080fd5b634e487b7160e01b600052602160045260246000fd5b60038110610c3957634e487b7160e01b600052602160045260246000fd5b815181526020808301519082015260408201516101008201906139af8161396f565b80604084015250606083015160608301526080830151608083015260a083015160a083015260c083015160c083015260e083015160e083015292915050565b6001600160a01b0381168114610c3957600080fd5b634e487b7160e01b600052604160045260246000fd5b604051601f8201601f1916810167ffffffffffffffff81118282101715613a4257613a42613a03565b604052919050565b600067ffffffffffffffff821115613a6457613a64613a03565b50601f01601f191660200190565b600082601f830112613a8357600080fd5b8135613a96613a9182613a4a565b613a19565b818152846020838601011115613aab57600080fd5b816020850160208301376000918101602001919091529392505050565b600080600060608486031215613add57600080fd5b8335613ae8816139ee565b925060208401359150604084013567ffffffffffffffff811115613b0b57600080fd5b613b1786828701613a72565b9150509250925092565b60208101613b2e8361396f565b91905290565b600080600060608486031215613b4957600080fd5b8335925060208401359150604084013560038110613b6657600080fd5b809150509250925092565b60008060408385031215613b8457600080fd5b82359150602083013567ffffffffffffffff811115613ba257600080fd5b613bae85828601613a72565b9150509250929050565b60005b83811015613bd3578181015183820152602001613bbb565b50506000910152565b60008151808452613bf4816020860160208601613bb8565b601f01601f19169290920160200192915050565b828152604060208201526000610fab6040830184613bdc565b600082601f830112613c3257600080fd5b8151613c40613a9182613a4a565b818152846020838601011115613c5557600080fd5b610fab826020830160208701613bb8565b600060208284031215613c7857600080fd5b815167ffffffffffffffff811115613c8f57600080fd5b610fab84828501613c21565b634e487b7160e01b600052601160045260246000fd5b8082018082111561043957610439613c9b565b60006000198203613cd757613cd7613c9b565b5060010190565b600060208284031215613cf057600080fd5b8151611c3e816139ee565b838152613d078361396f565b826020820152606060408201526000611af46060830184613bdc565b634e487b7160e01b600052603260045260246000fd5b6000815160208301517fffffffff0000000000000000000000000000000000000000000000000000000080821693506004831015613d815780818460040360031b1b83161693505b505050919050565b60008151808452602080850194506020840160005b83811015613dba57815187529582019590820190600101613d9e565b509495945050505050565b838152606060208201526000613dde6060830185613d89565b9050826040830152949350505050565b600080600060608486031215613e0357600080fd5b835167ffffffffffffffff80821115613e1b57600080fd5b613e2787838801613c21565b9450602086015193506040860151915080821115613e4457600080fd5b50613b1786828701613c21565b85815260a060208201526000613e6a60a0830187613d89565b60ff861660408401528281036060840152613e858186613bdc565b9150508260808301529695505050505050565b848152608060208201526000613eb16080830186613d89565b60ff949094166040830152506060015292915050565b600060208284031215613ed957600080fd5b5051919050565b600060ff821660ff8103613ef657613ef6613c9b565b60010192915050565b848152608060208201526000613f186080830186613d89565b60ff851660408401528281036060840152613f338185613bdc565b979650505050505050565b8181038181111561043957610439613c9b565b808202811582820484141761043957610439613c9b565b8281526000602080830184516020860160005b82811015613f9757815184529284019290840190600101613f7b565b5091979650505050505050565b634e487b7160e01b600052601260045260246000fd5b606081526000613fcd6060830186613d89565b65ffffffffffff851660208401528281036040840152610d048185613bdc565b8481526080602082015260006140066080830186613d89565b65ffffffffffff851660408401528281036060840152613f338185613bdc565b7fffff0000000000000000000000000000000000000000000000000000000000008416815260007f3a000000000000000000000000000000000000000000000000000000000000008060028401528451614087816003860160208901613bb8565b8084019050816003820152845191506140a7826004830160208801613bb8565b0160040195945050505050565b6040815260006140c76040830185613bdc565b90506001600160a01b03831660208301529392505050565b600082516140f1818460208701613bb8565b9190910192915050565b7fffff00000000000000000000000000000000000000000000000000000000000084168152826020820152606060408201526000611af46060830184613bdc565b64ffffffffff81811683821601908082111561415a5761415a613c9b565b5092915050565b87815260e06020820152600061417a60e0830189613d89565b60ff8816604084015264ffffffffff87811660608501528616608084015260a0830185905282810360c08401526141b18185613bdc565b9a9950505050505050505050565b60c0815260006141d260c0830189613d89565b60ff8816602084015265ffffffffffff8716604084015264ffffffffff8616606084015284608084015282810360a084015261420e8185613bdc565b9998505050505050505050565b6000845161422d818460208901613bb8565b60609490941b6bffffffffffffffffffffffff191691909301908152601481019190915260340192915050565b60608152600061426d6060830186613bdc565b6020830194909452506040015291905056fea2646970667358221220cc2c999bb62d1901c8a36d533ae7900d907ca296c84edf127300cdf207faff5864736f6c63430008180033","linkReferences":{}},"methodIdentifiers":{"_msgSender()":"119df25f","_msgValue()":"45ec9354","_world()":"e1af802c","enterGame(bytes32)":"c74dedc8","getCharacterTokenId(bytes32)":"f8c67561","getClass(bytes32)":"23801570","getCurrentAvailableLevel(uint256)":"1ecb393f","getExperience(bytes32)":"ebee03bb","getName(bytes32)":"54b8d5e3","getOwner(bytes32)":"deb931a2","getOwnerAddress(bytes32)":"00d43ec6","getPlayerEntityId(uint256)":"8338f0e0","getStats(bytes32)":"0bb700dc","isValidCharacterId(bytes32)":"623daa05","mintCharacter(address,bytes32,string)":"143f3021","rollStats(bytes32,bytes32,uint8)":"679ee16d","supportsInterface(bytes4)":"01ffc9a7","updateTokenUri(bytes32,string)":"b27cbcbb"},"id":198}