{"abi":[{"type":"function","name":"_msgSender","inputs":[],"outputs":[{"name":"sender","type":"address","internalType":"address"}],"stateMutability":"view"},{"type":"function","name":"_msgValue","inputs":[],"outputs":[{"name":"value","type":"uint256","internalType":"uint256"}],"stateMutability":"pure"},{"type":"function","name":"_world","inputs":[],"outputs":[{"name":"","type":"address","internalType":"address"}],"stateMutability":"view"},{"type":"function","name":"enterGame","inputs":[{"name":"characterId","type":"bytes32","internalType":"bytes32"}],"outputs":[],"stateMutability":"nonpayable"},{"type":"function","name":"getBaseStats","inputs":[{"name":"characterId","type":"bytes32","internalType":"bytes32"}],"outputs":[{"name":"","type":"tuple","internalType":"struct StatsData","components":[{"name":"strength","type":"int256","internalType":"int256"},{"name":"agility","type":"int256","internalType":"int256"},{"name":"class","type":"uint8","internalType":"enum Classes"},{"name":"intelligence","type":"int256","internalType":"int256"},{"name":"maxHp","type":"int256","internalType":"int256"},{"name":"currentHp","type":"int256","internalType":"int256"},{"name":"experience","type":"uint256","internalType":"uint256"},{"name":"level","type":"uint256","internalType":"uint256"}]}],"stateMutability":"view"},{"type":"function","name":"getCharacterIdFromOwnerAddress","inputs":[{"name":"ownerAddress","type":"address","internalType":"address"}],"outputs":[{"name":"_characterId","type":"bytes32","internalType":"bytes32"}],"stateMutability":"view"},{"type":"function","name":"getCharacterTokenId","inputs":[{"name":"characterId","type":"bytes32","internalType":"bytes32"}],"outputs":[{"name":"","type":"uint256","internalType":"uint256"}],"stateMutability":"pure"},{"type":"function","name":"getClass","inputs":[{"name":"characterId","type":"bytes32","internalType":"bytes32"}],"outputs":[{"name":"_class","type":"uint8","internalType":"enum Classes"}],"stateMutability":"view"},{"type":"function","name":"getCurrentAvailableLevel","inputs":[{"name":"experience","type":"uint256","internalType":"uint256"}],"outputs":[{"name":"currentAvailableLevel","type":"uint256","internalType":"uint256"}],"stateMutability":"view"},{"type":"function","name":"getExperience","inputs":[{"name":"characterId","type":"bytes32","internalType":"bytes32"}],"outputs":[{"name":"","type":"uint256","internalType":"uint256"}],"stateMutability":"view"},{"type":"function","name":"getName","inputs":[{"name":"characterId","type":"bytes32","internalType":"bytes32"}],"outputs":[{"name":"_name","type":"bytes32","internalType":"bytes32"}],"stateMutability":"view"},{"type":"function","name":"getOwner","inputs":[{"name":"characterId","type":"bytes32","internalType":"bytes32"}],"outputs":[{"name":"","type":"address","internalType":"address"}],"stateMutability":"view"},{"type":"function","name":"getOwnerAddress","inputs":[{"name":"characterId","type":"bytes32","internalType":"bytes32"}],"outputs":[{"name":"","type":"address","internalType":"address"}],"stateMutability":"pure"},{"type":"function","name":"getPlayerEntityId","inputs":[{"name":"characterTokenId","type":"uint256","internalType":"uint256"}],"outputs":[{"name":"characterId","type":"bytes32","internalType":"bytes32"}],"stateMutability":"view"},{"type":"function","name":"getStats","inputs":[{"name":"characterId","type":"bytes32","internalType":"bytes32"}],"outputs":[{"name":"","type":"tuple","internalType":"struct StatsData","components":[{"name":"strength","type":"int256","internalType":"int256"},{"name":"agility","type":"int256","internalType":"int256"},{"name":"class","type":"uint8","internalType":"enum Classes"},{"name":"intelligence","type":"int256","internalType":"int256"},{"name":"maxHp","type":"int256","internalType":"int256"},{"name":"currentHp","type":"int256","internalType":"int256"},{"name":"experience","type":"uint256","internalType":"uint256"},{"name":"level","type":"uint256","internalType":"uint256"}]}],"stateMutability":"view"},{"type":"function","name":"isValidCharacterId","inputs":[{"name":"characterId","type":"bytes32","internalType":"bytes32"}],"outputs":[{"name":"","type":"bool","internalType":"bool"}],"stateMutability":"view"},{"type":"function","name":"isValidOwner","inputs":[{"name":"characterId","type":"bytes32","internalType":"bytes32"},{"name":"owner","type":"address","internalType":"address"}],"outputs":[{"name":"","type":"bool","internalType":"bool"}],"stateMutability":"view"},{"type":"function","name":"levelCharacter","inputs":[{"name":"characterId","type":"bytes32","internalType":"bytes32"},{"name":"desiredStats","type":"tuple","internalType":"struct StatsData","components":[{"name":"strength","type":"int256","internalType":"int256"},{"name":"agility","type":"int256","internalType":"int256"},{"name":"class","type":"uint8","internalType":"enum Classes"},{"name":"intelligence","type":"int256","internalType":"int256"},{"name":"maxHp","type":"int256","internalType":"int256"},{"name":"currentHp","type":"int256","internalType":"int256"},{"name":"experience","type":"uint256","internalType":"uint256"},{"name":"level","type":"uint256","internalType":"uint256"}]}],"outputs":[],"stateMutability":"nonpayable"},{"type":"function","name":"mintCharacter","inputs":[{"name":"account","type":"address","internalType":"address"},{"name":"name","type":"bytes32","internalType":"bytes32"},{"name":"tokenUri","type":"string","internalType":"string"}],"outputs":[{"name":"characterId","type":"bytes32","internalType":"bytes32"}],"stateMutability":"nonpayable"},{"type":"function","name":"rollStats","inputs":[{"name":"userRandomNumber","type":"bytes32","internalType":"bytes32"},{"name":"characterId","type":"bytes32","internalType":"bytes32"},{"name":"class","type":"uint8","internalType":"enum Classes"}],"outputs":[],"stateMutability":"payable"},{"type":"function","name":"setStats","inputs":[{"name":"entityId","type":"bytes32","internalType":"bytes32"},{"name":"stats","type":"tuple","internalType":"struct AdjustedCombatStats","components":[{"name":"strength","type":"int256","internalType":"int256"},{"name":"agility","type":"int256","internalType":"int256"},{"name":"intelligence","type":"int256","internalType":"int256"},{"name":"armor","type":"int256","internalType":"int256"},{"name":"maxHp","type":"int256","internalType":"int256"},{"name":"currentHp","type":"int256","internalType":"int256"}]}],"outputs":[],"stateMutability":"nonpayable"},{"type":"function","name":"supportsInterface","inputs":[{"name":"interfaceId","type":"bytes4","internalType":"bytes4"}],"outputs":[{"name":"","type":"bool","internalType":"bool"}],"stateMutability":"pure"},{"type":"function","name":"updateTokenUri","inputs":[{"name":"characterId","type":"bytes32","internalType":"bytes32"},{"name":"tokenUri","type":"string","internalType":"string"}],"outputs":[],"stateMutability":"nonpayable"},{"type":"event","name":"Store_SetRecord","inputs":[{"name":"tableId","type":"bytes32","indexed":true,"internalType":"ResourceId"},{"name":"keyTuple","type":"bytes32[]","indexed":false,"internalType":"bytes32[]"},{"name":"staticData","type":"bytes","indexed":false,"internalType":"bytes"},{"name":"encodedLengths","type":"bytes32","indexed":false,"internalType":"EncodedLengths"},{"name":"dynamicData","type":"bytes","indexed":false,"internalType":"bytes"}],"anonymous":false},{"type":"event","name":"Store_SpliceDynamicData","inputs":[{"name":"tableId","type":"bytes32","indexed":true,"internalType":"ResourceId"},{"name":"keyTuple","type":"bytes32[]","indexed":false,"internalType":"bytes32[]"},{"name":"dynamicFieldIndex","type":"uint8","indexed":false,"internalType":"uint8"},{"name":"start","type":"uint48","indexed":false,"internalType":"uint48"},{"name":"deleteCount","type":"uint40","indexed":false,"internalType":"uint40"},{"name":"encodedLengths","type":"bytes32","indexed":false,"internalType":"EncodedLengths"},{"name":"data","type":"bytes","indexed":false,"internalType":"bytes"}],"anonymous":false},{"type":"event","name":"Store_SpliceStaticData","inputs":[{"name":"tableId","type":"bytes32","indexed":true,"internalType":"ResourceId"},{"name":"keyTuple","type":"bytes32[]","indexed":false,"internalType":"bytes32[]"},{"name":"start","type":"uint48","indexed":false,"internalType":"uint48"},{"name":"data","type":"bytes","indexed":false,"internalType":"bytes"}],"anonymous":false},{"type":"error","name":"EncodedLengths_InvalidLength","inputs":[{"name":"length","type":"uint256","internalType":"uint256"}]},{"type":"error","name":"Slice_OutOfBounds","inputs":[{"name":"data","type":"bytes","internalType":"bytes"},{"name":"start","type":"uint256","internalType":"uint256"},{"name":"end","type":"uint256","internalType":"uint256"}]},{"type":"error","name":"Store_IndexOutOfBounds","inputs":[{"name":"length","type":"uint256","internalType":"uint256"},{"name":"accessedIndex","type":"uint256","internalType":"uint256"}]},{"type":"error","name":"Store_InvalidResourceType","inputs":[{"name":"expected","type":"bytes2","internalType":"bytes2"},{"name":"resourceId","type":"bytes32","internalType":"ResourceId"},{"name":"resourceIdString","type":"string","internalType":"string"}]},{"type":"error","name":"Store_InvalidSplice","inputs":[{"name":"startWithinField","type":"uint40","internalType":"uint40"},{"name":"deleteCount","type":"uint40","internalType":"uint40"},{"name":"fieldLength","type":"uint40","internalType":"uint40"}]},{"type":"error","name":"World_AccessDenied","inputs":[{"name":"resource","type":"string","internalType":"string"},{"name":"caller","type":"address","internalType":"address"}]},{"type":"error","name":"World_FunctionSelectorNotFound","inputs":[{"name":"functionSelector","type":"bytes4","internalType":"bytes4"}]},{"type":"error","name":"World_ResourceNotFound","inputs":[{"name":"resourceId","type":"bytes32","internalType":"ResourceId"},{"name":"resourceIdString","type":"string","internalType":"string"}]}],"bytecode":{"object":"0x608060405234801561001057600080fd5b50615e8080620000216000396000f3fe60806040526004361061017f5760003560e01c806354b8d5e3116100d6578063b27cbcbb1161007f578063e1af802c11610059578063e1af802c1461043c578063ebee03bb14610451578063f8c675611461047157600080fd5b8063b27cbcbb146103dc578063c74dedc8146103fc578063deb931a21461041c57600080fd5b80637163c6ba116100b05780637163c6ba1461037c5780638338f0e01461039c5780639b63ec05146103bc57600080fd5b806354b8d5e314610329578063623daa0514610349578063679ee16d1461036957600080fd5b8063119df25f116101385780631ecb393f116101125780631ecb393f146102c457806323801570146102e457806345ec93541461031157600080fd5b8063119df25f1461026f578063143f3021146102845780631b5cdcc4146102a457600080fd5b806306a3432f1161016957806306a3432f146101f257806309a4fa6e146102205780630bb700dc1461024257600080fd5b8062d43ec61461018457806301ffc9a7146101c2575b600080fd5b34801561019057600080fd5b506101a561019f366004614ffc565b60601c90565b6040516001600160a01b0390911681526020015b60405180910390f35b3480156101ce57600080fd5b506101e26101dd366004615015565b61049d565b60405190151581526020016101b9565b3480156101fe57600080fd5b5061021261020d36600461506f565b610536565b6040519081526020016101b9565b34801561022c57600080fd5b5061024061023b366004615120565b610541565b005b34801561024e57600080fd5b5061026261025d366004614ffc565b61071e565b6040516101b991906151cb565b34801561027b57600080fd5b506101a561072f565b34801561029057600080fd5b5061021261029f3660046152aa565b61073e565b3480156102b057600080fd5b506102406102bf366004615310565b6109bd565b3480156102d057600080fd5b506102126102df366004614ffc565b610e6d565b3480156102f057600080fd5b506103046102ff366004614ffc565b610ef0565b6040516101b991906153aa565b34801561031d57600080fd5b5036601f190135610212565b34801561033557600080fd5b50610212610344366004614ffc565b610efb565b34801561035557600080fd5b506101e2610364366004614ffc565b610f06565b6102406103773660046153bd565b611032565b34801561038857600080fd5b50610262610397366004614ffc565b6111ba565b3480156103a857600080fd5b506102126103b7366004614ffc565b6111de565b3480156103c857600080fd5b506101e26103d73660046153f6565b611273565b3480156103e857600080fd5b506102406103f7366004615426565b61133a565b34801561040857600080fd5b50610240610417366004614ffc565b6113b6565b34801561042857600080fd5b506101a5610437366004614ffc565b6115e4565b34801561044857600080fd5b506101a56115ef565b34801561045d57600080fd5b5061021261046c366004614ffc565b6115f9565b34801561047d57600080fd5b5061021261048c366004614ffc565b6bffffffffffffffffffffffff1690565b60007fffffffff0000000000000000000000000000000000000000000000000000000082167fb5dee12700000000000000000000000000000000000000000000000000000000148061053057507fffffffff0000000000000000000000000000000000000000000000000000000082167f01ffc9a700000000000000000000000000000000000000000000000000000000145b92915050565b600061053082611604565b6105523061054d61072f565b6116aa565b600061055d836116c0565b90506105676115ef565b6001600160a01b031663fa1becc4846040518263ffffffff1660e01b815260040161059491815260200190565b602060405180830381865afa1580156105b1573d6000803e3d6000fd5b505050506040513d601f19601f820116820180604052508101906105d5919061546d565b1561061357815181526020808301519082015260408201516060808301919091526080808401519083015282015161060e908490611772565b61070f565b61061b6115ef565b6001600160a01b031663bace814a846040518263ffffffff1660e01b815260040161064891815260200190565b602060405180830381865afa158015610665573d6000803e3d6000fd5b505050506040513d601f19601f82011682018060405250810190610689919061546d565b156106c257815181526020808301519082015260408201516060808301919091526080808401519083015282015161060e908490611826565b60405162461bcd60e51b815260206004820152600f60248201527f756e7265636f676e697a6564206964000000000000000000000000000000000060448201526064015b60405180910390fd5b61071983826118da565b505050565b610726614fa6565b610530826116c0565b6000610739611983565b905090565b6000806107496119b5565b90506bffffffffffffffffffffffff81106107cc5760405162461bcd60e51b815260206004820152602360248201527f43484152414341544552533a204d61782063686172616374657273207265616360448201527f68656400000000000000000000000000000000000000000000000000000000006064820152608401610706565b6107d46115ef565b6001600160a01b0316633ae7af0861080b7f43686172616374657273000000000000000000000000000000000000000000006119e8565b6040516001600160a01b03891660248201526044810185905260640160408051601f198184030181529181526020820180517bffffffffffffffffffffffffffffffffffffffffffffffffffffffff167f40c10f1900000000000000000000000000000000000000000000000000000000179052517fffffffff0000000000000000000000000000000000000000000000000000000060e085901b1681526108b79291906004016154df565b6000604051808303816000875af11580156108d6573d6000803e3d6000fd5b505050506040513d6000823e601f3d908101601f191682016040526108fe919081019061553d565b50610908816111de565b91506109148286611a35565b61091e8282611aea565b61092f61092961072f565b82611b69565b61094061093a61072f565b83611c29565b61094984611cb4565b156109965760405162461bcd60e51b815260206004820152601360248201527f4e616d6520616c726561647920657869737473000000000000000000000000006044820152606401610706565b6109a1846001611d39565b6109ab8285611dda565b6109b58184611e59565b509392505050565b816109ca816103d761072f565b610a215760405162461bcd60e51b815260206004820152602260248201527f4348415241435445522053595354454d3a20494e56414c4944204f504552415460448201526127a960f11b6064820152608401610706565b610a296115ef565b6001600160a01b03166385fcd3bd846040518263ffffffff1660e01b8152600401610a5691815260200190565b602060405180830381865afa158015610a73573d6000803e3d6000fd5b505050506040513d601f19601f82011682018060405250810190610a97919061546d565b15610ae45760405162461bcd60e51b815260206004820152601660248201527f63616e6e6f74206c6576656c20696e20636f6d626174000000000000000000006044820152606401610706565b6000610aef84611e8c565b806020019051810190610b029190615572565b9050610b0d84611eff565b60a082015260c0810151600090610b2390610e6d565b9050600a8260e0015103610b38575050505050565b81518451600091610b4891615602565b9050600083602001518660200151610b609190615602565b9050600084606001518760600151610b789190615602565b9050600281610b878486615629565b610b919190615629565b14610c045760405162461bcd60e51b815260206004820152602560248201527f4348415241435445522053595354454d3a20494e56414c49442053544154204360448201527f48414e47450000000000000000000000000000000000000000000000000000006064820152608401610706565b610c0f600185615667565b600003610ca5576000610c2189610ef0565b90506000816002811115610c3757610c37615197565b03610c505787518890610c4990615689565b9052610ca3565b6001816002811115610c6457610c64615197565b03610c7857876020018051610c4990615689565b6002816002811115610c8c57610c8c615197565b03610ca357876060018051610ca090615689565b90525b505b84604001516002811115610cbb57610cbb615197565b60ff16158015610cd9575060038560e00151610cd79190615667565b155b15610cf557600385608001818151610cf19190615629565b9052505b600385608001818151610d089190615629565b90525086518552602080880151908601526060808801519086015260e08501805160019190610d389083906156c1565b905250604051610d66908990610d529088906020016151cb565b604051602081830303815290604052611f91565b610dea88610d726115ef565b6001600160a01b031663a543a0c58b6040518263ffffffff1660e01b8152600401610d9f91815260200190565b60c060405180830381865afa158015610dbc573d6000803e3d6000fd5b505050506040513d601f19601f82011682018060405250810190610de091906156d4565b8760e00151611fff565b610df26115ef565b6001600160a01b031663ad54c98b896040518263ffffffff1660e01b8152600401610e1f91815260200190565b60c0604051808303816000875af1158015610e3e573d6000803e3d6000fd5b505050506040513d601f19601f82011682018060405250810190610e6291906156d4565b505050505050505050565b6000610e83610e7e6001600a61572e565b612062565b8210610e915750600a919050565b60005b600a811015610eea5782610ea782612062565b11158015610ec1575082610ebf610e7e8360016156c1565b115b15610ed857610ed18160016156c1565b9150610eea565b80610ee281615741565b915050610e94565b50919050565b6000610530826120de565b600061053082612188565b600080610f138360601c90565b90506bffffffffffffffffffffffff83166000610f2e612205565b6001600160a01b0316636352211e836040518263ffffffff1660e01b8152600401610f5b91815260200190565b602060405180830381865afa925050508015610f94575060408051601f3d908101601f19168201909252610f9191810190615754565b60015b1561101357610fa1612205565b6001600160a01b0316636352211e846040518263ffffffff1660e01b8152600401610fce91815260200190565b602060405180830381865afa158015610feb573d6000803e3d6000fd5b505050506040513d601f19601f8201168201806040525081019061100f9190615754565b9150505b826001600160a01b0316816001600160a01b0316149350505050919050565b8161103f816103d761072f565b6110965760405162461bcd60e51b815260206004820152602260248201527f4348415241435445522053595354454d3a20494e56414c4944204f504552415460448201526127a960f11b6064820152608401610706565b61109f8361220f565b156111125760405162461bcd60e51b815260206004820152602b60248201527f434841524143544552533a2063686172616374657220616c726561647920696e60448201527f2067616d6520776f726c640000000000000000000000000000000000000000006064820152608401610706565b600161111e848461228c565b6111b285828660405160200161113691815260200190565b60408051601f1981840301815290829052611155939291602401615771565b60408051601f198184030181529190526020810180517bffffffffffffffffffffffffffffffffffffffffffffffffffffffff167fb2aa60a400000000000000000000000000000000000000000000000000000000179052612375565b505050505050565b6111c2614fa6565b6111cb82611e8c565b8060200190518101906105309190615572565b6000806111e9612205565b6001600160a01b0316636352211e846040518263ffffffff1660e01b815260040161121691815260200190565b602060405180830381865afa158015611233573d6000803e3d6000fd5b505050506040513d601f19601f820116820180604052508101906112579190615754565b60601b6bffffffffffffffffffffffff19169290921792915050565b600061127e83610f06565b80156113335750816001600160a01b0316611297612205565b6040517f6352211e0000000000000000000000000000000000000000000000000000000081526bffffffffffffffffffffffff861660048201526001600160a01b039190911690636352211e90602401602060405180830381865afa158015611304573d6000803e3d6000fd5b505050506040513d601f19601f820116820180604052508101906113289190615754565b6001600160a01b0316145b9392505050565b81611347816103d761072f565b61139e5760405162461bcd60e51b815260206004820152602260248201527f4348415241435445522053595354454d3a20494e56414c4944204f504552415460448201526127a960f11b6064820152608401610706565b6107196bffffffffffffffffffffffff841683611e59565b806113c3816103d761072f565b61141a5760405162461bcd60e51b815260206004820152602260248201527f4348415241435445522053595354454d3a20494e56414c4944204f504552415460448201526127a960f11b6064820152608401610706565b6114238261220f565b156114705760405162461bcd60e51b815260206004820152601960248201527f796f75206861766520656e7465726564207468652067616d65000000000000006044820152606401610706565b600061147b836116c0565b600160e0820152608081015160a0820152905061149883826118da565b6114a06115ef565b6040517fbcf0229a00000000000000000000000000000000000000000000000000000000815260048101859052674563918244f4000060248201526001600160a01b03919091169063bcf0229a90604401600060405180830381600087803b15801561150b57600080fd5b505af115801561151f573d6000803e3d6000fd5b5050505061152b6115ef565b6001600160a01b031663f9d175ed846040518263ffffffff1660e01b815260040161155891815260200190565b600060405180830381600087803b15801561157257600080fd5b505af1158015611586573d6000803e3d6000fd5b50505050600061159584612423565b600160608201526040519091506000906115b39084906020016151cb565b60408051601f1981840301815291905260a083018190526080830181905290506115dd85836124f5565b5050505050565b6000610530826125ea565b6000610739612672565b60006105308261267c565b60408051600180825281830190925260009182919060208083019080368337019050509050826001600160a01b031660001b8160008151811061164957611649615799565b602090810291909101015260006116a27f746255440000000000000000000000004368617261637465724f776e657200008360017e4002002020000000000000000000000000000000000000000000000000000061270a565b949350505050565b6116bc6116b6836127c7565b8261284c565b5050565b6116c8614fa6565b6040805160018082528183019092526000916020808301908036833701905050905082816000815181106116fe576116fe615799565b6020908102919091010152600080806117577f7462554400000000000000000000000053746174730000000000000000000000857ee1080020200120202020200000000000000000000000000000000000000000612898565b925092509250611768838383612968565b9695505050505050565b6040805160018082528183019092526000916020808301908036833701905050905082816000815181106117a8576117a8615799565b6020026020010181815250506107197f7462554400000000000000000000000043686172616374657245717569706d6560001b826004856040516020016117f191815260200190565b60408051601f198184030181529190527ea00504202020202000000000000000000000000000000000000000000000006129e0565b60408051600180825281830190925260009160208083019080368337019050509050828160008151811061185c5761185c615799565b6020026020010181815250506107197f746255440000000000000000000000004d6f625374617473000000000000000060001b826000856040516020016118a591815260200190565b60408051601f198184030181529190527e200101200000000000000000000000000000000000000000000000000000006129e0565b600061190c826000015183602001518460400151856060015186608001518760a001518860c001518960e00151612a95565b60408051600180825281830190925291925060009160609183919060208083019080368337019050509050858160008151811061194b5761194b615799565b60209081029190910101526111b27f746255440000000000000000000000005374617473000000000000000000000082868686612ad3565b7fffffffffffffffffffffffffffffffffffffffffffffffffffffffffffffffcc36013560601c806119b25750335b90565b6000806119c0612b49565b905060006119cf826000612bb1565b6119da9060016156c1565b905061053082600083612c62565b60006105307f7379000000000000000000000000000000000000000000000000000000000000837f45524337323153797374656d0000000000000000000000000000000000000000612d2c565b604080516001808252818301909252600091602080830190803683370190505090508281600081518110611a6b57611a6b615799565b6020026020010181815250506107197f746255440000000000000000000000004368617261637465727300000000000060001b82600185604051602001611aca919060609190911b6bffffffffffffffffffffffff1916815260140190565b60408051601f19818403018152919052665504022014200160c01b6129e0565b604080516001808252818301909252600091602080830190803683370190505090508281600081518110611b2057611b20615799565b6020026020010181815250506107197f746255440000000000000000000000004368617261637465727300000000000060001b82600085604051602001611aca91815260200190565b60408051600180825281830190925260009160208083019080368337019050509050826001600160a01b031660001b81600081518110611bab57611bab615799565b6020026020010181815250506107197f746255440000000000000000000000004368617261637465724f776e6572000060001b82600085604051602001611bf491815260200190565b60408051601f198184030181529190527e400200202000000000000000000000000000000000000000000000000000006129e0565b60408051600180825281830190925260009160208083019080368337019050509050826001600160a01b031660001b81600081518110611c6b57611c6b615799565b6020026020010181815250506107197f746255440000000000000000000000004368617261637465724f776e6572000060001b82600185604051602001611bf491815260200190565b604080516001808252818301909252600091829190602080830190803683370190505090508281600081518110611ced57611ced615799565b60209081029190910101526000611d2d7f746255440000000000000000000000004e616d654578697374730000000000008383630101000160d81b61270a565b90506116a28160f81c90565b604080516001808252818301909252600091602080830190803683370190505090508281600081518110611d6f57611d6f615799565b6020026020010181815250506107197f746255440000000000000000000000004e616d6545786973747300000000000060001b82600085604051602001611dbd91151560f81b815260010190565b60408051601f19818403018152919052630101000160d81b6129e0565b604080516001808252818301909252600091602080830190803683370190505090508281600081518110611e1057611e10615799565b6020026020010181815250506107197f746255440000000000000000000000004368617261637465727300000000000060001b82600285604051602001611aca91815260200190565b6116bc611e857f4368617261637465727300000000000000000000000000000000000000000000612da3565b8383612df0565b60408051600180825281830190925260609160009190602080830190803683370190505090508281600081518110611ec657611ec6615799565b602090810291909101015260006116a27f7462554400000000000000000000000043686172616374657273000000000000836001612e42565b604080516001808252818301909252600091829190602080830190803683370190505090508281600081518110611f3857611f38615799565b602090810291909101015260006116a27f74625544000000000000000000000000537461747300000000000000000000008360057ee108002020012020202020000000000000000000000000000000000000000061270a565b604080516001808252818301909252600091602080830190803683370190505090508281600081518110611fc757611fc7615799565b60209081029190910101526107197f746255440000000000000000000000004368617261637465727300000000000082600185612f01565b600061200a846116c0565b8351815260208085015190820152604084015160608083019190915260808086018051918401919091525160a083015260e08201849052840151909150612052908590611772565b61205c84826118da565b50505050565b604080516001808252818301909252600091829190602080830190803683370190505090508260001b8160008151811061209e5761209e615799565b602090810291909101015260006116a27f746255440000000000000000000000004c6576656c73000000000000000000008383630100080160dd1b61270a565b60408051600180825281830190925260009182919060208083019080368337019050509050828160008151811061211757612117615799565b602090810291909101015260006121707f74625544000000000000000000000000537461747300000000000000000000008360027ee108002020012020202020000000000000000000000000000000000000000061270a565b905060f881901c60028111156116a2576116a2615197565b6040805160018082528183019092526000918291906020808301908036833701905050905082816000815181106121c1576121c1615799565b602090810291909101015260006116a27f7462554400000000000000000000000043686172616374657273000000000000836002665504022014200160c01b61270a565b6000610739612b49565b60408051600180825281830190925260009182919060208083019080368337019050509050828160008151811061224857612248615799565b60209081029190910101526000611d2d7f7462554400000000000000000000000043686172616374657273000000000000836003665504022014200160c01b61270a565b6040805160018082528183019092526000916020808301908036833701905050905082816000815181106122c2576122c2615799565b60209081029190910101526107197f7462554400000000000000000000000053746174730000000000000000000000826002858181111561230557612305615197565b604051602001612340919060f89190911b7fff0000000000000000000000000000000000000000000000000000000000000016815260010190565b60408051601f198184030181529190527ee10800202001202020202000000000000000000000000000000000000000006129e0565b606060008061238b612386856157af565b612fa7565b91509150816000801b036123f1576040517ffdde54e20000000000000000000000000000000000000000000000000000000081527fffffffff00000000000000000000000000000000000000000000000000000000600035166004820152602401610706565b6020840180517bffffffffffffffffffffffffffffffffffffffffffffffffffffffff16821790526116a28285613077565b61246a6040518060c001604052806000815260200160006001600160a01b031681526020016000801916815260200160001515815260200160608152602001606081525090565b6040805160018082528183019092526000916020808301908036833701905050905082816000815181106124a0576124a0615799565b6020908102919091010152600080806124e47f746255440000000000000000000000004368617261637465727300000000000085665504022014200160c01b612898565b925092509250611768838383613152565b80516020808301516040808501516060808701518351958601969096529290921b6bffffffffffffffffffffffff191683820152605483019190915291151560f81b6074820152815180820360550181526075909101909152600061256283608001518460a001516131d9565b9050600061257884608001518560a001516131f6565b604080516001808252818301909252919250600091906020808301908036833701905050905085816000815181106125b2576125b2615799565b60209081029190910101526111b27f746255440000000000000000000000004368617261637465727300000000000082868686612ad3565b60408051600180825281830190925260009182919060208083019080368337019050509050828160008151811061262357612623615799565b602090810291909101015260006126677f7462554400000000000000000000000043686172616374657273000000000000836001665504022014200160c01b61270a565b60601c949350505050565b6000610739613222565b6040805160018082528183019092526000918291906020808301908036833701905050905082816000815181106126b5576126b5615799565b602090810291909101015260006116a27f74625544000000000000000000000000537461747300000000000000000000008360067ee10800202001202020202000000000000000000000000000000000000000005b600080612715613222565b9050306001600160a01b0382160361273b5761273386868686613261565b9150506116a2565b6040517f8c364d590000000000000000000000000000000000000000000000000000000081526001600160a01b03821690638c364d5990612786908990899089908990600401615837565b602060405180830381865afa1580156127a3573d6000803e3d6000fd5b505050506040513d601f19601f820116820180604052508101906127339190615866565b60408051600180825281830190925260009182919060208083019080368337019050509050826001600160a01b031660001b8160008151811061280c5761280c615799565b602090810291909101015260006116a27f7462776f726c6400000000000000000053797374656d526567697374727900008383630100080160dd1b61270a565b612856828261328e565b6116bc57612863826132ec565b816040517fd787b73700000000000000000000000000000000000000000000000000000000815260040161070692919061587f565b60606000606060006128a8613222565b9050306001600160a01b038216036128d1576128c587878761341a565b9350935093505061295f565b6040517f419b58fd0000000000000000000000000000000000000000000000000000000081526001600160a01b0382169063419b58fd9061291a908a908a908a906004016158aa565b600060405180830381865afa158015612937573d6000803e3d6000fd5b505050506040513d6000823e601f3d908101601f191682016040526128c591908101906158d3565b93509350939050565b612970614fa6565b61297984613522565b60e0890181905260c0890182905260a0890183905260808901849052606089018590528860208101604082018860028111156129b7576129b7615197565b60028111156129c8576129c8615197565b90529790975250505093909252509195945050505050565b60006129ea613222565b9050306001600160a01b03821603612a0e57612a098686868686613590565b6111b2565b6040517f390baae00000000000000000000000000000000000000000000000000000000081526001600160a01b0382169063390baae090612a5b9089908990899089908990600401615936565b600060405180830381600087803b158015612a7557600080fd5b505af1158015612a89573d6000803e3d6000fd5b50505050505050505050565b60608888888888888888604051602001612ab698979695949392919061597d565b604051602081830303815290604052905098975050505050505050565b6000612add613222565b9050306001600160a01b03821603612afc57612a0986868686866135a5565b6040517f298314fb0000000000000000000000000000000000000000000000000000000081526001600160a01b0382169063298314fb90612a5b90899089908990899089906004016159c2565b604080516000808252602082019092526000612ba77f74625544000000000000000000000000556c74696d617465446f6d696e696f6e8360027e9908000114141414141420000000000000000000000000000000000000000061270a565b60601c9392505050565b60408051600280825260608201835260009283929190602083019080368337019050509050836001600160a01b031660001b81600081518110612bf657612bf6615799565b6020026020010181815250508260001b81600181518110612c1957612c19615799565b60209081029190910101526000612c597f74625544000000000000000000000000436f756e7465727300000000000000008383630100080160dd1b61270a565b95945050505050565b604080516002808252606082018352600092602083019080368337019050509050836001600160a01b031660001b81600081518110612ca357612ca3615799565b6020026020010181815250508260001b81600181518110612cc657612cc6615799565b60200260200101818152505061205c7f74625544000000000000000000000000436f756e74657273000000000000000060001b82600085604051602001612d0f91815260200190565b60408051601f19818403018152919052630100080160dd1b6129e0565b6000612d3a607060106156c1565b6fffffffffffffffffffffffffffffffff198316901c601084901c7dffffffffffffffffffffffffffff00000000000000000000000000000000167fffff0000000000000000000000000000000000000000000000000000000000008616171790509392505050565b60006105307f7462000000000000000000000000000000000000000000000000000000000000837f546f6b656e555249000000000000000000000000000000000000000000000000612d2c565b604080516001808252818301909252600091602080830190803683370190505090508260001b81600081518110612e2957612e29615799565b60200260200101818152505061205c8482600085612f01565b60606000612e4e613222565b9050306001600160a01b03821603612e7357612e6b8585856135bb565b915050611333565b6040517f1e7889770000000000000000000000000000000000000000000000000000000081526001600160a01b03821690631e78897790612ebc90889088908890600401615a13565b600060405180830381865afa158015612ed9573d6000803e3d6000fd5b505050506040513d6000823e601f3d908101601f19168201604052612e6b919081019061553d565b6000612f0b613222565b9050306001600160a01b03821603612f2e57612f29858585856135f5565b6115dd565b6040517fef6ea8620000000000000000000000000000000000000000000000000000000081526001600160a01b0382169063ef6ea86290612f79908890889088908890600401615a3f565b600060405180830381600087803b158015612f9357600080fd5b505af1158015610e62573d6000803e3d6000fd5b6040805160018082528183019092526000918291829160208083019080368337019050509050837bffffffffffffffffffffffffffffffffffffffffffffffffffffffff19168160008151811061300057613000615799565b6020908102919091010152600080806130597f7462776f726c6400000000000000000046756e6374696f6e53656c6563746f72857e24020020040000000000000000000000000000000000000000000000000000612898565b92509250925061306a838383613630565b9550955050505050915091565b60606000613083612672565b90506001600160a01b03811630036130c45760006130ab6130a2611983565b60008787613648565b93509050806130bd576130bd83613783565b5050610530565b6040517f3ae7af080000000000000000000000000000000000000000000000000000000081526001600160a01b03821690633ae7af089061310b90879087906004016154df565b6000604051808303816000875af115801561312a573d6000803e3d6000fd5b505050506040513d6000823e601f3d908101601f191682016040526116a2919081019061553d565b6131996040518060c001604052806000815260200160006001600160a01b031681526020016000801916815260200160001515815260200160608152602001606081525090565b6131a28461378b565b1515606085015260408401526001600160a01b0316602083015281526131c883836137cd565b60a083015260808201529392505050565b8151815160009181810160389190911b1760609190911b17611333565b6060828260405160200161320b929190615a7e565b604051602081830303815290604052905092915050565b7f629a4c26e296b22a8e0856e9f6ecb2d1008d7e00081111962cd175fa7488e175546000906001600160a01b03168061325c573391505090565b919050565b6000612c59613270868661381c565b60ff858116601b0360080285901c166132898587613872565b6138a3565b60006132dc7f6e730000000000000000000000000000000000000000000000000000000000007dffffffffffffffffffffffffffff00000000000000000000000000000000851617836138f4565b80611333575061133383836138f4565b606081601081901b60006132ff836139a5565b9050827fffffffffffffffffffffffffffff00000000000000000000000000000000000083161561335a576133557fffffffffffffffffffffffffffff00000000000000000000000000000000000084166139bc565b613391565b6040518060400160405280600681526020017f3c726f6f743e00000000000000000000000000000000000000000000000000008152505b6fffffffffffffffffffffffffffffffff198316156133b8576133b3836139bc565b6133ef565b6040518060400160405280600681526020017f3c726f6f743e00000000000000000000000000000000000000000000000000008152505b60405160200161340193929190615aad565b6040516020818303038152906040529350505050919050565b606060006060600061342b85613a42565b9050613438878783613a65565b9350600061344586613a9e565b90508015613517576134578888613adb565b935066ffffffffffffff841667ffffffffffffffff81111561347b5761347b61508c565b6040519080825280601f01601f1916602001820160405280156134a5576020820181803683370190505b5092506020830160005b828160ff1610156135145760006134c78b8b84613aee565b905060006134e4888460ff166028026038011c64ffffffffff1690565b90506134f38260008387613b6e565b6134fd81856156c1565b93505050808061350c90615b3b565b9150506134af565b50505b505093509350939050565b60008060008060008060008061353c896000016020015190565b60408a015160608b0151919950975060f81c600281111561355f5761355f615197565b60618a015160818b015160a18c015160c18d015160e1909d01519b9d9a9c939b929a91995097509195509350915050565b6115dd858561359f8487613872565b85613c3a565b6115dd85858585856135b68b613ede565b613f63565b60606116a26135cb858585613aee565b60006135f0856135db8989613adb565b9060ff166028026038011c64ffffffffff1690565b61429c565b60006136018585613adb565b9050600061361e828560ff166028026038011c64ffffffffff1690565b90506111b286868660008588886142bf565b60008061363c856146f9565b90969095509350505050565b600060606000806136588661470e565b90925090506001600160a01b0382166136a95785613675876132ec565b6040517ffbf10ce60000000000000000000000000000000000000000000000000000000081526004016107069291906154df565b806136b8576136b886896147b2565b8615613724577dffffffffffffffffffffffffffff0000000000000000000000000000000086167f6e7300000000000000000000000000000000000000000000000000000000000017600061370c826147bc565b90506137218261371c8b846156c1565b614835565b50505b60006137308760101b90565b7fffffffffffffffffffffffffffff000000000000000000000000000000000000161461376857613763888884886148d1565b613774565b61377488888488614949565b90999098509650505050505050565b805160208201fd5b60008060008061379f856000016020015190565b6040860151605487015191955060601c935060748601519092506137c4905b60f81c90565b90509193509193565b6060806000603885901c64ffffffffff166137f16137ec8684846149aa565b614a38565b935090508064ffffffffff606087901c16016138116137ec8684846149aa565b925050509250929050565b60008282604051602001613831929190615b5a565b60408051601f1981840301815291905280516020909101207f86425bff6b57326c7859e89024fe4f238ca327a1ae4a230180dd2f0e88aaa7d9189392505050565b600080805b8360ff168110156109b55761389960ff601b83900360080287901c16836156c1565b9150600101613877565b6000602082106138c9576020820484019350602082816138c5576138c5615651565b0691505b508254600882021b6020829003808411156109b5576001850154600882021c82179150509392505050565b60408051600280825260608201835260009283929190602083019080368337019050509050838160008151811061392d5761392d615799565b602002602001018181525050826001600160a01b031660001b8160018151811061395957613959615799565b602090810291909101015260006139997f7462776f726c640000000000000000005265736f7572636541636365737300008383630101000160d81b61270a565b9050612c598160f81c90565b60006139b3607060106156c1565b9190911b919050565b606060005b6010811015613a12576fffffffffffffffffffffffffffffffff198316600882021b7fff000000000000000000000000000000000000000000000000000000000000001615613a12576001016139c1565b604080516fffffffffffffffffffffffffffffffff198516602082015281516030909101909152818152806116a2565b60006008613a526002602061572e565b613a5c9190615b96565b9190911c919050565b606081600003613a845750604080516020810190915260008152611333565b6000613a90858561381c565b9050612c598160008561429c565b60006008600180613ab16002602061572e565b613abb919061572e565b613ac5919061572e565b613acf9190615b96565b8260ff911c1692915050565b6000611333613aea8484614ab8565b5490565b60008383604051602001613b03929190615b5a565b604051602081830303815290604052805190602001208260f81b7effffffffffffffffffffffffffffffffffffffffffffffffffffffffffffff19167f3b4102da22e32d82fc925482184f16c09fd4281692720b87d124aef6da48a0f1181860001c90509392505050565b8215613bf55760208310613b9857602083048401935060208381613b9457613b94615651565b0692505b8215613bf5576020839003600081841015613bbb5750600019600884021c613bc5565b50600019600882021c5b8554600886021b818451168219821617845250818411613be657505061205c565b50600194909401939182900391015b5b60208210613c175783548152600190930192601f1990910190602001613bf6565b811561205c576000600019600884021c8251865482191691161782525050505050565b7f6f74000000000000000000000000000000000000000000000000000000000000847fffff0000000000000000000000000000000000000000000000000000000000001603613cc457837f8c0b5119d4cec7b284c6b1b39252a03d1e2f2d7451a5895562524c113bb952be848484604051613cb793929190615bad565b60405180910390a261205c565b6000613cd0858561381c565b90506000613cdd86614b0e565b905060005b8151811015613db2576000828281518110613cff57613cff615799565b60200260200101519050613d2b6004826affffffffffffffffffffff1916614b9790919063ffffffff16565b15613da9576040517f964f667d000000000000000000000000000000000000000000000000000000008152606082901c9063964f667d90613d76908b908b908b908b90600401615be0565b600060405180830381600087803b158015613d9057600080fd5b505af1158015613da4573d6000803e3d6000fd5b505050505b50600101613ce2565b50857f8c0b5119d4cec7b284c6b1b39252a03d1e2f2d7451a5895562524c113bb952be868686604051613de793929190615bad565b60405180910390a2613e02828565ffffffffffff1685614bb5565b60005b8151811015613ed5576000828281518110613e2257613e22615799565b60200260200101519050613e4e6008826affffffffffffffffffffff1916614b9790919063ffffffff16565b15613ecc576040517fa8ba8721000000000000000000000000000000000000000000000000000000008152606082901c9063a8ba872190613e99908b908b908b908b90600401615be0565b600060405180830381600087803b158015613eb357600080fd5b505af1158015613ec7573d6000803e3d6000fd5b505050505b50600101613e05565b50505050505050565b60007f8b9d8c8b908d9affffffffffffffffffab9e9d939a8d000000000000000000008201613f2d57507e60030220202000000000000000000000000000000000000000000000000000919050565b610530613f5a7f746273746f72650000000000000000005461626c65730000000000000000000084614bcb565b602060006138a3565b7f6f74000000000000000000000000000000000000000000000000000000000000867fffff0000000000000000000000000000000000000000000000000000000000001603613fef57857f8dbb3a9672eebfd3773e72dd9c102393436816d832c7ba9e1e1ac8fcadcac7a986868686604051613fe29493929190615c19565b60405180910390a26111b2565b6000613ffa87614b0e565b905060005b81518110156140d357600082828151811061401c5761401c615799565b602002602001015190506140486001826affffffffffffffffffffff1916614b9790919063ffffffff16565b156140ca576040517f57066c9c000000000000000000000000000000000000000000000000000000008152606082901c906357066c9c90614097908c908c908c908c908c908c90600401615c58565b600060405180830381600087803b1580156140b157600080fd5b505af11580156140c5573d6000803e3d6000fd5b505050505b50600101613fff565b50867f8dbb3a9672eebfd3773e72dd9c102393436816d832c7ba9e1e1ac8fcadcac7a98787878760405161410a9493929190615c19565b60405180910390a2600061411e888861381c565b90506000602087019050614136826000895184614be7565b600061414185613a9e565b11156141c55760006141538a8a614ab8565b878155905060208601915060008060005b61416d88613a9e565b8160ff1610156141c0576141828d8d83613aee565b925061419d8a8260ff166028026038011c64ffffffffff1690565b91506141ac8360008488614be7565b6141b682866156c1565b9450600101614164565b505050505b60005b8351811015612a895760008482815181106141e5576141e5615799565b602002602001015190506142116002826affffffffffffffffffffff1916614b9790919063ffffffff16565b15614293576040517f5b28cdaf000000000000000000000000000000000000000000000000000000008152606082901c90635b28cdaf90614260908e908e908e908e908e908e90600401615c58565b600060405180830381600087803b15801561427a57600080fd5b505af115801561428e573d6000803e3d6000fd5b505050505b506001016141c8565b60405160208101601f19603f84840101166040528282526109b585858584613b6e565b7f7462000000000000000000000000000000000000000000000000000000000000877fffff000000000000000000000000000000000000000000000000000000000000161461437f577f7462000000000000000000000000000000000000000000000000000000000000878860405160200161433d91815260200190565b60408051601f19818403018152908290527f31b46683000000000000000000000000000000000000000000000000000000008252610706939291600401615cb1565b600061439a828760ff166028026038011c64ffffffffff1690565b9050600083518564ffffffffff16836143b3919061572e565b6143bd91906156c1565b90508082141580156143df5750816143d58688615cf2565b64ffffffffff1614155b1561442f576040517fa65010b400000000000000000000000000000000000000000000000000000000815264ffffffffff8088166004830152808716602483015283166044820152606401610706565b818664ffffffffff161115614480576040517f7e8578d30000000000000000000000000000000000000000000000000000000081526004810183905264ffffffffff87166024820152604401610706565b600061448d848984614ca6565b9050600061449a8b614b0e565b905060005b81518110156145655760008282815181106144bc576144bc615799565b602002602001015190506144e86010826affffffffffffffffffffff1916614b9790919063ffffffff16565b1561455c57606081901c6001600160a01b03166355eb5a288e8e8e8e8e8d8f6040518863ffffffff1660e01b81526004016145299796959493929190615d10565b600060405180830381600087803b15801561454357600080fd5b505af1158015614557573d6000803e3d6000fd5b505050505b5060010161449f565b5064ffffffffff881660005b8a60ff168160ff1610156145a457614598878260ff166028026038011c64ffffffffff1690565b90910190600101614571565b508b7ffe158a7adba34e256807c8a149028d3162918713c3838afc643ce9f96716ebfd8c8c848c888d6040516145df96959493929190615d6e565b60405180910390a2508284146146005760006145fb8c8c614ab8565b839055505b600061460d8c8c8c613aee565b9050614621818a64ffffffffff1689614bb5565b5060005b81518110156146eb57600082828151811061464257614642615799565b6020026020010151905061466e6020826affffffffffffffffffffff1916614b9790919063ffffffff16565b156146e257606081901c6001600160a01b031663635845338e8e8e8e8e8a8f6040518863ffffffff1660e01b81526004016146af9796959493929190615d10565b600060405180830381600087803b1580156146c957600080fd5b505af11580156146dd573d6000803e3d6000fd5b505050505b50600101614625565b505050505050505050505050565b602081015160408201516000905b9050915091565b6040805160018082528183019092526000918291829160208083019080368337019050509050838160008151811061474857614748615799565b6020908102919091010152600080806147a17f7462776f726c6400000000000000000053797374656d73000000000000000000857e1502001401000000000000000000000000000000000000000000000000000061341a565b92509250925061306a838383614d74565b6128568282614d80565b6040805160018082528183019092526000918291906020808301908036833701905050905082816000815181106147f5576147f5615799565b602090810291909101015260006116a27f7462776f726c6400000000000000000042616c616e63657300000000000000008383630100080160dd1b613261565b60408051600180825281830190925260009160208083019080368337019050509050828160008151811061486b5761486b615799565b6020026020010181815250506107197f7462776f726c6400000000000000000042616c616e636573000000000000000060001b826000856040516020016148b491815260200190565b60408051601f19818403018152919052630100080160dd1b613590565b60006060836001600160a01b031660006148ec858989614dde565b6040516148f99190615dca565b60006040518083038185875af1925050503d8060008114614936576040519150601f19603f3d011682016040523d82523d6000602084013e61493b565b606091505b509097909650945050505050565b60006060836001600160a01b0316614962848888614dde565b60405161496f9190615dca565b600060405180830381855af49150503d8060008114614936576040519150601f19603f3d011682016040523d82523d6000602084013e61493b565b6000818311806149ba5750835182115b156149f7578383836040517f23230fa300000000000000000000000000000000000000000000000000000000815260040161070693929190615de6565b60208401614a0584826156c1565b90506000614a13858561572e565b6fffffffffffffffffffffffffffffffff1660809290921b9190911795945050505050565b60606000614a468360801c90565b90506fffffffffffffffffffffffffffffffff83168067ffffffffffffffff811115614a7457614a7461508c565b6040519080825280601f01601f191660200182016040528015614a9e576020820181803683370190505b50925060208301614ab0838284614e0d565b505050919050565b60008282604051602001614acd929190615b5a565b60408051601f1981840301815291905280516020909101207f14e2fcc58e58e68ec7edc30c8d50dccc3ce2714a623ec81f46b6a63922d76569189392505050565b60408051600180825281830190925260609160009190602080830190803683370190505090508281600081518110614b4857614b48615799565b60209081029190910101526000614b807f746273746f726500000000000000000053746f7265486f6f6b7300000000000083836135bb565b90506116a2614b9282600084516149aa565b614e58565b60008160ff1682614ba88560581c90565b1660ff1614905092915050565b61071983838351614bc68560200190565b614be7565b6040805160208101849052908101829052600090606001613831565b8215614c615760208310614c1157602083048401935060208381614c0d57614c0d615651565b0692505b8215614c615760208390036000600019600885021c1990506008850281811c91508351811c9050811987541682821617875550818411614c5257505061205c565b50600194909401939182900391015b5b60208210614c835780518455600190930192601f1990910190602001614c62565b811561205c576000600019600884021c8554835182191691161785555050505050565b600064ffffffffff821115614cea576040517f7149a3c100000000000000000000000000000000000000000000000000000000815260048101839052602401610706565b8366ffffffffffffff811660ff851660280260380182901c64ffffffffff16808510614d1c5780850382019150614d24565b848103820391505b5064ffffffffff6038602860ff8816020181811b197fffffffffffffffffffffffffffffffffffffffffffffffffff000000000000009490941690921792909216918416901b1790509392505050565b60008061363c85614e69565b6000614dce7f6e730000000000000000000000000000000000000000000000000000000000007dffffffffffffffffffffffffffff0000000000000000000000000000000085161783614e86565b8061133357506113338383614e86565b6060838383604051602001614df593929190615e0b565b60405160208183030381529060405290509392505050565b5b60208110614e2d578251825260209283019290910190601f1901614e0e565b80600003614e3a57505050565b6000600019600883021c905080835116811985511617835250505050565b606060006113338360156000614f2b565b6020810151603482015160609190911c90600090614707906137be565b604080516002808252606082018352600092839291906020830190803683370190505090508381600081518110614ebf57614ebf615799565b602002602001018181525050826001600160a01b031660001b81600181518110614eeb57614eeb615799565b602090810291909101015260006139997f7462776f726c640000000000000000005265736f7572636541636365737300008383630101000160d81b613261565b60606000614f398560801c90565b90506fffffffffffffffffffffffffffffffff85166000858281614f5f57614f5f615651565b04905060405193506020840160208202810160405281855260005b82811015614f9a578451871c825293870193602090910190600101614f7a565b50505050509392505050565b604051806101000160405280600081526020016000815260200160006002811115614fd357614fd3615197565b815260200160008152602001600081526020016000815260200160008152602001600081525090565b60006020828403121561500e57600080fd5b5035919050565b60006020828403121561502757600080fd5b81357fffffffff000000000000000000000000000000000000000000000000000000008116811461133357600080fd5b6001600160a01b038116811461506c57600080fd5b50565b60006020828403121561508157600080fd5b813561133381615057565b634e487b7160e01b600052604160045260246000fd5b60405160c0810167ffffffffffffffff811182821017156150c5576150c561508c565b60405290565b604051610100810167ffffffffffffffff811182821017156150c5576150c561508c565b604051601f8201601f1916810167ffffffffffffffff811182821017156151185761511861508c565b604052919050565b60008082840360e081121561513457600080fd5b8335925060c0601f198201121561514a57600080fd5b506151536150a2565b6020840135815260408401356020820152606084013560408201526080840135606082015260a0840135608082015260c084013560a0820152809150509250929050565b634e487b7160e01b600052602160045260246000fd5b6003811061506c57634e487b7160e01b600052602160045260246000fd5b815181526020808301519082015260408201516101008201906151ed816151ad565b80604084015250606083015160608301526080830151608083015260a083015160a083015260c083015160c083015260e083015160e083015292915050565b600067ffffffffffffffff8211156152465761524661508c565b50601f01601f191660200190565b600082601f83011261526557600080fd5b81356152786152738261522c565b6150ef565b81815284602083860101111561528d57600080fd5b816020850160208301376000918101602001919091529392505050565b6000806000606084860312156152bf57600080fd5b83356152ca81615057565b925060208401359150604084013567ffffffffffffffff8111156152ed57600080fd5b6152f986828701615254565b9150509250925092565b6003811061506c57600080fd5b60008082840361012081121561532557600080fd5b8335925061010080601f198301121561533d57600080fd5b6153456150cb565b91506020850135825260408501356020830152606085013561536681615303565b806040840152506080850135606083015260a0850135608083015260c085013560a083015260e085013560c08301528085013560e083015250809150509250929050565b602081016153b7836151ad565b91905290565b6000806000606084860312156153d257600080fd5b833592506020840135915060408401356153eb81615303565b809150509250925092565b6000806040838503121561540957600080fd5b82359150602083013561541b81615057565b809150509250929050565b6000806040838503121561543957600080fd5b82359150602083013567ffffffffffffffff81111561545757600080fd5b61546385828601615254565b9150509250929050565b60006020828403121561547f57600080fd5b8151801515811461133357600080fd5b60005b838110156154aa578181015183820152602001615492565b50506000910152565b600081518084526154cb81602086016020860161548f565b601f01601f19169290920160200192915050565b8281526040602082015260006116a260408301846154b3565b600082601f83011261550957600080fd5b81516155176152738261522c565b81815284602083860101111561552c57600080fd5b6116a282602083016020870161548f565b60006020828403121561554f57600080fd5b815167ffffffffffffffff81111561556657600080fd5b6116a2848285016154f8565b6000610100828403121561558557600080fd5b61558d6150cb565b825181526020830151602082015260408301516155a981615303565b80604083015250606083015160608201526080830151608082015260a083015160a082015260c083015160c082015260e083015160e08201528091505092915050565b634e487b7160e01b600052601160045260246000fd5b8181036000831280158383131683831282161715615622576156226155ec565b5092915050565b8082018281126000831280158216821582161715615649576156496155ec565b505092915050565b634e487b7160e01b600052601260045260246000fd5b60008261568457634e487b7160e01b600052601260045260246000fd5b500690565b60007f7fffffffffffffffffffffffffffffffffffffffffffffffffffffffffffffff82036156ba576156ba6155ec565b5060010190565b80820180821115610530576105306155ec565b600060c082840312156156e657600080fd5b6156ee6150a2565b825181526020830151602082015260408301516040820152606083015160608201526080830151608082015260a083015160a08201528091505092915050565b81810381811115610530576105306155ec565b600060001982036156ba576156ba6155ec565b60006020828403121561576657600080fd5b815161133381615057565b83815261577d836151ad565b826020820152606060408201526000612c5960608301846154b3565b634e487b7160e01b600052603260045260246000fd5b6000815160208301517fffffffff0000000000000000000000000000000000000000000000000000000080821693506004831015614ab05760049290920360031b82901b161692915050565b60008151808452602080850194506020840160005b8381101561582c57815187529582019590820190600101615810565b509495945050505050565b84815260806020820152600061585060808301866157fb565b60ff949094166040830152506060015292915050565b60006020828403121561587857600080fd5b5051919050565b60408152600061589260408301856154b3565b90506001600160a01b03831660208301529392505050565b8381526060602082015260006158c360608301856157fb565b9050826040830152949350505050565b6000806000606084860312156158e857600080fd5b835167ffffffffffffffff8082111561590057600080fd5b61590c878388016154f8565b945060208601519350604086015191508082111561592957600080fd5b506152f9868287016154f8565b85815260a06020820152600061594f60a08301876157fb565b60ff86166040840152828103606084015261596a81866154b3565b9150508260808301529695505050505050565b88815287602082015261598f876151ad565b60f89690961b604087015260418601949094526061850192909252608184015260a183015260c182015260e10192915050565b85815260a0602082015260006159db60a08301876157fb565b82810360408401526159ed81876154b3565b90508460608401528281036080840152615a0781856154b3565b98975050505050505050565b838152606060208201526000615a2c60608301856157fb565b905060ff83166040830152949350505050565b848152608060208201526000615a5860808301866157fb565b60ff851660408401528281036060840152615a7381856154b3565b979650505050505050565b60008351615a9081846020880161548f565b835190830190615aa481836020880161548f565b01949350505050565b7fffff0000000000000000000000000000000000000000000000000000000000008416815260007f3a000000000000000000000000000000000000000000000000000000000000008060028401528451615b0e81600386016020890161548f565b808401905081600382015284519150615b2e82600483016020880161548f565b0160040195945050505050565b600060ff821660ff8103615b5157615b516155ec565b60010192915050565b8281526000602080830184516020860160005b82811015615b8957815184529284019290840190600101615b6d565b5091979650505050505050565b8082028115828204841417610530576105306155ec565b606081526000615bc060608301866157fb565b65ffffffffffff85166020840152828103604084015261176881856154b3565b848152608060208201526000615bf960808301866157fb565b65ffffffffffff851660408401528281036060840152615a7381856154b3565b608081526000615c2c60808301876157fb565b8281036020840152615c3e81876154b3565b90508460408401528281036060840152615a7381856154b3565b86815260c060208201526000615c7160c08301886157fb565b8281036040840152615c8381886154b3565b90508560608401528281036080840152615c9d81866154b3565b9150508260a0830152979650505050505050565b7fffff00000000000000000000000000000000000000000000000000000000000084168152826020820152606060408201526000612c5960608301846154b3565b64ffffffffff818116838216019080821115615622576156226155ec565b87815260e060208201526000615d2960e08301896157fb565b60ff8816604084015264ffffffffff87811660608501528616608084015260a0830185905282810360c0840152615d6081856154b3565b9a9950505050505050505050565b60c081526000615d8160c08301896157fb565b60ff8816602084015265ffffffffffff8716604084015264ffffffffff8616606084015284608084015282810360a0840152615dbd81856154b3565b9998505050505050505050565b60008251615ddc81846020870161548f565b9190910192915050565b606081526000615df960608301866154b3565b60208301949094525060400152919050565b60008451615e1d81846020890161548f565b60609490941b6bffffffffffffffffffffffff19169190930190815260148101919091526034019291505056fea2646970667358221220027ee855d405649647251de69cf0684c9325c134ed5c980f8291ee753bbdac0b64736f6c63430008180033","linkReferences":{}},"methodIdentifiers":{"_msgSender()":"119df25f","_msgValue()":"45ec9354","_world()":"e1af802c","enterGame(bytes32)":"c74dedc8","getBaseStats(bytes32)":"7163c6ba","getCharacterIdFromOwnerAddress(address)":"06a3432f","getCharacterTokenId(bytes32)":"f8c67561","getClass(bytes32)":"23801570","getCurrentAvailableLevel(uint256)":"1ecb393f","getExperience(bytes32)":"ebee03bb","getName(bytes32)":"54b8d5e3","getOwner(bytes32)":"deb931a2","getOwnerAddress(bytes32)":"00d43ec6","getPlayerEntityId(uint256)":"8338f0e0","getStats(bytes32)":"0bb700dc","isValidCharacterId(bytes32)":"623daa05","isValidOwner(bytes32,address)":"9b63ec05","levelCharacter(bytes32,(int256,int256,uint8,int256,int256,int256,uint256,uint256))":"1b5cdcc4","mintCharacter(address,bytes32,string)":"143f3021","rollStats(bytes32,bytes32,uint8)":"679ee16d","setStats(bytes32,(int256,int256,int256,int256,int256,int256))":"09a4fa6e","supportsInterface(bytes4)":"01ffc9a7","updateTokenUri(bytes32,string)":"b27cbcbb"},"id":232}