{"abi":[{"type":"function","name":"_msgSender","inputs":[],"outputs":[{"name":"sender","type":"address","internalType":"address"}],"stateMutability":"view"},{"type":"function","name":"_msgValue","inputs":[],"outputs":[{"name":"value","type":"uint256","internalType":"uint256"}],"stateMutability":"pure"},{"type":"function","name":"_world","inputs":[],"outputs":[{"name":"","type":"address","internalType":"address"}],"stateMutability":"view"},{"type":"function","name":"enterGame","inputs":[{"name":"characterId","type":"bytes32","internalType":"bytes32"}],"outputs":[],"stateMutability":"nonpayable"},{"type":"function","name":"getCharacterTokenId","inputs":[{"name":"characterId","type":"bytes32","internalType":"bytes32"}],"outputs":[{"name":"","type":"uint256","internalType":"uint256"}],"stateMutability":"pure"},{"type":"function","name":"getClass","inputs":[{"name":"characterId","type":"bytes32","internalType":"bytes32"}],"outputs":[{"name":"_class","type":"uint8","internalType":"enum Classes"}],"stateMutability":"view"},{"type":"function","name":"getCurrentLevel","inputs":[{"name":"experience","type":"uint256","internalType":"uint256"}],"outputs":[{"name":"currentLevel","type":"uint256","internalType":"uint256"}],"stateMutability":"view"},{"type":"function","name":"getExperience","inputs":[{"name":"characterId","type":"bytes32","internalType":"bytes32"}],"outputs":[{"name":"","type":"uint256","internalType":"uint256"}],"stateMutability":"view"},{"type":"function","name":"getName","inputs":[{"name":"characterId","type":"bytes32","internalType":"bytes32"}],"outputs":[{"name":"_name","type":"bytes32","internalType":"bytes32"}],"stateMutability":"view"},{"type":"function","name":"getOwner","inputs":[{"name":"characterId","type":"bytes32","internalType":"bytes32"}],"outputs":[{"name":"","type":"address","internalType":"address"}],"stateMutability":"view"},{"type":"function","name":"getOwnerAddress","inputs":[{"name":"characterId","type":"bytes32","internalType":"bytes32"}],"outputs":[{"name":"","type":"address","internalType":"address"}],"stateMutability":"pure"},{"type":"function","name":"getPlayerEntityId","inputs":[{"name":"characterTokenId","type":"uint256","internalType":"uint256"}],"outputs":[{"name":"characterId","type":"bytes32","internalType":"bytes32"}],"stateMutability":"view"},{"type":"function","name":"getStats","inputs":[{"name":"characterId","type":"bytes32","internalType":"bytes32"}],"outputs":[{"name":"","type":"tuple","internalType":"struct StatsData","components":[{"name":"strength","type":"uint256","internalType":"uint256"},{"name":"agility","type":"uint256","internalType":"uint256"},{"name":"class","type":"uint8","internalType":"enum Classes"},{"name":"intelligence","type":"uint256","internalType":"uint256"},{"name":"baseHitPoints","type":"uint256","internalType":"uint256"},{"name":"currentHp","type":"int256","internalType":"int256"},{"name":"experience","type":"uint256","internalType":"uint256"},{"name":"level","type":"uint256","internalType":"uint256"}]}],"stateMutability":"view"},{"type":"function","name":"isValidCharacterId","inputs":[{"name":"characterId","type":"bytes32","internalType":"bytes32"}],"outputs":[{"name":"","type":"bool","internalType":"bool"}],"stateMutability":"view"},{"type":"function","name":"mintCharacter","inputs":[{"name":"account","type":"address","internalType":"address"},{"name":"name","type":"bytes32","internalType":"bytes32"},{"name":"tokenUri","type":"string","internalType":"string"}],"outputs":[{"name":"characterId","type":"bytes32","internalType":"bytes32"}],"stateMutability":"nonpayable"},{"type":"function","name":"rollStats","inputs":[{"name":"userRandomNumber","type":"bytes32","internalType":"bytes32"},{"name":"characterId","type":"bytes32","internalType":"bytes32"},{"name":"class","type":"uint8","internalType":"enum Classes"}],"outputs":[],"stateMutability":"payable"},{"type":"function","name":"supportsInterface","inputs":[{"name":"interfaceId","type":"bytes4","internalType":"bytes4"}],"outputs":[{"name":"","type":"bool","internalType":"bool"}],"stateMutability":"pure"},{"type":"function","name":"updateTokenUri","inputs":[{"name":"characterId","type":"bytes32","internalType":"bytes32"},{"name":"tokenUri","type":"string","internalType":"string"}],"outputs":[],"stateMutability":"nonpayable"},{"type":"event","name":"Store_SpliceDynamicData","inputs":[{"name":"tableId","type":"bytes32","indexed":true,"internalType":"ResourceId"},{"name":"keyTuple","type":"bytes32[]","indexed":false,"internalType":"bytes32[]"},{"name":"dynamicFieldIndex","type":"uint8","indexed":false,"internalType":"uint8"},{"name":"start","type":"uint48","indexed":false,"internalType":"uint48"},{"name":"deleteCount","type":"uint40","indexed":false,"internalType":"uint40"},{"name":"encodedLengths","type":"bytes32","indexed":false,"internalType":"EncodedLengths"},{"name":"data","type":"bytes","indexed":false,"internalType":"bytes"}],"anonymous":false},{"type":"event","name":"Store_SpliceStaticData","inputs":[{"name":"tableId","type":"bytes32","indexed":true,"internalType":"ResourceId"},{"name":"keyTuple","type":"bytes32[]","indexed":false,"internalType":"bytes32[]"},{"name":"start","type":"uint48","indexed":false,"internalType":"uint48"},{"name":"data","type":"bytes","indexed":false,"internalType":"bytes"}],"anonymous":false},{"type":"error","name":"EncodedLengths_InvalidLength","inputs":[{"name":"length","type":"uint256","internalType":"uint256"}]},{"type":"error","name":"Slice_OutOfBounds","inputs":[{"name":"data","type":"bytes","internalType":"bytes"},{"name":"start","type":"uint256","internalType":"uint256"},{"name":"end","type":"uint256","internalType":"uint256"}]},{"type":"error","name":"Store_IndexOutOfBounds","inputs":[{"name":"length","type":"uint256","internalType":"uint256"},{"name":"accessedIndex","type":"uint256","internalType":"uint256"}]},{"type":"error","name":"Store_InvalidResourceType","inputs":[{"name":"expected","type":"bytes2","internalType":"bytes2"},{"name":"resourceId","type":"bytes32","internalType":"ResourceId"},{"name":"resourceIdString","type":"string","internalType":"string"}]},{"type":"error","name":"Store_InvalidSplice","inputs":[{"name":"startWithinField","type":"uint40","internalType":"uint40"},{"name":"deleteCount","type":"uint40","internalType":"uint40"},{"name":"fieldLength","type":"uint40","internalType":"uint40"}]},{"type":"error","name":"World_AccessDenied","inputs":[{"name":"resource","type":"string","internalType":"string"},{"name":"caller","type":"address","internalType":"address"}]},{"type":"error","name":"World_FunctionSelectorNotFound","inputs":[{"name":"functionSelector","type":"bytes4","internalType":"bytes4"}]},{"type":"error","name":"World_ResourceNotFound","inputs":[{"name":"resourceId","type":"bytes32","internalType":"ResourceId"},{"name":"resourceIdString","type":"string","internalType":"string"}]}],"bytecode":{"object":"0x608060405234801561001057600080fd5b5061422b806100206000396000f3fe6080604052600436106101285760003560e01c8063623daa05116100a5578063c74dedc811610074578063e1af802c11610059578063e1af802c14610345578063ebee03bb1461035a578063f8c675611461037a57600080fd5b8063c74dedc814610305578063deb931a21461032557600080fd5b8063623daa0514610290578063679ee16d146102b05780638338f0e0146102c5578063b27cbcbb146102e557600080fd5b8063143f3021116100fc5780633d0854ae116100e15780633d0854ae1461023857806345ec93541461025857806354b8d5e31461027057600080fd5b8063143f3021146101dd578063238015701461020b57600080fd5b8062d43ec61461012d57806301ffc9a71461016b5780630bb700dc1461019b578063119df25f146101c8575b600080fd5b34801561013957600080fd5b5061014e610148366004613874565b60601c90565b6040516001600160a01b0390911681526020015b60405180910390f35b34801561017757600080fd5b5061018b61018636600461388d565b6103a6565b6040519015158152602001610162565b3480156101a757600080fd5b506101bb6101b6366004613874565b61043f565b6040516101629190613903565b3480156101d457600080fd5b5061014e610450565b3480156101e957600080fd5b506101fd6101f8366004613a3e565b61045f565b604051908152602001610162565b34801561021757600080fd5b5061022b610226366004613874565b6106c1565b6040516101629190613a97565b34801561024457600080fd5b506101fd610253366004613874565b6106cc565b34801561026457600080fd5b5036601f1901356101fd565b34801561027c57600080fd5b506101fd61028b366004613874565b61074a565b34801561029c57600080fd5b5061018b6102ab366004613874565b610755565b6102c36102be366004613aaa565b610881565b005b3480156102d157600080fd5b506101fd6102e0366004613874565b6109f9565b3480156102f157600080fd5b506102c3610300366004613ae7565b610a8e565b34801561031157600080fd5b506102c3610320366004613874565b610aff565b34801561033157600080fd5b5061014e610340366004613874565b610c31565b34801561035157600080fd5b5061014e610c3c565b34801561036657600080fd5b506101fd610375366004613874565b610c46565b34801561038657600080fd5b506101fd610395366004613874565b6bffffffffffffffffffffffff1690565b60007fffffffff0000000000000000000000000000000000000000000000000000000082167fb5dee12700000000000000000000000000000000000000000000000000000000148061043957507fffffffff0000000000000000000000000000000000000000000000000000000082167f01ffc9a700000000000000000000000000000000000000000000000000000000145b92915050565b61044761381e565b61043982610c51565b600061045a610d03565b905090565b60008061046a610d35565b90506bffffffffffffffffffffffff81106104f25760405162461bcd60e51b815260206004820152602360248201527f43484152414341544552533a204d61782063686172616374657273207265616360448201527f686564000000000000000000000000000000000000000000000000000000000060648201526084015b60405180910390fd5b6104fa610c3c565b6001600160a01b0316633ae7af086105317f4368617261637465727300000000000000000000000000000000000000000000610d68565b6040516001600160a01b03891660248201526044810185905260640160408051601f198184030181529181526020820180517bffffffffffffffffffffffffffffffffffffffffffffffffffffffff167f40c10f1900000000000000000000000000000000000000000000000000000000179052517fffffffff0000000000000000000000000000000000000000000000000000000060e085901b1681526105dd929190600401613b7e565b6000604051808303816000875af11580156105fc573d6000803e3d6000fd5b505050506040513d6000823e601f3d908101601f191682016040526106249190810190613bdc565b5061062e816109f9565b915061063a8286610db5565b6106448282610e84565b61064d84610f03565b1561069a5760405162461bcd60e51b815260206004820152601360248201527f4e616d6520616c7265616479206578697374730000000000000000000000000060448201526064016104e9565b6106a5846001610fa8565b6106af8285611061565b6106b981846110e0565b509392505050565b600061043982611113565b60006106d860136111bd565b82106106e657506014919050565b60005b601481101561074457826106fc826111bd565b1115801561071b575082610719610714836001613c27565b6111bd565b115b156107325761072b816001613c27565b9150610744565b8061073c81613c3a565b9150506106e9565b50919050565b600061043982611239565b6000806107628360601c90565b90506bffffffffffffffffffffffff8316600061077d6112cb565b6001600160a01b0316636352211e836040518263ffffffff1660e01b81526004016107aa91815260200190565b602060405180830381865afa9250505080156107e3575060408051601f3d908101601f191682019092526107e091810190613c54565b60015b15610862576107f06112cb565b6001600160a01b0316636352211e846040518263ffffffff1660e01b815260040161081d91815260200190565b602060405180830381865afa15801561083a573d6000803e3d6000fd5b505050506040513d601f19601f8201168201806040525081019061085e9190613c54565b9150505b826001600160a01b0316816001600160a01b0316149350505050919050565b61088a826112d5565b156108fd5760405162461bcd60e51b815260206004820152602b60248201527f434841524143544552533a2063686172616374657220616c726561647920696e60448201527f2067616d6520776f726c6400000000000000000000000000000000000000000060648201526084016104e9565b61090682611367565b6109525760405162461bcd60e51b815260206004820152601360248201527f4e6f7420796f7572204368617261637465722e0000000000000000000000000060448201526064016104e9565b600061095e8383611423565b6109f284828560405160200161097691815260200190565b60408051601f1981840301815290829052610995939291602401613c71565b60408051601f198184030181529190526020810180517bffffffffffffffffffffffffffffffffffffffffffffffffffffffff167fb2aa60a40000000000000000000000000000000000000000000000000000000017905261150c565b5050505050565b600080610a046112cb565b6001600160a01b0316636352211e846040518263ffffffff1660e01b8152600401610a3191815260200190565b602060405180830381865afa158015610a4e573d6000803e3d6000fd5b505050506040513d601f19601f82011682018060405250810190610a729190613c54565b60601b6bffffffffffffffffffffffff19169290921792915050565b610a9782611367565b610ae35760405162461bcd60e51b815260206004820152601a60248201527f434841524143544552533a204e4f5420415554484f52495a454400000000000060448201526064016104e9565b610afb6bffffffffffffffffffffffff8316826110e0565b5050565b610b0881611367565b610b545760405162461bcd60e51b815260206004820152601260248201527f6e6f7420796f757220636861726163746572000000000000000000000000000060448201526064016104e9565b610b5d816112d5565b15610baa5760405162461bcd60e51b815260206004820152601960248201527f796f75206861766520656e7465726564207468652067616d650000000000000060448201526064016104e9565b610bbc81674563918244f400006115ba565b610bc4610c3c565b6001600160a01b031663f9d175ed826040518263ffffffff1660e01b8152600401610bf191815260200190565b600060405180830381600087803b158015610c0b57600080fd5b505af1158015610c1f573d6000803e3d6000fd5b50505050610c2e816001611655565b50565b6000610439826116d9565b600061045a611776565b600061043982611780565b610c5961381e565b604080516001808252818301909252600091602080830190803683370190505090508281600081518110610c8f57610c8f613c99565b602090810291909101015260008080610ce87f7462554400000000000000000000000053746174730000000000000000000000857ee1080020200120202020200000000000000000000000000000000000000000611812565b925092509250610cf98383836118e2565b9695505050505050565b7fffffffffffffffffffffffffffffffffffffffffffffffffffffffffffffffcc36013560601c80610d325750335b90565b600080610d4061195a565b90506000610d4f8260006119c2565b610d5a906001613c27565b905061043982600083611a73565b60006104397f7379000000000000000000000000000000000000000000000000000000000000837f45524337323153797374656d0000000000000000000000000000000000000000611b43565b604080516001808252818301909252600091602080830190803683370190505090508281600081518110610deb57610deb613c99565b602002602001018181525050610e7f7f746255440000000000000000000000004368617261637465727300000000000060001b82600185604051602001610e4a919060609190911b6bffffffffffffffffffffffff1916815260140190565b60408051601f198184030181529190527e55040020142001000000000000000000000000000000000000000000000000611bbb565b505050565b604080516001808252818301909252600091602080830190803683370190505090508281600081518110610eba57610eba613c99565b602002602001018181525050610e7f7f746255440000000000000000000000004368617261637465727300000000000060001b82600085604051602001610e4a91815260200190565b604080516001808252818301909252600091829190602080830190803683370190505090508281600081518110610f3c57610f3c613c99565b60209081029190910101526000610f947f746255440000000000000000000000004e616d6545786973747300000000000083837e01010001000000000000000000000000000000000000000000000000000000611c70565b9050610fa08160f81c90565b949350505050565b604080516001808252818301909252600091602080830190803683370190505090508281600081518110610fde57610fde613c99565b602002602001018181525050610e7f7f746255440000000000000000000000004e616d6545786973747300000000000060001b8260008560405160200161102c91151560f81b815260010190565b60408051601f198184030181529190527e01010001000000000000000000000000000000000000000000000000000000611bbb565b60408051600180825281830190925260009160208083019080368337019050509050828160008151811061109757611097613c99565b602002602001018181525050610e7f7f746255440000000000000000000000004368617261637465727300000000000060001b82600285604051602001610e4a91815260200190565b610afb61110c7f4368617261637465727300000000000000000000000000000000000000000000611d2d565b8383611d7a565b60408051600180825281830190925260009182919060208083019080368337019050509050828160008151811061114c5761114c613c99565b602090810291909101015260006111a57f74625544000000000000000000000000537461747300000000000000000000008360027ee1080020200120202020200000000000000000000000000000000000000000611c70565b905060f881901c6002811115610fa057610fa06138cf565b604080516001808252818301909252600091829190602080830190803683370190505090508260001b816000815181106111f9576111f9613c99565b60209081029190910101526000610fa07f746255440000000000000000000000004c6576656c73000000000000000000008383630100080160dd1b611c70565b60408051600180825281830190925260009182919060208083019080368337019050509050828160008151811061127257611272613c99565b60209081029190910101526000610fa07f74625544000000000000000000000000436861726163746572730000000000008360027e55040020142001000000000000000000000000000000000000000000000000611c70565b600061045a61195a565b60408051600180825281830190925260009182919060208083019080368337019050509050828160008151811061130e5761130e613c99565b60209081029190910101526000610f947f74625544000000000000000000000000436861726163746572730000000000008360037e55040020142001000000000000000000000000000000000000000000000000611c70565b60006113716112cb565b6040517f6352211e0000000000000000000000000000000000000000000000000000000081526bffffffffffffffffffffffff841660048201526001600160a01b039190911690636352211e90602401602060405180830381865afa1580156113de573d6000803e3d6000fd5b505050506040513d601f19601f820116820180604052508101906114029190613c54565b6001600160a01b0316611413610450565b6001600160a01b03161492915050565b60408051600180825281830190925260009160208083019080368337019050509050828160008151811061145957611459613c99565b6020908102919091010152610e7f7f7462554400000000000000000000000053746174730000000000000000000000826002858181111561149c5761149c6138cf565b6040516020016114d7919060f89190911b7fff0000000000000000000000000000000000000000000000000000000000000016815260010190565b60408051601f198184030181529190527ee1080020200120202020200000000000000000000000000000000000000000611bbb565b606060008061152261151d85613caf565b611dcc565b91509150816000801b03611588576040517ffdde54e20000000000000000000000000000000000000000000000000000000081527fffffffff000000000000000000000000000000000000000000000000000000006000351660048201526024016104e9565b6020840180517bffffffffffffffffffffffffffffffffffffffffffffffffffffffff1682179052610fa08285611e9c565b6115c2611f77565b6001600160a01b03166340c10f196115d984610c31565b6040517fffffffff0000000000000000000000000000000000000000000000000000000060e084901b1681526001600160a01b03909116600482015260248101849052604401600060405180830381600087803b15801561163957600080fd5b505af115801561164d573d6000803e3d6000fd5b505050505050565b60408051600180825281830190925260009160208083019080368337019050509050828160008151811061168b5761168b613c99565b602002602001018181525050610e7f7f746255440000000000000000000000004368617261637465727300000000000060001b82600385604051602001610e4a91151560f81b815260010190565b60408051600180825281830190925260009182919060208083019080368337019050509050828160008151811061171257611712613c99565b6020908102919091010152600061176b7f74625544000000000000000000000000436861726163746572730000000000008360017e55040020142001000000000000000000000000000000000000000000000000611c70565b60601c949350505050565b600061045a611f81565b6040805160018082528183019092526000918291906020808301908036833701905050905082816000815181106117b9576117b9613c99565b60209081029190910101526000610fa07f74625544000000000000000000000000537461747300000000000000000000008360067ee1080020200120202020200000000000000000000000000000000000000000611c70565b6060600060606000611822611f81565b9050306001600160a01b0382160361184b5761183f878787611fc0565b935093509350506118d9565b6040517f419b58fd0000000000000000000000000000000000000000000000000000000081526001600160a01b0382169063419b58fd90611894908a908a908a90600401613d3b565b600060405180830381865afa1580156118b1573d6000803e3d6000fd5b505050506040513d6000823e601f3d908101601f1916820160405261183f9190810190613d64565b93509350939050565b6118ea61381e565b6118f3846120c8565b60e0890181905260c0890182905260a089018390526080890184905260608901859052886020810160408201886002811115611931576119316138cf565b6002811115611942576119426138cf565b90529790975250505093909252509195945050505050565b6040805160008082526020820190925260006119b87f74625544000000000000000000000000556c74696d617465446f6d696e696f6e8360027e79070001141414141414000000000000000000000000000000000000000000611c70565b60601c9392505050565b60408051600280825260608201835260009283929190602083019080368337019050509050836001600160a01b031660001b81600081518110611a0757611a07613c99565b6020026020010181815250508260001b81600181518110611a2a57611a2a613c99565b60209081029190910101526000611a6a7f74625544000000000000000000000000436f756e7465727300000000000000008383630100080160dd1b611c70565b95945050505050565b604080516002808252606082018352600092602083019080368337019050509050836001600160a01b031660001b81600081518110611ab457611ab4613c99565b6020026020010181815250508260001b81600181518110611ad757611ad7613c99565b602002602001018181525050611b3d7f74625544000000000000000000000000436f756e74657273000000000000000060001b82600085604051602001611b2091815260200190565b60408051601f19818403018152919052630100080160dd1b611bbb565b50505050565b6000611b5160706010613c27565b6fffffffffffffffffffffffffffffffff198316901c601084901c7dffffffffffffffffffffffffffff00000000000000000000000000000000167fffff0000000000000000000000000000000000000000000000000000000000008616171790505b9392505050565b6000611bc5611f81565b9050306001600160a01b03821603611be957611be48686868686612136565b61164d565b6040517f390baae00000000000000000000000000000000000000000000000000000000081526001600160a01b0382169063390baae090611c369089908990899089908990600401613dc7565b600060405180830381600087803b158015611c5057600080fd5b505af1158015611c64573d6000803e3d6000fd5b50505050505050505050565b600080611c7b611f81565b9050306001600160a01b03821603611ca157611c998686868661214b565b915050610fa0565b6040517f8c364d590000000000000000000000000000000000000000000000000000000081526001600160a01b03821690638c364d5990611cec908990899089908990600401613e0e565b602060405180830381865afa158015611d09573d6000803e3d6000fd5b505050506040513d601f19601f82011682018060405250810190611c999190613e3d565b60006104397f7462000000000000000000000000000000000000000000000000000000000000837f546f6b656e555249000000000000000000000000000000000000000000000000611b43565b604080516001808252818301909252600091602080830190803683370190505090508260001b81600081518110611db357611db3613c99565b602002602001018181525050611b3d8482600085612178565b6040805160018082528183019092526000918291829160208083019080368337019050509050837bffffffffffffffffffffffffffffffffffffffffffffffffffffffff191681600081518110611e2557611e25613c99565b602090810291909101015260008080611e7e7f7462776f726c6400000000000000000046756e6374696f6e53656c6563746f72857e24020020040000000000000000000000000000000000000000000000000000611812565b925092509250611e8f838383612229565b9550955050505050915091565b60606000611ea8611776565b90506001600160a01b0381163003611ee9576000611ed0611ec7610d03565b60008787612241565b9350905080611ee257611ee28361237c565b5050610439565b6040517f3ae7af080000000000000000000000000000000000000000000000000000000081526001600160a01b03821690633ae7af0890611f309087908790600401613b7e565b6000604051808303816000875af1158015611f4f573d6000803e3d6000fd5b505050506040513d6000823e601f3d908101601f19168201604052610fa09190810190613bdc565b600061045a612384565b7f629a4c26e296b22a8e0856e9f6ecb2d1008d7e00081111962cd175fa7488e175546000906001600160a01b031680611fbb573391505090565b919050565b6060600060606000611fd1856123e2565b9050611fde878783612405565b93506000611feb8661243e565b905080156120bd57611ffd888861247b565b935066ffffffffffffff841667ffffffffffffffff81111561202157612021613979565b6040519080825280601f01601f19166020018201604052801561204b576020820181803683370190505b5092506020830160005b828160ff1610156120ba57600061206d8b8b8461248e565b9050600061208a888460ff166028026038011c64ffffffffff1690565b9050612099826000838761250e565b6120a38185613c27565b9350505080806120b290613e56565b915050612055565b50505b505093509350939050565b6000806000806000806000806120e2896000016020015190565b60408a015160608b0151919950975060f81c6002811115612105576121056138cf565b60618a015160818b015160a18c015160c18d015160e1909d01519b9d9a9c939b929a91995097509195509350915050565b6109f2858561214584876125da565b8561260b565b6000611a6a61215a86866128af565b60ff858116601b0360080285901c1661217385876125da565b612905565b6000612182611f81565b9050306001600160a01b038216036121a5576121a085858585612956565b6109f2565b6040517fef6ea8620000000000000000000000000000000000000000000000000000000081526001600160a01b0382169063ef6ea862906121f0908890889088908890600401613e75565b600060405180830381600087803b15801561220a57600080fd5b505af115801561221e573d6000803e3d6000fd5b505050505050505050565b60008061223585612991565b90969095509350505050565b60006060600080612251866129a6565b90925090506001600160a01b0382166122a2578561226e87612a4a565b6040517ffbf10ce60000000000000000000000000000000000000000000000000000000081526004016104e9929190613b7e565b806122b1576122b18689612b78565b861561231d577dffffffffffffffffffffffffffff0000000000000000000000000000000086167f6e7300000000000000000000000000000000000000000000000000000000000017600061230582612bc4565b905061231a826123158b84613c27565b612c3d565b50505b60006123298760101b90565b7fffffffffffffffffffffffffffff00000000000000000000000000000000000016146123615761235c88888488612cd9565b61236d565b61236d88888488612d51565b90999098509650505050505050565b805160208201fd5b6040805160008082526020820190925260006119b87f74625544000000000000000000000000556c74696d617465446f6d696e696f6e8360017e79070001141414141414000000000000000000000000000000000000000000611c70565b600060086123f260026020613eb4565b6123fc9190613ec7565b9190911c919050565b6060816000036124245750604080516020810190915260008152611bb4565b600061243085856128af565b9050611a6a81600085612db2565b6000600860018061245160026020613eb4565b61245b9190613eb4565b6124659190613eb4565b61246f9190613ec7565b8260ff911c1692915050565b6000611bb461248a8484612dd5565b5490565b600083836040516020016124a3929190613ede565b604051602081830303815290604052805190602001208260f81b7effffffffffffffffffffffffffffffffffffffffffffffffffffffffffffff19167f3b4102da22e32d82fc925482184f16c09fd4281692720b87d124aef6da48a0f1181860001c90509392505050565b821561259557602083106125385760208304840193506020838161253457612534613f1a565b0692505b821561259557602083900360008184101561255b5750600019600884021c612565565b50600019600882021c5b8554600886021b818451168219821617845250818411612586575050611b3d565b50600194909401939182900391015b5b602082106125b75783548152600190930192601f1990910190602001612596565b8115611b3d576000600019600884021c8251865482191691161782525050505050565b600080805b8360ff168110156106b95761260160ff601b83900360080287901c1683613c27565b91506001016125df565b7f6f74000000000000000000000000000000000000000000000000000000000000847fffff000000000000000000000000000000000000000000000000000000000000160361269557837f8c0b5119d4cec7b284c6b1b39252a03d1e2f2d7451a5895562524c113bb952be84848460405161268893929190613f30565b60405180910390a2611b3d565b60006126a185856128af565b905060006126ae86612e2b565b905060005b81518110156127835760008282815181106126d0576126d0613c99565b602002602001015190506126fc6004826affffffffffffffffffffff1916612eb490919063ffffffff16565b1561277a576040517f964f667d000000000000000000000000000000000000000000000000000000008152606082901c9063964f667d90612747908b908b908b908b90600401613f63565b600060405180830381600087803b15801561276157600080fd5b505af1158015612775573d6000803e3d6000fd5b505050505b506001016126b3565b50857f8c0b5119d4cec7b284c6b1b39252a03d1e2f2d7451a5895562524c113bb952be8686866040516127b893929190613f30565b60405180910390a26127d3828565ffffffffffff1685612ed2565b60005b81518110156128a65760008282815181106127f3576127f3613c99565b6020026020010151905061281f6008826affffffffffffffffffffff1916612eb490919063ffffffff16565b1561289d576040517fa8ba8721000000000000000000000000000000000000000000000000000000008152606082901c9063a8ba87219061286a908b908b908b908b90600401613f63565b600060405180830381600087803b15801561288457600080fd5b505af1158015612898573d6000803e3d6000fd5b505050505b506001016127d6565b50505050505050565b600082826040516020016128c4929190613ede565b60408051601f1981840301815291905280516020909101207f86425bff6b57326c7859e89024fe4f238ca327a1ae4a230180dd2f0e88aaa7d9189392505050565b60006020821061292b5760208204840193506020828161292757612927613f1a565b0691505b508254600882021b6020829003808411156106b9576001850154600882021c82179150509392505050565b6000612962858561247b565b9050600061297f828560ff166028026038011c64ffffffffff1690565b905061164d8686866000858888612ee8565b602081015160408201516000905b9050915091565b604080516001808252818301909252600091829182916020808301908036833701905050905083816000815181106129e0576129e0613c99565b602090810291909101015260008080612a397f7462776f726c6400000000000000000053797374656d73000000000000000000857e15020014010000000000000000000000000000000000000000000000000000611fc0565b925092509250611e8f838383613322565b606081601081901b6000612a5d8361332e565b9050827fffffffffffffffffffffffffffff000000000000000000000000000000000000831615612ab857612ab37fffffffffffffffffffffffffffff0000000000000000000000000000000000008416613345565b612aef565b6040518060400160405280600681526020017f3c726f6f743e00000000000000000000000000000000000000000000000000008152505b6fffffffffffffffffffffffffffffffff19831615612b1657612b1183613345565b612b4d565b6040518060400160405280600681526020017f3c726f6f743e00000000000000000000000000000000000000000000000000008152505b604051602001612b5f93929190613f9c565b6040516020818303038152906040529350505050919050565b612b8282826133cb565b610afb57612b8f82612a4a565b816040517fd787b7370000000000000000000000000000000000000000000000000000000081526004016104e992919061402a565b604080516001808252818301909252600091829190602080830190803683370190505090508281600081518110612bfd57612bfd613c99565b60209081029190910101526000610fa07f7462776f726c6400000000000000000042616c616e63657300000000000000008383630100080160dd1b61214b565b604080516001808252818301909252600091602080830190803683370190505090508281600081518110612c7357612c73613c99565b602002602001018181525050610e7f7f7462776f726c6400000000000000000042616c616e636573000000000000000060001b82600085604051602001612cbc91815260200190565b60408051601f19818403018152919052630100080160dd1b612136565b60006060836001600160a01b03166000612cf4858989613429565b604051612d019190614055565b60006040518083038185875af1925050503d8060008114612d3e576040519150601f19603f3d011682016040523d82523d6000602084013e612d43565b606091505b509097909650945050505050565b60006060836001600160a01b0316612d6a848888613429565b604051612d779190614055565b600060405180830381855af49150503d8060008114612d3e576040519150601f19603f3d011682016040523d82523d6000602084013e612d43565b60405160208101601f19603f84840101166040528282526106b98585858461250e565b60008282604051602001612dea929190613ede565b60408051601f1981840301815291905280516020909101207f14e2fcc58e58e68ec7edc30c8d50dccc3ce2714a623ec81f46b6a63922d76569189392505050565b60408051600180825281830190925260609160009190602080830190803683370190505090508281600081518110612e6557612e65613c99565b60209081029190910101526000612e9d7f746273746f726500000000000000000053746f7265486f6f6b730000000000008383613458565b9050610fa0612eaf8260008451613492565b613520565b60008160ff1682612ec58560581c90565b1660ff1614905092915050565b610e7f83838351612ee38560200190565b613531565b7f7462000000000000000000000000000000000000000000000000000000000000877fffff0000000000000000000000000000000000000000000000000000000000001614612fa8577f74620000000000000000000000000000000000000000000000000000000000008788604051602001612f6691815260200190565b60408051601f19818403018152908290527f31b466830000000000000000000000000000000000000000000000000000000082526104e9939291600401614071565b6000612fc3828760ff166028026038011c64ffffffffff1690565b9050600083518564ffffffffff1683612fdc9190613eb4565b612fe69190613c27565b9050808214158015613008575081612ffe86886140b2565b64ffffffffff1614155b15613058576040517fa65010b400000000000000000000000000000000000000000000000000000000815264ffffffffff80881660048301528087166024830152831660448201526064016104e9565b818664ffffffffff1611156130a9576040517f7e8578d30000000000000000000000000000000000000000000000000000000081526004810183905264ffffffffff871660248201526044016104e9565b60006130b68489846135f0565b905060006130c38b612e2b565b905060005b815181101561318e5760008282815181106130e5576130e5613c99565b602002602001015190506131116010826affffffffffffffffffffff1916612eb490919063ffffffff16565b1561318557606081901c6001600160a01b03166355eb5a288e8e8e8e8e8d8f6040518863ffffffff1660e01b815260040161315297969594939291906140d7565b600060405180830381600087803b15801561316c57600080fd5b505af1158015613180573d6000803e3d6000fd5b505050505b506001016130c8565b5064ffffffffff881660005b8a60ff168160ff1610156131cd576131c1878260ff166028026038011c64ffffffffff1690565b9091019060010161319a565b508b7ffe158a7adba34e256807c8a149028d3162918713c3838afc643ce9f96716ebfd8c8c848c888d60405161320896959493929190614135565b60405180910390a2508284146132295760006132248c8c612dd5565b839055505b60006132368c8c8c61248e565b905061324a818a64ffffffffff1689612ed2565b5060005b815181101561331457600082828151811061326b5761326b613c99565b602002602001015190506132976020826affffffffffffffffffffff1916612eb490919063ffffffff16565b1561330b57606081901c6001600160a01b031663635845338e8e8e8e8e8a8f6040518863ffffffff1660e01b81526004016132d897969594939291906140d7565b600060405180830381600087803b1580156132f257600080fd5b505af1158015613306573d6000803e3d6000fd5b505050505b5060010161324e565b505050505050505050505050565b600080612235856136be565b600061333c60706010613c27565b9190911b919050565b606060005b601081101561339b576fffffffffffffffffffffffffffffffff198316600882021b7fff00000000000000000000000000000000000000000000000000000000000000161561339b5760010161334a565b604080516fffffffffffffffffffffffffffffffff19851660208201528151603090910190915281815280610fa0565b60006134197f6e730000000000000000000000000000000000000000000000000000000000007dffffffffffffffffffffffffffff00000000000000000000000000000000851617836136da565b80611bb45750611bb483836136da565b606083838360405160200161344093929190614191565b60405160208183030381529060405290509392505050565b6060610fa061346885858561248e565b600061348d85613478898961247b565b9060ff166028026038011c64ffffffffff1690565b612db2565b6000818311806134a25750835182115b156134df578383836040517f23230fa30000000000000000000000000000000000000000000000000000000081526004016104e9939291906141d0565b602084016134ed8482613c27565b905060006134fb8585613eb4565b6fffffffffffffffffffffffffffffffff1660809290921b9190911795945050505050565b60606000611bb483601560006137a3565b82156135ab576020831061355b5760208304840193506020838161355757613557613f1a565b0692505b82156135ab5760208390036000600019600885021c1990506008850281811c91508351811c905081198754168282161787555081841161359c575050611b3d565b50600194909401939182900391015b5b602082106135cd5780518455600190930192601f19909101906020016135ac565b8115611b3d576000600019600884021c8554835182191691161785555050505050565b600064ffffffffff821115613634576040517f7149a3c1000000000000000000000000000000000000000000000000000000008152600481018390526024016104e9565b8366ffffffffffffff811660ff851660280260380182901c64ffffffffff16808510613666578085038201915061366e565b848103820391505b5064ffffffffff6038602860ff8816020181811b197fffffffffffffffffffffffffffffffffffffffffffffffffff000000000000009490941690921792909216918416901b1790509392505050565b6020810151603482015160609190911c9060009060f81c61299f565b60408051600280825260608201835260009283929190602083019080368337019050509050838160008151811061371357613713613c99565b602002602001018181525050826001600160a01b031660001b8160018151811061373f5761373f613c99565b602090810291909101015260006137977f7462776f726c640000000000000000005265736f75726365416363657373000083837e0101000100000000000000000000000000000000000000000000000000000061214b565b9050611a6a8160f81c90565b606060006137b18560801c90565b90506fffffffffffffffffffffffffffffffff851660008582816137d7576137d7613f1a565b04905060405193506020840160208202810160405281855260005b82811015613812578451871c8252938701936020909101906001016137f2565b50505050509392505050565b60405180610100016040528060008152602001600081526020016000600281111561384b5761384b6138cf565b815260200160008152602001600081526020016000815260200160008152602001600081525090565b60006020828403121561388657600080fd5b5035919050565b60006020828403121561389f57600080fd5b81357fffffffff0000000000000000000000000000000000000000000000000000000081168114611bb457600080fd5b634e487b7160e01b600052602160045260246000fd5b60038110610c2e57634e487b7160e01b600052602160045260246000fd5b81518152602080830151908201526040820151610100820190613925816138e5565b80604084015250606083015160608301526080830151608083015260a083015160a083015260c083015160c083015260e083015160e083015292915050565b6001600160a01b0381168114610c2e57600080fd5b634e487b7160e01b600052604160045260246000fd5b604051601f8201601f1916810167ffffffffffffffff811182821017156139b8576139b8613979565b604052919050565b600067ffffffffffffffff8211156139da576139da613979565b50601f01601f191660200190565b600082601f8301126139f957600080fd5b8135613a0c613a07826139c0565b61398f565b818152846020838601011115613a2157600080fd5b816020850160208301376000918101602001919091529392505050565b600080600060608486031215613a5357600080fd5b8335613a5e81613964565b925060208401359150604084013567ffffffffffffffff811115613a8157600080fd5b613a8d868287016139e8565b9150509250925092565b60208101613aa4836138e5565b91905290565b600080600060608486031215613abf57600080fd5b8335925060208401359150604084013560038110613adc57600080fd5b809150509250925092565b60008060408385031215613afa57600080fd5b82359150602083013567ffffffffffffffff811115613b1857600080fd5b613b24858286016139e8565b9150509250929050565b60005b83811015613b49578181015183820152602001613b31565b50506000910152565b60008151808452613b6a816020860160208601613b2e565b601f01601f19169290920160200192915050565b828152604060208201526000610fa06040830184613b52565b600082601f830112613ba857600080fd5b8151613bb6613a07826139c0565b818152846020838601011115613bcb57600080fd5b610fa0826020830160208701613b2e565b600060208284031215613bee57600080fd5b815167ffffffffffffffff811115613c0557600080fd5b610fa084828501613b97565b634e487b7160e01b600052601160045260246000fd5b8082018082111561043957610439613c11565b60006000198203613c4d57613c4d613c11565b5060010190565b600060208284031215613c6657600080fd5b8151611bb481613964565b838152613c7d836138e5565b826020820152606060408201526000611a6a6060830184613b52565b634e487b7160e01b600052603260045260246000fd5b6000815160208301517fffffffff0000000000000000000000000000000000000000000000000000000080821693506004831015613cf75780818460040360031b1b83161693505b505050919050565b60008151808452602080850194506020840160005b83811015613d3057815187529582019590820190600101613d14565b509495945050505050565b838152606060208201526000613d546060830185613cff565b9050826040830152949350505050565b600080600060608486031215613d7957600080fd5b835167ffffffffffffffff80821115613d9157600080fd5b613d9d87838801613b97565b9450602086015193506040860151915080821115613dba57600080fd5b50613a8d86828701613b97565b85815260a060208201526000613de060a0830187613cff565b60ff861660408401528281036060840152613dfb8186613b52565b9150508260808301529695505050505050565b848152608060208201526000613e276080830186613cff565b60ff949094166040830152506060015292915050565b600060208284031215613e4f57600080fd5b5051919050565b600060ff821660ff8103613e6c57613e6c613c11565b60010192915050565b848152608060208201526000613e8e6080830186613cff565b60ff851660408401528281036060840152613ea98185613b52565b979650505050505050565b8181038181111561043957610439613c11565b808202811582820484141761043957610439613c11565b8281526000602080830184516020860160005b82811015613f0d57815184529284019290840190600101613ef1565b5091979650505050505050565b634e487b7160e01b600052601260045260246000fd5b606081526000613f436060830186613cff565b65ffffffffffff851660208401528281036040840152610cf98185613b52565b848152608060208201526000613f7c6080830186613cff565b65ffffffffffff851660408401528281036060840152613ea98185613b52565b7fffff0000000000000000000000000000000000000000000000000000000000008416815260007f3a000000000000000000000000000000000000000000000000000000000000008060028401528451613ffd816003860160208901613b2e565b80840190508160038201528451915061401d826004830160208801613b2e565b0160040195945050505050565b60408152600061403d6040830185613b52565b90506001600160a01b03831660208301529392505050565b60008251614067818460208701613b2e565b9190910192915050565b7fffff00000000000000000000000000000000000000000000000000000000000084168152826020820152606060408201526000611a6a6060830184613b52565b64ffffffffff8181168382160190808211156140d0576140d0613c11565b5092915050565b87815260e0602082015260006140f060e0830189613cff565b60ff8816604084015264ffffffffff87811660608501528616608084015260a0830185905282810360c08401526141278185613b52565b9a9950505050505050505050565b60c08152600061414860c0830189613cff565b60ff8816602084015265ffffffffffff8716604084015264ffffffffff8616606084015284608084015282810360a08401526141848185613b52565b9998505050505050505050565b600084516141a3818460208901613b2e565b60609490941b6bffffffffffffffffffffffff191691909301908152601481019190915260340192915050565b6060815260006141e36060830186613b52565b6020830194909452506040015291905056fea2646970667358221220742a2fd45744c41e7d65d12942f110c7afad793e829dbf40f82832658ab5f6a064736f6c63430008180033","linkReferences":{}},"methodIdentifiers":{"_msgSender()":"119df25f","_msgValue()":"45ec9354","_world()":"e1af802c","enterGame(bytes32)":"c74dedc8","getCharacterTokenId(bytes32)":"f8c67561","getClass(bytes32)":"23801570","getCurrentLevel(uint256)":"3d0854ae","getExperience(bytes32)":"ebee03bb","getName(bytes32)":"54b8d5e3","getOwner(bytes32)":"deb931a2","getOwnerAddress(bytes32)":"00d43ec6","getPlayerEntityId(uint256)":"8338f0e0","getStats(bytes32)":"0bb700dc","isValidCharacterId(bytes32)":"623daa05","mintCharacter(address,bytes32,string)":"143f3021","rollStats(bytes32,bytes32,uint8)":"679ee16d","supportsInterface(bytes4)":"01ffc9a7","updateTokenUri(bytes32,string)":"b27cbcbb"},"id":211}