{"abi":[{"type":"constructor","inputs":[],"stateMutability":"nonpayable"},{"type":"fallback","stateMutability":"payable"},{"type":"receive","stateMutability":"payable"},{"type":"function","name":"call","inputs":[{"name":"systemId","type":"bytes32","internalType":"ResourceId"},{"name":"callData","type":"bytes","internalType":"bytes"}],"outputs":[{"name":"","type":"bytes","internalType":"bytes"}],"stateMutability":"payable"},{"type":"function","name":"callFrom","inputs":[{"name":"delegator","type":"address","internalType":"address"},{"name":"systemId","type":"bytes32","internalType":"ResourceId"},{"name":"callData","type":"bytes","internalType":"bytes"}],"outputs":[{"name":"","type":"bytes","internalType":"bytes"}],"stateMutability":"payable"},{"type":"function","name":"creator","inputs":[],"outputs":[{"name":"","type":"address","internalType":"address"}],"stateMutability":"view"},{"type":"function","name":"deleteRecord","inputs":[{"name":"tableId","type":"bytes32","internalType":"ResourceId"},{"name":"keyTuple","type":"bytes32[]","internalType":"bytes32[]"}],"outputs":[],"stateMutability":"nonpayable"},{"type":"function","name":"getDynamicField","inputs":[{"name":"tableId","type":"bytes32","internalType":"ResourceId"},{"name":"keyTuple","type":"bytes32[]","internalType":"bytes32[]"},{"name":"dynamicFieldIndex","type":"uint8","internalType":"uint8"}],"outputs":[{"name":"data","type":"bytes","internalType":"bytes"}],"stateMutability":"view"},{"type":"function","name":"getDynamicFieldLength","inputs":[{"name":"tableId","type":"bytes32","internalType":"ResourceId"},{"name":"keyTuple","type":"bytes32[]","internalType":"bytes32[]"},{"name":"dynamicFieldIndex","type":"uint8","internalType":"uint8"}],"outputs":[{"name":"","type":"uint256","internalType":"uint256"}],"stateMutability":"view"},{"type":"function","name":"getDynamicFieldSlice","inputs":[{"name":"tableId","type":"bytes32","internalType":"ResourceId"},{"name":"keyTuple","type":"bytes32[]","internalType":"bytes32[]"},{"name":"dynamicFieldIndex","type":"uint8","internalType":"uint8"},{"name":"start","type":"uint256","internalType":"uint256"},{"name":"end","type":"uint256","internalType":"uint256"}],"outputs":[{"name":"","type":"bytes","internalType":"bytes"}],"stateMutability":"view"},{"type":"function","name":"getField","inputs":[{"name":"tableId","type":"bytes32","internalType":"ResourceId"},{"name":"keyTuple","type":"bytes32[]","internalType":"bytes32[]"},{"name":"fieldIndex","type":"uint8","internalType":"uint8"},{"name":"fieldLayout","type":"bytes32","internalType":"FieldLayout"}],"outputs":[{"name":"data","type":"bytes","internalType":"bytes"}],"stateMutability":"view"},{"type":"function","name":"getField","inputs":[{"name":"tableId","type":"bytes32","internalType":"ResourceId"},{"name":"keyTuple","type":"bytes32[]","internalType":"bytes32[]"},{"name":"fieldIndex","type":"uint8","internalType":"uint8"}],"outputs":[{"name":"data","type":"bytes","internalType":"bytes"}],"stateMutability":"view"},{"type":"function","name":"getFieldLayout","inputs":[{"name":"tableId","type":"bytes32","internalType":"ResourceId"}],"outputs":[{"name":"fieldLayout","type":"bytes32","internalType":"FieldLayout"}],"stateMutability":"view"},{"type":"function","name":"getFieldLength","inputs":[{"name":"tableId","type":"bytes32","internalType":"ResourceId"},{"name":"keyTuple","type":"bytes32[]","internalType":"bytes32[]"},{"name":"fieldIndex","type":"uint8","internalType":"uint8"},{"name":"fieldLayout","type":"bytes32","internalType":"FieldLayout"}],"outputs":[{"name":"","type":"uint256","internalType":"uint256"}],"stateMutability":"view"},{"type":"function","name":"getFieldLength","inputs":[{"name":"tableId","type":"bytes32","internalType":"ResourceId"},{"name":"keyTuple","type":"bytes32[]","internalType":"bytes32[]"},{"name":"fieldIndex","type":"uint8","internalType":"uint8"}],"outputs":[{"name":"","type":"uint256","internalType":"uint256"}],"stateMutability":"view"},{"type":"function","name":"getKeySchema","inputs":[{"name":"tableId","type":"bytes32","internalType":"ResourceId"}],"outputs":[{"name":"keySchema","type":"bytes32","internalType":"Schema"}],"stateMutability":"view"},{"type":"function","name":"getRecord","inputs":[{"name":"tableId","type":"bytes32","internalType":"ResourceId"},{"name":"keyTuple","type":"bytes32[]","internalType":"bytes32[]"},{"name":"fieldLayout","type":"bytes32","internalType":"FieldLayout"}],"outputs":[{"name":"staticData","type":"bytes","internalType":"bytes"},{"name":"encodedLengths","type":"bytes32","internalType":"EncodedLengths"},{"name":"dynamicData","type":"bytes","internalType":"bytes"}],"stateMutability":"view"},{"type":"function","name":"getRecord","inputs":[{"name":"tableId","type":"bytes32","internalType":"ResourceId"},{"name":"keyTuple","type":"bytes32[]","internalType":"bytes32[]"}],"outputs":[{"name":"staticData","type":"bytes","internalType":"bytes"},{"name":"encodedLengths","type":"bytes32","internalType":"EncodedLengths"},{"name":"dynamicData","type":"bytes","internalType":"bytes"}],"stateMutability":"view"},{"type":"function","name":"getStaticField","inputs":[{"name":"tableId","type":"bytes32","internalType":"ResourceId"},{"name":"keyTuple","type":"bytes32[]","internalType":"bytes32[]"},{"name":"fieldIndex","type":"uint8","internalType":"uint8"},{"name":"fieldLayout","type":"bytes32","internalType":"FieldLayout"}],"outputs":[{"name":"data","type":"bytes32","internalType":"bytes32"}],"stateMutability":"view"},{"type":"function","name":"getValueSchema","inputs":[{"name":"tableId","type":"bytes32","internalType":"ResourceId"}],"outputs":[{"name":"valueSchema","type":"bytes32","internalType":"Schema"}],"stateMutability":"view"},{"type":"function","name":"initialize","inputs":[{"name":"initModule","type":"address","internalType":"contract IModule"}],"outputs":[],"stateMutability":"nonpayable"},{"type":"function","name":"installRootModule","inputs":[{"name":"module","type":"address","internalType":"contract IModule"},{"name":"encodedArgs","type":"bytes","internalType":"bytes"}],"outputs":[],"stateMutability":"nonpayable"},{"type":"function","name":"popFromDynamicField","inputs":[{"name":"tableId","type":"bytes32","internalType":"ResourceId"},{"name":"keyTuple","type":"bytes32[]","internalType":"bytes32[]"},{"name":"dynamicFieldIndex","type":"uint8","internalType":"uint8"},{"name":"byteLengthToPop","type":"uint256","internalType":"uint256"}],"outputs":[],"stateMutability":"nonpayable"},{"type":"function","name":"pushToDynamicField","inputs":[{"name":"tableId","type":"bytes32","internalType":"ResourceId"},{"name":"keyTuple","type":"bytes32[]","internalType":"bytes32[]"},{"name":"dynamicFieldIndex","type":"uint8","internalType":"uint8"},{"name":"dataToPush","type":"bytes","internalType":"bytes"}],"outputs":[],"stateMutability":"nonpayable"},{"type":"function","name":"setDynamicField","inputs":[{"name":"tableId","type":"bytes32","internalType":"ResourceId"},{"name":"keyTuple","type":"bytes32[]","internalType":"bytes32[]"},{"name":"dynamicFieldIndex","type":"uint8","internalType":"uint8"},{"name":"data","type":"bytes","internalType":"bytes"}],"outputs":[],"stateMutability":"nonpayable"},{"type":"function","name":"setField","inputs":[{"name":"tableId","type":"bytes32","internalType":"ResourceId"},{"name":"keyTuple","type":"bytes32[]","internalType":"bytes32[]"},{"name":"fieldIndex","type":"uint8","internalType":"uint8"},{"name":"data","type":"bytes","internalType":"bytes"}],"outputs":[],"stateMutability":"nonpayable"},{"type":"function","name":"setField","inputs":[{"name":"tableId","type":"bytes32","internalType":"ResourceId"},{"name":"keyTuple","type":"bytes32[]","internalType":"bytes32[]"},{"name":"fieldIndex","type":"uint8","internalType":"uint8"},{"name":"data","type":"bytes","internalType":"bytes"},{"name":"fieldLayout","type":"bytes32","internalType":"FieldLayout"}],"outputs":[],"stateMutability":"nonpayable"},{"type":"function","name":"setRecord","inputs":[{"name":"tableId","type":"bytes32","internalType":"ResourceId"},{"name":"keyTuple","type":"bytes32[]","internalType":"bytes32[]"},{"name":"staticData","type":"bytes","internalType":"bytes"},{"name":"encodedLengths","type":"bytes32","internalType":"EncodedLengths"},{"name":"dynamicData","type":"bytes","internalType":"bytes"}],"outputs":[],"stateMutability":"nonpayable"},{"type":"function","name":"setStaticField","inputs":[{"name":"tableId","type":"bytes32","internalType":"ResourceId"},{"name":"keyTuple","type":"bytes32[]","internalType":"bytes32[]"},{"name":"fieldIndex","type":"uint8","internalType":"uint8"},{"name":"data","type":"bytes","internalType":"bytes"},{"name":"fieldLayout","type":"bytes32","internalType":"FieldLayout"}],"outputs":[],"stateMutability":"nonpayable"},{"type":"function","name":"spliceDynamicData","inputs":[{"name":"tableId","type":"bytes32","internalType":"ResourceId"},{"name":"keyTuple","type":"bytes32[]","internalType":"bytes32[]"},{"name":"dynamicFieldIndex","type":"uint8","internalType":"uint8"},{"name":"startWithinField","type":"uint40","internalType":"uint40"},{"name":"deleteCount","type":"uint40","internalType":"uint40"},{"name":"data","type":"bytes","internalType":"bytes"}],"outputs":[],"stateMutability":"nonpayable"},{"type":"function","name":"spliceStaticData","inputs":[{"name":"tableId","type":"bytes32","internalType":"ResourceId"},{"name":"keyTuple","type":"bytes32[]","internalType":"bytes32[]"},{"name":"start","type":"uint48","internalType":"uint48"},{"name":"data","type":"bytes","internalType":"bytes"}],"outputs":[],"stateMutability":"nonpayable"},{"type":"function","name":"storeVersion","inputs":[],"outputs":[{"name":"","type":"bytes32","internalType":"bytes32"}],"stateMutability":"pure"},{"type":"function","name":"worldVersion","inputs":[],"outputs":[{"name":"","type":"bytes32","internalType":"bytes32"}],"stateMutability":"pure"},{"type":"event","name":"HelloStore","inputs":[{"name":"storeVersion","type":"bytes32","indexed":true,"internalType":"bytes32"}],"anonymous":false},{"type":"event","name":"HelloWorld","inputs":[{"name":"worldVersion","type":"bytes32","indexed":true,"internalType":"bytes32"}],"anonymous":false},{"type":"event","name":"Store_DeleteRecord","inputs":[{"name":"tableId","type":"bytes32","indexed":true,"internalType":"ResourceId"},{"name":"keyTuple","type":"bytes32[]","indexed":false,"internalType":"bytes32[]"}],"anonymous":false},{"type":"event","name":"Store_SetRecord","inputs":[{"name":"tableId","type":"bytes32","indexed":true,"internalType":"ResourceId"},{"name":"keyTuple","type":"bytes32[]","indexed":false,"internalType":"bytes32[]"},{"name":"staticData","type":"bytes","indexed":false,"internalType":"bytes"},{"name":"encodedLengths","type":"bytes32","indexed":false,"internalType":"EncodedLengths"},{"name":"dynamicData","type":"bytes","indexed":false,"internalType":"bytes"}],"anonymous":false},{"type":"event","name":"Store_SpliceDynamicData","inputs":[{"name":"tableId","type":"bytes32","indexed":true,"internalType":"ResourceId"},{"name":"keyTuple","type":"bytes32[]","indexed":false,"internalType":"bytes32[]"},{"name":"dynamicFieldIndex","type":"uint8","indexed":false,"internalType":"uint8"},{"name":"start","type":"uint48","indexed":false,"internalType":"uint48"},{"name":"deleteCount","type":"uint40","indexed":false,"internalType":"uint40"},{"name":"encodedLengths","type":"bytes32","indexed":false,"internalType":"EncodedLengths"},{"name":"data","type":"bytes","indexed":false,"internalType":"bytes"}],"anonymous":false},{"type":"event","name":"Store_SpliceStaticData","inputs":[{"name":"tableId","type":"bytes32","indexed":true,"internalType":"ResourceId"},{"name":"keyTuple","type":"bytes32[]","indexed":false,"internalType":"bytes32[]"},{"name":"start","type":"uint48","indexed":false,"internalType":"uint48"},{"name":"data","type":"bytes","indexed":false,"internalType":"bytes"}],"anonymous":false},{"type":"error","name":"EncodedLengths_InvalidLength","inputs":[{"name":"length","type":"uint256","internalType":"uint256"}]},{"type":"error","name":"FieldLayout_Empty","inputs":[]},{"type":"error","name":"FieldLayout_InvalidStaticDataLength","inputs":[{"name":"staticDataLength","type":"uint256","internalType":"uint256"},{"name":"computedStaticDataLength","type":"uint256","internalType":"uint256"}]},{"type":"error","name":"FieldLayout_StaticLengthDoesNotFitInAWord","inputs":[{"name":"index","type":"uint256","internalType":"uint256"}]},{"type":"error","name":"FieldLayout_StaticLengthIsNotZero","inputs":[{"name":"index","type":"uint256","internalType":"uint256"}]},{"type":"error","name":"FieldLayout_StaticLengthIsZero","inputs":[{"name":"index","type":"uint256","internalType":"uint256"}]},{"type":"error","name":"FieldLayout_TooManyDynamicFields","inputs":[{"name":"numFields","type":"uint256","internalType":"uint256"},{"name":"maxFields","type":"uint256","internalType":"uint256"}]},{"type":"error","name":"FieldLayout_TooManyFields","inputs":[{"name":"numFields","type":"uint256","internalType":"uint256"},{"name":"maxFields","type":"uint256","internalType":"uint256"}]},{"type":"error","name":"Module_AlreadyInstalled","inputs":[]},{"type":"error","name":"Module_MissingDependency","inputs":[{"name":"dependency","type":"address","internalType":"address"}]},{"type":"error","name":"Module_NonRootInstallNotSupported","inputs":[]},{"type":"error","name":"Module_RootInstallNotSupported","inputs":[]},{"type":"error","name":"Schema_InvalidLength","inputs":[{"name":"length","type":"uint256","internalType":"uint256"}]},{"type":"error","name":"Schema_StaticTypeAfterDynamicType","inputs":[]},{"type":"error","name":"Slice_OutOfBounds","inputs":[{"name":"data","type":"bytes","internalType":"bytes"},{"name":"start","type":"uint256","internalType":"uint256"},{"name":"end","type":"uint256","internalType":"uint256"}]},{"type":"error","name":"Store_IndexOutOfBounds","inputs":[{"name":"length","type":"uint256","internalType":"uint256"},{"name":"accessedIndex","type":"uint256","internalType":"uint256"}]},{"type":"error","name":"Store_InvalidBounds","inputs":[{"name":"start","type":"uint256","internalType":"uint256"},{"name":"end","type":"uint256","internalType":"uint256"}]},{"type":"error","name":"Store_InvalidFieldNamesLength","inputs":[{"name":"expected","type":"uint256","internalType":"uint256"},{"name":"received","type":"uint256","internalType":"uint256"}]},{"type":"error","name":"Store_InvalidKeyNamesLength","inputs":[{"name":"expected","type":"uint256","internalType":"uint256"},{"name":"received","type":"uint256","internalType":"uint256"}]},{"type":"error","name":"Store_InvalidResourceType","inputs":[{"name":"expected","type":"bytes2","internalType":"bytes2"},{"name":"resourceId","type":"bytes32","internalType":"ResourceId"},{"name":"resourceIdString","type":"string","internalType":"string"}]},{"type":"error","name":"Store_InvalidSplice","inputs":[{"name":"startWithinField","type":"uint40","internalType":"uint40"},{"name":"deleteCount","type":"uint40","internalType":"uint40"},{"name":"fieldLength","type":"uint40","internalType":"uint40"}]},{"type":"error","name":"Store_InvalidStaticDataLength","inputs":[{"name":"expected","type":"uint256","internalType":"uint256"},{"name":"received","type":"uint256","internalType":"uint256"}]},{"type":"error","name":"Store_InvalidValueSchemaDynamicLength","inputs":[{"name":"expected","type":"uint256","internalType":"uint256"},{"name":"received","type":"uint256","internalType":"uint256"}]},{"type":"error","name":"Store_InvalidValueSchemaLength","inputs":[{"name":"expected","type":"uint256","internalType":"uint256"},{"name":"received","type":"uint256","internalType":"uint256"}]},{"type":"error","name":"Store_InvalidValueSchemaStaticLength","inputs":[{"name":"expected","type":"uint256","internalType":"uint256"},{"name":"received","type":"uint256","internalType":"uint256"}]},{"type":"error","name":"Store_TableAlreadyExists","inputs":[{"name":"tableId","type":"bytes32","internalType":"ResourceId"},{"name":"tableIdString","type":"string","internalType":"string"}]},{"type":"error","name":"Store_TableNotFound","inputs":[{"name":"tableId","type":"bytes32","internalType":"ResourceId"},{"name":"tableIdString","type":"string","internalType":"string"}]},{"type":"error","name":"World_AccessDenied","inputs":[{"name":"resource","type":"string","internalType":"string"},{"name":"caller","type":"address","internalType":"address"}]},{"type":"error","name":"World_AlreadyInitialized","inputs":[]},{"type":"error","name":"World_CallbackNotAllowed","inputs":[{"name":"functionSelector","type":"bytes4","internalType":"bytes4"}]},{"type":"error","name":"World_DelegationNotFound","inputs":[{"name":"delegator","type":"address","internalType":"address"},{"name":"delegatee","type":"address","internalType":"address"}]},{"type":"error","name":"World_FunctionSelectorAlreadyExists","inputs":[{"name":"functionSelector","type":"bytes4","internalType":"bytes4"}]},{"type":"error","name":"World_FunctionSelectorNotFound","inputs":[{"name":"functionSelector","type":"bytes4","internalType":"bytes4"}]},{"type":"error","name":"World_InsufficientBalance","inputs":[{"name":"balance","type":"uint256","internalType":"uint256"},{"name":"amount","type":"uint256","internalType":"uint256"}]},{"type":"error","name":"World_InterfaceNotSupported","inputs":[{"name":"contractAddress","type":"address","internalType":"address"},{"name":"interfaceId","type":"bytes4","internalType":"bytes4"}]},{"type":"error","name":"World_InvalidNamespace","inputs":[{"name":"namespace","type":"bytes14","internalType":"bytes14"}]},{"type":"error","name":"World_InvalidResourceId","inputs":[{"name":"resourceId","type":"bytes32","internalType":"ResourceId"},{"name":"resourceIdString","type":"string","internalType":"string"}]},{"type":"error","name":"World_InvalidResourceType","inputs":[{"name":"expected","type":"bytes2","internalType":"bytes2"},{"name":"resourceId","type":"bytes32","internalType":"ResourceId"},{"name":"resourceIdString","type":"string","internalType":"string"}]},{"type":"error","name":"World_ResourceAlreadyExists","inputs":[{"name":"resourceId","type":"bytes32","internalType":"ResourceId"},{"name":"resourceIdString","type":"string","internalType":"string"}]},{"type":"error","name":"World_ResourceNotFound","inputs":[{"name":"resourceId","type":"bytes32","internalType":"ResourceId"},{"name":"resourceIdString","type":"string","internalType":"string"}]},{"type":"error","name":"World_SystemAlreadyExists","inputs":[{"name":"system","type":"address","internalType":"address"}]},{"type":"error","name":"World_UnlimitedDelegationNotAllowed","inputs":[]}],"bytecode":{"object":"0x60a080604052346100ad577f629a4c26e296b22a8e0856e9f6ecb2d1008d7e00081111962cd175fa7488e17580546001600160a01b0319163017905564191718171960d91b807fc7f5fdc8526b76f54916701bc910876243ffff2a40b0bb8d59eea8151c52c0055f80a2336080527f7f8f36afe3fb61c459c1a54a60b8a477eab02cc58e49f547561a40906239cb825f80a26149c290816100b2823960805181818161021f01526111da0152f35b5f80fdfe6080604052600436101561001d575b3661167a5761001b61164e565b005b5f3560e01c806302d05d3f146101f757806305242d2f146101f2578063114a7266146101ed578063150f3262146101e85780631e788977146101e3578063298314fb146101de5780633708196e146101d9578063390baae0146101d45780633a77c2c2146101cf5780633ae7af08146101ca578063419b58fd146101c55780634dc77d97146101c0578063505a181d146101bb5780636951955d14610193578063894ecc58146101b65780638c364d59146101b15780639f1fcf0a146101ac578063a53417ed146101a7578063af068c9e146101a2578063b047c1eb1461019d578063c0a2895a14610198578063c112222914610193578063c4d66de81461018e578063cc49db7e14610189578063d03edb8c14610184578063d4285dc21461017f578063d9c03a041461017a578063dbbf0e2114610175578063e228a4a3146101705763ef6ea8620361000e57611457565b611409565b6113ec565b611352565b6112ba565b611289565b611259565b6111ab565b610e2c565b61112c565b6110a7565b610fe9565b610fc6565b610f3d565b610eb0565b610e60565b610df3565b610cc1565b610bf3565b610b86565b610a20565b6109d1565b61099b565b610895565b61083f565b610469565b6103f9565b61032d565b61020a565b5f91031261020657565b5f80fd5b34610206575f366003190112610206576040517f00000000000000000000000000000000000000000000000000000000000000006001600160a01b03168152602090f35b9181601f84011215610206578235916001600160401b038311610206576020808501948460051b01011161020657565b6044359060ff8216820361020657565b9060806003198301126102065760043591602435906001600160401b038211610206576102bd9160040161024e565b909160443560ff81168103610206579060643590565b5f5b8381106102e45750505f910152565b81810151838201526020016102d5565b9060209161030d815180928185528580860191016102d3565b601f01601f1916010190565b90602061032a9281815201906102f4565b90565b346102065761036b6103576103516103443661028e565b9491939290933691610c50565b90611730565b6040519182916020835260208301906102f4565b0390f35b9181601f84011215610206578235916001600160401b038311610206576020838186019501011161020657565b90608060031983011261020657600435916001600160401b039060243582811161020657816103cd9160040161024e565b9390939260443560ff811681036102065792606435918211610206576103f59160040161036f565b9091565b34610206576104073661039c565b929493903033146104465761042e6104369261001b976104273389611795565b3691610c50565b933691610b35565b91610440846119b7565b936117f7565b6040516327a1460b60e21b81525f356001600160e01b0319166004820152602490fd5b34610206576104773661039c565b929391933033146104465761049c92610494916104273389611795565b923691610b35565b926104a78282614417565b54936145cf60f11b6001600160f01b03198316016107ba576104dc815164ffffffffff8760ff88166028026038011c16611641565b938464ffffffffff8760ff84166028026038011c16141594858096610788575b61074c5761050b908288614445565b94610515846140a9565b905f5b82518110156105e55761054c61053f6105318386611dae565b516001600160581b03191690565b6001600160581b03191690565b906010808360581c1614610565575b6001915001610518565b8160601c3b15610206575f878b9387838c6105ab8c604051998a9788968795630abd6b4560e31b875264ffffffffff8460ff84166028026038011c169260048801612b2e565b039260601c5af19182156105e0576001926105c7575b5061055b565b806105d46105da92610a5a565b806101fc565b5f6105c1565b612212565b5094879391929664ffffffffff8560ff8a166028026038011c16955f965b8960ff811660ff8a1610156106345750600160ff9164ffffffffff89848c166028026038011c160198011696610603565b9689835f805160206148c283398151915265ffffffffffff8b9796956106678b898c60409c604051968796169186612c19565b0390a261073b575b6106968664ffffffffff8360ff8c166028026038011c166106918b8987613152565b6141aa565b5f5b875181101561001b576106b161053f610531838b611dae565b6020808260581c16146106c8575b50600101610698565b60601c90813b15610206575f878b9364ffffffffff838761070e8e8c8c8f519b8c998a988997636358453360e01b895260ff84166028026038011c169260048801612b2e565b03925af19182156105e057600192610728575b50906106bf565b806105d461073592610a5a565b8a610721565b826107468684614417565b5561066f565b604051632994042d60e21b815264ffffffffff60ff841660280260380189901c16600482018190525f60248301526044820152606490fd5b0390fd5b506038602860ff8416020187901c64ffffffffff166107b36107a982612b02565b64ffffffffff1690565b14156104fc565b50604051906107e2826107d4836020830160209181520190565b03601f198101845283610ac3565b6107846040519283926331b4668360e01b845260048401612ae0565b9060606003198301126102065760043591602435906001600160401b0382116102065761082d9160040161024e565b909160443560ff811681036102065790565b346102065761036b61035761086861088f61087961085c366107fe565b93929591903691610c50565b610873838287613152565b94614417565b5460ff64ffffffffff92166028026038011c1690565b90613191565b346102065760a0366003190112610206576001600160401b03600435602435828111610206576108c990369060040161024e565b91604435848111610206576108e290369060040161036f565b939094608435908111610206576108fd90369060040161036f565b933033146104465761001b9661091e61042e92610926956104273389611795565b963691610b35565b91610930826119b7565b93606435926132a4565b9060a060031983011261020657600435916001600160401b0390602435828111610206578161096b9160040161024e565b9390939260443560ff811681036102065792606435918211610206576109939160040161036f565b909160843590565b34610206576109a93661093a565b949091959395303314610446576104946109cb9261001b986104273389611795565b926117f7565b34610206576109df3661093a565b949593909230331461044657610a1365ffffffffffff93610a0b61001b99610a1995610427338b611795565b953691610b35565b95613550565b169161221d565b34610206576020366003190112610206576020610a3e6004356119b7565b604051908152f35b634e487b7160e01b5f52604160045260245ffd5b6001600160401b038111610a6d57604052565b610a46565b602081019081106001600160401b03821117610a6d57604052565b606081019081106001600160401b03821117610a6d57604052565b604081019081106001600160401b03821117610a6d57604052565b601f909101601f19168101906001600160401b03821190821017610a6d57604052565b6001600160401b038111610a6d57601f01601f191660200190565b919091610b0d81610ae6565b610b1a6040519182610ac3565b809382825282116102065781815f9384602080950137010152565b929192610b4182610ae6565b91610b4f6040519384610ac3565b829481845281830111610206578281602093845f960137010152565b9080601f830112156102065781602061032a93359101610b35565b6040366003190112610206576024356001600160401b03811161020657610bb1903690600401610b6b565b3033146104465761035761036b91349060043533611a18565b610be061032a94926060835260608301906102f4565b92602082015260408184039101526102f4565b34610206576060366003190112610206576024356001600160401b03811161020657610c41610c39610c2c61036b93369060040161024e565b9190604435923691610c50565b600435611c9e565b60409391935193849384610bca565b9092916001600160401b038411610a6d578360051b6020926020604051610c7982850182610ac3565b809781520191810192831161020657905b828210610c975750505050565b81358152908301908301610c8a565b9080601f830112156102065781602061032a93359101610c50565b346102065760a0366003190112610206576004356024356001600160401b03811161020657610cf4903690600401610ca6565b610cfc61027e565b6064359160843593848411610d9f57610d19836108798484614417565b80851080158091610d96575b610d515761036b610d45888880610d3d8a8a8a613152565b9203916131f9565b60405191829182610319565b8686915f14610d7f5750905b604051637e8578d360e01b815260048101919091526024810191909152604490fd5b5f19810191508111610d915790610d5d565b61162d565b50818711610d25565b5050604051635462a3c160e11b81526004810192909252506024810191909152604490fd5b9060406003198301126102065760043591602435906001600160401b038211610206576103f59160040161024e565b3461020657610e0136610dc4565b9190913033146104465761001b92610e1d916104273385611795565b610e26826119b7565b91613716565b34610206575f3660031901126102065760405164191718171960d91b8152602090f35b6001600160a01b0381160361020657565b606036600319011261020657600435610e7881610e4f565b6044356001600160401b03811161020657610e97903690600401610b6b565b903033146104465761036b91610357916024359061148c565b34610206576020610ed9610ed3610ec63661028e565b9593929094913691610c50565b90613cc1565b610ee38284613550565b918185841015610f2b575b5060ff80939483548660031b1b95870394859316601b0360031b1c1611610f1a575b5050604051908152f35b600101549060031b1c175f80610f10565b601f84169360051c01915060ff610eee565b34610206576080366003190112610206576024356001600160401b03811161020657610a3e610f726020923690600401610ca6565b610f7a61027e565b60643591600435611fa3565b9060606003198301126102065760043591602435906001600160401b03821161020657610fb591600401610ca6565b9060443560ff811681036102065790565b34610206576020610a3e610fd936610f86565b90610fe3836119b7565b92611fa3565b346102065760403660031901126102065760043561100681610e4f565b6024356001600160401b03811161020657611025903690600401610b6b565b30331461044657611034611557565b9161103d611d65565b8051156110a257600160801b600160f01b038416616e7360f01b176020820152339061106890613a30565b5460601c0361107b5761001b9250611fe9565b610784611087846123f9565b60405163d787b73760e01b81529182913390600484016115bd565b611d9a565b34610206576080366003190112610206576001600160401b03600435602435828111610206576110db90369060040161024e565b92906044359165ffffffffffff83168303610206576064359081116102065761110890369060040161036f565b9190303314610446576104946111269261001b976104273389611795565b9261221d565b346102065760c0366003190112610206576001600160401b036024358181116102065761115d90369060040161024e565b9061116661027e565b60643564ffffffffff9182821682036102065760843592831683036102065760a435958611610206576111a061001b96369060040161036f565b959094600435611586565b34610206576020366003190112610206576004356111c881610e4f565b303314610446576001600160a01b03907f0000000000000000000000000000000000000000000000000000000000000000821633036112465761121161120c6115e5565b614228565b60601c6112345761122661001b9282166124b6565b61122e6115e5565b90611fe9565b6040516302bc694960e31b8152600490fd5b610784611087611254611557565b6123f9565b346102065761036b610c4161127a61127036610dc4565b9291923691610c50565b611283826119b7565b91611c9e565b346102065761036b6103576112ab6112a0366107fe565b929391903691610c50565b6112b4836119b7565b92611730565b34610206576020366003190112610206576004356112d6611d65565b8051156110a2576112ef818360206112fd940152613ab1565b6112f76134e2565b90613587565b61130d611309836142da565b1590565b61131c57604051908152602090f35b5060405190611336826107d4836020830160209181520190565b6107846040519283926341e713ad60e01b845260048401612597565b34610206576080366003190112610206576004356024356001600160401b0381116102065761138590369060040161024e565b919061138f61027e565b9260643591303314610446576113a9916104273386611795565b6113b38184614417565b549264ffffffffff94858560ff83166028026038011c1692848403938411610d91578661001b976113e26115e5565b9616941692612cb1565b34610206576020610a3e61087961140236610f86565b9291614417565b3461020657602036600319011261020657600435611425611d65565b8051156110a25761143e81836020611446940152613ab1565b6112f7613519565b801561131c57604051908152602090f35b34610206576114653661039c565b9192949390303314610446576104946114869261001b976104273389611795565b926125ae565b91906001600160a01b0383163314611527576114b4828233866114af3382611dfd565b611e73565b61151a576114c8828233866114af81611dc2565b61151a576114ef828233866114af600160801b600160f01b038416616e7360f01b17611f23565b61151a5760405163c86745f960e01b81526001600160a01b0384166004820152336024820152604490fd5b9061032a92913492611a18565b9061032a9250349133611a18565b602081519101519060208110611549575090565b5f199060200360031b1b1690565b61032a604051616e7360f01b60208201525f60228201525f60308201526020815261158181610aa8565b611535565b9596949392919630331461044657610a0b6115a9926115bb99610427338b611795565b936115b48187614417565b5495612cb1565b565b906115d56020919493946040845260408401906102f4565b6001600160a01b03909416910152565b6040516115f181610a72565b5f8152905f368137565b9061160582610ae6565b6116126040519182610ac3565b8281528092611623601f1991610ae6565b0190602036910137565b634e487b7160e01b5f52601160045260245ffd5b91908201809211610d9157565b61165e611659611557565b6128c5565b611666611557565b90348101809111610d91576115bb91612942565b303314610446575f356001600160e01b031916611695611d65565b8051156110a257808260206116ab930152611b6d565b5050604060208201519101519181156116f857506116e86116f0926116d03636610b01565b6020810180516001600160e01b031690921790915290565b349133611a18565b602081519101f35b604051637eef2a7160e11b81526001600160e01b0319919091166004820152602490fd5b9060ff8091169116039060ff8211610d9157565b9060ff8460e81c169160ff8416928084105f1461177157509361176261175b60ff9361032a97613cc1565b9482613550565b92601b0360031b1c16916131f9565b61032a955061088f935061178990610879929561171c565b91610873838287613152565b6117b282600160801b600160f01b038316616e7360f01b17614373565b80156117e7575b156117c2575050565b6117cb906123f9565b61078460405192839263d787b73760e01b8452600484016115bd565b506117f28282614373565b6117b9565b919360ff8160e81c168060ff8716105f146118215750610a196115bb9565ffffffffffff92613550565b61182f91506115bb9561171c565b916125ae565b919061184083613be9565b91611849613fe5565b905f5b82518110156118d55761186561053f6105318386611dae565b9060049182808260581c1614611881575b50600191500161184c565b60601c803b1561020657855f9189836118af966040519788958694859363964f667d60e01b85528401612175565b03925af19182156105e0576001921561187657806105d46118cf92610a5a565b5f611876565b50929190611923826040946040515f805160206148e28339815191526f496e69744d6f64756c65416464726573661d189ddbdc9b1960ca1b01918061191b868d836120d0565b0390a2614173565b5f5b81518110156119af5761193e61053f6105318385611dae565b6008808260581c1614611955575b50600101611925565b60601c90813b1561020657845163a8ba872160e01b8152915f9083908183816119828a8e60048401612175565b03925af19182156105e05760019261199c575b509061194c565b806105d46119a992610a5a565b5f611995565b505050509050565b655461626c657360501b66746273746f726560c81b0190808214611a085760405190602082019283526040820152604081526119f281610a8d565b5190205f80516020614902833981519152185490565b506503001811010160cd1b919050565b919093611a248561457b565b90855f5b8351811015611ab757611a4161053f6105318387611dae565b6001808260581c1614611a58575b50600101611a28565b60601c9150813b156102065760405163c332303160e01b8152915f908390818381611a888b8f8e60048501611e37565b03925af19081156105e0578892600192611aa4575b5090611a4f565b806105d4611ab192610a5a565b5f611a9d565b508390611ac5929686613983565b5f9591955b8351811015611b5857611ae361053f6105318387611dae565b6002808260581c1614611afa575b50600101611aca565b60601c90813b15610206575f86611b2b938b838b6040519788958694859363973d8f9960e01b855260048501611e37565b03925af19182156105e057600192611b45575b5090611af1565b806105d4611b5292610a5a565b5f611b3e565b509493509450505015611b685790565b6135c5565b5f906060906040519060209082611b8860208201928361308a565b0392611b9c601f1994858101835282610ac3565b5190205f80516020614902833981519152189160405192816063850116604052602484526020840192602491925b81831015611bfc57505080611be0575b50505092565b5f199060031b1c908183511691199054161790525f8080611bda565b81600185839495979654875201940194019190611bca565b5f906060906040519060209082611c2f6020820192836130d8565b0392611c43601f1994858101835282610ac3565b5190205f80516020614902833981519152189160405192816054850116604052601584526020840192601591925b81831015611c8657505080611be05750505092565b81600185839495979654875201940194019190611c71565b925f92606092611cb28260f01c82886135cd565b9560ff809360e01c169182611cc8575b50505050565b81611cdb92949897508193959650614417565b5491611cef66ffffffffffffff84166115fb565b5f9690602081015b89891687811015611d4457611d288264ffffffffff89611d188e8b8b613152565b946028026038011c1680936135fd565b8101809111610d9157978916808a14610d915760010197611cf7565b50509594509650505092505f808080611cc2565b91908203918211610d9157565b60405190611d7282610aa8565b6001825260203681840137565b60405190611d8c82610a8d565b600282526040366020840137565b634e487b7160e01b5f52603260045260245ffd5b80518210156110a25760209160051b010190565b611dca611d7f565b908151156110a2576001600160a01b031660208201528051600110156110a257805f6040611df9930152613b16565b5490565b611e05611d7f565b805190916001600160a01b0391156110a257811660208301528151600110156110a257611df992166040820152613b16565b61032a939260609260018060a01b03168252602082015281604082015201906102f4565b90816020910312610206575180151581036102065790565b919093611eac60405161737960f01b60208201525f6022820152681d5b9b1a5b5a5d195960ba1b60308201526020815261158181610aa8565b8314611f19578215611f1057611ef294611edf611eed926040519687936301a86b5560e41b602086015260248501611e37565b03601f198101855284610ac3565b6138e0565b9015611f0b578060208061032a93518301019101611e5b565b505f90565b50505050505f90565b5050505050600190565b611f2b611d65565b8051156110a257906020808301918252604051809260208201946f4e616d65737061636544656c65676174661d189ddbdc9b1960ca1b0186526040830190519091935f5b828110611f8c575050506119f2925003601f198101835282610ac3565b855184529481019486945092810192600101611f6f565b9092919260ff8360e81c1660ff8516948186105f14611fce575050505060ff91601b0360031b1c1690565b61032a955061087993945090611fe39161171c565b92614417565b6001600160a01b031690611ffc82614810565b8061208d575b8061207e575b1561205957906115bb9161204b604051637c5b033560e01b6020820152612044816120368560248301610319565b03601f198101835282610ac3565b8333613cda565b506020815191012090613d3c565b6040516374b5e6ff60e01b81526004810183905262dfba3960e71b6024820152604490fd5b5061208882614893565b612008565b5061209782614864565b15612002565b9081518082526020808093019301915f5b8281106120bc575050505090565b8351855293810193928101926001016120ae565b90916120e761032a9360608452606084019061209d565b915f602082015260408184039101526102f4565b65ffffffffffff61211861032a959360608452606084019061209d565b9316602082015260408184039101526102f4565b6742616c616e63657360401b661d189ddbdc9b1960ca1b01815260806020820181905261032a9391926121619184019061209d565b915f604082015260608184039101526102f4565b5f80516020614922833981519152815260806020820181905261032a9391926121619184019061209d565b6f496e7374616c6c65644d6f64756c6573661d189ddbdc9b1960ca1b01815260806020820181905261032a9391926121619184019061209d565b906121fe61032a959365ffffffffffff92845260806020850152608084019061209d565b9316604082015260608184039101526102f4565b6040513d5f823e3d90fd5b9193926001600160f01b03198316611bdd60f21b146123b0576122408284613cc1565b9361224a846140a9565b905f5b82518110156122d85761226661053f6105318386611dae565b9060049182808260581c1614612282575b50600191500161224d565b60601c803b1561020657865f9189838d966122b28b604051998a978896879563964f667d60e01b875286016121da565b03925af19182156105e0576001921561227757806105d46122d292610a5a565b5f612277565b50949195929061231687604094875f805160206148e283398151915260405180612304868c8b846120fb565b0390a265ffffffffffff8716906141aa565b5f5b81518110156123a65761233161053f6105318385611dae565b6008808260581c1614612348575b50600101612318565b60601c90813b15610206575f868a9386838b6123798b519889968795869463a8ba872160e01b8652600486016121da565b03925af19182156105e057600192612393575b509061233f565b806105d46123a092610a5a565b5f61238c565b5050505050509050565b906123d25f805160206148e283398151915293949592604051938493846120fb565b0390a2565b604051906123e482610aa8565b60068252651e3937b7ba1f60d11b6020830152565b608081901b6001600160801b0319169061032a90602490601081901b6001600160901b031916806124a7575061242d6123d7565b935b80612499575061243d6123d7565b60405194859261ffff60f01b166020840152601d60f91b9081602285015261246f8151809260206023880191016102d3565b830190602382015261248a82518093602087850191016102d3565b01036004810184520182610ac3565b6124a2906141bb565b61243d565b6124b0906141bb565b9361242f565b6124be6115e5565b60405160609290921b6001600160601b031916602083015260148252906124e481610aa8565b6001600160a01b036124f461474b565b1691308303612507576115bb9250611835565b90823b15610206576040516301c85d5760e51b81525f80516020614922833981519152600482015260a06024820152925f92849283918591839161256c91906125549060a485019061209d565b908460448501526003198483030160648501526102f4565b630500400560da1b608483015203925af180156105e05761258a5750565b806105d46115bb92610a5a565b60409061032a9392815281602082015201906102f4565b909193926125bc8383614417565b54946145cf60f11b6001600160f01b03198416016128ab576125fc6125f46038602860ff8516020188901c64ffffffffff1680611d58565b835190611641565b948564ffffffffff8860ff85166028026038011c16141595868097612883575b61284b5761262b908389614445565b95612635856140a9565b915f5b83518110156126df5761265161053f6105318387611dae565b906010808360581c161461266a575b6001915001612638565b8160601c3b15610206575f888c9388838d6126b08d604051998a9788968795630abd6b4560e31b875264ffffffffff8460ff84166028026038011c169260048801612b7b565b039260601c5af19182156105e0576001926126cc575b50612660565b806105d46126d992610a5a565b5f6126c6565b50939297949690969591955f965f975b8a60ff811660ff8b1610156127205750600160ff9164ffffffffff8a848d166028026038011c1601990116976126ef565b969991929497939598505f805160206148c283398151915264ffffffffff8561276c8c8a8a968e60409e65ffffffffffff60405198899860ff84166028026038011c1693169187612c61565b0390a261283a575b612788876127838b8987613152565b61413c565b5f5b815181101561282e576127a361053f6105318385611dae565b6020808260581c16146127ba575b5060010161278a565b60601c90813b15610206575f888c9364ffffffffff83886128018f8d8f8e90519b8c998a988997636358453360e01b895260ff84166028026038011c169260048801612b7b565b03925af19182156105e05760019261281b575b50906127b1565b806105d461282892610a5a565b5f612814565b50505050505050509050565b836128458785614417565b55612774565b604051632994042d60e21b81525f600482015264ffffffffff60ff85166028026038018a901c16602482018190526044820152606490fd5b506038602860ff8516020188901c64ffffffffff166128a46107a982612b02565b141561261c565b82604051906107e2826107d4836020830160209181520190565b6128cd611d65565b8051156110a2576020808201928352604080516742616c616e63657360401b661d189ddbdc9b1960ca1b0181840190815293519394909390928492830191905f5b82811061292b575050506119f2925003601f198101835282610ac3565b85518452948101948694509281019260010161290e565b91909161294d611d65565b908151156110a25760208201526040926040519060208201526020815261297381610aa8565b61297c82613b82565b92612985613f23565b905f5b8251811015612a10576129a161053f6105318386611dae565b9060049182808260581c16146129bd575b506001915001612988565b60601c803b1561020657855f9188836129ea968d519788958694859363964f667d60e01b8552840161212c565b03925af19182156105e057600192156129b257806105d4612a0a92610a5a565b5f6129b2565b50604051939590949093612a549184916742616c616e63657360401b661d189ddbdc9b1960ca1b01905f805160206148e2833981519152908061191b868d836120d0565b5f5b81518110156119af57612a6f61053f6105318385611dae565b6008808260581c1614612a86575b50600101612a56565b60601c90813b1561020657845163a8ba872160e01b8152915f908390818381612ab38a8e6004840161212c565b03925af19182156105e057600192612acd575b5090612a7d565b806105d4612ada92610a5a565b5f612ac6565b60609061032a9392613a3160f11b8252602082015281604082015201906102f4565b9064ffffffffff809216918211610d9157565b91909164ffffffffff80809416911601918211610d9157565b9294919360ff612b5661032a989664ffffffffff94875260e0602088015260e087019061209d565b961660408501521660608301525f608083015260a082015260c08184039101526102f4565b9294919360ff612ba361032a989664ffffffffff94875260e0602088015260e087019061209d565b961660408501525f606085015216608083015260a082015260c08184039101526102f4565b9391612bec60ff9161032a999793989598875260e0602088015260e087019061209d565b9616604085015264ffffffffff809216606085015216608083015260a082015260c08184039101526102f4565b91939061032a959360ff612c3c65ffffffffffff9360c0875260c087019061209d565b961660208501521660408301525f6060830152608082015260a08184039101526102f4565b929365ffffffffffff61032a979560ff612c8c64ffffffffff9599969960c0895260c089019061209d565b98166020870152166040850152166060830152608082015260a08184039101526102f4565b9296959193929091906145cf60f11b6001600160f01b0319821601612fda57612cfe612cf664ffffffffff861664ffffffffff8560ff8a166028026038011c16611d58565b875190611641565b968764ffffffffff8460ff89166028026038011c16141597888099612fb2575b612f775764ffffffffff8460ff89166028026038011c1664ffffffffff8b1611612f4457612d4d908785614445565b97612d57836140a9565b915f5b8351811015612dee57612d7361053f6105318387611dae565b6010808260581c1614612d8a575b50600101612d5a565b60601c90813b15610206575f8a8e938a838f612dc18f918e8e936040519b8c998a988997630abd6b4560e31b895260048901612bc8565b03925af19182156105e057600192612ddb575b5090612d81565b806105d4612de892610a5a565b5f612dd4565b50959098949197929996939964ffffffffff8816985f995b60ff871660ff8c161015612e3557600160ff9164ffffffffff8f848f166028026038011c16019b011699612e06565b86999c50879a5065ffffffffffff5f805160206148c283398151915291612e738886999c9f9695979a989b8b8d60409b604051978897169187612c61565b0390a2612f33575b612e928664ffffffffff8c166106918a8988613152565b5f5b8151811015612f2657612ead61053f6105318385611dae565b6020808260581c1614612ec4575b50600101612e94565b60601c90813b15610206575f898d938983898f8e612ef9918e8d519b8c998a988997636358453360e01b895260048901612bc8565b03925af19182156105e057600192612f13575b5090612ebb565b806105d4612f2092610a5a565b5f612f0c565b5050505050505050509050565b87612f3e8685614417565b55612e7b565b604051637e8578d360e01b815264ffffffffff60ff891660280260380186901c811660048301528b166024820152604490fd5b604051632994042d60e21b815264ffffffffff8b81166004830152878116602483015260ff891660280260380186901c166044820152606490fd5b5064ffffffffff8460ff89166028026038011c16612fd36107a9888d612b15565b1415612d1e565b604051906107e2826107d4836020830160209181520190565b6953746f7265486f6f6b7360301b66746273746f726560c81b01815281516020918201928201915f5b82811061302a575050505090565b83518552938101939281019260010161301c565b6a53797374656d486f6f6b7360281b661d189ddbdc9b1960ca1b01815281516020918201928201915f5b828110613076575050505090565b835185529381019392810192600101613068565b6f46756e6374696f6e53656c6563746f72661d189ddbdc9b1960ca1b01815281516020918201928201915f5b8281106130c4575050505090565b8351855293810193928101926001016130b6565b6653797374656d7360481b661d189ddbdc9b1960ca1b01815281516020918201928201915f5b82811061310c575050505090565b8351855293810193928101926001016130fe565b90815281516020918201928201915f5b82811061313e575050505090565b835185529381019392810192600101613130565b6120366131795f805160206149628339815191529493604051928391602083019586613120565b51902060f89190911b6001600160f81b031916181890565b60408051601f19603f85830101811690925283815292602080850193925b818310156131e1575050806131c5575b50505090565b5f199060031b1c908183511691199054161790525f80806131bf565b816001858394959796548752019401940191906131af565b61032a919260405193601f19603f83870101166040528185526020850192613647565b9061032a94926132376132459260808552608085019061209d565b9083820360208501526102f4565b92604082015260608184039101526102f4565b9695949061329f9361327e60a0969461328c938b5260c060208c015260c08b019061209d565b9089820360408b01526102f4565b91606088015286820360808801526102f4565b930152565b9295949192916001600160f01b03198316611bdd60f21b146134bf576132c9836140a9565b5f5b815181101561335c576132e461053f6105318385611dae565b6001808260581c16146132fb575b506001016132cb565b60601c90813b15610206575f878b9387838a61332f8a8f6040519a8b98899788966315c19b2760e21b885260048801613258565b03925af19182156105e057600192613349575b50906132f2565b806105d461335692610a5a565b5f613342565b5092949094604093815f80516020614942833981519152848b6133866040519283928c8b8561321c565b0390a26133a26133968584613cc1565b875160208901916144b8565b60ff808860e01c1680613444575b50505f5b815181101561282e576133cd61053f6105318385611dae565b6002808260581c16146133e4575b506001016133b4565b60601c90813b15610206575f888c938883886134178f8c8f519a8b9889978896635b28cdaf60e01b885260048801613258565b03925af19182156105e057600192613431575b50906133db565b806105d461343e92610a5a565b5f61342a565b9690989293958a61345887879b959b614417565b555f96602081015b8b8916908d8b8310156134ac578d928261349e60019464ffffffffff8f958f8f9761348e916134a399613152565b956028026038011c1680946144b8565b611641565b99011697613460565b5050509493995095509550955f806133b0565b509093945f80516020614942833981519152936123d2916040519485948561321c565b5f805b600181106134f1575090565b9060ff6503001811010160cd1b83601b0360031b1c168101809111610d9157906001016134e5565b5f805b60028110613528575090565b9060ff6503001811010160cd1b83601b0360031b1c168101809111610d91579060010161351c565b5f929190835b60ff808416861015613580578286601b0360031b1c168101809111610d9157600190940193613556565b5093505050565b60208210156135b7575b80548260031b1b9160200390816020116135aa57505090565b600101549060031b1c1790565b601f82169160051c01613591565b602081519101fd5b91909181156135e85761032a926135e391613cc1565b613191565b5050506040516135f781610a72565b5f815290565b9291925b6020908183106136215780548552930192601f1990910190600101613601565b9190509291928061363157505050565b5f199060031b1c90818351169119905416179052565b909392919380613676575b509290926020908183106136215780548552930192601f1990910190600101613601565b60208110156136d8575b80156136525791939082602003908183105f146136cc575f198360031b1c5b8154818851169119908660031b1b16178652818311156119af57600101940191601f19910101925f613652565b5f198260031b1c61369f565b90601f908260051c019116613680565b90602061032a92818152019061209d565b93929161329f90604092865260606020870152606086019061209d565b9092916001600160f01b03198216611bdd60f21b146138bf57613738826140a9565b5f5b81518110156137c25761375361053f6105318385611dae565b9060409182808260581c161461376f575b50600191500161373a565b60601c803b15610206579151639faeaf4560e01b8152915f90839081838161379c8a8e8d600485016136f9565b03925af19182156105e0576001921561376457806105d46137bc92610a5a565b5f613764565b5093604094835f805160206149a2833981519152604051806137e486826136e8565b0390a26138066137f48386613cc1565b6138008560f01c6115fb565b906140ef565b60ff8360e01c166138a8575b5f5b815181101561389f5761382d61053f6105318385611dae565b6080808260581c1614613844575b50600101613814565b60601c90813b156102065787516383b5c95b60e01b8152915f9083908183816138728b8b8e600485016136f9565b03925af19182156105e05760019261388c575b509061383b565b806105d461389992610a5a565b5f613885565b50505050509050565b6138ba6138b58386614417565b6145f0565b613812565b5090916123d25f805160206149a283398151915291604051918291826136e8565b91906138ea611d65565b8051156110a25780826020613900930152611c14565b5050906034602083015160601c92015160f81c821561395c571561394d575b60101b6001600160901b031916613939576103f592614675565b90613947916103f593614645565b90151591565b6139578482611795565b61391f565b50613966816123f9565b604051637df8867360e11b81529182916107849160048401612597565b92919061398e611d65565b8051156110a257808360206139a4930152611c14565b5050916034602084015160601c93015160f81c831561395c5715613a21575b816139f2575b60101b6001600160901b0319166139e3576103f593614695565b9061394792916103f594614666565b613a1c600160801b600160f01b038216616e7360f01b17613a168461349e836128c5565b90612942565b6139c9565b613a2b8582611795565b6139c3565b60405160208160208101936f4e616d6573706163654f776e65720000661d189ddbdc9b1960ca1b0185526040820160208251919201935f5b828110613a9a57505050613a85925003601f198101835282610ac3565b5190205f805160206149028339815191521890565b855184529481019486945092810192600101613a68565b6040516020816020810193655461626c657360501b66746273746f726560c81b0185526040820160208251919201935f5b828110613aff57505050613a85925003601f198101835282610ac3565b855184529481019486945092810192600101613ae2565b60405160208160208101936f5573657244656c65676174696f6e436f661d189ddbdc9b1960ca1b0185526040820160208251919201935f5b828110613b6b57505050613a85925003601f198101835282610ac3565b855184529481019486945092810192600101613b4e565b60405160208160208101936742616c616e63657360401b661d189ddbdc9b1960ca1b0185526040820160208251919201935f5b828110613bd257505050613a85925003601f198101835282610ac3565b855184529481019486945092810192600101613bb5565b60405160208160208101936f496e69744d6f64756c65416464726573661d189ddbdc9b1960ca1b0185526040820160208251919201935f5b828110613c3e57505050613a85925003601f198101835282610ac3565b855184529481019486945092810192600101613c21565b60405160208160208101936f496e7374616c6c65644d6f64756c6573661d189ddbdc9b1960ca1b0185526040820160208251919201935f5b828110613caa57505050613a85925003601f198101835282610ac3565b855184529481019486945092810192600101613c8d565b90613a8561203691604051928391602083019586613120565b905f928392613d27605460405180936020613cfe81840197888151938492016102d3565b82019060018060601b03199060601b166020820152876034820152036034810184520182610ac3565b51915af4613d33614616565b90156135c55790565b919091613d47611d7f565b908151156110a2576001600160a01b031660208201528051600191908210156110a257604093604082015260405193600160f81b6020860152828552613d8c85610aa8565b613d9582613c55565b94613d9e614047565b5f855b613e8a575b50613de9828697986040515f805160206148e28339815191526f496e7374616c6c65644d6f64756c6573661d189ddbdc9b1960ca1b01918061191b868c836120d0565b5f945b613df9575b505050505050565b8051851015613e855784613e1461053f610531899885611dae565b6008808260581c1614613e2b575b50850194613dec565b60601c9550853b15610206575f8451809763a8ba872160e01b8252818381613e57898c600484016121a0565b03925af19081156105e05787968792613e72575b5090613e22565b806105d4613e7f92610a5a565b5f613e6b565b613df1565b8151811015613f1e5780613ea561053f610531899486611dae565b60049081808260581c1614613ebf575b5050810190613da1565b90925060601c803b1561020657845f918883613eef968a519788958694859363964f667d60e01b855284016121a0565b03925af19081156105e05787928392613f0b575b819250613eb5565b806105d4613f1892610a5a565b5f613f03565b613da6565b613f2b611d65565b8051156110a257613fe0613fd861032a926742616c616e63657360401b661d189ddbdc9b1960ca1b01602082015264ffffffffff604051915f805160206149628339815191526020840184613f808483612ff3565b0394613f94601f1996878101835282610ac3565b5190201892613fbb6040519182613faf602082019586612ff3565b03908101835282610ac3565b5190205f80516020614982833981519152185460381c1690613191565b8051906146a4565b6146f9565b613fed611d65565b8051156110a257613fe0613fd861032a926f496e69744d6f64756c65416464726573661d189ddbdc9b1960ca1b01602082015264ffffffffff604051915f805160206149628339815191526020840184613f808483612ff3565b61404f611d65565b8051156110a257613fe0613fd861032a926f496e7374616c6c65644d6f64756c6573661d189ddbdc9b1960ca1b01602082015264ffffffffff604051915f805160206149628339815191526020840184613f808483612ff3565b6140b1611d65565b8051156110a257613fd88161032a936020613fe094015264ffffffffff604051915f805160206149628339815191526020840184613f808483612ff3565b81519060208093019190925b8082101561412457508061410e57505050565b5f199060031b1c90818354169119905116179055565b6001839482939451815501930191601f1901906140fb565b81519060208093019190925b8082101561415b57508061410e57505050565b6001839482939451815501930191601f190190614148565b81519060208093019190925b8082101561419257508061410e57505050565b6001839482939451815501930191601f19019061417f565b82516115bb936020019290916144eb565b5f5b601081106141ec575b6040516001600160801b03199092166020830152601082526141e782610aa8565b815290565b6001600160801b03198216600382901b1b6001600160f81b03191615614214576001016141bd565b6141c6565b90816020910312610206575190565b6001600160a01b0361423861474b565b1630810361424a5750611df990613be9565b604051638c364d5960e01b81525f805160206149228339815191526004820152608060248201529160209183918290819061428990608483019061209d565b5f6044830152630500400560da1b606483015203915afa9081156105e0575f916142b1575090565b61032a915060203d6020116142d3575b6142cb8183610ac3565b810190614219565b503d6142c1565b6142e2611d65565b8051156110a2576020808201928352604080516a5265736f7572636549647360281b66746273746f726560c81b0181840190815293519394909390928492830191905f5b82811061435c57505050614343925003601f198101835282610ac3565b5190205f80516020614902833981519152185460f81c90565b855184529481019486945092810192600101614326565b61437b611d7f565b908151156110a25760209260208301918252825190600191600110156110a2576001600160a01b031660408085019190915280516f5265736f757263654163636573730000661d189ddbdc9b1960ca1b0160208201908152945194959094859492850193915f5b828110614401575050505050906143439103601f198101835282610ac3565b84518652879650948101949381019383016143e2565b9061443061203691604051928391602083019586613120565b5190205f805160206149828339815191521890565b909164ffffffffff80821161449f578060ff66ffffffffffffff85169516602802603801948185871c1684818110155f14614495570301925b16841b931b199166ffffffffffffff191617161790565b900390039261447e565b604051637149a3c160e01b815260048101839052602490fd5b9291925b6020908183106144dc5784518155930192601f19909101906001016144bc565b92939190508061410e57505050565b90939291938061451a575b509290926020908183106144dc5784518155930192601f19909101906001016144bc565b602081101561456b575b80156144f65791939082602003908360031b5f198460031b1c19811c908751901c9080198354169116178155818311156119af57600101940191601f19910101925f6144f6565b90601f908260051c019116614524565b614583611d65565b8051156110a257613fd88161032a936020613fe094015264ffffffffff604051915f8051602061496283398151915260208401846145c1848361303e565b03946145d5601f1996878101835282610ac3565b5190201892613fbb6040519182613faf60208201958661303e565b60019060018101808211610d9157905b81811061460c57505050565b5f81558201614600565b3d15614640573d9061462782610ae6565b916146356040519384610ac3565b82523d5f602084013e565b606090565b906146535f93928493614780565b9082602083519301915af16103f5614616565b5f9391614653918594936147c8565b906146835f93928493614780565b90602082519201905af46103f5614616565b5f9391614683918594936147c8565b90815181116146c3576001600160801b031660209190910160801b1790565b6040516323230fa360e01b815260606004820152925082916146e99060648401906102f4565b905f602484015260448301520390fd5b8060801c906015809160018060801b031604604051926020906020850160208460051b8701016040528386525f5b8481106147375750505050505090565b825182529185019190830190600101614727565b7f629a4c26e296b22a8e0856e9f6ecb2d1008d7e00081111962cd175fa7488e175546001600160a01b03168061032a57503390565b605461032a91604051938161479f8693518092602080870191016102d3565b82019060018060601b03199060601b1660208201525f6034820152036034810184520182610ac3565b60549061032a9260405194826147e88794518092602080880191016102d3565b83019160018060601b03199060601b1660208301526034820152036034810184520182610ac3565b5f602091604051838101906301ffc9a760e01b80835260248201526024815261483881610a8d565b5191617530fa5f513d82614858575b5081614851575090565b9050151590565b6020111591505f614847565b5f602091604051838101906301ffc9a760e01b825263ffffffff60e01b60248201526024815261483881610a8d565b5f602091604051838101906301ffc9a760e01b825262dfba3960e71b60248201526024815261483881610a8d56fefe158a7adba34e256807c8a149028d3162918713c3838afc643ce9f96716ebfd8c0b5119d4cec7b284c6b1b39252a03d1e2f2d7451a5895562524c113bb952be86425bff6b57326c7859e89024fe4f238ca327a1ae4a230180dd2f0e88aaa7d97462776f726c64000000000000000000496e69744d6f64756c654164647265738dbb3a9672eebfd3773e72dd9c102393436816d832c7ba9e1e1ac8fcadcac7a93b4102da22e32d82fc925482184f16c09fd4281692720b87d124aef6da48a0f114e2fcc58e58e68ec7edc30c8d50dccc3ce2714a623ec81f46b6a63922d765690e1f72f429eb97e64878619984a91e687ae91610348b9ff4216782cc96e49d07","linkReferences":{}},"methodIdentifiers":{"call(bytes32,bytes)":"3ae7af08","callFrom(address,bytes32,bytes)":"894ecc58","creator()":"02d05d3f","deleteRecord(bytes32,bytes32[])":"505a181d","getDynamicField(bytes32,bytes32[],uint8)":"1e788977","getDynamicFieldLength(bytes32,bytes32[],uint8)":"dbbf0e21","getDynamicFieldSlice(bytes32,bytes32[],uint8,uint256,uint256)":"4dc77d97","getField(bytes32,bytes32[],uint8)":"d03edb8c","getField(bytes32,bytes32[],uint8,bytes32)":"05242d2f","getFieldLayout(bytes32)":"3a77c2c2","getFieldLength(bytes32,bytes32[],uint8)":"a53417ed","getFieldLength(bytes32,bytes32[],uint8,bytes32)":"9f1fcf0a","getKeySchema(bytes32)":"d4285dc2","getRecord(bytes32,bytes32[])":"cc49db7e","getRecord(bytes32,bytes32[],bytes32)":"419b58fd","getStaticField(bytes32,bytes32[],uint8,bytes32)":"8c364d59","getValueSchema(bytes32)":"e228a4a3","initialize(address)":"c4d66de8","installRootModule(address,bytes)":"af068c9e","popFromDynamicField(bytes32,bytes32[],uint8,uint256)":"d9c03a04","pushToDynamicField(bytes32,bytes32[],uint8,bytes)":"150f3262","setDynamicField(bytes32,bytes32[],uint8,bytes)":"ef6ea862","setField(bytes32,bytes32[],uint8,bytes)":"114a7266","setField(bytes32,bytes32[],uint8,bytes,bytes32)":"3708196e","setRecord(bytes32,bytes32[],bytes,bytes32,bytes)":"298314fb","setStaticField(bytes32,bytes32[],uint8,bytes,bytes32)":"390baae0","spliceDynamicData(bytes32,bytes32[],uint8,uint40,uint40,bytes)":"c0a2895a","spliceStaticData(bytes32,bytes32[],uint48,bytes)":"b047c1eb","storeVersion()":"c1122229","worldVersion()":"6951955d"},"id":135}