{"abi":[{"type":"function","name":"_msgSender","inputs":[],"outputs":[{"name":"sender","type":"address","internalType":"address"}],"stateMutability":"view"},{"type":"function","name":"_msgValue","inputs":[],"outputs":[{"name":"value","type":"uint256","internalType":"uint256"}],"stateMutability":"view"},{"type":"function","name":"_world","inputs":[],"outputs":[{"name":"","type":"address","internalType":"address"}],"stateMutability":"view"},{"type":"function","name":"createEffect","inputs":[{"name":"effectType","type":"uint8","internalType":"enum EffectType"},{"name":"name","type":"string","internalType":"string"},{"name":"effectStats","type":"bytes","internalType":"bytes"}],"outputs":[{"name":"effectStatsId","type":"bytes32","internalType":"bytes32"}],"stateMutability":"nonpayable"},{"type":"function","name":"getAppliedEffectInfo","inputs":[{"name":"appliedEffectId","type":"bytes32","internalType":"bytes32"}],"outputs":[{"name":"_effectStatsId","type":"bytes32","internalType":"bytes32"},{"name":"_timestampApplied","type":"uint256","internalType":"uint256"},{"name":"_effectExpiredTime","type":"uint256","internalType":"uint256"},{"name":"_turnApplied","type":"uint256","internalType":"uint256"}],"stateMutability":"pure"},{"type":"function","name":"getEffectExpired","inputs":[{"name":"appliedEffectId","type":"bytes32","internalType":"bytes32"}],"outputs":[{"name":"_effectExpiredTimestamp","type":"uint256","internalType":"uint256"}],"stateMutability":"pure"},{"type":"function","name":"getEffectStatId","inputs":[{"name":"effectId","type":"bytes32","internalType":"bytes32"}],"outputs":[{"name":"_effectStatsId","type":"bytes32","internalType":"bytes32"}],"stateMutability":"pure"},{"type":"function","name":"getEffectTimestamp","inputs":[{"name":"appliedEffectId","type":"bytes32","internalType":"bytes32"}],"outputs":[{"name":"_timestampApplied","type":"uint256","internalType":"uint256"}],"stateMutability":"pure"},{"type":"function","name":"getEffectTurnApplied","inputs":[{"name":"appliedEffectId","type":"bytes32","internalType":"bytes32"}],"outputs":[{"name":"_turnApplied","type":"uint256","internalType":"uint256"}],"stateMutability":"pure"},{"type":"function","name":"getMagicDamageStats","inputs":[{"name":"effectId","type":"bytes32","internalType":"bytes32"}],"outputs":[{"name":"_magicDamageStats","type":"tuple","internalType":"struct MagicDamageStatsData","components":[{"name":"attackModifierBonus","type":"int256","internalType":"int256"},{"name":"bonusDamage","type":"int256","internalType":"int256"},{"name":"critChanceBonus","type":"int256","internalType":"int256"}]}],"stateMutability":"view"},{"type":"function","name":"getPhysicalDamageStats","inputs":[{"name":"effectId","type":"bytes32","internalType":"bytes32"}],"outputs":[{"name":"_physicalDamageStats","type":"tuple","internalType":"struct PhysicalDamageStatsData","components":[{"name":"armorPenetration","type":"int256","internalType":"int256"},{"name":"attackModifierBonus","type":"int256","internalType":"int256"},{"name":"bonusDamage","type":"int256","internalType":"int256"},{"name":"critChanceBonus","type":"int256","internalType":"int256"}]}],"stateMutability":"view"},{"type":"function","name":"getStatusEffectStats","inputs":[{"name":"effectId","type":"bytes32","internalType":"bytes32"}],"outputs":[{"name":"_statusEffectStats","type":"tuple","internalType":"struct StatusEffectStatsData","components":[{"name":"agiModifier","type":"int256","internalType":"int256"},{"name":"armorModifier","type":"int256","internalType":"int256"},{"name":"damagePerTick","type":"int256","internalType":"int256"},{"name":"hpModifier","type":"int256","internalType":"int256"},{"name":"intModifier","type":"int256","internalType":"int256"},{"name":"resistanceStat","type":"uint8","internalType":"enum ResistanceStat"},{"name":"strModifier","type":"int256","internalType":"int256"}]}],"stateMutability":"view"},{"type":"function","name":"supportsInterface","inputs":[{"name":"interfaceId","type":"bytes4","internalType":"bytes4"}],"outputs":[{"name":"","type":"bool","internalType":"bool"}],"stateMutability":"pure"},{"type":"event","name":"Store_SetRecord","inputs":[{"name":"tableId","type":"bytes32","indexed":true,"internalType":"ResourceId"},{"name":"keyTuple","type":"bytes32[]","indexed":false,"internalType":"bytes32[]"},{"name":"staticData","type":"bytes","indexed":false,"internalType":"bytes"},{"name":"encodedLengths","type":"bytes32","indexed":false,"internalType":"EncodedLengths"},{"name":"dynamicData","type":"bytes","indexed":false,"internalType":"bytes"}],"anonymous":false},{"type":"event","name":"Store_SpliceStaticData","inputs":[{"name":"tableId","type":"bytes32","indexed":true,"internalType":"ResourceId"},{"name":"keyTuple","type":"bytes32[]","indexed":false,"internalType":"bytes32[]"},{"name":"start","type":"uint48","indexed":false,"internalType":"uint48"},{"name":"data","type":"bytes","indexed":false,"internalType":"bytes"}],"anonymous":false},{"type":"error","name":"InvalidEffectConfig","inputs":[]},{"type":"error","name":"NotEffectType","inputs":[]},{"type":"error","name":"Slice_OutOfBounds","inputs":[{"name":"data","type":"bytes","internalType":"bytes"},{"name":"start","type":"uint256","internalType":"uint256"},{"name":"end","type":"uint256","internalType":"uint256"}]},{"type":"error","name":"World_AccessDenied","inputs":[{"name":"resource","type":"string","internalType":"string"},{"name":"caller","type":"address","internalType":"address"}]}],"bytecode":{"object":"0x60808060405234610016576135c6908161001b8239f35b5f80fdfe60806040526004361015610011575f80fd5b5f3560e01c806301ffc9a7146100e4578063119df25f146100df5780633d177b1d146100da57806345ec9354146100d557806346946498146100d05780634b788b81146100cb57806352b9eb46146100c65780636541666a146100c157806366066e7a146100bc5780638a227e30146100b7578063c1591bb8146100b2578063cda094ca146100ad5763e1af802c146100a8575f80fd5b6108bb565b610826565b61069f565b610649565b610585565b6104ab565b610455565b6103a0565b61022e565b61020f565b610186565b610148565b3461013a57602036600319011261013a5760043563ffffffff60e01b811680910361013a5760209063b5dee12760e01b8114908115610129575b506040519015158152f35b6301ffc9a760e01b1490505f61011e565b5f80fd5b5f91031261013a57565b3461013a575f36600319011261013a576020610162610cdc565b6040516001600160a01b039091168152f35b602090600319011261013a5760043590565b3461013a5761019436610174565b60405190633d177b1d60e01b8252600482015260208160248173__$666bd16c4b93f49d1a4b799865d2ca5533$__5af4801561020a576020915f916101dd575b50604051908152f35b6101fd9150823d8411610203575b6101f581836107b2565b8101906108d5565b5f6101d4565b503d6101eb565b6108e4565b3461013a575f36600319011261013a576020604051601f193601358152f35b3461013a57610269602061024136610174565b6102496108ef565b506040518093819263182b237760e31b8352600483019190602083019252565b038173__$666bd16c4b93f49d1a4b799865d2ca5533$__5af490811561020a575f91610312575b5061029a81610d6f565b600281516102a781610331565b6102b081610331565b1490811591610305575b506102f3576102cb6102ef91610dce565b60408051825181526020808401519082015291810151908201529081906060820190565b0390f35b6040516336fb4f7160e21b8152600490fd5b602001511590505f6102ba565b61032b915060203d602011610203576101f581836107b2565b5f610290565b6004111561033b57565b634e487b7160e01b5f52602160045260245ffd5b91909160c08060e0830194805184526020810151602085015260408101516040850152606081015160608501526080810151608085015260a081015161039481610331565b60a08501520151910152565b3461013a576103bb60206103b336610174565b61024961090d565b038173__$666bd16c4b93f49d1a4b799865d2ca5533$__5af490811561020a575f91610436575b506103ec81610d6f565b600381516103f981610331565b61040281610331565b1490811591610429575b506102f35761041d6102ef91610e1e565b6040519182918261034f565b602001511590505f61040c565b61044f915060203d602011610203576101f581836107b2565b5f6103e2565b3461013a5761046336610174565b6040519063295cf5a360e11b8252600482015260208160248173__$666bd16c4b93f49d1a4b799865d2ca5533$__5af4801561020a576020915f916101dd5750604051908152f35b3461013a576104c660206104be36610174565b610249610943565b038173__$666bd16c4b93f49d1a4b799865d2ca5533$__5af490811561020a575f91610566575b506104f781610d6f565b6001815161050481610331565b61050d81610331565b1490811591610559575b506102f3576105286102ef91610ead565b6040519182918291909160608060808301948051845260208101516020850152604081015160408501520151910152565b602001511590505f610517565b61057f915060203d602011610203576101f581836107b2565b5f6104ed565b3461013a5761059336610174565b60405190633303373d60e11b8252600482015260808160248173__$666bd16c4b93f49d1a4b799865d2ca5533$__5af4801561020a575f905f925f905f926105ff575b50906102ef91604051948594859094939260609260808301968352602083015260408201520152565b93505050506080813d608011610641575b8161061d608093836107b2565b8101031261013a5780516020820151604083015160609093015190926102ef6105d6565b3d9150610610565b3461013a5761065736610174565b604051906308a227e360e41b8252600482015260208160248173__$666bd16c4b93f49d1a4b799865d2ca5533$__5af4801561020a576020915f916101dd5750604051908152f35b3461013a576106ad36610174565b6040519063182b237760e31b8252600482015260208160248173__$666bd16c4b93f49d1a4b799865d2ca5533$__5af4801561020a576020915f916101dd5750604051908152f35b6004111561013a57565b634e487b7160e01b5f52604160045260245ffd5b606081019081106001600160401b0382111761072e57604052565b6106ff565b60e081019081106001600160401b0382111761072e57604052565b608081019081106001600160401b0382111761072e57604052565b6001600160401b03811161072e57604052565b604081019081106001600160401b0382111761072e57604052565b60a081019081106001600160401b0382111761072e57604052565b601f909101601f19168101906001600160401b0382119082101761072e57604052565b6001600160401b03811161072e57601f01601f191660200190565b9291926107fc826107d5565b9161080a60405193846107b2565b82948184528183011161013a578281602093845f960137010152565b3461013a57606036600319011261013a57600435610843816106f5565b6001600160401b0360243581811161013a573660238201121561013a576108749036906024816004013591016107f0565b9160443591821161013a573660238301121561013a576102ef926108a56108ab9336906024816004013591016107f0565b91610b38565b6040519081529081906020820190565b3461013a575f36600319011261013a576020610162611ad9565b9081602091031261013a575190565b6040513d5f823e3d90fd5b604051906108fc82610713565b5f6040838281528260208201520152565b6040519061091a82610733565b5f60c0838281528260208201528260408201528260608201528260808201528260a08201520152565b604051906109508261074e565b5f6060838281528260208201528260408201520152565b5f5b8381106109785750505f910152565b8181015183820152602001610969565b90606051918281525f5b8381106109b15750825f602080949584010152601f8019910116010190565b806020916080015182828501015201610992565b906020916109de81518092818552858086019101610967565b601f01601f1916010190565b9060206109fb9281815201906109c5565b90565b919082608091031261013a57604051610a168161074e565b60608082948051845260208101516020850152604081015160408501520151910152565b5190811515820361013a57565b9091818303610180811261013a5760e01361013a576109fb610160610ac4604051610a7181610733565b855181526020860151602082015260408601516040820152606086015160608201526080860151608082015260a0860151610aab816106f5565b60a082015260c086015160c08201529560e086016109fe565b9301610a3a565b9081606091031261013a576040805191610ae483610713565b80518352602081015160208401520151604082015290565b9081608091031261013a57606060405191610b168361074e565b8051835260208101516020840152604081015160408401520151606082015290565b929192610b4c610b46610cdc565b30610f08565b604093610b97610b8a865194602095610b7a81610b6c89820194856109ea565b03601f1981018352826107b2565b5190206001600160c01b03191690565b6001600160c01b03191690565b94610ba18661100a565b610cd657610bae83610331565b60018303610bdd5750610bcf8184610bdb95610bd594518301019101610afc565b85611383565b8361144d565b565b610be683610331565b60028303610c125750610c078184610bdb95610c0d94518301019101610acb565b856112c4565b610bd5565b9192610c1d84610331565b60038414610c32575b505050610bdb90610bd5565b9081610c449282518301019101610a47565b928082939201511580155f14610ca257506060830151610c925780820151610c92575091610c84610c8a92610c7e610bdb96955b8961102d565b876110cb565b856111e1565b905f80610c26565b516359f017f760e11b8152600490fd5b610cbd575b5091610c84610c8a92610c7e610bdb9695610c78565b6060830151610ca757516359f017f760e11b8152600490fd5b50505050565b36603319013560601c908115610cee57565b339150565b60408051919082016001600160401b0381118382101761072e576040525f6020838281520152565b60405190610d288261077c565b6001825260203681840137565b634e487b7160e01b5f52603260045260245ffd5b805115610d565760200190565b610d35565b8051821015610d565760209160051b010190565b610d77610cf3565b50610d80610d1b565b805115610d5657610d959160208201526115c7565b5050610d9f610cf3565b906021602082015160f81c91610db483610331565b015160f81c15156020830152610dc981610331565b815290565b610dd66108ef565b50610ddf610d1b565b805115610d5657610df4916020820152611688565b5050610dfe6108ef565b906020810151906060604082015191015160408401526020830152815290565b610e2661090d565b50610e2f610d1b565b805115610d5657610e4491602082015261171e565b5050610e4e61090d565b90602081015190604081015190606081015190608081015190610e9460a08201519160c160c082015160f81c91610e8483610331565b015160c089015260a0880161184f565b6080860152606085015260408401526020830152815290565b610eb5610943565b50610ebe610d1b565b805115610d5657610ed39160208201526117b8565b5050610edd610943565b9060208101519060408101519060806060820151910151606085015260408401526020830152815290565b610f10610d1b565b805115610d56576001600160a01b039091166020820152610f3090611883565b610f4d82600160801b600160f01b038316616e7360f01b17612d4b565b8015610ffa575b15610f5d575050565b608081901b6001600160801b03191690610fba90601081901b6001600160901b03191680610feb5750610f8e611cb0565b925b80610fda5750610b6c610fa1611cb0565b6040519485936001600160f01b03191660208501611cd2565b610fd660405192839263d787b73760e01b84526004840161185b565b0390fd5b610fe6610b6c91612d90565b610fa1565b610ff490612d90565b92610f90565b506110058282612d4b565b610f54565b611012610d1b565b805115610d5657611027916020820152611934565b60f81c90565b908051906020810151906040810151606082015160808301519160c060a08501519461105886610331565b01519460405196602088015260408701526060860152608085015260a084015261108181610331565b60f81b60c083015260c18083019190915281526101008101916001600160401b0383118284101761072e57610bdb926040526110bb610d1b565b906110c582610d49565b52611a5d565b81519160208101519060606040820151910151916040519460208601526040850152606084015260808301526080825261110482610797565b61110c610d1b565b90815115610d565760208201526001600160a01b03611129611ad9565b1630810361113c575090610bdb91611eb8565b90813b1561013a575f91611195836111a8936111bd6040519788968795869463298314fb60e01b86526f53746174757345666665637456616c69631d18955160e21b01600487015260a0602487015260a4860190611594565b60031992838683030160448701526109c5565b90846064850152838203016084840152610988565b03925af1801561020a576111ce5750565b806111db610bdb92610769565b8061013e565b906111ea610d1b565b91825115610d5657602083015260405190151560f81b6020820152600181526112128161077c565b6001600160a01b03611222611ad9565b169130830361123557610bdb92506128e7565b90823b1561013a576040516301c85d5760e51b81526f53746174757345666665637454617267631d18955160e21b01600482015260a06024820152925f9284928391859183916112a6919061128e9060a4850190611594565b908460448501526003198483030160648501526109c5565b630101000160d81b608483015203925af1801561020a576111ce5750565b815191604060208201519101519060405193602085015260408401526060830152606082526112f28261074e565b6112fa610d1b565b90815115610d565760208201526001600160a01b03611317611ad9565b1630810361132a575090610bdb916120ed565b90813b1561013a575f91611195836111a8936111bd6040519788968795869463298314fb60e01b86526f4d6167696344616d6167655374617473631d18955160e21b01600487015260a0602487015260a4860190611594565b8151916020810151906060604082015191015191604051946020860152604085015260608401526080830152608082526113bc82610797565b6113c4610d1b565b90815115610d565760208201526001600160a01b036113e1611ad9565b163081036113f4575090610bdb916122ed565b90813b1561013a575f91611195836111a8936111bd6040519788968795869463298314fb60e01b86526f506879736963616c44616d6167655374631d18955160e21b01600487015260a0602487015260a4860190611594565b6040519161145a81610331565b60f81b6020830152600160f81b6021830152600282526114798261077c565b611481610d1b565b90815115610d565760208201526001600160a01b0361149e611ad9565b163081036114b1575090610bdb916124ed565b90813b1561013a5760405163298314fb60e01b8152664566666563747360481b631d18955160e21b01600482015260a06024820152925f92849290918391859183916111bd91906111a8906111959060a4860190611594565b81601f8201121561013a578051611520816107d5565b9261152e60405194856107b2565b8184526020828401011161013a576109fb9160208085019101610967565b909160608284031261013a5781516001600160401b03929083811161013a578461157791830161150a565b93602082015193604083015190811161013a576109fb920161150a565b9081518082526020808093019301915f5b8281106115b3575050505090565b8351855293810193928101926001016115a5565b6001600160a01b036115d7611ad9565b163081036115f057506115e990611b22565b9192909190565b60405163419b58fd60e01b8152664566666563747360481b631d18955160e21b0160048201526060602482015292915f91849182908190611635906064830190611594565b64020200010160d01b604483015203915afa90811561020a575f80935f9361165e575b50929190565b9193505061167e91503d805f833e61167681836107b2565b81019061154c565b929092915f611658565b6001600160a01b03611698611ad9565b163081036116aa57506115e990611b9b565b60405163419b58fd60e01b81526f4d6167696344616d6167655374617473631d18955160e21b0160048201526060602482015292915f918491829081906116f5906064830190611594565b6503001801010160cd1b604483015203915afa90811561020a575f80935f9361165e5750929190565b6001600160a01b0361172e611ad9565b1630810361174057506115e990611bf7565b60405163419b58fd60e01b81526f53746174757345666665637453746174631d18955160e21b0160048201526060602482015292915f9184918290819061178b906064830190611594565b690608380101010101000960ad1b604483015203915afa90811561020a575f80935f9361165e5750929190565b6001600160a01b036117c8611ad9565b163081036117da57506115e990611c54565b60405163419b58fd60e01b81526f506879736963616c44616d6167655374631d18955160e21b0160048201526060602482015292915f91849182908190611825906064830190611594565b660400200101010160c51b604483015203915afa90811561020a575f80935f9361165e5750929190565b61185882610331565b52565b906118736020919493946040845260408401906109c5565b6001600160a01b03909416910152565b6001600160a01b03611893611ad9565b163081036118a557506109fb90611d20565b604051638c364d5960e01b81526f53797374656d52656769737472790000661d189ddbdc9b1960ca1b01600482015260806024820152916020918391829081906118f3906084830190611594565b5f6044830152630100080160dd1b606483015203915afa90811561020a575f9161191b575090565b6109fb915060203d602011610203576101f581836107b2565b6001600160a01b03611944611ad9565b1630810361195657506109fb90611da2565b604051638c364d5960e01b8152664566666563747360481b631d18955160e21b016004820152608060248201529160209183918290819061199b906084830190611594565b6001604483015264020200010160d01b606483015203915afa90811561020a575f9161191b575090565b6001600160a01b036119d5611ad9565b163081036119e757506109fb90611e4c565b604051638c364d5960e01b81526f5265736f757263654163636573730000661d189ddbdc9b1960ca1b0160048201526080602482015291602091839182908190611a35906084830190611594565b5f6044830152630101000160d81b606483015203915afa90811561020a575f9161191b575090565b6001600160a01b03611a6d611ad9565b16308103611a80575090610bdb916126e7565b90813b1561013a575f91611195836111a8936111bd6040519788968795869463298314fb60e01b86526f53746174757345666665637453746174631d18955160e21b01600487015260a0602487015260a4860190611594565b7f629a4c26e296b22a8e0856e9f6ecb2d1008d7e00081111962cd175fa7488e175546001600160a01b0316806109fb57503390565b634e487b7160e01b5f52601160045260245ffd5b5f90611b2f606091612e67565b60405190602090601f1990816041850116604052600284526020840192600291925b81831015611b8357505080611b67575b50505092565b5f199060031b1c908183511691199054161790525f8080611b61565b81600185839495979654875201940194019190611b51565b5f90611ba8606091612e7c565b60405190602090601f199081609f850116604052606084526020840192606091925b81831015611bdf57505080611b675750505092565b81600185839495979654875201940194019190611bca565b5f90611c04606091612e91565b60405190602090601f19908161010085011660405260c18452602084019260c191925b81831015611c3c57505080611b675750505092565b81600185839495979654875201940194019190611c27565b5f90611c61606091612ea6565b60405190602090601f19908160bf850116604052608084526020840192608091925b81831015611c9857505080611b675750505092565b81600185839495979654875201940194019190611c83565b60405190611cbd8261077c565b60068252651e3937b7ba1f60d11b6020830152565b90916004939261ffff60f01b168252601d60f91b91826002820152611d01825180936020600385019101610967565b01906003820152611d1b8251809360208685019101610967565b010190565b60405160208160208101936f53797374656d52656769737472790000661d189ddbdc9b1960ca1b0185526040820160208251919201935f5b828110611d8b57505050611d75925003601f1981018352826107b2565b5190205f80516020613546833981519152185490565b855184529481019486945092810192600101611d58565b604051611db781610b6c602082019485612ac4565b5190205f80516020613546833981519152185f905f5b60018110611e20575081816020821015611e0a575b505080548260031b1b916020039081600111611dfd57505090565b600101549060031b1c1790565b90809350601f925060051c019116905f80611de2565b9160ff64020200010160d01b84601b0360031b1c168101809111611e475791600101611dcd565b611b0e565b60405160208160208101936f5265736f757263654163636573730000661d189ddbdc9b1960ca1b0185526040820160208251919201935f5b828110611ea157505050611d75925003601f1981018352826107b2565b855184529481019486945092810192600101611e84565b60408051655461626c657360501b66746273746f726560c81b01602082019081526f53746174757345666665637456616c69631d18955160e21b018284018190528383529295929491611f0a81610713565b5190205f80516020613546833981519152185491611f26613288565b905f5b8251811015611fcf57611f5d611f50611f428386610d5b565b516001600160581b03191690565b6001600160581b03191690565b6001808260581c1614611f74575b50600101611f29565b60601c90813b1561013a5788516315c19b2760e21b8152915f908390818381611fa28c8c8f60048501612f0c565b03925af191821561020a57600192611fbc575b5090611f6b565b806111db611fc992610769565b5f611fb5565b50945f80516020613566833981519152875180611fed868983612ed0565b0390a2612008611ffc85612ebb565b83516020850191613499565b60ff808460e01c16806120ae575b50505f5b81518110156120a557612033611f50611f428385610d5b565b6002808260581c161461204a575b5060010161201a565b60601c90813b1561013a578751635b28cdaf60e01b8152915f9083908183816120788b8b8e60048501612f0c565b03925af191821561020a57600192612092575b5090612041565b806111db61209f92610769565b5f61208b565b50505050509050565b5f6120b88761313f565b555f60805b82848316106120cd575050612016565b6001816120e486936120df868d612c7a565b61344e565b920116906120bd565b60408051655461626c657360501b66746273746f726560c81b01602082019081526f4d6167696344616d6167655374617473631d18955160e21b01828401819052838352929592949161213f81610713565b5190205f8051602061354683398151915218549161215b6132e4565b905f5b82518110156121e957612177611f50611f428386610d5b565b6001808260581c161461218e575b5060010161215e565b60601c90813b1561013a5788516315c19b2760e21b8152915f9083908183816121bc8c8c8f60048501612f6f565b03925af191821561020a576001926121d6575b5090612185565b806111db6121e392610769565b5f6121cf565b50945f80516020613566833981519152875180612207868983612ed0565b0390a2612216611ffc85612e7c565b60ff808460e01c16806122b3575b50505f5b81518110156120a557612241611f50611f428385610d5b565b6002808260581c1614612258575b50600101612228565b60601c90813b1561013a578751635b28cdaf60e01b8152915f9083908183816122868b8b8e60048501612f6f565b03925af191821561020a576001926122a0575b509061224f565b806111db6122ad92610769565b5f612299565b5f6122bd87613169565b555f60805b82848316106122d2575050612224565b6001816122e486936120df868d612cb7565b920116906122c2565b60408051655461626c657360501b66746273746f726560c81b01602082019081526f506879736963616c44616d6167655374631d18955160e21b01828401819052838352929592949161233f81610713565b5190205f8051602061354683398151915218549161235b613340565b905f5b82518110156123e957612377611f50611f428386610d5b565b6001808260581c161461238e575b5060010161235e565b60601c90813b1561013a5788516315c19b2760e21b8152915f9083908183816123bc8c8c8f60048501612fac565b03925af191821561020a576001926123d6575b5090612385565b806111db6123e392610769565b5f6123cf565b50945f80516020613566833981519152875180612407868983612ed0565b0390a2612416611ffc85612ea6565b60ff808460e01c16806124b3575b50505f5b81518110156120a557612441611f50611f428385610d5b565b6002808260581c1614612458575b50600101612428565b60601c90813b1561013a578751635b28cdaf60e01b8152915f9083908183816124868b8b8e60048501612fac565b03925af191821561020a576001926124a0575b509061244f565b806111db6124ad92610769565b5f612499565b5f6124bd8761317e565b555f60805b82848316106124d2575050612424565b6001816124e486936120df868d612cdc565b920116906124c2565b60408051655461626c657360501b66746273746f726560c81b0160208201908152664566666563747360481b631d18955160e21b01828401819052838352929592949161253981610713565b5190205f8051602061354683398151915218549161255561339c565b905f5b82518110156125e357612571611f50611f428386610d5b565b6001808260581c1614612588575b50600101612558565b60601c90813b1561013a5788516315c19b2760e21b8152915f9083908183816125b68c8c8f60048501612fe9565b03925af191821561020a576001926125d0575b509061257f565b806111db6125dd92610769565b5f6125c9565b50945f80516020613566833981519152875180612601868983612ed0565b0390a2612610611ffc85612e67565b60ff808460e01c16806126ad575b50505f5b81518110156120a55761263b611f50611f428385610d5b565b6002808260581c1614612652575b50600101612622565b60601c90813b1561013a578751635b28cdaf60e01b8152915f9083908183816126808b8b8e60048501612fe9565b03925af191821561020a5760019261269a575b5090612649565b806111db6126a792610769565b5f612693565b5f6126b787613193565b555f60805b82848316106126cc57505061261e565b6001816126de86936120df868d612d01565b920116906126bc565b60408051655461626c657360501b66746273746f726560c81b01602082019081526f53746174757345666665637453746174631d18955160e21b01828401819052838352929592949161273981610713565b5190205f805160206135468339815191521854916127556133f2565b905f5b82518110156127e357612771611f50611f428386610d5b565b6001808260581c1614612788575b50600101612758565b60601c90813b1561013a5788516315c19b2760e21b8152915f9083908183816127b68c8c8f60048501613024565b03925af191821561020a576001926127d0575b509061277f565b806111db6127dd92610769565b5f6127c9565b50945f80516020613566833981519152875180612801868983612ed0565b0390a2612810611ffc85612e91565b60ff808460e01c16806128ad575b50505f5b81518110156120a55761283b611f50611f428385610d5b565b6002808260581c1614612852575b50600101612822565b60601c90813b1561013a578751635b28cdaf60e01b8152915f9083908183816128808b8b8e60048501613024565b03925af191821561020a5760019261289a575b5090612849565b806111db6128a792610769565b5f612893565b5f6128b7876131a8565b555f60805b82848316106128cc57505061281e565b6001816128de86936120df868d612d26565b920116906128bc565b91906128f283612de9565b916128fb6131bd565b905f5b825181101561298757612917611f50611f428386610d5b565b9060049182808260581c1614612933575b5060019150016128fe565b60601c803b1561013a57855f918983612961966040519788958694859363964f667d60e01b8552840161308c565b03925af191821561020a576001921561292857806111db61298192610769565b5f612928565b509291906129e5826040946040517f8c0b5119d4cec7b284c6b1b39252a03d1e2f2d7451a5895562524c113bb952be6f53746174757345666665637454617267631d18955160e21b0191806129dd868d83613061565b0390a26134bc565b5f5b8151811015612a7157612a00611f50611f428385610d5b565b6008808260581c1614612a17575b506001016129e7565b60601c90813b1561013a57845163a8ba872160e01b8152915f908390818381612a448a8e6004840161308c565b03925af191821561020a57600192612a5e575b5090612a0e565b806111db612a6b92610769565b5f612a57565b505050509050565b6953746f7265486f6f6b7360301b66746273746f726560c81b01815281516020918201928201915f5b828110612ab0575050505090565b835185529381019392810192600101612aa2565b664566666563747360481b631d18955160e21b01815281516020918201928201915f5b828110612af5575050505090565b835185529381019392810192600101612ae7565b6f53746174757345666665637456616c69631d18955160e21b01815281516020918201928201915f5b828110612b40575050505090565b835185529381019392810192600101612b32565b6f4d6167696344616d6167655374617473631d18955160e21b01815281516020918201928201915f5b828110612b8b575050505090565b835185529381019392810192600101612b7d565b6f506879736963616c44616d6167655374631d18955160e21b01815281516020918201928201915f5b828110612bd6575050505090565b835185529381019392810192600101612bc8565b664566666563747360481b631d18955160e21b01815281516020918201928201915f5b828110612c1b575050505090565b835185529381019392810192600101612c0d565b6f53746174757345666665637453746174631d18955160e21b01815281516020918201928201915f5b828110612c66575050505090565b835185529381019392810192600101612c58565b905f8051602061358683398151915291604051612c9f81610b6c602082019485612b09565b51902060f89190911b6001600160f81b031916181890565b905f8051602061358683398151915291604051612c9f81610b6c602082019485612b54565b905f8051602061358683398151915291604051612c9f81610b6c602082019485612b9f565b905f8051602061358683398151915291604051612c9f81610b6c602082019485612bea565b905f8051602061358683398151915291604051612c9f81610b6c602082019485612c2f565b60405190612d5882610713565b60028252602082016040368237825115610d565752805160011015610d56576001600160a01b039091166040820152611027906119c5565b5f5b60108110612dbc575b6040516001600160801b0319909216602083015260108252610dc98261077c565b6001600160801b03198216600382901b1b6001600160f81b03191615612de457600101612d92565b612d9b565b60405160208160208101936f53746174757345666665637454617267631d18955160e21b0185526040820160208251919201935f5b828110612e5057505050612e3b925003601f1981018352826107b2565b5190205f805160206135468339815191521890565b855184529481019486945092810192600101612e1e565b604051612e3b81610b6c602082019485612bea565b604051612e3b81610b6c602082019485612b54565b604051612e3b81610b6c602082019485612c2f565b604051612e3b81610b6c602082019485612b9f565b604051612e3b81610b6c602082019485612b09565b906109fb92612eea612ef892608085526080850190611594565b9083820360208501526109c5565b905f60408201526060818303910152610988565b939291612f57612f6a91612f4960a0946f53746174757345666665637456616c69631d18955160e21b01895260c060208a015260c0890190611594565b9087820360408901526109c5565b5f60608701528581036080870152610988565b930152565b939291612f57612f6a91612f4960a0946f4d6167696344616d6167655374617473631d18955160e21b01895260c060208a015260c0890190611594565b939291612f57612f6a91612f4960a0946f506879736963616c44616d6167655374631d18955160e21b01895260c060208a015260c0890190611594565b664566666563747360481b631d18955160e21b01815260c0602082018190529094939260a092612f6a92612f579291612f4991890190611594565b939291612f57612f6a91612f4960a0946f53746174757345666665637453746174631d18955160e21b01895260c060208a015260c0890190611594565b90916130786109fb93606084526060840190611594565b915f602082015260408184039101526109c5565b6f53746174757345666665637454617267631d18955160e21b0181526080602082018190526109fb9391926130c391840190611594565b915f604082015260608184039101526109c5565b60408051601f19603f85830101811690925283815292602080850193925b818310156131275750508061310b575b50505090565b5f199060031b1c908183511691199054161790525f8080613105565b816001858394959796548752019401940191906130f5565b60405161315481610b6c602082019485612b09565b5190205f805160206135a68339815191521890565b60405161315481610b6c602082019485612b54565b60405161315481610b6c602082019485612b9f565b60405161315481610b6c602082019485612bea565b60405161315481610b6c602082019485612c2f565b6131c5610d1b565b805115610d56576132716109fb916f53746174757345666665637454617267631d18955160e21b01602082015264ffffffffff604051915f8051602061358683398151915260208401846132198483612a79565b039461322d601f19968781018352826107b2565b51902018926132546040519182613248602082019586612a79565b039081018352826107b2565b5190205f805160206135a6833981519152185460381c16906130d7565b602060018060801b03825116910160801b176134f3565b613290610d1b565b805115610d56576132716109fb916f53746174757345666665637456616c69631d18955160e21b01602082015264ffffffffff604051915f8051602061358683398151915260208401846132198483612a79565b6132ec610d1b565b805115610d56576132716109fb916f4d6167696344616d6167655374617473631d18955160e21b01602082015264ffffffffff604051915f8051602061358683398151915260208401846132198483612a79565b613348610d1b565b805115610d56576132716109fb916f506879736963616c44616d6167655374631d18955160e21b01602082015264ffffffffff604051915f8051602061358683398151915260208401846132198483612a79565b6133a4610d1b565b805115610d56576132716109fb91664566666563747360481b631d18955160e21b01602082015264ffffffffff604051915f8051602061358683398151915260208401846132198483612a79565b6133fa610d1b565b805115610d56576132716109fb916f53746174757345666665637453746174631d18955160e21b01602082015264ffffffffff604051915f8051602061358683398151915260208401846132198483612a79565b9190915f905b6020908183106134745784518155930192601f1990910190600101613454565b92939190508061348357505050565b5f199060031b1c90818354169119905116179055565b9291926020908183106134745784518155930192601f1990910190600101613454565b81519060208093019190925b808210156134db57508061348357505050565b6001839482939451815501930191601f1901906134c8565b8060801c906015809160018060801b031604604051926020906020850160208460051b8701016040528386525f5b8481106135315750505050505090565b82518252918501919083019060010161352156fe86425bff6b57326c7859e89024fe4f238ca327a1ae4a230180dd2f0e88aaa7d98dbb3a9672eebfd3773e72dd9c102393436816d832c7ba9e1e1ac8fcadcac7a93b4102da22e32d82fc925482184f16c09fd4281692720b87d124aef6da48a0f114e2fcc58e58e68ec7edc30c8d50dccc3ce2714a623ec81f46b6a63922d76569","linkReferences":{"src/libraries/EffectProcessor.sol":{"EffectProcessor":[{"start":458,"length":20},{"start":648,"length":20},{"start":986,"length":20},{"start":1177,"length":20},{"start":1253,"length":20},{"start":1481,"length":20},{"start":1677,"length":20},{"start":1763,"length":20}]}}},"methodIdentifiers":{"_msgSender()":"119df25f","_msgValue()":"45ec9354","_world()":"e1af802c","createEffect(uint8,string,bytes)":"cda094ca","getAppliedEffectInfo(bytes32)":"66066e7a","getEffectExpired(bytes32)":"52b9eb46","getEffectStatId(bytes32)":"c1591bb8","getEffectTimestamp(bytes32)":"3d177b1d","getEffectTurnApplied(bytes32)":"8a227e30","getMagicDamageStats(bytes32)":"46946498","getPhysicalDamageStats(bytes32)":"6541666a","getStatusEffectStats(bytes32)":"4b788b81","supportsInterface(bytes4)":"01ffc9a7"},"id":261}