{"abi":[{"type":"function","name":"_msgSender","inputs":[],"outputs":[{"name":"sender","type":"address","internalType":"address"}],"stateMutability":"view"},{"type":"function","name":"_msgValue","inputs":[],"outputs":[{"name":"value","type":"uint256","internalType":"uint256"}],"stateMutability":"view"},{"type":"function","name":"_world","inputs":[],"outputs":[{"name":"","type":"address","internalType":"address"}],"stateMutability":"view"},{"type":"function","name":"canClaim","inputs":[{"name":"characterId","type":"bytes32","internalType":"bytes32"},{"name":"fragmentType","type":"uint8","internalType":"uint8"}],"outputs":[{"name":"","type":"bool","internalType":"bool"}],"stateMutability":"view"},{"type":"function","name":"claimFragment","inputs":[{"name":"characterId","type":"bytes32","internalType":"bytes32"},{"name":"fragmentType","type":"uint8","internalType":"uint8"}],"outputs":[{"name":"tokenId","type":"uint256","internalType":"uint256"}],"stateMutability":"nonpayable"},{"type":"function","name":"getFragmentMetadata","inputs":[{"name":"fragmentType","type":"uint8","internalType":"uint8"}],"outputs":[{"name":"name","type":"string","internalType":"string"},{"name":"narrative","type":"string","internalType":"string"},{"name":"hint","type":"string","internalType":"string"}],"stateMutability":"view"},{"type":"function","name":"getFragmentStatus","inputs":[{"name":"characterId","type":"bytes32","internalType":"bytes32"},{"name":"fragmentType","type":"uint8","internalType":"uint8"}],"outputs":[{"name":"triggered","type":"bool","internalType":"bool"},{"name":"triggeredAt","type":"uint256","internalType":"uint256"},{"name":"triggerTileX","type":"uint16","internalType":"uint16"},{"name":"triggerTileY","type":"uint16","internalType":"uint16"},{"name":"claimed","type":"bool","internalType":"bool"},{"name":"claimedAt","type":"uint256","internalType":"uint256"},{"name":"tokenId","type":"uint256","internalType":"uint256"}],"stateMutability":"view"},{"type":"function","name":"setFragmentMetadata","inputs":[{"name":"fragmentType","type":"uint8","internalType":"uint8"},{"name":"name","type":"string","internalType":"string"},{"name":"narrative","type":"string","internalType":"string"},{"name":"hint","type":"string","internalType":"string"}],"outputs":[],"stateMutability":"nonpayable"},{"type":"function","name":"supportsInterface","inputs":[{"name":"interfaceId","type":"bytes4","internalType":"bytes4"}],"outputs":[{"name":"","type":"bool","internalType":"bool"}],"stateMutability":"pure"},{"type":"function","name":"triggerFragment","inputs":[{"name":"characterId","type":"bytes32","internalType":"bytes32"},{"name":"fragmentType","type":"uint8","internalType":"uint8"},{"name":"tileX","type":"uint16","internalType":"uint16"},{"name":"tileY","type":"uint16","internalType":"uint16"}],"outputs":[],"stateMutability":"nonpayable"},{"type":"event","name":"FragmentClaimed","inputs":[{"name":"characterId","type":"bytes32","indexed":true,"internalType":"bytes32"},{"name":"fragmentType","type":"uint8","indexed":false,"internalType":"uint8"},{"name":"tokenId","type":"uint256","indexed":false,"internalType":"uint256"}],"anonymous":false},{"type":"event","name":"FragmentTriggered","inputs":[{"name":"characterId","type":"bytes32","indexed":true,"internalType":"bytes32"},{"name":"fragmentType","type":"uint8","indexed":false,"internalType":"uint8"},{"name":"tileX","type":"uint16","indexed":false,"internalType":"uint16"},{"name":"tileY","type":"uint16","indexed":false,"internalType":"uint16"}],"anonymous":false},{"type":"event","name":"Store_SetRecord","inputs":[{"name":"tableId","type":"bytes32","indexed":true,"internalType":"ResourceId"},{"name":"keyTuple","type":"bytes32[]","indexed":false,"internalType":"bytes32[]"},{"name":"staticData","type":"bytes","indexed":false,"internalType":"bytes"},{"name":"encodedLengths","type":"bytes32","indexed":false,"internalType":"EncodedLengths"},{"name":"dynamicData","type":"bytes","indexed":false,"internalType":"bytes"}],"anonymous":false},{"type":"event","name":"Store_SpliceDynamicData","inputs":[{"name":"tableId","type":"bytes32","indexed":true,"internalType":"ResourceId"},{"name":"keyTuple","type":"bytes32[]","indexed":false,"internalType":"bytes32[]"},{"name":"dynamicFieldIndex","type":"uint8","indexed":false,"internalType":"uint8"},{"name":"start","type":"uint48","indexed":false,"internalType":"uint48"},{"name":"deleteCount","type":"uint40","indexed":false,"internalType":"uint40"},{"name":"encodedLengths","type":"bytes32","indexed":false,"internalType":"EncodedLengths"},{"name":"data","type":"bytes","indexed":false,"internalType":"bytes"}],"anonymous":false},{"type":"event","name":"Store_SpliceStaticData","inputs":[{"name":"tableId","type":"bytes32","indexed":true,"internalType":"ResourceId"},{"name":"keyTuple","type":"bytes32[]","indexed":false,"internalType":"bytes32[]"},{"name":"start","type":"uint48","indexed":false,"internalType":"uint48"},{"name":"data","type":"bytes","indexed":false,"internalType":"bytes"}],"anonymous":false},{"type":"error","name":"EncodedLengths_InvalidLength","inputs":[{"name":"length","type":"uint256","internalType":"uint256"}]},{"type":"error","name":"FragmentAlreadyClaimed","inputs":[]},{"type":"error","name":"FragmentNotTriggered","inputs":[]},{"type":"error","name":"GamePaused","inputs":[]},{"type":"error","name":"InvalidCharacter","inputs":[]},{"type":"error","name":"InvalidFragmentType","inputs":[]},{"type":"error","name":"NotAdmin","inputs":[]},{"type":"error","name":"NotCharacterOwner","inputs":[]},{"type":"error","name":"Slice_OutOfBounds","inputs":[{"name":"data","type":"bytes","internalType":"bytes"},{"name":"start","type":"uint256","internalType":"uint256"},{"name":"end","type":"uint256","internalType":"uint256"}]},{"type":"error","name":"Store_IndexOutOfBounds","inputs":[{"name":"length","type":"uint256","internalType":"uint256"},{"name":"accessedIndex","type":"uint256","internalType":"uint256"}]},{"type":"error","name":"Store_InvalidResourceType","inputs":[{"name":"expected","type":"bytes2","internalType":"bytes2"},{"name":"resourceId","type":"bytes32","internalType":"ResourceId"},{"name":"resourceIdString","type":"string","internalType":"string"}]},{"type":"error","name":"Store_InvalidSplice","inputs":[{"name":"startWithinField","type":"uint40","internalType":"uint40"},{"name":"deleteCount","type":"uint40","internalType":"uint40"},{"name":"fieldLength","type":"uint40","internalType":"uint40"}]},{"type":"error","name":"TokenAlreadyMinted","inputs":[]}],"bytecode":{"object":"0x6080806040523461001657615228908161001b8239f35b5f80fdfe60806040526004361015610011575f80fd5b5f3560e01c806301ffc9a7146100b4578063119df25f146100af5780631c03be6e146100aa57806336f0121d146100a557806345ec9354146100a05780636c248c501461009b5780638f78c51e14610096578063a359dd0014610091578063e1af802c1461008c5763e489754e14610087575f80fd5b610604565b6105ea565b610563565b6104e0565b610400565b6103e1565b6103b1565b61029a565b610116565b346101085760203660031901126101085760043563ffffffff60e01b81168091036101085763b5dee12760e01b81149081156100f7575b50151560805260206080f35b6301ffc9a760e01b149050816100eb565b5f80fd5b5f91031261010857565b34610108575f366003190112610108576020610130610a41565b6040516001600160a01b039091168152f35b6004359060ff8216820361010857565b6024359060ff8216820361010857565b634e487b7160e01b5f52604160045260245ffd5b6001600160401b03811161018957604052565b610162565b602081019081106001600160401b0382111761018957604052565b604081019081106001600160401b0382111761018957604052565b606081019081106001600160401b0382111761018957604052565b60a081019081106001600160401b0382111761018957604052565b61012081019081106001600160401b0382111761018957604052565b601f909101601f19168101906001600160401b0382119082101761018957604052565b6001600160401b03811161018957601f01601f191660200190565b81601f820112156101085780359061026b82610239565b926102796040519485610216565b8284526020838301011161010857815f926020809301838601378301015290565b34610108576080366003190112610108576102b3610142565b6001600160401b0390602435828111610108576102d4903690600401610254565b604435838111610108576102ec903690600401610254565b9260643590811161010857610305903690600401610254565b9161030e610a41565b610316610a58565b908151156103ac576001600160a01b031660208201526103409061033990611957565b60f81c1590565b61039a5760ff1690600182108015610390575b61037e5761037c936103716103779261036b8561080c565b84610ae8565b82610bbe565b610c69565b005b6040516376d73d7160e01b8152600490fd5b5060088211610353565b604051637bfa4b9f60e01b8152600490fd5b610aa3565b346101085760403660031901126101085760206103d76103cf610152565b60043561081b565b6040519015158152f35b34610108575f366003190112610108576020604051601f193601358152f35b346101085760403660031901126101085760e061042661041e610152565b600435610866565b9460409492939194519615158752602087015261ffff80921660408701521660608501521515608084015260a083015260c0820152f35b5f5b83811061046e5750505f910152565b818101518382015260200161045f565b90606051918281525f5b8381106104a75750825f602080949584010152601f8019910116010190565b806020916080015182828501015201610488565b906020916104d48151809281855285808601910161045d565b601f01601f1916010190565b346101085760203660031901126101085761052161052f61053d61050a610505610142565b610937565b9193906040519586956060875260608701906104bb565b9085820360208701526104bb565b9083820360408501526104bb565b0390f35b6044359061ffff8216820361010857565b6064359061ffff8216820361010857565b346101085760803660031901126101085760043561057f610152565b610587610541565b61058f610552565b91610598610e66565b60ff8116600181109081156105df575b5061037e576001600160a01b036105be85610f86565b16156105cd5761037c93610e91565b6040516318954fab60e11b8152600490fd5b60089150115f6105a8565b34610108575f366003190112610108576020610130612420565b3461010857604080600319360112610108576004803591610623610152565b9261062c610e66565b60ff84166001811080156107ee575b6107df576001600160a01b039361065a8561065585610f86565b161590565b6107d15761066783610f86565b9061067f610673610a41565b6001600160a01b031690565b868316036107c3576106908361080c565b6106a161069d8486610d14565b1590565b6107b2576106af8385610d53565b6107a4576106cd6106bf85610fa9565b6106c8856109e9565b610a34565b956106d787610fe3565b16610797575061053d95610748867fd3956149bc957b62d97cc5a2cf390c5442ed5fa595d273c70135b0a43948c8cd9461072d856107168497856110d0565b610727610722826111ad565b610a06565b90611293565b6107378188611341565b610742428289611439565b8661150a565b61076a6107548561164b565b60c081016107628151610a14565b9052856117af565b61077384611853565b845160ff9190911681526020810191909152604090a2519081529081906020820190565b845162a5a1f560e01b8152fd5b8451636d65838960e01b8152fd5b845160016203bda960e31b03198152fd5b845163396eeb4360e21b8152fd5b83516318954fab60e11b8152fd5b5050516376d73d7160e01b8152fd5b506008811161063b565b634e487b7160e01b5f52602160045260245ffd5b6009111561081657565b6107f8565b9060ff1660018110801561085c575b610856576009811015610816576108418183610d14565b918261084c57505090565b61069d9250610d53565b50505f90565b506008811161082a565b9060ff169060018210801561092d575b61091b5760098210156108165761088d8282610d14565b92610896610a72565b8051156103ac578260208201528051600110156103ac57808460406108bc930152611a0d565b926108c5610a72565b8051156103ac578360208201528051600110156103ac57808260406108eb930152611bc0565b60f01c926108f98282610d8c565b926109186109078484610d53565b936109128185610dcb565b93610e04565b90565b50505f905f905f905f905f905f905f90565b5060088211610876565b60ff166001811080156109cb575b6109985760098110156108165761095a610a58565b8051156103ac5780826020610970930152612291565b91610979610a58565b8051156103ac5761099281846020610918940152612328565b92610e3d565b506040516109a58161018e565b5f8152906040516109b58161018e565b5f8152906040516109c58161018e565b5f815290565b5060088111610945565b634e487b7160e01b5f52601160045260245ffd5b90620f424091828102928184041490151715610a0157565b6109d5565b9060018201809211610a0157565b9060648201809211610a0157565b90630bfb0440918201809211610a0157565b91908201809211610a0157565b36603319013560601c908115610a5357565b339150565b60405190610a65826101a9565b6001825260203681840137565b60405190610a7f826101c4565b600282526040366020840137565b604051610a998161018e565b5f8152905f368137565b634e487b7160e01b5f52603260045260245ffd5b8051156103ac5760200190565b8051600110156103ac5760400190565b80518210156103ac5760209160051b010190565b90610af1610a58565b916009811015610816578251156103ac5760ff1660208301526001600160a01b03610b1a612420565b1691308303610b2f57610b2d9250612c22565b565b90823b15610108576040516377b7543160e11b81525f805160206151e8833981519152600482015260806024820152925f928492839185918391610b949190610b7c906084850190611919565b908460448501526003198483030160648501526104bb565b03925af18015610bb957610ba6575b50565b80610bb3610b2d92610176565b8061010c565b61194c565b90610bc7610a58565b916009811015610816578251156103ac5760ff1660208301526001600160a01b03610bf0612420565b1691308303610c0357610b2d9250612e5c565b90823b15610108576040516377b7543160e11b81525f805160206151e8833981519152600482015260806024820152925f928492839185918391610b949190610c50906084850190611919565b60016044850152838103600319016064850152906104bb565b90610c72610a58565b916009811015610816578251156103ac5760ff1660208301526001600160a01b03610c9b612420565b1691308303610cae57610b2d92506130be565b90823b15610108576040516377b7543160e11b81525f805160206151e8833981519152600482015260806024820152925f928492839185918391610b949190610cfb906084850190611919565b60026044850152838103600319016064850152906104bb565b610d1c610a72565b908151156103ac5760208201526009821015610816578051600110156103ac5760ff610d4d92166040820152611a9d565b60f81c90565b610d5b610a72565b908151156103ac5760208201526009821015610816578051600110156103ac5760ff610d4d92166040820152611b30565b610d94610a72565b908151156103ac5760208201526009821015610816578051600110156103ac5760ff610dc592166040820152611c50565b60f01c90565b610dd3610a72565b908151156103ac5760208201526009821015610816578051600110156103ac5760ff61091892166040820152611ce0565b610e0c610a72565b908151156103ac5760208201526009821015610816578051600110156103ac5760ff61091892166040820152611d70565b610e45610a58565b6009821015610816578051156103ac5760ff610918921660208201526123a4565b610e76610e71610a8d565b611e00565b60f81c610e7f57565b60405163379a7ed960e01b8152600490fd5b92919060ff8116600981101561081657610eab8186610d14565b610f7f577f7a7ebafe483dfa14a4cc1fec9138c7f0ce6584dbc7282fc2b14824af66e2f00c93610f52610f7a9260405190600160f81b602083015242602183015261ffff60f01b808860f01b1660418401528460f01b1660438301525f60458301525f60468301525f606683015260668252610f26826101df565b610f2e610a72565b9089610f3983610ab7565b52610f438161080c565b610f4c82610ac4565b5261264b565b6040519384938491604091949360ff606085019616845261ffff809216602085015216910152565b0390a2565b5050505050565b610f8e610a58565b8051156103ac57610fa3916020820152611e66565b60601c90565b610fb1610a58565b8051156103ac57610918916020820152611efc565b610fce610a58565b8051156103ac57610fa3916020820152611f91565b610feb610a58565b8051156103ac57610fa3916020820152612023565b90611009610a58565b918251156103ac5760208301526040519060018060601b03199060601b16602082015260148152611039816101a9565b6001600160a01b03611049612420565b169130830361105c57610b2d925061337a565b90823b15610108576040516301c85d5760e51b8152654f776e65727360501b67746242616467657360c01b01600482015260a06024820152925f9284928391859183916110b29190610b7c9060a4850190611919565b630500400560da1b608483015203925af18015610bb957610ba65750565b906110d9610a58565b918251156103ac5760208301526040519060018060601b03199060601b16602082015260148152611109816101a9565b6001600160a01b03611119612420565b169130830361112c57610b2d92506146a2565b90823b15610108576040516301c85d5760e51b8152757462467261676d656e747300000000004f776e65727360501b600482015260a06024820152925f9284928391859183916110b29190610b7c9060a4850190611919565b61118d610a58565b8051156103ac576001600160a01b03909116602082015261091890612090565b6111b5610a58565b8051156103ac576001600160a01b03909116602082015261091890612119565b906111de610a58565b805190926001600160a01b0391156103ac57811660208401526040519160208301526020825261120d826101a9565b611215612420565b169130830361122857610b2d92506134fa565b90823b15610108576040516301c85d5760e51b81525f805160206151c8833981519152600482015260a06024820152925f9284928391859183916112759190610b7c9060a4850190611919565b630100080160dd1b608483015203925af18015610bb957610ba65750565b9061129c610a58565b805190926001600160a01b0391156103ac5781166020840152604051916020830152602082526112cb826101a9565b6112d3612420565b16913083036112e657610b2d9250614819565b90823b15610108576040516301c85d5760e51b8152777462467261676d656e7473000000000042616c616e63657360401b600482015260a06024820152925f9284928391859183916112759190610b7c9060a4850190611919565b9061134a610a72565b918251156103ac5760208301526009811015610816578151600110156103ac5760ff166040820152604051600160f81b60208201526001815261138c816101a9565b6001600160a01b0361139c612420565b16913083036113af57610b2d9250613661565b90823b15610108576040516301c85d5760e51b81525f80516020615208833981519152600482015260a06024820152925f92849283918591839161141591906113fc9060a4850190611919565b60046044850152838103600319016064850152906104bb565b690330380009001010090160ad1b608483015203925af18015610bb957610ba65750565b9190611443610a72565b928351156103ac5760208401526009811015610816578251600110156103ac5760ff16604083015260405190602082015260208152611481816101a9565b6001600160a01b03611491612420565b16913083036114a457610b2d92506136af565b90823b15610108576040516301c85d5760e51b81525f80516020615208833981519152600482015260a06024820152925f92849283918591839161141591906114f19060a4850190611919565b60056044850152838103600319016064850152906104bb565b9190611514610a72565b928351156103ac5760208401526009811015610816578251600110156103ac5760ff16604083015260405190602082015260208152611552816101a9565b6001600160a01b03611562612420565b169130830361157557610b2d92506136fd565b90823b15610108576040516301c85d5760e51b81525f80516020615208833981519152600482015260a06024820152925f92849283918591839161141591906115c29060a4850190611919565b60066044850152838103600319016064850152906104bb565b604051906101a082016001600160401b03811183821017610189576040525f610180838281528260208201528260408201528260608201528260808201528260a08201528260c08201528260e0820152826101008201528261012082015282610140820152826101608201520152565b6116536115db565b5061165c610a58565b8051156103ac5761167191602082015261249d565b505061167b6115db565b906020810151906117876040820151916116a161169c606083015160f81c90565b6137c5565b9060618101519060818101519060a18101519060c1810151906117658a61175b60e1840151936101206116e16116dc61010184015160f81c90565b6137d4565b936117556116f76116dc61010286015160f81c90565b9361174b61170d6116dc61010384015160f81c90565b9161174161173761010561172e61172961010486015160f81c90565b6137e0565b93015160f81c90565b1515610180870152565b6101608501612567565b6101408301612573565b01612573565b6101008c01612573565b60e08a015260c089015260a0880152608087015260608601526040850161257f565b6020830152815290565b6003111561081657565b6004111561081657565b600a111561081657565b61183a610b2d9261182d815191602081015160408201516117cf81611791565b6060830151608084015160a085015160c08601519160e087015193610100880151956117fa8761179b565b6101208901519761180a8961179b565b6118346101806101408c01519b6118208d61179b565b6101608101519d8e6117a5565b0151151590565b9b6125ab565b90611843610a58565b9061184d82610ab7565b526126ef565b600180805b6118c5575b505061186f61186a610a8d565b612188565b60601c15610ba35761189161188c61188683610f86565b92610fa9565b610a22565b9061189e61067383610fc6565b6118c1576118af81610b2d93611000565b6118bb61072282611185565b906111d5565b5050565b60ff8116600881116119045761069d816118e16118e79361080c565b85610d53565b6118ff5760ff809116908114610a0157810181611858565b505050565b5061185d565b90816020910312610108575190565b9081518082526020808093019301915f5b828110611938575050505090565b83518552938101939281019260010161192a565b6040513d5f823e3d90fd5b6001600160a01b03611967612420565b16308103611979575061091890612769565b604051638c364d5960e01b81526420b236b4b760591b631d18955160e21b01600482015260806024820152916020918391829081906119bc906084830190611919565b5f6044830152630101000160d81b606483015203915afa908115610bb9575f916119e4575090565b610918915060203d602011611a06575b6119fe8183610216565b81019061190a565b503d6119f4565b6001600160a01b03611a1d612420565b16308103611a2f5750610918906127e0565b604051638c364d5960e01b81525f8051602061520883398151915260048201526080602482015291602091839182908190611a6e906084830190611919565b60016044830152690330380009001010090160ad1b606483015203915afa908115610bb9575f916119e4575090565b6001600160a01b03611aad612420565b16308103611ac35750611abf90613d4c565b5490565b604051638c364d5960e01b81525f8051602061520883398151915260048201526080602482015291602091839182908190611b02906084830190611919565b5f6044830152690330380009001010090160ad1b606483015203915afa908115610bb9575f916119e4575090565b6001600160a01b03611b40612420565b16308103611b5257506109189061286c565b604051638c364d5960e01b81525f8051602061520883398151915260048201526080602482015291602091839182908190611b91906084830190611919565b60046044830152690330380009001010090160ad1b606483015203915afa908115610bb9575f916119e4575090565b6001600160a01b03611bd0612420565b16308103611be25750610918906128eb565b604051638c364d5960e01b81525f8051602061520883398151915260048201526080602482015291602091839182908190611c21906084830190611919565b60026044830152690330380009001010090160ad1b606483015203915afa908115610bb9575f916119e4575090565b6001600160a01b03611c60612420565b16308103611c7257506109189061296a565b604051638c364d5960e01b81525f8051602061520883398151915260048201526080602482015291602091839182908190611cb1906084830190611919565b60036044830152690330380009001010090160ad1b606483015203915afa908115610bb9575f916119e4575090565b6001600160a01b03611cf0612420565b16308103611d025750610918906129da565b604051638c364d5960e01b81525f8051602061520883398151915260048201526080602482015291602091839182908190611d41906084830190611919565b60056044830152690330380009001010090160ad1b606483015203915afa908115610bb9575f916119e4575090565b6001600160a01b03611d80612420565b16308103611d92575061091890612a42565b604051638c364d5960e01b81525f8051602061520883398151915260048201526080602482015291602091839182908190611dd1906084830190611919565b60066044830152690330380009001010090160ad1b606483015203915afa908115610bb9575f916119e4575090565b6001600160a01b03611e10612420565b16308103611e22575061091890612aaa565b604051638c364d5960e01b81526514185d5cd95960521b631d18955160e21b01600482015260806024820152916020918391829081906119bc906084830190611919565b6001600160a01b03611e76612420565b16308103611e88575061091890612b0c565b604051638c364d5960e01b8152694368617261637465727360301b631d18955160e21b0160048201526080602482015291602091839182908190611ed0906084830190611919565b60016044830152665504022014200160c01b606483015203915afa908115610bb9575f916119e4575090565b6001600160a01b03611f0c612420565b16308103611f1e5750611abf90613dca565b604051638c364d5960e01b8152694368617261637465727360301b631d18955160e21b0160048201526080602482015291602091839182908190611f66906084830190611919565b5f6044830152665504022014200160c01b606483015203915afa908115610bb9575f916119e4575090565b6001600160a01b03611fa1612420565b16308103611fb35750611abf90613e5a565b604051638c364d5960e01b8152654f776e65727360501b67746242616467657360c01b0160048201526080602482015291602091839182908190611ffb906084830190611919565b5f6044830152630500400560da1b606483015203915afa908115610bb9575f916119e4575090565b6001600160a01b03612033612420565b163081036120455750611abf90613f28565b604051638c364d5960e01b8152757462467261676d656e747300000000004f776e65727360501b60048201526080602482015291602091839182908190611ffb906084830190611919565b6001600160a01b036120a0612420565b163081036120b25750611abf90613ec0565b604051638c364d5960e01b81525f805160206151c8833981519152600482015260806024820152916020918391829081906120f1906084830190611919565b5f6044830152630100080160dd1b606483015203915afa908115610bb9575f916119e4575090565b6001600160a01b03612129612420565b1630810361213b5750611abf90613f91565b604051638c364d5960e01b8152777462467261676d656e7473000000000042616c616e63657360401b600482015260806024820152916020918391829081906120f1906084830190611919565b6001600160a01b03612198612420565b163081036121aa575061091890612b88565b604051638c364d5960e01b81526f556c74696d617465446f6d696e696f6e631d18955160e21b01600482015260806024820152916020918391829081906121f5906084830190611919565b600460448301526f45434000450505050505050805080805607a1b606483015203915afa908115610bb9575f916119e4575090565b81601f8201121561010857805161224081610239565b9261224e6040519485610216565b8184526020828401011161010857610918916020808501910161045d565b906020828203126101085781516001600160401b03811161010857610918920161222a565b6001600160a01b036122a1612420565b163081036122b3575061091890613311565b604051631e78897760e01b81525f805160206151e8833981519152600482015260606024820152915f918391829081906122f1906064830190611919565b85604483015203915afa908115610bb9575f9161230c575090565b61091891503d805f833e6123208183610216565b81019061226c565b6001600160a01b03612338612420565b1630810361234a575061091890613338565b604051631e78897760e01b81525f805160206151e8833981519152600482015260606024820152915f91839182908190612388906064830190611919565b6001604483015203915afa908115610bb9575f9161230c575090565b6001600160a01b036123b4612420565b163081036123c6575061091890613359565b604051631e78897760e01b81525f805160206151e8833981519152600482015260606024820152915f91839182908190612404906064830190611919565b6002604483015203915afa908115610bb9575f9161230c575090565b7f629a4c26e296b22a8e0856e9f6ecb2d1008d7e00081111962cd175fa7488e175546001600160a01b03168061091857503390565b90916060828403126101085781516001600160401b039290838111610108578461248091830161222a565b93602082015193604083015190811161010857610918920161222a565b6001600160a01b036124ad612420565b163081036124c657506124bf9061374b565b9192909190565b60405163419b58fd60e01b815264537461747360581b631d18955160e21b0160048201526060602482015292915f91849182908190612509906064830190611919565b6fe60d002020012020202020010101010160781b604483015203915afa908115610bb9575f80935f9361253d575b50929190565b9193505061255d91503d805f833e6125558183610216565b810190612455565b929092915f612537565b600a8210156108165752565b61257c8261179b565b52565b60038210156108165752565b6125948161179b565b60f81b9052565b600a8110156108165760f81b9052565b9060209c9a969b9892979199949395996040519d8e015260408d015260038710156108165761263e9a6126319960a18e6126109661261b996126269c60f81b606084015260618301526081820152015260c18d015260e18c01526101018b019061258b565b61010289019061258b565b61010387019061258b565b61010485019061259b565b151560f81b610105830152565b60e68152610918816101fa565b6001600160a01b0361265b612420565b1630810361266e575090610b2d916137ef565b90813b15610108575f916126c7836126da93610b946040519788968795869463298314fb60e01b86526f467261676d656e7450726f6772657373631d18955160e21b01600487015260a0602487015260a4860190611919565b60031992838683030160448701526104bb565b9084606485015283820301608484015261047e565b6001600160a01b036126ff612420565b16308103612712575090610b2d916139fd565b90813b156101085760405163298314fb60e01b815264537461747360581b631d18955160e21b01600482015260a06024820152925f9284929091839185918391610b9491906126da906126c79060a4860190611919565b60405160208160208101936420b236b4b760591b631d18955160e21b0185526040820160208251919201935f5b8281106127c9575050506127b3925003601f198101835282610216565b5190205f80516020615148833981519152185490565b855184529481019486945092810192600101612796565b6127e990613d4c565b5f905f5b6001811061284057508181602082101561282a575b505080548260031b1b91602003908160201161281d57505090565b600101549060031b1c1790565b90809350601f925060051c019116905f80612802565b9160ff690330380009001010090160ad1b84601b0360031b1c168101809111610a0157916001016127ed565b61287590613d4c565b5f905f5b600481106128bf5750818160208210156128a9575b505080548260031b1b91602003908160011161281d57505090565b90809350601f925060051c019116905f8061288e565b9160ff690330380009001010090160ad1b84601b0360031b1c168101809111610a015791600101612879565b6128f490613d4c565b5f905f5b6002811061293e575081816020821015612928575b505080548260031b1b91602003908160021161281d57505090565b90809350601f925060051c019116905f8061290d565b9160ff690330380009001010090160ad1b84601b0360031b1c168101809111610a0157916001016128f8565b61297390613d4c565b5f9190825b6003808510156129b057690330380009001010090160ad1b601b86900390911b1c60ff168101908110610a0157600190930192612978565b509192508181602082101561292857505080548260031b1b91602003908160021161281d57505090565b6129e390613d4c565b5f905f5b60058110612a1657508181602082101561282a57505080548260031b1b91602003908160201161281d57505090565b9160ff690330380009001010090160ad1b84601b0360031b1c168101809111610a0157916001016129e7565b612a4b90613d4c565b5f905f5b60068110612a7e57508181602082101561282a57505080548260031b1b91602003908160201161281d57505090565b9160ff690330380009001010090160ad1b84601b0360031b1c168101809111610a015791600101612a4f565b60405160208160208101936514185d5cd95960521b631d18955160e21b0185526040820160208251919201935f5b828110612af5575050506127b3925003601f198101835282610216565b855184529481019486945092810192600101612ad8565b612b1590613dca565b5f905f5b60018110612b5f575081816020821015612b49575b505080548260031b1b91602003908160141161281d57505090565b90809350601f925060051c019116905f80612b2e565b9160ff665504022014200160c01b84601b0360031b1c168101809111610a015791600101612b19565b604051612bab81612b9d602082019485613c40565b03601f198101835282610216565b5190205f80516020615148833981519152185f905f5b60048110612bf0575081816020821015612b4957505080548260031b1b91602003908160141161281d57505090565b9160ff6f45434000450505050505050805080805607a1b84601b0360031b1c168101809111610a015791600101612bc1565b919091612c2e81614a57565b5464ffffffffff8160381c16612c4f612c478280613ff1565b865190610a34565b8181141594908580612e3d575b612e1d57612c6a9084614aab565b90612c73614c03565b915f5b8351811015612d2057612caa612c9d612c8f8387610ad4565b516001600160581b03191690565b6001600160581b03191690565b6010808260581c1614612cc1575b50600101612c76565b60601c90813b15610108575f878b9388838c612cf360405198899687958694630abd6b4560e31b86526004860161402f565b03925af1918215610bb957600192612d0d575b5090612cb8565b80610bb3612d1a92610176565b5f612d06565b506040805192979195509392915f805160206151e8833981519152905f805160206150e88339815191529080612d598c8a898d8561415a565b0390a2612e0d575b612d7387612d6e87614238565b614ee1565b5f5b8151811015612e0357612d8e612c9d612c8f8385610ad4565b6020808260581c1614612da5575b50600101612d75565b60601c90813b15610108575f868a9386838b612dd68b5198899687958694636358453360e01b86526004860161402f565b03925af1918215610bb957600192612df0575b5090612d9c565b80610bb3612dfd92610176565b5f612de9565b5050505050509050565b83612e1786614a57565b55612d61565b604051632994042d60e21b815280612e39858060048401614011565b0390fd5b5082612e55612e4b82613ffe565b64ffffffffff1690565b1415612c5c565b919091612e6881614a57565b5464ffffffffff926060848360601c1691612e8e612e868480613ff1565b885190610a34565b83811415969087806130a9575b61308d57612ea99086614b28565b96612eb2614c03565b925f5b8451811015612f4357612ece612c9d612c8f8388610ad4565b6010808260581c1614612ee5575b50600101612eb5565b861c90813b15610108575f898d938a838e612f1660405198899687958694630abd6b4560e31b865260048601614092565b03925af1918215610bb957600192612f30575b5090612edc565b80610bb3612f3d92610176565b5f612f29565b509298939790949691965f985f995b60ff8b166001811015612f795760ff918b8b6001936028026038011c16019b011699612f52565b509692975093985093989196506040945f805160206150e88339815191528589612fce8d8b60405194859465ffffffffffff6f467261676d656e744d65746164617461631d18955160e21b019916908661419e565b0390a261307d575b612fe388612d6e88614263565b5f5b815181101561307257612ffe612c9d612c8f8385610ad4565b6020808260581c1614613015575b50600101612fe5565b831c90813b15610108575f878b9387838c6130458c5198899687958694636358453360e01b865260048601614092565b03925af1918215610bb95760019261305f575b509061300c565b80610bb361306c92610176565b5f613058565b505050505050509050565b8461308787614a57565b55612fd6565b604051632994042d60e21b815280612e39878060048401614011565b50846130b7612e4b82613ffe565b1415612e9b565b9190916130ca81614a57565b5464ffffffffff92838260881c16906130ee6130e68380613ff1565b875190610a34565b82811415959086806132fc575b6132e0576131099085614b95565b95613112614c03565b925f5b84518110156131a45761312e612c9d612c8f8388610ad4565b6010808260581c1614613145575b50600101613115565b60601c90813b15610108575f888c9389838d61317760405198899687958694630abd6b4560e31b8652600486016140f6565b03925af1918215610bb957600192613191575b509061313c565b80610bb361319e92610176565b5f61318a565b5091959093969792975f975f985b60ff8a1660028110156131d95760ff918a8a6001936028026038011c16019a0116986131b2565b5095929750939892975094506040935f805160206150e88339815191526040518061322b8c8a898d65ffffffffffff6f467261676d656e744d65746164617461631d18955160e21b01991690866141eb565b0390a26132d0575b61324087612d6e8761429a565b5f5b8151811015612e035761325b612c9d612c8f8385610ad4565b6020808260581c1614613272575b50600101613242565b60601c90813b15610108575f868a9386838b6132a38b5198899687958694636358453360e01b8652600486016140f6565b03925af1918215610bb9576001926132bd575b5090613269565b80610bb36132ca92610176565b5f6132b6565b836132da86614a57565b55613233565b604051632994042d60e21b815280612e39868060048401614011565b508361330a612e4b82613ffe565b14156130fb565b6109189064ffffffffff61332d61332783614238565b92614a57565b5460381c1690614333565b6109189064ffffffffff61334e61332783614263565b5460601c1690614333565b6109189064ffffffffff61336f6133278361429a565b5460881c1690614333565b919061338583613e5a565b9161338e614d7e565b905f5b825181101561341a576133aa612c9d612c8f8386610ad4565b9060049182808260581c16146133c6575b506001915001613391565b60601c803b1561010857855f9189836133f4966040519788958694859363964f667d60e01b85528401614447565b03925af1918215610bb957600192156133bb5780610bb361341492610176565b5f6133bb565b5060408051919490939291613466918491654f776e65727360501b67746242616467657360c01b01905f80516020615128833981519152908061345e868d8361439b565b0390a2614f2e565b5f5b81518110156134f257613481612c9d612c8f8385610ad4565b6008808260581c1614613498575b50600101613468565b60601c90813b1561010857845163a8ba872160e01b8152915f9083908183816134c58a8e60048401614447565b03925af1918215610bb9576001926134df575b509061348f565b80610bb36134ec92610176565b5f6134d8565b505050509050565b919061350583613ec0565b9161350e614dd7565b905f5b825181101561359a5761352a612c9d612c8f8386610ad4565b9060049182808260581c1614613546575b506001915001613511565b60601c803b1561010857855f918983613574966040519788958694859363964f667d60e01b8552840161448f565b03925af1918215610bb9576001921561353b5780610bb361359492610176565b5f61353b565b50604080519194909392916135d59184915f805160206151c8833981519152905f80516020615128833981519152908061345e868d8361439b565b5f5b81518110156134f2576135f0612c9d612c8f8385610ad4565b6008808260581c1614613607575b506001016135d7565b60601c90813b1561010857845163a8ba872160e01b8152915f9083908183816136348a8e6004840161448f565b03925af1918215610bb95760019261364e575b50906135fe565b80610bb361365b92610176565b5f613647565b91905f925f5b60048110613683575065ffffffffffff610b2d9394169061451d565b9360ff690330380009001010090160ad1b86601b0360031b1c168101809111610a015793600101613667565b91905f925f5b600581106136d1575065ffffffffffff610b2d9394169061451d565b9360ff690330380009001010090160ad1b86601b0360031b1c168101809111610a0157936001016136b5565b91905f925f5b6006811061371f575065ffffffffffff610b2d9394169061451d565b9360ff690330380009001010090160ad1b86601b0360031b1c168101809111610a015793600101613703565b5f90613758606091613e30565b60405190602090601f19908161012585011660405260e68452602084019260e691925b818310156137ad57505080613791575b50505092565b5f199060031b1c908183511691199054161790525f808061378b565b8160018583949597965487520194019401919061377b565b60ff1660038110156108165790565b60ff166109188161179b565b60ff16600a8110156108165790565b60408051655461626c657360501b66746273746f726560c81b01602082019081525f805160206152088339815191528284018190528383529295929491613835816101c4565b5190205f80516020615148833981519152185491613851614cce565b905f5b82518110156138df5761386d612c9d612c8f8386610ad4565b6001808260581c1614613884575b50600101613854565b60601c90813b156101085788516315c19b2760e21b8152915f9083908183816138b28c8c8f600485016149bb565b03925af1918215610bb9576001926138cc575b509061387b565b80610bb36138d992610176565b5f6138c5565b50945f805160206151688339815191528751806138fd86898361497f565b0390a261391861390c85613e45565b83516020850191614fe2565b60ff808460e01c16806139be575b50505f5b81518110156139b557613943612c9d612c8f8385610ad4565b6002808260581c161461395a575b5060010161392a565b60601c90813b15610108578751635b28cdaf60e01b8152915f9083908183816139888b8b8e600485016149bb565b03925af1918215610bb9576001926139a2575b5090613951565b80610bb36139af92610176565b5f61399b565b50505050509050565b5f6139c887614a81565b555f60805b82848316106139dd575050613926565b6001816139f486936139ef868d6142d1565b614fad565b920116906139cd565b60408051655461626c657360501b66746273746f726560c81b016020820190815264537461747360581b631d18955160e21b018284018190528383529295929491613a47816101c4565b5190205f80516020615148833981519152185491613a63614d2a565b905f5b8251811015613af157613a7f612c9d612c8f8386610ad4565b6001808260581c1614613a96575b50600101613a66565b60601c90813b156101085788516315c19b2760e21b8152915f908390818381613ac48c8c8f60048501614a1e565b03925af1918215610bb957600192613ade575b5090613a8d565b80610bb3613aeb92610176565b5f613ad7565b50945f80516020615168833981519152875180613b0f86898361497f565b0390a2613b1e61390c85613e30565b60ff808460e01c1680613bbb575b50505f5b81518110156139b557613b49612c9d612c8f8385610ad4565b6002808260581c1614613b60575b50600101613b30565b60601c90813b15610108578751635b28cdaf60e01b8152915f908390818381613b8e8b8b8e60048501614a1e565b03925af1918215610bb957600192613ba8575b5090613b57565b80610bb3613bb592610176565b5f613ba1565b5f613bc587614a96565b555f60805b8284831610613bda575050613b2c565b600181613bec86936139ef868d61430e565b92011690613bca565b6953746f7265486f6f6b7360301b66746273746f726560c81b01815281516020918201928201915f5b828110613c2c575050505090565b835185529381019392810192600101613c1e565b6f556c74696d617465446f6d696e696f6e631d18955160e21b01815281516020918201928201915f5b828110613c77575050505090565b835185529381019392810192600101613c69565b5f805160206151e8833981519152815281516020918201928201915f5b828110613cb6575050505090565b835185529381019392810192600101613ca8565b64537461747360581b631d18955160e21b01815281516020918201928201915f5b828110613cf9575050505090565b835185529381019392810192600101613ceb565b5f80516020615208833981519152815281516020918201928201915f5b828110613d38575050505090565b835185529381019392810192600101613d2a565b60405160208160208101936f467261676d656e7450726f6772657373631d18955160e21b0185526040820160208251919201935f5b828110613db357505050613d9e925003601f198101835282610216565b5190205f805160206151488339815191521890565b855184529481019486945092810192600101613d81565b6040516020816020810193694368617261637465727360301b631d18955160e21b0185526040820160208251919201935f5b828110613e1957505050613d9e925003601f198101835282610216565b855184529481019486945092810192600101613dfc565b604051613d9e81612b9d602082019485613cca565b604051613d9e81612b9d602082019485613d0d565b6040516020816020810193654f776e65727360501b67746242616467657360c01b0185526040820160208251919201935f5b828110613ea957505050613d9e925003601f198101835282610216565b855184529481019486945092810192600101613e8c565b60405160208160208101936742616c616e63657360401b67746242616467657360c01b0185526040820160208251919201935f5b828110613f1157505050613d9e925003601f198101835282610216565b855184529481019486945092810192600101613ef4565b6040516020816020810193757462467261676d656e747300000000004f776e65727360501b85526040820160208251919201935f5b828110613f7a57505050613d9e925003601f198101835282610216565b855184529481019486945092810192600101613f5d565b60405160208160208101935f8051602061510883398151915260401b85526040820160208251919201935f5b828110613fda57505050613d9e925003601f198101835282610216565b855184529481019486945092810192600101613fbd565b91908203918211610a0157565b9064ffffffffff809216918211610a0157565b5f815264ffffffffff91821660208201529116604082015260600190565b909264ffffffffff61406d6109189694956f467261676d656e744d65746164617461631d18955160e21b01855260e0602086015260e0850190611919565b945f60408501525f606085015216608083015260a082015260c08184039101526104bb565b909264ffffffffff6140d06109189694956f467261676d656e744d65746164617461631d18955160e21b01855260e0602086015260e0850190611919565b94600160408501525f606085015216608083015260a082015260c08184039101526104bb565b909264ffffffffff6141346109189694956f467261676d656e744d65746164617461631d18955160e21b01855260e0602086015260e0850190611919565b94600260408501525f606085015216608083015260a082015260c08184039101526104bb565b909264ffffffffff61417961091896949560c0855260c0850190611919565b945f60208501525f6040850152166060830152608082015260a08184039101526104bb565b919390610918959365ffffffffffff6141c564ffffffffff9360c0875260c0870190611919565b9660016020870152166040850152166060830152608082015260a08184039101526104bb565b919390610918959365ffffffffffff61421264ffffffffff9360c0875260c0870190611919565b9660026020870152166040850152166060830152608082015260a08184039101526104bb565b5f805160206151888339815191529060405161425c81612b9d602082019485613c8b565b5190201890565b7f3a4102da22e32d82fc925482184f16c09fd4281692720b87d124aef6da48a0f19060405161425c81612b9d602082019485613c8b565b7f394102da22e32d82fc925482184f16c09fd4281692720b87d124aef6da48a0f19060405161425c81612b9d602082019485613c8b565b905f80516020615188833981519152916040516142f681612b9d602082019485613d0d565b51902060f89190911b6001600160f81b031916181890565b905f80516020615188833981519152916040516142f681612b9d602082019485613cca565b60408051601f19603f85830101811690925283815292602080850193925b8183101561438357505080614367575b50505090565b5f199060031b1c908183511691199054161790525f8080614361565b81600185839495979654875201940194019190614351565b90916143b261091893606084526060840190611919565b915f602082015260408184039101526104bb565b65ffffffffffff6143e36109189593606084526060840190611919565b9316602082015260408184039101526104bb565b65ffffffffffff61443361091895936f467261676d656e7450726f6772657373631d18955160e21b018452608060208501526080840190611919565b9316604082015260608184039101526104bb565b654f776e65727360501b67746242616467657360c01b01815260806020820181905261091893919261447b91840190611919565b915f604082015260608184039101526104bb565b5f805160206151c8833981519152815260806020820181905261091893919261447b91840190611919565b909161447b61091893757462467261676d656e747300000000004f776e65727360501b8452608060208501526080840190611919565b909161447b610918935f8051602061510883398151915260401b8452608060208501526080840190611919565b9092919261452a82613e45565b614532614cce565b905f5b82518110156145bf5761454e612c9d612c8f8386610ad4565b9060049182808260581c161461456a575b506001915001614535565b60601c803b1561010857855f9188838c966145996040519889968795869463964f667d60e01b865285016143f7565b03925af1918215610bb9576001921561455f5780610bb36145b992610176565b5f61455f565b50949190614615836040976040515f805160206151288339815191526f467261676d656e7450726f6772657373631d18955160e21b019180614603868a8d846143c6565b0390a265ffffffffffff851690614f9c565b5f5b81518110156139b557614630612c9d612c8f8385610ad4565b6008808260581c1614614647575b50600101614617565b60601c90813b1561010857875163a8ba872160e01b8152915f9083908183816146758b8b8e600485016143f7565b03925af1918215610bb95760019261468f575b509061463e565b80610bb361469c92610176565b5f614688565b91906146ad83613f28565b916146b6614e32565b905f5b8251811015614742576146d2612c9d612c8f8386610ad4565b9060049182808260581c16146146ee575b5060019150016146b9565b60601c803b1561010857855f91898361471c966040519788958694859363964f667d60e01b855284016144ba565b03925af1918215610bb957600192156146e35780610bb361473c92610176565b5f6146e3565b5092919061478d826040946040515f80516020615128833981519152757462467261676d656e747300000000004f776e65727360501b9180614785868d8361439b565b0390a2614f65565b5f5b81518110156134f2576147a8612c9d612c8f8385610ad4565b6008808260581c16146147bf575b5060010161478f565b60601c90813b1561010857845163a8ba872160e01b8152915f9083908183816147ec8a8e600484016144ba565b03925af1918215610bb957600192614806575b50906147b6565b80610bb361481392610176565b5f6147ff565b919061482483613f91565b9161482d614e8e565b905f5b82518110156148b957614849612c9d612c8f8386610ad4565b9060049182808260581c1614614865575b506001915001614830565b60601c803b1561010857855f918983614893966040519788958694859363964f667d60e01b855284016144f0565b03925af1918215610bb9576001921561485a5780610bb36148b392610176565b5f61485a565b509291906148f3826040946040515f805160206151288339815191525f8051602061510883398151915260401b9180614785868d8361439b565b5f5b81518110156134f25761490e612c9d612c8f8385610ad4565b6008808260581c1614614925575b506001016148f5565b60601c90813b1561010857845163a8ba872160e01b8152915f9083908183816149528a8e600484016144f0565b03925af1918215610bb95760019261496c575b509061491c565b80610bb361497992610176565b5f614965565b90610918926149996149a792608085526080850190611919565b9083820360208501526104bb565b905f6040820152606081830391015261047e565b939291614a06614a19916149f860a0946f467261676d656e7450726f6772657373631d18955160e21b01895260c060208a015260c0890190611919565b9087820360408901526104bb565b5f6060870152858103608087015261047e565b930152565b64537461747360581b631d18955160e21b01815260c0602082018190529094939260a092614a1992614a0692916149f891890190611919565b604051614a6c81612b9d602082019485613c8b565b5190205f805160206151a88339815191521890565b604051614a6c81612b9d602082019485613d0d565b604051614a6c81612b9d602082019485613cca565b64ffffffffff808311614b0f5766ffffffffffffff821690603883901c1683818110614b05570301915b64ffffffffff60381b60389190911b1664ffffffffff60381b19929092166001600160601b031991909116171790565b9003900391614ad5565b604051637149a3c160e01b815260048101849052602490fd5b64ffffffffff808311614b0f5766ffffffffffffff821690606083901c1683818110614b8b570301915b64ffffffffff60601b60609190911b1664ffffffffff60601b1992909216600169ffffffffff000000000160381b031991909116171790565b9003900391614b52565b64ffffffffff808311614b0f5766ffffffffffffff821690608883901c1683818110614bf9570301915b64ffffffffff60881b60889190911b1664ffffffffff60881b199290921666ffffffffffffff64ffffffffff60881b011991909116171790565b9003900391614bbf565b614c0b610a58565b8051156103ac57614cb7610918916f467261676d656e744d65746164617461631d18955160e21b01602082015264ffffffffff604051915f805160206151888339815191526020840184614c5f8483613bf5565b0394614c73601f1996878101835282610216565b5190201892614c9a6040519182614c8e602082019586613bf5565b03908101835282610216565b5190205f805160206151a8833981519152185460381c1690614333565b602060018060801b03825116910160801b17615095565b614cd6610a58565b8051156103ac57614cb7610918916f467261676d656e7450726f6772657373631d18955160e21b01602082015264ffffffffff604051915f805160206151888339815191526020840184614c5f8483613bf5565b614d32610a58565b8051156103ac57614cb76109189164537461747360581b631d18955160e21b01602082015264ffffffffff604051915f805160206151888339815191526020840184614c5f8483613bf5565b614d86610a58565b8051156103ac57614cb761091891654f776e65727360501b67746242616467657360c01b01602082015264ffffffffff604051915f805160206151888339815191526020840184614c5f8483613bf5565b614ddf610a58565b8051156103ac57614cb7610918916742616c616e63657360401b67746242616467657360c01b01602082015264ffffffffff604051915f805160206151888339815191526020840184614c5f8483613bf5565b614e3a610a58565b8051156103ac57614cb761091891757462467261676d656e747300000000004f776e65727360501b602082015264ffffffffff604051915f805160206151888339815191526020840184614c5f8483613bf5565b614e96610a58565b8051156103ac57614cb7610918915f8051602061510883398151915260401b602082015264ffffffffff604051915f805160206151888339815191526020840184614c5f8483613bf5565b81519060208093019190925b80821015614f16575080614f0057505050565b5f199060031b1c90818354169119905116179055565b6001839482939451815501930191601f190190614eed565b81519060208093019190925b80821015614f4d575080614f0057505050565b6001839482939451815501930191601f190190614f3a565b81519060208093019190925b80821015614f84575080614f0057505050565b6001839482939451815501930191601f190190614f71565b8251610b2d93602001929091615005565b9190915f905b602090818310614fd35784518155930192601f1990910190600101614fb3565b929391905080614f0057505050565b929192602090818310614fd35784518155930192601f1990910190600101614fb3565b909392919380615034575b50929092602090818310614fd35784518155930192601f1990910190600101614fb3565b6020811015615085575b80156150105791939082602003908360031b5f198460031b1c19811c908751901c9080198354169116178155818311156134f257600101940191601f19910101925f615010565b90601f908260051c01911661503e565b8060801c906015809160018060801b031604604051926020906020850160208460051b8701016040528386525f5b8481106150d35750505050505090565b8251825291850191908301906001016150c356fefe158a7adba34e256807c8a149028d3162918713c3838afc643ce9f96716ebfd00000000000000007462467261676d656e7473000000000042616c616e6365738c0b5119d4cec7b284c6b1b39252a03d1e2f2d7451a5895562524c113bb952be86425bff6b57326c7859e89024fe4f238ca327a1ae4a230180dd2f0e88aaa7d98dbb3a9672eebfd3773e72dd9c102393436816d832c7ba9e1e1ac8fcadcac7a93b4102da22e32d82fc925482184f16c09fd4281692720b87d124aef6da48a0f114e2fcc58e58e68ec7edc30c8d50dccc3ce2714a623ec81f46b6a63922d765697462426164676573000000000000000042616c616e636573000000000000000074625544000000000000000000000000467261676d656e744d6574616461746174625544000000000000000000000000467261676d656e7450726f6772657373","linkReferences":{}},"methodIdentifiers":{"_msgSender()":"119df25f","_msgValue()":"45ec9354","_world()":"e1af802c","canClaim(bytes32,uint8)":"36f0121d","claimFragment(bytes32,uint8)":"e489754e","getFragmentMetadata(uint8)":"8f78c51e","getFragmentStatus(bytes32,uint8)":"6c248c50","setFragmentMetadata(uint8,string,string,string)":"1c03be6e","supportsInterface(bytes4)":"01ffc9a7","triggerFragment(bytes32,uint8,uint16,uint16)":"a359dd00"},"id":368}