{"abi":[{"type":"function","name":"_msgSender","inputs":[],"outputs":[{"name":"sender","type":"address","internalType":"address"}],"stateMutability":"view"},{"type":"function","name":"_msgValue","inputs":[],"outputs":[{"name":"value","type":"uint256","internalType":"uint256"}],"stateMutability":"view"},{"type":"function","name":"_world","inputs":[],"outputs":[{"name":"","type":"address","internalType":"address"}],"stateMutability":"view"},{"type":"function","name":"canClaim","inputs":[{"name":"characterId","type":"bytes32","internalType":"bytes32"},{"name":"fragmentType","type":"uint8","internalType":"uint8"}],"outputs":[{"name":"","type":"bool","internalType":"bool"}],"stateMutability":"view"},{"type":"function","name":"claimFragment","inputs":[{"name":"characterId","type":"bytes32","internalType":"bytes32"},{"name":"fragmentType","type":"uint8","internalType":"uint8"}],"outputs":[{"name":"tokenId","type":"uint256","internalType":"uint256"}],"stateMutability":"nonpayable"},{"type":"function","name":"getFragmentMetadata","inputs":[{"name":"fragmentType","type":"uint8","internalType":"uint8"}],"outputs":[{"name":"name","type":"string","internalType":"string"},{"name":"narrative","type":"string","internalType":"string"},{"name":"hint","type":"string","internalType":"string"}],"stateMutability":"view"},{"type":"function","name":"getFragmentStatus","inputs":[{"name":"characterId","type":"bytes32","internalType":"bytes32"},{"name":"fragmentType","type":"uint8","internalType":"uint8"}],"outputs":[{"name":"triggered","type":"bool","internalType":"bool"},{"name":"triggeredAt","type":"uint256","internalType":"uint256"},{"name":"triggerTileX","type":"uint16","internalType":"uint16"},{"name":"triggerTileY","type":"uint16","internalType":"uint16"},{"name":"claimed","type":"bool","internalType":"bool"},{"name":"claimedAt","type":"uint256","internalType":"uint256"},{"name":"tokenId","type":"uint256","internalType":"uint256"}],"stateMutability":"view"},{"type":"function","name":"setFragmentMetadata","inputs":[{"name":"fragmentType","type":"uint8","internalType":"uint8"},{"name":"name","type":"string","internalType":"string"},{"name":"narrative","type":"string","internalType":"string"},{"name":"hint","type":"string","internalType":"string"}],"outputs":[],"stateMutability":"nonpayable"},{"type":"function","name":"supportsInterface","inputs":[{"name":"interfaceId","type":"bytes4","internalType":"bytes4"}],"outputs":[{"name":"","type":"bool","internalType":"bool"}],"stateMutability":"pure"},{"type":"function","name":"triggerFragment","inputs":[{"name":"characterId","type":"bytes32","internalType":"bytes32"},{"name":"fragmentType","type":"uint8","internalType":"uint8"},{"name":"tileX","type":"uint16","internalType":"uint16"},{"name":"tileY","type":"uint16","internalType":"uint16"}],"outputs":[],"stateMutability":"nonpayable"},{"type":"event","name":"FragmentClaimed","inputs":[{"name":"characterId","type":"bytes32","indexed":true,"internalType":"bytes32"},{"name":"fragmentType","type":"uint8","indexed":false,"internalType":"uint8"},{"name":"tokenId","type":"uint256","indexed":false,"internalType":"uint256"}],"anonymous":false},{"type":"event","name":"FragmentTriggered","inputs":[{"name":"characterId","type":"bytes32","indexed":true,"internalType":"bytes32"},{"name":"fragmentType","type":"uint8","indexed":false,"internalType":"uint8"},{"name":"tileX","type":"uint16","indexed":false,"internalType":"uint16"},{"name":"tileY","type":"uint16","indexed":false,"internalType":"uint16"}],"anonymous":false},{"type":"event","name":"Store_SetRecord","inputs":[{"name":"tableId","type":"bytes32","indexed":true,"internalType":"ResourceId"},{"name":"keyTuple","type":"bytes32[]","indexed":false,"internalType":"bytes32[]"},{"name":"staticData","type":"bytes","indexed":false,"internalType":"bytes"},{"name":"encodedLengths","type":"bytes32","indexed":false,"internalType":"EncodedLengths"},{"name":"dynamicData","type":"bytes","indexed":false,"internalType":"bytes"}],"anonymous":false},{"type":"event","name":"Store_SpliceDynamicData","inputs":[{"name":"tableId","type":"bytes32","indexed":true,"internalType":"ResourceId"},{"name":"keyTuple","type":"bytes32[]","indexed":false,"internalType":"bytes32[]"},{"name":"dynamicFieldIndex","type":"uint8","indexed":false,"internalType":"uint8"},{"name":"start","type":"uint48","indexed":false,"internalType":"uint48"},{"name":"deleteCount","type":"uint40","indexed":false,"internalType":"uint40"},{"name":"encodedLengths","type":"bytes32","indexed":false,"internalType":"EncodedLengths"},{"name":"data","type":"bytes","indexed":false,"internalType":"bytes"}],"anonymous":false},{"type":"event","name":"Store_SpliceStaticData","inputs":[{"name":"tableId","type":"bytes32","indexed":true,"internalType":"ResourceId"},{"name":"keyTuple","type":"bytes32[]","indexed":false,"internalType":"bytes32[]"},{"name":"start","type":"uint48","indexed":false,"internalType":"uint48"},{"name":"data","type":"bytes","indexed":false,"internalType":"bytes"}],"anonymous":false},{"type":"error","name":"EncodedLengths_InvalidLength","inputs":[{"name":"length","type":"uint256","internalType":"uint256"}]},{"type":"error","name":"FragmentAlreadyClaimed","inputs":[]},{"type":"error","name":"FragmentNotTriggered","inputs":[]},{"type":"error","name":"GamePaused","inputs":[]},{"type":"error","name":"InvalidCharacter","inputs":[]},{"type":"error","name":"InvalidFragmentType","inputs":[]},{"type":"error","name":"NotAdmin","inputs":[]},{"type":"error","name":"NotCharacterOwner","inputs":[]},{"type":"error","name":"Slice_OutOfBounds","inputs":[{"name":"data","type":"bytes","internalType":"bytes"},{"name":"start","type":"uint256","internalType":"uint256"},{"name":"end","type":"uint256","internalType":"uint256"}]},{"type":"error","name":"Store_IndexOutOfBounds","inputs":[{"name":"length","type":"uint256","internalType":"uint256"},{"name":"accessedIndex","type":"uint256","internalType":"uint256"}]},{"type":"error","name":"Store_InvalidResourceType","inputs":[{"name":"expected","type":"bytes2","internalType":"bytes2"},{"name":"resourceId","type":"bytes32","internalType":"ResourceId"},{"name":"resourceIdString","type":"string","internalType":"string"}]},{"type":"error","name":"Store_InvalidSplice","inputs":[{"name":"startWithinField","type":"uint40","internalType":"uint40"},{"name":"deleteCount","type":"uint40","internalType":"uint40"},{"name":"fieldLength","type":"uint40","internalType":"uint40"}]},{"type":"error","name":"TokenAlreadyMinted","inputs":[]}],"bytecode":{"object":"0x608080604052346100165761530f908161001b8239f35b5f80fdfe60806040526004361015610011575f80fd5b5f3560e01c806301ffc9a7146100b4578063119df25f146100af5780631c03be6e146100aa57806336f0121d146100a557806345ec9354146100a05780636c248c501461009b5780638f78c51e14610096578063a359dd0014610091578063e1af802c1461008c5763e489754e14610087575f80fd5b610720565b610706565b610616565b610593565b6104b3565b610494565b610464565b61029a565b610116565b346101085760203660031901126101085760043563ffffffff60e01b81168091036101085763b5dee12760e01b81149081156100f7575b50151560805260206080f35b6301ffc9a760e01b149050816100eb565b5f80fd5b5f91031261010857565b34610108575f366003190112610108576020610130610b4f565b6040516001600160a01b039091168152f35b6004359060ff8216820361010857565b6024359060ff8216820361010857565b634e487b7160e01b5f52604160045260245ffd5b6001600160401b03811161018957604052565b610162565b602081019081106001600160401b0382111761018957604052565b606081019081106001600160401b0382111761018957604052565b604081019081106001600160401b0382111761018957604052565b60a081019081106001600160401b0382111761018957604052565b61012081019081106001600160401b0382111761018957604052565b601f909101601f19168101906001600160401b0382119082101761018957604052565b6001600160401b03811161018957601f01601f191660200190565b81601f820112156101085780359061026b82610239565b926102796040519485610216565b8284526020838301011161010857815f926020809301838601378301015290565b3461010857600319608036820112610108576102b4610142565b602435916001600160401b03808411610108576102d660049436908601610254565b93604435828111610108576102ee9036908301610254565b91606435908111610108576103069036908301610254565b93610317610312610b4f565b610bf6565b156104545760ff169260018410801561044a575b61043a57600984101561043557610340610b81565b9182511561043057602083018590526001600160a01b0361035f612567565b16308103610388575050509061037b6103869561038193612d27565b82610c24565b610cf0565b005b909192813b15610108575f6103df936103f482966040519b8c97889687956377b7543160e11b87526f467261676d656e744d65746164617461631d18955160e21b01908701526080602487015260848601906119f0565b9185604486015284830301606485015261056e565b03925af190811561042b576103869461038192610412575b5061037b565b8061041f61042592610176565b8061010c565b5f61040c565b611a23565b610bb1565b61090b565b506040516376d73d7160e01b8152fd5b506008841161032b565b50604051637bfa4b9f60e01b8152fd5b3461010857604036600319011261010857602061048a610482610152565b600435610929565b6040519015158152f35b34610108575f366003190112610108576020604051601f193601358152f35b346101085760403660031901126101085760e06104d96104d1610152565b600435610974565b9460409492939194519615158752602087015261ffff80921660408701521660608501521515608084015260a083015260c0820152f35b5f5b8381106105215750505f910152565b8181015183820152602001610512565b90606051918281525f5b83811061055a5750825f602080949584010152601f8019910116010190565b80602091608001518282850101520161053b565b9060209161058781518092818552858086019101610510565b601f01601f1916010190565b34610108576020366003190112610108576105d46105e26105f06105bd6105b8610142565b610a45565b91939060405195869560608752606087019061056e565b90858203602087015261056e565b90838203604085015261056e565b0390f35b6044359061ffff8216820361010857565b6064359061ffff8216820361010857565b3461010857608036600319011261010857600435610632610152565b61063a6105f4565b610642610605565b9161064b610b4f565b61065485610ee7565b6001600160a01b0391908216828216141590816106ee575b506106dc57610679610f48565b60ff8216600181109081156106d1575b506106bf576106a09061069b86610ee7565b161590565b6106ad5761038693610f73565b6040516318954fab60e11b8152600490fd5b6040516376d73d7160e01b8152600490fd5b60089150115f610689565b60405163396eeb4360e21b8152600490fd5b61070091506106fc90610f0a565b1590565b5f61066c565b34610108575f366003190112610108576020610130612567565b346101085760408060031936011261010857600480359161073f610152565b92610748610f48565b60ff8416600181108015610901575b6108f2576001600160a01b03936107718561069b85610ee7565b6108e45761077e83610ee7565b9061079661078a610b4f565b6001600160a01b031690565b868316036108d6576107a78361091f565b6107b46106fc8486610d9b565b6108c5576107c28385610dd4565b6108b7576107e06107d285611068565b6107db85610af7565b610b42565b956107ea876110a2565b166108aa57506105f09561085b867fd3956149bc957b62d97cc5a2cf390c5442ed5fa595d273c70135b0a43948c8cd94610840856108298497856111a7565b61083a61083582611284565b610b14565b9061136a565b61084a8188611418565b610855428289611510565b866115e1565b61087d61086785611722565b60c081016108758151610b22565b905285611886565b6108868461192a565b845160ff9190911681526020810191909152604090a2519081529081906020820190565b845162a5a1f560e01b8152fd5b8451636d65838960e01b8152fd5b845160016203bda960e31b03198152fd5b845163396eeb4360e21b8152fd5b83516318954fab60e11b8152fd5b5050516376d73d7160e01b8152fd5b5060088111610757565b634e487b7160e01b5f52602160045260245ffd5b6009111561043557565b9060ff1660018110801561096a575b6109645760098110156104355761094f8183610d9b565b918261095a57505090565b6106fc9250610dd4565b50505f90565b5060088111610938565b9060ff1690600182108015610a3b575b610a295760098210156104355761099b8282610d9b565b926109a4610b66565b8051156104305782602082015280516001101561043057808460406109ca930152611a2e565b926109d3610b66565b8051156104305783602082015280516001101561043057808260406109f9930152611c97565b60f01c92610a078282610e0d565b92610a26610a158484610dd4565b93610a208185610e4c565b93610e85565b90565b50505f905f905f905f905f905f905f90565b5060088211610984565b60ff16600181108015610ad9575b610aa657600981101561043557610a68610b81565b8051156104305780826020610a7e9301526123d8565b91610a87610b81565b80511561043057610aa081846020610a2694015261246f565b92610ebe565b50604051610ab38161018e565b5f815290604051610ac38161018e565b5f815290604051610ad38161018e565b5f815290565b5060088111610a53565b634e487b7160e01b5f52601160045260245ffd5b90620f424091828102928184041490151715610b0f57565b610ae3565b9060018201809211610b0f57565b9060648201809211610b0f57565b90630bfb0440918201809211610b0f57565b91908201809211610b0f57565b36603319013560601c908115610b6157565b339150565b60405190610b73826101a9565b600282526040366020840137565b60405190610b8e826101c4565b6001825260203681840137565b604051610ba78161018e565b5f8152905f368137565b634e487b7160e01b5f52603260045260245ffd5b8051156104305760200190565b8051600110156104305760400190565b80518210156104305760209160051b010190565b610bfe610b81565b805115610430576001600160a01b039091166020820152610c1e90611ae7565b60f81c90565b90610c2d610b81565b916009811015610435578251156104305760ff1660208301526001600160a01b03610c56612567565b1691308303610c6b57610c699250612f61565b565b90823b15610108576040516377b7543160e11b81525f805160206152cf833981519152600482015260806024820152925f928492839185918391610cd19190610cb89060848501906119f0565b600160448501528381036003190160648501529061056e565b03925af1801561042b57610ce3575b50565b8061041f610c6992610176565b90610cf9610b81565b916009811015610435578251156104305760ff1660208301526001600160a01b03610d22612567565b1691308303610d3557610c6992506131c3565b90823b15610108576040516377b7543160e11b81525f805160206152cf833981519152600482015260806024820152925f928492839185918391610cd19190610d829060848501906119f0565b600260448501528381036003190160648501529061056e565b610da3610b66565b908151156104305760208201526009821015610435578051600110156104305760ff610c1e92166040820152611b74565b610ddc610b66565b908151156104305760208201526009821015610435578051600110156104305760ff610c1e92166040820152611c07565b610e15610b66565b908151156104305760208201526009821015610435578051600110156104305760ff610e4692166040820152611d27565b60f01c90565b610e54610b66565b908151156104305760208201526009821015610435578051600110156104305760ff610a2692166040820152611db7565b610e8d610b66565b908151156104305760208201526009821015610435578051600110156104305760ff610a2692166040820152611e47565b610ec6610b81565b6009821015610435578051156104305760ff610a26921660208201526124eb565b610eef610b81565b80511561043057610f04916020820152611ed7565b60601c90565b610f12610b81565b805115610430576001600160a01b0382166020820152610f3190611f6d565b1590811591610f3e575090565b610a269150610bf6565b610f58610f53610b9b565b612005565b60f81c610f6157565b60405163379a7ed960e01b8152600490fd5b92919060ff8116600981101561043557610f8d8186610d9b565b611061577f7a7ebafe483dfa14a4cc1fec9138c7f0ce6584dbc7282fc2b14824af66e2f00c9361103461105c9260405190600160f81b602083015242602183015261ffff60f01b808860f01b1660418401528460f01b1660438301525f60458301525f60468301525f606683015260668252611008826101df565b611010610b66565b908961101b83610bc5565b526110258161091f565b61102e82610bd2565b52612792565b6040519384938491604091949360ff606085019616845261ffff809216602085015216910152565b0390a2565b5050505050565b611070610b81565b80511561043057610a2691602082015261206b565b61108d610b81565b80511561043057610f04916020820152612100565b6110aa610b81565b80511561043057610f04916020820152612192565b906110c8610b81565b918251156104305760208301526040519060018060601b03199060601b166020820152601481526110f8816101c4565b6001600160a01b03611108612567565b169130830361111b57610c69925061347f565b90823b15610108576040516301c85d5760e51b8152654f776e65727360501b67746242616467657360c01b01600482015260a06024820152925f92849283918591839161118991906111719060a48501906119f0565b9084604485015260031984830301606485015261056e565b630500400560da1b608483015203925af1801561042b57610ce35750565b906111b0610b81565b918251156104305760208301526040519060018060601b03199060601b166020820152601481526111e0816101c4565b6001600160a01b036111f0612567565b169130830361120357610c6992506147b1565b90823b15610108576040516301c85d5760e51b8152757462467261676d656e747300000000004f776e65727360501b600482015260a06024820152925f92849283918591839161118991906111719060a48501906119f0565b611264610b81565b805115610430576001600160a01b039091166020820152610a26906121ff565b61128c610b81565b805115610430576001600160a01b039091166020820152610a2690612260565b906112b5610b81565b805190926001600160a01b0391156104305781166020840152604051916020830152602082526112e4826101c4565b6112ec612567565b16913083036112ff57610c6992506135ff565b90823b15610108576040516301c85d5760e51b81525f805160206152af833981519152600482015260a06024820152925f92849283918591839161134c91906111719060a48501906119f0565b630100080160dd1b608483015203925af1801561042b57610ce35750565b90611373610b81565b805190926001600160a01b0391156104305781166020840152604051916020830152602082526113a2826101c4565b6113aa612567565b16913083036113bd57610c699250614928565b90823b15610108576040516301c85d5760e51b8152777462467261676d656e7473000000000042616c616e63657360401b600482015260a06024820152925f92849283918591839161134c91906111719060a48501906119f0565b90611421610b66565b918251156104305760208301526009811015610435578151600110156104305760ff166040820152604051600160f81b602082015260018152611463816101c4565b6001600160a01b03611473612567565b169130830361148657610c699250613766565b90823b15610108576040516301c85d5760e51b81525f805160206152ef833981519152600482015260a06024820152925f9284928391859183916114ec91906114d39060a48501906119f0565b600460448501528381036003190160648501529061056e565b690330380009001010090160ad1b608483015203925af1801561042b57610ce35750565b919061151a610b66565b928351156104305760208401526009811015610435578251600110156104305760ff16604083015260405190602082015260208152611558816101c4565b6001600160a01b03611568612567565b169130830361157b57610c699250613781565b90823b15610108576040516301c85d5760e51b81525f805160206152ef833981519152600482015260a06024820152925f9284928391859183916114ec91906115c89060a48501906119f0565b600560448501528381036003190160648501529061056e565b91906115eb610b66565b928351156104305760208401526009811015610435578251600110156104305760ff16604083015260405190602082015260208152611629816101c4565b6001600160a01b03611639612567565b169130830361164c57610c699250613795565b90823b15610108576040516301c85d5760e51b81525f805160206152ef833981519152600482015260a06024820152925f9284928391859183916114ec91906116999060a48501906119f0565b600660448501528381036003190160648501529061056e565b604051906101a082016001600160401b03811183821017610189576040525f610180838281528260208201528260408201528260608201528260808201528260a08201528260c08201528260e0820152826101008201528261012082015282610140820152826101608201520152565b61172a6116b2565b50611733610b81565b805115610430576117489160208201526125e4565b50506117526116b2565b9060208101519061185e604082015191611778611773606083015160f81c90565b613823565b9060618101519060818101519060a18101519060c18101519061183c8a61183260e1840151936101206117b86117b361010184015160f81c90565b613832565b9361182c6117ce6117b361010286015160f81c90565b936118226117e46117b361010384015160f81c90565b9161181861180e61010561180561180061010486015160f81c90565b61383e565b93015160f81c90565b1515610180870152565b61016085016126ae565b61014083016126ba565b016126ba565b6101008c016126ba565b60e08a015260c089015260a088015260808701526060860152604085016126c6565b6020830152815290565b6003111561043557565b6004111561043557565b600a111561043557565b611911610c6992611904815191602081015160408201516118a681611868565b6060830151608084015160a085015160c08601519160e087015193610100880151956118d187611872565b610120890151976118e189611872565b61190b6101806101408c01519b6118f78d611872565b6101608101519d8e61187c565b0151151590565b9b6126f2565b9061191a610b81565b9061192482610bc5565b52612836565b600180805b61199c575b5050611946611941610b9b565b6122cf565b60601c15610ce05761196861196361195d83610ee7565b92611068565b610b30565b9061197561078a83611085565b6119985761198681610c69936110bf565b6119926108358261125c565b906112ac565b5050565b60ff8116600881116119db576106fc816119b86119be9361091f565b85610dd4565b6119d65760ff809116908114610b0f5781018161192f565b505050565b50611934565b90816020910312610108575190565b9081518082526020808093019301915f5b828110611a0f575050505090565b835185529381019392810192600101611a01565b6040513d5f823e3d90fd5b6001600160a01b03611a3e612567565b16308103611a505750610a26906128b0565b604051638c364d5960e01b81525f805160206152ef83398151915260048201526080602482015291602091839182908190611a8f9060848301906119f0565b60016044830152690330380009001010090160ad1b606483015203915afa90811561042b575f91611abe575090565b610a26915060203d602011611ae0575b611ad88183610216565b8101906119e1565b503d611ace565b6001600160a01b03611af7612567565b16308103611b095750610a269061293c565b604051638c364d5960e01b81526420b236b4b760591b631d18955160e21b0160048201526080602482015291602091839182908190611b4c9060848301906119f0565b5f6044830152630101000160d81b606483015203915afa90811561042b575f91611abe575090565b6001600160a01b03611b84612567565b16308103611b9a5750611b9690613daa565b5490565b604051638c364d5960e01b81525f805160206152ef83398151915260048201526080602482015291602091839182908190611bd99060848301906119f0565b5f6044830152690330380009001010090160ad1b606483015203915afa90811561042b575f91611abe575090565b6001600160a01b03611c17612567565b16308103611c295750610a26906129b3565b604051638c364d5960e01b81525f805160206152ef83398151915260048201526080602482015291602091839182908190611c689060848301906119f0565b60046044830152690330380009001010090160ad1b606483015203915afa90811561042b575f91611abe575090565b6001600160a01b03611ca7612567565b16308103611cb95750610a26906129fb565b604051638c364d5960e01b81525f805160206152ef83398151915260048201526080602482015291602091839182908190611cf89060848301906119f0565b60026044830152690330380009001010090160ad1b606483015203915afa90811561042b575f91611abe575090565b6001600160a01b03611d37612567565b16308103611d495750610a2690612a7a565b604051638c364d5960e01b81525f805160206152ef83398151915260048201526080602482015291602091839182908190611d889060848301906119f0565b60036044830152690330380009001010090160ad1b606483015203915afa90811561042b575f91611abe575090565b6001600160a01b03611dc7612567565b16308103611dd95750610a2690612aea565b604051638c364d5960e01b81525f805160206152ef83398151915260048201526080602482015291602091839182908190611e189060848301906119f0565b60056044830152690330380009001010090160ad1b606483015203915afa90811561042b575f91611abe575090565b6001600160a01b03611e57612567565b16308103611e695750610a2690612b32565b604051638c364d5960e01b81525f805160206152ef83398151915260048201526080602482015291602091839182908190611ea89060848301906119f0565b60066044830152690330380009001010090160ad1b606483015203915afa90811561042b575f91611abe575090565b6001600160a01b03611ee7612567565b16308103611ef95750610a2690612b43565b604051638c364d5960e01b8152694368617261637465727360301b631d18955160e21b0160048201526080602482015291602091839182908190611f419060848301906119f0565b60016044830152665504022014200160c01b606483015203915afa90811561042b575f91611abe575090565b6001600160a01b03611f7d612567565b16308103611f8f5750610a2690612bbf565b604051638c364d5960e01b81526f53797374656d52656769737472790000661d189ddbdc9b1960ca1b0160048201526080602482015291602091839182908190611fdd9060848301906119f0565b5f6044830152630100080160dd1b606483015203915afa90811561042b575f91611abe575090565b6001600160a01b03612015612567565b163081036120275750610a2690612c2b565b604051638c364d5960e01b81526514185d5cd95960521b631d18955160e21b0160048201526080602482015291602091839182908190611b4c9060848301906119f0565b6001600160a01b0361207b612567565b1630810361208d5750611b9690613e28565b604051638c364d5960e01b8152694368617261637465727360301b631d18955160e21b01600482015260806024820152916020918391829081906120d59060848301906119f0565b5f6044830152665504022014200160c01b606483015203915afa90811561042b575f91611abe575090565b6001600160a01b03612110612567565b163081036121225750611b9690613eb8565b604051638c364d5960e01b8152654f776e65727360501b67746242616467657360c01b016004820152608060248201529160209183918290819061216a9060848301906119f0565b5f6044830152630500400560da1b606483015203915afa90811561042b575f91611abe575090565b6001600160a01b036121a2612567565b163081036121b45750611b9690613f86565b604051638c364d5960e01b8152757462467261676d656e747300000000004f776e65727360501b6004820152608060248201529160209183918290819061216a9060848301906119f0565b6001600160a01b0361220f612567565b163081036122215750611b9690613f1e565b604051638c364d5960e01b81525f805160206152af83398151915260048201526080602482015291602091839182908190611fdd9060848301906119f0565b6001600160a01b03612270612567565b163081036122825750611b9690613fef565b604051638c364d5960e01b8152777462467261676d656e7473000000000042616c616e63657360401b60048201526080602482015291602091839182908190611fdd9060848301906119f0565b6001600160a01b036122df612567565b163081036122f15750610a2690612c8d565b604051638c364d5960e01b81526f556c74696d617465446f6d696e696f6e631d18955160e21b016004820152608060248201529160209183918290819061233c9060848301906119f0565b600460448301526f45434000450505050505050805080805607a1b606483015203915afa90811561042b575f91611abe575090565b81601f8201121561010857805161238781610239565b926123956040519485610216565b8184526020828401011161010857610a269160208085019101610510565b906020828203126101085781516001600160401b03811161010857610a269201612371565b6001600160a01b036123e8612567565b163081036123fa5750610a2690613416565b604051631e78897760e01b81525f805160206152cf833981519152600482015260606024820152915f918391829081906124389060648301906119f0565b85604483015203915afa90811561042b575f91612453575090565b610a2691503d805f833e6124678183610216565b8101906123b3565b6001600160a01b0361247f612567565b163081036124915750610a269061343d565b604051631e78897760e01b81525f805160206152cf833981519152600482015260606024820152915f918391829081906124cf9060648301906119f0565b6001604483015203915afa90811561042b575f91612453575090565b6001600160a01b036124fb612567565b1630810361250d5750610a269061345e565b604051631e78897760e01b81525f805160206152cf833981519152600482015260606024820152915f9183918290819061254b9060648301906119f0565b6002604483015203915afa90811561042b575f91612453575090565b7f629a4c26e296b22a8e0856e9f6ecb2d1008d7e00081111962cd175fa7488e175546001600160a01b031680610a2657503390565b90916060828403126101085781516001600160401b03929083811161010857846125c7918301612371565b93602082015193604083015190811161010857610a269201612371565b6001600160a01b036125f4612567565b1630810361260d5750612606906137a9565b9192909190565b60405163419b58fd60e01b815264537461747360581b631d18955160e21b0160048201526060602482015292915f918491829081906126509060648301906119f0565b6fe60d002020012020202020010101010160781b604483015203915afa90811561042b575f80935f93612684575b50929190565b919350506126a491503d805f833e61269c8183610216565b81019061259c565b929092915f61267e565b600a8210156104355752565b6126c382611872565b52565b60038210156104355752565b6126db81611872565b60f81b9052565b600a8110156104355760f81b9052565b9060209c9a969b9892979199949395996040519d8e015260408d01526003871015610435576127859a6127789960a18e612757966127629961276d9c60f81b606084015260618301526081820152015260c18d015260e18c01526101018b01906126d2565b6101028901906126d2565b6101038701906126d2565b6101048501906126e2565b151560f81b610105830152565b60e68152610a26816101fa565b6001600160a01b036127a2612567565b163081036127b5575090610c699161384d565b90813b15610108575f9161280e8361282193610cd16040519788968795869463298314fb60e01b86526f467261676d656e7450726f6772657373631d18955160e21b01600487015260a0602487015260a48601906119f0565b600319928386830301604487015261056e565b90846064850152838203016084840152610531565b6001600160a01b03612846612567565b16308103612859575090610c6991613a5b565b90813b156101085760405163298314fb60e01b815264537461747360581b631d18955160e21b01600482015260a06024820152925f9284929091839185918391610cd191906128219061280e9060a48601906119f0565b6128b990613daa565b5f905f5b600181106129105750818160208210156128fa575b505080548260031b1b9160200390816020116128ed57505090565b600101549060031b1c1790565b90809350601f925060051c019116905f806128d2565b9160ff690330380009001010090160ad1b84601b0360031b1c168101809111610b0f57916001016128bd565b60405160208160208101936420b236b4b760591b631d18955160e21b0185526040820160208251919201935f5b82811061299c57505050612986925003601f198101835282610216565b5190205f8051602061522f833981519152185490565b855184529481019486945092810192600101612969565b6129bc90613daa565b6129c461404f565b908060208310156129ea575b5080548260031b1b9160200390816001116128ed57505090565b601f83169260051c0190505f6129d0565b612a0490613daa565b5f905f5b60028110612a4e575081816020821015612a38575b505080548260031b1b9160200390816002116128ed57505090565b90809350601f925060051c019116905f80612a1d565b9160ff690330380009001010090160ad1b84601b0360031b1c168101809111610b0f5791600101612a08565b612a8390613daa565b5f9190825b600380851015612ac057690330380009001010090160ad1b601b86900390911b1c60ff168101908110610b0f57600190930192612a88565b5091925081816020821015612a3857505080548260031b1b9160200390816002116128ed57505090565b612af390613daa565b612afb61408a565b90806020831015612b21575b5080548260031b1b9160200390816020116128ed57505090565b601f83169260051c0190505f612b07565b612b3b90613daa565b612afb6140c5565b612b4c90613e28565b5f905f5b60018110612b96575081816020821015612b80575b505080548260031b1b9160200390816014116128ed57505090565b90809350601f925060051c019116905f80612b65565b9160ff665504022014200160c01b84601b0360031b1c168101809111610b0f5791600101612b50565b60405160208160208101936f53797374656d52656769737472790000661d189ddbdc9b1960ca1b0185526040820160208251919201935f5b828110612c1457505050612986925003601f198101835282610216565b855184529481019486945092810192600101612bf7565b60405160208160208101936514185d5cd95960521b631d18955160e21b0185526040820160208251919201935f5b828110612c7657505050612986925003601f198101835282610216565b855184529481019486945092810192600101612c59565b604051612cb081612ca2602082019485613c9e565b03601f198101835282610216565b5190205f8051602061522f833981519152185f905f5b60048110612cf5575081816020821015612b8057505080548260031b1b9160200390816014116128ed57505090565b9160ff6f45434000450505050505050805080805607a1b84601b0360031b1c168101809111610b0f5791600101612cc6565b919091612d3381614b66565b5464ffffffffff8160381c16612d54612d4c8280614100565b865190610b42565b8181141594908580612f42575b612f2257612d6f9084614bba565b90612d78614d12565b915f5b8351811015612e2557612daf612da2612d948387610be2565b516001600160581b03191690565b6001600160581b03191690565b6010808260581c1614612dc6575b50600101612d7b565b60601c90813b15610108575f878b9388838c612df860405198899687958694630abd6b4560e31b86526004860161413e565b03925af191821561042b57600192612e12575b5090612dbd565b8061041f612e1f92610176565b5f612e0b565b506040805192979195509392915f805160206152cf833981519152905f805160206151cf8339815191529080612e5e8c8a898d85614269565b0390a2612f12575b612e7887612e7387614347565b614ff0565b5f5b8151811015612f0857612e93612da2612d948385610be2565b6020808260581c1614612eaa575b50600101612e7a565b60601c90813b15610108575f868a9386838b612edb8b5198899687958694636358453360e01b86526004860161413e565b03925af191821561042b57600192612ef5575b5090612ea1565b8061041f612f0292610176565b5f612eee565b5050505050509050565b83612f1c86614b66565b55612e66565b604051632994042d60e21b815280612f3e858060048401614120565b0390fd5b5082612f5a612f508261410d565b64ffffffffff1690565b1415612d61565b919091612f6d81614b66565b5464ffffffffff926060848360601c1691612f93612f8b8480614100565b885190610b42565b83811415969087806131ae575b61319257612fae9086614c37565b96612fb7614d12565b925f5b845181101561304857612fd3612da2612d948388610be2565b6010808260581c1614612fea575b50600101612fba565b861c90813b15610108575f898d938a838e61301b60405198899687958694630abd6b4560e31b8652600486016141a1565b03925af191821561042b57600192613035575b5090612fe1565b8061041f61304292610176565b5f61302e565b509298939790949691965f985f995b60ff8b16600181101561307e5760ff918b8b6001936028026038011c16019b011699613057565b509692975093985093989196506040945f805160206151cf83398151915285896130d38d8b60405194859465ffffffffffff6f467261676d656e744d65746164617461631d18955160e21b01991690866142ad565b0390a2613182575b6130e888612e7388614372565b5f5b815181101561317757613103612da2612d948385610be2565b6020808260581c161461311a575b506001016130ea565b831c90813b15610108575f878b9387838c61314a8c5198899687958694636358453360e01b8652600486016141a1565b03925af191821561042b57600192613164575b5090613111565b8061041f61317192610176565b5f61315d565b505050505050509050565b8461318c87614b66565b556130db565b604051632994042d60e21b815280612f3e878060048401614120565b50846131bc612f508261410d565b1415612fa0565b9190916131cf81614b66565b5464ffffffffff92838260881c16906131f36131eb8380614100565b875190610b42565b8281141595908680613401575b6133e55761320e9085614ca4565b95613217614d12565b925f5b84518110156132a957613233612da2612d948388610be2565b6010808260581c161461324a575b5060010161321a565b60601c90813b15610108575f888c9389838d61327c60405198899687958694630abd6b4560e31b865260048601614205565b03925af191821561042b57600192613296575b5090613241565b8061041f6132a392610176565b5f61328f565b5091959093969792975f975f985b60ff8a1660028110156132de5760ff918a8a6001936028026038011c16019a0116986132b7565b5095929750939892975094506040935f805160206151cf833981519152604051806133308c8a898d65ffffffffffff6f467261676d656e744d65746164617461631d18955160e21b01991690866142fa565b0390a26133d5575b61334587612e73876143a9565b5f5b8151811015612f0857613360612da2612d948385610be2565b6020808260581c1614613377575b50600101613347565b60601c90813b15610108575f868a9386838b6133a88b5198899687958694636358453360e01b865260048601614205565b03925af191821561042b576001926133c2575b509061336e565b8061041f6133cf92610176565b5f6133bb565b836133df86614b66565b55613338565b604051632994042d60e21b815280612f3e868060048401614120565b508361340f612f508261410d565b1415613200565b610a269064ffffffffff61343261342c83614347565b92614b66565b5460381c1690614442565b610a269064ffffffffff61345361342c83614372565b5460601c1690614442565b610a269064ffffffffff61347461342c836143a9565b5460881c1690614442565b919061348a83613eb8565b91613493614e8d565b905f5b825181101561351f576134af612da2612d948386610be2565b9060049182808260581c16146134cb575b506001915001613496565b60601c803b1561010857855f9189836134f9966040519788958694859363964f667d60e01b85528401614556565b03925af191821561042b57600192156134c0578061041f61351992610176565b5f6134c0565b506040805191949093929161356b918491654f776e65727360501b67746242616467657360c01b01905f8051602061520f8339815191529080613563868d836144aa565b0390a261503d565b5f5b81518110156135f757613586612da2612d948385610be2565b6008808260581c161461359d575b5060010161356d565b60601c90813b1561010857845163a8ba872160e01b8152915f9083908183816135ca8a8e60048401614556565b03925af191821561042b576001926135e4575b5090613594565b8061041f6135f192610176565b5f6135dd565b505050509050565b919061360a83613f1e565b91613613614ee6565b905f5b825181101561369f5761362f612da2612d948386610be2565b9060049182808260581c161461364b575b506001915001613616565b60601c803b1561010857855f918983613679966040519788958694859363964f667d60e01b8552840161459e565b03925af191821561042b5760019215613640578061041f61369992610176565b5f613640565b50604080519194909392916136da9184915f805160206152af833981519152905f8051602061520f8339815191529080613563868d836144aa565b5f5b81518110156135f7576136f5612da2612d948385610be2565b6008808260581c161461370c575b506001016136dc565b60601c90813b1561010857845163a8ba872160e01b8152915f9083908183816137398a8e6004840161459e565b03925af191821561042b57600192613753575b5090613703565b8061041f61376092610176565b5f61374c565b90610c699165ffffffffffff61377a61404f565b169061462c565b90610c699165ffffffffffff61377a61408a565b90610c699165ffffffffffff61377a6140c5565b5f906137b6606091613e8e565b60405190602090601f19908161012585011660405260e68452602084019260e691925b8183101561380b575050806137ef575b50505092565b5f199060031b1c908183511691199054161790525f80806137e9565b816001858394959796548752019401940191906137d9565b60ff1660038110156104355790565b60ff16610a2681611872565b60ff16600a8110156104355790565b60408051655461626c657360501b66746273746f726560c81b01602082019081525f805160206152ef8339815191528284018190528383529295929491613893816101a9565b5190205f8051602061522f8339815191521854916138af614ddd565b905f5b825181101561393d576138cb612da2612d948386610be2565b6001808260581c16146138e2575b506001016138b2565b60601c90813b156101085788516315c19b2760e21b8152915f9083908183816139108c8c8f60048501614aca565b03925af191821561042b5760019261392a575b50906138d9565b8061041f61393792610176565b5f613923565b50945f8051602061524f83398151915287518061395b868983614a8e565b0390a261397661396a85613ea3565b835160208501916150c9565b60ff808460e01c1680613a1c575b50505f5b8151811015613a13576139a1612da2612d948385610be2565b6002808260581c16146139b8575b50600101613988565b60601c90813b15610108578751635b28cdaf60e01b8152915f9083908183816139e68b8b8e60048501614aca565b03925af191821561042b57600192613a00575b50906139af565b8061041f613a0d92610176565b5f6139f9565b50505050509050565b5f613a2687614b90565b555f60805b8284831610613a3b575050613984565b600181613a528693613a4d868d6143e0565b615094565b92011690613a2b565b60408051655461626c657360501b66746273746f726560c81b016020820190815264537461747360581b631d18955160e21b018284018190528383529295929491613aa5816101a9565b5190205f8051602061522f833981519152185491613ac1614e39565b905f5b8251811015613b4f57613add612da2612d948386610be2565b6001808260581c1614613af4575b50600101613ac4565b60601c90813b156101085788516315c19b2760e21b8152915f908390818381613b228c8c8f60048501614b2d565b03925af191821561042b57600192613b3c575b5090613aeb565b8061041f613b4992610176565b5f613b35565b50945f8051602061524f833981519152875180613b6d868983614a8e565b0390a2613b7c61396a85613e8e565b60ff808460e01c1680613c19575b50505f5b8151811015613a1357613ba7612da2612d948385610be2565b6002808260581c1614613bbe575b50600101613b8e565b60601c90813b15610108578751635b28cdaf60e01b8152915f908390818381613bec8b8b8e60048501614b2d565b03925af191821561042b57600192613c06575b5090613bb5565b8061041f613c1392610176565b5f613bff565b5f613c2387614ba5565b555f60805b8284831610613c38575050613b8a565b600181613c4a8693613a4d868d61441d565b92011690613c28565b6953746f7265486f6f6b7360301b66746273746f726560c81b01815281516020918201928201915f5b828110613c8a575050505090565b835185529381019392810192600101613c7c565b6f556c74696d617465446f6d696e696f6e631d18955160e21b01815281516020918201928201915f5b828110613cd5575050505090565b835185529381019392810192600101613cc7565b5f805160206152cf833981519152815281516020918201928201915f5b828110613d14575050505090565b835185529381019392810192600101613d06565b64537461747360581b631d18955160e21b01815281516020918201928201915f5b828110613d57575050505090565b835185529381019392810192600101613d49565b5f805160206152ef833981519152815281516020918201928201915f5b828110613d96575050505090565b835185529381019392810192600101613d88565b60405160208160208101936f467261676d656e7450726f6772657373631d18955160e21b0185526040820160208251919201935f5b828110613e1157505050613dfc925003601f198101835282610216565b5190205f8051602061522f8339815191521890565b855184529481019486945092810192600101613ddf565b6040516020816020810193694368617261637465727360301b631d18955160e21b0185526040820160208251919201935f5b828110613e7757505050613dfc925003601f198101835282610216565b855184529481019486945092810192600101613e5a565b604051613dfc81612ca2602082019485613d28565b604051613dfc81612ca2602082019485613d6b565b6040516020816020810193654f776e65727360501b67746242616467657360c01b0185526040820160208251919201935f5b828110613f0757505050613dfc925003601f198101835282610216565b855184529481019486945092810192600101613eea565b60405160208160208101936742616c616e63657360401b67746242616467657360c01b0185526040820160208251919201935f5b828110613f6f57505050613dfc925003601f198101835282610216565b855184529481019486945092810192600101613f52565b6040516020816020810193757462467261676d656e747300000000004f776e65727360501b85526040820160208251919201935f5b828110613fd857505050613dfc925003601f198101835282610216565b855184529481019486945092810192600101613fbb565b60405160208160208101935f805160206151ef83398151915260401b85526040820160208251919201935f5b82811061403857505050613dfc925003601f198101835282610216565b85518452948101948694509281019260010161401b565b5f805b6004811061405e575090565b9060ff690330380009001010090160ad1b83601b0360031b1c168101809111610b0f5790600101614052565b5f805b60058110614099575090565b9060ff690330380009001010090160ad1b83601b0360031b1c168101809111610b0f579060010161408d565b5f805b600681106140d4575090565b9060ff690330380009001010090160ad1b83601b0360031b1c168101809111610b0f57906001016140c8565b91908203918211610b0f57565b9064ffffffffff809216918211610b0f57565b5f815264ffffffffff91821660208201529116604082015260600190565b909264ffffffffff61417c610a269694956f467261676d656e744d65746164617461631d18955160e21b01855260e0602086015260e08501906119f0565b945f60408501525f606085015216608083015260a082015260c081840391015261056e565b909264ffffffffff6141df610a269694956f467261676d656e744d65746164617461631d18955160e21b01855260e0602086015260e08501906119f0565b94600160408501525f606085015216608083015260a082015260c081840391015261056e565b909264ffffffffff614243610a269694956f467261676d656e744d65746164617461631d18955160e21b01855260e0602086015260e08501906119f0565b94600260408501525f606085015216608083015260a082015260c081840391015261056e565b909264ffffffffff614288610a2696949560c0855260c08501906119f0565b945f60208501525f6040850152166060830152608082015260a081840391015261056e565b919390610a26959365ffffffffffff6142d464ffffffffff9360c0875260c08701906119f0565b9660016020870152166040850152166060830152608082015260a081840391015261056e565b919390610a26959365ffffffffffff61432164ffffffffff9360c0875260c08701906119f0565b9660026020870152166040850152166060830152608082015260a081840391015261056e565b5f8051602061526f8339815191529060405161436b81612ca2602082019485613ce9565b5190201890565b7f3a4102da22e32d82fc925482184f16c09fd4281692720b87d124aef6da48a0f19060405161436b81612ca2602082019485613ce9565b7f394102da22e32d82fc925482184f16c09fd4281692720b87d124aef6da48a0f19060405161436b81612ca2602082019485613ce9565b905f8051602061526f8339815191529160405161440581612ca2602082019485613d6b565b51902060f89190911b6001600160f81b031916181890565b905f8051602061526f8339815191529160405161440581612ca2602082019485613d28565b60408051601f19603f85830101811690925283815292602080850193925b8183101561449257505080614476575b50505090565b5f199060031b1c908183511691199054161790525f8080614470565b81600185839495979654875201940194019190614460565b90916144c1610a26936060845260608401906119f0565b915f6020820152604081840391015261056e565b65ffffffffffff6144f2610a2695936060845260608401906119f0565b93166020820152604081840391015261056e565b65ffffffffffff614542610a2695936f467261676d656e7450726f6772657373631d18955160e21b0184526080602085015260808401906119f0565b93166040820152606081840391015261056e565b654f776e65727360501b67746242616467657360c01b018152608060208201819052610a2693919261458a918401906119f0565b915f6040820152606081840391015261056e565b5f805160206152af8339815191528152608060208201819052610a2693919261458a918401906119f0565b909161458a610a2693757462467261676d656e747300000000004f776e65727360501b84526080602085015260808401906119f0565b909161458a610a26935f805160206151ef83398151915260401b84526080602085015260808401906119f0565b9092919261463982613ea3565b614641614ddd565b905f5b82518110156146ce5761465d612da2612d948386610be2565b9060049182808260581c1614614679575b506001915001614644565b60601c803b1561010857855f9188838c966146a86040519889968795869463964f667d60e01b86528501614506565b03925af191821561042b576001921561466e578061041f6146c892610176565b5f61466e565b50949190614724836040976040515f8051602061520f8339815191526f467261676d656e7450726f6772657373631d18955160e21b019180614712868a8d846144d5565b0390a265ffffffffffff851690615083565b5f5b8151811015613a135761473f612da2612d948385610be2565b6008808260581c1614614756575b50600101614726565b60601c90813b1561010857875163a8ba872160e01b8152915f9083908183816147848b8b8e60048501614506565b03925af191821561042b5760019261479e575b509061474d565b8061041f6147ab92610176565b5f614797565b91906147bc83613f86565b916147c5614f41565b905f5b8251811015614851576147e1612da2612d948386610be2565b9060049182808260581c16146147fd575b5060019150016147c8565b60601c803b1561010857855f91898361482b966040519788958694859363964f667d60e01b855284016145c9565b03925af191821561042b57600192156147f2578061041f61484b92610176565b5f6147f2565b5092919061489c826040946040515f8051602061520f833981519152757462467261676d656e747300000000004f776e65727360501b9180614894868d836144aa565b0390a261504c565b5f5b81518110156135f7576148b7612da2612d948385610be2565b6008808260581c16146148ce575b5060010161489e565b60601c90813b1561010857845163a8ba872160e01b8152915f9083908183816148fb8a8e600484016145c9565b03925af191821561042b57600192614915575b50906148c5565b8061041f61492292610176565b5f61490e565b919061493383613fef565b9161493c614f9d565b905f5b82518110156149c857614958612da2612d948386610be2565b9060049182808260581c1614614974575b50600191500161493f565b60601c803b1561010857855f9189836149a2966040519788958694859363964f667d60e01b855284016145ff565b03925af191821561042b5760019215614969578061041f6149c292610176565b5f614969565b50929190614a02826040946040515f8051602061520f8339815191525f805160206151ef83398151915260401b9180614894868d836144aa565b5f5b81518110156135f757614a1d612da2612d948385610be2565b6008808260581c1614614a34575b50600101614a04565b60601c90813b1561010857845163a8ba872160e01b8152915f908390818381614a618a8e600484016145ff565b03925af191821561042b57600192614a7b575b5090614a2b565b8061041f614a8892610176565b5f614a74565b90610a2692614aa8614ab6926080855260808501906119f0565b90838203602085015261056e565b905f60408201526060818303910152610531565b939291614b15614b2891614b0760a0946f467261676d656e7450726f6772657373631d18955160e21b01895260c060208a015260c08901906119f0565b90878203604089015261056e565b5f60608701528581036080870152610531565b930152565b64537461747360581b631d18955160e21b01815260c0602082018190529094939260a092614b2892614b159291614b07918901906119f0565b604051614b7b81612ca2602082019485613ce9565b5190205f8051602061528f8339815191521890565b604051614b7b81612ca2602082019485613d6b565b604051614b7b81612ca2602082019485613d28565b64ffffffffff808311614c1e5766ffffffffffffff821690603883901c1683818110614c14570301915b64ffffffffff60381b60389190911b1664ffffffffff60381b19929092166001600160601b031991909116171790565b9003900391614be4565b604051637149a3c160e01b815260048101849052602490fd5b64ffffffffff808311614c1e5766ffffffffffffff821690606083901c1683818110614c9a570301915b64ffffffffff60601b60609190911b1664ffffffffff60601b1992909216600169ffffffffff000000000160381b031991909116171790565b9003900391614c61565b64ffffffffff808311614c1e5766ffffffffffffff821690608883901c1683818110614d08570301915b64ffffffffff60881b60889190911b1664ffffffffff60881b199290921666ffffffffffffff64ffffffffff60881b011991909116171790565b9003900391614cce565b614d1a610b81565b80511561043057614dc6610a26916f467261676d656e744d65746164617461631d18955160e21b01602082015264ffffffffff604051915f8051602061526f8339815191526020840184614d6e8483613c53565b0394614d82601f1996878101835282610216565b5190201892614da96040519182614d9d602082019586613c53565b03908101835282610216565b5190205f8051602061528f833981519152185460381c1690614442565b602060018060801b03825116910160801b1761517c565b614de5610b81565b80511561043057614dc6610a26916f467261676d656e7450726f6772657373631d18955160e21b01602082015264ffffffffff604051915f8051602061526f8339815191526020840184614d6e8483613c53565b614e41610b81565b80511561043057614dc6610a269164537461747360581b631d18955160e21b01602082015264ffffffffff604051915f8051602061526f8339815191526020840184614d6e8483613c53565b614e95610b81565b80511561043057614dc6610a2691654f776e65727360501b67746242616467657360c01b01602082015264ffffffffff604051915f8051602061526f8339815191526020840184614d6e8483613c53565b614eee610b81565b80511561043057614dc6610a26916742616c616e63657360401b67746242616467657360c01b01602082015264ffffffffff604051915f8051602061526f8339815191526020840184614d6e8483613c53565b614f49610b81565b80511561043057614dc6610a2691757462467261676d656e747300000000004f776e65727360501b602082015264ffffffffff604051915f8051602061526f8339815191526020840184614d6e8483613c53565b614fa5610b81565b80511561043057614dc6610a26915f805160206151ef83398151915260401b602082015264ffffffffff604051915f8051602061526f8339815191526020840184614d6e8483613c53565b81519060208093019190925b8082101561502557508061500f57505050565b5f199060031b1c90818354169119905116179055565b6001839482939451815501930191601f190190614ffc565b8151610c6992602001916150c9565b81519060208093019190925b8082101561506b57508061500f57505050565b6001839482939451815501930191601f190190615058565b8251610c69936020019290916150ec565b9190915f905b6020908183106150ba5784518155930192601f199091019060010161509a565b92939190508061500f57505050565b9291926020908183106150ba5784518155930192601f199091019060010161509a565b90939291938061511b575b509290926020908183106150ba5784518155930192601f199091019060010161509a565b602081101561516c575b80156150f75791939082602003908360031b5f198460031b1c19811c908751901c9080198354169116178155818311156135f757600101940191601f19910101925f6150f7565b90601f908260051c019116615125565b8060801c906015809160018060801b031604604051926020906020850160208460051b8701016040528386525f5b8481106151ba5750505050505090565b8251825291850191908301906001016151aa56fefe158a7adba34e256807c8a149028d3162918713c3838afc643ce9f96716ebfd00000000000000007462467261676d656e7473000000000042616c616e6365738c0b5119d4cec7b284c6b1b39252a03d1e2f2d7451a5895562524c113bb952be86425bff6b57326c7859e89024fe4f238ca327a1ae4a230180dd2f0e88aaa7d98dbb3a9672eebfd3773e72dd9c102393436816d832c7ba9e1e1ac8fcadcac7a93b4102da22e32d82fc925482184f16c09fd4281692720b87d124aef6da48a0f114e2fcc58e58e68ec7edc30c8d50dccc3ce2714a623ec81f46b6a63922d765697462426164676573000000000000000042616c616e636573000000000000000074625544000000000000000000000000467261676d656e744d6574616461746174625544000000000000000000000000467261676d656e7450726f6772657373","linkReferences":{}},"methodIdentifiers":{"_msgSender()":"119df25f","_msgValue()":"45ec9354","_world()":"e1af802c","canClaim(bytes32,uint8)":"36f0121d","claimFragment(bytes32,uint8)":"e489754e","getFragmentMetadata(uint8)":"8f78c51e","getFragmentStatus(bytes32,uint8)":"6c248c50","setFragmentMetadata(uint8,string,string,string)":"1c03be6e","supportsInterface(bytes4)":"01ffc9a7","triggerFragment(bytes32,uint8,uint16,uint16)":"a359dd00"},"id":504}