{"abi":[{"type":"function","name":"_msgSender","inputs":[],"outputs":[{"name":"sender","type":"address","internalType":"address"}],"stateMutability":"view"},{"type":"function","name":"_msgValue","inputs":[],"outputs":[{"name":"value","type":"uint256","internalType":"uint256"}],"stateMutability":"view"},{"type":"function","name":"_world","inputs":[],"outputs":[{"name":"","type":"address","internalType":"address"}],"stateMutability":"view"},{"type":"function","name":"canClaim","inputs":[{"name":"characterId","type":"bytes32","internalType":"bytes32"},{"name":"fragmentType","type":"uint8","internalType":"uint8"}],"outputs":[{"name":"","type":"bool","internalType":"bool"}],"stateMutability":"view"},{"type":"function","name":"checkCombatFragmentTriggers","inputs":[{"name":"characterId","type":"bytes32","internalType":"bytes32"},{"name":"defeated","type":"bytes32[]","internalType":"bytes32[]"},{"name":"tileX","type":"uint16","internalType":"uint16"},{"name":"tileY","type":"uint16","internalType":"uint16"},{"name":"defeatedAreMobs","type":"bool","internalType":"bool"}],"outputs":[],"stateMutability":"nonpayable"},{"type":"function","name":"checkCombatFragmentTriggersForGroup","inputs":[{"name":"winners","type":"bytes32[]","internalType":"bytes32[]"},{"name":"defeated","type":"bytes32[]","internalType":"bytes32[]"},{"name":"tileX","type":"uint16","internalType":"uint16"},{"name":"tileY","type":"uint16","internalType":"uint16"},{"name":"defeatedAreMobs","type":"bool","internalType":"bool"}],"outputs":[],"stateMutability":"nonpayable"},{"type":"function","name":"claimFragment","inputs":[{"name":"characterId","type":"bytes32","internalType":"bytes32"},{"name":"fragmentType","type":"uint8","internalType":"uint8"}],"outputs":[{"name":"tokenId","type":"uint256","internalType":"uint256"}],"stateMutability":"nonpayable"},{"type":"function","name":"getFragmentMetadata","inputs":[{"name":"fragmentType","type":"uint8","internalType":"uint8"}],"outputs":[{"name":"name","type":"string","internalType":"string"},{"name":"narrative","type":"string","internalType":"string"},{"name":"hint","type":"string","internalType":"string"}],"stateMutability":"view"},{"type":"function","name":"getFragmentStatus","inputs":[{"name":"characterId","type":"bytes32","internalType":"bytes32"},{"name":"fragmentType","type":"uint8","internalType":"uint8"}],"outputs":[{"name":"triggered","type":"bool","internalType":"bool"},{"name":"triggeredAt","type":"uint256","internalType":"uint256"},{"name":"triggerTileX","type":"uint16","internalType":"uint16"},{"name":"triggerTileY","type":"uint16","internalType":"uint16"},{"name":"claimed","type":"bool","internalType":"bool"},{"name":"claimedAt","type":"uint256","internalType":"uint256"},{"name":"tokenId","type":"uint256","internalType":"uint256"}],"stateMutability":"view"},{"type":"function","name":"setFragmentMetadata","inputs":[{"name":"fragmentType","type":"uint8","internalType":"uint8"},{"name":"name","type":"string","internalType":"string"},{"name":"narrative","type":"string","internalType":"string"},{"name":"hint","type":"string","internalType":"string"}],"outputs":[],"stateMutability":"nonpayable"},{"type":"function","name":"supportsInterface","inputs":[{"name":"interfaceId","type":"bytes4","internalType":"bytes4"}],"outputs":[{"name":"","type":"bool","internalType":"bool"}],"stateMutability":"pure"},{"type":"function","name":"triggerFragment","inputs":[{"name":"characterId","type":"bytes32","internalType":"bytes32"},{"name":"fragmentType","type":"uint8","internalType":"uint8"},{"name":"tileX","type":"uint16","internalType":"uint16"},{"name":"tileY","type":"uint16","internalType":"uint16"}],"outputs":[],"stateMutability":"nonpayable"},{"type":"event","name":"FragmentClaimed","inputs":[{"name":"characterId","type":"bytes32","indexed":true,"internalType":"bytes32"},{"name":"fragmentType","type":"uint8","indexed":false,"internalType":"uint8"},{"name":"tokenId","type":"uint256","indexed":false,"internalType":"uint256"}],"anonymous":false},{"type":"event","name":"FragmentTriggered","inputs":[{"name":"characterId","type":"bytes32","indexed":true,"internalType":"bytes32"},{"name":"fragmentType","type":"uint8","indexed":false,"internalType":"uint8"},{"name":"tileX","type":"uint16","indexed":false,"internalType":"uint16"},{"name":"tileY","type":"uint16","indexed":false,"internalType":"uint16"}],"anonymous":false},{"type":"event","name":"Store_SetRecord","inputs":[{"name":"tableId","type":"bytes32","indexed":true,"internalType":"ResourceId"},{"name":"keyTuple","type":"bytes32[]","indexed":false,"internalType":"bytes32[]"},{"name":"staticData","type":"bytes","indexed":false,"internalType":"bytes"},{"name":"encodedLengths","type":"bytes32","indexed":false,"internalType":"EncodedLengths"},{"name":"dynamicData","type":"bytes","indexed":false,"internalType":"bytes"}],"anonymous":false},{"type":"event","name":"Store_SpliceDynamicData","inputs":[{"name":"tableId","type":"bytes32","indexed":true,"internalType":"ResourceId"},{"name":"keyTuple","type":"bytes32[]","indexed":false,"internalType":"bytes32[]"},{"name":"dynamicFieldIndex","type":"uint8","indexed":false,"internalType":"uint8"},{"name":"start","type":"uint48","indexed":false,"internalType":"uint48"},{"name":"deleteCount","type":"uint40","indexed":false,"internalType":"uint40"},{"name":"encodedLengths","type":"bytes32","indexed":false,"internalType":"EncodedLengths"},{"name":"data","type":"bytes","indexed":false,"internalType":"bytes"}],"anonymous":false},{"type":"event","name":"Store_SpliceStaticData","inputs":[{"name":"tableId","type":"bytes32","indexed":true,"internalType":"ResourceId"},{"name":"keyTuple","type":"bytes32[]","indexed":false,"internalType":"bytes32[]"},{"name":"start","type":"uint48","indexed":false,"internalType":"uint48"},{"name":"data","type":"bytes","indexed":false,"internalType":"bytes"}],"anonymous":false},{"type":"error","name":"EncodedLengths_InvalidLength","inputs":[{"name":"length","type":"uint256","internalType":"uint256"}]},{"type":"error","name":"FragmentAlreadyClaimed","inputs":[]},{"type":"error","name":"FragmentNotTriggered","inputs":[]},{"type":"error","name":"GamePaused","inputs":[]},{"type":"error","name":"InvalidCharacter","inputs":[]},{"type":"error","name":"InvalidFragmentType","inputs":[]},{"type":"error","name":"NotAdmin","inputs":[]},{"type":"error","name":"NotCharacterOwner","inputs":[]},{"type":"error","name":"Slice_OutOfBounds","inputs":[{"name":"data","type":"bytes","internalType":"bytes"},{"name":"start","type":"uint256","internalType":"uint256"},{"name":"end","type":"uint256","internalType":"uint256"}]},{"type":"error","name":"Store_IndexOutOfBounds","inputs":[{"name":"length","type":"uint256","internalType":"uint256"},{"name":"accessedIndex","type":"uint256","internalType":"uint256"}]},{"type":"error","name":"Store_InvalidResourceType","inputs":[{"name":"expected","type":"bytes2","internalType":"bytes2"},{"name":"resourceId","type":"bytes32","internalType":"ResourceId"},{"name":"resourceIdString","type":"string","internalType":"string"}]},{"type":"error","name":"Store_InvalidSplice","inputs":[{"name":"startWithinField","type":"uint40","internalType":"uint40"},{"name":"deleteCount","type":"uint40","internalType":"uint40"},{"name":"fieldLength","type":"uint40","internalType":"uint40"}]},{"type":"error","name":"TokenAlreadyMinted","inputs":[]}],"bytecode":{"object":"0x6080806040523461001757615ffb90816200001c8239f35b5f80fdfe60806040526004361015610011575f80fd5b5f3560e01c806301ffc9a7146100d4578063119df25f146100cf5780631c03be6e146100ca57806336f0121d146100c557806345ec9354146100c05780636c248c50146100bb5780636fb56b92146100b65780638f78c51e146100b1578063a359dd00146100ac578063e1af802c146100a7578063e489754e146100a25763e8b205051461009d575f80fd5b61093c565b610748565b61072e565b6106a7565b610646565b610516565b610422565b610403565b6103d3565b6102bc565b610138565b3461012a57602036600319011261012a5760043563ffffffff60e01b811680910361012a5760209063b5dee12760e01b8114908115610119575b506040519015158152f35b6301ffc9a760e01b1490505f61010e565b5f80fd5b5f91031261012a57565b3461012a575f36600319011261012a576020610152610d05565b6040516001600160a01b039091168152f35b6004359060ff8216820361012a57565b6024359060ff8216820361012a57565b634e487b7160e01b5f52604160045260245ffd5b6001600160401b0381116101ab57604052565b610184565b602081019081106001600160401b038211176101ab57604052565b604081019081106001600160401b038211176101ab57604052565b606081019081106001600160401b038211176101ab57604052565b60a081019081106001600160401b038211176101ab57604052565b61012081019081106001600160401b038211176101ab57604052565b601f909101601f19168101906001600160401b038211908210176101ab57604052565b6001600160401b0381116101ab57601f01601f191660200190565b81601f8201121561012a5780359061028d8261025b565b9261029b6040519485610238565b8284526020838301011161012a57815f926020809301838601378301015290565b3461012a57608036600319011261012a576102d5610164565b6001600160401b039060243582811161012a576102f6903690600401610276565b60443583811161012a5761030e903690600401610276565b9260643590811161012a57610327903690600401610276565b91610330610d05565b610338610d1c565b908151156103ce576001600160a01b031660208201526103629061035b906121c9565b60f81c1590565b6103bc5760ff16906001821080156103b2575b6103a05761039e936103936103999261038d856109a5565b84610d67565b82610e3d565b610ee8565b005b6040516376d73d7160e01b8152600490fd5b5060088211610375565b604051637bfa4b9f60e01b8152600490fd5b610ad0565b3461012a57604036600319011261012a5760206103f96103f1610174565b6004356109b4565b6040519015158152f35b3461012a575f36600319011261012a576020604051601f193601358152f35b3461012a57604036600319011261012a5760e0610448610440610174565b6004356109ff565b9460409492939194519615158752602087015261ffff80921660408701521660608501521515608084015260a083015260c0820152f35b81601f8201121561012a578035916020916001600160401b0384116101ab578360051b90604051946104b385840187610238565b8552838086019282010192831161012a578301905b8282106104d6575050505090565b813581529083019083016104c8565b6044359061ffff8216820361012a57565b6064359061ffff8216820361012a57565b60843590811515820361012a57565b3461012a5760a036600319011261012a576001600160401b0360043581811161012a5761054790369060040161047f565b9060243590811161012a5761056090369060040161047f565b906105696104e5565b906105726104f6565b61057a610507565b905f5b835181101561039e578061059c61059660019387610b01565b516111a7565b6105a7575b0161057d565b6105be8484888a6105b8868b610b01565b51610c1f565b6105a1565b5f5b8381106105d45750505f910152565b81810151838201526020016105c5565b90606051918281525f5b83811061060d5750825f602080949584010152601f8019910116010190565b8060209160800151828285010152016105ee565b9060209161063a815180928185528580860191016105c3565b601f01601f1916010190565b3461012a57602036600319011261012a576106876106956106a361067061066b610164565b610b15565b919390604051958695606087526060870190610621565b908582036020870152610621565b908382036040850152610621565b0390f35b3461012a57608036600319011261012a576004356106c3610174565b6106cb6104e5565b6106d36104f6565b916106dc6111e8565b60ff811660018110908115610723575b506103a0576001600160a01b0361070285611666565b16156107115761039e9361158f565b6040516318954fab60e11b8152600490fd5b60089150115f6106ec565b3461012a575f36600319011261012a576020610152612da7565b3461012a5760408060031936011261012a576004803591610767610174565b926107706111e8565b60ff8416600181108015610932575b610923576001600160a01b039361079e8561079985611666565b161590565b610915576107ab83611666565b906107c36107b7610d05565b6001600160a01b031690565b86831603610907576107d4836109a5565b6107e56107e18486611084565b1590565b6108f6576107f383856110bd565b6108e85761081161080385611689565b61080c85610bc7565b610c12565b9561081b876116c3565b166108db57506106a39561088c867fd3956149bc957b62d97cc5a2cf390c5442ed5fa595d273c70135b0a43948c8cd946108718561085a8497856117b0565b61086b6108668261188d565b610be4565b90611973565b61087b8188611a21565b610886428289611b19565b86611bea565b6108ae61089885611d2b565b60c081016108a68151610bf2565b905285611e8f565b6108b784611f33565b845160ff9190911681526020810191909152604090a2519081529081906020820190565b845162a5a1f560e01b8152fd5b8451636d65838960e01b8152fd5b845160016203bda960e31b03198152fd5b845163396eeb4360e21b8152fd5b83516318954fab60e11b8152fd5b5050516376d73d7160e01b8152fd5b506008811161077f565b3461012a5760a036600319011261012a576024356001600160401b03811161012a5761096f61039e91369060040161047f565b6109776104e5565b61097f6104f6565b90610988610507565b92600435610c1f565b634e487b7160e01b5f52602160045260245ffd5b600911156109af57565b610991565b9060ff166001811080156109f5575b6109ef5760098110156109af576109da8183611084565b91826109e557505090565b6107e192506110bd565b50505f90565b50600881116109c3565b9060ff1690600182108015610ac6575b610ab45760098210156109af57610a268282611084565b92610a2f610d36565b8051156103ce578260208201528051600110156103ce5780846040610a5593015261227f565b92610a5e610d36565b8051156103ce578360208201528051600110156103ce5780826040610a84930152612432565b60f01c92610a9282826110f6565b92610ab1610aa084846110bd565b93610aab8185611135565b9361116e565b90565b50505f905f905f905f905f905f905f90565b5060088211610a0f565b634e487b7160e01b5f52603260045260245ffd5b8051156103ce5760200190565b8051600110156103ce5760400190565b80518210156103ce5760209160051b010190565b60ff16600181108015610ba9575b610b765760098110156109af57610b38610d1c565b8051156103ce5780826020610b4e930152612c18565b91610b57610d1c565b8051156103ce57610b7081846020610ab1940152612caf565b926111bf565b50604051610b83816101b0565b5f815290604051610b93816101b0565b5f815290604051610ba3816101b0565b5f815290565b5060088111610b23565b634e487b7160e01b5f52601160045260245ffd5b90620f424091828102928184041490151715610bdf57565b610bb3565b9060018201809211610bdf57565b9060648201809211610bdf57565b90630bfb0440918201809211610bdf57565b91908201809211610bdf57565b92919094938080610cf3575b610cda575b5f5b8651811015610cd15780610c4860019289610b01565b518315610c975760e01c60048103610c6c5750610c668585886114df565b01610c32565b60078103610c855750610c8085858861142f565b610c66565b600903610c6657610c8085858861137f565b610ca6838060a01b0391611666565b1615610c6657610cb86107e1876120c0565b15610c6657610cc6866120dd565b610c808585886112cf565b50505050509050565b610ce384612002565b610cee838386611213565b610c30565b50610d006107e185611fe5565b610c2b565b36603319013560601c908115610d1757565b339150565b60405190610d29826101cb565b6001825260203681840137565b60405190610d43826101e6565b600282526040366020840137565b604051610d5d816101b0565b5f8152905f368137565b90610d70610d1c565b9160098110156109af578251156103ce5760ff1660208301526001600160a01b03610d99612da7565b1691308303610dae57610dac925061350c565b565b90823b1561012a576040516377b7543160e11b81525f80516020615fbb833981519152600482015260806024820152925f928492839185918391610e139190610dfb90608485019061218b565b90846044850152600319848303016064850152610621565b03925af18015610e3857610e25575b50565b80610e32610dac92610198565b8061012e565b6121be565b90610e46610d1c565b9160098110156109af578251156103ce5760ff1660208301526001600160a01b03610e6f612da7565b1691308303610e8257610dac9250613746565b90823b1561012a576040516377b7543160e11b81525f80516020615fbb833981519152600482015260806024820152925f928492839185918391610e139190610ecf90608485019061218b565b6001604485015283810360031901606485015290610621565b90610ef1610d1c565b9160098110156109af578251156103ce5760ff1660208301526001600160a01b03610f1a612da7565b1691308303610f2d57610dac92506139a8565b90823b1561012a576040516377b7543160e11b81525f80516020615fbb833981519152600482015260806024820152925f928492839185918391610e139190610f7a90608485019061218b565b6002604485015283810360031901606485015290610621565b610f9b610d36565b908151156103ce5760208201528051600110156103ce578060036040610fc293015261230f565b60f81c90565b610fd0610d36565b908151156103ce5760208201528051600110156103ce578060086040610fc293015261230f565b610fff610d36565b908151156103ce5760208201528051600110156103ce578060076040610fc293015261230f565b61102e610d36565b908151156103ce5760208201528051600110156103ce578060066040610fc293015261230f565b61105d610d36565b908151156103ce5760208201528051600110156103ce578060046040610fc293015261230f565b61108c610d36565b908151156103ce57602082015260098210156109af578051600110156103ce5760ff610fc29216604082015261230f565b6110c5610d36565b908151156103ce57602082015260098210156109af578051600110156103ce5760ff610fc2921660408201526123a2565b6110fe610d36565b908151156103ce57602082015260098210156109af578051600110156103ce5760ff61112f921660408201526124c2565b60f01c90565b61113d610d36565b908151156103ce57602082015260098210156109af578051600110156103ce5760ff610ab192166040820152612552565b611176610d36565b908151156103ce57602082015260098210156109af578051600110156103ce5760ff610ab1921660408201526125e2565b6001600160a01b03906111b990611666565b16151590565b6111c7610d1c565b60098210156109af578051156103ce5760ff610ab192166020820152612d2b565b6111f86111f3610d51565b612672565b60f81c61120157565b60405163379a7ed960e01b8152600490fd5b9161121d83610f93565b6112ca575f80516020615f3b833981519152916112a4604051600160f81b602082015242602182015261ffff60f01b808460f01b1660418301528460f01b1660438201525f60458201525f60468201525f60668201526066815261128081610201565b611288610d36565b8661129282610ae4565b52600361129e82610af1565b52612fd2565b604080516003815261ffff9283166020820152929091169082015280606081015b0390a2565b505050565b916112d983610fc8565b6112ca575f80516020615f3b8339815191529161135a604051600160f81b602082015242602182015261ffff60f01b808460f01b1660418301528460f01b1660438201525f60458201525f60468201525f60668201526066815261133c81610201565b611344610d36565b8661134e82610ae4565b52600861129e82610af1565b604080516008815261ffff9283166020820152929091169082015280606081016112c5565b9161138983610ff7565b6112ca575f80516020615f3b8339815191529161140a604051600160f81b602082015242602182015261ffff60f01b808460f01b1660418301528460f01b1660438201525f60458201525f60468201525f6066820152606681526113ec81610201565b6113f4610d36565b866113fe82610ae4565b52600761129e82610af1565b604080516007815261ffff9283166020820152929091169082015280606081016112c5565b9161143983611026565b6112ca575f80516020615f3b833981519152916114ba604051600160f81b602082015242602182015261ffff60f01b808460f01b1660418301528460f01b1660438201525f60458201525f60468201525f60668201526066815261149c81610201565b6114a4610d36565b866114ae82610ae4565b52600661129e82610af1565b604080516006815261ffff9283166020820152929091169082015280606081016112c5565b916114e983611055565b6112ca575f80516020615f3b8339815191529161156a604051600160f81b602082015242602182015261ffff60f01b808460f01b1660418301528460f01b1660438201525f60458201525f60468201525f60668201526066815261154c81610201565b611554610d36565b8661155e82610ae4565b52600461129e82610af1565b604080516004815261ffff9283166020820152929091169082015280606081016112c5565b92919060ff811660098110156109af576115a98186611084565b61165f575f80516020615f3b833981519152936116376112c59260405190600160f81b602083015242602183015261ffff60f01b808860f01b1660418401528460f01b1660438301525f60458301525f60468301525f60668301526066825261161182610201565b611619610d36565b908961162483610ae4565b5261162e816109a5565b61129e82610af1565b6040519384938491604091949360ff606085019616845261ffff809216602085015216910152565b5050505050565b61166e610d1c565b8051156103ce576116839160208201526126d8565b60601c90565b611691610d1c565b8051156103ce57610ab191602082015261276e565b6116ae610d1c565b8051156103ce57611683916020820152612803565b6116cb610d1c565b8051156103ce57611683916020820152612895565b906116e9610d1c565b918251156103ce5760208301526040519060018060601b03199060601b16602082015260148152611719816101cb565b6001600160a01b03611729612da7565b169130830361173c57610dac9250613c64565b90823b1561012a576040516301c85d5760e51b8152654f776e65727360501b67746242616467657360c01b01600482015260a06024820152925f9284928391859183916117929190610dfb9060a485019061218b565b630500400560da1b608483015203925af18015610e3857610e255750565b906117b9610d1c565b918251156103ce5760208301526040519060018060601b03199060601b166020820152601481526117e9816101cb565b6001600160a01b036117f9612da7565b169130830361180c57610dac9250615395565b90823b1561012a576040516301c85d5760e51b8152757462467261676d656e747300000000004f776e65727360501b600482015260a06024820152925f9284928391859183916117929190610dfb9060a485019061218b565b61186d610d1c565b8051156103ce576001600160a01b039091166020820152610ab190612902565b611895610d1c565b8051156103ce576001600160a01b039091166020820152610ab19061298b565b906118be610d1c565b805190926001600160a01b0391156103ce5781166020840152604051916020830152602082526118ed826101cb565b6118f5612da7565b169130830361190857610dac9250613de4565b90823b1561012a576040516301c85d5760e51b81525f80516020615f9b833981519152600482015260a06024820152925f9284928391859183916119559190610dfb9060a485019061218b565b630100080160dd1b608483015203925af18015610e3857610e255750565b9061197c610d1c565b805190926001600160a01b0391156103ce5781166020840152604051916020830152602082526119ab826101cb565b6119b3612da7565b16913083036119c657610dac9250615504565b90823b1561012a576040516301c85d5760e51b8152777462467261676d656e7473000000000042616c616e63657360401b600482015260a06024820152925f9284928391859183916119559190610dfb9060a485019061218b565b90611a2a610d36565b918251156103ce57602083015260098110156109af578151600110156103ce5760ff166040820152604051600160f81b602082015260018152611a6c816101cb565b6001600160a01b03611a7c612da7565b1691308303611a8f57610dac9250613f4b565b90823b1561012a576040516301c85d5760e51b81525f80516020615fdb833981519152600482015260a06024820152925f928492839185918391611af59190611adc9060a485019061218b565b6004604485015283810360031901606485015290610621565b690330380009001010090160ad1b608483015203925af18015610e3857610e255750565b9190611b23610d36565b928351156103ce57602084015260098110156109af578251600110156103ce5760ff16604083015260405190602082015260208152611b61816101cb565b6001600160a01b03611b71612da7565b1691308303611b8457610dac9250613f66565b90823b1561012a576040516301c85d5760e51b81525f80516020615fdb833981519152600482015260a06024820152925f928492839185918391611af59190611bd19060a485019061218b565b6005604485015283810360031901606485015290610621565b9190611bf4610d36565b928351156103ce57602084015260098110156109af578251600110156103ce5760ff16604083015260405190602082015260208152611c32816101cb565b6001600160a01b03611c42612da7565b1691308303611c5557610dac9250613f7a565b90823b1561012a576040516301c85d5760e51b81525f80516020615fdb833981519152600482015260a06024820152925f928492839185918391611af59190611ca29060a485019061218b565b6006604485015283810360031901606485015290610621565b604051906101a082016001600160401b038111838210176101ab576040525f610180838281528260208201528260408201528260608201528260808201528260a08201528260c08201528260e0820152826101008201528261012082015282610140820152826101608201520152565b611d33611cbb565b50611d3c610d1c565b8051156103ce57611d51916020820152612e24565b5050611d5b611cbb565b90602081015190611e67604082015191611d81611d7c606083015160f81c90565b614193565b9060618101519060818101519060a18101519060c181015190611e458a611e3b60e184015193610120611dc1611dbc61010184015160f81c90565b6141a2565b93611e35611dd7611dbc61010286015160f81c90565b93611e2b611ded611dbc61010384015160f81c90565b91611e21611e17610105611e0e611e0961010486015160f81c90565b6141ae565b93015160f81c90565b1515610180870152565b6101608501612eee565b6101408301612efa565b01612efa565b6101008c01612efa565b60e08a015260c089015260a08801526080870152606086015260408501612f06565b6020830152815290565b600311156109af57565b600411156109af57565b600a11156109af57565b611f1a610dac92611f0d81519160208101516040820151611eaf81611e71565b6060830151608084015160a085015160c08601519160e08701519361010088015195611eda87611e7b565b61012089015197611eea89611e7b565b611f146101806101408c01519b611f008d611e7b565b6101608101519d8e611e85565b0151151590565b9b612f32565b90611f23610d1c565b90611f2d82610ae4565b52613076565b600180805b611fa5575b5050611f4f611f4a610d51565b612b0f565b60601c15610e2257611f71611f6c611f6683611666565b92611689565b610c00565b90611f7e6107b7836116a6565b611fa157611f8f81610dac936116e0565b611f9b61086682611865565b906118b5565b5050565b60ff811660088111611fdf576107e181611fc1611fc7936109a5565b856110bd565b6112ca5760ff809116908114610bdf57810181611f38565b50611f3d565b611fed610d1c565b8051156103ce57610fc29160208201526129fa565b61200a610d1c565b908151156103ce576020820152604051600160f81b602082015260018152612031816101cb565b6001600160a01b03612041612da7565b169130830361205457610dac925061521e565b90823b1561012a576040516301c85d5760e51b81525f80516020615efb833981519152600482015260a06024820152925f9284928391859183916120a19190610dfb9060a485019061218b565b64020200010160d01b608483015203925af18015610e3857610e255750565b6120c8610d1c565b8051156103ce57610fc2916020820152612a84565b6120e5610d1c565b908151156103ce576020820152604051600160f81b60208201526001815261210c816101cb565b6001600160a01b0361211c612da7565b169130830361212f57610dac9250613f8e565b90823b1561012a576040516301c85d5760e51b81525f80516020615efb833981519152600482015260a06024820152925f9284928391859183916120a19190610ecf9060a485019061218b565b9081602091031261012a575190565b9081518082526020808093019301915f5b8281106121aa575050505090565b83518552938101939281019260010161219c565b6040513d5f823e3d90fd5b6001600160a01b036121d9612da7565b163081036121eb5750610ab1906130f0565b604051638c364d5960e01b81526420b236b4b760591b631d18955160e21b016004820152608060248201529160209183918290819061222e90608483019061218b565b5f6044830152630101000160d81b606483015203915afa908115610e38575f91612256575090565b610ab1915060203d602011612278575b6122708183610238565b81019061217c565b503d612266565b6001600160a01b0361228f612da7565b163081036122a15750610ab190613167565b604051638c364d5960e01b81525f80516020615fdb833981519152600482015260806024820152916020918391829081906122e090608483019061218b565b60016044830152690330380009001010090160ad1b606483015203915afa908115610e38575f91612256575090565b6001600160a01b0361231f612da7565b16308103612335575061233190614711565b5490565b604051638c364d5960e01b81525f80516020615fdb8339815191526004820152608060248201529160209183918290819061237490608483019061218b565b5f6044830152690330380009001010090160ad1b606483015203915afa908115610e38575f91612256575090565b6001600160a01b036123b2612da7565b163081036123c45750610ab1906131f3565b604051638c364d5960e01b81525f80516020615fdb8339815191526004820152608060248201529160209183918290819061240390608483019061218b565b60046044830152690330380009001010090160ad1b606483015203915afa908115610e38575f91612256575090565b6001600160a01b03612442612da7565b163081036124545750610ab19061323b565b604051638c364d5960e01b81525f80516020615fdb8339815191526004820152608060248201529160209183918290819061249390608483019061218b565b60026044830152690330380009001010090160ad1b606483015203915afa908115610e38575f91612256575090565b6001600160a01b036124d2612da7565b163081036124e45750610ab1906132ba565b604051638c364d5960e01b81525f80516020615fdb8339815191526004820152608060248201529160209183918290819061252390608483019061218b565b60036044830152690330380009001010090160ad1b606483015203915afa908115610e38575f91612256575090565b6001600160a01b03612562612da7565b163081036125745750610ab19061332a565b604051638c364d5960e01b81525f80516020615fdb833981519152600482015260806024820152916020918391829081906125b390608483019061218b565b60056044830152690330380009001010090160ad1b606483015203915afa908115610e38575f91612256575090565b6001600160a01b036125f2612da7565b163081036126045750610ab190613372565b604051638c364d5960e01b81525f80516020615fdb8339815191526004820152608060248201529160209183918290819061264390608483019061218b565b60066044830152690330380009001010090160ad1b606483015203915afa908115610e38575f91612256575090565b6001600160a01b03612682612da7565b163081036126945750610ab190613383565b604051638c364d5960e01b81526514185d5cd95960521b631d18955160e21b016004820152608060248201529160209183918290819061222e90608483019061218b565b6001600160a01b036126e8612da7565b163081036126fa5750610ab1906133e5565b604051638c364d5960e01b8152694368617261637465727360301b631d18955160e21b016004820152608060248201529160209183918290819061274290608483019061218b565b60016044830152665504022014200160c01b606483015203915afa908115610e38575f91612256575090565b6001600160a01b0361277e612da7565b1630810361279057506123319061478f565b604051638c364d5960e01b8152694368617261637465727360301b631d18955160e21b01600482015260806024820152916020918391829081906127d890608483019061218b565b5f6044830152665504022014200160c01b606483015203915afa908115610e38575f91612256575090565b6001600160a01b03612813612da7565b16308103612825575061233190614888565b604051638c364d5960e01b8152654f776e65727360501b67746242616467657360c01b016004820152608060248201529160209183918290819061286d90608483019061218b565b5f6044830152630500400560da1b606483015203915afa908115610e38575f91612256575090565b6001600160a01b036128a5612da7565b163081036128b7575061233190614956565b604051638c364d5960e01b8152757462467261676d656e747300000000004f776e65727360501b6004820152608060248201529160209183918290819061286d90608483019061218b565b6001600160a01b03612912612da7565b163081036129245750612331906148ee565b604051638c364d5960e01b81525f80516020615f9b8339815191526004820152608060248201529160209183918290819061296390608483019061218b565b5f6044830152630100080160dd1b606483015203915afa908115610e38575f91612256575090565b6001600160a01b0361299b612da7565b163081036129ad5750612331906149bf565b604051638c364d5960e01b8152777462467261676d656e7473000000000042616c616e63657360401b6004820152608060248201529160209183918290819061296390608483019061218b565b6001600160a01b03612a0a612da7565b16308103612a1c5750612331906147f5565b604051638c364d5960e01b81525f80516020615efb83398151915260048201526080602482015291602091839182908190612a5b90608483019061218b565b5f604483015264020200010160d01b606483015203915afa908115610e38575f91612256575090565b6001600160a01b03612a94612da7565b16308103612aa65750610ab190613461565b604051638c364d5960e01b81525f80516020615efb83398151915260048201526080602482015291602091839182908190612ae590608483019061218b565b6001604483015264020200010160d01b606483015203915afa908115610e38575f91612256575090565b6001600160a01b03612b1f612da7565b16308103612b315750610ab190613472565b604051638c364d5960e01b81526f556c74696d617465446f6d696e696f6e631d18955160e21b0160048201526080602482015291602091839182908190612b7c90608483019061218b565b600460448301526f45434000450505050505050805080805607a1b606483015203915afa908115610e38575f91612256575090565b81601f8201121561012a578051612bc78161025b565b92612bd56040519485610238565b8184526020828401011161012a57610ab191602080850191016105c3565b9060208282031261012a5781516001600160401b03811161012a57610ab19201612bb1565b6001600160a01b03612c28612da7565b16308103612c3a5750610ab190613bfb565b604051631e78897760e01b81525f80516020615fbb833981519152600482015260606024820152915f91839182908190612c7890606483019061218b565b85604483015203915afa908115610e38575f91612c93575090565b610ab191503d805f833e612ca78183610238565b810190612bf3565b6001600160a01b03612cbf612da7565b16308103612cd15750610ab190613c22565b604051631e78897760e01b81525f80516020615fbb833981519152600482015260606024820152915f91839182908190612d0f90606483019061218b565b6001604483015203915afa908115610e38575f91612c93575090565b6001600160a01b03612d3b612da7565b16308103612d4d5750610ab190613c43565b604051631e78897760e01b81525f80516020615fbb833981519152600482015260606024820152915f91839182908190612d8b90606483019061218b565b6002604483015203915afa908115610e38575f91612c93575090565b7f629a4c26e296b22a8e0856e9f6ecb2d1008d7e00081111962cd175fa7488e175546001600160a01b031680610ab157503390565b909160608284031261012a5781516001600160401b03929083811161012a5784612e07918301612bb1565b93602082015193604083015190811161012a57610ab19201612bb1565b6001600160a01b03612e34612da7565b16308103612e4d5750612e4690614119565b9192909190565b60405163419b58fd60e01b815264537461747360581b631d18955160e21b0160048201526060602482015292915f91849182908190612e9090606483019061218b565b6fe60d002020012020202020010101010160781b604483015203915afa908115610e38575f80935f93612ec4575b50929190565b91935050612ee491503d805f833e612edc8183610238565b810190612ddc565b929092915f612ebe565b600a8210156109af5752565b612f0382611e7b565b52565b60038210156109af5752565b612f1b81611e7b565b60f81b9052565b600a8110156109af5760f81b9052565b9060209c9a969b9892979199949395996040519d8e015260408d015260038710156109af57612fc59a612fb89960a18e612f9796612fa299612fad9c60f81b606084015260618301526081820152015260c18d015260e18c01526101018b0190612f12565b610102890190612f12565b610103870190612f12565b610104850190612f22565b151560f81b610105830152565b60e68152610ab18161021c565b6001600160a01b03612fe2612da7565b16308103612ff5575090610dac916141bd565b90813b1561012a575f9161304e8361306193610e136040519788968795869463298314fb60e01b86526f467261676d656e7450726f6772657373631d18955160e21b01600487015260a0602487015260a486019061218b565b6003199283868303016044870152610621565b908460648501528382030160848401526105e4565b6001600160a01b03613086612da7565b16308103613099575090610dac916143c2565b90813b1561012a5760405163298314fb60e01b815264537461747360581b631d18955160e21b01600482015260a06024820152925f9284929091839185918391610e1391906130619061304e9060a486019061218b565b60405160208160208101936420b236b4b760591b631d18955160e21b0185526040820160208251919201935f5b8281106131505750505061313a925003601f198101835282610238565b5190205f80516020615edb833981519152185490565b85518452948101948694509281019260010161311d565b61317090614711565b5f905f5b600181106131c75750818160208210156131b1575b505080548260031b1b9160200390816020116131a457505090565b600101549060031b1c1790565b90809350601f925060051c019116905f80613189565b9160ff690330380009001010090160ad1b84601b0360031b1c168101809111610bdf5791600101613174565b6131fc90614711565b613204614a1f565b9080602083101561322a575b5080548260031b1b9160200390816001116131a457505090565b601f83169260051c0190505f613210565b61324490614711565b5f905f5b6002811061328e575081816020821015613278575b505080548260031b1b9160200390816002116131a457505090565b90809350601f925060051c019116905f8061325d565b9160ff690330380009001010090160ad1b84601b0360031b1c168101809111610bdf5791600101613248565b6132c390614711565b5f9190825b60038085101561330057690330380009001010090160ad1b601b86900390911b1c60ff168101908110610bdf576001909301926132c8565b509192508181602082101561327857505080548260031b1b9160200390816002116131a457505090565b61333390614711565b61333b614a5a565b90806020831015613361575b5080548260031b1b9160200390816020116131a457505090565b601f83169260051c0190505f613347565b61337b90614711565b61333b614a95565b60405160208160208101936514185d5cd95960521b631d18955160e21b0185526040820160208251919201935f5b8281106133ce5750505061313a925003601f198101835282610238565b8551845294810194869450928101926001016133b1565b6133ee9061478f565b5f905f5b60018110613438575081816020821015613422575b505080548260031b1b9160200390816014116131a457505090565b90809350601f925060051c019116905f80613407565b9160ff665504022014200160c01b84601b0360031b1c168101809111610bdf57916001016133f2565b61346a906147f5565b613204614ad0565b60405161349581613487602082019485614605565b03601f198101835282610238565b5190205f80516020615edb833981519152185f905f5b600481106134da57508181602082101561342257505080548260031b1b9160200390816014116131a457505090565b9160ff6f45434000450505050505050805080805607a1b84601b0360031b1c168101809111610bdf57916001016134ab565b91909161351881615742565b5464ffffffffff8160381c166135396135318280614b06565b865190610c12565b8181141594908580613727575b6137075761355490846157e2565b9061355d61593a565b915f5b835181101561360a576135946135876135798387610b01565b516001600160581b03191690565b6001600160581b03191690565b6010808260581c16146135ab575b50600101613560565b60601c90813b1561012a575f878b9388838c6135dd60405198899687958694630abd6b4560e31b865260048601614b44565b03925af1918215610e38576001926135f7575b50906135a2565b80610e3261360492610198565b5f6135f0565b506040805192979195509392915f80516020615fbb833981519152905f80516020615e7b83398151915290806136438c8a898d85614c6f565b0390a26136f7575b61365d8761365887614d4d565b615c74565b5f5b81518110156136ed576136786135876135798385610b01565b6020808260581c161461368f575b5060010161365f565b60601c90813b1561012a575f868a9386838b6136c08b5198899687958694636358453360e01b865260048601614b44565b03925af1918215610e38576001926136da575b5090613686565b80610e326136e792610198565b5f6136d3565b5050505050509050565b8361370186615742565b5561364b565b604051632994042d60e21b815280613723858060048401614b26565b0390fd5b508261373f61373582614b13565b64ffffffffff1690565b1415613546565b91909161375281615742565b5464ffffffffff926060848360601c16916137786137708480614b06565b885190610c12565b8381141596908780613993575b61397757613793908661585f565b9661379c61593a565b925f5b845181101561382d576137b86135876135798388610b01565b6010808260581c16146137cf575b5060010161379f565b861c90813b1561012a575f898d938a838e61380060405198899687958694630abd6b4560e31b865260048601614ba7565b03925af1918215610e385760019261381a575b50906137c6565b80610e3261382792610198565b5f613813565b509298939790949691965f985f995b60ff8b1660018110156138635760ff918b8b6001936028026038011c16019b01169961383c565b509692975093985093989196506040945f80516020615e7b83398151915285896138b88d8b60405194859465ffffffffffff6f467261676d656e744d65746164617461631d18955160e21b0199169086614cb3565b0390a2613967575b6138cd8861365888614d78565b5f5b815181101561395c576138e86135876135798385610b01565b6020808260581c16146138ff575b506001016138cf565b831c90813b1561012a575f878b9387838c61392f8c5198899687958694636358453360e01b865260048601614ba7565b03925af1918215610e3857600192613949575b50906138f6565b80610e3261395692610198565b5f613942565b505050505050509050565b8461397187615742565b556138c0565b604051632994042d60e21b815280613723878060048401614b26565b50846139a161373582614b13565b1415613785565b9190916139b481615742565b5464ffffffffff92838260881c16906139d86139d08380614b06565b875190610c12565b8281141595908680613be6575b613bca576139f390856158cc565b956139fc61593a565b925f5b8451811015613a8e57613a186135876135798388610b01565b6010808260581c1614613a2f575b506001016139ff565b60601c90813b1561012a575f888c9389838d613a6160405198899687958694630abd6b4560e31b865260048601614c0b565b03925af1918215610e3857600192613a7b575b5090613a26565b80610e32613a8892610198565b5f613a74565b5091959093969792975f975f985b60ff8a166002811015613ac35760ff918a8a6001936028026038011c16019a011698613a9c565b5095929750939892975094506040935f80516020615e7b83398151915260405180613b158c8a898d65ffffffffffff6f467261676d656e744d65746164617461631d18955160e21b0199169086614d00565b0390a2613bba575b613b2a8761365887614daf565b5f5b81518110156136ed57613b456135876135798385610b01565b6020808260581c1614613b5c575b50600101613b2c565b60601c90813b1561012a575f868a9386838b613b8d8b5198899687958694636358453360e01b865260048601614c0b565b03925af1918215610e3857600192613ba7575b5090613b53565b80610e32613bb492610198565b5f613ba0565b83613bc486615742565b55613b1d565b604051632994042d60e21b815280613723868060048401614b26565b5083613bf461373582614b13565b14156139e5565b610ab19064ffffffffff613c17613c1183614d4d565b92615742565b5460381c1690614e48565b610ab19064ffffffffff613c38613c1183614d78565b5460601c1690614e48565b610ab19064ffffffffff613c59613c1183614daf565b5460881c1690614e48565b9190613c6f83614888565b91613c78615b11565b905f5b8251811015613d0457613c946135876135798386610b01565b9060049182808260581c1614613cb0575b506001915001613c7b565b60601c803b1561012a57855f918983613cde966040519788958694859363964f667d60e01b85528401614fd7565b03925af1918215610e385760019215613ca55780610e32613cfe92610198565b5f613ca5565b5060408051919490939291613d50918491654f776e65727360501b67746242616467657360c01b01905f80516020615ebb8339815191529080613d48868d83614eb0565b0390a2615cc1565b5f5b8151811015613ddc57613d6b6135876135798385610b01565b6008808260581c1614613d82575b50600101613d52565b60601c90813b1561012a57845163a8ba872160e01b8152915f908390818381613daf8a8e60048401614fd7565b03925af1918215610e3857600192613dc9575b5090613d79565b80610e32613dd692610198565b5f613dc2565b505050509050565b9190613def836148ee565b91613df8615b6a565b905f5b8251811015613e8457613e146135876135798386610b01565b9060049182808260581c1614613e30575b506001915001613dfb565b60601c803b1561012a57855f918983613e5e966040519788958694859363964f667d60e01b8552840161500b565b03925af1918215610e385760019215613e255780610e32613e7e92610198565b5f613e25565b5060408051919490939291613ebf9184915f80516020615f9b833981519152905f80516020615ebb8339815191529080613d48868d83614eb0565b5f5b8151811015613ddc57613eda6135876135798385610b01565b6008808260581c1614613ef1575b50600101613ec1565b60601c90813b1561012a57845163a8ba872160e01b8152915f908390818381613f1e8a8e6004840161500b565b03925af1918215610e3857600192613f38575b5090613ee8565b80610e32613f4592610198565b5f613f31565b90610dac9165ffffffffffff613f5f614a1f565b1690615099565b90610dac9165ffffffffffff613f5f614a5a565b90610dac9165ffffffffffff613f5f614a95565b91909165ffffffffffff613fa0614ad0565b16613faa826147f5565b613fb2615ab5565b905f5b825181101561403f57613fce6135876135798386610b01565b9060049182808260581c1614613fea575b506001915001613fb5565b60601c803b1561012a57855f9188838c966140196040519889968795869463964f667d60e01b86528501614f9b565b03925af1918215610e385760019215613fdf5780610e3261403992610198565b5f613fdf565b5094919061408c8383604098875f80516020615ebb8339815191526040518061408487876f43686172616374657246697273744163631d18955160e21b019684614edb565b0390a2615d2f565b5f5b8151811015610cd1576140a76135876135798385610b01565b6008808260581c16146140be575b5060010161408e565b60601c90813b1561012a57875163a8ba872160e01b8152915f9083908183816140ec8b8b8e60048501614f9b565b03925af1918215610e3857600192614106575b50906140b5565b80610e3261411392610198565b5f6140ff565b5f9061412660609161485e565b60405190602090601f19908161012585011660405260e68452602084019260e691925b8183101561417b5750508061415f575b50505092565b5f199060031b1c908183511691199054161790525f8080614159565b81600185839495979654875201940194019190614149565b60ff1660038110156109af5790565b60ff16610ab181611e7b565b60ff16600a8110156109af5790565b60408051655461626c657360501b66746273746f726560c81b01602082019081525f80516020615fdb8339815191528284018190528383529295929491614203816101e6565b5190205f80516020615edb83398151915218549161421f615a05565b905f5b82518110156142ad5761423b6135876135798386610b01565b6001808260581c1614614252575b50600101614222565b60601c90813b1561012a5788516315c19b2760e21b8152915f9083908183816142808c8c8f600485016156a6565b03925af1918215610e385760019261429a575b5090614249565b80610e326142a792610198565b5f614293565b50945f80516020615f1b8339815191528751806142cb86898361566a565b0390a26142e66142da85614873565b83516020850191615d75565b60ff808460e01c1680614383575b50505f5b8151811015610cd1576143116135876135798385610b01565b6002808260581c1614614328575b506001016142f8565b60601c90813b1561012a578751635b28cdaf60e01b8152915f9083908183816143568b8b8e600485016156a6565b03925af1918215610e3857600192614370575b509061431f565b80610e3261437d92610198565b5f614369565b5f61438d8761576c565b555f60805b82848316106143a25750506142f4565b6001816143b986936143b4868d614de6565b615d40565b92011690614392565b60408051655461626c657360501b66746273746f726560c81b016020820190815264537461747360581b631d18955160e21b01828401819052838352929592949161440c816101e6565b5190205f80516020615edb833981519152185491614428615a61565b905f5b82518110156144b6576144446135876135798386610b01565b6001808260581c161461445b575b5060010161442b565b60601c90813b1561012a5788516315c19b2760e21b8152915f9083908183816144898c8c8f60048501615709565b03925af1918215610e38576001926144a3575b5090614452565b80610e326144b092610198565b5f61449c565b50945f80516020615f1b8339815191528751806144d486898361566a565b0390a26144e36142da8561485e565b60ff808460e01c1680614580575b50505f5b8151811015610cd15761450e6135876135798385610b01565b6002808260581c1614614525575b506001016144f5565b60601c90813b1561012a578751635b28cdaf60e01b8152915f9083908183816145538b8b8e60048501615709565b03925af1918215610e385760019261456d575b509061451c565b80610e3261457a92610198565b5f614566565b5f61458a87615781565b555f60805b828483161061459f5750506144f1565b6001816145b186936143b4868d614e23565b9201169061458f565b6953746f7265486f6f6b7360301b66746273746f726560c81b01815281516020918201928201915f5b8281106145f1575050505090565b8351855293810193928101926001016145e3565b6f556c74696d617465446f6d696e696f6e631d18955160e21b01815281516020918201928201915f5b82811061463c575050505090565b83518552938101939281019260010161462e565b5f80516020615fbb833981519152815281516020918201928201915f5b82811061467b575050505090565b83518552938101939281019260010161466d565b64537461747360581b631d18955160e21b01815281516020918201928201915f5b8281106146be575050505090565b8351855293810193928101926001016146b0565b5f80516020615fdb833981519152815281516020918201928201915f5b8281106146fd575050505090565b8351855293810193928101926001016146ef565b60405160208160208101936f467261676d656e7450726f6772657373631d18955160e21b0185526040820160208251919201935f5b82811061477857505050614763925003601f198101835282610238565b5190205f80516020615edb8339815191521890565b855184529481019486945092810192600101614746565b6040516020816020810193694368617261637465727360301b631d18955160e21b0185526040820160208251919201935f5b8281106147de57505050614763925003601f198101835282610238565b8551845294810194869450928101926001016147c1565b60405160208160208101936f43686172616374657246697273744163631d18955160e21b0185526040820160208251919201935f5b82811061484757505050614763925003601f198101835282610238565b85518452948101948694509281019260010161482a565b6040516147638161348760208201948561468f565b604051614763816134876020820194856146d2565b6040516020816020810193654f776e65727360501b67746242616467657360c01b0185526040820160208251919201935f5b8281106148d757505050614763925003601f198101835282610238565b8551845294810194869450928101926001016148ba565b60405160208160208101936742616c616e63657360401b67746242616467657360c01b0185526040820160208251919201935f5b82811061493f57505050614763925003601f198101835282610238565b855184529481019486945092810192600101614922565b6040516020816020810193757462467261676d656e747300000000004f776e65727360501b85526040820160208251919201935f5b8281106149a857505050614763925003601f198101835282610238565b85518452948101948694509281019260010161498b565b60405160208160208101935f80516020615e9b83398151915260401b85526040820160208251919201935f5b828110614a0857505050614763925003601f198101835282610238565b8551845294810194869450928101926001016149eb565b5f805b60048110614a2e575090565b9060ff690330380009001010090160ad1b83601b0360031b1c168101809111610bdf5790600101614a22565b5f805b60058110614a69575090565b9060ff690330380009001010090160ad1b83601b0360031b1c168101809111610bdf5790600101614a5d565b5f805b60068110614aa4575090565b9060ff690330380009001010090160ad1b83601b0360031b1c168101809111610bdf5790600101614a98565b5f805b60018110614adf575090565b9060ff64020200010160d01b83601b0360031b1c168101809111610bdf5790600101614ad3565b91908203918211610bdf57565b9064ffffffffff809216918211610bdf57565b5f815264ffffffffff91821660208201529116604082015260600190565b909264ffffffffff614b82610ab19694956f467261676d656e744d65746164617461631d18955160e21b01855260e0602086015260e085019061218b565b945f60408501525f606085015216608083015260a082015260c0818403910152610621565b909264ffffffffff614be5610ab19694956f467261676d656e744d65746164617461631d18955160e21b01855260e0602086015260e085019061218b565b94600160408501525f606085015216608083015260a082015260c0818403910152610621565b909264ffffffffff614c49610ab19694956f467261676d656e744d65746164617461631d18955160e21b01855260e0602086015260e085019061218b565b94600260408501525f606085015216608083015260a082015260c0818403910152610621565b909264ffffffffff614c8e610ab196949560c0855260c085019061218b565b945f60208501525f6040850152166060830152608082015260a0818403910152610621565b919390610ab1959365ffffffffffff614cda64ffffffffff9360c0875260c087019061218b565b9660016020870152166040850152166060830152608082015260a0818403910152610621565b919390610ab1959365ffffffffffff614d2764ffffffffff9360c0875260c087019061218b565b9660026020870152166040850152166060830152608082015260a0818403910152610621565b5f80516020615f5b83398151915290604051614d7181613487602082019485614650565b5190201890565b7f3a4102da22e32d82fc925482184f16c09fd4281692720b87d124aef6da48a0f190604051614d7181613487602082019485614650565b7f394102da22e32d82fc925482184f16c09fd4281692720b87d124aef6da48a0f190604051614d7181613487602082019485614650565b905f80516020615f5b83398151915291604051614e0b816134876020820194856146d2565b51902060f89190911b6001600160f81b031916181890565b905f80516020615f5b83398151915291604051614e0b8161348760208201948561468f565b60408051601f19603f85830101811690925283815292602080850193925b81831015614e9857505080614e7c575b50505090565b5f199060031b1c908183511691199054161790525f8080614e76565b81600185839495979654875201940194019190614e66565b9091614ec7610ab19360608452606084019061218b565b915f60208201526040818403910152610621565b65ffffffffffff614ef8610ab1959360608452606084019061218b565b931660208201526040818403910152610621565b65ffffffffffff614f48610ab195936f467261676d656e7450726f6772657373631d18955160e21b01845260806020850152608084019061218b565b931660408201526060818403910152610621565b5f80516020615efb8339815191528152608060208201819052610ab1939192614f879184019061218b565b915f60408201526060818403910152610621565b65ffffffffffff614f48610ab195936f43686172616374657246697273744163631d18955160e21b01845260806020850152608084019061218b565b654f776e65727360501b67746242616467657360c01b018152608060208201819052610ab1939192614f879184019061218b565b5f80516020615f9b8339815191528152608060208201819052610ab1939192614f879184019061218b565b9091614f87610ab193757462467261676d656e747300000000004f776e65727360501b845260806020850152608084019061218b565b9091614f87610ab1935f80516020615e9b83398151915260401b845260806020850152608084019061218b565b909291926150a682614873565b6150ae615a05565b905f5b825181101561513b576150ca6135876135798386610b01565b9060049182808260581c16146150e6575b5060019150016150b1565b60601c803b1561012a57855f9188838c966151156040519889968795869463964f667d60e01b86528501614f0c565b03925af1918215610e3857600192156150db5780610e3261513592610198565b5f6150db565b50949190615191836040976040515f80516020615ebb8339815191526f467261676d656e7450726f6772657373631d18955160e21b01918061517f868a8d84614edb565b0390a265ffffffffffff851690615d2f565b5f5b8151811015610cd1576151ac6135876135798385610b01565b6008808260581c16146151c3575b50600101615193565b60601c90813b1561012a57875163a8ba872160e01b8152915f9083908183816151f18b8b8e60048501614f0c565b03925af1918215610e385760019261520b575b50906151ba565b80610e3261521892610198565b5f615204565b9190615229836147f5565b91615232615ab5565b905f5b82518110156152be5761524e6135876135798386610b01565b9060049182808260581c161461526a575b506001915001615235565b60601c803b1561012a57855f918983615298966040519788958694859363964f667d60e01b85528401614f5c565b03925af1918215610e38576001921561525f5780610e326152b892610198565b5f61525f565b50929190615309826040946040515f80516020615ebb8339815191526f43686172616374657246697273744163631d18955160e21b019180615301868d83614eb0565b0390a2615cf8565b5f5b8151811015613ddc576153246135876135798385610b01565b6008808260581c161461533b575b5060010161530b565b60601c90813b1561012a57845163a8ba872160e01b8152915f9083908183816153688a8e60048401614f5c565b03925af1918215610e3857600192615382575b5090615332565b80610e3261538f92610198565b5f61537b565b91906153a083614956565b916153a9615bc5565b905f5b8251811015615435576153c56135876135798386610b01565b9060049182808260581c16146153e1575b5060019150016153ac565b60601c803b1561012a57855f91898361540f966040519788958694859363964f667d60e01b85528401615036565b03925af1918215610e3857600192156153d65780610e3261542f92610198565b5f6153d6565b50929190615478826040946040515f80516020615ebb833981519152757462467261676d656e747300000000004f776e65727360501b9180615301868d83614eb0565b5f5b8151811015613ddc576154936135876135798385610b01565b6008808260581c16146154aa575b5060010161547a565b60601c90813b1561012a57845163a8ba872160e01b8152915f9083908183816154d78a8e60048401615036565b03925af1918215610e38576001926154f1575b50906154a1565b80610e326154fe92610198565b5f6154ea565b919061550f836149bf565b91615518615c21565b905f5b82518110156155a4576155346135876135798386610b01565b9060049182808260581c1614615550575b50600191500161551b565b60601c803b1561012a57855f91898361557e966040519788958694859363964f667d60e01b8552840161506c565b03925af1918215610e3857600192156155455780610e3261559e92610198565b5f615545565b509291906155de826040946040515f80516020615ebb8339815191525f80516020615e9b83398151915260401b9180615301868d83614eb0565b5f5b8151811015613ddc576155f96135876135798385610b01565b6008808260581c1614615610575b506001016155e0565b60601c90813b1561012a57845163a8ba872160e01b8152915f90839081838161563d8a8e6004840161506c565b03925af1918215610e3857600192615657575b5090615607565b80610e3261566492610198565b5f615650565b90610ab1926156846156929260808552608085019061218b565b908382036020850152610621565b905f604082015260608183039101526105e4565b9392916156f1615704916156e360a0946f467261676d656e7450726f6772657373631d18955160e21b01895260c060208a015260c089019061218b565b908782036040890152610621565b5f606087015285810360808701526105e4565b930152565b64537461747360581b631d18955160e21b01815260c0602082018190529094939260a092615704926156f192916156e39189019061218b565b60405161575781613487602082019485614650565b5190205f80516020615f7b8339815191521890565b604051615757816134876020820194856146d2565b604051602081602081019364537461747360581b631d18955160e21b0185526040820160208251919201935f5b8281106157cb57505050615757925003601f198101835282610238565b8551845294810194869450928101926001016157ae565b64ffffffffff8083116158465766ffffffffffffff821690603883901c168381811061583c570301915b64ffffffffff60381b60389190911b1664ffffffffff60381b19929092166001600160601b031991909116171790565b900390039161580c565b604051637149a3c160e01b815260048101849052602490fd5b64ffffffffff8083116158465766ffffffffffffff821690606083901c16838181106158c2570301915b64ffffffffff60601b60609190911b1664ffffffffff60601b1992909216600169ffffffffff000000000160381b031991909116171790565b9003900391615889565b64ffffffffff8083116158465766ffffffffffffff821690608883901c1683818110615930570301915b64ffffffffff60881b60889190911b1664ffffffffff60881b199290921666ffffffffffffff64ffffffffff60881b011991909116171790565b90039003916158f6565b615942610d1c565b8051156103ce576159ee610ab1916f467261676d656e744d65746164617461631d18955160e21b01602082015264ffffffffff604051915f80516020615f5b833981519152602084018461599684836145ba565b03946159aa601f1996878101835282610238565b51902018926159d160405191826159c56020820195866145ba565b03908101835282610238565b5190205f80516020615f7b833981519152185460381c1690614e48565b602060018060801b03825116910160801b17615e28565b615a0d610d1c565b8051156103ce576159ee610ab1916f467261676d656e7450726f6772657373631d18955160e21b01602082015264ffffffffff604051915f80516020615f5b833981519152602084018461599684836145ba565b615a69610d1c565b8051156103ce576159ee610ab19164537461747360581b631d18955160e21b01602082015264ffffffffff604051915f80516020615f5b833981519152602084018461599684836145ba565b615abd610d1c565b8051156103ce576159ee610ab1916f43686172616374657246697273744163631d18955160e21b01602082015264ffffffffff604051915f80516020615f5b833981519152602084018461599684836145ba565b615b19610d1c565b8051156103ce576159ee610ab191654f776e65727360501b67746242616467657360c01b01602082015264ffffffffff604051915f80516020615f5b833981519152602084018461599684836145ba565b615b72610d1c565b8051156103ce576159ee610ab1916742616c616e63657360401b67746242616467657360c01b01602082015264ffffffffff604051915f80516020615f5b833981519152602084018461599684836145ba565b615bcd610d1c565b8051156103ce576159ee610ab191757462467261676d656e747300000000004f776e65727360501b602082015264ffffffffff604051915f80516020615f5b833981519152602084018461599684836145ba565b615c29610d1c565b8051156103ce576159ee610ab1915f80516020615e9b83398151915260401b602082015264ffffffffff604051915f80516020615f5b833981519152602084018461599684836145ba565b81519060208093019190925b80821015615ca9575080615c9357505050565b5f199060031b1c90818354169119905116179055565b6001839482939451815501930191601f190190615c80565b81519060208093019190925b80821015615ce0575080615c9357505050565b6001839482939451815501930191601f190190615ccd565b81519060208093019190925b80821015615d17575080615c9357505050565b6001839482939451815501930191601f190190615d04565b8251610dac93602001929091615d98565b9190915f905b602090818310615d665784518155930192601f1990910190600101615d46565b929391905080615c9357505050565b929192602090818310615d665784518155930192601f1990910190600101615d46565b909392919380615dc7575b50929092602090818310615d665784518155930192601f1990910190600101615d46565b6020811015615e18575b8015615da35791939082602003908360031b5f198460031b1c19811c908751901c908019835416911617815581831115613ddc57600101940191601f19910101925f615da3565b90601f908260051c019116615dd1565b8060801c906015809160018060801b031604604051926020906020850160208460051b8701016040528386525f5b848110615e665750505050505090565b825182529185019190830190600101615e5656fefe158a7adba34e256807c8a149028d3162918713c3838afc643ce9f96716ebfd00000000000000007462467261676d656e7473000000000042616c616e6365738c0b5119d4cec7b284c6b1b39252a03d1e2f2d7451a5895562524c113bb952be86425bff6b57326c7859e89024fe4f238ca327a1ae4a230180dd2f0e88aaa7d974625544000000000000000000000000436861726163746572466972737441638dbb3a9672eebfd3773e72dd9c102393436816d832c7ba9e1e1ac8fcadcac7a97a7ebafe483dfa14a4cc1fec9138c7f0ce6584dbc7282fc2b14824af66e2f00c3b4102da22e32d82fc925482184f16c09fd4281692720b87d124aef6da48a0f114e2fcc58e58e68ec7edc30c8d50dccc3ce2714a623ec81f46b6a63922d765697462426164676573000000000000000042616c616e636573000000000000000074625544000000000000000000000000467261676d656e744d6574616461746174625544000000000000000000000000467261676d656e7450726f6772657373","linkReferences":{}},"methodIdentifiers":{"_msgSender()":"119df25f","_msgValue()":"45ec9354","_world()":"e1af802c","canClaim(bytes32,uint8)":"36f0121d","checkCombatFragmentTriggers(bytes32,bytes32[],uint16,uint16,bool)":"e8b20505","checkCombatFragmentTriggersForGroup(bytes32[],bytes32[],uint16,uint16,bool)":"6fb56b92","claimFragment(bytes32,uint8)":"e489754e","getFragmentMetadata(uint8)":"8f78c51e","getFragmentStatus(bytes32,uint8)":"6c248c50","setFragmentMetadata(uint8,string,string,string)":"1c03be6e","supportsInterface(bytes4)":"01ffc9a7","triggerFragment(bytes32,uint8,uint16,uint16)":"a359dd00"},"id":118}