{"abi":[{"type":"function","name":"_msgSender","inputs":[],"outputs":[{"name":"sender","type":"address","internalType":"address"}],"stateMutability":"view"},{"type":"function","name":"_msgValue","inputs":[],"outputs":[{"name":"value","type":"uint256","internalType":"uint256"}],"stateMutability":"pure"},{"type":"function","name":"_world","inputs":[],"outputs":[{"name":"","type":"address","internalType":"address"}],"stateMutability":"view"},{"type":"function","name":"getEntitiesAtPosition","inputs":[{"name":"x","type":"uint16","internalType":"uint16"},{"name":"y","type":"uint16","internalType":"uint16"}],"outputs":[{"name":"entitiesAtPosition","type":"bytes32[]","internalType":"bytes32[]"}],"stateMutability":"view"},{"type":"function","name":"getEntityPosition","inputs":[{"name":"entityId","type":"bytes32","internalType":"bytes32"}],"outputs":[{"name":"x","type":"uint16","internalType":"uint16"},{"name":"y","type":"uint16","internalType":"uint16"}],"stateMutability":"view"},{"type":"function","name":"isAtPosition","inputs":[{"name":"entityId","type":"bytes32","internalType":"bytes32"},{"name":"x","type":"uint16","internalType":"uint16"},{"name":"y","type":"uint16","internalType":"uint16"}],"outputs":[{"name":"_isAtPosition","type":"bool","internalType":"bool"}],"stateMutability":"view"},{"type":"function","name":"move","inputs":[{"name":"entityId","type":"bytes32","internalType":"bytes32"},{"name":"x","type":"uint16","internalType":"uint16"},{"name":"y","type":"uint16","internalType":"uint16"}],"outputs":[],"stateMutability":"nonpayable"},{"type":"function","name":"removeEntityFromBoard","inputs":[{"name":"entityId","type":"bytes32","internalType":"bytes32"}],"outputs":[],"stateMutability":"nonpayable"},{"type":"function","name":"spawn","inputs":[{"name":"entityId","type":"bytes32","internalType":"bytes32"}],"outputs":[],"stateMutability":"nonpayable"},{"type":"function","name":"supportsInterface","inputs":[{"name":"interfaceId","type":"bytes4","internalType":"bytes4"}],"outputs":[{"name":"","type":"bool","internalType":"bool"}],"stateMutability":"pure"},{"type":"event","name":"Store_SetRecord","inputs":[{"name":"tableId","type":"bytes32","indexed":true,"internalType":"ResourceId"},{"name":"keyTuple","type":"bytes32[]","indexed":false,"internalType":"bytes32[]"},{"name":"staticData","type":"bytes","indexed":false,"internalType":"bytes"},{"name":"encodedLengths","type":"bytes32","indexed":false,"internalType":"EncodedLengths"},{"name":"dynamicData","type":"bytes","indexed":false,"internalType":"bytes"}],"anonymous":false},{"type":"event","name":"Store_SpliceDynamicData","inputs":[{"name":"tableId","type":"bytes32","indexed":true,"internalType":"ResourceId"},{"name":"keyTuple","type":"bytes32[]","indexed":false,"internalType":"bytes32[]"},{"name":"dynamicFieldIndex","type":"uint8","indexed":false,"internalType":"uint8"},{"name":"start","type":"uint48","indexed":false,"internalType":"uint48"},{"name":"deleteCount","type":"uint40","indexed":false,"internalType":"uint40"},{"name":"encodedLengths","type":"bytes32","indexed":false,"internalType":"EncodedLengths"},{"name":"data","type":"bytes","indexed":false,"internalType":"bytes"}],"anonymous":false},{"type":"event","name":"Store_SpliceStaticData","inputs":[{"name":"tableId","type":"bytes32","indexed":true,"internalType":"ResourceId"},{"name":"keyTuple","type":"bytes32[]","indexed":false,"internalType":"bytes32[]"},{"name":"start","type":"uint48","indexed":false,"internalType":"uint48"},{"name":"data","type":"bytes","indexed":false,"internalType":"bytes"}],"anonymous":false},{"type":"error","name":"EncodedLengths_InvalidLength","inputs":[{"name":"length","type":"uint256","internalType":"uint256"}]},{"type":"error","name":"Slice_OutOfBounds","inputs":[{"name":"data","type":"bytes","internalType":"bytes"},{"name":"start","type":"uint256","internalType":"uint256"},{"name":"end","type":"uint256","internalType":"uint256"}]},{"type":"error","name":"Store_IndexOutOfBounds","inputs":[{"name":"length","type":"uint256","internalType":"uint256"},{"name":"accessedIndex","type":"uint256","internalType":"uint256"}]},{"type":"error","name":"Store_InvalidResourceType","inputs":[{"name":"expected","type":"bytes2","internalType":"bytes2"},{"name":"resourceId","type":"bytes32","internalType":"ResourceId"},{"name":"resourceIdString","type":"string","internalType":"string"}]},{"type":"error","name":"Store_InvalidSplice","inputs":[{"name":"startWithinField","type":"uint40","internalType":"uint40"},{"name":"deleteCount","type":"uint40","internalType":"uint40"},{"name":"fieldLength","type":"uint40","internalType":"uint40"}]},{"type":"error","name":"World_AccessDenied","inputs":[{"name":"resource","type":"string","internalType":"string"},{"name":"caller","type":"address","internalType":"address"}]},{"type":"error","name":"World_FunctionSelectorNotFound","inputs":[{"name":"functionSelector","type":"bytes4","internalType":"bytes4"}]},{"type":"error","name":"World_ResourceNotFound","inputs":[{"name":"resourceId","type":"bytes32","internalType":"ResourceId"},{"name":"resourceIdString","type":"string","internalType":"string"}]}],"bytecode":{"object":"0x608060405234801561001057600080fd5b50614fb9806100206000396000f3fe608060405234801561001057600080fd5b50600436106100be5760003560e01c806369e10c7b11610076578063911c37ae1161005b578063911c37ae14610194578063953717d1146101a7578063e1af802c146101ba57600080fd5b806369e10c7b1461015f5780638181bc571461017f57600080fd5b80633fbf0c5a116100a75780633fbf0c5a1461010b57806345ec93541461011e57806350c4bd841461013157600080fd5b806301ffc9a7146100c3578063119df25f146100eb575b600080fd5b6100d66100d13660046143b1565b6101c2565b60405190151581526020015b60405180910390f35b6100f361025b565b6040516001600160a01b0390911681526020016100e2565b6100d6610119366004614405565b61026a565b604051601f1936013581526020016100e2565b61014461013f366004614441565b6102ad565b6040805161ffff9384168152929091166020830152016100e2565b61017261016d36600461445a565b6102c3565b6040516100e291906144c9565b61019261018d366004614441565b6102d6565b005b6101926101a2366004614441565b610600565b6101926101b5366004614405565b6107f5565b6100f3610b72565b60007fffffffff0000000000000000000000000000000000000000000000000000000082167fb5dee12700000000000000000000000000000000000000000000000000000000148061025557507fffffffff0000000000000000000000000000000000000000000000000000000082167f01ffc9a700000000000000000000000000000000000000000000000000000000145b92915050565b6000610265610b7c565b905090565b600080600061027886610bae565b915091508461ffff168261ffff1614801561029a57508361ffff168161ffff16145b156102a457600192505b50509392505050565b6000806102b983610bae565b9094909350915050565b60606102cf8383610c5f565b9392505050565b6102de610b72565b6001600160a01b031663fa1becc4826040518263ffffffff1660e01b815260040161030b91815260200190565b602060405180830381865afa158015610328573d6000803e3d6000fd5b505050506040513d601f19601f8201168201806040525081019061034c91906144dc565b156104eb57600061035b610b72565b6001600160a01b03166343def6388361037261025b565b6040517fffffffff0000000000000000000000000000000000000000000000000000000060e085901b16815260048101929092526001600160a01b03166024820152604401602060405180830381865afa1580156103d4573d6000803e3d6000fd5b505050506040513d601f19601f820116820180604052508101906103f891906144dc565b9050806104e557600061041161040c61025b565b610d1e565b60405160200161042391815260200190565b60405160208183030381529060405261043b906144fe565b14610456576104513061044c61025b565b610dab565b6104e5565b4261025861046384610dc1565b61046d919061453b565b106104e55760405162461bcd60e51b815260206004820152602760248201527f5468697320706c6179657227732073657373696f6e20686173206e6f7420746960448201527f6d6564206f75740000000000000000000000000000000000000000000000000060648201526084015b60405180910390fd5b506104f7565b6104f73061044c61025b565b600080610503836102ad565b91509150600061051383836102c3565b90506000805b825181101561059f57858382815181106105355761053561454e565b60200260200101510361058d5760019150600083600185516105579190614564565b815181106105675761056761454e565b6020026020010151905061057d86868484610e3a565b6105878686610f0d565b5061059f565b8061059781614577565b915050610519565b506105ac85600080610fad565b806105f95760405162461bcd60e51b815260206004820152601660248201527f456e74697479206e6f7420617420706f736974696f6e0000000000000000000060448201526064016104dc565b5050505050565b600061060b82611075565b9050806001600160a01b031661061f61025b565b6001600160a01b03161461069a5760405162461bcd60e51b8152602060048201526024808201527f4f6e6c7920746865206f776e65722063616e20737061776e206120636861726160448201527f637465720000000000000000000000000000000000000000000000000000000060648201526084016104dc565b6106a382611112565b156106f05760405162461bcd60e51b815260206004820152601960248201527f43686172616374657220616c726561647920737061776e65640000000000000060448201526064016104dc565b60006106fb83611197565b9050610705610b72565b6001600160a01b031663fa1becc4846040518263ffffffff1660e01b815260040161073291815260200190565b602060405180830381865afa15801561074f573d6000803e3d6000fd5b505050506040513d601f19601f8201168201806040525081019061077391906144dc565b156107b857600061078384611229565b61078d9083614591565b905060008113156107a7576107a284826112bb565b6107b2565b6107b28460016112bb565b506107c2565b6107c283826112bb565b6107ce83600080610fad565b6107d983600161136f565b6107e4836000611410565b6107f0600080856114c9565b505050565b600061080084611075565b905061080a610b72565b6001600160a01b031663fa1becc4856040518263ffffffff1660e01b815260040161083791815260200190565b602060405180830381865afa158015610854573d6000803e3d6000fd5b505050506040513d601f19601f8201168201806040525081019061087891906144dc565b6108c45760405162461bcd60e51b815260206004820152601860248201527f43616e204f6e6c79206d6f76652063686172616374657273000000000000000060448201526064016104dc565b806001600160a01b03166108d661025b565b6001600160a01b0316146109525760405162461bcd60e51b815260206004820152602360248201527f4f6e6c7920746865206f776e65722063616e206d6f766520612063686172616360448201527f746572000000000000000000000000000000000000000000000000000000000060648201526084016104dc565b61095b84611112565b6109a75760405162461bcd60e51b815260206004820152601560248201527f436861726163746572206e6f7420737061776e6564000000000000000000000060448201526064016104dc565b60006109b28561158f565b14610a255760405162461bcd60e51b815260206004820152602260248201527f43616e6e6f74206d6f7665207768696c6520696e20616e20656e636f756e746560448201527f722e00000000000000000000000000000000000000000000000000000000000060648201526084016104dc565b600080610a3186610bae565b91509150600080610a40611620565b915091508061ffff168761ffff1610610a9b5760405162461bcd60e51b815260206004820152600f60248201527f58206f7574206f6620626f756e6473000000000000000000000000000000000060448201526064016104dc565b8161ffff168661ffff1610610af25760405162461bcd60e51b815260206004820152600f60248201527f59206f7574206f6620626f756e6473000000000000000000000000000000000060448201526064016104dc565b610afe8484898961169d565b61ffff16600114610b515760405162461bcd60e51b815260206004820152601e60248201527f43616e206f6e6c79206d6f766520312074696c6520617420612074696d65000060448201526064016104dc565b610b5e8885858a8a61170b565b610b68878761188c565b5050505050505050565b6000610265611c8d565b7fffffffffffffffffffffffffffffffffffffffffffffffffffffffffffffffcc36013560601c80610bab5750335b90565b60408051600180825281830190925260009182918291602080830190803683370190505090508381600081518110610be857610be861454e565b602090810291909101015260008080610c417f74625544000000000000000000000000506f736974696f6e0000000000000000857e04020002020000000000000000000000000000000000000000000000000000611c97565b925092509250610c52838383611d67565b9550955050505050915091565b604080516002808252606080830184529260009291906020830190803683370190505090508361ffff1660001b81600081518110610c9f57610c9f61454e565b6020026020010181815250508261ffff1660001b81600181518110610cc657610cc661454e565b60209081029190910101526000610cfe7f74625544000000000000000000000000456e7469746965734174506f736974698383611d8a565b9050610d15610d108260008451611e51565b611edf565b95945050505050565b60408051600180825281830190925260009182919060208083019080368337019050509050826001600160a01b031660001b81600081518110610d6357610d6361454e565b60209081029190910101526000610da37f7462776f726c6400000000000000000053797374656d526567697374727900008383630100080160dd1b611ef0565b949350505050565b610dbd610db783610d1e565b82611fad565b5050565b604080516001808252818301909252600091829190602080830190803683370190505090508281600081518110610dfa57610dfa61454e565b60209081029190910101526000610da37f7462554400000000000000000000000053657373696f6e54696d6572000000008383630100080160dd1b611ef0565b6040805160028082526060820183526000926020830190803683370190505090508461ffff1660001b81600081518110610e7657610e7661454e565b6020026020010181815250508361ffff1660001b81600181518110610e9d57610e9d61454e565b602002602001018181525050600082604051602001610ebe91815260200190565b6040516020818303038152906040529050610f057f74625544000000000000000000000000456e7469746965734174506f7369746960001b83600087602002855186611ff9565b505050505050565b6040805160028082526060820183526000926020830190803683370190505090508261ffff1660001b81600081518110610f4957610f4961454e565b6020026020010181815250508161ffff1660001b81600181518110610f7057610f7061454e565b6020026020010181815250506107f07f74625544000000000000000000000000456e7469746965734174506f7369746960001b82600060206120b2565b6040805160f084811b7fffff0000000000000000000000000000000000000000000000000000000000009081166020808501919091529185901b16602283015282516004818403018152600160248401818152606485019095529093600093606093859391604401908036833701905050905086816000815181106110345761103461454e565b602090810291909101015261106c7f74625544000000000000000000000000506f736974696f6e000000000000000082868686612163565b50505050505050565b6040805160018082528183019092526000918291906020808301908036833701905050905082816000815181106110ae576110ae61454e565b602090810291909101015260006111077f74625544000000000000000000000000436861726163746572730000000000008360017e55040220142001000000000000000000000000000000000000000000000000611ef0565b60601c949350505050565b60408051600180825281830190925260009182919060208083019080368337019050509050828160008151811061114b5761114b61454e565b6020908102919091010152600061118b7f74625544000000000000000000000000537061776e65640000000000000000008383630101000160d81b611ef0565b9050610da38160f81c90565b6040805160018082528183019092526000918291906020808301908036833701905050905082816000815181106111d0576111d061454e565b60209081029190910101526000610da37f74625544000000000000000000000000537461747300000000000000000000008360047ee1080020200120202020200000000000000000000000000000000000000000611ef0565b6040805160018082528183019092526000918291906020808301908036833701905050905082816000815181106112625761126261454e565b60209081029190910101526000610da37f7462554400000000000000000000000043686172616374657245717569706d658360037ea0050420202020200000000000000000000000000000000000000000000000611ef0565b6040805160018082528183019092526000916020808301908036833701905050905082816000815181106112f1576112f161454e565b6020026020010181815250506107f07f746255440000000000000000000000005374617473000000000000000000000060001b8260058560405160200161133a91815260200190565b60408051601f198184030181529190527ee108002020012020202020000000000000000000000000000000000000000061220c565b6040805160018082528183019092526000916020808301908036833701905050905082816000815181106113a5576113a561454e565b6020026020010181815250506107f07f74625544000000000000000000000000537061776e656400000000000000000060001b826000856040516020016113f391151560f81b815260010190565b60408051601f19818403018152919052630101000160d81b61220c565b6040805160018082528183019092526000916020808301908036833701905050905082816000815181106114465761144661454e565b6020026020010181815250506107f07f74625544000000000000000000000000456e636f756e746572456e746974790060001b8260018560405160200161149491151560f81b815260010190565b60408051601f198184030181529190527e2102012001000000000000000000000000000000000000000000000000000061220c565b6040805160028082526060820183526000926020830190803683370190505090508361ffff1660001b816000815181106115055761150561454e565b6020026020010181815250508261ffff1660001b8160018151811061152c5761152c61454e565b6020026020010181815250506115897f74625544000000000000000000000000456e7469746965734174506f7369746960001b8260008560405160200161157591815260200190565b604051602081830303815290604052612282565b50505050565b6040805160018082528183019092526000918291906020808301908036833701905050905082816000815181106115c8576115c861454e565b60209081029190910101526000610da37f74625544000000000000000000000000456e636f756e746572456e746974790083837e21020120010000000000000000000000000000000000000000000000000000611ef0565b604080516000808252602082019092528190600080806116807f746255440000000000000000000000004d6170436f6e66696700000000000000857e04020002020000000000000000000000000000000000000000000000000000611c97565b925092509250611691838383611d67565b95509550505050509091565b6000808361ffff168661ffff16116116be576116b986856145cf565b6116c8565b6116c884876145cf565b905060008361ffff168661ffff16116116ea576116e586856145cf565b6116f4565b6116f484876145cf565b905061170081836145f1565b979650505050505050565b600061171785856102c3565b90506000805b82518110156117a357878382815181106117395761173961454e565b60200260200101510361179157600191506000836001855161175b9190614564565b8151811061176b5761176b61454e565b6020026020010151905061178188888484610e3a565b61178b8888610f0d565b506117a3565b8061179b81614577565b91505061171d565b50806117f15760405162461bcd60e51b815260206004820152601660248201527f456e74697479206e6f7420617420706f736974696f6e0000000000000000000060448201526064016104dc565b6117f9610b72565b6001600160a01b031663fa1becc4886040518263ffffffff1660e01b815260040161182691815260200190565b602060405180830381865afa158015611843573d6000803e3d6000fd5b505050506040513d601f19601f8201168201806040525081019061186791906144dc565b156118765761187687426122f5565b611881878585610fad565b61106c8484896114c9565b60006118a36000808561ffff168561ffff16612391565b61ffff169050806000036118b657505050565b60008060058310156118ce57506001905060066118d6565b5060069050600b5b600060ff83165b8260ff16811015611905576118f1816123af565b6118fb908361453b565b91506001016118dd565b5060008167ffffffffffffffff811115611921576119216145b9565b60405190808252806020026020018201604052801561194a578160200160208202803683370190505b509050600060ff85165b8460ff168110156119ce57600061196a8261242f565b905060005b81518110156119c45781818151811061198a5761198a61454e565b60200260200101518585815181106119a4576119a461454e565b6020908102919091010152836119b981614577565b94505060010161196f565b5050600101611954565b506000825111611a465760405162461bcd60e51b815260206004820152602760248201527f4e6f206d6f6e737465727320617661696c61626c6520666f722074686973206460448201527f697374616e63650000000000000000000000000000000000000000000000000060648201526084016104dc565b606046617a6903611ae05773__$227e4555c1f608352b26068e438454dd8b$__63bc3a86cf611a766008426146f0565b6040518263ffffffff1660e01b8152600401611a9491815260200190565b600060405180830381865af4158015611ab1573d6000803e3d6000fd5b505050506040513d6000823e601f3d908101601f19168201604052611ad99190810190614730565b9050611b73565b6040517fbc3a86cf00000000000000000000000000000000000000000000000000000000815244600482015273__$227e4555c1f608352b26068e438454dd8b$__9063bc3a86cf90602401600060405180830381865af4158015611b48573d6000803e3d6000fd5b505050506040513d6000823e601f3d908101601f19168201604052611b709190810190614730565b90505b60005b600682600081518110611b8b57611b8b61454e565b6020026020010151611b9d9190614802565b63ffffffff16811015611c8157611c78848551848481518110611bc257611bc261454e565b602002602001015163ffffffff16611bda9190614825565b81518110611bea57611bea61454e565b60200260200101518b8b604051602401611c1b9392919092835261ffff918216602084015216604082015260600190565b60408051601f198184030181529190526020810180517bffffffffffffffffffffffffffffffffffffffffffffffffffffffff167f15bc4248000000000000000000000000000000000000000000000000000000001790526124b6565b50600101611b76565b50505050505050505050565b6000610265612564565b6060600060606000611ca7612564565b9050306001600160a01b03821603611cd057611cc48787876125a3565b93509350935050611d5e565b6040517f419b58fd0000000000000000000000000000000000000000000000000000000081526001600160a01b0382169063419b58fd90611d19908a908a908a90600401614839565b600060405180830381865afa158015611d36573d6000803e3d6000fd5b505050506040513d6000823e601f3d908101601f19168201604052611cc491908101906148ea565b93509350939050565b60208301516022840151600091829160f091821c911c5b90969095509350505050565b60606000611d96612564565b9050306001600160a01b03821603611dbb57611db38585856126ab565b9150506102cf565b6040517f1e7889770000000000000000000000000000000000000000000000000000000081526001600160a01b03821690631e78897790611e0490889088908890600401614957565b600060405180830381865afa158015611e21573d6000803e3d6000fd5b505050506040513d6000823e601f3d908101601f19168201604052611db39190810190614983565b509392505050565b600081831180611e615750835182115b15611e9e578383836040517f23230fa30000000000000000000000000000000000000000000000000000000081526004016104dc939291906149e4565b60208401611eac848261453b565b90506000611eba8585614564565b6fffffffffffffffffffffffffffffffff1660809290921b9190911795945050505050565b606060006102cf83602060006126e5565b600080611efb612564565b9050306001600160a01b03821603611f2157611f1986868686612760565b915050610da3565b6040517f8c364d590000000000000000000000000000000000000000000000000000000081526001600160a01b03821690638c364d5990611f6c908990899089908990600401614a09565b602060405180830381865afa158015611f89573d6000803e3d6000fd5b505050506040513d601f19601f82011682018060405250810190611f199190614a38565b611fb7828261278d565b610dbd57611fc4826127eb565b816040517fd787b7370000000000000000000000000000000000000000000000000000000081526004016104dc929190614a51565b6000612003612564565b9050306001600160a01b0382160361202857612023878787878787612928565b61106c565b6040517fc0a2895a0000000000000000000000000000000000000000000000000000000081526001600160a01b0382169063c0a2895a90612077908a908a908a908a908a908a90600401614a7c565b600060405180830381600087803b15801561209157600080fd5b505af11580156120a5573d6000803e3d6000fd5b5050505050505050505050565b60006120bc612564565b9050306001600160a01b038216036120df576120da85858585612940565b6105f9565b6040517fd9c03a040000000000000000000000000000000000000000000000000000000081526001600160a01b0382169063d9c03a049061212a908890889088908890600401614a09565b600060405180830381600087803b15801561214457600080fd5b505af1158015612158573d6000803e3d6000fd5b505050505050505050565b600061216d612564565b9050306001600160a01b038216036121915761218c8686868686612999565b610f05565b6040517f298314fb0000000000000000000000000000000000000000000000000000000081526001600160a01b0382169063298314fb906121de9089908990899089908990600401614ad2565b600060405180830381600087803b1580156121f857600080fd5b505af1158015611c81573d6000803e3d6000fd5b6000612216612564565b9050306001600160a01b038216036122355761218c86868686866129af565b6040517f390baae00000000000000000000000000000000000000000000000000000000081526001600160a01b0382169063390baae0906121de9089908990899089908990600401614b17565b600061228c612564565b9050306001600160a01b038216036122aa576120da858585856129c4565b6040517f150f32620000000000000000000000000000000000000000000000000000000081526001600160a01b0382169063150f32629061212a908890889088908890600401614b5e565b60408051600180825281830190925260009160208083019080368337019050509050828160008151811061232b5761232b61454e565b6020026020010181815250506107f07f7462554400000000000000000000000053657373696f6e54696d65720000000060001b8260008560405160200161237491815260200190565b60408051601f19818403018152919052630100080160dd1b61220c565b6000610d156123a086856129ff565b6123aa86856129ff565b612a21565b604080516001808252818301909252600091829190602080830190803683370190505090508260001b816000815181106123eb576123eb61454e565b602090810291909101015260006124237f746255440000000000000000000000004d6f627342794c6576656c00000000008383612a38565b60209004949350505050565b60408051600180825281830190925260609160009190602080830190803683370190505090508260001b8160008151811061246c5761246c61454e565b602090810291909101015260006124a47f746255440000000000000000000000004d6f627342794c6576656c00000000008383611d8a565b9050610da3610d108260008451611e51565b60606000806124cc6124c785614b92565b612aea565b91509150816000801b03612532576040517ffdde54e20000000000000000000000000000000000000000000000000000000081527fffffffff000000000000000000000000000000000000000000000000000000006000351660048201526024016104dc565b6020840180517bffffffffffffffffffffffffffffffffffffffffffffffffffffffff1682179052610da38285612bad565b7f629a4c26e296b22a8e0856e9f6ecb2d1008d7e00081111962cd175fa7488e175546000906001600160a01b03168061259e573391505090565b919050565b60606000606060006125b485612c88565b90506125c1878783612cab565b935060006125ce86612ce4565b905080156126a0576125e08888612d21565b935066ffffffffffffff841667ffffffffffffffff811115612604576126046145b9565b6040519080825280601f01601f19166020018201604052801561262e576020820181803683370190505b5092506020830160005b828160ff16101561269d5760006126508b8b84612d34565b9050600061266d888460ff166028026038011c64ffffffffff1690565b905061267c8260008387612db4565b612686818561453b565b93505050808061269590614be2565b915050612638565b50505b505093509350939050565b6060610da36126bb858585612d34565b60006126e0856126cb8989612d21565b9060ff166028026038011c64ffffffffff1690565b612e80565b606060006126f38560801c90565b90506fffffffffffffffffffffffffffffffff85166000858281612719576127196147ec565b04905060405193506020840160208202810160405281855260005b82811015612754578451871c825293870193602090910190600101612734565b50505050509392505050565b6000610d1561276f8686612ea3565b60ff858116601b0360080285901c166127888587612ef9565b612f2a565b60006127db7f6e730000000000000000000000000000000000000000000000000000000000007dffffffffffffffffffffffffffff0000000000000000000000000000000085161783612f7b565b806102cf57506102cf8383612f7b565b606081601081901b60006127fe8361302c565b9050827fffffffffffffffffffffffffffff000000000000000000000000000000000000831615612859576128547fffffffffffffffffffffffffffff0000000000000000000000000000000000008416613043565b612890565b6040518060400160405280600681526020017f3c726f6f743e00000000000000000000000000000000000000000000000000008152505b7fffffffffffffffffffffffffffffffff000000000000000000000000000000008316156128c6576128c183613043565b6128fd565b6040518060400160405280600681526020017f3c726f6f743e00000000000000000000000000000000000000000000000000008152505b60405160200161290f93929190614c01565b6040516020818303038152906040529350505050919050565b610f0586868686868661293b8d8d612d21565b6130e7565b600061294c8585612d21565b90506000612969828560ff166028026038011c64ffffffffff1690565b9050610f058686866129828764ffffffffff8716614564565b6040805160008152602081019091528890886130e7565b6105f985858585856129aa8b613521565b6135a6565b6105f985856129be8487612ef9565b856138df565b60006129d08585612d21565b905060006129ed828560ff166028026038011c64ffffffffff1690565b9050610f0586868684600088886130e7565b6000818311612a1757612a128383614564565b6102cf565b6102cf8284614564565b600081831015612a3157816102cf565b5090919050565b600080612a43612564565b9050306001600160a01b03821603612a6057611db3858585613b7a565b6040517fdbbf0e210000000000000000000000000000000000000000000000000000000081526001600160a01b0382169063dbbf0e2190612aa990889088908890600401614957565b602060405180830381865afa158015612ac6573d6000803e3d6000fd5b505050506040513d601f19601f82011682018060405250810190611db39190614a38565b6040805160018082528183019092526000918291829160208083019080368337019050509050837bffffffffffffffffffffffffffffffffffffffffffffffffffffffff191681600081518110612b4357612b4361454e565b602090810291909101015260008080612b9c7f7462776f726c6400000000000000000046756e6374696f6e53656c6563746f72857e24020020040000000000000000000000000000000000000000000000000000611c97565b925092509250610c52838383613b8a565b60606000612bb9611c8d565b90506001600160a01b0381163003612bfa576000612be1612bd8610b7c565b60008787613b96565b9350905080612bf357612bf383613cd1565b5050610255565b6040517f3ae7af080000000000000000000000000000000000000000000000000000000081526001600160a01b03821690633ae7af0890612c419087908790600401614c8f565b6000604051808303816000875af1158015612c60573d6000803e3d6000fd5b505050506040513d6000823e601f3d908101601f19168201604052610da39190810190614983565b60006008612c9860026020614564565b612ca29190614ca8565b9190911c919050565b606081600003612cca57506040805160208101909152600081526102cf565b6000612cd68585612ea3565b9050610d1581600085612e80565b60006008600180612cf760026020614564565b612d019190614564565b612d0b9190614564565b612d159190614ca8565b8260ff911c1692915050565b60006102cf612d308484613cd9565b5490565b60008383604051602001612d49929190614cbf565b604051602081830303815290604052805190602001208260f81b7effffffffffffffffffffffffffffffffffffffffffffffffffffffffffffff19167f3b4102da22e32d82fc925482184f16c09fd4281692720b87d124aef6da48a0f1181860001c90509392505050565b8215612e3b5760208310612dde57602083048401935060208381612dda57612dda6147ec565b0692505b8215612e3b576020839003600081841015612e015750600019600884021c612e0b565b50600019600882021c5b8554600886021b818451168219821617845250818411612e2c575050611589565b50600194909401939182900391015b5b60208210612e5d5783548152600190930192601f1990910190602001612e3c565b8115611589576000600019600884021c8251865482191691161782525050505050565b60405160208101601f19603f8484010116604052828252611e4985858584612db4565b60008282604051602001612eb8929190614cbf565b60408051601f1981840301815291905280516020909101207f86425bff6b57326c7859e89024fe4f238ca327a1ae4a230180dd2f0e88aaa7d9189392505050565b600080805b8360ff16811015611e4957612f2060ff601b83900360080287901c168361453b565b9150600101612efe565b600060208210612f5057602082048401935060208281612f4c57612f4c6147ec565b0691505b508254600882021b602082900380841115611e49576001850154600882021c82179150509392505050565b604080516002808252606082018352600092839291906020830190803683370190505090508381600081518110612fb457612fb461454e565b602002602001018181525050826001600160a01b031660001b81600181518110612fe057612fe061454e565b602090810291909101015260006130207f7462776f726c640000000000000000005265736f7572636541636365737300008383630101000160d81b611ef0565b9050610d158160f81c90565b600061303a6070601061453b565b9190911b919050565b606060005b60108110156130a8577fffffffffffffffffffffffffffffffff000000000000000000000000000000008316600882021b7fff0000000000000000000000000000000000000000000000000000000000000016156130a857600101613048565b604080517fffffffffffffffffffffffffffffffff00000000000000000000000000000000851660208201528151603090910190915281815280610da3565b7f7462000000000000000000000000000000000000000000000000000000000000877fffff00000000000000000000000000000000000000000000000000000000000016146131a7577f7462000000000000000000000000000000000000000000000000000000000000878860405160200161316591815260200190565b60408051601f19818403018152908290527f31b466830000000000000000000000000000000000000000000000000000000082526104dc939291600401614cfb565b60006131c2828760ff166028026038011c64ffffffffff1690565b9050600083518564ffffffffff16836131db9190614564565b6131e5919061453b565b90508082141580156132075750816131fd8688614d3c565b64ffffffffff1614155b15613257576040517fa65010b400000000000000000000000000000000000000000000000000000000815264ffffffffff80881660048301528087166024830152831660448201526064016104dc565b818664ffffffffff1611156132a8576040517f7e8578d30000000000000000000000000000000000000000000000000000000081526004810183905264ffffffffff871660248201526044016104dc565b60006132b5848984613d2f565b905060006132c28b613dfd565b905060005b815181101561338d5760008282815181106132e4576132e461454e565b602002602001015190506133106010826affffffffffffffffffffff1916613e8690919063ffffffff16565b1561338457606081901c6001600160a01b03166355eb5a288e8e8e8e8e8d8f6040518863ffffffff1660e01b81526004016133519796959493929190614d5a565b600060405180830381600087803b15801561336b57600080fd5b505af115801561337f573d6000803e3d6000fd5b505050505b506001016132c7565b5064ffffffffff881660005b8a60ff168160ff1610156133cc576133c0878260ff166028026038011c64ffffffffff1690565b90910190600101613399565b508b7ffe158a7adba34e256807c8a149028d3162918713c3838afc643ce9f96716ebfd8c8c848c888d60405161340796959493929190614db8565b60405180910390a2508284146134285760006134238c8c613cd9565b839055505b60006134358c8c8c612d34565b9050613449818a64ffffffffff1689613ea4565b5060005b815181101561351357600082828151811061346a5761346a61454e565b602002602001015190506134966020826affffffffffffffffffffff1916613e8690919063ffffffff16565b1561350a57606081901c6001600160a01b031663635845338e8e8e8e8e8a8f6040518863ffffffff1660e01b81526004016134d79796959493929190614d5a565b600060405180830381600087803b1580156134f157600080fd5b505af1158015613505573d6000803e3d6000fd5b505050505b5060010161344d565b505050505050505050505050565b60007f8b9d8c8b908d9affffffffffffffffffab9e9d939a8d00000000000000000000820161357057507e60030220202000000000000000000000000000000000000000000000000000919050565b61025561359d7f746273746f72650000000000000000005461626c65730000000000000000000084613eba565b60206000612f2a565b7f6f74000000000000000000000000000000000000000000000000000000000000867fffff000000000000000000000000000000000000000000000000000000000000160361363257857f8dbb3a9672eebfd3773e72dd9c102393436816d832c7ba9e1e1ac8fcadcac7a9868686866040516136259493929190614e07565b60405180910390a2610f05565b600061363d87613dfd565b905060005b815181101561371657600082828151811061365f5761365f61454e565b6020026020010151905061368b6001826affffffffffffffffffffff1916613e8690919063ffffffff16565b1561370d576040517f57066c9c000000000000000000000000000000000000000000000000000000008152606082901c906357066c9c906136da908c908c908c908c908c908c90600401614e46565b600060405180830381600087803b1580156136f457600080fd5b505af1158015613708573d6000803e3d6000fd5b505050505b50600101613642565b50867f8dbb3a9672eebfd3773e72dd9c102393436816d832c7ba9e1e1ac8fcadcac7a98787878760405161374d9493929190614e07565b60405180910390a260006137618888612ea3565b90506000602087019050613779826000895184613ed6565b600061378485612ce4565b11156138085760006137968a8a613cd9565b878155905060208601915060008060005b6137b088612ce4565b8160ff161015613803576137c58d8d83612d34565b92506137e08a8260ff166028026038011c64ffffffffff1690565b91506137ef8360008488613ed6565b6137f9828661453b565b94506001016137a7565b505050505b60005b8351811015611c815760008482815181106138285761382861454e565b602002602001015190506138546002826affffffffffffffffffffff1916613e8690919063ffffffff16565b156138d6576040517f5b28cdaf000000000000000000000000000000000000000000000000000000008152606082901c90635b28cdaf906138a3908e908e908e908e908e908e90600401614e46565b600060405180830381600087803b1580156138bd57600080fd5b505af11580156138d1573d6000803e3d6000fd5b505050505b5060010161380b565b7f6f74000000000000000000000000000000000000000000000000000000000000847fffff000000000000000000000000000000000000000000000000000000000000160361396957837f8c0b5119d4cec7b284c6b1b39252a03d1e2f2d7451a5895562524c113bb952be84848460405161395c93929190614e9f565b60405180910390a2611589565b60006139758585612ea3565b9050600061398286613dfd565b905060005b8151811015613a575760008282815181106139a4576139a461454e565b602002602001015190506139d06004826affffffffffffffffffffff1916613e8690919063ffffffff16565b15613a4e576040517f964f667d000000000000000000000000000000000000000000000000000000008152606082901c9063964f667d90613a1b908b908b908b908b90600401614edc565b600060405180830381600087803b158015613a3557600080fd5b505af1158015613a49573d6000803e3d6000fd5b505050505b50600101613987565b50857f8c0b5119d4cec7b284c6b1b39252a03d1e2f2d7451a5895562524c113bb952be868686604051613a8c93929190614e9f565b60405180910390a2613aa7828565ffffffffffff1685613ea4565b60005b815181101561106c576000828281518110613ac757613ac761454e565b60200260200101519050613af36008826affffffffffffffffffffff1916613e8690919063ffffffff16565b15613b71576040517fa8ba8721000000000000000000000000000000000000000000000000000000008152606082901c9063a8ba872190613b3e908b908b908b908b90600401614edc565b600060405180830381600087803b158015613b5857600080fd5b505af1158015613b6c573d6000803e3d6000fd5b505050505b50600101613aaa565b6000610da3826126cb8686612d21565b600080611d7e85613f95565b60006060600080613ba686613faa565b90925090506001600160a01b038216613bf75785613bc3876127eb565b6040517ffbf10ce60000000000000000000000000000000000000000000000000000000081526004016104dc929190614c8f565b80613c0657613c06868961404e565b8615613c72577dffffffffffffffffffffffffffff0000000000000000000000000000000086167f6e73000000000000000000000000000000000000000000000000000000000000176000613c5a82614058565b9050613c6f82613c6a8b8461453b565b6140d1565b50505b6000613c7e8760101b90565b7fffffffffffffffffffffffffffff0000000000000000000000000000000000001614613cb657613cb18888848861416d565b613cc2565b613cc2888884886141e5565b90999098509650505050505050565b805160208201fd5b60008282604051602001613cee929190614cbf565b60408051601f1981840301815291905280516020909101207f14e2fcc58e58e68ec7edc30c8d50dccc3ce2714a623ec81f46b6a63922d76569189392505050565b600064ffffffffff821115613d73576040517f7149a3c1000000000000000000000000000000000000000000000000000000008152600481018390526024016104dc565b8366ffffffffffffff811660ff851660280260380182901c64ffffffffff16808510613da55780850382019150613dad565b848103820391505b5064ffffffffff6038602860ff8816020181811b197fffffffffffffffffffffffffffffffffffffffffffffffffff000000000000009490941690921792909216918416901b1790509392505050565b60408051600180825281830190925260609160009190602080830190803683370190505090508281600081518110613e3757613e3761454e565b60209081029190910101526000613e6f7f746273746f726500000000000000000053746f7265486f6f6b7300000000000083836126ab565b9050610da3613e818260008451611e51565b614246565b60008160ff1682613e978560581c90565b1660ff1614905092915050565b6107f083838351613eb58560200190565b613ed6565b6040805160208101849052908101829052600090606001612eb8565b8215613f505760208310613f0057602083048401935060208381613efc57613efc6147ec565b0692505b8215613f505760208390036000600019600885021c1990506008850281811c91508351811c9050811987541682821617875550818411613f41575050611589565b50600194909401939182900391015b5b60208210613f725780518455600190930192601f1990910190602001613f51565b8115611589576000600019600884021c8554835182191691161785555050505050565b602081015160408201516000905b9050915091565b60408051600180825281830190925260009182918291602080830190803683370190505090508381600081518110613fe457613fe461454e565b60209081029190910101526000808061403d7f7462776f726c6400000000000000000053797374656d73000000000000000000857e150200140100000000000000000000000000000000000000000000000000006125a3565b925092509250610c52838383614257565b611fb78282614263565b6040805160018082528183019092526000918291906020808301908036833701905050905082816000815181106140915761409161454e565b60209081029190910101526000610da37f7462776f726c6400000000000000000042616c616e63657300000000000000008383630100080160dd1b612760565b6040805160018082528183019092526000916020808301908036833701905050905082816000815181106141075761410761454e565b6020026020010181815250506107f07f7462776f726c6400000000000000000042616c616e636573000000000000000060001b8260008560405160200161415091815260200190565b60408051601f19818403018152919052630100080160dd1b6129af565b60006060836001600160a01b031660006141888589896142c1565b6040516141959190614f15565b60006040518083038185875af1925050503d80600081146141d2576040519150601f19603f3d011682016040523d82523d6000602084013e6141d7565b606091505b509097909650945050505050565b60006060836001600160a01b03166141fe8488886142c1565b60405161420b9190614f15565b600060405180830381855af49150503d80600081146141d2576040519150601f19603f3d011682016040523d82523d6000602084013e6141d7565b606060006102cf83601560006126e5565b600080611d7e856142f0565b60006142b17f6e730000000000000000000000000000000000000000000000000000000000007dffffffffffffffffffffffffffff000000000000000000000000000000008516178361430c565b806102cf57506102cf838361430c565b60608383836040516020016142d893929190614f31565b60405160208183030381529060405290509392505050565b6020810151603482015160609190911c9060009060f81c613fa3565b6040805160028082526060820183526000928392919060208301908036833701905050905083816000815181106143455761434561454e565b602002602001018181525050826001600160a01b031660001b816001815181106143715761437161454e565b602090810291909101015260006130207f7462776f726c640000000000000000005265736f7572636541636365737300008383630101000160d81b612760565b6000602082840312156143c357600080fd5b81357fffffffff00000000000000000000000000000000000000000000000000000000811681146102cf57600080fd5b803561ffff8116811461259e57600080fd5b60008060006060848603121561441a57600080fd5b8335925061442a602085016143f3565b9150614438604085016143f3565b90509250925092565b60006020828403121561445357600080fd5b5035919050565b6000806040838503121561446d57600080fd5b614476836143f3565b9150614484602084016143f3565b90509250929050565b60008151808452602080850194506020840160005b838110156144be578151875295820195908201906001016144a2565b509495945050505050565b6020815260006102cf602083018461448d565b6000602082840312156144ee57600080fd5b815180151581146102cf57600080fd5b8051602080830151919081101561451f576000198160200360031b1b821691505b50919050565b634e487b7160e01b600052601160045260246000fd5b8082018082111561025557610255614525565b634e487b7160e01b600052603260045260246000fd5b8181038181111561025557610255614525565b6000600019820361458a5761458a614525565b5060010190565b80820182811260008312801582168215821617156145b1576145b1614525565b505092915050565b634e487b7160e01b600052604160045260246000fd5b61ffff8281168282160390808211156145ea576145ea614525565b5092915050565b61ffff8181168382160190808211156145ea576145ea614525565b600181815b8085111561464757816000190482111561462d5761462d614525565b8085161561463a57918102915b93841c9390800290614611565b509250929050565b60008261465e57506001610255565b8161466b57506000610255565b8160018114614681576002811461468b576146a7565b6001915050610255565b60ff84111561469c5761469c614525565b50506001821b610255565b5060208310610133831016604e8410600b84101617156146ca575081810a610255565b6146d4838361460c565b80600019048211156146e8576146e8614525565b029392505050565b60006102cf60ff84168361464f565b604051601f8201601f1916810167ffffffffffffffff81118282101715614728576147286145b9565b604052919050565b6000602080838503121561474357600080fd5b825167ffffffffffffffff8082111561475b57600080fd5b818501915085601f83011261476f57600080fd5b815181811115614781576147816145b9565b8060051b91506147928483016146ff565b81815291830184019184810190888411156147ac57600080fd5b938501935b838510156147e0578451925063ffffffff831683146147d05760008081fd5b82825293850193908501906147b1565b98975050505050505050565b634e487b7160e01b600052601260045260246000fd5b600063ffffffff80841680614819576148196147ec565b92169190910692915050565b600082614834576148346147ec565b500690565b838152606060208201526000614852606083018561448d565b9050826040830152949350505050565b60005b8381101561487d578181015183820152602001614865565b50506000910152565b600082601f83011261489757600080fd5b815167ffffffffffffffff8111156148b1576148b16145b9565b6148c46020601f19601f840116016146ff565b8181528460208386010111156148d957600080fd5b610da3826020830160208701614862565b6000806000606084860312156148ff57600080fd5b835167ffffffffffffffff8082111561491757600080fd5b61492387838801614886565b945060208601519350604086015191508082111561494057600080fd5b5061494d86828701614886565b9150509250925092565b838152606060208201526000614970606083018561448d565b905060ff83166040830152949350505050565b60006020828403121561499557600080fd5b815167ffffffffffffffff8111156149ac57600080fd5b610da384828501614886565b600081518084526149d0816020860160208601614862565b601f01601f19169290920160200192915050565b6060815260006149f760608301866149b8565b60208301949094525060400152919050565b848152608060208201526000614a22608083018661448d565b60ff949094166040830152506060015292915050565b600060208284031215614a4a57600080fd5b5051919050565b604081526000614a6460408301856149b8565b90506001600160a01b03831660208301529392505050565b86815260c060208201526000614a9560c083018861448d565b60ff8716604084015264ffffffffff86811660608501528516608084015282810360a0840152614ac581856149b8565b9998505050505050505050565b85815260a060208201526000614aeb60a083018761448d565b8281036040840152614afd81876149b8565b905084606084015282810360808401526147e081856149b8565b85815260a060208201526000614b3060a083018761448d565b60ff861660408401528281036060840152614b4b81866149b8565b9150508260808301529695505050505050565b848152608060208201526000614b77608083018661448d565b60ff85166040840152828103606084015261170081856149b8565b6000815160208301517fffffffff0000000000000000000000000000000000000000000000000000000080821693506004831015614bda5780818460040360031b1b83161693505b505050919050565b600060ff821660ff8103614bf857614bf8614525565b60010192915050565b7fffff0000000000000000000000000000000000000000000000000000000000008416815260007f3a000000000000000000000000000000000000000000000000000000000000008060028401528451614c62816003860160208901614862565b808401905081600382015284519150614c82826004830160208801614862565b0160040195945050505050565b828152604060208201526000610da360408301846149b8565b808202811582820484141761025557610255614525565b8281526000602080830184516020860160005b82811015614cee57815184529284019290840190600101614cd2565b5091979650505050505050565b7fffff00000000000000000000000000000000000000000000000000000000000084168152826020820152606060408201526000610d1560608301846149b8565b64ffffffffff8181168382160190808211156145ea576145ea614525565b87815260e060208201526000614d7360e083018961448d565b60ff8816604084015264ffffffffff87811660608501528616608084015260a0830185905282810360c0840152614daa81856149b8565b9a9950505050505050505050565b60c081526000614dcb60c083018961448d565b60ff8816602084015265ffffffffffff8716604084015264ffffffffff8616606084015284608084015282810360a0840152614ac581856149b8565b608081526000614e1a608083018761448d565b8281036020840152614e2c81876149b8565b9050846040840152828103606084015261170081856149b8565b86815260c060208201526000614e5f60c083018861448d565b8281036040840152614e7181886149b8565b90508560608401528281036080840152614e8b81866149b8565b9150508260a0830152979650505050505050565b606081526000614eb2606083018661448d565b65ffffffffffff851660208401528281036040840152614ed281856149b8565b9695505050505050565b848152608060208201526000614ef5608083018661448d565b65ffffffffffff85166040840152828103606084015261170081856149b8565b60008251614f27818460208701614862565b9190910192915050565b60008451614f43818460208901614862565b60609490941b7fffffffffffffffffffffffffffffffffffffffff000000000000000000000000169190930190815260148101919091526034019291505056fea2646970667358221220d2287f21444eea03eeda9e3087e7893fa84cbcad0bea02716a6bfb1ef1ffc9b064736f6c63430008180033","linkReferences":{"src/libraries/LibChunks.sol":{"LibChunks":[{"start":6771,"length":20},{"start":6958,"length":20}]}}},"methodIdentifiers":{"_msgSender()":"119df25f","_msgValue()":"45ec9354","_world()":"e1af802c","getEntitiesAtPosition(uint16,uint16)":"69e10c7b","getEntityPosition(bytes32)":"50c4bd84","isAtPosition(bytes32,uint16,uint16)":"3fbf0c5a","move(bytes32,uint16,uint16)":"953717d1","removeEntityFromBoard(bytes32)":"8181bc57","spawn(bytes32)":"911c37ae","supportsInterface(bytes4)":"01ffc9a7"},"id":135}