{"abi":[{"type":"function","name":"_msgSender","inputs":[],"outputs":[{"name":"sender","type":"address","internalType":"address"}],"stateMutability":"view"},{"type":"function","name":"_msgValue","inputs":[],"outputs":[{"name":"value","type":"uint256","internalType":"uint256"}],"stateMutability":"pure"},{"type":"function","name":"_world","inputs":[],"outputs":[{"name":"","type":"address","internalType":"address"}],"stateMutability":"view"},{"type":"function","name":"getEntitiesAtPosition","inputs":[{"name":"x","type":"uint16","internalType":"uint16"},{"name":"y","type":"uint16","internalType":"uint16"}],"outputs":[{"name":"entitiesAtPosition","type":"bytes32[]","internalType":"bytes32[]"}],"stateMutability":"view"},{"type":"function","name":"getEntityPosition","inputs":[{"name":"entityId","type":"bytes32","internalType":"bytes32"}],"outputs":[{"name":"x","type":"uint16","internalType":"uint16"},{"name":"y","type":"uint16","internalType":"uint16"}],"stateMutability":"view"},{"type":"function","name":"isAtPosition","inputs":[{"name":"entityId","type":"bytes32","internalType":"bytes32"},{"name":"x","type":"uint16","internalType":"uint16"},{"name":"y","type":"uint16","internalType":"uint16"}],"outputs":[{"name":"_isAtPosition","type":"bool","internalType":"bool"}],"stateMutability":"view"},{"type":"function","name":"move","inputs":[{"name":"entityId","type":"bytes32","internalType":"bytes32"},{"name":"x","type":"uint16","internalType":"uint16"},{"name":"y","type":"uint16","internalType":"uint16"}],"outputs":[],"stateMutability":"nonpayable"},{"type":"function","name":"removeEntitiesFromBoard","inputs":[{"name":"entityIds","type":"bytes32[]","internalType":"bytes32[]"}],"outputs":[],"stateMutability":"nonpayable"},{"type":"function","name":"removeEntityFromBoard","inputs":[{"name":"entityId","type":"bytes32","internalType":"bytes32"}],"outputs":[],"stateMutability":"nonpayable"},{"type":"function","name":"spawn","inputs":[{"name":"entityId","type":"bytes32","internalType":"bytes32"}],"outputs":[],"stateMutability":"nonpayable"},{"type":"function","name":"supportsInterface","inputs":[{"name":"interfaceId","type":"bytes4","internalType":"bytes4"}],"outputs":[{"name":"","type":"bool","internalType":"bool"}],"stateMutability":"pure"},{"type":"event","name":"Store_SetRecord","inputs":[{"name":"tableId","type":"bytes32","indexed":true,"internalType":"ResourceId"},{"name":"keyTuple","type":"bytes32[]","indexed":false,"internalType":"bytes32[]"},{"name":"staticData","type":"bytes","indexed":false,"internalType":"bytes"},{"name":"encodedLengths","type":"bytes32","indexed":false,"internalType":"EncodedLengths"},{"name":"dynamicData","type":"bytes","indexed":false,"internalType":"bytes"}],"anonymous":false},{"type":"event","name":"Store_SpliceDynamicData","inputs":[{"name":"tableId","type":"bytes32","indexed":true,"internalType":"ResourceId"},{"name":"keyTuple","type":"bytes32[]","indexed":false,"internalType":"bytes32[]"},{"name":"dynamicFieldIndex","type":"uint8","indexed":false,"internalType":"uint8"},{"name":"start","type":"uint48","indexed":false,"internalType":"uint48"},{"name":"deleteCount","type":"uint40","indexed":false,"internalType":"uint40"},{"name":"encodedLengths","type":"bytes32","indexed":false,"internalType":"EncodedLengths"},{"name":"data","type":"bytes","indexed":false,"internalType":"bytes"}],"anonymous":false},{"type":"event","name":"Store_SpliceStaticData","inputs":[{"name":"tableId","type":"bytes32","indexed":true,"internalType":"ResourceId"},{"name":"keyTuple","type":"bytes32[]","indexed":false,"internalType":"bytes32[]"},{"name":"start","type":"uint48","indexed":false,"internalType":"uint48"},{"name":"data","type":"bytes","indexed":false,"internalType":"bytes"}],"anonymous":false},{"type":"error","name":"EncodedLengths_InvalidLength","inputs":[{"name":"length","type":"uint256","internalType":"uint256"}]},{"type":"error","name":"Slice_OutOfBounds","inputs":[{"name":"data","type":"bytes","internalType":"bytes"},{"name":"start","type":"uint256","internalType":"uint256"},{"name":"end","type":"uint256","internalType":"uint256"}]},{"type":"error","name":"Store_IndexOutOfBounds","inputs":[{"name":"length","type":"uint256","internalType":"uint256"},{"name":"accessedIndex","type":"uint256","internalType":"uint256"}]},{"type":"error","name":"Store_InvalidResourceType","inputs":[{"name":"expected","type":"bytes2","internalType":"bytes2"},{"name":"resourceId","type":"bytes32","internalType":"ResourceId"},{"name":"resourceIdString","type":"string","internalType":"string"}]},{"type":"error","name":"Store_InvalidSplice","inputs":[{"name":"startWithinField","type":"uint40","internalType":"uint40"},{"name":"deleteCount","type":"uint40","internalType":"uint40"},{"name":"fieldLength","type":"uint40","internalType":"uint40"}]},{"type":"error","name":"World_AccessDenied","inputs":[{"name":"resource","type":"string","internalType":"string"},{"name":"caller","type":"address","internalType":"address"}]},{"type":"error","name":"World_FunctionSelectorNotFound","inputs":[{"name":"functionSelector","type":"bytes4","internalType":"bytes4"}]},{"type":"error","name":"World_ResourceNotFound","inputs":[{"name":"resourceId","type":"bytes32","internalType":"ResourceId"},{"name":"resourceIdString","type":"string","internalType":"string"}]}],"bytecode":{"object":"0x608060405234801561000f575f80fd5b5061574e806200001e5f395ff3fe608060405234801561000f575f80fd5b50600436106100c4575f3560e01c806369e10c7b1161007d578063953717d111610058578063953717d1146101ac578063e03beb83146101bf578063e1af802c146101d2575f80fd5b806369e10c7b146101645780638181bc5714610184578063911c37ae14610199575f80fd5b80633fbf0c5a116100ad5780633fbf0c5a1461011057806345ec93541461012357806350c4bd8414610136575f80fd5b806301ffc9a7146100c8578063119df25f146100f0575b5f80fd5b6100db6100d6366004614b73565b6101da565b60405190151581526020015b60405180910390f35b6100f8610272565b6040516001600160a01b0390911681526020016100e7565b6100db61011e366004614bc3565b610280565b604051601f1936013581526020016100e7565b610149610144366004614bfc565b6102c1565b6040805161ffff9384168152929091166020830152016100e7565b610177610172366004614c13565b6102d6565b6040516100e79190614c7e565b610197610192366004614bfc565b6102e9565b005b6101976101a7366004614bfc565b610732565b6101976101ba366004614bc3565b610b3d565b6101976101cd366004614cf8565b610eb4565b6100f8610eed565b5f7fffffffff0000000000000000000000000000000000000000000000000000000082167fb5dee12700000000000000000000000000000000000000000000000000000000148061026c57507fffffffff0000000000000000000000000000000000000000000000000000000082167f01ffc9a700000000000000000000000000000000000000000000000000000000145b92915050565b5f61027b610ef6565b905090565b5f805f61028c86610f28565b915091508461ffff168261ffff161480156102ae57508361ffff168161ffff16145b156102b857600192505b50509392505050565b5f806102cc83610f28565b9094909350915050565b60606102e28383610fd6565b9392505050565b5f6102f38261108f565b90506102fd610eed565b6001600160a01b031663fa1becc4836040518263ffffffff1660e01b815260040161032a91815260200190565b602060405180830381865afa158015610345573d5f803e3d5ffd5b505050506040513d601f19601f820116820180604052508101906103699190614d7e565b15610586575f610379305f611125565b90505f610384610eed565b6001600160a01b03166343def6388561039b610272565b6040517fffffffff0000000000000000000000000000000000000000000000000000000060e085901b16815260048101929092526001600160a01b03166024820152604401602060405180830381865afa1580156103fb573d5f803e3d5ffd5b505050506040513d601f19601f8201168201806040525081019061041f9190614d7e565b9050801561049457821561047a5760405162461bcd60e51b815260206004820152601c60248201527f75736520636f727265637420666c6565696e672066756e6374696f6e0000000060448201526064015b60405180910390fd5b61048f305f61048a600186614db1565b6111c8565b61057f565b5f6104a56104a0610272565b61128c565b6040516020016104b791815260200190565b6040516020818303038152906040526104cf90614dc4565b0361055e57426102586104e18661130d565b6104eb9190614dea565b1061047a5760405162461bcd60e51b815260206004820152602760248201527f5468697320706c6179657227732073657373696f6e20686173206e6f7420746960448201527f6d6564206f7574000000000000000000000000000000000000000000000000006064820152608401610471565b61056f3061056a610272565b611383565b61057f305f61048a600186614db1565b5050610592565b6105923061056a610272565b5f8061059d846102c1565b915091505f6105ac83836102d6565b90505f5b815181101561063157858282815181106105cc576105cc614dfd565b60200260200101510361061f575f82600184516105e99190614db1565b815181106105f9576105f9614dfd565b6020026020010151905061060f85858484611395565b6106198585611459565b50610631565b8061062981614e11565b9150506105b0565b5061063d855f806114f8565b610647855f6115b5565b6060841561072a575f6106598661166a565b90505f5b816101200151518110156106c557610695826101200151828151811061068557610685614dfd565b60200260200101515f801b611764565b6106bd82610120015182815181106106af576106af614dfd565b602002602001015184611814565b60010161065d565b505f5b81610100015151811015610712576106f0826101000151828151811061068557610685614dfd565b61070a82610100015182815181106106af576106af614dfd565b6001016106c8565b5061071e876001611887565b6107288642611908565b505b505050505050565b5f61073c826119b9565b9050806001600160a01b0316610750610272565b6001600160a01b0316146107cb5760405162461bcd60e51b8152602060048201526024808201527f4f6e6c7920746865206f776e65722063616e20737061776e206120636861726160448201527f63746572000000000000000000000000000000000000000000000000000000006064820152608401610471565b5f6107d6305f611125565b90506107e0611a53565b81111561082f5760405162461bcd60e51b815260206004820152601360248201527f6d617820706c61796572732072656163686564000000000000000000000000006044820152606401610471565b61083883611aaf565b156108855760405162461bcd60e51b815260206004820152601960248201527f43686172616374657220616c726561647920737061776e6564000000000000006044820152606401610471565b5f61088f84611b49565b9050610899610eed565b6001600160a01b031663fa1becc4856040518263ffffffff1660e01b81526004016108c691815260200190565b602060405180830381865afa1580156108e1573d5f803e3d5ffd5b505050506040513d601f19601f820116820180604052508101906109059190614d7e565b15610948575f61091485611bd8565b61091e9083614e29565b90505f811315610937576109328582611c67565b610942565b610942856001611c67565b50610952565b6109528482611c67565b61095d845f806114f8565b6109688460016115b5565b610970610eed565b6001600160a01b031663fa1becc4856040518263ffffffff1660e01b815260040161099d91815260200190565b602060405180830381865afa1580156109b8573d5f803e3d5ffd5b505050506040513d601f19601f820116820180604052508101906109dc9190614d7e565b15610b12576109eb8442611d18565b6109f3610eed565b6001600160a01b0316638e9fa2ef85610a0a610eed565b6001600160a01b031663a543a0c5886040518263ffffffff1660e01b8152600401610a3791815260200190565b60c060405180830381865afa158015610a52573d5f803e3d5ffd5b505050506040513d601f19601f82011682018060405250810190610a769190614e50565b604080517fffffffff0000000000000000000000000000000000000000000000000000000060e086901b16815260048101939093528151602484015260208201516044840152810151606483015260608101516084830152608081015160a483015260a0015160c482015260e4015f604051808303815f87803b158015610afb575f80fd5b505af1158015610b0d573d5f803e3d5ffd5b505050505b610b1c845f611887565b610b275f8086611d93565b610b37305f61048a856001614dea565b50505050565b5f610b47846119b9565b9050610b51610eed565b6001600160a01b031663fa1becc4856040518263ffffffff1660e01b8152600401610b7e91815260200190565b602060405180830381865afa158015610b99573d5f803e3d5ffd5b505050506040513d601f19601f82011682018060405250810190610bbd9190614d7e565b610c095760405162461bcd60e51b815260206004820152601860248201527f43616e204f6e6c79206d6f7665206368617261637465727300000000000000006044820152606401610471565b806001600160a01b0316610c1b610272565b6001600160a01b031614610c975760405162461bcd60e51b815260206004820152602360248201527f4f6e6c7920746865206f776e65722063616e206d6f766520612063686172616360448201527f74657200000000000000000000000000000000000000000000000000000000006064820152608401610471565b610ca084611aaf565b610cec5760405162461bcd60e51b815260206004820152601560248201527f436861726163746572206e6f7420737061776e656400000000000000000000006044820152606401610471565b5f610cf68561108f565b14610d695760405162461bcd60e51b815260206004820152602260248201527f43616e6e6f74206d6f7665207768696c6520696e20616e20656e636f756e746560448201527f722e0000000000000000000000000000000000000000000000000000000000006064820152608401610471565b5f80610d7486610f28565b915091505f80610d82611e4d565b915091508061ffff168761ffff1610610ddd5760405162461bcd60e51b815260206004820152600f60248201527f58206f7574206f6620626f756e647300000000000000000000000000000000006044820152606401610471565b8161ffff168661ffff1610610e345760405162461bcd60e51b815260206004820152600f60248201527f59206f7574206f6620626f756e647300000000000000000000000000000000006044820152606401610471565b610e4084848989611ec8565b61ffff16600114610e935760405162461bcd60e51b815260206004820152601e60248201527f43616e206f6e6c79206d6f766520312074696c6520617420612074696d6500006044820152606401610471565b610ea08885858a8a611f34565b610eaa87876120b0565b5050505050505050565b5f5b8151811015610ee957610ee1828281518110610ed457610ed4614dfd565b60200260200101516102e9565b600101610eb6565b5050565b5f61027b612409565b7fffffffffffffffffffffffffffffffffffffffffffffffffffffffffffffffcc36013560601c80610f255750335b90565b6040805160018082528183019092525f91829182916020808301908036833701905050905083815f81518110610f6057610f60614dfd565b60209081029190910101525f8080610fb87f74625544000000000000000000000000506f736974696f6e0000000000000000857e04020002020000000000000000000000000000000000000000000000000000612412565b925092509250610fc98383836124dc565b9550955050505050915091565b60408051600280825260608083018452925f9291906020830190803683370190505090508361ffff165f1b815f8151811061101357611013614dfd565b6020026020010181815250508261ffff165f1b8160018151811061103957611039614dfd565b60209081029190910101525f6110707f74625544000000000000000000000000456e7469746965734174506f7369746983836124fe565b9050611086611081825f84516125c0565b61264c565b95945050505050565b6040805160018082528183019092525f918291906020808301908036833701905050905082815f815181106110c6576110c6614dfd565b60209081029190910101525f61111d7f74625544000000000000000000000000456e636f756e746572456e746974790083837e4103012001200000000000000000000000000000000000000000000000000061265b565b949350505050565b6040805160028082526060820183525f9283929190602083019080368337019050509050836001600160a01b03165f1b815f8151811061116757611167614dfd565b602002602001018181525050825f1b8160018151811061118957611189614dfd565b60209081029190910101525f6110867f74625544000000000000000000000000436f756e7465727300000000000000008383630100080160dd1b61265b565b6040805160028082526060820183525f92602083019080368337019050509050836001600160a01b03165f1b815f8151811061120657611206614dfd565b602002602001018181525050825f1b8160018151811061122857611228614dfd565b602002602001018181525050610b377f74625544000000000000000000000000436f756e7465727300000000000000005f1b825f8560405160200161126f91815260200190565b60408051601f19818403018152919052630100080160dd1b612715565b6040805160018082528183019092525f9182919060208083019080368337019050509050826001600160a01b03165f1b815f815181106112ce576112ce614dfd565b60209081029190910101525f61111d7f7462776f726c6400000000000000000053797374656d526567697374727900008383630100080160dd1b61265b565b6040805160018082528183019092525f918291906020808301908036833701905050905082815f8151811061134457611344614dfd565b60209081029190910101525f61111d7f7462554400000000000000000000000053657373696f6e54696d6572000000008383630100080160dd1b61265b565b610ee961138f8361128c565b826127b8565b6040805160028082526060820183525f926020830190803683370190505090508461ffff165f1b815f815181106113ce576113ce614dfd565b6020026020010181815250508361ffff165f1b816001815181106113f4576113f4614dfd565b6020026020010181815250505f8260405160200161141491815260200190565b604051602081830303815290604052905061072a7f74625544000000000000000000000000456e7469746965734174506f736974695f1b835f87602002855186612804565b6040805160028082526060820183525f926020830190803683370190505090508261ffff165f1b815f8151811061149257611492614dfd565b6020026020010181815250508161ffff165f1b816001815181106114b8576114b8614dfd565b6020026020010181815250506114f37f74625544000000000000000000000000456e7469746965734174506f736974695f1b825f60206128b7565b505050565b6040805160f084811b7fffff0000000000000000000000000000000000000000000000000000000000009081166020808501919091529185901b166022830152825160048184030181526001602484018181526064850190955290935f93606093859391604401908036833701905050905086815f8151811061157d5761157d614dfd565b60209081029190910101526107287f74625544000000000000000000000000506f736974696f6e000000000000000082868686612963565b6040805160018082528183019092525f916020808301908036833701905050905082815f815181106115e9576115e9614dfd565b6020026020010181815250506114f37f74625544000000000000000000000000537061776e65640000000000000000005f1b825f8560405160200161163591151560f81b815260010190565b60408051601f198184030181529190527e01010001000000000000000000000000000000000000000000000000000000612715565b6116bd604080516101408101909152805f81526020015f81526020015f81526020015f151581526020015f81526020015f81526020015f81526020015f1515815260200160608152602001606081525090565b6040805160018082528183019092525f916020808301908036833701905050905082815f815181106116f1576116f1614dfd565b60209081029190910101525f80806117497f74625544000000000000000000000000436f6d626174456e636f756e74657200857ea3080201202001202020010000000000000000000000000000000000000000612412565b92509250925061175a8383836129d8565b9695505050505050565b6040805160018082528183019092525f916020808301908036833701905050905082815f8151811061179857611798614dfd565b6020026020010181815250506114f37f74625544000000000000000000000000456e636f756e746572456e74697479005f1b825f856040516020016117df91815260200190565b60408051601f198184030181529190527e41030120012000000000000000000000000000000000000000000000000000612715565b6040805160018082528183019092525f916020808301908036833701905050905082815f8151811061184857611848614dfd565b60209081029190910101526114f37f74625544000000000000000000000000456e636f756e746572456e7469747900825f61188286612ab3565b612ac2565b6040805160018082528183019092525f916020808301908036833701905050905082815f815181106118bb576118bb614dfd565b6020026020010181815250506114f37f74625544000000000000000000000000456e636f756e746572456e74697479005f1b826001856040516020016117df91151560f81b815260010190565b6040805160018082528183019092525f916020808301908036833701905050905082815f8151811061193c5761193c614dfd565b6020026020010181815250506114f37f74625544000000000000000000000000436f6d626174456e636f756e746572005f1b8260028560405160200161198491815260200190565b60408051601f198184030181529190527ea3080201202001202020010000000000000000000000000000000000000000612715565b6040805160018082528183019092525f918291906020808301908036833701905050905082815f815181106119f0576119f0614dfd565b60209081029190910101525f611a487f74625544000000000000000000000000436861726163746572730000000000008360017e5504022014200100000000000000000000000000000000000000000000000061265b565b60601c949350505050565b604080515f808252602082019092525f6102e27f74625544000000000000000000000000556c74696d617465446f6d696e696f6e8360077e9908000114141414141420000000000000000000000000000000000000000061265b565b6040805160018082528183019092525f918291906020808301908036833701905050905082815f81518110611ae657611ae6614dfd565b60209081029190910101525f611b3d7f74625544000000000000000000000000537061776e656400000000000000000083837e0101000100000000000000000000000000000000000000000000000000000061265b565b905061111d8160f81c90565b6040805160018082528183019092525f918291906020808301908036833701905050905082815f81518110611b8057611b80614dfd565b60209081029190910101525f61111d7f74625544000000000000000000000000537461747300000000000000000000008360047ee108002020012020202020000000000000000000000000000000000000000061265b565b6040805160018082528183019092525f918291906020808301908036833701905050905082815f81518110611c0f57611c0f614dfd565b60209081029190910101525f61111d7f7462554400000000000000000000000043686172616374657245717569706d658360037ea005052020202020000000000000000000000000000000000000000000000061265b565b6040805160018082528183019092525f916020808301908036833701905050905082815f81518110611c9b57611c9b614dfd565b6020026020010181815250506114f37f74625544000000000000000000000000537461747300000000000000000000005f1b82600585604051602001611ce391815260200190565b60408051601f198184030181529190527ee1080020200120202020200000000000000000000000000000000000000000612715565b6040805160018082528183019092525f916020808301908036833701905050905082815f81518110611d4c57611d4c614dfd565b6020026020010181815250506114f37f7462554400000000000000000000000053657373696f6e54696d6572000000005f1b825f8560405160200161126f91815260200190565b6040805160028082526060820183525f926020830190803683370190505090508361ffff165f1b815f81518110611dcc57611dcc614dfd565b6020026020010181815250508261ffff165f1b81600181518110611df257611df2614dfd565b602002602001018181525050610b377f74625544000000000000000000000000456e7469746965734174506f736974695f1b825f85604051602001611e3991815260200190565b604051602081830303815290604052612b34565b604080515f8082526020820190925281905f8080611eab7f746255440000000000000000000000004d6170436f6e66696700000000000000857e04020002020000000000000000000000000000000000000000000000000000612412565b925092509250611ebc8383836124dc565b95509550505050509091565b5f808361ffff168661ffff1611611ee857611ee38685614ec8565b611ef2565b611ef28487614ec8565b90505f8361ffff168661ffff1611611f1357611f0e8685614ec8565b611f1d565b611f1d8487614ec8565b9050611f298183614eea565b979650505050505050565b5f611f3f85856102d6565b90505f805b8251811015611fc95787838281518110611f6057611f60614dfd565b602002602001015103611fb757600191505f8360018551611f819190614db1565b81518110611f9157611f91614dfd565b60200260200101519050611fa788888484611395565b611fb18888611459565b50611fc9565b80611fc181614e11565b915050611f44565b50806120175760405162461bcd60e51b815260206004820152601660248201527f456e74697479206e6f7420617420706f736974696f6e000000000000000000006044820152606401610471565b61201f610eed565b6001600160a01b031663fa1becc4886040518263ffffffff1660e01b815260040161204c91815260200190565b602060405180830381865afa158015612067573d5f803e3d5ffd5b505050506040513d601f19601f8201168201806040525081019061208b9190614d7e565b1561209a5761209a8742611d18565b6120a58785856114f8565b610728848489611d93565b5f6120c55f808561ffff168561ffff16612ba6565b61ffff169050805f036120d757505050565b5f8060058310156120ee57506001905060066120f6565b5060069050600b5b5f60ff83165b8260ff168110156121245761211081612bc3565b61211a9083614dea565b91506001016120fc565b505f8167ffffffffffffffff81111561213f5761213f614c90565b604051908082528060200260200182016040528015612168578160200160208202803683370190505b5090505f60ff85165b8460ff168110156121e9575f61218682612c3f565b90505f5b81518110156121df578181815181106121a5576121a5614dfd565b60200260200101518585815181106121bf576121bf614dfd565b6020908102919091010152836121d481614e11565b94505060010161218a565b5050600101612171565b505f8251116122605760405162461bcd60e51b815260206004820152602760248201527f4e6f206d6f6e737465727320617661696c61626c6520666f722074686973206460448201527f697374616e6365000000000000000000000000000000000000000000000000006064820152608401610471565b6040517fbc3a86cf00000000000000000000000000000000000000000000000000000000815244600482015260609073__$227e4555c1f608352b26068e438454dd8b$__9063bc3a86cf906024015f60405180830381865af41580156122c8573d5f803e3d5ffd5b505050506040513d5f823e601f3d908101601f191682016040526122ef9190810190614f05565b90505f5b6006825f8151811061230757612307614dfd565b60200260200101516123199190614fab565b63ffffffff168110156123fd576123f484855184848151811061233e5761233e614dfd565b602002602001015163ffffffff166123569190614fcd565b8151811061236657612366614dfd565b60200260200101518b8b6040516024016123979392919092835261ffff918216602084015216604082015260600190565b60408051601f198184030181529190526020810180517bffffffffffffffffffffffffffffffffffffffffffffffffffffffff167f15bc424800000000000000000000000000000000000000000000000000000000179052612cc1565b506001016122f3565b50505050505050505050565b5f61027b612d6c565b60605f60605f612420612d6c565b9050306001600160a01b038216036124495761243d878787612daa565b935093509350506124d3565b6040517f419b58fd0000000000000000000000000000000000000000000000000000000081526001600160a01b0382169063419b58fd90612492908a908a908a90600401614fe0565b5f60405180830381865afa1580156124ac573d5f803e3d5ffd5b505050506040513d5f823e601f3d908101601f1916820160405261243d919081019061508b565b93509350939050565b602083015160228401515f91829160f091821c911c5b90969095509350505050565b60605f612509612d6c565b9050306001600160a01b0382160361252e57612526858585612eab565b9150506102e2565b6040517f1e7889770000000000000000000000000000000000000000000000000000000081526001600160a01b03821690631e78897790612577908890889088906004016150f3565b5f60405180830381865afa158015612591573d5f803e3d5ffd5b505050506040513d5f823e601f3d908101601f19168201604052612526919081019061511e565b509392505050565b5f818311806125cf5750835182115b1561260c578383836040517f23230fa30000000000000000000000000000000000000000000000000000000081526004016104719392919061517b565b6020840161261a8482614dea565b90505f6126278585614db1565b6fffffffffffffffffffffffffffffffff1660809290921b9190911795945050505050565b60605f6102e28360205f612ee4565b5f80612665612d6c565b9050306001600160a01b0382160361268b5761268386868686612f5c565b91505061111d565b6040517f8c364d590000000000000000000000000000000000000000000000000000000081526001600160a01b03821690638c364d59906126d690899089908990899060040161519f565b602060405180830381865afa1580156126f1573d5f803e3d5ffd5b505050506040513d601f19601f8201168201806040525081019061268391906151cd565b5f61271e612d6c565b9050306001600160a01b038216036127425761273d8686868686612f88565b61072a565b6040517f390baae00000000000000000000000000000000000000000000000000000000081526001600160a01b0382169063390baae09061278f90899089908990899089906004016151e4565b5f604051808303815f87803b1580156127a6575f80fd5b505af11580156123fd573d5f803e3d5ffd5b6127c28282612f9d565b610ee9576127cf82612ffa565b816040517fd787b73700000000000000000000000000000000000000000000000000000000815260040161047192919061522a565b5f61280d612d6c565b9050306001600160a01b038216036128325761282d878787878787613136565b610728565b6040517fc0a2895a0000000000000000000000000000000000000000000000000000000081526001600160a01b0382169063c0a2895a90612881908a908a908a908a908a908a90600401615254565b5f604051808303815f87803b158015612898575f80fd5b505af11580156128aa573d5f803e3d5ffd5b5050505050505050505050565b5f6128c0612d6c565b9050306001600160a01b038216036128e3576128de8585858561314e565b61295c565b6040517fd9c03a040000000000000000000000000000000000000000000000000000000081526001600160a01b0382169063d9c03a049061292e90889088908890889060040161519f565b5f604051808303815f87803b158015612945575f80fd5b505af1158015612957573d5f803e3d5ffd5b505050505b5050505050565b5f61296c612d6c565b9050306001600160a01b0382160361298b5761273d86868686866131a4565b6040517f298314fb0000000000000000000000000000000000000000000000000000000081526001600160a01b0382169063298314fb9061278f90899089908990899089906004016152a9565b612a2b604080516101408101909152805f81526020015f81526020015f81526020015f151581526020015f81526020015f81526020015f81526020015f1515815260200160608152602001606081525090565b612a34846131ba565b80151560e08a015260c0890182905260a089018390526080890184905284151560608a0152604089018690526020890187905288886002811115612a7a57612a7a6152f9565b6002811115612a8b57612a8b6152f9565b8152505050505050505050612aa08383613239565b6101208301526101008201529392505050565b6060816102e28160205f613282565b5f612acb612d6c565b9050306001600160a01b03821603612ae9576128de858585856132d4565b6040517fef6ea8620000000000000000000000000000000000000000000000000000000081526001600160a01b0382169063ef6ea8629061292e90889088908890889060040161530d565b5f612b3d612d6c565b9050306001600160a01b03821603612b5b576128de8585858561330c565b6040517f150f32620000000000000000000000000000000000000000000000000000000081526001600160a01b0382169063150f32629061292e90889088908890889060040161530d565b5f611086612bb48685613344565b612bbe8685613344565b613365565b6040805160018082528183019092525f9182919060208083019080368337019050509050825f1b815f81518110612bfc57612bfc614dfd565b60209081029190910101525f612c337f746255440000000000000000000000004d6f627342794c6576656c0000000000838361337b565b60209004949350505050565b6040805160018082528183019092526060915f919060208083019080368337019050509050825f1b815f81518110612c7957612c79614dfd565b60209081029190910101525f612cb07f746255440000000000000000000000004d6f627342794c6576656c000000000083836124fe565b905061111d611081825f84516125c0565b60605f80612cd6612cd185615340565b61342a565b91509150815f801b03612d3a576040517ffdde54e20000000000000000000000000000000000000000000000000000000081527fffffffff000000000000000000000000000000000000000000000000000000005f35166004820152602401610471565b6020840180517bffffffffffffffffffffffffffffffffffffffffffffffffffffffff168217905261111d82856134ea565b7f629a4c26e296b22a8e0856e9f6ecb2d1008d7e00081111962cd175fa7488e175545f906001600160a01b031680612da5573391505090565b919050565b60605f60605f612db9856135bd565b9050612dc68787836135df565b93505f612dd286613614565b90508015612ea057612de48888613650565b935066ffffffffffffff841667ffffffffffffffff811115612e0857612e08614c90565b6040519080825280601f01601f191660200182016040528015612e32576020820181803683370190505b509250602083015f5b828160ff161015612e9d575f612e528b8b84613662565b90505f612e6e888460ff166028026038011c64ffffffffff1690565b9050612e7c825f83876136e0565b612e868185614dea565b935050508080612e959061538f565b915050612e3b565b50505b505093509350939050565b606061111d612ebb858585613662565b5f612edf85612eca8989613650565b9060ff166028026038011c64ffffffffff1690565b6137a7565b60605f612ef18560801c90565b90506fffffffffffffffffffffffffffffffff85165f858281612f1657612f16614f97565b0490506040519350602084016020820281016040528185525f5b82811015612f50578451871c825293870193602090910190600101612f30565b50505050509392505050565b5f611086612f6a86866137ca565b60ff858116601b0360080285901c16612f83858761381f565b61384f565b61295c8585612f97848761381f565b8561389f565b5f612fea7f6e730000000000000000000000000000000000000000000000000000000000007dffffffffffffffffffffffffffff0000000000000000000000000000000085161783613b2a565b806102e257506102e28383613b2a565b606081601081901b5f61300c83613bef565b9050827fffffffffffffffffffffffffffff000000000000000000000000000000000000831615613067576130627fffffffffffffffffffffffffffff0000000000000000000000000000000000008416613c05565b61309e565b6040518060400160405280600681526020017f3c726f6f743e00000000000000000000000000000000000000000000000000008152505b7fffffffffffffffffffffffffffffffff000000000000000000000000000000008316156130d4576130cf83613c05565b61310b565b6040518060400160405280600681526020017f3c726f6f743e00000000000000000000000000000000000000000000000000008152505b60405160200161311d939291906153ad565b6040516020818303038152906040529350505050919050565b61072a8686868686866131498d8d613650565b613ca8565b5f6131598585613650565b90505f613175828560ff166028026038011c64ffffffffff1690565b905061072a86868661318e8764ffffffffff8716614db1565b604080515f815260208101909152889088613ca8565b61295c85858585856131b58b6140cd565b614150565b5f805f805f805f806131cf895f016020015190565b60f81c60028111156131e3576131e36152f9565b60218a015160418b015160618c0151929a509098509650613205905b60f81c90565b60628a015160828b015160a28c015160c28d01519398509196509450925061322c906131ff565b9050919395975091939597565b6060805f603885901c64ffffffffff166132576110818684846125c0565b935090508064ffffffffff606087901c16016132776110818684846125c0565b925050509250929050565b82516060905f613292858361543a565b9050604051925060208301601f19603f83860101166040528184525f602088015b84821015612f50578051871b835291870191600191909101906020016132b3565b5f6132df8585613650565b90505f6132fb828560ff166028026038011c64ffffffffff1690565b905061072a8686865f858888613ca8565b5f6133178585613650565b90505f613333828560ff166028026038011c64ffffffffff1690565b905061072a868686845f8888613ca8565b5f81831161335b576133568383614db1565b6102e2565b6102e28284614db1565b5f8183101561337457816102e2565b5090919050565b5f80613385612d6c565b9050306001600160a01b038216036133a257612526858585614472565b6040517fdbbf0e210000000000000000000000000000000000000000000000000000000081526001600160a01b0382169063dbbf0e21906133eb908890889088906004016150f3565b602060405180830381865afa158015613406573d5f803e3d5ffd5b505050506040513d601f19601f8201168201806040525081019061252691906151cd565b6040805160018082528183019092525f918291829160208083019080368337019050509050837bffffffffffffffffffffffffffffffffffffffffffffffffffffffff1916815f8151811061348157613481614dfd565b60209081029190910101525f80806134d97f7462776f726c6400000000000000000046756e6374696f6e53656c6563746f72857e24020020040000000000000000000000000000000000000000000000000000612412565b925092509250610fc9838383614481565b60605f6134f5612409565b90506001600160a01b0381163003613534575f61351b613513610ef6565b5f878761448c565b935090508061352d5761352d836145c3565b505061026c565b6040517f3ae7af080000000000000000000000000000000000000000000000000000000081526001600160a01b03821690633ae7af089061357b9087908790600401615451565b5f604051808303815f875af1158015613596573d5f803e3d5ffd5b505050506040513d5f823e601f3d908101601f1916820160405261111d919081019061511e565b5f60086135cc60026020614db1565b6135d6919061543a565b9190911c919050565b6060815f036135fc575060408051602081019091525f81526102e2565b5f61360785856137ca565b9050611086815f856137a7565b5f600860018061362660026020614db1565b6136309190614db1565b61363a9190614db1565b613644919061543a565b8260ff911c1692915050565b5f6102e261365e84846145cb565b5490565b5f8383604051602001613676929190615469565b604051602081830303815290604052805190602001208260f81b7effffffffffffffffffffffffffffffffffffffffffffffffffffffffffffff19167f3b4102da22e32d82fc925482184f16c09fd4281692720b87d124aef6da48a0f118185f1c90509392505050565b8215613764576020831061370a5760208304840193506020838161370657613706614f97565b0692505b82156137645760208390035f8184101561372b57505f19600884021c613734565b505f19600882021c5b8554600886021b818451168219821617845250818411613755575050610b37565b50600194909401939182900391015b5b602082106137865783548152600190930192601f1990910190602001613765565b8115610b37575f5f19600884021c8251865482191691161782525050505050565b60405160208101601f19603f84840101166040528282526125b8858585846136e0565b5f82826040516020016137de929190615469565b60408051601f1981840301815291905280516020909101207f86425bff6b57326c7859e89024fe4f238ca327a1ae4a230180dd2f0e88aaa7d9189392505050565b5f80805b8360ff168110156125b85761384560ff601b83900360080287901c1683614dea565b9150600101613823565b5f602082106138745760208204840193506020828161387057613870614f97565b0691505b508254600882021b6020829003808411156125b8576001850154600882021c82179150509392505050565b7f6f74000000000000000000000000000000000000000000000000000000000000847fffff000000000000000000000000000000000000000000000000000000000000160361392957837f8c0b5119d4cec7b284c6b1b39252a03d1e2f2d7451a5895562524c113bb952be84848460405161391c939291906154a3565b60405180910390a2610b37565b5f61393485856137ca565b90505f61394086614620565b90505f5b8151811015613a0e575f82828151811061396057613960614dfd565b6020026020010151905061398c6004826affffffffffffffffffffff19166146a590919063ffffffff16565b15613a05576040517f964f667d000000000000000000000000000000000000000000000000000000008152606082901c9063964f667d906139d7908b908b908b908b906004016154d5565b5f604051808303815f87803b1580156139ee575f80fd5b505af1158015613a00573d5f803e3d5ffd5b505050505b50600101613944565b50857f8c0b5119d4cec7b284c6b1b39252a03d1e2f2d7451a5895562524c113bb952be868686604051613a43939291906154a3565b60405180910390a2613a5e828565ffffffffffff16856146c2565b5f5b8151811015610728575f828281518110613a7c57613a7c614dfd565b60200260200101519050613aa86008826affffffffffffffffffffff19166146a590919063ffffffff16565b15613b21576040517fa8ba8721000000000000000000000000000000000000000000000000000000008152606082901c9063a8ba872190613af3908b908b908b908b906004016154d5565b5f604051808303815f87803b158015613b0a575f80fd5b505af1158015613b1c573d5f803e3d5ffd5b505050505b50600101613a60565b6040805160028082526060820183525f928392919060208301908036833701905050905083815f81518110613b6157613b61614dfd565b602002602001018181525050826001600160a01b03165f1b81600181518110613b8c57613b8c614dfd565b60209081029190910101525f613be37f7462776f726c640000000000000000005265736f75726365416363657373000083837e01010001000000000000000000000000000000000000000000000000000000612f5c565b90506110868160f81c90565b5f613bfc60706010614dea565b9190911b919050565b60605f5b6010811015613c69577fffffffffffffffffffffffffffffffff000000000000000000000000000000008316600882021b7fff000000000000000000000000000000000000000000000000000000000000001615613c6957600101613c09565b604080517fffffffffffffffffffffffffffffffff0000000000000000000000000000000085166020820152815160309091019091528181528061111d565b7f7462000000000000000000000000000000000000000000000000000000000000877fffff0000000000000000000000000000000000000000000000000000000000001614613d68577f74620000000000000000000000000000000000000000000000000000000000008788604051602001613d2691815260200190565b60408051601f19818403018152908290527f31b4668300000000000000000000000000000000000000000000000000000000825261047193929160040161550d565b5f613d82828760ff166028026038011c64ffffffffff1690565b90505f83518564ffffffffff1683613d9a9190614db1565b613da49190614dea565b9050808214158015613dc6575081613dbc868861554d565b64ffffffffff1614155b15613e16576040517fa65010b400000000000000000000000000000000000000000000000000000000815264ffffffffff8088166004830152808716602483015283166044820152606401610471565b818664ffffffffff161115613e67576040517f7e8578d30000000000000000000000000000000000000000000000000000000081526004810183905264ffffffffff87166024820152604401610471565b5f613e738489846146d8565b90505f613e7f8b614620565b90505f5b8151811015613f43575f828281518110613e9f57613e9f614dfd565b60200260200101519050613ecb6010826affffffffffffffffffffff19166146a590919063ffffffff16565b15613f3a57606081901c6001600160a01b03166355eb5a288e8e8e8e8e8d8f6040518863ffffffff1660e01b8152600401613f0c979695949392919061556b565b5f604051808303815f87803b158015613f23575f80fd5b505af1158015613f35573d5f803e3d5ffd5b505050505b50600101613e83565b5064ffffffffff88165f5b8a60ff168160ff161015613f8157613f75878260ff166028026038011c64ffffffffff1690565b90910190600101613f4e565b508b7ffe158a7adba34e256807c8a149028d3162918713c3838afc643ce9f96716ebfd8c8c848c888d604051613fbc969594939291906155c8565b60405180910390a250828414613fdc575f613fd78c8c6145cb565b839055505b5f613fe88c8c8c613662565b9050613ffc818a64ffffffffff16896146c2565b505f5b81518110156140bf575f82828151811061401b5761401b614dfd565b602002602001015190506140476020826affffffffffffffffffffff19166146a590919063ffffffff16565b156140b657606081901c6001600160a01b031663635845338e8e8e8e8e8a8f6040518863ffffffff1660e01b8152600401614088979695949392919061556b565b5f604051808303815f87803b15801561409f575f80fd5b505af11580156140b1573d5f803e3d5ffd5b505050505b50600101613fff565b505050505050505050505050565b5f7f8b9d8c8b908d9affffffffffffffffffab9e9d939a8d00000000000000000000820161411b57507e60030220202000000000000000000000000000000000000000000000000000919050565b61026c6141487f746273746f72650000000000000000005461626c657300000000000000000000846147a5565b60205f61384f565b7f6f74000000000000000000000000000000000000000000000000000000000000867fffff00000000000000000000000000000000000000000000000000000000000016036141dc57857f8dbb3a9672eebfd3773e72dd9c102393436816d832c7ba9e1e1ac8fcadcac7a9868686866040516141cf9493929190615616565b60405180910390a261072a565b5f6141e687614620565b90505f5b81518110156142b8575f82828151811061420657614206614dfd565b602002602001015190506142326001826affffffffffffffffffffff19166146a590919063ffffffff16565b156142af576040517f57066c9c000000000000000000000000000000000000000000000000000000008152606082901c906357066c9c90614281908c908c908c908c908c908c90600401615654565b5f604051808303815f87803b158015614298575f80fd5b505af11580156142aa573d5f803e3d5ffd5b505050505b506001016141ea565b50867f8dbb3a9672eebfd3773e72dd9c102393436816d832c7ba9e1e1ac8fcadcac7a9878787876040516142ef9493929190615616565b60405180910390a25f61430288886137ca565b90505f602087019050614318825f8951846147c0565b5f61432285613614565b11156143a2575f6143338a8a6145cb565b87815590506020860191505f805f5b61434b88613614565b8160ff16101561439d576143608d8d83613662565b925061437b8a8260ff166028026038011c64ffffffffff1690565b9150614389835f84886147c0565b6143938286614dea565b9450600101614342565b505050505b5f5b83518110156123fd575f8482815181106143c0576143c0614dfd565b602002602001015190506143ec6002826affffffffffffffffffffff19166146a590919063ffffffff16565b15614469576040517f5b28cdaf000000000000000000000000000000000000000000000000000000008152606082901c90635b28cdaf9061443b908e908e908e908e908e908e90600401615654565b5f604051808303815f87803b158015614452575f80fd5b505af1158015614464573d5f803e3d5ffd5b505050505b506001016143a4565b5f61111d82612eca8686613650565b5f806124f28561487b565b5f60605f8061449a8661488f565b90925090506001600160a01b0382166144eb57856144b787612ffa565b6040517ffbf10ce6000000000000000000000000000000000000000000000000000000008152600401610471929190615451565b806144fa576144fa86896127b8565b8615614565577dffffffffffffffffffffffffffff0000000000000000000000000000000086167f6e73000000000000000000000000000000000000000000000000000000000000175f61454d82614930565b90506145628261455d8b84614dea565b6149a6565b50505b5f6145708760101b90565b7fffffffffffffffffffffffffffff00000000000000000000000000000000000016146145a8576145a388888488614a3e565b6145b4565b6145b488888488614ab1565b90999098509650505050505050565b805160208201fd5b5f82826040516020016145df929190615469565b60408051601f1981840301815291905280516020909101207f14e2fcc58e58e68ec7edc30c8d50dccc3ce2714a623ec81f46b6a63922d76569189392505050565b6040805160018082528183019092526060915f91906020808301908036833701905050905082815f8151811061465857614658614dfd565b60209081029190910101525f61468f7f746273746f726500000000000000000053746f7265486f6f6b730000000000008383612eab565b905061111d6146a0825f84516125c0565b614b0e565b5f8160ff16826146b58560581c90565b1660ff1614905092915050565b6114f3838383516146d38560200190565b6147c0565b5f64ffffffffff82111561471b576040517f7149a3c100000000000000000000000000000000000000000000000000000000815260048101839052602401610471565b8366ffffffffffffff811660ff851660280260380182901c64ffffffffff1680851061474d5780850382019150614755565b848103820391505b5064ffffffffff6038602860ff8816020181811b197fffffffffffffffffffffffffffffffffffffffffffffffffff000000000000009490941690921792909216918416901b1790509392505050565b60408051602081018490529081018290525f906060016137de565b821561483857602083106147ea576020830484019350602083816147e6576147e6614f97565b0692505b82156148385760208390035f5f19600885021c1990506008850281811c91508351811c9050811987541682821617875550818411614829575050610b37565b50600194909401939182900391015b5b6020821061485a5780518455600190930192601f1990910190602001614839565b8115610b37575f5f19600884021c8554835182191691161785555050505050565b602081015160408201515f905b9050915091565b6040805160018082528183019092525f91829182916020808301908036833701905050905083815f815181106148c7576148c7614dfd565b60209081029190910101525f808061491f7f7462776f726c6400000000000000000053797374656d73000000000000000000857e15020014010000000000000000000000000000000000000000000000000000612daa565b925092509250610fc9838383614b1d565b6040805160018082528183019092525f918291906020808301908036833701905050905082815f8151811061496757614967614dfd565b60209081029190910101525f61111d7f7462776f726c6400000000000000000042616c616e63657300000000000000008383630100080160dd1b612f5c565b6040805160018082528183019092525f916020808301908036833701905050905082815f815181106149da576149da614dfd565b6020026020010181815250506114f37f7462776f726c6400000000000000000042616c616e63657300000000000000005f1b825f85604051602001614a2191815260200190565b60408051601f19818403018152919052630100080160dd1b612f88565b5f6060836001600160a01b03165f614a57858989614b28565b604051614a6491906156ac565b5f6040518083038185875af1925050503d805f8114614a9e576040519150601f19603f3d011682016040523d82523d5f602084013e614aa3565b606091505b509097909650945050505050565b5f6060836001600160a01b0316614ac9848888614b28565b604051614ad691906156ac565b5f60405180830381855af49150503d805f8114614a9e576040519150601f19603f3d011682016040523d82523d5f602084013e614aa3565b60605f6102e28360155f612ee4565b5f806124f285614b57565b6060838383604051602001614b3f939291906156c7565b60405160208183030381529060405290509392505050565b6020810151603482015160609190911c905f90614888906131ff565b5f60208284031215614b83575f80fd5b81357fffffffff00000000000000000000000000000000000000000000000000000000811681146102e2575f80fd5b803561ffff81168114612da5575f80fd5b5f805f60608486031215614bd5575f80fd5b83359250614be560208501614bb2565b9150614bf360408501614bb2565b90509250925092565b5f60208284031215614c0c575f80fd5b5035919050565b5f8060408385031215614c24575f80fd5b614c2d83614bb2565b9150614c3b60208401614bb2565b90509250929050565b5f815180845260208085019450602084015f5b83811015614c7357815187529582019590820190600101614c57565b509495945050505050565b602081525f6102e26020830184614c44565b634e487b7160e01b5f52604160045260245ffd5b604051601f8201601f1916810167ffffffffffffffff81118282101715614ccd57614ccd614c90565b604052919050565b5f67ffffffffffffffff821115614cee57614cee614c90565b5060051b60200190565b5f6020808385031215614d09575f80fd5b823567ffffffffffffffff811115614d1f575f80fd5b8301601f81018513614d2f575f80fd5b8035614d42614d3d82614cd5565b614ca4565b81815260059190911b82018301908381019087831115614d60575f80fd5b928401925b82841015611f2957833582529284019290840190614d65565b5f60208284031215614d8e575f80fd5b815180151581146102e2575f80fd5b634e487b7160e01b5f52601160045260245ffd5b8181038181111561026c5761026c614d9d565b80516020808301519190811015614de4575f198160200360031b1b821691505b50919050565b8082018082111561026c5761026c614d9d565b634e487b7160e01b5f52603260045260245ffd5b5f5f198203614e2257614e22614d9d565b5060010190565b8082018281125f831280158216821582161715614e4857614e48614d9d565b505092915050565b5f60c08284031215614e60575f80fd5b60405160c0810181811067ffffffffffffffff82111715614e8357614e83614c90565b8060405250825181526020830151602082015260408301516040820152606083015160608201526080830151608082015260a083015160a08201528091505092915050565b61ffff828116828216039080821115614ee357614ee3614d9d565b5092915050565b61ffff818116838216019080821115614ee357614ee3614d9d565b5f6020808385031215614f16575f80fd5b825167ffffffffffffffff811115614f2c575f80fd5b8301601f81018513614f3c575f80fd5b8051614f4a614d3d82614cd5565b81815260059190911b82018301908381019087831115614f68575f80fd5b928401925b82841015611f2957835163ffffffff81168114614f88575f80fd5b82529284019290840190614f6d565b634e487b7160e01b5f52601260045260245ffd5b5f63ffffffff80841680614fc157614fc1614f97565b92169190910692915050565b5f82614fdb57614fdb614f97565b500690565b838152606060208201525f614ff86060830185614c44565b9050826040830152949350505050565b5f5b8381101561502257818101518382015260200161500a565b50505f910152565b5f82601f830112615039575f80fd5b815167ffffffffffffffff81111561505357615053614c90565b6150666020601f19601f84011601614ca4565b81815284602083860101111561507a575f80fd5b61111d826020830160208701615008565b5f805f6060848603121561509d575f80fd5b835167ffffffffffffffff808211156150b4575f80fd5b6150c08783880161502a565b94506020860151935060408601519150808211156150dc575f80fd5b506150e98682870161502a565b9150509250925092565b838152606060208201525f61510b6060830185614c44565b905060ff83166040830152949350505050565b5f6020828403121561512e575f80fd5b815167ffffffffffffffff811115615144575f80fd5b61111d8482850161502a565b5f8151808452615167816020860160208601615008565b601f01601f19169290920160200192915050565b606081525f61518d6060830186615150565b60208301949094525060400152919050565b848152608060208201525f6151b76080830186614c44565b60ff949094166040830152506060015292915050565b5f602082840312156151dd575f80fd5b5051919050565b85815260a060208201525f6151fc60a0830187614c44565b60ff8616604084015282810360608401526152178186615150565b9150508260808301529695505050505050565b604081525f61523c6040830185615150565b90506001600160a01b03831660208301529392505050565b86815260c060208201525f61526c60c0830188614c44565b60ff8716604084015264ffffffffff86811660608501528516608084015282810360a084015261529c8185615150565b9998505050505050505050565b85815260a060208201525f6152c160a0830187614c44565b82810360408401526152d38187615150565b905084606084015282810360808401526152ed8185615150565b98975050505050505050565b634e487b7160e01b5f52602160045260245ffd5b848152608060208201525f6153256080830186614c44565b60ff851660408401528281036060840152611f298185615150565b5f815160208301517fffffffff00000000000000000000000000000000000000000000000000000000808216935060048310156153875780818460040360031b1b83161693505b505050919050565b5f60ff821660ff81036153a4576153a4614d9d565b60010192915050565b7fffff000000000000000000000000000000000000000000000000000000000000841681525f7f3a00000000000000000000000000000000000000000000000000000000000000806002840152845161540d816003860160208901615008565b80840190508160038201528451915061542d826004830160208801615008565b0160040195945050505050565b808202811582820484141761026c5761026c614d9d565b828152604060208201525f61111d6040830184615150565b8281525f60208083018451602086015f5b828110156154965781518452928401929084019060010161547a565b5091979650505050505050565b606081525f6154b56060830186614c44565b65ffffffffffff85166020840152828103604084015261175a8185615150565b848152608060208201525f6154ed6080830186614c44565b65ffffffffffff851660408401528281036060840152611f298185615150565b7fffff00000000000000000000000000000000000000000000000000000000000084168152826020820152606060408201525f6110866060830184615150565b64ffffffffff818116838216019080821115614ee357614ee3614d9d565b87815260e060208201525f61558360e0830189614c44565b60ff8816604084015264ffffffffff87811660608501528616608084015260a0830185905282810360c08401526155ba8185615150565b9a9950505050505050505050565b60c081525f6155da60c0830189614c44565b60ff8816602084015265ffffffffffff8716604084015264ffffffffff8616606084015284608084015282810360a084015261529c8185615150565b608081525f6156286080830187614c44565b828103602084015261563a8187615150565b90508460408401528281036060840152611f298185615150565b86815260c060208201525f61566c60c0830188614c44565b828103604084015261567e8188615150565b905085606084015282810360808401526156988186615150565b9150508260a0830152979650505050505050565b5f82516156bd818460208701615008565b9190910192915050565b5f84516156d8818460208901615008565b60609490941b7fffffffffffffffffffffffffffffffffffffffff000000000000000000000000169190930190815260148101919091526034019291505056fea264697066735822122055c4bc7e844c4ab7615ab838911c475e1346c5c70d992e5f6ff002f54fa672e364736f6c63430008180033","linkReferences":{"src/libraries/LibChunks.sol":{"LibChunks":[{"start":8879,"length":20}]}}},"methodIdentifiers":{"_msgSender()":"119df25f","_msgValue()":"45ec9354","_world()":"e1af802c","getEntitiesAtPosition(uint16,uint16)":"69e10c7b","getEntityPosition(bytes32)":"50c4bd84","isAtPosition(bytes32,uint16,uint16)":"3fbf0c5a","move(bytes32,uint16,uint16)":"953717d1","removeEntitiesFromBoard(bytes32[])":"e03beb83","removeEntityFromBoard(bytes32)":"8181bc57","spawn(bytes32)":"911c37ae","supportsInterface(bytes4)":"01ffc9a7"},"id":218}