{
    "abi": [
        {
            "type": "function",
            "name": "_msgSender",
            "inputs": [],
            "outputs": [
                {
                    "name": "sender",
                    "type": "address",
                    "internalType": "address"
                }
            ],
            "stateMutability": "view"
        },
        {
            "type": "function",
            "name": "_msgValue",
            "inputs": [],
            "outputs": [
                {
                    "name": "value",
                    "type": "uint256",
                    "internalType": "uint256"
                }
            ],
            "stateMutability": "pure"
        },
        {
            "type": "function",
            "name": "_world",
            "inputs": [],
            "outputs": [
                {
                    "name": "",
                    "type": "address",
                    "internalType": "address"
                }
            ],
            "stateMutability": "view"
        },
        {
            "type": "function",
            "name": "move",
            "inputs": [
                {
                    "name": "entityId",
                    "type": "bytes32",
                    "internalType": "bytes32"
                },
                {
                    "name": "x",
                    "type": "uint16",
                    "internalType": "uint16"
                },
                {
                    "name": "y",
                    "type": "uint16",
                    "internalType": "uint16"
                }
            ],
            "outputs": [],
            "stateMutability": "nonpayable"
        },
        {
            "type": "function",
            "name": "spawn",
            "inputs": [
                {
                    "name": "entityId",
                    "type": "bytes32",
                    "internalType": "bytes32"
                }
            ],
            "outputs": [],
            "stateMutability": "nonpayable"
        },
        {
            "type": "function",
            "name": "supportsInterface",
            "inputs": [
                {
                    "name": "interfaceId",
                    "type": "bytes4",
                    "internalType": "bytes4"
                }
            ],
            "outputs": [
                {
                    "name": "",
                    "type": "bool",
                    "internalType": "bool"
                }
            ],
            "stateMutability": "pure"
        },
        {
            "type": "event",
            "name": "Store_SetRecord",
            "inputs": [
                {
                    "name": "tableId",
                    "type": "bytes32",
                    "indexed": true,
                    "internalType": "ResourceId"
                },
                {
                    "name": "keyTuple",
                    "type": "bytes32[]",
                    "indexed": false,
                    "internalType": "bytes32[]"
                },
                {
                    "name": "staticData",
                    "type": "bytes",
                    "indexed": false,
                    "internalType": "bytes"
                },
                {
                    "name": "encodedLengths",
                    "type": "bytes32",
                    "indexed": false,
                    "internalType": "EncodedLengths"
                },
                {
                    "name": "dynamicData",
                    "type": "bytes",
                    "indexed": false,
                    "internalType": "bytes"
                }
            ],
            "anonymous": false
        },
        {
            "type": "event",
            "name": "Store_SpliceStaticData",
            "inputs": [
                {
                    "name": "tableId",
                    "type": "bytes32",
                    "indexed": true,
                    "internalType": "ResourceId"
                },
                {
                    "name": "keyTuple",
                    "type": "bytes32[]",
                    "indexed": false,
                    "internalType": "bytes32[]"
                },
                {
                    "name": "start",
                    "type": "uint48",
                    "indexed": false,
                    "internalType": "uint48"
                },
                {
                    "name": "data",
                    "type": "bytes",
                    "indexed": false,
                    "internalType": "bytes"
                }
            ],
            "anonymous": false
        },
        {
            "type": "error",
            "name": "Slice_OutOfBounds",
            "inputs": [
                {
                    "name": "data",
                    "type": "bytes",
                    "internalType": "bytes"
                },
                {
                    "name": "start",
                    "type": "uint256",
                    "internalType": "uint256"
                },
                {
                    "name": "end",
                    "type": "uint256",
                    "internalType": "uint256"
                }
            ]
        }
    ],
    "bytecode": {
        "object": "0x608060405234801561001057600080fd5b50612061806100206000396000f3fe608060405234801561001057600080fd5b50600436106100725760003560e01c8063911c37ae11610050578063911c37ae146100d2578063953717d1146100e7578063e1af802c146100fa57600080fd5b806301ffc9a714610077578063119df25f1461009f57806345ec9354146100bf575b600080fd5b61008a610085366004611aa2565b610102565b60405190151581526020015b60405180910390f35b6100a761019b565b6040516001600160a01b039091168152602001610096565b604051601f193601358152602001610096565b6100e56100e0366004611ae4565b6101aa565b005b6100e56100f5366004611b0f565b6102ba565b6100a76104eb565b60007fffffffff0000000000000000000000000000000000000000000000000000000082167fb5dee12700000000000000000000000000000000000000000000000000000000148061019557507fffffffff0000000000000000000000000000000000000000000000000000000082167f01ffc9a700000000000000000000000000000000000000000000000000000000145b92915050565b60006101a56104f5565b905090565b60006101b582610527565b9050806001600160a01b03166101c961019b565b6001600160a01b0316146102495760405162461bcd60e51b8152602060048201526024808201527f4f6e6c7920746865206f776e65722063616e20737061776e206120636861726160448201527f637465720000000000000000000000000000000000000000000000000000000060648201526084015b60405180910390fd5b610252826105c3565b1561029f5760405162461bcd60e51b815260206004820152601960248201527f43686172616374657220616c726561647920737061776e6564000000000000006044820152606401610240565b6102ab82600080610668565b6102b6826001610730565b5050565b60006102c584610527565b9050806001600160a01b03166102d961019b565b6001600160a01b0316146103555760405162461bcd60e51b815260206004820152602360248201527f4f6e6c7920746865206f776e65722063616e206d6f766520612063686172616360448201527f74657200000000000000000000000000000000000000000000000000000000006064820152608401610240565b61035e846105c3565b6103aa5760405162461bcd60e51b815260206004820152601560248201527f436861726163746572206e6f7420737061776e656400000000000000000000006044820152606401610240565b6000806103b6866107ee565b915091506000806103c56108a1565b915091508061ffff168761ffff16106104205760405162461bcd60e51b815260206004820152600f60248201527f58206f7574206f6620626f756e647300000000000000000000000000000000006044820152606401610240565b8161ffff168661ffff16106104775760405162461bcd60e51b815260206004820152600f60248201527f59206f7574206f6620626f756e647300000000000000000000000000000000006044820152606401610240565b61048384848989610920565b61ffff166001146104d65760405162461bcd60e51b815260206004820152601e60248201527f43616e206f6e6c79206d6f766520312074696c6520617420612074696d6500006044820152606401610240565b6104e1888888610668565b5050505050505050565b60006101a561098e565b7fffffffffffffffffffffffffffffffffffffffffffffffffffffffffffffffcc36013560601c806105245750335b90565b60408051600180825281830190925260009182919060208083019080368337019050509050828160008151811061056057610560611b61565b602090810291909101015260006105b87f746255440000000000000000000000004368617261637465727300000000000083837e36040014012001000000000000000000000000000000000000000000000000610998565b60601c949350505050565b6040805160018082528183019092526000918291906020808301908036833701905050905082816000815181106105fc576105fc611b61565b602090810291909101015260006106547f74625544000000000000000000000000537061776e656400000000000000000083837e01010001000000000000000000000000000000000000000000000000000000610998565b90506106608160f81c90565b949350505050565b6040805160f084811b7fffff0000000000000000000000000000000000000000000000000000000000009081166020808501919091529185901b16602283015282516004818403018152600160248401818152606485019095529093600093606093859391604401908036833701905050905086816000815181106106ef576106ef611b61565b60209081029190910101526107277f74625544000000000000000000000000506f736974696f6e000000000000000082868686610a55565b50505050505050565b60408051600180825281830190925260009160208083019080368337019050509050828160008151811061076657610766611b61565b6020026020010181815250506107e97f74625544000000000000000000000000537061776e656400000000000000000060001b826000856040516020016107b491151560f81b815260010190565b60408051601f198184030181529190527e01010001000000000000000000000000000000000000000000000000000000610b0b565b505050565b6040805160018082528183019092526000918291829160208083019080368337019050509050838160008151811061082857610828611b61565b6020908102919091010152600080806108817f74625544000000000000000000000000506f736974696f6e0000000000000000857e04020002020000000000000000000000000000000000000000000000000000610b81565b5050602081015160229091015160f091821c99911c975095505050505050565b604080516000808252602082019092528190600080806109017f746255440000000000000000000000004d6170436f6e66696700000000000000857e04020002020000000000000000000000000000000000000000000000000000610b81565b5050602081015160229091015160f091821c98911c9650945050505050565b6000808361ffff168661ffff16116109415761093c8685611b8d565b61094b565b61094b8487611b8d565b905060008361ffff168661ffff161161096d576109688685611b8d565b610977565b6109778487611b8d565b90506109838183611baf565b979650505050505050565b60006101a5610c51565b6000806109a3610c51565b9050306001600160a01b038216036109c9576109c186868686610c90565b915050610660565b6040517f8c364d590000000000000000000000000000000000000000000000000000000081526001600160a01b03821690638c364d5990610a14908990899089908990600401611c06565b602060405180830381865afa158015610a31573d6000803e3d6000fd5b505050506040513d601f19601f820116820180604052508101906109c19190611c35565b6000610a5f610c51565b9050306001600160a01b03821603610a8357610a7e8686868686610cc6565b610b03565b6040517f298314fb0000000000000000000000000000000000000000000000000000000081526001600160a01b0382169063298314fb90610ad09089908990899089908990600401611c9e565b600060405180830381600087803b158015610aea57600080fd5b505af1158015610afe573d6000803e3d6000fd5b505050505b505050505050565b6000610b15610c51565b9050306001600160a01b03821603610b3457610a7e8686868686610ce3565b6040517f390baae00000000000000000000000000000000000000000000000000000000081526001600160a01b0382169063390baae090610ad09089908990899089908990600401611cef565b6060600060606000610b91610c51565b9050306001600160a01b03821603610bba57610bae878787610cf8565b93509350935050610c48565b6040517f419b58fd0000000000000000000000000000000000000000000000000000000081526001600160a01b0382169063419b58fd90610c03908a908a908a90600401611d36565b600060405180830381865afa158015610c20573d6000803e3d6000fd5b505050506040513d6000823e601f3d908101601f19168201604052610bae9190810190611de7565b93509350939050565b7f629a4c26e296b22a8e0856e9f6ecb2d1008d7e00081111962cd175fa7488e175546000906001600160a01b031680610c8b573391505090565b919050565b6000610cbd610c9f8686610e00565b60ff858116601b0360080285901c16610cb88587610e56565b610e8f565b95945050505050565b610cdc8585858585610cd78b610ee0565b610f65565b5050505050565b610cdc8585610cf28487610e56565b8561129e565b6060600060606000610d098561153f565b9050610d16878783611562565b93506000610d23866115a6565b90508015610df557610d3588886115e3565b935066ffffffffffffff841667ffffffffffffffff811115610d5957610d59611b4b565b6040519080825280601f01601f191660200182016040528015610d83576020820181803683370190505b5092506020830160005b828160ff161015610df2576000610da58b8b846115f6565b90506000610dc2888460ff166028026038011c64ffffffffff1690565b9050610dd18260008387611676565b610ddb8185611e54565b935050508080610dea90611e67565b915050610d8d565b50505b505093509350939050565b60008282604051602001610e15929190611e86565b60408051601f1981840301815291905280516020909101207f86425bff6b57326c7859e89024fe4f238ca327a1ae4a230180dd2f0e88aaa7d9189392505050565b600080805b8360ff16811015610e8757610e7d60ff601b83900360080287901c1683611e54565b9150600101610e5b565b509392505050565b600060208210610eb557602082048401935060208281610eb157610eb1611ec2565b0691505b508254600882021b602082900380841115610e87576001850154600882021c82179150509392505050565b60007f8b9d8c8b908d9affffffffffffffffffab9e9d939a8d000000000000000000008201610f2f57507e60030220202000000000000000000000000000000000000000000000000000919050565b610195610f5c7f746273746f72650000000000000000005461626c65730000000000000000000084611742565b60206000610e8f565b7f6f74000000000000000000000000000000000000000000000000000000000000867fffff0000000000000000000000000000000000000000000000000000000000001603610ff157857f8dbb3a9672eebfd3773e72dd9c102393436816d832c7ba9e1e1ac8fcadcac7a986868686604051610fe49493929190611ed8565b60405180910390a2610b03565b6000610ffc8761175e565b905060005b81518110156110d557600082828151811061101e5761101e611b61565b6020026020010151905061104a6001826affffffffffffffffffffff19166117e790919063ffffffff16565b156110cc576040517f57066c9c000000000000000000000000000000000000000000000000000000008152606082901c906357066c9c90611099908c908c908c908c908c908c90600401611f17565b600060405180830381600087803b1580156110b357600080fd5b505af11580156110c7573d6000803e3d6000fd5b505050505b50600101611001565b50867f8dbb3a9672eebfd3773e72dd9c102393436816d832c7ba9e1e1ac8fcadcac7a98787878760405161110c9493929190611ed8565b60405180910390a260006111208888610e00565b90506000602087019050611138826000895184611805565b6000611143856115a6565b11156111c75760006111558a8a6118c4565b878155905060208601915060008060005b61116f886115a6565b8160ff1610156111c2576111848d8d836115f6565b925061119f8a8260ff166028026038011c64ffffffffff1690565b91506111ae8360008488611805565b6111b88286611e54565b9450600101611166565b505050505b60005b8351811015610afe5760008482815181106111e7576111e7611b61565b602002602001015190506112136002826affffffffffffffffffffff19166117e790919063ffffffff16565b15611295576040517f5b28cdaf000000000000000000000000000000000000000000000000000000008152606082901c90635b28cdaf90611262908e908e908e908e908e908e90600401611f17565b600060405180830381600087803b15801561127c57600080fd5b505af1158015611290573d6000803e3d6000fd5b505050505b506001016111ca565b7f6f74000000000000000000000000000000000000000000000000000000000000847fffff000000000000000000000000000000000000000000000000000000000000160361132857837f8c0b5119d4cec7b284c6b1b39252a03d1e2f2d7451a5895562524c113bb952be84848460405161131b93929190611f70565b60405180910390a2611539565b60006113348585610e00565b905060006113418661175e565b905060005b815181101561141657600082828151811061136357611363611b61565b6020026020010151905061138f6004826affffffffffffffffffffff19166117e790919063ffffffff16565b1561140d576040517f964f667d000000000000000000000000000000000000000000000000000000008152606082901c9063964f667d906113da908b908b908b908b90600401611fa3565b600060405180830381600087803b1580156113f457600080fd5b505af1158015611408573d6000803e3d6000fd5b505050505b50600101611346565b50857f8c0b5119d4cec7b284c6b1b39252a03d1e2f2d7451a5895562524c113bb952be86868660405161144b93929190611f70565b60405180910390a2611466828565ffffffffffff168561191a565b60005b815181101561072757600082828151811061148657611486611b61565b602002602001015190506114b26008826affffffffffffffffffffff19166117e790919063ffffffff16565b15611530576040517fa8ba8721000000000000000000000000000000000000000000000000000000008152606082901c9063a8ba8721906114fd908b908b908b908b90600401611fa3565b600060405180830381600087803b15801561151757600080fd5b505af115801561152b573d6000803e3d6000fd5b505050505b50600101611469565b50505050565b6000600861154f60026020611fdc565b6115599190611fef565b9190911c919050565b606081600003611581575060408051602081019091526000815261159f565b600061158d8585610e00565b905061159b81600085611930565b9150505b9392505050565b600060086001806115b960026020611fdc565b6115c39190611fdc565b6115cd9190611fdc565b6115d79190611fef565b8260ff911c1692915050565b600061159f6115f284846118c4565b5490565b6000838360405160200161160b929190611e86565b604051602081830303815290604052805190602001208260f81b7effffffffffffffffffffffffffffffffffffffffffffffffffffffffffffff19167f3b4102da22e32d82fc925482184f16c09fd4281692720b87d124aef6da48a0f1181860001c90509392505050565b82156116fd57602083106116a05760208304840193506020838161169c5761169c611ec2565b0692505b82156116fd5760208390036000818410156116c35750600019600884021c6116cd565b50600019600882021c5b8554600886021b8184511682198216178452508184116116ee575050611539565b50600194909401939182900391015b5b6020821061171f5783548152600190930192601f19909101906020016116fe565b8115611539576000600019600884021c8251865482191691161782525050505050565b6040805160208101849052908101829052600090606001610e15565b6040805160018082528183019092526060916000919060208083019080368337019050509050828160008151811061179857611798611b61565b602090810291909101015260006117d07f746273746f726500000000000000000053746f7265486f6f6b730000000000008383611953565b90506106606117e2826000845161198d565b611a1b565b60008160ff16826117f88560581c90565b1660ff1614905092915050565b821561187f576020831061182f5760208304840193506020838161182b5761182b611ec2565b0692505b821561187f5760208390036000600019600885021c1990506008850281811c91508351811c9050811987541682821617875550818411611870575050611539565b50600194909401939182900391015b5b602082106118a15780518455600190930192601f1990910190602001611880565b8115611539576000600019600884021c8554835182191691161785555050505050565b600082826040516020016118d9929190611e86565b60408051601f1981840301815291905280516020909101207f14e2fcc58e58e68ec7edc30c8d50dccc3ce2714a623ec81f46b6a63922d76569189392505050565b6107e98383835161192b8560200190565b611805565b60405160208101601f19603f8484010116604052828252610e8785858584611676565b60606106606119638585856115f6565b60006119888561197389896115e3565b9060ff166028026038011c64ffffffffff1690565b611930565b60008183118061199d5750835182115b156119da578383836040517f23230fa300000000000000000000000000000000000000000000000000000000815260040161024093929190612006565b602084016119e88482611e54565b905060006119f68585611fdc565b6fffffffffffffffffffffffffffffffff1660809290921b9190911795945050505050565b6060600061159f836015600060606000611a358560801c90565b90506fffffffffffffffffffffffffffffffff85166000858281611a5b57611a5b611ec2565b04905060405193506020840160208202810160405281855260005b82811015611a96578451871c825293870193602090910190600101611a76565b50505050509392505050565b600060208284031215611ab457600080fd5b81357fffffffff000000000000000000000000000000000000000000000000000000008116811461159f57600080fd5b600060208284031215611af657600080fd5b5035919050565b803561ffff81168114610c8b57600080fd5b600080600060608486031215611b2457600080fd5b83359250611b3460208501611afd565b9150611b4260408501611afd565b90509250925092565b634e487b7160e01b600052604160045260246000fd5b634e487b7160e01b600052603260045260246000fd5b634e487b7160e01b600052601160045260246000fd5b61ffff828116828216039080821115611ba857611ba8611b77565b5092915050565b61ffff818116838216019080821115611ba857611ba8611b77565b60008151808452602080850194506020840160005b83811015611bfb57815187529582019590820190600101611bdf565b509495945050505050565b848152608060208201526000611c1f6080830186611bca565b60ff949094166040830152506060015292915050565b600060208284031215611c4757600080fd5b5051919050565b60005b83811015611c69578181015183820152602001611c51565b50506000910152565b60008151808452611c8a816020860160208601611c4e565b601f01601f19169290920160200192915050565b85815260a060208201526000611cb760a0830187611bca565b8281036040840152611cc98187611c72565b90508460608401528281036080840152611ce38185611c72565b98975050505050505050565b85815260a060208201526000611d0860a0830187611bca565b60ff861660408401528281036060840152611d238186611c72565b9150508260808301529695505050505050565b838152606060208201526000611d4f6060830185611bca565b9050826040830152949350505050565b600082601f830112611d7057600080fd5b815167ffffffffffffffff80821115611d8b57611d8b611b4b565b604051601f8301601f19908116603f01168101908282118183101715611db357611db3611b4b565b81604052838152866020858801011115611dcc57600080fd5b611ddd846020830160208901611c4e565b9695505050505050565b600080600060608486031215611dfc57600080fd5b835167ffffffffffffffff80821115611e1457600080fd5b611e2087838801611d5f565b9450602086015193506040860151915080821115611e3d57600080fd5b50611e4a86828701611d5f565b9150509250925092565b8082018082111561019557610195611b77565b600060ff821660ff8103611e7d57611e7d611b77565b60010192915050565b8281526000602080830184516020860160005b82811015611eb557815184529284019290840190600101611e99565b5091979650505050505050565b634e487b7160e01b600052601260045260246000fd5b608081526000611eeb6080830187611bca565b8281036020840152611efd8187611c72565b905084604084015282810360608401526109838185611c72565b86815260c060208201526000611f3060c0830188611bca565b8281036040840152611f428188611c72565b90508560608401528281036080840152611f5c8186611c72565b9150508260a0830152979650505050505050565b606081526000611f836060830186611bca565b65ffffffffffff851660208401528281036040840152611ddd8185611c72565b848152608060208201526000611fbc6080830186611bca565b65ffffffffffff8516604084015282810360608401526109838185611c72565b8181038181111561019557610195611b77565b808202811582820484141761019557610195611b77565b6060815260006120196060830186611c72565b6020830194909452506040015291905056fea2646970667358221220888dc633dabfda699944290a2fbf51154dc921d2eda97334bf688b4f52c13b3764736f6c63430008180033",
        "linkReferences": {}
    },
    "methodIdentifiers": {
        "_msgSender()": "119df25f",
        "_msgValue()": "45ec9354",
        "_world()": "e1af802c",
        "move(bytes32,uint16,uint16)": "953717d1",
        "spawn(bytes32)": "911c37ae",
        "supportsInterface(bytes4)": "01ffc9a7"
    },
    "id": 212
}