{"abi":[{"type":"function","name":"_msgSender","inputs":[],"outputs":[{"name":"sender","type":"address","internalType":"address"}],"stateMutability":"view"},{"type":"function","name":"_msgValue","inputs":[],"outputs":[{"name":"value","type":"uint256","internalType":"uint256"}],"stateMutability":"pure"},{"type":"function","name":"_world","inputs":[],"outputs":[{"name":"","type":"address","internalType":"address"}],"stateMutability":"view"},{"type":"function","name":"getEntitiesAtPosition","inputs":[{"name":"x","type":"uint16","internalType":"uint16"},{"name":"y","type":"uint16","internalType":"uint16"}],"outputs":[{"name":"entitiesAtPosition","type":"bytes32[]","internalType":"bytes32[]"}],"stateMutability":"view"},{"type":"function","name":"getEntityPosition","inputs":[{"name":"entityId","type":"bytes32","internalType":"bytes32"}],"outputs":[{"name":"x","type":"uint16","internalType":"uint16"},{"name":"y","type":"uint16","internalType":"uint16"}],"stateMutability":"view"},{"type":"function","name":"isAtPosition","inputs":[{"name":"entityId","type":"bytes32","internalType":"bytes32"},{"name":"x","type":"uint16","internalType":"uint16"},{"name":"y","type":"uint16","internalType":"uint16"}],"outputs":[{"name":"_isAtPosition","type":"bool","internalType":"bool"}],"stateMutability":"view"},{"type":"function","name":"move","inputs":[{"name":"entityId","type":"bytes32","internalType":"bytes32"},{"name":"x","type":"uint16","internalType":"uint16"},{"name":"y","type":"uint16","internalType":"uint16"}],"outputs":[],"stateMutability":"nonpayable"},{"type":"function","name":"removeEntitiesFromBoard","inputs":[{"name":"entityIds","type":"bytes32[]","internalType":"bytes32[]"}],"outputs":[],"stateMutability":"nonpayable"},{"type":"function","name":"removeEntityFromBoard","inputs":[{"name":"entityId","type":"bytes32","internalType":"bytes32"}],"outputs":[],"stateMutability":"nonpayable"},{"type":"function","name":"spawn","inputs":[{"name":"entityId","type":"bytes32","internalType":"bytes32"}],"outputs":[],"stateMutability":"nonpayable"},{"type":"function","name":"supportsInterface","inputs":[{"name":"interfaceId","type":"bytes4","internalType":"bytes4"}],"outputs":[{"name":"","type":"bool","internalType":"bool"}],"stateMutability":"pure"},{"type":"event","name":"Store_SetRecord","inputs":[{"name":"tableId","type":"bytes32","indexed":true,"internalType":"ResourceId"},{"name":"keyTuple","type":"bytes32[]","indexed":false,"internalType":"bytes32[]"},{"name":"staticData","type":"bytes","indexed":false,"internalType":"bytes"},{"name":"encodedLengths","type":"bytes32","indexed":false,"internalType":"EncodedLengths"},{"name":"dynamicData","type":"bytes","indexed":false,"internalType":"bytes"}],"anonymous":false},{"type":"event","name":"Store_SpliceDynamicData","inputs":[{"name":"tableId","type":"bytes32","indexed":true,"internalType":"ResourceId"},{"name":"keyTuple","type":"bytes32[]","indexed":false,"internalType":"bytes32[]"},{"name":"dynamicFieldIndex","type":"uint8","indexed":false,"internalType":"uint8"},{"name":"start","type":"uint48","indexed":false,"internalType":"uint48"},{"name":"deleteCount","type":"uint40","indexed":false,"internalType":"uint40"},{"name":"encodedLengths","type":"bytes32","indexed":false,"internalType":"EncodedLengths"},{"name":"data","type":"bytes","indexed":false,"internalType":"bytes"}],"anonymous":false},{"type":"event","name":"Store_SpliceStaticData","inputs":[{"name":"tableId","type":"bytes32","indexed":true,"internalType":"ResourceId"},{"name":"keyTuple","type":"bytes32[]","indexed":false,"internalType":"bytes32[]"},{"name":"start","type":"uint48","indexed":false,"internalType":"uint48"},{"name":"data","type":"bytes","indexed":false,"internalType":"bytes"}],"anonymous":false},{"type":"error","name":"EncodedLengths_InvalidLength","inputs":[{"name":"length","type":"uint256","internalType":"uint256"}]},{"type":"error","name":"Slice_OutOfBounds","inputs":[{"name":"data","type":"bytes","internalType":"bytes"},{"name":"start","type":"uint256","internalType":"uint256"},{"name":"end","type":"uint256","internalType":"uint256"}]},{"type":"error","name":"Store_IndexOutOfBounds","inputs":[{"name":"length","type":"uint256","internalType":"uint256"},{"name":"accessedIndex","type":"uint256","internalType":"uint256"}]},{"type":"error","name":"Store_InvalidResourceType","inputs":[{"name":"expected","type":"bytes2","internalType":"bytes2"},{"name":"resourceId","type":"bytes32","internalType":"ResourceId"},{"name":"resourceIdString","type":"string","internalType":"string"}]},{"type":"error","name":"Store_InvalidSplice","inputs":[{"name":"startWithinField","type":"uint40","internalType":"uint40"},{"name":"deleteCount","type":"uint40","internalType":"uint40"},{"name":"fieldLength","type":"uint40","internalType":"uint40"}]},{"type":"error","name":"World_AccessDenied","inputs":[{"name":"resource","type":"string","internalType":"string"},{"name":"caller","type":"address","internalType":"address"}]},{"type":"error","name":"World_FunctionSelectorNotFound","inputs":[{"name":"functionSelector","type":"bytes4","internalType":"bytes4"}]},{"type":"error","name":"World_ResourceNotFound","inputs":[{"name":"resourceId","type":"bytes32","internalType":"ResourceId"},{"name":"resourceIdString","type":"string","internalType":"string"}]}],"bytecode":{"object":"0x608060405234801561001057600080fd5b50615ec880620000216000396000f3fe608060405234801561001057600080fd5b50600436106100c95760003560e01c806369e10c7b11610081578063953717d11161005b578063953717d1146101b2578063e03beb83146101c5578063e1af802c146101d857600080fd5b806369e10c7b1461016a5780638181bc571461018a578063911c37ae1461019f57600080fd5b80633fbf0c5a116100b25780633fbf0c5a1461011657806345ec93541461012957806350c4bd841461013c57600080fd5b806301ffc9a7146100ce578063119df25f146100f6575b600080fd5b6100e16100dc366004615152565b6101e0565b60405190151581526020015b60405180910390f35b6100fe610279565b6040516001600160a01b0390911681526020016100ed565b6100e16101243660046151a6565b610288565b604051601f1936013581526020016100ed565b61014f61014a3660046151e2565b6102cb565b6040805161ffff9384168152929091166020830152016100ed565b61017d6101783660046151fb565b6102e1565b6040516100ed919061526a565b61019d6101983660046151e2565b6102f4565b005b61019d6101ad3660046151e2565b610b64565b61019d6101c03660046151a6565b610dde565b61019d6101d3366004615312565b61115b565b6100fe611195565b60007fffffffff0000000000000000000000000000000000000000000000000000000082167fb5dee12700000000000000000000000000000000000000000000000000000000148061027357507fffffffff0000000000000000000000000000000000000000000000000000000082167f01ffc9a700000000000000000000000000000000000000000000000000000000145b92915050565b600061028361119f565b905090565b6000806000610296866111d1565b915091508461ffff168261ffff161480156102b857508361ffff168161ffff16145b156102c257600192505b50509392505050565b6000806102d7836111d1565b9094909350915050565b60606102ed8383611282565b9392505050565b60006102ff82611341565b9050610309611195565b6001600160a01b031663fa1becc4836040518263ffffffff1660e01b815260040161033691815260200190565b602060405180830381865afa158015610353573d6000803e3d6000fd5b505050506040513d601f19601f8201168201806040525081019061037791906153ad565b156109ae576000610386611195565b6001600160a01b03166343def6388461039d610279565b6040517fffffffff0000000000000000000000000000000000000000000000000000000060e085901b16815260048101929092526001600160a01b03166024820152604401602060405180830381865afa1580156103ff573d6000803e3d6000fd5b505050506040513d601f19601f8201168201806040525081019061042391906153ad565b905080156108cc5781156108c757600080600061043e611195565b6001600160a01b03166355faf03a866040518263ffffffff1660e01b815260040161046b91815260200190565b600060405180830381865afa158015610488573d6000803e3d6000fd5b505050506040513d6000823e601f3d908101601f191682016040526104b09190810190615441565b90506001815160028111156104c7576104c761553e565b036105195760405162461bcd60e51b815260206004820152601360248201527f63616e6e6f742072756e2066726f6d205076450000000000000000000000000060448201526064015b60405180910390fd5b60008151600281111561052e5761052e61553e565b0361087457600061053e876113da565b9050600481111561087257610554600482615580565b9250610569876105648584615594565b611453565b610571611195565b6040517f9941825100000000000000000000000000000000000000000000000000000000815260048101889052602481018990526001600160a01b0391909116906399418251906044016020604051808303816000875af11580156105da573d6000803e3d6000fd5b505050506040513d601f19601f820116820180604052508101906105fe91906153ad565b156106e95760005b826101000151518110156106e35761061c611195565b6001600160a01b0316635cef022e8461010001518381518110610641576106416155a7565b6020026020010151856101000151518761065b9190615580565b6040517fffffffff0000000000000000000000000000000000000000000000000000000060e085901b168152600481019290925260248201526044016020604051808303816000875af11580156106b6573d6000803e3d6000fd5b505050506040513d601f19601f820116820180604052508101906106da91906155bd565b50600101610606565b50610872565b6106f1611195565b6040517f2dfdadec00000000000000000000000000000000000000000000000000000000815260048101889052602481018990526001600160a01b039190911690632dfdadec906044016020604051808303816000875af115801561075a573d6000803e3d6000fd5b505050506040513d601f19601f8201168201806040525081019061077e91906153ad565b15610872576001935060005b82610120015151811015610867576107a0611195565b6001600160a01b0316635cef022e84610120015183815181106107c5576107c56155a7565b602002602001015185610120015151876107df9190615580565b6040517fffffffff0000000000000000000000000000000000000000000000000000000060e085901b168152600481019290925260248201526044016020604051808303816000875af115801561083a573d6000803e3d6000fd5b505050506040513d601f19601f8201168201806040525081019061085e91906155bd565b5060010161078a565b5061087287426114ef565b505b6040805160a0810182524281528415156020808301919091526000828401819052606083018690528351818152918201909352608082015290506108b886826115a3565b6108c28642611655565b505050505b6109a8565b60006108de6108d9610279565b611709565b6040516020016108f091815260200190565b604051602081830303815290604052610908906155d6565b03610997574261025861091a8561178e565b61092491906155fd565b106108c75760405162461bcd60e51b815260206004820152602760248201527f5468697320706c6179657227732073657373696f6e20686173206e6f7420746960448201527f6d6564206f7574000000000000000000000000000000000000000000000000006064820152608401610510565b6109a8306109a3610279565b611807565b506109ba565b6109ba306109a3610279565b6000806109c6846102cb565b9150915060006109d683836102e1565b905060005b8151811015610a5d57858282815181106109f7576109f76155a7565b602002602001015103610a4b5760008260018451610a159190615594565b81518110610a2557610a256155a7565b60200260200101519050610a3b85858484611819565b610a4585856118e4565b50610a5d565b80610a5581615610565b9150506109db565b50610a6a85600080611984565b610a75856000611a43565b60608415610b5c576000610a8886611ae4565b905060005b81610120015151811015610af657610ac68261012001518281518110610ab557610ab56155a7565b60200260200101516000801b611be9565b610aee8261012001518281518110610ae057610ae06155a7565b602002602001015184611c68565b600101610a8d565b5060005b81610100015151811015610b4457610b228261010001518281518110610ab557610ab56155a7565b610b3c8261010001518281518110610ae057610ae06155a7565b600101610afa565b50610b50876001611cde565b610b5a8642611655565b505b505050505050565b6000610b6f82611d62565b9050806001600160a01b0316610b83610279565b6001600160a01b031614610bfe5760405162461bcd60e51b8152602060048201526024808201527f4f6e6c7920746865206f776e65722063616e20737061776e206120636861726160448201527f63746572000000000000000000000000000000000000000000000000000000006064820152608401610510565b610c0782611dff565b15610c545760405162461bcd60e51b815260206004820152601960248201527f43686172616374657220616c726561647920737061776e6564000000000000006044820152606401610510565b6000610c5f83611e84565b9050610c69611195565b6001600160a01b031663fa1becc4846040518263ffffffff1660e01b8152600401610c9691815260200190565b602060405180830381865afa158015610cb3573d6000803e3d6000fd5b505050506040513d601f19601f82011682018060405250810190610cd791906153ad565b15610d1c576000610ce784611f16565b610cf1908361562a565b90506000811315610d0b57610d068482611fa8565b610d16565b610d16846001611fa8565b50610d26565b610d268382611fa8565b610d3283600080611984565b610d3d836001611a43565b610d45611195565b6001600160a01b031663fa1becc4846040518263ffffffff1660e01b8152600401610d7291815260200190565b602060405180830381865afa158015610d8f573d6000803e3d6000fd5b505050506040513d601f19601f82011682018060405250810190610db391906153ad565b15610dc257610dc2834261205c565b610dcd836000611cde565b610dd9600080856120db565b505050565b6000610de984611d62565b9050610df3611195565b6001600160a01b031663fa1becc4856040518263ffffffff1660e01b8152600401610e2091815260200190565b602060405180830381865afa158015610e3d573d6000803e3d6000fd5b505050506040513d601f19601f82011682018060405250810190610e6191906153ad565b610ead5760405162461bcd60e51b815260206004820152601860248201527f43616e204f6e6c79206d6f7665206368617261637465727300000000000000006044820152606401610510565b806001600160a01b0316610ebf610279565b6001600160a01b031614610f3b5760405162461bcd60e51b815260206004820152602360248201527f4f6e6c7920746865206f776e65722063616e206d6f766520612063686172616360448201527f74657200000000000000000000000000000000000000000000000000000000006064820152608401610510565b610f4484611dff565b610f905760405162461bcd60e51b815260206004820152601560248201527f436861726163746572206e6f7420737061776e656400000000000000000000006044820152606401610510565b6000610f9b85611341565b1461100e5760405162461bcd60e51b815260206004820152602260248201527f43616e6e6f74206d6f7665207768696c6520696e20616e20656e636f756e746560448201527f722e0000000000000000000000000000000000000000000000000000000000006064820152608401610510565b60008061101a866111d1565b915091506000806110296121a1565b915091508061ffff168761ffff16106110845760405162461bcd60e51b815260206004820152600f60248201527f58206f7574206f6620626f756e647300000000000000000000000000000000006044820152606401610510565b8161ffff168661ffff16106110db5760405162461bcd60e51b815260206004820152600f60248201527f59206f7574206f6620626f756e647300000000000000000000000000000000006044820152606401610510565b6110e78484898961221e565b61ffff1660011461113a5760405162461bcd60e51b815260206004820152601e60248201527f43616e206f6e6c79206d6f766520312074696c6520617420612074696d6500006044820152606401610510565b6111478885858a8a61228c565b611151878761240d565b5050505050505050565b60005b81518110156111915761118982828151811061117c5761117c6155a7565b60200260200101516102f4565b60010161115e565b5050565b6000610283612776565b7fffffffffffffffffffffffffffffffffffffffffffffffffffffffffffffffcc36013560601c806111ce5750335b90565b6040805160018082528183019092526000918291829160208083019080368337019050509050838160008151811061120b5761120b6155a7565b6020908102919091010152600080806112647f74625544000000000000000000000000506f736974696f6e0000000000000000857e04020002020000000000000000000000000000000000000000000000000000612780565b925092509250611275838383612850565b9550955050505050915091565b604080516002808252606080830184529260009291906020830190803683370190505090508361ffff1660001b816000815181106112c2576112c26155a7565b6020026020010181815250508261ffff1660001b816001815181106112e9576112e96155a7565b602090810291909101015260006113217f74625544000000000000000000000000456e7469746965734174506f736974698383612873565b9050611338611333826000845161293a565b6129c8565b95945050505050565b60408051600180825281830190925260009182919060208083019080368337019050509050828160008151811061137a5761137a6155a7565b602090810291909101015260006113d27f74625544000000000000000000000000456e636f756e746572456e746974790083837e410301200120000000000000000000000000000000000000000000000000006129d9565b949350505050565b604080516001808252818301909252600091829190602080830190803683370190505090508281600081518110611413576114136155a7565b602090810291909101015260006113d27f74625544000000000000000000000000416476656e74757265457363726f77008383630100080160dd1b6129d9565b604080516001808252818301909252600091602080830190803683370190505090508281600081518110611489576114896155a7565b602002602001018181525050610dd97f74625544000000000000000000000000416476656e74757265457363726f770060001b826000856040516020016114d291815260200190565b60408051601f19818403018152919052630100080160dd1b612a96565b604080516001808252818301909252600091602080830190803683370190505090508281600081518110611525576115256155a7565b602002602001018181525050610dd97f74625544000000000000000000000000456e636f756e746572456e746974790060001b8260028560405160200161156e91815260200190565b60408051601f198184030181529190527e41030120012000000000000000000000000000000000000000000000000000612a96565b60006115c18260000151836020015184604001518560600151612b3f565b905060006115d28360800151612b8a565b905060006115e38460800151612b9d565b6040805160018082528183019092529192506000919060208083019080368337019050509050858160008151811061161d5761161d6155a7565b6020908102919091010152610b5c7f6f745544000000000000000000000000436f6d6261744f7574636f6d6500000082868686612bce565b60408051600180825281830190925260009160208083019080368337019050509050828160008151811061168b5761168b6155a7565b602002602001018181525050610dd97f74625544000000000000000000000000436f6d626174456e636f756e7465720060001b826002856040516020016116d491815260200190565b60408051601f198184030181529190527ea3080201202001202020010000000000000000000000000000000000000000612a96565b60408051600180825281830190925260009182919060208083019080368337019050509050826001600160a01b031660001b8160008151811061174e5761174e6155a7565b602090810291909101015260006113d27f7462776f726c6400000000000000000053797374656d526567697374727900008383630100080160dd1b6129d9565b6040805160018082528183019092526000918291906020808301908036833701905050905082816000815181106117c7576117c76155a7565b602090810291909101015260006113d27f7462554400000000000000000000000053657373696f6e54696d6572000000008383630100080160dd1b6129d9565b61119161181383611709565b82612c44565b6040805160028082526060820183526000926020830190803683370190505090508461ffff1660001b81600081518110611855576118556155a7565b6020026020010181815250508361ffff1660001b8160018151811061187c5761187c6155a7565b60200260200101818152505060008260405160200161189d91815260200190565b6040516020818303038152906040529050610b5c7f74625544000000000000000000000000456e7469746965734174506f7369746960001b83600087602002855186612c90565b6040805160028082526060820183526000926020830190803683370190505090508261ffff1660001b81600081518110611920576119206155a7565b6020026020010181815250508161ffff1660001b81600181518110611947576119476155a7565b602002602001018181525050610dd97f74625544000000000000000000000000456e7469746965734174506f7369746960001b8260006020612d49565b6040805160f084811b7fffff0000000000000000000000000000000000000000000000000000000000009081166020808501919091529185901b1660228301528251600481840301815260016024840181815260648501909552909360009360609385939160440190803683370190505090508681600081518110611a0b57611a0b6155a7565b6020908102919091010152610b5a7f74625544000000000000000000000000506f736974696f6e000000000000000082868686612bce565b604080516001808252818301909252600091602080830190803683370190505090508281600081518110611a7957611a796155a7565b602002602001018181525050610dd97f74625544000000000000000000000000537061776e656400000000000000000060001b82600085604051602001611ac791151560f81b815260010190565b60408051601f19818403018152919052630101000160d81b612a96565b611b3f6040805161014081019091528060008152602001600081526020016000815260200160001515815260200160008152602001600081526020016000815260200160001515815260200160608152602001606081525090565b604080516001808252818301909252600091602080830190803683370190505090508281600081518110611b7557611b756155a7565b602090810291909101015260008080611bce7f74625544000000000000000000000000436f6d626174456e636f756e74657200857ea3080201202001202020010000000000000000000000000000000000000000612780565b925092509250611bdf838383612dfb565b9695505050505050565b604080516001808252818301909252600091602080830190803683370190505090508281600081518110611c1f57611c1f6155a7565b602002602001018181525050610dd97f74625544000000000000000000000000456e636f756e746572456e746974790060001b8260008560405160200161156e91815260200190565b604080516001808252818301909252600091602080830190803683370190505090508281600081518110611c9e57611c9e6155a7565b6020908102919091010152610dd97f74625544000000000000000000000000456e636f756e746572456e7469747900826000611cd986612ede565b612eee565b604080516001808252818301909252600091602080830190803683370190505090508281600081518110611d1457611d146155a7565b602002602001018181525050610dd97f74625544000000000000000000000000456e636f756e746572456e746974790060001b8260018560405160200161156e91151560f81b815260010190565b604080516001808252818301909252600091829190602080830190803683370190505090508281600081518110611d9b57611d9b6155a7565b60209081029190910101526000611df47f74625544000000000000000000000000436861726163746572730000000000008360017e550402201420010000000000000000000000000000000000000000000000006129d9565b60601c949350505050565b604080516001808252818301909252600091829190602080830190803683370190505090508281600081518110611e3857611e386155a7565b60209081029190910101526000611e787f74625544000000000000000000000000537061776e65640000000000000000008383630101000160d81b6129d9565b90506113d28160f81c90565b604080516001808252818301909252600091829190602080830190803683370190505090508281600081518110611ebd57611ebd6155a7565b602090810291909101015260006113d27f74625544000000000000000000000000537461747300000000000000000000008360047ee10800202001202020202000000000000000000000000000000000000000006129d9565b604080516001808252818301909252600091829190602080830190803683370190505090508281600081518110611f4f57611f4f6155a7565b602090810291909101015260006113d27f7462554400000000000000000000000043686172616374657245717569706d658360037ea00504202020202000000000000000000000000000000000000000000000006129d9565b604080516001808252818301909252600091602080830190803683370190505090508281600081518110611fde57611fde6155a7565b602002602001018181525050610dd97f746255440000000000000000000000005374617473000000000000000000000060001b8260058560405160200161202791815260200190565b60408051601f198184030181529190527ee1080020200120202020200000000000000000000000000000000000000000612a96565b604080516001808252818301909252600091602080830190803683370190505090508281600081518110612092576120926155a7565b602002602001018181525050610dd97f7462554400000000000000000000000053657373696f6e54696d65720000000060001b826000856040516020016114d291815260200190565b6040805160028082526060820183526000926020830190803683370190505090508361ffff1660001b81600081518110612117576121176155a7565b6020026020010181815250508261ffff1660001b8160018151811061213e5761213e6155a7565b60200260200101818152505061219b7f74625544000000000000000000000000456e7469746965734174506f7369746960001b8260008560405160200161218791815260200190565b604051602081830303815290604052612f61565b50505050565b604080516000808252602082019092528190600080806122017f746255440000000000000000000000004d6170436f6e66696700000000000000857e04020002020000000000000000000000000000000000000000000000000000612780565b925092509250612212838383612850565b95509550505050509091565b6000808361ffff168661ffff161161223f5761223a8685615652565b612249565b6122498487615652565b905060008361ffff168661ffff161161226b576122668685615652565b612275565b6122758487615652565b90506122818183615674565b979650505050505050565b600061229885856102e1565b90506000805b825181101561232457878382815181106122ba576122ba6155a7565b6020026020010151036123125760019150600083600185516122dc9190615594565b815181106122ec576122ec6155a7565b6020026020010151905061230288888484611819565b61230c88886118e4565b50612324565b8061231c81615610565b91505061229e565b50806123725760405162461bcd60e51b815260206004820152601660248201527f456e74697479206e6f7420617420706f736974696f6e000000000000000000006044820152606401610510565b61237a611195565b6001600160a01b031663fa1becc4886040518263ffffffff1660e01b81526004016123a791815260200190565b602060405180830381865afa1580156123c4573d6000803e3d6000fd5b505050506040513d601f19601f820116820180604052508101906123e891906153ad565b156123f7576123f7874261205c565b612402878585611984565b610b5a8484896120db565b60006124246000808561ffff168561ffff16612fd4565b61ffff1690508060000361243757505050565b600080600583101561244f5750600190506006612457565b5060069050600b5b600060ff83165b8260ff168110156124865761247281612ff2565b61247c90836155fd565b915060010161245e565b5060008167ffffffffffffffff8111156124a2576124a261527d565b6040519080825280602002602001820160405280156124cb578160200160208202803683370190505b509050600060ff85165b8460ff1681101561254f5760006124eb82613072565b905060005b81518110156125455781818151811061250b5761250b6155a7565b6020026020010151858581518110612525576125256155a7565b60209081029190910101528361253a81615610565b9450506001016124f0565b50506001016124d5565b5060008251116125c75760405162461bcd60e51b815260206004820152602760248201527f4e6f206d6f6e737465727320617661696c61626c6520666f722074686973206460448201527f697374616e6365000000000000000000000000000000000000000000000000006064820152608401610510565b6040517fbc3a86cf00000000000000000000000000000000000000000000000000000000815244600482015260609073__$227e4555c1f608352b26068e438454dd8b$__9063bc3a86cf90602401600060405180830381865af4158015612632573d6000803e3d6000fd5b505050506040513d6000823e601f3d908101601f1916820160405261265a919081019061568f565b905060005b600682600081518110612674576126746155a7565b60200260200101516126869190615728565b63ffffffff1681101561276a576127618485518484815181106126ab576126ab6155a7565b602002602001015163ffffffff166126c3919061574b565b815181106126d3576126d36155a7565b60200260200101518b8b6040516024016127049392919092835261ffff918216602084015216604082015260600190565b60408051601f198184030181529190526020810180517bffffffffffffffffffffffffffffffffffffffffffffffffffffffff167f15bc4248000000000000000000000000000000000000000000000000000000001790526130f9565b5060010161265f565b50505050505050505050565b60006102836131a7565b60606000606060006127906131a7565b9050306001600160a01b038216036127b9576127ad8787876131e6565b93509350935050612847565b6040517f419b58fd0000000000000000000000000000000000000000000000000000000081526001600160a01b0382169063419b58fd90612802908a908a908a9060040161575f565b600060405180830381865afa15801561281f573d6000803e3d6000fd5b505050506040513d6000823e601f3d908101601f191682016040526127ad9190810190615810565b93509350939050565b60208301516022840151600091829160f091821c911c5b90969095509350505050565b6060600061287f6131a7565b9050306001600160a01b038216036128a45761289c8585856132ee565b9150506102ed565b6040517f1e7889770000000000000000000000000000000000000000000000000000000081526001600160a01b03821690631e788977906128ed9088908890889060040161587d565b600060405180830381865afa15801561290a573d6000803e3d6000fd5b505050506040513d6000823e601f3d908101601f1916820160405261289c91908101906158a9565b509392505050565b60008183118061294a5750835182115b15612987578383836040517f23230fa30000000000000000000000000000000000000000000000000000000081526004016105109392919061590a565b6020840161299584826155fd565b905060006129a38585615594565b6fffffffffffffffffffffffffffffffff1660809290921b9190911795945050505050565b606060006102ed8360206000613328565b6000806129e46131a7565b9050306001600160a01b03821603612a0a57612a02868686866133a3565b9150506113d2565b6040517f8c364d590000000000000000000000000000000000000000000000000000000081526001600160a01b03821690638c364d5990612a5590899089908990899060040161592f565b602060405180830381865afa158015612a72573d6000803e3d6000fd5b505050506040513d601f19601f82011682018060405250810190612a0291906155bd565b6000612aa06131a7565b9050306001600160a01b03821603612ac457612abf86868686866133d0565b610b5c565b6040517f390baae00000000000000000000000000000000000000000000000000000000081526001600160a01b0382169063390baae090612b11908990899089908990899060040161595e565b600060405180830381600087803b158015612b2b57600080fd5b505af115801561276a573d6000803e3d6000fd5b606084848484604051602001612b71949392919093845291151560f81b60208401526021830152604182015260610190565b6040516020818303038152906040529050949350505050565b60006102738251602002603881901b1790565b6060612ba882612ede565b604051602001612bb891906159a5565b6040516020818303038152906040529050919050565b6000612bd86131a7565b9050306001600160a01b03821603612bf757612abf86868686866133e5565b6040517f298314fb0000000000000000000000000000000000000000000000000000000081526001600160a01b0382169063298314fb90612b1190899089908990899089906004016159c1565b612c4e82826133fb565b61119157612c5b82613459565b816040517fd787b737000000000000000000000000000000000000000000000000000000008152600401610510929190615a12565b6000612c9a6131a7565b9050306001600160a01b03821603612cbf57612cba878787878787613596565b610b5a565b6040517fc0a2895a0000000000000000000000000000000000000000000000000000000081526001600160a01b0382169063c0a2895a90612d0e908a908a908a908a908a908a90600401615a3d565b600060405180830381600087803b158015612d2857600080fd5b505af1158015612d3c573d6000803e3d6000fd5b5050505050505050505050565b6000612d536131a7565b9050306001600160a01b03821603612d7657612d71858585856135ae565b612df4565b6040517fd9c03a040000000000000000000000000000000000000000000000000000000081526001600160a01b0382169063d9c03a0490612dc190889088908890889060040161592f565b600060405180830381600087803b158015612ddb57600080fd5b505af1158015612def573d6000803e3d6000fd5b505050505b5050505050565b612e566040805161014081019091528060008152602001600081526020016000815260200160001515815260200160008152602001600081526020016000815260200160001515815260200160608152602001606081525090565b612e5f84613607565b80151560e08a015260c0890182905260a089018390526080890184905284151560608a0152604089018690526020890187905288886002811115612ea557612ea561553e565b6002811115612eb657612eb661553e565b8152505050505050505050612ecb838361368b565b6101208301526101008201529392505050565b6060816102ed81602060006136d5565b6000612ef86131a7565b9050306001600160a01b03821603612f1657612d7185858585613729565b6040517fef6ea8620000000000000000000000000000000000000000000000000000000081526001600160a01b0382169063ef6ea86290612dc1908890889088908890600401615a93565b6000612f6b6131a7565b9050306001600160a01b03821603612f8957612d7185858585613764565b6040517f150f32620000000000000000000000000000000000000000000000000000000081526001600160a01b0382169063150f326290612dc1908890889088908890600401615a93565b6000611338612fe3868561379f565b612fed868561379f565b6137c1565b604080516001808252818301909252600091829190602080830190803683370190505090508260001b8160008151811061302e5761302e6155a7565b602090810291909101015260006130667f746255440000000000000000000000004d6f627342794c6576656c000000000083836137d8565b60209004949350505050565b60408051600180825281830190925260609160009190602080830190803683370190505090508260001b816000815181106130af576130af6155a7565b602090810291909101015260006130e77f746255440000000000000000000000004d6f627342794c6576656c00000000008383612873565b90506113d2611333826000845161293a565b606060008061310f61310a85615ac7565b61388a565b91509150816000801b03613175576040517ffdde54e20000000000000000000000000000000000000000000000000000000081527fffffffff00000000000000000000000000000000000000000000000000000000600035166004820152602401610510565b6020840180517bffffffffffffffffffffffffffffffffffffffffffffffffffffffff16821790526113d2828561394d565b7f629a4c26e296b22a8e0856e9f6ecb2d1008d7e00081111962cd175fa7488e175546000906001600160a01b0316806131e1573391505090565b919050565b60606000606060006131f785613a28565b9050613204878783613a4b565b9350600061321186613a84565b905080156132e3576132238888613ac1565b935066ffffffffffffff841667ffffffffffffffff8111156132475761324761527d565b6040519080825280601f01601f191660200182016040528015613271576020820181803683370190505b5092506020830160005b828160ff1610156132e05760006132938b8b84613ad4565b905060006132b0888460ff166028026038011c64ffffffffff1690565b90506132bf8260008387613b54565b6132c981856155fd565b9350505080806132d890615b17565b91505061327b565b50505b505093509350939050565b60606113d26132fe858585613ad4565b60006133238561330e8989613ac1565b9060ff166028026038011c64ffffffffff1690565b613c20565b606060006133368560801c90565b90506fffffffffffffffffffffffffffffffff8516600085828161335c5761335c615554565b04905060405193506020840160208202810160405281855260005b82811015613397578451871c825293870193602090910190600101613377565b50505050509392505050565b60006113386133b28686613c43565b60ff858116601b0360080285901c166133cb8587613c99565b613cca565b612df485856133df8487613c99565b85613d1b565b612df485858585856133f68b613fb6565b61403b565b60006134497f6e730000000000000000000000000000000000000000000000000000000000007dffffffffffffffffffffffffffff0000000000000000000000000000000085161783614374565b806102ed57506102ed8383614374565b606081601081901b600061346c83614425565b9050827fffffffffffffffffffffffffffff0000000000000000000000000000000000008316156134c7576134c27fffffffffffffffffffffffffffff000000000000000000000000000000000000841661443c565b6134fe565b6040518060400160405280600681526020017f3c726f6f743e00000000000000000000000000000000000000000000000000008152505b7fffffffffffffffffffffffffffffffff000000000000000000000000000000008316156135345761352f8361443c565b61356b565b6040518060400160405280600681526020017f3c726f6f743e00000000000000000000000000000000000000000000000000008152505b60405160200161357d93929190615b36565b6040516020818303038152906040529350505050919050565b610b5c8686868686866135a98d8d613ac1565b6144e0565b60006135ba8585613ac1565b905060006135d7828560ff166028026038011c64ffffffffff1690565b9050610b5c8686866135f08764ffffffffff8716615594565b6040805160008152602081019091528890886144e0565b600080600080600080600080613621896000016020015190565b60f81c60028111156136355761363561553e565b60218a015160418b015160618c0151929a509098509650613657905b60f81c90565b60628a015160828b015160a28c015160c28d01519398509196509450925061367e90613651565b9050919395975091939597565b6060806000603885901c64ffffffffff166136aa61133386848461293a565b935090508064ffffffffff606087901c16016136ca61133386848461293a565b925050509250929050565b825160609060006136e68583615bc4565b9050604051925060208301601f19603f83860101166040528184526000602088015b84821015613397578051871b83529187019160019190910190602001613708565b60006137358585613ac1565b90506000613752828560ff166028026038011c64ffffffffff1690565b9050610b5c86868660008588886144e0565b60006137708585613ac1565b9050600061378d828560ff166028026038011c64ffffffffff1690565b9050610b5c86868684600088886144e0565b60008183116137b7576137b28383615594565b6102ed565b6102ed8284615594565b6000818310156137d157816102ed565b5090919050565b6000806137e36131a7565b9050306001600160a01b038216036138005761289c85858561491a565b6040517fdbbf0e210000000000000000000000000000000000000000000000000000000081526001600160a01b0382169063dbbf0e21906138499088908890889060040161587d565b602060405180830381865afa158015613866573d6000803e3d6000fd5b505050506040513d601f19601f8201168201806040525081019061289c91906155bd565b6040805160018082528183019092526000918291829160208083019080368337019050509050837bffffffffffffffffffffffffffffffffffffffffffffffffffffffff1916816000815181106138e3576138e36155a7565b60209081029190910101526000808061393c7f7462776f726c6400000000000000000046756e6374696f6e53656c6563746f72857e24020020040000000000000000000000000000000000000000000000000000612780565b92509250925061127583838361492a565b60606000613959612776565b90506001600160a01b038116300361399a57600061398161397861119f565b60008787614936565b93509050806139935761399383614a71565b5050610273565b6040517f3ae7af080000000000000000000000000000000000000000000000000000000081526001600160a01b03821690633ae7af08906139e19087908790600401615bdb565b6000604051808303816000875af1158015613a00573d6000803e3d6000fd5b505050506040513d6000823e601f3d908101601f191682016040526113d291908101906158a9565b60006008613a3860026020615594565b613a429190615bc4565b9190911c919050565b606081600003613a6a57506040805160208101909152600081526102ed565b6000613a768585613c43565b905061133881600085613c20565b60006008600180613a9760026020615594565b613aa19190615594565b613aab9190615594565b613ab59190615bc4565b8260ff911c1692915050565b60006102ed613ad08484614a79565b5490565b60008383604051602001613ae9929190615bf4565b604051602081830303815290604052805190602001208260f81b7effffffffffffffffffffffffffffffffffffffffffffffffffffffffffffff19167f3b4102da22e32d82fc925482184f16c09fd4281692720b87d124aef6da48a0f1181860001c90509392505050565b8215613bdb5760208310613b7e57602083048401935060208381613b7a57613b7a615554565b0692505b8215613bdb576020839003600081841015613ba15750600019600884021c613bab565b50600019600882021c5b8554600886021b818451168219821617845250818411613bcc57505061219b565b50600194909401939182900391015b5b60208210613bfd5783548152600190930192601f1990910190602001613bdc565b811561219b576000600019600884021c8251865482191691161782525050505050565b60405160208101601f19603f848401011660405282825261293285858584613b54565b60008282604051602001613c58929190615bf4565b60408051601f1981840301815291905280516020909101207f86425bff6b57326c7859e89024fe4f238ca327a1ae4a230180dd2f0e88aaa7d9189392505050565b600080805b8360ff1681101561293257613cc060ff601b83900360080287901c16836155fd565b9150600101613c9e565b600060208210613cf057602082048401935060208281613cec57613cec615554565b0691505b508254600882021b602082900380841115612932576001850154600882021c82179150509392505050565b7f6f74000000000000000000000000000000000000000000000000000000000000847fffff0000000000000000000000000000000000000000000000000000000000001603613da557837f8c0b5119d4cec7b284c6b1b39252a03d1e2f2d7451a5895562524c113bb952be848484604051613d9893929190615c30565b60405180910390a261219b565b6000613db18585613c43565b90506000613dbe86614acf565b905060005b8151811015613e93576000828281518110613de057613de06155a7565b60200260200101519050613e0c6004826affffffffffffffffffffff1916614b5890919063ffffffff16565b15613e8a576040517f964f667d000000000000000000000000000000000000000000000000000000008152606082901c9063964f667d90613e57908b908b908b908b90600401615c63565b600060405180830381600087803b158015613e7157600080fd5b505af1158015613e85573d6000803e3d6000fd5b505050505b50600101613dc3565b50857f8c0b5119d4cec7b284c6b1b39252a03d1e2f2d7451a5895562524c113bb952be868686604051613ec893929190615c30565b60405180910390a2613ee3828565ffffffffffff1685614b76565b60005b8151811015610b5a576000828281518110613f0357613f036155a7565b60200260200101519050613f2f6008826affffffffffffffffffffff1916614b5890919063ffffffff16565b15613fad576040517fa8ba8721000000000000000000000000000000000000000000000000000000008152606082901c9063a8ba872190613f7a908b908b908b908b90600401615c63565b600060405180830381600087803b158015613f9457600080fd5b505af1158015613fa8573d6000803e3d6000fd5b505050505b50600101613ee6565b60007f8b9d8c8b908d9affffffffffffffffffab9e9d939a8d00000000000000000000820161400557507e60030220202000000000000000000000000000000000000000000000000000919050565b6102736140327f746273746f72650000000000000000005461626c65730000000000000000000084614b8c565b60206000613cca565b7f6f74000000000000000000000000000000000000000000000000000000000000867fffff00000000000000000000000000000000000000000000000000000000000016036140c757857f8dbb3a9672eebfd3773e72dd9c102393436816d832c7ba9e1e1ac8fcadcac7a9868686866040516140ba9493929190615c9c565b60405180910390a2610b5c565b60006140d287614acf565b905060005b81518110156141ab5760008282815181106140f4576140f46155a7565b602002602001015190506141206001826affffffffffffffffffffff1916614b5890919063ffffffff16565b156141a2576040517f57066c9c000000000000000000000000000000000000000000000000000000008152606082901c906357066c9c9061416f908c908c908c908c908c908c90600401615cdb565b600060405180830381600087803b15801561418957600080fd5b505af115801561419d573d6000803e3d6000fd5b505050505b506001016140d7565b50867f8dbb3a9672eebfd3773e72dd9c102393436816d832c7ba9e1e1ac8fcadcac7a9878787876040516141e29493929190615c9c565b60405180910390a260006141f68888613c43565b9050600060208701905061420e826000895184614ba8565b600061421985613a84565b111561429d57600061422b8a8a614a79565b878155905060208601915060008060005b61424588613a84565b8160ff1610156142985761425a8d8d83613ad4565b92506142758a8260ff166028026038011c64ffffffffff1690565b91506142848360008488614ba8565b61428e82866155fd565b945060010161423c565b505050505b60005b835181101561276a5760008482815181106142bd576142bd6155a7565b602002602001015190506142e96002826affffffffffffffffffffff1916614b5890919063ffffffff16565b1561436b576040517f5b28cdaf000000000000000000000000000000000000000000000000000000008152606082901c90635b28cdaf90614338908e908e908e908e908e908e90600401615cdb565b600060405180830381600087803b15801561435257600080fd5b505af1158015614366573d6000803e3d6000fd5b505050505b506001016142a0565b6040805160028082526060820183526000928392919060208301908036833701905050905083816000815181106143ad576143ad6155a7565b602002602001018181525050826001600160a01b031660001b816001815181106143d9576143d96155a7565b602090810291909101015260006144197f7462776f726c640000000000000000005265736f7572636541636365737300008383630101000160d81b6129d9565b90506113388160f81c90565b6000614433607060106155fd565b9190911b919050565b606060005b60108110156144a1577fffffffffffffffffffffffffffffffff000000000000000000000000000000008316600882021b7fff0000000000000000000000000000000000000000000000000000000000000016156144a157600101614441565b604080517fffffffffffffffffffffffffffffffff000000000000000000000000000000008516602082015281516030909101909152818152806113d2565b7f7462000000000000000000000000000000000000000000000000000000000000877fffff00000000000000000000000000000000000000000000000000000000000016146145a0577f7462000000000000000000000000000000000000000000000000000000000000878860405160200161455e91815260200190565b60408051601f19818403018152908290527f31b46683000000000000000000000000000000000000000000000000000000008252610510939291600401615d34565b60006145bb828760ff166028026038011c64ffffffffff1690565b9050600083518564ffffffffff16836145d49190615594565b6145de91906155fd565b90508082141580156146005750816145f68688615d75565b64ffffffffff1614155b15614650576040517fa65010b400000000000000000000000000000000000000000000000000000000815264ffffffffff8088166004830152808716602483015283166044820152606401610510565b818664ffffffffff1611156146a1576040517f7e8578d30000000000000000000000000000000000000000000000000000000081526004810183905264ffffffffff87166024820152604401610510565b60006146ae848984614c67565b905060006146bb8b614acf565b905060005b81518110156147865760008282815181106146dd576146dd6155a7565b602002602001015190506147096010826affffffffffffffffffffff1916614b5890919063ffffffff16565b1561477d57606081901c6001600160a01b03166355eb5a288e8e8e8e8e8d8f6040518863ffffffff1660e01b815260040161474a9796959493929190615d93565b600060405180830381600087803b15801561476457600080fd5b505af1158015614778573d6000803e3d6000fd5b505050505b506001016146c0565b5064ffffffffff881660005b8a60ff168160ff1610156147c5576147b9878260ff166028026038011c64ffffffffff1690565b90910190600101614792565b508b7ffe158a7adba34e256807c8a149028d3162918713c3838afc643ce9f96716ebfd8c8c848c888d60405161480096959493929190615df1565b60405180910390a25082841461482157600061481c8c8c614a79565b839055505b600061482e8c8c8c613ad4565b9050614842818a64ffffffffff1689614b76565b5060005b815181101561490c576000828281518110614863576148636155a7565b6020026020010151905061488f6020826affffffffffffffffffffff1916614b5890919063ffffffff16565b1561490357606081901c6001600160a01b031663635845338e8e8e8e8e8a8f6040518863ffffffff1660e01b81526004016148d09796959493929190615d93565b600060405180830381600087803b1580156148ea57600080fd5b505af11580156148fe573d6000803e3d6000fd5b505050505b50600101614846565b505050505050505050505050565b60006113d28261330e8686613ac1565b60008061286785614d35565b6000606060008061494686614d4a565b90925090506001600160a01b038216614997578561496387613459565b6040517ffbf10ce6000000000000000000000000000000000000000000000000000000008152600401610510929190615bdb565b806149a6576149a68689614dee565b8615614a12577dffffffffffffffffffffffffffff0000000000000000000000000000000086167f6e730000000000000000000000000000000000000000000000000000000000001760006149fa82614df8565b9050614a0f82614a0a8b846155fd565b614e71565b50505b6000614a1e8760101b90565b7fffffffffffffffffffffffffffff0000000000000000000000000000000000001614614a5657614a5188888488614f0d565b614a62565b614a6288888488614f85565b90999098509650505050505050565b805160208201fd5b60008282604051602001614a8e929190615bf4565b60408051601f1981840301815291905280516020909101207f14e2fcc58e58e68ec7edc30c8d50dccc3ce2714a623ec81f46b6a63922d76569189392505050565b60408051600180825281830190925260609160009190602080830190803683370190505090508281600081518110614b0957614b096155a7565b60209081029190910101526000614b417f746273746f726500000000000000000053746f7265486f6f6b7300000000000083836132ee565b90506113d2614b53826000845161293a565b614fe6565b60008160ff1682614b698560581c90565b1660ff1614905092915050565b610dd983838351614b878560200190565b614ba8565b6040805160208101849052908101829052600090606001613c58565b8215614c225760208310614bd257602083048401935060208381614bce57614bce615554565b0692505b8215614c225760208390036000600019600885021c1990506008850281811c91508351811c9050811987541682821617875550818411614c1357505061219b565b50600194909401939182900391015b5b60208210614c445780518455600190930192601f1990910190602001614c23565b811561219b576000600019600884021c8554835182191691161785555050505050565b600064ffffffffff821115614cab576040517f7149a3c100000000000000000000000000000000000000000000000000000000815260048101839052602401610510565b8366ffffffffffffff811660ff851660280260380182901c64ffffffffff16808510614cdd5780850382019150614ce5565b848103820391505b5064ffffffffff6038602860ff8816020181811b197fffffffffffffffffffffffffffffffffffffffffffffffffff000000000000009490941690921792909216918416901b1790509392505050565b602081015160408201516000905b9050915091565b60408051600180825281830190925260009182918291602080830190803683370190505090508381600081518110614d8457614d846155a7565b602090810291909101015260008080614ddd7f7462776f726c6400000000000000000053797374656d73000000000000000000857e150200140100000000000000000000000000000000000000000000000000006131e6565b925092509250611275838383614ff7565b612c4e8282615003565b604080516001808252818301909252600091829190602080830190803683370190505090508281600081518110614e3157614e316155a7565b602090810291909101015260006113d27f7462776f726c6400000000000000000042616c616e63657300000000000000008383630100080160dd1b6133a3565b604080516001808252818301909252600091602080830190803683370190505090508281600081518110614ea757614ea76155a7565b602002602001018181525050610dd97f7462776f726c6400000000000000000042616c616e636573000000000000000060001b82600085604051602001614ef091815260200190565b60408051601f19818403018152919052630100080160dd1b6133d0565b60006060836001600160a01b03166000614f28858989615061565b604051614f3591906159a5565b60006040518083038185875af1925050503d8060008114614f72576040519150601f19603f3d011682016040523d82523d6000602084013e614f77565b606091505b509097909650945050505050565b60006060836001600160a01b0316614f9e848888615061565b604051614fab91906159a5565b600060405180830381855af49150503d8060008114614f72576040519150601f19603f3d011682016040523d82523d6000602084013e614f77565b606060006102ed8360156000613328565b60008061286785615090565b60006150517f6e730000000000000000000000000000000000000000000000000000000000007dffffffffffffffffffffffffffff00000000000000000000000000000000851617836150ad565b806102ed57506102ed83836150ad565b606083838360405160200161507893929190615e40565b60405160208183030381529060405290509392505050565b6020810151603482015160609190911c90600090614d4390613651565b6040805160028082526060820183526000928392919060208301908036833701905050905083816000815181106150e6576150e66155a7565b602002602001018181525050826001600160a01b031660001b81600181518110615112576151126155a7565b602090810291909101015260006144197f7462776f726c640000000000000000005265736f7572636541636365737300008383630101000160d81b6133a3565b60006020828403121561516457600080fd5b81357fffffffff00000000000000000000000000000000000000000000000000000000811681146102ed57600080fd5b803561ffff811681146131e157600080fd5b6000806000606084860312156151bb57600080fd5b833592506151cb60208501615194565b91506151d960408501615194565b90509250925092565b6000602082840312156151f457600080fd5b5035919050565b6000806040838503121561520e57600080fd5b61521783615194565b915061522560208401615194565b90509250929050565b60008151808452602080850194506020840160005b8381101561525f57815187529582019590820190600101615243565b509495945050505050565b6020815260006102ed602083018461522e565b634e487b7160e01b600052604160045260246000fd5b604051610140810167ffffffffffffffff811182821017156152b7576152b761527d565b60405290565b604051601f8201601f1916810167ffffffffffffffff811182821017156152e6576152e661527d565b604052919050565b600067ffffffffffffffff8211156153085761530861527d565b5060051b60200190565b6000602080838503121561532557600080fd5b823567ffffffffffffffff81111561533c57600080fd5b8301601f8101851361534d57600080fd5b803561536061535b826152ee565b6152bd565b81815260059190911b8201830190838101908783111561537f57600080fd5b928401925b8284101561228157833582529284019290840190615384565b805180151581146131e157600080fd5b6000602082840312156153bf57600080fd5b6102ed8261539d565b8051600381106131e157600080fd5b600082601f8301126153e857600080fd5b815160206153f861535b836152ee565b8083825260208201915060208460051b87010193508684111561541a57600080fd5b602086015b84811015615436578051835291830191830161541f565b509695505050505050565b60006020828403121561545357600080fd5b815167ffffffffffffffff8082111561546b57600080fd5b90830190610140828603121561548057600080fd5b615488615293565b615491836153c8565b815260208301516020820152604083015160408201526154b36060840161539d565b60608201526080830151608082015260a083015160a082015260c083015160c08201526154e260e0840161539d565b60e082015261010080840151838111156154fb57600080fd5b615507888287016153d7565b828401525050610120808401518381111561552157600080fd5b61552d888287016153d7565b918301919091525095945050505050565b634e487b7160e01b600052602160045260246000fd5b634e487b7160e01b600052601260045260246000fd5b634e487b7160e01b600052601160045260246000fd5b60008261558f5761558f615554565b500490565b818103818111156102735761027361556a565b634e487b7160e01b600052603260045260246000fd5b6000602082840312156155cf57600080fd5b5051919050565b805160208083015191908110156155f7576000198160200360031b1b821691505b50919050565b808201808211156102735761027361556a565b600060001982036156235761562361556a565b5060010190565b808201828112600083128015821682158216171561564a5761564a61556a565b505092915050565b61ffff82811682821603908082111561566d5761566d61556a565b5092915050565b61ffff81811683821601908082111561566d5761566d61556a565b600060208083850312156156a257600080fd5b825167ffffffffffffffff8111156156b957600080fd5b8301601f810185136156ca57600080fd5b80516156d861535b826152ee565b81815260059190911b820183019083810190878311156156f757600080fd5b928401925b8284101561228157835163ffffffff811681146157195760008081fd5b825292840192908401906156fc565b600063ffffffff8084168061573f5761573f615554565b92169190910692915050565b60008261575a5761575a615554565b500690565b838152606060208201526000615778606083018561522e565b9050826040830152949350505050565b60005b838110156157a357818101518382015260200161578b565b50506000910152565b600082601f8301126157bd57600080fd5b815167ffffffffffffffff8111156157d7576157d761527d565b6157ea6020601f19601f840116016152bd565b8181528460208386010111156157ff57600080fd5b6113d2826020830160208701615788565b60008060006060848603121561582557600080fd5b835167ffffffffffffffff8082111561583d57600080fd5b615849878388016157ac565b945060208601519350604086015191508082111561586657600080fd5b50615873868287016157ac565b9150509250925092565b838152606060208201526000615896606083018561522e565b905060ff83166040830152949350505050565b6000602082840312156158bb57600080fd5b815167ffffffffffffffff8111156158d257600080fd5b6113d2848285016157ac565b600081518084526158f6816020860160208601615788565b601f01601f19169290920160200192915050565b60608152600061591d60608301866158de565b60208301949094525060400152919050565b848152608060208201526000615948608083018661522e565b60ff949094166040830152506060015292915050565b85815260a06020820152600061597760a083018761522e565b60ff86166040840152828103606084015261599281866158de565b9150508260808301529695505050505050565b600082516159b7818460208701615788565b9190910192915050565b85815260a0602082015260006159da60a083018761522e565b82810360408401526159ec81876158de565b90508460608401528281036080840152615a0681856158de565b98975050505050505050565b604081526000615a2560408301856158de565b90506001600160a01b03831660208301529392505050565b86815260c060208201526000615a5660c083018861522e565b60ff8716604084015264ffffffffff86811660608501528516608084015282810360a0840152615a8681856158de565b9998505050505050505050565b848152608060208201526000615aac608083018661522e565b60ff85166040840152828103606084015261228181856158de565b6000815160208301517fffffffff0000000000000000000000000000000000000000000000000000000080821693506004831015615b0f5780818460040360031b1b83161693505b505050919050565b600060ff821660ff8103615b2d57615b2d61556a565b60010192915050565b7fffff0000000000000000000000000000000000000000000000000000000000008416815260007f3a000000000000000000000000000000000000000000000000000000000000008060028401528451615b97816003860160208901615788565b808401905081600382015284519150615bb7826004830160208801615788565b0160040195945050505050565b80820281158282048414176102735761027361556a565b8281526040602082015260006113d260408301846158de565b8281526000602080830184516020860160005b82811015615c2357815184529284019290840190600101615c07565b5091979650505050505050565b606081526000615c43606083018661522e565b65ffffffffffff851660208401528281036040840152611bdf81856158de565b848152608060208201526000615c7c608083018661522e565b65ffffffffffff85166040840152828103606084015261228181856158de565b608081526000615caf608083018761522e565b8281036020840152615cc181876158de565b9050846040840152828103606084015261228181856158de565b86815260c060208201526000615cf460c083018861522e565b8281036040840152615d0681886158de565b90508560608401528281036080840152615d2081866158de565b9150508260a0830152979650505050505050565b7fffff0000000000000000000000000000000000000000000000000000000000008416815282602082015260606040820152600061133860608301846158de565b64ffffffffff81811683821601908082111561566d5761566d61556a565b87815260e060208201526000615dac60e083018961522e565b60ff8816604084015264ffffffffff87811660608501528616608084015260a0830185905282810360c0840152615de381856158de565b9a9950505050505050505050565b60c081526000615e0460c083018961522e565b60ff8816602084015265ffffffffffff8716604084015264ffffffffff8616606084015284608084015282810360a0840152615a8681856158de565b60008451615e52818460208901615788565b60609490941b7fffffffffffffffffffffffffffffffffffffffff000000000000000000000000169190930190815260148101919091526034019291505056fea2646970667358221220a3790438d5951e708a9c6234fc3e62e21fdee9d58cf8de1f9e2151aecb170e5964736f6c63430008180033","linkReferences":{"src/libraries/LibChunks.sol":{"LibChunks":[{"start":9753,"length":20}]}}},"methodIdentifiers":{"_msgSender()":"119df25f","_msgValue()":"45ec9354","_world()":"e1af802c","getEntitiesAtPosition(uint16,uint16)":"69e10c7b","getEntityPosition(bytes32)":"50c4bd84","isAtPosition(bytes32,uint16,uint16)":"3fbf0c5a","move(bytes32,uint16,uint16)":"953717d1","removeEntitiesFromBoard(bytes32[])":"e03beb83","removeEntityFromBoard(bytes32)":"8181bc57","spawn(bytes32)":"911c37ae","supportsInterface(bytes4)":"01ffc9a7"},"id":223}