{"abi":[{"type":"function","name":"_msgSender","inputs":[],"outputs":[{"name":"sender","type":"address","internalType":"address"}],"stateMutability":"view"},{"type":"function","name":"_msgValue","inputs":[],"outputs":[{"name":"value","type":"uint256","internalType":"uint256"}],"stateMutability":"pure"},{"type":"function","name":"_world","inputs":[],"outputs":[{"name":"","type":"address","internalType":"address"}],"stateMutability":"view"},{"type":"function","name":"getEntitiesAtPosition","inputs":[{"name":"x","type":"uint16","internalType":"uint16"},{"name":"y","type":"uint16","internalType":"uint16"}],"outputs":[{"name":"entitiesAtPosition","type":"bytes32[]","internalType":"bytes32[]"}],"stateMutability":"view"},{"type":"function","name":"isAtPosition","inputs":[{"name":"entityId","type":"bytes32","internalType":"bytes32"},{"name":"x","type":"uint16","internalType":"uint16"},{"name":"y","type":"uint16","internalType":"uint16"}],"outputs":[{"name":"_isAtPosition","type":"bool","internalType":"bool"}],"stateMutability":"view"},{"type":"function","name":"move","inputs":[{"name":"entityId","type":"bytes32","internalType":"bytes32"},{"name":"x","type":"uint16","internalType":"uint16"},{"name":"y","type":"uint16","internalType":"uint16"}],"outputs":[],"stateMutability":"nonpayable"},{"type":"function","name":"spawn","inputs":[{"name":"entityId","type":"bytes32","internalType":"bytes32"}],"outputs":[],"stateMutability":"nonpayable"},{"type":"function","name":"supportsInterface","inputs":[{"name":"interfaceId","type":"bytes4","internalType":"bytes4"}],"outputs":[{"name":"","type":"bool","internalType":"bool"}],"stateMutability":"pure"},{"type":"event","name":"Store_SetRecord","inputs":[{"name":"tableId","type":"bytes32","indexed":true,"internalType":"ResourceId"},{"name":"keyTuple","type":"bytes32[]","indexed":false,"internalType":"bytes32[]"},{"name":"staticData","type":"bytes","indexed":false,"internalType":"bytes"},{"name":"encodedLengths","type":"bytes32","indexed":false,"internalType":"EncodedLengths"},{"name":"dynamicData","type":"bytes","indexed":false,"internalType":"bytes"}],"anonymous":false},{"type":"event","name":"Store_SpliceDynamicData","inputs":[{"name":"tableId","type":"bytes32","indexed":true,"internalType":"ResourceId"},{"name":"keyTuple","type":"bytes32[]","indexed":false,"internalType":"bytes32[]"},{"name":"dynamicFieldIndex","type":"uint8","indexed":false,"internalType":"uint8"},{"name":"start","type":"uint48","indexed":false,"internalType":"uint48"},{"name":"deleteCount","type":"uint40","indexed":false,"internalType":"uint40"},{"name":"encodedLengths","type":"bytes32","indexed":false,"internalType":"EncodedLengths"},{"name":"data","type":"bytes","indexed":false,"internalType":"bytes"}],"anonymous":false},{"type":"event","name":"Store_SpliceStaticData","inputs":[{"name":"tableId","type":"bytes32","indexed":true,"internalType":"ResourceId"},{"name":"keyTuple","type":"bytes32[]","indexed":false,"internalType":"bytes32[]"},{"name":"start","type":"uint48","indexed":false,"internalType":"uint48"},{"name":"data","type":"bytes","indexed":false,"internalType":"bytes"}],"anonymous":false},{"type":"error","name":"EncodedLengths_InvalidLength","inputs":[{"name":"length","type":"uint256","internalType":"uint256"}]},{"type":"error","name":"Slice_OutOfBounds","inputs":[{"name":"data","type":"bytes","internalType":"bytes"},{"name":"start","type":"uint256","internalType":"uint256"},{"name":"end","type":"uint256","internalType":"uint256"}]},{"type":"error","name":"Store_IndexOutOfBounds","inputs":[{"name":"length","type":"uint256","internalType":"uint256"},{"name":"accessedIndex","type":"uint256","internalType":"uint256"}]},{"type":"error","name":"Store_InvalidResourceType","inputs":[{"name":"expected","type":"bytes2","internalType":"bytes2"},{"name":"resourceId","type":"bytes32","internalType":"ResourceId"},{"name":"resourceIdString","type":"string","internalType":"string"}]},{"type":"error","name":"Store_InvalidSplice","inputs":[{"name":"startWithinField","type":"uint40","internalType":"uint40"},{"name":"deleteCount","type":"uint40","internalType":"uint40"},{"name":"fieldLength","type":"uint40","internalType":"uint40"}]},{"type":"error","name":"World_AccessDenied","inputs":[{"name":"resource","type":"string","internalType":"string"},{"name":"caller","type":"address","internalType":"address"}]},{"type":"error","name":"World_FunctionSelectorNotFound","inputs":[{"name":"functionSelector","type":"bytes4","internalType":"bytes4"}]},{"type":"error","name":"World_ResourceNotFound","inputs":[{"name":"resourceId","type":"bytes32","internalType":"ResourceId"},{"name":"resourceIdString","type":"string","internalType":"string"}]}],"bytecode":{"object":"0x608060405234801561001057600080fd5b506144ad806100206000396000f3fe608060405234801561001057600080fd5b50600436106100885760003560e01c806369e10c7b1161005b57806369e10c7b146100fb578063911c37ae1461011b578063953717d114610130578063e1af802c1461014357600080fd5b806301ffc9a71461008d578063119df25f146100b55780633fbf0c5a146100d557806345ec9354146100e8575b600080fd5b6100a061009b366004613916565b61014b565b60405190151581526020015b60405180910390f35b6100bd6101e4565b6040516001600160a01b0390911681526020016100ac565b6100a06100e336600461396a565b6101f3565b604051601f1936013581526020016100ac565b61010e6101093660046139a6565b610236565b6040516100ac9190613a15565b61012e610129366004613a28565b610249565b005b61012e61013e36600461396a565b610365565b6100bd610620565b60007fffffffff0000000000000000000000000000000000000000000000000000000082167fb5dee1270000000000000000000000000000000000000000000000000000000014806101de57507fffffffff0000000000000000000000000000000000000000000000000000000082167f01ffc9a700000000000000000000000000000000000000000000000000000000145b92915050565b60006101ee61062a565b905090565b60008060006102018661065c565b915091508461ffff168261ffff1614801561022357508361ffff168161ffff16145b1561022d57600192505b50509392505050565b6060610242838361070d565b9392505050565b6000610254826107cc565b9050806001600160a01b03166102686101e4565b6001600160a01b0316146102e85760405162461bcd60e51b8152602060048201526024808201527f4f6e6c7920746865206f776e65722063616e20737061776e206120636861726160448201527f637465720000000000000000000000000000000000000000000000000000000060648201526084015b60405180910390fd5b6102f182610869565b1561033e5760405162461bcd60e51b815260206004820152601960248201527f43686172616374657220616c726561647920737061776e65640000000000000060448201526064016102df565b61034a8260008061090e565b6103558260016109d6565b61036160008084610a94565b5050565b6000610370846107cc565b9050806001600160a01b03166103846101e4565b6001600160a01b0316146104005760405162461bcd60e51b815260206004820152602360248201527f4f6e6c7920746865206f776e65722063616e206d6f766520612063686172616360448201527f746572000000000000000000000000000000000000000000000000000000000060648201526084016102df565b61040984610869565b6104555760405162461bcd60e51b815260206004820152601560248201527f436861726163746572206e6f7420737061776e6564000000000000000000000060448201526064016102df565b600061046085610b5a565b146104d35760405162461bcd60e51b815260206004820152602260248201527f43616e6e6f74206d6f7665207768696c6520696e20616e20656e636f756e746560448201527f722e00000000000000000000000000000000000000000000000000000000000060648201526084016102df565b6000806104df8661065c565b915091506000806104ee610beb565b915091508061ffff168761ffff16106105495760405162461bcd60e51b815260206004820152600f60248201527f58206f7574206f6620626f756e6473000000000000000000000000000000000060448201526064016102df565b8161ffff168661ffff16106105a05760405162461bcd60e51b815260206004820152600f60248201527f59206f7574206f6620626f756e6473000000000000000000000000000000000060448201526064016102df565b6105ac84848989610c68565b61ffff166001146105ff5760405162461bcd60e51b815260206004820152601e60248201527f43616e206f6e6c79206d6f766520312074696c6520617420612074696d65000060448201526064016102df565b61060c8885858a8a610cd6565b6106168787610dd2565b5050505050505050565b60006101ee6111df565b7fffffffffffffffffffffffffffffffffffffffffffffffffffffffffffffffcc36013560601c806106595750335b90565b6040805160018082528183019092526000918291829160208083019080368337019050509050838160008151811061069657610696613a57565b6020908102919091010152600080806106ef7f74625544000000000000000000000000506f736974696f6e0000000000000000857e040200020200000000000000000000000000000000000000000000000000006111e9565b9250925092506107008383836112b9565b9550955050505050915091565b604080516002808252606080830184529260009291906020830190803683370190505090508361ffff1660001b8160008151811061074d5761074d613a57565b6020026020010181815250508261ffff1660001b8160018151811061077457610774613a57565b602090810291909101015260006107ac7f74625544000000000000000000000000456e7469746965734174506f7369746983836112dc565b90506107c36107be82600084516113a3565b611431565b95945050505050565b60408051600180825281830190925260009182919060208083019080368337019050509050828160008151811061080557610805613a57565b6020908102919091010152600061085e7f74625544000000000000000000000000436861726163746572730000000000008360017e55040020142001000000000000000000000000000000000000000000000000611442565b60601c949350505050565b6040805160018082528183019092526000918291906020808301908036833701905050905082816000815181106108a2576108a2613a57565b602090810291909101015260006108fa7f74625544000000000000000000000000537061776e656400000000000000000083837e01010001000000000000000000000000000000000000000000000000000000611442565b90506109068160f81c90565b949350505050565b6040805160f084811b7fffff0000000000000000000000000000000000000000000000000000000000009081166020808501919091529185901b166022830152825160048184030181526001602484018181526064850190955290936000936060938593916044019080368337019050509050868160008151811061099557610995613a57565b60209081029190910101526109cd7f74625544000000000000000000000000506f736974696f6e0000000000000000828686866114ff565b50505050505050565b604080516001808252818301909252600091602080830190803683370190505090508281600081518110610a0c57610a0c613a57565b602002602001018181525050610a8f7f74625544000000000000000000000000537061776e656400000000000000000060001b82600085604051602001610a5a91151560f81b815260010190565b60408051601f198184030181529190527e010100010000000000000000000000000000000000000000000000000000006115b0565b505050565b6040805160028082526060820183526000926020830190803683370190505090508361ffff1660001b81600081518110610ad057610ad0613a57565b6020026020010181815250508261ffff1660001b81600181518110610af757610af7613a57565b602002602001018181525050610b547f74625544000000000000000000000000456e7469746965734174506f7369746960001b82600085604051602001610b4091815260200190565b604051602081830303815290604052611626565b50505050565b604080516001808252818301909252600091829190602080830190803683370190505090508281600081518110610b9357610b93613a57565b602090810291909101015260006109067f746255440000000000000000000000004d61746368456e74697479000000000083837e41030020200100000000000000000000000000000000000000000000000000611442565b60408051600080825260208201909252819060008080610c4b7f746255440000000000000000000000004d6170436f6e66696700000000000000857e040200020200000000000000000000000000000000000000000000000000006111e9565b925092509250610c5c8383836112b9565b95509550505050509091565b6000808361ffff168661ffff1611610c8957610c848685613a83565b610c93565b610c938487613a83565b905060008361ffff168661ffff1611610cb557610cb08685613a83565b610cbf565b610cbf8487613a83565b9050610ccb8183613aa5565b979650505050505050565b6000610ce28585610236565b90506000805b8251811015610d6e5787838281518110610d0457610d04613a57565b602002602001015103610d5c576001915060008360018551610d269190613ac0565b81518110610d3657610d36613a57565b60200260200101519050610d4c888884846116d8565b610d5688886117a3565b50610d6e565b80610d6681613ad3565b915050610ce8565b5080610dbc5760405162461bcd60e51b815260206004820152601f60248201527f456e7469747920776173206e6f74206174207468617420706f736974696f6e0060448201526064016102df565b610dc787858561090e565b6109cd848489610a94565b6000610de96000808561ffff168561ffff16611843565b61ffff16905080600003610dfc57505050565b6000806005831015610e145750600190506006610e1c565b5060069050600b5b600060ff83165b8260ff16811015610e4b57610e3781611861565b610e419083613aed565b9150600101610e23565b5060008167ffffffffffffffff811115610e6757610e67613a41565b604051908082528060200260200182016040528015610e90578160200160208202803683370190505b509050600060ff85165b8460ff16811015610f14576000610eb0826118e1565b905060005b8151811015610f0a57818181518110610ed057610ed0613a57565b6020026020010151858581518110610eea57610eea613a57565b602090810291909101015283610eff81613ad3565b945050600101610eb5565b5050600101610e9a565b506000825111610f8c5760405162461bcd60e51b815260206004820152602760248201527f4e6f206d6f6e737465727320617661696c61626c6520666f722074686973206460448201527f697374616e63650000000000000000000000000000000000000000000000000060648201526084016102df565b606046617a69036110265773__$227e4555c1f608352b26068e438454dd8b$__63bc3a86cf610fbc600842613be4565b6040518263ffffffff1660e01b8152600401610fda91815260200190565b600060405180830381865af4158015610ff7573d6000803e3d6000fd5b505050506040513d6000823e601f3d908101601f1916820160405261101f9190810190613c24565b90506110b9565b6040517fbc3a86cf00000000000000000000000000000000000000000000000000000000815244600482015273__$227e4555c1f608352b26068e438454dd8b$__9063bc3a86cf90602401600060405180830381865af415801561108e573d6000803e3d6000fd5b505050506040513d6000823e601f3d908101601f191682016040526110b69190810190613c24565b90505b60005b600682600184516110cd9190613ac0565b815181106110dd576110dd613a57565b60200260200101516110ef9190613cf6565b63ffffffff168110156111d3576111ca84855184848151811061111457611114613a57565b602002602001015163ffffffff1661112c9190613d19565b8151811061113c5761113c613a57565b60200260200101518b8b60405160240161116d9392919092835261ffff918216602084015216604082015260600190565b60408051601f198184030181529190526020810180517bffffffffffffffffffffffffffffffffffffffffffffffffffffffff167f15bc424800000000000000000000000000000000000000000000000000000000179052611968565b506001016110bc565b50505050505050505050565b60006101ee611a16565b60606000606060006111f9611a16565b9050306001600160a01b0382160361122257611216878787611a55565b935093509350506112b0565b6040517f419b58fd0000000000000000000000000000000000000000000000000000000081526001600160a01b0382169063419b58fd9061126b908a908a908a90600401613d2d565b600060405180830381865afa158015611288573d6000803e3d6000fd5b505050506040513d6000823e601f3d908101601f191682016040526112169190810190613dde565b93509350939050565b60208301516022840151600091829160f091821c911c5b90969095509350505050565b606060006112e8611a16565b9050306001600160a01b0382160361130d57611305858585611b5d565b915050610242565b6040517f1e7889770000000000000000000000000000000000000000000000000000000081526001600160a01b03821690631e7889779061135690889088908890600401613e4b565b600060405180830381865afa158015611373573d6000803e3d6000fd5b505050506040513d6000823e601f3d908101601f191682016040526113059190810190613e77565b509392505050565b6000818311806113b35750835182115b156113f0578383836040517f23230fa30000000000000000000000000000000000000000000000000000000081526004016102df93929190613ed8565b602084016113fe8482613aed565b9050600061140c8585613ac0565b6fffffffffffffffffffffffffffffffff1660809290921b9190911795945050505050565b606060006102428360206000611b97565b60008061144d611a16565b9050306001600160a01b038216036114735761146b86868686611c12565b915050610906565b6040517f8c364d590000000000000000000000000000000000000000000000000000000081526001600160a01b03821690638c364d59906114be908990899089908990600401613efd565b602060405180830381865afa1580156114db573d6000803e3d6000fd5b505050506040513d601f19601f8201168201806040525081019061146b9190613f2c565b6000611509611a16565b9050306001600160a01b0382160361152d576115288686868686611c3f565b6115a8565b6040517f298314fb0000000000000000000000000000000000000000000000000000000081526001600160a01b0382169063298314fb9061157a9089908990899089908990600401613f45565b600060405180830381600087803b15801561159457600080fd5b505af11580156111d3573d6000803e3d6000fd5b505050505050565b60006115ba611a16565b9050306001600160a01b038216036115d9576115288686868686611c55565b6040517f390baae00000000000000000000000000000000000000000000000000000000081526001600160a01b0382169063390baae09061157a9089908990899089908990600401613f8a565b6000611630611a16565b9050306001600160a01b038216036116535761164e85858585611c6a565b6116d1565b6040517f150f32620000000000000000000000000000000000000000000000000000000081526001600160a01b0382169063150f32629061169e908890889088908890600401613fd1565b600060405180830381600087803b1580156116b857600080fd5b505af11580156116cc573d6000803e3d6000fd5b505050505b5050505050565b6040805160028082526060820183526000926020830190803683370190505090508461ffff1660001b8160008151811061171457611714613a57565b6020026020010181815250508361ffff1660001b8160018151811061173b5761173b613a57565b60200260200101818152505060008260405160200161175c91815260200190565b60405160208183030381529060405290506115a87f74625544000000000000000000000000456e7469746965734174506f7369746960001b83600087602002855186611ca5565b6040805160028082526060820183526000926020830190803683370190505090508261ffff1660001b816000815181106117df576117df613a57565b6020026020010181815250508161ffff1660001b8160018151811061180657611806613a57565b602002602001018181525050610a8f7f74625544000000000000000000000000456e7469746965734174506f7369746960001b8260006020611d5e565b60006107c36118528685611dd1565b61185c8685611dd1565b611df3565b604080516001808252818301909252600091829190602080830190803683370190505090508260001b8160008151811061189d5761189d613a57565b602090810291909101015260006118d57f746255440000000000000000000000004d6f627342794c6576656c00000000008383611e0a565b60209004949350505050565b60408051600180825281830190925260609160009190602080830190803683370190505090508260001b8160008151811061191e5761191e613a57565b602090810291909101015260006119567f746255440000000000000000000000004d6f627342794c6576656c000000000083836112dc565b90506109066107be82600084516113a3565b606060008061197e61197985614005565b611ebc565b91509150816000801b036119e4576040517ffdde54e20000000000000000000000000000000000000000000000000000000081527fffffffff000000000000000000000000000000000000000000000000000000006000351660048201526024016102df565b6020840180517bffffffffffffffffffffffffffffffffffffffffffffffffffffffff16821790526109068285611f7f565b7f629a4c26e296b22a8e0856e9f6ecb2d1008d7e00081111962cd175fa7488e175546000906001600160a01b031680611a50573391505090565b919050565b6060600060606000611a668561205a565b9050611a7387878361207d565b93506000611a80866120b6565b90508015611b5257611a9288886120f3565b935066ffffffffffffff841667ffffffffffffffff811115611ab657611ab6613a41565b6040519080825280601f01601f191660200182016040528015611ae0576020820181803683370190505b5092506020830160005b828160ff161015611b4f576000611b028b8b84612106565b90506000611b1f888460ff166028026038011c64ffffffffff1690565b9050611b2e8260008387612186565b611b388185613aed565b935050508080611b4790614055565b915050611aea565b50505b505093509350939050565b6060610906611b6d858585612106565b6000611b9285611b7d89896120f3565b9060ff166028026038011c64ffffffffff1690565b612252565b60606000611ba58560801c90565b90506fffffffffffffffffffffffffffffffff85166000858281611bcb57611bcb613ce0565b04905060405193506020840160208202810160405281855260005b82811015611c06578451871c825293870193602090910190600101611be6565b50505050509392505050565b60006107c3611c218686612275565b60ff858116601b0360080285901c16611c3a85876122cb565b6122fc565b6116d18585858585611c508b61234d565b6123d2565b6116d18585611c6484876122cb565b8561270b565b6000611c7685856120f3565b90506000611c93828560ff166028026038011c64ffffffffff1690565b90506115a886868684600088886129a6565b6000611caf611a16565b9050306001600160a01b03821603611cd457611ccf878787878787612de0565b6109cd565b6040517fc0a2895a0000000000000000000000000000000000000000000000000000000081526001600160a01b0382169063c0a2895a90611d23908a908a908a908a908a908a90600401614074565b600060405180830381600087803b158015611d3d57600080fd5b505af1158015611d51573d6000803e3d6000fd5b5050505050505050505050565b6000611d68611a16565b9050306001600160a01b03821603611d865761164e85858585612df8565b6040517fd9c03a040000000000000000000000000000000000000000000000000000000081526001600160a01b0382169063d9c03a049061169e908890889088908890600401613efd565b6000818311611de957611de48383613ac0565b610242565b6102428284613ac0565b600081831015611e035781610242565b5090919050565b600080611e15611a16565b9050306001600160a01b03821603611e3257611305858585612e51565b6040517fdbbf0e210000000000000000000000000000000000000000000000000000000081526001600160a01b0382169063dbbf0e2190611e7b90889088908890600401613e4b565b602060405180830381865afa158015611e98573d6000803e3d6000fd5b505050506040513d601f19601f820116820180604052508101906113059190613f2c565b6040805160018082528183019092526000918291829160208083019080368337019050509050837bffffffffffffffffffffffffffffffffffffffffffffffffffffffff191681600081518110611f1557611f15613a57565b602090810291909101015260008080611f6e7f7462776f726c6400000000000000000046756e6374696f6e53656c6563746f72857e240200200400000000000000000000000000000000000000000000000000006111e9565b925092509250610700838383612e61565b60606000611f8b6111df565b90506001600160a01b0381163003611fcc576000611fb3611faa61062a565b60008787612e6d565b9350905080611fc557611fc583612fa8565b50506101de565b6040517f3ae7af080000000000000000000000000000000000000000000000000000000081526001600160a01b03821690633ae7af089061201390879087906004016140ca565b6000604051808303816000875af1158015612032573d6000803e3d6000fd5b505050506040513d6000823e601f3d908101601f191682016040526109069190810190613e77565b6000600861206a60026020613ac0565b61207491906140e3565b9190911c919050565b60608160000361209c5750604080516020810190915260008152610242565b60006120a88585612275565b90506107c381600085612252565b600060086001806120c960026020613ac0565b6120d39190613ac0565b6120dd9190613ac0565b6120e791906140e3565b8260ff911c1692915050565b60006102426121028484612fb0565b5490565b6000838360405160200161211b9291906140fa565b604051602081830303815290604052805190602001208260f81b7effffffffffffffffffffffffffffffffffffffffffffffffffffffffffffff19167f3b4102da22e32d82fc925482184f16c09fd4281692720b87d124aef6da48a0f1181860001c90509392505050565b821561220d57602083106121b0576020830484019350602083816121ac576121ac613ce0565b0692505b821561220d5760208390036000818410156121d35750600019600884021c6121dd565b50600019600882021c5b8554600886021b8184511682198216178452508184116121fe575050610b54565b50600194909401939182900391015b5b6020821061222f5783548152600190930192601f199091019060200161220e565b8115610b54576000600019600884021c8251865482191691161782525050505050565b60405160208101601f19603f848401011660405282825261139b85858584612186565b6000828260405160200161228a9291906140fa565b60408051601f1981840301815291905280516020909101207f86425bff6b57326c7859e89024fe4f238ca327a1ae4a230180dd2f0e88aaa7d9189392505050565b600080805b8360ff1681101561139b576122f260ff601b83900360080287901c1683613aed565b91506001016122d0565b6000602082106123225760208204840193506020828161231e5761231e613ce0565b0691505b508254600882021b60208290038084111561139b576001850154600882021c82179150509392505050565b60007f8b9d8c8b908d9affffffffffffffffffab9e9d939a8d00000000000000000000820161239c57507e60030220202000000000000000000000000000000000000000000000000000919050565b6101de6123c97f746273746f72650000000000000000005461626c65730000000000000000000084613006565b602060006122fc565b7f6f74000000000000000000000000000000000000000000000000000000000000867fffff000000000000000000000000000000000000000000000000000000000000160361245e57857f8dbb3a9672eebfd3773e72dd9c102393436816d832c7ba9e1e1ac8fcadcac7a9868686866040516124519493929190614136565b60405180910390a26115a8565b600061246987613022565b905060005b815181101561254257600082828151811061248b5761248b613a57565b602002602001015190506124b76001826affffffffffffffffffffff19166130ab90919063ffffffff16565b15612539576040517f57066c9c000000000000000000000000000000000000000000000000000000008152606082901c906357066c9c90612506908c908c908c908c908c908c90600401614175565b600060405180830381600087803b15801561252057600080fd5b505af1158015612534573d6000803e3d6000fd5b505050505b5060010161246e565b50867f8dbb3a9672eebfd3773e72dd9c102393436816d832c7ba9e1e1ac8fcadcac7a9878787876040516125799493929190614136565b60405180910390a2600061258d8888612275565b905060006020870190506125a58260008951846130c9565b60006125b0856120b6565b11156126345760006125c28a8a612fb0565b878155905060208601915060008060005b6125dc886120b6565b8160ff16101561262f576125f18d8d83612106565b925061260c8a8260ff166028026038011c64ffffffffff1690565b915061261b83600084886130c9565b6126258286613aed565b94506001016125d3565b505050505b60005b83518110156111d357600084828151811061265457612654613a57565b602002602001015190506126806002826affffffffffffffffffffff19166130ab90919063ffffffff16565b15612702576040517f5b28cdaf000000000000000000000000000000000000000000000000000000008152606082901c90635b28cdaf906126cf908e908e908e908e908e908e90600401614175565b600060405180830381600087803b1580156126e957600080fd5b505af11580156126fd573d6000803e3d6000fd5b505050505b50600101612637565b7f6f74000000000000000000000000000000000000000000000000000000000000847fffff000000000000000000000000000000000000000000000000000000000000160361279557837f8c0b5119d4cec7b284c6b1b39252a03d1e2f2d7451a5895562524c113bb952be848484604051612788939291906141ce565b60405180910390a2610b54565b60006127a18585612275565b905060006127ae86613022565b905060005b81518110156128835760008282815181106127d0576127d0613a57565b602002602001015190506127fc6004826affffffffffffffffffffff19166130ab90919063ffffffff16565b1561287a576040517f964f667d000000000000000000000000000000000000000000000000000000008152606082901c9063964f667d90612847908b908b908b908b9060040161420b565b600060405180830381600087803b15801561286157600080fd5b505af1158015612875573d6000803e3d6000fd5b505050505b506001016127b3565b50857f8c0b5119d4cec7b284c6b1b39252a03d1e2f2d7451a5895562524c113bb952be8686866040516128b8939291906141ce565b60405180910390a26128d3828565ffffffffffff1685613188565b60005b81518110156109cd5760008282815181106128f3576128f3613a57565b6020026020010151905061291f6008826affffffffffffffffffffff19166130ab90919063ffffffff16565b1561299d576040517fa8ba8721000000000000000000000000000000000000000000000000000000008152606082901c9063a8ba87219061296a908b908b908b908b9060040161420b565b600060405180830381600087803b15801561298457600080fd5b505af1158015612998573d6000803e3d6000fd5b505050505b506001016128d6565b7f7462000000000000000000000000000000000000000000000000000000000000877fffff0000000000000000000000000000000000000000000000000000000000001614612a66577f74620000000000000000000000000000000000000000000000000000000000008788604051602001612a2491815260200190565b60408051601f19818403018152908290527f31b466830000000000000000000000000000000000000000000000000000000082526102df939291600401614244565b6000612a81828760ff166028026038011c64ffffffffff1690565b9050600083518564ffffffffff1683612a9a9190613ac0565b612aa49190613aed565b9050808214158015612ac6575081612abc8688614285565b64ffffffffff1614155b15612b16576040517fa65010b400000000000000000000000000000000000000000000000000000000815264ffffffffff80881660048301528087166024830152831660448201526064016102df565b818664ffffffffff161115612b67576040517f7e8578d30000000000000000000000000000000000000000000000000000000081526004810183905264ffffffffff871660248201526044016102df565b6000612b7484898461319e565b90506000612b818b613022565b905060005b8151811015612c4c576000828281518110612ba357612ba3613a57565b60200260200101519050612bcf6010826affffffffffffffffffffff19166130ab90919063ffffffff16565b15612c4357606081901c6001600160a01b03166355eb5a288e8e8e8e8e8d8f6040518863ffffffff1660e01b8152600401612c1097969594939291906142a3565b600060405180830381600087803b158015612c2a57600080fd5b505af1158015612c3e573d6000803e3d6000fd5b505050505b50600101612b86565b5064ffffffffff881660005b8a60ff168160ff161015612c8b57612c7f878260ff166028026038011c64ffffffffff1690565b90910190600101612c58565b508b7ffe158a7adba34e256807c8a149028d3162918713c3838afc643ce9f96716ebfd8c8c848c888d604051612cc696959493929190614301565b60405180910390a250828414612ce7576000612ce28c8c612fb0565b839055505b6000612cf48c8c8c612106565b9050612d08818a64ffffffffff1689613188565b5060005b8151811015612dd2576000828281518110612d2957612d29613a57565b60200260200101519050612d556020826affffffffffffffffffffff19166130ab90919063ffffffff16565b15612dc957606081901c6001600160a01b031663635845338e8e8e8e8e8a8f6040518863ffffffff1660e01b8152600401612d9697969594939291906142a3565b600060405180830381600087803b158015612db057600080fd5b505af1158015612dc4573d6000803e3d6000fd5b505050505b50600101612d0c565b505050505050505050505050565b6115a8868686868686612df38d8d6120f3565b6129a6565b6000612e0485856120f3565b90506000612e21828560ff166028026038011c64ffffffffff1690565b90506115a8868686612e3a8764ffffffffff8716613ac0565b6040805160008152602081019091528890886129a6565b600061090682611b7d86866120f3565b6000806112d08561326c565b60006060600080612e7d86613281565b90925090506001600160a01b038216612ece5785612e9a87613325565b6040517ffbf10ce60000000000000000000000000000000000000000000000000000000081526004016102df9291906140ca565b80612edd57612edd8689613462565b8615612f49577dffffffffffffffffffffffffffff0000000000000000000000000000000086167f6e73000000000000000000000000000000000000000000000000000000000000176000612f31826134ae565b9050612f4682612f418b84613aed565b61353f565b50505b6000612f558760101b90565b7fffffffffffffffffffffffffffff0000000000000000000000000000000000001614612f8d57612f88888884886135f3565b612f99565b612f998888848861366b565b90999098509650505050505050565b805160208201fd5b60008282604051602001612fc59291906140fa565b60408051601f1981840301815291905280516020909101207f14e2fcc58e58e68ec7edc30c8d50dccc3ce2714a623ec81f46b6a63922d76569189392505050565b604080516020810184905290810182905260009060600161228a565b6040805160018082528183019092526060916000919060208083019080368337019050509050828160008151811061305c5761305c613a57565b602090810291909101015260006130947f746273746f726500000000000000000053746f7265486f6f6b730000000000008383611b5d565b90506109066130a682600084516113a3565b6136cc565b60008160ff16826130bc8560581c90565b1660ff1614905092915050565b821561314357602083106130f3576020830484019350602083816130ef576130ef613ce0565b0692505b82156131435760208390036000600019600885021c1990506008850281811c91508351811c9050811987541682821617875550818411613134575050610b54565b50600194909401939182900391015b5b602082106131655780518455600190930192601f1990910190602001613144565b8115610b54576000600019600884021c8554835182191691161785555050505050565b610a8f838383516131998560200190565b6130c9565b600064ffffffffff8211156131e2576040517f7149a3c1000000000000000000000000000000000000000000000000000000008152600481018390526024016102df565b8366ffffffffffffff811660ff851660280260380182901c64ffffffffff16808510613214578085038201915061321c565b848103820391505b5064ffffffffff6038602860ff8816020181811b197fffffffffffffffffffffffffffffffffffffffffffffffffff000000000000009490941690921792909216918416901b1790509392505050565b602081015160408201516000905b9050915091565b604080516001808252818301909252600091829182916020808301908036833701905050905083816000815181106132bb576132bb613a57565b6020908102919091010152600080806133147f7462776f726c6400000000000000000053797374656d73000000000000000000857e15020014010000000000000000000000000000000000000000000000000000611a55565b9250925092506107008383836136dd565b606081601081901b6000613338836136e9565b9050827fffffffffffffffffffffffffffff0000000000000000000000000000000000008316156133935761338e7fffffffffffffffffffffffffffff0000000000000000000000000000000000008416613700565b6133ca565b6040518060400160405280600681526020017f3c726f6f743e00000000000000000000000000000000000000000000000000008152505b7fffffffffffffffffffffffffffffffff00000000000000000000000000000000831615613400576133fb83613700565b613437565b6040518060400160405280600681526020017f3c726f6f743e00000000000000000000000000000000000000000000000000008152505b60405160200161344993929190614350565b6040516020818303038152906040529350505050919050565b61346c82826137a4565b6103615761347982613325565b816040517fd787b7370000000000000000000000000000000000000000000000000000000081526004016102df9291906143de565b6040805160018082528183019092526000918291906020808301908036833701905050905082816000815181106134e7576134e7613a57565b602090810291909101015260006109067f7462776f726c6400000000000000000042616c616e636573000000000000000083837e20010020000000000000000000000000000000000000000000000000000000611c12565b60408051600180825281830190925260009160208083019080368337019050509050828160008151811061357557613575613a57565b602002602001018181525050610a8f7f7462776f726c6400000000000000000042616c616e636573000000000000000060001b826000856040516020016135be91815260200190565b60408051601f198184030181529190527e20010020000000000000000000000000000000000000000000000000000000611c55565b60006060836001600160a01b0316600061360e858989613802565b60405161361b9190614409565b60006040518083038185875af1925050503d8060008114613658576040519150601f19603f3d011682016040523d82523d6000602084013e61365d565b606091505b509097909650945050505050565b60006060836001600160a01b0316613684848888613802565b6040516136919190614409565b600060405180830381855af49150503d8060008114613658576040519150601f19603f3d011682016040523d82523d6000602084013e61365d565b606060006102428360156000611b97565b6000806112d085613831565b60006136f760706010613aed565b9190911b919050565b606060005b6010811015613765577fffffffffffffffffffffffffffffffff000000000000000000000000000000008316600882021b7fff00000000000000000000000000000000000000000000000000000000000000161561376557600101613705565b604080517fffffffffffffffffffffffffffffffff00000000000000000000000000000000851660208201528151603090910190915281815280610906565b60006137f27f6e730000000000000000000000000000000000000000000000000000000000007dffffffffffffffffffffffffffff000000000000000000000000000000008516178361384d565b806102425750610242838361384d565b606083838360405160200161381993929190614425565b60405160208183030381529060405290509392505050565b6020810151603482015160609190911c9060009060f81c61327a565b60408051600280825260608201835260009283929190602083019080368337019050509050838160008151811061388657613886613a57565b602002602001018181525050826001600160a01b031660001b816001815181106138b2576138b2613a57565b6020908102919091010152600061390a7f7462776f726c640000000000000000005265736f75726365416363657373000083837e01010001000000000000000000000000000000000000000000000000000000611c12565b90506107c38160f81c90565b60006020828403121561392857600080fd5b81357fffffffff000000000000000000000000000000000000000000000000000000008116811461024257600080fd5b803561ffff81168114611a5057600080fd5b60008060006060848603121561397f57600080fd5b8335925061398f60208501613958565b915061399d60408501613958565b90509250925092565b600080604083850312156139b957600080fd5b6139c283613958565b91506139d060208401613958565b90509250929050565b60008151808452602080850194506020840160005b83811015613a0a578151875295820195908201906001016139ee565b509495945050505050565b60208152600061024260208301846139d9565b600060208284031215613a3a57600080fd5b5035919050565b634e487b7160e01b600052604160045260246000fd5b634e487b7160e01b600052603260045260246000fd5b634e487b7160e01b600052601160045260246000fd5b61ffff828116828216039080821115613a9e57613a9e613a6d565b5092915050565b61ffff818116838216019080821115613a9e57613a9e613a6d565b818103818111156101de576101de613a6d565b60006000198203613ae657613ae6613a6d565b5060010190565b808201808211156101de576101de613a6d565b600181815b80851115613b3b578160001904821115613b2157613b21613a6d565b80851615613b2e57918102915b93841c9390800290613b05565b509250929050565b600082613b52575060016101de565b81613b5f575060006101de565b8160018114613b755760028114613b7f57613b9b565b60019150506101de565b60ff841115613b9057613b90613a6d565b50506001821b6101de565b5060208310610133831016604e8410600b8410161715613bbe575081810a6101de565b613bc88383613b00565b8060001904821115613bdc57613bdc613a6d565b029392505050565b600061024260ff841683613b43565b604051601f8201601f1916810167ffffffffffffffff81118282101715613c1c57613c1c613a41565b604052919050565b60006020808385031215613c3757600080fd5b825167ffffffffffffffff80821115613c4f57600080fd5b818501915085601f830112613c6357600080fd5b815181811115613c7557613c75613a41565b8060051b9150613c86848301613bf3565b8181529183018401918481019088841115613ca057600080fd5b938501935b83851015613cd4578451925063ffffffff83168314613cc45760008081fd5b8282529385019390850190613ca5565b98975050505050505050565b634e487b7160e01b600052601260045260246000fd5b600063ffffffff80841680613d0d57613d0d613ce0565b92169190910692915050565b600082613d2857613d28613ce0565b500690565b838152606060208201526000613d4660608301856139d9565b9050826040830152949350505050565b60005b83811015613d71578181015183820152602001613d59565b50506000910152565b600082601f830112613d8b57600080fd5b815167ffffffffffffffff811115613da557613da5613a41565b613db86020601f19601f84011601613bf3565b818152846020838601011115613dcd57600080fd5b610906826020830160208701613d56565b600080600060608486031215613df357600080fd5b835167ffffffffffffffff80821115613e0b57600080fd5b613e1787838801613d7a565b9450602086015193506040860151915080821115613e3457600080fd5b50613e4186828701613d7a565b9150509250925092565b838152606060208201526000613e6460608301856139d9565b905060ff83166040830152949350505050565b600060208284031215613e8957600080fd5b815167ffffffffffffffff811115613ea057600080fd5b61090684828501613d7a565b60008151808452613ec4816020860160208601613d56565b601f01601f19169290920160200192915050565b606081526000613eeb6060830186613eac565b60208301949094525060400152919050565b848152608060208201526000613f1660808301866139d9565b60ff949094166040830152506060015292915050565b600060208284031215613f3e57600080fd5b5051919050565b85815260a060208201526000613f5e60a08301876139d9565b8281036040840152613f708187613eac565b90508460608401528281036080840152613cd48185613eac565b85815260a060208201526000613fa360a08301876139d9565b60ff861660408401528281036060840152613fbe8186613eac565b9150508260808301529695505050505050565b848152608060208201526000613fea60808301866139d9565b60ff851660408401528281036060840152610ccb8185613eac565b6000815160208301517fffffffff000000000000000000000000000000000000000000000000000000008082169350600483101561404d5780818460040360031b1b83161693505b505050919050565b600060ff821660ff810361406b5761406b613a6d565b60010192915050565b86815260c06020820152600061408d60c08301886139d9565b60ff8716604084015264ffffffffff86811660608501528516608084015282810360a08401526140bd8185613eac565b9998505050505050505050565b8281526040602082015260006109066040830184613eac565b80820281158282048414176101de576101de613a6d565b8281526000602080830184516020860160005b828110156141295781518452928401929084019060010161410d565b5091979650505050505050565b60808152600061414960808301876139d9565b828103602084015261415b8187613eac565b90508460408401528281036060840152610ccb8185613eac565b86815260c06020820152600061418e60c08301886139d9565b82810360408401526141a08188613eac565b905085606084015282810360808401526141ba8186613eac565b9150508260a0830152979650505050505050565b6060815260006141e160608301866139d9565b65ffffffffffff8516602084015282810360408401526142018185613eac565b9695505050505050565b84815260806020820152600061422460808301866139d9565b65ffffffffffff851660408401528281036060840152610ccb8185613eac565b7fffff000000000000000000000000000000000000000000000000000000000000841681528260208201526060604082015260006107c36060830184613eac565b64ffffffffff818116838216019080821115613a9e57613a9e613a6d565b87815260e0602082015260006142bc60e08301896139d9565b60ff8816604084015264ffffffffff87811660608501528616608084015260a0830185905282810360c08401526142f38185613eac565b9a9950505050505050505050565b60c08152600061431460c08301896139d9565b60ff8816602084015265ffffffffffff8716604084015264ffffffffff8616606084015284608084015282810360a08401526140bd8185613eac565b7fffff0000000000000000000000000000000000000000000000000000000000008416815260007f3a0000000000000000000000000000000000000000000000000000000000000080600284015284516143b1816003860160208901613d56565b8084019050816003820152845191506143d1826004830160208801613d56565b0160040195945050505050565b6040815260006143f16040830185613eac565b90506001600160a01b03831660208301529392505050565b6000825161441b818460208701613d56565b9190910192915050565b60008451614437818460208901613d56565b60609490941b7fffffffffffffffffffffffffffffffffffffffff000000000000000000000000169190930190815260148101919091526034019291505056fea26469706673582212205d3e8808ebf5aef6fc81b73b6dddce87d7850d8653e3428b5489a7e1f85a351164736f6c63430008180033","linkReferences":{"src/libraries/LibChunks.sol":{"LibChunks":[{"start":4025,"length":20},{"start":4212,"length":20}]}}},"methodIdentifiers":{"_msgSender()":"119df25f","_msgValue()":"45ec9354","_world()":"e1af802c","getEntitiesAtPosition(uint16,uint16)":"69e10c7b","isAtPosition(bytes32,uint16,uint16)":"3fbf0c5a","move(bytes32,uint16,uint16)":"953717d1","spawn(bytes32)":"911c37ae","supportsInterface(bytes4)":"01ffc9a7"},"id":225}