{"abi":[{"type":"function","name":"_msgSender","inputs":[],"outputs":[{"name":"sender","type":"address","internalType":"address"}],"stateMutability":"view"},{"type":"function","name":"_msgValue","inputs":[],"outputs":[{"name":"value","type":"uint256","internalType":"uint256"}],"stateMutability":"pure"},{"type":"function","name":"_world","inputs":[],"outputs":[{"name":"","type":"address","internalType":"address"}],"stateMutability":"view"},{"type":"function","name":"getEntitiesAtPosition","inputs":[{"name":"x","type":"uint16","internalType":"uint16"},{"name":"y","type":"uint16","internalType":"uint16"}],"outputs":[{"name":"entitiesAtPosition","type":"bytes32[]","internalType":"bytes32[]"}],"stateMutability":"view"},{"type":"function","name":"isAtPosition","inputs":[{"name":"entityId","type":"bytes32","internalType":"bytes32"},{"name":"x","type":"uint16","internalType":"uint16"},{"name":"y","type":"uint16","internalType":"uint16"}],"outputs":[{"name":"_isAtPosition","type":"bool","internalType":"bool"}],"stateMutability":"view"},{"type":"function","name":"move","inputs":[{"name":"entityId","type":"bytes32","internalType":"bytes32"},{"name":"x","type":"uint16","internalType":"uint16"},{"name":"y","type":"uint16","internalType":"uint16"}],"outputs":[],"stateMutability":"nonpayable"},{"type":"function","name":"spawn","inputs":[{"name":"entityId","type":"bytes32","internalType":"bytes32"}],"outputs":[],"stateMutability":"nonpayable"},{"type":"function","name":"supportsInterface","inputs":[{"name":"interfaceId","type":"bytes4","internalType":"bytes4"}],"outputs":[{"name":"","type":"bool","internalType":"bool"}],"stateMutability":"pure"},{"type":"event","name":"Store_SetRecord","inputs":[{"name":"tableId","type":"bytes32","indexed":true,"internalType":"ResourceId"},{"name":"keyTuple","type":"bytes32[]","indexed":false,"internalType":"bytes32[]"},{"name":"staticData","type":"bytes","indexed":false,"internalType":"bytes"},{"name":"encodedLengths","type":"bytes32","indexed":false,"internalType":"EncodedLengths"},{"name":"dynamicData","type":"bytes","indexed":false,"internalType":"bytes"}],"anonymous":false},{"type":"event","name":"Store_SpliceDynamicData","inputs":[{"name":"tableId","type":"bytes32","indexed":true,"internalType":"ResourceId"},{"name":"keyTuple","type":"bytes32[]","indexed":false,"internalType":"bytes32[]"},{"name":"dynamicFieldIndex","type":"uint8","indexed":false,"internalType":"uint8"},{"name":"start","type":"uint48","indexed":false,"internalType":"uint48"},{"name":"deleteCount","type":"uint40","indexed":false,"internalType":"uint40"},{"name":"encodedLengths","type":"bytes32","indexed":false,"internalType":"EncodedLengths"},{"name":"data","type":"bytes","indexed":false,"internalType":"bytes"}],"anonymous":false},{"type":"event","name":"Store_SpliceStaticData","inputs":[{"name":"tableId","type":"bytes32","indexed":true,"internalType":"ResourceId"},{"name":"keyTuple","type":"bytes32[]","indexed":false,"internalType":"bytes32[]"},{"name":"start","type":"uint48","indexed":false,"internalType":"uint48"},{"name":"data","type":"bytes","indexed":false,"internalType":"bytes"}],"anonymous":false},{"type":"error","name":"EncodedLengths_InvalidLength","inputs":[{"name":"length","type":"uint256","internalType":"uint256"}]},{"type":"error","name":"Slice_OutOfBounds","inputs":[{"name":"data","type":"bytes","internalType":"bytes"},{"name":"start","type":"uint256","internalType":"uint256"},{"name":"end","type":"uint256","internalType":"uint256"}]},{"type":"error","name":"Store_IndexOutOfBounds","inputs":[{"name":"length","type":"uint256","internalType":"uint256"},{"name":"accessedIndex","type":"uint256","internalType":"uint256"}]},{"type":"error","name":"Store_InvalidResourceType","inputs":[{"name":"expected","type":"bytes2","internalType":"bytes2"},{"name":"resourceId","type":"bytes32","internalType":"ResourceId"},{"name":"resourceIdString","type":"string","internalType":"string"}]},{"type":"error","name":"Store_InvalidSplice","inputs":[{"name":"startWithinField","type":"uint40","internalType":"uint40"},{"name":"deleteCount","type":"uint40","internalType":"uint40"},{"name":"fieldLength","type":"uint40","internalType":"uint40"}]},{"type":"error","name":"World_AccessDenied","inputs":[{"name":"resource","type":"string","internalType":"string"},{"name":"caller","type":"address","internalType":"address"}]},{"type":"error","name":"World_FunctionSelectorNotFound","inputs":[{"name":"functionSelector","type":"bytes4","internalType":"bytes4"}]},{"type":"error","name":"World_ResourceNotFound","inputs":[{"name":"resourceId","type":"bytes32","internalType":"ResourceId"},{"name":"resourceIdString","type":"string","internalType":"string"}]}],"bytecode":{"object":"0x608060405234801561001057600080fd5b5061458c806100206000396000f3fe608060405234801561001057600080fd5b50600436106100885760003560e01c806369e10c7b1161005b57806369e10c7b146100fb578063911c37ae1461011b578063953717d114610130578063e1af802c1461014357600080fd5b806301ffc9a71461008d578063119df25f146100b55780633fbf0c5a146100d557806345ec9354146100e8575b600080fd5b6100a061009b3660046139f5565b61014b565b60405190151581526020015b60405180910390f35b6100bd6101e4565b6040516001600160a01b0390911681526020016100ac565b6100a06100e3366004613a49565b6101f3565b604051601f1936013581526020016100ac565b61010e610109366004613a85565b610236565b6040516100ac9190613af4565b61012e610129366004613b07565b610249565b005b61012e61013e366004613a49565b610365565b6100bd610620565b60007fffffffff0000000000000000000000000000000000000000000000000000000082167fb5dee1270000000000000000000000000000000000000000000000000000000014806101de57507fffffffff0000000000000000000000000000000000000000000000000000000082167f01ffc9a700000000000000000000000000000000000000000000000000000000145b92915050565b60006101ee61062a565b905090565b60008060006102018661065c565b915091508461ffff168261ffff1614801561022357508361ffff168161ffff16145b1561022d57600192505b50509392505050565b6060610242838361070d565b9392505050565b6000610254826107cc565b9050806001600160a01b03166102686101e4565b6001600160a01b0316146102e85760405162461bcd60e51b8152602060048201526024808201527f4f6e6c7920746865206f776e65722063616e20737061776e206120636861726160448201527f637465720000000000000000000000000000000000000000000000000000000060648201526084015b60405180910390fd5b6102f182610869565b1561033e5760405162461bcd60e51b815260206004820152601960248201527f43686172616374657220616c726561647920737061776e65640000000000000060448201526064016102df565b61034a8260008061090e565b6103558260016109d6565b61036160008084610a94565b5050565b6000610370846107cc565b9050806001600160a01b03166103846101e4565b6001600160a01b0316146104005760405162461bcd60e51b815260206004820152602360248201527f4f6e6c7920746865206f776e65722063616e206d6f766520612063686172616360448201527f746572000000000000000000000000000000000000000000000000000000000060648201526084016102df565b61040984610869565b6104555760405162461bcd60e51b815260206004820152601560248201527f436861726163746572206e6f7420737061776e6564000000000000000000000060448201526064016102df565b600061046085610b5a565b146104d35760405162461bcd60e51b815260206004820152602260248201527f43616e6e6f74206d6f7665207768696c6520696e20616e20656e636f756e746560448201527f722e00000000000000000000000000000000000000000000000000000000000060648201526084016102df565b6000806104df8661065c565b915091506000806104ee610beb565b915091508061ffff168761ffff16106105495760405162461bcd60e51b815260206004820152600f60248201527f58206f7574206f6620626f756e6473000000000000000000000000000000000060448201526064016102df565b8161ffff168661ffff16106105a05760405162461bcd60e51b815260206004820152600f60248201527f59206f7574206f6620626f756e6473000000000000000000000000000000000060448201526064016102df565b6105ac84848989610c68565b61ffff166001146105ff5760405162461bcd60e51b815260206004820152601e60248201527f43616e206f6e6c79206d6f766520312074696c6520617420612074696d65000060448201526064016102df565b61060c8885858a8a610cd6565b6106168787610dd2565b5050505050505050565b60006101ee61121e565b7fffffffffffffffffffffffffffffffffffffffffffffffffffffffffffffffcc36013560601c806106595750335b90565b6040805160018082528183019092526000918291829160208083019080368337019050509050838160008151811061069657610696613b36565b6020908102919091010152600080806106ef7f74625544000000000000000000000000506f736974696f6e0000000000000000857e04020002020000000000000000000000000000000000000000000000000000611228565b9250925092506107008383836112f8565b9550955050505050915091565b604080516002808252606080830184529260009291906020830190803683370190505090508361ffff1660001b8160008151811061074d5761074d613b36565b6020026020010181815250508261ffff1660001b8160018151811061077457610774613b36565b602090810291909101015260006107ac7f74625544000000000000000000000000456e7469746965734174506f73697469838361131b565b90506107c36107be82600084516113e2565b611470565b95945050505050565b60408051600180825281830190925260009182919060208083019080368337019050509050828160008151811061080557610805613b36565b6020908102919091010152600061085e7f74625544000000000000000000000000436861726163746572730000000000008360017e55040020142001000000000000000000000000000000000000000000000000611481565b60601c949350505050565b6040805160018082528183019092526000918291906020808301908036833701905050905082816000815181106108a2576108a2613b36565b602090810291909101015260006108fa7f74625544000000000000000000000000537061776e656400000000000000000083837e01010001000000000000000000000000000000000000000000000000000000611481565b90506109068160f81c90565b949350505050565b6040805160f084811b7fffff0000000000000000000000000000000000000000000000000000000000009081166020808501919091529185901b166022830152825160048184030181526001602484018181526064850190955290936000936060938593916044019080368337019050509050868160008151811061099557610995613b36565b60209081029190910101526109cd7f74625544000000000000000000000000506f736974696f6e00000000000000008286868661153e565b50505050505050565b604080516001808252818301909252600091602080830190803683370190505090508281600081518110610a0c57610a0c613b36565b602002602001018181525050610a8f7f74625544000000000000000000000000537061776e656400000000000000000060001b82600085604051602001610a5a91151560f81b815260010190565b60408051601f198184030181529190527e010100010000000000000000000000000000000000000000000000000000006115ef565b505050565b6040805160028082526060820183526000926020830190803683370190505090508361ffff1660001b81600081518110610ad057610ad0613b36565b6020026020010181815250508261ffff1660001b81600181518110610af757610af7613b36565b602002602001018181525050610b547f74625544000000000000000000000000456e7469746965734174506f7369746960001b82600085604051602001610b4091815260200190565b604051602081830303815290604052611665565b50505050565b604080516001808252818301909252600091829190602080830190803683370190505090508281600081518110610b9357610b93613b36565b602090810291909101015260006109067f746255440000000000000000000000004d61746368456e74697479000000000083837e41030020200100000000000000000000000000000000000000000000000000611481565b60408051600080825260208201909252819060008080610c4b7f746255440000000000000000000000004d6170436f6e66696700000000000000857e04020002020000000000000000000000000000000000000000000000000000611228565b925092509250610c5c8383836112f8565b95509550505050509091565b6000808361ffff168661ffff1611610c8957610c848685613b62565b610c93565b610c938487613b62565b905060008361ffff168661ffff1611610cb557610cb08685613b62565b610cbf565b610cbf8487613b62565b9050610ccb8183613b84565b979650505050505050565b6000610ce28585610236565b90506000805b8251811015610d6e5787838281518110610d0457610d04613b36565b602002602001015103610d5c576001915060008360018551610d269190613b9f565b81518110610d3657610d36613b36565b60200260200101519050610d4c88888484611717565b610d5688886117e2565b50610d6e565b80610d6681613bb2565b915050610ce8565b5080610dbc5760405162461bcd60e51b815260206004820152601f60248201527f456e7469747920776173206e6f74206174207468617420706f736974696f6e0060448201526064016102df565b610dc787858561090e565b6109cd848489610a94565b6000610de96000808561ffff168561ffff16611882565b61ffff16905080600003610dfc57505050565b6000806005831015610e145750600190506006610e1c565b5060069050600b5b600060ff83165b8260ff16811015610e4b57610e37816118a0565b610e419083613bcc565b9150600101610e23565b5060008167ffffffffffffffff811115610e6757610e67613b20565b604051908082528060200260200182016040528015610e90578160200160208202803683370190505b509050600060ff85165b8460ff16811015610f14576000610eb082611920565b905060005b8151811015610f0a57818181518110610ed057610ed0613b36565b6020026020010151858581518110610eea57610eea613b36565b602090810291909101015283610eff81613bb2565b945050600101610eb5565b5050600101610e9a565b506000825111610f8c5760405162461bcd60e51b815260206004820152602760248201527f4e6f206d6f6e737465727320617661696c61626c6520666f722074686973206460448201527f697374616e63650000000000000000000000000000000000000000000000000060648201526084016102df565b606046617a69036110265773__$227e4555c1f608352b26068e438454dd8b$__63bc3a86cf610fbc600842613cc3565b6040518263ffffffff1660e01b8152600401610fda91815260200190565b600060405180830381865af4158015610ff7573d6000803e3d6000fd5b505050506040513d6000823e601f3d908101601f1916820160405261101f9190810190613d03565b90506110b9565b6040517fbc3a86cf00000000000000000000000000000000000000000000000000000000815244600482015273__$227e4555c1f608352b26068e438454dd8b$__9063bc3a86cf90602401600060405180830381865af415801561108e573d6000803e3d6000fd5b505050506040513d6000823e601f3d908101601f191682016040526110b69190810190613d03565b90505b6110e2816000815181106110cf576110cf613b36565b602002602001015163ffffffff166119a7565b61110481600183516110f49190613b9f565b815181106110cf576110cf613b36565b60005b60068260008151811061111c5761111c613b36565b602002602001015161112e9190613dd5565b63ffffffff168110156112125761120984855184848151811061115357611153613b36565b602002602001015163ffffffff1661116b9190613df8565b8151811061117b5761117b613b36565b60200260200101518b8b6040516024016111ac9392919092835261ffff918216602084015216604082015260600190565b60408051601f198184030181529190526020810180517bffffffffffffffffffffffffffffffffffffffffffffffffffffffff167f15bc424800000000000000000000000000000000000000000000000000000000179052611a1d565b50600101611107565b50505050505050505050565b60006101ee611acb565b6060600060606000611238611acb565b9050306001600160a01b0382160361126157611255878787611b0a565b935093509350506112ef565b6040517f419b58fd0000000000000000000000000000000000000000000000000000000081526001600160a01b0382169063419b58fd906112aa908a908a908a90600401613e0c565b600060405180830381865afa1580156112c7573d6000803e3d6000fd5b505050506040513d6000823e601f3d908101601f191682016040526112559190810190613ebd565b93509350939050565b60208301516022840151600091829160f091821c911c5b90969095509350505050565b60606000611327611acb565b9050306001600160a01b0382160361134c57611344858585611c12565b915050610242565b6040517f1e7889770000000000000000000000000000000000000000000000000000000081526001600160a01b03821690631e7889779061139590889088908890600401613f2a565b600060405180830381865afa1580156113b2573d6000803e3d6000fd5b505050506040513d6000823e601f3d908101601f191682016040526113449190810190613f56565b509392505050565b6000818311806113f25750835182115b1561142f578383836040517f23230fa30000000000000000000000000000000000000000000000000000000081526004016102df93929190613fb7565b6020840161143d8482613bcc565b9050600061144b8585613b9f565b6fffffffffffffffffffffffffffffffff1660809290921b9190911795945050505050565b606060006102428360206000611c4c565b60008061148c611acb565b9050306001600160a01b038216036114b2576114aa86868686611cc7565b915050610906565b6040517f8c364d590000000000000000000000000000000000000000000000000000000081526001600160a01b03821690638c364d59906114fd908990899089908990600401613fdc565b602060405180830381865afa15801561151a573d6000803e3d6000fd5b505050506040513d601f19601f820116820180604052508101906114aa919061400b565b6000611548611acb565b9050306001600160a01b0382160361156c576115678686868686611cf4565b6115e7565b6040517f298314fb0000000000000000000000000000000000000000000000000000000081526001600160a01b0382169063298314fb906115b99089908990899089908990600401614024565b600060405180830381600087803b1580156115d357600080fd5b505af1158015611212573d6000803e3d6000fd5b505050505050565b60006115f9611acb565b9050306001600160a01b03821603611618576115678686868686611d0a565b6040517f390baae00000000000000000000000000000000000000000000000000000000081526001600160a01b0382169063390baae0906115b99089908990899089908990600401614069565b600061166f611acb565b9050306001600160a01b038216036116925761168d85858585611d1f565b611710565b6040517f150f32620000000000000000000000000000000000000000000000000000000081526001600160a01b0382169063150f3262906116dd9088908890889088906004016140b0565b600060405180830381600087803b1580156116f757600080fd5b505af115801561170b573d6000803e3d6000fd5b505050505b5050505050565b6040805160028082526060820183526000926020830190803683370190505090508461ffff1660001b8160008151811061175357611753613b36565b6020026020010181815250508361ffff1660001b8160018151811061177a5761177a613b36565b60200260200101818152505060008260405160200161179b91815260200190565b60405160208183030381529060405290506115e77f74625544000000000000000000000000456e7469746965734174506f7369746960001b83600087602002855186611d5a565b6040805160028082526060820183526000926020830190803683370190505090508261ffff1660001b8160008151811061181e5761181e613b36565b6020026020010181815250508161ffff1660001b8160018151811061184557611845613b36565b602002602001018181525050610a8f7f74625544000000000000000000000000456e7469746965734174506f7369746960001b8260006020611e13565b60006107c36118918685611e86565b61189b8685611e86565b611ea8565b604080516001808252818301909252600091829190602080830190803683370190505090508260001b816000815181106118dc576118dc613b36565b602090810291909101015260006119147f746255440000000000000000000000004d6f627342794c6576656c00000000008383611ebf565b60209004949350505050565b60408051600180825281830190925260609160009190602080830190803683370190505090508260001b8160008151811061195d5761195d613b36565b602090810291909101015260006119957f746255440000000000000000000000004d6f627342794c6576656c0000000000838361131b565b90506109066107be82600084516113e2565b611a1a816040516024016119bd91815260200190565b60408051601f198184030181529190526020810180517bffffffffffffffffffffffffffffffffffffffffffffffffffffffff167ff82c50f100000000000000000000000000000000000000000000000000000000179052611f71565b50565b6060600080611a33611a2e856140e4565b611f7a565b91509150816000801b03611a99576040517ffdde54e20000000000000000000000000000000000000000000000000000000081527fffffffff000000000000000000000000000000000000000000000000000000006000351660048201526024016102df565b6020840180517bffffffffffffffffffffffffffffffffffffffffffffffffffffffff1682179052610906828561203d565b7f629a4c26e296b22a8e0856e9f6ecb2d1008d7e00081111962cd175fa7488e175546000906001600160a01b031680611b05573391505090565b919050565b6060600060606000611b1b85612118565b9050611b2887878361213b565b93506000611b3586612174565b90508015611c0757611b4788886121b1565b935066ffffffffffffff841667ffffffffffffffff811115611b6b57611b6b613b20565b6040519080825280601f01601f191660200182016040528015611b95576020820181803683370190505b5092506020830160005b828160ff161015611c04576000611bb78b8b846121c4565b90506000611bd4888460ff166028026038011c64ffffffffff1690565b9050611be38260008387612244565b611bed8185613bcc565b935050508080611bfc90614134565b915050611b9f565b50505b505093509350939050565b6060610906611c228585856121c4565b6000611c4785611c3289896121b1565b9060ff166028026038011c64ffffffffff1690565b612310565b60606000611c5a8560801c90565b90506fffffffffffffffffffffffffffffffff85166000858281611c8057611c80613dbf565b04905060405193506020840160208202810160405281855260005b82811015611cbb578451871c825293870193602090910190600101611c9b565b50505050509392505050565b60006107c3611cd68686612333565b60ff858116601b0360080285901c16611cef8587612389565b6123ba565b6117108585858585611d058b61240b565b612490565b6117108585611d198487612389565b856127c9565b6000611d2b85856121b1565b90506000611d48828560ff166028026038011c64ffffffffff1690565b90506115e78686868460008888612a64565b6000611d64611acb565b9050306001600160a01b03821603611d8957611d84878787878787612e9e565b6109cd565b6040517fc0a2895a0000000000000000000000000000000000000000000000000000000081526001600160a01b0382169063c0a2895a90611dd8908a908a908a908a908a908a90600401614153565b600060405180830381600087803b158015611df257600080fd5b505af1158015611e06573d6000803e3d6000fd5b5050505050505050505050565b6000611e1d611acb565b9050306001600160a01b03821603611e3b5761168d85858585612eb6565b6040517fd9c03a040000000000000000000000000000000000000000000000000000000081526001600160a01b0382169063d9c03a04906116dd908890889088908890600401613fdc565b6000818311611e9e57611e998383613b9f565b610242565b6102428284613b9f565b600081831015611eb85781610242565b5090919050565b600080611eca611acb565b9050306001600160a01b03821603611ee757611344858585612f0f565b6040517fdbbf0e210000000000000000000000000000000000000000000000000000000081526001600160a01b0382169063dbbf0e2190611f3090889088908890600401613f2a565b602060405180830381865afa158015611f4d573d6000803e3d6000fd5b505050506040513d601f19601f82011682018060405250810190611344919061400b565b611a1a81612f1f565b6040805160018082528183019092526000918291829160208083019080368337019050509050837bffffffffffffffffffffffffffffffffffffffffffffffffffffffff191681600081518110611fd357611fd3613b36565b60209081029190910101526000808061202c7f7462776f726c6400000000000000000046756e6374696f6e53656c6563746f72857e24020020040000000000000000000000000000000000000000000000000000611228565b925092509250610700838383612f40565b6060600061204961121e565b90506001600160a01b038116300361208a57600061207161206861062a565b60008787612f4c565b93509050806120835761208383613087565b50506101de565b6040517f3ae7af080000000000000000000000000000000000000000000000000000000081526001600160a01b03821690633ae7af08906120d190879087906004016141a9565b6000604051808303816000875af11580156120f0573d6000803e3d6000fd5b505050506040513d6000823e601f3d908101601f191682016040526109069190810190613f56565b6000600861212860026020613b9f565b61213291906141c2565b9190911c919050565b60608160000361215a5750604080516020810190915260008152610242565b60006121668585612333565b90506107c381600085612310565b6000600860018061218760026020613b9f565b6121919190613b9f565b61219b9190613b9f565b6121a591906141c2565b8260ff911c1692915050565b60006102426121c0848461308f565b5490565b600083836040516020016121d99291906141d9565b604051602081830303815290604052805190602001208260f81b7effffffffffffffffffffffffffffffffffffffffffffffffffffffffffffff19167f3b4102da22e32d82fc925482184f16c09fd4281692720b87d124aef6da48a0f1181860001c90509392505050565b82156122cb576020831061226e5760208304840193506020838161226a5761226a613dbf565b0692505b82156122cb5760208390036000818410156122915750600019600884021c61229b565b50600019600882021c5b8554600886021b8184511682198216178452508184116122bc575050610b54565b50600194909401939182900391015b5b602082106122ed5783548152600190930192601f19909101906020016122cc565b8115610b54576000600019600884021c8251865482191691161782525050505050565b60405160208101601f19603f84840101166040528282526113da85858584612244565b600082826040516020016123489291906141d9565b60408051601f1981840301815291905280516020909101207f86425bff6b57326c7859e89024fe4f238ca327a1ae4a230180dd2f0e88aaa7d9189392505050565b600080805b8360ff168110156113da576123b060ff601b83900360080287901c1683613bcc565b915060010161238e565b6000602082106123e0576020820484019350602082816123dc576123dc613dbf565b0691505b508254600882021b6020829003808411156113da576001850154600882021c82179150509392505050565b60007f8b9d8c8b908d9affffffffffffffffffab9e9d939a8d00000000000000000000820161245a57507e60030220202000000000000000000000000000000000000000000000000000919050565b6101de6124877f746273746f72650000000000000000005461626c657300000000000000000000846130e5565b602060006123ba565b7f6f74000000000000000000000000000000000000000000000000000000000000867fffff000000000000000000000000000000000000000000000000000000000000160361251c57857f8dbb3a9672eebfd3773e72dd9c102393436816d832c7ba9e1e1ac8fcadcac7a98686868660405161250f9493929190614215565b60405180910390a26115e7565b600061252787613101565b905060005b815181101561260057600082828151811061254957612549613b36565b602002602001015190506125756001826affffffffffffffffffffff191661318a90919063ffffffff16565b156125f7576040517f57066c9c000000000000000000000000000000000000000000000000000000008152606082901c906357066c9c906125c4908c908c908c908c908c908c90600401614254565b600060405180830381600087803b1580156125de57600080fd5b505af11580156125f2573d6000803e3d6000fd5b505050505b5060010161252c565b50867f8dbb3a9672eebfd3773e72dd9c102393436816d832c7ba9e1e1ac8fcadcac7a9878787876040516126379493929190614215565b60405180910390a2600061264b8888612333565b905060006020870190506126638260008951846131a8565b600061266e85612174565b11156126f25760006126808a8a61308f565b878155905060208601915060008060005b61269a88612174565b8160ff1610156126ed576126af8d8d836121c4565b92506126ca8a8260ff166028026038011c64ffffffffff1690565b91506126d983600084886131a8565b6126e38286613bcc565b9450600101612691565b505050505b60005b835181101561121257600084828151811061271257612712613b36565b6020026020010151905061273e6002826affffffffffffffffffffff191661318a90919063ffffffff16565b156127c0576040517f5b28cdaf000000000000000000000000000000000000000000000000000000008152606082901c90635b28cdaf9061278d908e908e908e908e908e908e90600401614254565b600060405180830381600087803b1580156127a757600080fd5b505af11580156127bb573d6000803e3d6000fd5b505050505b506001016126f5565b7f6f74000000000000000000000000000000000000000000000000000000000000847fffff000000000000000000000000000000000000000000000000000000000000160361285357837f8c0b5119d4cec7b284c6b1b39252a03d1e2f2d7451a5895562524c113bb952be848484604051612846939291906142ad565b60405180910390a2610b54565b600061285f8585612333565b9050600061286c86613101565b905060005b815181101561294157600082828151811061288e5761288e613b36565b602002602001015190506128ba6004826affffffffffffffffffffff191661318a90919063ffffffff16565b15612938576040517f964f667d000000000000000000000000000000000000000000000000000000008152606082901c9063964f667d90612905908b908b908b908b906004016142ea565b600060405180830381600087803b15801561291f57600080fd5b505af1158015612933573d6000803e3d6000fd5b505050505b50600101612871565b50857f8c0b5119d4cec7b284c6b1b39252a03d1e2f2d7451a5895562524c113bb952be868686604051612976939291906142ad565b60405180910390a2612991828565ffffffffffff1685613267565b60005b81518110156109cd5760008282815181106129b1576129b1613b36565b602002602001015190506129dd6008826affffffffffffffffffffff191661318a90919063ffffffff16565b15612a5b576040517fa8ba8721000000000000000000000000000000000000000000000000000000008152606082901c9063a8ba872190612a28908b908b908b908b906004016142ea565b600060405180830381600087803b158015612a4257600080fd5b505af1158015612a56573d6000803e3d6000fd5b505050505b50600101612994565b7f7462000000000000000000000000000000000000000000000000000000000000877fffff0000000000000000000000000000000000000000000000000000000000001614612b24577f74620000000000000000000000000000000000000000000000000000000000008788604051602001612ae291815260200190565b60408051601f19818403018152908290527f31b466830000000000000000000000000000000000000000000000000000000082526102df939291600401614323565b6000612b3f828760ff166028026038011c64ffffffffff1690565b9050600083518564ffffffffff1683612b589190613b9f565b612b629190613bcc565b9050808214158015612b84575081612b7a8688614364565b64ffffffffff1614155b15612bd4576040517fa65010b400000000000000000000000000000000000000000000000000000000815264ffffffffff80881660048301528087166024830152831660448201526064016102df565b818664ffffffffff161115612c25576040517f7e8578d30000000000000000000000000000000000000000000000000000000081526004810183905264ffffffffff871660248201526044016102df565b6000612c3284898461327d565b90506000612c3f8b613101565b905060005b8151811015612d0a576000828281518110612c6157612c61613b36565b60200260200101519050612c8d6010826affffffffffffffffffffff191661318a90919063ffffffff16565b15612d0157606081901c6001600160a01b03166355eb5a288e8e8e8e8e8d8f6040518863ffffffff1660e01b8152600401612cce9796959493929190614382565b600060405180830381600087803b158015612ce857600080fd5b505af1158015612cfc573d6000803e3d6000fd5b505050505b50600101612c44565b5064ffffffffff881660005b8a60ff168160ff161015612d4957612d3d878260ff166028026038011c64ffffffffff1690565b90910190600101612d16565b508b7ffe158a7adba34e256807c8a149028d3162918713c3838afc643ce9f96716ebfd8c8c848c888d604051612d84969594939291906143e0565b60405180910390a250828414612da5576000612da08c8c61308f565b839055505b6000612db28c8c8c6121c4565b9050612dc6818a64ffffffffff1689613267565b5060005b8151811015612e90576000828281518110612de757612de7613b36565b60200260200101519050612e136020826affffffffffffffffffffff191661318a90919063ffffffff16565b15612e8757606081901c6001600160a01b031663635845338e8e8e8e8e8a8f6040518863ffffffff1660e01b8152600401612e549796959493929190614382565b600060405180830381600087803b158015612e6e57600080fd5b505af1158015612e82573d6000803e3d6000fd5b505050505b50600101612dca565b505050505050505050505050565b6115e7868686868686612eb18d8d6121b1565b612a64565b6000612ec285856121b1565b90506000612edf828560ff166028026038011c64ffffffffff1690565b90506115e7868686612ef88764ffffffffff8716613b9f565b604080516000815260208101909152889088612a64565b600061090682611c3286866121b1565b80516a636f6e736f6c652e6c6f67602083016000808483855afa5050505050565b60008061130f8561334b565b60006060600080612f5c86613360565b90925090506001600160a01b038216612fad5785612f7987613404565b6040517ffbf10ce60000000000000000000000000000000000000000000000000000000081526004016102df9291906141a9565b80612fbc57612fbc8689613541565b8615613028577dffffffffffffffffffffffffffff0000000000000000000000000000000086167f6e730000000000000000000000000000000000000000000000000000000000001760006130108261358d565b9050613025826130208b84613bcc565b61361e565b50505b60006130348760101b90565b7fffffffffffffffffffffffffffff000000000000000000000000000000000000161461306c57613067888884886136d2565b613078565b6130788888848861374a565b90999098509650505050505050565b805160208201fd5b600082826040516020016130a49291906141d9565b60408051601f1981840301815291905280516020909101207f14e2fcc58e58e68ec7edc30c8d50dccc3ce2714a623ec81f46b6a63922d76569189392505050565b6040805160208101849052908101829052600090606001612348565b6040805160018082528183019092526060916000919060208083019080368337019050509050828160008151811061313b5761313b613b36565b602090810291909101015260006131737f746273746f726500000000000000000053746f7265486f6f6b730000000000008383611c12565b905061090661318582600084516113e2565b6137ab565b60008160ff168261319b8560581c90565b1660ff1614905092915050565b821561322257602083106131d2576020830484019350602083816131ce576131ce613dbf565b0692505b82156132225760208390036000600019600885021c1990506008850281811c91508351811c9050811987541682821617875550818411613213575050610b54565b50600194909401939182900391015b5b602082106132445780518455600190930192601f1990910190602001613223565b8115610b54576000600019600884021c8554835182191691161785555050505050565b610a8f838383516132788560200190565b6131a8565b600064ffffffffff8211156132c1576040517f7149a3c1000000000000000000000000000000000000000000000000000000008152600481018390526024016102df565b8366ffffffffffffff811660ff851660280260380182901c64ffffffffff168085106132f357808503820191506132fb565b848103820391505b5064ffffffffff6038602860ff8816020181811b197fffffffffffffffffffffffffffffffffffffffffffffffffff000000000000009490941690921792909216918416901b1790509392505050565b602081015160408201516000905b9050915091565b6040805160018082528183019092526000918291829160208083019080368337019050509050838160008151811061339a5761339a613b36565b6020908102919091010152600080806133f37f7462776f726c6400000000000000000053797374656d73000000000000000000857e15020014010000000000000000000000000000000000000000000000000000611b0a565b9250925092506107008383836137bc565b606081601081901b6000613417836137c8565b9050827fffffffffffffffffffffffffffff0000000000000000000000000000000000008316156134725761346d7fffffffffffffffffffffffffffff00000000000000000000000000000000000084166137df565b6134a9565b6040518060400160405280600681526020017f3c726f6f743e00000000000000000000000000000000000000000000000000008152505b7fffffffffffffffffffffffffffffffff000000000000000000000000000000008316156134df576134da836137df565b613516565b6040518060400160405280600681526020017f3c726f6f743e00000000000000000000000000000000000000000000000000008152505b6040516020016135289392919061442f565b6040516020818303038152906040529350505050919050565b61354b8282613883565b6103615761355882613404565b816040517fd787b7370000000000000000000000000000000000000000000000000000000081526004016102df9291906144bd565b6040805160018082528183019092526000918291906020808301908036833701905050905082816000815181106135c6576135c6613b36565b602090810291909101015260006109067f7462776f726c6400000000000000000042616c616e636573000000000000000083837e20010020000000000000000000000000000000000000000000000000000000611cc7565b60408051600180825281830190925260009160208083019080368337019050509050828160008151811061365457613654613b36565b602002602001018181525050610a8f7f7462776f726c6400000000000000000042616c616e636573000000000000000060001b8260008560405160200161369d91815260200190565b60408051601f198184030181529190527e20010020000000000000000000000000000000000000000000000000000000611d0a565b60006060836001600160a01b031660006136ed8589896138e1565b6040516136fa91906144e8565b60006040518083038185875af1925050503d8060008114613737576040519150601f19603f3d011682016040523d82523d6000602084013e61373c565b606091505b509097909650945050505050565b60006060836001600160a01b03166137638488886138e1565b60405161377091906144e8565b600060405180830381855af49150503d8060008114613737576040519150601f19603f3d011682016040523d82523d6000602084013e61373c565b606060006102428360156000611c4c565b60008061130f85613910565b60006137d660706010613bcc565b9190911b919050565b606060005b6010811015613844577fffffffffffffffffffffffffffffffff000000000000000000000000000000008316600882021b7fff000000000000000000000000000000000000000000000000000000000000001615613844576001016137e4565b604080517fffffffffffffffffffffffffffffffff00000000000000000000000000000000851660208201528151603090910190915281815280610906565b60006138d17f6e730000000000000000000000000000000000000000000000000000000000007dffffffffffffffffffffffffffff000000000000000000000000000000008516178361392c565b806102425750610242838361392c565b60608383836040516020016138f893929190614504565b60405160208183030381529060405290509392505050565b6020810151603482015160609190911c9060009060f81c613359565b60408051600280825260608201835260009283929190602083019080368337019050509050838160008151811061396557613965613b36565b602002602001018181525050826001600160a01b031660001b8160018151811061399157613991613b36565b602090810291909101015260006139e97f7462776f726c640000000000000000005265736f75726365416363657373000083837e01010001000000000000000000000000000000000000000000000000000000611cc7565b90506107c38160f81c90565b600060208284031215613a0757600080fd5b81357fffffffff000000000000000000000000000000000000000000000000000000008116811461024257600080fd5b803561ffff81168114611b0557600080fd5b600080600060608486031215613a5e57600080fd5b83359250613a6e60208501613a37565b9150613a7c60408501613a37565b90509250925092565b60008060408385031215613a9857600080fd5b613aa183613a37565b9150613aaf60208401613a37565b90509250929050565b60008151808452602080850194506020840160005b83811015613ae957815187529582019590820190600101613acd565b509495945050505050565b6020815260006102426020830184613ab8565b600060208284031215613b1957600080fd5b5035919050565b634e487b7160e01b600052604160045260246000fd5b634e487b7160e01b600052603260045260246000fd5b634e487b7160e01b600052601160045260246000fd5b61ffff828116828216039080821115613b7d57613b7d613b4c565b5092915050565b61ffff818116838216019080821115613b7d57613b7d613b4c565b818103818111156101de576101de613b4c565b60006000198203613bc557613bc5613b4c565b5060010190565b808201808211156101de576101de613b4c565b600181815b80851115613c1a578160001904821115613c0057613c00613b4c565b80851615613c0d57918102915b93841c9390800290613be4565b509250929050565b600082613c31575060016101de565b81613c3e575060006101de565b8160018114613c545760028114613c5e57613c7a565b60019150506101de565b60ff841115613c6f57613c6f613b4c565b50506001821b6101de565b5060208310610133831016604e8410600b8410161715613c9d575081810a6101de565b613ca78383613bdf565b8060001904821115613cbb57613cbb613b4c565b029392505050565b600061024260ff841683613c22565b604051601f8201601f1916810167ffffffffffffffff81118282101715613cfb57613cfb613b20565b604052919050565b60006020808385031215613d1657600080fd5b825167ffffffffffffffff80821115613d2e57600080fd5b818501915085601f830112613d4257600080fd5b815181811115613d5457613d54613b20565b8060051b9150613d65848301613cd2565b8181529183018401918481019088841115613d7f57600080fd5b938501935b83851015613db3578451925063ffffffff83168314613da35760008081fd5b8282529385019390850190613d84565b98975050505050505050565b634e487b7160e01b600052601260045260246000fd5b600063ffffffff80841680613dec57613dec613dbf565b92169190910692915050565b600082613e0757613e07613dbf565b500690565b838152606060208201526000613e256060830185613ab8565b9050826040830152949350505050565b60005b83811015613e50578181015183820152602001613e38565b50506000910152565b600082601f830112613e6a57600080fd5b815167ffffffffffffffff811115613e8457613e84613b20565b613e976020601f19601f84011601613cd2565b818152846020838601011115613eac57600080fd5b610906826020830160208701613e35565b600080600060608486031215613ed257600080fd5b835167ffffffffffffffff80821115613eea57600080fd5b613ef687838801613e59565b9450602086015193506040860151915080821115613f1357600080fd5b50613f2086828701613e59565b9150509250925092565b838152606060208201526000613f436060830185613ab8565b905060ff83166040830152949350505050565b600060208284031215613f6857600080fd5b815167ffffffffffffffff811115613f7f57600080fd5b61090684828501613e59565b60008151808452613fa3816020860160208601613e35565b601f01601f19169290920160200192915050565b606081526000613fca6060830186613f8b565b60208301949094525060400152919050565b848152608060208201526000613ff56080830186613ab8565b60ff949094166040830152506060015292915050565b60006020828403121561401d57600080fd5b5051919050565b85815260a06020820152600061403d60a0830187613ab8565b828103604084015261404f8187613f8b565b90508460608401528281036080840152613db38185613f8b565b85815260a06020820152600061408260a0830187613ab8565b60ff86166040840152828103606084015261409d8186613f8b565b9150508260808301529695505050505050565b8481526080602082015260006140c96080830186613ab8565b60ff851660408401528281036060840152610ccb8185613f8b565b6000815160208301517fffffffff000000000000000000000000000000000000000000000000000000008082169350600483101561412c5780818460040360031b1b83161693505b505050919050565b600060ff821660ff810361414a5761414a613b4c565b60010192915050565b86815260c06020820152600061416c60c0830188613ab8565b60ff8716604084015264ffffffffff86811660608501528516608084015282810360a084015261419c8185613f8b565b9998505050505050505050565b8281526040602082015260006109066040830184613f8b565b80820281158282048414176101de576101de613b4c565b8281526000602080830184516020860160005b82811015614208578151845292840192908401906001016141ec565b5091979650505050505050565b6080815260006142286080830187613ab8565b828103602084015261423a8187613f8b565b90508460408401528281036060840152610ccb8185613f8b565b86815260c06020820152600061426d60c0830188613ab8565b828103604084015261427f8188613f8b565b905085606084015282810360808401526142998186613f8b565b9150508260a0830152979650505050505050565b6060815260006142c06060830186613ab8565b65ffffffffffff8516602084015282810360408401526142e08185613f8b565b9695505050505050565b8481526080602082015260006143036080830186613ab8565b65ffffffffffff851660408401528281036060840152610ccb8185613f8b565b7fffff000000000000000000000000000000000000000000000000000000000000841681528260208201526060604082015260006107c36060830184613f8b565b64ffffffffff818116838216019080821115613b7d57613b7d613b4c565b87815260e06020820152600061439b60e0830189613ab8565b60ff8816604084015264ffffffffff87811660608501528616608084015260a0830185905282810360c08401526143d28185613f8b565b9a9950505050505050505050565b60c0815260006143f360c0830189613ab8565b60ff8816602084015265ffffffffffff8716604084015264ffffffffff8616606084015284608084015282810360a084015261419c8185613f8b565b7fffff0000000000000000000000000000000000000000000000000000000000008416815260007f3a000000000000000000000000000000000000000000000000000000000000008060028401528451614490816003860160208901613e35565b8084019050816003820152845191506144b0826004830160208801613e35565b0160040195945050505050565b6040815260006144d06040830185613f8b565b90506001600160a01b03831660208301529392505050565b600082516144fa818460208701613e35565b9190910192915050565b60008451614516818460208901613e35565b60609490941b7fffffffffffffffffffffffffffffffffffffffff000000000000000000000000169190930190815260148101919091526034019291505056fea26469706673582212202b5e29dbfa803d88011fc212a4e62b0f71ad7148c0a2b4481035589be4a16d4164736f6c63430008180033","linkReferences":{"src/libraries/LibChunks.sol":{"LibChunks":[{"start":4025,"length":20},{"start":4212,"length":20}]}}},"methodIdentifiers":{"_msgSender()":"119df25f","_msgValue()":"45ec9354","_world()":"e1af802c","getEntitiesAtPosition(uint16,uint16)":"69e10c7b","isAtPosition(bytes32,uint16,uint16)":"3fbf0c5a","move(bytes32,uint16,uint16)":"953717d1","spawn(bytes32)":"911c37ae","supportsInterface(bytes4)":"01ffc9a7"},"id":110}