{"abi":[{"type":"function","name":"_msgSender","inputs":[],"outputs":[{"name":"sender","type":"address","internalType":"address"}],"stateMutability":"view"},{"type":"function","name":"_msgValue","inputs":[],"outputs":[{"name":"value","type":"uint256","internalType":"uint256"}],"stateMutability":"view"},{"type":"function","name":"_world","inputs":[],"outputs":[{"name":"","type":"address","internalType":"address"}],"stateMutability":"view"},{"type":"function","name":"getEntitiesAtPosition","inputs":[{"name":"x","type":"uint16","internalType":"uint16"},{"name":"y","type":"uint16","internalType":"uint16"}],"outputs":[{"name":"entitiesAtPosition","type":"bytes32[]","internalType":"bytes32[]"}],"stateMutability":"view"},{"type":"function","name":"getEntityPosition","inputs":[{"name":"entityId","type":"bytes32","internalType":"bytes32"}],"outputs":[{"name":"x","type":"uint16","internalType":"uint16"},{"name":"y","type":"uint16","internalType":"uint16"}],"stateMutability":"view"},{"type":"function","name":"getPlayerCounterKey","inputs":[],"outputs":[{"name":"","type":"address","internalType":"address"}],"stateMutability":"pure"},{"type":"function","name":"getSpawnedPlayerCount","inputs":[],"outputs":[{"name":"","type":"uint256","internalType":"uint256"}],"stateMutability":"view"},{"type":"function","name":"isAtPosition","inputs":[{"name":"entityId","type":"bytes32","internalType":"bytes32"},{"name":"x","type":"uint16","internalType":"uint16"},{"name":"y","type":"uint16","internalType":"uint16"}],"outputs":[{"name":"_isAtPosition","type":"bool","internalType":"bool"}],"stateMutability":"view"},{"type":"function","name":"move","inputs":[{"name":"entityId","type":"bytes32","internalType":"bytes32"},{"name":"x","type":"uint16","internalType":"uint16"},{"name":"y","type":"uint16","internalType":"uint16"}],"outputs":[],"stateMutability":"nonpayable"},{"type":"function","name":"spawn","inputs":[{"name":"entityId","type":"bytes32","internalType":"bytes32"}],"outputs":[],"stateMutability":"nonpayable"},{"type":"function","name":"supportsInterface","inputs":[{"name":"interfaceId","type":"bytes4","internalType":"bytes4"}],"outputs":[{"name":"","type":"bool","internalType":"bool"}],"stateMutability":"pure"},{"type":"event","name":"Store_SetRecord","inputs":[{"name":"tableId","type":"bytes32","indexed":true,"internalType":"ResourceId"},{"name":"keyTuple","type":"bytes32[]","indexed":false,"internalType":"bytes32[]"},{"name":"staticData","type":"bytes","indexed":false,"internalType":"bytes"},{"name":"encodedLengths","type":"bytes32","indexed":false,"internalType":"EncodedLengths"},{"name":"dynamicData","type":"bytes","indexed":false,"internalType":"bytes"}],"anonymous":false},{"type":"event","name":"Store_SpliceDynamicData","inputs":[{"name":"tableId","type":"bytes32","indexed":true,"internalType":"ResourceId"},{"name":"keyTuple","type":"bytes32[]","indexed":false,"internalType":"bytes32[]"},{"name":"dynamicFieldIndex","type":"uint8","indexed":false,"internalType":"uint8"},{"name":"start","type":"uint48","indexed":false,"internalType":"uint48"},{"name":"deleteCount","type":"uint40","indexed":false,"internalType":"uint40"},{"name":"encodedLengths","type":"bytes32","indexed":false,"internalType":"EncodedLengths"},{"name":"data","type":"bytes","indexed":false,"internalType":"bytes"}],"anonymous":false},{"type":"event","name":"Store_SpliceStaticData","inputs":[{"name":"tableId","type":"bytes32","indexed":true,"internalType":"ResourceId"},{"name":"keyTuple","type":"bytes32[]","indexed":false,"internalType":"bytes32[]"},{"name":"start","type":"uint48","indexed":false,"internalType":"uint48"},{"name":"data","type":"bytes","indexed":false,"internalType":"bytes"}],"anonymous":false},{"type":"error","name":"AlreadySpawned","inputs":[]},{"type":"error","name":"EncodedLengths_InvalidLength","inputs":[{"name":"length","type":"uint256","internalType":"uint256"}]},{"type":"error","name":"EntityNotAtPosition","inputs":[]},{"type":"error","name":"GamePaused","inputs":[]},{"type":"error","name":"InEncounter","inputs":[]},{"type":"error","name":"InvalidMove","inputs":[]},{"type":"error","name":"MaxPlayers","inputs":[]},{"type":"error","name":"MoveTooFast","inputs":[]},{"type":"error","name":"NotSpawned","inputs":[]},{"type":"error","name":"OnlyCharacters","inputs":[]},{"type":"error","name":"OutOfBounds","inputs":[]},{"type":"error","name":"Slice_OutOfBounds","inputs":[{"name":"data","type":"bytes","internalType":"bytes"},{"name":"start","type":"uint256","internalType":"uint256"},{"name":"end","type":"uint256","internalType":"uint256"}]},{"type":"error","name":"Store_IndexOutOfBounds","inputs":[{"name":"length","type":"uint256","internalType":"uint256"},{"name":"accessedIndex","type":"uint256","internalType":"uint256"}]},{"type":"error","name":"Store_InvalidResourceType","inputs":[{"name":"expected","type":"bytes2","internalType":"bytes2"},{"name":"resourceId","type":"bytes32","internalType":"ResourceId"},{"name":"resourceIdString","type":"string","internalType":"string"}]},{"type":"error","name":"Store_InvalidSplice","inputs":[{"name":"startWithinField","type":"uint40","internalType":"uint40"},{"name":"deleteCount","type":"uint40","internalType":"uint40"},{"name":"fieldLength","type":"uint40","internalType":"uint40"}]},{"type":"error","name":"Unauthorized","inputs":[]}],"bytecode":{"object":"0x6080806040523461001657614a94908161001b8239f35b5f80fdfe60806040526004361015610011575f80fd5b5f3560e01c806301ffc9a7146100c457806302121ee1146100bf578063119df25f146100ba5780633fbf0c5a146100b557806345ec9354146100b057806350c4bd84146100ab57806362100289146100a657806369e10c7b146100a1578063911c37ae1461009c578063953717d1146100975763e1af802c14610092575f80fd5b61082c565b610640565b6102fe565b6102b1565b610263565b610233565b6101ff565b6101a6565b61014a565b610128565b3461011a57602036600319011261011a5760043563ffffffff60e01b811680910361011a5760209063b5dee12760e01b8114908115610109575b506040519015158152f35b6301ffc9a760e01b1490505f6100fe565b5f80fd5b5f91031261011a57565b3461011a575f36600319011261011a576020610142610a40565b604051908152f35b3461011a575f36600319011261011a576020610164610a72565b6040516001600160a01b039091168152f35b606090600319011261011a576004359061ffff90602435828116810361011a5791604435908116810361011a5790565b3461011a576101b436610176565b906101bf5f93610a89565b919061ffff8080931691161492836101ef575b5050506101e7575b6020906040519015158152f35b5060016101da565b81929350169116145f80806101d2565b3461011a575f36600319011261011a576020604051601f193601358152f35b61ffff91821681529116602082015260400190565b3461011a57602036600319011261011a5761024f600435610a89565b9061025f6040519283928361021e565b0390f35b3461011a575f36600319011261011a57602060405160018152f35b9081518082526020808093019301915f5b82811061029d575050505090565b83518552938101939281019260010161028f565b3461011a57604036600319011261011a5761ffff600435818116810361011a57602435918216820361011a5761025f916102ea91610ac5565b60405191829160208352602083019061027e565b3461011a57602036600319011261011a57600480359061031c610b63565b61033461033061032b84610b8e565b610bb1565b1590565b6106325761034182610c06565b6106235761034e82610c29565b61036861035c61035c6120d5565b6001600160a01b031690565b9060206040518093633e86fb3160e21b8252818061038d898983019190602083019252565b03915afa91821561048d575f926105f2575b506103a8610a40565b9082156105e8576103bf6103ba6109fd565b6117ba565b8210156105d7576103d9906103d386610cac565b9061091d565b5f8113156105c8576103eb9085610c7d565b6103f484610cc9565b816103fe85610dea565b610492575b5061040d83611033565b61041683611113565b61041c57005b61042a61035c61035c6120d5565b91823b1561011a5760408051633f96047360e01b8152928301918252600160208301525f90820181905260608201819052919283918290849082906080015b03925af1801561048d5761047a575b005b806104876104789261085a565b8061011e565b6108fe565b61049c4285610ec5565b6104aa61035c61035c6120d5565b906104b961035c61035c6120d5565b9160c0604051809463a543a0c560e01b825281806104de8b8b83019190602083019252565b03915afa92831561048d575f93610597575b50803b1561011a5761055b5f93918492604051958680948193638e9fa2ef60e01b83528c8c840190929160a060c09160e08401958452805160208501526020810151604085015260408101516060850152606081015160808501526080810151828501520151910152565b03925af190811561048d5761057e9261057992610584575b5061099f565b610f7f565b5f610403565b806104876105919261085a565b5f610573565b6105ba91935060c03d60c0116105c1575b6105b281836108c3565b81019061093d565b915f6104f0565b503d6105a8565b506105d284610c46565b6103eb565b6040516343e8a51b60e11b81528490fd5b6105d29085610c7d565b61061591925060203d60201161061c575b61060d81836108c3565b8101906108e6565b905f61039f565b503d610603565b604051635b94c49160e11b8152fd5b6040516282b42960e81b8152fd5b3461011a5761064e36610176565b610659929192610b63565b61066282610b8e565b9261067161035c61035c6120d5565b926040948551633e86fb3160e21b8152602081600497818061069a888c83019190602083019252565b03915afa90811561048d575f9161080d575b50156107fd576103306106be91610bb1565b6107ee576106ce61033082610c06565b6107de576106db816111a0565b6107ce576106e8816111bd565b80151590816107bc575b506107ac5761070081610a89565b916107096111da565b9061ffff809216828716101561079c578116818716101561078c5760019061073387878787611201565b160361077c57610746928592859261129e565b61075461035c61035c6120d5565b90813b1561011a575f809461046996519687958694859363b812f8e360e01b8552840161021e565b86516321e08b4d60e21b81528690fd5b8751632d0483c560e21b81528790fd5b8851632d0483c560e21b81528890fd5b845163326f4b4f60e01b81528490fd5b6107c691506109ad565b42105f6106f2565b84516363754e4360e01b81528490fd5b8451635ea2f27b60e11b81528490fd5b84516282b42960e81b81528490fd5b8551635c501a1360e11b81528590fd5b610826915060203d60201161061c5761060d81836108c3565b5f6106ac565b3461011a575f36600319011261011a5760206101646120d5565b634e487b7160e01b5f52604160045260245ffd5b6001600160401b03811161086d57604052565b610846565b606081019081106001600160401b0382111761086d57604052565b604081019081106001600160401b0382111761086d57604052565b602081019081106001600160401b0382111761086d57604052565b601f909101601f19168101906001600160401b0382119082101761086d57604052565b9081602091031261011a5751801515810361011a5790565b6040513d5f823e3d90fd5b634e487b7160e01b5f52601160045260245ffd5b9190915f838201938412911290801582169115161761093857565b610909565b908160c091031261011a576040519060c08201906001600160401b0382118383101761086d5760a0916040528051835260208101516020840152604081015160408401526060810151606084015260808101516080840152015160a082015290565b906001820180921161093857565b906003820180921161093857565b9190820180921161093857565b604051906109d582610872565b600282526040366020840137565b604051906109f08261088d565b6001825260203681840137565b604051610a09816108a8565b5f8152905f368137565b634e487b7160e01b5f52603260045260245ffd5b8051821015610a3b5760209160051b010190565b610a13565b610a486109c8565b805115610a3b5760016020820152805160011015610a3b57805f6040610a6f93015261146c565b90565b36603319013560601c908115610a8457565b339150565b610a916109e3565b90815115610a3b5781610aab916020610ac1940152611b44565b5050906022602083015160f01c92015160f01c90565b9091565b610acd6109c8565b9161ffff90835115610a3b578160209316602085015283519360019460011015610a3b57610b0c92610b0492166040820152611c94565b805190611d8d565b6040805160206020600160801b0384168201810190925260016001607b1b03600584901c168082529094909260801c9185015f5b848110610b505750505050505090565b8351825292850192908501908201610b40565b610b73610b6e6109fd565b611525565b60f81c610b7c57565b60405163379a7ed960e01b8152600490fd5b610b966109e3565b805115610a3b57610bab9160208201526115b3565b60601c90565b610bb9610a72565b6001600160a01b039081169116818114610bff57610bd56109c8565b90815115610a3b576020820152805160011015610a3b57610bfa916040820152611649565b151590565b5050600190565b610c0e6109e3565b805115610a3b57610c239160208201526116b9565b60f81c90565b610c316109e3565b805115610a3b57610a6f916020820152611720565b610c4e6109e3565b805115610a3b57610c7b916020820152604051906001602083015260208252610c768261088d565b611de2565b565b90610c866109e3565b805115610a3b57610c7b92602082015260405191602083015260208252610c768261088d565b610cb46109e3565b805115610a3b57610a6f91602082015261185c565b604051905f60208301525f602283015260048252610ce68261088d565b610cee6109e3565b90815115610a3b5760208201526001600160a01b03610d0b6120d5565b16308103610d1e575090610c7b91612f44565b90813b1561011a5760405163298314fb60e01b8152672837b9b4ba34b7b760411b631d18955160e21b01600482015260a06024820152925f9284929091839185918391610da09190610d8b90610d789060a486019061027e565b6003199283868303016044870152611d68565b90846064850152838203016084840152611d2b565b03925af1801561048d57610db15750565b80610487610c7b9261085a565b906040519261ffff60f01b809260f01b16602085015260f01b16602283015260048252610ce68261088d565b610df26109e3565b90815115610a3b576020820152604051600160f81b602082015260018152610e198161088d565b6001600160a01b03610e296120d5565b1691308303610e3c57610c7b925061275e565b90823b1561011a576040516301c85d5760e51b81526614dc185ddb9959604a1b631d18955160e21b01600482015260a06024820152925f928492839185918391610ea79190610e8f9060a485019061027e565b90846044850152600319848303016064850152611d68565b630101000160d81b608483015203925af1801561048d57610db15750565b90610ece6109e3565b91825115610a3b57602083015260405190602082015260208152610ef18161088d565b6001600160a01b03610f016120d5565b1691308303610f1457610c7b92506128f6565b90823b1561011a576040516301c85d5760e51b81525f80516020614a74833981519152600482015260a06024820152925f928492839185918391610f619190610e8f9060a485019061027e565b630100080160dd1b608483015203925af1801561048d57610db15750565b610f876109c8565b90815115610a3b5760016020830152815160011015610a3b575f604083015260405190602082015260208152610fbc8161088d565b6001600160a01b03610fcc6120d5565b1691308303610fdf57610c7b9250612a5d565b90823b1561011a576040516301c85d5760e51b815267436f756e7465727360401b631d18955160e21b01600482015260a06024820152925f928492839185918391610f619190610e8f9060a485019061027e565b61103b6109e3565b90815115610a3b5760208201526040515f60208201526001815261105e8161088d565b6001600160a01b0361106e6120d5565b169130830361108157610c7b9250612bcb565b90823b1561011a576040516301c85d5760e51b81526f456e636f756e746572456e7469747900631d18955160e21b01600482015260a06024820152925f9284928391859183916110f391906110da9060a485019061027e565b6001604485015283810360031901606485015290611d68565b6502081809000960cd1b608483015203925af1801561048d57610db15750565b61111b6109c8565b90815115610a3b575f6020830152815160011015610a3b57815f6040610c7b940152604051916020830152602082526111538261088d565b611e9a565b9190916111636109c8565b9061ffff90825115610a3b5781166020830152815160011015610a3b57610c7b93166040820152604051916020830152602082526111538261088d565b6111a86109e3565b805115610a3b57610a6f9160208201526118f6565b6111c56109e3565b805115610a3b57610a6f91602082015261198d565b610ac1610aab6111e86109fd565b611c06565b61ffff918216908216039190821161093857565b91909161ffff9384928392838216848216115f146112575790611223916111ed565b935b8183168184161115611249579061123b916111ed565b169116019081116109385790565b611252916111ed565b61123b565b611260916111ed565b93611225565b5f1981019190821161093857565b601f1981019190821161093857565b9190820391821161093857565b5f1981146109385760010190565b919390936112ac8186610ac5565b905f955f5b835181101561145157856112c58286610a27565b51146112d9576112d490611290565b6112b1565b61130a939495969750611305906112fc6001966112f68151611266565b90610a27565b51908484611f0b565b611ff4565b1561143f5761131d61035c61035c6120d5565b604051633e86fb3160e21b81526004810184905290602090829060249082905afa90811561048d575f91611420575b50611366575b8261136182610c7b9585610dbe565b611158565b6113704283610ec5565b61ffff6005818516149081611413575b501561135257611392610330836120a6565b15611352576113a561035c61035c6120d5565b92833b1561011a57604051633f96047360e01b8152600481018490526005602482015261ffff828116604483015283166064820152935f908590608490829084905af193841561048d57610c7b94611400575b509250611352565b8061048761140d9261085a565b5f6113f8565b600591508216145f611380565b611439915060203d60201161061c5761060d81836108c3565b5f61134c565b604051632f43d24d60e21b8152600490fd5b5050505090919261130a565b9081602091031261011a575190565b6001600160a01b0361147c6120d5565b1630810361148e5750610a6f9061210a565b604051638c364d5960e01b815267436f756e7465727360401b631d18955160e21b01600482015260806024820152916020918391829081906114d490608483019061027e565b5f6044830152630100080160dd1b606483015203915afa90811561048d575f916114fc575090565b610a6f915060203d60201161151e575b61151681836108c3565b81019061145d565b503d61150c565b6001600160a01b036115356120d5565b163081036115475750610a6f90612184565b604051638c364d5960e01b81526514185d5cd95960521b631d18955160e21b016004820152608060248201529160209183918290819061158b90608483019061027e565b5f6044830152630101000160d81b606483015203915afa90811561048d575f916114fc575090565b6001600160a01b036115c36120d5565b163081036115d55750610a6f906121e6565b604051638c364d5960e01b8152694368617261637465727360301b631d18955160e21b016004820152608060248201529160209183918290819061161d90608483019061027e565b60016044830152665504022014200160c01b606483015203915afa90811561048d575f916114fc575090565b6001600160a01b036116596120d5565b1630810361166b5750610a6f9061229b565b604051638c364d5960e01b81526f5573657244656c65676174696f6e436f661d189ddbdc9b1960ca1b01600482015260806024820152916020918391829081906114d490608483019061027e565b6001600160a01b036116c96120d5565b163081036116db5750610a6f90612307565b604051638c364d5960e01b81526614dc185ddb9959604a1b631d18955160e21b016004820152608060248201529160209183918290819061158b90608483019061027e565b6001600160a01b036117306120d5565b163081036117425750610a6f9061236a565b604051638c364d5960e01b815264537461747360581b631d18955160e21b016004820152608060248201529160209183918290819061178590608483019061027e565b600460448301526fe60d002020012020202020010101010160781b606483015203915afa90811561048d575f916114fc575090565b6001600160a01b036117ca6120d5565b163081036117dc5750610a6f9061240d565b604051638c364d5960e01b81526f556c74696d617465446f6d696e696f6e631d18955160e21b016004820152608060248201529160209183918290819061182790608483019061027e565b600860448301526f45434000450505050505050805080805607a1b606483015203915afa90811561048d575f916114fc575090565b6001600160a01b0361186c6120d5565b1630810361187e5750610a6f90612499565b604051638c364d5960e01b81526f43686172616374657245717569706d65631d18955160e21b01600482015260806024820152916020918391829081906118c990608483019061027e565b6003604483015267050028290101010160bd1b606483015203915afa90811561048d575f916114fc575090565b6001600160a01b036119066120d5565b163081036119185750610a6f90612525565b604051638c364d5960e01b81526f456e636f756e746572456e7469747900631d18955160e21b016004820152608060248201529160209183918290819061196390608483019061027e565b5f60448301526502081809000960cd1b606483015203915afa90811561048d575f916114fc575090565b6001600160a01b0361199d6120d5565b163081036119af5750610a6f9061258e565b604051638c364d5960e01b81525f80516020614a74833981519152600482015260806024820152916020918391829081906114d490608483019061027e565b6001600160a01b036119fe6120d5565b16308103611a105750610a6f906125f6565b604051638c364d5960e01b81526f467261676d656e7450726f6772657373631d18955160e21b0160048201526080602482015291602091839182908190611a5b90608483019061027e565b60046044830152690330380009001010090160ad1b606483015203915afa90811561048d575f916114fc575090565b5f5b838110611a9b5750505f910152565b8181015183820152602001611a8c565b81601f8201121561011a5780516001600160401b03811161086d5760405192611ade601f8301601f1916602001856108c3565b8184526020828401011161011a57610a6f9160208085019101611a8a565b909160608284031261011a5781516001600160401b03929083811161011a5784611b27918301611aab565b93602082015193604083015190811161011a57610a6f9201611aab565b6001600160a01b03611b546120d5565b16308103611b6d5750611b6690612693565b9192909190565b60405163419b58fd60e01b8152672837b9b4ba34b7b760411b631d18955160e21b0160048201526060602482015292915f91849182908190611bb390606483019061027e565b64020100010160d11b604483015203915afa90811561048d575f80935f93611bdc575b50929190565b91935050611bfc91503d805f833e611bf481836108c3565b810190611afc565b929092915f611bd6565b6001600160a01b03611c166120d5565b16308103611c285750611b66906126ca565b60405163419b58fd60e01b8152684d6170436f6e66696760381b631d18955160e21b0160048201526060602482015292915f91849182908190611bb390606483019061027e565b9060208282031261011a5781516001600160401b03811161011a57610a6f9201611aab565b6001600160a01b03611ca46120d5565b16308103611cb65750610a6f90612737565b604051631e78897760e01b81525f80516020614a54833981519152600482015260606024820152915f91839182908190611cf490606483019061027e565b85604483015203915afa90811561048d575f91611d0f575090565b610a6f91503d805f833e611d2381836108c3565b810190611c6f565b90606051918281525f5b838110611d545750825f602080949584010152601f8019910116010190565b806020916080015182828501015201611d35565b90602091611d8181518092818552858086019101611a8a565b601f01601f1916010190565b9081518111611dac576001600160801b031660209190910160801b1790565b6040516323230fa360e01b81526060600482015292508291611dd2906064840190611d68565b905f602484015260448301520390fd5b906001600160a01b03611df36120d5565b1691308303611e0657610c7b9250612d8d565b90823b1561011a576040516301c85d5760e51b815264537461747360581b631d18955160e21b01600482015260a06024820152925f928492839185918391611e709190611e579060a485019061027e565b6005604485015283810360031901606485015290611d68565b6fe60d002020012020202020010101010160781b608483015203925af1801561048d57610db15750565b906001600160a01b03611eab6120d5565b1691308303611ebe57610c7b9250613163565b90823b1561011a57604051630a87993160e11b81525f80516020614a54833981519152600482015260806024820152925f928492839185918391610da09190610e8f90608485019061027e565b92919092611f176109c8565b9361ffff91855115610a3b5782166020860152845160011015610a3b5716604084015260405191602083015260208252611f508261088d565b815164ffffffffff9081169160051b166001600160a01b03611f706120d5565b16308103611f825750610c7b93613d3a565b909293813b1561011a5760405163605144ad60e11b81525f80516020614a54833981519152600482015260c06024820152945f948694859387938593610da0939092611fd29060c487019061027e565b92866044870152606486015260848501526003198483030160a4850152611d68565b611ffc6109c8565b9161ffff91835115610a3b5782166020840152825160011015610a3b571660408201526001600160a01b0361202f6120d5565b163081036120415750610c7b90613f9c565b803b1561011a576040516336700e8160e21b81525f80516020614a54833981519152600482015260806024820152915f91839182908490829061208890608483019061027e565b8260448301526020606483015203925af1801561048d57610db15750565b6120ae6109c8565b90815115610a3b576020820152805160011015610a3b578060056040610c239301526119ee565b7f629a4c26e296b22a8e0856e9f6ecb2d1008d7e00081111962cd175fa7488e175546001600160a01b031680610a6f57503390565b604051602081602081019367436f756e7465727360401b631d18955160e21b0185526040820160208251919201935f5b82811061216d57505050612157925003601f1981018352826108c3565b5190205f805160206149f4833981519152185490565b85518452948101948694509281019260010161213a565b60405160208160208101936514185d5cd95960521b631d18955160e21b0185526040820160208251919201935f5b8281106121cf57505050612157925003601f1981018352826108c3565b8551845294810194869450928101926001016121b2565b604051612209816121fb602082019485613413565b03601f1981018352826108c3565b5190205f805160206149f4833981519152185f905f5b6001811061227257508181602082101561225c575b505080548260031b1b91602003908160141161224f57505090565b600101549060031b1c1790565b90809350601f925060051c019116905f80612234565b9160ff665504022014200160c01b84601b0360031b1c168101809111610938579160010161221f565b60405160208160208101936f5573657244656c65676174696f6e436f661d189ddbdc9b1960ca1b0185526040820160208251919201935f5b8281106122f057505050612157925003601f1981018352826108c3565b8551845294810194869450928101926001016122d3565b60405160208160208101936614dc185ddb9959604a1b631d18955160e21b0185526040820160208251919201935f5b82811061235357505050612157925003601f1981018352826108c3565b855184529481019486945092810192600101612336565b60405161237f816121fb60208201948561345b565b5190205f805160206149f4833981519152185f905f5b600481106123db5750818160208210156123c5575b505080548260031b1b91602003908160201161224f57505090565b90809350601f925060051c019116905f806123aa565b9160ff6fe60d002020012020202020010101010160781b84601b0360031b1c1681018091116109385791600101612395565b604051612422816121fb60208201948561349e565b5190205f805160206149f4833981519152185f905f5b600881106124675750818160208210156123c557505080548260031b1b91602003908160201161224f57505090565b9160ff6f45434000450505050505050805080805607a1b84601b0360031b1c1681018091116109385791600101612438565b6040516124ae816121fb6020820194856134e9565b5190205f91905f805160206149f483398151915218825b6003808510156124fb5767050028290101010160bd1b601b86900390911b1c60ff168101908110610938576001909301926124c5565b50919250818160208210156123c557505080548260031b1b91602003908160201161224f57505090565b60405160208160208101936f456e636f756e746572456e7469747900631d18955160e21b0185526040820160208251919201935f5b82811061257757505050612157925003601f1981018352826108c3565b85518452948101948694509281019260010161255a565b60405160208160208101936b29b2b9b9b4b7b72a34b6b2b960211b631d18955160e21b0185526040820160208251919201935f5b8281106125df57505050612157925003601f1981018352826108c3565b8551845294810194869450928101926001016125c2565b60405161260b816121fb602082019485613534565b5190205f805160206149f4833981519152185f905f5b60048110612667575081816020821015612651575b505080548260031b1b91602003908160011161224f57505090565b90809350601f925060051c019116905f80612636565b9160ff690330380009001010090160ad1b84601b0360031b1c1681018091116109385791600101612621565b5f906126c76060916040516126b0816121fb60208201948561357f565b5190205f805160206149f483398151915218613804565b92565b60408051684d6170436f6e66696760381b631d18955160e21b01602080830191825284515f956060959394938401929081019190875b8281106127235750505050906126b0816126c7949303601f1981018352826108c3565b835185529381019392810192600101612700565b610a6f9064ffffffffff61275361274d8361379c565b92614223565b5460381c1690613870565b9190612769836135ef565b916127726144b2565b905f5b8251811015612819576127a961279c61278e8386610a27565b516001600160581b03191690565b6001600160581b03191690565b9060049182808260581c16146127c5575b506001915001612775565b60601c803b1561011a57855f9189836127f3966040519788958694859363964f667d60e01b85528401613917565b03925af191821561048d57600192156127ba57806104876128139261085a565b5f6127ba565b50604080519194909392916128629184916614dc185ddb9959604a1b631d18955160e21b01905f805160206149d4833981519152908061285a868d836138bb565b0390a26147f0565b5f5b81518110156128ee5761287d61279c61278e8385610a27565b6008808260581c1614612894575b50600101612864565b60601c90813b1561011a57845163a8ba872160e01b8152915f9083908183816128c18a8e60048401613917565b03925af191821561048d576001926128db575b509061288b565b806104876128e89261085a565b5f6128d4565b505050509050565b919061290183613652565b9161290a614556565b905f5b82518110156129965761292661279c61278e8386610a27565b9060049182808260581c1614612942575b50600191500161290d565b60601c803b1561011a57855f918983612970966040519788958694859363964f667d60e01b8552840161395c565b03925af191821561048d576001921561293757806104876129909261085a565b5f612937565b50604080519194909392916129d19184915f80516020614a74833981519152905f805160206149d4833981519152908061285a868d836138bb565b5f5b81518110156128ee576129ec61279c61278e8385610a27565b6008808260581c1614612a03575b506001016129d3565b60601c90813b1561011a57845163a8ba872160e01b8152915f908390818381612a308a8e6004840161395c565b03925af191821561048d57600192612a4a575b50906129fa565b80610487612a579261085a565b5f612a43565b9190612a68836136ba565b91612a716145ff565b905f5b8251811015612afd57612a8d61279c61278e8386610a27565b9060049182808260581c1614612aa9575b506001915001612a74565b60601c803b1561011a57855f918983612ad7966040519788958694859363964f667d60e01b85528401613987565b03925af191821561048d5760019215612a9e5780610487612af79261085a565b5f612a9e565b5060408051919490939291612b3f91849167436f756e7465727360401b631d18955160e21b01905f805160206149d4833981519152908061285a868d836138bb565b5f5b81518110156128ee57612b5a61279c61278e8385610a27565b6008808260581c1614612b71575b50600101612b41565b60601c90813b1561011a57845163a8ba872160e01b8152915f908390818381612b9e8a8e60048401613987565b03925af191821561048d57600192612bb8575b5090612b68565b80610487612bc59261085a565b5f612bb1565b9190915f805b60018210612d645765ffffffffffff915016612bec8261371e565b612bf46146a4565b905f5b8251811015612c8157612c1061279c61278e8386610a27565b9060049182808260581c1614612c2c575b506001915001612bf7565b60601c803b1561011a57855f9188838c96612c5b6040519889968795869463964f667d60e01b865285016139b9565b03925af191821561048d5760019215612c215780610487612c7b9261085a565b5f612c21565b50949190612cce8383604098875f805160206149d483398151915260405180612cc687876f456e636f756e746572456e7469747900631d18955160e21b0196846138e6565b0390a261483d565b5f5b8151811015612d5b57612ce961279c61278e8385610a27565b6008808260581c1614612d00575b50600101612cd0565b60601c90813b1561011a57875163a8ba872160e01b8152915f908390818381612d2e8b8b8e600485016139b9565b03925af191821561048d57600192612d48575b5090612cf7565b80610487612d559261085a565b5f612d41565b50505050509050565b60ff6502081809000960cd1b83601b0360031b1c16810180911161093857600190910190612bd1565b9190915f805b60058210612f115765ffffffffffff915016612dae82613787565b612db661474e565b905f5b8251811015612e4357612dd261279c61278e8386610a27565b9060049182808260581c1614612dee575b506001915001612db9565b60601c803b1561011a57855f9188838c96612e1d6040519889968795869463964f667d60e01b86528501613a09565b03925af191821561048d5760019215612de35780610487612e3d9261085a565b5f612de3565b50604080519096939291612e84918591859164537461747360581b631d18955160e21b01905f805160206149d48339815191529080612cc687878e846138e6565b5f5b8151811015612d5b57612e9f61279c61278e8385610a27565b6008808260581c1614612eb6575b50600101612e86565b60601c90813b1561011a57875163a8ba872160e01b8152915f908390818381612ee48b8b8e60048501613a09565b03925af191821561048d57600192612efe575b5090612ead565b80610487612f0b9261085a565b5f612ef7565b60ff6fe60d002020012020202020010101010160781b83601b0360031b1c16810180911161093857600190910190612d93565b60408051655461626c657360501b66746273746f726560c81b0160208201908152672837b9b4ba34b7b760411b631d18955160e21b018284018190528383529295929491612f9181610872565b5190205f805160206149f4833981519152185491612fad614262565b905f5b825181101561303b57612fc961279c61278e8386610a27565b6001808260581c1614612fe0575b50600101612fb0565b60601c90813b1561011a5788516315c19b2760e21b8152915f90839081838161300e8c8c8f60048501613a7c565b03925af191821561048d57600192613028575b5090612fd7565b806104876130359261085a565b5f613021565b50947f8dbb3a9672eebfd3773e72dd9c102393436816d832c7ba9e1e1ac8fcadcac7a987518061306c868983613a40565b0390a261308761307b856135c5565b83516020850191614883565b60ff808460e01c1680613124575b50505f5b8151811015612d5b576130b261279c61278e8385610a27565b6002808260581c16146130c9575b50600101613099565b60601c90813b1561011a578751635b28cdaf60e01b8152915f9083908183816130f78b8b8e60048501613a7c565b03925af191821561048d57600192613111575b50906130c0565b8061048761311e9261085a565b5f61310a565b5f61312e8761424d565b555f60805b8284831610613143575050613095565b60018161315a8693613155868d6137c7565b61484e565b92011690613133565b91909161316f81614223565b5464ffffffffff8160381c166131868551826109bb565b818114159490858061336a575b61333a576131a19084614936565b906131aa61435e565b915f5b835181101561323c576131c661279c61278e8387610a27565b6010808260581c16146131dd575b506001016131ad565b60601c90813b1561011a575f878b9388838c61320f60405198899687958694630abd6b4560e31b865260048601613b37565b03925af191821561048d57600192613229575b50906131d4565b806104876132369261085a565b5f613222565b506040805192979195509392915f80516020614a54833981519152905f805160206149b483398151915290806132758c8a898d85613c63565b0390a261332a575b613290878361328b8861379c565b61483d565b5f5b8151811015613320576132ab61279c61278e8385610a27565b6020808260581c16146132c2575b50600101613292565b60601c90813b1561011a575f868a9386838b6132f38b5198899687958694636358453360e01b865260048601613b37565b03925af191821561048d5760019261330d575b50906132b9565b8061048761331a9261085a565b5f613306565b5050505050509050565b8361333486614223565b5561327d565b604051632994042d60e21b815264ffffffffff8416600482018190525f60248301526044820152606490fd5b0390fd5b508261338261337882613ade565b64ffffffffff1690565b1415613193565b6953746f7265486f6f6b7360301b66746273746f726560c81b01815281516020918201928201915f5b8281106133c0575050505090565b8351855293810193928101926001016133b2565b5f80516020614a54833981519152815281516020918201928201915f5b8281106133ff575050505090565b8351855293810193928101926001016133f1565b694368617261637465727360301b631d18955160e21b01815281516020918201928201915f5b828110613447575050505090565b835185529381019392810192600101613439565b64537461747360581b631d18955160e21b01815281516020918201928201915f5b82811061348a575050505090565b83518552938101939281019260010161347c565b6f556c74696d617465446f6d696e696f6e631d18955160e21b01815281516020918201928201915f5b8281106134d5575050505090565b8351855293810193928101926001016134c7565b6f43686172616374657245717569706d65631d18955160e21b01815281516020918201928201915f5b828110613520575050505090565b835185529381019392810192600101613512565b6f467261676d656e7450726f6772657373631d18955160e21b01815281516020918201928201915f5b82811061356b575050505090565b83518552938101939281019260010161355d565b672837b9b4ba34b7b760411b631d18955160e21b01815281516020918201928201915f5b8281106135b1575050505090565b8351855293810193928101926001016135a3565b6040516135da816121fb60208201948561357f565b5190205f805160206149f48339815191521890565b60405160208160208101936614dc185ddb9959604a1b631d18955160e21b0185526040820160208251919201935f5b82811061363b575050506135da925003601f1981018352826108c3565b85518452948101948694509281019260010161361e565b60405160208160208101936b29b2b9b9b4b7b72a34b6b2b960211b631d18955160e21b0185526040820160208251919201935f5b8281106136a3575050506135da925003601f1981018352826108c3565b855184529481019486945092810192600101613686565b604051602081602081019367436f756e7465727360401b631d18955160e21b0185526040820160208251919201935f5b828110613707575050506135da925003601f1981018352826108c3565b8551845294810194869450928101926001016136ea565b60405160208160208101936f456e636f756e746572456e7469747900631d18955160e21b0185526040820160208251919201935f5b828110613770575050506135da925003601f1981018352826108c3565b855184529481019486945092810192600101613753565b6040516135da816121fb60208201948561345b565b5f80516020614a14833981519152906040516137c0816121fb6020820194856133d4565b5190201890565b905f80516020614a14833981519152916040516137ec816121fb60208201948561357f565b51902060f89190911b6001600160f81b031916181890565b60405190602090601f1990816043850116604052600484526020840192600491925b818310156138585750508061383c575b50505090565b5f199060031b1c908183511691199054161790525f8080613836565b81600185839495979654875201940194019190613826565b60408051601f19603f85830101811690925283815292602080850193925b818310156138a35750508061383c5750505090565b8160018583949597965487520194019401919061388e565b90916138d2610a6f9360608452606084019061027e565b915f60208201526040818403910152611d68565b65ffffffffffff613903610a6f959360608452606084019061027e565b931660208201526040818403910152611d68565b6614dc185ddb9959604a1b631d18955160e21b018152608060208201819052610a6f9391926139489184019061027e565b915f60408201526060818403910152611d68565b5f80516020614a748339815191528152608060208201819052610a6f9391926139489184019061027e565b67436f756e7465727360401b631d18955160e21b018152608060208201819052610a6f9391926139489184019061027e565b65ffffffffffff6139f5610a6f95936f456e636f756e746572456e7469747900631d18955160e21b01845260806020850152608084019061027e565b931660408201526060818403910152611d68565b64537461747360581b631d18955160e21b018152608060208201819052610a6f949265ffffffffffff916139f5919084019061027e565b90610a6f92613a5a613a689260808552608085019061027e565b908382036020850152611d68565b905f60408201526060818303910152611d2b565b672837b9b4ba34b7b760411b631d18955160e21b01815260c0602082018190529094939260a092613ad992613ac69291613ab89189019061027e565b908782036040890152611d68565b5f60608701528581036080870152611d2b565b930152565b9064ffffffffff80921691821161093857565b90602064ffffffffff8093160191821161093857565b91909164ffffffffff8080941691160191821161093857565b90815264ffffffffff909116602082015260400190565b909264ffffffffff613b75610a6f9694956f456e7469746965734174506f73697469631d18955160e21b01855260e0602086015260e085019061027e565b945f60408501521660608301525f608083015260a082015260c0818403910152611d68565b91613bd2610a6f969495926f456e7469746965734174506f73697469631d18955160e21b01855260e0602086015260e085019061027e565b945f604085015264ffffffffff809216606085015216608083015260a082015260c0818403910152611d68565b909264ffffffffff613c3d610a6f9694956f456e7469746965734174506f73697469631d18955160e21b01855260e0602086015260e085019061027e565b945f60408501521660608301526020608083015260a082015260c0818403910152611d68565b909265ffffffffffff613c83610a6f96949560c0855260c085019061027e565b945f60208501521660408301525f6060830152608082015260a0818403910152611d68565b919390610a6f959365ffffffffffff613ccf64ffffffffff9360c0875260c087019061027e565b965f6020870152166040850152166060830152608082015260a0818403910152611d68565b909265ffffffffffff613d14610a6f96949560c0855260c085019061027e565b945f602085015216604083015260206060830152608082015260a0818403910152611d68565b91909392613d4783614223565b549464ffffffffff808760381c1695613d6d613d6583871689611283565b8551906109bb565b87811415928380613f86575b613f5757841697808911613f385750613d929089614936565b90613d9b614408565b925f5b8451811015613e2e57613db761279c61278e8388610a27565b6010808260581c1614613dce575b50600101613d9e565b60601c90813b1561011a575f898d9389838e613e018e604051998a9788968795630abd6b4560e31b875260048701613b9a565b03925af191821561048d57600192613e1b575b5090613dc5565b80610487613e289261085a565b5f613e14565b5096948093929950613e8c9198604098875f805160206149b48339815191528d8b613e7b87604051938493896f456e7469746965734174506f73697469631d18955160e21b019886613ca8565b0390a2613f28575b61328b8761379c565b5f5b8151811015613f1d57613ea761279c61278e8385610a27565b6020808260581c1614613ebe575b50600101613e8e565b60601c90813b1561011a575f878b9387838a613ef08a8f51998a9788968795636358453360e01b875260048701613b9a565b03925af191821561048d57600192613f0a575b5090613eb5565b80610487613f179261085a565b5f613f03565b505050505050509050565b8a613f3288614223565b55613e83565b604051637e8578d360e01b815290819061336690879060048401613b20565b604051632994042d60e21b815264ffffffffff868116600483015288811660248301528a166044820152606490fd5b5088613f956133788988613b07565b1415613d79565b6040908151916020906020840184613fb485836133d4565b0394613fc8601f19968781018352826108c3565b5190205f80516020614a3483398151915218549164ffffffffff808460381c16958601868111610938571690825196614000886108a8565b5f88525f36813761401b61401388611274565b8951906109bb565b8781141597888061420e575b6141df578085116141c1575061403d9086614936565b614045614408565b925f5b84518110156140d65761406161279c61278e8388610a27565b6010808260581c1614614078575b50600101614048565b60601c90813b1561011a575f898d9389838e6140a98e5198899687958694630abd6b4560e31b865260048601613bff565b03925af191821561048d576001926140c3575b509061406f565b806104876140d09261085a565b5f6140bc565b508551929891965092915f80516020614a54833981519152905f805160206149b4833981519152908061410c8d8b8a8e85613cf4565b0390a26141b1575b614122888461328b8961379c565b5f5b8151811015613f1d5761413d61279c61278e8385610a27565b83808260581c1614614153575b50600101614124565b60601c90813b1561011a575f878b9387838c6141848c5198899687958694636358453360e01b865260048601613bff565b03925af191821561048d5760019261419e575b509061414a565b806104876141ab9261085a565b5f614197565b846141bb87614223565b55614114565b8551637e8578d360e01b815290819061336690879060048401613b20565b8551632994042d60e21b815264ffffffffff868116600483015260206024830152919091166044820152606490fd5b508061421c61337887613af1565b1415614027565b604051614238816121fb6020820194856133d4565b5190205f80516020614a348339815191521890565b604051614238816121fb60208201948561357f565b61426a6109e3565b805115610a3b57614310610b04602092672837b9b4ba34b7b760411b631d18955160e21b018482015264ffffffffff604051915f80516020614a14833981519152868401846142b98483613389565b03946142cd601f19968781018352826108c3565b51902018926142f360405191826142e78a82019586613389565b039081018352826108c3565b5190205f80516020614a34833981519152185460381c1690613870565b8060801c916015809260018060801b0316049060405193818501828460051b8701016040528386525f5b84811061434a5750505050505090565b82518252918501919083019060010161433a565b6143666109e3565b805115610a3b576143ba610b046020926f456e7469746965734174506f73697469631d18955160e21b018482015264ffffffffff604051915f80516020614a14833981519152868401846142b98483613389565b8060801c916015809260018060801b0316049060405193818501828460051b8701016040528386525f5b8481106143f45750505050505090565b8251825291850191908301906001016143e4565b6144106109e3565b805115610a3b57614464610b046020926f456e7469746965734174506f73697469631d18955160e21b018482015264ffffffffff604051915f80516020614a14833981519152868401846142b98483613389565b8060801c916015809260018060801b0316049060405193818501828460051b8701016040528386525f5b84811061449e5750505050505090565b82518252918501919083019060010161448e565b6144ba6109e3565b805115610a3b57614508610b046020926614dc185ddb9959604a1b631d18955160e21b018482015264ffffffffff604051915f80516020614a14833981519152868401846142b98483613389565b8060801c916015809260018060801b0316049060405193818501828460051b8701016040528386525f5b8481106145425750505050505090565b825182529185019190830190600101614532565b61455e6109e3565b805115610a3b576145b1610b046020926b29b2b9b9b4b7b72a34b6b2b960211b631d18955160e21b018482015264ffffffffff604051915f80516020614a14833981519152868401846142b98483613389565b8060801c916015809260018060801b0316049060405193818501828460051b8701016040528386525f5b8481106145eb5750505050505090565b8251825291850191908301906001016145db565b6146076109e3565b805115610a3b57614656610b0460209267436f756e7465727360401b631d18955160e21b018482015264ffffffffff604051915f80516020614a14833981519152868401846142b98483613389565b8060801c916015809260018060801b0316049060405193818501828460051b8701016040528386525f5b8481106146905750505050505090565b825182529185019190830190600101614680565b6146ac6109e3565b805115610a3b57614700610b046020926f456e636f756e746572456e7469747900631d18955160e21b018482015264ffffffffff604051915f80516020614a14833981519152868401846142b98483613389565b8060801c916015809260018060801b0316049060405193818501828460051b8701016040528386525f5b84811061473a5750505050505090565b82518252918501919083019060010161472a565b6147566109e3565b805115610a3b576147a2610b0460209264537461747360581b631d18955160e21b018482015264ffffffffff604051915f80516020614a14833981519152868401846142b98483613389565b8060801c916015809260018060801b0316049060405193818501828460051b8701016040528386525f5b8481106147dc5750505050505090565b8251825291850191908301906001016147cc565b81519060208093019190925b8082101561482557508061480f57505050565b5f199060031b1c90818354169119905116179055565b6001839482939451815501930191601f1901906147fc565b8251610c7b936020019290916148a6565b9190915f905b6020908183106148745784518155930192601f1990910190600101614854565b92939190508061480f57505050565b9291926020908183106148745784518155930192601f1990910190600101614854565b9093929193806148d5575b509290926020908183106148745784518155930192601f1990910190600101614854565b6020811015614926575b80156148b15791939082602003908360031b5f198460031b1c19811c908751901c9080198354169116178155818311156128ee57600101940191601f19910101925f6148b1565b90601f908260051c0191166148df565b64ffffffffff80831161499a5766ffffffffffffff821690603883901c1683818110614990570301915b64ffffffffff60381b60389190911b1664ffffffffff60381b19929092166001600160601b031991909116171790565b9003900391614960565b604051637149a3c160e01b815260048101849052602490fdfefe158a7adba34e256807c8a149028d3162918713c3838afc643ce9f96716ebfd8c0b5119d4cec7b284c6b1b39252a03d1e2f2d7451a5895562524c113bb952be86425bff6b57326c7859e89024fe4f238ca327a1ae4a230180dd2f0e88aaa7d93b4102da22e32d82fc925482184f16c09fd4281692720b87d124aef6da48a0f114e2fcc58e58e68ec7edc30c8d50dccc3ce2714a623ec81f46b6a63922d7656974625544000000000000000000000000456e7469746965734174506f736974697462554400000000000000000000000053657373696f6e54696d657200000000","linkReferences":{}},"methodIdentifiers":{"_msgSender()":"119df25f","_msgValue()":"45ec9354","_world()":"e1af802c","getEntitiesAtPosition(uint16,uint16)":"69e10c7b","getEntityPosition(bytes32)":"50c4bd84","getPlayerCounterKey()":"62100289","getSpawnedPlayerCount()":"02121ee1","isAtPosition(bytes32,uint16,uint16)":"3fbf0c5a","move(bytes32,uint16,uint16)":"953717d1","spawn(bytes32)":"911c37ae","supportsInterface(bytes4)":"01ffc9a7"},"id":513}