{"abi":[{"type":"function","name":"_msgSender","inputs":[],"outputs":[{"name":"sender","type":"address","internalType":"address"}],"stateMutability":"view"},{"type":"function","name":"_msgValue","inputs":[],"outputs":[{"name":"value","type":"uint256","internalType":"uint256"}],"stateMutability":"pure"},{"type":"function","name":"_world","inputs":[],"outputs":[{"name":"","type":"address","internalType":"address"}],"stateMutability":"view"},{"type":"function","name":"getEntitiesAtPosition","inputs":[{"name":"x","type":"uint16","internalType":"uint16"},{"name":"y","type":"uint16","internalType":"uint16"}],"outputs":[{"name":"entitiesAtPosition","type":"bytes32[]","internalType":"bytes32[]"}],"stateMutability":"view"},{"type":"function","name":"move","inputs":[{"name":"entityId","type":"bytes32","internalType":"bytes32"},{"name":"x","type":"uint16","internalType":"uint16"},{"name":"y","type":"uint16","internalType":"uint16"}],"outputs":[],"stateMutability":"nonpayable"},{"type":"function","name":"spawn","inputs":[{"name":"entityId","type":"bytes32","internalType":"bytes32"}],"outputs":[],"stateMutability":"nonpayable"},{"type":"function","name":"supportsInterface","inputs":[{"name":"interfaceId","type":"bytes4","internalType":"bytes4"}],"outputs":[{"name":"","type":"bool","internalType":"bool"}],"stateMutability":"pure"},{"type":"event","name":"Store_SetRecord","inputs":[{"name":"tableId","type":"bytes32","indexed":true,"internalType":"ResourceId"},{"name":"keyTuple","type":"bytes32[]","indexed":false,"internalType":"bytes32[]"},{"name":"staticData","type":"bytes","indexed":false,"internalType":"bytes"},{"name":"encodedLengths","type":"bytes32","indexed":false,"internalType":"EncodedLengths"},{"name":"dynamicData","type":"bytes","indexed":false,"internalType":"bytes"}],"anonymous":false},{"type":"event","name":"Store_SpliceDynamicData","inputs":[{"name":"tableId","type":"bytes32","indexed":true,"internalType":"ResourceId"},{"name":"keyTuple","type":"bytes32[]","indexed":false,"internalType":"bytes32[]"},{"name":"dynamicFieldIndex","type":"uint8","indexed":false,"internalType":"uint8"},{"name":"start","type":"uint48","indexed":false,"internalType":"uint48"},{"name":"deleteCount","type":"uint40","indexed":false,"internalType":"uint40"},{"name":"encodedLengths","type":"bytes32","indexed":false,"internalType":"EncodedLengths"},{"name":"data","type":"bytes","indexed":false,"internalType":"bytes"}],"anonymous":false},{"type":"event","name":"Store_SpliceStaticData","inputs":[{"name":"tableId","type":"bytes32","indexed":true,"internalType":"ResourceId"},{"name":"keyTuple","type":"bytes32[]","indexed":false,"internalType":"bytes32[]"},{"name":"start","type":"uint48","indexed":false,"internalType":"uint48"},{"name":"data","type":"bytes","indexed":false,"internalType":"bytes"}],"anonymous":false},{"type":"error","name":"EncodedLengths_InvalidLength","inputs":[{"name":"length","type":"uint256","internalType":"uint256"}]},{"type":"error","name":"Slice_OutOfBounds","inputs":[{"name":"data","type":"bytes","internalType":"bytes"},{"name":"start","type":"uint256","internalType":"uint256"},{"name":"end","type":"uint256","internalType":"uint256"}]},{"type":"error","name":"Store_IndexOutOfBounds","inputs":[{"name":"length","type":"uint256","internalType":"uint256"},{"name":"accessedIndex","type":"uint256","internalType":"uint256"}]},{"type":"error","name":"Store_InvalidResourceType","inputs":[{"name":"expected","type":"bytes2","internalType":"bytes2"},{"name":"resourceId","type":"bytes32","internalType":"ResourceId"},{"name":"resourceIdString","type":"string","internalType":"string"}]},{"type":"error","name":"Store_InvalidSplice","inputs":[{"name":"startWithinField","type":"uint40","internalType":"uint40"},{"name":"deleteCount","type":"uint40","internalType":"uint40"},{"name":"fieldLength","type":"uint40","internalType":"uint40"}]},{"type":"error","name":"World_AccessDenied","inputs":[{"name":"resource","type":"string","internalType":"string"},{"name":"caller","type":"address","internalType":"address"}]},{"type":"error","name":"World_FunctionSelectorNotFound","inputs":[{"name":"functionSelector","type":"bytes4","internalType":"bytes4"}]},{"type":"error","name":"World_ResourceNotFound","inputs":[{"name":"resourceId","type":"bytes32","internalType":"ResourceId"},{"name":"resourceIdString","type":"string","internalType":"string"}]}],"bytecode":{"object":"0x608060405234801561001057600080fd5b5061400c806100206000396000f3fe608060405234801561001057600080fd5b506004361061007d5760003560e01c806369e10c7b1161005b57806369e10c7b146100dd578063911c37ae146100fd578063953717d114610112578063e1af802c1461012557600080fd5b806301ffc9a714610082578063119df25f146100aa57806345ec9354146100ca575b600080fd5b610095610090366004613475565b61012d565b60405190151581526020015b60405180910390f35b6100b26101c6565b6040516001600160a01b0390911681526020016100a1565b604051601f1936013581526020016100a1565b6100f06100eb3660046134c9565b6101d5565b6040516100a19190613538565b61011061010b36600461354b565b6101e8565b005b610110610120366004613564565b610304565b6100b2610541565b60007fffffffff0000000000000000000000000000000000000000000000000000000082167fb5dee1270000000000000000000000000000000000000000000000000000000014806101c057507fffffffff0000000000000000000000000000000000000000000000000000000082167f01ffc9a700000000000000000000000000000000000000000000000000000000145b92915050565b60006101d061054b565b905090565b60606101e1838361057d565b9392505050565b60006101f38261063c565b9050806001600160a01b03166102076101c6565b6001600160a01b0316146102875760405162461bcd60e51b8152602060048201526024808201527f4f6e6c7920746865206f776e65722063616e20737061776e206120636861726160448201527f637465720000000000000000000000000000000000000000000000000000000060648201526084015b60405180910390fd5b610290826106d9565b156102dd5760405162461bcd60e51b815260206004820152601960248201527f43686172616374657220616c726561647920737061776e656400000000000000604482015260640161027e565b6102e98260008061077e565b6102f4826001610846565b61030060008084610904565b5050565b600061030f8461063c565b9050806001600160a01b03166103236101c6565b6001600160a01b03161461039f5760405162461bcd60e51b815260206004820152602360248201527f4f6e6c7920746865206f776e65722063616e206d6f766520612063686172616360448201527f7465720000000000000000000000000000000000000000000000000000000000606482015260840161027e565b6103a8846106d9565b6103f45760405162461bcd60e51b815260206004820152601560248201527f436861726163746572206e6f7420737061776e65640000000000000000000000604482015260640161027e565b600080610400866109ca565b9150915060008061040f610a7b565b915091508061ffff168761ffff161061046a5760405162461bcd60e51b815260206004820152600f60248201527f58206f7574206f6620626f756e64730000000000000000000000000000000000604482015260640161027e565b8161ffff168661ffff16106104c15760405162461bcd60e51b815260206004820152600f60248201527f59206f7574206f6620626f756e64730000000000000000000000000000000000604482015260640161027e565b6104cd84848989610af8565b61ffff166001146105205760405162461bcd60e51b815260206004820152601e60248201527f43616e206f6e6c79206d6f766520312074696c6520617420612074696d650000604482015260640161027e565b61052d8885858a8a610b66565b6105378787610c62565b5050505050505050565b60006101d0610ed3565b7fffffffffffffffffffffffffffffffffffffffffffffffffffffffffffffffcc36013560601c8061057a5750335b90565b604080516002808252606080830184529260009291906020830190803683370190505090508361ffff1660001b816000815181106105bd576105bd6135b6565b6020026020010181815250508261ffff1660001b816001815181106105e4576105e46135b6565b6020908102919091010152600061061c7f74625544000000000000000000000000456e7469746965734174506f736974698383610edd565b905061063361062e8260008451610fa4565b611032565b95945050505050565b604080516001808252818301909252600091829190602080830190803683370190505090508281600081518110610675576106756135b6565b602090810291909101015260006106ce7f74625544000000000000000000000000436861726163746572730000000000008360017e56050020140120010000000000000000000000000000000000000000000000611043565b60601c949350505050565b604080516001808252818301909252600091829190602080830190803683370190505090508281600081518110610712576107126135b6565b6020908102919091010152600061076a7f74625544000000000000000000000000537061776e656400000000000000000083837e01010001000000000000000000000000000000000000000000000000000000611043565b90506107768160f81c90565b949350505050565b6040805160f084811b7fffff0000000000000000000000000000000000000000000000000000000000009081166020808501919091529185901b1660228301528251600481840301815260016024840181815260648501909552909360009360609385939160440190803683370190505090508681600081518110610805576108056135b6565b602090810291909101015261083d7f74625544000000000000000000000000506f736974696f6e000000000000000082868686611100565b50505050505050565b60408051600180825281830190925260009160208083019080368337019050509050828160008151811061087c5761087c6135b6565b6020026020010181815250506108ff7f74625544000000000000000000000000537061776e656400000000000000000060001b826000856040516020016108ca91151560f81b815260010190565b60408051601f198184030181529190527e010100010000000000000000000000000000000000000000000000000000006111b5565b505050565b6040805160028082526060820183526000926020830190803683370190505090508361ffff1660001b81600081518110610940576109406135b6565b6020026020010181815250508261ffff1660001b81600181518110610967576109676135b6565b6020026020010181815250506109c47f74625544000000000000000000000000456e7469746965734174506f7369746960001b826000856040516020016109b091815260200190565b60405160208183030381529060405261122b565b50505050565b60408051600180825281830190925260009182918291602080830190803683370190505090508381600081518110610a0457610a046135b6565b602090810291909101015260008080610a5d7f74625544000000000000000000000000506f736974696f6e0000000000000000857e040200020200000000000000000000000000000000000000000000000000006112dd565b925092509250610a6e8383836113ad565b9550955050505050915091565b60408051600080825260208201909252819060008080610adb7f746255440000000000000000000000004d6170436f6e66696700000000000000857e040200020200000000000000000000000000000000000000000000000000006112dd565b925092509250610aec8383836113ad565b95509550505050509091565b6000808361ffff168661ffff1611610b1957610b1486856135e2565b610b23565b610b2384876135e2565b905060008361ffff168661ffff1611610b4557610b4086856135e2565b610b4f565b610b4f84876135e2565b9050610b5b8183613604565b979650505050505050565b6000610b7285856101d5565b90506000805b8251811015610bfe5787838281518110610b9457610b946135b6565b602002602001015103610bec576001915060008360018551610bb6919061361f565b81518110610bc657610bc66135b6565b60200260200101519050610bdc888984846113d0565b610be6888961149b565b50610bfe565b80610bf681613632565b915050610b78565b5080610c4c5760405162461bcd60e51b815260206004820152601f60248201527f456e7469747920776173206e6f74206174207468617420706f736974696f6e00604482015260640161027e565b610c5787858561077e565b61083d848489610904565b6000610c716000808585610af8565b61ffff1690506000610c828261153b565b9050606046617a6903610d1e5773__$227e4555c1f608352b26068e438454dd8b$__63bc3a86cf610cb4600842613730565b6040518263ffffffff1660e01b8152600401610cd291815260200190565b600060405180830381865af4158015610cef573d6000803e3d6000fd5b505050506040513d6000823e601f3d908101601f19168201604052610d179190810190613770565b9050610db1565b6040517fbc3a86cf00000000000000000000000000000000000000000000000000000000815244600482015273__$227e4555c1f608352b26068e438454dd8b$__9063bc3a86cf90602401600060405180830381865af4158015610d86573d6000803e3d6000fd5b505050506040513d6000823e601f3d908101601f19168201604052610dae9190810190613770565b90505b60005b60068260018451610dc5919061361f565b81518110610dd557610dd56135b6565b6020026020010151610de79190613842565b63ffffffff16811015610ecb57610ec2838451848481518110610e0c57610e0c6135b6565b602002602001015163ffffffff16610e249190613865565b81518110610e3457610e346135b6565b60200260200101518787604051602401610e659392919092835261ffff918216602084015216604082015260600190565b60408051601f198184030181529190526020810180517bffffffffffffffffffffffffffffffffffffffffffffffffffffffff167f15bc4248000000000000000000000000000000000000000000000000000000001790526115c2565b50600101610db4565b505050505050565b60006101d0611670565b60606000610ee9611670565b9050306001600160a01b03821603610f0e57610f068585856116af565b9150506101e1565b6040517f1e7889770000000000000000000000000000000000000000000000000000000081526001600160a01b03821690631e78897790610f5790889088908890600401613879565b600060405180830381865afa158015610f74573d6000803e3d6000fd5b505050506040513d6000823e601f3d908101601f19168201604052610f06919081019061392d565b509392505050565b600081831180610fb45750835182115b15610ff1578383836040517f23230fa300000000000000000000000000000000000000000000000000000000815260040161027e9392919061398e565b60208401610fff84826139b3565b9050600061100d858561361f565b6fffffffffffffffffffffffffffffffff1660809290921b9190911795945050505050565b606060006101e183602060006116e9565b60008061104e611670565b9050306001600160a01b038216036110745761106c86868686611764565b915050610776565b6040517f8c364d590000000000000000000000000000000000000000000000000000000081526001600160a01b03821690638c364d59906110bf9089908990899089906004016139c6565b602060405180830381865afa1580156110dc573d6000803e3d6000fd5b505050506040513d601f19601f8201168201806040525081019061106c91906139f5565b600061110a611670565b9050306001600160a01b0382160361112e576111298686868686611791565b610ecb565b6040517f298314fb0000000000000000000000000000000000000000000000000000000081526001600160a01b0382169063298314fb9061117b9089908990899089908990600401613a0e565b600060405180830381600087803b15801561119557600080fd5b505af11580156111a9573d6000803e3d6000fd5b50505050505050505050565b60006111bf611670565b9050306001600160a01b038216036111de5761112986868686866117a7565b6040517f390baae00000000000000000000000000000000000000000000000000000000081526001600160a01b0382169063390baae09061117b9089908990899089908990600401613a53565b6000611235611670565b9050306001600160a01b0382160361125857611253858585856117bc565b6112d6565b6040517f150f32620000000000000000000000000000000000000000000000000000000081526001600160a01b0382169063150f3262906112a3908890889088908890600401613a9a565b600060405180830381600087803b1580156112bd57600080fd5b505af11580156112d1573d6000803e3d6000fd5b505050505b5050505050565b60606000606060006112ed611670565b9050306001600160a01b038216036113165761130a8787876117f7565b935093509350506113a4565b6040517f419b58fd0000000000000000000000000000000000000000000000000000000081526001600160a01b0382169063419b58fd9061135f908a908a908a90600401613ace565b600060405180830381865afa15801561137c573d6000803e3d6000fd5b505050506040513d6000823e601f3d908101601f1916820160405261130a9190810190613af7565b93509350939050565b60208301516022840151600091829160f091821c911c5b90969095509350505050565b6040805160028082526060820183526000926020830190803683370190505090508461ffff1660001b8160008151811061140c5761140c6135b6565b6020026020010181815250508361ffff1660001b81600181518110611433576114336135b6565b60200260200101818152505060008260405160200161145491815260200190565b6040516020818303038152906040529050610ecb7f74625544000000000000000000000000456e7469746965734174506f7369746960001b836000876020028551866118ff565b6040805160028082526060820183526000926020830190803683370190505090508261ffff1660001b816000815181106114d7576114d76135b6565b6020026020010181815250508161ffff1660001b816001815181106114fe576114fe6135b6565b6020026020010181815250506108ff7f74625544000000000000000000000000456e7469746965734174506f7369746960001b82600060206119b8565b60408051600180825281830190925260609160009190602080830190803683370190505090508260001b81600081518110611578576115786135b6565b602090810291909101015260006115b07f746255440000000000000000000000004d6f627342794c6576656c00000000008383610edd565b905061077661062e8260008451610fa4565b60606000806115d86115d385613b64565b611a2b565b91509150816000801b0361163e576040517ffdde54e20000000000000000000000000000000000000000000000000000000081527fffffffff0000000000000000000000000000000000000000000000000000000060003516600482015260240161027e565b6020840180517bffffffffffffffffffffffffffffffffffffffffffffffffffffffff16821790526107768285611aee565b7f629a4c26e296b22a8e0856e9f6ecb2d1008d7e00081111962cd175fa7488e175546000906001600160a01b0316806116aa573391505090565b919050565b60606107766116bf858585611bc9565b60006116e4856116cf8989611c49565b9060ff166028026038011c64ffffffffff1690565b611c5c565b606060006116f78560801c90565b90506fffffffffffffffffffffffffffffffff8516600085828161171d5761171d61382c565b04905060405193506020840160208202810160405281855260005b82811015611758578451871c825293870193602090910190600101611738565b50505050509392505050565b60006106336117738686611c7f565b60ff858116601b0360080285901c1661178c8587611cd5565b611d06565b6112d685858585856117a28b611d57565b611ddc565b6112d685856117b68487611cd5565b85612115565b60006117c88585611c49565b905060006117e5828560ff166028026038011c64ffffffffff1690565b9050610ecb86868684600088886123b0565b6060600060606000611808856127ea565b905061181587878361280d565b9350600061182286612846565b905080156118f4576118348888611c49565b935066ffffffffffffff841667ffffffffffffffff811115611858576118586135a0565b6040519080825280601f01601f191660200182016040528015611882576020820181803683370190505b5092506020830160005b828160ff1610156118f15760006118a48b8b84611bc9565b905060006118c1888460ff166028026038011c64ffffffffff1690565b90506118d08260008387612883565b6118da81856139b3565b9350505080806118e990613bb4565b91505061188c565b50505b505093509350939050565b6000611909611670565b9050306001600160a01b0382160361192e5761192987878787878761294f565b61083d565b6040517fc0a2895a0000000000000000000000000000000000000000000000000000000081526001600160a01b0382169063c0a2895a9061197d908a908a908a908a908a908a90600401613bd3565b600060405180830381600087803b15801561199757600080fd5b505af11580156119ab573d6000803e3d6000fd5b5050505050505050505050565b60006119c2611670565b9050306001600160a01b038216036119e05761125385858585612967565b6040517fd9c03a040000000000000000000000000000000000000000000000000000000081526001600160a01b0382169063d9c03a04906112a39088908890889088906004016139c6565b6040805160018082528183019092526000918291829160208083019080368337019050509050837bffffffffffffffffffffffffffffffffffffffffffffffffffffffff191681600081518110611a8457611a846135b6565b602090810291909101015260008080611add7f7462776f726c6400000000000000000046756e6374696f6e53656c6563746f72857e240200200400000000000000000000000000000000000000000000000000006112dd565b925092509250610a6e8383836129c0565b60606000611afa610ed3565b90506001600160a01b0381163003611b3b576000611b22611b1961054b565b600087876129cc565b9350905080611b3457611b3483612b07565b50506101c0565b6040517f3ae7af080000000000000000000000000000000000000000000000000000000081526001600160a01b03821690633ae7af0890611b829087908790600401613c29565b6000604051808303816000875af1158015611ba1573d6000803e3d6000fd5b505050506040513d6000823e601f3d908101601f19168201604052610776919081019061392d565b60008383604051602001611bde929190613c42565b604051602081830303815290604052805190602001208260f81b7effffffffffffffffffffffffffffffffffffffffffffffffffffffffffffff19167f3b4102da22e32d82fc925482184f16c09fd4281692720b87d124aef6da48a0f1181860001c90509392505050565b60006101e1611c588484612b0f565b5490565b60405160208101601f19603f8484010116604052828252610f9c85858584612883565b60008282604051602001611c94929190613c42565b60408051601f1981840301815291905280516020909101207f86425bff6b57326c7859e89024fe4f238ca327a1ae4a230180dd2f0e88aaa7d9189392505050565b600080805b8360ff16811015610f9c57611cfc60ff601b83900360080287901c16836139b3565b9150600101611cda565b600060208210611d2c57602082048401935060208281611d2857611d2861382c565b0691505b508254600882021b602082900380841115610f9c576001850154600882021c82179150509392505050565b60007f8b9d8c8b908d9affffffffffffffffffab9e9d939a8d000000000000000000008201611da657507e60030220202000000000000000000000000000000000000000000000000000919050565b6101c0611dd37f746273746f72650000000000000000005461626c65730000000000000000000084612b65565b60206000611d06565b7f6f74000000000000000000000000000000000000000000000000000000000000867fffff0000000000000000000000000000000000000000000000000000000000001603611e6857857f8dbb3a9672eebfd3773e72dd9c102393436816d832c7ba9e1e1ac8fcadcac7a986868686604051611e5b9493929190613c7e565b60405180910390a2610ecb565b6000611e7387612b81565b905060005b8151811015611f4c576000828281518110611e9557611e956135b6565b60200260200101519050611ec16001826affffffffffffffffffffff1916612c0a90919063ffffffff16565b15611f43576040517f57066c9c000000000000000000000000000000000000000000000000000000008152606082901c906357066c9c90611f10908c908c908c908c908c908c90600401613cbd565b600060405180830381600087803b158015611f2a57600080fd5b505af1158015611f3e573d6000803e3d6000fd5b505050505b50600101611e78565b50867f8dbb3a9672eebfd3773e72dd9c102393436816d832c7ba9e1e1ac8fcadcac7a987878787604051611f839493929190613c7e565b60405180910390a26000611f978888611c7f565b90506000602087019050611faf826000895184612c28565b6000611fba85612846565b111561203e576000611fcc8a8a612b0f565b878155905060208601915060008060005b611fe688612846565b8160ff16101561203957611ffb8d8d83611bc9565b92506120168a8260ff166028026038011c64ffffffffff1690565b91506120258360008488612c28565b61202f82866139b3565b9450600101611fdd565b505050505b60005b83518110156111a957600084828151811061205e5761205e6135b6565b6020026020010151905061208a6002826affffffffffffffffffffff1916612c0a90919063ffffffff16565b1561210c576040517f5b28cdaf000000000000000000000000000000000000000000000000000000008152606082901c90635b28cdaf906120d9908e908e908e908e908e908e90600401613cbd565b600060405180830381600087803b1580156120f357600080fd5b505af1158015612107573d6000803e3d6000fd5b505050505b50600101612041565b7f6f74000000000000000000000000000000000000000000000000000000000000847fffff000000000000000000000000000000000000000000000000000000000000160361219f57837f8c0b5119d4cec7b284c6b1b39252a03d1e2f2d7451a5895562524c113bb952be84848460405161219293929190613d16565b60405180910390a26109c4565b60006121ab8585611c7f565b905060006121b886612b81565b905060005b815181101561228d5760008282815181106121da576121da6135b6565b602002602001015190506122066004826affffffffffffffffffffff1916612c0a90919063ffffffff16565b15612284576040517f964f667d000000000000000000000000000000000000000000000000000000008152606082901c9063964f667d90612251908b908b908b908b90600401613d53565b600060405180830381600087803b15801561226b57600080fd5b505af115801561227f573d6000803e3d6000fd5b505050505b506001016121bd565b50857f8c0b5119d4cec7b284c6b1b39252a03d1e2f2d7451a5895562524c113bb952be8686866040516122c293929190613d16565b60405180910390a26122dd828565ffffffffffff1685612ce7565b60005b815181101561083d5760008282815181106122fd576122fd6135b6565b602002602001015190506123296008826affffffffffffffffffffff1916612c0a90919063ffffffff16565b156123a7576040517fa8ba8721000000000000000000000000000000000000000000000000000000008152606082901c9063a8ba872190612374908b908b908b908b90600401613d53565b600060405180830381600087803b15801561238e57600080fd5b505af11580156123a2573d6000803e3d6000fd5b505050505b506001016122e0565b7f7462000000000000000000000000000000000000000000000000000000000000877fffff0000000000000000000000000000000000000000000000000000000000001614612470577f7462000000000000000000000000000000000000000000000000000000000000878860405160200161242e91815260200190565b60408051601f19818403018152908290527f31b4668300000000000000000000000000000000000000000000000000000000825261027e939291600401613d8c565b600061248b828760ff166028026038011c64ffffffffff1690565b9050600083518564ffffffffff16836124a4919061361f565b6124ae91906139b3565b90508082141580156124d05750816124c68688613dcd565b64ffffffffff1614155b15612520576040517fa65010b400000000000000000000000000000000000000000000000000000000815264ffffffffff808816600483015280871660248301528316604482015260640161027e565b818664ffffffffff161115612571576040517f7e8578d30000000000000000000000000000000000000000000000000000000081526004810183905264ffffffffff8716602482015260440161027e565b600061257e848984612cfd565b9050600061258b8b612b81565b905060005b81518110156126565760008282815181106125ad576125ad6135b6565b602002602001015190506125d96010826affffffffffffffffffffff1916612c0a90919063ffffffff16565b1561264d57606081901c6001600160a01b03166355eb5a288e8e8e8e8e8d8f6040518863ffffffff1660e01b815260040161261a9796959493929190613deb565b600060405180830381600087803b15801561263457600080fd5b505af1158015612648573d6000803e3d6000fd5b505050505b50600101612590565b5064ffffffffff881660005b8a60ff168160ff16101561269557612689878260ff166028026038011c64ffffffffff1690565b90910190600101612662565b508b7ffe158a7adba34e256807c8a149028d3162918713c3838afc643ce9f96716ebfd8c8c848c888d6040516126d096959493929190613e49565b60405180910390a2508284146126f15760006126ec8c8c612b0f565b839055505b60006126fe8c8c8c611bc9565b9050612712818a64ffffffffff1689612ce7565b5060005b81518110156127dc576000828281518110612733576127336135b6565b6020026020010151905061275f6020826affffffffffffffffffffff1916612c0a90919063ffffffff16565b156127d357606081901c6001600160a01b031663635845338e8e8e8e8e8a8f6040518863ffffffff1660e01b81526004016127a09796959493929190613deb565b600060405180830381600087803b1580156127ba57600080fd5b505af11580156127ce573d6000803e3d6000fd5b505050505b50600101612716565b505050505050505050505050565b600060086127fa6002602061361f565b6128049190613e98565b9190911c919050565b60608160000361282c57506040805160208101909152600081526101e1565b60006128388585611c7f565b905061063381600085611c5c565b600060086001806128596002602061361f565b612863919061361f565b61286d919061361f565b6128779190613e98565b8260ff911c1692915050565b821561290a57602083106128ad576020830484019350602083816128a9576128a961382c565b0692505b821561290a5760208390036000818410156128d05750600019600884021c6128da565b50600019600882021c5b8554600886021b8184511682198216178452508184116128fb5750506109c4565b50600194909401939182900391015b5b6020821061292c5783548152600190930192601f199091019060200161290b565b81156109c4576000600019600884021c8251865482191691161782525050505050565b610ecb8686868686866129628d8d611c49565b6123b0565b60006129738585611c49565b90506000612990828560ff166028026038011c64ffffffffff1690565b9050610ecb8686866129a98764ffffffffff871661361f565b6040805160008152602081019091528890886123b0565b6000806113c485612dcb565b600060606000806129dc86612de0565b90925090506001600160a01b038216612a2d57856129f987612e84565b6040517ffbf10ce600000000000000000000000000000000000000000000000000000000815260040161027e929190613c29565b80612a3c57612a3c8689612fc1565b8615612aa8577dffffffffffffffffffffffffffff0000000000000000000000000000000086167f6e73000000000000000000000000000000000000000000000000000000000000176000612a908261300d565b9050612aa582612aa08b846139b3565b61309e565b50505b6000612ab48760101b90565b7fffffffffffffffffffffffffffff0000000000000000000000000000000000001614612aec57612ae788888488613152565b612af8565b612af8888884886131ca565b90999098509650505050505050565b805160208201fd5b60008282604051602001612b24929190613c42565b60408051601f1981840301815291905280516020909101207f14e2fcc58e58e68ec7edc30c8d50dccc3ce2714a623ec81f46b6a63922d76569189392505050565b6040805160208101849052908101829052600090606001611c94565b60408051600180825281830190925260609160009190602080830190803683370190505090508281600081518110612bbb57612bbb6135b6565b60209081029190910101526000612bf37f746273746f726500000000000000000053746f7265486f6f6b7300000000000083836116af565b9050610776612c058260008451610fa4565b61322b565b60008160ff1682612c1b8560581c90565b1660ff1614905092915050565b8215612ca25760208310612c5257602083048401935060208381612c4e57612c4e61382c565b0692505b8215612ca25760208390036000600019600885021c1990506008850281811c91508351811c9050811987541682821617875550818411612c935750506109c4565b50600194909401939182900391015b5b60208210612cc45780518455600190930192601f1990910190602001612ca3565b81156109c4576000600019600884021c8554835182191691161785555050505050565b6108ff83838351612cf88560200190565b612c28565b600064ffffffffff821115612d41576040517f7149a3c10000000000000000000000000000000000000000000000000000000081526004810183905260240161027e565b8366ffffffffffffff811660ff851660280260380182901c64ffffffffff16808510612d735780850382019150612d7b565b848103820391505b5064ffffffffff6038602860ff8816020181811b197fffffffffffffffffffffffffffffffffffffffffffffffffff000000000000009490941690921792909216918416901b1790509392505050565b602081015160408201516000905b9050915091565b60408051600180825281830190925260009182918291602080830190803683370190505090508381600081518110612e1a57612e1a6135b6565b602090810291909101015260008080612e737f7462776f726c6400000000000000000053797374656d73000000000000000000857e150200140100000000000000000000000000000000000000000000000000006117f7565b925092509250610a6e83838361323c565b606081601081901b6000612e9783613248565b9050827fffffffffffffffffffffffffffff000000000000000000000000000000000000831615612ef257612eed7fffffffffffffffffffffffffffff000000000000000000000000000000000000841661325f565b612f29565b6040518060400160405280600681526020017f3c726f6f743e00000000000000000000000000000000000000000000000000008152505b7fffffffffffffffffffffffffffffffff00000000000000000000000000000000831615612f5f57612f5a8361325f565b612f96565b6040518060400160405280600681526020017f3c726f6f743e00000000000000000000000000000000000000000000000000008152505b604051602001612fa893929190613eaf565b6040516020818303038152906040529350505050919050565b612fcb8282613303565b61030057612fd882612e84565b816040517fd787b73700000000000000000000000000000000000000000000000000000000815260040161027e929190613f3d565b604080516001808252818301909252600091829190602080830190803683370190505090508281600081518110613046576130466135b6565b602090810291909101015260006107767f7462776f726c6400000000000000000042616c616e636573000000000000000083837e20010020000000000000000000000000000000000000000000000000000000611764565b6040805160018082528183019092526000916020808301908036833701905050905082816000815181106130d4576130d46135b6565b6020026020010181815250506108ff7f7462776f726c6400000000000000000042616c616e636573000000000000000060001b8260008560405160200161311d91815260200190565b60408051601f198184030181529190527e200100200000000000000000000000000000000000000000000000000000006117a7565b60006060836001600160a01b0316600061316d858989613361565b60405161317a9190613f68565b60006040518083038185875af1925050503d80600081146131b7576040519150601f19603f3d011682016040523d82523d6000602084013e6131bc565b606091505b509097909650945050505050565b60006060836001600160a01b03166131e3848888613361565b6040516131f09190613f68565b600060405180830381855af49150503d80600081146131b7576040519150601f19603f3d011682016040523d82523d6000602084013e6131bc565b606060006101e183601560006116e9565b6000806113c485613390565b6000613256607060106139b3565b9190911b919050565b606060005b60108110156132c4577fffffffffffffffffffffffffffffffff000000000000000000000000000000008316600882021b7fff0000000000000000000000000000000000000000000000000000000000000016156132c457600101613264565b604080517fffffffffffffffffffffffffffffffff00000000000000000000000000000000851660208201528151603090910190915281815280610776565b60006133517f6e730000000000000000000000000000000000000000000000000000000000007dffffffffffffffffffffffffffff00000000000000000000000000000000851617836133ac565b806101e157506101e183836133ac565b606083838360405160200161337893929190613f84565b60405160208183030381529060405290509392505050565b6020810151603482015160609190911c9060009060f81c612dd9565b6040805160028082526060820183526000928392919060208301908036833701905050905083816000815181106133e5576133e56135b6565b602002602001018181525050826001600160a01b031660001b81600181518110613411576134116135b6565b602090810291909101015260006134697f7462776f726c640000000000000000005265736f75726365416363657373000083837e01010001000000000000000000000000000000000000000000000000000000611764565b90506106338160f81c90565b60006020828403121561348757600080fd5b81357fffffffff00000000000000000000000000000000000000000000000000000000811681146101e157600080fd5b803561ffff811681146116aa57600080fd5b600080604083850312156134dc57600080fd5b6134e5836134b7565b91506134f3602084016134b7565b90509250929050565b60008151808452602080850194506020840160005b8381101561352d57815187529582019590820190600101613511565b509495945050505050565b6020815260006101e160208301846134fc565b60006020828403121561355d57600080fd5b5035919050565b60008060006060848603121561357957600080fd5b83359250613589602085016134b7565b9150613597604085016134b7565b90509250925092565b634e487b7160e01b600052604160045260246000fd5b634e487b7160e01b600052603260045260246000fd5b634e487b7160e01b600052601160045260246000fd5b61ffff8281168282160390808211156135fd576135fd6135cc565b5092915050565b61ffff8181168382160190808211156135fd576135fd6135cc565b818103818111156101c0576101c06135cc565b60006000198203613645576136456135cc565b5060010190565b600181815b8085111561368757816000190482111561366d5761366d6135cc565b8085161561367a57918102915b93841c9390800290613651565b509250929050565b60008261369e575060016101c0565b816136ab575060006101c0565b81600181146136c157600281146136cb576136e7565b60019150506101c0565b60ff8411156136dc576136dc6135cc565b50506001821b6101c0565b5060208310610133831016604e8410600b841016171561370a575081810a6101c0565b613714838361364c565b8060001904821115613728576137286135cc565b029392505050565b60006101e160ff84168361368f565b604051601f8201601f1916810167ffffffffffffffff81118282101715613768576137686135a0565b604052919050565b6000602080838503121561378357600080fd5b825167ffffffffffffffff8082111561379b57600080fd5b818501915085601f8301126137af57600080fd5b8151818111156137c1576137c16135a0565b8060051b91506137d284830161373f565b81815291830184019184810190888411156137ec57600080fd5b938501935b83851015613820578451925063ffffffff831683146138105760008081fd5b82825293850193908501906137f1565b98975050505050505050565b634e487b7160e01b600052601260045260246000fd5b600063ffffffff808416806138595761385961382c565b92169190910692915050565b6000826138745761387461382c565b500690565b83815260606020820152600061389260608301856134fc565b905060ff83166040830152949350505050565b60005b838110156138c05781810151838201526020016138a8565b50506000910152565b600082601f8301126138da57600080fd5b815167ffffffffffffffff8111156138f4576138f46135a0565b6139076020601f19601f8401160161373f565b81815284602083860101111561391c57600080fd5b6107768260208301602087016138a5565b60006020828403121561393f57600080fd5b815167ffffffffffffffff81111561395657600080fd5b610776848285016138c9565b6000815180845261397a8160208601602086016138a5565b601f01601f19169290920160200192915050565b6060815260006139a16060830186613962565b60208301949094525060400152919050565b808201808211156101c0576101c06135cc565b8481526080602082015260006139df60808301866134fc565b60ff949094166040830152506060015292915050565b600060208284031215613a0757600080fd5b5051919050565b85815260a060208201526000613a2760a08301876134fc565b8281036040840152613a398187613962565b905084606084015282810360808401526138208185613962565b85815260a060208201526000613a6c60a08301876134fc565b60ff861660408401528281036060840152613a878186613962565b9150508260808301529695505050505050565b848152608060208201526000613ab360808301866134fc565b60ff851660408401528281036060840152610b5b8185613962565b838152606060208201526000613ae760608301856134fc565b9050826040830152949350505050565b600080600060608486031215613b0c57600080fd5b835167ffffffffffffffff80821115613b2457600080fd5b613b30878388016138c9565b9450602086015193506040860151915080821115613b4d57600080fd5b50613b5a868287016138c9565b9150509250925092565b6000815160208301517fffffffff0000000000000000000000000000000000000000000000000000000080821693506004831015613bac5780818460040360031b1b83161693505b505050919050565b600060ff821660ff8103613bca57613bca6135cc565b60010192915050565b86815260c060208201526000613bec60c08301886134fc565b60ff8716604084015264ffffffffff86811660608501528516608084015282810360a0840152613c1c8185613962565b9998505050505050505050565b8281526040602082015260006107766040830184613962565b8281526000602080830184516020860160005b82811015613c7157815184529284019290840190600101613c55565b5091979650505050505050565b608081526000613c9160808301876134fc565b8281036020840152613ca38187613962565b90508460408401528281036060840152610b5b8185613962565b86815260c060208201526000613cd660c08301886134fc565b8281036040840152613ce88188613962565b90508560608401528281036080840152613d028186613962565b9150508260a0830152979650505050505050565b606081526000613d2960608301866134fc565b65ffffffffffff851660208401528281036040840152613d498185613962565b9695505050505050565b848152608060208201526000613d6c60808301866134fc565b65ffffffffffff851660408401528281036060840152610b5b8185613962565b7fffff000000000000000000000000000000000000000000000000000000000000841681528260208201526060604082015260006106336060830184613962565b64ffffffffff8181168382160190808211156135fd576135fd6135cc565b87815260e060208201526000613e0460e08301896134fc565b60ff8816604084015264ffffffffff87811660608501528616608084015260a0830185905282810360c0840152613e3b8185613962565b9a9950505050505050505050565b60c081526000613e5c60c08301896134fc565b60ff8816602084015265ffffffffffff8716604084015264ffffffffff8616606084015284608084015282810360a0840152613c1c8185613962565b80820281158282048414176101c0576101c06135cc565b7fffff0000000000000000000000000000000000000000000000000000000000008416815260007f3a000000000000000000000000000000000000000000000000000000000000008060028401528451613f108160038601602089016138a5565b808401905081600382015284519150613f308260048301602088016138a5565b0160040195945050505050565b604081526000613f506040830185613962565b90506001600160a01b03831660208301529392505050565b60008251613f7a8184602087016138a5565b9190910192915050565b60008451613f968184602089016138a5565b60609490941b7fffffffffffffffffffffffffffffffffffffffff000000000000000000000000169190930190815260148101919091526034019291505056fea2646970667358221220e6c5deb2c5317e17d48339af6e93b75fd13a4f937ed3455c8a916216793265e764736f6c63430008180033","linkReferences":{"src/libraries/LibChunks.sol":{"LibChunks":[{"start":3249,"length":20},{"start":3436,"length":20}]}}},"methodIdentifiers":{"_msgSender()":"119df25f","_msgValue()":"45ec9354","_world()":"e1af802c","getEntitiesAtPosition(uint16,uint16)":"69e10c7b","move(bytes32,uint16,uint16)":"953717d1","spawn(bytes32)":"911c37ae","supportsInterface(bytes4)":"01ffc9a7"},"id":213}