{"abi":[{"type":"function","name":"_msgSender","inputs":[],"outputs":[{"name":"sender","type":"address","internalType":"address"}],"stateMutability":"view"},{"type":"function","name":"_msgValue","inputs":[],"outputs":[{"name":"value","type":"uint256","internalType":"uint256"}],"stateMutability":"view"},{"type":"function","name":"_world","inputs":[],"outputs":[{"name":"","type":"address","internalType":"address"}],"stateMutability":"view"},{"type":"function","name":"getEntitiesAtPosition","inputs":[{"name":"x","type":"uint16","internalType":"uint16"},{"name":"y","type":"uint16","internalType":"uint16"}],"outputs":[{"name":"entitiesAtPosition","type":"bytes32[]","internalType":"bytes32[]"}],"stateMutability":"view"},{"type":"function","name":"getEntityPosition","inputs":[{"name":"entityId","type":"bytes32","internalType":"bytes32"}],"outputs":[{"name":"x","type":"uint16","internalType":"uint16"},{"name":"y","type":"uint16","internalType":"uint16"}],"stateMutability":"view"},{"type":"function","name":"isAtPosition","inputs":[{"name":"entityId","type":"bytes32","internalType":"bytes32"},{"name":"x","type":"uint16","internalType":"uint16"},{"name":"y","type":"uint16","internalType":"uint16"}],"outputs":[{"name":"_isAtPosition","type":"bool","internalType":"bool"}],"stateMutability":"view"},{"type":"function","name":"move","inputs":[{"name":"entityId","type":"bytes32","internalType":"bytes32"},{"name":"x","type":"uint16","internalType":"uint16"},{"name":"y","type":"uint16","internalType":"uint16"}],"outputs":[],"stateMutability":"nonpayable"},{"type":"function","name":"spawn","inputs":[{"name":"entityId","type":"bytes32","internalType":"bytes32"}],"outputs":[],"stateMutability":"nonpayable"},{"type":"function","name":"supportsInterface","inputs":[{"name":"interfaceId","type":"bytes4","internalType":"bytes4"}],"outputs":[{"name":"","type":"bool","internalType":"bool"}],"stateMutability":"pure"},{"type":"event","name":"Store_SetRecord","inputs":[{"name":"tableId","type":"bytes32","indexed":true,"internalType":"ResourceId"},{"name":"keyTuple","type":"bytes32[]","indexed":false,"internalType":"bytes32[]"},{"name":"staticData","type":"bytes","indexed":false,"internalType":"bytes"},{"name":"encodedLengths","type":"bytes32","indexed":false,"internalType":"EncodedLengths"},{"name":"dynamicData","type":"bytes","indexed":false,"internalType":"bytes"}],"anonymous":false},{"type":"event","name":"Store_SpliceDynamicData","inputs":[{"name":"tableId","type":"bytes32","indexed":true,"internalType":"ResourceId"},{"name":"keyTuple","type":"bytes32[]","indexed":false,"internalType":"bytes32[]"},{"name":"dynamicFieldIndex","type":"uint8","indexed":false,"internalType":"uint8"},{"name":"start","type":"uint48","indexed":false,"internalType":"uint48"},{"name":"deleteCount","type":"uint40","indexed":false,"internalType":"uint40"},{"name":"encodedLengths","type":"bytes32","indexed":false,"internalType":"EncodedLengths"},{"name":"data","type":"bytes","indexed":false,"internalType":"bytes"}],"anonymous":false},{"type":"event","name":"Store_SpliceStaticData","inputs":[{"name":"tableId","type":"bytes32","indexed":true,"internalType":"ResourceId"},{"name":"keyTuple","type":"bytes32[]","indexed":false,"internalType":"bytes32[]"},{"name":"start","type":"uint48","indexed":false,"internalType":"uint48"},{"name":"data","type":"bytes","indexed":false,"internalType":"bytes"}],"anonymous":false},{"type":"error","name":"AlreadySpawned","inputs":[]},{"type":"error","name":"EncodedLengths_InvalidLength","inputs":[{"name":"length","type":"uint256","internalType":"uint256"}]},{"type":"error","name":"EntityNotAtPosition","inputs":[]},{"type":"error","name":"GamePaused","inputs":[]},{"type":"error","name":"InEncounter","inputs":[]},{"type":"error","name":"InvalidMove","inputs":[]},{"type":"error","name":"MaxPlayers","inputs":[]},{"type":"error","name":"MoveTooFast","inputs":[]},{"type":"error","name":"NotSpawned","inputs":[]},{"type":"error","name":"OnlyCharacters","inputs":[]},{"type":"error","name":"OutOfBounds","inputs":[]},{"type":"error","name":"Slice_OutOfBounds","inputs":[{"name":"data","type":"bytes","internalType":"bytes"},{"name":"start","type":"uint256","internalType":"uint256"},{"name":"end","type":"uint256","internalType":"uint256"}]},{"type":"error","name":"Store_IndexOutOfBounds","inputs":[{"name":"length","type":"uint256","internalType":"uint256"},{"name":"accessedIndex","type":"uint256","internalType":"uint256"}]},{"type":"error","name":"Store_InvalidResourceType","inputs":[{"name":"expected","type":"bytes2","internalType":"bytes2"},{"name":"resourceId","type":"bytes32","internalType":"ResourceId"},{"name":"resourceIdString","type":"string","internalType":"string"}]},{"type":"error","name":"Store_InvalidSplice","inputs":[{"name":"startWithinField","type":"uint40","internalType":"uint40"},{"name":"deleteCount","type":"uint40","internalType":"uint40"},{"name":"fieldLength","type":"uint40","internalType":"uint40"}]},{"type":"error","name":"Unauthorized","inputs":[]}],"bytecode":{"object":"0x6080806040523461001657614afd908161001b8239f35b5f80fdfe60806040526004361015610011575f80fd5b5f3560e01c806301ffc9a7146100a4578063119df25f1461009f5780633fbf0c5a1461009a57806345ec93541461009557806350c4bd841461009057806369e10c7b1461008b578063911c37ae14610086578063953717d1146100815763e1af802c1461007c575f80fd5b6107d6565b6105ea565b61029f565b610252565b6101ef565b6101bb565b610162565b610106565b346100f85760203660031901126100f85760043563ffffffff60e01b81168091036100f85763b5dee12760e01b81149081156100e7575b50151560805260206080f35b6301ffc9a760e01b149050816100db565b5f80fd5b5f9103126100f857565b346100f8575f3660031901126100f8576020610120610964565b6040516001600160a01b039091168152f35b60609060031901126100f8576004359061ffff9060243582811681036100f8579160443590811681036100f85790565b346100f85761017036610132565b9061017b5f936109f3565b919061ffff8080931691161492836101ab575b5050506101a3575b6020906040519015158152f35b506001610196565b81929350169116145f808061018e565b346100f8575f3660031901126100f8576020604051601f193601358152f35b61ffff91821681529116602082015260400190565b346100f85760203660031901126100f85761020b6004356109f3565b9061021b604051928392836101da565b0390f35b9081518082526020808093019301915f5b82811061023e575050505090565b835185529381019392810192600101610230565b346100f85760403660031901126100f85761ffff60043581811681036100f85760243591821682036100f85761021b9161028b91610a2f565b60405191829160208352602083019061021f565b346100f85760203660031901126100f85760048035906102bd610acd565b6102d56102d16102cc84610af8565b610b1b565b1590565b6105dc576102e230610b70565b6102f26102ed6109b0565b6119b8565b81116105cc5761030183610baa565b6105bc5761030e83610bcd565b9061032961031d61031d61207c565b6001600160a01b031690565b9160206040518094633e86fb3160e21b8252818061034e8a8a83019190602083019252565b03915afa92831561043f575f9361058b575b5082156105815761037a9061037486610c50565b906108c7565b5f8113156105725761038c9085610c21565b61039584610c6d565b8161039f85610d8e565b610444575b6103c26103c8916103b486610f23565b6103bd86611003565b610949565b30611090565b6103ce57005b6103dc61031d61031d61207c565b91823b156100f85760408051633f96047360e01b8152928301918252600160208301525f90820181905260608201819052919283918290849082906080015b03925af1801561043f5761042c575b005b8061043961042a92610804565b806100fc565b6108a8565b61044e4285610e69565b61045c61031d61031d61207c565b9061046b61031d61031d61207c565b9160c0604051809463a543a0c560e01b825281806104908b8b83019190602083019252565b03915afa92831561043f575f93610541575b50803b156100f85761050d5f93918492604051958680948193638e9fa2ef60e01b83528c8c840190929160a060c09160e08401958452805160208501526020810151604085015260408101516060850152606081015160808501526080810151828501520151910152565b03925af190811561043f576103c8926103c29261052e575b509150506103a4565b8061043961053b92610804565b5f610525565b61056491935060c03d60c01161056b575b61055c818361086d565b8101906108e7565b915f6104a2565b503d610552565b5061057c84610bea565b61038c565b61057c9085610c21565b6105ae91935060203d6020116105b5575b6105a6818361086d565b810190610890565b915f610360565b503d61059c565b50604051635b94c49160e11b8152fd5b506040516343e8a51b60e11b8152fd5b6040516282b42960e81b8152fd5b346100f8576105f836610132565b610603929192610acd565b61060c82610af8565b9261061b61031d61031d61207c565b926040948551633e86fb3160e21b81526020816004978180610644888c83019190602083019252565b03915afa90811561043f575f916107b7575b50156107a7576102d161066891610b1b565b610798576106786102d182610baa565b6107885761068581611147565b6107785761069281611164565b8015159081610766575b50610756576106aa816109f3565b916106b3611181565b9061ffff80921682871610156107465781168187161015610736576001906106dd878787876111a8565b1603610726576106f09285928592611245565b6106fe61031d61031d61207c565b90813b156100f8575f809461041b96519687958694859363b812f8e360e01b855284016101da565b86516321e08b4d60e21b81528690fd5b8751632d0483c560e21b81528790fd5b8851632d0483c560e21b81528890fd5b845163326f4b4f60e01b81528490fd5b6107709150610949565b42105f61069c565b84516363754e4360e01b81528490fd5b8451635ea2f27b60e11b81528490fd5b84516282b42960e81b81528490fd5b8551635c501a1360e11b81528590fd5b6107d0915060203d6020116105b5576105a6818361086d565b5f610656565b346100f8575f3660031901126100f857602061012061207c565b634e487b7160e01b5f52604160045260245ffd5b6001600160401b03811161081757604052565b6107f0565b604081019081106001600160401b0382111761081757604052565b606081019081106001600160401b0382111761081757604052565b602081019081106001600160401b0382111761081757604052565b601f909101601f19168101906001600160401b0382119082101761081757604052565b908160209103126100f8575180151581036100f85790565b6040513d5f823e3d90fd5b634e487b7160e01b5f52601160045260245ffd5b9190915f83820193841291129080158216911516176108e257565b6108b3565b908160c09103126100f8576040519060c08201906001600160401b038211838310176108175760a0916040528051835260208101516020840152604081015160408401526060810151606084015260808101516080840152015160a082015290565b90600182018092116108e257565b919082018092116108e257565b36603319013560601c90811561097657565b339150565b604051906109888261081c565b6001825260203681840137565b604051906109a282610837565b600282526040366020840137565b6040516109bc81610852565b5f8152905f368137565b634e487b7160e01b5f52603260045260245ffd5b80518210156109ee5760209160051b010190565b6109c6565b6109fb61097b565b908151156109ee5781610a15916020610a2b9401526114be565b5050906022602083015160f01c92015160f01c90565b9091565b610a37610995565b9161ffff908351156109ee5781602093166020850152835193600194600110156109ee57610a7692610a6e9216604082015261160e565b805190611707565b6040805160206020600160801b0384168201810190925260016001607b1b03600584901c168082529094909260801c9185015f5b848110610aba5750505050505090565b8351825292850192908501908201610aaa565b610add610ad86109b0565b61176b565b60f81c610ae657565b60405163379a7ed960e01b8152600490fd5b610b0061097b565b8051156109ee57610b15916020820152611822565b60601c90565b610b23610964565b6001600160a01b039081169116818114610b6957610b3f610995565b908151156109ee5760208201528051600110156109ee57610b649160408201526118b8565b151590565b5050600190565b610b78610995565b908151156109ee576001600160a01b031660208201528051600110156109ee57805f6040610ba7930152611950565b90565b610bb261097b565b8051156109ee57610bc7916020820152611a5a565b60f81c90565b610bd561097b565b8051156109ee57610ba7916020820152611ac1565b610bf261097b565b8051156109ee57610c1f916020820152604051906001602083015260208252610c1a8261081c565b611d89565b565b90610c2a61097b565b8051156109ee57610c1f92602082015260405191602083015260208252610c1a8261081c565b610c5861097b565b8051156109ee57610ba7916020820152611b5b565b604051905f60208301525f602283015260048252610c8a8261081c565b610c9261097b565b908151156109ee5760208201526001600160a01b03610caf61207c565b16308103610cc2575090610c1f91612f3a565b90813b156100f85760405163298314fb60e01b8152672837b9b4ba34b7b760411b631d18955160e21b01600482015260a06024820152925f9284929091839185918391610d449190610d2f90610d1c9060a486019061021f565b60031992838683030160448701526116e2565b908460648501528382030160848401526116a5565b03925af1801561043f57610d555750565b80610439610c1f92610804565b906040519261ffff60f01b809260f01b16602085015260f01b16602283015260048252610c8a8261081c565b610d9661097b565b908151156109ee576020820152604051600160f81b602082015260018152610dbd8161081c565b6001600160a01b03610dcd61207c565b1691308303610de057610c1f9250612754565b90823b156100f8576040516301c85d5760e51b81526614dc185ddb9959604a1b631d18955160e21b01600482015260a06024820152925f928492839185918391610e4b9190610e339060a485019061021f565b908460448501526003198483030160648501526116e2565b630101000160d81b608483015203925af1801561043f57610d555750565b90610e7261097b565b918251156109ee57602083015260405190602082015260208152610e958161081c565b6001600160a01b03610ea561207c565b1691308303610eb857610c1f92506128ec565b90823b156100f8576040516301c85d5760e51b81525f80516020614add833981519152600482015260a06024820152925f928492839185918391610f059190610e339060a485019061021f565b630100080160dd1b608483015203925af1801561043f57610d555750565b610f2b61097b565b908151156109ee5760208201526040515f602082015260018152610f4e8161081c565b6001600160a01b03610f5e61207c565b1691308303610f7157610c1f9250612a53565b90823b156100f8576040516301c85d5760e51b81526f456e636f756e746572456e7469747900631d18955160e21b01600482015260a06024820152925f928492839185918391610fe39190610fca9060a485019061021f565b60016044850152838103600319016064850152906116e2565b6502081809000960cd1b608483015203925af1801561043f57610d555750565b61100b610995565b908151156109ee575f60208301528151600110156109ee57815f6040610c1f940152604051916020830152602082526110438261081c565b611e41565b919091611053610995565b9061ffff908251156109ee57811660208301528151600110156109ee57610c1f93166040820152604051916020830152602082526110438261081c565b90611099610995565b805190926001600160a01b0391156109ee57811660208401528251600110156109ee575f6040840152604051916020830152602082526110d88261081c565b6110e061207c565b16913083036110f357610c1f9250612c15565b90823b156100f8576040516301c85d5760e51b815267436f756e7465727360401b631d18955160e21b01600482015260a06024820152925f928492839185918391610f059190610e339060a485019061021f565b61114f61097b565b8051156109ee57610ba7916020820152611bf5565b61116c61097b565b8051156109ee57610ba7916020820152611c8c565b610a2b610a1561118f6109b0565b611580565b61ffff91821690821603919082116108e257565b91909161ffff9384928392838216848216115f146111fe57906111ca91611194565b935b81831681841611156111f057906111e291611194565b169116019081116108e25790565b6111f991611194565b6111e2565b61120791611194565b936111cc565b5f198101919082116108e257565b601f198101919082116108e257565b919082039182116108e257565b5f1981146108e25760010190565b919390936112538186610a2f565b905f955f5b83518110156113f8578561126c82866109da565b51146112805761127b90611237565b611258565b6112b19394959697506112ac906112a360019661129d815161120d565b906109da565b51908484611eb2565b611f9b565b156113e6576112c461031d61031d61207c565b604051633e86fb3160e21b81526004810184905290602090829060249082905afa90811561043f575f916113c7575b5061130d575b8261130882610c1f9585610d62565b611048565b6113174283610e69565b61ffff60058185161490816113ba575b50156112f9576113396102d18361204d565b156112f95761134c61031d61031d61207c565b92833b156100f857604051633f96047360e01b8152600481018490526005602482015261ffff828116604483015283166064820152935f908590608490829084905af193841561043f57610c1f946113a7575b5092506112f9565b806104396113b492610804565b5f61139f565b600591508216145f611327565b6113e0915060203d6020116105b5576105a6818361086d565b5f6112f3565b604051632f43d24d60e21b8152600490fd5b505050509091926112b1565b5f5b8381106114155750505f910152565b8181015183820152602001611406565b81601f820112156100f85780516001600160401b0381116108175760405192611458601f8301601f19166020018561086d565b818452602082840101116100f857610ba79160208085019101611404565b90916060828403126100f85781516001600160401b0392908381116100f857846114a1918301611425565b9360208201519360408301519081116100f857610ba79201611425565b6001600160a01b036114ce61207c565b163081036114e757506114e0906120b1565b9192909190565b60405163419b58fd60e01b8152672837b9b4ba34b7b760411b631d18955160e21b0160048201526060602482015292915f9184918290819061152d90606483019061021f565b64020100010160d11b604483015203915afa90811561043f575f80935f93611556575b50929190565b9193505061157691503d805f833e61156e818361086d565b810190611476565b929092915f611550565b6001600160a01b0361159061207c565b163081036115a257506114e090612137565b60405163419b58fd60e01b8152684d6170436f6e66696760381b631d18955160e21b0160048201526060602482015292915f9184918290819061152d90606483019061021f565b906020828203126100f85781516001600160401b0381116100f857610ba79201611425565b6001600160a01b0361161e61207c565b163081036116305750610ba7906121a4565b604051631e78897760e01b81525f80516020614abd833981519152600482015260606024820152915f9183918290819061166e90606483019061021f565b85604483015203915afa90811561043f575f91611689575090565b610ba791503d805f833e61169d818361086d565b8101906115e9565b90606051918281525f5b8381106116ce5750825f602080949584010152601f8019910116010190565b8060209160800151828285010152016116af565b906020916116fb81518092818552858086019101611404565b601f01601f1916010190565b9081518111611726576001600160801b031660209190910160801b1790565b6040516323230fa360e01b8152606060048201529250829161174c9060648401906116e2565b905f602484015260448301520390fd5b908160209103126100f8575190565b6001600160a01b0361177b61207c565b1630810361178d5750610ba7906121cb565b604051638c364d5960e01b81526514185d5cd95960521b631d18955160e21b01600482015260806024820152916020918391829081906117d190608483019061021f565b5f6044830152630101000160d81b606483015203915afa90811561043f575f916117f9575090565b610ba7915060203d60201161181b575b611813818361086d565b81019061175c565b503d611809565b6001600160a01b0361183261207c565b163081036118445750610ba790612243565b604051638c364d5960e01b8152694368617261637465727360301b631d18955160e21b016004820152608060248201529160209183918290819061188c90608483019061021f565b60016044830152665504022014200160c01b606483015203915afa90811561043f575f916117f9575090565b6001600160a01b036118c861207c565b163081036118da5750610ba7906122f8565b604051638c364d5960e01b81526f5573657244656c65676174696f6e436f661d189ddbdc9b1960ca1b016004820152608060248201529160209183918290819061192890608483019061021f565b5f6044830152630100080160dd1b606483015203915afa90811561043f575f916117f9575090565b6001600160a01b0361196061207c565b163081036119725750610ba790612364565b604051638c364d5960e01b815267436f756e7465727360401b631d18955160e21b016004820152608060248201529160209183918290819061192890608483019061021f565b6001600160a01b036119c861207c565b163081036119da5750610ba7906123c8565b604051638c364d5960e01b81526f556c74696d617465446f6d696e696f6e631d18955160e21b0160048201526080602482015291602091839182908190611a2590608483019061021f565b600860448301526f45434000450505050505050805080805607a1b606483015203915afa90811561043f575f916117f9575090565b6001600160a01b03611a6a61207c565b16308103611a7c5750610ba79061246b565b604051638c364d5960e01b81526614dc185ddb9959604a1b631d18955160e21b01600482015260806024820152916020918391829081906117d190608483019061021f565b6001600160a01b03611ad161207c565b16308103611ae35750610ba7906124ce565b604051638c364d5960e01b815264537461747360581b631d18955160e21b0160048201526080602482015291602091839182908190611b2690608483019061021f565b600460448301526fe60d002020012020202020010101010160781b606483015203915afa90811561043f575f916117f9575090565b6001600160a01b03611b6b61207c565b16308103611b7d5750610ba79061255a565b604051638c364d5960e01b81526f43686172616374657245717569706d65631d18955160e21b0160048201526080602482015291602091839182908190611bc890608483019061021f565b6003604483015267050028290101010160bd1b606483015203915afa90811561043f575f916117f9575090565b6001600160a01b03611c0561207c565b16308103611c175750610ba7906125e6565b604051638c364d5960e01b81526f456e636f756e746572456e7469747900631d18955160e21b0160048201526080602482015291602091839182908190611c6290608483019061021f565b5f60448301526502081809000960cd1b606483015203915afa90811561043f575f916117f9575090565b6001600160a01b03611c9c61207c565b16308103611cae5750610ba79061264f565b604051638c364d5960e01b81525f80516020614add8339815191526004820152608060248201529160209183918290819061192890608483019061021f565b6001600160a01b03611cfd61207c565b16308103611d0f5750610ba7906126b7565b604051638c364d5960e01b81526f467261676d656e7450726f6772657373631d18955160e21b0160048201526080602482015291602091839182908190611d5a90608483019061021f565b60046044830152690330380009001010090160ad1b606483015203915afa90811561043f575f916117f9575090565b906001600160a01b03611d9a61207c565b1691308303611dad57610c1f9250612d83565b90823b156100f8576040516301c85d5760e51b815264537461747360581b631d18955160e21b01600482015260a06024820152925f928492839185918391611e179190611dfe9060a485019061021f565b60056044850152838103600319016064850152906116e2565b6fe60d002020012020202020010101010160781b608483015203925af1801561043f57610d555750565b906001600160a01b03611e5261207c565b1691308303611e6557610c1f9250613159565b90823b156100f857604051630a87993160e11b81525f80516020614abd833981519152600482015260806024820152925f928492839185918391610d449190610e3390608485019061021f565b92919092611ebe610995565b9361ffff918551156109ee57821660208601528451600110156109ee5716604084015260405191602083015260208252611ef78261081c565b815164ffffffffff9081169160051b166001600160a01b03611f1761207c565b16308103611f295750610c1f93613dbb565b909293813b156100f85760405163605144ad60e11b81525f80516020614abd833981519152600482015260c06024820152945f948694859387938593610d44939092611f799060c487019061021f565b92866044870152606486015260848501526003198483030160a48501526116e2565b611fa3610995565b9161ffff918351156109ee57821660208401528251600110156109ee571660408201526001600160a01b03611fd661207c565b16308103611fe85750610c1f9061401d565b803b156100f8576040516336700e8160e21b81525f80516020614abd833981519152600482015260806024820152915f91839182908490829061202f90608483019061021f565b8260448301526020606483015203925af1801561043f57610d555750565b612055610995565b908151156109ee5760208201528051600110156109ee578060056040610bc7930152611ced565b7f629a4c26e296b22a8e0856e9f6ecb2d1008d7e00081111962cd175fa7488e175546001600160a01b031680610ba757503390565b60408051672837b9b4ba34b7b760411b631d18955160e21b01602080830191825284515f956060959394938401929081019190875b82811061212357505050509061210981612120949303601f19810183528261086d565b5190205f80516020614a5d83398151915218613662565b92565b8351855293810193928101926001016120e6565b60408051684d6170436f6e66696760381b631d18955160e21b01602080830191825284515f956060959394938401929081019190875b82811061219057505050509061210981612120949303601f19810183528261086d565b83518552938101939281019260010161216d565b610ba79064ffffffffff6121c06121ba836135fa565b926142a4565b5460381c16906136ce565b60405160208160208101936514185d5cd95960521b631d18955160e21b0185526040820160208251919201935f5b82811061222c57505050612216925003601f19810183528261086d565b5190205f80516020614a5d833981519152185490565b8551845294810194869450928101926001016121f9565b60405161226681612258602082019485613409565b03601f19810183528261086d565b5190205f80516020614a5d833981519152185f905f5b600181106122cf5750818160208210156122b9575b505080548260031b1b9160200390816014116122ac57505090565b600101549060031b1c1790565b90809350601f925060051c019116905f80612291565b9160ff665504022014200160c01b84601b0360031b1c1681018091116108e2579160010161227c565b60405160208160208101936f5573657244656c65676174696f6e436f661d189ddbdc9b1960ca1b0185526040820160208251919201935f5b82811061234d57505050612216925003601f19810183528261086d565b855184529481019486945092810192600101612330565b604051602081602081019367436f756e7465727360401b631d18955160e21b0185526040820160208251919201935f5b8281106123b157505050612216925003601f19810183528261086d565b855184529481019486945092810192600101612394565b6040516123dd81612258602082019485613451565b5190205f80516020614a5d833981519152185f905f5b60088110612439575081816020821015612423575b505080548260031b1b9160200390816020116122ac57505090565b90809350601f925060051c019116905f80612408565b9160ff6f45434000450505050505050805080805607a1b84601b0360031b1c1681018091116108e257916001016123f3565b60405160208160208101936614dc185ddb9959604a1b631d18955160e21b0185526040820160208251919201935f5b8281106124b757505050612216925003601f19810183528261086d565b85518452948101948694509281019260010161249a565b6040516124e38161225860208201948561349c565b5190205f80516020614a5d833981519152185f905f5b6004811061252857508181602082101561242357505080548260031b1b9160200390816020116122ac57505090565b9160ff6fe60d002020012020202020010101010160781b84601b0360031b1c1681018091116108e257916001016124f9565b60405161256f816122586020820194856134df565b5190205f91905f80516020614a5d83398151915218825b6003808510156125bc5767050028290101010160bd1b601b86900390911b1c60ff1681019081106108e257600190930192612586565b509192508181602082101561242357505080548260031b1b9160200390816020116122ac57505090565b60405160208160208101936f456e636f756e746572456e7469747900631d18955160e21b0185526040820160208251919201935f5b82811061263857505050612216925003601f19810183528261086d565b85518452948101948694509281019260010161261b565b60405160208160208101936b29b2b9b9b4b7b72a34b6b2b960211b631d18955160e21b0185526040820160208251919201935f5b8281106126a057505050612216925003601f19810183528261086d565b855184529481019486945092810192600101612683565b6040516126cc8161225860208201948561352a565b5190205f80516020614a5d833981519152185f905f5b60048110612728575081816020821015612712575b505080548260031b1b9160200390816001116122ac57505090565b90809350601f925060051c019116905f806126f7565b9160ff690330380009001010090160ad1b84601b0360031b1c1681018091116108e257916001016126e2565b919061275f83613743565b91612768614533565b905f5b825181101561280f5761279f61279261278483866109da565b516001600160581b03191690565b6001600160581b03191690565b9060049182808260581c16146127bb575b50600191500161276b565b60601c803b156100f857855f9189836127e9966040519788958694859363964f667d60e01b85528401613998565b03925af191821561043f57600192156127b0578061043961280992610804565b5f6127b0565b50604080519194909392916128589184916614dc185ddb9959604a1b631d18955160e21b01905f80516020614a3d8339815191529080612850868d8361393c565b0390a2614871565b5f5b81518110156128e45761287361279261278483856109da565b6008808260581c161461288a575b5060010161285a565b60601c90813b156100f857845163a8ba872160e01b8152915f9083908183816128b78a8e60048401613998565b03925af191821561043f576001926128d1575b5090612881565b806104396128de92610804565b5f6128ca565b505050509050565b91906128f7836137a6565b916129006145d7565b905f5b825181101561298c5761291c61279261278483866109da565b9060049182808260581c1614612938575b506001915001612903565b60601c803b156100f857855f918983612966966040519788958694859363964f667d60e01b855284016139dd565b03925af191821561043f576001921561292d578061043961298692610804565b5f61292d565b50604080519194909392916129c79184915f80516020614add833981519152905f80516020614a3d8339815191529080612850868d8361393c565b5f5b81518110156128e4576129e261279261278483856109da565b6008808260581c16146129f9575b506001016129c9565b60601c90813b156100f857845163a8ba872160e01b8152915f908390818381612a268a8e600484016139dd565b03925af191821561043f57600192612a40575b50906129f0565b80610439612a4d92610804565b5f612a39565b9190915f805b60018210612bec5765ffffffffffff915016612a748261380e565b612a7c614680565b905f5b8251811015612b0957612a9861279261278483866109da565b9060049182808260581c1614612ab4575b506001915001612a7f565b60601c803b156100f857855f9188838c96612ae36040519889968795869463964f667d60e01b86528501613a08565b03925af191821561043f5760019215612aa95780610439612b0392610804565b5f612aa9565b50949190612b568383604098875f80516020614a3d83398151915260405180612b4e87876f456e636f756e746572456e7469747900631d18955160e21b019684613967565b0390a26148be565b5f5b8151811015612be357612b7161279261278483856109da565b6008808260581c1614612b88575b50600101612b58565b60601c90813b156100f857875163a8ba872160e01b8152915f908390818381612bb68b8b8e60048501613a08565b03925af191821561043f57600192612bd0575b5090612b7f565b80610439612bdd92610804565b5f612bc9565b50505050509050565b60ff6502081809000960cd1b83601b0360031b1c1681018091116108e257600190910190612a59565b9190612c2083613877565b91612c2961472a565b905f5b8251811015612cb557612c4561279261278483866109da565b9060049182808260581c1614612c61575b506001915001612c2c565b60601c803b156100f857855f918983612c8f966040519788958694859363964f667d60e01b85528401613a58565b03925af191821561043f5760019215612c565780610439612caf92610804565b5f612c56565b5060408051919490939291612cf791849167436f756e7465727360401b631d18955160e21b01905f80516020614a3d8339815191529080612850868d8361393c565b5f5b81518110156128e457612d1261279261278483856109da565b6008808260581c1614612d29575b50600101612cf9565b60601c90813b156100f857845163a8ba872160e01b8152915f908390818381612d568a8e60048401613a58565b03925af191821561043f57600192612d70575b5090612d20565b80610439612d7d92610804565b5f612d69565b9190915f805b60058210612f075765ffffffffffff915016612da4826138db565b612dac6147cf565b905f5b8251811015612e3957612dc861279261278483866109da565b9060049182808260581c1614612de4575b506001915001612daf565b60601c803b156100f857855f9188838c96612e136040519889968795869463964f667d60e01b86528501613a8a565b03925af191821561043f5760019215612dd95780610439612e3392610804565b5f612dd9565b50604080519096939291612e7a918591859164537461747360581b631d18955160e21b01905f80516020614a3d8339815191529080612b4e87878e84613967565b5f5b8151811015612be357612e9561279261278483856109da565b6008808260581c1614612eac575b50600101612e7c565b60601c90813b156100f857875163a8ba872160e01b8152915f908390818381612eda8b8b8e60048501613a8a565b03925af191821561043f57600192612ef4575b5090612ea3565b80610439612f0192610804565b5f612eed565b60ff6fe60d002020012020202020010101010160781b83601b0360031b1c1681018091116108e257600190910190612d89565b60408051655461626c657360501b66746273746f726560c81b0160208201908152672837b9b4ba34b7b760411b631d18955160e21b018284018190528383529295929491612f8781610837565b5190205f80516020614a5d833981519152185491612fa36142e3565b905f5b825181101561303157612fbf61279261278483866109da565b6001808260581c1614612fd6575b50600101612fa6565b60601c90813b156100f85788516315c19b2760e21b8152915f9083908183816130048c8c8f60048501613afd565b03925af191821561043f5760019261301e575b5090612fcd565b8061043961302b92610804565b5f613017565b50947f8dbb3a9672eebfd3773e72dd9c102393436816d832c7ba9e1e1ac8fcadcac7a9875180613062868983613ac1565b0390a261307d61307185613719565b835160208501916148cf565b60ff808460e01c168061311a575b50505f5b8151811015612be3576130a861279261278483856109da565b6002808260581c16146130bf575b5060010161308f565b60601c90813b156100f8578751635b28cdaf60e01b8152915f9083908183816130ed8b8b8e60048501613afd565b03925af191821561043f57600192613107575b50906130b6565b8061043961311492610804565b5f613100565b5f613124876142ce565b555f60805b828483161061313957505061308b565b600181613150869361314b868d613625565b614902565b92011690613129565b919091613165816142a4565b5464ffffffffff8160381c1661317c855182610957565b8181141594908580613360575b61333057613197908461499f565b906131a06143df565b915f5b8351811015613232576131bc61279261278483876109da565b6010808260581c16146131d3575b506001016131a3565b60601c90813b156100f8575f878b9388838c61320560405198899687958694630abd6b4560e31b865260048601613bb8565b03925af191821561043f5760019261321f575b50906131ca565b8061043961322c92610804565b5f613218565b506040805192979195509392915f80516020614abd833981519152905f80516020614a1d833981519152908061326b8c8a898d85613ce4565b0390a2613320575b6132868783613281886135fa565b6148be565b5f5b8151811015613316576132a161279261278483856109da565b6020808260581c16146132b8575b50600101613288565b60601c90813b156100f8575f868a9386838b6132e98b5198899687958694636358453360e01b865260048601613bb8565b03925af191821561043f57600192613303575b50906132af565b8061043961331092610804565b5f6132fc565b5050505050509050565b8361332a866142a4565b55613273565b604051632994042d60e21b815264ffffffffff8416600482018190525f60248301526044820152606490fd5b0390fd5b508261337861336e82613b5f565b64ffffffffff1690565b1415613189565b6953746f7265486f6f6b7360301b66746273746f726560c81b01815281516020918201928201915f5b8281106133b6575050505090565b8351855293810193928101926001016133a8565b5f80516020614abd833981519152815281516020918201928201915f5b8281106133f5575050505090565b8351855293810193928101926001016133e7565b694368617261637465727360301b631d18955160e21b01815281516020918201928201915f5b82811061343d575050505090565b83518552938101939281019260010161342f565b6f556c74696d617465446f6d696e696f6e631d18955160e21b01815281516020918201928201915f5b828110613488575050505090565b83518552938101939281019260010161347a565b64537461747360581b631d18955160e21b01815281516020918201928201915f5b8281106134cb575050505090565b8351855293810193928101926001016134bd565b6f43686172616374657245717569706d65631d18955160e21b01815281516020918201928201915f5b828110613516575050505090565b835185529381019392810192600101613508565b6f467261676d656e7450726f6772657373631d18955160e21b01815281516020918201928201915f5b828110613561575050505090565b835185529381019392810192600101613553565b5f80516020614abd833981519152815281516020918201928201915f5b8281106135a0575050505090565b835185529381019392810192600101613592565b672837b9b4ba34b7b760411b631d18955160e21b01815281516020918201928201915f5b8281106135e6575050505090565b8351855293810193928101926001016135d8565b5f80516020614a7d8339815191529060405161361e81612258602082019485613575565b5190201890565b905f80516020614a7d8339815191529160405161364a816122586020820194856135b4565b51902060f89190911b6001600160f81b031916181890565b60405190602090601f1990816043850116604052600484526020840192600491925b818310156136b65750508061369a575b50505090565b5f199060031b1c908183511691199054161790525f8080613694565b81600185839495979654875201940194019190613684565b60408051601f19603f85830101811690925283815292602080850193925b818310156137015750508061369a5750505090565b816001858394959796548752019401940191906136ec565b60405161372e816122586020820194856135b4565b5190205f80516020614a5d8339815191521890565b60405160208160208101936614dc185ddb9959604a1b631d18955160e21b0185526040820160208251919201935f5b82811061378f5750505061372e925003601f19810183528261086d565b855184529481019486945092810192600101613772565b60405160208160208101936b29b2b9b9b4b7b72a34b6b2b960211b631d18955160e21b0185526040820160208251919201935f5b8281106137f75750505061372e925003601f19810183528261086d565b8551845294810194869450928101926001016137da565b60405160208160208101936f456e636f756e746572456e7469747900631d18955160e21b0185526040820160208251919201935f5b8281106138605750505061372e925003601f19810183528261086d565b855184529481019486945092810192600101613843565b604051602081602081019367436f756e7465727360401b631d18955160e21b0185526040820160208251919201935f5b8281106138c45750505061372e925003601f19810183528261086d565b8551845294810194869450928101926001016138a7565b604051602081602081019364537461747360581b631d18955160e21b0185526040820160208251919201935f5b8281106139255750505061372e925003601f19810183528261086d565b855184529481019486945092810192600101613908565b9091613953610ba79360608452606084019061021f565b915f602082015260408184039101526116e2565b65ffffffffffff613984610ba7959360608452606084019061021f565b9316602082015260408184039101526116e2565b6614dc185ddb9959604a1b631d18955160e21b018152608060208201819052610ba79391926139c99184019061021f565b915f604082015260608184039101526116e2565b5f80516020614add8339815191528152608060208201819052610ba79391926139c99184019061021f565b65ffffffffffff613a44610ba795936f456e636f756e746572456e7469747900631d18955160e21b01845260806020850152608084019061021f565b9316604082015260608184039101526116e2565b67436f756e7465727360401b631d18955160e21b018152608060208201819052610ba79391926139c99184019061021f565b64537461747360581b631d18955160e21b018152608060208201819052610ba7949265ffffffffffff91613a44919084019061021f565b90610ba792613adb613ae99260808552608085019061021f565b9083820360208501526116e2565b905f604082015260608183039101526116a5565b672837b9b4ba34b7b760411b631d18955160e21b01815260c0602082018190529094939260a092613b5a92613b479291613b399189019061021f565b9087820360408901526116e2565b5f606087015285810360808701526116a5565b930152565b9064ffffffffff8092169182116108e257565b90602064ffffffffff809316019182116108e257565b91909164ffffffffff808094169116019182116108e257565b90815264ffffffffff909116602082015260400190565b909264ffffffffff613bf6610ba79694956f456e7469746965734174506f73697469631d18955160e21b01855260e0602086015260e085019061021f565b945f60408501521660608301525f608083015260a082015260c08184039101526116e2565b91613c53610ba7969495926f456e7469746965734174506f73697469631d18955160e21b01855260e0602086015260e085019061021f565b945f604085015264ffffffffff809216606085015216608083015260a082015260c08184039101526116e2565b909264ffffffffff613cbe610ba79694956f456e7469746965734174506f73697469631d18955160e21b01855260e0602086015260e085019061021f565b945f60408501521660608301526020608083015260a082015260c08184039101526116e2565b909265ffffffffffff613d04610ba796949560c0855260c085019061021f565b945f60208501521660408301525f6060830152608082015260a08184039101526116e2565b919390610ba7959365ffffffffffff613d5064ffffffffff9360c0875260c087019061021f565b965f6020870152166040850152166060830152608082015260a08184039101526116e2565b909265ffffffffffff613d95610ba796949560c0855260c085019061021f565b945f602085015216604083015260206060830152608082015260a08184039101526116e2565b91909392613dc8836142a4565b549464ffffffffff808760381c1695613dee613de68387168961122a565b855190610957565b87811415928380614007575b613fd857841697808911613fb95750613e13908961499f565b90613e1c6143df565b925f5b8451811015613eaf57613e3861279261278483886109da565b6010808260581c1614613e4f575b50600101613e1f565b60601c90813b156100f8575f898d9389838e613e828e604051998a9788968795630abd6b4560e31b875260048701613c1b565b03925af191821561043f57600192613e9c575b5090613e46565b80610439613ea992610804565b5f613e95565b5096948093929950613f0d9198604098875f80516020614a1d8339815191528d8b613efc87604051938493896f456e7469746965734174506f73697469631d18955160e21b019886613d29565b0390a2613fa9575b613281876135fa565b5f5b8151811015613f9e57613f2861279261278483856109da565b6020808260581c1614613f3f575b50600101613f0f565b60601c90813b156100f8575f878b9387838a613f718a8f51998a9788968795636358453360e01b875260048701613c1b565b03925af191821561043f57600192613f8b575b5090613f36565b80610439613f9892610804565b5f613f84565b505050505050509050565b8a613fb3886142a4565b55613f04565b604051637e8578d360e01b815290819061335c90879060048401613ba1565b604051632994042d60e21b815264ffffffffff868116600483015288811660248301528a166044820152606490fd5b508861401661336e8988613b88565b1415613dfa565b604090815191602090602084018461403585836133ca565b0394614049601f199687810183528261086d565b5190205f80516020614a9d83398151915218549164ffffffffff808460381c169586018681116108e257169082519661408188610852565b5f88525f36813761409c6140948861121b565b895190610957565b8781141597888061428f575b6142605780851161424257506140be908661499f565b6140c6614489565b925f5b8451811015614157576140e261279261278483886109da565b6010808260581c16146140f9575b506001016140c9565b60601c90813b156100f8575f898d9389838e61412a8e5198899687958694630abd6b4560e31b865260048601613c80565b03925af191821561043f57600192614144575b50906140f0565b8061043961415192610804565b5f61413d565b508551929891965092915f80516020614abd833981519152905f80516020614a1d833981519152908061418d8d8b8a8e85613d75565b0390a2614232575b6141a38884613281896135fa565b5f5b8151811015613f9e576141be61279261278483856109da565b83808260581c16146141d4575b506001016141a5565b60601c90813b156100f8575f878b9387838c6142058c5198899687958694636358453360e01b865260048601613c80565b03925af191821561043f5760019261421f575b50906141cb565b8061043961422c92610804565b5f614218565b8461423c876142a4565b55614195565b8551637e8578d360e01b815290819061335c90879060048401613ba1565b8551632994042d60e21b815264ffffffffff868116600483015260206024830152919091166044820152606490fd5b508061429d61336e87613b72565b14156140a8565b6040516142b981612258602082019485613575565b5190205f80516020614a9d8339815191521890565b6040516142b9816122586020820194856135b4565b6142eb61097b565b8051156109ee57614391610a6e602092672837b9b4ba34b7b760411b631d18955160e21b018482015264ffffffffff604051915f80516020614a7d8339815191528684018461433a848361337f565b039461434e601f199687810183528261086d565b519020189261437460405191826143688a8201958661337f565b0390810183528261086d565b5190205f80516020614a9d833981519152185460381c16906136ce565b8060801c916015809260018060801b0316049060405193818501828460051b8701016040528386525f5b8481106143cb5750505050505090565b8251825291850191908301906001016143bb565b6143e761097b565b8051156109ee5761443b610a6e6020926f456e7469746965734174506f73697469631d18955160e21b018482015264ffffffffff604051915f80516020614a7d8339815191528684018461433a848361337f565b8060801c916015809260018060801b0316049060405193818501828460051b8701016040528386525f5b8481106144755750505050505090565b825182529185019190830190600101614465565b61449161097b565b8051156109ee576144e5610a6e6020926f456e7469746965734174506f73697469631d18955160e21b018482015264ffffffffff604051915f80516020614a7d8339815191528684018461433a848361337f565b8060801c916015809260018060801b0316049060405193818501828460051b8701016040528386525f5b84811061451f5750505050505090565b82518252918501919083019060010161450f565b61453b61097b565b8051156109ee57614589610a6e6020926614dc185ddb9959604a1b631d18955160e21b018482015264ffffffffff604051915f80516020614a7d8339815191528684018461433a848361337f565b8060801c916015809260018060801b0316049060405193818501828460051b8701016040528386525f5b8481106145c35750505050505090565b8251825291850191908301906001016145b3565b6145df61097b565b8051156109ee57614632610a6e6020926b29b2b9b9b4b7b72a34b6b2b960211b631d18955160e21b018482015264ffffffffff604051915f80516020614a7d8339815191528684018461433a848361337f565b8060801c916015809260018060801b0316049060405193818501828460051b8701016040528386525f5b84811061466c5750505050505090565b82518252918501919083019060010161465c565b61468861097b565b8051156109ee576146dc610a6e6020926f456e636f756e746572456e7469747900631d18955160e21b018482015264ffffffffff604051915f80516020614a7d8339815191528684018461433a848361337f565b8060801c916015809260018060801b0316049060405193818501828460051b8701016040528386525f5b8481106147165750505050505090565b825182529185019190830190600101614706565b61473261097b565b8051156109ee57614781610a6e60209267436f756e7465727360401b631d18955160e21b018482015264ffffffffff604051915f80516020614a7d8339815191528684018461433a848361337f565b8060801c916015809260018060801b0316049060405193818501828460051b8701016040528386525f5b8481106147bb5750505050505090565b8251825291850191908301906001016147ab565b6147d761097b565b8051156109ee57614823610a6e60209264537461747360581b631d18955160e21b018482015264ffffffffff604051915f80516020614a7d8339815191528684018461433a848361337f565b8060801c916015809260018060801b0316049060405193818501828460051b8701016040528386525f5b84811061485d5750505050505090565b82518252918501919083019060010161484d565b81519060208093019190925b808210156148a657508061489057505050565b5f199060031b1c90818354169119905116179055565b6001839482939451815501930191601f19019061487d565b8251610c1f9360200192909161490f565b9291925b6020908183106148f35784518155930192601f19909101906001016148d3565b92939190508061489057505050565b9091905f906020906148f3565b90939291938061493e575b509290926020908183106148f35784518155930192601f19909101906001016148d3565b602081101561498f575b801561491a5791939082602003908360031b5f198460031b1c19811c908751901c9080198354169116178155818311156128e457600101940191601f19910101925f61491a565b90601f908260051c019116614948565b64ffffffffff808311614a035766ffffffffffffff821690603883901c16838181106149f9570301915b64ffffffffff60381b60389190911b1664ffffffffff60381b19929092166001600160601b031991909116171790565b90039003916149c9565b604051637149a3c160e01b815260048101849052602490fdfefe158a7adba34e256807c8a149028d3162918713c3838afc643ce9f96716ebfd8c0b5119d4cec7b284c6b1b39252a03d1e2f2d7451a5895562524c113bb952be86425bff6b57326c7859e89024fe4f238ca327a1ae4a230180dd2f0e88aaa7d93b4102da22e32d82fc925482184f16c09fd4281692720b87d124aef6da48a0f114e2fcc58e58e68ec7edc30c8d50dccc3ce2714a623ec81f46b6a63922d7656974625544000000000000000000000000456e7469746965734174506f736974697462554400000000000000000000000053657373696f6e54696d657200000000","linkReferences":{}},"methodIdentifiers":{"_msgSender()":"119df25f","_msgValue()":"45ec9354","_world()":"e1af802c","getEntitiesAtPosition(uint16,uint16)":"69e10c7b","getEntityPosition(bytes32)":"50c4bd84","isAtPosition(bytes32,uint16,uint16)":"3fbf0c5a","move(bytes32,uint16,uint16)":"953717d1","spawn(bytes32)":"911c37ae","supportsInterface(bytes4)":"01ffc9a7"},"id":377}