{"abi":[{"type":"function","name":"_msgSender","inputs":[],"outputs":[{"name":"sender","type":"address","internalType":"address"}],"stateMutability":"view"},{"type":"function","name":"_msgValue","inputs":[],"outputs":[{"name":"value","type":"uint256","internalType":"uint256"}],"stateMutability":"pure"},{"type":"function","name":"_world","inputs":[],"outputs":[{"name":"","type":"address","internalType":"address"}],"stateMutability":"view"},{"type":"function","name":"move","inputs":[{"name":"characterId","type":"uint256","internalType":"uint256"},{"name":"x","type":"uint32","internalType":"uint32"},{"name":"y","type":"uint32","internalType":"uint32"}],"outputs":[],"stateMutability":"nonpayable"},{"type":"function","name":"spawn","inputs":[{"name":"characterId","type":"uint256","internalType":"uint256"}],"outputs":[],"stateMutability":"nonpayable"},{"type":"function","name":"supportsInterface","inputs":[{"name":"interfaceId","type":"bytes4","internalType":"bytes4"}],"outputs":[{"name":"","type":"bool","internalType":"bool"}],"stateMutability":"pure"},{"type":"event","name":"Store_SetRecord","inputs":[{"name":"tableId","type":"bytes32","indexed":true,"internalType":"ResourceId"},{"name":"keyTuple","type":"bytes32[]","indexed":false,"internalType":"bytes32[]"},{"name":"staticData","type":"bytes","indexed":false,"internalType":"bytes"},{"name":"encodedLengths","type":"bytes32","indexed":false,"internalType":"EncodedLengths"},{"name":"dynamicData","type":"bytes","indexed":false,"internalType":"bytes"}],"anonymous":false},{"type":"event","name":"Store_SpliceStaticData","inputs":[{"name":"tableId","type":"bytes32","indexed":true,"internalType":"ResourceId"},{"name":"keyTuple","type":"bytes32[]","indexed":false,"internalType":"bytes32[]"},{"name":"start","type":"uint48","indexed":false,"internalType":"uint48"},{"name":"data","type":"bytes","indexed":false,"internalType":"bytes"}],"anonymous":false},{"type":"error","name":"Slice_OutOfBounds","inputs":[{"name":"data","type":"bytes","internalType":"bytes"},{"name":"start","type":"uint256","internalType":"uint256"},{"name":"end","type":"uint256","internalType":"uint256"}]}],"bytecode":{"object":"0x608060405234801561001057600080fd5b50612088806100206000396000f3fe608060405234801561001057600080fd5b50600436106100725760003560e01c80637ec0c82d116100505780637ec0c82d146100d2578063b04d8fa7146100e7578063e1af802c146100fa57600080fd5b806301ffc9a714610077578063119df25f1461009f57806345ec9354146100bf575b600080fd5b61008a610085366004611ac3565b610102565b60405190151581526020015b60405180910390f35b6100a761019b565b6040516001600160a01b039091168152602001610096565b604051601f193601358152602001610096565b6100e56100e0366004611b05565b6101aa565b005b6100e56100f5366004611b32565b6102ba565b6100a76104f5565b60007fffffffff0000000000000000000000000000000000000000000000000000000082167fb5dee12700000000000000000000000000000000000000000000000000000000148061019557507fffffffff0000000000000000000000000000000000000000000000000000000082167f01ffc9a700000000000000000000000000000000000000000000000000000000145b92915050565b60006101a56104ff565b905090565b60006101b582610531565b9050806001600160a01b03166101c961019b565b6001600160a01b0316146102495760405162461bcd60e51b8152602060048201526024808201527f4f6e6c7920746865206f776e65722063616e20737061776e206120636861726160448201527f637465720000000000000000000000000000000000000000000000000000000060648201526084015b60405180910390fd5b610252826105d0565b1561029f5760405162461bcd60e51b815260206004820152601960248201527f43686172616374657220616c726561647920737061776e6564000000000000006044820152606401610240565b6102ab82600080610678565b6102b6826001610743565b5050565b60006102c584610531565b9050806001600160a01b03166102d961019b565b6001600160a01b0316146103555760405162461bcd60e51b815260206004820152602360248201527f4f6e6c7920746865206f776e65722063616e206d6f766520612063686172616360448201527f74657200000000000000000000000000000000000000000000000000000000006064820152608401610240565b61035e846105d0565b6103aa5760405162461bcd60e51b815260206004820152601560248201527f436861726163746572206e6f7420737061776e656400000000000000000000006044820152606401610240565b6000806103b686610804565b915091506000806103c56108ba565b915091508063ffffffff168763ffffffff16106104245760405162461bcd60e51b815260206004820152600f60248201527f58206f7574206f6620626f756e647300000000000000000000000000000000006044820152606401610240565b8163ffffffff168663ffffffff161061047f5760405162461bcd60e51b815260206004820152600f60248201527f59206f7574206f6620626f756e647300000000000000000000000000000000006044820152606401610240565b61048b84848989610939565b63ffffffff166001146104e05760405162461bcd60e51b815260206004820152601e60248201527f43616e206f6e6c79206d6f766520312074696c6520617420612074696d6500006044820152606401610240565b6104eb888888610678565b5050505050505050565b60006101a56109af565b7fffffffffffffffffffffffffffffffffffffffffffffffffffffffffffffffcc36013560601c8061052e5750335b90565b604080516001808252818301909252600091829190602080830190803683370190505090508260001b8160008151811061056d5761056d611b84565b602090810291909101015260006105c57f746255440000000000000000000000004368617261637465727300000000000083837e360400140120010000000000000000000000000000000000000000000000006109b9565b60601c949350505050565b604080516001808252818301909252600091829190602080830190803683370190505090508260001b8160008151811061060c5761060c611b84565b602090810291909101015260006106647f74625544000000000000000000000000537061776e656400000000000000000083837e010100010000000000000000000000000000000000000000000000000000006109b9565b90506106708160f81c90565b949350505050565b6040805160e084811b7fffffffff000000000000000000000000000000000000000000000000000000009081166020808501919091529185901b1660248301528251600881840301815260016028840181815260688501909552909360009360609385939160480190803683370190505090508660001b8160008151811061070257610702611b84565b602090810291909101015261073a7f74625544000000000000000000000000506f736974696f6e000000000000000082868686610a76565b50505050505050565b604080516001808252818301909252600091602080830190803683370190505090508260001b8160008151811061077c5761077c611b84565b6020026020010181815250506107ff7f74625544000000000000000000000000537061776e656400000000000000000060001b826000856040516020016107ca91151560f81b815260010190565b60408051601f198184030181529190527e01010001000000000000000000000000000000000000000000000000000000610b2c565b505050565b60408051600180825281830190925260009182918291602080830190803683370190505090508360001b8160008151811061084157610841611b84565b60209081029190910101526000808061089a7f74625544000000000000000000000000506f736974696f6e0000000000000000857e08020004040000000000000000000000000000000000000000000000000000610ba2565b5050602081015160249091015160e091821c99911c975095505050505050565b6040805160008082526020820190925281906000808061091a7f746255440000000000000000000000004d6170436f6e66696700000000000000857e08020004040000000000000000000000000000000000000000000000000000610ba2565b5050602081015160249091015160e091821c98911c9650945050505050565b6000808363ffffffff168663ffffffff161161095e576109598685611bb0565b610968565b6109688487611bb0565b905060008363ffffffff168663ffffffff161161098e576109898685611bb0565b610998565b6109988487611bb0565b90506109a48183611bd4565b979650505050505050565b60006101a5610c72565b6000806109c4610c72565b9050306001600160a01b038216036109ea576109e286868686610cb1565b915050610670565b6040517f8c364d590000000000000000000000000000000000000000000000000000000081526001600160a01b03821690638c364d5990610a35908990899089908990600401611c2d565b602060405180830381865afa158015610a52573d6000803e3d6000fd5b505050506040513d601f19601f820116820180604052508101906109e29190611c5c565b6000610a80610c72565b9050306001600160a01b03821603610aa457610a9f8686868686610ce7565b610b24565b6040517f298314fb0000000000000000000000000000000000000000000000000000000081526001600160a01b0382169063298314fb90610af19089908990899089908990600401611cc5565b600060405180830381600087803b158015610b0b57600080fd5b505af1158015610b1f573d6000803e3d6000fd5b505050505b505050505050565b6000610b36610c72565b9050306001600160a01b03821603610b5557610a9f8686868686610d04565b6040517f390baae00000000000000000000000000000000000000000000000000000000081526001600160a01b0382169063390baae090610af19089908990899089908990600401611d16565b6060600060606000610bb2610c72565b9050306001600160a01b03821603610bdb57610bcf878787610d19565b93509350935050610c69565b6040517f419b58fd0000000000000000000000000000000000000000000000000000000081526001600160a01b0382169063419b58fd90610c24908a908a908a90600401611d5d565b600060405180830381865afa158015610c41573d6000803e3d6000fd5b505050506040513d6000823e601f3d908101601f19168201604052610bcf9190810190611e0e565b93509350939050565b7f629a4c26e296b22a8e0856e9f6ecb2d1008d7e00081111962cd175fa7488e175546000906001600160a01b031680610cac573391505090565b919050565b6000610cde610cc08686610e21565b60ff858116601b0360080285901c16610cd98587610e77565b610eb0565b95945050505050565b610cfd8585858585610cf88b610f01565b610f86565b5050505050565b610cfd8585610d138487610e77565b856112bf565b6060600060606000610d2a85611560565b9050610d37878783611583565b93506000610d44866115c7565b90508015610e1657610d568888611604565b935066ffffffffffffff841667ffffffffffffffff811115610d7a57610d7a611b6e565b6040519080825280601f01601f191660200182016040528015610da4576020820181803683370190505b5092506020830160005b828160ff161015610e13576000610dc68b8b84611617565b90506000610de3888460ff166028026038011c64ffffffffff1690565b9050610df28260008387611697565b610dfc8185611e7b565b935050508080610e0b90611e8e565b915050610dae565b50505b505093509350939050565b60008282604051602001610e36929190611ead565b60408051601f1981840301815291905280516020909101207f86425bff6b57326c7859e89024fe4f238ca327a1ae4a230180dd2f0e88aaa7d9189392505050565b600080805b8360ff16811015610ea857610e9e60ff601b83900360080287901c1683611e7b565b9150600101610e7c565b509392505050565b600060208210610ed657602082048401935060208281610ed257610ed2611ee9565b0691505b508254600882021b602082900380841115610ea8576001850154600882021c82179150509392505050565b60007f8b9d8c8b908d9affffffffffffffffffab9e9d939a8d000000000000000000008201610f5057507e60030220202000000000000000000000000000000000000000000000000000919050565b610195610f7d7f746273746f72650000000000000000005461626c65730000000000000000000084611763565b60206000610eb0565b7f6f74000000000000000000000000000000000000000000000000000000000000867fffff000000000000000000000000000000000000000000000000000000000000160361101257857f8dbb3a9672eebfd3773e72dd9c102393436816d832c7ba9e1e1ac8fcadcac7a9868686866040516110059493929190611eff565b60405180910390a2610b24565b600061101d8761177f565b905060005b81518110156110f657600082828151811061103f5761103f611b84565b6020026020010151905061106b6001826affffffffffffffffffffff191661180890919063ffffffff16565b156110ed576040517f57066c9c000000000000000000000000000000000000000000000000000000008152606082901c906357066c9c906110ba908c908c908c908c908c908c90600401611f3e565b600060405180830381600087803b1580156110d457600080fd5b505af11580156110e8573d6000803e3d6000fd5b505050505b50600101611022565b50867f8dbb3a9672eebfd3773e72dd9c102393436816d832c7ba9e1e1ac8fcadcac7a98787878760405161112d9493929190611eff565b60405180910390a260006111418888610e21565b90506000602087019050611159826000895184611826565b6000611164856115c7565b11156111e85760006111768a8a6118e5565b878155905060208601915060008060005b611190886115c7565b8160ff1610156111e3576111a58d8d83611617565b92506111c08a8260ff166028026038011c64ffffffffff1690565b91506111cf8360008488611826565b6111d98286611e7b565b9450600101611187565b505050505b60005b8351811015610b1f57600084828151811061120857611208611b84565b602002602001015190506112346002826affffffffffffffffffffff191661180890919063ffffffff16565b156112b6576040517f5b28cdaf000000000000000000000000000000000000000000000000000000008152606082901c90635b28cdaf90611283908e908e908e908e908e908e90600401611f3e565b600060405180830381600087803b15801561129d57600080fd5b505af11580156112b1573d6000803e3d6000fd5b505050505b506001016111eb565b7f6f74000000000000000000000000000000000000000000000000000000000000847fffff000000000000000000000000000000000000000000000000000000000000160361134957837f8c0b5119d4cec7b284c6b1b39252a03d1e2f2d7451a5895562524c113bb952be84848460405161133c93929190611f97565b60405180910390a261155a565b60006113558585610e21565b905060006113628661177f565b905060005b815181101561143757600082828151811061138457611384611b84565b602002602001015190506113b06004826affffffffffffffffffffff191661180890919063ffffffff16565b1561142e576040517f964f667d000000000000000000000000000000000000000000000000000000008152606082901c9063964f667d906113fb908b908b908b908b90600401611fca565b600060405180830381600087803b15801561141557600080fd5b505af1158015611429573d6000803e3d6000fd5b505050505b50600101611367565b50857f8c0b5119d4cec7b284c6b1b39252a03d1e2f2d7451a5895562524c113bb952be86868660405161146c93929190611f97565b60405180910390a2611487828565ffffffffffff168561193b565b60005b815181101561073a5760008282815181106114a7576114a7611b84565b602002602001015190506114d36008826affffffffffffffffffffff191661180890919063ffffffff16565b15611551576040517fa8ba8721000000000000000000000000000000000000000000000000000000008152606082901c9063a8ba87219061151e908b908b908b908b90600401611fca565b600060405180830381600087803b15801561153857600080fd5b505af115801561154c573d6000803e3d6000fd5b505050505b5060010161148a565b50505050565b6000600861157060026020612003565b61157a9190612016565b9190911c919050565b6060816000036115a257506040805160208101909152600081526115c0565b60006115ae8585610e21565b90506115bc81600085611951565b9150505b9392505050565b600060086001806115da60026020612003565b6115e49190612003565b6115ee9190612003565b6115f89190612016565b8260ff911c1692915050565b60006115c061161384846118e5565b5490565b6000838360405160200161162c929190611ead565b604051602081830303815290604052805190602001208260f81b7effffffffffffffffffffffffffffffffffffffffffffffffffffffffffffff19167f3b4102da22e32d82fc925482184f16c09fd4281692720b87d124aef6da48a0f1181860001c90509392505050565b821561171e57602083106116c1576020830484019350602083816116bd576116bd611ee9565b0692505b821561171e5760208390036000818410156116e45750600019600884021c6116ee565b50600019600882021c5b8554600886021b81845116821982161784525081841161170f57505061155a565b50600194909401939182900391015b5b602082106117405783548152600190930192601f199091019060200161171f565b811561155a576000600019600884021c8251865482191691161782525050505050565b6040805160208101849052908101829052600090606001610e36565b604080516001808252818301909252606091600091906020808301908036833701905050905082816000815181106117b9576117b9611b84565b602090810291909101015260006117f17f746273746f726500000000000000000053746f7265486f6f6b730000000000008383611974565b905061067061180382600084516119ae565b611a3c565b60008160ff16826118198560581c90565b1660ff1614905092915050565b82156118a057602083106118505760208304840193506020838161184c5761184c611ee9565b0692505b82156118a05760208390036000600019600885021c1990506008850281811c91508351811c905081198754168282161787555081841161189157505061155a565b50600194909401939182900391015b5b602082106118c25780518455600190930192601f19909101906020016118a1565b811561155a576000600019600884021c8554835182191691161785555050505050565b600082826040516020016118fa929190611ead565b60408051601f1981840301815291905280516020909101207f14e2fcc58e58e68ec7edc30c8d50dccc3ce2714a623ec81f46b6a63922d76569189392505050565b6107ff8383835161194c8560200190565b611826565b60405160208101601f19603f8484010116604052828252610ea885858584611697565b6060610670611984858585611617565b60006119a9856119948989611604565b9060ff166028026038011c64ffffffffff1690565b611951565b6000818311806119be5750835182115b156119fb578383836040517f23230fa30000000000000000000000000000000000000000000000000000000081526004016102409392919061202d565b60208401611a098482611e7b565b90506000611a178585612003565b6fffffffffffffffffffffffffffffffff1660809290921b9190911795945050505050565b606060006115c0836015600060606000611a568560801c90565b90506fffffffffffffffffffffffffffffffff85166000858281611a7c57611a7c611ee9565b04905060405193506020840160208202810160405281855260005b82811015611ab7578451871c825293870193602090910190600101611a97565b50505050509392505050565b600060208284031215611ad557600080fd5b81357fffffffff00000000000000000000000000000000000000000000000000000000811681146115c057600080fd5b600060208284031215611b1757600080fd5b5035919050565b803563ffffffff81168114610cac57600080fd5b600080600060608486031215611b4757600080fd5b83359250611b5760208501611b1e565b9150611b6560408501611b1e565b90509250925092565b634e487b7160e01b600052604160045260246000fd5b634e487b7160e01b600052603260045260246000fd5b634e487b7160e01b600052601160045260246000fd5b63ffffffff828116828216039080821115611bcd57611bcd611b9a565b5092915050565b63ffffffff818116838216019080821115611bcd57611bcd611b9a565b60008151808452602080850194506020840160005b83811015611c2257815187529582019590820190600101611c06565b509495945050505050565b848152608060208201526000611c466080830186611bf1565b60ff949094166040830152506060015292915050565b600060208284031215611c6e57600080fd5b5051919050565b60005b83811015611c90578181015183820152602001611c78565b50506000910152565b60008151808452611cb1816020860160208601611c75565b601f01601f19169290920160200192915050565b85815260a060208201526000611cde60a0830187611bf1565b8281036040840152611cf08187611c99565b90508460608401528281036080840152611d0a8185611c99565b98975050505050505050565b85815260a060208201526000611d2f60a0830187611bf1565b60ff861660408401528281036060840152611d4a8186611c99565b9150508260808301529695505050505050565b838152606060208201526000611d766060830185611bf1565b9050826040830152949350505050565b600082601f830112611d9757600080fd5b815167ffffffffffffffff80821115611db257611db2611b6e565b604051601f8301601f19908116603f01168101908282118183101715611dda57611dda611b6e565b81604052838152866020858801011115611df357600080fd5b611e04846020830160208901611c75565b9695505050505050565b600080600060608486031215611e2357600080fd5b835167ffffffffffffffff80821115611e3b57600080fd5b611e4787838801611d86565b9450602086015193506040860151915080821115611e6457600080fd5b50611e7186828701611d86565b9150509250925092565b8082018082111561019557610195611b9a565b600060ff821660ff8103611ea457611ea4611b9a565b60010192915050565b8281526000602080830184516020860160005b82811015611edc57815184529284019290840190600101611ec0565b5091979650505050505050565b634e487b7160e01b600052601260045260246000fd5b608081526000611f126080830187611bf1565b8281036020840152611f248187611c99565b905084604084015282810360608401526109a48185611c99565b86815260c060208201526000611f5760c0830188611bf1565b8281036040840152611f698188611c99565b90508560608401528281036080840152611f838186611c99565b9150508260a0830152979650505050505050565b606081526000611faa6060830186611bf1565b65ffffffffffff851660208401528281036040840152611e048185611c99565b848152608060208201526000611fe36080830186611bf1565b65ffffffffffff8516604084015282810360608401526109a48185611c99565b8181038181111561019557610195611b9a565b808202811582820484141761019557610195611b9a565b6060815260006120406060830186611c99565b6020830194909452506040015291905056fea2646970667358221220f499262bb502d3c057b8a84a3333c399f965c8cc62fb4741481f0a20a3520aba64736f6c63430008180033","linkReferences":{}},"methodIdentifiers":{"_msgSender()":"119df25f","_msgValue()":"45ec9354","_world()":"e1af802c","move(uint256,uint32,uint32)":"b04d8fa7","spawn(uint256)":"7ec0c82d","supportsInterface(bytes4)":"01ffc9a7"},"id":207}