{"abi":[{"type":"function","name":"_msgSender","inputs":[],"outputs":[{"name":"sender","type":"address","internalType":"address"}],"stateMutability":"view"},{"type":"function","name":"_msgValue","inputs":[],"outputs":[{"name":"value","type":"uint256","internalType":"uint256"}],"stateMutability":"pure"},{"type":"function","name":"_world","inputs":[],"outputs":[{"name":"","type":"address","internalType":"address"}],"stateMutability":"view"},{"type":"function","name":"getEntitiesAtPosition","inputs":[{"name":"x","type":"uint16","internalType":"uint16"},{"name":"y","type":"uint16","internalType":"uint16"}],"outputs":[{"name":"entitiesAtPosition","type":"bytes32[]","internalType":"bytes32[]"}],"stateMutability":"view"},{"type":"function","name":"getEntityPosition","inputs":[{"name":"entityId","type":"bytes32","internalType":"bytes32"}],"outputs":[{"name":"x","type":"uint16","internalType":"uint16"},{"name":"y","type":"uint16","internalType":"uint16"}],"stateMutability":"view"},{"type":"function","name":"isAtPosition","inputs":[{"name":"entityId","type":"bytes32","internalType":"bytes32"},{"name":"x","type":"uint16","internalType":"uint16"},{"name":"y","type":"uint16","internalType":"uint16"}],"outputs":[{"name":"_isAtPosition","type":"bool","internalType":"bool"}],"stateMutability":"view"},{"type":"function","name":"move","inputs":[{"name":"entityId","type":"bytes32","internalType":"bytes32"},{"name":"x","type":"uint16","internalType":"uint16"},{"name":"y","type":"uint16","internalType":"uint16"}],"outputs":[],"stateMutability":"nonpayable"},{"type":"function","name":"removeEntityFromBoard","inputs":[{"name":"entityId","type":"bytes32","internalType":"bytes32"}],"outputs":[],"stateMutability":"nonpayable"},{"type":"function","name":"spawn","inputs":[{"name":"entityId","type":"bytes32","internalType":"bytes32"}],"outputs":[],"stateMutability":"nonpayable"},{"type":"function","name":"supportsInterface","inputs":[{"name":"interfaceId","type":"bytes4","internalType":"bytes4"}],"outputs":[{"name":"","type":"bool","internalType":"bool"}],"stateMutability":"pure"},{"type":"event","name":"Store_SetRecord","inputs":[{"name":"tableId","type":"bytes32","indexed":true,"internalType":"ResourceId"},{"name":"keyTuple","type":"bytes32[]","indexed":false,"internalType":"bytes32[]"},{"name":"staticData","type":"bytes","indexed":false,"internalType":"bytes"},{"name":"encodedLengths","type":"bytes32","indexed":false,"internalType":"EncodedLengths"},{"name":"dynamicData","type":"bytes","indexed":false,"internalType":"bytes"}],"anonymous":false},{"type":"event","name":"Store_SpliceDynamicData","inputs":[{"name":"tableId","type":"bytes32","indexed":true,"internalType":"ResourceId"},{"name":"keyTuple","type":"bytes32[]","indexed":false,"internalType":"bytes32[]"},{"name":"dynamicFieldIndex","type":"uint8","indexed":false,"internalType":"uint8"},{"name":"start","type":"uint48","indexed":false,"internalType":"uint48"},{"name":"deleteCount","type":"uint40","indexed":false,"internalType":"uint40"},{"name":"encodedLengths","type":"bytes32","indexed":false,"internalType":"EncodedLengths"},{"name":"data","type":"bytes","indexed":false,"internalType":"bytes"}],"anonymous":false},{"type":"event","name":"Store_SpliceStaticData","inputs":[{"name":"tableId","type":"bytes32","indexed":true,"internalType":"ResourceId"},{"name":"keyTuple","type":"bytes32[]","indexed":false,"internalType":"bytes32[]"},{"name":"start","type":"uint48","indexed":false,"internalType":"uint48"},{"name":"data","type":"bytes","indexed":false,"internalType":"bytes"}],"anonymous":false},{"type":"error","name":"EncodedLengths_InvalidLength","inputs":[{"name":"length","type":"uint256","internalType":"uint256"}]},{"type":"error","name":"Slice_OutOfBounds","inputs":[{"name":"data","type":"bytes","internalType":"bytes"},{"name":"start","type":"uint256","internalType":"uint256"},{"name":"end","type":"uint256","internalType":"uint256"}]},{"type":"error","name":"Store_IndexOutOfBounds","inputs":[{"name":"length","type":"uint256","internalType":"uint256"},{"name":"accessedIndex","type":"uint256","internalType":"uint256"}]},{"type":"error","name":"Store_InvalidResourceType","inputs":[{"name":"expected","type":"bytes2","internalType":"bytes2"},{"name":"resourceId","type":"bytes32","internalType":"ResourceId"},{"name":"resourceIdString","type":"string","internalType":"string"}]},{"type":"error","name":"Store_InvalidSplice","inputs":[{"name":"startWithinField","type":"uint40","internalType":"uint40"},{"name":"deleteCount","type":"uint40","internalType":"uint40"},{"name":"fieldLength","type":"uint40","internalType":"uint40"}]},{"type":"error","name":"World_AccessDenied","inputs":[{"name":"resource","type":"string","internalType":"string"},{"name":"caller","type":"address","internalType":"address"}]},{"type":"error","name":"World_FunctionSelectorNotFound","inputs":[{"name":"functionSelector","type":"bytes4","internalType":"bytes4"}]},{"type":"error","name":"World_ResourceNotFound","inputs":[{"name":"resourceId","type":"bytes32","internalType":"ResourceId"},{"name":"resourceIdString","type":"string","internalType":"string"}]}],"bytecode":{"object":"0x608060405234801561001057600080fd5b50614d70806100206000396000f3fe608060405234801561001057600080fd5b50600436106100be5760003560e01c806369e10c7b11610076578063911c37ae1161005b578063911c37ae14610194578063953717d1146101a7578063e1af802c146101ba57600080fd5b806369e10c7b1461015f5780638181bc571461017f57600080fd5b80633fbf0c5a116100a75780633fbf0c5a1461010b57806345ec93541461011e57806350c4bd841461013157600080fd5b806301ffc9a7146100c3578063119df25f146100eb575b600080fd5b6100d66100d136600461418f565b6101c2565b60405190151581526020015b60405180910390f35b6100f361025b565b6040516001600160a01b0390911681526020016100e2565b6100d66101193660046141e3565b61026a565b604051601f1936013581526020016100e2565b61014461013f36600461421f565b6102ad565b6040805161ffff9384168152929091166020830152016100e2565b61017261016d366004614238565b6102c3565b6040516100e291906142a7565b61019261018d36600461421f565b6102d6565b005b6101926101a236600461421f565b610530565b6101926101b53660046141e3565b610725565b6100f3610aa2565b60007fffffffff0000000000000000000000000000000000000000000000000000000082167fb5dee12700000000000000000000000000000000000000000000000000000000148061025557507fffffffff0000000000000000000000000000000000000000000000000000000082167f01ffc9a700000000000000000000000000000000000000000000000000000000145b92915050565b6000610265610aac565b905090565b600080600061027886610ade565b915091508461ffff168261ffff1614801561029a57508361ffff168161ffff16145b156102a457600192505b50509392505050565b6000806102b983610ade565b9094909350915050565b60606102cf8383610b8f565b9392505050565b6102de610aa2565b6001600160a01b031663fa1becc4826040518263ffffffff1660e01b815260040161030b91815260200190565b602060405180830381865afa158015610328573d6000803e3d6000fd5b505050506040513d601f19601f8201168201806040525081019061034c91906142ba565b1561041657600061035b610aa2565b6001600160a01b03166343def6388361037261025b565b6040517fffffffff0000000000000000000000000000000000000000000000000000000060e085901b16815260048101929092526001600160a01b03166024820152604401602060405180830381865afa1580156103d4573d6000803e3d6000fd5b505050506040513d601f19601f820116820180604052508101906103f891906142ba565b905080610410576104103061040b61025b565b610c4e565b50610422565b6104223061040b61025b565b60008061042e836102ad565b91509150600061043e83836102c3565b90506000805b82518110156104ca5785838281518110610460576104606142dc565b6020026020010151036104b85760019150600083600185516104829190614308565b81518110610492576104926142dc565b602002602001015190506104a886868484610c64565b6104b28686610d37565b506104ca565b806104c28161431b565b915050610444565b506104d785600080610dd7565b806105295760405162461bcd60e51b815260206004820152601660248201527f456e74697479206e6f7420617420706f736974696f6e0000000000000000000060448201526064015b60405180910390fd5b5050505050565b600061053b82610e9f565b9050806001600160a01b031661054f61025b565b6001600160a01b0316146105ca5760405162461bcd60e51b8152602060048201526024808201527f4f6e6c7920746865206f776e65722063616e20737061776e206120636861726160448201527f63746572000000000000000000000000000000000000000000000000000000006064820152608401610520565b6105d382610f3c565b156106205760405162461bcd60e51b815260206004820152601960248201527f43686172616374657220616c726561647920737061776e6564000000000000006044820152606401610520565b600061062b83610fc9565b9050610635610aa2565b6001600160a01b031663fa1becc4846040518263ffffffff1660e01b815260040161066291815260200190565b602060405180830381865afa15801561067f573d6000803e3d6000fd5b505050506040513d601f19601f820116820180604052508101906106a391906142ba565b156106e85760006106b38461105b565b6106bd9083614335565b905060008113156106d7576106d284826110ed565b6106e2565b6106e28460016110ed565b506106f2565b6106f283826110ed565b6106fe83600080610dd7565b6107098360016111a1565b610714836000611242565b610720600080856112fb565b505050565b600061073084610e9f565b905061073a610aa2565b6001600160a01b031663fa1becc4856040518263ffffffff1660e01b815260040161076791815260200190565b602060405180830381865afa158015610784573d6000803e3d6000fd5b505050506040513d601f19601f820116820180604052508101906107a891906142ba565b6107f45760405162461bcd60e51b815260206004820152601860248201527f43616e204f6e6c79206d6f7665206368617261637465727300000000000000006044820152606401610520565b806001600160a01b031661080661025b565b6001600160a01b0316146108825760405162461bcd60e51b815260206004820152602360248201527f4f6e6c7920746865206f776e65722063616e206d6f766520612063686172616360448201527f74657200000000000000000000000000000000000000000000000000000000006064820152608401610520565b61088b84610f3c565b6108d75760405162461bcd60e51b815260206004820152601560248201527f436861726163746572206e6f7420737061776e656400000000000000000000006044820152606401610520565b60006108e2856113c1565b146109555760405162461bcd60e51b815260206004820152602260248201527f43616e6e6f74206d6f7665207768696c6520696e20616e20656e636f756e746560448201527f722e0000000000000000000000000000000000000000000000000000000000006064820152608401610520565b60008061096186610ade565b91509150600080610970611452565b915091508061ffff168761ffff16106109cb5760405162461bcd60e51b815260206004820152600f60248201527f58206f7574206f6620626f756e647300000000000000000000000000000000006044820152606401610520565b8161ffff168661ffff1610610a225760405162461bcd60e51b815260206004820152600f60248201527f59206f7574206f6620626f756e647300000000000000000000000000000000006044820152606401610520565b610a2e848489896114cf565b61ffff16600114610a815760405162461bcd60e51b815260206004820152601e60248201527f43616e206f6e6c79206d6f766520312074696c6520617420612074696d6500006044820152606401610520565b610a8e8885858a8a61153d565b610a988787611639565b5050505050505050565b6000610265611a3a565b7fffffffffffffffffffffffffffffffffffffffffffffffffffffffffffffffcc36013560601c80610adb5750335b90565b60408051600180825281830190925260009182918291602080830190803683370190505090508381600081518110610b1857610b186142dc565b602090810291909101015260008080610b717f74625544000000000000000000000000506f736974696f6e0000000000000000857e04020002020000000000000000000000000000000000000000000000000000611a44565b925092509250610b82838383611b14565b9550955050505050915091565b604080516002808252606080830184529260009291906020830190803683370190505090508361ffff1660001b81600081518110610bcf57610bcf6142dc565b6020026020010181815250508261ffff1660001b81600181518110610bf657610bf66142dc565b60209081029190910101526000610c2e7f74625544000000000000000000000000456e7469746965734174506f736974698383611b37565b9050610c45610c408260008451611bfe565b611c8c565b95945050505050565b610c60610c5a83611c9d565b82611d3a565b5050565b6040805160028082526060820183526000926020830190803683370190505090508461ffff1660001b81600081518110610ca057610ca06142dc565b6020026020010181815250508361ffff1660001b81600181518110610cc757610cc76142dc565b602002602001018181525050600082604051602001610ce891815260200190565b6040516020818303038152906040529050610d2f7f74625544000000000000000000000000456e7469746965734174506f7369746960001b83600087602002855186611d86565b505050505050565b6040805160028082526060820183526000926020830190803683370190505090508261ffff1660001b81600081518110610d7357610d736142dc565b6020026020010181815250508161ffff1660001b81600181518110610d9a57610d9a6142dc565b6020026020010181815250506107207f74625544000000000000000000000000456e7469746965734174506f7369746960001b8260006020611e3f565b6040805160f084811b7fffff0000000000000000000000000000000000000000000000000000000000009081166020808501919091529185901b1660228301528251600481840301815260016024840181815260648501909552909360009360609385939160440190803683370190505090508681600081518110610e5e57610e5e6142dc565b6020908102919091010152610e967f74625544000000000000000000000000506f736974696f6e000000000000000082868686611ef0565b50505050505050565b604080516001808252818301909252600091829190602080830190803683370190505090508281600081518110610ed857610ed86142dc565b60209081029190910101526000610f317f74625544000000000000000000000000436861726163746572730000000000008360017e55040220142001000000000000000000000000000000000000000000000000611f99565b60601c949350505050565b604080516001808252818301909252600091829190602080830190803683370190505090508281600081518110610f7557610f756142dc565b60209081029190910101526000610fb57f74625544000000000000000000000000537061776e65640000000000000000008383630101000160d81b611f99565b9050610fc18160f81c90565b949350505050565b604080516001808252818301909252600091829190602080830190803683370190505090508281600081518110611002576110026142dc565b60209081029190910101526000610fc17f74625544000000000000000000000000537461747300000000000000000000008360047ee1080020200120202020200000000000000000000000000000000000000000611f99565b604080516001808252818301909252600091829190602080830190803683370190505090508281600081518110611094576110946142dc565b60209081029190910101526000610fc17f7462554400000000000000000000000043686172616374657245717569706d658360037ea0050420202020200000000000000000000000000000000000000000000000611f99565b604080516001808252818301909252600091602080830190803683370190505090508281600081518110611123576111236142dc565b6020026020010181815250506107207f746255440000000000000000000000005374617473000000000000000000000060001b8260058560405160200161116c91815260200190565b60408051601f198184030181529190527ee1080020200120202020200000000000000000000000000000000000000000612056565b6040805160018082528183019092526000916020808301908036833701905050905082816000815181106111d7576111d76142dc565b6020026020010181815250506107207f74625544000000000000000000000000537061776e656400000000000000000060001b8260008560405160200161122591151560f81b815260010190565b60408051601f19818403018152919052630101000160d81b612056565b604080516001808252818301909252600091602080830190803683370190505090508281600081518110611278576112786142dc565b6020026020010181815250506107207f74625544000000000000000000000000456e636f756e746572456e746974790060001b826001856040516020016112c691151560f81b815260010190565b60408051601f198184030181529190527e21020120010000000000000000000000000000000000000000000000000000612056565b6040805160028082526060820183526000926020830190803683370190505090508361ffff1660001b81600081518110611337576113376142dc565b6020026020010181815250508261ffff1660001b8160018151811061135e5761135e6142dc565b6020026020010181815250506113bb7f74625544000000000000000000000000456e7469746965734174506f7369746960001b826000856040516020016113a791815260200190565b6040516020818303038152906040526120cc565b50505050565b6040805160018082528183019092526000918291906020808301908036833701905050905082816000815181106113fa576113fa6142dc565b60209081029190910101526000610fc17f74625544000000000000000000000000456e636f756e746572456e746974790083837e21020120010000000000000000000000000000000000000000000000000000611f99565b604080516000808252602082019092528190600080806114b27f746255440000000000000000000000004d6170436f6e66696700000000000000857e04020002020000000000000000000000000000000000000000000000000000611a44565b9250925092506114c3838383611b14565b95509550505050509091565b6000808361ffff168661ffff16116114f0576114eb8685614373565b6114fa565b6114fa8487614373565b905060008361ffff168661ffff161161151c576115178685614373565b611526565b6115268487614373565b90506115328183614395565b979650505050505050565b600061154985856102c3565b90506000805b82518110156115d5578783828151811061156b5761156b6142dc565b6020026020010151036115c357600191506000836001855161158d9190614308565b8151811061159d5761159d6142dc565b602002602001015190506115b388888484610c64565b6115bd8888610d37565b506115d5565b806115cd8161431b565b91505061154f565b50806116235760405162461bcd60e51b815260206004820152601660248201527f456e74697479206e6f7420617420706f736974696f6e000000000000000000006044820152606401610520565b61162e878585610dd7565b610e968484896112fb565b60006116506000808561ffff168561ffff1661213f565b61ffff1690508060000361166357505050565b600080600583101561167b5750600190506006611683565b5060069050600b5b600060ff83165b8260ff168110156116b25761169e8161215d565b6116a890836143b0565b915060010161168a565b5060008167ffffffffffffffff8111156116ce576116ce61435d565b6040519080825280602002602001820160405280156116f7578160200160208202803683370190505b509050600060ff85165b8460ff1681101561177b576000611717826121dd565b905060005b815181101561177157818181518110611737576117376142dc565b6020026020010151858581518110611751576117516142dc565b6020908102919091010152836117668161431b565b94505060010161171c565b5050600101611701565b5060008251116117f35760405162461bcd60e51b815260206004820152602760248201527f4e6f206d6f6e737465727320617661696c61626c6520666f722074686973206460448201527f697374616e6365000000000000000000000000000000000000000000000000006064820152608401610520565b606046617a690361188d5773__$227e4555c1f608352b26068e438454dd8b$__63bc3a86cf6118236008426144a7565b6040518263ffffffff1660e01b815260040161184191815260200190565b600060405180830381865af415801561185e573d6000803e3d6000fd5b505050506040513d6000823e601f3d908101601f1916820160405261188691908101906144e7565b9050611920565b6040517fbc3a86cf00000000000000000000000000000000000000000000000000000000815244600482015273__$227e4555c1f608352b26068e438454dd8b$__9063bc3a86cf90602401600060405180830381865af41580156118f5573d6000803e3d6000fd5b505050506040513d6000823e601f3d908101601f1916820160405261191d91908101906144e7565b90505b60005b600682600081518110611938576119386142dc565b602002602001015161194a91906145b9565b63ffffffff16811015611a2e57611a2584855184848151811061196f5761196f6142dc565b602002602001015163ffffffff1661198791906145dc565b81518110611997576119976142dc565b60200260200101518b8b6040516024016119c89392919092835261ffff918216602084015216604082015260600190565b60408051601f198184030181529190526020810180517bffffffffffffffffffffffffffffffffffffffffffffffffffffffff167f15bc424800000000000000000000000000000000000000000000000000000000179052612264565b50600101611923565b50505050505050505050565b6000610265612312565b6060600060606000611a54612312565b9050306001600160a01b03821603611a7d57611a71878787612351565b93509350935050611b0b565b6040517f419b58fd0000000000000000000000000000000000000000000000000000000081526001600160a01b0382169063419b58fd90611ac6908a908a908a906004016145f0565b600060405180830381865afa158015611ae3573d6000803e3d6000fd5b505050506040513d6000823e601f3d908101601f19168201604052611a7191908101906146a1565b93509350939050565b60208301516022840151600091829160f091821c911c5b90969095509350505050565b60606000611b43612312565b9050306001600160a01b03821603611b6857611b60858585612459565b9150506102cf565b6040517f1e7889770000000000000000000000000000000000000000000000000000000081526001600160a01b03821690631e78897790611bb19088908890889060040161470e565b600060405180830381865afa158015611bce573d6000803e3d6000fd5b505050506040513d6000823e601f3d908101601f19168201604052611b60919081019061473a565b509392505050565b600081831180611c0e5750835182115b15611c4b578383836040517f23230fa30000000000000000000000000000000000000000000000000000000081526004016105209392919061479b565b60208401611c5984826143b0565b90506000611c678585614308565b6fffffffffffffffffffffffffffffffff1660809290921b9190911795945050505050565b606060006102cf8360206000612493565b60408051600180825281830190925260009182919060208083019080368337019050509050826001600160a01b031660001b81600081518110611ce257611ce26142dc565b60209081029190910101526000610fc17f7462776f726c6400000000000000000053797374656d5265676973747279000083837e20010020000000000000000000000000000000000000000000000000000000611f99565b611d44828261250e565b610c6057611d518261256c565b816040517fd787b7370000000000000000000000000000000000000000000000000000000081526004016105209291906147c0565b6000611d90612312565b9050306001600160a01b03821603611db557611db08787878787876126a9565b610e96565b6040517fc0a2895a0000000000000000000000000000000000000000000000000000000081526001600160a01b0382169063c0a2895a90611e04908a908a908a908a908a908a906004016147eb565b600060405180830381600087803b158015611e1e57600080fd5b505af1158015611e32573d6000803e3d6000fd5b5050505050505050505050565b6000611e49612312565b9050306001600160a01b03821603611e6c57611e67858585856126c1565b610529565b6040517fd9c03a040000000000000000000000000000000000000000000000000000000081526001600160a01b0382169063d9c03a0490611eb7908890889088908890600401614841565b600060405180830381600087803b158015611ed157600080fd5b505af1158015611ee5573d6000803e3d6000fd5b505050505050505050565b6000611efa612312565b9050306001600160a01b03821603611f1e57611f19868686868661271a565b610d2f565b6040517f298314fb0000000000000000000000000000000000000000000000000000000081526001600160a01b0382169063298314fb90611f6b9089908990899089908990600401614870565b600060405180830381600087803b158015611f8557600080fd5b505af1158015611a2e573d6000803e3d6000fd5b600080611fa4612312565b9050306001600160a01b03821603611fca57611fc286868686612730565b915050610fc1565b6040517f8c364d590000000000000000000000000000000000000000000000000000000081526001600160a01b03821690638c364d5990612015908990899089908990600401614841565b602060405180830381865afa158015612032573d6000803e3d6000fd5b505050506040513d601f19601f82011682018060405250810190611fc291906148b5565b6000612060612312565b9050306001600160a01b0382160361207f57611f19868686868661275d565b6040517f390baae00000000000000000000000000000000000000000000000000000000081526001600160a01b0382169063390baae090611f6b90899089908990899089906004016148ce565b60006120d6612312565b9050306001600160a01b038216036120f457611e6785858585612772565b6040517f150f32620000000000000000000000000000000000000000000000000000000081526001600160a01b0382169063150f326290611eb7908890889088908890600401614915565b6000610c4561214e86856127ad565b61215886856127ad565b6127cf565b604080516001808252818301909252600091829190602080830190803683370190505090508260001b81600081518110612199576121996142dc565b602090810291909101015260006121d17f746255440000000000000000000000004d6f627342794c6576656c000000000083836127e6565b60209004949350505050565b60408051600180825281830190925260609160009190602080830190803683370190505090508260001b8160008151811061221a5761221a6142dc565b602090810291909101015260006122527f746255440000000000000000000000004d6f627342794c6576656c00000000008383611b37565b9050610fc1610c408260008451611bfe565b606060008061227a61227585614949565b612898565b91509150816000801b036122e0576040517ffdde54e20000000000000000000000000000000000000000000000000000000081527fffffffff00000000000000000000000000000000000000000000000000000000600035166004820152602401610520565b6020840180517bffffffffffffffffffffffffffffffffffffffffffffffffffffffff1682179052610fc1828561295b565b7f629a4c26e296b22a8e0856e9f6ecb2d1008d7e00081111962cd175fa7488e175546000906001600160a01b03168061234c573391505090565b919050565b606060006060600061236285612a36565b905061236f878783612a59565b9350600061237c86612a92565b9050801561244e5761238e8888612acf565b935066ffffffffffffff841667ffffffffffffffff8111156123b2576123b261435d565b6040519080825280601f01601f1916602001820160405280156123dc576020820181803683370190505b5092506020830160005b828160ff16101561244b5760006123fe8b8b84612ae2565b9050600061241b888460ff166028026038011c64ffffffffff1690565b905061242a8260008387612b62565b61243481856143b0565b93505050808061244390614999565b9150506123e6565b50505b505093509350939050565b6060610fc1612469858585612ae2565b600061248e856124798989612acf565b9060ff166028026038011c64ffffffffff1690565b612c2e565b606060006124a18560801c90565b90506fffffffffffffffffffffffffffffffff851660008582816124c7576124c76145a3565b04905060405193506020840160208202810160405281855260005b82811015612502578451871c8252938701936020909101906001016124e2565b50505050509392505050565b600061255c7f6e730000000000000000000000000000000000000000000000000000000000007dffffffffffffffffffffffffffff0000000000000000000000000000000085161783612c51565b806102cf57506102cf8383612c51565b606081601081901b600061257f83612d02565b9050827fffffffffffffffffffffffffffff0000000000000000000000000000000000008316156125da576125d57fffffffffffffffffffffffffffff0000000000000000000000000000000000008416612d19565b612611565b6040518060400160405280600681526020017f3c726f6f743e00000000000000000000000000000000000000000000000000008152505b7fffffffffffffffffffffffffffffffff000000000000000000000000000000008316156126475761264283612d19565b61267e565b6040518060400160405280600681526020017f3c726f6f743e00000000000000000000000000000000000000000000000000008152505b604051602001612690939291906149b8565b6040516020818303038152906040529350505050919050565b610d2f8686868686866126bc8d8d612acf565b612dbd565b60006126cd8585612acf565b905060006126ea828560ff166028026038011c64ffffffffff1690565b9050610d2f8686866127038764ffffffffff8716614308565b604080516000815260208101909152889088612dbd565b610529858585858561272b8b6131f7565b61327c565b6000610c4561273f86866135b5565b60ff858116601b0360080285901c16612758858761360b565b61363c565b610529858561276c848761360b565b8561368d565b600061277e8585612acf565b9050600061279b828560ff166028026038011c64ffffffffff1690565b9050610d2f8686868460008888612dbd565b60008183116127c5576127c08383614308565b6102cf565b6102cf8284614308565b6000818310156127df57816102cf565b5090919050565b6000806127f1612312565b9050306001600160a01b0382160361280e57611b60858585613928565b6040517fdbbf0e210000000000000000000000000000000000000000000000000000000081526001600160a01b0382169063dbbf0e21906128579088908890889060040161470e565b602060405180830381865afa158015612874573d6000803e3d6000fd5b505050506040513d601f19601f82011682018060405250810190611b6091906148b5565b6040805160018082528183019092526000918291829160208083019080368337019050509050837bffffffffffffffffffffffffffffffffffffffffffffffffffffffff1916816000815181106128f1576128f16142dc565b60209081029190910101526000808061294a7f7462776f726c6400000000000000000046756e6374696f6e53656c6563746f72857e24020020040000000000000000000000000000000000000000000000000000611a44565b925092509250610b82838383613938565b60606000612967611a3a565b90506001600160a01b03811630036129a857600061298f612986610aac565b60008787613944565b93509050806129a1576129a183613a7f565b5050610255565b6040517f3ae7af080000000000000000000000000000000000000000000000000000000081526001600160a01b03821690633ae7af08906129ef9087908790600401614a46565b6000604051808303816000875af1158015612a0e573d6000803e3d6000fd5b505050506040513d6000823e601f3d908101601f19168201604052610fc1919081019061473a565b60006008612a4660026020614308565b612a509190614a5f565b9190911c919050565b606081600003612a7857506040805160208101909152600081526102cf565b6000612a8485856135b5565b9050610c4581600085612c2e565b60006008600180612aa560026020614308565b612aaf9190614308565b612ab99190614308565b612ac39190614a5f565b8260ff911c1692915050565b60006102cf612ade8484613a87565b5490565b60008383604051602001612af7929190614a76565b604051602081830303815290604052805190602001208260f81b7effffffffffffffffffffffffffffffffffffffffffffffffffffffffffffff19167f3b4102da22e32d82fc925482184f16c09fd4281692720b87d124aef6da48a0f1181860001c90509392505050565b8215612be95760208310612b8c57602083048401935060208381612b8857612b886145a3565b0692505b8215612be9576020839003600081841015612baf5750600019600884021c612bb9565b50600019600882021c5b8554600886021b818451168219821617845250818411612bda5750506113bb565b50600194909401939182900391015b5b60208210612c0b5783548152600190930192601f1990910190602001612bea565b81156113bb576000600019600884021c8251865482191691161782525050505050565b60405160208101601f19603f8484010116604052828252611bf685858584612b62565b604080516002808252606082018352600092839291906020830190803683370190505090508381600081518110612c8a57612c8a6142dc565b602002602001018181525050826001600160a01b031660001b81600181518110612cb657612cb66142dc565b60209081029190910101526000612cf67f7462776f726c640000000000000000005265736f7572636541636365737300008383630101000160d81b611f99565b9050610c458160f81c90565b6000612d10607060106143b0565b9190911b919050565b606060005b6010811015612d7e577fffffffffffffffffffffffffffffffff000000000000000000000000000000008316600882021b7fff000000000000000000000000000000000000000000000000000000000000001615612d7e57600101612d1e565b604080517fffffffffffffffffffffffffffffffff00000000000000000000000000000000851660208201528151603090910190915281815280610fc1565b7f7462000000000000000000000000000000000000000000000000000000000000877fffff0000000000000000000000000000000000000000000000000000000000001614612e7d577f74620000000000000000000000000000000000000000000000000000000000008788604051602001612e3b91815260200190565b60408051601f19818403018152908290527f31b46683000000000000000000000000000000000000000000000000000000008252610520939291600401614ab2565b6000612e98828760ff166028026038011c64ffffffffff1690565b9050600083518564ffffffffff1683612eb19190614308565b612ebb91906143b0565b9050808214158015612edd575081612ed38688614af3565b64ffffffffff1614155b15612f2d576040517fa65010b400000000000000000000000000000000000000000000000000000000815264ffffffffff8088166004830152808716602483015283166044820152606401610520565b818664ffffffffff161115612f7e576040517f7e8578d30000000000000000000000000000000000000000000000000000000081526004810183905264ffffffffff87166024820152604401610520565b6000612f8b848984613add565b90506000612f988b613bab565b905060005b8151811015613063576000828281518110612fba57612fba6142dc565b60200260200101519050612fe66010826affffffffffffffffffffff1916613c3490919063ffffffff16565b1561305a57606081901c6001600160a01b03166355eb5a288e8e8e8e8e8d8f6040518863ffffffff1660e01b81526004016130279796959493929190614b11565b600060405180830381600087803b15801561304157600080fd5b505af1158015613055573d6000803e3d6000fd5b505050505b50600101612f9d565b5064ffffffffff881660005b8a60ff168160ff1610156130a257613096878260ff166028026038011c64ffffffffff1690565b9091019060010161306f565b508b7ffe158a7adba34e256807c8a149028d3162918713c3838afc643ce9f96716ebfd8c8c848c888d6040516130dd96959493929190614b6f565b60405180910390a2508284146130fe5760006130f98c8c613a87565b839055505b600061310b8c8c8c612ae2565b905061311f818a64ffffffffff1689613c52565b5060005b81518110156131e9576000828281518110613140576131406142dc565b6020026020010151905061316c6020826affffffffffffffffffffff1916613c3490919063ffffffff16565b156131e057606081901c6001600160a01b031663635845338e8e8e8e8e8a8f6040518863ffffffff1660e01b81526004016131ad9796959493929190614b11565b600060405180830381600087803b1580156131c757600080fd5b505af11580156131db573d6000803e3d6000fd5b505050505b50600101613123565b505050505050505050505050565b60007f8b9d8c8b908d9affffffffffffffffffab9e9d939a8d00000000000000000000820161324657507e60030220202000000000000000000000000000000000000000000000000000919050565b6102556132737f746273746f72650000000000000000005461626c65730000000000000000000084613c68565b6020600061363c565b7f6f74000000000000000000000000000000000000000000000000000000000000867fffff000000000000000000000000000000000000000000000000000000000000160361330857857f8dbb3a9672eebfd3773e72dd9c102393436816d832c7ba9e1e1ac8fcadcac7a9868686866040516132fb9493929190614bbe565b60405180910390a2610d2f565b600061331387613bab565b905060005b81518110156133ec576000828281518110613335576133356142dc565b602002602001015190506133616001826affffffffffffffffffffff1916613c3490919063ffffffff16565b156133e3576040517f57066c9c000000000000000000000000000000000000000000000000000000008152606082901c906357066c9c906133b0908c908c908c908c908c908c90600401614bfd565b600060405180830381600087803b1580156133ca57600080fd5b505af11580156133de573d6000803e3d6000fd5b505050505b50600101613318565b50867f8dbb3a9672eebfd3773e72dd9c102393436816d832c7ba9e1e1ac8fcadcac7a9878787876040516134239493929190614bbe565b60405180910390a2600061343788886135b5565b9050600060208701905061344f826000895184613c84565b600061345a85612a92565b11156134de57600061346c8a8a613a87565b878155905060208601915060008060005b61348688612a92565b8160ff1610156134d95761349b8d8d83612ae2565b92506134b68a8260ff166028026038011c64ffffffffff1690565b91506134c58360008488613c84565b6134cf82866143b0565b945060010161347d565b505050505b60005b8351811015611a2e5760008482815181106134fe576134fe6142dc565b6020026020010151905061352a6002826affffffffffffffffffffff1916613c3490919063ffffffff16565b156135ac576040517f5b28cdaf000000000000000000000000000000000000000000000000000000008152606082901c90635b28cdaf90613579908e908e908e908e908e908e90600401614bfd565b600060405180830381600087803b15801561359357600080fd5b505af11580156135a7573d6000803e3d6000fd5b505050505b506001016134e1565b600082826040516020016135ca929190614a76565b60408051601f1981840301815291905280516020909101207f86425bff6b57326c7859e89024fe4f238ca327a1ae4a230180dd2f0e88aaa7d9189392505050565b600080805b8360ff16811015611bf65761363260ff601b83900360080287901c16836143b0565b9150600101613610565b6000602082106136625760208204840193506020828161365e5761365e6145a3565b0691505b508254600882021b602082900380841115611bf6576001850154600882021c82179150509392505050565b7f6f74000000000000000000000000000000000000000000000000000000000000847fffff000000000000000000000000000000000000000000000000000000000000160361371757837f8c0b5119d4cec7b284c6b1b39252a03d1e2f2d7451a5895562524c113bb952be84848460405161370a93929190614c56565b60405180910390a26113bb565b600061372385856135b5565b9050600061373086613bab565b905060005b8151811015613805576000828281518110613752576137526142dc565b6020026020010151905061377e6004826affffffffffffffffffffff1916613c3490919063ffffffff16565b156137fc576040517f964f667d000000000000000000000000000000000000000000000000000000008152606082901c9063964f667d906137c9908b908b908b908b90600401614c93565b600060405180830381600087803b1580156137e357600080fd5b505af11580156137f7573d6000803e3d6000fd5b505050505b50600101613735565b50857f8c0b5119d4cec7b284c6b1b39252a03d1e2f2d7451a5895562524c113bb952be86868660405161383a93929190614c56565b60405180910390a2613855828565ffffffffffff1685613c52565b60005b8151811015610e96576000828281518110613875576138756142dc565b602002602001015190506138a16008826affffffffffffffffffffff1916613c3490919063ffffffff16565b1561391f576040517fa8ba8721000000000000000000000000000000000000000000000000000000008152606082901c9063a8ba8721906138ec908b908b908b908b90600401614c93565b600060405180830381600087803b15801561390657600080fd5b505af115801561391a573d6000803e3d6000fd5b505050505b50600101613858565b6000610fc1826124798686612acf565b600080611b2b85613d43565b6000606060008061395486613d58565b90925090506001600160a01b0382166139a557856139718761256c565b6040517ffbf10ce6000000000000000000000000000000000000000000000000000000008152600401610520929190614a46565b806139b4576139b48689613dfc565b8615613a20577dffffffffffffffffffffffffffff0000000000000000000000000000000086167f6e73000000000000000000000000000000000000000000000000000000000000176000613a0882613e06565b9050613a1d82613a188b846143b0565b613e97565b50505b6000613a2c8760101b90565b7fffffffffffffffffffffffffffff0000000000000000000000000000000000001614613a6457613a5f88888488613f4b565b613a70565b613a7088888488613fc3565b90999098509650505050505050565b805160208201fd5b60008282604051602001613a9c929190614a76565b60408051601f1981840301815291905280516020909101207f14e2fcc58e58e68ec7edc30c8d50dccc3ce2714a623ec81f46b6a63922d76569189392505050565b600064ffffffffff821115613b21576040517f7149a3c100000000000000000000000000000000000000000000000000000000815260048101839052602401610520565b8366ffffffffffffff811660ff851660280260380182901c64ffffffffff16808510613b535780850382019150613b5b565b848103820391505b5064ffffffffff6038602860ff8816020181811b197fffffffffffffffffffffffffffffffffffffffffffffffffff000000000000009490941690921792909216918416901b1790509392505050565b60408051600180825281830190925260609160009190602080830190803683370190505090508281600081518110613be557613be56142dc565b60209081029190910101526000613c1d7f746273746f726500000000000000000053746f7265486f6f6b730000000000008383612459565b9050610fc1613c2f8260008451611bfe565b614024565b60008160ff1682613c458560581c90565b1660ff1614905092915050565b61072083838351613c638560200190565b613c84565b60408051602081018490529081018290526000906060016135ca565b8215613cfe5760208310613cae57602083048401935060208381613caa57613caa6145a3565b0692505b8215613cfe5760208390036000600019600885021c1990506008850281811c91508351811c9050811987541682821617875550818411613cef5750506113bb565b50600194909401939182900391015b5b60208210613d205780518455600190930192601f1990910190602001613cff565b81156113bb576000600019600884021c8554835182191691161785555050505050565b602081015160408201516000905b9050915091565b60408051600180825281830190925260009182918291602080830190803683370190505090508381600081518110613d9257613d926142dc565b602090810291909101015260008080613deb7f7462776f726c6400000000000000000053797374656d73000000000000000000857e15020014010000000000000000000000000000000000000000000000000000612351565b925092509250610b82838383614035565b611d448282614041565b604080516001808252818301909252600091829190602080830190803683370190505090508281600081518110613e3f57613e3f6142dc565b60209081029190910101526000610fc17f7462776f726c6400000000000000000042616c616e636573000000000000000083837e20010020000000000000000000000000000000000000000000000000000000612730565b604080516001808252818301909252600091602080830190803683370190505090508281600081518110613ecd57613ecd6142dc565b6020026020010181815250506107207f7462776f726c6400000000000000000042616c616e636573000000000000000060001b82600085604051602001613f1691815260200190565b60408051601f198184030181529190527e2001002000000000000000000000000000000000000000000000000000000061275d565b60006060836001600160a01b03166000613f6685898961409f565b604051613f739190614ccc565b60006040518083038185875af1925050503d8060008114613fb0576040519150601f19603f3d011682016040523d82523d6000602084013e613fb5565b606091505b509097909650945050505050565b60006060836001600160a01b0316613fdc84888861409f565b604051613fe99190614ccc565b600060405180830381855af49150503d8060008114613fb0576040519150601f19603f3d011682016040523d82523d6000602084013e613fb5565b606060006102cf8360156000612493565b600080611b2b856140ce565b600061408f7f6e730000000000000000000000000000000000000000000000000000000000007dffffffffffffffffffffffffffff00000000000000000000000000000000851617836140ea565b806102cf57506102cf83836140ea565b60608383836040516020016140b693929190614ce8565b60405160208183030381529060405290509392505050565b6020810151603482015160609190911c9060009060f81c613d51565b604080516002808252606082018352600092839291906020830190803683370190505090508381600081518110614123576141236142dc565b602002602001018181525050826001600160a01b031660001b8160018151811061414f5761414f6142dc565b60209081029190910101526000612cf67f7462776f726c640000000000000000005265736f7572636541636365737300008383630101000160d81b612730565b6000602082840312156141a157600080fd5b81357fffffffff00000000000000000000000000000000000000000000000000000000811681146102cf57600080fd5b803561ffff8116811461234c57600080fd5b6000806000606084860312156141f857600080fd5b83359250614208602085016141d1565b9150614216604085016141d1565b90509250925092565b60006020828403121561423157600080fd5b5035919050565b6000806040838503121561424b57600080fd5b614254836141d1565b9150614262602084016141d1565b90509250929050565b60008151808452602080850194506020840160005b8381101561429c57815187529582019590820190600101614280565b509495945050505050565b6020815260006102cf602083018461426b565b6000602082840312156142cc57600080fd5b815180151581146102cf57600080fd5b634e487b7160e01b600052603260045260246000fd5b634e487b7160e01b600052601160045260246000fd5b81810381811115610255576102556142f2565b6000600019820361432e5761432e6142f2565b5060010190565b8082018281126000831280158216821582161715614355576143556142f2565b505092915050565b634e487b7160e01b600052604160045260246000fd5b61ffff82811682821603908082111561438e5761438e6142f2565b5092915050565b61ffff81811683821601908082111561438e5761438e6142f2565b80820180821115610255576102556142f2565b600181815b808511156143fe5781600019048211156143e4576143e46142f2565b808516156143f157918102915b93841c93908002906143c8565b509250929050565b60008261441557506001610255565b8161442257506000610255565b816001811461443857600281146144425761445e565b6001915050610255565b60ff841115614453576144536142f2565b50506001821b610255565b5060208310610133831016604e8410600b8410161715614481575081810a610255565b61448b83836143c3565b806000190482111561449f5761449f6142f2565b029392505050565b60006102cf60ff841683614406565b604051601f8201601f1916810167ffffffffffffffff811182821017156144df576144df61435d565b604052919050565b600060208083850312156144fa57600080fd5b825167ffffffffffffffff8082111561451257600080fd5b818501915085601f83011261452657600080fd5b8151818111156145385761453861435d565b8060051b91506145498483016144b6565b818152918301840191848101908884111561456357600080fd5b938501935b83851015614597578451925063ffffffff831683146145875760008081fd5b8282529385019390850190614568565b98975050505050505050565b634e487b7160e01b600052601260045260246000fd5b600063ffffffff808416806145d0576145d06145a3565b92169190910692915050565b6000826145eb576145eb6145a3565b500690565b838152606060208201526000614609606083018561426b565b9050826040830152949350505050565b60005b8381101561463457818101518382015260200161461c565b50506000910152565b600082601f83011261464e57600080fd5b815167ffffffffffffffff8111156146685761466861435d565b61467b6020601f19601f840116016144b6565b81815284602083860101111561469057600080fd5b610fc1826020830160208701614619565b6000806000606084860312156146b657600080fd5b835167ffffffffffffffff808211156146ce57600080fd5b6146da8783880161463d565b94506020860151935060408601519150808211156146f757600080fd5b506147048682870161463d565b9150509250925092565b838152606060208201526000614727606083018561426b565b905060ff83166040830152949350505050565b60006020828403121561474c57600080fd5b815167ffffffffffffffff81111561476357600080fd5b610fc18482850161463d565b60008151808452614787816020860160208601614619565b601f01601f19169290920160200192915050565b6060815260006147ae606083018661476f565b60208301949094525060400152919050565b6040815260006147d3604083018561476f565b90506001600160a01b03831660208301529392505050565b86815260c06020820152600061480460c083018861426b565b60ff8716604084015264ffffffffff86811660608501528516608084015282810360a0840152614834818561476f565b9998505050505050505050565b84815260806020820152600061485a608083018661426b565b60ff949094166040830152506060015292915050565b85815260a06020820152600061488960a083018761426b565b828103604084015261489b818761476f565b90508460608401528281036080840152614597818561476f565b6000602082840312156148c757600080fd5b5051919050565b85815260a0602082015260006148e760a083018761426b565b60ff861660408401528281036060840152614902818661476f565b9150508260808301529695505050505050565b84815260806020820152600061492e608083018661426b565b60ff851660408401528281036060840152611532818561476f565b6000815160208301517fffffffff00000000000000000000000000000000000000000000000000000000808216935060048310156149915780818460040360031b1b83161693505b505050919050565b600060ff821660ff81036149af576149af6142f2565b60010192915050565b7fffff0000000000000000000000000000000000000000000000000000000000008416815260007f3a000000000000000000000000000000000000000000000000000000000000008060028401528451614a19816003860160208901614619565b808401905081600382015284519150614a39826004830160208801614619565b0160040195945050505050565b828152604060208201526000610fc1604083018461476f565b8082028115828204841417610255576102556142f2565b8281526000602080830184516020860160005b82811015614aa557815184529284019290840190600101614a89565b5091979650505050505050565b7fffff00000000000000000000000000000000000000000000000000000000000084168152826020820152606060408201526000610c45606083018461476f565b64ffffffffff81811683821601908082111561438e5761438e6142f2565b87815260e060208201526000614b2a60e083018961426b565b60ff8816604084015264ffffffffff87811660608501528616608084015260a0830185905282810360c0840152614b61818561476f565b9a9950505050505050505050565b60c081526000614b8260c083018961426b565b60ff8816602084015265ffffffffffff8716604084015264ffffffffff8616606084015284608084015282810360a0840152614834818561476f565b608081526000614bd1608083018761426b565b8281036020840152614be3818761476f565b90508460408401528281036060840152611532818561476f565b86815260c060208201526000614c1660c083018861426b565b8281036040840152614c28818861476f565b90508560608401528281036080840152614c42818661476f565b9150508260a0830152979650505050505050565b606081526000614c69606083018661426b565b65ffffffffffff851660208401528281036040840152614c89818561476f565b9695505050505050565b848152608060208201526000614cac608083018661426b565b65ffffffffffff851660408401528281036060840152611532818561476f565b60008251614cde818460208701614619565b9190910192915050565b60008451614cfa818460208901614619565b60609490941b7fffffffffffffffffffffffffffffffffffffffff000000000000000000000000169190930190815260148101919091526034019291505056fea2646970667358221220b1ce77c43959d055def3098e0be2ea0c74c5917212b6673b5ba512b35626bd4964736f6c63430008180033","linkReferences":{"src/libraries/LibChunks.sol":{"LibChunks":[{"start":6176,"length":20},{"start":6363,"length":20}]}}},"methodIdentifiers":{"_msgSender()":"119df25f","_msgValue()":"45ec9354","_world()":"e1af802c","getEntitiesAtPosition(uint16,uint16)":"69e10c7b","getEntityPosition(bytes32)":"50c4bd84","isAtPosition(bytes32,uint16,uint16)":"3fbf0c5a","move(bytes32,uint16,uint16)":"953717d1","removeEntityFromBoard(bytes32)":"8181bc57","spawn(bytes32)":"911c37ae","supportsInterface(bytes4)":"01ffc9a7"},"id":260}