{"abi":[{"type":"function","name":"_msgSender","inputs":[],"outputs":[{"name":"sender","type":"address","internalType":"address"}],"stateMutability":"view"},{"type":"function","name":"_msgValue","inputs":[],"outputs":[{"name":"value","type":"uint256","internalType":"uint256"}],"stateMutability":"pure"},{"type":"function","name":"_world","inputs":[],"outputs":[{"name":"","type":"address","internalType":"address"}],"stateMutability":"view"},{"type":"function","name":"getEntitiesAtPosition","inputs":[{"name":"x","type":"uint16","internalType":"uint16"},{"name":"y","type":"uint16","internalType":"uint16"}],"outputs":[{"name":"entitiesAtPosition","type":"bytes32[]","internalType":"bytes32[]"}],"stateMutability":"view"},{"type":"function","name":"move","inputs":[{"name":"entityId","type":"bytes32","internalType":"bytes32"},{"name":"x","type":"uint16","internalType":"uint16"},{"name":"y","type":"uint16","internalType":"uint16"}],"outputs":[],"stateMutability":"nonpayable"},{"type":"function","name":"spawn","inputs":[{"name":"entityId","type":"bytes32","internalType":"bytes32"}],"outputs":[],"stateMutability":"nonpayable"},{"type":"function","name":"supportsInterface","inputs":[{"name":"interfaceId","type":"bytes4","internalType":"bytes4"}],"outputs":[{"name":"","type":"bool","internalType":"bool"}],"stateMutability":"pure"},{"type":"event","name":"Store_SetRecord","inputs":[{"name":"tableId","type":"bytes32","indexed":true,"internalType":"ResourceId"},{"name":"keyTuple","type":"bytes32[]","indexed":false,"internalType":"bytes32[]"},{"name":"staticData","type":"bytes","indexed":false,"internalType":"bytes"},{"name":"encodedLengths","type":"bytes32","indexed":false,"internalType":"EncodedLengths"},{"name":"dynamicData","type":"bytes","indexed":false,"internalType":"bytes"}],"anonymous":false},{"type":"event","name":"Store_SpliceDynamicData","inputs":[{"name":"tableId","type":"bytes32","indexed":true,"internalType":"ResourceId"},{"name":"keyTuple","type":"bytes32[]","indexed":false,"internalType":"bytes32[]"},{"name":"dynamicFieldIndex","type":"uint8","indexed":false,"internalType":"uint8"},{"name":"start","type":"uint48","indexed":false,"internalType":"uint48"},{"name":"deleteCount","type":"uint40","indexed":false,"internalType":"uint40"},{"name":"encodedLengths","type":"bytes32","indexed":false,"internalType":"EncodedLengths"},{"name":"data","type":"bytes","indexed":false,"internalType":"bytes"}],"anonymous":false},{"type":"event","name":"Store_SpliceStaticData","inputs":[{"name":"tableId","type":"bytes32","indexed":true,"internalType":"ResourceId"},{"name":"keyTuple","type":"bytes32[]","indexed":false,"internalType":"bytes32[]"},{"name":"start","type":"uint48","indexed":false,"internalType":"uint48"},{"name":"data","type":"bytes","indexed":false,"internalType":"bytes"}],"anonymous":false},{"type":"error","name":"EncodedLengths_InvalidLength","inputs":[{"name":"length","type":"uint256","internalType":"uint256"}]},{"type":"error","name":"Slice_OutOfBounds","inputs":[{"name":"data","type":"bytes","internalType":"bytes"},{"name":"start","type":"uint256","internalType":"uint256"},{"name":"end","type":"uint256","internalType":"uint256"}]},{"type":"error","name":"Store_IndexOutOfBounds","inputs":[{"name":"length","type":"uint256","internalType":"uint256"},{"name":"accessedIndex","type":"uint256","internalType":"uint256"}]},{"type":"error","name":"Store_InvalidResourceType","inputs":[{"name":"expected","type":"bytes2","internalType":"bytes2"},{"name":"resourceId","type":"bytes32","internalType":"ResourceId"},{"name":"resourceIdString","type":"string","internalType":"string"}]},{"type":"error","name":"Store_InvalidSplice","inputs":[{"name":"startWithinField","type":"uint40","internalType":"uint40"},{"name":"deleteCount","type":"uint40","internalType":"uint40"},{"name":"fieldLength","type":"uint40","internalType":"uint40"}]},{"type":"error","name":"World_AccessDenied","inputs":[{"name":"resource","type":"string","internalType":"string"},{"name":"caller","type":"address","internalType":"address"}]},{"type":"error","name":"World_FunctionSelectorNotFound","inputs":[{"name":"functionSelector","type":"bytes4","internalType":"bytes4"}]},{"type":"error","name":"World_ResourceNotFound","inputs":[{"name":"resourceId","type":"bytes32","internalType":"ResourceId"},{"name":"resourceIdString","type":"string","internalType":"string"}]}],"bytecode":{"object":"0x608060405234801561001057600080fd5b506140cb806100206000396000f3fe608060405234801561001057600080fd5b506004361061007d5760003560e01c806369e10c7b1161005b57806369e10c7b146100dd578063911c37ae146100fd578063953717d114610112578063e1af802c1461012557600080fd5b806301ffc9a714610082578063119df25f146100aa57806345ec9354146100ca575b600080fd5b61009561009036600461354e565b61012d565b60405190151581526020015b60405180910390f35b6100b26101c6565b6040516001600160a01b0390911681526020016100a1565b604051601f1936013581526020016100a1565b6100f06100eb3660046135a2565b6101d5565b6040516100a19190613611565b61011061010b366004613624565b6101e8565b005b61011061012036600461363d565b610304565b6100b2610541565b60007fffffffff0000000000000000000000000000000000000000000000000000000082167fb5dee1270000000000000000000000000000000000000000000000000000000014806101c057507fffffffff0000000000000000000000000000000000000000000000000000000082167f01ffc9a700000000000000000000000000000000000000000000000000000000145b92915050565b60006101d061054b565b905090565b60606101e1838361057d565b9392505050565b60006101f38261063c565b9050806001600160a01b03166102076101c6565b6001600160a01b0316146102875760405162461bcd60e51b8152602060048201526024808201527f4f6e6c7920746865206f776e65722063616e20737061776e206120636861726160448201527f637465720000000000000000000000000000000000000000000000000000000060648201526084015b60405180910390fd5b610290826106d9565b156102dd5760405162461bcd60e51b815260206004820152601960248201527f43686172616374657220616c726561647920737061776e656400000000000000604482015260640161027e565b6102e98260008061077e565b6102f4826001610846565b61030060008084610904565b5050565b600061030f8461063c565b9050806001600160a01b03166103236101c6565b6001600160a01b03161461039f5760405162461bcd60e51b815260206004820152602360248201527f4f6e6c7920746865206f776e65722063616e206d6f766520612063686172616360448201527f7465720000000000000000000000000000000000000000000000000000000000606482015260840161027e565b6103a8846106d9565b6103f45760405162461bcd60e51b815260206004820152601560248201527f436861726163746572206e6f7420737061776e65640000000000000000000000604482015260640161027e565b600080610400866109ca565b9150915060008061040f610a7b565b915091508061ffff168761ffff161061046a5760405162461bcd60e51b815260206004820152600f60248201527f58206f7574206f6620626f756e64730000000000000000000000000000000000604482015260640161027e565b8161ffff168661ffff16106104c15760405162461bcd60e51b815260206004820152600f60248201527f59206f7574206f6620626f756e64730000000000000000000000000000000000604482015260640161027e565b6104cd84848989610af8565b61ffff166001146105205760405162461bcd60e51b815260206004820152601e60248201527f43616e206f6e6c79206d6f766520312074696c6520617420612074696d650000604482015260640161027e565b61052d8885858a8a610b66565b6105378787610c58565b5050505050505050565b60006101d0610f55565b7fffffffffffffffffffffffffffffffffffffffffffffffffffffffffffffffcc36013560601c8061057a5750335b90565b604080516002808252606080830184529260009291906020830190803683370190505090508361ffff1660001b816000815181106105bd576105bd61368f565b6020026020010181815250508261ffff1660001b816001815181106105e4576105e461368f565b6020908102919091010152600061061c7f74625544000000000000000000000000456e7469746965734174506f736974698383610f5f565b905061063361062e8260008451611026565b6110b4565b95945050505050565b6040805160018082528183019092526000918291906020808301908036833701905050905082816000815181106106755761067561368f565b602090810291909101015260006106ce7f74625544000000000000000000000000436861726163746572730000000000008360017e560500201401200100000000000000000000000000000000000000000000006110c5565b60601c949350505050565b6040805160018082528183019092526000918291906020808301908036833701905050905082816000815181106107125761071261368f565b6020908102919091010152600061076a7f74625544000000000000000000000000537061776e656400000000000000000083837e010100010000000000000000000000000000000000000000000000000000006110c5565b90506107768160f81c90565b949350505050565b6040805160f084811b7fffff0000000000000000000000000000000000000000000000000000000000009081166020808501919091529185901b16602283015282516004818403018152600160248401818152606485019095529093600093606093859391604401908036833701905050905086816000815181106108055761080561368f565b602090810291909101015261083d7f74625544000000000000000000000000506f736974696f6e000000000000000082868686611182565b50505050505050565b60408051600180825281830190925260009160208083019080368337019050509050828160008151811061087c5761087c61368f565b6020026020010181815250506108ff7f74625544000000000000000000000000537061776e656400000000000000000060001b826000856040516020016108ca91151560f81b815260010190565b60408051601f198184030181529190527e01010001000000000000000000000000000000000000000000000000000000611237565b505050565b6040805160028082526060820183526000926020830190803683370190505090508361ffff1660001b816000815181106109405761094061368f565b6020026020010181815250508261ffff1660001b816001815181106109675761096761368f565b6020026020010181815250506109c47f74625544000000000000000000000000456e7469746965734174506f7369746960001b826000856040516020016109b091815260200190565b6040516020818303038152906040526112ad565b50505050565b60408051600180825281830190925260009182918291602080830190803683370190505090508381600081518110610a0457610a0461368f565b602090810291909101015260008080610a5d7f74625544000000000000000000000000506f736974696f6e0000000000000000857e0402000202000000000000000000000000000000000000000000000000000061135f565b925092509250610a6e83838361142f565b9550955050505050915091565b60408051600080825260208201909252819060008080610adb7f746255440000000000000000000000004d6170436f6e66696700000000000000857e0402000202000000000000000000000000000000000000000000000000000061135f565b925092509250610aec83838361142f565b95509550505050509091565b6000808361ffff168661ffff1611610b1957610b1486856136bb565b610b23565b610b2384876136bb565b905060008361ffff168661ffff1611610b4557610b4086856136bb565b610b4f565b610b4f84876136bb565b9050610b5b81836136dd565b979650505050505050565b6000610b7285856101d5565b90506000805b8251811015610bf45787838281518110610b9457610b9461368f565b602002602001015103610bec576001915060008360018551610bb691906136f8565b81518110610bc657610bc661368f565b60200260200101519050610bdc88888484611452565b610be6888861151d565b50610bf4565b600101610b78565b5080610c425760405162461bcd60e51b815260206004820152601f60248201527f456e7469747920776173206e6f74206174207468617420706f736974696f6e00604482015260640161027e565b610c4d87858561077e565b61083d848489610904565b6000610c6f6000808561ffff168561ffff166115bd565b61ffff16905080600003610c8257505050565b6000610c8d826115db565b90506000815111610d065760405162461bcd60e51b815260206004820152602760248201527f4e6f206d6f6e737465727320617661696c61626c6520666f722074686973206460448201527f697374616e636500000000000000000000000000000000000000000000000000606482015260840161027e565b606046617a6903610da05773__$227e4555c1f608352b26068e438454dd8b$__63bc3a86cf610d366008426137ef565b6040518263ffffffff1660e01b8152600401610d5491815260200190565b600060405180830381865af4158015610d71573d6000803e3d6000fd5b505050506040513d6000823e601f3d908101601f19168201604052610d99919081019061382f565b9050610e33565b6040517fbc3a86cf00000000000000000000000000000000000000000000000000000000815244600482015273__$227e4555c1f608352b26068e438454dd8b$__9063bc3a86cf90602401600060405180830381865af4158015610e08573d6000803e3d6000fd5b505050506040513d6000823e601f3d908101601f19168201604052610e30919081019061382f565b90505b60005b60068260018451610e4791906136f8565b81518110610e5757610e5761368f565b6020026020010151610e699190613901565b63ffffffff16811015610f4d57610f44838451848481518110610e8e57610e8e61368f565b602002602001015163ffffffff16610ea69190613924565b81518110610eb657610eb661368f565b60200260200101518787604051602401610ee79392919092835261ffff918216602084015216604082015260600190565b60408051601f198184030181529190526020810180517bffffffffffffffffffffffffffffffffffffffffffffffffffffffff167f15bc424800000000000000000000000000000000000000000000000000000000179052611662565b50600101610e36565b505050505050565b60006101d0611710565b60606000610f6b611710565b9050306001600160a01b03821603610f9057610f8885858561174f565b9150506101e1565b6040517f1e7889770000000000000000000000000000000000000000000000000000000081526001600160a01b03821690631e78897790610fd990889088908890600401613938565b600060405180830381865afa158015610ff6573d6000803e3d6000fd5b505050506040513d6000823e601f3d908101601f19168201604052610f8891908101906139ec565b509392505050565b6000818311806110365750835182115b15611073578383836040517f23230fa300000000000000000000000000000000000000000000000000000000815260040161027e93929190613a4d565b602084016110818482613a72565b9050600061108f85856136f8565b6fffffffffffffffffffffffffffffffff1660809290921b9190911795945050505050565b606060006101e18360206000611789565b6000806110d0611710565b9050306001600160a01b038216036110f6576110ee86868686611804565b915050610776565b6040517f8c364d590000000000000000000000000000000000000000000000000000000081526001600160a01b03821690638c364d5990611141908990899089908990600401613a85565b602060405180830381865afa15801561115e573d6000803e3d6000fd5b505050506040513d601f19601f820116820180604052508101906110ee9190613ab4565b600061118c611710565b9050306001600160a01b038216036111b0576111ab8686868686611831565b610f4d565b6040517f298314fb0000000000000000000000000000000000000000000000000000000081526001600160a01b0382169063298314fb906111fd9089908990899089908990600401613acd565b600060405180830381600087803b15801561121757600080fd5b505af115801561122b573d6000803e3d6000fd5b50505050505050505050565b6000611241611710565b9050306001600160a01b03821603611260576111ab8686868686611847565b6040517f390baae00000000000000000000000000000000000000000000000000000000081526001600160a01b0382169063390baae0906111fd9089908990899089908990600401613b12565b60006112b7611710565b9050306001600160a01b038216036112da576112d58585858561185c565b611358565b6040517f150f32620000000000000000000000000000000000000000000000000000000081526001600160a01b0382169063150f326290611325908890889088908890600401613b59565b600060405180830381600087803b15801561133f57600080fd5b505af1158015611353573d6000803e3d6000fd5b505050505b5050505050565b606060006060600061136f611710565b9050306001600160a01b038216036113985761138c878787611897565b93509350935050611426565b6040517f419b58fd0000000000000000000000000000000000000000000000000000000081526001600160a01b0382169063419b58fd906113e1908a908a908a90600401613b8d565b600060405180830381865afa1580156113fe573d6000803e3d6000fd5b505050506040513d6000823e601f3d908101601f1916820160405261138c9190810190613bb6565b93509350939050565b60208301516022840151600091829160f091821c911c5b90969095509350505050565b6040805160028082526060820183526000926020830190803683370190505090508461ffff1660001b8160008151811061148e5761148e61368f565b6020026020010181815250508361ffff1660001b816001815181106114b5576114b561368f565b6020026020010181815250506000826040516020016114d691815260200190565b6040516020818303038152906040529050610f4d7f74625544000000000000000000000000456e7469746965734174506f7369746960001b8360008760200285518661199f565b6040805160028082526060820183526000926020830190803683370190505090508261ffff1660001b816000815181106115595761155961368f565b6020026020010181815250508161ffff1660001b816001815181106115805761158061368f565b6020026020010181815250506108ff7f74625544000000000000000000000000456e7469746965734174506f7369746960001b8260006020611a58565b60006106336115cc8685611acb565b6115d68685611acb565b611aed565b60408051600180825281830190925260609160009190602080830190803683370190505090508260001b816000815181106116185761161861368f565b602090810291909101015260006116507f746255440000000000000000000000004d6f627342794c6576656c00000000008383610f5f565b905061077661062e8260008451611026565b606060008061167861167385613c23565b611b04565b91509150816000801b036116de576040517ffdde54e20000000000000000000000000000000000000000000000000000000081527fffffffff0000000000000000000000000000000000000000000000000000000060003516600482015260240161027e565b6020840180517bffffffffffffffffffffffffffffffffffffffffffffffffffffffff16821790526107768285611bc7565b7f629a4c26e296b22a8e0856e9f6ecb2d1008d7e00081111962cd175fa7488e175546000906001600160a01b03168061174a573391505090565b919050565b606061077661175f858585611ca2565b60006117848561176f8989611d22565b9060ff166028026038011c64ffffffffff1690565b611d35565b606060006117978560801c90565b90506fffffffffffffffffffffffffffffffff851660008582816117bd576117bd6138eb565b04905060405193506020840160208202810160405281855260005b828110156117f8578451871c8252938701936020909101906001016117d8565b50505050509392505050565b60006106336118138686611d58565b60ff858116601b0360080285901c1661182c8587611dae565b611ddf565b61135885858585856118428b611e30565b611eb5565b61135885856118568487611dae565b856121ee565b60006118688585611d22565b90506000611885828560ff166028026038011c64ffffffffff1690565b9050610f4d8686868460008888612489565b60606000606060006118a8856128c3565b90506118b58787836128e6565b935060006118c28661291f565b90508015611994576118d48888611d22565b935066ffffffffffffff841667ffffffffffffffff8111156118f8576118f8613679565b6040519080825280601f01601f191660200182016040528015611922576020820181803683370190505b5092506020830160005b828160ff1610156119915760006119448b8b84611ca2565b90506000611961888460ff166028026038011c64ffffffffff1690565b9050611970826000838761295c565b61197a8185613a72565b93505050808061198990613c73565b91505061192c565b50505b505093509350939050565b60006119a9611710565b9050306001600160a01b038216036119ce576119c9878787878787612a28565b61083d565b6040517fc0a2895a0000000000000000000000000000000000000000000000000000000081526001600160a01b0382169063c0a2895a90611a1d908a908a908a908a908a908a90600401613c92565b600060405180830381600087803b158015611a3757600080fd5b505af1158015611a4b573d6000803e3d6000fd5b5050505050505050505050565b6000611a62611710565b9050306001600160a01b03821603611a80576112d585858585612a40565b6040517fd9c03a040000000000000000000000000000000000000000000000000000000081526001600160a01b0382169063d9c03a0490611325908890889088908890600401613a85565b6000818311611ae357611ade83836136f8565b6101e1565b6101e182846136f8565b600081831015611afd57816101e1565b5090919050565b6040805160018082528183019092526000918291829160208083019080368337019050509050837bffffffffffffffffffffffffffffffffffffffffffffffffffffffff191681600081518110611b5d57611b5d61368f565b602090810291909101015260008080611bb67f7462776f726c6400000000000000000046756e6374696f6e53656c6563746f72857e2402002004000000000000000000000000000000000000000000000000000061135f565b925092509250610a6e838383612a99565b60606000611bd3610f55565b90506001600160a01b0381163003611c14576000611bfb611bf261054b565b60008787612aa5565b9350905080611c0d57611c0d83612be0565b50506101c0565b6040517f3ae7af080000000000000000000000000000000000000000000000000000000081526001600160a01b03821690633ae7af0890611c5b9087908790600401613ce8565b6000604051808303816000875af1158015611c7a573d6000803e3d6000fd5b505050506040513d6000823e601f3d908101601f1916820160405261077691908101906139ec565b60008383604051602001611cb7929190613d01565b604051602081830303815290604052805190602001208260f81b7effffffffffffffffffffffffffffffffffffffffffffffffffffffffffffff19167f3b4102da22e32d82fc925482184f16c09fd4281692720b87d124aef6da48a0f1181860001c90509392505050565b60006101e1611d318484612be8565b5490565b60405160208101601f19603f848401011660405282825261101e8585858461295c565b60008282604051602001611d6d929190613d01565b60408051601f1981840301815291905280516020909101207f86425bff6b57326c7859e89024fe4f238ca327a1ae4a230180dd2f0e88aaa7d9189392505050565b600080805b8360ff1681101561101e57611dd560ff601b83900360080287901c1683613a72565b9150600101611db3565b600060208210611e0557602082048401935060208281611e0157611e016138eb565b0691505b508254600882021b60208290038084111561101e576001850154600882021c82179150509392505050565b60007f8b9d8c8b908d9affffffffffffffffffab9e9d939a8d000000000000000000008201611e7f57507e60030220202000000000000000000000000000000000000000000000000000919050565b6101c0611eac7f746273746f72650000000000000000005461626c65730000000000000000000084612c3e565b60206000611ddf565b7f6f74000000000000000000000000000000000000000000000000000000000000867fffff0000000000000000000000000000000000000000000000000000000000001603611f4157857f8dbb3a9672eebfd3773e72dd9c102393436816d832c7ba9e1e1ac8fcadcac7a986868686604051611f349493929190613d3d565b60405180910390a2610f4d565b6000611f4c87612c5a565b905060005b8151811015612025576000828281518110611f6e57611f6e61368f565b60200260200101519050611f9a6001826affffffffffffffffffffff1916612ce390919063ffffffff16565b1561201c576040517f57066c9c000000000000000000000000000000000000000000000000000000008152606082901c906357066c9c90611fe9908c908c908c908c908c908c90600401613d7c565b600060405180830381600087803b15801561200357600080fd5b505af1158015612017573d6000803e3d6000fd5b505050505b50600101611f51565b50867f8dbb3a9672eebfd3773e72dd9c102393436816d832c7ba9e1e1ac8fcadcac7a98787878760405161205c9493929190613d3d565b60405180910390a260006120708888611d58565b90506000602087019050612088826000895184612d01565b60006120938561291f565b11156121175760006120a58a8a612be8565b878155905060208601915060008060005b6120bf8861291f565b8160ff161015612112576120d48d8d83611ca2565b92506120ef8a8260ff166028026038011c64ffffffffff1690565b91506120fe8360008488612d01565b6121088286613a72565b94506001016120b6565b505050505b60005b835181101561122b5760008482815181106121375761213761368f565b602002602001015190506121636002826affffffffffffffffffffff1916612ce390919063ffffffff16565b156121e5576040517f5b28cdaf000000000000000000000000000000000000000000000000000000008152606082901c90635b28cdaf906121b2908e908e908e908e908e908e90600401613d7c565b600060405180830381600087803b1580156121cc57600080fd5b505af11580156121e0573d6000803e3d6000fd5b505050505b5060010161211a565b7f6f74000000000000000000000000000000000000000000000000000000000000847fffff000000000000000000000000000000000000000000000000000000000000160361227857837f8c0b5119d4cec7b284c6b1b39252a03d1e2f2d7451a5895562524c113bb952be84848460405161226b93929190613dd5565b60405180910390a26109c4565b60006122848585611d58565b9050600061229186612c5a565b905060005b81518110156123665760008282815181106122b3576122b361368f565b602002602001015190506122df6004826affffffffffffffffffffff1916612ce390919063ffffffff16565b1561235d576040517f964f667d000000000000000000000000000000000000000000000000000000008152606082901c9063964f667d9061232a908b908b908b908b90600401613e12565b600060405180830381600087803b15801561234457600080fd5b505af1158015612358573d6000803e3d6000fd5b505050505b50600101612296565b50857f8c0b5119d4cec7b284c6b1b39252a03d1e2f2d7451a5895562524c113bb952be86868660405161239b93929190613dd5565b60405180910390a26123b6828565ffffffffffff1685612dc0565b60005b815181101561083d5760008282815181106123d6576123d661368f565b602002602001015190506124026008826affffffffffffffffffffff1916612ce390919063ffffffff16565b15612480576040517fa8ba8721000000000000000000000000000000000000000000000000000000008152606082901c9063a8ba87219061244d908b908b908b908b90600401613e12565b600060405180830381600087803b15801561246757600080fd5b505af115801561247b573d6000803e3d6000fd5b505050505b506001016123b9565b7f7462000000000000000000000000000000000000000000000000000000000000877fffff0000000000000000000000000000000000000000000000000000000000001614612549577f7462000000000000000000000000000000000000000000000000000000000000878860405160200161250791815260200190565b60408051601f19818403018152908290527f31b4668300000000000000000000000000000000000000000000000000000000825261027e939291600401613e4b565b6000612564828760ff166028026038011c64ffffffffff1690565b9050600083518564ffffffffff168361257d91906136f8565b6125879190613a72565b90508082141580156125a957508161259f8688613e8c565b64ffffffffff1614155b156125f9576040517fa65010b400000000000000000000000000000000000000000000000000000000815264ffffffffff808816600483015280871660248301528316604482015260640161027e565b818664ffffffffff16111561264a576040517f7e8578d30000000000000000000000000000000000000000000000000000000081526004810183905264ffffffffff8716602482015260440161027e565b6000612657848984612dd6565b905060006126648b612c5a565b905060005b815181101561272f5760008282815181106126865761268661368f565b602002602001015190506126b26010826affffffffffffffffffffff1916612ce390919063ffffffff16565b1561272657606081901c6001600160a01b03166355eb5a288e8e8e8e8e8d8f6040518863ffffffff1660e01b81526004016126f39796959493929190613eaa565b600060405180830381600087803b15801561270d57600080fd5b505af1158015612721573d6000803e3d6000fd5b505050505b50600101612669565b5064ffffffffff881660005b8a60ff168160ff16101561276e57612762878260ff166028026038011c64ffffffffff1690565b9091019060010161273b565b508b7ffe158a7adba34e256807c8a149028d3162918713c3838afc643ce9f96716ebfd8c8c848c888d6040516127a996959493929190613f08565b60405180910390a2508284146127ca5760006127c58c8c612be8565b839055505b60006127d78c8c8c611ca2565b90506127eb818a64ffffffffff1689612dc0565b5060005b81518110156128b557600082828151811061280c5761280c61368f565b602002602001015190506128386020826affffffffffffffffffffff1916612ce390919063ffffffff16565b156128ac57606081901c6001600160a01b031663635845338e8e8e8e8e8a8f6040518863ffffffff1660e01b81526004016128799796959493929190613eaa565b600060405180830381600087803b15801561289357600080fd5b505af11580156128a7573d6000803e3d6000fd5b505050505b506001016127ef565b505050505050505050505050565b600060086128d3600260206136f8565b6128dd9190613f57565b9190911c919050565b60608160000361290557506040805160208101909152600081526101e1565b60006129118585611d58565b905061063381600085611d35565b60006008600180612932600260206136f8565b61293c91906136f8565b61294691906136f8565b6129509190613f57565b8260ff911c1692915050565b82156129e3576020831061298657602083048401935060208381612982576129826138eb565b0692505b82156129e35760208390036000818410156129a95750600019600884021c6129b3565b50600019600882021c5b8554600886021b8184511682198216178452508184116129d45750506109c4565b50600194909401939182900391015b5b60208210612a055783548152600190930192601f19909101906020016129e4565b81156109c4576000600019600884021c8251865482191691161782525050505050565b610f4d868686868686612a3b8d8d611d22565b612489565b6000612a4c8585611d22565b90506000612a69828560ff166028026038011c64ffffffffff1690565b9050610f4d868686612a828764ffffffffff87166136f8565b604080516000815260208101909152889088612489565b60008061144685612ea4565b60006060600080612ab586612eb9565b90925090506001600160a01b038216612b065785612ad287612f5d565b6040517ffbf10ce600000000000000000000000000000000000000000000000000000000815260040161027e929190613ce8565b80612b1557612b15868961309a565b8615612b81577dffffffffffffffffffffffffffff0000000000000000000000000000000086167f6e73000000000000000000000000000000000000000000000000000000000000176000612b69826130e6565b9050612b7e82612b798b84613a72565b613177565b50505b6000612b8d8760101b90565b7fffffffffffffffffffffffffffff0000000000000000000000000000000000001614612bc557612bc08888848861322b565b612bd1565b612bd1888884886132a3565b90999098509650505050505050565b805160208201fd5b60008282604051602001612bfd929190613d01565b60408051601f1981840301815291905280516020909101207f14e2fcc58e58e68ec7edc30c8d50dccc3ce2714a623ec81f46b6a63922d76569189392505050565b6040805160208101849052908101829052600090606001611d6d565b60408051600180825281830190925260609160009190602080830190803683370190505090508281600081518110612c9457612c9461368f565b60209081029190910101526000612ccc7f746273746f726500000000000000000053746f7265486f6f6b73000000000000838361174f565b9050610776612cde8260008451611026565b613304565b60008160ff1682612cf48560581c90565b1660ff1614905092915050565b8215612d7b5760208310612d2b57602083048401935060208381612d2757612d276138eb565b0692505b8215612d7b5760208390036000600019600885021c1990506008850281811c91508351811c9050811987541682821617875550818411612d6c5750506109c4565b50600194909401939182900391015b5b60208210612d9d5780518455600190930192601f1990910190602001612d7c565b81156109c4576000600019600884021c8554835182191691161785555050505050565b6108ff83838351612dd18560200190565b612d01565b600064ffffffffff821115612e1a576040517f7149a3c10000000000000000000000000000000000000000000000000000000081526004810183905260240161027e565b8366ffffffffffffff811660ff851660280260380182901c64ffffffffff16808510612e4c5780850382019150612e54565b848103820391505b5064ffffffffff6038602860ff8816020181811b197fffffffffffffffffffffffffffffffffffffffffffffffffff000000000000009490941690921792909216918416901b1790509392505050565b602081015160408201516000905b9050915091565b60408051600180825281830190925260009182918291602080830190803683370190505090508381600081518110612ef357612ef361368f565b602090810291909101015260008080612f4c7f7462776f726c6400000000000000000053797374656d73000000000000000000857e15020014010000000000000000000000000000000000000000000000000000611897565b925092509250610a6e838383613315565b606081601081901b6000612f7083613321565b9050827fffffffffffffffffffffffffffff000000000000000000000000000000000000831615612fcb57612fc67fffffffffffffffffffffffffffff0000000000000000000000000000000000008416613338565b613002565b6040518060400160405280600681526020017f3c726f6f743e00000000000000000000000000000000000000000000000000008152505b7fffffffffffffffffffffffffffffffff000000000000000000000000000000008316156130385761303383613338565b61306f565b6040518060400160405280600681526020017f3c726f6f743e00000000000000000000000000000000000000000000000000008152505b60405160200161308193929190613f6e565b6040516020818303038152906040529350505050919050565b6130a482826133dc565b610300576130b182612f5d565b816040517fd787b73700000000000000000000000000000000000000000000000000000000815260040161027e929190613ffc565b60408051600180825281830190925260009182919060208083019080368337019050509050828160008151811061311f5761311f61368f565b602090810291909101015260006107767f7462776f726c6400000000000000000042616c616e636573000000000000000083837e20010020000000000000000000000000000000000000000000000000000000611804565b6040805160018082528183019092526000916020808301908036833701905050905082816000815181106131ad576131ad61368f565b6020026020010181815250506108ff7f7462776f726c6400000000000000000042616c616e636573000000000000000060001b826000856040516020016131f691815260200190565b60408051601f198184030181529190527e20010020000000000000000000000000000000000000000000000000000000611847565b60006060836001600160a01b0316600061324685898961343a565b6040516132539190614027565b60006040518083038185875af1925050503d8060008114613290576040519150601f19603f3d011682016040523d82523d6000602084013e613295565b606091505b509097909650945050505050565b60006060836001600160a01b03166132bc84888861343a565b6040516132c99190614027565b600060405180830381855af49150503d8060008114613290576040519150601f19603f3d011682016040523d82523d6000602084013e613295565b606060006101e18360156000611789565b60008061144685613469565b600061332f60706010613a72565b9190911b919050565b606060005b601081101561339d577fffffffffffffffffffffffffffffffff000000000000000000000000000000008316600882021b7fff00000000000000000000000000000000000000000000000000000000000000161561339d5760010161333d565b604080517fffffffffffffffffffffffffffffffff00000000000000000000000000000000851660208201528151603090910190915281815280610776565b600061342a7f6e730000000000000000000000000000000000000000000000000000000000007dffffffffffffffffffffffffffff0000000000000000000000000000000085161783613485565b806101e157506101e18383613485565b606083838360405160200161345193929190614043565b60405160208183030381529060405290509392505050565b6020810151603482015160609190911c9060009060f81c612eb2565b6040805160028082526060820183526000928392919060208301908036833701905050905083816000815181106134be576134be61368f565b602002602001018181525050826001600160a01b031660001b816001815181106134ea576134ea61368f565b602090810291909101015260006135427f7462776f726c640000000000000000005265736f75726365416363657373000083837e01010001000000000000000000000000000000000000000000000000000000611804565b90506106338160f81c90565b60006020828403121561356057600080fd5b81357fffffffff00000000000000000000000000000000000000000000000000000000811681146101e157600080fd5b803561ffff8116811461174a57600080fd5b600080604083850312156135b557600080fd5b6135be83613590565b91506135cc60208401613590565b90509250929050565b60008151808452602080850194506020840160005b83811015613606578151875295820195908201906001016135ea565b509495945050505050565b6020815260006101e160208301846135d5565b60006020828403121561363657600080fd5b5035919050565b60008060006060848603121561365257600080fd5b8335925061366260208501613590565b915061367060408501613590565b90509250925092565b634e487b7160e01b600052604160045260246000fd5b634e487b7160e01b600052603260045260246000fd5b634e487b7160e01b600052601160045260246000fd5b61ffff8281168282160390808211156136d6576136d66136a5565b5092915050565b61ffff8181168382160190808211156136d6576136d66136a5565b818103818111156101c0576101c06136a5565b600181815b8085111561374657816000190482111561372c5761372c6136a5565b8085161561373957918102915b93841c9390800290613710565b509250929050565b60008261375d575060016101c0565b8161376a575060006101c0565b8160018114613780576002811461378a576137a6565b60019150506101c0565b60ff84111561379b5761379b6136a5565b50506001821b6101c0565b5060208310610133831016604e8410600b84101617156137c9575081810a6101c0565b6137d3838361370b565b80600019048211156137e7576137e76136a5565b029392505050565b60006101e160ff84168361374e565b604051601f8201601f1916810167ffffffffffffffff8111828210171561382757613827613679565b604052919050565b6000602080838503121561384257600080fd5b825167ffffffffffffffff8082111561385a57600080fd5b818501915085601f83011261386e57600080fd5b81518181111561388057613880613679565b8060051b91506138918483016137fe565b81815291830184019184810190888411156138ab57600080fd5b938501935b838510156138df578451925063ffffffff831683146138cf5760008081fd5b82825293850193908501906138b0565b98975050505050505050565b634e487b7160e01b600052601260045260246000fd5b600063ffffffff80841680613918576139186138eb565b92169190910692915050565b600082613933576139336138eb565b500690565b83815260606020820152600061395160608301856135d5565b905060ff83166040830152949350505050565b60005b8381101561397f578181015183820152602001613967565b50506000910152565b600082601f83011261399957600080fd5b815167ffffffffffffffff8111156139b3576139b3613679565b6139c66020601f19601f840116016137fe565b8181528460208386010111156139db57600080fd5b610776826020830160208701613964565b6000602082840312156139fe57600080fd5b815167ffffffffffffffff811115613a1557600080fd5b61077684828501613988565b60008151808452613a39816020860160208601613964565b601f01601f19169290920160200192915050565b606081526000613a606060830186613a21565b60208301949094525060400152919050565b808201808211156101c0576101c06136a5565b848152608060208201526000613a9e60808301866135d5565b60ff949094166040830152506060015292915050565b600060208284031215613ac657600080fd5b5051919050565b85815260a060208201526000613ae660a08301876135d5565b8281036040840152613af88187613a21565b905084606084015282810360808401526138df8185613a21565b85815260a060208201526000613b2b60a08301876135d5565b60ff861660408401528281036060840152613b468186613a21565b9150508260808301529695505050505050565b848152608060208201526000613b7260808301866135d5565b60ff851660408401528281036060840152610b5b8185613a21565b838152606060208201526000613ba660608301856135d5565b9050826040830152949350505050565b600080600060608486031215613bcb57600080fd5b835167ffffffffffffffff80821115613be357600080fd5b613bef87838801613988565b9450602086015193506040860151915080821115613c0c57600080fd5b50613c1986828701613988565b9150509250925092565b6000815160208301517fffffffff0000000000000000000000000000000000000000000000000000000080821693506004831015613c6b5780818460040360031b1b83161693505b505050919050565b600060ff821660ff8103613c8957613c896136a5565b60010192915050565b86815260c060208201526000613cab60c08301886135d5565b60ff8716604084015264ffffffffff86811660608501528516608084015282810360a0840152613cdb8185613a21565b9998505050505050505050565b8281526040602082015260006107766040830184613a21565b8281526000602080830184516020860160005b82811015613d3057815184529284019290840190600101613d14565b5091979650505050505050565b608081526000613d5060808301876135d5565b8281036020840152613d628187613a21565b90508460408401528281036060840152610b5b8185613a21565b86815260c060208201526000613d9560c08301886135d5565b8281036040840152613da78188613a21565b90508560608401528281036080840152613dc18186613a21565b9150508260a0830152979650505050505050565b606081526000613de860608301866135d5565b65ffffffffffff851660208401528281036040840152613e088185613a21565b9695505050505050565b848152608060208201526000613e2b60808301866135d5565b65ffffffffffff851660408401528281036060840152610b5b8185613a21565b7fffff000000000000000000000000000000000000000000000000000000000000841681528260208201526060604082015260006106336060830184613a21565b64ffffffffff8181168382160190808211156136d6576136d66136a5565b87815260e060208201526000613ec360e08301896135d5565b60ff8816604084015264ffffffffff87811660608501528616608084015260a0830185905282810360c0840152613efa8185613a21565b9a9950505050505050505050565b60c081526000613f1b60c08301896135d5565b60ff8816602084015265ffffffffffff8716604084015264ffffffffff8616606084015284608084015282810360a0840152613cdb8185613a21565b80820281158282048414176101c0576101c06136a5565b7fffff0000000000000000000000000000000000000000000000000000000000008416815260007f3a000000000000000000000000000000000000000000000000000000000000008060028401528451613fcf816003860160208901613964565b808401905081600382015284519150613fef826004830160208801613964565b0160040195945050505050565b60408152600061400f6040830185613a21565b90506001600160a01b03831660208301529392505050565b60008251614039818460208701613964565b9190910192915050565b60008451614055818460208901613964565b60609490941b7fffffffffffffffffffffffffffffffffffffffff000000000000000000000000169190930190815260148101919091526034019291505056fea2646970667358221220a336c217c3e3c1e28731e39431a5401ff45fcf2bf038c2778c55e749c5c7d13d64736f6c63430008180033","linkReferences":{"src/libraries/LibChunks.sol":{"LibChunks":[{"start":3379,"length":20},{"start":3566,"length":20}]}}},"methodIdentifiers":{"_msgSender()":"119df25f","_msgValue()":"45ec9354","_world()":"e1af802c","getEntitiesAtPosition(uint16,uint16)":"69e10c7b","move(bytes32,uint16,uint16)":"953717d1","spawn(bytes32)":"911c37ae","supportsInterface(bytes4)":"01ffc9a7"},"id":207}