{"abi":[{"type":"function","name":"UD__calculateAccessoryBonuses","inputs":[{"name":"characterId","type":"bytes32","internalType":"bytes32"}],"outputs":[{"name":"armorBonus","type":"int256","internalType":"int256"},{"name":"strBonus","type":"int256","internalType":"int256"},{"name":"agiBonus","type":"int256","internalType":"int256"},{"name":"intBonus","type":"int256","internalType":"int256"},{"name":"hpBonus","type":"int256","internalType":"int256"}],"stateMutability":"view"},{"type":"function","name":"UD__checkAccessoryRequirements","inputs":[{"name":"characterId","type":"bytes32","internalType":"bytes32"},{"name":"accessoryId","type":"uint256","internalType":"uint256"}],"outputs":[{"name":"canEquip","type":"bool","internalType":"bool"}],"stateMutability":"view"},{"type":"function","name":"UD__equipAccessory","inputs":[{"name":"characterId","type":"bytes32","internalType":"bytes32"},{"name":"accessoryId","type":"uint256","internalType":"uint256"}],"outputs":[],"stateMutability":"nonpayable"},{"type":"function","name":"UD__getAccessoryStats","inputs":[{"name":"accessoryId","type":"uint256","internalType":"uint256"}],"outputs":[{"name":"accessoryStats","type":"tuple","internalType":"struct AccessoryStatsData","components":[{"name":"agiModifier","type":"int256","internalType":"int256"},{"name":"armorModifier","type":"int256","internalType":"int256"},{"name":"hpModifier","type":"int256","internalType":"int256"},{"name":"intModifier","type":"int256","internalType":"int256"},{"name":"minLevel","type":"uint256","internalType":"uint256"},{"name":"strModifier","type":"int256","internalType":"int256"},{"name":"effects","type":"bytes32[]","internalType":"bytes32[]"}]}],"stateMutability":"view"},{"type":"function","name":"UD__getEquippedAccessories","inputs":[{"name":"characterId","type":"bytes32","internalType":"bytes32"}],"outputs":[{"name":"equippedAccessories","type":"uint256[]","internalType":"uint256[]"}],"stateMutability":"view"},{"type":"function","name":"UD__isAccessoryEquipped","inputs":[{"name":"characterId","type":"bytes32","internalType":"bytes32"},{"name":"accessoryId","type":"uint256","internalType":"uint256"}],"outputs":[{"name":"isEquipped","type":"bool","internalType":"bool"}],"stateMutability":"view"},{"type":"function","name":"UD__unequipAccessory","inputs":[{"name":"characterId","type":"bytes32","internalType":"bytes32"},{"name":"accessoryId","type":"uint256","internalType":"uint256"}],"outputs":[],"stateMutability":"nonpayable"},{"type":"function","name":"_msgSender","inputs":[],"outputs":[{"name":"sender","type":"address","internalType":"address"}],"stateMutability":"view"},{"type":"function","name":"_msgValue","inputs":[],"outputs":[{"name":"value","type":"uint256","internalType":"uint256"}],"stateMutability":"view"},{"type":"function","name":"_world","inputs":[],"outputs":[{"name":"","type":"address","internalType":"address"}],"stateMutability":"view"},{"type":"function","name":"supportsInterface","inputs":[{"name":"interfaceId","type":"bytes4","internalType":"bytes4"}],"outputs":[{"name":"","type":"bool","internalType":"bool"}],"stateMutability":"pure"},{"type":"event","name":"AccessoryBonusesCalculated","inputs":[{"name":"characterId","type":"bytes32","indexed":true,"internalType":"bytes32"},{"name":"armorBonus","type":"int256","indexed":false,"internalType":"int256"},{"name":"strBonus","type":"int256","indexed":false,"internalType":"int256"},{"name":"agiBonus","type":"int256","indexed":false,"internalType":"int256"},{"name":"intBonus","type":"int256","indexed":false,"internalType":"int256"},{"name":"hpBonus","type":"int256","indexed":false,"internalType":"int256"}],"anonymous":false},{"type":"event","name":"AccessoryEquipped","inputs":[{"name":"characterId","type":"bytes32","indexed":true,"internalType":"bytes32"},{"name":"accessoryId","type":"uint256","indexed":false,"internalType":"uint256"}],"anonymous":false},{"type":"event","name":"AccessoryUnequipped","inputs":[{"name":"characterId","type":"bytes32","indexed":true,"internalType":"bytes32"},{"name":"accessoryId","type":"uint256","indexed":false,"internalType":"uint256"}],"anonymous":false},{"type":"event","name":"Store_SpliceDynamicData","inputs":[{"name":"tableId","type":"bytes32","indexed":true,"internalType":"ResourceId"},{"name":"keyTuple","type":"bytes32[]","indexed":false,"internalType":"bytes32[]"},{"name":"dynamicFieldIndex","type":"uint8","indexed":false,"internalType":"uint8"},{"name":"start","type":"uint48","indexed":false,"internalType":"uint48"},{"name":"deleteCount","type":"uint40","indexed":false,"internalType":"uint40"},{"name":"encodedLengths","type":"bytes32","indexed":false,"internalType":"EncodedLengths"},{"name":"data","type":"bytes","indexed":false,"internalType":"bytes"}],"anonymous":false},{"type":"error","name":"AccessorySystem_AlreadyEquipped","inputs":[]},{"type":"error","name":"AccessorySystem_CharacterNotFound","inputs":[]},{"type":"error","name":"AccessorySystem_ItemNotFound","inputs":[]},{"type":"error","name":"AccessorySystem_LevelTooLow","inputs":[]},{"type":"error","name":"AccessorySystem_NotAccessory","inputs":[]},{"type":"error","name":"AccessorySystem_NotEquipped","inputs":[]},{"type":"error","name":"AccessorySystem_RequirementsNotMet","inputs":[]},{"type":"error","name":"EncodedLengths_InvalidLength","inputs":[{"name":"length","type":"uint256","internalType":"uint256"}]},{"type":"error","name":"Slice_OutOfBounds","inputs":[{"name":"data","type":"bytes","internalType":"bytes"},{"name":"start","type":"uint256","internalType":"uint256"},{"name":"end","type":"uint256","internalType":"uint256"}]},{"type":"error","name":"Store_IndexOutOfBounds","inputs":[{"name":"length","type":"uint256","internalType":"uint256"},{"name":"accessedIndex","type":"uint256","internalType":"uint256"}]},{"type":"error","name":"Store_InvalidResourceType","inputs":[{"name":"expected","type":"bytes2","internalType":"bytes2"},{"name":"resourceId","type":"bytes32","internalType":"ResourceId"},{"name":"resourceIdString","type":"string","internalType":"string"}]},{"type":"error","name":"Store_InvalidSplice","inputs":[{"name":"startWithinField","type":"uint40","internalType":"uint40"},{"name":"deleteCount","type":"uint40","internalType":"uint40"},{"name":"fieldLength","type":"uint40","internalType":"uint40"}]},{"type":"error","name":"World_AccessDenied","inputs":[{"name":"resource","type":"string","internalType":"string"},{"name":"caller","type":"address","internalType":"address"}]}],"bytecode":{"object":"0x6080806040523461001657612e11908161001b8239f35b5f80fdfe60806040526004361015610011575f80fd5b5f3560e01c806301dd155b146100c457806301ffc9a7146100bf578063119df25f146100ba5780633435236d146100b557806345ec9354146100b05780635a7b7ff0146100ab578063833f9187146100a6578063902de6ac146100a1578063b811e1ad1461009c578063ce4789f3146100975763e1af802c14610092575f80fd5b610657565b610594565b610450565b6102cb565b6102aa565b61027f565b610260565b6101b3565b610187565b610127565b3461012357602080600319360112610123576100e16004356109bc565b90604051918183928301818452825180915281604085019301915f5b82811061010c57505050500390f35b8351855286955093810193928101926001016100fd565b5f80fd5b346101235760203660031901126101235760043563ffffffff60e01b81168091036101235760209063b5dee12760e01b811490811561016c575b506040519015158152f35b6301ffc9a760e01b1490505f610161565b5f91031261012357565b34610123575f3660031901126101235760206101a16109f0565b6040516001600160a01b039091168152f35b3461012357602080600319360112610123576101cd6106f6565b506101d9600435610a07565b9060405191818392835260c06101008401928051838601528281015160408601526040810151606086015260608101516080860152608081015160a086015260a08101518286015201519160e08085015282518091528161012085019301915f5b82811061024957505050500390f35b83518552869550938101939281019260010161023a565b34610123575f366003190112610123576020604051601f193601358152f35b346101235760403660031901126101235760206102a060243560043561073c565b6040519015158152f35b346101235760403660031901126101235760206102a0602435600435610b84565b34610123576040366003190112610123576004356024356102f36102ed6109f0565b30610bc1565b61030d61030161030161154d565b6001600160a01b031690565b604051633e86fb3160e21b81526004810184905290602090829060249082905afa90811561044b575f9161041c575b501561040b5761035361034f8284610b84565b1590565b6103f957610360826109bc565b905f5b82518110156103df57816103778285610900565b511461038557600101610363565b906103c1836103da936103ba6103b26103ac5f80516020612d718339815191529851610928565b84610900565b519183610900565b5285610cd1565b6103ca84610d47565b6040519081529081906020820190565b0390a2005b505f80516020612d7183398151915291506103da906103ca565b6040516342881fa160e11b8152600490fd5b6040516226ba6d60e91b8152600490fd5b61043e915060203d602011610444575b61043681836106d3565b8101906108c9565b5f61033c565b503d61042c565b6108e1565b3461012357604080600319360112610123576004803591602435916104766102ed6109f0565b61048461030161030161154d565b602083518092633e86fb3160e21b825281806104a78a8883019190602083019252565b03915afa90811561044b575f91610575575b50156105685760056104d26104cd85610e31565b61097a565b6104db8161096b565b0361055a576104ea8385610b84565b61054c576104fb61034f848661073c565b61053e5750816103da916105307f371cb3bd99d1711454871d07553f0f3faeafb391058b24efef324d70b6b63f829486610ed4565b519081529081906020820190565b905163f28a1e1760e01b8152fd5b9051636f0c2c0160e11b8152fd5b90516336d7e3cb60e01b8152fd5b90516226ba6d60e91b8152fd5b61058e915060203d6020116104445761043681836106d3565b5f6104b9565b3461012357602080600319360112610123575f805f925f915f926105b96004356109bc565b945f945b865186101561063057610623600191604061061a61060e6106056105f96105ee6105e88f8f90610900565b51610a07565b9a8c8c015190610987565b9760a08b015190610987565b9c895190610987565b96606089015190610987565b96015190610987565b95019496909291966105bd565b6040805194855260208501929092529083018790526060830191909152608082015260a090f35b34610123575f3660031901126101235760206101a161154d565b634e487b7160e01b5f52604160045260245ffd5b6001600160401b03811161069857604052565b610671565b604081019081106001600160401b0382111761069857604052565b602081019081106001600160401b0382111761069857604052565b601f909101601f19168101906001600160401b0382119082101761069857604052565b6040519060e082016001600160401b0381118382101761069857604052606060c0835f81525f60208201525f60408201525f838201525f60808201525f60a08201520152565b610744610a96565b5061074d6109a2565b908151156108c4576020820152610763906111a5565b50509061076e610a96565b906020830151604084015160608501516107889060f81c90565b610791906118a3565b6061860151608187015160a188015160c189015160e18a01516101018b015160f81c6107bc906118b2565b6101028c015160f81c6107ce906118b2565b6101038d01518d9060f81c6107e2906118b2565b6101049091015160f81c6107f5906118be565b610105909e015160f81c15156101808e015260e08d019d8d610160019061081b9161142d565b610829906101408e01611443565b610837906101208d01611443565b610845906101008c01611443565b8a5260c089015260a088015260808701526060860152610868906040860161144f565b6020840152825261087881610a07565b9061088290610b34565b92519060800151116108be5780516040830151136108be5760208101518251136108be5760606020910151910151136108ba57600190565b5f90565b50505f90565b6108ec565b90816020910312610123575180151581036101235790565b6040513d5f823e3d90fd5b634e487b7160e01b5f52603260045260245ffd5b80518210156108c45760209160051b010190565b634e487b7160e01b5f52601160045260245ffd5b5f1981019190821161093657565b610914565b601f1981019190821161093657565b9190820391821161093657565b634e487b7160e01b5f52602160045260245ffd5b6006111561097557565b610957565b5160068110156109755790565b9190915f838201938412911290801582169115161761093657565b604051906109af8261069d565b6001825260203681840137565b6109c46109a2565b8051156108c4576109e0816109ed9360206109e894015261103e565b805190611108565b6115a2565b90565b36603319013560601c908115610a0257565b339150565b610a0f6106f6565b50610a186109a2565b908151156108c4576109e8610a3b83610a8e93602064ffffffffff96015261126f565b919490610a466106f6565b9560208101519060408101519060608101519060808101519060c060a082015191015160a08c015260808b015260608a015260408901526020880152865260381c1690611108565b60c082015290565b604051906101a082016001600160401b03811183821017610698576040525f610180838281528260208201528260408201528260608201528260808201528260a08201528260c08201528260e0820152826101008201528261012082015282610140820152826101608201520152565b60405190606082016001600160401b03811183821017610698576040525f6040838281528260208201520152565b610b3c610b06565b50610b456109a2565b8051156108c457610b5a916020820152611308565b5050610b64610b06565b906020810151906060604082015191015160408401526020830152815290565b610b8d906109bc565b905f5b8251811015610bba5781610ba48285610900565b5114610bb257600101610b90565b505050600190565b5050505f90565b610bc96109a2565b8051156108c4576001600160a01b039091166020820152610be9906118dc565b610c0682600160801b600160f01b038316616e7360f01b17612749565b8015610cc1575b15610c16575050565b608081901b6001600160801b03191690610c8190601081901b6001600160901b03191680610cb25750610c47611a35565b925b80610ca15750610c73610c5a611a35565b6040519485936001600160f01b03191660208501611a57565b03601f1981018352826106d3565b610c9d60405192839263d787b73760e01b84526004840161145b565b0390fd5b610cad610c73916127a4565b610c5a565b610cbb906127a4565b92610c49565b50610ccc8282612749565b610c0d565b9190610cdb6109a2565b8051156108c4576020938482015281518060051b9080820486148115171561093657906040519386850191601f19603f82880101166040528552865f9101905b838110610d335750505050610d319293506114c3565b565b815183529187019190870190600101610d1b565b610d4f6109a2565b908151156108c45760208201526001600160a01b03610d6c61154d565b16308103610d7e5750610d3190611d34565b803b15610123576040516336700e8160e21b81525f80516020612df1833981519152600482015260806024820152915f918391829084908290610dc590608483019061100b565b600460448301526020606483015203925af1801561044b57610de45750565b80610df1610d3192610685565b8061017d565b6040519060a082016001600160401b038111838210176106985760405260606080835f81525f60208201525f60408201525f838201520152565b610e39610df7565b50610e426109a2565b8051156108c457610e5791602082015261139e565b610e5f610df7565b92602081015160f81c92600684101561097557610ea89382602164ffffffffff9401519060616041820151910151606089015260408801526020870152855260381c1690611108565b610ecc6001600160801b038216610ebe816115f7565b92602084019060801c612c5f565b608082015290565b90610edd6109a2565b918251156108c457602083015260405190602082015260208152610f008161069d565b6001600160a01b03610f1061154d565b1691308303610f2357610d319250611fe7565b90823b1561012357610f4e925f9283604051809681958294630a87993160e11b845260048401611483565b03925af1801561044b57610f5f5750565b610d3190610685565b6001600160401b03811161069857601f01601f191660200190565b5f5b838110610f945750505f910152565b8181015183820152602001610f85565b81601f82011215610123578051610fba81610f68565b92610fc860405194856106d3565b81845260208284010111610123576109ed9160208085019101610f83565b906020828203126101235781516001600160401b038111610123576109ed9201610fa4565b9081518082526020808093019301915f5b82811061102a575050505090565b83518552938101939281019260010161101c565b6001600160a01b0361104e61154d565b1630810361106057506109ed90611582565b604051631e78897760e01b81525f80516020612df1833981519152600482015260606024820152915f9183918290819061109e90606483019061100b565b6004604483015203915afa90811561044b575f916110ba575090565b6109ed91503d805f833e6110ce81836106d3565b810190610fe6565b906020916110ef81518092818552858086019101610f83565b601f01601f1916010190565b9190820180921161093657565b9081518111611127576001600160801b031660209190910160801b1790565b6040516323230fa360e01b8152606060048201529250829161114d9060648401906110d6565b905f602484015260448301520390fd5b90916060828403126101235781516001600160401b0392908381116101235784611188918301610fa4565b936020820151936040830151908111610123576109ed9201610fa4565b6001600160a01b036111b561154d565b163081036111ce57506111c790611629565b9192909190565b60405163419b58fd60e01b815264537461747360581b631d18955160e21b0160048201526060602482015292915f9184918290819061121190606483019061100b565b6fe60d002020012020202020010101010160781b604483015203915afa90811561044b575f80935f93611245575b50929190565b9193505061126591503d805f833e61125d81836106d3565b81019061115d565b929092915f61123f565b6001600160a01b0361127f61154d565b1630810361129157506111c7906116d1565b60405163419b58fd60e01b81526f4163636573736f727953746174730000631d18955160e21b0160048201526060602482015292915f918491829081906112dc90606483019061100b565b6806003009010101010160b51b604483015203915afa90811561044b575f80935f936112455750929190565b6001600160a01b0361131861154d565b1630810361132a57506111c790611782565b60405163419b58fd60e01b81526f537461745265737472696374696f6e73631d18955160e21b0160048201526060602482015292915f9184918290819061137590606483019061100b565b6503001801010160cd1b604483015203915afa90811561044b575f80935f936112455750929190565b6001600160a01b036113ae61154d565b163081036113c057506111c79061180c565b60405163419b58fd60e01b8152644974656d7360581b631d18955160e21b0160048201526060602482015292915f9184918290819061140390606483019061100b565b660308200809010160c51b604483015203915afa90811561044b575f80935f936112455750929190565b600a8210156109755752565b6004111561097557565b61144c82611439565b52565b60038210156109755752565b906114736020919493946040845260408401906110d6565b6001600160a01b03909416910152565b5f80516020612df183398151915281526080602082018190526109ed9391926114ae9184019061100b565b916004604082015260608184039101526110d6565b906001600160a01b036114d461154d565b16913083036114e757610d319250611aa5565b90823b15610123576040516377b7543160e11b81525f80516020612df1833981519152600482015260806024820152925f928492839185918391610f4e919061153490608485019061100b565b60046044850152838103600319016064850152906110d6565b7f629a4c26e296b22a8e0856e9f6ecb2d1008d7e00081111962cd175fa7488e175546001600160a01b0316806109ed57503390565b6109ed906115986115928261246b565b91612a32565b5460d81c906125c6565b6040805160206020600160801b0384168201810190925260016001607b1b03600584901c1680825290939260801c8285015f5b8381106115e3575050505050565b8251825291840191908401906001016115d5565b9061160182610f68565b61160e60405191826106d3565b828152809261161f601f1991610f68565b0190602036910137565b5f90606090604051906020908261164460208201928361234f565b0392611658601f19948581018352826106d3565b5190205f80516020612d918339815191521891604051928161012585011660405260e68452602084019260e691925b818310156116b95750508061169d575b50505092565b5f199060031b1c908183511691199054161790525f8080611697565b81600185839495979654875201940194019190611687565b9061170260405160208101906116eb81610c738785612392565b5190205f80516020612d918339815191521861250b565b9061170c83612a5c565b5461171f66ffffffffffffff82166115f7565b935f93602086015b60ff86166001811015611778576117598264ffffffffff876117498b896124a9565b946028026038011c168093612611565b8101809111610936579460ff8091169081146109365760010194611727565b5050949291935050565b5f90606090604051906020908261179d6020820192836123dd565b03926117b1601f19948581018352826106d3565b5190205f80516020612d9183398151915218916040519281609f850116604052606084526020840192606091925b818310156117f45750508061169d5750505092565b816001858394959796548752019401940191906117df565b9061183d604051602081019061182681610c738785612428565b5190205f80516020612d9183398151915218612577565b9061184783612a71565b5461185a66ffffffffffffff82166115f7565b935f93602086015b60ff86166001811015611778576118848264ffffffffff876117498b896124e6565b8101809111610936579460ff8091169081146109365760010194611862565b60ff1660038110156109755790565b60ff166109ed81611439565b60ff16600a8110156109755790565b90816020910312610123575190565b6001600160a01b036118ec61154d565b163081036118fe57506109ed9061265b565b604051638c364d5960e01b81526f53797374656d52656769737472790000661d189ddbdc9b1960ca1b016004820152608060248201529160209183918290819061194c90608483019061100b565b5f6044830152630100080160dd1b606483015203915afa90811561044b575f91611974575090565b6109ed915060203d602011611996575b61198e81836106d3565b8101906118cd565b503d611984565b6001600160a01b036119ad61154d565b163081036119bf57506109ed906126dd565b604051638c364d5960e01b81526f5265736f757263654163636573730000661d189ddbdc9b1960ca1b0160048201526080602482015291602091839182908190611a0d90608483019061100b565b5f6044830152630101000160d81b606483015203915afa90811561044b575f91611974575090565b60405190611a428261069d565b60068252651e3937b7ba1f60d11b6020830152565b90916004939261ffff60f01b168252601d60f91b91826002820152611a86825180936020600385019101610f83565b01906003820152611aa08251809360208685019101610f83565b010190565b919091611ab181612a32565b548060d81c611acb611ac3828061094a565b8651906110fb565b8181141594908580611d15575b611ce957611ae69084612a86565b94611aef612b00565b915f5b8351811015611b9c57611b26611b19611b0b8387610900565b516001600160581b03191690565b6001600160581b03191690565b6010808260581c1614611b3d575b50600101611af2565b60601c90813b15610123575f878b9388838c611b6f60405198899687958694630abd6b4560e31b86526004860161282b565b03925af191821561044b57600192611b89575b5090611b34565b80610df1611b9692610685565b5f611b82565b5091965f96949591949093875b60ff89166004811015611bd55760ff9164ffffffffff8a6001936028026038011c160199011697611ba9565b509498929650929650936040935f80516020612d5183398151915260405180611c258c8a898d65ffffffffffff6f43686172616374657245717569706d65631d18955160e21b019916908661299e565b0390a2611cd9575b611c3f87611c3a8761246b565b612c01565b5f5b8151811015611ccf57611c5a611b19611b0b8385610900565b6020808260581c1614611c71575b50600101611c41565b60601c90813b15610123575f868a9386838b611ca28b5198899687958694636358453360e01b86526004860161282b565b03925af191821561044b57600192611cbc575b5090611c68565b80610df1611cc992610685565b5f611cb5565b5050505050509050565b83611ce386612a32565b55611c2d565b604051632994042d60e21b81525f600482015264ffffffffff8416602482018190526044820152606490fd5b5082611d2d611d2382612802565b64ffffffffff1690565b1415611ad8565b611d3d81612a32565b54908160d81c91601f198301938385116109365764ffffffffff809516604091825196611d69886106b8565b5f88525f368137611d84611d7c8861093b565b8951906110fb565b87811415978880611fd2575b611fa357808511611f7d5750611da69086612a86565b96611daf612b00565b925f5b8451811015611e4057611dcb611b19611b0b8388610900565b6010808260581c1614611de2575b50600101611db2565b60601c90813b15610123575f898d9389838e611e138e5198899687958694630abd6b4560e31b8652600486016128f3565b03925af191821561044b57600192611e2d575b5090611dd9565b80610df1611e3a92610685565b5f611e26565b50929893979094969196885f995b60ff8b166004811015611e755760ff918b8b6001936028026038011c16019b011699611e4e565b509297509499939850949196505f80516020612d51833981519152855180611ec28c8a65ffffffffffff6f43686172616374657245717569706d65631d18955160e21b0197168d856129eb565b0390a2611f6d575b611edd8783611ed88861246b565b612c4e565b5f5b8151811015611ccf57611ef8611b19611b0b8385610900565b6020808260581c1614611f0f575b50600101611edf565b60601c90813b15610123575f868a9386838b611f408b5198899687958694636358453360e01b8652600486016128f3565b03925af191821561044b57600192611f5a575b5090611f06565b80610df1611f6792610685565b5f611f53565b83611f7786612a32565b55611eca565b8551637e8578d360e01b8152600481019190915264ffffffffff85166024820152604490fd5b8551632994042d60e21b815264ffffffffff868116600483015260206024830152919091166044820152606490fd5b5080611fe0611d2387612815565b1415611d90565b919091611ff381612a32565b548060d81c6120038551826110fb565b8181141594908580612222575b6121f65761201e9084612a86565b94612027612b00565b915f5b83518110156120b957612043611b19611b0b8387610900565b6010808260581c161461205a575b5060010161202a565b60601c90813b15610123575f878b9388838c61208c60405198899687958694630abd6b4560e31b86526004860161288f565b03925af191821561044b576001926120a6575b5090612051565b80610df16120b392610685565b5f61209f565b509196929594909394865f975b60ff891660048110156120f25760ff9164ffffffffff8a6001936028026038011c1601990116976120c6565b509498929650929650936040935f80516020612d51833981519152604051806121408c8a65ffffffffffff6f43686172616374657245717569706d65631d18955160e21b0197168d85612958565b0390a26121e6575b6121568783611ed88861246b565b5f5b8151811015611ccf57612171611b19611b0b8385610900565b6020808260581c1614612188575b50600101612158565b60601c90813b15610123575f868a9386838b6121b98b5198899687958694636358453360e01b86526004860161288f565b03925af191821561044b576001926121d3575b509061217f565b80610df16121e092610685565b5f6121cc565b836121f086612a32565b55612148565b604051632994042d60e21b815264ffffffffff8416600482018190525f60248301526044820152606490fd5b5082612230611d2382612802565b1415612010565b6953746f7265486f6f6b7360301b66746273746f726560c81b01815281516020918201928201915f5b82811061226e575050505090565b835185529381019392810192600101612260565b5f80516020612df1833981519152815281516020918201928201915f5b8281106122ad575050505090565b83518552938101939281019260010161229f565b6f4163636573736f727953746174730000631d18955160e21b01815281516020918201928201915f5b8281106122f8575050505090565b8351855293810193928101926001016122ea565b644974656d7360581b631d18955160e21b01815281516020918201928201915f5b82811061233b575050505090565b83518552938101939281019260010161232d565b64537461747360581b631d18955160e21b01815281516020918201928201915f5b82811061237e575050505090565b835185529381019392810192600101612370565b6f4163636573736f727953746174730000631d18955160e21b01815281516020918201928201915f5b8281106123c9575050505090565b8351855293810193928101926001016123bb565b6f537461745265737472696374696f6e73631d18955160e21b01815281516020918201928201915f5b828110612414575050505090565b835185529381019392810192600101612406565b644974656d7360581b631d18955160e21b01815281516020918201928201915f5b828110612457575050505090565b835185529381019392810192600101612449565b7f3f4102da22e32d82fc925482184f16c09fd4281692720b87d124aef6da48a0f1906040516124a281610c73602082019485612282565b5190201890565b905f80516020612db1833981519152916040516124ce81610c736020820194856122c1565b51902060f89190911b6001600160f81b031916181890565b905f80516020612db1833981519152916040516124ce81610c7360208201948561230c565b60405190602090601f19908160ff85011660405260c08452602084019260c091925b8183101561255f57505080612543575b50505090565b5f199060031b1c908183511691199054161790525f808061253d565b8160018583949597965487520194019401919061252d565b60405190602090601f19908160a0850116604052606184526020840192606191925b818310156125ae575050806125435750505090565b81600185839495979654875201940194019190612599565b60408051601f19603f85830101811690925283815292602080850193925b818310156125f9575050806125435750505090565b816001858394959796548752019401940191906125e4565b9291925b6020908183106126355780548552930192601f1990910190600101612615565b9190509291928061264557505050565b5f199060031b1c90818351169119905416179052565b60405160208160208101936f53797374656d52656769737472790000661d189ddbdc9b1960ca1b0185526040820160208251919201935f5b8281106126c6575050506126b0925003601f1981018352826106d3565b5190205f80516020612d91833981519152185490565b855184529481019486945092810192600101612693565b60405160208160208101936f5265736f757263654163636573730000661d189ddbdc9b1960ca1b0185526040820160208251919201935f5b828110612732575050506126b0925003601f1981018352826106d3565b855184529481019486945092810192600101612715565b60405190606082016001600160401b0381118382101761069857604052600282526020820160403682378251156108c457528051600110156108c4576001600160a01b03909116604082015261279e9061199d565b60f81c90565b5f5b601081106127d5575b6040516001600160801b03199092166020830152601082526127d08261069d565b815290565b6001600160801b03198216600382901b1b6001600160f81b031916156127fd576001016127a6565b6127af565b9064ffffffffff80921691821161093657565b90602064ffffffffff8093160191821161093657565b909264ffffffffff6128696109ed9694956f43686172616374657245717569706d65631d18955160e21b01855260e0602086015260e085019061100b565b94600460408501525f606085015216608083015260a082015260c08184039101526110d6565b909264ffffffffff6128cd6109ed9694956f43686172616374657245717569706d65631d18955160e21b01855260e0602086015260e085019061100b565b94600460408501521660608301525f608083015260a082015260c08184039101526110d6565b909264ffffffffff6129316109ed9694956f43686172616374657245717569706d65631d18955160e21b01855260e0602086015260e085019061100b565b94600460408501521660608301526020608083015260a082015260c08184039101526110d6565b909265ffffffffffff6129786109ed96949560c0855260c085019061100b565b94600460208501521660408301525f6060830152608082015260a08184039101526110d6565b9193906109ed959365ffffffffffff6129c564ffffffffff9360c0875260c087019061100b565b9660046020870152166040850152166060830152608082015260a08184039101526110d6565b909265ffffffffffff612a0b6109ed96949560c0855260c085019061100b565b946004602085015216604083015260206060830152608082015260a08184039101526110d6565b604051612a4781610c73602082019485612282565b5190205f80516020612dd18339815191521890565b604051612a4781610c736020820194856122c1565b604051612a4781610c7360208201948561230c565b64ffffffffff8211612ae75766ffffffffffffff811660d882901c83818110612add570301915b6001600160d81b031960d89190911b166001600160d81b0392909216600160381b600160d81b0391909116171790565b9003900391612aad565b604051637149a3c160e01b815260048101839052602490fd5b612b086109a2565b8051156108c457612bb36109e06020926f43686172616374657245717569706d65631d18955160e21b018482015264ffffffffff604051915f80516020612db183398151915286840184612b5c8483612237565b0394612b70601f19968781018352826106d3565b5190201892612b966040519182612b8a8a82019586612237565b039081018352826106d3565b5190205f80516020612dd1833981519152185460381c16906125c6565b8060801c916015809260018060801b0316049060405193818501828460051b8701016040528386525f5b848110612bed5750505050505090565b825182529185019190830190600101612bdd565b81519060208093019190925b80821015612c36575080612c2057505050565b5f199060031b1c90818354169119905116179055565b6001839482939451815501930191601f190190612c0d565b8251610d3193602001929091612ca8565b9291905b602090818310612c82578451815293810193601f199092019101612c63565b92939190508015612ca3575f199060031b1c90818351169119905116179052565b505050565b909392919380612ce7575b509290925b602090818310612cd85784518155930192601f1990910190600101612cb8565b929391905080612c2057505050565b6020811015612d40575b8015612cb35791939082602003908360031b5f198460031b1c19811c908751901c908019835416911617815581831115612d3857600101940191601f19910101925f612cb3565b505050509050565b90601f908260051c019116612cf156fefe158a7adba34e256807c8a149028d3162918713c3838afc643ce9f96716ebfd3b851dd26713599d29751ffc6a3b3d06ff06abc2da0af93646b1cd017276865086425bff6b57326c7859e89024fe4f238ca327a1ae4a230180dd2f0e88aaa7d93b4102da22e32d82fc925482184f16c09fd4281692720b87d124aef6da48a0f114e2fcc58e58e68ec7edc30c8d50dccc3ce2714a623ec81f46b6a63922d765697462554400000000000000000000000043686172616374657245717569706d65","linkReferences":{}},"methodIdentifiers":{"UD__calculateAccessoryBonuses(bytes32)":"ce4789f3","UD__checkAccessoryRequirements(bytes32,uint256)":"5a7b7ff0","UD__equipAccessory(bytes32,uint256)":"b811e1ad","UD__getAccessoryStats(uint256)":"3435236d","UD__getEquippedAccessories(bytes32)":"01dd155b","UD__isAccessoryEquipped(bytes32,uint256)":"833f9187","UD__unequipAccessory(bytes32,uint256)":"902de6ac","_msgSender()":"119df25f","_msgValue()":"45ec9354","_world()":"e1af802c","supportsInterface(bytes4)":"01ffc9a7"},"id":386}