{"abi":[{"type":"function","name":"_msgSender","inputs":[],"outputs":[{"name":"sender","type":"address","internalType":"address"}],"stateMutability":"view"},{"type":"function","name":"_msgValue","inputs":[],"outputs":[{"name":"value","type":"uint256","internalType":"uint256"}],"stateMutability":"view"},{"type":"function","name":"_world","inputs":[],"outputs":[{"name":"","type":"address","internalType":"address"}],"stateMutability":"view"},{"type":"function","name":"calculateArmorBonuses","inputs":[{"name":"characterId","type":"bytes32","internalType":"bytes32"}],"outputs":[{"name":"armorBonus","type":"int256","internalType":"int256"},{"name":"strBonus","type":"int256","internalType":"int256"},{"name":"agiBonus","type":"int256","internalType":"int256"},{"name":"intBonus","type":"int256","internalType":"int256"},{"name":"hpBonus","type":"int256","internalType":"int256"}],"stateMutability":"view"},{"type":"function","name":"checkArmorRequirements","inputs":[{"name":"characterId","type":"bytes32","internalType":"bytes32"},{"name":"armorId","type":"uint256","internalType":"uint256"}],"outputs":[{"name":"canEquip","type":"bool","internalType":"bool"}],"stateMutability":"view"},{"type":"function","name":"equipArmor","inputs":[{"name":"characterId","type":"bytes32","internalType":"bytes32"},{"name":"armorId","type":"uint256","internalType":"uint256"}],"outputs":[],"stateMutability":"nonpayable"},{"type":"function","name":"getArmorStatsData","inputs":[{"name":"armorId","type":"uint256","internalType":"uint256"}],"outputs":[{"name":"armorStats","type":"tuple","internalType":"struct ArmorStatsData","components":[{"name":"agiModifier","type":"int256","internalType":"int256"},{"name":"armorModifier","type":"int256","internalType":"int256"},{"name":"hpModifier","type":"int256","internalType":"int256"},{"name":"intModifier","type":"int256","internalType":"int256"},{"name":"minLevel","type":"uint256","internalType":"uint256"},{"name":"strModifier","type":"int256","internalType":"int256"},{"name":"armorType","type":"uint8","internalType":"enum ArmorType"}]}],"stateMutability":"view"},{"type":"function","name":"getEquippedArmor","inputs":[{"name":"characterId","type":"bytes32","internalType":"bytes32"}],"outputs":[{"name":"equippedArmor","type":"uint256[]","internalType":"uint256[]"}],"stateMutability":"view"},{"type":"function","name":"isArmorEquippedExt","inputs":[{"name":"characterId","type":"bytes32","internalType":"bytes32"},{"name":"armorId","type":"uint256","internalType":"uint256"}],"outputs":[{"name":"isEquipped","type":"bool","internalType":"bool"}],"stateMutability":"view"},{"type":"function","name":"supportsInterface","inputs":[{"name":"interfaceId","type":"bytes4","internalType":"bytes4"}],"outputs":[{"name":"","type":"bool","internalType":"bool"}],"stateMutability":"pure"},{"type":"function","name":"unequipArmor","inputs":[{"name":"characterId","type":"bytes32","internalType":"bytes32"},{"name":"armorId","type":"uint256","internalType":"uint256"}],"outputs":[{"name":"success","type":"bool","internalType":"bool"}],"stateMutability":"nonpayable"},{"type":"event","name":"ArmorBonusesCalculated","inputs":[{"name":"characterId","type":"bytes32","indexed":true,"internalType":"bytes32"},{"name":"armorBonus","type":"int256","indexed":false,"internalType":"int256"},{"name":"strBonus","type":"int256","indexed":false,"internalType":"int256"},{"name":"agiBonus","type":"int256","indexed":false,"internalType":"int256"},{"name":"intBonus","type":"int256","indexed":false,"internalType":"int256"},{"name":"hpBonus","type":"int256","indexed":false,"internalType":"int256"}],"anonymous":false},{"type":"event","name":"ArmorEquipped","inputs":[{"name":"characterId","type":"bytes32","indexed":true,"internalType":"bytes32"},{"name":"armorId","type":"uint256","indexed":false,"internalType":"uint256"}],"anonymous":false},{"type":"event","name":"ArmorUnequipped","inputs":[{"name":"characterId","type":"bytes32","indexed":true,"internalType":"bytes32"},{"name":"armorId","type":"uint256","indexed":false,"internalType":"uint256"}],"anonymous":false},{"type":"event","name":"Store_SpliceDynamicData","inputs":[{"name":"tableId","type":"bytes32","indexed":true,"internalType":"ResourceId"},{"name":"keyTuple","type":"bytes32[]","indexed":false,"internalType":"bytes32[]"},{"name":"dynamicFieldIndex","type":"uint8","indexed":false,"internalType":"uint8"},{"name":"start","type":"uint48","indexed":false,"internalType":"uint48"},{"name":"deleteCount","type":"uint40","indexed":false,"internalType":"uint40"},{"name":"encodedLengths","type":"bytes32","indexed":false,"internalType":"EncodedLengths"},{"name":"data","type":"bytes","indexed":false,"internalType":"bytes"}],"anonymous":false},{"type":"error","name":"ArmorSystem_AlreadyEquipped","inputs":[]},{"type":"error","name":"ArmorSystem_CharacterNotFound","inputs":[]},{"type":"error","name":"ArmorSystem_ItemNotFound","inputs":[]},{"type":"error","name":"ArmorSystem_LevelTooLow","inputs":[]},{"type":"error","name":"ArmorSystem_NoArmorSlot","inputs":[]},{"type":"error","name":"ArmorSystem_NotArmor","inputs":[]},{"type":"error","name":"ArmorSystem_NotEquipped","inputs":[]},{"type":"error","name":"ArmorSystem_RequirementsNotMet","inputs":[]},{"type":"error","name":"EncodedLengths_InvalidLength","inputs":[{"name":"length","type":"uint256","internalType":"uint256"}]},{"type":"error","name":"Slice_OutOfBounds","inputs":[{"name":"data","type":"bytes","internalType":"bytes"},{"name":"start","type":"uint256","internalType":"uint256"},{"name":"end","type":"uint256","internalType":"uint256"}]},{"type":"error","name":"Store_IndexOutOfBounds","inputs":[{"name":"length","type":"uint256","internalType":"uint256"},{"name":"accessedIndex","type":"uint256","internalType":"uint256"}]},{"type":"error","name":"Store_InvalidResourceType","inputs":[{"name":"expected","type":"bytes2","internalType":"bytes2"},{"name":"resourceId","type":"bytes32","internalType":"ResourceId"},{"name":"resourceIdString","type":"string","internalType":"string"}]},{"type":"error","name":"Store_InvalidSplice","inputs":[{"name":"startWithinField","type":"uint40","internalType":"uint40"},{"name":"deleteCount","type":"uint40","internalType":"uint40"},{"name":"fieldLength","type":"uint40","internalType":"uint40"}]}],"bytecode":{"object":"0x60808060405234610016576128fd908161001b8239f35b5f80fdfe60806040526004361015610011575f80fd5b5f3560e01c806301ffc9a7146100c45780630fdbcbdc146100bf578063119df25f146100ba5780633fbb85fd146100b557806345ec9354146100b05780635d96c9ac146100ab5780637986b031146100a6578063cc53f7bb146100a1578063e1af802c1461009c578063e362ce33146100975763fa7bb17514610092575f80fd5b6105b1565b610552565b610526565b610505565b6104da565b6102e2565b6102c3565b6101fc565b6101c0565b610141565b3461011a57602036600319011261011a5760043563ffffffff60e01b811680910361011a5760209063b5dee12760e01b8114908115610109575b506040519015158152f35b6301ffc9a760e01b1490505f6100fe565b5f80fd5b634e487b7160e01b5f52602160045260245ffd5b6004111561013c57565b61011e565b3461011a57602036600319011261011a5761015a6107d9565b5060e0610168600435610b5d565b60c060405191805183526020810151602084015260408101516040840152606081015160608401526080810151608084015260a081015160a084015201516101af81610132565b60c0820152f35b5f91031261011a57565b3461011a575f36600319011261011a5736603319013560601c80156101f5575b6040516001600160a01b039091168152602090f35b50336101e0565b3461011a5760208060031936011261011a575f805f925f925f93610221600435610c48565b5f9460a0809201965b8751805188101561029d57600191604061028761027b61027261026761025c6102568f61029099610833565b51610b5d565b9b8d8d015190610860565b97898c015190610860565b9d8a5190610860565b9760608a015190610860565b97015190610860565b960195979093929761022a565b50604080518681526020810193909352820189905260608201849052608082015260a090f35b3461011a575f36600319011261011a576020604051601f193601358152f35b3461011a5760408060031936011261011a576004356024356103146103086103086116c7565b6001600160a01b031690565b8351633e86fb3160e21b81526004810184905290602090829060249082905afa908115610484575f916104ab575b501561049a576103596103558284610cd5565b1590565b6104895761036682610d0b565b61037861037382516108a3565b6108d5565b915f945f5b83518110156103ca57826103918286610833565b51036103a0575b60010161037d565b956103c26001916103b18987610833565b516103bc8289610833565b52610907565b969050610398565b5084826103d78683610d3f565b6103e56103086103086116c7565b835163a543a0c560e01b815260048101849052919060c090839060249082905afa908115610484577f5f208fc56186091ac0221d85c5aee210ca1fa8a5dfc99ce150c9c961b3a41a509261044892610455575b5084519081529081906020820190565b0390a25160018152602090f35b6104769060c03d60c01161047d575b61046e81836107b6565b810190610915565b5085610438565b503d610464565b610898565b8251637c65f0b360e11b8152600490fd5b8251632e38a05160e11b8152600490fd5b6104cd915060203d6020116104d3575b6104c581836107b6565b810190610880565b5f610342565b503d6104bb565b3461011a57604036600319011261011a5760206104fb602435600435610cd5565b6040519015158152f35b3461011a57604036600319011261011a5760206104fb602435600435610977565b3461011a575f36600319011261011a5760206105406116c7565b6040516001600160a01b039091168152f35b3461011a5760208060031936011261011a5761056f600435610d0b565b90604051918183928301818452825180915281604085019301915f5b82811061059a57505050500390f35b83518552869550938101939281019260010161058b565b3461011a5760408060031936011261011a576004908135906024356105da6103086103086116c7565b602083518092633e86fb3160e21b825281806105fd898b83019190602083019252565b03915afa908115610484575f91610750575b501561074057600161062861062383610edd565b610b36565b61063181610b2c565b03610730576106408184610cd5565b610710576106516103558285610977565b6107205760a061066084610c48565b0151516107105760c0838095610679846106a797610f80565b6106876103086103086116c7565b855163a543a0c560e01b8152918201928352909586928391829160200190565b03915afa918215610484577fc758a2cdcce4a32a46a68cb7d0037ee7bec2f6d35b0b93da24948294dc00cf25936106ec936106f1575b50519081529081906020820190565b0390a2005b6107099060c03d60c01161047d5761046e81836107b6565b505f6106dd565b81516337f87e9160e11b81528490fd5b8151636057f14560e11b81528490fd5b815163e0500ba160e01b81528490fd5b8151632e38a05160e11b81528490fd5b610769915060203d6020116104d3576104c581836107b6565b5f61060f565b634e487b7160e01b5f52604160045260245ffd5b6001600160401b03811161079657604052565b61076f565b604081019081106001600160401b0382111761079657604052565b601f909101601f19168101906001600160401b0382119082101761079657604052565b6040519060e082016001600160401b03811183821017610796576040525f60c0838281528260208201528260408201528260608201528260808201528260a08201520152565b634e487b7160e01b5f52603260045260245ffd5b80518210156108475760209160051b010190565b61081f565b634e487b7160e01b5f52601160045260245ffd5b9190915f838201938412911290801582169115161761087b57565b61084c565b9081602091031261011a5751801515810361011a5790565b6040513d5f823e3d90fd5b5f1981019190821161087b57565b9190820391821161087b57565b6001600160401b0381116107965760051b60200190565b906108df826108be565b6108ec60405191826107b6565b82815280926108fd601f19916108be565b0190602036910137565b5f19811461087b5760010190565b908160c091031261011a576040519060c08201906001600160401b038211838310176107965760a0916040528051835260208101516020840152604081015160408401526060810151606084015260808101516080840152015160a082015290565b61097f610db5565b50610988610b43565b9081511561084757602082015261099e9061110d565b50506109a8610db5565b602082015190604083015160608401516109c29060f81c90565b6109cb90611e8e565b9260618501519160818601519460a18701519360c18801519660e1890151956101018a01516109fa9060f81c90565b610a0390611aec565b986101028b0151610a149060f81c90565b610a1d90611aec565b976101038c0151610a2e9060f81c90565b610a3790611aec565b9a6101048d0151610a489060f81c90565b610a5190611e9d565b610105909d015160f81c15156101808c015260608b019c60208c019c60e08d019b918d6101600190610a82916116af565b610a90906101408e0161141f565b610a9e906101208d0161141f565b610aac906101008c0161141f565b885260c089015260a088015260808701528752610acc90604086016116bb565b84528252610ad985610e53565b94610ae390610b5d565b9051906080015111610b245751604084015113610b1d5751825113610b17576020905191015113610b1357600190565b5f90565b50505f90565b5050505f90565b505050505f90565b6006111561013c57565b51600681101561013c5790565b60405190610b508261079b565b6001825260203681840137565b610b656107d9565b50610b6e610b43565b80511561084757610b839160208201526111d7565b5050610b8d6107d9565b9060208101519060408101519060608101519060808101519060a081015190610bce60e060c083015192015160f81c610bc581610132565b60c0890161141f565b60a08701526080860152606085015260408401526020830152815290565b6040519061014082016001600160401b0381118382101761079657604052815f81525f60208201525f60408201526101206060915f838201525f60808201528260a08201528260c08201528260e0820152826101008201520152565b610c50610bec565b50610c59610b43565b908151156108475781610c73916020610cb794015261126e565b90610c7f939293610bec565b9360208101519060408101519060608101519060a0608082015191015160808901526060880152604087015260208601528452611af8565b61012086015261010085015260e084015260c083015260a082015290565b610cde90610d0b565b905f5b8251811015610b1d5781610cf58285610833565b5114610d0357600101610ce1565b505050600190565b610d13610b43565b80511561084757610d2f81610d3c936020610d37940152611450565b805190611519565b611b98565b90565b9190610d49610b43565b805115610847576020938482015281518060051b9080820486148115171561087b57906040519386850191601f19603f82880101166040528552865f9101905b838110610da15750505050610d9f929350611626565b565b815183529187019190870190600101610d89565b604051906101a082016001600160401b03811183821017610796576040525f610180838281528260208201528260408201528260608201528260808201528260a08201528260c08201528260e0820152826101008201528261012082015282610140820152826101608201520152565b60405190606082016001600160401b03811183821017610796576040525f6040838281528260208201520152565b610e5b610e25565b50610e64610b43565b80511561084757610e799160208201526112fa565b5050610e83610e25565b906020810151906060604082015191015160408401526020830152815290565b6040519060a082016001600160401b038111838210176107965760405260606080835f81525f60208201525f60408201525f838201520152565b610ee5610ea3565b50610eee610b43565b80511561084757610f03916020820152611390565b610f0b610ea3565b92602081015160f81c92600684101561013c57610f549382602164ffffffffff9401519060616041820151910151606089015260408801526020870152855260381c1690611519565b610f786001600160801b038216610f6a816116fc565b92602084019060801c61276b565b608082015290565b90610f89610b43565b9182511561084757602083015260405190602082015260208152610fac8161079b565b6001600160a01b03610fbc6116c7565b1691308303610fcf57610d9f9250611eac565b90823b1561011a57610ffa925f9283604051809681958294630a87993160e11b8452600484016115e7565b03925af180156104845761100b5750565b610d9f90610783565b6001600160401b03811161079657601f01601f191660200190565b5f5b8381106110405750505f910152565b8181015183820152602001611031565b81601f8201121561011a57805161106681611014565b9261107460405194856107b6565b8184526020828401011161011a57610d3c916020808501910161102f565b909160608284031261011a5781516001600160401b03929083811161011a57846110bd918301611050565b93602082015193604083015190811161011a57610d3c9201611050565b9081518082526020808093019301915f5b8281106110f9575050505090565b8351855293810193928101926001016110eb565b6001600160a01b0361111d6116c7565b16308103611136575061112f90611724565b9192909190565b60405163419b58fd60e01b815264537461747360581b631d18955160e21b0160048201526060602482015292915f918491829081906111799060648301906110da565b6fe60d002020012020202020010101010160781b604483015203915afa908115610484575f80935f936111ad575b50929190565b919350506111cd91503d805f833e6111c581836107b6565b810190611092565b929092915f6111a7565b6001600160a01b036111e76116c7565b163081036111f9575061112f90611804565b60405163419b58fd60e01b81526941726d6f72537461747360301b631d18955160e21b0160048201526060602482015292915f918491829081906112419060648301906110da565b69c107002020202020200160a81b604483015203915afa908115610484575f80935f936111ad5750929190565b6001600160a01b0361127e6116c7565b16308103611290575061112f906118cc565b60405163419b58fd60e01b81525f805160206128dd83398151915260048201526060602482015292915f918491829081906112cf9060648301906110da565b67050028290101010160bd1b604483015203915afa908115610484575f80935f936111ad5750929190565b6001600160a01b0361130a6116c7565b1630810361131c575061112f9061198b565b60405163419b58fd60e01b81526f537461745265737472696374696f6e73631d18955160e21b0160048201526060602482015292915f918491829081906113679060648301906110da565b6503001801010160cd1b604483015203915afa908115610484575f80935f936111ad5750929190565b6001600160a01b036113a06116c7565b163081036113b2575061112f90611a55565b60405163419b58fd60e01b8152644974656d7360581b631d18955160e21b0160048201526060602482015292915f918491829081906113f59060648301906110da565b660308200809010160c51b604483015203915afa908115610484575f80935f936111ad5750929190565b61142882610132565b52565b9060208282031261011a5781516001600160401b03811161011a57610d3c9201611050565b6001600160a01b036114606116c7565b163081036114725750610d3c90611b71565b604051631e78897760e01b81525f805160206128dd833981519152600482015260606024820152915f918391829081906114b09060648301906110da565b85604483015203915afa908115610484575f916114cb575090565b610d3c91503d805f833e6114df81836107b6565b81019061142b565b906020916115008151809281855285808601910161102f565b601f01601f1916010190565b9190820180921161087b57565b9081518111611538576001600160801b031660209190910160801b1790565b6040516323230fa360e01b8152606060048201529250829161155e9060648401906114e7565b905f602484015260448301520390fd5b82821180156115dd575b6115a85790816020828195940101938491011161087b57810390811161087b5760018060801b03169060801b1790565b6040516323230fa360e01b815260606004820152928392916115ce9060648501906114e7565b91602484015260448301520390fd5b5080518311611578565b5f805160206128dd8339815191528152608060208201819052610d3c939192611612918401906110da565b915f604082015260608184039101526114e7565b906001600160a01b036116376116c7565b169130830361164a57610d9f9250611c42565b90823b1561011a576040516377b7543160e11b81525f805160206128dd833981519152600482015260806024820152925f928492839185918391610ffa91906116979060848501906110da565b908460448501526003198483030160648501526114e7565b600a82101561013c5752565b600382101561013c5752565b7f629a4c26e296b22a8e0856e9f6ecb2d1008d7e00081111962cd175fa7488e175546001600160a01b031680610d3c57503390565b9061170682611014565b61171360405191826107b6565b82815280926108fd601f1991611014565b6040805164537461747360581b631d18955160e21b01602080830191825284515f956060959294939284019190850190875b8181106117f057505050918093920392611778601f19948581018352826107b6565b5190205f8051602061287d8339815191521890604051928061012585011660405260e68452818401929160e6915b818310156117d8575050806117bc575b50505092565b5f199060031b1c908183511691199054161790525f80806117b6565b816001858394959796548752019401940191906117a6565b825184529286019291860191600101611756565b604080516941726d6f72537461747360301b631d18955160e21b01602080830191825284515f956060959294939284019190850190875b8181106118b85750505091809392039261185d601f19948581018352826107b6565b5190205f8051602061287d8339815191521890604051928061010085011660405260c18452818401929160c1915b818310156118a0575050806117bc5750505092565b8160018583949597965487520194019401919061188b565b82518452928601929186019160010161183b565b9061190b60405160208101906118f4816118e68785612144565b03601f1981018352826107b6565b5190205f8051602061287d83398151915218612300565b9061191583612565565b5461192866ffffffffffffff82166116fc565b935f93602086015b60ff86166005811015611981576119628264ffffffffff876119528b89612230565b946028026038011c1680936122b6565b810180911161087b579460ff80911690811461087b5760010194611930565b5050949291935050565b604080516f537461745265737472696374696f6e73631d18955160e21b01602080830191825284515f956060959294939284019190850190875b818110611a41575050509180939203926119e7601f19948581018352826107b6565b5190205f8051602061287d83398151915218906040519280609f8501166040526060845281840192916060915b81831015611a29575050806117bc5750505092565b81600185839495979654875201940194019190611a14565b8251845292860192918601916001016119c5565b90611a866040516020810190611a6f816118e68785612183565b5190205f8051602061287d8339815191521861236a565b90611a908361257a565b54611aa366ffffffffffffff82166116fc565b935f93602086015b60ff8616600181101561198157611acd8264ffffffffff876119528b8961226d565b810180911161087b579460ff80911690811461087b5760010194611aab565b60ff16610d3c81610132565b91909164ffffffffff90818160381c1692610d3c611b50611b1c610d378789611519565b96611b33610d37878760601c16890180998461156e565b96611b65611b50611b55611b508a8a60881c16850180958761156e565b611bed565b988860b01c16830180938561156e565b9560d81c81019161156e565b610d3c9064ffffffffff611b8d611b8783612292565b92612565565b5460381c16906123b7565b6040805160206020600160801b0384168201810190925260016001607b1b03600584901c1680825290939260801c8285015f5b838110611bd9575050505050565b825182529184019190840190600101611bcb565b6040805160206020600160801b0384168201810190925260016001607b1b03600584901c1680825290939260801c8285015f5b838110611c2e575050505050565b825182529184019190840190600101611c20565b919091611c4e81612565565b5464ffffffffff8160381c16611c6f611c6782806108b1565b86519061150c565b8181141594908580611e6f575b611e4357611c8a908461258f565b90611c9361260c565b915f5b8351811015611d4657611cca611cbd611caf8387610833565b516001600160581b03191690565b6001600160581b03191690565b6010808260581c1614611ce1575b50600101611c96565b60601c90813b1561011a575f878b9388838c611d1360405198899687958694630abd6b4560e31b8652600486016123ec565b03925af191821561048457600192611d2d575b5090611cd8565b80611d3a611d4092610783565b806101b6565b5f611d26565b506040805192979195509392915f805160206128dd833981519152905f8051602061285d8339815191529080611d7f8c8a898d856124f7565b0390a2611e33575b611d9987611d9487612292565b61270d565b5f5b8151811015611e2957611db4611cbd611caf8385610833565b6020808260581c1614611dcb575b50600101611d9b565b60601c90813b1561011a575f868a9386838b611dfc8b5198899687958694636358453360e01b8652600486016123ec565b03925af191821561048457600192611e16575b5090611dc2565b80611d3a611e2392610783565b5f611e0f565b5050505050509050565b83611e3d86612565565b55611d87565b604051632994042d60e21b81525f600482015264ffffffffff8416602482018190526044820152606490fd5b5082611e87611e7d826123d9565b64ffffffffff1690565b1415611c7c565b60ff16600381101561013c5790565b60ff16600a81101561013c5790565b919091611eb88161253b565b5464ffffffffff8160381c16611ecf85518261150c565b81811415949085806120a5575b61207957611eea908461258f565b90611ef361260c565b915f5b8351811015611f8557611f0f611cbd611caf8387610833565b6010808260581c1614611f26575b50600101611ef6565b60601c90813b1561011a575f878b9388838c611f5860405198899687958694630abd6b4560e31b86526004860161244f565b03925af191821561048457600192611f72575b5090611f1d565b80611d3a611f7f92610783565b5f611f6b565b506040805192979195509392915f805160206128dd833981519152905f8051602061285d8339815191529080611fbe8c8a898d856124b2565b0390a2612069575b611fd98783611fd488612205565b61275a565b5f5b8151811015611e2957611ff4611cbd611caf8385610833565b6020808260581c161461200b575b50600101611fdb565b60601c90813b1561011a575f868a9386838b61203c8b5198899687958694636358453360e01b86526004860161244f565b03925af191821561048457600192612056575b5090612002565b80611d3a61206392610783565b5f61204f565b836120738661253b565b55611fc6565b604051632994042d60e21b815264ffffffffff8416600482018190525f60248301526044820152606490fd5b50826120b3611e7d826123d9565b1415611edc565b6953746f7265486f6f6b7360301b66746273746f726560c81b01815281516020918201928201915f5b8281106120f1575050505090565b8351855293810193928101926001016120e3565b5f805160206128dd833981519152815281516020918201928201915f5b828110612130575050505090565b835185529381019392810192600101612122565b5f805160206128dd833981519152815281516020918201928201915f5b82811061216f575050505090565b835185529381019392810192600101612161565b644974656d7360581b631d18955160e21b01815281516020918201928201915f5b8281106121b2575050505090565b8351855293810193928101926001016121a4565b5f805160206128dd833981519152815281516020918201928201915f5b8281106121f1575050505090565b8351855293810193928101926001016121e3565b5f8051602061289d83398151915290604051612229816118e6602082019485612105565b5190201890565b905f8051602061289d83398151915291604051612255816118e66020820194856121c6565b51902060f89190911b6001600160f81b031916181890565b905f8051602061289d83398151915291604051612255816118e6602082019485612183565b5f8051602061289d83398151915290604051612229816118e66020820194856121c6565b9291925b6020908183106122da5780548552930192601f19909101906001016122ba565b919050929192806122ea57505050565b5f199060031b1c90818351169119905416179052565b604051906020601f198060df85011660405260a0845260208401929160a0915b8183101561235257505080612336575b50505090565b5f199060031b1c908183511691199054161790525f8080612330565b81600185839495979654875201940194019190612320565b604051906020601f198060a0850116604052606184526020840192916061915b8183101561239f575050806123365750505090565b8160018583949597965487520194019401919061238a565b610d3c9060405192601f19603f828601011660405280845260208401916122b6565b9064ffffffffff80921691821161087b57565b909264ffffffffff61242a610d3c9694956f43686172616374657245717569706d65631d18955160e21b01855260e0602086015260e08501906110da565b945f60408501525f606085015216608083015260a082015260c08184039101526114e7565b909264ffffffffff61248d610d3c9694956f43686172616374657245717569706d65631d18955160e21b01855260e0602086015260e08501906110da565b945f60408501521660608301525f608083015260a082015260c08184039101526114e7565b909265ffffffffffff6124d2610d3c96949560c0855260c08501906110da565b945f60208501521660408301525f6060830152608082015260a08184039101526114e7565b909264ffffffffff612516610d3c96949560c0855260c08501906110da565b945f60208501525f6040850152166060830152608082015260a08184039101526114e7565b604051612550816118e6602082019485612105565b5190205f805160206128bd8339815191521890565b604051612550816118e66020820194856121c6565b604051612550816118e6602082019485612183565b64ffffffffff8083116125f35766ffffffffffffff821690603883901c16838181106125e9570301915b64ffffffffff60381b60389190911b1664ffffffffff60381b19929092166001600160601b031991909116171790565b90039003916125b9565b604051637149a3c160e01b815260048101849052602490fd5b612614610b43565b805115610847576126bf610d2f6020926f43686172616374657245717569706d65631d18955160e21b018482015264ffffffffff604051915f8051602061289d8339815191528684018461266884836120ba565b039461267c601f19968781018352826107b6565b51902018926126a260405191826126968a820195866120ba565b039081018352826107b6565b5190205f805160206128bd833981519152185460381c16906123b7565b8060801c916015809260018060801b0316049060405193818501828460051b8701016040528386525f5b8481106126f95750505050505090565b8251825291850191908301906001016126e9565b81519060208093019190925b8082101561274257508061272c57505050565b5f199060031b1c90818354169119905116179055565b6001839482939451815501930191601f190190612719565b8251610d9f936020019290916127b4565b9291905b60209081831061278e578451815293810193601f19909201910161276f565b929391905080156127af575f199060031b1c90818351169119905116179052565b505050565b9093929193806127f3575b509290925b6020908183106127e45784518155930192601f19909101906001016127c4565b92939190508061272c57505050565b602081101561284c575b80156127bf5791939082602003908360031b5f198460031b1c19811c908751901c90801983541691161781558183111561284457600101940191601f19910101925f6127bf565b505050509050565b90601f908260051c0191166127fd56fefe158a7adba34e256807c8a149028d3162918713c3838afc643ce9f96716ebfd86425bff6b57326c7859e89024fe4f238ca327a1ae4a230180dd2f0e88aaa7d93b4102da22e32d82fc925482184f16c09fd4281692720b87d124aef6da48a0f114e2fcc58e58e68ec7edc30c8d50dccc3ce2714a623ec81f46b6a63922d765697462554400000000000000000000000043686172616374657245717569706d65","linkReferences":{}},"methodIdentifiers":{"_msgSender()":"119df25f","_msgValue()":"45ec9354","_world()":"e1af802c","calculateArmorBonuses(bytes32)":"3fbb85fd","checkArmorRequirements(bytes32,uint256)":"cc53f7bb","equipArmor(bytes32,uint256)":"fa7bb175","getArmorStatsData(uint256)":"0fdbcbdc","getEquippedArmor(bytes32)":"e362ce33","isArmorEquippedExt(bytes32,uint256)":"7986b031","supportsInterface(bytes4)":"01ffc9a7","unequipArmor(bytes32,uint256)":"5d96c9ac"},"id":534}